{
  "abi": [
    {
      "inputs": [],
      "stateMutability": "nonpayable",
      "type": "constructor"
    },
    {
      "inputs": [],
      "name": "Entitlement__InvalidValue",
      "type": "error"
    },
    {
      "inputs": [],
      "name": "Entitlement__NotAllowed",
      "type": "error"
    },
    {
      "inputs": [],
      "name": "Entitlement__ValueAlreadyExists",
      "type": "error"
    },
    {
      "anonymous": false,
      "inputs": [
        {
          "indexed": false,
          "internalType": "address",
          "name": "previousAdmin",
          "type": "address"
        },
        {
          "indexed": false,
          "internalType": "address",
          "name": "newAdmin",
          "type": "address"
        }
      ],
      "name": "AdminChanged",
      "type": "event"
    },
    {
      "anonymous": false,
      "inputs": [
        {
          "indexed": true,
          "internalType": "address",
          "name": "beacon",
          "type": "address"
        }
      ],
      "name": "BeaconUpgraded",
      "type": "event"
    },
    {
      "anonymous": false,
      "inputs": [
        {
          "indexed": false,
          "internalType": "uint8",
          "name": "version",
          "type": "uint8"
        }
      ],
      "name": "Initialized",
      "type": "event"
    },
    {
      "anonymous": false,
      "inputs": [
        {
          "indexed": true,
          "internalType": "address",
          "name": "implementation",
          "type": "address"
        }
      ],
      "name": "Upgraded",
      "type": "event"
    },
    {
      "inputs": [],
      "name": "SPACE_ADDRESS",
      "outputs": [
        {
          "internalType": "address",
          "name": "",
          "type": "address"
        }
      ],
      "stateMutability": "view",
      "type": "function"
    },
    {
      "inputs": [],
      "name": "description",
      "outputs": [
        {
          "internalType": "string",
          "name": "",
          "type": "string"
        }
      ],
      "stateMutability": "view",
      "type": "function"
    },
    {
      "inputs": [
        {
          "components": [
            {
              "internalType": "address",
              "name": "contractAddress",
              "type": "address"
            },
            {
              "internalType": "uint256",
              "name": "quantity",
              "type": "uint256"
            },
            {
              "internalType": "bool",
              "name": "isSingleToken",
              "type": "bool"
            },
            {
              "internalType": "uint256[]",
              "name": "tokenIds",
              "type": "uint256[]"
            }
          ],
          "internalType": "struct ITokenEntitlement.ExternalToken[]",
          "name": "tokens",
          "type": "tuple[]"
        }
      ],
      "name": "encodeExternalTokens",
      "outputs": [],
      "stateMutability": "pure",
      "type": "function"
    },
    {
      "inputs": [
        {
          "internalType": "uint256",
          "name": "roleId",
          "type": "uint256"
        }
      ],
      "name": "getEntitlementDataByRoleId",
      "outputs": [
        {
          "internalType": "bytes[]",
          "name": "",
          "type": "bytes[]"
        }
      ],
      "stateMutability": "view",
      "type": "function"
    },
    {
      "inputs": [
        {
          "internalType": "address",
          "name": "space",
          "type": "address"
        }
      ],
      "name": "initialize",
      "outputs": [],
      "stateMutability": "nonpayable",
      "type": "function"
    },
    {
      "inputs": [
        {
          "internalType": "string",
          "name": "channelId",
          "type": "string"
        },
        {
          "internalType": "address",
          "name": "user",
          "type": "address"
        },
        {
          "internalType": "bytes32",
          "name": "permission",
          "type": "bytes32"
        }
      ],
      "name": "isEntitled",
      "outputs": [
        {
          "internalType": "bool",
          "name": "",
          "type": "bool"
        }
      ],
      "stateMutability": "view",
      "type": "function"
    },
    {
      "inputs": [],
      "name": "moduleType",
      "outputs": [
        {
          "internalType": "string",
          "name": "",
          "type": "string"
        }
      ],
      "stateMutability": "view",
      "type": "function"
    },
    {
      "inputs": [],
      "name": "name",
      "outputs": [
        {
          "internalType": "string",
          "name": "",
          "type": "string"
        }
      ],
      "stateMutability": "view",
      "type": "function"
    },
    {
      "inputs": [],
      "name": "proxiableUUID",
      "outputs": [
        {
          "internalType": "bytes32",
          "name": "",
          "type": "bytes32"
        }
      ],
      "stateMutability": "view",
      "type": "function"
    },
    {
      "inputs": [
        {
          "internalType": "uint256",
          "name": "roleId",
          "type": "uint256"
        },
        {
          "internalType": "bytes",
          "name": "entitlementData",
          "type": "bytes"
        }
      ],
      "name": "removeEntitlement",
      "outputs": [
        {
          "internalType": "bytes32",
          "name": "entitlementId",
          "type": "bytes32"
        }
      ],
      "stateMutability": "nonpayable",
      "type": "function"
    },
    {
      "inputs": [
        {
          "internalType": "uint256",
          "name": "roleId",
          "type": "uint256"
        },
        {
          "internalType": "bytes",
          "name": "entitlementData",
          "type": "bytes"
        }
      ],
      "name": "setEntitlement",
      "outputs": [
        {
          "internalType": "bytes32",
          "name": "entitlementId",
          "type": "bytes32"
        }
      ],
      "stateMutability": "nonpayable",
      "type": "function"
    },
    {
      "inputs": [
        {
          "internalType": "bytes4",
          "name": "interfaceId",
          "type": "bytes4"
        }
      ],
      "name": "supportsInterface",
      "outputs": [
        {
          "internalType": "bool",
          "name": "",
          "type": "bool"
        }
      ],
      "stateMutability": "view",
      "type": "function"
    },
    {
      "inputs": [
        {
          "internalType": "address",
          "name": "newImplementation",
          "type": "address"
        }
      ],
      "name": "upgradeTo",
      "outputs": [],
      "stateMutability": "nonpayable",
      "type": "function"
    },
    {
      "inputs": [
        {
          "internalType": "address",
          "name": "newImplementation",
          "type": "address"
        },
        {
          "internalType": "bytes",
          "name": "data",
          "type": "bytes"
        }
      ],
      "name": "upgradeToAndCall",
      "outputs": [],
      "stateMutability": "payable",
      "type": "function"
    }
  ],
  "bytecode": {
    "object": "0x60a0604052306080523480156200001557600080fd5b506200002062000026565b620000e8565b600054610100900460ff1615620000935760405162461bcd60e51b815260206004820152602760248201527f496e697469616c697a61626c653a20636f6e747261637420697320696e697469604482015266616c697a696e6760c81b606482015260840160405180910390fd5b60005460ff9081161015620000e6576000805460ff191660ff9081179091556040519081527f7f26b83ff96e1f2b6a682f133852f6798a09c465da95921460cefb38474024989060200160405180910390a15b565b6080516125db62000120600039600081816104a8015281816104f101528181610590015281816105d0015261065f01526125db6000f3fe6080604052600436106100dc5760003560e01c806352d1902d1161007f5780637284e416116100595780637284e41614610298578063c4d66de8146102da578063ef8be574146102fa578063fa6d1adf1461031a57600080fd5b806352d1902d1461021a5780635427e86a1461023d5780636465e69f1461025c57600080fd5b80631eee07b2116100bb5780631eee07b21461018057806334322eff146101ad5780633659cfe6146101e55780634f1ef2861461020757600080fd5b8062b4eaa8146100e157806301ffc9a71461011657806306fdde0314610136575b600080fd5b3480156100ed57600080fd5b506101016100fc366004611bde565b61033a565b60405190151581526020015b60405180910390f35b34801561012257600080fd5b50610101610131366004611c3a565b610367565b34801561014257600080fd5b5061017360405180604001604052806011815260200170151bdad95b88115b9d1a5d1b195b595b9d607a1b81525081565b60405161010d9190611cb4565b34801561018c57600080fd5b506101a061019b366004611cc7565b61039e565b60405161010d9190611ce0565b3480156101b957600080fd5b5060c9546101cd906001600160a01b031681565b6040516001600160a01b03909116815260200161010d565b3480156101f157600080fd5b50610205610200366004611d42565b61049e565b005b610205610215366004611df4565b610586565b34801561022657600080fd5b5061022f610652565b60405190815260200161010d565b34801561024957600080fd5b50610205610258366004611e86565b5050565b34801561026857600080fd5b506101736040518060400160405280601081526020016f151bdad95b915b9d1a5d1b195b595b9d60821b81525081565b3480156102a457600080fd5b5061017360405180604001604052806016815260200175456e7469746c656d656e7420666f7220746f6b656e7360501b81525081565b3480156102e657600080fd5b506102056102f5366004611d42565b610705565b34801561030657600080fd5b5061022f610315366004611efa565b610841565b34801561032657600080fd5b5061022f610335366004611efa565b610a8c565b600083156103555761034e85858585610b4e565b905061035f565b61034e8383610c91565b949350505050565b60006001600160e01b0319821663df76a3d360e01b148061039857506301ffc9a760e01b6001600160e01b03198316145b92915050565b600081815260cb60205260408120606091906103b990610e56565b9050600081516001600160401b038111156103d6576103d6611d5f565b60405190808252806020026020018201604052801561040957816020015b60608152602001906001900390816103f45790505b50905060005b82518110156104965760ca600084838151811061042e5761042e611f45565b602002602001015181526020019081526020016000206003016040516020016104579190611f5b565b60405160208183030381529060405282828151811061047857610478611f45565b6020026020010181905250808061048e9061203b565b91505061040f565b509392505050565b6001600160a01b037f00000000000000000000000000000000000000000000000000000000000000001630036104ef5760405162461bcd60e51b81526004016104e690612054565b60405180910390fd5b7f00000000000000000000000000000000000000000000000000000000000000006001600160a01b0316610538600080516020612594833981519152546001600160a01b031690565b6001600160a01b03161461055e5760405162461bcd60e51b81526004016104e6906120a0565b61056781610e6a565b6040805160008082526020820190925261058391839190610e9e565b50565b6001600160a01b037f00000000000000000000000000000000000000000000000000000000000000001630036105ce5760405162461bcd60e51b81526004016104e690612054565b7f00000000000000000000000000000000000000000000000000000000000000006001600160a01b0316610617600080516020612594833981519152546001600160a01b031690565b6001600160a01b03161461063d5760405162461bcd60e51b81526004016104e6906120a0565b61064682610e6a565b61025882826001610e9e565b6000306001600160a01b037f000000000000000000000000000000000000000000000000000000000000000016146106f25760405162461bcd60e51b815260206004820152603860248201527f555550535570677261646561626c653a206d757374206e6f742062652063616c60448201527f6c6564207468726f7567682064656c656761746563616c6c000000000000000060648201526084016104e6565b5060008051602061259483398151915290565b600054610100900460ff16158080156107255750600054600160ff909116105b8061073f5750303b15801561073f575060005460ff166001145b6107a25760405162461bcd60e51b815260206004820152602e60248201527f496e697469616c697a61626c653a20636f6e747261637420697320616c72656160448201526d191e481a5b9a5d1a585b1a5e995960921b60648201526084016104e6565b6000805460ff1916600117905580156107c5576000805461ff0019166101001790555b6107cd61100e565b6107d561100e565b6107dd61100e565b60c980546001600160a01b0319166001600160a01b0384161790558015610258576000805461ff0019169055604051600181527f7f26b83ff96e1f2b6a682f133852f6798a09c465da95921460cefb38474024989060200160405180910390a15050565b60c9546000906001600160a01b0316336001600160a01b03161461087857604051630ce39a4b60e21b815260040160405180910390fd5b83838360405160200161088d939291906120ec565b60408051601f198184030181529190528051602090910120905060006108b583850185612137565b905080516000036108d9576040516372bbc80f60e11b815260040160405180910390fd5b60005b8151811015610a335760006001600160a01b031682828151811061090257610902611f45565b6020026020010151600001516001600160a01b031603610935576040516372bbc80f60e11b815260040160405180910390fd5b81818151811061094757610947611f45565b602002602001015160200151600003610973576040516372bbc80f60e11b815260040160405180910390fd5b60ca600084815260200190815260200160002060030182828151811061099b5761099b611f45565b602090810291909101810151825460018082018555600094855293839020825160049092020180546001600160a01b0319166001600160a01b039092169190911781558183015193810193909355604081015160028401805460ff191691151591909117905560608101518051919392610a1d92600385019290910190611aa1565b5050508080610a2b9061203b565b9150506108dc565b50600082815260ca602090815260408083208881556001810180546001600160a01b031916331790554260029091015587835260cb9091529020610a77908361107b565b50610a8360cc8361107b565b50509392505050565b60c9546000906001600160a01b0316336001600160a01b031614610ac357604051630ce39a4b60e21b815260040160405180910390fd5b838383604051602001610ad8939291906120ec565b60408051601f198184030181529181528151602092830120600087815260cb9093529120909150610b099082611087565b50610b1560cc82611087565b50600081815260ca602052604081208181556001810180546001600160a01b03191690556002810182905590610a836003830182611aec565b60c954604051637cd7ee3d60e01b815260009182916001600160a01b0390911690637cd7ee3d90610b8590899089906004016122a0565b600060405180830381865afa158015610ba2573d6000803e3d6000fd5b505050506040513d6000823e601f3d908101601f19168201604052610bca9190810190612314565b905060005b816060015151811015610c8757600082606001518281518110610bf457610bf4611f45565b60200260200101519050610c088186611093565b15610c7457600081815260cb60205260408120610c2490610e56565b905060005b8151811015610c7157610c5588838381518110610c4857610c48611f45565b602002602001015161118d565b15610c5f57600195505b80610c698161203b565b915050610c29565b50505b5080610c7f8161203b565b915050610bcf565b5050949350505050565b6000805b610c9f60cc6113a7565b811015610e4f576000610cb360cc836113b1565b600081815260ca6020908152604080832081516080810183528154815260018201546001600160a01b0316818501526002820154818401526003820180548451818702810187019095528085529697509495909491936060860193929190879084015b82821015610dc4576000848152602090819020604080516080810182526004860290920180546001600160a01b03168352600181015483850152600281015460ff1615158383015260038101805483518187028101870190945280845293949193606086019392830182828015610dac57602002820191906000526020600020905b815481526020019060010190808311610d98575b50505050508152505081526020019060010190610d16565b505050915250508051909150610dda8187611093565b15610e3957600081815260cb60205260408120610df690610e56565b905060005b8151811015610e3657610e1a89838381518110610c4857610c48611f45565b15610e2457600196505b80610e2e8161203b565b915050610dfb565b50505b5050508080610e479061203b565b915050610c95565b5092915050565b60606000610e63836113bd565b9392505050565b60c9546001600160a01b0316336001600160a01b03161461058357604051630ce39a4b60e21b815260040160405180910390fd5b7f4910fdfa16fed3260ed0e7147f7cc6da11a60208b5b9406d12a635614ffd91435460ff1615610ed657610ed183611419565b505050565b826001600160a01b03166352d1902d6040518163ffffffff1660e01b8152600401602060405180830381865afa925050508015610f30575060408051601f3d908101601f19168201909252610f2d91810190612431565b60015b610f935760405162461bcd60e51b815260206004820152602e60248201527f45524331393637557067726164653a206e657720696d706c656d656e7461746960448201526d6f6e206973206e6f74205555505360901b60648201526084016104e6565b60008051602061259483398151915281146110025760405162461bcd60e51b815260206004820152602960248201527f45524331393637557067726164653a20756e737570706f727465642070726f786044820152681a58589b195555525160ba1b60648201526084016104e6565b50610ed18383836114b5565b600054610100900460ff166110795760405162461bcd60e51b815260206004820152602b60248201527f496e697469616c697a61626c653a20636f6e7472616374206973206e6f74206960448201526a6e697469616c697a696e6760a81b60648201526084016104e6565b565b6000610e6383836114e0565b6000610e63838361152f565b60c95460405163b426423360e01b8152600481018490526000916001600160a01b0316908290829063b426423390602401600060405180830381865afa1580156110e1573d6000803e3d6000fd5b505050506040513d6000823e601f3d908101601f19168201604052611109919081019061244a565b805190915060005b81811015611180578583828151811061112c5761112c611f45565b602002602001015160405160200161114491906124ed565b60405160208183030381529060405261115c90612509565b0361116e576001945050505050610398565b806111788161203b565b915050611111565b5060009695505050505050565b600081815260ca6020908152604080832060030180548251818502810185019093528083528493849084015b82821015611267576000848152602090819020604080516080810182526004860290920180546001600160a01b03168352600181015483850152600281015460ff161515838301526003810180548351818702810187019094528084529394919360608601939283018282801561124f57602002820191906000526020600020905b81548152602001906001019080831161123b575b505050505081525050815260200190600101906111b9565b5050505090506000805b825181101561139e57600083828151811061128e5761128e611f45565b602002602001015160200151905060008483815181106112b0576112b0611f45565b602002602001015160000151905060008584815181106112d2576112d2611f45565b602002602001015160600151905060008685815181106112f4576112f4611f45565b6020026020010151604001519050611313836380ac58cd60e01b611622565b1561133657611325838b8684866116a2565b95508515611336575050505061138c565b61134783636cdb3d1360e11b611622565b1561136a57611359838b868486611800565b9550851561136a575050505061138c565b611377838b8684866118f4565b955085611387575050505061139e565b505050505b806113968161203b565b915050611271565b50949350505050565b6000610398825490565b6000610e638383611913565b60608160000180548060200260200160405190810160405280929190818152602001828054801561140d57602002820191906000526020600020905b8154815260200190600101908083116113f9575b50505050509050919050565b6001600160a01b0381163b6114865760405162461bcd60e51b815260206004820152602d60248201527f455243313936373a206e657720696d706c656d656e746174696f6e206973206e60448201526c1bdd08184818dbdb9d1c9858dd609a1b60648201526084016104e6565b60008051602061259483398151915280546001600160a01b0319166001600160a01b0392909216919091179055565b6114be8361193d565b6000825111806114cb5750805b15610ed1576114da838361197d565b50505050565b600081815260018301602052604081205461152757508154600181810184556000848152602080822090930184905584548482528286019093526040902091909155610398565b506000610398565b60008181526001830160205260408120548015611618576000611553600183612530565b855490915060009061156790600190612530565b90508181146115cc57600086600001828154811061158757611587611f45565b90600052602060002001549050808760000184815481106115aa576115aa611f45565b6000918252602080832090910192909255918252600188019052604090208390555b85548690806115dd576115dd612543565b600190038181906000526020600020016000905590558560010160008681526020019081526020016000206000905560019350505050610398565b6000915050610398565b6040516301ffc9a760e01b81526001600160e01b0319821660048201526000906001600160a01b038416906301ffc9a790602401602060405180830381865afa92505050801561168f575060408051601f3d908101601f1916820190925261168c91810190612559565b60015b61169b57506000610398565b9050610398565b600082156117795760005b825181101561177357866001600160a01b0316636352211e8483815181106116d7576116d7611f45565b60200260200101516040518263ffffffff1660e01b81526004016116fd91815260200190565b602060405180830381865afa925050508015611736575060408051601f3d908101601f1916820190925261173391810190612576565b60015b1561176157866001600160a01b0316816001600160a01b03160361175f576001925050506117f7565b505b8061176b8161203b565b9150506116ad565b506117f3565b6040516370a0823160e01b81526001600160a01b0386811660048301528716906370a0823190602401602060405180830381865afa9250505080156117db575060408051601f3d908101601f191682019092526117d891810190612431565b60015b156117f3578481106117f15760019150506117f7565b505b5060005b95945050505050565b6000805b82518110156117f157866001600160a01b031662fdd58e8785848151811061182e5761182e611f45565b60200260200101516040518363ffffffff1660e01b81526004016118679291906001600160a01b03929092168252602082015260400190565b602060405180830381865afa9250505080156118a0575060408051601f3d908101601f1916820190925261189d91810190612431565b60015b156118e2578480156118b25750600081115b156118c2576001925050506117f7565b841580156118d05750858110155b156118e0576001925050506117f7565b505b806118ec8161203b565b915050611804565b60008215611904575060006117f7565b815115611779575060006117f7565b600082600001828154811061192a5761192a611f45565b9060005260206000200154905092915050565b61194681611419565b6040516001600160a01b038216907fbc7cd75a20ee27fd9adebab32041f755214dbc6bffa90cc0225b39da2e5c2d3b90600090a250565b60606001600160a01b0383163b6119e55760405162461bcd60e51b815260206004820152602660248201527f416464726573733a2064656c65676174652063616c6c20746f206e6f6e2d636f6044820152651b9d1c9858dd60d21b60648201526084016104e6565b600080846001600160a01b031684604051611a0091906124ed565b600060405180830381855af49150503d8060008114611a3b576040519150601f19603f3d011682016040523d82523d6000602084013e611a40565b606091505b50915091506117f782826040518060600160405280602781526020016125b46027913960608315611a72575081610e63565b610e638383815115611a875781518083602001fd5b8060405162461bcd60e51b81526004016104e69190611cb4565b828054828255906000526020600020908101928215611adc579160200282015b82811115611adc578251825591602001919060010190611ac1565b50611ae8929150611b0d565b5090565b50805460008255600402906000526020600020908101906105839190611b22565b5b80821115611ae85760008155600101611b0e565b80821115611ae85780546001600160a01b031916815560006001820181905560028201805460ff19169055611b5a6003830182611b63565b50600401611b22565b50805460008255906000526020600020908101906105839190611b0d565b60008083601f840112611b9357600080fd5b5081356001600160401b03811115611baa57600080fd5b602083019150836020828501011115611bc257600080fd5b9250929050565b6001600160a01b038116811461058357600080fd5b60008060008060608587031215611bf457600080fd5b84356001600160401b03811115611c0a57600080fd5b611c1687828801611b81565b9095509350506020850135611c2a81611bc9565b9396929550929360400135925050565b600060208284031215611c4c57600080fd5b81356001600160e01b031981168114610e6357600080fd5b60005b83811015611c7f578181015183820152602001611c67565b50506000910152565b60008151808452611ca0816020860160208601611c64565b601f01601f19169290920160200192915050565b602081526000610e636020830184611c88565b600060208284031215611cd957600080fd5b5035919050565b6000602080830181845280855180835260408601915060408160051b870101925083870160005b82811015611d3557603f19888603018452611d23858351611c88565b94509285019290850190600101611d07565b5092979650505050505050565b600060208284031215611d5457600080fd5b8135610e6381611bc9565b634e487b7160e01b600052604160045260246000fd5b604051608081016001600160401b0381118282101715611d9757611d97611d5f565b60405290565b604051601f8201601f191681016001600160401b0381118282101715611dc557611dc5611d5f565b604052919050565b60006001600160401b03821115611de657611de6611d5f565b50601f01601f191660200190565b60008060408385031215611e0757600080fd5b8235611e1281611bc9565b915060208301356001600160401b03811115611e2d57600080fd5b8301601f81018513611e3e57600080fd5b8035611e51611e4c82611dcd565b611d9d565b818152866020838501011115611e6657600080fd5b816020840160208301376000602083830101528093505050509250929050565b60008060208385031215611e9957600080fd5b82356001600160401b0380821115611eb057600080fd5b818501915085601f830112611ec457600080fd5b813581811115611ed357600080fd5b8660208260051b8501011115611ee857600080fd5b60209290920196919550909350505050565b600080600060408486031215611f0f57600080fd5b8335925060208401356001600160401b03811115611f2c57600080fd5b611f3886828701611b81565b9497909650939450505050565b634e487b7160e01b600052603260045260246000fd5b60006020808301818452808554808352604092508286019150828160051b8701016000888152858120815b8481101561201657898403603f1901865281546001600160a01b0316845260018281015489860152600283015460ff16151588860152608060608601819052600384018054918701829052855289852060a0870192909186905b80821015611ffd5783548552938c01939282019290820190611fe0565b5050509689019650935060049190910190600101611f86565b50919998505050505050505050565b634e487b7160e01b600052601160045260246000fd5b60006001820161204d5761204d612025565b5060010190565b6020808252602c908201527f46756e6374696f6e206d7573742062652063616c6c6564207468726f7567682060408201526b19195b1959d85d1958d85b1b60a21b606082015260800190565b6020808252602c908201527f46756e6374696f6e206d7573742062652063616c6c6564207468726f7567682060408201526b6163746976652070726f787960a01b606082015260800190565b838152818360208301376000910160200190815292915050565b60006001600160401b0382111561211f5761211f611d5f565b5060051b60200190565b801515811461058357600080fd5b6000602080838503121561214a57600080fd5b82356001600160401b038082111561216157600080fd5b818501915085601f83011261217557600080fd5b8135612183611e4c82612106565b81815260059190911b830184019084810190888311156121a257600080fd5b8585015b83811015612293578035858111156121bd57600080fd5b86016080818c03601f190112156121d357600080fd5b6121db611d75565b888201356121e881611bc9565b81526040828101358a830152606083013561220281612129565b828201526080830135888111156122195760008081fd5b8084019350508c603f84011261222f5760008081fd5b8983013561223f611e4c82612106565b81815260059190911b84018201908b8101908f83111561225f5760008081fd5b948301945b8286101561227d5785358252948c0194908c0190612264565b60608501525050508452509186019186016121a6565b5098975050505050505050565b60208152816020820152818360408301376000818301604090810191909152601f909201601f19160101919050565b600082601f8301126122e057600080fd5b81516122ee611e4c82611dcd565b81815284602083860101111561230357600080fd5b61035f826020830160208701611c64565b6000602080838503121561232757600080fd5b82516001600160401b038082111561233e57600080fd5b908401906080828703121561235257600080fd5b61235a611d75565b82518281111561236957600080fd5b612375888286016122cf565b8252508383015161238581612129565b8185015260408301518281111561239b57600080fd5b6123a7888286016122cf565b6040830152506060830151828111156123bf57600080fd5b80840193505086601f8401126123d457600080fd5b825191506123e4611e4c83612106565b82815260059290921b8301840191848101908884111561240357600080fd5b938501935b8385101561242157845182529385019390850190612408565b6060830152509695505050505050565b60006020828403121561244357600080fd5b5051919050565b6000602080838503121561245d57600080fd5b82516001600160401b038082111561247457600080fd5b818501915085601f83011261248857600080fd5b8151612496611e4c82612106565b81815260059190911b830184019084810190888311156124b557600080fd5b8585015b83811015612293578051858111156124d15760008081fd5b6124df8b89838a01016122cf565b8452509186019186016124b9565b600082516124ff818460208701611c64565b9190910192915050565b8051602080830151919081101561252a576000198160200360031b1b821691505b50919050565b8181038181111561039857610398612025565b634e487b7160e01b600052603160045260246000fd5b60006020828403121561256b57600080fd5b8151610e6381612129565b60006020828403121561258857600080fd5b8151610e6381611bc956fe360894a13ba1a3210667c828492db98dca3e2076cc3735a920a3ca505d382bbc416464726573733a206c6f772d6c6576656c2064656c65676174652063616c6c206661696c6564",
    "linkReferences": {}
  },
  "methodIdentifiers": {
    "SPACE_ADDRESS()": "34322eff",
    "description()": "7284e416",
    "encodeExternalTokens((address,uint256,bool,uint256[])[])": "5427e86a",
    "getEntitlementDataByRoleId(uint256)": "1eee07b2",
    "initialize(address)": "c4d66de8",
    "isEntitled(string,address,bytes32)": "00b4eaa8",
    "moduleType()": "6465e69f",
    "name()": "06fdde03",
    "proxiableUUID()": "52d1902d",
    "removeEntitlement(uint256,bytes)": "fa6d1adf",
    "setEntitlement(uint256,bytes)": "ef8be574",
    "supportsInterface(bytes4)": "01ffc9a7",
    "upgradeTo(address)": "3659cfe6",
    "upgradeToAndCall(address,bytes)": "4f1ef286"
  },
  "id": 143
}