{
  "abi": [
    {
      "inputs": [],
      "name": "Initializable_InInitializingState",
      "type": "error"
    },
    {
      "inputs": [],
      "name": "Initializable_NotInInitializingState",
      "type": "error"
    },
    {
      "inputs": [],
      "name": "Introspection_AlreadySupported",
      "type": "error"
    },
    {
      "inputs": [],
      "name": "Introspection_NotSupported",
      "type": "error"
    },
    {
      "inputs": [
        {
          "internalType": "address",
          "name": "wallet",
          "type": "address"
        },
        {
          "internalType": "address",
          "name": "rootKey",
          "type": "address"
        }
      ],
      "name": "LinkAlreadyExists",
      "type": "error"
    },
    {
      "anonymous": false,
      "inputs": [
        {
          "indexed": false,
          "internalType": "uint32",
          "name": "version",
          "type": "uint32"
        }
      ],
      "name": "Initialized",
      "type": "event"
    },
    {
      "anonymous": false,
      "inputs": [
        {
          "indexed": true,
          "internalType": "bytes4",
          "name": "interfaceId",
          "type": "bytes4"
        }
      ],
      "name": "InterfaceAdded",
      "type": "event"
    },
    {
      "anonymous": false,
      "inputs": [
        {
          "indexed": true,
          "internalType": "bytes4",
          "name": "interfaceId",
          "type": "bytes4"
        }
      ],
      "name": "InterfaceRemoved",
      "type": "event"
    },
    {
      "anonymous": false,
      "inputs": [
        {
          "indexed": false,
          "internalType": "address",
          "name": "wallet",
          "type": "address"
        },
        {
          "indexed": false,
          "internalType": "address",
          "name": "rootKey",
          "type": "address"
        }
      ],
      "name": "LinkWalletToRootKey",
      "type": "event"
    },
    {
      "anonymous": false,
      "inputs": [
        {
          "indexed": false,
          "internalType": "address",
          "name": "wallet",
          "type": "address"
        },
        {
          "indexed": false,
          "internalType": "address",
          "name": "rootKey",
          "type": "address"
        }
      ],
      "name": "RemoveLinkViaRootKey",
      "type": "event"
    },
    {
      "anonymous": false,
      "inputs": [
        {
          "indexed": false,
          "internalType": "address",
          "name": "wallet",
          "type": "address"
        },
        {
          "indexed": false,
          "internalType": "address",
          "name": "rootKey",
          "type": "address"
        }
      ],
      "name": "RemoveLinkViaWallet",
      "type": "event"
    },
    {
      "inputs": [],
      "name": "__WalletLink_init",
      "outputs": [],
      "stateMutability": "nonpayable",
      "type": "function"
    },
    {
      "inputs": [
        {
          "internalType": "address",
          "name": "rootKey",
          "type": "address"
        },
        {
          "internalType": "address",
          "name": "wallet",
          "type": "address"
        }
      ],
      "name": "checkIfLinked",
      "outputs": [
        {
          "internalType": "bool",
          "name": "",
          "type": "bool"
        }
      ],
      "stateMutability": "view",
      "type": "function"
    },
    {
      "inputs": [
        {
          "internalType": "address",
          "name": "rootKey",
          "type": "address"
        }
      ],
      "name": "getLatestNonceForRootKey",
      "outputs": [
        {
          "internalType": "uint64",
          "name": "",
          "type": "uint64"
        }
      ],
      "stateMutability": "view",
      "type": "function"
    },
    {
      "inputs": [
        {
          "internalType": "address",
          "name": "rootKey",
          "type": "address"
        }
      ],
      "name": "getLatestRemoveNonceForRootKey",
      "outputs": [
        {
          "internalType": "uint64",
          "name": "",
          "type": "uint64"
        }
      ],
      "stateMutability": "view",
      "type": "function"
    },
    {
      "inputs": [
        {
          "internalType": "address",
          "name": "wallet",
          "type": "address"
        }
      ],
      "name": "getLatestRemoveNonceForWallet",
      "outputs": [
        {
          "internalType": "uint64",
          "name": "",
          "type": "uint64"
        }
      ],
      "stateMutability": "view",
      "type": "function"
    },
    {
      "inputs": [
        {
          "internalType": "address",
          "name": "wallet",
          "type": "address"
        }
      ],
      "name": "getRootKeyForWallet",
      "outputs": [
        {
          "internalType": "address",
          "name": "rootKey",
          "type": "address"
        }
      ],
      "stateMutability": "view",
      "type": "function"
    },
    {
      "inputs": [
        {
          "internalType": "address",
          "name": "rootKey",
          "type": "address"
        }
      ],
      "name": "getWalletsByRootKey",
      "outputs": [
        {
          "internalType": "address[]",
          "name": "wallets",
          "type": "address[]"
        }
      ],
      "stateMutability": "view",
      "type": "function"
    },
    {
      "inputs": [
        {
          "internalType": "address",
          "name": "wallet",
          "type": "address"
        },
        {
          "internalType": "bytes",
          "name": "walletSignature",
          "type": "bytes"
        },
        {
          "internalType": "address",
          "name": "rootKey",
          "type": "address"
        },
        {
          "internalType": "bytes",
          "name": "rootKeySignature",
          "type": "bytes"
        },
        {
          "internalType": "uint64",
          "name": "nonce",
          "type": "uint64"
        }
      ],
      "name": "linkWalletToRootKey",
      "outputs": [],
      "stateMutability": "nonpayable",
      "type": "function"
    },
    {
      "inputs": [
        {
          "internalType": "bytes32",
          "name": "_ethSignedMessageHash",
          "type": "bytes32"
        },
        {
          "internalType": "bytes",
          "name": "_signature",
          "type": "bytes"
        }
      ],
      "name": "recoverSigner",
      "outputs": [
        {
          "internalType": "address",
          "name": "",
          "type": "address"
        }
      ],
      "stateMutability": "pure",
      "type": "function"
    },
    {
      "inputs": [
        {
          "internalType": "address",
          "name": "rootKey",
          "type": "address"
        },
        {
          "internalType": "bytes",
          "name": "rootKeySignature",
          "type": "bytes"
        },
        {
          "internalType": "address",
          "name": "wallet",
          "type": "address"
        },
        {
          "internalType": "uint64",
          "name": "removeNonce",
          "type": "uint64"
        }
      ],
      "name": "removeLinkViaRootKey",
      "outputs": [],
      "stateMutability": "nonpayable",
      "type": "function"
    },
    {
      "inputs": [
        {
          "internalType": "address",
          "name": "wallet",
          "type": "address"
        },
        {
          "internalType": "bytes",
          "name": "walletSignature",
          "type": "bytes"
        },
        {
          "internalType": "address",
          "name": "rootKey",
          "type": "address"
        },
        {
          "internalType": "uint64",
          "name": "removeNonce",
          "type": "uint64"
        }
      ],
      "name": "removeLinkViaWallet",
      "outputs": [],
      "stateMutability": "nonpayable",
      "type": "function"
    },
    {
      "inputs": [
        {
          "internalType": "bytes",
          "name": "sig",
          "type": "bytes"
        }
      ],
      "name": "splitSignature",
      "outputs": [
        {
          "internalType": "bytes32",
          "name": "r",
          "type": "bytes32"
        },
        {
          "internalType": "bytes32",
          "name": "s",
          "type": "bytes32"
        },
        {
          "internalType": "uint8",
          "name": "v",
          "type": "uint8"
        }
      ],
      "stateMutability": "pure",
      "type": "function"
    }
  ],
  "bytecode": {
    "object": "0x608060405234801561001057600080fd5b5061001961001e565b6100c4565b7f2d0d21306acfe8e9bb163a4573e95aff6cef95dc1102c6a16d5f19eac08cc4de8054640100000000900460ff161561006a576040516366008a2d60e01b815260040160405180910390fd5b805463ffffffff90811610156100c157805463ffffffff191663ffffffff90811782556040519081527fe9c9b456cb2994b80aeef036cf59d26e9617df80f816a6ee5a5b4166e07e2f5c9060200160405180910390a15b50565b61162c806100d36000396000f3fe608060405234801561001057600080fd5b50600436106100b45760003560e01c806397aba7f91161007157806397aba7f914610160578063a7bb58031461018b578063ccf480f7146101bc578063d48458f8146101cf578063ee5752bc146101e2578063f8210398146101f557600080fd5b806302345b98146100b957806320a00ac8146100e2578063260a409d1461010d5780635cdbbbef146101175780636b8ca3971461012a578063912b97581461013d575b600080fd5b6100cc6100c7366004611165565b610208565b6040516100d99190611180565b60405180910390f35b6100f56100f0366004611165565b610219565b6040516001600160401b0390911681526020016100d9565b61011561025f565b005b61011561012536600461122c565b6102bb565b61011561013836600461122c565b6102cf565b61015061014b3660046112a1565b6102dc565b60405190151581526020016100d9565b61017361016e366004611376565b6102ef565b6040516001600160a01b0390911681526020016100d9565b61019e6101993660046113bc565b61036e565b60408051938452602084019290925260ff16908201526060016100d9565b6101156101ca3660046113f8565b6103e7565b6100f56101dd366004611165565b6103ff565b6100f56101f0366004611165565b610445565b610173610203366004611165565b61048b565b6060610213826104cc565b92915050565b6001600160a01b03811660009081527f630d36d827dd2d1cf0d5118b0729bf3ba07959315de50567c8d0b01f7ec88e7460205260408120546001600160401b0316610213565b7f2d0d21306acfe8e9bb163a4573e95aff6cef95dc1102c6a16d5f19eac08cc4de54640100000000900460ff166102a957604051630ef4733760e31b815260040160405180910390fd5b6102b9638aee575b60e01b610550565b565b6102c8858585858561062e565b5050505050565b6102c88585858585610686565b60006102e883836106d3565b9392505050565b6000806000806102fe8561036e565b6040805160008152602081018083528b905260ff8316918101919091526060810184905260808101839052929550909350915060019060a0016020604051602081039080840390855afa158015610359573d6000803e3d6000fd5b5050604051601f190151979650505050505050565b600080600083516041146103c95760405162461bcd60e51b815260206004820152601860248201527f696e76616c6964207369676e6174757265206c656e677468000000000000000060448201526064015b60405180910390fd5b50505060208101516040820151606090920151909260009190911a90565b6103f68787878787878761073c565b50505050505050565b6001600160a01b03811660009081527f630d36d827dd2d1cf0d5118b0729bf3ba07959315de50567c8d0b01f7ec88e7660205260408120546001600160401b0316610213565b6001600160a01b03811660009081527f630d36d827dd2d1cf0d5118b0729bf3ba07959315de50567c8d0b01f7ec88e7560205260408120546001600160401b0316610213565b6001600160a01b0380821660009081527f630d36d827dd2d1cf0d5118b0729bf3ba07959315de50567c8d0b01f7ec88e736020526040812054909116610213565b6001600160a01b038116600090815260008051602061160c833981519152602081815260409283902080548451818402810184019095528085526060949283018282801561054357602002820191906000526020600020905b81546001600160a01b03168152600190910190602001808311610525575b5050505050915050919050565b6001600160e01b0319811660009081527fbc7de460bcfb6afd0c415c8c610d408bd914b18d7d0feec0da9e25348087a5c4602052604090205460ff1615156001146105dd576001600160e01b0319811660009081527fbc7de460bcfb6afd0c415c8c610d408bd914b18d7d0feec0da9e25348087a5c460205260409020805460ff191660011790556105f6565b604051637967f77d60e11b815260040160405180910390fd5b6040516001600160e01b03198216907f78f84e5b1c5c05be2b5ad3800781dd404d6d6c6302bc755c0fe20f58a33a7f2290600090a250565b61063b8585858585610797565b604080516001600160a01b038085168252871660208201527f65050554da593f4acb6a5d325b1eea7a353aaaf294fd92e4c464da529f339d1d91015b60405180910390a15050505050565b6106938585858585610b04565b604080516001600160a01b038088168252841660208201527f97d1080066ca40b1c31422ce6cc29d77d1b2dba92eee009587fcf351b556ba259101610677565b6001600160a01b0381811660009081527f630d36d827dd2d1cf0d5118b0729bf3ba07959315de50567c8d0b01f7ec88e736020526040812054909160008051602061160c83398151915291858216911603610732576001915050610213565b5060009392505050565b61074b87878787878787610e00565b604080516001600160a01b03808a168252861660208201527f64126824352170c4025060d1f6e215159635e4b08e649830695f26ef6d2b5721910160405180910390a150505050505050565b6001600160a01b03851660009081527f630d36d827dd2d1cf0d5118b0729bf3ba07959315de50567c8d0b01f7ec88e76602052604090205460008051602061160c833981519152906001600160401b039081169083161161080a5760405162461bcd60e51b81526004016103c09061149c565b6001600160a01b0383811660009081526001830160205260409020548116908716146108485760405162461bcd60e51b81526004016103c0906114e1565b6001600160a01b03861660009081526004820160209081526040808320805467ffffffffffffffff19166001600160401b038716179055516108ad9161089291879187910161152a565b604051602081830303815290604052805190602001206110f6565b9050866001600160a01b03166108f98288888080601f0160208091040260200160405190810160405280939291908181526020018383808284376000920191909152506102ef92505050565b6001600160a01b03161461095e5760405162461bcd60e51b815260206004820152602660248201527f57616c6c65744c696e6b3a20696e76616c696420726f6f74206b6579207369676044820152656e617475726560d01b60648201526084016103c0565b6001600160a01b0384166000908152600183016020526040812080546001600160a01b03191690555b6001600160a01b0388166000908152602084905260409020546001600160401b0382161015610afa576001600160a01b0388811660009081526020859052604090208054918716916001600160401b0384169081106109e8576109e861154c565b6000918252602090912001546001600160a01b031603610ae8576001600160a01b03881660009081526020849052604090208054610a2890600190611578565b81548110610a3857610a3861154c565b60009182526020808320909101546001600160a01b038b8116845291869052604090922080549190921691906001600160401b038416908110610a7d57610a7d61154c565b600091825260208083209190910180546001600160a01b0319166001600160a01b03948516179055918a1681529084905260409020805480610ac157610ac161158b565b600082815260209020810160001990810180546001600160a01b0319169055019055610afa565b80610af2816115a1565b915050610987565b5050505050505050565b6001600160a01b03851660009081527f630d36d827dd2d1cf0d5118b0729bf3ba07959315de50567c8d0b01f7ec88e75602052604090205460008051602061160c833981519152906001600160401b0390811690831611610b775760405162461bcd60e51b81526004016103c09061149c565b6001600160a01b038681166000908152600183016020526040902054811690841614610bb55760405162461bcd60e51b81526004016103c0906114e1565b6001600160a01b03861660009081526003820160209081526040808320805467ffffffffffffffff19166001600160401b03871617905551610bfb91869186910161152a565b604051602081830303815290604052805190602001209050866001600160a01b0316610c65610c29836110f6565b88888080601f0160208091040260200160405190810160405280939291908181526020018383808284376000920191909152506102ef92505050565b6001600160a01b031614610c8b5760405162461bcd60e51b81526004016103c0906115c7565b6001600160a01b0387166000908152600183016020526040812080546001600160a01b03191690555b6001600160a01b0385166000908152602084905260409020546001600160401b0382161015610afa576001600160a01b0385811660009081526020859052604090208054918a16916001600160401b038416908110610d1557610d1561154c565b6000918252602090912001546001600160a01b031603610dee576001600160a01b03851660009081526020849052604090208054610d5590600190611578565b81548110610d6557610d6561154c565b60009182526020808320909101546001600160a01b03888116845291869052604090922080549190921691906001600160401b038416908110610daa57610daa61154c565b600091825260208083209190910180546001600160a01b0319166001600160a01b0394851617905591871681529084905260409020805480610ac157610ac161158b565b80610df8816115a1565b915050610cb4565b6001600160a01b03841660009081527f630d36d827dd2d1cf0d5118b0729bf3ba07959315de50567c8d0b01f7ec88e74602052604090205460008051602061160c833981519152906001600160401b0390811690831611610ea35760405162461bcd60e51b815260206004820152601e60248201527f57616c6c65744c696e6b3a206e6f6e636520616c72656164792075736564000060448201526064016103c0565b6001600160a01b0385811660009081526002830160209081526040808320805467ffffffffffffffff19166001600160401b0388161790558b84168352600185019091529020541615610f425760405162461bcd60e51b815260206004820152602160248201527f57616c6c65744c696e6b3a2077616c6c657420616c7265616479206c696e6b656044820152601960fa1b60648201526084016103c0565b6000610f5a868460405160200161089292919061152a565b9050886001600160a01b0316610fa6828a8a8080601f0160208091040260200160405190810160405280939291908181526020018383808284376000920191909152506102ef92505050565b6001600160a01b031614610fcc5760405162461bcd60e51b81526004016103c0906115c7565b6000610fe48a8560405160200161089292919061152a565b9050866001600160a01b03166110308288888080601f0160208091040260200160405190810160405280939291908181526020018383808284376000920191909152506102ef92505050565b6001600160a01b0316146110945760405162461bcd60e51b815260206004820152602560248201527f57616c6c65744c696e6b3a20696e76616c696420726f6f744b6579207369676e604482015264617475726560d81b60648201526084016103c0565b50506001600160a01b039485166000818152602083815260408083208054600181810183559185528385200180549d909a166001600160a01b03199d8e168117909a559883529790930190925294902080549097169093179095555050505050565b6040517f19457468657265756d205369676e6564204d6573736167653a0a3332000000006020820152603c8101829052600090605c01604051602081830303815290604052805190602001209050919050565b80356001600160a01b038116811461116057600080fd5b919050565b60006020828403121561117757600080fd5b6102e882611149565b6020808252825182820181905260009190848201906040850190845b818110156111c15783516001600160a01b03168352928401929184019160010161119c565b50909695505050505050565b60008083601f8401126111df57600080fd5b5081356001600160401b038111156111f657600080fd5b60208301915083602082850101111561120e57600080fd5b9250929050565b80356001600160401b038116811461116057600080fd5b60008060008060006080868803121561124457600080fd5b61124d86611149565b945060208601356001600160401b0381111561126857600080fd5b611274888289016111cd565b9095509350611287905060408701611149565b915061129560608701611215565b90509295509295909350565b600080604083850312156112b457600080fd5b6112bd83611149565b91506112cb60208401611149565b90509250929050565b634e487b7160e01b600052604160045260246000fd5b600082601f8301126112fb57600080fd5b81356001600160401b0380821115611315576113156112d4565b604051601f8301601f19908116603f0116810190828211818310171561133d5761133d6112d4565b8160405283815286602085880101111561135657600080fd5b836020870160208301376000602085830101528094505050505092915050565b6000806040838503121561138957600080fd5b8235915060208301356001600160401b038111156113a657600080fd5b6113b2858286016112ea565b9150509250929050565b6000602082840312156113ce57600080fd5b81356001600160401b038111156113e457600080fd5b6113f0848285016112ea565b949350505050565b600080600080600080600060a0888a03121561141357600080fd5b61141c88611149565b965060208801356001600160401b038082111561143857600080fd5b6114448b838c016111cd565b909850965086915061145860408b01611149565b955060608a013591508082111561146e57600080fd5b5061147b8a828b016111cd565b909450925061148e905060808901611215565b905092959891949750929550565b60208082526025908201527f57616c6c65744c696e6b3a2072656d6f7665206e6f6e636520616c7265616479604082015264081d5cd95960da1b606082015260800190565b60208082526029908201527f57616c6c65744c696e6b3a2077616c6c6574206e6f74206c696e6b656420746f60408201526820726f6f74206b657960b81b606082015260800190565b6001600160a01b039290921682526001600160401b0316602082015260400190565b634e487b7160e01b600052603260045260246000fd5b634e487b7160e01b600052601160045260246000fd5b8181038181111561021357610213611562565b634e487b7160e01b600052603160045260246000fd5b60006001600160401b038083168181036115bd576115bd611562565b6001019392505050565b60208082526024908201527f57616c6c65744c696e6b3a20696e76616c69642077616c6c6574207369676e616040820152637475726560e01b60608201526080019056fe630d36d827dd2d1cf0d5118b0729bf3ba07959315de50567c8d0b01f7ec88e72",
    "linkReferences": {}
  },
  "methodIdentifiers": {
    "__WalletLink_init()": "260a409d",
    "checkIfLinked(address,address)": "912b9758",
    "getLatestNonceForRootKey(address)": "20a00ac8",
    "getLatestRemoveNonceForRootKey(address)": "d48458f8",
    "getLatestRemoveNonceForWallet(address)": "ee5752bc",
    "getRootKeyForWallet(address)": "f8210398",
    "getWalletsByRootKey(address)": "02345b98",
    "linkWalletToRootKey(address,bytes,address,bytes,uint64)": "ccf480f7",
    "recoverSigner(bytes32,bytes)": "97aba7f9",
    "removeLinkViaRootKey(address,bytes,address,uint64)": "5cdbbbef",
    "removeLinkViaWallet(address,bytes,address,uint64)": "6b8ca397",
    "splitSignature(bytes)": "a7bb5803"
  },
  "id": 120
}