{
  "abi": [
    {
      "inputs": [
        {
          "internalType": "contract IERC721",
          "name": "_councilNFT",
          "type": "address"
        }
      ],
      "stateMutability": "nonpayable",
      "type": "constructor"
    },
    {
      "inputs": [],
      "name": "NoPointsToClaim",
      "type": "error"
    },
    {
      "inputs": [],
      "name": "NoStakedTokens",
      "type": "error"
    },
    {
      "inputs": [],
      "name": "NotTokenOwner",
      "type": "error"
    },
    {
      "anonymous": false,
      "inputs": [
        {
          "indexed": true,
          "internalType": "address",
          "name": "previousOwner",
          "type": "address"
        },
        {
          "indexed": true,
          "internalType": "address",
          "name": "newOwner",
          "type": "address"
        }
      ],
      "name": "OwnershipTransferred",
      "type": "event"
    },
    {
      "inputs": [],
      "name": "claimPoints",
      "outputs": [],
      "stateMutability": "nonpayable",
      "type": "function"
    },
    {
      "inputs": [],
      "name": "councilNFT",
      "outputs": [
        {
          "internalType": "contract IERC721",
          "name": "",
          "type": "address"
        }
      ],
      "stateMutability": "view",
      "type": "function"
    },
    {
      "inputs": [
        {
          "internalType": "address",
          "name": "_staker",
          "type": "address"
        }
      ],
      "name": "getAvailablePoints",
      "outputs": [
        {
          "internalType": "uint256",
          "name": "",
          "type": "uint256"
        }
      ],
      "stateMutability": "view",
      "type": "function"
    },
    {
      "inputs": [
        {
          "internalType": "address",
          "name": "_user",
          "type": "address"
        }
      ],
      "name": "getStakedTokensByAddress",
      "outputs": [
        {
          "components": [
            {
              "internalType": "address",
              "name": "staker",
              "type": "address"
            },
            {
              "internalType": "uint256",
              "name": "tokenId",
              "type": "uint256"
            }
          ],
          "internalType": "struct CouncilDataTypes.StakedToken[]",
          "name": "",
          "type": "tuple[]"
        }
      ],
      "stateMutability": "view",
      "type": "function"
    },
    {
      "inputs": [
        {
          "internalType": "uint256",
          "name": "_tokenId",
          "type": "uint256"
        }
      ],
      "name": "getStakerAddressByTokenId",
      "outputs": [
        {
          "internalType": "address",
          "name": "",
          "type": "address"
        }
      ],
      "stateMutability": "view",
      "type": "function"
    },
    {
      "inputs": [
        {
          "internalType": "address",
          "name": "_staker",
          "type": "address"
        }
      ],
      "name": "getStakerByAddress",
      "outputs": [
        {
          "components": [
            {
              "internalType": "uint256",
              "name": "amountStaked",
              "type": "uint256"
            },
            {
              "components": [
                {
                  "internalType": "address",
                  "name": "staker",
                  "type": "address"
                },
                {
                  "internalType": "uint256",
                  "name": "tokenId",
                  "type": "uint256"
                }
              ],
              "internalType": "struct CouncilDataTypes.StakedToken[]",
              "name": "stakedTokens",
              "type": "tuple[]"
            },
            {
              "internalType": "uint256",
              "name": "timeOfLastUpdate",
              "type": "uint256"
            },
            {
              "internalType": "uint256",
              "name": "unclaimedPoints",
              "type": "uint256"
            }
          ],
          "internalType": "struct CouncilDataTypes.Staker",
          "name": "",
          "type": "tuple"
        }
      ],
      "stateMutability": "view",
      "type": "function"
    },
    {
      "inputs": [],
      "name": "owner",
      "outputs": [
        {
          "internalType": "address",
          "name": "",
          "type": "address"
        }
      ],
      "stateMutability": "view",
      "type": "function"
    },
    {
      "inputs": [],
      "name": "renounceOwnership",
      "outputs": [],
      "stateMutability": "nonpayable",
      "type": "function"
    },
    {
      "inputs": [
        {
          "internalType": "uint256",
          "name": "_tokenId",
          "type": "uint256"
        }
      ],
      "name": "stakeToken",
      "outputs": [],
      "stateMutability": "nonpayable",
      "type": "function"
    },
    {
      "inputs": [],
      "name": "totalSupply",
      "outputs": [
        {
          "internalType": "uint256",
          "name": "",
          "type": "uint256"
        }
      ],
      "stateMutability": "view",
      "type": "function"
    },
    {
      "inputs": [
        {
          "internalType": "address",
          "name": "newOwner",
          "type": "address"
        }
      ],
      "name": "transferOwnership",
      "outputs": [],
      "stateMutability": "nonpayable",
      "type": "function"
    },
    {
      "inputs": [
        {
          "internalType": "uint256",
          "name": "_tokenId",
          "type": "uint256"
        }
      ],
      "name": "withdrawToken",
      "outputs": [],
      "stateMutability": "nonpayable",
      "type": "function"
    }
  ],
  "bytecode": {
    "object": "0x60a0604052620186a060035534801561001757600080fd5b5060405161152f38038061152f833981016040819052610036916100a4565b61003f33610054565b600180556001600160a01b03166080526100d4565b600080546001600160a01b038381166001600160a01b0319831681178455604051919092169283917f8be0079c531659141344cd1fd0a4f28419497f9722a3daafe3b4186f6b6457e09190a35050565b6000602082840312156100b657600080fd5b81516001600160a01b03811681146100cd57600080fd5b9392505050565b60805161142b61010460003960008181610202015281816108f201528181610b950152610c88015261142b6000f3fe608060405234801561001057600080fd5b50600436106100d45760003560e01c80638da5cb5b11610081578063cda6b8471161005b578063cda6b847146101ea578063f1650069146101fd578063f2fde38b1461022457600080fd5b80638da5cb5b14610199578063b503bbdb146101b7578063ca1fb21b146101d757600080fd5b806318160ddd116100b257806318160ddd1461016757806350baa6221461017e578063715018a61461019157600080fd5b806302dc0524146100d957806304d092c7146101025780630f59165a1461010c575b600080fd5b6100ec6100e73660046110df565b610237565b6040516100f991906110fc565b60405180910390f35b61010a610476565b005b61014261011a366004611164565b60009081526005602052604090205473ffffffffffffffffffffffffffffffffffffffff1690565b60405173ffffffffffffffffffffffffffffffffffffffff90911681526020016100f9565b61017060025481565b6040519081526020016100f9565b61010a61018c366004611164565b610532565b61010a6109ba565b60005473ffffffffffffffffffffffffffffffffffffffff16610142565b6101ca6101c53660046110df565b6109ce565b6040516100f9919061117d565b6101706101e53660046110df565b610aca565b61010a6101f8366004611164565b610af9565b6101427f000000000000000000000000000000000000000000000000000000000000000081565b61010a6102323660046110df565b610e34565b33600090815260046020526040902054606090156104325773ffffffffffffffffffffffffffffffffffffffff821660009081526004602052604081205467ffffffffffffffff81111561028d5761028d611211565b6040519080825280602002602001820160405280156102d257816020015b60408051808201909152600080825260208201528152602001906001900390816102ab5790505b5090506000805b73ffffffffffffffffffffffffffffffffffffffff85166000908152600460205260409020600101548110156104295773ffffffffffffffffffffffffffffffffffffffff8516600090815260046020526040812060010180548390811061034357610343611240565b600091825260209091206002909102015473ffffffffffffffffffffffffffffffffffffffff16146104175773ffffffffffffffffffffffffffffffffffffffff851660009081526004602052604090206001018054829081106103a9576103a9611240565b600091825260209182902060408051808201909152600290920201805473ffffffffffffffffffffffffffffffffffffffff168252600101549181019190915283518490849081106103fd576103fd611240565b602002602001018190525081806104139061129e565b9250505b806104218161129e565b9150506102d9565b50909392505050565b604080516000808252602082019092529061046f565b60408051808201909152600080825260208201528152602001906001900390816104485790505b5092915050565b33600081815260046020526040812060030154909161049490610eed565b61049e91906112d6565b9050806000036104da576040517f029116b400000000000000000000000000000000000000000000000000000000815260040160405180910390fd5b3360008181526004602052604080822042600282015560030191909155517fba953728785de35be3827ee7a7a7867a8472947562602939440e6c0bdbf4725e906105279084815260200190565b60405180910390a250565b61053a610f54565b336000908152600460205260408120549003610582576040517f7ed4d00900000000000000000000000000000000000000000000000000000000815260040160405180910390fd5b60008181526005602052604090205473ffffffffffffffffffffffffffffffffffffffff1633146105df576040517f59dc379f00000000000000000000000000000000000000000000000000000000815260040160405180910390fd5b60006105ea33610eed565b336000908152600460205260408120600301805492935083929091906106119084906112d6565b909155505033600090815260046020526040812060010154815b818110156106e15733600090815260046020526040902060010180548691908390811061065a5761065a611240565b9060005260206000209060020201600101541480156106c2575033600090815260046020526040812060010180548390811061069857610698611240565b600091825260209091206002909102015473ffffffffffffffffffffffffffffffffffffffff1614155b156106cf578092506106e1565b806106d98161129e565b91505061062b565b5033600090815260046020526040902060019081019061070190836112e9565b8154811061071157610711611240565b9060005260206000209060020201600460003373ffffffffffffffffffffffffffffffffffffffff1673ffffffffffffffffffffffffffffffffffffffff168152602001908152602001600020600101838154811061077257610772611240565b60009182526020808320845460029093020180547fffffffffffffffffffffffff00000000000000000000000000000000000000001673ffffffffffffffffffffffffffffffffffffffff909316929092178255600193840154918401919091553382526004905260409020018054806107ee576107ee6112fc565b6000828152602080822060027fffffffffffffffffffffffffffffffffffffffffffffffffffffffffffffffff9094019384020180547fffffffffffffffffffffffff00000000000000000000000000000000000000001681556001018290559190925533825260049052604081208054916108698361132b565b90915550506000848152600560205260409081902080547fffffffffffffffffffffffff0000000000000000000000000000000000000000169055517f23b872dd0000000000000000000000000000000000000000000000000000000081523060048201523360248201526044810185905273ffffffffffffffffffffffffffffffffffffffff7f000000000000000000000000000000000000000000000000000000000000000016906323b872dd90606401600060405180830381600087803b15801561093657600080fd5b505af115801561094a573d6000803e3d6000fd5b5050336000908152600460205260408120426002918201558054935091506109718361132b565b909155505060405184815233907f884edad9ce6fa2440d8a54cc123490eb96d2768479d49ff9c7366125a94243649060200160405180910390a25050506109b760018055565b50565b6109c2610fc7565b6109cc6000611048565b565b6109f96040518060800160405280600081526020016060815260200160008152602001600081525090565b73ffffffffffffffffffffffffffffffffffffffff821660009081526004602090815260408083208151608081018352815481526001820180548451818702810187019095528085529195929486810194939192919084015b82821015610aa75760008481526020908190206040805180820190915260028502909101805473ffffffffffffffffffffffffffffffffffffffff168252600190810154828401529083529092019101610a52565b505050508152602001600282015481526020016003820154815250509050919050565b336000908152600460205260408120600301548190610ae884610eed565b610af291906112d6565b9392505050565b610b01610f54565b3360009081526004602052604090205415610b4f576000610b2133610eed565b33600090815260046020526040812060030180549293508392909190610b489084906112d6565b9091555050505b6040517f6352211e00000000000000000000000000000000000000000000000000000000815260048101829052339073ffffffffffffffffffffffffffffffffffffffff7f00000000000000000000000000000000000000000000000000000000000000001690636352211e90602401602060405180830381865afa158015610bdc573d6000803e3d6000fd5b505050506040513d601f19601f82011682018060405250810190610c009190611360565b73ffffffffffffffffffffffffffffffffffffffff1614610c4d576040517f59dc379f00000000000000000000000000000000000000000000000000000000815260040160405180910390fd5b6040517f23b872dd000000000000000000000000000000000000000000000000000000008152336004820152306024820152604481018290527f000000000000000000000000000000000000000000000000000000000000000073ffffffffffffffffffffffffffffffffffffffff16906323b872dd90606401600060405180830381600087803b158015610ce157600080fd5b505af1158015610cf5573d6000803e3d6000fd5b5050604080518082018252338082526020808301878152600083815260048352948520600180820180548083018255908852938720865160029095020180547fffffffffffffffffffffffff00000000000000000000000000000000000000001673ffffffffffffffffffffffffffffffffffffffff90951694909417845591519290910191909155908352805491945090925090610d938361129e565b9091555050600082815260056020908152604080832080547fffffffffffffffffffffffff0000000000000000000000000000000000000000163390811790915583526004909152812042600291820155805491610df08361129e565b909155505060405182815233907f9e71bc8eea02a63969f509818f2dafb9254532904319f9dbda79b67bd34a5f3d9060200160405180910390a2506109b760018055565b610e3c610fc7565b73ffffffffffffffffffffffffffffffffffffffff8116610ee4576040517f08c379a000000000000000000000000000000000000000000000000000000000815260206004820152602660248201527f4f776e61626c653a206e6577206f776e657220697320746865207a65726f206160448201527f646472657373000000000000000000000000000000000000000000000000000060648201526084015b60405180910390fd5b6109b781611048565b60035473ffffffffffffffffffffffffffffffffffffffff8216600090815260046020526040812080546002909101549192610e1092909190610f3090426112e9565b610f3a919061137d565b610f44919061137d565b610f4e91906113ba565b92915050565b600260015403610fc0576040517f08c379a000000000000000000000000000000000000000000000000000000000815260206004820152601f60248201527f5265656e7472616e637947756172643a207265656e7472616e742063616c6c006044820152606401610edb565b6002600155565b60005473ffffffffffffffffffffffffffffffffffffffff1633146109cc576040517f08c379a000000000000000000000000000000000000000000000000000000000815260206004820181905260248201527f4f776e61626c653a2063616c6c6572206973206e6f7420746865206f776e65726044820152606401610edb565b6000805473ffffffffffffffffffffffffffffffffffffffff8381167fffffffffffffffffffffffff0000000000000000000000000000000000000000831681178455604051919092169283917f8be0079c531659141344cd1fd0a4f28419497f9722a3daafe3b4186f6b6457e09190a35050565b73ffffffffffffffffffffffffffffffffffffffff811681146109b757600080fd5b6000602082840312156110f157600080fd5b8135610af2816110bd565b6020808252825182820181905260009190848201906040850190845b81811015611158578351805173ffffffffffffffffffffffffffffffffffffffff1684526020908101519084015260408301938501939250600101611118565b50909695505050505050565b60006020828403121561117657600080fd5b5035919050565b60208082528251828201528281015160806040840152805160a0840181905260009291820190839060c08601905b808310156111ef578351805173ffffffffffffffffffffffffffffffffffffffff1683526020908101519083015260408201915084840193506001830192506111ab565b5060408701516060870152606087015160808701528094505050505092915050565b7f4e487b7100000000000000000000000000000000000000000000000000000000600052604160045260246000fd5b7f4e487b7100000000000000000000000000000000000000000000000000000000600052603260045260246000fd5b7f4e487b7100000000000000000000000000000000000000000000000000000000600052601160045260246000fd5b60007fffffffffffffffffffffffffffffffffffffffffffffffffffffffffffffffff82036112cf576112cf61126f565b5060010190565b80820180821115610f4e57610f4e61126f565b81810381811115610f4e57610f4e61126f565b7f4e487b7100000000000000000000000000000000000000000000000000000000600052603160045260246000fd5b60008161133a5761133a61126f565b507fffffffffffffffffffffffffffffffffffffffffffffffffffffffffffffffff0190565b60006020828403121561137257600080fd5b8151610af2816110bd565b6000817fffffffffffffffffffffffffffffffffffffffffffffffffffffffffffffffff04831182151516156113b5576113b561126f565b500290565b6000826113f0577f4e487b7100000000000000000000000000000000000000000000000000000000600052601260045260246000fd5b50049056fea2646970667358221220fccc678858b83f087ba7a85afa120b12332634015719c1459005293813aec60b64736f6c63430008100033",
    "linkReferences": {}
  },
  "methodIdentifiers": {
    "claimPoints()": "04d092c7",
    "councilNFT()": "f1650069",
    "getAvailablePoints(address)": "ca1fb21b",
    "getStakedTokensByAddress(address)": "02dc0524",
    "getStakerAddressByTokenId(uint256)": "0f59165a",
    "getStakerByAddress(address)": "b503bbdb",
    "owner()": "8da5cb5b",
    "renounceOwnership()": "715018a6",
    "stakeToken(uint256)": "cda6b847",
    "totalSupply()": "18160ddd",
    "transferOwnership(address)": "f2fde38b",
    "withdrawToken(uint256)": "50baa622"
  },
  "id": 1
}