{
  "abi": [
    {
      "inputs": [
        {
          "internalType": "string",
          "name": "_name",
          "type": "string"
        },
        {
          "internalType": "string",
          "name": "_symbol",
          "type": "string"
        },
        {
          "internalType": "string",
          "name": "_baseURI",
          "type": "string"
        },
        {
          "internalType": "bytes32",
          "name": "_root",
          "type": "bytes32"
        }
      ],
      "stateMutability": "nonpayable",
      "type": "constructor"
    },
    {
      "inputs": [],
      "name": "AlreadyMinted",
      "type": "error"
    },
    {
      "inputs": [],
      "name": "MaxSupply",
      "type": "error"
    },
    {
      "inputs": [],
      "name": "MintPriceNotPaid",
      "type": "error"
    },
    {
      "inputs": [],
      "name": "NonExistentTokenURI",
      "type": "error"
    },
    {
      "inputs": [],
      "name": "WithdrawTransfer",
      "type": "error"
    },
    {
      "anonymous": false,
      "inputs": [
        {
          "indexed": true,
          "internalType": "address",
          "name": "owner",
          "type": "address"
        },
        {
          "indexed": true,
          "internalType": "address",
          "name": "spender",
          "type": "address"
        },
        {
          "indexed": true,
          "internalType": "uint256",
          "name": "id",
          "type": "uint256"
        }
      ],
      "name": "Approval",
      "type": "event"
    },
    {
      "anonymous": false,
      "inputs": [
        {
          "indexed": true,
          "internalType": "address",
          "name": "owner",
          "type": "address"
        },
        {
          "indexed": true,
          "internalType": "address",
          "name": "operator",
          "type": "address"
        },
        {
          "indexed": false,
          "internalType": "bool",
          "name": "approved",
          "type": "bool"
        }
      ],
      "name": "ApprovalForAll",
      "type": "event"
    },
    {
      "anonymous": false,
      "inputs": [
        {
          "indexed": true,
          "internalType": "address",
          "name": "previousOwner",
          "type": "address"
        },
        {
          "indexed": true,
          "internalType": "address",
          "name": "newOwner",
          "type": "address"
        }
      ],
      "name": "OwnershipTransferred",
      "type": "event"
    },
    {
      "anonymous": false,
      "inputs": [
        {
          "indexed": true,
          "internalType": "address",
          "name": "from",
          "type": "address"
        },
        {
          "indexed": true,
          "internalType": "address",
          "name": "to",
          "type": "address"
        },
        {
          "indexed": true,
          "internalType": "uint256",
          "name": "id",
          "type": "uint256"
        }
      ],
      "name": "Transfer",
      "type": "event"
    },
    {
      "inputs": [],
      "name": "allowlistMint",
      "outputs": [
        {
          "internalType": "bool",
          "name": "",
          "type": "bool"
        }
      ],
      "stateMutability": "view",
      "type": "function"
    },
    {
      "inputs": [
        {
          "internalType": "address",
          "name": "",
          "type": "address"
        }
      ],
      "name": "alreadyMinted",
      "outputs": [
        {
          "internalType": "bool",
          "name": "",
          "type": "bool"
        }
      ],
      "stateMutability": "view",
      "type": "function"
    },
    {
      "inputs": [
        {
          "internalType": "address",
          "name": "spender",
          "type": "address"
        },
        {
          "internalType": "uint256",
          "name": "id",
          "type": "uint256"
        }
      ],
      "name": "approve",
      "outputs": [],
      "stateMutability": "nonpayable",
      "type": "function"
    },
    {
      "inputs": [
        {
          "internalType": "address",
          "name": "owner",
          "type": "address"
        }
      ],
      "name": "balanceOf",
      "outputs": [
        {
          "internalType": "uint256",
          "name": "",
          "type": "uint256"
        }
      ],
      "stateMutability": "view",
      "type": "function"
    },
    {
      "inputs": [],
      "name": "baseURI",
      "outputs": [
        {
          "internalType": "string",
          "name": "",
          "type": "string"
        }
      ],
      "stateMutability": "view",
      "type": "function"
    },
    {
      "inputs": [],
      "name": "currentTokenId",
      "outputs": [
        {
          "internalType": "uint256",
          "name": "",
          "type": "uint256"
        }
      ],
      "stateMutability": "view",
      "type": "function"
    },
    {
      "inputs": [
        {
          "internalType": "uint256",
          "name": "",
          "type": "uint256"
        }
      ],
      "name": "getApproved",
      "outputs": [
        {
          "internalType": "address",
          "name": "",
          "type": "address"
        }
      ],
      "stateMutability": "view",
      "type": "function"
    },
    {
      "inputs": [
        {
          "internalType": "address",
          "name": "",
          "type": "address"
        },
        {
          "internalType": "address",
          "name": "",
          "type": "address"
        }
      ],
      "name": "isApprovedForAll",
      "outputs": [
        {
          "internalType": "bool",
          "name": "",
          "type": "bool"
        }
      ],
      "stateMutability": "view",
      "type": "function"
    },
    {
      "inputs": [
        {
          "internalType": "address",
          "name": "recipient",
          "type": "address"
        }
      ],
      "name": "mint",
      "outputs": [
        {
          "internalType": "uint256",
          "name": "",
          "type": "uint256"
        }
      ],
      "stateMutability": "payable",
      "type": "function"
    },
    {
      "inputs": [],
      "name": "name",
      "outputs": [
        {
          "internalType": "string",
          "name": "",
          "type": "string"
        }
      ],
      "stateMutability": "view",
      "type": "function"
    },
    {
      "inputs": [],
      "name": "owner",
      "outputs": [
        {
          "internalType": "address",
          "name": "",
          "type": "address"
        }
      ],
      "stateMutability": "view",
      "type": "function"
    },
    {
      "inputs": [
        {
          "internalType": "uint256",
          "name": "id",
          "type": "uint256"
        }
      ],
      "name": "ownerOf",
      "outputs": [
        {
          "internalType": "address",
          "name": "owner",
          "type": "address"
        }
      ],
      "stateMutability": "view",
      "type": "function"
    },
    {
      "inputs": [
        {
          "internalType": "address",
          "name": "recipient",
          "type": "address"
        },
        {
          "internalType": "uint256",
          "name": "allowance",
          "type": "uint256"
        },
        {
          "internalType": "bytes32[]",
          "name": "proof",
          "type": "bytes32[]"
        }
      ],
      "name": "privateMint",
      "outputs": [
        {
          "internalType": "uint256",
          "name": "",
          "type": "uint256"
        }
      ],
      "stateMutability": "payable",
      "type": "function"
    },
    {
      "inputs": [],
      "name": "publicMint",
      "outputs": [
        {
          "internalType": "bool",
          "name": "",
          "type": "bool"
        }
      ],
      "stateMutability": "view",
      "type": "function"
    },
    {
      "inputs": [],
      "name": "renounceOwnership",
      "outputs": [],
      "stateMutability": "nonpayable",
      "type": "function"
    },
    {
      "inputs": [
        {
          "internalType": "address",
          "name": "from",
          "type": "address"
        },
        {
          "internalType": "address",
          "name": "to",
          "type": "address"
        },
        {
          "internalType": "uint256",
          "name": "id",
          "type": "uint256"
        }
      ],
      "name": "safeTransferFrom",
      "outputs": [],
      "stateMutability": "nonpayable",
      "type": "function"
    },
    {
      "inputs": [
        {
          "internalType": "address",
          "name": "from",
          "type": "address"
        },
        {
          "internalType": "address",
          "name": "to",
          "type": "address"
        },
        {
          "internalType": "uint256",
          "name": "id",
          "type": "uint256"
        },
        {
          "internalType": "bytes",
          "name": "data",
          "type": "bytes"
        }
      ],
      "name": "safeTransferFrom",
      "outputs": [],
      "stateMutability": "nonpayable",
      "type": "function"
    },
    {
      "inputs": [
        {
          "internalType": "address",
          "name": "operator",
          "type": "address"
        },
        {
          "internalType": "bool",
          "name": "approved",
          "type": "bool"
        }
      ],
      "name": "setApprovalForAll",
      "outputs": [],
      "stateMutability": "nonpayable",
      "type": "function"
    },
    {
      "inputs": [],
      "name": "startPublicMint",
      "outputs": [],
      "stateMutability": "nonpayable",
      "type": "function"
    },
    {
      "inputs": [],
      "name": "startWaitlistMint",
      "outputs": [],
      "stateMutability": "nonpayable",
      "type": "function"
    },
    {
      "inputs": [
        {
          "internalType": "bytes4",
          "name": "interfaceId",
          "type": "bytes4"
        }
      ],
      "name": "supportsInterface",
      "outputs": [
        {
          "internalType": "bool",
          "name": "",
          "type": "bool"
        }
      ],
      "stateMutability": "view",
      "type": "function"
    },
    {
      "inputs": [],
      "name": "symbol",
      "outputs": [
        {
          "internalType": "string",
          "name": "",
          "type": "string"
        }
      ],
      "stateMutability": "view",
      "type": "function"
    },
    {
      "inputs": [
        {
          "internalType": "uint256",
          "name": "tokenId",
          "type": "uint256"
        }
      ],
      "name": "tokenURI",
      "outputs": [
        {
          "internalType": "string",
          "name": "",
          "type": "string"
        }
      ],
      "stateMutability": "view",
      "type": "function"
    },
    {
      "inputs": [
        {
          "internalType": "address",
          "name": "from",
          "type": "address"
        },
        {
          "internalType": "address",
          "name": "to",
          "type": "address"
        },
        {
          "internalType": "uint256",
          "name": "id",
          "type": "uint256"
        }
      ],
      "name": "transferFrom",
      "outputs": [],
      "stateMutability": "nonpayable",
      "type": "function"
    },
    {
      "inputs": [
        {
          "internalType": "address",
          "name": "newOwner",
          "type": "address"
        }
      ],
      "name": "transferOwnership",
      "outputs": [],
      "stateMutability": "nonpayable",
      "type": "function"
    },
    {
      "inputs": [],
      "name": "waitlistMint",
      "outputs": [
        {
          "internalType": "bool",
          "name": "",
          "type": "bool"
        }
      ],
      "stateMutability": "view",
      "type": "function"
    },
    {
      "inputs": [
        {
          "internalType": "address payable",
          "name": "payee",
          "type": "address"
        }
      ],
      "name": "withdrawPayments",
      "outputs": [],
      "stateMutability": "nonpayable",
      "type": "function"
    }
  ],
  "bytecode": {
    "object": "0x60a06040523480156200001157600080fd5b50604051620024bf380380620024bf8339810160408190526200003491620001b3565b83836000620000448382620002db565b506001620000538282620002db565b505050620000706200006a6200009860201b60201c565b6200009c565b60076200007e8382620002db565b506080525050600a805460ff1916600117905550620003a7565b3390565b600680546001600160a01b038381166001600160a01b0319831681179093556040519116919082907f8be0079c531659141344cd1fd0a4f28419497f9722a3daafe3b4186f6b6457e090600090a35050565b634e487b7160e01b600052604160045260246000fd5b600082601f8301126200011657600080fd5b81516001600160401b0380821115620001335762000133620000ee565b604051601f8301601f19908116603f011681019082821181831017156200015e576200015e620000ee565b816040528381526020925086838588010111156200017b57600080fd5b600091505b838210156200019f578582018301518183018401529082019062000180565b600093810190920192909252949350505050565b60008060008060808587031215620001ca57600080fd5b84516001600160401b0380821115620001e257600080fd5b620001f08883890162000104565b955060208701519150808211156200020757600080fd5b620002158883890162000104565b945060408701519150808211156200022c57600080fd5b506200023b8782880162000104565b606096909601519497939650505050565b600181811c908216806200026157607f821691505b6020821081036200028257634e487b7160e01b600052602260045260246000fd5b50919050565b601f821115620002d657600081815260208120601f850160051c81016020861015620002b15750805b601f850160051c820191505b81811015620002d257828155600101620002bd565b5050505b505050565b81516001600160401b03811115620002f757620002f7620000ee565b6200030f816200030884546200024c565b8462000288565b602080601f8311600181146200034757600084156200032e5750858301515b600019600386901b1c1916600185901b178555620002d2565b600085815260208120601f198616915b82811015620003785788860151825594840194600190910190840162000357565b5085821015620003975787850151600019600388901b60f8161c191681555b5050505050600190811b01905550565b6080516120fc620003c3600039600061111e01526120fc6000f3fe6080604052600436106101ab5760003560e01c80636c0360eb116100ec578063a22cb4651161008a578063b88d4fde11610064578063b88d4fde146104b8578063c87b56dd146104d8578063e985e9c5146104f8578063f2fde38b1461053357600080fd5b8063a22cb46514610464578063a839e50114610484578063aebb096c1461049957600080fd5b806376c64c62116100c657806376c64c62146103fc5780638da5cb5b1461041157806395d89b411461043c5780639886a9021461045157600080fd5b80636c0360eb146103b257806370a08231146103c7578063715018a6146103e757600080fd5b806323b872dd1161015957806341fbddbd1161013357806341fbddbd1461034557806342842e0e1461035f5780636352211e1461037f5780636a6278421461039f57600080fd5b806323b872dd146102e557806326092b831461030557806331b3eb941461032557600080fd5b8063081812fc1161018a578063081812fc1461022b578063095ea7b3146102935780630a398b88146102b557600080fd5b80629a9b7b146101b057806301ffc9a7146101d957806306fdde0314610209575b600080fd5b3480156101bc57600080fd5b506101c660085481565b6040519081526020015b60405180910390f35b3480156101e557600080fd5b506101f96101f4366004611b61565b610553565b60405190151581526020016101d0565b34801561021557600080fd5b5061021e610638565b6040516101d09190611b7e565b34801561023757600080fd5b5061026e610246366004611bea565b60046020526000908152604090205473ffffffffffffffffffffffffffffffffffffffff1681565b60405173ffffffffffffffffffffffffffffffffffffffff90911681526020016101d0565b34801561029f57600080fd5b506102b36102ae366004611c25565b6106c6565b005b3480156102c157600080fd5b506101f96102d0366004611c51565b60096020526000908152604090205460ff1681565b3480156102f157600080fd5b506102b3610300366004611c6e565b610815565b34801561031157600080fd5b50600a546101f99062010000900460ff1681565b34801561033157600080fd5b506102b3610340366004611c51565b610adc565b34801561035157600080fd5b50600a546101f99060ff1681565b34801561036b57600080fd5b506102b361037a366004611c6e565b610b83565b34801561038b57600080fd5b5061026e61039a366004611bea565b610ce8565b6101c66103ad366004611c51565b610d79565b3480156103be57600080fd5b5061021e610eaf565b3480156103d357600080fd5b506101c66103e2366004611c51565b610ebc565b3480156103f357600080fd5b506102b3610f64565b34801561040857600080fd5b506102b3610f78565b34801561041d57600080fd5b5060065473ffffffffffffffffffffffffffffffffffffffff1661026e565b34801561044857600080fd5b5061021e610faf565b6101c661045f366004611caf565b610fbc565b34801561047057600080fd5b506102b361047f366004611d3b565b6111e8565b34801561049057600080fd5b506102b361127f565b3480156104a557600080fd5b50600a546101f990610100900460ff1681565b3480156104c457600080fd5b506102b36104d3366004611d79565b6112b5565b3480156104e457600080fd5b5061021e6104f3366004611bea565b61140f565b34801561050457600080fd5b506101f9610513366004611e18565b600560209081526000928352604080842090915290825290205460ff1681565b34801561053f57600080fd5b506102b361054e366004611c51565b6114bb565b60007f01ffc9a7000000000000000000000000000000000000000000000000000000007fffffffff00000000000000000000000000000000000000000000000000000000831614806105e657507f80ac58cd000000000000000000000000000000000000000000000000000000007fffffffff000000000000000000000000000000000000000000000000000000008316145b8061063257507f5b5e139f000000000000000000000000000000000000000000000000000000007fffffffff000000000000000000000000000000000000000000000000000000008316145b92915050565b6000805461064590611e46565b80601f016020809104026020016040519081016040528092919081815260200182805461067190611e46565b80156106be5780601f10610693576101008083540402835291602001916106be565b820191906000526020600020905b8154815290600101906020018083116106a157829003601f168201915b505050505081565b60008181526002602052604090205473ffffffffffffffffffffffffffffffffffffffff1633811480610729575073ffffffffffffffffffffffffffffffffffffffff8116600090815260056020908152604080832033845290915290205460ff165b610794576040517f08c379a000000000000000000000000000000000000000000000000000000000815260206004820152600e60248201527f4e4f545f415554484f52495a454400000000000000000000000000000000000060448201526064015b60405180910390fd5b60008281526004602052604080822080547fffffffffffffffffffffffff00000000000000000000000000000000000000001673ffffffffffffffffffffffffffffffffffffffff87811691821790925591518593918516917f8c5be1e5ebec7d5bd14f71427d1e84f3dd0314c0f7b2291e5b200ac8c7c3b92591a4505050565b60008181526002602052604090205473ffffffffffffffffffffffffffffffffffffffff8481169116146108a5576040517f08c379a000000000000000000000000000000000000000000000000000000000815260206004820152600a60248201527f57524f4e475f46524f4d00000000000000000000000000000000000000000000604482015260640161078b565b73ffffffffffffffffffffffffffffffffffffffff8216610922576040517f08c379a000000000000000000000000000000000000000000000000000000000815260206004820152601160248201527f494e56414c49445f524543495049454e54000000000000000000000000000000604482015260640161078b565b3373ffffffffffffffffffffffffffffffffffffffff84161480610976575073ffffffffffffffffffffffffffffffffffffffff8316600090815260056020908152604080832033845290915290205460ff165b806109a4575060008181526004602052604090205473ffffffffffffffffffffffffffffffffffffffff1633145b610a0a576040517f08c379a000000000000000000000000000000000000000000000000000000000815260206004820152600e60248201527f4e4f545f415554484f52495a4544000000000000000000000000000000000000604482015260640161078b565b73ffffffffffffffffffffffffffffffffffffffff808416600081815260036020908152604080832080547fffffffffffffffffffffffffffffffffffffffffffffffffffffffffffffffff019055938616808352848320805460010190558583526002825284832080547fffffffffffffffffffffffff00000000000000000000000000000000000000009081168317909155600490925284832080549092169091559251849392917fddf252ad1be2c89b69c2b068fc378daa952ba7f163c4a11628f55a4df523b3ef91a4505050565b610ae4611572565b604051479060009073ffffffffffffffffffffffffffffffffffffffff84169083908381818185875af1925050503d8060008114610b3e576040519150601f19603f3d011682016040523d82523d6000602084013e610b43565b606091505b5050905080610b7e576040517fd23a9e8900000000000000000000000000000000000000000000000000000000815260040160405180910390fd5b505050565b610b8e838383610815565b73ffffffffffffffffffffffffffffffffffffffff82163b1580610c8257506040517f150b7a020000000000000000000000000000000000000000000000000000000080825233600483015273ffffffffffffffffffffffffffffffffffffffff858116602484015260448301849052608060648401526000608484015290919084169063150b7a029060a4016020604051808303816000875af1158015610c3a573d6000803e3d6000fd5b505050506040513d601f19601f82011682018060405250810190610c5e9190611e99565b7fffffffff0000000000000000000000000000000000000000000000000000000016145b610b7e576040517f08c379a000000000000000000000000000000000000000000000000000000000815260206004820152601060248201527f554e534146455f524543495049454e5400000000000000000000000000000000604482015260640161078b565b60008181526002602052604090205473ffffffffffffffffffffffffffffffffffffffff1680610d74576040517f08c379a000000000000000000000000000000000000000000000000000000000815260206004820152600a60248201527f4e4f545f4d494e54454400000000000000000000000000000000000000000000604482015260640161078b565b919050565b73ffffffffffffffffffffffffffffffffffffffff811660009081526009602052604081205460ff1615610e09576040517f08c379a000000000000000000000000000000000000000000000000000000000815260206004820152601560248201527f416c7265616479206d696e74656420616e204e46540000000000000000000000604482015260640161078b565b600a5462010000900460ff161515600114610ea6576040517f08c379a000000000000000000000000000000000000000000000000000000000815260206004820152602160248201527f5075626c6963206d696e74696e67206973206e6f7420616c6c6f77656420796560448201527f7400000000000000000000000000000000000000000000000000000000000000606482015260840161078b565b610632826115f3565b6007805461064590611e46565b600073ffffffffffffffffffffffffffffffffffffffff8216610f3b576040517f08c379a000000000000000000000000000000000000000000000000000000000815260206004820152600c60248201527f5a45524f5f414444524553530000000000000000000000000000000000000000604482015260640161078b565b5073ffffffffffffffffffffffffffffffffffffffff1660009081526003602052604090205490565b610f6c611572565b610f766000611729565b565b610f80611572565b600a80547fffffffffffffffffffffffffffffffffffffffffffffffffffffffffff0000001662010000179055565b6001805461064590611e46565b73ffffffffffffffffffffffffffffffffffffffff841660009081526009602052604081205460ff161561101c576040517fddefae2800000000000000000000000000000000000000000000000000000000815260040160405180910390fd5b600a5460ff1615156001036110955783600114611095576040517f08c379a000000000000000000000000000000000000000000000000000000000815260206004820152601760248201527f4e6f7420616c6c6f77656420746f206d696e7420796574000000000000000000604482015260640161078b565b6040517fffffffffffffffffffffffffffffffffffffffff000000000000000000000000606087901b166020820152603481018590526000906054016040516020818303038152906040528051906020012090506111498484808060200260200160405190810160405280939291908181526020018383602002808284376000920191909152507f000000000000000000000000000000000000000000000000000000000000000092508591506117a09050565b6111d5576040517f08c379a000000000000000000000000000000000000000000000000000000000815260206004820152602260248201527f496e76616c6964206d65726b6c6520747265652070726f6f6620737570706c6960448201527f6564000000000000000000000000000000000000000000000000000000000000606482015260840161078b565b6111de866115f3565b9695505050505050565b33600081815260056020908152604080832073ffffffffffffffffffffffffffffffffffffffff87168085529083529281902080547fffffffffffffffffffffffffffffffffffffffffffffffffffffffffffffff001686151590811790915590519081529192917f17307eab39ab6107e8899845ad3d59bd9653f200f220920489ca2b5937696c31910160405180910390a35050565b611287611572565b600a80547fffffffffffffffffffffffffffffffffffffffffffffffffffffffffff00000016610100179055565b6112c0858585610815565b73ffffffffffffffffffffffffffffffffffffffff84163b15806113a257506040517f150b7a02000000000000000000000000000000000000000000000000000000008082529073ffffffffffffffffffffffffffffffffffffffff86169063150b7a029061133b9033908a90899089908990600401611eb6565b6020604051808303816000875af115801561135a573d6000803e3d6000fd5b505050506040513d601f19601f8201168201806040525081019061137e9190611e99565b7fffffffff0000000000000000000000000000000000000000000000000000000016145b611408576040517f08c379a000000000000000000000000000000000000000000000000000000000815260206004820152601060248201527f554e534146455f524543495049454e5400000000000000000000000000000000604482015260640161078b565b5050505050565b6060600061141c83610ce8565b73ffffffffffffffffffffffffffffffffffffffff1603611469576040517fd872946b00000000000000000000000000000000000000000000000000000000815260040160405180910390fd5b60006007805461147890611e46565b9050116114945760405180602001604052806000815250610632565b60076040516020016114a69190611f35565b60405160208183030381529060405292915050565b6114c3611572565b73ffffffffffffffffffffffffffffffffffffffff8116611566576040517f08c379a000000000000000000000000000000000000000000000000000000000815260206004820152602660248201527f4f776e61626c653a206e6577206f776e657220697320746865207a65726f206160448201527f6464726573730000000000000000000000000000000000000000000000000000606482015260840161078b565b61156f81611729565b50565b60065473ffffffffffffffffffffffffffffffffffffffff163314610f76576040517f08c379a000000000000000000000000000000000000000000000000000000000815260206004820181905260248201527f4f776e61626c653a2063616c6c6572206973206e6f7420746865206f776e6572604482015260640161078b565b600067011c37937e0800003414611636576040517f21e191e200000000000000000000000000000000000000000000000000000000815260040160405180910390fd5b600060086000815461164790612038565b918290555090506109c481111561168a576040517fb36c128400000000000000000000000000000000000000000000000000000000815260040160405180910390fd5b73ffffffffffffffffffffffffffffffffffffffff8316600090815260096020526040902080547fffffffffffffffffffffffffffffffffffffffffffffffffffffffffffffff001660011790556116e283826117b6565b60405173ffffffffffffffffffffffffffffffffffffffff8416907f90ddedd5a25821bba11fbb98de02ec1f75c1be90ae147d6450ce873e7b78b5d890600090a292915050565b6006805473ffffffffffffffffffffffffffffffffffffffff8381167fffffffffffffffffffffffff0000000000000000000000000000000000000000831681179093556040519116919082907f8be0079c531659141344cd1fd0a4f28419497f9722a3daafe3b4186f6b6457e090600090a35050565b6000826117ad858461191b565b14949350505050565b6117c08282611968565b73ffffffffffffffffffffffffffffffffffffffff82163b15806118b157506040517f150b7a0200000000000000000000000000000000000000000000000000000000808252336004830152600060248301819052604483018490526080606484015260848301529073ffffffffffffffffffffffffffffffffffffffff84169063150b7a029060a4016020604051808303816000875af1158015611869573d6000803e3d6000fd5b505050506040513d601f19601f8201168201806040525081019061188d9190611e99565b7fffffffff0000000000000000000000000000000000000000000000000000000016145b611917576040517f08c379a000000000000000000000000000000000000000000000000000000000815260206004820152601060248201527f554e534146455f524543495049454e5400000000000000000000000000000000604482015260640161078b565b5050565b600081815b84518110156119605761194c8286838151811061193f5761193f612097565b6020026020010151611b01565b91508061195881612038565b915050611920565b509392505050565b73ffffffffffffffffffffffffffffffffffffffff82166119e5576040517f08c379a000000000000000000000000000000000000000000000000000000000815260206004820152601160248201527f494e56414c49445f524543495049454e54000000000000000000000000000000604482015260640161078b565b60008181526002602052604090205473ffffffffffffffffffffffffffffffffffffffff1615611a71576040517f08c379a000000000000000000000000000000000000000000000000000000000815260206004820152600e60248201527f414c52454144595f4d494e544544000000000000000000000000000000000000604482015260640161078b565b73ffffffffffffffffffffffffffffffffffffffff8216600081815260036020908152604080832080546001019055848352600290915280822080547fffffffffffffffffffffffff0000000000000000000000000000000000000000168417905551839291907fddf252ad1be2c89b69c2b068fc378daa952ba7f163c4a11628f55a4df523b3ef908290a45050565b6000818310611b1d576000828152602084905260409020611b2c565b60008381526020839052604090205b9392505050565b7fffffffff000000000000000000000000000000000000000000000000000000008116811461156f57600080fd5b600060208284031215611b7357600080fd5b8135611b2c81611b33565b600060208083528351808285015260005b81811015611bab57858101830151858201604001528201611b8f565b5060006040828601015260407fffffffffffffffffffffffffffffffffffffffffffffffffffffffffffffffe0601f8301168501019250505092915050565b600060208284031215611bfc57600080fd5b5035919050565b73ffffffffffffffffffffffffffffffffffffffff8116811461156f57600080fd5b60008060408385031215611c3857600080fd5b8235611c4381611c03565b946020939093013593505050565b600060208284031215611c6357600080fd5b8135611b2c81611c03565b600080600060608486031215611c8357600080fd5b8335611c8e81611c03565b92506020840135611c9e81611c03565b929592945050506040919091013590565b60008060008060608587031215611cc557600080fd5b8435611cd081611c03565b935060208501359250604085013567ffffffffffffffff80821115611cf457600080fd5b818701915087601f830112611d0857600080fd5b813581811115611d1757600080fd5b8860208260051b8501011115611d2c57600080fd5b95989497505060200194505050565b60008060408385031215611d4e57600080fd5b8235611d5981611c03565b915060208301358015158114611d6e57600080fd5b809150509250929050565b600080600080600060808688031215611d9157600080fd5b8535611d9c81611c03565b94506020860135611dac81611c03565b935060408601359250606086013567ffffffffffffffff80821115611dd057600080fd5b818801915088601f830112611de457600080fd5b813581811115611df357600080fd5b896020828501011115611e0557600080fd5b9699959850939650602001949392505050565b60008060408385031215611e2b57600080fd5b8235611e3681611c03565b91506020830135611d6e81611c03565b600181811c90821680611e5a57607f821691505b602082108103611e93577f4e487b7100000000000000000000000000000000000000000000000000000000600052602260045260246000fd5b50919050565b600060208284031215611eab57600080fd5b8151611b2c81611b33565b600073ffffffffffffffffffffffffffffffffffffffff808816835280871660208401525084604083015260806060830152826080830152828460a0840137600060a0848401015260a07fffffffffffffffffffffffffffffffffffffffffffffffffffffffffffffffe0601f85011683010190509695505050505050565b600080835481600182811c915080831680611f5157607f831692505b60208084108203611f89577f4e487b710000000000000000000000000000000000000000000000000000000086526022600452602486fd5b818015611f9d5760018114611fd057611ffd565b7fffffffffffffffffffffffffffffffffffffffffffffffffffffffffffffff0086168952841515850289019650611ffd565b60008a81526020902060005b86811015611ff55781548b820152908501908301611fdc565b505084890196505b505050505050612030817f636f756e63696c6d6574616461746100000000000000000000000000000000008152600f0190565b949350505050565b60007fffffffffffffffffffffffffffffffffffffffffffffffffffffffffffffffff8203612090577f4e487b7100000000000000000000000000000000000000000000000000000000600052601160045260246000fd5b5060010190565b7f4e487b7100000000000000000000000000000000000000000000000000000000600052603260045260246000fdfea264697066735822122062397b5bea9a9b620d9527c5fb01ff922e0bf60b25777c6fe10e52593fd8a05a64736f6c63430008100033",
    "linkReferences": {}
  },
  "methodIdentifiers": {
    "allowlistMint()": "41fbddbd",
    "alreadyMinted(address)": "0a398b88",
    "approve(address,uint256)": "095ea7b3",
    "balanceOf(address)": "70a08231",
    "baseURI()": "6c0360eb",
    "currentTokenId()": "009a9b7b",
    "getApproved(uint256)": "081812fc",
    "isApprovedForAll(address,address)": "e985e9c5",
    "mint(address)": "6a627842",
    "name()": "06fdde03",
    "owner()": "8da5cb5b",
    "ownerOf(uint256)": "6352211e",
    "privateMint(address,uint256,bytes32[])": "9886a902",
    "publicMint()": "26092b83",
    "renounceOwnership()": "715018a6",
    "safeTransferFrom(address,address,uint256)": "42842e0e",
    "safeTransferFrom(address,address,uint256,bytes)": "b88d4fde",
    "setApprovalForAll(address,bool)": "a22cb465",
    "startPublicMint()": "76c64c62",
    "startWaitlistMint()": "a839e501",
    "supportsInterface(bytes4)": "01ffc9a7",
    "symbol()": "95d89b41",
    "tokenURI(uint256)": "c87b56dd",
    "transferFrom(address,address,uint256)": "23b872dd",
    "transferOwnership(address)": "f2fde38b",
    "waitlistMint()": "aebb096c",
    "withdrawPayments(address)": "31b3eb94"
  },
  "id": 0
}