{
  "abi": [
    {
      "inputs": [
        {
          "internalType": "string",
          "name": "name_",
          "type": "string"
        },
        {
          "internalType": "string",
          "name": "symbol_",
          "type": "string"
        },
        {
          "internalType": "string",
          "name": "baseURI_",
          "type": "string"
        },
        {
          "internalType": "bytes32",
          "name": "merkleRoot_",
          "type": "bytes32"
        }
      ],
      "stateMutability": "nonpayable",
      "type": "constructor"
    },
    {
      "inputs": [],
      "name": "AlreadyMinted",
      "type": "error"
    },
    {
      "inputs": [],
      "name": "InvalidAddress",
      "type": "error"
    },
    {
      "inputs": [],
      "name": "InvalidMintState",
      "type": "error"
    },
    {
      "inputs": [],
      "name": "InvalidProof",
      "type": "error"
    },
    {
      "inputs": [],
      "name": "MaxSupplyReached",
      "type": "error"
    },
    {
      "inputs": [],
      "name": "MintPriceNotPaid",
      "type": "error"
    },
    {
      "inputs": [],
      "name": "NonExistentTokenURI",
      "type": "error"
    },
    {
      "inputs": [],
      "name": "NotAllowed",
      "type": "error"
    },
    {
      "inputs": [],
      "name": "WithdrawTransfer",
      "type": "error"
    },
    {
      "anonymous": false,
      "inputs": [
        {
          "indexed": true,
          "internalType": "address",
          "name": "owner",
          "type": "address"
        },
        {
          "indexed": true,
          "internalType": "address",
          "name": "approved",
          "type": "address"
        },
        {
          "indexed": true,
          "internalType": "uint256",
          "name": "tokenId",
          "type": "uint256"
        }
      ],
      "name": "Approval",
      "type": "event"
    },
    {
      "anonymous": false,
      "inputs": [
        {
          "indexed": true,
          "internalType": "address",
          "name": "owner",
          "type": "address"
        },
        {
          "indexed": true,
          "internalType": "address",
          "name": "operator",
          "type": "address"
        },
        {
          "indexed": false,
          "internalType": "bool",
          "name": "approved",
          "type": "bool"
        }
      ],
      "name": "ApprovalForAll",
      "type": "event"
    },
    {
      "anonymous": false,
      "inputs": [
        {
          "indexed": true,
          "internalType": "address",
          "name": "caller",
          "type": "address"
        },
        {
          "indexed": true,
          "internalType": "enum IMember.MintState",
          "name": "prevState",
          "type": "uint8"
        },
        {
          "indexed": true,
          "internalType": "enum IMember.MintState",
          "name": "newState",
          "type": "uint8"
        },
        {
          "indexed": false,
          "internalType": "uint256",
          "name": "timestamp",
          "type": "uint256"
        }
      ],
      "name": "MintStateChanged",
      "type": "event"
    },
    {
      "anonymous": false,
      "inputs": [
        {
          "indexed": true,
          "internalType": "address",
          "name": "recipient",
          "type": "address"
        },
        {
          "indexed": false,
          "internalType": "uint256",
          "name": "tokenId",
          "type": "uint256"
        },
        {
          "indexed": false,
          "internalType": "uint256",
          "name": "timestamp",
          "type": "uint256"
        }
      ],
      "name": "Minted",
      "type": "event"
    },
    {
      "anonymous": false,
      "inputs": [
        {
          "indexed": true,
          "internalType": "address",
          "name": "previousOwner",
          "type": "address"
        },
        {
          "indexed": true,
          "internalType": "address",
          "name": "newOwner",
          "type": "address"
        }
      ],
      "name": "OwnershipTransferred",
      "type": "event"
    },
    {
      "anonymous": false,
      "inputs": [
        {
          "indexed": true,
          "internalType": "address",
          "name": "from",
          "type": "address"
        },
        {
          "indexed": true,
          "internalType": "address",
          "name": "to",
          "type": "address"
        },
        {
          "indexed": true,
          "internalType": "uint256",
          "name": "tokenId",
          "type": "uint256"
        }
      ],
      "name": "Transfer",
      "type": "event"
    },
    {
      "inputs": [],
      "name": "MINT_PRICE",
      "outputs": [
        {
          "internalType": "uint256",
          "name": "",
          "type": "uint256"
        }
      ],
      "stateMutability": "view",
      "type": "function"
    },
    {
      "inputs": [],
      "name": "TOTAL_SUPPLY",
      "outputs": [
        {
          "internalType": "uint256",
          "name": "",
          "type": "uint256"
        }
      ],
      "stateMutability": "view",
      "type": "function"
    },
    {
      "inputs": [
        {
          "internalType": "address",
          "name": "",
          "type": "address"
        }
      ],
      "name": "_hasMinted",
      "outputs": [
        {
          "internalType": "bool",
          "name": "",
          "type": "bool"
        }
      ],
      "stateMutability": "view",
      "type": "function"
    },
    {
      "inputs": [
        {
          "internalType": "address",
          "name": "to",
          "type": "address"
        },
        {
          "internalType": "uint256",
          "name": "tokenId",
          "type": "uint256"
        }
      ],
      "name": "approve",
      "outputs": [],
      "stateMutability": "nonpayable",
      "type": "function"
    },
    {
      "inputs": [
        {
          "internalType": "address",
          "name": "owner",
          "type": "address"
        }
      ],
      "name": "balanceOf",
      "outputs": [
        {
          "internalType": "uint256",
          "name": "",
          "type": "uint256"
        }
      ],
      "stateMutability": "view",
      "type": "function"
    },
    {
      "inputs": [],
      "name": "baseURI",
      "outputs": [
        {
          "internalType": "string",
          "name": "",
          "type": "string"
        }
      ],
      "stateMutability": "view",
      "type": "function"
    },
    {
      "inputs": [],
      "name": "currentTokenId",
      "outputs": [
        {
          "internalType": "uint256",
          "name": "_value",
          "type": "uint256"
        }
      ],
      "stateMutability": "view",
      "type": "function"
    },
    {
      "inputs": [
        {
          "internalType": "uint256",
          "name": "tokenId",
          "type": "uint256"
        }
      ],
      "name": "getApproved",
      "outputs": [
        {
          "internalType": "address",
          "name": "",
          "type": "address"
        }
      ],
      "stateMutability": "view",
      "type": "function"
    },
    {
      "inputs": [
        {
          "internalType": "address",
          "name": "owner",
          "type": "address"
        },
        {
          "internalType": "address",
          "name": "operator",
          "type": "address"
        }
      ],
      "name": "isApprovedForAll",
      "outputs": [
        {
          "internalType": "bool",
          "name": "",
          "type": "bool"
        }
      ],
      "stateMutability": "view",
      "type": "function"
    },
    {
      "inputs": [],
      "name": "name",
      "outputs": [
        {
          "internalType": "string",
          "name": "",
          "type": "string"
        }
      ],
      "stateMutability": "view",
      "type": "function"
    },
    {
      "inputs": [],
      "name": "owner",
      "outputs": [
        {
          "internalType": "address",
          "name": "",
          "type": "address"
        }
      ],
      "stateMutability": "view",
      "type": "function"
    },
    {
      "inputs": [
        {
          "internalType": "uint256",
          "name": "tokenId",
          "type": "uint256"
        }
      ],
      "name": "ownerOf",
      "outputs": [
        {
          "internalType": "address",
          "name": "",
          "type": "address"
        }
      ],
      "stateMutability": "view",
      "type": "function"
    },
    {
      "inputs": [
        {
          "internalType": "address",
          "name": "recipient",
          "type": "address"
        },
        {
          "internalType": "uint256",
          "name": "allowance",
          "type": "uint256"
        },
        {
          "internalType": "bytes32[]",
          "name": "proof",
          "type": "bytes32[]"
        }
      ],
      "name": "privateMint",
      "outputs": [
        {
          "internalType": "uint256",
          "name": "",
          "type": "uint256"
        }
      ],
      "stateMutability": "payable",
      "type": "function"
    },
    {
      "inputs": [
        {
          "internalType": "address",
          "name": "recipient",
          "type": "address"
        }
      ],
      "name": "publicMint",
      "outputs": [
        {
          "internalType": "uint256",
          "name": "",
          "type": "uint256"
        }
      ],
      "stateMutability": "payable",
      "type": "function"
    },
    {
      "inputs": [],
      "name": "renounceOwnership",
      "outputs": [],
      "stateMutability": "nonpayable",
      "type": "function"
    },
    {
      "inputs": [
        {
          "internalType": "address",
          "name": "from",
          "type": "address"
        },
        {
          "internalType": "address",
          "name": "to",
          "type": "address"
        },
        {
          "internalType": "uint256",
          "name": "tokenId",
          "type": "uint256"
        }
      ],
      "name": "safeTransferFrom",
      "outputs": [],
      "stateMutability": "nonpayable",
      "type": "function"
    },
    {
      "inputs": [
        {
          "internalType": "address",
          "name": "from",
          "type": "address"
        },
        {
          "internalType": "address",
          "name": "to",
          "type": "address"
        },
        {
          "internalType": "uint256",
          "name": "tokenId",
          "type": "uint256"
        },
        {
          "internalType": "bytes",
          "name": "data",
          "type": "bytes"
        }
      ],
      "name": "safeTransferFrom",
      "outputs": [],
      "stateMutability": "nonpayable",
      "type": "function"
    },
    {
      "inputs": [
        {
          "internalType": "address",
          "name": "operator",
          "type": "address"
        },
        {
          "internalType": "bool",
          "name": "approved",
          "type": "bool"
        }
      ],
      "name": "setApprovalForAll",
      "outputs": [],
      "stateMutability": "nonpayable",
      "type": "function"
    },
    {
      "inputs": [
        {
          "internalType": "string",
          "name": "baseURI_",
          "type": "string"
        }
      ],
      "name": "setBaseURI",
      "outputs": [],
      "stateMutability": "nonpayable",
      "type": "function"
    },
    {
      "inputs": [],
      "name": "startPublicMint",
      "outputs": [],
      "stateMutability": "nonpayable",
      "type": "function"
    },
    {
      "inputs": [],
      "name": "startWaitlistMint",
      "outputs": [],
      "stateMutability": "nonpayable",
      "type": "function"
    },
    {
      "inputs": [
        {
          "internalType": "bytes4",
          "name": "interfaceId",
          "type": "bytes4"
        }
      ],
      "name": "supportsInterface",
      "outputs": [
        {
          "internalType": "bool",
          "name": "",
          "type": "bool"
        }
      ],
      "stateMutability": "view",
      "type": "function"
    },
    {
      "inputs": [],
      "name": "symbol",
      "outputs": [
        {
          "internalType": "string",
          "name": "",
          "type": "string"
        }
      ],
      "stateMutability": "view",
      "type": "function"
    },
    {
      "inputs": [
        {
          "internalType": "uint256",
          "name": "tokenId",
          "type": "uint256"
        }
      ],
      "name": "tokenURI",
      "outputs": [
        {
          "internalType": "string",
          "name": "",
          "type": "string"
        }
      ],
      "stateMutability": "view",
      "type": "function"
    },
    {
      "inputs": [
        {
          "internalType": "address",
          "name": "from",
          "type": "address"
        },
        {
          "internalType": "address",
          "name": "to",
          "type": "address"
        },
        {
          "internalType": "uint256",
          "name": "tokenId",
          "type": "uint256"
        }
      ],
      "name": "transferFrom",
      "outputs": [],
      "stateMutability": "nonpayable",
      "type": "function"
    },
    {
      "inputs": [
        {
          "internalType": "address",
          "name": "newOwner",
          "type": "address"
        }
      ],
      "name": "transferOwnership",
      "outputs": [],
      "stateMutability": "nonpayable",
      "type": "function"
    },
    {
      "inputs": [
        {
          "internalType": "address payable",
          "name": "payee",
          "type": "address"
        }
      ],
      "name": "withdrawPayments",
      "outputs": [],
      "stateMutability": "nonpayable",
      "type": "function"
    }
  ],
  "bytecode": {
    "object": "0x60a06040523480156200001157600080fd5b5060405162002219380380620022198339810160408190526200003491620001b0565b83836000620000448382620002d8565b506001620000538282620002d8565b505050620000706200006a6200009560201b60201c565b62000099565b60076200007e8382620002d8565b5060805250506009805460ff1916905550620003a4565b3390565b600680546001600160a01b038381166001600160a01b0319831681179093556040519116919082907f8be0079c531659141344cd1fd0a4f28419497f9722a3daafe3b4186f6b6457e090600090a35050565b634e487b7160e01b600052604160045260246000fd5b600082601f8301126200011357600080fd5b81516001600160401b0380821115620001305762000130620000eb565b604051601f8301601f19908116603f011681019082821181831017156200015b576200015b620000eb565b816040528381526020925086838588010111156200017857600080fd5b600091505b838210156200019c57858201830151818301840152908201906200017d565b600093810190920192909252949350505050565b60008060008060808587031215620001c757600080fd5b84516001600160401b0380821115620001df57600080fd5b620001ed8883890162000101565b955060208701519150808211156200020457600080fd5b620002128883890162000101565b945060408701519150808211156200022957600080fd5b50620002388782880162000101565b606096909601519497939650505050565b600181811c908216806200025e57607f821691505b6020821081036200027f57634e487b7160e01b600052602260045260246000fd5b50919050565b601f821115620002d357600081815260208120601f850160051c81016020861015620002ae5750805b601f850160051c820191505b81811015620002cf57828155600101620002ba565b5050505b505050565b81516001600160401b03811115620002f457620002f4620000eb565b6200030c8162000305845462000249565b8462000285565b602080601f8311600181146200034457600084156200032b5750858301515b600019600386901b1c1916600185901b178555620002cf565b600085815260208120601f198616915b82811015620003755788860151825594840194600190910190840162000354565b5085821015620003945787850151600019600388901b60f8161c191681555b5050505050600190811b01905550565b608051611e59620003c06000396000610a770152611e596000f3fe60806040526004361061019b5760003560e01c8063715018a6116100ec578063a839e5011161008a578063c87b56dd11610064578063c87b56dd14610455578063d92d1bd614610475578063e985e9c5146104a5578063f2fde38b146104c557600080fd5b8063a839e50114610404578063b88d4fde14610419578063c002d23d1461043957600080fd5b8063902d55a5116100c6578063902d55a5146103a657806395d89b41146103bc5780639886a902146103d1578063a22cb465146103e457600080fd5b8063715018a61461035e57806376c64c62146103735780638da5cb5b1461038857600080fd5b806331b3eb941161015957806355f804b31161013357806355f804b3146102e95780636352211e146103095780636c0360eb1461032957806370a082311461033e57600080fd5b806331b3eb941461029657806332a93a3a146102b657806342842e0e146102c957600080fd5b80629a9b7b146101a057806301ffc9a7146101ca57806306fdde03146101fa578063081812fc1461021c578063095ea7b31461025457806323b872dd14610276575b600080fd5b3480156101ac57600080fd5b50600a546101b79081565b6040519081526020015b60405180910390f35b3480156101d657600080fd5b506101ea6101e5366004611714565b6104e5565b60405190151581526020016101c1565b34801561020657600080fd5b5061020f610537565b6040516101c19190611777565b34801561022857600080fd5b5061023c61023736600461178a565b6105c9565b6040516001600160a01b0390911681526020016101c1565b34801561026057600080fd5b5061027461026f3660046117b8565b6105f0565b005b34801561028257600080fd5b506102746102913660046117e4565b61070a565b3480156102a257600080fd5b506102746102b1366004611825565b61073b565b6101b76102c4366004611825565b6107b7565b3480156102d557600080fd5b506102746102e43660046117e4565b6107ee565b3480156102f557600080fd5b506102746103043660046118ce565b610809565b34801561031557600080fd5b5061023c61032436600461178a565b610821565b34801561033557600080fd5b5061020f610881565b34801561034a57600080fd5b506101b7610359366004611825565b61090f565b34801561036a57600080fd5b50610274610995565b34801561037f57600080fd5b506102746109a9565b34801561039457600080fd5b506006546001600160a01b031661023c565b3480156103b257600080fd5b506101b76109c481565b3480156103c857600080fd5b5061020f6109c5565b6101b76103df366004611917565b6109d4565b3480156103f057600080fd5b506102746103ff3660046119a3565b610ad4565b34801561041057600080fd5b50610274610adf565b34801561042557600080fd5b506102746104343660046119e1565b610afb565b34801561044557600080fd5b506101b767011c37937e08000081565b34801561046157600080fd5b5061020f61047036600461178a565b610b33565b34801561048157600080fd5b506101ea610490366004611825565b60086020526000908152604090205460ff1681565b3480156104b157600080fd5b506101ea6104c0366004611a61565b610bb9565b3480156104d157600080fd5b506102746104e0366004611825565b610be7565b60006001600160e01b031982166380ac58cd60e01b148061051657506001600160e01b03198216635b5e139f60e01b145b8061053157506301ffc9a760e01b6001600160e01b03198316145b92915050565b60606000805461054690611a8f565b80601f016020809104026020016040519081016040528092919081815260200182805461057290611a8f565b80156105bf5780601f10610594576101008083540402835291602001916105bf565b820191906000526020600020905b8154815290600101906020018083116105a257829003601f168201915b5050505050905090565b60006105d482610c60565b506000908152600460205260409020546001600160a01b031690565b60006105fb82610821565b9050806001600160a01b0316836001600160a01b03160361066d5760405162461bcd60e51b815260206004820152602160248201527f4552433732313a20617070726f76616c20746f2063757272656e74206f776e656044820152603960f91b60648201526084015b60405180910390fd5b336001600160a01b038216148061068957506106898133610bb9565b6106fb5760405162461bcd60e51b815260206004820152603d60248201527f4552433732313a20617070726f76652063616c6c6572206973206e6f7420746f60448201527f6b656e206f776e6572206f7220617070726f76656420666f7220616c6c0000006064820152608401610664565b6107058383610cbf565b505050565b6107143382610d2d565b6107305760405162461bcd60e51b815260040161066490611ac9565b610705838383610d8b565b610743610efc565b60405147906000906001600160a01b0384169083908381818185875af1925050503d8060008114610790576040519150601f19603f3d011682016040523d82523d6000602084013e610795565b606091505b50509050806107055760405163d23a9e8960e01b815260040160405180910390fd5b60006107c282610f56565b6107ca610f7d565b6107d2610fa5565b6107db82610fcf565b6107e56002611009565b61053182611050565b61070583838360405180602001604052806000815250610afb565b610811610efc565b600761081d8282611b64565b5050565b6000818152600260205260408120546001600160a01b0316806105315760405162461bcd60e51b8152602060048201526018602482015277115490cdcc8c4e881a5b9d985b1a59081d1bdad95b88125160421b6044820152606401610664565b6007805461088e90611a8f565b80601f01602080910402602001604051908101604052809291908181526020018280546108ba90611a8f565b80156109075780601f106108dc57610100808354040283529160200191610907565b820191906000526020600020905b8154815290600101906020018083116108ea57829003601f168201915b505050505081565b60006001600160a01b0382166109795760405162461bcd60e51b815260206004820152602960248201527f4552433732313a2061646472657373207a65726f206973206e6f7420612076616044820152683634b21037bbb732b960b91b6064820152608401610664565b506001600160a01b031660009081526003602052604090205490565b61099d610efc565b6109a760006110e0565b565b6109b1610efc565b6109bb6001611009565b6109a76002611132565b60606001805461054690611a8f565b60006109df85610f56565b6109e7610f7d565b6109ef610fa5565b6109f885610fcf565b610a01846111b7565b6040516bffffffffffffffffffffffff19606087901b16602082015260348101859052600090605401604051602081830303815290604052805190602001209050610aa28484808060200260200160405190810160405280939291908181526020018383602002808284376000920191909152507f000000000000000000000000000000000000000000000000000000000000000092508591506111fc9050565b610abf576040516309bde33960e01b815260040160405180910390fd5b610ac886611050565b9150505b949350505050565b61081d338383611212565b610ae7610efc565b610af16000611009565b6109a76001611132565b610b053383610d2d565b610b215760405162461bcd60e51b815260040161066490611ac9565b610b2d848484846112e0565b50505050565b60606000610b4083610821565b6001600160a01b031603610b675760405163d872946b60e01b815260040160405180910390fd5b600060078054610b7690611a8f565b905011610b925760405180602001604052806000815250610531565b6007604051602001610ba49190611c24565b60405160208183030381529060405292915050565b6001600160a01b03918216600090815260056020908152604080832093909416825291909152205460ff1690565b610bef610efc565b6001600160a01b038116610c545760405162461bcd60e51b815260206004820152602660248201527f4f776e61626c653a206e6577206f776e657220697320746865207a65726f206160448201526564647265737360d01b6064820152608401610664565b610c5d816110e0565b50565b6000818152600260205260409020546001600160a01b0316610c5d5760405162461bcd60e51b8152602060048201526018602482015277115490cdcc8c4e881a5b9d985b1a59081d1bdad95b88125160421b6044820152606401610664565b600081815260046020526040902080546001600160a01b0319166001600160a01b0384169081179091558190610cf482610821565b6001600160a01b03167f8c5be1e5ebec7d5bd14f71427d1e84f3dd0314c0f7b2291e5b200ac8c7c3b92560405160405180910390a45050565b600080610d3983610821565b9050806001600160a01b0316846001600160a01b03161480610d605750610d608185610bb9565b80610acc5750836001600160a01b0316610d79846105c9565b6001600160a01b031614949350505050565b826001600160a01b0316610d9e82610821565b6001600160a01b031614610dc45760405162461bcd60e51b815260040161066490611cb1565b6001600160a01b038216610e265760405162461bcd60e51b8152602060048201526024808201527f4552433732313a207472616e7366657220746f20746865207a65726f206164646044820152637265737360e01b6064820152608401610664565b610e338383836001611313565b826001600160a01b0316610e4682610821565b6001600160a01b031614610e6c5760405162461bcd60e51b815260040161066490611cb1565b600081815260046020908152604080832080546001600160a01b03199081169091556001600160a01b0387811680865260038552838620805460001901905590871680865283862080546001019055868652600290945282852080549092168417909155905184937fddf252ad1be2c89b69c2b068fc378daa952ba7f163c4a11628f55a4df523b3ef91a4505050565b6006546001600160a01b031633146109a75760405162461bcd60e51b815260206004820181905260248201527f4f776e61626c653a2063616c6c6572206973206e6f7420746865206f776e65726044820152606401610664565b6001600160a01b038116610c5d5760405163e6c4247b60e01b815260040160405180910390fd5b67011c37937e08000034146109a7576040516310f0c8f160e11b815260040160405180910390fd5b6109c4610fb1600a5490565b106109a75760405163d05cb60960e01b815260040160405180910390fd5b6001600160a01b03811660009081526008602052604090205460ff1615610c5d57604051631bbdf5c560e31b815260040160405180910390fd5b80600281111561101b5761101b611cf6565b60095460ff16600281111561103257611032611cf6565b14610c5d5760405163a1f6623960e01b815260040160405180910390fd5b6001600160a01b0381166000908152600860205260408120805460ff191660011790558061107d600a5490565b905061108d600a80546001019055565b611097838261139b565b604080518281524260208201526001600160a01b038516917f25b428dfde728ccfaddad7e29e4ac23c24ed7fd1a6e3e3f91894a9a073f5dfff910160405180910390a292915050565b600680546001600160a01b038381166001600160a01b0319831681179093556040519116919082907f8be0079c531659141344cd1fd0a4f28419497f9722a3daafe3b4186f6b6457e090600090a35050565b6009805460ff811691839160ff1916600183600281111561115557611155611cf6565b021790555081600281111561116c5761116c611cf6565b81600281111561117e5761117e611cf6565b60405142815233907f7a5907205f46c7df4a68b33c1da8921886b57f025f0ec67a42c38d2c2013a7849060200160405180910390a45050565b600060095460ff1660028111156111d0576111d0611cf6565b1480156111de575080600114155b15610c5d57604051631eb49d6d60e11b815260040160405180910390fd5b60008261120985846113b5565b14949350505050565b816001600160a01b0316836001600160a01b0316036112735760405162461bcd60e51b815260206004820152601960248201527f4552433732313a20617070726f766520746f2063616c6c6572000000000000006044820152606401610664565b6001600160a01b03838116600081815260056020908152604080832094871680845294825291829020805460ff191686151590811790915591519182527f17307eab39ab6107e8899845ad3d59bd9653f200f220920489ca2b5937696c31910160405180910390a3505050565b6112eb848484610d8b565b6112f784848484611402565b610b2d5760405162461bcd60e51b815260040161066490611d0c565b6001811115610b2d576001600160a01b03841615611359576001600160a01b03841660009081526003602052604081208054839290611353908490611d74565b90915550505b6001600160a01b03831615610b2d576001600160a01b03831660009081526003602052604081208054839290611390908490611d87565b909155505050505050565b61081d828260405180602001604052806000815250611500565b600081815b84518110156113fa576113e6828683815181106113d9576113d9611d9a565b6020026020010151611533565b9150806113f281611db0565b9150506113ba565b509392505050565b60006001600160a01b0384163b156114f857604051630a85bd0160e11b81526001600160a01b0385169063150b7a0290611446903390899088908890600401611dc9565b6020604051808303816000875af1925050508015611481575060408051601f3d908101601f1916820190925261147e91810190611e06565b60015b6114de573d8080156114af576040519150601f19603f3d011682016040523d82523d6000602084013e6114b4565b606091505b5080516000036114d65760405162461bcd60e51b815260040161066490611d0c565b805181602001fd5b6001600160e01b031916630a85bd0160e11b149050610acc565b506001610acc565b61150a8383611565565b6115176000848484611402565b6107055760405162461bcd60e51b815260040161066490611d0c565b600081831061154f57600082815260208490526040902061155e565b60008381526020839052604090205b9392505050565b6001600160a01b0382166115bb5760405162461bcd60e51b815260206004820181905260248201527f4552433732313a206d696e7420746f20746865207a65726f20616464726573736044820152606401610664565b6000818152600260205260409020546001600160a01b0316156116205760405162461bcd60e51b815260206004820152601c60248201527f4552433732313a20746f6b656e20616c7265616479206d696e746564000000006044820152606401610664565b61162e600083836001611313565b6000818152600260205260409020546001600160a01b0316156116935760405162461bcd60e51b815260206004820152601c60248201527f4552433732313a20746f6b656e20616c7265616479206d696e746564000000006044820152606401610664565b6001600160a01b038216600081815260036020908152604080832080546001019055848352600290915280822080546001600160a01b0319168417905551839291907fddf252ad1be2c89b69c2b068fc378daa952ba7f163c4a11628f55a4df523b3ef908290a45050565b6001600160e01b031981168114610c5d57600080fd5b60006020828403121561172657600080fd5b813561155e816116fe565b6000815180845260005b818110156117575760208185018101518683018201520161173b565b506000602082860101526020601f19601f83011685010191505092915050565b60208152600061155e6020830184611731565b60006020828403121561179c57600080fd5b5035919050565b6001600160a01b0381168114610c5d57600080fd5b600080604083850312156117cb57600080fd5b82356117d6816117a3565b946020939093013593505050565b6000806000606084860312156117f957600080fd5b8335611804816117a3565b92506020840135611814816117a3565b929592945050506040919091013590565b60006020828403121561183757600080fd5b813561155e816117a3565b634e487b7160e01b600052604160045260246000fd5b600067ffffffffffffffff8084111561187357611873611842565b604051601f8501601f19908116603f0116810190828211818310171561189b5761189b611842565b816040528093508581528686860111156118b457600080fd5b858560208301376000602087830101525050509392505050565b6000602082840312156118e057600080fd5b813567ffffffffffffffff8111156118f757600080fd5b8201601f8101841361190857600080fd5b610acc84823560208401611858565b6000806000806060858703121561192d57600080fd5b8435611938816117a3565b935060208501359250604085013567ffffffffffffffff8082111561195c57600080fd5b818701915087601f83011261197057600080fd5b81358181111561197f57600080fd5b8860208260051b850101111561199457600080fd5b95989497505060200194505050565b600080604083850312156119b657600080fd5b82356119c1816117a3565b9150602083013580151581146119d657600080fd5b809150509250929050565b600080600080608085870312156119f757600080fd5b8435611a02816117a3565b93506020850135611a12816117a3565b925060408501359150606085013567ffffffffffffffff811115611a3557600080fd5b8501601f81018713611a4657600080fd5b611a5587823560208401611858565b91505092959194509250565b60008060408385031215611a7457600080fd5b8235611a7f816117a3565b915060208301356119d6816117a3565b600181811c90821680611aa357607f821691505b602082108103611ac357634e487b7160e01b600052602260045260246000fd5b50919050565b6020808252602d908201527f4552433732313a2063616c6c6572206973206e6f7420746f6b656e206f776e6560408201526c1c881bdc88185c1c1c9bdd9959609a1b606082015260800190565b601f82111561070557600081815260208120601f850160051c81016020861015611b3d5750805b601f850160051c820191505b81811015611b5c57828155600101611b49565b505050505050565b815167ffffffffffffffff811115611b7e57611b7e611842565b611b9281611b8c8454611a8f565b84611b16565b602080601f831160018114611bc75760008415611baf5750858301515b600019600386901b1c1916600185901b178555611b5c565b600085815260208120601f198616915b82811015611bf657888601518255948401946001909101908401611bd7565b5085821015611c145787850151600019600388901b60f8161c191681555b5050505050600190811b01905550565b6000808354611c3281611a8f565b60018281168015611c4a5760018114611c5f57611c8e565b60ff1984168752821515830287019450611c8e565b8760005260208060002060005b85811015611c855781548a820152908401908201611c6c565b50505082870194505b50506e636f756e63696c6d6574616461746160881b83525050600f019392505050565b60208082526025908201527f4552433732313a207472616e736665722066726f6d20696e636f72726563742060408201526437bbb732b960d91b606082015260800190565b634e487b7160e01b600052602160045260246000fd5b60208082526032908201527f4552433732313a207472616e7366657220746f206e6f6e20455243373231526560408201527131b2b4bb32b91034b6b83632b6b2b73a32b960711b606082015260800190565b634e487b7160e01b600052601160045260246000fd5b8181038181111561053157610531611d5e565b8082018082111561053157610531611d5e565b634e487b7160e01b600052603260045260246000fd5b600060018201611dc257611dc2611d5e565b5060010190565b6001600160a01b0385811682528416602082015260408101839052608060608201819052600090611dfc90830184611731565b9695505050505050565b600060208284031215611e1857600080fd5b815161155e816116fe56fea264697066735822122044a820047d236c9d5f6b1261535ba4836407e3ff8e1a3e2ba328e142b86958d964736f6c63430008110033",
    "linkReferences": {}
  },
  "methodIdentifiers": {
    "MINT_PRICE()": "c002d23d",
    "TOTAL_SUPPLY()": "902d55a5",
    "_hasMinted(address)": "d92d1bd6",
    "approve(address,uint256)": "095ea7b3",
    "balanceOf(address)": "70a08231",
    "baseURI()": "6c0360eb",
    "currentTokenId()": "009a9b7b",
    "getApproved(uint256)": "081812fc",
    "isApprovedForAll(address,address)": "e985e9c5",
    "name()": "06fdde03",
    "owner()": "8da5cb5b",
    "ownerOf(uint256)": "6352211e",
    "privateMint(address,uint256,bytes32[])": "9886a902",
    "publicMint(address)": "32a93a3a",
    "renounceOwnership()": "715018a6",
    "safeTransferFrom(address,address,uint256)": "42842e0e",
    "safeTransferFrom(address,address,uint256,bytes)": "b88d4fde",
    "setApprovalForAll(address,bool)": "a22cb465",
    "setBaseURI(string)": "55f804b3",
    "startPublicMint()": "76c64c62",
    "startWaitlistMint()": "a839e501",
    "supportsInterface(bytes4)": "01ffc9a7",
    "symbol()": "95d89b41",
    "tokenURI(uint256)": "c87b56dd",
    "transferFrom(address,address,uint256)": "23b872dd",
    "transferOwnership(address)": "f2fde38b",
    "withdrawPayments(address)": "31b3eb94"
  },
  "id": 23
}