{
  "abi": [
    {
      "inputs": [],
      "name": "AddRoleFailed",
      "type": "error"
    },
    {
      "inputs": [],
      "name": "ChannelAlreadyRegistered",
      "type": "error"
    },
    {
      "inputs": [],
      "name": "ChannelDoesNotExist",
      "type": "error"
    },
    {
      "inputs": [],
      "name": "EntitlementAlreadyExists",
      "type": "error"
    },
    {
      "inputs": [],
      "name": "EntitlementAlreadyWhitelisted",
      "type": "error"
    },
    {
      "inputs": [],
      "name": "EntitlementModuleNotSupported",
      "type": "error"
    },
    {
      "inputs": [],
      "name": "EntitlementNotWhitelisted",
      "type": "error"
    },
    {
      "inputs": [],
      "name": "InvalidParameters",
      "type": "error"
    },
    {
      "inputs": [],
      "name": "MissingOwnerPermission",
      "type": "error"
    },
    {
      "inputs": [],
      "name": "NotAllowed",
      "type": "error"
    },
    {
      "inputs": [],
      "name": "OwnerPermissionNotAllowed",
      "type": "error"
    },
    {
      "inputs": [],
      "name": "PermissionAlreadyExists",
      "type": "error"
    },
    {
      "inputs": [],
      "name": "RoleDoesNotExist",
      "type": "error"
    },
    {
      "inputs": [],
      "name": "RoleIsAssignedToEntitlement",
      "type": "error"
    },
    {
      "anonymous": false,
      "inputs": [
        {
          "indexed": false,
          "internalType": "address",
          "name": "previousAdmin",
          "type": "address"
        },
        {
          "indexed": false,
          "internalType": "address",
          "name": "newAdmin",
          "type": "address"
        }
      ],
      "name": "AdminChanged",
      "type": "event"
    },
    {
      "anonymous": false,
      "inputs": [
        {
          "indexed": true,
          "internalType": "address",
          "name": "beacon",
          "type": "address"
        }
      ],
      "name": "BeaconUpgraded",
      "type": "event"
    },
    {
      "anonymous": false,
      "inputs": [
        {
          "indexed": false,
          "internalType": "uint8",
          "name": "version",
          "type": "uint8"
        }
      ],
      "name": "Initialized",
      "type": "event"
    },
    {
      "anonymous": false,
      "inputs": [
        {
          "indexed": true,
          "internalType": "address",
          "name": "previousOwner",
          "type": "address"
        },
        {
          "indexed": true,
          "internalType": "address",
          "name": "newOwner",
          "type": "address"
        }
      ],
      "name": "OwnershipTransferred",
      "type": "event"
    },
    {
      "anonymous": false,
      "inputs": [
        {
          "indexed": true,
          "internalType": "address",
          "name": "implementation",
          "type": "address"
        }
      ],
      "name": "Upgraded",
      "type": "event"
    },
    {
      "inputs": [
        {
          "internalType": "uint256",
          "name": "_roleId",
          "type": "uint256"
        },
        {
          "internalType": "string",
          "name": "_permission",
          "type": "string"
        }
      ],
      "name": "addPermissionToRole",
      "outputs": [],
      "stateMutability": "nonpayable",
      "type": "function"
    },
    {
      "inputs": [
        {
          "internalType": "string",
          "name": "_channelId",
          "type": "string"
        },
        {
          "internalType": "address",
          "name": "_entitlement",
          "type": "address"
        },
        {
          "internalType": "uint256",
          "name": "_roleId",
          "type": "uint256"
        }
      ],
      "name": "addRoleToChannel",
      "outputs": [],
      "stateMutability": "nonpayable",
      "type": "function"
    },
    {
      "inputs": [
        {
          "internalType": "uint256",
          "name": "_roleId",
          "type": "uint256"
        },
        {
          "components": [
            {
              "internalType": "address",
              "name": "module",
              "type": "address"
            },
            {
              "internalType": "bytes",
              "name": "data",
              "type": "bytes"
            }
          ],
          "internalType": "struct DataTypes.Entitlement",
          "name": "_entitlement",
          "type": "tuple"
        }
      ],
      "name": "addRoleToEntitlement",
      "outputs": [],
      "stateMutability": "nonpayable",
      "type": "function"
    },
    {
      "inputs": [
        {
          "internalType": "uint256",
          "name": "",
          "type": "uint256"
        }
      ],
      "name": "channels",
      "outputs": [
        {
          "internalType": "bytes32",
          "name": "",
          "type": "bytes32"
        }
      ],
      "stateMutability": "view",
      "type": "function"
    },
    {
      "inputs": [
        {
          "internalType": "bytes32",
          "name": "",
          "type": "bytes32"
        }
      ],
      "name": "channelsByHash",
      "outputs": [
        {
          "internalType": "string",
          "name": "name",
          "type": "string"
        },
        {
          "internalType": "bytes32",
          "name": "channelId",
          "type": "bytes32"
        },
        {
          "internalType": "uint256",
          "name": "createdAt",
          "type": "uint256"
        },
        {
          "internalType": "bool",
          "name": "disabled",
          "type": "bool"
        }
      ],
      "stateMutability": "view",
      "type": "function"
    },
    {
      "inputs": [
        {
          "internalType": "string",
          "name": "channelName",
          "type": "string"
        },
        {
          "internalType": "string",
          "name": "channelNetworkId",
          "type": "string"
        },
        {
          "internalType": "uint256[]",
          "name": "roleIds",
          "type": "uint256[]"
        }
      ],
      "name": "createChannel",
      "outputs": [
        {
          "internalType": "bytes32",
          "name": "",
          "type": "bytes32"
        }
      ],
      "stateMutability": "nonpayable",
      "type": "function"
    },
    {
      "inputs": [
        {
          "internalType": "string",
          "name": "_roleName",
          "type": "string"
        },
        {
          "internalType": "string[]",
          "name": "_permissions",
          "type": "string[]"
        },
        {
          "components": [
            {
              "internalType": "address",
              "name": "module",
              "type": "address"
            },
            {
              "internalType": "bytes",
              "name": "data",
              "type": "bytes"
            }
          ],
          "internalType": "struct DataTypes.Entitlement[]",
          "name": "_entitlements",
          "type": "tuple[]"
        }
      ],
      "name": "createRole",
      "outputs": [
        {
          "internalType": "uint256",
          "name": "",
          "type": "uint256"
        }
      ],
      "stateMutability": "nonpayable",
      "type": "function"
    },
    {
      "inputs": [
        {
          "internalType": "address",
          "name": "",
          "type": "address"
        }
      ],
      "name": "defaultEntitlements",
      "outputs": [
        {
          "internalType": "bool",
          "name": "",
          "type": "bool"
        }
      ],
      "stateMutability": "view",
      "type": "function"
    },
    {
      "inputs": [],
      "name": "disabled",
      "outputs": [
        {
          "internalType": "bool",
          "name": "",
          "type": "bool"
        }
      ],
      "stateMutability": "view",
      "type": "function"
    },
    {
      "inputs": [
        {
          "internalType": "uint256",
          "name": "",
          "type": "uint256"
        }
      ],
      "name": "entitlements",
      "outputs": [
        {
          "internalType": "address",
          "name": "",
          "type": "address"
        }
      ],
      "stateMutability": "view",
      "type": "function"
    },
    {
      "inputs": [
        {
          "internalType": "bytes32",
          "name": "_channelHash",
          "type": "bytes32"
        }
      ],
      "name": "getChannelByHash",
      "outputs": [
        {
          "components": [
            {
              "internalType": "string",
              "name": "name",
              "type": "string"
            },
            {
              "internalType": "bytes32",
              "name": "channelId",
              "type": "bytes32"
            },
            {
              "internalType": "uint256",
              "name": "createdAt",
              "type": "uint256"
            },
            {
              "internalType": "bool",
              "name": "disabled",
              "type": "bool"
            }
          ],
          "internalType": "struct DataTypes.Channel",
          "name": "",
          "type": "tuple"
        }
      ],
      "stateMutability": "view",
      "type": "function"
    },
    {
      "inputs": [
        {
          "internalType": "uint256",
          "name": "_roleId",
          "type": "uint256"
        }
      ],
      "name": "getEntitlementIdsByRoleId",
      "outputs": [
        {
          "internalType": "bytes32[]",
          "name": "",
          "type": "bytes32[]"
        }
      ],
      "stateMutability": "view",
      "type": "function"
    },
    {
      "inputs": [],
      "name": "getEntitlements",
      "outputs": [
        {
          "internalType": "address[]",
          "name": "",
          "type": "address[]"
        }
      ],
      "stateMutability": "view",
      "type": "function"
    },
    {
      "inputs": [
        {
          "internalType": "uint256",
          "name": "_roleId",
          "type": "uint256"
        }
      ],
      "name": "getPermissionsByRoleId",
      "outputs": [
        {
          "internalType": "bytes32[]",
          "name": "",
          "type": "bytes32[]"
        }
      ],
      "stateMutability": "view",
      "type": "function"
    },
    {
      "inputs": [
        {
          "internalType": "uint256",
          "name": "_roleId",
          "type": "uint256"
        }
      ],
      "name": "getRoleById",
      "outputs": [
        {
          "components": [
            {
              "internalType": "uint256",
              "name": "roleId",
              "type": "uint256"
            },
            {
              "internalType": "string",
              "name": "name",
              "type": "string"
            }
          ],
          "internalType": "struct DataTypes.Role",
          "name": "",
          "type": "tuple"
        }
      ],
      "stateMutability": "view",
      "type": "function"
    },
    {
      "inputs": [],
      "name": "getRoles",
      "outputs": [
        {
          "components": [
            {
              "internalType": "uint256",
              "name": "roleId",
              "type": "uint256"
            },
            {
              "internalType": "string",
              "name": "name",
              "type": "string"
            }
          ],
          "internalType": "struct DataTypes.Role[]",
          "name": "",
          "type": "tuple[]"
        }
      ],
      "stateMutability": "view",
      "type": "function"
    },
    {
      "inputs": [
        {
          "internalType": "address",
          "name": "",
          "type": "address"
        }
      ],
      "name": "hasEntitlement",
      "outputs": [
        {
          "internalType": "bool",
          "name": "",
          "type": "bool"
        }
      ],
      "stateMutability": "view",
      "type": "function"
    },
    {
      "inputs": [
        {
          "internalType": "string",
          "name": "_name",
          "type": "string"
        },
        {
          "internalType": "string",
          "name": "_networkId",
          "type": "string"
        },
        {
          "internalType": "address[]",
          "name": "_entitlements",
          "type": "address[]"
        }
      ],
      "name": "initialize",
      "outputs": [],
      "stateMutability": "nonpayable",
      "type": "function"
    },
    {
      "inputs": [
        {
          "internalType": "string",
          "name": "_channelId",
          "type": "string"
        },
        {
          "internalType": "address",
          "name": "_user",
          "type": "address"
        },
        {
          "internalType": "string",
          "name": "_permission",
          "type": "string"
        }
      ],
      "name": "isEntitledToChannel",
      "outputs": [
        {
          "internalType": "bool",
          "name": "_entitled",
          "type": "bool"
        }
      ],
      "stateMutability": "view",
      "type": "function"
    },
    {
      "inputs": [
        {
          "internalType": "address",
          "name": "_user",
          "type": "address"
        },
        {
          "internalType": "string",
          "name": "_permission",
          "type": "string"
        }
      ],
      "name": "isEntitledToSpace",
      "outputs": [
        {
          "internalType": "bool",
          "name": "_entitled",
          "type": "bool"
        }
      ],
      "stateMutability": "view",
      "type": "function"
    },
    {
      "inputs": [
        {
          "internalType": "bytes[]",
          "name": "data",
          "type": "bytes[]"
        }
      ],
      "name": "multicall",
      "outputs": [
        {
          "internalType": "bytes[]",
          "name": "results",
          "type": "bytes[]"
        }
      ],
      "stateMutability": "nonpayable",
      "type": "function"
    },
    {
      "inputs": [],
      "name": "name",
      "outputs": [
        {
          "internalType": "string",
          "name": "",
          "type": "string"
        }
      ],
      "stateMutability": "view",
      "type": "function"
    },
    {
      "inputs": [],
      "name": "networkId",
      "outputs": [
        {
          "internalType": "string",
          "name": "",
          "type": "string"
        }
      ],
      "stateMutability": "view",
      "type": "function"
    },
    {
      "inputs": [],
      "name": "owner",
      "outputs": [
        {
          "internalType": "address",
          "name": "",
          "type": "address"
        }
      ],
      "stateMutability": "view",
      "type": "function"
    },
    {
      "inputs": [],
      "name": "ownerRoleId",
      "outputs": [
        {
          "internalType": "uint256",
          "name": "",
          "type": "uint256"
        }
      ],
      "stateMutability": "view",
      "type": "function"
    },
    {
      "inputs": [],
      "name": "proxiableUUID",
      "outputs": [
        {
          "internalType": "bytes32",
          "name": "",
          "type": "bytes32"
        }
      ],
      "stateMutability": "view",
      "type": "function"
    },
    {
      "inputs": [
        {
          "internalType": "uint256",
          "name": "_roleId",
          "type": "uint256"
        },
        {
          "internalType": "string",
          "name": "_permission",
          "type": "string"
        }
      ],
      "name": "removePermissionFromRole",
      "outputs": [],
      "stateMutability": "nonpayable",
      "type": "function"
    },
    {
      "inputs": [
        {
          "internalType": "uint256",
          "name": "_roleId",
          "type": "uint256"
        }
      ],
      "name": "removeRole",
      "outputs": [],
      "stateMutability": "nonpayable",
      "type": "function"
    },
    {
      "inputs": [
        {
          "internalType": "string",
          "name": "_channelId",
          "type": "string"
        },
        {
          "internalType": "address",
          "name": "_entitlement",
          "type": "address"
        },
        {
          "internalType": "uint256",
          "name": "_roleId",
          "type": "uint256"
        }
      ],
      "name": "removeRoleFromChannel",
      "outputs": [],
      "stateMutability": "nonpayable",
      "type": "function"
    },
    {
      "inputs": [
        {
          "internalType": "uint256",
          "name": "_roleId",
          "type": "uint256"
        },
        {
          "components": [
            {
              "internalType": "address",
              "name": "module",
              "type": "address"
            },
            {
              "internalType": "bytes",
              "name": "data",
              "type": "bytes"
            }
          ],
          "internalType": "struct DataTypes.Entitlement",
          "name": "_entitlement",
          "type": "tuple"
        }
      ],
      "name": "removeRoleFromEntitlement",
      "outputs": [],
      "stateMutability": "nonpayable",
      "type": "function"
    },
    {
      "inputs": [],
      "name": "renounceOwnership",
      "outputs": [],
      "stateMutability": "nonpayable",
      "type": "function"
    },
    {
      "inputs": [],
      "name": "roleId",
      "outputs": [
        {
          "internalType": "uint256",
          "name": "",
          "type": "uint256"
        }
      ],
      "stateMutability": "view",
      "type": "function"
    },
    {
      "inputs": [
        {
          "internalType": "uint256",
          "name": "",
          "type": "uint256"
        }
      ],
      "name": "rolesById",
      "outputs": [
        {
          "internalType": "uint256",
          "name": "roleId",
          "type": "uint256"
        },
        {
          "internalType": "string",
          "name": "name",
          "type": "string"
        }
      ],
      "stateMutability": "view",
      "type": "function"
    },
    {
      "inputs": [
        {
          "internalType": "string",
          "name": "_channelId",
          "type": "string"
        },
        {
          "internalType": "bool",
          "name": "_disabled",
          "type": "bool"
        }
      ],
      "name": "setChannelAccess",
      "outputs": [],
      "stateMutability": "nonpayable",
      "type": "function"
    },
    {
      "inputs": [
        {
          "internalType": "address",
          "name": "_entitlement",
          "type": "address"
        },
        {
          "internalType": "bool",
          "name": "_whitelist",
          "type": "bool"
        }
      ],
      "name": "setEntitlement",
      "outputs": [],
      "stateMutability": "nonpayable",
      "type": "function"
    },
    {
      "inputs": [
        {
          "internalType": "uint256",
          "name": "_roleId",
          "type": "uint256"
        }
      ],
      "name": "setOwnerRoleId",
      "outputs": [],
      "stateMutability": "nonpayable",
      "type": "function"
    },
    {
      "inputs": [
        {
          "internalType": "bool",
          "name": "_disabled",
          "type": "bool"
        }
      ],
      "name": "setSpaceAccess",
      "outputs": [],
      "stateMutability": "nonpayable",
      "type": "function"
    },
    {
      "inputs": [
        {
          "internalType": "address",
          "name": "newOwner",
          "type": "address"
        }
      ],
      "name": "transferOwnership",
      "outputs": [],
      "stateMutability": "nonpayable",
      "type": "function"
    },
    {
      "inputs": [
        {
          "internalType": "string",
          "name": "_channelId",
          "type": "string"
        },
        {
          "internalType": "string",
          "name": "_channelName",
          "type": "string"
        }
      ],
      "name": "updateChannel",
      "outputs": [],
      "stateMutability": "nonpayable",
      "type": "function"
    },
    {
      "inputs": [
        {
          "internalType": "uint256",
          "name": "_roleId",
          "type": "uint256"
        },
        {
          "internalType": "string",
          "name": "_roleName",
          "type": "string"
        }
      ],
      "name": "updateRole",
      "outputs": [],
      "stateMutability": "nonpayable",
      "type": "function"
    },
    {
      "inputs": [
        {
          "internalType": "address",
          "name": "newImplementation",
          "type": "address"
        }
      ],
      "name": "upgradeTo",
      "outputs": [],
      "stateMutability": "nonpayable",
      "type": "function"
    },
    {
      "inputs": [
        {
          "internalType": "address",
          "name": "newImplementation",
          "type": "address"
        },
        {
          "internalType": "bytes",
          "name": "data",
          "type": "bytes"
        }
      ],
      "name": "upgradeToAndCall",
      "outputs": [],
      "stateMutability": "payable",
      "type": "function"
    }
  ],
  "bytecode": {
    "object": "0x60a06040523060805234801561001457600080fd5b506080516144a261004c60003960008181610ca601528181610cef01528181610fcf0152818161100f01526113b901526144a26000f3fe6080604052600436106102515760003560e01c80637f8d06d011610139578063cea632bc116100b6578063ee0708051161007a578063ee07080514610737578063f28f9b5614610751578063f2fde38b14610771578063f3b96ab414610791578063f740bb6b146107b1578063fa6433c5146107d157600080fd5b8063cea632bc14610693578063d1a6a961146106b3578063dba81864146106c9578063e5894ef4146106e9578063e5949b5d1461071757600080fd5b8063ac9650d8116100fd578063ac9650d8146105e6578063b426423314610613578063ba201ba814610633578063baaf3d5714610653578063ca2759311461067357600080fd5b80637f8d06d01461052f5780638da5cb5b1461055f5780638fcd793d146105915780639025e64c146105b157806392691821146105c657600080fd5b80634999ab16116101d257806366fb345c1161019657806366fb345c14610468578063703511f81461048857806371061398146104b5578063715018a6146104d757806373368a48146104ec578063784c872b1461050257600080fd5b80634999ab16146103d25780634f1ef286146103f257806351f83cea1461040557806352d1902d146104335780635de151b81461044857600080fd5b806334a1dd261161021957806334a1dd26146103235780633659cfe61461034357806342486e4914610363578063446dc22e14610390578063487dc38c146103b057600080fd5b806306fdde0314610256578063129ab3c8146102815780631dea616a146102b157806320759f9e146102d357806332e704cc14610303575b600080fd5b34801561026257600080fd5b5061026b610801565b6040516102789190613443565b60405180910390f35b34801561028d57600080fd5b506102a161029c366004613456565b61088f565b604051610278949392919061346f565b3480156102bd57600080fd5b506102d16102cc366004613504565b610944565b005b3480156102df57600080fd5b506102f36102ee36600461355f565b610a75565b6040519015158152602001610278565b34801561030f57600080fd5b506102d161031e366004613674565b610aeb565b34801561032f57600080fd5b506102d161033e3660046136ba565b610bb9565b34801561034f57600080fd5b506102d161035e366004613722565b610c9c565b34801561036f57600080fd5b5061038361037e366004613456565b610d84565b604051610278919061373d565b34801561039c57600080fd5b506102d16103ab36600461378f565b610de6565b3480156103bc57600080fd5b506103c5610e2f565b60405161027891906137ac565b3480156103de57600080fd5b506102d16103ed366004613456565b610e91565b6102d16104003660046137ed565b610fc5565b34801561041157600080fd5b50610425610420366004613847565b611095565b604051908152602001610278565b34801561043f57600080fd5b506104256113ac565b34801561045457600080fd5b506102d1610463366004613924565b61145f565b34801561047457600080fd5b506102d1610483366004613674565b611525565b34801561049457600080fd5b506104a86104a3366004613456565b6116a0565b604051610278919061397a565b3480156104c157600080fd5b506104ca611798565b60405161027891906139e9565b3480156104e357600080fd5b506102d1611906565b3480156104f857600080fd5b5061042560d15481565b34801561050e57600080fd5b5061052261051d366004613456565b61191a565b6040516102789190613a4b565b34801561053b57600080fd5b506102f361054a366004613722565b60cd6020526000908152604090205460ff1681565b34801561056b57600080fd5b506033546001600160a01b03165b6040516001600160a01b039091168152602001610278565b34801561059d57600080fd5b506104256105ac366004613b5d565b6119f0565b3480156105bd57600080fd5b5061026b611c60565b3480156105d257600080fd5b506102d16105e1366004613456565b611c6d565b3480156105f257600080fd5b50610606610601366004613c49565b611d5e565b6040516102789190613cbd565b34801561061f57600080fd5b5061038361062e366004613456565b611eb5565b34801561063f57600080fd5b506102d161064e366004613d12565b611f15565b34801561065f57600080fd5b506102d161066e366004613504565b611fcc565b34801561067f57600080fd5b506102d161068e366004613d4e565b6120c5565b34801561069f57600080fd5b506102f36106ae366004613e23565b612288565b3480156106bf57600080fd5b5061042560cc5481565b3480156106d557600080fd5b506102d16106e4366004613ea6565b61230a565b3480156106f557600080fd5b50610709610704366004613456565b61256c565b604051610278929190613ef3565b34801561072357600080fd5b50610425610732366004613456565b612611565b34801561074357600080fd5b5060cb546102f39060ff1681565b34801561075d57600080fd5b5061057961076c366004613456565b612632565b34801561077d57600080fd5b506102d161078c366004613722565b61265c565b34801561079d57600080fd5b506102d16107ac366004613f0c565b6126d2565b3480156107bd57600080fd5b506102d16107cc366004613674565b6127a8565b3480156107dd57600080fd5b506102f36107ec366004613722565b60ce6020526000908152604090205460ff1681565b60c9805461080e90613f38565b80601f016020809104026020016040519081016040528092919081815260200182805461083a90613f38565b80156108875780601f1061085c57610100808354040283529160200191610887565b820191906000526020600020905b81548152906001019060200180831161086a57829003601f168201915b505050505081565b60d5602052600090815260409020805481906108aa90613f38565b80601f01602080910402602001604051908101604052809291908181526020018280546108d690613f38565b80156109235780601f106108f857610100808354040283529160200191610923565b820191906000526020600020905b81548152906001019060200180831161090657829003601f168201915b50505050600183015460028401546003909401549293909290915060ff1684565b6109a684848080601f016020809104026020016040519081016040528093929190818152602001838380828437600092019190915250506040805180820190915260168152600080516020614426833981519152602082015291506129899050565b6001600160a01b038216600090815260cd602052604090205460ff166109df5760405163c1ef36f360e01b815260040160405180910390fd5b600081815260d260205260408120549003610a0d5760405163b810dc5d60e01b815260040160405180910390fd5b60405163c513be7760e01b81526001600160a01b0383169063c513be7790610a3d90879087908690600401613f95565b600060405180830381600087803b158015610a5757600080fd5b505af1158015610a6b573d6000803e3d6000fd5b5050505050505050565b6000805b60d054811015610ae357610ac760405180602001604052806000815250868686604051602001610aaa929190613fb9565b604051602081830303815290604052610ac290613fc9565b6129e3565b15610ad157600191505b80610adb81614003565b915050610a79565b509392505050565b610b2760405180602001604052806000815250604051806040016040528060168152602001600080516020614426833981519152815250612989565b60cc548203610b4957604051631eb49d6d60e11b815260040160405180910390fd5b600082815260d260205260408120549003610b775760405163b810dc5d60e01b815260040160405180910390fd5b8051600003610b9957604051630e52390960e41b815260040160405180910390fd5b600082815260d260205260409020600101610bb48282614062565b505050565b610bfb604051806020016040528060008152506040518060400160405280601181526020017041646452656d6f76654368616e6e656c7360781b815250612989565b60008383604051602001610c10929190613fb9565b60408051601f198184030181529181528151602092830120600081815260d5909352908220600101549092509003610c5b57604051636ddd9da960e01b815260040160405180910390fd5b8151600003610c7d57604051631eb49d6d60e11b815260040160405180910390fd5b600081815260d560205260409020610c958382614062565b5050505050565b6001600160a01b037f0000000000000000000000000000000000000000000000000000000000000000163003610ced5760405162461bcd60e51b8152600401610ce490614121565b60405180910390fd5b7f00000000000000000000000000000000000000000000000000000000000000006001600160a01b0316610d36600080516020614406833981519152546001600160a01b031690565b6001600160a01b031614610d5c5760405162461bcd60e51b8152600401610ce49061416d565b610d6581612a9c565b60408051600080825260208201909252610d8191839190612ad2565b50565b600081815260cf6020908152604091829020805483518184028101840190945280845260609392830182828015610dda57602002820191906000526020600020905b815481526020019060010190808311610dc6575b50505050509050919050565b610e1c604051806020016040528060008152506040518060400160405280600581526020016427bbb732b960d91b815250612989565b60cb805460ff1916911515919091179055565b606060d0805480602002602001604051908101604052809291908181526020018280548015610e8757602002820191906000526020600020905b81546001600160a01b03168152600190910190602001808311610e69575b5050505050905090565b610ec7604051806020016040528060008152506040518060400160405280600581526020016427bbb732b960d91b815250612989565b600081815260d260205260408120549003610ef55760405163b810dc5d60e01b815260040160405180910390fd5b6000805b600083815260d36020526040902054811015610fa0576040518060400160405280600581526020016427bbb732b960d91b815250604051602001610f3d91906141b9565b604051602081830303815290604052610f5590613fc9565b600084815260d360205260409020805483908110610f7557610f756141d5565b906000526020600020015403610f8e5760019150610fa0565b80610f9881614003565b915050610ef9565b5080610fbf57604051633e74bd6360e21b815260040160405180910390fd5b5060cc55565b6001600160a01b037f000000000000000000000000000000000000000000000000000000000000000016300361100d5760405162461bcd60e51b8152600401610ce490614121565b7f00000000000000000000000000000000000000000000000000000000000000006001600160a01b0316611056600080516020614406833981519152546001600160a01b031690565b6001600160a01b03161461107c5760405162461bcd60e51b8152600401610ce49061416d565b61108582612a9c565b61109182826001612ad2565b5050565b60006110d9604051806020016040528060008152506040518060400160405280601181526020017041646452656d6f76654368616e6e656c7360781b815250612989565b6000836040516020016110ec91906141b9565b60408051601f198184030181529181528151602092830120600081815260d59093529120600101549091501561113557604051630139324b60e41b815260040160405180910390fd5b604080516080810182528681526020808201849052428284015260006060830181905284815260d590915291909120815181906111729082614062565b506020820151600182810191909155604083015160028301556060909201516003909101805460ff191691151591909117905560d68054918201815560009081527fe767803f8ecf1dee6bb0345811f7312cda556058b19db6389ad9ae3568643ddd9091018290555b60d0548110156113a157600060d082815481106111fa576111fa6141d5565b60009182526020909120015460cc5460405163c513be7760e01b81526001600160a01b039092169250829163c513be779161123a918a91906004016141eb565b600060405180830381600087803b15801561125457600080fd5b505af1158015611268573d6000803e3d6000fd5b5050505060005b855181101561138c5760cc5486828151811061128d5761128d6141d5565b6020026020010151031561137a5760d260008783815181106112b1576112b16141d5565b60200260200101518152602001908152602001600020600001546000036112eb5760405163b810dc5d60e01b815260040160405180910390fd5b816001600160a01b031663c513be778888848151811061130d5761130d6141d5565b60200260200101516040518363ffffffff1660e01b81526004016113329291906141eb565b600060405180830381600087803b15801561134c57600080fd5b505af192505050801561135d575060015b61137a5760405163d9afe50760e01b815260040160405180910390fd5b8061138481614003565b91505061126f565b5050808061139990614003565b9150506111db565b5090505b9392505050565b6000306001600160a01b037f0000000000000000000000000000000000000000000000000000000000000000161461144c5760405162461bcd60e51b815260206004820152603860248201527f555550535570677261646561626c653a206d757374206e6f742062652063616c60448201527f6c6564207468726f7567682064656c656761746563616c6c00000000000000006064820152608401610ce4565b5060008051602061440683398151915290565b6114a1604051806020016040528060008152506040518060400160405280601181526020017041646452656d6f76654368616e6e656c7360781b815250612989565b600083836040516020016114b6929190613fb9565b60408051601f198184030181529181528151602092830120600081815260d590935290822060010154909250900361150157604051636ddd9da960e01b815260040160405180910390fd5b600090815260d560205260409020600301805460ff19169115159190911790555050565b61156160405180602001604052806000815250604051806040016040528060168152602001600080516020614426833981519152815250612989565b611588816040518060400160405280600581526020016427bbb732b960d91b815250612c3d565b156115a657604051631eb49d6d60e11b815260040160405180910390fd5b600082815260d2602052604081205490036115d45760405163b810dc5d60e01b815260040160405180910390fd5b6000816040516020016115e791906141b9565b6040516020818303038152906040526115ff90613fc9565b905060005b600084815260d3602052604090205481101561167857600084815260d36020526040902080548391908390811061163d5761163d6141d5565b90600052602060002001540361166657604051636571d65f60e01b815260040160405180910390fd5b8061167081614003565b915050611604565b50600092835260d3602090815260408420805460018101825590855293209092019190915550565b604080516080810182526060808252600060208301819052928201839052810191909152600082815260d56020526040908190208151608081019092528054829082906116ec90613f38565b80601f016020809104026020016040519081016040528092919081815260200182805461171890613f38565b80156117655780601f1061173a57610100808354040283529160200191611765565b820191906000526020600020905b81548152906001019060200180831161174857829003601f168201915b5050509183525050600182015460208201526002820154604082015260039091015460ff16151560609091015292915050565b6060600060d1546001600160401b038111156117b6576117b66135b1565b6040519080825280602002602001820160405280156117fc57816020015b6040805180820190915260008152606060208201528152602001906001900390816117d45790505b50905060005b60d1548110156119005760d2600061181b83600161420d565b81526020019081526020016000206040518060400160405290816000820154815260200160018201805461184e90613f38565b80601f016020809104026020016040519081016040528092919081815260200182805461187a90613f38565b80156118c75780601f1061189c576101008083540402835291602001916118c7565b820191906000526020600020905b8154815290600101906020018083116118aa57829003601f168201915b5050505050815250508282815181106118e2576118e26141d5565b602002602001018190525080806118f890614003565b915050611802565b50919050565b61190e612c97565b6119186000612cf1565b565b60408051808201909152600081526060602082015260d260008381526020019081526020016000206040518060400160405290816000820154815260200160018201805461196790613f38565b80601f016020809104026020016040519081016040528092919081815260200182805461199390613f38565b80156119e05780601f106119b5576101008083540402835291602001916119e0565b820191906000526020600020905b8154815290600101906020018083116119c357829003601f168201915b5050505050815250509050919050565b6000611a2e60405180602001604052806000815250604051806040016040528060168152602001600080516020614426833981519152815250612989565b600060d160008154611a3f90614003565b91829055506040805180820182528281526020808201898152600085815260d2909252929020815181559151929350918291906001820190611a819082614062565b5090505060005b8551811015611b7b576033546001600160a01b03163314801590611ae75750611ae7868281518110611abc57611abc6141d5565b60200260200101516040518060400160405280600581526020016427bbb732b960d91b815250612c3d565b15611b05576040516341d2e1af60e01b815260040160405180910390fd5b6000868281518110611b1957611b196141d5565b6020026020010151604051602001611b3191906141b9565b604051602081830303815290604052611b4990613fc9565b600085815260d36020908152604082208054600181018255908352912001555080611b7381614003565b915050611a88565b5060005b8451811015611c55576000858281518110611b9c57611b9c6141d5565b60200260200101516000015190506000868381518110611bbe57611bbe6141d5565b602002602001015160200151905060006001600160a01b0316826001600160a01b03161480611bec57508051155b15611bf8575050611c43565b6001600160a01b038216600090815260cd602052604081205460ff1615159003611c355760405163c1ef36f360e01b815260040160405180910390fd5b611c40858383612d43565b50505b80611c4d81614003565b915050611b7f565b509095945050505050565b60ca805461080e90613f38565b611ca960405180602001604052806000815250604051806040016040528060168152602001600080516020614426833981519152815250612989565b60cc548103611ccb57604051631eb49d6d60e11b815260040160405180910390fd5b600081815260d260205260408120549003611cf95760405163b810dc5d60e01b815260040160405180910390fd5b600081815260cf602052604090205415611d2657604051633764405360e11b815260040160405180910390fd5b600081815260d26020526040812081815590611d456001830182613386565b5050600081815260d360205260408120610d81916133c0565b6060816001600160401b03811115611d7857611d786135b1565b604051908082528060200260200182016040528015611dab57816020015b6060815260200190600190039081611d965790505b50905060005b82811015611eae5760008030868685818110611dcf57611dcf6141d5565b9050602002810190611de19190614220565b604051611def929190613fb9565b600060405180830381855af49150503d8060008114611e2a576040519150601f19603f3d011682016040523d82523d6000602084013e611e2f565b606091505b509150915081611e7b57604481511015611e4857600080fd5b60048101905080806020019051810190611e629190614266565b60405162461bcd60e51b8152600401610ce49190613443565b80848481518110611e8e57611e8e6141d5565b602002602001018190525050508080611ea690614003565b915050611db1565b5092915050565b600081815260d36020908152604091829020805483518184028101840190945280845260609392830182828015610dda5760200282019190600052602060002090815481526020019060010190808311610dc65750505050509050919050565b611f5160405180602001604052806000815250604051806040016040528060168152602001600080516020614426833981519152815250612989565b80516001600160a01b0316600090815260cd602052604090205460ff16611f8b5760405163c1ef36f360e01b815260040160405180910390fd5b600082815260d260205260408120549003611fb95760405163b810dc5d60e01b815260040160405180910390fd5b6110918282600001518360200151612d43565b61202e84848080601f016020809104026020016040519081016040528093929190818152602001838380828437600092019190915250506040805180820190915260168152600080516020614426833981519152602082015291506129899050565b6001600160a01b038216600090815260cd602052604090205460ff166120675760405163c1ef36f360e01b815260040160405180910390fd5b600081815260d2602052604081205490036120955760405163b810dc5d60e01b815260040160405180910390fd5b604051637997c1e760e11b81526001600160a01b0383169063f32f83ce90610a3d90879087908690600401613f95565b600054610100900460ff16158080156120e55750600054600160ff909116105b806120ff5750303b1580156120ff575060005460ff166001145b6121625760405162461bcd60e51b815260206004820152602e60248201527f496e697469616c697a61626c653a20636f6e747261637420697320616c72656160448201526d191e481a5b9a5d1a585b1a5e995960921b6064820152608401610ce4565b6000805460ff191660011790558015612185576000805461ff0019166101001790555b61218d612ebb565b612195612ee2565b60c96121a18582614062565b5060ca6121ae8482614062565b5060005b825181101561223b576121df8382815181106121d0576121d06141d5565b60200260200101516001612f11565b600160ce60008584815181106121f7576121f76141d5565b6020908102919091018101516001600160a01b03168252810191909152604001600020805460ff19169115159190911790558061223381614003565b9150506121b2565b508015612282576000805461ff0019169055604051600181527f7f26b83ff96e1f2b6a682f133852f6798a09c465da95921460cefb38474024989060200160405180910390a15b50505050565b6000805b60d054811015612300576122e487878080601f01602080910402602001604051908101604052809392919081815260200183838082843760009201919091525050604051899250610aaa915088908890602001613fb9565b156122ee57600191505b806122f881614003565b91505061228c565b5095945050505050565b61234660405180602001604052806000815250604051806040016040528060168152602001600080516020614426833981519152815250612989565b60cc54820361236857604051631eb49d6d60e11b815260040160405180910390fd5b60cd60006123796020840184613722565b6001600160a01b0316815260208101919091526040016000205460ff166123b35760405163c1ef36f360e01b815260040160405180910390fd5b600082815260d2602052604081205490036123e15760405163b810dc5d60e01b815260040160405180910390fd5b6000826123f16020840184614220565b604051602001612403939291906142d3565b60408051601f198184030181529181528151602092830120600086815260cf909352908220909250905b81548110156124e157818181548110612448576124486141d5565b906000526020600020015483036124cf5781548290612469906001906142ed565b81548110612479576124796141d5565b9060005260206000200154828281548110612496576124966141d5565b9060005260206000200181905550818054806124b4576124b4614300565b600190038181906000526020600020016000905590556124e1565b806124d981614003565b91505061242d565b506124ef6020840184613722565b6001600160a01b031663fa6d1adf8561250b6020870187614220565b6040518463ffffffff1660e01b815260040161252993929190614316565b6020604051808303816000875af1158015612548573d6000803e3d6000fd5b505050506040513d601f19601f82011682018060405250810190610c959190614330565b60d2602052600090815260409020805460018201805491929161258e90613f38565b80601f01602080910402602001604051908101604052809291908181526020018280546125ba90613f38565b80156126075780601f106125dc57610100808354040283529160200191612607565b820191906000526020600020905b8154815290600101906020018083116125ea57829003601f168201915b5050505050905082565b60d6818154811061262157600080fd5b600091825260209091200154905081565b60d0818154811061264257600080fd5b6000918252602090912001546001600160a01b0316905081565b612664612c97565b6001600160a01b0381166126c95760405162461bcd60e51b815260206004820152602660248201527f4f776e61626c653a206e6577206f776e657220697320746865207a65726f206160448201526564647265737360d01b6064820152608401610ce4565b610d8181612cf1565b61270e60405180602001604052806000815250604051806040016040528060168152602001600080516020614426833981519152815250612989565b61271782613092565b80801561273c57506001600160a01b038216600090815260cd602052604090205460ff165b1561275a5760405163186abc9b60e01b815260040160405180910390fd5b8015801561278057506001600160a01b038216600090815260ce602052604090205460ff165b1561279e57604051631eb49d6d60e11b815260040160405180910390fd5b6110918282612f11565b6127e460405180602001604052806000815250604051806040016040528060168152602001600080516020614426833981519152815250612989565b61280b816040518060400160405280600581526020016427bbb732b960d91b815250612c3d565b1561282957604051631eb49d6d60e11b815260040160405180910390fd5b600082815260d2602052604081205490036128575760405163b810dc5d60e01b815260040160405180910390fd5b60008160405160200161286a91906141b9565b60405160208183030381529060405261288290613fc9565b905060005b600084815260d3602052604090205481101561228257600084815260d3602052604090208054839190839081106128c0576128c06141d5565b90600052602060002001540361297757600084815260d36020526040902080546128ec906001906142ed565b815481106128fc576128fc6141d5565b906000526020600020015460d36000868152602001908152602001600020828154811061292b5761292b6141d5565b906000526020600020018190555060d3600085815260200190815260200160002080548061295b5761295b614300565b6001900381819060005260206000200160009055905550505050565b8061298181614003565b915050612887565b6033546001600160a01b03163314806129c1575060cb5460ff161580156129c157506129c1823383604051602001610aaa91906141b9565b156129ca575050565b604051631eb49d6d60e11b815260040160405180910390fd5b6000805b60d054811015610ae35760d08181548110612a0457612a046141d5565b60009182526020909120015460405162169d5560e31b81526001600160a01b039091169062b4eaa890612a3f90889088908890600401614349565b602060405180830381865afa158015612a5c573d6000803e3d6000fd5b505050506040513d601f19601f82011682018060405250810190612a809190614377565b15612a8a57600191505b80612a9481614003565b9150506129e7565b610d81604051806020016040528060008152506040518060400160405280600581526020016427bbb732b960d91b815250612989565b7f4910fdfa16fed3260ed0e7147f7cc6da11a60208b5b9406d12a635614ffd91435460ff1615612b0557610bb483613123565b826001600160a01b03166352d1902d6040518163ffffffff1660e01b8152600401602060405180830381865afa925050508015612b5f575060408051601f3d908101601f19168201909252612b5c91810190614330565b60015b612bc25760405162461bcd60e51b815260206004820152602e60248201527f45524331393637557067726164653a206e657720696d706c656d656e7461746960448201526d6f6e206973206e6f74205555505360901b6064820152608401610ce4565b6000805160206144068339815191528114612c315760405162461bcd60e51b815260206004820152602960248201527f45524331393637557067726164653a20756e737570706f727465642070726f786044820152681a58589b195555525160ba1b6064820152608401610ce4565b50610bb48383836131bf565b600081604051602001612c5091906141b9565b6040516020818303038152906040528051906020012083604051602001612c7791906141b9565b604051602081830303815290604052805190602001201490505b92915050565b6033546001600160a01b031633146119185760405162461bcd60e51b815260206004820181905260248201527f4f776e61626c653a2063616c6c6572206973206e6f7420746865206f776e65726044820152606401610ce4565b603380546001600160a01b038381166001600160a01b0319831681179093556040519116919082907f8be0079c531659141344cd1fd0a4f28419497f9722a3daafe3b4186f6b6457e090600090a35050565b60008382604051602001612d58929190614394565b60408051601f198184030181528282528051602091820120600088815260cf835283812080548085028701850190955284865291955093929091830182828015612dc157602002820191906000526020600020905b815481526020019060010190808311612dad575b5050505050905060005b8151811015612e1f5782828281518110612de757612de76141d5565b602002602001015103612e0d5760405163c5c9ad6760e01b815260040160405180910390fd5b80612e1781614003565b915050612dcb565b50600085815260cf602090815260408083208054600181018255908452919092200183905551633be2f95d60e21b81526001600160a01b0385169063ef8be57490612e709088908790600401613ef3565b6020604051808303816000875af1158015612e8f573d6000803e3d6000fd5b505050506040513d601f19601f82011682018060405250810190612eb39190614330565b505050505050565b600054610100900460ff166119185760405162461bcd60e51b8152600401610ce4906143ba565b600054610100900460ff16612f095760405162461bcd60e51b8152600401610ce4906143ba565b6119186131e4565b6001600160a01b038216600090815260cd60205260409020805460ff19168215801591909117909155612f8f5760d080546001810182556000919091527fe89d44c8fd6a9bac8af33ce47f56337617d449bf7ff3956b618c646de829cbcb0180546001600160a01b0384166001600160a01b03199091161790555050565b60005b60d054811015610bb45760d08181548110612faf57612faf6141d5565b6000918252602090912001546001600160a01b03908116908416036130805760d08054612fde906001906142ed565b81548110612fee57612fee6141d5565b60009182526020909120015460d080546001600160a01b03909216918390811061301a5761301a6141d5565b9060005260206000200160006101000a8154816001600160a01b0302191690836001600160a01b0316021790555060d080548061305957613059614300565b600082815260209020810160001990810180546001600160a01b0319169055019055505050565b8061308a81614003565b915050612f92565b6040516301ffc9a760e01b8152630511738b60e31b60048201526001600160a01b038216906301ffc9a790602401602060405180830381865afa1580156130dd573d6000803e3d6000fd5b505050506040513d601f19601f820116820180604052508101906131019190614377565b1515600003610d8157604051636d9250f160e11b815260040160405180910390fd5b6001600160a01b0381163b6131905760405162461bcd60e51b815260206004820152602d60248201527f455243313936373a206e657720696d706c656d656e746174696f6e206973206e60448201526c1bdd08184818dbdb9d1c9858dd609a1b6064820152608401610ce4565b60008051602061440683398151915280546001600160a01b0319166001600160a01b0392909216919091179055565b6131c883613214565b6000825111806131d55750805b15610bb4576122828383613254565b600054610100900460ff1661320b5760405162461bcd60e51b8152600401610ce4906143ba565b61191833612cf1565b61321d81613123565b6040516001600160a01b038216907fbc7cd75a20ee27fd9adebab32041f755214dbc6bffa90cc0225b39da2e5c2d3b90600090a250565b60606001600160a01b0383163b6132bc5760405162461bcd60e51b815260206004820152602660248201527f416464726573733a2064656c65676174652063616c6c20746f206e6f6e2d636f6044820152651b9d1c9858dd60d21b6064820152608401610ce4565b600080846001600160a01b0316846040516132d791906141b9565b600060405180830381855af49150503d8060008114613312576040519150601f19603f3d011682016040523d82523d6000602084013e613317565b606091505b509150915061333f828260405180606001604052806027815260200161444660279139613348565b95945050505050565b606083156133575750816113a5565b6113a5838381511561336c5781518083602001fd5b8060405162461bcd60e51b8152600401610ce49190613443565b50805461339290613f38565b6000825580601f106133a2575050565b601f016020900490600052602060002090810190610d8191906133da565b5080546000825590600052602060002090810190610d8191905b5b808211156133ef57600081556001016133db565b5090565b60005b8381101561340e5781810151838201526020016133f6565b50506000910152565b6000815180845261342f8160208601602086016133f3565b601f01601f19169290920160200192915050565b6020815260006113a56020830184613417565b60006020828403121561346857600080fd5b5035919050565b6080815260006134826080830187613417565b60208301959095525060408101929092521515606090910152919050565b60008083601f8401126134b257600080fd5b5081356001600160401b038111156134c957600080fd5b6020830191508360208285010111156134e157600080fd5b9250929050565b80356001600160a01b03811681146134ff57600080fd5b919050565b6000806000806060858703121561351a57600080fd5b84356001600160401b0381111561353057600080fd5b61353c878288016134a0565b909550935061354f9050602086016134e8565b9396929550929360400135925050565b60008060006040848603121561357457600080fd5b61357d846134e8565b925060208401356001600160401b0381111561359857600080fd5b6135a4868287016134a0565b9497909650939450505050565b634e487b7160e01b600052604160045260246000fd5b604051601f8201601f191681016001600160401b03811182821017156135ef576135ef6135b1565b604052919050565b60006001600160401b03821115613610576136106135b1565b50601f01601f191660200190565b600082601f83011261362f57600080fd5b813561364261363d826135f7565b6135c7565b81815284602083860101111561365757600080fd5b816020850160208301376000918101602001919091529392505050565b6000806040838503121561368757600080fd5b8235915060208301356001600160401b038111156136a457600080fd5b6136b08582860161361e565b9150509250929050565b6000806000604084860312156136cf57600080fd5b83356001600160401b03808211156136e657600080fd5b6136f2878388016134a0565b9095509350602086013591508082111561370b57600080fd5b506137188682870161361e565b9150509250925092565b60006020828403121561373457600080fd5b6113a5826134e8565b6020808252825182820181905260009190848201906040850190845b8181101561377557835183529284019291840191600101613759565b50909695505050505050565b8015158114610d8157600080fd5b6000602082840312156137a157600080fd5b81356113a581613781565b6020808252825182820181905260009190848201906040850190845b818110156137755783516001600160a01b0316835292840192918401916001016137c8565b6000806040838503121561380057600080fd5b613809836134e8565b915060208301356001600160401b038111156136a457600080fd5b60006001600160401b0382111561383d5761383d6135b1565b5060051b60200190565b60008060006060848603121561385c57600080fd5b83356001600160401b038082111561387357600080fd5b61387f8783880161361e565b945060209150818601358181111561389657600080fd5b6138a28882890161361e565b9450506040860135818111156138b757600080fd5b86019050601f810187136138ca57600080fd5b80356138d861363d82613824565b81815260059190911b820183019083810190898311156138f757600080fd5b928401925b82841015613915578335825292840192908401906138fc565b80955050505050509250925092565b60008060006040848603121561393957600080fd5b83356001600160401b0381111561394f57600080fd5b61395b868287016134a0565b909450925050602084013561396f81613781565b809150509250925092565b60208152600082516080602084015261399660a0840182613417565b905060208401516040840152604084015160608401526060840151151560808401528091505092915050565b8051825260006020820151604060208501526139e16040850182613417565b949350505050565b6000602080830181845280855180835260408601915060408160051b870101925083870160005b82811015613a3e57603f19888603018452613a2c8583516139c2565b94509285019290850190600101613a10565b5092979650505050505050565b6020815260006113a560208301846139c2565b600060408284031215613a7057600080fd5b604051604081016001600160401b038282108183111715613a9357613a936135b1565b81604052829350613aa3856134e8565b83526020850135915080821115613ab957600080fd5b50613ac68582860161361e565b6020830152505092915050565b600082601f830112613ae457600080fd5b81356020613af461363d83613824565b82815260059290921b84018101918181019086841115613b1357600080fd5b8286015b84811015613b525780356001600160401b03811115613b365760008081fd5b613b448986838b0101613a5e565b845250918301918301613b17565b509695505050505050565b600080600060608486031215613b7257600080fd5b83356001600160401b0380821115613b8957600080fd5b613b958783880161361e565b9450602091508186013581811115613bac57600080fd5b8601601f81018813613bbd57600080fd5b8035613bcb61363d82613824565b81815260059190911b8201840190848101908a831115613bea57600080fd5b8584015b83811015613c2257803586811115613c065760008081fd5b613c148d898389010161361e565b845250918601918601613bee565b5096505050506040860135915080821115613c3c57600080fd5b5061371886828701613ad3565b60008060208385031215613c5c57600080fd5b82356001600160401b0380821115613c7357600080fd5b818501915085601f830112613c8757600080fd5b813581811115613c9657600080fd5b8660208260051b8501011115613cab57600080fd5b60209290920196919550909350505050565b6000602080830181845280855180835260408601915060408160051b870101925083870160005b82811015613a3e57603f19888603018452613d00858351613417565b94509285019290850190600101613ce4565b60008060408385031215613d2557600080fd5b8235915060208301356001600160401b03811115613d4257600080fd5b6136b085828601613a5e565b600080600060608486031215613d6357600080fd5b83356001600160401b0380821115613d7a57600080fd5b613d868783880161361e565b9450602091508186013581811115613d9d57600080fd5b613da98882890161361e565b945050604086013581811115613dbe57600080fd5b86019050601f81018713613dd157600080fd5b8035613ddf61363d82613824565b81815260059190911b82018301908381019089831115613dfe57600080fd5b928401925b8284101561391557613e14846134e8565b82529284019290840190613e03565b600080600080600060608688031215613e3b57600080fd5b85356001600160401b0380821115613e5257600080fd5b613e5e89838a016134a0565b9097509550859150613e72602089016134e8565b94506040880135915080821115613e8857600080fd5b50613e95888289016134a0565b969995985093965092949392505050565b60008060408385031215613eb957600080fd5b8235915060208301356001600160401b03811115613ed657600080fd5b830160408186031215613ee857600080fd5b809150509250929050565b8281526040602082015260006139e16040830184613417565b60008060408385031215613f1f57600080fd5b613f28836134e8565b91506020830135613ee881613781565b600181811c90821680613f4c57607f821691505b60208210810361190057634e487b7160e01b600052602260045260246000fd5b81835281816020850137506000828201602090810191909152601f909101601f19169091010190565b604081526000613fa9604083018587613f6c565b9050826020830152949350505050565b8183823760009101908152919050565b805160208083015191908110156119005760001960209190910360031b1b16919050565b634e487b7160e01b600052601160045260246000fd5b60006001820161401557614015613fed565b5060010190565b601f821115610bb457600081815260208120601f850160051c810160208610156140435750805b601f850160051c820191505b81811015612eb35782815560010161404f565b81516001600160401b0381111561407b5761407b6135b1565b61408f816140898454613f38565b8461401c565b602080601f8311600181146140c457600084156140ac5750858301515b600019600386901b1c1916600185901b178555612eb3565b600085815260208120601f198616915b828110156140f3578886015182559484019460019091019084016140d4565b50858210156141115787850151600019600388901b60f8161c191681555b5050505050600190811b01905550565b6020808252602c908201527f46756e6374696f6e206d7573742062652063616c6c6564207468726f7567682060408201526b19195b1959d85d1958d85b1b60a21b606082015260800190565b6020808252602c908201527f46756e6374696f6e206d7573742062652063616c6c6564207468726f7567682060408201526b6163746976652070726f787960a01b606082015260800190565b600082516141cb8184602087016133f3565b9190910192915050565b634e487b7160e01b600052603260045260246000fd5b6040815260006141fe6040830185613417565b90508260208301529392505050565b80820180821115612c9157612c91613fed565b6000808335601e1984360301811261423757600080fd5b8301803591506001600160401b0382111561425157600080fd5b6020019150368190038213156134e157600080fd5b60006020828403121561427857600080fd5b81516001600160401b0381111561428e57600080fd5b8201601f8101841361429f57600080fd5b80516142ad61363d826135f7565b8181528560208385010111156142c257600080fd5b61333f8260208301602086016133f3565b838152818360208301376000910160200190815292915050565b81810381811115612c9157612c91613fed565b634e487b7160e01b600052603160045260246000fd5b83815260406020820152600061333f604083018486613f6c565b60006020828403121561434257600080fd5b5051919050565b60608152600061435c6060830186613417565b6001600160a01b039490941660208301525060400152919050565b60006020828403121561438957600080fd5b81516113a581613781565b828152600082516143ac8160208501602087016133f3565b919091016020019392505050565b6020808252602b908201527f496e697469616c697a61626c653a20636f6e7472616374206973206e6f74206960408201526a6e697469616c697a696e6760a81b60608201526080019056fe360894a13ba1a3210667c828492db98dca3e2076cc3735a920a3ca505d382bbc4d6f6469667953706163655065726d697373696f6e7300000000000000000000416464726573733a206c6f772d6c6576656c2064656c65676174652063616c6c206661696c6564a264697066735822122038fa7d36660df9f70df181201823cddc7902a5a6eed563be35562a69b2d0eb7364736f6c63430008110033",
    "linkReferences": {}
  },
  "methodIdentifiers": {
    "addPermissionToRole(uint256,string)": "66fb345c",
    "addRoleToChannel(string,address,uint256)": "1dea616a",
    "addRoleToEntitlement(uint256,(address,bytes))": "ba201ba8",
    "channels(uint256)": "e5949b5d",
    "channelsByHash(bytes32)": "129ab3c8",
    "createChannel(string,string,uint256[])": "51f83cea",
    "createRole(string,string[],(address,bytes)[])": "8fcd793d",
    "defaultEntitlements(address)": "fa6433c5",
    "disabled()": "ee070805",
    "entitlements(uint256)": "f28f9b56",
    "getChannelByHash(bytes32)": "703511f8",
    "getEntitlementIdsByRoleId(uint256)": "42486e49",
    "getEntitlements()": "487dc38c",
    "getPermissionsByRoleId(uint256)": "b4264233",
    "getRoleById(uint256)": "784c872b",
    "getRoles()": "71061398",
    "hasEntitlement(address)": "7f8d06d0",
    "initialize(string,string,address[])": "ca275931",
    "isEntitledToChannel(string,address,string)": "cea632bc",
    "isEntitledToSpace(address,string)": "20759f9e",
    "multicall(bytes[])": "ac9650d8",
    "name()": "06fdde03",
    "networkId()": "9025e64c",
    "owner()": "8da5cb5b",
    "ownerRoleId()": "d1a6a961",
    "proxiableUUID()": "52d1902d",
    "removePermissionFromRole(uint256,string)": "f740bb6b",
    "removeRole(uint256)": "92691821",
    "removeRoleFromChannel(string,address,uint256)": "baaf3d57",
    "removeRoleFromEntitlement(uint256,(address,bytes))": "dba81864",
    "renounceOwnership()": "715018a6",
    "roleId()": "73368a48",
    "rolesById(uint256)": "e5894ef4",
    "setChannelAccess(string,bool)": "5de151b8",
    "setEntitlement(address,bool)": "f3b96ab4",
    "setOwnerRoleId(uint256)": "4999ab16",
    "setSpaceAccess(bool)": "446dc22e",
    "transferOwnership(address)": "f2fde38b",
    "updateChannel(string,string)": "34a1dd26",
    "updateRole(uint256,string)": "32e704cc",
    "upgradeTo(address)": "3659cfe6",
    "upgradeToAndCall(address,bytes)": "4f1ef286"
  },
  "id": 46
}