{
  "abi": [
    {
      "inputs": [],
      "stateMutability": "nonpayable",
      "type": "constructor"
    },
    {
      "inputs": [],
      "name": "AddRoleFailed",
      "type": "error"
    },
    {
      "inputs": [],
      "name": "ChannelAlreadyRegistered",
      "type": "error"
    },
    {
      "inputs": [],
      "name": "ChannelDoesNotExist",
      "type": "error"
    },
    {
      "inputs": [],
      "name": "EntitlementAlreadyExists",
      "type": "error"
    },
    {
      "inputs": [],
      "name": "EntitlementAlreadyWhitelisted",
      "type": "error"
    },
    {
      "inputs": [],
      "name": "EntitlementModuleNotSupported",
      "type": "error"
    },
    {
      "inputs": [],
      "name": "EntitlementNotWhitelisted",
      "type": "error"
    },
    {
      "inputs": [],
      "name": "InvalidParameters",
      "type": "error"
    },
    {
      "inputs": [],
      "name": "MissingOwnerPermission",
      "type": "error"
    },
    {
      "inputs": [],
      "name": "NameContainsInvalidCharacters",
      "type": "error"
    },
    {
      "inputs": [],
      "name": "NameLengthInvalid",
      "type": "error"
    },
    {
      "inputs": [],
      "name": "NotAllowed",
      "type": "error"
    },
    {
      "inputs": [],
      "name": "PermissionAlreadyExists",
      "type": "error"
    },
    {
      "inputs": [],
      "name": "RoleDoesNotExist",
      "type": "error"
    },
    {
      "inputs": [],
      "name": "RoleIsAssignedToEntitlement",
      "type": "error"
    },
    {
      "anonymous": false,
      "inputs": [
        {
          "indexed": false,
          "internalType": "address",
          "name": "previousAdmin",
          "type": "address"
        },
        {
          "indexed": false,
          "internalType": "address",
          "name": "newAdmin",
          "type": "address"
        }
      ],
      "name": "AdminChanged",
      "type": "event"
    },
    {
      "anonymous": false,
      "inputs": [
        {
          "indexed": true,
          "internalType": "address",
          "name": "beacon",
          "type": "address"
        }
      ],
      "name": "BeaconUpgraded",
      "type": "event"
    },
    {
      "anonymous": false,
      "inputs": [
        {
          "indexed": false,
          "internalType": "uint8",
          "name": "version",
          "type": "uint8"
        }
      ],
      "name": "Initialized",
      "type": "event"
    },
    {
      "anonymous": false,
      "inputs": [
        {
          "indexed": true,
          "internalType": "address",
          "name": "implementation",
          "type": "address"
        }
      ],
      "name": "Upgraded",
      "type": "event"
    },
    {
      "inputs": [
        {
          "internalType": "uint256",
          "name": "_roleId",
          "type": "uint256"
        },
        {
          "internalType": "string[]",
          "name": "_permissions",
          "type": "string[]"
        }
      ],
      "name": "addPermissionsToRole",
      "outputs": [],
      "stateMutability": "nonpayable",
      "type": "function"
    },
    {
      "inputs": [
        {
          "internalType": "string",
          "name": "_channelNetworkId",
          "type": "string"
        },
        {
          "internalType": "address",
          "name": "_entitlement",
          "type": "address"
        },
        {
          "internalType": "uint256",
          "name": "_roleId",
          "type": "uint256"
        }
      ],
      "name": "addRoleToChannel",
      "outputs": [],
      "stateMutability": "nonpayable",
      "type": "function"
    },
    {
      "inputs": [
        {
          "internalType": "uint256",
          "name": "_roleId",
          "type": "uint256"
        },
        {
          "components": [
            {
              "internalType": "address",
              "name": "module",
              "type": "address"
            },
            {
              "internalType": "bytes",
              "name": "data",
              "type": "bytes"
            }
          ],
          "internalType": "struct DataTypes.Entitlement",
          "name": "_entitlement",
          "type": "tuple"
        }
      ],
      "name": "addRoleToEntitlement",
      "outputs": [],
      "stateMutability": "nonpayable",
      "type": "function"
    },
    {
      "inputs": [
        {
          "internalType": "uint256",
          "name": "",
          "type": "uint256"
        }
      ],
      "name": "channels",
      "outputs": [
        {
          "internalType": "bytes32",
          "name": "",
          "type": "bytes32"
        }
      ],
      "stateMutability": "view",
      "type": "function"
    },
    {
      "inputs": [
        {
          "internalType": "bytes32",
          "name": "",
          "type": "bytes32"
        }
      ],
      "name": "channelsByHash",
      "outputs": [
        {
          "internalType": "string",
          "name": "name",
          "type": "string"
        },
        {
          "internalType": "string",
          "name": "channelNetworkId",
          "type": "string"
        },
        {
          "internalType": "bytes32",
          "name": "channelHash",
          "type": "bytes32"
        },
        {
          "internalType": "uint256",
          "name": "createdAt",
          "type": "uint256"
        },
        {
          "internalType": "bool",
          "name": "disabled",
          "type": "bool"
        }
      ],
      "stateMutability": "view",
      "type": "function"
    },
    {
      "inputs": [
        {
          "internalType": "string",
          "name": "channelName",
          "type": "string"
        },
        {
          "internalType": "string",
          "name": "channelNetworkId",
          "type": "string"
        },
        {
          "internalType": "uint256[]",
          "name": "roleIds",
          "type": "uint256[]"
        }
      ],
      "name": "createChannel",
      "outputs": [
        {
          "internalType": "bytes32",
          "name": "",
          "type": "bytes32"
        }
      ],
      "stateMutability": "nonpayable",
      "type": "function"
    },
    {
      "inputs": [
        {
          "internalType": "string",
          "name": "_roleName",
          "type": "string"
        },
        {
          "internalType": "string[]",
          "name": "_permissions",
          "type": "string[]"
        },
        {
          "components": [
            {
              "internalType": "address",
              "name": "module",
              "type": "address"
            },
            {
              "internalType": "bytes",
              "name": "data",
              "type": "bytes"
            }
          ],
          "internalType": "struct DataTypes.Entitlement[]",
          "name": "_entitlements",
          "type": "tuple[]"
        }
      ],
      "name": "createRole",
      "outputs": [
        {
          "internalType": "uint256",
          "name": "",
          "type": "uint256"
        }
      ],
      "stateMutability": "nonpayable",
      "type": "function"
    },
    {
      "inputs": [
        {
          "internalType": "address",
          "name": "",
          "type": "address"
        }
      ],
      "name": "defaultEntitlements",
      "outputs": [
        {
          "internalType": "bool",
          "name": "",
          "type": "bool"
        }
      ],
      "stateMutability": "view",
      "type": "function"
    },
    {
      "inputs": [],
      "name": "disabled",
      "outputs": [
        {
          "internalType": "bool",
          "name": "",
          "type": "bool"
        }
      ],
      "stateMutability": "view",
      "type": "function"
    },
    {
      "inputs": [
        {
          "internalType": "uint256",
          "name": "",
          "type": "uint256"
        }
      ],
      "name": "entitlements",
      "outputs": [
        {
          "internalType": "address",
          "name": "",
          "type": "address"
        }
      ],
      "stateMutability": "view",
      "type": "function"
    },
    {
      "inputs": [
        {
          "internalType": "bytes32",
          "name": "_channelHash",
          "type": "bytes32"
        }
      ],
      "name": "getChannelByHash",
      "outputs": [
        {
          "components": [
            {
              "internalType": "string",
              "name": "name",
              "type": "string"
            },
            {
              "internalType": "string",
              "name": "channelNetworkId",
              "type": "string"
            },
            {
              "internalType": "bytes32",
              "name": "channelHash",
              "type": "bytes32"
            },
            {
              "internalType": "uint256",
              "name": "createdAt",
              "type": "uint256"
            },
            {
              "internalType": "bool",
              "name": "disabled",
              "type": "bool"
            }
          ],
          "internalType": "struct DataTypes.Channel",
          "name": "",
          "type": "tuple"
        }
      ],
      "stateMutability": "view",
      "type": "function"
    },
    {
      "inputs": [],
      "name": "getChannels",
      "outputs": [
        {
          "internalType": "bytes32[]",
          "name": "",
          "type": "bytes32[]"
        }
      ],
      "stateMutability": "view",
      "type": "function"
    },
    {
      "inputs": [
        {
          "internalType": "string",
          "name": "_moduleType",
          "type": "string"
        }
      ],
      "name": "getEntitlementByModuleType",
      "outputs": [
        {
          "internalType": "address",
          "name": "",
          "type": "address"
        }
      ],
      "stateMutability": "view",
      "type": "function"
    },
    {
      "inputs": [
        {
          "internalType": "uint256",
          "name": "_roleId",
          "type": "uint256"
        }
      ],
      "name": "getEntitlementIdsByRoleId",
      "outputs": [
        {
          "internalType": "bytes32[]",
          "name": "",
          "type": "bytes32[]"
        }
      ],
      "stateMutability": "view",
      "type": "function"
    },
    {
      "inputs": [],
      "name": "getEntitlements",
      "outputs": [
        {
          "internalType": "address[]",
          "name": "",
          "type": "address[]"
        }
      ],
      "stateMutability": "view",
      "type": "function"
    },
    {
      "inputs": [
        {
          "internalType": "uint256",
          "name": "_roleId",
          "type": "uint256"
        }
      ],
      "name": "getPermissionsByRoleId",
      "outputs": [
        {
          "internalType": "bytes32[]",
          "name": "",
          "type": "bytes32[]"
        }
      ],
      "stateMutability": "view",
      "type": "function"
    },
    {
      "inputs": [
        {
          "internalType": "uint256",
          "name": "_roleId",
          "type": "uint256"
        }
      ],
      "name": "getRoleById",
      "outputs": [
        {
          "components": [
            {
              "internalType": "uint256",
              "name": "roleId",
              "type": "uint256"
            },
            {
              "internalType": "string",
              "name": "name",
              "type": "string"
            }
          ],
          "internalType": "struct DataTypes.Role",
          "name": "",
          "type": "tuple"
        }
      ],
      "stateMutability": "view",
      "type": "function"
    },
    {
      "inputs": [],
      "name": "getRoles",
      "outputs": [
        {
          "components": [
            {
              "internalType": "uint256",
              "name": "roleId",
              "type": "uint256"
            },
            {
              "internalType": "string",
              "name": "name",
              "type": "string"
            }
          ],
          "internalType": "struct DataTypes.Role[]",
          "name": "",
          "type": "tuple[]"
        }
      ],
      "stateMutability": "view",
      "type": "function"
    },
    {
      "inputs": [
        {
          "internalType": "address",
          "name": "",
          "type": "address"
        }
      ],
      "name": "hasEntitlement",
      "outputs": [
        {
          "internalType": "bool",
          "name": "",
          "type": "bool"
        }
      ],
      "stateMutability": "view",
      "type": "function"
    },
    {
      "inputs": [
        {
          "internalType": "string",
          "name": "_name",
          "type": "string"
        },
        {
          "internalType": "string",
          "name": "_networkId",
          "type": "string"
        },
        {
          "internalType": "address[]",
          "name": "_entitlements",
          "type": "address[]"
        },
        {
          "internalType": "address",
          "name": "_token",
          "type": "address"
        },
        {
          "internalType": "uint256",
          "name": "_tokenId",
          "type": "uint256"
        }
      ],
      "name": "initialize",
      "outputs": [],
      "stateMutability": "nonpayable",
      "type": "function"
    },
    {
      "inputs": [
        {
          "internalType": "string",
          "name": "_channelNetworkId",
          "type": "string"
        },
        {
          "internalType": "address",
          "name": "_user",
          "type": "address"
        },
        {
          "internalType": "string",
          "name": "_permission",
          "type": "string"
        }
      ],
      "name": "isEntitledToChannel",
      "outputs": [
        {
          "internalType": "bool",
          "name": "_entitled",
          "type": "bool"
        }
      ],
      "stateMutability": "view",
      "type": "function"
    },
    {
      "inputs": [
        {
          "internalType": "address",
          "name": "_user",
          "type": "address"
        },
        {
          "internalType": "string",
          "name": "_permission",
          "type": "string"
        }
      ],
      "name": "isEntitledToSpace",
      "outputs": [
        {
          "internalType": "bool",
          "name": "_entitled",
          "type": "bool"
        }
      ],
      "stateMutability": "view",
      "type": "function"
    },
    {
      "inputs": [
        {
          "internalType": "bytes[]",
          "name": "data",
          "type": "bytes[]"
        }
      ],
      "name": "multicall",
      "outputs": [
        {
          "internalType": "bytes[]",
          "name": "results",
          "type": "bytes[]"
        }
      ],
      "stateMutability": "nonpayable",
      "type": "function"
    },
    {
      "inputs": [],
      "name": "name",
      "outputs": [
        {
          "internalType": "string",
          "name": "",
          "type": "string"
        }
      ],
      "stateMutability": "view",
      "type": "function"
    },
    {
      "inputs": [],
      "name": "networkId",
      "outputs": [
        {
          "internalType": "string",
          "name": "",
          "type": "string"
        }
      ],
      "stateMutability": "view",
      "type": "function"
    },
    {
      "inputs": [],
      "name": "owner",
      "outputs": [
        {
          "internalType": "address",
          "name": "",
          "type": "address"
        }
      ],
      "stateMutability": "view",
      "type": "function"
    },
    {
      "inputs": [],
      "name": "ownerRoleId",
      "outputs": [
        {
          "internalType": "uint256",
          "name": "",
          "type": "uint256"
        }
      ],
      "stateMutability": "view",
      "type": "function"
    },
    {
      "inputs": [],
      "name": "proxiableUUID",
      "outputs": [
        {
          "internalType": "bytes32",
          "name": "",
          "type": "bytes32"
        }
      ],
      "stateMutability": "view",
      "type": "function"
    },
    {
      "inputs": [
        {
          "internalType": "uint256",
          "name": "_roleId",
          "type": "uint256"
        },
        {
          "internalType": "string[]",
          "name": "_permissions",
          "type": "string[]"
        }
      ],
      "name": "removePermissionsFromRole",
      "outputs": [],
      "stateMutability": "nonpayable",
      "type": "function"
    },
    {
      "inputs": [
        {
          "internalType": "uint256",
          "name": "_roleId",
          "type": "uint256"
        }
      ],
      "name": "removeRole",
      "outputs": [],
      "stateMutability": "nonpayable",
      "type": "function"
    },
    {
      "inputs": [
        {
          "internalType": "string",
          "name": "_channelNetworkId",
          "type": "string"
        },
        {
          "internalType": "address",
          "name": "_entitlement",
          "type": "address"
        },
        {
          "internalType": "uint256",
          "name": "_roleId",
          "type": "uint256"
        }
      ],
      "name": "removeRoleFromChannel",
      "outputs": [],
      "stateMutability": "nonpayable",
      "type": "function"
    },
    {
      "inputs": [
        {
          "internalType": "uint256",
          "name": "_roleId",
          "type": "uint256"
        },
        {
          "components": [
            {
              "internalType": "address",
              "name": "module",
              "type": "address"
            },
            {
              "internalType": "bytes",
              "name": "data",
              "type": "bytes"
            }
          ],
          "internalType": "struct DataTypes.Entitlement",
          "name": "_entitlement",
          "type": "tuple"
        }
      ],
      "name": "removeRoleFromEntitlement",
      "outputs": [],
      "stateMutability": "nonpayable",
      "type": "function"
    },
    {
      "inputs": [],
      "name": "roleCount",
      "outputs": [
        {
          "internalType": "uint256",
          "name": "",
          "type": "uint256"
        }
      ],
      "stateMutability": "view",
      "type": "function"
    },
    {
      "inputs": [
        {
          "internalType": "uint256",
          "name": "",
          "type": "uint256"
        }
      ],
      "name": "rolesById",
      "outputs": [
        {
          "internalType": "uint256",
          "name": "roleId",
          "type": "uint256"
        },
        {
          "internalType": "string",
          "name": "name",
          "type": "string"
        }
      ],
      "stateMutability": "view",
      "type": "function"
    },
    {
      "inputs": [
        {
          "internalType": "string",
          "name": "channelNetworkId",
          "type": "string"
        },
        {
          "internalType": "bool",
          "name": "disableChannel",
          "type": "bool"
        }
      ],
      "name": "setChannelAccess",
      "outputs": [],
      "stateMutability": "nonpayable",
      "type": "function"
    },
    {
      "inputs": [
        {
          "internalType": "address",
          "name": "_entitlementModule",
          "type": "address"
        },
        {
          "internalType": "bool",
          "name": "_whitelist",
          "type": "bool"
        }
      ],
      "name": "setEntitlementModule",
      "outputs": [],
      "stateMutability": "nonpayable",
      "type": "function"
    },
    {
      "inputs": [
        {
          "internalType": "uint256",
          "name": "_roleId",
          "type": "uint256"
        }
      ],
      "name": "setOwnerRoleId",
      "outputs": [],
      "stateMutability": "nonpayable",
      "type": "function"
    },
    {
      "inputs": [
        {
          "internalType": "bool",
          "name": "_disabled",
          "type": "bool"
        }
      ],
      "name": "setSpaceAccess",
      "outputs": [],
      "stateMutability": "nonpayable",
      "type": "function"
    },
    {
      "inputs": [],
      "name": "token",
      "outputs": [
        {
          "internalType": "address",
          "name": "",
          "type": "address"
        }
      ],
      "stateMutability": "view",
      "type": "function"
    },
    {
      "inputs": [],
      "name": "tokenId",
      "outputs": [
        {
          "internalType": "uint256",
          "name": "",
          "type": "uint256"
        }
      ],
      "stateMutability": "view",
      "type": "function"
    },
    {
      "inputs": [
        {
          "internalType": "string",
          "name": "channelNetworkId",
          "type": "string"
        },
        {
          "internalType": "string",
          "name": "channelName",
          "type": "string"
        }
      ],
      "name": "updateChannel",
      "outputs": [],
      "stateMutability": "nonpayable",
      "type": "function"
    },
    {
      "inputs": [
        {
          "internalType": "uint256",
          "name": "_roleId",
          "type": "uint256"
        },
        {
          "internalType": "string",
          "name": "_roleName",
          "type": "string"
        }
      ],
      "name": "updateRole",
      "outputs": [],
      "stateMutability": "nonpayable",
      "type": "function"
    },
    {
      "inputs": [
        {
          "internalType": "address",
          "name": "_entitlement",
          "type": "address"
        },
        {
          "internalType": "address",
          "name": "_newEntitlement",
          "type": "address"
        }
      ],
      "name": "upgradeEntitlement",
      "outputs": [],
      "stateMutability": "nonpayable",
      "type": "function"
    },
    {
      "inputs": [
        {
          "internalType": "address",
          "name": "newImplementation",
          "type": "address"
        }
      ],
      "name": "upgradeTo",
      "outputs": [],
      "stateMutability": "nonpayable",
      "type": "function"
    },
    {
      "inputs": [
        {
          "internalType": "address",
          "name": "newImplementation",
          "type": "address"
        },
        {
          "internalType": "bytes",
          "name": "data",
          "type": "bytes"
        }
      ],
      "name": "upgradeToAndCall",
      "outputs": [],
      "stateMutability": "payable",
      "type": "function"
    }
  ],
  "bytecode": {
    "object": "0x60a0604052306080523480156200001557600080fd5b506200002062000026565b620000e7565b600054610100900460ff1615620000935760405162461bcd60e51b815260206004820152602760248201527f496e697469616c697a61626c653a20636f6e747261637420697320696e697469604482015266616c697a696e6760c81b606482015260840160405180910390fd5b60005460ff90811614620000e5576000805460ff191660ff9081179091556040519081527f7f26b83ff96e1f2b6a682f133852f6798a09c465da95921460cefb38474024989060200160405180910390a15b565b6080516150d06200011f60003960008181610e0701528181610e500152818161120301528181611243015261175701526150d06000f3fe6080604052600436106102725760003560e01c8063870b94641161014f578063baaf3d57116100c1578063e5949b5d1161007a578063e5949b5d146107aa578063ee070805146107ca578063f28f9b56146107e4578063f3ce6a5b14610804578063fa6433c514610824578063fc0c546a1461085457600080fd5b8063baaf3d57146106f0578063cea632bc14610710578063d1a6a96114610730578063dba8186414610746578063ddf9635814610766578063e5894ef41461077c57600080fd5b80639575f6ac116101135780639575f6ac1461062e5780639a8e4c3e14610643578063ac9650d814610663578063b426423314610690578063b7515761146106b0578063ba201ba8146106d057600080fd5b8063870b94641461058c5780638da5cb5b146105c45780638fcd793d146105d95780639025e64c146105f9578063926918211461060e57600080fd5b8063487dc38c116101e857806352d1902d116101ac57806352d1902d146104ab5780635de151b8146104c0578063703511f8146104e0578063710613981461050d578063784c872b1461052f5780637f8d06d01461055c57600080fd5b8063487dc38c146104165780634999ab16146104385780634f1ef28614610458578063519607f21461046b57806351f83cea1461048b57600080fd5b806332e704cc1161023a57806332e704cc1461034957806334a1dd26146103695780633659cfe61461038957806342486e49146103a9578063441555e5146103d6578063446dc22e146103f657600080fd5b806306fdde0314610277578063129ab3c8146102a257806317d70f7c146102d35780631dea616a146102f757806320759f9e14610319575b600080fd5b34801561028357600080fd5b5061028c610874565b6040516102999190613dd4565b60405180910390f35b3480156102ae57600080fd5b506102c26102bd366004613de7565b610902565b604051610299959493929190613e00565b3480156102df57600080fd5b506102e9609c5481565b604051908152602001610299565b34801561030357600080fd5b50610317610312366004613eb2565b610a45565b005b34801561032557600080fd5b50610339610334366004613f0e565b610b7c565b6040519015158152602001610299565b34801561035557600080fd5b50610317610364366004614025565b610bf2565b34801561037557600080fd5b5061031761038436600461406b565b610d0e565b34801561039557600080fd5b506103176103a43660046140d6565b610dfd565b3480156103b557600080fd5b506103c96103c4366004613de7565b610ee5565b60405161029991906140f3565b3480156103e257600080fd5b506103176103f1366004614145565b610f47565b34801561040257600080fd5b5061031761041136600461417e565b61101b565b34801561042257600080fd5b5061042b611053565b604051610299919061419b565b34801561044457600080fd5b50610317610453366004613de7565b6110b5565b6103176104663660046141dc565b6111f9565b34801561047757600080fd5b50610317610486366004614215565b6112c5565b34801561049757600080fd5b506102e96104a6366004614266565b6113e0565b3480156104b757600080fd5b506102e961174a565b3480156104cc57600080fd5b506103176104db366004614347565b6117fd565b3480156104ec57600080fd5b506105006104fb366004613de7565b6118c3565b604051610299919061439d565b34801561051957600080fd5b50610522611a54565b604051610299919061442a565b34801561053b57600080fd5b5061054f61054a366004613de7565b611bc2565b604051610299919061448c565b34801561056857600080fd5b506103396105773660046140d6565b609d6020526000908152604090205460ff1681565b34801561059857600080fd5b506105ac6105a736600461449f565b611c98565b6040516001600160a01b039091168152602001610299565b3480156105d057600080fd5b506105ac611d81565b3480156105e557600080fd5b506102e96105f43660046145d6565b611df8565b34801561060557600080fd5b5061028c612123565b34801561061a57600080fd5b50610317610629366004613de7565b612130565b34801561063a57600080fd5b506103c9612267565b34801561064f57600080fd5b5061031761065e3660046146d1565b6122be565b34801561066f57600080fd5b5061068361067e36600461470d565b6124cb565b6040516102999190614781565b34801561069c57600080fd5b506103c96106ab366004613de7565b6125e2565b3480156106bc57600080fd5b506103176106cb3660046146d1565b612642565b3480156106dc57600080fd5b506103176106eb3660046147d6565b6127da565b3480156106fc57600080fd5b5061031761070b366004613eb2565b6128b3565b34801561071c57600080fd5b5061033961072b366004614812565b6129b2565b34801561073c57600080fd5b506102e9609a5481565b34801561075257600080fd5b50610317610761366004614896565b612b04565b34801561077257600080fd5b506102e960a15481565b34801561078857600080fd5b5061079c610797366004613de7565b612d6d565b6040516102999291906148d8565b3480156107b657600080fd5b506102e96107c5366004613de7565b612e12565b3480156107d657600080fd5b506099546103399060ff1681565b3480156107f057600080fd5b506105ac6107ff366004613de7565b612e33565b34801561081057600080fd5b5061031761081f3660046148f1565b612e5d565b34801561083057600080fd5b5061033961083f3660046140d6565b609e6020526000908152604090205460ff1681565b34801561086057600080fd5b50609b546105ac906001600160a01b031681565b60978054610881906149f0565b80601f01602080910402602001604051908101604052809291908181526020018280546108ad906149f0565b80156108fa5780601f106108cf576101008083540402835291602001916108fa565b820191906000526020600020905b8154815290600101906020018083116108dd57829003601f168201915b505050505081565b60a46020526000908152604090208054819061091d906149f0565b80601f0160208091040260200160405190810160405280929190818152602001828054610949906149f0565b80156109965780601f1061096b57610100808354040283529160200191610996565b820191906000526020600020905b81548152906001019060200180831161097957829003601f168201915b5050505050908060010180546109ab906149f0565b80601f01602080910402602001604051908101604052809291908181526020018280546109d7906149f0565b8015610a245780601f106109f957610100808354040283529160200191610a24565b820191906000526020600020905b815481529060010190602001808311610a0757829003601f168201915b50505050600283015460038401546004909401549293909290915060ff1685565b610aad84848080601f0160208091040260200160405190810160405280939291908181526020018383808284376000920191909152505060408051808201909152601181527041646452656d6f76654368616e6e656c7360781b602082015291506130419050565b6001600160a01b0382166000908152609d602052604090205460ff16610ae65760405163c1ef36f360e01b815260040160405180910390fd5b600081815260a260205260408120549003610b145760405163b810dc5d60e01b815260040160405180910390fd5b60405163c513be7760e01b81526001600160a01b0383169063c513be7790610b4490879087908690600401614a4d565b600060405180830381600087803b158015610b5e57600080fd5b505af1158015610b72573d6000803e3d6000fd5b5050505050505050565b6000805b60a054811015610bea57610bce60405180602001604052806000815250868686604051602001610bb1929190614a71565b604051602081830303815290604052610bc990614a81565b613095565b15610bd857600191505b80610be281614abb565b915050610b80565b509392505050565b610c2e60405180602001604052806000815250604051806040016040528060168152602001600080516020615054833981519152815250613041565b610c378161314e565b609a548203610c5957604051631eb49d6d60e11b815260040160405180910390fd5b600082815260a260205260408120549003610c875760405163b810dc5d60e01b815260040160405180910390fd5b8051600003610ca957604051630e52390960e41b815260040160405180910390fd5b600082815260a260205260409020600101610cc48282614b1a565b5081336001600160a01b03167ff3c55faf0b13ffa681c984baddbb8ef7638e514188ea19bd6461d7f87b9c7953836098604051610d02929190614c56565b60405180910390a35050565b610d50604051806020016040528060008152506040518060400160405280601181526020017041646452656d6f76654368616e6e656c7360781b815250613041565b610d5a828261317f565b60008484604051602001610d6f929190614a71565b60408051601f198184030181529181528151602092830120600081815260a4909352908220600201549092509003610dba57604051636ddd9da960e01b815260040160405180910390fd5b6000829003610ddc57604051631eb49d6d60e11b815260040160405180910390fd5b600081815260a460205260409020610df5838583614c7b565b505050505050565b6001600160a01b037f0000000000000000000000000000000000000000000000000000000000000000163003610e4e5760405162461bcd60e51b8152600401610e4590614d3a565b60405180910390fd5b7f00000000000000000000000000000000000000000000000000000000000000006001600160a01b0316610e97600080516020615034833981519152546001600160a01b031690565b6001600160a01b031614610ebd5760405162461bcd60e51b8152600401610e4590614d86565b610ec681613394565b60408051600080825260208201909252610ee2918391906133ca565b50565b6000818152609f6020908152604091829020805483518184028101840190945280845260609392830182828015610f3b57602002820191906000526020600020905b815481526020019060010190808311610f27575b50505050509050919050565b610f7d604051806020016040528060008152506040518060400160405280600581526020016427bbb732b960d91b815250613041565b610f8682613535565b808015610fab57506001600160a01b0382166000908152609d602052604090205460ff165b15610fc95760405163186abc9b60e01b815260040160405180910390fd5b80158015610fef57506001600160a01b0382166000908152609e602052604090205460ff165b1561100d57604051631eb49d6d60e11b815260040160405180910390fd5b61101782826135c6565b5050565b611023613747565b61104057604051631eb49d6d60e11b815260040160405180910390fd5b6099805460ff1916911515919091179055565b606060a08054806020026020016040519081016040528092919081815260200182805480156110ab57602002820191906000526020600020905b81546001600160a01b0316815260019091019060200180831161108d575b5050505050905090565b6110bd613747565b6110da57604051631eb49d6d60e11b815260040160405180910390fd5b609a54156110fb57604051631eb49d6d60e11b815260040160405180910390fd5b600081815260a2602052604081205490036111295760405163b810dc5d60e01b815260040160405180910390fd5b6000805b600083815260a360205260409020548110156111d4576040518060400160405280600581526020016427bbb732b960d91b8152506040516020016111719190614dd2565b60405160208183030381529060405261118990614a81565b600084815260a3602052604090208054839081106111a9576111a9614dee565b9060005260206000200154036111c257600191506111d4565b806111cc81614abb565b91505061112d565b50806111f357604051633e74bd6360e21b815260040160405180910390fd5b50609a55565b6001600160a01b037f00000000000000000000000000000000000000000000000000000000000000001630036112415760405162461bcd60e51b8152600401610e4590614d3a565b7f00000000000000000000000000000000000000000000000000000000000000006001600160a01b031661128a600080516020615034833981519152546001600160a01b031690565b6001600160a01b0316146112b05760405162461bcd60e51b8152600401610e4590614d86565b6112b982613394565b611017828260016133ca565b6112fb604051806020016040528060008152506040518060400160405280600581526020016427bbb732b960d91b815250613041565b6001600160a01b038216158061131857506001600160a01b038116155b1561133657604051630e52390960e41b815260040160405180910390fd5b6001600160a01b0382166000908152609d602052604090205460ff1661136f5760405163c1ef36f360e01b815260040160405180910390fd5b604051631b2ce7f360e11b81526001600160a01b038281166004830152831690633659cfe690602401600060405180830381600087803b1580156113b257600080fd5b505af19250505080156113c3575060015b61101757604051630e52390960e41b815260040160405180910390fd5b6000611424604051806020016040528060008152506040518060400160405280601181526020017041646452656d6f76654368616e6e656c7360781b815250613041565b61142e858561317f565b6000836040516020016114419190614dd2565b60408051601f198184030181529181528151602092830120600081815260a49093529120600201549091501561148a57604051630139324b60e41b815260040160405180910390fd5b6040518060a0016040528087878080601f016020809104026020016040519081016040528093929190818152602001838380828437600092018290525093855250505060208083018890526040808401869052426060850152608090930182905284825260a4905220815181906115019082614b1a565b50602082015160018201906115169082614b1a565b5060408201516002820155606082015160038201556080909101516004909101805460ff191691151591909117905560a5805460018101825560009182527fb29a2b3b6f2ff1b765777a231725941da5072cc4fcc30ac4a2ce09706e8ddeff018290555b60a05481101561174057600060a0828154811061159957611599614dee565b600091825260209091200154609a5460405163c513be7760e01b81526001600160a01b039092169250829163c513be77916115d9918a9190600401614e04565b600060405180830381600087803b1580156115f357600080fd5b505af1158015611607573d6000803e3d6000fd5b5050505060005b855181101561172b57609a5486828151811061162c5761162c614dee565b602002602001015103156117195760a2600087838151811061165057611650614dee565b602002602001015181526020019081526020016000206000015460000361168a5760405163b810dc5d60e01b815260040160405180910390fd5b816001600160a01b031663c513be77888884815181106116ac576116ac614dee565b60200260200101516040518363ffffffff1660e01b81526004016116d1929190614e04565b600060405180830381600087803b1580156116eb57600080fd5b505af19250505080156116fc575060015b6117195760405163d9afe50760e01b815260040160405180910390fd5b8061172381614abb565b91505061160e565b5050808061173890614abb565b91505061157a565b5095945050505050565b6000306001600160a01b037f000000000000000000000000000000000000000000000000000000000000000016146117ea5760405162461bcd60e51b815260206004820152603860248201527f555550535570677261646561626c653a206d757374206e6f742062652063616c60448201527f6c6564207468726f7567682064656c656761746563616c6c00000000000000006064820152608401610e45565b5060008051602061503483398151915290565b61183f604051806020016040528060008152506040518060400160405280601181526020017041646452656d6f76654368616e6e656c7360781b815250613041565b60008383604051602001611854929190614a71565b60408051601f198184030181529181528151602092830120600081815260a490935290822060020154909250900361189f57604051636ddd9da960e01b815260040160405180910390fd5b600090815260a460205260409020600401805460ff19169115159190911790555050565b6040805160a081018252606080825260208201819052600092820183905281018290526080810191909152600082815260a4602052604090819020815160a08101909252805482908290611916906149f0565b80601f0160208091040260200160405190810160405280929190818152602001828054611942906149f0565b801561198f5780601f106119645761010080835404028352916020019161198f565b820191906000526020600020905b81548152906001019060200180831161197257829003601f168201915b505050505081526020016001820180546119a8906149f0565b80601f01602080910402602001604051908101604052809291908181526020018280546119d4906149f0565b8015611a215780601f106119f657610100808354040283529160200191611a21565b820191906000526020600020905b815481529060010190602001808311611a0457829003601f168201915b5050509183525050600282015460208201526003820154604082015260049091015460ff16151560609091015292915050565b6060600060a1546001600160401b03811115611a7257611a72613f62565b604051908082528060200260200182016040528015611ab857816020015b604080518082019091526000815260606020820152815260200190600190039081611a905790505b50905060005b60a154811015611bbc5760a26000611ad7836001614e26565b815260200190815260200160002060405180604001604052908160008201548152602001600182018054611b0a906149f0565b80601f0160208091040260200160405190810160405280929190818152602001828054611b36906149f0565b8015611b835780601f10611b5857610100808354040283529160200191611b83565b820191906000526020600020905b815481529060010190602001808311611b6657829003601f168201915b505050505081525050828281518110611b9e57611b9e614dee565b60200260200101819052508080611bb490614abb565b915050611abe565b50919050565b60408051808201909152600081526060602082015260a2600083815260200190815260200160002060405180604001604052908160008201548152602001600182018054611c0f906149f0565b80601f0160208091040260200160405190810160405280929190818152602001828054611c3b906149f0565b8015611c885780601f10611c5d57610100808354040283529160200191611c88565b820191906000526020600020905b815481529060010190602001808311611c6b57829003601f168201915b5050505050815250509050919050565b60008060005b60a054811015611d7a57611d3860a08281548110611cbe57611cbe614dee565b600091825260208220015460408051636465e69f60e01b815290516001600160a01b0390921692636465e69f926004808401938290030181865afa158015611d0a573d6000803e3d6000fd5b505050506040513d6000823e601f3d908101601f19168201604052611d329190810190614e39565b856137ce565b15611d685760a08181548110611d5057611d50614dee565b6000918252602090912001546001600160a01b031691505b80611d7281614abb565b915050611c9e565b5092915050565b609b54609c546040516331a9108f60e11b815260048101919091526000916001600160a01b031690636352211e90602401602060405180830381865afa158015611dcf573d6000803e3d6000fd5b505050506040513d601f19601f82011682018060405250810190611df39190614ea6565b905090565b6000611e3660405180602001604052806000815250604051806040016040528060168152602001600080516020615054833981519152815250613041565b611e7585858080601f01602080910402602001604051908101604052809392919081815260200183838082843760009201919091525061314e92505050565b600060a160008154611e8690614abb565b91905081905590506000604051806040016040528083815260200188888080601f016020809104026020016040519081016040528093929190818152602001838380828437600092018290525093909452505084815260a260209081526040909120835181559083015192935083929091506001820190611f079082614b1a565b5090505060005b8551811015611ff757609a5415158015611f635750611f63868281518110611f3857611f38614dee565b60200260200101516040518060400160405280600581526020016427bbb732b960d91b8152506137ce565b15611f8157604051631eb49d6d60e11b815260040160405180910390fd5b6000868281518110611f9557611f95614dee565b6020026020010151604051602001611fad9190614dd2565b604051602081830303815290604052611fc590614a81565b600085815260a36020908152604082208054600181018255908352912001555080611fef81614abb565b915050611f0e565b5060005b84518110156120d157600085828151811061201857612018614dee565b6020026020010151600001519050600086838151811061203a5761203a614dee565b602002602001015160200151905060006001600160a01b0316826001600160a01b0316148061206857508051155b156120745750506120bf565b6001600160a01b0382166000908152609d602052604081205460ff16151590036120b15760405163c1ef36f360e01b815260040160405180910390fd5b6120bc858383613828565b50505b806120c981614abb565b915050611ffb565b5081336001600160a01b03167f39772407c6dd2e83adbd292cdfa17a6817c9a7500e56cfe57b7a82d797f8d39b8989609860405161211193929190614ec3565b60405180910390a35095945050505050565b60988054610881906149f0565b61216c60405180602001604052806000815250604051806040016040528060168152602001600080516020615054833981519152815250613041565b609a54810361218e57604051631eb49d6d60e11b815260040160405180910390fd5b600081815260a2602052604081205490036121bc5760405163b810dc5d60e01b815260040160405180910390fd5b6000818152609f6020526040902054156121e957604051633764405360e11b815260040160405180910390fd5b600081815260a260205260408120818155906122086001830182613d17565b5050600081815260a36020526040812061222191613d51565b80336001600160a01b03167f1d5667a301e36f2d5b1ee32b7f187b0adb46c706297242fa945d3fed1e7f8a19609860405161225c9190614ef3565b60405180910390a350565b606060a58054806020026020016040519081016040528092919081815260200182805480156110ab57602002820191906000526020600020905b8154815260200190600101908083116122a1575050505050905090565b6122fa60405180602001604052806000815250604051806040016040528060168152602001600080516020615054833981519152815250613041565b600082815260a2602052604081205490036123285760405163b810dc5d60e01b815260040160405180910390fd5b60005b81518110156124c657612349828281518110611f3857611f38614dee565b1561236757604051631eb49d6d60e11b815260040160405180910390fd5b600082828151811061237b5761237b614dee565b60200260200101516040516020016123939190614dd2565b6040516020818303038152906040526123ab90614a81565b905060005b600085815260a360205260409020548110156124b157600085815260a3602052604090208054839190839081106123e9576123e9614dee565b90600052602060002001540361249f57600085815260a360205260409020805461241590600190614f06565b8154811061242557612425614dee565b906000526020600020015460a36000878152602001908152602001600020828154811061245457612454614dee565b906000526020600020018190555060a3600086815260200190815260200160002080548061248457612484614f19565b600190038181906000526020600020016000905590556124b1565b806124a981614abb565b9150506123b0565b505080806124be90614abb565b91505061232b565b505050565b6060816001600160401b038111156124e5576124e5613f62565b60405190808252806020026020018201604052801561251857816020015b60608152602001906001900390816125035790505b50905060005b82811015611d7a576000803086868581811061253c5761253c614dee565b905060200281019061254e9190614f2f565b60405161255c929190614a71565b600060405180830381855af49150503d8060008114612597576040519150601f19603f3d011682016040523d82523d6000602084013e61259c565b606091505b5091509150816125af576125af81613998565b808484815181106125c2576125c2614dee565b6020026020010181905250505080806125da90614abb565b91505061251e565b600081815260a36020908152604091829020805483518184028101840190945280845260609392830182828015610f3b5760200282019190600052602060002090815481526020019060010190808311610f275750505050509050919050565b61267e60405180602001604052806000815250604051806040016040528060168152602001600080516020615054833981519152815250613041565b600082815260a2602052604081205490036126ac5760405163b810dc5d60e01b815260040160405180910390fd5b60005b81518110156124c6576126cd828281518110611f3857611f38614dee565b156126eb57604051631eb49d6d60e11b815260040160405180910390fd5b60008282815181106126ff576126ff614dee565b60200260200101516040516020016127179190614dd2565b60405160208183030381529060405261272f90614a81565b905060005b600085815260a360205260409020548110156127a857600085815260a36020526040902080548391908390811061276d5761276d614dee565b90600052602060002001540361279657604051636571d65f60e01b815260040160405180910390fd5b806127a081614abb565b915050612734565b50600084815260a3602090815260408220805460018101825590835291200155806127d281614abb565b9150506126af565b61281660405180602001604052806000815250604051806040016040528060168152602001600080516020615054833981519152815250613041565b80516001600160a01b03166000908152609d602052604090205460ff166128505760405163c1ef36f360e01b815260040160405180910390fd5b600082815260a26020526040812054900361287e5760405163b810dc5d60e01b815260040160405180910390fd5b609a5482036128a057604051631eb49d6d60e11b815260040160405180910390fd5b6110178282600001518360200151613828565b61291b84848080601f0160208091040260200160405190810160405280939291908181526020018383808284376000920191909152505060408051808201909152601181527041646452656d6f76654368616e6e656c7360781b602082015291506130419050565b6001600160a01b0382166000908152609d602052604090205460ff166129545760405163c1ef36f360e01b815260040160405180910390fd5b600081815260a2602052604081205490036129825760405163b810dc5d60e01b815260040160405180910390fd5b604051637997c1e760e11b81526001600160a01b0383169063f32f83ce90610b4490879087908690600401614a4d565b60008415806129bf575081155b806129d157506001600160a01b038416155b156129ef57604051630e52390960e41b815260040160405180910390fd5b60008686604051602001612a04929190614a71565b60408051601f198184030181529181528151602092830120600081815260a4909352908220600201549092509003612a4f57604051636ddd9da960e01b815260040160405180910390fd5b600081815260a4602052604090206004015460ff1615612a8257604051631eb49d6d60e11b815260040160405180910390fd5b60005b60a054811015612af957612add88888080601f016020809104026020016040519081016040528093929190818152602001838380828437600092019190915250506040518a9250610bb1915089908990602001614a71565b15612ae757600192505b80612af181614abb565b915050612a85565b505095945050505050565b612b4060405180602001604052806000815250604051806040016040528060168152602001600080516020615054833981519152815250613041565b609a548203612b6257604051631eb49d6d60e11b815260040160405180910390fd5b609d6000612b7360208401846140d6565b6001600160a01b0316815260208101919091526040016000205460ff16612bad5760405163c1ef36f360e01b815260040160405180910390fd5b600082815260a260205260408120549003612bdb5760405163b810dc5d60e01b815260040160405180910390fd5b600082612beb6020840184614f2f565b604051602001612bfd93929190614f75565b60408051601f1981840301815291815281516020928301206000868152609f909352908220909250905b8154811015612cdb57818181548110612c4257612c42614dee565b90600052602060002001548303612cc95781548290612c6390600190614f06565b81548110612c7357612c73614dee565b9060005260206000200154828281548110612c9057612c90614dee565b906000526020600020018190555081805480612cae57612cae614f19565b60019003818190600052602060002001600090559055612cdb565b80612cd381614abb565b915050612c27565b50612ce960208401846140d6565b6001600160a01b031663fa6d1adf85612d056020870187614f2f565b6040518463ffffffff1660e01b8152600401612d2393929190614f8f565b6020604051808303816000875af1158015612d42573d6000803e3d6000fd5b505050506040513d601f19601f82011682018060405250810190612d669190614fa9565b5050505050565b60a26020526000908152604090208054600182018054919291612d8f906149f0565b80601f0160208091040260200160405190810160405280929190818152602001828054612dbb906149f0565b8015612e085780601f10612ddd57610100808354040283529160200191612e08565b820191906000526020600020905b815481529060010190602001808311612deb57829003601f168201915b5050505050905082565b60a58181548110612e2257600080fd5b600091825260209091200154905081565b60a08181548110612e4357600080fd5b6000918252602090912001546001600160a01b0316905081565b600054610100900460ff1615808015612e7d5750600054600160ff909116105b80612e975750303b158015612e97575060005460ff166001145b612efa5760405162461bcd60e51b815260206004820152602e60248201527f496e697469616c697a61626c653a20636f6e747261637420697320616c72656160448201526d191e481a5b9a5d1a585b1a5e995960921b6064820152608401610e45565b6000805460ff191660011790558015612f1d576000805461ff0019166101001790555b612f25613a65565b612f2d613a65565b6097612f398782614b1a565b506098612f468682614b1a565b50609b80546001600160a01b0319166001600160a01b038516179055609c82905560005b8451811015612ff357612f97858281518110612f8857612f88614dee565b602002602001015160016135c6565b6001609e6000878481518110612faf57612faf614dee565b6020908102919091018101516001600160a01b03168252810191909152604001600020805460ff191691151591909117905580612feb81614abb565b915050612f6a565b508015610df5576000805461ff0019169055604051600181527f7f26b83ff96e1f2b6a682f133852f6798a09c465da95921460cefb38474024989060200160405180910390a1505050505050565b613049613747565b80613073575060995460ff161580156130735750613073823383604051602001610bb19190614dd2565b1561307c575050565b604051631eb49d6d60e11b815260040160405180910390fd5b6000805b60a054811015610bea5760a081815481106130b6576130b6614dee565b60009182526020909120015460405162169d5560e31b81526001600160a01b039091169062b4eaa8906130f190889088908890600401614fc2565b602060405180830381865afa15801561310e573d6000803e3d6000fd5b505050506040513d601f19601f820116820180604052508101906131329190614ff0565b1561313c57600191505b8061314681614abb565b915050613099565b8051819060021180613161575080516020105b156110175760405163354b556f60e11b815260040160405180910390fd5b600082828080601f0160208091040260200160405190810160405280939291908181526020018383808284376000920191909152505082519293505060029091109050806131ce575080516020105b156131ec5760405163354b556f60e11b815260040160405180910390fd5b805160005b81811015612d6657600360fc1b83828151811061321057613210614dee565b01602001516001600160f81b031916108061324e5750603d60f91b83828151811061323d5761323d614dee565b01602001516001600160f81b031916115b806132aa5750603960f81b83828151811061326b5761326b614dee565b01602001516001600160f81b0319161180156132aa5750606160f81b83828151811061329957613299614dee565b01602001516001600160f81b031916105b80156132db57508281815181106132c3576132c3614dee565b6020910101516001600160f81b031916601760f91b14155b801561330c57508281815181106132f4576132f4614dee565b6020910101516001600160f81b031916602d60f81b14155b801561333d575082818151811061332557613325614dee565b6020910101516001600160f81b031916605f60f81b14155b801561336e575082818151811061335657613356614dee565b6020910101516001600160f81b031916600160fd1b14155b1561338c5760405163f8fa659760e01b815260040160405180910390fd5b6001016131f1565b610ee2604051806020016040528060008152506040518060400160405280600581526020016427bbb732b960d91b815250613041565b7f4910fdfa16fed3260ed0e7147f7cc6da11a60208b5b9406d12a635614ffd91435460ff16156133fd576124c683613ad2565b826001600160a01b03166352d1902d6040518163ffffffff1660e01b8152600401602060405180830381865afa925050508015613457575060408051601f3d908101601f1916820190925261345491810190614fa9565b60015b6134ba5760405162461bcd60e51b815260206004820152602e60248201527f45524331393637557067726164653a206e657720696d706c656d656e7461746960448201526d6f6e206973206e6f74205555505360901b6064820152608401610e45565b60008051602061503483398151915281146135295760405162461bcd60e51b815260206004820152602960248201527f45524331393637557067726164653a20756e737570706f727465642070726f786044820152681a58589b195555525160ba1b6064820152608401610e45565b506124c6838383613b6e565b6040516301ffc9a760e01b815263e5e65adf60e01b60048201526001600160a01b038216906301ffc9a790602401602060405180830381865afa158015613580573d6000803e3d6000fd5b505050506040513d601f19601f820116820180604052508101906135a49190614ff0565b1515600003610ee257604051636d9250f160e11b815260040160405180910390fd5b6001600160a01b0382166000908152609d60205260409020805460ff191682158015919091179091556136445760a080546001810182556000919091527f78fdc8d422c49ced035a9edf18d00d3c6a8d81df210f3e5e448e045e77b41e880180546001600160a01b0384166001600160a01b03199091161790555050565b60005b60a0548110156124c65760a0818154811061366457613664614dee565b6000918252602090912001546001600160a01b03908116908416036137355760a0805461369390600190614f06565b815481106136a3576136a3614dee565b60009182526020909120015460a080546001600160a01b0390921691839081106136cf576136cf614dee565b9060005260206000200160006101000a8154816001600160a01b0302191690836001600160a01b0316021790555060a080548061370e5761370e614f19565b600082815260209020810160001990810180546001600160a01b0319169055019055505050565b8061373f81614abb565b915050613647565b600033609b54609c546040516331a9108f60e11b815260048101919091526001600160a01b039283169290911690636352211e90602401602060405180830381865afa15801561379b573d6000803e3d6000fd5b505050506040513d601f19601f820116820180604052508101906137bf9190614ea6565b6001600160a01b031614905090565b6000816040516020016137e19190614dd2565b60405160208183030381529060405280519060200120836040516020016138089190614dd2565b604051602081830303815290604052805190602001201490505b92915050565b6000838260405160200161383d92919061500d565b60408051601f1981840301815282825280516020918201206000888152609f8352838120805480850287018501909552848652919550939290918301828280156138a657602002820191906000526020600020905b815481526020019060010190808311613892575b5050505050905060005b815181101561390457828282815181106138cc576138cc614dee565b6020026020010151036138f25760405163c5c9ad6760e01b815260040160405180910390fd5b806138fc81614abb565b9150506138b0565b506000858152609f602090815260408083208054600181018255908452919092200183905551633be2f95d60e21b81526001600160a01b0385169063ef8be5749061395590889087906004016148d8565b6020604051808303816000875af1158015613974573d6000803e3d6000fd5b505050506040513d601f19601f82011682018060405250810190610df59190614fa9565b6004815110156139dd5760405162461bcd60e51b815260206004820152601060248201526f1d5b9a185b991b1959081c995d995c9d60821b6044820152606401610e45565b602081015163b1b7848f60e01b6001600160e01b0319821601613a5c57604080518082018252600e81526d70616e69636b65643a2030785f5f60901b602082018181526024860151600481811c600f908116603090810160081b9184160117909317909152925162461bcd60e51b8152919291610e4591849101613dd4565b81518060208401fd5b600054610100900460ff16613ad05760405162461bcd60e51b815260206004820152602b60248201527f496e697469616c697a61626c653a20636f6e7472616374206973206e6f74206960448201526a6e697469616c697a696e6760a81b6064820152608401610e45565b565b6001600160a01b0381163b613b3f5760405162461bcd60e51b815260206004820152602d60248201527f455243313936373a206e657720696d706c656d656e746174696f6e206973206e60448201526c1bdd08184818dbdb9d1c9858dd609a1b6064820152608401610e45565b60008051602061503483398151915280546001600160a01b0319166001600160a01b0392909216919091179055565b613b7783613b99565b600082511180613b845750805b156124c657613b938383613bd9565b50505050565b613ba281613ad2565b6040516001600160a01b038216907fbc7cd75a20ee27fd9adebab32041f755214dbc6bffa90cc0225b39da2e5c2d3b90600090a250565b60606001600160a01b0383163b613c415760405162461bcd60e51b815260206004820152602660248201527f416464726573733a2064656c65676174652063616c6c20746f206e6f6e2d636f6044820152651b9d1c9858dd60d21b6064820152608401610e45565b600080846001600160a01b031684604051613c5c9190614dd2565b600060405180830381855af49150503d8060008114613c97576040519150601f19603f3d011682016040523d82523d6000602084013e613c9c565b606091505b5091509150613cc4828260405180606001604052806027815260200161507460279139613ccd565b95945050505050565b60608315613cdc575081613ce6565b613ce68383613ced565b9392505050565b815115613cfd5781518083602001fd5b8060405162461bcd60e51b8152600401610e459190613dd4565b508054613d23906149f0565b6000825580601f10613d33575050565b601f016020900490600052602060002090810190610ee29190613d6b565b5080546000825590600052602060002090810190610ee291905b5b80821115613d805760008155600101613d6c565b5090565b60005b83811015613d9f578181015183820152602001613d87565b50506000910152565b60008151808452613dc0816020860160208601613d84565b601f01601f19169290920160200192915050565b602081526000613ce66020830184613da8565b600060208284031215613df957600080fd5b5035919050565b60a081526000613e1360a0830188613da8565b8281036020840152613e258188613da8565b604084019690965250506060810192909252151560809091015292915050565b60008083601f840112613e5757600080fd5b5081356001600160401b03811115613e6e57600080fd5b602083019150836020828501011115613e8657600080fd5b9250929050565b6001600160a01b0381168114610ee257600080fd5b8035613ead81613e8d565b919050565b60008060008060608587031215613ec857600080fd5b84356001600160401b03811115613ede57600080fd5b613eea87828801613e45565b9095509350506020850135613efe81613e8d565b9396929550929360400135925050565b600080600060408486031215613f2357600080fd5b8335613f2e81613e8d565b925060208401356001600160401b03811115613f4957600080fd5b613f5586828701613e45565b9497909650939450505050565b634e487b7160e01b600052604160045260246000fd5b604051601f8201601f191681016001600160401b0381118282101715613fa057613fa0613f62565b604052919050565b60006001600160401b03821115613fc157613fc1613f62565b50601f01601f191660200190565b600082601f830112613fe057600080fd5b8135613ff3613fee82613fa8565b613f78565b81815284602083860101111561400857600080fd5b816020850160208301376000918101602001919091529392505050565b6000806040838503121561403857600080fd5b8235915060208301356001600160401b0381111561405557600080fd5b61406185828601613fcf565b9150509250929050565b6000806000806040858703121561408157600080fd5b84356001600160401b038082111561409857600080fd5b6140a488838901613e45565b909650945060208701359150808211156140bd57600080fd5b506140ca87828801613e45565b95989497509550505050565b6000602082840312156140e857600080fd5b8135613ce681613e8d565b6020808252825182820181905260009190848201906040850190845b8181101561412b5783518352928401929184019160010161410f565b50909695505050505050565b8015158114610ee257600080fd5b6000806040838503121561415857600080fd5b823561416381613e8d565b9150602083013561417381614137565b809150509250929050565b60006020828403121561419057600080fd5b8135613ce681614137565b6020808252825182820181905260009190848201906040850190845b8181101561412b5783516001600160a01b0316835292840192918401916001016141b7565b600080604083850312156141ef57600080fd5b82356141fa81613e8d565b915060208301356001600160401b0381111561405557600080fd5b6000806040838503121561422857600080fd5b823561423381613e8d565b9150602083013561417381613e8d565b60006001600160401b0382111561425c5761425c613f62565b5060051b60200190565b6000806000806060858703121561427c57600080fd5b84356001600160401b038082111561429357600080fd5b61429f88838901613e45565b90965094506020915086820135818111156142b957600080fd5b6142c589828a01613fcf565b9450506040870135818111156142da57600080fd5b87019050601f810188136142ed57600080fd5b80356142fb613fee82614243565b81815260059190911b8201830190838101908a83111561431a57600080fd5b928401925b828410156143385783358252928401929084019061431f565b979a9699509497505050505050565b60008060006040848603121561435c57600080fd5b83356001600160401b0381111561437257600080fd5b61437e86828701613e45565b909450925050602084013561439281614137565b809150509250925092565b602081526000825160a060208401526143b960c0840182613da8565b90506020840151601f198483030160408501526143d68282613da8565b91505060408401516060840152606084015160808401526080840151151560a08401528091505092915050565b8051825260006020820151604060208501526144226040850182613da8565b949350505050565b6000602080830181845280855180835260408601915060408160051b870101925083870160005b8281101561447f57603f1988860301845261446d858351614403565b94509285019290850190600101614451565b5092979650505050505050565b602081526000613ce66020830184614403565b6000602082840312156144b157600080fd5b81356001600160401b038111156144c757600080fd5b61442284828501613fcf565b600082601f8301126144e457600080fd5b813560206144f4613fee83614243565b82815260059290921b8401810191818101908684111561451357600080fd5b8286015b848110156145525780356001600160401b038111156145365760008081fd5b6145448986838b0101613fcf565b845250918301918301614517565b509695505050505050565b60006040828403121561456f57600080fd5b604051604081016001600160401b03828210818311171561459257614592613f62565b81604052829350843591506145a682613e8d565b908252602084013590808211156145bc57600080fd5b506145c985828601613fcf565b6020830152505092915050565b600080600080606085870312156145ec57600080fd5b84356001600160401b038082111561460357600080fd5b61460f88838901613e45565b909650945060209150868201358181111561462957600080fd5b61463589828a016144d3565b94505060408701358181111561464a57600080fd5b8701601f8101891361465b57600080fd5b8035614669613fee82614243565b81815260059190911b8201840190848101908b83111561468857600080fd5b8584015b838110156146c0578035868111156146a45760008081fd5b6146b28e898389010161455d565b84525091860191860161468c565b50989b979a50959850505050505050565b600080604083850312156146e457600080fd5b8235915060208301356001600160401b0381111561470157600080fd5b614061858286016144d3565b6000806020838503121561472057600080fd5b82356001600160401b038082111561473757600080fd5b818501915085601f83011261474b57600080fd5b81358181111561475a57600080fd5b8660208260051b850101111561476f57600080fd5b60209290920196919550909350505050565b6000602080830181845280855180835260408601915060408160051b870101925083870160005b8281101561447f57603f198886030184526147c4858351613da8565b945092850192908501906001016147a8565b600080604083850312156147e957600080fd5b8235915060208301356001600160401b0381111561480657600080fd5b6140618582860161455d565b60008060008060006060868803121561482a57600080fd5b85356001600160401b038082111561484157600080fd5b61484d89838a01613e45565b90975095506020880135915061486282613e8d565b9093506040870135908082111561487857600080fd5b5061488588828901613e45565b969995985093965092949392505050565b600080604083850312156148a957600080fd5b8235915060208301356001600160401b038111156148c657600080fd5b83016040818603121561417357600080fd5b8281526040602082015260006144226040830184613da8565b600080600080600060a0868803121561490957600080fd5b85356001600160401b038082111561492057600080fd5b61492c89838a01613fcf565b965060209150818801358181111561494357600080fd5b61494f8a828b01613fcf565b96505060408801358181111561496457600080fd5b88019050601f8101891361497757600080fd5b8035614985613fee82614243565b81815260059190911b8201830190838101908b8311156149a457600080fd5b928401925b828410156149cb5783356149bc81613e8d565b825292840192908401906149a9565b80975050505050506149df60608701613ea2565b949793965091946080013592915050565b600181811c90821680614a0457607f821691505b602082108103611bbc57634e487b7160e01b600052602260045260246000fd5b81835281816020850137506000828201602090810191909152601f909101601f19169091010190565b604081526000614a61604083018587614a24565b9050826020830152949350505050565b8183823760009101908152919050565b80516020808301519190811015611bbc5760001960209190910360031b1b16919050565b634e487b7160e01b600052601160045260246000fd5b600060018201614acd57614acd614aa5565b5060010190565b601f8211156124c657600081815260208120601f850160051c81016020861015614afb5750805b601f850160051c820191505b81811015610df557828155600101614b07565b81516001600160401b03811115614b3357614b33613f62565b614b4781614b4184546149f0565b84614ad4565b602080601f831160018114614b7c5760008415614b645750858301515b600019600386901b1c1916600185901b178555610df5565b600085815260208120601f198616915b82811015614bab57888601518255948401946001909101908401614b8c565b5085821015614bc95787850151600019600388901b60f8161c191681555b5050505050600190811b01905550565b60008154614be6816149f0565b808552602060018381168015614c035760018114614c1d57614c4b565b60ff1985168884015283151560051b880183019550614c4b565b866000528260002060005b85811015614c435781548a8201860152908301908401614c28565b890184019650505b505050505092915050565b604081526000614c696040830185613da8565b8281036020840152613cc48185614bd9565b6001600160401b03831115614c9257614c92613f62565b614ca683614ca083546149f0565b83614ad4565b6000601f841160018114614cda5760008515614cc25750838201355b600019600387901b1c1916600186901b178355612d66565b600083815260209020601f19861690835b82811015614d0b5786850135825560209485019460019092019101614ceb565b5086821015614d285760001960f88860031b161c19848701351681555b505060018560011b0183555050505050565b6020808252602c908201527f46756e6374696f6e206d7573742062652063616c6c6564207468726f7567682060408201526b19195b1959d85d1958d85b1b60a21b606082015260800190565b6020808252602c908201527f46756e6374696f6e206d7573742062652063616c6c6564207468726f7567682060408201526b6163746976652070726f787960a01b606082015260800190565b60008251614de4818460208701613d84565b9190910192915050565b634e487b7160e01b600052603260045260246000fd5b604081526000614e176040830185613da8565b90508260208301529392505050565b8082018082111561382257613822614aa5565b600060208284031215614e4b57600080fd5b81516001600160401b03811115614e6157600080fd5b8201601f81018413614e7257600080fd5b8051614e80613fee82613fa8565b818152856020838501011115614e9557600080fd5b613cc4826020830160208601613d84565b600060208284031215614eb857600080fd5b8151613ce681613e8d565b604081526000614ed7604083018587614a24565b8281036020840152614ee98185614bd9565b9695505050505050565b602081526000613ce66020830184614bd9565b8181038181111561382257613822614aa5565b634e487b7160e01b600052603160045260246000fd5b6000808335601e19843603018112614f4657600080fd5b8301803591506001600160401b03821115614f6057600080fd5b602001915036819003821315613e8657600080fd5b838152818360208301376000910160200190815292915050565b838152604060208201526000613cc4604083018486614a24565b600060208284031215614fbb57600080fd5b5051919050565b606081526000614fd56060830186613da8565b6001600160a01b039490941660208301525060400152919050565b60006020828403121561500257600080fd5b8151613ce681614137565b82815260008251615025816020850160208701613d84565b91909101602001939250505056fe360894a13ba1a3210667c828492db98dca3e2076cc3735a920a3ca505d382bbc4d6f6469667953706163655065726d697373696f6e7300000000000000000000416464726573733a206c6f772d6c6576656c2064656c65676174652063616c6c206661696c6564a2646970667358221220184a506512e98a423b39ce9052f46b523a407bd26c5ba8aaf4c56cc92a98d7c064736f6c63430008110033",
    "linkReferences": {}
  },
  "methodIdentifiers": {
    "addPermissionsToRole(uint256,string[])": "b7515761",
    "addRoleToChannel(string,address,uint256)": "1dea616a",
    "addRoleToEntitlement(uint256,(address,bytes))": "ba201ba8",
    "channels(uint256)": "e5949b5d",
    "channelsByHash(bytes32)": "129ab3c8",
    "createChannel(string,string,uint256[])": "51f83cea",
    "createRole(string,string[],(address,bytes)[])": "8fcd793d",
    "defaultEntitlements(address)": "fa6433c5",
    "disabled()": "ee070805",
    "entitlements(uint256)": "f28f9b56",
    "getChannelByHash(bytes32)": "703511f8",
    "getChannels()": "9575f6ac",
    "getEntitlementByModuleType(string)": "870b9464",
    "getEntitlementIdsByRoleId(uint256)": "42486e49",
    "getEntitlements()": "487dc38c",
    "getPermissionsByRoleId(uint256)": "b4264233",
    "getRoleById(uint256)": "784c872b",
    "getRoles()": "71061398",
    "hasEntitlement(address)": "7f8d06d0",
    "initialize(string,string,address[],address,uint256)": "f3ce6a5b",
    "isEntitledToChannel(string,address,string)": "cea632bc",
    "isEntitledToSpace(address,string)": "20759f9e",
    "multicall(bytes[])": "ac9650d8",
    "name()": "06fdde03",
    "networkId()": "9025e64c",
    "owner()": "8da5cb5b",
    "ownerRoleId()": "d1a6a961",
    "proxiableUUID()": "52d1902d",
    "removePermissionsFromRole(uint256,string[])": "9a8e4c3e",
    "removeRole(uint256)": "92691821",
    "removeRoleFromChannel(string,address,uint256)": "baaf3d57",
    "removeRoleFromEntitlement(uint256,(address,bytes))": "dba81864",
    "roleCount()": "ddf96358",
    "rolesById(uint256)": "e5894ef4",
    "setChannelAccess(string,bool)": "5de151b8",
    "setEntitlementModule(address,bool)": "441555e5",
    "setOwnerRoleId(uint256)": "4999ab16",
    "setSpaceAccess(bool)": "446dc22e",
    "token()": "fc0c546a",
    "tokenId()": "17d70f7c",
    "updateChannel(string,string)": "34a1dd26",
    "updateRole(uint256,string)": "32e704cc",
    "upgradeEntitlement(address,address)": "519607f2",
    "upgradeTo(address)": "3659cfe6",
    "upgradeToAndCall(address,bytes)": "4f1ef286"
  },
  "id": 13
}