{
  "abi": [
    {
      "inputs": [],
      "name": "AddRoleFailed",
      "type": "error"
    },
    {
      "inputs": [],
      "name": "ChannelAlreadyRegistered",
      "type": "error"
    },
    {
      "inputs": [],
      "name": "ChannelDoesNotExist",
      "type": "error"
    },
    {
      "inputs": [],
      "name": "EntitlementAlreadyExists",
      "type": "error"
    },
    {
      "inputs": [],
      "name": "EntitlementAlreadyWhitelisted",
      "type": "error"
    },
    {
      "inputs": [],
      "name": "EntitlementModuleNotSupported",
      "type": "error"
    },
    {
      "inputs": [],
      "name": "EntitlementNotWhitelisted",
      "type": "error"
    },
    {
      "inputs": [],
      "name": "InvalidParameters",
      "type": "error"
    },
    {
      "inputs": [],
      "name": "MissingOwnerPermission",
      "type": "error"
    },
    {
      "inputs": [],
      "name": "NotAllowed",
      "type": "error"
    },
    {
      "inputs": [],
      "name": "OwnerPermissionNotAllowed",
      "type": "error"
    },
    {
      "inputs": [],
      "name": "PermissionAlreadyExists",
      "type": "error"
    },
    {
      "inputs": [],
      "name": "RoleDoesNotExist",
      "type": "error"
    },
    {
      "inputs": [],
      "name": "RoleIsAssignedToEntitlement",
      "type": "error"
    },
    {
      "anonymous": false,
      "inputs": [
        {
          "indexed": false,
          "internalType": "address",
          "name": "previousAdmin",
          "type": "address"
        },
        {
          "indexed": false,
          "internalType": "address",
          "name": "newAdmin",
          "type": "address"
        }
      ],
      "name": "AdminChanged",
      "type": "event"
    },
    {
      "anonymous": false,
      "inputs": [
        {
          "indexed": true,
          "internalType": "address",
          "name": "beacon",
          "type": "address"
        }
      ],
      "name": "BeaconUpgraded",
      "type": "event"
    },
    {
      "anonymous": false,
      "inputs": [
        {
          "indexed": false,
          "internalType": "uint8",
          "name": "version",
          "type": "uint8"
        }
      ],
      "name": "Initialized",
      "type": "event"
    },
    {
      "anonymous": false,
      "inputs": [
        {
          "indexed": true,
          "internalType": "address",
          "name": "previousOwner",
          "type": "address"
        },
        {
          "indexed": true,
          "internalType": "address",
          "name": "newOwner",
          "type": "address"
        }
      ],
      "name": "OwnershipTransferred",
      "type": "event"
    },
    {
      "anonymous": false,
      "inputs": [
        {
          "indexed": true,
          "internalType": "address",
          "name": "implementation",
          "type": "address"
        }
      ],
      "name": "Upgraded",
      "type": "event"
    },
    {
      "inputs": [
        {
          "internalType": "uint256",
          "name": "_roleId",
          "type": "uint256"
        },
        {
          "internalType": "string",
          "name": "_permission",
          "type": "string"
        }
      ],
      "name": "addPermissionToRole",
      "outputs": [],
      "stateMutability": "nonpayable",
      "type": "function"
    },
    {
      "inputs": [
        {
          "internalType": "string",
          "name": "_channelId",
          "type": "string"
        },
        {
          "internalType": "address",
          "name": "_entitlement",
          "type": "address"
        },
        {
          "internalType": "uint256",
          "name": "_roleId",
          "type": "uint256"
        }
      ],
      "name": "addRoleToChannel",
      "outputs": [],
      "stateMutability": "nonpayable",
      "type": "function"
    },
    {
      "inputs": [
        {
          "internalType": "uint256",
          "name": "_roleId",
          "type": "uint256"
        },
        {
          "internalType": "address",
          "name": "_entitlement",
          "type": "address"
        },
        {
          "internalType": "bytes",
          "name": "_entitlementData",
          "type": "bytes"
        }
      ],
      "name": "addRoleToEntitlement",
      "outputs": [],
      "stateMutability": "nonpayable",
      "type": "function"
    },
    {
      "inputs": [
        {
          "internalType": "uint256",
          "name": "",
          "type": "uint256"
        }
      ],
      "name": "channels",
      "outputs": [
        {
          "internalType": "bytes32",
          "name": "",
          "type": "bytes32"
        }
      ],
      "stateMutability": "view",
      "type": "function"
    },
    {
      "inputs": [
        {
          "internalType": "bytes32",
          "name": "",
          "type": "bytes32"
        }
      ],
      "name": "channelsByHash",
      "outputs": [
        {
          "internalType": "string",
          "name": "name",
          "type": "string"
        },
        {
          "internalType": "bytes32",
          "name": "channelId",
          "type": "bytes32"
        },
        {
          "internalType": "uint256",
          "name": "createdAt",
          "type": "uint256"
        },
        {
          "internalType": "bool",
          "name": "disabled",
          "type": "bool"
        }
      ],
      "stateMutability": "view",
      "type": "function"
    },
    {
      "inputs": [
        {
          "internalType": "string",
          "name": "channelName",
          "type": "string"
        },
        {
          "internalType": "string",
          "name": "channelNetworkId",
          "type": "string"
        },
        {
          "internalType": "uint256[]",
          "name": "roleIds",
          "type": "uint256[]"
        }
      ],
      "name": "createChannel",
      "outputs": [
        {
          "internalType": "bytes32",
          "name": "",
          "type": "bytes32"
        }
      ],
      "stateMutability": "nonpayable",
      "type": "function"
    },
    {
      "inputs": [
        {
          "internalType": "string",
          "name": "_roleName",
          "type": "string"
        },
        {
          "internalType": "string[]",
          "name": "_permissions",
          "type": "string[]"
        }
      ],
      "name": "createRole",
      "outputs": [
        {
          "internalType": "uint256",
          "name": "",
          "type": "uint256"
        }
      ],
      "stateMutability": "nonpayable",
      "type": "function"
    },
    {
      "inputs": [],
      "name": "disabled",
      "outputs": [
        {
          "internalType": "bool",
          "name": "",
          "type": "bool"
        }
      ],
      "stateMutability": "view",
      "type": "function"
    },
    {
      "inputs": [
        {
          "internalType": "uint256",
          "name": "",
          "type": "uint256"
        }
      ],
      "name": "entitlements",
      "outputs": [
        {
          "internalType": "address",
          "name": "",
          "type": "address"
        }
      ],
      "stateMutability": "view",
      "type": "function"
    },
    {
      "inputs": [
        {
          "internalType": "bytes32",
          "name": "_channelHash",
          "type": "bytes32"
        }
      ],
      "name": "getChannelByHash",
      "outputs": [
        {
          "components": [
            {
              "internalType": "string",
              "name": "name",
              "type": "string"
            },
            {
              "internalType": "bytes32",
              "name": "channelId",
              "type": "bytes32"
            },
            {
              "internalType": "uint256",
              "name": "createdAt",
              "type": "uint256"
            },
            {
              "internalType": "bool",
              "name": "disabled",
              "type": "bool"
            }
          ],
          "internalType": "struct DataTypes.Channel",
          "name": "",
          "type": "tuple"
        }
      ],
      "stateMutability": "view",
      "type": "function"
    },
    {
      "inputs": [],
      "name": "getEntitlements",
      "outputs": [
        {
          "internalType": "address[]",
          "name": "",
          "type": "address[]"
        }
      ],
      "stateMutability": "view",
      "type": "function"
    },
    {
      "inputs": [
        {
          "internalType": "uint256",
          "name": "_roleId",
          "type": "uint256"
        }
      ],
      "name": "getPermissionsByRoleId",
      "outputs": [
        {
          "internalType": "bytes32[]",
          "name": "",
          "type": "bytes32[]"
        }
      ],
      "stateMutability": "view",
      "type": "function"
    },
    {
      "inputs": [
        {
          "internalType": "uint256",
          "name": "_roleId",
          "type": "uint256"
        }
      ],
      "name": "getRoleById",
      "outputs": [
        {
          "components": [
            {
              "internalType": "uint256",
              "name": "roleId",
              "type": "uint256"
            },
            {
              "internalType": "string",
              "name": "name",
              "type": "string"
            }
          ],
          "internalType": "struct DataTypes.Role",
          "name": "",
          "type": "tuple"
        }
      ],
      "stateMutability": "view",
      "type": "function"
    },
    {
      "inputs": [],
      "name": "getRoles",
      "outputs": [
        {
          "components": [
            {
              "internalType": "uint256",
              "name": "roleId",
              "type": "uint256"
            },
            {
              "internalType": "string",
              "name": "name",
              "type": "string"
            }
          ],
          "internalType": "struct DataTypes.Role[]",
          "name": "",
          "type": "tuple[]"
        }
      ],
      "stateMutability": "view",
      "type": "function"
    },
    {
      "inputs": [
        {
          "internalType": "address",
          "name": "",
          "type": "address"
        }
      ],
      "name": "hasEntitlement",
      "outputs": [
        {
          "internalType": "bool",
          "name": "",
          "type": "bool"
        }
      ],
      "stateMutability": "view",
      "type": "function"
    },
    {
      "inputs": [
        {
          "internalType": "string",
          "name": "_name",
          "type": "string"
        },
        {
          "internalType": "string",
          "name": "_networkId",
          "type": "string"
        },
        {
          "internalType": "address[]",
          "name": "_entitlements",
          "type": "address[]"
        }
      ],
      "name": "initialize",
      "outputs": [],
      "stateMutability": "nonpayable",
      "type": "function"
    },
    {
      "inputs": [
        {
          "internalType": "address",
          "name": "_user",
          "type": "address"
        },
        {
          "internalType": "string",
          "name": "_permission",
          "type": "string"
        }
      ],
      "name": "isEntitled",
      "outputs": [
        {
          "internalType": "bool",
          "name": "_entitled",
          "type": "bool"
        }
      ],
      "stateMutability": "view",
      "type": "function"
    },
    {
      "inputs": [
        {
          "internalType": "string",
          "name": "_channelId",
          "type": "string"
        },
        {
          "internalType": "address",
          "name": "_user",
          "type": "address"
        },
        {
          "internalType": "string",
          "name": "_permission",
          "type": "string"
        }
      ],
      "name": "isEntitled",
      "outputs": [
        {
          "internalType": "bool",
          "name": "_entitled",
          "type": "bool"
        }
      ],
      "stateMutability": "view",
      "type": "function"
    },
    {
      "inputs": [],
      "name": "name",
      "outputs": [
        {
          "internalType": "string",
          "name": "",
          "type": "string"
        }
      ],
      "stateMutability": "view",
      "type": "function"
    },
    {
      "inputs": [],
      "name": "networkId",
      "outputs": [
        {
          "internalType": "string",
          "name": "",
          "type": "string"
        }
      ],
      "stateMutability": "view",
      "type": "function"
    },
    {
      "inputs": [],
      "name": "owner",
      "outputs": [
        {
          "internalType": "address",
          "name": "",
          "type": "address"
        }
      ],
      "stateMutability": "view",
      "type": "function"
    },
    {
      "inputs": [],
      "name": "ownerRoleId",
      "outputs": [
        {
          "internalType": "uint256",
          "name": "",
          "type": "uint256"
        }
      ],
      "stateMutability": "view",
      "type": "function"
    },
    {
      "inputs": [],
      "name": "proxiableUUID",
      "outputs": [
        {
          "internalType": "bytes32",
          "name": "",
          "type": "bytes32"
        }
      ],
      "stateMutability": "view",
      "type": "function"
    },
    {
      "inputs": [
        {
          "internalType": "uint256",
          "name": "_roleId",
          "type": "uint256"
        },
        {
          "internalType": "string",
          "name": "_permission",
          "type": "string"
        }
      ],
      "name": "removePermissionFromRole",
      "outputs": [],
      "stateMutability": "nonpayable",
      "type": "function"
    },
    {
      "inputs": [
        {
          "internalType": "uint256",
          "name": "_roleId",
          "type": "uint256"
        }
      ],
      "name": "removeRole",
      "outputs": [],
      "stateMutability": "nonpayable",
      "type": "function"
    },
    {
      "inputs": [
        {
          "internalType": "string",
          "name": "_channelId",
          "type": "string"
        },
        {
          "internalType": "address",
          "name": "_entitlement",
          "type": "address"
        },
        {
          "internalType": "uint256",
          "name": "_roleId",
          "type": "uint256"
        }
      ],
      "name": "removeRoleFromChannel",
      "outputs": [],
      "stateMutability": "nonpayable",
      "type": "function"
    },
    {
      "inputs": [
        {
          "internalType": "uint256",
          "name": "_roleId",
          "type": "uint256"
        },
        {
          "internalType": "address",
          "name": "_entitlement",
          "type": "address"
        },
        {
          "internalType": "bytes",
          "name": "_entitlementData",
          "type": "bytes"
        }
      ],
      "name": "removeRoleFromEntitlement",
      "outputs": [],
      "stateMutability": "nonpayable",
      "type": "function"
    },
    {
      "inputs": [],
      "name": "renounceOwnership",
      "outputs": [],
      "stateMutability": "nonpayable",
      "type": "function"
    },
    {
      "inputs": [],
      "name": "roleId",
      "outputs": [
        {
          "internalType": "uint256",
          "name": "",
          "type": "uint256"
        }
      ],
      "stateMutability": "view",
      "type": "function"
    },
    {
      "inputs": [
        {
          "internalType": "uint256",
          "name": "",
          "type": "uint256"
        }
      ],
      "name": "rolesById",
      "outputs": [
        {
          "internalType": "uint256",
          "name": "roleId",
          "type": "uint256"
        },
        {
          "internalType": "string",
          "name": "name",
          "type": "string"
        }
      ],
      "stateMutability": "view",
      "type": "function"
    },
    {
      "inputs": [
        {
          "internalType": "bool",
          "name": "_disabled",
          "type": "bool"
        }
      ],
      "name": "setAccess",
      "outputs": [],
      "stateMutability": "nonpayable",
      "type": "function"
    },
    {
      "inputs": [
        {
          "internalType": "string",
          "name": "_channelId",
          "type": "string"
        },
        {
          "internalType": "bool",
          "name": "_disabled",
          "type": "bool"
        }
      ],
      "name": "setChannelAccess",
      "outputs": [],
      "stateMutability": "nonpayable",
      "type": "function"
    },
    {
      "inputs": [
        {
          "internalType": "address",
          "name": "_entitlement",
          "type": "address"
        },
        {
          "internalType": "bool",
          "name": "_whitelist",
          "type": "bool"
        }
      ],
      "name": "setEntitlement",
      "outputs": [],
      "stateMutability": "nonpayable",
      "type": "function"
    },
    {
      "inputs": [
        {
          "internalType": "uint256",
          "name": "_roleId",
          "type": "uint256"
        }
      ],
      "name": "setOwnerRoleId",
      "outputs": [],
      "stateMutability": "nonpayable",
      "type": "function"
    },
    {
      "inputs": [
        {
          "internalType": "address",
          "name": "newOwner",
          "type": "address"
        }
      ],
      "name": "transferOwnership",
      "outputs": [],
      "stateMutability": "nonpayable",
      "type": "function"
    },
    {
      "inputs": [
        {
          "internalType": "uint256",
          "name": "_roleId",
          "type": "uint256"
        },
        {
          "internalType": "string",
          "name": "_roleName",
          "type": "string"
        }
      ],
      "name": "updateRole",
      "outputs": [],
      "stateMutability": "nonpayable",
      "type": "function"
    },
    {
      "inputs": [
        {
          "internalType": "address",
          "name": "newImplementation",
          "type": "address"
        }
      ],
      "name": "upgradeTo",
      "outputs": [],
      "stateMutability": "nonpayable",
      "type": "function"
    },
    {
      "inputs": [
        {
          "internalType": "address",
          "name": "newImplementation",
          "type": "address"
        },
        {
          "internalType": "bytes",
          "name": "data",
          "type": "bytes"
        }
      ],
      "name": "upgradeToAndCall",
      "outputs": [],
      "stateMutability": "payable",
      "type": "function"
    }
  ],
  "bytecode": {
    "object": "0x60a06040523060805234801561001457600080fd5b50608051613c6561004c60003960008181610f2a01528181610f73015281816113c30152818161140301526117ad0152613c656000f3fe6080604052600436106102255760003560e01c80637106139811610123578063baaf3d57116100ab578063ee0708051161006f578063ee0708051461069e578063f28f9b56146106b8578063f2fde38b146106d8578063f3b96ab4146106f8578063f740bb6b1461071857600080fd5b8063baaf3d57146105fa578063ca2759311461061a578063d1a6a9611461063a578063e5894ef414610650578063e5949b5d1461067e57600080fd5b80637f8d06d0116100f25780637f8d06d0146105365780638da5cb5b146105665780639025e64c1461059857806392691821146105ad578063b4264233146105cd57600080fd5b806371061398146104bc578063715018a6146104de57806373368a48146104f3578063784c872b1461050957600080fd5b80633ace20c1116101b157806352d1902d1161017557806352d1902d1461041a57806359ce7d4c1461042f5780635de151b81461044f57806366fb345c1461046f578063703511f81461048f57600080fd5b80633ace20c114610385578063487dc38c146103a55780634999ab16146103c75780634f1ef286146103e757806351f83cea146103fa57600080fd5b806320158494116101f857806320158494146102c75780632f8d1925146102f757806332e704cc14610325578063333f1b11146103455780633659cfe61461036557600080fd5b806306fdde031461022a5780630ccbfa3914610255578063129ab3c8146102775780631dea616a146102a7575b600080fd5b34801561023657600080fd5b5061023f610738565b60405161024c9190612f19565b60405180910390f35b34801561026157600080fd5b50610275610270366004612f90565b6107c6565b005b34801561028357600080fd5b50610297610292366004612fe9565b6109db565b60405161024c9493929190613002565b3480156102b357600080fd5b506102756102c2366004613033565b610a90565b3480156102d357600080fd5b506102e76102e236600461308e565b610bc1565b604051901515815260200161024c565b34801561030357600080fd5b506103176103123660046131b8565b610c37565b60405190815260200161024c565b34801561033157600080fd5b50610275610340366004613291565b610dd0565b34801561035157600080fd5b506102e76103603660046132d7565b610e9e565b34801561037157600080fd5b5061027561038036600461335a565b610f20565b34801561039157600080fd5b506102756103a0366004613375565b611008565b3480156103b157600080fd5b506103ba611223565b60405161024c91906133cb565b3480156103d357600080fd5b506102756103e2366004612fe9565b611285565b6102756103f5366004613418565b6113b9565b34801561040657600080fd5b5061031761041536600461344f565b611489565b34801561042657600080fd5b506103176117a0565b34801561043b57600080fd5b5061027561044a36600461353a565b611853565b34801561045b57600080fd5b5061027561046a366004613557565b61189c565b34801561047b57600080fd5b5061027561048a366004613291565b611962565b34801561049b57600080fd5b506104af6104aa366004612fe9565b611add565b60405161024c91906135ad565b3480156104c857600080fd5b506104d1611bd5565b60405161024c919061361c565b3480156104ea57600080fd5b50610275611d43565b3480156104ff57600080fd5b5061031760d05481565b34801561051557600080fd5b50610529610524366004612fe9565b611d57565b60405161024c919061367e565b34801561054257600080fd5b506102e761055136600461335a565b60cd6020526000908152604090205460ff1681565b34801561057257600080fd5b506033546001600160a01b03165b6040516001600160a01b03909116815260200161024c565b3480156105a457600080fd5b5061023f611e2d565b3480156105b957600080fd5b506102756105c8366004612fe9565b611e3a565b3480156105d957600080fd5b506105ed6105e8366004612fe9565b611f2b565b60405161024c9190613691565b34801561060657600080fd5b50610275610615366004613033565b611f8d565b34801561062657600080fd5b506102756106353660046136c9565b612086565b34801561064657600080fd5b5061031760cc5481565b34801561065c57600080fd5b5061067061066b366004612fe9565b6121ff565b60405161024c92919061379e565b34801561068a57600080fd5b50610317610699366004612fe9565b6122a4565b3480156106aa57600080fd5b5060cb546102e79060ff1681565b3480156106c457600080fd5b506105806106d3366004612fe9565b6122c5565b3480156106e457600080fd5b506102756106f336600461335a565b6122ef565b34801561070457600080fd5b506102756107133660046137b7565b612365565b34801561072457600080fd5b50610275610733366004613291565b6123f7565b60c98054610745906137ee565b80601f0160208091040260200160405190810160405280929190818152602001828054610771906137ee565b80156107be5780601f10610793576101008083540402835291602001916107be565b820191906000526020600020905b8154815290600101906020018083116107a157829003601f168201915b505050505081565b61080260405180602001604052806000815250604051806040016040528060168152602001600080516020613be98339815191528152506125d8565b6001600160a01b038316600090815260cd602052604090205460ff1661083b5760405163c1ef36f360e01b815260040160405180910390fd5b600084815260d1602052604081205490036108695760405163b810dc5d60e01b815260040160405180910390fd5b60008483836040516020016108809392919061384b565b60408051601f198184030181529181528151602092830120600088815260ce909352908220909250905b815481101561095e578181815481106108c5576108c5613865565b9060005260206000200154830361094c57815482906108e690600190613891565b815481106108f6576108f6613865565b906000526020600020015482828154811061091357610913613865565b906000526020600020018190555081805480610931576109316138a4565b6001900381819060005260206000200160009055905561095e565b80610956816138ba565b9150506108aa565b5060405163fa6d1adf60e01b81526001600160a01b0386169063fa6d1adf9061098f9089908890889060040161384b565b6020604051808303816000875af11580156109ae573d6000803e3d6000fd5b505050506040513d601f19601f820116820180604052508101906109d291906138d3565b50505050505050565b60d4602052600090815260409020805481906109f6906137ee565b80601f0160208091040260200160405190810160405280929190818152602001828054610a22906137ee565b8015610a6f5780601f10610a4457610100808354040283529160200191610a6f565b820191906000526020600020905b815481529060010190602001808311610a5257829003601f168201915b50505050600183015460028401546003909401549293909290915060ff1684565b610af284848080601f016020809104026020016040519081016040528093929190818152602001838380828437600092019190915250506040805180820190915260168152600080516020613be9833981519152602082015291506125d89050565b6001600160a01b038216600090815260cd602052604090205460ff16610b2b5760405163c1ef36f360e01b815260040160405180910390fd5b600081815260d160205260408120549003610b595760405163b810dc5d60e01b815260040160405180910390fd5b60405163c513be7760e01b81526001600160a01b0383169063c513be7790610b89908790879086906004016138ec565b600060405180830381600087803b158015610ba357600080fd5b505af1158015610bb7573d6000803e3d6000fd5b5050505050505050565b6000805b60cf54811015610c2f57610c1360405180602001604052806000815250868686604051602001610bf6929190613910565b604051602081830303815290604052610c0e90613920565b612632565b15610c1d57600191505b80610c27816138ba565b915050610bc5565b509392505050565b6000610c7560405180602001604052806000815250604051806040016040528060168152602001600080516020613be98339815191528152506125d8565b600060d060008154610c86906138ba565b918290555060408051808201825260d05481526020808201888152600085815260d1909252929020815181559151929350918291906001820190610cca908261398a565b5090505060005b8451811015610dc4576033546001600160a01b03163314801590610d305750610d30858281518110610d0557610d05613865565b60200260200101516040518060400160405280600581526020016427bbb732b960d91b8152506126eb565b15610d4e576040516341d2e1af60e01b815260040160405180910390fd5b6000858281518110610d6257610d62613865565b6020026020010151604051602001610d7a9190613a49565b604051602081830303815290604052610d9290613920565b600085815260d26020908152604082208054600181018255908352912001555080610dbc816138ba565b915050610cd1565b50909150505b92915050565b610e0c60405180602001604052806000815250604051806040016040528060168152602001600080516020613be98339815191528152506125d8565b60cc548203610e2e57604051631eb49d6d60e11b815260040160405180910390fd5b600082815260d160205260408120549003610e5c5760405163b810dc5d60e01b815260040160405180910390fd5b8051600003610e7e57604051630e52390960e41b815260040160405180910390fd5b600082815260d160205260409020600101610e99828261398a565b505050565b6000805b60cf54811015610f1657610efa87878080601f01602080910402602001604051908101604052809392919081815260200183838082843760009201919091525050604051899250610bf6915088908890602001613910565b15610f0457600191505b80610f0e816138ba565b915050610ea2565b5095945050505050565b6001600160a01b037f0000000000000000000000000000000000000000000000000000000000000000163003610f715760405162461bcd60e51b8152600401610f6890613a65565b60405180910390fd5b7f00000000000000000000000000000000000000000000000000000000000000006001600160a01b0316610fba600080516020613bc9833981519152546001600160a01b031690565b6001600160a01b031614610fe05760405162461bcd60e51b8152600401610f6890613ab1565b610fe981612744565b604080516000808252602082019092526110059183919061277a565b50565b61104460405180602001604052806000815250604051806040016040528060168152602001600080516020613be98339815191528152506125d8565b6001600160a01b038216600090815260cd602052604090205460ff1661107d5760405163c1ef36f360e01b815260040160405180910390fd5b600083815260d1602052604081205490036110ab5760405163b810dc5d60e01b815260040160405180910390fd5b600083826040516020016110c092919061379e565b60408051601f198184030181528282528051602091820120600088815260ce83528381208054808502870185019095528486529195509392909183018282801561112957602002820191906000526020600020905b815481526020019060010190808311611115575b5050505050905060005b8151811015611187578282828151811061114f5761114f613865565b6020026020010151036111755760405163c5c9ad6760e01b815260040160405180910390fd5b8061117f816138ba565b915050611133565b50600085815260ce602090815260408083208054600181018255908452919092200183905551633be2f95d60e21b81526001600160a01b0385169063ef8be574906111d8908890879060040161379e565b6020604051808303816000875af11580156111f7573d6000803e3d6000fd5b505050506040513d601f19601f8201168201806040525081019061121b91906138d3565b505050505050565b606060cf80548060200260200160405190810160405280929190818152602001828054801561127b57602002820191906000526020600020905b81546001600160a01b0316815260019091019060200180831161125d575b5050505050905090565b6112bb604051806020016040528060008152506040518060400160405280600581526020016427bbb732b960d91b8152506125d8565b600081815260d1602052604081205490036112e95760405163b810dc5d60e01b815260040160405180910390fd5b6000805b600083815260d26020526040902054811015611394576040518060400160405280600581526020016427bbb732b960d91b8152506040516020016113319190613a49565b60405160208183030381529060405261134990613920565b600084815260d26020526040902080548390811061136957611369613865565b9060005260206000200154036113825760019150611394565b8061138c816138ba565b9150506112ed565b50806113b357604051633e74bd6360e21b815260040160405180910390fd5b5060cc55565b6001600160a01b037f00000000000000000000000000000000000000000000000000000000000000001630036114015760405162461bcd60e51b8152600401610f6890613a65565b7f00000000000000000000000000000000000000000000000000000000000000006001600160a01b031661144a600080516020613bc9833981519152546001600160a01b031690565b6001600160a01b0316146114705760405162461bcd60e51b8152600401610f6890613ab1565b61147982612744565b6114858282600161277a565b5050565b60006114cd604051806020016040528060008152506040518060400160405280601181526020017041646452656d6f76654368616e6e656c7360781b8152506125d8565b6000836040516020016114e09190613a49565b60408051601f198184030181529181528151602092830120600081815260d49093529120600101549091501561152957604051630139324b60e41b815260040160405180910390fd5b604080516080810182528681526020808201849052428284015260006060830181905284815260d49091529190912081518190611566908261398a565b506020820151600182810191909155604083015160028301556060909201516003909101805460ff191691151591909117905560d58054918201815560009081527f51858de9989bf7441865ebdadbf7382c8838edbf830f5d86a9a51ac773676dd69091018290555b60cf5481101561179557600060cf82815481106115ee576115ee613865565b60009182526020909120015460cc5460405163c513be7760e01b81526001600160a01b039092169250829163c513be779161162e918a9190600401613afd565b600060405180830381600087803b15801561164857600080fd5b505af115801561165c573d6000803e3d6000fd5b5050505060005b85518110156117805760cc5486828151811061168157611681613865565b6020026020010151031561176e5760d160008783815181106116a5576116a5613865565b60200260200101518152602001908152602001600020600001546000036116df5760405163b810dc5d60e01b815260040160405180910390fd5b816001600160a01b031663c513be778888848151811061170157611701613865565b60200260200101516040518363ffffffff1660e01b8152600401611726929190613afd565b600060405180830381600087803b15801561174057600080fd5b505af1925050508015611751575060015b61176e5760405163d9afe50760e01b815260040160405180910390fd5b80611778816138ba565b915050611663565b5050808061178d906138ba565b9150506115cf565b5090505b9392505050565b6000306001600160a01b037f000000000000000000000000000000000000000000000000000000000000000016146118405760405162461bcd60e51b815260206004820152603860248201527f555550535570677261646561626c653a206d757374206e6f742062652063616c60448201527f6c6564207468726f7567682064656c656761746563616c6c00000000000000006064820152608401610f68565b50600080516020613bc983398151915290565b611889604051806020016040528060008152506040518060400160405280600581526020016427bbb732b960d91b8152506125d8565b60cb805460ff1916911515919091179055565b6118de604051806020016040528060008152506040518060400160405280601181526020017041646452656d6f76654368616e6e656c7360781b8152506125d8565b600083836040516020016118f3929190613910565b60408051601f198184030181529181528151602092830120600081815260d490935290822060010154909250900361193e57604051636ddd9da960e01b815260040160405180910390fd5b600090815260d460205260409020600301805460ff19169115159190911790555050565b61199e60405180602001604052806000815250604051806040016040528060168152602001600080516020613be98339815191528152506125d8565b6119c5816040518060400160405280600581526020016427bbb732b960d91b8152506126eb565b156119e357604051631eb49d6d60e11b815260040160405180910390fd5b600082815260d160205260408120549003611a115760405163b810dc5d60e01b815260040160405180910390fd5b600081604051602001611a249190613a49565b604051602081830303815290604052611a3c90613920565b905060005b600084815260d26020526040902054811015611ab557600084815260d260205260409020805483919083908110611a7a57611a7a613865565b906000526020600020015403611aa357604051636571d65f60e01b815260040160405180910390fd5b80611aad816138ba565b915050611a41565b50600092835260d2602090815260408420805460018101825590855293209092019190915550565b604080516080810182526060808252600060208301819052928201839052810191909152600082815260d4602052604090819020815160808101909252805482908290611b29906137ee565b80601f0160208091040260200160405190810160405280929190818152602001828054611b55906137ee565b8015611ba25780601f10611b7757610100808354040283529160200191611ba2565b820191906000526020600020905b815481529060010190602001808311611b8557829003601f168201915b5050509183525050600182015460208201526002820154604082015260039091015460ff16151560609091015292915050565b6060600060d0546001600160401b03811115611bf357611bf36130e0565b604051908082528060200260200182016040528015611c3957816020015b604080518082019091526000815260606020820152815260200190600190039081611c115790505b50905060005b60d054811015611d3d5760d16000611c58836001613b1f565b815260200190815260200160002060405180604001604052908160008201548152602001600182018054611c8b906137ee565b80601f0160208091040260200160405190810160405280929190818152602001828054611cb7906137ee565b8015611d045780601f10611cd957610100808354040283529160200191611d04565b820191906000526020600020905b815481529060010190602001808311611ce757829003601f168201915b505050505081525050828281518110611d1f57611d1f613865565b60200260200101819052508080611d35906138ba565b915050611c3f565b50919050565b611d4b6128e5565b611d55600061293f565b565b60408051808201909152600081526060602082015260d1600083815260200190815260200160002060405180604001604052908160008201548152602001600182018054611da4906137ee565b80601f0160208091040260200160405190810160405280929190818152602001828054611dd0906137ee565b8015611e1d5780601f10611df257610100808354040283529160200191611e1d565b820191906000526020600020905b815481529060010190602001808311611e0057829003601f168201915b5050505050815250509050919050565b60ca8054610745906137ee565b611e7660405180602001604052806000815250604051806040016040528060168152602001600080516020613be98339815191528152506125d8565b60cc548103611e9857604051631eb49d6d60e11b815260040160405180910390fd5b600081815260d160205260408120549003611ec65760405163b810dc5d60e01b815260040160405180910390fd5b600081815260ce602052604090205415611ef357604051633764405360e11b815260040160405180910390fd5b600081815260d16020526040812081815590611f126001830182612e5c565b5050600081815260d26020526040812061100591612e96565b600081815260d26020908152604091829020805483518184028101840190945280845260609392830182828015611f8157602002820191906000526020600020905b815481526020019060010190808311611f6d575b50505050509050919050565b611fef84848080601f016020809104026020016040519081016040528093929190818152602001838380828437600092019190915250506040805180820190915260168152600080516020613be9833981519152602082015291506125d89050565b6001600160a01b038216600090815260cd602052604090205460ff166120285760405163c1ef36f360e01b815260040160405180910390fd5b600081815260d1602052604081205490036120565760405163b810dc5d60e01b815260040160405180910390fd5b604051637997c1e760e11b81526001600160a01b0383169063f32f83ce90610b89908790879086906004016138ec565b600054610100900460ff16158080156120a65750600054600160ff909116105b806120c05750303b1580156120c0575060005460ff166001145b6121235760405162461bcd60e51b815260206004820152602e60248201527f496e697469616c697a61626c653a20636f6e747261637420697320616c72656160448201526d191e481a5b9a5d1a585b1a5e995960921b6064820152608401610f68565b6000805460ff191660011790558015612146576000805461ff0019166101001790555b61214e612991565b6121566129b8565b60c9612162858261398a565b5060ca61216f848261398a565b5060005b82518110156121b2576121a083828151811061219157612191613865565b602002602001015160016129e7565b806121aa816138ba565b915050612173565b5080156121f9576000805461ff0019169055604051600181527f7f26b83ff96e1f2b6a682f133852f6798a09c465da95921460cefb38474024989060200160405180910390a15b50505050565b60d16020526000908152604090208054600182018054919291612221906137ee565b80601f016020809104026020016040519081016040528092919081815260200182805461224d906137ee565b801561229a5780601f1061226f5761010080835404028352916020019161229a565b820191906000526020600020905b81548152906001019060200180831161227d57829003601f168201915b5050505050905082565b60d581815481106122b457600080fd5b600091825260209091200154905081565b60cf81815481106122d557600080fd5b6000918252602090912001546001600160a01b0316905081565b6122f76128e5565b6001600160a01b03811661235c5760405162461bcd60e51b815260206004820152602660248201527f4f776e61626c653a206e6577206f776e657220697320746865207a65726f206160448201526564647265737360d01b6064820152608401610f68565b6110058161293f565b6123a160405180602001604052806000815250604051806040016040528060168152602001600080516020613be98339815191528152506125d8565b6123aa82612b68565b8080156123cf57506001600160a01b038216600090815260cd602052604090205460ff165b156123ed5760405163186abc9b60e01b815260040160405180910390fd5b61148582826129e7565b61243360405180602001604052806000815250604051806040016040528060168152602001600080516020613be98339815191528152506125d8565b61245a816040518060400160405280600581526020016427bbb732b960d91b8152506126eb565b1561247857604051631eb49d6d60e11b815260040160405180910390fd5b600082815260d1602052604081205490036124a65760405163b810dc5d60e01b815260040160405180910390fd5b6000816040516020016124b99190613a49565b6040516020818303038152906040526124d190613920565b905060005b600084815260d260205260409020548110156121f957600084815260d26020526040902080548391908390811061250f5761250f613865565b9060005260206000200154036125c657600084815260d260205260409020805461253b90600190613891565b8154811061254b5761254b613865565b906000526020600020015460d26000868152602001908152602001600020828154811061257a5761257a613865565b906000526020600020018190555060d260008581526020019081526020016000208054806125aa576125aa6138a4565b6001900381819060005260206000200160009055905550505050565b806125d0816138ba565b9150506124d6565b6033546001600160a01b0316331480612610575060cb5460ff161580156126105750612610823383604051602001610bf69190613a49565b15612619575050565b604051631eb49d6d60e11b815260040160405180910390fd5b6000805b60cf54811015610c2f5760cf818154811061265357612653613865565b60009182526020909120015460405162169d5560e31b81526001600160a01b039091169062b4eaa89061268e90889088908890600401613b32565b602060405180830381865afa1580156126ab573d6000803e3d6000fd5b505050506040513d601f19601f820116820180604052508101906126cf9190613b60565b156126d957600191505b806126e3816138ba565b915050612636565b6000816040516020016126fe9190613a49565b60405160208183030381529060405280519060200120836040516020016127259190613a49565b6040516020818303038152906040528051906020012014905092915050565b611005604051806020016040528060008152506040518060400160405280600581526020016427bbb732b960d91b8152506125d8565b7f4910fdfa16fed3260ed0e7147f7cc6da11a60208b5b9406d12a635614ffd91435460ff16156127ad57610e9983612bf9565b826001600160a01b03166352d1902d6040518163ffffffff1660e01b8152600401602060405180830381865afa925050508015612807575060408051601f3d908101601f19168201909252612804918101906138d3565b60015b61286a5760405162461bcd60e51b815260206004820152602e60248201527f45524331393637557067726164653a206e657720696d706c656d656e7461746960448201526d6f6e206973206e6f74205555505360901b6064820152608401610f68565b600080516020613bc983398151915281146128d95760405162461bcd60e51b815260206004820152602960248201527f45524331393637557067726164653a20756e737570706f727465642070726f786044820152681a58589b195555525160ba1b6064820152608401610f68565b50610e99838383612c95565b6033546001600160a01b03163314611d555760405162461bcd60e51b815260206004820181905260248201527f4f776e61626c653a2063616c6c6572206973206e6f7420746865206f776e65726044820152606401610f68565b603380546001600160a01b038381166001600160a01b0319831681179093556040519116919082907f8be0079c531659141344cd1fd0a4f28419497f9722a3daafe3b4186f6b6457e090600090a35050565b600054610100900460ff16611d555760405162461bcd60e51b8152600401610f6890613b7d565b600054610100900460ff166129df5760405162461bcd60e51b8152600401610f6890613b7d565b611d55612cba565b6001600160a01b038216600090815260cd60205260409020805460ff19168215801591909117909155612a655760cf80546001810182556000919091527facb8d954e2cfef495862221e91bd7523613cf8808827cb33edfe4904cc51bf290180546001600160a01b0384166001600160a01b03199091161790555050565b60005b60cf54811015610e995760cf8181548110612a8557612a85613865565b6000918252602090912001546001600160a01b0390811690841603612b565760cf8054612ab490600190613891565b81548110612ac457612ac4613865565b60009182526020909120015460cf80546001600160a01b039092169183908110612af057612af0613865565b9060005260206000200160006101000a8154816001600160a01b0302191690836001600160a01b0316021790555060cf805480612b2f57612b2f6138a4565b600082815260209020810160001990810180546001600160a01b0319169055019055505050565b80612b60816138ba565b915050612a68565b6040516301ffc9a760e01b8152630511738b60e31b60048201526001600160a01b038216906301ffc9a790602401602060405180830381865afa158015612bb3573d6000803e3d6000fd5b505050506040513d601f19601f82011682018060405250810190612bd79190613b60565b151560000361100557604051636d9250f160e11b815260040160405180910390fd5b6001600160a01b0381163b612c665760405162461bcd60e51b815260206004820152602d60248201527f455243313936373a206e657720696d706c656d656e746174696f6e206973206e60448201526c1bdd08184818dbdb9d1c9858dd609a1b6064820152608401610f68565b600080516020613bc983398151915280546001600160a01b0319166001600160a01b0392909216919091179055565b612c9e83612cea565b600082511180612cab5750805b15610e99576121f98383612d2a565b600054610100900460ff16612ce15760405162461bcd60e51b8152600401610f6890613b7d565b611d553361293f565b612cf381612bf9565b6040516001600160a01b038216907fbc7cd75a20ee27fd9adebab32041f755214dbc6bffa90cc0225b39da2e5c2d3b90600090a250565b60606001600160a01b0383163b612d925760405162461bcd60e51b815260206004820152602660248201527f416464726573733a2064656c65676174652063616c6c20746f206e6f6e2d636f6044820152651b9d1c9858dd60d21b6064820152608401610f68565b600080846001600160a01b031684604051612dad9190613a49565b600060405180830381855af49150503d8060008114612de8576040519150601f19603f3d011682016040523d82523d6000602084013e612ded565b606091505b5091509150612e158282604051806060016040528060278152602001613c0960279139612e1e565b95945050505050565b60608315612e2d575081611799565b6117998383815115612e425781518083602001fd5b8060405162461bcd60e51b8152600401610f689190612f19565b508054612e68906137ee565b6000825580601f10612e78575050565b601f0160209004906000526020600020908101906110059190612eb0565b508054600082559060005260206000209081019061100591905b5b80821115612ec55760008155600101612eb1565b5090565b60005b83811015612ee4578181015183820152602001612ecc565b50506000910152565b60008151808452612f05816020860160208601612ec9565b601f01601f19169290920160200192915050565b6020815260006117996020830184612eed565b80356001600160a01b0381168114612f4357600080fd5b919050565b60008083601f840112612f5a57600080fd5b5081356001600160401b03811115612f7157600080fd5b602083019150836020828501011115612f8957600080fd5b9250929050565b60008060008060608587031215612fa657600080fd5b84359350612fb660208601612f2c565b925060408501356001600160401b03811115612fd157600080fd5b612fdd87828801612f48565b95989497509550505050565b600060208284031215612ffb57600080fd5b5035919050565b6080815260006130156080830187612eed565b60208301959095525060408101929092521515606090910152919050565b6000806000806060858703121561304957600080fd5b84356001600160401b0381111561305f57600080fd5b61306b87828801612f48565b909550935061307e905060208601612f2c565b9396929550929360400135925050565b6000806000604084860312156130a357600080fd5b6130ac84612f2c565b925060208401356001600160401b038111156130c757600080fd5b6130d386828701612f48565b9497909650939450505050565b634e487b7160e01b600052604160045260246000fd5b604051601f8201601f191681016001600160401b038111828210171561311e5761311e6130e0565b604052919050565b600082601f83011261313757600080fd5b81356001600160401b03811115613150576131506130e0565b613163601f8201601f19166020016130f6565b81815284602083860101111561317857600080fd5b816020850160208301376000918101602001919091529392505050565b60006001600160401b038211156131ae576131ae6130e0565b5060051b60200190565b600080604083850312156131cb57600080fd5b82356001600160401b03808211156131e257600080fd5b6131ee86838701613126565b935060209150818501358181111561320557600080fd5b8501601f8101871361321657600080fd5b803561322961322482613195565b6130f6565b81815260059190911b8201840190848101908983111561324857600080fd5b8584015b83811015613280578035868111156132645760008081fd5b6132728c8983890101613126565b84525091860191860161324c565b508096505050505050509250929050565b600080604083850312156132a457600080fd5b8235915060208301356001600160401b038111156132c157600080fd5b6132cd85828601613126565b9150509250929050565b6000806000806000606086880312156132ef57600080fd5b85356001600160401b038082111561330657600080fd5b61331289838a01612f48565b909750955085915061332660208901612f2c565b9450604088013591508082111561333c57600080fd5b5061334988828901612f48565b969995985093965092949392505050565b60006020828403121561336c57600080fd5b61179982612f2c565b60008060006060848603121561338a57600080fd5b8335925061339a60208501612f2c565b915060408401356001600160401b038111156133b557600080fd5b6133c186828701613126565b9150509250925092565b6020808252825182820181905260009190848201906040850190845b8181101561340c5783516001600160a01b0316835292840192918401916001016133e7565b50909695505050505050565b6000806040838503121561342b57600080fd5b61343483612f2c565b915060208301356001600160401b038111156132c157600080fd5b60008060006060848603121561346457600080fd5b83356001600160401b038082111561347b57600080fd5b61348787838801613126565b945060209150818601358181111561349e57600080fd5b6134aa88828901613126565b9450506040860135818111156134bf57600080fd5b86019050601f810187136134d257600080fd5b80356134e061322482613195565b81815260059190911b820183019083810190898311156134ff57600080fd5b928401925b8284101561351d57833582529284019290840190613504565b80955050505050509250925092565b801515811461100557600080fd5b60006020828403121561354c57600080fd5b81356117998161352c565b60008060006040848603121561356c57600080fd5b83356001600160401b0381111561358257600080fd5b61358e86828701612f48565b90945092505060208401356135a28161352c565b809150509250925092565b6020815260008251608060208401526135c960a0840182612eed565b905060208401516040840152604084015160608401526060840151151560808401528091505092915050565b8051825260006020820151604060208501526136146040850182612eed565b949350505050565b6000602080830181845280855180835260408601915060408160051b870101925083870160005b8281101561367157603f1988860301845261365f8583516135f5565b94509285019290850190600101613643565b5092979650505050505050565b60208152600061179960208301846135f5565b6020808252825182820181905260009190848201906040850190845b8181101561340c578351835292840192918401916001016136ad565b6000806000606084860312156136de57600080fd5b83356001600160401b03808211156136f557600080fd5b61370187838801613126565b945060209150818601358181111561371857600080fd5b61372488828901613126565b94505060408601358181111561373957600080fd5b86019050601f8101871361374c57600080fd5b803561375a61322482613195565b81815260059190911b8201830190838101908983111561377957600080fd5b928401925b8284101561351d5761378f84612f2c565b8252928401929084019061377e565b8281526040602082015260006136146040830184612eed565b600080604083850312156137ca57600080fd5b6137d383612f2c565b915060208301356137e38161352c565b809150509250929050565b600181811c9082168061380257607f821691505b602082108103611d3d57634e487b7160e01b600052602260045260246000fd5b81835281816020850137506000828201602090810191909152601f909101601f19169091010190565b838152604060208201526000612e15604083018486613822565b634e487b7160e01b600052603260045260246000fd5b634e487b7160e01b600052601160045260246000fd5b81810381811115610dca57610dca61387b565b634e487b7160e01b600052603160045260246000fd5b6000600182016138cc576138cc61387b565b5060010190565b6000602082840312156138e557600080fd5b5051919050565b604081526000613900604083018587613822565b9050826020830152949350505050565b8183823760009101908152919050565b80516020808301519190811015611d3d5760001960209190910360031b1b16919050565b601f821115610e9957600081815260208120601f850160051c8101602086101561396b5750805b601f850160051c820191505b8181101561121b57828155600101613977565b81516001600160401b038111156139a3576139a36130e0565b6139b7816139b184546137ee565b84613944565b602080601f8311600181146139ec57600084156139d45750858301515b600019600386901b1c1916600185901b17855561121b565b600085815260208120601f198616915b82811015613a1b578886015182559484019460019091019084016139fc565b5085821015613a395787850151600019600388901b60f8161c191681555b5050505050600190811b01905550565b60008251613a5b818460208701612ec9565b9190910192915050565b6020808252602c908201527f46756e6374696f6e206d7573742062652063616c6c6564207468726f7567682060408201526b19195b1959d85d1958d85b1b60a21b606082015260800190565b6020808252602c908201527f46756e6374696f6e206d7573742062652063616c6c6564207468726f7567682060408201526b6163746976652070726f787960a01b606082015260800190565b604081526000613b106040830185612eed565b90508260208301529392505050565b80820180821115610dca57610dca61387b565b606081526000613b456060830186612eed565b6001600160a01b039490941660208301525060400152919050565b600060208284031215613b7257600080fd5b81516117998161352c565b6020808252602b908201527f496e697469616c697a61626c653a20636f6e7472616374206973206e6f74206960408201526a6e697469616c697a696e6760a81b60608201526080019056fe360894a13ba1a3210667c828492db98dca3e2076cc3735a920a3ca505d382bbc4d6f6469667953706163655065726d697373696f6e7300000000000000000000416464726573733a206c6f772d6c6576656c2064656c65676174652063616c6c206661696c6564a264697066735822122083b417310bdf5a7c053cfb5b0de64329342b2e08cb760024ce97e309b5d467cb64736f6c63430008110033",
    "linkReferences": {}
  },
  "methodIdentifiers": {
    "addPermissionToRole(uint256,string)": "66fb345c",
    "addRoleToChannel(string,address,uint256)": "1dea616a",
    "addRoleToEntitlement(uint256,address,bytes)": "3ace20c1",
    "channels(uint256)": "e5949b5d",
    "channelsByHash(bytes32)": "129ab3c8",
    "createChannel(string,string,uint256[])": "51f83cea",
    "createRole(string,string[])": "2f8d1925",
    "disabled()": "ee070805",
    "entitlements(uint256)": "f28f9b56",
    "getChannelByHash(bytes32)": "703511f8",
    "getEntitlements()": "487dc38c",
    "getPermissionsByRoleId(uint256)": "b4264233",
    "getRoleById(uint256)": "784c872b",
    "getRoles()": "71061398",
    "hasEntitlement(address)": "7f8d06d0",
    "initialize(string,string,address[])": "ca275931",
    "isEntitled(address,string)": "20158494",
    "isEntitled(string,address,string)": "333f1b11",
    "name()": "06fdde03",
    "networkId()": "9025e64c",
    "owner()": "8da5cb5b",
    "ownerRoleId()": "d1a6a961",
    "proxiableUUID()": "52d1902d",
    "removePermissionFromRole(uint256,string)": "f740bb6b",
    "removeRole(uint256)": "92691821",
    "removeRoleFromChannel(string,address,uint256)": "baaf3d57",
    "removeRoleFromEntitlement(uint256,address,bytes)": "0ccbfa39",
    "renounceOwnership()": "715018a6",
    "roleId()": "73368a48",
    "rolesById(uint256)": "e5894ef4",
    "setAccess(bool)": "59ce7d4c",
    "setChannelAccess(string,bool)": "5de151b8",
    "setEntitlement(address,bool)": "f3b96ab4",
    "setOwnerRoleId(uint256)": "4999ab16",
    "transferOwnership(address)": "f2fde38b",
    "updateRole(uint256,string)": "32e704cc",
    "upgradeTo(address)": "3659cfe6",
    "upgradeToAndCall(address,bytes)": "4f1ef286"
  },
  "id": 45
}