{
  "abi": [
    {
      "inputs": [],
      "stateMutability": "nonpayable",
      "type": "constructor"
    },
    {
      "inputs": [],
      "name": "AddRoleFailed",
      "type": "error"
    },
    {
      "inputs": [],
      "name": "ChannelAlreadyRegistered",
      "type": "error"
    },
    {
      "inputs": [],
      "name": "ChannelDoesNotExist",
      "type": "error"
    },
    {
      "inputs": [],
      "name": "EntitlementAlreadyExists",
      "type": "error"
    },
    {
      "inputs": [],
      "name": "EntitlementAlreadyWhitelisted",
      "type": "error"
    },
    {
      "inputs": [],
      "name": "EntitlementModuleNotSupported",
      "type": "error"
    },
    {
      "inputs": [],
      "name": "EntitlementNotWhitelisted",
      "type": "error"
    },
    {
      "inputs": [],
      "name": "InvalidParameters",
      "type": "error"
    },
    {
      "inputs": [],
      "name": "MissingOwnerPermission",
      "type": "error"
    },
    {
      "inputs": [],
      "name": "NameContainsInvalidCharacters",
      "type": "error"
    },
    {
      "inputs": [],
      "name": "NameLengthInvalid",
      "type": "error"
    },
    {
      "inputs": [],
      "name": "NotAllowed",
      "type": "error"
    },
    {
      "inputs": [],
      "name": "PermissionAlreadyExists",
      "type": "error"
    },
    {
      "inputs": [],
      "name": "RoleDoesNotExist",
      "type": "error"
    },
    {
      "inputs": [],
      "name": "RoleIsAssignedToEntitlement",
      "type": "error"
    },
    {
      "anonymous": false,
      "inputs": [
        {
          "indexed": false,
          "internalType": "address",
          "name": "previousAdmin",
          "type": "address"
        },
        {
          "indexed": false,
          "internalType": "address",
          "name": "newAdmin",
          "type": "address"
        }
      ],
      "name": "AdminChanged",
      "type": "event"
    },
    {
      "anonymous": false,
      "inputs": [
        {
          "indexed": true,
          "internalType": "address",
          "name": "beacon",
          "type": "address"
        }
      ],
      "name": "BeaconUpgraded",
      "type": "event"
    },
    {
      "anonymous": false,
      "inputs": [
        {
          "indexed": false,
          "internalType": "uint8",
          "name": "version",
          "type": "uint8"
        }
      ],
      "name": "Initialized",
      "type": "event"
    },
    {
      "anonymous": false,
      "inputs": [
        {
          "indexed": true,
          "internalType": "address",
          "name": "implementation",
          "type": "address"
        }
      ],
      "name": "Upgraded",
      "type": "event"
    },
    {
      "inputs": [
        {
          "internalType": "uint256",
          "name": "_roleId",
          "type": "uint256"
        },
        {
          "internalType": "string",
          "name": "_permission",
          "type": "string"
        }
      ],
      "name": "addPermissionToRole",
      "outputs": [],
      "stateMutability": "nonpayable",
      "type": "function"
    },
    {
      "inputs": [
        {
          "internalType": "string",
          "name": "_channelNetworkId",
          "type": "string"
        },
        {
          "internalType": "address",
          "name": "_entitlement",
          "type": "address"
        },
        {
          "internalType": "uint256",
          "name": "_roleId",
          "type": "uint256"
        }
      ],
      "name": "addRoleToChannel",
      "outputs": [],
      "stateMutability": "nonpayable",
      "type": "function"
    },
    {
      "inputs": [
        {
          "internalType": "uint256",
          "name": "_roleId",
          "type": "uint256"
        },
        {
          "components": [
            {
              "internalType": "address",
              "name": "module",
              "type": "address"
            },
            {
              "internalType": "bytes",
              "name": "data",
              "type": "bytes"
            }
          ],
          "internalType": "struct DataTypes.Entitlement",
          "name": "_entitlement",
          "type": "tuple"
        }
      ],
      "name": "addRoleToEntitlement",
      "outputs": [],
      "stateMutability": "nonpayable",
      "type": "function"
    },
    {
      "inputs": [
        {
          "internalType": "uint256",
          "name": "",
          "type": "uint256"
        }
      ],
      "name": "channels",
      "outputs": [
        {
          "internalType": "bytes32",
          "name": "",
          "type": "bytes32"
        }
      ],
      "stateMutability": "view",
      "type": "function"
    },
    {
      "inputs": [
        {
          "internalType": "bytes32",
          "name": "",
          "type": "bytes32"
        }
      ],
      "name": "channelsByHash",
      "outputs": [
        {
          "internalType": "string",
          "name": "name",
          "type": "string"
        },
        {
          "internalType": "string",
          "name": "channelNetworkId",
          "type": "string"
        },
        {
          "internalType": "bytes32",
          "name": "channelHash",
          "type": "bytes32"
        },
        {
          "internalType": "uint256",
          "name": "createdAt",
          "type": "uint256"
        },
        {
          "internalType": "bool",
          "name": "disabled",
          "type": "bool"
        }
      ],
      "stateMutability": "view",
      "type": "function"
    },
    {
      "inputs": [
        {
          "internalType": "string",
          "name": "channelName",
          "type": "string"
        },
        {
          "internalType": "string",
          "name": "channelNetworkId",
          "type": "string"
        },
        {
          "internalType": "uint256[]",
          "name": "roleIds",
          "type": "uint256[]"
        }
      ],
      "name": "createChannel",
      "outputs": [
        {
          "internalType": "bytes32",
          "name": "",
          "type": "bytes32"
        }
      ],
      "stateMutability": "nonpayable",
      "type": "function"
    },
    {
      "inputs": [
        {
          "internalType": "string",
          "name": "_roleName",
          "type": "string"
        },
        {
          "internalType": "string[]",
          "name": "_permissions",
          "type": "string[]"
        },
        {
          "components": [
            {
              "internalType": "address",
              "name": "module",
              "type": "address"
            },
            {
              "internalType": "bytes",
              "name": "data",
              "type": "bytes"
            }
          ],
          "internalType": "struct DataTypes.Entitlement[]",
          "name": "_entitlements",
          "type": "tuple[]"
        }
      ],
      "name": "createRole",
      "outputs": [
        {
          "internalType": "uint256",
          "name": "",
          "type": "uint256"
        }
      ],
      "stateMutability": "nonpayable",
      "type": "function"
    },
    {
      "inputs": [
        {
          "internalType": "address",
          "name": "",
          "type": "address"
        }
      ],
      "name": "defaultEntitlements",
      "outputs": [
        {
          "internalType": "bool",
          "name": "",
          "type": "bool"
        }
      ],
      "stateMutability": "view",
      "type": "function"
    },
    {
      "inputs": [],
      "name": "disabled",
      "outputs": [
        {
          "internalType": "bool",
          "name": "",
          "type": "bool"
        }
      ],
      "stateMutability": "view",
      "type": "function"
    },
    {
      "inputs": [
        {
          "internalType": "uint256",
          "name": "",
          "type": "uint256"
        }
      ],
      "name": "entitlements",
      "outputs": [
        {
          "internalType": "address",
          "name": "",
          "type": "address"
        }
      ],
      "stateMutability": "view",
      "type": "function"
    },
    {
      "inputs": [
        {
          "internalType": "bytes32",
          "name": "_channelHash",
          "type": "bytes32"
        }
      ],
      "name": "getChannelByHash",
      "outputs": [
        {
          "components": [
            {
              "internalType": "string",
              "name": "name",
              "type": "string"
            },
            {
              "internalType": "string",
              "name": "channelNetworkId",
              "type": "string"
            },
            {
              "internalType": "bytes32",
              "name": "channelHash",
              "type": "bytes32"
            },
            {
              "internalType": "uint256",
              "name": "createdAt",
              "type": "uint256"
            },
            {
              "internalType": "bool",
              "name": "disabled",
              "type": "bool"
            }
          ],
          "internalType": "struct DataTypes.Channel",
          "name": "",
          "type": "tuple"
        }
      ],
      "stateMutability": "view",
      "type": "function"
    },
    {
      "inputs": [],
      "name": "getChannels",
      "outputs": [
        {
          "internalType": "bytes32[]",
          "name": "",
          "type": "bytes32[]"
        }
      ],
      "stateMutability": "view",
      "type": "function"
    },
    {
      "inputs": [
        {
          "internalType": "string",
          "name": "_moduleType",
          "type": "string"
        }
      ],
      "name": "getEntitlementByModuleType",
      "outputs": [
        {
          "internalType": "address",
          "name": "",
          "type": "address"
        }
      ],
      "stateMutability": "view",
      "type": "function"
    },
    {
      "inputs": [
        {
          "internalType": "uint256",
          "name": "_roleId",
          "type": "uint256"
        }
      ],
      "name": "getEntitlementIdsByRoleId",
      "outputs": [
        {
          "internalType": "bytes32[]",
          "name": "",
          "type": "bytes32[]"
        }
      ],
      "stateMutability": "view",
      "type": "function"
    },
    {
      "inputs": [],
      "name": "getEntitlementModules",
      "outputs": [
        {
          "components": [
            {
              "internalType": "string",
              "name": "name",
              "type": "string"
            },
            {
              "internalType": "address",
              "name": "module",
              "type": "address"
            },
            {
              "internalType": "string",
              "name": "moduleType",
              "type": "string"
            },
            {
              "internalType": "bool",
              "name": "enabled",
              "type": "bool"
            }
          ],
          "internalType": "struct DataTypes.EntitlementModule[]",
          "name": "_entitlementModules",
          "type": "tuple[]"
        }
      ],
      "stateMutability": "view",
      "type": "function"
    },
    {
      "inputs": [
        {
          "internalType": "uint256",
          "name": "_roleId",
          "type": "uint256"
        }
      ],
      "name": "getPermissionsByRoleId",
      "outputs": [
        {
          "internalType": "bytes32[]",
          "name": "",
          "type": "bytes32[]"
        }
      ],
      "stateMutability": "view",
      "type": "function"
    },
    {
      "inputs": [
        {
          "internalType": "uint256",
          "name": "_roleId",
          "type": "uint256"
        }
      ],
      "name": "getRoleById",
      "outputs": [
        {
          "components": [
            {
              "internalType": "uint256",
              "name": "roleId",
              "type": "uint256"
            },
            {
              "internalType": "string",
              "name": "name",
              "type": "string"
            }
          ],
          "internalType": "struct DataTypes.Role",
          "name": "",
          "type": "tuple"
        }
      ],
      "stateMutability": "view",
      "type": "function"
    },
    {
      "inputs": [],
      "name": "getRoles",
      "outputs": [
        {
          "components": [
            {
              "internalType": "uint256",
              "name": "roleId",
              "type": "uint256"
            },
            {
              "internalType": "string",
              "name": "name",
              "type": "string"
            }
          ],
          "internalType": "struct DataTypes.Role[]",
          "name": "",
          "type": "tuple[]"
        }
      ],
      "stateMutability": "view",
      "type": "function"
    },
    {
      "inputs": [
        {
          "internalType": "address",
          "name": "",
          "type": "address"
        }
      ],
      "name": "hasEntitlement",
      "outputs": [
        {
          "internalType": "bool",
          "name": "",
          "type": "bool"
        }
      ],
      "stateMutability": "view",
      "type": "function"
    },
    {
      "inputs": [
        {
          "internalType": "string",
          "name": "_name",
          "type": "string"
        },
        {
          "internalType": "string",
          "name": "_networkId",
          "type": "string"
        },
        {
          "internalType": "address[]",
          "name": "_entitlements",
          "type": "address[]"
        },
        {
          "internalType": "address",
          "name": "_token",
          "type": "address"
        },
        {
          "internalType": "uint256",
          "name": "_tokenId",
          "type": "uint256"
        }
      ],
      "name": "initialize",
      "outputs": [],
      "stateMutability": "nonpayable",
      "type": "function"
    },
    {
      "inputs": [
        {
          "internalType": "string",
          "name": "_channelNetworkId",
          "type": "string"
        },
        {
          "internalType": "address",
          "name": "_user",
          "type": "address"
        },
        {
          "internalType": "string",
          "name": "_permission",
          "type": "string"
        }
      ],
      "name": "isEntitledToChannel",
      "outputs": [
        {
          "internalType": "bool",
          "name": "_entitled",
          "type": "bool"
        }
      ],
      "stateMutability": "view",
      "type": "function"
    },
    {
      "inputs": [
        {
          "internalType": "address",
          "name": "_user",
          "type": "address"
        },
        {
          "internalType": "string",
          "name": "_permission",
          "type": "string"
        }
      ],
      "name": "isEntitledToSpace",
      "outputs": [
        {
          "internalType": "bool",
          "name": "_entitled",
          "type": "bool"
        }
      ],
      "stateMutability": "view",
      "type": "function"
    },
    {
      "inputs": [
        {
          "internalType": "bytes[]",
          "name": "data",
          "type": "bytes[]"
        }
      ],
      "name": "multicall",
      "outputs": [
        {
          "internalType": "bytes[]",
          "name": "results",
          "type": "bytes[]"
        }
      ],
      "stateMutability": "nonpayable",
      "type": "function"
    },
    {
      "inputs": [],
      "name": "name",
      "outputs": [
        {
          "internalType": "string",
          "name": "",
          "type": "string"
        }
      ],
      "stateMutability": "view",
      "type": "function"
    },
    {
      "inputs": [],
      "name": "networkId",
      "outputs": [
        {
          "internalType": "string",
          "name": "",
          "type": "string"
        }
      ],
      "stateMutability": "view",
      "type": "function"
    },
    {
      "inputs": [],
      "name": "owner",
      "outputs": [
        {
          "internalType": "address",
          "name": "",
          "type": "address"
        }
      ],
      "stateMutability": "view",
      "type": "function"
    },
    {
      "inputs": [],
      "name": "ownerRoleId",
      "outputs": [
        {
          "internalType": "uint256",
          "name": "",
          "type": "uint256"
        }
      ],
      "stateMutability": "view",
      "type": "function"
    },
    {
      "inputs": [],
      "name": "proxiableUUID",
      "outputs": [
        {
          "internalType": "bytes32",
          "name": "",
          "type": "bytes32"
        }
      ],
      "stateMutability": "view",
      "type": "function"
    },
    {
      "inputs": [
        {
          "internalType": "uint256",
          "name": "_roleId",
          "type": "uint256"
        },
        {
          "internalType": "string",
          "name": "_permission",
          "type": "string"
        }
      ],
      "name": "removePermissionFromRole",
      "outputs": [],
      "stateMutability": "nonpayable",
      "type": "function"
    },
    {
      "inputs": [
        {
          "internalType": "uint256",
          "name": "_roleId",
          "type": "uint256"
        }
      ],
      "name": "removeRole",
      "outputs": [],
      "stateMutability": "nonpayable",
      "type": "function"
    },
    {
      "inputs": [
        {
          "internalType": "string",
          "name": "_channelNetworkId",
          "type": "string"
        },
        {
          "internalType": "address",
          "name": "_entitlement",
          "type": "address"
        },
        {
          "internalType": "uint256",
          "name": "_roleId",
          "type": "uint256"
        }
      ],
      "name": "removeRoleFromChannel",
      "outputs": [],
      "stateMutability": "nonpayable",
      "type": "function"
    },
    {
      "inputs": [
        {
          "internalType": "uint256",
          "name": "_roleId",
          "type": "uint256"
        },
        {
          "components": [
            {
              "internalType": "address",
              "name": "module",
              "type": "address"
            },
            {
              "internalType": "bytes",
              "name": "data",
              "type": "bytes"
            }
          ],
          "internalType": "struct DataTypes.Entitlement",
          "name": "_entitlement",
          "type": "tuple"
        }
      ],
      "name": "removeRoleFromEntitlement",
      "outputs": [],
      "stateMutability": "nonpayable",
      "type": "function"
    },
    {
      "inputs": [],
      "name": "roleCount",
      "outputs": [
        {
          "internalType": "uint256",
          "name": "",
          "type": "uint256"
        }
      ],
      "stateMutability": "view",
      "type": "function"
    },
    {
      "inputs": [
        {
          "internalType": "uint256",
          "name": "",
          "type": "uint256"
        }
      ],
      "name": "rolesById",
      "outputs": [
        {
          "internalType": "uint256",
          "name": "roleId",
          "type": "uint256"
        },
        {
          "internalType": "string",
          "name": "name",
          "type": "string"
        }
      ],
      "stateMutability": "view",
      "type": "function"
    },
    {
      "inputs": [
        {
          "internalType": "string",
          "name": "channelNetworkId",
          "type": "string"
        },
        {
          "internalType": "bool",
          "name": "disableChannel",
          "type": "bool"
        }
      ],
      "name": "setChannelAccess",
      "outputs": [],
      "stateMutability": "nonpayable",
      "type": "function"
    },
    {
      "inputs": [
        {
          "internalType": "address",
          "name": "_entitlementModule",
          "type": "address"
        },
        {
          "internalType": "bool",
          "name": "_whitelist",
          "type": "bool"
        }
      ],
      "name": "setEntitlementModule",
      "outputs": [],
      "stateMutability": "nonpayable",
      "type": "function"
    },
    {
      "inputs": [
        {
          "internalType": "uint256",
          "name": "_roleId",
          "type": "uint256"
        }
      ],
      "name": "setOwnerRoleId",
      "outputs": [],
      "stateMutability": "nonpayable",
      "type": "function"
    },
    {
      "inputs": [
        {
          "internalType": "bool",
          "name": "_disabled",
          "type": "bool"
        }
      ],
      "name": "setSpaceAccess",
      "outputs": [],
      "stateMutability": "nonpayable",
      "type": "function"
    },
    {
      "inputs": [],
      "name": "token",
      "outputs": [
        {
          "internalType": "address",
          "name": "",
          "type": "address"
        }
      ],
      "stateMutability": "view",
      "type": "function"
    },
    {
      "inputs": [],
      "name": "tokenId",
      "outputs": [
        {
          "internalType": "uint256",
          "name": "",
          "type": "uint256"
        }
      ],
      "stateMutability": "view",
      "type": "function"
    },
    {
      "inputs": [
        {
          "internalType": "string",
          "name": "channelNetworkId",
          "type": "string"
        },
        {
          "internalType": "string",
          "name": "channelName",
          "type": "string"
        }
      ],
      "name": "updateChannel",
      "outputs": [],
      "stateMutability": "nonpayable",
      "type": "function"
    },
    {
      "inputs": [
        {
          "internalType": "uint256",
          "name": "_roleId",
          "type": "uint256"
        },
        {
          "internalType": "string",
          "name": "_roleName",
          "type": "string"
        }
      ],
      "name": "updateRole",
      "outputs": [],
      "stateMutability": "nonpayable",
      "type": "function"
    },
    {
      "inputs": [
        {
          "internalType": "address",
          "name": "_entitlement",
          "type": "address"
        },
        {
          "internalType": "address",
          "name": "_newEntitlement",
          "type": "address"
        }
      ],
      "name": "upgradeEntitlement",
      "outputs": [],
      "stateMutability": "nonpayable",
      "type": "function"
    },
    {
      "inputs": [
        {
          "internalType": "address",
          "name": "newImplementation",
          "type": "address"
        }
      ],
      "name": "upgradeTo",
      "outputs": [],
      "stateMutability": "nonpayable",
      "type": "function"
    },
    {
      "inputs": [
        {
          "internalType": "address",
          "name": "newImplementation",
          "type": "address"
        },
        {
          "internalType": "bytes",
          "name": "data",
          "type": "bytes"
        }
      ],
      "name": "upgradeToAndCall",
      "outputs": [],
      "stateMutability": "payable",
      "type": "function"
    }
  ],
  "bytecode": {
    "object": "0x60a0604052306080523480156200001557600080fd5b506200002062000026565b620000e7565b600054610100900460ff1615620000935760405162461bcd60e51b815260206004820152602760248201527f496e697469616c697a61626c653a20636f6e747261637420697320696e697469604482015266616c697a696e6760c81b606482015260840160405180910390fd5b60005460ff90811614620000e5576000805460ff191660ff9081179091556040519081527f7f26b83ff96e1f2b6a682f133852f6798a09c465da95921460cefb38474024989060200160405180910390a15b565b6080516152956200011f6000396000818161104801528181611091015281816113e201528181611422015261193601526152956000f3fe6080604052600436106102725760003560e01c80637f8d06d01161014f578063cea632bc116100c1578063ee0708051161007a578063ee070805146107aa578063f28f9b56146107c4578063f3ce6a5b146107e4578063f740bb6b14610804578063fa6433c514610824578063fc0c546a1461085457600080fd5b8063cea632bc146106f0578063d1a6a96114610710578063dba8186414610726578063ddf9635814610746578063e5894ef41461075c578063e5949b5d1461078a57600080fd5b80639269182111610113578063926918211461062e5780639575f6ac1461064e578063ac9650d814610663578063b426423314610690578063ba201ba8146106b0578063baaf3d57146106d057600080fd5b80637f8d06d01461057c578063870b9464146105ac5780638da5cb5b146105e45780638fcd793d146105f95780639025e64c1461061957600080fd5b8063446dc22e116101e857806352d1902d116101ac57806352d1902d146104ab5780635de151b8146104c057806366fb345c146104e0578063703511f814610500578063710613981461052d578063784c872b1461054f57600080fd5b8063446dc22e146104185780634999ab16146104385780634f1ef28614610458578063519607f21461046b57806351f83cea1461048b57600080fd5b806320759f9e1161023a57806320759f9e1461033b57806332e704cc1461036b57806334a1dd261461038b5780633659cfe6146103ab57806342486e49146103cb578063441555e5146103f857600080fd5b806306fdde03146102775780630d029f75146102a2578063129ab3c8146102c457806317d70f7c146102f55780631dea616a14610319575b600080fd5b34801561028357600080fd5b5061028c610874565b6040516102999190613f6c565b60405180910390f35b3480156102ae57600080fd5b506102b7610902565b6040516102999190613f7f565b3480156102d057600080fd5b506102e46102df366004614028565b610b43565b604051610299959493929190614041565b34801561030157600080fd5b5061030b609c5481565b604051908152602001610299565b34801561032557600080fd5b506103396103343660046140f3565b610c86565b005b34801561034757600080fd5b5061035b61035636600461414f565b610dbd565b6040519015158152602001610299565b34801561037757600080fd5b50610339610386366004614266565b610e33565b34801561039757600080fd5b506103396103a63660046142ac565b610f4f565b3480156103b757600080fd5b506103396103c6366004614317565b61103e565b3480156103d757600080fd5b506103eb6103e6366004614028565b611126565b6040516102999190614334565b34801561040457600080fd5b50610339610413366004614386565b611188565b34801561042457600080fd5b506103396104333660046143bf565b61125c565b34801561044457600080fd5b50610339610453366004614028565b611294565b6103396104663660046143dc565b6113d8565b34801561047757600080fd5b50610339610486366004614415565b6114a4565b34801561049757600080fd5b5061030b6104a6366004614466565b6115bf565b3480156104b757600080fd5b5061030b611929565b3480156104cc57600080fd5b506103396104db366004614547565b6119dc565b3480156104ec57600080fd5b506103396104fb366004614266565b611aa2565b34801561050c57600080fd5b5061052061051b366004614028565b611c1d565b604051610299919061459d565b34801561053957600080fd5b50610542611dae565b604051610299919061462a565b34801561055b57600080fd5b5061056f61056a366004614028565b611f1c565b604051610299919061468c565b34801561058857600080fd5b5061035b610597366004614317565b609d6020526000908152604090205460ff1681565b3480156105b857600080fd5b506105cc6105c736600461469f565b611ff2565b6040516001600160a01b039091168152602001610299565b3480156105f057600080fd5b506105cc6120db565b34801561060557600080fd5b5061030b6106143660046147d6565b612152565b34801561062557600080fd5b5061028c61247d565b34801561063a57600080fd5b50610339610649366004614028565b61248a565b34801561065a57600080fd5b506103eb6125c1565b34801561066f57600080fd5b5061068361067e3660046148d2565b612619565b6040516102999190614946565b34801561069c57600080fd5b506103eb6106ab366004614028565b612730565b3480156106bc57600080fd5b506103396106cb36600461499b565b612790565b3480156106dc57600080fd5b506103396106eb3660046140f3565b612869565b3480156106fc57600080fd5b5061035b61070b3660046149d7565b612968565b34801561071c57600080fd5b5061030b609a5481565b34801561073257600080fd5b50610339610741366004614a5b565b612aba565b34801561075257600080fd5b5061030b60a15481565b34801561076857600080fd5b5061077c610777366004614028565b612d23565b604051610299929190614a9d565b34801561079657600080fd5b5061030b6107a5366004614028565b612dc8565b3480156107b657600080fd5b5060995461035b9060ff1681565b3480156107d057600080fd5b506105cc6107df366004614028565b612de9565b3480156107f057600080fd5b506103396107ff366004614ab6565b612e13565b34801561081057600080fd5b5061033961081f366004614266565b612ff7565b34801561083057600080fd5b5061035b61083f366004614317565b609e6020526000908152604090205460ff1681565b34801561086057600080fd5b50609b546105cc906001600160a01b031681565b6097805461088190614bb5565b80601f01602080910402602001604051908101604052809291908181526020018280546108ad90614bb5565b80156108fa5780601f106108cf576101008083540402835291602001916108fa565b820191906000526020600020905b8154815290600101906020018083116108dd57829003601f168201915b505050505081565b60a0546060906001600160401b0381111561091f5761091f6141a3565b60405190808252806020026020018201604052801561097257816020015b6040805160808101825260608082526000602080840182905293830182905290820152825260001990920191018161093d5790505b50905060005b60a054811015610b3f57600060a0828154811061099757610997614be9565b600091825260208220015460408051608081018083526306fdde0360e01b905290516001600160a01b03909216935091829184916306fdde039160848086019291908187030181865afa1580156109f2573d6000803e3d6000fd5b505050506040513d6000823e601f3d908101601f19168201604052610a1a9190810190614bff565b815260200160a08481548110610a3257610a32614be9565b9060005260206000200160009054906101000a90046001600160a01b03166001600160a01b03168152602001826001600160a01b0316636465e69f6040518163ffffffff1660e01b8152600401600060405180830381865afa158015610a9c573d6000803e3d6000fd5b505050506040513d6000823e601f3d908101601f19168201604052610ac49190810190614bff565b8152602001609d600060a08681548110610ae057610ae0614be9565b60009182526020808320909101546001600160a01b0316835282019290925260400190205460ff16151590528351849084908110610b2057610b20614be9565b6020026020010181905250508080610b3790614c82565b915050610978565b5090565b60a460205260009081526040902080548190610b5e90614bb5565b80601f0160208091040260200160405190810160405280929190818152602001828054610b8a90614bb5565b8015610bd75780601f10610bac57610100808354040283529160200191610bd7565b820191906000526020600020905b815481529060010190602001808311610bba57829003601f168201915b505050505090806001018054610bec90614bb5565b80601f0160208091040260200160405190810160405280929190818152602001828054610c1890614bb5565b8015610c655780601f10610c3a57610100808354040283529160200191610c65565b820191906000526020600020905b815481529060010190602001808311610c4857829003601f168201915b50505050600283015460038401546004909401549293909290915060ff1685565b610cee84848080601f0160208091040260200160405190810160405280939291908181526020018383808284376000920191909152505060408051808201909152601181527041646452656d6f76654368616e6e656c7360781b602082015291506131de9050565b6001600160a01b0382166000908152609d602052604090205460ff16610d275760405163c1ef36f360e01b815260040160405180910390fd5b600081815260a260205260408120549003610d555760405163b810dc5d60e01b815260040160405180910390fd5b60405163c513be7760e01b81526001600160a01b0383169063c513be7790610d8590879087908690600401614cc4565b600060405180830381600087803b158015610d9f57600080fd5b505af1158015610db3573d6000803e3d6000fd5b5050505050505050565b6000805b60a054811015610e2b57610e0f60405180602001604052806000815250868686604051602001610df2929190614ce8565b604051602081830303815290604052610e0a90614cf8565b613232565b15610e1957600191505b80610e2381614c82565b915050610dc1565b509392505050565b610e6f604051806020016040528060008152506040518060400160405280601681526020016000805160206152198339815191528152506131de565b610e78816132eb565b609a548203610e9a57604051631eb49d6d60e11b815260040160405180910390fd5b600082815260a260205260408120549003610ec85760405163b810dc5d60e01b815260040160405180910390fd5b8051600003610eea57604051630e52390960e41b815260040160405180910390fd5b600082815260a260205260409020600101610f058282614d62565b5081336001600160a01b03167ff3c55faf0b13ffa681c984baddbb8ef7638e514188ea19bd6461d7f87b9c7953836098604051610f43929190614e9e565b60405180910390a35050565b610f91604051806020016040528060008152506040518060400160405280601181526020017041646452656d6f76654368616e6e656c7360781b8152506131de565b610f9b828261331c565b60008484604051602001610fb0929190614ce8565b60408051601f198184030181529181528151602092830120600081815260a4909352908220600201549092509003610ffb57604051636ddd9da960e01b815260040160405180910390fd5b600082900361101d57604051631eb49d6d60e11b815260040160405180910390fd5b600081815260a460205260409020611036838583614ec3565b505050505050565b6001600160a01b037f000000000000000000000000000000000000000000000000000000000000000016300361108f5760405162461bcd60e51b815260040161108690614f82565b60405180910390fd5b7f00000000000000000000000000000000000000000000000000000000000000006001600160a01b03166110d86000805160206151f9833981519152546001600160a01b031690565b6001600160a01b0316146110fe5760405162461bcd60e51b815260040161108690614fce565b61110781613531565b6040805160008082526020820190925261112391839190613567565b50565b6000818152609f602090815260409182902080548351818402810184019094528084526060939283018282801561117c57602002820191906000526020600020905b815481526020019060010190808311611168575b50505050509050919050565b6111be604051806020016040528060008152506040518060400160405280600581526020016427bbb732b960d91b8152506131de565b6111c7826136d7565b8080156111ec57506001600160a01b0382166000908152609d602052604090205460ff165b1561120a5760405163186abc9b60e01b815260040160405180910390fd5b8015801561123057506001600160a01b0382166000908152609e602052604090205460ff165b1561124e57604051631eb49d6d60e11b815260040160405180910390fd5b6112588282613768565b5050565b6112646138e9565b61128157604051631eb49d6d60e11b815260040160405180910390fd5b6099805460ff1916911515919091179055565b61129c6138e9565b6112b957604051631eb49d6d60e11b815260040160405180910390fd5b609a54156112da57604051631eb49d6d60e11b815260040160405180910390fd5b600081815260a2602052604081205490036113085760405163b810dc5d60e01b815260040160405180910390fd5b6000805b600083815260a360205260409020548110156113b3576040518060400160405280600581526020016427bbb732b960d91b815250604051602001611350919061501a565b60405160208183030381529060405261136890614cf8565b600084815260a36020526040902080548390811061138857611388614be9565b9060005260206000200154036113a157600191506113b3565b806113ab81614c82565b91505061130c565b50806113d257604051633e74bd6360e21b815260040160405180910390fd5b50609a55565b6001600160a01b037f00000000000000000000000000000000000000000000000000000000000000001630036114205760405162461bcd60e51b815260040161108690614f82565b7f00000000000000000000000000000000000000000000000000000000000000006001600160a01b03166114696000805160206151f9833981519152546001600160a01b031690565b6001600160a01b03161461148f5760405162461bcd60e51b815260040161108690614fce565b61149882613531565b61125882826001613567565b6114da604051806020016040528060008152506040518060400160405280600581526020016427bbb732b960d91b8152506131de565b6001600160a01b03821615806114f757506001600160a01b038116155b1561151557604051630e52390960e41b815260040160405180910390fd5b6001600160a01b0382166000908152609d602052604090205460ff1661154e5760405163c1ef36f360e01b815260040160405180910390fd5b604051631b2ce7f360e11b81526001600160a01b038281166004830152831690633659cfe690602401600060405180830381600087803b15801561159157600080fd5b505af19250505080156115a2575060015b61125857604051630e52390960e41b815260040160405180910390fd5b6000611603604051806020016040528060008152506040518060400160405280601181526020017041646452656d6f76654368616e6e656c7360781b8152506131de565b61160d858561331c565b600083604051602001611620919061501a565b60408051601f198184030181529181528151602092830120600081815260a49093529120600201549091501561166957604051630139324b60e41b815260040160405180910390fd5b6040518060a0016040528087878080601f016020809104026020016040519081016040528093929190818152602001838380828437600092018290525093855250505060208083018890526040808401869052426060850152608090930182905284825260a4905220815181906116e09082614d62565b50602082015160018201906116f59082614d62565b5060408201516002820155606082015160038201556080909101516004909101805460ff191691151591909117905560a5805460018101825560009182527fb29a2b3b6f2ff1b765777a231725941da5072cc4fcc30ac4a2ce09706e8ddeff018290555b60a05481101561191f57600060a0828154811061177857611778614be9565b600091825260209091200154609a5460405163c513be7760e01b81526001600160a01b039092169250829163c513be77916117b8918a9190600401615036565b600060405180830381600087803b1580156117d257600080fd5b505af11580156117e6573d6000803e3d6000fd5b5050505060005b855181101561190a57609a5486828151811061180b5761180b614be9565b602002602001015103156118f85760a2600087838151811061182f5761182f614be9565b60200260200101518152602001908152602001600020600001546000036118695760405163b810dc5d60e01b815260040160405180910390fd5b816001600160a01b031663c513be778888848151811061188b5761188b614be9565b60200260200101516040518363ffffffff1660e01b81526004016118b0929190615036565b600060405180830381600087803b1580156118ca57600080fd5b505af19250505080156118db575060015b6118f85760405163d9afe50760e01b815260040160405180910390fd5b8061190281614c82565b9150506117ed565b5050808061191790614c82565b915050611759565b5095945050505050565b6000306001600160a01b037f000000000000000000000000000000000000000000000000000000000000000016146119c95760405162461bcd60e51b815260206004820152603860248201527f555550535570677261646561626c653a206d757374206e6f742062652063616c60448201527f6c6564207468726f7567682064656c656761746563616c6c00000000000000006064820152608401611086565b506000805160206151f983398151915290565b611a1e604051806020016040528060008152506040518060400160405280601181526020017041646452656d6f76654368616e6e656c7360781b8152506131de565b60008383604051602001611a33929190614ce8565b60408051601f198184030181529181528151602092830120600081815260a4909352908220600201549092509003611a7e57604051636ddd9da960e01b815260040160405180910390fd5b600090815260a460205260409020600401805460ff19169115159190911790555050565b611ade604051806020016040528060008152506040518060400160405280601681526020016000805160206152198339815191528152506131de565b611b05816040518060400160405280600581526020016427bbb732b960d91b815250613970565b15611b2357604051631eb49d6d60e11b815260040160405180910390fd5b600082815260a260205260408120549003611b515760405163b810dc5d60e01b815260040160405180910390fd5b600081604051602001611b64919061501a565b604051602081830303815290604052611b7c90614cf8565b905060005b600084815260a36020526040902054811015611bf557600084815260a360205260409020805483919083908110611bba57611bba614be9565b906000526020600020015403611be357604051636571d65f60e01b815260040160405180910390fd5b80611bed81614c82565b915050611b81565b50600092835260a3602090815260408420805460018101825590855293209092019190915550565b6040805160a081018252606080825260208201819052600092820183905281018290526080810191909152600082815260a4602052604090819020815160a08101909252805482908290611c7090614bb5565b80601f0160208091040260200160405190810160405280929190818152602001828054611c9c90614bb5565b8015611ce95780601f10611cbe57610100808354040283529160200191611ce9565b820191906000526020600020905b815481529060010190602001808311611ccc57829003601f168201915b50505050508152602001600182018054611d0290614bb5565b80601f0160208091040260200160405190810160405280929190818152602001828054611d2e90614bb5565b8015611d7b5780601f10611d5057610100808354040283529160200191611d7b565b820191906000526020600020905b815481529060010190602001808311611d5e57829003601f168201915b5050509183525050600282015460208201526003820154604082015260049091015460ff16151560609091015292915050565b6060600060a1546001600160401b03811115611dcc57611dcc6141a3565b604051908082528060200260200182016040528015611e1257816020015b604080518082019091526000815260606020820152815260200190600190039081611dea5790505b50905060005b60a154811015611f165760a26000611e31836001615058565b815260200190815260200160002060405180604001604052908160008201548152602001600182018054611e6490614bb5565b80601f0160208091040260200160405190810160405280929190818152602001828054611e9090614bb5565b8015611edd5780601f10611eb257610100808354040283529160200191611edd565b820191906000526020600020905b815481529060010190602001808311611ec057829003601f168201915b505050505081525050828281518110611ef857611ef8614be9565b60200260200101819052508080611f0e90614c82565b915050611e18565b50919050565b60408051808201909152600081526060602082015260a2600083815260200190815260200160002060405180604001604052908160008201548152602001600182018054611f6990614bb5565b80601f0160208091040260200160405190810160405280929190818152602001828054611f9590614bb5565b8015611fe25780601f10611fb757610100808354040283529160200191611fe2565b820191906000526020600020905b815481529060010190602001808311611fc557829003601f168201915b5050505050815250509050919050565b60008060005b60a0548110156120d45761209260a0828154811061201857612018614be9565b600091825260208220015460408051636465e69f60e01b815290516001600160a01b0390921692636465e69f926004808401938290030181865afa158015612064573d6000803e3d6000fd5b505050506040513d6000823e601f3d908101601f1916820160405261208c9190810190614bff565b85613970565b156120c25760a081815481106120aa576120aa614be9565b6000918252602090912001546001600160a01b031691505b806120cc81614c82565b915050611ff8565b5092915050565b609b54609c546040516331a9108f60e11b815260048101919091526000916001600160a01b031690636352211e90602401602060405180830381865afa158015612129573d6000803e3d6000fd5b505050506040513d601f19601f8201168201806040525081019061214d919061506b565b905090565b6000612190604051806020016040528060008152506040518060400160405280601681526020016000805160206152198339815191528152506131de565b6121cf85858080601f0160208091040260200160405190810160405280939291908181526020018383808284376000920191909152506132eb92505050565b600060a1600081546121e090614c82565b91905081905590506000604051806040016040528083815260200188888080601f016020809104026020016040519081016040528093929190818152602001838380828437600092018290525093909452505084815260a2602090815260409091208351815590830151929350839290915060018201906122619082614d62565b5090505060005b855181101561235157609a54151580156122bd57506122bd86828151811061229257612292614be9565b60200260200101516040518060400160405280600581526020016427bbb732b960d91b815250613970565b156122db57604051631eb49d6d60e11b815260040160405180910390fd5b60008682815181106122ef576122ef614be9565b6020026020010151604051602001612307919061501a565b60405160208183030381529060405261231f90614cf8565b600085815260a3602090815260408220805460018101825590835291200155508061234981614c82565b915050612268565b5060005b845181101561242b57600085828151811061237257612372614be9565b6020026020010151600001519050600086838151811061239457612394614be9565b602002602001015160200151905060006001600160a01b0316826001600160a01b031614806123c257508051155b156123ce575050612419565b6001600160a01b0382166000908152609d602052604081205460ff161515900361240b5760405163c1ef36f360e01b815260040160405180910390fd5b6124168583836139ca565b50505b8061242381614c82565b915050612355565b5081336001600160a01b03167f39772407c6dd2e83adbd292cdfa17a6817c9a7500e56cfe57b7a82d797f8d39b8989609860405161246b93929190615088565b60405180910390a35095945050505050565b6098805461088190614bb5565b6124c6604051806020016040528060008152506040518060400160405280601681526020016000805160206152198339815191528152506131de565b609a5481036124e857604051631eb49d6d60e11b815260040160405180910390fd5b600081815260a2602052604081205490036125165760405163b810dc5d60e01b815260040160405180910390fd5b6000818152609f60205260409020541561254357604051633764405360e11b815260040160405180910390fd5b600081815260a260205260408120818155906125626001830182613eb3565b5050600081815260a36020526040812061257b91613eed565b80336001600160a01b03167f1d5667a301e36f2d5b1ee32b7f187b0adb46c706297242fa945d3fed1e7f8a1960986040516125b691906150b8565b60405180910390a350565b606060a580548060200260200160405190810160405280929190818152602001828054801561260f57602002820191906000526020600020905b8154815260200190600101908083116125fb575b5050505050905090565b6060816001600160401b03811115612633576126336141a3565b60405190808252806020026020018201604052801561266657816020015b60608152602001906001900390816126515790505b50905060005b828110156120d4576000803086868581811061268a5761268a614be9565b905060200281019061269c91906150cb565b6040516126aa929190614ce8565b600060405180830381855af49150503d80600081146126e5576040519150601f19603f3d011682016040523d82523d6000602084013e6126ea565b606091505b5091509150816126fd576126fd81613b3a565b8084848151811061271057612710614be9565b60200260200101819052505050808061272890614c82565b91505061266c565b600081815260a3602090815260409182902080548351818402810184019094528084526060939283018282801561117c57602002820191906000526020600020908154815260200190600101908083116111685750505050509050919050565b6127cc604051806020016040528060008152506040518060400160405280601681526020016000805160206152198339815191528152506131de565b80516001600160a01b03166000908152609d602052604090205460ff166128065760405163c1ef36f360e01b815260040160405180910390fd5b600082815260a2602052604081205490036128345760405163b810dc5d60e01b815260040160405180910390fd5b609a54820361285657604051631eb49d6d60e11b815260040160405180910390fd5b61125882826000015183602001516139ca565b6128d184848080601f0160208091040260200160405190810160405280939291908181526020018383808284376000920191909152505060408051808201909152601181527041646452656d6f76654368616e6e656c7360781b602082015291506131de9050565b6001600160a01b0382166000908152609d602052604090205460ff1661290a5760405163c1ef36f360e01b815260040160405180910390fd5b600081815260a2602052604081205490036129385760405163b810dc5d60e01b815260040160405180910390fd5b604051637997c1e760e11b81526001600160a01b0383169063f32f83ce90610d8590879087908690600401614cc4565b6000841580612975575081155b8061298757506001600160a01b038416155b156129a557604051630e52390960e41b815260040160405180910390fd5b600086866040516020016129ba929190614ce8565b60408051601f198184030181529181528151602092830120600081815260a4909352908220600201549092509003612a0557604051636ddd9da960e01b815260040160405180910390fd5b600081815260a4602052604090206004015460ff1615612a3857604051631eb49d6d60e11b815260040160405180910390fd5b60005b60a054811015612aaf57612a9388888080601f016020809104026020016040519081016040528093929190818152602001838380828437600092019190915250506040518a9250610df2915089908990602001614ce8565b15612a9d57600192505b80612aa781614c82565b915050612a3b565b505095945050505050565b612af6604051806020016040528060008152506040518060400160405280601681526020016000805160206152198339815191528152506131de565b609a548203612b1857604051631eb49d6d60e11b815260040160405180910390fd5b609d6000612b296020840184614317565b6001600160a01b0316815260208101919091526040016000205460ff16612b635760405163c1ef36f360e01b815260040160405180910390fd5b600082815260a260205260408120549003612b915760405163b810dc5d60e01b815260040160405180910390fd5b600082612ba160208401846150cb565b604051602001612bb393929190615111565b60408051601f1981840301815291815281516020928301206000868152609f909352908220909250905b8154811015612c9157818181548110612bf857612bf8614be9565b90600052602060002001548303612c7f5781548290612c199060019061512b565b81548110612c2957612c29614be9565b9060005260206000200154828281548110612c4657612c46614be9565b906000526020600020018190555081805480612c6457612c6461513e565b60019003818190600052602060002001600090559055612c91565b80612c8981614c82565b915050612bdd565b50612c9f6020840184614317565b6001600160a01b031663fa6d1adf85612cbb60208701876150cb565b6040518463ffffffff1660e01b8152600401612cd993929190615154565b6020604051808303816000875af1158015612cf8573d6000803e3d6000fd5b505050506040513d601f19601f82011682018060405250810190612d1c919061516e565b5050505050565b60a26020526000908152604090208054600182018054919291612d4590614bb5565b80601f0160208091040260200160405190810160405280929190818152602001828054612d7190614bb5565b8015612dbe5780601f10612d9357610100808354040283529160200191612dbe565b820191906000526020600020905b815481529060010190602001808311612da157829003601f168201915b5050505050905082565b60a58181548110612dd857600080fd5b600091825260209091200154905081565b60a08181548110612df957600080fd5b6000918252602090912001546001600160a01b0316905081565b600054610100900460ff1615808015612e335750600054600160ff909116105b80612e4d5750303b158015612e4d575060005460ff166001145b612eb05760405162461bcd60e51b815260206004820152602e60248201527f496e697469616c697a61626c653a20636f6e747261637420697320616c72656160448201526d191e481a5b9a5d1a585b1a5e995960921b6064820152608401611086565b6000805460ff191660011790558015612ed3576000805461ff0019166101001790555b612edb613c07565b612ee3613c07565b6097612eef8782614d62565b506098612efc8682614d62565b50609b80546001600160a01b0319166001600160a01b038516179055609c82905560005b8451811015612fa957612f4d858281518110612f3e57612f3e614be9565b60200260200101516001613768565b6001609e6000878481518110612f6557612f65614be9565b6020908102919091018101516001600160a01b03168252810191909152604001600020805460ff191691151591909117905580612fa181614c82565b915050612f20565b508015611036576000805461ff0019169055604051600181527f7f26b83ff96e1f2b6a682f133852f6798a09c465da95921460cefb38474024989060200160405180910390a1505050505050565b613033604051806020016040528060008152506040518060400160405280601681526020016000805160206152198339815191528152506131de565b61305a816040518060400160405280600581526020016427bbb732b960d91b815250613970565b1561307857604051631eb49d6d60e11b815260040160405180910390fd5b600082815260a2602052604081205490036130a65760405163b810dc5d60e01b815260040160405180910390fd5b6000816040516020016130b9919061501a565b6040516020818303038152906040526130d190614cf8565b905060005b600084815260a360205260409020548110156131d857600084815260a36020526040902080548391908390811061310f5761310f614be9565b9060005260206000200154036131c657600084815260a360205260409020805461313b9060019061512b565b8154811061314b5761314b614be9565b906000526020600020015460a36000868152602001908152602001600020828154811061317a5761317a614be9565b906000526020600020018190555060a360008581526020019081526020016000208054806131aa576131aa61513e565b6001900381819060005260206000200160009055905550505050565b806131d081614c82565b9150506130d6565b50505050565b6131e66138e9565b80613210575060995460ff161580156132105750613210823383604051602001610df2919061501a565b15613219575050565b604051631eb49d6d60e11b815260040160405180910390fd5b6000805b60a054811015610e2b5760a0818154811061325357613253614be9565b60009182526020909120015460405162169d5560e31b81526001600160a01b039091169062b4eaa89061328e90889088908890600401615187565b602060405180830381865afa1580156132ab573d6000803e3d6000fd5b505050506040513d601f19601f820116820180604052508101906132cf91906151b5565b156132d957600191505b806132e381614c82565b915050613236565b80518190600211806132fe575080516020105b156112585760405163354b556f60e11b815260040160405180910390fd5b600082828080601f01602080910402602001604051908101604052809392919081815260200183838082843760009201919091525050825192935050600290911090508061336b575080516020105b156133895760405163354b556f60e11b815260040160405180910390fd5b805160005b81811015612d1c57600360fc1b8382815181106133ad576133ad614be9565b01602001516001600160f81b03191610806133eb5750603d60f91b8382815181106133da576133da614be9565b01602001516001600160f81b031916115b806134475750603960f81b83828151811061340857613408614be9565b01602001516001600160f81b0319161180156134475750606160f81b83828151811061343657613436614be9565b01602001516001600160f81b031916105b8015613478575082818151811061346057613460614be9565b6020910101516001600160f81b031916601760f91b14155b80156134a9575082818151811061349157613491614be9565b6020910101516001600160f81b031916602d60f81b14155b80156134da57508281815181106134c2576134c2614be9565b6020910101516001600160f81b031916605f60f81b14155b801561350b57508281815181106134f3576134f3614be9565b6020910101516001600160f81b031916600160fd1b14155b156135295760405163f8fa659760e01b815260040160405180910390fd5b60010161338e565b611123604051806020016040528060008152506040518060400160405280600581526020016427bbb732b960d91b8152506131de565b7f4910fdfa16fed3260ed0e7147f7cc6da11a60208b5b9406d12a635614ffd91435460ff161561359f5761359a83613c74565b505050565b826001600160a01b03166352d1902d6040518163ffffffff1660e01b8152600401602060405180830381865afa9250505080156135f9575060408051601f3d908101601f191682019092526135f69181019061516e565b60015b61365c5760405162461bcd60e51b815260206004820152602e60248201527f45524331393637557067726164653a206e657720696d706c656d656e7461746960448201526d6f6e206973206e6f74205555505360901b6064820152608401611086565b6000805160206151f983398151915281146136cb5760405162461bcd60e51b815260206004820152602960248201527f45524331393637557067726164653a20756e737570706f727465642070726f786044820152681a58589b195555525160ba1b6064820152608401611086565b5061359a838383613d10565b6040516301ffc9a760e01b815263e5e65adf60e01b60048201526001600160a01b038216906301ffc9a790602401602060405180830381865afa158015613722573d6000803e3d6000fd5b505050506040513d601f19601f8201168201806040525081019061374691906151b5565b151560000361112357604051636d9250f160e11b815260040160405180910390fd5b6001600160a01b0382166000908152609d60205260409020805460ff191682158015919091179091556137e65760a080546001810182556000919091527f78fdc8d422c49ced035a9edf18d00d3c6a8d81df210f3e5e448e045e77b41e880180546001600160a01b0384166001600160a01b03199091161790555050565b60005b60a05481101561359a5760a0818154811061380657613806614be9565b6000918252602090912001546001600160a01b03908116908416036138d75760a080546138359060019061512b565b8154811061384557613845614be9565b60009182526020909120015460a080546001600160a01b03909216918390811061387157613871614be9565b9060005260206000200160006101000a8154816001600160a01b0302191690836001600160a01b0316021790555060a08054806138b0576138b061513e565b600082815260209020810160001990810180546001600160a01b0319169055019055505050565b806138e181614c82565b9150506137e9565b600033609b54609c546040516331a9108f60e11b815260048101919091526001600160a01b039283169290911690636352211e90602401602060405180830381865afa15801561393d573d6000803e3d6000fd5b505050506040513d601f19601f82011682018060405250810190613961919061506b565b6001600160a01b031614905090565b600081604051602001613983919061501a565b60405160208183030381529060405280519060200120836040516020016139aa919061501a565b604051602081830303815290604052805190602001201490505b92915050565b600083826040516020016139df9291906151d2565b60408051601f1981840301815282825280516020918201206000888152609f835283812080548085028701850190955284865291955093929091830182828015613a4857602002820191906000526020600020905b815481526020019060010190808311613a34575b5050505050905060005b8151811015613aa65782828281518110613a6e57613a6e614be9565b602002602001015103613a945760405163c5c9ad6760e01b815260040160405180910390fd5b80613a9e81614c82565b915050613a52565b506000858152609f602090815260408083208054600181018255908452919092200183905551633be2f95d60e21b81526001600160a01b0385169063ef8be57490613af79088908790600401614a9d565b6020604051808303816000875af1158015613b16573d6000803e3d6000fd5b505050506040513d601f19601f82011682018060405250810190611036919061516e565b600481511015613b7f5760405162461bcd60e51b815260206004820152601060248201526f1d5b9a185b991b1959081c995d995c9d60821b6044820152606401611086565b602081015163b1b7848f60e01b6001600160e01b0319821601613bfe57604080518082018252600e81526d70616e69636b65643a2030785f5f60901b602082018181526024860151600481811c600f908116603090810160081b9184160117909317909152925162461bcd60e51b815291929161108691849101613f6c565b81518060208401fd5b600054610100900460ff16613c725760405162461bcd60e51b815260206004820152602b60248201527f496e697469616c697a61626c653a20636f6e7472616374206973206e6f74206960448201526a6e697469616c697a696e6760a81b6064820152608401611086565b565b6001600160a01b0381163b613ce15760405162461bcd60e51b815260206004820152602d60248201527f455243313936373a206e657720696d706c656d656e746174696f6e206973206e60448201526c1bdd08184818dbdb9d1c9858dd609a1b6064820152608401611086565b6000805160206151f983398151915280546001600160a01b0319166001600160a01b0392909216919091179055565b613d1983613d35565b600082511180613d265750805b1561359a576131d88383613d75565b613d3e81613c74565b6040516001600160a01b038216907fbc7cd75a20ee27fd9adebab32041f755214dbc6bffa90cc0225b39da2e5c2d3b90600090a250565b60606001600160a01b0383163b613ddd5760405162461bcd60e51b815260206004820152602660248201527f416464726573733a2064656c65676174652063616c6c20746f206e6f6e2d636f6044820152651b9d1c9858dd60d21b6064820152608401611086565b600080846001600160a01b031684604051613df8919061501a565b600060405180830381855af49150503d8060008114613e33576040519150601f19603f3d011682016040523d82523d6000602084013e613e38565b606091505b5091509150613e60828260405180606001604052806027815260200161523960279139613e69565b95945050505050565b60608315613e78575081613e82565b613e828383613e89565b9392505050565b815115613e995781518083602001fd5b8060405162461bcd60e51b81526004016110869190613f6c565b508054613ebf90614bb5565b6000825580601f10613ecf575050565b601f0160209004906000526020600020908101906111239190613f07565b508054600082559060005260206000209081019061112391905b5b80821115610b3f5760008155600101613f08565b60005b83811015613f37578181015183820152602001613f1f565b50506000910152565b60008151808452613f58816020860160208601613f1c565b601f01601f19169290920160200192915050565b602081526000613e826020830184613f40565b60006020808301818452808551808352604092508286019150828160051b87010184880160005b8381101561401a57603f19898403018552815160808151818652613fcc82870182613f40565b838b01516001600160a01b0316878c0152898401518782038b8901529092509050613ff78282613f40565b606093840151151596909301959095525094870194925090860190600101613fa6565b509098975050505050505050565b60006020828403121561403a57600080fd5b5035919050565b60a08152600061405460a0830188613f40565b82810360208401526140668188613f40565b604084019690965250506060810192909252151560809091015292915050565b60008083601f84011261409857600080fd5b5081356001600160401b038111156140af57600080fd5b6020830191508360208285010111156140c757600080fd5b9250929050565b6001600160a01b038116811461112357600080fd5b80356140ee816140ce565b919050565b6000806000806060858703121561410957600080fd5b84356001600160401b0381111561411f57600080fd5b61412b87828801614086565b909550935050602085013561413f816140ce565b9396929550929360400135925050565b60008060006040848603121561416457600080fd5b833561416f816140ce565b925060208401356001600160401b0381111561418a57600080fd5b61419686828701614086565b9497909650939450505050565b634e487b7160e01b600052604160045260246000fd5b604051601f8201601f191681016001600160401b03811182821017156141e1576141e16141a3565b604052919050565b60006001600160401b03821115614202576142026141a3565b50601f01601f191660200190565b600082601f83011261422157600080fd5b813561423461422f826141e9565b6141b9565b81815284602083860101111561424957600080fd5b816020850160208301376000918101602001919091529392505050565b6000806040838503121561427957600080fd5b8235915060208301356001600160401b0381111561429657600080fd5b6142a285828601614210565b9150509250929050565b600080600080604085870312156142c257600080fd5b84356001600160401b03808211156142d957600080fd5b6142e588838901614086565b909650945060208701359150808211156142fe57600080fd5b5061430b87828801614086565b95989497509550505050565b60006020828403121561432957600080fd5b8135613e82816140ce565b6020808252825182820181905260009190848201906040850190845b8181101561436c57835183529284019291840191600101614350565b50909695505050505050565b801515811461112357600080fd5b6000806040838503121561439957600080fd5b82356143a4816140ce565b915060208301356143b481614378565b809150509250929050565b6000602082840312156143d157600080fd5b8135613e8281614378565b600080604083850312156143ef57600080fd5b82356143fa816140ce565b915060208301356001600160401b0381111561429657600080fd5b6000806040838503121561442857600080fd5b8235614433816140ce565b915060208301356143b4816140ce565b60006001600160401b0382111561445c5761445c6141a3565b5060051b60200190565b6000806000806060858703121561447c57600080fd5b84356001600160401b038082111561449357600080fd5b61449f88838901614086565b90965094506020915086820135818111156144b957600080fd5b6144c589828a01614210565b9450506040870135818111156144da57600080fd5b87019050601f810188136144ed57600080fd5b80356144fb61422f82614443565b81815260059190911b8201830190838101908a83111561451a57600080fd5b928401925b828410156145385783358252928401929084019061451f565b979a9699509497505050505050565b60008060006040848603121561455c57600080fd5b83356001600160401b0381111561457257600080fd5b61457e86828701614086565b909450925050602084013561459281614378565b809150509250925092565b602081526000825160a060208401526145b960c0840182613f40565b90506020840151601f198483030160408501526145d68282613f40565b91505060408401516060840152606084015160808401526080840151151560a08401528091505092915050565b8051825260006020820151604060208501526146226040850182613f40565b949350505050565b6000602080830181845280855180835260408601915060408160051b870101925083870160005b8281101561467f57603f1988860301845261466d858351614603565b94509285019290850190600101614651565b5092979650505050505050565b602081526000613e826020830184614603565b6000602082840312156146b157600080fd5b81356001600160401b038111156146c757600080fd5b61462284828501614210565b6000604082840312156146e557600080fd5b604051604081016001600160401b038282108183111715614708576147086141a3565b816040528293508435915061471c826140ce565b9082526020840135908082111561473257600080fd5b5061473f85828601614210565b6020830152505092915050565b600082601f83011261475d57600080fd5b8135602061476d61422f83614443565b82815260059290921b8401810191818101908684111561478c57600080fd5b8286015b848110156147cb5780356001600160401b038111156147af5760008081fd5b6147bd8986838b01016146d3565b845250918301918301614790565b509695505050505050565b600080600080606085870312156147ec57600080fd5b84356001600160401b038082111561480357600080fd5b61480f88838901614086565b909650945060209150868201358181111561482957600080fd5b8701601f8101891361483a57600080fd5b803561484861422f82614443565b81815260059190911b8201840190848101908b83111561486757600080fd5b8584015b8381101561489f578035868111156148835760008081fd5b6148918e8983890101614210565b84525091860191860161486b565b50965050505060408701359150808211156148b957600080fd5b506148c68782880161474c565b91505092959194509250565b600080602083850312156148e557600080fd5b82356001600160401b03808211156148fc57600080fd5b818501915085601f83011261491057600080fd5b81358181111561491f57600080fd5b8660208260051b850101111561493457600080fd5b60209290920196919550909350505050565b6000602080830181845280855180835260408601915060408160051b870101925083870160005b8281101561467f57603f19888603018452614989858351613f40565b9450928501929085019060010161496d565b600080604083850312156149ae57600080fd5b8235915060208301356001600160401b038111156149cb57600080fd5b6142a2858286016146d3565b6000806000806000606086880312156149ef57600080fd5b85356001600160401b0380821115614a0657600080fd5b614a1289838a01614086565b909750955060208801359150614a27826140ce565b90935060408701359080821115614a3d57600080fd5b50614a4a88828901614086565b969995985093965092949392505050565b60008060408385031215614a6e57600080fd5b8235915060208301356001600160401b03811115614a8b57600080fd5b8301604081860312156143b457600080fd5b8281526040602082015260006146226040830184613f40565b600080600080600060a08688031215614ace57600080fd5b85356001600160401b0380821115614ae557600080fd5b614af189838a01614210565b9650602091508188013581811115614b0857600080fd5b614b148a828b01614210565b965050604088013581811115614b2957600080fd5b88019050601f81018913614b3c57600080fd5b8035614b4a61422f82614443565b81815260059190911b8201830190838101908b831115614b6957600080fd5b928401925b82841015614b90578335614b81816140ce565b82529284019290840190614b6e565b8097505050505050614ba4606087016140e3565b949793965091946080013592915050565b600181811c90821680614bc957607f821691505b602082108103611f1657634e487b7160e01b600052602260045260246000fd5b634e487b7160e01b600052603260045260246000fd5b600060208284031215614c1157600080fd5b81516001600160401b03811115614c2757600080fd5b8201601f81018413614c3857600080fd5b8051614c4661422f826141e9565b818152856020838501011115614c5b57600080fd5b613e60826020830160208601613f1c565b634e487b7160e01b600052601160045260246000fd5b600060018201614c9457614c94614c6c565b5060010190565b81835281816020850137506000828201602090810191909152601f909101601f19169091010190565b604081526000614cd8604083018587614c9b565b9050826020830152949350505050565b8183823760009101908152919050565b80516020808301519190811015611f165760001960209190910360031b1b16919050565b601f82111561359a57600081815260208120601f850160051c81016020861015614d435750805b601f850160051c820191505b8181101561103657828155600101614d4f565b81516001600160401b03811115614d7b57614d7b6141a3565b614d8f81614d898454614bb5565b84614d1c565b602080601f831160018114614dc45760008415614dac5750858301515b600019600386901b1c1916600185901b178555611036565b600085815260208120601f198616915b82811015614df357888601518255948401946001909101908401614dd4565b5085821015614e115787850151600019600388901b60f8161c191681555b5050505050600190811b01905550565b60008154614e2e81614bb5565b808552602060018381168015614e4b5760018114614e6557614e93565b60ff1985168884015283151560051b880183019550614e93565b866000528260002060005b85811015614e8b5781548a8201860152908301908401614e70565b890184019650505b505050505092915050565b604081526000614eb16040830185613f40565b8281036020840152613e608185614e21565b6001600160401b03831115614eda57614eda6141a3565b614eee83614ee88354614bb5565b83614d1c565b6000601f841160018114614f225760008515614f0a5750838201355b600019600387901b1c1916600186901b178355612d1c565b600083815260209020601f19861690835b82811015614f535786850135825560209485019460019092019101614f33565b5086821015614f705760001960f88860031b161c19848701351681555b505060018560011b0183555050505050565b6020808252602c908201527f46756e6374696f6e206d7573742062652063616c6c6564207468726f7567682060408201526b19195b1959d85d1958d85b1b60a21b606082015260800190565b6020808252602c908201527f46756e6374696f6e206d7573742062652063616c6c6564207468726f7567682060408201526b6163746976652070726f787960a01b606082015260800190565b6000825161502c818460208701613f1c565b9190910192915050565b6040815260006150496040830185613f40565b90508260208301529392505050565b808201808211156139c4576139c4614c6c565b60006020828403121561507d57600080fd5b8151613e82816140ce565b60408152600061509c604083018587614c9b565b82810360208401526150ae8185614e21565b9695505050505050565b602081526000613e826020830184614e21565b6000808335601e198436030181126150e257600080fd5b8301803591506001600160401b038211156150fc57600080fd5b6020019150368190038213156140c757600080fd5b838152818360208301376000910160200190815292915050565b818103818111156139c4576139c4614c6c565b634e487b7160e01b600052603160045260246000fd5b838152604060208201526000613e60604083018486614c9b565b60006020828403121561518057600080fd5b5051919050565b60608152600061519a6060830186613f40565b6001600160a01b039490941660208301525060400152919050565b6000602082840312156151c757600080fd5b8151613e8281614378565b828152600082516151ea816020850160208701613f1c565b91909101602001939250505056fe360894a13ba1a3210667c828492db98dca3e2076cc3735a920a3ca505d382bbc4d6f6469667953706163655065726d697373696f6e7300000000000000000000416464726573733a206c6f772d6c6576656c2064656c65676174652063616c6c206661696c6564a26469706673582212206ace3eaa4014d65b0996184a2a824e83c040966be96973839543025b9514b89a64736f6c63430008110033",
    "linkReferences": {}
  },
  "methodIdentifiers": {
    "addPermissionToRole(uint256,string)": "66fb345c",
    "addRoleToChannel(string,address,uint256)": "1dea616a",
    "addRoleToEntitlement(uint256,(address,bytes))": "ba201ba8",
    "channels(uint256)": "e5949b5d",
    "channelsByHash(bytes32)": "129ab3c8",
    "createChannel(string,string,uint256[])": "51f83cea",
    "createRole(string,string[],(address,bytes)[])": "8fcd793d",
    "defaultEntitlements(address)": "fa6433c5",
    "disabled()": "ee070805",
    "entitlements(uint256)": "f28f9b56",
    "getChannelByHash(bytes32)": "703511f8",
    "getChannels()": "9575f6ac",
    "getEntitlementByModuleType(string)": "870b9464",
    "getEntitlementIdsByRoleId(uint256)": "42486e49",
    "getEntitlementModules()": "0d029f75",
    "getPermissionsByRoleId(uint256)": "b4264233",
    "getRoleById(uint256)": "784c872b",
    "getRoles()": "71061398",
    "hasEntitlement(address)": "7f8d06d0",
    "initialize(string,string,address[],address,uint256)": "f3ce6a5b",
    "isEntitledToChannel(string,address,string)": "cea632bc",
    "isEntitledToSpace(address,string)": "20759f9e",
    "multicall(bytes[])": "ac9650d8",
    "name()": "06fdde03",
    "networkId()": "9025e64c",
    "owner()": "8da5cb5b",
    "ownerRoleId()": "d1a6a961",
    "proxiableUUID()": "52d1902d",
    "removePermissionFromRole(uint256,string)": "f740bb6b",
    "removeRole(uint256)": "92691821",
    "removeRoleFromChannel(string,address,uint256)": "baaf3d57",
    "removeRoleFromEntitlement(uint256,(address,bytes))": "dba81864",
    "roleCount()": "ddf96358",
    "rolesById(uint256)": "e5894ef4",
    "setChannelAccess(string,bool)": "5de151b8",
    "setEntitlementModule(address,bool)": "441555e5",
    "setOwnerRoleId(uint256)": "4999ab16",
    "setSpaceAccess(bool)": "446dc22e",
    "token()": "fc0c546a",
    "tokenId()": "17d70f7c",
    "updateChannel(string,string)": "34a1dd26",
    "updateRole(uint256,string)": "32e704cc",
    "upgradeEntitlement(address,address)": "519607f2",
    "upgradeTo(address)": "3659cfe6",
    "upgradeToAndCall(address,bytes)": "4f1ef286"
  },
  "id": 13
}