{
  "abi": [
    {
      "inputs": [],
      "name": "InvalidParameters",
      "type": "error"
    },
    {
      "inputs": [],
      "name": "NameContainsInvalidCharacters",
      "type": "error"
    },
    {
      "inputs": [],
      "name": "NameLengthInvalid",
      "type": "error"
    },
    {
      "inputs": [],
      "name": "PermissionAlreadyExists",
      "type": "error"
    },
    {
      "inputs": [],
      "name": "SpaceAlreadyRegistered",
      "type": "error"
    },
    {
      "anonymous": false,
      "inputs": [
        {
          "indexed": false,
          "internalType": "address",
          "name": "previousAdmin",
          "type": "address"
        },
        {
          "indexed": false,
          "internalType": "address",
          "name": "newAdmin",
          "type": "address"
        }
      ],
      "name": "AdminChanged",
      "type": "event"
    },
    {
      "anonymous": false,
      "inputs": [
        {
          "indexed": true,
          "internalType": "address",
          "name": "beacon",
          "type": "address"
        }
      ],
      "name": "BeaconUpgraded",
      "type": "event"
    },
    {
      "anonymous": false,
      "inputs": [
        {
          "indexed": false,
          "internalType": "uint8",
          "name": "version",
          "type": "uint8"
        }
      ],
      "name": "Initialized",
      "type": "event"
    },
    {
      "anonymous": false,
      "inputs": [
        {
          "indexed": true,
          "internalType": "address",
          "name": "previousOwner",
          "type": "address"
        },
        {
          "indexed": true,
          "internalType": "address",
          "name": "newOwner",
          "type": "address"
        }
      ],
      "name": "OwnershipTransferred",
      "type": "event"
    },
    {
      "anonymous": false,
      "inputs": [
        {
          "indexed": true,
          "internalType": "address",
          "name": "implementation",
          "type": "address"
        }
      ],
      "name": "Upgraded",
      "type": "event"
    },
    {
      "inputs": [],
      "name": "SPACE_IMPLEMENTATION_ADDRESS",
      "outputs": [
        {
          "internalType": "address",
          "name": "",
          "type": "address"
        }
      ],
      "stateMutability": "view",
      "type": "function"
    },
    {
      "inputs": [],
      "name": "SPACE_TOKEN_ADDRESS",
      "outputs": [
        {
          "internalType": "address",
          "name": "",
          "type": "address"
        }
      ],
      "stateMutability": "view",
      "type": "function"
    },
    {
      "inputs": [],
      "name": "TOKEN_IMPLEMENTATION_ADDRESS",
      "outputs": [
        {
          "internalType": "address",
          "name": "",
          "type": "address"
        }
      ],
      "stateMutability": "view",
      "type": "function"
    },
    {
      "inputs": [],
      "name": "USER_IMPLEMENTATION_ADDRESS",
      "outputs": [
        {
          "internalType": "address",
          "name": "",
          "type": "address"
        }
      ],
      "stateMutability": "view",
      "type": "function"
    },
    {
      "inputs": [
        {
          "internalType": "string[]",
          "name": "_permissions",
          "type": "string[]"
        }
      ],
      "name": "addOwnerPermissions",
      "outputs": [],
      "stateMutability": "nonpayable",
      "type": "function"
    },
    {
      "inputs": [
        {
          "internalType": "string",
          "name": "spaceName",
          "type": "string"
        },
        {
          "internalType": "string",
          "name": "spaceNetworkId",
          "type": "string"
        },
        {
          "internalType": "string",
          "name": "spaceMetadata",
          "type": "string"
        },
        {
          "internalType": "string[]",
          "name": "_everyonePermissions",
          "type": "string[]"
        },
        {
          "components": [
            {
              "internalType": "string",
              "name": "roleName",
              "type": "string"
            },
            {
              "internalType": "string[]",
              "name": "permissions",
              "type": "string[]"
            },
            {
              "components": [
                {
                  "internalType": "address",
                  "name": "contractAddress",
                  "type": "address"
                },
                {
                  "internalType": "uint256",
                  "name": "quantity",
                  "type": "uint256"
                },
                {
                  "internalType": "bool",
                  "name": "isSingleToken",
                  "type": "bool"
                },
                {
                  "internalType": "uint256[]",
                  "name": "tokenIds",
                  "type": "uint256[]"
                }
              ],
              "internalType": "struct DataTypes.ExternalToken[]",
              "name": "tokens",
              "type": "tuple[]"
            },
            {
              "internalType": "address[]",
              "name": "users",
              "type": "address[]"
            }
          ],
          "internalType": "struct DataTypes.CreateSpaceExtraEntitlements",
          "name": "_extraEntitlements",
          "type": "tuple"
        }
      ],
      "name": "createSpace",
      "outputs": [
        {
          "internalType": "address",
          "name": "_spaceAddress",
          "type": "address"
        }
      ],
      "stateMutability": "nonpayable",
      "type": "function"
    },
    {
      "inputs": [],
      "name": "getOwnerPermissions",
      "outputs": [
        {
          "internalType": "string[]",
          "name": "",
          "type": "string[]"
        }
      ],
      "stateMutability": "view",
      "type": "function"
    },
    {
      "inputs": [
        {
          "internalType": "string",
          "name": "spaceNetworkId",
          "type": "string"
        }
      ],
      "name": "getSpaceAddressByNetworkId",
      "outputs": [
        {
          "internalType": "address",
          "name": "",
          "type": "address"
        }
      ],
      "stateMutability": "view",
      "type": "function"
    },
    {
      "inputs": [
        {
          "internalType": "string",
          "name": "spaceNetworkId",
          "type": "string"
        }
      ],
      "name": "getTokenIdByNetworkId",
      "outputs": [
        {
          "internalType": "uint256",
          "name": "",
          "type": "uint256"
        }
      ],
      "stateMutability": "view",
      "type": "function"
    },
    {
      "inputs": [
        {
          "internalType": "address",
          "name": "_space",
          "type": "address"
        },
        {
          "internalType": "address",
          "name": "_tokenEntitlement",
          "type": "address"
        },
        {
          "internalType": "address",
          "name": "_userEntitlement",
          "type": "address"
        },
        {
          "internalType": "address",
          "name": "_spaceToken",
          "type": "address"
        },
        {
          "internalType": "string[]",
          "name": "_permissions",
          "type": "string[]"
        }
      ],
      "name": "initialize",
      "outputs": [],
      "stateMutability": "nonpayable",
      "type": "function"
    },
    {
      "inputs": [],
      "name": "owner",
      "outputs": [
        {
          "internalType": "address",
          "name": "",
          "type": "address"
        }
      ],
      "stateMutability": "view",
      "type": "function"
    },
    {
      "inputs": [
        {
          "internalType": "uint256",
          "name": "",
          "type": "uint256"
        }
      ],
      "name": "ownerPermissions",
      "outputs": [
        {
          "internalType": "string",
          "name": "",
          "type": "string"
        }
      ],
      "stateMutability": "view",
      "type": "function"
    },
    {
      "inputs": [],
      "name": "proxiableUUID",
      "outputs": [
        {
          "internalType": "bytes32",
          "name": "",
          "type": "bytes32"
        }
      ],
      "stateMutability": "view",
      "type": "function"
    },
    {
      "inputs": [],
      "name": "renounceOwnership",
      "outputs": [],
      "stateMutability": "nonpayable",
      "type": "function"
    },
    {
      "inputs": [
        {
          "internalType": "bytes32",
          "name": "",
          "type": "bytes32"
        }
      ],
      "name": "spaceByHash",
      "outputs": [
        {
          "internalType": "address",
          "name": "",
          "type": "address"
        }
      ],
      "stateMutability": "view",
      "type": "function"
    },
    {
      "inputs": [
        {
          "internalType": "bytes32",
          "name": "",
          "type": "bytes32"
        }
      ],
      "name": "tokenByHash",
      "outputs": [
        {
          "internalType": "uint256",
          "name": "",
          "type": "uint256"
        }
      ],
      "stateMutability": "view",
      "type": "function"
    },
    {
      "inputs": [
        {
          "internalType": "address",
          "name": "newOwner",
          "type": "address"
        }
      ],
      "name": "transferOwnership",
      "outputs": [],
      "stateMutability": "nonpayable",
      "type": "function"
    },
    {
      "inputs": [
        {
          "internalType": "address",
          "name": "_space",
          "type": "address"
        },
        {
          "internalType": "address",
          "name": "_tokenEntitlement",
          "type": "address"
        },
        {
          "internalType": "address",
          "name": "_userEntitlement",
          "type": "address"
        }
      ],
      "name": "updateImplementations",
      "outputs": [],
      "stateMutability": "nonpayable",
      "type": "function"
    },
    {
      "inputs": [
        {
          "internalType": "address",
          "name": "newImplementation",
          "type": "address"
        }
      ],
      "name": "upgradeTo",
      "outputs": [],
      "stateMutability": "nonpayable",
      "type": "function"
    },
    {
      "inputs": [
        {
          "internalType": "address",
          "name": "newImplementation",
          "type": "address"
        },
        {
          "internalType": "bytes",
          "name": "data",
          "type": "bytes"
        }
      ],
      "name": "upgradeToAndCall",
      "outputs": [],
      "stateMutability": "payable",
      "type": "function"
    }
  ],
  "bytecode": {
    "object": "0x60a06040523060805234801561001457600080fd5b50608051613a5561004c600039600081816104530152818161049f0152818161072a0152818161076d01526108090152613a556000f3fe608060405260043610620001375760003560e01c806396dc21e411620000ad578063df2cd9fe116200006c578063df2cd9fe1462000384578063dfc666ff14620003ab578063f21cd40114620003d0578063f2fde38b14620003f2578063f3aba305146200041757600080fd5b806396dc21e414620002bf578063ad78faf314620002e4578063b28032f91462000309578063be8b5967146200033d578063cfc27037146200036257600080fd5b806352d1902d11620000fa57806352d1902d1462000219578063683c72b61462000240578063715018a614620002625780638a9ef426146200027a5780638da5cb5b146200029f57600080fd5b806308bc0b4b146200013c5780633312540a146200017b5780633659cfe614620001b657806345bfa5b114620001dd5780634f1ef2861462000202575b600080fd5b3480156200014957600080fd5b5060fd546200015e906001600160a01b031681565b6040516001600160a01b0390911681526020015b60405180910390f35b3480156200018857600080fd5b506200015e6200019a36600462002215565b610100602052600090815260409020546001600160a01b031681565b348015620001c357600080fd5b50620001db620001d53660046200224c565b62000449565b005b348015620001ea57600080fd5b50620001db620001fc36600462002429565b6200053d565b620001db62000213366004620024b4565b62000720565b3480156200022657600080fd5b5062000231620007fc565b60405190815260200162000172565b3480156200024d57600080fd5b5060fe546200015e906001600160a01b031681565b3480156200026f57600080fd5b50620001db620008b2565b3480156200028757600080fd5b50620002316200029936600462002567565b620008ca565b348015620002ac57600080fd5b506033546001600160a01b03166200015e565b348015620002cc57600080fd5b506200015e620002de36600462002567565b620008ff565b348015620002f157600080fd5b506200015e620003033660046200260c565b6200093d565b3480156200031657600080fd5b506200032e6200032836600462002215565b62000e53565b60405162000172919062002756565b3480156200034a57600080fd5b50620001db6200035c3660046200276b565b62000f08565b3480156200036f57600080fd5b5060fc546200015e906001600160a01b031681565b3480156200039157600080fd5b506200039c620010e4565b604051620001729190620027fd565b348015620003b857600080fd5b50620001db620003ca36600462002812565b620011c7565b348015620003dd57600080fd5b5060fb546200015e906001600160a01b031681565b348015620003ff57600080fd5b50620001db620004113660046200224c565b6200125b565b3480156200042457600080fd5b50620002316200043636600462002215565b6101016020526000908152604090205481565b6001600160a01b037f00000000000000000000000000000000000000000000000000000000000000001630036200049d5760405162461bcd60e51b815260040162000494906200285c565b60405180910390fd5b7f00000000000000000000000000000000000000000000000000000000000000006001600160a01b0316620004e8600080516020620039d9833981519152546001600160a01b031690565b6001600160a01b031614620005115760405162461bcd60e51b81526004016200049490620028a8565b6200051c81620012d7565b604080516000808252602082019092526200053a91839190620012e1565b50565b600054610100900460ff16158080156200055e5750600054600160ff909116105b806200057a5750303b1580156200057a575060005460ff166001145b620005df5760405162461bcd60e51b815260206004820152602e60248201527f496e697469616c697a61626c653a20636f6e747261637420697320616c72656160448201526d191e481a5b9a5d1a585b1a5e995960921b606482015260840162000494565b6000805460ff19166001179055801562000603576000805461ff0019166101001790555b6200060d62001459565b6200061762001483565b62000621620014b7565b60fb80546001600160a01b038089166001600160a01b03199283161790925560fc805488841690831617905560fd805487841690831617905560fe80549286169290911691909117905560005b8251811015620006d05760ff8382815181106200068f576200068f620028f4565b60209081029190910181015182546001810184556000938452919092200190620006ba90826200298a565b5080620006c78162002a56565b9150506200066e565b50801562000718576000805461ff0019169055604051600181527f7f26b83ff96e1f2b6a682f133852f6798a09c465da95921460cefb38474024989060200160405180910390a15b505050505050565b6001600160a01b037f00000000000000000000000000000000000000000000000000000000000000001630036200076b5760405162461bcd60e51b815260040162000494906200285c565b7f00000000000000000000000000000000000000000000000000000000000000006001600160a01b0316620007b6600080516020620039d9833981519152546001600160a01b031690565b6001600160a01b031614620007df5760405162461bcd60e51b81526004016200049490620028a8565b620007ea82620012d7565b620007f882826001620012e1565b5050565b6000306001600160a01b037f000000000000000000000000000000000000000000000000000000000000000016146200089e5760405162461bcd60e51b815260206004820152603860248201527f555550535570677261646561626c653a206d757374206e6f742062652063616c60448201527f6c6564207468726f7567682064656c656761746563616c6c0000000000000000606482015260840162000494565b50600080516020620039d983398151915290565b620008bc620014eb565b620008c8600062001547565b565b6000808383604051620008df92919062002a7e565b604080519182900390912060009081526101016020522054949350505050565b60008083836040516200091492919062002a7e565b6040805191829003909120600090815261010060205220546001600160a01b0316949350505050565b60006200094962001599565b620009558a8a620015f4565b60008790036200097857604051630e52390960e41b815260040160405180910390fd5b600088886040516200098c92919062002a7e565b6040805191829003909120600081815261010060205291909120549091506001600160a01b031615620009d257604051633881599b60e11b815260040160405180910390fd5b60fe546040516275a31760e01b81526000916001600160a01b0316906275a3179062000a079033908c908c9060040162002ab7565b6020604051808303816000875af115801562000a27573d6000803e3d6000fd5b505050506040513d601f19601f8201168201806040525081019062000a4d919062002ade565b60008381526101016020908152604080832084905560fc5481516004815260248101835292830180516001600160e01b031663204a7f0760e21b179052905193945091926001600160a01b039092169162000aa89062002207565b62000ab592919062002af8565b604051809103906000f08015801562000ad2573d6000803e3d6000fd5b5060fd5460408051600481526024810182526020810180516001600160e01b031663204a7f0760e21b17905290519293506000926001600160a01b039092169162000b1d9062002207565b62000b2a92919062002af8565b604051809103906000f08015801562000b47573d6000803e3d6000fd5b506040805160028082526060820183529293506000929091602083019080368337019050509050828160008151811062000b855762000b85620028f4565b60200260200101906001600160a01b031690816001600160a01b031681525050818160018151811062000bbc5762000bbc620028f4565b60200260200101906001600160a01b031690816001600160a01b03168152505060fb60009054906101000a90046001600160a01b03168f8f8f8f8560405160240162000c0d95949392919062002b6c565b60408051601f198184030181529181526020820180516001600160e01b031663ca27593160e01b1790525162000c439062002207565b62000c5092919062002af8565b604051809103906000f08015801562000c6d573d6000803e3d6000fd5b5060008681526101006020526040812080546001600160a01b0319166001600160a01b0384161790559096505b815181101562000d375781818151811062000cb95762000cb9620028f4565b602090810291909101015160405162ed014d60e21b81526001600160a01b038981166004830152909116906303b4053490602401600060405180830381600087803b15801562000d0857600080fd5b505af115801562000d1d573d6000803e3d6000fd5b50505050808062000d2e9062002a56565b91505062000c9a565b5062000d4586848662001834565b62000d5d868362000d578b8d62002bb9565b62001abb565b62000d7586848462000d6f8b62002da4565b62001c50565b6001600160a01b03861663f2fde38b336040516001600160e01b031960e084901b1681526001600160a01b039091166004820152602401600060405180830381600087803b15801562000dc757600080fd5b505af115801562000ddc573d6000803e3d6000fd5b5050505062000de83390565b6001600160a01b0316866001600160a01b03167f78d7e431fd0a46d11f5c8889cf2db64699be1f95ccb8b1419211c83bcdbce5808f8f60405162000e2e92919062002e69565b60405180910390a3505050505062000e466001606555565b9998505050505050505050565b60ff818154811062000e6457600080fd5b90600052602060002001600091509050805462000e81906200290a565b80601f016020809104026020016040519081016040528092919081815260200182805462000eaf906200290a565b801562000f005780601f1062000ed45761010080835404028352916020019162000f00565b820191906000526020600020905b81548152906001019060200180831162000ee257829003601f168201915b505050505081565b62000f12620014eb565b60005b81811015620010df5760005b60ff548110156200107b576200104784848481811062000f455762000f45620028f4565b905060200281019062000f59919062002e7f565b8080601f0160208091040260200160405190810160405280939291908181526020018383808284376000920191909152505060ff8054909250859150811062000fa65762000fa6620028f4565b90600052602060002001805462000fbd906200290a565b80601f016020809104026020016040519081016040528092919081815260200182805462000feb906200290a565b80156200103c5780601f1062001010576101008083540402835291602001916200103c565b820191906000526020600020905b8154815290600101906020018083116200101e57829003601f168201915b505050505062001ef1565b156200106657604051636571d65f60e01b815260040160405180910390fd5b80620010728162002a56565b91505062000f21565b5060ff838383818110620010935762001093620028f4565b9050602002810190620010a7919062002e7f565b82546001810184556000938452602090932090920191620010c9918362002ec8565b5080620010d68162002a56565b91505062000f15565b505050565b606060ff805480602002602001604051908101604052809291908181526020016000905b82821015620011be5783829060005260206000200180546200112a906200290a565b80601f016020809104026020016040519081016040528092919081815260200182805462001158906200290a565b8015620011a95780601f106200117d57610100808354040283529160200191620011a9565b820191906000526020600020905b8154815290600101906020018083116200118b57829003601f168201915b50505050508152602001906001019062001108565b50505050905090565b620011d1620014eb565b6001600160a01b03831615620011fd5760fb80546001600160a01b0319166001600160a01b0385161790555b6001600160a01b03821615620012295760fc80546001600160a01b0319166001600160a01b0384161790555b6001600160a01b03811615620010df5760fd80546001600160a01b0383166001600160a01b0319909116179055505050565b62001265620014eb565b6001600160a01b038116620012cc5760405162461bcd60e51b815260206004820152602660248201527f4f776e61626c653a206e6577206f776e657220697320746865207a65726f206160448201526564647265737360d01b606482015260840162000494565b6200053a8162001547565b6200053a620014eb565b7f4910fdfa16fed3260ed0e7147f7cc6da11a60208b5b9406d12a635614ffd91435460ff16156200131757620010df8362001f4e565b826001600160a01b03166352d1902d6040518163ffffffff1660e01b8152600401602060405180830381865afa92505050801562001374575060408051601f3d908101601f19168201909252620013719181019062002ade565b60015b620013d95760405162461bcd60e51b815260206004820152602e60248201527f45524331393637557067726164653a206e657720696d706c656d656e7461746960448201526d6f6e206973206e6f74205555505360901b606482015260840162000494565b600080516020620039d983398151915281146200144b5760405162461bcd60e51b815260206004820152602960248201527f45524331393637557067726164653a20756e737570706f727465642070726f786044820152681a58589b195555525160ba1b606482015260840162000494565b50620010df83838362001fed565b600054610100900460ff16620008c85760405162461bcd60e51b8152600401620004949062002f94565b600054610100900460ff16620014ad5760405162461bcd60e51b8152600401620004949062002f94565b620008c862002018565b600054610100900460ff16620014e15760405162461bcd60e51b8152600401620004949062002f94565b620008c86200204d565b6033546001600160a01b03163314620008c85760405162461bcd60e51b815260206004820181905260248201527f4f776e61626c653a2063616c6c6572206973206e6f7420746865206f776e6572604482015260640162000494565b603380546001600160a01b038381166001600160a01b0319831681179093556040519116919082907f8be0079c531659141344cd1fd0a4f28419497f9722a3daafe3b4186f6b6457e090600090a35050565b600260655403620015ed5760405162461bcd60e51b815260206004820152601f60248201527f5265656e7472616e637947756172643a207265656e7472616e742063616c6c00604482015260640162000494565b6002606555565b600082828080601f01602080910402602001604051908101604052809392919081815260200183838082843760009201919091525050825192935050600290911090508062001644575080516020105b15620016635760405163354b556f60e11b815260040160405180910390fd5b805160005b818110156200182d57600360fc1b8382815181106200168b576200168b620028f4565b01602001516001600160f81b0319161080620016cd5750603d60f91b838281518110620016bc57620016bc620028f4565b01602001516001600160f81b031916115b80620017315750603960f81b838281518110620016ee57620016ee620028f4565b01602001516001600160f81b031916118015620017315750606160f81b838281518110620017205762001720620028f4565b01602001516001600160f81b031916105b80156200176657508281815181106200174e576200174e620028f4565b6020910101516001600160f81b031916601760f91b14155b80156200179b5750828181518110620017835762001783620028f4565b6020910101516001600160f81b031916602d60f81b14155b8015620017d05750828181518110620017b857620017b8620028f4565b6020910101516001600160f81b031916605f60f81b14155b8015620018055750828181518110620017ed57620017ed620028f4565b6020910101516001600160f81b031916600160fd1b14155b15620018245760405163f8fa659760e01b815260040160405180910390fd5b60010162001668565b5050505050565b604080516001808252818301909252600091816020015b60408051608081018252600080825260208083018290529282015260608082015282526000199092019101816200184b57505060408051600180825281830190925291925060009190602080830190803683370190505090508281600081518110620018bb57620018bb620028f4565b6020908102919091018101919091526040805160808101825260fe546001600160a01b0316815260019281018390529081019190915260608101829052825183906000906200190e576200190e620028f4565b6020908102919091010152604080516001808252818301909252600091816020015b604080518082019091526000815260606020820152815260200190600190039081620019305790505090506040518060400160405280866001600160a01b031681526020018460405160200162001988919062002fdf565b60405160208183030381529060405281525081600081518110620019b057620019b0620028f4565b60200260200101819052506000866001600160a01b0316638fcd793d6040518060400160405280600581526020016427bbb732b960d91b81525060ff856040518463ffffffff1660e01b815260040162001a0d9392919062003117565b6020604051808303816000875af115801562001a2d573d6000803e3d6000fd5b505050506040513d601f19601f8201168201806040525081019062001a53919062002ade565b6040516324ccd58b60e11b8152600481018290529091506001600160a01b03881690634999ab1690602401600060405180830381600087803b15801562001a9957600080fd5b505af115801562001aae573d6000803e3d6000fd5b5050505050505050505050565b604080516001808252818301909252600091816020015b60408051808201909152600081526060602082015281526020019060019003908162001ad2575050604080516001808252818301909252919250600091906020808301908036833701905050905060018160008151811062001b385762001b38620028f4565b60200260200101906001600160a01b031690816001600160a01b0316815250506040518060400160405280856001600160a01b031681526020018260405160200162001b8591906200321a565b6040516020818303038152906040528152508260008151811062001bad5762001bad620028f4565b6020026020010181905250846001600160a01b0316638fcd793d6040518060400160405280600881526020016745766572796f6e6560c01b81525085856040518463ffffffff1660e01b815260040162001c0a939291906200322f565b6020604051808303816000875af115801562001c2a573d6000803e3d6000fd5b505050506040513d601f19601f8201168201806040525081019062000718919062002ade565b6020810151511562001ee457604080516001808252818301909252600091816020015b60408051808201909152600081526060602082015281526020019060019003908162001c73579050509050604051806040016040528060006001600160a01b03168152602001604051806020016040528060008152508152508160008151811062001ce25762001ce2620028f4565b60200260200101819052506000856001600160a01b0316638fcd793d84600001518560200151856040518463ffffffff1660e01b815260040162001d29939291906200322f565b6020604051808303816000875af115801562001d49573d6000803e3d6000fd5b505050506040513d601f19601f8201168201806040525081019062001d6f919062002ade565b6060840151519091501562001e2557856001600160a01b031663ba201ba8826040518060400160405280886001600160a01b03168152602001876060015160405160200162001dbf91906200321a565b6040516020818303038152906040528152506040518363ffffffff1660e01b815260040162001df092919062003278565b600060405180830381600087803b15801562001e0b57600080fd5b505af115801562001e20573d6000803e3d6000fd5b505050505b82604001515160000362001e3b57505062001ee4565b856001600160a01b031663ba201ba8826040518060400160405280896001600160a01b03168152602001876040015160405160200162001e7c919062002fdf565b6040516020818303038152906040528152506040518363ffffffff1660e01b815260040162001ead92919062003278565b600060405180830381600087803b15801562001ec857600080fd5b505af115801562001edd573d6000803e3d6000fd5b5050505050505b50505050565b6001606555565b60008160405160200162001f06919062003293565b604051602081830303815290604052805190602001208360405160200162001f2f919062003293565b6040516020818303038152906040528051906020012014905092915050565b6001600160a01b0381163b62001fbd5760405162461bcd60e51b815260206004820152602d60248201527f455243313936373a206e657720696d706c656d656e746174696f6e206973206e60448201526c1bdd08184818dbdb9d1c9858dd609a1b606482015260840162000494565b600080516020620039d983398151915280546001600160a01b0319166001600160a01b0392909216919091179055565b62001ff88362002077565b600082511180620020065750805b15620010df5762001ee48383620020b9565b600054610100900460ff16620020425760405162461bcd60e51b8152600401620004949062002f94565b620008c83362001547565b600054610100900460ff1662001eea5760405162461bcd60e51b8152600401620004949062002f94565b620020828162001f4e565b6040516001600160a01b038216907fbc7cd75a20ee27fd9adebab32041f755214dbc6bffa90cc0225b39da2e5c2d3b90600090a250565b60606001600160a01b0383163b620021235760405162461bcd60e51b815260206004820152602660248201527f416464726573733a2064656c65676174652063616c6c20746f206e6f6e2d636f6044820152651b9d1c9858dd60d21b606482015260840162000494565b600080846001600160a01b03168460405162002140919062003293565b600060405180830381855af49150503d80600081146200217d576040519150601f19603f3d011682016040523d82523d6000602084013e62002182565b606091505b5091509150620021ad8282604051806060016040528060278152602001620039f960279139620021b6565b95945050505050565b60608315620021c7575081620021d3565b620021d38383620021da565b9392505050565b815115620021eb5781518083602001fd5b8060405162461bcd60e51b815260040162000494919062002756565b61072780620032b283390190565b6000602082840312156200222857600080fd5b5035919050565b80356001600160a01b03811681146200224757600080fd5b919050565b6000602082840312156200225f57600080fd5b620021d3826200222f565b634e487b7160e01b600052604160045260246000fd5b604051608081016001600160401b0381118282101715620022a557620022a56200226a565b60405290565b604051601f8201601f191681016001600160401b0381118282101715620022d657620022d66200226a565b604052919050565b60006001600160401b03821115620022fa57620022fa6200226a565b5060051b60200190565b60006001600160401b038311156200232057620023206200226a565b62002335601f8401601f1916602001620022ab565b90508281528383830111156200234a57600080fd5b828260208301376000602084830101529392505050565b600082601f8301126200237357600080fd5b620021d38383356020850162002304565b60006200239b6200239584620022de565b620022ab565b8381529050602080820190600585901b840186811115620023bb57600080fd5b845b81811015620023fb5780356001600160401b03811115620023de5760008081fd5b620023ec8982890162002361565b855250928201928201620023bd565b505050509392505050565b600082601f8301126200241857600080fd5b620021d38383356020850162002384565b600080600080600060a086880312156200244257600080fd5b6200244d866200222f565b94506200245d602087016200222f565b93506200246d604087016200222f565b92506200247d606087016200222f565b915060808601356001600160401b038111156200249957600080fd5b620024a78882890162002406565b9150509295509295909350565b60008060408385031215620024c857600080fd5b620024d3836200222f565b915060208301356001600160401b03811115620024ef57600080fd5b8301601f810185136200250157600080fd5b620025128582356020840162002304565b9150509250929050565b60008083601f8401126200252f57600080fd5b5081356001600160401b038111156200254757600080fd5b6020830191508360208285010111156200256057600080fd5b9250929050565b600080602083850312156200257b57600080fd5b82356001600160401b038111156200259257600080fd5b620025a0858286016200251c565b90969095509350505050565b60008083601f840112620025bf57600080fd5b5081356001600160401b03811115620025d757600080fd5b6020830191508360208260051b85010111156200256057600080fd5b6000608082840312156200260657600080fd5b50919050565b600080600080600080600080600060a08a8c0312156200262b57600080fd5b89356001600160401b03808211156200264357600080fd5b620026518d838e016200251c565b909b50995060208c01359150808211156200266b57600080fd5b620026798d838e016200251c565b909950975060408c01359150808211156200269357600080fd5b620026a18d838e016200251c565b909750955060608c0135915080821115620026bb57600080fd5b620026c98d838e01620025ac565b909550935060808c0135915080821115620026e357600080fd5b50620026f28c828d01620025f3565b9150509295985092959850929598565b60005b838110156200271f57818101518382015260200162002705565b50506000910152565b600081518084526200274281602086016020860162002702565b601f01601f19169290920160200192915050565b602081526000620021d3602083018462002728565b600080602083850312156200277f57600080fd5b82356001600160401b038111156200279657600080fd5b620025a085828601620025ac565b600081518084526020808501808196508360051b8101915082860160005b85811015620027f0578284038952620027dd84835162002728565b98850198935090840190600101620027c2565b5091979650505050505050565b602081526000620021d36020830184620027a4565b6000806000606084860312156200282857600080fd5b62002833846200222f565b925062002843602085016200222f565b915062002853604085016200222f565b90509250925092565b6020808252602c908201527f46756e6374696f6e206d7573742062652063616c6c6564207468726f7567682060408201526b19195b1959d85d1958d85b1b60a21b606082015260800190565b6020808252602c908201527f46756e6374696f6e206d7573742062652063616c6c6564207468726f7567682060408201526b6163746976652070726f787960a01b606082015260800190565b634e487b7160e01b600052603260045260246000fd5b600181811c908216806200291f57607f821691505b6020821081036200260657634e487b7160e01b600052602260045260246000fd5b601f821115620010df57600081815260208120601f850160051c81016020861015620029695750805b601f850160051c820191505b81811015620007185782815560010162002975565b81516001600160401b03811115620029a657620029a66200226a565b620029be81620029b784546200290a565b8462002940565b602080601f831160018114620029f65760008415620029dd5750858301515b600019600386901b1c1916600185901b17855562000718565b600085815260208120601f198616915b8281101562002a275788860151825594840194600190910190840162002a06565b508582101562002a465787850151600019600388901b60f8161c191681555b5050505050600190811b01905550565b60006001820162002a7757634e487b7160e01b600052601160045260246000fd5b5060010190565b8183823760009101908152919050565b81835281816020850137506000828201602090810191909152601f909101601f19169091010190565b6001600160a01b0384168152604060208201819052600090620021ad908301848662002a8e565b60006020828403121562002af157600080fd5b5051919050565b6001600160a01b038316815260406020820181905260009062002b1e9083018462002728565b949350505050565b600081518084526020808501945080840160005b8381101562002b615781516001600160a01b03168752958201959082019060010162002b3a565b509495945050505050565b60608152600062002b8260608301878962002a8e565b828103602084015262002b9781868862002a8e565b9050828103604084015262002bad818562002b26565b98975050505050505050565b6000620021d336848462002384565b600082601f83011262002bda57600080fd5b8135602062002bed6200239583620022de565b828152600592831b850182019282820191908785111562002c0d57600080fd5b8387015b8581101562002d215780356001600160401b038082111562002c335760008081fd5b908901906080828c03601f190181131562002c4e5760008081fd5b62002c5862002280565b62002c658985016200222f565b81526040808501358a830152606080860135801515811462002c875760008081fd5b8383015292850135928484111562002c9f5760008081fd5b83860195508e603f87011262002cb757600094508485fd5b8a860135945062002ccc6200239586620022de565b85815294881b86018201948b810194508f86111562002ceb5760008081fd5b958201955b8587101562002d0b5786358552958b0195938b019362002cf0565b9083015250875250505092840192840162002c11565b5090979650505050505050565b600082601f83011262002d4057600080fd5b8135602062002d536200239583620022de565b82815260059290921b8401810191818101908684111562002d7357600080fd5b8286015b8481101562002d995762002d8b816200222f565b835291830191830162002d77565b509695505050505050565b60006080823603121562002db757600080fd5b62002dc162002280565b82356001600160401b038082111562002dd957600080fd5b62002de73683870162002361565b8352602085013591508082111562002dfe57600080fd5b62002e0c3683870162002406565b6020840152604085013591508082111562002e2657600080fd5b62002e343683870162002bc8565b6040840152606085013591508082111562002e4e57600080fd5b5062002e5d3682860162002d2e565b60608301525092915050565b60208152600062002b1e60208301848662002a8e565b6000808335601e1984360301811262002e9757600080fd5b8301803591506001600160401b0382111562002eb257600080fd5b6020019150368190038213156200256057600080fd5b6001600160401b0383111562002ee25762002ee26200226a565b62002efa8362002ef383546200290a565b8362002940565b6000601f84116001811462002f31576000851562002f185750838201355b600019600387901b1c1916600186901b1783556200182d565b600083815260209020601f19861690835b8281101562002f64578685013582556020948501946001909201910162002f42565b508682101562002f825760001960f88860031b161c19848701351681555b505060018560011b0183555050505050565b6020808252602b908201527f496e697469616c697a61626c653a20636f6e7472616374206973206e6f74206960408201526a6e697469616c697a696e6760a81b606082015260800190565b60006020808301818452808551808352604092508286019150828160051b8701018488016000805b848110156200309357898403603f19018652825180516001600160a01b031685528881015189860152878101511515888601526060908101516080918601829052805191860182905289019060a086019084905b808210156200307d5783518352928b0192918b0191600191909101906200305b565b5050968901969450509187019160010162003007565b50919998505050505050505050565b60018060a01b038151168252600060208201516040602085015262002b1e604085018262002728565b600081518084526020808501808196508360051b8101915082860160005b85811015620027f057828403895262003104848351620030a2565b98850198935090840190600101620030e9565b6060815260006200312c606083018662002728565b602083820381850152818654808452828401915060058382821b86010160008a8152858120815b85811015620031f457601f1989850301875282825462003173816200290a565b80875260018281168015620031915760018114620031ab57620031dc565b60ff198416898e01528215158a1b89018d019450620031dc565b8688528c8820885b84811015620031d45781548f828d01015283820191508e81019050620031b3565b8a018e019550505b50998b01999296505050919091019060010162003153565b50505087810360408901526200320b818a620030cb565b9b9a5050505050505050505050565b602081526000620021d3602083018462002b26565b60608152600062003244606083018662002728565b8281036020840152620032588186620027a4565b905082810360408401526200326e8185620030cb565b9695505050505050565b82815260406020820152600062002b1e6040830184620030a2565b60008251620032a781846020870162002702565b919091019291505056fe608060405260405161072738038061072783398101604081905261002291610319565b61002e82826000610035565b5050610436565b61003e8361006b565b60008251118061004b5750805b156100665761006483836100ab60201b6100291760201c565b505b505050565b610074816100d7565b6040516001600160a01b038216907fbc7cd75a20ee27fd9adebab32041f755214dbc6bffa90cc0225b39da2e5c2d3b90600090a250565b60606100d08383604051806060016040528060278152602001610700602791396101a9565b9392505050565b6100ea8161022260201b6100551760201c565b6101515760405162461bcd60e51b815260206004820152602d60248201527f455243313936373a206e657720696d706c656d656e746174696f6e206973206e60448201526c1bdd08184818dbdb9d1c9858dd609a1b60648201526084015b60405180910390fd5b806101887f360894a13ba1a3210667c828492db98dca3e2076cc3735a920a3ca505d382bbc60001b61023160201b6100641760201c565b80546001600160a01b0319166001600160a01b039290921691909117905550565b6060600080856001600160a01b0316856040516101c691906103e7565b600060405180830381855af49150503d8060008114610201576040519150601f19603f3d011682016040523d82523d6000602084013e610206565b606091505b50909250905061021886838387610234565b9695505050505050565b6001600160a01b03163b151590565b90565b606083156102a357825160000361029c576001600160a01b0385163b61029c5760405162461bcd60e51b815260206004820152601d60248201527f416464726573733a2063616c6c20746f206e6f6e2d636f6e74726163740000006044820152606401610148565b50816102ad565b6102ad83836102b5565b949350505050565b8151156102c55781518083602001fd5b8060405162461bcd60e51b81526004016101489190610403565b634e487b7160e01b600052604160045260246000fd5b60005b838110156103105781810151838201526020016102f8565b50506000910152565b6000806040838503121561032c57600080fd5b82516001600160a01b038116811461034357600080fd5b60208401519092506001600160401b038082111561036057600080fd5b818501915085601f83011261037457600080fd5b815181811115610386576103866102df565b604051601f8201601f19908116603f011681019083821181831017156103ae576103ae6102df565b816040528281528860208487010111156103c757600080fd5b6103d88360208301602088016102f5565b80955050505050509250929050565b600082516103f98184602087016102f5565b9190910192915050565b60208152600082518060208401526104228160408501602087016102f5565b601f01601f19169190910160400192915050565b6102bb806104456000396000f3fe60806040523661001357610011610017565b005b6100115b610027610022610067565b61009f565b565b606061004e838360405180606001604052806027815260200161025f602791396100c3565b9392505050565b6001600160a01b03163b151590565b90565b600061009a7f360894a13ba1a3210667c828492db98dca3e2076cc3735a920a3ca505d382bbc546001600160a01b031690565b905090565b3660008037600080366000845af43d6000803e8080156100be573d6000f35b3d6000fd5b6060600080856001600160a01b0316856040516100e0919061020f565b600060405180830381855af49150503d806000811461011b576040519150601f19603f3d011682016040523d82523d6000602084013e610120565b606091505b50915091506101318683838761013b565b9695505050505050565b606083156101af5782516000036101a8576001600160a01b0385163b6101a85760405162461bcd60e51b815260206004820152601d60248201527f416464726573733a2063616c6c20746f206e6f6e2d636f6e747261637400000060448201526064015b60405180910390fd5b50816101b9565b6101b983836101c1565b949350505050565b8151156101d15781518083602001fd5b8060405162461bcd60e51b815260040161019f919061022b565b60005b838110156102065781810151838201526020016101ee565b50506000910152565b600082516102218184602087016101eb565b9190910192915050565b602081526000825180602084015261024a8160408501602087016101eb565b601f01601f1916919091016040019291505056fe416464726573733a206c6f772d6c6576656c2064656c65676174652063616c6c206661696c6564a2646970667358221220c3201b3bc85f5b49b0e0c9905d402827c9a351d780685a6ed698fc6baffa2cac64736f6c63430008110033416464726573733a206c6f772d6c6576656c2064656c65676174652063616c6c206661696c6564360894a13ba1a3210667c828492db98dca3e2076cc3735a920a3ca505d382bbc416464726573733a206c6f772d6c6576656c2064656c65676174652063616c6c206661696c6564a264697066735822122012fdcd236ebee89051c5bbdc840e2eecb0bbd26952b7517b8195b3ec77c0c64264736f6c63430008110033",
    "linkReferences": {}
  },
  "methodIdentifiers": {
    "SPACE_IMPLEMENTATION_ADDRESS()": "f21cd401",
    "SPACE_TOKEN_ADDRESS()": "683c72b6",
    "TOKEN_IMPLEMENTATION_ADDRESS()": "cfc27037",
    "USER_IMPLEMENTATION_ADDRESS()": "08bc0b4b",
    "addOwnerPermissions(string[])": "be8b5967",
    "createSpace(string,string,string,string[],(string,string[],(address,uint256,bool,uint256[])[],address[]))": "ad78faf3",
    "getOwnerPermissions()": "df2cd9fe",
    "getSpaceAddressByNetworkId(string)": "96dc21e4",
    "getTokenIdByNetworkId(string)": "8a9ef426",
    "initialize(address,address,address,address,string[])": "45bfa5b1",
    "owner()": "8da5cb5b",
    "ownerPermissions(uint256)": "b28032f9",
    "proxiableUUID()": "52d1902d",
    "renounceOwnership()": "715018a6",
    "spaceByHash(bytes32)": "3312540a",
    "tokenByHash(bytes32)": "f3aba305",
    "transferOwnership(address)": "f2fde38b",
    "updateImplementations(address,address,address)": "dfc666ff",
    "upgradeTo(address)": "3659cfe6",
    "upgradeToAndCall(address,bytes)": "4f1ef286"
  },
  "id": 22
}