{
  "abi": [
    {
      "inputs": [
        {
          "internalType": "address",
          "name": "_space",
          "type": "address"
        },
        {
          "internalType": "address",
          "name": "_tokenEntitlement",
          "type": "address"
        },
        {
          "internalType": "address",
          "name": "_userEntitlement",
          "type": "address"
        },
        {
          "internalType": "address",
          "name": "_spaceToken",
          "type": "address"
        },
        {
          "internalType": "string[]",
          "name": "_permissions",
          "type": "string[]"
        }
      ],
      "stateMutability": "nonpayable",
      "type": "constructor"
    },
    {
      "inputs": [],
      "name": "NameContainsInvalidCharacters",
      "type": "error"
    },
    {
      "inputs": [],
      "name": "NameLengthInvalid",
      "type": "error"
    },
    {
      "inputs": [],
      "name": "PermissionAlreadyExists",
      "type": "error"
    },
    {
      "inputs": [],
      "name": "SpaceAlreadyRegistered",
      "type": "error"
    },
    {
      "anonymous": false,
      "inputs": [
        {
          "indexed": true,
          "internalType": "address",
          "name": "previousOwner",
          "type": "address"
        },
        {
          "indexed": true,
          "internalType": "address",
          "name": "newOwner",
          "type": "address"
        }
      ],
      "name": "OwnershipTransferred",
      "type": "event"
    },
    {
      "inputs": [],
      "name": "SPACE_IMPLEMENTATION_ADDRESS",
      "outputs": [
        {
          "internalType": "address",
          "name": "",
          "type": "address"
        }
      ],
      "stateMutability": "view",
      "type": "function"
    },
    {
      "inputs": [],
      "name": "SPACE_TOKEN_ADDRESS",
      "outputs": [
        {
          "internalType": "address",
          "name": "",
          "type": "address"
        }
      ],
      "stateMutability": "view",
      "type": "function"
    },
    {
      "inputs": [],
      "name": "TOKEN_IMPLEMENTATION_ADDRESS",
      "outputs": [
        {
          "internalType": "address",
          "name": "",
          "type": "address"
        }
      ],
      "stateMutability": "view",
      "type": "function"
    },
    {
      "inputs": [],
      "name": "USER_IMPLEMENTATION_ADDRESS",
      "outputs": [
        {
          "internalType": "address",
          "name": "",
          "type": "address"
        }
      ],
      "stateMutability": "view",
      "type": "function"
    },
    {
      "inputs": [
        {
          "internalType": "string[]",
          "name": "_permissions",
          "type": "string[]"
        }
      ],
      "name": "addOwnerPermissions",
      "outputs": [],
      "stateMutability": "nonpayable",
      "type": "function"
    },
    {
      "inputs": [
        {
          "components": [
            {
              "internalType": "string",
              "name": "spaceName",
              "type": "string"
            },
            {
              "internalType": "string",
              "name": "spaceNetworkId",
              "type": "string"
            },
            {
              "internalType": "string",
              "name": "spaceMetadata",
              "type": "string"
            }
          ],
          "internalType": "struct DataTypes.CreateSpaceData",
          "name": "_info",
          "type": "tuple"
        },
        {
          "components": [
            {
              "internalType": "string",
              "name": "roleName",
              "type": "string"
            },
            {
              "internalType": "string[]",
              "name": "permissions",
              "type": "string[]"
            },
            {
              "components": [
                {
                  "internalType": "address",
                  "name": "contractAddress",
                  "type": "address"
                },
                {
                  "internalType": "uint256",
                  "name": "quantity",
                  "type": "uint256"
                },
                {
                  "internalType": "bool",
                  "name": "isSingleToken",
                  "type": "bool"
                },
                {
                  "internalType": "uint256[]",
                  "name": "tokenIds",
                  "type": "uint256[]"
                }
              ],
              "internalType": "struct DataTypes.ExternalToken[]",
              "name": "tokens",
              "type": "tuple[]"
            },
            {
              "internalType": "address[]",
              "name": "users",
              "type": "address[]"
            }
          ],
          "internalType": "struct DataTypes.CreateSpaceEntitlementData",
          "name": "_entitlementData",
          "type": "tuple"
        },
        {
          "internalType": "string[]",
          "name": "_permissions",
          "type": "string[]"
        }
      ],
      "name": "createSpace",
      "outputs": [
        {
          "internalType": "address",
          "name": "_spaceAddress",
          "type": "address"
        }
      ],
      "stateMutability": "nonpayable",
      "type": "function"
    },
    {
      "inputs": [],
      "name": "getOwnerPermissions",
      "outputs": [
        {
          "internalType": "string[]",
          "name": "",
          "type": "string[]"
        }
      ],
      "stateMutability": "view",
      "type": "function"
    },
    {
      "inputs": [],
      "name": "owner",
      "outputs": [
        {
          "internalType": "address",
          "name": "",
          "type": "address"
        }
      ],
      "stateMutability": "view",
      "type": "function"
    },
    {
      "inputs": [
        {
          "internalType": "uint256",
          "name": "",
          "type": "uint256"
        }
      ],
      "name": "ownerPermissions",
      "outputs": [
        {
          "internalType": "string",
          "name": "",
          "type": "string"
        }
      ],
      "stateMutability": "view",
      "type": "function"
    },
    {
      "inputs": [],
      "name": "renounceOwnership",
      "outputs": [],
      "stateMutability": "nonpayable",
      "type": "function"
    },
    {
      "inputs": [
        {
          "internalType": "bytes32",
          "name": "",
          "type": "bytes32"
        }
      ],
      "name": "spaceByHash",
      "outputs": [
        {
          "internalType": "address",
          "name": "",
          "type": "address"
        }
      ],
      "stateMutability": "view",
      "type": "function"
    },
    {
      "inputs": [
        {
          "internalType": "bytes32",
          "name": "",
          "type": "bytes32"
        }
      ],
      "name": "tokenByHash",
      "outputs": [
        {
          "internalType": "uint256",
          "name": "",
          "type": "uint256"
        }
      ],
      "stateMutability": "view",
      "type": "function"
    },
    {
      "inputs": [
        {
          "internalType": "address",
          "name": "newOwner",
          "type": "address"
        }
      ],
      "name": "transferOwnership",
      "outputs": [],
      "stateMutability": "nonpayable",
      "type": "function"
    },
    {
      "inputs": [
        {
          "internalType": "address",
          "name": "_space",
          "type": "address"
        },
        {
          "internalType": "address",
          "name": "_tokenEntitlement",
          "type": "address"
        },
        {
          "internalType": "address",
          "name": "_userEntitlement",
          "type": "address"
        }
      ],
      "name": "updateInitialImplementations",
      "outputs": [],
      "stateMutability": "nonpayable",
      "type": "function"
    }
  ],
  "bytecode": {
    "object": "0x60806040523480156200001157600080fd5b5060405162002e4038038062002e408339810160408190526200003491620001b4565b6200003f33620000fe565b60018055600280546001600160a01b038088166001600160a01b0319928316179092556003805487841690831617905560048054868416908316179055600580549285169290911691909117905560005b8151811015620000f2576006828281518110620000b157620000b162000352565b60209081029190910181015182546001810184556000938452919092200190620000dc9082620003f7565b5080620000e981620004c3565b91505062000090565b505050505050620004eb565b600080546001600160a01b038381166001600160a01b0319831681178455604051919092169283917f8be0079c531659141344cd1fd0a4f28419497f9722a3daafe3b4186f6b6457e09190a35050565b80516001600160a01b03811681146200016657600080fd5b919050565b634e487b7160e01b600052604160045260246000fd5b604051601f8201601f191681016001600160401b0381118282101715620001ac57620001ac6200016b565b604052919050565b600080600080600060a08688031215620001cd57600080fd5b620001d8866200014e565b9450620001e8602087016200014e565b9350620001f8604087016200014e565b925062000208606087016200014e565b60808701519092506001600160401b03808211156200022657600080fd5b818801915088601f8301126200023b57600080fd5b8151818111156200025057620002506200016b565b6200026160208260051b0162000181565b8082825260208201915060208360051b86010192508b8311156200028457600080fd5b602085015b838110156200033f57805185811115620002a257600080fd5b8601603f81018e13620002b457600080fd5b602081015186811115620002cc57620002cc6200016b565b620002e1601f8201601f191660200162000181565b8181528f6040838501011115620002f757600080fd5b60005b828110156200031d576040818501015160208284010152602081019050620002fa565b5060006020838301015280865250505060208301925060208101905062000289565b5080955050505050509295509295909350565b634e487b7160e01b600052603260045260246000fd5b600181811c908216806200037d57607f821691505b6020821081036200039e57634e487b7160e01b600052602260045260246000fd5b50919050565b601f821115620003f257600081815260208120601f850160051c81016020861015620003cd5750805b601f850160051c820191505b81811015620003ee57828155600101620003d9565b5050505b505050565b81516001600160401b038111156200041357620004136200016b565b6200042b8162000424845462000368565b84620003a4565b602080601f8311600181146200046357600084156200044a5750858301515b600019600386901b1c1916600185901b178555620003ee565b600085815260208120601f198616915b82811015620004945788860151825594840194600190910190840162000473565b5085821015620004b35787850151600019600388901b60f8161c191681555b5050505050600190811b01905550565b600060018201620004e457634e487b7160e01b600052601160045260246000fd5b5060010190565b61294580620004fb6000396000f3fe60806040523480156200001157600080fd5b5060043610620000fd5760003560e01c8063b28032f91162000097578063df2cd9fe116200006e578063df2cd9fe1462000210578063f21cd4011462000229578063f2fde38b146200023d578063f3aba305146200025457600080fd5b8063b28032f914620001bf578063be8b596714620001e5578063cfc2703714620001fc57600080fd5b8063683c72b611620000d8578063683c72b61462000176578063715018a6146200018a5780638da5cb5b14620001965780639e3a99c114620001a857600080fd5b806308bc0b4b14620001025780633312540a14620001335780634ce89fa8146200015f575b600080fd5b60045462000116906001600160a01b031681565b6040516001600160a01b0390911681526020015b60405180910390f35b6200011662000144366004620015a8565b6007602052600090815260409020546001600160a01b031681565b620001166200017036600462001611565b62000286565b60055462000116906001600160a01b031681565b62000194620007ab565b005b6000546001600160a01b031662000116565b62000194620001b9366004620016d1565b620007c3565b620001d6620001d0366004620015a8565b62000856565b6040516200012a91906200176f565b62000194620001f63660046200178b565b6200090b565b60035462000116906001600160a01b031681565b6200021a62000ae2565b6040516200012a91906200182d565b60025462000116906001600160a01b031681565b620001946200024e36600462001842565b62000bc5565b6200027762000265366004620015a8565b60086020526000908152604090205481565b6040519081526020016200012a565b60006200029262000c48565b620002a8620002a2868062001860565b62000ca3565b6000620002b9602087018762001860565b604051620002c9929190620018aa565b60408051918290039091206000818152600760205291909120549091506001600160a01b0316156200030e57604051633881599b60e11b815260040160405180910390fd5b6005546000906001600160a01b03166275a317336200033160408b018b62001860565b6040518463ffffffff1660e01b81526004016200035193929190620018e3565b6020604051808303816000875af115801562000371573d6000803e3d6000fd5b505050506040513d601f19601f8201168201806040525081019062000397919062001913565b600083815260086020908152604080832084905560035481516004815260248101835292830180516001600160e01b031663204a7f0760e21b179052905193945091926001600160a01b0390921691620003f1906200159a565b620003fe9291906200192d565b604051809103906000f0801580156200041b573d6000803e3d6000fd5b5060048054604080519283526024830181526020830180516001600160e01b031663204a7f0760e21b179052519293506000926001600160a01b03909116919062000466906200159a565b620004739291906200192d565b604051809103906000f08015801562000490573d6000803e3d6000fd5b5060408051600280825260608201835292935060009290916020830190803683370190505090508281600081518110620004ce57620004ce62001969565b60200260200101906001600160a01b031690816001600160a01b031681525050818160018151811062000505576200050562001969565b6001600160a01b039283166020918202929092010152600254166200052b8b8062001860565b6200053a60208e018e62001860565b85604051602401620005519594939291906200197f565b60408051601f198184030181529181526020820180516001600160e01b031663ca27593160e01b1790525162000587906200159a565b620005949291906200192d565b604051809103906000f080158015620005b1573d6000803e3d6000fd5b506000868152600760205260409081902080546001600160a01b0319166001600160a01b03848116918217909255915162ed014d60e21b81526004810192909252919750908416906303b4053490602401600060405180830381600087803b1580156200061d57600080fd5b505af115801562000632573d6000803e3d6000fd5b505060405162ed014d60e21b81526001600160a01b038981166004830152851692506303b405349150602401600060405180830381600087803b1580156200067957600080fd5b505af11580156200068e573d6000803e3d6000fd5b505050506200069f86848662000ee3565b620006b78683620006b18a8c62001b7c565b6200115f565b620006cf868484620006c98d62001d7e565b62001280565b6001600160a01b03861663f2fde38b336040516001600160e01b031960e084901b1681526001600160a01b039091166004820152602401600060405180830381600087803b1580156200072157600080fd5b505af115801562000736573d6000803e3d6000fd5b5050506001600160a01b03871690506200075460208c018c62001860565b60405162000764929190620018aa565b604051908190038120907f32578df91af42fb447c9bc240b245ce5998a97293dbd53ccc30050507c2b21ef90600090a35050505050620007a360018055565b949350505050565b620007b562001491565b620007c16000620014ed565b565b620007cd62001491565b6001600160a01b03831615620007f957600280546001600160a01b0319166001600160a01b0385161790555b6001600160a01b038216156200082557600380546001600160a01b0319166001600160a01b0384161790555b6001600160a01b038116156200085157600480546001600160a01b0319166001600160a01b0383161790555b505050565b600681815481106200086757600080fd5b906000526020600020016000915090508054620008849062001e44565b80601f0160208091040260200160405190810160405280929190818152602001828054620008b29062001e44565b8015620009035780601f10620008d75761010080835404028352916020019162000903565b820191906000526020600020905b815481529060010190602001808311620008e557829003601f168201915b505050505081565b6200091562001491565b60005b81811015620008515760005b60065481101562000a7e5762000a4a84848481811062000948576200094862001969565b90506020028101906200095c919062001860565b8080601f01602080910402602001604051908101604052809392919081815260200183838082843760009201919091525050600680549092508591508110620009a957620009a962001969565b906000526020600020018054620009c09062001e44565b80601f0160208091040260200160405190810160405280929190818152602001828054620009ee9062001e44565b801562000a3f5780601f1062000a135761010080835404028352916020019162000a3f565b820191906000526020600020905b81548152906001019060200180831162000a2157829003601f168201915b50505050506200153d565b1562000a6957604051636571d65f60e01b815260040160405180910390fd5b8062000a758162001e80565b91505062000924565b50600683838381811062000a965762000a9662001969565b905060200281019062000aaa919062001860565b8254600181018455600093845260209093209092019162000acc918362001efa565b508062000ad98162001e80565b91505062000918565b60606006805480602002602001604051908101604052809291908181526020016000905b8282101562000bbc57838290600052602060002001805462000b289062001e44565b80601f016020809104026020016040519081016040528092919081815260200182805462000b569062001e44565b801562000ba75780601f1062000b7b5761010080835404028352916020019162000ba7565b820191906000526020600020905b81548152906001019060200180831162000b8957829003601f168201915b50505050508152602001906001019062000b06565b50505050905090565b62000bcf62001491565b6001600160a01b03811662000c3a5760405162461bcd60e51b815260206004820152602660248201527f4f776e61626c653a206e6577206f776e657220697320746865207a65726f206160448201526564647265737360d01b60648201526084015b60405180910390fd5b62000c4581620014ed565b50565b60026001540362000c9c5760405162461bcd60e51b815260206004820152601f60248201527f5265656e7472616e637947756172643a207265656e7472616e742063616c6c00604482015260640162000c31565b6002600155565b600082828080601f01602080910402602001604051908101604052809392919081815260200183838082843760009201919091525050825192935050600290911090508062000cf3575080516020105b1562000d125760405163354b556f60e11b815260040160405180910390fd5b805160005b8181101562000edc57600360fc1b83828151811062000d3a5762000d3a62001969565b01602001516001600160f81b031916108062000d7c5750603d60f91b83828151811062000d6b5762000d6b62001969565b01602001516001600160f81b031916115b8062000de05750603960f81b83828151811062000d9d5762000d9d62001969565b01602001516001600160f81b03191611801562000de05750606160f81b83828151811062000dcf5762000dcf62001969565b01602001516001600160f81b031916105b801562000e15575082818151811062000dfd5762000dfd62001969565b6020910101516001600160f81b031916601760f91b14155b801562000e4a575082818151811062000e325762000e3262001969565b6020910101516001600160f81b031916602d60f81b14155b801562000e7f575082818151811062000e675762000e6762001969565b6020910101516001600160f81b031916605f60f81b14155b801562000eb4575082818151811062000e9c5762000e9c62001969565b6020910101516001600160f81b031916600160fd1b14155b1562000ed35760405163f8fa659760e01b815260040160405180910390fd5b60010162000d17565b5050505050565b604080518082018252600581526427bbb732b960d91b60208201529051632f8d192560e01b81526000916001600160a01b03861691632f8d19259162000f2f9160069060040162001fc7565b6020604051808303816000875af115801562000f4f573d6000803e3d6000fd5b505050506040513d601f19601f8201168201806040525081019062000f75919062001913565b6040516324ccd58b60e11b8152600481018290529091506001600160a01b03851690634999ab1690602401600060405180830381600087803b15801562000fbb57600080fd5b505af115801562000fd0573d6000803e3d6000fd5b50600092506001915062000fe19050565b6040519080825280602002602001820160405280156200103457816020015b6040805160808101825260008082526020808301829052928201526060808201528252600019909201910181620010005790505b506040805160018082528183019092529192506000919060208083019080368337019050509050838160008151811062001072576200107262001969565b602090810291909101810191909152604080516080810182526005546001600160a01b031681526001928101839052908101919091526060810182905282518390600090620010c557620010c562001969565b6020026020010181905250856001600160a01b031663032be70d868585604051602001620010f49190620020b5565b6040516020818303038152906040526040518463ffffffff1660e01b8152600401620011239392919062002178565b600060405180830381600087803b1580156200113e57600080fd5b505af115801562001153573d6000803e3d6000fd5b50505050505050505050565b604080518082018252600881526745766572796f6e6560c01b60208201529051632f8d192560e01b81526000916001600160a01b03861691632f8d192591620011ad918690600401620021a1565b6020604051808303816000875af1158015620011cd573d6000803e3d6000fd5b505050506040513d601f19601f82011682018060405250810190620011f3919062001913565b60408051600160208201529192506001600160a01b0386169163032be70d9186918591016040516020818303038152906040526040518463ffffffff1660e01b8152600401620012469392919062002178565b600060405180830381600087803b1580156200126157600080fd5b505af115801562001276573d6000803e3d6000fd5b5050505050505050565b602081015151156200148b5780516020820151604051632f8d192560e01b81526000926001600160a01b03881692632f8d192592620012c4929190600401620021a1565b6020604051808303816000875af1158015620012e4573d6000803e3d6000fd5b505050506040513d601f19601f820116820180604052508101906200130a919062001913565b905060005b826060015151811015620013e857856001600160a01b031663032be70d85848660600151858151811062001347576200134762001969565b60200260200101516040516020016200136f91906001600160a01b0391909116815260200190565b6040516020818303038152906040526040518463ffffffff1660e01b81526004016200139e9392919062002178565b600060405180830381600087803b158015620013b957600080fd5b505af1158015620013ce573d6000803e3d6000fd5b505050508080620013df9062001e80565b9150506200130f565b50816040015151600003620013fe57506200148b565b846001600160a01b031663032be70d85838560400151604051602001620014269190620020b5565b6040516020818303038152906040526040518463ffffffff1660e01b8152600401620014559392919062002178565b600060405180830381600087803b1580156200147057600080fd5b505af115801562001485573d6000803e3d6000fd5b50505050505b50505050565b6000546001600160a01b03163314620007c15760405162461bcd60e51b815260206004820181905260248201527f4f776e61626c653a2063616c6c6572206973206e6f7420746865206f776e6572604482015260640162000c31565b600080546001600160a01b038381166001600160a01b0319831681178455604051919092169283917f8be0079c531659141344cd1fd0a4f28419497f9722a3daafe3b4186f6b6457e09190a35050565b600081604051602001620015529190620021ca565b60405160208183030381529060405280519060200120836040516020016200157b9190620021ca565b6040516020818303038152906040528051906020012014905092915050565b61072780620021e983390190565b600060208284031215620015bb57600080fd5b5035919050565b60008083601f840112620015d557600080fd5b50813567ffffffffffffffff811115620015ee57600080fd5b6020830191508360208260051b85010111156200160a57600080fd5b9250929050565b600080600080606085870312156200162857600080fd5b843567ffffffffffffffff808211156200164157600080fd5b90860190606082890312156200165657600080fd5b909450602086013590808211156200166d57600080fd5b90860190608082890312156200168257600080fd5b909350604086013590808211156200169957600080fd5b50620016a887828801620015c2565b95989497509550505050565b80356001600160a01b0381168114620016cc57600080fd5b919050565b600080600060608486031215620016e757600080fd5b620016f284620016b4565b92506200170260208501620016b4565b91506200171260408501620016b4565b90509250925092565b60005b83811015620017385781810151838201526020016200171e565b50506000910152565b600081518084526200175b8160208601602086016200171b565b601f01601f19169290920160200192915050565b60208152600062001784602083018462001741565b9392505050565b600080602083850312156200179f57600080fd5b823567ffffffffffffffff811115620017b757600080fd5b620017c585828601620015c2565b90969095509350505050565b600082825180855260208086019550808260051b84010181860160005b848110156200182057601f198684030189526200180d83835162001741565b98840198925090830190600101620017ee565b5090979650505050505050565b602081526000620017846020830184620017d1565b6000602082840312156200185557600080fd5b6200178482620016b4565b6000808335601e198436030181126200187857600080fd5b83018035915067ffffffffffffffff8211156200189457600080fd5b6020019150368190038213156200160a57600080fd5b8183823760009101908152919050565b81835281816020850137506000828201602090810191909152601f909101601f19169091010190565b6001600160a01b03841681526040602082018190526000906200190a9083018486620018ba565b95945050505050565b6000602082840312156200192657600080fd5b5051919050565b6001600160a01b0383168152604060208201819052600090620007a39083018462001741565b634e487b7160e01b600052604160045260246000fd5b634e487b7160e01b600052603260045260246000fd5b60608152600062001995606083018789620018ba565b602083820381850152620019ab828789620018ba565b8481036040860152855180825282870193509082019060005b81811015620019eb5784516001600160a01b031683529383019391830191600101620019c4565b50909a9950505050505050505050565b6040516080810167ffffffffffffffff8111828210171562001a215762001a2162001953565b60405290565b604051601f8201601f1916810167ffffffffffffffff8111828210171562001a535762001a5362001953565b604052919050565b600067ffffffffffffffff82111562001a785762001a7862001953565b5060051b60200190565b600082601f83011262001a9457600080fd5b813567ffffffffffffffff81111562001ab15762001ab162001953565b62001ac6601f8201601f191660200162001a27565b81815284602083860101111562001adc57600080fd5b816020850160208301376000918101602001919091529392505050565b600062001b1062001b0a8462001a5b565b62001a27565b8381529050602080820190600585901b84018681111562001b3057600080fd5b845b8181101562001b7157803567ffffffffffffffff81111562001b545760008081fd5b62001b628982890162001a82565b85525092820192820162001b32565b505050509392505050565b60006200178436848462001af9565b600082601f83011262001b9d57600080fd5b620017848383356020850162001af9565b600082601f83011262001bc057600080fd5b8135602062001bd362001b0a8362001a5b565b828152600592831b850182019282820191908785111562001bf357600080fd5b8387015b858110156200182057803567ffffffffffffffff8082111562001c1a5760008081fd5b908901906080828c03601f190181131562001c355760008081fd5b62001c3f620019fb565b62001c4c898501620016b4565b81526040808501358a830152606080860135801515811462001c6e5760008081fd5b8383015292850135928484111562001c865760008081fd5b83860195508e603f87011262001c9e57600094508485fd5b8a860135945062001cb362001b0a8662001a5b565b85815294881b86018201948b810194508f86111562001cd25760008081fd5b958201955b8587101562001cf25786358552958b0195938b019362001cd7565b9083015250875250505092840192840162001bf7565b600082601f83011262001d1a57600080fd5b8135602062001d2d62001b0a8362001a5b565b82815260059290921b8401810191818101908684111562001d4d57600080fd5b8286015b8481101562001d735762001d6581620016b4565b835291830191830162001d51565b509695505050505050565b60006080823603121562001d9157600080fd5b62001d9b620019fb565b823567ffffffffffffffff8082111562001db457600080fd5b62001dc23683870162001a82565b8352602085013591508082111562001dd957600080fd5b62001de73683870162001b8b565b6020840152604085013591508082111562001e0157600080fd5b62001e0f3683870162001bae565b6040840152606085013591508082111562001e2957600080fd5b5062001e383682860162001d08565b60608301525092915050565b600181811c9082168062001e5957607f821691505b60208210810362001e7a57634e487b7160e01b600052602260045260246000fd5b50919050565b60006001820162001ea157634e487b7160e01b600052601160045260246000fd5b5060010190565b601f8211156200085157600081815260208120601f850160051c8101602086101562001ed15750805b601f850160051c820191505b8181101562001ef25782815560010162001edd565b505050505050565b67ffffffffffffffff83111562001f155762001f1562001953565b62001f2d8362001f26835462001e44565b8362001ea8565b6000601f84116001811462001f64576000851562001f4b5750838201355b600019600387901b1c1916600186901b17835562000edc565b600083815260209020601f19861690835b8281101562001f97578685013582556020948501946001909201910162001f75565b508682101562001fb55760001960f88860031b161c19848701351681555b505060018560011b0183555050505050565b60408152600062001fdc604083018562001741565b602083820381850152818554808452828401915060058382821b8601016000898152858120815b85811015620020a457601f19898503018752828254620020238162001e44565b808752600182811680156200204157600181146200205b576200208c565b60ff198416898e01528215158a1b89018d0194506200208c565b8688528c8820885b84811015620020845781548f828d01015283820191508e8101905062002063565b8a018e019550505b50998b01999296505050919091019060010162002003565b50919b9a5050505050505050505050565b60006020808301818452808551808352604092508286019150828160051b8701018488016000805b848110156200216957898403603f19018652825180516001600160a01b031685528881015189860152878101511515888601526060908101516080918601829052805191860182905289019060a086019084905b80821015620021535783518352928b0192918b01916001919091019062002131565b50509689019694505091870191600101620020dd565b50919998505050505050505050565b60018060a01b03841681528260208201526060604082015260006200190a606083018462001741565b604081526000620021b6604083018562001741565b82810360208401526200190a8185620017d1565b60008251620021de8184602087016200171b565b919091019291505056fe608060405260405161072738038061072783398101604081905261002291610319565b61002e82826000610035565b5050610436565b61003e8361006b565b60008251118061004b5750805b156100665761006483836100ab60201b6100291760201c565b505b505050565b610074816100d7565b6040516001600160a01b038216907fbc7cd75a20ee27fd9adebab32041f755214dbc6bffa90cc0225b39da2e5c2d3b90600090a250565b60606100d08383604051806060016040528060278152602001610700602791396101a9565b9392505050565b6100ea8161022260201b6100551760201c565b6101515760405162461bcd60e51b815260206004820152602d60248201527f455243313936373a206e657720696d706c656d656e746174696f6e206973206e60448201526c1bdd08184818dbdb9d1c9858dd609a1b60648201526084015b60405180910390fd5b806101887f360894a13ba1a3210667c828492db98dca3e2076cc3735a920a3ca505d382bbc60001b61023160201b6100641760201c565b80546001600160a01b0319166001600160a01b039290921691909117905550565b6060600080856001600160a01b0316856040516101c691906103e7565b600060405180830381855af49150503d8060008114610201576040519150601f19603f3d011682016040523d82523d6000602084013e610206565b606091505b50909250905061021886838387610234565b9695505050505050565b6001600160a01b03163b151590565b90565b606083156102a357825160000361029c576001600160a01b0385163b61029c5760405162461bcd60e51b815260206004820152601d60248201527f416464726573733a2063616c6c20746f206e6f6e2d636f6e74726163740000006044820152606401610148565b50816102ad565b6102ad83836102b5565b949350505050565b8151156102c55781518083602001fd5b8060405162461bcd60e51b81526004016101489190610403565b634e487b7160e01b600052604160045260246000fd5b60005b838110156103105781810151838201526020016102f8565b50506000910152565b6000806040838503121561032c57600080fd5b82516001600160a01b038116811461034357600080fd5b60208401519092506001600160401b038082111561036057600080fd5b818501915085601f83011261037457600080fd5b815181811115610386576103866102df565b604051601f8201601f19908116603f011681019083821181831017156103ae576103ae6102df565b816040528281528860208487010111156103c757600080fd5b6103d88360208301602088016102f5565b80955050505050509250929050565b600082516103f98184602087016102f5565b9190910192915050565b60208152600082518060208401526104228160408501602087016102f5565b601f01601f19169190910160400192915050565b6102bb806104456000396000f3fe60806040523661001357610011610017565b005b6100115b610027610022610067565b61009f565b565b606061004e838360405180606001604052806027815260200161025f602791396100c3565b9392505050565b6001600160a01b03163b151590565b90565b600061009a7f360894a13ba1a3210667c828492db98dca3e2076cc3735a920a3ca505d382bbc546001600160a01b031690565b905090565b3660008037600080366000845af43d6000803e8080156100be573d6000f35b3d6000fd5b6060600080856001600160a01b0316856040516100e0919061020f565b600060405180830381855af49150503d806000811461011b576040519150601f19603f3d011682016040523d82523d6000602084013e610120565b606091505b50915091506101318683838761013b565b9695505050505050565b606083156101af5782516000036101a8576001600160a01b0385163b6101a85760405162461bcd60e51b815260206004820152601d60248201527f416464726573733a2063616c6c20746f206e6f6e2d636f6e747261637400000060448201526064015b60405180910390fd5b50816101b9565b6101b983836101c1565b949350505050565b8151156101d15781518083602001fd5b8060405162461bcd60e51b815260040161019f919061022b565b60005b838110156102065781810151838201526020016101ee565b50506000910152565b600082516102218184602087016101eb565b9190910192915050565b602081526000825180602084015261024a8160408501602087016101eb565b601f01601f1916919091016040019291505056fe416464726573733a206c6f772d6c6576656c2064656c65676174652063616c6c206661696c6564a26469706673582212201f0d1c6295b41e181a1835120767d2f7ae9af9004821d69a9f3c286c282e261764736f6c63430008110033416464726573733a206c6f772d6c6576656c2064656c65676174652063616c6c206661696c6564a264697066735822122097bb3e6a01d965ee486793f1f935176c399e2e401cee40202c9ffe302309b07c64736f6c63430008110033",
    "linkReferences": {}
  },
  "methodIdentifiers": {
    "SPACE_IMPLEMENTATION_ADDRESS()": "f21cd401",
    "SPACE_TOKEN_ADDRESS()": "683c72b6",
    "TOKEN_IMPLEMENTATION_ADDRESS()": "cfc27037",
    "USER_IMPLEMENTATION_ADDRESS()": "08bc0b4b",
    "addOwnerPermissions(string[])": "be8b5967",
    "createSpace((string,string,string),(string,string[],(address,uint256,bool,uint256[])[],address[]),string[])": "4ce89fa8",
    "getOwnerPermissions()": "df2cd9fe",
    "owner()": "8da5cb5b",
    "ownerPermissions(uint256)": "b28032f9",
    "renounceOwnership()": "715018a6",
    "spaceByHash(bytes32)": "3312540a",
    "tokenByHash(bytes32)": "f3aba305",
    "transferOwnership(address)": "f2fde38b",
    "updateInitialImplementations(address,address,address)": "9e3a99c1"
  },
  "id": 47
}