{
  "abi": [
    {
      "inputs": [],
      "stateMutability": "nonpayable",
      "type": "constructor"
    },
    {
      "inputs": [],
      "name": "AddRoleFailed",
      "type": "error"
    },
    {
      "inputs": [],
      "name": "ChannelAlreadyRegistered",
      "type": "error"
    },
    {
      "inputs": [],
      "name": "ChannelDoesNotExist",
      "type": "error"
    },
    {
      "inputs": [],
      "name": "EntitlementAlreadyExists",
      "type": "error"
    },
    {
      "inputs": [],
      "name": "EntitlementAlreadyWhitelisted",
      "type": "error"
    },
    {
      "inputs": [],
      "name": "EntitlementModuleNotSupported",
      "type": "error"
    },
    {
      "inputs": [],
      "name": "EntitlementNotWhitelisted",
      "type": "error"
    },
    {
      "inputs": [],
      "name": "InvalidParameters",
      "type": "error"
    },
    {
      "inputs": [],
      "name": "MissingOwnerPermission",
      "type": "error"
    },
    {
      "inputs": [],
      "name": "NameContainsInvalidCharacters",
      "type": "error"
    },
    {
      "inputs": [],
      "name": "NameLengthInvalid",
      "type": "error"
    },
    {
      "inputs": [],
      "name": "NotAllowed",
      "type": "error"
    },
    {
      "inputs": [],
      "name": "PermissionAlreadyExists",
      "type": "error"
    },
    {
      "inputs": [],
      "name": "RoleDoesNotExist",
      "type": "error"
    },
    {
      "inputs": [],
      "name": "RoleIsAssignedToEntitlement",
      "type": "error"
    },
    {
      "anonymous": false,
      "inputs": [
        {
          "indexed": false,
          "internalType": "address",
          "name": "previousAdmin",
          "type": "address"
        },
        {
          "indexed": false,
          "internalType": "address",
          "name": "newAdmin",
          "type": "address"
        }
      ],
      "name": "AdminChanged",
      "type": "event"
    },
    {
      "anonymous": false,
      "inputs": [
        {
          "indexed": true,
          "internalType": "address",
          "name": "beacon",
          "type": "address"
        }
      ],
      "name": "BeaconUpgraded",
      "type": "event"
    },
    {
      "anonymous": false,
      "inputs": [
        {
          "indexed": false,
          "internalType": "uint8",
          "name": "version",
          "type": "uint8"
        }
      ],
      "name": "Initialized",
      "type": "event"
    },
    {
      "anonymous": false,
      "inputs": [
        {
          "indexed": true,
          "internalType": "address",
          "name": "implementation",
          "type": "address"
        }
      ],
      "name": "Upgraded",
      "type": "event"
    },
    {
      "inputs": [
        {
          "internalType": "uint256",
          "name": "_roleId",
          "type": "uint256"
        },
        {
          "internalType": "string[]",
          "name": "_permissions",
          "type": "string[]"
        }
      ],
      "name": "addPermissionsToRole",
      "outputs": [],
      "stateMutability": "nonpayable",
      "type": "function"
    },
    {
      "inputs": [
        {
          "internalType": "string",
          "name": "_channelNetworkId",
          "type": "string"
        },
        {
          "internalType": "address",
          "name": "_entitlement",
          "type": "address"
        },
        {
          "internalType": "uint256",
          "name": "_roleId",
          "type": "uint256"
        }
      ],
      "name": "addRoleToChannel",
      "outputs": [],
      "stateMutability": "nonpayable",
      "type": "function"
    },
    {
      "inputs": [
        {
          "internalType": "uint256",
          "name": "_roleId",
          "type": "uint256"
        },
        {
          "components": [
            {
              "internalType": "address",
              "name": "module",
              "type": "address"
            },
            {
              "internalType": "bytes",
              "name": "data",
              "type": "bytes"
            }
          ],
          "internalType": "struct DataTypes.Entitlement",
          "name": "_entitlement",
          "type": "tuple"
        }
      ],
      "name": "addRoleToEntitlement",
      "outputs": [],
      "stateMutability": "nonpayable",
      "type": "function"
    },
    {
      "inputs": [
        {
          "internalType": "uint256",
          "name": "",
          "type": "uint256"
        }
      ],
      "name": "channels",
      "outputs": [
        {
          "internalType": "bytes32",
          "name": "",
          "type": "bytes32"
        }
      ],
      "stateMutability": "view",
      "type": "function"
    },
    {
      "inputs": [
        {
          "internalType": "bytes32",
          "name": "",
          "type": "bytes32"
        }
      ],
      "name": "channelsByHash",
      "outputs": [
        {
          "internalType": "string",
          "name": "name",
          "type": "string"
        },
        {
          "internalType": "string",
          "name": "channelNetworkId",
          "type": "string"
        },
        {
          "internalType": "bytes32",
          "name": "channelHash",
          "type": "bytes32"
        },
        {
          "internalType": "uint256",
          "name": "createdAt",
          "type": "uint256"
        },
        {
          "internalType": "bool",
          "name": "disabled",
          "type": "bool"
        }
      ],
      "stateMutability": "view",
      "type": "function"
    },
    {
      "inputs": [
        {
          "internalType": "string",
          "name": "channelName",
          "type": "string"
        },
        {
          "internalType": "string",
          "name": "channelNetworkId",
          "type": "string"
        },
        {
          "internalType": "uint256[]",
          "name": "roleIds",
          "type": "uint256[]"
        }
      ],
      "name": "createChannel",
      "outputs": [
        {
          "internalType": "bytes32",
          "name": "",
          "type": "bytes32"
        }
      ],
      "stateMutability": "nonpayable",
      "type": "function"
    },
    {
      "inputs": [
        {
          "internalType": "string",
          "name": "_roleName",
          "type": "string"
        },
        {
          "internalType": "string[]",
          "name": "_permissions",
          "type": "string[]"
        },
        {
          "components": [
            {
              "internalType": "address",
              "name": "module",
              "type": "address"
            },
            {
              "internalType": "bytes",
              "name": "data",
              "type": "bytes"
            }
          ],
          "internalType": "struct DataTypes.Entitlement[]",
          "name": "_entitlements",
          "type": "tuple[]"
        }
      ],
      "name": "createRole",
      "outputs": [
        {
          "internalType": "uint256",
          "name": "",
          "type": "uint256"
        }
      ],
      "stateMutability": "nonpayable",
      "type": "function"
    },
    {
      "inputs": [
        {
          "internalType": "address",
          "name": "",
          "type": "address"
        }
      ],
      "name": "defaultEntitlements",
      "outputs": [
        {
          "internalType": "bool",
          "name": "",
          "type": "bool"
        }
      ],
      "stateMutability": "view",
      "type": "function"
    },
    {
      "inputs": [],
      "name": "disabled",
      "outputs": [
        {
          "internalType": "bool",
          "name": "",
          "type": "bool"
        }
      ],
      "stateMutability": "view",
      "type": "function"
    },
    {
      "inputs": [
        {
          "internalType": "uint256",
          "name": "",
          "type": "uint256"
        }
      ],
      "name": "entitlements",
      "outputs": [
        {
          "internalType": "address",
          "name": "",
          "type": "address"
        }
      ],
      "stateMutability": "view",
      "type": "function"
    },
    {
      "inputs": [
        {
          "internalType": "bytes32",
          "name": "_channelHash",
          "type": "bytes32"
        }
      ],
      "name": "getChannelByHash",
      "outputs": [
        {
          "components": [
            {
              "internalType": "string",
              "name": "name",
              "type": "string"
            },
            {
              "internalType": "string",
              "name": "channelNetworkId",
              "type": "string"
            },
            {
              "internalType": "bytes32",
              "name": "channelHash",
              "type": "bytes32"
            },
            {
              "internalType": "uint256",
              "name": "createdAt",
              "type": "uint256"
            },
            {
              "internalType": "bool",
              "name": "disabled",
              "type": "bool"
            }
          ],
          "internalType": "struct DataTypes.Channel",
          "name": "",
          "type": "tuple"
        }
      ],
      "stateMutability": "view",
      "type": "function"
    },
    {
      "inputs": [],
      "name": "getChannels",
      "outputs": [
        {
          "internalType": "bytes32[]",
          "name": "",
          "type": "bytes32[]"
        }
      ],
      "stateMutability": "view",
      "type": "function"
    },
    {
      "inputs": [
        {
          "internalType": "string",
          "name": "_moduleType",
          "type": "string"
        }
      ],
      "name": "getEntitlementByModuleType",
      "outputs": [
        {
          "internalType": "address",
          "name": "",
          "type": "address"
        }
      ],
      "stateMutability": "view",
      "type": "function"
    },
    {
      "inputs": [
        {
          "internalType": "uint256",
          "name": "_roleId",
          "type": "uint256"
        }
      ],
      "name": "getEntitlementIdsByRoleId",
      "outputs": [
        {
          "internalType": "bytes32[]",
          "name": "",
          "type": "bytes32[]"
        }
      ],
      "stateMutability": "view",
      "type": "function"
    },
    {
      "inputs": [],
      "name": "getEntitlementModules",
      "outputs": [
        {
          "components": [
            {
              "internalType": "string",
              "name": "name",
              "type": "string"
            },
            {
              "internalType": "address",
              "name": "module",
              "type": "address"
            },
            {
              "internalType": "string",
              "name": "moduleType",
              "type": "string"
            },
            {
              "internalType": "bool",
              "name": "enabled",
              "type": "bool"
            }
          ],
          "internalType": "struct DataTypes.EntitlementModule[]",
          "name": "_entitlementModules",
          "type": "tuple[]"
        }
      ],
      "stateMutability": "view",
      "type": "function"
    },
    {
      "inputs": [
        {
          "internalType": "uint256",
          "name": "_roleId",
          "type": "uint256"
        }
      ],
      "name": "getPermissionsByRoleId",
      "outputs": [
        {
          "internalType": "bytes32[]",
          "name": "",
          "type": "bytes32[]"
        }
      ],
      "stateMutability": "view",
      "type": "function"
    },
    {
      "inputs": [
        {
          "internalType": "uint256",
          "name": "_roleId",
          "type": "uint256"
        }
      ],
      "name": "getRoleById",
      "outputs": [
        {
          "components": [
            {
              "internalType": "uint256",
              "name": "roleId",
              "type": "uint256"
            },
            {
              "internalType": "string",
              "name": "name",
              "type": "string"
            }
          ],
          "internalType": "struct DataTypes.Role",
          "name": "",
          "type": "tuple"
        }
      ],
      "stateMutability": "view",
      "type": "function"
    },
    {
      "inputs": [],
      "name": "getRoles",
      "outputs": [
        {
          "components": [
            {
              "internalType": "uint256",
              "name": "roleId",
              "type": "uint256"
            },
            {
              "internalType": "string",
              "name": "name",
              "type": "string"
            }
          ],
          "internalType": "struct DataTypes.Role[]",
          "name": "",
          "type": "tuple[]"
        }
      ],
      "stateMutability": "view",
      "type": "function"
    },
    {
      "inputs": [
        {
          "internalType": "address",
          "name": "",
          "type": "address"
        }
      ],
      "name": "hasEntitlement",
      "outputs": [
        {
          "internalType": "bool",
          "name": "",
          "type": "bool"
        }
      ],
      "stateMutability": "view",
      "type": "function"
    },
    {
      "inputs": [
        {
          "internalType": "string",
          "name": "_name",
          "type": "string"
        },
        {
          "internalType": "string",
          "name": "_networkId",
          "type": "string"
        },
        {
          "internalType": "address[]",
          "name": "_entitlements",
          "type": "address[]"
        },
        {
          "internalType": "address",
          "name": "_token",
          "type": "address"
        },
        {
          "internalType": "uint256",
          "name": "_tokenId",
          "type": "uint256"
        }
      ],
      "name": "initialize",
      "outputs": [],
      "stateMutability": "nonpayable",
      "type": "function"
    },
    {
      "inputs": [
        {
          "internalType": "string",
          "name": "_channelNetworkId",
          "type": "string"
        },
        {
          "internalType": "address",
          "name": "_user",
          "type": "address"
        },
        {
          "internalType": "string",
          "name": "_permission",
          "type": "string"
        }
      ],
      "name": "isEntitledToChannel",
      "outputs": [
        {
          "internalType": "bool",
          "name": "_entitled",
          "type": "bool"
        }
      ],
      "stateMutability": "view",
      "type": "function"
    },
    {
      "inputs": [
        {
          "internalType": "address",
          "name": "_user",
          "type": "address"
        },
        {
          "internalType": "string",
          "name": "_permission",
          "type": "string"
        }
      ],
      "name": "isEntitledToSpace",
      "outputs": [
        {
          "internalType": "bool",
          "name": "_entitled",
          "type": "bool"
        }
      ],
      "stateMutability": "view",
      "type": "function"
    },
    {
      "inputs": [
        {
          "internalType": "bytes[]",
          "name": "data",
          "type": "bytes[]"
        }
      ],
      "name": "multicall",
      "outputs": [
        {
          "internalType": "bytes[]",
          "name": "results",
          "type": "bytes[]"
        }
      ],
      "stateMutability": "nonpayable",
      "type": "function"
    },
    {
      "inputs": [],
      "name": "name",
      "outputs": [
        {
          "internalType": "string",
          "name": "",
          "type": "string"
        }
      ],
      "stateMutability": "view",
      "type": "function"
    },
    {
      "inputs": [],
      "name": "networkId",
      "outputs": [
        {
          "internalType": "string",
          "name": "",
          "type": "string"
        }
      ],
      "stateMutability": "view",
      "type": "function"
    },
    {
      "inputs": [],
      "name": "owner",
      "outputs": [
        {
          "internalType": "address",
          "name": "",
          "type": "address"
        }
      ],
      "stateMutability": "view",
      "type": "function"
    },
    {
      "inputs": [],
      "name": "ownerRoleId",
      "outputs": [
        {
          "internalType": "uint256",
          "name": "",
          "type": "uint256"
        }
      ],
      "stateMutability": "view",
      "type": "function"
    },
    {
      "inputs": [],
      "name": "proxiableUUID",
      "outputs": [
        {
          "internalType": "bytes32",
          "name": "",
          "type": "bytes32"
        }
      ],
      "stateMutability": "view",
      "type": "function"
    },
    {
      "inputs": [
        {
          "internalType": "uint256",
          "name": "_roleId",
          "type": "uint256"
        },
        {
          "internalType": "string[]",
          "name": "_permissions",
          "type": "string[]"
        }
      ],
      "name": "removePermissionsFromRole",
      "outputs": [],
      "stateMutability": "nonpayable",
      "type": "function"
    },
    {
      "inputs": [
        {
          "internalType": "uint256",
          "name": "_roleId",
          "type": "uint256"
        }
      ],
      "name": "removeRole",
      "outputs": [],
      "stateMutability": "nonpayable",
      "type": "function"
    },
    {
      "inputs": [
        {
          "internalType": "string",
          "name": "_channelNetworkId",
          "type": "string"
        },
        {
          "internalType": "address",
          "name": "_entitlement",
          "type": "address"
        },
        {
          "internalType": "uint256",
          "name": "_roleId",
          "type": "uint256"
        }
      ],
      "name": "removeRoleFromChannel",
      "outputs": [],
      "stateMutability": "nonpayable",
      "type": "function"
    },
    {
      "inputs": [
        {
          "internalType": "uint256",
          "name": "_roleId",
          "type": "uint256"
        },
        {
          "components": [
            {
              "internalType": "address",
              "name": "module",
              "type": "address"
            },
            {
              "internalType": "bytes",
              "name": "data",
              "type": "bytes"
            }
          ],
          "internalType": "struct DataTypes.Entitlement",
          "name": "_entitlement",
          "type": "tuple"
        }
      ],
      "name": "removeRoleFromEntitlement",
      "outputs": [],
      "stateMutability": "nonpayable",
      "type": "function"
    },
    {
      "inputs": [],
      "name": "roleCount",
      "outputs": [
        {
          "internalType": "uint256",
          "name": "",
          "type": "uint256"
        }
      ],
      "stateMutability": "view",
      "type": "function"
    },
    {
      "inputs": [
        {
          "internalType": "uint256",
          "name": "",
          "type": "uint256"
        }
      ],
      "name": "rolesById",
      "outputs": [
        {
          "internalType": "uint256",
          "name": "roleId",
          "type": "uint256"
        },
        {
          "internalType": "string",
          "name": "name",
          "type": "string"
        }
      ],
      "stateMutability": "view",
      "type": "function"
    },
    {
      "inputs": [
        {
          "internalType": "string",
          "name": "channelNetworkId",
          "type": "string"
        },
        {
          "internalType": "bool",
          "name": "disableChannel",
          "type": "bool"
        }
      ],
      "name": "setChannelAccess",
      "outputs": [],
      "stateMutability": "nonpayable",
      "type": "function"
    },
    {
      "inputs": [
        {
          "internalType": "address",
          "name": "_entitlementModule",
          "type": "address"
        },
        {
          "internalType": "bool",
          "name": "_whitelist",
          "type": "bool"
        }
      ],
      "name": "setEntitlementModule",
      "outputs": [],
      "stateMutability": "nonpayable",
      "type": "function"
    },
    {
      "inputs": [
        {
          "internalType": "uint256",
          "name": "_roleId",
          "type": "uint256"
        }
      ],
      "name": "setOwnerRoleId",
      "outputs": [],
      "stateMutability": "nonpayable",
      "type": "function"
    },
    {
      "inputs": [
        {
          "internalType": "bool",
          "name": "_disabled",
          "type": "bool"
        }
      ],
      "name": "setSpaceAccess",
      "outputs": [],
      "stateMutability": "nonpayable",
      "type": "function"
    },
    {
      "inputs": [],
      "name": "token",
      "outputs": [
        {
          "internalType": "address",
          "name": "",
          "type": "address"
        }
      ],
      "stateMutability": "view",
      "type": "function"
    },
    {
      "inputs": [],
      "name": "tokenId",
      "outputs": [
        {
          "internalType": "uint256",
          "name": "",
          "type": "uint256"
        }
      ],
      "stateMutability": "view",
      "type": "function"
    },
    {
      "inputs": [
        {
          "internalType": "string",
          "name": "channelNetworkId",
          "type": "string"
        },
        {
          "internalType": "string",
          "name": "channelName",
          "type": "string"
        }
      ],
      "name": "updateChannel",
      "outputs": [],
      "stateMutability": "nonpayable",
      "type": "function"
    },
    {
      "inputs": [
        {
          "internalType": "uint256",
          "name": "_roleId",
          "type": "uint256"
        },
        {
          "internalType": "string",
          "name": "_roleName",
          "type": "string"
        }
      ],
      "name": "updateRole",
      "outputs": [],
      "stateMutability": "nonpayable",
      "type": "function"
    },
    {
      "inputs": [
        {
          "internalType": "address",
          "name": "_entitlement",
          "type": "address"
        },
        {
          "internalType": "address",
          "name": "_newEntitlement",
          "type": "address"
        }
      ],
      "name": "upgradeEntitlement",
      "outputs": [],
      "stateMutability": "nonpayable",
      "type": "function"
    },
    {
      "inputs": [
        {
          "internalType": "address",
          "name": "newImplementation",
          "type": "address"
        }
      ],
      "name": "upgradeTo",
      "outputs": [],
      "stateMutability": "nonpayable",
      "type": "function"
    },
    {
      "inputs": [
        {
          "internalType": "address",
          "name": "newImplementation",
          "type": "address"
        },
        {
          "internalType": "bytes",
          "name": "data",
          "type": "bytes"
        }
      ],
      "name": "upgradeToAndCall",
      "outputs": [],
      "stateMutability": "payable",
      "type": "function"
    }
  ],
  "bytecode": {
    "object": "0x60a0604052306080523480156200001557600080fd5b506200002062000026565b620000e7565b600054610100900460ff1615620000935760405162461bcd60e51b815260206004820152602760248201527f496e697469616c697a61626c653a20636f6e747261637420697320696e697469604482015266616c697a696e6760c81b606482015260840160405180910390fd5b60005460ff90811614620000e5576000805460ff191660ff9081179091556040519081527f7f26b83ff96e1f2b6a682f133852f6798a09c465da95921460cefb38474024989060200160405180910390a15b565b6080516153146200011f6000396000818161104801528181611091015281816113e201528181611422015261193601526153146000f3fe6080604052600436106102725760003560e01c8063870b94641161014f578063baaf3d57116100c1578063e5949b5d1161007a578063e5949b5d146107aa578063ee070805146107ca578063f28f9b56146107e4578063f3ce6a5b14610804578063fa6433c514610824578063fc0c546a1461085457600080fd5b8063baaf3d57146106f0578063cea632bc14610710578063d1a6a96114610730578063dba8186414610746578063ddf9635814610766578063e5894ef41461077c57600080fd5b80639575f6ac116101135780639575f6ac1461062e5780639a8e4c3e14610643578063ac9650d814610663578063b426423314610690578063b7515761146106b0578063ba201ba8146106d057600080fd5b8063870b94641461058c5780638da5cb5b146105c45780638fcd793d146105d95780639025e64c146105f9578063926918211461060e57600080fd5b8063446dc22e116101e857806352d1902d116101ac57806352d1902d146104ab5780635de151b8146104c0578063703511f8146104e0578063710613981461050d578063784c872b1461052f5780637f8d06d01461055c57600080fd5b8063446dc22e146104185780634999ab16146104385780634f1ef28614610458578063519607f21461046b57806351f83cea1461048b57600080fd5b806320759f9e1161023a57806320759f9e1461033b57806332e704cc1461036b57806334a1dd261461038b5780633659cfe6146103ab57806342486e49146103cb578063441555e5146103f857600080fd5b806306fdde03146102775780630d029f75146102a2578063129ab3c8146102c457806317d70f7c146102f55780631dea616a14610319575b600080fd5b34801561028357600080fd5b5061028c610874565b6040516102999190613fb0565b60405180910390f35b3480156102ae57600080fd5b506102b7610902565b6040516102999190613fc3565b3480156102d057600080fd5b506102e46102df36600461406c565b610b43565b604051610299959493929190614085565b34801561030157600080fd5b5061030b609c5481565b604051908152602001610299565b34801561032557600080fd5b50610339610334366004614137565b610c86565b005b34801561034757600080fd5b5061035b610356366004614193565b610dbd565b6040519015158152602001610299565b34801561037757600080fd5b506103396103863660046142aa565b610e33565b34801561039757600080fd5b506103396103a63660046142f0565b610f4f565b3480156103b757600080fd5b506103396103c636600461435b565b61103e565b3480156103d757600080fd5b506103eb6103e636600461406c565b611126565b6040516102999190614378565b34801561040457600080fd5b506103396104133660046143ca565b611188565b34801561042457600080fd5b50610339610433366004614403565b61125c565b34801561044457600080fd5b5061033961045336600461406c565b611294565b610339610466366004614420565b6113d8565b34801561047757600080fd5b50610339610486366004614459565b6114a4565b34801561049757600080fd5b5061030b6104a63660046144aa565b6115bf565b3480156104b757600080fd5b5061030b611929565b3480156104cc57600080fd5b506103396104db36600461458b565b6119dc565b3480156104ec57600080fd5b506105006104fb36600461406c565b611aa2565b60405161029991906145e1565b34801561051957600080fd5b50610522611c33565b604051610299919061466e565b34801561053b57600080fd5b5061054f61054a36600461406c565b611da1565b60405161029991906146d0565b34801561056857600080fd5b5061035b61057736600461435b565b609d6020526000908152604090205460ff1681565b34801561059857600080fd5b506105ac6105a73660046146e3565b611e77565b6040516001600160a01b039091168152602001610299565b3480156105d057600080fd5b506105ac611f60565b3480156105e557600080fd5b5061030b6105f436600461481a565b611fd7565b34801561060557600080fd5b5061028c612302565b34801561061a57600080fd5b5061033961062936600461406c565b61230f565b34801561063a57600080fd5b506103eb612446565b34801561064f57600080fd5b5061033961065e366004614915565b61249e565b34801561066f57600080fd5b5061068361067e366004614951565b6126ab565b60405161029991906149c5565b34801561069c57600080fd5b506103eb6106ab36600461406c565b6127c2565b3480156106bc57600080fd5b506103396106cb366004614915565b612822565b3480156106dc57600080fd5b506103396106eb366004614a1a565b6129ba565b3480156106fc57600080fd5b5061033961070b366004614137565b612a93565b34801561071c57600080fd5b5061035b61072b366004614a56565b612b92565b34801561073c57600080fd5b5061030b609a5481565b34801561075257600080fd5b50610339610761366004614ada565b612ce4565b34801561077257600080fd5b5061030b60a15481565b34801561078857600080fd5b5061079c61079736600461406c565b612f4d565b604051610299929190614b1c565b3480156107b657600080fd5b5061030b6107c536600461406c565b612ff2565b3480156107d657600080fd5b5060995461035b9060ff1681565b3480156107f057600080fd5b506105ac6107ff36600461406c565b613013565b34801561081057600080fd5b5061033961081f366004614b35565b61303d565b34801561083057600080fd5b5061035b61083f36600461435b565b609e6020526000908152604090205460ff1681565b34801561086057600080fd5b50609b546105ac906001600160a01b031681565b6097805461088190614c34565b80601f01602080910402602001604051908101604052809291908181526020018280546108ad90614c34565b80156108fa5780601f106108cf576101008083540402835291602001916108fa565b820191906000526020600020905b8154815290600101906020018083116108dd57829003601f168201915b505050505081565b60a0546060906001600160401b0381111561091f5761091f6141e7565b60405190808252806020026020018201604052801561097257816020015b6040805160808101825260608082526000602080840182905293830182905290820152825260001990920191018161093d5790505b50905060005b60a054811015610b3f57600060a0828154811061099757610997614c68565b600091825260208220015460408051608081018083526306fdde0360e01b905290516001600160a01b03909216935091829184916306fdde039160848086019291908187030181865afa1580156109f2573d6000803e3d6000fd5b505050506040513d6000823e601f3d908101601f19168201604052610a1a9190810190614c7e565b815260200160a08481548110610a3257610a32614c68565b9060005260206000200160009054906101000a90046001600160a01b03166001600160a01b03168152602001826001600160a01b0316636465e69f6040518163ffffffff1660e01b8152600401600060405180830381865afa158015610a9c573d6000803e3d6000fd5b505050506040513d6000823e601f3d908101601f19168201604052610ac49190810190614c7e565b8152602001609d600060a08681548110610ae057610ae0614c68565b60009182526020808320909101546001600160a01b0316835282019290925260400190205460ff16151590528351849084908110610b2057610b20614c68565b6020026020010181905250508080610b3790614d01565b915050610978565b5090565b60a460205260009081526040902080548190610b5e90614c34565b80601f0160208091040260200160405190810160405280929190818152602001828054610b8a90614c34565b8015610bd75780601f10610bac57610100808354040283529160200191610bd7565b820191906000526020600020905b815481529060010190602001808311610bba57829003601f168201915b505050505090806001018054610bec90614c34565b80601f0160208091040260200160405190810160405280929190818152602001828054610c1890614c34565b8015610c655780601f10610c3a57610100808354040283529160200191610c65565b820191906000526020600020905b815481529060010190602001808311610c4857829003601f168201915b50505050600283015460038401546004909401549293909290915060ff1685565b610cee84848080601f0160208091040260200160405190810160405280939291908181526020018383808284376000920191909152505060408051808201909152601181527041646452656d6f76654368616e6e656c7360781b602082015291506132219050565b6001600160a01b0382166000908152609d602052604090205460ff16610d275760405163c1ef36f360e01b815260040160405180910390fd5b600081815260a260205260408120549003610d555760405163b810dc5d60e01b815260040160405180910390fd5b60405163c513be7760e01b81526001600160a01b0383169063c513be7790610d8590879087908690600401614d43565b600060405180830381600087803b158015610d9f57600080fd5b505af1158015610db3573d6000803e3d6000fd5b5050505050505050565b6000805b60a054811015610e2b57610e0f60405180602001604052806000815250868686604051602001610df2929190614d67565b604051602081830303815290604052610e0a90614d77565b613275565b15610e1957600191505b80610e2381614d01565b915050610dc1565b509392505050565b610e6f60405180602001604052806000815250604051806040016040528060168152602001600080516020615298833981519152815250613221565b610e788161332e565b609a548203610e9a57604051631eb49d6d60e11b815260040160405180910390fd5b600082815260a260205260408120549003610ec85760405163b810dc5d60e01b815260040160405180910390fd5b8051600003610eea57604051630e52390960e41b815260040160405180910390fd5b600082815260a260205260409020600101610f058282614de1565b5081336001600160a01b03167ff3c55faf0b13ffa681c984baddbb8ef7638e514188ea19bd6461d7f87b9c7953836098604051610f43929190614f1d565b60405180910390a35050565b610f91604051806020016040528060008152506040518060400160405280601181526020017041646452656d6f76654368616e6e656c7360781b815250613221565b610f9b828261335f565b60008484604051602001610fb0929190614d67565b60408051601f198184030181529181528151602092830120600081815260a4909352908220600201549092509003610ffb57604051636ddd9da960e01b815260040160405180910390fd5b600082900361101d57604051631eb49d6d60e11b815260040160405180910390fd5b600081815260a460205260409020611036838583614f42565b505050505050565b6001600160a01b037f000000000000000000000000000000000000000000000000000000000000000016300361108f5760405162461bcd60e51b815260040161108690615001565b60405180910390fd5b7f00000000000000000000000000000000000000000000000000000000000000006001600160a01b03166110d8600080516020615278833981519152546001600160a01b031690565b6001600160a01b0316146110fe5760405162461bcd60e51b81526004016110869061504d565b61110781613574565b60408051600080825260208201909252611123918391906135aa565b50565b6000818152609f602090815260409182902080548351818402810184019094528084526060939283018282801561117c57602002820191906000526020600020905b815481526020019060010190808311611168575b50505050509050919050565b6111be604051806020016040528060008152506040518060400160405280600581526020016427bbb732b960d91b815250613221565b6111c782613715565b8080156111ec57506001600160a01b0382166000908152609d602052604090205460ff165b1561120a5760405163186abc9b60e01b815260040160405180910390fd5b8015801561123057506001600160a01b0382166000908152609e602052604090205460ff165b1561124e57604051631eb49d6d60e11b815260040160405180910390fd5b61125882826137a6565b5050565b611264613927565b61128157604051631eb49d6d60e11b815260040160405180910390fd5b6099805460ff1916911515919091179055565b61129c613927565b6112b957604051631eb49d6d60e11b815260040160405180910390fd5b609a54156112da57604051631eb49d6d60e11b815260040160405180910390fd5b600081815260a2602052604081205490036113085760405163b810dc5d60e01b815260040160405180910390fd5b6000805b600083815260a360205260409020548110156113b3576040518060400160405280600581526020016427bbb732b960d91b8152506040516020016113509190615099565b60405160208183030381529060405261136890614d77565b600084815260a36020526040902080548390811061138857611388614c68565b9060005260206000200154036113a157600191506113b3565b806113ab81614d01565b91505061130c565b50806113d257604051633e74bd6360e21b815260040160405180910390fd5b50609a55565b6001600160a01b037f00000000000000000000000000000000000000000000000000000000000000001630036114205760405162461bcd60e51b815260040161108690615001565b7f00000000000000000000000000000000000000000000000000000000000000006001600160a01b0316611469600080516020615278833981519152546001600160a01b031690565b6001600160a01b03161461148f5760405162461bcd60e51b81526004016110869061504d565b61149882613574565b611258828260016135aa565b6114da604051806020016040528060008152506040518060400160405280600581526020016427bbb732b960d91b815250613221565b6001600160a01b03821615806114f757506001600160a01b038116155b1561151557604051630e52390960e41b815260040160405180910390fd5b6001600160a01b0382166000908152609d602052604090205460ff1661154e5760405163c1ef36f360e01b815260040160405180910390fd5b604051631b2ce7f360e11b81526001600160a01b038281166004830152831690633659cfe690602401600060405180830381600087803b15801561159157600080fd5b505af19250505080156115a2575060015b61125857604051630e52390960e41b815260040160405180910390fd5b6000611603604051806020016040528060008152506040518060400160405280601181526020017041646452656d6f76654368616e6e656c7360781b815250613221565b61160d858561335f565b6000836040516020016116209190615099565b60408051601f198184030181529181528151602092830120600081815260a49093529120600201549091501561166957604051630139324b60e41b815260040160405180910390fd5b6040518060a0016040528087878080601f016020809104026020016040519081016040528093929190818152602001838380828437600092018290525093855250505060208083018890526040808401869052426060850152608090930182905284825260a4905220815181906116e09082614de1565b50602082015160018201906116f59082614de1565b5060408201516002820155606082015160038201556080909101516004909101805460ff191691151591909117905560a5805460018101825560009182527fb29a2b3b6f2ff1b765777a231725941da5072cc4fcc30ac4a2ce09706e8ddeff018290555b60a05481101561191f57600060a0828154811061177857611778614c68565b600091825260209091200154609a5460405163c513be7760e01b81526001600160a01b039092169250829163c513be77916117b8918a91906004016150b5565b600060405180830381600087803b1580156117d257600080fd5b505af11580156117e6573d6000803e3d6000fd5b5050505060005b855181101561190a57609a5486828151811061180b5761180b614c68565b602002602001015103156118f85760a2600087838151811061182f5761182f614c68565b60200260200101518152602001908152602001600020600001546000036118695760405163b810dc5d60e01b815260040160405180910390fd5b816001600160a01b031663c513be778888848151811061188b5761188b614c68565b60200260200101516040518363ffffffff1660e01b81526004016118b09291906150b5565b600060405180830381600087803b1580156118ca57600080fd5b505af19250505080156118db575060015b6118f85760405163d9afe50760e01b815260040160405180910390fd5b8061190281614d01565b9150506117ed565b5050808061191790614d01565b915050611759565b5095945050505050565b6000306001600160a01b037f000000000000000000000000000000000000000000000000000000000000000016146119c95760405162461bcd60e51b815260206004820152603860248201527f555550535570677261646561626c653a206d757374206e6f742062652063616c60448201527f6c6564207468726f7567682064656c656761746563616c6c00000000000000006064820152608401611086565b5060008051602061527883398151915290565b611a1e604051806020016040528060008152506040518060400160405280601181526020017041646452656d6f76654368616e6e656c7360781b815250613221565b60008383604051602001611a33929190614d67565b60408051601f198184030181529181528151602092830120600081815260a4909352908220600201549092509003611a7e57604051636ddd9da960e01b815260040160405180910390fd5b600090815260a460205260409020600401805460ff19169115159190911790555050565b6040805160a081018252606080825260208201819052600092820183905281018290526080810191909152600082815260a4602052604090819020815160a08101909252805482908290611af590614c34565b80601f0160208091040260200160405190810160405280929190818152602001828054611b2190614c34565b8015611b6e5780601f10611b4357610100808354040283529160200191611b6e565b820191906000526020600020905b815481529060010190602001808311611b5157829003601f168201915b50505050508152602001600182018054611b8790614c34565b80601f0160208091040260200160405190810160405280929190818152602001828054611bb390614c34565b8015611c005780601f10611bd557610100808354040283529160200191611c00565b820191906000526020600020905b815481529060010190602001808311611be357829003601f168201915b5050509183525050600282015460208201526003820154604082015260049091015460ff16151560609091015292915050565b6060600060a1546001600160401b03811115611c5157611c516141e7565b604051908082528060200260200182016040528015611c9757816020015b604080518082019091526000815260606020820152815260200190600190039081611c6f5790505b50905060005b60a154811015611d9b5760a26000611cb68360016150d7565b815260200190815260200160002060405180604001604052908160008201548152602001600182018054611ce990614c34565b80601f0160208091040260200160405190810160405280929190818152602001828054611d1590614c34565b8015611d625780601f10611d3757610100808354040283529160200191611d62565b820191906000526020600020905b815481529060010190602001808311611d4557829003601f168201915b505050505081525050828281518110611d7d57611d7d614c68565b60200260200101819052508080611d9390614d01565b915050611c9d565b50919050565b60408051808201909152600081526060602082015260a2600083815260200190815260200160002060405180604001604052908160008201548152602001600182018054611dee90614c34565b80601f0160208091040260200160405190810160405280929190818152602001828054611e1a90614c34565b8015611e675780601f10611e3c57610100808354040283529160200191611e67565b820191906000526020600020905b815481529060010190602001808311611e4a57829003601f168201915b5050505050815250509050919050565b60008060005b60a054811015611f5957611f1760a08281548110611e9d57611e9d614c68565b600091825260208220015460408051636465e69f60e01b815290516001600160a01b0390921692636465e69f926004808401938290030181865afa158015611ee9573d6000803e3d6000fd5b505050506040513d6000823e601f3d908101601f19168201604052611f119190810190614c7e565b856139ae565b15611f475760a08181548110611f2f57611f2f614c68565b6000918252602090912001546001600160a01b031691505b80611f5181614d01565b915050611e7d565b5092915050565b609b54609c546040516331a9108f60e11b815260048101919091526000916001600160a01b031690636352211e90602401602060405180830381865afa158015611fae573d6000803e3d6000fd5b505050506040513d601f19601f82011682018060405250810190611fd291906150ea565b905090565b600061201560405180602001604052806000815250604051806040016040528060168152602001600080516020615298833981519152815250613221565b61205485858080601f01602080910402602001604051908101604052809392919081815260200183838082843760009201919091525061332e92505050565b600060a16000815461206590614d01565b91905081905590506000604051806040016040528083815260200188888080601f016020809104026020016040519081016040528093929190818152602001838380828437600092018290525093909452505084815260a2602090815260409091208351815590830151929350839290915060018201906120e69082614de1565b5090505060005b85518110156121d657609a5415158015612142575061214286828151811061211757612117614c68565b60200260200101516040518060400160405280600581526020016427bbb732b960d91b8152506139ae565b1561216057604051631eb49d6d60e11b815260040160405180910390fd5b600086828151811061217457612174614c68565b602002602001015160405160200161218c9190615099565b6040516020818303038152906040526121a490614d77565b600085815260a360209081526040822080546001810182559083529120015550806121ce81614d01565b9150506120ed565b5060005b84518110156122b05760008582815181106121f7576121f7614c68565b6020026020010151600001519050600086838151811061221957612219614c68565b602002602001015160200151905060006001600160a01b0316826001600160a01b0316148061224757508051155b1561225357505061229e565b6001600160a01b0382166000908152609d602052604081205460ff16151590036122905760405163c1ef36f360e01b815260040160405180910390fd5b61229b858383613a08565b50505b806122a881614d01565b9150506121da565b5081336001600160a01b03167f39772407c6dd2e83adbd292cdfa17a6817c9a7500e56cfe57b7a82d797f8d39b898960986040516122f093929190615107565b60405180910390a35095945050505050565b6098805461088190614c34565b61234b60405180602001604052806000815250604051806040016040528060168152602001600080516020615298833981519152815250613221565b609a54810361236d57604051631eb49d6d60e11b815260040160405180910390fd5b600081815260a26020526040812054900361239b5760405163b810dc5d60e01b815260040160405180910390fd5b6000818152609f6020526040902054156123c857604051633764405360e11b815260040160405180910390fd5b600081815260a260205260408120818155906123e76001830182613ef7565b5050600081815260a36020526040812061240091613f31565b80336001600160a01b03167f1d5667a301e36f2d5b1ee32b7f187b0adb46c706297242fa945d3fed1e7f8a19609860405161243b9190615137565b60405180910390a350565b606060a580548060200260200160405190810160405280929190818152602001828054801561249457602002820191906000526020600020905b815481526020019060010190808311612480575b5050505050905090565b6124da60405180602001604052806000815250604051806040016040528060168152602001600080516020615298833981519152815250613221565b600082815260a2602052604081205490036125085760405163b810dc5d60e01b815260040160405180910390fd5b60005b81518110156126a65761252982828151811061211757612117614c68565b1561254757604051631eb49d6d60e11b815260040160405180910390fd5b600082828151811061255b5761255b614c68565b60200260200101516040516020016125739190615099565b60405160208183030381529060405261258b90614d77565b905060005b600085815260a3602052604090205481101561269157600085815260a3602052604090208054839190839081106125c9576125c9614c68565b90600052602060002001540361267f57600085815260a36020526040902080546125f59060019061514a565b8154811061260557612605614c68565b906000526020600020015460a36000878152602001908152602001600020828154811061263457612634614c68565b906000526020600020018190555060a360008681526020019081526020016000208054806126645761266461515d565b60019003818190600052602060002001600090559055612691565b8061268981614d01565b915050612590565b5050808061269e90614d01565b91505061250b565b505050565b6060816001600160401b038111156126c5576126c56141e7565b6040519080825280602002602001820160405280156126f857816020015b60608152602001906001900390816126e35790505b50905060005b82811015611f59576000803086868581811061271c5761271c614c68565b905060200281019061272e9190615173565b60405161273c929190614d67565b600060405180830381855af49150503d8060008114612777576040519150601f19603f3d011682016040523d82523d6000602084013e61277c565b606091505b50915091508161278f5761278f81613b78565b808484815181106127a2576127a2614c68565b6020026020010181905250505080806127ba90614d01565b9150506126fe565b600081815260a3602090815260409182902080548351818402810184019094528084526060939283018282801561117c57602002820191906000526020600020908154815260200190600101908083116111685750505050509050919050565b61285e60405180602001604052806000815250604051806040016040528060168152602001600080516020615298833981519152815250613221565b600082815260a26020526040812054900361288c5760405163b810dc5d60e01b815260040160405180910390fd5b60005b81518110156126a6576128ad82828151811061211757612117614c68565b156128cb57604051631eb49d6d60e11b815260040160405180910390fd5b60008282815181106128df576128df614c68565b60200260200101516040516020016128f79190615099565b60405160208183030381529060405261290f90614d77565b905060005b600085815260a3602052604090205481101561298857600085815260a36020526040902080548391908390811061294d5761294d614c68565b90600052602060002001540361297657604051636571d65f60e01b815260040160405180910390fd5b8061298081614d01565b915050612914565b50600084815260a3602090815260408220805460018101825590835291200155806129b281614d01565b91505061288f565b6129f660405180602001604052806000815250604051806040016040528060168152602001600080516020615298833981519152815250613221565b80516001600160a01b03166000908152609d602052604090205460ff16612a305760405163c1ef36f360e01b815260040160405180910390fd5b600082815260a260205260408120549003612a5e5760405163b810dc5d60e01b815260040160405180910390fd5b609a548203612a8057604051631eb49d6d60e11b815260040160405180910390fd5b6112588282600001518360200151613a08565b612afb84848080601f0160208091040260200160405190810160405280939291908181526020018383808284376000920191909152505060408051808201909152601181527041646452656d6f76654368616e6e656c7360781b602082015291506132219050565b6001600160a01b0382166000908152609d602052604090205460ff16612b345760405163c1ef36f360e01b815260040160405180910390fd5b600081815260a260205260408120549003612b625760405163b810dc5d60e01b815260040160405180910390fd5b604051637997c1e760e11b81526001600160a01b0383169063f32f83ce90610d8590879087908690600401614d43565b6000841580612b9f575081155b80612bb157506001600160a01b038416155b15612bcf57604051630e52390960e41b815260040160405180910390fd5b60008686604051602001612be4929190614d67565b60408051601f198184030181529181528151602092830120600081815260a4909352908220600201549092509003612c2f57604051636ddd9da960e01b815260040160405180910390fd5b600081815260a4602052604090206004015460ff1615612c6257604051631eb49d6d60e11b815260040160405180910390fd5b60005b60a054811015612cd957612cbd88888080601f016020809104026020016040519081016040528093929190818152602001838380828437600092019190915250506040518a9250610df2915089908990602001614d67565b15612cc757600192505b80612cd181614d01565b915050612c65565b505095945050505050565b612d2060405180602001604052806000815250604051806040016040528060168152602001600080516020615298833981519152815250613221565b609a548203612d4257604051631eb49d6d60e11b815260040160405180910390fd5b609d6000612d53602084018461435b565b6001600160a01b0316815260208101919091526040016000205460ff16612d8d5760405163c1ef36f360e01b815260040160405180910390fd5b600082815260a260205260408120549003612dbb5760405163b810dc5d60e01b815260040160405180910390fd5b600082612dcb6020840184615173565b604051602001612ddd939291906151b9565b60408051601f1981840301815291815281516020928301206000868152609f909352908220909250905b8154811015612ebb57818181548110612e2257612e22614c68565b90600052602060002001548303612ea95781548290612e439060019061514a565b81548110612e5357612e53614c68565b9060005260206000200154828281548110612e7057612e70614c68565b906000526020600020018190555081805480612e8e57612e8e61515d565b60019003818190600052602060002001600090559055612ebb565b80612eb381614d01565b915050612e07565b50612ec9602084018461435b565b6001600160a01b031663fa6d1adf85612ee56020870187615173565b6040518463ffffffff1660e01b8152600401612f03939291906151d3565b6020604051808303816000875af1158015612f22573d6000803e3d6000fd5b505050506040513d601f19601f82011682018060405250810190612f4691906151ed565b5050505050565b60a26020526000908152604090208054600182018054919291612f6f90614c34565b80601f0160208091040260200160405190810160405280929190818152602001828054612f9b90614c34565b8015612fe85780601f10612fbd57610100808354040283529160200191612fe8565b820191906000526020600020905b815481529060010190602001808311612fcb57829003601f168201915b5050505050905082565b60a5818154811061300257600080fd5b600091825260209091200154905081565b60a0818154811061302357600080fd5b6000918252602090912001546001600160a01b0316905081565b600054610100900460ff161580801561305d5750600054600160ff909116105b806130775750303b158015613077575060005460ff166001145b6130da5760405162461bcd60e51b815260206004820152602e60248201527f496e697469616c697a61626c653a20636f6e747261637420697320616c72656160448201526d191e481a5b9a5d1a585b1a5e995960921b6064820152608401611086565b6000805460ff1916600117905580156130fd576000805461ff0019166101001790555b613105613c45565b61310d613c45565b60976131198782614de1565b5060986131268682614de1565b50609b80546001600160a01b0319166001600160a01b038516179055609c82905560005b84518110156131d35761317785828151811061316857613168614c68565b602002602001015160016137a6565b6001609e600087848151811061318f5761318f614c68565b6020908102919091018101516001600160a01b03168252810191909152604001600020805460ff1916911515919091179055806131cb81614d01565b91505061314a565b508015611036576000805461ff0019169055604051600181527f7f26b83ff96e1f2b6a682f133852f6798a09c465da95921460cefb38474024989060200160405180910390a1505050505050565b613229613927565b80613253575060995460ff161580156132535750613253823383604051602001610df29190615099565b1561325c575050565b604051631eb49d6d60e11b815260040160405180910390fd5b6000805b60a054811015610e2b5760a0818154811061329657613296614c68565b60009182526020909120015460405162169d5560e31b81526001600160a01b039091169062b4eaa8906132d190889088908890600401615206565b602060405180830381865afa1580156132ee573d6000803e3d6000fd5b505050506040513d601f19601f820116820180604052508101906133129190615234565b1561331c57600191505b8061332681614d01565b915050613279565b8051819060021180613341575080516020105b156112585760405163354b556f60e11b815260040160405180910390fd5b600082828080601f0160208091040260200160405190810160405280939291908181526020018383808284376000920191909152505082519293505060029091109050806133ae575080516020105b156133cc5760405163354b556f60e11b815260040160405180910390fd5b805160005b81811015612f4657600360fc1b8382815181106133f0576133f0614c68565b01602001516001600160f81b031916108061342e5750603d60f91b83828151811061341d5761341d614c68565b01602001516001600160f81b031916115b8061348a5750603960f81b83828151811061344b5761344b614c68565b01602001516001600160f81b03191611801561348a5750606160f81b83828151811061347957613479614c68565b01602001516001600160f81b031916105b80156134bb57508281815181106134a3576134a3614c68565b6020910101516001600160f81b031916601760f91b14155b80156134ec57508281815181106134d4576134d4614c68565b6020910101516001600160f81b031916602d60f81b14155b801561351d575082818151811061350557613505614c68565b6020910101516001600160f81b031916605f60f81b14155b801561354e575082818151811061353657613536614c68565b6020910101516001600160f81b031916600160fd1b14155b1561356c5760405163f8fa659760e01b815260040160405180910390fd5b6001016133d1565b611123604051806020016040528060008152506040518060400160405280600581526020016427bbb732b960d91b815250613221565b7f4910fdfa16fed3260ed0e7147f7cc6da11a60208b5b9406d12a635614ffd91435460ff16156135dd576126a683613cb2565b826001600160a01b03166352d1902d6040518163ffffffff1660e01b8152600401602060405180830381865afa925050508015613637575060408051601f3d908101601f19168201909252613634918101906151ed565b60015b61369a5760405162461bcd60e51b815260206004820152602e60248201527f45524331393637557067726164653a206e657720696d706c656d656e7461746960448201526d6f6e206973206e6f74205555505360901b6064820152608401611086565b60008051602061527883398151915281146137095760405162461bcd60e51b815260206004820152602960248201527f45524331393637557067726164653a20756e737570706f727465642070726f786044820152681a58589b195555525160ba1b6064820152608401611086565b506126a6838383613d4e565b6040516301ffc9a760e01b815263e5e65adf60e01b60048201526001600160a01b038216906301ffc9a790602401602060405180830381865afa158015613760573d6000803e3d6000fd5b505050506040513d601f19601f820116820180604052508101906137849190615234565b151560000361112357604051636d9250f160e11b815260040160405180910390fd5b6001600160a01b0382166000908152609d60205260409020805460ff191682158015919091179091556138245760a080546001810182556000919091527f78fdc8d422c49ced035a9edf18d00d3c6a8d81df210f3e5e448e045e77b41e880180546001600160a01b0384166001600160a01b03199091161790555050565b60005b60a0548110156126a65760a0818154811061384457613844614c68565b6000918252602090912001546001600160a01b03908116908416036139155760a080546138739060019061514a565b8154811061388357613883614c68565b60009182526020909120015460a080546001600160a01b0390921691839081106138af576138af614c68565b9060005260206000200160006101000a8154816001600160a01b0302191690836001600160a01b0316021790555060a08054806138ee576138ee61515d565b600082815260209020810160001990810180546001600160a01b0319169055019055505050565b8061391f81614d01565b915050613827565b600033609b54609c546040516331a9108f60e11b815260048101919091526001600160a01b039283169290911690636352211e90602401602060405180830381865afa15801561397b573d6000803e3d6000fd5b505050506040513d601f19601f8201168201806040525081019061399f91906150ea565b6001600160a01b031614905090565b6000816040516020016139c19190615099565b60405160208183030381529060405280519060200120836040516020016139e89190615099565b604051602081830303815290604052805190602001201490505b92915050565b60008382604051602001613a1d929190615251565b60408051601f1981840301815282825280516020918201206000888152609f835283812080548085028701850190955284865291955093929091830182828015613a8657602002820191906000526020600020905b815481526020019060010190808311613a72575b5050505050905060005b8151811015613ae45782828281518110613aac57613aac614c68565b602002602001015103613ad25760405163c5c9ad6760e01b815260040160405180910390fd5b80613adc81614d01565b915050613a90565b506000858152609f602090815260408083208054600181018255908452919092200183905551633be2f95d60e21b81526001600160a01b0385169063ef8be57490613b359088908790600401614b1c565b6020604051808303816000875af1158015613b54573d6000803e3d6000fd5b505050506040513d601f19601f8201168201806040525081019061103691906151ed565b600481511015613bbd5760405162461bcd60e51b815260206004820152601060248201526f1d5b9a185b991b1959081c995d995c9d60821b6044820152606401611086565b602081015163b1b7848f60e01b6001600160e01b0319821601613c3c57604080518082018252600e81526d70616e69636b65643a2030785f5f60901b602082018181526024860151600481811c600f908116603090810160081b9184160117909317909152925162461bcd60e51b815291929161108691849101613fb0565b81518060208401fd5b600054610100900460ff16613cb05760405162461bcd60e51b815260206004820152602b60248201527f496e697469616c697a61626c653a20636f6e7472616374206973206e6f74206960448201526a6e697469616c697a696e6760a81b6064820152608401611086565b565b6001600160a01b0381163b613d1f5760405162461bcd60e51b815260206004820152602d60248201527f455243313936373a206e657720696d706c656d656e746174696f6e206973206e60448201526c1bdd08184818dbdb9d1c9858dd609a1b6064820152608401611086565b60008051602061527883398151915280546001600160a01b0319166001600160a01b0392909216919091179055565b613d5783613d79565b600082511180613d645750805b156126a657613d738383613db9565b50505050565b613d8281613cb2565b6040516001600160a01b038216907fbc7cd75a20ee27fd9adebab32041f755214dbc6bffa90cc0225b39da2e5c2d3b90600090a250565b60606001600160a01b0383163b613e215760405162461bcd60e51b815260206004820152602660248201527f416464726573733a2064656c65676174652063616c6c20746f206e6f6e2d636f6044820152651b9d1c9858dd60d21b6064820152608401611086565b600080846001600160a01b031684604051613e3c9190615099565b600060405180830381855af49150503d8060008114613e77576040519150601f19603f3d011682016040523d82523d6000602084013e613e7c565b606091505b5091509150613ea482826040518060600160405280602781526020016152b860279139613ead565b95945050505050565b60608315613ebc575081613ec6565b613ec68383613ecd565b9392505050565b815115613edd5781518083602001fd5b8060405162461bcd60e51b81526004016110869190613fb0565b508054613f0390614c34565b6000825580601f10613f13575050565b601f0160209004906000526020600020908101906111239190613f4b565b508054600082559060005260206000209081019061112391905b5b80821115610b3f5760008155600101613f4c565b60005b83811015613f7b578181015183820152602001613f63565b50506000910152565b60008151808452613f9c816020860160208601613f60565b601f01601f19169290920160200192915050565b602081526000613ec66020830184613f84565b60006020808301818452808551808352604092508286019150828160051b87010184880160005b8381101561405e57603f1989840301855281516080815181865261401082870182613f84565b838b01516001600160a01b0316878c0152898401518782038b890152909250905061403b8282613f84565b606093840151151596909301959095525094870194925090860190600101613fea565b509098975050505050505050565b60006020828403121561407e57600080fd5b5035919050565b60a08152600061409860a0830188613f84565b82810360208401526140aa8188613f84565b604084019690965250506060810192909252151560809091015292915050565b60008083601f8401126140dc57600080fd5b5081356001600160401b038111156140f357600080fd5b60208301915083602082850101111561410b57600080fd5b9250929050565b6001600160a01b038116811461112357600080fd5b803561413281614112565b919050565b6000806000806060858703121561414d57600080fd5b84356001600160401b0381111561416357600080fd5b61416f878288016140ca565b909550935050602085013561418381614112565b9396929550929360400135925050565b6000806000604084860312156141a857600080fd5b83356141b381614112565b925060208401356001600160401b038111156141ce57600080fd5b6141da868287016140ca565b9497909650939450505050565b634e487b7160e01b600052604160045260246000fd5b604051601f8201601f191681016001600160401b0381118282101715614225576142256141e7565b604052919050565b60006001600160401b03821115614246576142466141e7565b50601f01601f191660200190565b600082601f83011261426557600080fd5b81356142786142738261422d565b6141fd565b81815284602083860101111561428d57600080fd5b816020850160208301376000918101602001919091529392505050565b600080604083850312156142bd57600080fd5b8235915060208301356001600160401b038111156142da57600080fd5b6142e685828601614254565b9150509250929050565b6000806000806040858703121561430657600080fd5b84356001600160401b038082111561431d57600080fd5b614329888389016140ca565b9096509450602087013591508082111561434257600080fd5b5061434f878288016140ca565b95989497509550505050565b60006020828403121561436d57600080fd5b8135613ec681614112565b6020808252825182820181905260009190848201906040850190845b818110156143b057835183529284019291840191600101614394565b50909695505050505050565b801515811461112357600080fd5b600080604083850312156143dd57600080fd5b82356143e881614112565b915060208301356143f8816143bc565b809150509250929050565b60006020828403121561441557600080fd5b8135613ec6816143bc565b6000806040838503121561443357600080fd5b823561443e81614112565b915060208301356001600160401b038111156142da57600080fd5b6000806040838503121561446c57600080fd5b823561447781614112565b915060208301356143f881614112565b60006001600160401b038211156144a0576144a06141e7565b5060051b60200190565b600080600080606085870312156144c057600080fd5b84356001600160401b03808211156144d757600080fd5b6144e3888389016140ca565b90965094506020915086820135818111156144fd57600080fd5b61450989828a01614254565b94505060408701358181111561451e57600080fd5b87019050601f8101881361453157600080fd5b803561453f61427382614487565b81815260059190911b8201830190838101908a83111561455e57600080fd5b928401925b8284101561457c57833582529284019290840190614563565b979a9699509497505050505050565b6000806000604084860312156145a057600080fd5b83356001600160401b038111156145b657600080fd5b6145c2868287016140ca565b90945092505060208401356145d6816143bc565b809150509250925092565b602081526000825160a060208401526145fd60c0840182613f84565b90506020840151601f1984830301604085015261461a8282613f84565b91505060408401516060840152606084015160808401526080840151151560a08401528091505092915050565b8051825260006020820151604060208501526146666040850182613f84565b949350505050565b6000602080830181845280855180835260408601915060408160051b870101925083870160005b828110156146c357603f198886030184526146b1858351614647565b94509285019290850190600101614695565b5092979650505050505050565b602081526000613ec66020830184614647565b6000602082840312156146f557600080fd5b81356001600160401b0381111561470b57600080fd5b61466684828501614254565b600082601f83011261472857600080fd5b8135602061473861427383614487565b82815260059290921b8401810191818101908684111561475757600080fd5b8286015b848110156147965780356001600160401b0381111561477a5760008081fd5b6147888986838b0101614254565b84525091830191830161475b565b509695505050505050565b6000604082840312156147b357600080fd5b604051604081016001600160401b0382821081831117156147d6576147d66141e7565b81604052829350843591506147ea82614112565b9082526020840135908082111561480057600080fd5b5061480d85828601614254565b6020830152505092915050565b6000806000806060858703121561483057600080fd5b84356001600160401b038082111561484757600080fd5b614853888389016140ca565b909650945060209150868201358181111561486d57600080fd5b61487989828a01614717565b94505060408701358181111561488e57600080fd5b8701601f8101891361489f57600080fd5b80356148ad61427382614487565b81815260059190911b8201840190848101908b8311156148cc57600080fd5b8584015b83811015614904578035868111156148e85760008081fd5b6148f68e89838901016147a1565b8452509186019186016148d0565b50989b979a50959850505050505050565b6000806040838503121561492857600080fd5b8235915060208301356001600160401b0381111561494557600080fd5b6142e685828601614717565b6000806020838503121561496457600080fd5b82356001600160401b038082111561497b57600080fd5b818501915085601f83011261498f57600080fd5b81358181111561499e57600080fd5b8660208260051b85010111156149b357600080fd5b60209290920196919550909350505050565b6000602080830181845280855180835260408601915060408160051b870101925083870160005b828110156146c357603f19888603018452614a08858351613f84565b945092850192908501906001016149ec565b60008060408385031215614a2d57600080fd5b8235915060208301356001600160401b03811115614a4a57600080fd5b6142e6858286016147a1565b600080600080600060608688031215614a6e57600080fd5b85356001600160401b0380821115614a8557600080fd5b614a9189838a016140ca565b909750955060208801359150614aa682614112565b90935060408701359080821115614abc57600080fd5b50614ac9888289016140ca565b969995985093965092949392505050565b60008060408385031215614aed57600080fd5b8235915060208301356001600160401b03811115614b0a57600080fd5b8301604081860312156143f857600080fd5b8281526040602082015260006146666040830184613f84565b600080600080600060a08688031215614b4d57600080fd5b85356001600160401b0380821115614b6457600080fd5b614b7089838a01614254565b9650602091508188013581811115614b8757600080fd5b614b938a828b01614254565b965050604088013581811115614ba857600080fd5b88019050601f81018913614bbb57600080fd5b8035614bc961427382614487565b81815260059190911b8201830190838101908b831115614be857600080fd5b928401925b82841015614c0f578335614c0081614112565b82529284019290840190614bed565b8097505050505050614c2360608701614127565b949793965091946080013592915050565b600181811c90821680614c4857607f821691505b602082108103611d9b57634e487b7160e01b600052602260045260246000fd5b634e487b7160e01b600052603260045260246000fd5b600060208284031215614c9057600080fd5b81516001600160401b03811115614ca657600080fd5b8201601f81018413614cb757600080fd5b8051614cc56142738261422d565b818152856020838501011115614cda57600080fd5b613ea4826020830160208601613f60565b634e487b7160e01b600052601160045260246000fd5b600060018201614d1357614d13614ceb565b5060010190565b81835281816020850137506000828201602090810191909152601f909101601f19169091010190565b604081526000614d57604083018587614d1a565b9050826020830152949350505050565b8183823760009101908152919050565b80516020808301519190811015611d9b5760001960209190910360031b1b16919050565b601f8211156126a657600081815260208120601f850160051c81016020861015614dc25750805b601f850160051c820191505b8181101561103657828155600101614dce565b81516001600160401b03811115614dfa57614dfa6141e7565b614e0e81614e088454614c34565b84614d9b565b602080601f831160018114614e435760008415614e2b5750858301515b600019600386901b1c1916600185901b178555611036565b600085815260208120601f198616915b82811015614e7257888601518255948401946001909101908401614e53565b5085821015614e905787850151600019600388901b60f8161c191681555b5050505050600190811b01905550565b60008154614ead81614c34565b808552602060018381168015614eca5760018114614ee457614f12565b60ff1985168884015283151560051b880183019550614f12565b866000528260002060005b85811015614f0a5781548a8201860152908301908401614eef565b890184019650505b505050505092915050565b604081526000614f306040830185613f84565b8281036020840152613ea48185614ea0565b6001600160401b03831115614f5957614f596141e7565b614f6d83614f678354614c34565b83614d9b565b6000601f841160018114614fa15760008515614f895750838201355b600019600387901b1c1916600186901b178355612f46565b600083815260209020601f19861690835b82811015614fd25786850135825560209485019460019092019101614fb2565b5086821015614fef5760001960f88860031b161c19848701351681555b505060018560011b0183555050505050565b6020808252602c908201527f46756e6374696f6e206d7573742062652063616c6c6564207468726f7567682060408201526b19195b1959d85d1958d85b1b60a21b606082015260800190565b6020808252602c908201527f46756e6374696f6e206d7573742062652063616c6c6564207468726f7567682060408201526b6163746976652070726f787960a01b606082015260800190565b600082516150ab818460208701613f60565b9190910192915050565b6040815260006150c86040830185613f84565b90508260208301529392505050565b80820180821115613a0257613a02614ceb565b6000602082840312156150fc57600080fd5b8151613ec681614112565b60408152600061511b604083018587614d1a565b828103602084015261512d8185614ea0565b9695505050505050565b602081526000613ec66020830184614ea0565b81810381811115613a0257613a02614ceb565b634e487b7160e01b600052603160045260246000fd5b6000808335601e1984360301811261518a57600080fd5b8301803591506001600160401b038211156151a457600080fd5b60200191503681900382131561410b57600080fd5b838152818360208301376000910160200190815292915050565b838152604060208201526000613ea4604083018486614d1a565b6000602082840312156151ff57600080fd5b5051919050565b6060815260006152196060830186613f84565b6001600160a01b039490941660208301525060400152919050565b60006020828403121561524657600080fd5b8151613ec6816143bc565b82815260008251615269816020850160208701613f60565b91909101602001939250505056fe360894a13ba1a3210667c828492db98dca3e2076cc3735a920a3ca505d382bbc4d6f6469667953706163655065726d697373696f6e7300000000000000000000416464726573733a206c6f772d6c6576656c2064656c65676174652063616c6c206661696c6564a2646970667358221220baa18bb01d0d01c60b27c1682cc66d2b9edb2dc25788985ef8d0fd8cafceb50b64736f6c63430008110033",
    "linkReferences": {}
  },
  "methodIdentifiers": {
    "addPermissionsToRole(uint256,string[])": "b7515761",
    "addRoleToChannel(string,address,uint256)": "1dea616a",
    "addRoleToEntitlement(uint256,(address,bytes))": "ba201ba8",
    "channels(uint256)": "e5949b5d",
    "channelsByHash(bytes32)": "129ab3c8",
    "createChannel(string,string,uint256[])": "51f83cea",
    "createRole(string,string[],(address,bytes)[])": "8fcd793d",
    "defaultEntitlements(address)": "fa6433c5",
    "disabled()": "ee070805",
    "entitlements(uint256)": "f28f9b56",
    "getChannelByHash(bytes32)": "703511f8",
    "getChannels()": "9575f6ac",
    "getEntitlementByModuleType(string)": "870b9464",
    "getEntitlementIdsByRoleId(uint256)": "42486e49",
    "getEntitlementModules()": "0d029f75",
    "getPermissionsByRoleId(uint256)": "b4264233",
    "getRoleById(uint256)": "784c872b",
    "getRoles()": "71061398",
    "hasEntitlement(address)": "7f8d06d0",
    "initialize(string,string,address[],address,uint256)": "f3ce6a5b",
    "isEntitledToChannel(string,address,string)": "cea632bc",
    "isEntitledToSpace(address,string)": "20759f9e",
    "multicall(bytes[])": "ac9650d8",
    "name()": "06fdde03",
    "networkId()": "9025e64c",
    "owner()": "8da5cb5b",
    "ownerRoleId()": "d1a6a961",
    "proxiableUUID()": "52d1902d",
    "removePermissionsFromRole(uint256,string[])": "9a8e4c3e",
    "removeRole(uint256)": "92691821",
    "removeRoleFromChannel(string,address,uint256)": "baaf3d57",
    "removeRoleFromEntitlement(uint256,(address,bytes))": "dba81864",
    "roleCount()": "ddf96358",
    "rolesById(uint256)": "e5894ef4",
    "setChannelAccess(string,bool)": "5de151b8",
    "setEntitlementModule(address,bool)": "441555e5",
    "setOwnerRoleId(uint256)": "4999ab16",
    "setSpaceAccess(bool)": "446dc22e",
    "token()": "fc0c546a",
    "tokenId()": "17d70f7c",
    "updateChannel(string,string)": "34a1dd26",
    "updateRole(uint256,string)": "32e704cc",
    "upgradeEntitlement(address,address)": "519607f2",
    "upgradeTo(address)": "3659cfe6",
    "upgradeToAndCall(address,bytes)": "4f1ef286"
  },
  "id": 13
}