{
  "abi": [
    {
      "inputs": [],
      "stateMutability": "nonpayable",
      "type": "constructor"
    },
    {
      "inputs": [],
      "name": "AddRoleFailed",
      "type": "error"
    },
    {
      "inputs": [],
      "name": "ChannelAlreadyRegistered",
      "type": "error"
    },
    {
      "inputs": [],
      "name": "ChannelDoesNotExist",
      "type": "error"
    },
    {
      "inputs": [],
      "name": "EntitlementAlreadyExists",
      "type": "error"
    },
    {
      "inputs": [],
      "name": "EntitlementAlreadyWhitelisted",
      "type": "error"
    },
    {
      "inputs": [],
      "name": "EntitlementModuleNotSupported",
      "type": "error"
    },
    {
      "inputs": [],
      "name": "EntitlementNotWhitelisted",
      "type": "error"
    },
    {
      "inputs": [],
      "name": "InvalidParameters",
      "type": "error"
    },
    {
      "inputs": [],
      "name": "MissingOwnerPermission",
      "type": "error"
    },
    {
      "inputs": [],
      "name": "NameContainsInvalidCharacters",
      "type": "error"
    },
    {
      "inputs": [],
      "name": "NameLengthInvalid",
      "type": "error"
    },
    {
      "inputs": [],
      "name": "NotAllowed",
      "type": "error"
    },
    {
      "inputs": [],
      "name": "PermissionAlreadyExists",
      "type": "error"
    },
    {
      "inputs": [],
      "name": "RoleDoesNotExist",
      "type": "error"
    },
    {
      "inputs": [],
      "name": "RoleIsAssignedToEntitlement",
      "type": "error"
    },
    {
      "anonymous": false,
      "inputs": [
        {
          "indexed": false,
          "internalType": "address",
          "name": "previousAdmin",
          "type": "address"
        },
        {
          "indexed": false,
          "internalType": "address",
          "name": "newAdmin",
          "type": "address"
        }
      ],
      "name": "AdminChanged",
      "type": "event"
    },
    {
      "anonymous": false,
      "inputs": [
        {
          "indexed": true,
          "internalType": "address",
          "name": "beacon",
          "type": "address"
        }
      ],
      "name": "BeaconUpgraded",
      "type": "event"
    },
    {
      "anonymous": false,
      "inputs": [
        {
          "indexed": false,
          "internalType": "uint8",
          "name": "version",
          "type": "uint8"
        }
      ],
      "name": "Initialized",
      "type": "event"
    },
    {
      "anonymous": false,
      "inputs": [
        {
          "indexed": true,
          "internalType": "address",
          "name": "implementation",
          "type": "address"
        }
      ],
      "name": "Upgraded",
      "type": "event"
    },
    {
      "inputs": [
        {
          "internalType": "uint256",
          "name": "_roleId",
          "type": "uint256"
        },
        {
          "internalType": "string",
          "name": "_permission",
          "type": "string"
        }
      ],
      "name": "addPermissionToRole",
      "outputs": [],
      "stateMutability": "nonpayable",
      "type": "function"
    },
    {
      "inputs": [
        {
          "internalType": "string",
          "name": "_channelNetworkId",
          "type": "string"
        },
        {
          "internalType": "address",
          "name": "_entitlement",
          "type": "address"
        },
        {
          "internalType": "uint256",
          "name": "_roleId",
          "type": "uint256"
        }
      ],
      "name": "addRoleToChannel",
      "outputs": [],
      "stateMutability": "nonpayable",
      "type": "function"
    },
    {
      "inputs": [
        {
          "internalType": "uint256",
          "name": "_roleId",
          "type": "uint256"
        },
        {
          "components": [
            {
              "internalType": "address",
              "name": "module",
              "type": "address"
            },
            {
              "internalType": "bytes",
              "name": "data",
              "type": "bytes"
            }
          ],
          "internalType": "struct DataTypes.Entitlement",
          "name": "_entitlement",
          "type": "tuple"
        }
      ],
      "name": "addRoleToEntitlement",
      "outputs": [],
      "stateMutability": "nonpayable",
      "type": "function"
    },
    {
      "inputs": [
        {
          "internalType": "uint256",
          "name": "",
          "type": "uint256"
        }
      ],
      "name": "channels",
      "outputs": [
        {
          "internalType": "bytes32",
          "name": "",
          "type": "bytes32"
        }
      ],
      "stateMutability": "view",
      "type": "function"
    },
    {
      "inputs": [
        {
          "internalType": "bytes32",
          "name": "",
          "type": "bytes32"
        }
      ],
      "name": "channelsByHash",
      "outputs": [
        {
          "internalType": "string",
          "name": "name",
          "type": "string"
        },
        {
          "internalType": "bytes32",
          "name": "channelHash",
          "type": "bytes32"
        },
        {
          "internalType": "uint256",
          "name": "createdAt",
          "type": "uint256"
        },
        {
          "internalType": "bool",
          "name": "disabled",
          "type": "bool"
        }
      ],
      "stateMutability": "view",
      "type": "function"
    },
    {
      "inputs": [
        {
          "internalType": "string",
          "name": "channelName",
          "type": "string"
        },
        {
          "internalType": "string",
          "name": "channelNetworkId",
          "type": "string"
        },
        {
          "internalType": "uint256[]",
          "name": "roleIds",
          "type": "uint256[]"
        }
      ],
      "name": "createChannel",
      "outputs": [
        {
          "internalType": "bytes32",
          "name": "",
          "type": "bytes32"
        }
      ],
      "stateMutability": "nonpayable",
      "type": "function"
    },
    {
      "inputs": [
        {
          "internalType": "string",
          "name": "_roleName",
          "type": "string"
        },
        {
          "internalType": "string[]",
          "name": "_permissions",
          "type": "string[]"
        },
        {
          "components": [
            {
              "internalType": "address",
              "name": "module",
              "type": "address"
            },
            {
              "internalType": "bytes",
              "name": "data",
              "type": "bytes"
            }
          ],
          "internalType": "struct DataTypes.Entitlement[]",
          "name": "_entitlements",
          "type": "tuple[]"
        }
      ],
      "name": "createRole",
      "outputs": [
        {
          "internalType": "uint256",
          "name": "",
          "type": "uint256"
        }
      ],
      "stateMutability": "nonpayable",
      "type": "function"
    },
    {
      "inputs": [
        {
          "internalType": "address",
          "name": "",
          "type": "address"
        }
      ],
      "name": "defaultEntitlements",
      "outputs": [
        {
          "internalType": "bool",
          "name": "",
          "type": "bool"
        }
      ],
      "stateMutability": "view",
      "type": "function"
    },
    {
      "inputs": [],
      "name": "disabled",
      "outputs": [
        {
          "internalType": "bool",
          "name": "",
          "type": "bool"
        }
      ],
      "stateMutability": "view",
      "type": "function"
    },
    {
      "inputs": [
        {
          "internalType": "uint256",
          "name": "",
          "type": "uint256"
        }
      ],
      "name": "entitlements",
      "outputs": [
        {
          "internalType": "address",
          "name": "",
          "type": "address"
        }
      ],
      "stateMutability": "view",
      "type": "function"
    },
    {
      "inputs": [
        {
          "internalType": "bytes32",
          "name": "_channelHash",
          "type": "bytes32"
        }
      ],
      "name": "getChannelByHash",
      "outputs": [
        {
          "components": [
            {
              "internalType": "string",
              "name": "name",
              "type": "string"
            },
            {
              "internalType": "bytes32",
              "name": "channelHash",
              "type": "bytes32"
            },
            {
              "internalType": "uint256",
              "name": "createdAt",
              "type": "uint256"
            },
            {
              "internalType": "bool",
              "name": "disabled",
              "type": "bool"
            }
          ],
          "internalType": "struct DataTypes.Channel",
          "name": "",
          "type": "tuple"
        }
      ],
      "stateMutability": "view",
      "type": "function"
    },
    {
      "inputs": [],
      "name": "getChannels",
      "outputs": [
        {
          "internalType": "bytes32[]",
          "name": "",
          "type": "bytes32[]"
        }
      ],
      "stateMutability": "view",
      "type": "function"
    },
    {
      "inputs": [
        {
          "internalType": "string",
          "name": "_moduleType",
          "type": "string"
        }
      ],
      "name": "getEntitlementByModuleType",
      "outputs": [
        {
          "internalType": "address",
          "name": "",
          "type": "address"
        }
      ],
      "stateMutability": "view",
      "type": "function"
    },
    {
      "inputs": [
        {
          "internalType": "uint256",
          "name": "_roleId",
          "type": "uint256"
        }
      ],
      "name": "getEntitlementIdsByRoleId",
      "outputs": [
        {
          "internalType": "bytes32[]",
          "name": "",
          "type": "bytes32[]"
        }
      ],
      "stateMutability": "view",
      "type": "function"
    },
    {
      "inputs": [],
      "name": "getEntitlements",
      "outputs": [
        {
          "internalType": "address[]",
          "name": "",
          "type": "address[]"
        }
      ],
      "stateMutability": "view",
      "type": "function"
    },
    {
      "inputs": [
        {
          "internalType": "uint256",
          "name": "_roleId",
          "type": "uint256"
        }
      ],
      "name": "getPermissionsByRoleId",
      "outputs": [
        {
          "internalType": "bytes32[]",
          "name": "",
          "type": "bytes32[]"
        }
      ],
      "stateMutability": "view",
      "type": "function"
    },
    {
      "inputs": [
        {
          "internalType": "uint256",
          "name": "_roleId",
          "type": "uint256"
        }
      ],
      "name": "getRoleById",
      "outputs": [
        {
          "components": [
            {
              "internalType": "uint256",
              "name": "roleId",
              "type": "uint256"
            },
            {
              "internalType": "string",
              "name": "name",
              "type": "string"
            }
          ],
          "internalType": "struct DataTypes.Role",
          "name": "",
          "type": "tuple"
        }
      ],
      "stateMutability": "view",
      "type": "function"
    },
    {
      "inputs": [],
      "name": "getRoles",
      "outputs": [
        {
          "components": [
            {
              "internalType": "uint256",
              "name": "roleId",
              "type": "uint256"
            },
            {
              "internalType": "string",
              "name": "name",
              "type": "string"
            }
          ],
          "internalType": "struct DataTypes.Role[]",
          "name": "",
          "type": "tuple[]"
        }
      ],
      "stateMutability": "view",
      "type": "function"
    },
    {
      "inputs": [
        {
          "internalType": "address",
          "name": "",
          "type": "address"
        }
      ],
      "name": "hasEntitlement",
      "outputs": [
        {
          "internalType": "bool",
          "name": "",
          "type": "bool"
        }
      ],
      "stateMutability": "view",
      "type": "function"
    },
    {
      "inputs": [
        {
          "internalType": "string",
          "name": "_name",
          "type": "string"
        },
        {
          "internalType": "string",
          "name": "_networkId",
          "type": "string"
        },
        {
          "internalType": "address[]",
          "name": "_entitlements",
          "type": "address[]"
        },
        {
          "internalType": "address",
          "name": "_token",
          "type": "address"
        },
        {
          "internalType": "uint256",
          "name": "_tokenId",
          "type": "uint256"
        }
      ],
      "name": "initialize",
      "outputs": [],
      "stateMutability": "nonpayable",
      "type": "function"
    },
    {
      "inputs": [
        {
          "internalType": "string",
          "name": "_channelNetworkId",
          "type": "string"
        },
        {
          "internalType": "address",
          "name": "_user",
          "type": "address"
        },
        {
          "internalType": "string",
          "name": "_permission",
          "type": "string"
        }
      ],
      "name": "isEntitledToChannel",
      "outputs": [
        {
          "internalType": "bool",
          "name": "_entitled",
          "type": "bool"
        }
      ],
      "stateMutability": "view",
      "type": "function"
    },
    {
      "inputs": [
        {
          "internalType": "address",
          "name": "_user",
          "type": "address"
        },
        {
          "internalType": "string",
          "name": "_permission",
          "type": "string"
        }
      ],
      "name": "isEntitledToSpace",
      "outputs": [
        {
          "internalType": "bool",
          "name": "_entitled",
          "type": "bool"
        }
      ],
      "stateMutability": "view",
      "type": "function"
    },
    {
      "inputs": [
        {
          "internalType": "bytes[]",
          "name": "data",
          "type": "bytes[]"
        }
      ],
      "name": "multicall",
      "outputs": [
        {
          "internalType": "bytes[]",
          "name": "results",
          "type": "bytes[]"
        }
      ],
      "stateMutability": "nonpayable",
      "type": "function"
    },
    {
      "inputs": [],
      "name": "name",
      "outputs": [
        {
          "internalType": "string",
          "name": "",
          "type": "string"
        }
      ],
      "stateMutability": "view",
      "type": "function"
    },
    {
      "inputs": [],
      "name": "networkId",
      "outputs": [
        {
          "internalType": "string",
          "name": "",
          "type": "string"
        }
      ],
      "stateMutability": "view",
      "type": "function"
    },
    {
      "inputs": [],
      "name": "owner",
      "outputs": [
        {
          "internalType": "address",
          "name": "",
          "type": "address"
        }
      ],
      "stateMutability": "view",
      "type": "function"
    },
    {
      "inputs": [],
      "name": "ownerRoleId",
      "outputs": [
        {
          "internalType": "uint256",
          "name": "",
          "type": "uint256"
        }
      ],
      "stateMutability": "view",
      "type": "function"
    },
    {
      "inputs": [],
      "name": "proxiableUUID",
      "outputs": [
        {
          "internalType": "bytes32",
          "name": "",
          "type": "bytes32"
        }
      ],
      "stateMutability": "view",
      "type": "function"
    },
    {
      "inputs": [
        {
          "internalType": "uint256",
          "name": "_roleId",
          "type": "uint256"
        },
        {
          "internalType": "string",
          "name": "_permission",
          "type": "string"
        }
      ],
      "name": "removePermissionFromRole",
      "outputs": [],
      "stateMutability": "nonpayable",
      "type": "function"
    },
    {
      "inputs": [
        {
          "internalType": "uint256",
          "name": "_roleId",
          "type": "uint256"
        }
      ],
      "name": "removeRole",
      "outputs": [],
      "stateMutability": "nonpayable",
      "type": "function"
    },
    {
      "inputs": [
        {
          "internalType": "string",
          "name": "_channelNetworkId",
          "type": "string"
        },
        {
          "internalType": "address",
          "name": "_entitlement",
          "type": "address"
        },
        {
          "internalType": "uint256",
          "name": "_roleId",
          "type": "uint256"
        }
      ],
      "name": "removeRoleFromChannel",
      "outputs": [],
      "stateMutability": "nonpayable",
      "type": "function"
    },
    {
      "inputs": [
        {
          "internalType": "uint256",
          "name": "_roleId",
          "type": "uint256"
        },
        {
          "components": [
            {
              "internalType": "address",
              "name": "module",
              "type": "address"
            },
            {
              "internalType": "bytes",
              "name": "data",
              "type": "bytes"
            }
          ],
          "internalType": "struct DataTypes.Entitlement",
          "name": "_entitlement",
          "type": "tuple"
        }
      ],
      "name": "removeRoleFromEntitlement",
      "outputs": [],
      "stateMutability": "nonpayable",
      "type": "function"
    },
    {
      "inputs": [],
      "name": "roleCount",
      "outputs": [
        {
          "internalType": "uint256",
          "name": "",
          "type": "uint256"
        }
      ],
      "stateMutability": "view",
      "type": "function"
    },
    {
      "inputs": [
        {
          "internalType": "uint256",
          "name": "",
          "type": "uint256"
        }
      ],
      "name": "rolesById",
      "outputs": [
        {
          "internalType": "uint256",
          "name": "roleId",
          "type": "uint256"
        },
        {
          "internalType": "string",
          "name": "name",
          "type": "string"
        }
      ],
      "stateMutability": "view",
      "type": "function"
    },
    {
      "inputs": [
        {
          "internalType": "string",
          "name": "channelNetworkId",
          "type": "string"
        },
        {
          "internalType": "bool",
          "name": "disableChannel",
          "type": "bool"
        }
      ],
      "name": "setChannelAccess",
      "outputs": [],
      "stateMutability": "nonpayable",
      "type": "function"
    },
    {
      "inputs": [
        {
          "internalType": "address",
          "name": "_entitlement",
          "type": "address"
        },
        {
          "internalType": "bool",
          "name": "_whitelist",
          "type": "bool"
        }
      ],
      "name": "setEntitlement",
      "outputs": [],
      "stateMutability": "nonpayable",
      "type": "function"
    },
    {
      "inputs": [
        {
          "internalType": "uint256",
          "name": "_roleId",
          "type": "uint256"
        }
      ],
      "name": "setOwnerRoleId",
      "outputs": [],
      "stateMutability": "nonpayable",
      "type": "function"
    },
    {
      "inputs": [
        {
          "internalType": "bool",
          "name": "_disabled",
          "type": "bool"
        }
      ],
      "name": "setSpaceAccess",
      "outputs": [],
      "stateMutability": "nonpayable",
      "type": "function"
    },
    {
      "inputs": [],
      "name": "token",
      "outputs": [
        {
          "internalType": "address",
          "name": "",
          "type": "address"
        }
      ],
      "stateMutability": "view",
      "type": "function"
    },
    {
      "inputs": [],
      "name": "tokenId",
      "outputs": [
        {
          "internalType": "uint256",
          "name": "",
          "type": "uint256"
        }
      ],
      "stateMutability": "view",
      "type": "function"
    },
    {
      "inputs": [
        {
          "internalType": "string",
          "name": "channelNetworkId",
          "type": "string"
        },
        {
          "internalType": "string",
          "name": "channelName",
          "type": "string"
        }
      ],
      "name": "updateChannel",
      "outputs": [],
      "stateMutability": "nonpayable",
      "type": "function"
    },
    {
      "inputs": [
        {
          "internalType": "uint256",
          "name": "_roleId",
          "type": "uint256"
        },
        {
          "internalType": "string",
          "name": "_roleName",
          "type": "string"
        }
      ],
      "name": "updateRole",
      "outputs": [],
      "stateMutability": "nonpayable",
      "type": "function"
    },
    {
      "inputs": [
        {
          "internalType": "address",
          "name": "_entitlement",
          "type": "address"
        },
        {
          "internalType": "address",
          "name": "_newEntitlement",
          "type": "address"
        }
      ],
      "name": "upgradeEntitlement",
      "outputs": [],
      "stateMutability": "nonpayable",
      "type": "function"
    },
    {
      "inputs": [
        {
          "internalType": "address",
          "name": "newImplementation",
          "type": "address"
        }
      ],
      "name": "upgradeTo",
      "outputs": [],
      "stateMutability": "nonpayable",
      "type": "function"
    },
    {
      "inputs": [
        {
          "internalType": "address",
          "name": "newImplementation",
          "type": "address"
        },
        {
          "internalType": "bytes",
          "name": "data",
          "type": "bytes"
        }
      ],
      "name": "upgradeToAndCall",
      "outputs": [],
      "stateMutability": "payable",
      "type": "function"
    }
  ],
  "bytecode": {
    "object": "0x60a0604052306080523480156200001557600080fd5b506200002062000026565b620000e7565b600054610100900460ff1615620000935760405162461bcd60e51b815260206004820152602760248201527f496e697469616c697a61626c653a20636f6e747261637420697320696e697469604482015266616c697a696e6760c81b606482015260840160405180910390fd5b60005460ff90811614620000e5576000805460ff191660ff9081179091556040519081527f7f26b83ff96e1f2b6a682f133852f6798a09c465da95921460cefb38474024989060200160405180910390a15b565b608051614f2a6200011f60003960008181610db201528181610dfb015281816110da0152818161111a015261161e0152614f2a6000f3fe6080604052600436106102725760003560e01c8063870b94641161014f578063d1a6a961116100c1578063f28f9b561161007a578063f28f9b56146107a3578063f3b96ab4146107c3578063f3ce6a5b146107e3578063f740bb6b14610803578063fa6433c514610823578063fc0c546a1461085357600080fd5b8063d1a6a961146106ef578063dba8186414610705578063ddf9635814610725578063e5894ef41461073b578063e5949b5d14610769578063ee0708051461078957600080fd5b80639575f6ac116101135780639575f6ac1461062d578063ac9650d814610642578063b42642331461066f578063ba201ba81461068f578063baaf3d57146106af578063cea632bc146106cf57600080fd5b8063870b94641461058b5780638da5cb5b146105c35780638fcd793d146105d85780639025e64c146105f8578063926918211461060d57600080fd5b80634999ab16116101e85780635de151b8116101ac5780635de151b81461049f57806366fb345c146104bf578063703511f8146104df578063710613981461050c578063784c872b1461052e5780637f8d06d01461055b57600080fd5b80634999ab16146104175780634f1ef28614610437578063519607f21461044a57806351f83cea1461046a57806352d1902d1461048a57600080fd5b806332e704cc1161023a57806332e704cc1461034857806334a1dd26146103685780633659cfe61461038857806342486e49146103a8578063446dc22e146103d5578063487dc38c146103f557600080fd5b806306fdde0314610277578063129ab3c8146102a257806317d70f7c146102d25780631dea616a146102f657806320759f9e14610318575b600080fd5b34801561028357600080fd5b5061028c610873565b6040516102999190613c8e565b60405180910390f35b3480156102ae57600080fd5b506102c26102bd366004613ca1565b610901565b6040516102999493929190613cba565b3480156102de57600080fd5b506102e8609c5481565b604051908152602001610299565b34801561030257600080fd5b50610316610311366004613d58565b6109b6565b005b34801561032457600080fd5b50610338610333366004613db4565b610aed565b6040519015158152602001610299565b34801561035457600080fd5b50610316610363366004613e08565b610b63565b34801561037457600080fd5b50610316610383366004613e3a565b610cb9565b34801561039457600080fd5b506103166103a3366004613ea5565b610da8565b3480156103b457600080fd5b506103c86103c3366004613ca1565b610e90565b6040516102999190613ec2565b3480156103e157600080fd5b506103166103f0366004613f14565b610ef2565b34801561040157600080fd5b5061040a610f2a565b6040516102999190613f31565b34801561042357600080fd5b50610316610432366004613ca1565b610f8c565b610316610445366004614035565b6110d0565b34801561045657600080fd5b50610316610465366004614084565b6111a0565b34801561047657600080fd5b506102e86104853660046140e0565b6112bb565b34801561049657600080fd5b506102e8611611565b3480156104ab57600080fd5b506103166104ba3660046141c1565b6116c4565b3480156104cb57600080fd5b506103166104da366004614217565b61178a565b3480156104eb57600080fd5b506104ff6104fa366004613ca1565b611905565b6040516102999190614247565b34801561051857600080fd5b506105216119fd565b60405161029991906142b6565b34801561053a57600080fd5b5061054e610549366004613ca1565b611b6b565b6040516102999190614318565b34801561056757600080fd5b50610338610576366004613ea5565b609d6020526000908152604090205460ff1681565b34801561059757600080fd5b506105ab6105a636600461432b565b611c41565b6040516001600160a01b039091168152602001610299565b3480156105cf57600080fd5b506105ab611d2a565b3480156105e457600080fd5b506102e86105f3366004614462565b611da1565b34801561060457600080fd5b5061028c6120cc565b34801561061957600080fd5b50610316610628366004613ca1565b6120d9565b34801561063957600080fd5b506103c8612210565b34801561064e57600080fd5b5061066261065d36600461455e565b612267565b60405161029991906145d2565b34801561067b57600080fd5b506103c861068a366004613ca1565b61237e565b34801561069b57600080fd5b506103166106aa366004614627565b6123de565b3480156106bb57600080fd5b506103166106ca366004613d58565b6124b7565b3480156106db57600080fd5b506103386106ea366004614663565b6125b6565b3480156106fb57600080fd5b506102e8609a5481565b34801561071157600080fd5b506103166107203660046146e7565b612708565b34801561073157600080fd5b506102e860a15481565b34801561074757600080fd5b5061075b610756366004613ca1565b612971565b604051610299929190614729565b34801561077557600080fd5b506102e8610784366004613ca1565b612a16565b34801561079557600080fd5b506099546103389060ff1681565b3480156107af57600080fd5b506105ab6107be366004613ca1565b612a37565b3480156107cf57600080fd5b506103166107de366004614742565b612a61565b3480156107ef57600080fd5b506103166107fe366004614770565b612b31565b34801561080f57600080fd5b5061031661081e366004614217565b612d15565b34801561082f57600080fd5b5061033861083e366004613ea5565b609e6020526000908152604090205460ff1681565b34801561085f57600080fd5b50609b546105ab906001600160a01b031681565b609780546108809061486f565b80601f01602080910402602001604051908101604052809291908181526020018280546108ac9061486f565b80156108f95780601f106108ce576101008083540402835291602001916108f9565b820191906000526020600020905b8154815290600101906020018083116108dc57829003601f168201915b505050505081565b60a46020526000908152604090208054819061091c9061486f565b80601f01602080910402602001604051908101604052809291908181526020018280546109489061486f565b80156109955780601f1061096a57610100808354040283529160200191610995565b820191906000526020600020905b81548152906001019060200180831161097857829003601f168201915b50505050600183015460028401546003909401549293909290915060ff1684565b610a1e84848080601f0160208091040260200160405190810160405280939291908181526020018383808284376000920191909152505060408051808201909152601181527041646452656d6f76654368616e6e656c7360781b60208201529150612efc9050565b6001600160a01b0382166000908152609d602052604090205460ff16610a575760405163c1ef36f360e01b815260040160405180910390fd5b600081815260a260205260408120549003610a855760405163b810dc5d60e01b815260040160405180910390fd5b60405163c513be7760e01b81526001600160a01b0383169063c513be7790610ab5908790879086906004016148cc565b600060405180830381600087803b158015610acf57600080fd5b505af1158015610ae3573d6000803e3d6000fd5b5050505050505050565b6000805b60a054811015610b5b57610b3f60405180602001604052806000815250868686604051602001610b229291906148f0565b604051602081830303815290604052610b3a90614900565b612f50565b15610b4957600191505b80610b538161493a565b915050610af1565b509392505050565b610b9f60405180602001604052806000815250604051806040016040528060168152602001600080516020614eae833981519152815250612efc565b610bde82828080601f01602080910402602001604051908101604052809392919081815260200183838082843760009201919091525061300992505050565b609a548303610c0057604051631eb49d6d60e11b815260040160405180910390fd5b600083815260a260205260408120549003610c2e5760405163b810dc5d60e01b815260040160405180910390fd5b6000819003610c5057604051630e52390960e41b815260040160405180910390fd5b600083815260a260205260409020600101610c6c828483614999565b5082336001600160a01b03167ff3c55faf0b13ffa681c984baddbb8ef7638e514188ea19bd6461d7f87b9c795384846098604051610cac93929190614ad5565b60405180910390a3505050565b610cc3828261303a565b610d05604051806020016040528060008152506040518060400160405280601181526020017041646452656d6f76654368616e6e656c7360781b815250612efc565b60008484604051602001610d1a9291906148f0565b60408051601f198184030181529181528151602092830120600081815260a4909352908220600101549092509003610d6557604051636ddd9da960e01b815260040160405180910390fd5b6000829003610d8757604051631eb49d6d60e11b815260040160405180910390fd5b600081815260a460205260409020610da0838583614999565b505050505050565b6001600160a01b037f0000000000000000000000000000000000000000000000000000000000000000163003610df95760405162461bcd60e51b8152600401610df090614b05565b60405180910390fd5b7f00000000000000000000000000000000000000000000000000000000000000006001600160a01b0316610e42600080516020614e8e833981519152546001600160a01b031690565b6001600160a01b031614610e685760405162461bcd60e51b8152600401610df090614b51565b610e718161324f565b60408051600080825260208201909252610e8d91839190613285565b50565b6000818152609f6020908152604091829020805483518184028101840190945280845260609392830182828015610ee657602002820191906000526020600020905b815481526020019060010190808311610ed2575b50505050509050919050565b610efa6133f5565b610f1757604051631eb49d6d60e11b815260040160405180910390fd5b6099805460ff1916911515919091179055565b606060a0805480602002602001604051908101604052809291908181526020018280548015610f8257602002820191906000526020600020905b81546001600160a01b03168152600190910190602001808311610f64575b5050505050905090565b610f946133f5565b610fb157604051631eb49d6d60e11b815260040160405180910390fd5b609a5415610fd257604051631eb49d6d60e11b815260040160405180910390fd5b600081815260a2602052604081205490036110005760405163b810dc5d60e01b815260040160405180910390fd5b6000805b600083815260a360205260409020548110156110ab576040518060400160405280600581526020016427bbb732b960d91b8152506040516020016110489190614b9d565b60405160208183030381529060405261106090614900565b600084815260a36020526040902080548390811061108057611080614bb9565b90600052602060002001540361109957600191506110ab565b806110a38161493a565b915050611004565b50806110ca57604051633e74bd6360e21b815260040160405180910390fd5b50609a55565b6001600160a01b037f00000000000000000000000000000000000000000000000000000000000000001630036111185760405162461bcd60e51b8152600401610df090614b05565b7f00000000000000000000000000000000000000000000000000000000000000006001600160a01b0316611161600080516020614e8e833981519152546001600160a01b031690565b6001600160a01b0316146111875760405162461bcd60e51b8152600401610df090614b51565b6111908261324f565b61119c82826001613285565b5050565b6111d6604051806020016040528060008152506040518060400160405280600581526020016427bbb732b960d91b815250612efc565b6001600160a01b03821615806111f357506001600160a01b038116155b1561121157604051630e52390960e41b815260040160405180910390fd5b6001600160a01b0382166000908152609d602052604090205460ff1661124a5760405163c1ef36f360e01b815260040160405180910390fd5b604051631b2ce7f360e11b81526001600160a01b038281166004830152831690633659cfe690602401600060405180830381600087803b15801561128d57600080fd5b505af192505050801561129e575060015b61119c57604051630e52390960e41b815260040160405180910390fd5b60006112ff604051806020016040528060008152506040518060400160405280601181526020017041646452656d6f76654368616e6e656c7360781b815250612efc565b611309858561303a565b60008360405160200161131c9190614b9d565b60408051601f198184030181529181528151602092830120600081815260a49093529120600101549091501561136557604051630139324b60e41b815260040160405180910390fd5b604051806080016040528087878080601f0160208091040260200160405190810160405280939291908181526020018383808284376000920182905250938552505050602080830185905242604080850191909152606090930182905284825260a4905220815181906113d89082614bcf565b506020820151600182810191909155604083015160028301556060909201516003909101805460ff191691151591909117905560a58054918201815560009081527fb29a2b3b6f2ff1b765777a231725941da5072cc4fcc30ac4a2ce09706e8ddeff9091018290555b60a05481101561160757600060a0828154811061146057611460614bb9565b600091825260209091200154609a5460405163c513be7760e01b81526001600160a01b039092169250829163c513be77916114a0918a9190600401614c8e565b600060405180830381600087803b1580156114ba57600080fd5b505af11580156114ce573d6000803e3d6000fd5b5050505060005b85518110156115f257609a548682815181106114f3576114f3614bb9565b602002602001015103156115e05760a2600087838151811061151757611517614bb9565b60200260200101518152602001908152602001600020600001546000036115515760405163b810dc5d60e01b815260040160405180910390fd5b816001600160a01b031663c513be778888848151811061157357611573614bb9565b60200260200101516040518363ffffffff1660e01b8152600401611598929190614c8e565b600060405180830381600087803b1580156115b257600080fd5b505af19250505080156115c3575060015b6115e05760405163d9afe50760e01b815260040160405180910390fd5b806115ea8161493a565b9150506114d5565b505080806115ff9061493a565b915050611441565b5095945050505050565b6000306001600160a01b037f000000000000000000000000000000000000000000000000000000000000000016146116b15760405162461bcd60e51b815260206004820152603860248201527f555550535570677261646561626c653a206d757374206e6f742062652063616c60448201527f6c6564207468726f7567682064656c656761746563616c6c00000000000000006064820152608401610df0565b50600080516020614e8e83398151915290565b611706604051806020016040528060008152506040518060400160405280601181526020017041646452656d6f76654368616e6e656c7360781b815250612efc565b6000838360405160200161171b9291906148f0565b60408051601f198184030181529181528151602092830120600081815260a490935290822060010154909250900361176657604051636ddd9da960e01b815260040160405180910390fd5b600090815260a460205260409020600301805460ff19169115159190911790555050565b6117c660405180602001604052806000815250604051806040016040528060168152602001600080516020614eae833981519152815250612efc565b6117ed816040518060400160405280600581526020016427bbb732b960d91b81525061347c565b1561180b57604051631eb49d6d60e11b815260040160405180910390fd5b600082815260a2602052604081205490036118395760405163b810dc5d60e01b815260040160405180910390fd5b60008160405160200161184c9190614b9d565b60405160208183030381529060405261186490614900565b905060005b600084815260a360205260409020548110156118dd57600084815260a3602052604090208054839190839081106118a2576118a2614bb9565b9060005260206000200154036118cb57604051636571d65f60e01b815260040160405180910390fd5b806118d58161493a565b915050611869565b50600092835260a3602090815260408420805460018101825590855293209092019190915550565b604080516080810182526060808252600060208301819052928201839052810191909152600082815260a46020526040908190208151608081019092528054829082906119519061486f565b80601f016020809104026020016040519081016040528092919081815260200182805461197d9061486f565b80156119ca5780601f1061199f576101008083540402835291602001916119ca565b820191906000526020600020905b8154815290600101906020018083116119ad57829003601f168201915b5050509183525050600182015460208201526002820154604082015260039091015460ff16151560609091015292915050565b6060600060a1546001600160401b03811115611a1b57611a1b613f72565b604051908082528060200260200182016040528015611a6157816020015b604080518082019091526000815260606020820152815260200190600190039081611a395790505b50905060005b60a154811015611b655760a26000611a80836001614cb0565b815260200190815260200160002060405180604001604052908160008201548152602001600182018054611ab39061486f565b80601f0160208091040260200160405190810160405280929190818152602001828054611adf9061486f565b8015611b2c5780601f10611b0157610100808354040283529160200191611b2c565b820191906000526020600020905b815481529060010190602001808311611b0f57829003601f168201915b505050505081525050828281518110611b4757611b47614bb9565b60200260200101819052508080611b5d9061493a565b915050611a67565b50919050565b60408051808201909152600081526060602082015260a2600083815260200190815260200160002060405180604001604052908160008201548152602001600182018054611bb89061486f565b80601f0160208091040260200160405190810160405280929190818152602001828054611be49061486f565b8015611c315780601f10611c0657610100808354040283529160200191611c31565b820191906000526020600020905b815481529060010190602001808311611c1457829003601f168201915b5050505050815250509050919050565b60008060005b60a054811015611d2357611ce160a08281548110611c6757611c67614bb9565b600091825260208220015460408051636465e69f60e01b815290516001600160a01b0390921692636465e69f926004808401938290030181865afa158015611cb3573d6000803e3d6000fd5b505050506040513d6000823e601f3d908101601f19168201604052611cdb9190810190614cc3565b8561347c565b15611d115760a08181548110611cf957611cf9614bb9565b6000918252602090912001546001600160a01b031691505b80611d1b8161493a565b915050611c47565b5092915050565b609b54609c546040516331a9108f60e11b815260048101919091526000916001600160a01b031690636352211e90602401602060405180830381865afa158015611d78573d6000803e3d6000fd5b505050506040513d601f19601f82011682018060405250810190611d9c9190614d30565b905090565b6000611ddf60405180602001604052806000815250604051806040016040528060168152602001600080516020614eae833981519152815250612efc565b611e1e85858080601f01602080910402602001604051908101604052809392919081815260200183838082843760009201919091525061300992505050565b600060a160008154611e2f9061493a565b91905081905590506000604051806040016040528083815260200188888080601f016020809104026020016040519081016040528093929190818152602001838380828437600092018290525093909452505084815260a260209081526040909120835181559083015192935083929091506001820190611eb09082614bcf565b5090505060005b8551811015611fa057609a5415158015611f0c5750611f0c868281518110611ee157611ee1614bb9565b60200260200101516040518060400160405280600581526020016427bbb732b960d91b81525061347c565b15611f2a57604051631eb49d6d60e11b815260040160405180910390fd5b6000868281518110611f3e57611f3e614bb9565b6020026020010151604051602001611f569190614b9d565b604051602081830303815290604052611f6e90614900565b600085815260a36020908152604082208054600181018255908352912001555080611f988161493a565b915050611eb7565b5060005b845181101561207a576000858281518110611fc157611fc1614bb9565b60200260200101516000015190506000868381518110611fe357611fe3614bb9565b602002602001015160200151905060006001600160a01b0316826001600160a01b0316148061201157508051155b1561201d575050612068565b6001600160a01b0382166000908152609d602052604081205460ff161515900361205a5760405163c1ef36f360e01b815260040160405180910390fd5b6120658583836134d6565b50505b806120728161493a565b915050611fa4565b5081336001600160a01b03167f39772407c6dd2e83adbd292cdfa17a6817c9a7500e56cfe57b7a82d797f8d39b898960986040516120ba93929190614ad5565b60405180910390a35095945050505050565b609880546108809061486f565b61211560405180602001604052806000815250604051806040016040528060168152602001600080516020614eae833981519152815250612efc565b609a54810361213757604051631eb49d6d60e11b815260040160405180910390fd5b600081815260a2602052604081205490036121655760405163b810dc5d60e01b815260040160405180910390fd5b6000818152609f60205260409020541561219257604051633764405360e11b815260040160405180910390fd5b600081815260a260205260408120818155906121b16001830182613bd1565b5050600081815260a3602052604081206121ca91613c0b565b80336001600160a01b03167f1d5667a301e36f2d5b1ee32b7f187b0adb46c706297242fa945d3fed1e7f8a1960986040516122059190614d4d565b60405180910390a350565b606060a5805480602002602001604051908101604052809291908181526020018280548015610f8257602002820191906000526020600020905b81548152602001906001019080831161224a575050505050905090565b6060816001600160401b0381111561228157612281613f72565b6040519080825280602002602001820160405280156122b457816020015b606081526020019060019003908161229f5790505b50905060005b82811015611d2357600080308686858181106122d8576122d8614bb9565b90506020028101906122ea9190614d60565b6040516122f89291906148f0565b600060405180830381855af49150503d8060008114612333576040519150601f19603f3d011682016040523d82523d6000602084013e612338565b606091505b50915091508161234b5761234b81613646565b8084848151811061235e5761235e614bb9565b6020026020010181905250505080806123769061493a565b9150506122ba565b600081815260a36020908152604091829020805483518184028101840190945280845260609392830182828015610ee65760200282019190600052602060002090815481526020019060010190808311610ed25750505050509050919050565b61241a60405180602001604052806000815250604051806040016040528060168152602001600080516020614eae833981519152815250612efc565b80516001600160a01b03166000908152609d602052604090205460ff166124545760405163c1ef36f360e01b815260040160405180910390fd5b600082815260a2602052604081205490036124825760405163b810dc5d60e01b815260040160405180910390fd5b609a5482036124a457604051631eb49d6d60e11b815260040160405180910390fd5b61119c82826000015183602001516134d6565b61251f84848080601f0160208091040260200160405190810160405280939291908181526020018383808284376000920191909152505060408051808201909152601181527041646452656d6f76654368616e6e656c7360781b60208201529150612efc9050565b6001600160a01b0382166000908152609d602052604090205460ff166125585760405163c1ef36f360e01b815260040160405180910390fd5b600081815260a2602052604081205490036125865760405163b810dc5d60e01b815260040160405180910390fd5b604051637997c1e760e11b81526001600160a01b0383169063f32f83ce90610ab5908790879086906004016148cc565b60008415806125c3575081155b806125d557506001600160a01b038416155b156125f357604051630e52390960e41b815260040160405180910390fd5b600086866040516020016126089291906148f0565b60408051601f198184030181529181528151602092830120600081815260a490935290822060010154909250900361265357604051636ddd9da960e01b815260040160405180910390fd5b600081815260a4602052604090206003015460ff161561268657604051631eb49d6d60e11b815260040160405180910390fd5b60005b60a0548110156126fd576126e188888080601f016020809104026020016040519081016040528093929190818152602001838380828437600092019190915250506040518a9250610b229150899089906020016148f0565b156126eb57600192505b806126f58161493a565b915050612689565b505095945050505050565b61274460405180602001604052806000815250604051806040016040528060168152602001600080516020614eae833981519152815250612efc565b609a54820361276657604051631eb49d6d60e11b815260040160405180910390fd5b609d60006127776020840184613ea5565b6001600160a01b0316815260208101919091526040016000205460ff166127b15760405163c1ef36f360e01b815260040160405180910390fd5b600082815260a2602052604081205490036127df5760405163b810dc5d60e01b815260040160405180910390fd5b6000826127ef6020840184614d60565b60405160200161280193929190614da6565b60408051601f1981840301815291815281516020928301206000868152609f909352908220909250905b81548110156128df5781818154811061284657612846614bb9565b906000526020600020015483036128cd578154829061286790600190614dc0565b8154811061287757612877614bb9565b906000526020600020015482828154811061289457612894614bb9565b9060005260206000200181905550818054806128b2576128b2614dd3565b600190038181906000526020600020016000905590556128df565b806128d78161493a565b91505061282b565b506128ed6020840184613ea5565b6001600160a01b031663fa6d1adf856129096020870187614d60565b6040518463ffffffff1660e01b815260040161292793929190614de9565b6020604051808303816000875af1158015612946573d6000803e3d6000fd5b505050506040513d601f19601f8201168201806040525081019061296a9190614e03565b5050505050565b60a260205260009081526040902080546001820180549192916129939061486f565b80601f01602080910402602001604051908101604052809291908181526020018280546129bf9061486f565b8015612a0c5780601f106129e157610100808354040283529160200191612a0c565b820191906000526020600020905b8154815290600101906020018083116129ef57829003601f168201915b5050505050905082565b60a58181548110612a2657600080fd5b600091825260209091200154905081565b60a08181548110612a4757600080fd5b6000918252602090912001546001600160a01b0316905081565b612a97604051806020016040528060008152506040518060400160405280600581526020016427bbb732b960d91b815250612efc565b612aa082613713565b808015612ac557506001600160a01b0382166000908152609d602052604090205460ff165b15612ae35760405163186abc9b60e01b815260040160405180910390fd5b80158015612b0957506001600160a01b0382166000908152609e602052604090205460ff165b15612b2757604051631eb49d6d60e11b815260040160405180910390fd5b61119c82826137a4565b600054610100900460ff1615808015612b515750600054600160ff909116105b80612b6b5750303b158015612b6b575060005460ff166001145b612bce5760405162461bcd60e51b815260206004820152602e60248201527f496e697469616c697a61626c653a20636f6e747261637420697320616c72656160448201526d191e481a5b9a5d1a585b1a5e995960921b6064820152608401610df0565b6000805460ff191660011790558015612bf1576000805461ff0019166101001790555b612bf9613925565b612c01613925565b6097612c0d8782614bcf565b506098612c1a8682614bcf565b50609b80546001600160a01b0319166001600160a01b038516179055609c82905560005b8451811015612cc757612c6b858281518110612c5c57612c5c614bb9565b602002602001015160016137a4565b6001609e6000878481518110612c8357612c83614bb9565b6020908102919091018101516001600160a01b03168252810191909152604001600020805460ff191691151591909117905580612cbf8161493a565b915050612c3e565b508015610da0576000805461ff0019169055604051600181527f7f26b83ff96e1f2b6a682f133852f6798a09c465da95921460cefb38474024989060200160405180910390a1505050505050565b612d5160405180602001604052806000815250604051806040016040528060168152602001600080516020614eae833981519152815250612efc565b612d78816040518060400160405280600581526020016427bbb732b960d91b81525061347c565b15612d9657604051631eb49d6d60e11b815260040160405180910390fd5b600082815260a260205260408120549003612dc45760405163b810dc5d60e01b815260040160405180910390fd5b600081604051602001612dd79190614b9d565b604051602081830303815290604052612def90614900565b905060005b600084815260a36020526040902054811015612ef657600084815260a360205260409020805483919083908110612e2d57612e2d614bb9565b906000526020600020015403612ee457600084815260a3602052604090208054612e5990600190614dc0565b81548110612e6957612e69614bb9565b906000526020600020015460a360008681526020019081526020016000208281548110612e9857612e98614bb9565b906000526020600020018190555060a36000858152602001908152602001600020805480612ec857612ec8614dd3565b6001900381819060005260206000200160009055905550505050565b80612eee8161493a565b915050612df4565b50505050565b612f046133f5565b80612f2e575060995460ff16158015612f2e5750612f2e823383604051602001610b229190614b9d565b15612f37575050565b604051631eb49d6d60e11b815260040160405180910390fd5b6000805b60a054811015610b5b5760a08181548110612f7157612f71614bb9565b60009182526020909120015460405162169d5560e31b81526001600160a01b039091169062b4eaa890612fac90889088908890600401614e1c565b602060405180830381865afa158015612fc9573d6000803e3d6000fd5b505050506040513d601f19601f82011682018060405250810190612fed9190614e4a565b15612ff757600191505b806130018161493a565b915050612f54565b805181906002118061301c575080516020105b1561119c5760405163354b556f60e11b815260040160405180910390fd5b600082828080601f016020809104026020016040519081016040528093929190818152602001838380828437600092019190915250508251929350506002909110905080613089575080516020105b156130a75760405163354b556f60e11b815260040160405180910390fd5b805160005b8181101561296a57600360fc1b8382815181106130cb576130cb614bb9565b01602001516001600160f81b03191610806131095750603d60f91b8382815181106130f8576130f8614bb9565b01602001516001600160f81b031916115b806131655750603960f81b83828151811061312657613126614bb9565b01602001516001600160f81b0319161180156131655750606160f81b83828151811061315457613154614bb9565b01602001516001600160f81b031916105b8015613196575082818151811061317e5761317e614bb9565b6020910101516001600160f81b031916601760f91b14155b80156131c757508281815181106131af576131af614bb9565b6020910101516001600160f81b031916602d60f81b14155b80156131f857508281815181106131e0576131e0614bb9565b6020910101516001600160f81b031916605f60f81b14155b8015613229575082818151811061321157613211614bb9565b6020910101516001600160f81b031916600160fd1b14155b156132475760405163f8fa659760e01b815260040160405180910390fd5b6001016130ac565b610e8d604051806020016040528060008152506040518060400160405280600581526020016427bbb732b960d91b815250612efc565b7f4910fdfa16fed3260ed0e7147f7cc6da11a60208b5b9406d12a635614ffd91435460ff16156132bd576132b883613992565b505050565b826001600160a01b03166352d1902d6040518163ffffffff1660e01b8152600401602060405180830381865afa925050508015613317575060408051601f3d908101601f1916820190925261331491810190614e03565b60015b61337a5760405162461bcd60e51b815260206004820152602e60248201527f45524331393637557067726164653a206e657720696d706c656d656e7461746960448201526d6f6e206973206e6f74205555505360901b6064820152608401610df0565b600080516020614e8e83398151915281146133e95760405162461bcd60e51b815260206004820152602960248201527f45524331393637557067726164653a20756e737570706f727465642070726f786044820152681a58589b195555525160ba1b6064820152608401610df0565b506132b8838383613a2e565b600033609b54609c546040516331a9108f60e11b815260048101919091526001600160a01b039283169290911690636352211e90602401602060405180830381865afa158015613449573d6000803e3d6000fd5b505050506040513d601f19601f8201168201806040525081019061346d9190614d30565b6001600160a01b031614905090565b60008160405160200161348f9190614b9d565b60405160208183030381529060405280519060200120836040516020016134b69190614b9d565b604051602081830303815290604052805190602001201490505b92915050565b600083826040516020016134eb929190614e67565b60408051601f1981840301815282825280516020918201206000888152609f83528381208054808502870185019095528486529195509392909183018282801561355457602002820191906000526020600020905b815481526020019060010190808311613540575b5050505050905060005b81518110156135b2578282828151811061357a5761357a614bb9565b6020026020010151036135a05760405163c5c9ad6760e01b815260040160405180910390fd5b806135aa8161493a565b91505061355e565b506000858152609f602090815260408083208054600181018255908452919092200183905551633be2f95d60e21b81526001600160a01b0385169063ef8be574906136039088908790600401614729565b6020604051808303816000875af1158015613622573d6000803e3d6000fd5b505050506040513d601f19601f82011682018060405250810190610da09190614e03565b60048151101561368b5760405162461bcd60e51b815260206004820152601060248201526f1d5b9a185b991b1959081c995d995c9d60821b6044820152606401610df0565b602081015163b1b7848f60e01b6001600160e01b031982160161370a57604080518082018252600e81526d70616e69636b65643a2030785f5f60901b602082018181526024860151600481811c600f908116603090810160081b9184160117909317909152925162461bcd60e51b8152919291610df091849101613c8e565b81518060208401fd5b6040516301ffc9a760e01b815263e5e65adf60e01b60048201526001600160a01b038216906301ffc9a790602401602060405180830381865afa15801561375e573d6000803e3d6000fd5b505050506040513d601f19601f820116820180604052508101906137829190614e4a565b1515600003610e8d57604051636d9250f160e11b815260040160405180910390fd5b6001600160a01b0382166000908152609d60205260409020805460ff191682158015919091179091556138225760a080546001810182556000919091527f78fdc8d422c49ced035a9edf18d00d3c6a8d81df210f3e5e448e045e77b41e880180546001600160a01b0384166001600160a01b03199091161790555050565b60005b60a0548110156132b85760a0818154811061384257613842614bb9565b6000918252602090912001546001600160a01b03908116908416036139135760a0805461387190600190614dc0565b8154811061388157613881614bb9565b60009182526020909120015460a080546001600160a01b0390921691839081106138ad576138ad614bb9565b9060005260206000200160006101000a8154816001600160a01b0302191690836001600160a01b0316021790555060a08054806138ec576138ec614dd3565b600082815260209020810160001990810180546001600160a01b0319169055019055505050565b8061391d8161493a565b915050613825565b600054610100900460ff166139905760405162461bcd60e51b815260206004820152602b60248201527f496e697469616c697a61626c653a20636f6e7472616374206973206e6f74206960448201526a6e697469616c697a696e6760a81b6064820152608401610df0565b565b6001600160a01b0381163b6139ff5760405162461bcd60e51b815260206004820152602d60248201527f455243313936373a206e657720696d706c656d656e746174696f6e206973206e60448201526c1bdd08184818dbdb9d1c9858dd609a1b6064820152608401610df0565b600080516020614e8e83398151915280546001600160a01b0319166001600160a01b0392909216919091179055565b613a3783613a53565b600082511180613a445750805b156132b857612ef68383613a93565b613a5c81613992565b6040516001600160a01b038216907fbc7cd75a20ee27fd9adebab32041f755214dbc6bffa90cc0225b39da2e5c2d3b90600090a250565b60606001600160a01b0383163b613afb5760405162461bcd60e51b815260206004820152602660248201527f416464726573733a2064656c65676174652063616c6c20746f206e6f6e2d636f6044820152651b9d1c9858dd60d21b6064820152608401610df0565b600080846001600160a01b031684604051613b169190614b9d565b600060405180830381855af49150503d8060008114613b51576040519150601f19603f3d011682016040523d82523d6000602084013e613b56565b606091505b5091509150613b7e8282604051806060016040528060278152602001614ece60279139613b87565b95945050505050565b60608315613b96575081613ba0565b613ba08383613ba7565b9392505050565b815115613bb75781518083602001fd5b8060405162461bcd60e51b8152600401610df09190613c8e565b508054613bdd9061486f565b6000825580601f10613bed575050565b601f016020900490600052602060002090810190610e8d9190613c25565b5080546000825590600052602060002090810190610e8d91905b5b80821115613c3a5760008155600101613c26565b5090565b60005b83811015613c59578181015183820152602001613c41565b50506000910152565b60008151808452613c7a816020860160208601613c3e565b601f01601f19169290920160200192915050565b602081526000613ba06020830184613c62565b600060208284031215613cb357600080fd5b5035919050565b608081526000613ccd6080830187613c62565b60208301959095525060408101929092521515606090910152919050565b60008083601f840112613cfd57600080fd5b5081356001600160401b03811115613d1457600080fd5b602083019150836020828501011115613d2c57600080fd5b9250929050565b6001600160a01b0381168114610e8d57600080fd5b8035613d5381613d33565b919050565b60008060008060608587031215613d6e57600080fd5b84356001600160401b03811115613d8457600080fd5b613d9087828801613ceb565b9095509350506020850135613da481613d33565b9396929550929360400135925050565b600080600060408486031215613dc957600080fd5b8335613dd481613d33565b925060208401356001600160401b03811115613def57600080fd5b613dfb86828701613ceb565b9497909650939450505050565b600080600060408486031215613e1d57600080fd5b8335925060208401356001600160401b03811115613def57600080fd5b60008060008060408587031215613e5057600080fd5b84356001600160401b0380821115613e6757600080fd5b613e7388838901613ceb565b90965094506020870135915080821115613e8c57600080fd5b50613e9987828801613ceb565b95989497509550505050565b600060208284031215613eb757600080fd5b8135613ba081613d33565b6020808252825182820181905260009190848201906040850190845b81811015613efa57835183529284019291840191600101613ede565b50909695505050505050565b8015158114610e8d57600080fd5b600060208284031215613f2657600080fd5b8135613ba081613f06565b6020808252825182820181905260009190848201906040850190845b81811015613efa5783516001600160a01b031683529284019291840191600101613f4d565b634e487b7160e01b600052604160045260246000fd5b604051601f8201601f191681016001600160401b0381118282101715613fb057613fb0613f72565b604052919050565b60006001600160401b03821115613fd157613fd1613f72565b50601f01601f191660200190565b600082601f830112613ff057600080fd5b8135614003613ffe82613fb8565b613f88565b81815284602083860101111561401857600080fd5b816020850160208301376000918101602001919091529392505050565b6000806040838503121561404857600080fd5b823561405381613d33565b915060208301356001600160401b0381111561406e57600080fd5b61407a85828601613fdf565b9150509250929050565b6000806040838503121561409757600080fd5b82356140a281613d33565b915060208301356140b281613d33565b809150509250929050565b60006001600160401b038211156140d6576140d6613f72565b5060051b60200190565b600080600080606085870312156140f657600080fd5b84356001600160401b038082111561410d57600080fd5b61411988838901613ceb565b909650945060209150868201358181111561413357600080fd5b61413f89828a01613fdf565b94505060408701358181111561415457600080fd5b87019050601f8101881361416757600080fd5b8035614175613ffe826140bd565b81815260059190911b8201830190838101908a83111561419457600080fd5b928401925b828410156141b257833582529284019290840190614199565b979a9699509497505050505050565b6000806000604084860312156141d657600080fd5b83356001600160401b038111156141ec57600080fd5b6141f886828701613ceb565b909450925050602084013561420c81613f06565b809150509250925092565b6000806040838503121561422a57600080fd5b8235915060208301356001600160401b0381111561406e57600080fd5b60208152600082516080602084015261426360a0840182613c62565b905060208401516040840152604084015160608401526060840151151560808401528091505092915050565b8051825260006020820151604060208501526142ae6040850182613c62565b949350505050565b6000602080830181845280855180835260408601915060408160051b870101925083870160005b8281101561430b57603f198886030184526142f985835161428f565b945092850192908501906001016142dd565b5092979650505050505050565b602081526000613ba0602083018461428f565b60006020828403121561433d57600080fd5b81356001600160401b0381111561435357600080fd5b6142ae84828501613fdf565b60006040828403121561437157600080fd5b604051604081016001600160401b03828210818311171561439457614394613f72565b81604052829350843591506143a882613d33565b908252602084013590808211156143be57600080fd5b506143cb85828601613fdf565b6020830152505092915050565b600082601f8301126143e957600080fd5b813560206143f9613ffe836140bd565b82815260059290921b8401810191818101908684111561441857600080fd5b8286015b848110156144575780356001600160401b0381111561443b5760008081fd5b6144498986838b010161435f565b84525091830191830161441c565b509695505050505050565b6000806000806060858703121561447857600080fd5b84356001600160401b038082111561448f57600080fd5b61449b88838901613ceb565b90965094506020915086820135818111156144b557600080fd5b8701601f810189136144c657600080fd5b80356144d4613ffe826140bd565b81815260059190911b8201840190848101908b8311156144f357600080fd5b8584015b8381101561452b5780358681111561450f5760008081fd5b61451d8e8983890101613fdf565b8452509186019186016144f7565b509650505050604087013591508082111561454557600080fd5b50614552878288016143d8565b91505092959194509250565b6000806020838503121561457157600080fd5b82356001600160401b038082111561458857600080fd5b818501915085601f83011261459c57600080fd5b8135818111156145ab57600080fd5b8660208260051b85010111156145c057600080fd5b60209290920196919550909350505050565b6000602080830181845280855180835260408601915060408160051b870101925083870160005b8281101561430b57603f19888603018452614615858351613c62565b945092850192908501906001016145f9565b6000806040838503121561463a57600080fd5b8235915060208301356001600160401b0381111561465757600080fd5b61407a8582860161435f565b60008060008060006060868803121561467b57600080fd5b85356001600160401b038082111561469257600080fd5b61469e89838a01613ceb565b9097509550602088013591506146b382613d33565b909350604087013590808211156146c957600080fd5b506146d688828901613ceb565b969995985093965092949392505050565b600080604083850312156146fa57600080fd5b8235915060208301356001600160401b0381111561471757600080fd5b8301604081860312156140b257600080fd5b8281526040602082015260006142ae6040830184613c62565b6000806040838503121561475557600080fd5b823561476081613d33565b915060208301356140b281613f06565b600080600080600060a0868803121561478857600080fd5b85356001600160401b038082111561479f57600080fd5b6147ab89838a01613fdf565b96506020915081880135818111156147c257600080fd5b6147ce8a828b01613fdf565b9650506040880135818111156147e357600080fd5b88019050601f810189136147f657600080fd5b8035614804613ffe826140bd565b81815260059190911b8201830190838101908b83111561482357600080fd5b928401925b8284101561484a57833561483b81613d33565b82529284019290840190614828565b809750505050505061485e60608701613d48565b949793965091946080013592915050565b600181811c9082168061488357607f821691505b602082108103611b6557634e487b7160e01b600052602260045260246000fd5b81835281816020850137506000828201602090810191909152601f909101601f19169091010190565b6040815260006148e06040830185876148a3565b9050826020830152949350505050565b8183823760009101908152919050565b80516020808301519190811015611b655760001960209190910360031b1b16919050565b634e487b7160e01b600052601160045260246000fd5b60006001820161494c5761494c614924565b5060010190565b601f8211156132b857600081815260208120601f850160051c8101602086101561497a5750805b601f850160051c820191505b81811015610da057828155600101614986565b6001600160401b038311156149b0576149b0613f72565b6149c4836149be835461486f565b83614953565b6000601f8411600181146149f857600085156149e05750838201355b600019600387901b1c1916600186901b17835561296a565b600083815260209020601f19861690835b82811015614a295786850135825560209485019460019092019101614a09565b5086821015614a465760001960f88860031b161c19848701351681555b505060018560011b0183555050505050565b60008154614a658161486f565b808552602060018381168015614a825760018114614a9c57614aca565b60ff1985168884015283151560051b880183019550614aca565b866000528260002060005b85811015614ac25781548a8201860152908301908401614aa7565b890184019650505b505050505092915050565b604081526000614ae96040830185876148a3565b8281036020840152614afb8185614a58565b9695505050505050565b6020808252602c908201527f46756e6374696f6e206d7573742062652063616c6c6564207468726f7567682060408201526b19195b1959d85d1958d85b1b60a21b606082015260800190565b6020808252602c908201527f46756e6374696f6e206d7573742062652063616c6c6564207468726f7567682060408201526b6163746976652070726f787960a01b606082015260800190565b60008251614baf818460208701613c3e565b9190910192915050565b634e487b7160e01b600052603260045260246000fd5b81516001600160401b03811115614be857614be8613f72565b614bfc81614bf6845461486f565b84614953565b602080601f831160018114614c315760008415614c195750858301515b600019600386901b1c1916600185901b178555610da0565b600085815260208120601f198616915b82811015614c6057888601518255948401946001909101908401614c41565b5085821015614c7e5787850151600019600388901b60f8161c191681555b5050505050600190811b01905550565b604081526000614ca16040830185613c62565b90508260208301529392505050565b808201808211156134d0576134d0614924565b600060208284031215614cd557600080fd5b81516001600160401b03811115614ceb57600080fd5b8201601f81018413614cfc57600080fd5b8051614d0a613ffe82613fb8565b818152856020838501011115614d1f57600080fd5b613b7e826020830160208601613c3e565b600060208284031215614d4257600080fd5b8151613ba081613d33565b602081526000613ba06020830184614a58565b6000808335601e19843603018112614d7757600080fd5b8301803591506001600160401b03821115614d9157600080fd5b602001915036819003821315613d2c57600080fd5b838152818360208301376000910160200190815292915050565b818103818111156134d0576134d0614924565b634e487b7160e01b600052603160045260246000fd5b838152604060208201526000613b7e6040830184866148a3565b600060208284031215614e1557600080fd5b5051919050565b606081526000614e2f6060830186613c62565b6001600160a01b039490941660208301525060400152919050565b600060208284031215614e5c57600080fd5b8151613ba081613f06565b82815260008251614e7f816020850160208701613c3e565b91909101602001939250505056fe360894a13ba1a3210667c828492db98dca3e2076cc3735a920a3ca505d382bbc4d6f6469667953706163655065726d697373696f6e7300000000000000000000416464726573733a206c6f772d6c6576656c2064656c65676174652063616c6c206661696c6564a2646970667358221220cce664159cd597fdb53fdca8f2f0b5b54041ae06c0feb232cd7eb4de298d553364736f6c63430008110033",
    "linkReferences": {}
  },
  "methodIdentifiers": {
    "addPermissionToRole(uint256,string)": "66fb345c",
    "addRoleToChannel(string,address,uint256)": "1dea616a",
    "addRoleToEntitlement(uint256,(address,bytes))": "ba201ba8",
    "channels(uint256)": "e5949b5d",
    "channelsByHash(bytes32)": "129ab3c8",
    "createChannel(string,string,uint256[])": "51f83cea",
    "createRole(string,string[],(address,bytes)[])": "8fcd793d",
    "defaultEntitlements(address)": "fa6433c5",
    "disabled()": "ee070805",
    "entitlements(uint256)": "f28f9b56",
    "getChannelByHash(bytes32)": "703511f8",
    "getChannels()": "9575f6ac",
    "getEntitlementByModuleType(string)": "870b9464",
    "getEntitlementIdsByRoleId(uint256)": "42486e49",
    "getEntitlements()": "487dc38c",
    "getPermissionsByRoleId(uint256)": "b4264233",
    "getRoleById(uint256)": "784c872b",
    "getRoles()": "71061398",
    "hasEntitlement(address)": "7f8d06d0",
    "initialize(string,string,address[],address,uint256)": "f3ce6a5b",
    "isEntitledToChannel(string,address,string)": "cea632bc",
    "isEntitledToSpace(address,string)": "20759f9e",
    "multicall(bytes[])": "ac9650d8",
    "name()": "06fdde03",
    "networkId()": "9025e64c",
    "owner()": "8da5cb5b",
    "ownerRoleId()": "d1a6a961",
    "proxiableUUID()": "52d1902d",
    "removePermissionFromRole(uint256,string)": "f740bb6b",
    "removeRole(uint256)": "92691821",
    "removeRoleFromChannel(string,address,uint256)": "baaf3d57",
    "removeRoleFromEntitlement(uint256,(address,bytes))": "dba81864",
    "roleCount()": "ddf96358",
    "rolesById(uint256)": "e5894ef4",
    "setChannelAccess(string,bool)": "5de151b8",
    "setEntitlement(address,bool)": "f3b96ab4",
    "setOwnerRoleId(uint256)": "4999ab16",
    "setSpaceAccess(bool)": "446dc22e",
    "token()": "fc0c546a",
    "tokenId()": "17d70f7c",
    "updateChannel(string,string)": "34a1dd26",
    "updateRole(uint256,string)": "32e704cc",
    "upgradeEntitlement(address,address)": "519607f2",
    "upgradeTo(address)": "3659cfe6",
    "upgradeToAndCall(address,bytes)": "4f1ef286"
  },
  "id": 13
}