{
  "abi": [
    {
      "inputs": [],
      "stateMutability": "nonpayable",
      "type": "constructor"
    },
    {
      "inputs": [],
      "name": "AddRoleFailed",
      "type": "error"
    },
    {
      "inputs": [],
      "name": "ChannelAlreadyRegistered",
      "type": "error"
    },
    {
      "inputs": [],
      "name": "ChannelDoesNotExist",
      "type": "error"
    },
    {
      "inputs": [],
      "name": "EntitlementAlreadyExists",
      "type": "error"
    },
    {
      "inputs": [],
      "name": "EntitlementAlreadyWhitelisted",
      "type": "error"
    },
    {
      "inputs": [],
      "name": "EntitlementModuleNotSupported",
      "type": "error"
    },
    {
      "inputs": [],
      "name": "EntitlementNotWhitelisted",
      "type": "error"
    },
    {
      "inputs": [],
      "name": "InvalidParameters",
      "type": "error"
    },
    {
      "inputs": [],
      "name": "MissingOwnerPermission",
      "type": "error"
    },
    {
      "inputs": [],
      "name": "NotAllowed",
      "type": "error"
    },
    {
      "inputs": [],
      "name": "OwnerPermissionNotAllowed",
      "type": "error"
    },
    {
      "inputs": [],
      "name": "PermissionAlreadyExists",
      "type": "error"
    },
    {
      "inputs": [],
      "name": "RoleDoesNotExist",
      "type": "error"
    },
    {
      "inputs": [],
      "name": "RoleIsAssignedToEntitlement",
      "type": "error"
    },
    {
      "anonymous": false,
      "inputs": [
        {
          "indexed": false,
          "internalType": "address",
          "name": "previousAdmin",
          "type": "address"
        },
        {
          "indexed": false,
          "internalType": "address",
          "name": "newAdmin",
          "type": "address"
        }
      ],
      "name": "AdminChanged",
      "type": "event"
    },
    {
      "anonymous": false,
      "inputs": [
        {
          "indexed": true,
          "internalType": "address",
          "name": "beacon",
          "type": "address"
        }
      ],
      "name": "BeaconUpgraded",
      "type": "event"
    },
    {
      "anonymous": false,
      "inputs": [
        {
          "indexed": false,
          "internalType": "uint8",
          "name": "version",
          "type": "uint8"
        }
      ],
      "name": "Initialized",
      "type": "event"
    },
    {
      "anonymous": false,
      "inputs": [
        {
          "indexed": true,
          "internalType": "address",
          "name": "implementation",
          "type": "address"
        }
      ],
      "name": "Upgraded",
      "type": "event"
    },
    {
      "inputs": [
        {
          "internalType": "uint256",
          "name": "_roleId",
          "type": "uint256"
        },
        {
          "internalType": "string",
          "name": "_permission",
          "type": "string"
        }
      ],
      "name": "addPermissionToRole",
      "outputs": [],
      "stateMutability": "nonpayable",
      "type": "function"
    },
    {
      "inputs": [
        {
          "internalType": "string",
          "name": "_channelId",
          "type": "string"
        },
        {
          "internalType": "address",
          "name": "_entitlement",
          "type": "address"
        },
        {
          "internalType": "uint256",
          "name": "_roleId",
          "type": "uint256"
        }
      ],
      "name": "addRoleToChannel",
      "outputs": [],
      "stateMutability": "nonpayable",
      "type": "function"
    },
    {
      "inputs": [
        {
          "internalType": "uint256",
          "name": "_roleId",
          "type": "uint256"
        },
        {
          "components": [
            {
              "internalType": "address",
              "name": "module",
              "type": "address"
            },
            {
              "internalType": "bytes",
              "name": "data",
              "type": "bytes"
            }
          ],
          "internalType": "struct DataTypes.Entitlement",
          "name": "_entitlement",
          "type": "tuple"
        }
      ],
      "name": "addRoleToEntitlement",
      "outputs": [],
      "stateMutability": "nonpayable",
      "type": "function"
    },
    {
      "inputs": [
        {
          "internalType": "uint256",
          "name": "",
          "type": "uint256"
        }
      ],
      "name": "channels",
      "outputs": [
        {
          "internalType": "bytes32",
          "name": "",
          "type": "bytes32"
        }
      ],
      "stateMutability": "view",
      "type": "function"
    },
    {
      "inputs": [
        {
          "internalType": "bytes32",
          "name": "",
          "type": "bytes32"
        }
      ],
      "name": "channelsByHash",
      "outputs": [
        {
          "internalType": "string",
          "name": "name",
          "type": "string"
        },
        {
          "internalType": "bytes32",
          "name": "channelId",
          "type": "bytes32"
        },
        {
          "internalType": "uint256",
          "name": "createdAt",
          "type": "uint256"
        },
        {
          "internalType": "bool",
          "name": "disabled",
          "type": "bool"
        }
      ],
      "stateMutability": "view",
      "type": "function"
    },
    {
      "inputs": [
        {
          "internalType": "string",
          "name": "channelName",
          "type": "string"
        },
        {
          "internalType": "string",
          "name": "channelNetworkId",
          "type": "string"
        },
        {
          "internalType": "uint256[]",
          "name": "roleIds",
          "type": "uint256[]"
        }
      ],
      "name": "createChannel",
      "outputs": [
        {
          "internalType": "bytes32",
          "name": "",
          "type": "bytes32"
        }
      ],
      "stateMutability": "nonpayable",
      "type": "function"
    },
    {
      "inputs": [
        {
          "internalType": "string",
          "name": "_roleName",
          "type": "string"
        },
        {
          "internalType": "string[]",
          "name": "_permissions",
          "type": "string[]"
        },
        {
          "components": [
            {
              "internalType": "address",
              "name": "module",
              "type": "address"
            },
            {
              "internalType": "bytes",
              "name": "data",
              "type": "bytes"
            }
          ],
          "internalType": "struct DataTypes.Entitlement[]",
          "name": "_entitlements",
          "type": "tuple[]"
        }
      ],
      "name": "createRole",
      "outputs": [
        {
          "internalType": "uint256",
          "name": "",
          "type": "uint256"
        }
      ],
      "stateMutability": "nonpayable",
      "type": "function"
    },
    {
      "inputs": [
        {
          "internalType": "address",
          "name": "",
          "type": "address"
        }
      ],
      "name": "defaultEntitlements",
      "outputs": [
        {
          "internalType": "bool",
          "name": "",
          "type": "bool"
        }
      ],
      "stateMutability": "view",
      "type": "function"
    },
    {
      "inputs": [],
      "name": "disabled",
      "outputs": [
        {
          "internalType": "bool",
          "name": "",
          "type": "bool"
        }
      ],
      "stateMutability": "view",
      "type": "function"
    },
    {
      "inputs": [
        {
          "internalType": "uint256",
          "name": "",
          "type": "uint256"
        }
      ],
      "name": "entitlements",
      "outputs": [
        {
          "internalType": "address",
          "name": "",
          "type": "address"
        }
      ],
      "stateMutability": "view",
      "type": "function"
    },
    {
      "inputs": [
        {
          "internalType": "bytes32",
          "name": "_channelHash",
          "type": "bytes32"
        }
      ],
      "name": "getChannelByHash",
      "outputs": [
        {
          "components": [
            {
              "internalType": "string",
              "name": "name",
              "type": "string"
            },
            {
              "internalType": "bytes32",
              "name": "channelId",
              "type": "bytes32"
            },
            {
              "internalType": "uint256",
              "name": "createdAt",
              "type": "uint256"
            },
            {
              "internalType": "bool",
              "name": "disabled",
              "type": "bool"
            }
          ],
          "internalType": "struct DataTypes.Channel",
          "name": "",
          "type": "tuple"
        }
      ],
      "stateMutability": "view",
      "type": "function"
    },
    {
      "inputs": [
        {
          "internalType": "uint256",
          "name": "_roleId",
          "type": "uint256"
        }
      ],
      "name": "getEntitlementIdsByRoleId",
      "outputs": [
        {
          "internalType": "bytes32[]",
          "name": "",
          "type": "bytes32[]"
        }
      ],
      "stateMutability": "view",
      "type": "function"
    },
    {
      "inputs": [],
      "name": "getEntitlements",
      "outputs": [
        {
          "internalType": "address[]",
          "name": "",
          "type": "address[]"
        }
      ],
      "stateMutability": "view",
      "type": "function"
    },
    {
      "inputs": [
        {
          "internalType": "uint256",
          "name": "_roleId",
          "type": "uint256"
        }
      ],
      "name": "getPermissionsByRoleId",
      "outputs": [
        {
          "internalType": "bytes32[]",
          "name": "",
          "type": "bytes32[]"
        }
      ],
      "stateMutability": "view",
      "type": "function"
    },
    {
      "inputs": [
        {
          "internalType": "uint256",
          "name": "_roleId",
          "type": "uint256"
        }
      ],
      "name": "getRoleById",
      "outputs": [
        {
          "components": [
            {
              "internalType": "uint256",
              "name": "roleId",
              "type": "uint256"
            },
            {
              "internalType": "string",
              "name": "name",
              "type": "string"
            }
          ],
          "internalType": "struct DataTypes.Role",
          "name": "",
          "type": "tuple"
        }
      ],
      "stateMutability": "view",
      "type": "function"
    },
    {
      "inputs": [],
      "name": "getRoles",
      "outputs": [
        {
          "components": [
            {
              "internalType": "uint256",
              "name": "roleId",
              "type": "uint256"
            },
            {
              "internalType": "string",
              "name": "name",
              "type": "string"
            }
          ],
          "internalType": "struct DataTypes.Role[]",
          "name": "",
          "type": "tuple[]"
        }
      ],
      "stateMutability": "view",
      "type": "function"
    },
    {
      "inputs": [
        {
          "internalType": "address",
          "name": "",
          "type": "address"
        }
      ],
      "name": "hasEntitlement",
      "outputs": [
        {
          "internalType": "bool",
          "name": "",
          "type": "bool"
        }
      ],
      "stateMutability": "view",
      "type": "function"
    },
    {
      "inputs": [
        {
          "internalType": "string",
          "name": "_name",
          "type": "string"
        },
        {
          "internalType": "string",
          "name": "_networkId",
          "type": "string"
        },
        {
          "internalType": "address[]",
          "name": "_entitlements",
          "type": "address[]"
        },
        {
          "internalType": "address",
          "name": "_token",
          "type": "address"
        },
        {
          "internalType": "uint256",
          "name": "_tokenId",
          "type": "uint256"
        }
      ],
      "name": "initialize",
      "outputs": [],
      "stateMutability": "nonpayable",
      "type": "function"
    },
    {
      "inputs": [
        {
          "internalType": "string",
          "name": "_channelId",
          "type": "string"
        },
        {
          "internalType": "address",
          "name": "_user",
          "type": "address"
        },
        {
          "internalType": "string",
          "name": "_permission",
          "type": "string"
        }
      ],
      "name": "isEntitledToChannel",
      "outputs": [
        {
          "internalType": "bool",
          "name": "_entitled",
          "type": "bool"
        }
      ],
      "stateMutability": "view",
      "type": "function"
    },
    {
      "inputs": [
        {
          "internalType": "address",
          "name": "_user",
          "type": "address"
        },
        {
          "internalType": "string",
          "name": "_permission",
          "type": "string"
        }
      ],
      "name": "isEntitledToSpace",
      "outputs": [
        {
          "internalType": "bool",
          "name": "_entitled",
          "type": "bool"
        }
      ],
      "stateMutability": "view",
      "type": "function"
    },
    {
      "inputs": [
        {
          "internalType": "bytes[]",
          "name": "data",
          "type": "bytes[]"
        }
      ],
      "name": "multicall",
      "outputs": [
        {
          "internalType": "bytes[]",
          "name": "results",
          "type": "bytes[]"
        }
      ],
      "stateMutability": "nonpayable",
      "type": "function"
    },
    {
      "inputs": [],
      "name": "name",
      "outputs": [
        {
          "internalType": "string",
          "name": "",
          "type": "string"
        }
      ],
      "stateMutability": "view",
      "type": "function"
    },
    {
      "inputs": [],
      "name": "networkId",
      "outputs": [
        {
          "internalType": "string",
          "name": "",
          "type": "string"
        }
      ],
      "stateMutability": "view",
      "type": "function"
    },
    {
      "inputs": [],
      "name": "owner",
      "outputs": [
        {
          "internalType": "address",
          "name": "",
          "type": "address"
        }
      ],
      "stateMutability": "view",
      "type": "function"
    },
    {
      "inputs": [],
      "name": "ownerRoleId",
      "outputs": [
        {
          "internalType": "uint256",
          "name": "",
          "type": "uint256"
        }
      ],
      "stateMutability": "view",
      "type": "function"
    },
    {
      "inputs": [],
      "name": "proxiableUUID",
      "outputs": [
        {
          "internalType": "bytes32",
          "name": "",
          "type": "bytes32"
        }
      ],
      "stateMutability": "view",
      "type": "function"
    },
    {
      "inputs": [
        {
          "internalType": "uint256",
          "name": "_roleId",
          "type": "uint256"
        },
        {
          "internalType": "string",
          "name": "_permission",
          "type": "string"
        }
      ],
      "name": "removePermissionFromRole",
      "outputs": [],
      "stateMutability": "nonpayable",
      "type": "function"
    },
    {
      "inputs": [
        {
          "internalType": "uint256",
          "name": "_roleId",
          "type": "uint256"
        }
      ],
      "name": "removeRole",
      "outputs": [],
      "stateMutability": "nonpayable",
      "type": "function"
    },
    {
      "inputs": [
        {
          "internalType": "string",
          "name": "_channelId",
          "type": "string"
        },
        {
          "internalType": "address",
          "name": "_entitlement",
          "type": "address"
        },
        {
          "internalType": "uint256",
          "name": "_roleId",
          "type": "uint256"
        }
      ],
      "name": "removeRoleFromChannel",
      "outputs": [],
      "stateMutability": "nonpayable",
      "type": "function"
    },
    {
      "inputs": [
        {
          "internalType": "uint256",
          "name": "_roleId",
          "type": "uint256"
        },
        {
          "components": [
            {
              "internalType": "address",
              "name": "module",
              "type": "address"
            },
            {
              "internalType": "bytes",
              "name": "data",
              "type": "bytes"
            }
          ],
          "internalType": "struct DataTypes.Entitlement",
          "name": "_entitlement",
          "type": "tuple"
        }
      ],
      "name": "removeRoleFromEntitlement",
      "outputs": [],
      "stateMutability": "nonpayable",
      "type": "function"
    },
    {
      "inputs": [],
      "name": "roleCount",
      "outputs": [
        {
          "internalType": "uint256",
          "name": "",
          "type": "uint256"
        }
      ],
      "stateMutability": "view",
      "type": "function"
    },
    {
      "inputs": [
        {
          "internalType": "uint256",
          "name": "",
          "type": "uint256"
        }
      ],
      "name": "rolesById",
      "outputs": [
        {
          "internalType": "uint256",
          "name": "roleId",
          "type": "uint256"
        },
        {
          "internalType": "string",
          "name": "name",
          "type": "string"
        }
      ],
      "stateMutability": "view",
      "type": "function"
    },
    {
      "inputs": [
        {
          "internalType": "string",
          "name": "_channelId",
          "type": "string"
        },
        {
          "internalType": "bool",
          "name": "_disabled",
          "type": "bool"
        }
      ],
      "name": "setChannelAccess",
      "outputs": [],
      "stateMutability": "nonpayable",
      "type": "function"
    },
    {
      "inputs": [
        {
          "internalType": "address",
          "name": "_entitlement",
          "type": "address"
        },
        {
          "internalType": "bool",
          "name": "_whitelist",
          "type": "bool"
        }
      ],
      "name": "setEntitlement",
      "outputs": [],
      "stateMutability": "nonpayable",
      "type": "function"
    },
    {
      "inputs": [
        {
          "internalType": "uint256",
          "name": "_roleId",
          "type": "uint256"
        }
      ],
      "name": "setOwnerRoleId",
      "outputs": [],
      "stateMutability": "nonpayable",
      "type": "function"
    },
    {
      "inputs": [
        {
          "internalType": "bool",
          "name": "_disabled",
          "type": "bool"
        }
      ],
      "name": "setSpaceAccess",
      "outputs": [],
      "stateMutability": "nonpayable",
      "type": "function"
    },
    {
      "inputs": [],
      "name": "token",
      "outputs": [
        {
          "internalType": "address",
          "name": "",
          "type": "address"
        }
      ],
      "stateMutability": "view",
      "type": "function"
    },
    {
      "inputs": [],
      "name": "tokenId",
      "outputs": [
        {
          "internalType": "uint256",
          "name": "",
          "type": "uint256"
        }
      ],
      "stateMutability": "view",
      "type": "function"
    },
    {
      "inputs": [
        {
          "internalType": "string",
          "name": "_channelId",
          "type": "string"
        },
        {
          "internalType": "string",
          "name": "_channelName",
          "type": "string"
        }
      ],
      "name": "updateChannel",
      "outputs": [],
      "stateMutability": "nonpayable",
      "type": "function"
    },
    {
      "inputs": [
        {
          "internalType": "uint256",
          "name": "_roleId",
          "type": "uint256"
        },
        {
          "internalType": "string",
          "name": "_roleName",
          "type": "string"
        }
      ],
      "name": "updateRole",
      "outputs": [],
      "stateMutability": "nonpayable",
      "type": "function"
    },
    {
      "inputs": [
        {
          "internalType": "address",
          "name": "newImplementation",
          "type": "address"
        }
      ],
      "name": "upgradeTo",
      "outputs": [],
      "stateMutability": "nonpayable",
      "type": "function"
    },
    {
      "inputs": [
        {
          "internalType": "address",
          "name": "newImplementation",
          "type": "address"
        },
        {
          "internalType": "bytes",
          "name": "data",
          "type": "bytes"
        }
      ],
      "name": "upgradeToAndCall",
      "outputs": [],
      "stateMutability": "payable",
      "type": "function"
    }
  ],
  "bytecode": {
    "object": "0x60a0604052306080523480156200001557600080fd5b506200002062000026565b620000e7565b600054610100900460ff1615620000935760405162461bcd60e51b815260206004820152602760248201527f496e697469616c697a61626c653a20636f6e747261637420697320696e697469604482015266616c697a696e6760c81b606482015260840160405180910390fd5b60005460ff90811614620000e5576000805460ff191660ff9081179091556040519081527f7f26b83ff96e1f2b6a682f133852f6798a09c465da95921460cefb38474024989060200160405180910390a15b565b60805161464d6200011f60003960008181610ce701528181610d3001528181610fff0152818161103f01526113e9015261464d6000f3fe6080604052600436106102515760003560e01c80638da5cb5b11610139578063dba81864116100b6578063f28f9b561161007a578063f28f9b561461072d578063f3b96ab41461074d578063f3ce6a5b1461076d578063f740bb6b1461078d578063fa6433c5146107ad578063fc0c546a146107dd57600080fd5b8063dba818641461068f578063ddf96358146106af578063e5894ef4146106c5578063e5949b5d146106f3578063ee0708051461071357600080fd5b8063b4264233116100fd578063b4264233146105f9578063ba201ba814610619578063baaf3d5714610639578063cea632bc14610659578063d1a6a9611461067957600080fd5b80638da5cb5b1461054a5780638fcd793d146105775780639025e64c1461059757806392691821146105ac578063ac9650d8146105cc57600080fd5b8063487dc38c116101d25780635de151b8116101965780635de151b81461045e57806366fb345c1461047e578063703511f81461049e57806371061398146104cb578063784c872b146104ed5780637f8d06d01461051a57600080fd5b8063487dc38c146103d45780634999ab16146103f65780634f1ef2861461041657806351f83cea1461042957806352d1902d1461044957600080fd5b806332e704cc1161021957806332e704cc1461032757806334a1dd26146103475780633659cfe61461036757806342486e4914610387578063446dc22e146103b457600080fd5b806306fdde0314610256578063129ab3c81461028157806317d70f7c146102b15780631dea616a146102d557806320759f9e146102f7575b600080fd5b34801561026257600080fd5b5061026b6107fd565b604051610278919061359c565b60405180910390f35b34801561028d57600080fd5b506102a161029c3660046135af565b61088b565b60405161027894939291906135c8565b3480156102bd57600080fd5b506102c7609c5481565b604051908152602001610278565b3480156102e157600080fd5b506102f56102f0366004613666565b610940565b005b34801561030357600080fd5b506103176103123660046136c2565b610a71565b6040519015158152602001610278565b34801561033357600080fd5b506102f56103423660046137cb565b610ae7565b34801561035357600080fd5b506102f5610362366004613811565b610bfa565b34801561037357600080fd5b506102f5610382366004613879565b610cdd565b34801561039357600080fd5b506103a76103a23660046135af565b610dc5565b6040516102789190613896565b3480156103c057600080fd5b506102f56103cf3660046138e8565b610e27565b3480156103e057600080fd5b506103e9610e5f565b6040516102789190613905565b34801561040257600080fd5b506102f56104113660046135af565b610ec1565b6102f5610424366004613946565b610ff5565b34801561043557600080fd5b506102c76104443660046139a2565b6110c5565b34801561045557600080fd5b506102c76113dc565b34801561046a57600080fd5b506102f5610479366004613a84565b61148f565b34801561048a57600080fd5b506102f56104993660046137cb565b611555565b3480156104aa57600080fd5b506104be6104b93660046135af565b6116d0565b6040516102789190613ada565b3480156104d757600080fd5b506104e06117c8565b6040516102789190613b49565b3480156104f957600080fd5b5061050d6105083660046135af565b611936565b6040516102789190613bab565b34801561052657600080fd5b50610317610535366004613879565b609d6020526000908152604090205460ff1681565b34801561055657600080fd5b5061055f611a0c565b6040516001600160a01b039091168152602001610278565b34801561058357600080fd5b506102c7610592366004613cc1565b611a83565b3480156105a357600080fd5b5061026b611d31565b3480156105b857600080fd5b506102f56105c73660046135af565b611d3e565b3480156105d857600080fd5b506105ec6105e7366004613dad565b611e75565b6040516102789190613e21565b34801561060557600080fd5b506103a76106143660046135af565b611f93565b34801561062557600080fd5b506102f5610634366004613e76565b611ff3565b34801561064557600080fd5b506102f5610654366004613666565b6120cc565b34801561066557600080fd5b50610317610674366004613eb2565b6121c5565b34801561068557600080fd5b506102c7609a5481565b34801561069b57600080fd5b506102f56106aa366004613f36565b612268565b3480156106bb57600080fd5b506102c760a15481565b3480156106d157600080fd5b506106e56106e03660046135af565b6124ca565b604051610278929190613f83565b3480156106ff57600080fd5b506102c761070e3660046135af565b61256f565b34801561071f57600080fd5b506099546103179060ff1681565b34801561073957600080fd5b5061055f6107483660046135af565b612590565b34801561075957600080fd5b506102f5610768366004613f9c565b6125ba565b34801561077957600080fd5b506102f5610788366004613fca565b612690565b34801561079957600080fd5b506102f56107a83660046137cb565b612875565b3480156107b957600080fd5b506103176107c8366004613879565b609e6020526000908152604090205460ff1681565b3480156107e957600080fd5b50609b5461055f906001600160a01b031681565b6097805461080a906140c9565b80601f0160208091040260200160405190810160405280929190818152602001828054610836906140c9565b80156108835780601f1061085857610100808354040283529160200191610883565b820191906000526020600020905b81548152906001019060200180831161086657829003601f168201915b505050505081565b60a4602052600090815260409020805481906108a6906140c9565b80601f01602080910402602001604051908101604052809291908181526020018280546108d2906140c9565b801561091f5780601f106108f45761010080835404028352916020019161091f565b820191906000526020600020905b81548152906001019060200180831161090257829003601f168201915b50505050600183015460028401546003909401549293909290915060ff1684565b6109a284848080601f0160208091040260200160405190810160405280939291908181526020018383808284376000920191909152505060408051808201909152601681526000805160206145d183398151915260208201529150612a5c9050565b6001600160a01b0382166000908152609d602052604090205460ff166109db5760405163c1ef36f360e01b815260040160405180910390fd5b600081815260a260205260408120549003610a095760405163b810dc5d60e01b815260040160405180910390fd5b60405163c513be7760e01b81526001600160a01b0383169063c513be7790610a3990879087908690600401614126565b600060405180830381600087803b158015610a5357600080fd5b505af1158015610a67573d6000803e3d6000fd5b5050505050505050565b6000805b60a054811015610adf57610ac360405180602001604052806000815250868686604051602001610aa692919061414a565b604051602081830303815290604052610abe9061415a565b612ab0565b15610acd57600191505b80610ad781614194565b915050610a75565b509392505050565b610b23604051806020016040528060008152506040518060400160405280601681526020016000805160206145d1833981519152815250612a5c565b609a548203610b4557604051631eb49d6d60e11b815260040160405180910390fd5b600082815260a260205260408120549003610b735760405163b810dc5d60e01b815260040160405180910390fd5b8051600003610b9557604051630e52390960e41b815260040160405180910390fd5b600082815260a260205260409020600101610bb082826141f3565b5081336001600160a01b03167ff3c55faf0b13ffa681c984baddbb8ef7638e514188ea19bd6461d7f87b9c7953836098604051610bee92919061432f565b60405180910390a35050565b610c3c604051806020016040528060008152506040518060400160405280601181526020017041646452656d6f76654368616e6e656c7360781b815250612a5c565b60008383604051602001610c5192919061414a565b60408051601f198184030181529181528151602092830120600081815260a4909352908220600101549092509003610c9c57604051636ddd9da960e01b815260040160405180910390fd5b8151600003610cbe57604051631eb49d6d60e11b815260040160405180910390fd5b600081815260a460205260409020610cd683826141f3565b5050505050565b6001600160a01b037f0000000000000000000000000000000000000000000000000000000000000000163003610d2e5760405162461bcd60e51b8152600401610d2590614354565b60405180910390fd5b7f00000000000000000000000000000000000000000000000000000000000000006001600160a01b0316610d776000805160206145b1833981519152546001600160a01b031690565b6001600160a01b031614610d9d5760405162461bcd60e51b8152600401610d25906143a0565b610da681612b69565b60408051600080825260208201909252610dc291839190612b9f565b50565b6000818152609f6020908152604091829020805483518184028101840190945280845260609392830182828015610e1b57602002820191906000526020600020905b815481526020019060010190808311610e07575b50505050509050919050565b610e2f612d0f565b610e4c57604051631eb49d6d60e11b815260040160405180910390fd5b6099805460ff1916911515919091179055565b606060a0805480602002602001604051908101604052809291908181526020018280548015610eb757602002820191906000526020600020905b81546001600160a01b03168152600190910190602001808311610e99575b5050505050905090565b610ef7604051806020016040528060008152506040518060400160405280600581526020016427bbb732b960d91b815250612a5c565b600081815260a260205260408120549003610f255760405163b810dc5d60e01b815260040160405180910390fd5b6000805b600083815260a36020526040902054811015610fd0576040518060400160405280600581526020016427bbb732b960d91b815250604051602001610f6d91906143ec565b604051602081830303815290604052610f859061415a565b600084815260a360205260409020805483908110610fa557610fa5614408565b906000526020600020015403610fbe5760019150610fd0565b80610fc881614194565b915050610f29565b5080610fef57604051633e74bd6360e21b815260040160405180910390fd5b50609a55565b6001600160a01b037f000000000000000000000000000000000000000000000000000000000000000016300361103d5760405162461bcd60e51b8152600401610d2590614354565b7f00000000000000000000000000000000000000000000000000000000000000006001600160a01b03166110866000805160206145b1833981519152546001600160a01b031690565b6001600160a01b0316146110ac5760405162461bcd60e51b8152600401610d25906143a0565b6110b582612b69565b6110c182826001612b9f565b5050565b6000611109604051806020016040528060008152506040518060400160405280601181526020017041646452656d6f76654368616e6e656c7360781b815250612a5c565b60008360405160200161111c91906143ec565b60408051601f198184030181529181528151602092830120600081815260a49093529120600101549091501561116557604051630139324b60e41b815260040160405180910390fd5b604080516080810182528681526020808201849052428284015260006060830181905284815260a490915291909120815181906111a290826141f3565b506020820151600182810191909155604083015160028301556060909201516003909101805460ff191691151591909117905560a58054918201815560009081527fb29a2b3b6f2ff1b765777a231725941da5072cc4fcc30ac4a2ce09706e8ddeff9091018290555b60a0548110156113d157600060a0828154811061122a5761122a614408565b600091825260209091200154609a5460405163c513be7760e01b81526001600160a01b039092169250829163c513be779161126a918a919060040161441e565b600060405180830381600087803b15801561128457600080fd5b505af1158015611298573d6000803e3d6000fd5b5050505060005b85518110156113bc57609a548682815181106112bd576112bd614408565b602002602001015103156113aa5760a260008783815181106112e1576112e1614408565b602002602001015181526020019081526020016000206000015460000361131b5760405163b810dc5d60e01b815260040160405180910390fd5b816001600160a01b031663c513be778888848151811061133d5761133d614408565b60200260200101516040518363ffffffff1660e01b815260040161136292919061441e565b600060405180830381600087803b15801561137c57600080fd5b505af192505050801561138d575060015b6113aa5760405163d9afe50760e01b815260040160405180910390fd5b806113b481614194565b91505061129f565b505080806113c990614194565b91505061120b565b5090505b9392505050565b6000306001600160a01b037f0000000000000000000000000000000000000000000000000000000000000000161461147c5760405162461bcd60e51b815260206004820152603860248201527f555550535570677261646561626c653a206d757374206e6f742062652063616c60448201527f6c6564207468726f7567682064656c656761746563616c6c00000000000000006064820152608401610d25565b506000805160206145b183398151915290565b6114d1604051806020016040528060008152506040518060400160405280601181526020017041646452656d6f76654368616e6e656c7360781b815250612a5c565b600083836040516020016114e692919061414a565b60408051601f198184030181529181528151602092830120600081815260a490935290822060010154909250900361153157604051636ddd9da960e01b815260040160405180910390fd5b600090815260a460205260409020600301805460ff19169115159190911790555050565b611591604051806020016040528060008152506040518060400160405280601681526020016000805160206145d1833981519152815250612a5c565b6115b8816040518060400160405280600581526020016427bbb732b960d91b815250612d96565b156115d657604051631eb49d6d60e11b815260040160405180910390fd5b600082815260a2602052604081205490036116045760405163b810dc5d60e01b815260040160405180910390fd5b60008160405160200161161791906143ec565b60405160208183030381529060405261162f9061415a565b905060005b600084815260a360205260409020548110156116a857600084815260a36020526040902080548391908390811061166d5761166d614408565b90600052602060002001540361169657604051636571d65f60e01b815260040160405180910390fd5b806116a081614194565b915050611634565b50600092835260a3602090815260408420805460018101825590855293209092019190915550565b604080516080810182526060808252600060208301819052928201839052810191909152600082815260a460205260409081902081516080810190925280548290829061171c906140c9565b80601f0160208091040260200160405190810160405280929190818152602001828054611748906140c9565b80156117955780601f1061176a57610100808354040283529160200191611795565b820191906000526020600020905b81548152906001019060200180831161177857829003601f168201915b5050509183525050600182015460208201526002820154604082015260039091015460ff16151560609091015292915050565b6060600060a1546001600160401b038111156117e6576117e6613716565b60405190808252806020026020018201604052801561182c57816020015b6040805180820190915260008152606060208201528152602001906001900390816118045790505b50905060005b60a1548110156119305760a2600061184b836001614440565b81526020019081526020016000206040518060400160405290816000820154815260200160018201805461187e906140c9565b80601f01602080910402602001604051908101604052809291908181526020018280546118aa906140c9565b80156118f75780601f106118cc576101008083540402835291602001916118f7565b820191906000526020600020905b8154815290600101906020018083116118da57829003601f168201915b50505050508152505082828151811061191257611912614408565b6020026020010181905250808061192890614194565b915050611832565b50919050565b60408051808201909152600081526060602082015260a2600083815260200190815260200160002060405180604001604052908160008201548152602001600182018054611983906140c9565b80601f01602080910402602001604051908101604052809291908181526020018280546119af906140c9565b80156119fc5780601f106119d1576101008083540402835291602001916119fc565b820191906000526020600020905b8154815290600101906020018083116119df57829003601f168201915b5050505050815250509050919050565b609b54609c546040516331a9108f60e11b815260048101919091526000916001600160a01b031690636352211e90602401602060405180830381865afa158015611a5a573d6000803e3d6000fd5b505050506040513d601f19601f82011682018060405250810190611a7e9190614453565b905090565b6000611ac1604051806020016040528060008152506040518060400160405280601681526020016000805160206145d1833981519152815250612a5c565b600060a160008154611ad290614194565b91829055506040805180820182528281526020808201898152600085815260a2909252929020815181559151929350918291906001820190611b1490826141f3565b5090505060005b8551811015611c0857611b2c612d0f565b158015611b745750611b74868281518110611b4957611b49614408565b60200260200101516040518060400160405280600581526020016427bbb732b960d91b815250612d96565b15611b92576040516341d2e1af60e01b815260040160405180910390fd5b6000868281518110611ba657611ba6614408565b6020026020010151604051602001611bbe91906143ec565b604051602081830303815290604052611bd69061415a565b600085815260a36020908152604082208054600181018255908352912001555080611c0081614194565b915050611b1b565b5060005b8451811015611ce2576000858281518110611c2957611c29614408565b60200260200101516000015190506000868381518110611c4b57611c4b614408565b602002602001015160200151905060006001600160a01b0316826001600160a01b03161480611c7957508051155b15611c85575050611cd0565b6001600160a01b0382166000908152609d602052604081205460ff1615159003611cc25760405163c1ef36f360e01b815260040160405180910390fd5b611ccd858383612df0565b50505b80611cda81614194565b915050611c0c565b5081336001600160a01b03167f39772407c6dd2e83adbd292cdfa17a6817c9a7500e56cfe57b7a82d797f8d39b886098604051611d2092919061432f565b60405180910390a350949350505050565b6098805461080a906140c9565b611d7a604051806020016040528060008152506040518060400160405280601681526020016000805160206145d1833981519152815250612a5c565b609a548103611d9c57604051631eb49d6d60e11b815260040160405180910390fd5b600081815260a260205260408120549003611dca5760405163b810dc5d60e01b815260040160405180910390fd5b6000818152609f602052604090205415611df757604051633764405360e11b815260040160405180910390fd5b600081815260a26020526040812081815590611e1660018301826134df565b5050600081815260a360205260408120611e2f91613519565b80336001600160a01b03167f1d5667a301e36f2d5b1ee32b7f187b0adb46c706297242fa945d3fed1e7f8a196098604051611e6a9190614470565b60405180910390a350565b6060816001600160401b03811115611e8f57611e8f613716565b604051908082528060200260200182016040528015611ec257816020015b6060815260200190600190039081611ead5790505b50905060005b82811015611f8c5760008030868685818110611ee657611ee6614408565b9050602002810190611ef89190614483565b604051611f0692919061414a565b600060405180830381855af49150503d8060008114611f41576040519150601f19603f3d011682016040523d82523d6000602084013e611f46565b606091505b509150915081611f5957611f5981612f60565b80848481518110611f6c57611f6c614408565b602002602001018190525050508080611f8490614194565b915050611ec8565b5092915050565b600081815260a36020908152604091829020805483518184028101840190945280845260609392830182828015610e1b5760200282019190600052602060002090815481526020019060010190808311610e075750505050509050919050565b61202f604051806020016040528060008152506040518060400160405280601681526020016000805160206145d1833981519152815250612a5c565b80516001600160a01b03166000908152609d602052604090205460ff166120695760405163c1ef36f360e01b815260040160405180910390fd5b600082815260a2602052604081205490036120975760405163b810dc5d60e01b815260040160405180910390fd5b609a5482036120b957604051631eb49d6d60e11b815260040160405180910390fd5b6110c18282600001518360200151612df0565b61212e84848080601f0160208091040260200160405190810160405280939291908181526020018383808284376000920191909152505060408051808201909152601681526000805160206145d183398151915260208201529150612a5c9050565b6001600160a01b0382166000908152609d602052604090205460ff166121675760405163c1ef36f360e01b815260040160405180910390fd5b600081815260a2602052604081205490036121955760405163b810dc5d60e01b815260040160405180910390fd5b604051637997c1e760e11b81526001600160a01b0383169063f32f83ce90610a3990879087908690600401614126565b60008481036121e757604051630e52390960e41b815260040160405180910390fd5b60005b60a05481101561225e5761224287878080601f01602080910402602001604051908101604052809392919081815260200183838082843760009201919091525050604051899250610aa691508890889060200161414a565b1561224c57600191505b8061225681614194565b9150506121ea565b5095945050505050565b6122a4604051806020016040528060008152506040518060400160405280601681526020016000805160206145d1833981519152815250612a5c565b609a5482036122c657604051631eb49d6d60e11b815260040160405180910390fd5b609d60006122d76020840184613879565b6001600160a01b0316815260208101919091526040016000205460ff166123115760405163c1ef36f360e01b815260040160405180910390fd5b600082815260a26020526040812054900361233f5760405163b810dc5d60e01b815260040160405180910390fd5b60008261234f6020840184614483565b604051602001612361939291906144c9565b60408051601f1981840301815291815281516020928301206000868152609f909352908220909250905b815481101561243f578181815481106123a6576123a6614408565b9060005260206000200154830361242d57815482906123c7906001906144e3565b815481106123d7576123d7614408565b90600052602060002001548282815481106123f4576123f4614408565b906000526020600020018190555081805480612412576124126144f6565b6001900381819060005260206000200160009055905561243f565b8061243781614194565b91505061238b565b5061244d6020840184613879565b6001600160a01b031663fa6d1adf856124696020870187614483565b6040518463ffffffff1660e01b81526004016124879392919061450c565b6020604051808303816000875af11580156124a6573d6000803e3d6000fd5b505050506040513d601f19601f82011682018060405250810190610cd69190614526565b60a260205260009081526040902080546001820180549192916124ec906140c9565b80601f0160208091040260200160405190810160405280929190818152602001828054612518906140c9565b80156125655780601f1061253a57610100808354040283529160200191612565565b820191906000526020600020905b81548152906001019060200180831161254857829003601f168201915b5050505050905082565b60a5818154811061257f57600080fd5b600091825260209091200154905081565b60a081815481106125a057600080fd5b6000918252602090912001546001600160a01b0316905081565b6125f6604051806020016040528060008152506040518060400160405280601681526020016000805160206145d1833981519152815250612a5c565b6125ff8261302d565b80801561262457506001600160a01b0382166000908152609d602052604090205460ff165b156126425760405163186abc9b60e01b815260040160405180910390fd5b8015801561266857506001600160a01b0382166000908152609e602052604090205460ff165b1561268657604051631eb49d6d60e11b815260040160405180910390fd5b6110c182826130be565b600054610100900460ff16158080156126b05750600054600160ff909116105b806126ca5750303b1580156126ca575060005460ff166001145b61272d5760405162461bcd60e51b815260206004820152602e60248201527f496e697469616c697a61626c653a20636f6e747261637420697320616c72656160448201526d191e481a5b9a5d1a585b1a5e995960921b6064820152608401610d25565b6000805460ff191660011790558015612750576000805461ff0019166101001790555b61275861323f565b61276061323f565b609761276c87826141f3565b50609861277986826141f3565b50609b80546001600160a01b0319166001600160a01b038516179055609c82905560005b8451811015612826576127ca8582815181106127bb576127bb614408565b602002602001015160016130be565b6001609e60008784815181106127e2576127e2614408565b6020908102919091018101516001600160a01b03168252810191909152604001600020805460ff19169115159190911790558061281e81614194565b91505061279d565b50801561286d576000805461ff0019169055604051600181527f7f26b83ff96e1f2b6a682f133852f6798a09c465da95921460cefb38474024989060200160405180910390a15b505050505050565b6128b1604051806020016040528060008152506040518060400160405280601681526020016000805160206145d1833981519152815250612a5c565b6128d8816040518060400160405280600581526020016427bbb732b960d91b815250612d96565b156128f657604051631eb49d6d60e11b815260040160405180910390fd5b600082815260a2602052604081205490036129245760405163b810dc5d60e01b815260040160405180910390fd5b60008160405160200161293791906143ec565b60405160208183030381529060405261294f9061415a565b905060005b600084815260a36020526040902054811015612a5657600084815260a36020526040902080548391908390811061298d5761298d614408565b906000526020600020015403612a4457600084815260a36020526040902080546129b9906001906144e3565b815481106129c9576129c9614408565b906000526020600020015460a3600086815260200190815260200160002082815481106129f8576129f8614408565b906000526020600020018190555060a36000858152602001908152602001600020805480612a2857612a286144f6565b6001900381819060005260206000200160009055905550505050565b80612a4e81614194565b915050612954565b50505050565b612a64612d0f565b80612a8e575060995460ff16158015612a8e5750612a8e823383604051602001610aa691906143ec565b15612a97575050565b604051631eb49d6d60e11b815260040160405180910390fd5b6000805b60a054811015610adf5760a08181548110612ad157612ad1614408565b60009182526020909120015460405162169d5560e31b81526001600160a01b039091169062b4eaa890612b0c9088908890889060040161453f565b602060405180830381865afa158015612b29573d6000803e3d6000fd5b505050506040513d601f19601f82011682018060405250810190612b4d919061456d565b15612b5757600191505b80612b6181614194565b915050612ab4565b610dc2604051806020016040528060008152506040518060400160405280600581526020016427bbb732b960d91b815250612a5c565b7f4910fdfa16fed3260ed0e7147f7cc6da11a60208b5b9406d12a635614ffd91435460ff1615612bd757612bd2836132ac565b505050565b826001600160a01b03166352d1902d6040518163ffffffff1660e01b8152600401602060405180830381865afa925050508015612c31575060408051601f3d908101601f19168201909252612c2e91810190614526565b60015b612c945760405162461bcd60e51b815260206004820152602e60248201527f45524331393637557067726164653a206e657720696d706c656d656e7461746960448201526d6f6e206973206e6f74205555505360901b6064820152608401610d25565b6000805160206145b18339815191528114612d035760405162461bcd60e51b815260206004820152602960248201527f45524331393637557067726164653a20756e737570706f727465642070726f786044820152681a58589b195555525160ba1b6064820152608401610d25565b50612bd2838383613348565b600033609b54609c546040516331a9108f60e11b815260048101919091526001600160a01b039283169290911690636352211e90602401602060405180830381865afa158015612d63573d6000803e3d6000fd5b505050506040513d601f19601f82011682018060405250810190612d879190614453565b6001600160a01b031614905090565b600081604051602001612da991906143ec565b6040516020818303038152906040528051906020012083604051602001612dd091906143ec565b604051602081830303815290604052805190602001201490505b92915050565b60008382604051602001612e0592919061458a565b60408051601f1981840301815282825280516020918201206000888152609f835283812080548085028701850190955284865291955093929091830182828015612e6e57602002820191906000526020600020905b815481526020019060010190808311612e5a575b5050505050905060005b8151811015612ecc5782828281518110612e9457612e94614408565b602002602001015103612eba5760405163c5c9ad6760e01b815260040160405180910390fd5b80612ec481614194565b915050612e78565b506000858152609f602090815260408083208054600181018255908452919092200183905551633be2f95d60e21b81526001600160a01b0385169063ef8be57490612f1d9088908790600401613f83565b6020604051808303816000875af1158015612f3c573d6000803e3d6000fd5b505050506040513d601f19601f8201168201806040525081019061286d9190614526565b600481511015612fa55760405162461bcd60e51b815260206004820152601060248201526f1d5b9a185b991b1959081c995d995c9d60821b6044820152606401610d25565b602081015163b1b7848f60e01b6001600160e01b031982160161302457604080518082018252600e81526d70616e69636b65643a2030785f5f60901b602082018181526024860151600481811c600f908116603090810160081b9184160117909317909152925162461bcd60e51b8152919291610d259184910161359c565b81518060208401fd5b6040516301ffc9a760e01b8152630511738b60e31b60048201526001600160a01b038216906301ffc9a790602401602060405180830381865afa158015613078573d6000803e3d6000fd5b505050506040513d601f19601f8201168201806040525081019061309c919061456d565b1515600003610dc257604051636d9250f160e11b815260040160405180910390fd5b6001600160a01b0382166000908152609d60205260409020805460ff1916821580159190911790915561313c5760a080546001810182556000919091527f78fdc8d422c49ced035a9edf18d00d3c6a8d81df210f3e5e448e045e77b41e880180546001600160a01b0384166001600160a01b03199091161790555050565b60005b60a054811015612bd25760a0818154811061315c5761315c614408565b6000918252602090912001546001600160a01b039081169084160361322d5760a0805461318b906001906144e3565b8154811061319b5761319b614408565b60009182526020909120015460a080546001600160a01b0390921691839081106131c7576131c7614408565b9060005260206000200160006101000a8154816001600160a01b0302191690836001600160a01b0316021790555060a0805480613206576132066144f6565b600082815260209020810160001990810180546001600160a01b0319169055019055505050565b8061323781614194565b91505061313f565b600054610100900460ff166132aa5760405162461bcd60e51b815260206004820152602b60248201527f496e697469616c697a61626c653a20636f6e7472616374206973206e6f74206960448201526a6e697469616c697a696e6760a81b6064820152608401610d25565b565b6001600160a01b0381163b6133195760405162461bcd60e51b815260206004820152602d60248201527f455243313936373a206e657720696d706c656d656e746174696f6e206973206e60448201526c1bdd08184818dbdb9d1c9858dd609a1b6064820152608401610d25565b6000805160206145b183398151915280546001600160a01b0319166001600160a01b0392909216919091179055565b6133518361336d565b60008251118061335e5750805b15612bd257612a5683836133ad565b613376816132ac565b6040516001600160a01b038216907fbc7cd75a20ee27fd9adebab32041f755214dbc6bffa90cc0225b39da2e5c2d3b90600090a250565b60606001600160a01b0383163b6134155760405162461bcd60e51b815260206004820152602660248201527f416464726573733a2064656c65676174652063616c6c20746f206e6f6e2d636f6044820152651b9d1c9858dd60d21b6064820152608401610d25565b600080846001600160a01b03168460405161343091906143ec565b600060405180830381855af49150503d806000811461346b576040519150601f19603f3d011682016040523d82523d6000602084013e613470565b606091505b509150915061349882826040518060600160405280602781526020016145f1602791396134a1565b95945050505050565b606083156134b05750816113d5565b6113d583838151156134c55781518083602001fd5b8060405162461bcd60e51b8152600401610d25919061359c565b5080546134eb906140c9565b6000825580601f106134fb575050565b601f016020900490600052602060002090810190610dc29190613533565b5080546000825590600052602060002090810190610dc291905b5b808211156135485760008155600101613534565b5090565b60005b8381101561356757818101518382015260200161354f565b50506000910152565b6000815180845261358881602086016020860161354c565b601f01601f19169290920160200192915050565b6020815260006113d56020830184613570565b6000602082840312156135c157600080fd5b5035919050565b6080815260006135db6080830187613570565b60208301959095525060408101929092521515606090910152919050565b60008083601f84011261360b57600080fd5b5081356001600160401b0381111561362257600080fd5b60208301915083602082850101111561363a57600080fd5b9250929050565b6001600160a01b0381168114610dc257600080fd5b803561366181613641565b919050565b6000806000806060858703121561367c57600080fd5b84356001600160401b0381111561369257600080fd5b61369e878288016135f9565b90955093505060208501356136b281613641565b9396929550929360400135925050565b6000806000604084860312156136d757600080fd5b83356136e281613641565b925060208401356001600160401b038111156136fd57600080fd5b613709868287016135f9565b9497909650939450505050565b634e487b7160e01b600052604160045260246000fd5b604051601f8201601f191681016001600160401b038111828210171561375457613754613716565b604052919050565b600082601f83011261376d57600080fd5b81356001600160401b0381111561378657613786613716565b613799601f8201601f191660200161372c565b8181528460208386010111156137ae57600080fd5b816020850160208301376000918101602001919091529392505050565b600080604083850312156137de57600080fd5b8235915060208301356001600160401b038111156137fb57600080fd5b6138078582860161375c565b9150509250929050565b60008060006040848603121561382657600080fd5b83356001600160401b038082111561383d57600080fd5b613849878388016135f9565b9095509350602086013591508082111561386257600080fd5b5061386f8682870161375c565b9150509250925092565b60006020828403121561388b57600080fd5b81356113d581613641565b6020808252825182820181905260009190848201906040850190845b818110156138ce578351835292840192918401916001016138b2565b50909695505050505050565b8015158114610dc257600080fd5b6000602082840312156138fa57600080fd5b81356113d5816138da565b6020808252825182820181905260009190848201906040850190845b818110156138ce5783516001600160a01b031683529284019291840191600101613921565b6000806040838503121561395957600080fd5b823561396481613641565b915060208301356001600160401b038111156137fb57600080fd5b60006001600160401b0382111561399857613998613716565b5060051b60200190565b6000806000606084860312156139b757600080fd5b83356001600160401b03808211156139ce57600080fd5b6139da8783880161375c565b94506020915081860135818111156139f157600080fd5b6139fd8882890161375c565b945050604086013581811115613a1257600080fd5b86019050601f81018713613a2557600080fd5b8035613a38613a338261397f565b61372c565b81815260059190911b82018301908381019089831115613a5757600080fd5b928401925b82841015613a7557833582529284019290840190613a5c565b80955050505050509250925092565b600080600060408486031215613a9957600080fd5b83356001600160401b03811115613aaf57600080fd5b613abb868287016135f9565b9094509250506020840135613acf816138da565b809150509250925092565b602081526000825160806020840152613af660a0840182613570565b905060208401516040840152604084015160608401526060840151151560808401528091505092915050565b805182526000602082015160406020850152613b416040850182613570565b949350505050565b6000602080830181845280855180835260408601915060408160051b870101925083870160005b82811015613b9e57603f19888603018452613b8c858351613b22565b94509285019290850190600101613b70565b5092979650505050505050565b6020815260006113d56020830184613b22565b600060408284031215613bd057600080fd5b604051604081016001600160401b038282108183111715613bf357613bf3613716565b8160405282935084359150613c0782613641565b90825260208401359080821115613c1d57600080fd5b50613c2a8582860161375c565b6020830152505092915050565b600082601f830112613c4857600080fd5b81356020613c58613a338361397f565b82815260059290921b84018101918181019086841115613c7757600080fd5b8286015b84811015613cb65780356001600160401b03811115613c9a5760008081fd5b613ca88986838b0101613bbe565b845250918301918301613c7b565b509695505050505050565b600080600060608486031215613cd657600080fd5b83356001600160401b0380821115613ced57600080fd5b613cf98783880161375c565b9450602091508186013581811115613d1057600080fd5b8601601f81018813613d2157600080fd5b8035613d2f613a338261397f565b81815260059190911b8201840190848101908a831115613d4e57600080fd5b8584015b83811015613d8657803586811115613d6a5760008081fd5b613d788d898389010161375c565b845250918601918601613d52565b5096505050506040860135915080821115613da057600080fd5b5061386f86828701613c37565b60008060208385031215613dc057600080fd5b82356001600160401b0380821115613dd757600080fd5b818501915085601f830112613deb57600080fd5b813581811115613dfa57600080fd5b8660208260051b8501011115613e0f57600080fd5b60209290920196919550909350505050565b6000602080830181845280855180835260408601915060408160051b870101925083870160005b82811015613b9e57603f19888603018452613e64858351613570565b94509285019290850190600101613e48565b60008060408385031215613e8957600080fd5b8235915060208301356001600160401b03811115613ea657600080fd5b61380785828601613bbe565b600080600080600060608688031215613eca57600080fd5b85356001600160401b0380821115613ee157600080fd5b613eed89838a016135f9565b909750955060208801359150613f0282613641565b90935060408701359080821115613f1857600080fd5b50613f25888289016135f9565b969995985093965092949392505050565b60008060408385031215613f4957600080fd5b8235915060208301356001600160401b03811115613f6657600080fd5b830160408186031215613f7857600080fd5b809150509250929050565b828152604060208201526000613b416040830184613570565b60008060408385031215613faf57600080fd5b8235613fba81613641565b91506020830135613f78816138da565b600080600080600060a08688031215613fe257600080fd5b85356001600160401b0380821115613ff957600080fd5b61400589838a0161375c565b965060209150818801358181111561401c57600080fd5b6140288a828b0161375c565b96505060408801358181111561403d57600080fd5b88019050601f8101891361405057600080fd5b803561405e613a338261397f565b81815260059190911b8201830190838101908b83111561407d57600080fd5b928401925b828410156140a457833561409581613641565b82529284019290840190614082565b80975050505050506140b860608701613656565b949793965091946080013592915050565b600181811c908216806140dd57607f821691505b60208210810361193057634e487b7160e01b600052602260045260246000fd5b81835281816020850137506000828201602090810191909152601f909101601f19169091010190565b60408152600061413a6040830185876140fd565b9050826020830152949350505050565b8183823760009101908152919050565b805160208083015191908110156119305760001960209190910360031b1b16919050565b634e487b7160e01b600052601160045260246000fd5b6000600182016141a6576141a661417e565b5060010190565b601f821115612bd257600081815260208120601f850160051c810160208610156141d45750805b601f850160051c820191505b8181101561286d578281556001016141e0565b81516001600160401b0381111561420c5761420c613716565b6142208161421a84546140c9565b846141ad565b602080601f831160018114614255576000841561423d5750858301515b600019600386901b1c1916600185901b17855561286d565b600085815260208120601f198616915b8281101561428457888601518255948401946001909101908401614265565b50858210156142a25787850151600019600388901b60f8161c191681555b5050505050600190811b01905550565b600081546142bf816140c9565b8085526020600183811680156142dc57600181146142f657614324565b60ff1985168884015283151560051b880183019550614324565b866000528260002060005b8581101561431c5781548a8201860152908301908401614301565b890184019650505b505050505092915050565b6040815260006143426040830185613570565b828103602084015261349881856142b2565b6020808252602c908201527f46756e6374696f6e206d7573742062652063616c6c6564207468726f7567682060408201526b19195b1959d85d1958d85b1b60a21b606082015260800190565b6020808252602c908201527f46756e6374696f6e206d7573742062652063616c6c6564207468726f7567682060408201526b6163746976652070726f787960a01b606082015260800190565b600082516143fe81846020870161354c565b9190910192915050565b634e487b7160e01b600052603260045260246000fd5b6040815260006144316040830185613570565b90508260208301529392505050565b80820180821115612dea57612dea61417e565b60006020828403121561446557600080fd5b81516113d581613641565b6020815260006113d560208301846142b2565b6000808335601e1984360301811261449a57600080fd5b8301803591506001600160401b038211156144b457600080fd5b60200191503681900382131561363a57600080fd5b838152818360208301376000910160200190815292915050565b81810381811115612dea57612dea61417e565b634e487b7160e01b600052603160045260246000fd5b8381526040602082015260006134986040830184866140fd565b60006020828403121561453857600080fd5b5051919050565b6060815260006145526060830186613570565b6001600160a01b039490941660208301525060400152919050565b60006020828403121561457f57600080fd5b81516113d5816138da565b828152600082516145a281602085016020870161354c565b91909101602001939250505056fe360894a13ba1a3210667c828492db98dca3e2076cc3735a920a3ca505d382bbc4d6f6469667953706163655065726d697373696f6e7300000000000000000000416464726573733a206c6f772d6c6576656c2064656c65676174652063616c6c206661696c6564a2646970667358221220c8e30c2d424368410e6f79c8915a5068bc636626790fd6f28e785afe212a13bf64736f6c63430008110033",
    "linkReferences": {}
  },
  "methodIdentifiers": {
    "addPermissionToRole(uint256,string)": "66fb345c",
    "addRoleToChannel(string,address,uint256)": "1dea616a",
    "addRoleToEntitlement(uint256,(address,bytes))": "ba201ba8",
    "channels(uint256)": "e5949b5d",
    "channelsByHash(bytes32)": "129ab3c8",
    "createChannel(string,string,uint256[])": "51f83cea",
    "createRole(string,string[],(address,bytes)[])": "8fcd793d",
    "defaultEntitlements(address)": "fa6433c5",
    "disabled()": "ee070805",
    "entitlements(uint256)": "f28f9b56",
    "getChannelByHash(bytes32)": "703511f8",
    "getEntitlementIdsByRoleId(uint256)": "42486e49",
    "getEntitlements()": "487dc38c",
    "getPermissionsByRoleId(uint256)": "b4264233",
    "getRoleById(uint256)": "784c872b",
    "getRoles()": "71061398",
    "hasEntitlement(address)": "7f8d06d0",
    "initialize(string,string,address[],address,uint256)": "f3ce6a5b",
    "isEntitledToChannel(string,address,string)": "cea632bc",
    "isEntitledToSpace(address,string)": "20759f9e",
    "multicall(bytes[])": "ac9650d8",
    "name()": "06fdde03",
    "networkId()": "9025e64c",
    "owner()": "8da5cb5b",
    "ownerRoleId()": "d1a6a961",
    "proxiableUUID()": "52d1902d",
    "removePermissionFromRole(uint256,string)": "f740bb6b",
    "removeRole(uint256)": "92691821",
    "removeRoleFromChannel(string,address,uint256)": "baaf3d57",
    "removeRoleFromEntitlement(uint256,(address,bytes))": "dba81864",
    "roleCount()": "ddf96358",
    "rolesById(uint256)": "e5894ef4",
    "setChannelAccess(string,bool)": "5de151b8",
    "setEntitlement(address,bool)": "f3b96ab4",
    "setOwnerRoleId(uint256)": "4999ab16",
    "setSpaceAccess(bool)": "446dc22e",
    "token()": "fc0c546a",
    "tokenId()": "17d70f7c",
    "updateChannel(string,string)": "34a1dd26",
    "updateRole(uint256,string)": "32e704cc",
    "upgradeTo(address)": "3659cfe6",
    "upgradeToAndCall(address,bytes)": "4f1ef286"
  },
  "id": 13
}