{
  "abi": [
    {
      "inputs": [],
      "name": "AddRoleFailed",
      "type": "error"
    },
    {
      "inputs": [],
      "name": "ChannelAlreadyRegistered",
      "type": "error"
    },
    {
      "inputs": [],
      "name": "ChannelDoesNotExist",
      "type": "error"
    },
    {
      "inputs": [],
      "name": "EntitlementAlreadyExists",
      "type": "error"
    },
    {
      "inputs": [],
      "name": "EntitlementAlreadyWhitelisted",
      "type": "error"
    },
    {
      "inputs": [],
      "name": "EntitlementModuleNotSupported",
      "type": "error"
    },
    {
      "inputs": [],
      "name": "EntitlementNotWhitelisted",
      "type": "error"
    },
    {
      "inputs": [],
      "name": "InvalidParameters",
      "type": "error"
    },
    {
      "inputs": [],
      "name": "MissingOwnerPermission",
      "type": "error"
    },
    {
      "inputs": [],
      "name": "NotAllowed",
      "type": "error"
    },
    {
      "inputs": [],
      "name": "OwnerPermissionNotAllowed",
      "type": "error"
    },
    {
      "inputs": [],
      "name": "PermissionAlreadyExists",
      "type": "error"
    },
    {
      "inputs": [],
      "name": "RoleDoesNotExist",
      "type": "error"
    },
    {
      "inputs": [],
      "name": "RoleIsAssignedToEntitlement",
      "type": "error"
    },
    {
      "anonymous": false,
      "inputs": [
        {
          "indexed": false,
          "internalType": "address",
          "name": "previousAdmin",
          "type": "address"
        },
        {
          "indexed": false,
          "internalType": "address",
          "name": "newAdmin",
          "type": "address"
        }
      ],
      "name": "AdminChanged",
      "type": "event"
    },
    {
      "anonymous": false,
      "inputs": [
        {
          "indexed": true,
          "internalType": "address",
          "name": "beacon",
          "type": "address"
        }
      ],
      "name": "BeaconUpgraded",
      "type": "event"
    },
    {
      "anonymous": false,
      "inputs": [
        {
          "indexed": false,
          "internalType": "uint8",
          "name": "version",
          "type": "uint8"
        }
      ],
      "name": "Initialized",
      "type": "event"
    },
    {
      "anonymous": false,
      "inputs": [
        {
          "indexed": true,
          "internalType": "address",
          "name": "previousOwner",
          "type": "address"
        },
        {
          "indexed": true,
          "internalType": "address",
          "name": "newOwner",
          "type": "address"
        }
      ],
      "name": "OwnershipTransferred",
      "type": "event"
    },
    {
      "anonymous": false,
      "inputs": [
        {
          "indexed": true,
          "internalType": "address",
          "name": "implementation",
          "type": "address"
        }
      ],
      "name": "Upgraded",
      "type": "event"
    },
    {
      "inputs": [
        {
          "internalType": "uint256",
          "name": "_roleId",
          "type": "uint256"
        },
        {
          "internalType": "string",
          "name": "_permission",
          "type": "string"
        }
      ],
      "name": "addPermissionToRole",
      "outputs": [],
      "stateMutability": "nonpayable",
      "type": "function"
    },
    {
      "inputs": [
        {
          "internalType": "string",
          "name": "_channelId",
          "type": "string"
        },
        {
          "internalType": "address",
          "name": "_entitlement",
          "type": "address"
        },
        {
          "internalType": "uint256",
          "name": "_roleId",
          "type": "uint256"
        }
      ],
      "name": "addRoleToChannel",
      "outputs": [],
      "stateMutability": "nonpayable",
      "type": "function"
    },
    {
      "inputs": [
        {
          "internalType": "uint256",
          "name": "_roleId",
          "type": "uint256"
        },
        {
          "components": [
            {
              "internalType": "address",
              "name": "module",
              "type": "address"
            },
            {
              "internalType": "bytes",
              "name": "data",
              "type": "bytes"
            }
          ],
          "internalType": "struct DataTypes.Entitlement",
          "name": "_entitlement",
          "type": "tuple"
        }
      ],
      "name": "addRoleToEntitlement",
      "outputs": [],
      "stateMutability": "nonpayable",
      "type": "function"
    },
    {
      "inputs": [
        {
          "internalType": "uint256",
          "name": "",
          "type": "uint256"
        }
      ],
      "name": "channels",
      "outputs": [
        {
          "internalType": "bytes32",
          "name": "",
          "type": "bytes32"
        }
      ],
      "stateMutability": "view",
      "type": "function"
    },
    {
      "inputs": [
        {
          "internalType": "bytes32",
          "name": "",
          "type": "bytes32"
        }
      ],
      "name": "channelsByHash",
      "outputs": [
        {
          "internalType": "string",
          "name": "name",
          "type": "string"
        },
        {
          "internalType": "bytes32",
          "name": "channelId",
          "type": "bytes32"
        },
        {
          "internalType": "uint256",
          "name": "createdAt",
          "type": "uint256"
        },
        {
          "internalType": "bool",
          "name": "disabled",
          "type": "bool"
        }
      ],
      "stateMutability": "view",
      "type": "function"
    },
    {
      "inputs": [
        {
          "internalType": "string",
          "name": "channelName",
          "type": "string"
        },
        {
          "internalType": "string",
          "name": "channelNetworkId",
          "type": "string"
        },
        {
          "internalType": "uint256[]",
          "name": "roleIds",
          "type": "uint256[]"
        }
      ],
      "name": "createChannel",
      "outputs": [
        {
          "internalType": "bytes32",
          "name": "",
          "type": "bytes32"
        }
      ],
      "stateMutability": "nonpayable",
      "type": "function"
    },
    {
      "inputs": [
        {
          "internalType": "string",
          "name": "_roleName",
          "type": "string"
        },
        {
          "internalType": "string[]",
          "name": "_permissions",
          "type": "string[]"
        },
        {
          "components": [
            {
              "internalType": "address",
              "name": "module",
              "type": "address"
            },
            {
              "internalType": "bytes",
              "name": "data",
              "type": "bytes"
            }
          ],
          "internalType": "struct DataTypes.Entitlement[]",
          "name": "_entitlements",
          "type": "tuple[]"
        }
      ],
      "name": "createRole",
      "outputs": [
        {
          "internalType": "uint256",
          "name": "",
          "type": "uint256"
        }
      ],
      "stateMutability": "nonpayable",
      "type": "function"
    },
    {
      "inputs": [],
      "name": "disabled",
      "outputs": [
        {
          "internalType": "bool",
          "name": "",
          "type": "bool"
        }
      ],
      "stateMutability": "view",
      "type": "function"
    },
    {
      "inputs": [
        {
          "internalType": "uint256",
          "name": "",
          "type": "uint256"
        }
      ],
      "name": "entitlements",
      "outputs": [
        {
          "internalType": "address",
          "name": "",
          "type": "address"
        }
      ],
      "stateMutability": "view",
      "type": "function"
    },
    {
      "inputs": [
        {
          "internalType": "bytes32",
          "name": "_channelHash",
          "type": "bytes32"
        }
      ],
      "name": "getChannelByHash",
      "outputs": [
        {
          "components": [
            {
              "internalType": "string",
              "name": "name",
              "type": "string"
            },
            {
              "internalType": "bytes32",
              "name": "channelId",
              "type": "bytes32"
            },
            {
              "internalType": "uint256",
              "name": "createdAt",
              "type": "uint256"
            },
            {
              "internalType": "bool",
              "name": "disabled",
              "type": "bool"
            }
          ],
          "internalType": "struct DataTypes.Channel",
          "name": "",
          "type": "tuple"
        }
      ],
      "stateMutability": "view",
      "type": "function"
    },
    {
      "inputs": [
        {
          "internalType": "uint256",
          "name": "_roleId",
          "type": "uint256"
        }
      ],
      "name": "getEntitlementIdsByRoleId",
      "outputs": [
        {
          "internalType": "bytes32[]",
          "name": "",
          "type": "bytes32[]"
        }
      ],
      "stateMutability": "view",
      "type": "function"
    },
    {
      "inputs": [],
      "name": "getEntitlements",
      "outputs": [
        {
          "internalType": "address[]",
          "name": "",
          "type": "address[]"
        }
      ],
      "stateMutability": "view",
      "type": "function"
    },
    {
      "inputs": [
        {
          "internalType": "uint256",
          "name": "_roleId",
          "type": "uint256"
        }
      ],
      "name": "getPermissionsByRoleId",
      "outputs": [
        {
          "internalType": "bytes32[]",
          "name": "",
          "type": "bytes32[]"
        }
      ],
      "stateMutability": "view",
      "type": "function"
    },
    {
      "inputs": [
        {
          "internalType": "uint256",
          "name": "_roleId",
          "type": "uint256"
        }
      ],
      "name": "getRoleById",
      "outputs": [
        {
          "components": [
            {
              "internalType": "uint256",
              "name": "roleId",
              "type": "uint256"
            },
            {
              "internalType": "string",
              "name": "name",
              "type": "string"
            }
          ],
          "internalType": "struct DataTypes.Role",
          "name": "",
          "type": "tuple"
        }
      ],
      "stateMutability": "view",
      "type": "function"
    },
    {
      "inputs": [],
      "name": "getRoles",
      "outputs": [
        {
          "components": [
            {
              "internalType": "uint256",
              "name": "roleId",
              "type": "uint256"
            },
            {
              "internalType": "string",
              "name": "name",
              "type": "string"
            }
          ],
          "internalType": "struct DataTypes.Role[]",
          "name": "",
          "type": "tuple[]"
        }
      ],
      "stateMutability": "view",
      "type": "function"
    },
    {
      "inputs": [
        {
          "internalType": "address",
          "name": "",
          "type": "address"
        }
      ],
      "name": "hasEntitlement",
      "outputs": [
        {
          "internalType": "bool",
          "name": "",
          "type": "bool"
        }
      ],
      "stateMutability": "view",
      "type": "function"
    },
    {
      "inputs": [
        {
          "internalType": "string",
          "name": "_name",
          "type": "string"
        },
        {
          "internalType": "string",
          "name": "_networkId",
          "type": "string"
        },
        {
          "internalType": "address[]",
          "name": "_entitlements",
          "type": "address[]"
        }
      ],
      "name": "initialize",
      "outputs": [],
      "stateMutability": "nonpayable",
      "type": "function"
    },
    {
      "inputs": [
        {
          "internalType": "string",
          "name": "_channelId",
          "type": "string"
        },
        {
          "internalType": "address",
          "name": "_user",
          "type": "address"
        },
        {
          "internalType": "string",
          "name": "_permission",
          "type": "string"
        }
      ],
      "name": "isEntitledToChannel",
      "outputs": [
        {
          "internalType": "bool",
          "name": "_entitled",
          "type": "bool"
        }
      ],
      "stateMutability": "view",
      "type": "function"
    },
    {
      "inputs": [
        {
          "internalType": "address",
          "name": "_user",
          "type": "address"
        },
        {
          "internalType": "string",
          "name": "_permission",
          "type": "string"
        }
      ],
      "name": "isEntitledToSpace",
      "outputs": [
        {
          "internalType": "bool",
          "name": "_entitled",
          "type": "bool"
        }
      ],
      "stateMutability": "view",
      "type": "function"
    },
    {
      "inputs": [
        {
          "internalType": "bytes[]",
          "name": "data",
          "type": "bytes[]"
        }
      ],
      "name": "multicall",
      "outputs": [
        {
          "internalType": "bytes[]",
          "name": "results",
          "type": "bytes[]"
        }
      ],
      "stateMutability": "nonpayable",
      "type": "function"
    },
    {
      "inputs": [],
      "name": "name",
      "outputs": [
        {
          "internalType": "string",
          "name": "",
          "type": "string"
        }
      ],
      "stateMutability": "view",
      "type": "function"
    },
    {
      "inputs": [],
      "name": "networkId",
      "outputs": [
        {
          "internalType": "string",
          "name": "",
          "type": "string"
        }
      ],
      "stateMutability": "view",
      "type": "function"
    },
    {
      "inputs": [],
      "name": "owner",
      "outputs": [
        {
          "internalType": "address",
          "name": "",
          "type": "address"
        }
      ],
      "stateMutability": "view",
      "type": "function"
    },
    {
      "inputs": [],
      "name": "ownerRoleId",
      "outputs": [
        {
          "internalType": "uint256",
          "name": "",
          "type": "uint256"
        }
      ],
      "stateMutability": "view",
      "type": "function"
    },
    {
      "inputs": [],
      "name": "proxiableUUID",
      "outputs": [
        {
          "internalType": "bytes32",
          "name": "",
          "type": "bytes32"
        }
      ],
      "stateMutability": "view",
      "type": "function"
    },
    {
      "inputs": [
        {
          "internalType": "uint256",
          "name": "_roleId",
          "type": "uint256"
        },
        {
          "internalType": "string",
          "name": "_permission",
          "type": "string"
        }
      ],
      "name": "removePermissionFromRole",
      "outputs": [],
      "stateMutability": "nonpayable",
      "type": "function"
    },
    {
      "inputs": [
        {
          "internalType": "uint256",
          "name": "_roleId",
          "type": "uint256"
        }
      ],
      "name": "removeRole",
      "outputs": [],
      "stateMutability": "nonpayable",
      "type": "function"
    },
    {
      "inputs": [
        {
          "internalType": "string",
          "name": "_channelId",
          "type": "string"
        },
        {
          "internalType": "address",
          "name": "_entitlement",
          "type": "address"
        },
        {
          "internalType": "uint256",
          "name": "_roleId",
          "type": "uint256"
        }
      ],
      "name": "removeRoleFromChannel",
      "outputs": [],
      "stateMutability": "nonpayable",
      "type": "function"
    },
    {
      "inputs": [
        {
          "internalType": "uint256",
          "name": "_roleId",
          "type": "uint256"
        },
        {
          "components": [
            {
              "internalType": "address",
              "name": "module",
              "type": "address"
            },
            {
              "internalType": "bytes",
              "name": "data",
              "type": "bytes"
            }
          ],
          "internalType": "struct DataTypes.Entitlement",
          "name": "_entitlement",
          "type": "tuple"
        }
      ],
      "name": "removeRoleFromEntitlement",
      "outputs": [],
      "stateMutability": "nonpayable",
      "type": "function"
    },
    {
      "inputs": [],
      "name": "renounceOwnership",
      "outputs": [],
      "stateMutability": "nonpayable",
      "type": "function"
    },
    {
      "inputs": [],
      "name": "roleId",
      "outputs": [
        {
          "internalType": "uint256",
          "name": "",
          "type": "uint256"
        }
      ],
      "stateMutability": "view",
      "type": "function"
    },
    {
      "inputs": [
        {
          "internalType": "uint256",
          "name": "",
          "type": "uint256"
        }
      ],
      "name": "rolesById",
      "outputs": [
        {
          "internalType": "uint256",
          "name": "roleId",
          "type": "uint256"
        },
        {
          "internalType": "string",
          "name": "name",
          "type": "string"
        }
      ],
      "stateMutability": "view",
      "type": "function"
    },
    {
      "inputs": [
        {
          "internalType": "string",
          "name": "_channelId",
          "type": "string"
        },
        {
          "internalType": "bool",
          "name": "_disabled",
          "type": "bool"
        }
      ],
      "name": "setChannelAccess",
      "outputs": [],
      "stateMutability": "nonpayable",
      "type": "function"
    },
    {
      "inputs": [
        {
          "internalType": "address",
          "name": "_entitlement",
          "type": "address"
        },
        {
          "internalType": "bool",
          "name": "_whitelist",
          "type": "bool"
        }
      ],
      "name": "setEntitlement",
      "outputs": [],
      "stateMutability": "nonpayable",
      "type": "function"
    },
    {
      "inputs": [
        {
          "internalType": "uint256",
          "name": "_roleId",
          "type": "uint256"
        }
      ],
      "name": "setOwnerRoleId",
      "outputs": [],
      "stateMutability": "nonpayable",
      "type": "function"
    },
    {
      "inputs": [
        {
          "internalType": "bool",
          "name": "_disabled",
          "type": "bool"
        }
      ],
      "name": "setSpaceAccess",
      "outputs": [],
      "stateMutability": "nonpayable",
      "type": "function"
    },
    {
      "inputs": [
        {
          "internalType": "address",
          "name": "newOwner",
          "type": "address"
        }
      ],
      "name": "transferOwnership",
      "outputs": [],
      "stateMutability": "nonpayable",
      "type": "function"
    },
    {
      "inputs": [
        {
          "internalType": "uint256",
          "name": "_roleId",
          "type": "uint256"
        },
        {
          "internalType": "string",
          "name": "_roleName",
          "type": "string"
        }
      ],
      "name": "updateRole",
      "outputs": [],
      "stateMutability": "nonpayable",
      "type": "function"
    },
    {
      "inputs": [
        {
          "internalType": "address",
          "name": "newImplementation",
          "type": "address"
        }
      ],
      "name": "upgradeTo",
      "outputs": [],
      "stateMutability": "nonpayable",
      "type": "function"
    },
    {
      "inputs": [
        {
          "internalType": "address",
          "name": "newImplementation",
          "type": "address"
        },
        {
          "internalType": "bytes",
          "name": "data",
          "type": "bytes"
        }
      ],
      "name": "upgradeToAndCall",
      "outputs": [],
      "stateMutability": "payable",
      "type": "function"
    }
  ],
  "bytecode": {
    "object": "0x60a06040523060805234801561001457600080fd5b5060805161425261004c60003960008181610b5d01528181610ba601528181610e8601528181610ec6015261127001526142526000f3fe60806040526004361061023b5760003560e01c80637f8d06d01161012e578063cea632bc116100ab578063ee0708051161006f578063ee07080514610701578063f28f9b561461071b578063f2fde38b1461073b578063f3b96ab41461075b578063f740bb6b1461077b57600080fd5b8063cea632bc1461065d578063d1a6a9611461067d578063dba8186414610693578063e5894ef4146106b3578063e5949b5d146106e157600080fd5b8063ac9650d8116100f2578063ac9650d8146105b0578063b4264233146105dd578063ba201ba8146105fd578063baaf3d571461061d578063ca2759311461063d57600080fd5b80637f8d06d0146104f95780638da5cb5b146105295780638fcd793d1461055b5780639025e64c1461057b578063926918211461059057600080fd5b80634f1ef286116101bc578063703511f811610180578063703511f814610452578063710613981461047f578063715018a6146104a157806373368a48146104b6578063784c872b146104cc57600080fd5b80634f1ef286146103bc57806351f83cea146103cf57806352d1902d146103fd5780635de151b81461041257806366fb345c1461043257600080fd5b80633659cfe6116102035780633659cfe61461030d57806342486e491461032d578063446dc22e1461035a578063487dc38c1461037a5780634999ab161461039c57600080fd5b806306fdde0314610240578063129ab3c81461026b5780631dea616a1461029b57806320759f9e146102bd57806332e704cc146102ed575b600080fd5b34801561024c57600080fd5b5061025561079b565b6040516102629190613251565b60405180910390f35b34801561027757600080fd5b5061028b610286366004613264565b610829565b604051610262949392919061327d565b3480156102a757600080fd5b506102bb6102b6366004613312565b6108de565b005b3480156102c957600080fd5b506102dd6102d836600461336d565b610a0f565b6040519015158152602001610262565b3480156102f957600080fd5b506102bb610308366004613482565b610a85565b34801561031957600080fd5b506102bb6103283660046134c8565b610b53565b34801561033957600080fd5b5061034d610348366004613264565b610c3b565b60405161026291906134e3565b34801561036657600080fd5b506102bb610375366004613535565b610c9d565b34801561038657600080fd5b5061038f610ce6565b6040516102629190613552565b3480156103a857600080fd5b506102bb6103b7366004613264565b610d48565b6102bb6103ca366004613593565b610e7c565b3480156103db57600080fd5b506103ef6103ea3660046135ed565b610f4c565b604051908152602001610262565b34801561040957600080fd5b506103ef611263565b34801561041e57600080fd5b506102bb61042d3660046136ca565b611316565b34801561043e57600080fd5b506102bb61044d366004613482565b6113dc565b34801561045e57600080fd5b5061047261046d366004613264565b611557565b6040516102629190613720565b34801561048b57600080fd5b5061049461164f565b604051610262919061378f565b3480156104ad57600080fd5b506102bb6117bd565b3480156104c257600080fd5b506103ef60d05481565b3480156104d857600080fd5b506104ec6104e7366004613264565b6117d1565b60405161026291906137f1565b34801561050557600080fd5b506102dd6105143660046134c8565b60cd6020526000908152604090205460ff1681565b34801561053557600080fd5b506033546001600160a01b03165b6040516001600160a01b039091168152602001610262565b34801561056757600080fd5b506103ef610576366004613903565b6118a7565b34801561058757600080fd5b50610255611b17565b34801561059c57600080fd5b506102bb6105ab366004613264565b611b24565b3480156105bc57600080fd5b506105d06105cb3660046139f9565b611c15565b6040516102629190613a6d565b3480156105e957600080fd5b5061034d6105f8366004613264565b611d6c565b34801561060957600080fd5b506102bb610618366004613ac2565b611dcc565b34801561062957600080fd5b506102bb610638366004613312565b611e83565b34801561064957600080fd5b506102bb610658366004613afe565b611f7c565b34801561066957600080fd5b506102dd610678366004613bd3565b6120f5565b34801561068957600080fd5b506103ef60cc5481565b34801561069f57600080fd5b506102bb6106ae366004613c56565b612177565b3480156106bf57600080fd5b506106d36106ce366004613264565b6123be565b604051610262929190613ca3565b3480156106ed57600080fd5b506103ef6106fc366004613264565b612463565b34801561070d57600080fd5b5060cb546102dd9060ff1681565b34801561072757600080fd5b50610543610736366004613264565b612484565b34801561074757600080fd5b506102bb6107563660046134c8565b6124ae565b34801561076757600080fd5b506102bb610776366004613cbc565b612524565b34801561078757600080fd5b506102bb610796366004613482565b6125b6565b60c980546107a890613ce8565b80601f01602080910402602001604051908101604052809291908181526020018280546107d490613ce8565b80156108215780601f106107f657610100808354040283529160200191610821565b820191906000526020600020905b81548152906001019060200180831161080457829003601f168201915b505050505081565b60d46020526000908152604090208054819061084490613ce8565b80601f016020809104026020016040519081016040528092919081815260200182805461087090613ce8565b80156108bd5780601f10610892576101008083540402835291602001916108bd565b820191906000526020600020905b8154815290600101906020018083116108a057829003601f168201915b50505050600183015460028401546003909401549293909290915060ff1684565b61094084848080601f0160208091040260200160405190810160405280939291908181526020018383808284376000920191909152505060408051808201909152601681526000805160206141d6833981519152602082015291506127979050565b6001600160a01b038216600090815260cd602052604090205460ff166109795760405163c1ef36f360e01b815260040160405180910390fd5b600081815260d1602052604081205490036109a75760405163b810dc5d60e01b815260040160405180910390fd5b60405163c513be7760e01b81526001600160a01b0383169063c513be77906109d790879087908690600401613d45565b600060405180830381600087803b1580156109f157600080fd5b505af1158015610a05573d6000803e3d6000fd5b5050505050505050565b6000805b60cf54811015610a7d57610a6160405180602001604052806000815250868686604051602001610a44929190613d69565b604051602081830303815290604052610a5c90613d79565b6127f1565b15610a6b57600191505b80610a7581613db3565b915050610a13565b509392505050565b610ac1604051806020016040528060008152506040518060400160405280601681526020016000805160206141d6833981519152815250612797565b60cc548203610ae357604051631eb49d6d60e11b815260040160405180910390fd5b600082815260d160205260408120549003610b115760405163b810dc5d60e01b815260040160405180910390fd5b8051600003610b3357604051630e52390960e41b815260040160405180910390fd5b600082815260d160205260409020600101610b4e8282613e12565b505050565b6001600160a01b037f0000000000000000000000000000000000000000000000000000000000000000163003610ba45760405162461bcd60e51b8152600401610b9b90613ed1565b60405180910390fd5b7f00000000000000000000000000000000000000000000000000000000000000006001600160a01b0316610bed6000805160206141b6833981519152546001600160a01b031690565b6001600160a01b031614610c135760405162461bcd60e51b8152600401610b9b90613f1d565b610c1c816128aa565b60408051600080825260208201909252610c38918391906128e0565b50565b600081815260ce6020908152604091829020805483518184028101840190945280845260609392830182828015610c9157602002820191906000526020600020905b815481526020019060010190808311610c7d575b50505050509050919050565b610cd3604051806020016040528060008152506040518060400160405280600581526020016427bbb732b960d91b815250612797565b60cb805460ff1916911515919091179055565b606060cf805480602002602001604051908101604052809291908181526020018280548015610d3e57602002820191906000526020600020905b81546001600160a01b03168152600190910190602001808311610d20575b5050505050905090565b610d7e604051806020016040528060008152506040518060400160405280600581526020016427bbb732b960d91b815250612797565b600081815260d160205260408120549003610dac5760405163b810dc5d60e01b815260040160405180910390fd5b6000805b600083815260d26020526040902054811015610e57576040518060400160405280600581526020016427bbb732b960d91b815250604051602001610df49190613f69565b604051602081830303815290604052610e0c90613d79565b600084815260d260205260409020805483908110610e2c57610e2c613f85565b906000526020600020015403610e455760019150610e57565b80610e4f81613db3565b915050610db0565b5080610e7657604051633e74bd6360e21b815260040160405180910390fd5b5060cc55565b6001600160a01b037f0000000000000000000000000000000000000000000000000000000000000000163003610ec45760405162461bcd60e51b8152600401610b9b90613ed1565b7f00000000000000000000000000000000000000000000000000000000000000006001600160a01b0316610f0d6000805160206141b6833981519152546001600160a01b031690565b6001600160a01b031614610f335760405162461bcd60e51b8152600401610b9b90613f1d565b610f3c826128aa565b610f48828260016128e0565b5050565b6000610f90604051806020016040528060008152506040518060400160405280601181526020017041646452656d6f76654368616e6e656c7360781b815250612797565b600083604051602001610fa39190613f69565b60408051601f198184030181529181528151602092830120600081815260d490935291206001015490915015610fec57604051630139324b60e41b815260040160405180910390fd5b604080516080810182528681526020808201849052428284015260006060830181905284815260d490915291909120815181906110299082613e12565b506020820151600182810191909155604083015160028301556060909201516003909101805460ff191691151591909117905560d58054918201815560009081527f51858de9989bf7441865ebdadbf7382c8838edbf830f5d86a9a51ac773676dd69091018290555b60cf5481101561125857600060cf82815481106110b1576110b1613f85565b60009182526020909120015460cc5460405163c513be7760e01b81526001600160a01b039092169250829163c513be77916110f1918a9190600401613f9b565b600060405180830381600087803b15801561110b57600080fd5b505af115801561111f573d6000803e3d6000fd5b5050505060005b85518110156112435760cc5486828151811061114457611144613f85565b602002602001015103156112315760d1600087838151811061116857611168613f85565b60200260200101518152602001908152602001600020600001546000036111a25760405163b810dc5d60e01b815260040160405180910390fd5b816001600160a01b031663c513be77888884815181106111c4576111c4613f85565b60200260200101516040518363ffffffff1660e01b81526004016111e9929190613f9b565b600060405180830381600087803b15801561120357600080fd5b505af1925050508015611214575060015b6112315760405163d9afe50760e01b815260040160405180910390fd5b8061123b81613db3565b915050611126565b5050808061125090613db3565b915050611092565b5090505b9392505050565b6000306001600160a01b037f000000000000000000000000000000000000000000000000000000000000000016146113035760405162461bcd60e51b815260206004820152603860248201527f555550535570677261646561626c653a206d757374206e6f742062652063616c60448201527f6c6564207468726f7567682064656c656761746563616c6c00000000000000006064820152608401610b9b565b506000805160206141b683398151915290565b611358604051806020016040528060008152506040518060400160405280601181526020017041646452656d6f76654368616e6e656c7360781b815250612797565b6000838360405160200161136d929190613d69565b60408051601f198184030181529181528151602092830120600081815260d49093529082206001015490925090036113b857604051636ddd9da960e01b815260040160405180910390fd5b600090815260d460205260409020600301805460ff19169115159190911790555050565b611418604051806020016040528060008152506040518060400160405280601681526020016000805160206141d6833981519152815250612797565b61143f816040518060400160405280600581526020016427bbb732b960d91b815250612a4b565b1561145d57604051631eb49d6d60e11b815260040160405180910390fd5b600082815260d16020526040812054900361148b5760405163b810dc5d60e01b815260040160405180910390fd5b60008160405160200161149e9190613f69565b6040516020818303038152906040526114b690613d79565b905060005b600084815260d2602052604090205481101561152f57600084815260d2602052604090208054839190839081106114f4576114f4613f85565b90600052602060002001540361151d57604051636571d65f60e01b815260040160405180910390fd5b8061152781613db3565b9150506114bb565b50600092835260d2602090815260408420805460018101825590855293209092019190915550565b604080516080810182526060808252600060208301819052928201839052810191909152600082815260d46020526040908190208151608081019092528054829082906115a390613ce8565b80601f01602080910402602001604051908101604052809291908181526020018280546115cf90613ce8565b801561161c5780601f106115f15761010080835404028352916020019161161c565b820191906000526020600020905b8154815290600101906020018083116115ff57829003601f168201915b5050509183525050600182015460208201526002820154604082015260039091015460ff16151560609091015292915050565b6060600060d0546001600160401b0381111561166d5761166d6133bf565b6040519080825280602002602001820160405280156116b357816020015b60408051808201909152600081526060602082015281526020019060019003908161168b5790505b50905060005b60d0548110156117b75760d160006116d2836001613fbd565b81526020019081526020016000206040518060400160405290816000820154815260200160018201805461170590613ce8565b80601f016020809104026020016040519081016040528092919081815260200182805461173190613ce8565b801561177e5780601f106117535761010080835404028352916020019161177e565b820191906000526020600020905b81548152906001019060200180831161176157829003601f168201915b50505050508152505082828151811061179957611799613f85565b602002602001018190525080806117af90613db3565b9150506116b9565b50919050565b6117c5612aa5565b6117cf6000612aff565b565b60408051808201909152600081526060602082015260d160008381526020019081526020016000206040518060400160405290816000820154815260200160018201805461181e90613ce8565b80601f016020809104026020016040519081016040528092919081815260200182805461184a90613ce8565b80156118975780601f1061186c57610100808354040283529160200191611897565b820191906000526020600020905b81548152906001019060200180831161187a57829003601f168201915b5050505050815250509050919050565b60006118e5604051806020016040528060008152506040518060400160405280601681526020016000805160206141d6833981519152815250612797565b600060d0600081546118f690613db3565b91829055506040805180820182528281526020808201898152600085815260d19092529290208151815591519293509182919060018201906119389082613e12565b5090505060005b8551811015611a32576033546001600160a01b0316331480159061199e575061199e86828151811061197357611973613f85565b60200260200101516040518060400160405280600581526020016427bbb732b960d91b815250612a4b565b156119bc576040516341d2e1af60e01b815260040160405180910390fd5b60008682815181106119d0576119d0613f85565b60200260200101516040516020016119e89190613f69565b604051602081830303815290604052611a0090613d79565b600085815260d26020908152604082208054600181018255908352912001555080611a2a81613db3565b91505061193f565b5060005b8451811015611b0c576000858281518110611a5357611a53613f85565b60200260200101516000015190506000868381518110611a7557611a75613f85565b602002602001015160200151905060006001600160a01b0316826001600160a01b03161480611aa357508051155b15611aaf575050611afa565b6001600160a01b038216600090815260cd602052604081205460ff1615159003611aec5760405163c1ef36f360e01b815260040160405180910390fd5b611af7858383612b51565b50505b80611b0481613db3565b915050611a36565b509095945050505050565b60ca80546107a890613ce8565b611b60604051806020016040528060008152506040518060400160405280601681526020016000805160206141d6833981519152815250612797565b60cc548103611b8257604051631eb49d6d60e11b815260040160405180910390fd5b600081815260d160205260408120549003611bb05760405163b810dc5d60e01b815260040160405180910390fd5b600081815260ce602052604090205415611bdd57604051633764405360e11b815260040160405180910390fd5b600081815260d16020526040812081815590611bfc6001830182613194565b5050600081815260d260205260408120610c38916131ce565b6060816001600160401b03811115611c2f57611c2f6133bf565b604051908082528060200260200182016040528015611c6257816020015b6060815260200190600190039081611c4d5790505b50905060005b82811015611d655760008030868685818110611c8657611c86613f85565b9050602002810190611c989190613fd0565b604051611ca6929190613d69565b600060405180830381855af49150503d8060008114611ce1576040519150601f19603f3d011682016040523d82523d6000602084013e611ce6565b606091505b509150915081611d3257604481511015611cff57600080fd5b60048101905080806020019051810190611d199190614016565b60405162461bcd60e51b8152600401610b9b9190613251565b80848481518110611d4557611d45613f85565b602002602001018190525050508080611d5d90613db3565b915050611c68565b5092915050565b600081815260d26020908152604091829020805483518184028101840190945280845260609392830182828015610c915760200282019190600052602060002090815481526020019060010190808311610c7d5750505050509050919050565b611e08604051806020016040528060008152506040518060400160405280601681526020016000805160206141d6833981519152815250612797565b80516001600160a01b0316600090815260cd602052604090205460ff16611e425760405163c1ef36f360e01b815260040160405180910390fd5b600082815260d160205260408120549003611e705760405163b810dc5d60e01b815260040160405180910390fd5b610f488282600001518360200151612b51565b611ee584848080601f0160208091040260200160405190810160405280939291908181526020018383808284376000920191909152505060408051808201909152601681526000805160206141d6833981519152602082015291506127979050565b6001600160a01b038216600090815260cd602052604090205460ff16611f1e5760405163c1ef36f360e01b815260040160405180910390fd5b600081815260d160205260408120549003611f4c5760405163b810dc5d60e01b815260040160405180910390fd5b604051637997c1e760e11b81526001600160a01b0383169063f32f83ce906109d790879087908690600401613d45565b600054610100900460ff1615808015611f9c5750600054600160ff909116105b80611fb65750303b158015611fb6575060005460ff166001145b6120195760405162461bcd60e51b815260206004820152602e60248201527f496e697469616c697a61626c653a20636f6e747261637420697320616c72656160448201526d191e481a5b9a5d1a585b1a5e995960921b6064820152608401610b9b565b6000805460ff19166001179055801561203c576000805461ff0019166101001790555b612044612cc9565b61204c612cf0565b60c96120588582613e12565b5060ca6120658482613e12565b5060005b82518110156120a85761209683828151811061208757612087613f85565b60200260200101516001612d1f565b806120a081613db3565b915050612069565b5080156120ef576000805461ff0019169055604051600181527f7f26b83ff96e1f2b6a682f133852f6798a09c465da95921460cefb38474024989060200160405180910390a15b50505050565b6000805b60cf5481101561216d5761215187878080601f01602080910402602001604051908101604052809392919081815260200183838082843760009201919091525050604051899250610a44915088908890602001613d69565b1561215b57600191505b8061216581613db3565b9150506120f9565b5095945050505050565b6121b3604051806020016040528060008152506040518060400160405280601681526020016000805160206141d6833981519152815250612797565b60cd60006121c460208401846134c8565b6001600160a01b0316815260208101919091526040016000205460ff166121fe5760405163c1ef36f360e01b815260040160405180910390fd5b600082815260d16020526040812054900361222c5760405163b810dc5d60e01b815260040160405180910390fd5b60008261223c6020840184613fd0565b60405160200161224e93929190614083565b60408051601f198184030181529181528151602092830120600086815260ce909352908220909250905b815481101561232c5781818154811061229357612293613f85565b9060005260206000200154830361231a57815482906122b49060019061409d565b815481106122c4576122c4613f85565b90600052602060002001548282815481106122e1576122e1613f85565b9060005260206000200181905550818054806122ff576122ff6140b0565b6001900381819060005260206000200160009055905561232c565b8061232481613db3565b915050612278565b5061233a60208401846134c8565b6001600160a01b031663fa6d1adf856123566020870187613fd0565b6040518463ffffffff1660e01b8152600401612374939291906140c6565b6020604051808303816000875af1158015612393573d6000803e3d6000fd5b505050506040513d601f19601f820116820180604052508101906123b791906140e0565b5050505050565b60d160205260009081526040902080546001820180549192916123e090613ce8565b80601f016020809104026020016040519081016040528092919081815260200182805461240c90613ce8565b80156124595780601f1061242e57610100808354040283529160200191612459565b820191906000526020600020905b81548152906001019060200180831161243c57829003601f168201915b5050505050905082565b60d5818154811061247357600080fd5b600091825260209091200154905081565b60cf818154811061249457600080fd5b6000918252602090912001546001600160a01b0316905081565b6124b6612aa5565b6001600160a01b03811661251b5760405162461bcd60e51b815260206004820152602660248201527f4f776e61626c653a206e6577206f776e657220697320746865207a65726f206160448201526564647265737360d01b6064820152608401610b9b565b610c3881612aff565b612560604051806020016040528060008152506040518060400160405280601681526020016000805160206141d6833981519152815250612797565b61256982612ea0565b80801561258e57506001600160a01b038216600090815260cd602052604090205460ff165b156125ac5760405163186abc9b60e01b815260040160405180910390fd5b610f488282612d1f565b6125f2604051806020016040528060008152506040518060400160405280601681526020016000805160206141d6833981519152815250612797565b612619816040518060400160405280600581526020016427bbb732b960d91b815250612a4b565b1561263757604051631eb49d6d60e11b815260040160405180910390fd5b600082815260d1602052604081205490036126655760405163b810dc5d60e01b815260040160405180910390fd5b6000816040516020016126789190613f69565b60405160208183030381529060405261269090613d79565b905060005b600084815260d260205260409020548110156120ef57600084815260d2602052604090208054839190839081106126ce576126ce613f85565b90600052602060002001540361278557600084815260d26020526040902080546126fa9060019061409d565b8154811061270a5761270a613f85565b906000526020600020015460d26000868152602001908152602001600020828154811061273957612739613f85565b906000526020600020018190555060d26000858152602001908152602001600020805480612769576127696140b0565b6001900381819060005260206000200160009055905550505050565b8061278f81613db3565b915050612695565b6033546001600160a01b03163314806127cf575060cb5460ff161580156127cf57506127cf823383604051602001610a449190613f69565b156127d8575050565b604051631eb49d6d60e11b815260040160405180910390fd5b6000805b60cf54811015610a7d5760cf818154811061281257612812613f85565b60009182526020909120015460405162169d5560e31b81526001600160a01b039091169062b4eaa89061284d908890889088906004016140f9565b602060405180830381865afa15801561286a573d6000803e3d6000fd5b505050506040513d601f19601f8201168201806040525081019061288e9190614127565b1561289857600191505b806128a281613db3565b9150506127f5565b610c38604051806020016040528060008152506040518060400160405280600581526020016427bbb732b960d91b815250612797565b7f4910fdfa16fed3260ed0e7147f7cc6da11a60208b5b9406d12a635614ffd91435460ff161561291357610b4e83612f31565b826001600160a01b03166352d1902d6040518163ffffffff1660e01b8152600401602060405180830381865afa92505050801561296d575060408051601f3d908101601f1916820190925261296a918101906140e0565b60015b6129d05760405162461bcd60e51b815260206004820152602e60248201527f45524331393637557067726164653a206e657720696d706c656d656e7461746960448201526d6f6e206973206e6f74205555505360901b6064820152608401610b9b565b6000805160206141b68339815191528114612a3f5760405162461bcd60e51b815260206004820152602960248201527f45524331393637557067726164653a20756e737570706f727465642070726f786044820152681a58589b195555525160ba1b6064820152608401610b9b565b50610b4e838383612fcd565b600081604051602001612a5e9190613f69565b6040516020818303038152906040528051906020012083604051602001612a859190613f69565b604051602081830303815290604052805190602001201490505b92915050565b6033546001600160a01b031633146117cf5760405162461bcd60e51b815260206004820181905260248201527f4f776e61626c653a2063616c6c6572206973206e6f7420746865206f776e65726044820152606401610b9b565b603380546001600160a01b038381166001600160a01b0319831681179093556040519116919082907f8be0079c531659141344cd1fd0a4f28419497f9722a3daafe3b4186f6b6457e090600090a35050565b60008382604051602001612b66929190614144565b60408051601f198184030181528282528051602091820120600088815260ce835283812080548085028701850190955284865291955093929091830182828015612bcf57602002820191906000526020600020905b815481526020019060010190808311612bbb575b5050505050905060005b8151811015612c2d5782828281518110612bf557612bf5613f85565b602002602001015103612c1b5760405163c5c9ad6760e01b815260040160405180910390fd5b80612c2581613db3565b915050612bd9565b50600085815260ce602090815260408083208054600181018255908452919092200183905551633be2f95d60e21b81526001600160a01b0385169063ef8be57490612c7e9088908790600401613ca3565b6020604051808303816000875af1158015612c9d573d6000803e3d6000fd5b505050506040513d601f19601f82011682018060405250810190612cc191906140e0565b505050505050565b600054610100900460ff166117cf5760405162461bcd60e51b8152600401610b9b9061416a565b600054610100900460ff16612d175760405162461bcd60e51b8152600401610b9b9061416a565b6117cf612ff2565b6001600160a01b038216600090815260cd60205260409020805460ff19168215801591909117909155612d9d5760cf80546001810182556000919091527facb8d954e2cfef495862221e91bd7523613cf8808827cb33edfe4904cc51bf290180546001600160a01b0384166001600160a01b03199091161790555050565b60005b60cf54811015610b4e5760cf8181548110612dbd57612dbd613f85565b6000918252602090912001546001600160a01b0390811690841603612e8e5760cf8054612dec9060019061409d565b81548110612dfc57612dfc613f85565b60009182526020909120015460cf80546001600160a01b039092169183908110612e2857612e28613f85565b9060005260206000200160006101000a8154816001600160a01b0302191690836001600160a01b0316021790555060cf805480612e6757612e676140b0565b600082815260209020810160001990810180546001600160a01b0319169055019055505050565b80612e9881613db3565b915050612da0565b6040516301ffc9a760e01b8152630511738b60e31b60048201526001600160a01b038216906301ffc9a790602401602060405180830381865afa158015612eeb573d6000803e3d6000fd5b505050506040513d601f19601f82011682018060405250810190612f0f9190614127565b1515600003610c3857604051636d9250f160e11b815260040160405180910390fd5b6001600160a01b0381163b612f9e5760405162461bcd60e51b815260206004820152602d60248201527f455243313936373a206e657720696d706c656d656e746174696f6e206973206e60448201526c1bdd08184818dbdb9d1c9858dd609a1b6064820152608401610b9b565b6000805160206141b683398151915280546001600160a01b0319166001600160a01b0392909216919091179055565b612fd683613022565b600082511180612fe35750805b15610b4e576120ef8383613062565b600054610100900460ff166130195760405162461bcd60e51b8152600401610b9b9061416a565b6117cf33612aff565b61302b81612f31565b6040516001600160a01b038216907fbc7cd75a20ee27fd9adebab32041f755214dbc6bffa90cc0225b39da2e5c2d3b90600090a250565b60606001600160a01b0383163b6130ca5760405162461bcd60e51b815260206004820152602660248201527f416464726573733a2064656c65676174652063616c6c20746f206e6f6e2d636f6044820152651b9d1c9858dd60d21b6064820152608401610b9b565b600080846001600160a01b0316846040516130e59190613f69565b600060405180830381855af49150503d8060008114613120576040519150601f19603f3d011682016040523d82523d6000602084013e613125565b606091505b509150915061314d82826040518060600160405280602781526020016141f660279139613156565b95945050505050565b6060831561316557508161125c565b61125c838381511561317a5781518083602001fd5b8060405162461bcd60e51b8152600401610b9b9190613251565b5080546131a090613ce8565b6000825580601f106131b0575050565b601f016020900490600052602060002090810190610c3891906131e8565b5080546000825590600052602060002090810190610c3891905b5b808211156131fd57600081556001016131e9565b5090565b60005b8381101561321c578181015183820152602001613204565b50506000910152565b6000815180845261323d816020860160208601613201565b601f01601f19169290920160200192915050565b60208152600061125c6020830184613225565b60006020828403121561327657600080fd5b5035919050565b6080815260006132906080830187613225565b60208301959095525060408101929092521515606090910152919050565b60008083601f8401126132c057600080fd5b5081356001600160401b038111156132d757600080fd5b6020830191508360208285010111156132ef57600080fd5b9250929050565b80356001600160a01b038116811461330d57600080fd5b919050565b6000806000806060858703121561332857600080fd5b84356001600160401b0381111561333e57600080fd5b61334a878288016132ae565b909550935061335d9050602086016132f6565b9396929550929360400135925050565b60008060006040848603121561338257600080fd5b61338b846132f6565b925060208401356001600160401b038111156133a657600080fd5b6133b2868287016132ae565b9497909650939450505050565b634e487b7160e01b600052604160045260246000fd5b604051601f8201601f191681016001600160401b03811182821017156133fd576133fd6133bf565b604052919050565b60006001600160401b0382111561341e5761341e6133bf565b50601f01601f191660200190565b600082601f83011261343d57600080fd5b813561345061344b82613405565b6133d5565b81815284602083860101111561346557600080fd5b816020850160208301376000918101602001919091529392505050565b6000806040838503121561349557600080fd5b8235915060208301356001600160401b038111156134b257600080fd5b6134be8582860161342c565b9150509250929050565b6000602082840312156134da57600080fd5b61125c826132f6565b6020808252825182820181905260009190848201906040850190845b8181101561351b578351835292840192918401916001016134ff565b50909695505050505050565b8015158114610c3857600080fd5b60006020828403121561354757600080fd5b813561125c81613527565b6020808252825182820181905260009190848201906040850190845b8181101561351b5783516001600160a01b03168352928401929184019160010161356e565b600080604083850312156135a657600080fd5b6135af836132f6565b915060208301356001600160401b038111156134b257600080fd5b60006001600160401b038211156135e3576135e36133bf565b5060051b60200190565b60008060006060848603121561360257600080fd5b83356001600160401b038082111561361957600080fd5b6136258783880161342c565b945060209150818601358181111561363c57600080fd5b6136488882890161342c565b94505060408601358181111561365d57600080fd5b86019050601f8101871361367057600080fd5b803561367e61344b826135ca565b81815260059190911b8201830190838101908983111561369d57600080fd5b928401925b828410156136bb578335825292840192908401906136a2565b80955050505050509250925092565b6000806000604084860312156136df57600080fd5b83356001600160401b038111156136f557600080fd5b613701868287016132ae565b909450925050602084013561371581613527565b809150509250925092565b60208152600082516080602084015261373c60a0840182613225565b905060208401516040840152604084015160608401526060840151151560808401528091505092915050565b8051825260006020820151604060208501526137876040850182613225565b949350505050565b6000602080830181845280855180835260408601915060408160051b870101925083870160005b828110156137e457603f198886030184526137d2858351613768565b945092850192908501906001016137b6565b5092979650505050505050565b60208152600061125c6020830184613768565b60006040828403121561381657600080fd5b604051604081016001600160401b038282108183111715613839576138396133bf565b81604052829350613849856132f6565b8352602085013591508082111561385f57600080fd5b5061386c8582860161342c565b6020830152505092915050565b600082601f83011261388a57600080fd5b8135602061389a61344b836135ca565b82815260059290921b840181019181810190868411156138b957600080fd5b8286015b848110156138f85780356001600160401b038111156138dc5760008081fd5b6138ea8986838b0101613804565b8452509183019183016138bd565b509695505050505050565b60008060006060848603121561391857600080fd5b83356001600160401b038082111561392f57600080fd5b61393b8783880161342c565b945060209150818601358181111561395257600080fd5b8601601f8101881361396357600080fd5b803561397161344b826135ca565b81815260059190911b8201840190848101908a83111561399057600080fd5b8584015b838110156139c8578035868111156139ac5760008081fd5b6139ba8d898389010161342c565b845250918601918601613994565b50965050505060408601359150808211156139e257600080fd5b506139ef86828701613879565b9150509250925092565b60008060208385031215613a0c57600080fd5b82356001600160401b0380821115613a2357600080fd5b818501915085601f830112613a3757600080fd5b813581811115613a4657600080fd5b8660208260051b8501011115613a5b57600080fd5b60209290920196919550909350505050565b6000602080830181845280855180835260408601915060408160051b870101925083870160005b828110156137e457603f19888603018452613ab0858351613225565b94509285019290850190600101613a94565b60008060408385031215613ad557600080fd5b8235915060208301356001600160401b03811115613af257600080fd5b6134be85828601613804565b600080600060608486031215613b1357600080fd5b83356001600160401b0380821115613b2a57600080fd5b613b368783880161342c565b9450602091508186013581811115613b4d57600080fd5b613b598882890161342c565b945050604086013581811115613b6e57600080fd5b86019050601f81018713613b8157600080fd5b8035613b8f61344b826135ca565b81815260059190911b82018301908381019089831115613bae57600080fd5b928401925b828410156136bb57613bc4846132f6565b82529284019290840190613bb3565b600080600080600060608688031215613beb57600080fd5b85356001600160401b0380821115613c0257600080fd5b613c0e89838a016132ae565b9097509550859150613c22602089016132f6565b94506040880135915080821115613c3857600080fd5b50613c45888289016132ae565b969995985093965092949392505050565b60008060408385031215613c6957600080fd5b8235915060208301356001600160401b03811115613c8657600080fd5b830160408186031215613c9857600080fd5b809150509250929050565b8281526040602082015260006137876040830184613225565b60008060408385031215613ccf57600080fd5b613cd8836132f6565b91506020830135613c9881613527565b600181811c90821680613cfc57607f821691505b6020821081036117b757634e487b7160e01b600052602260045260246000fd5b81835281816020850137506000828201602090810191909152601f909101601f19169091010190565b604081526000613d59604083018587613d1c565b9050826020830152949350505050565b8183823760009101908152919050565b805160208083015191908110156117b75760001960209190910360031b1b16919050565b634e487b7160e01b600052601160045260246000fd5b600060018201613dc557613dc5613d9d565b5060010190565b601f821115610b4e57600081815260208120601f850160051c81016020861015613df35750805b601f850160051c820191505b81811015612cc157828155600101613dff565b81516001600160401b03811115613e2b57613e2b6133bf565b613e3f81613e398454613ce8565b84613dcc565b602080601f831160018114613e745760008415613e5c5750858301515b600019600386901b1c1916600185901b178555612cc1565b600085815260208120601f198616915b82811015613ea357888601518255948401946001909101908401613e84565b5085821015613ec15787850151600019600388901b60f8161c191681555b5050505050600190811b01905550565b6020808252602c908201527f46756e6374696f6e206d7573742062652063616c6c6564207468726f7567682060408201526b19195b1959d85d1958d85b1b60a21b606082015260800190565b6020808252602c908201527f46756e6374696f6e206d7573742062652063616c6c6564207468726f7567682060408201526b6163746976652070726f787960a01b606082015260800190565b60008251613f7b818460208701613201565b9190910192915050565b634e487b7160e01b600052603260045260246000fd5b604081526000613fae6040830185613225565b90508260208301529392505050565b80820180821115612a9f57612a9f613d9d565b6000808335601e19843603018112613fe757600080fd5b8301803591506001600160401b0382111561400157600080fd5b6020019150368190038213156132ef57600080fd5b60006020828403121561402857600080fd5b81516001600160401b0381111561403e57600080fd5b8201601f8101841361404f57600080fd5b805161405d61344b82613405565b81815285602083850101111561407257600080fd5b61314d826020830160208601613201565b838152818360208301376000910160200190815292915050565b81810381811115612a9f57612a9f613d9d565b634e487b7160e01b600052603160045260246000fd5b83815260406020820152600061314d604083018486613d1c565b6000602082840312156140f257600080fd5b5051919050565b60608152600061410c6060830186613225565b6001600160a01b039490941660208301525060400152919050565b60006020828403121561413957600080fd5b815161125c81613527565b8281526000825161415c816020850160208701613201565b919091016020019392505050565b6020808252602b908201527f496e697469616c697a61626c653a20636f6e7472616374206973206e6f74206960408201526a6e697469616c697a696e6760a81b60608201526080019056fe360894a13ba1a3210667c828492db98dca3e2076cc3735a920a3ca505d382bbc4d6f6469667953706163655065726d697373696f6e7300000000000000000000416464726573733a206c6f772d6c6576656c2064656c65676174652063616c6c206661696c6564a2646970667358221220084b341412ab0f55fd295131a17ada79214bd068383cda20214d31c242ee0ce164736f6c63430008110033",
    "linkReferences": {}
  },
  "methodIdentifiers": {
    "addPermissionToRole(uint256,string)": "66fb345c",
    "addRoleToChannel(string,address,uint256)": "1dea616a",
    "addRoleToEntitlement(uint256,(address,bytes))": "ba201ba8",
    "channels(uint256)": "e5949b5d",
    "channelsByHash(bytes32)": "129ab3c8",
    "createChannel(string,string,uint256[])": "51f83cea",
    "createRole(string,string[],(address,bytes)[])": "8fcd793d",
    "disabled()": "ee070805",
    "entitlements(uint256)": "f28f9b56",
    "getChannelByHash(bytes32)": "703511f8",
    "getEntitlementIdsByRoleId(uint256)": "42486e49",
    "getEntitlements()": "487dc38c",
    "getPermissionsByRoleId(uint256)": "b4264233",
    "getRoleById(uint256)": "784c872b",
    "getRoles()": "71061398",
    "hasEntitlement(address)": "7f8d06d0",
    "initialize(string,string,address[])": "ca275931",
    "isEntitledToChannel(string,address,string)": "cea632bc",
    "isEntitledToSpace(address,string)": "20759f9e",
    "multicall(bytes[])": "ac9650d8",
    "name()": "06fdde03",
    "networkId()": "9025e64c",
    "owner()": "8da5cb5b",
    "ownerRoleId()": "d1a6a961",
    "proxiableUUID()": "52d1902d",
    "removePermissionFromRole(uint256,string)": "f740bb6b",
    "removeRole(uint256)": "92691821",
    "removeRoleFromChannel(string,address,uint256)": "baaf3d57",
    "removeRoleFromEntitlement(uint256,(address,bytes))": "dba81864",
    "renounceOwnership()": "715018a6",
    "roleId()": "73368a48",
    "rolesById(uint256)": "e5894ef4",
    "setChannelAccess(string,bool)": "5de151b8",
    "setEntitlement(address,bool)": "f3b96ab4",
    "setOwnerRoleId(uint256)": "4999ab16",
    "setSpaceAccess(bool)": "446dc22e",
    "transferOwnership(address)": "f2fde38b",
    "updateRole(uint256,string)": "32e704cc",
    "upgradeTo(address)": "3659cfe6",
    "upgradeToAndCall(address,bytes)": "4f1ef286"
  },
  "id": 46
}