{
  "abi": [
    {
      "inputs": [],
      "name": "InvalidParameters",
      "type": "error"
    },
    {
      "inputs": [],
      "name": "NameContainsInvalidCharacters",
      "type": "error"
    },
    {
      "inputs": [],
      "name": "NameLengthInvalid",
      "type": "error"
    },
    {
      "inputs": [],
      "name": "PermissionAlreadyExists",
      "type": "error"
    },
    {
      "inputs": [],
      "name": "SpaceAlreadyRegistered",
      "type": "error"
    },
    {
      "anonymous": false,
      "inputs": [
        {
          "indexed": false,
          "internalType": "address",
          "name": "previousAdmin",
          "type": "address"
        },
        {
          "indexed": false,
          "internalType": "address",
          "name": "newAdmin",
          "type": "address"
        }
      ],
      "name": "AdminChanged",
      "type": "event"
    },
    {
      "anonymous": false,
      "inputs": [
        {
          "indexed": true,
          "internalType": "address",
          "name": "beacon",
          "type": "address"
        }
      ],
      "name": "BeaconUpgraded",
      "type": "event"
    },
    {
      "anonymous": false,
      "inputs": [
        {
          "indexed": false,
          "internalType": "uint8",
          "name": "version",
          "type": "uint8"
        }
      ],
      "name": "Initialized",
      "type": "event"
    },
    {
      "anonymous": false,
      "inputs": [
        {
          "indexed": true,
          "internalType": "address",
          "name": "previousOwner",
          "type": "address"
        },
        {
          "indexed": true,
          "internalType": "address",
          "name": "newOwner",
          "type": "address"
        }
      ],
      "name": "OwnershipTransferred",
      "type": "event"
    },
    {
      "anonymous": false,
      "inputs": [
        {
          "indexed": true,
          "internalType": "address",
          "name": "implementation",
          "type": "address"
        }
      ],
      "name": "Upgraded",
      "type": "event"
    },
    {
      "inputs": [],
      "name": "SPACE_IMPLEMENTATION_ADDRESS",
      "outputs": [
        {
          "internalType": "address",
          "name": "",
          "type": "address"
        }
      ],
      "stateMutability": "view",
      "type": "function"
    },
    {
      "inputs": [],
      "name": "SPACE_TOKEN_ADDRESS",
      "outputs": [
        {
          "internalType": "address",
          "name": "",
          "type": "address"
        }
      ],
      "stateMutability": "view",
      "type": "function"
    },
    {
      "inputs": [],
      "name": "TOKEN_IMPLEMENTATION_ADDRESS",
      "outputs": [
        {
          "internalType": "address",
          "name": "",
          "type": "address"
        }
      ],
      "stateMutability": "view",
      "type": "function"
    },
    {
      "inputs": [],
      "name": "USER_IMPLEMENTATION_ADDRESS",
      "outputs": [
        {
          "internalType": "address",
          "name": "",
          "type": "address"
        }
      ],
      "stateMutability": "view",
      "type": "function"
    },
    {
      "inputs": [
        {
          "internalType": "string[]",
          "name": "_permissions",
          "type": "string[]"
        }
      ],
      "name": "addOwnerPermissions",
      "outputs": [],
      "stateMutability": "nonpayable",
      "type": "function"
    },
    {
      "inputs": [
        {
          "internalType": "string",
          "name": "spaceName",
          "type": "string"
        },
        {
          "internalType": "string",
          "name": "spaceNetworkId",
          "type": "string"
        },
        {
          "internalType": "string",
          "name": "spaceMetadata",
          "type": "string"
        },
        {
          "internalType": "string[]",
          "name": "_everyonePermissions",
          "type": "string[]"
        },
        {
          "components": [
            {
              "internalType": "string",
              "name": "roleName",
              "type": "string"
            },
            {
              "internalType": "string[]",
              "name": "permissions",
              "type": "string[]"
            },
            {
              "components": [
                {
                  "internalType": "address",
                  "name": "contractAddress",
                  "type": "address"
                },
                {
                  "internalType": "uint256",
                  "name": "quantity",
                  "type": "uint256"
                },
                {
                  "internalType": "bool",
                  "name": "isSingleToken",
                  "type": "bool"
                },
                {
                  "internalType": "uint256[]",
                  "name": "tokenIds",
                  "type": "uint256[]"
                }
              ],
              "internalType": "struct DataTypes.ExternalToken[]",
              "name": "tokens",
              "type": "tuple[]"
            },
            {
              "internalType": "address[]",
              "name": "users",
              "type": "address[]"
            }
          ],
          "internalType": "struct DataTypes.CreateSpaceExtraEntitlements",
          "name": "_extraEntitlements",
          "type": "tuple"
        }
      ],
      "name": "createSpace",
      "outputs": [
        {
          "internalType": "address",
          "name": "_spaceAddress",
          "type": "address"
        }
      ],
      "stateMutability": "nonpayable",
      "type": "function"
    },
    {
      "inputs": [],
      "name": "getOwnerPermissions",
      "outputs": [
        {
          "internalType": "string[]",
          "name": "",
          "type": "string[]"
        }
      ],
      "stateMutability": "view",
      "type": "function"
    },
    {
      "inputs": [
        {
          "internalType": "address",
          "name": "_space",
          "type": "address"
        },
        {
          "internalType": "address",
          "name": "_tokenEntitlement",
          "type": "address"
        },
        {
          "internalType": "address",
          "name": "_userEntitlement",
          "type": "address"
        },
        {
          "internalType": "address",
          "name": "_spaceToken",
          "type": "address"
        },
        {
          "internalType": "string[]",
          "name": "_permissions",
          "type": "string[]"
        }
      ],
      "name": "initialize",
      "outputs": [],
      "stateMutability": "nonpayable",
      "type": "function"
    },
    {
      "inputs": [],
      "name": "owner",
      "outputs": [
        {
          "internalType": "address",
          "name": "",
          "type": "address"
        }
      ],
      "stateMutability": "view",
      "type": "function"
    },
    {
      "inputs": [
        {
          "internalType": "uint256",
          "name": "",
          "type": "uint256"
        }
      ],
      "name": "ownerPermissions",
      "outputs": [
        {
          "internalType": "string",
          "name": "",
          "type": "string"
        }
      ],
      "stateMutability": "view",
      "type": "function"
    },
    {
      "inputs": [],
      "name": "proxiableUUID",
      "outputs": [
        {
          "internalType": "bytes32",
          "name": "",
          "type": "bytes32"
        }
      ],
      "stateMutability": "view",
      "type": "function"
    },
    {
      "inputs": [],
      "name": "renounceOwnership",
      "outputs": [],
      "stateMutability": "nonpayable",
      "type": "function"
    },
    {
      "inputs": [
        {
          "internalType": "bytes32",
          "name": "",
          "type": "bytes32"
        }
      ],
      "name": "spaceByHash",
      "outputs": [
        {
          "internalType": "address",
          "name": "",
          "type": "address"
        }
      ],
      "stateMutability": "view",
      "type": "function"
    },
    {
      "inputs": [
        {
          "internalType": "bytes32",
          "name": "",
          "type": "bytes32"
        }
      ],
      "name": "tokenByHash",
      "outputs": [
        {
          "internalType": "uint256",
          "name": "",
          "type": "uint256"
        }
      ],
      "stateMutability": "view",
      "type": "function"
    },
    {
      "inputs": [
        {
          "internalType": "address",
          "name": "newOwner",
          "type": "address"
        }
      ],
      "name": "transferOwnership",
      "outputs": [],
      "stateMutability": "nonpayable",
      "type": "function"
    },
    {
      "inputs": [
        {
          "internalType": "address",
          "name": "_space",
          "type": "address"
        },
        {
          "internalType": "address",
          "name": "_tokenEntitlement",
          "type": "address"
        },
        {
          "internalType": "address",
          "name": "_userEntitlement",
          "type": "address"
        }
      ],
      "name": "updateImplementations",
      "outputs": [],
      "stateMutability": "nonpayable",
      "type": "function"
    },
    {
      "inputs": [
        {
          "internalType": "address",
          "name": "newImplementation",
          "type": "address"
        }
      ],
      "name": "upgradeTo",
      "outputs": [],
      "stateMutability": "nonpayable",
      "type": "function"
    },
    {
      "inputs": [
        {
          "internalType": "address",
          "name": "newImplementation",
          "type": "address"
        },
        {
          "internalType": "bytes",
          "name": "data",
          "type": "bytes"
        }
      ],
      "name": "upgradeToAndCall",
      "outputs": [],
      "stateMutability": "payable",
      "type": "function"
    }
  ],
  "bytecode": {
    "object": "0x60a06040523060805234801561001457600080fd5b506080516138f961004c600039600081816103f10152818161043d015281816106c80152818161070b01526107a701526138f96000f3fe6080604052600436106200011f5760003560e01c8063ad78faf311620000a1578063df2cd9fe116200006c578063df2cd9fe1462000322578063dfc666ff1462000349578063f21cd401146200036e578063f2fde38b1462000390578063f3aba30514620003b557600080fd5b8063ad78faf31462000282578063b28032f914620002a7578063be8b596714620002db578063cfc27037146200030057600080fd5b80634f1ef28611620000ee5780634f1ef28614620001ea57806352d1902d1462000201578063683c72b61462000228578063715018a6146200024a5780638da5cb5b146200026257600080fd5b806308bc0b4b14620001245780633312540a14620001635780633659cfe6146200019e57806345bfa5b114620001c5575b600080fd5b3480156200013157600080fd5b5060fd5462000146906001600160a01b031681565b6040516001600160a01b0390911681526020015b60405180910390f35b3480156200017057600080fd5b50620001466200018236600462002125565b610100602052600090815260409020546001600160a01b031681565b348015620001ab57600080fd5b50620001c3620001bd3660046200215c565b620003e7565b005b348015620001d257600080fd5b50620001c3620001e436600462002339565b620004db565b620001c3620001fb366004620023c4565b620006be565b3480156200020e57600080fd5b50620002196200079a565b6040519081526020016200015a565b3480156200023557600080fd5b5060fe5462000146906001600160a01b031681565b3480156200025757600080fd5b50620001c362000850565b3480156200026f57600080fd5b506033546001600160a01b031662000146565b3480156200028f57600080fd5b5062000146620002a1366004620024d7565b62000868565b348015620002b457600080fd5b50620002cc620002c636600462002125565b62000d7e565b6040516200015a919062002621565b348015620002e857600080fd5b50620001c3620002fa36600462002636565b62000e33565b3480156200030d57600080fd5b5060fc5462000146906001600160a01b031681565b3480156200032f57600080fd5b506200033a6200100f565b6040516200015a9190620026d7565b3480156200035657600080fd5b50620001c362000368366004620026ec565b620010f2565b3480156200037b57600080fd5b5060fb5462000146906001600160a01b031681565b3480156200039d57600080fd5b50620001c3620003af3660046200215c565b62001186565b348015620003c257600080fd5b5062000219620003d436600462002125565b6101016020526000908152604090205481565b6001600160a01b037f00000000000000000000000000000000000000000000000000000000000000001630036200043b5760405162461bcd60e51b8152600401620004329062002736565b60405180910390fd5b7f00000000000000000000000000000000000000000000000000000000000000006001600160a01b0316620004866000805160206200387d833981519152546001600160a01b031690565b6001600160a01b031614620004af5760405162461bcd60e51b8152600401620004329062002782565b620004ba8162001202565b60408051600080825260208201909252620004d8918391906200120c565b50565b600054610100900460ff1615808015620004fc5750600054600160ff909116105b80620005185750303b15801562000518575060005460ff166001145b6200057d5760405162461bcd60e51b815260206004820152602e60248201527f496e697469616c697a61626c653a20636f6e747261637420697320616c72656160448201526d191e481a5b9a5d1a585b1a5e995960921b606482015260840162000432565b6000805460ff191660011790558015620005a1576000805461ff0019166101001790555b620005ab62001384565b620005b5620013ae565b620005bf620013e2565b60fb80546001600160a01b038089166001600160a01b03199283161790925560fc805488841690831617905560fd805487841690831617905560fe80549286169290911691909117905560005b82518110156200066e5760ff8382815181106200062d576200062d620027ce565b6020908102919091018101518254600181018455600093845291909220019062000658908262002864565b5080620006658162002930565b9150506200060c565b508015620006b6576000805461ff0019169055604051600181527f7f26b83ff96e1f2b6a682f133852f6798a09c465da95921460cefb38474024989060200160405180910390a15b505050505050565b6001600160a01b037f0000000000000000000000000000000000000000000000000000000000000000163003620007095760405162461bcd60e51b8152600401620004329062002736565b7f00000000000000000000000000000000000000000000000000000000000000006001600160a01b0316620007546000805160206200387d833981519152546001600160a01b031690565b6001600160a01b0316146200077d5760405162461bcd60e51b8152600401620004329062002782565b620007888262001202565b62000796828260016200120c565b5050565b6000306001600160a01b037f000000000000000000000000000000000000000000000000000000000000000016146200083c5760405162461bcd60e51b815260206004820152603860248201527f555550535570677261646561626c653a206d757374206e6f742062652063616c60448201527f6c6564207468726f7567682064656c656761746563616c6c0000000000000000606482015260840162000432565b506000805160206200387d83398151915290565b6200085a62001416565b62000866600062001472565b565b600062000874620014c4565b620008808a8a6200151f565b6000879003620008a357604051630e52390960e41b815260040160405180910390fd5b60008888604051620008b792919062002958565b6040805191829003909120600081815261010060205291909120549091506001600160a01b031615620008fd57604051633881599b60e11b815260040160405180910390fd5b60fe546040516275a31760e01b81526000916001600160a01b0316906275a31790620009329033908c908c9060040162002991565b6020604051808303816000875af115801562000952573d6000803e3d6000fd5b505050506040513d601f19601f82011682018060405250810190620009789190620029b8565b60008381526101016020908152604080832084905560fc5481516004815260248101835292830180516001600160e01b031663204a7f0760e21b179052905193945091926001600160a01b0390921691620009d39062002117565b620009e0929190620029d2565b604051809103906000f080158015620009fd573d6000803e3d6000fd5b5060fd5460408051600481526024810182526020810180516001600160e01b031663204a7f0760e21b17905290519293506000926001600160a01b039092169162000a489062002117565b62000a55929190620029d2565b604051809103906000f08015801562000a72573d6000803e3d6000fd5b506040805160028082526060820183529293506000929091602083019080368337019050509050828160008151811062000ab05762000ab0620027ce565b60200260200101906001600160a01b031690816001600160a01b031681525050818160018151811062000ae75762000ae7620027ce565b60200260200101906001600160a01b031690816001600160a01b03168152505060fb60009054906101000a90046001600160a01b03168f8f8f8f8560405160240162000b3895949392919062002a00565b60408051601f198184030181529181526020820180516001600160e01b031663ca27593160e01b1790525162000b6e9062002117565b62000b7b929190620029d2565b604051809103906000f08015801562000b98573d6000803e3d6000fd5b5060008681526101006020526040812080546001600160a01b0319166001600160a01b0384161790559096505b815181101562000c625781818151811062000be45762000be4620027ce565b602090810291909101015160405162ed014d60e21b81526001600160a01b038981166004830152909116906303b4053490602401600060405180830381600087803b15801562000c3357600080fd5b505af115801562000c48573d6000803e3d6000fd5b50505050808062000c599062002930565b91505062000bc5565b5062000c708684866200175f565b62000c88868362000c828b8d62002a7c565b620019e6565b62000ca086848462000c9a8b62002c5a565b62001b1c565b6001600160a01b03861663f2fde38b336040516001600160e01b031960e084901b1681526001600160a01b039091166004820152602401600060405180830381600087803b15801562000cf257600080fd5b505af115801562000d07573d6000803e3d6000fd5b5050505062000d133390565b6001600160a01b0316866001600160a01b03167f78d7e431fd0a46d11f5c8889cf2db64699be1f95ccb8b1419211c83bcdbce5808f8f60405162000d5992919062002d1f565b60405180910390a3505050505062000d716001606555565b9998505050505050505050565b60ff818154811062000d8f57600080fd5b90600052602060002001600091509050805462000dac90620027e4565b80601f016020809104026020016040519081016040528092919081815260200182805462000dda90620027e4565b801562000e2b5780601f1062000dff5761010080835404028352916020019162000e2b565b820191906000526020600020905b81548152906001019060200180831162000e0d57829003601f168201915b505050505081565b62000e3d62001416565b60005b818110156200100a5760005b60ff5481101562000fa65762000f7284848481811062000e705762000e70620027ce565b905060200281019062000e84919062002d35565b8080601f0160208091040260200160405190810160405280939291908181526020018383808284376000920191909152505060ff8054909250859150811062000ed15762000ed1620027ce565b90600052602060002001805462000ee890620027e4565b80601f016020809104026020016040519081016040528092919081815260200182805462000f1690620027e4565b801562000f675780601f1062000f3b5761010080835404028352916020019162000f67565b820191906000526020600020905b81548152906001019060200180831162000f4957829003601f168201915b505050505062001e01565b1562000f9157604051636571d65f60e01b815260040160405180910390fd5b8062000f9d8162002930565b91505062000e4c565b5060ff83838381811062000fbe5762000fbe620027ce565b905060200281019062000fd2919062002d35565b8254600181018455600093845260209093209092019162000ff4918362002d7e565b5080620010018162002930565b91505062000e40565b505050565b606060ff805480602002602001604051908101604052809291908181526020016000905b82821015620010e95783829060005260206000200180546200105590620027e4565b80601f01602080910402602001604051908101604052809291908181526020018280546200108390620027e4565b8015620010d45780601f10620010a857610100808354040283529160200191620010d4565b820191906000526020600020905b815481529060010190602001808311620010b657829003601f168201915b50505050508152602001906001019062001033565b50505050905090565b620010fc62001416565b6001600160a01b03831615620011285760fb80546001600160a01b0319166001600160a01b0385161790555b6001600160a01b03821615620011545760fc80546001600160a01b0319166001600160a01b0384161790555b6001600160a01b038116156200100a5760fd80546001600160a01b0383166001600160a01b0319909116179055505050565b6200119062001416565b6001600160a01b038116620011f75760405162461bcd60e51b815260206004820152602660248201527f4f776e61626c653a206e6577206f776e657220697320746865207a65726f206160448201526564647265737360d01b606482015260840162000432565b620004d88162001472565b620004d862001416565b7f4910fdfa16fed3260ed0e7147f7cc6da11a60208b5b9406d12a635614ffd91435460ff161562001242576200100a8362001e5e565b826001600160a01b03166352d1902d6040518163ffffffff1660e01b8152600401602060405180830381865afa9250505080156200129f575060408051601f3d908101601f191682019092526200129c91810190620029b8565b60015b620013045760405162461bcd60e51b815260206004820152602e60248201527f45524331393637557067726164653a206e657720696d706c656d656e7461746960448201526d6f6e206973206e6f74205555505360901b606482015260840162000432565b6000805160206200387d8339815191528114620013765760405162461bcd60e51b815260206004820152602960248201527f45524331393637557067726164653a20756e737570706f727465642070726f786044820152681a58589b195555525160ba1b606482015260840162000432565b506200100a83838362001efd565b600054610100900460ff16620008665760405162461bcd60e51b8152600401620004329062002e4a565b600054610100900460ff16620013d85760405162461bcd60e51b8152600401620004329062002e4a565b6200086662001f28565b600054610100900460ff166200140c5760405162461bcd60e51b8152600401620004329062002e4a565b6200086662001f5d565b6033546001600160a01b03163314620008665760405162461bcd60e51b815260206004820181905260248201527f4f776e61626c653a2063616c6c6572206973206e6f7420746865206f776e6572604482015260640162000432565b603380546001600160a01b038381166001600160a01b0319831681179093556040519116919082907f8be0079c531659141344cd1fd0a4f28419497f9722a3daafe3b4186f6b6457e090600090a35050565b600260655403620015185760405162461bcd60e51b815260206004820152601f60248201527f5265656e7472616e637947756172643a207265656e7472616e742063616c6c00604482015260640162000432565b6002606555565b600082828080601f0160208091040260200160405190810160405280939291908181526020018383808284376000920191909152505082519293505060029091109050806200156f575080516020105b156200158e5760405163354b556f60e11b815260040160405180910390fd5b805160005b818110156200175857600360fc1b838281518110620015b657620015b6620027ce565b01602001516001600160f81b0319161080620015f85750603d60f91b838281518110620015e757620015e7620027ce565b01602001516001600160f81b031916115b806200165c5750603960f81b838281518110620016195762001619620027ce565b01602001516001600160f81b0319161180156200165c5750606160f81b8382815181106200164b576200164b620027ce565b01602001516001600160f81b031916105b8015620016915750828181518110620016795762001679620027ce565b6020910101516001600160f81b031916601760f91b14155b8015620016c65750828181518110620016ae57620016ae620027ce565b6020910101516001600160f81b031916602d60f81b14155b8015620016fb5750828181518110620016e357620016e3620027ce565b6020910101516001600160f81b031916605f60f81b14155b8015620017305750828181518110620017185762001718620027ce565b6020910101516001600160f81b031916600160fd1b14155b156200174f5760405163f8fa659760e01b815260040160405180910390fd5b60010162001593565b5050505050565b604080516001808252818301909252600091816020015b60408051608081018252600080825260208083018290529282015260608082015282526000199092019101816200177657505060408051600180825281830190925291925060009190602080830190803683370190505090508281600081518110620017e657620017e6620027ce565b6020908102919091018101919091526040805160808101825260fe546001600160a01b031681526001928101839052908101919091526060810182905282518390600090620018395762001839620027ce565b6020908102919091010152604080516001808252818301909252600091816020015b6040805180820190915260008152606060208201528152602001906001900390816200185b5790505090506040518060400160405280866001600160a01b0316815260200184604051602001620018b3919062002e95565b60405160208183030381529060405281525081600081518110620018db57620018db620027ce565b60200260200101819052506000866001600160a01b0316638fcd793d6040518060400160405280600581526020016427bbb732b960d91b81525060ff856040518463ffffffff1660e01b8152600401620019389392919062002fd0565b6020604051808303816000875af115801562001958573d6000803e3d6000fd5b505050506040513d601f19601f820116820180604052508101906200197e9190620029b8565b6040516324ccd58b60e11b8152600481018290529091506001600160a01b03881690634999ab1690602401600060405180830381600087803b158015620019c457600080fd5b505af1158015620019d9573d6000803e3d6000fd5b5050505050505050505050565b604080516001808252818301909252600091816020015b604080518082019091526000815260606020820152815260200190600190039081620019fd579050506040805180820182526001600160a01b0386168152815160016020828101919091529394509092830191016040516020818303038152906040528152508160008151811062001a795762001a79620027ce565b6020026020010181905250836001600160a01b0316638fcd793d6040518060400160405280600881526020016745766572796f6e6560c01b81525084846040518463ffffffff1660e01b815260040162001ad693929190620030d3565b6020604051808303816000875af115801562001af6573d6000803e3d6000fd5b505050506040513d601f19601f82011682018060405250810190620017589190620029b8565b6020810151511562001df457604080516001808252818301909252600091816020015b60408051808201909152600081526060602082015281526020019060019003908162001b3f579050509050604051806040016040528060006001600160a01b03168152602001604051806020016040528060008152508152508160008151811062001bae5762001bae620027ce565b60200260200101819052506000856001600160a01b0316638fcd793d84600001518560200151856040518463ffffffff1660e01b815260040162001bf593929190620030d3565b6020604051808303816000875af115801562001c15573d6000803e3d6000fd5b505050506040513d601f19601f8201168201806040525081019062001c3b9190620029b8565b905060005b83606001515181101562001d3457866001600160a01b031663ba201ba8836040518060400160405280896001600160a01b031681526020018860600151868151811062001c915762001c91620027ce565b602002602001015160405160200162001cb991906001600160a01b0391909116815260200190565b6040516020818303038152906040528152506040518363ffffffff1660e01b815260040162001cea9291906200311c565b600060405180830381600087803b15801562001d0557600080fd5b505af115801562001d1a573d6000803e3d6000fd5b50505050808062001d2b9062002930565b91505062001c40565b5082604001515160000362001d4b57505062001df4565b856001600160a01b031663ba201ba8826040518060400160405280896001600160a01b03168152602001876040015160405160200162001d8c919062002e95565b6040516020818303038152906040528152506040518363ffffffff1660e01b815260040162001dbd9291906200311c565b600060405180830381600087803b15801562001dd857600080fd5b505af115801562001ded573d6000803e3d6000fd5b5050505050505b50505050565b6001606555565b60008160405160200162001e16919062003137565b604051602081830303815290604052805190602001208360405160200162001e3f919062003137565b6040516020818303038152906040528051906020012014905092915050565b6001600160a01b0381163b62001ecd5760405162461bcd60e51b815260206004820152602d60248201527f455243313936373a206e657720696d706c656d656e746174696f6e206973206e60448201526c1bdd08184818dbdb9d1c9858dd609a1b606482015260840162000432565b6000805160206200387d83398151915280546001600160a01b0319166001600160a01b0392909216919091179055565b62001f088362001f87565b60008251118062001f165750805b156200100a5762001df4838362001fc9565b600054610100900460ff1662001f525760405162461bcd60e51b8152600401620004329062002e4a565b620008663362001472565b600054610100900460ff1662001dfa5760405162461bcd60e51b8152600401620004329062002e4a565b62001f928162001e5e565b6040516001600160a01b038216907fbc7cd75a20ee27fd9adebab32041f755214dbc6bffa90cc0225b39da2e5c2d3b90600090a250565b60606001600160a01b0383163b620020335760405162461bcd60e51b815260206004820152602660248201527f416464726573733a2064656c65676174652063616c6c20746f206e6f6e2d636f6044820152651b9d1c9858dd60d21b606482015260840162000432565b600080846001600160a01b03168460405162002050919062003137565b600060405180830381855af49150503d80600081146200208d576040519150601f19603f3d011682016040523d82523d6000602084013e62002092565b606091505b5091509150620020bd82826040518060600160405280602781526020016200389d60279139620020c6565b95945050505050565b60608315620020d7575081620020e3565b620020e38383620020ea565b9392505050565b815115620020fb5781518083602001fd5b8060405162461bcd60e51b815260040162000432919062002621565b610727806200315683390190565b6000602082840312156200213857600080fd5b5035919050565b80356001600160a01b03811681146200215757600080fd5b919050565b6000602082840312156200216f57600080fd5b620020e3826200213f565b634e487b7160e01b600052604160045260246000fd5b604051608081016001600160401b0381118282101715620021b557620021b56200217a565b60405290565b604051601f8201601f191681016001600160401b0381118282101715620021e657620021e66200217a565b604052919050565b60006001600160401b038211156200220a576200220a6200217a565b5060051b60200190565b60006001600160401b038311156200223057620022306200217a565b62002245601f8401601f1916602001620021bb565b90508281528383830111156200225a57600080fd5b828260208301376000602084830101529392505050565b600082601f8301126200228357600080fd5b620020e38383356020850162002214565b6000620022ab620022a584620021ee565b620021bb565b8381529050602080820190600585901b840186811115620022cb57600080fd5b845b818110156200230b5780356001600160401b03811115620022ee5760008081fd5b620022fc8982890162002271565b855250928201928201620022cd565b505050509392505050565b600082601f8301126200232857600080fd5b620020e38383356020850162002294565b600080600080600060a086880312156200235257600080fd5b6200235d866200213f565b94506200236d602087016200213f565b93506200237d604087016200213f565b92506200238d606087016200213f565b915060808601356001600160401b03811115620023a957600080fd5b620023b78882890162002316565b9150509295509295909350565b60008060408385031215620023d857600080fd5b620023e3836200213f565b915060208301356001600160401b03811115620023ff57600080fd5b8301601f810185136200241157600080fd5b620024228582356020840162002214565b9150509250929050565b60008083601f8401126200243f57600080fd5b5081356001600160401b038111156200245757600080fd5b6020830191508360208285010111156200247057600080fd5b9250929050565b60008083601f8401126200248a57600080fd5b5081356001600160401b03811115620024a257600080fd5b6020830191508360208260051b85010111156200247057600080fd5b600060808284031215620024d157600080fd5b50919050565b600080600080600080600080600060a08a8c031215620024f657600080fd5b89356001600160401b03808211156200250e57600080fd5b6200251c8d838e016200242c565b909b50995060208c01359150808211156200253657600080fd5b620025448d838e016200242c565b909950975060408c01359150808211156200255e57600080fd5b6200256c8d838e016200242c565b909750955060608c01359150808211156200258657600080fd5b620025948d838e0162002477565b909550935060808c0135915080821115620025ae57600080fd5b50620025bd8c828d01620024be565b9150509295985092959850929598565b60005b83811015620025ea578181015183820152602001620025d0565b50506000910152565b600081518084526200260d816020860160208601620025cd565b601f01601f19169290920160200192915050565b602081526000620020e36020830184620025f3565b600080602083850312156200264a57600080fd5b82356001600160401b038111156200266157600080fd5b6200266f8582860162002477565b90969095509350505050565b600082825180855260208086019550808260051b84010181860160005b84811015620026ca57601f19868403018952620026b7838351620025f3565b9884019892509083019060010162002698565b5090979650505050505050565b602081526000620020e360208301846200267b565b6000806000606084860312156200270257600080fd5b6200270d846200213f565b92506200271d602085016200213f565b91506200272d604085016200213f565b90509250925092565b6020808252602c908201527f46756e6374696f6e206d7573742062652063616c6c6564207468726f7567682060408201526b19195b1959d85d1958d85b1b60a21b606082015260800190565b6020808252602c908201527f46756e6374696f6e206d7573742062652063616c6c6564207468726f7567682060408201526b6163746976652070726f787960a01b606082015260800190565b634e487b7160e01b600052603260045260246000fd5b600181811c90821680620027f957607f821691505b602082108103620024d157634e487b7160e01b600052602260045260246000fd5b601f8211156200100a57600081815260208120601f850160051c81016020861015620028435750805b601f850160051c820191505b81811015620006b6578281556001016200284f565b81516001600160401b038111156200288057620028806200217a565b6200289881620028918454620027e4565b846200281a565b602080601f831160018114620028d05760008415620028b75750858301515b600019600386901b1c1916600185901b178555620006b6565b600085815260208120601f198616915b828110156200290157888601518255948401946001909101908401620028e0565b5085821015620029205787850151600019600388901b60f8161c191681555b5050505050600190811b01905550565b6000600182016200295157634e487b7160e01b600052601160045260246000fd5b5060010190565b8183823760009101908152919050565b81835281816020850137506000828201602090810191909152601f909101601f19169091010190565b6001600160a01b0384168152604060208201819052600090620020bd908301848662002968565b600060208284031215620029cb57600080fd5b5051919050565b6001600160a01b0383168152604060208201819052600090620029f890830184620025f3565b949350505050565b60608152600062002a1660608301878962002968565b60208382038185015262002a2c82878962002968565b8481036040860152855180825282870193509082019060005b8181101562002a6c5784516001600160a01b03168352938301939183019160010162002a45565b50909a9950505050505050505050565b6000620020e336848462002294565b600082601f83011262002a9d57600080fd5b8135602062002ab0620022a583620021ee565b828152600592831b850182019282820191908785111562002ad057600080fd5b8387015b85811015620026ca5780356001600160401b038082111562002af65760008081fd5b908901906080828c03601f190181131562002b115760008081fd5b62002b1b62002190565b62002b288985016200213f565b81526040808501358a830152606080860135801515811462002b4a5760008081fd5b8383015292850135928484111562002b625760008081fd5b83860195508e603f87011262002b7a57600094508485fd5b8a860135945062002b8f620022a586620021ee565b85815294881b86018201948b810194508f86111562002bae5760008081fd5b958201955b8587101562002bce5786358552958b0195938b019362002bb3565b9083015250875250505092840192840162002ad4565b600082601f83011262002bf657600080fd5b8135602062002c09620022a583620021ee565b82815260059290921b8401810191818101908684111562002c2957600080fd5b8286015b8481101562002c4f5762002c41816200213f565b835291830191830162002c2d565b509695505050505050565b60006080823603121562002c6d57600080fd5b62002c7762002190565b82356001600160401b038082111562002c8f57600080fd5b62002c9d3683870162002271565b8352602085013591508082111562002cb457600080fd5b62002cc23683870162002316565b6020840152604085013591508082111562002cdc57600080fd5b62002cea3683870162002a8b565b6040840152606085013591508082111562002d0457600080fd5b5062002d133682860162002be4565b60608301525092915050565b602081526000620029f860208301848662002968565b6000808335601e1984360301811262002d4d57600080fd5b8301803591506001600160401b0382111562002d6857600080fd5b6020019150368190038213156200247057600080fd5b6001600160401b0383111562002d985762002d986200217a565b62002db08362002da98354620027e4565b836200281a565b6000601f84116001811462002de7576000851562002dce5750838201355b600019600387901b1c1916600186901b17835562001758565b600083815260209020601f19861690835b8281101562002e1a578685013582556020948501946001909201910162002df8565b508682101562002e385760001960f88860031b161c19848701351681555b505060018560011b0183555050505050565b6020808252602b908201527f496e697469616c697a61626c653a20636f6e7472616374206973206e6f74206960408201526a6e697469616c697a696e6760a81b606082015260800190565b60006020808301818452808551808352604092508286019150828160051b8701018488016000805b8481101562002f4957898403603f19018652825180516001600160a01b031685528881015189860152878101511515888601526060908101516080918601829052805191860182905289019060a086019084905b8082101562002f335783518352928b0192918b01916001919091019062002f11565b5050968901969450509187019160010162002ebd565b50919998505050505050505050565b60018060a01b0381511682526000602082015160406020850152620029f86040850182620025f3565b600082825180855260208086019550808260051b84010181860160005b84811015620026ca57601f1986840301895262002fbd83835162002f58565b9884019892509083019060010162002f9e565b60608152600062002fe56060830186620025f3565b602083820381850152818654808452828401915060058382821b86010160008a8152858120815b85811015620030ad57601f198985030187528282546200302c81620027e4565b808752600182811680156200304a5760018114620030645762003095565b60ff198416898e01528215158a1b89018d01945062003095565b8688528c8820885b848110156200308d5781548f828d01015283820191508e810190506200306c565b8a018e019550505b50998b0199929650505091909101906001016200300c565b5050508781036040890152620030c4818a62002f81565b9b9a5050505050505050505050565b606081526000620030e86060830186620025f3565b8281036020840152620030fc81866200267b565b9050828103604084015262003112818562002f81565b9695505050505050565b828152604060208201526000620029f8604083018462002f58565b600082516200314b818460208701620025cd565b919091019291505056fe608060405260405161072738038061072783398101604081905261002291610319565b61002e82826000610035565b5050610436565b61003e8361006b565b60008251118061004b5750805b156100665761006483836100ab60201b6100291760201c565b505b505050565b610074816100d7565b6040516001600160a01b038216907fbc7cd75a20ee27fd9adebab32041f755214dbc6bffa90cc0225b39da2e5c2d3b90600090a250565b60606100d08383604051806060016040528060278152602001610700602791396101a9565b9392505050565b6100ea8161022260201b6100551760201c565b6101515760405162461bcd60e51b815260206004820152602d60248201527f455243313936373a206e657720696d706c656d656e746174696f6e206973206e60448201526c1bdd08184818dbdb9d1c9858dd609a1b60648201526084015b60405180910390fd5b806101887f360894a13ba1a3210667c828492db98dca3e2076cc3735a920a3ca505d382bbc60001b61023160201b6100641760201c565b80546001600160a01b0319166001600160a01b039290921691909117905550565b6060600080856001600160a01b0316856040516101c691906103e7565b600060405180830381855af49150503d8060008114610201576040519150601f19603f3d011682016040523d82523d6000602084013e610206565b606091505b50909250905061021886838387610234565b9695505050505050565b6001600160a01b03163b151590565b90565b606083156102a357825160000361029c576001600160a01b0385163b61029c5760405162461bcd60e51b815260206004820152601d60248201527f416464726573733a2063616c6c20746f206e6f6e2d636f6e74726163740000006044820152606401610148565b50816102ad565b6102ad83836102b5565b949350505050565b8151156102c55781518083602001fd5b8060405162461bcd60e51b81526004016101489190610403565b634e487b7160e01b600052604160045260246000fd5b60005b838110156103105781810151838201526020016102f8565b50506000910152565b6000806040838503121561032c57600080fd5b82516001600160a01b038116811461034357600080fd5b60208401519092506001600160401b038082111561036057600080fd5b818501915085601f83011261037457600080fd5b815181811115610386576103866102df565b604051601f8201601f19908116603f011681019083821181831017156103ae576103ae6102df565b816040528281528860208487010111156103c757600080fd5b6103d88360208301602088016102f5565b80955050505050509250929050565b600082516103f98184602087016102f5565b9190910192915050565b60208152600082518060208401526104228160408501602087016102f5565b601f01601f19169190910160400192915050565b6102bb806104456000396000f3fe60806040523661001357610011610017565b005b6100115b610027610022610067565b61009f565b565b606061004e838360405180606001604052806027815260200161025f602791396100c3565b9392505050565b6001600160a01b03163b151590565b90565b600061009a7f360894a13ba1a3210667c828492db98dca3e2076cc3735a920a3ca505d382bbc546001600160a01b031690565b905090565b3660008037600080366000845af43d6000803e8080156100be573d6000f35b3d6000fd5b6060600080856001600160a01b0316856040516100e0919061020f565b600060405180830381855af49150503d806000811461011b576040519150601f19603f3d011682016040523d82523d6000602084013e610120565b606091505b50915091506101318683838761013b565b9695505050505050565b606083156101af5782516000036101a8576001600160a01b0385163b6101a85760405162461bcd60e51b815260206004820152601d60248201527f416464726573733a2063616c6c20746f206e6f6e2d636f6e747261637400000060448201526064015b60405180910390fd5b50816101b9565b6101b983836101c1565b949350505050565b8151156101d15781518083602001fd5b8060405162461bcd60e51b815260040161019f919061022b565b60005b838110156102065781810151838201526020016101ee565b50506000910152565b600082516102218184602087016101eb565b9190910192915050565b602081526000825180602084015261024a8160408501602087016101eb565b601f01601f1916919091016040019291505056fe416464726573733a206c6f772d6c6576656c2064656c65676174652063616c6c206661696c6564a2646970667358221220bcb631bc62aa9db130260e9e789be1bbcfb94d1291b8b22c1961be187bb3183664736f6c63430008110033416464726573733a206c6f772d6c6576656c2064656c65676174652063616c6c206661696c6564360894a13ba1a3210667c828492db98dca3e2076cc3735a920a3ca505d382bbc416464726573733a206c6f772d6c6576656c2064656c65676174652063616c6c206661696c6564a264697066735822122010c776047631df531ea0cf8794bbd825d403e0cb6a61396fffa8fecedacfb98a64736f6c63430008110033",
    "linkReferences": {}
  },
  "methodIdentifiers": {
    "SPACE_IMPLEMENTATION_ADDRESS()": "f21cd401",
    "SPACE_TOKEN_ADDRESS()": "683c72b6",
    "TOKEN_IMPLEMENTATION_ADDRESS()": "cfc27037",
    "USER_IMPLEMENTATION_ADDRESS()": "08bc0b4b",
    "addOwnerPermissions(string[])": "be8b5967",
    "createSpace(string,string,string,string[],(string,string[],(address,uint256,bool,uint256[])[],address[]))": "ad78faf3",
    "getOwnerPermissions()": "df2cd9fe",
    "initialize(address,address,address,address,string[])": "45bfa5b1",
    "owner()": "8da5cb5b",
    "ownerPermissions(uint256)": "b28032f9",
    "proxiableUUID()": "52d1902d",
    "renounceOwnership()": "715018a6",
    "spaceByHash(bytes32)": "3312540a",
    "tokenByHash(bytes32)": "f3aba305",
    "transferOwnership(address)": "f2fde38b",
    "updateImplementations(address,address,address)": "dfc666ff",
    "upgradeTo(address)": "3659cfe6",
    "upgradeToAndCall(address,bytes)": "4f1ef286"
  },
  "id": 47
}