{
  "abi": [
    {
      "inputs": [],
      "stateMutability": "nonpayable",
      "type": "constructor"
    },
    {
      "inputs": [],
      "name": "AddRoleFailed",
      "type": "error"
    },
    {
      "inputs": [],
      "name": "ChannelAlreadyRegistered",
      "type": "error"
    },
    {
      "inputs": [],
      "name": "ChannelDoesNotExist",
      "type": "error"
    },
    {
      "inputs": [],
      "name": "EntitlementAlreadyExists",
      "type": "error"
    },
    {
      "inputs": [],
      "name": "EntitlementAlreadyWhitelisted",
      "type": "error"
    },
    {
      "inputs": [],
      "name": "EntitlementModuleNotSupported",
      "type": "error"
    },
    {
      "inputs": [],
      "name": "EntitlementNotWhitelisted",
      "type": "error"
    },
    {
      "inputs": [],
      "name": "InvalidParameters",
      "type": "error"
    },
    {
      "inputs": [],
      "name": "MissingOwnerPermission",
      "type": "error"
    },
    {
      "inputs": [],
      "name": "NameContainsInvalidCharacters",
      "type": "error"
    },
    {
      "inputs": [],
      "name": "NameLengthInvalid",
      "type": "error"
    },
    {
      "inputs": [],
      "name": "NotAllowed",
      "type": "error"
    },
    {
      "inputs": [],
      "name": "PermissionAlreadyExists",
      "type": "error"
    },
    {
      "inputs": [],
      "name": "RoleDoesNotExist",
      "type": "error"
    },
    {
      "inputs": [],
      "name": "RoleIsAssignedToEntitlement",
      "type": "error"
    },
    {
      "anonymous": false,
      "inputs": [
        {
          "indexed": false,
          "internalType": "address",
          "name": "previousAdmin",
          "type": "address"
        },
        {
          "indexed": false,
          "internalType": "address",
          "name": "newAdmin",
          "type": "address"
        }
      ],
      "name": "AdminChanged",
      "type": "event"
    },
    {
      "anonymous": false,
      "inputs": [
        {
          "indexed": true,
          "internalType": "address",
          "name": "beacon",
          "type": "address"
        }
      ],
      "name": "BeaconUpgraded",
      "type": "event"
    },
    {
      "anonymous": false,
      "inputs": [
        {
          "indexed": false,
          "internalType": "uint8",
          "name": "version",
          "type": "uint8"
        }
      ],
      "name": "Initialized",
      "type": "event"
    },
    {
      "anonymous": false,
      "inputs": [
        {
          "indexed": true,
          "internalType": "address",
          "name": "implementation",
          "type": "address"
        }
      ],
      "name": "Upgraded",
      "type": "event"
    },
    {
      "inputs": [
        {
          "internalType": "uint256",
          "name": "_roleId",
          "type": "uint256"
        },
        {
          "internalType": "string",
          "name": "_permission",
          "type": "string"
        }
      ],
      "name": "addPermissionToRole",
      "outputs": [],
      "stateMutability": "nonpayable",
      "type": "function"
    },
    {
      "inputs": [
        {
          "internalType": "string",
          "name": "_channelNetworkId",
          "type": "string"
        },
        {
          "internalType": "address",
          "name": "_entitlement",
          "type": "address"
        },
        {
          "internalType": "uint256",
          "name": "_roleId",
          "type": "uint256"
        }
      ],
      "name": "addRoleToChannel",
      "outputs": [],
      "stateMutability": "nonpayable",
      "type": "function"
    },
    {
      "inputs": [
        {
          "internalType": "uint256",
          "name": "_roleId",
          "type": "uint256"
        },
        {
          "components": [
            {
              "internalType": "address",
              "name": "module",
              "type": "address"
            },
            {
              "internalType": "bytes",
              "name": "data",
              "type": "bytes"
            }
          ],
          "internalType": "struct DataTypes.Entitlement",
          "name": "_entitlement",
          "type": "tuple"
        }
      ],
      "name": "addRoleToEntitlement",
      "outputs": [],
      "stateMutability": "nonpayable",
      "type": "function"
    },
    {
      "inputs": [
        {
          "internalType": "uint256",
          "name": "",
          "type": "uint256"
        }
      ],
      "name": "channels",
      "outputs": [
        {
          "internalType": "bytes32",
          "name": "",
          "type": "bytes32"
        }
      ],
      "stateMutability": "view",
      "type": "function"
    },
    {
      "inputs": [
        {
          "internalType": "bytes32",
          "name": "",
          "type": "bytes32"
        }
      ],
      "name": "channelsByHash",
      "outputs": [
        {
          "internalType": "string",
          "name": "name",
          "type": "string"
        },
        {
          "internalType": "string",
          "name": "channelNetworkId",
          "type": "string"
        },
        {
          "internalType": "bytes32",
          "name": "channelHash",
          "type": "bytes32"
        },
        {
          "internalType": "uint256",
          "name": "createdAt",
          "type": "uint256"
        },
        {
          "internalType": "bool",
          "name": "disabled",
          "type": "bool"
        }
      ],
      "stateMutability": "view",
      "type": "function"
    },
    {
      "inputs": [
        {
          "internalType": "string",
          "name": "channelName",
          "type": "string"
        },
        {
          "internalType": "string",
          "name": "channelNetworkId",
          "type": "string"
        },
        {
          "internalType": "uint256[]",
          "name": "roleIds",
          "type": "uint256[]"
        }
      ],
      "name": "createChannel",
      "outputs": [
        {
          "internalType": "bytes32",
          "name": "",
          "type": "bytes32"
        }
      ],
      "stateMutability": "nonpayable",
      "type": "function"
    },
    {
      "inputs": [
        {
          "internalType": "string",
          "name": "_roleName",
          "type": "string"
        },
        {
          "internalType": "string[]",
          "name": "_permissions",
          "type": "string[]"
        },
        {
          "components": [
            {
              "internalType": "address",
              "name": "module",
              "type": "address"
            },
            {
              "internalType": "bytes",
              "name": "data",
              "type": "bytes"
            }
          ],
          "internalType": "struct DataTypes.Entitlement[]",
          "name": "_entitlements",
          "type": "tuple[]"
        }
      ],
      "name": "createRole",
      "outputs": [
        {
          "internalType": "uint256",
          "name": "",
          "type": "uint256"
        }
      ],
      "stateMutability": "nonpayable",
      "type": "function"
    },
    {
      "inputs": [
        {
          "internalType": "address",
          "name": "",
          "type": "address"
        }
      ],
      "name": "defaultEntitlements",
      "outputs": [
        {
          "internalType": "bool",
          "name": "",
          "type": "bool"
        }
      ],
      "stateMutability": "view",
      "type": "function"
    },
    {
      "inputs": [],
      "name": "disabled",
      "outputs": [
        {
          "internalType": "bool",
          "name": "",
          "type": "bool"
        }
      ],
      "stateMutability": "view",
      "type": "function"
    },
    {
      "inputs": [
        {
          "internalType": "uint256",
          "name": "",
          "type": "uint256"
        }
      ],
      "name": "entitlements",
      "outputs": [
        {
          "internalType": "address",
          "name": "",
          "type": "address"
        }
      ],
      "stateMutability": "view",
      "type": "function"
    },
    {
      "inputs": [
        {
          "internalType": "bytes32",
          "name": "_channelHash",
          "type": "bytes32"
        }
      ],
      "name": "getChannelByHash",
      "outputs": [
        {
          "components": [
            {
              "internalType": "string",
              "name": "name",
              "type": "string"
            },
            {
              "internalType": "string",
              "name": "channelNetworkId",
              "type": "string"
            },
            {
              "internalType": "bytes32",
              "name": "channelHash",
              "type": "bytes32"
            },
            {
              "internalType": "uint256",
              "name": "createdAt",
              "type": "uint256"
            },
            {
              "internalType": "bool",
              "name": "disabled",
              "type": "bool"
            }
          ],
          "internalType": "struct DataTypes.Channel",
          "name": "",
          "type": "tuple"
        }
      ],
      "stateMutability": "view",
      "type": "function"
    },
    {
      "inputs": [],
      "name": "getChannels",
      "outputs": [
        {
          "internalType": "bytes32[]",
          "name": "",
          "type": "bytes32[]"
        }
      ],
      "stateMutability": "view",
      "type": "function"
    },
    {
      "inputs": [
        {
          "internalType": "string",
          "name": "_moduleType",
          "type": "string"
        }
      ],
      "name": "getEntitlementByModuleType",
      "outputs": [
        {
          "internalType": "address",
          "name": "",
          "type": "address"
        }
      ],
      "stateMutability": "view",
      "type": "function"
    },
    {
      "inputs": [
        {
          "internalType": "uint256",
          "name": "_roleId",
          "type": "uint256"
        }
      ],
      "name": "getEntitlementIdsByRoleId",
      "outputs": [
        {
          "internalType": "bytes32[]",
          "name": "",
          "type": "bytes32[]"
        }
      ],
      "stateMutability": "view",
      "type": "function"
    },
    {
      "inputs": [],
      "name": "getEntitlements",
      "outputs": [
        {
          "internalType": "address[]",
          "name": "",
          "type": "address[]"
        }
      ],
      "stateMutability": "view",
      "type": "function"
    },
    {
      "inputs": [
        {
          "internalType": "uint256",
          "name": "_roleId",
          "type": "uint256"
        }
      ],
      "name": "getPermissionsByRoleId",
      "outputs": [
        {
          "internalType": "bytes32[]",
          "name": "",
          "type": "bytes32[]"
        }
      ],
      "stateMutability": "view",
      "type": "function"
    },
    {
      "inputs": [
        {
          "internalType": "uint256",
          "name": "_roleId",
          "type": "uint256"
        }
      ],
      "name": "getRoleById",
      "outputs": [
        {
          "components": [
            {
              "internalType": "uint256",
              "name": "roleId",
              "type": "uint256"
            },
            {
              "internalType": "string",
              "name": "name",
              "type": "string"
            }
          ],
          "internalType": "struct DataTypes.Role",
          "name": "",
          "type": "tuple"
        }
      ],
      "stateMutability": "view",
      "type": "function"
    },
    {
      "inputs": [],
      "name": "getRoles",
      "outputs": [
        {
          "components": [
            {
              "internalType": "uint256",
              "name": "roleId",
              "type": "uint256"
            },
            {
              "internalType": "string",
              "name": "name",
              "type": "string"
            }
          ],
          "internalType": "struct DataTypes.Role[]",
          "name": "",
          "type": "tuple[]"
        }
      ],
      "stateMutability": "view",
      "type": "function"
    },
    {
      "inputs": [
        {
          "internalType": "address",
          "name": "",
          "type": "address"
        }
      ],
      "name": "hasEntitlement",
      "outputs": [
        {
          "internalType": "bool",
          "name": "",
          "type": "bool"
        }
      ],
      "stateMutability": "view",
      "type": "function"
    },
    {
      "inputs": [
        {
          "internalType": "string",
          "name": "_name",
          "type": "string"
        },
        {
          "internalType": "string",
          "name": "_networkId",
          "type": "string"
        },
        {
          "internalType": "address[]",
          "name": "_entitlements",
          "type": "address[]"
        },
        {
          "internalType": "address",
          "name": "_token",
          "type": "address"
        },
        {
          "internalType": "uint256",
          "name": "_tokenId",
          "type": "uint256"
        }
      ],
      "name": "initialize",
      "outputs": [],
      "stateMutability": "nonpayable",
      "type": "function"
    },
    {
      "inputs": [
        {
          "internalType": "string",
          "name": "_channelNetworkId",
          "type": "string"
        },
        {
          "internalType": "address",
          "name": "_user",
          "type": "address"
        },
        {
          "internalType": "string",
          "name": "_permission",
          "type": "string"
        }
      ],
      "name": "isEntitledToChannel",
      "outputs": [
        {
          "internalType": "bool",
          "name": "_entitled",
          "type": "bool"
        }
      ],
      "stateMutability": "view",
      "type": "function"
    },
    {
      "inputs": [
        {
          "internalType": "address",
          "name": "_user",
          "type": "address"
        },
        {
          "internalType": "string",
          "name": "_permission",
          "type": "string"
        }
      ],
      "name": "isEntitledToSpace",
      "outputs": [
        {
          "internalType": "bool",
          "name": "_entitled",
          "type": "bool"
        }
      ],
      "stateMutability": "view",
      "type": "function"
    },
    {
      "inputs": [
        {
          "internalType": "bytes[]",
          "name": "data",
          "type": "bytes[]"
        }
      ],
      "name": "multicall",
      "outputs": [
        {
          "internalType": "bytes[]",
          "name": "results",
          "type": "bytes[]"
        }
      ],
      "stateMutability": "nonpayable",
      "type": "function"
    },
    {
      "inputs": [],
      "name": "name",
      "outputs": [
        {
          "internalType": "string",
          "name": "",
          "type": "string"
        }
      ],
      "stateMutability": "view",
      "type": "function"
    },
    {
      "inputs": [],
      "name": "networkId",
      "outputs": [
        {
          "internalType": "string",
          "name": "",
          "type": "string"
        }
      ],
      "stateMutability": "view",
      "type": "function"
    },
    {
      "inputs": [],
      "name": "owner",
      "outputs": [
        {
          "internalType": "address",
          "name": "",
          "type": "address"
        }
      ],
      "stateMutability": "view",
      "type": "function"
    },
    {
      "inputs": [],
      "name": "ownerRoleId",
      "outputs": [
        {
          "internalType": "uint256",
          "name": "",
          "type": "uint256"
        }
      ],
      "stateMutability": "view",
      "type": "function"
    },
    {
      "inputs": [],
      "name": "proxiableUUID",
      "outputs": [
        {
          "internalType": "bytes32",
          "name": "",
          "type": "bytes32"
        }
      ],
      "stateMutability": "view",
      "type": "function"
    },
    {
      "inputs": [
        {
          "internalType": "uint256",
          "name": "_roleId",
          "type": "uint256"
        },
        {
          "internalType": "string",
          "name": "_permission",
          "type": "string"
        }
      ],
      "name": "removePermissionFromRole",
      "outputs": [],
      "stateMutability": "nonpayable",
      "type": "function"
    },
    {
      "inputs": [
        {
          "internalType": "uint256",
          "name": "_roleId",
          "type": "uint256"
        }
      ],
      "name": "removeRole",
      "outputs": [],
      "stateMutability": "nonpayable",
      "type": "function"
    },
    {
      "inputs": [
        {
          "internalType": "string",
          "name": "_channelNetworkId",
          "type": "string"
        },
        {
          "internalType": "address",
          "name": "_entitlement",
          "type": "address"
        },
        {
          "internalType": "uint256",
          "name": "_roleId",
          "type": "uint256"
        }
      ],
      "name": "removeRoleFromChannel",
      "outputs": [],
      "stateMutability": "nonpayable",
      "type": "function"
    },
    {
      "inputs": [
        {
          "internalType": "uint256",
          "name": "_roleId",
          "type": "uint256"
        },
        {
          "components": [
            {
              "internalType": "address",
              "name": "module",
              "type": "address"
            },
            {
              "internalType": "bytes",
              "name": "data",
              "type": "bytes"
            }
          ],
          "internalType": "struct DataTypes.Entitlement",
          "name": "_entitlement",
          "type": "tuple"
        }
      ],
      "name": "removeRoleFromEntitlement",
      "outputs": [],
      "stateMutability": "nonpayable",
      "type": "function"
    },
    {
      "inputs": [],
      "name": "roleCount",
      "outputs": [
        {
          "internalType": "uint256",
          "name": "",
          "type": "uint256"
        }
      ],
      "stateMutability": "view",
      "type": "function"
    },
    {
      "inputs": [
        {
          "internalType": "uint256",
          "name": "",
          "type": "uint256"
        }
      ],
      "name": "rolesById",
      "outputs": [
        {
          "internalType": "uint256",
          "name": "roleId",
          "type": "uint256"
        },
        {
          "internalType": "string",
          "name": "name",
          "type": "string"
        }
      ],
      "stateMutability": "view",
      "type": "function"
    },
    {
      "inputs": [
        {
          "internalType": "string",
          "name": "channelNetworkId",
          "type": "string"
        },
        {
          "internalType": "bool",
          "name": "disableChannel",
          "type": "bool"
        }
      ],
      "name": "setChannelAccess",
      "outputs": [],
      "stateMutability": "nonpayable",
      "type": "function"
    },
    {
      "inputs": [
        {
          "internalType": "address",
          "name": "_entitlementModule",
          "type": "address"
        },
        {
          "internalType": "bool",
          "name": "_whitelist",
          "type": "bool"
        }
      ],
      "name": "setEntitlementModule",
      "outputs": [],
      "stateMutability": "nonpayable",
      "type": "function"
    },
    {
      "inputs": [
        {
          "internalType": "uint256",
          "name": "_roleId",
          "type": "uint256"
        }
      ],
      "name": "setOwnerRoleId",
      "outputs": [],
      "stateMutability": "nonpayable",
      "type": "function"
    },
    {
      "inputs": [
        {
          "internalType": "bool",
          "name": "_disabled",
          "type": "bool"
        }
      ],
      "name": "setSpaceAccess",
      "outputs": [],
      "stateMutability": "nonpayable",
      "type": "function"
    },
    {
      "inputs": [],
      "name": "token",
      "outputs": [
        {
          "internalType": "address",
          "name": "",
          "type": "address"
        }
      ],
      "stateMutability": "view",
      "type": "function"
    },
    {
      "inputs": [],
      "name": "tokenId",
      "outputs": [
        {
          "internalType": "uint256",
          "name": "",
          "type": "uint256"
        }
      ],
      "stateMutability": "view",
      "type": "function"
    },
    {
      "inputs": [
        {
          "internalType": "string",
          "name": "channelNetworkId",
          "type": "string"
        },
        {
          "internalType": "string",
          "name": "channelName",
          "type": "string"
        }
      ],
      "name": "updateChannel",
      "outputs": [],
      "stateMutability": "nonpayable",
      "type": "function"
    },
    {
      "inputs": [
        {
          "internalType": "uint256",
          "name": "_roleId",
          "type": "uint256"
        },
        {
          "internalType": "string",
          "name": "_roleName",
          "type": "string"
        }
      ],
      "name": "updateRole",
      "outputs": [],
      "stateMutability": "nonpayable",
      "type": "function"
    },
    {
      "inputs": [
        {
          "internalType": "address",
          "name": "_entitlement",
          "type": "address"
        },
        {
          "internalType": "address",
          "name": "_newEntitlement",
          "type": "address"
        }
      ],
      "name": "upgradeEntitlement",
      "outputs": [],
      "stateMutability": "nonpayable",
      "type": "function"
    },
    {
      "inputs": [
        {
          "internalType": "address",
          "name": "newImplementation",
          "type": "address"
        }
      ],
      "name": "upgradeTo",
      "outputs": [],
      "stateMutability": "nonpayable",
      "type": "function"
    },
    {
      "inputs": [
        {
          "internalType": "address",
          "name": "newImplementation",
          "type": "address"
        },
        {
          "internalType": "bytes",
          "name": "data",
          "type": "bytes"
        }
      ],
      "name": "upgradeToAndCall",
      "outputs": [],
      "stateMutability": "payable",
      "type": "function"
    }
  ],
  "bytecode": {
    "object": "0x60a0604052306080523480156200001557600080fd5b506200002062000026565b620000e7565b600054610100900460ff1615620000935760405162461bcd60e51b815260206004820152602760248201527f496e697469616c697a61626c653a20636f6e747261637420697320696e697469604482015266616c697a696e6760c81b606482015260840160405180910390fd5b60005460ff90811614620000e5576000805460ff191660ff9081179091556040519081527f7f26b83ff96e1f2b6a682f133852f6798a09c465da95921460cefb38474024989060200160405180910390a15b565b6080516150516200011f60003960008181610e0701528181610e500152818161120301528181611243015261175701526150516000f3fe6080604052600436106102725760003560e01c80637f8d06d01161014f578063cea632bc116100c1578063ee0708051161007a578063ee070805146107aa578063f28f9b56146107c4578063f3ce6a5b146107e4578063f740bb6b14610804578063fa6433c514610824578063fc0c546a1461085457600080fd5b8063cea632bc146106f0578063d1a6a96114610710578063dba8186414610726578063ddf9635814610746578063e5894ef41461075c578063e5949b5d1461078a57600080fd5b80639269182111610113578063926918211461062e5780639575f6ac1461064e578063ac9650d814610663578063b426423314610690578063ba201ba8146106b0578063baaf3d57146106d057600080fd5b80637f8d06d01461057c578063870b9464146105ac5780638da5cb5b146105e45780638fcd793d146105f95780639025e64c1461061957600080fd5b8063487dc38c116101e857806352d1902d116101ac57806352d1902d146104ab5780635de151b8146104c057806366fb345c146104e0578063703511f814610500578063710613981461052d578063784c872b1461054f57600080fd5b8063487dc38c146104165780634999ab16146104385780634f1ef28614610458578063519607f21461046b57806351f83cea1461048b57600080fd5b806332e704cc1161023a57806332e704cc1461034957806334a1dd26146103695780633659cfe61461038957806342486e49146103a9578063441555e5146103d6578063446dc22e146103f657600080fd5b806306fdde0314610277578063129ab3c8146102a257806317d70f7c146102d35780631dea616a146102f757806320759f9e14610319575b600080fd5b34801561028357600080fd5b5061028c610874565b6040516102999190613d90565b60405180910390f35b3480156102ae57600080fd5b506102c26102bd366004613da3565b610902565b604051610299959493929190613dbc565b3480156102df57600080fd5b506102e9609c5481565b604051908152602001610299565b34801561030357600080fd5b50610317610312366004613e6e565b610a45565b005b34801561032557600080fd5b50610339610334366004613eca565b610b7c565b6040519015158152602001610299565b34801561035557600080fd5b50610317610364366004613fe1565b610bf2565b34801561037557600080fd5b50610317610384366004614027565b610d0e565b34801561039557600080fd5b506103176103a4366004614092565b610dfd565b3480156103b557600080fd5b506103c96103c4366004613da3565b610ee5565b60405161029991906140af565b3480156103e257600080fd5b506103176103f1366004614101565b610f47565b34801561040257600080fd5b5061031761041136600461413a565b61101b565b34801561042257600080fd5b5061042b611053565b6040516102999190614157565b34801561044457600080fd5b50610317610453366004613da3565b6110b5565b610317610466366004614198565b6111f9565b34801561047757600080fd5b506103176104863660046141d1565b6112c5565b34801561049757600080fd5b506102e96104a6366004614222565b6113e0565b3480156104b757600080fd5b506102e961174a565b3480156104cc57600080fd5b506103176104db366004614303565b6117fd565b3480156104ec57600080fd5b506103176104fb366004613fe1565b6118c3565b34801561050c57600080fd5b5061052061051b366004613da3565b611a3e565b6040516102999190614359565b34801561053957600080fd5b50610542611bcf565b60405161029991906143e6565b34801561055b57600080fd5b5061056f61056a366004613da3565b611d3d565b6040516102999190614448565b34801561058857600080fd5b50610339610597366004614092565b609d6020526000908152604090205460ff1681565b3480156105b857600080fd5b506105cc6105c736600461445b565b611e13565b6040516001600160a01b039091168152602001610299565b3480156105f057600080fd5b506105cc611efc565b34801561060557600080fd5b506102e9610614366004614592565b611f73565b34801561062557600080fd5b5061028c61229e565b34801561063a57600080fd5b50610317610649366004613da3565b6122ab565b34801561065a57600080fd5b506103c96123e2565b34801561066f57600080fd5b5061068361067e36600461468e565b612439565b6040516102999190614702565b34801561069c57600080fd5b506103c96106ab366004613da3565b612550565b3480156106bc57600080fd5b506103176106cb366004614757565b6125b0565b3480156106dc57600080fd5b506103176106eb366004613e6e565b612689565b3480156106fc57600080fd5b5061033961070b366004614793565b612788565b34801561071c57600080fd5b506102e9609a5481565b34801561073257600080fd5b50610317610741366004614817565b6128da565b34801561075257600080fd5b506102e960a15481565b34801561076857600080fd5b5061077c610777366004613da3565b612b43565b604051610299929190614859565b34801561079657600080fd5b506102e96107a5366004613da3565b612be8565b3480156107b657600080fd5b506099546103399060ff1681565b3480156107d057600080fd5b506105cc6107df366004613da3565b612c09565b3480156107f057600080fd5b506103176107ff366004614872565b612c33565b34801561081057600080fd5b5061031761081f366004613fe1565b612e17565b34801561083057600080fd5b5061033961083f366004614092565b609e6020526000908152604090205460ff1681565b34801561086057600080fd5b50609b546105cc906001600160a01b031681565b6097805461088190614971565b80601f01602080910402602001604051908101604052809291908181526020018280546108ad90614971565b80156108fa5780601f106108cf576101008083540402835291602001916108fa565b820191906000526020600020905b8154815290600101906020018083116108dd57829003601f168201915b505050505081565b60a46020526000908152604090208054819061091d90614971565b80601f016020809104026020016040519081016040528092919081815260200182805461094990614971565b80156109965780601f1061096b57610100808354040283529160200191610996565b820191906000526020600020905b81548152906001019060200180831161097957829003601f168201915b5050505050908060010180546109ab90614971565b80601f01602080910402602001604051908101604052809291908181526020018280546109d790614971565b8015610a245780601f106109f957610100808354040283529160200191610a24565b820191906000526020600020905b815481529060010190602001808311610a0757829003601f168201915b50505050600283015460038401546004909401549293909290915060ff1685565b610aad84848080601f0160208091040260200160405190810160405280939291908181526020018383808284376000920191909152505060408051808201909152601181527041646452656d6f76654368616e6e656c7360781b60208201529150612ffe9050565b6001600160a01b0382166000908152609d602052604090205460ff16610ae65760405163c1ef36f360e01b815260040160405180910390fd5b600081815260a260205260408120549003610b145760405163b810dc5d60e01b815260040160405180910390fd5b60405163c513be7760e01b81526001600160a01b0383169063c513be7790610b44908790879086906004016149ce565b600060405180830381600087803b158015610b5e57600080fd5b505af1158015610b72573d6000803e3d6000fd5b5050505050505050565b6000805b60a054811015610bea57610bce60405180602001604052806000815250868686604051602001610bb19291906149f2565b604051602081830303815290604052610bc990614a02565b613052565b15610bd857600191505b80610be281614a3c565b915050610b80565b509392505050565b610c2e60405180602001604052806000815250604051806040016040528060168152602001600080516020614fd5833981519152815250612ffe565b610c378161310b565b609a548203610c5957604051631eb49d6d60e11b815260040160405180910390fd5b600082815260a260205260408120549003610c875760405163b810dc5d60e01b815260040160405180910390fd5b8051600003610ca957604051630e52390960e41b815260040160405180910390fd5b600082815260a260205260409020600101610cc48282614a9b565b5081336001600160a01b03167ff3c55faf0b13ffa681c984baddbb8ef7638e514188ea19bd6461d7f87b9c7953836098604051610d02929190614bd7565b60405180910390a35050565b610d50604051806020016040528060008152506040518060400160405280601181526020017041646452656d6f76654368616e6e656c7360781b815250612ffe565b610d5a828261313c565b60008484604051602001610d6f9291906149f2565b60408051601f198184030181529181528151602092830120600081815260a4909352908220600201549092509003610dba57604051636ddd9da960e01b815260040160405180910390fd5b6000829003610ddc57604051631eb49d6d60e11b815260040160405180910390fd5b600081815260a460205260409020610df5838583614bfc565b505050505050565b6001600160a01b037f0000000000000000000000000000000000000000000000000000000000000000163003610e4e5760405162461bcd60e51b8152600401610e4590614cbb565b60405180910390fd5b7f00000000000000000000000000000000000000000000000000000000000000006001600160a01b0316610e97600080516020614fb5833981519152546001600160a01b031690565b6001600160a01b031614610ebd5760405162461bcd60e51b8152600401610e4590614d07565b610ec681613351565b60408051600080825260208201909252610ee291839190613387565b50565b6000818152609f6020908152604091829020805483518184028101840190945280845260609392830182828015610f3b57602002820191906000526020600020905b815481526020019060010190808311610f27575b50505050509050919050565b610f7d604051806020016040528060008152506040518060400160405280600581526020016427bbb732b960d91b815250612ffe565b610f86826134f7565b808015610fab57506001600160a01b0382166000908152609d602052604090205460ff165b15610fc95760405163186abc9b60e01b815260040160405180910390fd5b80158015610fef57506001600160a01b0382166000908152609e602052604090205460ff165b1561100d57604051631eb49d6d60e11b815260040160405180910390fd5b6110178282613588565b5050565b611023613709565b61104057604051631eb49d6d60e11b815260040160405180910390fd5b6099805460ff1916911515919091179055565b606060a08054806020026020016040519081016040528092919081815260200182805480156110ab57602002820191906000526020600020905b81546001600160a01b0316815260019091019060200180831161108d575b5050505050905090565b6110bd613709565b6110da57604051631eb49d6d60e11b815260040160405180910390fd5b609a54156110fb57604051631eb49d6d60e11b815260040160405180910390fd5b600081815260a2602052604081205490036111295760405163b810dc5d60e01b815260040160405180910390fd5b6000805b600083815260a360205260409020548110156111d4576040518060400160405280600581526020016427bbb732b960d91b8152506040516020016111719190614d53565b60405160208183030381529060405261118990614a02565b600084815260a3602052604090208054839081106111a9576111a9614d6f565b9060005260206000200154036111c257600191506111d4565b806111cc81614a3c565b91505061112d565b50806111f357604051633e74bd6360e21b815260040160405180910390fd5b50609a55565b6001600160a01b037f00000000000000000000000000000000000000000000000000000000000000001630036112415760405162461bcd60e51b8152600401610e4590614cbb565b7f00000000000000000000000000000000000000000000000000000000000000006001600160a01b031661128a600080516020614fb5833981519152546001600160a01b031690565b6001600160a01b0316146112b05760405162461bcd60e51b8152600401610e4590614d07565b6112b982613351565b61101782826001613387565b6112fb604051806020016040528060008152506040518060400160405280600581526020016427bbb732b960d91b815250612ffe565b6001600160a01b038216158061131857506001600160a01b038116155b1561133657604051630e52390960e41b815260040160405180910390fd5b6001600160a01b0382166000908152609d602052604090205460ff1661136f5760405163c1ef36f360e01b815260040160405180910390fd5b604051631b2ce7f360e11b81526001600160a01b038281166004830152831690633659cfe690602401600060405180830381600087803b1580156113b257600080fd5b505af19250505080156113c3575060015b61101757604051630e52390960e41b815260040160405180910390fd5b6000611424604051806020016040528060008152506040518060400160405280601181526020017041646452656d6f76654368616e6e656c7360781b815250612ffe565b61142e858561313c565b6000836040516020016114419190614d53565b60408051601f198184030181529181528151602092830120600081815260a49093529120600201549091501561148a57604051630139324b60e41b815260040160405180910390fd5b6040518060a0016040528087878080601f016020809104026020016040519081016040528093929190818152602001838380828437600092018290525093855250505060208083018890526040808401869052426060850152608090930182905284825260a4905220815181906115019082614a9b565b50602082015160018201906115169082614a9b565b5060408201516002820155606082015160038201556080909101516004909101805460ff191691151591909117905560a5805460018101825560009182527fb29a2b3b6f2ff1b765777a231725941da5072cc4fcc30ac4a2ce09706e8ddeff018290555b60a05481101561174057600060a0828154811061159957611599614d6f565b600091825260209091200154609a5460405163c513be7760e01b81526001600160a01b039092169250829163c513be77916115d9918a9190600401614d85565b600060405180830381600087803b1580156115f357600080fd5b505af1158015611607573d6000803e3d6000fd5b5050505060005b855181101561172b57609a5486828151811061162c5761162c614d6f565b602002602001015103156117195760a2600087838151811061165057611650614d6f565b602002602001015181526020019081526020016000206000015460000361168a5760405163b810dc5d60e01b815260040160405180910390fd5b816001600160a01b031663c513be77888884815181106116ac576116ac614d6f565b60200260200101516040518363ffffffff1660e01b81526004016116d1929190614d85565b600060405180830381600087803b1580156116eb57600080fd5b505af19250505080156116fc575060015b6117195760405163d9afe50760e01b815260040160405180910390fd5b8061172381614a3c565b91505061160e565b5050808061173890614a3c565b91505061157a565b5095945050505050565b6000306001600160a01b037f000000000000000000000000000000000000000000000000000000000000000016146117ea5760405162461bcd60e51b815260206004820152603860248201527f555550535570677261646561626c653a206d757374206e6f742062652063616c60448201527f6c6564207468726f7567682064656c656761746563616c6c00000000000000006064820152608401610e45565b50600080516020614fb583398151915290565b61183f604051806020016040528060008152506040518060400160405280601181526020017041646452656d6f76654368616e6e656c7360781b815250612ffe565b600083836040516020016118549291906149f2565b60408051601f198184030181529181528151602092830120600081815260a490935290822060020154909250900361189f57604051636ddd9da960e01b815260040160405180910390fd5b600090815260a460205260409020600401805460ff19169115159190911790555050565b6118ff60405180602001604052806000815250604051806040016040528060168152602001600080516020614fd5833981519152815250612ffe565b611926816040518060400160405280600581526020016427bbb732b960d91b815250613790565b1561194457604051631eb49d6d60e11b815260040160405180910390fd5b600082815260a2602052604081205490036119725760405163b810dc5d60e01b815260040160405180910390fd5b6000816040516020016119859190614d53565b60405160208183030381529060405261199d90614a02565b905060005b600084815260a36020526040902054811015611a1657600084815260a3602052604090208054839190839081106119db576119db614d6f565b906000526020600020015403611a0457604051636571d65f60e01b815260040160405180910390fd5b80611a0e81614a3c565b9150506119a2565b50600092835260a3602090815260408420805460018101825590855293209092019190915550565b6040805160a081018252606080825260208201819052600092820183905281018290526080810191909152600082815260a4602052604090819020815160a08101909252805482908290611a9190614971565b80601f0160208091040260200160405190810160405280929190818152602001828054611abd90614971565b8015611b0a5780601f10611adf57610100808354040283529160200191611b0a565b820191906000526020600020905b815481529060010190602001808311611aed57829003601f168201915b50505050508152602001600182018054611b2390614971565b80601f0160208091040260200160405190810160405280929190818152602001828054611b4f90614971565b8015611b9c5780601f10611b7157610100808354040283529160200191611b9c565b820191906000526020600020905b815481529060010190602001808311611b7f57829003601f168201915b5050509183525050600282015460208201526003820154604082015260049091015460ff16151560609091015292915050565b6060600060a1546001600160401b03811115611bed57611bed613f1e565b604051908082528060200260200182016040528015611c3357816020015b604080518082019091526000815260606020820152815260200190600190039081611c0b5790505b50905060005b60a154811015611d375760a26000611c52836001614da7565b815260200190815260200160002060405180604001604052908160008201548152602001600182018054611c8590614971565b80601f0160208091040260200160405190810160405280929190818152602001828054611cb190614971565b8015611cfe5780601f10611cd357610100808354040283529160200191611cfe565b820191906000526020600020905b815481529060010190602001808311611ce157829003601f168201915b505050505081525050828281518110611d1957611d19614d6f565b60200260200101819052508080611d2f90614a3c565b915050611c39565b50919050565b60408051808201909152600081526060602082015260a2600083815260200190815260200160002060405180604001604052908160008201548152602001600182018054611d8a90614971565b80601f0160208091040260200160405190810160405280929190818152602001828054611db690614971565b8015611e035780601f10611dd857610100808354040283529160200191611e03565b820191906000526020600020905b815481529060010190602001808311611de657829003601f168201915b5050505050815250509050919050565b60008060005b60a054811015611ef557611eb360a08281548110611e3957611e39614d6f565b600091825260208220015460408051636465e69f60e01b815290516001600160a01b0390921692636465e69f926004808401938290030181865afa158015611e85573d6000803e3d6000fd5b505050506040513d6000823e601f3d908101601f19168201604052611ead9190810190614dba565b85613790565b15611ee35760a08181548110611ecb57611ecb614d6f565b6000918252602090912001546001600160a01b031691505b80611eed81614a3c565b915050611e19565b5092915050565b609b54609c546040516331a9108f60e11b815260048101919091526000916001600160a01b031690636352211e90602401602060405180830381865afa158015611f4a573d6000803e3d6000fd5b505050506040513d601f19601f82011682018060405250810190611f6e9190614e27565b905090565b6000611fb160405180602001604052806000815250604051806040016040528060168152602001600080516020614fd5833981519152815250612ffe565b611ff085858080601f01602080910402602001604051908101604052809392919081815260200183838082843760009201919091525061310b92505050565b600060a16000815461200190614a3c565b91905081905590506000604051806040016040528083815260200188888080601f016020809104026020016040519081016040528093929190818152602001838380828437600092018290525093909452505084815260a2602090815260409091208351815590830151929350839290915060018201906120829082614a9b565b5090505060005b855181101561217257609a54151580156120de57506120de8682815181106120b3576120b3614d6f565b60200260200101516040518060400160405280600581526020016427bbb732b960d91b815250613790565b156120fc57604051631eb49d6d60e11b815260040160405180910390fd5b600086828151811061211057612110614d6f565b60200260200101516040516020016121289190614d53565b60405160208183030381529060405261214090614a02565b600085815260a3602090815260408220805460018101825590835291200155508061216a81614a3c565b915050612089565b5060005b845181101561224c57600085828151811061219357612193614d6f565b602002602001015160000151905060008683815181106121b5576121b5614d6f565b602002602001015160200151905060006001600160a01b0316826001600160a01b031614806121e357508051155b156121ef57505061223a565b6001600160a01b0382166000908152609d602052604081205460ff161515900361222c5760405163c1ef36f360e01b815260040160405180910390fd5b6122378583836137ea565b50505b8061224481614a3c565b915050612176565b5081336001600160a01b03167f39772407c6dd2e83adbd292cdfa17a6817c9a7500e56cfe57b7a82d797f8d39b8989609860405161228c93929190614e44565b60405180910390a35095945050505050565b6098805461088190614971565b6122e760405180602001604052806000815250604051806040016040528060168152602001600080516020614fd5833981519152815250612ffe565b609a54810361230957604051631eb49d6d60e11b815260040160405180910390fd5b600081815260a2602052604081205490036123375760405163b810dc5d60e01b815260040160405180910390fd5b6000818152609f60205260409020541561236457604051633764405360e11b815260040160405180910390fd5b600081815260a260205260408120818155906123836001830182613cd3565b5050600081815260a36020526040812061239c91613d0d565b80336001600160a01b03167f1d5667a301e36f2d5b1ee32b7f187b0adb46c706297242fa945d3fed1e7f8a1960986040516123d79190614e74565b60405180910390a350565b606060a58054806020026020016040519081016040528092919081815260200182805480156110ab57602002820191906000526020600020905b81548152602001906001019080831161241c575050505050905090565b6060816001600160401b0381111561245357612453613f1e565b60405190808252806020026020018201604052801561248657816020015b60608152602001906001900390816124715790505b50905060005b82811015611ef557600080308686858181106124aa576124aa614d6f565b90506020028101906124bc9190614e87565b6040516124ca9291906149f2565b600060405180830381855af49150503d8060008114612505576040519150601f19603f3d011682016040523d82523d6000602084013e61250a565b606091505b50915091508161251d5761251d8161395a565b8084848151811061253057612530614d6f565b60200260200101819052505050808061254890614a3c565b91505061248c565b600081815260a36020908152604091829020805483518184028101840190945280845260609392830182828015610f3b5760200282019190600052602060002090815481526020019060010190808311610f275750505050509050919050565b6125ec60405180602001604052806000815250604051806040016040528060168152602001600080516020614fd5833981519152815250612ffe565b80516001600160a01b03166000908152609d602052604090205460ff166126265760405163c1ef36f360e01b815260040160405180910390fd5b600082815260a2602052604081205490036126545760405163b810dc5d60e01b815260040160405180910390fd5b609a54820361267657604051631eb49d6d60e11b815260040160405180910390fd5b61101782826000015183602001516137ea565b6126f184848080601f0160208091040260200160405190810160405280939291908181526020018383808284376000920191909152505060408051808201909152601181527041646452656d6f76654368616e6e656c7360781b60208201529150612ffe9050565b6001600160a01b0382166000908152609d602052604090205460ff1661272a5760405163c1ef36f360e01b815260040160405180910390fd5b600081815260a2602052604081205490036127585760405163b810dc5d60e01b815260040160405180910390fd5b604051637997c1e760e11b81526001600160a01b0383169063f32f83ce90610b44908790879086906004016149ce565b6000841580612795575081155b806127a757506001600160a01b038416155b156127c557604051630e52390960e41b815260040160405180910390fd5b600086866040516020016127da9291906149f2565b60408051601f198184030181529181528151602092830120600081815260a490935290822060020154909250900361282557604051636ddd9da960e01b815260040160405180910390fd5b600081815260a4602052604090206004015460ff161561285857604051631eb49d6d60e11b815260040160405180910390fd5b60005b60a0548110156128cf576128b388888080601f016020809104026020016040519081016040528093929190818152602001838380828437600092019190915250506040518a9250610bb19150899089906020016149f2565b156128bd57600192505b806128c781614a3c565b91505061285b565b505095945050505050565b61291660405180602001604052806000815250604051806040016040528060168152602001600080516020614fd5833981519152815250612ffe565b609a54820361293857604051631eb49d6d60e11b815260040160405180910390fd5b609d60006129496020840184614092565b6001600160a01b0316815260208101919091526040016000205460ff166129835760405163c1ef36f360e01b815260040160405180910390fd5b600082815260a2602052604081205490036129b15760405163b810dc5d60e01b815260040160405180910390fd5b6000826129c16020840184614e87565b6040516020016129d393929190614ecd565b60408051601f1981840301815291815281516020928301206000868152609f909352908220909250905b8154811015612ab157818181548110612a1857612a18614d6f565b90600052602060002001548303612a9f5781548290612a3990600190614ee7565b81548110612a4957612a49614d6f565b9060005260206000200154828281548110612a6657612a66614d6f565b906000526020600020018190555081805480612a8457612a84614efa565b60019003818190600052602060002001600090559055612ab1565b80612aa981614a3c565b9150506129fd565b50612abf6020840184614092565b6001600160a01b031663fa6d1adf85612adb6020870187614e87565b6040518463ffffffff1660e01b8152600401612af993929190614f10565b6020604051808303816000875af1158015612b18573d6000803e3d6000fd5b505050506040513d601f19601f82011682018060405250810190612b3c9190614f2a565b5050505050565b60a26020526000908152604090208054600182018054919291612b6590614971565b80601f0160208091040260200160405190810160405280929190818152602001828054612b9190614971565b8015612bde5780601f10612bb357610100808354040283529160200191612bde565b820191906000526020600020905b815481529060010190602001808311612bc157829003601f168201915b5050505050905082565b60a58181548110612bf857600080fd5b600091825260209091200154905081565b60a08181548110612c1957600080fd5b6000918252602090912001546001600160a01b0316905081565b600054610100900460ff1615808015612c535750600054600160ff909116105b80612c6d5750303b158015612c6d575060005460ff166001145b612cd05760405162461bcd60e51b815260206004820152602e60248201527f496e697469616c697a61626c653a20636f6e747261637420697320616c72656160448201526d191e481a5b9a5d1a585b1a5e995960921b6064820152608401610e45565b6000805460ff191660011790558015612cf3576000805461ff0019166101001790555b612cfb613a27565b612d03613a27565b6097612d0f8782614a9b565b506098612d1c8682614a9b565b50609b80546001600160a01b0319166001600160a01b038516179055609c82905560005b8451811015612dc957612d6d858281518110612d5e57612d5e614d6f565b60200260200101516001613588565b6001609e6000878481518110612d8557612d85614d6f565b6020908102919091018101516001600160a01b03168252810191909152604001600020805460ff191691151591909117905580612dc181614a3c565b915050612d40565b508015610df5576000805461ff0019169055604051600181527f7f26b83ff96e1f2b6a682f133852f6798a09c465da95921460cefb38474024989060200160405180910390a1505050505050565b612e5360405180602001604052806000815250604051806040016040528060168152602001600080516020614fd5833981519152815250612ffe565b612e7a816040518060400160405280600581526020016427bbb732b960d91b815250613790565b15612e9857604051631eb49d6d60e11b815260040160405180910390fd5b600082815260a260205260408120549003612ec65760405163b810dc5d60e01b815260040160405180910390fd5b600081604051602001612ed99190614d53565b604051602081830303815290604052612ef190614a02565b905060005b600084815260a36020526040902054811015612ff857600084815260a360205260409020805483919083908110612f2f57612f2f614d6f565b906000526020600020015403612fe657600084815260a3602052604090208054612f5b90600190614ee7565b81548110612f6b57612f6b614d6f565b906000526020600020015460a360008681526020019081526020016000208281548110612f9a57612f9a614d6f565b906000526020600020018190555060a36000858152602001908152602001600020805480612fca57612fca614efa565b6001900381819060005260206000200160009055905550505050565b80612ff081614a3c565b915050612ef6565b50505050565b613006613709565b80613030575060995460ff161580156130305750613030823383604051602001610bb19190614d53565b15613039575050565b604051631eb49d6d60e11b815260040160405180910390fd5b6000805b60a054811015610bea5760a0818154811061307357613073614d6f565b60009182526020909120015460405162169d5560e31b81526001600160a01b039091169062b4eaa8906130ae90889088908890600401614f43565b602060405180830381865afa1580156130cb573d6000803e3d6000fd5b505050506040513d601f19601f820116820180604052508101906130ef9190614f71565b156130f957600191505b8061310381614a3c565b915050613056565b805181906002118061311e575080516020105b156110175760405163354b556f60e11b815260040160405180910390fd5b600082828080601f01602080910402602001604051908101604052809392919081815260200183838082843760009201919091525050825192935050600290911090508061318b575080516020105b156131a95760405163354b556f60e11b815260040160405180910390fd5b805160005b81811015612b3c57600360fc1b8382815181106131cd576131cd614d6f565b01602001516001600160f81b031916108061320b5750603d60f91b8382815181106131fa576131fa614d6f565b01602001516001600160f81b031916115b806132675750603960f81b83828151811061322857613228614d6f565b01602001516001600160f81b0319161180156132675750606160f81b83828151811061325657613256614d6f565b01602001516001600160f81b031916105b8015613298575082818151811061328057613280614d6f565b6020910101516001600160f81b031916601760f91b14155b80156132c957508281815181106132b1576132b1614d6f565b6020910101516001600160f81b031916602d60f81b14155b80156132fa57508281815181106132e2576132e2614d6f565b6020910101516001600160f81b031916605f60f81b14155b801561332b575082818151811061331357613313614d6f565b6020910101516001600160f81b031916600160fd1b14155b156133495760405163f8fa659760e01b815260040160405180910390fd5b6001016131ae565b610ee2604051806020016040528060008152506040518060400160405280600581526020016427bbb732b960d91b815250612ffe565b7f4910fdfa16fed3260ed0e7147f7cc6da11a60208b5b9406d12a635614ffd91435460ff16156133bf576133ba83613a94565b505050565b826001600160a01b03166352d1902d6040518163ffffffff1660e01b8152600401602060405180830381865afa925050508015613419575060408051601f3d908101601f1916820190925261341691810190614f2a565b60015b61347c5760405162461bcd60e51b815260206004820152602e60248201527f45524331393637557067726164653a206e657720696d706c656d656e7461746960448201526d6f6e206973206e6f74205555505360901b6064820152608401610e45565b600080516020614fb583398151915281146134eb5760405162461bcd60e51b815260206004820152602960248201527f45524331393637557067726164653a20756e737570706f727465642070726f786044820152681a58589b195555525160ba1b6064820152608401610e45565b506133ba838383613b30565b6040516301ffc9a760e01b815263e5e65adf60e01b60048201526001600160a01b038216906301ffc9a790602401602060405180830381865afa158015613542573d6000803e3d6000fd5b505050506040513d601f19601f820116820180604052508101906135669190614f71565b1515600003610ee257604051636d9250f160e11b815260040160405180910390fd5b6001600160a01b0382166000908152609d60205260409020805460ff191682158015919091179091556136065760a080546001810182556000919091527f78fdc8d422c49ced035a9edf18d00d3c6a8d81df210f3e5e448e045e77b41e880180546001600160a01b0384166001600160a01b03199091161790555050565b60005b60a0548110156133ba5760a0818154811061362657613626614d6f565b6000918252602090912001546001600160a01b03908116908416036136f75760a0805461365590600190614ee7565b8154811061366557613665614d6f565b60009182526020909120015460a080546001600160a01b03909216918390811061369157613691614d6f565b9060005260206000200160006101000a8154816001600160a01b0302191690836001600160a01b0316021790555060a08054806136d0576136d0614efa565b600082815260209020810160001990810180546001600160a01b0319169055019055505050565b8061370181614a3c565b915050613609565b600033609b54609c546040516331a9108f60e11b815260048101919091526001600160a01b039283169290911690636352211e90602401602060405180830381865afa15801561375d573d6000803e3d6000fd5b505050506040513d601f19601f820116820180604052508101906137819190614e27565b6001600160a01b031614905090565b6000816040516020016137a39190614d53565b60405160208183030381529060405280519060200120836040516020016137ca9190614d53565b604051602081830303815290604052805190602001201490505b92915050565b600083826040516020016137ff929190614f8e565b60408051601f1981840301815282825280516020918201206000888152609f83528381208054808502870185019095528486529195509392909183018282801561386857602002820191906000526020600020905b815481526020019060010190808311613854575b5050505050905060005b81518110156138c6578282828151811061388e5761388e614d6f565b6020026020010151036138b45760405163c5c9ad6760e01b815260040160405180910390fd5b806138be81614a3c565b915050613872565b506000858152609f602090815260408083208054600181018255908452919092200183905551633be2f95d60e21b81526001600160a01b0385169063ef8be574906139179088908790600401614859565b6020604051808303816000875af1158015613936573d6000803e3d6000fd5b505050506040513d601f19601f82011682018060405250810190610df59190614f2a565b60048151101561399f5760405162461bcd60e51b815260206004820152601060248201526f1d5b9a185b991b1959081c995d995c9d60821b6044820152606401610e45565b602081015163b1b7848f60e01b6001600160e01b0319821601613a1e57604080518082018252600e81526d70616e69636b65643a2030785f5f60901b602082018181526024860151600481811c600f908116603090810160081b9184160117909317909152925162461bcd60e51b8152919291610e4591849101613d90565b81518060208401fd5b600054610100900460ff16613a925760405162461bcd60e51b815260206004820152602b60248201527f496e697469616c697a61626c653a20636f6e7472616374206973206e6f74206960448201526a6e697469616c697a696e6760a81b6064820152608401610e45565b565b6001600160a01b0381163b613b015760405162461bcd60e51b815260206004820152602d60248201527f455243313936373a206e657720696d706c656d656e746174696f6e206973206e60448201526c1bdd08184818dbdb9d1c9858dd609a1b6064820152608401610e45565b600080516020614fb583398151915280546001600160a01b0319166001600160a01b0392909216919091179055565b613b3983613b55565b600082511180613b465750805b156133ba57612ff88383613b95565b613b5e81613a94565b6040516001600160a01b038216907fbc7cd75a20ee27fd9adebab32041f755214dbc6bffa90cc0225b39da2e5c2d3b90600090a250565b60606001600160a01b0383163b613bfd5760405162461bcd60e51b815260206004820152602660248201527f416464726573733a2064656c65676174652063616c6c20746f206e6f6e2d636f6044820152651b9d1c9858dd60d21b6064820152608401610e45565b600080846001600160a01b031684604051613c189190614d53565b600060405180830381855af49150503d8060008114613c53576040519150601f19603f3d011682016040523d82523d6000602084013e613c58565b606091505b5091509150613c808282604051806060016040528060278152602001614ff560279139613c89565b95945050505050565b60608315613c98575081613ca2565b613ca28383613ca9565b9392505050565b815115613cb95781518083602001fd5b8060405162461bcd60e51b8152600401610e459190613d90565b508054613cdf90614971565b6000825580601f10613cef575050565b601f016020900490600052602060002090810190610ee29190613d27565b5080546000825590600052602060002090810190610ee291905b5b80821115613d3c5760008155600101613d28565b5090565b60005b83811015613d5b578181015183820152602001613d43565b50506000910152565b60008151808452613d7c816020860160208601613d40565b601f01601f19169290920160200192915050565b602081526000613ca26020830184613d64565b600060208284031215613db557600080fd5b5035919050565b60a081526000613dcf60a0830188613d64565b8281036020840152613de18188613d64565b604084019690965250506060810192909252151560809091015292915050565b60008083601f840112613e1357600080fd5b5081356001600160401b03811115613e2a57600080fd5b602083019150836020828501011115613e4257600080fd5b9250929050565b6001600160a01b0381168114610ee257600080fd5b8035613e6981613e49565b919050565b60008060008060608587031215613e8457600080fd5b84356001600160401b03811115613e9a57600080fd5b613ea687828801613e01565b9095509350506020850135613eba81613e49565b9396929550929360400135925050565b600080600060408486031215613edf57600080fd5b8335613eea81613e49565b925060208401356001600160401b03811115613f0557600080fd5b613f1186828701613e01565b9497909650939450505050565b634e487b7160e01b600052604160045260246000fd5b604051601f8201601f191681016001600160401b0381118282101715613f5c57613f5c613f1e565b604052919050565b60006001600160401b03821115613f7d57613f7d613f1e565b50601f01601f191660200190565b600082601f830112613f9c57600080fd5b8135613faf613faa82613f64565b613f34565b818152846020838601011115613fc457600080fd5b816020850160208301376000918101602001919091529392505050565b60008060408385031215613ff457600080fd5b8235915060208301356001600160401b0381111561401157600080fd5b61401d85828601613f8b565b9150509250929050565b6000806000806040858703121561403d57600080fd5b84356001600160401b038082111561405457600080fd5b61406088838901613e01565b9096509450602087013591508082111561407957600080fd5b5061408687828801613e01565b95989497509550505050565b6000602082840312156140a457600080fd5b8135613ca281613e49565b6020808252825182820181905260009190848201906040850190845b818110156140e7578351835292840192918401916001016140cb565b50909695505050505050565b8015158114610ee257600080fd5b6000806040838503121561411457600080fd5b823561411f81613e49565b9150602083013561412f816140f3565b809150509250929050565b60006020828403121561414c57600080fd5b8135613ca2816140f3565b6020808252825182820181905260009190848201906040850190845b818110156140e75783516001600160a01b031683529284019291840191600101614173565b600080604083850312156141ab57600080fd5b82356141b681613e49565b915060208301356001600160401b0381111561401157600080fd5b600080604083850312156141e457600080fd5b82356141ef81613e49565b9150602083013561412f81613e49565b60006001600160401b0382111561421857614218613f1e565b5060051b60200190565b6000806000806060858703121561423857600080fd5b84356001600160401b038082111561424f57600080fd5b61425b88838901613e01565b909650945060209150868201358181111561427557600080fd5b61428189828a01613f8b565b94505060408701358181111561429657600080fd5b87019050601f810188136142a957600080fd5b80356142b7613faa826141ff565b81815260059190911b8201830190838101908a8311156142d657600080fd5b928401925b828410156142f4578335825292840192908401906142db565b979a9699509497505050505050565b60008060006040848603121561431857600080fd5b83356001600160401b0381111561432e57600080fd5b61433a86828701613e01565b909450925050602084013561434e816140f3565b809150509250925092565b602081526000825160a0602084015261437560c0840182613d64565b90506020840151601f198483030160408501526143928282613d64565b91505060408401516060840152606084015160808401526080840151151560a08401528091505092915050565b8051825260006020820151604060208501526143de6040850182613d64565b949350505050565b6000602080830181845280855180835260408601915060408160051b870101925083870160005b8281101561443b57603f198886030184526144298583516143bf565b9450928501929085019060010161440d565b5092979650505050505050565b602081526000613ca260208301846143bf565b60006020828403121561446d57600080fd5b81356001600160401b0381111561448357600080fd5b6143de84828501613f8b565b6000604082840312156144a157600080fd5b604051604081016001600160401b0382821081831117156144c4576144c4613f1e565b81604052829350843591506144d882613e49565b908252602084013590808211156144ee57600080fd5b506144fb85828601613f8b565b6020830152505092915050565b600082601f83011261451957600080fd5b81356020614529613faa836141ff565b82815260059290921b8401810191818101908684111561454857600080fd5b8286015b848110156145875780356001600160401b0381111561456b5760008081fd5b6145798986838b010161448f565b84525091830191830161454c565b509695505050505050565b600080600080606085870312156145a857600080fd5b84356001600160401b03808211156145bf57600080fd5b6145cb88838901613e01565b90965094506020915086820135818111156145e557600080fd5b8701601f810189136145f657600080fd5b8035614604613faa826141ff565b81815260059190911b8201840190848101908b83111561462357600080fd5b8584015b8381101561465b5780358681111561463f5760008081fd5b61464d8e8983890101613f8b565b845250918601918601614627565b509650505050604087013591508082111561467557600080fd5b5061468287828801614508565b91505092959194509250565b600080602083850312156146a157600080fd5b82356001600160401b03808211156146b857600080fd5b818501915085601f8301126146cc57600080fd5b8135818111156146db57600080fd5b8660208260051b85010111156146f057600080fd5b60209290920196919550909350505050565b6000602080830181845280855180835260408601915060408160051b870101925083870160005b8281101561443b57603f19888603018452614745858351613d64565b94509285019290850190600101614729565b6000806040838503121561476a57600080fd5b8235915060208301356001600160401b0381111561478757600080fd5b61401d8582860161448f565b6000806000806000606086880312156147ab57600080fd5b85356001600160401b03808211156147c257600080fd5b6147ce89838a01613e01565b9097509550602088013591506147e382613e49565b909350604087013590808211156147f957600080fd5b5061480688828901613e01565b969995985093965092949392505050565b6000806040838503121561482a57600080fd5b8235915060208301356001600160401b0381111561484757600080fd5b83016040818603121561412f57600080fd5b8281526040602082015260006143de6040830184613d64565b600080600080600060a0868803121561488a57600080fd5b85356001600160401b03808211156148a157600080fd5b6148ad89838a01613f8b565b96506020915081880135818111156148c457600080fd5b6148d08a828b01613f8b565b9650506040880135818111156148e557600080fd5b88019050601f810189136148f857600080fd5b8035614906613faa826141ff565b81815260059190911b8201830190838101908b83111561492557600080fd5b928401925b8284101561494c57833561493d81613e49565b8252928401929084019061492a565b809750505050505061496060608701613e5e565b949793965091946080013592915050565b600181811c9082168061498557607f821691505b602082108103611d3757634e487b7160e01b600052602260045260246000fd5b81835281816020850137506000828201602090810191909152601f909101601f19169091010190565b6040815260006149e26040830185876149a5565b9050826020830152949350505050565b8183823760009101908152919050565b80516020808301519190811015611d375760001960209190910360031b1b16919050565b634e487b7160e01b600052601160045260246000fd5b600060018201614a4e57614a4e614a26565b5060010190565b601f8211156133ba57600081815260208120601f850160051c81016020861015614a7c5750805b601f850160051c820191505b81811015610df557828155600101614a88565b81516001600160401b03811115614ab457614ab4613f1e565b614ac881614ac28454614971565b84614a55565b602080601f831160018114614afd5760008415614ae55750858301515b600019600386901b1c1916600185901b178555610df5565b600085815260208120601f198616915b82811015614b2c57888601518255948401946001909101908401614b0d565b5085821015614b4a5787850151600019600388901b60f8161c191681555b5050505050600190811b01905550565b60008154614b6781614971565b808552602060018381168015614b845760018114614b9e57614bcc565b60ff1985168884015283151560051b880183019550614bcc565b866000528260002060005b85811015614bc45781548a8201860152908301908401614ba9565b890184019650505b505050505092915050565b604081526000614bea6040830185613d64565b8281036020840152613c808185614b5a565b6001600160401b03831115614c1357614c13613f1e565b614c2783614c218354614971565b83614a55565b6000601f841160018114614c5b5760008515614c435750838201355b600019600387901b1c1916600186901b178355612b3c565b600083815260209020601f19861690835b82811015614c8c5786850135825560209485019460019092019101614c6c565b5086821015614ca95760001960f88860031b161c19848701351681555b505060018560011b0183555050505050565b6020808252602c908201527f46756e6374696f6e206d7573742062652063616c6c6564207468726f7567682060408201526b19195b1959d85d1958d85b1b60a21b606082015260800190565b6020808252602c908201527f46756e6374696f6e206d7573742062652063616c6c6564207468726f7567682060408201526b6163746976652070726f787960a01b606082015260800190565b60008251614d65818460208701613d40565b9190910192915050565b634e487b7160e01b600052603260045260246000fd5b604081526000614d986040830185613d64565b90508260208301529392505050565b808201808211156137e4576137e4614a26565b600060208284031215614dcc57600080fd5b81516001600160401b03811115614de257600080fd5b8201601f81018413614df357600080fd5b8051614e01613faa82613f64565b818152856020838501011115614e1657600080fd5b613c80826020830160208601613d40565b600060208284031215614e3957600080fd5b8151613ca281613e49565b604081526000614e586040830185876149a5565b8281036020840152614e6a8185614b5a565b9695505050505050565b602081526000613ca26020830184614b5a565b6000808335601e19843603018112614e9e57600080fd5b8301803591506001600160401b03821115614eb857600080fd5b602001915036819003821315613e4257600080fd5b838152818360208301376000910160200190815292915050565b818103818111156137e4576137e4614a26565b634e487b7160e01b600052603160045260246000fd5b838152604060208201526000613c806040830184866149a5565b600060208284031215614f3c57600080fd5b5051919050565b606081526000614f566060830186613d64565b6001600160a01b039490941660208301525060400152919050565b600060208284031215614f8357600080fd5b8151613ca2816140f3565b82815260008251614fa6816020850160208701613d40565b91909101602001939250505056fe360894a13ba1a3210667c828492db98dca3e2076cc3735a920a3ca505d382bbc4d6f6469667953706163655065726d697373696f6e7300000000000000000000416464726573733a206c6f772d6c6576656c2064656c65676174652063616c6c206661696c6564a264697066735822122090e95638edd63678e0bbdd6c6cba787e4b781860c25c387ca217deaa170c771264736f6c63430008110033",
    "linkReferences": {}
  },
  "methodIdentifiers": {
    "addPermissionToRole(uint256,string)": "66fb345c",
    "addRoleToChannel(string,address,uint256)": "1dea616a",
    "addRoleToEntitlement(uint256,(address,bytes))": "ba201ba8",
    "channels(uint256)": "e5949b5d",
    "channelsByHash(bytes32)": "129ab3c8",
    "createChannel(string,string,uint256[])": "51f83cea",
    "createRole(string,string[],(address,bytes)[])": "8fcd793d",
    "defaultEntitlements(address)": "fa6433c5",
    "disabled()": "ee070805",
    "entitlements(uint256)": "f28f9b56",
    "getChannelByHash(bytes32)": "703511f8",
    "getChannels()": "9575f6ac",
    "getEntitlementByModuleType(string)": "870b9464",
    "getEntitlementIdsByRoleId(uint256)": "42486e49",
    "getEntitlements()": "487dc38c",
    "getPermissionsByRoleId(uint256)": "b4264233",
    "getRoleById(uint256)": "784c872b",
    "getRoles()": "71061398",
    "hasEntitlement(address)": "7f8d06d0",
    "initialize(string,string,address[],address,uint256)": "f3ce6a5b",
    "isEntitledToChannel(string,address,string)": "cea632bc",
    "isEntitledToSpace(address,string)": "20759f9e",
    "multicall(bytes[])": "ac9650d8",
    "name()": "06fdde03",
    "networkId()": "9025e64c",
    "owner()": "8da5cb5b",
    "ownerRoleId()": "d1a6a961",
    "proxiableUUID()": "52d1902d",
    "removePermissionFromRole(uint256,string)": "f740bb6b",
    "removeRole(uint256)": "92691821",
    "removeRoleFromChannel(string,address,uint256)": "baaf3d57",
    "removeRoleFromEntitlement(uint256,(address,bytes))": "dba81864",
    "roleCount()": "ddf96358",
    "rolesById(uint256)": "e5894ef4",
    "setChannelAccess(string,bool)": "5de151b8",
    "setEntitlementModule(address,bool)": "441555e5",
    "setOwnerRoleId(uint256)": "4999ab16",
    "setSpaceAccess(bool)": "446dc22e",
    "token()": "fc0c546a",
    "tokenId()": "17d70f7c",
    "updateChannel(string,string)": "34a1dd26",
    "updateRole(uint256,string)": "32e704cc",
    "upgradeEntitlement(address,address)": "519607f2",
    "upgradeTo(address)": "3659cfe6",
    "upgradeToAndCall(address,bytes)": "4f1ef286"
  },
  "id": 13
}