{
  "abi": [
    {
      "inputs": [],
      "name": "NameContainsInvalidCharacters",
      "type": "error"
    },
    {
      "inputs": [],
      "name": "NameLengthInvalid",
      "type": "error"
    },
    {
      "inputs": [],
      "name": "PermissionAlreadyExists",
      "type": "error"
    },
    {
      "inputs": [],
      "name": "SpaceAlreadyRegistered",
      "type": "error"
    },
    {
      "anonymous": false,
      "inputs": [
        {
          "indexed": false,
          "internalType": "address",
          "name": "previousAdmin",
          "type": "address"
        },
        {
          "indexed": false,
          "internalType": "address",
          "name": "newAdmin",
          "type": "address"
        }
      ],
      "name": "AdminChanged",
      "type": "event"
    },
    {
      "anonymous": false,
      "inputs": [
        {
          "indexed": true,
          "internalType": "address",
          "name": "beacon",
          "type": "address"
        }
      ],
      "name": "BeaconUpgraded",
      "type": "event"
    },
    {
      "anonymous": false,
      "inputs": [
        {
          "indexed": false,
          "internalType": "uint8",
          "name": "version",
          "type": "uint8"
        }
      ],
      "name": "Initialized",
      "type": "event"
    },
    {
      "anonymous": false,
      "inputs": [
        {
          "indexed": true,
          "internalType": "address",
          "name": "previousOwner",
          "type": "address"
        },
        {
          "indexed": true,
          "internalType": "address",
          "name": "newOwner",
          "type": "address"
        }
      ],
      "name": "OwnershipTransferred",
      "type": "event"
    },
    {
      "anonymous": false,
      "inputs": [
        {
          "indexed": true,
          "internalType": "address",
          "name": "implementation",
          "type": "address"
        }
      ],
      "name": "Upgraded",
      "type": "event"
    },
    {
      "inputs": [],
      "name": "SPACE_IMPLEMENTATION_ADDRESS",
      "outputs": [
        {
          "internalType": "address",
          "name": "",
          "type": "address"
        }
      ],
      "stateMutability": "view",
      "type": "function"
    },
    {
      "inputs": [],
      "name": "SPACE_TOKEN_ADDRESS",
      "outputs": [
        {
          "internalType": "address",
          "name": "",
          "type": "address"
        }
      ],
      "stateMutability": "view",
      "type": "function"
    },
    {
      "inputs": [],
      "name": "TOKEN_IMPLEMENTATION_ADDRESS",
      "outputs": [
        {
          "internalType": "address",
          "name": "",
          "type": "address"
        }
      ],
      "stateMutability": "view",
      "type": "function"
    },
    {
      "inputs": [],
      "name": "USER_IMPLEMENTATION_ADDRESS",
      "outputs": [
        {
          "internalType": "address",
          "name": "",
          "type": "address"
        }
      ],
      "stateMutability": "view",
      "type": "function"
    },
    {
      "inputs": [
        {
          "internalType": "string[]",
          "name": "_permissions",
          "type": "string[]"
        }
      ],
      "name": "addOwnerPermissions",
      "outputs": [],
      "stateMutability": "nonpayable",
      "type": "function"
    },
    {
      "inputs": [
        {
          "internalType": "string",
          "name": "spaceName",
          "type": "string"
        },
        {
          "internalType": "string",
          "name": "spaceNetworkId",
          "type": "string"
        },
        {
          "internalType": "string",
          "name": "spaceMetadata",
          "type": "string"
        },
        {
          "internalType": "string[]",
          "name": "_everyonePermissions",
          "type": "string[]"
        },
        {
          "components": [
            {
              "internalType": "string",
              "name": "roleName",
              "type": "string"
            },
            {
              "internalType": "string[]",
              "name": "permissions",
              "type": "string[]"
            },
            {
              "components": [
                {
                  "internalType": "address",
                  "name": "contractAddress",
                  "type": "address"
                },
                {
                  "internalType": "uint256",
                  "name": "quantity",
                  "type": "uint256"
                },
                {
                  "internalType": "bool",
                  "name": "isSingleToken",
                  "type": "bool"
                },
                {
                  "internalType": "uint256[]",
                  "name": "tokenIds",
                  "type": "uint256[]"
                }
              ],
              "internalType": "struct DataTypes.ExternalToken[]",
              "name": "tokens",
              "type": "tuple[]"
            },
            {
              "internalType": "address[]",
              "name": "users",
              "type": "address[]"
            }
          ],
          "internalType": "struct DataTypes.CreateSpaceExtraEntitlements",
          "name": "_extraEntitlements",
          "type": "tuple"
        }
      ],
      "name": "createSpace",
      "outputs": [
        {
          "internalType": "address",
          "name": "_spaceAddress",
          "type": "address"
        }
      ],
      "stateMutability": "nonpayable",
      "type": "function"
    },
    {
      "inputs": [],
      "name": "getOwnerPermissions",
      "outputs": [
        {
          "internalType": "string[]",
          "name": "",
          "type": "string[]"
        }
      ],
      "stateMutability": "view",
      "type": "function"
    },
    {
      "inputs": [
        {
          "internalType": "address",
          "name": "_space",
          "type": "address"
        },
        {
          "internalType": "address",
          "name": "_tokenEntitlement",
          "type": "address"
        },
        {
          "internalType": "address",
          "name": "_userEntitlement",
          "type": "address"
        },
        {
          "internalType": "address",
          "name": "_spaceToken",
          "type": "address"
        },
        {
          "internalType": "string[]",
          "name": "_permissions",
          "type": "string[]"
        }
      ],
      "name": "initialize",
      "outputs": [],
      "stateMutability": "nonpayable",
      "type": "function"
    },
    {
      "inputs": [],
      "name": "owner",
      "outputs": [
        {
          "internalType": "address",
          "name": "",
          "type": "address"
        }
      ],
      "stateMutability": "view",
      "type": "function"
    },
    {
      "inputs": [
        {
          "internalType": "uint256",
          "name": "",
          "type": "uint256"
        }
      ],
      "name": "ownerPermissions",
      "outputs": [
        {
          "internalType": "string",
          "name": "",
          "type": "string"
        }
      ],
      "stateMutability": "view",
      "type": "function"
    },
    {
      "inputs": [],
      "name": "proxiableUUID",
      "outputs": [
        {
          "internalType": "bytes32",
          "name": "",
          "type": "bytes32"
        }
      ],
      "stateMutability": "view",
      "type": "function"
    },
    {
      "inputs": [],
      "name": "renounceOwnership",
      "outputs": [],
      "stateMutability": "nonpayable",
      "type": "function"
    },
    {
      "inputs": [
        {
          "internalType": "bytes32",
          "name": "",
          "type": "bytes32"
        }
      ],
      "name": "spaceByHash",
      "outputs": [
        {
          "internalType": "address",
          "name": "",
          "type": "address"
        }
      ],
      "stateMutability": "view",
      "type": "function"
    },
    {
      "inputs": [
        {
          "internalType": "bytes32",
          "name": "",
          "type": "bytes32"
        }
      ],
      "name": "tokenByHash",
      "outputs": [
        {
          "internalType": "uint256",
          "name": "",
          "type": "uint256"
        }
      ],
      "stateMutability": "view",
      "type": "function"
    },
    {
      "inputs": [
        {
          "internalType": "address",
          "name": "newOwner",
          "type": "address"
        }
      ],
      "name": "transferOwnership",
      "outputs": [],
      "stateMutability": "nonpayable",
      "type": "function"
    },
    {
      "inputs": [
        {
          "internalType": "address",
          "name": "_space",
          "type": "address"
        },
        {
          "internalType": "address",
          "name": "_tokenEntitlement",
          "type": "address"
        },
        {
          "internalType": "address",
          "name": "_userEntitlement",
          "type": "address"
        }
      ],
      "name": "updateImplementations",
      "outputs": [],
      "stateMutability": "nonpayable",
      "type": "function"
    },
    {
      "inputs": [
        {
          "internalType": "address",
          "name": "newImplementation",
          "type": "address"
        }
      ],
      "name": "upgradeTo",
      "outputs": [],
      "stateMutability": "nonpayable",
      "type": "function"
    },
    {
      "inputs": [
        {
          "internalType": "address",
          "name": "newImplementation",
          "type": "address"
        },
        {
          "internalType": "bytes",
          "name": "data",
          "type": "bytes"
        }
      ],
      "name": "upgradeToAndCall",
      "outputs": [],
      "stateMutability": "payable",
      "type": "function"
    }
  ],
  "bytecode": {
    "object": "0x60a06040523060805234801561001457600080fd5b5060805161375761004c600039600081816103f10152818161043d015281816106c80152818161070b01526107a701526137576000f3fe6080604052600436106200011f5760003560e01c8063ad78faf311620000a1578063df2cd9fe116200006c578063df2cd9fe1462000322578063dfc666ff1462000349578063f21cd401146200036e578063f2fde38b1462000390578063f3aba30514620003b557600080fd5b8063ad78faf31462000282578063b28032f914620002a7578063be8b596714620002db578063cfc27037146200030057600080fd5b80634f1ef28611620000ee5780634f1ef28614620001ea57806352d1902d1462000201578063683c72b61462000228578063715018a6146200024a5780638da5cb5b146200026257600080fd5b806308bc0b4b14620001245780633312540a14620001635780633659cfe6146200019e57806345bfa5b114620001c5575b600080fd5b3480156200013157600080fd5b5060fd5462000146906001600160a01b031681565b6040516001600160a01b0390911681526020015b60405180910390f35b3480156200017057600080fd5b50620001466200018236600462002015565b610100602052600090815260409020546001600160a01b031681565b348015620001ab57600080fd5b50620001c3620001bd3660046200204c565b620003e7565b005b348015620001d257600080fd5b50620001c3620001e436600462002229565b620004db565b620001c3620001fb366004620022b4565b620006be565b3480156200020e57600080fd5b50620002196200079a565b6040519081526020016200015a565b3480156200023557600080fd5b5060fe5462000146906001600160a01b031681565b3480156200025757600080fd5b50620001c362000850565b3480156200026f57600080fd5b506033546001600160a01b031662000146565b3480156200028f57600080fd5b5062000146620002a1366004620023c7565b62000868565b348015620002b457600080fd5b50620002cc620002c636600462002015565b62000d5b565b6040516200015a919062002511565b348015620002e857600080fd5b50620001c3620002fa36600462002526565b62000e10565b3480156200030d57600080fd5b5060fc5462000146906001600160a01b031681565b3480156200032f57600080fd5b506200033a62000fec565b6040516200015a9190620025c4565b3480156200035657600080fd5b50620001c362000368366004620025d9565b620010cf565b3480156200037b57600080fd5b5060fb5462000146906001600160a01b031681565b3480156200039d57600080fd5b50620001c3620003af3660046200204c565b62001163565b348015620003c257600080fd5b5062000219620003d436600462002015565b6101016020526000908152604090205481565b6001600160a01b037f00000000000000000000000000000000000000000000000000000000000000001630036200043b5760405162461bcd60e51b8152600401620004329062002623565b60405180910390fd5b7f00000000000000000000000000000000000000000000000000000000000000006001600160a01b031662000486600080516020620036db833981519152546001600160a01b031690565b6001600160a01b031614620004af5760405162461bcd60e51b815260040162000432906200266f565b620004ba81620011df565b60408051600080825260208201909252620004d891839190620011e9565b50565b600054610100900460ff1615808015620004fc5750600054600160ff909116105b80620005185750303b15801562000518575060005460ff166001145b6200057d5760405162461bcd60e51b815260206004820152602e60248201527f496e697469616c697a61626c653a20636f6e747261637420697320616c72656160448201526d191e481a5b9a5d1a585b1a5e995960921b606482015260840162000432565b6000805460ff191660011790558015620005a1576000805461ff0019166101001790555b620005ab62001361565b620005b56200138b565b620005bf620013bf565b60fb80546001600160a01b038089166001600160a01b03199283161790925560fc805488841690831617905560fd805487841690831617905560fe80549286169290911691909117905560005b82518110156200066e5760ff8382815181106200062d576200062d620026bb565b6020908102919091018101518254600181018455600093845291909220019062000658908262002751565b508062000665816200281d565b9150506200060c565b508015620006b6576000805461ff0019169055604051600181527f7f26b83ff96e1f2b6a682f133852f6798a09c465da95921460cefb38474024989060200160405180910390a15b505050505050565b6001600160a01b037f0000000000000000000000000000000000000000000000000000000000000000163003620007095760405162461bcd60e51b8152600401620004329062002623565b7f00000000000000000000000000000000000000000000000000000000000000006001600160a01b031662000754600080516020620036db833981519152546001600160a01b031690565b6001600160a01b0316146200077d5760405162461bcd60e51b815260040162000432906200266f565b6200078882620011df565b6200079682826001620011e9565b5050565b6000306001600160a01b037f000000000000000000000000000000000000000000000000000000000000000016146200083c5760405162461bcd60e51b815260206004820152603860248201527f555550535570677261646561626c653a206d757374206e6f742062652063616c60448201527f6c6564207468726f7567682064656c656761746563616c6c0000000000000000606482015260840162000432565b50600080516020620036db83398151915290565b6200085a620013f3565b6200086660006200144f565b565b600062000874620014a1565b620008808a8a620014fc565b600088886040516200089492919062002845565b6040805191829003909120600081815261010060205291909120549091506001600160a01b031615620008da57604051633881599b60e11b815260040160405180910390fd5b60fe546040516275a31760e01b81526000916001600160a01b0316906275a317906200090f9033908c908c906004016200287e565b6020604051808303816000875af11580156200092f573d6000803e3d6000fd5b505050506040513d601f19601f82011682018060405250810190620009559190620028a5565b60008381526101016020908152604080832084905560fc5481516004815260248101835292830180516001600160e01b031663204a7f0760e21b179052905193945091926001600160a01b0390921691620009b09062002007565b620009bd929190620028bf565b604051809103906000f080158015620009da573d6000803e3d6000fd5b5060fd5460408051600481526024810182526020810180516001600160e01b031663204a7f0760e21b17905290519293506000926001600160a01b039092169162000a259062002007565b62000a32929190620028bf565b604051809103906000f08015801562000a4f573d6000803e3d6000fd5b506040805160028082526060820183529293506000929091602083019080368337019050509050828160008151811062000a8d5762000a8d620026bb565b60200260200101906001600160a01b031690816001600160a01b031681525050818160018151811062000ac45762000ac4620026bb565b60200260200101906001600160a01b031690816001600160a01b03168152505060fb60009054906101000a90046001600160a01b03168f8f8f8f8560405160240162000b15959493929190620028ed565b60408051601f198184030181529181526020820180516001600160e01b031663ca27593160e01b1790525162000b4b9062002007565b62000b58929190620028bf565b604051809103906000f08015801562000b75573d6000803e3d6000fd5b5060008681526101006020526040812080546001600160a01b0319166001600160a01b0384161790559096505b815181101562000c3f5781818151811062000bc15762000bc1620026bb565b602090810291909101015160405162ed014d60e21b81526001600160a01b038981166004830152909116906303b4053490602401600060405180830381600087803b15801562000c1057600080fd5b505af115801562000c25573d6000803e3d6000fd5b50505050808062000c36906200281d565b91505062000ba2565b5062000c4d8684866200173c565b62000c65868362000c5f8b8d62002969565b620019b8565b62000c7d86848462000c778b62002b54565b62001ad9565b6001600160a01b03861663f2fde38b336040516001600160e01b031960e084901b1681526001600160a01b039091166004820152602401600060405180830381600087803b15801562000ccf57600080fd5b505af115801562000ce4573d6000803e3d6000fd5b5050505062000cf03390565b6001600160a01b0316866001600160a01b03167f78d7e431fd0a46d11f5c8889cf2db64699be1f95ccb8b1419211c83bcdbce5808f8f60405162000d3692919062002c19565b60405180910390a3505050505062000d4e6001606555565b9998505050505050505050565b60ff818154811062000d6c57600080fd5b90600052602060002001600091509050805462000d8990620026d1565b80601f016020809104026020016040519081016040528092919081815260200182805462000db790620026d1565b801562000e085780601f1062000ddc5761010080835404028352916020019162000e08565b820191906000526020600020905b81548152906001019060200180831162000dea57829003601f168201915b505050505081565b62000e1a620013f3565b60005b8181101562000fe75760005b60ff5481101562000f835762000f4f84848481811062000e4d5762000e4d620026bb565b905060200281019062000e61919062002c2f565b8080601f0160208091040260200160405190810160405280939291908181526020018383808284376000920191909152505060ff8054909250859150811062000eae5762000eae620026bb565b90600052602060002001805462000ec590620026d1565b80601f016020809104026020016040519081016040528092919081815260200182805462000ef390620026d1565b801562000f445780601f1062000f185761010080835404028352916020019162000f44565b820191906000526020600020905b81548152906001019060200180831162000f2657829003601f168201915b505050505062001cf1565b1562000f6e57604051636571d65f60e01b815260040160405180910390fd5b8062000f7a816200281d565b91505062000e29565b5060ff83838381811062000f9b5762000f9b620026bb565b905060200281019062000faf919062002c2f565b8254600181018455600093845260209093209092019162000fd1918362002c78565b508062000fde816200281d565b91505062000e1d565b505050565b606060ff805480602002602001604051908101604052809291908181526020016000905b82821015620010c65783829060005260206000200180546200103290620026d1565b80601f01602080910402602001604051908101604052809291908181526020018280546200106090620026d1565b8015620010b15780601f106200108557610100808354040283529160200191620010b1565b820191906000526020600020905b8154815290600101906020018083116200109357829003601f168201915b50505050508152602001906001019062001010565b50505050905090565b620010d9620013f3565b6001600160a01b03831615620011055760fb80546001600160a01b0319166001600160a01b0385161790555b6001600160a01b03821615620011315760fc80546001600160a01b0319166001600160a01b0384161790555b6001600160a01b0381161562000fe75760fd80546001600160a01b0383166001600160a01b0319909116179055505050565b6200116d620013f3565b6001600160a01b038116620011d45760405162461bcd60e51b815260206004820152602660248201527f4f776e61626c653a206e6577206f776e657220697320746865207a65726f206160448201526564647265737360d01b606482015260840162000432565b620004d8816200144f565b620004d8620013f3565b7f4910fdfa16fed3260ed0e7147f7cc6da11a60208b5b9406d12a635614ffd91435460ff16156200121f5762000fe78362001d4e565b826001600160a01b03166352d1902d6040518163ffffffff1660e01b8152600401602060405180830381865afa9250505080156200127c575060408051601f3d908101601f191682019092526200127991810190620028a5565b60015b620012e15760405162461bcd60e51b815260206004820152602e60248201527f45524331393637557067726164653a206e657720696d706c656d656e7461746960448201526d6f6e206973206e6f74205555505360901b606482015260840162000432565b600080516020620036db8339815191528114620013535760405162461bcd60e51b815260206004820152602960248201527f45524331393637557067726164653a20756e737570706f727465642070726f786044820152681a58589b195555525160ba1b606482015260840162000432565b5062000fe783838362001ded565b600054610100900460ff16620008665760405162461bcd60e51b8152600401620004329062002d44565b600054610100900460ff16620013b55760405162461bcd60e51b8152600401620004329062002d44565b6200086662001e18565b600054610100900460ff16620013e95760405162461bcd60e51b8152600401620004329062002d44565b6200086662001e4d565b6033546001600160a01b03163314620008665760405162461bcd60e51b815260206004820181905260248201527f4f776e61626c653a2063616c6c6572206973206e6f7420746865206f776e6572604482015260640162000432565b603380546001600160a01b038381166001600160a01b0319831681179093556040519116919082907f8be0079c531659141344cd1fd0a4f28419497f9722a3daafe3b4186f6b6457e090600090a35050565b600260655403620014f55760405162461bcd60e51b815260206004820152601f60248201527f5265656e7472616e637947756172643a207265656e7472616e742063616c6c00604482015260640162000432565b6002606555565b600082828080601f0160208091040260200160405190810160405280939291908181526020018383808284376000920191909152505082519293505060029091109050806200154c575080516020105b156200156b5760405163354b556f60e11b815260040160405180910390fd5b805160005b818110156200173557600360fc1b838281518110620015935762001593620026bb565b01602001516001600160f81b0319161080620015d55750603d60f91b838281518110620015c457620015c4620026bb565b01602001516001600160f81b031916115b80620016395750603960f81b838281518110620015f657620015f6620026bb565b01602001516001600160f81b031916118015620016395750606160f81b838281518110620016285762001628620026bb565b01602001516001600160f81b031916105b80156200166e5750828181518110620016565762001656620026bb565b6020910101516001600160f81b031916601760f91b14155b8015620016a357508281815181106200168b576200168b620026bb565b6020910101516001600160f81b031916602d60f81b14155b8015620016d85750828181518110620016c057620016c0620026bb565b6020910101516001600160f81b031916605f60f81b14155b80156200170d5750828181518110620016f557620016f5620026bb565b6020910101516001600160f81b031916600160fd1b14155b156200172c5760405163f8fa659760e01b815260040160405180910390fd5b60010162001570565b5050505050565b604080518082018252600581526427bbb732b960d91b60208201529051632f8d192560e01b81526000916001600160a01b03861691632f8d192591620017889160ff9060040162002d8f565b6020604051808303816000875af1158015620017a8573d6000803e3d6000fd5b505050506040513d601f19601f82011682018060405250810190620017ce9190620028a5565b6040516324ccd58b60e11b8152600481018290529091506001600160a01b03851690634999ab1690602401600060405180830381600087803b1580156200181457600080fd5b505af115801562001829573d6000803e3d6000fd5b5060009250600191506200183a9050565b6040519080825280602002602001820160405280156200188d57816020015b6040805160808101825260008082526020808301829052928201526060808201528252600019909201910181620018595790505b5060408051600180825281830190925291925060009190602080830190803683370190505090508381600081518110620018cb57620018cb620026bb565b6020908102919091018101919091526040805160808101825260fe546001600160a01b0316815260019281018390529081019190915260608101829052825183906000906200191e576200191e620026bb565b6020026020010181905250856001600160a01b0316633ace20c18487856040516020016200194d919062002e7d565b6040516020818303038152906040526040518463ffffffff1660e01b81526004016200197c9392919062002f40565b600060405180830381600087803b1580156200199757600080fd5b505af1158015620019ac573d6000803e3d6000fd5b50505050505050505050565b604080518082018252600881526745766572796f6e6560c01b60208201529051632f8d192560e01b81526000916001600160a01b03861691632f8d19259162001a0691869060040162002f6c565b6020604051808303816000875af115801562001a26573d6000803e3d6000fd5b505050506040513d601f19601f8201168201806040525081019062001a4c9190620028a5565b60408051600160208201529192506001600160a01b03861691633ace20c19184918791016040516020818303038152906040526040518463ffffffff1660e01b815260040162001a9f9392919062002f40565b600060405180830381600087803b15801562001aba57600080fd5b505af115801562001acf573d6000803e3d6000fd5b5050505050505050565b6020810151511562001ce45780516020820151604051632f8d192560e01b81526000926001600160a01b03881692632f8d19259262001b1d92919060040162002f6c565b6020604051808303816000875af115801562001b3d573d6000803e3d6000fd5b505050506040513d601f19601f8201168201806040525081019062001b639190620028a5565b905060005b82606001515181101562001c4157856001600160a01b0316633ace20c183868660600151858151811062001ba05762001ba0620026bb565b602002602001015160405160200162001bc891906001600160a01b0391909116815260200190565b6040516020818303038152906040526040518463ffffffff1660e01b815260040162001bf79392919062002f40565b600060405180830381600087803b15801562001c1257600080fd5b505af115801562001c27573d6000803e3d6000fd5b50505050808062001c38906200281d565b91505062001b68565b5081604001515160000362001c57575062001ce4565b846001600160a01b0316633ace20c18286856040015160405160200162001c7f919062002e7d565b6040516020818303038152906040526040518463ffffffff1660e01b815260040162001cae9392919062002f40565b600060405180830381600087803b15801562001cc957600080fd5b505af115801562001cde573d6000803e3d6000fd5b50505050505b50505050565b6001606555565b60008160405160200162001d06919062002f95565b604051602081830303815290604052805190602001208360405160200162001d2f919062002f95565b6040516020818303038152906040528051906020012014905092915050565b6001600160a01b0381163b62001dbd5760405162461bcd60e51b815260206004820152602d60248201527f455243313936373a206e657720696d706c656d656e746174696f6e206973206e60448201526c1bdd08184818dbdb9d1c9858dd609a1b606482015260840162000432565b600080516020620036db83398151915280546001600160a01b0319166001600160a01b0392909216919091179055565b62001df88362001e77565b60008251118062001e065750805b1562000fe75762001ce4838362001eb9565b600054610100900460ff1662001e425760405162461bcd60e51b8152600401620004329062002d44565b62000866336200144f565b600054610100900460ff1662001cea5760405162461bcd60e51b8152600401620004329062002d44565b62001e828162001d4e565b6040516001600160a01b038216907fbc7cd75a20ee27fd9adebab32041f755214dbc6bffa90cc0225b39da2e5c2d3b90600090a250565b60606001600160a01b0383163b62001f235760405162461bcd60e51b815260206004820152602660248201527f416464726573733a2064656c65676174652063616c6c20746f206e6f6e2d636f6044820152651b9d1c9858dd60d21b606482015260840162000432565b600080846001600160a01b03168460405162001f40919062002f95565b600060405180830381855af49150503d806000811462001f7d576040519150601f19603f3d011682016040523d82523d6000602084013e62001f82565b606091505b509150915062001fad8282604051806060016040528060278152602001620036fb6027913962001fb6565b95945050505050565b6060831562001fc757508162001fd3565b62001fd3838362001fda565b9392505050565b81511562001feb5781518083602001fd5b8060405162461bcd60e51b815260040162000432919062002511565b6107278062002fb483390190565b6000602082840312156200202857600080fd5b5035919050565b80356001600160a01b03811681146200204757600080fd5b919050565b6000602082840312156200205f57600080fd5b62001fd3826200202f565b634e487b7160e01b600052604160045260246000fd5b604051608081016001600160401b0381118282101715620020a557620020a56200206a565b60405290565b604051601f8201601f191681016001600160401b0381118282101715620020d657620020d66200206a565b604052919050565b60006001600160401b03821115620020fa57620020fa6200206a565b5060051b60200190565b60006001600160401b038311156200212057620021206200206a565b62002135601f8401601f1916602001620020ab565b90508281528383830111156200214a57600080fd5b828260208301376000602084830101529392505050565b600082601f8301126200217357600080fd5b62001fd38383356020850162002104565b60006200219b6200219584620020de565b620020ab565b8381529050602080820190600585901b840186811115620021bb57600080fd5b845b81811015620021fb5780356001600160401b03811115620021de5760008081fd5b620021ec8982890162002161565b855250928201928201620021bd565b505050509392505050565b600082601f8301126200221857600080fd5b62001fd38383356020850162002184565b600080600080600060a086880312156200224257600080fd5b6200224d866200202f565b94506200225d602087016200202f565b93506200226d604087016200202f565b92506200227d606087016200202f565b915060808601356001600160401b038111156200229957600080fd5b620022a78882890162002206565b9150509295509295909350565b60008060408385031215620022c857600080fd5b620022d3836200202f565b915060208301356001600160401b03811115620022ef57600080fd5b8301601f810185136200230157600080fd5b620023128582356020840162002104565b9150509250929050565b60008083601f8401126200232f57600080fd5b5081356001600160401b038111156200234757600080fd5b6020830191508360208285010111156200236057600080fd5b9250929050565b60008083601f8401126200237a57600080fd5b5081356001600160401b038111156200239257600080fd5b6020830191508360208260051b85010111156200236057600080fd5b600060808284031215620023c157600080fd5b50919050565b600080600080600080600080600060a08a8c031215620023e657600080fd5b89356001600160401b0380821115620023fe57600080fd5b6200240c8d838e016200231c565b909b50995060208c01359150808211156200242657600080fd5b620024348d838e016200231c565b909950975060408c01359150808211156200244e57600080fd5b6200245c8d838e016200231c565b909750955060608c01359150808211156200247657600080fd5b620024848d838e0162002367565b909550935060808c01359150808211156200249e57600080fd5b50620024ad8c828d01620023ae565b9150509295985092959850929598565b60005b83811015620024da578181015183820152602001620024c0565b50506000910152565b60008151808452620024fd816020860160208601620024bd565b601f01601f19169290920160200192915050565b60208152600062001fd36020830184620024e3565b600080602083850312156200253a57600080fd5b82356001600160401b038111156200255157600080fd5b6200255f8582860162002367565b90969095509350505050565b600081518084526020808501808196508360051b8101915082860160005b85811015620025b7578284038952620025a4848351620024e3565b9885019893509084019060010162002589565b5091979650505050505050565b60208152600062001fd360208301846200256b565b600080600060608486031215620025ef57600080fd5b620025fa846200202f565b92506200260a602085016200202f565b91506200261a604085016200202f565b90509250925092565b6020808252602c908201527f46756e6374696f6e206d7573742062652063616c6c6564207468726f7567682060408201526b19195b1959d85d1958d85b1b60a21b606082015260800190565b6020808252602c908201527f46756e6374696f6e206d7573742062652063616c6c6564207468726f7567682060408201526b6163746976652070726f787960a01b606082015260800190565b634e487b7160e01b600052603260045260246000fd5b600181811c90821680620026e657607f821691505b602082108103620023c157634e487b7160e01b600052602260045260246000fd5b601f82111562000fe757600081815260208120601f850160051c81016020861015620027305750805b601f850160051c820191505b81811015620006b6578281556001016200273c565b81516001600160401b038111156200276d576200276d6200206a565b62002785816200277e8454620026d1565b8462002707565b602080601f831160018114620027bd5760008415620027a45750858301515b600019600386901b1c1916600185901b178555620006b6565b600085815260208120601f198616915b82811015620027ee57888601518255948401946001909101908401620027cd565b50858210156200280d5787850151600019600388901b60f8161c191681555b5050505050600190811b01905550565b6000600182016200283e57634e487b7160e01b600052601160045260246000fd5b5060010190565b8183823760009101908152919050565b81835281816020850137506000828201602090810191909152601f909101601f19169091010190565b6001600160a01b038416815260406020820181905260009062001fad908301848662002855565b600060208284031215620028b857600080fd5b5051919050565b6001600160a01b0383168152604060208201819052600090620028e590830184620024e3565b949350505050565b6060815260006200290360608301878962002855565b6020838203818501526200291982878962002855565b8481036040860152855180825282870193509082019060005b81811015620029595784516001600160a01b03168352938301939183019160010162002932565b50909a9950505050505050505050565b600062001fd336848462002184565b600082601f8301126200298a57600080fd5b813560206200299d6200219583620020de565b828152600592831b8501820192828201919087851115620029bd57600080fd5b8387015b8581101562002ad15780356001600160401b0380821115620029e35760008081fd5b908901906080828c03601f1901811315620029fe5760008081fd5b62002a0862002080565b62002a158985016200202f565b81526040808501358a830152606080860135801515811462002a375760008081fd5b8383015292850135928484111562002a4f5760008081fd5b83860195508e603f87011262002a6757600094508485fd5b8a860135945062002a7c6200219586620020de565b85815294881b86018201948b810194508f86111562002a9b5760008081fd5b958201955b8587101562002abb5786358552958b0195938b019362002aa0565b90830152508752505050928401928401620029c1565b5090979650505050505050565b600082601f83011262002af057600080fd5b8135602062002b036200219583620020de565b82815260059290921b8401810191818101908684111562002b2357600080fd5b8286015b8481101562002b495762002b3b816200202f565b835291830191830162002b27565b509695505050505050565b60006080823603121562002b6757600080fd5b62002b7162002080565b82356001600160401b038082111562002b8957600080fd5b62002b973683870162002161565b8352602085013591508082111562002bae57600080fd5b62002bbc3683870162002206565b6020840152604085013591508082111562002bd657600080fd5b62002be43683870162002978565b6040840152606085013591508082111562002bfe57600080fd5b5062002c0d3682860162002ade565b60608301525092915050565b602081526000620028e560208301848662002855565b6000808335601e1984360301811262002c4757600080fd5b8301803591506001600160401b0382111562002c6257600080fd5b6020019150368190038213156200236057600080fd5b6001600160401b0383111562002c925762002c926200206a565b62002caa8362002ca38354620026d1565b8362002707565b6000601f84116001811462002ce1576000851562002cc85750838201355b600019600387901b1c1916600186901b17835562001735565b600083815260209020601f19861690835b8281101562002d14578685013582556020948501946001909201910162002cf2565b508682101562002d325760001960f88860031b161c19848701351681555b505060018560011b0183555050505050565b6020808252602b908201527f496e697469616c697a61626c653a20636f6e7472616374206973206e6f74206960408201526a6e697469616c697a696e6760a81b606082015260800190565b60408152600062002da46040830185620024e3565b602083820381850152818554808452828401915060058382821b8601016000898152858120815b8581101562002e6c57601f1989850301875282825462002deb81620026d1565b8087526001828116801562002e09576001811462002e235762002e54565b60ff198416898e01528215158a1b89018d01945062002e54565b8688528c8820885b8481101562002e4c5781548f828d01015283820191508e8101905062002e2b565b8a018e019550505b50998b01999296505050919091019060010162002dcb565b50919b9a5050505050505050505050565b60006020808301818452808551808352604092508286019150828160051b8701018488016000805b8481101562002f3157898403603f19018652825180516001600160a01b031685528881015189860152878101511515888601526060908101516080918601829052805191860182905289019060a086019084905b8082101562002f1b5783518352928b0192918b01916001919091019062002ef9565b5050968901969450509187019160010162002ea5565b50919998505050505050505050565b8381526001600160a01b038316602082015260606040820181905260009062001fad90830184620024e3565b60408152600062002f816040830185620024e3565b828103602084015262001fad81856200256b565b6000825162002fa9818460208701620024bd565b919091019291505056fe608060405260405161072738038061072783398101604081905261002291610319565b61002e82826000610035565b5050610436565b61003e8361006b565b60008251118061004b5750805b156100665761006483836100ab60201b6100291760201c565b505b505050565b610074816100d7565b6040516001600160a01b038216907fbc7cd75a20ee27fd9adebab32041f755214dbc6bffa90cc0225b39da2e5c2d3b90600090a250565b60606100d08383604051806060016040528060278152602001610700602791396101a9565b9392505050565b6100ea8161022260201b6100551760201c565b6101515760405162461bcd60e51b815260206004820152602d60248201527f455243313936373a206e657720696d706c656d656e746174696f6e206973206e60448201526c1bdd08184818dbdb9d1c9858dd609a1b60648201526084015b60405180910390fd5b806101887f360894a13ba1a3210667c828492db98dca3e2076cc3735a920a3ca505d382bbc60001b61023160201b6100641760201c565b80546001600160a01b0319166001600160a01b039290921691909117905550565b6060600080856001600160a01b0316856040516101c691906103e7565b600060405180830381855af49150503d8060008114610201576040519150601f19603f3d011682016040523d82523d6000602084013e610206565b606091505b50909250905061021886838387610234565b9695505050505050565b6001600160a01b03163b151590565b90565b606083156102a357825160000361029c576001600160a01b0385163b61029c5760405162461bcd60e51b815260206004820152601d60248201527f416464726573733a2063616c6c20746f206e6f6e2d636f6e74726163740000006044820152606401610148565b50816102ad565b6102ad83836102b5565b949350505050565b8151156102c55781518083602001fd5b8060405162461bcd60e51b81526004016101489190610403565b634e487b7160e01b600052604160045260246000fd5b60005b838110156103105781810151838201526020016102f8565b50506000910152565b6000806040838503121561032c57600080fd5b82516001600160a01b038116811461034357600080fd5b60208401519092506001600160401b038082111561036057600080fd5b818501915085601f83011261037457600080fd5b815181811115610386576103866102df565b604051601f8201601f19908116603f011681019083821181831017156103ae576103ae6102df565b816040528281528860208487010111156103c757600080fd5b6103d88360208301602088016102f5565b80955050505050509250929050565b600082516103f98184602087016102f5565b9190910192915050565b60208152600082518060208401526104228160408501602087016102f5565b601f01601f19169190910160400192915050565b6102bb806104456000396000f3fe60806040523661001357610011610017565b005b6100115b610027610022610067565b61009f565b565b606061004e838360405180606001604052806027815260200161025f602791396100c3565b9392505050565b6001600160a01b03163b151590565b90565b600061009a7f360894a13ba1a3210667c828492db98dca3e2076cc3735a920a3ca505d382bbc546001600160a01b031690565b905090565b3660008037600080366000845af43d6000803e8080156100be573d6000f35b3d6000fd5b6060600080856001600160a01b0316856040516100e0919061020f565b600060405180830381855af49150503d806000811461011b576040519150601f19603f3d011682016040523d82523d6000602084013e610120565b606091505b50915091506101318683838761013b565b9695505050505050565b606083156101af5782516000036101a8576001600160a01b0385163b6101a85760405162461bcd60e51b815260206004820152601d60248201527f416464726573733a2063616c6c20746f206e6f6e2d636f6e747261637400000060448201526064015b60405180910390fd5b50816101b9565b6101b983836101c1565b949350505050565b8151156101d15781518083602001fd5b8060405162461bcd60e51b815260040161019f919061022b565b60005b838110156102065781810151838201526020016101ee565b50506000910152565b600082516102218184602087016101eb565b9190910192915050565b602081526000825180602084015261024a8160408501602087016101eb565b601f01601f1916919091016040019291505056fe416464726573733a206c6f772d6c6576656c2064656c65676174652063616c6c206661696c6564a2646970667358221220bcb631bc62aa9db130260e9e789be1bbcfb94d1291b8b22c1961be187bb3183664736f6c63430008110033416464726573733a206c6f772d6c6576656c2064656c65676174652063616c6c206661696c6564360894a13ba1a3210667c828492db98dca3e2076cc3735a920a3ca505d382bbc416464726573733a206c6f772d6c6576656c2064656c65676174652063616c6c206661696c6564a264697066735822122057d7b5a07df8ee1a6a09e7acc78f90e3f6bf4ba1d6ccefa6614a7ad8a0b6132d64736f6c63430008110033",
    "linkReferences": {}
  },
  "methodIdentifiers": {
    "SPACE_IMPLEMENTATION_ADDRESS()": "f21cd401",
    "SPACE_TOKEN_ADDRESS()": "683c72b6",
    "TOKEN_IMPLEMENTATION_ADDRESS()": "cfc27037",
    "USER_IMPLEMENTATION_ADDRESS()": "08bc0b4b",
    "addOwnerPermissions(string[])": "be8b5967",
    "createSpace(string,string,string,string[],(string,string[],(address,uint256,bool,uint256[])[],address[]))": "ad78faf3",
    "getOwnerPermissions()": "df2cd9fe",
    "initialize(address,address,address,address,string[])": "45bfa5b1",
    "owner()": "8da5cb5b",
    "ownerPermissions(uint256)": "b28032f9",
    "proxiableUUID()": "52d1902d",
    "renounceOwnership()": "715018a6",
    "spaceByHash(bytes32)": "3312540a",
    "tokenByHash(bytes32)": "f3aba305",
    "transferOwnership(address)": "f2fde38b",
    "updateImplementations(address,address,address)": "dfc666ff",
    "upgradeTo(address)": "3659cfe6",
    "upgradeToAndCall(address,bytes)": "4f1ef286"
  },
  "id": 46
}