{
  "abi": [
    {
      "inputs": [],
      "name": "AddRoleFailed",
      "type": "error"
    },
    {
      "inputs": [],
      "name": "ChannelAlreadyRegistered",
      "type": "error"
    },
    {
      "inputs": [],
      "name": "ChannelDoesNotExist",
      "type": "error"
    },
    {
      "inputs": [],
      "name": "EntitlementAlreadyExists",
      "type": "error"
    },
    {
      "inputs": [],
      "name": "EntitlementAlreadyWhitelisted",
      "type": "error"
    },
    {
      "inputs": [],
      "name": "EntitlementModuleNotSupported",
      "type": "error"
    },
    {
      "inputs": [],
      "name": "EntitlementNotWhitelisted",
      "type": "error"
    },
    {
      "inputs": [],
      "name": "InvalidParameters",
      "type": "error"
    },
    {
      "inputs": [],
      "name": "MissingOwnerPermission",
      "type": "error"
    },
    {
      "inputs": [],
      "name": "NotAllowed",
      "type": "error"
    },
    {
      "inputs": [],
      "name": "OwnerPermissionNotAllowed",
      "type": "error"
    },
    {
      "inputs": [],
      "name": "PermissionAlreadyExists",
      "type": "error"
    },
    {
      "inputs": [],
      "name": "RoleDoesNotExist",
      "type": "error"
    },
    {
      "inputs": [],
      "name": "RoleIsAssignedToEntitlement",
      "type": "error"
    },
    {
      "anonymous": false,
      "inputs": [
        {
          "indexed": false,
          "internalType": "address",
          "name": "previousAdmin",
          "type": "address"
        },
        {
          "indexed": false,
          "internalType": "address",
          "name": "newAdmin",
          "type": "address"
        }
      ],
      "name": "AdminChanged",
      "type": "event"
    },
    {
      "anonymous": false,
      "inputs": [
        {
          "indexed": true,
          "internalType": "address",
          "name": "beacon",
          "type": "address"
        }
      ],
      "name": "BeaconUpgraded",
      "type": "event"
    },
    {
      "anonymous": false,
      "inputs": [
        {
          "indexed": false,
          "internalType": "uint8",
          "name": "version",
          "type": "uint8"
        }
      ],
      "name": "Initialized",
      "type": "event"
    },
    {
      "anonymous": false,
      "inputs": [
        {
          "indexed": true,
          "internalType": "address",
          "name": "previousOwner",
          "type": "address"
        },
        {
          "indexed": true,
          "internalType": "address",
          "name": "newOwner",
          "type": "address"
        }
      ],
      "name": "OwnershipTransferred",
      "type": "event"
    },
    {
      "anonymous": false,
      "inputs": [
        {
          "indexed": true,
          "internalType": "address",
          "name": "implementation",
          "type": "address"
        }
      ],
      "name": "Upgraded",
      "type": "event"
    },
    {
      "inputs": [
        {
          "internalType": "uint256",
          "name": "_roleId",
          "type": "uint256"
        },
        {
          "internalType": "string",
          "name": "_permission",
          "type": "string"
        }
      ],
      "name": "addPermissionToRole",
      "outputs": [],
      "stateMutability": "nonpayable",
      "type": "function"
    },
    {
      "inputs": [
        {
          "internalType": "string",
          "name": "_channelId",
          "type": "string"
        },
        {
          "internalType": "address",
          "name": "_entitlement",
          "type": "address"
        },
        {
          "internalType": "uint256",
          "name": "_roleId",
          "type": "uint256"
        }
      ],
      "name": "addRoleToChannel",
      "outputs": [],
      "stateMutability": "nonpayable",
      "type": "function"
    },
    {
      "inputs": [
        {
          "internalType": "uint256",
          "name": "_roleId",
          "type": "uint256"
        },
        {
          "components": [
            {
              "internalType": "address",
              "name": "module",
              "type": "address"
            },
            {
              "internalType": "bytes",
              "name": "data",
              "type": "bytes"
            }
          ],
          "internalType": "struct DataTypes.Entitlement",
          "name": "_entitlement",
          "type": "tuple"
        }
      ],
      "name": "addRoleToEntitlement",
      "outputs": [],
      "stateMutability": "nonpayable",
      "type": "function"
    },
    {
      "inputs": [
        {
          "internalType": "uint256",
          "name": "",
          "type": "uint256"
        }
      ],
      "name": "channels",
      "outputs": [
        {
          "internalType": "bytes32",
          "name": "",
          "type": "bytes32"
        }
      ],
      "stateMutability": "view",
      "type": "function"
    },
    {
      "inputs": [
        {
          "internalType": "bytes32",
          "name": "",
          "type": "bytes32"
        }
      ],
      "name": "channelsByHash",
      "outputs": [
        {
          "internalType": "string",
          "name": "name",
          "type": "string"
        },
        {
          "internalType": "bytes32",
          "name": "channelId",
          "type": "bytes32"
        },
        {
          "internalType": "uint256",
          "name": "createdAt",
          "type": "uint256"
        },
        {
          "internalType": "bool",
          "name": "disabled",
          "type": "bool"
        }
      ],
      "stateMutability": "view",
      "type": "function"
    },
    {
      "inputs": [
        {
          "internalType": "string",
          "name": "channelName",
          "type": "string"
        },
        {
          "internalType": "string",
          "name": "channelNetworkId",
          "type": "string"
        },
        {
          "internalType": "uint256[]",
          "name": "roleIds",
          "type": "uint256[]"
        }
      ],
      "name": "createChannel",
      "outputs": [
        {
          "internalType": "bytes32",
          "name": "",
          "type": "bytes32"
        }
      ],
      "stateMutability": "nonpayable",
      "type": "function"
    },
    {
      "inputs": [
        {
          "internalType": "string",
          "name": "_roleName",
          "type": "string"
        },
        {
          "internalType": "string[]",
          "name": "_permissions",
          "type": "string[]"
        },
        {
          "components": [
            {
              "internalType": "address",
              "name": "module",
              "type": "address"
            },
            {
              "internalType": "bytes",
              "name": "data",
              "type": "bytes"
            }
          ],
          "internalType": "struct DataTypes.Entitlement[]",
          "name": "_entitlements",
          "type": "tuple[]"
        }
      ],
      "name": "createRole",
      "outputs": [
        {
          "internalType": "uint256",
          "name": "",
          "type": "uint256"
        }
      ],
      "stateMutability": "nonpayable",
      "type": "function"
    },
    {
      "inputs": [
        {
          "internalType": "address",
          "name": "",
          "type": "address"
        }
      ],
      "name": "defaultEntitlements",
      "outputs": [
        {
          "internalType": "bool",
          "name": "",
          "type": "bool"
        }
      ],
      "stateMutability": "view",
      "type": "function"
    },
    {
      "inputs": [],
      "name": "disabled",
      "outputs": [
        {
          "internalType": "bool",
          "name": "",
          "type": "bool"
        }
      ],
      "stateMutability": "view",
      "type": "function"
    },
    {
      "inputs": [
        {
          "internalType": "uint256",
          "name": "",
          "type": "uint256"
        }
      ],
      "name": "entitlements",
      "outputs": [
        {
          "internalType": "address",
          "name": "",
          "type": "address"
        }
      ],
      "stateMutability": "view",
      "type": "function"
    },
    {
      "inputs": [
        {
          "internalType": "bytes32",
          "name": "_channelHash",
          "type": "bytes32"
        }
      ],
      "name": "getChannelByHash",
      "outputs": [
        {
          "components": [
            {
              "internalType": "string",
              "name": "name",
              "type": "string"
            },
            {
              "internalType": "bytes32",
              "name": "channelId",
              "type": "bytes32"
            },
            {
              "internalType": "uint256",
              "name": "createdAt",
              "type": "uint256"
            },
            {
              "internalType": "bool",
              "name": "disabled",
              "type": "bool"
            }
          ],
          "internalType": "struct DataTypes.Channel",
          "name": "",
          "type": "tuple"
        }
      ],
      "stateMutability": "view",
      "type": "function"
    },
    {
      "inputs": [
        {
          "internalType": "uint256",
          "name": "_roleId",
          "type": "uint256"
        }
      ],
      "name": "getEntitlementIdsByRoleId",
      "outputs": [
        {
          "internalType": "bytes32[]",
          "name": "",
          "type": "bytes32[]"
        }
      ],
      "stateMutability": "view",
      "type": "function"
    },
    {
      "inputs": [],
      "name": "getEntitlements",
      "outputs": [
        {
          "internalType": "address[]",
          "name": "",
          "type": "address[]"
        }
      ],
      "stateMutability": "view",
      "type": "function"
    },
    {
      "inputs": [
        {
          "internalType": "uint256",
          "name": "_roleId",
          "type": "uint256"
        }
      ],
      "name": "getPermissionsByRoleId",
      "outputs": [
        {
          "internalType": "bytes32[]",
          "name": "",
          "type": "bytes32[]"
        }
      ],
      "stateMutability": "view",
      "type": "function"
    },
    {
      "inputs": [
        {
          "internalType": "uint256",
          "name": "_roleId",
          "type": "uint256"
        }
      ],
      "name": "getRoleById",
      "outputs": [
        {
          "components": [
            {
              "internalType": "uint256",
              "name": "roleId",
              "type": "uint256"
            },
            {
              "internalType": "string",
              "name": "name",
              "type": "string"
            }
          ],
          "internalType": "struct DataTypes.Role",
          "name": "",
          "type": "tuple"
        }
      ],
      "stateMutability": "view",
      "type": "function"
    },
    {
      "inputs": [],
      "name": "getRoles",
      "outputs": [
        {
          "components": [
            {
              "internalType": "uint256",
              "name": "roleId",
              "type": "uint256"
            },
            {
              "internalType": "string",
              "name": "name",
              "type": "string"
            }
          ],
          "internalType": "struct DataTypes.Role[]",
          "name": "",
          "type": "tuple[]"
        }
      ],
      "stateMutability": "view",
      "type": "function"
    },
    {
      "inputs": [
        {
          "internalType": "address",
          "name": "",
          "type": "address"
        }
      ],
      "name": "hasEntitlement",
      "outputs": [
        {
          "internalType": "bool",
          "name": "",
          "type": "bool"
        }
      ],
      "stateMutability": "view",
      "type": "function"
    },
    {
      "inputs": [
        {
          "internalType": "string",
          "name": "_name",
          "type": "string"
        },
        {
          "internalType": "string",
          "name": "_networkId",
          "type": "string"
        },
        {
          "internalType": "address[]",
          "name": "_entitlements",
          "type": "address[]"
        }
      ],
      "name": "initialize",
      "outputs": [],
      "stateMutability": "nonpayable",
      "type": "function"
    },
    {
      "inputs": [
        {
          "internalType": "string",
          "name": "_channelId",
          "type": "string"
        },
        {
          "internalType": "address",
          "name": "_user",
          "type": "address"
        },
        {
          "internalType": "string",
          "name": "_permission",
          "type": "string"
        }
      ],
      "name": "isEntitledToChannel",
      "outputs": [
        {
          "internalType": "bool",
          "name": "_entitled",
          "type": "bool"
        }
      ],
      "stateMutability": "view",
      "type": "function"
    },
    {
      "inputs": [
        {
          "internalType": "address",
          "name": "_user",
          "type": "address"
        },
        {
          "internalType": "string",
          "name": "_permission",
          "type": "string"
        }
      ],
      "name": "isEntitledToSpace",
      "outputs": [
        {
          "internalType": "bool",
          "name": "_entitled",
          "type": "bool"
        }
      ],
      "stateMutability": "view",
      "type": "function"
    },
    {
      "inputs": [
        {
          "internalType": "bytes[]",
          "name": "data",
          "type": "bytes[]"
        }
      ],
      "name": "multicall",
      "outputs": [
        {
          "internalType": "bytes[]",
          "name": "results",
          "type": "bytes[]"
        }
      ],
      "stateMutability": "nonpayable",
      "type": "function"
    },
    {
      "inputs": [],
      "name": "name",
      "outputs": [
        {
          "internalType": "string",
          "name": "",
          "type": "string"
        }
      ],
      "stateMutability": "view",
      "type": "function"
    },
    {
      "inputs": [],
      "name": "networkId",
      "outputs": [
        {
          "internalType": "string",
          "name": "",
          "type": "string"
        }
      ],
      "stateMutability": "view",
      "type": "function"
    },
    {
      "inputs": [],
      "name": "owner",
      "outputs": [
        {
          "internalType": "address",
          "name": "",
          "type": "address"
        }
      ],
      "stateMutability": "view",
      "type": "function"
    },
    {
      "inputs": [],
      "name": "ownerRoleId",
      "outputs": [
        {
          "internalType": "uint256",
          "name": "",
          "type": "uint256"
        }
      ],
      "stateMutability": "view",
      "type": "function"
    },
    {
      "inputs": [],
      "name": "proxiableUUID",
      "outputs": [
        {
          "internalType": "bytes32",
          "name": "",
          "type": "bytes32"
        }
      ],
      "stateMutability": "view",
      "type": "function"
    },
    {
      "inputs": [
        {
          "internalType": "uint256",
          "name": "_roleId",
          "type": "uint256"
        },
        {
          "internalType": "string",
          "name": "_permission",
          "type": "string"
        }
      ],
      "name": "removePermissionFromRole",
      "outputs": [],
      "stateMutability": "nonpayable",
      "type": "function"
    },
    {
      "inputs": [
        {
          "internalType": "uint256",
          "name": "_roleId",
          "type": "uint256"
        }
      ],
      "name": "removeRole",
      "outputs": [],
      "stateMutability": "nonpayable",
      "type": "function"
    },
    {
      "inputs": [
        {
          "internalType": "string",
          "name": "_channelId",
          "type": "string"
        },
        {
          "internalType": "address",
          "name": "_entitlement",
          "type": "address"
        },
        {
          "internalType": "uint256",
          "name": "_roleId",
          "type": "uint256"
        }
      ],
      "name": "removeRoleFromChannel",
      "outputs": [],
      "stateMutability": "nonpayable",
      "type": "function"
    },
    {
      "inputs": [
        {
          "internalType": "uint256",
          "name": "_roleId",
          "type": "uint256"
        },
        {
          "components": [
            {
              "internalType": "address",
              "name": "module",
              "type": "address"
            },
            {
              "internalType": "bytes",
              "name": "data",
              "type": "bytes"
            }
          ],
          "internalType": "struct DataTypes.Entitlement",
          "name": "_entitlement",
          "type": "tuple"
        }
      ],
      "name": "removeRoleFromEntitlement",
      "outputs": [],
      "stateMutability": "nonpayable",
      "type": "function"
    },
    {
      "inputs": [],
      "name": "renounceOwnership",
      "outputs": [],
      "stateMutability": "nonpayable",
      "type": "function"
    },
    {
      "inputs": [],
      "name": "roleCount",
      "outputs": [
        {
          "internalType": "uint256",
          "name": "",
          "type": "uint256"
        }
      ],
      "stateMutability": "view",
      "type": "function"
    },
    {
      "inputs": [
        {
          "internalType": "uint256",
          "name": "",
          "type": "uint256"
        }
      ],
      "name": "rolesById",
      "outputs": [
        {
          "internalType": "uint256",
          "name": "roleId",
          "type": "uint256"
        },
        {
          "internalType": "string",
          "name": "name",
          "type": "string"
        }
      ],
      "stateMutability": "view",
      "type": "function"
    },
    {
      "inputs": [
        {
          "internalType": "string",
          "name": "_channelId",
          "type": "string"
        },
        {
          "internalType": "bool",
          "name": "_disabled",
          "type": "bool"
        }
      ],
      "name": "setChannelAccess",
      "outputs": [],
      "stateMutability": "nonpayable",
      "type": "function"
    },
    {
      "inputs": [
        {
          "internalType": "address",
          "name": "_entitlement",
          "type": "address"
        },
        {
          "internalType": "bool",
          "name": "_whitelist",
          "type": "bool"
        }
      ],
      "name": "setEntitlement",
      "outputs": [],
      "stateMutability": "nonpayable",
      "type": "function"
    },
    {
      "inputs": [
        {
          "internalType": "uint256",
          "name": "_roleId",
          "type": "uint256"
        }
      ],
      "name": "setOwnerRoleId",
      "outputs": [],
      "stateMutability": "nonpayable",
      "type": "function"
    },
    {
      "inputs": [
        {
          "internalType": "bool",
          "name": "_disabled",
          "type": "bool"
        }
      ],
      "name": "setSpaceAccess",
      "outputs": [],
      "stateMutability": "nonpayable",
      "type": "function"
    },
    {
      "inputs": [
        {
          "internalType": "address",
          "name": "newOwner",
          "type": "address"
        }
      ],
      "name": "transferOwnership",
      "outputs": [],
      "stateMutability": "nonpayable",
      "type": "function"
    },
    {
      "inputs": [
        {
          "internalType": "string",
          "name": "_channelId",
          "type": "string"
        },
        {
          "internalType": "string",
          "name": "_channelName",
          "type": "string"
        }
      ],
      "name": "updateChannel",
      "outputs": [],
      "stateMutability": "nonpayable",
      "type": "function"
    },
    {
      "inputs": [
        {
          "internalType": "uint256",
          "name": "_roleId",
          "type": "uint256"
        },
        {
          "internalType": "string",
          "name": "_roleName",
          "type": "string"
        }
      ],
      "name": "updateRole",
      "outputs": [],
      "stateMutability": "nonpayable",
      "type": "function"
    },
    {
      "inputs": [
        {
          "internalType": "address",
          "name": "newImplementation",
          "type": "address"
        }
      ],
      "name": "upgradeTo",
      "outputs": [],
      "stateMutability": "nonpayable",
      "type": "function"
    },
    {
      "inputs": [
        {
          "internalType": "address",
          "name": "newImplementation",
          "type": "address"
        },
        {
          "internalType": "bytes",
          "name": "data",
          "type": "bytes"
        }
      ],
      "name": "upgradeToAndCall",
      "outputs": [],
      "stateMutability": "payable",
      "type": "function"
    }
  ],
  "bytecode": {
    "object": "0x60a06040523060805234801561001457600080fd5b5060805161466a61004c60003960008181610ceb01528181610d34015281816110140152818161105401526113fe015261466a6000f3fe6080604052600436106102515760003560e01c80638da5cb5b11610139578063d1a6a961116100b6578063ee0708051161007a578063ee07080514610737578063f28f9b5614610751578063f2fde38b14610771578063f3b96ab414610791578063f740bb6b146107b1578063fa6433c5146107d157600080fd5b8063d1a6a9611461069d578063dba81864146106b3578063ddf96358146106d3578063e5894ef4146106e9578063e5949b5d1461071757600080fd5b8063b4264233116100fd578063b4264233146105fd578063ba201ba81461061d578063baaf3d571461063d578063ca2759311461065d578063cea632bc1461067d57600080fd5b80638da5cb5b146105495780638fcd793d1461057b5780639025e64c1461059b57806392691821146105b0578063ac9650d8146105d057600080fd5b80634999ab16116101d257806366fb345c1161019657806366fb345c14610468578063703511f81461048857806371061398146104b5578063715018a6146104d7578063784c872b146104ec5780637f8d06d01461051957600080fd5b80634999ab16146103d25780634f1ef286146103f257806351f83cea1461040557806352d1902d146104335780635de151b81461044857600080fd5b806334a1dd261161021957806334a1dd26146103235780633659cfe61461034357806342486e4914610363578063446dc22e14610390578063487dc38c146103b057600080fd5b806306fdde0314610256578063129ab3c8146102815780631dea616a146102b157806320759f9e146102d357806332e704cc14610303575b600080fd5b34801561026257600080fd5b5061026b610801565b60405161027891906135cc565b60405180910390f35b34801561028d57600080fd5b506102a161029c3660046135df565b61088f565b60405161027894939291906135f8565b3480156102bd57600080fd5b506102d16102cc36600461368d565b610944565b005b3480156102df57600080fd5b506102f36102ee3660046136e8565b610a75565b6040519015158152602001610278565b34801561030f57600080fd5b506102d161031e3660046137ef565b610aeb565b34801561032f57600080fd5b506102d161033e366004613835565b610bfe565b34801561034f57600080fd5b506102d161035e36600461389d565b610ce1565b34801561036f57600080fd5b5061038361037e3660046135df565b610dc9565b60405161027891906138b8565b34801561039c57600080fd5b506102d16103ab36600461390a565b610e2b565b3480156103bc57600080fd5b506103c5610e74565b6040516102789190613927565b3480156103de57600080fd5b506102d16103ed3660046135df565b610ed6565b6102d1610400366004613968565b61100a565b34801561041157600080fd5b506104256104203660046139c2565b6110da565b604051908152602001610278565b34801561043f57600080fd5b506104256113f1565b34801561045457600080fd5b506102d1610463366004613aa4565b6114a4565b34801561047457600080fd5b506102d16104833660046137ef565b61156a565b34801561049457600080fd5b506104a86104a33660046135df565b6116e5565b6040516102789190613afa565b3480156104c157600080fd5b506104ca6117dd565b6040516102789190613b69565b3480156104e357600080fd5b506102d161194b565b3480156104f857600080fd5b5061050c6105073660046135df565b61195f565b6040516102789190613bcb565b34801561052557600080fd5b506102f361053436600461389d565b60cd6020526000908152604090205460ff1681565b34801561055557600080fd5b506033546001600160a01b03165b6040516001600160a01b039091168152602001610278565b34801561058757600080fd5b50610425610596366004613cdd565b611a35565b3480156105a757600080fd5b5061026b611ce9565b3480156105bc57600080fd5b506102d16105cb3660046135df565b611cf6565b3480156105dc57600080fd5b506105f06105eb366004613dc9565b611e2d565b6040516102789190613e3d565b34801561060957600080fd5b506103836106183660046135df565b611f4b565b34801561062957600080fd5b506102d1610638366004613e92565b611fab565b34801561064957600080fd5b506102d161065836600461368d565b612062565b34801561066957600080fd5b506102d1610678366004613ece565b61215b565b34801561068957600080fd5b506102f3610698366004613fa3565b61231e565b3480156106a957600080fd5b5061042560cc5481565b3480156106bf57600080fd5b506102d16106ce366004614026565b6123c1565b3480156106df57600080fd5b5061042560d15481565b3480156106f557600080fd5b506107096107043660046135df565b612623565b604051610278929190614073565b34801561072357600080fd5b506104256107323660046135df565b6126c8565b34801561074357600080fd5b5060cb546102f39060ff1681565b34801561075d57600080fd5b5061056361076c3660046135df565b6126e9565b34801561077d57600080fd5b506102d161078c36600461389d565b612713565b34801561079d57600080fd5b506102d16107ac36600461408c565b612789565b3480156107bd57600080fd5b506102d16107cc3660046137ef565b61285f565b3480156107dd57600080fd5b506102f36107ec36600461389d565b60ce6020526000908152604090205460ff1681565b60c9805461080e906140b8565b80601f016020809104026020016040519081016040528092919081815260200182805461083a906140b8565b80156108875780601f1061085c57610100808354040283529160200191610887565b820191906000526020600020905b81548152906001019060200180831161086a57829003601f168201915b505050505081565b60d4602052600090815260409020805481906108aa906140b8565b80601f01602080910402602001604051908101604052809291908181526020018280546108d6906140b8565b80156109235780601f106108f857610100808354040283529160200191610923565b820191906000526020600020905b81548152906001019060200180831161090657829003601f168201915b50505050600183015460028401546003909401549293909290915060ff1684565b6109a684848080601f0160208091040260200160405190810160405280939291908181526020018383808284376000920191909152505060408051808201909152601681526000805160206145ee83398151915260208201529150612a409050565b6001600160a01b038216600090815260cd602052604090205460ff166109df5760405163c1ef36f360e01b815260040160405180910390fd5b600081815260d260205260408120549003610a0d5760405163b810dc5d60e01b815260040160405180910390fd5b60405163c513be7760e01b81526001600160a01b0383169063c513be7790610a3d90879087908690600401614115565b600060405180830381600087803b158015610a5757600080fd5b505af1158015610a6b573d6000803e3d6000fd5b5050505050505050565b6000805b60d054811015610ae357610ac760405180602001604052806000815250868686604051602001610aaa929190614139565b604051602081830303815290604052610ac290614149565b612a9a565b15610ad157600191505b80610adb81614183565b915050610a79565b509392505050565b610b27604051806020016040528060008152506040518060400160405280601681526020016000805160206145ee833981519152815250612a40565b60cc548203610b4957604051631eb49d6d60e11b815260040160405180910390fd5b600082815260d260205260408120549003610b775760405163b810dc5d60e01b815260040160405180910390fd5b8051600003610b9957604051630e52390960e41b815260040160405180910390fd5b600082815260d260205260409020600101610bb482826141e2565b5081336001600160a01b03167ff3c55faf0b13ffa681c984baddbb8ef7638e514188ea19bd6461d7f87b9c79538360ca604051610bf292919061431e565b60405180910390a35050565b610c40604051806020016040528060008152506040518060400160405280601181526020017041646452656d6f76654368616e6e656c7360781b815250612a40565b60008383604051602001610c55929190614139565b60408051601f198184030181529181528151602092830120600081815260d4909352908220600101549092509003610ca057604051636ddd9da960e01b815260040160405180910390fd5b8151600003610cc257604051631eb49d6d60e11b815260040160405180910390fd5b600081815260d460205260409020610cda83826141e2565b5050505050565b6001600160a01b037f0000000000000000000000000000000000000000000000000000000000000000163003610d325760405162461bcd60e51b8152600401610d2990614343565b60405180910390fd5b7f00000000000000000000000000000000000000000000000000000000000000006001600160a01b0316610d7b6000805160206145ce833981519152546001600160a01b031690565b6001600160a01b031614610da15760405162461bcd60e51b8152600401610d299061438f565b610daa81612b53565b60408051600080825260208201909252610dc691839190612b89565b50565b600081815260cf6020908152604091829020805483518184028101840190945280845260609392830182828015610e1f57602002820191906000526020600020905b815481526020019060010190808311610e0b575b50505050509050919050565b610e61604051806020016040528060008152506040518060400160405280600581526020016427bbb732b960d91b815250612a40565b60cb805460ff1916911515919091179055565b606060d0805480602002602001604051908101604052809291908181526020018280548015610ecc57602002820191906000526020600020905b81546001600160a01b03168152600190910190602001808311610eae575b5050505050905090565b610f0c604051806020016040528060008152506040518060400160405280600581526020016427bbb732b960d91b815250612a40565b600081815260d260205260408120549003610f3a5760405163b810dc5d60e01b815260040160405180910390fd5b6000805b600083815260d36020526040902054811015610fe5576040518060400160405280600581526020016427bbb732b960d91b815250604051602001610f8291906143db565b604051602081830303815290604052610f9a90614149565b600084815260d360205260409020805483908110610fba57610fba6143f7565b906000526020600020015403610fd35760019150610fe5565b80610fdd81614183565b915050610f3e565b508061100457604051633e74bd6360e21b815260040160405180910390fd5b5060cc55565b6001600160a01b037f00000000000000000000000000000000000000000000000000000000000000001630036110525760405162461bcd60e51b8152600401610d2990614343565b7f00000000000000000000000000000000000000000000000000000000000000006001600160a01b031661109b6000805160206145ce833981519152546001600160a01b031690565b6001600160a01b0316146110c15760405162461bcd60e51b8152600401610d299061438f565b6110ca82612b53565b6110d682826001612b89565b5050565b600061111e604051806020016040528060008152506040518060400160405280601181526020017041646452656d6f76654368616e6e656c7360781b815250612a40565b60008360405160200161113191906143db565b60408051601f198184030181529181528151602092830120600081815260d49093529120600101549091501561117a57604051630139324b60e41b815260040160405180910390fd5b604080516080810182528681526020808201849052428284015260006060830181905284815260d490915291909120815181906111b790826141e2565b506020820151600182810191909155604083015160028301556060909201516003909101805460ff191691151591909117905560d58054918201815560009081527f51858de9989bf7441865ebdadbf7382c8838edbf830f5d86a9a51ac773676dd69091018290555b60d0548110156113e657600060d0828154811061123f5761123f6143f7565b60009182526020909120015460cc5460405163c513be7760e01b81526001600160a01b039092169250829163c513be779161127f918a919060040161440d565b600060405180830381600087803b15801561129957600080fd5b505af11580156112ad573d6000803e3d6000fd5b5050505060005b85518110156113d15760cc548682815181106112d2576112d26143f7565b602002602001015103156113bf5760d260008783815181106112f6576112f66143f7565b60200260200101518152602001908152602001600020600001546000036113305760405163b810dc5d60e01b815260040160405180910390fd5b816001600160a01b031663c513be7788888481518110611352576113526143f7565b60200260200101516040518363ffffffff1660e01b815260040161137792919061440d565b600060405180830381600087803b15801561139157600080fd5b505af19250505080156113a2575060015b6113bf5760405163d9afe50760e01b815260040160405180910390fd5b806113c981614183565b9150506112b4565b505080806113de90614183565b915050611220565b5090505b9392505050565b6000306001600160a01b037f000000000000000000000000000000000000000000000000000000000000000016146114915760405162461bcd60e51b815260206004820152603860248201527f555550535570677261646561626c653a206d757374206e6f742062652063616c60448201527f6c6564207468726f7567682064656c656761746563616c6c00000000000000006064820152608401610d29565b506000805160206145ce83398151915290565b6114e6604051806020016040528060008152506040518060400160405280601181526020017041646452656d6f76654368616e6e656c7360781b815250612a40565b600083836040516020016114fb929190614139565b60408051601f198184030181529181528151602092830120600081815260d490935290822060010154909250900361154657604051636ddd9da960e01b815260040160405180910390fd5b600090815260d460205260409020600301805460ff19169115159190911790555050565b6115a6604051806020016040528060008152506040518060400160405280601681526020016000805160206145ee833981519152815250612a40565b6115cd816040518060400160405280600581526020016427bbb732b960d91b815250612cf9565b156115eb57604051631eb49d6d60e11b815260040160405180910390fd5b600082815260d2602052604081205490036116195760405163b810dc5d60e01b815260040160405180910390fd5b60008160405160200161162c91906143db565b60405160208183030381529060405261164490614149565b905060005b600084815260d360205260409020548110156116bd57600084815260d360205260409020805483919083908110611682576116826143f7565b9060005260206000200154036116ab57604051636571d65f60e01b815260040160405180910390fd5b806116b581614183565b915050611649565b50600092835260d3602090815260408420805460018101825590855293209092019190915550565b604080516080810182526060808252600060208301819052928201839052810191909152600082815260d4602052604090819020815160808101909252805482908290611731906140b8565b80601f016020809104026020016040519081016040528092919081815260200182805461175d906140b8565b80156117aa5780601f1061177f576101008083540402835291602001916117aa565b820191906000526020600020905b81548152906001019060200180831161178d57829003601f168201915b5050509183525050600182015460208201526002820154604082015260039091015460ff16151560609091015292915050565b6060600060d1546001600160401b038111156117fb576117fb61373a565b60405190808252806020026020018201604052801561184157816020015b6040805180820190915260008152606060208201528152602001906001900390816118195790505b50905060005b60d1548110156119455760d2600061186083600161442f565b815260200190815260200160002060405180604001604052908160008201548152602001600182018054611893906140b8565b80601f01602080910402602001604051908101604052809291908181526020018280546118bf906140b8565b801561190c5780601f106118e15761010080835404028352916020019161190c565b820191906000526020600020905b8154815290600101906020018083116118ef57829003601f168201915b505050505081525050828281518110611927576119276143f7565b6020026020010181905250808061193d90614183565b915050611847565b50919050565b611953612d53565b61195d6000612dad565b565b60408051808201909152600081526060602082015260d26000838152602001908152602001600020604051806040016040529081600082015481526020016001820180546119ac906140b8565b80601f01602080910402602001604051908101604052809291908181526020018280546119d8906140b8565b8015611a255780601f106119fa57610100808354040283529160200191611a25565b820191906000526020600020905b815481529060010190602001808311611a0857829003601f168201915b5050505050815250509050919050565b6000611a73604051806020016040528060008152506040518060400160405280601681526020016000805160206145ee833981519152815250612a40565b600060d160008154611a8490614183565b91829055506040805180820182528281526020808201898152600085815260d2909252929020815181559151929350918291906001820190611ac690826141e2565b5090505060005b8551811015611bc0576033546001600160a01b03163314801590611b2c5750611b2c868281518110611b0157611b016143f7565b60200260200101516040518060400160405280600581526020016427bbb732b960d91b815250612cf9565b15611b4a576040516341d2e1af60e01b815260040160405180910390fd5b6000868281518110611b5e57611b5e6143f7565b6020026020010151604051602001611b7691906143db565b604051602081830303815290604052611b8e90614149565b600085815260d36020908152604082208054600181018255908352912001555080611bb881614183565b915050611acd565b5060005b8451811015611c9a576000858281518110611be157611be16143f7565b60200260200101516000015190506000868381518110611c0357611c036143f7565b602002602001015160200151905060006001600160a01b0316826001600160a01b03161480611c3157508051155b15611c3d575050611c88565b6001600160a01b038216600090815260cd602052604081205460ff1615159003611c7a5760405163c1ef36f360e01b815260040160405180910390fd5b611c85858383612dff565b50505b80611c9281614183565b915050611bc4565b5081336001600160a01b03167f39772407c6dd2e83adbd292cdfa17a6817c9a7500e56cfe57b7a82d797f8d39b8860ca604051611cd892919061431e565b60405180910390a350949350505050565b60ca805461080e906140b8565b611d32604051806020016040528060008152506040518060400160405280601681526020016000805160206145ee833981519152815250612a40565b60cc548103611d5457604051631eb49d6d60e11b815260040160405180910390fd5b600081815260d260205260408120549003611d825760405163b810dc5d60e01b815260040160405180910390fd5b600081815260cf602052604090205415611daf57604051633764405360e11b815260040160405180910390fd5b600081815260d26020526040812081815590611dce600183018261350f565b5050600081815260d360205260408120611de791613549565b80336001600160a01b03167f1d5667a301e36f2d5b1ee32b7f187b0adb46c706297242fa945d3fed1e7f8a1960ca604051611e229190614442565b60405180910390a350565b6060816001600160401b03811115611e4757611e4761373a565b604051908082528060200260200182016040528015611e7a57816020015b6060815260200190600190039081611e655790505b50905060005b82811015611f445760008030868685818110611e9e57611e9e6143f7565b9050602002810190611eb09190614455565b604051611ebe929190614139565b600060405180830381855af49150503d8060008114611ef9576040519150601f19603f3d011682016040523d82523d6000602084013e611efe565b606091505b509150915081611f1157611f1181612f77565b80848481518110611f2457611f246143f7565b602002602001018190525050508080611f3c90614183565b915050611e80565b5092915050565b600081815260d36020908152604091829020805483518184028101840190945280845260609392830182828015610e1f5760200282019190600052602060002090815481526020019060010190808311610e0b5750505050509050919050565b611fe7604051806020016040528060008152506040518060400160405280601681526020016000805160206145ee833981519152815250612a40565b80516001600160a01b0316600090815260cd602052604090205460ff166120215760405163c1ef36f360e01b815260040160405180910390fd5b600082815260d26020526040812054900361204f5760405163b810dc5d60e01b815260040160405180910390fd5b6110d68282600001518360200151612dff565b6120c484848080601f0160208091040260200160405190810160405280939291908181526020018383808284376000920191909152505060408051808201909152601681526000805160206145ee83398151915260208201529150612a409050565b6001600160a01b038216600090815260cd602052604090205460ff166120fd5760405163c1ef36f360e01b815260040160405180910390fd5b600081815260d26020526040812054900361212b5760405163b810dc5d60e01b815260040160405180910390fd5b604051637997c1e760e11b81526001600160a01b0383169063f32f83ce90610a3d90879087908690600401614115565b600054610100900460ff161580801561217b5750600054600160ff909116105b806121955750303b158015612195575060005460ff166001145b6121f85760405162461bcd60e51b815260206004820152602e60248201527f496e697469616c697a61626c653a20636f6e747261637420697320616c72656160448201526d191e481a5b9a5d1a585b1a5e995960921b6064820152608401610d29565b6000805460ff19166001179055801561221b576000805461ff0019166101001790555b612223613044565b61222b61306b565b60c961223785826141e2565b5060ca61224484826141e2565b5060005b82518110156122d157612275838281518110612266576122666143f7565b6020026020010151600161309a565b600160ce600085848151811061228d5761228d6143f7565b6020908102919091018101516001600160a01b03168252810191909152604001600020805460ff1916911515919091179055806122c981614183565b915050612248565b508015612318576000805461ff0019169055604051600181527f7f26b83ff96e1f2b6a682f133852f6798a09c465da95921460cefb38474024989060200160405180910390a15b50505050565b600084810361234057604051630e52390960e41b815260040160405180910390fd5b60005b60d0548110156123b75761239b87878080601f01602080910402602001604051908101604052809392919081815260200183838082843760009201919091525050604051899250610aaa915088908890602001614139565b156123a557600191505b806123af81614183565b915050612343565b5095945050505050565b6123fd604051806020016040528060008152506040518060400160405280601681526020016000805160206145ee833981519152815250612a40565b60cc54820361241f57604051631eb49d6d60e11b815260040160405180910390fd5b60cd6000612430602084018461389d565b6001600160a01b0316815260208101919091526040016000205460ff1661246a5760405163c1ef36f360e01b815260040160405180910390fd5b600082815260d2602052604081205490036124985760405163b810dc5d60e01b815260040160405180910390fd5b6000826124a86020840184614455565b6040516020016124ba9392919061449b565b60408051601f198184030181529181528151602092830120600086815260cf909352908220909250905b8154811015612598578181815481106124ff576124ff6143f7565b906000526020600020015483036125865781548290612520906001906144b5565b81548110612530576125306143f7565b906000526020600020015482828154811061254d5761254d6143f7565b90600052602060002001819055508180548061256b5761256b6144c8565b60019003818190600052602060002001600090559055612598565b8061259081614183565b9150506124e4565b506125a6602084018461389d565b6001600160a01b031663fa6d1adf856125c26020870187614455565b6040518463ffffffff1660e01b81526004016125e0939291906144de565b6020604051808303816000875af11580156125ff573d6000803e3d6000fd5b505050506040513d601f19601f82011682018060405250810190610cda91906144f8565b60d26020526000908152604090208054600182018054919291612645906140b8565b80601f0160208091040260200160405190810160405280929190818152602001828054612671906140b8565b80156126be5780601f10612693576101008083540402835291602001916126be565b820191906000526020600020905b8154815290600101906020018083116126a157829003601f168201915b5050505050905082565b60d581815481106126d857600080fd5b600091825260209091200154905081565b60d081815481106126f957600080fd5b6000918252602090912001546001600160a01b0316905081565b61271b612d53565b6001600160a01b0381166127805760405162461bcd60e51b815260206004820152602660248201527f4f776e61626c653a206e6577206f776e657220697320746865207a65726f206160448201526564647265737360d01b6064820152608401610d29565b610dc681612dad565b6127c5604051806020016040528060008152506040518060400160405280601681526020016000805160206145ee833981519152815250612a40565b6127ce8261321b565b8080156127f357506001600160a01b038216600090815260cd602052604090205460ff165b156128115760405163186abc9b60e01b815260040160405180910390fd5b8015801561283757506001600160a01b038216600090815260ce602052604090205460ff165b1561285557604051631eb49d6d60e11b815260040160405180910390fd5b6110d6828261309a565b61289b604051806020016040528060008152506040518060400160405280601681526020016000805160206145ee833981519152815250612a40565b6128c2816040518060400160405280600581526020016427bbb732b960d91b815250612cf9565b156128e057604051631eb49d6d60e11b815260040160405180910390fd5b600082815260d26020526040812054900361290e5760405163b810dc5d60e01b815260040160405180910390fd5b60008160405160200161292191906143db565b60405160208183030381529060405261293990614149565b905060005b600084815260d3602052604090205481101561231857600084815260d360205260409020805483919083908110612977576129776143f7565b906000526020600020015403612a2e57600084815260d36020526040902080546129a3906001906144b5565b815481106129b3576129b36143f7565b906000526020600020015460d3600086815260200190815260200160002082815481106129e2576129e26143f7565b906000526020600020018190555060d36000858152602001908152602001600020805480612a1257612a126144c8565b6001900381819060005260206000200160009055905550505050565b80612a3881614183565b91505061293e565b6033546001600160a01b0316331480612a78575060cb5460ff16158015612a785750612a78823383604051602001610aaa91906143db565b15612a81575050565b604051631eb49d6d60e11b815260040160405180910390fd5b6000805b60d054811015610ae35760d08181548110612abb57612abb6143f7565b60009182526020909120015460405162169d5560e31b81526001600160a01b039091169062b4eaa890612af690889088908890600401614511565b602060405180830381865afa158015612b13573d6000803e3d6000fd5b505050506040513d601f19601f82011682018060405250810190612b37919061453f565b15612b4157600191505b80612b4b81614183565b915050612a9e565b610dc6604051806020016040528060008152506040518060400160405280600581526020016427bbb732b960d91b815250612a40565b7f4910fdfa16fed3260ed0e7147f7cc6da11a60208b5b9406d12a635614ffd91435460ff1615612bc157612bbc836132ac565b505050565b826001600160a01b03166352d1902d6040518163ffffffff1660e01b8152600401602060405180830381865afa925050508015612c1b575060408051601f3d908101601f19168201909252612c18918101906144f8565b60015b612c7e5760405162461bcd60e51b815260206004820152602e60248201527f45524331393637557067726164653a206e657720696d706c656d656e7461746960448201526d6f6e206973206e6f74205555505360901b6064820152608401610d29565b6000805160206145ce8339815191528114612ced5760405162461bcd60e51b815260206004820152602960248201527f45524331393637557067726164653a20756e737570706f727465642070726f786044820152681a58589b195555525160ba1b6064820152608401610d29565b50612bbc838383613348565b600081604051602001612d0c91906143db565b6040516020818303038152906040528051906020012083604051602001612d3391906143db565b604051602081830303815290604052805190602001201490505b92915050565b6033546001600160a01b0316331461195d5760405162461bcd60e51b815260206004820181905260248201527f4f776e61626c653a2063616c6c6572206973206e6f7420746865206f776e65726044820152606401610d29565b603380546001600160a01b038381166001600160a01b0319831681179093556040519116919082907f8be0079c531659141344cd1fd0a4f28419497f9722a3daafe3b4186f6b6457e090600090a35050565b60008382604051602001612e1492919061455c565b60408051601f198184030181528282528051602091820120600088815260cf835283812080548085028701850190955284865291955093929091830182828015612e7d57602002820191906000526020600020905b815481526020019060010190808311612e69575b5050505050905060005b8151811015612edb5782828281518110612ea357612ea36143f7565b602002602001015103612ec95760405163c5c9ad6760e01b815260040160405180910390fd5b80612ed381614183565b915050612e87565b50600085815260cf602090815260408083208054600181018255908452919092200183905551633be2f95d60e21b81526001600160a01b0385169063ef8be57490612f2c9088908790600401614073565b6020604051808303816000875af1158015612f4b573d6000803e3d6000fd5b505050506040513d601f19601f82011682018060405250810190612f6f91906144f8565b505050505050565b600481511015612fbc5760405162461bcd60e51b815260206004820152601060248201526f1d5b9a185b991b1959081c995d995c9d60821b6044820152606401610d29565b602081015163b1b7848f60e01b6001600160e01b031982160161303b57604080518082018252600e81526d70616e69636b65643a2030785f5f60901b602082018181526024860151600481811c600f908116603090810160081b9184160117909317909152925162461bcd60e51b8152919291610d29918491016135cc565b81518060208401fd5b600054610100900460ff1661195d5760405162461bcd60e51b8152600401610d2990614582565b600054610100900460ff166130925760405162461bcd60e51b8152600401610d2990614582565b61195d61336d565b6001600160a01b038216600090815260cd60205260409020805460ff191682158015919091179091556131185760d080546001810182556000919091527fe89d44c8fd6a9bac8af33ce47f56337617d449bf7ff3956b618c646de829cbcb0180546001600160a01b0384166001600160a01b03199091161790555050565b60005b60d054811015612bbc5760d08181548110613138576131386143f7565b6000918252602090912001546001600160a01b03908116908416036132095760d08054613167906001906144b5565b81548110613177576131776143f7565b60009182526020909120015460d080546001600160a01b0390921691839081106131a3576131a36143f7565b9060005260206000200160006101000a8154816001600160a01b0302191690836001600160a01b0316021790555060d08054806131e2576131e26144c8565b600082815260209020810160001990810180546001600160a01b0319169055019055505050565b8061321381614183565b91505061311b565b6040516301ffc9a760e01b8152630511738b60e31b60048201526001600160a01b038216906301ffc9a790602401602060405180830381865afa158015613266573d6000803e3d6000fd5b505050506040513d601f19601f8201168201806040525081019061328a919061453f565b1515600003610dc657604051636d9250f160e11b815260040160405180910390fd5b6001600160a01b0381163b6133195760405162461bcd60e51b815260206004820152602d60248201527f455243313936373a206e657720696d706c656d656e746174696f6e206973206e60448201526c1bdd08184818dbdb9d1c9858dd609a1b6064820152608401610d29565b6000805160206145ce83398151915280546001600160a01b0319166001600160a01b0392909216919091179055565b6133518361339d565b60008251118061335e5750805b15612bbc5761231883836133dd565b600054610100900460ff166133945760405162461bcd60e51b8152600401610d2990614582565b61195d33612dad565b6133a6816132ac565b6040516001600160a01b038216907fbc7cd75a20ee27fd9adebab32041f755214dbc6bffa90cc0225b39da2e5c2d3b90600090a250565b60606001600160a01b0383163b6134455760405162461bcd60e51b815260206004820152602660248201527f416464726573733a2064656c65676174652063616c6c20746f206e6f6e2d636f6044820152651b9d1c9858dd60d21b6064820152608401610d29565b600080846001600160a01b03168460405161346091906143db565b600060405180830381855af49150503d806000811461349b576040519150601f19603f3d011682016040523d82523d6000602084013e6134a0565b606091505b50915091506134c8828260405180606001604052806027815260200161460e602791396134d1565b95945050505050565b606083156134e05750816113ea565b6113ea83838151156134f55781518083602001fd5b8060405162461bcd60e51b8152600401610d2991906135cc565b50805461351b906140b8565b6000825580601f1061352b575050565b601f016020900490600052602060002090810190610dc69190613563565b5080546000825590600052602060002090810190610dc691905b5b808211156135785760008155600101613564565b5090565b60005b8381101561359757818101518382015260200161357f565b50506000910152565b600081518084526135b881602086016020860161357c565b601f01601f19169290920160200192915050565b6020815260006113ea60208301846135a0565b6000602082840312156135f157600080fd5b5035919050565b60808152600061360b60808301876135a0565b60208301959095525060408101929092521515606090910152919050565b60008083601f84011261363b57600080fd5b5081356001600160401b0381111561365257600080fd5b60208301915083602082850101111561366a57600080fd5b9250929050565b80356001600160a01b038116811461368857600080fd5b919050565b600080600080606085870312156136a357600080fd5b84356001600160401b038111156136b957600080fd5b6136c587828801613629565b90955093506136d8905060208601613671565b9396929550929360400135925050565b6000806000604084860312156136fd57600080fd5b61370684613671565b925060208401356001600160401b0381111561372157600080fd5b61372d86828701613629565b9497909650939450505050565b634e487b7160e01b600052604160045260246000fd5b604051601f8201601f191681016001600160401b03811182821017156137785761377861373a565b604052919050565b600082601f83011261379157600080fd5b81356001600160401b038111156137aa576137aa61373a565b6137bd601f8201601f1916602001613750565b8181528460208386010111156137d257600080fd5b816020850160208301376000918101602001919091529392505050565b6000806040838503121561380257600080fd5b8235915060208301356001600160401b0381111561381f57600080fd5b61382b85828601613780565b9150509250929050565b60008060006040848603121561384a57600080fd5b83356001600160401b038082111561386157600080fd5b61386d87838801613629565b9095509350602086013591508082111561388657600080fd5b5061389386828701613780565b9150509250925092565b6000602082840312156138af57600080fd5b6113ea82613671565b6020808252825182820181905260009190848201906040850190845b818110156138f0578351835292840192918401916001016138d4565b50909695505050505050565b8015158114610dc657600080fd5b60006020828403121561391c57600080fd5b81356113ea816138fc565b6020808252825182820181905260009190848201906040850190845b818110156138f05783516001600160a01b031683529284019291840191600101613943565b6000806040838503121561397b57600080fd5b61398483613671565b915060208301356001600160401b0381111561381f57600080fd5b60006001600160401b038211156139b8576139b861373a565b5060051b60200190565b6000806000606084860312156139d757600080fd5b83356001600160401b03808211156139ee57600080fd5b6139fa87838801613780565b9450602091508186013581811115613a1157600080fd5b613a1d88828901613780565b945050604086013581811115613a3257600080fd5b86019050601f81018713613a4557600080fd5b8035613a58613a538261399f565b613750565b81815260059190911b82018301908381019089831115613a7757600080fd5b928401925b82841015613a9557833582529284019290840190613a7c565b80955050505050509250925092565b600080600060408486031215613ab957600080fd5b83356001600160401b03811115613acf57600080fd5b613adb86828701613629565b9094509250506020840135613aef816138fc565b809150509250925092565b602081526000825160806020840152613b1660a08401826135a0565b905060208401516040840152604084015160608401526060840151151560808401528091505092915050565b805182526000602082015160406020850152613b6160408501826135a0565b949350505050565b6000602080830181845280855180835260408601915060408160051b870101925083870160005b82811015613bbe57603f19888603018452613bac858351613b42565b94509285019290850190600101613b90565b5092979650505050505050565b6020815260006113ea6020830184613b42565b600060408284031215613bf057600080fd5b604051604081016001600160401b038282108183111715613c1357613c1361373a565b81604052829350613c2385613671565b83526020850135915080821115613c3957600080fd5b50613c4685828601613780565b6020830152505092915050565b600082601f830112613c6457600080fd5b81356020613c74613a538361399f565b82815260059290921b84018101918181019086841115613c9357600080fd5b8286015b84811015613cd25780356001600160401b03811115613cb65760008081fd5b613cc48986838b0101613bde565b845250918301918301613c97565b509695505050505050565b600080600060608486031215613cf257600080fd5b83356001600160401b0380821115613d0957600080fd5b613d1587838801613780565b9450602091508186013581811115613d2c57600080fd5b8601601f81018813613d3d57600080fd5b8035613d4b613a538261399f565b81815260059190911b8201840190848101908a831115613d6a57600080fd5b8584015b83811015613da257803586811115613d865760008081fd5b613d948d8983890101613780565b845250918601918601613d6e565b5096505050506040860135915080821115613dbc57600080fd5b5061389386828701613c53565b60008060208385031215613ddc57600080fd5b82356001600160401b0380821115613df357600080fd5b818501915085601f830112613e0757600080fd5b813581811115613e1657600080fd5b8660208260051b8501011115613e2b57600080fd5b60209290920196919550909350505050565b6000602080830181845280855180835260408601915060408160051b870101925083870160005b82811015613bbe57603f19888603018452613e808583516135a0565b94509285019290850190600101613e64565b60008060408385031215613ea557600080fd5b8235915060208301356001600160401b03811115613ec257600080fd5b61382b85828601613bde565b600080600060608486031215613ee357600080fd5b83356001600160401b0380821115613efa57600080fd5b613f0687838801613780565b9450602091508186013581811115613f1d57600080fd5b613f2988828901613780565b945050604086013581811115613f3e57600080fd5b86019050601f81018713613f5157600080fd5b8035613f5f613a538261399f565b81815260059190911b82018301908381019089831115613f7e57600080fd5b928401925b82841015613a9557613f9484613671565b82529284019290840190613f83565b600080600080600060608688031215613fbb57600080fd5b85356001600160401b0380821115613fd257600080fd5b613fde89838a01613629565b9097509550859150613ff260208901613671565b9450604088013591508082111561400857600080fd5b5061401588828901613629565b969995985093965092949392505050565b6000806040838503121561403957600080fd5b8235915060208301356001600160401b0381111561405657600080fd5b83016040818603121561406857600080fd5b809150509250929050565b828152604060208201526000613b6160408301846135a0565b6000806040838503121561409f57600080fd5b6140a883613671565b91506020830135614068816138fc565b600181811c908216806140cc57607f821691505b60208210810361194557634e487b7160e01b600052602260045260246000fd5b81835281816020850137506000828201602090810191909152601f909101601f19169091010190565b6040815260006141296040830185876140ec565b9050826020830152949350505050565b8183823760009101908152919050565b805160208083015191908110156119455760001960209190910360031b1b16919050565b634e487b7160e01b600052601160045260246000fd5b6000600182016141955761419561416d565b5060010190565b601f821115612bbc57600081815260208120601f850160051c810160208610156141c35750805b601f850160051c820191505b81811015612f6f578281556001016141cf565b81516001600160401b038111156141fb576141fb61373a565b61420f8161420984546140b8565b8461419c565b602080601f831160018114614244576000841561422c5750858301515b600019600386901b1c1916600185901b178555612f6f565b600085815260208120601f198616915b8281101561427357888601518255948401946001909101908401614254565b50858210156142915787850151600019600388901b60f8161c191681555b5050505050600190811b01905550565b600081546142ae816140b8565b8085526020600183811680156142cb57600181146142e557614313565b60ff1985168884015283151560051b880183019550614313565b866000528260002060005b8581101561430b5781548a82018601529083019084016142f0565b890184019650505b505050505092915050565b60408152600061433160408301856135a0565b82810360208401526134c881856142a1565b6020808252602c908201527f46756e6374696f6e206d7573742062652063616c6c6564207468726f7567682060408201526b19195b1959d85d1958d85b1b60a21b606082015260800190565b6020808252602c908201527f46756e6374696f6e206d7573742062652063616c6c6564207468726f7567682060408201526b6163746976652070726f787960a01b606082015260800190565b600082516143ed81846020870161357c565b9190910192915050565b634e487b7160e01b600052603260045260246000fd5b60408152600061442060408301856135a0565b90508260208301529392505050565b80820180821115612d4d57612d4d61416d565b6020815260006113ea60208301846142a1565b6000808335601e1984360301811261446c57600080fd5b8301803591506001600160401b0382111561448657600080fd5b60200191503681900382131561366a57600080fd5b838152818360208301376000910160200190815292915050565b81810381811115612d4d57612d4d61416d565b634e487b7160e01b600052603160045260246000fd5b8381526040602082015260006134c86040830184866140ec565b60006020828403121561450a57600080fd5b5051919050565b60608152600061452460608301866135a0565b6001600160a01b039490941660208301525060400152919050565b60006020828403121561455157600080fd5b81516113ea816138fc565b8281526000825161457481602085016020870161357c565b919091016020019392505050565b6020808252602b908201527f496e697469616c697a61626c653a20636f6e7472616374206973206e6f74206960408201526a6e697469616c697a696e6760a81b60608201526080019056fe360894a13ba1a3210667c828492db98dca3e2076cc3735a920a3ca505d382bbc4d6f6469667953706163655065726d697373696f6e7300000000000000000000416464726573733a206c6f772d6c6576656c2064656c65676174652063616c6c206661696c6564a26469706673582212200696c3f07074cbbc7eb60c04f24a6216cc0318efb0f7b9b51204fe8a1f40154864736f6c63430008110033",
    "linkReferences": {}
  },
  "methodIdentifiers": {
    "addPermissionToRole(uint256,string)": "66fb345c",
    "addRoleToChannel(string,address,uint256)": "1dea616a",
    "addRoleToEntitlement(uint256,(address,bytes))": "ba201ba8",
    "channels(uint256)": "e5949b5d",
    "channelsByHash(bytes32)": "129ab3c8",
    "createChannel(string,string,uint256[])": "51f83cea",
    "createRole(string,string[],(address,bytes)[])": "8fcd793d",
    "defaultEntitlements(address)": "fa6433c5",
    "disabled()": "ee070805",
    "entitlements(uint256)": "f28f9b56",
    "getChannelByHash(bytes32)": "703511f8",
    "getEntitlementIdsByRoleId(uint256)": "42486e49",
    "getEntitlements()": "487dc38c",
    "getPermissionsByRoleId(uint256)": "b4264233",
    "getRoleById(uint256)": "784c872b",
    "getRoles()": "71061398",
    "hasEntitlement(address)": "7f8d06d0",
    "initialize(string,string,address[])": "ca275931",
    "isEntitledToChannel(string,address,string)": "cea632bc",
    "isEntitledToSpace(address,string)": "20759f9e",
    "multicall(bytes[])": "ac9650d8",
    "name()": "06fdde03",
    "networkId()": "9025e64c",
    "owner()": "8da5cb5b",
    "ownerRoleId()": "d1a6a961",
    "proxiableUUID()": "52d1902d",
    "removePermissionFromRole(uint256,string)": "f740bb6b",
    "removeRole(uint256)": "92691821",
    "removeRoleFromChannel(string,address,uint256)": "baaf3d57",
    "removeRoleFromEntitlement(uint256,(address,bytes))": "dba81864",
    "renounceOwnership()": "715018a6",
    "roleCount()": "ddf96358",
    "rolesById(uint256)": "e5894ef4",
    "setChannelAccess(string,bool)": "5de151b8",
    "setEntitlement(address,bool)": "f3b96ab4",
    "setOwnerRoleId(uint256)": "4999ab16",
    "setSpaceAccess(bool)": "446dc22e",
    "transferOwnership(address)": "f2fde38b",
    "updateChannel(string,string)": "34a1dd26",
    "updateRole(uint256,string)": "32e704cc",
    "upgradeTo(address)": "3659cfe6",
    "upgradeToAndCall(address,bytes)": "4f1ef286"
  },
  "id": 21
}