{
  "abi": [
    {
      "inputs": [],
      "stateMutability": "nonpayable",
      "type": "constructor"
    },
    {
      "inputs": [],
      "name": "InvalidParameters",
      "type": "error"
    },
    {
      "inputs": [],
      "name": "NameContainsInvalidCharacters",
      "type": "error"
    },
    {
      "inputs": [],
      "name": "NameLengthInvalid",
      "type": "error"
    },
    {
      "inputs": [],
      "name": "PermissionAlreadyExists",
      "type": "error"
    },
    {
      "inputs": [],
      "name": "SpaceAlreadyRegistered",
      "type": "error"
    },
    {
      "anonymous": false,
      "inputs": [
        {
          "indexed": false,
          "internalType": "address",
          "name": "previousAdmin",
          "type": "address"
        },
        {
          "indexed": false,
          "internalType": "address",
          "name": "newAdmin",
          "type": "address"
        }
      ],
      "name": "AdminChanged",
      "type": "event"
    },
    {
      "anonymous": false,
      "inputs": [
        {
          "indexed": true,
          "internalType": "address",
          "name": "beacon",
          "type": "address"
        }
      ],
      "name": "BeaconUpgraded",
      "type": "event"
    },
    {
      "anonymous": false,
      "inputs": [
        {
          "indexed": false,
          "internalType": "uint8",
          "name": "version",
          "type": "uint8"
        }
      ],
      "name": "Initialized",
      "type": "event"
    },
    {
      "anonymous": false,
      "inputs": [
        {
          "indexed": true,
          "internalType": "address",
          "name": "previousOwner",
          "type": "address"
        },
        {
          "indexed": true,
          "internalType": "address",
          "name": "newOwner",
          "type": "address"
        }
      ],
      "name": "OwnershipTransferred",
      "type": "event"
    },
    {
      "anonymous": false,
      "inputs": [
        {
          "indexed": true,
          "internalType": "address",
          "name": "implementation",
          "type": "address"
        }
      ],
      "name": "Upgraded",
      "type": "event"
    },
    {
      "inputs": [],
      "name": "SPACE_IMPLEMENTATION_ADDRESS",
      "outputs": [
        {
          "internalType": "address",
          "name": "",
          "type": "address"
        }
      ],
      "stateMutability": "view",
      "type": "function"
    },
    {
      "inputs": [],
      "name": "SPACE_TOKEN_ADDRESS",
      "outputs": [
        {
          "internalType": "address",
          "name": "",
          "type": "address"
        }
      ],
      "stateMutability": "view",
      "type": "function"
    },
    {
      "inputs": [],
      "name": "TOKEN_IMPLEMENTATION_ADDRESS",
      "outputs": [
        {
          "internalType": "address",
          "name": "",
          "type": "address"
        }
      ],
      "stateMutability": "view",
      "type": "function"
    },
    {
      "inputs": [],
      "name": "USER_IMPLEMENTATION_ADDRESS",
      "outputs": [
        {
          "internalType": "address",
          "name": "",
          "type": "address"
        }
      ],
      "stateMutability": "view",
      "type": "function"
    },
    {
      "inputs": [
        {
          "internalType": "string[]",
          "name": "_permissions",
          "type": "string[]"
        }
      ],
      "name": "addOwnerPermissions",
      "outputs": [],
      "stateMutability": "nonpayable",
      "type": "function"
    },
    {
      "inputs": [
        {
          "internalType": "string",
          "name": "spaceName",
          "type": "string"
        },
        {
          "internalType": "string",
          "name": "spaceNetworkId",
          "type": "string"
        },
        {
          "internalType": "string",
          "name": "spaceMetadata",
          "type": "string"
        },
        {
          "internalType": "string[]",
          "name": "_everyonePermissions",
          "type": "string[]"
        },
        {
          "components": [
            {
              "internalType": "string",
              "name": "roleName",
              "type": "string"
            },
            {
              "internalType": "string[]",
              "name": "permissions",
              "type": "string[]"
            },
            {
              "components": [
                {
                  "internalType": "address",
                  "name": "contractAddress",
                  "type": "address"
                },
                {
                  "internalType": "uint256",
                  "name": "quantity",
                  "type": "uint256"
                },
                {
                  "internalType": "bool",
                  "name": "isSingleToken",
                  "type": "bool"
                },
                {
                  "internalType": "uint256[]",
                  "name": "tokenIds",
                  "type": "uint256[]"
                }
              ],
              "internalType": "struct DataTypes.ExternalToken[]",
              "name": "tokens",
              "type": "tuple[]"
            },
            {
              "internalType": "address[]",
              "name": "users",
              "type": "address[]"
            }
          ],
          "internalType": "struct DataTypes.CreateSpaceExtraEntitlements",
          "name": "_extraEntitlements",
          "type": "tuple"
        }
      ],
      "name": "createSpace",
      "outputs": [
        {
          "internalType": "address",
          "name": "_spaceAddress",
          "type": "address"
        }
      ],
      "stateMutability": "nonpayable",
      "type": "function"
    },
    {
      "inputs": [],
      "name": "getOwnerPermissions",
      "outputs": [
        {
          "internalType": "string[]",
          "name": "",
          "type": "string[]"
        }
      ],
      "stateMutability": "view",
      "type": "function"
    },
    {
      "inputs": [
        {
          "internalType": "string",
          "name": "spaceNetworkId",
          "type": "string"
        }
      ],
      "name": "getSpaceAddressByNetworkId",
      "outputs": [
        {
          "internalType": "address",
          "name": "",
          "type": "address"
        }
      ],
      "stateMutability": "view",
      "type": "function"
    },
    {
      "inputs": [
        {
          "internalType": "string",
          "name": "spaceNetworkId",
          "type": "string"
        }
      ],
      "name": "getTokenIdByNetworkId",
      "outputs": [
        {
          "internalType": "uint256",
          "name": "",
          "type": "uint256"
        }
      ],
      "stateMutability": "view",
      "type": "function"
    },
    {
      "inputs": [
        {
          "internalType": "address",
          "name": "_space",
          "type": "address"
        },
        {
          "internalType": "address",
          "name": "_tokenEntitlement",
          "type": "address"
        },
        {
          "internalType": "address",
          "name": "_userEntitlement",
          "type": "address"
        },
        {
          "internalType": "address",
          "name": "_spaceToken",
          "type": "address"
        },
        {
          "internalType": "string[]",
          "name": "_permissions",
          "type": "string[]"
        }
      ],
      "name": "initialize",
      "outputs": [],
      "stateMutability": "nonpayable",
      "type": "function"
    },
    {
      "inputs": [
        {
          "internalType": "address",
          "name": "",
          "type": "address"
        },
        {
          "internalType": "address",
          "name": "",
          "type": "address"
        },
        {
          "internalType": "uint256",
          "name": "",
          "type": "uint256"
        },
        {
          "internalType": "bytes",
          "name": "",
          "type": "bytes"
        }
      ],
      "name": "onERC721Received",
      "outputs": [
        {
          "internalType": "bytes4",
          "name": "",
          "type": "bytes4"
        }
      ],
      "stateMutability": "nonpayable",
      "type": "function"
    },
    {
      "inputs": [],
      "name": "owner",
      "outputs": [
        {
          "internalType": "address",
          "name": "",
          "type": "address"
        }
      ],
      "stateMutability": "view",
      "type": "function"
    },
    {
      "inputs": [
        {
          "internalType": "uint256",
          "name": "",
          "type": "uint256"
        }
      ],
      "name": "ownerPermissions",
      "outputs": [
        {
          "internalType": "string",
          "name": "",
          "type": "string"
        }
      ],
      "stateMutability": "view",
      "type": "function"
    },
    {
      "inputs": [],
      "name": "proxiableUUID",
      "outputs": [
        {
          "internalType": "bytes32",
          "name": "",
          "type": "bytes32"
        }
      ],
      "stateMutability": "view",
      "type": "function"
    },
    {
      "inputs": [],
      "name": "renounceOwnership",
      "outputs": [],
      "stateMutability": "nonpayable",
      "type": "function"
    },
    {
      "inputs": [
        {
          "internalType": "bytes32",
          "name": "",
          "type": "bytes32"
        }
      ],
      "name": "spaceByHash",
      "outputs": [
        {
          "internalType": "address",
          "name": "",
          "type": "address"
        }
      ],
      "stateMutability": "view",
      "type": "function"
    },
    {
      "inputs": [
        {
          "internalType": "bytes32",
          "name": "",
          "type": "bytes32"
        }
      ],
      "name": "tokenByHash",
      "outputs": [
        {
          "internalType": "uint256",
          "name": "",
          "type": "uint256"
        }
      ],
      "stateMutability": "view",
      "type": "function"
    },
    {
      "inputs": [
        {
          "internalType": "address",
          "name": "newOwner",
          "type": "address"
        }
      ],
      "name": "transferOwnership",
      "outputs": [],
      "stateMutability": "nonpayable",
      "type": "function"
    },
    {
      "inputs": [
        {
          "internalType": "address",
          "name": "_space",
          "type": "address"
        },
        {
          "internalType": "address",
          "name": "_tokenEntitlement",
          "type": "address"
        },
        {
          "internalType": "address",
          "name": "_userEntitlement",
          "type": "address"
        }
      ],
      "name": "updateImplementations",
      "outputs": [],
      "stateMutability": "nonpayable",
      "type": "function"
    },
    {
      "inputs": [
        {
          "internalType": "address",
          "name": "newImplementation",
          "type": "address"
        }
      ],
      "name": "upgradeTo",
      "outputs": [],
      "stateMutability": "nonpayable",
      "type": "function"
    },
    {
      "inputs": [
        {
          "internalType": "address",
          "name": "newImplementation",
          "type": "address"
        },
        {
          "internalType": "bytes",
          "name": "data",
          "type": "bytes"
        }
      ],
      "name": "upgradeToAndCall",
      "outputs": [],
      "stateMutability": "payable",
      "type": "function"
    }
  ],
  "bytecode": {
    "object": "0x60a0604052306080523480156200001557600080fd5b506200002062000026565b620000e7565b600054610100900460ff1615620000935760405162461bcd60e51b815260206004820152602760248201527f496e697469616c697a61626c653a20636f6e747261637420697320696e697469604482015266616c697a696e6760c81b606482015260840160405180910390fd5b60005460ff90811614620000e5576000805460ff191660ff9081179091556040519081527f7f26b83ff96e1f2b6a682f133852f6798a09c465da95921460cefb38474024989060200160405180910390a15b565b608051613b8d6200011f600039600081816104ac015281816104f801528181610792015281816107d501526108710152613b8d6000f3fe608060405260043610620001435760003560e01c80638da5cb5b11620000b9578063cfc270371162000078578063cfc2703714620003b9578063df2cd9fe14620003dc578063dfc666ff1462000403578063f21cd4011462000428578063f2fde38b146200044b578063f3aba305146200047057600080fd5b80638da5cb5b14620002f657806396dc21e41462000316578063ad78faf3146200033b578063b28032f91462000360578063be8b5967146200039457600080fd5b80634f1ef28611620001065780634f1ef286146200025857806352d1902d146200026f578063683c72b61462000296578063715018a614620002b95780638a9ef42614620002d157600080fd5b806308bc0b4b1462000148578063150b7a0214620001885780633312540a14620001d15780633659cfe6146200020c57806345bfa5b11462000233575b600080fd5b3480156200015557600080fd5b5061012f546200016b906001600160a01b031681565b6040516001600160a01b0390911681526020015b60405180910390f35b3480156200019557600080fd5b50620001b7620001a7366004620023f0565b630a85bd0160e11b949350505050565b6040516001600160e01b031990911681526020016200017f565b348015620001de57600080fd5b506200016b620001f03660046200245f565b610132602052600090815260409020546001600160a01b031681565b3480156200021957600080fd5b50620002316200022b36600462002479565b620004a2565b005b3480156200024057600080fd5b50620002316200025236600462002562565b62000596565b6200023162000269366004620025ed565b62000788565b3480156200027c57600080fd5b506200028762000864565b6040519081526020016200017f565b348015620002a357600080fd5b50610130546200016b906001600160a01b031681565b348015620002c657600080fd5b50620002316200091a565b348015620002de57600080fd5b5062000287620002f03660046200268b565b62000932565b3480156200030357600080fd5b506033546001600160a01b03166200016b565b3480156200032357600080fd5b506200016b620003353660046200268b565b62000967565b3480156200034857600080fd5b506200016b6200035a36600462002730565b620009a5565b3480156200036d57600080fd5b50620003856200037f3660046200245f565b62000f1d565b6040516200017f91906200287a565b348015620003a157600080fd5b5062000231620003b33660046200288f565b62000fd3565b348015620003c657600080fd5b5061012e546200016b906001600160a01b031681565b348015620003e957600080fd5b50620003f4620011b2565b6040516200017f919062002921565b3480156200041057600080fd5b50620002316200042236600462002936565b62001296565b3480156200043557600080fd5b5061012d546200016b906001600160a01b031681565b3480156200045857600080fd5b50620002316200046a36600462002479565b6200132d565b3480156200047d57600080fd5b50620002876200048f3660046200245f565b6101336020526000908152604090205481565b6001600160a01b037f0000000000000000000000000000000000000000000000000000000000000000163003620004f65760405162461bcd60e51b8152600401620004ed9062002980565b60405180910390fd5b7f00000000000000000000000000000000000000000000000000000000000000006001600160a01b03166200054160008051602062003b11833981519152546001600160a01b031690565b6001600160a01b0316146200056a5760405162461bcd60e51b8152600401620004ed90620029cc565b6200057581620013a9565b604080516000808252602082019092526200059391839190620013b3565b50565b600054610100900460ff1615808015620005b75750600054600160ff909116105b80620005d35750303b158015620005d3575060005460ff166001145b620006385760405162461bcd60e51b815260206004820152602e60248201527f496e697469616c697a61626c653a20636f6e747261637420697320616c72656160448201526d191e481a5b9a5d1a585b1a5e995960921b6064820152608401620004ed565b6000805460ff1916600117905580156200065c576000805461ff0019166101001790555b620006666200152b565b6200067062001555565b6200067a62001589565b620006846200152b565b61012d80546001600160a01b038089166001600160a01b03199283161790925561012e805488841690831617905561012f805487841690831617905561013080549286169290911691909117905560005b82518110156200073857610131838281518110620006f757620006f762002a18565b6020908102919091018101518254600181018455600093845291909220019062000722908262002aae565b50806200072f8162002b7a565b915050620006d5565b50801562000780576000805461ff0019169055604051600181527f7f26b83ff96e1f2b6a682f133852f6798a09c465da95921460cefb38474024989060200160405180910390a15b505050505050565b6001600160a01b037f0000000000000000000000000000000000000000000000000000000000000000163003620007d35760405162461bcd60e51b8152600401620004ed9062002980565b7f00000000000000000000000000000000000000000000000000000000000000006001600160a01b03166200081e60008051602062003b11833981519152546001600160a01b031690565b6001600160a01b031614620008475760405162461bcd60e51b8152600401620004ed90620029cc565b6200085282620013a9565b6200086082826001620013b3565b5050565b6000306001600160a01b037f00000000000000000000000000000000000000000000000000000000000000001614620009065760405162461bcd60e51b815260206004820152603860248201527f555550535570677261646561626c653a206d757374206e6f742062652063616c60448201527f6c6564207468726f7567682064656c656761746563616c6c00000000000000006064820152608401620004ed565b5060008051602062003b1183398151915290565b62000924620015bd565b62000930600062001619565b565b60008083836040516200094792919062002ba2565b604080519182900390912060009081526101336020522054949350505050565b60008083836040516200097c92919062002ba2565b6040805191829003909120600090815261013260205220546001600160a01b0316949350505050565b6000620009b16200166b565b620009bd8a8a620016c6565b6000879003620009e057604051630e52390960e41b815260040160405180910390fd5b60008888604051620009f492919062002ba2565b6040805191829003909120600081815261013260205291909120549091506001600160a01b03161562000a3a57604051633881599b60e11b815260040160405180910390fd5b610130546040516275a31760e01b81526000916001600160a01b0316906275a3179062000a709030908c908c9060040162002bdb565b6020604051808303816000875af115801562000a90573d6000803e3d6000fd5b505050506040513d601f19601f8201168201806040525081019062000ab6919062002c02565b6000838152610133602052604080822083905561012e546101305491516001600160a01b03928316602482015260448101859052939450919291169060640160408051601f198184030181529181526020820180516001600160e01b031663cd6dc68760e01b1790525162000b2b90620022db565b62000b3892919062002c1c565b604051809103906000f08015801562000b55573d6000803e3d6000fd5b5061012f54610130546040516001600160a01b0391821660248201526044810186905292935060009291169060640160408051601f198184030181529181526020820180516001600160e01b031663cd6dc68760e01b1790525162000bba90620022db565b62000bc792919062002c1c565b604051809103906000f08015801562000be4573d6000803e3d6000fd5b506040805160028082526060820183529293506000929091602083019080368337019050509050828160008151811062000c225762000c2262002a18565b60200260200101906001600160a01b031690816001600160a01b031681525050818160018151811062000c595762000c5962002a18565b60200260200101906001600160a01b031690816001600160a01b03168152505061012d60009054906101000a90046001600160a01b03168f8f8f8f8561013060009054906101000a90046001600160a01b03168a60405160240162000cc5979695949392919062002c90565b60408051601f198184030181529181526020820180516001600160e01b031663f3ce6a5b60e01b1790525162000cfb90620022db565b62000d0892919062002c1c565b604051809103906000f08015801562000d25573d6000803e3d6000fd5b5060008681526101326020526040812080546001600160a01b0319166001600160a01b0384161790559096505b815181101562000def5781818151811062000d715762000d7162002a18565b602090810291909101015160405162ed014d60e21b81526001600160a01b038981166004830152909116906303b4053490602401600060405180830381600087803b15801562000dc057600080fd5b505af115801562000dd5573d6000803e3d6000fd5b50505050808062000de69062002b7a565b91505062000d52565b5062000dfd86848662001906565b62000e15868362000e0f8b8d62002cf1565b62001b8f565b62000e2d86848462000e278b62002edc565b62001d24565b610130546001600160a01b03166323b872dd30336040516001600160e01b031960e085901b1681526001600160a01b0392831660048201529116602482015260448101879052606401600060405180830381600087803b15801562000e9157600080fd5b505af115801562000ea6573d6000803e3d6000fd5b5050505062000eb23390565b6001600160a01b0316866001600160a01b03167f78d7e431fd0a46d11f5c8889cf2db64699be1f95ccb8b1419211c83bcdbce5808f8f60405162000ef892919062002fa1565b60405180910390a3505050505062000f106001606555565b9998505050505050505050565b610131818154811062000f2f57600080fd5b90600052602060002001600091509050805462000f4c9062002a2e565b80601f016020809104026020016040519081016040528092919081815260200182805462000f7a9062002a2e565b801562000fcb5780601f1062000f9f5761010080835404028352916020019162000fcb565b820191906000526020600020905b81548152906001019060200180831162000fad57829003601f168201915b505050505081565b62000fdd620015bd565b60005b81811015620011ad5760005b6101315481101562001148576200111484848481811062001011576200101162002a18565b905060200281019062001025919062002fb7565b8080601f016020809104026020016040519081016040528093929190818152602001838380828437600092019190915250506101318054909250859150811062001073576200107362002a18565b9060005260206000200180546200108a9062002a2e565b80601f0160208091040260200160405190810160405280929190818152602001828054620010b89062002a2e565b8015620011095780601f10620010dd5761010080835404028352916020019162001109565b820191906000526020600020905b815481529060010190602001808311620010eb57829003601f168201915b505050505062001fc5565b156200113357604051636571d65f60e01b815260040160405180910390fd5b806200113f8162002b7a565b91505062000fec565b5061013183838381811062001161576200116162002a18565b905060200281019062001175919062002fb7565b8254600181018455600093845260209093209092019162001197918362003000565b5080620011a48162002b7a565b91505062000fe0565b505050565b6060610131805480602002602001604051908101604052809291908181526020016000905b828210156200128d578382906000526020600020018054620011f99062002a2e565b80601f0160208091040260200160405190810160405280929190818152602001828054620012279062002a2e565b8015620012785780601f106200124c5761010080835404028352916020019162001278565b820191906000526020600020905b8154815290600101906020018083116200125a57829003601f168201915b505050505081526020019060010190620011d7565b50505050905090565b620012a0620015bd565b6001600160a01b03831615620012cd5761012d80546001600160a01b0319166001600160a01b0385161790555b6001600160a01b03821615620012fa5761012e80546001600160a01b0319166001600160a01b0384161790555b6001600160a01b03811615620011ad5761012f80546001600160a01b0383166001600160a01b0319909116179055505050565b62001337620015bd565b6001600160a01b0381166200139e5760405162461bcd60e51b815260206004820152602660248201527f4f776e61626c653a206e6577206f776e657220697320746865207a65726f206160448201526564647265737360d01b6064820152608401620004ed565b620005938162001619565b62000593620015bd565b7f4910fdfa16fed3260ed0e7147f7cc6da11a60208b5b9406d12a635614ffd91435460ff1615620013e957620011ad8362002022565b826001600160a01b03166352d1902d6040518163ffffffff1660e01b8152600401602060405180830381865afa92505050801562001446575060408051601f3d908101601f19168201909252620014439181019062002c02565b60015b620014ab5760405162461bcd60e51b815260206004820152602e60248201527f45524331393637557067726164653a206e657720696d706c656d656e7461746960448201526d6f6e206973206e6f74205555505360901b6064820152608401620004ed565b60008051602062003b1183398151915281146200151d5760405162461bcd60e51b815260206004820152602960248201527f45524331393637557067726164653a20756e737570706f727465642070726f786044820152681a58589b195555525160ba1b6064820152608401620004ed565b50620011ad838383620020c1565b600054610100900460ff16620009305760405162461bcd60e51b8152600401620004ed90620030cc565b600054610100900460ff166200157f5760405162461bcd60e51b8152600401620004ed90620030cc565b62000930620020ec565b600054610100900460ff16620015b35760405162461bcd60e51b8152600401620004ed90620030cc565b6200093062002121565b6033546001600160a01b03163314620009305760405162461bcd60e51b815260206004820181905260248201527f4f776e61626c653a2063616c6c6572206973206e6f7420746865206f776e65726044820152606401620004ed565b603380546001600160a01b038381166001600160a01b0319831681179093556040519116919082907f8be0079c531659141344cd1fd0a4f28419497f9722a3daafe3b4186f6b6457e090600090a35050565b600260655403620016bf5760405162461bcd60e51b815260206004820152601f60248201527f5265656e7472616e637947756172643a207265656e7472616e742063616c6c006044820152606401620004ed565b6002606555565b600082828080601f01602080910402602001604051908101604052809392919081815260200183838082843760009201919091525050825192935050600290911090508062001716575080516020105b15620017355760405163354b556f60e11b815260040160405180910390fd5b805160005b81811015620018ff57600360fc1b8382815181106200175d576200175d62002a18565b01602001516001600160f81b03191610806200179f5750603d60f91b8382815181106200178e576200178e62002a18565b01602001516001600160f81b031916115b80620018035750603960f81b838281518110620017c057620017c062002a18565b01602001516001600160f81b031916118015620018035750606160f81b838281518110620017f257620017f262002a18565b01602001516001600160f81b031916105b801562001838575082818151811062001820576200182062002a18565b6020910101516001600160f81b031916601760f91b14155b80156200186d575082818151811062001855576200185562002a18565b6020910101516001600160f81b031916602d60f81b14155b8015620018a257508281815181106200188a576200188a62002a18565b6020910101516001600160f81b031916605f60f81b14155b8015620018d75750828181518110620018bf57620018bf62002a18565b6020910101516001600160f81b031916600160fd1b14155b15620018f65760405163f8fa659760e01b815260040160405180910390fd5b6001016200173a565b5050505050565b604080516001808252818301909252600091816020015b60408051608081018252600080825260208083018290529282015260608082015282526000199092019101816200191d575050604080516001808252818301909252919250600091906020808301908036833701905050905082816000815181106200198d576200198d62002a18565b60209081029190910181019190915260408051608081018252610130546001600160a01b031681526001928101839052908101919091526060810182905282518390600090620019e157620019e162002a18565b6020908102919091010152604080516001808252818301909252600091816020015b60408051808201909152600081526060602082015281526020019060019003908162001a035790505090506040518060400160405280866001600160a01b031681526020018460405160200162001a5b919062003117565b6040516020818303038152906040528152508160008151811062001a835762001a8362002a18565b60200260200101819052506000866001600160a01b0316638fcd793d6040518060400160405280600581526020016427bbb732b960d91b815250610131856040518463ffffffff1660e01b815260040162001ae1939291906200324f565b6020604051808303816000875af115801562001b01573d6000803e3d6000fd5b505050506040513d601f19601f8201168201806040525081019062001b27919062002c02565b6040516324ccd58b60e11b8152600481018290529091506001600160a01b03881690634999ab1690602401600060405180830381600087803b15801562001b6d57600080fd5b505af115801562001b82573d6000803e3d6000fd5b5050505050505050505050565b604080516001808252818301909252600091816020015b60408051808201909152600081526060602082015281526020019060019003908162001ba6575050604080516001808252818301909252919250600091906020808301908036833701905050905060018160008151811062001c0c5762001c0c62002a18565b60200260200101906001600160a01b031690816001600160a01b0316815250506040518060400160405280856001600160a01b031681526020018260405160200162001c59919062003352565b6040516020818303038152906040528152508260008151811062001c815762001c8162002a18565b6020026020010181905250846001600160a01b0316638fcd793d6040518060400160405280600881526020016745766572796f6e6560c01b81525085856040518463ffffffff1660e01b815260040162001cde9392919062003367565b6020604051808303816000875af115801562001cfe573d6000803e3d6000fd5b505050506040513d601f19601f8201168201806040525081019062000780919062002c02565b6020810151511562001fb857604080516001808252818301909252600091816020015b60408051808201909152600081526060602082015281526020019060019003908162001d47579050509050604051806040016040528060006001600160a01b03168152602001604051806020016040528060008152508152508160008151811062001db65762001db662002a18565b60200260200101819052506000856001600160a01b0316638fcd793d84600001518560200151856040518463ffffffff1660e01b815260040162001dfd9392919062003367565b6020604051808303816000875af115801562001e1d573d6000803e3d6000fd5b505050506040513d601f19601f8201168201806040525081019062001e43919062002c02565b6060840151519091501562001ef957856001600160a01b031663ba201ba8826040518060400160405280886001600160a01b03168152602001876060015160405160200162001e93919062003352565b6040516020818303038152906040528152506040518363ffffffff1660e01b815260040162001ec4929190620033b0565b600060405180830381600087803b15801562001edf57600080fd5b505af115801562001ef4573d6000803e3d6000fd5b505050505b82604001515160000362001f0f57505062001fb8565b856001600160a01b031663ba201ba8826040518060400160405280896001600160a01b03168152602001876040015160405160200162001f50919062003117565b6040516020818303038152906040528152506040518363ffffffff1660e01b815260040162001f81929190620033b0565b600060405180830381600087803b15801562001f9c57600080fd5b505af115801562001fb1573d6000803e3d6000fd5b5050505050505b50505050565b6001606555565b60008160405160200162001fda91906200287a565b60405160208183030381529060405280519060200120836040516020016200200391906200287a565b6040516020818303038152906040528051906020012014905092915050565b6001600160a01b0381163b620020915760405162461bcd60e51b815260206004820152602d60248201527f455243313936373a206e657720696d706c656d656e746174696f6e206973206e60448201526c1bdd08184818dbdb9d1c9858dd609a1b6064820152608401620004ed565b60008051602062003b1183398151915280546001600160a01b0319166001600160a01b0392909216919091179055565b620020cc836200214b565b600082511180620020da5750805b15620011ad5762001fb883836200218d565b600054610100900460ff16620021165760405162461bcd60e51b8152600401620004ed90620030cc565b620009303362001619565b600054610100900460ff1662001fbe5760405162461bcd60e51b8152600401620004ed90620030cc565b620021568162002022565b6040516001600160a01b038216907fbc7cd75a20ee27fd9adebab32041f755214dbc6bffa90cc0225b39da2e5c2d3b90600090a250565b60606001600160a01b0383163b620021f75760405162461bcd60e51b815260206004820152602660248201527f416464726573733a2064656c65676174652063616c6c20746f206e6f6e2d636f6044820152651b9d1c9858dd60d21b6064820152608401620004ed565b600080846001600160a01b031684604051620022149190620033cb565b600060405180830381855af49150503d806000811462002251576040519150601f19603f3d011682016040523d82523d6000602084013e62002256565b606091505b509150915062002281828260405180606001604052806027815260200162003b31602791396200228a565b95945050505050565b606083156200229b575081620022a7565b620022a78383620022ae565b9392505050565b815115620022bf5781518083602001fd5b8060405162461bcd60e51b8152600401620004ed91906200287a565b61072780620033ea83390190565b80356001600160a01b03811681146200230157600080fd5b919050565b634e487b7160e01b600052604160045260246000fd5b604051608081016001600160401b038111828210171562002341576200234162002306565b60405290565b604051601f8201601f191681016001600160401b038111828210171562002372576200237262002306565b604052919050565b600082601f8301126200238c57600080fd5b81356001600160401b03811115620023a857620023a862002306565b620023bd601f8201601f191660200162002347565b818152846020838601011115620023d357600080fd5b816020850160208301376000918101602001919091529392505050565b600080600080608085870312156200240757600080fd5b6200241285620022e9565b93506200242260208601620022e9565b92506040850135915060608501356001600160401b038111156200244557600080fd5b62002453878288016200237a565b91505092959194509250565b6000602082840312156200247257600080fd5b5035919050565b6000602082840312156200248c57600080fd5b620022a782620022e9565b60006001600160401b03821115620024b357620024b362002306565b5060051b60200190565b6000620024d4620024ce8462002497565b62002347565b8381529050602080820190600585901b840186811115620024f457600080fd5b845b81811015620025345780356001600160401b03811115620025175760008081fd5b62002525898289016200237a565b855250928201928201620024f6565b505050509392505050565b600082601f8301126200255157600080fd5b620022a783833560208501620024bd565b600080600080600060a086880312156200257b57600080fd5b6200258686620022e9565b94506200259660208701620022e9565b9350620025a660408701620022e9565b9250620025b660608701620022e9565b915060808601356001600160401b03811115620025d257600080fd5b620025e0888289016200253f565b9150509295509295909350565b600080604083850312156200260157600080fd5b6200260c83620022e9565b915060208301356001600160401b038111156200262857600080fd5b62002636858286016200237a565b9150509250929050565b60008083601f8401126200265357600080fd5b5081356001600160401b038111156200266b57600080fd5b6020830191508360208285010111156200268457600080fd5b9250929050565b600080602083850312156200269f57600080fd5b82356001600160401b03811115620026b657600080fd5b620026c48582860162002640565b90969095509350505050565b60008083601f840112620026e357600080fd5b5081356001600160401b03811115620026fb57600080fd5b6020830191508360208260051b85010111156200268457600080fd5b6000608082840312156200272a57600080fd5b50919050565b600080600080600080600080600060a08a8c0312156200274f57600080fd5b89356001600160401b03808211156200276757600080fd5b620027758d838e0162002640565b909b50995060208c01359150808211156200278f57600080fd5b6200279d8d838e0162002640565b909950975060408c0135915080821115620027b757600080fd5b620027c58d838e0162002640565b909750955060608c0135915080821115620027df57600080fd5b620027ed8d838e01620026d0565b909550935060808c01359150808211156200280757600080fd5b50620028168c828d0162002717565b9150509295985092959850929598565b60005b838110156200284357818101518382015260200162002829565b50506000910152565b600081518084526200286681602086016020860162002826565b601f01601f19169290920160200192915050565b602081526000620022a760208301846200284c565b60008060208385031215620028a357600080fd5b82356001600160401b03811115620028ba57600080fd5b620026c485828601620026d0565b600081518084526020808501808196508360051b8101915082860160005b8581101562002914578284038952620029018483516200284c565b98850198935090840190600101620028e6565b5091979650505050505050565b602081526000620022a76020830184620028c8565b6000806000606084860312156200294c57600080fd5b6200295784620022e9565b92506200296760208501620022e9565b91506200297760408501620022e9565b90509250925092565b6020808252602c908201527f46756e6374696f6e206d7573742062652063616c6c6564207468726f7567682060408201526b19195b1959d85d1958d85b1b60a21b606082015260800190565b6020808252602c908201527f46756e6374696f6e206d7573742062652063616c6c6564207468726f7567682060408201526b6163746976652070726f787960a01b606082015260800190565b634e487b7160e01b600052603260045260246000fd5b600181811c9082168062002a4357607f821691505b6020821081036200272a57634e487b7160e01b600052602260045260246000fd5b601f821115620011ad57600081815260208120601f850160051c8101602086101562002a8d5750805b601f850160051c820191505b81811015620007805782815560010162002a99565b81516001600160401b0381111562002aca5762002aca62002306565b62002ae28162002adb845462002a2e565b8462002a64565b602080601f83116001811462002b1a576000841562002b015750858301515b600019600386901b1c1916600185901b17855562000780565b600085815260208120601f198616915b8281101562002b4b5788860151825594840194600190910190840162002b2a565b508582101562002b6a5787850151600019600388901b60f8161c191681555b5050505050600190811b01905550565b60006001820162002b9b57634e487b7160e01b600052601160045260246000fd5b5060010190565b8183823760009101908152919050565b81835281816020850137506000828201602090810191909152601f909101601f19169091010190565b6001600160a01b038416815260406020820181905260009062002281908301848662002bb2565b60006020828403121562002c1557600080fd5b5051919050565b6001600160a01b038316815260406020820181905260009062002c42908301846200284c565b949350505050565b600081518084526020808501945080840160005b8381101562002c855781516001600160a01b03168752958201959082019060010162002c5e565b509495945050505050565b60a08152600062002ca660a08301898b62002bb2565b828103602084015262002cbb81888a62002bb2565b9050828103604084015262002cd1818762002c4a565b6001600160a01b0395909516606084015250506080015295945050505050565b6000620022a7368484620024bd565b600082601f83011262002d1257600080fd5b8135602062002d25620024ce8362002497565b828152600592831b850182019282820191908785111562002d4557600080fd5b8387015b8581101562002e595780356001600160401b038082111562002d6b5760008081fd5b908901906080828c03601f190181131562002d865760008081fd5b62002d906200231c565b62002d9d898501620022e9565b81526040808501358a830152606080860135801515811462002dbf5760008081fd5b8383015292850135928484111562002dd75760008081fd5b83860195508e603f87011262002def57600094508485fd5b8a860135945062002e04620024ce8662002497565b85815294881b86018201948b810194508f86111562002e235760008081fd5b958201955b8587101562002e435786358552958b0195938b019362002e28565b9083015250875250505092840192840162002d49565b5090979650505050505050565b600082601f83011262002e7857600080fd5b8135602062002e8b620024ce8362002497565b82815260059290921b8401810191818101908684111562002eab57600080fd5b8286015b8481101562002ed15762002ec381620022e9565b835291830191830162002eaf565b509695505050505050565b60006080823603121562002eef57600080fd5b62002ef96200231c565b82356001600160401b038082111562002f1157600080fd5b62002f1f368387016200237a565b8352602085013591508082111562002f3657600080fd5b62002f44368387016200253f565b6020840152604085013591508082111562002f5e57600080fd5b62002f6c3683870162002d00565b6040840152606085013591508082111562002f8657600080fd5b5062002f953682860162002e66565b60608301525092915050565b60208152600062002c4260208301848662002bb2565b6000808335601e1984360301811262002fcf57600080fd5b8301803591506001600160401b0382111562002fea57600080fd5b6020019150368190038213156200268457600080fd5b6001600160401b038311156200301a576200301a62002306565b62003032836200302b835462002a2e565b8362002a64565b6000601f841160018114620030695760008515620030505750838201355b600019600387901b1c1916600186901b178355620018ff565b600083815260209020601f19861690835b828110156200309c57868501358255602094850194600190920191016200307a565b5086821015620030ba5760001960f88860031b161c19848701351681555b505060018560011b0183555050505050565b6020808252602b908201527f496e697469616c697a61626c653a20636f6e7472616374206973206e6f74206960408201526a6e697469616c697a696e6760a81b606082015260800190565b60006020808301818452808551808352604092508286019150828160051b8701018488016000805b84811015620031cb57898403603f19018652825180516001600160a01b031685528881015189860152878101511515888601526060908101516080918601829052805191860182905289019060a086019084905b80821015620031b55783518352928b0192918b01916001919091019062003193565b505096890196945050918701916001016200313f565b50919998505050505050505050565b60018060a01b038151168252600060208201516040602085015262002c4260408501826200284c565b600081518084526020808501808196508360051b8101915082860160005b85811015620029145782840389526200323c848351620031da565b9885019893509084019060010162003221565b6060815260006200326460608301866200284c565b602083820381850152818654808452828401915060058382821b86010160008a8152858120815b858110156200332c57601f19898503018752828254620032ab8162002a2e565b80875260018281168015620032c95760018114620032e35762003314565b60ff198416898e01528215158a1b89018d01945062003314565b8688528c8820885b848110156200330c5781548f828d01015283820191508e81019050620032eb565b8a018e019550505b50998b0199929650505091909101906001016200328b565b505050878103604089015262003343818a62003203565b9b9a5050505050505050505050565b602081526000620022a7602083018462002c4a565b6060815260006200337c60608301866200284c565b8281036020840152620033908186620028c8565b90508281036040840152620033a6818562003203565b9695505050505050565b82815260406020820152600062002c426040830184620031da565b60008251620033df81846020870162002826565b919091019291505056fe608060405260405161072738038061072783398101604081905261002291610319565b61002e82826000610035565b5050610436565b61003e8361006b565b60008251118061004b5750805b156100665761006483836100ab60201b6100291760201c565b505b505050565b610074816100d7565b6040516001600160a01b038216907fbc7cd75a20ee27fd9adebab32041f755214dbc6bffa90cc0225b39da2e5c2d3b90600090a250565b60606100d08383604051806060016040528060278152602001610700602791396101a9565b9392505050565b6100ea8161022260201b6100551760201c565b6101515760405162461bcd60e51b815260206004820152602d60248201527f455243313936373a206e657720696d706c656d656e746174696f6e206973206e60448201526c1bdd08184818dbdb9d1c9858dd609a1b60648201526084015b60405180910390fd5b806101887f360894a13ba1a3210667c828492db98dca3e2076cc3735a920a3ca505d382bbc60001b61023160201b6100641760201c565b80546001600160a01b0319166001600160a01b039290921691909117905550565b6060600080856001600160a01b0316856040516101c691906103e7565b600060405180830381855af49150503d8060008114610201576040519150601f19603f3d011682016040523d82523d6000602084013e610206565b606091505b50909250905061021886838387610234565b9695505050505050565b6001600160a01b03163b151590565b90565b606083156102a357825160000361029c576001600160a01b0385163b61029c5760405162461bcd60e51b815260206004820152601d60248201527f416464726573733a2063616c6c20746f206e6f6e2d636f6e74726163740000006044820152606401610148565b50816102ad565b6102ad83836102b5565b949350505050565b8151156102c55781518083602001fd5b8060405162461bcd60e51b81526004016101489190610403565b634e487b7160e01b600052604160045260246000fd5b60005b838110156103105781810151838201526020016102f8565b50506000910152565b6000806040838503121561032c57600080fd5b82516001600160a01b038116811461034357600080fd5b60208401519092506001600160401b038082111561036057600080fd5b818501915085601f83011261037457600080fd5b815181811115610386576103866102df565b604051601f8201601f19908116603f011681019083821181831017156103ae576103ae6102df565b816040528281528860208487010111156103c757600080fd5b6103d88360208301602088016102f5565b80955050505050509250929050565b600082516103f98184602087016102f5565b9190910192915050565b60208152600082518060208401526104228160408501602087016102f5565b601f01601f19169190910160400192915050565b6102bb806104456000396000f3fe60806040523661001357610011610017565b005b6100115b610027610022610067565b61009f565b565b606061004e838360405180606001604052806027815260200161025f602791396100c3565b9392505050565b6001600160a01b03163b151590565b90565b600061009a7f360894a13ba1a3210667c828492db98dca3e2076cc3735a920a3ca505d382bbc546001600160a01b031690565b905090565b3660008037600080366000845af43d6000803e8080156100be573d6000f35b3d6000fd5b6060600080856001600160a01b0316856040516100e0919061020f565b600060405180830381855af49150503d806000811461011b576040519150601f19603f3d011682016040523d82523d6000602084013e610120565b606091505b50915091506101318683838761013b565b9695505050505050565b606083156101af5782516000036101a8576001600160a01b0385163b6101a85760405162461bcd60e51b815260206004820152601d60248201527f416464726573733a2063616c6c20746f206e6f6e2d636f6e747261637400000060448201526064015b60405180910390fd5b50816101b9565b6101b983836101c1565b949350505050565b8151156101d15781518083602001fd5b8060405162461bcd60e51b815260040161019f919061022b565b60005b838110156102065781810151838201526020016101ee565b50506000910152565b600082516102218184602087016101eb565b9190910192915050565b602081526000825180602084015261024a8160408501602087016101eb565b601f01601f1916919091016040019291505056fe416464726573733a206c6f772d6c6576656c2064656c65676174652063616c6c206661696c6564a2646970667358221220c3201b3bc85f5b49b0e0c9905d402827c9a351d780685a6ed698fc6baffa2cac64736f6c63430008110033416464726573733a206c6f772d6c6576656c2064656c65676174652063616c6c206661696c6564360894a13ba1a3210667c828492db98dca3e2076cc3735a920a3ca505d382bbc416464726573733a206c6f772d6c6576656c2064656c65676174652063616c6c206661696c6564a2646970667358221220f6c08c3e8e22b0087ee9a1e68288175a588872a05e35cb1f9b20b3204bf02f7864736f6c63430008110033",
    "linkReferences": {}
  },
  "methodIdentifiers": {
    "SPACE_IMPLEMENTATION_ADDRESS()": "f21cd401",
    "SPACE_TOKEN_ADDRESS()": "683c72b6",
    "TOKEN_IMPLEMENTATION_ADDRESS()": "cfc27037",
    "USER_IMPLEMENTATION_ADDRESS()": "08bc0b4b",
    "addOwnerPermissions(string[])": "be8b5967",
    "createSpace(string,string,string,string[],(string,string[],(address,uint256,bool,uint256[])[],address[]))": "ad78faf3",
    "getOwnerPermissions()": "df2cd9fe",
    "getSpaceAddressByNetworkId(string)": "96dc21e4",
    "getTokenIdByNetworkId(string)": "8a9ef426",
    "initialize(address,address,address,address,string[])": "45bfa5b1",
    "onERC721Received(address,address,uint256,bytes)": "150b7a02",
    "owner()": "8da5cb5b",
    "ownerPermissions(uint256)": "b28032f9",
    "proxiableUUID()": "52d1902d",
    "renounceOwnership()": "715018a6",
    "spaceByHash(bytes32)": "3312540a",
    "tokenByHash(bytes32)": "f3aba305",
    "transferOwnership(address)": "f2fde38b",
    "updateImplementations(address,address,address)": "dfc666ff",
    "upgradeTo(address)": "3659cfe6",
    "upgradeToAndCall(address,bytes)": "4f1ef286"
  },
  "id": 14
}