{
  "abi": [
    {
      "inputs": [],
      "stateMutability": "nonpayable",
      "type": "constructor"
    },
    {
      "inputs": [],
      "name": "AddRoleFailed",
      "type": "error"
    },
    {
      "inputs": [],
      "name": "ChannelAlreadyRegistered",
      "type": "error"
    },
    {
      "inputs": [],
      "name": "ChannelDoesNotExist",
      "type": "error"
    },
    {
      "inputs": [],
      "name": "EntitlementAlreadyExists",
      "type": "error"
    },
    {
      "inputs": [],
      "name": "EntitlementAlreadyWhitelisted",
      "type": "error"
    },
    {
      "inputs": [],
      "name": "EntitlementModuleNotSupported",
      "type": "error"
    },
    {
      "inputs": [],
      "name": "EntitlementNotWhitelisted",
      "type": "error"
    },
    {
      "inputs": [],
      "name": "InvalidParameters",
      "type": "error"
    },
    {
      "inputs": [],
      "name": "MissingOwnerPermission",
      "type": "error"
    },
    {
      "inputs": [],
      "name": "NotAllowed",
      "type": "error"
    },
    {
      "inputs": [],
      "name": "PermissionAlreadyExists",
      "type": "error"
    },
    {
      "inputs": [],
      "name": "RoleDoesNotExist",
      "type": "error"
    },
    {
      "inputs": [],
      "name": "RoleIsAssignedToEntitlement",
      "type": "error"
    },
    {
      "anonymous": false,
      "inputs": [
        {
          "indexed": false,
          "internalType": "address",
          "name": "previousAdmin",
          "type": "address"
        },
        {
          "indexed": false,
          "internalType": "address",
          "name": "newAdmin",
          "type": "address"
        }
      ],
      "name": "AdminChanged",
      "type": "event"
    },
    {
      "anonymous": false,
      "inputs": [
        {
          "indexed": true,
          "internalType": "address",
          "name": "beacon",
          "type": "address"
        }
      ],
      "name": "BeaconUpgraded",
      "type": "event"
    },
    {
      "anonymous": false,
      "inputs": [
        {
          "indexed": false,
          "internalType": "uint8",
          "name": "version",
          "type": "uint8"
        }
      ],
      "name": "Initialized",
      "type": "event"
    },
    {
      "anonymous": false,
      "inputs": [
        {
          "indexed": true,
          "internalType": "address",
          "name": "implementation",
          "type": "address"
        }
      ],
      "name": "Upgraded",
      "type": "event"
    },
    {
      "inputs": [
        {
          "internalType": "uint256",
          "name": "_roleId",
          "type": "uint256"
        },
        {
          "internalType": "string",
          "name": "_permission",
          "type": "string"
        }
      ],
      "name": "addPermissionToRole",
      "outputs": [],
      "stateMutability": "nonpayable",
      "type": "function"
    },
    {
      "inputs": [
        {
          "internalType": "string",
          "name": "_channelId",
          "type": "string"
        },
        {
          "internalType": "address",
          "name": "_entitlement",
          "type": "address"
        },
        {
          "internalType": "uint256",
          "name": "_roleId",
          "type": "uint256"
        }
      ],
      "name": "addRoleToChannel",
      "outputs": [],
      "stateMutability": "nonpayable",
      "type": "function"
    },
    {
      "inputs": [
        {
          "internalType": "uint256",
          "name": "_roleId",
          "type": "uint256"
        },
        {
          "components": [
            {
              "internalType": "address",
              "name": "module",
              "type": "address"
            },
            {
              "internalType": "bytes",
              "name": "data",
              "type": "bytes"
            }
          ],
          "internalType": "struct DataTypes.Entitlement",
          "name": "_entitlement",
          "type": "tuple"
        }
      ],
      "name": "addRoleToEntitlement",
      "outputs": [],
      "stateMutability": "nonpayable",
      "type": "function"
    },
    {
      "inputs": [
        {
          "internalType": "uint256",
          "name": "",
          "type": "uint256"
        }
      ],
      "name": "channels",
      "outputs": [
        {
          "internalType": "bytes32",
          "name": "",
          "type": "bytes32"
        }
      ],
      "stateMutability": "view",
      "type": "function"
    },
    {
      "inputs": [
        {
          "internalType": "bytes32",
          "name": "",
          "type": "bytes32"
        }
      ],
      "name": "channelsByHash",
      "outputs": [
        {
          "internalType": "string",
          "name": "name",
          "type": "string"
        },
        {
          "internalType": "bytes32",
          "name": "channelId",
          "type": "bytes32"
        },
        {
          "internalType": "uint256",
          "name": "createdAt",
          "type": "uint256"
        },
        {
          "internalType": "bool",
          "name": "disabled",
          "type": "bool"
        }
      ],
      "stateMutability": "view",
      "type": "function"
    },
    {
      "inputs": [
        {
          "internalType": "string",
          "name": "channelName",
          "type": "string"
        },
        {
          "internalType": "string",
          "name": "channelNetworkId",
          "type": "string"
        },
        {
          "internalType": "uint256[]",
          "name": "roleIds",
          "type": "uint256[]"
        }
      ],
      "name": "createChannel",
      "outputs": [
        {
          "internalType": "bytes32",
          "name": "",
          "type": "bytes32"
        }
      ],
      "stateMutability": "nonpayable",
      "type": "function"
    },
    {
      "inputs": [
        {
          "internalType": "string",
          "name": "_roleName",
          "type": "string"
        },
        {
          "internalType": "string[]",
          "name": "_permissions",
          "type": "string[]"
        },
        {
          "components": [
            {
              "internalType": "address",
              "name": "module",
              "type": "address"
            },
            {
              "internalType": "bytes",
              "name": "data",
              "type": "bytes"
            }
          ],
          "internalType": "struct DataTypes.Entitlement[]",
          "name": "_entitlements",
          "type": "tuple[]"
        }
      ],
      "name": "createRole",
      "outputs": [
        {
          "internalType": "uint256",
          "name": "",
          "type": "uint256"
        }
      ],
      "stateMutability": "nonpayable",
      "type": "function"
    },
    {
      "inputs": [
        {
          "internalType": "address",
          "name": "",
          "type": "address"
        }
      ],
      "name": "defaultEntitlements",
      "outputs": [
        {
          "internalType": "bool",
          "name": "",
          "type": "bool"
        }
      ],
      "stateMutability": "view",
      "type": "function"
    },
    {
      "inputs": [],
      "name": "disabled",
      "outputs": [
        {
          "internalType": "bool",
          "name": "",
          "type": "bool"
        }
      ],
      "stateMutability": "view",
      "type": "function"
    },
    {
      "inputs": [
        {
          "internalType": "uint256",
          "name": "",
          "type": "uint256"
        }
      ],
      "name": "entitlements",
      "outputs": [
        {
          "internalType": "address",
          "name": "",
          "type": "address"
        }
      ],
      "stateMutability": "view",
      "type": "function"
    },
    {
      "inputs": [
        {
          "internalType": "bytes32",
          "name": "_channelHash",
          "type": "bytes32"
        }
      ],
      "name": "getChannelByHash",
      "outputs": [
        {
          "components": [
            {
              "internalType": "string",
              "name": "name",
              "type": "string"
            },
            {
              "internalType": "bytes32",
              "name": "channelId",
              "type": "bytes32"
            },
            {
              "internalType": "uint256",
              "name": "createdAt",
              "type": "uint256"
            },
            {
              "internalType": "bool",
              "name": "disabled",
              "type": "bool"
            }
          ],
          "internalType": "struct DataTypes.Channel",
          "name": "",
          "type": "tuple"
        }
      ],
      "stateMutability": "view",
      "type": "function"
    },
    {
      "inputs": [
        {
          "internalType": "uint256",
          "name": "_roleId",
          "type": "uint256"
        }
      ],
      "name": "getEntitlementIdsByRoleId",
      "outputs": [
        {
          "internalType": "bytes32[]",
          "name": "",
          "type": "bytes32[]"
        }
      ],
      "stateMutability": "view",
      "type": "function"
    },
    {
      "inputs": [],
      "name": "getEntitlements",
      "outputs": [
        {
          "internalType": "address[]",
          "name": "",
          "type": "address[]"
        }
      ],
      "stateMutability": "view",
      "type": "function"
    },
    {
      "inputs": [
        {
          "internalType": "uint256",
          "name": "_roleId",
          "type": "uint256"
        }
      ],
      "name": "getPermissionsByRoleId",
      "outputs": [
        {
          "internalType": "bytes32[]",
          "name": "",
          "type": "bytes32[]"
        }
      ],
      "stateMutability": "view",
      "type": "function"
    },
    {
      "inputs": [
        {
          "internalType": "uint256",
          "name": "_roleId",
          "type": "uint256"
        }
      ],
      "name": "getRoleById",
      "outputs": [
        {
          "components": [
            {
              "internalType": "uint256",
              "name": "roleId",
              "type": "uint256"
            },
            {
              "internalType": "string",
              "name": "name",
              "type": "string"
            }
          ],
          "internalType": "struct DataTypes.Role",
          "name": "",
          "type": "tuple"
        }
      ],
      "stateMutability": "view",
      "type": "function"
    },
    {
      "inputs": [],
      "name": "getRoles",
      "outputs": [
        {
          "components": [
            {
              "internalType": "uint256",
              "name": "roleId",
              "type": "uint256"
            },
            {
              "internalType": "string",
              "name": "name",
              "type": "string"
            }
          ],
          "internalType": "struct DataTypes.Role[]",
          "name": "",
          "type": "tuple[]"
        }
      ],
      "stateMutability": "view",
      "type": "function"
    },
    {
      "inputs": [
        {
          "internalType": "address",
          "name": "",
          "type": "address"
        }
      ],
      "name": "hasEntitlement",
      "outputs": [
        {
          "internalType": "bool",
          "name": "",
          "type": "bool"
        }
      ],
      "stateMutability": "view",
      "type": "function"
    },
    {
      "inputs": [
        {
          "internalType": "string",
          "name": "_name",
          "type": "string"
        },
        {
          "internalType": "string",
          "name": "_networkId",
          "type": "string"
        },
        {
          "internalType": "address[]",
          "name": "_entitlements",
          "type": "address[]"
        },
        {
          "internalType": "address",
          "name": "_token",
          "type": "address"
        },
        {
          "internalType": "uint256",
          "name": "_tokenId",
          "type": "uint256"
        }
      ],
      "name": "initialize",
      "outputs": [],
      "stateMutability": "nonpayable",
      "type": "function"
    },
    {
      "inputs": [
        {
          "internalType": "string",
          "name": "_channelId",
          "type": "string"
        },
        {
          "internalType": "address",
          "name": "_user",
          "type": "address"
        },
        {
          "internalType": "string",
          "name": "_permission",
          "type": "string"
        }
      ],
      "name": "isEntitledToChannel",
      "outputs": [
        {
          "internalType": "bool",
          "name": "_entitled",
          "type": "bool"
        }
      ],
      "stateMutability": "view",
      "type": "function"
    },
    {
      "inputs": [
        {
          "internalType": "address",
          "name": "_user",
          "type": "address"
        },
        {
          "internalType": "string",
          "name": "_permission",
          "type": "string"
        }
      ],
      "name": "isEntitledToSpace",
      "outputs": [
        {
          "internalType": "bool",
          "name": "_entitled",
          "type": "bool"
        }
      ],
      "stateMutability": "view",
      "type": "function"
    },
    {
      "inputs": [
        {
          "internalType": "bytes[]",
          "name": "data",
          "type": "bytes[]"
        }
      ],
      "name": "multicall",
      "outputs": [
        {
          "internalType": "bytes[]",
          "name": "results",
          "type": "bytes[]"
        }
      ],
      "stateMutability": "nonpayable",
      "type": "function"
    },
    {
      "inputs": [],
      "name": "name",
      "outputs": [
        {
          "internalType": "string",
          "name": "",
          "type": "string"
        }
      ],
      "stateMutability": "view",
      "type": "function"
    },
    {
      "inputs": [],
      "name": "networkId",
      "outputs": [
        {
          "internalType": "string",
          "name": "",
          "type": "string"
        }
      ],
      "stateMutability": "view",
      "type": "function"
    },
    {
      "inputs": [],
      "name": "owner",
      "outputs": [
        {
          "internalType": "address",
          "name": "",
          "type": "address"
        }
      ],
      "stateMutability": "view",
      "type": "function"
    },
    {
      "inputs": [],
      "name": "ownerRoleId",
      "outputs": [
        {
          "internalType": "uint256",
          "name": "",
          "type": "uint256"
        }
      ],
      "stateMutability": "view",
      "type": "function"
    },
    {
      "inputs": [],
      "name": "proxiableUUID",
      "outputs": [
        {
          "internalType": "bytes32",
          "name": "",
          "type": "bytes32"
        }
      ],
      "stateMutability": "view",
      "type": "function"
    },
    {
      "inputs": [
        {
          "internalType": "uint256",
          "name": "_roleId",
          "type": "uint256"
        },
        {
          "internalType": "string",
          "name": "_permission",
          "type": "string"
        }
      ],
      "name": "removePermissionFromRole",
      "outputs": [],
      "stateMutability": "nonpayable",
      "type": "function"
    },
    {
      "inputs": [
        {
          "internalType": "uint256",
          "name": "_roleId",
          "type": "uint256"
        }
      ],
      "name": "removeRole",
      "outputs": [],
      "stateMutability": "nonpayable",
      "type": "function"
    },
    {
      "inputs": [
        {
          "internalType": "string",
          "name": "_channelId",
          "type": "string"
        },
        {
          "internalType": "address",
          "name": "_entitlement",
          "type": "address"
        },
        {
          "internalType": "uint256",
          "name": "_roleId",
          "type": "uint256"
        }
      ],
      "name": "removeRoleFromChannel",
      "outputs": [],
      "stateMutability": "nonpayable",
      "type": "function"
    },
    {
      "inputs": [
        {
          "internalType": "uint256",
          "name": "_roleId",
          "type": "uint256"
        },
        {
          "components": [
            {
              "internalType": "address",
              "name": "module",
              "type": "address"
            },
            {
              "internalType": "bytes",
              "name": "data",
              "type": "bytes"
            }
          ],
          "internalType": "struct DataTypes.Entitlement",
          "name": "_entitlement",
          "type": "tuple"
        }
      ],
      "name": "removeRoleFromEntitlement",
      "outputs": [],
      "stateMutability": "nonpayable",
      "type": "function"
    },
    {
      "inputs": [],
      "name": "roleCount",
      "outputs": [
        {
          "internalType": "uint256",
          "name": "",
          "type": "uint256"
        }
      ],
      "stateMutability": "view",
      "type": "function"
    },
    {
      "inputs": [
        {
          "internalType": "uint256",
          "name": "",
          "type": "uint256"
        }
      ],
      "name": "rolesById",
      "outputs": [
        {
          "internalType": "uint256",
          "name": "roleId",
          "type": "uint256"
        },
        {
          "internalType": "string",
          "name": "name",
          "type": "string"
        }
      ],
      "stateMutability": "view",
      "type": "function"
    },
    {
      "inputs": [
        {
          "internalType": "string",
          "name": "_channelId",
          "type": "string"
        },
        {
          "internalType": "bool",
          "name": "_disabled",
          "type": "bool"
        }
      ],
      "name": "setChannelAccess",
      "outputs": [],
      "stateMutability": "nonpayable",
      "type": "function"
    },
    {
      "inputs": [
        {
          "internalType": "address",
          "name": "_entitlement",
          "type": "address"
        },
        {
          "internalType": "bool",
          "name": "_whitelist",
          "type": "bool"
        }
      ],
      "name": "setEntitlement",
      "outputs": [],
      "stateMutability": "nonpayable",
      "type": "function"
    },
    {
      "inputs": [
        {
          "internalType": "uint256",
          "name": "_roleId",
          "type": "uint256"
        }
      ],
      "name": "setOwnerRoleId",
      "outputs": [],
      "stateMutability": "nonpayable",
      "type": "function"
    },
    {
      "inputs": [
        {
          "internalType": "bool",
          "name": "_disabled",
          "type": "bool"
        }
      ],
      "name": "setSpaceAccess",
      "outputs": [],
      "stateMutability": "nonpayable",
      "type": "function"
    },
    {
      "inputs": [],
      "name": "token",
      "outputs": [
        {
          "internalType": "address",
          "name": "",
          "type": "address"
        }
      ],
      "stateMutability": "view",
      "type": "function"
    },
    {
      "inputs": [],
      "name": "tokenId",
      "outputs": [
        {
          "internalType": "uint256",
          "name": "",
          "type": "uint256"
        }
      ],
      "stateMutability": "view",
      "type": "function"
    },
    {
      "inputs": [
        {
          "internalType": "string",
          "name": "_channelId",
          "type": "string"
        },
        {
          "internalType": "string",
          "name": "_channelName",
          "type": "string"
        }
      ],
      "name": "updateChannel",
      "outputs": [],
      "stateMutability": "nonpayable",
      "type": "function"
    },
    {
      "inputs": [
        {
          "internalType": "uint256",
          "name": "_roleId",
          "type": "uint256"
        },
        {
          "internalType": "string",
          "name": "_roleName",
          "type": "string"
        }
      ],
      "name": "updateRole",
      "outputs": [],
      "stateMutability": "nonpayable",
      "type": "function"
    },
    {
      "inputs": [
        {
          "internalType": "address",
          "name": "newImplementation",
          "type": "address"
        }
      ],
      "name": "upgradeTo",
      "outputs": [],
      "stateMutability": "nonpayable",
      "type": "function"
    },
    {
      "inputs": [
        {
          "internalType": "address",
          "name": "newImplementation",
          "type": "address"
        },
        {
          "internalType": "bytes",
          "name": "data",
          "type": "bytes"
        }
      ],
      "name": "upgradeToAndCall",
      "outputs": [],
      "stateMutability": "payable",
      "type": "function"
    }
  ],
  "bytecode": {
    "object": "0x60a0604052306080523480156200001557600080fd5b506200002062000026565b620000e7565b600054610100900460ff1615620000935760405162461bcd60e51b815260206004820152602760248201527f496e697469616c697a61626c653a20636f6e747261637420697320696e697469604482015266616c697a696e6760c81b606482015260840160405180910390fd5b60005460ff90811614620000e5576000805460ff191660ff9081179091556040519081527f7f26b83ff96e1f2b6a682f133852f6798a09c465da95921460cefb38474024989060200160405180910390a15b565b6080516146596200011f60003960008181610ce701528181610d300152818161100f0152818161104f01526113f901526146596000f3fe6080604052600436106102515760003560e01c80638da5cb5b11610139578063dba81864116100b6578063f28f9b561161007a578063f28f9b561461072d578063f3b96ab41461074d578063f3ce6a5b1461076d578063f740bb6b1461078d578063fa6433c5146107ad578063fc0c546a146107dd57600080fd5b8063dba818641461068f578063ddf96358146106af578063e5894ef4146106c5578063e5949b5d146106f3578063ee0708051461071357600080fd5b8063b4264233116100fd578063b4264233146105f9578063ba201ba814610619578063baaf3d5714610639578063cea632bc14610659578063d1a6a9611461067957600080fd5b80638da5cb5b1461054a5780638fcd793d146105775780639025e64c1461059757806392691821146105ac578063ac9650d8146105cc57600080fd5b8063487dc38c116101d25780635de151b8116101965780635de151b81461045e57806366fb345c1461047e578063703511f81461049e57806371061398146104cb578063784c872b146104ed5780637f8d06d01461051a57600080fd5b8063487dc38c146103d45780634999ab16146103f65780634f1ef2861461041657806351f83cea1461042957806352d1902d1461044957600080fd5b806332e704cc1161021957806332e704cc1461032757806334a1dd26146103475780633659cfe61461036757806342486e4914610387578063446dc22e146103b457600080fd5b806306fdde0314610256578063129ab3c81461028157806317d70f7c146102b15780631dea616a146102d557806320759f9e146102f7575b600080fd5b34801561026257600080fd5b5061026b6107fd565b60405161027891906135a8565b60405180910390f35b34801561028d57600080fd5b506102a161029c3660046135bb565b61088b565b60405161027894939291906135d4565b3480156102bd57600080fd5b506102c7609c5481565b604051908152602001610278565b3480156102e157600080fd5b506102f56102f0366004613672565b610940565b005b34801561030357600080fd5b506103176103123660046136ce565b610a71565b6040519015158152602001610278565b34801561033357600080fd5b506102f56103423660046137d7565b610ae7565b34801561035357600080fd5b506102f561036236600461381d565b610bfa565b34801561037357600080fd5b506102f5610382366004613885565b610cdd565b34801561039357600080fd5b506103a76103a23660046135bb565b610dc5565b60405161027891906138a2565b3480156103c057600080fd5b506102f56103cf3660046138f4565b610e27565b3480156103e057600080fd5b506103e9610e5f565b6040516102789190613911565b34801561040257600080fd5b506102f56104113660046135bb565b610ec1565b6102f5610424366004613952565b611005565b34801561043557600080fd5b506102c76104443660046139ae565b6110d5565b34801561045557600080fd5b506102c76113ec565b34801561046a57600080fd5b506102f5610479366004613a90565b61149f565b34801561048a57600080fd5b506102f56104993660046137d7565b611565565b3480156104aa57600080fd5b506104be6104b93660046135bb565b6116e0565b6040516102789190613ae6565b3480156104d757600080fd5b506104e06117d8565b6040516102789190613b55565b3480156104f957600080fd5b5061050d6105083660046135bb565b611946565b6040516102789190613bb7565b34801561052657600080fd5b50610317610535366004613885565b609d6020526000908152604090205460ff1681565b34801561055657600080fd5b5061055f611a1c565b6040516001600160a01b039091168152602001610278565b34801561058357600080fd5b506102c7610592366004613ccd565b611a93565b3480156105a357600080fd5b5061026b611d3d565b3480156105b857600080fd5b506102f56105c73660046135bb565b611d4a565b3480156105d857600080fd5b506105ec6105e7366004613db9565b611e81565b6040516102789190613e2d565b34801561060557600080fd5b506103a76106143660046135bb565b611f9f565b34801561062557600080fd5b506102f5610634366004613e82565b611fff565b34801561064557600080fd5b506102f5610654366004613672565b6120d8565b34801561066557600080fd5b50610317610674366004613ebe565b6121d1565b34801561068557600080fd5b506102c7609a5481565b34801561069b57600080fd5b506102f56106aa366004613f42565b612274565b3480156106bb57600080fd5b506102c760a15481565b3480156106d157600080fd5b506106e56106e03660046135bb565b6124d6565b604051610278929190613f8f565b3480156106ff57600080fd5b506102c761070e3660046135bb565b61257b565b34801561071f57600080fd5b506099546103179060ff1681565b34801561073957600080fd5b5061055f6107483660046135bb565b61259c565b34801561075957600080fd5b506102f5610768366004613fa8565b6125c6565b34801561077957600080fd5b506102f5610788366004613fd6565b61269c565b34801561079957600080fd5b506102f56107a83660046137d7565b612881565b3480156107b957600080fd5b506103176107c8366004613885565b609e6020526000908152604090205460ff1681565b3480156107e957600080fd5b50609b5461055f906001600160a01b031681565b6097805461080a906140d5565b80601f0160208091040260200160405190810160405280929190818152602001828054610836906140d5565b80156108835780601f1061085857610100808354040283529160200191610883565b820191906000526020600020905b81548152906001019060200180831161086657829003601f168201915b505050505081565b60a4602052600090815260409020805481906108a6906140d5565b80601f01602080910402602001604051908101604052809291908181526020018280546108d2906140d5565b801561091f5780601f106108f45761010080835404028352916020019161091f565b820191906000526020600020905b81548152906001019060200180831161090257829003601f168201915b50505050600183015460028401546003909401549293909290915060ff1684565b6109a284848080601f0160208091040260200160405190810160405280939291908181526020018383808284376000920191909152505060408051808201909152601681526000805160206145dd83398151915260208201529150612a689050565b6001600160a01b0382166000908152609d602052604090205460ff166109db5760405163c1ef36f360e01b815260040160405180910390fd5b600081815260a260205260408120549003610a095760405163b810dc5d60e01b815260040160405180910390fd5b60405163c513be7760e01b81526001600160a01b0383169063c513be7790610a3990879087908690600401614132565b600060405180830381600087803b158015610a5357600080fd5b505af1158015610a67573d6000803e3d6000fd5b5050505050505050565b6000805b60a054811015610adf57610ac360405180602001604052806000815250868686604051602001610aa6929190614156565b604051602081830303815290604052610abe90614166565b612abc565b15610acd57600191505b80610ad7816141a0565b915050610a75565b509392505050565b610b23604051806020016040528060008152506040518060400160405280601681526020016000805160206145dd833981519152815250612a68565b609a548203610b4557604051631eb49d6d60e11b815260040160405180910390fd5b600082815260a260205260408120549003610b735760405163b810dc5d60e01b815260040160405180910390fd5b8051600003610b9557604051630e52390960e41b815260040160405180910390fd5b600082815260a260205260409020600101610bb082826141ff565b5081336001600160a01b03167ff3c55faf0b13ffa681c984baddbb8ef7638e514188ea19bd6461d7f87b9c7953836098604051610bee92919061433b565b60405180910390a35050565b610c3c604051806020016040528060008152506040518060400160405280601181526020017041646452656d6f76654368616e6e656c7360781b815250612a68565b60008383604051602001610c51929190614156565b60408051601f198184030181529181528151602092830120600081815260a4909352908220600101549092509003610c9c57604051636ddd9da960e01b815260040160405180910390fd5b8151600003610cbe57604051631eb49d6d60e11b815260040160405180910390fd5b600081815260a460205260409020610cd683826141ff565b5050505050565b6001600160a01b037f0000000000000000000000000000000000000000000000000000000000000000163003610d2e5760405162461bcd60e51b8152600401610d2590614360565b60405180910390fd5b7f00000000000000000000000000000000000000000000000000000000000000006001600160a01b0316610d776000805160206145bd833981519152546001600160a01b031690565b6001600160a01b031614610d9d5760405162461bcd60e51b8152600401610d25906143ac565b610da681612b75565b60408051600080825260208201909252610dc291839190612bab565b50565b6000818152609f6020908152604091829020805483518184028101840190945280845260609392830182828015610e1b57602002820191906000526020600020905b815481526020019060010190808311610e07575b50505050509050919050565b610e2f612d1b565b610e4c57604051631eb49d6d60e11b815260040160405180910390fd5b6099805460ff1916911515919091179055565b606060a0805480602002602001604051908101604052809291908181526020018280548015610eb757602002820191906000526020600020905b81546001600160a01b03168152600190910190602001808311610e99575b5050505050905090565b610ec9612d1b565b610ee657604051631eb49d6d60e11b815260040160405180910390fd5b609a5415610f0757604051631eb49d6d60e11b815260040160405180910390fd5b600081815260a260205260408120549003610f355760405163b810dc5d60e01b815260040160405180910390fd5b6000805b600083815260a36020526040902054811015610fe0576040518060400160405280600581526020016427bbb732b960d91b815250604051602001610f7d91906143f8565b604051602081830303815290604052610f9590614166565b600084815260a360205260409020805483908110610fb557610fb5614414565b906000526020600020015403610fce5760019150610fe0565b80610fd8816141a0565b915050610f39565b5080610fff57604051633e74bd6360e21b815260040160405180910390fd5b50609a55565b6001600160a01b037f000000000000000000000000000000000000000000000000000000000000000016300361104d5760405162461bcd60e51b8152600401610d2590614360565b7f00000000000000000000000000000000000000000000000000000000000000006001600160a01b03166110966000805160206145bd833981519152546001600160a01b031690565b6001600160a01b0316146110bc5760405162461bcd60e51b8152600401610d25906143ac565b6110c582612b75565b6110d182826001612bab565b5050565b6000611119604051806020016040528060008152506040518060400160405280601181526020017041646452656d6f76654368616e6e656c7360781b815250612a68565b60008360405160200161112c91906143f8565b60408051601f198184030181529181528151602092830120600081815260a49093529120600101549091501561117557604051630139324b60e41b815260040160405180910390fd5b604080516080810182528681526020808201849052428284015260006060830181905284815260a490915291909120815181906111b290826141ff565b506020820151600182810191909155604083015160028301556060909201516003909101805460ff191691151591909117905560a58054918201815560009081527fb29a2b3b6f2ff1b765777a231725941da5072cc4fcc30ac4a2ce09706e8ddeff9091018290555b60a0548110156113e157600060a0828154811061123a5761123a614414565b600091825260209091200154609a5460405163c513be7760e01b81526001600160a01b039092169250829163c513be779161127a918a919060040161442a565b600060405180830381600087803b15801561129457600080fd5b505af11580156112a8573d6000803e3d6000fd5b5050505060005b85518110156113cc57609a548682815181106112cd576112cd614414565b602002602001015103156113ba5760a260008783815181106112f1576112f1614414565b602002602001015181526020019081526020016000206000015460000361132b5760405163b810dc5d60e01b815260040160405180910390fd5b816001600160a01b031663c513be778888848151811061134d5761134d614414565b60200260200101516040518363ffffffff1660e01b815260040161137292919061442a565b600060405180830381600087803b15801561138c57600080fd5b505af192505050801561139d575060015b6113ba5760405163d9afe50760e01b815260040160405180910390fd5b806113c4816141a0565b9150506112af565b505080806113d9906141a0565b91505061121b565b5090505b9392505050565b6000306001600160a01b037f0000000000000000000000000000000000000000000000000000000000000000161461148c5760405162461bcd60e51b815260206004820152603860248201527f555550535570677261646561626c653a206d757374206e6f742062652063616c60448201527f6c6564207468726f7567682064656c656761746563616c6c00000000000000006064820152608401610d25565b506000805160206145bd83398151915290565b6114e1604051806020016040528060008152506040518060400160405280601181526020017041646452656d6f76654368616e6e656c7360781b815250612a68565b600083836040516020016114f6929190614156565b60408051601f198184030181529181528151602092830120600081815260a490935290822060010154909250900361154157604051636ddd9da960e01b815260040160405180910390fd5b600090815260a460205260409020600301805460ff19169115159190911790555050565b6115a1604051806020016040528060008152506040518060400160405280601681526020016000805160206145dd833981519152815250612a68565b6115c8816040518060400160405280600581526020016427bbb732b960d91b815250612da2565b156115e657604051631eb49d6d60e11b815260040160405180910390fd5b600082815260a2602052604081205490036116145760405163b810dc5d60e01b815260040160405180910390fd5b60008160405160200161162791906143f8565b60405160208183030381529060405261163f90614166565b905060005b600084815260a360205260409020548110156116b857600084815260a36020526040902080548391908390811061167d5761167d614414565b9060005260206000200154036116a657604051636571d65f60e01b815260040160405180910390fd5b806116b0816141a0565b915050611644565b50600092835260a3602090815260408420805460018101825590855293209092019190915550565b604080516080810182526060808252600060208301819052928201839052810191909152600082815260a460205260409081902081516080810190925280548290829061172c906140d5565b80601f0160208091040260200160405190810160405280929190818152602001828054611758906140d5565b80156117a55780601f1061177a576101008083540402835291602001916117a5565b820191906000526020600020905b81548152906001019060200180831161178857829003601f168201915b5050509183525050600182015460208201526002820154604082015260039091015460ff16151560609091015292915050565b6060600060a1546001600160401b038111156117f6576117f6613722565b60405190808252806020026020018201604052801561183c57816020015b6040805180820190915260008152606060208201528152602001906001900390816118145790505b50905060005b60a1548110156119405760a2600061185b83600161444c565b81526020019081526020016000206040518060400160405290816000820154815260200160018201805461188e906140d5565b80601f01602080910402602001604051908101604052809291908181526020018280546118ba906140d5565b80156119075780601f106118dc57610100808354040283529160200191611907565b820191906000526020600020905b8154815290600101906020018083116118ea57829003601f168201915b50505050508152505082828151811061192257611922614414565b60200260200101819052508080611938906141a0565b915050611842565b50919050565b60408051808201909152600081526060602082015260a2600083815260200190815260200160002060405180604001604052908160008201548152602001600182018054611993906140d5565b80601f01602080910402602001604051908101604052809291908181526020018280546119bf906140d5565b8015611a0c5780601f106119e157610100808354040283529160200191611a0c565b820191906000526020600020905b8154815290600101906020018083116119ef57829003601f168201915b5050505050815250509050919050565b609b54609c546040516331a9108f60e11b815260048101919091526000916001600160a01b031690636352211e90602401602060405180830381865afa158015611a6a573d6000803e3d6000fd5b505050506040513d601f19601f82011682018060405250810190611a8e919061445f565b905090565b6000611ad1604051806020016040528060008152506040518060400160405280601681526020016000805160206145dd833981519152815250612a68565b600060a160008154611ae2906141a0565b91829055506040805180820182528281526020808201898152600085815260a2909252929020815181559151929350918291906001820190611b2490826141ff565b5090505060005b8551811015611c1457609a5415158015611b805750611b80868281518110611b5557611b55614414565b60200260200101516040518060400160405280600581526020016427bbb732b960d91b815250612da2565b15611b9e57604051631eb49d6d60e11b815260040160405180910390fd5b6000868281518110611bb257611bb2614414565b6020026020010151604051602001611bca91906143f8565b604051602081830303815290604052611be290614166565b600085815260a36020908152604082208054600181018255908352912001555080611c0c816141a0565b915050611b2b565b5060005b8451811015611cee576000858281518110611c3557611c35614414565b60200260200101516000015190506000868381518110611c5757611c57614414565b602002602001015160200151905060006001600160a01b0316826001600160a01b03161480611c8557508051155b15611c91575050611cdc565b6001600160a01b0382166000908152609d602052604081205460ff1615159003611cce5760405163c1ef36f360e01b815260040160405180910390fd5b611cd9858383612dfc565b50505b80611ce6816141a0565b915050611c18565b5081336001600160a01b03167f39772407c6dd2e83adbd292cdfa17a6817c9a7500e56cfe57b7a82d797f8d39b886098604051611d2c92919061433b565b60405180910390a350949350505050565b6098805461080a906140d5565b611d86604051806020016040528060008152506040518060400160405280601681526020016000805160206145dd833981519152815250612a68565b609a548103611da857604051631eb49d6d60e11b815260040160405180910390fd5b600081815260a260205260408120549003611dd65760405163b810dc5d60e01b815260040160405180910390fd5b6000818152609f602052604090205415611e0357604051633764405360e11b815260040160405180910390fd5b600081815260a26020526040812081815590611e2260018301826134eb565b5050600081815260a360205260408120611e3b91613525565b80336001600160a01b03167f1d5667a301e36f2d5b1ee32b7f187b0adb46c706297242fa945d3fed1e7f8a196098604051611e76919061447c565b60405180910390a350565b6060816001600160401b03811115611e9b57611e9b613722565b604051908082528060200260200182016040528015611ece57816020015b6060815260200190600190039081611eb95790505b50905060005b82811015611f985760008030868685818110611ef257611ef2614414565b9050602002810190611f04919061448f565b604051611f12929190614156565b600060405180830381855af49150503d8060008114611f4d576040519150601f19603f3d011682016040523d82523d6000602084013e611f52565b606091505b509150915081611f6557611f6581612f6c565b80848481518110611f7857611f78614414565b602002602001018190525050508080611f90906141a0565b915050611ed4565b5092915050565b600081815260a36020908152604091829020805483518184028101840190945280845260609392830182828015610e1b5760200282019190600052602060002090815481526020019060010190808311610e075750505050509050919050565b61203b604051806020016040528060008152506040518060400160405280601681526020016000805160206145dd833981519152815250612a68565b80516001600160a01b03166000908152609d602052604090205460ff166120755760405163c1ef36f360e01b815260040160405180910390fd5b600082815260a2602052604081205490036120a35760405163b810dc5d60e01b815260040160405180910390fd5b609a5482036120c557604051631eb49d6d60e11b815260040160405180910390fd5b6110d18282600001518360200151612dfc565b61213a84848080601f0160208091040260200160405190810160405280939291908181526020018383808284376000920191909152505060408051808201909152601681526000805160206145dd83398151915260208201529150612a689050565b6001600160a01b0382166000908152609d602052604090205460ff166121735760405163c1ef36f360e01b815260040160405180910390fd5b600081815260a2602052604081205490036121a15760405163b810dc5d60e01b815260040160405180910390fd5b604051637997c1e760e11b81526001600160a01b0383169063f32f83ce90610a3990879087908690600401614132565b60008481036121f357604051630e52390960e41b815260040160405180910390fd5b60005b60a05481101561226a5761224e87878080601f01602080910402602001604051908101604052809392919081815260200183838082843760009201919091525050604051899250610aa6915088908890602001614156565b1561225857600191505b80612262816141a0565b9150506121f6565b5095945050505050565b6122b0604051806020016040528060008152506040518060400160405280601681526020016000805160206145dd833981519152815250612a68565b609a5482036122d257604051631eb49d6d60e11b815260040160405180910390fd5b609d60006122e36020840184613885565b6001600160a01b0316815260208101919091526040016000205460ff1661231d5760405163c1ef36f360e01b815260040160405180910390fd5b600082815260a26020526040812054900361234b5760405163b810dc5d60e01b815260040160405180910390fd5b60008261235b602084018461448f565b60405160200161236d939291906144d5565b60408051601f1981840301815291815281516020928301206000868152609f909352908220909250905b815481101561244b578181815481106123b2576123b2614414565b9060005260206000200154830361243957815482906123d3906001906144ef565b815481106123e3576123e3614414565b906000526020600020015482828154811061240057612400614414565b90600052602060002001819055508180548061241e5761241e614502565b6001900381819060005260206000200160009055905561244b565b80612443816141a0565b915050612397565b506124596020840184613885565b6001600160a01b031663fa6d1adf85612475602087018761448f565b6040518463ffffffff1660e01b815260040161249393929190614518565b6020604051808303816000875af11580156124b2573d6000803e3d6000fd5b505050506040513d601f19601f82011682018060405250810190610cd69190614532565b60a260205260009081526040902080546001820180549192916124f8906140d5565b80601f0160208091040260200160405190810160405280929190818152602001828054612524906140d5565b80156125715780601f1061254657610100808354040283529160200191612571565b820191906000526020600020905b81548152906001019060200180831161255457829003601f168201915b5050505050905082565b60a5818154811061258b57600080fd5b600091825260209091200154905081565b60a081815481106125ac57600080fd5b6000918252602090912001546001600160a01b0316905081565b612602604051806020016040528060008152506040518060400160405280601681526020016000805160206145dd833981519152815250612a68565b61260b82613039565b80801561263057506001600160a01b0382166000908152609d602052604090205460ff165b1561264e5760405163186abc9b60e01b815260040160405180910390fd5b8015801561267457506001600160a01b0382166000908152609e602052604090205460ff165b1561269257604051631eb49d6d60e11b815260040160405180910390fd5b6110d182826130ca565b600054610100900460ff16158080156126bc5750600054600160ff909116105b806126d65750303b1580156126d6575060005460ff166001145b6127395760405162461bcd60e51b815260206004820152602e60248201527f496e697469616c697a61626c653a20636f6e747261637420697320616c72656160448201526d191e481a5b9a5d1a585b1a5e995960921b6064820152608401610d25565b6000805460ff19166001179055801561275c576000805461ff0019166101001790555b61276461324b565b61276c61324b565b609761277887826141ff565b50609861278586826141ff565b50609b80546001600160a01b0319166001600160a01b038516179055609c82905560005b8451811015612832576127d68582815181106127c7576127c7614414565b602002602001015160016130ca565b6001609e60008784815181106127ee576127ee614414565b6020908102919091018101516001600160a01b03168252810191909152604001600020805460ff19169115159190911790558061282a816141a0565b9150506127a9565b508015612879576000805461ff0019169055604051600181527f7f26b83ff96e1f2b6a682f133852f6798a09c465da95921460cefb38474024989060200160405180910390a15b505050505050565b6128bd604051806020016040528060008152506040518060400160405280601681526020016000805160206145dd833981519152815250612a68565b6128e4816040518060400160405280600581526020016427bbb732b960d91b815250612da2565b1561290257604051631eb49d6d60e11b815260040160405180910390fd5b600082815260a2602052604081205490036129305760405163b810dc5d60e01b815260040160405180910390fd5b60008160405160200161294391906143f8565b60405160208183030381529060405261295b90614166565b905060005b600084815260a36020526040902054811015612a6257600084815260a36020526040902080548391908390811061299957612999614414565b906000526020600020015403612a5057600084815260a36020526040902080546129c5906001906144ef565b815481106129d5576129d5614414565b906000526020600020015460a360008681526020019081526020016000208281548110612a0457612a04614414565b906000526020600020018190555060a36000858152602001908152602001600020805480612a3457612a34614502565b6001900381819060005260206000200160009055905550505050565b80612a5a816141a0565b915050612960565b50505050565b612a70612d1b565b80612a9a575060995460ff16158015612a9a5750612a9a823383604051602001610aa691906143f8565b15612aa3575050565b604051631eb49d6d60e11b815260040160405180910390fd5b6000805b60a054811015610adf5760a08181548110612add57612add614414565b60009182526020909120015460405162169d5560e31b81526001600160a01b039091169062b4eaa890612b189088908890889060040161454b565b602060405180830381865afa158015612b35573d6000803e3d6000fd5b505050506040513d601f19601f82011682018060405250810190612b599190614579565b15612b6357600191505b80612b6d816141a0565b915050612ac0565b610dc2604051806020016040528060008152506040518060400160405280600581526020016427bbb732b960d91b815250612a68565b7f4910fdfa16fed3260ed0e7147f7cc6da11a60208b5b9406d12a635614ffd91435460ff1615612be357612bde836132b8565b505050565b826001600160a01b03166352d1902d6040518163ffffffff1660e01b8152600401602060405180830381865afa925050508015612c3d575060408051601f3d908101601f19168201909252612c3a91810190614532565b60015b612ca05760405162461bcd60e51b815260206004820152602e60248201527f45524331393637557067726164653a206e657720696d706c656d656e7461746960448201526d6f6e206973206e6f74205555505360901b6064820152608401610d25565b6000805160206145bd8339815191528114612d0f5760405162461bcd60e51b815260206004820152602960248201527f45524331393637557067726164653a20756e737570706f727465642070726f786044820152681a58589b195555525160ba1b6064820152608401610d25565b50612bde838383613354565b600033609b54609c546040516331a9108f60e11b815260048101919091526001600160a01b039283169290911690636352211e90602401602060405180830381865afa158015612d6f573d6000803e3d6000fd5b505050506040513d601f19601f82011682018060405250810190612d93919061445f565b6001600160a01b031614905090565b600081604051602001612db591906143f8565b6040516020818303038152906040528051906020012083604051602001612ddc91906143f8565b604051602081830303815290604052805190602001201490505b92915050565b60008382604051602001612e11929190614596565b60408051601f1981840301815282825280516020918201206000888152609f835283812080548085028701850190955284865291955093929091830182828015612e7a57602002820191906000526020600020905b815481526020019060010190808311612e66575b5050505050905060005b8151811015612ed85782828281518110612ea057612ea0614414565b602002602001015103612ec65760405163c5c9ad6760e01b815260040160405180910390fd5b80612ed0816141a0565b915050612e84565b506000858152609f602090815260408083208054600181018255908452919092200183905551633be2f95d60e21b81526001600160a01b0385169063ef8be57490612f299088908790600401613f8f565b6020604051808303816000875af1158015612f48573d6000803e3d6000fd5b505050506040513d601f19601f820116820180604052508101906128799190614532565b600481511015612fb15760405162461bcd60e51b815260206004820152601060248201526f1d5b9a185b991b1959081c995d995c9d60821b6044820152606401610d25565b602081015163b1b7848f60e01b6001600160e01b031982160161303057604080518082018252600e81526d70616e69636b65643a2030785f5f60901b602082018181526024860151600481811c600f908116603090810160081b9184160117909317909152925162461bcd60e51b8152919291610d25918491016135a8565b81518060208401fd5b6040516301ffc9a760e01b8152630511738b60e31b60048201526001600160a01b038216906301ffc9a790602401602060405180830381865afa158015613084573d6000803e3d6000fd5b505050506040513d601f19601f820116820180604052508101906130a89190614579565b1515600003610dc257604051636d9250f160e11b815260040160405180910390fd5b6001600160a01b0382166000908152609d60205260409020805460ff191682158015919091179091556131485760a080546001810182556000919091527f78fdc8d422c49ced035a9edf18d00d3c6a8d81df210f3e5e448e045e77b41e880180546001600160a01b0384166001600160a01b03199091161790555050565b60005b60a054811015612bde5760a0818154811061316857613168614414565b6000918252602090912001546001600160a01b03908116908416036132395760a08054613197906001906144ef565b815481106131a7576131a7614414565b60009182526020909120015460a080546001600160a01b0390921691839081106131d3576131d3614414565b9060005260206000200160006101000a8154816001600160a01b0302191690836001600160a01b0316021790555060a080548061321257613212614502565b600082815260209020810160001990810180546001600160a01b0319169055019055505050565b80613243816141a0565b91505061314b565b600054610100900460ff166132b65760405162461bcd60e51b815260206004820152602b60248201527f496e697469616c697a61626c653a20636f6e7472616374206973206e6f74206960448201526a6e697469616c697a696e6760a81b6064820152608401610d25565b565b6001600160a01b0381163b6133255760405162461bcd60e51b815260206004820152602d60248201527f455243313936373a206e657720696d706c656d656e746174696f6e206973206e60448201526c1bdd08184818dbdb9d1c9858dd609a1b6064820152608401610d25565b6000805160206145bd83398151915280546001600160a01b0319166001600160a01b0392909216919091179055565b61335d83613379565b60008251118061336a5750805b15612bde57612a6283836133b9565b613382816132b8565b6040516001600160a01b038216907fbc7cd75a20ee27fd9adebab32041f755214dbc6bffa90cc0225b39da2e5c2d3b90600090a250565b60606001600160a01b0383163b6134215760405162461bcd60e51b815260206004820152602660248201527f416464726573733a2064656c65676174652063616c6c20746f206e6f6e2d636f6044820152651b9d1c9858dd60d21b6064820152608401610d25565b600080846001600160a01b03168460405161343c91906143f8565b600060405180830381855af49150503d8060008114613477576040519150601f19603f3d011682016040523d82523d6000602084013e61347c565b606091505b50915091506134a482826040518060600160405280602781526020016145fd602791396134ad565b95945050505050565b606083156134bc5750816113e5565b6113e583838151156134d15781518083602001fd5b8060405162461bcd60e51b8152600401610d2591906135a8565b5080546134f7906140d5565b6000825580601f10613507575050565b601f016020900490600052602060002090810190610dc2919061353f565b5080546000825590600052602060002090810190610dc291905b5b808211156135545760008155600101613540565b5090565b60005b8381101561357357818101518382015260200161355b565b50506000910152565b60008151808452613594816020860160208601613558565b601f01601f19169290920160200192915050565b6020815260006113e5602083018461357c565b6000602082840312156135cd57600080fd5b5035919050565b6080815260006135e7608083018761357c565b60208301959095525060408101929092521515606090910152919050565b60008083601f84011261361757600080fd5b5081356001600160401b0381111561362e57600080fd5b60208301915083602082850101111561364657600080fd5b9250929050565b6001600160a01b0381168114610dc257600080fd5b803561366d8161364d565b919050565b6000806000806060858703121561368857600080fd5b84356001600160401b0381111561369e57600080fd5b6136aa87828801613605565b90955093505060208501356136be8161364d565b9396929550929360400135925050565b6000806000604084860312156136e357600080fd5b83356136ee8161364d565b925060208401356001600160401b0381111561370957600080fd5b61371586828701613605565b9497909650939450505050565b634e487b7160e01b600052604160045260246000fd5b604051601f8201601f191681016001600160401b038111828210171561376057613760613722565b604052919050565b600082601f83011261377957600080fd5b81356001600160401b0381111561379257613792613722565b6137a5601f8201601f1916602001613738565b8181528460208386010111156137ba57600080fd5b816020850160208301376000918101602001919091529392505050565b600080604083850312156137ea57600080fd5b8235915060208301356001600160401b0381111561380757600080fd5b61381385828601613768565b9150509250929050565b60008060006040848603121561383257600080fd5b83356001600160401b038082111561384957600080fd5b61385587838801613605565b9095509350602086013591508082111561386e57600080fd5b5061387b86828701613768565b9150509250925092565b60006020828403121561389757600080fd5b81356113e58161364d565b6020808252825182820181905260009190848201906040850190845b818110156138da578351835292840192918401916001016138be565b50909695505050505050565b8015158114610dc257600080fd5b60006020828403121561390657600080fd5b81356113e5816138e6565b6020808252825182820181905260009190848201906040850190845b818110156138da5783516001600160a01b03168352928401929184019160010161392d565b6000806040838503121561396557600080fd5b82356139708161364d565b915060208301356001600160401b0381111561380757600080fd5b60006001600160401b038211156139a4576139a4613722565b5060051b60200190565b6000806000606084860312156139c357600080fd5b83356001600160401b03808211156139da57600080fd5b6139e687838801613768565b94506020915081860135818111156139fd57600080fd5b613a0988828901613768565b945050604086013581811115613a1e57600080fd5b86019050601f81018713613a3157600080fd5b8035613a44613a3f8261398b565b613738565b81815260059190911b82018301908381019089831115613a6357600080fd5b928401925b82841015613a8157833582529284019290840190613a68565b80955050505050509250925092565b600080600060408486031215613aa557600080fd5b83356001600160401b03811115613abb57600080fd5b613ac786828701613605565b9094509250506020840135613adb816138e6565b809150509250925092565b602081526000825160806020840152613b0260a084018261357c565b905060208401516040840152604084015160608401526060840151151560808401528091505092915050565b805182526000602082015160406020850152613b4d604085018261357c565b949350505050565b6000602080830181845280855180835260408601915060408160051b870101925083870160005b82811015613baa57603f19888603018452613b98858351613b2e565b94509285019290850190600101613b7c565b5092979650505050505050565b6020815260006113e56020830184613b2e565b600060408284031215613bdc57600080fd5b604051604081016001600160401b038282108183111715613bff57613bff613722565b8160405282935084359150613c138261364d565b90825260208401359080821115613c2957600080fd5b50613c3685828601613768565b6020830152505092915050565b600082601f830112613c5457600080fd5b81356020613c64613a3f8361398b565b82815260059290921b84018101918181019086841115613c8357600080fd5b8286015b84811015613cc25780356001600160401b03811115613ca65760008081fd5b613cb48986838b0101613bca565b845250918301918301613c87565b509695505050505050565b600080600060608486031215613ce257600080fd5b83356001600160401b0380821115613cf957600080fd5b613d0587838801613768565b9450602091508186013581811115613d1c57600080fd5b8601601f81018813613d2d57600080fd5b8035613d3b613a3f8261398b565b81815260059190911b8201840190848101908a831115613d5a57600080fd5b8584015b83811015613d9257803586811115613d765760008081fd5b613d848d8983890101613768565b845250918601918601613d5e565b5096505050506040860135915080821115613dac57600080fd5b5061387b86828701613c43565b60008060208385031215613dcc57600080fd5b82356001600160401b0380821115613de357600080fd5b818501915085601f830112613df757600080fd5b813581811115613e0657600080fd5b8660208260051b8501011115613e1b57600080fd5b60209290920196919550909350505050565b6000602080830181845280855180835260408601915060408160051b870101925083870160005b82811015613baa57603f19888603018452613e7085835161357c565b94509285019290850190600101613e54565b60008060408385031215613e9557600080fd5b8235915060208301356001600160401b03811115613eb257600080fd5b61381385828601613bca565b600080600080600060608688031215613ed657600080fd5b85356001600160401b0380821115613eed57600080fd5b613ef989838a01613605565b909750955060208801359150613f0e8261364d565b90935060408701359080821115613f2457600080fd5b50613f3188828901613605565b969995985093965092949392505050565b60008060408385031215613f5557600080fd5b8235915060208301356001600160401b03811115613f7257600080fd5b830160408186031215613f8457600080fd5b809150509250929050565b828152604060208201526000613b4d604083018461357c565b60008060408385031215613fbb57600080fd5b8235613fc68161364d565b91506020830135613f84816138e6565b600080600080600060a08688031215613fee57600080fd5b85356001600160401b038082111561400557600080fd5b61401189838a01613768565b965060209150818801358181111561402857600080fd5b6140348a828b01613768565b96505060408801358181111561404957600080fd5b88019050601f8101891361405c57600080fd5b803561406a613a3f8261398b565b81815260059190911b8201830190838101908b83111561408957600080fd5b928401925b828410156140b05783356140a18161364d565b8252928401929084019061408e565b80975050505050506140c460608701613662565b949793965091946080013592915050565b600181811c908216806140e957607f821691505b60208210810361194057634e487b7160e01b600052602260045260246000fd5b81835281816020850137506000828201602090810191909152601f909101601f19169091010190565b604081526000614146604083018587614109565b9050826020830152949350505050565b8183823760009101908152919050565b805160208083015191908110156119405760001960209190910360031b1b16919050565b634e487b7160e01b600052601160045260246000fd5b6000600182016141b2576141b261418a565b5060010190565b601f821115612bde57600081815260208120601f850160051c810160208610156141e05750805b601f850160051c820191505b81811015612879578281556001016141ec565b81516001600160401b0381111561421857614218613722565b61422c8161422684546140d5565b846141b9565b602080601f83116001811461426157600084156142495750858301515b600019600386901b1c1916600185901b178555612879565b600085815260208120601f198616915b8281101561429057888601518255948401946001909101908401614271565b50858210156142ae5787850151600019600388901b60f8161c191681555b5050505050600190811b01905550565b600081546142cb816140d5565b8085526020600183811680156142e8576001811461430257614330565b60ff1985168884015283151560051b880183019550614330565b866000528260002060005b858110156143285781548a820186015290830190840161430d565b890184019650505b505050505092915050565b60408152600061434e604083018561357c565b82810360208401526134a481856142be565b6020808252602c908201527f46756e6374696f6e206d7573742062652063616c6c6564207468726f7567682060408201526b19195b1959d85d1958d85b1b60a21b606082015260800190565b6020808252602c908201527f46756e6374696f6e206d7573742062652063616c6c6564207468726f7567682060408201526b6163746976652070726f787960a01b606082015260800190565b6000825161440a818460208701613558565b9190910192915050565b634e487b7160e01b600052603260045260246000fd5b60408152600061443d604083018561357c565b90508260208301529392505050565b80820180821115612df657612df661418a565b60006020828403121561447157600080fd5b81516113e58161364d565b6020815260006113e560208301846142be565b6000808335601e198436030181126144a657600080fd5b8301803591506001600160401b038211156144c057600080fd5b60200191503681900382131561364657600080fd5b838152818360208301376000910160200190815292915050565b81810381811115612df657612df661418a565b634e487b7160e01b600052603160045260246000fd5b8381526040602082015260006134a4604083018486614109565b60006020828403121561454457600080fd5b5051919050565b60608152600061455e606083018661357c565b6001600160a01b039490941660208301525060400152919050565b60006020828403121561458b57600080fd5b81516113e5816138e6565b828152600082516145ae816020850160208701613558565b91909101602001939250505056fe360894a13ba1a3210667c828492db98dca3e2076cc3735a920a3ca505d382bbc4d6f6469667953706163655065726d697373696f6e7300000000000000000000416464726573733a206c6f772d6c6576656c2064656c65676174652063616c6c206661696c6564a2646970667358221220722c3da890bc2578b98c71574b396e6efb5f73001d5d49d3bada9cab508cd20164736f6c63430008110033",
    "linkReferences": {}
  },
  "methodIdentifiers": {
    "addPermissionToRole(uint256,string)": "66fb345c",
    "addRoleToChannel(string,address,uint256)": "1dea616a",
    "addRoleToEntitlement(uint256,(address,bytes))": "ba201ba8",
    "channels(uint256)": "e5949b5d",
    "channelsByHash(bytes32)": "129ab3c8",
    "createChannel(string,string,uint256[])": "51f83cea",
    "createRole(string,string[],(address,bytes)[])": "8fcd793d",
    "defaultEntitlements(address)": "fa6433c5",
    "disabled()": "ee070805",
    "entitlements(uint256)": "f28f9b56",
    "getChannelByHash(bytes32)": "703511f8",
    "getEntitlementIdsByRoleId(uint256)": "42486e49",
    "getEntitlements()": "487dc38c",
    "getPermissionsByRoleId(uint256)": "b4264233",
    "getRoleById(uint256)": "784c872b",
    "getRoles()": "71061398",
    "hasEntitlement(address)": "7f8d06d0",
    "initialize(string,string,address[],address,uint256)": "f3ce6a5b",
    "isEntitledToChannel(string,address,string)": "cea632bc",
    "isEntitledToSpace(address,string)": "20759f9e",
    "multicall(bytes[])": "ac9650d8",
    "name()": "06fdde03",
    "networkId()": "9025e64c",
    "owner()": "8da5cb5b",
    "ownerRoleId()": "d1a6a961",
    "proxiableUUID()": "52d1902d",
    "removePermissionFromRole(uint256,string)": "f740bb6b",
    "removeRole(uint256)": "92691821",
    "removeRoleFromChannel(string,address,uint256)": "baaf3d57",
    "removeRoleFromEntitlement(uint256,(address,bytes))": "dba81864",
    "roleCount()": "ddf96358",
    "rolesById(uint256)": "e5894ef4",
    "setChannelAccess(string,bool)": "5de151b8",
    "setEntitlement(address,bool)": "f3b96ab4",
    "setOwnerRoleId(uint256)": "4999ab16",
    "setSpaceAccess(bool)": "446dc22e",
    "token()": "fc0c546a",
    "tokenId()": "17d70f7c",
    "updateChannel(string,string)": "34a1dd26",
    "updateRole(uint256,string)": "32e704cc",
    "upgradeTo(address)": "3659cfe6",
    "upgradeToAndCall(address,bytes)": "4f1ef286"
  },
  "id": 13
}