{
  "abi": [
    {
      "inputs": [],
      "stateMutability": "nonpayable",
      "type": "constructor"
    },
    {
      "inputs": [],
      "name": "AddRoleFailed",
      "type": "error"
    },
    {
      "inputs": [],
      "name": "ChannelAlreadyRegistered",
      "type": "error"
    },
    {
      "inputs": [],
      "name": "ChannelDoesNotExist",
      "type": "error"
    },
    {
      "inputs": [],
      "name": "EntitlementAlreadyExists",
      "type": "error"
    },
    {
      "inputs": [],
      "name": "EntitlementAlreadyWhitelisted",
      "type": "error"
    },
    {
      "inputs": [],
      "name": "EntitlementModuleNotSupported",
      "type": "error"
    },
    {
      "inputs": [],
      "name": "EntitlementNotWhitelisted",
      "type": "error"
    },
    {
      "inputs": [],
      "name": "InvalidParameters",
      "type": "error"
    },
    {
      "inputs": [],
      "name": "MissingOwnerPermission",
      "type": "error"
    },
    {
      "inputs": [],
      "name": "NameContainsInvalidCharacters",
      "type": "error"
    },
    {
      "inputs": [],
      "name": "NameLengthInvalid",
      "type": "error"
    },
    {
      "inputs": [],
      "name": "NotAllowed",
      "type": "error"
    },
    {
      "inputs": [],
      "name": "PermissionAlreadyExists",
      "type": "error"
    },
    {
      "inputs": [],
      "name": "RoleDoesNotExist",
      "type": "error"
    },
    {
      "inputs": [],
      "name": "RoleIsAssignedToEntitlement",
      "type": "error"
    },
    {
      "anonymous": false,
      "inputs": [
        {
          "indexed": false,
          "internalType": "address",
          "name": "previousAdmin",
          "type": "address"
        },
        {
          "indexed": false,
          "internalType": "address",
          "name": "newAdmin",
          "type": "address"
        }
      ],
      "name": "AdminChanged",
      "type": "event"
    },
    {
      "anonymous": false,
      "inputs": [
        {
          "indexed": true,
          "internalType": "address",
          "name": "beacon",
          "type": "address"
        }
      ],
      "name": "BeaconUpgraded",
      "type": "event"
    },
    {
      "anonymous": false,
      "inputs": [
        {
          "indexed": false,
          "internalType": "uint8",
          "name": "version",
          "type": "uint8"
        }
      ],
      "name": "Initialized",
      "type": "event"
    },
    {
      "anonymous": false,
      "inputs": [
        {
          "indexed": true,
          "internalType": "address",
          "name": "implementation",
          "type": "address"
        }
      ],
      "name": "Upgraded",
      "type": "event"
    },
    {
      "inputs": [
        {
          "internalType": "uint256",
          "name": "_roleId",
          "type": "uint256"
        },
        {
          "internalType": "string",
          "name": "_permission",
          "type": "string"
        }
      ],
      "name": "addPermissionToRole",
      "outputs": [],
      "stateMutability": "nonpayable",
      "type": "function"
    },
    {
      "inputs": [
        {
          "internalType": "string",
          "name": "_channelNetworkId",
          "type": "string"
        },
        {
          "internalType": "address",
          "name": "_entitlement",
          "type": "address"
        },
        {
          "internalType": "uint256",
          "name": "_roleId",
          "type": "uint256"
        }
      ],
      "name": "addRoleToChannel",
      "outputs": [],
      "stateMutability": "nonpayable",
      "type": "function"
    },
    {
      "inputs": [
        {
          "internalType": "uint256",
          "name": "_roleId",
          "type": "uint256"
        },
        {
          "components": [
            {
              "internalType": "address",
              "name": "module",
              "type": "address"
            },
            {
              "internalType": "bytes",
              "name": "data",
              "type": "bytes"
            }
          ],
          "internalType": "struct DataTypes.Entitlement",
          "name": "_entitlement",
          "type": "tuple"
        }
      ],
      "name": "addRoleToEntitlement",
      "outputs": [],
      "stateMutability": "nonpayable",
      "type": "function"
    },
    {
      "inputs": [
        {
          "internalType": "uint256",
          "name": "",
          "type": "uint256"
        }
      ],
      "name": "channels",
      "outputs": [
        {
          "internalType": "bytes32",
          "name": "",
          "type": "bytes32"
        }
      ],
      "stateMutability": "view",
      "type": "function"
    },
    {
      "inputs": [
        {
          "internalType": "bytes32",
          "name": "",
          "type": "bytes32"
        }
      ],
      "name": "channelsByHash",
      "outputs": [
        {
          "internalType": "string",
          "name": "name",
          "type": "string"
        },
        {
          "internalType": "bytes32",
          "name": "channelHash",
          "type": "bytes32"
        },
        {
          "internalType": "uint256",
          "name": "createdAt",
          "type": "uint256"
        },
        {
          "internalType": "bool",
          "name": "disabled",
          "type": "bool"
        }
      ],
      "stateMutability": "view",
      "type": "function"
    },
    {
      "inputs": [
        {
          "internalType": "string",
          "name": "channelName",
          "type": "string"
        },
        {
          "internalType": "string",
          "name": "channelNetworkId",
          "type": "string"
        },
        {
          "internalType": "uint256[]",
          "name": "roleIds",
          "type": "uint256[]"
        }
      ],
      "name": "createChannel",
      "outputs": [
        {
          "internalType": "bytes32",
          "name": "",
          "type": "bytes32"
        }
      ],
      "stateMutability": "nonpayable",
      "type": "function"
    },
    {
      "inputs": [
        {
          "internalType": "string",
          "name": "_roleName",
          "type": "string"
        },
        {
          "internalType": "string[]",
          "name": "_permissions",
          "type": "string[]"
        },
        {
          "components": [
            {
              "internalType": "address",
              "name": "module",
              "type": "address"
            },
            {
              "internalType": "bytes",
              "name": "data",
              "type": "bytes"
            }
          ],
          "internalType": "struct DataTypes.Entitlement[]",
          "name": "_entitlements",
          "type": "tuple[]"
        }
      ],
      "name": "createRole",
      "outputs": [
        {
          "internalType": "uint256",
          "name": "",
          "type": "uint256"
        }
      ],
      "stateMutability": "nonpayable",
      "type": "function"
    },
    {
      "inputs": [
        {
          "internalType": "address",
          "name": "",
          "type": "address"
        }
      ],
      "name": "defaultEntitlements",
      "outputs": [
        {
          "internalType": "bool",
          "name": "",
          "type": "bool"
        }
      ],
      "stateMutability": "view",
      "type": "function"
    },
    {
      "inputs": [],
      "name": "disabled",
      "outputs": [
        {
          "internalType": "bool",
          "name": "",
          "type": "bool"
        }
      ],
      "stateMutability": "view",
      "type": "function"
    },
    {
      "inputs": [
        {
          "internalType": "uint256",
          "name": "",
          "type": "uint256"
        }
      ],
      "name": "entitlements",
      "outputs": [
        {
          "internalType": "address",
          "name": "",
          "type": "address"
        }
      ],
      "stateMutability": "view",
      "type": "function"
    },
    {
      "inputs": [
        {
          "internalType": "bytes32",
          "name": "_channelHash",
          "type": "bytes32"
        }
      ],
      "name": "getChannelByHash",
      "outputs": [
        {
          "components": [
            {
              "internalType": "string",
              "name": "name",
              "type": "string"
            },
            {
              "internalType": "bytes32",
              "name": "channelHash",
              "type": "bytes32"
            },
            {
              "internalType": "uint256",
              "name": "createdAt",
              "type": "uint256"
            },
            {
              "internalType": "bool",
              "name": "disabled",
              "type": "bool"
            }
          ],
          "internalType": "struct DataTypes.Channel",
          "name": "",
          "type": "tuple"
        }
      ],
      "stateMutability": "view",
      "type": "function"
    },
    {
      "inputs": [],
      "name": "getChannels",
      "outputs": [
        {
          "internalType": "bytes32[]",
          "name": "",
          "type": "bytes32[]"
        }
      ],
      "stateMutability": "view",
      "type": "function"
    },
    {
      "inputs": [
        {
          "internalType": "string",
          "name": "_moduleType",
          "type": "string"
        }
      ],
      "name": "getEntitlementByModuleType",
      "outputs": [
        {
          "internalType": "address",
          "name": "",
          "type": "address"
        }
      ],
      "stateMutability": "view",
      "type": "function"
    },
    {
      "inputs": [
        {
          "internalType": "uint256",
          "name": "_roleId",
          "type": "uint256"
        }
      ],
      "name": "getEntitlementIdsByRoleId",
      "outputs": [
        {
          "internalType": "bytes32[]",
          "name": "",
          "type": "bytes32[]"
        }
      ],
      "stateMutability": "view",
      "type": "function"
    },
    {
      "inputs": [],
      "name": "getEntitlements",
      "outputs": [
        {
          "internalType": "address[]",
          "name": "",
          "type": "address[]"
        }
      ],
      "stateMutability": "view",
      "type": "function"
    },
    {
      "inputs": [
        {
          "internalType": "uint256",
          "name": "_roleId",
          "type": "uint256"
        }
      ],
      "name": "getPermissionsByRoleId",
      "outputs": [
        {
          "internalType": "bytes32[]",
          "name": "",
          "type": "bytes32[]"
        }
      ],
      "stateMutability": "view",
      "type": "function"
    },
    {
      "inputs": [
        {
          "internalType": "uint256",
          "name": "_roleId",
          "type": "uint256"
        }
      ],
      "name": "getRoleById",
      "outputs": [
        {
          "components": [
            {
              "internalType": "uint256",
              "name": "roleId",
              "type": "uint256"
            },
            {
              "internalType": "string",
              "name": "name",
              "type": "string"
            }
          ],
          "internalType": "struct DataTypes.Role",
          "name": "",
          "type": "tuple"
        }
      ],
      "stateMutability": "view",
      "type": "function"
    },
    {
      "inputs": [],
      "name": "getRoles",
      "outputs": [
        {
          "components": [
            {
              "internalType": "uint256",
              "name": "roleId",
              "type": "uint256"
            },
            {
              "internalType": "string",
              "name": "name",
              "type": "string"
            }
          ],
          "internalType": "struct DataTypes.Role[]",
          "name": "",
          "type": "tuple[]"
        }
      ],
      "stateMutability": "view",
      "type": "function"
    },
    {
      "inputs": [
        {
          "internalType": "address",
          "name": "",
          "type": "address"
        }
      ],
      "name": "hasEntitlement",
      "outputs": [
        {
          "internalType": "bool",
          "name": "",
          "type": "bool"
        }
      ],
      "stateMutability": "view",
      "type": "function"
    },
    {
      "inputs": [
        {
          "internalType": "string",
          "name": "_name",
          "type": "string"
        },
        {
          "internalType": "string",
          "name": "_networkId",
          "type": "string"
        },
        {
          "internalType": "address[]",
          "name": "_entitlements",
          "type": "address[]"
        },
        {
          "internalType": "address",
          "name": "_token",
          "type": "address"
        },
        {
          "internalType": "uint256",
          "name": "_tokenId",
          "type": "uint256"
        }
      ],
      "name": "initialize",
      "outputs": [],
      "stateMutability": "nonpayable",
      "type": "function"
    },
    {
      "inputs": [
        {
          "internalType": "string",
          "name": "_channelNetworkId",
          "type": "string"
        },
        {
          "internalType": "address",
          "name": "_user",
          "type": "address"
        },
        {
          "internalType": "string",
          "name": "_permission",
          "type": "string"
        }
      ],
      "name": "isEntitledToChannel",
      "outputs": [
        {
          "internalType": "bool",
          "name": "_entitled",
          "type": "bool"
        }
      ],
      "stateMutability": "view",
      "type": "function"
    },
    {
      "inputs": [
        {
          "internalType": "address",
          "name": "_user",
          "type": "address"
        },
        {
          "internalType": "string",
          "name": "_permission",
          "type": "string"
        }
      ],
      "name": "isEntitledToSpace",
      "outputs": [
        {
          "internalType": "bool",
          "name": "_entitled",
          "type": "bool"
        }
      ],
      "stateMutability": "view",
      "type": "function"
    },
    {
      "inputs": [
        {
          "internalType": "bytes[]",
          "name": "data",
          "type": "bytes[]"
        }
      ],
      "name": "multicall",
      "outputs": [
        {
          "internalType": "bytes[]",
          "name": "results",
          "type": "bytes[]"
        }
      ],
      "stateMutability": "nonpayable",
      "type": "function"
    },
    {
      "inputs": [],
      "name": "name",
      "outputs": [
        {
          "internalType": "string",
          "name": "",
          "type": "string"
        }
      ],
      "stateMutability": "view",
      "type": "function"
    },
    {
      "inputs": [],
      "name": "networkId",
      "outputs": [
        {
          "internalType": "string",
          "name": "",
          "type": "string"
        }
      ],
      "stateMutability": "view",
      "type": "function"
    },
    {
      "inputs": [],
      "name": "owner",
      "outputs": [
        {
          "internalType": "address",
          "name": "",
          "type": "address"
        }
      ],
      "stateMutability": "view",
      "type": "function"
    },
    {
      "inputs": [],
      "name": "ownerRoleId",
      "outputs": [
        {
          "internalType": "uint256",
          "name": "",
          "type": "uint256"
        }
      ],
      "stateMutability": "view",
      "type": "function"
    },
    {
      "inputs": [],
      "name": "proxiableUUID",
      "outputs": [
        {
          "internalType": "bytes32",
          "name": "",
          "type": "bytes32"
        }
      ],
      "stateMutability": "view",
      "type": "function"
    },
    {
      "inputs": [
        {
          "internalType": "uint256",
          "name": "_roleId",
          "type": "uint256"
        },
        {
          "internalType": "string",
          "name": "_permission",
          "type": "string"
        }
      ],
      "name": "removePermissionFromRole",
      "outputs": [],
      "stateMutability": "nonpayable",
      "type": "function"
    },
    {
      "inputs": [
        {
          "internalType": "uint256",
          "name": "_roleId",
          "type": "uint256"
        }
      ],
      "name": "removeRole",
      "outputs": [],
      "stateMutability": "nonpayable",
      "type": "function"
    },
    {
      "inputs": [
        {
          "internalType": "string",
          "name": "_channelNetworkId",
          "type": "string"
        },
        {
          "internalType": "address",
          "name": "_entitlement",
          "type": "address"
        },
        {
          "internalType": "uint256",
          "name": "_roleId",
          "type": "uint256"
        }
      ],
      "name": "removeRoleFromChannel",
      "outputs": [],
      "stateMutability": "nonpayable",
      "type": "function"
    },
    {
      "inputs": [
        {
          "internalType": "uint256",
          "name": "_roleId",
          "type": "uint256"
        },
        {
          "components": [
            {
              "internalType": "address",
              "name": "module",
              "type": "address"
            },
            {
              "internalType": "bytes",
              "name": "data",
              "type": "bytes"
            }
          ],
          "internalType": "struct DataTypes.Entitlement",
          "name": "_entitlement",
          "type": "tuple"
        }
      ],
      "name": "removeRoleFromEntitlement",
      "outputs": [],
      "stateMutability": "nonpayable",
      "type": "function"
    },
    {
      "inputs": [],
      "name": "roleCount",
      "outputs": [
        {
          "internalType": "uint256",
          "name": "",
          "type": "uint256"
        }
      ],
      "stateMutability": "view",
      "type": "function"
    },
    {
      "inputs": [
        {
          "internalType": "uint256",
          "name": "",
          "type": "uint256"
        }
      ],
      "name": "rolesById",
      "outputs": [
        {
          "internalType": "uint256",
          "name": "roleId",
          "type": "uint256"
        },
        {
          "internalType": "string",
          "name": "name",
          "type": "string"
        }
      ],
      "stateMutability": "view",
      "type": "function"
    },
    {
      "inputs": [
        {
          "internalType": "string",
          "name": "channelNetworkId",
          "type": "string"
        },
        {
          "internalType": "bool",
          "name": "disableChannel",
          "type": "bool"
        }
      ],
      "name": "setChannelAccess",
      "outputs": [],
      "stateMutability": "nonpayable",
      "type": "function"
    },
    {
      "inputs": [
        {
          "internalType": "address",
          "name": "_entitlementModule",
          "type": "address"
        },
        {
          "internalType": "bool",
          "name": "_whitelist",
          "type": "bool"
        }
      ],
      "name": "setEntitlementModule",
      "outputs": [],
      "stateMutability": "nonpayable",
      "type": "function"
    },
    {
      "inputs": [
        {
          "internalType": "uint256",
          "name": "_roleId",
          "type": "uint256"
        }
      ],
      "name": "setOwnerRoleId",
      "outputs": [],
      "stateMutability": "nonpayable",
      "type": "function"
    },
    {
      "inputs": [
        {
          "internalType": "bool",
          "name": "_disabled",
          "type": "bool"
        }
      ],
      "name": "setSpaceAccess",
      "outputs": [],
      "stateMutability": "nonpayable",
      "type": "function"
    },
    {
      "inputs": [],
      "name": "token",
      "outputs": [
        {
          "internalType": "address",
          "name": "",
          "type": "address"
        }
      ],
      "stateMutability": "view",
      "type": "function"
    },
    {
      "inputs": [],
      "name": "tokenId",
      "outputs": [
        {
          "internalType": "uint256",
          "name": "",
          "type": "uint256"
        }
      ],
      "stateMutability": "view",
      "type": "function"
    },
    {
      "inputs": [
        {
          "internalType": "string",
          "name": "channelNetworkId",
          "type": "string"
        },
        {
          "internalType": "string",
          "name": "channelName",
          "type": "string"
        }
      ],
      "name": "updateChannel",
      "outputs": [],
      "stateMutability": "nonpayable",
      "type": "function"
    },
    {
      "inputs": [
        {
          "internalType": "uint256",
          "name": "_roleId",
          "type": "uint256"
        },
        {
          "internalType": "string",
          "name": "_roleName",
          "type": "string"
        }
      ],
      "name": "updateRole",
      "outputs": [],
      "stateMutability": "nonpayable",
      "type": "function"
    },
    {
      "inputs": [
        {
          "internalType": "address",
          "name": "_entitlement",
          "type": "address"
        },
        {
          "internalType": "address",
          "name": "_newEntitlement",
          "type": "address"
        }
      ],
      "name": "upgradeEntitlement",
      "outputs": [],
      "stateMutability": "nonpayable",
      "type": "function"
    },
    {
      "inputs": [
        {
          "internalType": "address",
          "name": "newImplementation",
          "type": "address"
        }
      ],
      "name": "upgradeTo",
      "outputs": [],
      "stateMutability": "nonpayable",
      "type": "function"
    },
    {
      "inputs": [
        {
          "internalType": "address",
          "name": "newImplementation",
          "type": "address"
        },
        {
          "internalType": "bytes",
          "name": "data",
          "type": "bytes"
        }
      ],
      "name": "upgradeToAndCall",
      "outputs": [],
      "stateMutability": "payable",
      "type": "function"
    }
  ],
  "bytecode": {
    "object": "0x60a0604052306080523480156200001557600080fd5b506200002062000026565b620000e7565b600054610100900460ff1615620000935760405162461bcd60e51b815260206004820152602760248201527f496e697469616c697a61626c653a20636f6e747261637420697320696e697469604482015266616c697a696e6760c81b606482015260840160405180910390fd5b60005460ff90811614620000e5576000805460ff191660ff9081179091556040519081527f7f26b83ff96e1f2b6a682f133852f6798a09c465da95921460cefb38474024989060200160405180910390a15b565b608051614ee36200011f60003960008181610d7801528181610dc101528181611174015281816111b401526116b40152614ee36000f3fe6080604052600436106102725760003560e01c80637f8d06d01161014f578063cea632bc116100c1578063ee0708051161007a578063ee070805146107a9578063f28f9b56146107c3578063f3ce6a5b146107e3578063f740bb6b14610803578063fa6433c514610823578063fc0c546a1461085357600080fd5b8063cea632bc146106ef578063d1a6a9611461070f578063dba8186414610725578063ddf9635814610745578063e5894ef41461075b578063e5949b5d1461078957600080fd5b80639269182111610113578063926918211461062d5780639575f6ac1461064d578063ac9650d814610662578063b42642331461068f578063ba201ba8146106af578063baaf3d57146106cf57600080fd5b80637f8d06d01461057b578063870b9464146105ab5780638da5cb5b146105e35780638fcd793d146105f85780639025e64c1461061857600080fd5b8063487dc38c116101e857806352d1902d116101ac57806352d1902d146104aa5780635de151b8146104bf57806366fb345c146104df578063703511f8146104ff578063710613981461052c578063784c872b1461054e57600080fd5b8063487dc38c146104155780634999ab16146104375780634f1ef28614610457578063519607f21461046a57806351f83cea1461048a57600080fd5b806332e704cc1161023a57806332e704cc1461034857806334a1dd26146103685780633659cfe61461038857806342486e49146103a8578063441555e5146103d5578063446dc22e146103f557600080fd5b806306fdde0314610277578063129ab3c8146102a257806317d70f7c146102d25780631dea616a146102f657806320759f9e14610318575b600080fd5b34801561028357600080fd5b5061028c610873565b6040516102999190613c54565b60405180910390f35b3480156102ae57600080fd5b506102c26102bd366004613c67565b610901565b6040516102999493929190613c80565b3480156102de57600080fd5b506102e8609c5481565b604051908152602001610299565b34801561030257600080fd5b50610316610311366004613d1e565b6109b6565b005b34801561032457600080fd5b50610338610333366004613d7a565b610aed565b6040519015158152602001610299565b34801561035457600080fd5b50610316610363366004613e91565b610b63565b34801561037457600080fd5b50610316610383366004613ed7565b610c7f565b34801561039457600080fd5b506103166103a3366004613f42565b610d6e565b3480156103b457600080fd5b506103c86103c3366004613c67565b610e56565b6040516102999190613f5f565b3480156103e157600080fd5b506103166103f0366004613fb1565b610eb8565b34801561040157600080fd5b50610316610410366004613fea565b610f8c565b34801561042157600080fd5b5061042a610fc4565b6040516102999190614007565b34801561044357600080fd5b50610316610452366004613c67565b611026565b610316610465366004614048565b61116a565b34801561047657600080fd5b50610316610485366004614081565b611236565b34801561049657600080fd5b506102e86104a53660046140d2565b611351565b3480156104b657600080fd5b506102e86116a7565b3480156104cb57600080fd5b506103166104da3660046141b3565b61175a565b3480156104eb57600080fd5b506103166104fa366004613e91565b611820565b34801561050b57600080fd5b5061051f61051a366004613c67565b61199b565b6040516102999190614209565b34801561053857600080fd5b50610541611a93565b6040516102999190614278565b34801561055a57600080fd5b5061056e610569366004613c67565b611c01565b60405161029991906142da565b34801561058757600080fd5b50610338610596366004613f42565b609d6020526000908152604090205460ff1681565b3480156105b757600080fd5b506105cb6105c63660046142ed565b611cd7565b6040516001600160a01b039091168152602001610299565b3480156105ef57600080fd5b506105cb611dc0565b34801561060457600080fd5b506102e8610613366004614424565b611e37565b34801561062457600080fd5b5061028c612162565b34801561063957600080fd5b50610316610648366004613c67565b61216f565b34801561065957600080fd5b506103c86122a6565b34801561066e57600080fd5b5061068261067d366004614520565b6122fd565b6040516102999190614594565b34801561069b57600080fd5b506103c86106aa366004613c67565b612414565b3480156106bb57600080fd5b506103166106ca3660046145e9565b612474565b3480156106db57600080fd5b506103166106ea366004613d1e565b61254d565b3480156106fb57600080fd5b5061033861070a366004614625565b61264c565b34801561071b57600080fd5b506102e8609a5481565b34801561073157600080fd5b506103166107403660046146a9565b61279e565b34801561075157600080fd5b506102e860a15481565b34801561076757600080fd5b5061077b610776366004613c67565b612a07565b6040516102999291906146eb565b34801561079557600080fd5b506102e86107a4366004613c67565b612aac565b3480156107b557600080fd5b506099546103389060ff1681565b3480156107cf57600080fd5b506105cb6107de366004613c67565b612acd565b3480156107ef57600080fd5b506103166107fe366004614704565b612af7565b34801561080f57600080fd5b5061031661081e366004613e91565b612cdb565b34801561082f57600080fd5b5061033861083e366004613f42565b609e6020526000908152604090205460ff1681565b34801561085f57600080fd5b50609b546105cb906001600160a01b031681565b6097805461088090614803565b80601f01602080910402602001604051908101604052809291908181526020018280546108ac90614803565b80156108f95780601f106108ce576101008083540402835291602001916108f9565b820191906000526020600020905b8154815290600101906020018083116108dc57829003601f168201915b505050505081565b60a46020526000908152604090208054819061091c90614803565b80601f016020809104026020016040519081016040528092919081815260200182805461094890614803565b80156109955780601f1061096a57610100808354040283529160200191610995565b820191906000526020600020905b81548152906001019060200180831161097857829003601f168201915b50505050600183015460028401546003909401549293909290915060ff1684565b610a1e84848080601f0160208091040260200160405190810160405280939291908181526020018383808284376000920191909152505060408051808201909152601181527041646452656d6f76654368616e6e656c7360781b60208201529150612ec29050565b6001600160a01b0382166000908152609d602052604090205460ff16610a575760405163c1ef36f360e01b815260040160405180910390fd5b600081815260a260205260408120549003610a855760405163b810dc5d60e01b815260040160405180910390fd5b60405163c513be7760e01b81526001600160a01b0383169063c513be7790610ab590879087908690600401614860565b600060405180830381600087803b158015610acf57600080fd5b505af1158015610ae3573d6000803e3d6000fd5b5050505050505050565b6000805b60a054811015610b5b57610b3f60405180602001604052806000815250868686604051602001610b22929190614884565b604051602081830303815290604052610b3a90614894565b612f16565b15610b4957600191505b80610b53816148ce565b915050610af1565b509392505050565b610b9f60405180602001604052806000815250604051806040016040528060168152602001600080516020614e67833981519152815250612ec2565b610ba881612fcf565b609a548203610bca57604051631eb49d6d60e11b815260040160405180910390fd5b600082815260a260205260408120549003610bf85760405163b810dc5d60e01b815260040160405180910390fd5b8051600003610c1a57604051630e52390960e41b815260040160405180910390fd5b600082815260a260205260409020600101610c35828261492d565b5081336001600160a01b03167ff3c55faf0b13ffa681c984baddbb8ef7638e514188ea19bd6461d7f87b9c7953836098604051610c73929190614a69565b60405180910390a35050565b610cc1604051806020016040528060008152506040518060400160405280601181526020017041646452656d6f76654368616e6e656c7360781b815250612ec2565b610ccb8282613000565b60008484604051602001610ce0929190614884565b60408051601f198184030181529181528151602092830120600081815260a4909352908220600101549092509003610d2b57604051636ddd9da960e01b815260040160405180910390fd5b6000829003610d4d57604051631eb49d6d60e11b815260040160405180910390fd5b600081815260a460205260409020610d66838583614a8e565b505050505050565b6001600160a01b037f0000000000000000000000000000000000000000000000000000000000000000163003610dbf5760405162461bcd60e51b8152600401610db690614b4d565b60405180910390fd5b7f00000000000000000000000000000000000000000000000000000000000000006001600160a01b0316610e08600080516020614e47833981519152546001600160a01b031690565b6001600160a01b031614610e2e5760405162461bcd60e51b8152600401610db690614b99565b610e3781613215565b60408051600080825260208201909252610e539183919061324b565b50565b6000818152609f6020908152604091829020805483518184028101840190945280845260609392830182828015610eac57602002820191906000526020600020905b815481526020019060010190808311610e98575b50505050509050919050565b610eee604051806020016040528060008152506040518060400160405280600581526020016427bbb732b960d91b815250612ec2565b610ef7826133bb565b808015610f1c57506001600160a01b0382166000908152609d602052604090205460ff165b15610f3a5760405163186abc9b60e01b815260040160405180910390fd5b80158015610f6057506001600160a01b0382166000908152609e602052604090205460ff165b15610f7e57604051631eb49d6d60e11b815260040160405180910390fd5b610f88828261344c565b5050565b610f946135cd565b610fb157604051631eb49d6d60e11b815260040160405180910390fd5b6099805460ff1916911515919091179055565b606060a080548060200260200160405190810160405280929190818152602001828054801561101c57602002820191906000526020600020905b81546001600160a01b03168152600190910190602001808311610ffe575b5050505050905090565b61102e6135cd565b61104b57604051631eb49d6d60e11b815260040160405180910390fd5b609a541561106c57604051631eb49d6d60e11b815260040160405180910390fd5b600081815260a26020526040812054900361109a5760405163b810dc5d60e01b815260040160405180910390fd5b6000805b600083815260a36020526040902054811015611145576040518060400160405280600581526020016427bbb732b960d91b8152506040516020016110e29190614be5565b6040516020818303038152906040526110fa90614894565b600084815260a36020526040902080548390811061111a5761111a614c01565b9060005260206000200154036111335760019150611145565b8061113d816148ce565b91505061109e565b508061116457604051633e74bd6360e21b815260040160405180910390fd5b50609a55565b6001600160a01b037f00000000000000000000000000000000000000000000000000000000000000001630036111b25760405162461bcd60e51b8152600401610db690614b4d565b7f00000000000000000000000000000000000000000000000000000000000000006001600160a01b03166111fb600080516020614e47833981519152546001600160a01b031690565b6001600160a01b0316146112215760405162461bcd60e51b8152600401610db690614b99565b61122a82613215565b610f888282600161324b565b61126c604051806020016040528060008152506040518060400160405280600581526020016427bbb732b960d91b815250612ec2565b6001600160a01b038216158061128957506001600160a01b038116155b156112a757604051630e52390960e41b815260040160405180910390fd5b6001600160a01b0382166000908152609d602052604090205460ff166112e05760405163c1ef36f360e01b815260040160405180910390fd5b604051631b2ce7f360e11b81526001600160a01b038281166004830152831690633659cfe690602401600060405180830381600087803b15801561132357600080fd5b505af1925050508015611334575060015b610f8857604051630e52390960e41b815260040160405180910390fd5b6000611395604051806020016040528060008152506040518060400160405280601181526020017041646452656d6f76654368616e6e656c7360781b815250612ec2565b61139f8585613000565b6000836040516020016113b29190614be5565b60408051601f198184030181529181528151602092830120600081815260a4909352912060010154909150156113fb57604051630139324b60e41b815260040160405180910390fd5b604051806080016040528087878080601f0160208091040260200160405190810160405280939291908181526020018383808284376000920182905250938552505050602080830185905242604080850191909152606090930182905284825260a49052208151819061146e908261492d565b506020820151600182810191909155604083015160028301556060909201516003909101805460ff191691151591909117905560a58054918201815560009081527fb29a2b3b6f2ff1b765777a231725941da5072cc4fcc30ac4a2ce09706e8ddeff9091018290555b60a05481101561169d57600060a082815481106114f6576114f6614c01565b600091825260209091200154609a5460405163c513be7760e01b81526001600160a01b039092169250829163c513be7791611536918a9190600401614c17565b600060405180830381600087803b15801561155057600080fd5b505af1158015611564573d6000803e3d6000fd5b5050505060005b855181101561168857609a5486828151811061158957611589614c01565b602002602001015103156116765760a260008783815181106115ad576115ad614c01565b60200260200101518152602001908152602001600020600001546000036115e75760405163b810dc5d60e01b815260040160405180910390fd5b816001600160a01b031663c513be778888848151811061160957611609614c01565b60200260200101516040518363ffffffff1660e01b815260040161162e929190614c17565b600060405180830381600087803b15801561164857600080fd5b505af1925050508015611659575060015b6116765760405163d9afe50760e01b815260040160405180910390fd5b80611680816148ce565b91505061156b565b50508080611695906148ce565b9150506114d7565b5095945050505050565b6000306001600160a01b037f000000000000000000000000000000000000000000000000000000000000000016146117475760405162461bcd60e51b815260206004820152603860248201527f555550535570677261646561626c653a206d757374206e6f742062652063616c60448201527f6c6564207468726f7567682064656c656761746563616c6c00000000000000006064820152608401610db6565b50600080516020614e4783398151915290565b61179c604051806020016040528060008152506040518060400160405280601181526020017041646452656d6f76654368616e6e656c7360781b815250612ec2565b600083836040516020016117b1929190614884565b60408051601f198184030181529181528151602092830120600081815260a49093529082206001015490925090036117fc57604051636ddd9da960e01b815260040160405180910390fd5b600090815260a460205260409020600301805460ff19169115159190911790555050565b61185c60405180602001604052806000815250604051806040016040528060168152602001600080516020614e67833981519152815250612ec2565b611883816040518060400160405280600581526020016427bbb732b960d91b815250613654565b156118a157604051631eb49d6d60e11b815260040160405180910390fd5b600082815260a2602052604081205490036118cf5760405163b810dc5d60e01b815260040160405180910390fd5b6000816040516020016118e29190614be5565b6040516020818303038152906040526118fa90614894565b905060005b600084815260a3602052604090205481101561197357600084815260a36020526040902080548391908390811061193857611938614c01565b90600052602060002001540361196157604051636571d65f60e01b815260040160405180910390fd5b8061196b816148ce565b9150506118ff565b50600092835260a3602090815260408420805460018101825590855293209092019190915550565b604080516080810182526060808252600060208301819052928201839052810191909152600082815260a46020526040908190208151608081019092528054829082906119e790614803565b80601f0160208091040260200160405190810160405280929190818152602001828054611a1390614803565b8015611a605780601f10611a3557610100808354040283529160200191611a60565b820191906000526020600020905b815481529060010190602001808311611a4357829003601f168201915b5050509183525050600182015460208201526002820154604082015260039091015460ff16151560609091015292915050565b6060600060a1546001600160401b03811115611ab157611ab1613dce565b604051908082528060200260200182016040528015611af757816020015b604080518082019091526000815260606020820152815260200190600190039081611acf5790505b50905060005b60a154811015611bfb5760a26000611b16836001614c39565b815260200190815260200160002060405180604001604052908160008201548152602001600182018054611b4990614803565b80601f0160208091040260200160405190810160405280929190818152602001828054611b7590614803565b8015611bc25780601f10611b9757610100808354040283529160200191611bc2565b820191906000526020600020905b815481529060010190602001808311611ba557829003601f168201915b505050505081525050828281518110611bdd57611bdd614c01565b60200260200101819052508080611bf3906148ce565b915050611afd565b50919050565b60408051808201909152600081526060602082015260a2600083815260200190815260200160002060405180604001604052908160008201548152602001600182018054611c4e90614803565b80601f0160208091040260200160405190810160405280929190818152602001828054611c7a90614803565b8015611cc75780601f10611c9c57610100808354040283529160200191611cc7565b820191906000526020600020905b815481529060010190602001808311611caa57829003601f168201915b5050505050815250509050919050565b60008060005b60a054811015611db957611d7760a08281548110611cfd57611cfd614c01565b600091825260208220015460408051636465e69f60e01b815290516001600160a01b0390921692636465e69f926004808401938290030181865afa158015611d49573d6000803e3d6000fd5b505050506040513d6000823e601f3d908101601f19168201604052611d719190810190614c4c565b85613654565b15611da75760a08181548110611d8f57611d8f614c01565b6000918252602090912001546001600160a01b031691505b80611db1816148ce565b915050611cdd565b5092915050565b609b54609c546040516331a9108f60e11b815260048101919091526000916001600160a01b031690636352211e90602401602060405180830381865afa158015611e0e573d6000803e3d6000fd5b505050506040513d601f19601f82011682018060405250810190611e329190614cb9565b905090565b6000611e7560405180602001604052806000815250604051806040016040528060168152602001600080516020614e67833981519152815250612ec2565b611eb485858080601f016020809104026020016040519081016040528093929190818152602001838380828437600092019190915250612fcf92505050565b600060a160008154611ec5906148ce565b91905081905590506000604051806040016040528083815260200188888080601f016020809104026020016040519081016040528093929190818152602001838380828437600092018290525093909452505084815260a260209081526040909120835181559083015192935083929091506001820190611f46908261492d565b5090505060005b855181101561203657609a5415158015611fa25750611fa2868281518110611f7757611f77614c01565b60200260200101516040518060400160405280600581526020016427bbb732b960d91b815250613654565b15611fc057604051631eb49d6d60e11b815260040160405180910390fd5b6000868281518110611fd457611fd4614c01565b6020026020010151604051602001611fec9190614be5565b60405160208183030381529060405261200490614894565b600085815260a3602090815260408220805460018101825590835291200155508061202e816148ce565b915050611f4d565b5060005b845181101561211057600085828151811061205757612057614c01565b6020026020010151600001519050600086838151811061207957612079614c01565b602002602001015160200151905060006001600160a01b0316826001600160a01b031614806120a757508051155b156120b35750506120fe565b6001600160a01b0382166000908152609d602052604081205460ff16151590036120f05760405163c1ef36f360e01b815260040160405180910390fd5b6120fb8583836136ae565b50505b80612108816148ce565b91505061203a565b5081336001600160a01b03167f39772407c6dd2e83adbd292cdfa17a6817c9a7500e56cfe57b7a82d797f8d39b8989609860405161215093929190614cd6565b60405180910390a35095945050505050565b6098805461088090614803565b6121ab60405180602001604052806000815250604051806040016040528060168152602001600080516020614e67833981519152815250612ec2565b609a5481036121cd57604051631eb49d6d60e11b815260040160405180910390fd5b600081815260a2602052604081205490036121fb5760405163b810dc5d60e01b815260040160405180910390fd5b6000818152609f60205260409020541561222857604051633764405360e11b815260040160405180910390fd5b600081815260a260205260408120818155906122476001830182613b97565b5050600081815260a36020526040812061226091613bd1565b80336001600160a01b03167f1d5667a301e36f2d5b1ee32b7f187b0adb46c706297242fa945d3fed1e7f8a19609860405161229b9190614d06565b60405180910390a350565b606060a580548060200260200160405190810160405280929190818152602001828054801561101c57602002820191906000526020600020905b8154815260200190600101908083116122e0575050505050905090565b6060816001600160401b0381111561231757612317613dce565b60405190808252806020026020018201604052801561234a57816020015b60608152602001906001900390816123355790505b50905060005b82811015611db9576000803086868581811061236e5761236e614c01565b90506020028101906123809190614d19565b60405161238e929190614884565b600060405180830381855af49150503d80600081146123c9576040519150601f19603f3d011682016040523d82523d6000602084013e6123ce565b606091505b5091509150816123e1576123e18161381e565b808484815181106123f4576123f4614c01565b60200260200101819052505050808061240c906148ce565b915050612350565b600081815260a36020908152604091829020805483518184028101840190945280845260609392830182828015610eac5760200282019190600052602060002090815481526020019060010190808311610e985750505050509050919050565b6124b060405180602001604052806000815250604051806040016040528060168152602001600080516020614e67833981519152815250612ec2565b80516001600160a01b03166000908152609d602052604090205460ff166124ea5760405163c1ef36f360e01b815260040160405180910390fd5b600082815260a2602052604081205490036125185760405163b810dc5d60e01b815260040160405180910390fd5b609a54820361253a57604051631eb49d6d60e11b815260040160405180910390fd5b610f8882826000015183602001516136ae565b6125b584848080601f0160208091040260200160405190810160405280939291908181526020018383808284376000920191909152505060408051808201909152601181527041646452656d6f76654368616e6e656c7360781b60208201529150612ec29050565b6001600160a01b0382166000908152609d602052604090205460ff166125ee5760405163c1ef36f360e01b815260040160405180910390fd5b600081815260a26020526040812054900361261c5760405163b810dc5d60e01b815260040160405180910390fd5b604051637997c1e760e11b81526001600160a01b0383169063f32f83ce90610ab590879087908690600401614860565b6000841580612659575081155b8061266b57506001600160a01b038416155b1561268957604051630e52390960e41b815260040160405180910390fd5b6000868660405160200161269e929190614884565b60408051601f198184030181529181528151602092830120600081815260a49093529082206001015490925090036126e957604051636ddd9da960e01b815260040160405180910390fd5b600081815260a4602052604090206003015460ff161561271c57604051631eb49d6d60e11b815260040160405180910390fd5b60005b60a0548110156127935761277788888080601f016020809104026020016040519081016040528093929190818152602001838380828437600092019190915250506040518a9250610b22915089908990602001614884565b1561278157600192505b8061278b816148ce565b91505061271f565b505095945050505050565b6127da60405180602001604052806000815250604051806040016040528060168152602001600080516020614e67833981519152815250612ec2565b609a5482036127fc57604051631eb49d6d60e11b815260040160405180910390fd5b609d600061280d6020840184613f42565b6001600160a01b0316815260208101919091526040016000205460ff166128475760405163c1ef36f360e01b815260040160405180910390fd5b600082815260a2602052604081205490036128755760405163b810dc5d60e01b815260040160405180910390fd5b6000826128856020840184614d19565b60405160200161289793929190614d5f565b60408051601f1981840301815291815281516020928301206000868152609f909352908220909250905b8154811015612975578181815481106128dc576128dc614c01565b9060005260206000200154830361296357815482906128fd90600190614d79565b8154811061290d5761290d614c01565b906000526020600020015482828154811061292a5761292a614c01565b90600052602060002001819055508180548061294857612948614d8c565b60019003818190600052602060002001600090559055612975565b8061296d816148ce565b9150506128c1565b506129836020840184613f42565b6001600160a01b031663fa6d1adf8561299f6020870187614d19565b6040518463ffffffff1660e01b81526004016129bd93929190614da2565b6020604051808303816000875af11580156129dc573d6000803e3d6000fd5b505050506040513d601f19601f82011682018060405250810190612a009190614dbc565b5050505050565b60a26020526000908152604090208054600182018054919291612a2990614803565b80601f0160208091040260200160405190810160405280929190818152602001828054612a5590614803565b8015612aa25780601f10612a7757610100808354040283529160200191612aa2565b820191906000526020600020905b815481529060010190602001808311612a8557829003601f168201915b5050505050905082565b60a58181548110612abc57600080fd5b600091825260209091200154905081565b60a08181548110612add57600080fd5b6000918252602090912001546001600160a01b0316905081565b600054610100900460ff1615808015612b175750600054600160ff909116105b80612b315750303b158015612b31575060005460ff166001145b612b945760405162461bcd60e51b815260206004820152602e60248201527f496e697469616c697a61626c653a20636f6e747261637420697320616c72656160448201526d191e481a5b9a5d1a585b1a5e995960921b6064820152608401610db6565b6000805460ff191660011790558015612bb7576000805461ff0019166101001790555b612bbf6138eb565b612bc76138eb565b6097612bd3878261492d565b506098612be0868261492d565b50609b80546001600160a01b0319166001600160a01b038516179055609c82905560005b8451811015612c8d57612c31858281518110612c2257612c22614c01565b6020026020010151600161344c565b6001609e6000878481518110612c4957612c49614c01565b6020908102919091018101516001600160a01b03168252810191909152604001600020805460ff191691151591909117905580612c85816148ce565b915050612c04565b508015610d66576000805461ff0019169055604051600181527f7f26b83ff96e1f2b6a682f133852f6798a09c465da95921460cefb38474024989060200160405180910390a1505050505050565b612d1760405180602001604052806000815250604051806040016040528060168152602001600080516020614e67833981519152815250612ec2565b612d3e816040518060400160405280600581526020016427bbb732b960d91b815250613654565b15612d5c57604051631eb49d6d60e11b815260040160405180910390fd5b600082815260a260205260408120549003612d8a5760405163b810dc5d60e01b815260040160405180910390fd5b600081604051602001612d9d9190614be5565b604051602081830303815290604052612db590614894565b905060005b600084815260a36020526040902054811015612ebc57600084815260a360205260409020805483919083908110612df357612df3614c01565b906000526020600020015403612eaa57600084815260a3602052604090208054612e1f90600190614d79565b81548110612e2f57612e2f614c01565b906000526020600020015460a360008681526020019081526020016000208281548110612e5e57612e5e614c01565b906000526020600020018190555060a36000858152602001908152602001600020805480612e8e57612e8e614d8c565b6001900381819060005260206000200160009055905550505050565b80612eb4816148ce565b915050612dba565b50505050565b612eca6135cd565b80612ef4575060995460ff16158015612ef45750612ef4823383604051602001610b229190614be5565b15612efd575050565b604051631eb49d6d60e11b815260040160405180910390fd5b6000805b60a054811015610b5b5760a08181548110612f3757612f37614c01565b60009182526020909120015460405162169d5560e31b81526001600160a01b039091169062b4eaa890612f7290889088908890600401614dd5565b602060405180830381865afa158015612f8f573d6000803e3d6000fd5b505050506040513d601f19601f82011682018060405250810190612fb39190614e03565b15612fbd57600191505b80612fc7816148ce565b915050612f1a565b8051819060021180612fe2575080516020105b15610f885760405163354b556f60e11b815260040160405180910390fd5b600082828080601f01602080910402602001604051908101604052809392919081815260200183838082843760009201919091525050825192935050600290911090508061304f575080516020105b1561306d5760405163354b556f60e11b815260040160405180910390fd5b805160005b81811015612a0057600360fc1b83828151811061309157613091614c01565b01602001516001600160f81b03191610806130cf5750603d60f91b8382815181106130be576130be614c01565b01602001516001600160f81b031916115b8061312b5750603960f81b8382815181106130ec576130ec614c01565b01602001516001600160f81b03191611801561312b5750606160f81b83828151811061311a5761311a614c01565b01602001516001600160f81b031916105b801561315c575082818151811061314457613144614c01565b6020910101516001600160f81b031916601760f91b14155b801561318d575082818151811061317557613175614c01565b6020910101516001600160f81b031916602d60f81b14155b80156131be57508281815181106131a6576131a6614c01565b6020910101516001600160f81b031916605f60f81b14155b80156131ef57508281815181106131d7576131d7614c01565b6020910101516001600160f81b031916600160fd1b14155b1561320d5760405163f8fa659760e01b815260040160405180910390fd5b600101613072565b610e53604051806020016040528060008152506040518060400160405280600581526020016427bbb732b960d91b815250612ec2565b7f4910fdfa16fed3260ed0e7147f7cc6da11a60208b5b9406d12a635614ffd91435460ff16156132835761327e83613958565b505050565b826001600160a01b03166352d1902d6040518163ffffffff1660e01b8152600401602060405180830381865afa9250505080156132dd575060408051601f3d908101601f191682019092526132da91810190614dbc565b60015b6133405760405162461bcd60e51b815260206004820152602e60248201527f45524331393637557067726164653a206e657720696d706c656d656e7461746960448201526d6f6e206973206e6f74205555505360901b6064820152608401610db6565b600080516020614e4783398151915281146133af5760405162461bcd60e51b815260206004820152602960248201527f45524331393637557067726164653a20756e737570706f727465642070726f786044820152681a58589b195555525160ba1b6064820152608401610db6565b5061327e8383836139f4565b6040516301ffc9a760e01b815263e5e65adf60e01b60048201526001600160a01b038216906301ffc9a790602401602060405180830381865afa158015613406573d6000803e3d6000fd5b505050506040513d601f19601f8201168201806040525081019061342a9190614e03565b1515600003610e5357604051636d9250f160e11b815260040160405180910390fd5b6001600160a01b0382166000908152609d60205260409020805460ff191682158015919091179091556134ca5760a080546001810182556000919091527f78fdc8d422c49ced035a9edf18d00d3c6a8d81df210f3e5e448e045e77b41e880180546001600160a01b0384166001600160a01b03199091161790555050565b60005b60a05481101561327e5760a081815481106134ea576134ea614c01565b6000918252602090912001546001600160a01b03908116908416036135bb5760a0805461351990600190614d79565b8154811061352957613529614c01565b60009182526020909120015460a080546001600160a01b03909216918390811061355557613555614c01565b9060005260206000200160006101000a8154816001600160a01b0302191690836001600160a01b0316021790555060a080548061359457613594614d8c565b600082815260209020810160001990810180546001600160a01b0319169055019055505050565b806135c5816148ce565b9150506134cd565b600033609b54609c546040516331a9108f60e11b815260048101919091526001600160a01b039283169290911690636352211e90602401602060405180830381865afa158015613621573d6000803e3d6000fd5b505050506040513d601f19601f820116820180604052508101906136459190614cb9565b6001600160a01b031614905090565b6000816040516020016136679190614be5565b604051602081830303815290604052805190602001208360405160200161368e9190614be5565b604051602081830303815290604052805190602001201490505b92915050565b600083826040516020016136c3929190614e20565b60408051601f1981840301815282825280516020918201206000888152609f83528381208054808502870185019095528486529195509392909183018282801561372c57602002820191906000526020600020905b815481526020019060010190808311613718575b5050505050905060005b815181101561378a578282828151811061375257613752614c01565b6020026020010151036137785760405163c5c9ad6760e01b815260040160405180910390fd5b80613782816148ce565b915050613736565b506000858152609f602090815260408083208054600181018255908452919092200183905551633be2f95d60e21b81526001600160a01b0385169063ef8be574906137db90889087906004016146eb565b6020604051808303816000875af11580156137fa573d6000803e3d6000fd5b505050506040513d601f19601f82011682018060405250810190610d669190614dbc565b6004815110156138635760405162461bcd60e51b815260206004820152601060248201526f1d5b9a185b991b1959081c995d995c9d60821b6044820152606401610db6565b602081015163b1b7848f60e01b6001600160e01b03198216016138e257604080518082018252600e81526d70616e69636b65643a2030785f5f60901b602082018181526024860151600481811c600f908116603090810160081b9184160117909317909152925162461bcd60e51b8152919291610db691849101613c54565b81518060208401fd5b600054610100900460ff166139565760405162461bcd60e51b815260206004820152602b60248201527f496e697469616c697a61626c653a20636f6e7472616374206973206e6f74206960448201526a6e697469616c697a696e6760a81b6064820152608401610db6565b565b6001600160a01b0381163b6139c55760405162461bcd60e51b815260206004820152602d60248201527f455243313936373a206e657720696d706c656d656e746174696f6e206973206e60448201526c1bdd08184818dbdb9d1c9858dd609a1b6064820152608401610db6565b600080516020614e4783398151915280546001600160a01b0319166001600160a01b0392909216919091179055565b6139fd83613a19565b600082511180613a0a5750805b1561327e57612ebc8383613a59565b613a2281613958565b6040516001600160a01b038216907fbc7cd75a20ee27fd9adebab32041f755214dbc6bffa90cc0225b39da2e5c2d3b90600090a250565b60606001600160a01b0383163b613ac15760405162461bcd60e51b815260206004820152602660248201527f416464726573733a2064656c65676174652063616c6c20746f206e6f6e2d636f6044820152651b9d1c9858dd60d21b6064820152608401610db6565b600080846001600160a01b031684604051613adc9190614be5565b600060405180830381855af49150503d8060008114613b17576040519150601f19603f3d011682016040523d82523d6000602084013e613b1c565b606091505b5091509150613b448282604051806060016040528060278152602001614e8760279139613b4d565b95945050505050565b60608315613b5c575081613b66565b613b668383613b6d565b9392505050565b815115613b7d5781518083602001fd5b8060405162461bcd60e51b8152600401610db69190613c54565b508054613ba390614803565b6000825580601f10613bb3575050565b601f016020900490600052602060002090810190610e539190613beb565b5080546000825590600052602060002090810190610e5391905b5b80821115613c005760008155600101613bec565b5090565b60005b83811015613c1f578181015183820152602001613c07565b50506000910152565b60008151808452613c40816020860160208601613c04565b601f01601f19169290920160200192915050565b602081526000613b666020830184613c28565b600060208284031215613c7957600080fd5b5035919050565b608081526000613c936080830187613c28565b60208301959095525060408101929092521515606090910152919050565b60008083601f840112613cc357600080fd5b5081356001600160401b03811115613cda57600080fd5b602083019150836020828501011115613cf257600080fd5b9250929050565b6001600160a01b0381168114610e5357600080fd5b8035613d1981613cf9565b919050565b60008060008060608587031215613d3457600080fd5b84356001600160401b03811115613d4a57600080fd5b613d5687828801613cb1565b9095509350506020850135613d6a81613cf9565b9396929550929360400135925050565b600080600060408486031215613d8f57600080fd5b8335613d9a81613cf9565b925060208401356001600160401b03811115613db557600080fd5b613dc186828701613cb1565b9497909650939450505050565b634e487b7160e01b600052604160045260246000fd5b604051601f8201601f191681016001600160401b0381118282101715613e0c57613e0c613dce565b604052919050565b60006001600160401b03821115613e2d57613e2d613dce565b50601f01601f191660200190565b600082601f830112613e4c57600080fd5b8135613e5f613e5a82613e14565b613de4565b818152846020838601011115613e7457600080fd5b816020850160208301376000918101602001919091529392505050565b60008060408385031215613ea457600080fd5b8235915060208301356001600160401b03811115613ec157600080fd5b613ecd85828601613e3b565b9150509250929050565b60008060008060408587031215613eed57600080fd5b84356001600160401b0380821115613f0457600080fd5b613f1088838901613cb1565b90965094506020870135915080821115613f2957600080fd5b50613f3687828801613cb1565b95989497509550505050565b600060208284031215613f5457600080fd5b8135613b6681613cf9565b6020808252825182820181905260009190848201906040850190845b81811015613f9757835183529284019291840191600101613f7b565b50909695505050505050565b8015158114610e5357600080fd5b60008060408385031215613fc457600080fd5b8235613fcf81613cf9565b91506020830135613fdf81613fa3565b809150509250929050565b600060208284031215613ffc57600080fd5b8135613b6681613fa3565b6020808252825182820181905260009190848201906040850190845b81811015613f975783516001600160a01b031683529284019291840191600101614023565b6000806040838503121561405b57600080fd5b823561406681613cf9565b915060208301356001600160401b03811115613ec157600080fd5b6000806040838503121561409457600080fd5b823561409f81613cf9565b91506020830135613fdf81613cf9565b60006001600160401b038211156140c8576140c8613dce565b5060051b60200190565b600080600080606085870312156140e857600080fd5b84356001600160401b03808211156140ff57600080fd5b61410b88838901613cb1565b909650945060209150868201358181111561412557600080fd5b61413189828a01613e3b565b94505060408701358181111561414657600080fd5b87019050601f8101881361415957600080fd5b8035614167613e5a826140af565b81815260059190911b8201830190838101908a83111561418657600080fd5b928401925b828410156141a45783358252928401929084019061418b565b979a9699509497505050505050565b6000806000604084860312156141c857600080fd5b83356001600160401b038111156141de57600080fd5b6141ea86828701613cb1565b90945092505060208401356141fe81613fa3565b809150509250925092565b60208152600082516080602084015261422560a0840182613c28565b905060208401516040840152604084015160608401526060840151151560808401528091505092915050565b8051825260006020820151604060208501526142706040850182613c28565b949350505050565b6000602080830181845280855180835260408601915060408160051b870101925083870160005b828110156142cd57603f198886030184526142bb858351614251565b9450928501929085019060010161429f565b5092979650505050505050565b602081526000613b666020830184614251565b6000602082840312156142ff57600080fd5b81356001600160401b0381111561431557600080fd5b61427084828501613e3b565b60006040828403121561433357600080fd5b604051604081016001600160401b03828210818311171561435657614356613dce565b816040528293508435915061436a82613cf9565b9082526020840135908082111561438057600080fd5b5061438d85828601613e3b565b6020830152505092915050565b600082601f8301126143ab57600080fd5b813560206143bb613e5a836140af565b82815260059290921b840181019181810190868411156143da57600080fd5b8286015b848110156144195780356001600160401b038111156143fd5760008081fd5b61440b8986838b0101614321565b8452509183019183016143de565b509695505050505050565b6000806000806060858703121561443a57600080fd5b84356001600160401b038082111561445157600080fd5b61445d88838901613cb1565b909650945060209150868201358181111561447757600080fd5b8701601f8101891361448857600080fd5b8035614496613e5a826140af565b81815260059190911b8201840190848101908b8311156144b557600080fd5b8584015b838110156144ed578035868111156144d15760008081fd5b6144df8e8983890101613e3b565b8452509186019186016144b9565b509650505050604087013591508082111561450757600080fd5b506145148782880161439a565b91505092959194509250565b6000806020838503121561453357600080fd5b82356001600160401b038082111561454a57600080fd5b818501915085601f83011261455e57600080fd5b81358181111561456d57600080fd5b8660208260051b850101111561458257600080fd5b60209290920196919550909350505050565b6000602080830181845280855180835260408601915060408160051b870101925083870160005b828110156142cd57603f198886030184526145d7858351613c28565b945092850192908501906001016145bb565b600080604083850312156145fc57600080fd5b8235915060208301356001600160401b0381111561461957600080fd5b613ecd85828601614321565b60008060008060006060868803121561463d57600080fd5b85356001600160401b038082111561465457600080fd5b61466089838a01613cb1565b90975095506020880135915061467582613cf9565b9093506040870135908082111561468b57600080fd5b5061469888828901613cb1565b969995985093965092949392505050565b600080604083850312156146bc57600080fd5b8235915060208301356001600160401b038111156146d957600080fd5b830160408186031215613fdf57600080fd5b8281526040602082015260006142706040830184613c28565b600080600080600060a0868803121561471c57600080fd5b85356001600160401b038082111561473357600080fd5b61473f89838a01613e3b565b965060209150818801358181111561475657600080fd5b6147628a828b01613e3b565b96505060408801358181111561477757600080fd5b88019050601f8101891361478a57600080fd5b8035614798613e5a826140af565b81815260059190911b8201830190838101908b8311156147b757600080fd5b928401925b828410156147de5783356147cf81613cf9565b825292840192908401906147bc565b80975050505050506147f260608701613d0e565b949793965091946080013592915050565b600181811c9082168061481757607f821691505b602082108103611bfb57634e487b7160e01b600052602260045260246000fd5b81835281816020850137506000828201602090810191909152601f909101601f19169091010190565b604081526000614874604083018587614837565b9050826020830152949350505050565b8183823760009101908152919050565b80516020808301519190811015611bfb5760001960209190910360031b1b16919050565b634e487b7160e01b600052601160045260246000fd5b6000600182016148e0576148e06148b8565b5060010190565b601f82111561327e57600081815260208120601f850160051c8101602086101561490e5750805b601f850160051c820191505b81811015610d665782815560010161491a565b81516001600160401b0381111561494657614946613dce565b61495a816149548454614803565b846148e7565b602080601f83116001811461498f57600084156149775750858301515b600019600386901b1c1916600185901b178555610d66565b600085815260208120601f198616915b828110156149be5788860151825594840194600190910190840161499f565b50858210156149dc5787850151600019600388901b60f8161c191681555b5050505050600190811b01905550565b600081546149f981614803565b808552602060018381168015614a165760018114614a3057614a5e565b60ff1985168884015283151560051b880183019550614a5e565b866000528260002060005b85811015614a565781548a8201860152908301908401614a3b565b890184019650505b505050505092915050565b604081526000614a7c6040830185613c28565b8281036020840152613b4481856149ec565b6001600160401b03831115614aa557614aa5613dce565b614ab983614ab38354614803565b836148e7565b6000601f841160018114614aed5760008515614ad55750838201355b600019600387901b1c1916600186901b178355612a00565b600083815260209020601f19861690835b82811015614b1e5786850135825560209485019460019092019101614afe565b5086821015614b3b5760001960f88860031b161c19848701351681555b505060018560011b0183555050505050565b6020808252602c908201527f46756e6374696f6e206d7573742062652063616c6c6564207468726f7567682060408201526b19195b1959d85d1958d85b1b60a21b606082015260800190565b6020808252602c908201527f46756e6374696f6e206d7573742062652063616c6c6564207468726f7567682060408201526b6163746976652070726f787960a01b606082015260800190565b60008251614bf7818460208701613c04565b9190910192915050565b634e487b7160e01b600052603260045260246000fd5b604081526000614c2a6040830185613c28565b90508260208301529392505050565b808201808211156136a8576136a86148b8565b600060208284031215614c5e57600080fd5b81516001600160401b03811115614c7457600080fd5b8201601f81018413614c8557600080fd5b8051614c93613e5a82613e14565b818152856020838501011115614ca857600080fd5b613b44826020830160208601613c04565b600060208284031215614ccb57600080fd5b8151613b6681613cf9565b604081526000614cea604083018587614837565b8281036020840152614cfc81856149ec565b9695505050505050565b602081526000613b6660208301846149ec565b6000808335601e19843603018112614d3057600080fd5b8301803591506001600160401b03821115614d4a57600080fd5b602001915036819003821315613cf257600080fd5b838152818360208301376000910160200190815292915050565b818103818111156136a8576136a86148b8565b634e487b7160e01b600052603160045260246000fd5b838152604060208201526000613b44604083018486614837565b600060208284031215614dce57600080fd5b5051919050565b606081526000614de86060830186613c28565b6001600160a01b039490941660208301525060400152919050565b600060208284031215614e1557600080fd5b8151613b6681613fa3565b82815260008251614e38816020850160208701613c04565b91909101602001939250505056fe360894a13ba1a3210667c828492db98dca3e2076cc3735a920a3ca505d382bbc4d6f6469667953706163655065726d697373696f6e7300000000000000000000416464726573733a206c6f772d6c6576656c2064656c65676174652063616c6c206661696c6564a2646970667358221220b93fda19319258d2805998524ba8264d7dfb72c27395cd0708796fad17f8063664736f6c63430008110033",
    "linkReferences": {}
  },
  "methodIdentifiers": {
    "addPermissionToRole(uint256,string)": "66fb345c",
    "addRoleToChannel(string,address,uint256)": "1dea616a",
    "addRoleToEntitlement(uint256,(address,bytes))": "ba201ba8",
    "channels(uint256)": "e5949b5d",
    "channelsByHash(bytes32)": "129ab3c8",
    "createChannel(string,string,uint256[])": "51f83cea",
    "createRole(string,string[],(address,bytes)[])": "8fcd793d",
    "defaultEntitlements(address)": "fa6433c5",
    "disabled()": "ee070805",
    "entitlements(uint256)": "f28f9b56",
    "getChannelByHash(bytes32)": "703511f8",
    "getChannels()": "9575f6ac",
    "getEntitlementByModuleType(string)": "870b9464",
    "getEntitlementIdsByRoleId(uint256)": "42486e49",
    "getEntitlements()": "487dc38c",
    "getPermissionsByRoleId(uint256)": "b4264233",
    "getRoleById(uint256)": "784c872b",
    "getRoles()": "71061398",
    "hasEntitlement(address)": "7f8d06d0",
    "initialize(string,string,address[],address,uint256)": "f3ce6a5b",
    "isEntitledToChannel(string,address,string)": "cea632bc",
    "isEntitledToSpace(address,string)": "20759f9e",
    "multicall(bytes[])": "ac9650d8",
    "name()": "06fdde03",
    "networkId()": "9025e64c",
    "owner()": "8da5cb5b",
    "ownerRoleId()": "d1a6a961",
    "proxiableUUID()": "52d1902d",
    "removePermissionFromRole(uint256,string)": "f740bb6b",
    "removeRole(uint256)": "92691821",
    "removeRoleFromChannel(string,address,uint256)": "baaf3d57",
    "removeRoleFromEntitlement(uint256,(address,bytes))": "dba81864",
    "roleCount()": "ddf96358",
    "rolesById(uint256)": "e5894ef4",
    "setChannelAccess(string,bool)": "5de151b8",
    "setEntitlementModule(address,bool)": "441555e5",
    "setOwnerRoleId(uint256)": "4999ab16",
    "setSpaceAccess(bool)": "446dc22e",
    "token()": "fc0c546a",
    "tokenId()": "17d70f7c",
    "updateChannel(string,string)": "34a1dd26",
    "updateRole(uint256,string)": "32e704cc",
    "upgradeEntitlement(address,address)": "519607f2",
    "upgradeTo(address)": "3659cfe6",
    "upgradeToAndCall(address,bytes)": "4f1ef286"
  },
  "id": 13
}