{
  "abi": [
    {
      "inputs": [],
      "stateMutability": "nonpayable",
      "type": "constructor"
    },
    {
      "inputs": [],
      "name": "AddRoleFailed",
      "type": "error"
    },
    {
      "inputs": [],
      "name": "ChannelAlreadyRegistered",
      "type": "error"
    },
    {
      "inputs": [],
      "name": "ChannelDoesNotExist",
      "type": "error"
    },
    {
      "inputs": [],
      "name": "EntitlementAlreadyExists",
      "type": "error"
    },
    {
      "inputs": [],
      "name": "EntitlementAlreadyWhitelisted",
      "type": "error"
    },
    {
      "inputs": [],
      "name": "EntitlementModuleNotSupported",
      "type": "error"
    },
    {
      "inputs": [],
      "name": "EntitlementNotWhitelisted",
      "type": "error"
    },
    {
      "inputs": [],
      "name": "InvalidParameters",
      "type": "error"
    },
    {
      "inputs": [],
      "name": "MissingOwnerPermission",
      "type": "error"
    },
    {
      "inputs": [],
      "name": "NameContainsInvalidCharacters",
      "type": "error"
    },
    {
      "inputs": [],
      "name": "NameLengthInvalid",
      "type": "error"
    },
    {
      "inputs": [],
      "name": "NotAllowed",
      "type": "error"
    },
    {
      "inputs": [],
      "name": "PermissionAlreadyExists",
      "type": "error"
    },
    {
      "inputs": [],
      "name": "RoleDoesNotExist",
      "type": "error"
    },
    {
      "inputs": [],
      "name": "RoleIsAssignedToEntitlement",
      "type": "error"
    },
    {
      "anonymous": false,
      "inputs": [
        {
          "indexed": false,
          "internalType": "address",
          "name": "previousAdmin",
          "type": "address"
        },
        {
          "indexed": false,
          "internalType": "address",
          "name": "newAdmin",
          "type": "address"
        }
      ],
      "name": "AdminChanged",
      "type": "event"
    },
    {
      "anonymous": false,
      "inputs": [
        {
          "indexed": true,
          "internalType": "address",
          "name": "beacon",
          "type": "address"
        }
      ],
      "name": "BeaconUpgraded",
      "type": "event"
    },
    {
      "anonymous": false,
      "inputs": [
        {
          "indexed": false,
          "internalType": "uint8",
          "name": "version",
          "type": "uint8"
        }
      ],
      "name": "Initialized",
      "type": "event"
    },
    {
      "anonymous": false,
      "inputs": [
        {
          "indexed": true,
          "internalType": "address",
          "name": "implementation",
          "type": "address"
        }
      ],
      "name": "Upgraded",
      "type": "event"
    },
    {
      "inputs": [
        {
          "internalType": "uint256",
          "name": "_roleId",
          "type": "uint256"
        },
        {
          "internalType": "string[]",
          "name": "_permissions",
          "type": "string[]"
        }
      ],
      "name": "addPermissionsToRole",
      "outputs": [],
      "stateMutability": "nonpayable",
      "type": "function"
    },
    {
      "inputs": [
        {
          "internalType": "string",
          "name": "_channelNetworkId",
          "type": "string"
        },
        {
          "internalType": "address",
          "name": "_entitlement",
          "type": "address"
        },
        {
          "internalType": "uint256",
          "name": "_roleId",
          "type": "uint256"
        }
      ],
      "name": "addRoleToChannel",
      "outputs": [],
      "stateMutability": "nonpayable",
      "type": "function"
    },
    {
      "inputs": [
        {
          "internalType": "uint256",
          "name": "_roleId",
          "type": "uint256"
        },
        {
          "components": [
            {
              "internalType": "address",
              "name": "module",
              "type": "address"
            },
            {
              "internalType": "bytes",
              "name": "data",
              "type": "bytes"
            }
          ],
          "internalType": "struct DataTypes.Entitlement",
          "name": "_entitlement",
          "type": "tuple"
        }
      ],
      "name": "addRoleToEntitlement",
      "outputs": [],
      "stateMutability": "nonpayable",
      "type": "function"
    },
    {
      "inputs": [
        {
          "internalType": "uint256",
          "name": "",
          "type": "uint256"
        }
      ],
      "name": "channels",
      "outputs": [
        {
          "internalType": "bytes32",
          "name": "",
          "type": "bytes32"
        }
      ],
      "stateMutability": "view",
      "type": "function"
    },
    {
      "inputs": [
        {
          "internalType": "bytes32",
          "name": "",
          "type": "bytes32"
        }
      ],
      "name": "channelsByHash",
      "outputs": [
        {
          "internalType": "string",
          "name": "name",
          "type": "string"
        },
        {
          "internalType": "string",
          "name": "channelNetworkId",
          "type": "string"
        },
        {
          "internalType": "bytes32",
          "name": "channelHash",
          "type": "bytes32"
        },
        {
          "internalType": "uint256",
          "name": "createdAt",
          "type": "uint256"
        },
        {
          "internalType": "bool",
          "name": "disabled",
          "type": "bool"
        }
      ],
      "stateMutability": "view",
      "type": "function"
    },
    {
      "inputs": [
        {
          "internalType": "string",
          "name": "channelName",
          "type": "string"
        },
        {
          "internalType": "string",
          "name": "channelNetworkId",
          "type": "string"
        },
        {
          "internalType": "uint256[]",
          "name": "roleIds",
          "type": "uint256[]"
        }
      ],
      "name": "createChannel",
      "outputs": [
        {
          "internalType": "bytes32",
          "name": "",
          "type": "bytes32"
        }
      ],
      "stateMutability": "nonpayable",
      "type": "function"
    },
    {
      "inputs": [
        {
          "internalType": "string",
          "name": "_roleName",
          "type": "string"
        },
        {
          "internalType": "string[]",
          "name": "_permissions",
          "type": "string[]"
        },
        {
          "components": [
            {
              "internalType": "address",
              "name": "module",
              "type": "address"
            },
            {
              "internalType": "bytes",
              "name": "data",
              "type": "bytes"
            }
          ],
          "internalType": "struct DataTypes.Entitlement[]",
          "name": "_entitlements",
          "type": "tuple[]"
        }
      ],
      "name": "createRole",
      "outputs": [
        {
          "internalType": "uint256",
          "name": "",
          "type": "uint256"
        }
      ],
      "stateMutability": "nonpayable",
      "type": "function"
    },
    {
      "inputs": [
        {
          "internalType": "address",
          "name": "",
          "type": "address"
        }
      ],
      "name": "defaultEntitlements",
      "outputs": [
        {
          "internalType": "bool",
          "name": "",
          "type": "bool"
        }
      ],
      "stateMutability": "view",
      "type": "function"
    },
    {
      "inputs": [],
      "name": "disabled",
      "outputs": [
        {
          "internalType": "bool",
          "name": "",
          "type": "bool"
        }
      ],
      "stateMutability": "view",
      "type": "function"
    },
    {
      "inputs": [
        {
          "internalType": "uint256",
          "name": "",
          "type": "uint256"
        }
      ],
      "name": "entitlements",
      "outputs": [
        {
          "internalType": "address",
          "name": "",
          "type": "address"
        }
      ],
      "stateMutability": "view",
      "type": "function"
    },
    {
      "inputs": [
        {
          "internalType": "bytes32",
          "name": "_channelHash",
          "type": "bytes32"
        }
      ],
      "name": "getChannelByHash",
      "outputs": [
        {
          "components": [
            {
              "internalType": "string",
              "name": "name",
              "type": "string"
            },
            {
              "internalType": "string",
              "name": "channelNetworkId",
              "type": "string"
            },
            {
              "internalType": "bytes32",
              "name": "channelHash",
              "type": "bytes32"
            },
            {
              "internalType": "uint256",
              "name": "createdAt",
              "type": "uint256"
            },
            {
              "internalType": "bool",
              "name": "disabled",
              "type": "bool"
            }
          ],
          "internalType": "struct DataTypes.Channel",
          "name": "",
          "type": "tuple"
        }
      ],
      "stateMutability": "view",
      "type": "function"
    },
    {
      "inputs": [],
      "name": "getChannels",
      "outputs": [
        {
          "internalType": "bytes32[]",
          "name": "",
          "type": "bytes32[]"
        }
      ],
      "stateMutability": "view",
      "type": "function"
    },
    {
      "inputs": [
        {
          "internalType": "string",
          "name": "_moduleType",
          "type": "string"
        }
      ],
      "name": "getEntitlementByModuleType",
      "outputs": [
        {
          "internalType": "address",
          "name": "",
          "type": "address"
        }
      ],
      "stateMutability": "view",
      "type": "function"
    },
    {
      "inputs": [
        {
          "internalType": "uint256",
          "name": "_roleId",
          "type": "uint256"
        }
      ],
      "name": "getEntitlementIdsByRoleId",
      "outputs": [
        {
          "internalType": "bytes32[]",
          "name": "",
          "type": "bytes32[]"
        }
      ],
      "stateMutability": "view",
      "type": "function"
    },
    {
      "inputs": [],
      "name": "getEntitlementModules",
      "outputs": [
        {
          "components": [
            {
              "internalType": "string",
              "name": "name",
              "type": "string"
            },
            {
              "internalType": "address",
              "name": "module",
              "type": "address"
            },
            {
              "internalType": "string",
              "name": "moduleType",
              "type": "string"
            },
            {
              "internalType": "bool",
              "name": "enabled",
              "type": "bool"
            }
          ],
          "internalType": "struct DataTypes.EntitlementModule[]",
          "name": "_entitlementModules",
          "type": "tuple[]"
        }
      ],
      "stateMutability": "view",
      "type": "function"
    },
    {
      "inputs": [
        {
          "internalType": "uint256",
          "name": "_roleId",
          "type": "uint256"
        }
      ],
      "name": "getPermissionsByRoleId",
      "outputs": [
        {
          "internalType": "bytes32[]",
          "name": "",
          "type": "bytes32[]"
        }
      ],
      "stateMutability": "view",
      "type": "function"
    },
    {
      "inputs": [
        {
          "internalType": "uint256",
          "name": "_roleId",
          "type": "uint256"
        }
      ],
      "name": "getRoleById",
      "outputs": [
        {
          "components": [
            {
              "internalType": "uint256",
              "name": "roleId",
              "type": "uint256"
            },
            {
              "internalType": "string",
              "name": "name",
              "type": "string"
            }
          ],
          "internalType": "struct DataTypes.Role",
          "name": "",
          "type": "tuple"
        }
      ],
      "stateMutability": "view",
      "type": "function"
    },
    {
      "inputs": [],
      "name": "getRoles",
      "outputs": [
        {
          "components": [
            {
              "internalType": "uint256",
              "name": "roleId",
              "type": "uint256"
            },
            {
              "internalType": "string",
              "name": "name",
              "type": "string"
            }
          ],
          "internalType": "struct DataTypes.Role[]",
          "name": "",
          "type": "tuple[]"
        }
      ],
      "stateMutability": "view",
      "type": "function"
    },
    {
      "inputs": [
        {
          "internalType": "address",
          "name": "",
          "type": "address"
        }
      ],
      "name": "hasEntitlement",
      "outputs": [
        {
          "internalType": "bool",
          "name": "",
          "type": "bool"
        }
      ],
      "stateMutability": "view",
      "type": "function"
    },
    {
      "inputs": [
        {
          "internalType": "string",
          "name": "_name",
          "type": "string"
        },
        {
          "internalType": "string",
          "name": "_networkId",
          "type": "string"
        },
        {
          "internalType": "address[]",
          "name": "_entitlements",
          "type": "address[]"
        },
        {
          "internalType": "address",
          "name": "_token",
          "type": "address"
        },
        {
          "internalType": "uint256",
          "name": "_tokenId",
          "type": "uint256"
        }
      ],
      "name": "initialize",
      "outputs": [],
      "stateMutability": "nonpayable",
      "type": "function"
    },
    {
      "inputs": [
        {
          "internalType": "string",
          "name": "_channelNetworkId",
          "type": "string"
        },
        {
          "internalType": "address",
          "name": "_user",
          "type": "address"
        },
        {
          "internalType": "string",
          "name": "_permission",
          "type": "string"
        }
      ],
      "name": "isEntitledToChannel",
      "outputs": [
        {
          "internalType": "bool",
          "name": "_entitled",
          "type": "bool"
        }
      ],
      "stateMutability": "view",
      "type": "function"
    },
    {
      "inputs": [
        {
          "internalType": "address",
          "name": "_user",
          "type": "address"
        },
        {
          "internalType": "string",
          "name": "_permission",
          "type": "string"
        }
      ],
      "name": "isEntitledToSpace",
      "outputs": [
        {
          "internalType": "bool",
          "name": "_entitled",
          "type": "bool"
        }
      ],
      "stateMutability": "view",
      "type": "function"
    },
    {
      "inputs": [
        {
          "internalType": "bytes[]",
          "name": "data",
          "type": "bytes[]"
        }
      ],
      "name": "multicall",
      "outputs": [
        {
          "internalType": "bytes[]",
          "name": "results",
          "type": "bytes[]"
        }
      ],
      "stateMutability": "nonpayable",
      "type": "function"
    },
    {
      "inputs": [],
      "name": "name",
      "outputs": [
        {
          "internalType": "string",
          "name": "",
          "type": "string"
        }
      ],
      "stateMutability": "view",
      "type": "function"
    },
    {
      "inputs": [],
      "name": "networkId",
      "outputs": [
        {
          "internalType": "string",
          "name": "",
          "type": "string"
        }
      ],
      "stateMutability": "view",
      "type": "function"
    },
    {
      "inputs": [],
      "name": "owner",
      "outputs": [
        {
          "internalType": "address",
          "name": "",
          "type": "address"
        }
      ],
      "stateMutability": "view",
      "type": "function"
    },
    {
      "inputs": [],
      "name": "ownerRoleId",
      "outputs": [
        {
          "internalType": "uint256",
          "name": "",
          "type": "uint256"
        }
      ],
      "stateMutability": "view",
      "type": "function"
    },
    {
      "inputs": [],
      "name": "proxiableUUID",
      "outputs": [
        {
          "internalType": "bytes32",
          "name": "",
          "type": "bytes32"
        }
      ],
      "stateMutability": "view",
      "type": "function"
    },
    {
      "inputs": [
        {
          "internalType": "uint256",
          "name": "_roleId",
          "type": "uint256"
        },
        {
          "internalType": "string",
          "name": "_permission",
          "type": "string"
        }
      ],
      "name": "removePermissionFromRole",
      "outputs": [],
      "stateMutability": "nonpayable",
      "type": "function"
    },
    {
      "inputs": [
        {
          "internalType": "uint256",
          "name": "_roleId",
          "type": "uint256"
        }
      ],
      "name": "removeRole",
      "outputs": [],
      "stateMutability": "nonpayable",
      "type": "function"
    },
    {
      "inputs": [
        {
          "internalType": "string",
          "name": "_channelNetworkId",
          "type": "string"
        },
        {
          "internalType": "address",
          "name": "_entitlement",
          "type": "address"
        },
        {
          "internalType": "uint256",
          "name": "_roleId",
          "type": "uint256"
        }
      ],
      "name": "removeRoleFromChannel",
      "outputs": [],
      "stateMutability": "nonpayable",
      "type": "function"
    },
    {
      "inputs": [
        {
          "internalType": "uint256",
          "name": "_roleId",
          "type": "uint256"
        },
        {
          "components": [
            {
              "internalType": "address",
              "name": "module",
              "type": "address"
            },
            {
              "internalType": "bytes",
              "name": "data",
              "type": "bytes"
            }
          ],
          "internalType": "struct DataTypes.Entitlement",
          "name": "_entitlement",
          "type": "tuple"
        }
      ],
      "name": "removeRoleFromEntitlement",
      "outputs": [],
      "stateMutability": "nonpayable",
      "type": "function"
    },
    {
      "inputs": [],
      "name": "roleCount",
      "outputs": [
        {
          "internalType": "uint256",
          "name": "",
          "type": "uint256"
        }
      ],
      "stateMutability": "view",
      "type": "function"
    },
    {
      "inputs": [
        {
          "internalType": "uint256",
          "name": "",
          "type": "uint256"
        }
      ],
      "name": "rolesById",
      "outputs": [
        {
          "internalType": "uint256",
          "name": "roleId",
          "type": "uint256"
        },
        {
          "internalType": "string",
          "name": "name",
          "type": "string"
        }
      ],
      "stateMutability": "view",
      "type": "function"
    },
    {
      "inputs": [
        {
          "internalType": "string",
          "name": "channelNetworkId",
          "type": "string"
        },
        {
          "internalType": "bool",
          "name": "disableChannel",
          "type": "bool"
        }
      ],
      "name": "setChannelAccess",
      "outputs": [],
      "stateMutability": "nonpayable",
      "type": "function"
    },
    {
      "inputs": [
        {
          "internalType": "address",
          "name": "_entitlementModule",
          "type": "address"
        },
        {
          "internalType": "bool",
          "name": "_whitelist",
          "type": "bool"
        }
      ],
      "name": "setEntitlementModule",
      "outputs": [],
      "stateMutability": "nonpayable",
      "type": "function"
    },
    {
      "inputs": [
        {
          "internalType": "uint256",
          "name": "_roleId",
          "type": "uint256"
        }
      ],
      "name": "setOwnerRoleId",
      "outputs": [],
      "stateMutability": "nonpayable",
      "type": "function"
    },
    {
      "inputs": [
        {
          "internalType": "bool",
          "name": "_disabled",
          "type": "bool"
        }
      ],
      "name": "setSpaceAccess",
      "outputs": [],
      "stateMutability": "nonpayable",
      "type": "function"
    },
    {
      "inputs": [],
      "name": "token",
      "outputs": [
        {
          "internalType": "address",
          "name": "",
          "type": "address"
        }
      ],
      "stateMutability": "view",
      "type": "function"
    },
    {
      "inputs": [],
      "name": "tokenId",
      "outputs": [
        {
          "internalType": "uint256",
          "name": "",
          "type": "uint256"
        }
      ],
      "stateMutability": "view",
      "type": "function"
    },
    {
      "inputs": [
        {
          "internalType": "string",
          "name": "channelNetworkId",
          "type": "string"
        },
        {
          "internalType": "string",
          "name": "channelName",
          "type": "string"
        }
      ],
      "name": "updateChannel",
      "outputs": [],
      "stateMutability": "nonpayable",
      "type": "function"
    },
    {
      "inputs": [
        {
          "internalType": "uint256",
          "name": "_roleId",
          "type": "uint256"
        },
        {
          "internalType": "string",
          "name": "_roleName",
          "type": "string"
        }
      ],
      "name": "updateRole",
      "outputs": [],
      "stateMutability": "nonpayable",
      "type": "function"
    },
    {
      "inputs": [
        {
          "internalType": "address",
          "name": "_entitlement",
          "type": "address"
        },
        {
          "internalType": "address",
          "name": "_newEntitlement",
          "type": "address"
        }
      ],
      "name": "upgradeEntitlement",
      "outputs": [],
      "stateMutability": "nonpayable",
      "type": "function"
    },
    {
      "inputs": [
        {
          "internalType": "address",
          "name": "newImplementation",
          "type": "address"
        }
      ],
      "name": "upgradeTo",
      "outputs": [],
      "stateMutability": "nonpayable",
      "type": "function"
    },
    {
      "inputs": [
        {
          "internalType": "address",
          "name": "newImplementation",
          "type": "address"
        },
        {
          "internalType": "bytes",
          "name": "data",
          "type": "bytes"
        }
      ],
      "name": "upgradeToAndCall",
      "outputs": [],
      "stateMutability": "payable",
      "type": "function"
    }
  ],
  "bytecode": {
    "object": "0x60a0604052306080523480156200001557600080fd5b506200002062000026565b620000e7565b600054610100900460ff1615620000935760405162461bcd60e51b815260206004820152602760248201527f496e697469616c697a61626c653a20636f6e747261637420697320696e697469604482015266616c697a696e6760c81b606482015260840160405180910390fd5b60005460ff90811614620000e5576000805460ff191660ff9081179091556040519081527f7f26b83ff96e1f2b6a682f133852f6798a09c465da95921460cefb38474024989060200160405180910390a15b565b6080516152ed6200011f6000396000818161104801528181611091015281816113e201528181611422015261193601526152ed6000f3fe6080604052600436106102725760003560e01c8063870b94641161014f578063cea632bc116100c1578063ee0708051161007a578063ee070805146107aa578063f28f9b56146107c4578063f3ce6a5b146107e4578063f740bb6b14610804578063fa6433c514610824578063fc0c546a1461085457600080fd5b8063cea632bc146106f0578063d1a6a96114610710578063dba8186414610726578063ddf9635814610746578063e5894ef41461075c578063e5949b5d1461078a57600080fd5b80639575f6ac116101135780639575f6ac1461062e578063ac9650d814610643578063b426423314610670578063b751576114610690578063ba201ba8146106b0578063baaf3d57146106d057600080fd5b8063870b94641461058c5780638da5cb5b146105c45780638fcd793d146105d95780639025e64c146105f9578063926918211461060e57600080fd5b8063446dc22e116101e857806352d1902d116101ac57806352d1902d146104ab5780635de151b8146104c0578063703511f8146104e0578063710613981461050d578063784c872b1461052f5780637f8d06d01461055c57600080fd5b8063446dc22e146104185780634999ab16146104385780634f1ef28614610458578063519607f21461046b57806351f83cea1461048b57600080fd5b806320759f9e1161023a57806320759f9e1461033b57806332e704cc1461036b57806334a1dd261461038b5780633659cfe6146103ab57806342486e49146103cb578063441555e5146103f857600080fd5b806306fdde03146102775780630d029f75146102a2578063129ab3c8146102c457806317d70f7c146102f55780631dea616a14610319575b600080fd5b34801561028357600080fd5b5061028c610874565b6040516102999190613f89565b60405180910390f35b3480156102ae57600080fd5b506102b7610902565b6040516102999190613f9c565b3480156102d057600080fd5b506102e46102df366004614045565b610b43565b60405161029995949392919061405e565b34801561030157600080fd5b5061030b609c5481565b604051908152602001610299565b34801561032557600080fd5b50610339610334366004614110565b610c86565b005b34801561034757600080fd5b5061035b61035636600461416c565b610dbd565b6040519015158152602001610299565b34801561037757600080fd5b50610339610386366004614283565b610e33565b34801561039757600080fd5b506103396103a63660046142c9565b610f4f565b3480156103b757600080fd5b506103396103c6366004614334565b61103e565b3480156103d757600080fd5b506103eb6103e6366004614045565b611126565b6040516102999190614351565b34801561040457600080fd5b506103396104133660046143a3565b611188565b34801561042457600080fd5b506103396104333660046143dc565b61125c565b34801561044457600080fd5b50610339610453366004614045565b611294565b6103396104663660046143f9565b6113d8565b34801561047757600080fd5b50610339610486366004614432565b6114a4565b34801561049757600080fd5b5061030b6104a6366004614483565b6115bf565b3480156104b757600080fd5b5061030b611929565b3480156104cc57600080fd5b506103396104db366004614564565b6119dc565b3480156104ec57600080fd5b506105006104fb366004614045565b611aa2565b60405161029991906145ba565b34801561051957600080fd5b50610522611c33565b6040516102999190614647565b34801561053b57600080fd5b5061054f61054a366004614045565b611da1565b60405161029991906146a9565b34801561056857600080fd5b5061035b610577366004614334565b609d6020526000908152604090205460ff1681565b34801561059857600080fd5b506105ac6105a73660046146bc565b611e77565b6040516001600160a01b039091168152602001610299565b3480156105d057600080fd5b506105ac611f60565b3480156105e557600080fd5b5061030b6105f43660046147f3565b611fd7565b34801561060557600080fd5b5061028c612302565b34801561061a57600080fd5b50610339610629366004614045565b61230f565b34801561063a57600080fd5b506103eb612446565b34801561064f57600080fd5b5061066361065e3660046148ee565b61249e565b6040516102999190614962565b34801561067c57600080fd5b506103eb61068b366004614045565b6125b5565b34801561069c57600080fd5b506103396106ab3660046149b7565b612615565b3480156106bc57600080fd5b506103396106cb3660046149f3565b6127b2565b3480156106dc57600080fd5b506103396106eb366004614110565b61288b565b3480156106fc57600080fd5b5061035b61070b366004614a2f565b61298a565b34801561071c57600080fd5b5061030b609a5481565b34801561073257600080fd5b50610339610741366004614ab3565b612adc565b34801561075257600080fd5b5061030b60a15481565b34801561076857600080fd5b5061077c610777366004614045565b612d45565b604051610299929190614af5565b34801561079657600080fd5b5061030b6107a5366004614045565b612dea565b3480156107b657600080fd5b5060995461035b9060ff1681565b3480156107d057600080fd5b506105ac6107df366004614045565b612e0b565b3480156107f057600080fd5b506103396107ff366004614b0e565b612e35565b34801561081057600080fd5b5061033961081f366004614283565b613019565b34801561083057600080fd5b5061035b61083f366004614334565b609e6020526000908152604090205460ff1681565b34801561086057600080fd5b50609b546105ac906001600160a01b031681565b6097805461088190614c0d565b80601f01602080910402602001604051908101604052809291908181526020018280546108ad90614c0d565b80156108fa5780601f106108cf576101008083540402835291602001916108fa565b820191906000526020600020905b8154815290600101906020018083116108dd57829003601f168201915b505050505081565b60a0546060906001600160401b0381111561091f5761091f6141c0565b60405190808252806020026020018201604052801561097257816020015b6040805160808101825260608082526000602080840182905293830182905290820152825260001990920191018161093d5790505b50905060005b60a054811015610b3f57600060a0828154811061099757610997614c41565b600091825260208220015460408051608081018083526306fdde0360e01b905290516001600160a01b03909216935091829184916306fdde039160848086019291908187030181865afa1580156109f2573d6000803e3d6000fd5b505050506040513d6000823e601f3d908101601f19168201604052610a1a9190810190614c57565b815260200160a08481548110610a3257610a32614c41565b9060005260206000200160009054906101000a90046001600160a01b03166001600160a01b03168152602001826001600160a01b0316636465e69f6040518163ffffffff1660e01b8152600401600060405180830381865afa158015610a9c573d6000803e3d6000fd5b505050506040513d6000823e601f3d908101601f19168201604052610ac49190810190614c57565b8152602001609d600060a08681548110610ae057610ae0614c41565b60009182526020808320909101546001600160a01b0316835282019290925260400190205460ff16151590528351849084908110610b2057610b20614c41565b6020026020010181905250508080610b3790614cda565b915050610978565b5090565b60a460205260009081526040902080548190610b5e90614c0d565b80601f0160208091040260200160405190810160405280929190818152602001828054610b8a90614c0d565b8015610bd75780601f10610bac57610100808354040283529160200191610bd7565b820191906000526020600020905b815481529060010190602001808311610bba57829003601f168201915b505050505090806001018054610bec90614c0d565b80601f0160208091040260200160405190810160405280929190818152602001828054610c1890614c0d565b8015610c655780601f10610c3a57610100808354040283529160200191610c65565b820191906000526020600020905b815481529060010190602001808311610c4857829003601f168201915b50505050600283015460038401546004909401549293909290915060ff1685565b610cee84848080601f0160208091040260200160405190810160405280939291908181526020018383808284376000920191909152505060408051808201909152601181527041646452656d6f76654368616e6e656c7360781b602082015291506132009050565b6001600160a01b0382166000908152609d602052604090205460ff16610d275760405163c1ef36f360e01b815260040160405180910390fd5b600081815260a260205260408120549003610d555760405163b810dc5d60e01b815260040160405180910390fd5b60405163c513be7760e01b81526001600160a01b0383169063c513be7790610d8590879087908690600401614d1c565b600060405180830381600087803b158015610d9f57600080fd5b505af1158015610db3573d6000803e3d6000fd5b5050505050505050565b6000805b60a054811015610e2b57610e0f60405180602001604052806000815250868686604051602001610df2929190614d40565b604051602081830303815290604052610e0a90614d50565b613254565b15610e1957600191505b80610e2381614cda565b915050610dc1565b509392505050565b610e6f60405180602001604052806000815250604051806040016040528060168152602001600080516020615271833981519152815250613200565b610e788161330d565b609a548203610e9a57604051631eb49d6d60e11b815260040160405180910390fd5b600082815260a260205260408120549003610ec85760405163b810dc5d60e01b815260040160405180910390fd5b8051600003610eea57604051630e52390960e41b815260040160405180910390fd5b600082815260a260205260409020600101610f058282614dba565b5081336001600160a01b03167ff3c55faf0b13ffa681c984baddbb8ef7638e514188ea19bd6461d7f87b9c7953836098604051610f43929190614ef6565b60405180910390a35050565b610f91604051806020016040528060008152506040518060400160405280601181526020017041646452656d6f76654368616e6e656c7360781b815250613200565b610f9b828261333e565b60008484604051602001610fb0929190614d40565b60408051601f198184030181529181528151602092830120600081815260a4909352908220600201549092509003610ffb57604051636ddd9da960e01b815260040160405180910390fd5b600082900361101d57604051631eb49d6d60e11b815260040160405180910390fd5b600081815260a460205260409020611036838583614f1b565b505050505050565b6001600160a01b037f000000000000000000000000000000000000000000000000000000000000000016300361108f5760405162461bcd60e51b815260040161108690614fda565b60405180910390fd5b7f00000000000000000000000000000000000000000000000000000000000000006001600160a01b03166110d8600080516020615251833981519152546001600160a01b031690565b6001600160a01b0316146110fe5760405162461bcd60e51b815260040161108690615026565b61110781613553565b6040805160008082526020820190925261112391839190613589565b50565b6000818152609f602090815260409182902080548351818402810184019094528084526060939283018282801561117c57602002820191906000526020600020905b815481526020019060010190808311611168575b50505050509050919050565b6111be604051806020016040528060008152506040518060400160405280600581526020016427bbb732b960d91b815250613200565b6111c7826136f4565b8080156111ec57506001600160a01b0382166000908152609d602052604090205460ff165b1561120a5760405163186abc9b60e01b815260040160405180910390fd5b8015801561123057506001600160a01b0382166000908152609e602052604090205460ff165b1561124e57604051631eb49d6d60e11b815260040160405180910390fd5b6112588282613785565b5050565b611264613906565b61128157604051631eb49d6d60e11b815260040160405180910390fd5b6099805460ff1916911515919091179055565b61129c613906565b6112b957604051631eb49d6d60e11b815260040160405180910390fd5b609a54156112da57604051631eb49d6d60e11b815260040160405180910390fd5b600081815260a2602052604081205490036113085760405163b810dc5d60e01b815260040160405180910390fd5b6000805b600083815260a360205260409020548110156113b3576040518060400160405280600581526020016427bbb732b960d91b8152506040516020016113509190615072565b60405160208183030381529060405261136890614d50565b600084815260a36020526040902080548390811061138857611388614c41565b9060005260206000200154036113a157600191506113b3565b806113ab81614cda565b91505061130c565b50806113d257604051633e74bd6360e21b815260040160405180910390fd5b50609a55565b6001600160a01b037f00000000000000000000000000000000000000000000000000000000000000001630036114205760405162461bcd60e51b815260040161108690614fda565b7f00000000000000000000000000000000000000000000000000000000000000006001600160a01b0316611469600080516020615251833981519152546001600160a01b031690565b6001600160a01b03161461148f5760405162461bcd60e51b815260040161108690615026565b61149882613553565b61125882826001613589565b6114da604051806020016040528060008152506040518060400160405280600581526020016427bbb732b960d91b815250613200565b6001600160a01b03821615806114f757506001600160a01b038116155b1561151557604051630e52390960e41b815260040160405180910390fd5b6001600160a01b0382166000908152609d602052604090205460ff1661154e5760405163c1ef36f360e01b815260040160405180910390fd5b604051631b2ce7f360e11b81526001600160a01b038281166004830152831690633659cfe690602401600060405180830381600087803b15801561159157600080fd5b505af19250505080156115a2575060015b61125857604051630e52390960e41b815260040160405180910390fd5b6000611603604051806020016040528060008152506040518060400160405280601181526020017041646452656d6f76654368616e6e656c7360781b815250613200565b61160d858561333e565b6000836040516020016116209190615072565b60408051601f198184030181529181528151602092830120600081815260a49093529120600201549091501561166957604051630139324b60e41b815260040160405180910390fd5b6040518060a0016040528087878080601f016020809104026020016040519081016040528093929190818152602001838380828437600092018290525093855250505060208083018890526040808401869052426060850152608090930182905284825260a4905220815181906116e09082614dba565b50602082015160018201906116f59082614dba565b5060408201516002820155606082015160038201556080909101516004909101805460ff191691151591909117905560a5805460018101825560009182527fb29a2b3b6f2ff1b765777a231725941da5072cc4fcc30ac4a2ce09706e8ddeff018290555b60a05481101561191f57600060a0828154811061177857611778614c41565b600091825260209091200154609a5460405163c513be7760e01b81526001600160a01b039092169250829163c513be77916117b8918a919060040161508e565b600060405180830381600087803b1580156117d257600080fd5b505af11580156117e6573d6000803e3d6000fd5b5050505060005b855181101561190a57609a5486828151811061180b5761180b614c41565b602002602001015103156118f85760a2600087838151811061182f5761182f614c41565b60200260200101518152602001908152602001600020600001546000036118695760405163b810dc5d60e01b815260040160405180910390fd5b816001600160a01b031663c513be778888848151811061188b5761188b614c41565b60200260200101516040518363ffffffff1660e01b81526004016118b092919061508e565b600060405180830381600087803b1580156118ca57600080fd5b505af19250505080156118db575060015b6118f85760405163d9afe50760e01b815260040160405180910390fd5b8061190281614cda565b9150506117ed565b5050808061191790614cda565b915050611759565b5095945050505050565b6000306001600160a01b037f000000000000000000000000000000000000000000000000000000000000000016146119c95760405162461bcd60e51b815260206004820152603860248201527f555550535570677261646561626c653a206d757374206e6f742062652063616c60448201527f6c6564207468726f7567682064656c656761746563616c6c00000000000000006064820152608401611086565b5060008051602061525183398151915290565b611a1e604051806020016040528060008152506040518060400160405280601181526020017041646452656d6f76654368616e6e656c7360781b815250613200565b60008383604051602001611a33929190614d40565b60408051601f198184030181529181528151602092830120600081815260a4909352908220600201549092509003611a7e57604051636ddd9da960e01b815260040160405180910390fd5b600090815260a460205260409020600401805460ff19169115159190911790555050565b6040805160a081018252606080825260208201819052600092820183905281018290526080810191909152600082815260a4602052604090819020815160a08101909252805482908290611af590614c0d565b80601f0160208091040260200160405190810160405280929190818152602001828054611b2190614c0d565b8015611b6e5780601f10611b4357610100808354040283529160200191611b6e565b820191906000526020600020905b815481529060010190602001808311611b5157829003601f168201915b50505050508152602001600182018054611b8790614c0d565b80601f0160208091040260200160405190810160405280929190818152602001828054611bb390614c0d565b8015611c005780601f10611bd557610100808354040283529160200191611c00565b820191906000526020600020905b815481529060010190602001808311611be357829003601f168201915b5050509183525050600282015460208201526003820154604082015260049091015460ff16151560609091015292915050565b6060600060a1546001600160401b03811115611c5157611c516141c0565b604051908082528060200260200182016040528015611c9757816020015b604080518082019091526000815260606020820152815260200190600190039081611c6f5790505b50905060005b60a154811015611d9b5760a26000611cb68360016150b0565b815260200190815260200160002060405180604001604052908160008201548152602001600182018054611ce990614c0d565b80601f0160208091040260200160405190810160405280929190818152602001828054611d1590614c0d565b8015611d625780601f10611d3757610100808354040283529160200191611d62565b820191906000526020600020905b815481529060010190602001808311611d4557829003601f168201915b505050505081525050828281518110611d7d57611d7d614c41565b60200260200101819052508080611d9390614cda565b915050611c9d565b50919050565b60408051808201909152600081526060602082015260a2600083815260200190815260200160002060405180604001604052908160008201548152602001600182018054611dee90614c0d565b80601f0160208091040260200160405190810160405280929190818152602001828054611e1a90614c0d565b8015611e675780601f10611e3c57610100808354040283529160200191611e67565b820191906000526020600020905b815481529060010190602001808311611e4a57829003601f168201915b5050505050815250509050919050565b60008060005b60a054811015611f5957611f1760a08281548110611e9d57611e9d614c41565b600091825260208220015460408051636465e69f60e01b815290516001600160a01b0390921692636465e69f926004808401938290030181865afa158015611ee9573d6000803e3d6000fd5b505050506040513d6000823e601f3d908101601f19168201604052611f119190810190614c57565b8561398d565b15611f475760a08181548110611f2f57611f2f614c41565b6000918252602090912001546001600160a01b031691505b80611f5181614cda565b915050611e7d565b5092915050565b609b54609c546040516331a9108f60e11b815260048101919091526000916001600160a01b031690636352211e90602401602060405180830381865afa158015611fae573d6000803e3d6000fd5b505050506040513d601f19601f82011682018060405250810190611fd291906150c3565b905090565b600061201560405180602001604052806000815250604051806040016040528060168152602001600080516020615271833981519152815250613200565b61205485858080601f01602080910402602001604051908101604052809392919081815260200183838082843760009201919091525061330d92505050565b600060a16000815461206590614cda565b91905081905590506000604051806040016040528083815260200188888080601f016020809104026020016040519081016040528093929190818152602001838380828437600092018290525093909452505084815260a2602090815260409091208351815590830151929350839290915060018201906120e69082614dba565b5090505060005b85518110156121d657609a5415158015612142575061214286828151811061211757612117614c41565b60200260200101516040518060400160405280600581526020016427bbb732b960d91b81525061398d565b1561216057604051631eb49d6d60e11b815260040160405180910390fd5b600086828151811061217457612174614c41565b602002602001015160405160200161218c9190615072565b6040516020818303038152906040526121a490614d50565b600085815260a360209081526040822080546001810182559083529120015550806121ce81614cda565b9150506120ed565b5060005b84518110156122b05760008582815181106121f7576121f7614c41565b6020026020010151600001519050600086838151811061221957612219614c41565b602002602001015160200151905060006001600160a01b0316826001600160a01b0316148061224757508051155b1561225357505061229e565b6001600160a01b0382166000908152609d602052604081205460ff16151590036122905760405163c1ef36f360e01b815260040160405180910390fd5b61229b8583836139e7565b50505b806122a881614cda565b9150506121da565b5081336001600160a01b03167f39772407c6dd2e83adbd292cdfa17a6817c9a7500e56cfe57b7a82d797f8d39b898960986040516122f0939291906150e0565b60405180910390a35095945050505050565b6098805461088190614c0d565b61234b60405180602001604052806000815250604051806040016040528060168152602001600080516020615271833981519152815250613200565b609a54810361236d57604051631eb49d6d60e11b815260040160405180910390fd5b600081815260a26020526040812054900361239b5760405163b810dc5d60e01b815260040160405180910390fd5b6000818152609f6020526040902054156123c857604051633764405360e11b815260040160405180910390fd5b600081815260a260205260408120818155906123e76001830182613ed0565b5050600081815260a36020526040812061240091613f0a565b80336001600160a01b03167f1d5667a301e36f2d5b1ee32b7f187b0adb46c706297242fa945d3fed1e7f8a19609860405161243b9190615110565b60405180910390a350565b606060a580548060200260200160405190810160405280929190818152602001828054801561249457602002820191906000526020600020905b815481526020019060010190808311612480575b5050505050905090565b6060816001600160401b038111156124b8576124b86141c0565b6040519080825280602002602001820160405280156124eb57816020015b60608152602001906001900390816124d65790505b50905060005b82811015611f59576000803086868581811061250f5761250f614c41565b90506020028101906125219190615123565b60405161252f929190614d40565b600060405180830381855af49150503d806000811461256a576040519150601f19603f3d011682016040523d82523d6000602084013e61256f565b606091505b5091509150816125825761258281613b57565b8084848151811061259557612595614c41565b6020026020010181905250505080806125ad90614cda565b9150506124f1565b600081815260a3602090815260409182902080548351818402810184019094528084526060939283018282801561117c57602002820191906000526020600020908154815260200190600101908083116111685750505050509050919050565b61265160405180602001604052806000815250604051806040016040528060168152602001600080516020615271833981519152815250613200565b600082815260a26020526040812054900361267f5760405163b810dc5d60e01b815260040160405180910390fd5b60005b81518110156127ad576126a082828151811061211757612117614c41565b156126be57604051631eb49d6d60e11b815260040160405180910390fd5b60008282815181106126d2576126d2614c41565b60200260200101516040516020016126ea9190615072565b60405160208183030381529060405261270290614d50565b905060005b600085815260a3602052604090205481101561277b57600085815260a36020526040902080548391908390811061274057612740614c41565b90600052602060002001540361276957604051636571d65f60e01b815260040160405180910390fd5b8061277381614cda565b915050612707565b50600084815260a3602090815260408220805460018101825590835291200155806127a581614cda565b915050612682565b505050565b6127ee60405180602001604052806000815250604051806040016040528060168152602001600080516020615271833981519152815250613200565b80516001600160a01b03166000908152609d602052604090205460ff166128285760405163c1ef36f360e01b815260040160405180910390fd5b600082815260a2602052604081205490036128565760405163b810dc5d60e01b815260040160405180910390fd5b609a54820361287857604051631eb49d6d60e11b815260040160405180910390fd5b61125882826000015183602001516139e7565b6128f384848080601f0160208091040260200160405190810160405280939291908181526020018383808284376000920191909152505060408051808201909152601181527041646452656d6f76654368616e6e656c7360781b602082015291506132009050565b6001600160a01b0382166000908152609d602052604090205460ff1661292c5760405163c1ef36f360e01b815260040160405180910390fd5b600081815260a26020526040812054900361295a5760405163b810dc5d60e01b815260040160405180910390fd5b604051637997c1e760e11b81526001600160a01b0383169063f32f83ce90610d8590879087908690600401614d1c565b6000841580612997575081155b806129a957506001600160a01b038416155b156129c757604051630e52390960e41b815260040160405180910390fd5b600086866040516020016129dc929190614d40565b60408051601f198184030181529181528151602092830120600081815260a4909352908220600201549092509003612a2757604051636ddd9da960e01b815260040160405180910390fd5b600081815260a4602052604090206004015460ff1615612a5a57604051631eb49d6d60e11b815260040160405180910390fd5b60005b60a054811015612ad157612ab588888080601f016020809104026020016040519081016040528093929190818152602001838380828437600092019190915250506040518a9250610df2915089908990602001614d40565b15612abf57600192505b80612ac981614cda565b915050612a5d565b505095945050505050565b612b1860405180602001604052806000815250604051806040016040528060168152602001600080516020615271833981519152815250613200565b609a548203612b3a57604051631eb49d6d60e11b815260040160405180910390fd5b609d6000612b4b6020840184614334565b6001600160a01b0316815260208101919091526040016000205460ff16612b855760405163c1ef36f360e01b815260040160405180910390fd5b600082815260a260205260408120549003612bb35760405163b810dc5d60e01b815260040160405180910390fd5b600082612bc36020840184615123565b604051602001612bd593929190615169565b60408051601f1981840301815291815281516020928301206000868152609f909352908220909250905b8154811015612cb357818181548110612c1a57612c1a614c41565b90600052602060002001548303612ca15781548290612c3b90600190615183565b81548110612c4b57612c4b614c41565b9060005260206000200154828281548110612c6857612c68614c41565b906000526020600020018190555081805480612c8657612c86615196565b60019003818190600052602060002001600090559055612cb3565b80612cab81614cda565b915050612bff565b50612cc16020840184614334565b6001600160a01b031663fa6d1adf85612cdd6020870187615123565b6040518463ffffffff1660e01b8152600401612cfb939291906151ac565b6020604051808303816000875af1158015612d1a573d6000803e3d6000fd5b505050506040513d601f19601f82011682018060405250810190612d3e91906151c6565b5050505050565b60a26020526000908152604090208054600182018054919291612d6790614c0d565b80601f0160208091040260200160405190810160405280929190818152602001828054612d9390614c0d565b8015612de05780601f10612db557610100808354040283529160200191612de0565b820191906000526020600020905b815481529060010190602001808311612dc357829003601f168201915b5050505050905082565b60a58181548110612dfa57600080fd5b600091825260209091200154905081565b60a08181548110612e1b57600080fd5b6000918252602090912001546001600160a01b0316905081565b600054610100900460ff1615808015612e555750600054600160ff909116105b80612e6f5750303b158015612e6f575060005460ff166001145b612ed25760405162461bcd60e51b815260206004820152602e60248201527f496e697469616c697a61626c653a20636f6e747261637420697320616c72656160448201526d191e481a5b9a5d1a585b1a5e995960921b6064820152608401611086565b6000805460ff191660011790558015612ef5576000805461ff0019166101001790555b612efd613c24565b612f05613c24565b6097612f118782614dba565b506098612f1e8682614dba565b50609b80546001600160a01b0319166001600160a01b038516179055609c82905560005b8451811015612fcb57612f6f858281518110612f6057612f60614c41565b60200260200101516001613785565b6001609e6000878481518110612f8757612f87614c41565b6020908102919091018101516001600160a01b03168252810191909152604001600020805460ff191691151591909117905580612fc381614cda565b915050612f42565b508015611036576000805461ff0019169055604051600181527f7f26b83ff96e1f2b6a682f133852f6798a09c465da95921460cefb38474024989060200160405180910390a1505050505050565b61305560405180602001604052806000815250604051806040016040528060168152602001600080516020615271833981519152815250613200565b61307c816040518060400160405280600581526020016427bbb732b960d91b81525061398d565b1561309a57604051631eb49d6d60e11b815260040160405180910390fd5b600082815260a2602052604081205490036130c85760405163b810dc5d60e01b815260040160405180910390fd5b6000816040516020016130db9190615072565b6040516020818303038152906040526130f390614d50565b905060005b600084815260a360205260409020548110156131fa57600084815260a36020526040902080548391908390811061313157613131614c41565b9060005260206000200154036131e857600084815260a360205260409020805461315d90600190615183565b8154811061316d5761316d614c41565b906000526020600020015460a36000868152602001908152602001600020828154811061319c5761319c614c41565b906000526020600020018190555060a360008581526020019081526020016000208054806131cc576131cc615196565b6001900381819060005260206000200160009055905550505050565b806131f281614cda565b9150506130f8565b50505050565b613208613906565b80613232575060995460ff161580156132325750613232823383604051602001610df29190615072565b1561323b575050565b604051631eb49d6d60e11b815260040160405180910390fd5b6000805b60a054811015610e2b5760a0818154811061327557613275614c41565b60009182526020909120015460405162169d5560e31b81526001600160a01b039091169062b4eaa8906132b0908890889088906004016151df565b602060405180830381865afa1580156132cd573d6000803e3d6000fd5b505050506040513d601f19601f820116820180604052508101906132f1919061520d565b156132fb57600191505b8061330581614cda565b915050613258565b8051819060021180613320575080516020105b156112585760405163354b556f60e11b815260040160405180910390fd5b600082828080601f01602080910402602001604051908101604052809392919081815260200183838082843760009201919091525050825192935050600290911090508061338d575080516020105b156133ab5760405163354b556f60e11b815260040160405180910390fd5b805160005b81811015612d3e57600360fc1b8382815181106133cf576133cf614c41565b01602001516001600160f81b031916108061340d5750603d60f91b8382815181106133fc576133fc614c41565b01602001516001600160f81b031916115b806134695750603960f81b83828151811061342a5761342a614c41565b01602001516001600160f81b0319161180156134695750606160f81b83828151811061345857613458614c41565b01602001516001600160f81b031916105b801561349a575082818151811061348257613482614c41565b6020910101516001600160f81b031916601760f91b14155b80156134cb57508281815181106134b3576134b3614c41565b6020910101516001600160f81b031916602d60f81b14155b80156134fc57508281815181106134e4576134e4614c41565b6020910101516001600160f81b031916605f60f81b14155b801561352d575082818151811061351557613515614c41565b6020910101516001600160f81b031916600160fd1b14155b1561354b5760405163f8fa659760e01b815260040160405180910390fd5b6001016133b0565b611123604051806020016040528060008152506040518060400160405280600581526020016427bbb732b960d91b815250613200565b7f4910fdfa16fed3260ed0e7147f7cc6da11a60208b5b9406d12a635614ffd91435460ff16156135bc576127ad83613c91565b826001600160a01b03166352d1902d6040518163ffffffff1660e01b8152600401602060405180830381865afa925050508015613616575060408051601f3d908101601f19168201909252613613918101906151c6565b60015b6136795760405162461bcd60e51b815260206004820152602e60248201527f45524331393637557067726164653a206e657720696d706c656d656e7461746960448201526d6f6e206973206e6f74205555505360901b6064820152608401611086565b60008051602061525183398151915281146136e85760405162461bcd60e51b815260206004820152602960248201527f45524331393637557067726164653a20756e737570706f727465642070726f786044820152681a58589b195555525160ba1b6064820152608401611086565b506127ad838383613d2d565b6040516301ffc9a760e01b815263e5e65adf60e01b60048201526001600160a01b038216906301ffc9a790602401602060405180830381865afa15801561373f573d6000803e3d6000fd5b505050506040513d601f19601f82011682018060405250810190613763919061520d565b151560000361112357604051636d9250f160e11b815260040160405180910390fd5b6001600160a01b0382166000908152609d60205260409020805460ff191682158015919091179091556138035760a080546001810182556000919091527f78fdc8d422c49ced035a9edf18d00d3c6a8d81df210f3e5e448e045e77b41e880180546001600160a01b0384166001600160a01b03199091161790555050565b60005b60a0548110156127ad5760a0818154811061382357613823614c41565b6000918252602090912001546001600160a01b03908116908416036138f45760a0805461385290600190615183565b8154811061386257613862614c41565b60009182526020909120015460a080546001600160a01b03909216918390811061388e5761388e614c41565b9060005260206000200160006101000a8154816001600160a01b0302191690836001600160a01b0316021790555060a08054806138cd576138cd615196565b600082815260209020810160001990810180546001600160a01b0319169055019055505050565b806138fe81614cda565b915050613806565b600033609b54609c546040516331a9108f60e11b815260048101919091526001600160a01b039283169290911690636352211e90602401602060405180830381865afa15801561395a573d6000803e3d6000fd5b505050506040513d601f19601f8201168201806040525081019061397e91906150c3565b6001600160a01b031614905090565b6000816040516020016139a09190615072565b60405160208183030381529060405280519060200120836040516020016139c79190615072565b604051602081830303815290604052805190602001201490505b92915050565b600083826040516020016139fc92919061522a565b60408051601f1981840301815282825280516020918201206000888152609f835283812080548085028701850190955284865291955093929091830182828015613a6557602002820191906000526020600020905b815481526020019060010190808311613a51575b5050505050905060005b8151811015613ac35782828281518110613a8b57613a8b614c41565b602002602001015103613ab15760405163c5c9ad6760e01b815260040160405180910390fd5b80613abb81614cda565b915050613a6f565b506000858152609f602090815260408083208054600181018255908452919092200183905551633be2f95d60e21b81526001600160a01b0385169063ef8be57490613b149088908790600401614af5565b6020604051808303816000875af1158015613b33573d6000803e3d6000fd5b505050506040513d601f19601f8201168201806040525081019061103691906151c6565b600481511015613b9c5760405162461bcd60e51b815260206004820152601060248201526f1d5b9a185b991b1959081c995d995c9d60821b6044820152606401611086565b602081015163b1b7848f60e01b6001600160e01b0319821601613c1b57604080518082018252600e81526d70616e69636b65643a2030785f5f60901b602082018181526024860151600481811c600f908116603090810160081b9184160117909317909152925162461bcd60e51b815291929161108691849101613f89565b81518060208401fd5b600054610100900460ff16613c8f5760405162461bcd60e51b815260206004820152602b60248201527f496e697469616c697a61626c653a20636f6e7472616374206973206e6f74206960448201526a6e697469616c697a696e6760a81b6064820152608401611086565b565b6001600160a01b0381163b613cfe5760405162461bcd60e51b815260206004820152602d60248201527f455243313936373a206e657720696d706c656d656e746174696f6e206973206e60448201526c1bdd08184818dbdb9d1c9858dd609a1b6064820152608401611086565b60008051602061525183398151915280546001600160a01b0319166001600160a01b0392909216919091179055565b613d3683613d52565b600082511180613d435750805b156127ad576131fa8383613d92565b613d5b81613c91565b6040516001600160a01b038216907fbc7cd75a20ee27fd9adebab32041f755214dbc6bffa90cc0225b39da2e5c2d3b90600090a250565b60606001600160a01b0383163b613dfa5760405162461bcd60e51b815260206004820152602660248201527f416464726573733a2064656c65676174652063616c6c20746f206e6f6e2d636f6044820152651b9d1c9858dd60d21b6064820152608401611086565b600080846001600160a01b031684604051613e159190615072565b600060405180830381855af49150503d8060008114613e50576040519150601f19603f3d011682016040523d82523d6000602084013e613e55565b606091505b5091509150613e7d828260405180606001604052806027815260200161529160279139613e86565b95945050505050565b60608315613e95575081613e9f565b613e9f8383613ea6565b9392505050565b815115613eb65781518083602001fd5b8060405162461bcd60e51b81526004016110869190613f89565b508054613edc90614c0d565b6000825580601f10613eec575050565b601f0160209004906000526020600020908101906111239190613f24565b508054600082559060005260206000209081019061112391905b5b80821115610b3f5760008155600101613f25565b60005b83811015613f54578181015183820152602001613f3c565b50506000910152565b60008151808452613f75816020860160208601613f39565b601f01601f19169290920160200192915050565b602081526000613e9f6020830184613f5d565b60006020808301818452808551808352604092508286019150828160051b87010184880160005b8381101561403757603f19898403018552815160808151818652613fe982870182613f5d565b838b01516001600160a01b0316878c0152898401518782038b89015290925090506140148282613f5d565b606093840151151596909301959095525094870194925090860190600101613fc3565b509098975050505050505050565b60006020828403121561405757600080fd5b5035919050565b60a08152600061407160a0830188613f5d565b82810360208401526140838188613f5d565b604084019690965250506060810192909252151560809091015292915050565b60008083601f8401126140b557600080fd5b5081356001600160401b038111156140cc57600080fd5b6020830191508360208285010111156140e457600080fd5b9250929050565b6001600160a01b038116811461112357600080fd5b803561410b816140eb565b919050565b6000806000806060858703121561412657600080fd5b84356001600160401b0381111561413c57600080fd5b614148878288016140a3565b909550935050602085013561415c816140eb565b9396929550929360400135925050565b60008060006040848603121561418157600080fd5b833561418c816140eb565b925060208401356001600160401b038111156141a757600080fd5b6141b3868287016140a3565b9497909650939450505050565b634e487b7160e01b600052604160045260246000fd5b604051601f8201601f191681016001600160401b03811182821017156141fe576141fe6141c0565b604052919050565b60006001600160401b0382111561421f5761421f6141c0565b50601f01601f191660200190565b600082601f83011261423e57600080fd5b813561425161424c82614206565b6141d6565b81815284602083860101111561426657600080fd5b816020850160208301376000918101602001919091529392505050565b6000806040838503121561429657600080fd5b8235915060208301356001600160401b038111156142b357600080fd5b6142bf8582860161422d565b9150509250929050565b600080600080604085870312156142df57600080fd5b84356001600160401b03808211156142f657600080fd5b614302888389016140a3565b9096509450602087013591508082111561431b57600080fd5b50614328878288016140a3565b95989497509550505050565b60006020828403121561434657600080fd5b8135613e9f816140eb565b6020808252825182820181905260009190848201906040850190845b818110156143895783518352928401929184019160010161436d565b50909695505050505050565b801515811461112357600080fd5b600080604083850312156143b657600080fd5b82356143c1816140eb565b915060208301356143d181614395565b809150509250929050565b6000602082840312156143ee57600080fd5b8135613e9f81614395565b6000806040838503121561440c57600080fd5b8235614417816140eb565b915060208301356001600160401b038111156142b357600080fd5b6000806040838503121561444557600080fd5b8235614450816140eb565b915060208301356143d1816140eb565b60006001600160401b03821115614479576144796141c0565b5060051b60200190565b6000806000806060858703121561449957600080fd5b84356001600160401b03808211156144b057600080fd5b6144bc888389016140a3565b90965094506020915086820135818111156144d657600080fd5b6144e289828a0161422d565b9450506040870135818111156144f757600080fd5b87019050601f8101881361450a57600080fd5b803561451861424c82614460565b81815260059190911b8201830190838101908a83111561453757600080fd5b928401925b828410156145555783358252928401929084019061453c565b979a9699509497505050505050565b60008060006040848603121561457957600080fd5b83356001600160401b0381111561458f57600080fd5b61459b868287016140a3565b90945092505060208401356145af81614395565b809150509250925092565b602081526000825160a060208401526145d660c0840182613f5d565b90506020840151601f198483030160408501526145f38282613f5d565b91505060408401516060840152606084015160808401526080840151151560a08401528091505092915050565b80518252600060208201516040602085015261463f6040850182613f5d565b949350505050565b6000602080830181845280855180835260408601915060408160051b870101925083870160005b8281101561469c57603f1988860301845261468a858351614620565b9450928501929085019060010161466e565b5092979650505050505050565b602081526000613e9f6020830184614620565b6000602082840312156146ce57600080fd5b81356001600160401b038111156146e457600080fd5b61463f8482850161422d565b600082601f83011261470157600080fd5b8135602061471161424c83614460565b82815260059290921b8401810191818101908684111561473057600080fd5b8286015b8481101561476f5780356001600160401b038111156147535760008081fd5b6147618986838b010161422d565b845250918301918301614734565b509695505050505050565b60006040828403121561478c57600080fd5b604051604081016001600160401b0382821081831117156147af576147af6141c0565b81604052829350843591506147c3826140eb565b908252602084013590808211156147d957600080fd5b506147e68582860161422d565b6020830152505092915050565b6000806000806060858703121561480957600080fd5b84356001600160401b038082111561482057600080fd5b61482c888389016140a3565b909650945060209150868201358181111561484657600080fd5b61485289828a016146f0565b94505060408701358181111561486757600080fd5b8701601f8101891361487857600080fd5b803561488661424c82614460565b81815260059190911b8201840190848101908b8311156148a557600080fd5b8584015b838110156148dd578035868111156148c15760008081fd5b6148cf8e898389010161477a565b8452509186019186016148a9565b50989b979a50959850505050505050565b6000806020838503121561490157600080fd5b82356001600160401b038082111561491857600080fd5b818501915085601f83011261492c57600080fd5b81358181111561493b57600080fd5b8660208260051b850101111561495057600080fd5b60209290920196919550909350505050565b6000602080830181845280855180835260408601915060408160051b870101925083870160005b8281101561469c57603f198886030184526149a5858351613f5d565b94509285019290850190600101614989565b600080604083850312156149ca57600080fd5b8235915060208301356001600160401b038111156149e757600080fd5b6142bf858286016146f0565b60008060408385031215614a0657600080fd5b8235915060208301356001600160401b03811115614a2357600080fd5b6142bf8582860161477a565b600080600080600060608688031215614a4757600080fd5b85356001600160401b0380821115614a5e57600080fd5b614a6a89838a016140a3565b909750955060208801359150614a7f826140eb565b90935060408701359080821115614a9557600080fd5b50614aa2888289016140a3565b969995985093965092949392505050565b60008060408385031215614ac657600080fd5b8235915060208301356001600160401b03811115614ae357600080fd5b8301604081860312156143d157600080fd5b82815260406020820152600061463f6040830184613f5d565b600080600080600060a08688031215614b2657600080fd5b85356001600160401b0380821115614b3d57600080fd5b614b4989838a0161422d565b9650602091508188013581811115614b6057600080fd5b614b6c8a828b0161422d565b965050604088013581811115614b8157600080fd5b88019050601f81018913614b9457600080fd5b8035614ba261424c82614460565b81815260059190911b8201830190838101908b831115614bc157600080fd5b928401925b82841015614be8578335614bd9816140eb565b82529284019290840190614bc6565b8097505050505050614bfc60608701614100565b949793965091946080013592915050565b600181811c90821680614c2157607f821691505b602082108103611d9b57634e487b7160e01b600052602260045260246000fd5b634e487b7160e01b600052603260045260246000fd5b600060208284031215614c6957600080fd5b81516001600160401b03811115614c7f57600080fd5b8201601f81018413614c9057600080fd5b8051614c9e61424c82614206565b818152856020838501011115614cb357600080fd5b613e7d826020830160208601613f39565b634e487b7160e01b600052601160045260246000fd5b600060018201614cec57614cec614cc4565b5060010190565b81835281816020850137506000828201602090810191909152601f909101601f19169091010190565b604081526000614d30604083018587614cf3565b9050826020830152949350505050565b8183823760009101908152919050565b80516020808301519190811015611d9b5760001960209190910360031b1b16919050565b601f8211156127ad57600081815260208120601f850160051c81016020861015614d9b5750805b601f850160051c820191505b8181101561103657828155600101614da7565b81516001600160401b03811115614dd357614dd36141c0565b614de781614de18454614c0d565b84614d74565b602080601f831160018114614e1c5760008415614e045750858301515b600019600386901b1c1916600185901b178555611036565b600085815260208120601f198616915b82811015614e4b57888601518255948401946001909101908401614e2c565b5085821015614e695787850151600019600388901b60f8161c191681555b5050505050600190811b01905550565b60008154614e8681614c0d565b808552602060018381168015614ea35760018114614ebd57614eeb565b60ff1985168884015283151560051b880183019550614eeb565b866000528260002060005b85811015614ee35781548a8201860152908301908401614ec8565b890184019650505b505050505092915050565b604081526000614f096040830185613f5d565b8281036020840152613e7d8185614e79565b6001600160401b03831115614f3257614f326141c0565b614f4683614f408354614c0d565b83614d74565b6000601f841160018114614f7a5760008515614f625750838201355b600019600387901b1c1916600186901b178355612d3e565b600083815260209020601f19861690835b82811015614fab5786850135825560209485019460019092019101614f8b565b5086821015614fc85760001960f88860031b161c19848701351681555b505060018560011b0183555050505050565b6020808252602c908201527f46756e6374696f6e206d7573742062652063616c6c6564207468726f7567682060408201526b19195b1959d85d1958d85b1b60a21b606082015260800190565b6020808252602c908201527f46756e6374696f6e206d7573742062652063616c6c6564207468726f7567682060408201526b6163746976652070726f787960a01b606082015260800190565b60008251615084818460208701613f39565b9190910192915050565b6040815260006150a16040830185613f5d565b90508260208301529392505050565b808201808211156139e1576139e1614cc4565b6000602082840312156150d557600080fd5b8151613e9f816140eb565b6040815260006150f4604083018587614cf3565b82810360208401526151068185614e79565b9695505050505050565b602081526000613e9f6020830184614e79565b6000808335601e1984360301811261513a57600080fd5b8301803591506001600160401b0382111561515457600080fd5b6020019150368190038213156140e457600080fd5b838152818360208301376000910160200190815292915050565b818103818111156139e1576139e1614cc4565b634e487b7160e01b600052603160045260246000fd5b838152604060208201526000613e7d604083018486614cf3565b6000602082840312156151d857600080fd5b5051919050565b6060815260006151f26060830186613f5d565b6001600160a01b039490941660208301525060400152919050565b60006020828403121561521f57600080fd5b8151613e9f81614395565b82815260008251615242816020850160208701613f39565b91909101602001939250505056fe360894a13ba1a3210667c828492db98dca3e2076cc3735a920a3ca505d382bbc4d6f6469667953706163655065726d697373696f6e7300000000000000000000416464726573733a206c6f772d6c6576656c2064656c65676174652063616c6c206661696c6564a264697066735822122055ad42eec48d3e960a641b976f47cbe21ecc3f501aadb152dfbdd27ec8a6895b64736f6c63430008110033",
    "linkReferences": {}
  },
  "methodIdentifiers": {
    "addPermissionsToRole(uint256,string[])": "b7515761",
    "addRoleToChannel(string,address,uint256)": "1dea616a",
    "addRoleToEntitlement(uint256,(address,bytes))": "ba201ba8",
    "channels(uint256)": "e5949b5d",
    "channelsByHash(bytes32)": "129ab3c8",
    "createChannel(string,string,uint256[])": "51f83cea",
    "createRole(string,string[],(address,bytes)[])": "8fcd793d",
    "defaultEntitlements(address)": "fa6433c5",
    "disabled()": "ee070805",
    "entitlements(uint256)": "f28f9b56",
    "getChannelByHash(bytes32)": "703511f8",
    "getChannels()": "9575f6ac",
    "getEntitlementByModuleType(string)": "870b9464",
    "getEntitlementIdsByRoleId(uint256)": "42486e49",
    "getEntitlementModules()": "0d029f75",
    "getPermissionsByRoleId(uint256)": "b4264233",
    "getRoleById(uint256)": "784c872b",
    "getRoles()": "71061398",
    "hasEntitlement(address)": "7f8d06d0",
    "initialize(string,string,address[],address,uint256)": "f3ce6a5b",
    "isEntitledToChannel(string,address,string)": "cea632bc",
    "isEntitledToSpace(address,string)": "20759f9e",
    "multicall(bytes[])": "ac9650d8",
    "name()": "06fdde03",
    "networkId()": "9025e64c",
    "owner()": "8da5cb5b",
    "ownerRoleId()": "d1a6a961",
    "proxiableUUID()": "52d1902d",
    "removePermissionFromRole(uint256,string)": "f740bb6b",
    "removeRole(uint256)": "92691821",
    "removeRoleFromChannel(string,address,uint256)": "baaf3d57",
    "removeRoleFromEntitlement(uint256,(address,bytes))": "dba81864",
    "roleCount()": "ddf96358",
    "rolesById(uint256)": "e5894ef4",
    "setChannelAccess(string,bool)": "5de151b8",
    "setEntitlementModule(address,bool)": "441555e5",
    "setOwnerRoleId(uint256)": "4999ab16",
    "setSpaceAccess(bool)": "446dc22e",
    "token()": "fc0c546a",
    "tokenId()": "17d70f7c",
    "updateChannel(string,string)": "34a1dd26",
    "updateRole(uint256,string)": "32e704cc",
    "upgradeEntitlement(address,address)": "519607f2",
    "upgradeTo(address)": "3659cfe6",
    "upgradeToAndCall(address,bytes)": "4f1ef286"
  },
  "id": 13
}