{
  "abi": [
    {
      "inputs": [],
      "stateMutability": "nonpayable",
      "type": "constructor"
    },
    {
      "inputs": [],
      "name": "InvalidParameters",
      "type": "error"
    },
    {
      "inputs": [],
      "name": "NameContainsInvalidCharacters",
      "type": "error"
    },
    {
      "inputs": [],
      "name": "NameLengthInvalid",
      "type": "error"
    },
    {
      "inputs": [],
      "name": "PermissionAlreadyExists",
      "type": "error"
    },
    {
      "inputs": [],
      "name": "SpaceAlreadyRegistered",
      "type": "error"
    },
    {
      "anonymous": false,
      "inputs": [
        {
          "indexed": false,
          "internalType": "address",
          "name": "previousAdmin",
          "type": "address"
        },
        {
          "indexed": false,
          "internalType": "address",
          "name": "newAdmin",
          "type": "address"
        }
      ],
      "name": "AdminChanged",
      "type": "event"
    },
    {
      "anonymous": false,
      "inputs": [
        {
          "indexed": true,
          "internalType": "address",
          "name": "beacon",
          "type": "address"
        }
      ],
      "name": "BeaconUpgraded",
      "type": "event"
    },
    {
      "anonymous": false,
      "inputs": [
        {
          "indexed": false,
          "internalType": "uint8",
          "name": "version",
          "type": "uint8"
        }
      ],
      "name": "Initialized",
      "type": "event"
    },
    {
      "anonymous": false,
      "inputs": [
        {
          "indexed": true,
          "internalType": "address",
          "name": "previousOwner",
          "type": "address"
        },
        {
          "indexed": true,
          "internalType": "address",
          "name": "newOwner",
          "type": "address"
        }
      ],
      "name": "OwnershipTransferred",
      "type": "event"
    },
    {
      "anonymous": false,
      "inputs": [
        {
          "indexed": true,
          "internalType": "address",
          "name": "implementation",
          "type": "address"
        }
      ],
      "name": "Upgraded",
      "type": "event"
    },
    {
      "inputs": [],
      "name": "SPACE_IMPLEMENTATION_ADDRESS",
      "outputs": [
        {
          "internalType": "address",
          "name": "",
          "type": "address"
        }
      ],
      "stateMutability": "view",
      "type": "function"
    },
    {
      "inputs": [],
      "name": "SPACE_TOKEN_ADDRESS",
      "outputs": [
        {
          "internalType": "address",
          "name": "",
          "type": "address"
        }
      ],
      "stateMutability": "view",
      "type": "function"
    },
    {
      "inputs": [],
      "name": "TOKEN_IMPLEMENTATION_ADDRESS",
      "outputs": [
        {
          "internalType": "address",
          "name": "",
          "type": "address"
        }
      ],
      "stateMutability": "view",
      "type": "function"
    },
    {
      "inputs": [],
      "name": "USER_IMPLEMENTATION_ADDRESS",
      "outputs": [
        {
          "internalType": "address",
          "name": "",
          "type": "address"
        }
      ],
      "stateMutability": "view",
      "type": "function"
    },
    {
      "inputs": [
        {
          "internalType": "string[]",
          "name": "_permissions",
          "type": "string[]"
        }
      ],
      "name": "addOwnerPermissions",
      "outputs": [],
      "stateMutability": "nonpayable",
      "type": "function"
    },
    {
      "inputs": [
        {
          "internalType": "string",
          "name": "spaceName",
          "type": "string"
        },
        {
          "internalType": "string",
          "name": "spaceNetworkId",
          "type": "string"
        },
        {
          "internalType": "string",
          "name": "spaceMetadata",
          "type": "string"
        },
        {
          "internalType": "string[]",
          "name": "_everyonePermissions",
          "type": "string[]"
        },
        {
          "components": [
            {
              "internalType": "string",
              "name": "roleName",
              "type": "string"
            },
            {
              "internalType": "string[]",
              "name": "permissions",
              "type": "string[]"
            },
            {
              "components": [
                {
                  "internalType": "address",
                  "name": "contractAddress",
                  "type": "address"
                },
                {
                  "internalType": "uint256",
                  "name": "quantity",
                  "type": "uint256"
                },
                {
                  "internalType": "bool",
                  "name": "isSingleToken",
                  "type": "bool"
                },
                {
                  "internalType": "uint256[]",
                  "name": "tokenIds",
                  "type": "uint256[]"
                }
              ],
              "internalType": "struct DataTypes.ExternalToken[]",
              "name": "tokens",
              "type": "tuple[]"
            },
            {
              "internalType": "address[]",
              "name": "users",
              "type": "address[]"
            }
          ],
          "internalType": "struct DataTypes.CreateSpaceExtraEntitlements",
          "name": "_extraEntitlements",
          "type": "tuple"
        }
      ],
      "name": "createSpace",
      "outputs": [
        {
          "internalType": "address",
          "name": "_spaceAddress",
          "type": "address"
        }
      ],
      "stateMutability": "nonpayable",
      "type": "function"
    },
    {
      "inputs": [],
      "name": "getOwnerPermissions",
      "outputs": [
        {
          "internalType": "string[]",
          "name": "",
          "type": "string[]"
        }
      ],
      "stateMutability": "view",
      "type": "function"
    },
    {
      "inputs": [
        {
          "internalType": "string",
          "name": "spaceNetworkId",
          "type": "string"
        }
      ],
      "name": "getSpaceAddressByNetworkId",
      "outputs": [
        {
          "internalType": "address",
          "name": "",
          "type": "address"
        }
      ],
      "stateMutability": "view",
      "type": "function"
    },
    {
      "inputs": [
        {
          "internalType": "string",
          "name": "spaceNetworkId",
          "type": "string"
        }
      ],
      "name": "getTokenIdByNetworkId",
      "outputs": [
        {
          "internalType": "uint256",
          "name": "",
          "type": "uint256"
        }
      ],
      "stateMutability": "view",
      "type": "function"
    },
    {
      "inputs": [
        {
          "internalType": "address",
          "name": "_space",
          "type": "address"
        },
        {
          "internalType": "address",
          "name": "_tokenEntitlement",
          "type": "address"
        },
        {
          "internalType": "address",
          "name": "_userEntitlement",
          "type": "address"
        },
        {
          "internalType": "address",
          "name": "_spaceToken",
          "type": "address"
        },
        {
          "internalType": "string[]",
          "name": "_permissions",
          "type": "string[]"
        }
      ],
      "name": "initialize",
      "outputs": [],
      "stateMutability": "nonpayable",
      "type": "function"
    },
    {
      "inputs": [],
      "name": "owner",
      "outputs": [
        {
          "internalType": "address",
          "name": "",
          "type": "address"
        }
      ],
      "stateMutability": "view",
      "type": "function"
    },
    {
      "inputs": [
        {
          "internalType": "uint256",
          "name": "",
          "type": "uint256"
        }
      ],
      "name": "ownerPermissions",
      "outputs": [
        {
          "internalType": "string",
          "name": "",
          "type": "string"
        }
      ],
      "stateMutability": "view",
      "type": "function"
    },
    {
      "inputs": [],
      "name": "proxiableUUID",
      "outputs": [
        {
          "internalType": "bytes32",
          "name": "",
          "type": "bytes32"
        }
      ],
      "stateMutability": "view",
      "type": "function"
    },
    {
      "inputs": [],
      "name": "renounceOwnership",
      "outputs": [],
      "stateMutability": "nonpayable",
      "type": "function"
    },
    {
      "inputs": [
        {
          "internalType": "bytes32",
          "name": "",
          "type": "bytes32"
        }
      ],
      "name": "spaceByHash",
      "outputs": [
        {
          "internalType": "address",
          "name": "",
          "type": "address"
        }
      ],
      "stateMutability": "view",
      "type": "function"
    },
    {
      "inputs": [
        {
          "internalType": "bytes32",
          "name": "",
          "type": "bytes32"
        }
      ],
      "name": "tokenByHash",
      "outputs": [
        {
          "internalType": "uint256",
          "name": "",
          "type": "uint256"
        }
      ],
      "stateMutability": "view",
      "type": "function"
    },
    {
      "inputs": [
        {
          "internalType": "address",
          "name": "newOwner",
          "type": "address"
        }
      ],
      "name": "transferOwnership",
      "outputs": [],
      "stateMutability": "nonpayable",
      "type": "function"
    },
    {
      "inputs": [
        {
          "internalType": "address",
          "name": "_space",
          "type": "address"
        },
        {
          "internalType": "address",
          "name": "_tokenEntitlement",
          "type": "address"
        },
        {
          "internalType": "address",
          "name": "_userEntitlement",
          "type": "address"
        }
      ],
      "name": "updateImplementations",
      "outputs": [],
      "stateMutability": "nonpayable",
      "type": "function"
    },
    {
      "inputs": [
        {
          "internalType": "address",
          "name": "newImplementation",
          "type": "address"
        }
      ],
      "name": "upgradeTo",
      "outputs": [],
      "stateMutability": "nonpayable",
      "type": "function"
    },
    {
      "inputs": [
        {
          "internalType": "address",
          "name": "newImplementation",
          "type": "address"
        },
        {
          "internalType": "bytes",
          "name": "data",
          "type": "bytes"
        }
      ],
      "name": "upgradeToAndCall",
      "outputs": [],
      "stateMutability": "payable",
      "type": "function"
    }
  ],
  "bytecode": {
    "object": "0x60a0604052306080523480156200001557600080fd5b506200002062000026565b620000e7565b600054610100900460ff1615620000935760405162461bcd60e51b815260206004820152602760248201527f496e697469616c697a61626c653a20636f6e747261637420697320696e697469604482015266616c697a696e6760c81b606482015260840160405180910390fd5b60005460ff90811614620000e5576000805460ff191660ff9081179091556040519081527f7f26b83ff96e1f2b6a682f133852f6798a09c465da95921460cefb38474024989060200160405180910390a15b565b608051613ac36200011f600039600081816104530152818161049f0152818161072a0152818161076d01526108090152613ac36000f3fe608060405260043610620001375760003560e01c806396dc21e411620000ad578063df2cd9fe116200006c578063df2cd9fe1462000384578063dfc666ff14620003ab578063f21cd40114620003d0578063f2fde38b14620003f2578063f3aba305146200041757600080fd5b806396dc21e414620002bf578063ad78faf314620002e4578063b28032f91462000309578063be8b5967146200033d578063cfc27037146200036257600080fd5b806352d1902d11620000fa57806352d1902d1462000219578063683c72b61462000240578063715018a614620002625780638a9ef426146200027a5780638da5cb5b146200029f57600080fd5b806308bc0b4b146200013c5780633312540a146200017b5780633659cfe614620001b657806345bfa5b114620001dd5780634f1ef2861462000202575b600080fd5b3480156200014957600080fd5b5060fd546200015e906001600160a01b031681565b6040516001600160a01b0390911681526020015b60405180910390f35b3480156200018857600080fd5b506200015e6200019a3660046200226f565b610100602052600090815260409020546001600160a01b031681565b348015620001c357600080fd5b50620001db620001d5366004620022a6565b62000449565b005b348015620001ea57600080fd5b50620001db620001fc36600462002483565b6200053d565b620001db620002133660046200250e565b62000720565b3480156200022657600080fd5b5062000231620007fc565b60405190815260200162000172565b3480156200024d57600080fd5b5060fe546200015e906001600160a01b031681565b3480156200026f57600080fd5b50620001db620008b2565b3480156200028757600080fd5b506200023162000299366004620025c1565b620008ca565b348015620002ac57600080fd5b506033546001600160a01b03166200015e565b348015620002cc57600080fd5b506200015e620002de366004620025c1565b620008ff565b348015620002f157600080fd5b506200015e6200030336600462002666565b6200093d565b3480156200031657600080fd5b506200032e620003283660046200226f565b62000ead565b604051620001729190620027b0565b3480156200034a57600080fd5b50620001db6200035c366004620027c5565b62000f62565b3480156200036f57600080fd5b5060fc546200015e906001600160a01b031681565b3480156200039157600080fd5b506200039c6200113e565b60405162000172919062002857565b348015620003b857600080fd5b50620001db620003ca3660046200286c565b62001221565b348015620003dd57600080fd5b5060fb546200015e906001600160a01b031681565b348015620003ff57600080fd5b50620001db62000411366004620022a6565b620012b5565b3480156200042457600080fd5b5062000231620004363660046200226f565b6101016020526000908152604090205481565b6001600160a01b037f00000000000000000000000000000000000000000000000000000000000000001630036200049d5760405162461bcd60e51b81526004016200049490620028b6565b60405180910390fd5b7f00000000000000000000000000000000000000000000000000000000000000006001600160a01b0316620004e860008051602062003a47833981519152546001600160a01b031690565b6001600160a01b031614620005115760405162461bcd60e51b8152600401620004949062002902565b6200051c8162001331565b604080516000808252602082019092526200053a918391906200133b565b50565b600054610100900460ff16158080156200055e5750600054600160ff909116105b806200057a5750303b1580156200057a575060005460ff166001145b620005df5760405162461bcd60e51b815260206004820152602e60248201527f496e697469616c697a61626c653a20636f6e747261637420697320616c72656160448201526d191e481a5b9a5d1a585b1a5e995960921b606482015260840162000494565b6000805460ff19166001179055801562000603576000805461ff0019166101001790555b6200060d620014b3565b62000617620014dd565b6200062162001511565b60fb80546001600160a01b038089166001600160a01b03199283161790925560fc805488841690831617905560fd805487841690831617905560fe80549286169290911691909117905560005b8251811015620006d05760ff8382815181106200068f576200068f6200294e565b60209081029190910181015182546001810184556000938452919092200190620006ba9082620029e4565b5080620006c78162002ab0565b9150506200066e565b50801562000718576000805461ff0019169055604051600181527f7f26b83ff96e1f2b6a682f133852f6798a09c465da95921460cefb38474024989060200160405180910390a15b505050505050565b6001600160a01b037f00000000000000000000000000000000000000000000000000000000000000001630036200076b5760405162461bcd60e51b81526004016200049490620028b6565b7f00000000000000000000000000000000000000000000000000000000000000006001600160a01b0316620007b660008051602062003a47833981519152546001600160a01b031690565b6001600160a01b031614620007df5760405162461bcd60e51b8152600401620004949062002902565b620007ea8262001331565b620007f8828260016200133b565b5050565b6000306001600160a01b037f000000000000000000000000000000000000000000000000000000000000000016146200089e5760405162461bcd60e51b815260206004820152603860248201527f555550535570677261646561626c653a206d757374206e6f742062652063616c60448201527f6c6564207468726f7567682064656c656761746563616c6c0000000000000000606482015260840162000494565b5060008051602062003a4783398151915290565b620008bc62001545565b620008c86000620015a1565b565b6000808383604051620008df92919062002ad8565b604080519182900390912060009081526101016020522054949350505050565b60008083836040516200091492919062002ad8565b6040805191829003909120600090815261010060205220546001600160a01b0316949350505050565b600062000949620015f3565b620009558a8a6200164e565b60008790036200097857604051630e52390960e41b815260040160405180910390fd5b600088886040516200098c92919062002ad8565b6040805191829003909120600081815261010060205291909120549091506001600160a01b031615620009d257604051633881599b60e11b815260040160405180910390fd5b60fe546040516275a31760e01b81526000916001600160a01b0316906275a3179062000a079030908c908c9060040162002b11565b6020604051808303816000875af115801562000a27573d6000803e3d6000fd5b505050506040513d601f19601f8201168201806040525081019062000a4d919062002b38565b6000838152610101602052604080822083905560fc5460fe5491516001600160a01b03928316602482015260448101859052939450919291169060640160408051601f198184030181529181526020820180516001600160e01b031663cd6dc68760e01b1790525162000ac09062002261565b62000acd92919062002b52565b604051809103906000f08015801562000aea573d6000803e3d6000fd5b5060fd5460fe546040516001600160a01b0391821660248201526044810186905292935060009291169060640160408051601f198184030181529181526020820180516001600160e01b031663cd6dc68760e01b1790525162000b4d9062002261565b62000b5a92919062002b52565b604051809103906000f08015801562000b77573d6000803e3d6000fd5b506040805160028082526060820183529293506000929091602083019080368337019050509050828160008151811062000bb55762000bb56200294e565b60200260200101906001600160a01b031690816001600160a01b031681525050818160018151811062000bec5762000bec6200294e565b60200260200101906001600160a01b031690816001600160a01b03168152505060fb60009054906101000a90046001600160a01b03168f8f8f8f8560fe60009054906101000a90046001600160a01b03168a60405160240162000c56979695949392919062002bc6565b60408051601f198184030181529181526020820180516001600160e01b031663f3ce6a5b60e01b1790525162000c8c9062002261565b62000c9992919062002b52565b604051809103906000f08015801562000cb6573d6000803e3d6000fd5b5060008681526101006020526040812080546001600160a01b0319166001600160a01b0384161790559096505b815181101562000d805781818151811062000d025762000d026200294e565b602090810291909101015160405162ed014d60e21b81526001600160a01b038981166004830152909116906303b4053490602401600060405180830381600087803b15801562000d5157600080fd5b505af115801562000d66573d6000803e3d6000fd5b50505050808062000d779062002ab0565b91505062000ce3565b5062000d8e8684866200188e565b62000da6868362000da08b8d62002c27565b62001b15565b62000dbe86848462000db88b62002e12565b62001caa565b60fe546001600160a01b03166323b872dd30336040516001600160e01b031960e085901b1681526001600160a01b0392831660048201529116602482015260448101879052606401600060405180830381600087803b15801562000e2157600080fd5b505af115801562000e36573d6000803e3d6000fd5b5050505062000e423390565b6001600160a01b0316866001600160a01b03167f78d7e431fd0a46d11f5c8889cf2db64699be1f95ccb8b1419211c83bcdbce5808f8f60405162000e8892919062002ed7565b60405180910390a3505050505062000ea06001606555565b9998505050505050505050565b60ff818154811062000ebe57600080fd5b90600052602060002001600091509050805462000edb9062002964565b80601f016020809104026020016040519081016040528092919081815260200182805462000f099062002964565b801562000f5a5780601f1062000f2e5761010080835404028352916020019162000f5a565b820191906000526020600020905b81548152906001019060200180831162000f3c57829003601f168201915b505050505081565b62000f6c62001545565b60005b81811015620011395760005b60ff54811015620010d557620010a184848481811062000f9f5762000f9f6200294e565b905060200281019062000fb3919062002eed565b8080601f0160208091040260200160405190810160405280939291908181526020018383808284376000920191909152505060ff805490925085915081106200100057620010006200294e565b906000526020600020018054620010179062002964565b80601f0160208091040260200160405190810160405280929190818152602001828054620010459062002964565b8015620010965780601f106200106a5761010080835404028352916020019162001096565b820191906000526020600020905b8154815290600101906020018083116200107857829003601f168201915b505050505062001f4b565b15620010c057604051636571d65f60e01b815260040160405180910390fd5b80620010cc8162002ab0565b91505062000f7b565b5060ff838383818110620010ed57620010ed6200294e565b905060200281019062001101919062002eed565b8254600181018455600093845260209093209092019162001123918362002f36565b5080620011308162002ab0565b91505062000f6f565b505050565b606060ff805480602002602001604051908101604052809291908181526020016000905b8282101562001218578382906000526020600020018054620011849062002964565b80601f0160208091040260200160405190810160405280929190818152602001828054620011b29062002964565b8015620012035780601f10620011d75761010080835404028352916020019162001203565b820191906000526020600020905b815481529060010190602001808311620011e557829003601f168201915b50505050508152602001906001019062001162565b50505050905090565b6200122b62001545565b6001600160a01b03831615620012575760fb80546001600160a01b0319166001600160a01b0385161790555b6001600160a01b03821615620012835760fc80546001600160a01b0319166001600160a01b0384161790555b6001600160a01b03811615620011395760fd80546001600160a01b0383166001600160a01b0319909116179055505050565b620012bf62001545565b6001600160a01b038116620013265760405162461bcd60e51b815260206004820152602660248201527f4f776e61626c653a206e6577206f776e657220697320746865207a65726f206160448201526564647265737360d01b606482015260840162000494565b6200053a81620015a1565b6200053a62001545565b7f4910fdfa16fed3260ed0e7147f7cc6da11a60208b5b9406d12a635614ffd91435460ff16156200137157620011398362001fa8565b826001600160a01b03166352d1902d6040518163ffffffff1660e01b8152600401602060405180830381865afa925050508015620013ce575060408051601f3d908101601f19168201909252620013cb9181019062002b38565b60015b620014335760405162461bcd60e51b815260206004820152602e60248201527f45524331393637557067726164653a206e657720696d706c656d656e7461746960448201526d6f6e206973206e6f74205555505360901b606482015260840162000494565b60008051602062003a478339815191528114620014a55760405162461bcd60e51b815260206004820152602960248201527f45524331393637557067726164653a20756e737570706f727465642070726f786044820152681a58589b195555525160ba1b606482015260840162000494565b506200113983838362002047565b600054610100900460ff16620008c85760405162461bcd60e51b8152600401620004949062003002565b600054610100900460ff16620015075760405162461bcd60e51b8152600401620004949062003002565b620008c862002072565b600054610100900460ff166200153b5760405162461bcd60e51b8152600401620004949062003002565b620008c8620020a7565b6033546001600160a01b03163314620008c85760405162461bcd60e51b815260206004820181905260248201527f4f776e61626c653a2063616c6c6572206973206e6f7420746865206f776e6572604482015260640162000494565b603380546001600160a01b038381166001600160a01b0319831681179093556040519116919082907f8be0079c531659141344cd1fd0a4f28419497f9722a3daafe3b4186f6b6457e090600090a35050565b600260655403620016475760405162461bcd60e51b815260206004820152601f60248201527f5265656e7472616e637947756172643a207265656e7472616e742063616c6c00604482015260640162000494565b6002606555565b600082828080601f0160208091040260200160405190810160405280939291908181526020018383808284376000920191909152505082519293505060029091109050806200169e575080516020105b15620016bd5760405163354b556f60e11b815260040160405180910390fd5b805160005b818110156200188757600360fc1b838281518110620016e557620016e56200294e565b01602001516001600160f81b0319161080620017275750603d60f91b8382815181106200171657620017166200294e565b01602001516001600160f81b031916115b806200178b5750603960f81b8382815181106200174857620017486200294e565b01602001516001600160f81b0319161180156200178b5750606160f81b8382815181106200177a576200177a6200294e565b01602001516001600160f81b031916105b8015620017c05750828181518110620017a857620017a86200294e565b6020910101516001600160f81b031916601760f91b14155b8015620017f55750828181518110620017dd57620017dd6200294e565b6020910101516001600160f81b031916602d60f81b14155b80156200182a57508281815181106200181257620018126200294e565b6020910101516001600160f81b031916605f60f81b14155b80156200185f57508281815181106200184757620018476200294e565b6020910101516001600160f81b031916600160fd1b14155b156200187e5760405163f8fa659760e01b815260040160405180910390fd5b600101620016c2565b5050505050565b604080516001808252818301909252600091816020015b6040805160808101825260008082526020808301829052928201526060808201528252600019909201910181620018a5575050604080516001808252818301909252919250600091906020808301908036833701905050905082816000815181106200191557620019156200294e565b6020908102919091018101919091526040805160808101825260fe546001600160a01b0316815260019281018390529081019190915260608101829052825183906000906200196857620019686200294e565b6020908102919091010152604080516001808252818301909252600091816020015b6040805180820190915260008152606060208201528152602001906001900390816200198a5790505090506040518060400160405280866001600160a01b0316815260200184604051602001620019e291906200304d565b6040516020818303038152906040528152508160008151811062001a0a5762001a0a6200294e565b60200260200101819052506000866001600160a01b0316638fcd793d6040518060400160405280600581526020016427bbb732b960d91b81525060ff856040518463ffffffff1660e01b815260040162001a679392919062003185565b6020604051808303816000875af115801562001a87573d6000803e3d6000fd5b505050506040513d601f19601f8201168201806040525081019062001aad919062002b38565b6040516324ccd58b60e11b8152600481018290529091506001600160a01b03881690634999ab1690602401600060405180830381600087803b15801562001af357600080fd5b505af115801562001b08573d6000803e3d6000fd5b5050505050505050505050565b604080516001808252818301909252600091816020015b60408051808201909152600081526060602082015281526020019060019003908162001b2c575050604080516001808252818301909252919250600091906020808301908036833701905050905060018160008151811062001b925762001b926200294e565b60200260200101906001600160a01b031690816001600160a01b0316815250506040518060400160405280856001600160a01b031681526020018260405160200162001bdf919062003288565b6040516020818303038152906040528152508260008151811062001c075762001c076200294e565b6020026020010181905250846001600160a01b0316638fcd793d6040518060400160405280600881526020016745766572796f6e6560c01b81525085856040518463ffffffff1660e01b815260040162001c64939291906200329d565b6020604051808303816000875af115801562001c84573d6000803e3d6000fd5b505050506040513d601f19601f8201168201806040525081019062000718919062002b38565b6020810151511562001f3e57604080516001808252818301909252600091816020015b60408051808201909152600081526060602082015281526020019060019003908162001ccd579050509050604051806040016040528060006001600160a01b03168152602001604051806020016040528060008152508152508160008151811062001d3c5762001d3c6200294e565b60200260200101819052506000856001600160a01b0316638fcd793d84600001518560200151856040518463ffffffff1660e01b815260040162001d83939291906200329d565b6020604051808303816000875af115801562001da3573d6000803e3d6000fd5b505050506040513d601f19601f8201168201806040525081019062001dc9919062002b38565b6060840151519091501562001e7f57856001600160a01b031663ba201ba8826040518060400160405280886001600160a01b03168152602001876060015160405160200162001e19919062003288565b6040516020818303038152906040528152506040518363ffffffff1660e01b815260040162001e4a929190620032e6565b600060405180830381600087803b15801562001e6557600080fd5b505af115801562001e7a573d6000803e3d6000fd5b505050505b82604001515160000362001e9557505062001f3e565b856001600160a01b031663ba201ba8826040518060400160405280896001600160a01b03168152602001876040015160405160200162001ed691906200304d565b6040516020818303038152906040528152506040518363ffffffff1660e01b815260040162001f07929190620032e6565b600060405180830381600087803b15801562001f2257600080fd5b505af115801562001f37573d6000803e3d6000fd5b5050505050505b50505050565b6001606555565b60008160405160200162001f60919062003301565b604051602081830303815290604052805190602001208360405160200162001f89919062003301565b6040516020818303038152906040528051906020012014905092915050565b6001600160a01b0381163b620020175760405162461bcd60e51b815260206004820152602d60248201527f455243313936373a206e657720696d706c656d656e746174696f6e206973206e60448201526c1bdd08184818dbdb9d1c9858dd609a1b606482015260840162000494565b60008051602062003a4783398151915280546001600160a01b0319166001600160a01b0392909216919091179055565b6200205283620020d1565b600082511180620020605750805b15620011395762001f3e838362002113565b600054610100900460ff166200209c5760405162461bcd60e51b8152600401620004949062003002565b620008c833620015a1565b600054610100900460ff1662001f445760405162461bcd60e51b8152600401620004949062003002565b620020dc8162001fa8565b6040516001600160a01b038216907fbc7cd75a20ee27fd9adebab32041f755214dbc6bffa90cc0225b39da2e5c2d3b90600090a250565b60606001600160a01b0383163b6200217d5760405162461bcd60e51b815260206004820152602660248201527f416464726573733a2064656c65676174652063616c6c20746f206e6f6e2d636f6044820152651b9d1c9858dd60d21b606482015260840162000494565b600080846001600160a01b0316846040516200219a919062003301565b600060405180830381855af49150503d8060008114620021d7576040519150601f19603f3d011682016040523d82523d6000602084013e620021dc565b606091505b509150915062002207828260405180606001604052806027815260200162003a676027913962002210565b95945050505050565b60608315620022215750816200222d565b6200222d838362002234565b9392505050565b815115620022455781518083602001fd5b8060405162461bcd60e51b8152600401620004949190620027b0565b610727806200332083390190565b6000602082840312156200228257600080fd5b5035919050565b80356001600160a01b0381168114620022a157600080fd5b919050565b600060208284031215620022b957600080fd5b6200222d8262002289565b634e487b7160e01b600052604160045260246000fd5b604051608081016001600160401b0381118282101715620022ff57620022ff620022c4565b60405290565b604051601f8201601f191681016001600160401b0381118282101715620023305762002330620022c4565b604052919050565b60006001600160401b03821115620023545762002354620022c4565b5060051b60200190565b60006001600160401b038311156200237a576200237a620022c4565b6200238f601f8401601f191660200162002305565b9050828152838383011115620023a457600080fd5b828260208301376000602084830101529392505050565b600082601f830112620023cd57600080fd5b6200222d838335602085016200235e565b6000620023f5620023ef8462002338565b62002305565b8381529050602080820190600585901b8401868111156200241557600080fd5b845b81811015620024555780356001600160401b03811115620024385760008081fd5b6200244689828901620023bb565b85525092820192820162002417565b505050509392505050565b600082601f8301126200247257600080fd5b6200222d83833560208501620023de565b600080600080600060a086880312156200249c57600080fd5b620024a78662002289565b9450620024b76020870162002289565b9350620024c76040870162002289565b9250620024d76060870162002289565b915060808601356001600160401b03811115620024f357600080fd5b620025018882890162002460565b9150509295509295909350565b600080604083850312156200252257600080fd5b6200252d8362002289565b915060208301356001600160401b038111156200254957600080fd5b8301601f810185136200255b57600080fd5b6200256c858235602084016200235e565b9150509250929050565b60008083601f8401126200258957600080fd5b5081356001600160401b03811115620025a157600080fd5b602083019150836020828501011115620025ba57600080fd5b9250929050565b60008060208385031215620025d557600080fd5b82356001600160401b03811115620025ec57600080fd5b620025fa8582860162002576565b90969095509350505050565b60008083601f8401126200261957600080fd5b5081356001600160401b038111156200263157600080fd5b6020830191508360208260051b8501011115620025ba57600080fd5b6000608082840312156200266057600080fd5b50919050565b600080600080600080600080600060a08a8c0312156200268557600080fd5b89356001600160401b03808211156200269d57600080fd5b620026ab8d838e0162002576565b909b50995060208c0135915080821115620026c557600080fd5b620026d38d838e0162002576565b909950975060408c0135915080821115620026ed57600080fd5b620026fb8d838e0162002576565b909750955060608c01359150808211156200271557600080fd5b620027238d838e0162002606565b909550935060808c01359150808211156200273d57600080fd5b506200274c8c828d016200264d565b9150509295985092959850929598565b60005b83811015620027795781810151838201526020016200275f565b50506000910152565b600081518084526200279c8160208601602086016200275c565b601f01601f19169290920160200192915050565b6020815260006200222d602083018462002782565b60008060208385031215620027d957600080fd5b82356001600160401b03811115620027f057600080fd5b620025fa8582860162002606565b600081518084526020808501808196508360051b8101915082860160005b858110156200284a5782840389526200283784835162002782565b988501989350908401906001016200281c565b5091979650505050505050565b6020815260006200222d6020830184620027fe565b6000806000606084860312156200288257600080fd5b6200288d8462002289565b92506200289d6020850162002289565b9150620028ad6040850162002289565b90509250925092565b6020808252602c908201527f46756e6374696f6e206d7573742062652063616c6c6564207468726f7567682060408201526b19195b1959d85d1958d85b1b60a21b606082015260800190565b6020808252602c908201527f46756e6374696f6e206d7573742062652063616c6c6564207468726f7567682060408201526b6163746976652070726f787960a01b606082015260800190565b634e487b7160e01b600052603260045260246000fd5b600181811c908216806200297957607f821691505b6020821081036200266057634e487b7160e01b600052602260045260246000fd5b601f8211156200113957600081815260208120601f850160051c81016020861015620029c35750805b601f850160051c820191505b818110156200071857828155600101620029cf565b81516001600160401b0381111562002a005762002a00620022c4565b62002a188162002a11845462002964565b846200299a565b602080601f83116001811462002a50576000841562002a375750858301515b600019600386901b1c1916600185901b17855562000718565b600085815260208120601f198616915b8281101562002a815788860151825594840194600190910190840162002a60565b508582101562002aa05787850151600019600388901b60f8161c191681555b5050505050600190811b01905550565b60006001820162002ad157634e487b7160e01b600052601160045260246000fd5b5060010190565b8183823760009101908152919050565b81835281816020850137506000828201602090810191909152601f909101601f19169091010190565b6001600160a01b038416815260406020820181905260009062002207908301848662002ae8565b60006020828403121562002b4b57600080fd5b5051919050565b6001600160a01b038316815260406020820181905260009062002b789083018462002782565b949350505050565b600081518084526020808501945080840160005b8381101562002bbb5781516001600160a01b03168752958201959082019060010162002b94565b509495945050505050565b60a08152600062002bdc60a08301898b62002ae8565b828103602084015262002bf181888a62002ae8565b9050828103604084015262002c07818762002b80565b6001600160a01b0395909516606084015250506080015295945050505050565b60006200222d368484620023de565b600082601f83011262002c4857600080fd5b8135602062002c5b620023ef8362002338565b828152600592831b850182019282820191908785111562002c7b57600080fd5b8387015b8581101562002d8f5780356001600160401b038082111562002ca15760008081fd5b908901906080828c03601f190181131562002cbc5760008081fd5b62002cc6620022da565b62002cd389850162002289565b81526040808501358a830152606080860135801515811462002cf55760008081fd5b8383015292850135928484111562002d0d5760008081fd5b83860195508e603f87011262002d2557600094508485fd5b8a860135945062002d3a620023ef8662002338565b85815294881b86018201948b810194508f86111562002d595760008081fd5b958201955b8587101562002d795786358552958b0195938b019362002d5e565b9083015250875250505092840192840162002c7f565b5090979650505050505050565b600082601f83011262002dae57600080fd5b8135602062002dc1620023ef8362002338565b82815260059290921b8401810191818101908684111562002de157600080fd5b8286015b8481101562002e075762002df98162002289565b835291830191830162002de5565b509695505050505050565b60006080823603121562002e2557600080fd5b62002e2f620022da565b82356001600160401b038082111562002e4757600080fd5b62002e5536838701620023bb565b8352602085013591508082111562002e6c57600080fd5b62002e7a3683870162002460565b6020840152604085013591508082111562002e9457600080fd5b62002ea23683870162002c36565b6040840152606085013591508082111562002ebc57600080fd5b5062002ecb3682860162002d9c565b60608301525092915050565b60208152600062002b7860208301848662002ae8565b6000808335601e1984360301811262002f0557600080fd5b8301803591506001600160401b0382111562002f2057600080fd5b602001915036819003821315620025ba57600080fd5b6001600160401b0383111562002f505762002f50620022c4565b62002f688362002f61835462002964565b836200299a565b6000601f84116001811462002f9f576000851562002f865750838201355b600019600387901b1c1916600186901b17835562001887565b600083815260209020601f19861690835b8281101562002fd2578685013582556020948501946001909201910162002fb0565b508682101562002ff05760001960f88860031b161c19848701351681555b505060018560011b0183555050505050565b6020808252602b908201527f496e697469616c697a61626c653a20636f6e7472616374206973206e6f74206960408201526a6e697469616c697a696e6760a81b606082015260800190565b60006020808301818452808551808352604092508286019150828160051b8701018488016000805b848110156200310157898403603f19018652825180516001600160a01b031685528881015189860152878101511515888601526060908101516080918601829052805191860182905289019060a086019084905b80821015620030eb5783518352928b0192918b019160019190910190620030c9565b5050968901969450509187019160010162003075565b50919998505050505050505050565b60018060a01b038151168252600060208201516040602085015262002b78604085018262002782565b600081518084526020808501808196508360051b8101915082860160005b858110156200284a5782840389526200317284835162003110565b9885019893509084019060010162003157565b6060815260006200319a606083018662002782565b602083820381850152818654808452828401915060058382821b86010160008a8152858120815b858110156200326257601f19898503018752828254620031e18162002964565b80875260018281168015620031ff576001811462003219576200324a565b60ff198416898e01528215158a1b89018d0194506200324a565b8688528c8820885b84811015620032425781548f828d01015283820191508e8101905062003221565b8a018e019550505b50998b019992965050509190910190600101620031c1565b505050878103604089015262003279818a62003139565b9b9a5050505050505050505050565b6020815260006200222d602083018462002b80565b606081526000620032b2606083018662002782565b8281036020840152620032c68186620027fe565b90508281036040840152620032dc818562003139565b9695505050505050565b82815260406020820152600062002b78604083018462003110565b60008251620033158184602087016200275c565b919091019291505056fe608060405260405161072738038061072783398101604081905261002291610319565b61002e82826000610035565b5050610436565b61003e8361006b565b60008251118061004b5750805b156100665761006483836100ab60201b6100291760201c565b505b505050565b610074816100d7565b6040516001600160a01b038216907fbc7cd75a20ee27fd9adebab32041f755214dbc6bffa90cc0225b39da2e5c2d3b90600090a250565b60606100d08383604051806060016040528060278152602001610700602791396101a9565b9392505050565b6100ea8161022260201b6100551760201c565b6101515760405162461bcd60e51b815260206004820152602d60248201527f455243313936373a206e657720696d706c656d656e746174696f6e206973206e60448201526c1bdd08184818dbdb9d1c9858dd609a1b60648201526084015b60405180910390fd5b806101887f360894a13ba1a3210667c828492db98dca3e2076cc3735a920a3ca505d382bbc60001b61023160201b6100641760201c565b80546001600160a01b0319166001600160a01b039290921691909117905550565b6060600080856001600160a01b0316856040516101c691906103e7565b600060405180830381855af49150503d8060008114610201576040519150601f19603f3d011682016040523d82523d6000602084013e610206565b606091505b50909250905061021886838387610234565b9695505050505050565b6001600160a01b03163b151590565b90565b606083156102a357825160000361029c576001600160a01b0385163b61029c5760405162461bcd60e51b815260206004820152601d60248201527f416464726573733a2063616c6c20746f206e6f6e2d636f6e74726163740000006044820152606401610148565b50816102ad565b6102ad83836102b5565b949350505050565b8151156102c55781518083602001fd5b8060405162461bcd60e51b81526004016101489190610403565b634e487b7160e01b600052604160045260246000fd5b60005b838110156103105781810151838201526020016102f8565b50506000910152565b6000806040838503121561032c57600080fd5b82516001600160a01b038116811461034357600080fd5b60208401519092506001600160401b038082111561036057600080fd5b818501915085601f83011261037457600080fd5b815181811115610386576103866102df565b604051601f8201601f19908116603f011681019083821181831017156103ae576103ae6102df565b816040528281528860208487010111156103c757600080fd5b6103d88360208301602088016102f5565b80955050505050509250929050565b600082516103f98184602087016102f5565b9190910192915050565b60208152600082518060208401526104228160408501602087016102f5565b601f01601f19169190910160400192915050565b6102bb806104456000396000f3fe60806040523661001357610011610017565b005b6100115b610027610022610067565b61009f565b565b606061004e838360405180606001604052806027815260200161025f602791396100c3565b9392505050565b6001600160a01b03163b151590565b90565b600061009a7f360894a13ba1a3210667c828492db98dca3e2076cc3735a920a3ca505d382bbc546001600160a01b031690565b905090565b3660008037600080366000845af43d6000803e8080156100be573d6000f35b3d6000fd5b6060600080856001600160a01b0316856040516100e0919061020f565b600060405180830381855af49150503d806000811461011b576040519150601f19603f3d011682016040523d82523d6000602084013e610120565b606091505b50915091506101318683838761013b565b9695505050505050565b606083156101af5782516000036101a8576001600160a01b0385163b6101a85760405162461bcd60e51b815260206004820152601d60248201527f416464726573733a2063616c6c20746f206e6f6e2d636f6e747261637400000060448201526064015b60405180910390fd5b50816101b9565b6101b983836101c1565b949350505050565b8151156101d15781518083602001fd5b8060405162461bcd60e51b815260040161019f919061022b565b60005b838110156102065781810151838201526020016101ee565b50506000910152565b600082516102218184602087016101eb565b9190910192915050565b602081526000825180602084015261024a8160408501602087016101eb565b601f01601f1916919091016040019291505056fe416464726573733a206c6f772d6c6576656c2064656c65676174652063616c6c206661696c6564a2646970667358221220c3201b3bc85f5b49b0e0c9905d402827c9a351d780685a6ed698fc6baffa2cac64736f6c63430008110033416464726573733a206c6f772d6c6576656c2064656c65676174652063616c6c206661696c6564360894a13ba1a3210667c828492db98dca3e2076cc3735a920a3ca505d382bbc416464726573733a206c6f772d6c6576656c2064656c65676174652063616c6c206661696c6564a2646970667358221220f14dd79ccd6019945c45a99b174c9ca837dadbdacefe9fd6445c8dcbf011094a64736f6c63430008110033",
    "linkReferences": {}
  },
  "methodIdentifiers": {
    "SPACE_IMPLEMENTATION_ADDRESS()": "f21cd401",
    "SPACE_TOKEN_ADDRESS()": "683c72b6",
    "TOKEN_IMPLEMENTATION_ADDRESS()": "cfc27037",
    "USER_IMPLEMENTATION_ADDRESS()": "08bc0b4b",
    "addOwnerPermissions(string[])": "be8b5967",
    "createSpace(string,string,string,string[],(string,string[],(address,uint256,bool,uint256[])[],address[]))": "ad78faf3",
    "getOwnerPermissions()": "df2cd9fe",
    "getSpaceAddressByNetworkId(string)": "96dc21e4",
    "getTokenIdByNetworkId(string)": "8a9ef426",
    "initialize(address,address,address,address,string[])": "45bfa5b1",
    "owner()": "8da5cb5b",
    "ownerPermissions(uint256)": "b28032f9",
    "proxiableUUID()": "52d1902d",
    "renounceOwnership()": "715018a6",
    "spaceByHash(bytes32)": "3312540a",
    "tokenByHash(bytes32)": "f3aba305",
    "transferOwnership(address)": "f2fde38b",
    "updateImplementations(address,address,address)": "dfc666ff",
    "upgradeTo(address)": "3659cfe6",
    "upgradeToAndCall(address,bytes)": "4f1ef286"
  },
  "id": 14
}