{
  "abi": [
    {
      "inputs": [],
      "stateMutability": "nonpayable",
      "type": "constructor"
    },
    {
      "inputs": [],
      "name": "AddRoleFailed",
      "type": "error"
    },
    {
      "inputs": [],
      "name": "ChannelAlreadyRegistered",
      "type": "error"
    },
    {
      "inputs": [],
      "name": "ChannelDoesNotExist",
      "type": "error"
    },
    {
      "inputs": [],
      "name": "EntitlementAlreadyExists",
      "type": "error"
    },
    {
      "inputs": [],
      "name": "EntitlementAlreadyWhitelisted",
      "type": "error"
    },
    {
      "inputs": [],
      "name": "EntitlementModuleNotSupported",
      "type": "error"
    },
    {
      "inputs": [],
      "name": "EntitlementNotWhitelisted",
      "type": "error"
    },
    {
      "inputs": [],
      "name": "InvalidParameters",
      "type": "error"
    },
    {
      "inputs": [],
      "name": "MissingOwnerPermission",
      "type": "error"
    },
    {
      "inputs": [],
      "name": "NameContainsInvalidCharacters",
      "type": "error"
    },
    {
      "inputs": [],
      "name": "NameLengthInvalid",
      "type": "error"
    },
    {
      "inputs": [],
      "name": "NotAllowed",
      "type": "error"
    },
    {
      "inputs": [],
      "name": "PermissionAlreadyExists",
      "type": "error"
    },
    {
      "inputs": [],
      "name": "RoleDoesNotExist",
      "type": "error"
    },
    {
      "inputs": [],
      "name": "RoleIsAssignedToEntitlement",
      "type": "error"
    },
    {
      "anonymous": false,
      "inputs": [
        {
          "indexed": false,
          "internalType": "address",
          "name": "previousAdmin",
          "type": "address"
        },
        {
          "indexed": false,
          "internalType": "address",
          "name": "newAdmin",
          "type": "address"
        }
      ],
      "name": "AdminChanged",
      "type": "event"
    },
    {
      "anonymous": false,
      "inputs": [
        {
          "indexed": true,
          "internalType": "address",
          "name": "beacon",
          "type": "address"
        }
      ],
      "name": "BeaconUpgraded",
      "type": "event"
    },
    {
      "anonymous": false,
      "inputs": [
        {
          "indexed": false,
          "internalType": "uint8",
          "name": "version",
          "type": "uint8"
        }
      ],
      "name": "Initialized",
      "type": "event"
    },
    {
      "anonymous": false,
      "inputs": [
        {
          "indexed": true,
          "internalType": "address",
          "name": "implementation",
          "type": "address"
        }
      ],
      "name": "Upgraded",
      "type": "event"
    },
    {
      "inputs": [
        {
          "internalType": "uint256",
          "name": "_roleId",
          "type": "uint256"
        },
        {
          "internalType": "string[]",
          "name": "_permissions",
          "type": "string[]"
        }
      ],
      "name": "addPermissionsToRole",
      "outputs": [],
      "stateMutability": "nonpayable",
      "type": "function"
    },
    {
      "inputs": [
        {
          "internalType": "string",
          "name": "_channelNetworkId",
          "type": "string"
        },
        {
          "internalType": "address",
          "name": "_entitlement",
          "type": "address"
        },
        {
          "internalType": "uint256",
          "name": "_roleId",
          "type": "uint256"
        }
      ],
      "name": "addRoleToChannel",
      "outputs": [],
      "stateMutability": "nonpayable",
      "type": "function"
    },
    {
      "inputs": [
        {
          "internalType": "uint256",
          "name": "_roleId",
          "type": "uint256"
        },
        {
          "components": [
            {
              "internalType": "address",
              "name": "module",
              "type": "address"
            },
            {
              "internalType": "bytes",
              "name": "data",
              "type": "bytes"
            }
          ],
          "internalType": "struct DataTypes.Entitlement",
          "name": "_entitlement",
          "type": "tuple"
        }
      ],
      "name": "addRoleToEntitlement",
      "outputs": [],
      "stateMutability": "nonpayable",
      "type": "function"
    },
    {
      "inputs": [
        {
          "internalType": "uint256",
          "name": "",
          "type": "uint256"
        }
      ],
      "name": "channels",
      "outputs": [
        {
          "internalType": "bytes32",
          "name": "",
          "type": "bytes32"
        }
      ],
      "stateMutability": "view",
      "type": "function"
    },
    {
      "inputs": [
        {
          "internalType": "bytes32",
          "name": "",
          "type": "bytes32"
        }
      ],
      "name": "channelsByHash",
      "outputs": [
        {
          "internalType": "string",
          "name": "name",
          "type": "string"
        },
        {
          "internalType": "string",
          "name": "channelNetworkId",
          "type": "string"
        },
        {
          "internalType": "bytes32",
          "name": "channelHash",
          "type": "bytes32"
        },
        {
          "internalType": "uint256",
          "name": "createdAt",
          "type": "uint256"
        },
        {
          "internalType": "bool",
          "name": "disabled",
          "type": "bool"
        }
      ],
      "stateMutability": "view",
      "type": "function"
    },
    {
      "inputs": [
        {
          "internalType": "string",
          "name": "channelName",
          "type": "string"
        },
        {
          "internalType": "string",
          "name": "channelNetworkId",
          "type": "string"
        },
        {
          "internalType": "uint256[]",
          "name": "roleIds",
          "type": "uint256[]"
        }
      ],
      "name": "createChannel",
      "outputs": [
        {
          "internalType": "bytes32",
          "name": "",
          "type": "bytes32"
        }
      ],
      "stateMutability": "nonpayable",
      "type": "function"
    },
    {
      "inputs": [
        {
          "internalType": "string",
          "name": "_roleName",
          "type": "string"
        },
        {
          "internalType": "string[]",
          "name": "_permissions",
          "type": "string[]"
        },
        {
          "components": [
            {
              "internalType": "address",
              "name": "module",
              "type": "address"
            },
            {
              "internalType": "bytes",
              "name": "data",
              "type": "bytes"
            }
          ],
          "internalType": "struct DataTypes.Entitlement[]",
          "name": "_entitlements",
          "type": "tuple[]"
        }
      ],
      "name": "createRole",
      "outputs": [
        {
          "internalType": "uint256",
          "name": "",
          "type": "uint256"
        }
      ],
      "stateMutability": "nonpayable",
      "type": "function"
    },
    {
      "inputs": [
        {
          "internalType": "address",
          "name": "",
          "type": "address"
        }
      ],
      "name": "defaultEntitlements",
      "outputs": [
        {
          "internalType": "bool",
          "name": "",
          "type": "bool"
        }
      ],
      "stateMutability": "view",
      "type": "function"
    },
    {
      "inputs": [],
      "name": "disabled",
      "outputs": [
        {
          "internalType": "bool",
          "name": "",
          "type": "bool"
        }
      ],
      "stateMutability": "view",
      "type": "function"
    },
    {
      "inputs": [
        {
          "internalType": "uint256",
          "name": "",
          "type": "uint256"
        }
      ],
      "name": "entitlements",
      "outputs": [
        {
          "internalType": "address",
          "name": "",
          "type": "address"
        }
      ],
      "stateMutability": "view",
      "type": "function"
    },
    {
      "inputs": [
        {
          "internalType": "bytes32",
          "name": "_channelHash",
          "type": "bytes32"
        }
      ],
      "name": "getChannelByHash",
      "outputs": [
        {
          "components": [
            {
              "internalType": "string",
              "name": "name",
              "type": "string"
            },
            {
              "internalType": "string",
              "name": "channelNetworkId",
              "type": "string"
            },
            {
              "internalType": "bytes32",
              "name": "channelHash",
              "type": "bytes32"
            },
            {
              "internalType": "uint256",
              "name": "createdAt",
              "type": "uint256"
            },
            {
              "internalType": "bool",
              "name": "disabled",
              "type": "bool"
            }
          ],
          "internalType": "struct DataTypes.Channel",
          "name": "",
          "type": "tuple"
        }
      ],
      "stateMutability": "view",
      "type": "function"
    },
    {
      "inputs": [],
      "name": "getChannels",
      "outputs": [
        {
          "internalType": "bytes32[]",
          "name": "",
          "type": "bytes32[]"
        }
      ],
      "stateMutability": "view",
      "type": "function"
    },
    {
      "inputs": [
        {
          "internalType": "string",
          "name": "_moduleType",
          "type": "string"
        }
      ],
      "name": "getEntitlementByModuleType",
      "outputs": [
        {
          "internalType": "address",
          "name": "",
          "type": "address"
        }
      ],
      "stateMutability": "view",
      "type": "function"
    },
    {
      "inputs": [
        {
          "internalType": "uint256",
          "name": "_roleId",
          "type": "uint256"
        }
      ],
      "name": "getEntitlementIdsByRoleId",
      "outputs": [
        {
          "internalType": "bytes32[]",
          "name": "",
          "type": "bytes32[]"
        }
      ],
      "stateMutability": "view",
      "type": "function"
    },
    {
      "inputs": [],
      "name": "getEntitlements",
      "outputs": [
        {
          "internalType": "address[]",
          "name": "",
          "type": "address[]"
        }
      ],
      "stateMutability": "view",
      "type": "function"
    },
    {
      "inputs": [
        {
          "internalType": "uint256",
          "name": "_roleId",
          "type": "uint256"
        }
      ],
      "name": "getPermissionsByRoleId",
      "outputs": [
        {
          "internalType": "bytes32[]",
          "name": "",
          "type": "bytes32[]"
        }
      ],
      "stateMutability": "view",
      "type": "function"
    },
    {
      "inputs": [
        {
          "internalType": "uint256",
          "name": "_roleId",
          "type": "uint256"
        }
      ],
      "name": "getRoleById",
      "outputs": [
        {
          "components": [
            {
              "internalType": "uint256",
              "name": "roleId",
              "type": "uint256"
            },
            {
              "internalType": "string",
              "name": "name",
              "type": "string"
            }
          ],
          "internalType": "struct DataTypes.Role",
          "name": "",
          "type": "tuple"
        }
      ],
      "stateMutability": "view",
      "type": "function"
    },
    {
      "inputs": [],
      "name": "getRoles",
      "outputs": [
        {
          "components": [
            {
              "internalType": "uint256",
              "name": "roleId",
              "type": "uint256"
            },
            {
              "internalType": "string",
              "name": "name",
              "type": "string"
            }
          ],
          "internalType": "struct DataTypes.Role[]",
          "name": "",
          "type": "tuple[]"
        }
      ],
      "stateMutability": "view",
      "type": "function"
    },
    {
      "inputs": [
        {
          "internalType": "address",
          "name": "",
          "type": "address"
        }
      ],
      "name": "hasEntitlement",
      "outputs": [
        {
          "internalType": "bool",
          "name": "",
          "type": "bool"
        }
      ],
      "stateMutability": "view",
      "type": "function"
    },
    {
      "inputs": [
        {
          "internalType": "string",
          "name": "_name",
          "type": "string"
        },
        {
          "internalType": "string",
          "name": "_networkId",
          "type": "string"
        },
        {
          "internalType": "address[]",
          "name": "_entitlements",
          "type": "address[]"
        },
        {
          "internalType": "address",
          "name": "_token",
          "type": "address"
        },
        {
          "internalType": "uint256",
          "name": "_tokenId",
          "type": "uint256"
        }
      ],
      "name": "initialize",
      "outputs": [],
      "stateMutability": "nonpayable",
      "type": "function"
    },
    {
      "inputs": [
        {
          "internalType": "string",
          "name": "_channelNetworkId",
          "type": "string"
        },
        {
          "internalType": "address",
          "name": "_user",
          "type": "address"
        },
        {
          "internalType": "string",
          "name": "_permission",
          "type": "string"
        }
      ],
      "name": "isEntitledToChannel",
      "outputs": [
        {
          "internalType": "bool",
          "name": "_entitled",
          "type": "bool"
        }
      ],
      "stateMutability": "view",
      "type": "function"
    },
    {
      "inputs": [
        {
          "internalType": "address",
          "name": "_user",
          "type": "address"
        },
        {
          "internalType": "string",
          "name": "_permission",
          "type": "string"
        }
      ],
      "name": "isEntitledToSpace",
      "outputs": [
        {
          "internalType": "bool",
          "name": "_entitled",
          "type": "bool"
        }
      ],
      "stateMutability": "view",
      "type": "function"
    },
    {
      "inputs": [
        {
          "internalType": "bytes[]",
          "name": "data",
          "type": "bytes[]"
        }
      ],
      "name": "multicall",
      "outputs": [
        {
          "internalType": "bytes[]",
          "name": "results",
          "type": "bytes[]"
        }
      ],
      "stateMutability": "nonpayable",
      "type": "function"
    },
    {
      "inputs": [],
      "name": "name",
      "outputs": [
        {
          "internalType": "string",
          "name": "",
          "type": "string"
        }
      ],
      "stateMutability": "view",
      "type": "function"
    },
    {
      "inputs": [],
      "name": "networkId",
      "outputs": [
        {
          "internalType": "string",
          "name": "",
          "type": "string"
        }
      ],
      "stateMutability": "view",
      "type": "function"
    },
    {
      "inputs": [],
      "name": "owner",
      "outputs": [
        {
          "internalType": "address",
          "name": "",
          "type": "address"
        }
      ],
      "stateMutability": "view",
      "type": "function"
    },
    {
      "inputs": [],
      "name": "ownerRoleId",
      "outputs": [
        {
          "internalType": "uint256",
          "name": "",
          "type": "uint256"
        }
      ],
      "stateMutability": "view",
      "type": "function"
    },
    {
      "inputs": [],
      "name": "proxiableUUID",
      "outputs": [
        {
          "internalType": "bytes32",
          "name": "",
          "type": "bytes32"
        }
      ],
      "stateMutability": "view",
      "type": "function"
    },
    {
      "inputs": [
        {
          "internalType": "uint256",
          "name": "_roleId",
          "type": "uint256"
        },
        {
          "internalType": "string",
          "name": "_permission",
          "type": "string"
        }
      ],
      "name": "removePermissionFromRole",
      "outputs": [],
      "stateMutability": "nonpayable",
      "type": "function"
    },
    {
      "inputs": [
        {
          "internalType": "uint256",
          "name": "_roleId",
          "type": "uint256"
        }
      ],
      "name": "removeRole",
      "outputs": [],
      "stateMutability": "nonpayable",
      "type": "function"
    },
    {
      "inputs": [
        {
          "internalType": "string",
          "name": "_channelNetworkId",
          "type": "string"
        },
        {
          "internalType": "address",
          "name": "_entitlement",
          "type": "address"
        },
        {
          "internalType": "uint256",
          "name": "_roleId",
          "type": "uint256"
        }
      ],
      "name": "removeRoleFromChannel",
      "outputs": [],
      "stateMutability": "nonpayable",
      "type": "function"
    },
    {
      "inputs": [
        {
          "internalType": "uint256",
          "name": "_roleId",
          "type": "uint256"
        },
        {
          "components": [
            {
              "internalType": "address",
              "name": "module",
              "type": "address"
            },
            {
              "internalType": "bytes",
              "name": "data",
              "type": "bytes"
            }
          ],
          "internalType": "struct DataTypes.Entitlement",
          "name": "_entitlement",
          "type": "tuple"
        }
      ],
      "name": "removeRoleFromEntitlement",
      "outputs": [],
      "stateMutability": "nonpayable",
      "type": "function"
    },
    {
      "inputs": [],
      "name": "roleCount",
      "outputs": [
        {
          "internalType": "uint256",
          "name": "",
          "type": "uint256"
        }
      ],
      "stateMutability": "view",
      "type": "function"
    },
    {
      "inputs": [
        {
          "internalType": "uint256",
          "name": "",
          "type": "uint256"
        }
      ],
      "name": "rolesById",
      "outputs": [
        {
          "internalType": "uint256",
          "name": "roleId",
          "type": "uint256"
        },
        {
          "internalType": "string",
          "name": "name",
          "type": "string"
        }
      ],
      "stateMutability": "view",
      "type": "function"
    },
    {
      "inputs": [
        {
          "internalType": "string",
          "name": "channelNetworkId",
          "type": "string"
        },
        {
          "internalType": "bool",
          "name": "disableChannel",
          "type": "bool"
        }
      ],
      "name": "setChannelAccess",
      "outputs": [],
      "stateMutability": "nonpayable",
      "type": "function"
    },
    {
      "inputs": [
        {
          "internalType": "address",
          "name": "_entitlementModule",
          "type": "address"
        },
        {
          "internalType": "bool",
          "name": "_whitelist",
          "type": "bool"
        }
      ],
      "name": "setEntitlementModule",
      "outputs": [],
      "stateMutability": "nonpayable",
      "type": "function"
    },
    {
      "inputs": [
        {
          "internalType": "uint256",
          "name": "_roleId",
          "type": "uint256"
        }
      ],
      "name": "setOwnerRoleId",
      "outputs": [],
      "stateMutability": "nonpayable",
      "type": "function"
    },
    {
      "inputs": [
        {
          "internalType": "bool",
          "name": "_disabled",
          "type": "bool"
        }
      ],
      "name": "setSpaceAccess",
      "outputs": [],
      "stateMutability": "nonpayable",
      "type": "function"
    },
    {
      "inputs": [],
      "name": "token",
      "outputs": [
        {
          "internalType": "address",
          "name": "",
          "type": "address"
        }
      ],
      "stateMutability": "view",
      "type": "function"
    },
    {
      "inputs": [],
      "name": "tokenId",
      "outputs": [
        {
          "internalType": "uint256",
          "name": "",
          "type": "uint256"
        }
      ],
      "stateMutability": "view",
      "type": "function"
    },
    {
      "inputs": [
        {
          "internalType": "string",
          "name": "channelNetworkId",
          "type": "string"
        },
        {
          "internalType": "string",
          "name": "channelName",
          "type": "string"
        }
      ],
      "name": "updateChannel",
      "outputs": [],
      "stateMutability": "nonpayable",
      "type": "function"
    },
    {
      "inputs": [
        {
          "internalType": "uint256",
          "name": "_roleId",
          "type": "uint256"
        },
        {
          "internalType": "string",
          "name": "_roleName",
          "type": "string"
        }
      ],
      "name": "updateRole",
      "outputs": [],
      "stateMutability": "nonpayable",
      "type": "function"
    },
    {
      "inputs": [
        {
          "internalType": "address",
          "name": "_entitlement",
          "type": "address"
        },
        {
          "internalType": "address",
          "name": "_newEntitlement",
          "type": "address"
        }
      ],
      "name": "upgradeEntitlement",
      "outputs": [],
      "stateMutability": "nonpayable",
      "type": "function"
    },
    {
      "inputs": [
        {
          "internalType": "address",
          "name": "newImplementation",
          "type": "address"
        }
      ],
      "name": "upgradeTo",
      "outputs": [],
      "stateMutability": "nonpayable",
      "type": "function"
    },
    {
      "inputs": [
        {
          "internalType": "address",
          "name": "newImplementation",
          "type": "address"
        },
        {
          "internalType": "bytes",
          "name": "data",
          "type": "bytes"
        }
      ],
      "name": "upgradeToAndCall",
      "outputs": [],
      "stateMutability": "payable",
      "type": "function"
    }
  ],
  "bytecode": {
    "object": "0x60a0604052306080523480156200001557600080fd5b506200002062000026565b620000e7565b600054610100900460ff1615620000935760405162461bcd60e51b815260206004820152602760248201527f496e697469616c697a61626c653a20636f6e747261637420697320696e697469604482015266616c697a696e6760c81b606482015260840160405180910390fd5b60005460ff90811614620000e5576000805460ff191660ff9081179091556040519081527f7f26b83ff96e1f2b6a682f133852f6798a09c465da95921460cefb38474024989060200160405180910390a15b565b6080516150a96200011f60003960008181610e0701528181610e500152818161120301528181611243015261175701526150a96000f3fe6080604052600436106102725760003560e01c8063870b94641161014f578063cea632bc116100c1578063ee0708051161007a578063ee070805146107aa578063f28f9b56146107c4578063f3ce6a5b146107e4578063f740bb6b14610804578063fa6433c514610824578063fc0c546a1461085457600080fd5b8063cea632bc146106f0578063d1a6a96114610710578063dba8186414610726578063ddf9635814610746578063e5894ef41461075c578063e5949b5d1461078a57600080fd5b80639575f6ac116101135780639575f6ac1461062e578063ac9650d814610643578063b426423314610670578063b751576114610690578063ba201ba8146106b0578063baaf3d57146106d057600080fd5b8063870b94641461058c5780638da5cb5b146105c45780638fcd793d146105d95780639025e64c146105f9578063926918211461060e57600080fd5b8063487dc38c116101e857806352d1902d116101ac57806352d1902d146104ab5780635de151b8146104c0578063703511f8146104e0578063710613981461050d578063784c872b1461052f5780637f8d06d01461055c57600080fd5b8063487dc38c146104165780634999ab16146104385780634f1ef28614610458578063519607f21461046b57806351f83cea1461048b57600080fd5b806332e704cc1161023a57806332e704cc1461034957806334a1dd26146103695780633659cfe61461038957806342486e49146103a9578063441555e5146103d6578063446dc22e146103f657600080fd5b806306fdde0314610277578063129ab3c8146102a257806317d70f7c146102d35780631dea616a146102f757806320759f9e14610319575b600080fd5b34801561028357600080fd5b5061028c610874565b6040516102999190613dad565b60405180910390f35b3480156102ae57600080fd5b506102c26102bd366004613dc0565b610902565b604051610299959493929190613dd9565b3480156102df57600080fd5b506102e9609c5481565b604051908152602001610299565b34801561030357600080fd5b50610317610312366004613e8b565b610a45565b005b34801561032557600080fd5b50610339610334366004613ee7565b610b7c565b6040519015158152602001610299565b34801561035557600080fd5b50610317610364366004613ffe565b610bf2565b34801561037557600080fd5b50610317610384366004614044565b610d0e565b34801561039557600080fd5b506103176103a43660046140af565b610dfd565b3480156103b557600080fd5b506103c96103c4366004613dc0565b610ee5565b60405161029991906140cc565b3480156103e257600080fd5b506103176103f136600461411e565b610f47565b34801561040257600080fd5b50610317610411366004614157565b61101b565b34801561042257600080fd5b5061042b611053565b6040516102999190614174565b34801561044457600080fd5b50610317610453366004613dc0565b6110b5565b6103176104663660046141b5565b6111f9565b34801561047757600080fd5b506103176104863660046141ee565b6112c5565b34801561049757600080fd5b506102e96104a636600461423f565b6113e0565b3480156104b757600080fd5b506102e961174a565b3480156104cc57600080fd5b506103176104db366004614320565b6117fd565b3480156104ec57600080fd5b506105006104fb366004613dc0565b6118c3565b6040516102999190614376565b34801561051957600080fd5b50610522611a54565b6040516102999190614403565b34801561053b57600080fd5b5061054f61054a366004613dc0565b611bc2565b6040516102999190614465565b34801561056857600080fd5b506103396105773660046140af565b609d6020526000908152604090205460ff1681565b34801561059857600080fd5b506105ac6105a7366004614478565b611c98565b6040516001600160a01b039091168152602001610299565b3480156105d057600080fd5b506105ac611d81565b3480156105e557600080fd5b506102e96105f43660046145af565b611df8565b34801561060557600080fd5b5061028c612123565b34801561061a57600080fd5b50610317610629366004613dc0565b612130565b34801561063a57600080fd5b506103c9612267565b34801561064f57600080fd5b5061066361065e3660046146aa565b6122be565b604051610299919061471e565b34801561067c57600080fd5b506103c961068b366004613dc0565b6123d5565b34801561069c57600080fd5b506103176106ab366004614773565b612435565b3480156106bc57600080fd5b506103176106cb3660046147af565b6125d2565b3480156106dc57600080fd5b506103176106eb366004613e8b565b6126ab565b3480156106fc57600080fd5b5061033961070b3660046147eb565b6127aa565b34801561071c57600080fd5b506102e9609a5481565b34801561073257600080fd5b5061031761074136600461486f565b6128fc565b34801561075257600080fd5b506102e960a15481565b34801561076857600080fd5b5061077c610777366004613dc0565b612b65565b6040516102999291906148b1565b34801561079657600080fd5b506102e96107a5366004613dc0565b612c0a565b3480156107b657600080fd5b506099546103399060ff1681565b3480156107d057600080fd5b506105ac6107df366004613dc0565b612c2b565b3480156107f057600080fd5b506103176107ff3660046148ca565b612c55565b34801561081057600080fd5b5061031761081f366004613ffe565b612e39565b34801561083057600080fd5b5061033961083f3660046140af565b609e6020526000908152604090205460ff1681565b34801561086057600080fd5b50609b546105ac906001600160a01b031681565b60978054610881906149c9565b80601f01602080910402602001604051908101604052809291908181526020018280546108ad906149c9565b80156108fa5780601f106108cf576101008083540402835291602001916108fa565b820191906000526020600020905b8154815290600101906020018083116108dd57829003601f168201915b505050505081565b60a46020526000908152604090208054819061091d906149c9565b80601f0160208091040260200160405190810160405280929190818152602001828054610949906149c9565b80156109965780601f1061096b57610100808354040283529160200191610996565b820191906000526020600020905b81548152906001019060200180831161097957829003601f168201915b5050505050908060010180546109ab906149c9565b80601f01602080910402602001604051908101604052809291908181526020018280546109d7906149c9565b8015610a245780601f106109f957610100808354040283529160200191610a24565b820191906000526020600020905b815481529060010190602001808311610a0757829003601f168201915b50505050600283015460038401546004909401549293909290915060ff1685565b610aad84848080601f0160208091040260200160405190810160405280939291908181526020018383808284376000920191909152505060408051808201909152601181527041646452656d6f76654368616e6e656c7360781b602082015291506130209050565b6001600160a01b0382166000908152609d602052604090205460ff16610ae65760405163c1ef36f360e01b815260040160405180910390fd5b600081815260a260205260408120549003610b145760405163b810dc5d60e01b815260040160405180910390fd5b60405163c513be7760e01b81526001600160a01b0383169063c513be7790610b4490879087908690600401614a26565b600060405180830381600087803b158015610b5e57600080fd5b505af1158015610b72573d6000803e3d6000fd5b5050505050505050565b6000805b60a054811015610bea57610bce60405180602001604052806000815250868686604051602001610bb1929190614a4a565b604051602081830303815290604052610bc990614a5a565b613074565b15610bd857600191505b80610be281614a94565b915050610b80565b509392505050565b610c2e6040518060200160405280600081525060405180604001604052806016815260200160008051602061502d833981519152815250613020565b610c378161312d565b609a548203610c5957604051631eb49d6d60e11b815260040160405180910390fd5b600082815260a260205260408120549003610c875760405163b810dc5d60e01b815260040160405180910390fd5b8051600003610ca957604051630e52390960e41b815260040160405180910390fd5b600082815260a260205260409020600101610cc48282614af3565b5081336001600160a01b03167ff3c55faf0b13ffa681c984baddbb8ef7638e514188ea19bd6461d7f87b9c7953836098604051610d02929190614c2f565b60405180910390a35050565b610d50604051806020016040528060008152506040518060400160405280601181526020017041646452656d6f76654368616e6e656c7360781b815250613020565b610d5a828261315e565b60008484604051602001610d6f929190614a4a565b60408051601f198184030181529181528151602092830120600081815260a4909352908220600201549092509003610dba57604051636ddd9da960e01b815260040160405180910390fd5b6000829003610ddc57604051631eb49d6d60e11b815260040160405180910390fd5b600081815260a460205260409020610df5838583614c54565b505050505050565b6001600160a01b037f0000000000000000000000000000000000000000000000000000000000000000163003610e4e5760405162461bcd60e51b8152600401610e4590614d13565b60405180910390fd5b7f00000000000000000000000000000000000000000000000000000000000000006001600160a01b0316610e9760008051602061500d833981519152546001600160a01b031690565b6001600160a01b031614610ebd5760405162461bcd60e51b8152600401610e4590614d5f565b610ec681613373565b60408051600080825260208201909252610ee2918391906133a9565b50565b6000818152609f6020908152604091829020805483518184028101840190945280845260609392830182828015610f3b57602002820191906000526020600020905b815481526020019060010190808311610f27575b50505050509050919050565b610f7d604051806020016040528060008152506040518060400160405280600581526020016427bbb732b960d91b815250613020565b610f8682613514565b808015610fab57506001600160a01b0382166000908152609d602052604090205460ff165b15610fc95760405163186abc9b60e01b815260040160405180910390fd5b80158015610fef57506001600160a01b0382166000908152609e602052604090205460ff165b1561100d57604051631eb49d6d60e11b815260040160405180910390fd5b61101782826135a5565b5050565b611023613726565b61104057604051631eb49d6d60e11b815260040160405180910390fd5b6099805460ff1916911515919091179055565b606060a08054806020026020016040519081016040528092919081815260200182805480156110ab57602002820191906000526020600020905b81546001600160a01b0316815260019091019060200180831161108d575b5050505050905090565b6110bd613726565b6110da57604051631eb49d6d60e11b815260040160405180910390fd5b609a54156110fb57604051631eb49d6d60e11b815260040160405180910390fd5b600081815260a2602052604081205490036111295760405163b810dc5d60e01b815260040160405180910390fd5b6000805b600083815260a360205260409020548110156111d4576040518060400160405280600581526020016427bbb732b960d91b8152506040516020016111719190614dab565b60405160208183030381529060405261118990614a5a565b600084815260a3602052604090208054839081106111a9576111a9614dc7565b9060005260206000200154036111c257600191506111d4565b806111cc81614a94565b91505061112d565b50806111f357604051633e74bd6360e21b815260040160405180910390fd5b50609a55565b6001600160a01b037f00000000000000000000000000000000000000000000000000000000000000001630036112415760405162461bcd60e51b8152600401610e4590614d13565b7f00000000000000000000000000000000000000000000000000000000000000006001600160a01b031661128a60008051602061500d833981519152546001600160a01b031690565b6001600160a01b0316146112b05760405162461bcd60e51b8152600401610e4590614d5f565b6112b982613373565b611017828260016133a9565b6112fb604051806020016040528060008152506040518060400160405280600581526020016427bbb732b960d91b815250613020565b6001600160a01b038216158061131857506001600160a01b038116155b1561133657604051630e52390960e41b815260040160405180910390fd5b6001600160a01b0382166000908152609d602052604090205460ff1661136f5760405163c1ef36f360e01b815260040160405180910390fd5b604051631b2ce7f360e11b81526001600160a01b038281166004830152831690633659cfe690602401600060405180830381600087803b1580156113b257600080fd5b505af19250505080156113c3575060015b61101757604051630e52390960e41b815260040160405180910390fd5b6000611424604051806020016040528060008152506040518060400160405280601181526020017041646452656d6f76654368616e6e656c7360781b815250613020565b61142e858561315e565b6000836040516020016114419190614dab565b60408051601f198184030181529181528151602092830120600081815260a49093529120600201549091501561148a57604051630139324b60e41b815260040160405180910390fd5b6040518060a0016040528087878080601f016020809104026020016040519081016040528093929190818152602001838380828437600092018290525093855250505060208083018890526040808401869052426060850152608090930182905284825260a4905220815181906115019082614af3565b50602082015160018201906115169082614af3565b5060408201516002820155606082015160038201556080909101516004909101805460ff191691151591909117905560a5805460018101825560009182527fb29a2b3b6f2ff1b765777a231725941da5072cc4fcc30ac4a2ce09706e8ddeff018290555b60a05481101561174057600060a0828154811061159957611599614dc7565b600091825260209091200154609a5460405163c513be7760e01b81526001600160a01b039092169250829163c513be77916115d9918a9190600401614ddd565b600060405180830381600087803b1580156115f357600080fd5b505af1158015611607573d6000803e3d6000fd5b5050505060005b855181101561172b57609a5486828151811061162c5761162c614dc7565b602002602001015103156117195760a2600087838151811061165057611650614dc7565b602002602001015181526020019081526020016000206000015460000361168a5760405163b810dc5d60e01b815260040160405180910390fd5b816001600160a01b031663c513be77888884815181106116ac576116ac614dc7565b60200260200101516040518363ffffffff1660e01b81526004016116d1929190614ddd565b600060405180830381600087803b1580156116eb57600080fd5b505af19250505080156116fc575060015b6117195760405163d9afe50760e01b815260040160405180910390fd5b8061172381614a94565b91505061160e565b5050808061173890614a94565b91505061157a565b5095945050505050565b6000306001600160a01b037f000000000000000000000000000000000000000000000000000000000000000016146117ea5760405162461bcd60e51b815260206004820152603860248201527f555550535570677261646561626c653a206d757374206e6f742062652063616c60448201527f6c6564207468726f7567682064656c656761746563616c6c00000000000000006064820152608401610e45565b5060008051602061500d83398151915290565b61183f604051806020016040528060008152506040518060400160405280601181526020017041646452656d6f76654368616e6e656c7360781b815250613020565b60008383604051602001611854929190614a4a565b60408051601f198184030181529181528151602092830120600081815260a490935290822060020154909250900361189f57604051636ddd9da960e01b815260040160405180910390fd5b600090815260a460205260409020600401805460ff19169115159190911790555050565b6040805160a081018252606080825260208201819052600092820183905281018290526080810191909152600082815260a4602052604090819020815160a08101909252805482908290611916906149c9565b80601f0160208091040260200160405190810160405280929190818152602001828054611942906149c9565b801561198f5780601f106119645761010080835404028352916020019161198f565b820191906000526020600020905b81548152906001019060200180831161197257829003601f168201915b505050505081526020016001820180546119a8906149c9565b80601f01602080910402602001604051908101604052809291908181526020018280546119d4906149c9565b8015611a215780601f106119f657610100808354040283529160200191611a21565b820191906000526020600020905b815481529060010190602001808311611a0457829003601f168201915b5050509183525050600282015460208201526003820154604082015260049091015460ff16151560609091015292915050565b6060600060a1546001600160401b03811115611a7257611a72613f3b565b604051908082528060200260200182016040528015611ab857816020015b604080518082019091526000815260606020820152815260200190600190039081611a905790505b50905060005b60a154811015611bbc5760a26000611ad7836001614dff565b815260200190815260200160002060405180604001604052908160008201548152602001600182018054611b0a906149c9565b80601f0160208091040260200160405190810160405280929190818152602001828054611b36906149c9565b8015611b835780601f10611b5857610100808354040283529160200191611b83565b820191906000526020600020905b815481529060010190602001808311611b6657829003601f168201915b505050505081525050828281518110611b9e57611b9e614dc7565b60200260200101819052508080611bb490614a94565b915050611abe565b50919050565b60408051808201909152600081526060602082015260a2600083815260200190815260200160002060405180604001604052908160008201548152602001600182018054611c0f906149c9565b80601f0160208091040260200160405190810160405280929190818152602001828054611c3b906149c9565b8015611c885780601f10611c5d57610100808354040283529160200191611c88565b820191906000526020600020905b815481529060010190602001808311611c6b57829003601f168201915b5050505050815250509050919050565b60008060005b60a054811015611d7a57611d3860a08281548110611cbe57611cbe614dc7565b600091825260208220015460408051636465e69f60e01b815290516001600160a01b0390921692636465e69f926004808401938290030181865afa158015611d0a573d6000803e3d6000fd5b505050506040513d6000823e601f3d908101601f19168201604052611d329190810190614e12565b856137ad565b15611d685760a08181548110611d5057611d50614dc7565b6000918252602090912001546001600160a01b031691505b80611d7281614a94565b915050611c9e565b5092915050565b609b54609c546040516331a9108f60e11b815260048101919091526000916001600160a01b031690636352211e90602401602060405180830381865afa158015611dcf573d6000803e3d6000fd5b505050506040513d601f19601f82011682018060405250810190611df39190614e7f565b905090565b6000611e366040518060200160405280600081525060405180604001604052806016815260200160008051602061502d833981519152815250613020565b611e7585858080601f01602080910402602001604051908101604052809392919081815260200183838082843760009201919091525061312d92505050565b600060a160008154611e8690614a94565b91905081905590506000604051806040016040528083815260200188888080601f016020809104026020016040519081016040528093929190818152602001838380828437600092018290525093909452505084815260a260209081526040909120835181559083015192935083929091506001820190611f079082614af3565b5090505060005b8551811015611ff757609a5415158015611f635750611f63868281518110611f3857611f38614dc7565b60200260200101516040518060400160405280600581526020016427bbb732b960d91b8152506137ad565b15611f8157604051631eb49d6d60e11b815260040160405180910390fd5b6000868281518110611f9557611f95614dc7565b6020026020010151604051602001611fad9190614dab565b604051602081830303815290604052611fc590614a5a565b600085815260a36020908152604082208054600181018255908352912001555080611fef81614a94565b915050611f0e565b5060005b84518110156120d157600085828151811061201857612018614dc7565b6020026020010151600001519050600086838151811061203a5761203a614dc7565b602002602001015160200151905060006001600160a01b0316826001600160a01b0316148061206857508051155b156120745750506120bf565b6001600160a01b0382166000908152609d602052604081205460ff16151590036120b15760405163c1ef36f360e01b815260040160405180910390fd5b6120bc858383613807565b50505b806120c981614a94565b915050611ffb565b5081336001600160a01b03167f39772407c6dd2e83adbd292cdfa17a6817c9a7500e56cfe57b7a82d797f8d39b8989609860405161211193929190614e9c565b60405180910390a35095945050505050565b60988054610881906149c9565b61216c6040518060200160405280600081525060405180604001604052806016815260200160008051602061502d833981519152815250613020565b609a54810361218e57604051631eb49d6d60e11b815260040160405180910390fd5b600081815260a2602052604081205490036121bc5760405163b810dc5d60e01b815260040160405180910390fd5b6000818152609f6020526040902054156121e957604051633764405360e11b815260040160405180910390fd5b600081815260a260205260408120818155906122086001830182613cf0565b5050600081815260a36020526040812061222191613d2a565b80336001600160a01b03167f1d5667a301e36f2d5b1ee32b7f187b0adb46c706297242fa945d3fed1e7f8a19609860405161225c9190614ecc565b60405180910390a350565b606060a58054806020026020016040519081016040528092919081815260200182805480156110ab57602002820191906000526020600020905b8154815260200190600101908083116122a1575050505050905090565b6060816001600160401b038111156122d8576122d8613f3b565b60405190808252806020026020018201604052801561230b57816020015b60608152602001906001900390816122f65790505b50905060005b82811015611d7a576000803086868581811061232f5761232f614dc7565b90506020028101906123419190614edf565b60405161234f929190614a4a565b600060405180830381855af49150503d806000811461238a576040519150601f19603f3d011682016040523d82523d6000602084013e61238f565b606091505b5091509150816123a2576123a281613977565b808484815181106123b5576123b5614dc7565b6020026020010181905250505080806123cd90614a94565b915050612311565b600081815260a36020908152604091829020805483518184028101840190945280845260609392830182828015610f3b5760200282019190600052602060002090815481526020019060010190808311610f275750505050509050919050565b6124716040518060200160405280600081525060405180604001604052806016815260200160008051602061502d833981519152815250613020565b600082815260a26020526040812054900361249f5760405163b810dc5d60e01b815260040160405180910390fd5b60005b81518110156125cd576124c0828281518110611f3857611f38614dc7565b156124de57604051631eb49d6d60e11b815260040160405180910390fd5b60008282815181106124f2576124f2614dc7565b602002602001015160405160200161250a9190614dab565b60405160208183030381529060405261252290614a5a565b905060005b600085815260a3602052604090205481101561259b57600085815260a36020526040902080548391908390811061256057612560614dc7565b90600052602060002001540361258957604051636571d65f60e01b815260040160405180910390fd5b8061259381614a94565b915050612527565b50600084815260a3602090815260408220805460018101825590835291200155806125c581614a94565b9150506124a2565b505050565b61260e6040518060200160405280600081525060405180604001604052806016815260200160008051602061502d833981519152815250613020565b80516001600160a01b03166000908152609d602052604090205460ff166126485760405163c1ef36f360e01b815260040160405180910390fd5b600082815260a2602052604081205490036126765760405163b810dc5d60e01b815260040160405180910390fd5b609a54820361269857604051631eb49d6d60e11b815260040160405180910390fd5b6110178282600001518360200151613807565b61271384848080601f0160208091040260200160405190810160405280939291908181526020018383808284376000920191909152505060408051808201909152601181527041646452656d6f76654368616e6e656c7360781b602082015291506130209050565b6001600160a01b0382166000908152609d602052604090205460ff1661274c5760405163c1ef36f360e01b815260040160405180910390fd5b600081815260a26020526040812054900361277a5760405163b810dc5d60e01b815260040160405180910390fd5b604051637997c1e760e11b81526001600160a01b0383169063f32f83ce90610b4490879087908690600401614a26565b60008415806127b7575081155b806127c957506001600160a01b038416155b156127e757604051630e52390960e41b815260040160405180910390fd5b600086866040516020016127fc929190614a4a565b60408051601f198184030181529181528151602092830120600081815260a490935290822060020154909250900361284757604051636ddd9da960e01b815260040160405180910390fd5b600081815260a4602052604090206004015460ff161561287a57604051631eb49d6d60e11b815260040160405180910390fd5b60005b60a0548110156128f1576128d588888080601f016020809104026020016040519081016040528093929190818152602001838380828437600092019190915250506040518a9250610bb1915089908990602001614a4a565b156128df57600192505b806128e981614a94565b91505061287d565b505095945050505050565b6129386040518060200160405280600081525060405180604001604052806016815260200160008051602061502d833981519152815250613020565b609a54820361295a57604051631eb49d6d60e11b815260040160405180910390fd5b609d600061296b60208401846140af565b6001600160a01b0316815260208101919091526040016000205460ff166129a55760405163c1ef36f360e01b815260040160405180910390fd5b600082815260a2602052604081205490036129d35760405163b810dc5d60e01b815260040160405180910390fd5b6000826129e36020840184614edf565b6040516020016129f593929190614f25565b60408051601f1981840301815291815281516020928301206000868152609f909352908220909250905b8154811015612ad357818181548110612a3a57612a3a614dc7565b90600052602060002001548303612ac15781548290612a5b90600190614f3f565b81548110612a6b57612a6b614dc7565b9060005260206000200154828281548110612a8857612a88614dc7565b906000526020600020018190555081805480612aa657612aa6614f52565b60019003818190600052602060002001600090559055612ad3565b80612acb81614a94565b915050612a1f565b50612ae160208401846140af565b6001600160a01b031663fa6d1adf85612afd6020870187614edf565b6040518463ffffffff1660e01b8152600401612b1b93929190614f68565b6020604051808303816000875af1158015612b3a573d6000803e3d6000fd5b505050506040513d601f19601f82011682018060405250810190612b5e9190614f82565b5050505050565b60a26020526000908152604090208054600182018054919291612b87906149c9565b80601f0160208091040260200160405190810160405280929190818152602001828054612bb3906149c9565b8015612c005780601f10612bd557610100808354040283529160200191612c00565b820191906000526020600020905b815481529060010190602001808311612be357829003601f168201915b5050505050905082565b60a58181548110612c1a57600080fd5b600091825260209091200154905081565b60a08181548110612c3b57600080fd5b6000918252602090912001546001600160a01b0316905081565b600054610100900460ff1615808015612c755750600054600160ff909116105b80612c8f5750303b158015612c8f575060005460ff166001145b612cf25760405162461bcd60e51b815260206004820152602e60248201527f496e697469616c697a61626c653a20636f6e747261637420697320616c72656160448201526d191e481a5b9a5d1a585b1a5e995960921b6064820152608401610e45565b6000805460ff191660011790558015612d15576000805461ff0019166101001790555b612d1d613a44565b612d25613a44565b6097612d318782614af3565b506098612d3e8682614af3565b50609b80546001600160a01b0319166001600160a01b038516179055609c82905560005b8451811015612deb57612d8f858281518110612d8057612d80614dc7565b602002602001015160016135a5565b6001609e6000878481518110612da757612da7614dc7565b6020908102919091018101516001600160a01b03168252810191909152604001600020805460ff191691151591909117905580612de381614a94565b915050612d62565b508015610df5576000805461ff0019169055604051600181527f7f26b83ff96e1f2b6a682f133852f6798a09c465da95921460cefb38474024989060200160405180910390a1505050505050565b612e756040518060200160405280600081525060405180604001604052806016815260200160008051602061502d833981519152815250613020565b612e9c816040518060400160405280600581526020016427bbb732b960d91b8152506137ad565b15612eba57604051631eb49d6d60e11b815260040160405180910390fd5b600082815260a260205260408120549003612ee85760405163b810dc5d60e01b815260040160405180910390fd5b600081604051602001612efb9190614dab565b604051602081830303815290604052612f1390614a5a565b905060005b600084815260a3602052604090205481101561301a57600084815260a360205260409020805483919083908110612f5157612f51614dc7565b90600052602060002001540361300857600084815260a3602052604090208054612f7d90600190614f3f565b81548110612f8d57612f8d614dc7565b906000526020600020015460a360008681526020019081526020016000208281548110612fbc57612fbc614dc7565b906000526020600020018190555060a36000858152602001908152602001600020805480612fec57612fec614f52565b6001900381819060005260206000200160009055905550505050565b8061301281614a94565b915050612f18565b50505050565b613028613726565b80613052575060995460ff161580156130525750613052823383604051602001610bb19190614dab565b1561305b575050565b604051631eb49d6d60e11b815260040160405180910390fd5b6000805b60a054811015610bea5760a0818154811061309557613095614dc7565b60009182526020909120015460405162169d5560e31b81526001600160a01b039091169062b4eaa8906130d090889088908890600401614f9b565b602060405180830381865afa1580156130ed573d6000803e3d6000fd5b505050506040513d601f19601f820116820180604052508101906131119190614fc9565b1561311b57600191505b8061312581614a94565b915050613078565b8051819060021180613140575080516020105b156110175760405163354b556f60e11b815260040160405180910390fd5b600082828080601f0160208091040260200160405190810160405280939291908181526020018383808284376000920191909152505082519293505060029091109050806131ad575080516020105b156131cb5760405163354b556f60e11b815260040160405180910390fd5b805160005b81811015612b5e57600360fc1b8382815181106131ef576131ef614dc7565b01602001516001600160f81b031916108061322d5750603d60f91b83828151811061321c5761321c614dc7565b01602001516001600160f81b031916115b806132895750603960f81b83828151811061324a5761324a614dc7565b01602001516001600160f81b0319161180156132895750606160f81b83828151811061327857613278614dc7565b01602001516001600160f81b031916105b80156132ba57508281815181106132a2576132a2614dc7565b6020910101516001600160f81b031916601760f91b14155b80156132eb57508281815181106132d3576132d3614dc7565b6020910101516001600160f81b031916602d60f81b14155b801561331c575082818151811061330457613304614dc7565b6020910101516001600160f81b031916605f60f81b14155b801561334d575082818151811061333557613335614dc7565b6020910101516001600160f81b031916600160fd1b14155b1561336b5760405163f8fa659760e01b815260040160405180910390fd5b6001016131d0565b610ee2604051806020016040528060008152506040518060400160405280600581526020016427bbb732b960d91b815250613020565b7f4910fdfa16fed3260ed0e7147f7cc6da11a60208b5b9406d12a635614ffd91435460ff16156133dc576125cd83613ab1565b826001600160a01b03166352d1902d6040518163ffffffff1660e01b8152600401602060405180830381865afa925050508015613436575060408051601f3d908101601f1916820190925261343391810190614f82565b60015b6134995760405162461bcd60e51b815260206004820152602e60248201527f45524331393637557067726164653a206e657720696d706c656d656e7461746960448201526d6f6e206973206e6f74205555505360901b6064820152608401610e45565b60008051602061500d83398151915281146135085760405162461bcd60e51b815260206004820152602960248201527f45524331393637557067726164653a20756e737570706f727465642070726f786044820152681a58589b195555525160ba1b6064820152608401610e45565b506125cd838383613b4d565b6040516301ffc9a760e01b815263e5e65adf60e01b60048201526001600160a01b038216906301ffc9a790602401602060405180830381865afa15801561355f573d6000803e3d6000fd5b505050506040513d601f19601f820116820180604052508101906135839190614fc9565b1515600003610ee257604051636d9250f160e11b815260040160405180910390fd5b6001600160a01b0382166000908152609d60205260409020805460ff191682158015919091179091556136235760a080546001810182556000919091527f78fdc8d422c49ced035a9edf18d00d3c6a8d81df210f3e5e448e045e77b41e880180546001600160a01b0384166001600160a01b03199091161790555050565b60005b60a0548110156125cd5760a0818154811061364357613643614dc7565b6000918252602090912001546001600160a01b03908116908416036137145760a0805461367290600190614f3f565b8154811061368257613682614dc7565b60009182526020909120015460a080546001600160a01b0390921691839081106136ae576136ae614dc7565b9060005260206000200160006101000a8154816001600160a01b0302191690836001600160a01b0316021790555060a08054806136ed576136ed614f52565b600082815260209020810160001990810180546001600160a01b0319169055019055505050565b8061371e81614a94565b915050613626565b600033609b54609c546040516331a9108f60e11b815260048101919091526001600160a01b039283169290911690636352211e90602401602060405180830381865afa15801561377a573d6000803e3d6000fd5b505050506040513d601f19601f8201168201806040525081019061379e9190614e7f565b6001600160a01b031614905090565b6000816040516020016137c09190614dab565b60405160208183030381529060405280519060200120836040516020016137e79190614dab565b604051602081830303815290604052805190602001201490505b92915050565b6000838260405160200161381c929190614fe6565b60408051601f1981840301815282825280516020918201206000888152609f83528381208054808502870185019095528486529195509392909183018282801561388557602002820191906000526020600020905b815481526020019060010190808311613871575b5050505050905060005b81518110156138e357828282815181106138ab576138ab614dc7565b6020026020010151036138d15760405163c5c9ad6760e01b815260040160405180910390fd5b806138db81614a94565b91505061388f565b506000858152609f602090815260408083208054600181018255908452919092200183905551633be2f95d60e21b81526001600160a01b0385169063ef8be5749061393490889087906004016148b1565b6020604051808303816000875af1158015613953573d6000803e3d6000fd5b505050506040513d601f19601f82011682018060405250810190610df59190614f82565b6004815110156139bc5760405162461bcd60e51b815260206004820152601060248201526f1d5b9a185b991b1959081c995d995c9d60821b6044820152606401610e45565b602081015163b1b7848f60e01b6001600160e01b0319821601613a3b57604080518082018252600e81526d70616e69636b65643a2030785f5f60901b602082018181526024860151600481811c600f908116603090810160081b9184160117909317909152925162461bcd60e51b8152919291610e4591849101613dad565b81518060208401fd5b600054610100900460ff16613aaf5760405162461bcd60e51b815260206004820152602b60248201527f496e697469616c697a61626c653a20636f6e7472616374206973206e6f74206960448201526a6e697469616c697a696e6760a81b6064820152608401610e45565b565b6001600160a01b0381163b613b1e5760405162461bcd60e51b815260206004820152602d60248201527f455243313936373a206e657720696d706c656d656e746174696f6e206973206e60448201526c1bdd08184818dbdb9d1c9858dd609a1b6064820152608401610e45565b60008051602061500d83398151915280546001600160a01b0319166001600160a01b0392909216919091179055565b613b5683613b72565b600082511180613b635750805b156125cd5761301a8383613bb2565b613b7b81613ab1565b6040516001600160a01b038216907fbc7cd75a20ee27fd9adebab32041f755214dbc6bffa90cc0225b39da2e5c2d3b90600090a250565b60606001600160a01b0383163b613c1a5760405162461bcd60e51b815260206004820152602660248201527f416464726573733a2064656c65676174652063616c6c20746f206e6f6e2d636f6044820152651b9d1c9858dd60d21b6064820152608401610e45565b600080846001600160a01b031684604051613c359190614dab565b600060405180830381855af49150503d8060008114613c70576040519150601f19603f3d011682016040523d82523d6000602084013e613c75565b606091505b5091509150613c9d828260405180606001604052806027815260200161504d60279139613ca6565b95945050505050565b60608315613cb5575081613cbf565b613cbf8383613cc6565b9392505050565b815115613cd65781518083602001fd5b8060405162461bcd60e51b8152600401610e459190613dad565b508054613cfc906149c9565b6000825580601f10613d0c575050565b601f016020900490600052602060002090810190610ee29190613d44565b5080546000825590600052602060002090810190610ee291905b5b80821115613d595760008155600101613d45565b5090565b60005b83811015613d78578181015183820152602001613d60565b50506000910152565b60008151808452613d99816020860160208601613d5d565b601f01601f19169290920160200192915050565b602081526000613cbf6020830184613d81565b600060208284031215613dd257600080fd5b5035919050565b60a081526000613dec60a0830188613d81565b8281036020840152613dfe8188613d81565b604084019690965250506060810192909252151560809091015292915050565b60008083601f840112613e3057600080fd5b5081356001600160401b03811115613e4757600080fd5b602083019150836020828501011115613e5f57600080fd5b9250929050565b6001600160a01b0381168114610ee257600080fd5b8035613e8681613e66565b919050565b60008060008060608587031215613ea157600080fd5b84356001600160401b03811115613eb757600080fd5b613ec387828801613e1e565b9095509350506020850135613ed781613e66565b9396929550929360400135925050565b600080600060408486031215613efc57600080fd5b8335613f0781613e66565b925060208401356001600160401b03811115613f2257600080fd5b613f2e86828701613e1e565b9497909650939450505050565b634e487b7160e01b600052604160045260246000fd5b604051601f8201601f191681016001600160401b0381118282101715613f7957613f79613f3b565b604052919050565b60006001600160401b03821115613f9a57613f9a613f3b565b50601f01601f191660200190565b600082601f830112613fb957600080fd5b8135613fcc613fc782613f81565b613f51565b818152846020838601011115613fe157600080fd5b816020850160208301376000918101602001919091529392505050565b6000806040838503121561401157600080fd5b8235915060208301356001600160401b0381111561402e57600080fd5b61403a85828601613fa8565b9150509250929050565b6000806000806040858703121561405a57600080fd5b84356001600160401b038082111561407157600080fd5b61407d88838901613e1e565b9096509450602087013591508082111561409657600080fd5b506140a387828801613e1e565b95989497509550505050565b6000602082840312156140c157600080fd5b8135613cbf81613e66565b6020808252825182820181905260009190848201906040850190845b81811015614104578351835292840192918401916001016140e8565b50909695505050505050565b8015158114610ee257600080fd5b6000806040838503121561413157600080fd5b823561413c81613e66565b9150602083013561414c81614110565b809150509250929050565b60006020828403121561416957600080fd5b8135613cbf81614110565b6020808252825182820181905260009190848201906040850190845b818110156141045783516001600160a01b031683529284019291840191600101614190565b600080604083850312156141c857600080fd5b82356141d381613e66565b915060208301356001600160401b0381111561402e57600080fd5b6000806040838503121561420157600080fd5b823561420c81613e66565b9150602083013561414c81613e66565b60006001600160401b0382111561423557614235613f3b565b5060051b60200190565b6000806000806060858703121561425557600080fd5b84356001600160401b038082111561426c57600080fd5b61427888838901613e1e565b909650945060209150868201358181111561429257600080fd5b61429e89828a01613fa8565b9450506040870135818111156142b357600080fd5b87019050601f810188136142c657600080fd5b80356142d4613fc78261421c565b81815260059190911b8201830190838101908a8311156142f357600080fd5b928401925b82841015614311578335825292840192908401906142f8565b979a9699509497505050505050565b60008060006040848603121561433557600080fd5b83356001600160401b0381111561434b57600080fd5b61435786828701613e1e565b909450925050602084013561436b81614110565b809150509250925092565b602081526000825160a0602084015261439260c0840182613d81565b90506020840151601f198483030160408501526143af8282613d81565b91505060408401516060840152606084015160808401526080840151151560a08401528091505092915050565b8051825260006020820151604060208501526143fb6040850182613d81565b949350505050565b6000602080830181845280855180835260408601915060408160051b870101925083870160005b8281101561445857603f198886030184526144468583516143dc565b9450928501929085019060010161442a565b5092979650505050505050565b602081526000613cbf60208301846143dc565b60006020828403121561448a57600080fd5b81356001600160401b038111156144a057600080fd5b6143fb84828501613fa8565b600082601f8301126144bd57600080fd5b813560206144cd613fc78361421c565b82815260059290921b840181019181810190868411156144ec57600080fd5b8286015b8481101561452b5780356001600160401b0381111561450f5760008081fd5b61451d8986838b0101613fa8565b8452509183019183016144f0565b509695505050505050565b60006040828403121561454857600080fd5b604051604081016001600160401b03828210818311171561456b5761456b613f3b565b816040528293508435915061457f82613e66565b9082526020840135908082111561459557600080fd5b506145a285828601613fa8565b6020830152505092915050565b600080600080606085870312156145c557600080fd5b84356001600160401b03808211156145dc57600080fd5b6145e888838901613e1e565b909650945060209150868201358181111561460257600080fd5b61460e89828a016144ac565b94505060408701358181111561462357600080fd5b8701601f8101891361463457600080fd5b8035614642613fc78261421c565b81815260059190911b8201840190848101908b83111561466157600080fd5b8584015b838110156146995780358681111561467d5760008081fd5b61468b8e8983890101614536565b845250918601918601614665565b50989b979a50959850505050505050565b600080602083850312156146bd57600080fd5b82356001600160401b03808211156146d457600080fd5b818501915085601f8301126146e857600080fd5b8135818111156146f757600080fd5b8660208260051b850101111561470c57600080fd5b60209290920196919550909350505050565b6000602080830181845280855180835260408601915060408160051b870101925083870160005b8281101561445857603f19888603018452614761858351613d81565b94509285019290850190600101614745565b6000806040838503121561478657600080fd5b8235915060208301356001600160401b038111156147a357600080fd5b61403a858286016144ac565b600080604083850312156147c257600080fd5b8235915060208301356001600160401b038111156147df57600080fd5b61403a85828601614536565b60008060008060006060868803121561480357600080fd5b85356001600160401b038082111561481a57600080fd5b61482689838a01613e1e565b90975095506020880135915061483b82613e66565b9093506040870135908082111561485157600080fd5b5061485e88828901613e1e565b969995985093965092949392505050565b6000806040838503121561488257600080fd5b8235915060208301356001600160401b0381111561489f57600080fd5b83016040818603121561414c57600080fd5b8281526040602082015260006143fb6040830184613d81565b600080600080600060a086880312156148e257600080fd5b85356001600160401b03808211156148f957600080fd5b61490589838a01613fa8565b965060209150818801358181111561491c57600080fd5b6149288a828b01613fa8565b96505060408801358181111561493d57600080fd5b88019050601f8101891361495057600080fd5b803561495e613fc78261421c565b81815260059190911b8201830190838101908b83111561497d57600080fd5b928401925b828410156149a457833561499581613e66565b82529284019290840190614982565b80975050505050506149b860608701613e7b565b949793965091946080013592915050565b600181811c908216806149dd57607f821691505b602082108103611bbc57634e487b7160e01b600052602260045260246000fd5b81835281816020850137506000828201602090810191909152601f909101601f19169091010190565b604081526000614a3a6040830185876149fd565b9050826020830152949350505050565b8183823760009101908152919050565b80516020808301519190811015611bbc5760001960209190910360031b1b16919050565b634e487b7160e01b600052601160045260246000fd5b600060018201614aa657614aa6614a7e565b5060010190565b601f8211156125cd57600081815260208120601f850160051c81016020861015614ad45750805b601f850160051c820191505b81811015610df557828155600101614ae0565b81516001600160401b03811115614b0c57614b0c613f3b565b614b2081614b1a84546149c9565b84614aad565b602080601f831160018114614b555760008415614b3d5750858301515b600019600386901b1c1916600185901b178555610df5565b600085815260208120601f198616915b82811015614b8457888601518255948401946001909101908401614b65565b5085821015614ba25787850151600019600388901b60f8161c191681555b5050505050600190811b01905550565b60008154614bbf816149c9565b808552602060018381168015614bdc5760018114614bf657614c24565b60ff1985168884015283151560051b880183019550614c24565b866000528260002060005b85811015614c1c5781548a8201860152908301908401614c01565b890184019650505b505050505092915050565b604081526000614c426040830185613d81565b8281036020840152613c9d8185614bb2565b6001600160401b03831115614c6b57614c6b613f3b565b614c7f83614c7983546149c9565b83614aad565b6000601f841160018114614cb35760008515614c9b5750838201355b600019600387901b1c1916600186901b178355612b5e565b600083815260209020601f19861690835b82811015614ce45786850135825560209485019460019092019101614cc4565b5086821015614d015760001960f88860031b161c19848701351681555b505060018560011b0183555050505050565b6020808252602c908201527f46756e6374696f6e206d7573742062652063616c6c6564207468726f7567682060408201526b19195b1959d85d1958d85b1b60a21b606082015260800190565b6020808252602c908201527f46756e6374696f6e206d7573742062652063616c6c6564207468726f7567682060408201526b6163746976652070726f787960a01b606082015260800190565b60008251614dbd818460208701613d5d565b9190910192915050565b634e487b7160e01b600052603260045260246000fd5b604081526000614df06040830185613d81565b90508260208301529392505050565b8082018082111561380157613801614a7e565b600060208284031215614e2457600080fd5b81516001600160401b03811115614e3a57600080fd5b8201601f81018413614e4b57600080fd5b8051614e59613fc782613f81565b818152856020838501011115614e6e57600080fd5b613c9d826020830160208601613d5d565b600060208284031215614e9157600080fd5b8151613cbf81613e66565b604081526000614eb06040830185876149fd565b8281036020840152614ec28185614bb2565b9695505050505050565b602081526000613cbf6020830184614bb2565b6000808335601e19843603018112614ef657600080fd5b8301803591506001600160401b03821115614f1057600080fd5b602001915036819003821315613e5f57600080fd5b838152818360208301376000910160200190815292915050565b8181038181111561380157613801614a7e565b634e487b7160e01b600052603160045260246000fd5b838152604060208201526000613c9d6040830184866149fd565b600060208284031215614f9457600080fd5b5051919050565b606081526000614fae6060830186613d81565b6001600160a01b039490941660208301525060400152919050565b600060208284031215614fdb57600080fd5b8151613cbf81614110565b82815260008251614ffe816020850160208701613d5d565b91909101602001939250505056fe360894a13ba1a3210667c828492db98dca3e2076cc3735a920a3ca505d382bbc4d6f6469667953706163655065726d697373696f6e7300000000000000000000416464726573733a206c6f772d6c6576656c2064656c65676174652063616c6c206661696c6564a264697066735822122084579167df985ddc37a3a8986f4e12d3717bacc46dc28907de3956a6a1ca705e64736f6c63430008110033",
    "linkReferences": {}
  },
  "methodIdentifiers": {
    "addPermissionsToRole(uint256,string[])": "b7515761",
    "addRoleToChannel(string,address,uint256)": "1dea616a",
    "addRoleToEntitlement(uint256,(address,bytes))": "ba201ba8",
    "channels(uint256)": "e5949b5d",
    "channelsByHash(bytes32)": "129ab3c8",
    "createChannel(string,string,uint256[])": "51f83cea",
    "createRole(string,string[],(address,bytes)[])": "8fcd793d",
    "defaultEntitlements(address)": "fa6433c5",
    "disabled()": "ee070805",
    "entitlements(uint256)": "f28f9b56",
    "getChannelByHash(bytes32)": "703511f8",
    "getChannels()": "9575f6ac",
    "getEntitlementByModuleType(string)": "870b9464",
    "getEntitlementIdsByRoleId(uint256)": "42486e49",
    "getEntitlements()": "487dc38c",
    "getPermissionsByRoleId(uint256)": "b4264233",
    "getRoleById(uint256)": "784c872b",
    "getRoles()": "71061398",
    "hasEntitlement(address)": "7f8d06d0",
    "initialize(string,string,address[],address,uint256)": "f3ce6a5b",
    "isEntitledToChannel(string,address,string)": "cea632bc",
    "isEntitledToSpace(address,string)": "20759f9e",
    "multicall(bytes[])": "ac9650d8",
    "name()": "06fdde03",
    "networkId()": "9025e64c",
    "owner()": "8da5cb5b",
    "ownerRoleId()": "d1a6a961",
    "proxiableUUID()": "52d1902d",
    "removePermissionFromRole(uint256,string)": "f740bb6b",
    "removeRole(uint256)": "92691821",
    "removeRoleFromChannel(string,address,uint256)": "baaf3d57",
    "removeRoleFromEntitlement(uint256,(address,bytes))": "dba81864",
    "roleCount()": "ddf96358",
    "rolesById(uint256)": "e5894ef4",
    "setChannelAccess(string,bool)": "5de151b8",
    "setEntitlementModule(address,bool)": "441555e5",
    "setOwnerRoleId(uint256)": "4999ab16",
    "setSpaceAccess(bool)": "446dc22e",
    "token()": "fc0c546a",
    "tokenId()": "17d70f7c",
    "updateChannel(string,string)": "34a1dd26",
    "updateRole(uint256,string)": "32e704cc",
    "upgradeEntitlement(address,address)": "519607f2",
    "upgradeTo(address)": "3659cfe6",
    "upgradeToAndCall(address,bytes)": "4f1ef286"
  },
  "id": 13
}