{
  "abi": [
    {
      "inputs": [],
      "name": "InvalidParameters",
      "type": "error"
    },
    {
      "inputs": [],
      "name": "NameContainsInvalidCharacters",
      "type": "error"
    },
    {
      "inputs": [],
      "name": "NameLengthInvalid",
      "type": "error"
    },
    {
      "inputs": [],
      "name": "PermissionAlreadyExists",
      "type": "error"
    },
    {
      "inputs": [],
      "name": "SpaceAlreadyRegistered",
      "type": "error"
    },
    {
      "anonymous": false,
      "inputs": [
        {
          "indexed": false,
          "internalType": "address",
          "name": "previousAdmin",
          "type": "address"
        },
        {
          "indexed": false,
          "internalType": "address",
          "name": "newAdmin",
          "type": "address"
        }
      ],
      "name": "AdminChanged",
      "type": "event"
    },
    {
      "anonymous": false,
      "inputs": [
        {
          "indexed": true,
          "internalType": "address",
          "name": "beacon",
          "type": "address"
        }
      ],
      "name": "BeaconUpgraded",
      "type": "event"
    },
    {
      "anonymous": false,
      "inputs": [
        {
          "indexed": false,
          "internalType": "uint8",
          "name": "version",
          "type": "uint8"
        }
      ],
      "name": "Initialized",
      "type": "event"
    },
    {
      "anonymous": false,
      "inputs": [
        {
          "indexed": true,
          "internalType": "address",
          "name": "previousOwner",
          "type": "address"
        },
        {
          "indexed": true,
          "internalType": "address",
          "name": "newOwner",
          "type": "address"
        }
      ],
      "name": "OwnershipTransferred",
      "type": "event"
    },
    {
      "anonymous": false,
      "inputs": [
        {
          "indexed": true,
          "internalType": "address",
          "name": "implementation",
          "type": "address"
        }
      ],
      "name": "Upgraded",
      "type": "event"
    },
    {
      "inputs": [],
      "name": "SPACE_IMPLEMENTATION_ADDRESS",
      "outputs": [
        {
          "internalType": "address",
          "name": "",
          "type": "address"
        }
      ],
      "stateMutability": "view",
      "type": "function"
    },
    {
      "inputs": [],
      "name": "SPACE_TOKEN_ADDRESS",
      "outputs": [
        {
          "internalType": "address",
          "name": "",
          "type": "address"
        }
      ],
      "stateMutability": "view",
      "type": "function"
    },
    {
      "inputs": [],
      "name": "TOKEN_IMPLEMENTATION_ADDRESS",
      "outputs": [
        {
          "internalType": "address",
          "name": "",
          "type": "address"
        }
      ],
      "stateMutability": "view",
      "type": "function"
    },
    {
      "inputs": [],
      "name": "USER_IMPLEMENTATION_ADDRESS",
      "outputs": [
        {
          "internalType": "address",
          "name": "",
          "type": "address"
        }
      ],
      "stateMutability": "view",
      "type": "function"
    },
    {
      "inputs": [
        {
          "internalType": "string[]",
          "name": "_permissions",
          "type": "string[]"
        }
      ],
      "name": "addOwnerPermissions",
      "outputs": [],
      "stateMutability": "nonpayable",
      "type": "function"
    },
    {
      "inputs": [
        {
          "internalType": "string",
          "name": "spaceName",
          "type": "string"
        },
        {
          "internalType": "string",
          "name": "spaceNetworkId",
          "type": "string"
        },
        {
          "internalType": "string",
          "name": "spaceMetadata",
          "type": "string"
        },
        {
          "internalType": "string[]",
          "name": "_everyonePermissions",
          "type": "string[]"
        },
        {
          "components": [
            {
              "internalType": "string",
              "name": "roleName",
              "type": "string"
            },
            {
              "internalType": "string[]",
              "name": "permissions",
              "type": "string[]"
            },
            {
              "components": [
                {
                  "internalType": "address",
                  "name": "contractAddress",
                  "type": "address"
                },
                {
                  "internalType": "uint256",
                  "name": "quantity",
                  "type": "uint256"
                },
                {
                  "internalType": "bool",
                  "name": "isSingleToken",
                  "type": "bool"
                },
                {
                  "internalType": "uint256[]",
                  "name": "tokenIds",
                  "type": "uint256[]"
                }
              ],
              "internalType": "struct DataTypes.ExternalToken[]",
              "name": "tokens",
              "type": "tuple[]"
            },
            {
              "internalType": "address[]",
              "name": "users",
              "type": "address[]"
            }
          ],
          "internalType": "struct DataTypes.CreateSpaceExtraEntitlements",
          "name": "_extraEntitlements",
          "type": "tuple"
        }
      ],
      "name": "createSpace",
      "outputs": [
        {
          "internalType": "address",
          "name": "_spaceAddress",
          "type": "address"
        }
      ],
      "stateMutability": "nonpayable",
      "type": "function"
    },
    {
      "inputs": [],
      "name": "getOwnerPermissions",
      "outputs": [
        {
          "internalType": "string[]",
          "name": "",
          "type": "string[]"
        }
      ],
      "stateMutability": "view",
      "type": "function"
    },
    {
      "inputs": [
        {
          "internalType": "string",
          "name": "spaceNetworkId",
          "type": "string"
        }
      ],
      "name": "getTokenIdByNetworkId",
      "outputs": [
        {
          "internalType": "uint256",
          "name": "",
          "type": "uint256"
        }
      ],
      "stateMutability": "view",
      "type": "function"
    },
    {
      "inputs": [
        {
          "internalType": "address",
          "name": "_space",
          "type": "address"
        },
        {
          "internalType": "address",
          "name": "_tokenEntitlement",
          "type": "address"
        },
        {
          "internalType": "address",
          "name": "_userEntitlement",
          "type": "address"
        },
        {
          "internalType": "address",
          "name": "_spaceToken",
          "type": "address"
        },
        {
          "internalType": "string[]",
          "name": "_permissions",
          "type": "string[]"
        }
      ],
      "name": "initialize",
      "outputs": [],
      "stateMutability": "nonpayable",
      "type": "function"
    },
    {
      "inputs": [],
      "name": "owner",
      "outputs": [
        {
          "internalType": "address",
          "name": "",
          "type": "address"
        }
      ],
      "stateMutability": "view",
      "type": "function"
    },
    {
      "inputs": [
        {
          "internalType": "uint256",
          "name": "",
          "type": "uint256"
        }
      ],
      "name": "ownerPermissions",
      "outputs": [
        {
          "internalType": "string",
          "name": "",
          "type": "string"
        }
      ],
      "stateMutability": "view",
      "type": "function"
    },
    {
      "inputs": [],
      "name": "proxiableUUID",
      "outputs": [
        {
          "internalType": "bytes32",
          "name": "",
          "type": "bytes32"
        }
      ],
      "stateMutability": "view",
      "type": "function"
    },
    {
      "inputs": [],
      "name": "renounceOwnership",
      "outputs": [],
      "stateMutability": "nonpayable",
      "type": "function"
    },
    {
      "inputs": [
        {
          "internalType": "bytes32",
          "name": "",
          "type": "bytes32"
        }
      ],
      "name": "spaceByHash",
      "outputs": [
        {
          "internalType": "address",
          "name": "",
          "type": "address"
        }
      ],
      "stateMutability": "view",
      "type": "function"
    },
    {
      "inputs": [
        {
          "internalType": "bytes32",
          "name": "",
          "type": "bytes32"
        }
      ],
      "name": "tokenByHash",
      "outputs": [
        {
          "internalType": "uint256",
          "name": "",
          "type": "uint256"
        }
      ],
      "stateMutability": "view",
      "type": "function"
    },
    {
      "inputs": [
        {
          "internalType": "address",
          "name": "newOwner",
          "type": "address"
        }
      ],
      "name": "transferOwnership",
      "outputs": [],
      "stateMutability": "nonpayable",
      "type": "function"
    },
    {
      "inputs": [
        {
          "internalType": "address",
          "name": "_space",
          "type": "address"
        },
        {
          "internalType": "address",
          "name": "_tokenEntitlement",
          "type": "address"
        },
        {
          "internalType": "address",
          "name": "_userEntitlement",
          "type": "address"
        }
      ],
      "name": "updateImplementations",
      "outputs": [],
      "stateMutability": "nonpayable",
      "type": "function"
    },
    {
      "inputs": [
        {
          "internalType": "address",
          "name": "newImplementation",
          "type": "address"
        }
      ],
      "name": "upgradeTo",
      "outputs": [],
      "stateMutability": "nonpayable",
      "type": "function"
    },
    {
      "inputs": [
        {
          "internalType": "address",
          "name": "newImplementation",
          "type": "address"
        },
        {
          "internalType": "bytes",
          "name": "data",
          "type": "bytes"
        }
      ],
      "name": "upgradeToAndCall",
      "outputs": [],
      "stateMutability": "payable",
      "type": "function"
    }
  ],
  "bytecode": {
    "object": "0x60a06040523060805234801561001457600080fd5b506080516139e661004c600039600081816104220152818161046e015281816106f90152818161073c01526107d801526139e66000f3fe6080604052600436106200012b5760003560e01c80638da5cb5b11620000ad578063df2cd9fe116200006c578063df2cd9fe1462000353578063dfc666ff146200037a578063f21cd401146200039f578063f2fde38b14620003c1578063f3aba30514620003e657600080fd5b80638da5cb5b1462000293578063ad78faf314620002b3578063b28032f914620002d8578063be8b5967146200030c578063cfc27037146200033157600080fd5b80634f1ef28611620000fa5780634f1ef28614620001f657806352d1902d146200020d578063683c72b61462000234578063715018a614620002565780638a9ef426146200026e57600080fd5b806308bc0b4b14620001305780633312540a146200016f5780633659cfe614620001aa57806345bfa5b114620001d1575b600080fd5b3480156200013d57600080fd5b5060fd5462000152906001600160a01b031681565b6040516001600160a01b0390911681526020015b60405180910390f35b3480156200017c57600080fd5b50620001526200018e366004620021a6565b610100602052600090815260409020546001600160a01b031681565b348015620001b757600080fd5b50620001cf620001c9366004620021dd565b62000418565b005b348015620001de57600080fd5b50620001cf620001f0366004620023ba565b6200050c565b620001cf6200020736600462002445565b620006ef565b3480156200021a57600080fd5b5062000225620007cb565b60405190815260200162000166565b3480156200024157600080fd5b5060fe5462000152906001600160a01b031681565b3480156200026357600080fd5b50620001cf62000881565b3480156200027b57600080fd5b50620002256200028d366004620024f8565b62000899565b348015620002a057600080fd5b506033546001600160a01b031662000152565b348015620002c057600080fd5b5062000152620002d23660046200259d565b620008ce565b348015620002e557600080fd5b50620002fd620002f7366004620021a6565b62000de4565b604051620001669190620026e7565b3480156200031957600080fd5b50620001cf6200032b366004620026fc565b62000e99565b3480156200033e57600080fd5b5060fc5462000152906001600160a01b031681565b3480156200036057600080fd5b506200036b62001075565b6040516200016691906200278e565b3480156200038757600080fd5b50620001cf62000399366004620027a3565b62001158565b348015620003ac57600080fd5b5060fb5462000152906001600160a01b031681565b348015620003ce57600080fd5b50620001cf620003e0366004620021dd565b620011ec565b348015620003f357600080fd5b506200022562000405366004620021a6565b6101016020526000908152604090205481565b6001600160a01b037f00000000000000000000000000000000000000000000000000000000000000001630036200046c5760405162461bcd60e51b81526004016200046390620027ed565b60405180910390fd5b7f00000000000000000000000000000000000000000000000000000000000000006001600160a01b0316620004b76000805160206200396a833981519152546001600160a01b031690565b6001600160a01b031614620004e05760405162461bcd60e51b8152600401620004639062002839565b620004eb8162001268565b60408051600080825260208201909252620005099183919062001272565b50565b600054610100900460ff16158080156200052d5750600054600160ff909116105b80620005495750303b15801562000549575060005460ff166001145b620005ae5760405162461bcd60e51b815260206004820152602e60248201527f496e697469616c697a61626c653a20636f6e747261637420697320616c72656160448201526d191e481a5b9a5d1a585b1a5e995960921b606482015260840162000463565b6000805460ff191660011790558015620005d2576000805461ff0019166101001790555b620005dc620013ea565b620005e662001414565b620005f062001448565b60fb80546001600160a01b038089166001600160a01b03199283161790925560fc805488841690831617905560fd805487841690831617905560fe80549286169290911691909117905560005b82518110156200069f5760ff8382815181106200065e576200065e62002885565b602090810291909101810151825460018101845560009384529190922001906200068990826200291b565b50806200069681620029e7565b9150506200063d565b508015620006e7576000805461ff0019169055604051600181527f7f26b83ff96e1f2b6a682f133852f6798a09c465da95921460cefb38474024989060200160405180910390a15b505050505050565b6001600160a01b037f00000000000000000000000000000000000000000000000000000000000000001630036200073a5760405162461bcd60e51b81526004016200046390620027ed565b7f00000000000000000000000000000000000000000000000000000000000000006001600160a01b0316620007856000805160206200396a833981519152546001600160a01b031690565b6001600160a01b031614620007ae5760405162461bcd60e51b8152600401620004639062002839565b620007b98262001268565b620007c78282600162001272565b5050565b6000306001600160a01b037f000000000000000000000000000000000000000000000000000000000000000016146200086d5760405162461bcd60e51b815260206004820152603860248201527f555550535570677261646561626c653a206d757374206e6f742062652063616c60448201527f6c6564207468726f7567682064656c656761746563616c6c0000000000000000606482015260840162000463565b506000805160206200396a83398151915290565b6200088b6200147c565b620008976000620014d8565b565b6000808383604051620008ae92919062002a0f565b604080519182900390912060009081526101016020522054949350505050565b6000620008da6200152a565b620008e68a8a62001585565b60008790036200090957604051630e52390960e41b815260040160405180910390fd5b600088886040516200091d92919062002a0f565b6040805191829003909120600081815261010060205291909120549091506001600160a01b0316156200096357604051633881599b60e11b815260040160405180910390fd5b60fe546040516275a31760e01b81526000916001600160a01b0316906275a31790620009989033908c908c9060040162002a48565b6020604051808303816000875af1158015620009b8573d6000803e3d6000fd5b505050506040513d601f19601f82011682018060405250810190620009de919062002a6f565b60008381526101016020908152604080832084905560fc5481516004815260248101835292830180516001600160e01b031663204a7f0760e21b179052905193945091926001600160a01b039092169162000a399062002198565b62000a4692919062002a89565b604051809103906000f08015801562000a63573d6000803e3d6000fd5b5060fd5460408051600481526024810182526020810180516001600160e01b031663204a7f0760e21b17905290519293506000926001600160a01b039092169162000aae9062002198565b62000abb92919062002a89565b604051809103906000f08015801562000ad8573d6000803e3d6000fd5b506040805160028082526060820183529293506000929091602083019080368337019050509050828160008151811062000b165762000b1662002885565b60200260200101906001600160a01b031690816001600160a01b031681525050818160018151811062000b4d5762000b4d62002885565b60200260200101906001600160a01b031690816001600160a01b03168152505060fb60009054906101000a90046001600160a01b03168f8f8f8f8560405160240162000b9e95949392919062002afd565b60408051601f198184030181529181526020820180516001600160e01b031663ca27593160e01b1790525162000bd49062002198565b62000be192919062002a89565b604051809103906000f08015801562000bfe573d6000803e3d6000fd5b5060008681526101006020526040812080546001600160a01b0319166001600160a01b0384161790559096505b815181101562000cc85781818151811062000c4a5762000c4a62002885565b602090810291909101015160405162ed014d60e21b81526001600160a01b038981166004830152909116906303b4053490602401600060405180830381600087803b15801562000c9957600080fd5b505af115801562000cae573d6000803e3d6000fd5b50505050808062000cbf90620029e7565b91505062000c2b565b5062000cd6868486620017c5565b62000cee868362000ce88b8d62002b4a565b62001a4c565b62000d0686848462000d008b62002d35565b62001be1565b6001600160a01b03861663f2fde38b336040516001600160e01b031960e084901b1681526001600160a01b039091166004820152602401600060405180830381600087803b15801562000d5857600080fd5b505af115801562000d6d573d6000803e3d6000fd5b5050505062000d793390565b6001600160a01b0316866001600160a01b03167f78d7e431fd0a46d11f5c8889cf2db64699be1f95ccb8b1419211c83bcdbce5808f8f60405162000dbf92919062002dfa565b60405180910390a3505050505062000dd76001606555565b9998505050505050505050565b60ff818154811062000df557600080fd5b90600052602060002001600091509050805462000e12906200289b565b80601f016020809104026020016040519081016040528092919081815260200182805462000e40906200289b565b801562000e915780601f1062000e655761010080835404028352916020019162000e91565b820191906000526020600020905b81548152906001019060200180831162000e7357829003601f168201915b505050505081565b62000ea36200147c565b60005b81811015620010705760005b60ff548110156200100c5762000fd884848481811062000ed65762000ed662002885565b905060200281019062000eea919062002e10565b8080601f0160208091040260200160405190810160405280939291908181526020018383808284376000920191909152505060ff8054909250859150811062000f375762000f3762002885565b90600052602060002001805462000f4e906200289b565b80601f016020809104026020016040519081016040528092919081815260200182805462000f7c906200289b565b801562000fcd5780601f1062000fa15761010080835404028352916020019162000fcd565b820191906000526020600020905b81548152906001019060200180831162000faf57829003601f168201915b505050505062001e82565b1562000ff757604051636571d65f60e01b815260040160405180910390fd5b806200100381620029e7565b91505062000eb2565b5060ff83838381811062001024576200102462002885565b905060200281019062001038919062002e10565b825460018101845560009384526020909320909201916200105a918362002e59565b50806200106781620029e7565b91505062000ea6565b505050565b606060ff805480602002602001604051908101604052809291908181526020016000905b828210156200114f578382906000526020600020018054620010bb906200289b565b80601f0160208091040260200160405190810160405280929190818152602001828054620010e9906200289b565b80156200113a5780601f106200110e576101008083540402835291602001916200113a565b820191906000526020600020905b8154815290600101906020018083116200111c57829003601f168201915b50505050508152602001906001019062001099565b50505050905090565b620011626200147c565b6001600160a01b038316156200118e5760fb80546001600160a01b0319166001600160a01b0385161790555b6001600160a01b03821615620011ba5760fc80546001600160a01b0319166001600160a01b0384161790555b6001600160a01b03811615620010705760fd80546001600160a01b0383166001600160a01b0319909116179055505050565b620011f66200147c565b6001600160a01b0381166200125d5760405162461bcd60e51b815260206004820152602660248201527f4f776e61626c653a206e6577206f776e657220697320746865207a65726f206160448201526564647265737360d01b606482015260840162000463565b6200050981620014d8565b620005096200147c565b7f4910fdfa16fed3260ed0e7147f7cc6da11a60208b5b9406d12a635614ffd91435460ff1615620012a857620010708362001edf565b826001600160a01b03166352d1902d6040518163ffffffff1660e01b8152600401602060405180830381865afa92505050801562001305575060408051601f3d908101601f19168201909252620013029181019062002a6f565b60015b6200136a5760405162461bcd60e51b815260206004820152602e60248201527f45524331393637557067726164653a206e657720696d706c656d656e7461746960448201526d6f6e206973206e6f74205555505360901b606482015260840162000463565b6000805160206200396a8339815191528114620013dc5760405162461bcd60e51b815260206004820152602960248201527f45524331393637557067726164653a20756e737570706f727465642070726f786044820152681a58589b195555525160ba1b606482015260840162000463565b506200107083838362001f7e565b600054610100900460ff16620008975760405162461bcd60e51b8152600401620004639062002f25565b600054610100900460ff166200143e5760405162461bcd60e51b8152600401620004639062002f25565b6200089762001fa9565b600054610100900460ff16620014725760405162461bcd60e51b8152600401620004639062002f25565b6200089762001fde565b6033546001600160a01b03163314620008975760405162461bcd60e51b815260206004820181905260248201527f4f776e61626c653a2063616c6c6572206973206e6f7420746865206f776e6572604482015260640162000463565b603380546001600160a01b038381166001600160a01b0319831681179093556040519116919082907f8be0079c531659141344cd1fd0a4f28419497f9722a3daafe3b4186f6b6457e090600090a35050565b6002606554036200157e5760405162461bcd60e51b815260206004820152601f60248201527f5265656e7472616e637947756172643a207265656e7472616e742063616c6c00604482015260640162000463565b6002606555565b600082828080601f016020809104026020016040519081016040528093929190818152602001838380828437600092019190915250508251929350506002909110905080620015d5575080516020105b15620015f45760405163354b556f60e11b815260040160405180910390fd5b805160005b81811015620017be57600360fc1b8382815181106200161c576200161c62002885565b01602001516001600160f81b03191610806200165e5750603d60f91b8382815181106200164d576200164d62002885565b01602001516001600160f81b031916115b80620016c25750603960f81b8382815181106200167f576200167f62002885565b01602001516001600160f81b031916118015620016c25750606160f81b838281518110620016b157620016b162002885565b01602001516001600160f81b031916105b8015620016f75750828181518110620016df57620016df62002885565b6020910101516001600160f81b031916601760f91b14155b80156200172c575082818151811062001714576200171462002885565b6020910101516001600160f81b031916602d60f81b14155b801562001761575082818151811062001749576200174962002885565b6020910101516001600160f81b031916605f60f81b14155b80156200179657508281815181106200177e576200177e62002885565b6020910101516001600160f81b031916600160fd1b14155b15620017b55760405163f8fa659760e01b815260040160405180910390fd5b600101620015f9565b5050505050565b604080516001808252818301909252600091816020015b6040805160808101825260008082526020808301829052928201526060808201528252600019909201910181620017dc575050604080516001808252818301909252919250600091906020808301908036833701905050905082816000815181106200184c576200184c62002885565b6020908102919091018101919091526040805160808101825260fe546001600160a01b0316815260019281018390529081019190915260608101829052825183906000906200189f576200189f62002885565b6020908102919091010152604080516001808252818301909252600091816020015b604080518082019091526000815260606020820152815260200190600190039081620018c15790505090506040518060400160405280866001600160a01b031681526020018460405160200162001919919062002f70565b6040516020818303038152906040528152508160008151811062001941576200194162002885565b60200260200101819052506000866001600160a01b0316638fcd793d6040518060400160405280600581526020016427bbb732b960d91b81525060ff856040518463ffffffff1660e01b81526004016200199e93929190620030a8565b6020604051808303816000875af1158015620019be573d6000803e3d6000fd5b505050506040513d601f19601f82011682018060405250810190620019e4919062002a6f565b6040516324ccd58b60e11b8152600481018290529091506001600160a01b03881690634999ab1690602401600060405180830381600087803b15801562001a2a57600080fd5b505af115801562001a3f573d6000803e3d6000fd5b5050505050505050505050565b604080516001808252818301909252600091816020015b60408051808201909152600081526060602082015281526020019060019003908162001a63575050604080516001808252818301909252919250600091906020808301908036833701905050905060018160008151811062001ac95762001ac962002885565b60200260200101906001600160a01b031690816001600160a01b0316815250506040518060400160405280856001600160a01b031681526020018260405160200162001b169190620031ab565b6040516020818303038152906040528152508260008151811062001b3e5762001b3e62002885565b6020026020010181905250846001600160a01b0316638fcd793d6040518060400160405280600881526020016745766572796f6e6560c01b81525085856040518463ffffffff1660e01b815260040162001b9b93929190620031c0565b6020604051808303816000875af115801562001bbb573d6000803e3d6000fd5b505050506040513d601f19601f82011682018060405250810190620006e7919062002a6f565b6020810151511562001e7557604080516001808252818301909252600091816020015b60408051808201909152600081526060602082015281526020019060019003908162001c04579050509050604051806040016040528060006001600160a01b03168152602001604051806020016040528060008152508152508160008151811062001c735762001c7362002885565b60200260200101819052506000856001600160a01b0316638fcd793d84600001518560200151856040518463ffffffff1660e01b815260040162001cba93929190620031c0565b6020604051808303816000875af115801562001cda573d6000803e3d6000fd5b505050506040513d601f19601f8201168201806040525081019062001d00919062002a6f565b6060840151519091501562001db657856001600160a01b031663ba201ba8826040518060400160405280886001600160a01b03168152602001876060015160405160200162001d509190620031ab565b6040516020818303038152906040528152506040518363ffffffff1660e01b815260040162001d8192919062003209565b600060405180830381600087803b15801562001d9c57600080fd5b505af115801562001db1573d6000803e3d6000fd5b505050505b82604001515160000362001dcc57505062001e75565b856001600160a01b031663ba201ba8826040518060400160405280896001600160a01b03168152602001876040015160405160200162001e0d919062002f70565b6040516020818303038152906040528152506040518363ffffffff1660e01b815260040162001e3e92919062003209565b600060405180830381600087803b15801562001e5957600080fd5b505af115801562001e6e573d6000803e3d6000fd5b5050505050505b50505050565b6001606555565b60008160405160200162001e97919062003224565b604051602081830303815290604052805190602001208360405160200162001ec0919062003224565b6040516020818303038152906040528051906020012014905092915050565b6001600160a01b0381163b62001f4e5760405162461bcd60e51b815260206004820152602d60248201527f455243313936373a206e657720696d706c656d656e746174696f6e206973206e60448201526c1bdd08184818dbdb9d1c9858dd609a1b606482015260840162000463565b6000805160206200396a83398151915280546001600160a01b0319166001600160a01b0392909216919091179055565b62001f898362002008565b60008251118062001f975750805b15620010705762001e7583836200204a565b600054610100900460ff1662001fd35760405162461bcd60e51b8152600401620004639062002f25565b6200089733620014d8565b600054610100900460ff1662001e7b5760405162461bcd60e51b8152600401620004639062002f25565b620020138162001edf565b6040516001600160a01b038216907fbc7cd75a20ee27fd9adebab32041f755214dbc6bffa90cc0225b39da2e5c2d3b90600090a250565b60606001600160a01b0383163b620020b45760405162461bcd60e51b815260206004820152602660248201527f416464726573733a2064656c65676174652063616c6c20746f206e6f6e2d636f6044820152651b9d1c9858dd60d21b606482015260840162000463565b600080846001600160a01b031684604051620020d1919062003224565b600060405180830381855af49150503d80600081146200210e576040519150601f19603f3d011682016040523d82523d6000602084013e62002113565b606091505b50915091506200213e82826040518060600160405280602781526020016200398a6027913962002147565b95945050505050565b606083156200215857508162002164565b6200216483836200216b565b9392505050565b8151156200217c5781518083602001fd5b8060405162461bcd60e51b8152600401620004639190620026e7565b610727806200324383390190565b600060208284031215620021b957600080fd5b5035919050565b80356001600160a01b0381168114620021d857600080fd5b919050565b600060208284031215620021f057600080fd5b6200216482620021c0565b634e487b7160e01b600052604160045260246000fd5b604051608081016001600160401b0381118282101715620022365762002236620021fb565b60405290565b604051601f8201601f191681016001600160401b0381118282101715620022675762002267620021fb565b604052919050565b60006001600160401b038211156200228b576200228b620021fb565b5060051b60200190565b60006001600160401b03831115620022b157620022b1620021fb565b620022c6601f8401601f19166020016200223c565b9050828152838383011115620022db57600080fd5b828260208301376000602084830101529392505050565b600082601f8301126200230457600080fd5b620021648383356020850162002295565b60006200232c62002326846200226f565b6200223c565b8381529050602080820190600585901b8401868111156200234c57600080fd5b845b818110156200238c5780356001600160401b038111156200236f5760008081fd5b6200237d89828901620022f2565b8552509282019282016200234e565b505050509392505050565b600082601f830112620023a957600080fd5b620021648383356020850162002315565b600080600080600060a08688031215620023d357600080fd5b620023de86620021c0565b9450620023ee60208701620021c0565b9350620023fe60408701620021c0565b92506200240e60608701620021c0565b915060808601356001600160401b038111156200242a57600080fd5b620024388882890162002397565b9150509295509295909350565b600080604083850312156200245957600080fd5b6200246483620021c0565b915060208301356001600160401b038111156200248057600080fd5b8301601f810185136200249257600080fd5b620024a38582356020840162002295565b9150509250929050565b60008083601f840112620024c057600080fd5b5081356001600160401b03811115620024d857600080fd5b602083019150836020828501011115620024f157600080fd5b9250929050565b600080602083850312156200250c57600080fd5b82356001600160401b038111156200252357600080fd5b6200253185828601620024ad565b90969095509350505050565b60008083601f8401126200255057600080fd5b5081356001600160401b038111156200256857600080fd5b6020830191508360208260051b8501011115620024f157600080fd5b6000608082840312156200259757600080fd5b50919050565b600080600080600080600080600060a08a8c031215620025bc57600080fd5b89356001600160401b0380821115620025d457600080fd5b620025e28d838e01620024ad565b909b50995060208c0135915080821115620025fc57600080fd5b6200260a8d838e01620024ad565b909950975060408c01359150808211156200262457600080fd5b620026328d838e01620024ad565b909750955060608c01359150808211156200264c57600080fd5b6200265a8d838e016200253d565b909550935060808c01359150808211156200267457600080fd5b50620026838c828d0162002584565b9150509295985092959850929598565b60005b83811015620026b057818101518382015260200162002696565b50506000910152565b60008151808452620026d381602086016020860162002693565b601f01601f19169290920160200192915050565b602081526000620021646020830184620026b9565b600080602083850312156200271057600080fd5b82356001600160401b038111156200272757600080fd5b62002531858286016200253d565b600081518084526020808501808196508360051b8101915082860160005b85811015620027815782840389526200276e848351620026b9565b9885019893509084019060010162002753565b5091979650505050505050565b60208152600062002164602083018462002735565b600080600060608486031215620027b957600080fd5b620027c484620021c0565b9250620027d460208501620021c0565b9150620027e460408501620021c0565b90509250925092565b6020808252602c908201527f46756e6374696f6e206d7573742062652063616c6c6564207468726f7567682060408201526b19195b1959d85d1958d85b1b60a21b606082015260800190565b6020808252602c908201527f46756e6374696f6e206d7573742062652063616c6c6564207468726f7567682060408201526b6163746976652070726f787960a01b606082015260800190565b634e487b7160e01b600052603260045260246000fd5b600181811c90821680620028b057607f821691505b6020821081036200259757634e487b7160e01b600052602260045260246000fd5b601f8211156200107057600081815260208120601f850160051c81016020861015620028fa5750805b601f850160051c820191505b81811015620006e75782815560010162002906565b81516001600160401b03811115620029375762002937620021fb565b6200294f816200294884546200289b565b84620028d1565b602080601f8311600181146200298757600084156200296e5750858301515b600019600386901b1c1916600185901b178555620006e7565b600085815260208120601f198616915b82811015620029b85788860151825594840194600190910190840162002997565b5085821015620029d75787850151600019600388901b60f8161c191681555b5050505050600190811b01905550565b60006001820162002a0857634e487b7160e01b600052601160045260246000fd5b5060010190565b8183823760009101908152919050565b81835281816020850137506000828201602090810191909152601f909101601f19169091010190565b6001600160a01b03841681526040602082018190526000906200213e908301848662002a1f565b60006020828403121562002a8257600080fd5b5051919050565b6001600160a01b038316815260406020820181905260009062002aaf90830184620026b9565b949350505050565b600081518084526020808501945080840160005b8381101562002af25781516001600160a01b03168752958201959082019060010162002acb565b509495945050505050565b60608152600062002b1360608301878962002a1f565b828103602084015262002b2881868862002a1f565b9050828103604084015262002b3e818562002ab7565b98975050505050505050565b60006200216436848462002315565b600082601f83011262002b6b57600080fd5b8135602062002b7e62002326836200226f565b828152600592831b850182019282820191908785111562002b9e57600080fd5b8387015b8581101562002cb25780356001600160401b038082111562002bc45760008081fd5b908901906080828c03601f190181131562002bdf5760008081fd5b62002be962002211565b62002bf6898501620021c0565b81526040808501358a830152606080860135801515811462002c185760008081fd5b8383015292850135928484111562002c305760008081fd5b83860195508e603f87011262002c4857600094508485fd5b8a860135945062002c5d62002326866200226f565b85815294881b86018201948b810194508f86111562002c7c5760008081fd5b958201955b8587101562002c9c5786358552958b0195938b019362002c81565b9083015250875250505092840192840162002ba2565b5090979650505050505050565b600082601f83011262002cd157600080fd5b8135602062002ce462002326836200226f565b82815260059290921b8401810191818101908684111562002d0457600080fd5b8286015b8481101562002d2a5762002d1c81620021c0565b835291830191830162002d08565b509695505050505050565b60006080823603121562002d4857600080fd5b62002d5262002211565b82356001600160401b038082111562002d6a57600080fd5b62002d7836838701620022f2565b8352602085013591508082111562002d8f57600080fd5b62002d9d3683870162002397565b6020840152604085013591508082111562002db757600080fd5b62002dc53683870162002b59565b6040840152606085013591508082111562002ddf57600080fd5b5062002dee3682860162002cbf565b60608301525092915050565b60208152600062002aaf60208301848662002a1f565b6000808335601e1984360301811262002e2857600080fd5b8301803591506001600160401b0382111562002e4357600080fd5b602001915036819003821315620024f157600080fd5b6001600160401b0383111562002e735762002e73620021fb565b62002e8b8362002e8483546200289b565b83620028d1565b6000601f84116001811462002ec2576000851562002ea95750838201355b600019600387901b1c1916600186901b178355620017be565b600083815260209020601f19861690835b8281101562002ef5578685013582556020948501946001909201910162002ed3565b508682101562002f135760001960f88860031b161c19848701351681555b505060018560011b0183555050505050565b6020808252602b908201527f496e697469616c697a61626c653a20636f6e7472616374206973206e6f74206960408201526a6e697469616c697a696e6760a81b606082015260800190565b60006020808301818452808551808352604092508286019150828160051b8701018488016000805b848110156200302457898403603f19018652825180516001600160a01b031685528881015189860152878101511515888601526060908101516080918601829052805191860182905289019060a086019084905b808210156200300e5783518352928b0192918b01916001919091019062002fec565b5050968901969450509187019160010162002f98565b50919998505050505050505050565b60018060a01b038151168252600060208201516040602085015262002aaf6040850182620026b9565b600081518084526020808501808196508360051b8101915082860160005b85811015620027815782840389526200309584835162003033565b988501989350908401906001016200307a565b606081526000620030bd6060830186620026b9565b602083820381850152818654808452828401915060058382821b86010160008a8152858120815b858110156200318557601f1989850301875282825462003104816200289b565b808752600182811680156200312257600181146200313c576200316d565b60ff198416898e01528215158a1b89018d0194506200316d565b8688528c8820885b84811015620031655781548f828d01015283820191508e8101905062003144565b8a018e019550505b50998b019992965050509190910190600101620030e4565b50505087810360408901526200319c818a6200305c565b9b9a5050505050505050505050565b60208152600062002164602083018462002ab7565b606081526000620031d56060830186620026b9565b8281036020840152620031e9818662002735565b90508281036040840152620031ff81856200305c565b9695505050505050565b82815260406020820152600062002aaf604083018462003033565b600082516200323881846020870162002693565b919091019291505056fe608060405260405161072738038061072783398101604081905261002291610319565b61002e82826000610035565b5050610436565b61003e8361006b565b60008251118061004b5750805b156100665761006483836100ab60201b6100291760201c565b505b505050565b610074816100d7565b6040516001600160a01b038216907fbc7cd75a20ee27fd9adebab32041f755214dbc6bffa90cc0225b39da2e5c2d3b90600090a250565b60606100d08383604051806060016040528060278152602001610700602791396101a9565b9392505050565b6100ea8161022260201b6100551760201c565b6101515760405162461bcd60e51b815260206004820152602d60248201527f455243313936373a206e657720696d706c656d656e746174696f6e206973206e60448201526c1bdd08184818dbdb9d1c9858dd609a1b60648201526084015b60405180910390fd5b806101887f360894a13ba1a3210667c828492db98dca3e2076cc3735a920a3ca505d382bbc60001b61023160201b6100641760201c565b80546001600160a01b0319166001600160a01b039290921691909117905550565b6060600080856001600160a01b0316856040516101c691906103e7565b600060405180830381855af49150503d8060008114610201576040519150601f19603f3d011682016040523d82523d6000602084013e610206565b606091505b50909250905061021886838387610234565b9695505050505050565b6001600160a01b03163b151590565b90565b606083156102a357825160000361029c576001600160a01b0385163b61029c5760405162461bcd60e51b815260206004820152601d60248201527f416464726573733a2063616c6c20746f206e6f6e2d636f6e74726163740000006044820152606401610148565b50816102ad565b6102ad83836102b5565b949350505050565b8151156102c55781518083602001fd5b8060405162461bcd60e51b81526004016101489190610403565b634e487b7160e01b600052604160045260246000fd5b60005b838110156103105781810151838201526020016102f8565b50506000910152565b6000806040838503121561032c57600080fd5b82516001600160a01b038116811461034357600080fd5b60208401519092506001600160401b038082111561036057600080fd5b818501915085601f83011261037457600080fd5b815181811115610386576103866102df565b604051601f8201601f19908116603f011681019083821181831017156103ae576103ae6102df565b816040528281528860208487010111156103c757600080fd5b6103d88360208301602088016102f5565b80955050505050509250929050565b600082516103f98184602087016102f5565b9190910192915050565b60208152600082518060208401526104228160408501602087016102f5565b601f01601f19169190910160400192915050565b6102bb806104456000396000f3fe60806040523661001357610011610017565b005b6100115b610027610022610067565b61009f565b565b606061004e838360405180606001604052806027815260200161025f602791396100c3565b9392505050565b6001600160a01b03163b151590565b90565b600061009a7f360894a13ba1a3210667c828492db98dca3e2076cc3735a920a3ca505d382bbc546001600160a01b031690565b905090565b3660008037600080366000845af43d6000803e8080156100be573d6000f35b3d6000fd5b6060600080856001600160a01b0316856040516100e0919061020f565b600060405180830381855af49150503d806000811461011b576040519150601f19603f3d011682016040523d82523d6000602084013e610120565b606091505b50915091506101318683838761013b565b9695505050505050565b606083156101af5782516000036101a8576001600160a01b0385163b6101a85760405162461bcd60e51b815260206004820152601d60248201527f416464726573733a2063616c6c20746f206e6f6e2d636f6e747261637400000060448201526064015b60405180910390fd5b50816101b9565b6101b983836101c1565b949350505050565b8151156101d15781518083602001fd5b8060405162461bcd60e51b815260040161019f919061022b565b60005b838110156102065781810151838201526020016101ee565b50506000910152565b600082516102218184602087016101eb565b9190910192915050565b602081526000825180602084015261024a8160408501602087016101eb565b601f01601f1916919091016040019291505056fe416464726573733a206c6f772d6c6576656c2064656c65676174652063616c6c206661696c6564a2646970667358221220bcb631bc62aa9db130260e9e789be1bbcfb94d1291b8b22c1961be187bb3183664736f6c63430008110033416464726573733a206c6f772d6c6576656c2064656c65676174652063616c6c206661696c6564360894a13ba1a3210667c828492db98dca3e2076cc3735a920a3ca505d382bbc416464726573733a206c6f772d6c6576656c2064656c65676174652063616c6c206661696c6564a26469706673582212201fd2e8e240d25e46ddd61300e8a10aaabdd781f35b6dc7c7c78801cbddb8f77b64736f6c63430008110033",
    "linkReferences": {}
  },
  "methodIdentifiers": {
    "SPACE_IMPLEMENTATION_ADDRESS()": "f21cd401",
    "SPACE_TOKEN_ADDRESS()": "683c72b6",
    "TOKEN_IMPLEMENTATION_ADDRESS()": "cfc27037",
    "USER_IMPLEMENTATION_ADDRESS()": "08bc0b4b",
    "addOwnerPermissions(string[])": "be8b5967",
    "createSpace(string,string,string,string[],(string,string[],(address,uint256,bool,uint256[])[],address[]))": "ad78faf3",
    "getOwnerPermissions()": "df2cd9fe",
    "getTokenIdByNetworkId(string)": "8a9ef426",
    "initialize(address,address,address,address,string[])": "45bfa5b1",
    "owner()": "8da5cb5b",
    "ownerPermissions(uint256)": "b28032f9",
    "proxiableUUID()": "52d1902d",
    "renounceOwnership()": "715018a6",
    "spaceByHash(bytes32)": "3312540a",
    "tokenByHash(bytes32)": "f3aba305",
    "transferOwnership(address)": "f2fde38b",
    "updateImplementations(address,address,address)": "dfc666ff",
    "upgradeTo(address)": "3659cfe6",
    "upgradeToAndCall(address,bytes)": "4f1ef286"
  },
  "id": 47
}