{
  "abi": [
    {
      "inputs": [],
      "stateMutability": "nonpayable",
      "type": "constructor"
    },
    {
      "inputs": [],
      "name": "InvalidParameters",
      "type": "error"
    },
    {
      "inputs": [],
      "name": "NameContainsInvalidCharacters",
      "type": "error"
    },
    {
      "inputs": [],
      "name": "NameLengthInvalid",
      "type": "error"
    },
    {
      "inputs": [],
      "name": "NotAllowed",
      "type": "error"
    },
    {
      "inputs": [],
      "name": "PermissionAlreadyExists",
      "type": "error"
    },
    {
      "inputs": [],
      "name": "SpaceAlreadyRegistered",
      "type": "error"
    },
    {
      "anonymous": false,
      "inputs": [
        {
          "indexed": false,
          "internalType": "address",
          "name": "previousAdmin",
          "type": "address"
        },
        {
          "indexed": false,
          "internalType": "address",
          "name": "newAdmin",
          "type": "address"
        }
      ],
      "name": "AdminChanged",
      "type": "event"
    },
    {
      "anonymous": false,
      "inputs": [
        {
          "indexed": true,
          "internalType": "address",
          "name": "beacon",
          "type": "address"
        }
      ],
      "name": "BeaconUpgraded",
      "type": "event"
    },
    {
      "anonymous": false,
      "inputs": [
        {
          "indexed": false,
          "internalType": "uint8",
          "name": "version",
          "type": "uint8"
        }
      ],
      "name": "Initialized",
      "type": "event"
    },
    {
      "anonymous": false,
      "inputs": [
        {
          "indexed": true,
          "internalType": "address",
          "name": "previousOwner",
          "type": "address"
        },
        {
          "indexed": true,
          "internalType": "address",
          "name": "newOwner",
          "type": "address"
        }
      ],
      "name": "OwnershipTransferred",
      "type": "event"
    },
    {
      "anonymous": false,
      "inputs": [
        {
          "indexed": false,
          "internalType": "address",
          "name": "account",
          "type": "address"
        }
      ],
      "name": "Paused",
      "type": "event"
    },
    {
      "anonymous": false,
      "inputs": [
        {
          "indexed": false,
          "internalType": "address",
          "name": "account",
          "type": "address"
        }
      ],
      "name": "Unpaused",
      "type": "event"
    },
    {
      "anonymous": false,
      "inputs": [
        {
          "indexed": true,
          "internalType": "address",
          "name": "implementation",
          "type": "address"
        }
      ],
      "name": "Upgraded",
      "type": "event"
    },
    {
      "inputs": [],
      "name": "GATE_TOKEN_ADDRESS",
      "outputs": [
        {
          "internalType": "address",
          "name": "",
          "type": "address"
        }
      ],
      "stateMutability": "view",
      "type": "function"
    },
    {
      "inputs": [],
      "name": "SPACE_IMPLEMENTATION_ADDRESS",
      "outputs": [
        {
          "internalType": "address",
          "name": "",
          "type": "address"
        }
      ],
      "stateMutability": "view",
      "type": "function"
    },
    {
      "inputs": [],
      "name": "SPACE_TOKEN_ADDRESS",
      "outputs": [
        {
          "internalType": "address",
          "name": "",
          "type": "address"
        }
      ],
      "stateMutability": "view",
      "type": "function"
    },
    {
      "inputs": [],
      "name": "TOKEN_IMPLEMENTATION_ADDRESS",
      "outputs": [
        {
          "internalType": "address",
          "name": "",
          "type": "address"
        }
      ],
      "stateMutability": "view",
      "type": "function"
    },
    {
      "inputs": [],
      "name": "USER_IMPLEMENTATION_ADDRESS",
      "outputs": [
        {
          "internalType": "address",
          "name": "",
          "type": "address"
        }
      ],
      "stateMutability": "view",
      "type": "function"
    },
    {
      "inputs": [
        {
          "internalType": "string[]",
          "name": "_permissions",
          "type": "string[]"
        }
      ],
      "name": "addOwnerPermissions",
      "outputs": [],
      "stateMutability": "nonpayable",
      "type": "function"
    },
    {
      "inputs": [
        {
          "internalType": "string",
          "name": "spaceName",
          "type": "string"
        },
        {
          "internalType": "string",
          "name": "spaceNetworkId",
          "type": "string"
        },
        {
          "internalType": "string",
          "name": "spaceMetadata",
          "type": "string"
        },
        {
          "internalType": "string[]",
          "name": "_everyonePermissions",
          "type": "string[]"
        },
        {
          "components": [
            {
              "internalType": "string",
              "name": "roleName",
              "type": "string"
            },
            {
              "internalType": "string[]",
              "name": "permissions",
              "type": "string[]"
            },
            {
              "components": [
                {
                  "internalType": "address",
                  "name": "contractAddress",
                  "type": "address"
                },
                {
                  "internalType": "uint256",
                  "name": "quantity",
                  "type": "uint256"
                },
                {
                  "internalType": "bool",
                  "name": "isSingleToken",
                  "type": "bool"
                },
                {
                  "internalType": "uint256[]",
                  "name": "tokenIds",
                  "type": "uint256[]"
                }
              ],
              "internalType": "struct DataTypes.ExternalToken[]",
              "name": "tokens",
              "type": "tuple[]"
            },
            {
              "internalType": "address[]",
              "name": "users",
              "type": "address[]"
            }
          ],
          "internalType": "struct DataTypes.CreateSpaceExtraEntitlements",
          "name": "_extraEntitlements",
          "type": "tuple"
        }
      ],
      "name": "createSpace",
      "outputs": [
        {
          "internalType": "address",
          "name": "_spaceAddress",
          "type": "address"
        }
      ],
      "stateMutability": "nonpayable",
      "type": "function"
    },
    {
      "inputs": [],
      "name": "gatingEnabled",
      "outputs": [
        {
          "internalType": "bool",
          "name": "",
          "type": "bool"
        }
      ],
      "stateMutability": "view",
      "type": "function"
    },
    {
      "inputs": [],
      "name": "getOwnerPermissions",
      "outputs": [
        {
          "internalType": "string[]",
          "name": "",
          "type": "string[]"
        }
      ],
      "stateMutability": "view",
      "type": "function"
    },
    {
      "inputs": [
        {
          "internalType": "string",
          "name": "spaceNetworkId",
          "type": "string"
        }
      ],
      "name": "getSpaceAddressByNetworkId",
      "outputs": [
        {
          "internalType": "address",
          "name": "",
          "type": "address"
        }
      ],
      "stateMutability": "view",
      "type": "function"
    },
    {
      "inputs": [
        {
          "internalType": "string",
          "name": "spaceNetworkId",
          "type": "string"
        }
      ],
      "name": "getTokenIdByNetworkId",
      "outputs": [
        {
          "internalType": "uint256",
          "name": "",
          "type": "uint256"
        }
      ],
      "stateMutability": "view",
      "type": "function"
    },
    {
      "inputs": [
        {
          "internalType": "address",
          "name": "_space",
          "type": "address"
        },
        {
          "internalType": "address",
          "name": "_tokenEntitlement",
          "type": "address"
        },
        {
          "internalType": "address",
          "name": "_userEntitlement",
          "type": "address"
        },
        {
          "internalType": "address",
          "name": "_spaceToken",
          "type": "address"
        },
        {
          "internalType": "address",
          "name": "_gateToken",
          "type": "address"
        },
        {
          "internalType": "string[]",
          "name": "_permissions",
          "type": "string[]"
        }
      ],
      "name": "initialize",
      "outputs": [],
      "stateMutability": "nonpayable",
      "type": "function"
    },
    {
      "inputs": [
        {
          "internalType": "address",
          "name": "",
          "type": "address"
        },
        {
          "internalType": "address",
          "name": "",
          "type": "address"
        },
        {
          "internalType": "uint256",
          "name": "",
          "type": "uint256"
        },
        {
          "internalType": "bytes",
          "name": "",
          "type": "bytes"
        }
      ],
      "name": "onERC721Received",
      "outputs": [
        {
          "internalType": "bytes4",
          "name": "",
          "type": "bytes4"
        }
      ],
      "stateMutability": "nonpayable",
      "type": "function"
    },
    {
      "inputs": [],
      "name": "owner",
      "outputs": [
        {
          "internalType": "address",
          "name": "",
          "type": "address"
        }
      ],
      "stateMutability": "view",
      "type": "function"
    },
    {
      "inputs": [
        {
          "internalType": "uint256",
          "name": "",
          "type": "uint256"
        }
      ],
      "name": "ownerPermissions",
      "outputs": [
        {
          "internalType": "string",
          "name": "",
          "type": "string"
        }
      ],
      "stateMutability": "view",
      "type": "function"
    },
    {
      "inputs": [],
      "name": "paused",
      "outputs": [
        {
          "internalType": "bool",
          "name": "",
          "type": "bool"
        }
      ],
      "stateMutability": "view",
      "type": "function"
    },
    {
      "inputs": [],
      "name": "proxiableUUID",
      "outputs": [
        {
          "internalType": "bytes32",
          "name": "",
          "type": "bytes32"
        }
      ],
      "stateMutability": "view",
      "type": "function"
    },
    {
      "inputs": [],
      "name": "renounceOwnership",
      "outputs": [],
      "stateMutability": "nonpayable",
      "type": "function"
    },
    {
      "inputs": [
        {
          "internalType": "bool",
          "name": "_gatingEnabled",
          "type": "bool"
        }
      ],
      "name": "setGatingEnabled",
      "outputs": [],
      "stateMutability": "nonpayable",
      "type": "function"
    },
    {
      "inputs": [
        {
          "internalType": "bool",
          "name": "_paused",
          "type": "bool"
        }
      ],
      "name": "setPaused",
      "outputs": [],
      "stateMutability": "nonpayable",
      "type": "function"
    },
    {
      "inputs": [
        {
          "internalType": "bytes32",
          "name": "",
          "type": "bytes32"
        }
      ],
      "name": "spaceByHash",
      "outputs": [
        {
          "internalType": "address",
          "name": "",
          "type": "address"
        }
      ],
      "stateMutability": "view",
      "type": "function"
    },
    {
      "inputs": [
        {
          "internalType": "bytes32",
          "name": "",
          "type": "bytes32"
        }
      ],
      "name": "tokenByHash",
      "outputs": [
        {
          "internalType": "uint256",
          "name": "",
          "type": "uint256"
        }
      ],
      "stateMutability": "view",
      "type": "function"
    },
    {
      "inputs": [
        {
          "internalType": "address",
          "name": "newOwner",
          "type": "address"
        }
      ],
      "name": "transferOwnership",
      "outputs": [],
      "stateMutability": "nonpayable",
      "type": "function"
    },
    {
      "inputs": [
        {
          "internalType": "address",
          "name": "_space",
          "type": "address"
        },
        {
          "internalType": "address",
          "name": "_tokenEntitlement",
          "type": "address"
        },
        {
          "internalType": "address",
          "name": "_userEntitlement",
          "type": "address"
        },
        {
          "internalType": "address",
          "name": "_gateToken",
          "type": "address"
        }
      ],
      "name": "updateImplementations",
      "outputs": [],
      "stateMutability": "nonpayable",
      "type": "function"
    },
    {
      "inputs": [
        {
          "internalType": "address",
          "name": "newImplementation",
          "type": "address"
        }
      ],
      "name": "upgradeTo",
      "outputs": [],
      "stateMutability": "nonpayable",
      "type": "function"
    },
    {
      "inputs": [
        {
          "internalType": "address",
          "name": "newImplementation",
          "type": "address"
        },
        {
          "internalType": "bytes",
          "name": "data",
          "type": "bytes"
        }
      ],
      "name": "upgradeToAndCall",
      "outputs": [],
      "stateMutability": "payable",
      "type": "function"
    }
  ],
  "bytecode": {
    "object": "0x60a0604052306080523480156200001557600080fd5b506200002062000026565b620000e7565b600054610100900460ff1615620000935760405162461bcd60e51b815260206004820152602760248201527f496e697469616c697a61626c653a20636f6e747261637420697320696e697469604482015266616c697a696e6760c81b606482015260840160405180910390fd5b60005460ff90811614620000e5576000805460ff191660ff9081179091556040519081527f7f26b83ff96e1f2b6a682f133852f6798a09c465da95921460cefb38474024989060200160405180910390a15b565b6080516140016200011f600039600081816105e9015281816106350152818161070d0152818161075001526107ec01526140016000f3fe608060405260043610620001a15760003560e01c80638da5cb5b11620000e2578063c45f396b1162000095578063ed267116116200006c578063ed267116146200051a578063f21cd401146200053d578063f2fde38b1462000560578063f3aba305146200058557600080fd5b8063c45f396b14620004ac578063cfc2703714620004d0578063df2cd9fe14620004f357600080fd5b80638da5cb5b14620003c457806396dc21e414620003e45780639ad622b71462000409578063ad78faf3146200042e578063b28032f91462000453578063be8b5967146200048757600080fd5b80634f1ef2861162000158578063683c72b6116200012f578063683c72b6146200033f5780636e9ea7ca1462000362578063715018a614620003875780638a9ef426146200039f57600080fd5b80634f1ef28614620002db57806352d1902d14620002f25780635c975abb146200031957600080fd5b806308bc0b4b14620001a6578063150b7a0214620001e657806316c38b3c146200022f5780633312540a14620002565780633659cfe614620002915780634689cd0414620002b6575b600080fd5b348015620001b357600080fd5b5061016154620001c9906001600160a01b031681565b6040516001600160a01b0390911681526020015b60405180910390f35b348015620001f357600080fd5b50620002156200020536600462002825565b630a85bd0160e11b949350505050565b6040516001600160e01b03199091168152602001620001dd565b3480156200023c57600080fd5b50620002546200024e366004620028a5565b620005b7565b005b3480156200026357600080fd5b50620001c962000275366004620028c3565b610165602052600090815260409020546001600160a01b031681565b3480156200029e57600080fd5b5062000254620002b0366004620028dd565b620005df565b348015620002c357600080fd5b5062000254620002d5366004620028a5565b620006d0565b62000254620002ec366004620028fb565b62000703565b348015620002ff57600080fd5b506200030a620007df565b604051908152602001620001dd565b3480156200032657600080fd5b5060655460ff165b6040519015158152602001620001dd565b3480156200034c57600080fd5b5061016254620001c9906001600160a01b031681565b3480156200036f57600080fd5b50620002546200038136600462002a19565b62000895565b3480156200039457600080fd5b506200025462000aa8565b348015620003ac57600080fd5b506200030a620003be36600462002b00565b62000ac0565b348015620003d157600080fd5b506033546001600160a01b0316620001c9565b348015620003f157600080fd5b50620001c96200040336600462002b00565b62000af5565b3480156200041657600080fd5b50620002546200042836600462002b45565b62000b33565b3480156200043b57600080fd5b50620001c96200044d36600462002c02565b62000c01565b3480156200046057600080fd5b506200047862000472366004620028c3565b6200118d565b604051620001dd919062002d4c565b3480156200049457600080fd5b5062000254620004a636600462002d61565b62001243565b348015620004b957600080fd5b50610163546200032e90600160a01b900460ff1681565b348015620004dd57600080fd5b5061016054620001c9906001600160a01b031681565b3480156200050057600080fd5b506200050b6200142c565b604051620001dd919062002df0565b3480156200052757600080fd5b5061016354620001c9906001600160a01b031681565b3480156200054a57600080fd5b5061015f54620001c9906001600160a01b031681565b3480156200056d57600080fd5b50620002546200057f366004620028dd565b62001510565b3480156200059257600080fd5b506200030a620005a4366004620028c3565b6101666020526000908152604090205481565b620005c16200158c565b8015620005d557620005d2620015e8565b50565b620005d262001645565b6001600160a01b037f0000000000000000000000000000000000000000000000000000000000000000163003620006335760405162461bcd60e51b81526004016200062a9062002e05565b60405180910390fd5b7f00000000000000000000000000000000000000000000000000000000000000006001600160a01b03166200067e60008051602062003f85833981519152546001600160a01b031690565b6001600160a01b031614620006a75760405162461bcd60e51b81526004016200062a9062002e51565b620006b28162001681565b60408051600080825260208201909252620005d2918391906200168b565b620006da6200158c565b620006e462001803565b6101638054911515600160a01b0260ff60a01b19909216919091179055565b6001600160a01b037f00000000000000000000000000000000000000000000000000000000000000001630036200074e5760405162461bcd60e51b81526004016200062a9062002e05565b7f00000000000000000000000000000000000000000000000000000000000000006001600160a01b03166200079960008051602062003f85833981519152546001600160a01b031690565b6001600160a01b031614620007c25760405162461bcd60e51b81526004016200062a9062002e51565b620007cd8262001681565b620007db828260016200168b565b5050565b6000306001600160a01b037f00000000000000000000000000000000000000000000000000000000000000001614620008815760405162461bcd60e51b815260206004820152603860248201527f555550535570677261646561626c653a206d757374206e6f742062652063616c60448201527f6c6564207468726f7567682064656c656761746563616c6c000000000000000060648201526084016200062a565b5060008051602062003f8583398151915290565b600054610100900460ff1615808015620008b65750600054600160ff909116105b80620008d25750303b158015620008d2575060005460ff166001145b620009375760405162461bcd60e51b815260206004820152602e60248201527f496e697469616c697a61626c653a20636f6e747261637420697320616c72656160448201526d191e481a5b9a5d1a585b1a5e995960921b60648201526084016200062a565b6000805460ff1916600117905580156200095b576000805461ff0019166101001790555b620009656200184e565b6200096f62001878565b62000979620018ac565b62000983620018e0565b6200098d6200184e565b61015f80546001600160a01b03808a166001600160a01b031992831617909255610160805489841690831617905561016180548884169083161790556101628054878416921691909117905561016380546001600160a81b03191691851691909117905560005b825181101562000a575761016483828151811062000a165762000a1662002e9d565b6020908102919091018101518254600181018455600093845291909220019062000a41908262002f33565b508062000a4e8162002fff565b915050620009f4565b50801562000a9f576000805461ff0019169055604051600181527f7f26b83ff96e1f2b6a682f133852f6798a09c465da95921460cefb38474024989060200160405180910390a15b50505050505050565b62000ab26200158c565b62000abe600062001914565b565b600080838360405162000ad592919062003027565b604080519182900390912060009081526101666020522054949350505050565b600080838360405162000b0a92919062003027565b6040805191829003909120600090815261016560205220546001600160a01b0316949350505050565b62000b3d6200158c565b62000b4762001803565b6001600160a01b0384161562000b745761015f80546001600160a01b0319166001600160a01b0386161790555b6001600160a01b0383161562000ba15761016080546001600160a01b0319166001600160a01b0385161790555b6001600160a01b0382161562000bce5761016180546001600160a01b0319166001600160a01b0384161790555b6001600160a01b0381161562000bfb5761016380546001600160a01b0319166001600160a01b0383161790555b50505050565b600062000c0d62001966565b62000c17620019c1565b62000c2162001a09565b62000c2d8a8a62001abe565b600087900362000c5057604051630e52390960e41b815260040160405180910390fd5b6000888860405162000c6492919062003027565b6040805191829003909120600081815261016560205291909120549091506001600160a01b03161562000caa57604051633881599b60e11b815260040160405180910390fd5b610162546040516275a31760e01b81526000916001600160a01b0316906275a3179062000ce09030908c908c9060040162003060565b6020604051808303816000875af115801562000d00573d6000803e3d6000fd5b505050506040513d601f19601f8201168201806040525081019062000d26919062003087565b60008381526101666020526040808220839055610160546101625491516001600160a01b03928316602482015260448101859052939450919291169060640160408051601f198184030181529181526020820180516001600160e01b031663cd6dc68760e01b1790525162000d9b9062002710565b62000da8929190620030a1565b604051809103906000f08015801562000dc5573d6000803e3d6000fd5b5061016154610162546040516001600160a01b0391821660248201526044810186905292935060009291169060640160408051601f198184030181529181526020820180516001600160e01b031663cd6dc68760e01b1790525162000e2a9062002710565b62000e37929190620030a1565b604051809103906000f08015801562000e54573d6000803e3d6000fd5b506040805160028082526060820183529293506000929091602083019080368337019050509050828160008151811062000e925762000e9262002e9d565b60200260200101906001600160a01b031690816001600160a01b031681525050818160018151811062000ec95762000ec962002e9d565b60200260200101906001600160a01b031690816001600160a01b03168152505061015f60009054906101000a90046001600160a01b03168f8f8f8f8561016260009054906101000a90046001600160a01b03168a60405160240162000f35979695949392919062003115565b60408051601f198184030181529181526020820180516001600160e01b031663f3ce6a5b60e01b1790525162000f6b9062002710565b62000f78929190620030a1565b604051809103906000f08015801562000f95573d6000803e3d6000fd5b5060008681526101656020526040812080546001600160a01b0319166001600160a01b0384161790559096505b81518110156200105f5781818151811062000fe15762000fe162002e9d565b602090810291909101015160405162ed014d60e21b81526001600160a01b038981166004830152909116906303b4053490602401600060405180830381600087803b1580156200103057600080fd5b505af115801562001045573d6000803e3d6000fd5b505050508080620010569062002fff565b91505062000fc2565b506200106d86848662001cfe565b6200108586836200107f8b8d62003176565b62001f87565b6200109d868484620010978b6200334d565b62002124565b610162546001600160a01b03166342842e0e30336040516001600160e01b031960e085901b1681526001600160a01b0392831660048201529116602482015260448101879052606401600060405180830381600087803b1580156200110157600080fd5b505af115801562001116573d6000803e3d6000fd5b50505050620011223390565b6001600160a01b0316866001600160a01b03167f78d7e431fd0a46d11f5c8889cf2db64699be1f95ccb8b1419211c83bcdbce5808f8f6040516200116892919062003412565b60405180910390a35050505050620011806001609755565b9998505050505050505050565b61016481815481106200119f57600080fd5b906000526020600020016000915090508054620011bc9062002eb3565b80601f0160208091040260200160405190810160405280929190818152602001828054620011ea9062002eb3565b80156200123b5780601f106200120f576101008083540402835291602001916200123b565b820191906000526020600020905b8154815290600101906020018083116200121d57829003601f168201915b505050505081565b6200124d6200158c565b6200125762001803565b60005b81811015620014275760005b61016454811015620013c2576200138e8484848181106200128b576200128b62002e9d565b90506020028101906200129f919062003428565b8080601f0160208091040260200160405190810160405280939291908181526020018383808284376000920191909152505061016480549092508591508110620012ed57620012ed62002e9d565b906000526020600020018054620013049062002eb3565b80601f0160208091040260200160405190810160405280929190818152602001828054620013329062002eb3565b8015620013835780601f10620013575761010080835404028352916020019162001383565b820191906000526020600020905b8154815290600101906020018083116200136557829003601f168201915b5050505050620023c4565b15620013ad57604051636571d65f60e01b815260040160405180910390fd5b80620013b98162002fff565b91505062001266565b50610164838383818110620013db57620013db62002e9d565b9050602002810190620013ef919062003428565b8254600181018455600093845260209093209092019162001411918362003471565b50806200141e8162002fff565b9150506200125a565b505050565b6060610164805480602002602001604051908101604052809291908181526020016000905b8282101562001507578382906000526020600020018054620014739062002eb3565b80601f0160208091040260200160405190810160405280929190818152602001828054620014a19062002eb3565b8015620014f25780601f10620014c657610100808354040283529160200191620014f2565b820191906000526020600020905b815481529060010190602001808311620014d457829003601f168201915b50505050508152602001906001019062001451565b50505050905090565b6200151a6200158c565b6001600160a01b038116620015815760405162461bcd60e51b815260206004820152602660248201527f4f776e61626c653a206e6577206f776e657220697320746865207a65726f206160448201526564647265737360d01b60648201526084016200062a565b620005d28162001914565b6033546001600160a01b0316331462000abe5760405162461bcd60e51b815260206004820181905260248201527f4f776e61626c653a2063616c6c6572206973206e6f7420746865206f776e657260448201526064016200062a565b620015f2620019c1565b6065805460ff191660011790557f62e78cea01bee320cd4e420270b5ea74000d11b0c9f74754ebdbfc544b05a258620016283390565b6040516001600160a01b03909116815260200160405180910390a1565b6200164f62001803565b6065805460ff191690557f5db9ee0a495bf2e6ff9c91a7834c1ba4fdd244a5e8aa4e537bd38aeae4b073aa3362001628565b620005d26200158c565b7f4910fdfa16fed3260ed0e7147f7cc6da11a60208b5b9406d12a635614ffd91435460ff1615620016c157620014278362002421565b826001600160a01b03166352d1902d6040518163ffffffff1660e01b8152600401602060405180830381865afa9250505080156200171e575060408051601f3d908101601f191682019092526200171b9181019062003087565b60015b620017835760405162461bcd60e51b815260206004820152602e60248201527f45524331393637557067726164653a206e657720696d706c656d656e7461746960448201526d6f6e206973206e6f74205555505360901b60648201526084016200062a565b60008051602062003f858339815191528114620017f55760405162461bcd60e51b815260206004820152602960248201527f45524331393637557067726164653a20756e737570706f727465642070726f786044820152681a58589b195555525160ba1b60648201526084016200062a565b5062001427838383620024c0565b60655460ff1662000abe5760405162461bcd60e51b815260206004820152601460248201527314185d5cd8589b194e881b9bdd081c185d5cd95960621b60448201526064016200062a565b600054610100900460ff1662000abe5760405162461bcd60e51b81526004016200062a906200353d565b600054610100900460ff16620018a25760405162461bcd60e51b81526004016200062a906200353d565b62000abe620024eb565b600054610100900460ff16620018d65760405162461bcd60e51b81526004016200062a906200353d565b62000abe62002520565b600054610100900460ff166200190a5760405162461bcd60e51b81526004016200062a906200353d565b62000abe62002556565b603380546001600160a01b038381166001600160a01b0319831681179093556040519116919082907f8be0079c531659141344cd1fd0a4f28419497f9722a3daafe3b4186f6b6457e090600090a35050565b600260975403620019ba5760405162461bcd60e51b815260206004820152601f60248201527f5265656e7472616e637947756172643a207265656e7472616e742063616c6c0060448201526064016200062a565b6002609755565b60655460ff161562000abe5760405162461bcd60e51b815260206004820152601060248201526f14185d5cd8589b194e881c185d5cd95960821b60448201526064016200062a565b61016354600160a01b900460ff16801562001a9f5750610163546001600160a01b03166370a08231336040516001600160e01b031960e084901b1681526001600160a01b039091166004820152602401602060405180830381865afa15801562001a77573d6000803e3d6000fd5b505050506040513d601f19601f8201168201806040525081019062001a9d919062003087565b155b1562000abe57604051631eb49d6d60e11b815260040160405180910390fd5b600082828080601f01602080910402602001604051908101604052809392919081815260200183838082843760009201919091525050825192935050600290911090508062001b0e575080516020105b1562001b2d5760405163354b556f60e11b815260040160405180910390fd5b805160005b8181101562001cf757600360fc1b83828151811062001b555762001b5562002e9d565b01602001516001600160f81b031916108062001b975750603d60f91b83828151811062001b865762001b8662002e9d565b01602001516001600160f81b031916115b8062001bfb5750603960f81b83828151811062001bb85762001bb862002e9d565b01602001516001600160f81b03191611801562001bfb5750606160f81b83828151811062001bea5762001bea62002e9d565b01602001516001600160f81b031916105b801562001c30575082818151811062001c185762001c1862002e9d565b6020910101516001600160f81b031916601760f91b14155b801562001c65575082818151811062001c4d5762001c4d62002e9d565b6020910101516001600160f81b031916602d60f81b14155b801562001c9a575082818151811062001c825762001c8262002e9d565b6020910101516001600160f81b031916605f60f81b14155b801562001ccf575082818151811062001cb75762001cb762002e9d565b6020910101516001600160f81b031916600160fd1b14155b1562001cee5760405163f8fa659760e01b815260040160405180910390fd5b60010162001b32565b5050505050565b604080516001808252818301909252600091816020015b604080516080810182526000808252602080830182905292820152606080820152825260001990920191018162001d155750506040805160018082528183019092529192506000919060208083019080368337019050509050828160008151811062001d855762001d8562002e9d565b60209081029190910181019190915260408051608081018252610162546001600160a01b03168152600192810183905290810191909152606081018290528251839060009062001dd95762001dd962002e9d565b6020908102919091010152604080516001808252818301909252600091816020015b60408051808201909152600081526060602082015281526020019060019003908162001dfb5790505090506040518060400160405280866001600160a01b031681526020018460405160200162001e53919062003588565b6040516020818303038152906040528152508160008151811062001e7b5762001e7b62002e9d565b60200260200101819052506000866001600160a01b0316638fcd793d6040518060400160405280600581526020016427bbb732b960d91b815250610164856040518463ffffffff1660e01b815260040162001ed993929190620036c3565b6020604051808303816000875af115801562001ef9573d6000803e3d6000fd5b505050506040513d601f19601f8201168201806040525081019062001f1f919062003087565b6040516324ccd58b60e11b8152600481018290529091506001600160a01b03881690634999ab1690602401600060405180830381600087803b15801562001f6557600080fd5b505af115801562001f7a573d6000803e3d6000fd5b5050505050505050505050565b604080516001808252818301909252600091816020015b60408051808201909152600081526060602082015281526020019060019003908162001f9e575050604080516001808252818301909252919250600091906020808301908036833701905050905060018160008151811062002004576200200462002e9d565b60200260200101906001600160a01b031690816001600160a01b0316815250506040518060400160405280856001600160a01b0316815260200182604051602001620020519190620037c6565b6040516020818303038152906040528152508260008151811062002079576200207962002e9d565b6020026020010181905250846001600160a01b0316638fcd793d6040518060400160405280600881526020016745766572796f6e6560c01b81525085856040518463ffffffff1660e01b8152600401620020d693929190620037db565b6020604051808303816000875af1158015620020f6573d6000803e3d6000fd5b505050506040513d601f19601f820116820180604052508101906200211c919062003087565b505050505050565b6020810151511562000bfb57604080516001808252818301909252600091816020015b60408051808201909152600081526060602082015281526020019060019003908162002147579050509050604051806040016040528060006001600160a01b031681526020016040518060200160405280600081525081525081600081518110620021b657620021b662002e9d565b60200260200101819052506000856001600160a01b0316638fcd793d84600001518560200151856040518463ffffffff1660e01b8152600401620021fd93929190620037db565b6020604051808303816000875af11580156200221d573d6000803e3d6000fd5b505050506040513d601f19601f8201168201806040525081019062002243919062003087565b60608401515190915015620022f957856001600160a01b031663ba201ba8826040518060400160405280886001600160a01b031681526020018760600151604051602001620022939190620037c6565b6040516020818303038152906040528152506040518363ffffffff1660e01b8152600401620022c492919062003824565b600060405180830381600087803b158015620022df57600080fd5b505af1158015620022f4573d6000803e3d6000fd5b505050505b8260400151516000036200230f57505062000bfb565b856001600160a01b031663ba201ba8826040518060400160405280896001600160a01b03168152602001876040015160405160200162002350919062003588565b6040516020818303038152906040528152506040518363ffffffff1660e01b81526004016200238192919062003824565b600060405180830381600087803b1580156200239c57600080fd5b505af1158015620023b1573d6000803e3d6000fd5b50505050505050505050565b6001609755565b600081604051602001620023d9919062002d4c565b604051602081830303815290604052805190602001208360405160200162002402919062002d4c565b6040516020818303038152906040528051906020012014905092915050565b6001600160a01b0381163b620024905760405162461bcd60e51b815260206004820152602d60248201527f455243313936373a206e657720696d706c656d656e746174696f6e206973206e60448201526c1bdd08184818dbdb9d1c9858dd609a1b60648201526084016200062a565b60008051602062003f8583398151915280546001600160a01b0319166001600160a01b0392909216919091179055565b620024cb8362002580565b600082511180620024d95750805b15620014275762000bfb8383620025c2565b600054610100900460ff16620025155760405162461bcd60e51b81526004016200062a906200353d565b62000abe3362001914565b600054610100900460ff166200254a5760405162461bcd60e51b81526004016200062a906200353d565b6065805460ff19169055565b600054610100900460ff16620023bd5760405162461bcd60e51b81526004016200062a906200353d565b6200258b8162002421565b6040516001600160a01b038216907fbc7cd75a20ee27fd9adebab32041f755214dbc6bffa90cc0225b39da2e5c2d3b90600090a250565b60606001600160a01b0383163b6200262c5760405162461bcd60e51b815260206004820152602660248201527f416464726573733a2064656c65676174652063616c6c20746f206e6f6e2d636f6044820152651b9d1c9858dd60d21b60648201526084016200062a565b600080846001600160a01b0316846040516200264991906200383f565b600060405180830381855af49150503d806000811462002686576040519150601f19603f3d011682016040523d82523d6000602084013e6200268b565b606091505b5091509150620026b6828260405180606001604052806027815260200162003fa560279139620026bf565b95945050505050565b60608315620026d0575081620026dc565b620026dc8383620026e3565b9392505050565b815115620026f45781518083602001fd5b8060405162461bcd60e51b81526004016200062a919062002d4c565b610727806200385e83390190565b80356001600160a01b03811681146200273657600080fd5b919050565b634e487b7160e01b600052604160045260246000fd5b604051608081016001600160401b03811182821017156200277657620027766200273b565b60405290565b604051601f8201601f191681016001600160401b0381118282101715620027a757620027a76200273b565b604052919050565b600082601f830112620027c157600080fd5b81356001600160401b03811115620027dd57620027dd6200273b565b620027f2601f8201601f19166020016200277c565b8181528460208386010111156200280857600080fd5b816020850160208301376000918101602001919091529392505050565b600080600080608085870312156200283c57600080fd5b62002847856200271e565b935062002857602086016200271e565b92506040850135915060608501356001600160401b038111156200287a57600080fd5b6200288887828801620027af565b91505092959194509250565b803580151581146200273657600080fd5b600060208284031215620028b857600080fd5b620026dc8262002894565b600060208284031215620028d657600080fd5b5035919050565b600060208284031215620028f057600080fd5b620026dc826200271e565b600080604083850312156200290f57600080fd5b6200291a836200271e565b915060208301356001600160401b038111156200293657600080fd5b6200294485828601620027af565b9150509250929050565b60006001600160401b038211156200296a576200296a6200273b565b5060051b60200190565b60006200298b62002985846200294e565b6200277c565b8381529050602080820190600585901b840186811115620029ab57600080fd5b845b81811015620029eb5780356001600160401b03811115620029ce5760008081fd5b620029dc89828901620027af565b855250928201928201620029ad565b505050509392505050565b600082601f83011262002a0857600080fd5b620026dc8383356020850162002974565b60008060008060008060c0878903121562002a3357600080fd5b62002a3e876200271e565b955062002a4e602088016200271e565b945062002a5e604088016200271e565b935062002a6e606088016200271e565b925062002a7e608088016200271e565b915060a08701356001600160401b0381111562002a9a57600080fd5b62002aa889828a01620029f6565b9150509295509295509295565b60008083601f84011262002ac857600080fd5b5081356001600160401b0381111562002ae057600080fd5b60208301915083602082850101111562002af957600080fd5b9250929050565b6000806020838503121562002b1457600080fd5b82356001600160401b0381111562002b2b57600080fd5b62002b398582860162002ab5565b90969095509350505050565b6000806000806080858703121562002b5c57600080fd5b62002b67856200271e565b935062002b77602086016200271e565b925062002b87604086016200271e565b915062002b97606086016200271e565b905092959194509250565b60008083601f84011262002bb557600080fd5b5081356001600160401b0381111562002bcd57600080fd5b6020830191508360208260051b850101111562002af957600080fd5b60006080828403121562002bfc57600080fd5b50919050565b600080600080600080600080600060a08a8c03121562002c2157600080fd5b89356001600160401b038082111562002c3957600080fd5b62002c478d838e0162002ab5565b909b50995060208c013591508082111562002c6157600080fd5b62002c6f8d838e0162002ab5565b909950975060408c013591508082111562002c8957600080fd5b62002c978d838e0162002ab5565b909750955060608c013591508082111562002cb157600080fd5b62002cbf8d838e0162002ba2565b909550935060808c013591508082111562002cd957600080fd5b5062002ce88c828d0162002be9565b9150509295985092959850929598565b60005b8381101562002d1557818101518382015260200162002cfb565b50506000910152565b6000815180845262002d3881602086016020860162002cf8565b601f01601f19169290920160200192915050565b602081526000620026dc602083018462002d1e565b6000806020838503121562002d7557600080fd5b82356001600160401b0381111562002d8c57600080fd5b62002b398582860162002ba2565b6000815180845260208085019450848260051b860182860160005b8581101562002de357838303895262002dd083835162002d1e565b9885019892509084019060010162002db5565b5090979650505050505050565b602081526000620026dc602083018462002d9a565b6020808252602c908201527f46756e6374696f6e206d7573742062652063616c6c6564207468726f7567682060408201526b19195b1959d85d1958d85b1b60a21b606082015260800190565b6020808252602c908201527f46756e6374696f6e206d7573742062652063616c6c6564207468726f7567682060408201526b6163746976652070726f787960a01b606082015260800190565b634e487b7160e01b600052603260045260246000fd5b600181811c9082168062002ec857607f821691505b60208210810362002bfc57634e487b7160e01b600052602260045260246000fd5b601f8211156200142757600081815260208120601f850160051c8101602086101562002f125750805b601f850160051c820191505b818110156200211c5782815560010162002f1e565b81516001600160401b0381111562002f4f5762002f4f6200273b565b62002f678162002f60845462002eb3565b8462002ee9565b602080601f83116001811462002f9f576000841562002f865750858301515b600019600386901b1c1916600185901b1785556200211c565b600085815260208120601f198616915b8281101562002fd05788860151825594840194600190910190840162002faf565b508582101562002fef5787850151600019600388901b60f8161c191681555b5050505050600190811b01905550565b6000600182016200302057634e487b7160e01b600052601160045260246000fd5b5060010190565b8183823760009101908152919050565b81835281816020850137506000828201602090810191909152601f909101601f19169091010190565b6001600160a01b0384168152604060208201819052600090620026b6908301848662003037565b6000602082840312156200309a57600080fd5b5051919050565b6001600160a01b0383168152604060208201819052600090620030c79083018462002d1e565b949350505050565b600081518084526020808501945080840160005b838110156200310a5781516001600160a01b031687529582019590820190600101620030e3565b509495945050505050565b60a0815260006200312b60a08301898b62003037565b82810360208401526200314081888a62003037565b90508281036040840152620031568187620030cf565b6001600160a01b0395909516606084015250506080015295945050505050565b6000620026dc36848462002974565b600082601f8301126200319757600080fd5b81356020620031aa62002985836200294e565b828152600592831b8501820192828201919087851115620031ca57600080fd5b8387015b8581101562002de35780356001600160401b0380821115620031f05760008081fd5b908901906080828c03601f19018113156200320b5760008081fd5b6200321562002751565b620032228985016200271e565b81526040808501358a83015260606200323d81870162002894565b83830152928501359284841115620032555760008081fd5b83860195508e603f8701126200326d57600094508485fd5b8a86013594506200328262002985866200294e565b85815294881b86018201948b810194508f861115620032a15760008081fd5b958201955b85871015620032c15786358552958b0195938b0193620032a6565b90830152508752505050928401928401620031ce565b600082601f830112620032e957600080fd5b81356020620032fc62002985836200294e565b82815260059290921b840181019181810190868411156200331c57600080fd5b8286015b84811015620033425762003334816200271e565b835291830191830162003320565b509695505050505050565b6000608082360312156200336057600080fd5b6200336a62002751565b82356001600160401b03808211156200338257600080fd5b6200339036838701620027af565b83526020850135915080821115620033a757600080fd5b620033b536838701620029f6565b60208401526040850135915080821115620033cf57600080fd5b620033dd3683870162003185565b60408401526060850135915080821115620033f757600080fd5b506200340636828601620032d7565b60608301525092915050565b602081526000620030c760208301848662003037565b6000808335601e198436030181126200344057600080fd5b8301803591506001600160401b038211156200345b57600080fd5b60200191503681900382131562002af957600080fd5b6001600160401b038311156200348b576200348b6200273b565b620034a3836200349c835462002eb3565b8362002ee9565b6000601f841160018114620034da5760008515620034c15750838201355b600019600387901b1c1916600186901b17835562001cf7565b600083815260209020601f19861690835b828110156200350d5786850135825560209485019460019092019101620034eb565b50868210156200352b5760001960f88860031b161c19848701351681555b505060018560011b0183555050505050565b6020808252602b908201527f496e697469616c697a61626c653a20636f6e7472616374206973206e6f74206960408201526a6e697469616c697a696e6760a81b606082015260800190565b60006020808301818452808551808352604092508286019150828160051b8701018488016000805b848110156200363c57898403603f19018652825180516001600160a01b031685528881015189860152878101511515888601526060908101516080918601829052805191860182905289019060a086019084905b80821015620036265783518352928b0192918b01916001919091019062003604565b50509689019694505091870191600101620035b0565b50919998505050505050505050565b60018060a01b0381511682526000602082015160406020850152620030c7604085018262002d1e565b600082825180855260208086019550808260051b84010181860160005b8481101562002de357601f19868403018952620036b08383516200364b565b9884019892509083019060010162003691565b606081526000620036d8606083018662002d1e565b602083820381850152818654808452828401915060058382821b86010160008a8152858120815b85811015620037a057601f198985030187528282546200371f8162002eb3565b808752600182811680156200373d5760018114620037575762003788565b60ff198416898e01528215158a1b89018d01945062003788565b8688528c8820885b84811015620037805781548f828d01015283820191508e810190506200375f565b8a018e019550505b50998b019992965050509190910190600101620036ff565b5050508781036040890152620037b7818a62003674565b9b9a5050505050505050505050565b602081526000620026dc6020830184620030cf565b606081526000620037f0606083018662002d1e565b828103602084015262003804818662002d9a565b905082810360408401526200381a818562003674565b9695505050505050565b828152604060208201526000620030c760408301846200364b565b600082516200385381846020870162002cf8565b919091019291505056fe608060405260405161072738038061072783398101604081905261002291610319565b61002e82826000610035565b5050610436565b61003e8361006b565b60008251118061004b5750805b156100665761006483836100ab60201b6100291760201c565b505b505050565b610074816100d7565b6040516001600160a01b038216907fbc7cd75a20ee27fd9adebab32041f755214dbc6bffa90cc0225b39da2e5c2d3b90600090a250565b60606100d08383604051806060016040528060278152602001610700602791396101a9565b9392505050565b6100ea8161022260201b6100551760201c565b6101515760405162461bcd60e51b815260206004820152602d60248201527f455243313936373a206e657720696d706c656d656e746174696f6e206973206e60448201526c1bdd08184818dbdb9d1c9858dd609a1b60648201526084015b60405180910390fd5b806101887f360894a13ba1a3210667c828492db98dca3e2076cc3735a920a3ca505d382bbc60001b61023160201b6100641760201c565b80546001600160a01b0319166001600160a01b039290921691909117905550565b6060600080856001600160a01b0316856040516101c691906103e7565b600060405180830381855af49150503d8060008114610201576040519150601f19603f3d011682016040523d82523d6000602084013e610206565b606091505b50909250905061021886838387610234565b9695505050505050565b6001600160a01b03163b151590565b90565b606083156102a357825160000361029c576001600160a01b0385163b61029c5760405162461bcd60e51b815260206004820152601d60248201527f416464726573733a2063616c6c20746f206e6f6e2d636f6e74726163740000006044820152606401610148565b50816102ad565b6102ad83836102b5565b949350505050565b8151156102c55781518083602001fd5b8060405162461bcd60e51b81526004016101489190610403565b634e487b7160e01b600052604160045260246000fd5b60005b838110156103105781810151838201526020016102f8565b50506000910152565b6000806040838503121561032c57600080fd5b82516001600160a01b038116811461034357600080fd5b60208401519092506001600160401b038082111561036057600080fd5b818501915085601f83011261037457600080fd5b815181811115610386576103866102df565b604051601f8201601f19908116603f011681019083821181831017156103ae576103ae6102df565b816040528281528860208487010111156103c757600080fd5b6103d88360208301602088016102f5565b80955050505050509250929050565b600082516103f98184602087016102f5565b9190910192915050565b60208152600082518060208401526104228160408501602087016102f5565b601f01601f19169190910160400192915050565b6102bb806104456000396000f3fe60806040523661001357610011610017565b005b6100115b610027610022610067565b61009f565b565b606061004e838360405180606001604052806027815260200161025f602791396100c3565b9392505050565b6001600160a01b03163b151590565b90565b600061009a7f360894a13ba1a3210667c828492db98dca3e2076cc3735a920a3ca505d382bbc546001600160a01b031690565b905090565b3660008037600080366000845af43d6000803e8080156100be573d6000f35b3d6000fd5b6060600080856001600160a01b0316856040516100e0919061020f565b600060405180830381855af49150503d806000811461011b576040519150601f19603f3d011682016040523d82523d6000602084013e610120565b606091505b50915091506101318683838761013b565b9695505050505050565b606083156101af5782516000036101a8576001600160a01b0385163b6101a85760405162461bcd60e51b815260206004820152601d60248201527f416464726573733a2063616c6c20746f206e6f6e2d636f6e747261637400000060448201526064015b60405180910390fd5b50816101b9565b6101b983836101c1565b949350505050565b8151156101d15781518083602001fd5b8060405162461bcd60e51b815260040161019f919061022b565b60005b838110156102065781810151838201526020016101ee565b50506000910152565b600082516102218184602087016101eb565b9190910192915050565b602081526000825180602084015261024a8160408501602087016101eb565b601f01601f1916919091016040019291505056fe416464726573733a206c6f772d6c6576656c2064656c65676174652063616c6c206661696c6564a26469706673582212208509ca81bcc5f788c3acfeb819dcd4fa1cb3e48ebb3a4e1e00e59158ca584ce364736f6c63430008110033416464726573733a206c6f772d6c6576656c2064656c65676174652063616c6c206661696c6564360894a13ba1a3210667c828492db98dca3e2076cc3735a920a3ca505d382bbc416464726573733a206c6f772d6c6576656c2064656c65676174652063616c6c206661696c6564a264697066735822122016696cfa3ee2380442d3df144f963b09862b3eaa6e6e46904eda9826a1dd88f364736f6c63430008110033",
    "linkReferences": {}
  },
  "methodIdentifiers": {
    "GATE_TOKEN_ADDRESS()": "ed267116",
    "SPACE_IMPLEMENTATION_ADDRESS()": "f21cd401",
    "SPACE_TOKEN_ADDRESS()": "683c72b6",
    "TOKEN_IMPLEMENTATION_ADDRESS()": "cfc27037",
    "USER_IMPLEMENTATION_ADDRESS()": "08bc0b4b",
    "addOwnerPermissions(string[])": "be8b5967",
    "createSpace(string,string,string,string[],(string,string[],(address,uint256,bool,uint256[])[],address[]))": "ad78faf3",
    "gatingEnabled()": "c45f396b",
    "getOwnerPermissions()": "df2cd9fe",
    "getSpaceAddressByNetworkId(string)": "96dc21e4",
    "getTokenIdByNetworkId(string)": "8a9ef426",
    "initialize(address,address,address,address,address,string[])": "6e9ea7ca",
    "onERC721Received(address,address,uint256,bytes)": "150b7a02",
    "owner()": "8da5cb5b",
    "ownerPermissions(uint256)": "b28032f9",
    "paused()": "5c975abb",
    "proxiableUUID()": "52d1902d",
    "renounceOwnership()": "715018a6",
    "setGatingEnabled(bool)": "4689cd04",
    "setPaused(bool)": "16c38b3c",
    "spaceByHash(bytes32)": "3312540a",
    "tokenByHash(bytes32)": "f3aba305",
    "transferOwnership(address)": "f2fde38b",
    "updateImplementations(address,address,address,address)": "9ad622b7",
    "upgradeTo(address)": "3659cfe6",
    "upgradeToAndCall(address,bytes)": "4f1ef286"
  },
  "id": 13
}