{
  "abi": [
    {
      "inputs": [],
      "stateMutability": "nonpayable",
      "type": "constructor"
    },
    {
      "inputs": [],
      "name": "AddRoleFailed",
      "type": "error"
    },
    {
      "inputs": [],
      "name": "ChannelAlreadyRegistered",
      "type": "error"
    },
    {
      "inputs": [],
      "name": "ChannelDoesNotExist",
      "type": "error"
    },
    {
      "inputs": [],
      "name": "EntitlementAlreadyExists",
      "type": "error"
    },
    {
      "inputs": [],
      "name": "EntitlementAlreadyWhitelisted",
      "type": "error"
    },
    {
      "inputs": [],
      "name": "EntitlementModuleNotSupported",
      "type": "error"
    },
    {
      "inputs": [],
      "name": "EntitlementNotWhitelisted",
      "type": "error"
    },
    {
      "inputs": [],
      "name": "InvalidParameters",
      "type": "error"
    },
    {
      "inputs": [],
      "name": "MissingOwnerPermission",
      "type": "error"
    },
    {
      "inputs": [],
      "name": "NotAllowed",
      "type": "error"
    },
    {
      "inputs": [],
      "name": "PermissionAlreadyExists",
      "type": "error"
    },
    {
      "inputs": [],
      "name": "RoleDoesNotExist",
      "type": "error"
    },
    {
      "inputs": [],
      "name": "RoleIsAssignedToEntitlement",
      "type": "error"
    },
    {
      "anonymous": false,
      "inputs": [
        {
          "indexed": false,
          "internalType": "address",
          "name": "previousAdmin",
          "type": "address"
        },
        {
          "indexed": false,
          "internalType": "address",
          "name": "newAdmin",
          "type": "address"
        }
      ],
      "name": "AdminChanged",
      "type": "event"
    },
    {
      "anonymous": false,
      "inputs": [
        {
          "indexed": true,
          "internalType": "address",
          "name": "beacon",
          "type": "address"
        }
      ],
      "name": "BeaconUpgraded",
      "type": "event"
    },
    {
      "anonymous": false,
      "inputs": [
        {
          "indexed": false,
          "internalType": "uint8",
          "name": "version",
          "type": "uint8"
        }
      ],
      "name": "Initialized",
      "type": "event"
    },
    {
      "anonymous": false,
      "inputs": [
        {
          "indexed": true,
          "internalType": "address",
          "name": "implementation",
          "type": "address"
        }
      ],
      "name": "Upgraded",
      "type": "event"
    },
    {
      "inputs": [
        {
          "internalType": "uint256",
          "name": "_roleId",
          "type": "uint256"
        },
        {
          "internalType": "string",
          "name": "_permission",
          "type": "string"
        }
      ],
      "name": "addPermissionToRole",
      "outputs": [],
      "stateMutability": "nonpayable",
      "type": "function"
    },
    {
      "inputs": [
        {
          "internalType": "string",
          "name": "_channelId",
          "type": "string"
        },
        {
          "internalType": "address",
          "name": "_entitlement",
          "type": "address"
        },
        {
          "internalType": "uint256",
          "name": "_roleId",
          "type": "uint256"
        }
      ],
      "name": "addRoleToChannel",
      "outputs": [],
      "stateMutability": "nonpayable",
      "type": "function"
    },
    {
      "inputs": [
        {
          "internalType": "uint256",
          "name": "_roleId",
          "type": "uint256"
        },
        {
          "components": [
            {
              "internalType": "address",
              "name": "module",
              "type": "address"
            },
            {
              "internalType": "bytes",
              "name": "data",
              "type": "bytes"
            }
          ],
          "internalType": "struct DataTypes.Entitlement",
          "name": "_entitlement",
          "type": "tuple"
        }
      ],
      "name": "addRoleToEntitlement",
      "outputs": [],
      "stateMutability": "nonpayable",
      "type": "function"
    },
    {
      "inputs": [
        {
          "internalType": "uint256",
          "name": "",
          "type": "uint256"
        }
      ],
      "name": "channels",
      "outputs": [
        {
          "internalType": "bytes32",
          "name": "",
          "type": "bytes32"
        }
      ],
      "stateMutability": "view",
      "type": "function"
    },
    {
      "inputs": [
        {
          "internalType": "bytes32",
          "name": "",
          "type": "bytes32"
        }
      ],
      "name": "channelsByHash",
      "outputs": [
        {
          "internalType": "string",
          "name": "name",
          "type": "string"
        },
        {
          "internalType": "bytes32",
          "name": "channelId",
          "type": "bytes32"
        },
        {
          "internalType": "uint256",
          "name": "createdAt",
          "type": "uint256"
        },
        {
          "internalType": "bool",
          "name": "disabled",
          "type": "bool"
        }
      ],
      "stateMutability": "view",
      "type": "function"
    },
    {
      "inputs": [
        {
          "internalType": "string",
          "name": "channelName",
          "type": "string"
        },
        {
          "internalType": "string",
          "name": "channelNetworkId",
          "type": "string"
        },
        {
          "internalType": "uint256[]",
          "name": "roleIds",
          "type": "uint256[]"
        }
      ],
      "name": "createChannel",
      "outputs": [
        {
          "internalType": "bytes32",
          "name": "",
          "type": "bytes32"
        }
      ],
      "stateMutability": "nonpayable",
      "type": "function"
    },
    {
      "inputs": [
        {
          "internalType": "string",
          "name": "_roleName",
          "type": "string"
        },
        {
          "internalType": "string[]",
          "name": "_permissions",
          "type": "string[]"
        },
        {
          "components": [
            {
              "internalType": "address",
              "name": "module",
              "type": "address"
            },
            {
              "internalType": "bytes",
              "name": "data",
              "type": "bytes"
            }
          ],
          "internalType": "struct DataTypes.Entitlement[]",
          "name": "_entitlements",
          "type": "tuple[]"
        }
      ],
      "name": "createRole",
      "outputs": [
        {
          "internalType": "uint256",
          "name": "",
          "type": "uint256"
        }
      ],
      "stateMutability": "nonpayable",
      "type": "function"
    },
    {
      "inputs": [
        {
          "internalType": "address",
          "name": "",
          "type": "address"
        }
      ],
      "name": "defaultEntitlements",
      "outputs": [
        {
          "internalType": "bool",
          "name": "",
          "type": "bool"
        }
      ],
      "stateMutability": "view",
      "type": "function"
    },
    {
      "inputs": [],
      "name": "disabled",
      "outputs": [
        {
          "internalType": "bool",
          "name": "",
          "type": "bool"
        }
      ],
      "stateMutability": "view",
      "type": "function"
    },
    {
      "inputs": [
        {
          "internalType": "uint256",
          "name": "",
          "type": "uint256"
        }
      ],
      "name": "entitlements",
      "outputs": [
        {
          "internalType": "address",
          "name": "",
          "type": "address"
        }
      ],
      "stateMutability": "view",
      "type": "function"
    },
    {
      "inputs": [
        {
          "internalType": "bytes32",
          "name": "_channelHash",
          "type": "bytes32"
        }
      ],
      "name": "getChannelByHash",
      "outputs": [
        {
          "components": [
            {
              "internalType": "string",
              "name": "name",
              "type": "string"
            },
            {
              "internalType": "bytes32",
              "name": "channelId",
              "type": "bytes32"
            },
            {
              "internalType": "uint256",
              "name": "createdAt",
              "type": "uint256"
            },
            {
              "internalType": "bool",
              "name": "disabled",
              "type": "bool"
            }
          ],
          "internalType": "struct DataTypes.Channel",
          "name": "",
          "type": "tuple"
        }
      ],
      "stateMutability": "view",
      "type": "function"
    },
    {
      "inputs": [
        {
          "internalType": "string",
          "name": "_moduleType",
          "type": "string"
        }
      ],
      "name": "getEntitlementByModuleType",
      "outputs": [
        {
          "internalType": "address",
          "name": "",
          "type": "address"
        }
      ],
      "stateMutability": "view",
      "type": "function"
    },
    {
      "inputs": [
        {
          "internalType": "uint256",
          "name": "_roleId",
          "type": "uint256"
        }
      ],
      "name": "getEntitlementIdsByRoleId",
      "outputs": [
        {
          "internalType": "bytes32[]",
          "name": "",
          "type": "bytes32[]"
        }
      ],
      "stateMutability": "view",
      "type": "function"
    },
    {
      "inputs": [],
      "name": "getEntitlements",
      "outputs": [
        {
          "internalType": "address[]",
          "name": "",
          "type": "address[]"
        }
      ],
      "stateMutability": "view",
      "type": "function"
    },
    {
      "inputs": [
        {
          "internalType": "uint256",
          "name": "_roleId",
          "type": "uint256"
        }
      ],
      "name": "getPermissionsByRoleId",
      "outputs": [
        {
          "internalType": "bytes32[]",
          "name": "",
          "type": "bytes32[]"
        }
      ],
      "stateMutability": "view",
      "type": "function"
    },
    {
      "inputs": [
        {
          "internalType": "uint256",
          "name": "_roleId",
          "type": "uint256"
        }
      ],
      "name": "getRoleById",
      "outputs": [
        {
          "components": [
            {
              "internalType": "uint256",
              "name": "roleId",
              "type": "uint256"
            },
            {
              "internalType": "string",
              "name": "name",
              "type": "string"
            }
          ],
          "internalType": "struct DataTypes.Role",
          "name": "",
          "type": "tuple"
        }
      ],
      "stateMutability": "view",
      "type": "function"
    },
    {
      "inputs": [],
      "name": "getRoles",
      "outputs": [
        {
          "components": [
            {
              "internalType": "uint256",
              "name": "roleId",
              "type": "uint256"
            },
            {
              "internalType": "string",
              "name": "name",
              "type": "string"
            }
          ],
          "internalType": "struct DataTypes.Role[]",
          "name": "",
          "type": "tuple[]"
        }
      ],
      "stateMutability": "view",
      "type": "function"
    },
    {
      "inputs": [
        {
          "internalType": "address",
          "name": "",
          "type": "address"
        }
      ],
      "name": "hasEntitlement",
      "outputs": [
        {
          "internalType": "bool",
          "name": "",
          "type": "bool"
        }
      ],
      "stateMutability": "view",
      "type": "function"
    },
    {
      "inputs": [
        {
          "internalType": "string",
          "name": "_name",
          "type": "string"
        },
        {
          "internalType": "string",
          "name": "_networkId",
          "type": "string"
        },
        {
          "internalType": "address[]",
          "name": "_entitlements",
          "type": "address[]"
        },
        {
          "internalType": "address",
          "name": "_token",
          "type": "address"
        },
        {
          "internalType": "uint256",
          "name": "_tokenId",
          "type": "uint256"
        }
      ],
      "name": "initialize",
      "outputs": [],
      "stateMutability": "nonpayable",
      "type": "function"
    },
    {
      "inputs": [
        {
          "internalType": "string",
          "name": "_channelId",
          "type": "string"
        },
        {
          "internalType": "address",
          "name": "_user",
          "type": "address"
        },
        {
          "internalType": "string",
          "name": "_permission",
          "type": "string"
        }
      ],
      "name": "isEntitledToChannel",
      "outputs": [
        {
          "internalType": "bool",
          "name": "_entitled",
          "type": "bool"
        }
      ],
      "stateMutability": "view",
      "type": "function"
    },
    {
      "inputs": [
        {
          "internalType": "address",
          "name": "_user",
          "type": "address"
        },
        {
          "internalType": "string",
          "name": "_permission",
          "type": "string"
        }
      ],
      "name": "isEntitledToSpace",
      "outputs": [
        {
          "internalType": "bool",
          "name": "_entitled",
          "type": "bool"
        }
      ],
      "stateMutability": "view",
      "type": "function"
    },
    {
      "inputs": [
        {
          "internalType": "bytes[]",
          "name": "data",
          "type": "bytes[]"
        }
      ],
      "name": "multicall",
      "outputs": [
        {
          "internalType": "bytes[]",
          "name": "results",
          "type": "bytes[]"
        }
      ],
      "stateMutability": "nonpayable",
      "type": "function"
    },
    {
      "inputs": [],
      "name": "name",
      "outputs": [
        {
          "internalType": "string",
          "name": "",
          "type": "string"
        }
      ],
      "stateMutability": "view",
      "type": "function"
    },
    {
      "inputs": [],
      "name": "networkId",
      "outputs": [
        {
          "internalType": "string",
          "name": "",
          "type": "string"
        }
      ],
      "stateMutability": "view",
      "type": "function"
    },
    {
      "inputs": [],
      "name": "owner",
      "outputs": [
        {
          "internalType": "address",
          "name": "",
          "type": "address"
        }
      ],
      "stateMutability": "view",
      "type": "function"
    },
    {
      "inputs": [],
      "name": "ownerRoleId",
      "outputs": [
        {
          "internalType": "uint256",
          "name": "",
          "type": "uint256"
        }
      ],
      "stateMutability": "view",
      "type": "function"
    },
    {
      "inputs": [],
      "name": "proxiableUUID",
      "outputs": [
        {
          "internalType": "bytes32",
          "name": "",
          "type": "bytes32"
        }
      ],
      "stateMutability": "view",
      "type": "function"
    },
    {
      "inputs": [
        {
          "internalType": "uint256",
          "name": "_roleId",
          "type": "uint256"
        },
        {
          "internalType": "string",
          "name": "_permission",
          "type": "string"
        }
      ],
      "name": "removePermissionFromRole",
      "outputs": [],
      "stateMutability": "nonpayable",
      "type": "function"
    },
    {
      "inputs": [
        {
          "internalType": "uint256",
          "name": "_roleId",
          "type": "uint256"
        }
      ],
      "name": "removeRole",
      "outputs": [],
      "stateMutability": "nonpayable",
      "type": "function"
    },
    {
      "inputs": [
        {
          "internalType": "string",
          "name": "_channelId",
          "type": "string"
        },
        {
          "internalType": "address",
          "name": "_entitlement",
          "type": "address"
        },
        {
          "internalType": "uint256",
          "name": "_roleId",
          "type": "uint256"
        }
      ],
      "name": "removeRoleFromChannel",
      "outputs": [],
      "stateMutability": "nonpayable",
      "type": "function"
    },
    {
      "inputs": [
        {
          "internalType": "uint256",
          "name": "_roleId",
          "type": "uint256"
        },
        {
          "components": [
            {
              "internalType": "address",
              "name": "module",
              "type": "address"
            },
            {
              "internalType": "bytes",
              "name": "data",
              "type": "bytes"
            }
          ],
          "internalType": "struct DataTypes.Entitlement",
          "name": "_entitlement",
          "type": "tuple"
        }
      ],
      "name": "removeRoleFromEntitlement",
      "outputs": [],
      "stateMutability": "nonpayable",
      "type": "function"
    },
    {
      "inputs": [],
      "name": "roleCount",
      "outputs": [
        {
          "internalType": "uint256",
          "name": "",
          "type": "uint256"
        }
      ],
      "stateMutability": "view",
      "type": "function"
    },
    {
      "inputs": [
        {
          "internalType": "uint256",
          "name": "",
          "type": "uint256"
        }
      ],
      "name": "rolesById",
      "outputs": [
        {
          "internalType": "uint256",
          "name": "roleId",
          "type": "uint256"
        },
        {
          "internalType": "string",
          "name": "name",
          "type": "string"
        }
      ],
      "stateMutability": "view",
      "type": "function"
    },
    {
      "inputs": [
        {
          "internalType": "string",
          "name": "_channelId",
          "type": "string"
        },
        {
          "internalType": "bool",
          "name": "_disabled",
          "type": "bool"
        }
      ],
      "name": "setChannelAccess",
      "outputs": [],
      "stateMutability": "nonpayable",
      "type": "function"
    },
    {
      "inputs": [
        {
          "internalType": "address",
          "name": "_entitlement",
          "type": "address"
        },
        {
          "internalType": "bool",
          "name": "_whitelist",
          "type": "bool"
        }
      ],
      "name": "setEntitlement",
      "outputs": [],
      "stateMutability": "nonpayable",
      "type": "function"
    },
    {
      "inputs": [
        {
          "internalType": "uint256",
          "name": "_roleId",
          "type": "uint256"
        }
      ],
      "name": "setOwnerRoleId",
      "outputs": [],
      "stateMutability": "nonpayable",
      "type": "function"
    },
    {
      "inputs": [
        {
          "internalType": "bool",
          "name": "_disabled",
          "type": "bool"
        }
      ],
      "name": "setSpaceAccess",
      "outputs": [],
      "stateMutability": "nonpayable",
      "type": "function"
    },
    {
      "inputs": [],
      "name": "token",
      "outputs": [
        {
          "internalType": "address",
          "name": "",
          "type": "address"
        }
      ],
      "stateMutability": "view",
      "type": "function"
    },
    {
      "inputs": [],
      "name": "tokenId",
      "outputs": [
        {
          "internalType": "uint256",
          "name": "",
          "type": "uint256"
        }
      ],
      "stateMutability": "view",
      "type": "function"
    },
    {
      "inputs": [
        {
          "internalType": "string",
          "name": "_channelId",
          "type": "string"
        },
        {
          "internalType": "string",
          "name": "_channelName",
          "type": "string"
        }
      ],
      "name": "updateChannel",
      "outputs": [],
      "stateMutability": "nonpayable",
      "type": "function"
    },
    {
      "inputs": [
        {
          "internalType": "uint256",
          "name": "_roleId",
          "type": "uint256"
        },
        {
          "internalType": "string",
          "name": "_roleName",
          "type": "string"
        }
      ],
      "name": "updateRole",
      "outputs": [],
      "stateMutability": "nonpayable",
      "type": "function"
    },
    {
      "inputs": [
        {
          "internalType": "address",
          "name": "_entitlement",
          "type": "address"
        },
        {
          "internalType": "address",
          "name": "_newEntitlement",
          "type": "address"
        }
      ],
      "name": "upgradeEntitlement",
      "outputs": [],
      "stateMutability": "nonpayable",
      "type": "function"
    },
    {
      "inputs": [
        {
          "internalType": "address",
          "name": "newImplementation",
          "type": "address"
        }
      ],
      "name": "upgradeTo",
      "outputs": [],
      "stateMutability": "nonpayable",
      "type": "function"
    },
    {
      "inputs": [
        {
          "internalType": "address",
          "name": "newImplementation",
          "type": "address"
        },
        {
          "internalType": "bytes",
          "name": "data",
          "type": "bytes"
        }
      ],
      "name": "upgradeToAndCall",
      "outputs": [],
      "stateMutability": "payable",
      "type": "function"
    }
  ],
  "bytecode": {
    "object": "0x60a0604052306080523480156200001557600080fd5b506200002062000026565b620000e7565b600054610100900460ff1615620000935760405162461bcd60e51b815260206004820152602760248201527f496e697469616c697a61626c653a20636f6e747261637420697320696e697469604482015266616c697a696e6760c81b606482015260840160405180910390fd5b60005460ff90811614620000e5576000805460ff191660ff9081179091556040519081527f7f26b83ff96e1f2b6a682f133852f6798a09c465da95921460cefb38474024989060200160405180910390a15b565b60805161497e6200011f60003960008181610d3d01528181610d8601528181611065015281816110a5015261156a015261497e6000f3fe6080604052600436106102675760003560e01c8063870b946411610144578063dba81864116100b6578063f28f9b561161007a578063f28f9b5614610783578063f3b96ab4146107a3578063f3ce6a5b146107c3578063f740bb6b146107e3578063fa6433c514610803578063fc0c546a1461083357600080fd5b8063dba81864146106e5578063ddf9635814610705578063e5894ef41461071b578063e5949b5d14610749578063ee0708051461076957600080fd5b8063ac9650d811610108578063ac9650d814610622578063b42642331461064f578063ba201ba81461066f578063baaf3d571461068f578063cea632bc146106af578063d1a6a961146106cf57600080fd5b8063870b9464146105805780638da5cb5b146105b85780638fcd793d146105cd5780639025e64c146105ed578063926918211461060257600080fd5b80634999ab16116101dd5780635de151b8116101a15780635de151b81461049457806366fb345c146104b4578063703511f8146104d45780637106139814610501578063784c872b146105235780637f8d06d01461055057600080fd5b80634999ab161461040c5780634f1ef2861461042c578063519607f21461043f57806351f83cea1461045f57806352d1902d1461047f57600080fd5b806332e704cc1161022f57806332e704cc1461033d57806334a1dd261461035d5780633659cfe61461037d57806342486e491461039d578063446dc22e146103ca578063487dc38c146103ea57600080fd5b806306fdde031461026c578063129ab3c81461029757806317d70f7c146102c75780631dea616a146102eb57806320759f9e1461030d575b600080fd5b34801561027857600080fd5b50610281610853565b60405161028e91906137f5565b60405180910390f35b3480156102a357600080fd5b506102b76102b2366004613808565b6108e1565b60405161028e9493929190613821565b3480156102d357600080fd5b506102dd609c5481565b60405190815260200161028e565b3480156102f757600080fd5b5061030b6103063660046138bf565b610996565b005b34801561031957600080fd5b5061032d61032836600461391b565b610ac7565b604051901515815260200161028e565b34801561034957600080fd5b5061030b610358366004613a32565b610b3d565b34801561036957600080fd5b5061030b610378366004613a78565b610c50565b34801561038957600080fd5b5061030b610398366004613ae0565b610d33565b3480156103a957600080fd5b506103bd6103b8366004613808565b610e1b565b60405161028e9190613afd565b3480156103d657600080fd5b5061030b6103e5366004613b4f565b610e7d565b3480156103f657600080fd5b506103ff610eb5565b60405161028e9190613b6c565b34801561041857600080fd5b5061030b610427366004613808565b610f17565b61030b61043a366004613bad565b61105b565b34801561044b57600080fd5b5061030b61045a366004613be6565b61112b565b34801561046b57600080fd5b506102dd61047a366004613c42565b611246565b34801561048b57600080fd5b506102dd61155d565b3480156104a057600080fd5b5061030b6104af366004613d1f565b611610565b3480156104c057600080fd5b5061030b6104cf366004613a32565b6116d6565b3480156104e057600080fd5b506104f46104ef366004613808565b611851565b60405161028e9190613d75565b34801561050d57600080fd5b50610516611949565b60405161028e9190613de4565b34801561052f57600080fd5b5061054361053e366004613808565b611ab7565b60405161028e9190613e46565b34801561055c57600080fd5b5061032d61056b366004613ae0565b609d6020526000908152604090205460ff1681565b34801561058c57600080fd5b506105a061059b366004613e59565b611b8d565b6040516001600160a01b03909116815260200161028e565b3480156105c457600080fd5b506105a0611c76565b3480156105d957600080fd5b506102dd6105e8366004613f90565b611ced565b3480156105f957600080fd5b50610281611f97565b34801561060e57600080fd5b5061030b61061d366004613808565b611fa4565b34801561062e57600080fd5b5061064261063d36600461407c565b6120db565b60405161028e91906140f0565b34801561065b57600080fd5b506103bd61066a366004613808565b6121f2565b34801561067b57600080fd5b5061030b61068a366004614145565b612252565b34801561069b57600080fd5b5061030b6106aa3660046138bf565b61232b565b3480156106bb57600080fd5b5061032d6106ca366004614181565b612424565b3480156106db57600080fd5b506102dd609a5481565b3480156106f157600080fd5b5061030b610700366004614205565b6124c7565b34801561071157600080fd5b506102dd60a15481565b34801561072757600080fd5b5061073b610736366004613808565b612729565b60405161028e929190614247565b34801561075557600080fd5b506102dd610764366004613808565b6127ce565b34801561077557600080fd5b5060995461032d9060ff1681565b34801561078f57600080fd5b506105a061079e366004613808565b6127ef565b3480156107af57600080fd5b5061030b6107be366004614260565b612819565b3480156107cf57600080fd5b5061030b6107de36600461428e565b6128e9565b3480156107ef57600080fd5b5061030b6107fe366004613a32565b612ace565b34801561080f57600080fd5b5061032d61081e366004613ae0565b609e6020526000908152604090205460ff1681565b34801561083f57600080fd5b50609b546105a0906001600160a01b031681565b609780546108609061438d565b80601f016020809104026020016040519081016040528092919081815260200182805461088c9061438d565b80156108d95780601f106108ae576101008083540402835291602001916108d9565b820191906000526020600020905b8154815290600101906020018083116108bc57829003601f168201915b505050505081565b60a4602052600090815260409020805481906108fc9061438d565b80601f01602080910402602001604051908101604052809291908181526020018280546109289061438d565b80156109755780601f1061094a57610100808354040283529160200191610975565b820191906000526020600020905b81548152906001019060200180831161095857829003601f168201915b50505050600183015460028401546003909401549293909290915060ff1684565b6109f884848080601f01602080910402602001604051908101604052809392919081815260200183838082843760009201919091525050604080518082019091526016815260008051602061490283398151915260208201529150612cb59050565b6001600160a01b0382166000908152609d602052604090205460ff16610a315760405163c1ef36f360e01b815260040160405180910390fd5b600081815260a260205260408120549003610a5f5760405163b810dc5d60e01b815260040160405180910390fd5b60405163c513be7760e01b81526001600160a01b0383169063c513be7790610a8f908790879086906004016143ea565b600060405180830381600087803b158015610aa957600080fd5b505af1158015610abd573d6000803e3d6000fd5b5050505050505050565b6000805b60a054811015610b3557610b1960405180602001604052806000815250868686604051602001610afc92919061440e565b604051602081830303815290604052610b149061441e565b612d09565b15610b2357600191505b80610b2d81614458565b915050610acb565b509392505050565b610b7960405180602001604052806000815250604051806040016040528060168152602001600080516020614902833981519152815250612cb5565b609a548203610b9b57604051631eb49d6d60e11b815260040160405180910390fd5b600082815260a260205260408120549003610bc95760405163b810dc5d60e01b815260040160405180910390fd5b8051600003610beb57604051630e52390960e41b815260040160405180910390fd5b600082815260a260205260409020600101610c0682826144b7565b5081336001600160a01b03167ff3c55faf0b13ffa681c984baddbb8ef7638e514188ea19bd6461d7f87b9c7953836098604051610c449291906145f3565b60405180910390a35050565b610c92604051806020016040528060008152506040518060400160405280601181526020017041646452656d6f76654368616e6e656c7360781b815250612cb5565b60008383604051602001610ca792919061440e565b60408051601f198184030181529181528151602092830120600081815260a4909352908220600101549092509003610cf257604051636ddd9da960e01b815260040160405180910390fd5b8151600003610d1457604051631eb49d6d60e11b815260040160405180910390fd5b600081815260a460205260409020610d2c83826144b7565b5050505050565b6001600160a01b037f0000000000000000000000000000000000000000000000000000000000000000163003610d845760405162461bcd60e51b8152600401610d7b90614618565b60405180910390fd5b7f00000000000000000000000000000000000000000000000000000000000000006001600160a01b0316610dcd6000805160206148e2833981519152546001600160a01b031690565b6001600160a01b031614610df35760405162461bcd60e51b8152600401610d7b90614664565b610dfc81612dc2565b60408051600080825260208201909252610e1891839190612df8565b50565b6000818152609f6020908152604091829020805483518184028101840190945280845260609392830182828015610e7157602002820191906000526020600020905b815481526020019060010190808311610e5d575b50505050509050919050565b610e85612f68565b610ea257604051631eb49d6d60e11b815260040160405180910390fd5b6099805460ff1916911515919091179055565b606060a0805480602002602001604051908101604052809291908181526020018280548015610f0d57602002820191906000526020600020905b81546001600160a01b03168152600190910190602001808311610eef575b5050505050905090565b610f1f612f68565b610f3c57604051631eb49d6d60e11b815260040160405180910390fd5b609a5415610f5d57604051631eb49d6d60e11b815260040160405180910390fd5b600081815260a260205260408120549003610f8b5760405163b810dc5d60e01b815260040160405180910390fd5b6000805b600083815260a36020526040902054811015611036576040518060400160405280600581526020016427bbb732b960d91b815250604051602001610fd391906146b0565b604051602081830303815290604052610feb9061441e565b600084815260a36020526040902080548390811061100b5761100b6146cc565b9060005260206000200154036110245760019150611036565b8061102e81614458565b915050610f8f565b508061105557604051633e74bd6360e21b815260040160405180910390fd5b50609a55565b6001600160a01b037f00000000000000000000000000000000000000000000000000000000000000001630036110a35760405162461bcd60e51b8152600401610d7b90614618565b7f00000000000000000000000000000000000000000000000000000000000000006001600160a01b03166110ec6000805160206148e2833981519152546001600160a01b031690565b6001600160a01b0316146111125760405162461bcd60e51b8152600401610d7b90614664565b61111b82612dc2565b61112782826001612df8565b5050565b611161604051806020016040528060008152506040518060400160405280600581526020016427bbb732b960d91b815250612cb5565b6001600160a01b038216158061117e57506001600160a01b038116155b1561119c57604051630e52390960e41b815260040160405180910390fd5b6001600160a01b0382166000908152609d602052604090205460ff166111d55760405163c1ef36f360e01b815260040160405180910390fd5b604051631b2ce7f360e11b81526001600160a01b038281166004830152831690633659cfe690602401600060405180830381600087803b15801561121857600080fd5b505af1925050508015611229575060015b61112757604051630e52390960e41b815260040160405180910390fd5b600061128a604051806020016040528060008152506040518060400160405280601181526020017041646452656d6f76654368616e6e656c7360781b815250612cb5565b60008360405160200161129d91906146b0565b60408051601f198184030181529181528151602092830120600081815260a4909352912060010154909150156112e657604051630139324b60e41b815260040160405180910390fd5b604080516080810182528681526020808201849052428284015260006060830181905284815260a4909152919091208151819061132390826144b7565b506020820151600182810191909155604083015160028301556060909201516003909101805460ff191691151591909117905560a58054918201815560009081527fb29a2b3b6f2ff1b765777a231725941da5072cc4fcc30ac4a2ce09706e8ddeff9091018290555b60a05481101561155257600060a082815481106113ab576113ab6146cc565b600091825260209091200154609a5460405163c513be7760e01b81526001600160a01b039092169250829163c513be77916113eb918a91906004016146e2565b600060405180830381600087803b15801561140557600080fd5b505af1158015611419573d6000803e3d6000fd5b5050505060005b855181101561153d57609a5486828151811061143e5761143e6146cc565b6020026020010151031561152b5760a26000878381518110611462576114626146cc565b602002602001015181526020019081526020016000206000015460000361149c5760405163b810dc5d60e01b815260040160405180910390fd5b816001600160a01b031663c513be77888884815181106114be576114be6146cc565b60200260200101516040518363ffffffff1660e01b81526004016114e39291906146e2565b600060405180830381600087803b1580156114fd57600080fd5b505af192505050801561150e575060015b61152b5760405163d9afe50760e01b815260040160405180910390fd5b8061153581614458565b915050611420565b5050808061154a90614458565b91505061138c565b5090505b9392505050565b6000306001600160a01b037f000000000000000000000000000000000000000000000000000000000000000016146115fd5760405162461bcd60e51b815260206004820152603860248201527f555550535570677261646561626c653a206d757374206e6f742062652063616c60448201527f6c6564207468726f7567682064656c656761746563616c6c00000000000000006064820152608401610d7b565b506000805160206148e283398151915290565b611652604051806020016040528060008152506040518060400160405280601181526020017041646452656d6f76654368616e6e656c7360781b815250612cb5565b6000838360405160200161166792919061440e565b60408051601f198184030181529181528151602092830120600081815260a49093529082206001015490925090036116b257604051636ddd9da960e01b815260040160405180910390fd5b600090815260a460205260409020600301805460ff19169115159190911790555050565b61171260405180602001604052806000815250604051806040016040528060168152602001600080516020614902833981519152815250612cb5565b611739816040518060400160405280600581526020016427bbb732b960d91b815250612fef565b1561175757604051631eb49d6d60e11b815260040160405180910390fd5b600082815260a2602052604081205490036117855760405163b810dc5d60e01b815260040160405180910390fd5b60008160405160200161179891906146b0565b6040516020818303038152906040526117b09061441e565b905060005b600084815260a3602052604090205481101561182957600084815260a3602052604090208054839190839081106117ee576117ee6146cc565b90600052602060002001540361181757604051636571d65f60e01b815260040160405180910390fd5b8061182181614458565b9150506117b5565b50600092835260a3602090815260408420805460018101825590855293209092019190915550565b604080516080810182526060808252600060208301819052928201839052810191909152600082815260a460205260409081902081516080810190925280548290829061189d9061438d565b80601f01602080910402602001604051908101604052809291908181526020018280546118c99061438d565b80156119165780601f106118eb57610100808354040283529160200191611916565b820191906000526020600020905b8154815290600101906020018083116118f957829003601f168201915b5050509183525050600182015460208201526002820154604082015260039091015460ff16151560609091015292915050565b6060600060a1546001600160401b038111156119675761196761396f565b6040519080825280602002602001820160405280156119ad57816020015b6040805180820190915260008152606060208201528152602001906001900390816119855790505b50905060005b60a154811015611ab15760a260006119cc836001614704565b8152602001908152602001600020604051806040016040529081600082015481526020016001820180546119ff9061438d565b80601f0160208091040260200160405190810160405280929190818152602001828054611a2b9061438d565b8015611a785780601f10611a4d57610100808354040283529160200191611a78565b820191906000526020600020905b815481529060010190602001808311611a5b57829003601f168201915b505050505081525050828281518110611a9357611a936146cc565b60200260200101819052508080611aa990614458565b9150506119b3565b50919050565b60408051808201909152600081526060602082015260a2600083815260200190815260200160002060405180604001604052908160008201548152602001600182018054611b049061438d565b80601f0160208091040260200160405190810160405280929190818152602001828054611b309061438d565b8015611b7d5780601f10611b5257610100808354040283529160200191611b7d565b820191906000526020600020905b815481529060010190602001808311611b6057829003601f168201915b5050505050815250509050919050565b60008060005b60a054811015611c6f57611c2d60a08281548110611bb357611bb36146cc565b600091825260208220015460408051636465e69f60e01b815290516001600160a01b0390921692636465e69f926004808401938290030181865afa158015611bff573d6000803e3d6000fd5b505050506040513d6000823e601f3d908101601f19168201604052611c279190810190614717565b85612fef565b15611c5d5760a08181548110611c4557611c456146cc565b6000918252602090912001546001600160a01b031691505b80611c6781614458565b915050611b93565b5092915050565b609b54609c546040516331a9108f60e11b815260048101919091526000916001600160a01b031690636352211e90602401602060405180830381865afa158015611cc4573d6000803e3d6000fd5b505050506040513d601f19601f82011682018060405250810190611ce89190614784565b905090565b6000611d2b60405180602001604052806000815250604051806040016040528060168152602001600080516020614902833981519152815250612cb5565b600060a160008154611d3c90614458565b91829055506040805180820182528281526020808201898152600085815260a2909252929020815181559151929350918291906001820190611d7e90826144b7565b5090505060005b8551811015611e6e57609a5415158015611dda5750611dda868281518110611daf57611daf6146cc565b60200260200101516040518060400160405280600581526020016427bbb732b960d91b815250612fef565b15611df857604051631eb49d6d60e11b815260040160405180910390fd5b6000868281518110611e0c57611e0c6146cc565b6020026020010151604051602001611e2491906146b0565b604051602081830303815290604052611e3c9061441e565b600085815260a36020908152604082208054600181018255908352912001555080611e6681614458565b915050611d85565b5060005b8451811015611f48576000858281518110611e8f57611e8f6146cc565b60200260200101516000015190506000868381518110611eb157611eb16146cc565b602002602001015160200151905060006001600160a01b0316826001600160a01b03161480611edf57508051155b15611eeb575050611f36565b6001600160a01b0382166000908152609d602052604081205460ff1615159003611f285760405163c1ef36f360e01b815260040160405180910390fd5b611f33858383613049565b50505b80611f4081614458565b915050611e72565b5081336001600160a01b03167f39772407c6dd2e83adbd292cdfa17a6817c9a7500e56cfe57b7a82d797f8d39b886098604051611f869291906145f3565b60405180910390a350949350505050565b609880546108609061438d565b611fe060405180602001604052806000815250604051806040016040528060168152602001600080516020614902833981519152815250612cb5565b609a54810361200257604051631eb49d6d60e11b815260040160405180910390fd5b600081815260a2602052604081205490036120305760405163b810dc5d60e01b815260040160405180910390fd5b6000818152609f60205260409020541561205d57604051633764405360e11b815260040160405180910390fd5b600081815260a2602052604081208181559061207c6001830182613738565b5050600081815260a36020526040812061209591613772565b80336001600160a01b03167f1d5667a301e36f2d5b1ee32b7f187b0adb46c706297242fa945d3fed1e7f8a1960986040516120d091906147a1565b60405180910390a350565b6060816001600160401b038111156120f5576120f561396f565b60405190808252806020026020018201604052801561212857816020015b60608152602001906001900390816121135790505b50905060005b82811015611c6f576000803086868581811061214c5761214c6146cc565b905060200281019061215e91906147b4565b60405161216c92919061440e565b600060405180830381855af49150503d80600081146121a7576040519150601f19603f3d011682016040523d82523d6000602084013e6121ac565b606091505b5091509150816121bf576121bf816131b9565b808484815181106121d2576121d26146cc565b6020026020010181905250505080806121ea90614458565b91505061212e565b600081815260a36020908152604091829020805483518184028101840190945280845260609392830182828015610e715760200282019190600052602060002090815481526020019060010190808311610e5d5750505050509050919050565b61228e60405180602001604052806000815250604051806040016040528060168152602001600080516020614902833981519152815250612cb5565b80516001600160a01b03166000908152609d602052604090205460ff166122c85760405163c1ef36f360e01b815260040160405180910390fd5b600082815260a2602052604081205490036122f65760405163b810dc5d60e01b815260040160405180910390fd5b609a54820361231857604051631eb49d6d60e11b815260040160405180910390fd5b6111278282600001518360200151613049565b61238d84848080601f01602080910402602001604051908101604052809392919081815260200183838082843760009201919091525050604080518082019091526016815260008051602061490283398151915260208201529150612cb59050565b6001600160a01b0382166000908152609d602052604090205460ff166123c65760405163c1ef36f360e01b815260040160405180910390fd5b600081815260a2602052604081205490036123f45760405163b810dc5d60e01b815260040160405180910390fd5b604051637997c1e760e11b81526001600160a01b0383169063f32f83ce90610a8f908790879086906004016143ea565b600084810361244657604051630e52390960e41b815260040160405180910390fd5b60005b60a0548110156124bd576124a187878080601f01602080910402602001604051908101604052809392919081815260200183838082843760009201919091525050604051899250610afc91508890889060200161440e565b156124ab57600191505b806124b581614458565b915050612449565b5095945050505050565b61250360405180602001604052806000815250604051806040016040528060168152602001600080516020614902833981519152815250612cb5565b609a54820361252557604051631eb49d6d60e11b815260040160405180910390fd5b609d60006125366020840184613ae0565b6001600160a01b0316815260208101919091526040016000205460ff166125705760405163c1ef36f360e01b815260040160405180910390fd5b600082815260a26020526040812054900361259e5760405163b810dc5d60e01b815260040160405180910390fd5b6000826125ae60208401846147b4565b6040516020016125c0939291906147fa565b60408051601f1981840301815291815281516020928301206000868152609f909352908220909250905b815481101561269e57818181548110612605576126056146cc565b9060005260206000200154830361268c578154829061262690600190614814565b81548110612636576126366146cc565b9060005260206000200154828281548110612653576126536146cc565b90600052602060002001819055508180548061267157612671614827565b6001900381819060005260206000200160009055905561269e565b8061269681614458565b9150506125ea565b506126ac6020840184613ae0565b6001600160a01b031663fa6d1adf856126c860208701876147b4565b6040518463ffffffff1660e01b81526004016126e69392919061483d565b6020604051808303816000875af1158015612705573d6000803e3d6000fd5b505050506040513d601f19601f82011682018060405250810190610d2c9190614857565b60a2602052600090815260409020805460018201805491929161274b9061438d565b80601f01602080910402602001604051908101604052809291908181526020018280546127779061438d565b80156127c45780601f10612799576101008083540402835291602001916127c4565b820191906000526020600020905b8154815290600101906020018083116127a757829003601f168201915b5050505050905082565b60a581815481106127de57600080fd5b600091825260209091200154905081565b60a081815481106127ff57600080fd5b6000918252602090912001546001600160a01b0316905081565b61284f604051806020016040528060008152506040518060400160405280600581526020016427bbb732b960d91b815250612cb5565b61285882613286565b80801561287d57506001600160a01b0382166000908152609d602052604090205460ff165b1561289b5760405163186abc9b60e01b815260040160405180910390fd5b801580156128c157506001600160a01b0382166000908152609e602052604090205460ff165b156128df57604051631eb49d6d60e11b815260040160405180910390fd5b6111278282613317565b600054610100900460ff16158080156129095750600054600160ff909116105b806129235750303b158015612923575060005460ff166001145b6129865760405162461bcd60e51b815260206004820152602e60248201527f496e697469616c697a61626c653a20636f6e747261637420697320616c72656160448201526d191e481a5b9a5d1a585b1a5e995960921b6064820152608401610d7b565b6000805460ff1916600117905580156129a9576000805461ff0019166101001790555b6129b1613498565b6129b9613498565b60976129c587826144b7565b5060986129d286826144b7565b50609b80546001600160a01b0319166001600160a01b038516179055609c82905560005b8451811015612a7f57612a23858281518110612a1457612a146146cc565b60200260200101516001613317565b6001609e6000878481518110612a3b57612a3b6146cc565b6020908102919091018101516001600160a01b03168252810191909152604001600020805460ff191691151591909117905580612a7781614458565b9150506129f6565b508015612ac6576000805461ff0019169055604051600181527f7f26b83ff96e1f2b6a682f133852f6798a09c465da95921460cefb38474024989060200160405180910390a15b505050505050565b612b0a60405180602001604052806000815250604051806040016040528060168152602001600080516020614902833981519152815250612cb5565b612b31816040518060400160405280600581526020016427bbb732b960d91b815250612fef565b15612b4f57604051631eb49d6d60e11b815260040160405180910390fd5b600082815260a260205260408120549003612b7d5760405163b810dc5d60e01b815260040160405180910390fd5b600081604051602001612b9091906146b0565b604051602081830303815290604052612ba89061441e565b905060005b600084815260a36020526040902054811015612caf57600084815260a360205260409020805483919083908110612be657612be66146cc565b906000526020600020015403612c9d57600084815260a3602052604090208054612c1290600190614814565b81548110612c2257612c226146cc565b906000526020600020015460a360008681526020019081526020016000208281548110612c5157612c516146cc565b906000526020600020018190555060a36000858152602001908152602001600020805480612c8157612c81614827565b6001900381819060005260206000200160009055905550505050565b80612ca781614458565b915050612bad565b50505050565b612cbd612f68565b80612ce7575060995460ff16158015612ce75750612ce7823383604051602001610afc91906146b0565b15612cf0575050565b604051631eb49d6d60e11b815260040160405180910390fd5b6000805b60a054811015610b355760a08181548110612d2a57612d2a6146cc565b60009182526020909120015460405162169d5560e31b81526001600160a01b039091169062b4eaa890612d6590889088908890600401614870565b602060405180830381865afa158015612d82573d6000803e3d6000fd5b505050506040513d601f19601f82011682018060405250810190612da6919061489e565b15612db057600191505b80612dba81614458565b915050612d0d565b610e18604051806020016040528060008152506040518060400160405280600581526020016427bbb732b960d91b815250612cb5565b7f4910fdfa16fed3260ed0e7147f7cc6da11a60208b5b9406d12a635614ffd91435460ff1615612e3057612e2b83613505565b505050565b826001600160a01b03166352d1902d6040518163ffffffff1660e01b8152600401602060405180830381865afa925050508015612e8a575060408051601f3d908101601f19168201909252612e8791810190614857565b60015b612eed5760405162461bcd60e51b815260206004820152602e60248201527f45524331393637557067726164653a206e657720696d706c656d656e7461746960448201526d6f6e206973206e6f74205555505360901b6064820152608401610d7b565b6000805160206148e28339815191528114612f5c5760405162461bcd60e51b815260206004820152602960248201527f45524331393637557067726164653a20756e737570706f727465642070726f786044820152681a58589b195555525160ba1b6064820152608401610d7b565b50612e2b8383836135a1565b600033609b54609c546040516331a9108f60e11b815260048101919091526001600160a01b039283169290911690636352211e90602401602060405180830381865afa158015612fbc573d6000803e3d6000fd5b505050506040513d601f19601f82011682018060405250810190612fe09190614784565b6001600160a01b031614905090565b60008160405160200161300291906146b0565b604051602081830303815290604052805190602001208360405160200161302991906146b0565b604051602081830303815290604052805190602001201490505b92915050565b6000838260405160200161305e9291906148bb565b60408051601f1981840301815282825280516020918201206000888152609f8352838120805480850287018501909552848652919550939290918301828280156130c757602002820191906000526020600020905b8154815260200190600101908083116130b3575b5050505050905060005b815181101561312557828282815181106130ed576130ed6146cc565b6020026020010151036131135760405163c5c9ad6760e01b815260040160405180910390fd5b8061311d81614458565b9150506130d1565b506000858152609f602090815260408083208054600181018255908452919092200183905551633be2f95d60e21b81526001600160a01b0385169063ef8be574906131769088908790600401614247565b6020604051808303816000875af1158015613195573d6000803e3d6000fd5b505050506040513d601f19601f82011682018060405250810190612ac69190614857565b6004815110156131fe5760405162461bcd60e51b815260206004820152601060248201526f1d5b9a185b991b1959081c995d995c9d60821b6044820152606401610d7b565b602081015163b1b7848f60e01b6001600160e01b031982160161327d57604080518082018252600e81526d70616e69636b65643a2030785f5f60901b602082018181526024860151600481811c600f908116603090810160081b9184160117909317909152925162461bcd60e51b8152919291610d7b918491016137f5565b81518060208401fd5b6040516301ffc9a760e01b815263e5e65adf60e01b60048201526001600160a01b038216906301ffc9a790602401602060405180830381865afa1580156132d1573d6000803e3d6000fd5b505050506040513d601f19601f820116820180604052508101906132f5919061489e565b1515600003610e1857604051636d9250f160e11b815260040160405180910390fd5b6001600160a01b0382166000908152609d60205260409020805460ff191682158015919091179091556133955760a080546001810182556000919091527f78fdc8d422c49ced035a9edf18d00d3c6a8d81df210f3e5e448e045e77b41e880180546001600160a01b0384166001600160a01b03199091161790555050565b60005b60a054811015612e2b5760a081815481106133b5576133b56146cc565b6000918252602090912001546001600160a01b03908116908416036134865760a080546133e490600190614814565b815481106133f4576133f46146cc565b60009182526020909120015460a080546001600160a01b039092169183908110613420576134206146cc565b9060005260206000200160006101000a8154816001600160a01b0302191690836001600160a01b0316021790555060a080548061345f5761345f614827565b600082815260209020810160001990810180546001600160a01b0319169055019055505050565b8061349081614458565b915050613398565b600054610100900460ff166135035760405162461bcd60e51b815260206004820152602b60248201527f496e697469616c697a61626c653a20636f6e7472616374206973206e6f74206960448201526a6e697469616c697a696e6760a81b6064820152608401610d7b565b565b6001600160a01b0381163b6135725760405162461bcd60e51b815260206004820152602d60248201527f455243313936373a206e657720696d706c656d656e746174696f6e206973206e60448201526c1bdd08184818dbdb9d1c9858dd609a1b6064820152608401610d7b565b6000805160206148e283398151915280546001600160a01b0319166001600160a01b0392909216919091179055565b6135aa836135c6565b6000825111806135b75750805b15612e2b57612caf8383613606565b6135cf81613505565b6040516001600160a01b038216907fbc7cd75a20ee27fd9adebab32041f755214dbc6bffa90cc0225b39da2e5c2d3b90600090a250565b60606001600160a01b0383163b61366e5760405162461bcd60e51b815260206004820152602660248201527f416464726573733a2064656c65676174652063616c6c20746f206e6f6e2d636f6044820152651b9d1c9858dd60d21b6064820152608401610d7b565b600080846001600160a01b03168460405161368991906146b0565b600060405180830381855af49150503d80600081146136c4576040519150601f19603f3d011682016040523d82523d6000602084013e6136c9565b606091505b50915091506136f18282604051806060016040528060278152602001614922602791396136fa565b95945050505050565b60608315613709575081611556565b611556838381511561371e5781518083602001fd5b8060405162461bcd60e51b8152600401610d7b91906137f5565b5080546137449061438d565b6000825580601f10613754575050565b601f016020900490600052602060002090810190610e18919061378c565b5080546000825590600052602060002090810190610e1891905b5b808211156137a1576000815560010161378d565b5090565b60005b838110156137c05781810151838201526020016137a8565b50506000910152565b600081518084526137e18160208601602086016137a5565b601f01601f19169290920160200192915050565b60208152600061155660208301846137c9565b60006020828403121561381a57600080fd5b5035919050565b60808152600061383460808301876137c9565b60208301959095525060408101929092521515606090910152919050565b60008083601f84011261386457600080fd5b5081356001600160401b0381111561387b57600080fd5b60208301915083602082850101111561389357600080fd5b9250929050565b6001600160a01b0381168114610e1857600080fd5b80356138ba8161389a565b919050565b600080600080606085870312156138d557600080fd5b84356001600160401b038111156138eb57600080fd5b6138f787828801613852565b909550935050602085013561390b8161389a565b9396929550929360400135925050565b60008060006040848603121561393057600080fd5b833561393b8161389a565b925060208401356001600160401b0381111561395657600080fd5b61396286828701613852565b9497909650939450505050565b634e487b7160e01b600052604160045260246000fd5b604051601f8201601f191681016001600160401b03811182821017156139ad576139ad61396f565b604052919050565b60006001600160401b038211156139ce576139ce61396f565b50601f01601f191660200190565b600082601f8301126139ed57600080fd5b8135613a006139fb826139b5565b613985565b818152846020838601011115613a1557600080fd5b816020850160208301376000918101602001919091529392505050565b60008060408385031215613a4557600080fd5b8235915060208301356001600160401b03811115613a6257600080fd5b613a6e858286016139dc565b9150509250929050565b600080600060408486031215613a8d57600080fd5b83356001600160401b0380821115613aa457600080fd5b613ab087838801613852565b90955093506020860135915080821115613ac957600080fd5b50613ad6868287016139dc565b9150509250925092565b600060208284031215613af257600080fd5b81356115568161389a565b6020808252825182820181905260009190848201906040850190845b81811015613b3557835183529284019291840191600101613b19565b50909695505050505050565b8015158114610e1857600080fd5b600060208284031215613b6157600080fd5b813561155681613b41565b6020808252825182820181905260009190848201906040850190845b81811015613b355783516001600160a01b031683529284019291840191600101613b88565b60008060408385031215613bc057600080fd5b8235613bcb8161389a565b915060208301356001600160401b03811115613a6257600080fd5b60008060408385031215613bf957600080fd5b8235613c048161389a565b91506020830135613c148161389a565b809150509250929050565b60006001600160401b03821115613c3857613c3861396f565b5060051b60200190565b600080600060608486031215613c5757600080fd5b83356001600160401b0380821115613c6e57600080fd5b613c7a878388016139dc565b9450602091508186013581811115613c9157600080fd5b613c9d888289016139dc565b945050604086013581811115613cb257600080fd5b86019050601f81018713613cc557600080fd5b8035613cd36139fb82613c1f565b81815260059190911b82018301908381019089831115613cf257600080fd5b928401925b82841015613d1057833582529284019290840190613cf7565b80955050505050509250925092565b600080600060408486031215613d3457600080fd5b83356001600160401b03811115613d4a57600080fd5b613d5686828701613852565b9094509250506020840135613d6a81613b41565b809150509250925092565b602081526000825160806020840152613d9160a08401826137c9565b905060208401516040840152604084015160608401526060840151151560808401528091505092915050565b805182526000602082015160406020850152613ddc60408501826137c9565b949350505050565b6000602080830181845280855180835260408601915060408160051b870101925083870160005b82811015613e3957603f19888603018452613e27858351613dbd565b94509285019290850190600101613e0b565b5092979650505050505050565b6020815260006115566020830184613dbd565b600060208284031215613e6b57600080fd5b81356001600160401b03811115613e8157600080fd5b613ddc848285016139dc565b600060408284031215613e9f57600080fd5b604051604081016001600160401b038282108183111715613ec257613ec261396f565b8160405282935084359150613ed68261389a565b90825260208401359080821115613eec57600080fd5b50613ef9858286016139dc565b6020830152505092915050565b600082601f830112613f1757600080fd5b81356020613f276139fb83613c1f565b82815260059290921b84018101918181019086841115613f4657600080fd5b8286015b84811015613f855780356001600160401b03811115613f695760008081fd5b613f778986838b0101613e8d565b845250918301918301613f4a565b509695505050505050565b600080600060608486031215613fa557600080fd5b83356001600160401b0380821115613fbc57600080fd5b613fc8878388016139dc565b9450602091508186013581811115613fdf57600080fd5b8601601f81018813613ff057600080fd5b8035613ffe6139fb82613c1f565b81815260059190911b8201840190848101908a83111561401d57600080fd5b8584015b83811015614055578035868111156140395760008081fd5b6140478d89838901016139dc565b845250918601918601614021565b509650505050604086013591508082111561406f57600080fd5b50613ad686828701613f06565b6000806020838503121561408f57600080fd5b82356001600160401b03808211156140a657600080fd5b818501915085601f8301126140ba57600080fd5b8135818111156140c957600080fd5b8660208260051b85010111156140de57600080fd5b60209290920196919550909350505050565b6000602080830181845280855180835260408601915060408160051b870101925083870160005b82811015613e3957603f198886030184526141338583516137c9565b94509285019290850190600101614117565b6000806040838503121561415857600080fd5b8235915060208301356001600160401b0381111561417557600080fd5b613a6e85828601613e8d565b60008060008060006060868803121561419957600080fd5b85356001600160401b03808211156141b057600080fd5b6141bc89838a01613852565b9097509550602088013591506141d18261389a565b909350604087013590808211156141e757600080fd5b506141f488828901613852565b969995985093965092949392505050565b6000806040838503121561421857600080fd5b8235915060208301356001600160401b0381111561423557600080fd5b830160408186031215613c1457600080fd5b828152604060208201526000613ddc60408301846137c9565b6000806040838503121561427357600080fd5b823561427e8161389a565b91506020830135613c1481613b41565b600080600080600060a086880312156142a657600080fd5b85356001600160401b03808211156142bd57600080fd5b6142c989838a016139dc565b96506020915081880135818111156142e057600080fd5b6142ec8a828b016139dc565b96505060408801358181111561430157600080fd5b88019050601f8101891361431457600080fd5b80356143226139fb82613c1f565b81815260059190911b8201830190838101908b83111561434157600080fd5b928401925b828410156143685783356143598161389a565b82529284019290840190614346565b809750505050505061437c606087016138af565b949793965091946080013592915050565b600181811c908216806143a157607f821691505b602082108103611ab157634e487b7160e01b600052602260045260246000fd5b81835281816020850137506000828201602090810191909152601f909101601f19169091010190565b6040815260006143fe6040830185876143c1565b9050826020830152949350505050565b8183823760009101908152919050565b80516020808301519190811015611ab15760001960209190910360031b1b16919050565b634e487b7160e01b600052601160045260246000fd5b60006001820161446a5761446a614442565b5060010190565b601f821115612e2b57600081815260208120601f850160051c810160208610156144985750805b601f850160051c820191505b81811015612ac6578281556001016144a4565b81516001600160401b038111156144d0576144d061396f565b6144e4816144de845461438d565b84614471565b602080601f83116001811461451957600084156145015750858301515b600019600386901b1c1916600185901b178555612ac6565b600085815260208120601f198616915b8281101561454857888601518255948401946001909101908401614529565b50858210156145665787850151600019600388901b60f8161c191681555b5050505050600190811b01905550565b600081546145838161438d565b8085526020600183811680156145a057600181146145ba576145e8565b60ff1985168884015283151560051b8801830195506145e8565b866000528260002060005b858110156145e05781548a82018601529083019084016145c5565b890184019650505b505050505092915050565b60408152600061460660408301856137c9565b82810360208401526136f18185614576565b6020808252602c908201527f46756e6374696f6e206d7573742062652063616c6c6564207468726f7567682060408201526b19195b1959d85d1958d85b1b60a21b606082015260800190565b6020808252602c908201527f46756e6374696f6e206d7573742062652063616c6c6564207468726f7567682060408201526b6163746976652070726f787960a01b606082015260800190565b600082516146c28184602087016137a5565b9190910192915050565b634e487b7160e01b600052603260045260246000fd5b6040815260006146f560408301856137c9565b90508260208301529392505050565b8082018082111561304357613043614442565b60006020828403121561472957600080fd5b81516001600160401b0381111561473f57600080fd5b8201601f8101841361475057600080fd5b805161475e6139fb826139b5565b81815285602083850101111561477357600080fd5b6136f18260208301602086016137a5565b60006020828403121561479657600080fd5b81516115568161389a565b6020815260006115566020830184614576565b6000808335601e198436030181126147cb57600080fd5b8301803591506001600160401b038211156147e557600080fd5b60200191503681900382131561389357600080fd5b838152818360208301376000910160200190815292915050565b8181038181111561304357613043614442565b634e487b7160e01b600052603160045260246000fd5b8381526040602082015260006136f16040830184866143c1565b60006020828403121561486957600080fd5b5051919050565b60608152600061488360608301866137c9565b6001600160a01b039490941660208301525060400152919050565b6000602082840312156148b057600080fd5b815161155681613b41565b828152600082516148d38160208501602087016137a5565b91909101602001939250505056fe360894a13ba1a3210667c828492db98dca3e2076cc3735a920a3ca505d382bbc4d6f6469667953706163655065726d697373696f6e7300000000000000000000416464726573733a206c6f772d6c6576656c2064656c65676174652063616c6c206661696c6564a2646970667358221220ab2a8b1abf8db8203d01922a8eb5ca04a356ea97cd965e39ef5d610d1666e0b764736f6c63430008110033",
    "linkReferences": {}
  },
  "methodIdentifiers": {
    "addPermissionToRole(uint256,string)": "66fb345c",
    "addRoleToChannel(string,address,uint256)": "1dea616a",
    "addRoleToEntitlement(uint256,(address,bytes))": "ba201ba8",
    "channels(uint256)": "e5949b5d",
    "channelsByHash(bytes32)": "129ab3c8",
    "createChannel(string,string,uint256[])": "51f83cea",
    "createRole(string,string[],(address,bytes)[])": "8fcd793d",
    "defaultEntitlements(address)": "fa6433c5",
    "disabled()": "ee070805",
    "entitlements(uint256)": "f28f9b56",
    "getChannelByHash(bytes32)": "703511f8",
    "getEntitlementByModuleType(string)": "870b9464",
    "getEntitlementIdsByRoleId(uint256)": "42486e49",
    "getEntitlements()": "487dc38c",
    "getPermissionsByRoleId(uint256)": "b4264233",
    "getRoleById(uint256)": "784c872b",
    "getRoles()": "71061398",
    "hasEntitlement(address)": "7f8d06d0",
    "initialize(string,string,address[],address,uint256)": "f3ce6a5b",
    "isEntitledToChannel(string,address,string)": "cea632bc",
    "isEntitledToSpace(address,string)": "20759f9e",
    "multicall(bytes[])": "ac9650d8",
    "name()": "06fdde03",
    "networkId()": "9025e64c",
    "owner()": "8da5cb5b",
    "ownerRoleId()": "d1a6a961",
    "proxiableUUID()": "52d1902d",
    "removePermissionFromRole(uint256,string)": "f740bb6b",
    "removeRole(uint256)": "92691821",
    "removeRoleFromChannel(string,address,uint256)": "baaf3d57",
    "removeRoleFromEntitlement(uint256,(address,bytes))": "dba81864",
    "roleCount()": "ddf96358",
    "rolesById(uint256)": "e5894ef4",
    "setChannelAccess(string,bool)": "5de151b8",
    "setEntitlement(address,bool)": "f3b96ab4",
    "setOwnerRoleId(uint256)": "4999ab16",
    "setSpaceAccess(bool)": "446dc22e",
    "token()": "fc0c546a",
    "tokenId()": "17d70f7c",
    "updateChannel(string,string)": "34a1dd26",
    "updateRole(uint256,string)": "32e704cc",
    "upgradeEntitlement(address,address)": "519607f2",
    "upgradeTo(address)": "3659cfe6",
    "upgradeToAndCall(address,bytes)": "4f1ef286"
  },
  "id": 13
}