{
  "abi": [
    {
      "inputs": [],
      "name": "AddRoleFailed",
      "type": "error"
    },
    {
      "inputs": [],
      "name": "ChannelAlreadyRegistered",
      "type": "error"
    },
    {
      "inputs": [],
      "name": "ChannelDoesNotExist",
      "type": "error"
    },
    {
      "inputs": [],
      "name": "EntitlementAlreadyExists",
      "type": "error"
    },
    {
      "inputs": [],
      "name": "EntitlementAlreadyWhitelisted",
      "type": "error"
    },
    {
      "inputs": [],
      "name": "EntitlementModuleNotSupported",
      "type": "error"
    },
    {
      "inputs": [],
      "name": "EntitlementNotWhitelisted",
      "type": "error"
    },
    {
      "inputs": [],
      "name": "InvalidParameters",
      "type": "error"
    },
    {
      "inputs": [],
      "name": "MissingOwnerPermission",
      "type": "error"
    },
    {
      "inputs": [],
      "name": "NotAllowed",
      "type": "error"
    },
    {
      "inputs": [],
      "name": "OwnerPermissionNotAllowed",
      "type": "error"
    },
    {
      "inputs": [],
      "name": "PermissionAlreadyExists",
      "type": "error"
    },
    {
      "inputs": [],
      "name": "RoleDoesNotExist",
      "type": "error"
    },
    {
      "inputs": [],
      "name": "RoleIsAssignedToEntitlement",
      "type": "error"
    },
    {
      "anonymous": false,
      "inputs": [
        {
          "indexed": false,
          "internalType": "address",
          "name": "previousAdmin",
          "type": "address"
        },
        {
          "indexed": false,
          "internalType": "address",
          "name": "newAdmin",
          "type": "address"
        }
      ],
      "name": "AdminChanged",
      "type": "event"
    },
    {
      "anonymous": false,
      "inputs": [
        {
          "indexed": true,
          "internalType": "address",
          "name": "beacon",
          "type": "address"
        }
      ],
      "name": "BeaconUpgraded",
      "type": "event"
    },
    {
      "anonymous": false,
      "inputs": [
        {
          "indexed": false,
          "internalType": "uint8",
          "name": "version",
          "type": "uint8"
        }
      ],
      "name": "Initialized",
      "type": "event"
    },
    {
      "anonymous": false,
      "inputs": [
        {
          "indexed": true,
          "internalType": "address",
          "name": "previousOwner",
          "type": "address"
        },
        {
          "indexed": true,
          "internalType": "address",
          "name": "newOwner",
          "type": "address"
        }
      ],
      "name": "OwnershipTransferred",
      "type": "event"
    },
    {
      "anonymous": false,
      "inputs": [
        {
          "indexed": true,
          "internalType": "address",
          "name": "implementation",
          "type": "address"
        }
      ],
      "name": "Upgraded",
      "type": "event"
    },
    {
      "inputs": [
        {
          "internalType": "uint256",
          "name": "_roleId",
          "type": "uint256"
        },
        {
          "internalType": "string",
          "name": "_permission",
          "type": "string"
        }
      ],
      "name": "addPermissionToRole",
      "outputs": [],
      "stateMutability": "nonpayable",
      "type": "function"
    },
    {
      "inputs": [
        {
          "internalType": "string",
          "name": "_channelId",
          "type": "string"
        },
        {
          "internalType": "address",
          "name": "_entitlement",
          "type": "address"
        },
        {
          "internalType": "uint256",
          "name": "_roleId",
          "type": "uint256"
        }
      ],
      "name": "addRoleToChannel",
      "outputs": [],
      "stateMutability": "nonpayable",
      "type": "function"
    },
    {
      "inputs": [
        {
          "internalType": "uint256",
          "name": "_roleId",
          "type": "uint256"
        },
        {
          "components": [
            {
              "internalType": "address",
              "name": "module",
              "type": "address"
            },
            {
              "internalType": "bytes",
              "name": "data",
              "type": "bytes"
            }
          ],
          "internalType": "struct DataTypes.Entitlement",
          "name": "_entitlement",
          "type": "tuple"
        }
      ],
      "name": "addRoleToEntitlement",
      "outputs": [],
      "stateMutability": "nonpayable",
      "type": "function"
    },
    {
      "inputs": [
        {
          "internalType": "uint256",
          "name": "",
          "type": "uint256"
        }
      ],
      "name": "channels",
      "outputs": [
        {
          "internalType": "bytes32",
          "name": "",
          "type": "bytes32"
        }
      ],
      "stateMutability": "view",
      "type": "function"
    },
    {
      "inputs": [
        {
          "internalType": "bytes32",
          "name": "",
          "type": "bytes32"
        }
      ],
      "name": "channelsByHash",
      "outputs": [
        {
          "internalType": "string",
          "name": "name",
          "type": "string"
        },
        {
          "internalType": "bytes32",
          "name": "channelId",
          "type": "bytes32"
        },
        {
          "internalType": "uint256",
          "name": "createdAt",
          "type": "uint256"
        },
        {
          "internalType": "bool",
          "name": "disabled",
          "type": "bool"
        }
      ],
      "stateMutability": "view",
      "type": "function"
    },
    {
      "inputs": [
        {
          "internalType": "string",
          "name": "channelName",
          "type": "string"
        },
        {
          "internalType": "string",
          "name": "channelNetworkId",
          "type": "string"
        },
        {
          "internalType": "uint256[]",
          "name": "roleIds",
          "type": "uint256[]"
        }
      ],
      "name": "createChannel",
      "outputs": [
        {
          "internalType": "bytes32",
          "name": "",
          "type": "bytes32"
        }
      ],
      "stateMutability": "nonpayable",
      "type": "function"
    },
    {
      "inputs": [
        {
          "internalType": "string",
          "name": "_roleName",
          "type": "string"
        },
        {
          "internalType": "string[]",
          "name": "_permissions",
          "type": "string[]"
        },
        {
          "components": [
            {
              "internalType": "address",
              "name": "module",
              "type": "address"
            },
            {
              "internalType": "bytes",
              "name": "data",
              "type": "bytes"
            }
          ],
          "internalType": "struct DataTypes.Entitlement[]",
          "name": "_entitlements",
          "type": "tuple[]"
        }
      ],
      "name": "createRole",
      "outputs": [
        {
          "internalType": "uint256",
          "name": "",
          "type": "uint256"
        }
      ],
      "stateMutability": "nonpayable",
      "type": "function"
    },
    {
      "inputs": [
        {
          "internalType": "address",
          "name": "",
          "type": "address"
        }
      ],
      "name": "defaultEntitlements",
      "outputs": [
        {
          "internalType": "bool",
          "name": "",
          "type": "bool"
        }
      ],
      "stateMutability": "view",
      "type": "function"
    },
    {
      "inputs": [],
      "name": "disabled",
      "outputs": [
        {
          "internalType": "bool",
          "name": "",
          "type": "bool"
        }
      ],
      "stateMutability": "view",
      "type": "function"
    },
    {
      "inputs": [
        {
          "internalType": "uint256",
          "name": "",
          "type": "uint256"
        }
      ],
      "name": "entitlements",
      "outputs": [
        {
          "internalType": "address",
          "name": "",
          "type": "address"
        }
      ],
      "stateMutability": "view",
      "type": "function"
    },
    {
      "inputs": [
        {
          "internalType": "bytes32",
          "name": "_channelHash",
          "type": "bytes32"
        }
      ],
      "name": "getChannelByHash",
      "outputs": [
        {
          "components": [
            {
              "internalType": "string",
              "name": "name",
              "type": "string"
            },
            {
              "internalType": "bytes32",
              "name": "channelId",
              "type": "bytes32"
            },
            {
              "internalType": "uint256",
              "name": "createdAt",
              "type": "uint256"
            },
            {
              "internalType": "bool",
              "name": "disabled",
              "type": "bool"
            }
          ],
          "internalType": "struct DataTypes.Channel",
          "name": "",
          "type": "tuple"
        }
      ],
      "stateMutability": "view",
      "type": "function"
    },
    {
      "inputs": [
        {
          "internalType": "uint256",
          "name": "_roleId",
          "type": "uint256"
        }
      ],
      "name": "getEntitlementIdsByRoleId",
      "outputs": [
        {
          "internalType": "bytes32[]",
          "name": "",
          "type": "bytes32[]"
        }
      ],
      "stateMutability": "view",
      "type": "function"
    },
    {
      "inputs": [],
      "name": "getEntitlements",
      "outputs": [
        {
          "internalType": "address[]",
          "name": "",
          "type": "address[]"
        }
      ],
      "stateMutability": "view",
      "type": "function"
    },
    {
      "inputs": [
        {
          "internalType": "uint256",
          "name": "_roleId",
          "type": "uint256"
        }
      ],
      "name": "getPermissionsByRoleId",
      "outputs": [
        {
          "internalType": "bytes32[]",
          "name": "",
          "type": "bytes32[]"
        }
      ],
      "stateMutability": "view",
      "type": "function"
    },
    {
      "inputs": [
        {
          "internalType": "uint256",
          "name": "_roleId",
          "type": "uint256"
        }
      ],
      "name": "getRoleById",
      "outputs": [
        {
          "components": [
            {
              "internalType": "uint256",
              "name": "roleId",
              "type": "uint256"
            },
            {
              "internalType": "string",
              "name": "name",
              "type": "string"
            }
          ],
          "internalType": "struct DataTypes.Role",
          "name": "",
          "type": "tuple"
        }
      ],
      "stateMutability": "view",
      "type": "function"
    },
    {
      "inputs": [],
      "name": "getRoles",
      "outputs": [
        {
          "components": [
            {
              "internalType": "uint256",
              "name": "roleId",
              "type": "uint256"
            },
            {
              "internalType": "string",
              "name": "name",
              "type": "string"
            }
          ],
          "internalType": "struct DataTypes.Role[]",
          "name": "",
          "type": "tuple[]"
        }
      ],
      "stateMutability": "view",
      "type": "function"
    },
    {
      "inputs": [
        {
          "internalType": "address",
          "name": "",
          "type": "address"
        }
      ],
      "name": "hasEntitlement",
      "outputs": [
        {
          "internalType": "bool",
          "name": "",
          "type": "bool"
        }
      ],
      "stateMutability": "view",
      "type": "function"
    },
    {
      "inputs": [
        {
          "internalType": "string",
          "name": "_name",
          "type": "string"
        },
        {
          "internalType": "string",
          "name": "_networkId",
          "type": "string"
        },
        {
          "internalType": "address[]",
          "name": "_entitlements",
          "type": "address[]"
        }
      ],
      "name": "initialize",
      "outputs": [],
      "stateMutability": "nonpayable",
      "type": "function"
    },
    {
      "inputs": [
        {
          "internalType": "string",
          "name": "_channelId",
          "type": "string"
        },
        {
          "internalType": "address",
          "name": "_user",
          "type": "address"
        },
        {
          "internalType": "string",
          "name": "_permission",
          "type": "string"
        }
      ],
      "name": "isEntitledToChannel",
      "outputs": [
        {
          "internalType": "bool",
          "name": "_entitled",
          "type": "bool"
        }
      ],
      "stateMutability": "view",
      "type": "function"
    },
    {
      "inputs": [
        {
          "internalType": "address",
          "name": "_user",
          "type": "address"
        },
        {
          "internalType": "string",
          "name": "_permission",
          "type": "string"
        }
      ],
      "name": "isEntitledToSpace",
      "outputs": [
        {
          "internalType": "bool",
          "name": "_entitled",
          "type": "bool"
        }
      ],
      "stateMutability": "view",
      "type": "function"
    },
    {
      "inputs": [
        {
          "internalType": "bytes[]",
          "name": "data",
          "type": "bytes[]"
        }
      ],
      "name": "multicall",
      "outputs": [
        {
          "internalType": "bytes[]",
          "name": "results",
          "type": "bytes[]"
        }
      ],
      "stateMutability": "nonpayable",
      "type": "function"
    },
    {
      "inputs": [],
      "name": "name",
      "outputs": [
        {
          "internalType": "string",
          "name": "",
          "type": "string"
        }
      ],
      "stateMutability": "view",
      "type": "function"
    },
    {
      "inputs": [],
      "name": "networkId",
      "outputs": [
        {
          "internalType": "string",
          "name": "",
          "type": "string"
        }
      ],
      "stateMutability": "view",
      "type": "function"
    },
    {
      "inputs": [],
      "name": "owner",
      "outputs": [
        {
          "internalType": "address",
          "name": "",
          "type": "address"
        }
      ],
      "stateMutability": "view",
      "type": "function"
    },
    {
      "inputs": [],
      "name": "ownerRoleId",
      "outputs": [
        {
          "internalType": "uint256",
          "name": "",
          "type": "uint256"
        }
      ],
      "stateMutability": "view",
      "type": "function"
    },
    {
      "inputs": [],
      "name": "proxiableUUID",
      "outputs": [
        {
          "internalType": "bytes32",
          "name": "",
          "type": "bytes32"
        }
      ],
      "stateMutability": "view",
      "type": "function"
    },
    {
      "inputs": [
        {
          "internalType": "uint256",
          "name": "_roleId",
          "type": "uint256"
        },
        {
          "internalType": "string",
          "name": "_permission",
          "type": "string"
        }
      ],
      "name": "removePermissionFromRole",
      "outputs": [],
      "stateMutability": "nonpayable",
      "type": "function"
    },
    {
      "inputs": [
        {
          "internalType": "uint256",
          "name": "_roleId",
          "type": "uint256"
        }
      ],
      "name": "removeRole",
      "outputs": [],
      "stateMutability": "nonpayable",
      "type": "function"
    },
    {
      "inputs": [
        {
          "internalType": "string",
          "name": "_channelId",
          "type": "string"
        },
        {
          "internalType": "address",
          "name": "_entitlement",
          "type": "address"
        },
        {
          "internalType": "uint256",
          "name": "_roleId",
          "type": "uint256"
        }
      ],
      "name": "removeRoleFromChannel",
      "outputs": [],
      "stateMutability": "nonpayable",
      "type": "function"
    },
    {
      "inputs": [
        {
          "internalType": "uint256",
          "name": "_roleId",
          "type": "uint256"
        },
        {
          "components": [
            {
              "internalType": "address",
              "name": "module",
              "type": "address"
            },
            {
              "internalType": "bytes",
              "name": "data",
              "type": "bytes"
            }
          ],
          "internalType": "struct DataTypes.Entitlement",
          "name": "_entitlement",
          "type": "tuple"
        }
      ],
      "name": "removeRoleFromEntitlement",
      "outputs": [],
      "stateMutability": "nonpayable",
      "type": "function"
    },
    {
      "inputs": [],
      "name": "renounceOwnership",
      "outputs": [],
      "stateMutability": "nonpayable",
      "type": "function"
    },
    {
      "inputs": [],
      "name": "roleCount",
      "outputs": [
        {
          "internalType": "uint256",
          "name": "",
          "type": "uint256"
        }
      ],
      "stateMutability": "view",
      "type": "function"
    },
    {
      "inputs": [
        {
          "internalType": "uint256",
          "name": "",
          "type": "uint256"
        }
      ],
      "name": "rolesById",
      "outputs": [
        {
          "internalType": "uint256",
          "name": "roleId",
          "type": "uint256"
        },
        {
          "internalType": "string",
          "name": "name",
          "type": "string"
        }
      ],
      "stateMutability": "view",
      "type": "function"
    },
    {
      "inputs": [
        {
          "internalType": "string",
          "name": "_channelId",
          "type": "string"
        },
        {
          "internalType": "bool",
          "name": "_disabled",
          "type": "bool"
        }
      ],
      "name": "setChannelAccess",
      "outputs": [],
      "stateMutability": "nonpayable",
      "type": "function"
    },
    {
      "inputs": [
        {
          "internalType": "address",
          "name": "_entitlement",
          "type": "address"
        },
        {
          "internalType": "bool",
          "name": "_whitelist",
          "type": "bool"
        }
      ],
      "name": "setEntitlement",
      "outputs": [],
      "stateMutability": "nonpayable",
      "type": "function"
    },
    {
      "inputs": [
        {
          "internalType": "uint256",
          "name": "_roleId",
          "type": "uint256"
        }
      ],
      "name": "setOwnerRoleId",
      "outputs": [],
      "stateMutability": "nonpayable",
      "type": "function"
    },
    {
      "inputs": [
        {
          "internalType": "bool",
          "name": "_disabled",
          "type": "bool"
        }
      ],
      "name": "setSpaceAccess",
      "outputs": [],
      "stateMutability": "nonpayable",
      "type": "function"
    },
    {
      "inputs": [
        {
          "internalType": "address",
          "name": "newOwner",
          "type": "address"
        }
      ],
      "name": "transferOwnership",
      "outputs": [],
      "stateMutability": "nonpayable",
      "type": "function"
    },
    {
      "inputs": [
        {
          "internalType": "string",
          "name": "_channelId",
          "type": "string"
        },
        {
          "internalType": "string",
          "name": "_channelName",
          "type": "string"
        }
      ],
      "name": "updateChannel",
      "outputs": [],
      "stateMutability": "nonpayable",
      "type": "function"
    },
    {
      "inputs": [
        {
          "internalType": "uint256",
          "name": "_roleId",
          "type": "uint256"
        },
        {
          "internalType": "string",
          "name": "_roleName",
          "type": "string"
        }
      ],
      "name": "updateRole",
      "outputs": [],
      "stateMutability": "nonpayable",
      "type": "function"
    },
    {
      "inputs": [
        {
          "internalType": "address",
          "name": "newImplementation",
          "type": "address"
        }
      ],
      "name": "upgradeTo",
      "outputs": [],
      "stateMutability": "nonpayable",
      "type": "function"
    },
    {
      "inputs": [
        {
          "internalType": "address",
          "name": "newImplementation",
          "type": "address"
        },
        {
          "internalType": "bytes",
          "name": "data",
          "type": "bytes"
        }
      ],
      "name": "upgradeToAndCall",
      "outputs": [],
      "stateMutability": "payable",
      "type": "function"
    }
  ],
  "bytecode": {
    "object": "0x60a06040523060805234801561001457600080fd5b5060805161467261004c60003960008181610ceb01528181610d3401528181610ff60152818161103601526113e001526146726000f3fe6080604052600436106102515760003560e01c80638da5cb5b11610139578063d1a6a961116100b6578063ee0708051161007a578063ee07080514610737578063f28f9b5614610751578063f2fde38b14610771578063f3b96ab414610791578063f740bb6b146107b1578063fa6433c5146107d157600080fd5b8063d1a6a9611461069d578063dba81864146106b3578063ddf96358146106d3578063e5894ef4146106e9578063e5949b5d1461071757600080fd5b8063b4264233116100fd578063b4264233146105fd578063ba201ba81461061d578063baaf3d571461063d578063ca2759311461065d578063cea632bc1461067d57600080fd5b80638da5cb5b146105495780638fcd793d1461057b5780639025e64c1461059b57806392691821146105b0578063ac9650d8146105d057600080fd5b80634999ab16116101d257806366fb345c1161019657806366fb345c14610468578063703511f81461048857806371061398146104b5578063715018a6146104d7578063784c872b146104ec5780637f8d06d01461051957600080fd5b80634999ab16146103d25780634f1ef286146103f257806351f83cea1461040557806352d1902d146104335780635de151b81461044857600080fd5b806334a1dd261161021957806334a1dd26146103235780633659cfe61461034357806342486e4914610363578063446dc22e14610390578063487dc38c146103b057600080fd5b806306fdde0314610256578063129ab3c8146102815780631dea616a146102b157806320759f9e146102d357806332e704cc14610303575b600080fd5b34801561026257600080fd5b5061026b610801565b60405161027891906135d4565b60405180910390f35b34801561028d57600080fd5b506102a161029c3660046135e7565b61088f565b6040516102789493929190613600565b3480156102bd57600080fd5b506102d16102cc366004613695565b610944565b005b3480156102df57600080fd5b506102f36102ee3660046136f0565b610a75565b6040519015158152602001610278565b34801561030f57600080fd5b506102d161031e3660046137f7565b610aeb565b34801561032f57600080fd5b506102d161033e36600461383d565b610bfe565b34801561034f57600080fd5b506102d161035e3660046138a5565b610ce1565b34801561036f57600080fd5b5061038361037e3660046135e7565b610dc9565b60405161027891906138c0565b34801561039c57600080fd5b506102d16103ab366004613912565b610e2b565b3480156103bc57600080fd5b506103c5610e56565b604051610278919061392f565b3480156103de57600080fd5b506102d16103ed3660046135e7565b610eb8565b6102d1610400366004613970565b610fec565b34801561041157600080fd5b506104256104203660046139ca565b6110bc565b604051908152602001610278565b34801561043f57600080fd5b506104256113d3565b34801561045457600080fd5b506102d1610463366004613aac565b611486565b34801561047457600080fd5b506102d16104833660046137f7565b61154c565b34801561049457600080fd5b506104a86104a33660046135e7565b6116c7565b6040516102789190613b02565b3480156104c157600080fd5b506104ca6117bf565b6040516102789190613b71565b3480156104e357600080fd5b506102d161192d565b3480156104f857600080fd5b5061050c6105073660046135e7565b611941565b6040516102789190613bd3565b34801561052557600080fd5b506102f36105343660046138a5565b60cd6020526000908152604090205460ff1681565b34801561055557600080fd5b506033546001600160a01b03165b6040516001600160a01b039091168152602001610278565b34801561058757600080fd5b50610425610596366004613ce5565b611a17565b3480156105a757600080fd5b5061026b611ccb565b3480156105bc57600080fd5b506102d16105cb3660046135e7565b611cd8565b3480156105dc57600080fd5b506105f06105eb366004613dd1565b611e0f565b6040516102789190613e45565b34801561060957600080fd5b506103836106183660046135e7565b611f2d565b34801561062957600080fd5b506102d1610638366004613e9a565b611f8d565b34801561064957600080fd5b506102d1610658366004613695565b612044565b34801561066957600080fd5b506102d1610678366004613ed6565b61213d565b34801561068957600080fd5b506102f3610698366004613fab565b612300565b3480156106a957600080fd5b5061042560cc5481565b3480156106bf57600080fd5b506102d16106ce36600461402e565b6123a3565b3480156106df57600080fd5b5061042560d15481565b3480156106f557600080fd5b506107096107043660046135e7565b612605565b60405161027892919061407b565b34801561072357600080fd5b506104256107323660046135e7565b6126aa565b34801561074357600080fd5b5060cb546102f39060ff1681565b34801561075d57600080fd5b5061056361076c3660046135e7565b6126cb565b34801561077d57600080fd5b506102d161078c3660046138a5565b6126f5565b34801561079d57600080fd5b506102d16107ac366004614094565b61276b565b3480156107bd57600080fd5b506102d16107cc3660046137f7565b612841565b3480156107dd57600080fd5b506102f36107ec3660046138a5565b60ce6020526000908152604090205460ff1681565b60c9805461080e906140c0565b80601f016020809104026020016040519081016040528092919081815260200182805461083a906140c0565b80156108875780601f1061085c57610100808354040283529160200191610887565b820191906000526020600020905b81548152906001019060200180831161086a57829003601f168201915b505050505081565b60d4602052600090815260409020805481906108aa906140c0565b80601f01602080910402602001604051908101604052809291908181526020018280546108d6906140c0565b80156109235780601f106108f857610100808354040283529160200191610923565b820191906000526020600020905b81548152906001019060200180831161090657829003601f168201915b50505050600183015460028401546003909401549293909290915060ff1684565b6109a684848080601f0160208091040260200160405190810160405280939291908181526020018383808284376000920191909152505060408051808201909152601681526000805160206145f683398151915260208201529150612a229050565b6001600160a01b038216600090815260cd602052604090205460ff166109df5760405163c1ef36f360e01b815260040160405180910390fd5b600081815260d260205260408120549003610a0d5760405163b810dc5d60e01b815260040160405180910390fd5b60405163c513be7760e01b81526001600160a01b0383169063c513be7790610a3d9087908790869060040161411d565b600060405180830381600087803b158015610a5757600080fd5b505af1158015610a6b573d6000803e3d6000fd5b5050505050505050565b6000805b60d054811015610ae357610ac760405180602001604052806000815250868686604051602001610aaa929190614141565b604051602081830303815290604052610ac290614151565b612a7c565b15610ad157600191505b80610adb8161418b565b915050610a79565b509392505050565b610b27604051806020016040528060008152506040518060400160405280601681526020016000805160206145f6833981519152815250612a22565b60cc548203610b4957604051631eb49d6d60e11b815260040160405180910390fd5b600082815260d260205260408120549003610b775760405163b810dc5d60e01b815260040160405180910390fd5b8051600003610b9957604051630e52390960e41b815260040160405180910390fd5b600082815260d260205260409020600101610bb482826141ea565b5081336001600160a01b03167ff3c55faf0b13ffa681c984baddbb8ef7638e514188ea19bd6461d7f87b9c79538360ca604051610bf2929190614326565b60405180910390a35050565b610c40604051806020016040528060008152506040518060400160405280601181526020017041646452656d6f76654368616e6e656c7360781b815250612a22565b60008383604051602001610c55929190614141565b60408051601f198184030181529181528151602092830120600081815260d4909352908220600101549092509003610ca057604051636ddd9da960e01b815260040160405180910390fd5b8151600003610cc257604051631eb49d6d60e11b815260040160405180910390fd5b600081815260d460205260409020610cda83826141ea565b5050505050565b6001600160a01b037f0000000000000000000000000000000000000000000000000000000000000000163003610d325760405162461bcd60e51b8152600401610d299061434b565b60405180910390fd5b7f00000000000000000000000000000000000000000000000000000000000000006001600160a01b0316610d7b6000805160206145d6833981519152546001600160a01b031690565b6001600160a01b031614610da15760405162461bcd60e51b8152600401610d2990614397565b610daa81612b35565b60408051600080825260208201909252610dc691839190612b6b565b50565b600081815260cf6020908152604091829020805483518184028101840190945280845260609392830182828015610e1f57602002820191906000526020600020905b815481526020019060010190808311610e0b575b50505050509050919050565b610e4360405180602001604052806000815250612cdb565b60cb805460ff1916911515919091179055565b606060d0805480602002602001604051908101604052809291908181526020018280548015610eae57602002820191906000526020600020905b81546001600160a01b03168152600190910190602001808311610e90575b5050505050905090565b610eee604051806020016040528060008152506040518060400160405280600581526020016427bbb732b960d91b815250612a22565b600081815260d260205260408120549003610f1c5760405163b810dc5d60e01b815260040160405180910390fd5b6000805b600083815260d36020526040902054811015610fc7576040518060400160405280600581526020016427bbb732b960d91b815250604051602001610f6491906143e3565b604051602081830303815290604052610f7c90614151565b600084815260d360205260409020805483908110610f9c57610f9c6143ff565b906000526020600020015403610fb55760019150610fc7565b80610fbf8161418b565b915050610f20565b5080610fe657604051633e74bd6360e21b815260040160405180910390fd5b5060cc55565b6001600160a01b037f00000000000000000000000000000000000000000000000000000000000000001630036110345760405162461bcd60e51b8152600401610d299061434b565b7f00000000000000000000000000000000000000000000000000000000000000006001600160a01b031661107d6000805160206145d6833981519152546001600160a01b031690565b6001600160a01b0316146110a35760405162461bcd60e51b8152600401610d2990614397565b6110ac82612b35565b6110b882826001612b6b565b5050565b6000611100604051806020016040528060008152506040518060400160405280601181526020017041646452656d6f76654368616e6e656c7360781b815250612a22565b60008360405160200161111391906143e3565b60408051601f198184030181529181528151602092830120600081815260d49093529120600101549091501561115c57604051630139324b60e41b815260040160405180910390fd5b604080516080810182528681526020808201849052428284015260006060830181905284815260d4909152919091208151819061119990826141ea565b506020820151600182810191909155604083015160028301556060909201516003909101805460ff191691151591909117905560d58054918201815560009081527f51858de9989bf7441865ebdadbf7382c8838edbf830f5d86a9a51ac773676dd69091018290555b60d0548110156113c857600060d08281548110611221576112216143ff565b60009182526020909120015460cc5460405163c513be7760e01b81526001600160a01b039092169250829163c513be7791611261918a9190600401614415565b600060405180830381600087803b15801561127b57600080fd5b505af115801561128f573d6000803e3d6000fd5b5050505060005b85518110156113b35760cc548682815181106112b4576112b46143ff565b602002602001015103156113a15760d260008783815181106112d8576112d86143ff565b60200260200101518152602001908152602001600020600001546000036113125760405163b810dc5d60e01b815260040160405180910390fd5b816001600160a01b031663c513be7788888481518110611334576113346143ff565b60200260200101516040518363ffffffff1660e01b8152600401611359929190614415565b600060405180830381600087803b15801561137357600080fd5b505af1925050508015611384575060015b6113a15760405163d9afe50760e01b815260040160405180910390fd5b806113ab8161418b565b915050611296565b505080806113c09061418b565b915050611202565b5090505b9392505050565b6000306001600160a01b037f000000000000000000000000000000000000000000000000000000000000000016146114735760405162461bcd60e51b815260206004820152603860248201527f555550535570677261646561626c653a206d757374206e6f742062652063616c60448201527f6c6564207468726f7567682064656c656761746563616c6c00000000000000006064820152608401610d29565b506000805160206145d683398151915290565b6114c8604051806020016040528060008152506040518060400160405280601181526020017041646452656d6f76654368616e6e656c7360781b815250612a22565b600083836040516020016114dd929190614141565b60408051601f198184030181529181528151602092830120600081815260d490935290822060010154909250900361152857604051636ddd9da960e01b815260040160405180910390fd5b600090815260d460205260409020600301805460ff19169115159190911790555050565b611588604051806020016040528060008152506040518060400160405280601681526020016000805160206145f6833981519152815250612a22565b6115af816040518060400160405280600581526020016427bbb732b960d91b815250612d01565b156115cd57604051631eb49d6d60e11b815260040160405180910390fd5b600082815260d2602052604081205490036115fb5760405163b810dc5d60e01b815260040160405180910390fd5b60008160405160200161160e91906143e3565b60405160208183030381529060405261162690614151565b905060005b600084815260d3602052604090205481101561169f57600084815260d360205260409020805483919083908110611664576116646143ff565b90600052602060002001540361168d57604051636571d65f60e01b815260040160405180910390fd5b806116978161418b565b91505061162b565b50600092835260d3602090815260408420805460018101825590855293209092019190915550565b604080516080810182526060808252600060208301819052928201839052810191909152600082815260d4602052604090819020815160808101909252805482908290611713906140c0565b80601f016020809104026020016040519081016040528092919081815260200182805461173f906140c0565b801561178c5780601f106117615761010080835404028352916020019161178c565b820191906000526020600020905b81548152906001019060200180831161176f57829003601f168201915b5050509183525050600182015460208201526002820154604082015260039091015460ff16151560609091015292915050565b6060600060d1546001600160401b038111156117dd576117dd613742565b60405190808252806020026020018201604052801561182357816020015b6040805180820190915260008152606060208201528152602001906001900390816117fb5790505b50905060005b60d1548110156119275760d26000611842836001614437565b815260200190815260200160002060405180604001604052908160008201548152602001600182018054611875906140c0565b80601f01602080910402602001604051908101604052809291908181526020018280546118a1906140c0565b80156118ee5780601f106118c3576101008083540402835291602001916118ee565b820191906000526020600020905b8154815290600101906020018083116118d157829003601f168201915b505050505081525050828281518110611909576119096143ff565b6020026020010181905250808061191f9061418b565b915050611829565b50919050565b611935612d5b565b61193f6000612db5565b565b60408051808201909152600081526060602082015260d260008381526020019081526020016000206040518060400160405290816000820154815260200160018201805461198e906140c0565b80601f01602080910402602001604051908101604052809291908181526020018280546119ba906140c0565b8015611a075780601f106119dc57610100808354040283529160200191611a07565b820191906000526020600020905b8154815290600101906020018083116119ea57829003601f168201915b5050505050815250509050919050565b6000611a55604051806020016040528060008152506040518060400160405280601681526020016000805160206145f6833981519152815250612a22565b600060d160008154611a669061418b565b91829055506040805180820182528281526020808201898152600085815260d2909252929020815181559151929350918291906001820190611aa890826141ea565b5090505060005b8551811015611ba2576033546001600160a01b03163314801590611b0e5750611b0e868281518110611ae357611ae36143ff565b60200260200101516040518060400160405280600581526020016427bbb732b960d91b815250612d01565b15611b2c576040516341d2e1af60e01b815260040160405180910390fd5b6000868281518110611b4057611b406143ff565b6020026020010151604051602001611b5891906143e3565b604051602081830303815290604052611b7090614151565b600085815260d36020908152604082208054600181018255908352912001555080611b9a8161418b565b915050611aaf565b5060005b8451811015611c7c576000858281518110611bc357611bc36143ff565b60200260200101516000015190506000868381518110611be557611be56143ff565b602002602001015160200151905060006001600160a01b0316826001600160a01b03161480611c1357508051155b15611c1f575050611c6a565b6001600160a01b038216600090815260cd602052604081205460ff1615159003611c5c5760405163c1ef36f360e01b815260040160405180910390fd5b611c67858383612e07565b50505b80611c748161418b565b915050611ba6565b5081336001600160a01b03167f39772407c6dd2e83adbd292cdfa17a6817c9a7500e56cfe57b7a82d797f8d39b8860ca604051611cba929190614326565b60405180910390a350949350505050565b60ca805461080e906140c0565b611d14604051806020016040528060008152506040518060400160405280601681526020016000805160206145f6833981519152815250612a22565b60cc548103611d3657604051631eb49d6d60e11b815260040160405180910390fd5b600081815260d260205260408120549003611d645760405163b810dc5d60e01b815260040160405180910390fd5b600081815260cf602052604090205415611d9157604051633764405360e11b815260040160405180910390fd5b600081815260d26020526040812081815590611db06001830182613517565b5050600081815260d360205260408120611dc991613551565b80336001600160a01b03167f1d5667a301e36f2d5b1ee32b7f187b0adb46c706297242fa945d3fed1e7f8a1960ca604051611e04919061444a565b60405180910390a350565b6060816001600160401b03811115611e2957611e29613742565b604051908082528060200260200182016040528015611e5c57816020015b6060815260200190600190039081611e475790505b50905060005b82811015611f265760008030868685818110611e8057611e806143ff565b9050602002810190611e92919061445d565b604051611ea0929190614141565b600060405180830381855af49150503d8060008114611edb576040519150601f19603f3d011682016040523d82523d6000602084013e611ee0565b606091505b509150915081611ef357611ef381612f7f565b80848481518110611f0657611f066143ff565b602002602001018190525050508080611f1e9061418b565b915050611e62565b5092915050565b600081815260d36020908152604091829020805483518184028101840190945280845260609392830182828015610e1f5760200282019190600052602060002090815481526020019060010190808311610e0b5750505050509050919050565b611fc9604051806020016040528060008152506040518060400160405280601681526020016000805160206145f6833981519152815250612a22565b80516001600160a01b0316600090815260cd602052604090205460ff166120035760405163c1ef36f360e01b815260040160405180910390fd5b600082815260d2602052604081205490036120315760405163b810dc5d60e01b815260040160405180910390fd5b6110b88282600001518360200151612e07565b6120a684848080601f0160208091040260200160405190810160405280939291908181526020018383808284376000920191909152505060408051808201909152601681526000805160206145f683398151915260208201529150612a229050565b6001600160a01b038216600090815260cd602052604090205460ff166120df5760405163c1ef36f360e01b815260040160405180910390fd5b600081815260d26020526040812054900361210d5760405163b810dc5d60e01b815260040160405180910390fd5b604051637997c1e760e11b81526001600160a01b0383169063f32f83ce90610a3d9087908790869060040161411d565b600054610100900460ff161580801561215d5750600054600160ff909116105b806121775750303b158015612177575060005460ff166001145b6121da5760405162461bcd60e51b815260206004820152602e60248201527f496e697469616c697a61626c653a20636f6e747261637420697320616c72656160448201526d191e481a5b9a5d1a585b1a5e995960921b6064820152608401610d29565b6000805460ff1916600117905580156121fd576000805461ff0019166101001790555b61220561304c565b61220d613073565b60c961221985826141ea565b5060ca61222684826141ea565b5060005b82518110156122b357612257838281518110612248576122486143ff565b602002602001015160016130a2565b600160ce600085848151811061226f5761226f6143ff565b6020908102919091018101516001600160a01b03168252810191909152604001600020805460ff1916911515919091179055806122ab8161418b565b91505061222a565b5080156122fa576000805461ff0019169055604051600181527f7f26b83ff96e1f2b6a682f133852f6798a09c465da95921460cefb38474024989060200160405180910390a15b50505050565b600084810361232257604051630e52390960e41b815260040160405180910390fd5b60005b60d0548110156123995761237d87878080601f01602080910402602001604051908101604052809392919081815260200183838082843760009201919091525050604051899250610aaa915088908890602001614141565b1561238757600191505b806123918161418b565b915050612325565b5095945050505050565b6123df604051806020016040528060008152506040518060400160405280601681526020016000805160206145f6833981519152815250612a22565b60cc54820361240157604051631eb49d6d60e11b815260040160405180910390fd5b60cd600061241260208401846138a5565b6001600160a01b0316815260208101919091526040016000205460ff1661244c5760405163c1ef36f360e01b815260040160405180910390fd5b600082815260d26020526040812054900361247a5760405163b810dc5d60e01b815260040160405180910390fd5b60008261248a602084018461445d565b60405160200161249c939291906144a3565b60408051601f198184030181529181528151602092830120600086815260cf909352908220909250905b815481101561257a578181815481106124e1576124e16143ff565b906000526020600020015483036125685781548290612502906001906144bd565b81548110612512576125126143ff565b906000526020600020015482828154811061252f5761252f6143ff565b90600052602060002001819055508180548061254d5761254d6144d0565b6001900381819060005260206000200160009055905561257a565b806125728161418b565b9150506124c6565b5061258860208401846138a5565b6001600160a01b031663fa6d1adf856125a4602087018761445d565b6040518463ffffffff1660e01b81526004016125c2939291906144e6565b6020604051808303816000875af11580156125e1573d6000803e3d6000fd5b505050506040513d601f19601f82011682018060405250810190610cda9190614500565b60d26020526000908152604090208054600182018054919291612627906140c0565b80601f0160208091040260200160405190810160405280929190818152602001828054612653906140c0565b80156126a05780601f10612675576101008083540402835291602001916126a0565b820191906000526020600020905b81548152906001019060200180831161268357829003601f168201915b5050505050905082565b60d581815481106126ba57600080fd5b600091825260209091200154905081565b60d081815481106126db57600080fd5b6000918252602090912001546001600160a01b0316905081565b6126fd612d5b565b6001600160a01b0381166127625760405162461bcd60e51b815260206004820152602660248201527f4f776e61626c653a206e6577206f776e657220697320746865207a65726f206160448201526564647265737360d01b6064820152608401610d29565b610dc681612db5565b6127a7604051806020016040528060008152506040518060400160405280601681526020016000805160206145f6833981519152815250612a22565b6127b082613223565b8080156127d557506001600160a01b038216600090815260cd602052604090205460ff165b156127f35760405163186abc9b60e01b815260040160405180910390fd5b8015801561281957506001600160a01b038216600090815260ce602052604090205460ff165b1561283757604051631eb49d6d60e11b815260040160405180910390fd5b6110b882826130a2565b61287d604051806020016040528060008152506040518060400160405280601681526020016000805160206145f6833981519152815250612a22565b6128a4816040518060400160405280600581526020016427bbb732b960d91b815250612d01565b156128c257604051631eb49d6d60e11b815260040160405180910390fd5b600082815260d2602052604081205490036128f05760405163b810dc5d60e01b815260040160405180910390fd5b60008160405160200161290391906143e3565b60405160208183030381529060405261291b90614151565b905060005b600084815260d360205260409020548110156122fa57600084815260d360205260409020805483919083908110612959576129596143ff565b906000526020600020015403612a1057600084815260d3602052604090208054612985906001906144bd565b81548110612995576129956143ff565b906000526020600020015460d3600086815260200190815260200160002082815481106129c4576129c46143ff565b906000526020600020018190555060d360008581526020019081526020016000208054806129f4576129f46144d0565b6001900381819060005260206000200160009055905550505050565b80612a1a8161418b565b915050612920565b6033546001600160a01b0316331480612a5a575060cb5460ff16158015612a5a5750612a5a823383604051602001610aaa91906143e3565b15612a63575050565b604051631eb49d6d60e11b815260040160405180910390fd5b6000805b60d054811015610ae35760d08181548110612a9d57612a9d6143ff565b60009182526020909120015460405162169d5560e31b81526001600160a01b039091169062b4eaa890612ad890889088908890600401614519565b602060405180830381865afa158015612af5573d6000803e3d6000fd5b505050506040513d601f19601f82011682018060405250810190612b199190614547565b15612b2357600191505b80612b2d8161418b565b915050612a80565b610dc6604051806020016040528060008152506040518060400160405280600581526020016427bbb732b960d91b815250612a22565b7f4910fdfa16fed3260ed0e7147f7cc6da11a60208b5b9406d12a635614ffd91435460ff1615612ba357612b9e836132b4565b505050565b826001600160a01b03166352d1902d6040518163ffffffff1660e01b8152600401602060405180830381865afa925050508015612bfd575060408051601f3d908101601f19168201909252612bfa91810190614500565b60015b612c605760405162461bcd60e51b815260206004820152602e60248201527f45524331393637557067726164653a206e657720696d706c656d656e7461746960448201526d6f6e206973206e6f74205555505360901b6064820152608401610d29565b6000805160206145d68339815191528114612ccf5760405162461bcd60e51b815260206004820152602960248201527f45524331393637557067726164653a20756e737570706f727465642070726f786044820152681a58589b195555525160ba1b6064820152608401610d29565b50612b9e838383613350565b612cf981336040516427bbb732b960d91b6020820152602501610aaa565b15612a635750565b600081604051602001612d1491906143e3565b6040516020818303038152906040528051906020012083604051602001612d3b91906143e3565b604051602081830303815290604052805190602001201490505b92915050565b6033546001600160a01b0316331461193f5760405162461bcd60e51b815260206004820181905260248201527f4f776e61626c653a2063616c6c6572206973206e6f7420746865206f776e65726044820152606401610d29565b603380546001600160a01b038381166001600160a01b0319831681179093556040519116919082907f8be0079c531659141344cd1fd0a4f28419497f9722a3daafe3b4186f6b6457e090600090a35050565b60008382604051602001612e1c929190614564565b60408051601f198184030181528282528051602091820120600088815260cf835283812080548085028701850190955284865291955093929091830182828015612e8557602002820191906000526020600020905b815481526020019060010190808311612e71575b5050505050905060005b8151811015612ee35782828281518110612eab57612eab6143ff565b602002602001015103612ed15760405163c5c9ad6760e01b815260040160405180910390fd5b80612edb8161418b565b915050612e8f565b50600085815260cf602090815260408083208054600181018255908452919092200183905551633be2f95d60e21b81526001600160a01b0385169063ef8be57490612f34908890879060040161407b565b6020604051808303816000875af1158015612f53573d6000803e3d6000fd5b505050506040513d601f19601f82011682018060405250810190612f779190614500565b505050505050565b600481511015612fc45760405162461bcd60e51b815260206004820152601060248201526f1d5b9a185b991b1959081c995d995c9d60821b6044820152606401610d29565b602081015163b1b7848f60e01b6001600160e01b031982160161304357604080518082018252600e81526d70616e69636b65643a2030785f5f60901b602082018181526024860151600481811c600f908116603090810160081b9184160117909317909152925162461bcd60e51b8152919291610d29918491016135d4565b81518060208401fd5b600054610100900460ff1661193f5760405162461bcd60e51b8152600401610d299061458a565b600054610100900460ff1661309a5760405162461bcd60e51b8152600401610d299061458a565b61193f613375565b6001600160a01b038216600090815260cd60205260409020805460ff191682158015919091179091556131205760d080546001810182556000919091527fe89d44c8fd6a9bac8af33ce47f56337617d449bf7ff3956b618c646de829cbcb0180546001600160a01b0384166001600160a01b03199091161790555050565b60005b60d054811015612b9e5760d08181548110613140576131406143ff565b6000918252602090912001546001600160a01b03908116908416036132115760d0805461316f906001906144bd565b8154811061317f5761317f6143ff565b60009182526020909120015460d080546001600160a01b0390921691839081106131ab576131ab6143ff565b9060005260206000200160006101000a8154816001600160a01b0302191690836001600160a01b0316021790555060d08054806131ea576131ea6144d0565b600082815260209020810160001990810180546001600160a01b0319169055019055505050565b8061321b8161418b565b915050613123565b6040516301ffc9a760e01b8152630511738b60e31b60048201526001600160a01b038216906301ffc9a790602401602060405180830381865afa15801561326e573d6000803e3d6000fd5b505050506040513d601f19601f820116820180604052508101906132929190614547565b1515600003610dc657604051636d9250f160e11b815260040160405180910390fd5b6001600160a01b0381163b6133215760405162461bcd60e51b815260206004820152602d60248201527f455243313936373a206e657720696d706c656d656e746174696f6e206973206e60448201526c1bdd08184818dbdb9d1c9858dd609a1b6064820152608401610d29565b6000805160206145d683398151915280546001600160a01b0319166001600160a01b0392909216919091179055565b613359836133a5565b6000825111806133665750805b15612b9e576122fa83836133e5565b600054610100900460ff1661339c5760405162461bcd60e51b8152600401610d299061458a565b61193f33612db5565b6133ae816132b4565b6040516001600160a01b038216907fbc7cd75a20ee27fd9adebab32041f755214dbc6bffa90cc0225b39da2e5c2d3b90600090a250565b60606001600160a01b0383163b61344d5760405162461bcd60e51b815260206004820152602660248201527f416464726573733a2064656c65676174652063616c6c20746f206e6f6e2d636f6044820152651b9d1c9858dd60d21b6064820152608401610d29565b600080846001600160a01b03168460405161346891906143e3565b600060405180830381855af49150503d80600081146134a3576040519150601f19603f3d011682016040523d82523d6000602084013e6134a8565b606091505b50915091506134d08282604051806060016040528060278152602001614616602791396134d9565b95945050505050565b606083156134e85750816113cc565b6113cc83838151156134fd5781518083602001fd5b8060405162461bcd60e51b8152600401610d2991906135d4565b508054613523906140c0565b6000825580601f10613533575050565b601f016020900490600052602060002090810190610dc6919061356b565b5080546000825590600052602060002090810190610dc691905b5b80821115613580576000815560010161356c565b5090565b60005b8381101561359f578181015183820152602001613587565b50506000910152565b600081518084526135c0816020860160208601613584565b601f01601f19169290920160200192915050565b6020815260006113cc60208301846135a8565b6000602082840312156135f957600080fd5b5035919050565b60808152600061361360808301876135a8565b60208301959095525060408101929092521515606090910152919050565b60008083601f84011261364357600080fd5b5081356001600160401b0381111561365a57600080fd5b60208301915083602082850101111561367257600080fd5b9250929050565b80356001600160a01b038116811461369057600080fd5b919050565b600080600080606085870312156136ab57600080fd5b84356001600160401b038111156136c157600080fd5b6136cd87828801613631565b90955093506136e0905060208601613679565b9396929550929360400135925050565b60008060006040848603121561370557600080fd5b61370e84613679565b925060208401356001600160401b0381111561372957600080fd5b61373586828701613631565b9497909650939450505050565b634e487b7160e01b600052604160045260246000fd5b604051601f8201601f191681016001600160401b038111828210171561378057613780613742565b604052919050565b600082601f83011261379957600080fd5b81356001600160401b038111156137b2576137b2613742565b6137c5601f8201601f1916602001613758565b8181528460208386010111156137da57600080fd5b816020850160208301376000918101602001919091529392505050565b6000806040838503121561380a57600080fd5b8235915060208301356001600160401b0381111561382757600080fd5b61383385828601613788565b9150509250929050565b60008060006040848603121561385257600080fd5b83356001600160401b038082111561386957600080fd5b61387587838801613631565b9095509350602086013591508082111561388e57600080fd5b5061389b86828701613788565b9150509250925092565b6000602082840312156138b757600080fd5b6113cc82613679565b6020808252825182820181905260009190848201906040850190845b818110156138f8578351835292840192918401916001016138dc565b50909695505050505050565b8015158114610dc657600080fd5b60006020828403121561392457600080fd5b81356113cc81613904565b6020808252825182820181905260009190848201906040850190845b818110156138f85783516001600160a01b03168352928401929184019160010161394b565b6000806040838503121561398357600080fd5b61398c83613679565b915060208301356001600160401b0381111561382757600080fd5b60006001600160401b038211156139c0576139c0613742565b5060051b60200190565b6000806000606084860312156139df57600080fd5b83356001600160401b03808211156139f657600080fd5b613a0287838801613788565b9450602091508186013581811115613a1957600080fd5b613a2588828901613788565b945050604086013581811115613a3a57600080fd5b86019050601f81018713613a4d57600080fd5b8035613a60613a5b826139a7565b613758565b81815260059190911b82018301908381019089831115613a7f57600080fd5b928401925b82841015613a9d57833582529284019290840190613a84565b80955050505050509250925092565b600080600060408486031215613ac157600080fd5b83356001600160401b03811115613ad757600080fd5b613ae386828701613631565b9094509250506020840135613af781613904565b809150509250925092565b602081526000825160806020840152613b1e60a08401826135a8565b905060208401516040840152604084015160608401526060840151151560808401528091505092915050565b805182526000602082015160406020850152613b6960408501826135a8565b949350505050565b6000602080830181845280855180835260408601915060408160051b870101925083870160005b82811015613bc657603f19888603018452613bb4858351613b4a565b94509285019290850190600101613b98565b5092979650505050505050565b6020815260006113cc6020830184613b4a565b600060408284031215613bf857600080fd5b604051604081016001600160401b038282108183111715613c1b57613c1b613742565b81604052829350613c2b85613679565b83526020850135915080821115613c4157600080fd5b50613c4e85828601613788565b6020830152505092915050565b600082601f830112613c6c57600080fd5b81356020613c7c613a5b836139a7565b82815260059290921b84018101918181019086841115613c9b57600080fd5b8286015b84811015613cda5780356001600160401b03811115613cbe5760008081fd5b613ccc8986838b0101613be6565b845250918301918301613c9f565b509695505050505050565b600080600060608486031215613cfa57600080fd5b83356001600160401b0380821115613d1157600080fd5b613d1d87838801613788565b9450602091508186013581811115613d3457600080fd5b8601601f81018813613d4557600080fd5b8035613d53613a5b826139a7565b81815260059190911b8201840190848101908a831115613d7257600080fd5b8584015b83811015613daa57803586811115613d8e5760008081fd5b613d9c8d8983890101613788565b845250918601918601613d76565b5096505050506040860135915080821115613dc457600080fd5b5061389b86828701613c5b565b60008060208385031215613de457600080fd5b82356001600160401b0380821115613dfb57600080fd5b818501915085601f830112613e0f57600080fd5b813581811115613e1e57600080fd5b8660208260051b8501011115613e3357600080fd5b60209290920196919550909350505050565b6000602080830181845280855180835260408601915060408160051b870101925083870160005b82811015613bc657603f19888603018452613e888583516135a8565b94509285019290850190600101613e6c565b60008060408385031215613ead57600080fd5b8235915060208301356001600160401b03811115613eca57600080fd5b61383385828601613be6565b600080600060608486031215613eeb57600080fd5b83356001600160401b0380821115613f0257600080fd5b613f0e87838801613788565b9450602091508186013581811115613f2557600080fd5b613f3188828901613788565b945050604086013581811115613f4657600080fd5b86019050601f81018713613f5957600080fd5b8035613f67613a5b826139a7565b81815260059190911b82018301908381019089831115613f8657600080fd5b928401925b82841015613a9d57613f9c84613679565b82529284019290840190613f8b565b600080600080600060608688031215613fc357600080fd5b85356001600160401b0380821115613fda57600080fd5b613fe689838a01613631565b9097509550859150613ffa60208901613679565b9450604088013591508082111561401057600080fd5b5061401d88828901613631565b969995985093965092949392505050565b6000806040838503121561404157600080fd5b8235915060208301356001600160401b0381111561405e57600080fd5b83016040818603121561407057600080fd5b809150509250929050565b828152604060208201526000613b6960408301846135a8565b600080604083850312156140a757600080fd5b6140b083613679565b9150602083013561407081613904565b600181811c908216806140d457607f821691505b60208210810361192757634e487b7160e01b600052602260045260246000fd5b81835281816020850137506000828201602090810191909152601f909101601f19169091010190565b6040815260006141316040830185876140f4565b9050826020830152949350505050565b8183823760009101908152919050565b805160208083015191908110156119275760001960209190910360031b1b16919050565b634e487b7160e01b600052601160045260246000fd5b60006001820161419d5761419d614175565b5060010190565b601f821115612b9e57600081815260208120601f850160051c810160208610156141cb5750805b601f850160051c820191505b81811015612f77578281556001016141d7565b81516001600160401b0381111561420357614203613742565b6142178161421184546140c0565b846141a4565b602080601f83116001811461424c57600084156142345750858301515b600019600386901b1c1916600185901b178555612f77565b600085815260208120601f198616915b8281101561427b5788860151825594840194600190910190840161425c565b50858210156142995787850151600019600388901b60f8161c191681555b5050505050600190811b01905550565b600081546142b6816140c0565b8085526020600183811680156142d357600181146142ed5761431b565b60ff1985168884015283151560051b88018301955061431b565b866000528260002060005b858110156143135781548a82018601529083019084016142f8565b890184019650505b505050505092915050565b60408152600061433960408301856135a8565b82810360208401526134d081856142a9565b6020808252602c908201527f46756e6374696f6e206d7573742062652063616c6c6564207468726f7567682060408201526b19195b1959d85d1958d85b1b60a21b606082015260800190565b6020808252602c908201527f46756e6374696f6e206d7573742062652063616c6c6564207468726f7567682060408201526b6163746976652070726f787960a01b606082015260800190565b600082516143f5818460208701613584565b9190910192915050565b634e487b7160e01b600052603260045260246000fd5b60408152600061442860408301856135a8565b90508260208301529392505050565b80820180821115612d5557612d55614175565b6020815260006113cc60208301846142a9565b6000808335601e1984360301811261447457600080fd5b8301803591506001600160401b0382111561448e57600080fd5b60200191503681900382131561367257600080fd5b838152818360208301376000910160200190815292915050565b81810381811115612d5557612d55614175565b634e487b7160e01b600052603160045260246000fd5b8381526040602082015260006134d06040830184866140f4565b60006020828403121561451257600080fd5b5051919050565b60608152600061452c60608301866135a8565b6001600160a01b039490941660208301525060400152919050565b60006020828403121561455957600080fd5b81516113cc81613904565b8281526000825161457c816020850160208701613584565b919091016020019392505050565b6020808252602b908201527f496e697469616c697a61626c653a20636f6e7472616374206973206e6f74206960408201526a6e697469616c697a696e6760a81b60608201526080019056fe360894a13ba1a3210667c828492db98dca3e2076cc3735a920a3ca505d382bbc4d6f6469667953706163655065726d697373696f6e7300000000000000000000416464726573733a206c6f772d6c6576656c2064656c65676174652063616c6c206661696c6564a26469706673582212203f2d03a189b8e8427c0236f174380355a4d1e008a47c72c517375780b27aca4064736f6c63430008110033",
    "linkReferences": {}
  },
  "methodIdentifiers": {
    "addPermissionToRole(uint256,string)": "66fb345c",
    "addRoleToChannel(string,address,uint256)": "1dea616a",
    "addRoleToEntitlement(uint256,(address,bytes))": "ba201ba8",
    "channels(uint256)": "e5949b5d",
    "channelsByHash(bytes32)": "129ab3c8",
    "createChannel(string,string,uint256[])": "51f83cea",
    "createRole(string,string[],(address,bytes)[])": "8fcd793d",
    "defaultEntitlements(address)": "fa6433c5",
    "disabled()": "ee070805",
    "entitlements(uint256)": "f28f9b56",
    "getChannelByHash(bytes32)": "703511f8",
    "getEntitlementIdsByRoleId(uint256)": "42486e49",
    "getEntitlements()": "487dc38c",
    "getPermissionsByRoleId(uint256)": "b4264233",
    "getRoleById(uint256)": "784c872b",
    "getRoles()": "71061398",
    "hasEntitlement(address)": "7f8d06d0",
    "initialize(string,string,address[])": "ca275931",
    "isEntitledToChannel(string,address,string)": "cea632bc",
    "isEntitledToSpace(address,string)": "20759f9e",
    "multicall(bytes[])": "ac9650d8",
    "name()": "06fdde03",
    "networkId()": "9025e64c",
    "owner()": "8da5cb5b",
    "ownerRoleId()": "d1a6a961",
    "proxiableUUID()": "52d1902d",
    "removePermissionFromRole(uint256,string)": "f740bb6b",
    "removeRole(uint256)": "92691821",
    "removeRoleFromChannel(string,address,uint256)": "baaf3d57",
    "removeRoleFromEntitlement(uint256,(address,bytes))": "dba81864",
    "renounceOwnership()": "715018a6",
    "roleCount()": "ddf96358",
    "rolesById(uint256)": "e5894ef4",
    "setChannelAccess(string,bool)": "5de151b8",
    "setEntitlement(address,bool)": "f3b96ab4",
    "setOwnerRoleId(uint256)": "4999ab16",
    "setSpaceAccess(bool)": "446dc22e",
    "transferOwnership(address)": "f2fde38b",
    "updateChannel(string,string)": "34a1dd26",
    "updateRole(uint256,string)": "32e704cc",
    "upgradeTo(address)": "3659cfe6",
    "upgradeToAndCall(address,bytes)": "4f1ef286"
  },
  "id": 13
}