{
  "abi": [
    {
      "inputs": [],
      "stateMutability": "nonpayable",
      "type": "constructor"
    },
    {
      "inputs": [],
      "name": "AddRoleFailed",
      "type": "error"
    },
    {
      "inputs": [],
      "name": "ChannelAlreadyRegistered",
      "type": "error"
    },
    {
      "inputs": [],
      "name": "ChannelDoesNotExist",
      "type": "error"
    },
    {
      "inputs": [],
      "name": "EntitlementAlreadyExists",
      "type": "error"
    },
    {
      "inputs": [],
      "name": "EntitlementAlreadyWhitelisted",
      "type": "error"
    },
    {
      "inputs": [],
      "name": "EntitlementModuleNotSupported",
      "type": "error"
    },
    {
      "inputs": [],
      "name": "EntitlementNotWhitelisted",
      "type": "error"
    },
    {
      "inputs": [],
      "name": "InvalidParameters",
      "type": "error"
    },
    {
      "inputs": [],
      "name": "MissingOwnerPermission",
      "type": "error"
    },
    {
      "inputs": [],
      "name": "NotAllowed",
      "type": "error"
    },
    {
      "inputs": [],
      "name": "PermissionAlreadyExists",
      "type": "error"
    },
    {
      "inputs": [],
      "name": "RoleDoesNotExist",
      "type": "error"
    },
    {
      "inputs": [],
      "name": "RoleIsAssignedToEntitlement",
      "type": "error"
    },
    {
      "anonymous": false,
      "inputs": [
        {
          "indexed": false,
          "internalType": "address",
          "name": "previousAdmin",
          "type": "address"
        },
        {
          "indexed": false,
          "internalType": "address",
          "name": "newAdmin",
          "type": "address"
        }
      ],
      "name": "AdminChanged",
      "type": "event"
    },
    {
      "anonymous": false,
      "inputs": [
        {
          "indexed": true,
          "internalType": "address",
          "name": "beacon",
          "type": "address"
        }
      ],
      "name": "BeaconUpgraded",
      "type": "event"
    },
    {
      "anonymous": false,
      "inputs": [
        {
          "indexed": false,
          "internalType": "uint8",
          "name": "version",
          "type": "uint8"
        }
      ],
      "name": "Initialized",
      "type": "event"
    },
    {
      "anonymous": false,
      "inputs": [
        {
          "indexed": true,
          "internalType": "address",
          "name": "implementation",
          "type": "address"
        }
      ],
      "name": "Upgraded",
      "type": "event"
    },
    {
      "inputs": [
        {
          "internalType": "uint256",
          "name": "_roleId",
          "type": "uint256"
        },
        {
          "internalType": "string",
          "name": "_permission",
          "type": "string"
        }
      ],
      "name": "addPermissionToRole",
      "outputs": [],
      "stateMutability": "nonpayable",
      "type": "function"
    },
    {
      "inputs": [
        {
          "internalType": "string",
          "name": "_channelId",
          "type": "string"
        },
        {
          "internalType": "address",
          "name": "_entitlement",
          "type": "address"
        },
        {
          "internalType": "uint256",
          "name": "_roleId",
          "type": "uint256"
        }
      ],
      "name": "addRoleToChannel",
      "outputs": [],
      "stateMutability": "nonpayable",
      "type": "function"
    },
    {
      "inputs": [
        {
          "internalType": "uint256",
          "name": "_roleId",
          "type": "uint256"
        },
        {
          "components": [
            {
              "internalType": "address",
              "name": "module",
              "type": "address"
            },
            {
              "internalType": "bytes",
              "name": "data",
              "type": "bytes"
            }
          ],
          "internalType": "struct DataTypes.Entitlement",
          "name": "_entitlement",
          "type": "tuple"
        }
      ],
      "name": "addRoleToEntitlement",
      "outputs": [],
      "stateMutability": "nonpayable",
      "type": "function"
    },
    {
      "inputs": [
        {
          "internalType": "uint256",
          "name": "",
          "type": "uint256"
        }
      ],
      "name": "channels",
      "outputs": [
        {
          "internalType": "bytes32",
          "name": "",
          "type": "bytes32"
        }
      ],
      "stateMutability": "view",
      "type": "function"
    },
    {
      "inputs": [
        {
          "internalType": "bytes32",
          "name": "",
          "type": "bytes32"
        }
      ],
      "name": "channelsByHash",
      "outputs": [
        {
          "internalType": "string",
          "name": "name",
          "type": "string"
        },
        {
          "internalType": "bytes32",
          "name": "channelId",
          "type": "bytes32"
        },
        {
          "internalType": "uint256",
          "name": "createdAt",
          "type": "uint256"
        },
        {
          "internalType": "bool",
          "name": "disabled",
          "type": "bool"
        }
      ],
      "stateMutability": "view",
      "type": "function"
    },
    {
      "inputs": [
        {
          "internalType": "string",
          "name": "channelName",
          "type": "string"
        },
        {
          "internalType": "string",
          "name": "channelNetworkId",
          "type": "string"
        },
        {
          "internalType": "uint256[]",
          "name": "roleIds",
          "type": "uint256[]"
        }
      ],
      "name": "createChannel",
      "outputs": [
        {
          "internalType": "bytes32",
          "name": "",
          "type": "bytes32"
        }
      ],
      "stateMutability": "nonpayable",
      "type": "function"
    },
    {
      "inputs": [
        {
          "internalType": "string",
          "name": "_roleName",
          "type": "string"
        },
        {
          "internalType": "string[]",
          "name": "_permissions",
          "type": "string[]"
        },
        {
          "components": [
            {
              "internalType": "address",
              "name": "module",
              "type": "address"
            },
            {
              "internalType": "bytes",
              "name": "data",
              "type": "bytes"
            }
          ],
          "internalType": "struct DataTypes.Entitlement[]",
          "name": "_entitlements",
          "type": "tuple[]"
        }
      ],
      "name": "createRole",
      "outputs": [
        {
          "internalType": "uint256",
          "name": "",
          "type": "uint256"
        }
      ],
      "stateMutability": "nonpayable",
      "type": "function"
    },
    {
      "inputs": [
        {
          "internalType": "address",
          "name": "",
          "type": "address"
        }
      ],
      "name": "defaultEntitlements",
      "outputs": [
        {
          "internalType": "bool",
          "name": "",
          "type": "bool"
        }
      ],
      "stateMutability": "view",
      "type": "function"
    },
    {
      "inputs": [],
      "name": "disabled",
      "outputs": [
        {
          "internalType": "bool",
          "name": "",
          "type": "bool"
        }
      ],
      "stateMutability": "view",
      "type": "function"
    },
    {
      "inputs": [
        {
          "internalType": "uint256",
          "name": "",
          "type": "uint256"
        }
      ],
      "name": "entitlements",
      "outputs": [
        {
          "internalType": "address",
          "name": "",
          "type": "address"
        }
      ],
      "stateMutability": "view",
      "type": "function"
    },
    {
      "inputs": [
        {
          "internalType": "bytes32",
          "name": "_channelHash",
          "type": "bytes32"
        }
      ],
      "name": "getChannelByHash",
      "outputs": [
        {
          "components": [
            {
              "internalType": "string",
              "name": "name",
              "type": "string"
            },
            {
              "internalType": "bytes32",
              "name": "channelId",
              "type": "bytes32"
            },
            {
              "internalType": "uint256",
              "name": "createdAt",
              "type": "uint256"
            },
            {
              "internalType": "bool",
              "name": "disabled",
              "type": "bool"
            }
          ],
          "internalType": "struct DataTypes.Channel",
          "name": "",
          "type": "tuple"
        }
      ],
      "stateMutability": "view",
      "type": "function"
    },
    {
      "inputs": [],
      "name": "getChannels",
      "outputs": [
        {
          "internalType": "bytes32[]",
          "name": "",
          "type": "bytes32[]"
        }
      ],
      "stateMutability": "view",
      "type": "function"
    },
    {
      "inputs": [
        {
          "internalType": "string",
          "name": "_moduleType",
          "type": "string"
        }
      ],
      "name": "getEntitlementByModuleType",
      "outputs": [
        {
          "internalType": "address",
          "name": "",
          "type": "address"
        }
      ],
      "stateMutability": "view",
      "type": "function"
    },
    {
      "inputs": [
        {
          "internalType": "uint256",
          "name": "_roleId",
          "type": "uint256"
        }
      ],
      "name": "getEntitlementIdsByRoleId",
      "outputs": [
        {
          "internalType": "bytes32[]",
          "name": "",
          "type": "bytes32[]"
        }
      ],
      "stateMutability": "view",
      "type": "function"
    },
    {
      "inputs": [],
      "name": "getEntitlements",
      "outputs": [
        {
          "internalType": "address[]",
          "name": "",
          "type": "address[]"
        }
      ],
      "stateMutability": "view",
      "type": "function"
    },
    {
      "inputs": [
        {
          "internalType": "uint256",
          "name": "_roleId",
          "type": "uint256"
        }
      ],
      "name": "getPermissionsByRoleId",
      "outputs": [
        {
          "internalType": "bytes32[]",
          "name": "",
          "type": "bytes32[]"
        }
      ],
      "stateMutability": "view",
      "type": "function"
    },
    {
      "inputs": [
        {
          "internalType": "uint256",
          "name": "_roleId",
          "type": "uint256"
        }
      ],
      "name": "getRoleById",
      "outputs": [
        {
          "components": [
            {
              "internalType": "uint256",
              "name": "roleId",
              "type": "uint256"
            },
            {
              "internalType": "string",
              "name": "name",
              "type": "string"
            }
          ],
          "internalType": "struct DataTypes.Role",
          "name": "",
          "type": "tuple"
        }
      ],
      "stateMutability": "view",
      "type": "function"
    },
    {
      "inputs": [],
      "name": "getRoles",
      "outputs": [
        {
          "components": [
            {
              "internalType": "uint256",
              "name": "roleId",
              "type": "uint256"
            },
            {
              "internalType": "string",
              "name": "name",
              "type": "string"
            }
          ],
          "internalType": "struct DataTypes.Role[]",
          "name": "",
          "type": "tuple[]"
        }
      ],
      "stateMutability": "view",
      "type": "function"
    },
    {
      "inputs": [
        {
          "internalType": "address",
          "name": "",
          "type": "address"
        }
      ],
      "name": "hasEntitlement",
      "outputs": [
        {
          "internalType": "bool",
          "name": "",
          "type": "bool"
        }
      ],
      "stateMutability": "view",
      "type": "function"
    },
    {
      "inputs": [
        {
          "internalType": "string",
          "name": "_name",
          "type": "string"
        },
        {
          "internalType": "string",
          "name": "_networkId",
          "type": "string"
        },
        {
          "internalType": "address[]",
          "name": "_entitlements",
          "type": "address[]"
        },
        {
          "internalType": "address",
          "name": "_token",
          "type": "address"
        },
        {
          "internalType": "uint256",
          "name": "_tokenId",
          "type": "uint256"
        }
      ],
      "name": "initialize",
      "outputs": [],
      "stateMutability": "nonpayable",
      "type": "function"
    },
    {
      "inputs": [
        {
          "internalType": "string",
          "name": "_channelId",
          "type": "string"
        },
        {
          "internalType": "address",
          "name": "_user",
          "type": "address"
        },
        {
          "internalType": "string",
          "name": "_permission",
          "type": "string"
        }
      ],
      "name": "isEntitledToChannel",
      "outputs": [
        {
          "internalType": "bool",
          "name": "_entitled",
          "type": "bool"
        }
      ],
      "stateMutability": "view",
      "type": "function"
    },
    {
      "inputs": [
        {
          "internalType": "address",
          "name": "_user",
          "type": "address"
        },
        {
          "internalType": "string",
          "name": "_permission",
          "type": "string"
        }
      ],
      "name": "isEntitledToSpace",
      "outputs": [
        {
          "internalType": "bool",
          "name": "_entitled",
          "type": "bool"
        }
      ],
      "stateMutability": "view",
      "type": "function"
    },
    {
      "inputs": [
        {
          "internalType": "bytes[]",
          "name": "data",
          "type": "bytes[]"
        }
      ],
      "name": "multicall",
      "outputs": [
        {
          "internalType": "bytes[]",
          "name": "results",
          "type": "bytes[]"
        }
      ],
      "stateMutability": "nonpayable",
      "type": "function"
    },
    {
      "inputs": [],
      "name": "name",
      "outputs": [
        {
          "internalType": "string",
          "name": "",
          "type": "string"
        }
      ],
      "stateMutability": "view",
      "type": "function"
    },
    {
      "inputs": [],
      "name": "networkId",
      "outputs": [
        {
          "internalType": "string",
          "name": "",
          "type": "string"
        }
      ],
      "stateMutability": "view",
      "type": "function"
    },
    {
      "inputs": [],
      "name": "owner",
      "outputs": [
        {
          "internalType": "address",
          "name": "",
          "type": "address"
        }
      ],
      "stateMutability": "view",
      "type": "function"
    },
    {
      "inputs": [],
      "name": "ownerRoleId",
      "outputs": [
        {
          "internalType": "uint256",
          "name": "",
          "type": "uint256"
        }
      ],
      "stateMutability": "view",
      "type": "function"
    },
    {
      "inputs": [],
      "name": "proxiableUUID",
      "outputs": [
        {
          "internalType": "bytes32",
          "name": "",
          "type": "bytes32"
        }
      ],
      "stateMutability": "view",
      "type": "function"
    },
    {
      "inputs": [
        {
          "internalType": "uint256",
          "name": "_roleId",
          "type": "uint256"
        },
        {
          "internalType": "string",
          "name": "_permission",
          "type": "string"
        }
      ],
      "name": "removePermissionFromRole",
      "outputs": [],
      "stateMutability": "nonpayable",
      "type": "function"
    },
    {
      "inputs": [
        {
          "internalType": "uint256",
          "name": "_roleId",
          "type": "uint256"
        }
      ],
      "name": "removeRole",
      "outputs": [],
      "stateMutability": "nonpayable",
      "type": "function"
    },
    {
      "inputs": [
        {
          "internalType": "string",
          "name": "_channelId",
          "type": "string"
        },
        {
          "internalType": "address",
          "name": "_entitlement",
          "type": "address"
        },
        {
          "internalType": "uint256",
          "name": "_roleId",
          "type": "uint256"
        }
      ],
      "name": "removeRoleFromChannel",
      "outputs": [],
      "stateMutability": "nonpayable",
      "type": "function"
    },
    {
      "inputs": [
        {
          "internalType": "uint256",
          "name": "_roleId",
          "type": "uint256"
        },
        {
          "components": [
            {
              "internalType": "address",
              "name": "module",
              "type": "address"
            },
            {
              "internalType": "bytes",
              "name": "data",
              "type": "bytes"
            }
          ],
          "internalType": "struct DataTypes.Entitlement",
          "name": "_entitlement",
          "type": "tuple"
        }
      ],
      "name": "removeRoleFromEntitlement",
      "outputs": [],
      "stateMutability": "nonpayable",
      "type": "function"
    },
    {
      "inputs": [],
      "name": "roleCount",
      "outputs": [
        {
          "internalType": "uint256",
          "name": "",
          "type": "uint256"
        }
      ],
      "stateMutability": "view",
      "type": "function"
    },
    {
      "inputs": [
        {
          "internalType": "uint256",
          "name": "",
          "type": "uint256"
        }
      ],
      "name": "rolesById",
      "outputs": [
        {
          "internalType": "uint256",
          "name": "roleId",
          "type": "uint256"
        },
        {
          "internalType": "string",
          "name": "name",
          "type": "string"
        }
      ],
      "stateMutability": "view",
      "type": "function"
    },
    {
      "inputs": [
        {
          "internalType": "string",
          "name": "_channelId",
          "type": "string"
        },
        {
          "internalType": "bool",
          "name": "_disabled",
          "type": "bool"
        }
      ],
      "name": "setChannelAccess",
      "outputs": [],
      "stateMutability": "nonpayable",
      "type": "function"
    },
    {
      "inputs": [
        {
          "internalType": "address",
          "name": "_entitlement",
          "type": "address"
        },
        {
          "internalType": "bool",
          "name": "_whitelist",
          "type": "bool"
        }
      ],
      "name": "setEntitlement",
      "outputs": [],
      "stateMutability": "nonpayable",
      "type": "function"
    },
    {
      "inputs": [
        {
          "internalType": "uint256",
          "name": "_roleId",
          "type": "uint256"
        }
      ],
      "name": "setOwnerRoleId",
      "outputs": [],
      "stateMutability": "nonpayable",
      "type": "function"
    },
    {
      "inputs": [
        {
          "internalType": "bool",
          "name": "_disabled",
          "type": "bool"
        }
      ],
      "name": "setSpaceAccess",
      "outputs": [],
      "stateMutability": "nonpayable",
      "type": "function"
    },
    {
      "inputs": [],
      "name": "token",
      "outputs": [
        {
          "internalType": "address",
          "name": "",
          "type": "address"
        }
      ],
      "stateMutability": "view",
      "type": "function"
    },
    {
      "inputs": [],
      "name": "tokenId",
      "outputs": [
        {
          "internalType": "uint256",
          "name": "",
          "type": "uint256"
        }
      ],
      "stateMutability": "view",
      "type": "function"
    },
    {
      "inputs": [
        {
          "internalType": "string",
          "name": "_channelId",
          "type": "string"
        },
        {
          "internalType": "string",
          "name": "_channelName",
          "type": "string"
        }
      ],
      "name": "updateChannel",
      "outputs": [],
      "stateMutability": "nonpayable",
      "type": "function"
    },
    {
      "inputs": [
        {
          "internalType": "uint256",
          "name": "_roleId",
          "type": "uint256"
        },
        {
          "internalType": "string",
          "name": "_roleName",
          "type": "string"
        }
      ],
      "name": "updateRole",
      "outputs": [],
      "stateMutability": "nonpayable",
      "type": "function"
    },
    {
      "inputs": [
        {
          "internalType": "address",
          "name": "_entitlement",
          "type": "address"
        },
        {
          "internalType": "address",
          "name": "_newEntitlement",
          "type": "address"
        }
      ],
      "name": "upgradeEntitlement",
      "outputs": [],
      "stateMutability": "nonpayable",
      "type": "function"
    },
    {
      "inputs": [
        {
          "internalType": "address",
          "name": "newImplementation",
          "type": "address"
        }
      ],
      "name": "upgradeTo",
      "outputs": [],
      "stateMutability": "nonpayable",
      "type": "function"
    },
    {
      "inputs": [
        {
          "internalType": "address",
          "name": "newImplementation",
          "type": "address"
        },
        {
          "internalType": "bytes",
          "name": "data",
          "type": "bytes"
        }
      ],
      "name": "upgradeToAndCall",
      "outputs": [],
      "stateMutability": "payable",
      "type": "function"
    }
  ],
  "bytecode": {
    "object": "0x60a0604052306080523480156200001557600080fd5b506200002062000026565b620000e7565b600054610100900460ff1615620000935760405162461bcd60e51b815260206004820152602760248201527f496e697469616c697a61626c653a20636f6e747261637420697320696e697469604482015266616c697a696e6760c81b606482015260840160405180910390fd5b60005460ff90811614620000e5576000805460ff191660ff9081179091556040519081527f7f26b83ff96e1f2b6a682f133852f6798a09c465da95921460cefb38474024989060200160405180910390a15b565b6080516149f56200011f60003960008181610d5d01528181610da601528181611085015281816110c5015261158a01526149f56000f3fe6080604052600436106102725760003560e01c8063870b94641161014f578063d1a6a961116100c1578063f28f9b561161007a578063f28f9b56146107a3578063f3b96ab4146107c3578063f3ce6a5b146107e3578063f740bb6b14610803578063fa6433c514610823578063fc0c546a1461085357600080fd5b8063d1a6a961146106ef578063dba8186414610705578063ddf9635814610725578063e5894ef41461073b578063e5949b5d14610769578063ee0708051461078957600080fd5b80639575f6ac116101135780639575f6ac1461062d578063ac9650d814610642578063b42642331461066f578063ba201ba81461068f578063baaf3d57146106af578063cea632bc146106cf57600080fd5b8063870b94641461058b5780638da5cb5b146105c35780638fcd793d146105d85780639025e64c146105f8578063926918211461060d57600080fd5b80634999ab16116101e85780635de151b8116101ac5780635de151b81461049f57806366fb345c146104bf578063703511f8146104df578063710613981461050c578063784c872b1461052e5780637f8d06d01461055b57600080fd5b80634999ab16146104175780634f1ef28614610437578063519607f21461044a57806351f83cea1461046a57806352d1902d1461048a57600080fd5b806332e704cc1161023a57806332e704cc1461034857806334a1dd26146103685780633659cfe61461038857806342486e49146103a8578063446dc22e146103d5578063487dc38c146103f557600080fd5b806306fdde0314610277578063129ab3c8146102a257806317d70f7c146102d25780631dea616a146102f657806320759f9e14610318575b600080fd5b34801561028357600080fd5b5061028c610873565b604051610299919061386c565b60405180910390f35b3480156102ae57600080fd5b506102c26102bd36600461387f565b610901565b6040516102999493929190613898565b3480156102de57600080fd5b506102e8609c5481565b604051908152602001610299565b34801561030257600080fd5b50610316610311366004613936565b6109b6565b005b34801561032457600080fd5b50610338610333366004613992565b610ae7565b6040519015158152602001610299565b34801561035457600080fd5b50610316610363366004613aa9565b610b5d565b34801561037457600080fd5b50610316610383366004613aef565b610c70565b34801561039457600080fd5b506103166103a3366004613b57565b610d53565b3480156103b457600080fd5b506103c86103c336600461387f565b610e3b565b6040516102999190613b74565b3480156103e157600080fd5b506103166103f0366004613bc6565b610e9d565b34801561040157600080fd5b5061040a610ed5565b6040516102999190613be3565b34801561042357600080fd5b5061031661043236600461387f565b610f37565b610316610445366004613c24565b61107b565b34801561045657600080fd5b50610316610465366004613c5d565b61114b565b34801561047657600080fd5b506102e8610485366004613cb9565b611266565b34801561049657600080fd5b506102e861157d565b3480156104ab57600080fd5b506103166104ba366004613d96565b611630565b3480156104cb57600080fd5b506103166104da366004613aa9565b6116f6565b3480156104eb57600080fd5b506104ff6104fa36600461387f565b611871565b6040516102999190613dec565b34801561051857600080fd5b50610521611969565b6040516102999190613e5b565b34801561053a57600080fd5b5061054e61054936600461387f565b611ad7565b6040516102999190613ebd565b34801561056757600080fd5b50610338610576366004613b57565b609d6020526000908152604090205460ff1681565b34801561059757600080fd5b506105ab6105a6366004613ed0565b611bad565b6040516001600160a01b039091168152602001610299565b3480156105cf57600080fd5b506105ab611c96565b3480156105e457600080fd5b506102e86105f3366004614007565b611d0d565b34801561060457600080fd5b5061028c611fb7565b34801561061957600080fd5b5061031661062836600461387f565b611fc4565b34801561063957600080fd5b506103c86120fb565b34801561064e57600080fd5b5061066261065d3660046140f3565b612152565b6040516102999190614167565b34801561067b57600080fd5b506103c861068a36600461387f565b612269565b34801561069b57600080fd5b506103166106aa3660046141bc565b6122c9565b3480156106bb57600080fd5b506103166106ca366004613936565b6123a2565b3480156106db57600080fd5b506103386106ea3660046141f8565b61249b565b3480156106fb57600080fd5b506102e8609a5481565b34801561071157600080fd5b5061031661072036600461427c565b61253e565b34801561073157600080fd5b506102e860a15481565b34801561074757600080fd5b5061075b61075636600461387f565b6127a0565b6040516102999291906142be565b34801561077557600080fd5b506102e861078436600461387f565b612845565b34801561079557600080fd5b506099546103389060ff1681565b3480156107af57600080fd5b506105ab6107be36600461387f565b612866565b3480156107cf57600080fd5b506103166107de3660046142d7565b612890565b3480156107ef57600080fd5b506103166107fe366004614305565b612960565b34801561080f57600080fd5b5061031661081e366004613aa9565b612b45565b34801561082f57600080fd5b5061033861083e366004613b57565b609e6020526000908152604090205460ff1681565b34801561085f57600080fd5b50609b546105ab906001600160a01b031681565b6097805461088090614404565b80601f01602080910402602001604051908101604052809291908181526020018280546108ac90614404565b80156108f95780601f106108ce576101008083540402835291602001916108f9565b820191906000526020600020905b8154815290600101906020018083116108dc57829003601f168201915b505050505081565b60a46020526000908152604090208054819061091c90614404565b80601f016020809104026020016040519081016040528092919081815260200182805461094890614404565b80156109955780601f1061096a57610100808354040283529160200191610995565b820191906000526020600020905b81548152906001019060200180831161097857829003601f168201915b50505050600183015460028401546003909401549293909290915060ff1684565b610a1884848080601f01602080910402602001604051908101604052809392919081815260200183838082843760009201919091525050604080518082019091526016815260008051602061497983398151915260208201529150612d2c9050565b6001600160a01b0382166000908152609d602052604090205460ff16610a515760405163c1ef36f360e01b815260040160405180910390fd5b600081815260a260205260408120549003610a7f5760405163b810dc5d60e01b815260040160405180910390fd5b60405163c513be7760e01b81526001600160a01b0383169063c513be7790610aaf90879087908690600401614461565b600060405180830381600087803b158015610ac957600080fd5b505af1158015610add573d6000803e3d6000fd5b5050505050505050565b6000805b60a054811015610b5557610b3960405180602001604052806000815250868686604051602001610b1c929190614485565b604051602081830303815290604052610b3490614495565b612d80565b15610b4357600191505b80610b4d816144cf565b915050610aeb565b509392505050565b610b9960405180602001604052806000815250604051806040016040528060168152602001600080516020614979833981519152815250612d2c565b609a548203610bbb57604051631eb49d6d60e11b815260040160405180910390fd5b600082815260a260205260408120549003610be95760405163b810dc5d60e01b815260040160405180910390fd5b8051600003610c0b57604051630e52390960e41b815260040160405180910390fd5b600082815260a260205260409020600101610c26828261452e565b5081336001600160a01b03167ff3c55faf0b13ffa681c984baddbb8ef7638e514188ea19bd6461d7f87b9c7953836098604051610c6492919061466a565b60405180910390a35050565b610cb2604051806020016040528060008152506040518060400160405280601181526020017041646452656d6f76654368616e6e656c7360781b815250612d2c565b60008383604051602001610cc7929190614485565b60408051601f198184030181529181528151602092830120600081815260a4909352908220600101549092509003610d1257604051636ddd9da960e01b815260040160405180910390fd5b8151600003610d3457604051631eb49d6d60e11b815260040160405180910390fd5b600081815260a460205260409020610d4c838261452e565b5050505050565b6001600160a01b037f0000000000000000000000000000000000000000000000000000000000000000163003610da45760405162461bcd60e51b8152600401610d9b9061468f565b60405180910390fd5b7f00000000000000000000000000000000000000000000000000000000000000006001600160a01b0316610ded600080516020614959833981519152546001600160a01b031690565b6001600160a01b031614610e135760405162461bcd60e51b8152600401610d9b906146db565b610e1c81612e39565b60408051600080825260208201909252610e3891839190612e6f565b50565b6000818152609f6020908152604091829020805483518184028101840190945280845260609392830182828015610e9157602002820191906000526020600020905b815481526020019060010190808311610e7d575b50505050509050919050565b610ea5612fdf565b610ec257604051631eb49d6d60e11b815260040160405180910390fd5b6099805460ff1916911515919091179055565b606060a0805480602002602001604051908101604052809291908181526020018280548015610f2d57602002820191906000526020600020905b81546001600160a01b03168152600190910190602001808311610f0f575b5050505050905090565b610f3f612fdf565b610f5c57604051631eb49d6d60e11b815260040160405180910390fd5b609a5415610f7d57604051631eb49d6d60e11b815260040160405180910390fd5b600081815260a260205260408120549003610fab5760405163b810dc5d60e01b815260040160405180910390fd5b6000805b600083815260a36020526040902054811015611056576040518060400160405280600581526020016427bbb732b960d91b815250604051602001610ff39190614727565b60405160208183030381529060405261100b90614495565b600084815260a36020526040902080548390811061102b5761102b614743565b9060005260206000200154036110445760019150611056565b8061104e816144cf565b915050610faf565b508061107557604051633e74bd6360e21b815260040160405180910390fd5b50609a55565b6001600160a01b037f00000000000000000000000000000000000000000000000000000000000000001630036110c35760405162461bcd60e51b8152600401610d9b9061468f565b7f00000000000000000000000000000000000000000000000000000000000000006001600160a01b031661110c600080516020614959833981519152546001600160a01b031690565b6001600160a01b0316146111325760405162461bcd60e51b8152600401610d9b906146db565b61113b82612e39565b61114782826001612e6f565b5050565b611181604051806020016040528060008152506040518060400160405280600581526020016427bbb732b960d91b815250612d2c565b6001600160a01b038216158061119e57506001600160a01b038116155b156111bc57604051630e52390960e41b815260040160405180910390fd5b6001600160a01b0382166000908152609d602052604090205460ff166111f55760405163c1ef36f360e01b815260040160405180910390fd5b604051631b2ce7f360e11b81526001600160a01b038281166004830152831690633659cfe690602401600060405180830381600087803b15801561123857600080fd5b505af1925050508015611249575060015b61114757604051630e52390960e41b815260040160405180910390fd5b60006112aa604051806020016040528060008152506040518060400160405280601181526020017041646452656d6f76654368616e6e656c7360781b815250612d2c565b6000836040516020016112bd9190614727565b60408051601f198184030181529181528151602092830120600081815260a49093529120600101549091501561130657604051630139324b60e41b815260040160405180910390fd5b604080516080810182528681526020808201849052428284015260006060830181905284815260a49091529190912081518190611343908261452e565b506020820151600182810191909155604083015160028301556060909201516003909101805460ff191691151591909117905560a58054918201815560009081527fb29a2b3b6f2ff1b765777a231725941da5072cc4fcc30ac4a2ce09706e8ddeff9091018290555b60a05481101561157257600060a082815481106113cb576113cb614743565b600091825260209091200154609a5460405163c513be7760e01b81526001600160a01b039092169250829163c513be779161140b918a9190600401614759565b600060405180830381600087803b15801561142557600080fd5b505af1158015611439573d6000803e3d6000fd5b5050505060005b855181101561155d57609a5486828151811061145e5761145e614743565b6020026020010151031561154b5760a2600087838151811061148257611482614743565b60200260200101518152602001908152602001600020600001546000036114bc5760405163b810dc5d60e01b815260040160405180910390fd5b816001600160a01b031663c513be77888884815181106114de576114de614743565b60200260200101516040518363ffffffff1660e01b8152600401611503929190614759565b600060405180830381600087803b15801561151d57600080fd5b505af192505050801561152e575060015b61154b5760405163d9afe50760e01b815260040160405180910390fd5b80611555816144cf565b915050611440565b5050808061156a906144cf565b9150506113ac565b5090505b9392505050565b6000306001600160a01b037f0000000000000000000000000000000000000000000000000000000000000000161461161d5760405162461bcd60e51b815260206004820152603860248201527f555550535570677261646561626c653a206d757374206e6f742062652063616c60448201527f6c6564207468726f7567682064656c656761746563616c6c00000000000000006064820152608401610d9b565b5060008051602061495983398151915290565b611672604051806020016040528060008152506040518060400160405280601181526020017041646452656d6f76654368616e6e656c7360781b815250612d2c565b60008383604051602001611687929190614485565b60408051601f198184030181529181528151602092830120600081815260a49093529082206001015490925090036116d257604051636ddd9da960e01b815260040160405180910390fd5b600090815260a460205260409020600301805460ff19169115159190911790555050565b61173260405180602001604052806000815250604051806040016040528060168152602001600080516020614979833981519152815250612d2c565b611759816040518060400160405280600581526020016427bbb732b960d91b815250613066565b1561177757604051631eb49d6d60e11b815260040160405180910390fd5b600082815260a2602052604081205490036117a55760405163b810dc5d60e01b815260040160405180910390fd5b6000816040516020016117b89190614727565b6040516020818303038152906040526117d090614495565b905060005b600084815260a3602052604090205481101561184957600084815260a36020526040902080548391908390811061180e5761180e614743565b90600052602060002001540361183757604051636571d65f60e01b815260040160405180910390fd5b80611841816144cf565b9150506117d5565b50600092835260a3602090815260408420805460018101825590855293209092019190915550565b604080516080810182526060808252600060208301819052928201839052810191909152600082815260a46020526040908190208151608081019092528054829082906118bd90614404565b80601f01602080910402602001604051908101604052809291908181526020018280546118e990614404565b80156119365780601f1061190b57610100808354040283529160200191611936565b820191906000526020600020905b81548152906001019060200180831161191957829003601f168201915b5050509183525050600182015460208201526002820154604082015260039091015460ff16151560609091015292915050565b6060600060a1546001600160401b03811115611987576119876139e6565b6040519080825280602002602001820160405280156119cd57816020015b6040805180820190915260008152606060208201528152602001906001900390816119a55790505b50905060005b60a154811015611ad15760a260006119ec83600161477b565b815260200190815260200160002060405180604001604052908160008201548152602001600182018054611a1f90614404565b80601f0160208091040260200160405190810160405280929190818152602001828054611a4b90614404565b8015611a985780601f10611a6d57610100808354040283529160200191611a98565b820191906000526020600020905b815481529060010190602001808311611a7b57829003601f168201915b505050505081525050828281518110611ab357611ab3614743565b60200260200101819052508080611ac9906144cf565b9150506119d3565b50919050565b60408051808201909152600081526060602082015260a2600083815260200190815260200160002060405180604001604052908160008201548152602001600182018054611b2490614404565b80601f0160208091040260200160405190810160405280929190818152602001828054611b5090614404565b8015611b9d5780601f10611b7257610100808354040283529160200191611b9d565b820191906000526020600020905b815481529060010190602001808311611b8057829003601f168201915b5050505050815250509050919050565b60008060005b60a054811015611c8f57611c4d60a08281548110611bd357611bd3614743565b600091825260208220015460408051636465e69f60e01b815290516001600160a01b0390921692636465e69f926004808401938290030181865afa158015611c1f573d6000803e3d6000fd5b505050506040513d6000823e601f3d908101601f19168201604052611c47919081019061478e565b85613066565b15611c7d5760a08181548110611c6557611c65614743565b6000918252602090912001546001600160a01b031691505b80611c87816144cf565b915050611bb3565b5092915050565b609b54609c546040516331a9108f60e11b815260048101919091526000916001600160a01b031690636352211e90602401602060405180830381865afa158015611ce4573d6000803e3d6000fd5b505050506040513d601f19601f82011682018060405250810190611d0891906147fb565b905090565b6000611d4b60405180602001604052806000815250604051806040016040528060168152602001600080516020614979833981519152815250612d2c565b600060a160008154611d5c906144cf565b91829055506040805180820182528281526020808201898152600085815260a2909252929020815181559151929350918291906001820190611d9e908261452e565b5090505060005b8551811015611e8e57609a5415158015611dfa5750611dfa868281518110611dcf57611dcf614743565b60200260200101516040518060400160405280600581526020016427bbb732b960d91b815250613066565b15611e1857604051631eb49d6d60e11b815260040160405180910390fd5b6000868281518110611e2c57611e2c614743565b6020026020010151604051602001611e449190614727565b604051602081830303815290604052611e5c90614495565b600085815260a36020908152604082208054600181018255908352912001555080611e86816144cf565b915050611da5565b5060005b8451811015611f68576000858281518110611eaf57611eaf614743565b60200260200101516000015190506000868381518110611ed157611ed1614743565b602002602001015160200151905060006001600160a01b0316826001600160a01b03161480611eff57508051155b15611f0b575050611f56565b6001600160a01b0382166000908152609d602052604081205460ff1615159003611f485760405163c1ef36f360e01b815260040160405180910390fd5b611f538583836130c0565b50505b80611f60816144cf565b915050611e92565b5081336001600160a01b03167f39772407c6dd2e83adbd292cdfa17a6817c9a7500e56cfe57b7a82d797f8d39b886098604051611fa692919061466a565b60405180910390a350949350505050565b6098805461088090614404565b61200060405180602001604052806000815250604051806040016040528060168152602001600080516020614979833981519152815250612d2c565b609a54810361202257604051631eb49d6d60e11b815260040160405180910390fd5b600081815260a2602052604081205490036120505760405163b810dc5d60e01b815260040160405180910390fd5b6000818152609f60205260409020541561207d57604051633764405360e11b815260040160405180910390fd5b600081815260a2602052604081208181559061209c60018301826137af565b5050600081815260a3602052604081206120b5916137e9565b80336001600160a01b03167f1d5667a301e36f2d5b1ee32b7f187b0adb46c706297242fa945d3fed1e7f8a1960986040516120f09190614818565b60405180910390a350565b606060a5805480602002602001604051908101604052809291908181526020018280548015610f2d57602002820191906000526020600020905b815481526020019060010190808311612135575050505050905090565b6060816001600160401b0381111561216c5761216c6139e6565b60405190808252806020026020018201604052801561219f57816020015b606081526020019060019003908161218a5790505b50905060005b82811015611c8f57600080308686858181106121c3576121c3614743565b90506020028101906121d5919061482b565b6040516121e3929190614485565b600060405180830381855af49150503d806000811461221e576040519150601f19603f3d011682016040523d82523d6000602084013e612223565b606091505b5091509150816122365761223681613230565b8084848151811061224957612249614743565b602002602001018190525050508080612261906144cf565b9150506121a5565b600081815260a36020908152604091829020805483518184028101840190945280845260609392830182828015610e915760200282019190600052602060002090815481526020019060010190808311610e7d5750505050509050919050565b61230560405180602001604052806000815250604051806040016040528060168152602001600080516020614979833981519152815250612d2c565b80516001600160a01b03166000908152609d602052604090205460ff1661233f5760405163c1ef36f360e01b815260040160405180910390fd5b600082815260a26020526040812054900361236d5760405163b810dc5d60e01b815260040160405180910390fd5b609a54820361238f57604051631eb49d6d60e11b815260040160405180910390fd5b61114782826000015183602001516130c0565b61240484848080601f01602080910402602001604051908101604052809392919081815260200183838082843760009201919091525050604080518082019091526016815260008051602061497983398151915260208201529150612d2c9050565b6001600160a01b0382166000908152609d602052604090205460ff1661243d5760405163c1ef36f360e01b815260040160405180910390fd5b600081815260a26020526040812054900361246b5760405163b810dc5d60e01b815260040160405180910390fd5b604051637997c1e760e11b81526001600160a01b0383169063f32f83ce90610aaf90879087908690600401614461565b60008481036124bd57604051630e52390960e41b815260040160405180910390fd5b60005b60a0548110156125345761251887878080601f01602080910402602001604051908101604052809392919081815260200183838082843760009201919091525050604051899250610b1c915088908890602001614485565b1561252257600191505b8061252c816144cf565b9150506124c0565b5095945050505050565b61257a60405180602001604052806000815250604051806040016040528060168152602001600080516020614979833981519152815250612d2c565b609a54820361259c57604051631eb49d6d60e11b815260040160405180910390fd5b609d60006125ad6020840184613b57565b6001600160a01b0316815260208101919091526040016000205460ff166125e75760405163c1ef36f360e01b815260040160405180910390fd5b600082815260a2602052604081205490036126155760405163b810dc5d60e01b815260040160405180910390fd5b600082612625602084018461482b565b60405160200161263793929190614871565b60408051601f1981840301815291815281516020928301206000868152609f909352908220909250905b81548110156127155781818154811061267c5761267c614743565b90600052602060002001548303612703578154829061269d9060019061488b565b815481106126ad576126ad614743565b90600052602060002001548282815481106126ca576126ca614743565b9060005260206000200181905550818054806126e8576126e861489e565b60019003818190600052602060002001600090559055612715565b8061270d816144cf565b915050612661565b506127236020840184613b57565b6001600160a01b031663fa6d1adf8561273f602087018761482b565b6040518463ffffffff1660e01b815260040161275d939291906148b4565b6020604051808303816000875af115801561277c573d6000803e3d6000fd5b505050506040513d601f19601f82011682018060405250810190610d4c91906148ce565b60a260205260009081526040902080546001820180549192916127c290614404565b80601f01602080910402602001604051908101604052809291908181526020018280546127ee90614404565b801561283b5780601f106128105761010080835404028352916020019161283b565b820191906000526020600020905b81548152906001019060200180831161281e57829003601f168201915b5050505050905082565b60a5818154811061285557600080fd5b600091825260209091200154905081565b60a0818154811061287657600080fd5b6000918252602090912001546001600160a01b0316905081565b6128c6604051806020016040528060008152506040518060400160405280600581526020016427bbb732b960d91b815250612d2c565b6128cf826132fd565b8080156128f457506001600160a01b0382166000908152609d602052604090205460ff165b156129125760405163186abc9b60e01b815260040160405180910390fd5b8015801561293857506001600160a01b0382166000908152609e602052604090205460ff165b1561295657604051631eb49d6d60e11b815260040160405180910390fd5b611147828261338e565b600054610100900460ff16158080156129805750600054600160ff909116105b8061299a5750303b15801561299a575060005460ff166001145b6129fd5760405162461bcd60e51b815260206004820152602e60248201527f496e697469616c697a61626c653a20636f6e747261637420697320616c72656160448201526d191e481a5b9a5d1a585b1a5e995960921b6064820152608401610d9b565b6000805460ff191660011790558015612a20576000805461ff0019166101001790555b612a2861350f565b612a3061350f565b6097612a3c878261452e565b506098612a49868261452e565b50609b80546001600160a01b0319166001600160a01b038516179055609c82905560005b8451811015612af657612a9a858281518110612a8b57612a8b614743565b6020026020010151600161338e565b6001609e6000878481518110612ab257612ab2614743565b6020908102919091018101516001600160a01b03168252810191909152604001600020805460ff191691151591909117905580612aee816144cf565b915050612a6d565b508015612b3d576000805461ff0019169055604051600181527f7f26b83ff96e1f2b6a682f133852f6798a09c465da95921460cefb38474024989060200160405180910390a15b505050505050565b612b8160405180602001604052806000815250604051806040016040528060168152602001600080516020614979833981519152815250612d2c565b612ba8816040518060400160405280600581526020016427bbb732b960d91b815250613066565b15612bc657604051631eb49d6d60e11b815260040160405180910390fd5b600082815260a260205260408120549003612bf45760405163b810dc5d60e01b815260040160405180910390fd5b600081604051602001612c079190614727565b604051602081830303815290604052612c1f90614495565b905060005b600084815260a36020526040902054811015612d2657600084815260a360205260409020805483919083908110612c5d57612c5d614743565b906000526020600020015403612d1457600084815260a3602052604090208054612c899060019061488b565b81548110612c9957612c99614743565b906000526020600020015460a360008681526020019081526020016000208281548110612cc857612cc8614743565b906000526020600020018190555060a36000858152602001908152602001600020805480612cf857612cf861489e565b6001900381819060005260206000200160009055905550505050565b80612d1e816144cf565b915050612c24565b50505050565b612d34612fdf565b80612d5e575060995460ff16158015612d5e5750612d5e823383604051602001610b1c9190614727565b15612d67575050565b604051631eb49d6d60e11b815260040160405180910390fd5b6000805b60a054811015610b555760a08181548110612da157612da1614743565b60009182526020909120015460405162169d5560e31b81526001600160a01b039091169062b4eaa890612ddc908890889088906004016148e7565b602060405180830381865afa158015612df9573d6000803e3d6000fd5b505050506040513d601f19601f82011682018060405250810190612e1d9190614915565b15612e2757600191505b80612e31816144cf565b915050612d84565b610e38604051806020016040528060008152506040518060400160405280600581526020016427bbb732b960d91b815250612d2c565b7f4910fdfa16fed3260ed0e7147f7cc6da11a60208b5b9406d12a635614ffd91435460ff1615612ea757612ea28361357c565b505050565b826001600160a01b03166352d1902d6040518163ffffffff1660e01b8152600401602060405180830381865afa925050508015612f01575060408051601f3d908101601f19168201909252612efe918101906148ce565b60015b612f645760405162461bcd60e51b815260206004820152602e60248201527f45524331393637557067726164653a206e657720696d706c656d656e7461746960448201526d6f6e206973206e6f74205555505360901b6064820152608401610d9b565b6000805160206149598339815191528114612fd35760405162461bcd60e51b815260206004820152602960248201527f45524331393637557067726164653a20756e737570706f727465642070726f786044820152681a58589b195555525160ba1b6064820152608401610d9b565b50612ea2838383613618565b600033609b54609c546040516331a9108f60e11b815260048101919091526001600160a01b039283169290911690636352211e90602401602060405180830381865afa158015613033573d6000803e3d6000fd5b505050506040513d601f19601f8201168201806040525081019061305791906147fb565b6001600160a01b031614905090565b6000816040516020016130799190614727565b60405160208183030381529060405280519060200120836040516020016130a09190614727565b604051602081830303815290604052805190602001201490505b92915050565b600083826040516020016130d5929190614932565b60408051601f1981840301815282825280516020918201206000888152609f83528381208054808502870185019095528486529195509392909183018282801561313e57602002820191906000526020600020905b81548152602001906001019080831161312a575b5050505050905060005b815181101561319c578282828151811061316457613164614743565b60200260200101510361318a5760405163c5c9ad6760e01b815260040160405180910390fd5b80613194816144cf565b915050613148565b506000858152609f602090815260408083208054600181018255908452919092200183905551633be2f95d60e21b81526001600160a01b0385169063ef8be574906131ed90889087906004016142be565b6020604051808303816000875af115801561320c573d6000803e3d6000fd5b505050506040513d601f19601f82011682018060405250810190612b3d91906148ce565b6004815110156132755760405162461bcd60e51b815260206004820152601060248201526f1d5b9a185b991b1959081c995d995c9d60821b6044820152606401610d9b565b602081015163b1b7848f60e01b6001600160e01b03198216016132f457604080518082018252600e81526d70616e69636b65643a2030785f5f60901b602082018181526024860151600481811c600f908116603090810160081b9184160117909317909152925162461bcd60e51b8152919291610d9b9184910161386c565b81518060208401fd5b6040516301ffc9a760e01b815263e5e65adf60e01b60048201526001600160a01b038216906301ffc9a790602401602060405180830381865afa158015613348573d6000803e3d6000fd5b505050506040513d601f19601f8201168201806040525081019061336c9190614915565b1515600003610e3857604051636d9250f160e11b815260040160405180910390fd5b6001600160a01b0382166000908152609d60205260409020805460ff1916821580159190911790915561340c5760a080546001810182556000919091527f78fdc8d422c49ced035a9edf18d00d3c6a8d81df210f3e5e448e045e77b41e880180546001600160a01b0384166001600160a01b03199091161790555050565b60005b60a054811015612ea25760a0818154811061342c5761342c614743565b6000918252602090912001546001600160a01b03908116908416036134fd5760a0805461345b9060019061488b565b8154811061346b5761346b614743565b60009182526020909120015460a080546001600160a01b03909216918390811061349757613497614743565b9060005260206000200160006101000a8154816001600160a01b0302191690836001600160a01b0316021790555060a08054806134d6576134d661489e565b600082815260209020810160001990810180546001600160a01b0319169055019055505050565b80613507816144cf565b91505061340f565b600054610100900460ff1661357a5760405162461bcd60e51b815260206004820152602b60248201527f496e697469616c697a61626c653a20636f6e7472616374206973206e6f74206960448201526a6e697469616c697a696e6760a81b6064820152608401610d9b565b565b6001600160a01b0381163b6135e95760405162461bcd60e51b815260206004820152602d60248201527f455243313936373a206e657720696d706c656d656e746174696f6e206973206e60448201526c1bdd08184818dbdb9d1c9858dd609a1b6064820152608401610d9b565b60008051602061495983398151915280546001600160a01b0319166001600160a01b0392909216919091179055565b6136218361363d565b60008251118061362e5750805b15612ea257612d26838361367d565b6136468161357c565b6040516001600160a01b038216907fbc7cd75a20ee27fd9adebab32041f755214dbc6bffa90cc0225b39da2e5c2d3b90600090a250565b60606001600160a01b0383163b6136e55760405162461bcd60e51b815260206004820152602660248201527f416464726573733a2064656c65676174652063616c6c20746f206e6f6e2d636f6044820152651b9d1c9858dd60d21b6064820152608401610d9b565b600080846001600160a01b0316846040516137009190614727565b600060405180830381855af49150503d806000811461373b576040519150601f19603f3d011682016040523d82523d6000602084013e613740565b606091505b5091509150613768828260405180606001604052806027815260200161499960279139613771565b95945050505050565b60608315613780575081611576565b61157683838151156137955781518083602001fd5b8060405162461bcd60e51b8152600401610d9b919061386c565b5080546137bb90614404565b6000825580601f106137cb575050565b601f016020900490600052602060002090810190610e389190613803565b5080546000825590600052602060002090810190610e3891905b5b808211156138185760008155600101613804565b5090565b60005b8381101561383757818101518382015260200161381f565b50506000910152565b6000815180845261385881602086016020860161381c565b601f01601f19169290920160200192915050565b6020815260006115766020830184613840565b60006020828403121561389157600080fd5b5035919050565b6080815260006138ab6080830187613840565b60208301959095525060408101929092521515606090910152919050565b60008083601f8401126138db57600080fd5b5081356001600160401b038111156138f257600080fd5b60208301915083602082850101111561390a57600080fd5b9250929050565b6001600160a01b0381168114610e3857600080fd5b803561393181613911565b919050565b6000806000806060858703121561394c57600080fd5b84356001600160401b0381111561396257600080fd5b61396e878288016138c9565b909550935050602085013561398281613911565b9396929550929360400135925050565b6000806000604084860312156139a757600080fd5b83356139b281613911565b925060208401356001600160401b038111156139cd57600080fd5b6139d9868287016138c9565b9497909650939450505050565b634e487b7160e01b600052604160045260246000fd5b604051601f8201601f191681016001600160401b0381118282101715613a2457613a246139e6565b604052919050565b60006001600160401b03821115613a4557613a456139e6565b50601f01601f191660200190565b600082601f830112613a6457600080fd5b8135613a77613a7282613a2c565b6139fc565b818152846020838601011115613a8c57600080fd5b816020850160208301376000918101602001919091529392505050565b60008060408385031215613abc57600080fd5b8235915060208301356001600160401b03811115613ad957600080fd5b613ae585828601613a53565b9150509250929050565b600080600060408486031215613b0457600080fd5b83356001600160401b0380821115613b1b57600080fd5b613b27878388016138c9565b90955093506020860135915080821115613b4057600080fd5b50613b4d86828701613a53565b9150509250925092565b600060208284031215613b6957600080fd5b813561157681613911565b6020808252825182820181905260009190848201906040850190845b81811015613bac57835183529284019291840191600101613b90565b50909695505050505050565b8015158114610e3857600080fd5b600060208284031215613bd857600080fd5b813561157681613bb8565b6020808252825182820181905260009190848201906040850190845b81811015613bac5783516001600160a01b031683529284019291840191600101613bff565b60008060408385031215613c3757600080fd5b8235613c4281613911565b915060208301356001600160401b03811115613ad957600080fd5b60008060408385031215613c7057600080fd5b8235613c7b81613911565b91506020830135613c8b81613911565b809150509250929050565b60006001600160401b03821115613caf57613caf6139e6565b5060051b60200190565b600080600060608486031215613cce57600080fd5b83356001600160401b0380821115613ce557600080fd5b613cf187838801613a53565b9450602091508186013581811115613d0857600080fd5b613d1488828901613a53565b945050604086013581811115613d2957600080fd5b86019050601f81018713613d3c57600080fd5b8035613d4a613a7282613c96565b81815260059190911b82018301908381019089831115613d6957600080fd5b928401925b82841015613d8757833582529284019290840190613d6e565b80955050505050509250925092565b600080600060408486031215613dab57600080fd5b83356001600160401b03811115613dc157600080fd5b613dcd868287016138c9565b9094509250506020840135613de181613bb8565b809150509250925092565b602081526000825160806020840152613e0860a0840182613840565b905060208401516040840152604084015160608401526060840151151560808401528091505092915050565b805182526000602082015160406020850152613e536040850182613840565b949350505050565b6000602080830181845280855180835260408601915060408160051b870101925083870160005b82811015613eb057603f19888603018452613e9e858351613e34565b94509285019290850190600101613e82565b5092979650505050505050565b6020815260006115766020830184613e34565b600060208284031215613ee257600080fd5b81356001600160401b03811115613ef857600080fd5b613e5384828501613a53565b600060408284031215613f1657600080fd5b604051604081016001600160401b038282108183111715613f3957613f396139e6565b8160405282935084359150613f4d82613911565b90825260208401359080821115613f6357600080fd5b50613f7085828601613a53565b6020830152505092915050565b600082601f830112613f8e57600080fd5b81356020613f9e613a7283613c96565b82815260059290921b84018101918181019086841115613fbd57600080fd5b8286015b84811015613ffc5780356001600160401b03811115613fe05760008081fd5b613fee8986838b0101613f04565b845250918301918301613fc1565b509695505050505050565b60008060006060848603121561401c57600080fd5b83356001600160401b038082111561403357600080fd5b61403f87838801613a53565b945060209150818601358181111561405657600080fd5b8601601f8101881361406757600080fd5b8035614075613a7282613c96565b81815260059190911b8201840190848101908a83111561409457600080fd5b8584015b838110156140cc578035868111156140b05760008081fd5b6140be8d8983890101613a53565b845250918601918601614098565b50965050505060408601359150808211156140e657600080fd5b50613b4d86828701613f7d565b6000806020838503121561410657600080fd5b82356001600160401b038082111561411d57600080fd5b818501915085601f83011261413157600080fd5b81358181111561414057600080fd5b8660208260051b850101111561415557600080fd5b60209290920196919550909350505050565b6000602080830181845280855180835260408601915060408160051b870101925083870160005b82811015613eb057603f198886030184526141aa858351613840565b9450928501929085019060010161418e565b600080604083850312156141cf57600080fd5b8235915060208301356001600160401b038111156141ec57600080fd5b613ae585828601613f04565b60008060008060006060868803121561421057600080fd5b85356001600160401b038082111561422757600080fd5b61423389838a016138c9565b90975095506020880135915061424882613911565b9093506040870135908082111561425e57600080fd5b5061426b888289016138c9565b969995985093965092949392505050565b6000806040838503121561428f57600080fd5b8235915060208301356001600160401b038111156142ac57600080fd5b830160408186031215613c8b57600080fd5b828152604060208201526000613e536040830184613840565b600080604083850312156142ea57600080fd5b82356142f581613911565b91506020830135613c8b81613bb8565b600080600080600060a0868803121561431d57600080fd5b85356001600160401b038082111561433457600080fd5b61434089838a01613a53565b965060209150818801358181111561435757600080fd5b6143638a828b01613a53565b96505060408801358181111561437857600080fd5b88019050601f8101891361438b57600080fd5b8035614399613a7282613c96565b81815260059190911b8201830190838101908b8311156143b857600080fd5b928401925b828410156143df5783356143d081613911565b825292840192908401906143bd565b80975050505050506143f360608701613926565b949793965091946080013592915050565b600181811c9082168061441857607f821691505b602082108103611ad157634e487b7160e01b600052602260045260246000fd5b81835281816020850137506000828201602090810191909152601f909101601f19169091010190565b604081526000614475604083018587614438565b9050826020830152949350505050565b8183823760009101908152919050565b80516020808301519190811015611ad15760001960209190910360031b1b16919050565b634e487b7160e01b600052601160045260246000fd5b6000600182016144e1576144e16144b9565b5060010190565b601f821115612ea257600081815260208120601f850160051c8101602086101561450f5750805b601f850160051c820191505b81811015612b3d5782815560010161451b565b81516001600160401b03811115614547576145476139e6565b61455b816145558454614404565b846144e8565b602080601f83116001811461459057600084156145785750858301515b600019600386901b1c1916600185901b178555612b3d565b600085815260208120601f198616915b828110156145bf578886015182559484019460019091019084016145a0565b50858210156145dd5787850151600019600388901b60f8161c191681555b5050505050600190811b01905550565b600081546145fa81614404565b80855260206001838116801561461757600181146146315761465f565b60ff1985168884015283151560051b88018301955061465f565b866000528260002060005b858110156146575781548a820186015290830190840161463c565b890184019650505b505050505092915050565b60408152600061467d6040830185613840565b828103602084015261376881856145ed565b6020808252602c908201527f46756e6374696f6e206d7573742062652063616c6c6564207468726f7567682060408201526b19195b1959d85d1958d85b1b60a21b606082015260800190565b6020808252602c908201527f46756e6374696f6e206d7573742062652063616c6c6564207468726f7567682060408201526b6163746976652070726f787960a01b606082015260800190565b6000825161473981846020870161381c565b9190910192915050565b634e487b7160e01b600052603260045260246000fd5b60408152600061476c6040830185613840565b90508260208301529392505050565b808201808211156130ba576130ba6144b9565b6000602082840312156147a057600080fd5b81516001600160401b038111156147b657600080fd5b8201601f810184136147c757600080fd5b80516147d5613a7282613a2c565b8181528560208385010111156147ea57600080fd5b61376882602083016020860161381c565b60006020828403121561480d57600080fd5b815161157681613911565b60208152600061157660208301846145ed565b6000808335601e1984360301811261484257600080fd5b8301803591506001600160401b0382111561485c57600080fd5b60200191503681900382131561390a57600080fd5b838152818360208301376000910160200190815292915050565b818103818111156130ba576130ba6144b9565b634e487b7160e01b600052603160045260246000fd5b838152604060208201526000613768604083018486614438565b6000602082840312156148e057600080fd5b5051919050565b6060815260006148fa6060830186613840565b6001600160a01b039490941660208301525060400152919050565b60006020828403121561492757600080fd5b815161157681613bb8565b8281526000825161494a81602085016020870161381c565b91909101602001939250505056fe360894a13ba1a3210667c828492db98dca3e2076cc3735a920a3ca505d382bbc4d6f6469667953706163655065726d697373696f6e7300000000000000000000416464726573733a206c6f772d6c6576656c2064656c65676174652063616c6c206661696c6564a26469706673582212204c35fbfdeed0d269b61cd895fefb693d803581406d830d23477fb75c29e843ff64736f6c63430008110033",
    "linkReferences": {}
  },
  "methodIdentifiers": {
    "addPermissionToRole(uint256,string)": "66fb345c",
    "addRoleToChannel(string,address,uint256)": "1dea616a",
    "addRoleToEntitlement(uint256,(address,bytes))": "ba201ba8",
    "channels(uint256)": "e5949b5d",
    "channelsByHash(bytes32)": "129ab3c8",
    "createChannel(string,string,uint256[])": "51f83cea",
    "createRole(string,string[],(address,bytes)[])": "8fcd793d",
    "defaultEntitlements(address)": "fa6433c5",
    "disabled()": "ee070805",
    "entitlements(uint256)": "f28f9b56",
    "getChannelByHash(bytes32)": "703511f8",
    "getChannels()": "9575f6ac",
    "getEntitlementByModuleType(string)": "870b9464",
    "getEntitlementIdsByRoleId(uint256)": "42486e49",
    "getEntitlements()": "487dc38c",
    "getPermissionsByRoleId(uint256)": "b4264233",
    "getRoleById(uint256)": "784c872b",
    "getRoles()": "71061398",
    "hasEntitlement(address)": "7f8d06d0",
    "initialize(string,string,address[],address,uint256)": "f3ce6a5b",
    "isEntitledToChannel(string,address,string)": "cea632bc",
    "isEntitledToSpace(address,string)": "20759f9e",
    "multicall(bytes[])": "ac9650d8",
    "name()": "06fdde03",
    "networkId()": "9025e64c",
    "owner()": "8da5cb5b",
    "ownerRoleId()": "d1a6a961",
    "proxiableUUID()": "52d1902d",
    "removePermissionFromRole(uint256,string)": "f740bb6b",
    "removeRole(uint256)": "92691821",
    "removeRoleFromChannel(string,address,uint256)": "baaf3d57",
    "removeRoleFromEntitlement(uint256,(address,bytes))": "dba81864",
    "roleCount()": "ddf96358",
    "rolesById(uint256)": "e5894ef4",
    "setChannelAccess(string,bool)": "5de151b8",
    "setEntitlement(address,bool)": "f3b96ab4",
    "setOwnerRoleId(uint256)": "4999ab16",
    "setSpaceAccess(bool)": "446dc22e",
    "token()": "fc0c546a",
    "tokenId()": "17d70f7c",
    "updateChannel(string,string)": "34a1dd26",
    "updateRole(uint256,string)": "32e704cc",
    "upgradeEntitlement(address,address)": "519607f2",
    "upgradeTo(address)": "3659cfe6",
    "upgradeToAndCall(address,bytes)": "4f1ef286"
  },
  "id": 13
}