{
  "abi": [
    {
      "inputs": [
        {
          "internalType": "string",
          "name": "name_",
          "type": "string"
        },
        {
          "internalType": "string",
          "name": "description_",
          "type": "string"
        },
        {
          "internalType": "string",
          "name": "moduleType_",
          "type": "string"
        },
        {
          "internalType": "address",
          "name": "spaceManager_",
          "type": "address"
        },
        {
          "internalType": "address",
          "name": "roleManager_",
          "type": "address"
        },
        {
          "internalType": "address",
          "name": "permissionRegistry_",
          "type": "address"
        }
      ],
      "stateMutability": "nonpayable",
      "type": "constructor"
    },
    {
      "inputs": [],
      "name": "InvalidParameters",
      "type": "error"
    },
    {
      "inputs": [],
      "name": "NotSpaceManager",
      "type": "error"
    },
    {
      "inputs": [],
      "name": "_permisionRegistry",
      "outputs": [
        {
          "internalType": "address",
          "name": "",
          "type": "address"
        }
      ],
      "stateMutability": "view",
      "type": "function"
    },
    {
      "inputs": [],
      "name": "_roleManager",
      "outputs": [
        {
          "internalType": "address",
          "name": "",
          "type": "address"
        }
      ],
      "stateMutability": "view",
      "type": "function"
    },
    {
      "inputs": [],
      "name": "_spaceManager",
      "outputs": [
        {
          "internalType": "address",
          "name": "",
          "type": "address"
        }
      ],
      "stateMutability": "view",
      "type": "function"
    },
    {
      "inputs": [
        {
          "internalType": "uint256",
          "name": "spaceId",
          "type": "uint256"
        },
        {
          "internalType": "uint256",
          "name": "channelId",
          "type": "uint256"
        },
        {
          "internalType": "uint256",
          "name": "roleId",
          "type": "uint256"
        }
      ],
      "name": "addRoleIdToChannel",
      "outputs": [],
      "stateMutability": "nonpayable",
      "type": "function"
    },
    {
      "inputs": [],
      "name": "description",
      "outputs": [
        {
          "internalType": "string",
          "name": "",
          "type": "string"
        }
      ],
      "stateMutability": "view",
      "type": "function"
    },
    {
      "inputs": [
        {
          "internalType": "uint256",
          "name": "spaceId",
          "type": "uint256"
        },
        {
          "internalType": "address",
          "name": "user",
          "type": "address"
        }
      ],
      "name": "getUserRoles",
      "outputs": [
        {
          "components": [
            {
              "internalType": "uint256",
              "name": "roleId",
              "type": "uint256"
            },
            {
              "internalType": "string",
              "name": "name",
              "type": "string"
            }
          ],
          "internalType": "struct DataTypes.Role[]",
          "name": "",
          "type": "tuple[]"
        }
      ],
      "stateMutability": "view",
      "type": "function"
    },
    {
      "inputs": [
        {
          "internalType": "uint256",
          "name": "spaceId",
          "type": "uint256"
        },
        {
          "internalType": "uint256",
          "name": "channelId",
          "type": "uint256"
        },
        {
          "internalType": "address",
          "name": "user",
          "type": "address"
        },
        {
          "components": [
            {
              "internalType": "string",
              "name": "name",
              "type": "string"
            }
          ],
          "internalType": "struct DataTypes.Permission",
          "name": "permission",
          "type": "tuple"
        }
      ],
      "name": "isEntitled",
      "outputs": [
        {
          "internalType": "bool",
          "name": "",
          "type": "bool"
        }
      ],
      "stateMutability": "view",
      "type": "function"
    },
    {
      "inputs": [
        {
          "internalType": "uint256",
          "name": "spaceId",
          "type": "uint256"
        },
        {
          "internalType": "address",
          "name": "user",
          "type": "address"
        },
        {
          "internalType": "uint256",
          "name": "entitlementId",
          "type": "uint256"
        }
      ],
      "name": "isTokenEntitled",
      "outputs": [
        {
          "internalType": "bool",
          "name": "",
          "type": "bool"
        }
      ],
      "stateMutability": "view",
      "type": "function"
    },
    {
      "inputs": [],
      "name": "moduleType",
      "outputs": [
        {
          "internalType": "string",
          "name": "",
          "type": "string"
        }
      ],
      "stateMutability": "view",
      "type": "function"
    },
    {
      "inputs": [],
      "name": "name",
      "outputs": [
        {
          "internalType": "string",
          "name": "",
          "type": "string"
        }
      ],
      "stateMutability": "view",
      "type": "function"
    },
    {
      "inputs": [
        {
          "internalType": "uint256",
          "name": "spaceId",
          "type": "uint256"
        },
        {
          "internalType": "uint256",
          "name": "channelId",
          "type": "uint256"
        },
        {
          "internalType": "uint256",
          "name": "roleId",
          "type": "uint256"
        }
      ],
      "name": "removeRoleIdFromChannel",
      "outputs": [],
      "stateMutability": "nonpayable",
      "type": "function"
    },
    {
      "inputs": [
        {
          "internalType": "uint256",
          "name": "spaceId",
          "type": "uint256"
        },
        {
          "internalType": "uint256",
          "name": "roleId",
          "type": "uint256"
        },
        {
          "internalType": "bytes",
          "name": "entitlementData",
          "type": "bytes"
        }
      ],
      "name": "removeSpaceEntitlement",
      "outputs": [],
      "stateMutability": "nonpayable",
      "type": "function"
    },
    {
      "inputs": [
        {
          "internalType": "uint256",
          "name": "spaceId",
          "type": "uint256"
        },
        {
          "internalType": "uint256",
          "name": "roleId",
          "type": "uint256"
        },
        {
          "internalType": "bytes",
          "name": "entitlementData",
          "type": "bytes"
        }
      ],
      "name": "setSpaceEntitlement",
      "outputs": [],
      "stateMutability": "nonpayable",
      "type": "function"
    },
    {
      "inputs": [
        {
          "internalType": "bytes4",
          "name": "interfaceId",
          "type": "bytes4"
        }
      ],
      "name": "supportsInterface",
      "outputs": [
        {
          "internalType": "bool",
          "name": "",
          "type": "bool"
        }
      ],
      "stateMutability": "view",
      "type": "function"
    }
  ],
  "bytecode": {
    "object": "0x60e06040523480156200001157600080fd5b506040516200265f3803806200265f8339810160408190526200003491620001a7565b85858585858562000045836200009a565b6000620000538782620002fe565b506001620000628682620002fe565b506002620000718582620002fe565b506001600160a01b0392831660805290821660a0521660c05250620003ca975050505050505050565b6001600160a01b038116620000c257604051630e52390960e41b815260040160405180910390fd5b50565b634e487b7160e01b600052604160045260246000fd5b600082601f830112620000ed57600080fd5b81516001600160401b03808211156200010a576200010a620000c5565b604051601f8301601f19908116603f01168101908282118183101715620001355762000135620000c5565b816040528381526020925086838588010111156200015257600080fd5b600091505b8382101562000176578582018301518183018401529082019062000157565b600093810190920192909252949350505050565b80516001600160a01b0381168114620001a257600080fd5b919050565b60008060008060008060c08789031215620001c157600080fd5b86516001600160401b0380821115620001d957600080fd5b620001e78a838b01620000db565b97506020890151915080821115620001fe57600080fd5b6200020c8a838b01620000db565b965060408901519150808211156200022357600080fd5b506200023289828a01620000db565b94505062000243606088016200018a565b925062000253608088016200018a565b91506200026360a088016200018a565b90509295509295509295565b600181811c908216806200028457607f821691505b602082108103620002a557634e487b7160e01b600052602260045260246000fd5b50919050565b601f821115620002f957600081815260208120601f850160051c81016020861015620002d45750805b601f850160051c820191505b81811015620002f557828155600101620002e0565b5050505b505050565b81516001600160401b038111156200031a576200031a620000c5565b62000332816200032b84546200026f565b84620002ab565b602080601f8311600181146200036a5760008415620003515750858301515b600019600386901b1c1916600185901b178555620002f5565b600085815260208120601f198616915b828110156200039b578886015182559484019460019091019084016200037a565b5085821015620003ba5787850151600019600388901b60f8161c191681555b5050505050600190811b01905550565b60805160a05160c05161223b6200042460003960006101b801526000818161022801528181610b550152611744015260008181610131015281816103a9015281816105600152818161060001526106e3015261223b6000f3fe608060405234801561001057600080fd5b50600436106100ea5760003560e01c80635c1b185d1161008c5780637284e416116100665780637284e41614610208578063c7f032f114610210578063f4339a9714610223578063f725f2f61461024a57600080fd5b80635c1b185d146101da5780636465e69f146101ed57806366218999146101f557600080fd5b80633d1dea8c116100c85780633d1dea8c1461017857806340a74b431461018d5780634b0fd1a2146101a05780635acad43c146101b357600080fd5b806301ffc9a7146100ef57806306fdde03146101175780633820c2ad1461012c575b600080fd5b6101026100fd366004611937565b61026a565b60405190151581526020015b60405180910390f35b61011f610303565b60405161010e91906119e7565b6101537f000000000000000000000000000000000000000000000000000000000000000081565b60405173ffffffffffffffffffffffffffffffffffffffff909116815260200161010e565b61018b6101863660046119fa565b610391565b005b61018b61019b366004611a7a565b610548565b61018b6101ae3660046119fa565b6105e8565b6101537f000000000000000000000000000000000000000000000000000000000000000081565b61018b6101e8366004611a7a565b6106cb565b61011f610821565b610102610203366004611bd8565b61082e565b61011f61085c565b61010261021e366004611cb1565b610869565b6101537f000000000000000000000000000000000000000000000000000000000000000081565b61025d610258366004611ce9565b610a03565b60405161010e9190611d19565b60007fffffffff0000000000000000000000000000000000000000000000000000000082167febb6cfd50000000000000000000000000000000000000000000000000000000014806102fd57507f01ffc9a7000000000000000000000000000000000000000000000000000000007fffffffff000000000000000000000000000000000000000000000000000000008316145b92915050565b6000805461031090611dab565b80601f016020809104026020016040519081016040528092919081815260200182805461033c90611dab565b80156103895780601f1061035e57610100808354040283529160200191610389565b820191906000526020600020905b81548152906001019060200180831161036c57829003601f168201915b505050505081565b3373ffffffffffffffffffffffffffffffffffffffff7f00000000000000000000000000000000000000000000000000000000000000001614610400576040517f2596a42e00000000000000000000000000000000000000000000000000000000815260040160405180910390fd5b600061040e82840184611dfe565b60008681526003602081815260408084208985529092018152818320805483518184028101840190945280845294955092939192919083018282801561047357602002820191906000526020600020905b81548152602001906001019080831161045f575b5050505050905060005b81518110156104dc578282828151811061049957610499611e17565b6020026020010151036104ca576000878152600360208181526040808420858552909201905281206104ca9161186d565b806104d481611e46565b91505061047d565b5060008681526003602081815260408084208685529091528220828155600181018390556002810180547fffffffffffffffffffffffff00000000000000000000000000000000000000001690559081018290559061053e600483018261188e565b5050505050505050565b3373ffffffffffffffffffffffffffffffffffffffff7f000000000000000000000000000000000000000000000000000000000000000016146105b7576040517f2596a42e00000000000000000000000000000000000000000000000000000000815260040160405180910390fd5b6000928352600360209081526040808520938552600290930181529183208054600181018255908452919092200155565b3373ffffffffffffffffffffffffffffffffffffffff7f00000000000000000000000000000000000000000000000000000000000000001614610657576040517f2596a42e00000000000000000000000000000000000000000000000000000000815260040160405180910390fd5b60008481526003602090815260408083206001808201805491820181558552838520810181905580855292529091206106938185858886610c32565b506000948552600360208181526040808820968852959091018152938520805460018101825590865293909420909201929092555050565b3373ffffffffffffffffffffffffffffffffffffffff7f0000000000000000000000000000000000000000000000000000000000000000161461073a576040517f2596a42e00000000000000000000000000000000000000000000000000000000815260040160405180910390fd5b600083815260036020908152604080832085845260020182528083208054825181850281018501909352808352919290919083018282801561079b57602002820191906000526020600020905b815481526020019060010190808311610787575b5050505050905060005b815181101561081a57828282815181106107c1576107c1611e17565b60200260200101510361080857600085815260036020908152604080832087845260020190915290208054829081106107fc576107fc611e17565b60009182526020822001555b8061081281611e46565b9150506107a5565b5050505050565b6002805461031090611dab565b600083156108495761084285858585610f20565b9050610854565b610842858484611152565b949350505050565b6001805461031090611dab565b6000838152600360209081526040808320848452825280832060040180548251818502810185019093528083528493849084015b8282101561090c5760008481526020908190206040805160808101825260048602909201805473ffffffffffffffffffffffffffffffffffffffff16835260018082015484860152600282015460ff16151592840192909252600301546060830152908352909201910161089d565b5050505090506000805b82518110156109f757600083828151811061093357610933611e17565b6020026020010151602001519050600084838151811061095557610955611e17565b6020026020010151606001519050600085848151811061097757610977611e17565b6020026020010151604001519050600086858151811061099957610999611e17565b60200260200101516000015190506109b4818b868587611468565b806109c557506109c5818b86611628565b156109d357600195506109e0565b60009550505050506109f7565b5050505080806109ef90611e46565b915050610916565b509150505b9392505050565b6000828152600360209081526040808320600101805482518185028101850190935280835260609493830182828015610a5b57602002820191906000526020600020905b815481526020019060010190808311610a47575b505050505090506000815167ffffffffffffffff811115610a7e57610a7e611ac8565b604051908082528060200260200182016040528015610ac457816020015b604080518082019091526000815260606020820152815260200190600190039081610a9c5790505b50905060005b8251811015610c29576000838281518110610ae757610ae7611e17565b60200260200101519050610afc878783610869565b15610c16576000878152600360209081526040808320848452909152908190206001015490517fd9af4ecf00000000000000000000000000000000000000000000000000000000815260048101899052602481018290527f000000000000000000000000000000000000000000000000000000000000000073ffffffffffffffffffffffffffffffffffffffff169063d9af4ecf90604401600060405180830381865afa158015610bb1573d6000803e3d6000fd5b505050506040513d6000823e601f3d9081017fffffffffffffffffffffffffffffffffffffffffffffffffffffffffffffffe0168201604052610bf79190810190611eea565b848481518110610c0957610c09611e17565b6020026020010181905250505b5080610c2181611e46565b915050610aca565b50949350505050565b6000610c4084860186611f9b565b805151909150600003610cb4576040517f08c379a000000000000000000000000000000000000000000000000000000000815260206004820152600d60248201527f4e6f20746f6b656e73207365740000000000000000000000000000000000000060448201526064015b60405180910390fd5b805160005b8151811015610edc57600073ffffffffffffffffffffffffffffffffffffffff16828281518110610cec57610cec611e17565b60200260200101516000015173ffffffffffffffffffffffffffffffffffffffff1603610d75576040517f08c379a000000000000000000000000000000000000000000000000000000000815260206004820152601260248201527f4e6f20746f6b656e732070726f766964656400000000000000000000000000006044820152606401610cab565b818181518110610d8757610d87611e17565b602002602001015160200151600003610dfc576040517f08c379a000000000000000000000000000000000000000000000000000000000815260206004820152601660248201527f4e6f207175616e7469746965732070726f7669646564000000000000000000006044820152606401610cab565b6000828281518110610e1057610e10611e17565b60209081029190910181015160048b810180546001808201835560009283529185902084519190930290920180547fffffffffffffffffffffffff00000000000000000000000000000000000000001673ffffffffffffffffffffffffffffffffffffffff909316929092178255928201519281019290925560408101516002830180547fffffffffffffffffffffffffffffffffffffffffffffffffffffffffffffff0016911515919091179055606001516003909101555080610ed481611e46565b915050610cb9565b5050506002850180547fffffffffffffffffffffffff0000000000000000000000000000000000000000163317905542600386015560018501919091559092555050565b6000848152600360209081526040808320868452600201825280832080548251818502810185019093528083528493830182828015610f7e57602002820191906000526020600020905b815481526020019060010190808311610f6a575b505050505090506000815167ffffffffffffffff811115610fa157610fa1611ac8565b604051908082528060200260200182016040528015610fca578160200160208202803683370190505b50905060005b825181101561103a576000838281518110610fed57610fed611e17565b602002602001015190506110028982886116f4565b15611027578083838151811061101a5761101a611e17565b6020026020010181815250505b508061103281611e46565b915050610fd0565b5060005b8151811015611144576000600360008a8152602001908152602001600020600301600084848151811061107357611073611e17565b602002602001015181526020019081526020016000208054806020026020016040519081016040528092919081815260200182805480156110d357602002820191906000526020600020905b8154815260200190600101908083116110bf575b5050505050905060005b815181101561112f5761110a8a898484815181106110fd576110fd611e17565b6020026020010151610869565b1561111d57600195505050505050610854565b8061112781611e46565b9150506110dd565b5050808061113c90611e46565b91505061103e565b506000979650505050505050565b6000838152600360209081526040808320600101805482518185028101850190935280835284938301828280156111a857602002820191906000526020600020905b815481526020019060010190808311611194575b505050505090506000815167ffffffffffffffff8111156111cb576111cb611ac8565b6040519080825280602002602001820160405280156111f4578160200160208202803683370190505b50905060005b825181101561136657600083828151811061121757611217611e17565b60209081029190910181015160008a8152600380845260408083208484528552808320815160a08101835281548152600182015481880152600282015473ffffffffffffffffffffffffffffffffffffffff16818401529281015460608401526004810180548351818902810189019094528084529597509395929490936080860193909190879084015b828210156113115760008481526020908190206040805160808101825260048602909201805473ffffffffffffffffffffffffffffffffffffffff16835260018082015484860152600282015460ff1615159284019290925260030154606083015290835290920191016112a2565b50505091525050602081015190915061132b8a828a6116f4565b15611350578085858151811061134357611343611e17565b6020026020010181815250505b505050808061135e90611e46565b9150506111fa565b5060005b815181101561145b57600082828151811061138757611387611e17565b60209081029190910181015160008a8152600380845260408083208484529091018452808220805482518187028101870190935280835293955091939092908301828280156113f557602002820191906000526020600020905b8154815260200190600101908083116113e1575b5050505050905060005b81518110156114455761141f8a8a8484815181106110fd576110fd611e17565b1561143357600196505050505050506109fc565b8061143d81611e46565b9150506113ff565b505050808061145390611e46565b91505061136a565b5060009695505050505050565b6000821561155d576040517f6352211e0000000000000000000000000000000000000000000000000000000081526004810183905273ffffffffffffffffffffffffffffffffffffffff871690636352211e90602401602060405180830381865afa925050508015611515575060408051601f3d9081017fffffffffffffffffffffffffffffffffffffffffffffffffffffffffffffffe0168201909252611512918101906120b1565b60015b1561161b578573ffffffffffffffffffffffffffffffffffffffff168173ffffffffffffffffffffffffffffffffffffffff160361155757600191505061161f565b5061161b565b6040517f70a0823100000000000000000000000000000000000000000000000000000000815273ffffffffffffffffffffffffffffffffffffffff86811660048301528716906370a0823190602401602060405180830381865afa925050508015611603575060408051601f3d9081017fffffffffffffffffffffffffffffffffffffffffffffffffffffffffffffffe0168201909252611600918101906120ce565b60015b1561161b5784811061161957600191505061161f565b505b5060005b95945050505050565b6040517f70a0823100000000000000000000000000000000000000000000000000000000815273ffffffffffffffffffffffffffffffffffffffff8381166004830152600091908516906370a0823190602401602060405180830381865afa9250505080156116d2575060408051601f3d9081017fffffffffffffffffffffffffffffffffffffffffffffffffffffffffffffffe01682019092526116cf918101906120ce565b60015b156116ea578281106116e85760019150506109fc565b505b5060009392505050565b6040517fa7d325fc0000000000000000000000000000000000000000000000000000000081526004810184905260248101839052600090819073ffffffffffffffffffffffffffffffffffffffff7f0000000000000000000000000000000000000000000000000000000000000000169063a7d325fc90604401600060405180830381865afa15801561178b573d6000803e3d6000fd5b505050506040513d6000823e601f3d9081017fffffffffffffffffffffffffffffffffffffffffffffffffffffffffffffffe01682016040526117d191908101906120e7565b905060005b815181101561161b5783516040516117f191906020016121e9565b6040516020818303038152906040528051906020012082828151811061181957611819611e17565b60200260200101516000015160405160200161183591906121e9565b604051602081830303815290604052805190602001200361185b576001925050506109fc565b8061186581611e46565b9150506117d6565b508054600082559060005260206000209081019061188b91906118af565b50565b508054600082556004029060005260206000209081019061188b91906118c8565b5b808211156118c457600081556001016118b0565b5090565b5b808211156118c45780547fffffffffffffffffffffffff00000000000000000000000000000000000000001681556000600182018190556002820180547fffffffffffffffffffffffffffffffffffffffffffffffffffffffffffffff0016905560038201556004016118c9565b60006020828403121561194957600080fd5b81357fffffffff00000000000000000000000000000000000000000000000000000000811681146109fc57600080fd5b60005b8381101561199457818101518382015260200161197c565b50506000910152565b600081518084526119b5816020860160208601611979565b601f017fffffffffffffffffffffffffffffffffffffffffffffffffffffffffffffffe0169290920160200192915050565b6020815260006109fc602083018461199d565b60008060008060608587031215611a1057600080fd5b8435935060208501359250604085013567ffffffffffffffff80821115611a3657600080fd5b818701915087601f830112611a4a57600080fd5b813581811115611a5957600080fd5b886020828501011115611a6b57600080fd5b95989497505060200194505050565b600080600060608486031215611a8f57600080fd5b505081359360208301359350604090920135919050565b73ffffffffffffffffffffffffffffffffffffffff8116811461188b57600080fd5b7f4e487b7100000000000000000000000000000000000000000000000000000000600052604160045260246000fd5b6040516020810167ffffffffffffffff81118282101715611b1a57611b1a611ac8565b60405290565b6040516080810167ffffffffffffffff81118282101715611b1a57611b1a611ac8565b604051601f82017fffffffffffffffffffffffffffffffffffffffffffffffffffffffffffffffe016810167ffffffffffffffff81118282101715611b8a57611b8a611ac8565b604052919050565b600067ffffffffffffffff821115611bac57611bac611ac8565b50601f017fffffffffffffffffffffffffffffffffffffffffffffffffffffffffffffffe01660200190565b60008060008060808587031215611bee57600080fd5b8435935060208086013593506040860135611c0881611aa6565b9250606086013567ffffffffffffffff80821115611c2557600080fd5b818801915082828a031215611c3957600080fd5b611c41611af7565b823582811115611c5057600080fd5b80840193505089601f840112611c6557600080fd5b82359150611c7a611c7583611b92565b611b43565b8281528a85848601011115611c8e57600080fd5b828585018683013760009281019094019190915291825250939692955090935050565b600080600060608486031215611cc657600080fd5b833592506020840135611cd881611aa6565b929592945050506040919091013590565b60008060408385031215611cfc57600080fd5b823591506020830135611d0e81611aa6565b809150509250929050565b60006020808301818452808551808352604092508286019150828160051b87010184880160005b83811015611d9d578883037fffffffffffffffffffffffffffffffffffffffffffffffffffffffffffffffc0018552815180518452870151878401879052611d8a8785018261199d565b9588019593505090860190600101611d40565b509098975050505050505050565b600181811c90821680611dbf57607f821691505b602082108103611df8577f4e487b7100000000000000000000000000000000000000000000000000000000600052602260045260246000fd5b50919050565b600060208284031215611e1057600080fd5b5035919050565b7f4e487b7100000000000000000000000000000000000000000000000000000000600052603260045260246000fd5b60007fffffffffffffffffffffffffffffffffffffffffffffffffffffffffffffffff8203611e9e577f4e487b7100000000000000000000000000000000000000000000000000000000600052601160045260246000fd5b5060010190565b600082601f830112611eb657600080fd5b8151611ec4611c7582611b92565b818152846020838601011115611ed957600080fd5b610854826020830160208701611979565b600060208284031215611efc57600080fd5b815167ffffffffffffffff80821115611f1457600080fd5b9083019060408286031215611f2857600080fd5b604051604081018181108382111715611f4357611f43611ac8565b60405282518152602083015182811115611f5c57600080fd5b611f6887828601611ea5565b60208301525095945050505050565b600067ffffffffffffffff821115611f9157611f91611ac8565b5060051b60200190565b60006020808385031215611fae57600080fd5b823567ffffffffffffffff80821115611fc657600080fd5b8185019150828287031215611fda57600080fd5b611fe2611af7565b823582811115611ff157600080fd5b80840193505086601f84011261200657600080fd5b82359150612016611c7583611f77565b82815260079290921b8301840191848101908884111561203557600080fd5b938501935b838510156120a4576080858a0312156120535760008081fd5b61205b611b20565b853561206681611aa6565b8152858701358782015260408087013580151581146120855760008081fd5b908201526060868101359082015282526080909401939085019061203a565b8252509695505050505050565b6000602082840312156120c357600080fd5b81516109fc81611aa6565b6000602082840312156120e057600080fd5b5051919050565b600060208083850312156120fa57600080fd5b825167ffffffffffffffff8082111561211257600080fd5b818501915085601f83011261212657600080fd5b8151612134611c7582611f77565b81815260059190911b8301840190848101908883111561215357600080fd5b8585015b838110156121dc5780518581111561216f5760008081fd5b8601808b037fffffffffffffffffffffffffffffffffffffffffffffffffffffffffffffffe0018813156121a35760008081fd5b6121ab611af7565b88820151878111156121bd5760008081fd5b6121cb8d8b83860101611ea5565b825250845250918601918601612157565b5098975050505050505050565b600082516121fb818460208701611979565b919091019291505056fea264697066735822122015feba9ea99b32c4e271aee29d1046e6962328706789e04a50933c9a2a9d590c64736f6c63430008110033",
    "linkReferences": {}
  },
  "methodIdentifiers": {
    "_permisionRegistry()": "5acad43c",
    "_roleManager()": "f4339a97",
    "_spaceManager()": "3820c2ad",
    "addRoleIdToChannel(uint256,uint256,uint256)": "40a74b43",
    "description()": "7284e416",
    "getUserRoles(uint256,address)": "f725f2f6",
    "isEntitled(uint256,uint256,address,(string))": "66218999",
    "isTokenEntitled(uint256,address,uint256)": "c7f032f1",
    "moduleType()": "6465e69f",
    "name()": "06fdde03",
    "removeRoleIdFromChannel(uint256,uint256,uint256)": "5c1b185d",
    "removeSpaceEntitlement(uint256,uint256,bytes)": "3d1dea8c",
    "setSpaceEntitlement(uint256,uint256,bytes)": "4b0fd1a2",
    "supportsInterface(bytes4)": "01ffc9a7"
  },
  "id": 35
}