{
  "abi": [
    {
      "inputs": [],
      "name": "AddressNotFound",
      "type": "error"
    },
    {
      "inputs": [],
      "name": "EntitlementNotFound",
      "type": "error"
    },
    {
      "inputs": [],
      "name": "QuantityNotFound",
      "type": "error"
    },
    {
      "inputs": [],
      "name": "RoleAlreadyExists",
      "type": "error"
    },
    {
      "anonymous": false,
      "inputs": [
        {
          "indexed": false,
          "internalType": "address",
          "name": "previousAdmin",
          "type": "address"
        },
        {
          "indexed": false,
          "internalType": "address",
          "name": "newAdmin",
          "type": "address"
        }
      ],
      "name": "AdminChanged",
      "type": "event"
    },
    {
      "anonymous": false,
      "inputs": [
        {
          "indexed": true,
          "internalType": "address",
          "name": "beacon",
          "type": "address"
        }
      ],
      "name": "BeaconUpgraded",
      "type": "event"
    },
    {
      "anonymous": false,
      "inputs": [
        {
          "indexed": false,
          "internalType": "uint8",
          "name": "version",
          "type": "uint8"
        }
      ],
      "name": "Initialized",
      "type": "event"
    },
    {
      "anonymous": false,
      "inputs": [
        {
          "indexed": true,
          "internalType": "address",
          "name": "previousOwner",
          "type": "address"
        },
        {
          "indexed": true,
          "internalType": "address",
          "name": "newOwner",
          "type": "address"
        }
      ],
      "name": "OwnershipTransferred",
      "type": "event"
    },
    {
      "anonymous": false,
      "inputs": [
        {
          "indexed": true,
          "internalType": "address",
          "name": "implementation",
          "type": "address"
        }
      ],
      "name": "Upgraded",
      "type": "event"
    },
    {
      "inputs": [],
      "name": "SPACE_ADDRESS",
      "outputs": [
        {
          "internalType": "address",
          "name": "",
          "type": "address"
        }
      ],
      "stateMutability": "view",
      "type": "function"
    },
    {
      "inputs": [
        {
          "internalType": "string",
          "name": "channelId",
          "type": "string"
        },
        {
          "internalType": "uint256",
          "name": "roleId",
          "type": "uint256"
        }
      ],
      "name": "addRoleIdToChannel",
      "outputs": [],
      "stateMutability": "nonpayable",
      "type": "function"
    },
    {
      "inputs": [
        {
          "internalType": "uint256",
          "name": "",
          "type": "uint256"
        }
      ],
      "name": "allEntitlementIds",
      "outputs": [
        {
          "internalType": "bytes32",
          "name": "",
          "type": "bytes32"
        }
      ],
      "stateMutability": "view",
      "type": "function"
    },
    {
      "inputs": [],
      "name": "description",
      "outputs": [
        {
          "internalType": "string",
          "name": "",
          "type": "string"
        }
      ],
      "stateMutability": "view",
      "type": "function"
    },
    {
      "inputs": [
        {
          "components": [
            {
              "internalType": "address",
              "name": "contractAddress",
              "type": "address"
            },
            {
              "internalType": "uint256",
              "name": "quantity",
              "type": "uint256"
            },
            {
              "internalType": "bool",
              "name": "isSingleToken",
              "type": "bool"
            },
            {
              "internalType": "uint256[]",
              "name": "tokenIds",
              "type": "uint256[]"
            }
          ],
          "internalType": "struct DataTypes.ExternalToken[]",
          "name": "tokens",
          "type": "tuple[]"
        }
      ],
      "name": "encodeExternalTokens",
      "outputs": [],
      "stateMutability": "pure",
      "type": "function"
    },
    {
      "inputs": [
        {
          "internalType": "bytes32",
          "name": "",
          "type": "bytes32"
        }
      ],
      "name": "entitlementsById",
      "outputs": [
        {
          "internalType": "uint256",
          "name": "roleId",
          "type": "uint256"
        },
        {
          "internalType": "address",
          "name": "grantedBy",
          "type": "address"
        },
        {
          "internalType": "uint256",
          "name": "grantedTime",
          "type": "uint256"
        }
      ],
      "stateMutability": "view",
      "type": "function"
    },
    {
      "inputs": [
        {
          "internalType": "uint256",
          "name": "roleId",
          "type": "uint256"
        }
      ],
      "name": "getEntitlementDataByRoleId",
      "outputs": [
        {
          "internalType": "bytes[]",
          "name": "",
          "type": "bytes[]"
        }
      ],
      "stateMutability": "view",
      "type": "function"
    },
    {
      "inputs": [
        {
          "internalType": "address",
          "name": "user",
          "type": "address"
        }
      ],
      "name": "getUserRoles",
      "outputs": [
        {
          "components": [
            {
              "internalType": "uint256",
              "name": "roleId",
              "type": "uint256"
            },
            {
              "internalType": "string",
              "name": "name",
              "type": "string"
            }
          ],
          "internalType": "struct DataTypes.Role[]",
          "name": "",
          "type": "tuple[]"
        }
      ],
      "stateMutability": "view",
      "type": "function"
    },
    {
      "inputs": [],
      "name": "initialize",
      "outputs": [],
      "stateMutability": "nonpayable",
      "type": "function"
    },
    {
      "inputs": [
        {
          "internalType": "string",
          "name": "channelId",
          "type": "string"
        },
        {
          "internalType": "address",
          "name": "user",
          "type": "address"
        },
        {
          "internalType": "bytes32",
          "name": "permission",
          "type": "bytes32"
        }
      ],
      "name": "isEntitled",
      "outputs": [
        {
          "internalType": "bool",
          "name": "",
          "type": "bool"
        }
      ],
      "stateMutability": "view",
      "type": "function"
    },
    {
      "inputs": [],
      "name": "moduleType",
      "outputs": [
        {
          "internalType": "string",
          "name": "",
          "type": "string"
        }
      ],
      "stateMutability": "view",
      "type": "function"
    },
    {
      "inputs": [],
      "name": "name",
      "outputs": [
        {
          "internalType": "string",
          "name": "",
          "type": "string"
        }
      ],
      "stateMutability": "view",
      "type": "function"
    },
    {
      "inputs": [],
      "name": "owner",
      "outputs": [
        {
          "internalType": "address",
          "name": "",
          "type": "address"
        }
      ],
      "stateMutability": "view",
      "type": "function"
    },
    {
      "inputs": [],
      "name": "proxiableUUID",
      "outputs": [
        {
          "internalType": "bytes32",
          "name": "",
          "type": "bytes32"
        }
      ],
      "stateMutability": "view",
      "type": "function"
    },
    {
      "inputs": [
        {
          "internalType": "uint256",
          "name": "roleId",
          "type": "uint256"
        },
        {
          "internalType": "bytes",
          "name": "entitlementData",
          "type": "bytes"
        }
      ],
      "name": "removeEntitlement",
      "outputs": [
        {
          "internalType": "bytes32",
          "name": "entitlementId",
          "type": "bytes32"
        }
      ],
      "stateMutability": "nonpayable",
      "type": "function"
    },
    {
      "inputs": [
        {
          "internalType": "string",
          "name": "channelId",
          "type": "string"
        },
        {
          "internalType": "uint256",
          "name": "roleId",
          "type": "uint256"
        }
      ],
      "name": "removeRoleIdFromChannel",
      "outputs": [],
      "stateMutability": "nonpayable",
      "type": "function"
    },
    {
      "inputs": [],
      "name": "renounceOwnership",
      "outputs": [],
      "stateMutability": "nonpayable",
      "type": "function"
    },
    {
      "inputs": [
        {
          "internalType": "uint256",
          "name": "roleId",
          "type": "uint256"
        },
        {
          "internalType": "bytes",
          "name": "entitlementData",
          "type": "bytes"
        }
      ],
      "name": "setEntitlement",
      "outputs": [
        {
          "internalType": "bytes32",
          "name": "entitlementId",
          "type": "bytes32"
        }
      ],
      "stateMutability": "nonpayable",
      "type": "function"
    },
    {
      "inputs": [
        {
          "internalType": "address",
          "name": "_space",
          "type": "address"
        }
      ],
      "name": "setSpace",
      "outputs": [],
      "stateMutability": "nonpayable",
      "type": "function"
    },
    {
      "inputs": [
        {
          "internalType": "bytes4",
          "name": "interfaceId",
          "type": "bytes4"
        }
      ],
      "name": "supportsInterface",
      "outputs": [
        {
          "internalType": "bool",
          "name": "",
          "type": "bool"
        }
      ],
      "stateMutability": "view",
      "type": "function"
    },
    {
      "inputs": [
        {
          "internalType": "address",
          "name": "newOwner",
          "type": "address"
        }
      ],
      "name": "transferOwnership",
      "outputs": [],
      "stateMutability": "nonpayable",
      "type": "function"
    },
    {
      "inputs": [
        {
          "internalType": "address",
          "name": "newImplementation",
          "type": "address"
        }
      ],
      "name": "upgradeTo",
      "outputs": [],
      "stateMutability": "nonpayable",
      "type": "function"
    },
    {
      "inputs": [
        {
          "internalType": "address",
          "name": "newImplementation",
          "type": "address"
        },
        {
          "internalType": "bytes",
          "name": "data",
          "type": "bytes"
        }
      ],
      "name": "upgradeToAndCall",
      "outputs": [],
      "stateMutability": "payable",
      "type": "function"
    }
  ],
  "bytecode": {
    "object": "0x60a06040523060805234801561001457600080fd5b50608051612cdd61004c6000396000818161087e015281816108c701528181610966015281816109a60152610a350152612cdd6000f3fe60806040526004361061013f5760003560e01c80636465e69f116100b6578063c513be771161006f578063c513be77146103f2578063d3b2cfbf14610412578063ef8be5741461047a578063f2fde38b1461049a578063f32f83ce146104ba578063fa6d1adf146104da57600080fd5b80636465e69f1461030c578063715018a6146103485780637284e4161461035d5780638129fc1c1461039f5780638da5cb5b146103b4578063b7676170146103d257600080fd5b80631eee07b2116101085780631eee07b21461023257806334322eff1461025f5780633659cfe6146102975780634f1ef286146102b757806352d1902d146102ca5780635427e86a146102ed57600080fd5b8062b4eaa81461014457806301ffc9a71461017957806303b405341461019957806306a36aee146101bb57806306fdde03146101e8575b600080fd5b34801561015057600080fd5b5061016461015f366004612280565b6104fa565b60405190151581526020015b60405180910390f35b34801561018557600080fd5b506101646101943660046122dc565b61054e565b3480156101a557600080fd5b506101b96101b4366004612306565b610585565b005b3480156101c757600080fd5b506101db6101d6366004612306565b6105af565b6040516101709190612373565b3480156101f457600080fd5b5061022560405180604001604052806011815260200170151bdad95b88115b9d1a5d1b195b595b9d607a1b81525081565b60405161017091906123e7565b34801561023e57600080fd5b5061025261024d3660046123fa565b610735565b6040516101709190612413565b34801561026b57600080fd5b5060fb5461027f906001600160a01b031681565b6040516001600160a01b039091168152602001610170565b3480156102a357600080fd5b506101b96102b2366004612306565b610874565b6101b96102c536600461252c565b61095c565b3480156102d657600080fd5b506102df610a28565b604051908152602001610170565b3480156102f957600080fd5b506101b96103083660046125be565b5050565b34801561031857600080fd5b506102256040518060400160405280601081526020016f151bdad95b915b9d1a5d1b195b595b9d60821b81525081565b34801561035457600080fd5b506101b9610adb565b34801561036957600080fd5b5061022560405180604001604052806016815260200175456e7469746c656d656e7420666f7220746f6b656e7360501b81525081565b3480156103ab57600080fd5b506101b9610aef565b3480156103c057600080fd5b506065546001600160a01b031661027f565b3480156103de57600080fd5b506102df6103ed3660046123fa565b610c0f565b3480156103fe57600080fd5b506101b961040d366004612632565b610c30565b34801561041e57600080fd5b5061045761042d3660046123fa565b60fc6020526000908152604090208054600182015460029092015490916001600160a01b03169083565b604080519384526001600160a01b03909216602084015290820152606001610170565b34801561048657600080fd5b506102df61049536600461267d565b610d79565b3480156104a657600080fd5b506101b96104b5366004612306565b61101e565b3480156104c657600080fd5b506101b96104d5366004612632565b611094565b3480156104e657600080fd5b506102df6104f536600461267d565b6111d7565b6000831561053c5761053585856040516020016105189291906126c8565b6040516020818303038152906040528051906020012084846112cc565b9050610546565b6105358383611426565b949350505050565b60006001600160e01b03198216630511738b60e31b148061057f57506301ffc9a760e01b6001600160e01b03198316145b92915050565b61058d61162e565b60fb80546001600160a01b0319166001600160a01b0392909216919091179055565b60ff546060906000906001600160401b038111156105cf576105cf612475565b60405190808252806020026020018201604052801561061557816020015b6040805180820190915260008152606060208201528152602001906001900390816105ed5790505b50905060005b60ff5481101561072e5761064c8460ff838154811061063c5761063c6126d8565b9060005260206000200154611688565b1561071c57600060fc600060ff848154811061066a5761066a6126d8565b600091825260208083209190910154835282019290925260409081019091205460fb54915163784c872b60e01b8152600481018290529092506001600160a01b039091169063784c872b90602401600060405180830381865afa1580156106d5573d6000803e3d6000fd5b505050506040513d6000823e601f3d908101601f191682016040526106fd91908101906126ee565b83838151811061070f5761070f6126d8565b6020026020010181905250505b80610726816127b8565b91505061061b565b5092915050565b600081815260fe6020908152604080832080548251818502810185019093528083526060949383018282801561078a57602002820191906000526020600020905b815481526020019060010190808311610776575b50505050509050600081516001600160401b038111156107ac576107ac612475565b6040519080825280602002602001820160405280156107df57816020015b60608152602001906001900390816107ca5790505b50905060005b825181101561086c5760fc6000848381518110610804576108046126d8565b6020026020010151815260200190815260200160002060030160405160200161082d91906127d1565b60405160208183030381529060405282828151811061084e5761084e6126d8565b60200260200101819052508080610864906127b8565b9150506107e5565b509392505050565b6001600160a01b037f00000000000000000000000000000000000000000000000000000000000000001630036108c55760405162461bcd60e51b81526004016108bc9061289b565b60405180910390fd5b7f00000000000000000000000000000000000000000000000000000000000000006001600160a01b031661090e600080516020612c61833981519152546001600160a01b031690565b6001600160a01b0316146109345760405162461bcd60e51b81526004016108bc906128e7565b61093d81611869565b6040805160008082526020820190925261095991839190611871565b50565b6001600160a01b037f00000000000000000000000000000000000000000000000000000000000000001630036109a45760405162461bcd60e51b81526004016108bc9061289b565b7f00000000000000000000000000000000000000000000000000000000000000006001600160a01b03166109ed600080516020612c61833981519152546001600160a01b031690565b6001600160a01b031614610a135760405162461bcd60e51b81526004016108bc906128e7565b610a1c82611869565b61030882826001611871565b6000306001600160a01b037f00000000000000000000000000000000000000000000000000000000000000001614610ac85760405162461bcd60e51b815260206004820152603860248201527f555550535570677261646561626c653a206d757374206e6f742062652063616c60448201527f6c6564207468726f7567682064656c656761746563616c6c000000000000000060648201526084016108bc565b50600080516020612c6183398151915290565b610ae361162e565b610aed60006119e1565b565b600054610100900460ff1615808015610b0f5750600054600160ff909116105b80610b295750303b158015610b29575060005460ff166001145b610b8c5760405162461bcd60e51b815260206004820152602e60248201527f496e697469616c697a61626c653a20636f6e747261637420697320616c72656160448201526d191e481a5b9a5d1a585b1a5e995960921b60648201526084016108bc565b6000805460ff191660011790558015610baf576000805461ff0019166101001790555b610bb7611a33565b610bbf611a33565b610bc7611a5a565b8015610959576000805461ff0019169055604051600181527f7f26b83ff96e1f2b6a682f133852f6798a09c465da95921460cefb38474024989060200160405180910390a150565b60ff8181548110610c1f57600080fd5b600091825260209091200154905081565b6065546001600160a01b0316331480610c5c575060fb546001600160a01b0316336001600160a01b0316145b610c785760405162461bcd60e51b81526004016108bc90612933565b60008383604051602001610c8d9291906126c8565b60408051601f198184030181528282528051602091820120600081815260fd835283812080548085028701850190955284865291955093929091830182828015610cf657602002820191906000526020600020905b815481526020019060010190808311610ce2575b5050505050905060005b8151811015610d545783828281518110610d1c57610d1c6126d8565b602002602001015103610d4257604051636014eda760e11b815260040160405180910390fd5b80610d4c816127b8565b915050610d00565b5050600090815260fd6020908152604082208054600181018255908352912001555050565b6000610d8d6065546001600160a01b031690565b6001600160a01b0316336001600160a01b03161480610dbf575060fb546001600160a01b0316336001600160a01b0316145b610ddb5760405162461bcd60e51b81526004016108bc90612933565b838383604051602001610df09392919061295e565b60408051601f19818403018152919052805160209091012090506000610e188385018561299b565b90508051600003610e3c57604051633d9e48f360e21b815260040160405180910390fd5b60005b8151811015610f965760006001600160a01b0316828281518110610e6557610e656126d8565b6020026020010151600001516001600160a01b031603610e9857604051636054b46960e01b815260040160405180910390fd5b818181518110610eaa57610eaa6126d8565b602002602001015160200151600003610ed65760405163f2d34be760e01b815260040160405180910390fd5b60fc6000848152602001908152602001600020600301828281518110610efe57610efe6126d8565b602090810291909101810151825460018082018555600094855293839020825160049092020180546001600160a01b0319166001600160a01b039092169190911781558183015193810193909355604081015160028401805460ff191691151591909117905560608101518051919392610f8092600385019290910190612143565b5050508080610f8e906127b8565b915050610e3f565b5050600081815260fc60209081526040808320878155600180820180546001600160a01b031916331790554260029092019190915596835260fe82528220805480880182559083529082200182905560ff8054958601815590527fe08ec2af2cfc251225e1968fd6ca21e4044f129bffa95bac3503be8bdb30a3679093018390555090919050565b61102661162e565b6001600160a01b03811661108b5760405162461bcd60e51b815260206004820152602660248201527f4f776e61626c653a206e6577206f776e657220697320746865207a65726f206160448201526564647265737360d01b60648201526084016108bc565b610959816119e1565b6065546001600160a01b03163314806110c0575060fb546001600160a01b0316336001600160a01b0316145b6110dc5760405162461bcd60e51b81526004016108bc90612933565b600083836040516020016110f19291906126c8565b60408051601f198184030181529181528151602092830120600081815260fd909352908220909250905b81548110156111cf5783828281548110611137576111376126d8565b9060005260206000200154036111bd578154829061115790600190612b0a565b81548110611167576111676126d8565b9060005260206000200154828281548110611184576111846126d8565b9060005260206000200181905550818054806111a2576111a2612b1d565b600190038181906000526020600020016000905590556111cf565b806111c7816127b8565b91505061111b565b505050505050565b60006111eb6065546001600160a01b031690565b6001600160a01b0316336001600160a01b0316148061121d575060fb546001600160a01b0316336001600160a01b0316145b6112395760405162461bcd60e51b81526004016108bc90612933565b83838360405160200161124e9392919061295e565b60408051601f198184030181529181528151602092830120600087815260fe909352912090915061127f8183611a89565b61128a60ff83611a89565b600082815260fc602052604081208181556001810180546001600160a01b031916905560028101829055906112c2600383018261218e565b5050509392505050565b600083815260fd602090815260408083208054825181850281018501909352808352849383018282801561131f57602002820191906000526020600020905b81548152602001906001019080831161130b575b5050505050905060005b815181101561141d576000828281518110611346576113466126d8565b6020026020010151905061135a8186611b40565b1561140a57600081815260fe60209081526040808320805482518185028101850190935280835291929091908301828280156113b557602002820191906000526020600020905b8154815260200190600101908083116113a1575b5050505050905060005b8151811015611407576113eb888383815181106113de576113de6126d8565b6020026020010151611688565b156113f557600195505b806113ff816127b8565b9150506113bf565b50505b5080611415816127b8565b915050611329565b50509392505050565b6000805b60ff5481101561072e57600060ff8281548110611449576114496126d8565b600091825260208083209091015480835260fc8252604080842081516080810183528154815260018201546001600160a01b03168186015260028201548184015260038201805484518188028101880190955280855294975090949193606086019392879084015b8282101561155f576000848152602090819020604080516080810182526004860290920180546001600160a01b03168352600181015483850152600281015460ff161515838301526003810180548351818702810187019094528084529394919360608601939283018282801561154757602002820191906000526020600020905b815481526020019060010190808311611533575b505050505081525050815260200190600101906114b1565b5050509152505080519091506115758187611b40565b1561161857600081815260fe60209081526040808320805482518185028101850190935280835291929091908301828280156115d057602002820191906000526020600020905b8154815260200190600101908083116115bc575b5050505050905060005b8151811015611615576115f9898383815181106113de576113de6126d8565b1561160357600196505b8061160d816127b8565b9150506115da565b50505b5050508080611626906127b8565b91505061142a565b6065546001600160a01b03163314610aed5760405162461bcd60e51b815260206004820181905260248201527f4f776e61626c653a2063616c6c6572206973206e6f7420746865206f776e657260448201526064016108bc565b600081815260fc6020908152604080832060030180548251818502810185019093528083528493849084015b82821015611762576000848152602090819020604080516080810182526004860290920180546001600160a01b03168352600181015483850152600281015460ff161515838301526003810180548351818702810187019094528084529394919360608601939283018282801561174a57602002820191906000526020600020905b815481526020019060010190808311611736575b505050505081525050815260200190600101906116b4565b5050505090506000805b8251811015611860576000838281518110611789576117896126d8565b602002602001015160200151905060008483815181106117ab576117ab6126d8565b602002602001015160000151905060008584815181106117cd576117cd6126d8565b602002602001015160600151905060008685815181106117ef576117ef6126d8565b602002602001015160400151905061180a838b868486611c0e565b8061181b575061181b838b86611d6b565b8061182e575061182e838b868486611df4565b1561183c5760019550611849565b6000955050505050611860565b505050508080611858906127b8565b91505061176c565b50949350505050565b61095961162e565b7f4910fdfa16fed3260ed0e7147f7cc6da11a60208b5b9406d12a635614ffd91435460ff16156118a9576118a483611ee8565b505050565b826001600160a01b03166352d1902d6040518163ffffffff1660e01b8152600401602060405180830381865afa925050508015611903575060408051601f3d908101601f1916820190925261190091810190612b33565b60015b6119665760405162461bcd60e51b815260206004820152602e60248201527f45524331393637557067726164653a206e657720696d706c656d656e7461746960448201526d6f6e206973206e6f74205555505360901b60648201526084016108bc565b600080516020612c6183398151915281146119d55760405162461bcd60e51b815260206004820152602960248201527f45524331393637557067726164653a20756e737570706f727465642070726f786044820152681a58589b195555525160ba1b60648201526084016108bc565b506118a4838383611f84565b606580546001600160a01b038381166001600160a01b0319831681179093556040519116919082907f8be0079c531659141344cd1fd0a4f28419497f9722a3daafe3b4186f6b6457e090600090a35050565b600054610100900460ff16610aed5760405162461bcd60e51b81526004016108bc90612b4c565b600054610100900460ff16611a815760405162461bcd60e51b81526004016108bc90612b4c565b610aed611faf565b60005b82548110156118a45781838281548110611aa857611aa86126d8565b906000526020600020015403611b2e5782548390611ac890600190612b0a565b81548110611ad857611ad86126d8565b9060005260206000200154838281548110611af557611af56126d8565b906000526020600020018190555082805480611b1357611b13612b1d565b60019003818190600052602060002001600090559055505050565b80611b38816127b8565b915050611a8c565b60fb5460405163b426423360e01b8152600481018490526000916001600160a01b0316908290829063b426423390602401600060405180830381865afa158015611b8e573d6000803e3d6000fd5b505050506040513d6000823e601f3d908101601f19168201604052611bb69190810190612b97565b905060005b8151811015611c025784828281518110611bd757611bd76126d8565b602002602001015103611bf0576001935050505061057f565b80611bfa816127b8565b915050611bbb565b50600095945050505050565b60008215611ce55760005b8251811015611cdf57866001600160a01b0316636352211e848381518110611c4357611c436126d8565b60200260200101516040518263ffffffff1660e01b8152600401611c6991815260200190565b602060405180830381865afa925050508015611ca2575060408051601f3d908101601f19168201909252611c9f91810190612c27565b60015b15611ccd57866001600160a01b0316816001600160a01b031603611ccb57600192505050611d62565b505b80611cd7816127b8565b915050611c19565b50611c02565b6040516370a0823160e01b81526001600160a01b0386811660048301528716906370a0823190602401602060405180830381865afa925050508015611d47575060408051601f3d908101601f19168201909252611d4491810190612b33565b60015b15611c0257848110611d5d576001915050611d62565b505060005b95945050505050565b6040516370a0823160e01b81526001600160a01b038381166004830152600091908516906370a0823190602401602060405180830381865afa925050508015611dd1575060408051601f3d908101601f19168201909252611dce91810190612b33565b60015b15611de957828110611de7576001915050611ded565b505b5060005b9392505050565b6000805b8251811015611d5d57866001600160a01b031662fdd58e87858481518110611e2257611e226126d8565b60200260200101516040518363ffffffff1660e01b8152600401611e5b9291906001600160a01b03929092168252602082015260400190565b602060405180830381865afa925050508015611e94575060408051601f3d908101601f19168201909252611e9191810190612b33565b60015b15611ed657848015611ea65750600081115b15611eb657600192505050611d62565b84158015611ec45750858110155b15611ed457600192505050611d62565b505b80611ee0816127b8565b915050611df8565b6001600160a01b0381163b611f555760405162461bcd60e51b815260206004820152602d60248201527f455243313936373a206e657720696d706c656d656e746174696f6e206973206e60448201526c1bdd08184818dbdb9d1c9858dd609a1b60648201526084016108bc565b600080516020612c6183398151915280546001600160a01b0319166001600160a01b0392909216919091179055565b611f8d83611fdf565b600082511180611f9a5750805b156118a457611fa9838361201f565b50505050565b600054610100900460ff16611fd65760405162461bcd60e51b81526004016108bc90612b4c565b610aed336119e1565b611fe881611ee8565b6040516001600160a01b038216907fbc7cd75a20ee27fd9adebab32041f755214dbc6bffa90cc0225b39da2e5c2d3b90600090a250565b60606001600160a01b0383163b6120875760405162461bcd60e51b815260206004820152602660248201527f416464726573733a2064656c65676174652063616c6c20746f206e6f6e2d636f6044820152651b9d1c9858dd60d21b60648201526084016108bc565b600080846001600160a01b0316846040516120a29190612c44565b600060405180830381855af49150503d80600081146120dd576040519150601f19603f3d011682016040523d82523d6000602084013e6120e2565b606091505b5091509150611d628282604051806060016040528060278152602001612c816027913960608315612114575081611ded565b611ded83838151156121295781518083602001fd5b8060405162461bcd60e51b81526004016108bc91906123e7565b82805482825590600052602060002090810192821561217e579160200282015b8281111561217e578251825591602001919060010190612163565b5061218a9291506121af565b5090565b508054600082556004029060005260206000209081019061095991906121c4565b5b8082111561218a57600081556001016121b0565b8082111561218a5780546001600160a01b031916815560006001820181905560028201805460ff191690556121fc6003830182612205565b506004016121c4565b508054600082559060005260206000209081019061095991906121af565b60008083601f84011261223557600080fd5b5081356001600160401b0381111561224c57600080fd5b60208301915083602082850101111561226457600080fd5b9250929050565b6001600160a01b038116811461095957600080fd5b6000806000806060858703121561229657600080fd5b84356001600160401b038111156122ac57600080fd5b6122b887828801612223565b90955093505060208501356122cc8161226b565b9396929550929360400135925050565b6000602082840312156122ee57600080fd5b81356001600160e01b031981168114611ded57600080fd5b60006020828403121561231857600080fd5b8135611ded8161226b565b60005b8381101561233e578181015183820152602001612326565b50506000910152565b6000815180845261235f816020860160208601612323565b601f01601f19169290920160200192915050565b60006020808301818452808551808352604092508286019150828160051b87010184880160005b838110156123d957888303603f190185528151805184528701518784018790526123c687850182612347565b958801959350509086019060010161239a565b509098975050505050505050565b602081526000611ded6020830184612347565b60006020828403121561240c57600080fd5b5035919050565b6000602080830181845280855180835260408601915060408160051b870101925083870160005b8281101561246857603f19888603018452612456858351612347565b9450928501929085019060010161243a565b5092979650505050505050565b634e487b7160e01b600052604160045260246000fd5b604080519081016001600160401b03811182821017156124ad576124ad612475565b60405290565b604051608081016001600160401b03811182821017156124ad576124ad612475565b604051601f8201601f191681016001600160401b03811182821017156124fd576124fd612475565b604052919050565b60006001600160401b0382111561251e5761251e612475565b50601f01601f191660200190565b6000806040838503121561253f57600080fd5b823561254a8161226b565b915060208301356001600160401b0381111561256557600080fd5b8301601f8101851361257657600080fd5b803561258961258482612505565b6124d5565b81815286602083850101111561259e57600080fd5b816020840160208301376000602083830101528093505050509250929050565b600080602083850312156125d157600080fd5b82356001600160401b03808211156125e857600080fd5b818501915085601f8301126125fc57600080fd5b81358181111561260b57600080fd5b8660208260051b850101111561262057600080fd5b60209290920196919550909350505050565b60008060006040848603121561264757600080fd5b83356001600160401b0381111561265d57600080fd5b61266986828701612223565b909790965060209590950135949350505050565b60008060006040848603121561269257600080fd5b8335925060208401356001600160401b038111156126af57600080fd5b6126bb86828701612223565b9497909650939450505050565b8183823760009101908152919050565b634e487b7160e01b600052603260045260246000fd5b6000602080838503121561270157600080fd5b82516001600160401b038082111561271857600080fd5b908401906040828703121561272c57600080fd5b61273461248b565b82518152838301518281111561274957600080fd5b80840193505086601f84011261275e57600080fd5b8251915061276e61258483612505565b828152878584860101111561278257600080fd5b61279183868301878701612323565b938101939093525090949350505050565b634e487b7160e01b600052601160045260246000fd5b6000600182016127ca576127ca6127a2565b5060010190565b60006020808301818452808554808352604092508286019150828160051b8701016000888152858120815b8481101561288c57898403603f1901865281546001600160a01b0316845260018281015489860152600283015460ff16151588860152608060608601819052600384018054918701829052855289852060a0870192909186905b808210156128735783548552938c01939282019290820190612856565b50505096890196509350600491909101906001016127fc565b50919998505050505050505050565b6020808252602c908201527f46756e6374696f6e206d7573742062652063616c6c6564207468726f7567682060408201526b19195b1959d85d1958d85b1b60a21b606082015260800190565b6020808252602c908201527f46756e6374696f6e206d7573742062652063616c6c6564207468726f7567682060408201526b6163746976652070726f787960a01b606082015260800190565b60208082526011908201527053706163653a206f6e6c7920737061636560781b604082015260600190565b838152818360208301376000910160200190815292915050565b60006001600160401b0382111561299157612991612475565b5060051b60200190565b600060208083850312156129ae57600080fd5b82356001600160401b03808211156129c557600080fd5b818501915085601f8301126129d957600080fd5b81356129e761258482612978565b81815260059190911b83018401908481019088831115612a0657600080fd5b8585015b83811015612afd57803585811115612a2157600080fd5b86016080818c03601f19011215612a3757600080fd5b612a3f6124b3565b88820135612a4c8161226b565b81526040828101358a83015260608301358015158114612a6c5760008081fd5b82820152608083013588811115612a835760008081fd5b8084019350508c603f840112612a995760008081fd5b89830135612aa961258482612978565b81815260059190911b84018201908b8101908f831115612ac95760008081fd5b948301945b82861015612ae75785358252948c0194908c0190612ace565b6060850152505050845250918601918601612a0a565b5098975050505050505050565b8181038181111561057f5761057f6127a2565b634e487b7160e01b600052603160045260246000fd5b600060208284031215612b4557600080fd5b5051919050565b6020808252602b908201527f496e697469616c697a61626c653a20636f6e7472616374206973206e6f74206960408201526a6e697469616c697a696e6760a81b606082015260800190565b60006020808385031215612baa57600080fd5b82516001600160401b03811115612bc057600080fd5b8301601f81018513612bd157600080fd5b8051612bdf61258482612978565b81815260059190911b82018301908381019087831115612bfe57600080fd5b928401925b82841015612c1c57835182529284019290840190612c03565b979650505050505050565b600060208284031215612c3957600080fd5b8151611ded8161226b565b60008251612c56818460208701612323565b919091019291505056fe360894a13ba1a3210667c828492db98dca3e2076cc3735a920a3ca505d382bbc416464726573733a206c6f772d6c6576656c2064656c65676174652063616c6c206661696c6564a26469706673582212209a6dde0f2d9874313411bb993710712ff02a53d73e15baec7d589112cb5e595264736f6c63430008110033",
    "linkReferences": {}
  },
  "methodIdentifiers": {
    "SPACE_ADDRESS()": "34322eff",
    "addRoleIdToChannel(string,uint256)": "c513be77",
    "allEntitlementIds(uint256)": "b7676170",
    "description()": "7284e416",
    "encodeExternalTokens((address,uint256,bool,uint256[])[])": "5427e86a",
    "entitlementsById(bytes32)": "d3b2cfbf",
    "getEntitlementDataByRoleId(uint256)": "1eee07b2",
    "getUserRoles(address)": "06a36aee",
    "initialize()": "8129fc1c",
    "isEntitled(string,address,bytes32)": "00b4eaa8",
    "moduleType()": "6465e69f",
    "name()": "06fdde03",
    "owner()": "8da5cb5b",
    "proxiableUUID()": "52d1902d",
    "removeEntitlement(uint256,bytes)": "fa6d1adf",
    "removeRoleIdFromChannel(string,uint256)": "f32f83ce",
    "renounceOwnership()": "715018a6",
    "setEntitlement(uint256,bytes)": "ef8be574",
    "setSpace(address)": "03b40534",
    "supportsInterface(bytes4)": "01ffc9a7",
    "transferOwnership(address)": "f2fde38b",
    "upgradeTo(address)": "3659cfe6",
    "upgradeToAndCall(address,bytes)": "4f1ef286"
  },
  "id": 50
}