{
  "abi": [
    {
      "inputs": [
        {
          "internalType": "string",
          "name": "name_",
          "type": "string"
        },
        {
          "internalType": "string",
          "name": "description_",
          "type": "string"
        },
        {
          "internalType": "string",
          "name": "moduleType_",
          "type": "string"
        },
        {
          "internalType": "address",
          "name": "spaceManager_",
          "type": "address"
        },
        {
          "internalType": "address",
          "name": "roleManager_",
          "type": "address"
        },
        {
          "internalType": "address",
          "name": "permissionRegistry_",
          "type": "address"
        }
      ],
      "stateMutability": "nonpayable",
      "type": "constructor"
    },
    {
      "inputs": [],
      "name": "InvalidParameters",
      "type": "error"
    },
    {
      "inputs": [],
      "name": "NotSpaceManager",
      "type": "error"
    },
    {
      "inputs": [],
      "name": "_permisionRegistry",
      "outputs": [
        {
          "internalType": "address",
          "name": "",
          "type": "address"
        }
      ],
      "stateMutability": "view",
      "type": "function"
    },
    {
      "inputs": [],
      "name": "_roleManager",
      "outputs": [
        {
          "internalType": "address",
          "name": "",
          "type": "address"
        }
      ],
      "stateMutability": "view",
      "type": "function"
    },
    {
      "inputs": [],
      "name": "_spaceManager",
      "outputs": [
        {
          "internalType": "address",
          "name": "",
          "type": "address"
        }
      ],
      "stateMutability": "view",
      "type": "function"
    },
    {
      "inputs": [],
      "name": "description",
      "outputs": [
        {
          "internalType": "string",
          "name": "",
          "type": "string"
        }
      ],
      "stateMutability": "view",
      "type": "function"
    },
    {
      "inputs": [
        {
          "internalType": "string",
          "name": "spaceId",
          "type": "string"
        },
        {
          "internalType": "string",
          "name": "channelId",
          "type": "string"
        },
        {
          "internalType": "uint256",
          "name": "roleId",
          "type": "uint256"
        }
      ],
      "name": "getEntitlementData",
      "outputs": [
        {
          "internalType": "bytes",
          "name": "",
          "type": "bytes"
        }
      ],
      "stateMutability": "view",
      "type": "function"
    },
    {
      "inputs": [
        {
          "internalType": "string",
          "name": "spaceId",
          "type": "string"
        },
        {
          "internalType": "string",
          "name": "channelId",
          "type": "string"
        },
        {
          "internalType": "address",
          "name": "user",
          "type": "address"
        }
      ],
      "name": "getUserRoles",
      "outputs": [
        {
          "components": [
            {
              "internalType": "uint256",
              "name": "roleId",
              "type": "uint256"
            },
            {
              "internalType": "string",
              "name": "name",
              "type": "string"
            }
          ],
          "internalType": "struct DataTypes.Role[]",
          "name": "",
          "type": "tuple[]"
        }
      ],
      "stateMutability": "view",
      "type": "function"
    },
    {
      "inputs": [
        {
          "internalType": "string",
          "name": "spaceId",
          "type": "string"
        },
        {
          "internalType": "string",
          "name": "channelId",
          "type": "string"
        },
        {
          "internalType": "address",
          "name": "user",
          "type": "address"
        },
        {
          "components": [
            {
              "internalType": "string",
              "name": "name",
              "type": "string"
            }
          ],
          "internalType": "struct DataTypes.Permission",
          "name": "permission",
          "type": "tuple"
        }
      ],
      "name": "isEntitled",
      "outputs": [
        {
          "internalType": "bool",
          "name": "",
          "type": "bool"
        }
      ],
      "stateMutability": "view",
      "type": "function"
    },
    {
      "inputs": [
        {
          "internalType": "string",
          "name": "spaceId",
          "type": "string"
        },
        {
          "internalType": "string",
          "name": "",
          "type": "string"
        },
        {
          "internalType": "address",
          "name": "user",
          "type": "address"
        },
        {
          "internalType": "string",
          "name": "tag",
          "type": "string"
        }
      ],
      "name": "isTokenEntitled",
      "outputs": [
        {
          "internalType": "bool",
          "name": "",
          "type": "bool"
        }
      ],
      "stateMutability": "view",
      "type": "function"
    },
    {
      "inputs": [],
      "name": "moduleType",
      "outputs": [
        {
          "internalType": "string",
          "name": "",
          "type": "string"
        }
      ],
      "stateMutability": "view",
      "type": "function"
    },
    {
      "inputs": [],
      "name": "name",
      "outputs": [
        {
          "internalType": "string",
          "name": "",
          "type": "string"
        }
      ],
      "stateMutability": "view",
      "type": "function"
    },
    {
      "inputs": [
        {
          "internalType": "string",
          "name": "spaceId",
          "type": "string"
        },
        {
          "internalType": "string",
          "name": "channelId",
          "type": "string"
        },
        {
          "internalType": "uint256",
          "name": "roleId",
          "type": "uint256"
        },
        {
          "internalType": "bytes",
          "name": "entitlementData",
          "type": "bytes"
        }
      ],
      "name": "removeEntitlement",
      "outputs": [],
      "stateMutability": "nonpayable",
      "type": "function"
    },
    {
      "inputs": [
        {
          "internalType": "string",
          "name": "spaceId",
          "type": "string"
        },
        {
          "internalType": "string",
          "name": "channelId",
          "type": "string"
        },
        {
          "internalType": "uint256",
          "name": "roleId",
          "type": "uint256"
        },
        {
          "internalType": "bytes",
          "name": "entitlementData",
          "type": "bytes"
        }
      ],
      "name": "setEntitlement",
      "outputs": [],
      "stateMutability": "nonpayable",
      "type": "function"
    },
    {
      "inputs": [
        {
          "internalType": "bytes4",
          "name": "interfaceId",
          "type": "bytes4"
        }
      ],
      "name": "supportsInterface",
      "outputs": [
        {
          "internalType": "bool",
          "name": "",
          "type": "bool"
        }
      ],
      "stateMutability": "view",
      "type": "function"
    }
  ],
  "bytecode": {
    "object": "0x60e06040523480156200001157600080fd5b5060405162003644380380620036448339810160408190526200003491620001a7565b85858585858562000045836200009a565b6000620000538782620002fe565b506001620000628682620002fe565b506002620000718582620002fe565b506001600160a01b0392831660805290821660a0521660c05250620003ca975050505050505050565b6001600160a01b038116620000c257604051630e52390960e41b815260040160405180910390fd5b50565b634e487b7160e01b600052604160045260246000fd5b600082601f830112620000ed57600080fd5b81516001600160401b03808211156200010a576200010a620000c5565b604051601f8301601f19908116603f01168101908282118183101715620001355762000135620000c5565b816040528381526020925086838588010111156200015257600080fd5b600091505b8382101562000176578582018301518183018401529082019062000157565b600093810190920192909252949350505050565b80516001600160a01b0381168114620001a257600080fd5b919050565b60008060008060008060c08789031215620001c157600080fd5b86516001600160401b0380821115620001d957600080fd5b620001e78a838b01620000db565b97506020890151915080821115620001fe57600080fd5b6200020c8a838b01620000db565b965060408901519150808211156200022357600080fd5b506200023289828a01620000db565b94505062000243606088016200018a565b925062000253608088016200018a565b91506200026360a088016200018a565b90509295509295509295565b600181811c908216806200028457607f821691505b602082108103620002a557634e487b7160e01b600052602260045260246000fd5b50919050565b601f821115620002f957600081815260208120601f850160051c81016020861015620002d45750805b601f850160051c820191505b81811015620002f557828155600101620002e0565b5050505b505050565b81516001600160401b038111156200031a576200031a620000c5565b62000332816200032b84546200026f565b84620002ab565b602080601f8311600181146200036a5760008415620003515750858301515b600019600386901b1c1916600185901b178555620002f5565b600085815260208120601f198616915b828110156200039b578886015182559484019460019091019084016200037a565b5085821015620003ba5787850151600019600388901b60f8161c191681555b5050505050600190811b01905550565b60805160a05160c0516131e1620004636000396000610172015260008181610217015281816106430152818161153f0152611fb6015260008181610126015281816103b801528181610753015281816109cc01528181610be901528181610c6801528181610e3101528181611075015281816110f40152818161124201528181611666015281816117f50152611eef01526131e16000f3fe608060405234801561001057600080fd5b50600436106100df5760003560e01c806382ceca421161008c578063c800fec411610066578063c800fec4146101ea578063ec6b643a146101ff578063f4339a9714610212578063faecd9e41461023957600080fd5b806382ceca42146101a4578063b6439b71146101c4578063bf77b663146101d757600080fd5b80635acad43c116100bd5780635acad43c1461016d5780636465e69f146101945780637284e4161461019c57600080fd5b806301ffc9a7146100e457806306fdde031461010c5780633820c2ad14610121575b600080fd5b6100f76100f236600461223a565b61024c565b60405190151581526020015b60405180910390f35b6101146102e5565b60405161010391906122ea565b6101487f000000000000000000000000000000000000000000000000000000000000000081565b60405173ffffffffffffffffffffffffffffffffffffffff9091168152602001610103565b6101487f000000000000000000000000000000000000000000000000000000000000000081565b610114610373565b610114610380565b6101b76101b2366004612368565b61038d565b60405161010391906123ec565b6100f76101d2366004612607565b610728565b6100f76101e53660046126ae565b6109a1565b6101fd6101f8366004612785565b610bd1565b005b6101fd61020d36600461281e565b61105d565b6101487f000000000000000000000000000000000000000000000000000000000000000081565b6101146102473660046128c2565b611660565b60007fffffffff0000000000000000000000000000000000000000000000000000000082167f09ce3a550000000000000000000000000000000000000000000000000000000014806102df57507f01ffc9a7000000000000000000000000000000000000000000000000000000007fffffffff000000000000000000000000000000000000000000000000000000008316145b92915050565b600080546102f290612936565b80601f016020809104026020016040519081016040528092919081815260200182805461031e90612936565b801561036b5780601f106103405761010080835404028352916020019161036b565b820191906000526020600020905b81548152906001019060200180831161034e57829003601f168201915b505050505081565b600280546102f290612936565b600180546102f290612936565b6040517f9ddd0d6b0000000000000000000000000000000000000000000000000000000081526060907f00000000000000000000000000000000000000000000000000000000000000009060009073ffffffffffffffffffffffffffffffffffffffff831690639ddd0d6b90610409908b908b906004016129d2565b602060405180830381865afa158015610426573d6000803e3d6000fd5b505050506040513d601f19601f8201168201806040525081019061044a91906129ee565b9050600060036000838152602001908152602001600020600101805480602002602001604051908101604052809291908181526020016000905b828210156105305783829060005260206000200180546104a390612936565b80601f01602080910402602001604051908101604052809291908181526020018280546104cf90612936565b801561051c5780601f106104f15761010080835404028352916020019161051c565b820191906000526020600020905b8154815290600101906020018083116104ff57829003601f168201915b505050505081526020019060010190610484565b5050505090506000815167ffffffffffffffff8111156105525761055261247e565b60405190808252806020026020018201604052801561059857816020015b6040805180820190915260008152606060208201528152602001906001900390816105705790505b50905060005b82518110156107185760008382815181106105bb576105bb612a07565b602002602001015190506105d38c8c8c8c8c86610728565b156107055760008581526003602052604080822090516105f4908490612a36565b908152604051908190036020018120600101547fd9af4ecf000000000000000000000000000000000000000000000000000000008252915073ffffffffffffffffffffffffffffffffffffffff7f0000000000000000000000000000000000000000000000000000000000000000169063d9af4ecf906106839089908590600401918252602082015260400190565b600060405180830381865afa1580156106a0573d6000803e3d6000fd5b505050506040513d6000823e601f3d9081017fffffffffffffffffffffffffffffffffffffffffffffffffffffffffffffffe01682016040526106e69190810190612ae9565b8484815181106106f8576106f8612a07565b6020026020010181905250505b508061071081612b1e565b91505061059e565b5093505050505b95945050505050565b6040517f9ddd0d6b0000000000000000000000000000000000000000000000000000000081526000907f000000000000000000000000000000000000000000000000000000000000000090829073ffffffffffffffffffffffffffffffffffffffff831690639ddd0d6b906107a3908c908c906004016129d2565b602060405180830381865afa1580156107c0573d6000803e3d6000fd5b505050506040513d601f19601f820116820180604052508101906107e491906129ee565b60008181526003602052604080822090519293509091610805908790612a36565b9081526020016040518091039020600401805480602002602001604051908101604052809291908181526020016000905b828210156108a55760008481526020908190206040805160808101825260048602909201805473ffffffffffffffffffffffffffffffffffffffff16835260018082015484860152600282015460ff161515928401929092526003015460608301529083529092019101610836565b5050505090506000805b82518110156109905760008382815181106108cc576108cc612a07565b602002602001015160200151905060008483815181106108ee576108ee612a07565b6020026020010151606001519050600085848151811061091057610910612a07565b6020026020010151604001519050600086858151811061093257610932612a07565b602002602001015160000151905061094d818d868587611928565b8061095e575061095e818d86611ae7565b1561096c5760019550610979565b6000955050505050610990565b50505050808061098890612b1e565b9150506108af565b5093505050505b9695505050505050565b6040517f9ddd0d6b0000000000000000000000000000000000000000000000000000000081526000907f000000000000000000000000000000000000000000000000000000000000000090829073ffffffffffffffffffffffffffffffffffffffff831690639ddd0d6b90610a1c908c908c906004016129d2565b602060405180830381865afa158015610a39573d6000803e3d6000fd5b505050506040513d601f19601f82011682018060405250810190610a5d91906129ee565b90506000600360008381526020019081526020016000206003018560000151604051610a899190612a36565b9081526020016040518091039020805480602002602001604051908101604052809291908181526020016000905b82821015610b63578382906000526020600020018054610ad690612936565b80601f0160208091040260200160405190810160405280929190818152602001828054610b0290612936565b8015610b4f5780601f10610b2457610100808354040283529160200191610b4f565b820191906000526020600020905b815481529060010190602001808311610b3257829003601f168201915b505050505081526020019060010190610ab7565b50505050905060005b8151811015610bc057610b9c8b8b8b8b8b878781518110610b8f57610b8f612a07565b6020026020010151610728565b15610bae576001945050505050610997565b80610bb881612b1e565b915050610b6c565b5060009a9950505050505050505050565b3373ffffffffffffffffffffffffffffffffffffffff7f00000000000000000000000000000000000000000000000000000000000000001614610c40576040517f2596a42e00000000000000000000000000000000000000000000000000000000815260040160405180910390fd5b6040517f9ddd0d6b0000000000000000000000000000000000000000000000000000000081527f00000000000000000000000000000000000000000000000000000000000000009060009073ffffffffffffffffffffffffffffffffffffffff831690639ddd0d6b90610cb7908a906004016122ea565b602060405180830381865afa158015610cd4573d6000803e3d6000fd5b505050506040513d601f19601f82011682018060405250810190610cf891906129ee565b905060008273ffffffffffffffffffffffffffffffffffffffff16633e66eae389896040518363ffffffff1660e01b8152600401610d37929190612b7d565b602060405180830381865afa158015610d54573d6000803e3d6000fd5b505050506040513d601f19601f82011682018060405250810190610d7891906129ee565b905060008373ffffffffffffffffffffffffffffffffffffffff16632a4bdf258a6040518263ffffffff1660e01b8152600401610db591906122ea565b6020604051808303816000875af1158015610dd4573d6000803e3d6000fd5b505050506040513d601f19601f82011682018060405250810190610df89190612ba2565b905073ffffffffffffffffffffffffffffffffffffffff8116331480610e5357503373ffffffffffffffffffffffffffffffffffffffff7f000000000000000000000000000000000000000000000000000000000000000016145b610ee4576040517f08c379a000000000000000000000000000000000000000000000000000000000815260206004820152602660248201527f4f6e6c7920746865206f776e65722063616e2075706461746520656e7469746c60448201527f656d656e7473000000000000000000000000000000000000000000000000000060648201526084015b60405180910390fd5b6000610ef286880188612be3565b80518a519192509015610fba57600085815260046020908152604080832087845282528083208c84529091529020610f2b888a83612d69565b5060008581526003602090815260408083208784526002019091528082209051610f56908490612a36565b90815260200160405180910390209050610f72818a8a8d611bb4565b6000868152600360209081526040808320888452600201825282206001908101805491820181558352912001610fa88382612e84565b50610fb48c8b84611eaf565b50611050565b60008581526005602090815260408083208c84529091529020610fde888a83612d69565b506000858152600360205260408082209051610ffb908490612a36565b90815260200160405180910390209050611017818a8a8d611bb4565b6000868152600360209081526040822060019081018054918201815583529120016110428382612e84565b5061104e8c8b84611eaf565b505b5050505050505050505050565b3373ffffffffffffffffffffffffffffffffffffffff7f000000000000000000000000000000000000000000000000000000000000000016146110cc576040517f2596a42e00000000000000000000000000000000000000000000000000000000815260040160405180910390fd5b6040517f9ddd0d6b0000000000000000000000000000000000000000000000000000000081527f00000000000000000000000000000000000000000000000000000000000000009060009073ffffffffffffffffffffffffffffffffffffffff831690639ddd0d6b90611145908c908c906004016129d2565b602060405180830381865afa158015611162573d6000803e3d6000fd5b505050506040513d601f19601f8201168201806040525081019061118691906129ee565b905060008273ffffffffffffffffffffffffffffffffffffffff16632a4bdf258b8b6040518363ffffffff1660e01b81526004016111c59291906129d2565b6020604051808303816000875af11580156111e4573d6000803e3d6000fd5b505050506040513d601f19601f820116820180604052508101906112089190612ba2565b905073ffffffffffffffffffffffffffffffffffffffff81163314158061126557503373ffffffffffffffffffffffffffffffffffffffff7f00000000000000000000000000000000000000000000000000000000000000001614155b156112f2576040517f08c379a000000000000000000000000000000000000000000000000000000000815260206004820152602660248201527f4f6e6c7920746865206f776e65722063616e2075706461746520656e7469746c60448201527f656d656e747300000000000000000000000000000000000000000000000000006064820152608401610edb565b600061130085870187612f9e565b90508715611468576040517f3e66eae300000000000000000000000000000000000000000000000000000000815260009073ffffffffffffffffffffffffffffffffffffffff861690633e66eae390611363908f908f908f908f90600401612fd3565b602060405180830381865afa158015611380573d6000803e3d6000fd5b505050506040513d601f19601f820116820180604052508101906113a491906129ee565b600085815260046020908152604080832084845282528083208c845290915281209192506113d29190612119565b60008481526003602090815260408083208484526002019091529081902090516113fd908490612a36565b90815260405190819003602001902060006114188282612119565b6000600183018190556002830180547fffffffffffffffffffffffff000000000000000000000000000000000000000016905560038301819055611460906004840190612156565b50505061150d565b60008381526005602090815260408083208a8452909152812061148a91612119565b6000838152600360205260409081902090516114a7908390612a36565b90815260405190819003602001902060006114c28282612119565b6000600183018190556002830180547fffffffffffffffffffffffff00000000000000000000000000000000000000001690556003830181905561150a906004840190612156565b50505b6040517f52f1bea2000000000000000000000000000000000000000000000000000000008152600481018490526000907f000000000000000000000000000000000000000000000000000000000000000073ffffffffffffffffffffffffffffffffffffffff16906352f1bea290602401600060405180830381865afa15801561159b573d6000803e3d6000fd5b505050506040513d6000823e601f3d9081017fffffffffffffffffffffffffffffffffffffffffffffffffffffffffffffffe01682016040526115e19190810190613005565b905060005b81518110156116515760036000868152602001908152602001600020600401600083838151811061161957611619612a07565b6020026020010151600001518152602001908152602001600020600061163f9190612177565b8061164981612b1e565b9150506115e6565b50505050505050505050505050565b606060007f000000000000000000000000000000000000000000000000000000000000000073ffffffffffffffffffffffffffffffffffffffff16639ddd0d6b88886040518363ffffffff1660e01b81526004016116bf9291906129d2565b602060405180830381865afa1580156116dc573d6000803e3d6000fd5b505050506040513d601f19601f8201168201806040525081019061170091906129ee565b905060008490036117b55760008181526005602090815260408083208684529091529020805461172f90612936565b80601f016020809104026020016040519081016040528092919081815260200182805461175b90612936565b80156117a85780601f1061177d576101008083540402835291602001916117a8565b820191906000526020600020905b81548152906001019060200180831161178b57829003601f168201915b505050505091505061071f565b6040517f3e66eae300000000000000000000000000000000000000000000000000000000815260009073ffffffffffffffffffffffffffffffffffffffff7f00000000000000000000000000000000000000000000000000000000000000001690633e66eae390611830908b908b908b908b90600401612fd3565b602060405180830381865afa15801561184d573d6000803e3d6000fd5b505050506040513d601f19601f8201168201806040525081019061187191906129ee565b6000838152600460209081526040808320848452825280832088845290915290208054919250906118a190612936565b80601f01602080910402602001604051908101604052809291908181526020018280546118cd90612936565b801561191a5780601f106118ef5761010080835404028352916020019161191a565b820191906000526020600020905b8154815290600101906020018083116118fd57829003601f168201915b50505050509250505061071f565b60008215611a1d576040517f6352211e0000000000000000000000000000000000000000000000000000000081526004810183905273ffffffffffffffffffffffffffffffffffffffff871690636352211e90602401602060405180830381865afa9250505080156119d5575060408051601f3d9081017fffffffffffffffffffffffffffffffffffffffffffffffffffffffffffffffe01682019092526119d291810190612ba2565b60015b15611adb578573ffffffffffffffffffffffffffffffffffffffff168173ffffffffffffffffffffffffffffffffffffffff1603611a1757600191505061071f565b50611adb565b6040517f70a0823100000000000000000000000000000000000000000000000000000000815273ffffffffffffffffffffffffffffffffffffffff86811660048301528716906370a0823190602401602060405180830381865afa925050508015611ac3575060408051601f3d9081017fffffffffffffffffffffffffffffffffffffffffffffffffffffffffffffffe0168201909252611ac0918101906129ee565b60015b15611adb57848110611ad957600191505061071f565b505b50600095945050505050565b6040517f70a0823100000000000000000000000000000000000000000000000000000000815273ffffffffffffffffffffffffffffffffffffffff8381166004830152600091908516906370a0823190602401602060405180830381865afa925050508015611b91575060408051601f3d9081017fffffffffffffffffffffffffffffffffffffffffffffffffffffffffffffffe0168201909252611b8e918101906129ee565b60015b15611ba957828110611ba7576001915050611bad565b505b5060005b9392505050565b6000611bc283850185612be3565b9050806020015151600003611c33576040517f08c379a000000000000000000000000000000000000000000000000000000000815260206004820152600d60248201527f4e6f20746f6b656e7320736574000000000000000000000000000000000000006044820152606401610edb565b602081015160005b8151811015611e5e57600073ffffffffffffffffffffffffffffffffffffffff16828281518110611c6e57611c6e612a07565b60200260200101516000015173ffffffffffffffffffffffffffffffffffffffff1603611cf7576040517f08c379a000000000000000000000000000000000000000000000000000000000815260206004820152601260248201527f4e6f20746f6b656e732070726f766964656400000000000000000000000000006044820152606401610edb565b818181518110611d0957611d09612a07565b602002602001015160200151600003611d7e576040517f08c379a000000000000000000000000000000000000000000000000000000000815260206004820152601660248201527f4e6f207175616e7469746965732070726f7669646564000000000000000000006044820152606401610edb565b6000828281518110611d9257611d92612a07565b60209081029190910181015160048a810180546001808201835560009283529185902084519190930290920180547fffffffffffffffffffffffff00000000000000000000000000000000000000001673ffffffffffffffffffffffffffffffffffffffff909316929092178255928201519281019290925560408101516002830180547fffffffffffffffffffffffffffffffffffffffffffffffffffffffffffffff0016911515919091179055606001516003909101555080611e5681612b1e565b915050611c3b565b506002860180547fffffffffffffffffffffffff000000000000000000000000000000000000000016331790554260038701556001860183905581518690611ea69082612e84565b50505050505050565b6040517f9ddd0d6b00000000000000000000000000000000000000000000000000000000815260009073ffffffffffffffffffffffffffffffffffffffff7f00000000000000000000000000000000000000000000000000000000000000001690639ddd0d6b90611f249087906004016122ea565b602060405180830381865afa158015611f41573d6000803e3d6000fd5b505050506040513d601f19601f82011682018060405250810190611f6591906129ee565b6040517fa7d325fc000000000000000000000000000000000000000000000000000000008152600481018290526024810185905290915060009073ffffffffffffffffffffffffffffffffffffffff7f0000000000000000000000000000000000000000000000000000000000000000169063a7d325fc90604401600060405180830381865afa158015611ffd573d6000803e3d6000fd5b505050506040513d6000823e601f3d9081017fffffffffffffffffffffffffffffffffffffffffffffffffffffffffffffffe016820160405261204391908101906130b6565b905060005b815181101561211157600082828151811061206557612065612a07565b60200260200101519050600081600001519050600360008681526020019081526020016000206003018160405161209c9190612a36565b9081526040516020918190038201902080546001810182556000918252919020016120c78782612e84565b5060008581526003602090815260408083208a84526004018252822080546001810182559083529120016120fb8782612e84565b505050808061210990612b1e565b915050612048565b505050505050565b50805461212590612936565b6000825580601f10612135575050565b601f0160209004906000526020600020908101906121539190612195565b50565b508054600082556004029060005260206000209081019061215391906121ae565b5080546000825590600052602060002090810190612153919061221d565b5b808211156121aa5760008155600101612196565b5090565b5b808211156121aa5780547fffffffffffffffffffffffff00000000000000000000000000000000000000001681556000600182018190556002820180547fffffffffffffffffffffffffffffffffffffffffffffffffffffffffffffff0016905560038201556004016121af565b808211156121aa5760006122318282612119565b5060010161221d565b60006020828403121561224c57600080fd5b81357fffffffff0000000000000000000000000000000000000000000000000000000081168114611bad57600080fd5b60005b8381101561229757818101518382015260200161227f565b50506000910152565b600081518084526122b881602086016020860161227c565b601f017fffffffffffffffffffffffffffffffffffffffffffffffffffffffffffffffe0169290920160200192915050565b602081526000611bad60208301846122a0565b60008083601f84011261230f57600080fd5b50813567ffffffffffffffff81111561232757600080fd5b60208301915083602082850101111561233f57600080fd5b9250929050565b73ffffffffffffffffffffffffffffffffffffffff8116811461215357600080fd5b60008060008060006060868803121561238057600080fd5b853567ffffffffffffffff8082111561239857600080fd5b6123a489838a016122fd565b909750955060208801359150808211156123bd57600080fd5b506123ca888289016122fd565b90945092505060408601356123de81612346565b809150509295509295909350565b60006020808301818452808551808352604092508286019150828160051b87010184880160005b83811015612470578883037fffffffffffffffffffffffffffffffffffffffffffffffffffffffffffffffc001855281518051845287015187840187905261245d878501826122a0565b9588019593505090860190600101612413565b509098975050505050505050565b7f4e487b7100000000000000000000000000000000000000000000000000000000600052604160045260246000fd5b6040516020810167ffffffffffffffff811182821017156124d0576124d061247e565b60405290565b6040805190810167ffffffffffffffff811182821017156124d0576124d061247e565b6040516080810167ffffffffffffffff811182821017156124d0576124d061247e565b604051601f82017fffffffffffffffffffffffffffffffffffffffffffffffffffffffffffffffe016810167ffffffffffffffff811182821017156125635761256361247e565b604052919050565b600067ffffffffffffffff8211156125855761258561247e565b50601f017fffffffffffffffffffffffffffffffffffffffffffffffffffffffffffffffe01660200190565b600082601f8301126125c257600080fd5b81356125d56125d08261256b565b61251c565b8181528460208386010111156125ea57600080fd5b816020850160208301376000918101602001919091529392505050565b6000806000806000806080878903121561262057600080fd5b863567ffffffffffffffff8082111561263857600080fd5b6126448a838b016122fd565b9098509650602089013591508082111561265d57600080fd5b6126698a838b016122fd565b90965094506040890135915061267e82612346565b9092506060880135908082111561269457600080fd5b506126a189828a016125b1565b9150509295509295509295565b600080600080600080608087890312156126c757600080fd5b863567ffffffffffffffff808211156126df57600080fd5b6126eb8a838b016122fd565b9098509650602089013591508082111561270457600080fd5b6127108a838b016122fd565b90965094506040890135915061272582612346565b9092506060880135908082111561273b57600080fd5b908801906020828b03121561274f57600080fd5b6127576124ad565b82358281111561276657600080fd5b6127728c8286016125b1565b8252508093505050509295509295509295565b60008060008060006080868803121561279d57600080fd5b853567ffffffffffffffff808211156127b557600080fd5b6127c189838a016125b1565b965060208801359150808211156127d757600080fd5b6127e389838a016125b1565b955060408801359450606088013591508082111561280057600080fd5b5061280d888289016122fd565b969995985093965092949392505050565b60008060008060008060006080888a03121561283957600080fd5b873567ffffffffffffffff8082111561285157600080fd5b61285d8b838c016122fd565b909950975060208a013591508082111561287657600080fd5b6128828b838c016122fd565b909750955060408a0135945060608a01359150808211156128a257600080fd5b506128af8a828b016122fd565b989b979a50959850939692959293505050565b6000806000806000606086880312156128da57600080fd5b853567ffffffffffffffff808211156128f257600080fd5b6128fe89838a016122fd565b9097509550602088013591508082111561291757600080fd5b50612924888289016122fd565b96999598509660400135949350505050565b600181811c9082168061294a57607f821691505b602082108103612983577f4e487b7100000000000000000000000000000000000000000000000000000000600052602260045260246000fd5b50919050565b8183528181602085013750600060208284010152600060207fffffffffffffffffffffffffffffffffffffffffffffffffffffffffffffffe0601f840116840101905092915050565b6020815260006129e6602083018486612989565b949350505050565b600060208284031215612a0057600080fd5b5051919050565b7f4e487b7100000000000000000000000000000000000000000000000000000000600052603260045260246000fd5b60008251612a4881846020870161227c565b9190910192915050565b600082601f830112612a6357600080fd5b8151612a716125d08261256b565b818152846020838601011115612a8657600080fd5b6129e682602083016020870161227c565b600060408284031215612aa957600080fd5b612ab16124d6565b905081518152602082015167ffffffffffffffff811115612ad157600080fd5b612add84828501612a52565b60208301525092915050565b600060208284031215612afb57600080fd5b815167ffffffffffffffff811115612b1257600080fd5b6129e684828501612a97565b60007fffffffffffffffffffffffffffffffffffffffffffffffffffffffffffffffff8203612b76577f4e487b7100000000000000000000000000000000000000000000000000000000600052601160045260246000fd5b5060010190565b604081526000612b9060408301856122a0565b828103602084015261071f81856122a0565b600060208284031215612bb457600080fd5b8151611bad81612346565b600067ffffffffffffffff821115612bd957612bd961247e565b5060051b60200190565b60006020808385031215612bf657600080fd5b823567ffffffffffffffff80821115612c0e57600080fd5b81850191506040808388031215612c2457600080fd5b612c2c6124d6565b833583811115612c3b57600080fd5b612c47898287016125b1565b8252508484013583811115612c5b57600080fd5b80850194505087601f850112612c7057600080fd5b83359250612c806125d084612bbf565b83815260079390931b84018501928581019089851115612c9f57600080fd5b948601945b84861015612d0c576080868b031215612cbd5760008081fd5b612cc56124f9565b8635612cd081612346565b81528688013588820152848701358015158114612ced5760008081fd5b8186015260608781013590820152825260809095019490860190612ca4565b95820195909552979650505050505050565b601f821115612d6457600081815260208120601f850160051c81016020861015612d455750805b601f850160051c820191505b8181101561211157828155600101612d51565b505050565b67ffffffffffffffff831115612d8157612d8161247e565b612d9583612d8f8354612936565b83612d1e565b6000601f841160018114612de75760008515612db15750838201355b7fffffffffffffffffffffffffffffffffffffffffffffffffffffffffffffffff600387901b1c1916600186901b178355612e7d565b6000838152602090207fffffffffffffffffffffffffffffffffffffffffffffffffffffffffffffffe0861690835b82811015612e365786850135825560209485019460019092019101612e16565b5086821015612e71577fffffffffffffffffffffffffffffffffffffffffffffffffffffffffffffffff60f88860031b161c19848701351681555b505060018560011b0183555b5050505050565b815167ffffffffffffffff811115612e9e57612e9e61247e565b612eb281612eac8454612936565b84612d1e565b602080601f831160018114612f055760008415612ecf5750858301515b7fffffffffffffffffffffffffffffffffffffffffffffffffffffffffffffffff600386901b1c1916600185901b178555612111565b6000858152602081207fffffffffffffffffffffffffffffffffffffffffffffffffffffffffffffffe08616915b82811015612f5257888601518255948401946001909101908401612f33565b5085821015612f8e57878501517fffffffffffffffffffffffffffffffffffffffffffffffffffffffffffffffff600388901b60f8161c191681555b5050505050600190811b01905550565b600060208284031215612fb057600080fd5b813567ffffffffffffffff811115612fc757600080fd5b6129e6848285016125b1565b604081526000612fe7604083018688612989565b8281036020840152612ffa818587612989565b979650505050505050565b6000602080838503121561301857600080fd5b825167ffffffffffffffff8082111561303057600080fd5b818501915085601f83011261304457600080fd5b81516130526125d082612bbf565b81815260059190911b8301840190848101908883111561307157600080fd5b8585015b838110156130a95780518581111561308d5760008081fd5b61309b8b89838a0101612a97565b845250918601918601613075565b5098975050505050505050565b600060208083850312156130c957600080fd5b825167ffffffffffffffff808211156130e157600080fd5b818501915085601f8301126130f557600080fd5b81516131036125d082612bbf565b81815260059190911b8301840190848101908883111561312257600080fd5b8585015b838110156130a95780518581111561313e5760008081fd5b8601808b037fffffffffffffffffffffffffffffffffffffffffffffffffffffffffffffffe0018813156131725760008081fd5b61317a6124ad565b888201518781111561318c5760008081fd5b61319a8d8b83860101612a52565b82525084525091860191860161312656fea264697066735822122091ec5b6869ffdf818b6f1c6d0ed1f0478d98dbe9efe37e924da8143b0e51a12164736f6c63430008110033",
    "linkReferences": {}
  },
  "methodIdentifiers": {
    "_permisionRegistry()": "5acad43c",
    "_roleManager()": "f4339a97",
    "_spaceManager()": "3820c2ad",
    "description()": "7284e416",
    "getEntitlementData(string,string,uint256)": "faecd9e4",
    "getUserRoles(string,string,address)": "82ceca42",
    "isEntitled(string,string,address,(string))": "bf77b663",
    "isTokenEntitled(string,string,address,string)": "b6439b71",
    "moduleType()": "6465e69f",
    "name()": "06fdde03",
    "removeEntitlement(string,string,uint256,bytes)": "ec6b643a",
    "setEntitlement(string,string,uint256,bytes)": "c800fec4",
    "supportsInterface(bytes4)": "01ffc9a7"
  },
  "id": 35
}