{
  "abi": [
    {
      "inputs": [],
      "name": "AddressNotFound",
      "type": "error"
    },
    {
      "inputs": [],
      "name": "EntitlementNotFound",
      "type": "error"
    },
    {
      "inputs": [],
      "name": "NotAllowed",
      "type": "error"
    },
    {
      "inputs": [],
      "name": "QuantityNotFound",
      "type": "error"
    },
    {
      "inputs": [],
      "name": "RoleAlreadyExists",
      "type": "error"
    },
    {
      "anonymous": false,
      "inputs": [
        {
          "indexed": false,
          "internalType": "address",
          "name": "previousAdmin",
          "type": "address"
        },
        {
          "indexed": false,
          "internalType": "address",
          "name": "newAdmin",
          "type": "address"
        }
      ],
      "name": "AdminChanged",
      "type": "event"
    },
    {
      "anonymous": false,
      "inputs": [
        {
          "indexed": true,
          "internalType": "address",
          "name": "beacon",
          "type": "address"
        }
      ],
      "name": "BeaconUpgraded",
      "type": "event"
    },
    {
      "anonymous": false,
      "inputs": [
        {
          "indexed": false,
          "internalType": "uint8",
          "name": "version",
          "type": "uint8"
        }
      ],
      "name": "Initialized",
      "type": "event"
    },
    {
      "anonymous": false,
      "inputs": [
        {
          "indexed": true,
          "internalType": "address",
          "name": "implementation",
          "type": "address"
        }
      ],
      "name": "Upgraded",
      "type": "event"
    },
    {
      "inputs": [],
      "name": "SPACE_ADDRESS",
      "outputs": [
        {
          "internalType": "address",
          "name": "",
          "type": "address"
        }
      ],
      "stateMutability": "view",
      "type": "function"
    },
    {
      "inputs": [],
      "name": "TOKEN_ADDRESS",
      "outputs": [
        {
          "internalType": "address",
          "name": "",
          "type": "address"
        }
      ],
      "stateMutability": "view",
      "type": "function"
    },
    {
      "inputs": [],
      "name": "TOKEN_ID",
      "outputs": [
        {
          "internalType": "uint256",
          "name": "",
          "type": "uint256"
        }
      ],
      "stateMutability": "view",
      "type": "function"
    },
    {
      "inputs": [
        {
          "internalType": "string",
          "name": "channelId",
          "type": "string"
        },
        {
          "internalType": "uint256",
          "name": "roleId",
          "type": "uint256"
        }
      ],
      "name": "addRoleIdToChannel",
      "outputs": [],
      "stateMutability": "nonpayable",
      "type": "function"
    },
    {
      "inputs": [
        {
          "internalType": "uint256",
          "name": "",
          "type": "uint256"
        }
      ],
      "name": "allEntitlementIds",
      "outputs": [
        {
          "internalType": "bytes32",
          "name": "",
          "type": "bytes32"
        }
      ],
      "stateMutability": "view",
      "type": "function"
    },
    {
      "inputs": [],
      "name": "description",
      "outputs": [
        {
          "internalType": "string",
          "name": "",
          "type": "string"
        }
      ],
      "stateMutability": "view",
      "type": "function"
    },
    {
      "inputs": [
        {
          "components": [
            {
              "internalType": "address",
              "name": "contractAddress",
              "type": "address"
            },
            {
              "internalType": "uint256",
              "name": "quantity",
              "type": "uint256"
            },
            {
              "internalType": "bool",
              "name": "isSingleToken",
              "type": "bool"
            },
            {
              "internalType": "uint256[]",
              "name": "tokenIds",
              "type": "uint256[]"
            }
          ],
          "internalType": "struct DataTypes.ExternalToken[]",
          "name": "tokens",
          "type": "tuple[]"
        }
      ],
      "name": "encodeExternalTokens",
      "outputs": [],
      "stateMutability": "pure",
      "type": "function"
    },
    {
      "inputs": [
        {
          "internalType": "bytes32",
          "name": "",
          "type": "bytes32"
        }
      ],
      "name": "entitlementsById",
      "outputs": [
        {
          "internalType": "uint256",
          "name": "roleId",
          "type": "uint256"
        },
        {
          "internalType": "address",
          "name": "grantedBy",
          "type": "address"
        },
        {
          "internalType": "uint256",
          "name": "grantedTime",
          "type": "uint256"
        }
      ],
      "stateMutability": "view",
      "type": "function"
    },
    {
      "inputs": [
        {
          "internalType": "uint256",
          "name": "roleId",
          "type": "uint256"
        }
      ],
      "name": "getEntitlementDataByRoleId",
      "outputs": [
        {
          "internalType": "bytes[]",
          "name": "",
          "type": "bytes[]"
        }
      ],
      "stateMutability": "view",
      "type": "function"
    },
    {
      "inputs": [
        {
          "internalType": "address",
          "name": "user",
          "type": "address"
        }
      ],
      "name": "getUserRoles",
      "outputs": [
        {
          "components": [
            {
              "internalType": "uint256",
              "name": "roleId",
              "type": "uint256"
            },
            {
              "internalType": "string",
              "name": "name",
              "type": "string"
            }
          ],
          "internalType": "struct DataTypes.Role[]",
          "name": "",
          "type": "tuple[]"
        }
      ],
      "stateMutability": "view",
      "type": "function"
    },
    {
      "inputs": [
        {
          "internalType": "address",
          "name": "_tokenAddress",
          "type": "address"
        },
        {
          "internalType": "uint256",
          "name": "_tokenId",
          "type": "uint256"
        }
      ],
      "name": "initialize",
      "outputs": [],
      "stateMutability": "nonpayable",
      "type": "function"
    },
    {
      "inputs": [
        {
          "internalType": "string",
          "name": "channelId",
          "type": "string"
        },
        {
          "internalType": "address",
          "name": "user",
          "type": "address"
        },
        {
          "internalType": "bytes32",
          "name": "permission",
          "type": "bytes32"
        }
      ],
      "name": "isEntitled",
      "outputs": [
        {
          "internalType": "bool",
          "name": "",
          "type": "bool"
        }
      ],
      "stateMutability": "view",
      "type": "function"
    },
    {
      "inputs": [],
      "name": "moduleType",
      "outputs": [
        {
          "internalType": "string",
          "name": "",
          "type": "string"
        }
      ],
      "stateMutability": "view",
      "type": "function"
    },
    {
      "inputs": [],
      "name": "name",
      "outputs": [
        {
          "internalType": "string",
          "name": "",
          "type": "string"
        }
      ],
      "stateMutability": "view",
      "type": "function"
    },
    {
      "inputs": [],
      "name": "proxiableUUID",
      "outputs": [
        {
          "internalType": "bytes32",
          "name": "",
          "type": "bytes32"
        }
      ],
      "stateMutability": "view",
      "type": "function"
    },
    {
      "inputs": [
        {
          "internalType": "uint256",
          "name": "roleId",
          "type": "uint256"
        },
        {
          "internalType": "bytes",
          "name": "entitlementData",
          "type": "bytes"
        }
      ],
      "name": "removeEntitlement",
      "outputs": [
        {
          "internalType": "bytes32",
          "name": "entitlementId",
          "type": "bytes32"
        }
      ],
      "stateMutability": "nonpayable",
      "type": "function"
    },
    {
      "inputs": [
        {
          "internalType": "string",
          "name": "channelId",
          "type": "string"
        },
        {
          "internalType": "uint256",
          "name": "roleId",
          "type": "uint256"
        }
      ],
      "name": "removeRoleIdFromChannel",
      "outputs": [],
      "stateMutability": "nonpayable",
      "type": "function"
    },
    {
      "inputs": [
        {
          "internalType": "uint256",
          "name": "roleId",
          "type": "uint256"
        },
        {
          "internalType": "bytes",
          "name": "entitlementData",
          "type": "bytes"
        }
      ],
      "name": "setEntitlement",
      "outputs": [
        {
          "internalType": "bytes32",
          "name": "entitlementId",
          "type": "bytes32"
        }
      ],
      "stateMutability": "nonpayable",
      "type": "function"
    },
    {
      "inputs": [
        {
          "internalType": "address",
          "name": "_space",
          "type": "address"
        }
      ],
      "name": "setSpace",
      "outputs": [],
      "stateMutability": "nonpayable",
      "type": "function"
    },
    {
      "inputs": [
        {
          "internalType": "bytes4",
          "name": "interfaceId",
          "type": "bytes4"
        }
      ],
      "name": "supportsInterface",
      "outputs": [
        {
          "internalType": "bool",
          "name": "",
          "type": "bool"
        }
      ],
      "stateMutability": "view",
      "type": "function"
    },
    {
      "inputs": [
        {
          "internalType": "address",
          "name": "newImplementation",
          "type": "address"
        }
      ],
      "name": "upgradeTo",
      "outputs": [],
      "stateMutability": "nonpayable",
      "type": "function"
    },
    {
      "inputs": [
        {
          "internalType": "address",
          "name": "newImplementation",
          "type": "address"
        },
        {
          "internalType": "bytes",
          "name": "data",
          "type": "bytes"
        }
      ],
      "name": "upgradeToAndCall",
      "outputs": [],
      "stateMutability": "payable",
      "type": "function"
    }
  ],
  "bytecode": {
    "object": "0x60a06040523060805234801561001457600080fd5b50608051612c0861004c600039600081816108f60152818161093f015281816109de01528181610a1e0152610aad0152612c086000f3fe6080604052600436106101345760003560e01c80635427e86a116100ab578063c513be771161006f578063c513be77146103d5578063cd6dc687146103f5578063d3b2cfbf14610415578063ef8be5741461047d578063f32f83ce1461049d578063fa6d1adf146104bd57600080fd5b80635427e86a146103025780636465e69f146103215780637284e4161461035d57806389a890021461039f578063b7676170146103b557600080fd5b80630bdf5300116100fd5780630bdf5300146102275780631eee07b21461025f57806334322eff1461028c5780633659cfe6146102ac5780634f1ef286146102cc57806352d1902d146102df57600080fd5b8062b4eaa81461013957806301ffc9a71461016e57806303b405341461018e57806306a36aee146101b057806306fdde03146101dd575b600080fd5b34801561014557600080fd5b506101596101543660046121d0565b6104dd565b60405190151581526020015b60405180910390f35b34801561017a57600080fd5b5061015961018936600461222c565b610531565b34801561019a57600080fd5b506101ae6101a9366004612256565b610568565b005b3480156101bc57600080fd5b506101d06101cb366004612256565b610627565b60405161016591906122c3565b3480156101e957600080fd5b5061021a60405180604001604052806011815260200170151bdad95b88115b9d1a5d1b195b595b9d607a1b81525081565b6040516101659190612337565b34801561023357600080fd5b5060ca54610247906001600160a01b031681565b6040516001600160a01b039091168152602001610165565b34801561026b57600080fd5b5061027f61027a36600461234a565b6107ad565b6040516101659190612363565b34801561029857600080fd5b5060c954610247906001600160a01b031681565b3480156102b857600080fd5b506101ae6102c7366004612256565b6108ec565b6101ae6102da36600461247c565b6109d4565b3480156102eb57600080fd5b506102f4610aa0565b604051908152602001610165565b34801561030e57600080fd5b506101ae61031d36600461250e565b5050565b34801561032d57600080fd5b5061021a6040518060400160405280601081526020016f151bdad95b915b9d1a5d1b195b595b9d60821b81525081565b34801561036957600080fd5b5061021a60405180604001604052806016815260200175456e7469746c656d656e7420666f7220746f6b656e7360501b81525081565b3480156103ab57600080fd5b506102f460cb5481565b3480156103c157600080fd5b506102f46103d036600461234a565b610b53565b3480156103e157600080fd5b506101ae6103f0366004612582565b610b74565b34801561040157600080fd5b506101ae6104103660046125cd565b610ca9565b34801561042157600080fd5b5061045a61043036600461234a565b60cc6020526000908152604090208054600182015460029092015490916001600160a01b03169083565b604080519384526001600160a01b03909216602084015290820152606001610165565b34801561048957600080fd5b506102f46104983660046125f9565b610dec565b3480156104a957600080fd5b506101ae6104b8366004612582565b611066565b3480156104c957600080fd5b506102f46104d83660046125f9565b611195565b6000831561051f5761051885856040516020016104fb929190612644565b60405160208183030381529060405280519060200120848461125f565b9050610529565b61051883836113b9565b949350505050565b60006001600160e01b0319821663e5e65adf60e01b148061056257506301ffc9a760e01b6001600160e01b03198316145b92915050565b3360ca5460cb546040516331a9108f60e11b815260048101919091526001600160a01b039283169290911690636352211e90602401602060405180830381865afa1580156105ba573d6000803e3d6000fd5b505050506040513d601f19601f820116820180604052508101906105de9190612654565b6001600160a01b03161461060557604051631eb49d6d60e11b815260040160405180910390fd5b60c980546001600160a01b0319166001600160a01b0392909216919091179055565b60cf546060906000906001600160401b03811115610647576106476123c5565b60405190808252806020026020018201604052801561068d57816020015b6040805180820190915260008152606060208201528152602001906001900390816106655790505b50905060005b60cf548110156107a6576106c48460cf83815481106106b4576106b4612671565b90600052602060002001546115c1565b1561079457600060cc600060cf84815481106106e2576106e2612671565b600091825260208083209190910154835282019290925260409081019091205460c954915163784c872b60e01b8152600481018290529092506001600160a01b039091169063784c872b90602401600060405180830381865afa15801561074d573d6000803e3d6000fd5b505050506040513d6000823e601f3d908101601f191682016040526107759190810190612687565b83838151811061078757610787612671565b6020026020010181905250505b8061079e81612751565b915050610693565b5092915050565b600081815260ce6020908152604080832080548251818502810185019093528083526060949383018282801561080257602002820191906000526020600020905b8154815260200190600101908083116107ee575b50505050509050600081516001600160401b03811115610824576108246123c5565b60405190808252806020026020018201604052801561085757816020015b60608152602001906001900390816108425790505b50905060005b82518110156108e45760cc600084838151811061087c5761087c612671565b602002602001015181526020019081526020016000206003016040516020016108a5919061276a565b6040516020818303038152906040528282815181106108c6576108c6612671565b602002602001018190525080806108dc90612751565b91505061085d565b509392505050565b6001600160a01b037f000000000000000000000000000000000000000000000000000000000000000016300361093d5760405162461bcd60e51b815260040161093490612834565b60405180910390fd5b7f00000000000000000000000000000000000000000000000000000000000000006001600160a01b0316610986600080516020612b8c833981519152546001600160a01b031690565b6001600160a01b0316146109ac5760405162461bcd60e51b815260040161093490612880565b6109b5816117db565b604080516000808252602082019092526109d19183919061180f565b50565b6001600160a01b037f0000000000000000000000000000000000000000000000000000000000000000163003610a1c5760405162461bcd60e51b815260040161093490612834565b7f00000000000000000000000000000000000000000000000000000000000000006001600160a01b0316610a65600080516020612b8c833981519152546001600160a01b031690565b6001600160a01b031614610a8b5760405162461bcd60e51b815260040161093490612880565b610a94826117db565b61031d8282600161180f565b6000306001600160a01b037f00000000000000000000000000000000000000000000000000000000000000001614610b405760405162461bcd60e51b815260206004820152603860248201527f555550535570677261646561626c653a206d757374206e6f742062652063616c60448201527f6c6564207468726f7567682064656c656761746563616c6c00000000000000006064820152608401610934565b50600080516020612b8c83398151915290565b60cf8181548110610b6357600080fd5b600091825260209091200154905081565b60c9546001600160a01b0316336001600160a01b031614610ba857604051631eb49d6d60e11b815260040160405180910390fd5b60008383604051602001610bbd929190612644565b60408051601f198184030181528282528051602091820120600081815260cd835283812080548085028701850190955284865291955093929091830182828015610c2657602002820191906000526020600020905b815481526020019060010190808311610c12575b5050505050905060005b8151811015610c845783828281518110610c4c57610c4c612671565b602002602001015103610c7257604051636014eda760e11b815260040160405180910390fd5b80610c7c81612751565b915050610c30565b5050600090815260cd6020908152604082208054600181018255908352912001555050565b600054610100900460ff1615808015610cc95750600054600160ff909116105b80610ce35750303b158015610ce3575060005460ff166001145b610d465760405162461bcd60e51b815260206004820152602e60248201527f496e697469616c697a61626c653a20636f6e747261637420697320616c72656160448201526d191e481a5b9a5d1a585b1a5e995960921b6064820152608401610934565b6000805460ff191660011790558015610d69576000805461ff0019166101001790555b610d7161197a565b610d7961197a565b610d8161197a565b60ca80546001600160a01b0319166001600160a01b03851617905560cb8290558015610de7576000805461ff0019169055604051600181527f7f26b83ff96e1f2b6a682f133852f6798a09c465da95921460cefb38474024989060200160405180910390a15b505050565b60c9546000906001600160a01b0316336001600160a01b031614610e2357604051631eb49d6d60e11b815260040160405180910390fd5b838383604051602001610e38939291906128cc565b60408051601f19818403018152919052805160209091012090506000610e6083850185612917565b90508051600003610e8457604051633d9e48f360e21b815260040160405180910390fd5b60005b8151811015610fde5760006001600160a01b0316828281518110610ead57610ead612671565b6020026020010151600001516001600160a01b031603610ee057604051636054b46960e01b815260040160405180910390fd5b818181518110610ef257610ef2612671565b602002602001015160200151600003610f1e5760405163f2d34be760e01b815260040160405180910390fd5b60cc6000848152602001908152602001600020600301828281518110610f4657610f46612671565b602090810291909101810151825460018082018555600094855293839020825160049092020180546001600160a01b0319166001600160a01b039092169190911781558183015193810193909355604081015160028401805460ff191691151591909117905560608101518051919392610fc892600385019290910190612093565b5050508080610fd690612751565b915050610e87565b5050600081815260cc60209081526040808320878155600180820180546001600160a01b031916331790554260029092019190915596835260ce82528220805480880182559083529082200182905560cf8054958601815590527facb8d954e2cfef495862221e91bd7523613cf8808827cb33edfe4904cc51bf299093018390555090919050565b60c9546001600160a01b0316336001600160a01b03161461109a57604051631eb49d6d60e11b815260040160405180910390fd5b600083836040516020016110af929190612644565b60408051601f198184030181529181528151602092830120600081815260cd909352908220909250905b815481101561118d57838282815481106110f5576110f5612671565b90600052602060002001540361117b578154829061111590600190612a80565b8154811061112557611125612671565b906000526020600020015482828154811061114257611142612671565b90600052602060002001819055508180548061116057611160612a93565b6001900381819060005260206000200160009055905561118d565b8061118581612751565b9150506110d9565b505050505050565b60c9546000906001600160a01b0316336001600160a01b0316146111cc57604051631eb49d6d60e11b815260040160405180910390fd5b8383836040516020016111e1939291906128cc565b60408051601f198184030181529181528151602092830120600087815260ce909352912090915061121281836119e7565b61121d60cf836119e7565b600082815260cc602052604081208181556001810180546001600160a01b0319169055600281018290559061125560038301826120de565b5050509392505050565b600083815260cd60209081526040808320805482518185028101850190935280835284938301828280156112b257602002820191906000526020600020905b81548152602001906001019080831161129e575b5050505050905060005b81518110156113b05760008282815181106112d9576112d9612671565b602002602001015190506112ed8186611a9e565b1561139d57600081815260ce602090815260408083208054825181850281018501909352808352919290919083018282801561134857602002820191906000526020600020905b815481526020019060010190808311611334575b5050505050905060005b815181101561139a5761137e8883838151811061137157611371612671565b60200260200101516115c1565b1561138857600195505b8061139281612751565b915050611352565b50505b50806113a881612751565b9150506112bc565b50509392505050565b6000805b60cf548110156107a657600060cf82815481106113dc576113dc612671565b600091825260208083209091015480835260cc8252604080842081516080810183528154815260018201546001600160a01b03168186015260028201548184015260038201805484518188028101880190955280855294975090949193606086019392879084015b828210156114f2576000848152602090819020604080516080810182526004860290920180546001600160a01b03168352600181015483850152600281015460ff16151583830152600381018054835181870281018701909452808452939491936060860193928301828280156114da57602002820191906000526020600020905b8154815260200190600101908083116114c6575b50505050508152505081526020019060010190611444565b5050509152505080519091506115088187611a9e565b156115ab57600081815260ce602090815260408083208054825181850281018501909352808352919290919083018282801561156357602002820191906000526020600020905b81548152602001906001019080831161154f575b5050505050905060005b81518110156115a85761158c8983838151811061137157611371612671565b1561159657600196505b806115a081612751565b91505061156d565b50505b50505080806115b990612751565b9150506113bd565b600081815260cc6020908152604080832060030180548251818502810185019093528083528493849084015b8282101561169b576000848152602090819020604080516080810182526004860290920180546001600160a01b03168352600181015483850152600281015460ff161515838301526003810180548351818702810187019094528084529394919360608601939283018282801561168357602002820191906000526020600020905b81548152602001906001019080831161166f575b505050505081525050815260200190600101906115ed565b5050505090506000805b82518110156117d25760008382815181106116c2576116c2612671565b602002602001015160200151905060008483815181106116e4576116e4612671565b6020026020010151600001519050600085848151811061170657611706612671565b6020026020010151606001519050600086858151811061172857611728612671565b6020026020010151604001519050611747836380ac58cd60e01b611b6c565b1561176a57611759838b868486611bec565b9550851561176a57505050506117c0565b61177b83636cdb3d1360e11b611b6c565b1561179e5761178d838b868486611d49565b9550851561179e57505050506117c0565b6117ab838b868486611e3d565b9550856117bb57505050506117d2565b505050505b806117ca81612751565b9150506116a5565b50949350505050565b60c9546001600160a01b0316336001600160a01b0316146109d157604051631eb49d6d60e11b815260040160405180910390fd5b7f4910fdfa16fed3260ed0e7147f7cc6da11a60208b5b9406d12a635614ffd91435460ff161561184257610de783611e5c565b826001600160a01b03166352d1902d6040518163ffffffff1660e01b8152600401602060405180830381865afa92505050801561189c575060408051601f3d908101601f1916820190925261189991810190612aa9565b60015b6118ff5760405162461bcd60e51b815260206004820152602e60248201527f45524331393637557067726164653a206e657720696d706c656d656e7461746960448201526d6f6e206973206e6f74205555505360901b6064820152608401610934565b600080516020612b8c833981519152811461196e5760405162461bcd60e51b815260206004820152602960248201527f45524331393637557067726164653a20756e737570706f727465642070726f786044820152681a58589b195555525160ba1b6064820152608401610934565b50610de7838383611ef8565b600054610100900460ff166119e55760405162461bcd60e51b815260206004820152602b60248201527f496e697469616c697a61626c653a20636f6e7472616374206973206e6f74206960448201526a6e697469616c697a696e6760a81b6064820152608401610934565b565b60005b8254811015610de75781838281548110611a0657611a06612671565b906000526020600020015403611a8c5782548390611a2690600190612a80565b81548110611a3657611a36612671565b9060005260206000200154838281548110611a5357611a53612671565b906000526020600020018190555082805480611a7157611a71612a93565b60019003818190600052602060002001600090559055505050565b80611a9681612751565b9150506119ea565b60c95460405163b426423360e01b8152600481018490526000916001600160a01b0316908290829063b426423390602401600060405180830381865afa158015611aec573d6000803e3d6000fd5b505050506040513d6000823e601f3d908101601f19168201604052611b149190810190612ac2565b905060005b8151811015611b605784828281518110611b3557611b35612671565b602002602001015103611b4e5760019350505050610562565b80611b5881612751565b915050611b19565b50600095945050505050565b6040516301ffc9a760e01b81526001600160e01b0319821660048201526000906001600160a01b038416906301ffc9a790602401602060405180830381865afa925050508015611bd9575060408051601f3d908101601f19168201909252611bd691810190612b52565b60015b611be557506000610562565b9050610562565b60008215611cc35760005b8251811015611cbd57866001600160a01b0316636352211e848381518110611c2157611c21612671565b60200260200101516040518263ffffffff1660e01b8152600401611c4791815260200190565b602060405180830381865afa925050508015611c80575060408051601f3d908101601f19168201909252611c7d91810190612654565b60015b15611cab57866001600160a01b0316816001600160a01b031603611ca957600192505050611d40565b505b80611cb581612751565b915050611bf7565b50611b60565b6040516370a0823160e01b81526001600160a01b0386811660048301528716906370a0823190602401602060405180830381865afa925050508015611d25575060408051601f3d908101601f19168201909252611d2291810190612aa9565b60015b15611b6057848110611d3b576001915050611d40565b505060005b95945050505050565b6000805b8251811015611d3b57866001600160a01b031662fdd58e87858481518110611d7757611d77612671565b60200260200101516040518363ffffffff1660e01b8152600401611db09291906001600160a01b03929092168252602082015260400190565b602060405180830381865afa925050508015611de9575060408051601f3d908101601f19168201909252611de691810190612aa9565b60015b15611e2b57848015611dfb5750600081115b15611e0b57600192505050611d40565b84158015611e195750858110155b15611e2957600192505050611d40565b505b80611e3581612751565b915050611d4d565b60008215611e4d57506000611d40565b815115611cc357506000611d40565b6001600160a01b0381163b611ec95760405162461bcd60e51b815260206004820152602d60248201527f455243313936373a206e657720696d706c656d656e746174696f6e206973206e60448201526c1bdd08184818dbdb9d1c9858dd609a1b6064820152608401610934565b600080516020612b8c83398151915280546001600160a01b0319166001600160a01b0392909216919091179055565b611f0183611f23565b600082511180611f0e5750805b15610de757611f1d8383611f63565b50505050565b611f2c81611e5c565b6040516001600160a01b038216907fbc7cd75a20ee27fd9adebab32041f755214dbc6bffa90cc0225b39da2e5c2d3b90600090a250565b60606001600160a01b0383163b611fcb5760405162461bcd60e51b815260206004820152602660248201527f416464726573733a2064656c65676174652063616c6c20746f206e6f6e2d636f6044820152651b9d1c9858dd60d21b6064820152608401610934565b600080846001600160a01b031684604051611fe69190612b6f565b600060405180830381855af49150503d8060008114612021576040519150601f19603f3d011682016040523d82523d6000602084013e612026565b606091505b5091509150611d408282604051806060016040528060278152602001612bac6027913960608315612058575081612062565b6120628383612069565b9392505050565b8151156120795781518083602001fd5b8060405162461bcd60e51b81526004016109349190612337565b8280548282559060005260206000209081019282156120ce579160200282015b828111156120ce5782518255916020019190600101906120b3565b506120da9291506120ff565b5090565b50805460008255600402906000526020600020908101906109d19190612114565b5b808211156120da5760008155600101612100565b808211156120da5780546001600160a01b031916815560006001820181905560028201805460ff1916905561214c6003830182612155565b50600401612114565b50805460008255906000526020600020908101906109d191906120ff565b60008083601f84011261218557600080fd5b5081356001600160401b0381111561219c57600080fd5b6020830191508360208285010111156121b457600080fd5b9250929050565b6001600160a01b03811681146109d157600080fd5b600080600080606085870312156121e657600080fd5b84356001600160401b038111156121fc57600080fd5b61220887828801612173565b909550935050602085013561221c816121bb565b9396929550929360400135925050565b60006020828403121561223e57600080fd5b81356001600160e01b03198116811461206257600080fd5b60006020828403121561226857600080fd5b8135612062816121bb565b60005b8381101561228e578181015183820152602001612276565b50506000910152565b600081518084526122af816020860160208601612273565b601f01601f19169290920160200192915050565b60006020808301818452808551808352604092508286019150828160051b87010184880160005b8381101561232957888303603f1901855281518051845287015187840187905261231687850182612297565b95880195935050908601906001016122ea565b509098975050505050505050565b6020815260006120626020830184612297565b60006020828403121561235c57600080fd5b5035919050565b6000602080830181845280855180835260408601915060408160051b870101925083870160005b828110156123b857603f198886030184526123a6858351612297565b9450928501929085019060010161238a565b5092979650505050505050565b634e487b7160e01b600052604160045260246000fd5b604080519081016001600160401b03811182821017156123fd576123fd6123c5565b60405290565b604051608081016001600160401b03811182821017156123fd576123fd6123c5565b604051601f8201601f191681016001600160401b038111828210171561244d5761244d6123c5565b604052919050565b60006001600160401b0382111561246e5761246e6123c5565b50601f01601f191660200190565b6000806040838503121561248f57600080fd5b823561249a816121bb565b915060208301356001600160401b038111156124b557600080fd5b8301601f810185136124c657600080fd5b80356124d96124d482612455565b612425565b8181528660208385010111156124ee57600080fd5b816020840160208301376000602083830101528093505050509250929050565b6000806020838503121561252157600080fd5b82356001600160401b038082111561253857600080fd5b818501915085601f83011261254c57600080fd5b81358181111561255b57600080fd5b8660208260051b850101111561257057600080fd5b60209290920196919550909350505050565b60008060006040848603121561259757600080fd5b83356001600160401b038111156125ad57600080fd5b6125b986828701612173565b909790965060209590950135949350505050565b600080604083850312156125e057600080fd5b82356125eb816121bb565b946020939093013593505050565b60008060006040848603121561260e57600080fd5b8335925060208401356001600160401b0381111561262b57600080fd5b61263786828701612173565b9497909650939450505050565b8183823760009101908152919050565b60006020828403121561266657600080fd5b8151612062816121bb565b634e487b7160e01b600052603260045260246000fd5b6000602080838503121561269a57600080fd5b82516001600160401b03808211156126b157600080fd5b90840190604082870312156126c557600080fd5b6126cd6123db565b8251815283830151828111156126e257600080fd5b80840193505086601f8401126126f757600080fd5b825191506127076124d483612455565b828152878584860101111561271b57600080fd5b61272a83868301878701612273565b938101939093525090949350505050565b634e487b7160e01b600052601160045260246000fd5b6000600182016127635761276361273b565b5060010190565b60006020808301818452808554808352604092508286019150828160051b8701016000888152858120815b8481101561282557898403603f1901865281546001600160a01b0316845260018281015489860152600283015460ff16151588860152608060608601819052600384018054918701829052855289852060a0870192909186905b8082101561280c5783548552938c019392820192908201906127ef565b5050509689019650935060049190910190600101612795565b50919998505050505050505050565b6020808252602c908201527f46756e6374696f6e206d7573742062652063616c6c6564207468726f7567682060408201526b19195b1959d85d1958d85b1b60a21b606082015260800190565b6020808252602c908201527f46756e6374696f6e206d7573742062652063616c6c6564207468726f7567682060408201526b6163746976652070726f787960a01b606082015260800190565b838152818360208301376000910160200190815292915050565b60006001600160401b038211156128ff576128ff6123c5565b5060051b60200190565b80151581146109d157600080fd5b6000602080838503121561292a57600080fd5b82356001600160401b038082111561294157600080fd5b818501915085601f83011261295557600080fd5b81356129636124d4826128e6565b81815260059190911b8301840190848101908883111561298257600080fd5b8585015b83811015612a735780358581111561299d57600080fd5b86016080818c03601f190112156129b357600080fd5b6129bb612403565b888201356129c8816121bb565b81526040828101358a83015260608301356129e281612909565b828201526080830135888111156129f95760008081fd5b8084019350508c603f840112612a0f5760008081fd5b89830135612a1f6124d4826128e6565b81815260059190911b84018201908b8101908f831115612a3f5760008081fd5b948301945b82861015612a5d5785358252948c0194908c0190612a44565b6060850152505050845250918601918601612986565b5098975050505050505050565b818103818111156105625761056261273b565b634e487b7160e01b600052603160045260246000fd5b600060208284031215612abb57600080fd5b5051919050565b60006020808385031215612ad557600080fd5b82516001600160401b03811115612aeb57600080fd5b8301601f81018513612afc57600080fd5b8051612b0a6124d4826128e6565b81815260059190911b82018301908381019087831115612b2957600080fd5b928401925b82841015612b4757835182529284019290840190612b2e565b979650505050505050565b600060208284031215612b6457600080fd5b815161206281612909565b60008251612b81818460208701612273565b919091019291505056fe360894a13ba1a3210667c828492db98dca3e2076cc3735a920a3ca505d382bbc416464726573733a206c6f772d6c6576656c2064656c65676174652063616c6c206661696c6564a2646970667358221220a90ebc2485c2c0e26f4d7b96f0824f03fde091790caf79f7f58520e26c89e12764736f6c63430008110033",
    "linkReferences": {}
  },
  "methodIdentifiers": {
    "SPACE_ADDRESS()": "34322eff",
    "TOKEN_ADDRESS()": "0bdf5300",
    "TOKEN_ID()": "89a89002",
    "addRoleIdToChannel(string,uint256)": "c513be77",
    "allEntitlementIds(uint256)": "b7676170",
    "description()": "7284e416",
    "encodeExternalTokens((address,uint256,bool,uint256[])[])": "5427e86a",
    "entitlementsById(bytes32)": "d3b2cfbf",
    "getEntitlementDataByRoleId(uint256)": "1eee07b2",
    "getUserRoles(address)": "06a36aee",
    "initialize(address,uint256)": "cd6dc687",
    "isEntitled(string,address,bytes32)": "00b4eaa8",
    "moduleType()": "6465e69f",
    "name()": "06fdde03",
    "proxiableUUID()": "52d1902d",
    "removeEntitlement(uint256,bytes)": "fa6d1adf",
    "removeRoleIdFromChannel(string,uint256)": "f32f83ce",
    "setEntitlement(uint256,bytes)": "ef8be574",
    "setSpace(address)": "03b40534",
    "supportsInterface(bytes4)": "01ffc9a7",
    "upgradeTo(address)": "3659cfe6",
    "upgradeToAndCall(address,bytes)": "4f1ef286"
  },
  "id": 15
}