{
  "abi": [
    {
      "inputs": [
        {
          "internalType": "string",
          "name": "name_",
          "type": "string"
        },
        {
          "internalType": "string",
          "name": "description_",
          "type": "string"
        },
        {
          "internalType": "string",
          "name": "moduleType_",
          "type": "string"
        },
        {
          "internalType": "address",
          "name": "spaceManager_",
          "type": "address"
        },
        {
          "internalType": "address",
          "name": "roleManager_",
          "type": "address"
        },
        {
          "internalType": "address",
          "name": "permissionRegistry_",
          "type": "address"
        }
      ],
      "stateMutability": "nonpayable",
      "type": "constructor"
    },
    {
      "inputs": [],
      "name": "InvalidParameters",
      "type": "error"
    },
    {
      "inputs": [],
      "name": "NotSpaceManager",
      "type": "error"
    },
    {
      "inputs": [],
      "name": "RoleAlreadyExists",
      "type": "error"
    },
    {
      "inputs": [],
      "name": "_permisionRegistry",
      "outputs": [
        {
          "internalType": "address",
          "name": "",
          "type": "address"
        }
      ],
      "stateMutability": "view",
      "type": "function"
    },
    {
      "inputs": [],
      "name": "_roleManager",
      "outputs": [
        {
          "internalType": "address",
          "name": "",
          "type": "address"
        }
      ],
      "stateMutability": "view",
      "type": "function"
    },
    {
      "inputs": [],
      "name": "_spaceManager",
      "outputs": [
        {
          "internalType": "address",
          "name": "",
          "type": "address"
        }
      ],
      "stateMutability": "view",
      "type": "function"
    },
    {
      "inputs": [
        {
          "internalType": "uint256",
          "name": "spaceId",
          "type": "uint256"
        },
        {
          "internalType": "uint256",
          "name": "channelId",
          "type": "uint256"
        },
        {
          "internalType": "uint256",
          "name": "roleId",
          "type": "uint256"
        }
      ],
      "name": "addRoleIdToChannel",
      "outputs": [],
      "stateMutability": "nonpayable",
      "type": "function"
    },
    {
      "inputs": [],
      "name": "description",
      "outputs": [
        {
          "internalType": "string",
          "name": "",
          "type": "string"
        }
      ],
      "stateMutability": "view",
      "type": "function"
    },
    {
      "inputs": [
        {
          "internalType": "uint256",
          "name": "spaceId",
          "type": "uint256"
        },
        {
          "internalType": "uint256",
          "name": "roleId",
          "type": "uint256"
        }
      ],
      "name": "getEntitlementDataByRoleId",
      "outputs": [
        {
          "internalType": "bytes[]",
          "name": "",
          "type": "bytes[]"
        }
      ],
      "stateMutability": "view",
      "type": "function"
    },
    {
      "inputs": [
        {
          "internalType": "uint256",
          "name": "spaceId",
          "type": "uint256"
        },
        {
          "internalType": "address",
          "name": "user",
          "type": "address"
        }
      ],
      "name": "getUserRoles",
      "outputs": [
        {
          "components": [
            {
              "internalType": "uint256",
              "name": "roleId",
              "type": "uint256"
            },
            {
              "internalType": "string",
              "name": "name",
              "type": "string"
            }
          ],
          "internalType": "struct DataTypes.Role[]",
          "name": "",
          "type": "tuple[]"
        }
      ],
      "stateMutability": "view",
      "type": "function"
    },
    {
      "inputs": [
        {
          "internalType": "uint256",
          "name": "spaceId",
          "type": "uint256"
        },
        {
          "internalType": "uint256",
          "name": "channelId",
          "type": "uint256"
        },
        {
          "internalType": "address",
          "name": "user",
          "type": "address"
        },
        {
          "components": [
            {
              "internalType": "string",
              "name": "name",
              "type": "string"
            }
          ],
          "internalType": "struct DataTypes.Permission",
          "name": "permission",
          "type": "tuple"
        }
      ],
      "name": "isEntitled",
      "outputs": [
        {
          "internalType": "bool",
          "name": "",
          "type": "bool"
        }
      ],
      "stateMutability": "view",
      "type": "function"
    },
    {
      "inputs": [],
      "name": "moduleType",
      "outputs": [
        {
          "internalType": "string",
          "name": "",
          "type": "string"
        }
      ],
      "stateMutability": "view",
      "type": "function"
    },
    {
      "inputs": [],
      "name": "name",
      "outputs": [
        {
          "internalType": "string",
          "name": "",
          "type": "string"
        }
      ],
      "stateMutability": "view",
      "type": "function"
    },
    {
      "inputs": [
        {
          "internalType": "uint256",
          "name": "spaceId",
          "type": "uint256"
        },
        {
          "internalType": "uint256",
          "name": "channelId",
          "type": "uint256"
        },
        {
          "internalType": "uint256",
          "name": "roleId",
          "type": "uint256"
        }
      ],
      "name": "removeRoleIdFromChannel",
      "outputs": [],
      "stateMutability": "nonpayable",
      "type": "function"
    },
    {
      "inputs": [
        {
          "internalType": "uint256",
          "name": "spaceId",
          "type": "uint256"
        },
        {
          "internalType": "uint256",
          "name": "roleId",
          "type": "uint256"
        },
        {
          "internalType": "bytes",
          "name": "entitlementData",
          "type": "bytes"
        }
      ],
      "name": "removeSpaceEntitlement",
      "outputs": [],
      "stateMutability": "nonpayable",
      "type": "function"
    },
    {
      "inputs": [
        {
          "internalType": "uint256",
          "name": "spaceId",
          "type": "uint256"
        },
        {
          "internalType": "uint256",
          "name": "roleId",
          "type": "uint256"
        },
        {
          "internalType": "bytes",
          "name": "entitlementData",
          "type": "bytes"
        }
      ],
      "name": "setSpaceEntitlement",
      "outputs": [],
      "stateMutability": "nonpayable",
      "type": "function"
    },
    {
      "inputs": [
        {
          "internalType": "bytes4",
          "name": "interfaceId",
          "type": "bytes4"
        }
      ],
      "name": "supportsInterface",
      "outputs": [
        {
          "internalType": "bool",
          "name": "",
          "type": "bool"
        }
      ],
      "stateMutability": "view",
      "type": "function"
    }
  ],
  "bytecode": {
    "object": "0x60e06040523480156200001157600080fd5b5060405162002464380380620024648339810160408190526200003491620001a7565b85858585858562000045836200009a565b6000620000538782620002fe565b506001620000628682620002fe565b506002620000718582620002fe565b506001600160a01b0392831660805290821660a0521660c05250620003ca975050505050505050565b6001600160a01b038116620000c257604051630e52390960e41b815260040160405180910390fd5b50565b634e487b7160e01b600052604160045260246000fd5b600082601f830112620000ed57600080fd5b81516001600160401b03808211156200010a576200010a620000c5565b604051601f8301601f19908116603f01168101908282118183101715620001355762000135620000c5565b816040528381526020925086838588010111156200015257600080fd5b600091505b8382101562000176578582018301518183018401529082019062000157565b600093810190920192909252949350505050565b80516001600160a01b0381168114620001a257600080fd5b919050565b60008060008060008060c08789031215620001c157600080fd5b86516001600160401b0380821115620001d957600080fd5b620001e78a838b01620000db565b97506020890151915080821115620001fe57600080fd5b6200020c8a838b01620000db565b965060408901519150808211156200022357600080fd5b506200023289828a01620000db565b94505062000243606088016200018a565b925062000253608088016200018a565b91506200026360a088016200018a565b90509295509295509295565b600181811c908216806200028457607f821691505b602082108103620002a557634e487b7160e01b600052602260045260246000fd5b50919050565b601f821115620002f957600081815260208120601f850160051c81016020861015620002d45750805b601f850160051c820191505b81811015620002f557828155600101620002e0565b5050505b505050565b81516001600160401b038111156200031a576200031a620000c5565b62000332816200032b84546200026f565b84620002ab565b602080601f8311600181146200036a5760008415620003515750858301515b600019600386901b1c1916600185901b178555620002f5565b600085815260208120601f198616915b828110156200039b578886015182559484019460019091019084016200037a565b5085821015620003ba5787850151600019600388901b60f8161c191681555b5050505050600190811b01905550565b60805160a05160c0516120406200042460003960006101ab0152600081816102280152818161120601526115cb0152600081816101310152818161033a015281816108fa01528181610a2e0152610b5c01526120406000f3fe608060405234801561001057600080fd5b50600436106100ea5760003560e01c80635c1b185d1161008c5780637284e416116100665780637284e416146101fb5780637966df4214610203578063f4339a9714610223578063f725f2f61461024a57600080fd5b80635c1b185d146101cd5780636465e69f146101e057806366218999146101e857600080fd5b80633d1dea8c116100c85780633d1dea8c1461016b57806340a74b43146101805780634b0fd1a2146101935780635acad43c146101a657600080fd5b806301ffc9a7146100ef57806306fdde03146101175780633820c2ad1461012c575b600080fd5b6101026100fd36600461177f565b61026a565b60405190151581526020015b60405180910390f35b61011f6102a1565b60405161010e91906117f9565b6101537f000000000000000000000000000000000000000000000000000000000000000081565b6040516001600160a01b03909116815260200161010e565b61017e61017936600461180c565b61032f565b005b61017e61018e36600461188c565b6108ef565b61017e6101a136600461180c565b610a23565b6101537f000000000000000000000000000000000000000000000000000000000000000081565b61017e6101db36600461188c565b610b51565b61011f610cc7565b6101026101f6366004611965565b610cd4565b61011f6110e3565b610216610211366004611a3e565b6110f0565b60405161010e9190611a60565b6101537f000000000000000000000000000000000000000000000000000000000000000081565b61025d610258366004611ac2565b6111de565b60405161010e9190611af2565b60006001600160e01b031982166392d0109760e01b148061029b57506301ffc9a760e01b6001600160e01b03198316145b92915050565b600080546102ae90611b66565b80601f01602080910402602001604051908101604052809291908181526020018280546102da90611b66565b80156103275780601f106102fc57610100808354040283529160200191610327565b820191906000526020600020905b81548152906001019060200180831161030a57829003601f168201915b505050505081565b336001600160a01b037f00000000000000000000000000000000000000000000000000000000000000001614610378576040516312cb521760e11b815260040160405180910390fd5b600061038682840184611ba0565b60008681526003602090815260408083206001600160a01b03851684529091528120549192505b8181101561052e5760008781526003602090815260408083206001600160a01b038716845290915290208054879190839081106103ec576103ec611bbd565b9060005260206000209060030201600201540361051c5760008781526003602090815260408083206001600160a01b03871684529091529020610430600184611be9565b8154811061044057610440611bbd565b600091825260208083208a8452600380835260408086206001600160a01b038a16875290935291909320805491909202909201918390811061048457610484611bbd565b600091825260208083208454600393840290910180546001600160a01b0319166001600160a01b03928316178155600180870154908201556002958601549501949094558a835290815260408083209387168352929052208054806104eb576104eb611bfc565b60008281526020812060036000199093019283020180546001600160a01b0319168155600181018290556002015590555b8061052681611c12565b9150506103ad565b506000868152600460209081526040808320888452909152812054905b8181101561069c5760008881526004602090815260408083208a8452909152902080546001600160a01b03861691908390811061058a5761058a611bbd565b6000918252602090912001546001600160a01b03160361068a5760008881526004602090815260408083208a845290915290206105c8600184611be9565b815481106105d8576105d8611bbd565b60009182526020808320909101548a83526004825260408084208b8552909252912080546001600160a01b03909216918390811061061857610618611bbd565b600091825260208083209190910180546001600160a01b0319166001600160a01b0394909416939093179092558981526004825260408082208a83529092522080548061066757610667611bfc565b600082815260209020810160001990810180546001600160a01b03191690550190555b8061069481611c12565b91505061054b565b506000878152600660209081526040808320898452909152812054905b818110156108a25760008981526006602090815260408083208b8452909152902080546107c09190839081106106f1576106f1611bbd565b90600052602060002001805461070690611b66565b80601f016020809104026020016040519081016040528092919081815260200182805461073290611b66565b801561077f5780601f106107545761010080835404028352916020019161077f565b820191906000526020600020905b81548152906001019060200180831161076257829003601f168201915b505050505088888080601f01602080910402602001604051908101604052809392919081815260200183838082843760009201919091525061140092505050565b156108905760008981526006602090815260408083208b845290915290206107e9600184611be9565b815481106107f9576107f9611bbd565b600091825260208083208c84526006825260408085208d86529092529220805492909101918390811061082e5761082e611bbd565b9060005260206000200190816108449190611c76565b5060008981526006602090815260408083208b8452909152902080548061086d5761086d611bfc565b60019003818190600052602060002001600061088991906116ee565b90556108a2565b8061089a81611c12565b9150506106b9565b5060008881526006602090815260408083208a845290915281205490036108e55760008881526006602090815260408083208a845290915281206108e59161172b565b5050505050505050565b336001600160a01b037f00000000000000000000000000000000000000000000000000000000000000001614610938576040516312cb521760e11b815260040160405180910390fd5b600083815260056020908152604080832085845282528083208054825181850281018501909352808352919290919083018282801561099657602002820191906000526020600020905b815481526020019060010190808311610982575b5050505050905060005b81518110156109f457828282815181106109bc576109bc611bbd565b6020026020010151036109e257604051636014eda760e11b815260040160405180910390fd5b806109ec81611c12565b9150506109a0565b505060009283526005602090815260408085209385529281529183208054600181018255908452919092200155565b336001600160a01b037f00000000000000000000000000000000000000000000000000000000000000001614610a6c576040516312cb521760e11b815260040160405180910390fd5b6000610a7a82840184611ba0565b600086815260046020908152604080832088845282528083208054600181810183559185528385200180546001600160a01b038088166001600160a01b031992831681179093558c8752600380875285882084895287528588208651606081018852948552428589019081528588018f815282548089018455928b52898b20965192909302909501805491909316931692909217815591518284015551600290910155898452600683528184208985528352908320805491820181558352912091925001610b49838583611d53565b505050505050565b336001600160a01b037f00000000000000000000000000000000000000000000000000000000000000001614610b9a576040516312cb521760e11b815260040160405180910390fd5b6000838152600560209081526040808320858452909152812054905b81811015610cc05760008581526005602090815260408083208784529091529020805484919083908110610bec57610bec611bbd565b906000526020600020015403610cae5760008581526005602090815260408083208784529091529020610c20600184611be9565b81548110610c3057610c30611bbd565b60009182526020808320909101548783526005825260408084208885529092529120805483908110610c6457610c64611bbd565b600091825260208083209091019290925586815260058252604080822087835290925220805480610c9757610c97611bfc565b600190038181906000526020600020016000905590555b80610cb881611c12565b915050610bb6565b5050505050565b600280546102ae90611b66565b60008315610f47576000858152600560209081526040808320878452825280832080548251818502810185019093528083529192909190830182828015610d3a57602002820191906000526020600020905b815481526020019060010190808311610d26575b5050505050905060005b8151811015610f40576000828281518110610d6157610d61611bbd565b60209081029190910181015160008a81526003835260408082206001600160a01b038b168352845280822080548251818702810187019093528083529395509193909290849084015b82821015610dff576000848152602090819020604080516060810182526003860290920180546001600160a01b0316835260018082015484860152600290910154918301919091529083529092019101610daa565b50505060008b81526003602090815260408083206001845282528083208054825181850281018501909352808352959650929490935090849084015b82821015610e90576000848152602090819020604080516060810182526003860290920180546001600160a01b0316835260018082015484860152600290910154918301919091529083529092019101610e3b565b5050505090506000610ea28284611459565b805190915015610f295760005b8151811015610f275784828281518110610ecb57610ecb611bbd565b60200260200101516040015103610f1557610f008c838381518110610ef257610ef2611bbd565b60200260200101518b6115a3565b15610f155760019750505050505050506110db565b80610f1f81611c12565b915050610eaf565b505b505050508080610f3890611c12565b915050610d44565b50506110d7565b600085815260036020908152604080832060018452825280832080548251818502810185019093528083529192909190849084015b82821015610fd1576000848152602090819020604080516060810182526003860290920180546001600160a01b0316835260018082015484860152600290910154918301919091529083529092019101610f7c565b50505060008881526003602090815260408083206001600160a01b038a16845282528083208054825181850281018501909352808352959650929490935090849084015b8282101561106a576000848152602090819020604080516060810182526003860290920180546001600160a01b0316835260018082015484860152600290910154918301919091529083529092019101611015565b505050509050600061107c8383611459565b905060005b81518110156110d2576110ae898383815181106110a0576110a0611bbd565b6020026020010151886115a3565b156110c05760019450505050506110db565b806110ca81611c12565b915050611081565b505050505b5060005b949350505050565b600180546102ae90611b66565b60008281526006602090815260408083208484528252808320805482518185028101850190935280835260609492939192909184015b828210156111d257838290600052602060002001805461114590611b66565b80601f016020809104026020016040519081016040528092919081815260200182805461117190611b66565b80156111be5780601f10611193576101008083540402835291602001916111be565b820191906000526020600020905b8154815290600101906020018083116111a157829003601f168201915b505050505081526020019060010190611126565b50505050905092915050565b60008281526003602090815260408083206001600160a01b03851684529091528120546060917f00000000000000000000000000000000000000000000000000000000000000009167ffffffffffffffff81111561123e5761123e6118cd565b60405190808252806020026020018201604052801561128457816020015b60408051808201909152600081526060602082015281526020019060019003908161125c5790505b5060008681526003602090815260408083206001600160a01b0389168452825280832080548251818502810185019093528083529495509293909291849084015b8282101561131a576000848152602090819020604080516060810182526003860290920180546001600160a01b03168352600180820154848601526002909101549183019190915290835290920191016112c5565b50505050905060005b81518110156113f557836001600160a01b031663d9af4ecf8884848151811061134e5761134e611bbd565b6020026020010151604001516040518363ffffffff1660e01b8152600401611380929190918252602082015260400190565b600060405180830381865afa15801561139d573d6000803e3d6000fd5b505050506040513d6000823e601f3d908101601f191682016040526113c59190810190611e58565b8382815181106113d7576113d7611bbd565b602002602001018190525080806113ed90611c12565b915050611323565b509095945050505050565b6000816040516020016114139190611ee5565b604051602081830303815290604052805190602001208360405160200161143a9190611ee5565b6040516020818303038152906040528051906020012014905092915050565b606060008251845161146b9190611f01565b67ffffffffffffffff811115611483576114836118cd565b6040519080825280602002602001820160405280156114e157816020015b6114ce604051806060016040528060006001600160a01b0316815260200160008152602001600081525090565b8152602001906001900390816114a15790505b50905060005b845181101561153a5784818151811061150257611502611bbd565b602002602001015182828151811061151c5761151c611bbd565b6020026020010181905250808061153290611c12565b9150506114e7565b60005b845181101561159957848161155181611c12565b92508151811061156357611563611bbd565b602002602001015183838061157790611c12565b94508151811061158957611589611bbd565b602002602001018190525061153d565b5090949350505050565b60408281015190516329f4c97f60e21b815260048101859052602481018290526000919082907f00000000000000000000000000000000000000000000000000000000000000006001600160a01b03169063a7d325fc90604401600060405180830381865afa15801561161a573d6000803e3d6000fd5b505050506040513d6000823e601f3d908101601f191682016040526116429190810190611f14565b905060005b81518110156116df5784516040516116629190602001611ee5565b6040516020818303038152906040528051906020012082828151811061168a5761168a611bbd565b6020026020010151600001516040516020016116a69190611ee5565b60405160208183030381529060405280519060200120036116cd57600193505050506116e7565b806116d781611c12565b915050611647565b506000925050505b9392505050565b5080546116fa90611b66565b6000825580601f1061170a575050565b601f0160209004906000526020600020908101906117289190611749565b50565b50805460008255906000526020600020908101906117289190611762565b5b8082111561175e576000815560010161174a565b5090565b8082111561175e57600061177682826116ee565b50600101611762565b60006020828403121561179157600080fd5b81356001600160e01b0319811681146116e757600080fd5b60005b838110156117c45781810151838201526020016117ac565b50506000910152565b600081518084526117e58160208601602086016117a9565b601f01601f19169290920160200192915050565b6020815260006116e760208301846117cd565b6000806000806060858703121561182257600080fd5b8435935060208501359250604085013567ffffffffffffffff8082111561184857600080fd5b818701915087601f83011261185c57600080fd5b81358181111561186b57600080fd5b88602082850101111561187d57600080fd5b95989497505060200194505050565b6000806000606084860312156118a157600080fd5b505081359360208301359350604090920135919050565b6001600160a01b038116811461172857600080fd5b634e487b7160e01b600052604160045260246000fd5b6040516020810167ffffffffffffffff81118282101715611906576119066118cd565b60405290565b604051601f8201601f1916810167ffffffffffffffff81118282101715611935576119356118cd565b604052919050565b600067ffffffffffffffff821115611957576119576118cd565b50601f01601f191660200190565b6000806000806080858703121561197b57600080fd5b8435935060208086013593506040860135611995816118b8565b9250606086013567ffffffffffffffff808211156119b257600080fd5b818801915082828a0312156119c657600080fd5b6119ce6118e3565b8235828111156119dd57600080fd5b80840193505089601f8401126119f257600080fd5b82359150611a07611a028361193d565b61190c565b8281528a85848601011115611a1b57600080fd5b828585018683013760009281019094019190915291825250939692955090935050565b60008060408385031215611a5157600080fd5b50508035926020909101359150565b6000602080830181845280855180835260408601915060408160051b870101925083870160005b82811015611ab557603f19888603018452611aa38583516117cd565b94509285019290850190600101611a87565b5092979650505050505050565b60008060408385031215611ad557600080fd5b823591506020830135611ae7816118b8565b809150509250929050565b60006020808301818452808551808352604092508286019150828160051b87010184880160005b83811015611b5857888303603f19018552815180518452870151878401879052611b45878501826117cd565b9588019593505090860190600101611b19565b509098975050505050505050565b600181811c90821680611b7a57607f821691505b602082108103611b9a57634e487b7160e01b600052602260045260246000fd5b50919050565b600060208284031215611bb257600080fd5b81356116e7816118b8565b634e487b7160e01b600052603260045260246000fd5b634e487b7160e01b600052601160045260246000fd5b8181038181111561029b5761029b611bd3565b634e487b7160e01b600052603160045260246000fd5b600060018201611c2457611c24611bd3565b5060010190565b601f821115611c7157600081815260208120601f850160051c81016020861015611c525750805b601f850160051c820191505b81811015610b4957828155600101611c5e565b505050565b818103611c81575050565b611c8b8254611b66565b67ffffffffffffffff811115611ca357611ca36118cd565b611cb781611cb18454611b66565b84611c2b565b6000601f821160018114611ceb5760008315611cd35750848201545b600019600385901b1c1916600184901b178455610cc0565b600085815260209020601f19841690600086815260209020845b83811015611d255782860154825560019586019590910190602001611d05565b5085831015611d435781850154600019600388901b60f8161c191681555b5050505050600190811b01905550565b67ffffffffffffffff831115611d6b57611d6b6118cd565b611d7f83611d798354611b66565b83611c2b565b6000601f841160018114611db35760008515611d9b5750838201355b600019600387901b1c1916600186901b178355610cc0565b600083815260209020601f19861690835b82811015611de45786850135825560209485019460019092019101611dc4565b5086821015611e015760001960f88860031b161c19848701351681555b505060018560011b0183555050505050565b600082601f830112611e2457600080fd5b8151611e32611a028261193d565b818152846020838601011115611e4757600080fd5b6110db8260208301602087016117a9565b600060208284031215611e6a57600080fd5b815167ffffffffffffffff80821115611e8257600080fd5b9083019060408286031215611e9657600080fd5b604051604081018181108382111715611eb157611eb16118cd565b60405282518152602083015182811115611eca57600080fd5b611ed687828601611e13565b60208301525095945050505050565b60008251611ef78184602087016117a9565b9190910192915050565b8082018082111561029b5761029b611bd3565b60006020808385031215611f2757600080fd5b825167ffffffffffffffff80821115611f3f57600080fd5b818501915085601f830112611f5357600080fd5b815181811115611f6557611f656118cd565b8060051b611f7485820161190c565b9182528381018501918581019089841115611f8e57600080fd5b86860192505b83831015611ffd57825185811115611fac5760008081fd5b8601808b03601f1901881315611fc25760008081fd5b611fca6118e3565b8882015187811115611fdc5760008081fd5b611fea8d8b83860101611e13565b8252508352509186019190860190611f94565b999850505050505050505056fea2646970667358221220e75f2beb18d01f9302f272bdbc1019a3580bc2a9120abead54e8782dc5583a2864736f6c63430008110033",
    "linkReferences": {}
  },
  "methodIdentifiers": {
    "_permisionRegistry()": "5acad43c",
    "_roleManager()": "f4339a97",
    "_spaceManager()": "3820c2ad",
    "addRoleIdToChannel(uint256,uint256,uint256)": "40a74b43",
    "description()": "7284e416",
    "getEntitlementDataByRoleId(uint256,uint256)": "7966df42",
    "getUserRoles(uint256,address)": "f725f2f6",
    "isEntitled(uint256,uint256,address,(string))": "66218999",
    "moduleType()": "6465e69f",
    "name()": "06fdde03",
    "removeRoleIdFromChannel(uint256,uint256,uint256)": "5c1b185d",
    "removeSpaceEntitlement(uint256,uint256,bytes)": "3d1dea8c",
    "setSpaceEntitlement(uint256,uint256,bytes)": "4b0fd1a2",
    "supportsInterface(bytes4)": "01ffc9a7"
  },
  "id": 42
}