{
  "abi": [
    {
      "inputs": [],
      "name": "AddressNotFound",
      "type": "error"
    },
    {
      "inputs": [],
      "name": "EntitlementNotFound",
      "type": "error"
    },
    {
      "inputs": [],
      "name": "RoleAlreadyExists",
      "type": "error"
    },
    {
      "anonymous": false,
      "inputs": [
        {
          "indexed": false,
          "internalType": "address",
          "name": "previousAdmin",
          "type": "address"
        },
        {
          "indexed": false,
          "internalType": "address",
          "name": "newAdmin",
          "type": "address"
        }
      ],
      "name": "AdminChanged",
      "type": "event"
    },
    {
      "anonymous": false,
      "inputs": [
        {
          "indexed": true,
          "internalType": "address",
          "name": "beacon",
          "type": "address"
        }
      ],
      "name": "BeaconUpgraded",
      "type": "event"
    },
    {
      "anonymous": false,
      "inputs": [
        {
          "indexed": false,
          "internalType": "uint8",
          "name": "version",
          "type": "uint8"
        }
      ],
      "name": "Initialized",
      "type": "event"
    },
    {
      "anonymous": false,
      "inputs": [
        {
          "indexed": true,
          "internalType": "address",
          "name": "previousOwner",
          "type": "address"
        },
        {
          "indexed": true,
          "internalType": "address",
          "name": "newOwner",
          "type": "address"
        }
      ],
      "name": "OwnershipTransferred",
      "type": "event"
    },
    {
      "anonymous": false,
      "inputs": [
        {
          "indexed": true,
          "internalType": "address",
          "name": "implementation",
          "type": "address"
        }
      ],
      "name": "Upgraded",
      "type": "event"
    },
    {
      "inputs": [],
      "name": "SPACE_ADDRESS",
      "outputs": [
        {
          "internalType": "address",
          "name": "",
          "type": "address"
        }
      ],
      "stateMutability": "view",
      "type": "function"
    },
    {
      "inputs": [
        {
          "internalType": "string",
          "name": "channelId",
          "type": "string"
        },
        {
          "internalType": "uint256",
          "name": "roleId",
          "type": "uint256"
        }
      ],
      "name": "addRoleIdToChannel",
      "outputs": [],
      "stateMutability": "nonpayable",
      "type": "function"
    },
    {
      "inputs": [],
      "name": "description",
      "outputs": [
        {
          "internalType": "string",
          "name": "",
          "type": "string"
        }
      ],
      "stateMutability": "view",
      "type": "function"
    },
    {
      "inputs": [
        {
          "internalType": "bytes32",
          "name": "",
          "type": "bytes32"
        }
      ],
      "name": "entitlementsById",
      "outputs": [
        {
          "internalType": "uint256",
          "name": "roleId",
          "type": "uint256"
        },
        {
          "internalType": "address",
          "name": "grantedBy",
          "type": "address"
        },
        {
          "internalType": "uint256",
          "name": "grantedTime",
          "type": "uint256"
        }
      ],
      "stateMutability": "view",
      "type": "function"
    },
    {
      "inputs": [
        {
          "internalType": "uint256",
          "name": "roleId",
          "type": "uint256"
        }
      ],
      "name": "getEntitlementDataByRoleId",
      "outputs": [
        {
          "internalType": "bytes[]",
          "name": "",
          "type": "bytes[]"
        }
      ],
      "stateMutability": "view",
      "type": "function"
    },
    {
      "inputs": [
        {
          "internalType": "address",
          "name": "user",
          "type": "address"
        }
      ],
      "name": "getUserRoles",
      "outputs": [
        {
          "components": [
            {
              "internalType": "uint256",
              "name": "roleId",
              "type": "uint256"
            },
            {
              "internalType": "string",
              "name": "name",
              "type": "string"
            }
          ],
          "internalType": "struct DataTypes.Role[]",
          "name": "",
          "type": "tuple[]"
        }
      ],
      "stateMutability": "view",
      "type": "function"
    },
    {
      "inputs": [],
      "name": "initialize",
      "outputs": [],
      "stateMutability": "nonpayable",
      "type": "function"
    },
    {
      "inputs": [
        {
          "internalType": "string",
          "name": "channelId",
          "type": "string"
        },
        {
          "internalType": "address",
          "name": "user",
          "type": "address"
        },
        {
          "internalType": "bytes32",
          "name": "permission",
          "type": "bytes32"
        }
      ],
      "name": "isEntitled",
      "outputs": [
        {
          "internalType": "bool",
          "name": "",
          "type": "bool"
        }
      ],
      "stateMutability": "view",
      "type": "function"
    },
    {
      "inputs": [],
      "name": "moduleType",
      "outputs": [
        {
          "internalType": "string",
          "name": "",
          "type": "string"
        }
      ],
      "stateMutability": "view",
      "type": "function"
    },
    {
      "inputs": [],
      "name": "name",
      "outputs": [
        {
          "internalType": "string",
          "name": "",
          "type": "string"
        }
      ],
      "stateMutability": "view",
      "type": "function"
    },
    {
      "inputs": [],
      "name": "owner",
      "outputs": [
        {
          "internalType": "address",
          "name": "",
          "type": "address"
        }
      ],
      "stateMutability": "view",
      "type": "function"
    },
    {
      "inputs": [],
      "name": "proxiableUUID",
      "outputs": [
        {
          "internalType": "bytes32",
          "name": "",
          "type": "bytes32"
        }
      ],
      "stateMutability": "view",
      "type": "function"
    },
    {
      "inputs": [
        {
          "internalType": "uint256",
          "name": "roleId",
          "type": "uint256"
        },
        {
          "internalType": "bytes",
          "name": "entitlementData",
          "type": "bytes"
        }
      ],
      "name": "removeEntitlement",
      "outputs": [
        {
          "internalType": "bytes32",
          "name": "entitlementId",
          "type": "bytes32"
        }
      ],
      "stateMutability": "nonpayable",
      "type": "function"
    },
    {
      "inputs": [
        {
          "internalType": "string",
          "name": "channelId",
          "type": "string"
        },
        {
          "internalType": "uint256",
          "name": "roleId",
          "type": "uint256"
        }
      ],
      "name": "removeRoleIdFromChannel",
      "outputs": [],
      "stateMutability": "nonpayable",
      "type": "function"
    },
    {
      "inputs": [],
      "name": "renounceOwnership",
      "outputs": [],
      "stateMutability": "nonpayable",
      "type": "function"
    },
    {
      "inputs": [
        {
          "internalType": "uint256",
          "name": "roleId",
          "type": "uint256"
        },
        {
          "internalType": "bytes",
          "name": "entitlementData",
          "type": "bytes"
        }
      ],
      "name": "setEntitlement",
      "outputs": [
        {
          "internalType": "bytes32",
          "name": "entitlementId",
          "type": "bytes32"
        }
      ],
      "stateMutability": "nonpayable",
      "type": "function"
    },
    {
      "inputs": [
        {
          "internalType": "address",
          "name": "_space",
          "type": "address"
        }
      ],
      "name": "setSpace",
      "outputs": [],
      "stateMutability": "nonpayable",
      "type": "function"
    },
    {
      "inputs": [
        {
          "internalType": "bytes4",
          "name": "interfaceId",
          "type": "bytes4"
        }
      ],
      "name": "supportsInterface",
      "outputs": [
        {
          "internalType": "bool",
          "name": "",
          "type": "bool"
        }
      ],
      "stateMutability": "view",
      "type": "function"
    },
    {
      "inputs": [
        {
          "internalType": "address",
          "name": "newOwner",
          "type": "address"
        }
      ],
      "name": "transferOwnership",
      "outputs": [],
      "stateMutability": "nonpayable",
      "type": "function"
    },
    {
      "inputs": [
        {
          "internalType": "address",
          "name": "newImplementation",
          "type": "address"
        }
      ],
      "name": "upgradeTo",
      "outputs": [],
      "stateMutability": "nonpayable",
      "type": "function"
    },
    {
      "inputs": [
        {
          "internalType": "address",
          "name": "newImplementation",
          "type": "address"
        },
        {
          "internalType": "bytes",
          "name": "data",
          "type": "bytes"
        }
      ],
      "name": "upgradeToAndCall",
      "outputs": [],
      "stateMutability": "payable",
      "type": "function"
    }
  ],
  "bytecode": {
    "object": "0x60a06040523060805234801561001457600080fd5b5060805161288761004c600039600081816108dd01528181610926015281816109c501528181610a050152610a9801526128876000f3fe6080604052600436106101295760003560e01c80636465e69f116100ab578063c513be771161006f578063c513be771461039a578063d3b2cfbf146103ba578063ef8be57414610422578063f2fde38b14610442578063f32f83ce14610462578063fa6d1adf1461048257600080fd5b80636465e69f146102d6578063715018a6146103115780637284e416146103265780638129fc1c146103675780638da5cb5b1461037c57600080fd5b80631eee07b2116100f25780631eee07b21461021b57806334322eff146102485780633659cfe6146102805780634f1ef286146102a057806352d1902d146102b357600080fd5b8062b4eaa81461012e57806301ffc9a71461016357806303b405341461018357806306a36aee146101a557806306fdde03146101d2575b600080fd5b34801561013a57600080fd5b5061014e61014936600461202c565b6104a2565b60405190151581526020015b60405180910390f35b34801561016f57600080fd5b5061014e61017e366004612087565b6104f6565b34801561018f57600080fd5b506101a361019e3660046120b1565b61052d565b005b3480156101b157600080fd5b506101c56101c03660046120b1565b610557565b60405161015a919061211c565b3480156101de57600080fd5b5061020e6040518060400160405280601081526020016f155cd95c88115b9d1a5d1b195b595b9d60821b81525081565b60405161015a9190612190565b34801561022757600080fd5b5061023b6102363660046121a3565b61079c565b60405161015a91906121bc565b34801561025457600080fd5b5060fb54610268906001600160a01b031681565b6040516001600160a01b03909116815260200161015a565b34801561028c57600080fd5b506101a361029b3660046120b1565b6108d3565b6101a36102ae3660046122b3565b6109bb565b3480156102bf57600080fd5b506102c8610a8b565b60405190815260200161015a565b3480156102e257600080fd5b5061020e6040518060400160405280600f81526020016e155cd95c915b9d1a5d1b195b595b9d608a1b81525081565b34801561031d57600080fd5b506101a3610b3e565b34801561033257600080fd5b5061020e60405180604001604052806015815260200174456e7469746c656d656e7420666f7220757365727360581b81525081565b34801561037357600080fd5b506101a3610b52565b34801561038857600080fd5b506065546001600160a01b0316610268565b3480156103a657600080fd5b506101a36103b5366004612343565b610c72565b3480156103c657600080fd5b506103ff6103d53660046121a3565b60fd6020526000908152604090208054600182015460029092015490916001600160a01b03169083565b604080519384526001600160a01b0390921660208401529082015260600161015a565b34801561042e57600080fd5b506102c861043d36600461238e565b610dbb565b34801561044e57600080fd5b506101a361045d3660046120b1565b610fce565b34801561046e57600080fd5b506101a361047d366004612343565b611044565b34801561048e57600080fd5b506102c861049d36600461238e565b611187565b600083156104e4576104dd85856040516020016104c09291906123d9565b6040516020818303038152906040528051906020012084846113bb565b90506104ee565b6104dd83836114ff565b949350505050565b60006001600160e01b03198216630511738b60e31b148061052757506301ffc9a760e01b6001600160e01b03198316145b92915050565b61053561158d565b60fb80546001600160a01b0319166001600160a01b0392909216919091179055565b6001600160a01b0381166000908152610100602090815260408083208054825181850281018501909352808352606094938301828280156105b757602002820191906000526020600020905b8154815260200190600101908083116105a3575b50505050509050600081516001600160401b038111156105d9576105d961221e565b60405190808252806020026020018201604052801561061f57816020015b6040805180820190915260008152606060208201528152602001906001900390816105f75790505b50905060005b825181101561079457600060fd6000858481518110610646576106466123e9565b602090810291909101810151825281810192909252604090810160002081516080810183528154815260018201546001600160a01b0316818501526002820154818401526003820180548451818702810187019095528085529194929360608601939092908301828280156106e457602002820191906000526020600020905b81546001600160a01b031681526001909101906020018083116106c6575b50505091909252505060fb54825160405163784c872b60e01b815260048101919091529293506001600160a01b03169163784c872b9150602401600060405180830381865afa15801561073b573d6000803e3d6000fd5b505050506040513d6000823e601f3d908101601f1916820160405261076391908101906123ff565b838381518110610775576107756123e9565b602002602001018190525050808061078c906124c9565b915050610625565b509392505050565b600081815260ff602090815260408083208054825181850281018501909352808352606094938301828280156107f157602002820191906000526020600020905b8154815260200190600101908083116107dd575b50505050509050600081516001600160401b038111156108135761081361221e565b60405190808252806020026020018201604052801561084657816020015b60608152602001906001900390816108315790505b50905060005b82518110156107945760fd600084838151811061086b5761086b6123e9565b6020026020010151815260200190815260200160002060030160405160200161089491906124e2565b6040516020818303038152906040528282815181106108b5576108b56123e9565b602002602001018190525080806108cb906124c9565b91505061084c565b6001600160a01b037f00000000000000000000000000000000000000000000000000000000000000001630036109245760405162461bcd60e51b815260040161091b90612532565b60405180910390fd5b7f00000000000000000000000000000000000000000000000000000000000000006001600160a01b031661096d60008051602061280b833981519152546001600160a01b031690565b6001600160a01b0316146109935760405162461bcd60e51b815260040161091b9061257e565b61099c816115e7565b604080516000808252602082019092526109b8918391906115ef565b50565b6001600160a01b037f0000000000000000000000000000000000000000000000000000000000000000163003610a035760405162461bcd60e51b815260040161091b90612532565b7f00000000000000000000000000000000000000000000000000000000000000006001600160a01b0316610a4c60008051602061280b833981519152546001600160a01b031690565b6001600160a01b031614610a725760405162461bcd60e51b815260040161091b9061257e565b610a7b826115e7565b610a87828260016115ef565b5050565b6000306001600160a01b037f00000000000000000000000000000000000000000000000000000000000000001614610b2b5760405162461bcd60e51b815260206004820152603860248201527f555550535570677261646561626c653a206d757374206e6f742062652063616c60448201527f6c6564207468726f7567682064656c656761746563616c6c0000000000000000606482015260840161091b565b5060008051602061280b83398151915290565b610b4661158d565b610b50600061175f565b565b600054610100900460ff1615808015610b725750600054600160ff909116105b80610b8c5750303b158015610b8c575060005460ff166001145b610bef5760405162461bcd60e51b815260206004820152602e60248201527f496e697469616c697a61626c653a20636f6e747261637420697320616c72656160448201526d191e481a5b9a5d1a585b1a5e995960921b606482015260840161091b565b6000805460ff191660011790558015610c12576000805461ff0019166101001790555b610c1a6117b1565b610c226117b1565b610c2a6117d8565b80156109b8576000805461ff0019169055604051600181527f7f26b83ff96e1f2b6a682f133852f6798a09c465da95921460cefb38474024989060200160405180910390a150565b6065546001600160a01b0316331480610c9e575060fb546001600160a01b0316336001600160a01b0316145b610cba5760405162461bcd60e51b815260040161091b906125ca565b60008383604051602001610ccf9291906123d9565b60408051601f198184030181528282528051602091820120600081815260fe835283812080548085028701850190955284865291955093929091830182828015610d3857602002820191906000526020600020905b815481526020019060010190808311610d24575b5050505050905060005b8151811015610d965783828281518110610d5e57610d5e6123e9565b602002602001015103610d8457604051636014eda760e11b815260040160405180910390fd5b80610d8e816124c9565b915050610d42565b5050600090815260fe6020908152604082208054600181018255908352912001555050565b6000610dcf6065546001600160a01b031690565b6001600160a01b0316336001600160a01b03161480610e01575060fb546001600160a01b0316336001600160a01b0316145b610e1d5760405162461bcd60e51b815260040161091b906125ca565b838383604051602001610e32939291906125f5565b60408051601f19818403018152919052805160209091012090506000610e5a83850185612632565b90508051600003610e7e57604051633d9e48f360e21b815260040160405180910390fd5b60005b8151811015610f18576000828281518110610e9e57610e9e6123e9565b6020026020010151905060006001600160a01b0316816001600160a01b031603610edb57604051636054b46960e01b815260040160405180910390fd5b6001600160a01b03166000908152610100602090815260408220805460018101825590835291200183905580610f10816124c9565b915050610e81565b506040518060800160405280868152602001610f313390565b6001600160a01b039081168252426020808401919091526040928301859052600086815260fd825283902084518155848201516001820180546001600160a01b0319169190941617909255918301516002820155606083015180519192610fa092600385019290910190611f34565b50505060009485525060ff602090815260408520805460018101825590865294209093018390555090919050565b610fd661158d565b6001600160a01b03811661103b5760405162461bcd60e51b815260206004820152602660248201527f4f776e61626c653a206e6577206f776e657220697320746865207a65726f206160448201526564647265737360d01b606482015260840161091b565b6109b88161175f565b6065546001600160a01b0316331480611070575060fb546001600160a01b0316336001600160a01b0316145b61108c5760405162461bcd60e51b815260040161091b906125ca565b600083836040516020016110a19291906123d9565b60408051601f198184030181529181528151602092830120600081815260fe909352908220909250905b815481101561117f57838282815481106110e7576110e76123e9565b90600052602060002001540361116d5781548290611107906001906126c9565b81548110611117576111176123e9565b9060005260206000200154828281548110611134576111346123e9565b906000526020600020018190555081805480611152576111526126dc565b6001900381819060005260206000200160009055905561117f565b80611177816124c9565b9150506110cb565b505050505050565b600061119b6065546001600160a01b031690565b6001600160a01b0316336001600160a01b031614806111cd575060fb546001600160a01b0316336001600160a01b0316145b6111e95760405162461bcd60e51b815260040161091b906125ca565b8383836040516020016111fe939291906125f5565b60408051601f198184030181528282528051602091820120600081815260fd83528381206080860185528054865260018101546001600160a01b03168685015260028101548686015260038101805486518187028101870190975280875293975091959490936060860193919291908301828280156112a657602002820191906000526020600020905b81546001600160a01b03168152600190910190602001808311611288575b5050505050815250509050806060015151600014806112c457508051155b156112e257604051633d9e48f360e21b815260040160405180910390fd5b8051600090815260ff602052604090206112fc8184611807565b60005b82606001515181101561137757600083606001518281518110611324576113246123e9565b6020026020010151905060006101006000836001600160a01b03166001600160a01b0316815260200190815260200160002090506113628187611807565b5050808061136f906124c9565b9150506112ff565b50600083815260fd602052604081208181556001810180546001600160a01b031916905560028101829055906113b06003830182611f99565b505050509392505050565b600083815260fe602090815260408083208054825181850281018501909352808352849383018282801561140e57602002820191906000526020600020905b8154815260200190600101908083116113fa575b50505050509050600061142160016118be565b9050600061142e866118be565b9050600061143c8383611aa1565b905060005b84518110156114f357600085828151811061145e5761145e6123e9565b6020026020010151905060005b83518110156114de5781848281518110611487576114876123e9565b6020026020010151600001511480156114c257506114c28482815181106114b0576114b06123e9565b6020026020010151600001518a611bf1565b156114cc57600197505b806114d6816124c9565b91505061146b565b505080806114eb906124c9565b915050611441565b50505050509392505050565b60008061150c60016118be565b90506000611519856118be565b905060006115278383611aa1565b905060005b81518110156115805761155c82828151811061154a5761154a6123e9565b60200260200101516000015187611bf1565b1561156e576001945050505050610527565b80611578816124c9565b91505061152c565b5060009695505050505050565b6065546001600160a01b03163314610b505760405162461bcd60e51b815260206004820181905260248201527f4f776e61626c653a2063616c6c6572206973206e6f7420746865206f776e6572604482015260640161091b565b6109b861158d565b7f4910fdfa16fed3260ed0e7147f7cc6da11a60208b5b9406d12a635614ffd91435460ff16156116275761162283611cbf565b505050565b826001600160a01b03166352d1902d6040518163ffffffff1660e01b8152600401602060405180830381865afa925050508015611681575060408051601f3d908101601f1916820190925261167e918101906126f2565b60015b6116e45760405162461bcd60e51b815260206004820152602e60248201527f45524331393637557067726164653a206e657720696d706c656d656e7461746960448201526d6f6e206973206e6f74205555505360901b606482015260840161091b565b60008051602061280b83398151915281146117535760405162461bcd60e51b815260206004820152602960248201527f45524331393637557067726164653a20756e737570706f727465642070726f786044820152681a58589b195555525160ba1b606482015260840161091b565b50611622838383611d5b565b606580546001600160a01b038381166001600160a01b0319831681179093556040519116919082907f8be0079c531659141344cd1fd0a4f28419497f9722a3daafe3b4186f6b6457e090600090a35050565b600054610100900460ff16610b505760405162461bcd60e51b815260040161091b9061270b565b600054610100900460ff166117ff5760405162461bcd60e51b815260040161091b9061270b565b610b50611d86565b60005b82548110156116225781838281548110611826576118266123e9565b9060005260206000200154036118ac5782548390611846906001906126c9565b81548110611856576118566123e9565b9060005260206000200154838281548110611873576118736123e9565b906000526020600020018190555082805480611891576118916126dc565b60019003818190600052602060002001600090559055505050565b806118b6816124c9565b91505061180a565b6001600160a01b03811660009081526101006020908152604080832080548251818502810185019093528083526060949383018282801561191e57602002820191906000526020600020905b81548152602001906001019080831161190a575b50505050509050600081516001600160401b038111156119405761194061221e565b6040519080825280602002602001820160405280156119a557816020015b61199260405180608001604052806000815260200160006001600160a01b0316815260200160008152602001606081525090565b81526020019060019003908161195e5790505b50905060005b82518110156107945760fd60008483815181106119ca576119ca6123e9565b602090810291909101810151825281810192909252604090810160002081516080810183528154815260018201546001600160a01b031681850152600282015481840152600382018054845181870281018701909552808552919492936060860193909290830182828015611a6857602002820191906000526020600020905b81546001600160a01b03168152600190910190602001808311611a4a575b505050505081525050828281518110611a8357611a836123e9565b60200260200101819052508080611a99906124c9565b9150506119ab565b6060600082518451611ab39190612756565b6001600160401b03811115611aca57611aca61221e565b604051908082528060200260200182016040528015611b2f57816020015b611b1c60405180608001604052806000815260200160006001600160a01b0316815260200160008152602001606081525090565b815260200190600190039081611ae85790505b50905060005b8451811015611b8857848181518110611b5057611b506123e9565b6020026020010151828281518110611b6a57611b6a6123e9565b60200260200101819052508080611b80906124c9565b915050611b35565b60005b8451811015611be7578481611b9f816124c9565b925081518110611bb157611bb16123e9565b6020026020010151838380611bc5906124c9565b945081518110611bd757611bd76123e9565b6020026020010181905250611b8b565b5090949350505050565b60fb5460405163b426423360e01b8152600481018490526000916001600160a01b0316908290829063b426423390602401600060405180830381865afa158015611c3f573d6000803e3d6000fd5b505050506040513d6000823e601f3d908101601f19168201604052611c679190810190612769565b905060005b8151811015611cb35784828281518110611c8857611c886123e9565b602002602001015103611ca15760019350505050610527565b80611cab816124c9565b915050611c6c565b50600095945050505050565b6001600160a01b0381163b611d2c5760405162461bcd60e51b815260206004820152602d60248201527f455243313936373a206e657720696d706c656d656e746174696f6e206973206e60448201526c1bdd08184818dbdb9d1c9858dd609a1b606482015260840161091b565b60008051602061280b83398151915280546001600160a01b0319166001600160a01b0392909216919091179055565b611d6483611db6565b600082511180611d715750805b1561162257611d808383611df6565b50505050565b600054610100900460ff16611dad5760405162461bcd60e51b815260040161091b9061270b565b610b503361175f565b611dbf81611cbf565b6040516001600160a01b038216907fbc7cd75a20ee27fd9adebab32041f755214dbc6bffa90cc0225b39da2e5c2d3b90600090a250565b60606001600160a01b0383163b611e5e5760405162461bcd60e51b815260206004820152602660248201527f416464726573733a2064656c65676174652063616c6c20746f206e6f6e2d636f6044820152651b9d1c9858dd60d21b606482015260840161091b565b600080846001600160a01b031684604051611e7991906127ee565b600060405180830381855af49150503d8060008114611eb4576040519150601f19603f3d011682016040523d82523d6000602084013e611eb9565b606091505b5091509150611ee1828260405180606001604052806027815260200161282b60279139611eea565b95945050505050565b60608315611ef9575081611f03565b611f038383611f0a565b9392505050565b815115611f1a5781518083602001fd5b8060405162461bcd60e51b815260040161091b9190612190565b828054828255906000526020600020908101928215611f89579160200282015b82811115611f8957825182546001600160a01b0319166001600160a01b03909116178255602090920191600190910190611f54565b50611f95929150611fb3565b5090565b50805460008255906000526020600020908101906109b891905b5b80821115611f955760008155600101611fb4565b60008083601f840112611fda57600080fd5b5081356001600160401b03811115611ff157600080fd5b60208301915083602082850101111561200957600080fd5b9250929050565b80356001600160a01b038116811461202757600080fd5b919050565b6000806000806060858703121561204257600080fd5b84356001600160401b0381111561205857600080fd5b61206487828801611fc8565b9095509350612077905060208601612010565b9396929550929360400135925050565b60006020828403121561209957600080fd5b81356001600160e01b031981168114611f0357600080fd5b6000602082840312156120c357600080fd5b611f0382612010565b60005b838110156120e75781810151838201526020016120cf565b50506000910152565b600081518084526121088160208601602086016120cc565b601f01601f19169290920160200192915050565b60006020808301818452808551808352604092508286019150828160051b87010184880160005b8381101561218257888303603f1901855281518051845287015187840187905261216f878501826120f0565b9588019593505090860190600101612143565b509098975050505050505050565b602081526000611f0360208301846120f0565b6000602082840312156121b557600080fd5b5035919050565b6000602080830181845280855180835260408601915060408160051b870101925083870160005b8281101561221157603f198886030184526121ff8583516120f0565b945092850192908501906001016121e3565b5092979650505050505050565b634e487b7160e01b600052604160045260246000fd5b604080519081016001600160401b03811182821017156122565761225661221e565b60405290565b604051601f8201601f191681016001600160401b03811182821017156122845761228461221e565b604052919050565b60006001600160401b038211156122a5576122a561221e565b50601f01601f191660200190565b600080604083850312156122c657600080fd5b6122cf83612010565b915060208301356001600160401b038111156122ea57600080fd5b8301601f810185136122fb57600080fd5b803561230e6123098261228c565b61225c565b81815286602083850101111561232357600080fd5b816020840160208301376000602083830101528093505050509250929050565b60008060006040848603121561235857600080fd5b83356001600160401b0381111561236e57600080fd5b61237a86828701611fc8565b909790965060209590950135949350505050565b6000806000604084860312156123a357600080fd5b8335925060208401356001600160401b038111156123c057600080fd5b6123cc86828701611fc8565b9497909650939450505050565b8183823760009101908152919050565b634e487b7160e01b600052603260045260246000fd5b6000602080838503121561241257600080fd5b82516001600160401b038082111561242957600080fd5b908401906040828703121561243d57600080fd5b612445612234565b82518152838301518281111561245a57600080fd5b80840193505086601f84011261246f57600080fd5b8251915061247f6123098361228c565b828152878584860101111561249357600080fd5b6124a2838683018787016120cc565b938101939093525090949350505050565b634e487b7160e01b600052601160045260246000fd5b6000600182016124db576124db6124b3565b5060010190565b6020808252825482820181905260008481528281209092916040850190845b818110156125265783546001600160a01b031683526001938401939285019201612501565b50909695505050505050565b6020808252602c908201527f46756e6374696f6e206d7573742062652063616c6c6564207468726f7567682060408201526b19195b1959d85d1958d85b1b60a21b606082015260800190565b6020808252602c908201527f46756e6374696f6e206d7573742062652063616c6c6564207468726f7567682060408201526b6163746976652070726f787960a01b606082015260800190565b60208082526011908201527053706163653a206f6e6c7920737061636560781b604082015260600190565b838152818360208301376000910160200190815292915050565b60006001600160401b038211156126285761262861221e565b5060051b60200190565b6000602080838503121561264557600080fd5b82356001600160401b0381111561265b57600080fd5b8301601f8101851361266c57600080fd5b803561267a6123098261260f565b81815260059190911b8201830190838101908783111561269957600080fd5b928401925b828410156126be576126af84612010565b8252928401929084019061269e565b979650505050505050565b81810381811115610527576105276124b3565b634e487b7160e01b600052603160045260246000fd5b60006020828403121561270457600080fd5b5051919050565b6020808252602b908201527f496e697469616c697a61626c653a20636f6e7472616374206973206e6f74206960408201526a6e697469616c697a696e6760a81b606082015260800190565b80820180821115610527576105276124b3565b6000602080838503121561277c57600080fd5b82516001600160401b0381111561279257600080fd5b8301601f810185136127a357600080fd5b80516127b16123098261260f565b81815260059190911b820183019083810190878311156127d057600080fd5b928401925b828410156126be578351825292840192908401906127d5565b600082516128008184602087016120cc565b919091019291505056fe360894a13ba1a3210667c828492db98dca3e2076cc3735a920a3ca505d382bbc416464726573733a206c6f772d6c6576656c2064656c65676174652063616c6c206661696c6564a264697066735822122001ed2781c008c03e0be3887ed9e40d411a4c768bd7d74b09c548806cfaedd10c64736f6c63430008110033",
    "linkReferences": {}
  },
  "methodIdentifiers": {
    "SPACE_ADDRESS()": "34322eff",
    "addRoleIdToChannel(string,uint256)": "c513be77",
    "description()": "7284e416",
    "entitlementsById(bytes32)": "d3b2cfbf",
    "getEntitlementDataByRoleId(uint256)": "1eee07b2",
    "getUserRoles(address)": "06a36aee",
    "initialize()": "8129fc1c",
    "isEntitled(string,address,bytes32)": "00b4eaa8",
    "moduleType()": "6465e69f",
    "name()": "06fdde03",
    "owner()": "8da5cb5b",
    "proxiableUUID()": "52d1902d",
    "removeEntitlement(uint256,bytes)": "fa6d1adf",
    "removeRoleIdFromChannel(string,uint256)": "f32f83ce",
    "renounceOwnership()": "715018a6",
    "setEntitlement(uint256,bytes)": "ef8be574",
    "setSpace(address)": "03b40534",
    "supportsInterface(bytes4)": "01ffc9a7",
    "transferOwnership(address)": "f2fde38b",
    "upgradeTo(address)": "3659cfe6",
    "upgradeToAndCall(address,bytes)": "4f1ef286"
  },
  "id": 51
}