{
  "abi": [
    {
      "inputs": [
        {
          "internalType": "string",
          "name": "name_",
          "type": "string"
        },
        {
          "internalType": "string",
          "name": "description_",
          "type": "string"
        },
        {
          "internalType": "string",
          "name": "moduleType_",
          "type": "string"
        },
        {
          "internalType": "address",
          "name": "spaceManager_",
          "type": "address"
        },
        {
          "internalType": "address",
          "name": "roleManager_",
          "type": "address"
        },
        {
          "internalType": "address",
          "name": "permissionRegistry_",
          "type": "address"
        }
      ],
      "stateMutability": "nonpayable",
      "type": "constructor"
    },
    {
      "inputs": [],
      "name": "InvalidParameters",
      "type": "error"
    },
    {
      "inputs": [],
      "name": "NotSpaceManager",
      "type": "error"
    },
    {
      "inputs": [],
      "name": "_permisionRegistry",
      "outputs": [
        {
          "internalType": "address",
          "name": "",
          "type": "address"
        }
      ],
      "stateMutability": "view",
      "type": "function"
    },
    {
      "inputs": [],
      "name": "_roleManager",
      "outputs": [
        {
          "internalType": "address",
          "name": "",
          "type": "address"
        }
      ],
      "stateMutability": "view",
      "type": "function"
    },
    {
      "inputs": [],
      "name": "_spaceManager",
      "outputs": [
        {
          "internalType": "address",
          "name": "",
          "type": "address"
        }
      ],
      "stateMutability": "view",
      "type": "function"
    },
    {
      "inputs": [
        {
          "internalType": "uint256",
          "name": "spaceId",
          "type": "uint256"
        },
        {
          "internalType": "uint256",
          "name": "channelId",
          "type": "uint256"
        },
        {
          "internalType": "uint256",
          "name": "roleId",
          "type": "uint256"
        }
      ],
      "name": "addRoleIdToChannel",
      "outputs": [],
      "stateMutability": "nonpayable",
      "type": "function"
    },
    {
      "inputs": [],
      "name": "description",
      "outputs": [
        {
          "internalType": "string",
          "name": "",
          "type": "string"
        }
      ],
      "stateMutability": "view",
      "type": "function"
    },
    {
      "inputs": [
        {
          "internalType": "uint256",
          "name": "spaceId",
          "type": "uint256"
        },
        {
          "internalType": "address",
          "name": "user",
          "type": "address"
        }
      ],
      "name": "getUserRoles",
      "outputs": [
        {
          "components": [
            {
              "internalType": "uint256",
              "name": "roleId",
              "type": "uint256"
            },
            {
              "internalType": "string",
              "name": "name",
              "type": "string"
            }
          ],
          "internalType": "struct DataTypes.Role[]",
          "name": "",
          "type": "tuple[]"
        }
      ],
      "stateMutability": "view",
      "type": "function"
    },
    {
      "inputs": [
        {
          "internalType": "uint256",
          "name": "spaceId",
          "type": "uint256"
        },
        {
          "internalType": "uint256",
          "name": "channelId",
          "type": "uint256"
        },
        {
          "internalType": "address",
          "name": "user",
          "type": "address"
        },
        {
          "components": [
            {
              "internalType": "string",
              "name": "name",
              "type": "string"
            }
          ],
          "internalType": "struct DataTypes.Permission",
          "name": "permission",
          "type": "tuple"
        }
      ],
      "name": "isEntitled",
      "outputs": [
        {
          "internalType": "bool",
          "name": "",
          "type": "bool"
        }
      ],
      "stateMutability": "view",
      "type": "function"
    },
    {
      "inputs": [],
      "name": "moduleType",
      "outputs": [
        {
          "internalType": "string",
          "name": "",
          "type": "string"
        }
      ],
      "stateMutability": "view",
      "type": "function"
    },
    {
      "inputs": [],
      "name": "name",
      "outputs": [
        {
          "internalType": "string",
          "name": "",
          "type": "string"
        }
      ],
      "stateMutability": "view",
      "type": "function"
    },
    {
      "inputs": [
        {
          "internalType": "uint256",
          "name": "spaceId",
          "type": "uint256"
        },
        {
          "internalType": "uint256",
          "name": "channelId",
          "type": "uint256"
        },
        {
          "internalType": "uint256",
          "name": "roleId",
          "type": "uint256"
        }
      ],
      "name": "removeRoleIdFromChannel",
      "outputs": [],
      "stateMutability": "nonpayable",
      "type": "function"
    },
    {
      "inputs": [
        {
          "internalType": "uint256",
          "name": "spaceId",
          "type": "uint256"
        },
        {
          "internalType": "uint256",
          "name": "roleId",
          "type": "uint256"
        },
        {
          "internalType": "bytes",
          "name": "entitlementData",
          "type": "bytes"
        }
      ],
      "name": "removeSpaceEntitlement",
      "outputs": [],
      "stateMutability": "nonpayable",
      "type": "function"
    },
    {
      "inputs": [
        {
          "internalType": "uint256",
          "name": "spaceId",
          "type": "uint256"
        },
        {
          "internalType": "uint256",
          "name": "roleId",
          "type": "uint256"
        },
        {
          "internalType": "bytes",
          "name": "entitlementData",
          "type": "bytes"
        }
      ],
      "name": "setSpaceEntitlement",
      "outputs": [],
      "stateMutability": "nonpayable",
      "type": "function"
    },
    {
      "inputs": [
        {
          "internalType": "bytes4",
          "name": "interfaceId",
          "type": "bytes4"
        }
      ],
      "name": "supportsInterface",
      "outputs": [
        {
          "internalType": "bool",
          "name": "",
          "type": "bool"
        }
      ],
      "stateMutability": "view",
      "type": "function"
    }
  ],
  "bytecode": {
    "object": "0x60e06040523480156200001157600080fd5b506040516200214b3803806200214b8339810160408190526200003491620001a7565b85858585858562000045836200009a565b6000620000538782620002fe565b506001620000628682620002fe565b506002620000718582620002fe565b506001600160a01b0392831660805290821660a0521660c05250620003ca975050505050505050565b6001600160a01b038116620000c257604051630e52390960e41b815260040160405180910390fd5b50565b634e487b7160e01b600052604160045260246000fd5b600082601f830112620000ed57600080fd5b81516001600160401b03808211156200010a576200010a620000c5565b604051601f8301601f19908116603f01168101908282118183101715620001355762000135620000c5565b816040528381526020925086838588010111156200015257600080fd5b600091505b8382101562000176578582018301518183018401529082019062000157565b600093810190920192909252949350505050565b80516001600160a01b0381168114620001a257600080fd5b919050565b60008060008060008060c08789031215620001c157600080fd5b86516001600160401b0380821115620001d957600080fd5b620001e78a838b01620000db565b97506020890151915080821115620001fe57600080fd5b6200020c8a838b01620000db565b965060408901519150808211156200022357600080fd5b506200023289828a01620000db565b94505062000243606088016200018a565b925062000253608088016200018a565b91506200026360a088016200018a565b90509295509295509295565b600181811c908216806200028457607f821691505b602082108103620002a557634e487b7160e01b600052602260045260246000fd5b50919050565b601f821115620002f957600081815260208120601f850160051c81016020861015620002d45750805b601f850160051c820191505b81811015620002f557828155600101620002e0565b5050505b505050565b81516001600160401b038111156200031a576200031a620000c5565b62000332816200032b84546200026f565b84620002ab565b602080601f8311600181146200036a5760008415620003515750858301515b600019600386901b1c1916600185901b178555620002f5565b600085815260208120601f198616915b828110156200039b578886015182559484019460019091019084016200037a565b5085821015620003ba5787850151600019600388901b60f8161c191681555b5050505050600190811b01905550565b60805160a05160c051611d276200042460003960006101ad01526000818161020a01528181611053015261142a0152600081816101260152818161038b01528181610839015281816108d50152610a230152611d276000f3fe608060405234801561001057600080fd5b50600436106100df5760003560e01c80635acad43c1161008c578063662189991161006657806366218999146101ea5780637284e416146101fd578063f4339a9714610205578063f725f2f61461022c57600080fd5b80635acad43c146101a85780635c1b185d146101cf5780636465e69f146101e257600080fd5b80633d1dea8c116100bd5780633d1dea8c1461016d57806340a74b43146101825780634b0fd1a21461019557600080fd5b806301ffc9a7146100e457806306fdde031461010c5780633820c2ad14610121575b600080fd5b6100f76100f2366004611578565b61024c565b60405190151581526020015b60405180910390f35b6101146102e5565b6040516101039190611628565b6101487f000000000000000000000000000000000000000000000000000000000000000081565b60405173ffffffffffffffffffffffffffffffffffffffff9091168152602001610103565b61018061017b36600461163b565b610373565b005b6101806101903660046116bb565b610821565b6101806101a336600461163b565b6108bd565b6101487f000000000000000000000000000000000000000000000000000000000000000081565b6101806101dd3660046116bb565b610a0b565b610114610ba7565b6100f76101f83660046117f9565b610bb4565b610114611011565b6101487f000000000000000000000000000000000000000000000000000000000000000081565b61023f61023a3660046118d2565b61101e565b6040516101039190611902565b60007fffffffff0000000000000000000000000000000000000000000000000000000082167febb6cfd50000000000000000000000000000000000000000000000000000000014806102df57507f01ffc9a7000000000000000000000000000000000000000000000000000000007fffffffff000000000000000000000000000000000000000000000000000000008316145b92915050565b600080546102f290611994565b80601f016020809104026020016040519081016040528092919081815260200182805461031e90611994565b801561036b5780601f106103405761010080835404028352916020019161036b565b820191906000526020600020905b81548152906001019060200180831161034e57829003601f168201915b505050505081565b3373ffffffffffffffffffffffffffffffffffffffff7f000000000000000000000000000000000000000000000000000000000000000016146103e2576040517f2596a42e00000000000000000000000000000000000000000000000000000000815260040160405180910390fd5b60006103f0828401846119e7565b600086815260036020908152604080832073ffffffffffffffffffffffffffffffffffffffff851684529091528120549192505b8181101561062757600087815260036020908152604080832073ffffffffffffffffffffffffffffffffffffffff87168452909152902080548791908390811061047057610470611a04565b9060005260206000209060030201600201540361061557600087815260036020908152604080832073ffffffffffffffffffffffffffffffffffffffff8716845290915290206104c1600184611a62565b815481106104d1576104d1611a04565b600091825260208083208a84526003808352604080862073ffffffffffffffffffffffffffffffffffffffff8a16875290935291909320805491909202909201918390811061052257610522611a04565b600091825260208083208454600393840290910180547fffffffffffffffffffffffff00000000000000000000000000000000000000001673ffffffffffffffffffffffffffffffffffffffff928316178155600180870154908201556002958601549501949094558a835290815260408083209387168352929052208054806105ae576105ae611a75565b60008281526020812060037fffffffffffffffffffffffffffffffffffffffffffffffffffffffffffffffff9093019283020180547fffffffffffffffffffffffff0000000000000000000000000000000000000000168155600181018290556002015590555b8061061f81611aa4565b915050610424565b506000868152600460209081526040808320888452909152812054905b818110156108175760008881526004602090815260408083208a84529091529020805473ffffffffffffffffffffffffffffffffffffffff861691908390811061069057610690611a04565b60009182526020909120015473ffffffffffffffffffffffffffffffffffffffff16036108055760008881526004602090815260408083208a845290915290206106db600184611a62565b815481106106eb576106eb611a04565b60009182526020808320909101548a83526004825260408084208b85529092529120805473ffffffffffffffffffffffffffffffffffffffff909216918390811061073857610738611a04565b600091825260208083209190910180547fffffffffffffffffffffffff00000000000000000000000000000000000000001673ffffffffffffffffffffffffffffffffffffffff94909416939093179092558981526004825260408082208a8352909252208054806107ac576107ac611a75565b60008281526020902081017fffffffffffffffffffffffffffffffffffffffffffffffffffffffffffffffff90810180547fffffffffffffffffffffffff00000000000000000000000000000000000000001690550190555b8061080f81611aa4565b915050610644565b5050505050505050565b3373ffffffffffffffffffffffffffffffffffffffff7f00000000000000000000000000000000000000000000000000000000000000001614610890576040517f2596a42e00000000000000000000000000000000000000000000000000000000815260040160405180910390fd5b60009283526005602090815260408085209385529281529183208054600181018255908452919092200155565b3373ffffffffffffffffffffffffffffffffffffffff7f0000000000000000000000000000000000000000000000000000000000000000161461092c576040517f2596a42e00000000000000000000000000000000000000000000000000000000815260040160405180910390fd5b600061093a828401846119e7565b600086815260046020908152604080832088845282528083208054600180820183559185528385200180547fffffffffffffffffffffffff000000000000000000000000000000000000000090811673ffffffffffffffffffffffffffffffffffffffff9788169081179092559a8552600380855283862082875285528386208451606081018652928352428387019081529483019b8c5280548085018255908752949095209051939094029093018054909916919093161787559051908601555050905160029092019190915550565b3373ffffffffffffffffffffffffffffffffffffffff7f00000000000000000000000000000000000000000000000000000000000000001614610a7a576040517f2596a42e00000000000000000000000000000000000000000000000000000000815260040160405180910390fd5b6000838152600560209081526040808320858452909152812054905b81811015610ba05760008581526005602090815260408083208784529091529020805484919083908110610acc57610acc611a04565b906000526020600020015403610b8e5760008581526005602090815260408083208784529091529020610b00600184611a62565b81548110610b1057610b10611a04565b60009182526020808320909101548783526005825260408084208885529092529120805483908110610b4457610b44611a04565b600091825260208083209091019290925586815260058252604080822087835290925220805480610b7757610b77611a75565b600190038181906000526020600020016000905590555b80610b9881611aa4565b915050610a96565b5050505050565b600280546102f290611994565b60008315610e4e576000858152600560209081526040808320878452825280832080548251818502810185019093528083529192909190830182828015610c1a57602002820191906000526020600020905b815481526020019060010190808311610c06575b5050505050905060005b8151811015610e47576000828281518110610c4157610c41611a04565b60209081029190910181015160008a815260038352604080822073ffffffffffffffffffffffffffffffffffffffff8b168352845280822080548251818702810187019093528083529395509193909290849084015b82821015610cf95760008481526020908190206040805160608101825260038602909201805473ffffffffffffffffffffffffffffffffffffffff16835260018082015484860152600290910154918301919091529083529092019101610c97565b50505060008b81526003602090815260408083206001845282528083208054825181850281018501909352808352959650929490935090849084015b82821015610d975760008481526020908190206040805160608101825260038602909201805473ffffffffffffffffffffffffffffffffffffffff16835260018082015484860152600290910154918301919091529083529092019101610d35565b5050505090506000610da98284611292565b805190915015610e305760005b8151811015610e2e5784828281518110610dd257610dd2611a04565b60200260200101516040015103610e1c57610e078c838381518110610df957610df9611a04565b60200260200101518b6113e9565b15610e1c576001975050505050505050611009565b80610e2681611aa4565b915050610db6565b505b505050508080610e3f90611aa4565b915050610c24565b5050611005565b600085815260036020908152604080832060018452825280832080548251818502810185019093528083529192909190849084015b82821015610ee55760008481526020908190206040805160608101825260038602909201805473ffffffffffffffffffffffffffffffffffffffff16835260018082015484860152600290910154918301919091529083529092019101610e83565b505050600088815260036020908152604080832073ffffffffffffffffffffffffffffffffffffffff8a16845282528083208054825181850281018501909352808352959650929490935090849084015b82821015610f985760008481526020908190206040805160608101825260038602909201805473ffffffffffffffffffffffffffffffffffffffff16835260018082015484860152600290910154918301919091529083529092019101610f36565b5050505090506000610faa8383611292565b905060005b815181101561100057610fdc89838381518110610fce57610fce611a04565b6020026020010151886113e9565b15610fee576001945050505050611009565b80610ff881611aa4565b915050610faf565b505050505b5060005b949350505050565b600180546102f290611994565b600082815260036020908152604080832073ffffffffffffffffffffffffffffffffffffffff851684529091528120546060917f00000000000000000000000000000000000000000000000000000000000000009167ffffffffffffffff81111561108b5761108b61170c565b6040519080825280602002602001820160405280156110d157816020015b6040805180820190915260008152606060208201528152602001906001900390816110a95790505b50600086815260036020908152604080832073ffffffffffffffffffffffffffffffffffffffff89168452825280832080548251818502810185019093528083529495509293909291849084015b828210156111815760008481526020908190206040805160608101825260038602909201805473ffffffffffffffffffffffffffffffffffffffff1683526001808201548486015260029091015491830191909152908352909201910161111f565b50505050905060005b8151811015611287578373ffffffffffffffffffffffffffffffffffffffff1663d9af4ecf888484815181106111c2576111c2611a04565b6020026020010151604001516040518363ffffffff1660e01b81526004016111f4929190918252602082015260400190565b600060405180830381865afa158015611211573d6000803e3d6000fd5b505050506040513d6000823e601f3d9081017fffffffffffffffffffffffffffffffffffffffffffffffffffffffffffffffe01682016040526112579190810190611b21565b83828151811061126957611269611a04565b6020026020010181905250808061127f90611aa4565b91505061118a565b509095945050505050565b60606000825184516112a49190611bae565b67ffffffffffffffff8111156112bc576112bc61170c565b60405190808252806020026020018201604052801561132757816020015b6113146040518060600160405280600073ffffffffffffffffffffffffffffffffffffffff16815260200160008152602001600081525090565b8152602001906001900390816112da5790505b50905060005b84518110156113805784818151811061134857611348611a04565b602002602001015182828151811061136257611362611a04565b6020026020010181905250808061137890611aa4565b91505061132d565b60005b84518110156113df57848161139781611aa4565b9250815181106113a9576113a9611a04565b60200260200101518383806113bd90611aa4565b9450815181106113cf576113cf611a04565b6020026020010181905250611383565b5090949350505050565b60408281015190517fa7d325fc00000000000000000000000000000000000000000000000000000000815260048101859052602481018290526000919082907f000000000000000000000000000000000000000000000000000000000000000073ffffffffffffffffffffffffffffffffffffffff169063a7d325fc90604401600060405180830381865afa158015611486573d6000803e3d6000fd5b505050506040513d6000823e601f3d9081017fffffffffffffffffffffffffffffffffffffffffffffffffffffffffffffffe01682016040526114cc9190810190611bc1565b905060005b81518110156115695784516040516114ec9190602001611cd5565b6040516020818303038152906040528051906020012082828151811061151457611514611a04565b6020026020010151600001516040516020016115309190611cd5565b60405160208183030381529060405280519060200120036115575760019350505050611571565b8061156181611aa4565b9150506114d1565b506000925050505b9392505050565b60006020828403121561158a57600080fd5b81357fffffffff000000000000000000000000000000000000000000000000000000008116811461157157600080fd5b60005b838110156115d55781810151838201526020016115bd565b50506000910152565b600081518084526115f68160208601602086016115ba565b601f017fffffffffffffffffffffffffffffffffffffffffffffffffffffffffffffffe0169290920160200192915050565b60208152600061157160208301846115de565b6000806000806060858703121561165157600080fd5b8435935060208501359250604085013567ffffffffffffffff8082111561167757600080fd5b818701915087601f83011261168b57600080fd5b81358181111561169a57600080fd5b8860208285010111156116ac57600080fd5b95989497505060200194505050565b6000806000606084860312156116d057600080fd5b505081359360208301359350604090920135919050565b73ffffffffffffffffffffffffffffffffffffffff8116811461170957600080fd5b50565b7f4e487b7100000000000000000000000000000000000000000000000000000000600052604160045260246000fd5b6040516020810167ffffffffffffffff8111828210171561175e5761175e61170c565b60405290565b604051601f82017fffffffffffffffffffffffffffffffffffffffffffffffffffffffffffffffe016810167ffffffffffffffff811182821017156117ab576117ab61170c565b604052919050565b600067ffffffffffffffff8211156117cd576117cd61170c565b50601f017fffffffffffffffffffffffffffffffffffffffffffffffffffffffffffffffe01660200190565b6000806000806080858703121561180f57600080fd5b8435935060208086013593506040860135611829816116e7565b9250606086013567ffffffffffffffff8082111561184657600080fd5b818801915082828a03121561185a57600080fd5b61186261173b565b82358281111561187157600080fd5b80840193505089601f84011261188657600080fd5b8235915061189b611896836117b3565b611764565b8281528a858486010111156118af57600080fd5b828585018683013760009281019094019190915291825250939692955090935050565b600080604083850312156118e557600080fd5b8235915060208301356118f7816116e7565b809150509250929050565b60006020808301818452808551808352604092508286019150828160051b87010184880160005b83811015611986578883037fffffffffffffffffffffffffffffffffffffffffffffffffffffffffffffffc0018552815180518452870151878401879052611973878501826115de565b9588019593505090860190600101611929565b509098975050505050505050565b600181811c908216806119a857607f821691505b6020821081036119e1577f4e487b7100000000000000000000000000000000000000000000000000000000600052602260045260246000fd5b50919050565b6000602082840312156119f957600080fd5b8135611571816116e7565b7f4e487b7100000000000000000000000000000000000000000000000000000000600052603260045260246000fd5b7f4e487b7100000000000000000000000000000000000000000000000000000000600052601160045260246000fd5b818103818111156102df576102df611a33565b7f4e487b7100000000000000000000000000000000000000000000000000000000600052603160045260246000fd5b60007fffffffffffffffffffffffffffffffffffffffffffffffffffffffffffffffff8203611ad557611ad5611a33565b5060010190565b600082601f830112611aed57600080fd5b8151611afb611896826117b3565b818152846020838601011115611b1057600080fd5b6110098260208301602087016115ba565b600060208284031215611b3357600080fd5b815167ffffffffffffffff80821115611b4b57600080fd5b9083019060408286031215611b5f57600080fd5b604051604081018181108382111715611b7a57611b7a61170c565b60405282518152602083015182811115611b9357600080fd5b611b9f87828601611adc565b60208301525095945050505050565b808201808211156102df576102df611a33565b60006020808385031215611bd457600080fd5b825167ffffffffffffffff80821115611bec57600080fd5b818501915085601f830112611c0057600080fd5b815181811115611c1257611c1261170c565b8060051b611c21858201611764565b9182528381018501918581019089841115611c3b57600080fd5b86860192505b83831015611cc857825185811115611c595760008081fd5b8601808b037fffffffffffffffffffffffffffffffffffffffffffffffffffffffffffffffe001881315611c8d5760008081fd5b611c9561173b565b8882015187811115611ca75760008081fd5b611cb58d8b83860101611adc565b8252508352509186019190860190611c41565b9998505050505050505050565b60008251611ce78184602087016115ba565b919091019291505056fea264697066735822122004e722954dba4a9a1f5353fb5a0c9ee923714375c9c647f5612856ace12514d864736f6c63430008110033",
    "linkReferences": {}
  },
  "methodIdentifiers": {
    "_permisionRegistry()": "5acad43c",
    "_roleManager()": "f4339a97",
    "_spaceManager()": "3820c2ad",
    "addRoleIdToChannel(uint256,uint256,uint256)": "40a74b43",
    "description()": "7284e416",
    "getUserRoles(uint256,address)": "f725f2f6",
    "isEntitled(uint256,uint256,address,(string))": "66218999",
    "moduleType()": "6465e69f",
    "name()": "06fdde03",
    "removeRoleIdFromChannel(uint256,uint256,uint256)": "5c1b185d",
    "removeSpaceEntitlement(uint256,uint256,bytes)": "3d1dea8c",
    "setSpaceEntitlement(uint256,uint256,bytes)": "4b0fd1a2",
    "supportsInterface(bytes4)": "01ffc9a7"
  },
  "id": 36
}