{
  "abi": [
    {
      "inputs": [
        {
          "internalType": "string",
          "name": "name_",
          "type": "string"
        },
        {
          "internalType": "string",
          "name": "description_",
          "type": "string"
        },
        {
          "internalType": "address",
          "name": "spaceManager_",
          "type": "address"
        },
        {
          "internalType": "address",
          "name": "roleManager_",
          "type": "address"
        }
      ],
      "stateMutability": "nonpayable",
      "type": "constructor"
    },
    {
      "inputs": [],
      "name": "InvalidParameters",
      "type": "error"
    },
    {
      "inputs": [],
      "name": "NotSpaceManager",
      "type": "error"
    },
    {
      "inputs": [],
      "name": "_roleManager",
      "outputs": [
        {
          "internalType": "address",
          "name": "",
          "type": "address"
        }
      ],
      "stateMutability": "view",
      "type": "function"
    },
    {
      "inputs": [],
      "name": "_spaceManager",
      "outputs": [
        {
          "internalType": "address",
          "name": "",
          "type": "address"
        }
      ],
      "stateMutability": "view",
      "type": "function"
    },
    {
      "inputs": [],
      "name": "description",
      "outputs": [
        {
          "internalType": "string",
          "name": "",
          "type": "string"
        }
      ],
      "stateMutability": "view",
      "type": "function"
    },
    {
      "inputs": [
        {
          "internalType": "string",
          "name": "spaceId",
          "type": "string"
        },
        {
          "internalType": "string",
          "name": "channelId",
          "type": "string"
        },
        {
          "internalType": "uint256",
          "name": "roleId",
          "type": "uint256"
        }
      ],
      "name": "getEntitlementData",
      "outputs": [
        {
          "internalType": "address[]",
          "name": "",
          "type": "address[]"
        }
      ],
      "stateMutability": "view",
      "type": "function"
    },
    {
      "inputs": [
        {
          "internalType": "string",
          "name": "spaceId",
          "type": "string"
        },
        {
          "internalType": "string",
          "name": "channelId",
          "type": "string"
        },
        {
          "internalType": "address",
          "name": "user",
          "type": "address"
        }
      ],
      "name": "getUserRoles",
      "outputs": [
        {
          "components": [
            {
              "internalType": "uint256",
              "name": "roleId",
              "type": "uint256"
            },
            {
              "internalType": "string",
              "name": "name",
              "type": "string"
            }
          ],
          "internalType": "struct DataTypes.Role[]",
          "name": "",
          "type": "tuple[]"
        }
      ],
      "stateMutability": "view",
      "type": "function"
    },
    {
      "inputs": [
        {
          "internalType": "string",
          "name": "spaceId",
          "type": "string"
        },
        {
          "internalType": "string",
          "name": "channelId",
          "type": "string"
        },
        {
          "internalType": "address",
          "name": "user",
          "type": "address"
        },
        {
          "components": [
            {
              "internalType": "string",
              "name": "name",
              "type": "string"
            }
          ],
          "internalType": "struct DataTypes.Permission",
          "name": "permission",
          "type": "tuple"
        }
      ],
      "name": "isEntitled",
      "outputs": [
        {
          "internalType": "bool",
          "name": "",
          "type": "bool"
        }
      ],
      "stateMutability": "view",
      "type": "function"
    },
    {
      "inputs": [],
      "name": "name",
      "outputs": [
        {
          "internalType": "string",
          "name": "",
          "type": "string"
        }
      ],
      "stateMutability": "view",
      "type": "function"
    },
    {
      "inputs": [
        {
          "internalType": "string",
          "name": "spaceId",
          "type": "string"
        },
        {
          "internalType": "string",
          "name": "channelId",
          "type": "string"
        },
        {
          "internalType": "uint256",
          "name": "roleId",
          "type": "uint256"
        },
        {
          "internalType": "bytes",
          "name": "entitlementData",
          "type": "bytes"
        }
      ],
      "name": "removeEntitlement",
      "outputs": [],
      "stateMutability": "nonpayable",
      "type": "function"
    },
    {
      "inputs": [
        {
          "internalType": "string",
          "name": "spaceId",
          "type": "string"
        },
        {
          "internalType": "string",
          "name": "channelId",
          "type": "string"
        },
        {
          "internalType": "uint256",
          "name": "roleId",
          "type": "uint256"
        },
        {
          "internalType": "bytes",
          "name": "entitlementData",
          "type": "bytes"
        }
      ],
      "name": "setEntitlement",
      "outputs": [],
      "stateMutability": "nonpayable",
      "type": "function"
    },
    {
      "inputs": [
        {
          "internalType": "bytes4",
          "name": "interfaceId",
          "type": "bytes4"
        }
      ],
      "name": "supportsInterface",
      "outputs": [
        {
          "internalType": "bool",
          "name": "",
          "type": "bool"
        }
      ],
      "stateMutability": "view",
      "type": "function"
    }
  ],
  "bytecode": {
    "object": "0x60c06040523480156200001157600080fd5b5060405162002f5f38038062002f5f83398101604081905262000034916200017f565b838383836001600160a01b0382166200006057604051630e52390960e41b815260040160405180910390fd5b60006200006e85826200029d565b5060016200007d84826200029d565b506001600160a01b039182166080521660a0525062000369945050505050565b634e487b7160e01b600052604160045260246000fd5b600082601f830112620000c557600080fd5b81516001600160401b0380821115620000e257620000e26200009d565b604051601f8301601f19908116603f011681019082821181831017156200010d576200010d6200009d565b816040528381526020925086838588010111156200012a57600080fd5b600091505b838210156200014e57858201830151818301840152908201906200012f565b600093810190920192909252949350505050565b80516001600160a01b03811681146200017a57600080fd5b919050565b600080600080608085870312156200019657600080fd5b84516001600160401b0380821115620001ae57600080fd5b620001bc88838901620000b3565b95506020870151915080821115620001d357600080fd5b50620001e287828801620000b3565b935050620001f36040860162000162565b9150620002036060860162000162565b905092959194509250565b600181811c908216806200022357607f821691505b6020821081036200024457634e487b7160e01b600052602260045260246000fd5b50919050565b601f8211156200029857600081815260208120601f850160051c81016020861015620002735750805b601f850160051c820191505b8181101562000294578281556001016200027f565b5050505b505050565b81516001600160401b03811115620002b957620002b96200009d565b620002d181620002ca84546200020e565b846200024a565b602080601f831160018114620003095760008415620002f05750858301515b600019600386901b1c1916600185901b17855562000294565b600085815260208120601f198616915b828110156200033a5788860151825594840194600190910190840162000319565b5085821015620003595787850151600019600388901b60f8161c191681555b5050505050600190811b01905550565b60805160a051612b83620003dc600039600081816101b40152818161037d0152611f290152600081816101050152818161035b0152818161090401528181610d1001528181610da701528181610e23015281816110a00152818161111f01528181611b340152611c970152612b836000f3fe608060405234801561001057600080fd5b50600436106100be5760003560e01c8063bf77b66311610076578063ec6b643a1161005b578063ec6b643a1461019c578063f4339a97146101af578063faecd9e4146101d657600080fd5b8063bf77b66314610174578063c800fec41461018757600080fd5b80633820c2ad116100a75780633820c2ad146101005780637284e4161461014c57806382ceca421461015457600080fd5b806301ffc9a7146100c357806306fdde03146100eb575b600080fd5b6100d66100d13660046120ad565b6101f6565b60405190151581526020015b60405180910390f35b6100f361028f565b6040516100e2919061215d565b6101277f000000000000000000000000000000000000000000000000000000000000000081565b60405173ffffffffffffffffffffffffffffffffffffffff90911681526020016100e2565b6100f3610321565b6101676101623660046121de565b610330565b6040516100e29190612262565b6100d6610182366004612437565b6108d9565b61019a61019536600461250e565b610cf8565b005b61019a6101aa3660046125a7565b611088565b6101277f000000000000000000000000000000000000000000000000000000000000000081565b6101e96101e436600461264b565b611b2e565b6040516100e291906126b8565b60007fffffffff0000000000000000000000000000000000000000000000000000000082167f6dabdcca00000000000000000000000000000000000000000000000000000000148061028957507f01ffc9a7000000000000000000000000000000000000000000000000000000007fffffffff000000000000000000000000000000000000000000000000000000008316145b92915050565b60606000805461029e90612712565b80601f01602080910402602001604051908101604052809291908181526020018280546102ca90612712565b80156103175780601f106102ec57610100808354040283529160200191610317565b820191906000526020600020905b8154815290600101906020018083116102fa57829003601f168201915b5050505050905090565b60606001805461029e90612712565b6040517f9ddd0d6b0000000000000000000000000000000000000000000000000000000081526060907f0000000000000000000000000000000000000000000000000000000000000000907f00000000000000000000000000000000000000000000000000000000000000009060009073ffffffffffffffffffffffffffffffffffffffff841690639ddd0d6b906103ce908c908c906004016127ae565b602060405180830381865afa1580156103eb573d6000803e3d6000fd5b505050506040513d601f19601f8201168201806040525081019061040f91906127ca565b905060008373ffffffffffffffffffffffffffffffffffffffff16633e66eae38b8b8b8b6040518563ffffffff1660e01b815260040161045294939291906127e3565b602060405180830381865afa15801561046f573d6000803e3d6000fd5b505050506040513d601f19601f8201168201806040525081019061049391906127ca565b6000838152600360209081526040808320848452825280832073ffffffffffffffffffffffffffffffffffffffff8b168085529083528184205487855260028452828520918552925282205492935090916104ee9190612844565b67ffffffffffffffff811115610506576105066122f4565b60405190808252806020026020018201604052801561054c57816020015b6040805180820190915260008152606060208201528152602001906001900390816105245790505b5090508715610716576000838152600360209081526040808320858452825280832073ffffffffffffffffffffffffffffffffffffffff8b168452825280832080548251818502810185019093528083529192909190849084015b828210156106095760008481526020908190206040805160608101825260038602909201805473ffffffffffffffffffffffffffffffffffffffff168352600180820154848601526002909101549183019190915290835290920191016105a7565b50505050905060005b815181101561070f578573ffffffffffffffffffffffffffffffffffffffff1663d9af4ecf8684848151811061064a5761064a612857565b6020026020010151604001516040518363ffffffff1660e01b815260040161067c929190918252602082015260400190565b600060405180830381865afa158015610699573d6000803e3d6000fd5b505050506040513d6000823e601f3d9081017fffffffffffffffffffffffffffffffffffffffffffffffffffffffffffffffe01682016040526106df91908101906128cb565b8382815181106106f1576106f1612857565b6020026020010181905250808061070790612958565b915050610612565b50506108cb565b600083815260026020908152604080832073ffffffffffffffffffffffffffffffffffffffff8b168452825280832080548251818502810185019093528083529192909190849084015b828210156107c25760008481526020908190206040805160608101825260038602909201805473ffffffffffffffffffffffffffffffffffffffff16835260018082015484860152600290910154918301919091529083529092019101610760565b50505050905060005b81518110156108c8578573ffffffffffffffffffffffffffffffffffffffff1663d9af4ecf8684848151811061080357610803612857565b6020026020010151604001516040518363ffffffff1660e01b8152600401610835929190918252602082015260400190565b600060405180830381865afa158015610852573d6000803e3d6000fd5b505050506040513d6000823e601f3d9081017fffffffffffffffffffffffffffffffffffffffffffffffffffffffffffffffe016820160405261089891908101906128cb565b8382815181106108aa576108aa612857565b602002602001018190525080806108c090612958565b9150506107cb565b50505b9a9950505050505050505050565b6040517f9ddd0d6b0000000000000000000000000000000000000000000000000000000081526000907f000000000000000000000000000000000000000000000000000000000000000090829073ffffffffffffffffffffffffffffffffffffffff831690639ddd0d6b90610954908c908c906004016127ae565b602060405180830381865afa158015610971573d6000803e3d6000fd5b505050506040513d601f19601f8201168201806040525081019061099591906127ca565b905060008273ffffffffffffffffffffffffffffffffffffffff16633e66eae38b8b8b8b6040518563ffffffff1660e01b81526004016109d894939291906127e3565b602060405180830381865afa1580156109f5573d6000803e3d6000fd5b505050506040513d601f19601f82011682018060405250810190610a1991906127ca565b90508015610ba7576000828152600360209081526040808320848452825280832060018452825280832080548251818502810185019093528083529192909190849084015b82821015610ac05760008481526020908190206040805160608101825260038602909201805473ffffffffffffffffffffffffffffffffffffffff16835260018082015484860152600290910154918301919091529083529092019101610a5e565b5050506000858152600360209081526040808320878452825280832073ffffffffffffffffffffffffffffffffffffffff8d16845282528083208054825181850281018501909352808352959650929490935090849084015b82821015610b7b5760008481526020908190206040805160608101825260038602909201805473ffffffffffffffffffffffffffffffffffffffff16835260018082015484860152600290910154918301919091529083529092019101610b19565b5050505090506000610b8d8383611d9f565b9050610b9a85828a611ef6565b9650505050505050610cee565b600082815260026020908152604080832060018452825280832080548251818502810185019093528083529192909190849084015b82821015610c3e5760008481526020908190206040805160608101825260038602909201805473ffffffffffffffffffffffffffffffffffffffff16835260018082015484860152600290910154918301919091529083529092019101610bdc565b505050600085815260026020908152604080832073ffffffffffffffffffffffffffffffffffffffff8d16845282528083208054825181850281018501909352808352959650929490935090849084018215610b7b5760008481526020908190206040805160608101825260038602909201805473ffffffffffffffffffffffffffffffffffffffff16835260018082015484860152600290910154918301919091529083529092019101610b19565b9695505050505050565b3373ffffffffffffffffffffffffffffffffffffffff7f00000000000000000000000000000000000000000000000000000000000000001614610d67576040517f2596a42e00000000000000000000000000000000000000000000000000000000815260040160405180910390fd5b6040517f9ddd0d6b00000000000000000000000000000000000000000000000000000000815260009073ffffffffffffffffffffffffffffffffffffffff7f00000000000000000000000000000000000000000000000000000000000000001690639ddd0d6b90610ddc90899060040161215d565b602060405180830381865afa158015610df9573d6000803e3d6000fd5b505050506040513d601f19601f82011682018060405250810190610e1d91906127ca565b905060007f000000000000000000000000000000000000000000000000000000000000000073ffffffffffffffffffffffffffffffffffffffff16633e66eae388886040518363ffffffff1660e01b8152600401610e7c929190612990565b602060405180830381865afa158015610e99573d6000803e3d6000fd5b505050506040513d601f19601f82011682018060405250810190610ebd91906127ca565b90506000610ecd848601866129be565b875190915015610fb35760008381526005602090815260408083208584528252808320898452825280832080546001818101835591855283852001805473ffffffffffffffffffffffffffffffffffffffff8088167fffffffffffffffffffffffff0000000000000000000000000000000000000000928316811790935589875260038087528588208a8952875285882084895287528588208651606081018852948552428589019081529685018f815281548088018355918a52979098209351970290920180549690921695169490941784559051908301555160029091015561107e565b6000838152600460209081526040808320898452825280832080546001818101835591855283852001805473ffffffffffffffffffffffffffffffffffffffff8088167fffffffffffffffffffffffff00000000000000000000000000000000000000009283168117909355898752600280875285882084895287528588208651606081018852948552428589019081529685018f815281548088018355918a5297909820935160039098029093018054979091169690911695909517855591519084015590519101555b5050505050505050565b3373ffffffffffffffffffffffffffffffffffffffff7f000000000000000000000000000000000000000000000000000000000000000016146110f7576040517f2596a42e00000000000000000000000000000000000000000000000000000000815260040160405180910390fd5b6040517f9ddd0d6b0000000000000000000000000000000000000000000000000000000081527f00000000000000000000000000000000000000000000000000000000000000009060009073ffffffffffffffffffffffffffffffffffffffff831690639ddd0d6b90611170908c908c906004016127ae565b602060405180830381865afa15801561118d573d6000803e3d6000fd5b505050506040513d601f19601f820116820180604052508101906111b191906127ca565b905060008273ffffffffffffffffffffffffffffffffffffffff16633e66eae38b8b8b8b6040518563ffffffff1660e01b81526004016111f494939291906127e3565b602060405180830381865afa158015611211573d6000803e3d6000fd5b505050506040513d601f19601f8201168201806040525081019061123591906127ca565b90506000611245858701876129be565b905081156116e2576000838152600360209081526040808320858452825280832073ffffffffffffffffffffffffffffffffffffffff851684528252808320548684526005835281842086855283528184208b855290925282205490915b82811015611437576000868152600360209081526040808320888452825280832073ffffffffffffffffffffffffffffffffffffffff88168452909152902080548b9190839081106112f7576112f7612857565b90600052602060002090600302016002015403611425576000868152600360209081526040808320888452825280832073ffffffffffffffffffffffffffffffffffffffff8816845290915290206113506001856129db565b8154811061136057611360612857565b60009182526020808320898452600380835260408086208b8752845280862073ffffffffffffffffffffffffffffffffffffffff8b1687529093529190932080549190920290920191839081106113b9576113b9612857565b60009182526020909120825460039092020180547fffffffffffffffffffffffff00000000000000000000000000000000000000001673ffffffffffffffffffffffffffffffffffffffff90921691909117815560018083015490820155600291820154910155611437565b8061142f81612958565b9150506112a3565b5060005b818110156115a657600086815260056020908152604080832088845282528083208d84529091529020805473ffffffffffffffffffffffffffffffffffffffff861691908390811061148f5761148f612857565b60009182526020909120015473ffffffffffffffffffffffffffffffffffffffff160361159457600086815260056020908152604080832088845282528083208d845290915290206114e26001846129db565b815481106114f2576114f2612857565b600091825260208083209091015488835260058252604080842089855283528084208e85529092529120805473ffffffffffffffffffffffffffffffffffffffff909216918390811061154757611547612857565b9060005260206000200160006101000a81548173ffffffffffffffffffffffffffffffffffffffff021916908373ffffffffffffffffffffffffffffffffffffffff1602179055506115a6565b8061159e81612958565b91505061143b565b50600085815260056020908152604080832087845282528083208c845290915290208054806115d7576115d76129ee565b6000828152602080822083017fffffffffffffffffffffffffffffffffffffffffffffffffffffffffffffffff90810180547fffffffffffffffffffffffff0000000000000000000000000000000000000000169055909201909255868252600381526040808320878452825280832073ffffffffffffffffffffffffffffffffffffffff871684529091529020805480611674576116746129ee565b60008281526020812060037fffffffffffffffffffffffffffffffffffffffffffffffffffffffffffffffff9093019283020180547fffffffffffffffffffffffff00000000000000000000000000000000000000001681556001810182905560020155905550611b219050565b600083815260026020908152604080832073ffffffffffffffffffffffffffffffffffffffff85168452825280832054868452600483528184208b855290925282205490915b828110156118a357600086815260026020908152604080832073ffffffffffffffffffffffffffffffffffffffff88168452909152902080548b91908390811061177457611774612857565b9060005260206000209060030201600201540361189157600086815260026020908152604080832073ffffffffffffffffffffffffffffffffffffffff8816845290915290206117c56001856129db565b815481106117d5576117d5612857565b6000918252602080832089845260028252604080852073ffffffffffffffffffffffffffffffffffffffff8a16865290925292208054600390920290920191908390811061182557611825612857565b60009182526020909120825460039092020180547fffffffffffffffffffffffff00000000000000000000000000000000000000001673ffffffffffffffffffffffffffffffffffffffff909216919091178155600180830154908201556002918201549101556118a3565b8061189b81612958565b915050611728565b5060005b818110156119fa5760008681526004602090815260408083208d84529091529020805473ffffffffffffffffffffffffffffffffffffffff86169190839081106118f3576118f3612857565b60009182526020909120015473ffffffffffffffffffffffffffffffffffffffff16036119e85760008681526004602090815260408083208d8452909152902061193e6001846129db565b8154811061194e5761194e612857565b60009182526020808320909101548883526004825260408084208e85529092529120805473ffffffffffffffffffffffffffffffffffffffff909216918390811061199b5761199b612857565b9060005260206000200160006101000a81548173ffffffffffffffffffffffffffffffffffffffff021916908373ffffffffffffffffffffffffffffffffffffffff1602179055506119fa565b806119f281612958565b9150506118a7565b5060008581526004602090815260408083208c84529091529020805480611a2357611a236129ee565b6000828152602080822083017fffffffffffffffffffffffffffffffffffffffffffffffffffffffffffffffff90810180547fffffffffffffffffffffffff000000000000000000000000000000000000000016905590920190925586825260028152604080832073ffffffffffffffffffffffffffffffffffffffff871684529091529020805480611ab857611ab86129ee565b60008281526020812060037fffffffffffffffffffffffffffffffffffffffffffffffffffffffffffffffff9093019283020180547fffffffffffffffffffffffff00000000000000000000000000000000000000001681556001810182905560020155905550505b5050505050505050505050565b606060007f000000000000000000000000000000000000000000000000000000000000000073ffffffffffffffffffffffffffffffffffffffff16639ddd0d6b866040518263ffffffff1660e01b8152600401611b8b919061215d565b602060405180830381865afa158015611ba8573d6000803e3d6000fd5b505050506040513d601f19601f82011682018060405250810190611bcc91906127ca565b90508351600003611c5757600081815260046020908152604080832086845282529182902080548351818402810184019094528084529091830182828015611c4a57602002820191906000526020600020905b815473ffffffffffffffffffffffffffffffffffffffff168152600190910190602001808311611c1f575b5050505050915050611d98565b6040517f3e66eae300000000000000000000000000000000000000000000000000000000815260009073ffffffffffffffffffffffffffffffffffffffff7f00000000000000000000000000000000000000000000000000000000000000001690633e66eae390611cce9089908990600401612990565b602060405180830381865afa158015611ceb573d6000803e3d6000fd5b505050506040513d601f19601f82011682018060405250810190611d0f91906127ca565b600083815260056020908152604080832084845282528083208884528252918290208054835181840281018401909452808452939450919290830182828015611d8e57602002820191906000526020600020905b815473ffffffffffffffffffffffffffffffffffffffff168152600190910190602001808311611d63575b5050505050925050505b9392505050565b6060600082518451611db19190612844565b67ffffffffffffffff811115611dc957611dc96122f4565b604051908082528060200260200182016040528015611e3457816020015b611e216040518060600160405280600073ffffffffffffffffffffffffffffffffffffffff16815260200160008152602001600081525090565b815260200190600190039081611de75790505b50905060005b8451811015611e8d57848181518110611e5557611e55612857565b6020026020010151828281518110611e6f57611e6f612857565b60200260200101819052508080611e8590612958565b915050611e3a565b60005b8451811015611eec578481611ea481612958565b925081518110611eb657611eb6612857565b6020026020010151838380611eca90612958565b945081518110611edc57611edc612857565b6020026020010181905250611e90565b5090949350505050565b6000805b83518110156120a2576000848281518110611f1757611f17612857565b602002602001015160400151905060007f000000000000000000000000000000000000000000000000000000000000000073ffffffffffffffffffffffffffffffffffffffff1663a7d325fc88846040518363ffffffff1660e01b8152600401611f8b929190918252602082015260400190565b600060405180830381865afa158015611fa8573d6000803e3d6000fd5b505050506040513d6000823e601f3d9081017fffffffffffffffffffffffffffffffffffffffffffffffffffffffffffffffe0168201604052611fee9190810190612a1d565b905060005b815181101561208c57855160405161200e9190602001612b31565b6040516020818303038152906040528051906020012082828151811061203657612036612857565b6020026020010151600001516040516020016120529190612b31565b604051602081830303815290604052805190602001200361207a576001945050505050611d98565b8061208481612958565b915050611ff3565b505050808061209a90612958565b915050611efa565b506000949350505050565b6000602082840312156120bf57600080fd5b81357fffffffff0000000000000000000000000000000000000000000000000000000081168114611d9857600080fd5b60005b8381101561210a5781810151838201526020016120f2565b50506000910152565b6000815180845261212b8160208601602086016120ef565b601f017fffffffffffffffffffffffffffffffffffffffffffffffffffffffffffffffe0169290920160200192915050565b602081526000611d986020830184612113565b60008083601f84011261218257600080fd5b50813567ffffffffffffffff81111561219a57600080fd5b6020830191508360208285010111156121b257600080fd5b9250929050565b73ffffffffffffffffffffffffffffffffffffffff811681146121db57600080fd5b50565b6000806000806000606086880312156121f657600080fd5b853567ffffffffffffffff8082111561220e57600080fd5b61221a89838a01612170565b9097509550602088013591508082111561223357600080fd5b5061224088828901612170565b9094509250506040860135612254816121b9565b809150509295509295909350565b60006020808301818452808551808352604092508286019150828160051b87010184880160005b838110156122e6578883037fffffffffffffffffffffffffffffffffffffffffffffffffffffffffffffffc00185528151805184528701518784018790526122d387850182612113565b9588019593505090860190600101612289565b509098975050505050505050565b7f4e487b7100000000000000000000000000000000000000000000000000000000600052604160045260246000fd5b6040516020810167ffffffffffffffff81118282101715612346576123466122f4565b60405290565b604051601f82017fffffffffffffffffffffffffffffffffffffffffffffffffffffffffffffffe016810167ffffffffffffffff81118282101715612393576123936122f4565b604052919050565b600067ffffffffffffffff8211156123b5576123b56122f4565b50601f017fffffffffffffffffffffffffffffffffffffffffffffffffffffffffffffffe01660200190565b600082601f8301126123f257600080fd5b81356124056124008261239b565b61234c565b81815284602083860101111561241a57600080fd5b816020850160208301376000918101602001919091529392505050565b6000806000806000806080878903121561245057600080fd5b863567ffffffffffffffff8082111561246857600080fd5b6124748a838b01612170565b9098509650602089013591508082111561248d57600080fd5b6124998a838b01612170565b9096509450604089013591506124ae826121b9565b909250606088013590808211156124c457600080fd5b908801906020828b0312156124d857600080fd5b6124e0612323565b8235828111156124ef57600080fd5b6124fb8c8286016123e1565b8252508093505050509295509295509295565b60008060008060006080868803121561252657600080fd5b853567ffffffffffffffff8082111561253e57600080fd5b61254a89838a016123e1565b9650602088013591508082111561256057600080fd5b61256c89838a016123e1565b955060408801359450606088013591508082111561258957600080fd5b5061259688828901612170565b969995985093965092949392505050565b60008060008060008060006080888a0312156125c257600080fd5b873567ffffffffffffffff808211156125da57600080fd5b6125e68b838c01612170565b909950975060208a01359150808211156125ff57600080fd5b61260b8b838c01612170565b909750955060408a0135945060608a013591508082111561262b57600080fd5b506126388a828b01612170565b989b979a50959850939692959293505050565b60008060006060848603121561266057600080fd5b833567ffffffffffffffff8082111561267857600080fd5b612684878388016123e1565b9450602086013591508082111561269a57600080fd5b506126a7868287016123e1565b925050604084013590509250925092565b6020808252825182820181905260009190848201906040850190845b8181101561270657835173ffffffffffffffffffffffffffffffffffffffff16835292840192918401916001016126d4565b50909695505050505050565b600181811c9082168061272657607f821691505b60208210810361275f577f4e487b7100000000000000000000000000000000000000000000000000000000600052602260045260246000fd5b50919050565b8183528181602085013750600060208284010152600060207fffffffffffffffffffffffffffffffffffffffffffffffffffffffffffffffe0601f840116840101905092915050565b6020815260006127c2602083018486612765565b949350505050565b6000602082840312156127dc57600080fd5b5051919050565b6040815260006127f7604083018688612765565b828103602084015261280a818587612765565b979650505050505050565b7f4e487b7100000000000000000000000000000000000000000000000000000000600052601160045260246000fd5b8082018082111561028957610289612815565b7f4e487b7100000000000000000000000000000000000000000000000000000000600052603260045260246000fd5b600082601f83011261289757600080fd5b81516128a56124008261239b565b8181528460208386010111156128ba57600080fd5b6127c28260208301602087016120ef565b6000602082840312156128dd57600080fd5b815167ffffffffffffffff808211156128f557600080fd5b908301906040828603121561290957600080fd5b604051604081018181108382111715612924576129246122f4565b6040528251815260208301518281111561293d57600080fd5b61294987828601612886565b60208301525095945050505050565b60007fffffffffffffffffffffffffffffffffffffffffffffffffffffffffffffffff820361298957612989612815565b5060010190565b6040815260006129a36040830185612113565b82810360208401526129b58185612113565b95945050505050565b6000602082840312156129d057600080fd5b8135611d98816121b9565b8181038181111561028957610289612815565b7f4e487b7100000000000000000000000000000000000000000000000000000000600052603160045260246000fd5b60006020808385031215612a3057600080fd5b825167ffffffffffffffff80821115612a4857600080fd5b818501915085601f830112612a5c57600080fd5b815181811115612a6e57612a6e6122f4565b8060051b612a7d85820161234c565b9182528381018501918581019089841115612a9757600080fd5b86860192505b83831015612b2457825185811115612ab55760008081fd5b8601808b037fffffffffffffffffffffffffffffffffffffffffffffffffffffffffffffffe001881315612ae95760008081fd5b612af1612323565b8882015187811115612b035760008081fd5b612b118d8b83860101612886565b8252508352509186019190860190612a9d565b9998505050505050505050565b60008251612b438184602087016120ef565b919091019291505056fea26469706673582212204bf8b8022dd4ee9fff951da4d70b470fa5fa6ad78184e7fa814f14228896c65764736f6c63430008110033",
    "linkReferences": {}
  },
  "methodIdentifiers": {
    "_roleManager()": "f4339a97",
    "_spaceManager()": "3820c2ad",
    "description()": "7284e416",
    "getEntitlementData(string,string,uint256)": "faecd9e4",
    "getUserRoles(string,string,address)": "82ceca42",
    "isEntitled(string,string,address,(string))": "bf77b663",
    "name()": "06fdde03",
    "removeEntitlement(string,string,uint256,bytes)": "ec6b643a",
    "setEntitlement(string,string,uint256,bytes)": "c800fec4",
    "supportsInterface(bytes4)": "01ffc9a7"
  },
  "id": 36
}