{
  "abi": [
    {
      "inputs": [
        {
          "internalType": "string",
          "name": "name_",
          "type": "string"
        },
        {
          "internalType": "string",
          "name": "description_",
          "type": "string"
        },
        {
          "internalType": "address",
          "name": "spaceManager_",
          "type": "address"
        },
        {
          "internalType": "address",
          "name": "roleManager_",
          "type": "address"
        }
      ],
      "stateMutability": "nonpayable",
      "type": "constructor"
    },
    {
      "inputs": [],
      "name": "InvalidParameters",
      "type": "error"
    },
    {
      "inputs": [],
      "name": "NotSpaceManager",
      "type": "error"
    },
    {
      "inputs": [],
      "name": "_roleManager",
      "outputs": [
        {
          "internalType": "address",
          "name": "",
          "type": "address"
        }
      ],
      "stateMutability": "view",
      "type": "function"
    },
    {
      "inputs": [],
      "name": "_spaceManager",
      "outputs": [
        {
          "internalType": "address",
          "name": "",
          "type": "address"
        }
      ],
      "stateMutability": "view",
      "type": "function"
    },
    {
      "inputs": [],
      "name": "description",
      "outputs": [
        {
          "internalType": "string",
          "name": "",
          "type": "string"
        }
      ],
      "stateMutability": "view",
      "type": "function"
    },
    {
      "inputs": [
        {
          "internalType": "string",
          "name": "spaceId",
          "type": "string"
        },
        {
          "internalType": "string",
          "name": "channelId",
          "type": "string"
        },
        {
          "internalType": "address",
          "name": "user",
          "type": "address"
        }
      ],
      "name": "getUserRoles",
      "outputs": [
        {
          "components": [
            {
              "internalType": "uint256",
              "name": "roleId",
              "type": "uint256"
            },
            {
              "internalType": "string",
              "name": "name",
              "type": "string"
            }
          ],
          "internalType": "struct DataTypes.Role[]",
          "name": "",
          "type": "tuple[]"
        }
      ],
      "stateMutability": "view",
      "type": "function"
    },
    {
      "inputs": [
        {
          "internalType": "string",
          "name": "spaceId",
          "type": "string"
        },
        {
          "internalType": "string",
          "name": "channelId",
          "type": "string"
        },
        {
          "internalType": "address",
          "name": "user",
          "type": "address"
        },
        {
          "components": [
            {
              "internalType": "string",
              "name": "name",
              "type": "string"
            }
          ],
          "internalType": "struct DataTypes.Permission",
          "name": "permission",
          "type": "tuple"
        }
      ],
      "name": "isEntitled",
      "outputs": [
        {
          "internalType": "bool",
          "name": "",
          "type": "bool"
        }
      ],
      "stateMutability": "view",
      "type": "function"
    },
    {
      "inputs": [],
      "name": "name",
      "outputs": [
        {
          "internalType": "string",
          "name": "",
          "type": "string"
        }
      ],
      "stateMutability": "view",
      "type": "function"
    },
    {
      "inputs": [
        {
          "internalType": "string",
          "name": "spaceId",
          "type": "string"
        },
        {
          "internalType": "string",
          "name": "channelId",
          "type": "string"
        },
        {
          "internalType": "uint256[]",
          "name": "_roleIds",
          "type": "uint256[]"
        },
        {
          "internalType": "bytes",
          "name": "entitlementData",
          "type": "bytes"
        }
      ],
      "name": "removeEntitlement",
      "outputs": [],
      "stateMutability": "nonpayable",
      "type": "function"
    },
    {
      "inputs": [
        {
          "internalType": "string",
          "name": "spaceId",
          "type": "string"
        },
        {
          "internalType": "string",
          "name": "channelId",
          "type": "string"
        },
        {
          "internalType": "uint256",
          "name": "roleId",
          "type": "uint256"
        },
        {
          "internalType": "bytes",
          "name": "entitlementData",
          "type": "bytes"
        }
      ],
      "name": "setEntitlement",
      "outputs": [],
      "stateMutability": "nonpayable",
      "type": "function"
    },
    {
      "inputs": [
        {
          "internalType": "bytes4",
          "name": "interfaceId",
          "type": "bytes4"
        }
      ],
      "name": "supportsInterface",
      "outputs": [
        {
          "internalType": "bool",
          "name": "",
          "type": "bool"
        }
      ],
      "stateMutability": "view",
      "type": "function"
    }
  ],
  "bytecode": {
    "object": "0x60c06040523480156200001157600080fd5b506040516200283e3803806200283e83398101604081905262000034916200017f565b838383836001600160a01b0382166200006057604051630e52390960e41b815260040160405180910390fd5b60006200006e85826200029d565b5060016200007d84826200029d565b506001600160a01b039182166080521660a0525062000369945050505050565b634e487b7160e01b600052604160045260246000fd5b600082601f830112620000c557600080fd5b81516001600160401b0380821115620000e257620000e26200009d565b604051601f8301601f19908116603f011681019082821181831017156200010d576200010d6200009d565b816040528381526020925086838588010111156200012a57600080fd5b600091505b838210156200014e57858201830151818301840152908201906200012f565b600093810190920192909252949350505050565b80516001600160a01b03811681146200017a57600080fd5b919050565b600080600080608085870312156200019657600080fd5b84516001600160401b0380821115620001ae57600080fd5b620001bc88838901620000b3565b95506020870151915080821115620001d357600080fd5b50620001e287828801620000b3565b935050620001f36040860162000162565b9150620002036060860162000162565b905092959194509250565b600181811c908216806200022357607f821691505b6020821081036200024457634e487b7160e01b600052602260045260246000fd5b50919050565b601f8211156200029857600081815260208120601f850160051c81016020861015620002735750805b601f850160051c820191505b8181101562000294578281556001016200027f565b5050505b505050565b81516001600160401b03811115620002b957620002b96200009d565b620002d181620002ca84546200020e565b846200024a565b602080601f831160018114620003095760008415620002f05750858301515b600019600386901b1c1916600185901b17855562000294565b600085815260208120601f198616915b828110156200033a5788860151825594840194600190910190840162000319565b5085821015620003595787850151600019600388901b60f8161c191681555b5050505050600190811b01905550565b60805160a051612471620003cd6000396000818161019901528181610a51015261188b01526000818160ff015281816102fe0152818161037d01528181610a2f01528181610fd8015281816113e40152818161147b01526114f701526124716000f3fe608060405234801561001057600080fd5b50600436106100a35760003560e01c80637284e41611610076578063bf77b6631161005b578063bf77b6631461016e578063c800fec414610181578063f4339a971461019457600080fd5b80637284e4161461014657806382ceca421461014e57600080fd5b806301ffc9a7146100a857806306fdde03146100d0578063257f5ea9146100e55780633820c2ad146100fa575b600080fd5b6100bb6100b6366004611a11565b6101bb565b60405190151581526020015b60405180910390f35b6100d8610254565b6040516100c79190611ac1565b6100f86100f3366004611b1d565b6102e6565b005b6101217f000000000000000000000000000000000000000000000000000000000000000081565b60405173ffffffffffffffffffffffffffffffffffffffff90911681526020016100c7565b6100d86109f5565b61016161015c366004611c37565b610a04565b6040516100c79190611cbb565b6100bb61017c366004611e90565b610fad565b6100f861018f366004611f67565b6113cc565b6101217f000000000000000000000000000000000000000000000000000000000000000081565b60007fffffffff0000000000000000000000000000000000000000000000000000000082167fa4bfe65900000000000000000000000000000000000000000000000000000000148061024e57507f01ffc9a7000000000000000000000000000000000000000000000000000000007fffffffff000000000000000000000000000000000000000000000000000000008316145b92915050565b60606000805461026390612000565b80601f016020809104026020016040519081016040528092919081815260200182805461028f90612000565b80156102dc5780601f106102b1576101008083540402835291602001916102dc565b820191906000526020600020905b8154815290600101906020018083116102bf57829003601f168201915b5050505050905090565b3373ffffffffffffffffffffffffffffffffffffffff7f00000000000000000000000000000000000000000000000000000000000000001614610355576040517f2596a42e00000000000000000000000000000000000000000000000000000000815260040160405180910390fd5b6040517f9ddd0d6b0000000000000000000000000000000000000000000000000000000081527f00000000000000000000000000000000000000000000000000000000000000009060009073ffffffffffffffffffffffffffffffffffffffff831690639ddd0d6b906103ce908d908d9060040161209c565b602060405180830381865afa1580156103eb573d6000803e3d6000fd5b505050506040513d601f19601f8201168201806040525081019061040f91906120b8565b905060008273ffffffffffffffffffffffffffffffffffffffff16633e66eae38c8c8c8c6040518563ffffffff1660e01b815260040161045294939291906120d1565b602060405180830381865afa15801561046f573d6000803e3d6000fd5b505050506040513d601f19601f8201168201806040525081019061049391906120b8565b905060006104a385870187612103565b905060005b878110156109e657821561074e576000848152600360209081526040808320868452825280832073ffffffffffffffffffffffffffffffffffffffff86168452909152812054905b8181101561069b578a8a8481811061050a5761050a612120565b60008981526003602090815260408083208b8452825280832073ffffffffffffffffffffffffffffffffffffffff8b168452825290912080549290910293909301359291508390811061055f5761055f612120565b90600052602060002090600302016002015403610689576000868152600360209081526040808320888452825280832073ffffffffffffffffffffffffffffffffffffffff8816845290915290206105b860018461217e565b815481106105c8576105c8612120565b60009182526020808320898452600380835260408086208b8752845280862073ffffffffffffffffffffffffffffffffffffffff8b16875290935291909320805491909202909201918390811061062157610621612120565b60009182526020909120825460039092020180547fffffffffffffffffffffffff00000000000000000000000000000000000000001673ffffffffffffffffffffffffffffffffffffffff909216919091178155600180830154908201556002918201549101555b8061069381612191565b9150506104f0565b506000858152600360209081526040808320878452825280832073ffffffffffffffffffffffffffffffffffffffff8716845290915290208054806106e2576106e26121c9565b60008281526020812060037fffffffffffffffffffffffffffffffffffffffffffffffffffffffffffffffff9093019283020180547fffffffffffffffffffffffff000000000000000000000000000000000000000016815560018101829055600201559055506109d4565b600084815260026020908152604080832073ffffffffffffffffffffffffffffffffffffffff86168452909152812054905b8181101561092d578a8a8481811061079a5761079a612120565b905060200201356002600088815260200190815260200160002060008673ffffffffffffffffffffffffffffffffffffffff1673ffffffffffffffffffffffffffffffffffffffff168152602001908152602001600020828154811061080257610802612120565b9060005260206000209060030201600201540361091b57600086815260026020908152604080832073ffffffffffffffffffffffffffffffffffffffff88168452909152902061085360018461217e565b8154811061086357610863612120565b6000918252602080832089845260028252604080852073ffffffffffffffffffffffffffffffffffffffff8a1686529092529220805460039092029092019190839081106108b3576108b3612120565b60009182526020909120825460039092020180547fffffffffffffffffffffffff00000000000000000000000000000000000000001673ffffffffffffffffffffffffffffffffffffffff909216919091178155600180830154908201556002918201549101555b8061092581612191565b915050610780565b50600085815260026020908152604080832073ffffffffffffffffffffffffffffffffffffffff87168452909152902080548061096c5761096c6121c9565b60008281526020812060037fffffffffffffffffffffffffffffffffffffffffffffffffffffffffffffffff9093019283020180547fffffffffffffffffffffffff000000000000000000000000000000000000000016815560018101829055600201559055505b806109de81612191565b9150506104a8565b50505050505050505050505050565b60606001805461026390612000565b6040517f9ddd0d6b0000000000000000000000000000000000000000000000000000000081526060907f0000000000000000000000000000000000000000000000000000000000000000907f00000000000000000000000000000000000000000000000000000000000000009060009073ffffffffffffffffffffffffffffffffffffffff841690639ddd0d6b90610aa2908c908c9060040161209c565b602060405180830381865afa158015610abf573d6000803e3d6000fd5b505050506040513d601f19601f82011682018060405250810190610ae391906120b8565b905060008373ffffffffffffffffffffffffffffffffffffffff16633e66eae38b8b8b8b6040518563ffffffff1660e01b8152600401610b2694939291906120d1565b602060405180830381865afa158015610b43573d6000803e3d6000fd5b505050506040513d601f19601f82011682018060405250810190610b6791906120b8565b6000838152600360209081526040808320848452825280832073ffffffffffffffffffffffffffffffffffffffff8b16808552908352818420548785526002845282852091855292528220549293509091610bc291906121f8565b67ffffffffffffffff811115610bda57610bda611d4d565b604051908082528060200260200182016040528015610c2057816020015b604080518082019091526000815260606020820152815260200190600190039081610bf85790505b5090508715610dea576000838152600360209081526040808320858452825280832073ffffffffffffffffffffffffffffffffffffffff8b168452825280832080548251818502810185019093528083529192909190849084015b82821015610cdd5760008481526020908190206040805160608101825260038602909201805473ffffffffffffffffffffffffffffffffffffffff16835260018082015484860152600290910154918301919091529083529092019101610c7b565b50505050905060005b8151811015610de3578573ffffffffffffffffffffffffffffffffffffffff1663d9af4ecf86848481518110610d1e57610d1e612120565b6020026020010151604001516040518363ffffffff1660e01b8152600401610d50929190918252602082015260400190565b600060405180830381865afa158015610d6d573d6000803e3d6000fd5b505050506040513d6000823e601f3d9081017fffffffffffffffffffffffffffffffffffffffffffffffffffffffffffffffe0168201604052610db39190810190612250565b838281518110610dc557610dc5612120565b60200260200101819052508080610ddb90612191565b915050610ce6565b5050610f9f565b600083815260026020908152604080832073ffffffffffffffffffffffffffffffffffffffff8b168452825280832080548251818502810185019093528083529192909190849084015b82821015610e965760008481526020908190206040805160608101825260038602909201805473ffffffffffffffffffffffffffffffffffffffff16835260018082015484860152600290910154918301919091529083529092019101610e34565b50505050905060005b8151811015610f9c578573ffffffffffffffffffffffffffffffffffffffff1663d9af4ecf86848481518110610ed757610ed7612120565b6020026020010151604001516040518363ffffffff1660e01b8152600401610f09929190918252602082015260400190565b600060405180830381865afa158015610f26573d6000803e3d6000fd5b505050506040513d6000823e601f3d9081017fffffffffffffffffffffffffffffffffffffffffffffffffffffffffffffffe0168201604052610f6c9190810190612250565b838281518110610f7e57610f7e612120565b60200260200101819052508080610f9490612191565b915050610e9f565b50505b9a9950505050505050505050565b6040517f9ddd0d6b0000000000000000000000000000000000000000000000000000000081526000907f000000000000000000000000000000000000000000000000000000000000000090829073ffffffffffffffffffffffffffffffffffffffff831690639ddd0d6b90611028908c908c9060040161209c565b602060405180830381865afa158015611045573d6000803e3d6000fd5b505050506040513d601f19601f8201168201806040525081019061106991906120b8565b905060008273ffffffffffffffffffffffffffffffffffffffff16633e66eae38b8b8b8b6040518563ffffffff1660e01b81526004016110ac94939291906120d1565b602060405180830381865afa1580156110c9573d6000803e3d6000fd5b505050506040513d601f19601f820116820180604052508101906110ed91906120b8565b9050801561127b576000828152600360209081526040808320848452825280832060018452825280832080548251818502810185019093528083529192909190849084015b828210156111945760008481526020908190206040805160608101825260038602909201805473ffffffffffffffffffffffffffffffffffffffff16835260018082015484860152600290910154918301919091529083529092019101611132565b5050506000858152600360209081526040808320878452825280832073ffffffffffffffffffffffffffffffffffffffff8d16845282528083208054825181850281018501909352808352959650929490935090849084015b8282101561124f5760008481526020908190206040805160608101825260038602909201805473ffffffffffffffffffffffffffffffffffffffff168352600180820154848601526002909101549183019190915290835290920191016111ed565b50505050905060006112618383611701565b905061126e85828a611858565b96505050505050506113c2565b600082815260026020908152604080832060018452825280832080548251818502810185019093528083529192909190849084015b828210156113125760008481526020908190206040805160608101825260038602909201805473ffffffffffffffffffffffffffffffffffffffff168352600180820154848601526002909101549183019190915290835290920191016112b0565b505050600085815260026020908152604080832073ffffffffffffffffffffffffffffffffffffffff8d1684528252808320805482518185028101850190935280835295965092949093509084908401821561124f5760008481526020908190206040805160608101825260038602909201805473ffffffffffffffffffffffffffffffffffffffff168352600180820154848601526002909101549183019190915290835290920191016111ed565b9695505050505050565b3373ffffffffffffffffffffffffffffffffffffffff7f0000000000000000000000000000000000000000000000000000000000000000161461143b576040517f2596a42e00000000000000000000000000000000000000000000000000000000815260040160405180910390fd5b6040517f9ddd0d6b00000000000000000000000000000000000000000000000000000000815260009073ffffffffffffffffffffffffffffffffffffffff7f00000000000000000000000000000000000000000000000000000000000000001690639ddd0d6b906114b0908990600401611ac1565b602060405180830381865afa1580156114cd573d6000803e3d6000fd5b505050506040513d601f19601f820116820180604052508101906114f191906120b8565b905060007f000000000000000000000000000000000000000000000000000000000000000073ffffffffffffffffffffffffffffffffffffffff16633e66eae388886040518363ffffffff1660e01b81526004016115509291906122dd565b602060405180830381865afa15801561156d573d6000803e3d6000fd5b505050506040513d601f19601f8201168201806040525081019061159191906120b8565b905060006115a184860186612103565b875190915015611659576000838152600360208181526040808420868552825280842073ffffffffffffffffffffffffffffffffffffffff8681168087529184528286208351606081018552928352428386019081529383018d81528154600180820184559289529590972092519490950290910180547fffffffffffffffffffffffff00000000000000000000000000000000000000001693909116929092178255519181019190915590516002909101556116f7565b600083815260026020818152604080842073ffffffffffffffffffffffffffffffffffffffff8681168087529184528286208351606081018552928352428386019081529383018d8152815460018082018455928952959097209251600390950290920180547fffffffffffffffffffffffff0000000000000000000000000000000000000000169490911693909317835590519082015591519101555b5050505050505050565b606060008251845161171391906121f8565b67ffffffffffffffff81111561172b5761172b611d4d565b60405190808252806020026020018201604052801561179657816020015b6117836040518060600160405280600073ffffffffffffffffffffffffffffffffffffffff16815260200160008152602001600081525090565b8152602001906001900390816117495790505b50905060005b84518110156117ef578481815181106117b7576117b7612120565b60200260200101518282815181106117d1576117d1612120565b602002602001018190525080806117e790612191565b91505061179c565b60005b845181101561184e57848161180681612191565b92508151811061181857611818612120565b602002602001015183838061182c90612191565b94508151811061183e5761183e612120565b60200260200101819052506117f2565b5090949350505050565b6000805b8351811015611a0457600084828151811061187957611879612120565b602002602001015160400151905060007f000000000000000000000000000000000000000000000000000000000000000073ffffffffffffffffffffffffffffffffffffffff1663a7d325fc88846040518363ffffffff1660e01b81526004016118ed929190918252602082015260400190565b600060405180830381865afa15801561190a573d6000803e3d6000fd5b505050506040513d6000823e601f3d9081017fffffffffffffffffffffffffffffffffffffffffffffffffffffffffffffffe0168201604052611950919081019061230b565b905060005b81518110156119ee578551604051611970919060200161241f565b6040516020818303038152906040528051906020012082828151811061199857611998612120565b6020026020010151600001516040516020016119b4919061241f565b60405160208183030381529060405280519060200120036119dc576001945050505050611a0a565b806119e681612191565b915050611955565b50505080806119fc90612191565b91505061185c565b50600090505b9392505050565b600060208284031215611a2357600080fd5b81357fffffffff0000000000000000000000000000000000000000000000000000000081168114611a0a57600080fd5b60005b83811015611a6e578181015183820152602001611a56565b50506000910152565b60008151808452611a8f816020860160208601611a53565b601f017fffffffffffffffffffffffffffffffffffffffffffffffffffffffffffffffe0169290920160200192915050565b602081526000611a0a6020830184611a77565b60008083601f840112611ae657600080fd5b50813567ffffffffffffffff811115611afe57600080fd5b602083019150836020828501011115611b1657600080fd5b9250929050565b6000806000806000806000806080898b031215611b3957600080fd5b883567ffffffffffffffff80821115611b5157600080fd5b611b5d8c838d01611ad4565b909a50985060208b0135915080821115611b7657600080fd5b611b828c838d01611ad4565b909850965060408b0135915080821115611b9b57600080fd5b818b0191508b601f830112611baf57600080fd5b813581811115611bbe57600080fd5b8c60208260051b8501011115611bd357600080fd5b6020830196508095505060608b0135915080821115611bf157600080fd5b50611bfe8b828c01611ad4565b999c989b5096995094979396929594505050565b73ffffffffffffffffffffffffffffffffffffffff81168114611c3457600080fd5b50565b600080600080600060608688031215611c4f57600080fd5b853567ffffffffffffffff80821115611c6757600080fd5b611c7389838a01611ad4565b90975095506020880135915080821115611c8c57600080fd5b50611c9988828901611ad4565b9094509250506040860135611cad81611c12565b809150509295509295909350565b60006020808301818452808551808352604092508286019150828160051b87010184880160005b83811015611d3f578883037fffffffffffffffffffffffffffffffffffffffffffffffffffffffffffffffc0018552815180518452870151878401879052611d2c87850182611a77565b9588019593505090860190600101611ce2565b509098975050505050505050565b7f4e487b7100000000000000000000000000000000000000000000000000000000600052604160045260246000fd5b6040516020810167ffffffffffffffff81118282101715611d9f57611d9f611d4d565b60405290565b604051601f82017fffffffffffffffffffffffffffffffffffffffffffffffffffffffffffffffe016810167ffffffffffffffff81118282101715611dec57611dec611d4d565b604052919050565b600067ffffffffffffffff821115611e0e57611e0e611d4d565b50601f017fffffffffffffffffffffffffffffffffffffffffffffffffffffffffffffffe01660200190565b600082601f830112611e4b57600080fd5b8135611e5e611e5982611df4565b611da5565b818152846020838601011115611e7357600080fd5b816020850160208301376000918101602001919091529392505050565b60008060008060008060808789031215611ea957600080fd5b863567ffffffffffffffff80821115611ec157600080fd5b611ecd8a838b01611ad4565b90985096506020890135915080821115611ee657600080fd5b611ef28a838b01611ad4565b909650945060408901359150611f0782611c12565b90925060608801359080821115611f1d57600080fd5b908801906020828b031215611f3157600080fd5b611f39611d7c565b823582811115611f4857600080fd5b611f548c828601611e3a565b8252508093505050509295509295509295565b600080600080600060808688031215611f7f57600080fd5b853567ffffffffffffffff80821115611f9757600080fd5b611fa389838a01611e3a565b96506020880135915080821115611fb957600080fd5b611fc589838a01611e3a565b9550604088013594506060880135915080821115611fe257600080fd5b50611fef88828901611ad4565b969995985093965092949392505050565b600181811c9082168061201457607f821691505b60208210810361204d577f4e487b7100000000000000000000000000000000000000000000000000000000600052602260045260246000fd5b50919050565b8183528181602085013750600060208284010152600060207fffffffffffffffffffffffffffffffffffffffffffffffffffffffffffffffe0601f840116840101905092915050565b6020815260006120b0602083018486612053565b949350505050565b6000602082840312156120ca57600080fd5b5051919050565b6040815260006120e5604083018688612053565b82810360208401526120f8818587612053565b979650505050505050565b60006020828403121561211557600080fd5b8135611a0a81611c12565b7f4e487b7100000000000000000000000000000000000000000000000000000000600052603260045260246000fd5b7f4e487b7100000000000000000000000000000000000000000000000000000000600052601160045260246000fd5b8181038181111561024e5761024e61214f565b60007fffffffffffffffffffffffffffffffffffffffffffffffffffffffffffffffff82036121c2576121c261214f565b5060010190565b7f4e487b7100000000000000000000000000000000000000000000000000000000600052603160045260246000fd5b8082018082111561024e5761024e61214f565b600082601f83011261221c57600080fd5b815161222a611e5982611df4565b81815284602083860101111561223f57600080fd5b6120b0826020830160208701611a53565b60006020828403121561226257600080fd5b815167ffffffffffffffff8082111561227a57600080fd5b908301906040828603121561228e57600080fd5b6040516040810181811083821117156122a9576122a9611d4d565b604052825181526020830151828111156122c257600080fd5b6122ce8782860161220b565b60208301525095945050505050565b6040815260006122f06040830185611a77565b82810360208401526123028185611a77565b95945050505050565b6000602080838503121561231e57600080fd5b825167ffffffffffffffff8082111561233657600080fd5b818501915085601f83011261234a57600080fd5b81518181111561235c5761235c611d4d565b8060051b61236b858201611da5565b918252838101850191858101908984111561238557600080fd5b86860192505b83831015612412578251858111156123a35760008081fd5b8601808b037fffffffffffffffffffffffffffffffffffffffffffffffffffffffffffffffe0018813156123d75760008081fd5b6123df611d7c565b88820151878111156123f15760008081fd5b6123ff8d8b8386010161220b565b825250835250918601919086019061238b565b9998505050505050505050565b60008251612431818460208701611a53565b919091019291505056fea2646970667358221220c212afae303354905895dcafc62189e79af86e29162a5ecc45372ab847c9051d64736f6c63430008110033",
    "linkReferences": {}
  },
  "methodIdentifiers": {
    "_roleManager()": "f4339a97",
    "_spaceManager()": "3820c2ad",
    "description()": "7284e416",
    "getUserRoles(string,string,address)": "82ceca42",
    "isEntitled(string,string,address,(string))": "bf77b663",
    "name()": "06fdde03",
    "removeEntitlement(string,string,uint256[],bytes)": "257f5ea9",
    "setEntitlement(string,string,uint256,bytes)": "c800fec4",
    "supportsInterface(bytes4)": "01ffc9a7"
  },
  "id": 36
}