{
  "abi": [
    {
      "inputs": [
        {
          "internalType": "string",
          "name": "name_",
          "type": "string"
        },
        {
          "internalType": "string",
          "name": "description_",
          "type": "string"
        },
        {
          "internalType": "string",
          "name": "moduleType_",
          "type": "string"
        },
        {
          "internalType": "address",
          "name": "spaceManager_",
          "type": "address"
        },
        {
          "internalType": "address",
          "name": "roleManager_",
          "type": "address"
        },
        {
          "internalType": "address",
          "name": "permissionRegistry_",
          "type": "address"
        }
      ],
      "stateMutability": "nonpayable",
      "type": "constructor"
    },
    {
      "inputs": [],
      "name": "InvalidParameters",
      "type": "error"
    },
    {
      "inputs": [],
      "name": "NotSpaceManager",
      "type": "error"
    },
    {
      "inputs": [],
      "name": "RoleAlreadyExists",
      "type": "error"
    },
    {
      "inputs": [],
      "name": "_permisionRegistry",
      "outputs": [
        {
          "internalType": "address",
          "name": "",
          "type": "address"
        }
      ],
      "stateMutability": "view",
      "type": "function"
    },
    {
      "inputs": [],
      "name": "_roleManager",
      "outputs": [
        {
          "internalType": "address",
          "name": "",
          "type": "address"
        }
      ],
      "stateMutability": "view",
      "type": "function"
    },
    {
      "inputs": [],
      "name": "_spaceManager",
      "outputs": [
        {
          "internalType": "address",
          "name": "",
          "type": "address"
        }
      ],
      "stateMutability": "view",
      "type": "function"
    },
    {
      "inputs": [
        {
          "internalType": "uint256",
          "name": "spaceId",
          "type": "uint256"
        },
        {
          "internalType": "uint256",
          "name": "channelId",
          "type": "uint256"
        },
        {
          "internalType": "uint256",
          "name": "roleId",
          "type": "uint256"
        }
      ],
      "name": "addRoleIdToChannel",
      "outputs": [],
      "stateMutability": "nonpayable",
      "type": "function"
    },
    {
      "inputs": [],
      "name": "description",
      "outputs": [
        {
          "internalType": "string",
          "name": "",
          "type": "string"
        }
      ],
      "stateMutability": "view",
      "type": "function"
    },
    {
      "inputs": [
        {
          "internalType": "uint256",
          "name": "spaceId",
          "type": "uint256"
        },
        {
          "internalType": "address",
          "name": "user",
          "type": "address"
        }
      ],
      "name": "getUserRoles",
      "outputs": [
        {
          "components": [
            {
              "internalType": "uint256",
              "name": "roleId",
              "type": "uint256"
            },
            {
              "internalType": "string",
              "name": "name",
              "type": "string"
            }
          ],
          "internalType": "struct DataTypes.Role[]",
          "name": "",
          "type": "tuple[]"
        }
      ],
      "stateMutability": "view",
      "type": "function"
    },
    {
      "inputs": [
        {
          "internalType": "uint256",
          "name": "spaceId",
          "type": "uint256"
        },
        {
          "internalType": "uint256",
          "name": "channelId",
          "type": "uint256"
        },
        {
          "internalType": "address",
          "name": "user",
          "type": "address"
        },
        {
          "components": [
            {
              "internalType": "string",
              "name": "name",
              "type": "string"
            }
          ],
          "internalType": "struct DataTypes.Permission",
          "name": "permission",
          "type": "tuple"
        }
      ],
      "name": "isEntitled",
      "outputs": [
        {
          "internalType": "bool",
          "name": "",
          "type": "bool"
        }
      ],
      "stateMutability": "view",
      "type": "function"
    },
    {
      "inputs": [],
      "name": "moduleType",
      "outputs": [
        {
          "internalType": "string",
          "name": "",
          "type": "string"
        }
      ],
      "stateMutability": "view",
      "type": "function"
    },
    {
      "inputs": [],
      "name": "name",
      "outputs": [
        {
          "internalType": "string",
          "name": "",
          "type": "string"
        }
      ],
      "stateMutability": "view",
      "type": "function"
    },
    {
      "inputs": [
        {
          "internalType": "uint256",
          "name": "spaceId",
          "type": "uint256"
        },
        {
          "internalType": "uint256",
          "name": "channelId",
          "type": "uint256"
        },
        {
          "internalType": "uint256",
          "name": "roleId",
          "type": "uint256"
        }
      ],
      "name": "removeRoleIdFromChannel",
      "outputs": [],
      "stateMutability": "nonpayable",
      "type": "function"
    },
    {
      "inputs": [
        {
          "internalType": "uint256",
          "name": "spaceId",
          "type": "uint256"
        },
        {
          "internalType": "uint256",
          "name": "roleId",
          "type": "uint256"
        },
        {
          "internalType": "bytes",
          "name": "entitlementData",
          "type": "bytes"
        }
      ],
      "name": "removeSpaceEntitlement",
      "outputs": [],
      "stateMutability": "nonpayable",
      "type": "function"
    },
    {
      "inputs": [
        {
          "internalType": "uint256",
          "name": "spaceId",
          "type": "uint256"
        },
        {
          "internalType": "uint256",
          "name": "roleId",
          "type": "uint256"
        },
        {
          "internalType": "bytes",
          "name": "entitlementData",
          "type": "bytes"
        }
      ],
      "name": "setSpaceEntitlement",
      "outputs": [],
      "stateMutability": "nonpayable",
      "type": "function"
    },
    {
      "inputs": [
        {
          "internalType": "bytes4",
          "name": "interfaceId",
          "type": "bytes4"
        }
      ],
      "name": "supportsInterface",
      "outputs": [
        {
          "internalType": "bool",
          "name": "",
          "type": "bool"
        }
      ],
      "stateMutability": "view",
      "type": "function"
    }
  ],
  "bytecode": {
    "object": "0x60e06040523480156200001157600080fd5b5060405162001d7438038062001d748339810160408190526200003491620001a7565b85858585858562000045836200009a565b6000620000538782620002fe565b506001620000628682620002fe565b506002620000718582620002fe565b506001600160a01b0392831660805290821660a0521660c05250620003ca975050505050505050565b6001600160a01b038116620000c257604051630e52390960e41b815260040160405180910390fd5b50565b634e487b7160e01b600052604160045260246000fd5b600082601f830112620000ed57600080fd5b81516001600160401b03808211156200010a576200010a620000c5565b604051601f8301601f19908116603f01168101908282118183101715620001355762000135620000c5565b816040528381526020925086838588010111156200015257600080fd5b600091505b8382101562000176578582018301518183018401529082019062000157565b600093810190920192909252949350505050565b80516001600160a01b0381168114620001a257600080fd5b919050565b60008060008060008060c08789031215620001c157600080fd5b86516001600160401b0380821115620001d957600080fd5b620001e78a838b01620000db565b97506020890151915080821115620001fe57600080fd5b6200020c8a838b01620000db565b965060408901519150808211156200022357600080fd5b506200023289828a01620000db565b94505062000243606088016200018a565b925062000253608088016200018a565b91506200026360a088016200018a565b90509295509295509295565b600181811c908216806200028457607f821691505b602082108103620002a557634e487b7160e01b600052602260045260246000fd5b50919050565b601f821115620002f957600081815260208120601f850160051c81016020861015620002d45750805b601f850160051c820191505b81811015620002f557828155600101620002e0565b5050505b505050565b81516001600160401b038111156200031a576200031a620000c5565b62000332816200032b84546200026f565b84620002ab565b602080601f8311600181146200036a5760008415620003515750858301515b600019600386901b1c1916600185901b178555620002f5565b600085815260208120601f198616915b828110156200039b578886015182559484019460019091019084016200037a565b5085821015620003ba5787850151600019600388901b60f8161c191681555b5050505050600190811b01905550565b60805160a05160c0516119506200042460003960006101900152600081816101ed01528181610e6901526111d5015260008181610116015281816102ff01528181610676015281816107aa01526108ad01526119506000f3fe608060405234801561001057600080fd5b50600436106100cf5760003560e01c80635acad43c1161008c578063662189991161006657806366218999146101cd5780637284e416146101e0578063f4339a97146101e8578063f725f2f61461020f57600080fd5b80635acad43c1461018b5780635c1b185d146101b25780636465e69f146101c557600080fd5b806301ffc9a7146100d457806306fdde03146100fc5780633820c2ad146101115780633d1dea8c1461015057806340a74b43146101655780634b0fd1a214610178575b600080fd5b6100e76100e23660046112f8565b61022f565b60405190151581526020015b60405180910390f35b610104610266565b6040516100f39190611372565b6101387f000000000000000000000000000000000000000000000000000000000000000081565b6040516001600160a01b0390911681526020016100f3565b61016361015e366004611385565b6102f4565b005b610163610173366004611405565b61066b565b610163610186366004611385565b61079f565b6101387f000000000000000000000000000000000000000000000000000000000000000081565b6101636101c0366004611405565b6108a2565b610104610a18565b6100e76101db3660046114e1565b610a25565b610104610e34565b6101387f000000000000000000000000000000000000000000000000000000000000000081565b61022261021d3660046115ba565b610e41565b6040516100f391906115ea565b60006001600160e01b0319821663ebb6cfd560e01b148061026057506301ffc9a760e01b6001600160e01b03198316145b92915050565b600080546102739061165e565b80601f016020809104026020016040519081016040528092919081815260200182805461029f9061165e565b80156102ec5780601f106102c1576101008083540402835291602001916102ec565b820191906000526020600020905b8154815290600101906020018083116102cf57829003601f168201915b505050505081565b336001600160a01b037f0000000000000000000000000000000000000000000000000000000000000000161461033d576040516312cb521760e11b815260040160405180910390fd5b600061034b82840184611698565b60008681526003602090815260408083206001600160a01b03851684529091528120549192505b818110156104f35760008781526003602090815260408083206001600160a01b038716845290915290208054879190839081106103b1576103b16116b5565b906000526020600020906003020160020154036104e15760008781526003602090815260408083206001600160a01b038716845290915290206103f56001846116e1565b81548110610405576104056116b5565b600091825260208083208a8452600380835260408086206001600160a01b038a168752909352919093208054919092029092019183908110610449576104496116b5565b600091825260208083208454600393840290910180546001600160a01b0319166001600160a01b03928316178155600180870154908201556002958601549501949094558a835290815260408083209387168352929052208054806104b0576104b06116f4565b60008281526020812060036000199093019283020180546001600160a01b0319168155600181018290556002015590555b806104eb8161170a565b915050610372565b506000868152600460209081526040808320888452909152812054905b818110156106615760008881526004602090815260408083208a8452909152902080546001600160a01b03861691908390811061054f5761054f6116b5565b6000918252602090912001546001600160a01b03160361064f5760008881526004602090815260408083208a8452909152902061058d6001846116e1565b8154811061059d5761059d6116b5565b60009182526020808320909101548a83526004825260408084208b8552909252912080546001600160a01b0390921691839081106105dd576105dd6116b5565b600091825260208083209190910180546001600160a01b0319166001600160a01b0394909416939093179092558981526004825260408082208a83529092522080548061062c5761062c6116f4565b600082815260209020810160001990810180546001600160a01b03191690550190555b806106598161170a565b915050610510565b5050505050505050565b336001600160a01b037f000000000000000000000000000000000000000000000000000000000000000016146106b4576040516312cb521760e11b815260040160405180910390fd5b600083815260056020908152604080832085845282528083208054825181850281018501909352808352919290919083018282801561071257602002820191906000526020600020905b8154815260200190600101908083116106fe575b5050505050905060005b81518110156107705782828281518110610738576107386116b5565b60200260200101510361075e57604051636014eda760e11b815260040160405180910390fd5b806107688161170a565b91505061071c565b505060009283526005602090815260408085209385529281529183208054600181018255908452919092200155565b336001600160a01b037f000000000000000000000000000000000000000000000000000000000000000016146107e8576040516312cb521760e11b815260040160405180910390fd5b60006107f682840184611698565b600086815260046020908152604080832088845282528083208054600180820183559185528385200180546001600160a01b03199081166001600160a01b039788169081179092559a8552600380855283862082875285528386208451606081018652928352428387019081529483019b8c5280548085018255908752949095209051939094029093018054909916919093161787559051908601555050905160029092019190915550565b336001600160a01b037f000000000000000000000000000000000000000000000000000000000000000016146108eb576040516312cb521760e11b815260040160405180910390fd5b6000838152600560209081526040808320858452909152812054905b81811015610a11576000858152600560209081526040808320878452909152902080548491908390811061093d5761093d6116b5565b9060005260206000200154036109ff57600085815260056020908152604080832087845290915290206109716001846116e1565b81548110610981576109816116b5565b600091825260208083209091015487835260058252604080842088855290925291208054839081106109b5576109b56116b5565b6000918252602080832090910192909255868152600582526040808220878352909252208054806109e8576109e86116f4565b600190038181906000526020600020016000905590555b80610a098161170a565b915050610907565b5050505050565b600280546102739061165e565b60008315610c98576000858152600560209081526040808320878452825280832080548251818502810185019093528083529192909190830182828015610a8b57602002820191906000526020600020905b815481526020019060010190808311610a77575b5050505050905060005b8151811015610c91576000828281518110610ab257610ab26116b5565b60209081029190910181015160008a81526003835260408082206001600160a01b038b168352845280822080548251818702810187019093528083529395509193909290849084015b82821015610b50576000848152602090819020604080516060810182526003860290920180546001600160a01b0316835260018082015484860152600290910154918301919091529083529092019101610afb565b50505060008b81526003602090815260408083206001845282528083208054825181850281018501909352808352959650929490935090849084015b82821015610be1576000848152602090819020604080516060810182526003860290920180546001600160a01b0316835260018082015484860152600290910154918301919091529083529092019101610b8c565b5050505090506000610bf38284611063565b805190915015610c7a5760005b8151811015610c785784828281518110610c1c57610c1c6116b5565b60200260200101516040015103610c6657610c518c838381518110610c4357610c436116b5565b60200260200101518b6111ad565b15610c66576001975050505050505050610e2c565b80610c708161170a565b915050610c00565b505b505050508080610c899061170a565b915050610a95565b5050610e28565b600085815260036020908152604080832060018452825280832080548251818502810185019093528083529192909190849084015b82821015610d22576000848152602090819020604080516060810182526003860290920180546001600160a01b0316835260018082015484860152600290910154918301919091529083529092019101610ccd565b50505060008881526003602090815260408083206001600160a01b038a16845282528083208054825181850281018501909352808352959650929490935090849084015b82821015610dbb576000848152602090819020604080516060810182526003860290920180546001600160a01b0316835260018082015484860152600290910154918301919091529083529092019101610d66565b5050505090506000610dcd8383611063565b905060005b8151811015610e2357610dff89838381518110610df157610df16116b5565b6020026020010151886111ad565b15610e11576001945050505050610e2c565b80610e1b8161170a565b915050610dd2565b505050505b5060005b949350505050565b600180546102739061165e565b60008281526003602090815260408083206001600160a01b03851684529091528120546060917f00000000000000000000000000000000000000000000000000000000000000009167ffffffffffffffff811115610ea157610ea1611449565b604051908082528060200260200182016040528015610ee757816020015b604080518082019091526000815260606020820152815260200190600190039081610ebf5790505b5060008681526003602090815260408083206001600160a01b0389168452825280832080548251818502810185019093528083529495509293909291849084015b82821015610f7d576000848152602090819020604080516060810182526003860290920180546001600160a01b0316835260018082015484860152600290910154918301919091529083529092019101610f28565b50505050905060005b815181101561105857836001600160a01b031663d9af4ecf88848481518110610fb157610fb16116b5565b6020026020010151604001516040518363ffffffff1660e01b8152600401610fe3929190918252602082015260400190565b600060405180830381865afa158015611000573d6000803e3d6000fd5b505050506040513d6000823e601f3d908101601f191682016040526110289190810190611768565b83828151811061103a5761103a6116b5565b602002602001018190525080806110509061170a565b915050610f86565b509095945050505050565b606060008251845161107591906117f5565b67ffffffffffffffff81111561108d5761108d611449565b6040519080825280602002602001820160405280156110eb57816020015b6110d8604051806060016040528060006001600160a01b0316815260200160008152602001600081525090565b8152602001906001900390816110ab5790505b50905060005b84518110156111445784818151811061110c5761110c6116b5565b6020026020010151828281518110611126576111266116b5565b6020026020010181905250808061113c9061170a565b9150506110f1565b60005b84518110156111a357848161115b8161170a565b92508151811061116d5761116d6116b5565b60200260200101518383806111819061170a565b945081518110611193576111936116b5565b6020026020010181905250611147565b5090949350505050565b60408281015190516329f4c97f60e21b815260048101859052602481018290526000919082907f00000000000000000000000000000000000000000000000000000000000000006001600160a01b03169063a7d325fc90604401600060405180830381865afa158015611224573d6000803e3d6000fd5b505050506040513d6000823e601f3d908101601f1916820160405261124c9190810190611808565b905060005b81518110156112e957845160405161126c91906020016118fe565b60405160208183030381529060405280519060200120828281518110611294576112946116b5565b6020026020010151600001516040516020016112b091906118fe565b60405160208183030381529060405280519060200120036112d757600193505050506112f1565b806112e18161170a565b915050611251565b506000925050505b9392505050565b60006020828403121561130a57600080fd5b81356001600160e01b0319811681146112f157600080fd5b60005b8381101561133d578181015183820152602001611325565b50506000910152565b6000815180845261135e816020860160208601611322565b601f01601f19169290920160200192915050565b6020815260006112f16020830184611346565b6000806000806060858703121561139b57600080fd5b8435935060208501359250604085013567ffffffffffffffff808211156113c157600080fd5b818701915087601f8301126113d557600080fd5b8135818111156113e457600080fd5b8860208285010111156113f657600080fd5b95989497505060200194505050565b60008060006060848603121561141a57600080fd5b505081359360208301359350604090920135919050565b6001600160a01b038116811461144657600080fd5b50565b634e487b7160e01b600052604160045260246000fd5b6040516020810167ffffffffffffffff8111828210171561148257611482611449565b60405290565b604051601f8201601f1916810167ffffffffffffffff811182821017156114b1576114b1611449565b604052919050565b600067ffffffffffffffff8211156114d3576114d3611449565b50601f01601f191660200190565b600080600080608085870312156114f757600080fd5b843593506020808601359350604086013561151181611431565b9250606086013567ffffffffffffffff8082111561152e57600080fd5b818801915082828a03121561154257600080fd5b61154a61145f565b82358281111561155957600080fd5b80840193505089601f84011261156e57600080fd5b8235915061158361157e836114b9565b611488565b8281528a8584860101111561159757600080fd5b828585018683013760009281019094019190915291825250939692955090935050565b600080604083850312156115cd57600080fd5b8235915060208301356115df81611431565b809150509250929050565b60006020808301818452808551808352604092508286019150828160051b87010184880160005b8381101561165057888303603f1901855281518051845287015187840187905261163d87850182611346565b9588019593505090860190600101611611565b509098975050505050505050565b600181811c9082168061167257607f821691505b60208210810361169257634e487b7160e01b600052602260045260246000fd5b50919050565b6000602082840312156116aa57600080fd5b81356112f181611431565b634e487b7160e01b600052603260045260246000fd5b634e487b7160e01b600052601160045260246000fd5b81810381811115610260576102606116cb565b634e487b7160e01b600052603160045260246000fd5b60006001820161171c5761171c6116cb565b5060010190565b600082601f83011261173457600080fd5b815161174261157e826114b9565b81815284602083860101111561175757600080fd5b610e2c826020830160208701611322565b60006020828403121561177a57600080fd5b815167ffffffffffffffff8082111561179257600080fd5b90830190604082860312156117a657600080fd5b6040516040810181811083821117156117c1576117c1611449565b604052825181526020830151828111156117da57600080fd5b6117e687828601611723565b60208301525095945050505050565b80820180821115610260576102606116cb565b6000602080838503121561181b57600080fd5b825167ffffffffffffffff8082111561183357600080fd5b818501915085601f83011261184757600080fd5b81518181111561185957611859611449565b8060051b611868858201611488565b918252838101850191858101908984111561188257600080fd5b86860192505b838310156118f1578251858111156118a05760008081fd5b8601808b03601f19018813156118b65760008081fd5b6118be61145f565b88820151878111156118d05760008081fd5b6118de8d8b83860101611723565b8252508352509186019190860190611888565b9998505050505050505050565b60008251611910818460208701611322565b919091019291505056fea264697066735822122067d25020f91614548440a7d35ed24694aeb0ac894a864669af7308e0f0b339f264736f6c63430008110033",
    "linkReferences": {}
  },
  "methodIdentifiers": {
    "_permisionRegistry()": "5acad43c",
    "_roleManager()": "f4339a97",
    "_spaceManager()": "3820c2ad",
    "addRoleIdToChannel(uint256,uint256,uint256)": "40a74b43",
    "description()": "7284e416",
    "getUserRoles(uint256,address)": "f725f2f6",
    "isEntitled(uint256,uint256,address,(string))": "66218999",
    "moduleType()": "6465e69f",
    "name()": "06fdde03",
    "removeRoleIdFromChannel(uint256,uint256,uint256)": "5c1b185d",
    "removeSpaceEntitlement(uint256,uint256,bytes)": "3d1dea8c",
    "setSpaceEntitlement(uint256,uint256,bytes)": "4b0fd1a2",
    "supportsInterface(bytes4)": "01ffc9a7"
  },
  "id": 41
}