{
  "abi": [
    {
      "inputs": [],
      "name": "AddressNotFound",
      "type": "error"
    },
    {
      "inputs": [],
      "name": "EntitlementNotFound",
      "type": "error"
    },
    {
      "inputs": [],
      "name": "NotAllowed",
      "type": "error"
    },
    {
      "inputs": [],
      "name": "RoleAlreadyExists",
      "type": "error"
    },
    {
      "anonymous": false,
      "inputs": [
        {
          "indexed": false,
          "internalType": "address",
          "name": "previousAdmin",
          "type": "address"
        },
        {
          "indexed": false,
          "internalType": "address",
          "name": "newAdmin",
          "type": "address"
        }
      ],
      "name": "AdminChanged",
      "type": "event"
    },
    {
      "anonymous": false,
      "inputs": [
        {
          "indexed": true,
          "internalType": "address",
          "name": "beacon",
          "type": "address"
        }
      ],
      "name": "BeaconUpgraded",
      "type": "event"
    },
    {
      "anonymous": false,
      "inputs": [
        {
          "indexed": false,
          "internalType": "uint8",
          "name": "version",
          "type": "uint8"
        }
      ],
      "name": "Initialized",
      "type": "event"
    },
    {
      "anonymous": false,
      "inputs": [
        {
          "indexed": true,
          "internalType": "address",
          "name": "implementation",
          "type": "address"
        }
      ],
      "name": "Upgraded",
      "type": "event"
    },
    {
      "inputs": [],
      "name": "SPACE_ADDRESS",
      "outputs": [
        {
          "internalType": "address",
          "name": "",
          "type": "address"
        }
      ],
      "stateMutability": "view",
      "type": "function"
    },
    {
      "inputs": [],
      "name": "TOKEN_ADDRESS",
      "outputs": [
        {
          "internalType": "address",
          "name": "",
          "type": "address"
        }
      ],
      "stateMutability": "view",
      "type": "function"
    },
    {
      "inputs": [],
      "name": "TOKEN_ID",
      "outputs": [
        {
          "internalType": "uint256",
          "name": "",
          "type": "uint256"
        }
      ],
      "stateMutability": "view",
      "type": "function"
    },
    {
      "inputs": [
        {
          "internalType": "string",
          "name": "channelId",
          "type": "string"
        },
        {
          "internalType": "uint256",
          "name": "roleId",
          "type": "uint256"
        }
      ],
      "name": "addRoleIdToChannel",
      "outputs": [],
      "stateMutability": "nonpayable",
      "type": "function"
    },
    {
      "inputs": [],
      "name": "description",
      "outputs": [
        {
          "internalType": "string",
          "name": "",
          "type": "string"
        }
      ],
      "stateMutability": "view",
      "type": "function"
    },
    {
      "inputs": [
        {
          "internalType": "uint256",
          "name": "",
          "type": "uint256"
        },
        {
          "internalType": "uint256",
          "name": "",
          "type": "uint256"
        }
      ],
      "name": "entitlementIdsByRoleId",
      "outputs": [
        {
          "internalType": "bytes32",
          "name": "",
          "type": "bytes32"
        }
      ],
      "stateMutability": "view",
      "type": "function"
    },
    {
      "inputs": [
        {
          "internalType": "bytes32",
          "name": "",
          "type": "bytes32"
        }
      ],
      "name": "entitlementsById",
      "outputs": [
        {
          "internalType": "uint256",
          "name": "roleId",
          "type": "uint256"
        },
        {
          "internalType": "address",
          "name": "grantedBy",
          "type": "address"
        },
        {
          "internalType": "uint256",
          "name": "grantedTime",
          "type": "uint256"
        }
      ],
      "stateMutability": "view",
      "type": "function"
    },
    {
      "inputs": [
        {
          "internalType": "uint256",
          "name": "roleId",
          "type": "uint256"
        }
      ],
      "name": "getEntitlementDataByRoleId",
      "outputs": [
        {
          "internalType": "bytes[]",
          "name": "",
          "type": "bytes[]"
        }
      ],
      "stateMutability": "view",
      "type": "function"
    },
    {
      "inputs": [
        {
          "internalType": "address",
          "name": "user",
          "type": "address"
        }
      ],
      "name": "getUserRoles",
      "outputs": [
        {
          "components": [
            {
              "internalType": "uint256",
              "name": "roleId",
              "type": "uint256"
            },
            {
              "internalType": "string",
              "name": "name",
              "type": "string"
            }
          ],
          "internalType": "struct DataTypes.Role[]",
          "name": "",
          "type": "tuple[]"
        }
      ],
      "stateMutability": "view",
      "type": "function"
    },
    {
      "inputs": [
        {
          "internalType": "address",
          "name": "_tokenAddress",
          "type": "address"
        },
        {
          "internalType": "uint256",
          "name": "_tokenId",
          "type": "uint256"
        }
      ],
      "name": "initialize",
      "outputs": [],
      "stateMutability": "nonpayable",
      "type": "function"
    },
    {
      "inputs": [
        {
          "internalType": "string",
          "name": "channelId",
          "type": "string"
        },
        {
          "internalType": "address",
          "name": "user",
          "type": "address"
        },
        {
          "internalType": "bytes32",
          "name": "permission",
          "type": "bytes32"
        }
      ],
      "name": "isEntitled",
      "outputs": [
        {
          "internalType": "bool",
          "name": "",
          "type": "bool"
        }
      ],
      "stateMutability": "view",
      "type": "function"
    },
    {
      "inputs": [],
      "name": "moduleType",
      "outputs": [
        {
          "internalType": "string",
          "name": "",
          "type": "string"
        }
      ],
      "stateMutability": "view",
      "type": "function"
    },
    {
      "inputs": [],
      "name": "name",
      "outputs": [
        {
          "internalType": "string",
          "name": "",
          "type": "string"
        }
      ],
      "stateMutability": "view",
      "type": "function"
    },
    {
      "inputs": [],
      "name": "proxiableUUID",
      "outputs": [
        {
          "internalType": "bytes32",
          "name": "",
          "type": "bytes32"
        }
      ],
      "stateMutability": "view",
      "type": "function"
    },
    {
      "inputs": [
        {
          "internalType": "uint256",
          "name": "roleId",
          "type": "uint256"
        },
        {
          "internalType": "bytes",
          "name": "entitlementData",
          "type": "bytes"
        }
      ],
      "name": "removeEntitlement",
      "outputs": [
        {
          "internalType": "bytes32",
          "name": "entitlementId",
          "type": "bytes32"
        }
      ],
      "stateMutability": "nonpayable",
      "type": "function"
    },
    {
      "inputs": [
        {
          "internalType": "string",
          "name": "channelId",
          "type": "string"
        },
        {
          "internalType": "uint256",
          "name": "roleId",
          "type": "uint256"
        }
      ],
      "name": "removeRoleIdFromChannel",
      "outputs": [],
      "stateMutability": "nonpayable",
      "type": "function"
    },
    {
      "inputs": [
        {
          "internalType": "bytes32",
          "name": "",
          "type": "bytes32"
        },
        {
          "internalType": "uint256",
          "name": "",
          "type": "uint256"
        }
      ],
      "name": "roleIdsByChannelId",
      "outputs": [
        {
          "internalType": "uint256",
          "name": "",
          "type": "uint256"
        }
      ],
      "stateMutability": "view",
      "type": "function"
    },
    {
      "inputs": [
        {
          "internalType": "uint256",
          "name": "roleId",
          "type": "uint256"
        },
        {
          "internalType": "bytes",
          "name": "entitlementData",
          "type": "bytes"
        }
      ],
      "name": "setEntitlement",
      "outputs": [
        {
          "internalType": "bytes32",
          "name": "entitlementId",
          "type": "bytes32"
        }
      ],
      "stateMutability": "nonpayable",
      "type": "function"
    },
    {
      "inputs": [
        {
          "internalType": "address",
          "name": "_space",
          "type": "address"
        }
      ],
      "name": "setSpace",
      "outputs": [],
      "stateMutability": "nonpayable",
      "type": "function"
    },
    {
      "inputs": [
        {
          "internalType": "bytes4",
          "name": "interfaceId",
          "type": "bytes4"
        }
      ],
      "name": "supportsInterface",
      "outputs": [
        {
          "internalType": "bool",
          "name": "",
          "type": "bool"
        }
      ],
      "stateMutability": "view",
      "type": "function"
    },
    {
      "inputs": [
        {
          "internalType": "address",
          "name": "newImplementation",
          "type": "address"
        }
      ],
      "name": "upgradeTo",
      "outputs": [],
      "stateMutability": "nonpayable",
      "type": "function"
    },
    {
      "inputs": [
        {
          "internalType": "address",
          "name": "newImplementation",
          "type": "address"
        },
        {
          "internalType": "bytes",
          "name": "data",
          "type": "bytes"
        }
      ],
      "name": "upgradeToAndCall",
      "outputs": [],
      "stateMutability": "payable",
      "type": "function"
    }
  ],
  "bytecode": {
    "object": "0x60a06040523060805234801561001457600080fd5b5060805161287661004c600039600081816109db01528181610a2401528181610ac301528181610b030152610b9601526128766000f3fe6080604052600436106101345760003560e01c806352d1902d116100ab578063c513be771161006f578063c513be77146103d3578063cd6dc687146103f3578063d3b2cfbf14610413578063ef8be5741461047b578063f32f83ce1461049b578063fa6d1adf146104bb57600080fd5b806352d1902d1461030c5780636465e69f146103215780637284e4161461035c57806389a890021461039d57806397d038d1146103b357600080fd5b806306fdde03116100fd57806306fdde031461020b5780630bdf5300146102545780631eee07b21461028c57806334322eff146102b95780633659cfe6146102d95780634f1ef286146102f957600080fd5b8062b4eaa81461013957806301ffc9a71461016e57806303b405341461018e578063053acb40146101b057806306a36aee146101de575b600080fd5b34801561014557600080fd5b50610159610154366004611fd8565b6104db565b60405190151581526020015b60405180910390f35b34801561017a57600080fd5b50610159610189366004612034565b61052f565b34801561019a57600080fd5b506101ae6101a936600461205e565b610566565b005b3480156101bc57600080fd5b506101d06101cb36600461207b565b610625565b604051908152602001610165565b3480156101ea57600080fd5b506101fe6101f936600461205e565b610656565b60405161016591906120ed565b34801561021757600080fd5b506102476040518060400160405280601081526020016f155cd95c88115b9d1a5d1b195b595b9d60821b81525081565b6040516101659190612161565b34801561026057600080fd5b5060ca54610274906001600160a01b031681565b6040516001600160a01b039091168152602001610165565b34801561029857600080fd5b506102ac6102a7366004612174565b61089a565b604051610165919061218d565b3480156102c557600080fd5b5060c954610274906001600160a01b031681565b3480156102e557600080fd5b506101ae6102f436600461205e565b6109d1565b6101ae61030736600461225c565b610ab9565b34801561031857600080fd5b506101d0610b89565b34801561032d57600080fd5b506102476040518060400160405280600f81526020016e155cd95c915b9d1a5d1b195b595b9d608a1b81525081565b34801561036857600080fd5b5061024760405180604001604052806015815260200174456e7469746c656d656e7420666f7220757365727360581b81525081565b3480156103a957600080fd5b506101d060cb5481565b3480156103bf57600080fd5b506101d06103ce36600461207b565b610c3c565b3480156103df57600080fd5b506101ae6103ee3660046122ee565b610c58565b3480156103ff57600080fd5b506101ae61040e366004612339565b610d8d565b34801561041f57600080fd5b5061045861042e366004612174565b60cc6020526000908152604090208054600182015460029092015490916001600160a01b03169083565b604080519384526001600160a01b03909216602084015290820152606001610165565b34801561048757600080fd5b506101d0610496366004612365565b610ed0565b3480156104a757600080fd5b506101ae6104b63660046122ee565b6110b7565b3480156104c757600080fd5b506101d06104d6366004612365565b6111e6565b6000831561051d5761051685856040516020016104f99291906123b0565b6040516020818303038152906040528051906020012084846113ee565b9050610527565b6105168383611532565b949350505050565b60006001600160e01b0319821663e5e65adf60e01b148061056057506301ffc9a760e01b6001600160e01b03198316145b92915050565b3360ca5460cb546040516331a9108f60e11b815260048101919091526001600160a01b039283169290911690636352211e90602401602060405180830381865afa1580156105b8573d6000803e3d6000fd5b505050506040513d601f19601f820116820180604052508101906105dc91906123c0565b6001600160a01b03161461060357604051631eb49d6d60e11b815260040160405180910390fd5b60c980546001600160a01b0319166001600160a01b0392909216919091179055565b60cd602052816000526040600020818154811061064157600080fd5b90600052602060002001600091509150505481565b6001600160a01b038116600090815260cf602090815260408083208054825181850281018501909352808352606094938301828280156106b557602002820191906000526020600020905b8154815260200190600101908083116106a1575b50505050509050600081516001600160401b038111156106d7576106d76121ef565b60405190808252806020026020018201604052801561071d57816020015b6040805180820190915260008152606060208201528152602001906001900390816106f55790505b50905060005b825181101561089257600060cc6000858481518110610744576107446123dd565b602090810291909101810151825281810192909252604090810160002081516080810183528154815260018201546001600160a01b0316818501526002820154818401526003820180548451818702810187019095528085529194929360608601939092908301828280156107e257602002820191906000526020600020905b81546001600160a01b031681526001909101906020018083116107c4575b50505091909252505060c954825160405163784c872b60e01b815260048101919091529293506001600160a01b03169163784c872b9150602401600060405180830381865afa158015610839573d6000803e3d6000fd5b505050506040513d6000823e601f3d908101601f191682016040526108619190810190612438565b838381518110610873576108736123dd565b602002602001018190525050808061088a906124da565b915050610723565b509392505050565b600081815260ce602090815260408083208054825181850281018501909352808352606094938301828280156108ef57602002820191906000526020600020905b8154815260200190600101908083116108db575b50505050509050600081516001600160401b03811115610911576109116121ef565b60405190808252806020026020018201604052801561094457816020015b606081526020019060019003908161092f5790505b50905060005b82518110156108925760cc6000848381518110610969576109696123dd565b6020026020010151815260200190815260200160002060030160405160200161099291906124f3565b6040516020818303038152906040528282815181106109b3576109b36123dd565b602002602001018190525080806109c9906124da565b91505061094a565b6001600160a01b037f0000000000000000000000000000000000000000000000000000000000000000163003610a225760405162461bcd60e51b8152600401610a1990612543565b60405180910390fd5b7f00000000000000000000000000000000000000000000000000000000000000006001600160a01b0316610a6b6000805160206127fa833981519152546001600160a01b031690565b6001600160a01b031614610a915760405162461bcd60e51b8152600401610a199061258f565b610a9a816115c0565b60408051600080825260208201909252610ab6918391906115f4565b50565b6001600160a01b037f0000000000000000000000000000000000000000000000000000000000000000163003610b015760405162461bcd60e51b8152600401610a1990612543565b7f00000000000000000000000000000000000000000000000000000000000000006001600160a01b0316610b4a6000805160206127fa833981519152546001600160a01b031690565b6001600160a01b031614610b705760405162461bcd60e51b8152600401610a199061258f565b610b79826115c0565b610b85828260016115f4565b5050565b6000306001600160a01b037f00000000000000000000000000000000000000000000000000000000000000001614610c295760405162461bcd60e51b815260206004820152603860248201527f555550535570677261646561626c653a206d757374206e6f742062652063616c60448201527f6c6564207468726f7567682064656c656761746563616c6c00000000000000006064820152608401610a19565b506000805160206127fa83398151915290565b60ce602052816000526040600020818154811061064157600080fd5b60c9546001600160a01b0316336001600160a01b031614610c8c57604051631eb49d6d60e11b815260040160405180910390fd5b60008383604051602001610ca19291906123b0565b60408051601f198184030181528282528051602091820120600081815260cd835283812080548085028701850190955284865291955093929091830182828015610d0a57602002820191906000526020600020905b815481526020019060010190808311610cf6575b5050505050905060005b8151811015610d685783828281518110610d3057610d306123dd565b602002602001015103610d5657604051636014eda760e11b815260040160405180910390fd5b80610d60816124da565b915050610d14565b5050600090815260cd6020908152604082208054600181018255908352912001555050565b600054610100900460ff1615808015610dad5750600054600160ff909116105b80610dc75750303b158015610dc7575060005460ff166001145b610e2a5760405162461bcd60e51b815260206004820152602e60248201527f496e697469616c697a61626c653a20636f6e747261637420697320616c72656160448201526d191e481a5b9a5d1a585b1a5e995960921b6064820152608401610a19565b6000805460ff191660011790558015610e4d576000805461ff0019166101001790555b610e5561175f565b610e5d61175f565b610e6561175f565b60ca80546001600160a01b0319166001600160a01b03851617905560cb8290558015610ecb576000805461ff0019169055604051600181527f7f26b83ff96e1f2b6a682f133852f6798a09c465da95921460cefb38474024989060200160405180910390a15b505050565b60c9546000906001600160a01b0316336001600160a01b031614610f0757604051631eb49d6d60e11b815260040160405180910390fd5b838383604051602001610f1c939291906125db565b60408051601f19818403018152919052805160209091012090506000610f4483850185612618565b90508051600003610f6857604051633d9e48f360e21b815260040160405180910390fd5b60005b8151811015611001576000828281518110610f8857610f886123dd565b6020026020010151905060006001600160a01b0316816001600160a01b031603610fc557604051636054b46960e01b815260040160405180910390fd5b6001600160a01b0316600090815260cf602090815260408220805460018101825590835291200183905580610ff9816124da565b915050610f6b565b50604051806080016040528086815260200161101a3390565b6001600160a01b039081168252426020808401919091526040928301859052600086815260cc825283902084518155848201516001820180546001600160a01b031916919094161790925591830151600282015560608301518051919261108992600385019290910190611ee7565b50505060009485525060ce602090815260408520805460018101825590865294209093018390555090919050565b60c9546001600160a01b0316336001600160a01b0316146110eb57604051631eb49d6d60e11b815260040160405180910390fd5b600083836040516020016111009291906123b0565b60408051601f198184030181529181528151602092830120600081815260cd909352908220909250905b81548110156111de5783828281548110611146576111466123dd565b9060005260206000200154036111cc5781548290611166906001906126b1565b81548110611176576111766123dd565b9060005260206000200154828281548110611193576111936123dd565b9060005260206000200181905550818054806111b1576111b16126c4565b600190038181906000526020600020016000905590556111de565b806111d6816124da565b91505061112a565b505050505050565b60c9546000906001600160a01b0316336001600160a01b03161461121d57604051631eb49d6d60e11b815260040160405180910390fd5b838383604051602001611232939291906125db565b60408051601f198184030181528282528051602091820120600081815260cc83528381206080860185528054865260018101546001600160a01b03168685015260028101548686015260038101805486518187028101870190975280875293975091959490936060860193919291908301828280156112da57602002820191906000526020600020905b81546001600160a01b031681526001909101906020018083116112bc575b5050505050815250509050806060015151600014806112f857508051155b1561131657604051633d9e48f360e21b815260040160405180910390fd5b8051600090815260ce6020526040902061133081846117cc565b60005b8260600151518110156113aa57600083606001518281518110611358576113586123dd565b60200260200101519050600060cf6000836001600160a01b03166001600160a01b03168152602001908152602001600020905061139581876117cc565b505080806113a2906124da565b915050611333565b50600083815260cc602052604081208181556001810180546001600160a01b031916905560028101829055906113e36003830182611f4c565b505050509392505050565b600083815260cd602090815260408083208054825181850281018501909352808352849383018282801561144157602002820191906000526020600020905b81548152602001906001019080831161142d575b5050505050905060006114546001611883565b9050600061146186611883565b9050600061146f8383611a65565b905060005b8451811015611526576000858281518110611491576114916123dd565b6020026020010151905060005b835181101561151157818482815181106114ba576114ba6123dd565b6020026020010151600001511480156114f557506114f58482815181106114e3576114e36123dd565b6020026020010151600001518a611bb5565b156114ff57600197505b80611509816124da565b91505061149e565b5050808061151e906124da565b915050611474565b50505050509392505050565b60008061153f6001611883565b9050600061154c85611883565b9050600061155a8383611a65565b905060005b81518110156115b35761158f82828151811061157d5761157d6123dd565b60200260200101516000015187611bb5565b156115a1576001945050505050610560565b806115ab816124da565b91505061155f565b5060009695505050505050565b60c9546001600160a01b0316336001600160a01b031614610ab657604051631eb49d6d60e11b815260040160405180910390fd5b7f4910fdfa16fed3260ed0e7147f7cc6da11a60208b5b9406d12a635614ffd91435460ff161561162757610ecb83611ca2565b826001600160a01b03166352d1902d6040518163ffffffff1660e01b8152600401602060405180830381865afa925050508015611681575060408051601f3d908101601f1916820190925261167e918101906126da565b60015b6116e45760405162461bcd60e51b815260206004820152602e60248201527f45524331393637557067726164653a206e657720696d706c656d656e7461746960448201526d6f6e206973206e6f74205555505360901b6064820152608401610a19565b6000805160206127fa83398151915281146117535760405162461bcd60e51b815260206004820152602960248201527f45524331393637557067726164653a20756e737570706f727465642070726f786044820152681a58589b195555525160ba1b6064820152608401610a19565b50610ecb838383611d3e565b600054610100900460ff166117ca5760405162461bcd60e51b815260206004820152602b60248201527f496e697469616c697a61626c653a20636f6e7472616374206973206e6f74206960448201526a6e697469616c697a696e6760a81b6064820152608401610a19565b565b60005b8254811015610ecb57818382815481106117eb576117eb6123dd565b906000526020600020015403611871578254839061180b906001906126b1565b8154811061181b5761181b6123dd565b9060005260206000200154838281548110611838576118386123dd565b906000526020600020018190555082805480611856576118566126c4565b60019003818190600052602060002001600090559055505050565b8061187b816124da565b9150506117cf565b6001600160a01b038116600090815260cf602090815260408083208054825181850281018501909352808352606094938301828280156118e257602002820191906000526020600020905b8154815260200190600101908083116118ce575b50505050509050600081516001600160401b03811115611904576119046121ef565b60405190808252806020026020018201604052801561196957816020015b61195660405180608001604052806000815260200160006001600160a01b0316815260200160008152602001606081525090565b8152602001906001900390816119225790505b50905060005b82518110156108925760cc600084838151811061198e5761198e6123dd565b602090810291909101810151825281810192909252604090810160002081516080810183528154815260018201546001600160a01b031681850152600282015481840152600382018054845181870281018701909552808552919492936060860193909290830182828015611a2c57602002820191906000526020600020905b81546001600160a01b03168152600190910190602001808311611a0e575b505050505081525050828281518110611a4757611a476123dd565b60200260200101819052508080611a5d906124da565b91505061196f565b6060600082518451611a7791906126f3565b6001600160401b03811115611a8e57611a8e6121ef565b604051908082528060200260200182016040528015611af357816020015b611ae060405180608001604052806000815260200160006001600160a01b0316815260200160008152602001606081525090565b815260200190600190039081611aac5790505b50905060005b8451811015611b4c57848181518110611b1457611b146123dd565b6020026020010151828281518110611b2e57611b2e6123dd565b60200260200101819052508080611b44906124da565b915050611af9565b60005b8451811015611bab578481611b63816124da565b925081518110611b7557611b756123dd565b6020026020010151838380611b89906124da565b945081518110611b9b57611b9b6123dd565b6020026020010181905250611b4f565b5090949350505050565b60c95460405163b426423360e01b8152600481018490526000916001600160a01b0316908290829063b426423390602401600060405180830381865afa158015611c03573d6000803e3d6000fd5b505050506040513d6000823e601f3d908101601f19168201604052611c2b9190810190612706565b805190915060005b818110156115b35785838281518110611c4e57611c4e6123dd565b6020026020010151604051602001611c6691906127b6565b604051602081830303815290604052611c7e906127d2565b03611c90576001945050505050610560565b80611c9a816124da565b915050611c33565b6001600160a01b0381163b611d0f5760405162461bcd60e51b815260206004820152602d60248201527f455243313936373a206e657720696d706c656d656e746174696f6e206973206e60448201526c1bdd08184818dbdb9d1c9858dd609a1b6064820152608401610a19565b6000805160206127fa83398151915280546001600160a01b0319166001600160a01b0392909216919091179055565b611d4783611d69565b600082511180611d545750805b15610ecb57611d638383611da9565b50505050565b611d7281611ca2565b6040516001600160a01b038216907fbc7cd75a20ee27fd9adebab32041f755214dbc6bffa90cc0225b39da2e5c2d3b90600090a250565b60606001600160a01b0383163b611e115760405162461bcd60e51b815260206004820152602660248201527f416464726573733a2064656c65676174652063616c6c20746f206e6f6e2d636f6044820152651b9d1c9858dd60d21b6064820152608401610a19565b600080846001600160a01b031684604051611e2c91906127b6565b600060405180830381855af49150503d8060008114611e67576040519150601f19603f3d011682016040523d82523d6000602084013e611e6c565b606091505b5091509150611e94828260405180606001604052806027815260200161281a60279139611e9d565b95945050505050565b60608315611eac575081611eb6565b611eb68383611ebd565b9392505050565b815115611ecd5781518083602001fd5b8060405162461bcd60e51b8152600401610a199190612161565b828054828255906000526020600020908101928215611f3c579160200282015b82811115611f3c57825182546001600160a01b0319166001600160a01b03909116178255602090920191600190910190611f07565b50611f48929150611f66565b5090565b5080546000825590600052602060002090810190610ab691905b5b80821115611f485760008155600101611f67565b60008083601f840112611f8d57600080fd5b5081356001600160401b03811115611fa457600080fd5b602083019150836020828501011115611fbc57600080fd5b9250929050565b6001600160a01b0381168114610ab657600080fd5b60008060008060608587031215611fee57600080fd5b84356001600160401b0381111561200457600080fd5b61201087828801611f7b565b909550935050602085013561202481611fc3565b9396929550929360400135925050565b60006020828403121561204657600080fd5b81356001600160e01b031981168114611eb657600080fd5b60006020828403121561207057600080fd5b8135611eb681611fc3565b6000806040838503121561208e57600080fd5b50508035926020909101359150565b60005b838110156120b85781810151838201526020016120a0565b50506000910152565b600081518084526120d981602086016020860161209d565b601f01601f19169290920160200192915050565b60006020808301818452808551808352604092508286019150828160051b87010184880160005b8381101561215357888303603f19018552815180518452870151878401879052612140878501826120c1565b9588019593505090860190600101612114565b509098975050505050505050565b602081526000611eb660208301846120c1565b60006020828403121561218657600080fd5b5035919050565b6000602080830181845280855180835260408601915060408160051b870101925083870160005b828110156121e257603f198886030184526121d08583516120c1565b945092850192908501906001016121b4565b5092979650505050505050565b634e487b7160e01b600052604160045260246000fd5b604051601f8201601f191681016001600160401b038111828210171561222d5761222d6121ef565b604052919050565b60006001600160401b0382111561224e5761224e6121ef565b50601f01601f191660200190565b6000806040838503121561226f57600080fd5b823561227a81611fc3565b915060208301356001600160401b0381111561229557600080fd5b8301601f810185136122a657600080fd5b80356122b96122b482612235565b612205565b8181528660208385010111156122ce57600080fd5b816020840160208301376000602083830101528093505050509250929050565b60008060006040848603121561230357600080fd5b83356001600160401b0381111561231957600080fd5b61232586828701611f7b565b909790965060209590950135949350505050565b6000806040838503121561234c57600080fd5b823561235781611fc3565b946020939093013593505050565b60008060006040848603121561237a57600080fd5b8335925060208401356001600160401b0381111561239757600080fd5b6123a386828701611f7b565b9497909650939450505050565b8183823760009101908152919050565b6000602082840312156123d257600080fd5b8151611eb681611fc3565b634e487b7160e01b600052603260045260246000fd5b600082601f83011261240457600080fd5b81516124126122b482612235565b81815284602083860101111561242757600080fd5b61052782602083016020870161209d565b60006020828403121561244a57600080fd5b81516001600160401b038082111561246157600080fd5b908301906040828603121561247557600080fd5b604051604081018181108382111715612490576124906121ef565b604052825181526020830151828111156124a957600080fd5b6124b5878286016123f3565b60208301525095945050505050565b634e487b7160e01b600052601160045260246000fd5b6000600182016124ec576124ec6124c4565b5060010190565b6020808252825482820181905260008481528281209092916040850190845b818110156125375783546001600160a01b031683526001938401939285019201612512565b50909695505050505050565b6020808252602c908201527f46756e6374696f6e206d7573742062652063616c6c6564207468726f7567682060408201526b19195b1959d85d1958d85b1b60a21b606082015260800190565b6020808252602c908201527f46756e6374696f6e206d7573742062652063616c6c6564207468726f7567682060408201526b6163746976652070726f787960a01b606082015260800190565b838152818360208301376000910160200190815292915050565b60006001600160401b0382111561260e5761260e6121ef565b5060051b60200190565b6000602080838503121561262b57600080fd5b82356001600160401b0381111561264157600080fd5b8301601f8101851361265257600080fd5b80356126606122b4826125f5565b81815260059190911b8201830190838101908783111561267f57600080fd5b928401925b828410156126a657833561269781611fc3565b82529284019290840190612684565b979650505050505050565b81810381811115610560576105606124c4565b634e487b7160e01b600052603160045260246000fd5b6000602082840312156126ec57600080fd5b5051919050565b80820180821115610560576105606124c4565b6000602080838503121561271957600080fd5b82516001600160401b038082111561273057600080fd5b818501915085601f83011261274457600080fd5b81516127526122b4826125f5565b81815260059190911b8301840190848101908883111561277157600080fd5b8585015b838110156127a95780518581111561278d5760008081fd5b61279b8b89838a01016123f3565b845250918601918601612775565b5098975050505050505050565b600082516127c881846020870161209d565b9190910192915050565b805160208083015191908110156127f3576000198160200360031b1b821691505b5091905056fe360894a13ba1a3210667c828492db98dca3e2076cc3735a920a3ca505d382bbc416464726573733a206c6f772d6c6576656c2064656c65676174652063616c6c206661696c6564a2646970667358221220de0514c75a61c3ee2c749655f745c090531d9ce890ff6eb45a22d79ce95159e564736f6c63430008110033",
    "linkReferences": {}
  },
  "methodIdentifiers": {
    "SPACE_ADDRESS()": "34322eff",
    "TOKEN_ADDRESS()": "0bdf5300",
    "TOKEN_ID()": "89a89002",
    "addRoleIdToChannel(string,uint256)": "c513be77",
    "description()": "7284e416",
    "entitlementIdsByRoleId(uint256,uint256)": "97d038d1",
    "entitlementsById(bytes32)": "d3b2cfbf",
    "getEntitlementDataByRoleId(uint256)": "1eee07b2",
    "getUserRoles(address)": "06a36aee",
    "initialize(address,uint256)": "cd6dc687",
    "isEntitled(string,address,bytes32)": "00b4eaa8",
    "moduleType()": "6465e69f",
    "name()": "06fdde03",
    "proxiableUUID()": "52d1902d",
    "removeEntitlement(uint256,bytes)": "fa6d1adf",
    "removeRoleIdFromChannel(string,uint256)": "f32f83ce",
    "roleIdsByChannelId(bytes32,uint256)": "053acb40",
    "setEntitlement(uint256,bytes)": "ef8be574",
    "setSpace(address)": "03b40534",
    "supportsInterface(bytes4)": "01ffc9a7",
    "upgradeTo(address)": "3659cfe6",
    "upgradeToAndCall(address,bytes)": "4f1ef286"
  },
  "id": 16
}