{
  "abi": [
    {
      "inputs": [],
      "name": "AddressNotFound",
      "type": "error"
    },
    {
      "inputs": [],
      "name": "EntitlementNotFound",
      "type": "error"
    },
    {
      "inputs": [],
      "name": "NotAllowed",
      "type": "error"
    },
    {
      "inputs": [],
      "name": "RoleAlreadyExists",
      "type": "error"
    },
    {
      "anonymous": false,
      "inputs": [
        {
          "indexed": false,
          "internalType": "address",
          "name": "previousAdmin",
          "type": "address"
        },
        {
          "indexed": false,
          "internalType": "address",
          "name": "newAdmin",
          "type": "address"
        }
      ],
      "name": "AdminChanged",
      "type": "event"
    },
    {
      "anonymous": false,
      "inputs": [
        {
          "indexed": true,
          "internalType": "address",
          "name": "beacon",
          "type": "address"
        }
      ],
      "name": "BeaconUpgraded",
      "type": "event"
    },
    {
      "anonymous": false,
      "inputs": [
        {
          "indexed": false,
          "internalType": "uint8",
          "name": "version",
          "type": "uint8"
        }
      ],
      "name": "Initialized",
      "type": "event"
    },
    {
      "anonymous": false,
      "inputs": [
        {
          "indexed": true,
          "internalType": "address",
          "name": "implementation",
          "type": "address"
        }
      ],
      "name": "Upgraded",
      "type": "event"
    },
    {
      "inputs": [],
      "name": "SPACE_ADDRESS",
      "outputs": [
        {
          "internalType": "address",
          "name": "",
          "type": "address"
        }
      ],
      "stateMutability": "view",
      "type": "function"
    },
    {
      "inputs": [],
      "name": "TOKEN_ADDRESS",
      "outputs": [
        {
          "internalType": "address",
          "name": "",
          "type": "address"
        }
      ],
      "stateMutability": "view",
      "type": "function"
    },
    {
      "inputs": [],
      "name": "TOKEN_ID",
      "outputs": [
        {
          "internalType": "uint256",
          "name": "",
          "type": "uint256"
        }
      ],
      "stateMutability": "view",
      "type": "function"
    },
    {
      "inputs": [
        {
          "internalType": "string",
          "name": "channelId",
          "type": "string"
        },
        {
          "internalType": "uint256",
          "name": "roleId",
          "type": "uint256"
        }
      ],
      "name": "addRoleIdToChannel",
      "outputs": [],
      "stateMutability": "nonpayable",
      "type": "function"
    },
    {
      "inputs": [],
      "name": "description",
      "outputs": [
        {
          "internalType": "string",
          "name": "",
          "type": "string"
        }
      ],
      "stateMutability": "view",
      "type": "function"
    },
    {
      "inputs": [
        {
          "internalType": "bytes32",
          "name": "",
          "type": "bytes32"
        }
      ],
      "name": "entitlementsById",
      "outputs": [
        {
          "internalType": "uint256",
          "name": "roleId",
          "type": "uint256"
        },
        {
          "internalType": "address",
          "name": "grantedBy",
          "type": "address"
        },
        {
          "internalType": "uint256",
          "name": "grantedTime",
          "type": "uint256"
        }
      ],
      "stateMutability": "view",
      "type": "function"
    },
    {
      "inputs": [
        {
          "internalType": "uint256",
          "name": "roleId",
          "type": "uint256"
        }
      ],
      "name": "getEntitlementDataByRoleId",
      "outputs": [
        {
          "internalType": "bytes[]",
          "name": "",
          "type": "bytes[]"
        }
      ],
      "stateMutability": "view",
      "type": "function"
    },
    {
      "inputs": [
        {
          "internalType": "address",
          "name": "user",
          "type": "address"
        }
      ],
      "name": "getUserRoles",
      "outputs": [
        {
          "components": [
            {
              "internalType": "uint256",
              "name": "roleId",
              "type": "uint256"
            },
            {
              "internalType": "string",
              "name": "name",
              "type": "string"
            }
          ],
          "internalType": "struct DataTypes.Role[]",
          "name": "",
          "type": "tuple[]"
        }
      ],
      "stateMutability": "view",
      "type": "function"
    },
    {
      "inputs": [
        {
          "internalType": "address",
          "name": "_tokenAddress",
          "type": "address"
        },
        {
          "internalType": "uint256",
          "name": "_tokenId",
          "type": "uint256"
        }
      ],
      "name": "initialize",
      "outputs": [],
      "stateMutability": "nonpayable",
      "type": "function"
    },
    {
      "inputs": [
        {
          "internalType": "string",
          "name": "channelId",
          "type": "string"
        },
        {
          "internalType": "address",
          "name": "user",
          "type": "address"
        },
        {
          "internalType": "bytes32",
          "name": "permission",
          "type": "bytes32"
        }
      ],
      "name": "isEntitled",
      "outputs": [
        {
          "internalType": "bool",
          "name": "",
          "type": "bool"
        }
      ],
      "stateMutability": "view",
      "type": "function"
    },
    {
      "inputs": [],
      "name": "moduleType",
      "outputs": [
        {
          "internalType": "string",
          "name": "",
          "type": "string"
        }
      ],
      "stateMutability": "view",
      "type": "function"
    },
    {
      "inputs": [],
      "name": "name",
      "outputs": [
        {
          "internalType": "string",
          "name": "",
          "type": "string"
        }
      ],
      "stateMutability": "view",
      "type": "function"
    },
    {
      "inputs": [],
      "name": "proxiableUUID",
      "outputs": [
        {
          "internalType": "bytes32",
          "name": "",
          "type": "bytes32"
        }
      ],
      "stateMutability": "view",
      "type": "function"
    },
    {
      "inputs": [
        {
          "internalType": "uint256",
          "name": "roleId",
          "type": "uint256"
        },
        {
          "internalType": "bytes",
          "name": "entitlementData",
          "type": "bytes"
        }
      ],
      "name": "removeEntitlement",
      "outputs": [
        {
          "internalType": "bytes32",
          "name": "entitlementId",
          "type": "bytes32"
        }
      ],
      "stateMutability": "nonpayable",
      "type": "function"
    },
    {
      "inputs": [
        {
          "internalType": "string",
          "name": "channelId",
          "type": "string"
        },
        {
          "internalType": "uint256",
          "name": "roleId",
          "type": "uint256"
        }
      ],
      "name": "removeRoleIdFromChannel",
      "outputs": [],
      "stateMutability": "nonpayable",
      "type": "function"
    },
    {
      "inputs": [
        {
          "internalType": "uint256",
          "name": "roleId",
          "type": "uint256"
        },
        {
          "internalType": "bytes",
          "name": "entitlementData",
          "type": "bytes"
        }
      ],
      "name": "setEntitlement",
      "outputs": [
        {
          "internalType": "bytes32",
          "name": "entitlementId",
          "type": "bytes32"
        }
      ],
      "stateMutability": "nonpayable",
      "type": "function"
    },
    {
      "inputs": [
        {
          "internalType": "address",
          "name": "_space",
          "type": "address"
        }
      ],
      "name": "setSpace",
      "outputs": [],
      "stateMutability": "nonpayable",
      "type": "function"
    },
    {
      "inputs": [
        {
          "internalType": "bytes4",
          "name": "interfaceId",
          "type": "bytes4"
        }
      ],
      "name": "supportsInterface",
      "outputs": [
        {
          "internalType": "bool",
          "name": "",
          "type": "bool"
        }
      ],
      "stateMutability": "view",
      "type": "function"
    },
    {
      "inputs": [
        {
          "internalType": "address",
          "name": "newImplementation",
          "type": "address"
        }
      ],
      "name": "upgradeTo",
      "outputs": [],
      "stateMutability": "nonpayable",
      "type": "function"
    },
    {
      "inputs": [
        {
          "internalType": "address",
          "name": "newImplementation",
          "type": "address"
        },
        {
          "internalType": "bytes",
          "name": "data",
          "type": "bytes"
        }
      ],
      "name": "upgradeToAndCall",
      "outputs": [],
      "stateMutability": "payable",
      "type": "function"
    }
  ],
  "bytecode": {
    "object": "0x60a06040523060805234801561001457600080fd5b5060805161274b61004c600039600081816109540152818161099d01528181610a3c01528181610a7c0152610b0f015261274b6000f3fe60806040526004361061011e5760003560e01c806352d1902d116100a0578063cd6dc68711610064578063cd6dc6871461039d578063d3b2cfbf146103bd578063ef8be57414610425578063f32f83ce14610445578063fa6d1adf1461046557600080fd5b806352d1902d146102c85780636465e69f146102eb5780637284e4161461032657806389a8900214610367578063c513be771461037d57600080fd5b80630bdf5300116100e75780630bdf5300146102105780631eee07b21461024857806334322eff146102755780633659cfe6146102955780634f1ef286146102b557600080fd5b8062b4eaa81461012357806301ffc9a71461015857806303b405341461017857806306a36aee1461019a57806306fdde03146101c7575b600080fd5b34801561012f57600080fd5b5061014361013e366004611f16565b610485565b60405190151581526020015b60405180910390f35b34801561016457600080fd5b50610143610173366004611f72565b6104d9565b34801561018457600080fd5b50610198610193366004611f9c565b610510565b005b3480156101a657600080fd5b506101ba6101b5366004611f9c565b6105cf565b60405161014f9190612009565b3480156101d357600080fd5b506102036040518060400160405280601081526020016f155cd95c88115b9d1a5d1b195b595b9d60821b81525081565b60405161014f919061207d565b34801561021c57600080fd5b5060ca54610230906001600160a01b031681565b6040516001600160a01b03909116815260200161014f565b34801561025457600080fd5b50610268610263366004612090565b610813565b60405161014f91906120a9565b34801561028157600080fd5b5060c954610230906001600160a01b031681565b3480156102a157600080fd5b506101986102b0366004611f9c565b61094a565b6101986102c33660046121a0565b610a32565b3480156102d457600080fd5b506102dd610b02565b60405190815260200161014f565b3480156102f757600080fd5b506102036040518060400160405280600f81526020016e155cd95c915b9d1a5d1b195b595b9d608a1b81525081565b34801561033257600080fd5b5061020360405180604001604052806015815260200174456e7469746c656d656e7420666f7220757365727360581b81525081565b34801561037357600080fd5b506102dd60cb5481565b34801561038957600080fd5b50610198610398366004612232565b610bb5565b3480156103a957600080fd5b506101986103b836600461227d565b610cea565b3480156103c957600080fd5b506104026103d8366004612090565b60cc6020526000908152604090208054600182015460029092015490916001600160a01b03169083565b604080519384526001600160a01b0390921660208401529082015260600161014f565b34801561043157600080fd5b506102dd6104403660046122a9565b610e2d565b34801561045157600080fd5b50610198610460366004612232565b611014565b34801561047157600080fd5b506102dd6104803660046122a9565b611143565b600083156104c7576104c085856040516020016104a39291906122f4565b60405160208183030381529060405280519060200120848461134b565b90506104d1565b6104c0838361148f565b949350505050565b60006001600160e01b0319821663e5e65adf60e01b148061050a57506301ffc9a760e01b6001600160e01b03198316145b92915050565b3360ca5460cb546040516331a9108f60e11b815260048101919091526001600160a01b039283169290911690636352211e90602401602060405180830381865afa158015610562573d6000803e3d6000fd5b505050506040513d601f19601f820116820180604052508101906105869190612304565b6001600160a01b0316146105ad57604051631eb49d6d60e11b815260040160405180910390fd5b60c980546001600160a01b0319166001600160a01b0392909216919091179055565b6001600160a01b038116600090815260cf6020908152604080832080548251818502810185019093528083526060949383018282801561062e57602002820191906000526020600020905b81548152602001906001019080831161061a575b50505050509050600081516001600160401b038111156106505761065061210b565b60405190808252806020026020018201604052801561069657816020015b60408051808201909152600081526060602082015281526020019060019003908161066e5790505b50905060005b825181101561080b57600060cc60008584815181106106bd576106bd612321565b602090810291909101810151825281810192909252604090810160002081516080810183528154815260018201546001600160a01b03168185015260028201548184015260038201805484518187028101870190955280855291949293606086019390929083018282801561075b57602002820191906000526020600020905b81546001600160a01b0316815260019091019060200180831161073d575b50505091909252505060c954825160405163784c872b60e01b815260048101919091529293506001600160a01b03169163784c872b9150602401600060405180830381865afa1580156107b2573d6000803e3d6000fd5b505050506040513d6000823e601f3d908101601f191682016040526107da9190810190612337565b8383815181106107ec576107ec612321565b602002602001018190525050808061080390612401565b91505061069c565b509392505050565b600081815260ce6020908152604080832080548251818502810185019093528083526060949383018282801561086857602002820191906000526020600020905b815481526020019060010190808311610854575b50505050509050600081516001600160401b0381111561088a5761088a61210b565b6040519080825280602002602001820160405280156108bd57816020015b60608152602001906001900390816108a85790505b50905060005b825181101561080b5760cc60008483815181106108e2576108e2612321565b6020026020010151815260200190815260200160002060030160405160200161090b919061241a565b60405160208183030381529060405282828151811061092c5761092c612321565b6020026020010181905250808061094290612401565b9150506108c3565b6001600160a01b037f000000000000000000000000000000000000000000000000000000000000000016300361099b5760405162461bcd60e51b81526004016109929061246a565b60405180910390fd5b7f00000000000000000000000000000000000000000000000000000000000000006001600160a01b03166109e46000805160206126cf833981519152546001600160a01b031690565b6001600160a01b031614610a0a5760405162461bcd60e51b8152600401610992906124b6565b610a138161151d565b60408051600080825260208201909252610a2f91839190611551565b50565b6001600160a01b037f0000000000000000000000000000000000000000000000000000000000000000163003610a7a5760405162461bcd60e51b81526004016109929061246a565b7f00000000000000000000000000000000000000000000000000000000000000006001600160a01b0316610ac36000805160206126cf833981519152546001600160a01b031690565b6001600160a01b031614610ae95760405162461bcd60e51b8152600401610992906124b6565b610af28261151d565b610afe82826001611551565b5050565b6000306001600160a01b037f00000000000000000000000000000000000000000000000000000000000000001614610ba25760405162461bcd60e51b815260206004820152603860248201527f555550535570677261646561626c653a206d757374206e6f742062652063616c60448201527f6c6564207468726f7567682064656c656761746563616c6c00000000000000006064820152608401610992565b506000805160206126cf83398151915290565b60c9546001600160a01b0316336001600160a01b031614610be957604051631eb49d6d60e11b815260040160405180910390fd5b60008383604051602001610bfe9291906122f4565b60408051601f198184030181528282528051602091820120600081815260cd835283812080548085028701850190955284865291955093929091830182828015610c6757602002820191906000526020600020905b815481526020019060010190808311610c53575b5050505050905060005b8151811015610cc55783828281518110610c8d57610c8d612321565b602002602001015103610cb357604051636014eda760e11b815260040160405180910390fd5b80610cbd81612401565b915050610c71565b5050600090815260cd6020908152604082208054600181018255908352912001555050565b600054610100900460ff1615808015610d0a5750600054600160ff909116105b80610d245750303b158015610d24575060005460ff166001145b610d875760405162461bcd60e51b815260206004820152602e60248201527f496e697469616c697a61626c653a20636f6e747261637420697320616c72656160448201526d191e481a5b9a5d1a585b1a5e995960921b6064820152608401610992565b6000805460ff191660011790558015610daa576000805461ff0019166101001790555b610db26116bc565b610dba6116bc565b610dc26116bc565b60ca80546001600160a01b0319166001600160a01b03851617905560cb8290558015610e28576000805461ff0019169055604051600181527f7f26b83ff96e1f2b6a682f133852f6798a09c465da95921460cefb38474024989060200160405180910390a15b505050565b60c9546000906001600160a01b0316336001600160a01b031614610e6457604051631eb49d6d60e11b815260040160405180910390fd5b838383604051602001610e7993929190612502565b60408051601f19818403018152919052805160209091012090506000610ea18385018561253f565b90508051600003610ec557604051633d9e48f360e21b815260040160405180910390fd5b60005b8151811015610f5e576000828281518110610ee557610ee5612321565b6020026020010151905060006001600160a01b0316816001600160a01b031603610f2257604051636054b46960e01b815260040160405180910390fd5b6001600160a01b0316600090815260cf602090815260408220805460018101825590835291200183905580610f5681612401565b915050610ec8565b506040518060800160405280868152602001610f773390565b6001600160a01b039081168252426020808401919091526040928301859052600086815260cc825283902084518155848201516001820180546001600160a01b0319169190941617909255918301516002820155606083015180519192610fe692600385019290910190611e25565b50505060009485525060ce602090815260408520805460018101825590865294209093018390555090919050565b60c9546001600160a01b0316336001600160a01b03161461104857604051631eb49d6d60e11b815260040160405180910390fd5b6000838360405160200161105d9291906122f4565b60408051601f198184030181529181528151602092830120600081815260cd909352908220909250905b815481101561113b57838282815481106110a3576110a3612321565b90600052602060002001540361112957815482906110c3906001906125d8565b815481106110d3576110d3612321565b90600052602060002001548282815481106110f0576110f0612321565b90600052602060002001819055508180548061110e5761110e6125eb565b6001900381819060005260206000200160009055905561113b565b8061113381612401565b915050611087565b505050505050565b60c9546000906001600160a01b0316336001600160a01b03161461117a57604051631eb49d6d60e11b815260040160405180910390fd5b83838360405160200161118f93929190612502565b60408051601f198184030181528282528051602091820120600081815260cc83528381206080860185528054865260018101546001600160a01b031686850152600281015486860152600381018054865181870281018701909752808752939750919594909360608601939192919083018282801561123757602002820191906000526020600020905b81546001600160a01b03168152600190910190602001808311611219575b50505050508152505090508060600151516000148061125557508051155b1561127357604051633d9e48f360e21b815260040160405180910390fd5b8051600090815260ce6020526040902061128d8184611729565b60005b826060015151811015611307576000836060015182815181106112b5576112b5612321565b60200260200101519050600060cf6000836001600160a01b03166001600160a01b0316815260200190815260200160002090506112f28187611729565b505080806112ff90612401565b915050611290565b50600083815260cc602052604081208181556001810180546001600160a01b031916905560028101829055906113406003830182611e8a565b505050509392505050565b600083815260cd602090815260408083208054825181850281018501909352808352849383018282801561139e57602002820191906000526020600020905b81548152602001906001019080831161138a575b5050505050905060006113b160016117e0565b905060006113be866117e0565b905060006113cc83836119c2565b905060005b84518110156114835760008582815181106113ee576113ee612321565b6020026020010151905060005b835181101561146e578184828151811061141757611417612321565b602002602001015160000151148015611452575061145284828151811061144057611440612321565b6020026020010151600001518a611b12565b1561145c57600197505b8061146681612401565b9150506113fb565b5050808061147b90612401565b9150506113d1565b50505050509392505050565b60008061149c60016117e0565b905060006114a9856117e0565b905060006114b783836119c2565b905060005b8151811015611510576114ec8282815181106114da576114da612321565b60200260200101516000015187611b12565b156114fe57600194505050505061050a565b8061150881612401565b9150506114bc565b5060009695505050505050565b60c9546001600160a01b0316336001600160a01b031614610a2f57604051631eb49d6d60e11b815260040160405180910390fd5b7f4910fdfa16fed3260ed0e7147f7cc6da11a60208b5b9406d12a635614ffd91435460ff161561158457610e2883611be0565b826001600160a01b03166352d1902d6040518163ffffffff1660e01b8152600401602060405180830381865afa9250505080156115de575060408051601f3d908101601f191682019092526115db91810190612601565b60015b6116415760405162461bcd60e51b815260206004820152602e60248201527f45524331393637557067726164653a206e657720696d706c656d656e7461746960448201526d6f6e206973206e6f74205555505360901b6064820152608401610992565b6000805160206126cf83398151915281146116b05760405162461bcd60e51b815260206004820152602960248201527f45524331393637557067726164653a20756e737570706f727465642070726f786044820152681a58589b195555525160ba1b6064820152608401610992565b50610e28838383611c7c565b600054610100900460ff166117275760405162461bcd60e51b815260206004820152602b60248201527f496e697469616c697a61626c653a20636f6e7472616374206973206e6f74206960448201526a6e697469616c697a696e6760a81b6064820152608401610992565b565b60005b8254811015610e28578183828154811061174857611748612321565b9060005260206000200154036117ce5782548390611768906001906125d8565b8154811061177857611778612321565b906000526020600020015483828154811061179557611795612321565b9060005260206000200181905550828054806117b3576117b36125eb565b60019003818190600052602060002001600090559055505050565b806117d881612401565b91505061172c565b6001600160a01b038116600090815260cf6020908152604080832080548251818502810185019093528083526060949383018282801561183f57602002820191906000526020600020905b81548152602001906001019080831161182b575b50505050509050600081516001600160401b038111156118615761186161210b565b6040519080825280602002602001820160405280156118c657816020015b6118b360405180608001604052806000815260200160006001600160a01b0316815260200160008152602001606081525090565b81526020019060019003908161187f5790505b50905060005b825181101561080b5760cc60008483815181106118eb576118eb612321565b602090810291909101810151825281810192909252604090810160002081516080810183528154815260018201546001600160a01b03168185015260028201548184015260038201805484518187028101870190955280855291949293606086019390929083018282801561198957602002820191906000526020600020905b81546001600160a01b0316815260019091019060200180831161196b575b5050505050815250508282815181106119a4576119a4612321565b602002602001018190525080806119ba90612401565b9150506118cc565b60606000825184516119d4919061261a565b6001600160401b038111156119eb576119eb61210b565b604051908082528060200260200182016040528015611a5057816020015b611a3d60405180608001604052806000815260200160006001600160a01b0316815260200160008152602001606081525090565b815260200190600190039081611a095790505b50905060005b8451811015611aa957848181518110611a7157611a71612321565b6020026020010151828281518110611a8b57611a8b612321565b60200260200101819052508080611aa190612401565b915050611a56565b60005b8451811015611b08578481611ac081612401565b925081518110611ad257611ad2612321565b6020026020010151838380611ae690612401565b945081518110611af857611af8612321565b6020026020010181905250611aac565b5090949350505050565b60c95460405163b426423360e01b8152600481018490526000916001600160a01b0316908290829063b426423390602401600060405180830381865afa158015611b60573d6000803e3d6000fd5b505050506040513d6000823e601f3d908101601f19168201604052611b88919081019061262d565b905060005b8151811015611bd45784828281518110611ba957611ba9612321565b602002602001015103611bc2576001935050505061050a565b80611bcc81612401565b915050611b8d565b50600095945050505050565b6001600160a01b0381163b611c4d5760405162461bcd60e51b815260206004820152602d60248201527f455243313936373a206e657720696d706c656d656e746174696f6e206973206e60448201526c1bdd08184818dbdb9d1c9858dd609a1b6064820152608401610992565b6000805160206126cf83398151915280546001600160a01b0319166001600160a01b0392909216919091179055565b611c8583611ca7565b600082511180611c925750805b15610e2857611ca18383611ce7565b50505050565b611cb081611be0565b6040516001600160a01b038216907fbc7cd75a20ee27fd9adebab32041f755214dbc6bffa90cc0225b39da2e5c2d3b90600090a250565b60606001600160a01b0383163b611d4f5760405162461bcd60e51b815260206004820152602660248201527f416464726573733a2064656c65676174652063616c6c20746f206e6f6e2d636f6044820152651b9d1c9858dd60d21b6064820152608401610992565b600080846001600160a01b031684604051611d6a91906126b2565b600060405180830381855af49150503d8060008114611da5576040519150601f19603f3d011682016040523d82523d6000602084013e611daa565b606091505b5091509150611dd282826040518060600160405280602781526020016126ef60279139611ddb565b95945050505050565b60608315611dea575081611df4565b611df48383611dfb565b9392505050565b815115611e0b5781518083602001fd5b8060405162461bcd60e51b8152600401610992919061207d565b828054828255906000526020600020908101928215611e7a579160200282015b82811115611e7a57825182546001600160a01b0319166001600160a01b03909116178255602090920191600190910190611e45565b50611e86929150611ea4565b5090565b5080546000825590600052602060002090810190610a2f91905b5b80821115611e865760008155600101611ea5565b60008083601f840112611ecb57600080fd5b5081356001600160401b03811115611ee257600080fd5b602083019150836020828501011115611efa57600080fd5b9250929050565b6001600160a01b0381168114610a2f57600080fd5b60008060008060608587031215611f2c57600080fd5b84356001600160401b03811115611f4257600080fd5b611f4e87828801611eb9565b9095509350506020850135611f6281611f01565b9396929550929360400135925050565b600060208284031215611f8457600080fd5b81356001600160e01b031981168114611df457600080fd5b600060208284031215611fae57600080fd5b8135611df481611f01565b60005b83811015611fd4578181015183820152602001611fbc565b50506000910152565b60008151808452611ff5816020860160208601611fb9565b601f01601f19169290920160200192915050565b60006020808301818452808551808352604092508286019150828160051b87010184880160005b8381101561206f57888303603f1901855281518051845287015187840187905261205c87850182611fdd565b9588019593505090860190600101612030565b509098975050505050505050565b602081526000611df46020830184611fdd565b6000602082840312156120a257600080fd5b5035919050565b6000602080830181845280855180835260408601915060408160051b870101925083870160005b828110156120fe57603f198886030184526120ec858351611fdd565b945092850192908501906001016120d0565b5092979650505050505050565b634e487b7160e01b600052604160045260246000fd5b604080519081016001600160401b03811182821017156121435761214361210b565b60405290565b604051601f8201601f191681016001600160401b03811182821017156121715761217161210b565b604052919050565b60006001600160401b038211156121925761219261210b565b50601f01601f191660200190565b600080604083850312156121b357600080fd5b82356121be81611f01565b915060208301356001600160401b038111156121d957600080fd5b8301601f810185136121ea57600080fd5b80356121fd6121f882612179565b612149565b81815286602083850101111561221257600080fd5b816020840160208301376000602083830101528093505050509250929050565b60008060006040848603121561224757600080fd5b83356001600160401b0381111561225d57600080fd5b61226986828701611eb9565b909790965060209590950135949350505050565b6000806040838503121561229057600080fd5b823561229b81611f01565b946020939093013593505050565b6000806000604084860312156122be57600080fd5b8335925060208401356001600160401b038111156122db57600080fd5b6122e786828701611eb9565b9497909650939450505050565b8183823760009101908152919050565b60006020828403121561231657600080fd5b8151611df481611f01565b634e487b7160e01b600052603260045260246000fd5b6000602080838503121561234a57600080fd5b82516001600160401b038082111561236157600080fd5b908401906040828703121561237557600080fd5b61237d612121565b82518152838301518281111561239257600080fd5b80840193505086601f8401126123a757600080fd5b825191506123b76121f883612179565b82815287858486010111156123cb57600080fd5b6123da83868301878701611fb9565b938101939093525090949350505050565b634e487b7160e01b600052601160045260246000fd5b600060018201612413576124136123eb565b5060010190565b6020808252825482820181905260008481528281209092916040850190845b8181101561245e5783546001600160a01b031683526001938401939285019201612439565b50909695505050505050565b6020808252602c908201527f46756e6374696f6e206d7573742062652063616c6c6564207468726f7567682060408201526b19195b1959d85d1958d85b1b60a21b606082015260800190565b6020808252602c908201527f46756e6374696f6e206d7573742062652063616c6c6564207468726f7567682060408201526b6163746976652070726f787960a01b606082015260800190565b838152818360208301376000910160200190815292915050565b60006001600160401b038211156125355761253561210b565b5060051b60200190565b6000602080838503121561255257600080fd5b82356001600160401b0381111561256857600080fd5b8301601f8101851361257957600080fd5b80356125876121f88261251c565b81815260059190911b820183019083810190878311156125a657600080fd5b928401925b828410156125cd5783356125be81611f01565b825292840192908401906125ab565b979650505050505050565b8181038181111561050a5761050a6123eb565b634e487b7160e01b600052603160045260246000fd5b60006020828403121561261357600080fd5b5051919050565b8082018082111561050a5761050a6123eb565b6000602080838503121561264057600080fd5b82516001600160401b0381111561265657600080fd5b8301601f8101851361266757600080fd5b80516126756121f88261251c565b81815260059190911b8201830190838101908783111561269457600080fd5b928401925b828410156125cd57835182529284019290840190612699565b600082516126c4818460208701611fb9565b919091019291505056fe360894a13ba1a3210667c828492db98dca3e2076cc3735a920a3ca505d382bbc416464726573733a206c6f772d6c6576656c2064656c65676174652063616c6c206661696c6564a264697066735822122057e6089fe6e6b2667749f4ee3328c0dd876b3764051bd40039cd7d9030be9a1a64736f6c63430008110033",
    "linkReferences": {}
  },
  "methodIdentifiers": {
    "SPACE_ADDRESS()": "34322eff",
    "TOKEN_ADDRESS()": "0bdf5300",
    "TOKEN_ID()": "89a89002",
    "addRoleIdToChannel(string,uint256)": "c513be77",
    "description()": "7284e416",
    "entitlementsById(bytes32)": "d3b2cfbf",
    "getEntitlementDataByRoleId(uint256)": "1eee07b2",
    "getUserRoles(address)": "06a36aee",
    "initialize(address,uint256)": "cd6dc687",
    "isEntitled(string,address,bytes32)": "00b4eaa8",
    "moduleType()": "6465e69f",
    "name()": "06fdde03",
    "proxiableUUID()": "52d1902d",
    "removeEntitlement(uint256,bytes)": "fa6d1adf",
    "removeRoleIdFromChannel(string,uint256)": "f32f83ce",
    "setEntitlement(uint256,bytes)": "ef8be574",
    "setSpace(address)": "03b40534",
    "supportsInterface(bytes4)": "01ffc9a7",
    "upgradeTo(address)": "3659cfe6",
    "upgradeToAndCall(address,bytes)": "4f1ef286"
  },
  "id": 16
}