{
  "abi": [
    {
      "inputs": [
        {
          "internalType": "address",
          "name": "permissionRegistry",
          "type": "address"
        }
      ],
      "stateMutability": "nonpayable",
      "type": "constructor"
    },
    {
      "inputs": [],
      "name": "InvalidParameters",
      "type": "error"
    },
    {
      "inputs": [],
      "name": "NotSpaceManager",
      "type": "error"
    },
    {
      "anonymous": false,
      "inputs": [
        {
          "indexed": true,
          "internalType": "address",
          "name": "previousOwner",
          "type": "address"
        },
        {
          "indexed": true,
          "internalType": "address",
          "name": "newOwner",
          "type": "address"
        }
      ],
      "name": "OwnershipTransferred",
      "type": "event"
    },
    {
      "inputs": [
        {
          "internalType": "uint256",
          "name": "spaceId",
          "type": "uint256"
        },
        {
          "internalType": "uint256",
          "name": "roleId",
          "type": "uint256"
        },
        {
          "components": [
            {
              "internalType": "string",
              "name": "name",
              "type": "string"
            }
          ],
          "internalType": "struct DataTypes.Permission",
          "name": "permission",
          "type": "tuple"
        }
      ],
      "name": "addPermissionToRole",
      "outputs": [],
      "stateMutability": "nonpayable",
      "type": "function"
    },
    {
      "inputs": [
        {
          "internalType": "uint256",
          "name": "spaceId",
          "type": "uint256"
        }
      ],
      "name": "createOwnerRole",
      "outputs": [
        {
          "internalType": "uint256",
          "name": "",
          "type": "uint256"
        }
      ],
      "stateMutability": "nonpayable",
      "type": "function"
    },
    {
      "inputs": [
        {
          "internalType": "uint256",
          "name": "spaceId",
          "type": "uint256"
        },
        {
          "internalType": "string",
          "name": "name",
          "type": "string"
        },
        {
          "components": [
            {
              "internalType": "string",
              "name": "name",
              "type": "string"
            }
          ],
          "internalType": "struct DataTypes.Permission[]",
          "name": "permissions",
          "type": "tuple[]"
        }
      ],
      "name": "createRole",
      "outputs": [
        {
          "internalType": "uint256",
          "name": "",
          "type": "uint256"
        }
      ],
      "stateMutability": "nonpayable",
      "type": "function"
    },
    {
      "inputs": [
        {
          "internalType": "uint256",
          "name": "spaceId",
          "type": "uint256"
        },
        {
          "internalType": "string",
          "name": "name",
          "type": "string"
        }
      ],
      "name": "createRole",
      "outputs": [
        {
          "internalType": "uint256",
          "name": "",
          "type": "uint256"
        }
      ],
      "stateMutability": "nonpayable",
      "type": "function"
    },
    {
      "inputs": [
        {
          "internalType": "uint256",
          "name": "spaceId",
          "type": "uint256"
        },
        {
          "internalType": "uint256",
          "name": "roleId",
          "type": "uint256"
        }
      ],
      "name": "getPermissionsBySpaceIdByRoleId",
      "outputs": [
        {
          "components": [
            {
              "internalType": "string",
              "name": "name",
              "type": "string"
            }
          ],
          "internalType": "struct DataTypes.Permission[]",
          "name": "",
          "type": "tuple[]"
        }
      ],
      "stateMutability": "view",
      "type": "function"
    },
    {
      "inputs": [
        {
          "internalType": "uint256",
          "name": "spaceId",
          "type": "uint256"
        },
        {
          "internalType": "uint256",
          "name": "roleId",
          "type": "uint256"
        }
      ],
      "name": "getRoleBySpaceIdByRoleId",
      "outputs": [
        {
          "components": [
            {
              "internalType": "uint256",
              "name": "roleId",
              "type": "uint256"
            },
            {
              "internalType": "string",
              "name": "name",
              "type": "string"
            }
          ],
          "internalType": "struct DataTypes.Role",
          "name": "role",
          "type": "tuple"
        }
      ],
      "stateMutability": "view",
      "type": "function"
    },
    {
      "inputs": [
        {
          "internalType": "uint256",
          "name": "spaceId",
          "type": "uint256"
        }
      ],
      "name": "getRolesBySpaceId",
      "outputs": [
        {
          "components": [
            {
              "internalType": "uint256",
              "name": "roleId",
              "type": "uint256"
            },
            {
              "internalType": "string",
              "name": "name",
              "type": "string"
            }
          ],
          "internalType": "struct DataTypes.Role[]",
          "name": "",
          "type": "tuple[]"
        }
      ],
      "stateMutability": "view",
      "type": "function"
    },
    {
      "inputs": [
        {
          "internalType": "uint256",
          "name": "spaceId",
          "type": "uint256"
        },
        {
          "internalType": "uint256",
          "name": "roleId",
          "type": "uint256"
        },
        {
          "internalType": "string",
          "name": "newRoleName",
          "type": "string"
        }
      ],
      "name": "modifyRoleName",
      "outputs": [],
      "stateMutability": "nonpayable",
      "type": "function"
    },
    {
      "inputs": [],
      "name": "owner",
      "outputs": [
        {
          "internalType": "address",
          "name": "",
          "type": "address"
        }
      ],
      "stateMutability": "view",
      "type": "function"
    },
    {
      "inputs": [
        {
          "internalType": "uint256",
          "name": "spaceId",
          "type": "uint256"
        },
        {
          "internalType": "uint256",
          "name": "roleId",
          "type": "uint256"
        },
        {
          "components": [
            {
              "internalType": "string",
              "name": "name",
              "type": "string"
            }
          ],
          "internalType": "struct DataTypes.Permission",
          "name": "permission",
          "type": "tuple"
        }
      ],
      "name": "removePermissionFromRole",
      "outputs": [],
      "stateMutability": "nonpayable",
      "type": "function"
    },
    {
      "inputs": [
        {
          "internalType": "uint256",
          "name": "spaceId",
          "type": "uint256"
        },
        {
          "internalType": "uint256",
          "name": "roleId",
          "type": "uint256"
        }
      ],
      "name": "removeRole",
      "outputs": [],
      "stateMutability": "nonpayable",
      "type": "function"
    },
    {
      "inputs": [],
      "name": "renounceOwnership",
      "outputs": [],
      "stateMutability": "nonpayable",
      "type": "function"
    },
    {
      "inputs": [
        {
          "internalType": "address",
          "name": "spaceManager",
          "type": "address"
        }
      ],
      "name": "setSpaceManager",
      "outputs": [],
      "stateMutability": "nonpayable",
      "type": "function"
    },
    {
      "inputs": [
        {
          "internalType": "address",
          "name": "newOwner",
          "type": "address"
        }
      ],
      "name": "transferOwnership",
      "outputs": [],
      "stateMutability": "nonpayable",
      "type": "function"
    }
  ],
  "bytecode": {
    "object": "0x60a06040523480156200001157600080fd5b5060405162001dc238038062001dc28339810160408190526200003491620000c9565b6200003f3362000079565b6001600160a01b0381166200006757604051630e52390960e41b815260040160405180910390fd5b6001600160a01b0316608052620000fb565b600080546001600160a01b038381166001600160a01b0319831681178455604051919092169283917f8be0079c531659141344cd1fd0a4f28419497f9722a3daafe3b4186f6b6457e09190a35050565b600060208284031215620000dc57600080fd5b81516001600160a01b0381168114620000f457600080fd5b9392505050565b608051611ca46200011e60003960008181610d3a0152610e390152611ca46000f3fe608060405234801561001057600080fd5b50600436106100ea5760003560e01c8063a7d325fc1161008c578063db474ecb11610066578063db474ecb146101ea578063e88ca8a1146101fd578063f2fde38b14610210578063f62df4df1461022357600080fd5b8063a7d325fc14610197578063cdb0ba50146101b7578063d9af4ecf146101ca57600080fd5b806364049004116100c8578063640490041461014057806368959a0214610161578063715018a6146101745780638da5cb5b1461017c57600080fd5b80633368c918146100ef5780634b30a3301461010457806352f1bea214610117575b600080fd5b6101026100fd36600461141d565b610236565b005b61010261011236600461146c565b61027a565b61012a610125366004611495565b6102a4565b6040516101379190611525565b60405180910390f35b61015361014e366004611587565b6103b5565b604051908152602001610137565b61010261016f366004611624565b610451565b6101026106e9565b6000546040516001600160a01b039091168152602001610137565b6101aa6101a5366004611694565b6106fd565b60405161013791906116b6565b6101026101c5366004611694565b610800565b6101dd6101d8366004611694565b610a60565b6040516101379190611713565b6101026101f836600461141d565b610bdd565b61015361020b366004611726565b610c1c565b61010261021e36600461146c565b610c5d565b610153610231366004611495565b610cdb565b6003546001600160a01b03163314610261576040516312cb521760e11b815260040160405180910390fd5b61026a81610e04565b610275838383610f1b565b505050565b610282610f28565b600380546001600160a01b0319166001600160a01b0392909216919091179055565b606060016000838152602001908152602001600020600101805480602002602001604051908101604052809291908181526020016000905b828210156103aa5783829060005260206000209060020201604051806040016040529081600082015481526020016001820180546103199061176c565b80601f01602080910402602001604051908101604052809291908181526020018280546103459061176c565b80156103925780601f1061036757610100808354040283529160200191610392565b820191906000526020600020905b81548152906001019060200180831161037557829003601f168201915b505050505081525050815260200190600101906102dc565b505050509050919050565b6003546000906001600160a01b031633146103e3576040516312cb521760e11b815260040160405180910390fd5b60006103f186866001610f82565b905060005b83811015610447576104358783878785818110610415576104156117a6565b905060200281019061042791906117bc565b610430906117dc565b610f1b565b8061043f816117fe565b9150506103f6565b5095945050505050565b6003546001600160a01b0316331461047c576040516312cb521760e11b815260040160405180910390fd5b6104d882828080601f0160208091040260200160405190810160405280939291908181526020018383808284376000920191909152505060408051808201909152600581526427bbb732b960d91b602082015291506110019050565b156104f657604051630e52390960e41b815260040160405180910390fd5b600084815260016020818152604080842090920180548351818402810184019094528084529091849084015b828210156105f057838290600052602060002090600202016040518060400160405290816000820154815260200160018201805461055f9061176c565b80601f016020809104026020016040519081016040528092919081815260200182805461058b9061176c565b80156105d85780601f106105ad576101008083540402835291602001916105d8565b820191906000526020600020905b8154815290600101906020018083116105bb57829003601f168201915b50505050508152505081526020019060010190610522565b5050825192935060009150505b818110156106e057828181518110610617576106176117a6565b60200260200101516000015186036106d85761068683828151811061063e5761063e6117a6565b60200260200101516020015186868080601f01602080910402602001604051908101604052809392919081815260200183838082843760009201919091525061100192505050565b6106d3578484600160008a815260200190815260200160002060010183815481106106b3576106b36117a6565b906000526020600020906002020160010191826106d1929190611872565b505b6106e0565b6001016105fd565b50505050505050565b6106f1610f28565b6106fb6000611099565b565b60008281526002602090815260408083208484528252808320805482518185028101850190935280835260609492939192909184015b828210156107f3578382906000526020600020016040518060200160405290816000820180546107629061176c565b80601f016020809104026020016040519081016040528092919081815260200182805461078e9061176c565b80156107db5780601f106107b0576101008083540402835291602001916107db565b820191906000526020600020905b8154815290600101906020018083116107be57829003601f168201915b50505050508152505081526020019060010190610733565b5050505090505b92915050565b6003546001600160a01b0316331461082b576040516312cb521760e11b815260040160405180910390fd5b6000828152600160208190526040822001805490915b81811015610a595782818154811061085b5761085b6117a6565b9060005260206000209060020201600001548403610a51576000858152600260209081526040808320878452825280832080548251818502810185019093528083529192909190849084015b82821015610967578382906000526020600020016040518060200160405290816000820180546108d69061176c565b80601f01602080910402602001604051908101604052809291908181526020018280546109029061176c565b801561094f5780601f106109245761010080835404028352916020019161094f565b820191906000526020600020905b81548152906001019060200180831161093257829003601f168201915b505050505081525050815260200190600101906108a7565b5050825192935060009150505b818110156109a8576109a08888858481518110610993576109936117a6565b60200260200101516110e9565b600101610974565b50846109b560018661192b565b815481106109c5576109c56117a6565b90600052602060002090600202018584815481106109e5576109e56117a6565b600091825260209091208254600290920201908155600180820190610a0c9084018261193e565b5090505084805480610a2057610a20611a14565b60008281526020812060026000199093019283020181815590610a46600183018261129d565b505090555050610a59565b600101610841565b5050505050565b604080518082019091526000815260606020820152600083815260016020818152604080842090920180548351818402810184019094528084529091849084015b82821015610b6f578382906000526020600020906002020160405180604001604052908160008201548152602001600182018054610ade9061176c565b80601f0160208091040260200160405190810160405280929190818152602001828054610b0a9061176c565b8015610b575780601f10610b2c57610100808354040283529160200191610b57565b820191906000526020600020905b815481529060010190602001808311610b3a57829003601f168201915b50505050508152505081526020019060010190610aa1565b5050825192935060009150505b81811015610bd457828181518110610b9657610b966117a6565b6020026020010151600001518503610bcc57828181518110610bba57610bba6117a6565b602002602001015193505050506107fa565b600101610b7c565b50505092915050565b6003546001600160a01b03163314610c08576040516312cb521760e11b815260040160405180910390fd5b610c1181610e04565b6102758383836110e9565b6003546000906001600160a01b03163314610c4a576040516312cb521760e11b815260040160405180910390fd5b610c5683836001610f82565b9392505050565b610c65610f28565b6001600160a01b038116610ccf5760405162461bcd60e51b815260206004820152602660248201527f4f776e61626c653a206e6577206f776e657220697320746865207a65726f206160448201526564647265737360d01b60648201526084015b60405180910390fd5b610cd881611099565b50565b6003546000906001600160a01b03163314610d09576040516312cb521760e11b815260040160405180910390fd5b6000610d34836040518060400160405280600581526020016427bbb732b960d91b8152506001610f82565b905060007f00000000000000000000000000000000000000000000000000000000000000006001600160a01b031663b989e2c56040518163ffffffff1660e01b8152600401600060405180830381865afa158015610d96573d6000803e3d6000fd5b505050506040513d6000823e601f3d908101601f19168201604052610dbe9190810190611aac565b805190915060005b81811015610dfa57610df28685858481518110610de557610de56117a6565b6020026020010151610f1b565b600101610dc6565b5091949350505050565b60405163173c4a6360e01b81527f929f3fd6848015f83b9210c89f7744e3941acae1195c8bf9f5798c090dc8f49760048201527f00000000000000000000000000000000000000000000000000000000000000006001600160a01b03169063173c4a6390602401600060405180830381865afa158015610e88573d6000803e3d6000fd5b505050506040513d6000823e601f3d908101601f19168201604052610eb09190810190611b6e565b604051602001610ec09190611ba2565b6040516020818303038152906040528051906020012081604051602001610ee79190611ba2565b6040516020818303038152906040528051906020012003610cd857604051630e52390960e41b815260040160405180910390fd5b6102758383836002611265565b6000546001600160a01b031633146106fb5760405162461bcd60e51b815260206004820181905260248201527f4f776e61626c653a2063616c6c6572206973206e6f7420746865206f776e65726044820152606401610cc6565b60008381526020829052604081208054829182610f9e836117fe565b9091555060008681526020858152604080832081518083019092528482528183018981526001918201805480840182559086529390942082516002909402019283559251939450929091820190610ff59082611bbd565b50919695505050505050565b815181516000918491849190811461101f57600093505050506107fa565b60005b8181101561108c5782818151811061103c5761103c6117a6565b602001015160f81c60f81b6001600160f81b031916848281518110611063576110636117a6565b01602001516001600160f81b031916146110845760009450505050506107fa565b600101611022565b5060019695505050505050565b600080546001600160a01b038381166001600160a01b0319831681178455604051919092169283917f8be0079c531659141344cd1fd0a4f28419497f9722a3daafe3b4186f6b6457e09190a35050565b60008381526002602090815260408083208584529091528120805490915b8181101561125d576111c48460000151848381548110611129576111296117a6565b9060005260206000200160000180546111419061176c565b80601f016020809104026020016040519081016040528092919081815260200182805461116d9061176c565b80156111ba5780601f1061118f576101008083540402835291602001916111ba565b820191906000526020600020905b81548152906001019060200180831161119d57829003601f168201915b5050505050611001565b1561125557826111d560018461192b565b815481106111e5576111e56117a6565b90600052602060002001838281548110611201576112016117a6565b600091825260209091200180611217838261193e565b509050508280548061122b5761122b611a14565b600190038181906000526020600020016000808201600061124c919061129d565b5050905561125d565b600101611107565b505050505050565b600084815260208281526040808320868452825282208054600181018255908352912083518492919091019081906106e09082611bbd565b5080546112a99061176c565b6000825580601f106112b9575050565b601f016020900490600052602060002090810190610cd891905b808211156112e757600081556001016112d3565b5090565b634e487b7160e01b600052604160045260246000fd5b604051602081016001600160401b0381118282101715611323576113236112eb565b60405290565b604051601f8201601f191681016001600160401b0381118282101715611351576113516112eb565b604052919050565b60006001600160401b03821115611372576113726112eb565b50601f01601f191660200190565b600082601f83011261139157600080fd5b81356113a461139f82611359565b611329565b8181528460208386010111156113b957600080fd5b816020850160208301376000918101602001919091529392505050565b6000602082840312156113e857600080fd5b6113f0611301565b905081356001600160401b0381111561140857600080fd5b61141484828501611380565b82525092915050565b60008060006060848603121561143257600080fd5b833592506020840135915060408401356001600160401b0381111561145657600080fd5b611462868287016113d6565b9150509250925092565b60006020828403121561147e57600080fd5b81356001600160a01b0381168114610c5657600080fd5b6000602082840312156114a757600080fd5b5035919050565b60005b838110156114c95781810151838201526020016114b1565b50506000910152565b600081518084526114ea8160208601602086016114ae565b601f01601f19169290920160200192915050565b80518252600060208201516040602085015261151d60408501826114d2565b949350505050565b6000602080830181845280855180835260408601915060408160051b870101925083870160005b8281101561157a57603f198886030184526115688583516114fe565b9450928501929085019060010161154c565b5092979650505050505050565b6000806000806060858703121561159d57600080fd5b8435935060208501356001600160401b03808211156115bb57600080fd5b6115c788838901611380565b945060408701359150808211156115dd57600080fd5b818701915087601f8301126115f157600080fd5b81358181111561160057600080fd5b8860208260051b850101111561161557600080fd5b95989497505060200194505050565b6000806000806060858703121561163a57600080fd5b843593506020850135925060408501356001600160401b038082111561165f57600080fd5b818701915087601f83011261167357600080fd5b81358181111561168257600080fd5b88602082850101111561161557600080fd5b600080604083850312156116a757600080fd5b50508035926020909101359150565b6000602080830181845280855180835260408601915060408160051b870101925083870160005b8281101561157a57878503603f19018452815151868652611700878701826114d2565b95505092850192908501906001016116dd565b602081526000610c5660208301846114fe565b6000806040838503121561173957600080fd5b8235915060208301356001600160401b0381111561175657600080fd5b61176285828601611380565b9150509250929050565b600181811c9082168061178057607f821691505b6020821081036117a057634e487b7160e01b600052602260045260246000fd5b50919050565b634e487b7160e01b600052603260045260246000fd5b60008235601e198336030181126117d257600080fd5b9190910192915050565b60006107fa36836113d6565b634e487b7160e01b600052601160045260246000fd5b600060018201611810576118106117e8565b5060010190565b601f82111561027557600081815260208120601f850160051c8101602086101561183e5750805b601f850160051c820191505b8181101561125d5782815560010161184a565b600019600383901b1c191660019190911b1790565b6001600160401b03831115611889576118896112eb565b61189d83611897835461176c565b83611817565b6000601f8411600181146118cb57600085156118b95750838201355b6118c3868261185d565b845550610a59565b600083815260209020601f19861690835b828110156118fc57868501358255602094850194600190920191016118dc565b50868210156119195760001960f88860031b161c19848701351681555b505060018560011b0183555050505050565b818103818111156107fa576107fa6117e8565b818103611949575050565b611953825461176c565b6001600160401b0381111561196a5761196a6112eb565b61197e81611978845461176c565b84611817565b6000601f8211600181146119ac576000831561199a5750848201545b6119a4848261185d565b855550610a59565b600085815260209020601f19841690600086815260209020845b838110156119e657828601548255600195860195909101906020016119c6565b5085831015611a045781850154600019600388901b60f8161c191681555b5050505050600190811b01905550565b634e487b7160e01b600052603160045260246000fd5b600060208284031215611a3c57600080fd5b611a44611301565b905081516001600160401b03811115611a5c57600080fd5b8201601f81018413611a6d57600080fd5b8051611a7b61139f82611359565b818152856020838501011115611a9057600080fd5b611aa18260208301602086016114ae565b835250909392505050565b60006020808385031215611abf57600080fd5b82516001600160401b0380821115611ad657600080fd5b818501915085601f830112611aea57600080fd5b815181811115611afc57611afc6112eb565b8060051b611b0b858201611329565b9182528381018501918581019089841115611b2557600080fd5b86860192505b83831015611b6157825185811115611b435760008081fd5b611b518b89838a0101611a2a565b8352509186019190860190611b2b565b9998505050505050505050565b600060208284031215611b8057600080fd5b81516001600160401b03811115611b9657600080fd5b61151d84828501611a2a565b602081526000825160208084015261151d60408401826114d2565b81516001600160401b03811115611bd657611bd66112eb565b611be481611978845461176c565b602080601f831160018114611c135760008415611c015750858301515b611c0b858261185d565b86555061125d565b600085815260208120601f198616915b82811015611c4257888601518255948401946001909101908401611c23565b5085821015611a0457939096015160001960f8600387901b161c19169092555050600190811b0190555056fea2646970667358221220ade5a21a311a3385c9de39bce5e3b7df96af19c11e941bf3f28dfbc2b27ccfb364736f6c63430008110033",
    "linkReferences": {}
  },
  "methodIdentifiers": {
    "addPermissionToRole(uint256,uint256,(string))": "3368c918",
    "createOwnerRole(uint256)": "f62df4df",
    "createRole(uint256,string)": "e88ca8a1",
    "createRole(uint256,string,(string)[])": "64049004",
    "getPermissionsBySpaceIdByRoleId(uint256,uint256)": "a7d325fc",
    "getRoleBySpaceIdByRoleId(uint256,uint256)": "d9af4ecf",
    "getRolesBySpaceId(uint256)": "52f1bea2",
    "modifyRoleName(uint256,uint256,string)": "68959a02",
    "owner()": "8da5cb5b",
    "removePermissionFromRole(uint256,uint256,(string))": "db474ecb",
    "removeRole(uint256,uint256)": "cdb0ba50",
    "renounceOwnership()": "715018a6",
    "setSpaceManager(address)": "4b30a330",
    "transferOwnership(address)": "f2fde38b"
  },
  "id": 26
}