{
  "abi": [
    {
      "inputs": [
        {
          "internalType": "address",
          "name": "_permissionRegistry",
          "type": "address"
        },
        {
          "internalType": "address",
          "name": "_roleManager",
          "type": "address"
        }
      ],
      "stateMutability": "nonpayable",
      "type": "constructor"
    },
    {
      "inputs": [],
      "name": "AddRoleFailed",
      "type": "error"
    },
    {
      "inputs": [],
      "name": "ChannelDoesNotExist",
      "type": "error"
    },
    {
      "inputs": [],
      "name": "DefaultEntitlementModuleNotSet",
      "type": "error"
    },
    {
      "inputs": [],
      "name": "DefaultPermissionsManagerNotSet",
      "type": "error"
    },
    {
      "inputs": [],
      "name": "EntitlementAlreadyWhitelisted",
      "type": "error"
    },
    {
      "inputs": [],
      "name": "EntitlementModuleNotSupported",
      "type": "error"
    },
    {
      "inputs": [],
      "name": "EntitlementNotWhitelisted",
      "type": "error"
    },
    {
      "inputs": [],
      "name": "InvalidParameters",
      "type": "error"
    },
    {
      "inputs": [],
      "name": "NameContainsInvalidCharacters",
      "type": "error"
    },
    {
      "inputs": [],
      "name": "NameLengthInvalid",
      "type": "error"
    },
    {
      "inputs": [],
      "name": "NotAllowed",
      "type": "error"
    },
    {
      "inputs": [],
      "name": "SpaceDoesNotExist",
      "type": "error"
    },
    {
      "inputs": [],
      "name": "SpaceNFTNotSet",
      "type": "error"
    },
    {
      "anonymous": false,
      "inputs": [
        {
          "indexed": true,
          "internalType": "address",
          "name": "previousOwner",
          "type": "address"
        },
        {
          "indexed": true,
          "internalType": "address",
          "name": "newOwner",
          "type": "address"
        }
      ],
      "name": "OwnershipTransferred",
      "type": "event"
    },
    {
      "inputs": [
        {
          "internalType": "string",
          "name": "spaceId",
          "type": "string"
        },
        {
          "internalType": "uint256",
          "name": "roleId",
          "type": "uint256"
        },
        {
          "components": [
            {
              "internalType": "string",
              "name": "name",
              "type": "string"
            }
          ],
          "internalType": "struct DataTypes.Permission",
          "name": "permission",
          "type": "tuple"
        }
      ],
      "name": "addPermissionToRole",
      "outputs": [],
      "stateMutability": "nonpayable",
      "type": "function"
    },
    {
      "inputs": [
        {
          "internalType": "string",
          "name": "spaceId",
          "type": "string"
        },
        {
          "internalType": "string",
          "name": "channelId",
          "type": "string"
        },
        {
          "internalType": "uint256[]",
          "name": "roleId",
          "type": "uint256[]"
        }
      ],
      "name": "addRoleIdsToChannel",
      "outputs": [],
      "stateMutability": "nonpayable",
      "type": "function"
    },
    {
      "inputs": [
        {
          "internalType": "string",
          "name": "spaceNetworkId",
          "type": "string"
        },
        {
          "internalType": "address",
          "name": "entitlementModuleAddress",
          "type": "address"
        },
        {
          "internalType": "uint256",
          "name": "roleId",
          "type": "uint256"
        },
        {
          "internalType": "bytes",
          "name": "entitlementData",
          "type": "bytes"
        }
      ],
      "name": "addRoleToEntitlementModule",
      "outputs": [],
      "stateMutability": "nonpayable",
      "type": "function"
    },
    {
      "inputs": [
        {
          "components": [
            {
              "internalType": "string",
              "name": "spaceNetworkId",
              "type": "string"
            },
            {
              "internalType": "string",
              "name": "channelName",
              "type": "string"
            },
            {
              "internalType": "string",
              "name": "channelNetworkId",
              "type": "string"
            },
            {
              "internalType": "uint256[]",
              "name": "roleIds",
              "type": "uint256[]"
            }
          ],
          "internalType": "struct DataTypes.CreateChannelData",
          "name": "data",
          "type": "tuple"
        }
      ],
      "name": "createChannel",
      "outputs": [
        {
          "internalType": "uint256",
          "name": "channelId",
          "type": "uint256"
        }
      ],
      "stateMutability": "nonpayable",
      "type": "function"
    },
    {
      "inputs": [
        {
          "internalType": "string",
          "name": "spaceNetworkId",
          "type": "string"
        },
        {
          "internalType": "string",
          "name": "name",
          "type": "string"
        }
      ],
      "name": "createRole",
      "outputs": [
        {
          "internalType": "uint256",
          "name": "roleId",
          "type": "uint256"
        }
      ],
      "stateMutability": "nonpayable",
      "type": "function"
    },
    {
      "inputs": [
        {
          "internalType": "string",
          "name": "spaceNetworkId",
          "type": "string"
        },
        {
          "internalType": "string",
          "name": "roleName",
          "type": "string"
        },
        {
          "components": [
            {
              "internalType": "string",
              "name": "name",
              "type": "string"
            }
          ],
          "internalType": "struct DataTypes.Permission[]",
          "name": "permissions",
          "type": "tuple[]"
        },
        {
          "components": [
            {
              "components": [
                {
                  "internalType": "address",
                  "name": "contractAddress",
                  "type": "address"
                },
                {
                  "internalType": "uint256",
                  "name": "quantity",
                  "type": "uint256"
                },
                {
                  "internalType": "bool",
                  "name": "isSingleToken",
                  "type": "bool"
                },
                {
                  "internalType": "uint256",
                  "name": "tokenId",
                  "type": "uint256"
                }
              ],
              "internalType": "struct DataTypes.ExternalToken[]",
              "name": "tokens",
              "type": "tuple[]"
            }
          ],
          "internalType": "struct DataTypes.ExternalTokenEntitlement[]",
          "name": "tokenEntitlements",
          "type": "tuple[]"
        },
        {
          "internalType": "address[]",
          "name": "users",
          "type": "address[]"
        }
      ],
      "name": "createRoleWithEntitlementData",
      "outputs": [
        {
          "internalType": "uint256",
          "name": "roleId",
          "type": "uint256"
        }
      ],
      "stateMutability": "nonpayable",
      "type": "function"
    },
    {
      "inputs": [
        {
          "components": [
            {
              "internalType": "string",
              "name": "spaceName",
              "type": "string"
            },
            {
              "internalType": "string",
              "name": "spaceNetworkId",
              "type": "string"
            },
            {
              "internalType": "string",
              "name": "spaceMetadata",
              "type": "string"
            }
          ],
          "internalType": "struct DataTypes.CreateSpaceData",
          "name": "info",
          "type": "tuple"
        },
        {
          "components": [
            {
              "internalType": "string",
              "name": "roleName",
              "type": "string"
            },
            {
              "components": [
                {
                  "internalType": "string",
                  "name": "name",
                  "type": "string"
                }
              ],
              "internalType": "struct DataTypes.Permission[]",
              "name": "permissions",
              "type": "tuple[]"
            },
            {
              "components": [
                {
                  "components": [
                    {
                      "internalType": "address",
                      "name": "contractAddress",
                      "type": "address"
                    },
                    {
                      "internalType": "uint256",
                      "name": "quantity",
                      "type": "uint256"
                    },
                    {
                      "internalType": "bool",
                      "name": "isSingleToken",
                      "type": "bool"
                    },
                    {
                      "internalType": "uint256",
                      "name": "tokenId",
                      "type": "uint256"
                    }
                  ],
                  "internalType": "struct DataTypes.ExternalToken[]",
                  "name": "tokens",
                  "type": "tuple[]"
                }
              ],
              "internalType": "struct DataTypes.ExternalTokenEntitlement[]",
              "name": "externalTokenEntitlements",
              "type": "tuple[]"
            },
            {
              "internalType": "address[]",
              "name": "users",
              "type": "address[]"
            }
          ],
          "internalType": "struct DataTypes.CreateSpaceEntitlementData",
          "name": "entitlementData",
          "type": "tuple"
        },
        {
          "components": [
            {
              "internalType": "string",
              "name": "name",
              "type": "string"
            }
          ],
          "internalType": "struct DataTypes.Permission[]",
          "name": "everyonePermissions",
          "type": "tuple[]"
        }
      ],
      "name": "createSpace",
      "outputs": [
        {
          "internalType": "uint256",
          "name": "",
          "type": "uint256"
        }
      ],
      "stateMutability": "nonpayable",
      "type": "function"
    },
    {
      "inputs": [
        {
          "internalType": "string",
          "name": "spaceId",
          "type": "string"
        },
        {
          "internalType": "string",
          "name": "channelId",
          "type": "string"
        }
      ],
      "name": "getChannelIdByNetworkId",
      "outputs": [
        {
          "internalType": "uint256",
          "name": "",
          "type": "uint256"
        }
      ],
      "stateMutability": "view",
      "type": "function"
    },
    {
      "inputs": [
        {
          "internalType": "string",
          "name": "spaceId",
          "type": "string"
        },
        {
          "internalType": "string",
          "name": "channelId",
          "type": "string"
        }
      ],
      "name": "getChannelInfoByChannelId",
      "outputs": [
        {
          "components": [
            {
              "internalType": "uint256",
              "name": "channelId",
              "type": "uint256"
            },
            {
              "internalType": "string",
              "name": "networkId",
              "type": "string"
            },
            {
              "internalType": "uint256",
              "name": "createdAt",
              "type": "uint256"
            },
            {
              "internalType": "string",
              "name": "name",
              "type": "string"
            },
            {
              "internalType": "address",
              "name": "creator",
              "type": "address"
            },
            {
              "internalType": "bool",
              "name": "disabled",
              "type": "bool"
            }
          ],
          "internalType": "struct DataTypes.ChannelInfo",
          "name": "",
          "type": "tuple"
        }
      ],
      "stateMutability": "view",
      "type": "function"
    },
    {
      "inputs": [
        {
          "internalType": "string",
          "name": "spaceId",
          "type": "string"
        }
      ],
      "name": "getChannelsBySpaceId",
      "outputs": [
        {
          "components": [
            {
              "internalType": "uint256",
              "name": "idCounter",
              "type": "uint256"
            },
            {
              "components": [
                {
                  "internalType": "uint256",
                  "name": "channelId",
                  "type": "uint256"
                },
                {
                  "internalType": "uint256",
                  "name": "createdAt",
                  "type": "uint256"
                },
                {
                  "internalType": "string",
                  "name": "networkId",
                  "type": "string"
                },
                {
                  "internalType": "string",
                  "name": "name",
                  "type": "string"
                },
                {
                  "internalType": "address",
                  "name": "creator",
                  "type": "address"
                },
                {
                  "internalType": "bool",
                  "name": "disabled",
                  "type": "bool"
                }
              ],
              "internalType": "struct DataTypes.Channel[]",
              "name": "channels",
              "type": "tuple[]"
            }
          ],
          "internalType": "struct DataTypes.Channels",
          "name": "",
          "type": "tuple"
        }
      ],
      "stateMutability": "view",
      "type": "function"
    },
    {
      "inputs": [
        {
          "internalType": "string",
          "name": "spaceId",
          "type": "string"
        }
      ],
      "name": "getEntitlementModulesBySpaceId",
      "outputs": [
        {
          "internalType": "address[]",
          "name": "",
          "type": "address[]"
        }
      ],
      "stateMutability": "view",
      "type": "function"
    },
    {
      "inputs": [
        {
          "internalType": "string",
          "name": "spaceId",
          "type": "string"
        }
      ],
      "name": "getEntitlementsInfoBySpaceId",
      "outputs": [
        {
          "components": [
            {
              "internalType": "address",
              "name": "addr",
              "type": "address"
            },
            {
              "internalType": "string",
              "name": "name",
              "type": "string"
            },
            {
              "internalType": "string",
              "name": "moduleType",
              "type": "string"
            },
            {
              "internalType": "string",
              "name": "description",
              "type": "string"
            }
          ],
          "internalType": "struct DataTypes.EntitlementModuleInfo[]",
          "name": "",
          "type": "tuple[]"
        }
      ],
      "stateMutability": "view",
      "type": "function"
    },
    {
      "inputs": [
        {
          "internalType": "string",
          "name": "networkId",
          "type": "string"
        }
      ],
      "name": "getSpaceIdByNetworkId",
      "outputs": [
        {
          "internalType": "uint256",
          "name": "",
          "type": "uint256"
        }
      ],
      "stateMutability": "view",
      "type": "function"
    },
    {
      "inputs": [
        {
          "internalType": "string",
          "name": "spaceId",
          "type": "string"
        }
      ],
      "name": "getSpaceInfoBySpaceId",
      "outputs": [
        {
          "components": [
            {
              "internalType": "uint256",
              "name": "spaceId",
              "type": "uint256"
            },
            {
              "internalType": "string",
              "name": "networkId",
              "type": "string"
            },
            {
              "internalType": "uint256",
              "name": "createdAt",
              "type": "uint256"
            },
            {
              "internalType": "string",
              "name": "name",
              "type": "string"
            },
            {
              "internalType": "address",
              "name": "creator",
              "type": "address"
            },
            {
              "internalType": "address",
              "name": "owner",
              "type": "address"
            },
            {
              "internalType": "bool",
              "name": "disabled",
              "type": "bool"
            }
          ],
          "internalType": "struct DataTypes.SpaceInfo",
          "name": "",
          "type": "tuple"
        }
      ],
      "stateMutability": "view",
      "type": "function"
    },
    {
      "inputs": [
        {
          "internalType": "string",
          "name": "spaceId",
          "type": "string"
        }
      ],
      "name": "getSpaceOwnerBySpaceId",
      "outputs": [
        {
          "internalType": "address",
          "name": "",
          "type": "address"
        }
      ],
      "stateMutability": "view",
      "type": "function"
    },
    {
      "inputs": [],
      "name": "getSpaces",
      "outputs": [
        {
          "components": [
            {
              "internalType": "uint256",
              "name": "spaceId",
              "type": "uint256"
            },
            {
              "internalType": "string",
              "name": "networkId",
              "type": "string"
            },
            {
              "internalType": "uint256",
              "name": "createdAt",
              "type": "uint256"
            },
            {
              "internalType": "string",
              "name": "name",
              "type": "string"
            },
            {
              "internalType": "address",
              "name": "creator",
              "type": "address"
            },
            {
              "internalType": "address",
              "name": "owner",
              "type": "address"
            },
            {
              "internalType": "bool",
              "name": "disabled",
              "type": "bool"
            }
          ],
          "internalType": "struct DataTypes.SpaceInfo[]",
          "name": "",
          "type": "tuple[]"
        }
      ],
      "stateMutability": "view",
      "type": "function"
    },
    {
      "inputs": [
        {
          "internalType": "string",
          "name": "spaceId",
          "type": "string"
        },
        {
          "internalType": "string",
          "name": "channelId",
          "type": "string"
        },
        {
          "internalType": "address",
          "name": "user",
          "type": "address"
        },
        {
          "components": [
            {
              "internalType": "string",
              "name": "name",
              "type": "string"
            }
          ],
          "internalType": "struct DataTypes.Permission",
          "name": "permission",
          "type": "tuple"
        }
      ],
      "name": "isEntitled",
      "outputs": [
        {
          "internalType": "bool",
          "name": "",
          "type": "bool"
        }
      ],
      "stateMutability": "view",
      "type": "function"
    },
    {
      "inputs": [
        {
          "internalType": "string",
          "name": "spaceId",
          "type": "string"
        },
        {
          "internalType": "address",
          "name": "entitlementModuleAddress",
          "type": "address"
        }
      ],
      "name": "isEntitlementModuleWhitelisted",
      "outputs": [
        {
          "internalType": "bool",
          "name": "",
          "type": "bool"
        }
      ],
      "stateMutability": "view",
      "type": "function"
    },
    {
      "inputs": [],
      "name": "owner",
      "outputs": [
        {
          "internalType": "address",
          "name": "",
          "type": "address"
        }
      ],
      "stateMutability": "view",
      "type": "function"
    },
    {
      "inputs": [
        {
          "internalType": "string",
          "name": "spaceNetworkId",
          "type": "string"
        },
        {
          "internalType": "address",
          "name": "entitlementModuleAddress",
          "type": "address"
        },
        {
          "internalType": "uint256",
          "name": "roleId",
          "type": "uint256"
        },
        {
          "internalType": "bytes",
          "name": "data",
          "type": "bytes"
        }
      ],
      "name": "removeEntitlement",
      "outputs": [],
      "stateMutability": "nonpayable",
      "type": "function"
    },
    {
      "inputs": [
        {
          "internalType": "string",
          "name": "spaceNetworkId",
          "type": "string"
        },
        {
          "internalType": "uint256",
          "name": "roleId",
          "type": "uint256"
        },
        {
          "components": [
            {
              "internalType": "string",
              "name": "name",
              "type": "string"
            }
          ],
          "internalType": "struct DataTypes.Permission",
          "name": "permission",
          "type": "tuple"
        }
      ],
      "name": "removePermissionFromRole",
      "outputs": [],
      "stateMutability": "nonpayable",
      "type": "function"
    },
    {
      "inputs": [
        {
          "internalType": "string",
          "name": "spaceNetworkId",
          "type": "string"
        },
        {
          "internalType": "uint256",
          "name": "roleId",
          "type": "uint256"
        }
      ],
      "name": "removeRole",
      "outputs": [],
      "stateMutability": "nonpayable",
      "type": "function"
    },
    {
      "inputs": [
        {
          "internalType": "string",
          "name": "spaceId",
          "type": "string"
        },
        {
          "internalType": "string",
          "name": "channelId",
          "type": "string"
        },
        {
          "internalType": "uint256[]",
          "name": "roleId",
          "type": "uint256[]"
        }
      ],
      "name": "removeRoleIdsFromChannel",
      "outputs": [],
      "stateMutability": "nonpayable",
      "type": "function"
    },
    {
      "inputs": [],
      "name": "renounceOwnership",
      "outputs": [],
      "stateMutability": "nonpayable",
      "type": "function"
    },
    {
      "inputs": [
        {
          "internalType": "string",
          "name": "spaceNetworkId",
          "type": "string"
        },
        {
          "internalType": "string",
          "name": "channelNetworkId",
          "type": "string"
        },
        {
          "internalType": "bool",
          "name": "disabled",
          "type": "bool"
        }
      ],
      "name": "setChannelAccess",
      "outputs": [],
      "stateMutability": "nonpayable",
      "type": "function"
    },
    {
      "inputs": [
        {
          "internalType": "address",
          "name": "entitlementModule",
          "type": "address"
        }
      ],
      "name": "setDefaultTokenEntitlementModule",
      "outputs": [],
      "stateMutability": "nonpayable",
      "type": "function"
    },
    {
      "inputs": [
        {
          "internalType": "address",
          "name": "entitlementModule",
          "type": "address"
        }
      ],
      "name": "setDefaultUserEntitlementModule",
      "outputs": [],
      "stateMutability": "nonpayable",
      "type": "function"
    },
    {
      "inputs": [
        {
          "internalType": "string",
          "name": "spaceNetworkId",
          "type": "string"
        },
        {
          "internalType": "bool",
          "name": "disabled",
          "type": "bool"
        }
      ],
      "name": "setSpaceAccess",
      "outputs": [],
      "stateMutability": "nonpayable",
      "type": "function"
    },
    {
      "inputs": [
        {
          "internalType": "address",
          "name": "spaceNFTAddress",
          "type": "address"
        }
      ],
      "name": "setSpaceNFT",
      "outputs": [],
      "stateMutability": "nonpayable",
      "type": "function"
    },
    {
      "inputs": [
        {
          "internalType": "address",
          "name": "newOwner",
          "type": "address"
        }
      ],
      "name": "transferOwnership",
      "outputs": [],
      "stateMutability": "nonpayable",
      "type": "function"
    },
    {
      "inputs": [
        {
          "internalType": "string",
          "name": "spaceNetworkId",
          "type": "string"
        },
        {
          "internalType": "address",
          "name": "entitlementAddress",
          "type": "address"
        },
        {
          "internalType": "bool",
          "name": "whitelist",
          "type": "bool"
        }
      ],
      "name": "whitelistEntitlementModule",
      "outputs": [],
      "stateMutability": "nonpayable",
      "type": "function"
    }
  ],
  "bytecode": {
    "object": "0x60c06040523480156200001157600080fd5b50604051620055a8380380620055a8833981016040819052620000349162000129565b6200003f33620000bc565b6001600160a01b0382166200006757604051630e52390960e41b815260040160405180910390fd5b6001600160a01b0381166200008f57604051630e52390960e41b815260040160405180910390fd5b6001600160a01b0391821660a052166080819052600b80546001600160a01b031916909117905562000161565b600080546001600160a01b038381166001600160a01b0319831681178455604051919092169283917f8be0079c531659141344cd1fd0a4f28419497f9722a3daafe3b4186f6b6457e09190a35050565b80516001600160a01b03811681146200012457600080fd5b919050565b600080604083850312156200013d57600080fd5b62000148836200010c565b915062000158602084016200010c565b90509250929050565b60805160a05161541d6200018b60003960008181612f1801526137d301526000505061541d6000f3fe608060405234801561001057600080fd5b50600436106101e55760003560e01c80637a40ab901161010f578063ccde2de3116100a2578063e798ff3f11610071578063e798ff3f14610462578063f1b287d814610475578063f2fde38b14610488578063f86caf831461049b57600080fd5b8063ccde2de314610416578063d2192dbf14610429578063d6b1b6331461043c578063e1b7a9e51461044f57600080fd5b80638da5cb5b116100de5780638da5cb5b146103cc5780639ddd0d6b146103dd578063bf77b663146103f0578063c79ff5891461040357600080fd5b80637a40ab90146103805780637d9a02301461039357806381fb7db2146103a65780638b0e905a146103b957600080fd5b80633519167c116101875780634832a4ec116101565780634832a4ec1461033257806350c24eef14610345578063715018a61461036557806372a293211461036d57600080fd5b80633519167c146102c95780633e66eae3146102e957806340c0df81146102fc5780634196d1ff1461030f57600080fd5b80631a039620116101c35780631a039620146102485780631f2bd9e51461025d5780632a4bdf251461027e5780632bb59212146102a957600080fd5b80630db37ba3146101ea578063141b64981461021357806315478ca914610233575b600080fd5b6101fd6101f8366004613f80565b6104ae565b60405161020a919061403b565b60405180910390f35b6102266102213660046140b3565b61077f565b60405161020a91906140f4565b61023b610837565b60405161020a91906141be565b61025b610256366004614235565b610a5d565b005b61027061026b3660046142a8565b610aaf565b60405190815260200161020a565b61029161028c3660046140b3565b610ce2565b6040516001600160a01b03909116815260200161020a565b6102bc6102b73660046140b3565b610d9b565b60405161020a919061432e565b6102dc6102d73660046140b3565b610fb1565b60405161020a9190614341565b6102706102f7366004613f80565b611285565b61027061030a3660046143f8565b611303565b61032261031d3660046144e8565b611516565b604051901515815260200161020a565b61025b610340366004614550565b611591565b6103586103533660046146cf565b6116f6565b60405161020a919061470b565b61025b61191d565b61025b61037b3660046147e5565b611931565b61025b61038e366004614868565b611bc7565b61025b6103a1366004614550565b611d4f565b61025b6103b4366004614868565b611dff565b61025b6103c7366004614901565b611f7c565b6000546001600160a01b0316610291565b6102706103eb3660046140b3565b61215b565b6103226103fe36600461494c565b61219c565b61025b6104113660046149f2565b6122c7565b61025b610424366004614235565b61244e565b610270610437366004613f80565b6124a0565b61025b61044a3660046149f2565b612633565b61025b61045d366004614235565b6127ba565b61025b610470366004614a6d565b61280c565b610270610483366004614ad4565b612955565b61025b610496366004614235565b612cfd565b61025b6104a9366004614b08565b612d76565b6104f26040518060c001604052806000815260200160608152602001600081526020016060815260200160006001600160a01b031681526020016000151581525090565b600061053386868080601f016020809104026020016040519081016040528093929190818152602001838380828437600092019190915250612e4f92505050565b905060006105aa87878080601f01602080910402602001604051908101604052809392919081815260200183838082843760009201919091525050604080516020601f8b018190048102820181019092528981529250899150889081908401838280828437600092019190915250612e6992505050565b6040805160c081018252600085815260046020908152838220858352808252938220805484529185905292835260020180549394509092918301916105ee90614b59565b80601f016020809104026020016040519081016040528092919081815260200182805461061a90614b59565b80156106675780601f1061063c57610100808354040283529160200191610667565b820191906000526020600020905b81548152906001019060200180831161064a57829003601f168201915b5050509183525050600084815260046020908152604080832086845280835281842060018101548487015293879052909152600390910180549190920191906106af90614b59565b80601f01602080910402602001604051908101604052809291908181526020018280546106db90614b59565b80156107285780601f106106fd57610100808354040283529160200191610728565b820191906000526020600020905b81548152906001019060200180831161070b57829003601f168201915b50505091835250506000938452600460208181526040808720868852808352818820909301546001600160a01b038116838601529590965252600160a01b90920460ff161515929091019190915295945050505050565b6060600560006107c485858080601f016020809104026020016040519081016040528093929190818152602001838380828437600092019190915250612e4f92505050565b815260200190815260200160002060090180548060200260200160405190810160405280929190818152602001828054801561082957602002820191906000526020600020905b81546001600160a01b0316815260019091019060200180831161080b575b505050505090505b92915050565b606060006001546001600160401b03811115610855576108556145c2565b60405190808252806020026020018201604052801561088e57816020015b61087b613ee7565b8152602001906001900390816108735790505b50905060005b600154811015610a575760006005816108ae846001614ba3565b815260200190815260200160002090506040518060e00160405280826000015481526020018260020180546108e290614b59565b80601f016020809104026020016040519081016040528092919081815260200182805461090e90614b59565b801561095b5780601f106109305761010080835404028352916020019161095b565b820191906000526020600020905b81548152906001019060200180831161093e57829003601f168201915b505050505081526020018260010154815260200182600301805461097e90614b59565b80601f01602080910402602001604051908101604052809291908181526020018280546109aa90614b59565b80156109f75780601f106109cc576101008083540402835291602001916109f7565b820191906000526020600020905b8154815290600101906020018083116109da57829003601f168201915b505050918352505060048301546001600160a01b0390811660208301526005840154166040820152600783015460ff1615156060909101528351849084908110610a4357610a43614bb6565b602090810291909101015250600101610894565b50919050565b610a65612ebc565b600980546001600160a01b0319166001600160a01b0383169081179091556040517f07b136952c7460e1fc2d593fad96b5b379f28cc13a49857b6a825c5228c1a8d190600090a250565b6000610ab9612f16565b610acb610ac68680614bcc565b612fd7565b6000610ad6866131f3565b600a549091506001600160a01b0316631e3197908233610af960408b018b614bcc565b6040518563ffffffff1660e01b8152600401610b189493929190614c3b565b600060405180830381600087803b158015610b3257600080fd5b505af1158015610b46573d6000803e3d6000fd5b5050600854610b6392508391506001600160a01b03166001613273565b600954610b7c9082906001600160a01b03166001613273565b6000610b8782613349565b60008381526005602052604090206006018190559050610ba88286866134be565b506000610bb86020880188614c66565b9150508015610c8a57600b546000906001600160a01b031663e88ca8a185610be08b80614bcc565b6040518463ffffffff1660e01b8152600401610bfe93929190614caf565b6020604051808303816000875af1158015610c1d573d6000803e3d6000fd5b505050506040513d601f19601f82011682018060405250810190610c419190614cc9565b9050610c5a8482610c5560208c018c614c66565b613617565b610c718482610c6c60408c018c614c66565b6136b4565b610c888482610c8360608c018c614c66565b613720565b505b33610c9860208a018a614bcc565b604051610ca6929190614ce2565b604051908190038120907ff53000b1113bed1ef6bf6b948fa1fe2c66a643b317a45c5d52a1537050b2dad290600090a350909695505050505050565b600a54604080516020601f85018190048102820181019092528381526000926001600160a01b03169163cc3f8dc891610d35918790879081908401838280828437600092019190915250612e4f92505050565b6040518263ffffffff1660e01b8152600401610d5391815260200190565b602060405180830381865afa158015610d70573d6000803e3d6000fd5b505050506040513d601f19601f82011682018060405250810190610d949190614cf2565b9392505050565b610da3613ee7565b6000610de484848080601f016020809104026020016040519081016040528093929190818152602001838380828437600092019190915250612e4f92505050565b6040805160e081018252600083815260056020818152938220805484529185905283526002018054939450909291830191610e1e90614b59565b80601f0160208091040260200160405190810160405280929190818152602001828054610e4a90614b59565b8015610e975780601f10610e6c57610100808354040283529160200191610e97565b820191906000526020600020905b815481529060010190602001808311610e7a57829003601f168201915b5050505050815260200160056000848152602001908152602001600020600101548152602001600560008481526020019081526020016000206003018054610ede90614b59565b80601f0160208091040260200160405190810160405280929190818152602001828054610f0a90614b59565b8015610f575780601f10610f2c57610100808354040283529160200191610f57565b820191906000526020600020905b815481529060010190602001808311610f3a57829003601f168201915b5050509183525050600083815260056020818152604080842060048101546001600160a01b039081168488015281850154169186019190915295909252905260079092015460ff1615156060909201919091529392505050565b60606000610ff484848080601f016020809104026020016040519081016040528093929190818152602001838380828437600092019190915250612e4f92505050565b600081815260056020526040812060090154919250906001600160401b03811115611021576110216145c2565b60405190808252806020026020018201604052801561108657816020015b611073604051806080016040528060006001600160a01b031681526020016060815260200160608152602001606081525090565b81526020019060019003908161103f5790505b506000838152600560205260408120600901549192505b8181101561127a5760008481526005602052604081206009018054839081106110c8576110c8614bb6565b6000918252602090912001546001600160a01b03169050806110ea5750611268565b60006040518060800160405280836001600160a01b03168152602001836001600160a01b03166306fdde036040518163ffffffff1660e01b8152600401600060405180830381865afa158015611144573d6000803e3d6000fd5b505050506040513d6000823e601f3d908101601f1916820160405261116c9190810190614d54565b8152602001836001600160a01b0316636465e69f6040518163ffffffff1660e01b8152600401600060405180830381865afa1580156111af573d6000803e3d6000fd5b505050506040513d6000823e601f3d908101601f191682016040526111d79190810190614d54565b8152602001836001600160a01b0316637284e4166040518163ffffffff1660e01b8152600401600060405180830381865afa15801561121a573d6000803e3d6000fd5b505050506040513d6000823e601f3d908101601f191682016040526112429190810190614d54565b81525090508085848151811061125a5761125a614bb6565b602002602001018190525050505b8061127281614d88565b91505061109d565b509095945050505050565b60006112fa85858080601f01602080910402602001604051908101604052809392919081815260200183838082843760009201919091525050604080516020601f89018190048102820181019092528781529250879150869081908401838280828437600092019190915250612e6992505050565b95945050505050565b6000856113575760405162461bcd60e51b815260206004820152601760248201527f4e6f207065726d697373696f6e732070726f766964656400000000000000000060448201526064015b60405180910390fd5b6113b48b8b8080601f0160208091040260200160405190810160405280939291908181526020018383808284376000920182905250604080516020810190915290815292506000805160206153a883398151915291506137879050565b60006113f58c8c8080601f016020809104026020016040519081016040528093929190818152602001838380828437600092019190915250612e4f92505050565b600b5460405163e88ca8a160e01b81529192506001600160a01b03169063e88ca8a19061142a9084908e908e90600401614caf565b6020604051808303816000875af1158015611449573d6000803e3d6000fd5b505050506040513d601f19601f8201168201806040525081019061146d9190614cc9565b915061147b81838a8a613617565b611487818388886136b4565b61149381838686613720565b89896040516114a3929190614ce2565b6040518091039020828d8d6040516114bc929190614ce2565b60405180910390207feb29af321b2cd1d53b9e6e813395256774b0015589f25c335a6d00670a164ac86114ec3390565b6040516001600160a01b03909116815260200160405180910390a4509a9950505050505050505050565b60006005600061155b86868080601f016020809104026020016040519081016040528093929190818152602001838380828437600092019190915250612e4f92505050565b8152602080820192909252604090810160009081206001600160a01b038616825260080190925290205460ff1690509392505050565b6115ee84848080601f0160208091040260200160405190810160405280939291908181526020018383808284376000920182905250604080516020810190915290815292506000805160206153a883398151915291506137879050565b600b54604080516020601f87018190048102820181019092528581526001600160a01b039092169163db474ecb9161164191908890889081908401838280828437600092019190915250612e4f92505050565b84846040518463ffffffff1660e01b815260040161166193929190614de6565b600060405180830381600087803b15801561167b57600080fd5b505af115801561168f573d6000803e3d6000fd5b505050508184846040516116a4929190614ce2565b60405180910390207fb72e43fbdf2abeb3bfe59e783bcca829d13e9fcde1eac425751faabea6c134c96116d43390565b6040516001600160a01b0390911681526020015b60405180910390a350505050565b6040805180820190915260008152606060208201526006600061172d84805160209182012060009081526002909152604090205490565b81526020019081526020016000206040518060400160405290816000820154815260200160018201805480602002602001604051908101604052809291908181526020016000905b8282101561190f57838290600052602060002090600502016040518060c001604052908160008201548152602001600182015481526020016002820180546117bc90614b59565b80601f01602080910402602001604051908101604052809291908181526020018280546117e890614b59565b80156118355780601f1061180a57610100808354040283529160200191611835565b820191906000526020600020905b81548152906001019060200180831161181857829003601f168201915b5050505050815260200160038201805461184e90614b59565b80601f016020809104026020016040519081016040528092919081815260200182805461187a90614b59565b80156118c75780601f1061189c576101008083540402835291602001916118c7565b820191906000526020600020905b8154815290600101906020018083116118aa57829003601f168201915b5050509183525050600491909101546001600160a01b038116602080840191909152600160a01b90910460ff1615156040909201919091529082526001929092019101611775565b505050915250909392505050565b611925612ebc565b61192f600061386f565b565b6119b485858080601f01602080910402602001604051908101604052809392919081815260200183838082843760009201919091525050604080516020601f890181900481028201810190925287815292508791508690819084018382808284376000920191909152506000805160206153c88339815191529250613787915050565b6119f385858080601f0160208091040260200160405190810160405280939291908181526020018383808284376000920191909152506138bf92505050565b611a6685858080601f01602080910402602001604051908101604052809392919081815260200183838082843760009201919091525050604080516020601f8901819004810282018101909252878152925087915086908190840183828082843760009201919091525061393992505050565b6000611aa786868080601f016020809104026020016040519081016040528093929190818152602001838380828437600092019190915250612e4f92505050565b90506000611b1e87878080601f01602080910402602001604051908101604052809392919081815260200183838082843760009201919091525050604080516020601f8b018190048102820181019092528981529250899150889081908401838280828437600092019190915250612e6992505050565b600083815260046020818152604080842085855290915290912001805460ff60a01b1916600160a01b861515021790559050336001600160a01b03168585604051611b6a929190614ce2565b60405180910390208888604051611b82929190614ce2565b6040519081900381208615158252907fcba51876aa74b247950c251d3459c41aaebd8b10717beadb480ca1a105166ab59060200160405180910390a450505050505050565b611c4a86868080601f01602080910402602001604051908101604052809392919081815260200183838082843760009201919091525050604080516020601f8a0181900481028201810190925288815292508891508790819084018382808284376000920191909152506000805160206153c88339815191529250613787915050565b6000611c8b87878080601f016020809104026020016040519081016040528093929190818152602001838380828437600092019190915250612e4f92505050565b90506000611d0288888080601f01602080910402602001604051908101604052809392919081815260200183838082843760009201919091525050604080516020601f8c018190048102820181019092528a815292508a9150899081908401838280828437600092019190915250612e6992505050565b905060005b83811015611d4457611d328383878785818110611d2657611d26614bb6565b9050602002013561396d565b80611d3c81614d88565b915050611d07565b505050505050505050565b611dac84848080601f0160208091040260200160405190810160405280939291908181526020018383808284376000920182905250604080516020810190915290815292506000805160206153a883398151915291506137879050565b600b54604080516020601f87018190048102820181019092528581526001600160a01b0390921691633368c9189161164191908890889081908401838280828437600092019190915250612e4f92505050565b611e8286868080601f01602080910402602001604051908101604052809392919081815260200183838082843760009201919091525050604080516020601f8a0181900481028201810190925288815292508891508790819084018382808284376000920191909152506000805160206153c88339815191529250613787915050565b6000611ec387878080601f016020809104026020016040519081016040528093929190818152602001838380828437600092019190915250612e4f92505050565b90506000611f3a88888080601f01602080910402602001604051908101604052809392919081815260200183838082843760009201919091525050604080516020601f8c018190048102820181019092528a815292508a9150899081908401838280828437600092019190915250612e6992505050565b905060005b83811015611d4457611f6a8383878785818110611f5e57611f5e614bb6565b90506020020135613a4a565b80611f7481614d88565b915050611f3f565b611fd983838080601f0160208091040260200160405190810160405280939291908181526020018383808284376000920182905250604080516020810190915290815292506000805160206153a883398151915291506137879050565b6005600061201c85858080601f016020809104026020016040519081016040528093929190818152602001838380828437600092019190915250612e4f92505050565b815260200190815260200160002060060154810361204d57604051630e52390960e41b815260040160405180910390fd5b600b54604080516020601f86018190048102820181019092528481526001600160a01b039092169163cdb0ba50916120a091908790879081908401838280828437600092019190915250612e4f92505050565b836040518363ffffffff1660e01b81526004016120c7929190918252602082015260400190565b600060405180830381600087803b1580156120e157600080fd5b505af11580156120f5573d6000803e3d6000fd5b5050505080838360405161210a929190614ce2565b60405180910390207f7bb07acd566d038f77cba9c39e7536f74ea2c4ee382024d1b428d7f0680dbc0261213a3390565b6040516001600160a01b0390911681526020015b60405180910390a3505050565b6000610d9483838080601f016020809104026020016040519081016040528093929190818152602001838380828437600092019190915250612e4f92505050565b60006121dd87878080601f016020809104026020016040519081016040528093929190818152602001838380828437600092019190915250613b2792505050565b156121ea575060006122bd565b600061222b88888080601f016020809104026020016040519081016040528093929190818152602001838380828437600092019190915250612e4f92505050565b905060006122a289898080601f01602080910402602001604051908101604052809392919081815260200183838082843760009201919091525050604080516020601f8d018190048102820181019092528b815292508b91508a9081908401838280828437600092019190915250612e6992505050565b90506122b88282876122b388614e22565b613b6d565b925050505b9695505050505050565b61230686868080601f0160208091040260200160405190810160405280939291908181526020018383808284376000920191909152506138bf92505050565b61236386868080601f0160208091040260200160405190810160405280939291908181526020018383808284376000920182905250604080516020810190915290815292506000805160206153c883398151915291506137879050565b61236c84613c6e565b60006123ad87878080601f016020809104026020016040519081016040528093929190818152602001838380828437600092019190915250612e4f92505050565b90506123b98185613cff565b6123fb81868686868080601f016020809104026020016040519081016040528093929190818152602001838380828437600092019190915250613d3092505050565b846001600160a01b03168787604051612415929190614ce2565b604051908190038120907fe78ad18845af93a80fbe8718cacc631fbe1c453b092806818a044440b96ba67790600090a350505050505050565b612456612ebc565b600a80546001600160a01b0319166001600160a01b0383169081179091556040517f68e3ca42e475f54d65227ed8cb60daf9cec4546691052783063876ad972db71190600090a250565b60006124ff85858080601f0160208091040260200160405190810160405280939291908181526020018383808284376000920182905250604080516020810190915290815292506000805160206153a883398151915291506137879050565b600b54604080516020601f88018190048102820181019092528681526001600160a01b039092169163e88ca8a19161255291908990899081908401838280828437600092019190915250612e4f92505050565b85856040518463ffffffff1660e01b815260040161257293929190614caf565b6020604051808303816000875af1158015612591573d6000803e3d6000fd5b505050506040513d601f19601f820116820180604052508101906125b59190614cc9565b905082826040516125c7929190614ce2565b60405180910390208186866040516125e0929190614ce2565b60405180910390207fc06cee439d340740b1e427558729eb0fcc080aa2ab6d0bcfb30b6618234f460a6126103390565b6040516001600160a01b03909116815260200160405180910390a4949350505050565b61267286868080601f0160208091040260200160405190810160405280939291908181526020018383808284376000920191909152506138bf92505050565b6126cf86868080601f0160208091040260200160405190810160405280939291908181526020018383808284376000920182905250604080516020810190915290815292506000805160206153c883398151915291506137879050565b600061271087878080601f016020809104026020016040519081016040528093929190818152602001838380828437600092019190915250612e4f92505050565b905061271c8185613cff565b61272585613c6e565b61276781868686868080601f016020809104026020016040519081016040528093929190818152602001838380828437600092019190915250613dde92505050565b846001600160a01b03168787604051612781929190614ce2565b604051908190038120907f9b42a541e0a10f6a80059e1448b92d56a4e71354d43a2ca1fd3701878cb50ae290600090a350505050505050565b6127c2612ebc565b600880546001600160a01b0319166001600160a01b0383169081179091556040517f07b136952c7460e1fc2d593fad96b5b379f28cc13a49857b6a825c5228c1a8d190600090a250565b61281582613c6e565b61287284848080601f0160208091040260200160405190810160405280939291908181526020018383808284376000920182905250604080516020810190915290815292506000805160206153a883398151915291506137879050565b6009546001600160a01b038381169116148061289b57506008546001600160a01b038381169116145b156128b957604051631eb49d6d60e11b815260040160405180910390fd5b6129026128fb85858080601f016020809104026020016040519081016040528093929190818152602001838380828437600092019190915250612e4f92505050565b8383613273565b816001600160a01b0316848460405161291c929190614ce2565b6040519081900381208315158252907f558bdc63bfb8cb1188bc6f559a22d16b8e64dccf7af1d84c90bcf2b7feb1e009906020016116e8565b60006129ce6129648380614bcc565b8080601f0160208091040260200160405190810160405280939291908181526020018383808284376000920182905250604080516020810190915290815292507f5ef98f1e5b8bd5ee1978908b3f5b2128d59a65f7702f04e6aca3c95aff590be191506137879050565b612a156129db8380614bcc565b8080601f0160208091040260200160405190810160405280939291908181526020018383808284376000920191909152506138bf92505050565b612a25610ac66020840184614bcc565b6000612a6e612a348480614bcc565b8080601f016020809104026020016040519081016040528093929190818152602001838380828437600092019190915250612e4f92505050565b9050612a8281612a7d85614ef0565b613e54565b6000828152600560205260408120600901549193505b81811015612cf5576000838152600560205260408120600901805483908110612ac357612ac3614bb6565b6000918252602090912001546001600160a01b0316905080612ae55750612ce3565b600084815260056020526040908190206006015490516340a74b4360e01b8152600481018690526024810187905260448101919091526001600160a01b038216906340a74b4390606401600060405180830381600087803b158015612b4957600080fd5b505af1158015612b5d573d6000803e3d6000fd5b5050505060005b612b716060880188614c66565b9050811015612ce057600085815260056020526040902060060154612b996060890189614c66565b83818110612ba957612ba9614bb6565b905060200201350315612cce576001600160a01b0382166340a74b438688612bd460608c018c614c66565b86818110612be457612be4614bb6565b6040516001600160e01b031960e088901b1681526004810195909552602485019390935250602090910201356044820152606401600060405180830381600087803b158015612c3257600080fd5b505af1925050508015612c43575060015b612c605760405163d9afe50760e01b815260040160405180910390fd5b33612c6e6040890189614bcc565b604051612c7c929190614ce2565b604051908190039020612c8f8980614bcc565b604051612c9d929190614ce2565b604051908190038120907ff22ca4e1529bca70f91b82d259651796b8973cec866e55ad258c1f6d56ea71d390600090a45b80612cd881614d88565b915050612b64565b50505b80612ced81614d88565b915050612a98565b505050919050565b612d05612ebc565b6001600160a01b038116612d6a5760405162461bcd60e51b815260206004820152602660248201527f4f776e61626c653a206e6577206f776e657220697320746865207a65726f206160448201526564647265737360d01b606482015260840161134e565b612d738161386f565b50565b612d9e82604051806020016040528060008152506000805160206153a8833981519152613787565b6000612dbe83805160209182012060009081526002909152604090205490565b905080600003612de15760405163be34080760e01b815260040160405180910390fd5b6000818152600560205260409020600701805460ff1916831515179055336001600160a01b031683604051612e169190614fa6565b6040519081900381208415158252907fb52a77d1c8e7ecf705bef894088b2c74fb373648434090edc15688f5c80a86879060200161214e565b805160209182012060009081526002909152604090205490565b600060036000612e8d85805160209182012060009081526002909152604090205490565b815260200190815260200160002060008380519060200120815260200190815260200160002054905092915050565b6000546001600160a01b0316331461192f5760405162461bcd60e51b815260206004820181905260248201527f4f776e61626c653a2063616c6c6572206973206e6f7420746865206f776e6572604482015260640161134e565b7f00000000000000000000000000000000000000000000000000000000000000006001600160a01b0316612f5d5760405163361882e360e01b815260040160405180910390fd5b6008546001600160a01b0316612f8657604051632ab51add60e01b815260040160405180910390fd5b6009546001600160a01b0316612faf57604051632ab51add60e01b815260040160405180910390fd5b600a546001600160a01b031661192f5760405162d1740b60e61b815260040160405180910390fd5b600082828080601f016020809104026020016040519081016040528093929190818152602001838380828437600092019190915250508251929350506002909110905080613026575080516020105b156130445760405163354b556f60e11b815260040160405180910390fd5b805160005b818110156131ec57600360fc1b83828151811061306857613068614bb6565b01602001516001600160f81b03191610806130a65750603d60f91b83828151811061309557613095614bb6565b01602001516001600160f81b031916115b806131025750603960f81b8382815181106130c3576130c3614bb6565b01602001516001600160f81b0319161180156131025750606160f81b8382815181106130f1576130f1614bb6565b01602001516001600160f81b031916105b8015613133575082818151811061311b5761311b614bb6565b6020910101516001600160f81b031916601760f91b14155b8015613164575082818151811061314c5761314c614bb6565b6020910101516001600160f81b031916602d60f81b14155b8015613195575082818151811061317d5761317d614bb6565b6020910101516001600160f81b031916605f60f81b14155b80156131c657508281815181106131ae576131ae614bb6565b6020910101516001600160f81b031916600160fd1b14155b156131e45760405163f8fa659760e01b815260040160405180910390fd5b600101613049565b5050505050565b6001805481019081905560405163aa424abb60e01b815273__$41f15a773ad44a80f32c4029fe25814db2$__9063aa424abb9061323e90859085903390600290600590600401614fc2565b60006040518083038186803b15801561325657600080fd5b505af415801561326a573d6000803e3d6000fd5b50505050919050565b8080156132a5575060008381526005602090815260408083206001600160a01b038616845260080190915290205460ff165b156132c35760405163186abc9b60e01b815260040160405180910390fd5b60405163fd81c88f60e01b8152600481018490526001600160a01b038316602482015281151560448201526005606482015273__$41f15a773ad44a80f32c4029fe25814db2$__9063fd81c88f9060840160006040518083038186803b15801561332c57600080fd5b505af4158015613340573d6000803e3d6000fd5b50505050505050565b604080516080808201835260008083526020808401829052838501829052606093840182905284519283018552600a546001600160a01b03168352600183820181905283860181905293830186905284518481528086019095529093919284929182015b6040805160808101825260008082526020808301829052928201819052606082015282526000199092019101816133ad57905050905081816000815181106133f7576133f7614bb6565b602090810291909101810191909152604080519182018152828252600b54905163f62df4df60e01b8152600481018790526000916001600160a01b03169063f62df4df906024016020604051808303816000875af115801561345d573d6000803e3d6000fd5b505050506040513d601f19601f820116820180604052508101906134819190614cc9565b6009546040519192506112fa9188916001600160a01b03169088906134aa908790602001615069565b604051602081830303815290604052613d30565b600b546040805163e88ca8a160e01b8152600481018690526024810191909152600860448201526745766572796f6e6560c01b60648201526000916001600160a01b03169063e88ca8a1906084016020604051808303816000875af115801561352b573d6000803e3d6000fd5b505050506040513d601f19601f8201168201806040525081019061354f9190614cc9565b905060005b828110156135ee57600b546001600160a01b0316633368c918868487878681811061358157613581614bb6565b905060200281019061359391906150d5565b6040518463ffffffff1660e01b81526004016135b193929190614de6565b600060405180830381600087803b1580156135cb57600080fd5b505af11580156135df573d6000803e3d6000fd5b50505050806001019050613554565b506008546040805160016020820152610d949287926001600160a01b03909116918591016134aa565b60005b818110156131ec57600b546001600160a01b0316633368c918868686868681811061364757613647614bb6565b905060200281019061365991906150d5565b6040518463ffffffff1660e01b815260040161367793929190614de6565b600060405180830381600087803b15801561369157600080fd5b505af11580156136a5573d6000803e3d6000fd5b5050505080600101905061361a565b60005b818110156131ec5760008383838181106136d3576136d3614bb6565b90506020028101906136e591906150d5565b6136ee906150eb565b6009546040519192506137179188916001600160a01b03169088906134aa908690602001615069565b506001016136b7565b60005b818110156131ec5760085461377f9086906001600160a01b03168686868681811061375057613750614bb6565b90506020020160208101906137659190614235565b604080516001600160a01b039092166020830152016134aa565b600101613723565b60006137a784805160209182012060009081526002909152604090205490565b905060006137b58585612e69565b905061384a82823360405163173c4a6360e01b8152600481018890527f00000000000000000000000000000000000000000000000000000000000000006001600160a01b03169063173c4a6390602401600060405180830381865afa158015613822573d6000803e3d6000fd5b505050506040513d6000823e601f3d908101601f191682016040526122b391908101906151d0565b15613856575050505050565b604051631eb49d6d60e11b815260040160405180910390fd5b600080546001600160a01b038381166001600160a01b0319831681178455604051919092169283917f8be0079c531659141344cd1fd0a4f28419497f9722a3daafe3b4186f6b6457e09190a35050565b60006138df82805160209182012060009081526002909152604090205490565b9050806000036139025760405163be34080760e01b815260040160405180910390fd5b60008181526005602052604090206007015460ff16156139355760405163be34080760e01b815260040160405180910390fd5b5050565b60006139458383612e69565b90508060000361396857604051636ddd9da960e01b815260040160405180910390fd5b505050565b600083815260056020526040812060090154905b818110156131ec5760008581526005602052604081206009018054839081106139ac576139ac614bb6565b6000918252602090912001546001600160a01b03169050806139ce5750613a38565b604051635c1b185d60e01b81526004810187905260248101869052604481018590526001600160a01b03821690635c1b185d90606401600060405180830381600087803b158015613a1e57600080fd5b505af1158015613a32573d6000803e3d6000fd5b50505050505b80613a4281614d88565b915050613981565b600083815260056020526040812060090154905b818110156131ec576000858152600560205260408120600901805483908110613a8957613a89614bb6565b6000918252602090912001546001600160a01b0316905080613aab5750613b15565b6040516340a74b4360e01b81526004810187905260248101869052604481018590526001600160a01b038216906340a74b4390606401600060405180830381600087803b158015613afb57600080fd5b505af1158015613b0f573d6000803e3d6000fd5b50505050505b80613b1f81614d88565b915050613a5e565b600080613b4883805160209182012060009081526002909152604090205490565b9050801580610d94575060009081526005602052604090206007015460ff1692915050565b600084815260056020526040812060090154815b81811015613c64576000878152600560205260408120600901805483908110613bac57613bac614bb6565b6000918252602090912001546001600160a01b0316905080613bce5750613c52565b604051636621899960e01b81526001600160a01b03821690636621899990613c00908b908b908b908b90600401615252565b602060405180830381865afa158015613c1d573d6000803e3d6000fd5b505050506040513d601f19601f82011682018060405250810190613c419190615288565b15613c50576001935050613c64565b505b80613c5c81614d88565b915050613b81565b5050949350505050565b6040516301ffc9a760e01b815263ebb6cfd560e01b60048201526001600160a01b038216906301ffc9a790602401602060405180830381865afa158015613cb9573d6000803e3d6000fd5b505050506040513d601f19601f82011682018060405250810190613cdd9190615288565b1515600003612d7357604051636d9250f160e11b815260040160405180910390fd5b600082815260056020526040902060060154810361393557604051631eb49d6d60e11b815260040160405180910390fd5b60008481526005602090815260408083206001600160a01b038716845260080190915290205460ff16613d765760405163c1ef36f360e01b815260040160405180910390fd5b604051632587e8d160e11b81526001600160a01b03841690634b0fd1a290613da6908790869086906004016152a5565b600060405180830381600087803b158015613dc057600080fd5b505af1158015613dd4573d6000803e3d6000fd5b5050505050505050565b60008481526005602090815260408083206001600160a01b038716845260080190915290205460ff16613e245760405163c1ef36f360e01b815260040160405180910390fd5b604051630f477aa360e21b81526001600160a01b03841690633d1dea8c90613da6908790869086906004016152a5565b600082815260066020526040902080546001019081905573__$41f15a773ad44a80f32c4029fe25814db2$__631ddb9a8b838584336006600360046040518863ffffffff1660e01b8152600401613eb197969594939291906152c4565b60006040518083038186803b158015613ec957600080fd5b505af4158015613edd573d6000803e3d6000fd5b5050505092915050565b6040518060e001604052806000815260200160608152602001600081526020016060815260200160006001600160a01b0316815260200160006001600160a01b031681526020016000151581525090565b60008083601f840112613f4a57600080fd5b5081356001600160401b03811115613f6157600080fd5b602083019150836020828501011115613f7957600080fd5b9250929050565b60008060008060408587031215613f9657600080fd5b84356001600160401b0380821115613fad57600080fd5b613fb988838901613f38565b90965094506020870135915080821115613fd257600080fd5b50613fdf87828801613f38565b95989497509550505050565b60005b83811015614006578181015183820152602001613fee565b50506000910152565b60008151808452614027816020860160208601613feb565b601f01601f19169290920160200192915050565b60208152815160208201526000602083015160c0604084015261406160e084018261400f565b9050604084015160608401526060840151601f19848303016080850152614088828261400f565b91505060018060a01b0360808501511660a084015260a0840151151560c08401528091505092915050565b600080602083850312156140c657600080fd5b82356001600160401b038111156140dc57600080fd5b6140e885828601613f38565b90969095509350505050565b6020808252825182820181905260009190848201906040850190845b818110156141355783516001600160a01b031683529284019291840191600101614110565b50909695505050505050565b805182526000602082015160e0602085015261416060e085018261400f565b90506040830151604085015260608301518482036060860152614183828261400f565b915050608083015160018060a01b0380821660808701528060a08601511660a0870152505060c0830151151560c08501528091505092915050565b6000602080830181845280855180835260408601915060408160051b870101925083870160005b8281101561421357603f19888603018452614201858351614141565b945092850192908501906001016141e5565b5092979650505050505050565b6001600160a01b0381168114612d7357600080fd5b60006020828403121561424757600080fd5b8135610d9481614220565b600060808284031215610a5757600080fd5b60008083601f84011261427657600080fd5b5081356001600160401b0381111561428d57600080fd5b6020830191508360208260051b8501011115613f7957600080fd5b600080600080606085870312156142be57600080fd5b84356001600160401b03808211156142d557600080fd5b90860190606082890312156142e957600080fd5b909450602086013590808211156142ff57600080fd5b61430b88838901614252565b9450604087013591508082111561432157600080fd5b50613fdf87828801614264565b602081526000610d946020830184614141565b60006020808301818452808551808352604092508286019150828160051b87010184880160005b838110156143ea57888303603f19018552815180516001600160a01b03168452878101516080898601819052906143a18287018261400f565b91505087820151858203898701526143b9828261400f565b915050606080830151925085820381870152506143d6818361400f565b968901969450505090860190600101614368565b509098975050505050505050565b60008060008060008060008060008060a08b8d03121561441757600080fd5b8a356001600160401b038082111561442e57600080fd5b61443a8e838f01613f38565b909c509a5060208d013591508082111561445357600080fd5b61445f8e838f01613f38565b909a50985060408d013591508082111561447857600080fd5b6144848e838f01614264565b909850965060608d013591508082111561449d57600080fd5b6144a98e838f01614264565b909650945060808d01359150808211156144c257600080fd5b506144cf8d828e01614264565b915080935050809150509295989b9194979a5092959850565b6000806000604084860312156144fd57600080fd5b83356001600160401b0381111561451357600080fd5b61451f86828701613f38565b909450925050602084013561453381614220565b809150509250925092565b600060208284031215610a5757600080fd5b6000806000806060858703121561456657600080fd5b84356001600160401b038082111561457d57600080fd5b61458988838901613f38565b90965094506020870135935060408701359150808211156145a957600080fd5b506145b68782880161453e565b91505092959194509250565b634e487b7160e01b600052604160045260246000fd5b604051602081016001600160401b03811182821017156145fa576145fa6145c2565b60405290565b604051608081016001600160401b03811182821017156145fa576145fa6145c2565b604051601f8201601f191681016001600160401b038111828210171561464a5761464a6145c2565b604052919050565b60006001600160401b0382111561466b5761466b6145c2565b50601f01601f191660200190565b600082601f83011261468a57600080fd5b813561469d61469882614652565b614622565b8181528460208386010111156146b257600080fd5b816020850160208301376000918101602001919091529392505050565b6000602082840312156146e157600080fd5b81356001600160401b038111156146f757600080fd5b61470384828501614679565b949350505050565b6000602080835260608084018551838601528286015160408081880152828251808552608094508489019150848160051b8a0101878501945060005b828110156147c857607f198b8303018452855160c0815184528a8201518b85015286820151818886015261477d8286018261400f565b915050898201518482038b860152614795828261400f565b8a8401516001600160a01b0316868c015260a0938401511515939095019290925250509488019492880192600101614747565b509a9950505050505050505050565b8015158114612d7357600080fd5b6000806000806000606086880312156147fd57600080fd5b85356001600160401b038082111561481457600080fd5b61482089838a01613f38565b9097509550602088013591508082111561483957600080fd5b5061484688828901613f38565b909450925050604086013561485a816147d7565b809150509295509295909350565b6000806000806000806060878903121561488157600080fd5b86356001600160401b038082111561489857600080fd5b6148a48a838b01613f38565b909850965060208901359150808211156148bd57600080fd5b6148c98a838b01613f38565b909650945060408901359150808211156148e257600080fd5b506148ef89828a01614264565b979a9699509497509295939492505050565b60008060006040848603121561491657600080fd5b83356001600160401b0381111561492c57600080fd5b61493886828701613f38565b909790965060209590950135949350505050565b6000806000806000806080878903121561496557600080fd5b86356001600160401b038082111561497c57600080fd5b6149888a838b01613f38565b909850965060208901359150808211156149a157600080fd5b6149ad8a838b01613f38565b9096509450604089013591506149c282614220565b909250606088013590808211156149d857600080fd5b506149e589828a0161453e565b9150509295509295509295565b60008060008060008060808789031215614a0b57600080fd5b86356001600160401b0380821115614a2257600080fd5b614a2e8a838b01613f38565b909850965060208901359150614a4382614220565b9094506040880135935060608801359080821115614a6057600080fd5b506148ef89828a01613f38565b60008060008060608587031215614a8357600080fd5b84356001600160401b03811115614a9957600080fd5b614aa587828801613f38565b9095509350506020850135614ab981614220565b91506040850135614ac9816147d7565b939692955090935050565b600060208284031215614ae657600080fd5b81356001600160401b03811115614afc57600080fd5b61470384828501614252565b60008060408385031215614b1b57600080fd5b82356001600160401b03811115614b3157600080fd5b614b3d85828601614679565b9250506020830135614b4e816147d7565b809150509250929050565b600181811c90821680614b6d57607f821691505b602082108103610a5757634e487b7160e01b600052602260045260246000fd5b634e487b7160e01b600052601160045260246000fd5b8082018082111561083157610831614b8d565b634e487b7160e01b600052603260045260246000fd5b6000808335601e19843603018112614be357600080fd5b8301803591506001600160401b03821115614bfd57600080fd5b602001915036819003821315613f7957600080fd5b81835281816020850137506000828201602090810191909152601f909101601f19169091010190565b8481526001600160a01b03841660208201526060604082018190526000906122bd9083018486614c12565b6000808335601e19843603018112614c7d57600080fd5b8301803591506001600160401b03821115614c9757600080fd5b6020019150600581901b3603821315613f7957600080fd5b8381526040602082015260006112fa604083018486614c12565b600060208284031215614cdb57600080fd5b5051919050565b8183823760009101908152919050565b600060208284031215614d0457600080fd5b8151610d9481614220565b600082601f830112614d2057600080fd5b8151614d2e61469882614652565b818152846020838601011115614d4357600080fd5b614703826020830160208701613feb565b600060208284031215614d6657600080fd5b81516001600160401b03811115614d7c57600080fd5b61470384828501614d0f565b600060018201614d9a57614d9a614b8d565b5060010190565b6000808335601e19843603018112614db857600080fd5b83016020810192503590506001600160401b03811115614dd757600080fd5b803603821315613f7957600080fd5b838152826020820152606060408201526000614e028384614da1565b60206060850152614e17608085018284614c12565b979650505050505050565b600060208236031215614e3457600080fd5b614e3c6145d8565b82356001600160401b03811115614e5257600080fd5b614e5e36828601614679565b82525092915050565b60006001600160401b03821115614e8057614e806145c2565b5060051b60200190565b600082601f830112614e9b57600080fd5b81356020614eab61469883614e67565b82815260059290921b84018101918181019086841115614eca57600080fd5b8286015b84811015614ee55780358352918301918301614ece565b509695505050505050565b600060808236031215614f0257600080fd5b614f0a614600565b82356001600160401b0380821115614f2157600080fd5b614f2d36838701614679565b83526020850135915080821115614f4357600080fd5b614f4f36838701614679565b60208401526040850135915080821115614f6857600080fd5b614f7436838701614679565b60408401526060850135915080821115614f8d57600080fd5b50614f9a36828601614e8a565b60608301525092915050565b60008251614fb8818460208701613feb565b9190910192915050565b60a081526000614fd28788614da1565b606060a0850152614fe861010085018284614c12565b915050614ff86020890189614da1565b609f19808685030160c0870152615010848385614c12565b935061501f60408c018c614da1565b93509150808685030160e087015250615039838383614c12565b6020860199909952505050506001600160a01b039390931660408401526060830191909152608090910152919050565b60006020808352604080840185518384870152818151808452606093508388019150858301925060005b818110156143ea57835180516001600160a01b031684528781015188850152868101511515878501528501518584015292860192608090920191600101615093565b60008235601e19833603018112614fb857600080fd5b600060208083360312156150fe57600080fd5b6151066145d8565b83356001600160401b0381111561511c57600080fd5b840136601f82011261512d57600080fd5b803561513b61469882614e67565b81815260079190911b8201840190848101903683111561515a57600080fd5b928501925b828410156151c357608084360312156151785760008081fd5b615180614600565b843561518b81614220565b815284870135878201526040808601356151a4816147d7565b908201526060858101359082015282526080909301929085019061515f565b8452509195945050505050565b6000602082840312156151e257600080fd5b81516001600160401b03808211156151f957600080fd5b908301906020828603121561520d57600080fd5b604051602081018181108382111715615228576152286145c2565b60405282518281111561523a57600080fd5b61524687828601614d0f565b82525095945050505050565b84815283602082015260018060a01b0383166040820152608060608201526000825160206080840152614e1760a084018261400f565b60006020828403121561529a57600080fd5b8151610d94816147d7565b8381528260208201526060604082015260006112fa606083018461400f565b60e0815260008851608060e08401526152e161016084018261400f565b90506020808b015160df198086850301610100870152615301848361400f565b935060408d01519150808685030161012087015261531f848361400f565b60608e015187820390920161014088015281518082529184019450600092508301905b808310156153625784518252938301936001929092019190830190615342565b509185018b905250604084018990526001600160a01b038816606085015291506153899050565b8460808301528360a08301528260c08301529897505050505050505056fe75be26f315524d8937b28469fe5b4df7e59aebca1fcbbbe5669005e1491b131b71e770fed024e50450e0cb5318c1a012e92ab6439dfbe6c071800b700ce55c0aa2646970667358221220fd0b4df56c4b8806bf09e371bd762a6d3cefbef20591acb1cfd880b3d22233ff64736f6c63430008110033",
    "linkReferences": {
      "contracts/src/spaces/libraries/CreationLogic.sol": {
        "CreationLogic": [
          {
            "start": 13207,
            "length": 20
          },
          {
            "start": 13442,
            "length": 20
          },
          {
            "start": 16376,
            "length": 20
          }
        ]
      }
    }
  },
  "methodIdentifiers": {
    "addPermissionToRole(string,uint256,(string))": "7d9a0230",
    "addRoleIdsToChannel(string,string,uint256[])": "81fb7db2",
    "addRoleToEntitlementModule(string,address,uint256,bytes)": "c79ff589",
    "createChannel((string,string,string,uint256[]))": "f1b287d8",
    "createRole(string,string)": "d2192dbf",
    "createRoleWithEntitlementData(string,string,(string)[],((address,uint256,bool,uint256)[])[],address[])": "40c0df81",
    "createSpace((string,string,string),(string,(string)[],((address,uint256,bool,uint256)[])[],address[]),(string)[])": "1f2bd9e5",
    "getChannelIdByNetworkId(string,string)": "3e66eae3",
    "getChannelInfoByChannelId(string,string)": "0db37ba3",
    "getChannelsBySpaceId(string)": "50c24eef",
    "getEntitlementModulesBySpaceId(string)": "141b6498",
    "getEntitlementsInfoBySpaceId(string)": "3519167c",
    "getSpaceIdByNetworkId(string)": "9ddd0d6b",
    "getSpaceInfoBySpaceId(string)": "2bb59212",
    "getSpaceOwnerBySpaceId(string)": "2a4bdf25",
    "getSpaces()": "15478ca9",
    "isEntitled(string,string,address,(string))": "bf77b663",
    "isEntitlementModuleWhitelisted(string,address)": "4196d1ff",
    "owner()": "8da5cb5b",
    "removeEntitlement(string,address,uint256,bytes)": "d6b1b633",
    "removePermissionFromRole(string,uint256,(string))": "4832a4ec",
    "removeRole(string,uint256)": "8b0e905a",
    "removeRoleIdsFromChannel(string,string,uint256[])": "7a40ab90",
    "renounceOwnership()": "715018a6",
    "setChannelAccess(string,string,bool)": "72a29321",
    "setDefaultTokenEntitlementModule(address)": "1a039620",
    "setDefaultUserEntitlementModule(address)": "e1b7a9e5",
    "setSpaceAccess(string,bool)": "f86caf83",
    "setSpaceNFT(address)": "ccde2de3",
    "transferOwnership(address)": "f2fde38b",
    "whitelistEntitlementModule(string,address,bool)": "e798ff3f"
  },
  "id": 26
}