{
  "abi": [
    {
      "inputs": [
        {
          "internalType": "address",
          "name": "_permissionRegistry",
          "type": "address"
        },
        {
          "internalType": "address",
          "name": "_roleManager",
          "type": "address"
        }
      ],
      "stateMutability": "nonpayable",
      "type": "constructor"
    },
    {
      "inputs": [],
      "name": "AddRoleFailed",
      "type": "error"
    },
    {
      "inputs": [],
      "name": "ChannelDoesNotExist",
      "type": "error"
    },
    {
      "inputs": [],
      "name": "DefaultEntitlementModuleNotSet",
      "type": "error"
    },
    {
      "inputs": [],
      "name": "DefaultPermissionsManagerNotSet",
      "type": "error"
    },
    {
      "inputs": [],
      "name": "EntitlementAlreadyWhitelisted",
      "type": "error"
    },
    {
      "inputs": [],
      "name": "EntitlementModuleNotSupported",
      "type": "error"
    },
    {
      "inputs": [],
      "name": "EntitlementNotWhitelisted",
      "type": "error"
    },
    {
      "inputs": [],
      "name": "InvalidParameters",
      "type": "error"
    },
    {
      "inputs": [],
      "name": "NameContainsInvalidCharacters",
      "type": "error"
    },
    {
      "inputs": [],
      "name": "NameLengthInvalid",
      "type": "error"
    },
    {
      "inputs": [],
      "name": "NotAllowed",
      "type": "error"
    },
    {
      "inputs": [],
      "name": "SpaceDoesNotExist",
      "type": "error"
    },
    {
      "inputs": [],
      "name": "SpaceNFTNotSet",
      "type": "error"
    },
    {
      "anonymous": false,
      "inputs": [
        {
          "indexed": true,
          "internalType": "address",
          "name": "previousOwner",
          "type": "address"
        },
        {
          "indexed": true,
          "internalType": "address",
          "name": "newOwner",
          "type": "address"
        }
      ],
      "name": "OwnershipTransferred",
      "type": "event"
    },
    {
      "inputs": [
        {
          "internalType": "string",
          "name": "spaceId",
          "type": "string"
        },
        {
          "internalType": "uint256",
          "name": "roleId",
          "type": "uint256"
        },
        {
          "components": [
            {
              "internalType": "string",
              "name": "name",
              "type": "string"
            }
          ],
          "internalType": "struct DataTypes.Permission",
          "name": "permission",
          "type": "tuple"
        }
      ],
      "name": "addPermissionToRole",
      "outputs": [],
      "stateMutability": "nonpayable",
      "type": "function"
    },
    {
      "inputs": [
        {
          "internalType": "string",
          "name": "spaceId",
          "type": "string"
        },
        {
          "internalType": "string",
          "name": "channelId",
          "type": "string"
        },
        {
          "internalType": "uint256[]",
          "name": "roleId",
          "type": "uint256[]"
        }
      ],
      "name": "addRoleIdsToChannel",
      "outputs": [],
      "stateMutability": "nonpayable",
      "type": "function"
    },
    {
      "inputs": [
        {
          "internalType": "string",
          "name": "spaceNetworkId",
          "type": "string"
        },
        {
          "internalType": "address",
          "name": "entitlementModuleAddress",
          "type": "address"
        },
        {
          "internalType": "uint256",
          "name": "roleId",
          "type": "uint256"
        },
        {
          "internalType": "bytes",
          "name": "entitlementData",
          "type": "bytes"
        }
      ],
      "name": "addRoleToEntitlementModule",
      "outputs": [],
      "stateMutability": "nonpayable",
      "type": "function"
    },
    {
      "inputs": [
        {
          "components": [
            {
              "internalType": "string",
              "name": "spaceNetworkId",
              "type": "string"
            },
            {
              "internalType": "string",
              "name": "channelName",
              "type": "string"
            },
            {
              "internalType": "string",
              "name": "channelNetworkId",
              "type": "string"
            },
            {
              "internalType": "uint256[]",
              "name": "roleIds",
              "type": "uint256[]"
            }
          ],
          "internalType": "struct DataTypes.CreateChannelData",
          "name": "data",
          "type": "tuple"
        }
      ],
      "name": "createChannel",
      "outputs": [
        {
          "internalType": "uint256",
          "name": "channelId",
          "type": "uint256"
        }
      ],
      "stateMutability": "nonpayable",
      "type": "function"
    },
    {
      "inputs": [
        {
          "internalType": "string",
          "name": "spaceNetworkId",
          "type": "string"
        },
        {
          "internalType": "string",
          "name": "name",
          "type": "string"
        }
      ],
      "name": "createRole",
      "outputs": [
        {
          "internalType": "uint256",
          "name": "roleId",
          "type": "uint256"
        }
      ],
      "stateMutability": "nonpayable",
      "type": "function"
    },
    {
      "inputs": [
        {
          "components": [
            {
              "internalType": "string",
              "name": "spaceName",
              "type": "string"
            },
            {
              "internalType": "string",
              "name": "spaceNetworkId",
              "type": "string"
            }
          ],
          "internalType": "struct DataTypes.CreateSpaceData",
          "name": "info",
          "type": "tuple"
        },
        {
          "components": [
            {
              "internalType": "string",
              "name": "roleName",
              "type": "string"
            },
            {
              "components": [
                {
                  "internalType": "string",
                  "name": "name",
                  "type": "string"
                }
              ],
              "internalType": "struct DataTypes.Permission[]",
              "name": "permissions",
              "type": "tuple[]"
            },
            {
              "components": [
                {
                  "components": [
                    {
                      "internalType": "address",
                      "name": "contractAddress",
                      "type": "address"
                    },
                    {
                      "internalType": "uint256",
                      "name": "quantity",
                      "type": "uint256"
                    },
                    {
                      "internalType": "bool",
                      "name": "isSingleToken",
                      "type": "bool"
                    },
                    {
                      "internalType": "uint256",
                      "name": "tokenId",
                      "type": "uint256"
                    }
                  ],
                  "internalType": "struct DataTypes.ExternalToken[]",
                  "name": "tokens",
                  "type": "tuple[]"
                }
              ],
              "internalType": "struct DataTypes.ExternalTokenEntitlement[]",
              "name": "externalTokenEntitlements",
              "type": "tuple[]"
            },
            {
              "internalType": "address[]",
              "name": "users",
              "type": "address[]"
            }
          ],
          "internalType": "struct DataTypes.CreateSpaceEntitlementData",
          "name": "entitlementData",
          "type": "tuple"
        },
        {
          "components": [
            {
              "internalType": "string",
              "name": "name",
              "type": "string"
            }
          ],
          "internalType": "struct DataTypes.Permission[]",
          "name": "everyonePermissions",
          "type": "tuple[]"
        }
      ],
      "name": "createSpace",
      "outputs": [
        {
          "internalType": "uint256",
          "name": "",
          "type": "uint256"
        }
      ],
      "stateMutability": "nonpayable",
      "type": "function"
    },
    {
      "inputs": [
        {
          "internalType": "string",
          "name": "spaceId",
          "type": "string"
        },
        {
          "internalType": "string",
          "name": "channelId",
          "type": "string"
        }
      ],
      "name": "getChannelIdByNetworkId",
      "outputs": [
        {
          "internalType": "uint256",
          "name": "",
          "type": "uint256"
        }
      ],
      "stateMutability": "view",
      "type": "function"
    },
    {
      "inputs": [
        {
          "internalType": "string",
          "name": "spaceId",
          "type": "string"
        },
        {
          "internalType": "string",
          "name": "channelId",
          "type": "string"
        }
      ],
      "name": "getChannelInfoByChannelId",
      "outputs": [
        {
          "components": [
            {
              "internalType": "uint256",
              "name": "channelId",
              "type": "uint256"
            },
            {
              "internalType": "string",
              "name": "networkId",
              "type": "string"
            },
            {
              "internalType": "uint256",
              "name": "createdAt",
              "type": "uint256"
            },
            {
              "internalType": "string",
              "name": "name",
              "type": "string"
            },
            {
              "internalType": "address",
              "name": "creator",
              "type": "address"
            },
            {
              "internalType": "bool",
              "name": "disabled",
              "type": "bool"
            }
          ],
          "internalType": "struct DataTypes.ChannelInfo",
          "name": "",
          "type": "tuple"
        }
      ],
      "stateMutability": "view",
      "type": "function"
    },
    {
      "inputs": [
        {
          "internalType": "string",
          "name": "spaceId",
          "type": "string"
        }
      ],
      "name": "getChannelsBySpaceId",
      "outputs": [
        {
          "components": [
            {
              "internalType": "uint256",
              "name": "idCounter",
              "type": "uint256"
            },
            {
              "components": [
                {
                  "internalType": "uint256",
                  "name": "channelId",
                  "type": "uint256"
                },
                {
                  "internalType": "uint256",
                  "name": "createdAt",
                  "type": "uint256"
                },
                {
                  "internalType": "string",
                  "name": "networkId",
                  "type": "string"
                },
                {
                  "internalType": "string",
                  "name": "name",
                  "type": "string"
                },
                {
                  "internalType": "address",
                  "name": "creator",
                  "type": "address"
                },
                {
                  "internalType": "bool",
                  "name": "disabled",
                  "type": "bool"
                }
              ],
              "internalType": "struct DataTypes.Channel[]",
              "name": "channels",
              "type": "tuple[]"
            }
          ],
          "internalType": "struct DataTypes.Channels",
          "name": "",
          "type": "tuple"
        }
      ],
      "stateMutability": "view",
      "type": "function"
    },
    {
      "inputs": [
        {
          "internalType": "string",
          "name": "spaceId",
          "type": "string"
        }
      ],
      "name": "getEntitlementModulesBySpaceId",
      "outputs": [
        {
          "internalType": "address[]",
          "name": "",
          "type": "address[]"
        }
      ],
      "stateMutability": "view",
      "type": "function"
    },
    {
      "inputs": [
        {
          "internalType": "string",
          "name": "spaceId",
          "type": "string"
        }
      ],
      "name": "getEntitlementsInfoBySpaceId",
      "outputs": [
        {
          "components": [
            {
              "internalType": "address",
              "name": "addr",
              "type": "address"
            },
            {
              "internalType": "string",
              "name": "name",
              "type": "string"
            },
            {
              "internalType": "string",
              "name": "moduleType",
              "type": "string"
            },
            {
              "internalType": "string",
              "name": "description",
              "type": "string"
            }
          ],
          "internalType": "struct DataTypes.EntitlementModuleInfo[]",
          "name": "",
          "type": "tuple[]"
        }
      ],
      "stateMutability": "view",
      "type": "function"
    },
    {
      "inputs": [
        {
          "internalType": "string",
          "name": "networkId",
          "type": "string"
        }
      ],
      "name": "getSpaceIdByNetworkId",
      "outputs": [
        {
          "internalType": "uint256",
          "name": "",
          "type": "uint256"
        }
      ],
      "stateMutability": "view",
      "type": "function"
    },
    {
      "inputs": [
        {
          "internalType": "string",
          "name": "spaceId",
          "type": "string"
        }
      ],
      "name": "getSpaceInfoBySpaceId",
      "outputs": [
        {
          "components": [
            {
              "internalType": "uint256",
              "name": "spaceId",
              "type": "uint256"
            },
            {
              "internalType": "string",
              "name": "networkId",
              "type": "string"
            },
            {
              "internalType": "uint256",
              "name": "createdAt",
              "type": "uint256"
            },
            {
              "internalType": "string",
              "name": "name",
              "type": "string"
            },
            {
              "internalType": "address",
              "name": "creator",
              "type": "address"
            },
            {
              "internalType": "address",
              "name": "owner",
              "type": "address"
            },
            {
              "internalType": "bool",
              "name": "disabled",
              "type": "bool"
            }
          ],
          "internalType": "struct DataTypes.SpaceInfo",
          "name": "",
          "type": "tuple"
        }
      ],
      "stateMutability": "view",
      "type": "function"
    },
    {
      "inputs": [
        {
          "internalType": "string",
          "name": "spaceId",
          "type": "string"
        }
      ],
      "name": "getSpaceOwnerBySpaceId",
      "outputs": [
        {
          "internalType": "address",
          "name": "",
          "type": "address"
        }
      ],
      "stateMutability": "view",
      "type": "function"
    },
    {
      "inputs": [],
      "name": "getSpaces",
      "outputs": [
        {
          "components": [
            {
              "internalType": "uint256",
              "name": "spaceId",
              "type": "uint256"
            },
            {
              "internalType": "string",
              "name": "networkId",
              "type": "string"
            },
            {
              "internalType": "uint256",
              "name": "createdAt",
              "type": "uint256"
            },
            {
              "internalType": "string",
              "name": "name",
              "type": "string"
            },
            {
              "internalType": "address",
              "name": "creator",
              "type": "address"
            },
            {
              "internalType": "address",
              "name": "owner",
              "type": "address"
            },
            {
              "internalType": "bool",
              "name": "disabled",
              "type": "bool"
            }
          ],
          "internalType": "struct DataTypes.SpaceInfo[]",
          "name": "",
          "type": "tuple[]"
        }
      ],
      "stateMutability": "view",
      "type": "function"
    },
    {
      "inputs": [
        {
          "internalType": "string",
          "name": "spaceId",
          "type": "string"
        },
        {
          "internalType": "string",
          "name": "channelId",
          "type": "string"
        },
        {
          "internalType": "address",
          "name": "user",
          "type": "address"
        },
        {
          "components": [
            {
              "internalType": "string",
              "name": "name",
              "type": "string"
            }
          ],
          "internalType": "struct DataTypes.Permission",
          "name": "permission",
          "type": "tuple"
        }
      ],
      "name": "isEntitled",
      "outputs": [
        {
          "internalType": "bool",
          "name": "",
          "type": "bool"
        }
      ],
      "stateMutability": "view",
      "type": "function"
    },
    {
      "inputs": [
        {
          "internalType": "string",
          "name": "spaceId",
          "type": "string"
        },
        {
          "internalType": "address",
          "name": "entitlementModuleAddress",
          "type": "address"
        }
      ],
      "name": "isEntitlementModuleWhitelisted",
      "outputs": [
        {
          "internalType": "bool",
          "name": "",
          "type": "bool"
        }
      ],
      "stateMutability": "view",
      "type": "function"
    },
    {
      "inputs": [],
      "name": "owner",
      "outputs": [
        {
          "internalType": "address",
          "name": "",
          "type": "address"
        }
      ],
      "stateMutability": "view",
      "type": "function"
    },
    {
      "inputs": [
        {
          "internalType": "string",
          "name": "spaceNetworkId",
          "type": "string"
        },
        {
          "internalType": "address",
          "name": "entitlementModuleAddress",
          "type": "address"
        },
        {
          "internalType": "uint256",
          "name": "roleId",
          "type": "uint256"
        },
        {
          "internalType": "bytes",
          "name": "data",
          "type": "bytes"
        }
      ],
      "name": "removeEntitlement",
      "outputs": [],
      "stateMutability": "nonpayable",
      "type": "function"
    },
    {
      "inputs": [
        {
          "internalType": "string",
          "name": "spaceNetworkId",
          "type": "string"
        },
        {
          "internalType": "uint256",
          "name": "roleId",
          "type": "uint256"
        },
        {
          "components": [
            {
              "internalType": "string",
              "name": "name",
              "type": "string"
            }
          ],
          "internalType": "struct DataTypes.Permission",
          "name": "permission",
          "type": "tuple"
        }
      ],
      "name": "removePermissionFromRole",
      "outputs": [],
      "stateMutability": "nonpayable",
      "type": "function"
    },
    {
      "inputs": [
        {
          "internalType": "string",
          "name": "spaceNetworkId",
          "type": "string"
        },
        {
          "internalType": "uint256",
          "name": "roleId",
          "type": "uint256"
        }
      ],
      "name": "removeRole",
      "outputs": [],
      "stateMutability": "nonpayable",
      "type": "function"
    },
    {
      "inputs": [
        {
          "internalType": "string",
          "name": "spaceId",
          "type": "string"
        },
        {
          "internalType": "string",
          "name": "channelId",
          "type": "string"
        },
        {
          "internalType": "uint256[]",
          "name": "roleId",
          "type": "uint256[]"
        }
      ],
      "name": "removeRoleIdsFromChannel",
      "outputs": [],
      "stateMutability": "nonpayable",
      "type": "function"
    },
    {
      "inputs": [],
      "name": "renounceOwnership",
      "outputs": [],
      "stateMutability": "nonpayable",
      "type": "function"
    },
    {
      "inputs": [
        {
          "internalType": "string",
          "name": "spaceNetworkId",
          "type": "string"
        },
        {
          "internalType": "string",
          "name": "channelNetworkId",
          "type": "string"
        },
        {
          "internalType": "bool",
          "name": "disabled",
          "type": "bool"
        }
      ],
      "name": "setChannelAccess",
      "outputs": [],
      "stateMutability": "nonpayable",
      "type": "function"
    },
    {
      "inputs": [
        {
          "internalType": "address",
          "name": "entitlementModule",
          "type": "address"
        }
      ],
      "name": "setDefaultTokenEntitlementModule",
      "outputs": [],
      "stateMutability": "nonpayable",
      "type": "function"
    },
    {
      "inputs": [
        {
          "internalType": "address",
          "name": "entitlementModule",
          "type": "address"
        }
      ],
      "name": "setDefaultUserEntitlementModule",
      "outputs": [],
      "stateMutability": "nonpayable",
      "type": "function"
    },
    {
      "inputs": [
        {
          "internalType": "string",
          "name": "spaceNetworkId",
          "type": "string"
        },
        {
          "internalType": "bool",
          "name": "disabled",
          "type": "bool"
        }
      ],
      "name": "setSpaceAccess",
      "outputs": [],
      "stateMutability": "nonpayable",
      "type": "function"
    },
    {
      "inputs": [
        {
          "internalType": "address",
          "name": "spaceNFTAddress",
          "type": "address"
        }
      ],
      "name": "setSpaceNFT",
      "outputs": [],
      "stateMutability": "nonpayable",
      "type": "function"
    },
    {
      "inputs": [
        {
          "internalType": "address",
          "name": "newOwner",
          "type": "address"
        }
      ],
      "name": "transferOwnership",
      "outputs": [],
      "stateMutability": "nonpayable",
      "type": "function"
    },
    {
      "inputs": [
        {
          "internalType": "string",
          "name": "spaceNetworkId",
          "type": "string"
        },
        {
          "internalType": "address",
          "name": "entitlementAddress",
          "type": "address"
        },
        {
          "internalType": "bool",
          "name": "whitelist",
          "type": "bool"
        }
      ],
      "name": "whitelistEntitlementModule",
      "outputs": [],
      "stateMutability": "nonpayable",
      "type": "function"
    }
  ],
  "bytecode": {
    "object": "0x60c06040523480156200001157600080fd5b50604051620051cd380380620051cd833981016040819052620000349162000129565b6200003f33620000bc565b6001600160a01b0382166200006757604051630e52390960e41b815260040160405180910390fd5b6001600160a01b0381166200008f57604051630e52390960e41b815260040160405180910390fd5b6001600160a01b0391821660a052166080819052600b80546001600160a01b031916909117905562000161565b600080546001600160a01b038381166001600160a01b0319831681178455604051919092169283917f8be0079c531659141344cd1fd0a4f28419497f9722a3daafe3b4186f6b6457e09190a35050565b80516001600160a01b03811681146200012457600080fd5b919050565b600080604083850312156200013d57600080fd5b62000148836200010c565b915062000158602084016200010c565b90509250929050565b60805160a0516150426200018b60003960008181612e9701526131f40152600050506150426000f3fe608060405234801561001057600080fd5b50600436106101da5760003560e01c806381fb7db211610104578063ccde2de3116100a2578063e798ff3f11610071578063e798ff3f14610444578063f1b287d814610457578063f2fde38b1461046a578063f86caf831461047d57600080fd5b8063ccde2de3146103f8578063d2192dbf1461040b578063d6b1b6331461041e578063e1b7a9e51461043157600080fd5b80638da5cb5b116100de5780638da5cb5b146103ae5780639ddd0d6b146103bf578063bf77b663146103d2578063c79ff589146103e557600080fd5b806381fb7db2146103755780638698dd76146103885780638b0e905a1461039b57600080fd5b80633e66eae31161017c578063715018a61161014b578063715018a61461033457806372a293211461033c5780637a40ab901461034f5780637d9a02301461036257600080fd5b80633e66eae3146102bd5780634196d1ff146102de5780634832a4ec1461030157806350c24eef1461031457600080fd5b80631a039620116101b85780631a0396201461023d5780632a4bdf25146102525780632bb592121461027d5780633519167c1461029d57600080fd5b80630db37ba3146101df578063141b64981461020857806315478ca914610228575b600080fd5b6101f26101ed366004613ceb565b610490565b6040516101ff9190613da6565b60405180910390f35b61021b610216366004613e1e565b610761565b6040516101ff9190613e5f565b610230610819565b6040516101ff9190613f29565b61025061024b366004613fa0565b610a3f565b005b610265610260366004613e1e565b610a91565b6040516001600160a01b0390911681526020016101ff565b61029061028b366004613e1e565b610b4a565b6040516101ff9190613fbd565b6102b06102ab366004613e1e565b610d60565b6040516101ff9190613fd0565b6102d06102cb366004613ceb565b611034565b6040519081526020016101ff565b6102f16102ec366004614087565b6110b2565b60405190151581526020016101ff565b61025061030f3660046140ef565b61112d565b61032761032236600461426e565b611292565b6040516101ff91906142aa565b6102506114b9565b61025061034a366004614384565b6114cd565b61025061035d36600461444b565b611763565b6102506103703660046140ef565b6118eb565b61025061038336600461444b565b61199b565b6102d06103963660046144f6565b611b18565b6102506103a936600461457c565b611efb565b6000546001600160a01b0316610265565b6102d06103cd366004613e1e565b6120da565b6102f16103e03660046145c7565b61211b565b6102506103f336600461466d565b6121f7565b610250610406366004613fa0565b61237e565b6102d0610419366004613ceb565b6123d0565b61025061042c36600461466d565b612563565b61025061043f366004613fa0565b6126ea565b6102506104523660046146e8565b61273c565b6102d061046536600461474f565b612885565b610250610478366004613fa0565b612c2d565b61025061048b366004614783565b612cab565b6104d46040518060c001604052806000815260200160608152602001600081526020016060815260200160006001600160a01b031681526020016000151581525090565b600061051586868080601f016020809104026020016040519081016040528093929190818152602001838380828437600092019190915250612d8492505050565b9050600061058c87878080601f01602080910402602001604051908101604052809392919081815260200183838082843760009201919091525050604080516020601f8b018190048102820181019092528981529250899150889081908401838280828437600092019190915250612d9e92505050565b6040805160c081018252600085815260046020908152838220858352808252938220805484529185905292835260020180549394509092918301916105d0906147d4565b80601f01602080910402602001604051908101604052809291908181526020018280546105fc906147d4565b80156106495780601f1061061e57610100808354040283529160200191610649565b820191906000526020600020905b81548152906001019060200180831161062c57829003601f168201915b505050918352505060008481526004602090815260408083208684528083528184206001810154848701529387905290915260039091018054919092019190610691906147d4565b80601f01602080910402602001604051908101604052809291908181526020018280546106bd906147d4565b801561070a5780601f106106df5761010080835404028352916020019161070a565b820191906000526020600020905b8154815290600101906020018083116106ed57829003601f168201915b50505091835250506000938452600460208181526040808720868852808352818820909301546001600160a01b038116838601529590965252600160a01b90920460ff161515929091019190915295945050505050565b6060600560006107a685858080601f016020809104026020016040519081016040528093929190818152602001838380828437600092019190915250612d8492505050565b815260200190815260200160002060090180548060200260200160405190810160405280929190818152602001828054801561080b57602002820191906000526020600020905b81546001600160a01b031681526001909101906020018083116107ed575b505050505090505b92915050565b606060006001546001600160401b0381111561083757610837614161565b60405190808252806020026020018201604052801561087057816020015b61085d613c52565b8152602001906001900390816108555790505b50905060005b600154811015610a3957600060058161089084600161481e565b815260200190815260200160002090506040518060e00160405280826000015481526020018260020180546108c4906147d4565b80601f01602080910402602001604051908101604052809291908181526020018280546108f0906147d4565b801561093d5780601f106109125761010080835404028352916020019161093d565b820191906000526020600020905b81548152906001019060200180831161092057829003601f168201915b5050505050815260200182600101548152602001826003018054610960906147d4565b80601f016020809104026020016040519081016040528092919081815260200182805461098c906147d4565b80156109d95780601f106109ae576101008083540402835291602001916109d9565b820191906000526020600020905b8154815290600101906020018083116109bc57829003601f168201915b505050918352505060048301546001600160a01b0390811660208301526005840154166040820152600783015460ff1615156060909101528351849084908110610a2557610a25614831565b602090810291909101015250600101610876565b50919050565b610a47612df1565b600980546001600160a01b0319166001600160a01b0383169081179091556040517f07b136952c7460e1fc2d593fad96b5b379f28cc13a49857b6a825c5228c1a8d190600090a250565b600a54604080516020601f85018190048102820181019092528381526000926001600160a01b03169163cc3f8dc891610ae4918790879081908401838280828437600092019190915250612d8492505050565b6040518263ffffffff1660e01b8152600401610b0291815260200190565b602060405180830381865afa158015610b1f573d6000803e3d6000fd5b505050506040513d601f19601f82011682018060405250810190610b439190614847565b9392505050565b610b52613c52565b6000610b9384848080601f016020809104026020016040519081016040528093929190818152602001838380828437600092019190915250612d8492505050565b6040805160e081018252600083815260056020818152938220805484529185905283526002018054939450909291830191610bcd906147d4565b80601f0160208091040260200160405190810160405280929190818152602001828054610bf9906147d4565b8015610c465780601f10610c1b57610100808354040283529160200191610c46565b820191906000526020600020905b815481529060010190602001808311610c2957829003601f168201915b5050505050815260200160056000848152602001908152602001600020600101548152602001600560008481526020019081526020016000206003018054610c8d906147d4565b80601f0160208091040260200160405190810160405280929190818152602001828054610cb9906147d4565b8015610d065780601f10610cdb57610100808354040283529160200191610d06565b820191906000526020600020905b815481529060010190602001808311610ce957829003601f168201915b5050509183525050600083815260056020818152604080842060048101546001600160a01b039081168488015281850154169186019190915295909252905260079092015460ff1615156060909201919091529392505050565b60606000610da384848080601f016020809104026020016040519081016040528093929190818152602001838380828437600092019190915250612d8492505050565b600081815260056020526040812060090154919250906001600160401b03811115610dd057610dd0614161565b604051908082528060200260200182016040528015610e3557816020015b610e22604051806080016040528060006001600160a01b031681526020016060815260200160608152602001606081525090565b815260200190600190039081610dee5790505b506000838152600560205260408120600901549192505b81811015611029576000848152600560205260408120600901805483908110610e7757610e77614831565b6000918252602090912001546001600160a01b0316905080610e995750611017565b60006040518060800160405280836001600160a01b03168152602001836001600160a01b03166306fdde036040518163ffffffff1660e01b8152600401600060405180830381865afa158015610ef3573d6000803e3d6000fd5b505050506040513d6000823e601f3d908101601f19168201604052610f1b91908101906148a9565b8152602001836001600160a01b0316636465e69f6040518163ffffffff1660e01b8152600401600060405180830381865afa158015610f5e573d6000803e3d6000fd5b505050506040513d6000823e601f3d908101601f19168201604052610f8691908101906148a9565b8152602001836001600160a01b0316637284e4166040518163ffffffff1660e01b8152600401600060405180830381865afa158015610fc9573d6000803e3d6000fd5b505050506040513d6000823e601f3d908101601f19168201604052610ff191908101906148a9565b81525090508085848151811061100957611009614831565b602002602001018190525050505b80611021816148dd565b915050610e4c565b509095945050505050565b60006110a985858080601f01602080910402602001604051908101604052809392919081815260200183838082843760009201919091525050604080516020601f89018190048102820181019092528781529250879150869081908401838280828437600092019190915250612d9e92505050565b95945050505050565b6000600560006110f786868080601f016020809104026020016040519081016040528093929190818152602001838380828437600092019190915250612d8492505050565b8152602080820192909252604090810160009081206001600160a01b038616825260080190925290205460ff1690509392505050565b61118a84848080601f016020809104026020016040519081016040528093929190818152602001838380828437600092018290525060408051602081019091529081529250600080516020614fcd8339815191529150612e4b9050565b600b54604080516020601f87018190048102820181019092528581526001600160a01b039092169163db474ecb916111dd91908890889081908401838280828437600092019190915250612d8492505050565b84846040518463ffffffff1660e01b81526004016111fd93929190614964565b600060405180830381600087803b15801561121757600080fd5b505af115801561122b573d6000803e3d6000fd5b505050508184846040516112409291906149a0565b60405180910390207fb72e43fbdf2abeb3bfe59e783bcca829d13e9fcde1eac425751faabea6c134c96112703390565b6040516001600160a01b0390911681526020015b60405180910390a350505050565b604080518082019091526000815260606020820152600660006112c984805160209182012060009081526002909152604090205490565b81526020019081526020016000206040518060400160405290816000820154815260200160018201805480602002602001604051908101604052809291908181526020016000905b828210156114ab57838290600052602060002090600502016040518060c00160405290816000820154815260200160018201548152602001600282018054611358906147d4565b80601f0160208091040260200160405190810160405280929190818152602001828054611384906147d4565b80156113d15780601f106113a6576101008083540402835291602001916113d1565b820191906000526020600020905b8154815290600101906020018083116113b457829003601f168201915b505050505081526020016003820180546113ea906147d4565b80601f0160208091040260200160405190810160405280929190818152602001828054611416906147d4565b80156114635780601f1061143857610100808354040283529160200191611463565b820191906000526020600020905b81548152906001019060200180831161144657829003601f168201915b5050509183525050600491909101546001600160a01b038116602080840191909152600160a01b90910460ff1615156040909201919091529082526001929092019101611311565b505050915250909392505050565b6114c1612df1565b6114cb6000612f3a565b565b61155085858080601f01602080910402602001604051908101604052809392919081815260200183838082843760009201919091525050604080516020601f89018190048102820181019092528781529250879150869081908401838280828437600092019190915250600080516020614fed8339815191529250612e4b915050565b61158f85858080601f016020809104026020016040519081016040528093929190818152602001838380828437600092019190915250612f8a92505050565b61160285858080601f01602080910402602001604051908101604052809392919081815260200183838082843760009201919091525050604080516020601f8901819004810282018101909252878152925087915086908190840183828082843760009201919091525061300492505050565b600061164386868080601f016020809104026020016040519081016040528093929190818152602001838380828437600092019190915250612d8492505050565b905060006116ba87878080601f01602080910402602001604051908101604052809392919081815260200183838082843760009201919091525050604080516020601f8b018190048102820181019092528981529250899150889081908401838280828437600092019190915250612d9e92505050565b600083815260046020818152604080842085855290915290912001805460ff60a01b1916600160a01b861515021790559050336001600160a01b031685856040516117069291906149a0565b6040518091039020888860405161171e9291906149a0565b6040519081900381208615158252907fcba51876aa74b247950c251d3459c41aaebd8b10717beadb480ca1a105166ab59060200160405180910390a450505050505050565b6117e686868080601f01602080910402602001604051908101604052809392919081815260200183838082843760009201919091525050604080516020601f8a018190048102820181019092528881529250889150879081908401838280828437600092019190915250600080516020614fed8339815191529250612e4b915050565b600061182787878080601f016020809104026020016040519081016040528093929190818152602001838380828437600092019190915250612d8492505050565b9050600061189e88888080601f01602080910402602001604051908101604052809392919081815260200183838082843760009201919091525050604080516020601f8c018190048102820181019092528a815292508a9150899081908401838280828437600092019190915250612d9e92505050565b905060005b838110156118e0576118ce83838787858181106118c2576118c2614831565b90506020020135613038565b806118d8816148dd565b9150506118a3565b505050505050505050565b61194884848080601f016020809104026020016040519081016040528093929190818152602001838380828437600092018290525060408051602081019091529081529250600080516020614fcd8339815191529150612e4b9050565b600b54604080516020601f87018190048102820181019092528581526001600160a01b0390921691633368c918916111dd91908890889081908401838280828437600092019190915250612d8492505050565b611a1e86868080601f01602080910402602001604051908101604052809392919081815260200183838082843760009201919091525050604080516020601f8a018190048102820181019092528881529250889150879081908401838280828437600092019190915250600080516020614fed8339815191529250612e4b915050565b6000611a5f87878080601f016020809104026020016040519081016040528093929190818152602001838380828437600092019190915250612d8492505050565b90506000611ad688888080601f01602080910402602001604051908101604052809392919081815260200183838082843760009201919091525050604080516020601f8c018190048102820181019092528a815292508a9150899081908401838280828437600092019190915250612d9e92505050565b905060005b838110156118e057611b068383878785818110611afa57611afa614831565b90506020020135613115565b80611b10816148dd565b915050611adb565b6000611b226131f2565b611b34611b2f86806149b0565b6132b3565b6000611b3f866134c8565b600a549091506001600160a01b031663b4b715c482336040516001600160e01b031960e085901b16815260048101929092526001600160a01b03166024820152604401600060405180830381600087803b158015611b9c57600080fd5b505af1158015611bb0573d6000803e3d6000fd5b5050600854611bcd92508391506001600160a01b03166001613548565b600954611be69082906001600160a01b03166001613548565b6000611bf18261361e565b60008381526005602052604090206006018190559050611c1282868661377f565b506000611c2260208801886149f6565b9150508015611ea357600b546000906001600160a01b031663e88ca8a185611c4a8b806149b0565b6040518463ffffffff1660e01b8152600401611c6893929190614a3f565b6020604051808303816000875af1158015611c87573d6000803e3d6000fd5b505050506040513d601f19601f82011682018060405250810190611cab9190614a59565b905060005b82811015611d5557600b546001600160a01b0316633368c9188684611cd860208e018e6149f6565b86818110611ce857611ce8614831565b9050602002810190611cfa9190614a72565b6040518463ffffffff1660e01b8152600401611d1893929190614964565b600060405180830381600087803b158015611d3257600080fd5b505af1158015611d46573d6000803e3d6000fd5b50505050806001019050611cb0565b506000611d6560408a018a6149f6565b90501115611e085760005b611d7d60408a018a6149f6565b9050811015611e06576000611d9560408b018b6149f6565b83818110611da557611da5614831565b9050602002810190611db79190614a72565b611dc090614ab5565b600954604051919250611dfd9188916001600160a01b0316908690611de9908690602001614b9a565b6040516020818303038152906040526138d8565b50600101611d70565b505b6000611e1760608a018a6149f6565b90501115611ea15760005b611e2f60608a018a6149f6565b9050811015611e9f57600854611e979086906001600160a01b031684611e5860608e018e6149f6565b86818110611e6857611e68614831565b9050602002016020810190611e7d9190613fa0565b604080516001600160a01b03909216602083015201611de9565b600101611e22565b505b505b33611eb160208a018a6149b0565b604051611ebf9291906149a0565b604051908190038120907ff53000b1113bed1ef6bf6b948fa1fe2c66a643b317a45c5d52a1537050b2dad290600090a350909695505050505050565b611f5883838080601f016020809104026020016040519081016040528093929190818152602001838380828437600092018290525060408051602081019091529081529250600080516020614fcd8339815191529150612e4b9050565b60056000611f9b85858080601f016020809104026020016040519081016040528093929190818152602001838380828437600092019190915250612d8492505050565b8152602001908152602001600020600601548103611fcc57604051630e52390960e41b815260040160405180910390fd5b600b54604080516020601f86018190048102820181019092528481526001600160a01b039092169163cdb0ba509161201f91908790879081908401838280828437600092019190915250612d8492505050565b836040518363ffffffff1660e01b8152600401612046929190918252602082015260400190565b600060405180830381600087803b15801561206057600080fd5b505af1158015612074573d6000803e3d6000fd5b505050508083836040516120899291906149a0565b60405180910390207f7bb07acd566d038f77cba9c39e7536f74ea2c4ee382024d1b428d7f0680dbc026120b93390565b6040516001600160a01b0390911681526020015b60405180910390a3505050565b6000610b4383838080601f016020809104026020016040519081016040528093929190818152602001838380828437600092019190915250612d8492505050565b60008061215d88888080601f016020809104026020016040519081016040528093929190818152602001838380828437600092019190915250612d8492505050565b905060006121d489898080601f01602080910402602001604051908101604052809392919081815260200183838082843760009201919091525050604080516020601f8d018190048102820181019092528b815292508b91508a9081908401838280828437600092019190915250612d9e92505050565b90506121ea8282876121e588614c06565b613986565b9998505050505050505050565b61223686868080601f016020809104026020016040519081016040528093929190818152602001838380828437600092019190915250612f8a92505050565b61229386868080601f016020809104026020016040519081016040528093929190818152602001838380828437600092018290525060408051602081019091529081529250600080516020614fed8339815191529150612e4b9050565b61229c84613a87565b60006122dd87878080601f016020809104026020016040519081016040528093929190818152602001838380828437600092019190915250612d8492505050565b90506122e98185613b18565b61232b81868686868080601f0160208091040260200160405190810160405280939291908181526020018383808284376000920191909152506138d892505050565b846001600160a01b031687876040516123459291906149a0565b604051908190038120907fe78ad18845af93a80fbe8718cacc631fbe1c453b092806818a044440b96ba67790600090a350505050505050565b612386612df1565b600a80546001600160a01b0319166001600160a01b0383169081179091556040517f68e3ca42e475f54d65227ed8cb60daf9cec4546691052783063876ad972db71190600090a250565b600061242f85858080601f016020809104026020016040519081016040528093929190818152602001838380828437600092018290525060408051602081019091529081529250600080516020614fcd8339815191529150612e4b9050565b600b54604080516020601f88018190048102820181019092528681526001600160a01b039092169163e88ca8a19161248291908990899081908401838280828437600092019190915250612d8492505050565b85856040518463ffffffff1660e01b81526004016124a293929190614a3f565b6020604051808303816000875af11580156124c1573d6000803e3d6000fd5b505050506040513d601f19601f820116820180604052508101906124e59190614a59565b905082826040516124f79291906149a0565b60405180910390208186866040516125109291906149a0565b60405180910390207fc06cee439d340740b1e427558729eb0fcc080aa2ab6d0bcfb30b6618234f460a6125403390565b6040516001600160a01b03909116815260200160405180910390a4949350505050565b6125a286868080601f016020809104026020016040519081016040528093929190818152602001838380828437600092019190915250612f8a92505050565b6125ff86868080601f016020809104026020016040519081016040528093929190818152602001838380828437600092018290525060408051602081019091529081529250600080516020614fed8339815191529150612e4b9050565b600061264087878080601f016020809104026020016040519081016040528093929190818152602001838380828437600092019190915250612d8492505050565b905061264c8185613b18565b61265585613a87565b61269781868686868080601f016020809104026020016040519081016040528093929190818152602001838380828437600092019190915250613b4992505050565b846001600160a01b031687876040516126b19291906149a0565b604051908190038120907f9b42a541e0a10f6a80059e1448b92d56a4e71354d43a2ca1fd3701878cb50ae290600090a350505050505050565b6126f2612df1565b600880546001600160a01b0319166001600160a01b0383169081179091556040517f07b136952c7460e1fc2d593fad96b5b379f28cc13a49857b6a825c5228c1a8d190600090a250565b61274582613a87565b6127a284848080601f016020809104026020016040519081016040528093929190818152602001838380828437600092018290525060408051602081019091529081529250600080516020614fcd8339815191529150612e4b9050565b6009546001600160a01b03838116911614806127cb57506008546001600160a01b038381169116145b156127e957604051631eb49d6d60e11b815260040160405180910390fd5b61283261282b85858080601f016020809104026020016040519081016040528093929190818152602001838380828437600092019190915250612d8492505050565b8383613548565b816001600160a01b0316848460405161284c9291906149a0565b6040519081900381208315158252907f558bdc63bfb8cb1188bc6f559a22d16b8e64dccf7af1d84c90bcf2b7feb1e00990602001611284565b60006128fe61289483806149b0565b8080601f0160208091040260200160405190810160405280939291908181526020018383808284376000920182905250604080516020810190915290815292507f5ef98f1e5b8bd5ee1978908b3f5b2128d59a65f7702f04e6aca3c95aff590be19150612e4b9050565b61294561290b83806149b0565b8080601f016020809104026020016040519081016040528093929190818152602001838380828437600092019190915250612f8a92505050565b612955611b2f60208401846149b0565b600061299e61296484806149b0565b8080601f016020809104026020016040519081016040528093929190818152602001838380828437600092019190915250612d8492505050565b90506129b2816129ad85614cb1565b613bbf565b6000828152600560205260408120600901549193505b81811015612c255760008381526005602052604081206009018054839081106129f3576129f3614831565b6000918252602090912001546001600160a01b0316905080612a155750612c13565b600084815260056020526040908190206006015490516340a74b4360e01b8152600481018690526024810187905260448101919091526001600160a01b038216906340a74b4390606401600060405180830381600087803b158015612a7957600080fd5b505af1158015612a8d573d6000803e3d6000fd5b5050505060005b612aa160608801886149f6565b9050811015612c1057600085815260056020526040902060060154612ac960608901896149f6565b83818110612ad957612ad9614831565b905060200201350315612bfe576001600160a01b0382166340a74b438688612b0460608c018c6149f6565b86818110612b1457612b14614831565b6040516001600160e01b031960e088901b1681526004810195909552602485019390935250602090910201356044820152606401600060405180830381600087803b158015612b6257600080fd5b505af1925050508015612b73575060015b612b905760405163d9afe50760e01b815260040160405180910390fd5b33612b9e60408901896149b0565b604051612bac9291906149a0565b604051908190039020612bbf89806149b0565b604051612bcd9291906149a0565b604051908190038120907ff22ca4e1529bca70f91b82d259651796b8973cec866e55ad258c1f6d56ea71d390600090a45b80612c08816148dd565b915050612a94565b50505b80612c1d816148dd565b9150506129c8565b505050919050565b612c35612df1565b6001600160a01b038116612c9f5760405162461bcd60e51b815260206004820152602660248201527f4f776e61626c653a206e6577206f776e657220697320746865207a65726f206160448201526564647265737360d01b60648201526084015b60405180910390fd5b612ca881612f3a565b50565b612cd38260405180602001604052806000815250600080516020614fcd833981519152612e4b565b6000612cf383805160209182012060009081526002909152604090205490565b905080600003612d165760405163be34080760e01b815260040160405180910390fd5b6000818152600560205260409020600701805460ff1916831515179055336001600160a01b031683604051612d4b9190614d67565b6040519081900381208415158252907fb52a77d1c8e7ecf705bef894088b2c74fb373648434090edc15688f5c80a8687906020016120cd565b805160209182012060009081526002909152604090205490565b600060036000612dc285805160209182012060009081526002909152604090205490565b815260200190815260200160002060008380519060200120815260200190815260200160002054905092915050565b6000546001600160a01b031633146114cb5760405162461bcd60e51b815260206004820181905260248201527f4f776e61626c653a2063616c6c6572206973206e6f7420746865206f776e65726044820152606401612c96565b6000612e6b84805160209182012060009081526002909152604090205490565b90506000612e798585612d9e565b9050612f0e82823360405163173c4a6360e01b8152600481018890527f00000000000000000000000000000000000000000000000000000000000000006001600160a01b03169063173c4a6390602401600060405180830381865afa158015612ee6573d6000803e3d6000fd5b505050506040513d6000823e601f3d908101601f191682016040526121e59190810190614d79565b15612f1a575050505050565b604051631eb49d6d60e11b815260040160405180910390fd5b5050505050565b600080546001600160a01b038381166001600160a01b0319831681178455604051919092169283917f8be0079c531659141344cd1fd0a4f28419497f9722a3daafe3b4186f6b6457e09190a35050565b6000612faa82805160209182012060009081526002909152604090205490565b905080600003612fcd5760405163be34080760e01b815260040160405180910390fd5b60008181526005602052604090206007015460ff16156130005760405163be34080760e01b815260040160405180910390fd5b5050565b60006130108383612d9e565b90508060000361303357604051636ddd9da960e01b815260040160405180910390fd5b505050565b600083815260056020526040812060090154905b81811015612f3357600085815260056020526040812060090180548390811061307757613077614831565b6000918252602090912001546001600160a01b03169050806130995750613103565b604051635c1b185d60e01b81526004810187905260248101869052604481018590526001600160a01b03821690635c1b185d90606401600060405180830381600087803b1580156130e957600080fd5b505af11580156130fd573d6000803e3d6000fd5b50505050505b8061310d816148dd565b91505061304c565b600083815260056020526040812060090154905b81811015612f3357600085815260056020526040812060090180548390811061315457613154614831565b6000918252602090912001546001600160a01b031690508061317657506131e0565b6040516340a74b4360e01b81526004810187905260248101869052604481018590526001600160a01b038216906340a74b4390606401600060405180830381600087803b1580156131c657600080fd5b505af11580156131da573d6000803e3d6000fd5b50505050505b806131ea816148dd565b915050613129565b7f00000000000000000000000000000000000000000000000000000000000000006001600160a01b03166132395760405163361882e360e01b815260040160405180910390fd5b6008546001600160a01b031661326257604051632ab51add60e01b815260040160405180910390fd5b6009546001600160a01b031661328b57604051632ab51add60e01b815260040160405180910390fd5b600a546001600160a01b03166114cb5760405162d1740b60e61b815260040160405180910390fd5b600082828080601f016020809104026020016040519081016040528093929190818152602001838380828437600092019190915250508251929350506002909110905080613302575080516020105b156133205760405163354b556f60e11b815260040160405180910390fd5b805160005b81811015612f3357600360fc1b83828151811061334457613344614831565b01602001516001600160f81b03191610806133825750603d60f91b83828151811061337157613371614831565b01602001516001600160f81b031916115b806133de5750603960f81b83828151811061339f5761339f614831565b01602001516001600160f81b0319161180156133de5750606160f81b8382815181106133cd576133cd614831565b01602001516001600160f81b031916105b801561340f57508281815181106133f7576133f7614831565b6020910101516001600160f81b031916601760f91b14155b8015613440575082818151811061342857613428614831565b6020910101516001600160f81b031916602d60f81b14155b8015613471575082818151811061345957613459614831565b6020910101516001600160f81b031916605f60f81b14155b80156134a2575082818151811061348a5761348a614831565b6020910101516001600160f81b031916600160fd1b14155b156134c05760405163f8fa659760e01b815260040160405180910390fd5b600101613325565b6001805481019081905560405163aa424abb60e01b815273__$41f15a773ad44a80f32c4029fe25814db2$__9063aa424abb9061351390859085903390600290600590600401614dfb565b60006040518083038186803b15801561352b57600080fd5b505af415801561353f573d6000803e3d6000fd5b50505050919050565b80801561357a575060008381526005602090815260408083206001600160a01b038616845260080190915290205460ff165b156135985760405163186abc9b60e01b815260040160405180910390fd5b60405163fd81c88f60e01b8152600481018490526001600160a01b038316602482015281151560448201526005606482015273__$41f15a773ad44a80f32c4029fe25814db2$__9063fd81c88f9060840160006040518083038186803b15801561360157600080fd5b505af4158015613615573d6000803e3d6000fd5b50505050505050565b604080516080808201835260008083526020808401829052838501829052606093840182905284519283018552600a546001600160a01b03168352600183820181905283860181905293830186905284518481528086019095529093919284929182015b60408051608081018252600080825260208083018290529282018190526060820152825260001990920191018161368257905050905081816000815181106136cc576136cc614831565b602090810291909101810191909152604080519182018152828252600b54905163f62df4df60e01b8152600481018790526000916001600160a01b03169063f62df4df906024016020604051808303816000875af1158015613732573d6000803e3d6000fd5b505050506040513d601f19601f820116820180604052508101906137569190614a59565b6009546040519192506110a99188916001600160a01b0316908890611de9908790602001614b9a565b600b546040805163e88ca8a160e01b8152600481018690526024810191909152600860448201526745766572796f6e6560c01b60648201526000916001600160a01b03169063e88ca8a1906084016020604051808303816000875af11580156137ec573d6000803e3d6000fd5b505050506040513d601f19601f820116820180604052508101906138109190614a59565b905060005b828110156138af57600b546001600160a01b0316633368c918868487878681811061384257613842614831565b90506020028101906138549190614a72565b6040518463ffffffff1660e01b815260040161387293929190614964565b600060405180830381600087803b15801561388c57600080fd5b505af11580156138a0573d6000803e3d6000fd5b50505050806001019050613815565b506008546040805160016020820152610b439287926001600160a01b0390911691859101611de9565b60008481526005602090815260408083206001600160a01b038716845260080190915290205460ff1661391e5760405163c1ef36f360e01b815260040160405180910390fd5b604051632587e8d160e11b81526001600160a01b03841690634b0fd1a29061394e90879086908690600401614e77565b600060405180830381600087803b15801561396857600080fd5b505af115801561397c573d6000803e3d6000fd5b5050505050505050565b600084815260056020526040812060090154815b81811015613a7d5760008781526005602052604081206009018054839081106139c5576139c5614831565b6000918252602090912001546001600160a01b03169050806139e75750613a6b565b604051636621899960e01b81526001600160a01b03821690636621899990613a19908b908b908b908b90600401614e96565b602060405180830381865afa158015613a36573d6000803e3d6000fd5b505050506040513d601f19601f82011682018060405250810190613a5a9190614ecc565b15613a69576001935050613a7d565b505b80613a75816148dd565b91505061399a565b5050949350505050565b6040516301ffc9a760e01b815263ebb6cfd560e01b60048201526001600160a01b038216906301ffc9a790602401602060405180830381865afa158015613ad2573d6000803e3d6000fd5b505050506040513d601f19601f82011682018060405250810190613af69190614ecc565b1515600003612ca857604051636d9250f160e11b815260040160405180910390fd5b600082815260056020526040902060060154810361300057604051631eb49d6d60e11b815260040160405180910390fd5b60008481526005602090815260408083206001600160a01b038716845260080190915290205460ff16613b8f5760405163c1ef36f360e01b815260040160405180910390fd5b604051630f477aa360e21b81526001600160a01b03841690633d1dea8c9061394e90879086908690600401614e77565b600082815260066020526040902080546001019081905573__$41f15a773ad44a80f32c4029fe25814db2$__631ddb9a8b838584336006600360046040518863ffffffff1660e01b8152600401613c1c9796959493929190614ee9565b60006040518083038186803b158015613c3457600080fd5b505af4158015613c48573d6000803e3d6000fd5b5050505092915050565b6040518060e001604052806000815260200160608152602001600081526020016060815260200160006001600160a01b0316815260200160006001600160a01b031681526020016000151581525090565b60008083601f840112613cb557600080fd5b5081356001600160401b03811115613ccc57600080fd5b602083019150836020828501011115613ce457600080fd5b9250929050565b60008060008060408587031215613d0157600080fd5b84356001600160401b0380821115613d1857600080fd5b613d2488838901613ca3565b90965094506020870135915080821115613d3d57600080fd5b50613d4a87828801613ca3565b95989497509550505050565b60005b83811015613d71578181015183820152602001613d59565b50506000910152565b60008151808452613d92816020860160208601613d56565b601f01601f19169290920160200192915050565b60208152815160208201526000602083015160c06040840152613dcc60e0840182613d7a565b9050604084015160608401526060840151601f19848303016080850152613df38282613d7a565b91505060018060a01b0360808501511660a084015260a0840151151560c08401528091505092915050565b60008060208385031215613e3157600080fd5b82356001600160401b03811115613e4757600080fd5b613e5385828601613ca3565b90969095509350505050565b6020808252825182820181905260009190848201906040850190845b81811015613ea05783516001600160a01b031683529284019291840191600101613e7b565b50909695505050505050565b805182526000602082015160e06020850152613ecb60e0850182613d7a565b90506040830151604085015260608301518482036060860152613eee8282613d7a565b915050608083015160018060a01b0380821660808701528060a08601511660a0870152505060c0830151151560c08501528091505092915050565b6000602080830181845280855180835260408601915060408160051b870101925083870160005b82811015613f7e57603f19888603018452613f6c858351613eac565b94509285019290850190600101613f50565b5092979650505050505050565b6001600160a01b0381168114612ca857600080fd5b600060208284031215613fb257600080fd5b8135610b4381613f8b565b602081526000610b436020830184613eac565b60006020808301818452808551808352604092508286019150828160051b87010184880160005b8381101561407957888303603f19018552815180516001600160a01b031684528781015160808986018190529061403082870182613d7a565b91505087820151858203898701526140488282613d7a565b915050606080830151925085820381870152506140658183613d7a565b968901969450505090860190600101613ff7565b509098975050505050505050565b60008060006040848603121561409c57600080fd5b83356001600160401b038111156140b257600080fd5b6140be86828701613ca3565b90945092505060208401356140d281613f8b565b809150509250925092565b600060208284031215610a3957600080fd5b6000806000806060858703121561410557600080fd5b84356001600160401b038082111561411c57600080fd5b61412888838901613ca3565b909650945060208701359350604087013591508082111561414857600080fd5b50614155878288016140dd565b91505092959194509250565b634e487b7160e01b600052604160045260246000fd5b604051602081016001600160401b038111828210171561419957614199614161565b60405290565b604051608081016001600160401b038111828210171561419957614199614161565b604051601f8201601f191681016001600160401b03811182821017156141e9576141e9614161565b604052919050565b60006001600160401b0382111561420a5761420a614161565b50601f01601f191660200190565b600082601f83011261422957600080fd5b813561423c614237826141f1565b6141c1565b81815284602083860101111561425157600080fd5b816020850160208301376000918101602001919091529392505050565b60006020828403121561428057600080fd5b81356001600160401b0381111561429657600080fd5b6142a284828501614218565b949350505050565b6000602080835260608084018551838601528286015160408081880152828251808552608094508489019150848160051b8a0101878501945060005b8281101561436757607f198b8303018452855160c0815184528a8201518b85015286820151818886015261431c82860182613d7a565b915050898201518482038b8601526143348282613d7a565b8a8401516001600160a01b0316868c015260a09384015115159390950192909252505094880194928801926001016142e6565b509a9950505050505050505050565b8015158114612ca857600080fd5b60008060008060006060868803121561439c57600080fd5b85356001600160401b03808211156143b357600080fd5b6143bf89838a01613ca3565b909750955060208801359150808211156143d857600080fd5b506143e588828901613ca3565b90945092505060408601356143f981614376565b809150509295509295909350565b60008083601f84011261441957600080fd5b5081356001600160401b0381111561443057600080fd5b6020830191508360208260051b8501011115613ce457600080fd5b6000806000806000806060878903121561446457600080fd5b86356001600160401b038082111561447b57600080fd5b6144878a838b01613ca3565b909850965060208901359150808211156144a057600080fd5b6144ac8a838b01613ca3565b909650945060408901359150808211156144c557600080fd5b506144d289828a01614407565b979a9699509497509295939492505050565b600060808284031215610a3957600080fd5b6000806000806060858703121561450c57600080fd5b84356001600160401b038082111561452357600080fd5b908601906040828903121561453757600080fd5b9094506020860135908082111561454d57600080fd5b614559888389016144e4565b9450604087013591508082111561456f57600080fd5b50613d4a87828801614407565b60008060006040848603121561459157600080fd5b83356001600160401b038111156145a757600080fd5b6145b386828701613ca3565b909790965060209590950135949350505050565b600080600080600080608087890312156145e057600080fd5b86356001600160401b03808211156145f757600080fd5b6146038a838b01613ca3565b9098509650602089013591508082111561461c57600080fd5b6146288a838b01613ca3565b90965094506040890135915061463d82613f8b565b9092506060880135908082111561465357600080fd5b5061466089828a016140dd565b9150509295509295509295565b6000806000806000806080878903121561468657600080fd5b86356001600160401b038082111561469d57600080fd5b6146a98a838b01613ca3565b9098509650602089013591506146be82613f8b565b90945060408801359350606088013590808211156146db57600080fd5b506144d289828a01613ca3565b600080600080606085870312156146fe57600080fd5b84356001600160401b0381111561471457600080fd5b61472087828801613ca3565b909550935050602085013561473481613f8b565b9150604085013561474481614376565b939692955090935050565b60006020828403121561476157600080fd5b81356001600160401b0381111561477757600080fd5b6142a2848285016144e4565b6000806040838503121561479657600080fd5b82356001600160401b038111156147ac57600080fd5b6147b885828601614218565b92505060208301356147c981614376565b809150509250929050565b600181811c908216806147e857607f821691505b602082108103610a3957634e487b7160e01b600052602260045260246000fd5b634e487b7160e01b600052601160045260246000fd5b8082018082111561081357610813614808565b634e487b7160e01b600052603260045260246000fd5b60006020828403121561485957600080fd5b8151610b4381613f8b565b600082601f83011261487557600080fd5b8151614883614237826141f1565b81815284602083860101111561489857600080fd5b6142a2826020830160208701613d56565b6000602082840312156148bb57600080fd5b81516001600160401b038111156148d157600080fd5b6142a284828501614864565b6000600182016148ef576148ef614808565b5060010190565b6000808335601e1984360301811261490d57600080fd5b83016020810192503590506001600160401b0381111561492c57600080fd5b803603821315613ce457600080fd5b81835281816020850137506000828201602090810191909152601f909101601f19169091010190565b83815282602082015260606040820152600061498083846148f6565b6020606085015261499560808501828461493b565b979650505050505050565b8183823760009101908152919050565b6000808335601e198436030181126149c757600080fd5b8301803591506001600160401b038211156149e157600080fd5b602001915036819003821315613ce457600080fd5b6000808335601e19843603018112614a0d57600080fd5b8301803591506001600160401b03821115614a2757600080fd5b6020019150600581901b3603821315613ce457600080fd5b8381526040602082015260006110a960408301848661493b565b600060208284031215614a6b57600080fd5b5051919050565b60008235601e19833603018112614a8857600080fd5b9190910192915050565b60006001600160401b03821115614aab57614aab614161565b5060051b60200190565b60006020808336031215614ac857600080fd5b614ad0614177565b83356001600160401b03811115614ae657600080fd5b840136601f820112614af757600080fd5b8035614b0561423782614a92565b81815260079190911b82018401908481019036831115614b2457600080fd5b928501925b82841015614b8d5760808436031215614b425760008081fd5b614b4a61419f565b8435614b5581613f8b565b81528487013587820152604080860135614b6e81614376565b9082015260608581013590820152825260809093019290850190614b29565b8452509195945050505050565b60006020808352604080840185518384870152818151808452606093508388019150858301925060005b8181101561407957835180516001600160a01b031684528781015188850152868101511515878501528501518584015292860192608090920191600101614bc4565b600060208236031215614c1857600080fd5b614c20614177565b82356001600160401b03811115614c3657600080fd5b614c4236828601614218565b82525092915050565b600082601f830112614c5c57600080fd5b81356020614c6c61423783614a92565b82815260059290921b84018101918181019086841115614c8b57600080fd5b8286015b84811015614ca65780358352918301918301614c8f565b509695505050505050565b600060808236031215614cc357600080fd5b614ccb61419f565b82356001600160401b0380821115614ce257600080fd5b614cee36838701614218565b83526020850135915080821115614d0457600080fd5b614d1036838701614218565b60208401526040850135915080821115614d2957600080fd5b614d3536838701614218565b60408401526060850135915080821115614d4e57600080fd5b50614d5b36828601614c4b565b60608301525092915050565b60008251614a88818460208701613d56565b600060208284031215614d8b57600080fd5b81516001600160401b0380821115614da257600080fd5b9083019060208286031215614db657600080fd5b604051602081018181108382111715614dd157614dd1614161565b604052825182811115614de357600080fd5b614def87828601614864565b82525095945050505050565b60a081526000614e0b87886148f6565b604060a0850152614e2060e08501828461493b565b915050614e3060208901896148f6565b848303609f190160c0860152614e4783828461493b565b6020860199909952505050506001600160a01b039390931660408401526060830191909152608090910152919050565b8381528260208201526060604082015260006110a96060830184613d7a565b84815283602082015260018060a01b038316604082015260806060820152600082516020608084015261499560a0840182613d7a565b600060208284031215614ede57600080fd5b8151610b4381614376565b60e0815260008851608060e0840152614f06610160840182613d7a565b90506020808b015160df198086850301610100870152614f268483613d7a565b935060408d015191508086850301610120870152614f448483613d7a565b60608e015187820390920161014088015281518082529184019450600092508301905b80831015614f875784518252938301936001929092019190830190614f67565b509185018b905250604084018990526001600160a01b03881660608501529150614fae9050565b8460808301528360a08301528260c08301529897505050505050505056fe75be26f315524d8937b28469fe5b4df7e59aebca1fcbbbe5669005e1491b131b71e770fed024e50450e0cb5318c1a012e92ab6439dfbe6c071800b700ce55c0aa2646970667358221220e003a43ce4eec126cd70cc130664cef8a9ae103ac1aff86497e0ab432a112ad164736f6c63430008110033",
    "linkReferences": {
      "contracts/src/spaces/libraries/CreationLogic.sol": {
        "CreationLogic": [
          {
            "start": 13932,
            "length": 20
          },
          {
            "start": 14167,
            "length": 20
          },
          {
            "start": 15715,
            "length": 20
          }
        ]
      }
    }
  },
  "methodIdentifiers": {
    "addPermissionToRole(string,uint256,(string))": "7d9a0230",
    "addRoleIdsToChannel(string,string,uint256[])": "81fb7db2",
    "addRoleToEntitlementModule(string,address,uint256,bytes)": "c79ff589",
    "createChannel((string,string,string,uint256[]))": "f1b287d8",
    "createRole(string,string)": "d2192dbf",
    "createSpace((string,string),(string,(string)[],((address,uint256,bool,uint256)[])[],address[]),(string)[])": "8698dd76",
    "getChannelIdByNetworkId(string,string)": "3e66eae3",
    "getChannelInfoByChannelId(string,string)": "0db37ba3",
    "getChannelsBySpaceId(string)": "50c24eef",
    "getEntitlementModulesBySpaceId(string)": "141b6498",
    "getEntitlementsInfoBySpaceId(string)": "3519167c",
    "getSpaceIdByNetworkId(string)": "9ddd0d6b",
    "getSpaceInfoBySpaceId(string)": "2bb59212",
    "getSpaceOwnerBySpaceId(string)": "2a4bdf25",
    "getSpaces()": "15478ca9",
    "isEntitled(string,string,address,(string))": "bf77b663",
    "isEntitlementModuleWhitelisted(string,address)": "4196d1ff",
    "owner()": "8da5cb5b",
    "removeEntitlement(string,address,uint256,bytes)": "d6b1b633",
    "removePermissionFromRole(string,uint256,(string))": "4832a4ec",
    "removeRole(string,uint256)": "8b0e905a",
    "removeRoleIdsFromChannel(string,string,uint256[])": "7a40ab90",
    "renounceOwnership()": "715018a6",
    "setChannelAccess(string,string,bool)": "72a29321",
    "setDefaultTokenEntitlementModule(address)": "1a039620",
    "setDefaultUserEntitlementModule(address)": "e1b7a9e5",
    "setSpaceAccess(string,bool)": "f86caf83",
    "setSpaceNFT(address)": "ccde2de3",
    "transferOwnership(address)": "f2fde38b",
    "whitelistEntitlementModule(string,address,bool)": "e798ff3f"
  },
  "id": 18
}