{
  "abi": [
    {
      "inputs": [
        {
          "internalType": "address",
          "name": "_permissionRegistry",
          "type": "address"
        },
        {
          "internalType": "address",
          "name": "_roleManager",
          "type": "address"
        }
      ],
      "stateMutability": "nonpayable",
      "type": "constructor"
    },
    {
      "inputs": [],
      "name": "ChannelDoesNotExist",
      "type": "error"
    },
    {
      "inputs": [],
      "name": "DefaultEntitlementModuleNotSet",
      "type": "error"
    },
    {
      "inputs": [],
      "name": "DefaultPermissionsManagerNotSet",
      "type": "error"
    },
    {
      "inputs": [],
      "name": "EntitlementAlreadyWhitelisted",
      "type": "error"
    },
    {
      "inputs": [],
      "name": "EntitlementModuleNotSupported",
      "type": "error"
    },
    {
      "inputs": [],
      "name": "EntitlementNotWhitelisted",
      "type": "error"
    },
    {
      "inputs": [],
      "name": "InvalidParameters",
      "type": "error"
    },
    {
      "inputs": [],
      "name": "NotAllowed",
      "type": "error"
    },
    {
      "inputs": [],
      "name": "RoleDoesNotExist",
      "type": "error"
    },
    {
      "inputs": [],
      "name": "SpaceDoesNotExist",
      "type": "error"
    },
    {
      "inputs": [],
      "name": "SpaceNFTNotSet",
      "type": "error"
    },
    {
      "anonymous": false,
      "inputs": [
        {
          "indexed": true,
          "internalType": "address",
          "name": "previousOwner",
          "type": "address"
        },
        {
          "indexed": true,
          "internalType": "address",
          "name": "newOwner",
          "type": "address"
        }
      ],
      "name": "OwnershipTransferred",
      "type": "event"
    },
    {
      "inputs": [
        {
          "internalType": "string",
          "name": "spaceId",
          "type": "string"
        },
        {
          "internalType": "uint256",
          "name": "roleId",
          "type": "uint256"
        },
        {
          "components": [
            {
              "internalType": "string",
              "name": "name",
              "type": "string"
            }
          ],
          "internalType": "struct DataTypes.Permission",
          "name": "permission",
          "type": "tuple"
        }
      ],
      "name": "addPermissionToRole",
      "outputs": [],
      "stateMutability": "nonpayable",
      "type": "function"
    },
    {
      "inputs": [
        {
          "internalType": "string",
          "name": "spaceNetworkId",
          "type": "string"
        },
        {
          "internalType": "string",
          "name": "channelNetworkId",
          "type": "string"
        },
        {
          "internalType": "address",
          "name": "entitlementModuleAddress",
          "type": "address"
        },
        {
          "internalType": "uint256",
          "name": "roleId",
          "type": "uint256"
        },
        {
          "internalType": "bytes",
          "name": "entitlementData",
          "type": "bytes"
        }
      ],
      "name": "addRoleToEntitlementModule",
      "outputs": [],
      "stateMutability": "nonpayable",
      "type": "function"
    },
    {
      "inputs": [
        {
          "components": [
            {
              "internalType": "string",
              "name": "spaceNetworkId",
              "type": "string"
            },
            {
              "internalType": "string",
              "name": "channelName",
              "type": "string"
            },
            {
              "internalType": "string",
              "name": "channelNetworkId",
              "type": "string"
            }
          ],
          "internalType": "struct DataTypes.CreateChannelData",
          "name": "data",
          "type": "tuple"
        },
        {
          "components": [
            {
              "internalType": "uint256",
              "name": "roleId",
              "type": "uint256"
            },
            {
              "internalType": "address",
              "name": "entitlementModule",
              "type": "address"
            },
            {
              "internalType": "bytes",
              "name": "entitlementData",
              "type": "bytes"
            }
          ],
          "internalType": "struct DataTypes.CreateRoleEntitlementData[]",
          "name": "roles",
          "type": "tuple[]"
        }
      ],
      "name": "createChannel",
      "outputs": [
        {
          "internalType": "uint256",
          "name": "channelId",
          "type": "uint256"
        }
      ],
      "stateMutability": "nonpayable",
      "type": "function"
    },
    {
      "inputs": [
        {
          "internalType": "string",
          "name": "spaceNetworkId",
          "type": "string"
        },
        {
          "internalType": "string",
          "name": "name",
          "type": "string"
        }
      ],
      "name": "createRole",
      "outputs": [
        {
          "internalType": "uint256",
          "name": "roleId",
          "type": "uint256"
        }
      ],
      "stateMutability": "nonpayable",
      "type": "function"
    },
    {
      "inputs": [
        {
          "components": [
            {
              "internalType": "string",
              "name": "spaceName",
              "type": "string"
            },
            {
              "internalType": "string",
              "name": "spaceNetworkId",
              "type": "string"
            }
          ],
          "internalType": "struct DataTypes.CreateSpaceData",
          "name": "info",
          "type": "tuple"
        },
        {
          "components": [
            {
              "internalType": "string",
              "name": "roleName",
              "type": "string"
            },
            {
              "components": [
                {
                  "internalType": "string",
                  "name": "name",
                  "type": "string"
                }
              ],
              "internalType": "struct DataTypes.Permission[]",
              "name": "permissions",
              "type": "tuple[]"
            },
            {
              "components": [
                {
                  "internalType": "string",
                  "name": "tag",
                  "type": "string"
                },
                {
                  "components": [
                    {
                      "internalType": "address",
                      "name": "contractAddress",
                      "type": "address"
                    },
                    {
                      "internalType": "uint256",
                      "name": "quantity",
                      "type": "uint256"
                    },
                    {
                      "internalType": "bool",
                      "name": "isSingleToken",
                      "type": "bool"
                    },
                    {
                      "internalType": "uint256",
                      "name": "tokenId",
                      "type": "uint256"
                    }
                  ],
                  "internalType": "struct DataTypes.ExternalToken[]",
                  "name": "tokens",
                  "type": "tuple[]"
                }
              ],
              "internalType": "struct DataTypes.ExternalTokenEntitlement[]",
              "name": "externalTokenEntitlements",
              "type": "tuple[]"
            },
            {
              "internalType": "address[]",
              "name": "users",
              "type": "address[]"
            }
          ],
          "internalType": "struct DataTypes.CreateSpaceEntitlementData",
          "name": "entitlementData",
          "type": "tuple"
        },
        {
          "components": [
            {
              "internalType": "string",
              "name": "name",
              "type": "string"
            }
          ],
          "internalType": "struct DataTypes.Permission[]",
          "name": "everyonePermissions",
          "type": "tuple[]"
        }
      ],
      "name": "createSpace",
      "outputs": [
        {
          "internalType": "uint256",
          "name": "",
          "type": "uint256"
        }
      ],
      "stateMutability": "nonpayable",
      "type": "function"
    },
    {
      "inputs": [
        {
          "internalType": "string",
          "name": "spaceId",
          "type": "string"
        },
        {
          "internalType": "string",
          "name": "channelId",
          "type": "string"
        }
      ],
      "name": "getChannelIdByNetworkId",
      "outputs": [
        {
          "internalType": "uint256",
          "name": "",
          "type": "uint256"
        }
      ],
      "stateMutability": "view",
      "type": "function"
    },
    {
      "inputs": [
        {
          "internalType": "string",
          "name": "spaceId",
          "type": "string"
        },
        {
          "internalType": "string",
          "name": "channelId",
          "type": "string"
        }
      ],
      "name": "getChannelInfoByChannelId",
      "outputs": [
        {
          "components": [
            {
              "internalType": "uint256",
              "name": "channelId",
              "type": "uint256"
            },
            {
              "internalType": "string",
              "name": "networkId",
              "type": "string"
            },
            {
              "internalType": "uint256",
              "name": "createdAt",
              "type": "uint256"
            },
            {
              "internalType": "string",
              "name": "name",
              "type": "string"
            },
            {
              "internalType": "address",
              "name": "creator",
              "type": "address"
            },
            {
              "internalType": "bool",
              "name": "disabled",
              "type": "bool"
            }
          ],
          "internalType": "struct DataTypes.ChannelInfo",
          "name": "",
          "type": "tuple"
        }
      ],
      "stateMutability": "view",
      "type": "function"
    },
    {
      "inputs": [
        {
          "internalType": "string",
          "name": "spaceId",
          "type": "string"
        }
      ],
      "name": "getChannelsBySpaceId",
      "outputs": [
        {
          "components": [
            {
              "internalType": "uint256",
              "name": "idCounter",
              "type": "uint256"
            },
            {
              "components": [
                {
                  "internalType": "uint256",
                  "name": "channelId",
                  "type": "uint256"
                },
                {
                  "internalType": "uint256",
                  "name": "createdAt",
                  "type": "uint256"
                },
                {
                  "internalType": "string",
                  "name": "networkId",
                  "type": "string"
                },
                {
                  "internalType": "string",
                  "name": "name",
                  "type": "string"
                },
                {
                  "internalType": "address",
                  "name": "creator",
                  "type": "address"
                },
                {
                  "internalType": "bool",
                  "name": "disabled",
                  "type": "bool"
                }
              ],
              "internalType": "struct DataTypes.Channel[]",
              "name": "channels",
              "type": "tuple[]"
            }
          ],
          "internalType": "struct DataTypes.Channels",
          "name": "",
          "type": "tuple"
        }
      ],
      "stateMutability": "view",
      "type": "function"
    },
    {
      "inputs": [
        {
          "internalType": "string",
          "name": "spaceId",
          "type": "string"
        }
      ],
      "name": "getEntitlementModulesBySpaceId",
      "outputs": [
        {
          "internalType": "address[]",
          "name": "",
          "type": "address[]"
        }
      ],
      "stateMutability": "view",
      "type": "function"
    },
    {
      "inputs": [
        {
          "internalType": "string",
          "name": "spaceId",
          "type": "string"
        }
      ],
      "name": "getEntitlementsInfoBySpaceId",
      "outputs": [
        {
          "components": [
            {
              "internalType": "address",
              "name": "addr",
              "type": "address"
            },
            {
              "internalType": "string",
              "name": "name",
              "type": "string"
            },
            {
              "internalType": "string",
              "name": "description",
              "type": "string"
            }
          ],
          "internalType": "struct DataTypes.EntitlementModuleInfo[]",
          "name": "",
          "type": "tuple[]"
        }
      ],
      "stateMutability": "view",
      "type": "function"
    },
    {
      "inputs": [
        {
          "internalType": "bytes32",
          "name": "permissionType",
          "type": "bytes32"
        }
      ],
      "name": "getPermissionFromMap",
      "outputs": [
        {
          "components": [
            {
              "internalType": "string",
              "name": "name",
              "type": "string"
            }
          ],
          "internalType": "struct DataTypes.Permission",
          "name": "",
          "type": "tuple"
        }
      ],
      "stateMutability": "view",
      "type": "function"
    },
    {
      "inputs": [
        {
          "internalType": "string",
          "name": "networkId",
          "type": "string"
        }
      ],
      "name": "getSpaceIdByNetworkId",
      "outputs": [
        {
          "internalType": "uint256",
          "name": "",
          "type": "uint256"
        }
      ],
      "stateMutability": "view",
      "type": "function"
    },
    {
      "inputs": [
        {
          "internalType": "string",
          "name": "spaceId",
          "type": "string"
        }
      ],
      "name": "getSpaceInfoBySpaceId",
      "outputs": [
        {
          "components": [
            {
              "internalType": "uint256",
              "name": "spaceId",
              "type": "uint256"
            },
            {
              "internalType": "string",
              "name": "networkId",
              "type": "string"
            },
            {
              "internalType": "uint256",
              "name": "createdAt",
              "type": "uint256"
            },
            {
              "internalType": "string",
              "name": "name",
              "type": "string"
            },
            {
              "internalType": "address",
              "name": "creator",
              "type": "address"
            },
            {
              "internalType": "address",
              "name": "owner",
              "type": "address"
            },
            {
              "internalType": "bool",
              "name": "disabled",
              "type": "bool"
            }
          ],
          "internalType": "struct DataTypes.SpaceInfo",
          "name": "",
          "type": "tuple"
        }
      ],
      "stateMutability": "view",
      "type": "function"
    },
    {
      "inputs": [
        {
          "internalType": "string",
          "name": "spaceId",
          "type": "string"
        }
      ],
      "name": "getSpaceOwnerBySpaceId",
      "outputs": [
        {
          "internalType": "address",
          "name": "",
          "type": "address"
        }
      ],
      "stateMutability": "view",
      "type": "function"
    },
    {
      "inputs": [],
      "name": "getSpaces",
      "outputs": [
        {
          "components": [
            {
              "internalType": "uint256",
              "name": "spaceId",
              "type": "uint256"
            },
            {
              "internalType": "string",
              "name": "networkId",
              "type": "string"
            },
            {
              "internalType": "uint256",
              "name": "createdAt",
              "type": "uint256"
            },
            {
              "internalType": "string",
              "name": "name",
              "type": "string"
            },
            {
              "internalType": "address",
              "name": "creator",
              "type": "address"
            },
            {
              "internalType": "address",
              "name": "owner",
              "type": "address"
            },
            {
              "internalType": "bool",
              "name": "disabled",
              "type": "bool"
            }
          ],
          "internalType": "struct DataTypes.SpaceInfo[]",
          "name": "",
          "type": "tuple[]"
        }
      ],
      "stateMutability": "view",
      "type": "function"
    },
    {
      "inputs": [
        {
          "internalType": "string",
          "name": "spaceId",
          "type": "string"
        },
        {
          "internalType": "string",
          "name": "channelId",
          "type": "string"
        },
        {
          "internalType": "address",
          "name": "user",
          "type": "address"
        },
        {
          "components": [
            {
              "internalType": "string",
              "name": "name",
              "type": "string"
            }
          ],
          "internalType": "struct DataTypes.Permission",
          "name": "permission",
          "type": "tuple"
        }
      ],
      "name": "isEntitled",
      "outputs": [
        {
          "internalType": "bool",
          "name": "",
          "type": "bool"
        }
      ],
      "stateMutability": "view",
      "type": "function"
    },
    {
      "inputs": [
        {
          "internalType": "string",
          "name": "spaceId",
          "type": "string"
        },
        {
          "internalType": "address",
          "name": "entitlementModuleAddress",
          "type": "address"
        }
      ],
      "name": "isEntitlementModuleWhitelisted",
      "outputs": [
        {
          "internalType": "bool",
          "name": "",
          "type": "bool"
        }
      ],
      "stateMutability": "view",
      "type": "function"
    },
    {
      "inputs": [],
      "name": "owner",
      "outputs": [
        {
          "internalType": "address",
          "name": "",
          "type": "address"
        }
      ],
      "stateMutability": "view",
      "type": "function"
    },
    {
      "inputs": [
        {
          "internalType": "string",
          "name": "spaceNetworkId",
          "type": "string"
        },
        {
          "internalType": "string",
          "name": "channelNetworkId",
          "type": "string"
        },
        {
          "internalType": "address",
          "name": "entitlementModuleAddress",
          "type": "address"
        },
        {
          "internalType": "uint256[]",
          "name": "roleIds",
          "type": "uint256[]"
        },
        {
          "internalType": "bytes",
          "name": "data",
          "type": "bytes"
        }
      ],
      "name": "removeEntitlement",
      "outputs": [],
      "stateMutability": "nonpayable",
      "type": "function"
    },
    {
      "inputs": [
        {
          "internalType": "string",
          "name": "spaceNetworkId",
          "type": "string"
        },
        {
          "internalType": "uint256",
          "name": "roleId",
          "type": "uint256"
        },
        {
          "components": [
            {
              "internalType": "string",
              "name": "name",
              "type": "string"
            }
          ],
          "internalType": "struct DataTypes.Permission",
          "name": "permission",
          "type": "tuple"
        }
      ],
      "name": "removePermissionFromRole",
      "outputs": [],
      "stateMutability": "nonpayable",
      "type": "function"
    },
    {
      "inputs": [
        {
          "internalType": "string",
          "name": "spaceNetworkId",
          "type": "string"
        },
        {
          "internalType": "uint256",
          "name": "roleId",
          "type": "uint256"
        }
      ],
      "name": "removeRole",
      "outputs": [],
      "stateMutability": "nonpayable",
      "type": "function"
    },
    {
      "inputs": [],
      "name": "renounceOwnership",
      "outputs": [],
      "stateMutability": "nonpayable",
      "type": "function"
    },
    {
      "inputs": [
        {
          "internalType": "string",
          "name": "spaceNetworkId",
          "type": "string"
        },
        {
          "internalType": "string",
          "name": "channelNetworkId",
          "type": "string"
        },
        {
          "internalType": "bool",
          "name": "disabled",
          "type": "bool"
        }
      ],
      "name": "setChannelAccess",
      "outputs": [],
      "stateMutability": "nonpayable",
      "type": "function"
    },
    {
      "inputs": [
        {
          "internalType": "address",
          "name": "entitlementModule",
          "type": "address"
        }
      ],
      "name": "setDefaultTokenEntitlementModule",
      "outputs": [],
      "stateMutability": "nonpayable",
      "type": "function"
    },
    {
      "inputs": [
        {
          "internalType": "address",
          "name": "entitlementModule",
          "type": "address"
        }
      ],
      "name": "setDefaultUserEntitlementModule",
      "outputs": [],
      "stateMutability": "nonpayable",
      "type": "function"
    },
    {
      "inputs": [
        {
          "internalType": "string",
          "name": "spaceNetworkId",
          "type": "string"
        },
        {
          "internalType": "bool",
          "name": "disabled",
          "type": "bool"
        }
      ],
      "name": "setSpaceAccess",
      "outputs": [],
      "stateMutability": "nonpayable",
      "type": "function"
    },
    {
      "inputs": [
        {
          "internalType": "address",
          "name": "spaceNFTAddress",
          "type": "address"
        }
      ],
      "name": "setSpaceNFT",
      "outputs": [],
      "stateMutability": "nonpayable",
      "type": "function"
    },
    {
      "inputs": [
        {
          "internalType": "address",
          "name": "newOwner",
          "type": "address"
        }
      ],
      "name": "transferOwnership",
      "outputs": [],
      "stateMutability": "nonpayable",
      "type": "function"
    },
    {
      "inputs": [
        {
          "internalType": "string",
          "name": "spaceNetworkId",
          "type": "string"
        },
        {
          "internalType": "address",
          "name": "entitlementAddress",
          "type": "address"
        },
        {
          "internalType": "bool",
          "name": "whitelist",
          "type": "bool"
        }
      ],
      "name": "whitelistEntitlementModule",
      "outputs": [],
      "stateMutability": "nonpayable",
      "type": "function"
    }
  ],
  "bytecode": {
    "object": "0x60c06040523480156200001157600080fd5b5060405162005b6838038062005b68833981016040819052620000349162000129565b6200003f33620000bc565b6001600160a01b0382166200006757604051630e52390960e41b815260040160405180910390fd5b6001600160a01b0381166200008f57604051630e52390960e41b815260040160405180910390fd5b6001600160a01b0391821660a052166080819052600b80546001600160a01b031916909117905562000161565b600080546001600160a01b038381166001600160a01b0319831681178455604051919092169283917f8be0079c531659141344cd1fd0a4f28419497f9722a3daafe3b4186f6b6457e09190a35050565b80516001600160a01b03811681146200012457600080fd5b919050565b600080604083850312156200013d57600080fd5b62000148836200010c565b915062000158602084016200010c565b90509250929050565b60805160a0516159dd6200018b60003960008181611cf201526139580152600050506159dd6000f3fe608060405234801561001057600080fd5b50600436106101cf5760003560e01c80638b0e905a11610104578063ccde2de3116100a2578063e69689af11610071578063e69689af1461044d578063e798ff3f14610460578063f2fde38b14610473578063f86caf831461048657600080fd5b8063ccde2de314610401578063d2192dbf14610414578063d9d94cb714610427578063e1b7a9e51461043a57600080fd5b80639ea4d532116100de5780639ea4d532146103a8578063a3a39cb9146103c8578063bbd7358a146103db578063bf77b663146103ee57600080fd5b80638b0e905a146103645780638da5cb5b146103775780639ddd0d6b1461039557600080fd5b80633e66eae31161017157806350c24eef1161014b57806350c24eef14610316578063715018a61461033657806372a293211461033e5780637d9a02301461035157600080fd5b80633e66eae3146102bf5780634196d1ff146102e05780634832a4ec1461030357600080fd5b80631a039620116101ad5780631a039620146102325780632a4bdf25146102475780632bb592121461027f5780633519167c1461029f57600080fd5b80630db37ba3146101d4578063141b6498146101fd57806315478ca91461021d575b600080fd5b6101e76101e236600461410e565b610499565b6040516101f491906141e8565b60405180910390f35b61021061020b36600461428c565b610797565b6040516101f491906142ce565b61022561085c565b6040516101f491906143b3565b610245610240366004614455565b610af6565b005b61025a61025536600461428c565b610b6d565b60405173ffffffffffffffffffffffffffffffffffffffff90911681526020016101f4565b61029261028d36600461428c565b610c33565b6040516101f49190614472565b6102b26102ad36600461428c565b610ebc565b6040516101f49190614485565b6102d26102cd36600461410e565b61119c565b6040519081526020016101f4565b6102f36102ee36600461454a565b61121a565b60405190151581526020016101f4565b6102456103113660046145b3565b6112a2565b6103296103243660046147b7565b611433565b6040516101f491906147ec565b610245611678565b61024561034c3660046148f1565b61168c565b61024561035f3660046145b3565b61196d565b610245610372366004614975565b611a3c565b60005473ffffffffffffffffffffffffffffffffffffffff1661025a565b6102d26103a336600461428c565b611c60565b6103bb6103b63660046149c1565b611ca1565b6040516101f491906149da565b6102456103d6366004614a3a565b611d7f565b6102456103e9366004614b15565b611fac565b6102f36103fc366004614bcd565b61220e565b61024561040f366004614455565b61229a565b6102d261042236600461410e565b612311565b6102d2610435366004614c74565b6124d0565b610245610448366004614455565b612ac3565b6102d261045b366004614e3f565b612b3a565b61024561046e366004614f19565b612f19565b610245610481366004614455565b61303a565b610245610494366004614f81565b6130f6565b6104ea6040518060c0016040528060008152602001606081526020016000815260200160608152602001600073ffffffffffffffffffffffffffffffffffffffff1681526020016000151581525090565b600061052b86868080601f01602080910402602001604051908101604052809392919081815260200183838082843760009201919091525061322592505050565b905060006105a287878080601f01602080910402602001604051908101604052809392919081815260200183838082843760009201919091525050604080516020601f8b01819004810282018101909252898152925089915088908190840183828082843760009201919091525061323f92505050565b6040805160c081018252600085815260046020908152838220858352808252938220805484529185905292835260020180549394509092918301916105e690614fd3565b80601f016020809104026020016040519081016040528092919081815260200182805461061290614fd3565b801561065f5780601f106106345761010080835404028352916020019161065f565b820191906000526020600020905b81548152906001019060200180831161064257829003601f168201915b5050509183525050600084815260046020908152604080832086845280835281842060018101548487015293879052909152600390910180549190920191906106a790614fd3565b80601f01602080910402602001604051908101604052809291908181526020018280546106d390614fd3565b80156107205780601f106106f557610100808354040283529160200191610720565b820191906000526020600020905b81548152906001019060200180831161070357829003601f168201915b505050918352505060009384526004602081815260408087208688528083528188209093015473ffffffffffffffffffffffffffffffffffffffff81168386015295909652527401000000000000000000000000000000000000000090920460ff161515929091019190915290505b949350505050565b6060600560006107dc85858080601f01602080910402602001604051908101604052809392919081815260200183838082843760009201919091525061322592505050565b815260200190815260200160002060090180548060200260200160405190810160405280929190818152602001828054801561084e57602002820191906000526020600020905b815473ffffffffffffffffffffffffffffffffffffffff168152600190910190602001808311610823575b505050505090505b92915050565b6060600060015467ffffffffffffffff81111561087b5761087b614626565b60405190808252806020026020018201604052801561091a57816020015b6109076040518060e0016040528060008152602001606081526020016000815260200160608152602001600073ffffffffffffffffffffffffffffffffffffffff168152602001600073ffffffffffffffffffffffffffffffffffffffff1681526020016000151581525090565b8152602001906001900390816108995790505b50905060005b600154811015610af057600060058161093a84600161504f565b815260200190815260200160002090506040518060e001604052808260000154815260200182600201805461096e90614fd3565b80601f016020809104026020016040519081016040528092919081815260200182805461099a90614fd3565b80156109e75780601f106109bc576101008083540402835291602001916109e7565b820191906000526020600020905b8154815290600101906020018083116109ca57829003601f168201915b5050505050815260200182600101548152602001826003018054610a0a90614fd3565b80601f0160208091040260200160405190810160405280929190818152602001828054610a3690614fd3565b8015610a835780601f10610a5857610100808354040283529160200191610a83565b820191906000526020600020905b815481529060010190602001808311610a6657829003601f168201915b5050509183525050600483015473ffffffffffffffffffffffffffffffffffffffff90811660208301526005840154166040820152600783015460ff1615156060909101528351849084908110610adc57610adc615062565b602090810291909101015250600101610920565b50919050565b610afe613292565b600980547fffffffffffffffffffffffff00000000000000000000000000000000000000001673ffffffffffffffffffffffffffffffffffffffff83169081179091556040517f07b136952c7460e1fc2d593fad96b5b379f28cc13a49857b6a825c5228c1a8d190600090a250565b600a54604080516020601f850181900481028201810190925283815260009273ffffffffffffffffffffffffffffffffffffffff169163cc3f8dc891610bcd91879087908190840183828082843760009201919091525061322592505050565b6040518263ffffffff1660e01b8152600401610beb91815260200190565b602060405180830381865afa158015610c08573d6000803e3d6000fd5b505050506040513d601f19601f82011682018060405250810190610c2c9190615091565b9392505050565b610ca16040518060e0016040528060008152602001606081526020016000815260200160608152602001600073ffffffffffffffffffffffffffffffffffffffff168152602001600073ffffffffffffffffffffffffffffffffffffffff1681526020016000151581525090565b6000610ce284848080601f01602080910402602001604051908101604052809392919081815260200183838082843760009201919091525061322592505050565b6040805160e081018252600083815260056020818152938220805484529185905283526002018054939450909291830191610d1c90614fd3565b80601f0160208091040260200160405190810160405280929190818152602001828054610d4890614fd3565b8015610d955780601f10610d6a57610100808354040283529160200191610d95565b820191906000526020600020905b815481529060010190602001808311610d7857829003601f168201915b5050505050815260200160056000848152602001908152602001600020600101548152602001600560008481526020019081526020016000206003018054610ddc90614fd3565b80601f0160208091040260200160405190810160405280929190818152602001828054610e0890614fd3565b8015610e555780601f10610e2a57610100808354040283529160200191610e55565b820191906000526020600020905b815481529060010190602001808311610e3857829003601f168201915b50505091835250506000838152600560208181526040808420600481015473ffffffffffffffffffffffffffffffffffffffff9081168488015281850154169186019190915295909252905260079092015460ff1615156060909201919091529392505050565b60606000610eff84848080601f01602080910402602001604051908101604052809392919081815260200183838082843760009201919091525061322592505050565b6000818152600560205260408120600901549192509067ffffffffffffffff811115610f2d57610f2d614626565b604051908082528060200260200182016040528015610f9857816020015b610f856040518060600160405280600073ffffffffffffffffffffffffffffffffffffffff16815260200160608152602001606081525090565b815260200190600190039081610f4b5790505b506000838152600560205260408120600901549192505b81811015611191576000848152600560205260408120600901805483908110610fda57610fda615062565b60009182526020909120015473ffffffffffffffffffffffffffffffffffffffff16905080611009575061117f565b600060405180606001604052808373ffffffffffffffffffffffffffffffffffffffff1681526020018373ffffffffffffffffffffffffffffffffffffffff166306fdde036040518163ffffffff1660e01b8152600401600060405180830381865afa15801561107d573d6000803e3d6000fd5b505050506040513d6000823e601f3d9081017fffffffffffffffffffffffffffffffffffffffffffffffffffffffffffffffe01682016040526110c391908101906150f3565b81526020018373ffffffffffffffffffffffffffffffffffffffff16637284e4166040518163ffffffff1660e01b8152600401600060405180830381865afa158015611113573d6000803e3d6000fd5b505050506040513d6000823e601f3d9081017fffffffffffffffffffffffffffffffffffffffffffffffffffffffffffffffe016820160405261115991908101906150f3565b81525090508085848151811061117157611171615062565b602002602001018190525050505b8061118981615128565b915050610faf565b509095945050505050565b600061121185858080601f01602080910402602001604051908101604052809392919081815260200183838082843760009201919091525050604080516020601f8901819004810282018101909252878152925087915086908190840183828082843760009201919091525061323f92505050565b95945050505050565b60006005600061125f86868080601f01602080910402602001604051908101604052809392919081815260200183838082843760009201919091525061322592505050565b81526020808201929092526040908101600090812073ffffffffffffffffffffffffffffffffffffffff8616825260080190925290205460ff1690509392505050565b61131184848080601f0160208091040260200160405190810160405280939291908181526020018383808284376000920182905250604080516020810190915290815292507f75be26f315524d8937b28469fe5b4df7e59aebca1fcbbbe5669005e1491b131b91506133139050565b600b54604080516020601f870181900481028201810190925285815273ffffffffffffffffffffffffffffffffffffffff9092169163db474ecb916113719190889088908190840183828082843760009201919091525061322592505050565b84846040518463ffffffff1660e01b81526004016113919392919061520d565b600060405180830381600087803b1580156113ab57600080fd5b505af11580156113bf573d6000803e3d6000fd5b505050508184846040516113d492919061523e565b60405180910390207fb72e43fbdf2abeb3bfe59e783bcca829d13e9fcde1eac425751faabea6c134c96114043390565b60405173ffffffffffffffffffffffffffffffffffffffff90911681526020015b60405180910390a350505050565b6040805180820190915260008152606060208201526006600061146a84805160209182012060009081526002909152604090205490565b81526020019081526020016000206040518060400160405290816000820154815260200160018201805480602002602001604051908101604052809291908181526020016000905b8282101561166a57838290600052602060002090600502016040518060c001604052908160008201548152602001600182015481526020016002820180546114f990614fd3565b80601f016020809104026020016040519081016040528092919081815260200182805461152590614fd3565b80156115725780601f1061154757610100808354040283529160200191611572565b820191906000526020600020905b81548152906001019060200180831161155557829003601f168201915b5050505050815260200160038201805461158b90614fd3565b80601f01602080910402602001604051908101604052809291908181526020018280546115b790614fd3565b80156116045780601f106115d957610100808354040283529160200191611604565b820191906000526020600020905b8154815290600101906020018083116115e757829003601f168201915b50505091835250506004919091015473ffffffffffffffffffffffffffffffffffffffff81166020808401919091527401000000000000000000000000000000000000000090910460ff16151560409092019190915290825260019290920191016114b2565b505050915250909392505050565b611680613292565b61168a6000613363565b565b61172185858080601f01602080910402602001604051908101604052809392919081815260200183838082843760009201919091525050604080516020601f890181900481028201810190925287815292508791508690819084018382808284376000920191909152507f71e770fed024e50450e0cb5318c1a012e92ab6439dfbe6c071800b700ce55c0a9250613313915050565b61176085858080601f0160208091040260200160405190810160405280939291908181526020018383808284376000920191909152506133d892505050565b6117d385858080601f01602080910402602001604051908101604052809392919081815260200183838082843760009201919091525050604080516020601f8901819004810282018101909252878152925087915086908190840183828082843760009201919091525061348492505050565b600061181486868080601f01602080910402602001604051908101604052809392919081815260200183838082843760009201919091525061322592505050565b9050600061188b87878080601f01602080910402602001604051908101604052809392919081815260200183838082843760009201919091525050604080516020601f8b01819004810282018101909252898152925089915088908190840183828082843760009201919091525061323f92505050565b60008381526004602081815260408084208585529091529091200180547fffffffffffffffffffffff00ffffffffffffffffffffffffffffffffffffffff16740100000000000000000000000000000000000000008615150217905590503373ffffffffffffffffffffffffffffffffffffffff16858560405161191092919061523e565b6040518091039020888860405161192892919061523e565b6040519081900381208615158252907fcba51876aa74b247950c251d3459c41aaebd8b10717beadb480ca1a105166ab59060200160405180910390a450505050505050565b6119dc84848080601f0160208091040260200160405190810160405280939291908181526020018383808284376000920182905250604080516020810190915290815292507f75be26f315524d8937b28469fe5b4df7e59aebca1fcbbbe5669005e1491b131b91506133139050565b600b54604080516020601f870181900481028201810190925285815273ffffffffffffffffffffffffffffffffffffffff90921691633368c918916113719190889088908190840183828082843760009201919091525061322592505050565b611aab83838080601f0160208091040260200160405190810160405280939291908181526020018383808284376000920182905250604080516020810190915290815292507f75be26f315524d8937b28469fe5b4df7e59aebca1fcbbbe5669005e1491b131b91506133139050565b60056000611aee85858080601f01602080910402602001604051908101604052809392919081815260200183838082843760009201919091525061322592505050565b8152602001908152602001600020600601548103611b38576040517fe523909000000000000000000000000000000000000000000000000000000000815260040160405180910390fd5b600b54604080516020601f860181900481028201810190925284815273ffffffffffffffffffffffffffffffffffffffff9092169163cdb0ba5091611b989190879087908190840183828082843760009201919091525061322592505050565b836040518363ffffffff1660e01b8152600401611bbf929190918252602082015260400190565b600060405180830381600087803b158015611bd957600080fd5b505af1158015611bed573d6000803e3d6000fd5b50505050808383604051611c0292919061523e565b60405180910390207f7bb07acd566d038f77cba9c39e7536f74ea2c4ee382024d1b428d7f0680dbc02611c323390565b60405173ffffffffffffffffffffffffffffffffffffffff90911681526020015b60405180910390a3505050565b6000610c2c83838080601f01602080910402602001604051908101604052809392919081815260200183838082843760009201919091525061322592505050565b604080516020810182526060815290517f173c4a630000000000000000000000000000000000000000000000000000000081526004810183905273ffffffffffffffffffffffffffffffffffffffff7f0000000000000000000000000000000000000000000000000000000000000000169063173c4a6390602401600060405180830381865afa158015611d39573d6000803e3d6000fd5b505050506040513d6000823e601f3d9081017fffffffffffffffffffffffffffffffffffffffffffffffffffffffffffffffe0168201604052610856919081019061524e565b611dbe89898080601f0160208091040260200160405190810160405280939291908181526020018383808284376000920191909152506133d892505050565b611e5389898080601f01602080910402602001604051908101604052809392919081815260200183838082843760009201919091525050604080516020601f8d018190048102820181019092528b815292508b91508a90819084018382808284376000920191909152507f71e770fed024e50450e0cb5318c1a012e92ab6439dfbe6c071800b700ce55c0a9250613313915050565b8515611ecc57611ecc89898080601f01602080910402602001604051908101604052809392919081815260200183838082843760009201919091525050604080516020601f8d018190048102820181019092528b815292508b91508a908190840183828082843760009201919091525061348492505050565b611ed5856134cc565b611f4a898989898989898080602002602001604051908101604052809392919081815260200183836020028082843760009201919091525050604080516020601f8d018190048102820181019092528b815292508b91508a90819084018382808284376000920191909152506135b592505050565b8473ffffffffffffffffffffffffffffffffffffffff168989604051611f7192919061523e565b604051908190038120907f9b42a541e0a10f6a80059e1448b92d56a4e71354d43a2ca1fd3701878cb50ae290600090a3505050505050505050565b611feb88888080601f0160208091040260200160405190810160405280939291908181526020018383808284376000920191909152506133d892505050565b61208088888080601f01602080910402602001604051908101604052809392919081815260200183838082843760009201919091525050604080516020601f8c018190048102820181019092528a815292508a91508990819084018382808284376000920191909152507f71e770fed024e50450e0cb5318c1a012e92ab6439dfbe6c071800b700ce55c0a9250613313915050565b84156120f9576120f988888080601f01602080910402602001604051908101604052809392919081815260200183838082843760009201919091525050604080516020601f8c018190048102820181019092528a815292508a915089908190840183828082843760009201919091525061348492505050565b612102846134cc565b6121ad88888080601f01602080910402602001604051908101604052809392919081815260200183838082843760009201919091525050604080516020601f8c018190048102820181019092528a815292508a915089908190840183828082843760009201919091525050604080516020601f89018190048102820181019092528781528a93508992509088908890819084018382808284376000920191909152506136e992505050565b8373ffffffffffffffffffffffffffffffffffffffff1688886040516121d492919061523e565b604051908190038120907fe78ad18845af93a80fbe8718cacc631fbe1c453b092806818a044440b96ba67790600090a35050505050505050565b600061228f87878080601f01602080910402602001604051908101604052809392919081815260200183838082843760009201919091525050604080516020601f8b01819004810282018101909252898152925089915088908190840183828082843760009201919091525088925061228a91508790506152d1565b6137fa565b979650505050505050565b6122a2613292565b600a80547fffffffffffffffffffffffff00000000000000000000000000000000000000001673ffffffffffffffffffffffffffffffffffffffff83169081179091556040517f68e3ca42e475f54d65227ed8cb60daf9cec4546691052783063876ad972db71190600090a250565b600061238285858080601f0160208091040260200160405190810160405280939291908181526020018383808284376000920182905250604080516020810190915290815292507f75be26f315524d8937b28469fe5b4df7e59aebca1fcbbbe5669005e1491b131b91506133139050565b600b54604080516020601f880181900481028201810190925286815273ffffffffffffffffffffffffffffffffffffffff9092169163e88ca8a1916123e29190899089908190840183828082843760009201919091525061322592505050565b85856040518463ffffffff1660e01b815260040161240293929190615332565b6020604051808303816000875af1158015612421573d6000803e3d6000fd5b505050506040513d601f19601f82011682018060405250810190612445919061534c565b9050828260405161245792919061523e565b604051809103902081868660405161247092919061523e565b60405180910390207fc06cee439d340740b1e427558729eb0fcc080aa2ab6d0bcfb30b6618234f460a6124a03390565b60405173ffffffffffffffffffffffffffffffffffffffff909116815260200160405180910390a4949350505050565b60006124da613956565b60006124e586613ab0565b600a5490915073ffffffffffffffffffffffffffffffffffffffff1663b4b715c482336040517fffffffff0000000000000000000000000000000000000000000000000000000060e085901b168152600481019290925273ffffffffffffffffffffffffffffffffffffffff166024820152604401600060405180830381600087803b15801561257457600080fd5b505af1158015612588573d6000803e3d6000fd5b50506008546125b2925083915073ffffffffffffffffffffffffffffffffffffffff166001613b49565b6009546125d890829073ffffffffffffffffffffffffffffffffffffffff166001613b49565b6000612625826125eb60208a018a615365565b8080601f016020809104026020016040519081016040528093929190818152602001838380828437600092019190915250613c6b92505050565b600083815260056020908152604090912060060182905590915061268f908390612651908a018a615365565b8080601f0160208091040260200160405190810160405280939291908181526020018383808284376000920191909152508a9250899150613e749050565b50600061269f60208801886153ca565b9150508015612a6b57600b5460009073ffffffffffffffffffffffffffffffffffffffff1663e88ca8a1856126d48b80615365565b6040518463ffffffff1660e01b81526004016126f293929190615332565b6020604051808303816000875af1158015612711573d6000803e3d6000fd5b505050506040513d601f19601f82011682018060405250810190612735919061534c565b905060005b828110156127ec57600b5473ffffffffffffffffffffffffffffffffffffffff16633368c918868461276f60208e018e6153ca565b8681811061277f5761277f615062565b90506020028101906127919190615432565b6040518463ffffffff1660e01b81526004016127af9392919061520d565b600060405180830381600087803b1580156127c957600080fd5b505af11580156127dd573d6000803e3d6000fd5b5050505080600101905061273a565b5060006127fc60408a018a6153ca565b905011156129675760005b61281460408a018a6153ca565b905081101561296557600061282c60408b018b6153ca565b8381811061283c5761283c615062565b905060200281019061284e9190615470565b612857906154a4565b905061286660408b018b6153ca565b8381811061287657612876615062565b90506020028101906128889190615470565b6128929080615365565b8080601f01602080910402602001604051908101604052809392919081815260200183838082843760009201919091525050509082525061295c6128d960208d018d615365565b8080601f01602080910402602001604051908101604052809392919081815260200183838082843760009201829052506040805160208082018352928152600954915190955073ffffffffffffffffffffffffffffffffffffffff9091169350899250612948918891016155b3565b6040516020818303038152906040526136e9565b50600101612807565b505b600061297660608a018a6153ca565b90501115612a695760005b61298e60608a018a6153ca565b9050811015612a6757612a5f6129a760208c018c615365565b8080601f0160208091040260200160405190810160405280939291908181526020018383808284376000920182905250604080516020810190915290815260085490935073ffffffffffffffffffffffffffffffffffffffff169150869050612a1360608f018f6153ca565b87818110612a2357612a23615062565b9050602002016020810190612a389190614455565b6040805173ffffffffffffffffffffffffffffffffffffffff909216602083015201612948565b600101612981565b505b505b33612a7960208a018a615365565b604051612a8792919061523e565b604051908190038120907ff53000b1113bed1ef6bf6b948fa1fe2c66a643b317a45c5d52a1537050b2dad290600090a350909695505050505050565b612acb613292565b600880547fffffffffffffffffffffffff00000000000000000000000000000000000000001673ffffffffffffffffffffffffffffffffffffffff83169081179091556040517f07b136952c7460e1fc2d593fad96b5b379f28cc13a49857b6a825c5228c1a8d190600090a250565b6000612b7a8360000151604051806020016040528060008152507f5ef98f1e5b8bd5ee1978908b3f5b2128d59a65f7702f04e6aca3c95aff590be1613313565b8251612b85906133d8565b82518051602091820120600090815260029091526040902054612ba88185614032565b60408051600180825281830190925291935060009190816020015b6040805160808101825260008082526020808301829052928201819052606082015282527fffffffffffffffffffffffffffffffffffffffffffffffffffffffffffffffff909201910181612bc357505060408051608080820183526000808352602080840182905283850182905260609384019190915283519182018452600a5473ffffffffffffffffffffffffffffffffffffffff168252600190820181905292810192909252810184905290915081600081518110612c8757612c87615062565b6020908102919091018101919091526040805160808101825260148183019081527f5370616365204f776e6572204e46542047617465000000000000000000000000606083015281528083018490528751888301516009546000888152600587528590206006015494519395612d20959394929373ffffffffffffffffffffffffffffffffffffffff90921692612948918891016155b3565b845115612eb65760005b8551811015612eb457600b54865160009173ffffffffffffffffffffffffffffffffffffffff169063d9af4ecf9087908a9086908110612d6c57612d6c615062565b6020026020010151600001516040518363ffffffff1660e01b8152600401612d9e929190918252602082015260400190565b600060405180830381865afa158015612dbb573d6000803e3d6000fd5b505050506040513d6000823e601f3d9081017fffffffffffffffffffffffffffffffffffffffffffffffffffffffffffffffe0168201604052612e01919081019061566f565b8051909150600003612e3f576040517fb810dc5d00000000000000000000000000000000000000000000000000000000815260040160405180910390fd5b612eab88600001518960400151898581518110612e5e57612e5e615062565b6020026020010151602001518a8681518110612e7c57612e7c615062565b6020026020010151600001518b8781518110612e9a57612e9a615062565b6020026020010151604001516136e9565b50600101612d2a565b505b60408087015190513391612ec9916156e6565b60405190819003812088519091612ee091906156e6565b604051908190038120907ff22ca4e1529bca70f91b82d259651796b8973cec866e55ad258c1f6d56ea71d390600090a450505092915050565b612f22826134cc565b612f9184848080601f0160208091040260200160405190810160405280939291908181526020018383808284376000920182905250604080516020810190915290815292507f75be26f315524d8937b28469fe5b4df7e59aebca1fcbbbe5669005e1491b131b91506133139050565b612fda612fd385858080601f01602080910402602001604051908101604052809392919081815260200183838082843760009201919091525061322592505050565b8383613b49565b8173ffffffffffffffffffffffffffffffffffffffff16848460405161300192919061523e565b6040519081900381208315158252907f558bdc63bfb8cb1188bc6f559a22d16b8e64dccf7af1d84c90bcf2b7feb1e00990602001611425565b613042613292565b73ffffffffffffffffffffffffffffffffffffffff81166130ea576040517f08c379a000000000000000000000000000000000000000000000000000000000815260206004820152602660248201527f4f776e61626c653a206e6577206f776e657220697320746865207a65726f206160448201527f646472657373000000000000000000000000000000000000000000000000000060648201526084015b60405180910390fd5b6130f381613363565b50565b61313082604051806020016040528060008152507f75be26f315524d8937b28469fe5b4df7e59aebca1fcbbbe5669005e1491b131b613313565b600061315083805160209182012060009081526002909152604090205490565b90508060000361318c576040517fbe34080700000000000000000000000000000000000000000000000000000000815260040160405180910390fd5b600081815260056020526040902060070180547fffffffffffffffffffffffffffffffffffffffffffffffffffffffffffffff00168315151790553373ffffffffffffffffffffffffffffffffffffffff16836040516131ec91906156e6565b6040519081900381208415158252907fb52a77d1c8e7ecf705bef894088b2c74fb373648434090edc15688f5c80a868790602001611c53565b805160209182012060009081526002909152604090205490565b60006003600061326385805160209182012060009081526002909152604090205490565b815260200190815260200160002060008380519060200120815260200190815260200160002054905092915050565b60005473ffffffffffffffffffffffffffffffffffffffff16331461168a576040517f08c379a000000000000000000000000000000000000000000000000000000000815260206004820181905260248201527f4f776e61626c653a2063616c6c6572206973206e6f7420746865206f776e657260448201526064016130e1565b61332283833361228a85611ca1565b1561332c57505050565b6040517f3d693ada00000000000000000000000000000000000000000000000000000000815260040160405180910390fd5b505050565b6000805473ffffffffffffffffffffffffffffffffffffffff8381167fffffffffffffffffffffffff0000000000000000000000000000000000000000831681178455604051919092169283917f8be0079c531659141344cd1fd0a4f28419497f9722a3daafe3b4186f6b6457e09190a35050565b60006133f882805160209182012060009081526002909152604090205490565b905080600003613434576040517fbe34080700000000000000000000000000000000000000000000000000000000815260040160405180910390fd5b60008181526005602052604090206007015460ff1615613480576040517fbe34080700000000000000000000000000000000000000000000000000000000815260040160405180910390fd5b5050565b6000613490838361323f565b90508060000361335e576040517f6ddd9da900000000000000000000000000000000000000000000000000000000815260040160405180910390fd5b6040517f01ffc9a70000000000000000000000000000000000000000000000000000000081527fa4bfe65900000000000000000000000000000000000000000000000000000000600482015273ffffffffffffffffffffffffffffffffffffffff8216906301ffc9a790602401602060405180830381865afa158015613556573d6000803e3d6000fd5b505050506040513d601f19601f8201168201806040525081019061357a91906156f8565b15156000036130f3576040517fdb24a1e200000000000000000000000000000000000000000000000000000000815260040160405180910390fd5b60006002600089896040516135cb92919061523e565b604080519182900390912082526020808301939093529081016000908120548082526005845282822073ffffffffffffffffffffffffffffffffffffffff89168352600801909352205490915060ff16613651576040517fc1ef36f300000000000000000000000000000000000000000000000000000000815260040160405180910390fd5b6040517f257f5ea900000000000000000000000000000000000000000000000000000000815273ffffffffffffffffffffffffffffffffffffffff85169063257f5ea9906136ad908b908b908b908b908a908a90600401615715565b600060405180830381600087803b1580156136c757600080fd5b505af11580156136db573d6000803e3d6000fd5b505050505050505050505050565b84516020808701919091206000908152600282526040808220548083526005845281832073ffffffffffffffffffffffffffffffffffffffff8816845260080190935290205460ff16613768576040517fc1ef36f300000000000000000000000000000000000000000000000000000000815260040160405180910390fd5b6040517fc800fec400000000000000000000000000000000000000000000000000000000815273ffffffffffffffffffffffffffffffffffffffff85169063c800fec4906137c0908990899088908890600401615795565b600060405180830381600087803b1580156137da57600080fd5b505af11580156137ee573d6000803e3d6000fd5b50505050505050505050565b60008061381b86805160209182012060009081526002909152604090205490565b600081815260056020526040812060090154909350909150825b8181101561394b57600083815260056020526040812060090180548390811061386057613860615062565b60009182526020909120015473ffffffffffffffffffffffffffffffffffffffff1690508061388f5750613939565b6040517fbf77b66300000000000000000000000000000000000000000000000000000000815273ffffffffffffffffffffffffffffffffffffffff82169063bf77b663906138e7908c908c908c908c906004016157d4565b602060405180830381865afa158015613904573d6000803e3d6000fd5b505050506040513d601f19601f8201168201806040525081019061392891906156f8565b1561393757600194505061394b565b505b8061394381615128565b915050613835565b505050949350505050565b7f000000000000000000000000000000000000000000000000000000000000000073ffffffffffffffffffffffffffffffffffffffff166139c3576040517f361882e300000000000000000000000000000000000000000000000000000000815260040160405180910390fd5b60085473ffffffffffffffffffffffffffffffffffffffff16613a12576040517f2ab51add00000000000000000000000000000000000000000000000000000000815260040160405180910390fd5b60095473ffffffffffffffffffffffffffffffffffffffff16613a61576040517f2ab51add00000000000000000000000000000000000000000000000000000000815260040160405180910390fd5b600a5473ffffffffffffffffffffffffffffffffffffffff1661168a576040517f345d02c000000000000000000000000000000000000000000000000000000000815260040160405180910390fd5b600180548101908190556040517faa424abb00000000000000000000000000000000000000000000000000000000815273__$a3850c79b56376fa7983472f601544d59e$__9063aa424abb90613b149085908590339060029060059060040161583e565b60006040518083038186803b158015613b2c57600080fd5b505af4158015613b40573d6000803e3d6000fd5b50505050919050565b808015613b885750600083815260056020908152604080832073ffffffffffffffffffffffffffffffffffffffff8616845260080190915290205460ff165b15613bbf576040517f186abc9b00000000000000000000000000000000000000000000000000000000815260040160405180910390fd5b6040517ffd81c88f0000000000000000000000000000000000000000000000000000000081526004810184905273ffffffffffffffffffffffffffffffffffffffff8316602482015281151560448201526005606482015273__$a3850c79b56376fa7983472f601544d59e$__9063fd81c88f9060840160006040518083038186803b158015613c4e57600080fd5b505af4158015613c62573d6000803e3d6000fd5b50505050505050565b604080516080808201835260008083526020808401829052838501829052606093840182905284519283018552600a5473ffffffffffffffffffffffffffffffffffffffff168352600183820181905283860181905293830187905284518481528086019095529093919284929182015b6040805160808101825260008082526020808301829052928201819052606082015282527fffffffffffffffffffffffffffffffffffffffffffffffffffffffffffffffff909201910181613cdc5790505090508181600081518110613d4457613d44615062565b6020908102919091018101919091526040805160808101825260148183019081527f5370616365204f776e6572204e4654204761746500000000000000000000000060608301528152918201839052600b5490517ff62df4df0000000000000000000000000000000000000000000000000000000081526004810188905260009173ffffffffffffffffffffffffffffffffffffffff169063f62df4df906024016020604051808303816000875af1158015613e04573d6000803e3d6000fd5b505050506040513d601f19601f82011682018060405250810190613e28919061534c565b6040805160208082018352600082526009549251939450613e6a938a9373ffffffffffffffffffffffffffffffffffffffff16918a91612948918991016155b3565b9695505050505050565b600b54604080517fe88ca8a1000000000000000000000000000000000000000000000000000000008152600481018790526024810191909152600860448201527f45766572796f6e65000000000000000000000000000000000000000000000000606482015260009173ffffffffffffffffffffffffffffffffffffffff169063e88ca8a1906084016020604051808303816000875af1158015613f1c573d6000803e3d6000fd5b505050506040513d601f19601f82011682018060405250810190613f40919061534c565b905060005b82811015613fec57600b5473ffffffffffffffffffffffffffffffffffffffff16633368c9188784878786818110613f7f57613f7f615062565b9050602002810190613f919190615432565b6040518463ffffffff1660e01b8152600401613faf9392919061520d565b600060405180830381600087803b158015613fc957600080fd5b505af1158015613fdd573d6000803e3d6000fd5b50505050806001019050613f45565b50604080516020808201835260008252600854835160019281019290925261078f9388939273ffffffffffffffffffffffffffffffffffffffff90921691869101612948565b600082815260066020526040902080546001019081905573__$a3850c79b56376fa7983472f601544d59e$__631ddb9a8b838584336006600360046040518863ffffffff1660e01b815260040161408f97969594939291906158e5565b60006040518083038186803b1580156140a757600080fd5b505af41580156140bb573d6000803e3d6000fd5b5050505092915050565b60008083601f8401126140d757600080fd5b50813567ffffffffffffffff8111156140ef57600080fd5b60208301915083602082850101111561410757600080fd5b9250929050565b6000806000806040858703121561412457600080fd5b843567ffffffffffffffff8082111561413c57600080fd5b614148888389016140c5565b9096509450602087013591508082111561416157600080fd5b5061416e878288016140c5565b95989497509550505050565b60005b8381101561419557818101518382015260200161417d565b50506000910152565b600081518084526141b681602086016020860161417a565b601f017fffffffffffffffffffffffffffffffffffffffffffffffffffffffffffffffe0169290920160200192915050565b60208152815160208201526000602083015160c0604084015261420e60e084018261419e565b90506040840151606084015260608401517fffffffffffffffffffffffffffffffffffffffffffffffffffffffffffffffe0848303016080850152614253828261419e565b91505073ffffffffffffffffffffffffffffffffffffffff60808501511660a084015260a0840151151560c08401528091505092915050565b6000806020838503121561429f57600080fd5b823567ffffffffffffffff8111156142b657600080fd5b6142c2858286016140c5565b90969095509350505050565b6020808252825182820181905260009190848201906040850190845b8181101561431c57835173ffffffffffffffffffffffffffffffffffffffff16835292840192918401916001016142ea565b50909695505050505050565b805182526000602082015160e0602085015261434760e085018261419e565b9050604083015160408501526060830151848203606086015261436a828261419e565b915050608083015173ffffffffffffffffffffffffffffffffffffffff80821660808701528060a08601511660a0870152505060c0830151151560c08501528091505092915050565b6000602080830181845280855180835260408601915060408160051b870101925083870160005b82811015614426577fffffffffffffffffffffffffffffffffffffffffffffffffffffffffffffffc0888603018452614414858351614328565b945092850192908501906001016143da565b5092979650505050505050565b73ffffffffffffffffffffffffffffffffffffffff811681146130f357600080fd5b60006020828403121561446757600080fd5b8135610c2c81614433565b602081526000610c2c6020830184614328565b60006020808301818452808551808352604092508286019150828160051b87010184880160005b8381101561453c577fffffffffffffffffffffffffffffffffffffffffffffffffffffffffffffffc08984030185528151606073ffffffffffffffffffffffffffffffffffffffff825116855288820151818a87015261450e8287018261419e565b91505087820151915084810388860152614528818361419e565b9689019694505050908601906001016144ac565b509098975050505050505050565b60008060006040848603121561455f57600080fd5b833567ffffffffffffffff81111561457657600080fd5b614582868287016140c5565b909450925050602084013561459681614433565b809150509250925092565b600060208284031215610af057600080fd5b600080600080606085870312156145c957600080fd5b843567ffffffffffffffff808211156145e157600080fd5b6145ed888389016140c5565b909650945060208701359350604087013591508082111561460d57600080fd5b5061461a878288016145a1565b91505092959194509250565b7f4e487b7100000000000000000000000000000000000000000000000000000000600052604160045260246000fd5b6040516060810167ffffffffffffffff8111828210171561467857614678614626565b60405290565b6040805190810167ffffffffffffffff8111828210171561467857614678614626565b6040516080810167ffffffffffffffff8111828210171561467857614678614626565b604051601f82017fffffffffffffffffffffffffffffffffffffffffffffffffffffffffffffffe016810167ffffffffffffffff8111828210171561470b5761470b614626565b604052919050565b600067ffffffffffffffff82111561472d5761472d614626565b50601f017fffffffffffffffffffffffffffffffffffffffffffffffffffffffffffffffe01660200190565b600061476c61476784614713565b6146c4565b905082815283838301111561478057600080fd5b828260208301376000602084830101529392505050565b600082601f8301126147a857600080fd5b610c2c83833560208501614759565b6000602082840312156147c957600080fd5b813567ffffffffffffffff8111156147e057600080fd5b61078f84828501614797565b6000602080835260608084018551838601528286015160408081880152828251808552608094508489019150848160051b8a0101878501945060005b828110156148d4577fffffffffffffffffffffffffffffffffffffffffffffffffffffffffffffff808b8303018452855160c0815184528a8201518b85015286820151818886015261487c8286018261419e565b915050898201518482038b860152614894828261419e565b838b015173ffffffffffffffffffffffffffffffffffffffff16868c015260a0938401511515939095019290925250509488019492880192600101614828565b509a9950505050505050505050565b80151581146130f357600080fd5b60008060008060006060868803121561490957600080fd5b853567ffffffffffffffff8082111561492157600080fd5b61492d89838a016140c5565b9097509550602088013591508082111561494657600080fd5b50614953888289016140c5565b9094509250506040860135614967816148e3565b809150509295509295909350565b60008060006040848603121561498a57600080fd5b833567ffffffffffffffff8111156149a157600080fd5b6149ad868287016140c5565b909790965060209590950135949350505050565b6000602082840312156149d357600080fd5b5035919050565b602081526000825160208084015261078f604084018261419e565b60008083601f840112614a0757600080fd5b50813567ffffffffffffffff811115614a1f57600080fd5b6020830191508360208260051b850101111561410757600080fd5b600080600080600080600080600060a08a8c031215614a5857600080fd5b893567ffffffffffffffff80821115614a7057600080fd5b614a7c8d838e016140c5565b909b50995060208c0135915080821115614a9557600080fd5b614aa18d838e016140c5565b909950975060408c01359150614ab682614433565b90955060608b01359080821115614acc57600080fd5b614ad88d838e016149f5565b909650945060808c0135915080821115614af157600080fd5b50614afe8c828d016140c5565b915080935050809150509295985092959850929598565b60008060008060008060008060a0898b031215614b3157600080fd5b883567ffffffffffffffff80821115614b4957600080fd5b614b558c838d016140c5565b909a50985060208b0135915080821115614b6e57600080fd5b614b7a8c838d016140c5565b909850965060408b01359150614b8f82614433565b90945060608a0135935060808a01359080821115614bac57600080fd5b50614bb98b828c016140c5565b999c989b5096995094979396929594505050565b60008060008060008060808789031215614be657600080fd5b863567ffffffffffffffff80821115614bfe57600080fd5b614c0a8a838b016140c5565b90985096506020890135915080821115614c2357600080fd5b614c2f8a838b016140c5565b909650945060408901359150614c4482614433565b90925060608801359080821115614c5a57600080fd5b50614c6789828a016145a1565b9150509295509295509295565b60008060008060608587031215614c8a57600080fd5b843567ffffffffffffffff80821115614ca257600080fd5b9086019060408289031215614cb657600080fd5b90945060208601359080821115614ccc57600080fd5b9086019060808289031215614ce057600080fd5b90935060408601359080821115614cf657600080fd5b5061416e878288016149f5565b600067ffffffffffffffff821115614d1d57614d1d614626565b5060051b60200190565b600082601f830112614d3857600080fd5b81356020614d4861476783614d03565b82815260059290921b84018101918181019086841115614d6757600080fd5b8286015b84811015614e3457803567ffffffffffffffff80821115614d8c5760008081fd5b81890191506060807fffffffffffffffffffffffffffffffffffffffffffffffffffffffffffffffe0848d03011215614dc55760008081fd5b614dcd614655565b878401358152604080850135614de281614433565b828a0152918401359183831115614df95760008081fd5b82850194508c603f860112614e1057600093508384fd5b614e208d8a870135838801614759565b908201528652505050918301918301614d6b565b509695505050505050565b60008060408385031215614e5257600080fd5b823567ffffffffffffffff80821115614e6a57600080fd5b9084019060608287031215614e7e57600080fd5b614e86614655565b823582811115614e9557600080fd5b614ea188828601614797565b825250602083013582811115614eb657600080fd5b614ec288828601614797565b602083015250604083013582811115614eda57600080fd5b614ee688828601614797565b60408301525093506020850135915080821115614f0257600080fd5b50614f0f85828601614d27565b9150509250929050565b60008060008060608587031215614f2f57600080fd5b843567ffffffffffffffff811115614f4657600080fd5b614f52878288016140c5565b9095509350506020850135614f6681614433565b91506040850135614f76816148e3565b939692955090935050565b60008060408385031215614f9457600080fd5b823567ffffffffffffffff811115614fab57600080fd5b614fb785828601614797565b9250506020830135614fc8816148e3565b809150509250929050565b600181811c90821680614fe757607f821691505b602082108103610af0577f4e487b7100000000000000000000000000000000000000000000000000000000600052602260045260246000fd5b7f4e487b7100000000000000000000000000000000000000000000000000000000600052601160045260246000fd5b8082018082111561085657610856615020565b7f4e487b7100000000000000000000000000000000000000000000000000000000600052603260045260246000fd5b6000602082840312156150a357600080fd5b8151610c2c81614433565b600082601f8301126150bf57600080fd5b81516150cd61476782614713565b8181528460208386010111156150e257600080fd5b61078f82602083016020870161417a565b60006020828403121561510557600080fd5b815167ffffffffffffffff81111561511c57600080fd5b61078f848285016150ae565b60007fffffffffffffffffffffffffffffffffffffffffffffffffffffffffffffffff820361515957615159615020565b5060010190565b60008083357fffffffffffffffffffffffffffffffffffffffffffffffffffffffffffffffe184360301811261519557600080fd5b830160208101925035905067ffffffffffffffff8111156151b557600080fd5b80360382131561410757600080fd5b8183528181602085013750600060208284010152600060207fffffffffffffffffffffffffffffffffffffffffffffffffffffffffffffffe0601f840116840101905092915050565b8381528260208201526060604082015260006152298384615160565b6020606085015261228f6080850182846151c4565b8183823760009101908152919050565b60006020828403121561526057600080fd5b815167ffffffffffffffff8082111561527857600080fd5b908301906020828603121561528c57600080fd5b6040516020810181811083821117156152a7576152a7614626565b6040528251828111156152b957600080fd5b6152c5878286016150ae565b82525095945050505050565b6000602082360312156152e357600080fd5b6040516020810167ffffffffffffffff828210818311171561530757615307614626565b81604052843591508082111561531c57600080fd5b5061532936828601614797565b82525092915050565b8381526040602082015260006112116040830184866151c4565b60006020828403121561535e57600080fd5b5051919050565b60008083357fffffffffffffffffffffffffffffffffffffffffffffffffffffffffffffffe184360301811261539a57600080fd5b83018035915067ffffffffffffffff8211156153b557600080fd5b60200191503681900382131561410757600080fd5b60008083357fffffffffffffffffffffffffffffffffffffffffffffffffffffffffffffffe18436030181126153ff57600080fd5b83018035915067ffffffffffffffff82111561541a57600080fd5b6020019150600581901b360382131561410757600080fd5b600082357fffffffffffffffffffffffffffffffffffffffffffffffffffffffffffffffe183360301811261546657600080fd5b9190910192915050565b600082357fffffffffffffffffffffffffffffffffffffffffffffffffffffffffffffffc183360301811261546657600080fd5b600060408083360312156154b757600080fd5b6154bf61467e565b833567ffffffffffffffff808211156154d757600080fd5b6154e336838801614797565b83526020915081860135818111156154fa57600080fd5b8601905036601f82011261550d57600080fd5b803561551b61476782614d03565b81815260079190911b8201830190838101903683111561553a57600080fd5b928401925b828410156155a157608084360312156155585760008081fd5b6155606146a1565b843561556b81614433565b8152848601358682015287850135615582816148e3565b818901526060858101359082015282526080909301929084019061553f565b93850193909352509195945050505050565b6000602080835260608451604080848701526155d18387018361419e565b878501518782037fffffffffffffffffffffffffffffffffffffffffffffffffffffffffffffffe00183890152805180835290860193506000918601905b80831015615662578451805173ffffffffffffffffffffffffffffffffffffffff16835287810151888401528481015115158584015286015186830152938601936001929092019160809091019061560f565b5098975050505050505050565b60006020828403121561568157600080fd5b815167ffffffffffffffff8082111561569957600080fd5b90830190604082860312156156ad57600080fd5b6156b561467e565b825181526020830151828111156156cb57600080fd5b6156d7878286016150ae565b60208301525095945050505050565b6000825161546681846020870161417a565b60006020828403121561570a57600080fd5b8151610c2c816148e3565b60808152600061572960808301888a6151c4565b60208382038185015261573d82888a6151c4565b8481036040860152865180825282880193509082019060005b8181101561577257845183529383019391830191600101615756565b50508481036060860152615786818761419e565b9b9a5050505050505050505050565b6080815260006157a8608083018761419e565b82810360208401526157ba818761419e565b9050846040840152828103606084015261228f818561419e565b6080815260006157e7608083018761419e565b82810360208401526157f9818761419e565b905073ffffffffffffffffffffffffffffffffffffffff851660408401528281036060840152835160208252615832602083018261419e565b98975050505050505050565b60a08152600061584e8788615160565b604060a085015261586360e0850182846151c4565b9150506158736020890189615160565b7fffffffffffffffffffffffffffffffffffffffffffffffffffffffffffffff608584030160c08601526158a88382846151c4565b935050505085602083015273ffffffffffffffffffffffffffffffffffffffff851660408301528360608301528260808301529695505050505050565b60e0815260008851606060e084015261590261014084018261419e565b905060208a01517fffffffffffffffffffffffffffffffffffffffffffffffffffffffffffffff20808584030161010086015261593f838361419e565b925060408c0151915080858403016101208601525061595e828261419e565b602085019a909a52505050604081019590955273ffffffffffffffffffffffffffffffffffffffff939093166060850152608084019190915260a083015260c09091015291905056fea2646970667358221220535b774ef97388d41fe3d1c524c753382b9aa0d1d53edc29d6007f040fe598d364736f6c63430008110033",
    "linkReferences": {
      "contracts/zion-governance/src/spaces/libraries/CreationLogic.sol": {
        "CreationLogic": [
          {
            "start": 15469,
            "length": 20
          },
          {
            "start": 15780,
            "length": 20
          },
          {
            "start": 16854,
            "length": 20
          }
        ]
      }
    }
  },
  "methodIdentifiers": {
    "addPermissionToRole(string,uint256,(string))": "7d9a0230",
    "addRoleToEntitlementModule(string,string,address,uint256,bytes)": "bbd7358a",
    "createChannel((string,string,string),(uint256,address,bytes)[])": "e69689af",
    "createRole(string,string)": "d2192dbf",
    "createSpace((string,string),(string,(string)[],(string,(address,uint256,bool,uint256)[])[],address[]),(string)[])": "d9d94cb7",
    "getChannelIdByNetworkId(string,string)": "3e66eae3",
    "getChannelInfoByChannelId(string,string)": "0db37ba3",
    "getChannelsBySpaceId(string)": "50c24eef",
    "getEntitlementModulesBySpaceId(string)": "141b6498",
    "getEntitlementsInfoBySpaceId(string)": "3519167c",
    "getPermissionFromMap(bytes32)": "9ea4d532",
    "getSpaceIdByNetworkId(string)": "9ddd0d6b",
    "getSpaceInfoBySpaceId(string)": "2bb59212",
    "getSpaceOwnerBySpaceId(string)": "2a4bdf25",
    "getSpaces()": "15478ca9",
    "isEntitled(string,string,address,(string))": "bf77b663",
    "isEntitlementModuleWhitelisted(string,address)": "4196d1ff",
    "owner()": "8da5cb5b",
    "removeEntitlement(string,string,address,uint256[],bytes)": "a3a39cb9",
    "removePermissionFromRole(string,uint256,(string))": "4832a4ec",
    "removeRole(string,uint256)": "8b0e905a",
    "renounceOwnership()": "715018a6",
    "setChannelAccess(string,string,bool)": "72a29321",
    "setDefaultTokenEntitlementModule(address)": "1a039620",
    "setDefaultUserEntitlementModule(address)": "e1b7a9e5",
    "setSpaceAccess(string,bool)": "f86caf83",
    "setSpaceNFT(address)": "ccde2de3",
    "transferOwnership(address)": "f2fde38b",
    "whitelistEntitlementModule(string,address,bool)": "e798ff3f"
  },
  "id": 21
}