{
  "abi": [
    {
      "inputs": [],
      "stateMutability": "nonpayable",
      "type": "constructor"
    },
    {
      "inputs": [],
      "name": "DefaultEntitlementModuleNotSet",
      "type": "error"
    },
    {
      "inputs": [],
      "name": "EntitlementAlreadyWhitelisted",
      "type": "error"
    },
    {
      "inputs": [],
      "name": "EntitlementModuleNotSupported",
      "type": "error"
    },
    {
      "inputs": [],
      "name": "EntitlementNotWhitelisted",
      "type": "error"
    },
    {
      "inputs": [],
      "name": "NotSpaceOwner",
      "type": "error"
    },
    {
      "anonymous": false,
      "inputs": [
        {
          "indexed": true,
          "internalType": "address",
          "name": "previousOwner",
          "type": "address"
        },
        {
          "indexed": true,
          "internalType": "address",
          "name": "newOwner",
          "type": "address"
        }
      ],
      "name": "OwnershipTransferred",
      "type": "event"
    },
    {
      "inputs": [
        {
          "internalType": "uint256",
          "name": "spaceId",
          "type": "uint256"
        },
        {
          "internalType": "uint256",
          "name": "roleId",
          "type": "uint256"
        },
        {
          "components": [
            {
              "internalType": "string",
              "name": "name",
              "type": "string"
            }
          ],
          "internalType": "struct DataTypes.Permission",
          "name": "permission",
          "type": "tuple"
        }
      ],
      "name": "addPermissionToRole",
      "outputs": [],
      "stateMutability": "nonpayable",
      "type": "function"
    },
    {
      "inputs": [
        {
          "internalType": "uint256",
          "name": "spaceId",
          "type": "uint256"
        },
        {
          "internalType": "address",
          "name": "entitlementModuleAddress",
          "type": "address"
        },
        {
          "internalType": "uint256",
          "name": "roleId",
          "type": "uint256"
        },
        {
          "internalType": "bytes",
          "name": "entitlementData",
          "type": "bytes"
        }
      ],
      "name": "addRoleToEntitlementModule",
      "outputs": [],
      "stateMutability": "nonpayable",
      "type": "function"
    },
    {
      "inputs": [
        {
          "internalType": "uint256",
          "name": "spaceId",
          "type": "uint256"
        },
        {
          "internalType": "string",
          "name": "name",
          "type": "string"
        },
        {
          "internalType": "bytes8",
          "name": "color",
          "type": "bytes8"
        }
      ],
      "name": "createRole",
      "outputs": [
        {
          "internalType": "uint256",
          "name": "",
          "type": "uint256"
        }
      ],
      "stateMutability": "nonpayable",
      "type": "function"
    },
    {
      "inputs": [
        {
          "components": [
            {
              "internalType": "string",
              "name": "spaceName",
              "type": "string"
            },
            {
              "internalType": "string",
              "name": "networkId",
              "type": "string"
            }
          ],
          "internalType": "struct DataTypes.CreateSpaceData",
          "name": "info",
          "type": "tuple"
        }
      ],
      "name": "createSpace",
      "outputs": [
        {
          "internalType": "uint256",
          "name": "",
          "type": "uint256"
        }
      ],
      "stateMutability": "nonpayable",
      "type": "function"
    },
    {
      "inputs": [
        {
          "components": [
            {
              "internalType": "string",
              "name": "spaceName",
              "type": "string"
            },
            {
              "internalType": "string",
              "name": "networkId",
              "type": "string"
            }
          ],
          "internalType": "struct DataTypes.CreateSpaceData",
          "name": "info",
          "type": "tuple"
        },
        {
          "components": [
            {
              "internalType": "address",
              "name": "entitlementModuleAddress",
              "type": "address"
            },
            {
              "internalType": "address",
              "name": "tokenAddress",
              "type": "address"
            },
            {
              "internalType": "uint256",
              "name": "quantity",
              "type": "uint256"
            },
            {
              "internalType": "string",
              "name": "description",
              "type": "string"
            },
            {
              "internalType": "string[]",
              "name": "permissions",
              "type": "string[]"
            }
          ],
          "internalType": "struct DataTypes.CreateSpaceTokenEntitlementData",
          "name": "entitlement",
          "type": "tuple"
        }
      ],
      "name": "createSpaceWithTokenEntitlement",
      "outputs": [
        {
          "internalType": "uint256",
          "name": "",
          "type": "uint256"
        }
      ],
      "stateMutability": "nonpayable",
      "type": "function"
    },
    {
      "inputs": [
        {
          "internalType": "uint256",
          "name": "spaceId",
          "type": "uint256"
        }
      ],
      "name": "getEntitlementModulesBySpaceId",
      "outputs": [
        {
          "internalType": "address[]",
          "name": "entitlementModules",
          "type": "address[]"
        }
      ],
      "stateMutability": "view",
      "type": "function"
    },
    {
      "inputs": [
        {
          "internalType": "uint256",
          "name": "spaceId",
          "type": "uint256"
        }
      ],
      "name": "getEntitlementsInfoBySpaceId",
      "outputs": [
        {
          "components": [
            {
              "internalType": "address",
              "name": "entitlementAddress",
              "type": "address"
            },
            {
              "internalType": "string",
              "name": "entitlementName",
              "type": "string"
            },
            {
              "internalType": "string",
              "name": "entitlementDescription",
              "type": "string"
            }
          ],
          "internalType": "struct DataTypes.EntitlementModuleInfo[]",
          "name": "",
          "type": "tuple[]"
        }
      ],
      "stateMutability": "view",
      "type": "function"
    },
    {
      "inputs": [
        {
          "internalType": "enum ISpaceManager.ZionPermission",
          "name": "zionPermission",
          "type": "uint8"
        }
      ],
      "name": "getPermissionFromMap",
      "outputs": [
        {
          "components": [
            {
              "internalType": "string",
              "name": "name",
              "type": "string"
            }
          ],
          "internalType": "struct DataTypes.Permission",
          "name": "permission",
          "type": "tuple"
        }
      ],
      "stateMutability": "view",
      "type": "function"
    },
    {
      "inputs": [
        {
          "internalType": "uint256",
          "name": "spaceId",
          "type": "uint256"
        },
        {
          "internalType": "uint256",
          "name": "roleId",
          "type": "uint256"
        }
      ],
      "name": "getPermissionsBySpaceIdByRoleId",
      "outputs": [
        {
          "components": [
            {
              "internalType": "string",
              "name": "name",
              "type": "string"
            }
          ],
          "internalType": "struct DataTypes.Permission[]",
          "name": "",
          "type": "tuple[]"
        }
      ],
      "stateMutability": "view",
      "type": "function"
    },
    {
      "inputs": [
        {
          "internalType": "uint256",
          "name": "spaceId",
          "type": "uint256"
        },
        {
          "internalType": "uint256",
          "name": "roleId",
          "type": "uint256"
        }
      ],
      "name": "getRoleBySpaceIdByRoleId",
      "outputs": [
        {
          "components": [
            {
              "internalType": "uint256",
              "name": "roleId",
              "type": "uint256"
            },
            {
              "internalType": "string",
              "name": "name",
              "type": "string"
            },
            {
              "internalType": "bytes8",
              "name": "color",
              "type": "bytes8"
            },
            {
              "internalType": "bool",
              "name": "isTransitive",
              "type": "bool"
            }
          ],
          "internalType": "struct DataTypes.Role",
          "name": "",
          "type": "tuple"
        }
      ],
      "stateMutability": "view",
      "type": "function"
    },
    {
      "inputs": [
        {
          "internalType": "uint256",
          "name": "spaceId",
          "type": "uint256"
        }
      ],
      "name": "getRolesBySpaceId",
      "outputs": [
        {
          "components": [
            {
              "internalType": "uint256",
              "name": "roleId",
              "type": "uint256"
            },
            {
              "internalType": "string",
              "name": "name",
              "type": "string"
            },
            {
              "internalType": "bytes8",
              "name": "color",
              "type": "bytes8"
            },
            {
              "internalType": "bool",
              "name": "isTransitive",
              "type": "bool"
            }
          ],
          "internalType": "struct DataTypes.Role[]",
          "name": "",
          "type": "tuple[]"
        }
      ],
      "stateMutability": "view",
      "type": "function"
    },
    {
      "inputs": [
        {
          "internalType": "string",
          "name": "networkId",
          "type": "string"
        }
      ],
      "name": "getSpaceIdByNetworkId",
      "outputs": [
        {
          "internalType": "uint256",
          "name": "",
          "type": "uint256"
        }
      ],
      "stateMutability": "view",
      "type": "function"
    },
    {
      "inputs": [
        {
          "internalType": "uint256",
          "name": "_spaceId",
          "type": "uint256"
        }
      ],
      "name": "getSpaceInfoBySpaceId",
      "outputs": [
        {
          "components": [
            {
              "internalType": "uint256",
              "name": "spaceId",
              "type": "uint256"
            },
            {
              "internalType": "uint256",
              "name": "createdAt",
              "type": "uint256"
            },
            {
              "internalType": "string",
              "name": "name",
              "type": "string"
            },
            {
              "internalType": "address",
              "name": "creator",
              "type": "address"
            },
            {
              "internalType": "address",
              "name": "owner",
              "type": "address"
            }
          ],
          "internalType": "struct DataTypes.SpaceInfo",
          "name": "",
          "type": "tuple"
        }
      ],
      "stateMutability": "view",
      "type": "function"
    },
    {
      "inputs": [
        {
          "internalType": "uint256",
          "name": "_spaceId",
          "type": "uint256"
        }
      ],
      "name": "getSpaceOwnerBySpaceId",
      "outputs": [
        {
          "internalType": "address",
          "name": "ownerAddress",
          "type": "address"
        }
      ],
      "stateMutability": "view",
      "type": "function"
    },
    {
      "inputs": [],
      "name": "getSpaces",
      "outputs": [
        {
          "components": [
            {
              "internalType": "uint256",
              "name": "spaceId",
              "type": "uint256"
            },
            {
              "internalType": "uint256",
              "name": "createdAt",
              "type": "uint256"
            },
            {
              "internalType": "string",
              "name": "name",
              "type": "string"
            },
            {
              "internalType": "address",
              "name": "creator",
              "type": "address"
            },
            {
              "internalType": "address",
              "name": "owner",
              "type": "address"
            }
          ],
          "internalType": "struct DataTypes.SpaceInfo[]",
          "name": "",
          "type": "tuple[]"
        }
      ],
      "stateMutability": "view",
      "type": "function"
    },
    {
      "inputs": [
        {
          "internalType": "uint256",
          "name": "spaceId",
          "type": "uint256"
        },
        {
          "internalType": "uint256",
          "name": "roomId",
          "type": "uint256"
        },
        {
          "internalType": "address",
          "name": "user",
          "type": "address"
        },
        {
          "components": [
            {
              "internalType": "string",
              "name": "name",
              "type": "string"
            }
          ],
          "internalType": "struct DataTypes.Permission",
          "name": "permission",
          "type": "tuple"
        }
      ],
      "name": "isEntitled",
      "outputs": [
        {
          "internalType": "bool",
          "name": "",
          "type": "bool"
        }
      ],
      "stateMutability": "view",
      "type": "function"
    },
    {
      "inputs": [
        {
          "internalType": "uint256",
          "name": "spaceId",
          "type": "uint256"
        },
        {
          "internalType": "address",
          "name": "entitlementModuleAddress",
          "type": "address"
        }
      ],
      "name": "isEntitlementModuleWhitelisted",
      "outputs": [
        {
          "internalType": "bool",
          "name": "",
          "type": "bool"
        }
      ],
      "stateMutability": "view",
      "type": "function"
    },
    {
      "inputs": [],
      "name": "owner",
      "outputs": [
        {
          "internalType": "address",
          "name": "",
          "type": "address"
        }
      ],
      "stateMutability": "view",
      "type": "function"
    },
    {
      "inputs": [
        {
          "internalType": "address",
          "name": "entitlementModule",
          "type": "address"
        }
      ],
      "name": "registerDefaultEntitlementModule",
      "outputs": [],
      "stateMutability": "nonpayable",
      "type": "function"
    },
    {
      "inputs": [
        {
          "internalType": "uint256",
          "name": "spaceId",
          "type": "uint256"
        },
        {
          "internalType": "address",
          "name": "entitlementModuleAddress",
          "type": "address"
        },
        {
          "internalType": "uint256[]",
          "name": "roleIds",
          "type": "uint256[]"
        },
        {
          "internalType": "bytes",
          "name": "data",
          "type": "bytes"
        }
      ],
      "name": "removeEntitlement",
      "outputs": [],
      "stateMutability": "nonpayable",
      "type": "function"
    },
    {
      "inputs": [],
      "name": "renounceOwnership",
      "outputs": [],
      "stateMutability": "nonpayable",
      "type": "function"
    },
    {
      "inputs": [
        {
          "internalType": "address",
          "name": "newOwner",
          "type": "address"
        }
      ],
      "name": "transferOwnership",
      "outputs": [],
      "stateMutability": "nonpayable",
      "type": "function"
    },
    {
      "inputs": [
        {
          "internalType": "uint256",
          "name": "spaceId",
          "type": "uint256"
        },
        {
          "internalType": "address",
          "name": "entitlementAddress",
          "type": "address"
        },
        {
          "internalType": "bool",
          "name": "whitelist",
          "type": "bool"
        }
      ],
      "name": "whitelistEntitlementModule",
      "outputs": [],
      "stateMutability": "nonpayable",
      "type": "function"
    },
    {
      "inputs": [
        {
          "internalType": "enum ISpaceManager.ZionPermission",
          "name": "",
          "type": "uint8"
        }
      ],
      "name": "zionPermissionsMap",
      "outputs": [
        {
          "internalType": "string",
          "name": "name",
          "type": "string"
        }
      ],
      "stateMutability": "view",
      "type": "function"
    }
  ],
  "bytecode": {
    "object": "0x60806040523480156200001157600080fd5b506200001d336200002d565b620000276200007d565b620005f6565b600080546001600160a01b038381166001600160a01b0319831681178455604051919092169283917f8be0079c531659141344cd1fd0a4f28419497f9722a3daafe3b4186f6b6457e09190a35050565b60408051606081018252601460208083019182527f5a696f6e2d416c6c5f5065726d697373696f6e7300000000000000000000000093830193909352815260008052600c90915280517f13649b2456f1b42fef0f0040b3aaeabcd21a76a0f3f5defd4f583839455116e8908190620000f690826200052a565b505060408051606081018252601660208083019182527f5a696f6e2d4772616e745f5065726d697373696f6e73000000000000000000009383019390935281526009600052600c90915280519091507f2fb3c9afecd3f0d43923381d3e9f60168c039b98f0b7120382e81b682b7bc3169081906200017590826200052a565b50506040805160608101825260096020808301918252682d34b7b716a537b4b760b91b9383019390935281526001600052600c90915280519091507fd421a5181c571bba3f01190c922c3b2a896fc1d84e86c9f17ac10e67ebef8b5c908190620001e090826200052a565b5050604080516060810182526009602080830191825268169a5bdb8b5499585960ba1b9383019390935281526003600052600c90915280519091507fc0da782485e77ae272268ae0a3ff44c1552ecb60b3743924de17a815e0a3cfd79081906200024b90826200052a565b505060408051606081018252600a6020808301918252695a696f6e2d577269746560b01b9383019390935281526004600052600c90915280519091507f5b84bb9e0f5aa9cc45a8bb66468db5d4816d1e75ff86b5e1f1dd8d144dab8097908190620002b790826200052a565b505060408051606081018252600a6020808301918252695a696f6e2d426c6f636b60b01b9383019390935281526005600052600c90915280519091507f2cd9ebf6ff19cdd7ffcc447d7c7d47b5991f5c7392a04512134e765802361fa69081906200032390826200052a565b505060408051606081018252600b60208083019182526a169a5bdb8b5499591858dd60aa1b9383019390935281526006600052600c90915280519091507f980f427e00e74f6d338adfccc7468518c8c8ea00836d0dce98c5fe154e17bf2b9081906200039090826200052a565b505060408051606081018252601060208083019182526f169a5bdb8b50591917d0da185b9b995b60821b9383019390935281526007600052600c90915280519091507fdae089abd7155aa13ce498edb0d7a7156b783d015031f10c9a3d4f5fcb5189719081906200040290826200052a565b505060408051606081018252601360208083019182527f5a696f6e2d52656d6f76655f4368616e6e656c000000000000000000000000009383019390935281526008600052600c90915280519091507f5ff1be3842b54290a9d10674244dae5848d2371b5314790c54805c086586e1df9081906200048190826200052a565b505050565b634e487b7160e01b600052604160045260246000fd5b600181811c90821680620004b157607f821691505b602082108103620004d257634e487b7160e01b600052602260045260246000fd5b50919050565b601f8211156200048157600081815260208120601f850160051c81016020861015620005015750805b601f850160051c820191505b8181101562000522578281556001016200050d565b505050505050565b81516001600160401b0381111562000546576200054662000486565b6200055e816200055784546200049c565b84620004d8565b602080601f8311600181146200059657600084156200057d5750858301515b600019600386901b1c1916600185901b17855562000522565b600085815260208120601f198616915b82811015620005c757888601518255948401946001909101908401620005a6565b5085821015620005e65787850151600019600388901b60f8161c191681555b5050505050600190811b01905550565b61337f80620006066000396000f3fe608060405234801561001057600080fd5b50600436106101985760003560e01c80638a99bd88116100e3578063a7d325fc1161008c578063d9af4ecf11610066578063d9af4ecf14610435578063dbe83cbf14610455578063f2fde38b1461046857600080fd5b8063a7d325fc146103ab578063b010ac47146103cb578063c870e04c1461041557600080fd5b80639ddd0d6b116100bd5780639ddd0d6b14610372578063a3f1343514610385578063a79724731461039857600080fd5b80638a99bd88146103145780638da5cb5b146103345780639152efda1461035257600080fd5b806350b88cf711610145578063715018a61161011f578063715018a61461029a5780637dde72d8146102a25780637e9ea5c71461030157600080fd5b806350b88cf71461023657806352f1bea214610257578063662189991461027757600080fd5b80633368c918116101765780633368c918146101e35780633439f03b146101f657806341ab8a9a1461021657600080fd5b806315478ca91461019d5780631e984060146101bb57806328dcb202146101d0575b600080fd5b6101a561047b565b6040516101b291906122f1565b60405180910390f35b6101ce6101c93660046124b4565b61066f565b005b6101ce6101de3660046125a6565b6106d8565b6101ce6101f136600461264b565b6106fc565b61020961020436600461269b565b610711565b6040516101b291906126b4565b61022961022436600461269b565b610878565b6040516101b291906126ce565b61024961024436600461273a565b6108f4565b6040519081526020016101b2565b61026a61026536600461269b565b610b4e565b6040516101b291906127da565b61028a61028536600461284d565b610cb1565b60405190151581526020016101b2565b6101ce610de7565b6102dc6102b036600461269b565b6000908152600560208190526040909120015473ffffffffffffffffffffffffffffffffffffffff1690565b60405173ffffffffffffffffffffffffffffffffffffffff90911681526020016101b2565b61024961030f3660046128a2565b610dfb565b61032761032236600461269b565b611089565b6040516101b2919061290d565b60005473ffffffffffffffffffffffffffffffffffffffff166102dc565b6103656103603660046129d2565b611322565b6040516101b291906129f3565b610249610380366004612a57565b61140a565b610249610393366004612a99565b611435565b6101ce6103a6366004612b0e565b611455565b6103be6103b9366004612b76565b6114f5565b6040516101b29190612b98565b61028a6103d9366004612c13565b600082815260056020908152604080832073ffffffffffffffffffffffffffffffffffffffff8516845260060190915290205460ff1692915050565b6104286104233660046129d2565b6115f7565b6040516101b29190612c3f565b610448610443366004612b76565b611695565b6040516101b29190612c52565b6101ce610463366004612c65565b6117e2565b6101ce610476366004612c65565b611859565b6060600060015467ffffffffffffffff81111561049a5761049a61239a565b60405190808252806020026020018201604052801561052957816020015b6105166040518060a00160405280600081526020016000815260200160608152602001600073ffffffffffffffffffffffffffffffffffffffff168152602001600073ffffffffffffffffffffffffffffffffffffffff1681525090565b8152602001906001900390816104b85790505b50905060005b600154811015610669576000600581610549846001612caf565b815260200190815260200160002090506040518060a00160405280826000015481526020018260010154815260200182600301805461058790612cc7565b80601f01602080910402602001604051908101604052809291908181526020018280546105b390612cc7565b80156106005780601f106105d557610100808354040283529160200191610600565b820191906000526020600020905b8154815290600101906020018083116105e357829003601f168201915b5050509183525050600483015473ffffffffffffffffffffffffffffffffffffffff9081166020830152600584015416604090910152835184908490811061064a5761064a612d14565b602002602001018190525050808061066190612d43565b91505061052f565b50919050565b8361067981611915565b61068284611976565b61068e85858585611a5f565b60405173ffffffffffffffffffffffffffffffffffffffff85169086907ffd3ffe216c7ac278f0f139f54c5bba76eb723dd4c3cec052779af2abca66d99890600090a35050505050565b826106e281611915565b6106eb83611976565b6106f6848484611b5c565b50505050565b8261070681611915565b6106f6848484611e74565b61076f6040518060a00160405280600081526020016000815260200160608152602001600073ffffffffffffffffffffffffffffffffffffffff168152602001600073ffffffffffffffffffffffffffffffffffffffff1681525090565b6040805160a081018252600084815260056020818152848320805485526001810154828601529287905252600301805491928301916107ad90612cc7565b80601f01602080910402602001604051908101604052809291908181526020018280546107d990612cc7565b80156108265780601f106107fb57610100808354040283529160200191610826565b820191906000526020600020905b81548152906001019060200180831161080957829003601f168201915b50505091835250506000848152600560208181526040808420600481015473ffffffffffffffffffffffffffffffffffffffff9081168488015298909452908290529101549094169301929092525090565b6000818152600560209081526040918290206007018054835181840281018401909452808452606093928301828280156108e857602002820191906000526020600020905b815473ffffffffffffffffffffffffffffffffffffffff1681526001909101906020018083116108bd575b50505050509050919050565b60025460009073ffffffffffffffffffffffffffffffffffffffff16610946576040517f2ab51add00000000000000000000000000000000000000000000000000000000815260040160405180910390fd5b600061095183611eb6565b60025490915061097a90829073ffffffffffffffffffffffffffffffffffffffff166001611b5c565b60006109dc826040518060400160405280600d81526020017f41646d696e6973747261746f72000000000000000000000000000000000000008152507f2366666600000000000000000000000000000000000000000000000000000000611f57565b9050610aaa8282600c6000805b60098111156109fa576109fa612d7b565b8152602001908152602001600020604051806020016040529081600082018054610a2390612cc7565b80601f0160208091040260200160405190810160405280929190818152602001828054610a4f90612cc7565b8015610a9c5780601f10610a7157610100808354040283529160200191610a9c565b820191906000526020600020905b815481529060010190602001808311610a7f57829003601f168201915b505050505081525050611e74565b600254610b0390839073ffffffffffffffffffffffffffffffffffffffff1683335b6040805173ffffffffffffffffffffffffffffffffffffffff9092166020830152015b60405160208183030381529060405261205b565b3380837f9d575dd5f8c535bc0f29f0993aa2580a10f030e244e416fbfdc70ddb8e9935f1610b318880612daa565b604051610b3f929190612e58565b60405180910390a45092915050565b606060066000838152602001908152602001600020600101805480602002602001604051908101604052809291908181526020016000905b82821015610ca6578382906000526020600020906003020160405180608001604052908160008201548152602001600182018054610bc390612cc7565b80601f0160208091040260200160405190810160405280929190818152602001828054610bef90612cc7565b8015610c3c5780601f10610c1157610100808354040283529160200191610c3c565b820191906000526020600020905b815481529060010190602001808311610c1f57829003601f168201915b50505091835250506002919091015460c081901b7fffffffffffffffff000000000000000000000000000000000000000000000000166020808401919091526801000000000000000090910460ff1615156040909201919091529082526001929092019101610b86565b505050509050919050565b600080805b600087815260056020526040902060070154811015610ddd576000878152600560205260408120600701805483908110610cf257610cf2612d14565b60009182526020909120015473ffffffffffffffffffffffffffffffffffffffff16905080610d215750610dcb565b6040517f6621899900000000000000000000000000000000000000000000000000000000815273ffffffffffffffffffffffffffffffffffffffff821690636621899990610d79908b908b908b908b90600401612e6c565b602060405180830381865afa158015610d96573d6000803e3d6000fd5b505050506040513d601f19601f82011682018060405250810190610dba9190612ebb565b15610dc9576001925050610ddd565b505b80610dd581612d43565b915050610cb6565b5095945050505050565b610def612120565b610df960006121a1565b565b600080610e0784611eb6565b600254909150610e3090829073ffffffffffffffffffffffffffffffffffffffff166001611b5c565b610e4881610e416020860186612c65565b6001611b5c565b60408051808201909152600d81527f41646d696e6973747261746f720000000000000000000000000000000000000060208201526000610ea983837f2366666600000000000000000000000000000000000000000000000000000000611f57565b9050610eba8382600c6000806109e9565b600254610ee090849073ffffffffffffffffffffffffffffffffffffffff168333610acc565b60408051808201909152600c81527f546f6b656e20486f6c646572000000000000000000000000000000000000000060208201526000610f4185837f2366666600000000000000000000000000000000000000000000000000000000611f57565b905060005b610f536080890189612ed8565b9050811015610ff157600060405180602001604052808a8060800190610f799190612ed8565b85818110610f8957610f89612d14565b9050602002810190610f9b9190612daa565b8080601f01602080910402602001604051908101604052809392919081815260200183838082843760009201919091525050509152509050610fde878483611e74565b5080610fe981612d43565b915050610f46565b506110398561100360208a018a612c65565b8361101160608c018c612daa565b61102160408e0160208f01612c65565b8d60400135604051602001610aef9493929190612f40565b3380867f9d575dd5f8c535bc0f29f0993aa2580a10f030e244e416fbfdc70ddb8e9935f16110678c80612daa565b604051611075929190612e58565b60405180910390a450929695505050505050565b6000818152600560205260408120600701546060919067ffffffffffffffff8111156110b7576110b761239a565b60405190808252806020026020018201604052801561112257816020015b61110f6040518060600160405280600073ffffffffffffffffffffffffffffffffffffffff16815260200160608152602001606081525090565b8152602001906001900390816110d55790505b50905060005b60008481526005602052604090206007015481101561131b57600084815260056020526040812060070180548390811061116457611164612d14565b60009182526020909120015473ffffffffffffffffffffffffffffffffffffffff169050806111935750611309565b600060405180606001604052808373ffffffffffffffffffffffffffffffffffffffff1681526020018373ffffffffffffffffffffffffffffffffffffffff166306fdde036040518163ffffffff1660e01b8152600401600060405180830381865afa158015611207573d6000803e3d6000fd5b505050506040513d6000823e601f3d9081017fffffffffffffffffffffffffffffffffffffffffffffffffffffffffffffffe016820160405261124d9190810190612f7d565b81526020018373ffffffffffffffffffffffffffffffffffffffff16637284e4166040518163ffffffff1660e01b8152600401600060405180830381865afa15801561129d573d6000803e3d6000fd5b505050506040513d6000823e601f3d9081017fffffffffffffffffffffffffffffffffffffffffffffffffffffffffffffffe01682016040526112e39190810190612f7d565b8152509050808484815181106112fb576112fb612d14565b602002602001018190525050505b8061131381612d43565b915050611128565b5092915050565b604080516020810190915260608152600c600083600981111561134757611347612d7b565b600981111561135857611358612d7b565b815260200190815260200160002060405180602001604052908160008201805461138190612cc7565b80601f01602080910402602001604051908101604052809291908181526020018280546113ad90612cc7565b80156113fa5780601f106113cf576101008083540402835291602001916113fa565b820191906000526020600020905b8154815290600101906020018083116113dd57829003601f168201915b5050505050815250509050919050565b6000600b838360405161141e929190612feb565b908152602001604051809103902054905092915050565b60008361144181611915565b61144c858585611f57565b95945050505050565b8461145f81611915565b61146885611976565b6114aa86868686868080601f01602080910402602001604051908101604052809392919081815260200183838082843760009201919091525061205b92505050565b60405173ffffffffffffffffffffffffffffffffffffffff86169087907f90a1d54980cf315f52b68415e4e4e1b9efbe48a558b57220d770c32ca24901aa90600090a3505050505050565b60008281526009602090815260408083208484528252808320805482518185028101850190935280835260609492939192909184015b828210156115eb5783829060005260206000200160405180602001604052908160008201805461155a90612cc7565b80601f016020809104026020016040519081016040528092919081815260200182805461158690612cc7565b80156115d35780601f106115a8576101008083540402835291602001916115d3565b820191906000526020600020905b8154815290600101906020018083116115b657829003601f168201915b5050505050815250508152602001906001019061152b565b50505050905092915050565b600c6020526000908152604090208054819061161290612cc7565b80601f016020809104026020016040519081016040528092919081815260200182805461163e90612cc7565b801561168b5780601f106116605761010080835404028352916020019161168b565b820191906000526020600020905b81548152906001019060200180831161166e57829003601f168201915b5050505050905081565b6040805160808101825260008082526060602083018190529282018190529181019190915260008381526006602052604090206001018054839081106116dd576116dd612d14565b90600052602060002090600302016040518060800160405290816000820154815260200160018201805461171090612cc7565b80601f016020809104026020016040519081016040528092919081815260200182805461173c90612cc7565b80156117895780601f1061175e57610100808354040283529160200191611789565b820191906000526020600020905b81548152906001019060200180831161176c57829003601f168201915b50505091835250506002919091015460c081901b7fffffffffffffffff00000000000000000000000000000000000000000000000016602083015268010000000000000000900460ff1615156040909101529392505050565b6117ea612120565b600280547fffffffffffffffffffffffff00000000000000000000000000000000000000001673ffffffffffffffffffffffffffffffffffffffff83169081179091556040517f07b136952c7460e1fc2d593fad96b5b379f28cc13a49857b6a825c5228c1a8d190600090a250565b611861612120565b73ffffffffffffffffffffffffffffffffffffffff8116611909576040517f08c379a000000000000000000000000000000000000000000000000000000000815260206004820152602660248201527f4f776e61626c653a206e6577206f776e657220697320746865207a65726f206160448201527f646472657373000000000000000000000000000000000000000000000000000060648201526084015b60405180910390fd5b611912816121a1565b50565b6000818152600560208190526040909120015473ffffffffffffffffffffffffffffffffffffffff163314611912576040517f8c09e73f00000000000000000000000000000000000000000000000000000000815260040160405180910390fd5b6040517f01ffc9a70000000000000000000000000000000000000000000000000000000081527fd44f8da000000000000000000000000000000000000000000000000000000000600482015273ffffffffffffffffffffffffffffffffffffffff8216906301ffc9a790602401602060405180830381865afa158015611a00573d6000803e3d6000fd5b505050506040513d601f19601f82011682018060405250810190611a249190612ebb565b1515600003611912576040517fdb24a1e200000000000000000000000000000000000000000000000000000000815260040160405180910390fd5b600084815260056020908152604080832073ffffffffffffffffffffffffffffffffffffffff8716845260060190915290205460ff16611acb576040517fc1ef36f300000000000000000000000000000000000000000000000000000000815260040160405180910390fd5b6040517f171aacf700000000000000000000000000000000000000000000000000000000815273ffffffffffffffffffffffffffffffffffffffff84169063171aacf790611b2490879060009087908790600401612ffb565b600060405180830381600087803b158015611b3e57600080fd5b505af1158015611b52573d6000803e3d6000fd5b5050505050505050565b808015611b9b5750600083815260056020908152604080832073ffffffffffffffffffffffffffffffffffffffff8616845260060190915290205460ff165b15611bd2576040517f186abc9b00000000000000000000000000000000000000000000000000000000815260040160405180910390fd5b600083815260056020908152604080832073ffffffffffffffffffffffffffffffffffffffff86168452600601909152902080547fffffffffffffffffffffffffffffffffffffffffffffffffffffffffffffff00168215801591909117909155611c9d57600083815260056020908152604082206007018054600181018255908352912001805473ffffffffffffffffffffffffffffffffffffffff84167fffffffffffffffffffffffff0000000000000000000000000000000000000000909116179055505050565b600083815260056020526040812060070154905b81811015611e6c576000858152600560205260409020600701805473ffffffffffffffffffffffffffffffffffffffff8616919083908110611cf557611cf5612d14565b60009182526020909120015473ffffffffffffffffffffffffffffffffffffffff1603611e5a576000858152600560205260409020600701611d38600184613063565b81548110611d4857611d48612d14565b600091825260208083209091015487835260059091526040909120600701805473ffffffffffffffffffffffffffffffffffffffff9092169183908110611d9157611d91612d14565b600091825260208083209190910180547fffffffffffffffffffffffff00000000000000000000000000000000000000001673ffffffffffffffffffffffffffffffffffffffff9490941693909317909255868152600590915260409020600701805480611e0157611e0161307a565b60008281526020902081017fffffffffffffffffffffffffffffffffffffffffffffffffffffffffffffffff90810180547fffffffffffffffffffffffff00000000000000000000000000000000000000001690550190555b80611e6481612d43565b915050611cb1565b50505b505050565b600083815260096020908152604080832085845282528220805460018101825590835291208251839291909101908190611eae90826130ef565b505050505050565b600180548101908190556040517fdb8b5aa50000000000000000000000000000000000000000000000000000000081526000919073__$0167f7afdf7c7be35671eabe0842b16bab$__9063db8b5aa590611f2090869085903390600490600590600b90830161326d565b60006040518083038186803b158015611f3857600080fd5b505af4158015611f4c573d6000803e3d6000fd5b509295945050505050565b60008381526006602052604081208054829182611f7383612d43565b90915550600086815260066020908152604080832081516080810183528581528084018a81527fffffffffffffffff0000000000000000000000000000000000000000000000008a169382019390935260608101859052600191820180548084018255908652939094208451600390940201928355905193945091929091820190611ffe90826130ef565b50604082015160029091018054606090930151151568010000000000000000027fffffffffffffffffffffffffffffffffffffffffffffff00000000000000000090931660c09290921c9190911791909117905590509392505050565b600084815260056020908152604080832073ffffffffffffffffffffffffffffffffffffffff8716845260060190915290205460ff166120c7576040517fc1ef36f300000000000000000000000000000000000000000000000000000000815260040160405180910390fd5b6040517fb13f906400000000000000000000000000000000000000000000000000000000815273ffffffffffffffffffffffffffffffffffffffff84169063b13f906490611b249087906000908790879060040161331a565b60005473ffffffffffffffffffffffffffffffffffffffff163314610df9576040517f08c379a000000000000000000000000000000000000000000000000000000000815260206004820181905260248201527f4f776e61626c653a2063616c6c6572206973206e6f7420746865206f776e65726044820152606401611900565b6000805473ffffffffffffffffffffffffffffffffffffffff8381167fffffffffffffffffffffffff0000000000000000000000000000000000000000831681178455604051919092169283917f8be0079c531659141344cd1fd0a4f28419497f9722a3daafe3b4186f6b6457e09190a35050565b60005b83811015612231578181015183820152602001612219565b838111156106f65750506000910152565b6000815180845261225a816020860160208601612216565b601f017fffffffffffffffffffffffffffffffffffffffffffffffffffffffffffffffe0169290920160200192915050565b80518252602081015160208301526000604082015160a060408501526122b560a0850182612242565b9050606083015173ffffffffffffffffffffffffffffffffffffffff808216606087015280608086015116608087015250508091505092915050565b6000602080830181845280855180835260408601915060408160051b870101925083870160005b82811015612364577fffffffffffffffffffffffffffffffffffffffffffffffffffffffffffffffc088860301845261235285835161228c565b94509285019290850190600101612318565b5092979650505050505050565b803573ffffffffffffffffffffffffffffffffffffffff8116811461239557600080fd5b919050565b7f4e487b7100000000000000000000000000000000000000000000000000000000600052604160045260246000fd5b604051601f82017fffffffffffffffffffffffffffffffffffffffffffffffffffffffffffffffe016810167ffffffffffffffff811182821017156124105761241061239a565b604052919050565b600067ffffffffffffffff8211156124325761243261239a565b50601f017fffffffffffffffffffffffffffffffffffffffffffffffffffffffffffffffe01660200190565b600082601f83011261246f57600080fd5b813561248261247d82612418565b6123c9565b81815284602083860101111561249757600080fd5b816020850160208301376000918101602001919091529392505050565b600080600080608085870312156124ca57600080fd5b8435935060206124db818701612371565b9350604086013567ffffffffffffffff808211156124f857600080fd5b818801915088601f83011261250c57600080fd5b81358181111561251e5761251e61239a565b8060051b61252d8582016123c9565b918252838101850191858101908c84111561254757600080fd5b948601945b838610156125655785358252948601949086019061254c565b9750505050606088013592508083111561257e57600080fd5b505061258c8782880161245e565b91505092959194509250565b801515811461191257600080fd5b6000806000606084860312156125bb57600080fd5b833592506125cb60208501612371565b915060408401356125db81612598565b809150509250925092565b6000602082840312156125f857600080fd5b6040516020810167ffffffffffffffff828210818311171561261c5761261c61239a565b81604052829350843591508082111561263457600080fd5b506126418582860161245e565b8252505092915050565b60008060006060848603121561266057600080fd5b8335925060208401359150604084013567ffffffffffffffff81111561268557600080fd5b612691868287016125e6565b9150509250925092565b6000602082840312156126ad57600080fd5b5035919050565b6020815260006126c7602083018461228c565b9392505050565b6020808252825182820181905260009190848201906040850190845b8181101561271c57835173ffffffffffffffffffffffffffffffffffffffff16835292840192918401916001016126ea565b50909695505050505050565b60006040828403121561066957600080fd5b60006020828403121561274c57600080fd5b813567ffffffffffffffff81111561276357600080fd5b61276f84828501612728565b949350505050565b8051825260006020820151608060208501526127966080850182612242565b90507fffffffffffffffff00000000000000000000000000000000000000000000000060408401511660408501526060830151151560608501528091505092915050565b6000602080830181845280855180835260408601915060408160051b870101925083870160005b82811015612364577fffffffffffffffffffffffffffffffffffffffffffffffffffffffffffffffc088860301845261283b858351612777565b94509285019290850190600101612801565b6000806000806080858703121561286357600080fd5b843593506020850135925061287a60408601612371565b9150606085013567ffffffffffffffff81111561289657600080fd5b61258c878288016125e6565b600080604083850312156128b557600080fd5b823567ffffffffffffffff808211156128cd57600080fd5b6128d986838701612728565b935060208501359150808211156128ef57600080fd5b50830160a0818603121561290257600080fd5b809150509250929050565b60006020808301818452808551808352604092508286019150828160051b87010184880160005b838110156129c4577fffffffffffffffffffffffffffffffffffffffffffffffffffffffffffffffc08984030185528151606073ffffffffffffffffffffffffffffffffffffffff825116855288820151818a87015261299682870182612242565b915050878201519150848103888601526129b08183612242565b968901969450505090860190600101612934565b509098975050505050505050565b6000602082840312156129e457600080fd5b8135600a81106126c757600080fd5b602081526000825160208084015261276f6040840182612242565b60008083601f840112612a2057600080fd5b50813567ffffffffffffffff811115612a3857600080fd5b602083019150836020828501011115612a5057600080fd5b9250929050565b60008060208385031215612a6a57600080fd5b823567ffffffffffffffff811115612a8157600080fd5b612a8d85828601612a0e565b90969095509350505050565b600080600060608486031215612aae57600080fd5b83359250602084013567ffffffffffffffff811115612acc57600080fd5b612ad88682870161245e565b92505060408401357fffffffffffffffff000000000000000000000000000000000000000000000000811681146125db57600080fd5b600080600080600060808688031215612b2657600080fd5b85359450612b3660208701612371565b935060408601359250606086013567ffffffffffffffff811115612b5957600080fd5b612b6588828901612a0e565b969995985093965092949392505050565b60008060408385031215612b8957600080fd5b50508035926020909101359150565b6000602080830181845280855180835260408601915060408160051b870101925083870160005b82811015612364577fffffffffffffffffffffffffffffffffffffffffffffffffffffffffffffffc0888603018452815151868652612c0087870182612242565b9550509285019290850190600101612bbf565b60008060408385031215612c2657600080fd5b82359150612c3660208401612371565b90509250929050565b6020815260006126c76020830184612242565b6020815260006126c76020830184612777565b600060208284031215612c7757600080fd5b6126c782612371565b7f4e487b7100000000000000000000000000000000000000000000000000000000600052601160045260246000fd5b60008219821115612cc257612cc2612c80565b500190565b600181811c90821680612cdb57607f821691505b602082108103610669577f4e487b7100000000000000000000000000000000000000000000000000000000600052602260045260246000fd5b7f4e487b7100000000000000000000000000000000000000000000000000000000600052603260045260246000fd5b60007fffffffffffffffffffffffffffffffffffffffffffffffffffffffffffffffff8203612d7457612d74612c80565b5060010190565b7f4e487b7100000000000000000000000000000000000000000000000000000000600052602160045260246000fd5b60008083357fffffffffffffffffffffffffffffffffffffffffffffffffffffffffffffffe1843603018112612ddf57600080fd5b83018035915067ffffffffffffffff821115612dfa57600080fd5b602001915036819003821315612a5057600080fd5b8183528181602085013750600060208284010152600060207fffffffffffffffffffffffffffffffffffffffffffffffffffffffffffffffe0601f840116840101905092915050565b60208152600061276f602083018486612e0f565b84815283602082015273ffffffffffffffffffffffffffffffffffffffff83166040820152608060608201526000825160206080840152612eb060a0840182612242565b979650505050505050565b600060208284031215612ecd57600080fd5b81516126c781612598565b60008083357fffffffffffffffffffffffffffffffffffffffffffffffffffffffffffffffe1843603018112612f0d57600080fd5b83018035915067ffffffffffffffff821115612f2857600080fd5b6020019150600581901b3603821315612a5057600080fd5b606081526000612f54606083018688612e0f565b73ffffffffffffffffffffffffffffffffffffffff949094166020830152506040015292915050565b600060208284031215612f8f57600080fd5b815167ffffffffffffffff811115612fa657600080fd5b8201601f81018413612fb757600080fd5b8051612fc561247d82612418565b818152856020838501011115612fda57600080fd5b61144c826020830160208601612216565b8183823760009101908152919050565b600060808201868352602086818501526080604085015281865180845260a086019150828801935060005b8181101561304257845183529383019391830191600101613026565b505084810360608601526130568187612242565b9998505050505050505050565b60008282101561307557613075612c80565b500390565b7f4e487b7100000000000000000000000000000000000000000000000000000000600052603160045260246000fd5b601f821115611e6f57600081815260208120601f850160051c810160208610156130d05750805b601f850160051c820191505b81811015611eae578281556001016130dc565b815167ffffffffffffffff8111156131095761310961239a565b61311d816131178454612cc7565b846130a9565b602080601f831160018114613170576000841561313a5750858301515b7fffffffffffffffffffffffffffffffffffffffffffffffffffffffffffffffff600386901b1c1916600185901b178555611eae565b6000858152602081207fffffffffffffffffffffffffffffffffffffffffffffffffffffffffffffffe08616915b828110156131bd5788860151825594840194600190910190840161319e565b50858210156131f957878501517fffffffffffffffffffffffffffffffffffffffffffffffffffffffffffffffff600388901b60f8161c191681555b5050505050600190811b01905550565b60008083357fffffffffffffffffffffffffffffffffffffffffffffffffffffffffffffffe184360301811261323e57600080fd5b830160208101925035905067ffffffffffffffff81111561325e57600080fd5b803603821315612a5057600080fd5b60c08152600061327d8889613209565b604060c085015261329361010085018284612e0f565b9150506132a360208a018a613209565b7fffffffffffffffffffffffffffffffffffffffffffffffffffffffffffffff408584030160e08601526132d8838284612e0f565b602086019a909a525050505073ffffffffffffffffffffffffffffffffffffffff9490941660408501526060840192909252608083015260a090910152919050565b84815283602082015282604082015260806060820152600061333f6080830184612242565b969550505050505056fea2646970667358221220d078a64431abf3121438a0668e0ef4e81e3b219f9e0de31d7d9166e2a57c33e164736f6c634300080f0033",
    "linkReferences": {
      "contracts/zion-governance/contracts/spaces/libraries/ZionSpaceController.sol": {
        "ZionSpaceController": [
          {
            "start": 9458,
            "length": 20
          }
        ]
      }
    }
  },
  "methodIdentifiers": {
    "addPermissionToRole(uint256,uint256,(string))": "3368c918",
    "addRoleToEntitlementModule(uint256,address,uint256,bytes)": "a7972473",
    "createRole(uint256,string,bytes8)": "a3f13435",
    "createSpace((string,string))": "50b88cf7",
    "createSpaceWithTokenEntitlement((string,string),(address,address,uint256,string,string[]))": "7e9ea5c7",
    "getEntitlementModulesBySpaceId(uint256)": "41ab8a9a",
    "getEntitlementsInfoBySpaceId(uint256)": "8a99bd88",
    "getPermissionFromMap(uint8)": "9152efda",
    "getPermissionsBySpaceIdByRoleId(uint256,uint256)": "a7d325fc",
    "getRoleBySpaceIdByRoleId(uint256,uint256)": "d9af4ecf",
    "getRolesBySpaceId(uint256)": "52f1bea2",
    "getSpaceIdByNetworkId(string)": "9ddd0d6b",
    "getSpaceInfoBySpaceId(uint256)": "3439f03b",
    "getSpaceOwnerBySpaceId(uint256)": "7dde72d8",
    "getSpaces()": "15478ca9",
    "isEntitled(uint256,uint256,address,(string))": "66218999",
    "isEntitlementModuleWhitelisted(uint256,address)": "b010ac47",
    "owner()": "8da5cb5b",
    "registerDefaultEntitlementModule(address)": "dbe83cbf",
    "removeEntitlement(uint256,address,uint256[],bytes)": "1e984060",
    "renounceOwnership()": "715018a6",
    "transferOwnership(address)": "f2fde38b",
    "whitelistEntitlementModule(uint256,address,bool)": "28dcb202",
    "zionPermissionsMap(uint8)": "c870e04c"
  },
  "id": 13
}