{
  "abi": [
    {
      "inputs": [
        {
          "internalType": "address",
          "name": "_permissionRegistry",
          "type": "address"
        },
        {
          "internalType": "address",
          "name": "_roleManager",
          "type": "address"
        }
      ],
      "stateMutability": "nonpayable",
      "type": "constructor"
    },
    {
      "inputs": [],
      "name": "ChannelDoesNotExist",
      "type": "error"
    },
    {
      "inputs": [],
      "name": "DefaultEntitlementModuleNotSet",
      "type": "error"
    },
    {
      "inputs": [],
      "name": "DefaultPermissionsManagerNotSet",
      "type": "error"
    },
    {
      "inputs": [],
      "name": "EntitlementAlreadyWhitelisted",
      "type": "error"
    },
    {
      "inputs": [],
      "name": "EntitlementModuleNotSupported",
      "type": "error"
    },
    {
      "inputs": [],
      "name": "EntitlementNotWhitelisted",
      "type": "error"
    },
    {
      "inputs": [],
      "name": "InvalidParameters",
      "type": "error"
    },
    {
      "inputs": [],
      "name": "NameContainsInvalidCharacters",
      "type": "error"
    },
    {
      "inputs": [],
      "name": "NameLengthInvalid",
      "type": "error"
    },
    {
      "inputs": [],
      "name": "NotAllowed",
      "type": "error"
    },
    {
      "inputs": [],
      "name": "RoleDoesNotExist",
      "type": "error"
    },
    {
      "inputs": [],
      "name": "SpaceDoesNotExist",
      "type": "error"
    },
    {
      "inputs": [],
      "name": "SpaceNFTNotSet",
      "type": "error"
    },
    {
      "anonymous": false,
      "inputs": [
        {
          "indexed": true,
          "internalType": "address",
          "name": "previousOwner",
          "type": "address"
        },
        {
          "indexed": true,
          "internalType": "address",
          "name": "newOwner",
          "type": "address"
        }
      ],
      "name": "OwnershipTransferred",
      "type": "event"
    },
    {
      "inputs": [
        {
          "internalType": "string",
          "name": "spaceId",
          "type": "string"
        },
        {
          "internalType": "uint256",
          "name": "roleId",
          "type": "uint256"
        },
        {
          "components": [
            {
              "internalType": "string",
              "name": "name",
              "type": "string"
            }
          ],
          "internalType": "struct DataTypes.Permission",
          "name": "permission",
          "type": "tuple"
        }
      ],
      "name": "addPermissionToRole",
      "outputs": [],
      "stateMutability": "nonpayable",
      "type": "function"
    },
    {
      "inputs": [
        {
          "internalType": "string",
          "name": "spaceNetworkId",
          "type": "string"
        },
        {
          "internalType": "string",
          "name": "channelNetworkId",
          "type": "string"
        },
        {
          "internalType": "address",
          "name": "entitlementModuleAddress",
          "type": "address"
        },
        {
          "internalType": "uint256",
          "name": "roleId",
          "type": "uint256"
        },
        {
          "internalType": "bytes",
          "name": "entitlementData",
          "type": "bytes"
        }
      ],
      "name": "addRoleToEntitlementModule",
      "outputs": [],
      "stateMutability": "nonpayable",
      "type": "function"
    },
    {
      "inputs": [
        {
          "components": [
            {
              "internalType": "string",
              "name": "spaceNetworkId",
              "type": "string"
            },
            {
              "internalType": "string",
              "name": "channelName",
              "type": "string"
            },
            {
              "internalType": "string",
              "name": "channelNetworkId",
              "type": "string"
            }
          ],
          "internalType": "struct DataTypes.CreateChannelData",
          "name": "data",
          "type": "tuple"
        },
        {
          "components": [
            {
              "internalType": "uint256",
              "name": "roleId",
              "type": "uint256"
            },
            {
              "internalType": "address",
              "name": "entitlementModule",
              "type": "address"
            },
            {
              "internalType": "bytes",
              "name": "entitlementData",
              "type": "bytes"
            }
          ],
          "internalType": "struct DataTypes.CreateRoleEntitlementData[]",
          "name": "roles",
          "type": "tuple[]"
        }
      ],
      "name": "createChannel",
      "outputs": [
        {
          "internalType": "uint256",
          "name": "channelId",
          "type": "uint256"
        }
      ],
      "stateMutability": "nonpayable",
      "type": "function"
    },
    {
      "inputs": [
        {
          "internalType": "string",
          "name": "spaceNetworkId",
          "type": "string"
        },
        {
          "internalType": "string",
          "name": "name",
          "type": "string"
        }
      ],
      "name": "createRole",
      "outputs": [
        {
          "internalType": "uint256",
          "name": "roleId",
          "type": "uint256"
        }
      ],
      "stateMutability": "nonpayable",
      "type": "function"
    },
    {
      "inputs": [
        {
          "components": [
            {
              "internalType": "string",
              "name": "spaceName",
              "type": "string"
            },
            {
              "internalType": "string",
              "name": "spaceNetworkId",
              "type": "string"
            }
          ],
          "internalType": "struct DataTypes.CreateSpaceData",
          "name": "info",
          "type": "tuple"
        },
        {
          "components": [
            {
              "internalType": "string",
              "name": "roleName",
              "type": "string"
            },
            {
              "components": [
                {
                  "internalType": "string",
                  "name": "name",
                  "type": "string"
                }
              ],
              "internalType": "struct DataTypes.Permission[]",
              "name": "permissions",
              "type": "tuple[]"
            },
            {
              "components": [
                {
                  "internalType": "string",
                  "name": "tag",
                  "type": "string"
                },
                {
                  "components": [
                    {
                      "internalType": "address",
                      "name": "contractAddress",
                      "type": "address"
                    },
                    {
                      "internalType": "uint256",
                      "name": "quantity",
                      "type": "uint256"
                    },
                    {
                      "internalType": "bool",
                      "name": "isSingleToken",
                      "type": "bool"
                    },
                    {
                      "internalType": "uint256",
                      "name": "tokenId",
                      "type": "uint256"
                    }
                  ],
                  "internalType": "struct DataTypes.ExternalToken[]",
                  "name": "tokens",
                  "type": "tuple[]"
                }
              ],
              "internalType": "struct DataTypes.ExternalTokenEntitlement[]",
              "name": "externalTokenEntitlements",
              "type": "tuple[]"
            },
            {
              "internalType": "address[]",
              "name": "users",
              "type": "address[]"
            }
          ],
          "internalType": "struct DataTypes.CreateSpaceEntitlementData",
          "name": "entitlementData",
          "type": "tuple"
        },
        {
          "components": [
            {
              "internalType": "string",
              "name": "name",
              "type": "string"
            }
          ],
          "internalType": "struct DataTypes.Permission[]",
          "name": "everyonePermissions",
          "type": "tuple[]"
        }
      ],
      "name": "createSpace",
      "outputs": [
        {
          "internalType": "uint256",
          "name": "",
          "type": "uint256"
        }
      ],
      "stateMutability": "nonpayable",
      "type": "function"
    },
    {
      "inputs": [
        {
          "internalType": "string",
          "name": "spaceId",
          "type": "string"
        },
        {
          "internalType": "string",
          "name": "channelId",
          "type": "string"
        }
      ],
      "name": "getChannelIdByNetworkId",
      "outputs": [
        {
          "internalType": "uint256",
          "name": "",
          "type": "uint256"
        }
      ],
      "stateMutability": "view",
      "type": "function"
    },
    {
      "inputs": [
        {
          "internalType": "string",
          "name": "spaceId",
          "type": "string"
        },
        {
          "internalType": "string",
          "name": "channelId",
          "type": "string"
        }
      ],
      "name": "getChannelInfoByChannelId",
      "outputs": [
        {
          "components": [
            {
              "internalType": "uint256",
              "name": "channelId",
              "type": "uint256"
            },
            {
              "internalType": "string",
              "name": "networkId",
              "type": "string"
            },
            {
              "internalType": "uint256",
              "name": "createdAt",
              "type": "uint256"
            },
            {
              "internalType": "string",
              "name": "name",
              "type": "string"
            },
            {
              "internalType": "address",
              "name": "creator",
              "type": "address"
            },
            {
              "internalType": "bool",
              "name": "disabled",
              "type": "bool"
            }
          ],
          "internalType": "struct DataTypes.ChannelInfo",
          "name": "",
          "type": "tuple"
        }
      ],
      "stateMutability": "view",
      "type": "function"
    },
    {
      "inputs": [
        {
          "internalType": "string",
          "name": "spaceId",
          "type": "string"
        }
      ],
      "name": "getChannelsBySpaceId",
      "outputs": [
        {
          "components": [
            {
              "internalType": "uint256",
              "name": "idCounter",
              "type": "uint256"
            },
            {
              "components": [
                {
                  "internalType": "uint256",
                  "name": "channelId",
                  "type": "uint256"
                },
                {
                  "internalType": "uint256",
                  "name": "createdAt",
                  "type": "uint256"
                },
                {
                  "internalType": "string",
                  "name": "networkId",
                  "type": "string"
                },
                {
                  "internalType": "string",
                  "name": "name",
                  "type": "string"
                },
                {
                  "internalType": "address",
                  "name": "creator",
                  "type": "address"
                },
                {
                  "internalType": "bool",
                  "name": "disabled",
                  "type": "bool"
                }
              ],
              "internalType": "struct DataTypes.Channel[]",
              "name": "channels",
              "type": "tuple[]"
            }
          ],
          "internalType": "struct DataTypes.Channels",
          "name": "",
          "type": "tuple"
        }
      ],
      "stateMutability": "view",
      "type": "function"
    },
    {
      "inputs": [
        {
          "internalType": "string",
          "name": "spaceId",
          "type": "string"
        }
      ],
      "name": "getEntitlementModulesBySpaceId",
      "outputs": [
        {
          "internalType": "address[]",
          "name": "",
          "type": "address[]"
        }
      ],
      "stateMutability": "view",
      "type": "function"
    },
    {
      "inputs": [
        {
          "internalType": "string",
          "name": "spaceId",
          "type": "string"
        }
      ],
      "name": "getEntitlementsInfoBySpaceId",
      "outputs": [
        {
          "components": [
            {
              "internalType": "address",
              "name": "addr",
              "type": "address"
            },
            {
              "internalType": "string",
              "name": "name",
              "type": "string"
            },
            {
              "internalType": "string",
              "name": "moduleType",
              "type": "string"
            },
            {
              "internalType": "string",
              "name": "description",
              "type": "string"
            }
          ],
          "internalType": "struct DataTypes.EntitlementModuleInfo[]",
          "name": "",
          "type": "tuple[]"
        }
      ],
      "stateMutability": "view",
      "type": "function"
    },
    {
      "inputs": [
        {
          "internalType": "string",
          "name": "networkId",
          "type": "string"
        }
      ],
      "name": "getSpaceIdByNetworkId",
      "outputs": [
        {
          "internalType": "uint256",
          "name": "",
          "type": "uint256"
        }
      ],
      "stateMutability": "view",
      "type": "function"
    },
    {
      "inputs": [
        {
          "internalType": "string",
          "name": "spaceId",
          "type": "string"
        }
      ],
      "name": "getSpaceInfoBySpaceId",
      "outputs": [
        {
          "components": [
            {
              "internalType": "uint256",
              "name": "spaceId",
              "type": "uint256"
            },
            {
              "internalType": "string",
              "name": "networkId",
              "type": "string"
            },
            {
              "internalType": "uint256",
              "name": "createdAt",
              "type": "uint256"
            },
            {
              "internalType": "string",
              "name": "name",
              "type": "string"
            },
            {
              "internalType": "address",
              "name": "creator",
              "type": "address"
            },
            {
              "internalType": "address",
              "name": "owner",
              "type": "address"
            },
            {
              "internalType": "bool",
              "name": "disabled",
              "type": "bool"
            }
          ],
          "internalType": "struct DataTypes.SpaceInfo",
          "name": "",
          "type": "tuple"
        }
      ],
      "stateMutability": "view",
      "type": "function"
    },
    {
      "inputs": [
        {
          "internalType": "string",
          "name": "spaceId",
          "type": "string"
        }
      ],
      "name": "getSpaceOwnerBySpaceId",
      "outputs": [
        {
          "internalType": "address",
          "name": "",
          "type": "address"
        }
      ],
      "stateMutability": "view",
      "type": "function"
    },
    {
      "inputs": [],
      "name": "getSpaces",
      "outputs": [
        {
          "components": [
            {
              "internalType": "uint256",
              "name": "spaceId",
              "type": "uint256"
            },
            {
              "internalType": "string",
              "name": "networkId",
              "type": "string"
            },
            {
              "internalType": "uint256",
              "name": "createdAt",
              "type": "uint256"
            },
            {
              "internalType": "string",
              "name": "name",
              "type": "string"
            },
            {
              "internalType": "address",
              "name": "creator",
              "type": "address"
            },
            {
              "internalType": "address",
              "name": "owner",
              "type": "address"
            },
            {
              "internalType": "bool",
              "name": "disabled",
              "type": "bool"
            }
          ],
          "internalType": "struct DataTypes.SpaceInfo[]",
          "name": "",
          "type": "tuple[]"
        }
      ],
      "stateMutability": "view",
      "type": "function"
    },
    {
      "inputs": [
        {
          "internalType": "string",
          "name": "spaceId",
          "type": "string"
        },
        {
          "internalType": "string",
          "name": "channelId",
          "type": "string"
        },
        {
          "internalType": "address",
          "name": "user",
          "type": "address"
        },
        {
          "components": [
            {
              "internalType": "string",
              "name": "name",
              "type": "string"
            }
          ],
          "internalType": "struct DataTypes.Permission",
          "name": "permission",
          "type": "tuple"
        }
      ],
      "name": "isEntitled",
      "outputs": [
        {
          "internalType": "bool",
          "name": "",
          "type": "bool"
        }
      ],
      "stateMutability": "view",
      "type": "function"
    },
    {
      "inputs": [
        {
          "internalType": "string",
          "name": "spaceId",
          "type": "string"
        },
        {
          "internalType": "address",
          "name": "entitlementModuleAddress",
          "type": "address"
        }
      ],
      "name": "isEntitlementModuleWhitelisted",
      "outputs": [
        {
          "internalType": "bool",
          "name": "",
          "type": "bool"
        }
      ],
      "stateMutability": "view",
      "type": "function"
    },
    {
      "inputs": [],
      "name": "owner",
      "outputs": [
        {
          "internalType": "address",
          "name": "",
          "type": "address"
        }
      ],
      "stateMutability": "view",
      "type": "function"
    },
    {
      "inputs": [
        {
          "internalType": "string",
          "name": "spaceNetworkId",
          "type": "string"
        },
        {
          "internalType": "string",
          "name": "channelNetworkId",
          "type": "string"
        },
        {
          "internalType": "address",
          "name": "entitlementModuleAddress",
          "type": "address"
        },
        {
          "internalType": "uint256",
          "name": "roleId",
          "type": "uint256"
        },
        {
          "internalType": "bytes",
          "name": "data",
          "type": "bytes"
        }
      ],
      "name": "removeEntitlement",
      "outputs": [],
      "stateMutability": "nonpayable",
      "type": "function"
    },
    {
      "inputs": [
        {
          "internalType": "string",
          "name": "spaceNetworkId",
          "type": "string"
        },
        {
          "internalType": "uint256",
          "name": "roleId",
          "type": "uint256"
        },
        {
          "components": [
            {
              "internalType": "string",
              "name": "name",
              "type": "string"
            }
          ],
          "internalType": "struct DataTypes.Permission",
          "name": "permission",
          "type": "tuple"
        }
      ],
      "name": "removePermissionFromRole",
      "outputs": [],
      "stateMutability": "nonpayable",
      "type": "function"
    },
    {
      "inputs": [
        {
          "internalType": "string",
          "name": "spaceNetworkId",
          "type": "string"
        },
        {
          "internalType": "uint256",
          "name": "roleId",
          "type": "uint256"
        }
      ],
      "name": "removeRole",
      "outputs": [],
      "stateMutability": "nonpayable",
      "type": "function"
    },
    {
      "inputs": [],
      "name": "renounceOwnership",
      "outputs": [],
      "stateMutability": "nonpayable",
      "type": "function"
    },
    {
      "inputs": [
        {
          "internalType": "string",
          "name": "spaceNetworkId",
          "type": "string"
        },
        {
          "internalType": "string",
          "name": "channelNetworkId",
          "type": "string"
        },
        {
          "internalType": "bool",
          "name": "disabled",
          "type": "bool"
        }
      ],
      "name": "setChannelAccess",
      "outputs": [],
      "stateMutability": "nonpayable",
      "type": "function"
    },
    {
      "inputs": [
        {
          "internalType": "address",
          "name": "entitlementModule",
          "type": "address"
        }
      ],
      "name": "setDefaultTokenEntitlementModule",
      "outputs": [],
      "stateMutability": "nonpayable",
      "type": "function"
    },
    {
      "inputs": [
        {
          "internalType": "address",
          "name": "entitlementModule",
          "type": "address"
        }
      ],
      "name": "setDefaultUserEntitlementModule",
      "outputs": [],
      "stateMutability": "nonpayable",
      "type": "function"
    },
    {
      "inputs": [
        {
          "internalType": "string",
          "name": "spaceNetworkId",
          "type": "string"
        },
        {
          "internalType": "bool",
          "name": "disabled",
          "type": "bool"
        }
      ],
      "name": "setSpaceAccess",
      "outputs": [],
      "stateMutability": "nonpayable",
      "type": "function"
    },
    {
      "inputs": [
        {
          "internalType": "address",
          "name": "spaceNFTAddress",
          "type": "address"
        }
      ],
      "name": "setSpaceNFT",
      "outputs": [],
      "stateMutability": "nonpayable",
      "type": "function"
    },
    {
      "inputs": [
        {
          "internalType": "address",
          "name": "newOwner",
          "type": "address"
        }
      ],
      "name": "transferOwnership",
      "outputs": [],
      "stateMutability": "nonpayable",
      "type": "function"
    },
    {
      "inputs": [
        {
          "internalType": "string",
          "name": "spaceNetworkId",
          "type": "string"
        },
        {
          "internalType": "address",
          "name": "entitlementAddress",
          "type": "address"
        },
        {
          "internalType": "bool",
          "name": "whitelist",
          "type": "bool"
        }
      ],
      "name": "whitelistEntitlementModule",
      "outputs": [],
      "stateMutability": "nonpayable",
      "type": "function"
    }
  ],
  "bytecode": {
    "object": "0x60c06040523480156200001157600080fd5b506040516200604038038062006040833981016040819052620000349162000129565b6200003f33620000bc565b6001600160a01b0382166200006757604051630e52390960e41b815260040160405180910390fd5b6001600160a01b0381166200008f57604051630e52390960e41b815260040160405180910390fd5b6001600160a01b0391821660a052166080819052600b80546001600160a01b031916909117905562000161565b600080546001600160a01b038381166001600160a01b0319831681178455604051919092169283917f8be0079c531659141344cd1fd0a4f28419497f9722a3daafe3b4186f6b6457e09190a35050565b80516001600160a01b03811681146200012457600080fd5b919050565b600080604083850312156200013d57600080fd5b62000148836200010c565b915062000158602084016200010c565b90509250929050565b60805160a051615eb56200018b600039600081816134800152613b58015260005050615eb56000f3fe608060405234801561001057600080fd5b50600436106101c45760003560e01c80638b0e905a116100f9578063d2192dbf11610097578063e69689af11610071578063e69689af14610422578063e798ff3f14610435578063f2fde38b14610448578063f86caf831461045b57600080fd5b8063d2192dbf146103e9578063d9d94cb7146103fc578063e1b7a9e51461040f57600080fd5b8063b53b8167116100d3578063b53b81671461039d578063bbd7358a146103b0578063bf77b663146103c3578063ccde2de3146103d657600080fd5b80638b0e905a146103595780638da5cb5b1461036c5780639ddd0d6b1461038a57600080fd5b80633e66eae31161016657806350c24eef1161014057806350c24eef1461030b578063715018a61461032b57806372a29321146103335780637d9a02301461034657600080fd5b80633e66eae3146102b45780634196d1ff146102d55780634832a4ec146102f857600080fd5b80631a039620116101a25780631a039620146102275780632a4bdf251461023c5780632bb59212146102745780633519167c1461029457600080fd5b80630db37ba3146101c9578063141b6498146101f257806315478ca914610212575b600080fd5b6101dc6101d73660046146fc565b61046e565b6040516101e991906147d6565b60405180910390f35b61020561020036600461487a565b61076c565b6040516101e991906148bc565b61021a610831565b6040516101e991906149a1565b61023a610235366004614a43565b610acb565b005b61024f61024a36600461487a565b610b42565b60405173ffffffffffffffffffffffffffffffffffffffff90911681526020016101e9565b61028761028236600461487a565b610c08565b6040516101e99190614a60565b6102a76102a236600461487a565b610e91565b6040516101e99190614a73565b6102c76102c23660046146fc565b61120e565b6040519081526020016101e9565b6102e86102e3366004614b53565b61128c565b60405190151581526020016101e9565b61023a610306366004614bbc565b611314565b61031e610319366004614dc0565b6114a5565b6040516101e99190614df5565b61023a6116ea565b61023a610341366004614efa565b6116fe565b61023a610354366004614bbc565b6119df565b61023a610367366004614f7e565b611aae565b60005473ffffffffffffffffffffffffffffffffffffffff1661024f565b6102c761039836600461487a565b611cd2565b61023a6103ab366004614fca565b611d13565b61023a6103be366004614fca565b611f0f565b6102e86103d1366004615082565b612171565b61023a6103e4366004614a43565b6121fd565b6102c76103f73660046146fc565b612274565b6102c761040a366004615129565b612433565b61023a61041d366004614a43565b612a38565b6102c7610430366004615216565b612aaf565b61023a610443366004615378565b613051565b61023a610456366004614a43565b613172565b61023a6104693660046153e0565b61322e565b6104bf6040518060c0016040528060008152602001606081526020016000815260200160608152602001600073ffffffffffffffffffffffffffffffffffffffff1681526020016000151581525090565b600061050086868080601f01602080910402602001604051908101604052809392919081815260200183838082843760009201919091525061335d92505050565b9050600061057787878080601f01602080910402602001604051908101604052809392919081815260200183838082843760009201919091525050604080516020601f8b01819004810282018101909252898152925089915088908190840183828082843760009201919091525061337792505050565b6040805160c081018252600085815260046020908152838220858352808252938220805484529185905292835260020180549394509092918301916105bb90615432565b80601f01602080910402602001604051908101604052809291908181526020018280546105e790615432565b80156106345780601f1061060957610100808354040283529160200191610634565b820191906000526020600020905b81548152906001019060200180831161061757829003601f168201915b50505091835250506000848152600460209081526040808320868452808352818420600181015484870152938790529091526003909101805491909201919061067c90615432565b80601f01602080910402602001604051908101604052809291908181526020018280546106a890615432565b80156106f55780601f106106ca576101008083540402835291602001916106f5565b820191906000526020600020905b8154815290600101906020018083116106d857829003601f168201915b505050918352505060009384526004602081815260408087208688528083528188209093015473ffffffffffffffffffffffffffffffffffffffff81168386015295909652527401000000000000000000000000000000000000000090920460ff161515929091019190915290505b949350505050565b6060600560006107b185858080601f01602080910402602001604051908101604052809392919081815260200183838082843760009201919091525061335d92505050565b815260200190815260200160002060090180548060200260200160405190810160405280929190818152602001828054801561082357602002820191906000526020600020905b815473ffffffffffffffffffffffffffffffffffffffff1681526001909101906020018083116107f8575b505050505090505b92915050565b6060600060015467ffffffffffffffff81111561085057610850614c2f565b6040519080825280602002602001820160405280156108ef57816020015b6108dc6040518060e0016040528060008152602001606081526020016000815260200160608152602001600073ffffffffffffffffffffffffffffffffffffffff168152602001600073ffffffffffffffffffffffffffffffffffffffff1681526020016000151581525090565b81526020019060019003908161086e5790505b50905060005b600154811015610ac557600060058161090f8460016154ae565b815260200190815260200160002090506040518060e001604052808260000154815260200182600201805461094390615432565b80601f016020809104026020016040519081016040528092919081815260200182805461096f90615432565b80156109bc5780601f10610991576101008083540402835291602001916109bc565b820191906000526020600020905b81548152906001019060200180831161099f57829003601f168201915b50505050508152602001826001015481526020018260030180546109df90615432565b80601f0160208091040260200160405190810160405280929190818152602001828054610a0b90615432565b8015610a585780601f10610a2d57610100808354040283529160200191610a58565b820191906000526020600020905b815481529060010190602001808311610a3b57829003601f168201915b5050509183525050600483015473ffffffffffffffffffffffffffffffffffffffff90811660208301526005840154166040820152600783015460ff1615156060909101528351849084908110610ab157610ab16154c1565b6020908102919091010152506001016108f5565b50919050565b610ad36133ca565b600980547fffffffffffffffffffffffff00000000000000000000000000000000000000001673ffffffffffffffffffffffffffffffffffffffff83169081179091556040517f07b136952c7460e1fc2d593fad96b5b379f28cc13a49857b6a825c5228c1a8d190600090a250565b600a54604080516020601f850181900481028201810190925283815260009273ffffffffffffffffffffffffffffffffffffffff169163cc3f8dc891610ba291879087908190840183828082843760009201919091525061335d92505050565b6040518263ffffffff1660e01b8152600401610bc091815260200190565b602060405180830381865afa158015610bdd573d6000803e3d6000fd5b505050506040513d601f19601f82011682018060405250810190610c0191906154f0565b9392505050565b610c766040518060e0016040528060008152602001606081526020016000815260200160608152602001600073ffffffffffffffffffffffffffffffffffffffff168152602001600073ffffffffffffffffffffffffffffffffffffffff1681526020016000151581525090565b6000610cb784848080601f01602080910402602001604051908101604052809392919081815260200183838082843760009201919091525061335d92505050565b6040805160e081018252600083815260056020818152938220805484529185905283526002018054939450909291830191610cf190615432565b80601f0160208091040260200160405190810160405280929190818152602001828054610d1d90615432565b8015610d6a5780601f10610d3f57610100808354040283529160200191610d6a565b820191906000526020600020905b815481529060010190602001808311610d4d57829003601f168201915b5050505050815260200160056000848152602001908152602001600020600101548152602001600560008481526020019081526020016000206003018054610db190615432565b80601f0160208091040260200160405190810160405280929190818152602001828054610ddd90615432565b8015610e2a5780601f10610dff57610100808354040283529160200191610e2a565b820191906000526020600020905b815481529060010190602001808311610e0d57829003601f168201915b50505091835250506000838152600560208181526040808420600481015473ffffffffffffffffffffffffffffffffffffffff9081168488015281850154169186019190915295909252905260079092015460ff1615156060909201919091529392505050565b60606000610ed484848080601f01602080910402602001604051908101604052809392919081815260200183838082843760009201919091525061335d92505050565b6000818152600560205260408120600901549192509067ffffffffffffffff811115610f0257610f02614c2f565b604051908082528060200260200182016040528015610f7457816020015b610f616040518060800160405280600073ffffffffffffffffffffffffffffffffffffffff1681526020016060815260200160608152602001606081525090565b815260200190600190039081610f205790505b506000838152600560205260408120600901549192505b81811015611203576000848152600560205260408120600901805483908110610fb657610fb66154c1565b60009182526020909120015473ffffffffffffffffffffffffffffffffffffffff16905080610fe557506111f1565b600060405180608001604052808373ffffffffffffffffffffffffffffffffffffffff1681526020018373ffffffffffffffffffffffffffffffffffffffff166306fdde036040518163ffffffff1660e01b8152600401600060405180830381865afa158015611059573d6000803e3d6000fd5b505050506040513d6000823e601f3d9081017fffffffffffffffffffffffffffffffffffffffffffffffffffffffffffffffe016820160405261109f9190810190615552565b81526020018373ffffffffffffffffffffffffffffffffffffffff16636465e69f6040518163ffffffff1660e01b8152600401600060405180830381865afa1580156110ef573d6000803e3d6000fd5b505050506040513d6000823e601f3d9081017fffffffffffffffffffffffffffffffffffffffffffffffffffffffffffffffe01682016040526111359190810190615552565b81526020018373ffffffffffffffffffffffffffffffffffffffff16637284e4166040518163ffffffff1660e01b8152600401600060405180830381865afa158015611185573d6000803e3d6000fd5b505050506040513d6000823e601f3d9081017fffffffffffffffffffffffffffffffffffffffffffffffffffffffffffffffe01682016040526111cb9190810190615552565b8152509050808584815181106111e3576111e36154c1565b602002602001018190525050505b806111fb81615587565b915050610f8b565b509095945050505050565b600061128385858080601f01602080910402602001604051908101604052809392919081815260200183838082843760009201919091525050604080516020601f8901819004810282018101909252878152925087915086908190840183828082843760009201919091525061337792505050565b95945050505050565b6000600560006112d186868080601f01602080910402602001604051908101604052809392919081815260200183838082843760009201919091525061335d92505050565b81526020808201929092526040908101600090812073ffffffffffffffffffffffffffffffffffffffff8616825260080190925290205460ff1690509392505050565b61138384848080601f0160208091040260200160405190810160405280939291908181526020018383808284376000920182905250604080516020810190915290815292507f75be26f315524d8937b28469fe5b4df7e59aebca1fcbbbe5669005e1491b131b915061344b9050565b600b54604080516020601f870181900481028201810190925285815273ffffffffffffffffffffffffffffffffffffffff9092169163db474ecb916113e39190889088908190840183828082843760009201919091525061335d92505050565b84846040518463ffffffff1660e01b81526004016114039392919061566c565b600060405180830381600087803b15801561141d57600080fd5b505af1158015611431573d6000803e3d6000fd5b5050505081848460405161144692919061569d565b60405180910390207fb72e43fbdf2abeb3bfe59e783bcca829d13e9fcde1eac425751faabea6c134c96114763390565b60405173ffffffffffffffffffffffffffffffffffffffff90911681526020015b60405180910390a350505050565b604080518082019091526000815260606020820152600660006114dc84805160209182012060009081526002909152604090205490565b81526020019081526020016000206040518060400160405290816000820154815260200160018201805480602002602001604051908101604052809291908181526020016000905b828210156116dc57838290600052602060002090600502016040518060c0016040529081600082015481526020016001820154815260200160028201805461156b90615432565b80601f016020809104026020016040519081016040528092919081815260200182805461159790615432565b80156115e45780601f106115b9576101008083540402835291602001916115e4565b820191906000526020600020905b8154815290600101906020018083116115c757829003601f168201915b505050505081526020016003820180546115fd90615432565b80601f016020809104026020016040519081016040528092919081815260200182805461162990615432565b80156116765780601f1061164b57610100808354040283529160200191611676565b820191906000526020600020905b81548152906001019060200180831161165957829003601f168201915b50505091835250506004919091015473ffffffffffffffffffffffffffffffffffffffff81166020808401919091527401000000000000000000000000000000000000000090910460ff1615156040909201919091529082526001929092019101611524565b505050915250909392505050565b6116f26133ca565b6116fc6000613563565b565b61179385858080601f01602080910402602001604051908101604052809392919081815260200183838082843760009201919091525050604080516020601f890181900481028201810190925287815292508791508690819084018382808284376000920191909152507f71e770fed024e50450e0cb5318c1a012e92ab6439dfbe6c071800b700ce55c0a925061344b915050565b6117d285858080601f0160208091040260200160405190810160405280939291908181526020018383808284376000920191909152506135d892505050565b61184585858080601f01602080910402602001604051908101604052809392919081815260200183838082843760009201919091525050604080516020601f8901819004810282018101909252878152925087915086908190840183828082843760009201919091525061368492505050565b600061188686868080601f01602080910402602001604051908101604052809392919081815260200183838082843760009201919091525061335d92505050565b905060006118fd87878080601f01602080910402602001604051908101604052809392919081815260200183838082843760009201919091525050604080516020601f8b01819004810282018101909252898152925089915088908190840183828082843760009201919091525061337792505050565b60008381526004602081815260408084208585529091529091200180547fffffffffffffffffffffff00ffffffffffffffffffffffffffffffffffffffff16740100000000000000000000000000000000000000008615150217905590503373ffffffffffffffffffffffffffffffffffffffff16858560405161198292919061569d565b6040518091039020888860405161199a92919061569d565b6040519081900381208615158252907fcba51876aa74b247950c251d3459c41aaebd8b10717beadb480ca1a105166ab59060200160405180910390a450505050505050565b611a4e84848080601f0160208091040260200160405190810160405280939291908181526020018383808284376000920182905250604080516020810190915290815292507f75be26f315524d8937b28469fe5b4df7e59aebca1fcbbbe5669005e1491b131b915061344b9050565b600b54604080516020601f870181900481028201810190925285815273ffffffffffffffffffffffffffffffffffffffff90921691633368c918916113e39190889088908190840183828082843760009201919091525061335d92505050565b611b1d83838080601f0160208091040260200160405190810160405280939291908181526020018383808284376000920182905250604080516020810190915290815292507f75be26f315524d8937b28469fe5b4df7e59aebca1fcbbbe5669005e1491b131b915061344b9050565b60056000611b6085858080601f01602080910402602001604051908101604052809392919081815260200183838082843760009201919091525061335d92505050565b8152602001908152602001600020600601548103611baa576040517fe523909000000000000000000000000000000000000000000000000000000000815260040160405180910390fd5b600b54604080516020601f860181900481028201810190925284815273ffffffffffffffffffffffffffffffffffffffff9092169163cdb0ba5091611c0a9190879087908190840183828082843760009201919091525061335d92505050565b836040518363ffffffff1660e01b8152600401611c31929190918252602082015260400190565b600060405180830381600087803b158015611c4b57600080fd5b505af1158015611c5f573d6000803e3d6000fd5b50505050808383604051611c7492919061569d565b60405180910390207f7bb07acd566d038f77cba9c39e7536f74ea2c4ee382024d1b428d7f0680dbc02611ca43390565b60405173ffffffffffffffffffffffffffffffffffffffff90911681526020015b60405180910390a3505050565b6000610c0183838080601f01602080910402602001604051908101604052809392919081815260200183838082843760009201919091525061335d92505050565b611d5288888080601f0160208091040260200160405190810160405280939291908181526020018383808284376000920191909152506135d892505050565b611de788888080601f01602080910402602001604051908101604052809392919081815260200183838082843760009201919091525050604080516020601f8c018190048102820181019092528a815292508a91508990819084018382808284376000920191909152507f71e770fed024e50450e0cb5318c1a012e92ab6439dfbe6c071800b700ce55c0a925061344b915050565b8415611e6057611e6088888080601f01602080910402602001604051908101604052809392919081815260200183838082843760009201919091525050604080516020601f8c018190048102820181019092528a815292508a915089908190840183828082843760009201919091525061368492505050565b611e69846136cc565b611eae88888888888888888080601f0160208091040260200160405190810160405280939291908181526020018383808284376000920191909152506137b592505050565b8373ffffffffffffffffffffffffffffffffffffffff168888604051611ed592919061569d565b604051908190038120907f9b42a541e0a10f6a80059e1448b92d56a4e71354d43a2ca1fd3701878cb50ae290600090a35050505050505050565b611f4e88888080601f0160208091040260200160405190810160405280939291908181526020018383808284376000920191909152506135d892505050565b611fe388888080601f01602080910402602001604051908101604052809392919081815260200183838082843760009201919091525050604080516020601f8c018190048102820181019092528a815292508a91508990819084018382808284376000920191909152507f71e770fed024e50450e0cb5318c1a012e92ab6439dfbe6c071800b700ce55c0a925061344b915050565b841561205c5761205c88888080601f01602080910402602001604051908101604052809392919081815260200183838082843760009201919091525050604080516020601f8c018190048102820181019092528a815292508a915089908190840183828082843760009201919091525061368492505050565b612065846136cc565b61211088888080601f01602080910402602001604051908101604052809392919081815260200183838082843760009201919091525050604080516020601f8c018190048102820181019092528a815292508a915089908190840183828082843760009201919091525050604080516020601f89018190048102820181019092528781528a93508992509088908890819084018382808284376000920191909152506138e992505050565b8373ffffffffffffffffffffffffffffffffffffffff16888860405161213792919061569d565b604051908190038120907fe78ad18845af93a80fbe8718cacc631fbe1c453b092806818a044440b96ba67790600090a35050505050505050565b60006121f287878080601f01602080910402602001604051908101604052809392919081815260200183838082843760009201919091525050604080516020601f8b0181900481028201810190925289815292508991508890819084018382808284376000920191909152508892506121ed91508790506156ad565b6139fa565b979650505050505050565b6122056133ca565b600a80547fffffffffffffffffffffffff00000000000000000000000000000000000000001673ffffffffffffffffffffffffffffffffffffffff83169081179091556040517f68e3ca42e475f54d65227ed8cb60daf9cec4546691052783063876ad972db71190600090a250565b60006122e585858080601f0160208091040260200160405190810160405280939291908181526020018383808284376000920182905250604080516020810190915290815292507f75be26f315524d8937b28469fe5b4df7e59aebca1fcbbbe5669005e1491b131b915061344b9050565b600b54604080516020601f880181900481028201810190925286815273ffffffffffffffffffffffffffffffffffffffff9092169163e88ca8a1916123459190899089908190840183828082843760009201919091525061335d92505050565b85856040518463ffffffff1660e01b81526004016123659392919061570e565b6020604051808303816000875af1158015612384573d6000803e3d6000fd5b505050506040513d601f19601f820116820180604052508101906123a89190615728565b905082826040516123ba92919061569d565b60405180910390208186866040516123d392919061569d565b60405180910390207fc06cee439d340740b1e427558729eb0fcc080aa2ab6d0bcfb30b6618234f460a6124033390565b60405173ffffffffffffffffffffffffffffffffffffffff909116815260200160405180910390a4949350505050565b600061243d613b56565b61244f61244a8680615741565b613cb0565b600061245a8661409e565b600a5490915073ffffffffffffffffffffffffffffffffffffffff1663b4b715c482336040517fffffffff0000000000000000000000000000000000000000000000000000000060e085901b168152600481019290925273ffffffffffffffffffffffffffffffffffffffff166024820152604401600060405180830381600087803b1580156124e957600080fd5b505af11580156124fd573d6000803e3d6000fd5b5050600854612527925083915073ffffffffffffffffffffffffffffffffffffffff166001614137565b60095461254d90829073ffffffffffffffffffffffffffffffffffffffff166001614137565b600061259a8261256060208a018a615741565b8080601f01602080910402602001604051908101604052809392919081815260200183838082843760009201919091525061425992505050565b60008381526005602090815260409091206006018290559091506126049083906125c6908a018a615741565b8080601f0160208091040260200160405190810160405280939291908181526020018383808284376000920191909152508a92508991506144629050565b50600061261460208801886157a6565b91505080156129e057600b5460009073ffffffffffffffffffffffffffffffffffffffff1663e88ca8a1856126498b80615741565b6040518463ffffffff1660e01b81526004016126679392919061570e565b6020604051808303816000875af1158015612686573d6000803e3d6000fd5b505050506040513d601f19601f820116820180604052508101906126aa9190615728565b905060005b8281101561276157600b5473ffffffffffffffffffffffffffffffffffffffff16633368c91886846126e460208e018e6157a6565b868181106126f4576126f46154c1565b9050602002810190612706919061580e565b6040518463ffffffff1660e01b81526004016127249392919061566c565b600060405180830381600087803b15801561273e57600080fd5b505af1158015612752573d6000803e3d6000fd5b505050508060010190506126af565b50600061277160408a018a6157a6565b905011156128dc5760005b61278960408a018a6157a6565b90508110156128da5760006127a160408b018b6157a6565b838181106127b1576127b16154c1565b90506020028101906127c3919061584c565b6127cc90615880565b90506127db60408b018b6157a6565b838181106127eb576127eb6154c1565b90506020028101906127fd919061584c565b6128079080615741565b8080601f0160208091040260200160405190810160405280939291908181526020018383808284376000920191909152505050908252506128d161284e60208d018d615741565b8080601f01602080910402602001604051908101604052809392919081815260200183838082843760009201829052506040805160208082018352928152600954915190955073ffffffffffffffffffffffffffffffffffffffff90911693508992506128bd9188910161598f565b6040516020818303038152906040526138e9565b5060010161277c565b505b60006128eb60608a018a6157a6565b905011156129de5760005b61290360608a018a6157a6565b90508110156129dc576129d461291c60208c018c615741565b8080601f0160208091040260200160405190810160405280939291908181526020018383808284376000920182905250604080516020810190915290815260085490935073ffffffffffffffffffffffffffffffffffffffff16915086905061298860608f018f6157a6565b87818110612998576129986154c1565b90506020020160208101906129ad9190614a43565b6040805173ffffffffffffffffffffffffffffffffffffffff9092166020830152016128bd565b6001016128f6565b505b505b336129ee60208a018a615741565b6040516129fc92919061569d565b604051908190038120907ff53000b1113bed1ef6bf6b948fa1fe2c66a643b317a45c5d52a1537050b2dad290600090a350909695505050505050565b612a406133ca565b600880547fffffffffffffffffffffffff00000000000000000000000000000000000000001673ffffffffffffffffffffffffffffffffffffffff83169081179091556040517f07b136952c7460e1fc2d593fad96b5b379f28cc13a49857b6a825c5228c1a8d190600090a250565b6000612b28612abe8480615741565b8080601f0160208091040260200160405190810160405280939291908181526020018383808284376000920182905250604080516020810190915290815292507f5ef98f1e5b8bd5ee1978908b3f5b2128d59a65f7702f04e6aca3c95aff590be1915061344b9050565b612b6f612b358480615741565b8080601f0160208091040260200160405190810160405280939291908181526020018383808284376000920191909152506135d892505050565b612b7f61244a6020850185615741565b6000612bc8612b8e8580615741565b8080601f01602080910402602001604051908101604052809392919081815260200183838082843760009201919091525061335d92505050565b9050612bdc81612bd786615a4b565b614620565b60408051600180825281830190925291935060009190816020015b6040805160808101825260008082526020808301829052928201819052606082015282527fffffffffffffffffffffffffffffffffffffffffffffffffffffffffffffffff909201910181612bf757505060408051608080820183526000808352602080840182905283850182905260609384019190915283519182018452600a5473ffffffffffffffffffffffffffffffffffffffff168252600190820181905292810192909252810184905290915081600081518110612cbb57612cbb6154c1565b6020908102919091018101919091526040805160808101825260149181019182527f5370616365204f776e6572204e465420476174650000000000000000000000006060820152908152908101829052612dcd612d188780615741565b8080601f016020809104026020016040519081016040528093929190818152602001838380828437600092019190915250612d5a925050506040890189615741565b8080601f01602080910402602001604051908101604052809392919081815260200183838082843760009201829052506009548a82526005602090815260409283902060060154925173ffffffffffffffffffffffffffffffffffffffff90921695509193506128bd925088910161598f565b845115612fdb5760005b8551811015612fd957600b54865160009173ffffffffffffffffffffffffffffffffffffffff169063d9af4ecf9087908a9086908110612e1957612e196154c1565b6020026020010151600001516040518363ffffffff1660e01b8152600401612e4b929190918252602082015260400190565b600060405180830381865afa158015612e68573d6000803e3d6000fd5b505050506040513d6000823e601f3d9081017fffffffffffffffffffffffffffffffffffffffffffffffffffffffffffffffe0168201604052612eae9190810190615af6565b8051909150600003612eec576040517fb810dc5d00000000000000000000000000000000000000000000000000000000815260040160405180910390fd5b612fd0612ef98980615741565b8080601f016020809104026020016040519081016040528093929190818152602001838380828437600092019190915250612f3b9250505060408b018b615741565b8080601f016020809104026020016040519081016040528093929190818152602001838380828437600092019190915250508b518c92508791508110612f8357612f836154c1565b6020026020010151602001518a8681518110612fa157612fa16154c1565b6020026020010151600001518b8781518110612fbf57612fbf6154c1565b6020026020010151604001516138e9565b50600101612dd7565b505b33612fe96040880188615741565b604051612ff792919061569d565b60405190819003902061300a8880615741565b60405161301892919061569d565b604051908190038120907ff22ca4e1529bca70f91b82d259651796b8973cec866e55ad258c1f6d56ea71d390600090a450505092915050565b61305a826136cc565b6130c984848080601f0160208091040260200160405190810160405280939291908181526020018383808284376000920182905250604080516020810190915290815292507f75be26f315524d8937b28469fe5b4df7e59aebca1fcbbbe5669005e1491b131b915061344b9050565b61311261310b85858080601f01602080910402602001604051908101604052809392919081815260200183838082843760009201919091525061335d92505050565b8383614137565b8173ffffffffffffffffffffffffffffffffffffffff16848460405161313992919061569d565b6040519081900381208315158252907f558bdc63bfb8cb1188bc6f559a22d16b8e64dccf7af1d84c90bcf2b7feb1e00990602001611497565b61317a6133ca565b73ffffffffffffffffffffffffffffffffffffffff8116613222576040517f08c379a000000000000000000000000000000000000000000000000000000000815260206004820152602660248201527f4f776e61626c653a206e6577206f776e657220697320746865207a65726f206160448201527f646472657373000000000000000000000000000000000000000000000000000060648201526084015b60405180910390fd5b61322b81613563565b50565b61326882604051806020016040528060008152507f75be26f315524d8937b28469fe5b4df7e59aebca1fcbbbe5669005e1491b131b61344b565b600061328883805160209182012060009081526002909152604090205490565b9050806000036132c4576040517fbe34080700000000000000000000000000000000000000000000000000000000815260040160405180910390fd5b600081815260056020526040902060070180547fffffffffffffffffffffffffffffffffffffffffffffffffffffffffffffff00168315151790553373ffffffffffffffffffffffffffffffffffffffff16836040516133249190615b6d565b6040519081900381208415158252907fb52a77d1c8e7ecf705bef894088b2c74fb373648434090edc15688f5c80a868790602001611cc5565b805160209182012060009081526002909152604090205490565b60006003600061339b85805160209182012060009081526002909152604090205490565b815260200190815260200160002060008380519060200120815260200190815260200160002054905092915050565b60005473ffffffffffffffffffffffffffffffffffffffff1633146116fc576040517f08c379a000000000000000000000000000000000000000000000000000000000815260206004820181905260248201527f4f776e61626c653a2063616c6c6572206973206e6f7420746865206f776e65726044820152606401613219565b6135228383336040517f173c4a63000000000000000000000000000000000000000000000000000000008152600481018690527f000000000000000000000000000000000000000000000000000000000000000073ffffffffffffffffffffffffffffffffffffffff169063173c4a6390602401600060405180830381865afa1580156134dc573d6000803e3d6000fd5b505050506040513d6000823e601f3d9081017fffffffffffffffffffffffffffffffffffffffffffffffffffffffffffffffe01682016040526121ed9190810190615b7f565b1561352c57505050565b6040517f3d693ada00000000000000000000000000000000000000000000000000000000815260040160405180910390fd5b505050565b6000805473ffffffffffffffffffffffffffffffffffffffff8381167fffffffffffffffffffffffff0000000000000000000000000000000000000000831681178455604051919092169283917f8be0079c531659141344cd1fd0a4f28419497f9722a3daafe3b4186f6b6457e09190a35050565b60006135f882805160209182012060009081526002909152604090205490565b905080600003613634576040517fbe34080700000000000000000000000000000000000000000000000000000000815260040160405180910390fd5b60008181526005602052604090206007015460ff1615613680576040517fbe34080700000000000000000000000000000000000000000000000000000000815260040160405180910390fd5b5050565b60006136908383613377565b90508060000361355e576040517f6ddd9da900000000000000000000000000000000000000000000000000000000815260040160405180910390fd5b6040517f01ffc9a70000000000000000000000000000000000000000000000000000000081527f09ce3a5500000000000000000000000000000000000000000000000000000000600482015273ffffffffffffffffffffffffffffffffffffffff8216906301ffc9a790602401602060405180830381865afa158015613756573d6000803e3d6000fd5b505050506040513d601f19601f8201168201806040525081019061377a9190615c02565b151560000361322b576040517fdb24a1e200000000000000000000000000000000000000000000000000000000815260040160405180910390fd5b60006002600089896040516137cb92919061569d565b604080519182900390912082526020808301939093529081016000908120548082526005845282822073ffffffffffffffffffffffffffffffffffffffff89168352600801909352205490915060ff16613851576040517fc1ef36f300000000000000000000000000000000000000000000000000000000815260040160405180910390fd5b6040517fec6b643a00000000000000000000000000000000000000000000000000000000815273ffffffffffffffffffffffffffffffffffffffff85169063ec6b643a906138ad908b908b908b908b908a908a90600401615c1f565b600060405180830381600087803b1580156138c757600080fd5b505af11580156138db573d6000803e3d6000fd5b505050505050505050505050565b84516020808701919091206000908152600282526040808220548083526005845281832073ffffffffffffffffffffffffffffffffffffffff8816845260080190935290205460ff16613968576040517fc1ef36f300000000000000000000000000000000000000000000000000000000815260040160405180910390fd5b6040517fc800fec400000000000000000000000000000000000000000000000000000000815273ffffffffffffffffffffffffffffffffffffffff85169063c800fec4906139c0908990899088908890600401615c6d565b600060405180830381600087803b1580156139da57600080fd5b505af11580156139ee573d6000803e3d6000fd5b50505050505050505050565b600080613a1b86805160209182012060009081526002909152604090205490565b600081815260056020526040812060090154909350909150825b81811015613b4b576000838152600560205260408120600901805483908110613a6057613a606154c1565b60009182526020909120015473ffffffffffffffffffffffffffffffffffffffff16905080613a8f5750613b39565b6040517fbf77b66300000000000000000000000000000000000000000000000000000000815273ffffffffffffffffffffffffffffffffffffffff82169063bf77b66390613ae7908c908c908c908c90600401615cac565b602060405180830381865afa158015613b04573d6000803e3d6000fd5b505050506040513d601f19601f82011682018060405250810190613b289190615c02565b15613b37576001945050613b4b565b505b80613b4381615587565b915050613a35565b505050949350505050565b7f000000000000000000000000000000000000000000000000000000000000000073ffffffffffffffffffffffffffffffffffffffff16613bc3576040517f361882e300000000000000000000000000000000000000000000000000000000815260040160405180910390fd5b60085473ffffffffffffffffffffffffffffffffffffffff16613c12576040517f2ab51add00000000000000000000000000000000000000000000000000000000815260040160405180910390fd5b60095473ffffffffffffffffffffffffffffffffffffffff16613c61576040517f2ab51add00000000000000000000000000000000000000000000000000000000815260040160405180910390fd5b600a5473ffffffffffffffffffffffffffffffffffffffff166116fc576040517f345d02c000000000000000000000000000000000000000000000000000000000815260040160405180910390fd5b600082828080601f016020809104026020016040519081016040528093929190818152602001838380828437600092019190915250508251929350506002909110905080613cff575080516020105b15613d36576040517f6a96aade00000000000000000000000000000000000000000000000000000000815260040160405180910390fd5b805160005b81811015614097577f3000000000000000000000000000000000000000000000000000000000000000838281518110613d7657613d766154c1565b01602001517fff00000000000000000000000000000000000000000000000000000000000000161080613e0057507f7a00000000000000000000000000000000000000000000000000000000000000838281518110613dd757613dd76154c1565b01602001517fff0000000000000000000000000000000000000000000000000000000000000016115b80613ec457507f3900000000000000000000000000000000000000000000000000000000000000838281518110613e3957613e396154c1565b01602001517fff0000000000000000000000000000000000000000000000000000000000000016118015613ec457507f6100000000000000000000000000000000000000000000000000000000000000838281518110613e9b57613e9b6154c1565b01602001517fff0000000000000000000000000000000000000000000000000000000000000016105b8015613f295750828181518110613edd57613edd6154c1565b6020910101517fff00000000000000000000000000000000000000000000000000000000000000167f2e0000000000000000000000000000000000000000000000000000000000000014155b8015613f8e5750828181518110613f4257613f426154c1565b6020910101517fff00000000000000000000000000000000000000000000000000000000000000167f2d0000000000000000000000000000000000000000000000000000000000000014155b8015613ff35750828181518110613fa757613fa76154c1565b6020910101517fff00000000000000000000000000000000000000000000000000000000000000167f5f0000000000000000000000000000000000000000000000000000000000000014155b8015614058575082818151811061400c5761400c6154c1565b6020910101517fff00000000000000000000000000000000000000000000000000000000000000167f200000000000000000000000000000000000000000000000000000000000000014155b1561408f576040517ff8fa659700000000000000000000000000000000000000000000000000000000815260040160405180910390fd5b600101613d3b565b5050505050565b600180548101908190556040517faa424abb00000000000000000000000000000000000000000000000000000000815273__$a3850c79b56376fa7983472f601544d59e$__9063aa424abb9061410290859085903390600290600590600401615d16565b60006040518083038186803b15801561411a57600080fd5b505af415801561412e573d6000803e3d6000fd5b50505050919050565b8080156141765750600083815260056020908152604080832073ffffffffffffffffffffffffffffffffffffffff8616845260080190915290205460ff165b156141ad576040517f186abc9b00000000000000000000000000000000000000000000000000000000815260040160405180910390fd5b6040517ffd81c88f0000000000000000000000000000000000000000000000000000000081526004810184905273ffffffffffffffffffffffffffffffffffffffff8316602482015281151560448201526005606482015273__$a3850c79b56376fa7983472f601544d59e$__9063fd81c88f9060840160006040518083038186803b15801561423c57600080fd5b505af4158015614250573d6000803e3d6000fd5b50505050505050565b604080516080808201835260008083526020808401829052838501829052606093840182905284519283018552600a5473ffffffffffffffffffffffffffffffffffffffff168352600183820181905283860181905293830187905284518481528086019095529093919284929182015b6040805160808101825260008082526020808301829052928201819052606082015282527fffffffffffffffffffffffffffffffffffffffffffffffffffffffffffffffff9092019101816142ca5790505090508181600081518110614332576143326154c1565b6020908102919091018101919091526040805160808101825260148183019081527f5370616365204f776e6572204e4654204761746500000000000000000000000060608301528152918201839052600b5490517ff62df4df0000000000000000000000000000000000000000000000000000000081526004810188905260009173ffffffffffffffffffffffffffffffffffffffff169063f62df4df906024016020604051808303816000875af11580156143f2573d6000803e3d6000fd5b505050506040513d601f19601f820116820180604052508101906144169190615728565b6040805160208082018352600082526009549251939450614458938a9373ffffffffffffffffffffffffffffffffffffffff16918a916128bd9189910161598f565b9695505050505050565b600b54604080517fe88ca8a1000000000000000000000000000000000000000000000000000000008152600481018790526024810191909152600860448201527f45766572796f6e65000000000000000000000000000000000000000000000000606482015260009173ffffffffffffffffffffffffffffffffffffffff169063e88ca8a1906084016020604051808303816000875af115801561450a573d6000803e3d6000fd5b505050506040513d601f19601f8201168201806040525081019061452e9190615728565b905060005b828110156145da57600b5473ffffffffffffffffffffffffffffffffffffffff16633368c918878487878681811061456d5761456d6154c1565b905060200281019061457f919061580e565b6040518463ffffffff1660e01b815260040161459d9392919061566c565b600060405180830381600087803b1580156145b757600080fd5b505af11580156145cb573d6000803e3d6000fd5b50505050806001019050614533565b5060408051602080820183526000825260085483516001928101929092526107649388939273ffffffffffffffffffffffffffffffffffffffff909216918691016128bd565b600082815260066020526040902080546001019081905573__$a3850c79b56376fa7983472f601544d59e$__631ddb9a8b838584336006600360046040518863ffffffff1660e01b815260040161467d9796959493929190615dbd565b60006040518083038186803b15801561469557600080fd5b505af41580156146a9573d6000803e3d6000fd5b5050505092915050565b60008083601f8401126146c557600080fd5b50813567ffffffffffffffff8111156146dd57600080fd5b6020830191508360208285010111156146f557600080fd5b9250929050565b6000806000806040858703121561471257600080fd5b843567ffffffffffffffff8082111561472a57600080fd5b614736888389016146b3565b9096509450602087013591508082111561474f57600080fd5b5061475c878288016146b3565b95989497509550505050565b60005b8381101561478357818101518382015260200161476b565b50506000910152565b600081518084526147a4816020860160208601614768565b601f017fffffffffffffffffffffffffffffffffffffffffffffffffffffffffffffffe0169290920160200192915050565b60208152815160208201526000602083015160c060408401526147fc60e084018261478c565b90506040840151606084015260608401517fffffffffffffffffffffffffffffffffffffffffffffffffffffffffffffffe0848303016080850152614841828261478c565b91505073ffffffffffffffffffffffffffffffffffffffff60808501511660a084015260a0840151151560c08401528091505092915050565b6000806020838503121561488d57600080fd5b823567ffffffffffffffff8111156148a457600080fd5b6148b0858286016146b3565b90969095509350505050565b6020808252825182820181905260009190848201906040850190845b8181101561490a57835173ffffffffffffffffffffffffffffffffffffffff16835292840192918401916001016148d8565b50909695505050505050565b805182526000602082015160e0602085015261493560e085018261478c565b90506040830151604085015260608301518482036060860152614958828261478c565b915050608083015173ffffffffffffffffffffffffffffffffffffffff80821660808701528060a08601511660a0870152505060c0830151151560c08501528091505092915050565b6000602080830181845280855180835260408601915060408160051b870101925083870160005b82811015614a14577fffffffffffffffffffffffffffffffffffffffffffffffffffffffffffffffc0888603018452614a02858351614916565b945092850192908501906001016149c8565b5092979650505050505050565b73ffffffffffffffffffffffffffffffffffffffff8116811461322b57600080fd5b600060208284031215614a5557600080fd5b8135610c0181614a21565b602081526000610c016020830184614916565b60006020808301818452808551808352604092508286019150828160051b87010184880160005b83811015614b45577fffffffffffffffffffffffffffffffffffffffffffffffffffffffffffffffc08984030185528151608073ffffffffffffffffffffffffffffffffffffffff825116855288820151818a870152614afc8287018261478c565b9150508782015185820389870152614b14828261478c565b91505060608083015192508582038187015250614b31818361478c565b968901969450505090860190600101614a9a565b509098975050505050505050565b600080600060408486031215614b6857600080fd5b833567ffffffffffffffff811115614b7f57600080fd5b614b8b868287016146b3565b9094509250506020840135614b9f81614a21565b809150509250925092565b600060208284031215610ac557600080fd5b60008060008060608587031215614bd257600080fd5b843567ffffffffffffffff80821115614bea57600080fd5b614bf6888389016146b3565b9096509450602087013593506040870135915080821115614c1657600080fd5b50614c2387828801614baa565b91505092959194509250565b7f4e487b7100000000000000000000000000000000000000000000000000000000600052604160045260246000fd5b6040516060810167ffffffffffffffff81118282101715614c8157614c81614c2f565b60405290565b6040805190810167ffffffffffffffff81118282101715614c8157614c81614c2f565b6040516080810167ffffffffffffffff81118282101715614c8157614c81614c2f565b604051601f82017fffffffffffffffffffffffffffffffffffffffffffffffffffffffffffffffe016810167ffffffffffffffff81118282101715614d1457614d14614c2f565b604052919050565b600067ffffffffffffffff821115614d3657614d36614c2f565b50601f017fffffffffffffffffffffffffffffffffffffffffffffffffffffffffffffffe01660200190565b6000614d75614d7084614d1c565b614ccd565b9050828152838383011115614d8957600080fd5b828260208301376000602084830101529392505050565b600082601f830112614db157600080fd5b610c0183833560208501614d62565b600060208284031215614dd257600080fd5b813567ffffffffffffffff811115614de957600080fd5b61076484828501614da0565b6000602080835260608084018551838601528286015160408081880152828251808552608094508489019150848160051b8a0101878501945060005b82811015614edd577fffffffffffffffffffffffffffffffffffffffffffffffffffffffffffffff808b8303018452855160c0815184528a8201518b850152868201518188860152614e858286018261478c565b915050898201518482038b860152614e9d828261478c565b838b015173ffffffffffffffffffffffffffffffffffffffff16868c015260a0938401511515939095019290925250509488019492880192600101614e31565b509a9950505050505050505050565b801515811461322b57600080fd5b600080600080600060608688031215614f1257600080fd5b853567ffffffffffffffff80821115614f2a57600080fd5b614f3689838a016146b3565b90975095506020880135915080821115614f4f57600080fd5b50614f5c888289016146b3565b9094509250506040860135614f7081614eec565b809150509295509295909350565b600080600060408486031215614f9357600080fd5b833567ffffffffffffffff811115614faa57600080fd5b614fb6868287016146b3565b909790965060209590950135949350505050565b60008060008060008060008060a0898b031215614fe657600080fd5b883567ffffffffffffffff80821115614ffe57600080fd5b61500a8c838d016146b3565b909a50985060208b013591508082111561502357600080fd5b61502f8c838d016146b3565b909850965060408b0135915061504482614a21565b90945060608a0135935060808a0135908082111561506157600080fd5b5061506e8b828c016146b3565b999c989b5096995094979396929594505050565b6000806000806000806080878903121561509b57600080fd5b863567ffffffffffffffff808211156150b357600080fd5b6150bf8a838b016146b3565b909850965060208901359150808211156150d857600080fd5b6150e48a838b016146b3565b9096509450604089013591506150f982614a21565b9092506060880135908082111561510f57600080fd5b5061511c89828a01614baa565b9150509295509295509295565b6000806000806060858703121561513f57600080fd5b843567ffffffffffffffff8082111561515757600080fd5b908601906040828903121561516b57600080fd5b9094506020860135908082111561518157600080fd5b908601906080828903121561519557600080fd5b909350604086013590808211156151ab57600080fd5b818701915087601f8301126151bf57600080fd5b8135818111156151ce57600080fd5b8860208260051b85010111156151e357600080fd5b95989497505060200194505050565b600067ffffffffffffffff82111561520c5761520c614c2f565b5060051b60200190565b600080604080848603121561522a57600080fd5b833567ffffffffffffffff8082111561524257600080fd5b908501906060828803121561525657600080fd5b909350602090858201358181111561526d57600080fd5b8601601f8101881361527e57600080fd5b803561528c614d70826151f2565b81815260059190911b8201840190848101908a8311156152ab57600080fd5b8584015b83811015615366578035868111156152c75760008081fd5b85016060818e037fffffffffffffffffffffffffffffffffffffffffffffffffffffffffffffffe00112156152fc5760008081fd5b615304614c5e565b8882013581528982013561531781614a21565b818a015260608201358881111561532e5760008081fd5b8083019250508d603f8301126153445760008081fd5b6153548e8a8401358c8501614d62565b818b01528452509186019186016152af565b50809750505050505050509250929050565b6000806000806060858703121561538e57600080fd5b843567ffffffffffffffff8111156153a557600080fd5b6153b1878288016146b3565b90955093505060208501356153c581614a21565b915060408501356153d581614eec565b939692955090935050565b600080604083850312156153f357600080fd5b823567ffffffffffffffff81111561540a57600080fd5b61541685828601614da0565b925050602083013561542781614eec565b809150509250929050565b600181811c9082168061544657607f821691505b602082108103610ac5577f4e487b7100000000000000000000000000000000000000000000000000000000600052602260045260246000fd5b7f4e487b7100000000000000000000000000000000000000000000000000000000600052601160045260246000fd5b8082018082111561082b5761082b61547f565b7f4e487b7100000000000000000000000000000000000000000000000000000000600052603260045260246000fd5b60006020828403121561550257600080fd5b8151610c0181614a21565b600082601f83011261551e57600080fd5b815161552c614d7082614d1c565b81815284602083860101111561554157600080fd5b610764826020830160208701614768565b60006020828403121561556457600080fd5b815167ffffffffffffffff81111561557b57600080fd5b6107648482850161550d565b60007fffffffffffffffffffffffffffffffffffffffffffffffffffffffffffffffff82036155b8576155b861547f565b5060010190565b60008083357fffffffffffffffffffffffffffffffffffffffffffffffffffffffffffffffe18436030181126155f457600080fd5b830160208101925035905067ffffffffffffffff81111561561457600080fd5b8036038213156146f557600080fd5b8183528181602085013750600060208284010152600060207fffffffffffffffffffffffffffffffffffffffffffffffffffffffffffffffe0601f840116840101905092915050565b83815282602082015260606040820152600061568883846155bf565b602060608501526121f2608085018284615623565b8183823760009101908152919050565b6000602082360312156156bf57600080fd5b6040516020810167ffffffffffffffff82821081831117156156e3576156e3614c2f565b8160405284359150808211156156f857600080fd5b5061570536828601614da0565b82525092915050565b838152604060208201526000611283604083018486615623565b60006020828403121561573a57600080fd5b5051919050565b60008083357fffffffffffffffffffffffffffffffffffffffffffffffffffffffffffffffe184360301811261577657600080fd5b83018035915067ffffffffffffffff82111561579157600080fd5b6020019150368190038213156146f557600080fd5b60008083357fffffffffffffffffffffffffffffffffffffffffffffffffffffffffffffffe18436030181126157db57600080fd5b83018035915067ffffffffffffffff8211156157f657600080fd5b6020019150600581901b36038213156146f557600080fd5b600082357fffffffffffffffffffffffffffffffffffffffffffffffffffffffffffffffe183360301811261584257600080fd5b9190910192915050565b600082357fffffffffffffffffffffffffffffffffffffffffffffffffffffffffffffffc183360301811261584257600080fd5b6000604080833603121561589357600080fd5b61589b614c87565b833567ffffffffffffffff808211156158b357600080fd5b6158bf36838801614da0565b83526020915081860135818111156158d657600080fd5b8601905036601f8201126158e957600080fd5b80356158f7614d70826151f2565b81815260079190911b8201830190838101903683111561591657600080fd5b928401925b8284101561597d57608084360312156159345760008081fd5b61593c614caa565b843561594781614a21565b815284860135868201528785013561595e81614eec565b818901526060858101359082015282526080909301929084019061591b565b93850193909352509195945050505050565b6000602080835260608451604080848701526159ad8387018361478c565b878501518782037fffffffffffffffffffffffffffffffffffffffffffffffffffffffffffffffe00183890152805180835290860193506000918601905b80831015615a3e578451805173ffffffffffffffffffffffffffffffffffffffff1683528781015188840152848101511515858401528601518683015293860193600192909201916080909101906159eb565b5098975050505050505050565b600060608236031215615a5d57600080fd5b6040516060810167ffffffffffffffff8282108183111715615a8157615a81614c2f565b816040528435915080821115615a9657600080fd5b615aa236838701614da0565b83526020850135915080821115615ab857600080fd5b615ac436838701614da0565b60208401526040850135915080821115615add57600080fd5b50615aea36828601614da0565b60408301525092915050565b600060208284031215615b0857600080fd5b815167ffffffffffffffff80821115615b2057600080fd5b9083019060408286031215615b3457600080fd5b615b3c614c87565b82518152602083015182811115615b5257600080fd5b615b5e8782860161550d565b60208301525095945050505050565b60008251615842818460208701614768565b600060208284031215615b9157600080fd5b815167ffffffffffffffff80821115615ba957600080fd5b9083019060208286031215615bbd57600080fd5b604051602081018181108382111715615bd857615bd8614c2f565b604052825182811115615bea57600080fd5b615bf68782860161550d565b82525095945050505050565b600060208284031215615c1457600080fd5b8151610c0181614eec565b608081526000615c3360808301888a615623565b8281036020840152615c46818789615623565b90508460408401528281036060840152615c60818561478c565b9998505050505050505050565b608081526000615c80608083018761478c565b8281036020840152615c92818761478c565b905084604084015282810360608401526121f2818561478c565b608081526000615cbf608083018761478c565b8281036020840152615cd1818761478c565b905073ffffffffffffffffffffffffffffffffffffffff851660408401528281036060840152835160208252615d0a602083018261478c565b98975050505050505050565b60a081526000615d2687886155bf565b604060a0850152615d3b60e085018284615623565b915050615d4b60208901896155bf565b7fffffffffffffffffffffffffffffffffffffffffffffffffffffffffffffff608584030160c0860152615d80838284615623565b935050505085602083015273ffffffffffffffffffffffffffffffffffffffff851660408301528360608301528260808301529695505050505050565b60e0815260008851606060e0840152615dda61014084018261478c565b905060208a01517fffffffffffffffffffffffffffffffffffffffffffffffffffffffffffffff208085840301610100860152615e17838361478c565b925060408c01519150808584030161012086015250615e36828261478c565b602085019a909a52505050604081019590955273ffffffffffffffffffffffffffffffffffffffff939093166060850152608084019190915260a083015260c09091015291905056fea26469706673582212203ee6965316841fcfb946b313dfaa6fba0d5e950b1c85f9f57e14adeb1d3110f864736f6c63430008110033",
    "linkReferences": {
      "contracts/zion-governance/src/spaces/libraries/CreationLogic.sol": {
        "CreationLogic": [
          {
            "start": 16987,
            "length": 20
          },
          {
            "start": 17298,
            "length": 20
          },
          {
            "start": 18372,
            "length": 20
          }
        ]
      }
    }
  },
  "methodIdentifiers": {
    "addPermissionToRole(string,uint256,(string))": "7d9a0230",
    "addRoleToEntitlementModule(string,string,address,uint256,bytes)": "bbd7358a",
    "createChannel((string,string,string),(uint256,address,bytes)[])": "e69689af",
    "createRole(string,string)": "d2192dbf",
    "createSpace((string,string),(string,(string)[],(string,(address,uint256,bool,uint256)[])[],address[]),(string)[])": "d9d94cb7",
    "getChannelIdByNetworkId(string,string)": "3e66eae3",
    "getChannelInfoByChannelId(string,string)": "0db37ba3",
    "getChannelsBySpaceId(string)": "50c24eef",
    "getEntitlementModulesBySpaceId(string)": "141b6498",
    "getEntitlementsInfoBySpaceId(string)": "3519167c",
    "getSpaceIdByNetworkId(string)": "9ddd0d6b",
    "getSpaceInfoBySpaceId(string)": "2bb59212",
    "getSpaceOwnerBySpaceId(string)": "2a4bdf25",
    "getSpaces()": "15478ca9",
    "isEntitled(string,string,address,(string))": "bf77b663",
    "isEntitlementModuleWhitelisted(string,address)": "4196d1ff",
    "owner()": "8da5cb5b",
    "removeEntitlement(string,string,address,uint256,bytes)": "b53b8167",
    "removePermissionFromRole(string,uint256,(string))": "4832a4ec",
    "removeRole(string,uint256)": "8b0e905a",
    "renounceOwnership()": "715018a6",
    "setChannelAccess(string,string,bool)": "72a29321",
    "setDefaultTokenEntitlementModule(address)": "1a039620",
    "setDefaultUserEntitlementModule(address)": "e1b7a9e5",
    "setSpaceAccess(string,bool)": "f86caf83",
    "setSpaceNFT(address)": "ccde2de3",
    "transferOwnership(address)": "f2fde38b",
    "whitelistEntitlementModule(string,address,bool)": "e798ff3f"
  },
  "id": 21
}