{
  "abi": [
    {
      "inputs": [
        {
          "internalType": "address",
          "name": "_permissionRegistry",
          "type": "address"
        },
        {
          "internalType": "address",
          "name": "_roleManager",
          "type": "address"
        }
      ],
      "stateMutability": "nonpayable",
      "type": "constructor"
    },
    {
      "inputs": [],
      "name": "AddRoleFailed",
      "type": "error"
    },
    {
      "inputs": [],
      "name": "ChannelDoesNotExist",
      "type": "error"
    },
    {
      "inputs": [],
      "name": "DefaultEntitlementModuleNotSet",
      "type": "error"
    },
    {
      "inputs": [],
      "name": "DefaultPermissionsManagerNotSet",
      "type": "error"
    },
    {
      "inputs": [],
      "name": "EntitlementAlreadyWhitelisted",
      "type": "error"
    },
    {
      "inputs": [],
      "name": "EntitlementModuleNotSupported",
      "type": "error"
    },
    {
      "inputs": [],
      "name": "EntitlementNotWhitelisted",
      "type": "error"
    },
    {
      "inputs": [],
      "name": "InvalidParameters",
      "type": "error"
    },
    {
      "inputs": [],
      "name": "NameContainsInvalidCharacters",
      "type": "error"
    },
    {
      "inputs": [],
      "name": "NameLengthInvalid",
      "type": "error"
    },
    {
      "inputs": [],
      "name": "NotAllowed",
      "type": "error"
    },
    {
      "inputs": [],
      "name": "SpaceDoesNotExist",
      "type": "error"
    },
    {
      "inputs": [],
      "name": "SpaceNFTNotSet",
      "type": "error"
    },
    {
      "anonymous": false,
      "inputs": [
        {
          "indexed": true,
          "internalType": "address",
          "name": "previousOwner",
          "type": "address"
        },
        {
          "indexed": true,
          "internalType": "address",
          "name": "newOwner",
          "type": "address"
        }
      ],
      "name": "OwnershipTransferred",
      "type": "event"
    },
    {
      "inputs": [
        {
          "internalType": "string",
          "name": "spaceId",
          "type": "string"
        },
        {
          "internalType": "uint256",
          "name": "roleId",
          "type": "uint256"
        },
        {
          "components": [
            {
              "internalType": "string",
              "name": "name",
              "type": "string"
            }
          ],
          "internalType": "struct DataTypes.Permission",
          "name": "permission",
          "type": "tuple"
        }
      ],
      "name": "addPermissionToRole",
      "outputs": [],
      "stateMutability": "nonpayable",
      "type": "function"
    },
    {
      "inputs": [
        {
          "internalType": "string",
          "name": "spaceId",
          "type": "string"
        },
        {
          "internalType": "string",
          "name": "channelId",
          "type": "string"
        },
        {
          "internalType": "uint256[]",
          "name": "roleId",
          "type": "uint256[]"
        }
      ],
      "name": "addRoleIdsToChannel",
      "outputs": [],
      "stateMutability": "nonpayable",
      "type": "function"
    },
    {
      "inputs": [
        {
          "internalType": "string",
          "name": "spaceNetworkId",
          "type": "string"
        },
        {
          "internalType": "address",
          "name": "entitlementModuleAddress",
          "type": "address"
        },
        {
          "internalType": "uint256",
          "name": "roleId",
          "type": "uint256"
        },
        {
          "internalType": "bytes",
          "name": "entitlementData",
          "type": "bytes"
        }
      ],
      "name": "addRoleToEntitlementModule",
      "outputs": [],
      "stateMutability": "nonpayable",
      "type": "function"
    },
    {
      "inputs": [
        {
          "components": [
            {
              "internalType": "string",
              "name": "spaceNetworkId",
              "type": "string"
            },
            {
              "internalType": "string",
              "name": "channelName",
              "type": "string"
            },
            {
              "internalType": "string",
              "name": "channelNetworkId",
              "type": "string"
            },
            {
              "internalType": "uint256[]",
              "name": "roleIds",
              "type": "uint256[]"
            }
          ],
          "internalType": "struct DataTypes.CreateChannelData",
          "name": "data",
          "type": "tuple"
        }
      ],
      "name": "createChannel",
      "outputs": [
        {
          "internalType": "uint256",
          "name": "channelId",
          "type": "uint256"
        }
      ],
      "stateMutability": "nonpayable",
      "type": "function"
    },
    {
      "inputs": [
        {
          "internalType": "string",
          "name": "spaceNetworkId",
          "type": "string"
        },
        {
          "internalType": "string",
          "name": "name",
          "type": "string"
        }
      ],
      "name": "createRole",
      "outputs": [
        {
          "internalType": "uint256",
          "name": "roleId",
          "type": "uint256"
        }
      ],
      "stateMutability": "nonpayable",
      "type": "function"
    },
    {
      "inputs": [
        {
          "components": [
            {
              "internalType": "string",
              "name": "spaceName",
              "type": "string"
            },
            {
              "internalType": "string",
              "name": "spaceNetworkId",
              "type": "string"
            },
            {
              "internalType": "string",
              "name": "spaceMetadata",
              "type": "string"
            }
          ],
          "internalType": "struct DataTypes.CreateSpaceData",
          "name": "info",
          "type": "tuple"
        },
        {
          "components": [
            {
              "internalType": "string",
              "name": "roleName",
              "type": "string"
            },
            {
              "components": [
                {
                  "internalType": "string",
                  "name": "name",
                  "type": "string"
                }
              ],
              "internalType": "struct DataTypes.Permission[]",
              "name": "permissions",
              "type": "tuple[]"
            },
            {
              "components": [
                {
                  "components": [
                    {
                      "internalType": "address",
                      "name": "contractAddress",
                      "type": "address"
                    },
                    {
                      "internalType": "uint256",
                      "name": "quantity",
                      "type": "uint256"
                    },
                    {
                      "internalType": "bool",
                      "name": "isSingleToken",
                      "type": "bool"
                    },
                    {
                      "internalType": "uint256",
                      "name": "tokenId",
                      "type": "uint256"
                    }
                  ],
                  "internalType": "struct DataTypes.ExternalToken[]",
                  "name": "tokens",
                  "type": "tuple[]"
                }
              ],
              "internalType": "struct DataTypes.ExternalTokenEntitlement[]",
              "name": "externalTokenEntitlements",
              "type": "tuple[]"
            },
            {
              "internalType": "address[]",
              "name": "users",
              "type": "address[]"
            }
          ],
          "internalType": "struct DataTypes.CreateSpaceEntitlementData",
          "name": "entitlementData",
          "type": "tuple"
        },
        {
          "components": [
            {
              "internalType": "string",
              "name": "name",
              "type": "string"
            }
          ],
          "internalType": "struct DataTypes.Permission[]",
          "name": "everyonePermissions",
          "type": "tuple[]"
        }
      ],
      "name": "createSpace",
      "outputs": [
        {
          "internalType": "uint256",
          "name": "",
          "type": "uint256"
        }
      ],
      "stateMutability": "nonpayable",
      "type": "function"
    },
    {
      "inputs": [
        {
          "internalType": "string",
          "name": "spaceId",
          "type": "string"
        },
        {
          "internalType": "string",
          "name": "channelId",
          "type": "string"
        }
      ],
      "name": "getChannelIdByNetworkId",
      "outputs": [
        {
          "internalType": "uint256",
          "name": "",
          "type": "uint256"
        }
      ],
      "stateMutability": "view",
      "type": "function"
    },
    {
      "inputs": [
        {
          "internalType": "string",
          "name": "spaceId",
          "type": "string"
        },
        {
          "internalType": "string",
          "name": "channelId",
          "type": "string"
        }
      ],
      "name": "getChannelInfoByChannelId",
      "outputs": [
        {
          "components": [
            {
              "internalType": "uint256",
              "name": "channelId",
              "type": "uint256"
            },
            {
              "internalType": "string",
              "name": "networkId",
              "type": "string"
            },
            {
              "internalType": "uint256",
              "name": "createdAt",
              "type": "uint256"
            },
            {
              "internalType": "string",
              "name": "name",
              "type": "string"
            },
            {
              "internalType": "address",
              "name": "creator",
              "type": "address"
            },
            {
              "internalType": "bool",
              "name": "disabled",
              "type": "bool"
            }
          ],
          "internalType": "struct DataTypes.ChannelInfo",
          "name": "",
          "type": "tuple"
        }
      ],
      "stateMutability": "view",
      "type": "function"
    },
    {
      "inputs": [
        {
          "internalType": "string",
          "name": "spaceId",
          "type": "string"
        }
      ],
      "name": "getChannelsBySpaceId",
      "outputs": [
        {
          "components": [
            {
              "internalType": "uint256",
              "name": "idCounter",
              "type": "uint256"
            },
            {
              "components": [
                {
                  "internalType": "uint256",
                  "name": "channelId",
                  "type": "uint256"
                },
                {
                  "internalType": "uint256",
                  "name": "createdAt",
                  "type": "uint256"
                },
                {
                  "internalType": "string",
                  "name": "networkId",
                  "type": "string"
                },
                {
                  "internalType": "string",
                  "name": "name",
                  "type": "string"
                },
                {
                  "internalType": "address",
                  "name": "creator",
                  "type": "address"
                },
                {
                  "internalType": "bool",
                  "name": "disabled",
                  "type": "bool"
                }
              ],
              "internalType": "struct DataTypes.Channel[]",
              "name": "channels",
              "type": "tuple[]"
            }
          ],
          "internalType": "struct DataTypes.Channels",
          "name": "",
          "type": "tuple"
        }
      ],
      "stateMutability": "view",
      "type": "function"
    },
    {
      "inputs": [
        {
          "internalType": "string",
          "name": "spaceId",
          "type": "string"
        }
      ],
      "name": "getEntitlementModulesBySpaceId",
      "outputs": [
        {
          "internalType": "address[]",
          "name": "",
          "type": "address[]"
        }
      ],
      "stateMutability": "view",
      "type": "function"
    },
    {
      "inputs": [
        {
          "internalType": "string",
          "name": "spaceId",
          "type": "string"
        }
      ],
      "name": "getEntitlementsInfoBySpaceId",
      "outputs": [
        {
          "components": [
            {
              "internalType": "address",
              "name": "addr",
              "type": "address"
            },
            {
              "internalType": "string",
              "name": "name",
              "type": "string"
            },
            {
              "internalType": "string",
              "name": "moduleType",
              "type": "string"
            },
            {
              "internalType": "string",
              "name": "description",
              "type": "string"
            }
          ],
          "internalType": "struct DataTypes.EntitlementModuleInfo[]",
          "name": "",
          "type": "tuple[]"
        }
      ],
      "stateMutability": "view",
      "type": "function"
    },
    {
      "inputs": [
        {
          "internalType": "string",
          "name": "networkId",
          "type": "string"
        }
      ],
      "name": "getSpaceIdByNetworkId",
      "outputs": [
        {
          "internalType": "uint256",
          "name": "",
          "type": "uint256"
        }
      ],
      "stateMutability": "view",
      "type": "function"
    },
    {
      "inputs": [
        {
          "internalType": "string",
          "name": "spaceId",
          "type": "string"
        }
      ],
      "name": "getSpaceInfoBySpaceId",
      "outputs": [
        {
          "components": [
            {
              "internalType": "uint256",
              "name": "spaceId",
              "type": "uint256"
            },
            {
              "internalType": "string",
              "name": "networkId",
              "type": "string"
            },
            {
              "internalType": "uint256",
              "name": "createdAt",
              "type": "uint256"
            },
            {
              "internalType": "string",
              "name": "name",
              "type": "string"
            },
            {
              "internalType": "address",
              "name": "creator",
              "type": "address"
            },
            {
              "internalType": "address",
              "name": "owner",
              "type": "address"
            },
            {
              "internalType": "bool",
              "name": "disabled",
              "type": "bool"
            }
          ],
          "internalType": "struct DataTypes.SpaceInfo",
          "name": "",
          "type": "tuple"
        }
      ],
      "stateMutability": "view",
      "type": "function"
    },
    {
      "inputs": [
        {
          "internalType": "string",
          "name": "spaceId",
          "type": "string"
        }
      ],
      "name": "getSpaceOwnerBySpaceId",
      "outputs": [
        {
          "internalType": "address",
          "name": "",
          "type": "address"
        }
      ],
      "stateMutability": "view",
      "type": "function"
    },
    {
      "inputs": [],
      "name": "getSpaces",
      "outputs": [
        {
          "components": [
            {
              "internalType": "uint256",
              "name": "spaceId",
              "type": "uint256"
            },
            {
              "internalType": "string",
              "name": "networkId",
              "type": "string"
            },
            {
              "internalType": "uint256",
              "name": "createdAt",
              "type": "uint256"
            },
            {
              "internalType": "string",
              "name": "name",
              "type": "string"
            },
            {
              "internalType": "address",
              "name": "creator",
              "type": "address"
            },
            {
              "internalType": "address",
              "name": "owner",
              "type": "address"
            },
            {
              "internalType": "bool",
              "name": "disabled",
              "type": "bool"
            }
          ],
          "internalType": "struct DataTypes.SpaceInfo[]",
          "name": "",
          "type": "tuple[]"
        }
      ],
      "stateMutability": "view",
      "type": "function"
    },
    {
      "inputs": [
        {
          "internalType": "string",
          "name": "spaceId",
          "type": "string"
        },
        {
          "internalType": "string",
          "name": "channelId",
          "type": "string"
        },
        {
          "internalType": "address",
          "name": "user",
          "type": "address"
        },
        {
          "components": [
            {
              "internalType": "string",
              "name": "name",
              "type": "string"
            }
          ],
          "internalType": "struct DataTypes.Permission",
          "name": "permission",
          "type": "tuple"
        }
      ],
      "name": "isEntitled",
      "outputs": [
        {
          "internalType": "bool",
          "name": "",
          "type": "bool"
        }
      ],
      "stateMutability": "view",
      "type": "function"
    },
    {
      "inputs": [
        {
          "internalType": "string",
          "name": "spaceId",
          "type": "string"
        },
        {
          "internalType": "address",
          "name": "entitlementModuleAddress",
          "type": "address"
        }
      ],
      "name": "isEntitlementModuleWhitelisted",
      "outputs": [
        {
          "internalType": "bool",
          "name": "",
          "type": "bool"
        }
      ],
      "stateMutability": "view",
      "type": "function"
    },
    {
      "inputs": [],
      "name": "owner",
      "outputs": [
        {
          "internalType": "address",
          "name": "",
          "type": "address"
        }
      ],
      "stateMutability": "view",
      "type": "function"
    },
    {
      "inputs": [
        {
          "internalType": "string",
          "name": "spaceNetworkId",
          "type": "string"
        },
        {
          "internalType": "address",
          "name": "entitlementModuleAddress",
          "type": "address"
        },
        {
          "internalType": "uint256",
          "name": "roleId",
          "type": "uint256"
        },
        {
          "internalType": "bytes",
          "name": "data",
          "type": "bytes"
        }
      ],
      "name": "removeEntitlement",
      "outputs": [],
      "stateMutability": "nonpayable",
      "type": "function"
    },
    {
      "inputs": [
        {
          "internalType": "string",
          "name": "spaceNetworkId",
          "type": "string"
        },
        {
          "internalType": "uint256",
          "name": "roleId",
          "type": "uint256"
        },
        {
          "components": [
            {
              "internalType": "string",
              "name": "name",
              "type": "string"
            }
          ],
          "internalType": "struct DataTypes.Permission",
          "name": "permission",
          "type": "tuple"
        }
      ],
      "name": "removePermissionFromRole",
      "outputs": [],
      "stateMutability": "nonpayable",
      "type": "function"
    },
    {
      "inputs": [
        {
          "internalType": "string",
          "name": "spaceNetworkId",
          "type": "string"
        },
        {
          "internalType": "uint256",
          "name": "roleId",
          "type": "uint256"
        }
      ],
      "name": "removeRole",
      "outputs": [],
      "stateMutability": "nonpayable",
      "type": "function"
    },
    {
      "inputs": [
        {
          "internalType": "string",
          "name": "spaceId",
          "type": "string"
        },
        {
          "internalType": "string",
          "name": "channelId",
          "type": "string"
        },
        {
          "internalType": "uint256[]",
          "name": "roleId",
          "type": "uint256[]"
        }
      ],
      "name": "removeRoleIdsFromChannel",
      "outputs": [],
      "stateMutability": "nonpayable",
      "type": "function"
    },
    {
      "inputs": [],
      "name": "renounceOwnership",
      "outputs": [],
      "stateMutability": "nonpayable",
      "type": "function"
    },
    {
      "inputs": [
        {
          "internalType": "string",
          "name": "spaceNetworkId",
          "type": "string"
        },
        {
          "internalType": "string",
          "name": "channelNetworkId",
          "type": "string"
        },
        {
          "internalType": "bool",
          "name": "disabled",
          "type": "bool"
        }
      ],
      "name": "setChannelAccess",
      "outputs": [],
      "stateMutability": "nonpayable",
      "type": "function"
    },
    {
      "inputs": [
        {
          "internalType": "address",
          "name": "entitlementModule",
          "type": "address"
        }
      ],
      "name": "setDefaultTokenEntitlementModule",
      "outputs": [],
      "stateMutability": "nonpayable",
      "type": "function"
    },
    {
      "inputs": [
        {
          "internalType": "address",
          "name": "entitlementModule",
          "type": "address"
        }
      ],
      "name": "setDefaultUserEntitlementModule",
      "outputs": [],
      "stateMutability": "nonpayable",
      "type": "function"
    },
    {
      "inputs": [
        {
          "internalType": "string",
          "name": "spaceNetworkId",
          "type": "string"
        },
        {
          "internalType": "bool",
          "name": "disabled",
          "type": "bool"
        }
      ],
      "name": "setSpaceAccess",
      "outputs": [],
      "stateMutability": "nonpayable",
      "type": "function"
    },
    {
      "inputs": [
        {
          "internalType": "address",
          "name": "spaceNFTAddress",
          "type": "address"
        }
      ],
      "name": "setSpaceNFT",
      "outputs": [],
      "stateMutability": "nonpayable",
      "type": "function"
    },
    {
      "inputs": [
        {
          "internalType": "address",
          "name": "newOwner",
          "type": "address"
        }
      ],
      "name": "transferOwnership",
      "outputs": [],
      "stateMutability": "nonpayable",
      "type": "function"
    },
    {
      "inputs": [
        {
          "internalType": "string",
          "name": "spaceNetworkId",
          "type": "string"
        },
        {
          "internalType": "address",
          "name": "entitlementAddress",
          "type": "address"
        },
        {
          "internalType": "bool",
          "name": "whitelist",
          "type": "bool"
        }
      ],
      "name": "whitelistEntitlementModule",
      "outputs": [],
      "stateMutability": "nonpayable",
      "type": "function"
    }
  ],
  "bytecode": {
    "object": "0x60c06040523480156200001157600080fd5b506040516200522c3803806200522c833981016040819052620000349162000129565b6200003f33620000bc565b6001600160a01b0382166200006757604051630e52390960e41b815260040160405180910390fd5b6001600160a01b0381166200008f57604051630e52390960e41b815260040160405180910390fd5b6001600160a01b0391821660a052166080819052600b80546001600160a01b031916909117905562000161565b600080546001600160a01b038381166001600160a01b0319831681178455604051919092169283917f8be0079c531659141344cd1fd0a4f28419497f9722a3daafe3b4186f6b6457e09190a35050565b80516001600160a01b03811681146200012457600080fd5b919050565b600080604083850312156200013d57600080fd5b62000148836200010c565b915062000158602084016200010c565b90509250929050565b60805160a0516150a16200018b60003960008181612e4c01526136310152600050506150a16000f3fe608060405234801561001057600080fd5b50600436106101da5760003560e01c80637d9a023011610104578063ccde2de3116100a2578063e798ff3f11610071578063e798ff3f14610444578063f1b287d814610457578063f2fde38b1461046a578063f86caf831461047d57600080fd5b8063ccde2de3146103f8578063d2192dbf1461040b578063d6b1b6331461041e578063e1b7a9e51461043157600080fd5b80638da5cb5b116100de5780638da5cb5b146103ae5780639ddd0d6b146103bf578063bf77b663146103d2578063c79ff589146103e557600080fd5b80637d9a02301461037557806381fb7db2146103885780638b0e905a1461039b57600080fd5b80633519167c1161017c57806350c24eef1161014b57806350c24eef14610327578063715018a61461034757806372a293211461034f5780637a40ab901461036257600080fd5b80633519167c146102be5780633e66eae3146102de5780634196d1ff146102f15780634832a4ec1461031457600080fd5b80631a039620116101b85780631a0396201461023d5780631f2bd9e5146102525780632a4bdf25146102735780632bb592121461029e57600080fd5b80630db37ba3146101df578063141b64981461020857806315478ca914610228575b600080fd5b6101f26101ed366004613cea565b610490565b6040516101ff9190613da5565b60405180910390f35b61021b610216366004613e1d565b610761565b6040516101ff9190613e5e565b610230610819565b6040516101ff9190613f28565b61025061024b366004613f9f565b610a3f565b005b610265610260366004614012565b610a91565b6040519081526020016101ff565b610286610281366004613e1d565b610e73565b6040516001600160a01b0390911681526020016101ff565b6102b16102ac366004613e1d565b610f2c565b6040516101ff9190614098565b6102d16102cc366004613e1d565b611142565b6040516101ff91906140ab565b6102656102ec366004613cea565b611416565b6103046102ff366004614162565b611494565b60405190151581526020016101ff565b6102506103223660046141ca565b61150f565b61033a610335366004614349565b611674565b6040516101ff9190614385565b61025061189b565b61025061035d36600461445f565b6118af565b6102506103703660046144e2565b611b45565b6102506103833660046141ca565b611ccd565b6102506103963660046144e2565b611d7d565b6102506103a936600461457b565b611efa565b6000546001600160a01b0316610286565b6102656103cd366004613e1d565b6120d9565b6103046103e03660046145c6565b61211a565b6102506103f336600461466c565b6121f6565b610250610406366004613f9f565b61237d565b610265610419366004613cea565b6123cf565b61025061042c36600461466c565b612562565b61025061043f366004613f9f565b6126e9565b6102506104523660046146e7565b61273b565b61026561046536600461474e565b612884565b610250610478366004613f9f565b612c2c565b61025061048b366004614782565b612caa565b6104d46040518060c001604052806000815260200160608152602001600081526020016060815260200160006001600160a01b031681526020016000151581525090565b600061051586868080601f016020809104026020016040519081016040528093929190818152602001838380828437600092019190915250612d8392505050565b9050600061058c87878080601f01602080910402602001604051908101604052809392919081815260200183838082843760009201919091525050604080516020601f8b018190048102820181019092528981529250899150889081908401838280828437600092019190915250612d9d92505050565b6040805160c081018252600085815260046020908152838220858352808252938220805484529185905292835260020180549394509092918301916105d0906147d3565b80601f01602080910402602001604051908101604052809291908181526020018280546105fc906147d3565b80156106495780601f1061061e57610100808354040283529160200191610649565b820191906000526020600020905b81548152906001019060200180831161062c57829003601f168201915b505050918352505060008481526004602090815260408083208684528083528184206001810154848701529387905290915260039091018054919092019190610691906147d3565b80601f01602080910402602001604051908101604052809291908181526020018280546106bd906147d3565b801561070a5780601f106106df5761010080835404028352916020019161070a565b820191906000526020600020905b8154815290600101906020018083116106ed57829003601f168201915b50505091835250506000938452600460208181526040808720868852808352818820909301546001600160a01b038116838601529590965252600160a01b90920460ff161515929091019190915295945050505050565b6060600560006107a685858080601f016020809104026020016040519081016040528093929190818152602001838380828437600092019190915250612d8392505050565b815260200190815260200160002060090180548060200260200160405190810160405280929190818152602001828054801561080b57602002820191906000526020600020905b81546001600160a01b031681526001909101906020018083116107ed575b505050505090505b92915050565b606060006001546001600160401b038111156108375761083761423c565b60405190808252806020026020018201604052801561087057816020015b61085d613c51565b8152602001906001900390816108555790505b50905060005b600154811015610a3957600060058161089084600161481d565b815260200190815260200160002090506040518060e00160405280826000015481526020018260020180546108c4906147d3565b80601f01602080910402602001604051908101604052809291908181526020018280546108f0906147d3565b801561093d5780601f106109125761010080835404028352916020019161093d565b820191906000526020600020905b81548152906001019060200180831161092057829003601f168201915b5050505050815260200182600101548152602001826003018054610960906147d3565b80601f016020809104026020016040519081016040528092919081815260200182805461098c906147d3565b80156109d95780601f106109ae576101008083540402835291602001916109d9565b820191906000526020600020905b8154815290600101906020018083116109bc57829003601f168201915b505050918352505060048301546001600160a01b0390811660208301526005840154166040820152600783015460ff1615156060909101528351849084908110610a2557610a25614830565b602090810291909101015250600101610876565b50919050565b610a47612df0565b600980546001600160a01b0319166001600160a01b0383169081179091556040517f07b136952c7460e1fc2d593fad96b5b379f28cc13a49857b6a825c5228c1a8d190600090a250565b6000610a9b612e4a565b610aad610aa88680614846565b612f0b565b6000610ab886613127565b600a549091506001600160a01b0316631e3197908233610adb60408b018b614846565b6040518563ffffffff1660e01b8152600401610afa94939291906148b5565b600060405180830381600087803b158015610b1457600080fd5b505af1158015610b28573d6000803e3d6000fd5b5050600854610b4592508391506001600160a01b031660016131a7565b600954610b5e9082906001600160a01b031660016131a7565b6000610b698261327d565b60008381526005602052604090206006018190559050610b8a8286866133de565b506000610b9a60208801886148ea565b9150508015610e1b57600b546000906001600160a01b031663e88ca8a185610bc28b80614846565b6040518463ffffffff1660e01b8152600401610be093929190614933565b6020604051808303816000875af1158015610bff573d6000803e3d6000fd5b505050506040513d601f19601f82011682018060405250810190610c23919061494d565b905060005b82811015610ccd57600b546001600160a01b0316633368c9188684610c5060208e018e6148ea565b86818110610c6057610c60614830565b9050602002810190610c729190614966565b6040518463ffffffff1660e01b8152600401610c90939291906149cb565b600060405180830381600087803b158015610caa57600080fd5b505af1158015610cbe573d6000803e3d6000fd5b50505050806001019050610c28565b506000610cdd60408a018a6148ea565b90501115610d805760005b610cf560408a018a6148ea565b9050811015610d7e576000610d0d60408b018b6148ea565b83818110610d1d57610d1d614830565b9050602002810190610d2f9190614966565b610d3890614a2a565b600954604051919250610d759188916001600160a01b0316908690610d61908690602001614b0f565b604051602081830303815290604052613537565b50600101610ce8565b505b6000610d8f60608a018a6148ea565b90501115610e195760005b610da760608a018a6148ea565b9050811015610e1757600854610e0f9086906001600160a01b031684610dd060608e018e6148ea565b86818110610de057610de0614830565b9050602002016020810190610df59190613f9f565b604080516001600160a01b03909216602083015201610d61565b600101610d9a565b505b505b33610e2960208a018a614846565b604051610e37929190614b7b565b604051908190038120907ff53000b1113bed1ef6bf6b948fa1fe2c66a643b317a45c5d52a1537050b2dad290600090a350909695505050505050565b600a54604080516020601f85018190048102820181019092528381526000926001600160a01b03169163cc3f8dc891610ec6918790879081908401838280828437600092019190915250612d8392505050565b6040518263ffffffff1660e01b8152600401610ee491815260200190565b602060405180830381865afa158015610f01573d6000803e3d6000fd5b505050506040513d601f19601f82011682018060405250810190610f259190614b8b565b9392505050565b610f34613c51565b6000610f7584848080601f016020809104026020016040519081016040528093929190818152602001838380828437600092019190915250612d8392505050565b6040805160e081018252600083815260056020818152938220805484529185905283526002018054939450909291830191610faf906147d3565b80601f0160208091040260200160405190810160405280929190818152602001828054610fdb906147d3565b80156110285780601f10610ffd57610100808354040283529160200191611028565b820191906000526020600020905b81548152906001019060200180831161100b57829003601f168201915b505050505081526020016005600084815260200190815260200160002060010154815260200160056000848152602001908152602001600020600301805461106f906147d3565b80601f016020809104026020016040519081016040528092919081815260200182805461109b906147d3565b80156110e85780601f106110bd576101008083540402835291602001916110e8565b820191906000526020600020905b8154815290600101906020018083116110cb57829003601f168201915b5050509183525050600083815260056020818152604080842060048101546001600160a01b039081168488015281850154169186019190915295909252905260079092015460ff1615156060909201919091529392505050565b6060600061118584848080601f016020809104026020016040519081016040528093929190818152602001838380828437600092019190915250612d8392505050565b600081815260056020526040812060090154919250906001600160401b038111156111b2576111b261423c565b60405190808252806020026020018201604052801561121757816020015b611204604051806080016040528060006001600160a01b031681526020016060815260200160608152602001606081525090565b8152602001906001900390816111d05790505b506000838152600560205260408120600901549192505b8181101561140b57600084815260056020526040812060090180548390811061125957611259614830565b6000918252602090912001546001600160a01b031690508061127b57506113f9565b60006040518060800160405280836001600160a01b03168152602001836001600160a01b03166306fdde036040518163ffffffff1660e01b8152600401600060405180830381865afa1580156112d5573d6000803e3d6000fd5b505050506040513d6000823e601f3d908101601f191682016040526112fd9190810190614bed565b8152602001836001600160a01b0316636465e69f6040518163ffffffff1660e01b8152600401600060405180830381865afa158015611340573d6000803e3d6000fd5b505050506040513d6000823e601f3d908101601f191682016040526113689190810190614bed565b8152602001836001600160a01b0316637284e4166040518163ffffffff1660e01b8152600401600060405180830381865afa1580156113ab573d6000803e3d6000fd5b505050506040513d6000823e601f3d908101601f191682016040526113d39190810190614bed565b8152509050808584815181106113eb576113eb614830565b602002602001018190525050505b8061140381614c21565b91505061122e565b509095945050505050565b600061148b85858080601f01602080910402602001604051908101604052809392919081815260200183838082843760009201919091525050604080516020601f89018190048102820181019092528781529250879150869081908401838280828437600092019190915250612d9d92505050565b95945050505050565b6000600560006114d986868080601f016020809104026020016040519081016040528093929190818152602001838380828437600092019190915250612d8392505050565b8152602080820192909252604090810160009081206001600160a01b038616825260080190925290205460ff1690509392505050565b61156c84848080601f01602080910402602001604051908101604052809392919081815260200183838082843760009201829052506040805160208101909152908152925060008051602061502c83398151915291506135e59050565b600b54604080516020601f87018190048102820181019092528581526001600160a01b039092169163db474ecb916115bf91908890889081908401838280828437600092019190915250612d8392505050565b84846040518463ffffffff1660e01b81526004016115df939291906149cb565b600060405180830381600087803b1580156115f957600080fd5b505af115801561160d573d6000803e3d6000fd5b50505050818484604051611622929190614b7b565b60405180910390207fb72e43fbdf2abeb3bfe59e783bcca829d13e9fcde1eac425751faabea6c134c96116523390565b6040516001600160a01b0390911681526020015b60405180910390a350505050565b604080518082019091526000815260606020820152600660006116ab84805160209182012060009081526002909152604090205490565b81526020019081526020016000206040518060400160405290816000820154815260200160018201805480602002602001604051908101604052809291908181526020016000905b8282101561188d57838290600052602060002090600502016040518060c0016040529081600082015481526020016001820154815260200160028201805461173a906147d3565b80601f0160208091040260200160405190810160405280929190818152602001828054611766906147d3565b80156117b35780601f10611788576101008083540402835291602001916117b3565b820191906000526020600020905b81548152906001019060200180831161179657829003601f168201915b505050505081526020016003820180546117cc906147d3565b80601f01602080910402602001604051908101604052809291908181526020018280546117f8906147d3565b80156118455780601f1061181a57610100808354040283529160200191611845565b820191906000526020600020905b81548152906001019060200180831161182857829003601f168201915b5050509183525050600491909101546001600160a01b038116602080840191909152600160a01b90910460ff16151560409092019190915290825260019290920191016116f3565b505050915250909392505050565b6118a3612df0565b6118ad60006136cd565b565b61193285858080601f01602080910402602001604051908101604052809392919081815260200183838082843760009201919091525050604080516020601f8901819004810282018101909252878152925087915086908190840183828082843760009201919091525060008051602061504c83398151915292506135e5915050565b61197185858080601f01602080910402602001604051908101604052809392919081815260200183838082843760009201919091525061371d92505050565b6119e485858080601f01602080910402602001604051908101604052809392919081815260200183838082843760009201919091525050604080516020601f8901819004810282018101909252878152925087915086908190840183828082843760009201919091525061379792505050565b6000611a2586868080601f016020809104026020016040519081016040528093929190818152602001838380828437600092019190915250612d8392505050565b90506000611a9c87878080601f01602080910402602001604051908101604052809392919081815260200183838082843760009201919091525050604080516020601f8b018190048102820181019092528981529250899150889081908401838280828437600092019190915250612d9d92505050565b600083815260046020818152604080842085855290915290912001805460ff60a01b1916600160a01b861515021790559050336001600160a01b03168585604051611ae8929190614b7b565b60405180910390208888604051611b00929190614b7b565b6040519081900381208615158252907fcba51876aa74b247950c251d3459c41aaebd8b10717beadb480ca1a105166ab59060200160405180910390a450505050505050565b611bc886868080601f01602080910402602001604051908101604052809392919081815260200183838082843760009201919091525050604080516020601f8a01819004810282018101909252888152925088915087908190840183828082843760009201919091525060008051602061504c83398151915292506135e5915050565b6000611c0987878080601f016020809104026020016040519081016040528093929190818152602001838380828437600092019190915250612d8392505050565b90506000611c8088888080601f01602080910402602001604051908101604052809392919081815260200183838082843760009201919091525050604080516020601f8c018190048102820181019092528a815292508a9150899081908401838280828437600092019190915250612d9d92505050565b905060005b83811015611cc257611cb08383878785818110611ca457611ca4614830565b905060200201356137cb565b80611cba81614c21565b915050611c85565b505050505050505050565b611d2a84848080601f01602080910402602001604051908101604052809392919081815260200183838082843760009201829052506040805160208101909152908152925060008051602061502c83398151915291506135e59050565b600b54604080516020601f87018190048102820181019092528581526001600160a01b0390921691633368c918916115bf91908890889081908401838280828437600092019190915250612d8392505050565b611e0086868080601f01602080910402602001604051908101604052809392919081815260200183838082843760009201919091525050604080516020601f8a01819004810282018101909252888152925088915087908190840183828082843760009201919091525060008051602061504c83398151915292506135e5915050565b6000611e4187878080601f016020809104026020016040519081016040528093929190818152602001838380828437600092019190915250612d8392505050565b90506000611eb888888080601f01602080910402602001604051908101604052809392919081815260200183838082843760009201919091525050604080516020601f8c018190048102820181019092528a815292508a9150899081908401838280828437600092019190915250612d9d92505050565b905060005b83811015611cc257611ee88383878785818110611edc57611edc614830565b905060200201356138a8565b80611ef281614c21565b915050611ebd565b611f5783838080601f01602080910402602001604051908101604052809392919081815260200183838082843760009201829052506040805160208101909152908152925060008051602061502c83398151915291506135e59050565b60056000611f9a85858080601f016020809104026020016040519081016040528093929190818152602001838380828437600092019190915250612d8392505050565b8152602001908152602001600020600601548103611fcb57604051630e52390960e41b815260040160405180910390fd5b600b54604080516020601f86018190048102820181019092528481526001600160a01b039092169163cdb0ba509161201e91908790879081908401838280828437600092019190915250612d8392505050565b836040518363ffffffff1660e01b8152600401612045929190918252602082015260400190565b600060405180830381600087803b15801561205f57600080fd5b505af1158015612073573d6000803e3d6000fd5b50505050808383604051612088929190614b7b565b60405180910390207f7bb07acd566d038f77cba9c39e7536f74ea2c4ee382024d1b428d7f0680dbc026120b83390565b6040516001600160a01b0390911681526020015b60405180910390a3505050565b6000610f2583838080601f016020809104026020016040519081016040528093929190818152602001838380828437600092019190915250612d8392505050565b60008061215c88888080601f016020809104026020016040519081016040528093929190818152602001838380828437600092019190915250612d8392505050565b905060006121d389898080601f01602080910402602001604051908101604052809392919081815260200183838082843760009201919091525050604080516020601f8d018190048102820181019092528b815292508b91508a9081908401838280828437600092019190915250612d9d92505050565b90506121e98282876121e488614c3a565b613985565b9998505050505050505050565b61223586868080601f01602080910402602001604051908101604052809392919081815260200183838082843760009201919091525061371d92505050565b61229286868080601f01602080910402602001604051908101604052809392919081815260200183838082843760009201829052506040805160208101909152908152925060008051602061504c83398151915291506135e59050565b61229b84613a86565b60006122dc87878080601f016020809104026020016040519081016040528093929190818152602001838380828437600092019190915250612d8392505050565b90506122e88185613b17565b61232a81868686868080601f01602080910402602001604051908101604052809392919081815260200183838082843760009201919091525061353792505050565b846001600160a01b03168787604051612344929190614b7b565b604051908190038120907fe78ad18845af93a80fbe8718cacc631fbe1c453b092806818a044440b96ba67790600090a350505050505050565b612385612df0565b600a80546001600160a01b0319166001600160a01b0383169081179091556040517f68e3ca42e475f54d65227ed8cb60daf9cec4546691052783063876ad972db71190600090a250565b600061242e85858080601f01602080910402602001604051908101604052809392919081815260200183838082843760009201829052506040805160208101909152908152925060008051602061502c83398151915291506135e59050565b600b54604080516020601f88018190048102820181019092528681526001600160a01b039092169163e88ca8a19161248191908990899081908401838280828437600092019190915250612d8392505050565b85856040518463ffffffff1660e01b81526004016124a193929190614933565b6020604051808303816000875af11580156124c0573d6000803e3d6000fd5b505050506040513d601f19601f820116820180604052508101906124e4919061494d565b905082826040516124f6929190614b7b565b604051809103902081868660405161250f929190614b7b565b60405180910390207fc06cee439d340740b1e427558729eb0fcc080aa2ab6d0bcfb30b6618234f460a61253f3390565b6040516001600160a01b03909116815260200160405180910390a4949350505050565b6125a186868080601f01602080910402602001604051908101604052809392919081815260200183838082843760009201919091525061371d92505050565b6125fe86868080601f01602080910402602001604051908101604052809392919081815260200183838082843760009201829052506040805160208101909152908152925060008051602061504c83398151915291506135e59050565b600061263f87878080601f016020809104026020016040519081016040528093929190818152602001838380828437600092019190915250612d8392505050565b905061264b8185613b17565b61265485613a86565b61269681868686868080601f016020809104026020016040519081016040528093929190818152602001838380828437600092019190915250613b4892505050565b846001600160a01b031687876040516126b0929190614b7b565b604051908190038120907f9b42a541e0a10f6a80059e1448b92d56a4e71354d43a2ca1fd3701878cb50ae290600090a350505050505050565b6126f1612df0565b600880546001600160a01b0319166001600160a01b0383169081179091556040517f07b136952c7460e1fc2d593fad96b5b379f28cc13a49857b6a825c5228c1a8d190600090a250565b61274482613a86565b6127a184848080601f01602080910402602001604051908101604052809392919081815260200183838082843760009201829052506040805160208101909152908152925060008051602061502c83398151915291506135e59050565b6009546001600160a01b03838116911614806127ca57506008546001600160a01b038381169116145b156127e857604051631eb49d6d60e11b815260040160405180910390fd5b61283161282a85858080601f016020809104026020016040519081016040528093929190818152602001838380828437600092019190915250612d8392505050565b83836131a7565b816001600160a01b0316848460405161284b929190614b7b565b6040519081900381208315158252907f558bdc63bfb8cb1188bc6f559a22d16b8e64dccf7af1d84c90bcf2b7feb1e00990602001611666565b60006128fd6128938380614846565b8080601f0160208091040260200160405190810160405280939291908181526020018383808284376000920182905250604080516020810190915290815292507f5ef98f1e5b8bd5ee1978908b3f5b2128d59a65f7702f04e6aca3c95aff590be191506135e59050565b61294461290a8380614846565b8080601f01602080910402602001604051908101604052809392919081815260200183838082843760009201919091525061371d92505050565b612954610aa86020840184614846565b600061299d6129638480614846565b8080601f016020809104026020016040519081016040528093929190818152602001838380828437600092019190915250612d8392505050565b90506129b1816129ac85614ce5565b613bbe565b6000828152600560205260408120600901549193505b81811015612c245760008381526005602052604081206009018054839081106129f2576129f2614830565b6000918252602090912001546001600160a01b0316905080612a145750612c12565b600084815260056020526040908190206006015490516340a74b4360e01b8152600481018690526024810187905260448101919091526001600160a01b038216906340a74b4390606401600060405180830381600087803b158015612a7857600080fd5b505af1158015612a8c573d6000803e3d6000fd5b5050505060005b612aa060608801886148ea565b9050811015612c0f57600085815260056020526040902060060154612ac860608901896148ea565b83818110612ad857612ad8614830565b905060200201350315612bfd576001600160a01b0382166340a74b438688612b0360608c018c6148ea565b86818110612b1357612b13614830565b6040516001600160e01b031960e088901b1681526004810195909552602485019390935250602090910201356044820152606401600060405180830381600087803b158015612b6157600080fd5b505af1925050508015612b72575060015b612b8f5760405163d9afe50760e01b815260040160405180910390fd5b33612b9d6040890189614846565b604051612bab929190614b7b565b604051908190039020612bbe8980614846565b604051612bcc929190614b7b565b604051908190038120907ff22ca4e1529bca70f91b82d259651796b8973cec866e55ad258c1f6d56ea71d390600090a45b80612c0781614c21565b915050612a93565b50505b80612c1c81614c21565b9150506129c7565b505050919050565b612c34612df0565b6001600160a01b038116612c9e5760405162461bcd60e51b815260206004820152602660248201527f4f776e61626c653a206e6577206f776e657220697320746865207a65726f206160448201526564647265737360d01b60648201526084015b60405180910390fd5b612ca7816136cd565b50565b612cd2826040518060200160405280600081525060008051602061502c8339815191526135e5565b6000612cf283805160209182012060009081526002909152604090205490565b905080600003612d155760405163be34080760e01b815260040160405180910390fd5b6000818152600560205260409020600701805460ff1916831515179055336001600160a01b031683604051612d4a9190614d9b565b6040519081900381208415158252907fb52a77d1c8e7ecf705bef894088b2c74fb373648434090edc15688f5c80a8687906020016120cc565b805160209182012060009081526002909152604090205490565b600060036000612dc185805160209182012060009081526002909152604090205490565b815260200190815260200160002060008380519060200120815260200190815260200160002054905092915050565b6000546001600160a01b031633146118ad5760405162461bcd60e51b815260206004820181905260248201527f4f776e61626c653a2063616c6c6572206973206e6f7420746865206f776e65726044820152606401612c95565b7f00000000000000000000000000000000000000000000000000000000000000006001600160a01b0316612e915760405163361882e360e01b815260040160405180910390fd5b6008546001600160a01b0316612eba57604051632ab51add60e01b815260040160405180910390fd5b6009546001600160a01b0316612ee357604051632ab51add60e01b815260040160405180910390fd5b600a546001600160a01b03166118ad5760405162d1740b60e61b815260040160405180910390fd5b600082828080601f016020809104026020016040519081016040528093929190818152602001838380828437600092019190915250508251929350506002909110905080612f5a575080516020105b15612f785760405163354b556f60e11b815260040160405180910390fd5b805160005b8181101561312057600360fc1b838281518110612f9c57612f9c614830565b01602001516001600160f81b0319161080612fda5750603d60f91b838281518110612fc957612fc9614830565b01602001516001600160f81b031916115b806130365750603960f81b838281518110612ff757612ff7614830565b01602001516001600160f81b0319161180156130365750606160f81b83828151811061302557613025614830565b01602001516001600160f81b031916105b8015613067575082818151811061304f5761304f614830565b6020910101516001600160f81b031916601760f91b14155b8015613098575082818151811061308057613080614830565b6020910101516001600160f81b031916602d60f81b14155b80156130c957508281815181106130b1576130b1614830565b6020910101516001600160f81b031916605f60f81b14155b80156130fa57508281815181106130e2576130e2614830565b6020910101516001600160f81b031916600160fd1b14155b156131185760405163f8fa659760e01b815260040160405180910390fd5b600101612f7d565b5050505050565b6001805481019081905560405163aa424abb60e01b815273__$41f15a773ad44a80f32c4029fe25814db2$__9063aa424abb9061317290859085903390600290600590600401614dad565b60006040518083038186803b15801561318a57600080fd5b505af415801561319e573d6000803e3d6000fd5b50505050919050565b8080156131d9575060008381526005602090815260408083206001600160a01b038616845260080190915290205460ff165b156131f75760405163186abc9b60e01b815260040160405180910390fd5b60405163fd81c88f60e01b8152600481018490526001600160a01b038316602482015281151560448201526005606482015273__$41f15a773ad44a80f32c4029fe25814db2$__9063fd81c88f9060840160006040518083038186803b15801561326057600080fd5b505af4158015613274573d6000803e3d6000fd5b50505050505050565b604080516080808201835260008083526020808401829052838501829052606093840182905284519283018552600a546001600160a01b03168352600183820181905283860181905293830186905284518481528086019095529093919284929182015b6040805160808101825260008082526020808301829052928201819052606082015282526000199092019101816132e1579050509050818160008151811061332b5761332b614830565b602090810291909101810191909152604080519182018152828252600b54905163f62df4df60e01b8152600481018790526000916001600160a01b03169063f62df4df906024016020604051808303816000875af1158015613391573d6000803e3d6000fd5b505050506040513d601f19601f820116820180604052508101906133b5919061494d565b60095460405191925061148b9188916001600160a01b0316908890610d61908790602001614b0f565b600b546040805163e88ca8a160e01b8152600481018690526024810191909152600860448201526745766572796f6e6560c01b60648201526000916001600160a01b03169063e88ca8a1906084016020604051808303816000875af115801561344b573d6000803e3d6000fd5b505050506040513d601f19601f8201168201806040525081019061346f919061494d565b905060005b8281101561350e57600b546001600160a01b0316633368c91886848787868181106134a1576134a1614830565b90506020028101906134b39190614966565b6040518463ffffffff1660e01b81526004016134d1939291906149cb565b600060405180830381600087803b1580156134eb57600080fd5b505af11580156134ff573d6000803e3d6000fd5b50505050806001019050613474565b506008546040805160016020820152610f259287926001600160a01b0390911691859101610d61565b60008481526005602090815260408083206001600160a01b038716845260080190915290205460ff1661357d5760405163c1ef36f360e01b815260040160405180910390fd5b604051632587e8d160e11b81526001600160a01b03841690634b0fd1a2906135ad90879086908690600401614e54565b600060405180830381600087803b1580156135c757600080fd5b505af11580156135db573d6000803e3d6000fd5b5050505050505050565b600061360584805160209182012060009081526002909152604090205490565b905060006136138585612d9d565b90506136a882823360405163173c4a6360e01b8152600481018890527f00000000000000000000000000000000000000000000000000000000000000006001600160a01b03169063173c4a6390602401600060405180830381865afa158015613680573d6000803e3d6000fd5b505050506040513d6000823e601f3d908101601f191682016040526121e49190810190614e73565b156136b4575050505050565b604051631eb49d6d60e11b815260040160405180910390fd5b600080546001600160a01b038381166001600160a01b0319831681178455604051919092169283917f8be0079c531659141344cd1fd0a4f28419497f9722a3daafe3b4186f6b6457e09190a35050565b600061373d82805160209182012060009081526002909152604090205490565b9050806000036137605760405163be34080760e01b815260040160405180910390fd5b60008181526005602052604090206007015460ff16156137935760405163be34080760e01b815260040160405180910390fd5b5050565b60006137a38383612d9d565b9050806000036137c657604051636ddd9da960e01b815260040160405180910390fd5b505050565b600083815260056020526040812060090154905b8181101561312057600085815260056020526040812060090180548390811061380a5761380a614830565b6000918252602090912001546001600160a01b031690508061382c5750613896565b604051635c1b185d60e01b81526004810187905260248101869052604481018590526001600160a01b03821690635c1b185d90606401600060405180830381600087803b15801561387c57600080fd5b505af1158015613890573d6000803e3d6000fd5b50505050505b806138a081614c21565b9150506137df565b600083815260056020526040812060090154905b818110156131205760008581526005602052604081206009018054839081106138e7576138e7614830565b6000918252602090912001546001600160a01b03169050806139095750613973565b6040516340a74b4360e01b81526004810187905260248101869052604481018590526001600160a01b038216906340a74b4390606401600060405180830381600087803b15801561395957600080fd5b505af115801561396d573d6000803e3d6000fd5b50505050505b8061397d81614c21565b9150506138bc565b600084815260056020526040812060090154815b81811015613a7c5760008781526005602052604081206009018054839081106139c4576139c4614830565b6000918252602090912001546001600160a01b03169050806139e65750613a6a565b604051636621899960e01b81526001600160a01b03821690636621899990613a18908b908b908b908b90600401614ef5565b602060405180830381865afa158015613a35573d6000803e3d6000fd5b505050506040513d601f19601f82011682018060405250810190613a599190614f2b565b15613a68576001935050613a7c565b505b80613a7481614c21565b915050613999565b5050949350505050565b6040516301ffc9a760e01b815263ebb6cfd560e01b60048201526001600160a01b038216906301ffc9a790602401602060405180830381865afa158015613ad1573d6000803e3d6000fd5b505050506040513d601f19601f82011682018060405250810190613af59190614f2b565b1515600003612ca757604051636d9250f160e11b815260040160405180910390fd5b600082815260056020526040902060060154810361379357604051631eb49d6d60e11b815260040160405180910390fd5b60008481526005602090815260408083206001600160a01b038716845260080190915290205460ff16613b8e5760405163c1ef36f360e01b815260040160405180910390fd5b604051630f477aa360e21b81526001600160a01b03841690633d1dea8c906135ad90879086908690600401614e54565b600082815260066020526040902080546001019081905573__$41f15a773ad44a80f32c4029fe25814db2$__631ddb9a8b838584336006600360046040518863ffffffff1660e01b8152600401613c1b9796959493929190614f48565b60006040518083038186803b158015613c3357600080fd5b505af4158015613c47573d6000803e3d6000fd5b5050505092915050565b6040518060e001604052806000815260200160608152602001600081526020016060815260200160006001600160a01b0316815260200160006001600160a01b031681526020016000151581525090565b60008083601f840112613cb457600080fd5b5081356001600160401b03811115613ccb57600080fd5b602083019150836020828501011115613ce357600080fd5b9250929050565b60008060008060408587031215613d0057600080fd5b84356001600160401b0380821115613d1757600080fd5b613d2388838901613ca2565b90965094506020870135915080821115613d3c57600080fd5b50613d4987828801613ca2565b95989497509550505050565b60005b83811015613d70578181015183820152602001613d58565b50506000910152565b60008151808452613d91816020860160208601613d55565b601f01601f19169290920160200192915050565b60208152815160208201526000602083015160c06040840152613dcb60e0840182613d79565b9050604084015160608401526060840151601f19848303016080850152613df28282613d79565b91505060018060a01b0360808501511660a084015260a0840151151560c08401528091505092915050565b60008060208385031215613e3057600080fd5b82356001600160401b03811115613e4657600080fd5b613e5285828601613ca2565b90969095509350505050565b6020808252825182820181905260009190848201906040850190845b81811015613e9f5783516001600160a01b031683529284019291840191600101613e7a565b50909695505050505050565b805182526000602082015160e06020850152613eca60e0850182613d79565b90506040830151604085015260608301518482036060860152613eed8282613d79565b915050608083015160018060a01b0380821660808701528060a08601511660a0870152505060c0830151151560c08501528091505092915050565b6000602080830181845280855180835260408601915060408160051b870101925083870160005b82811015613f7d57603f19888603018452613f6b858351613eab565b94509285019290850190600101613f4f565b5092979650505050505050565b6001600160a01b0381168114612ca757600080fd5b600060208284031215613fb157600080fd5b8135610f2581613f8a565b600060808284031215610a3957600080fd5b60008083601f840112613fe057600080fd5b5081356001600160401b03811115613ff757600080fd5b6020830191508360208260051b8501011115613ce357600080fd5b6000806000806060858703121561402857600080fd5b84356001600160401b038082111561403f57600080fd5b908601906060828903121561405357600080fd5b9094506020860135908082111561406957600080fd5b61407588838901613fbc565b9450604087013591508082111561408b57600080fd5b50613d4987828801613fce565b602081526000610f256020830184613eab565b60006020808301818452808551808352604092508286019150828160051b87010184880160005b8381101561415457888303603f19018552815180516001600160a01b031684528781015160808986018190529061410b82870182613d79565b91505087820151858203898701526141238282613d79565b915050606080830151925085820381870152506141408183613d79565b9689019694505050908601906001016140d2565b509098975050505050505050565b60008060006040848603121561417757600080fd5b83356001600160401b0381111561418d57600080fd5b61419986828701613ca2565b90945092505060208401356141ad81613f8a565b809150509250925092565b600060208284031215610a3957600080fd5b600080600080606085870312156141e057600080fd5b84356001600160401b03808211156141f757600080fd5b61420388838901613ca2565b909650945060208701359350604087013591508082111561422357600080fd5b50614230878288016141b8565b91505092959194509250565b634e487b7160e01b600052604160045260246000fd5b604051602081016001600160401b03811182821017156142745761427461423c565b60405290565b604051608081016001600160401b03811182821017156142745761427461423c565b604051601f8201601f191681016001600160401b03811182821017156142c4576142c461423c565b604052919050565b60006001600160401b038211156142e5576142e561423c565b50601f01601f191660200190565b600082601f83011261430457600080fd5b8135614317614312826142cc565b61429c565b81815284602083860101111561432c57600080fd5b816020850160208301376000918101602001919091529392505050565b60006020828403121561435b57600080fd5b81356001600160401b0381111561437157600080fd5b61437d848285016142f3565b949350505050565b6000602080835260608084018551838601528286015160408081880152828251808552608094508489019150848160051b8a0101878501945060005b8281101561444257607f198b8303018452855160c0815184528a8201518b8501528682015181888601526143f782860182613d79565b915050898201518482038b86015261440f8282613d79565b8a8401516001600160a01b0316868c015260a09384015115159390950192909252505094880194928801926001016143c1565b509a9950505050505050505050565b8015158114612ca757600080fd5b60008060008060006060868803121561447757600080fd5b85356001600160401b038082111561448e57600080fd5b61449a89838a01613ca2565b909750955060208801359150808211156144b357600080fd5b506144c088828901613ca2565b90945092505060408601356144d481614451565b809150509295509295909350565b600080600080600080606087890312156144fb57600080fd5b86356001600160401b038082111561451257600080fd5b61451e8a838b01613ca2565b9098509650602089013591508082111561453757600080fd5b6145438a838b01613ca2565b9096509450604089013591508082111561455c57600080fd5b5061456989828a01613fce565b979a9699509497509295939492505050565b60008060006040848603121561459057600080fd5b83356001600160401b038111156145a657600080fd5b6145b286828701613ca2565b909790965060209590950135949350505050565b600080600080600080608087890312156145df57600080fd5b86356001600160401b03808211156145f657600080fd5b6146028a838b01613ca2565b9098509650602089013591508082111561461b57600080fd5b6146278a838b01613ca2565b90965094506040890135915061463c82613f8a565b9092506060880135908082111561465257600080fd5b5061465f89828a016141b8565b9150509295509295509295565b6000806000806000806080878903121561468557600080fd5b86356001600160401b038082111561469c57600080fd5b6146a88a838b01613ca2565b9098509650602089013591506146bd82613f8a565b90945060408801359350606088013590808211156146da57600080fd5b5061456989828a01613ca2565b600080600080606085870312156146fd57600080fd5b84356001600160401b0381111561471357600080fd5b61471f87828801613ca2565b909550935050602085013561473381613f8a565b9150604085013561474381614451565b939692955090935050565b60006020828403121561476057600080fd5b81356001600160401b0381111561477657600080fd5b61437d84828501613fbc565b6000806040838503121561479557600080fd5b82356001600160401b038111156147ab57600080fd5b6147b7858286016142f3565b92505060208301356147c881614451565b809150509250929050565b600181811c908216806147e757607f821691505b602082108103610a3957634e487b7160e01b600052602260045260246000fd5b634e487b7160e01b600052601160045260246000fd5b8082018082111561081357610813614807565b634e487b7160e01b600052603260045260246000fd5b6000808335601e1984360301811261485d57600080fd5b8301803591506001600160401b0382111561487757600080fd5b602001915036819003821315613ce357600080fd5b81835281816020850137506000828201602090810191909152601f909101601f19169091010190565b8481526001600160a01b03841660208201526060604082018190526000906148e0908301848661488c565b9695505050505050565b6000808335601e1984360301811261490157600080fd5b8301803591506001600160401b0382111561491b57600080fd5b6020019150600581901b3603821315613ce357600080fd5b83815260406020820152600061148b60408301848661488c565b60006020828403121561495f57600080fd5b5051919050565b60008235601e1983360301811261497c57600080fd5b9190910192915050565b6000808335601e1984360301811261499d57600080fd5b83016020810192503590506001600160401b038111156149bc57600080fd5b803603821315613ce357600080fd5b8381528260208201526060604082015260006149e78384614986565b602060608501526149fc60808501828461488c565b979650505050505050565b60006001600160401b03821115614a2057614a2061423c565b5060051b60200190565b60006020808336031215614a3d57600080fd5b614a45614252565b83356001600160401b03811115614a5b57600080fd5b840136601f820112614a6c57600080fd5b8035614a7a61431282614a07565b81815260079190911b82018401908481019036831115614a9957600080fd5b928501925b82841015614b025760808436031215614ab75760008081fd5b614abf61427a565b8435614aca81613f8a565b81528487013587820152604080860135614ae381614451565b9082015260608581013590820152825260809093019290850190614a9e565b8452509195945050505050565b60006020808352604080840185518384870152818151808452606093508388019150858301925060005b8181101561415457835180516001600160a01b031684528781015188850152868101511515878501528501518584015292860192608090920191600101614b39565b8183823760009101908152919050565b600060208284031215614b9d57600080fd5b8151610f2581613f8a565b600082601f830112614bb957600080fd5b8151614bc7614312826142cc565b818152846020838601011115614bdc57600080fd5b61437d826020830160208701613d55565b600060208284031215614bff57600080fd5b81516001600160401b03811115614c1557600080fd5b61437d84828501614ba8565b600060018201614c3357614c33614807565b5060010190565b600060208236031215614c4c57600080fd5b614c54614252565b82356001600160401b03811115614c6a57600080fd5b614c76368286016142f3565b82525092915050565b600082601f830112614c9057600080fd5b81356020614ca061431283614a07565b82815260059290921b84018101918181019086841115614cbf57600080fd5b8286015b84811015614cda5780358352918301918301614cc3565b509695505050505050565b600060808236031215614cf757600080fd5b614cff61427a565b82356001600160401b0380821115614d1657600080fd5b614d22368387016142f3565b83526020850135915080821115614d3857600080fd5b614d44368387016142f3565b60208401526040850135915080821115614d5d57600080fd5b614d69368387016142f3565b60408401526060850135915080821115614d8257600080fd5b50614d8f36828601614c7f565b60608301525092915050565b6000825161497c818460208701613d55565b60a081526000614dbd8788614986565b606060a0850152614dd36101008501828461488c565b915050614de36020890189614986565b609f19808685030160c0870152614dfb84838561488c565b9350614e0a60408c018c614986565b93509150808685030160e087015250614e2483838361488c565b6020860199909952505050506001600160a01b039390931660408401526060830191909152608090910152919050565b83815282602082015260606040820152600061148b6060830184613d79565b600060208284031215614e8557600080fd5b81516001600160401b0380821115614e9c57600080fd5b9083019060208286031215614eb057600080fd5b604051602081018181108382111715614ecb57614ecb61423c565b604052825182811115614edd57600080fd5b614ee987828601614ba8565b82525095945050505050565b84815283602082015260018060a01b03831660408201526080606082015260008251602060808401526149fc60a0840182613d79565b600060208284031215614f3d57600080fd5b8151610f2581614451565b60e0815260008851608060e0840152614f65610160840182613d79565b90506020808b015160df198086850301610100870152614f858483613d79565b935060408d015191508086850301610120870152614fa38483613d79565b60608e015187820390920161014088015281518082529184019450600092508301905b80831015614fe65784518252938301936001929092019190830190614fc6565b509185018b905250604084018990526001600160a01b0388166060850152915061500d9050565b8460808301528360a08301528260c08301529897505050505050505056fe75be26f315524d8937b28469fe5b4df7e59aebca1fcbbbe5669005e1491b131b71e770fed024e50450e0cb5318c1a012e92ab6439dfbe6c071800b700ce55c0aa2646970667358221220ed5084ba5e03327a568909d8207b0f1dabc03d6a137a5ac0a774e642cf3b1ba764736f6c63430008110033",
    "linkReferences": {
      "contracts/src/spaces/libraries/CreationLogic.sol": {
        "CreationLogic": [
          {
            "start": 13003,
            "length": 20
          },
          {
            "start": 13238,
            "length": 20
          },
          {
            "start": 15714,
            "length": 20
          }
        ]
      }
    }
  },
  "methodIdentifiers": {
    "addPermissionToRole(string,uint256,(string))": "7d9a0230",
    "addRoleIdsToChannel(string,string,uint256[])": "81fb7db2",
    "addRoleToEntitlementModule(string,address,uint256,bytes)": "c79ff589",
    "createChannel((string,string,string,uint256[]))": "f1b287d8",
    "createRole(string,string)": "d2192dbf",
    "createSpace((string,string,string),(string,(string)[],((address,uint256,bool,uint256)[])[],address[]),(string)[])": "1f2bd9e5",
    "getChannelIdByNetworkId(string,string)": "3e66eae3",
    "getChannelInfoByChannelId(string,string)": "0db37ba3",
    "getChannelsBySpaceId(string)": "50c24eef",
    "getEntitlementModulesBySpaceId(string)": "141b6498",
    "getEntitlementsInfoBySpaceId(string)": "3519167c",
    "getSpaceIdByNetworkId(string)": "9ddd0d6b",
    "getSpaceInfoBySpaceId(string)": "2bb59212",
    "getSpaceOwnerBySpaceId(string)": "2a4bdf25",
    "getSpaces()": "15478ca9",
    "isEntitled(string,string,address,(string))": "bf77b663",
    "isEntitlementModuleWhitelisted(string,address)": "4196d1ff",
    "owner()": "8da5cb5b",
    "removeEntitlement(string,address,uint256,bytes)": "d6b1b633",
    "removePermissionFromRole(string,uint256,(string))": "4832a4ec",
    "removeRole(string,uint256)": "8b0e905a",
    "removeRoleIdsFromChannel(string,string,uint256[])": "7a40ab90",
    "renounceOwnership()": "715018a6",
    "setChannelAccess(string,string,bool)": "72a29321",
    "setDefaultTokenEntitlementModule(address)": "1a039620",
    "setDefaultUserEntitlementModule(address)": "e1b7a9e5",
    "setSpaceAccess(string,bool)": "f86caf83",
    "setSpaceNFT(address)": "ccde2de3",
    "transferOwnership(address)": "f2fde38b",
    "whitelistEntitlementModule(string,address,bool)": "e798ff3f"
  },
  "id": 26
}