{
  "abi": [
    {
      "inputs": [
        {
          "internalType": "address",
          "name": "permissionRegistry",
          "type": "address"
        }
      ],
      "stateMutability": "nonpayable",
      "type": "constructor"
    },
    {
      "inputs": [],
      "name": "ChannelDoesNotExist",
      "type": "error"
    },
    {
      "inputs": [],
      "name": "DefaultEntitlementModuleNotSet",
      "type": "error"
    },
    {
      "inputs": [],
      "name": "DefaultPermissionsManagerNotSet",
      "type": "error"
    },
    {
      "inputs": [],
      "name": "EntitlementAlreadyWhitelisted",
      "type": "error"
    },
    {
      "inputs": [],
      "name": "EntitlementModuleNotSupported",
      "type": "error"
    },
    {
      "inputs": [],
      "name": "EntitlementNotWhitelisted",
      "type": "error"
    },
    {
      "inputs": [],
      "name": "InvalidParameters",
      "type": "error"
    },
    {
      "inputs": [],
      "name": "NotAllowed",
      "type": "error"
    },
    {
      "inputs": [],
      "name": "SpaceDoesNotExist",
      "type": "error"
    },
    {
      "inputs": [],
      "name": "SpaceNFTNotSet",
      "type": "error"
    },
    {
      "anonymous": false,
      "inputs": [
        {
          "indexed": true,
          "internalType": "address",
          "name": "previousOwner",
          "type": "address"
        },
        {
          "indexed": true,
          "internalType": "address",
          "name": "newOwner",
          "type": "address"
        }
      ],
      "name": "OwnershipTransferred",
      "type": "event"
    },
    {
      "inputs": [
        {
          "internalType": "string",
          "name": "spaceId",
          "type": "string"
        },
        {
          "internalType": "uint256",
          "name": "roleId",
          "type": "uint256"
        },
        {
          "components": [
            {
              "internalType": "string",
              "name": "name",
              "type": "string"
            }
          ],
          "internalType": "struct DataTypes.Permission",
          "name": "permission",
          "type": "tuple"
        }
      ],
      "name": "addPermissionToRole",
      "outputs": [],
      "stateMutability": "nonpayable",
      "type": "function"
    },
    {
      "inputs": [
        {
          "internalType": "string",
          "name": "spaceId",
          "type": "string"
        },
        {
          "internalType": "string",
          "name": "channelId",
          "type": "string"
        },
        {
          "internalType": "address",
          "name": "entitlementModuleAddress",
          "type": "address"
        },
        {
          "internalType": "uint256",
          "name": "roleId",
          "type": "uint256"
        },
        {
          "internalType": "bytes",
          "name": "entitlementData",
          "type": "bytes"
        }
      ],
      "name": "addRoleToEntitlementModule",
      "outputs": [],
      "stateMutability": "nonpayable",
      "type": "function"
    },
    {
      "inputs": [
        {
          "components": [
            {
              "internalType": "string",
              "name": "spaceNetworkId",
              "type": "string"
            },
            {
              "internalType": "string",
              "name": "channelName",
              "type": "string"
            },
            {
              "internalType": "string",
              "name": "channelNetworkId",
              "type": "string"
            }
          ],
          "internalType": "struct DataTypes.CreateChannelData",
          "name": "data",
          "type": "tuple"
        }
      ],
      "name": "createChannel",
      "outputs": [
        {
          "internalType": "uint256",
          "name": "",
          "type": "uint256"
        }
      ],
      "stateMutability": "nonpayable",
      "type": "function"
    },
    {
      "inputs": [
        {
          "internalType": "string",
          "name": "spaceId",
          "type": "string"
        },
        {
          "internalType": "string",
          "name": "name",
          "type": "string"
        }
      ],
      "name": "createRole",
      "outputs": [
        {
          "internalType": "uint256",
          "name": "",
          "type": "uint256"
        }
      ],
      "stateMutability": "nonpayable",
      "type": "function"
    },
    {
      "inputs": [
        {
          "components": [
            {
              "internalType": "string",
              "name": "spaceName",
              "type": "string"
            },
            {
              "internalType": "string",
              "name": "spaceNetworkId",
              "type": "string"
            }
          ],
          "internalType": "struct DataTypes.CreateSpaceData",
          "name": "info",
          "type": "tuple"
        }
      ],
      "name": "createSpace",
      "outputs": [
        {
          "internalType": "uint256",
          "name": "",
          "type": "uint256"
        }
      ],
      "stateMutability": "nonpayable",
      "type": "function"
    },
    {
      "inputs": [
        {
          "components": [
            {
              "internalType": "string",
              "name": "spaceName",
              "type": "string"
            },
            {
              "internalType": "string",
              "name": "spaceNetworkId",
              "type": "string"
            }
          ],
          "internalType": "struct DataTypes.CreateSpaceData",
          "name": "info",
          "type": "tuple"
        },
        {
          "components": [
            {
              "internalType": "address",
              "name": "tokenAddress",
              "type": "address"
            },
            {
              "internalType": "uint256",
              "name": "quantity",
              "type": "uint256"
            },
            {
              "internalType": "string",
              "name": "description",
              "type": "string"
            },
            {
              "internalType": "bool",
              "name": "isSingleToken",
              "type": "bool"
            },
            {
              "internalType": "uint256",
              "name": "tokenId",
              "type": "uint256"
            },
            {
              "internalType": "string[]",
              "name": "permissions",
              "type": "string[]"
            },
            {
              "internalType": "string",
              "name": "roleName",
              "type": "string"
            }
          ],
          "internalType": "struct DataTypes.CreateSpaceTokenEntitlementData",
          "name": "entitlement",
          "type": "tuple"
        }
      ],
      "name": "createSpaceWithTokenEntitlement",
      "outputs": [
        {
          "internalType": "uint256",
          "name": "",
          "type": "uint256"
        }
      ],
      "stateMutability": "nonpayable",
      "type": "function"
    },
    {
      "inputs": [
        {
          "internalType": "string",
          "name": "spaceId",
          "type": "string"
        },
        {
          "internalType": "string",
          "name": "channelId",
          "type": "string"
        }
      ],
      "name": "getChannelIdByNetworkId",
      "outputs": [
        {
          "internalType": "uint256",
          "name": "",
          "type": "uint256"
        }
      ],
      "stateMutability": "view",
      "type": "function"
    },
    {
      "inputs": [
        {
          "internalType": "string",
          "name": "spaceId",
          "type": "string"
        },
        {
          "internalType": "string",
          "name": "channelId",
          "type": "string"
        }
      ],
      "name": "getChannelInfoByChannelId",
      "outputs": [
        {
          "components": [
            {
              "internalType": "uint256",
              "name": "channelId",
              "type": "uint256"
            },
            {
              "internalType": "string",
              "name": "networkId",
              "type": "string"
            },
            {
              "internalType": "uint256",
              "name": "createdAt",
              "type": "uint256"
            },
            {
              "internalType": "string",
              "name": "name",
              "type": "string"
            },
            {
              "internalType": "address",
              "name": "creator",
              "type": "address"
            },
            {
              "internalType": "bool",
              "name": "disabled",
              "type": "bool"
            }
          ],
          "internalType": "struct DataTypes.ChannelInfo",
          "name": "",
          "type": "tuple"
        }
      ],
      "stateMutability": "view",
      "type": "function"
    },
    {
      "inputs": [
        {
          "internalType": "string",
          "name": "spaceId",
          "type": "string"
        }
      ],
      "name": "getChannelsBySpaceId",
      "outputs": [
        {
          "components": [
            {
              "internalType": "uint256",
              "name": "idCounter",
              "type": "uint256"
            },
            {
              "components": [
                {
                  "internalType": "uint256",
                  "name": "channelId",
                  "type": "uint256"
                },
                {
                  "internalType": "uint256",
                  "name": "createdAt",
                  "type": "uint256"
                },
                {
                  "internalType": "string",
                  "name": "networkId",
                  "type": "string"
                },
                {
                  "internalType": "string",
                  "name": "name",
                  "type": "string"
                },
                {
                  "internalType": "address",
                  "name": "creator",
                  "type": "address"
                },
                {
                  "internalType": "bool",
                  "name": "disabled",
                  "type": "bool"
                }
              ],
              "internalType": "struct DataTypes.Channel[]",
              "name": "channels",
              "type": "tuple[]"
            }
          ],
          "internalType": "struct DataTypes.Channels",
          "name": "",
          "type": "tuple"
        }
      ],
      "stateMutability": "view",
      "type": "function"
    },
    {
      "inputs": [
        {
          "internalType": "string",
          "name": "spaceId",
          "type": "string"
        }
      ],
      "name": "getEntitlementModulesBySpaceId",
      "outputs": [
        {
          "internalType": "address[]",
          "name": "entitlementModules",
          "type": "address[]"
        }
      ],
      "stateMutability": "view",
      "type": "function"
    },
    {
      "inputs": [
        {
          "internalType": "string",
          "name": "spaceId",
          "type": "string"
        }
      ],
      "name": "getEntitlementsInfoBySpaceId",
      "outputs": [
        {
          "components": [
            {
              "internalType": "address",
              "name": "addr",
              "type": "address"
            },
            {
              "internalType": "string",
              "name": "name",
              "type": "string"
            },
            {
              "internalType": "string",
              "name": "description",
              "type": "string"
            }
          ],
          "internalType": "struct DataTypes.EntitlementModuleInfo[]",
          "name": "",
          "type": "tuple[]"
        }
      ],
      "stateMutability": "view",
      "type": "function"
    },
    {
      "inputs": [
        {
          "internalType": "bytes32",
          "name": "permissionType",
          "type": "bytes32"
        }
      ],
      "name": "getPermissionFromMap",
      "outputs": [
        {
          "components": [
            {
              "internalType": "string",
              "name": "name",
              "type": "string"
            }
          ],
          "internalType": "struct DataTypes.Permission",
          "name": "permission",
          "type": "tuple"
        }
      ],
      "stateMutability": "view",
      "type": "function"
    },
    {
      "inputs": [
        {
          "internalType": "string",
          "name": "spaceId",
          "type": "string"
        },
        {
          "internalType": "uint256",
          "name": "roleId",
          "type": "uint256"
        }
      ],
      "name": "getPermissionsBySpaceIdByRoleId",
      "outputs": [
        {
          "components": [
            {
              "internalType": "string",
              "name": "name",
              "type": "string"
            }
          ],
          "internalType": "struct DataTypes.Permission[]",
          "name": "",
          "type": "tuple[]"
        }
      ],
      "stateMutability": "view",
      "type": "function"
    },
    {
      "inputs": [
        {
          "internalType": "string",
          "name": "spaceId",
          "type": "string"
        },
        {
          "internalType": "uint256",
          "name": "roleId",
          "type": "uint256"
        }
      ],
      "name": "getRoleBySpaceIdByRoleId",
      "outputs": [
        {
          "components": [
            {
              "internalType": "uint256",
              "name": "roleId",
              "type": "uint256"
            },
            {
              "internalType": "string",
              "name": "name",
              "type": "string"
            }
          ],
          "internalType": "struct DataTypes.Role",
          "name": "",
          "type": "tuple"
        }
      ],
      "stateMutability": "view",
      "type": "function"
    },
    {
      "inputs": [
        {
          "internalType": "string",
          "name": "spaceId",
          "type": "string"
        }
      ],
      "name": "getRolesBySpaceId",
      "outputs": [
        {
          "components": [
            {
              "internalType": "uint256",
              "name": "roleId",
              "type": "uint256"
            },
            {
              "internalType": "string",
              "name": "name",
              "type": "string"
            }
          ],
          "internalType": "struct DataTypes.Role[]",
          "name": "",
          "type": "tuple[]"
        }
      ],
      "stateMutability": "view",
      "type": "function"
    },
    {
      "inputs": [
        {
          "internalType": "string",
          "name": "networkId",
          "type": "string"
        }
      ],
      "name": "getSpaceIdByNetworkId",
      "outputs": [
        {
          "internalType": "uint256",
          "name": "",
          "type": "uint256"
        }
      ],
      "stateMutability": "view",
      "type": "function"
    },
    {
      "inputs": [
        {
          "internalType": "string",
          "name": "spaceId",
          "type": "string"
        }
      ],
      "name": "getSpaceInfoBySpaceId",
      "outputs": [
        {
          "components": [
            {
              "internalType": "uint256",
              "name": "spaceId",
              "type": "uint256"
            },
            {
              "internalType": "string",
              "name": "networkId",
              "type": "string"
            },
            {
              "internalType": "uint256",
              "name": "createdAt",
              "type": "uint256"
            },
            {
              "internalType": "string",
              "name": "name",
              "type": "string"
            },
            {
              "internalType": "address",
              "name": "creator",
              "type": "address"
            },
            {
              "internalType": "address",
              "name": "owner",
              "type": "address"
            },
            {
              "internalType": "bool",
              "name": "disabled",
              "type": "bool"
            }
          ],
          "internalType": "struct DataTypes.SpaceInfo",
          "name": "",
          "type": "tuple"
        }
      ],
      "stateMutability": "view",
      "type": "function"
    },
    {
      "inputs": [
        {
          "internalType": "string",
          "name": "spaceId",
          "type": "string"
        }
      ],
      "name": "getSpaceOwnerBySpaceId",
      "outputs": [
        {
          "internalType": "address",
          "name": "ownerAddress",
          "type": "address"
        }
      ],
      "stateMutability": "view",
      "type": "function"
    },
    {
      "inputs": [],
      "name": "getSpaces",
      "outputs": [
        {
          "components": [
            {
              "internalType": "uint256",
              "name": "spaceId",
              "type": "uint256"
            },
            {
              "internalType": "string",
              "name": "networkId",
              "type": "string"
            },
            {
              "internalType": "uint256",
              "name": "createdAt",
              "type": "uint256"
            },
            {
              "internalType": "string",
              "name": "name",
              "type": "string"
            },
            {
              "internalType": "address",
              "name": "creator",
              "type": "address"
            },
            {
              "internalType": "address",
              "name": "owner",
              "type": "address"
            },
            {
              "internalType": "bool",
              "name": "disabled",
              "type": "bool"
            }
          ],
          "internalType": "struct DataTypes.SpaceInfo[]",
          "name": "",
          "type": "tuple[]"
        }
      ],
      "stateMutability": "view",
      "type": "function"
    },
    {
      "inputs": [
        {
          "internalType": "string",
          "name": "spaceId",
          "type": "string"
        },
        {
          "internalType": "string",
          "name": "channelId",
          "type": "string"
        },
        {
          "internalType": "address",
          "name": "user",
          "type": "address"
        },
        {
          "components": [
            {
              "internalType": "string",
              "name": "name",
              "type": "string"
            }
          ],
          "internalType": "struct DataTypes.Permission",
          "name": "permission",
          "type": "tuple"
        }
      ],
      "name": "isEntitled",
      "outputs": [
        {
          "internalType": "bool",
          "name": "",
          "type": "bool"
        }
      ],
      "stateMutability": "view",
      "type": "function"
    },
    {
      "inputs": [
        {
          "internalType": "string",
          "name": "spaceId",
          "type": "string"
        },
        {
          "internalType": "address",
          "name": "entitlementModuleAddress",
          "type": "address"
        }
      ],
      "name": "isEntitlementModuleWhitelisted",
      "outputs": [
        {
          "internalType": "bool",
          "name": "",
          "type": "bool"
        }
      ],
      "stateMutability": "view",
      "type": "function"
    },
    {
      "inputs": [],
      "name": "owner",
      "outputs": [
        {
          "internalType": "address",
          "name": "",
          "type": "address"
        }
      ],
      "stateMutability": "view",
      "type": "function"
    },
    {
      "inputs": [
        {
          "internalType": "string",
          "name": "spaceId",
          "type": "string"
        },
        {
          "internalType": "string",
          "name": "channelId",
          "type": "string"
        },
        {
          "internalType": "address",
          "name": "entitlementModuleAddress",
          "type": "address"
        },
        {
          "internalType": "uint256[]",
          "name": "roleIds",
          "type": "uint256[]"
        },
        {
          "internalType": "bytes",
          "name": "data",
          "type": "bytes"
        }
      ],
      "name": "removeEntitlement",
      "outputs": [],
      "stateMutability": "nonpayable",
      "type": "function"
    },
    {
      "inputs": [
        {
          "internalType": "string",
          "name": "spaceId",
          "type": "string"
        },
        {
          "internalType": "uint256",
          "name": "roleId",
          "type": "uint256"
        },
        {
          "components": [
            {
              "internalType": "string",
              "name": "name",
              "type": "string"
            }
          ],
          "internalType": "struct DataTypes.Permission",
          "name": "permission",
          "type": "tuple"
        }
      ],
      "name": "removePermissionFromRole",
      "outputs": [],
      "stateMutability": "nonpayable",
      "type": "function"
    },
    {
      "inputs": [
        {
          "internalType": "string",
          "name": "spaceId",
          "type": "string"
        },
        {
          "internalType": "uint256",
          "name": "roleId",
          "type": "uint256"
        }
      ],
      "name": "removeRole",
      "outputs": [],
      "stateMutability": "nonpayable",
      "type": "function"
    },
    {
      "inputs": [],
      "name": "renounceOwnership",
      "outputs": [],
      "stateMutability": "nonpayable",
      "type": "function"
    },
    {
      "inputs": [
        {
          "internalType": "string",
          "name": "spaceNetworkId",
          "type": "string"
        },
        {
          "internalType": "string",
          "name": "channelNetworkId",
          "type": "string"
        },
        {
          "internalType": "bool",
          "name": "disabled",
          "type": "bool"
        }
      ],
      "name": "setChannelAccess",
      "outputs": [],
      "stateMutability": "nonpayable",
      "type": "function"
    },
    {
      "inputs": [
        {
          "internalType": "address",
          "name": "entitlementModule",
          "type": "address"
        }
      ],
      "name": "setDefaultTokenEntitlementModule",
      "outputs": [],
      "stateMutability": "nonpayable",
      "type": "function"
    },
    {
      "inputs": [
        {
          "internalType": "address",
          "name": "entitlementModule",
          "type": "address"
        }
      ],
      "name": "setDefaultUserEntitlementModule",
      "outputs": [],
      "stateMutability": "nonpayable",
      "type": "function"
    },
    {
      "inputs": [
        {
          "internalType": "string",
          "name": "spaceNetworkId",
          "type": "string"
        },
        {
          "internalType": "bool",
          "name": "disabled",
          "type": "bool"
        }
      ],
      "name": "setSpaceAccess",
      "outputs": [],
      "stateMutability": "nonpayable",
      "type": "function"
    },
    {
      "inputs": [
        {
          "internalType": "address",
          "name": "spaceNFTAddress",
          "type": "address"
        }
      ],
      "name": "setSpaceNFT",
      "outputs": [],
      "stateMutability": "nonpayable",
      "type": "function"
    },
    {
      "inputs": [
        {
          "internalType": "address",
          "name": "newOwner",
          "type": "address"
        }
      ],
      "name": "transferOwnership",
      "outputs": [],
      "stateMutability": "nonpayable",
      "type": "function"
    },
    {
      "inputs": [
        {
          "internalType": "string",
          "name": "spaceId",
          "type": "string"
        },
        {
          "internalType": "address",
          "name": "entitlementAddress",
          "type": "address"
        },
        {
          "internalType": "bool",
          "name": "whitelist",
          "type": "bool"
        }
      ],
      "name": "whitelistEntitlementModule",
      "outputs": [],
      "stateMutability": "nonpayable",
      "type": "function"
    }
  ],
  "bytecode": {
    "object": "0x60a06040523480156200001157600080fd5b5060405162006146380380620061468339810160408190526200003491620000cb565b8062000040336200007b565b6001600160a01b0381166200006857604051630e52390960e41b815260040160405180910390fd5b6001600160a01b031660805250620000fd565b600080546001600160a01b038381166001600160a01b0319831681178455604051919092169283917f8be0079c531659141344cd1fd0a4f28419497f9722a3daafe3b4186f6b6457e09190a35050565b600060208284031215620000de57600080fd5b81516001600160a01b0381168114620000f657600080fd5b9392505050565b6080516160186200012e600039600081816123a101528181613271015281816138e001526145dc01526160186000f3fe608060405234801561001057600080fd5b506004361061020b5760003560e01c806379960fe11161012a578063b3ff31b2116100bd578063d2192dbf1161008c578063e798ff3f11610071578063e798ff3f1461050f578063f2fde38b14610522578063f86caf831461053557600080fd5b8063d2192dbf146104e9578063e1b7a9e5146104fc57600080fd5b8063b3ff31b214610490578063bbd7358a146104b0578063bf77b663146104c3578063ccde2de3146104d657600080fd5b80638f720f1e116100f95780638f720f1e146104375780639ddd0d6b1461044a5780639ea4d5321461045d578063a3a39cb91461047d57600080fd5b806379960fe1146103e05780637d9a0230146103f35780638b0e905a146104065780638da5cb5b1461041957600080fd5b80634196d1ff116101a257806350c24eef1161017157806350c24eef146103855780637074047c146103a5578063715018a6146103c557806372a29321146103cd57600080fd5b80634196d1ff1461031c5780634832a4ec1461033f5780634bf2abb21461035257806350b88cf71461037257600080fd5b80632a4bdf25116101de5780632a4bdf25146102835780632bb59212146102bb5780633519167c146102db5780633e66eae3146102fb57600080fd5b80630db37ba314610210578063141b64981461023957806315478ca9146102595780631a0396201461026e575b600080fd5b61022361021e36600461474a565b610548565b6040516102309190614806565b60405180910390f35b61024c61024736600461488c565b610844565b60405161023091906148ce565b610261610909565b60405161023091906149b3565b61028161027c366004614a5c565b610ba3565b005b61029661029136600461488c565b610c1a565b60405173ffffffffffffffffffffffffffffffffffffffff9091168152602001610230565b6102ce6102c936600461488c565b610c90565b6040516102309190614a77565b6102ee6102e936600461488c565b610f19565b6040516102309190614a8a565b61030e61030936600461474a565b6111bd565b604051908152602001610230565b61032f61032a366004614b4f565b61123b565b6040519015158152602001610230565b61028161034d366004614bb5565b6112c3565b61036561036036600461488c565b6113a3565b6040516102309190614c4f565b61030e610380366004614cd4565b6114f3565b610398610393366004614e33565b6116fa565b6040516102309190614e68565b6103b86103b3366004614f5f565b611938565b6040516102309190614fab565b610281611a89565b6102816103db366004615034565b611a9d565b61030e6103ee3660046150b8565b611d5e565b610281610401366004614bb5565b611ed0565b610281610414366004614f5f565b611fa7565b60005473ffffffffffffffffffffffffffffffffffffffff16610296565b61030e61044536600461516d565b61207d565b61030e61045836600461488c565b612308565b61047061046b3660046151d8565b612350565b60405161023091906151f1565b61028161048b36600461520c565b612410565b6104a361049e366004614f5f565b612678565b6040516102309190615317565b6102816104be36600461532a565b6127b0565b61032f6104d13660046153e1565b612a2b565b6102816104e4366004614a5c565b612ab7565b61030e6104f736600461474a565b612b2e565b61028161050a366004614a5c565b612c40565b61028161051d366004615487565b612cb7565b610281610530366004614a5c565b612d8f565b6102816105433660046154ee565b612e4b565b6105996040518060c0016040528060008152602001606081526020016000815260200160608152602001600073ffffffffffffffffffffffffffffffffffffffff1681526020016000151581525090565b60006105da86868080601f016020809104026020016040519081016040528093929190818152602001838380828437600092019190915250612f3e92505050565b9050600061065187878080601f01602080910402602001604051908101604052809392919081815260200183838082843760009201919091525050604080516020601f8b018190048102820181019092528981529250899150889081908401838280828437600092019190915250612f5892505050565b6040805160c0810182526000858152600460209081528382208583528082529382208054845291859052928352600201805493945090929183019161069590615535565b80601f01602080910402602001604051908101604052809291908181526020018280546106c190615535565b801561070e5780601f106106e35761010080835404028352916020019161070e565b820191906000526020600020905b8154815290600101906020018083116106f157829003601f168201915b50505091835250506000848152600460209081526040808320868452808352818420600181015484870152938790529091526003909101805491909201919061075690615535565b80601f016020809104026020016040519081016040528092919081815260200182805461078290615535565b80156107cf5780601f106107a4576101008083540402835291602001916107cf565b820191906000526020600020905b8154815290600101906020018083116107b257829003601f168201915b505050918352505060009384526004602081815260408087208688528083528188209093015473ffffffffffffffffffffffffffffffffffffffff81168386015295909652527401000000000000000000000000000000000000000090920460ff161515929091019190915295945050505050565b60606005600061088985858080601f016020809104026020016040519081016040528093929190818152602001838380828437600092019190915250612f3e92505050565b81526020019081526020016000206009018054806020026020016040519081016040528092919081815260200182805480156108fb57602002820191906000526020600020905b815473ffffffffffffffffffffffffffffffffffffffff1681526001909101906020018083116108d0575b505050505090505b92915050565b6060600060015467ffffffffffffffff81111561092857610928614d09565b6040519080825280602002602001820160405280156109c757816020015b6109b46040518060e0016040528060008152602001606081526020016000815260200160608152602001600073ffffffffffffffffffffffffffffffffffffffff168152602001600073ffffffffffffffffffffffffffffffffffffffff1681526020016000151581525090565b8152602001906001900390816109465790505b50905060005b600154811015610b9d5760006005816109e78460016155b1565b815260200190815260200160002090506040518060e0016040528082600001548152602001826002018054610a1b90615535565b80601f0160208091040260200160405190810160405280929190818152602001828054610a4790615535565b8015610a945780601f10610a6957610100808354040283529160200191610a94565b820191906000526020600020905b815481529060010190602001808311610a7757829003601f168201915b5050505050815260200182600101548152602001826003018054610ab790615535565b80601f0160208091040260200160405190810160405280929190818152602001828054610ae390615535565b8015610b305780601f10610b0557610100808354040283529160200191610b30565b820191906000526020600020905b815481529060010190602001808311610b1357829003601f168201915b5050509183525050600483015473ffffffffffffffffffffffffffffffffffffffff90811660208301526005840154166040820152600783015460ff1615156060909101528351849084908110610b8957610b896155c4565b6020908102919091010152506001016109cd565b50919050565b610bab612fab565b600c80547fffffffffffffffffffffffff00000000000000000000000000000000000000001673ffffffffffffffffffffffffffffffffffffffff83169081179091556040517f07b136952c7460e1fc2d593fad96b5b379f28cc13a49857b6a825c5228c1a8d190600090a250565b600060056000610c5f85858080601f016020809104026020016040519081016040528093929190818152602001838380828437600092019190915250612f3e92505050565b815260208101919091526040016000206005015473ffffffffffffffffffffffffffffffffffffffff169392505050565b610cfe6040518060e0016040528060008152602001606081526020016000815260200160608152602001600073ffffffffffffffffffffffffffffffffffffffff168152602001600073ffffffffffffffffffffffffffffffffffffffff1681526020016000151581525090565b6000610d3f84848080601f016020809104026020016040519081016040528093929190818152602001838380828437600092019190915250612f3e92505050565b6040805160e081018252600083815260056020818152938220805484529185905283526002018054939450909291830191610d7990615535565b80601f0160208091040260200160405190810160405280929190818152602001828054610da590615535565b8015610df25780601f10610dc757610100808354040283529160200191610df2565b820191906000526020600020905b815481529060010190602001808311610dd557829003601f168201915b5050505050815260200160056000848152602001908152602001600020600101548152602001600560008481526020019081526020016000206003018054610e3990615535565b80601f0160208091040260200160405190810160405280929190818152602001828054610e6590615535565b8015610eb25780601f10610e8757610100808354040283529160200191610eb2565b820191906000526020600020905b815481529060010190602001808311610e9557829003601f168201915b50505091835250506000838152600560208181526040808420600481015473ffffffffffffffffffffffffffffffffffffffff9081168488015281850154169186019190915295909252905260079092015460ff1615156060909201919091529392505050565b60606000610f5c84848080601f016020809104026020016040519081016040528093929190818152602001838380828437600092019190915250612f3e92505050565b6000818152600560205260408120600901549192509067ffffffffffffffff811115610f8a57610f8a614d09565b604051908082528060200260200182016040528015610ff557816020015b610fe26040518060600160405280600073ffffffffffffffffffffffffffffffffffffffff16815260200160608152602001606081525090565b815260200190600190039081610fa85790505b506000838152600560205260408120600901549192505b818110156111b2576000848152600560205260408120600901805483908110611037576110376155c4565b60009182526020909120015473ffffffffffffffffffffffffffffffffffffffff1690508061106657506111a0565b600060405180606001604052808373ffffffffffffffffffffffffffffffffffffffff1681526020018373ffffffffffffffffffffffffffffffffffffffff166306fdde036040518163ffffffff1660e01b8152600401600060405180830381865afa1580156110da573d6000803e3d6000fd5b505050506040513d6000823e601f3d908101601f191682016040526111029190810190615638565b81526020018373ffffffffffffffffffffffffffffffffffffffff16637284e4166040518163ffffffff1660e01b8152600401600060405180830381865afa158015611152573d6000803e3d6000fd5b505050506040513d6000823e601f3d908101601f1916820160405261117a9190810190615638565b815250905080858481518110611192576111926155c4565b602002602001018190525050505b806111aa8161566d565b91505061100c565b509095945050505050565b600061123285858080601f01602080910402602001604051908101604052809392919081815260200183838082843760009201919091525050604080516020601f89018190048102820181019092528781529250879150869081908401838280828437600092019190915250612f5892505050565b95945050505050565b60006005600061128086868080601f016020809104026020016040519081016040528093929190818152602001838380828437600092019190915250612f3e92505050565b81526020808201929092526040908101600090812073ffffffffffffffffffffffffffffffffffffffff8616825260080190925290205460ff1690509392505050565b83838080601f016020809104026020016040519081016040528093929190818152602001838380828437600092018290525060408051602080820183529281528151808301909252601882527f4d6f646966794368616e6e656c5065726d697373696f6e730000000000000000928201929092529093509150611349905083838361302c565b61139a61138b88888080601f016020809104026020016040519081016040528093929190818152602001838380828437600092019190915250612f3e92505050565b86611395876156a5565b6130fb565b50505050505050565b6060600660006113e885858080601f016020809104026020016040519081016040528093929190818152602001838380828437600092019190915250612f3e92505050565b8152602001908152602001600020600101805480602002602001604051908101604052809291908181526020016000905b828210156114e757838290600052602060002090600202016040518060400160405290816000820154815260200160018201805461145690615535565b80601f016020809104026020016040519081016040528092919081815260200182805461148290615535565b80156114cf5780601f106114a4576101008083540402835291602001916114cf565b820191906000526020600020905b8154815290600101906020018083116114b257829003601f168201915b50505050508152505081526020019060010190611419565b50505050905092915050565b60006114fd61326f565b6000611508836133c9565b600d5490915073ffffffffffffffffffffffffffffffffffffffff1663b4b715c482336040517fffffffff0000000000000000000000000000000000000000000000000000000060e085901b168152600481019290925273ffffffffffffffffffffffffffffffffffffffff166024820152604401600060405180830381600087803b15801561159757600080fd5b505af11580156115ab573d6000803e3d6000fd5b5050600b546115d5925083915073ffffffffffffffffffffffffffffffffffffffff166001613468565b600c546115fb90829073ffffffffffffffffffffffffffffffffffffffff166001613468565b60006116488261160e60208701876156eb565b8080601f01602080910402602001604051908101604052809392919081815260200183838082843760009201919091525061377592505050565b60008381526005602090815260409091206006018290559091506116ae908390611674908701876156eb565b8080601f01602080910402602001604051908101604052809392919081815260200183838082843760009201919091525061383592505050565b503380837f9d575dd5f8c535bc0f29f0993aa2580a10f030e244e416fbfdc70ddb8e9935f16116dd88806156eb565b6040516116eb92919061577b565b60405180910390a45092915050565b604080518082019091526000815260606020820152600061172f83805160209182012060009081526002909152604090205490565b60008181526007602090815260408083208151808301835281548152600182018054845181870281018701909552808552969750909591948685019491929184015b8282101561192957838290600052602060002090600502016040518060c001604052908160008201548152602001600182015481526020016002820180546117b890615535565b80601f01602080910402602001604051908101604052809291908181526020018280546117e490615535565b80156118315780601f1061180657610100808354040283529160200191611831565b820191906000526020600020905b81548152906001019060200180831161181457829003601f168201915b5050505050815260200160038201805461184a90615535565b80601f016020809104026020016040519081016040528092919081815260200182805461187690615535565b80156118c35780601f10611898576101008083540402835291602001916118c3565b820191906000526020600020905b8154815290600101906020018083116118a657829003601f168201915b50505091835250506004919091015473ffffffffffffffffffffffffffffffffffffffff81166020808401919091527401000000000000000000000000000000000000000090910460ff1615156040909201919091529082526001929092019101611771565b50505091525090949350505050565b60606009600061197d86868080601f016020809104026020016040519081016040528093929190818152602001838380828437600092019190915250612f3e92505050565b81526020019081526020016000206000838152602001908152602001600020805480602002602001604051908101604052809291908181526020016000905b82821015611a7c578382906000526020600020016040518060200160405290816000820180546119eb90615535565b80601f0160208091040260200160405190810160405280929190818152602001828054611a1790615535565b8015611a645780601f10611a3957610100808354040283529160200191611a64565b820191906000526020600020905b815481529060010190602001808311611a4757829003601f168201915b505050505081525050815260200190600101906119bc565b5050505090509392505050565b611a91612fab565b611a9b60006139a9565b565b84848080601f01602080910402602001604051908101604052809392919081815260200183838082843760009201919091525050604080516020601f880181900481028201810190925286815292508691508590819084018382808284376000920191909152505060408051808201909152601881527f4d6f646966794368616e6e656c5065726d697373696f6e73000000000000000060208201529150611b48905083838361302c565b611b8788888080601f016020809104026020016040519081016040528093929190818152602001838380828437600092019190915250613a1e92505050565b6000611bfc89898080601f01602080910402602001604051908101604052809392919081815260200183838082843760009201919091525050604080516020601f8d018190048102820181019092528b815292508b91508a9081908401838280828437600092019190915250612f5892505050565b905080600003611c38576040517f6ddd9da900000000000000000000000000000000000000000000000000000000815260040160405180910390fd5b6000611c798a8a8080601f016020809104026020016040519081016040528093929190818152602001838380828437600092019190915250612f3e92505050565b90506000611cf08b8b8080601f01602080910402602001604051908101604052809392919081815260200183838082843760009201919091525050604080516020601f8f018190048102820181019092528d815292508d91508c9081908401838280828437600092019190915250612f5892505050565b60009283526004602081815260408086209386529290529220909101805496151574010000000000000000000000000000000000000000027fffffffffffffffffffffff00ffffffffffffffffffffffffffffffffffffffff90971696909617909555505050505050505050565b60008160000151604051806020016040528060008152506040518060400160405280601181526020017f41646452656d6f76654368616e6e656c73000000000000000000000000000000815250611db683838361302c565b8451611dc190613a1e565b8451805160209182012060009081526002909152604081205490611de58288613aca565b9050600080600080611e4786600d5460408051808201909152600f81527f5370616365204f776e6572204e4654000000000000000000000000000000000060208201529273ffffffffffffffffffffffffffffffffffffffff90911691600191565b9350935093509350611ec18b600001518c60400151600c60009054906101000a900473ffffffffffffffffffffffffffffffffffffffff16600560008b81526020019081526020016000206006015488888888604051602001611ead949392919061578f565b604051602081830303815290604052613c7b565b50929998505050505050505050565b83838080601f016020809104026020016040519081016040528093929190818152602001838380828437600092018290525060408051602080820183529281528151808301909252601882527f4d6f646966794368616e6e656c5065726d697373696f6e730000000000000000928201929092529093509150611f56905083838361302c565b61139a611f9888888080601f016020809104026020016040519081016040528093929190818152602001838380828437600092019190915250612f3e92505050565b86611fa2876156a5565b613d8c565b82828080601f016020809104026020016040519081016040528093929190818152602001838380828437600092018290525060408051602080820183529281528151808301909252601882527f4d6f646966794368616e6e656c5065726d697373696f6e73000000000000000092820192909252909350915061202d905083838361302c565b61207561206f87878080601f016020809104026020016040519081016040528093929190818152602001838380828437600092019190915250612f3e92505050565b85613dc6565b505050505050565b600061208761326f565b6000612092846133c9565b600b549091506120bb90829073ffffffffffffffffffffffffffffffffffffffff166001613468565b600c546120e190829073ffffffffffffffffffffffffffffffffffffffff166001613468565b6120f28161160e60208701876156eb565b506121048161167460208701876156eb565b50600061211460a08501856157d4565b9150600090506121658361212b60c08801886156eb565b8080601f01602080910402602001604051908101604052809392919081815260200183838082843760009201919091525061401292505050565b905081156121ff5760005b828110156121fd576121f5848360405180602001604052808a8060a0019061219891906157d4565b878181106121a8576121a86155c4565b90506020028101906121ba91906156eb565b8080601f0160208091040260200160405190810160405280939291908181526020018383808284376000920191909152505050915250613d8c565b600101612170565b505b6122ba61220f60208801886156eb565b8080601f016020809104026020016040519081016040528093929190818152602001838380828437600092018290525060408051602081018252918252600c5491945073ffffffffffffffffffffffffffffffffffffffff909116925086915061227b908b018b6156eb565b61228860208d018d614a5c565b8c602001358d60600160208101906122a0919061583c565b8e60800135604051602001611ead96959493929190615859565b3380847f9d575dd5f8c535bc0f29f0993aa2580a10f030e244e416fbfdc70ddb8e9935f16122e88a806156eb565b6040516122f692919061577b565b60405180910390a45090949350505050565b600061234983838080601f016020809104026020016040519081016040528093929190818152602001838380828437600092019190915250612f3e92505050565b9392505050565b604080516020810182526060815290517f173c4a630000000000000000000000000000000000000000000000000000000081526004810183905273ffffffffffffffffffffffffffffffffffffffff7f0000000000000000000000000000000000000000000000000000000000000000169063173c4a6390602401600060405180830381865afa1580156123e8573d6000803e3d6000fd5b505050506040513d6000823e601f3d908101601f1916820160405261090391908101906158e7565b88888080601f01602080910402602001604051908101604052809392919081815260200183838082843760009201919091525050604080516020601f8c018190048102820181019092528a815292508a91508990819084018382808284376000920191909152505060408051808201909152601881527f4d6f646966794368616e6e656c5065726d697373696f6e730000000000000000602082015291506124bb905083838361302c565b6124fa8c8c8080601f016020809104026020016040519081016040528093929190818152602001838380828437600092019190915250613a1e92505050565b8815612584576125848c8c8080601f016020809104026020016040519081016040528093929190818152602001838380828437600081840152601f19601f820116905080830192505050505050508b8b8080601f0160208091040260200160405190810160405280939291908181526020018383808284376000920191909152506140e792505050565b61258d88614138565b6126138c8c8c8c8c8c8c80806020026020016040519081016040528093929190818152602001838360200280828437600081840152601f19601f820116905080830192505050505050508b8b8080601f01602080910402602001604051908101604052809392919081815260200183838082843760009201919091525061422192505050565b8773ffffffffffffffffffffffffffffffffffffffff168c8c60405161263a92919061591c565b604051908190038120907f9b42a541e0a10f6a80059e1448b92d56a4e71354d43a2ca1fd3701878cb50ae290600090a3505050505050505050505050565b604080518082019091526000815260606020820152600660006126d086868080601f016020809104026020016040519081016040528093929190818152602001838380828437600092019190915250612f3e92505050565b815260200190815260200160002060010182815481106126f2576126f26155c4565b90600052602060002090600202016040518060400160405290816000820154815260200160018201805461272590615535565b80601f016020809104026020016040519081016040528092919081815260200182805461275190615535565b801561279e5780601f106127735761010080835404028352916020019161279e565b820191906000526020600020905b81548152906001019060200180831161278157829003601f168201915b50505050508152505090509392505050565b87878080601f01602080910402602001604051908101604052809392919081815260200183838082843760009201919091525050604080516020601f8b0181900481028201810190925289815292508991508890819084018382808284376000920191909152505060408051808201909152601881527f4d6f646966794368616e6e656c5065726d697373696f6e7300000000000000006020820152915061285b905083838361302c565b61289a8b8b8080601f016020809104026020016040519081016040528093929190818152602001838380828437600092019190915250613a1e92505050565b8715612913576129138b8b8080601f01602080910402602001604051908101604052809392919081815260200183838082843760009201919091525050604080516020601f8f018190048102820181019092528d815292508d91508c90819084018382808284376000920191909152506140e792505050565b61291c87614138565b6129c78b8b8080601f01602080910402602001604051908101604052809392919081815260200183838082843760009201919091525050604080516020601f8f018190048102820181019092528d815292508d91508c908190840183828082843760009201919091525050604080516020601f8c018190048102820181019092528a81528d93508c9250908b908b9081908401838280828437600092019190915250613c7b92505050565b8673ffffffffffffffffffffffffffffffffffffffff168b8b6040516129ee92919061591c565b604051908190038120907fe78ad18845af93a80fbe8718cacc631fbe1c453b092806818a044440b96ba67790600090a35050505050505050505050565b6000612aac87878080601f01602080910402602001604051908101604052809392919081815260200183838082843760009201919091525050604080516020601f8b018190048102820181019092528981529250899150889081908401838280828437600092019190915250889250612aa791508790506156a5565b614355565b979650505050505050565b612abf612fab565b600d80547fffffffffffffffffffffffff00000000000000000000000000000000000000001673ffffffffffffffffffffffffffffffffffffffff83169081179091556040517f68e3ca42e475f54d65227ed8cb60daf9cec4546691052783063876ad972db71190600090a250565b600084848080601f016020809104026020016040519081016040528093929190818152602001838380828437600092018290525060408051602080820183529281528151808301909252601882527f4d6f646966794368616e6e656c5065726d697373696f6e730000000000000000928201929092529093509150612bb6905083838361302c565b612c34612bf889898080601f016020809104026020016040519081016040528093929190818152602001838380828437600092019190915250612f3e92505050565b87878080601f01602080910402602001604051908101604052809392919081815260200183838082843760009201919091525061401292505050565b98975050505050505050565b612c48612fab565b600b80547fffffffffffffffffffffffff00000000000000000000000000000000000000001673ffffffffffffffffffffffffffffffffffffffff83169081179091556040517f07b136952c7460e1fc2d593fad96b5b379f28cc13a49857b6a825c5228c1a8d190600090a250565b83838080601f016020809104026020016040519081016040528093929190818152602001838380828437600092018290525060408051602080820183529281528151808301909252601682527f4d6f6469667953706163655065726d697373696f6e7300000000000000000000928201929092529093509150612d3d905083838361302c565b612d4685614138565b61139a612d8888888080601f016020809104026020016040519081016040528093929190818152602001838380828437600092019190915250612f3e92505050565b8686613468565b612d97612fab565b73ffffffffffffffffffffffffffffffffffffffff8116612e3f576040517f08c379a000000000000000000000000000000000000000000000000000000000815260206004820152602660248201527f4f776e61626c653a206e6577206f776e657220697320746865207a65726f206160448201527f646472657373000000000000000000000000000000000000000000000000000060648201526084015b60405180910390fd5b612e48816139a9565b50565b81604051806020016040528060008152506040518060400160405280601681526020017f4d6f6469667953706163655065726d697373696f6e7300000000000000000000815250612e9d83838361302c565b6000612ebd86805160209182012060009081526002909152604090205490565b905080600003612ef9576040517fbe34080700000000000000000000000000000000000000000000000000000000815260040160405180910390fd5b600090815260056020526040902060070180547fffffffffffffffffffffffffffffffffffffffffffffffffffffffffffffff00169415159490941790935550505050565b805160209182012060009081526002909152604090205490565b600060036000612f7c85805160209182012060009081526002909152604090205490565b815260200190815260200160002060008380519060200120815260200190815260200160002054905092915050565b60005473ffffffffffffffffffffffffffffffffffffffff163314611a9b576040517f08c379a000000000000000000000000000000000000000000000000000000000815260206004820181905260248201527f4f776e61626c653a2063616c6c6572206973206e6f7420746865206f776e65726044820152606401612e36565b3330148061309a57506005600061305785805160209182012060009081526002909152604090205490565b815260208101919091526040016000206005015473ffffffffffffffffffffffffffffffffffffffff163373ffffffffffffffffffffffffffffffffffffffff16145b806130ba57506130ba838333604051806020016040528086815250614355565b156130c457505050565b6040517f3d693ada00000000000000000000000000000000000000000000000000000000815260040160405180910390fd5b505050565b60008381526009602090815260408083208584529091528120805490915b81811015612075576131d6846000015184838154811061313b5761313b6155c4565b90600052602060002001600001805461315390615535565b80601f016020809104026020016040519081016040528092919081815260200182805461317f90615535565b80156131cc5780601f106131a1576101008083540402835291602001916131cc565b820191906000526020600020905b8154815290600101906020018083116131af57829003601f168201915b50505050506144b1565b1561326757826131e760018461592c565b815481106131f7576131f76155c4565b90600052602060002001838281548110613213576132136155c4565b6000918252602090912001806132298382615985565b509050508280548061323d5761323d615a9e565b600190038181906000526020600020016000808201600061325e91906146b3565b50509055612075565b600101613119565b7f000000000000000000000000000000000000000000000000000000000000000073ffffffffffffffffffffffffffffffffffffffff166132dc576040517f361882e300000000000000000000000000000000000000000000000000000000815260040160405180910390fd5b600b5473ffffffffffffffffffffffffffffffffffffffff1661332b576040517f2ab51add00000000000000000000000000000000000000000000000000000000815260040160405180910390fd5b600c5473ffffffffffffffffffffffffffffffffffffffff1661337a576040517f2ab51add00000000000000000000000000000000000000000000000000000000815260040160405180910390fd5b600d5473ffffffffffffffffffffffffffffffffffffffff16611a9b576040517f345d02c000000000000000000000000000000000000000000000000000000000815260040160405180910390fd5b600180548101908190556040517faa424abb0000000000000000000000000000000000000000000000000000000081526000919073__$a3850c79b56376fa7983472f601544d59e$__9063aa424abb9061343190869085903390600290600590600401615b31565b60006040518083038186803b15801561344957600080fd5b505af415801561345d573d6000803e3d6000fd5b509295945050505050565b8080156134a75750600083815260056020908152604080832073ffffffffffffffffffffffffffffffffffffffff8616845260080190915290205460ff165b156134de576040517f186abc9b00000000000000000000000000000000000000000000000000000000815260040160405180910390fd5b600083815260056020908152604080832073ffffffffffffffffffffffffffffffffffffffff86168452600801909152902080547fffffffffffffffffffffffffffffffffffffffffffffffffffffffffffffff001682158015919091179091556135a957600083815260056020908152604082206009018054600181018255908352912001805473ffffffffffffffffffffffffffffffffffffffff84167fffffffffffffffffffffffff0000000000000000000000000000000000000000909116179055505050565b600083815260056020526040812060090154905b8181101561376e576000858152600560205260409020600901805473ffffffffffffffffffffffffffffffffffffffff8616919083908110613601576136016155c4565b60009182526020909120015473ffffffffffffffffffffffffffffffffffffffff160361376657600085815260056020526040902060090161364460018461592c565b81548110613654576136546155c4565b600091825260208083209091015487835260059091526040909120600901805473ffffffffffffffffffffffffffffffffffffffff909216918390811061369d5761369d6155c4565b600091825260208083209190910180547fffffffffffffffffffffffff00000000000000000000000000000000000000001673ffffffffffffffffffffffffffffffffffffffff949094169390931790925586815260059091526040902060090180548061370d5761370d615a9e565b60008281526020902081017fffffffffffffffffffffffffffffffffffffffffffffffffffffffffffffffff90810180547fffffffffffffffffffffffff00000000000000000000000000000000000000001690550190555b6001016135bd565b5050505050565b60008060008060006137d787600d5460408051808201909152600f81527f5370616365204f776e6572204e4654000000000000000000000000000000000060208201529273ffffffffffffffffffffffffffffffffffffffff90911691600191565b935093509350935060006137ea88614579565b604080516020808201835260008252600c549251939450612aac938b9373ffffffffffffffffffffffffffffffffffffffff16918691611ead918c918c918c916001918d9101615bd8565b600080613877846040518060400160405280600881526020017f45766572796f6e65000000000000000000000000000000000000000000000000815250614012565b6040517f173c4a630000000000000000000000000000000000000000000000000000000081527f2b3d061cc9a05a241dd71f0a41723b519b0e5797b2389fcc6f98c31433922d4d600482015290915060009073ffffffffffffffffffffffffffffffffffffffff7f0000000000000000000000000000000000000000000000000000000000000000169063173c4a6390602401600060405180830381865afa158015613927573d6000803e3d6000fd5b505050506040513d6000823e601f3d908101601f1916820160405261394f91908101906158e7565b905061395c858383613d8c565b604080516020808201835260008252600b5483516001928101929092526139a19388939273ffffffffffffffffffffffffffffffffffffffff90921691879101611ead565b509392505050565b6000805473ffffffffffffffffffffffffffffffffffffffff8381167fffffffffffffffffffffffff0000000000000000000000000000000000000000831681178455604051919092169283917f8be0079c531659141344cd1fd0a4f28419497f9722a3daafe3b4186f6b6457e09190a35050565b6000613a3e82805160209182012060009081526002909152604090205490565b905080600003613a7a576040517fbe34080700000000000000000000000000000000000000000000000000000000815260040160405180910390fd5b60008181526005602052604090206007015460ff1615613ac6576040517fbe34080700000000000000000000000000000000000000000000000000000000815260040160405180910390fd5b5050565b60008281526007602052604080822080546001019081905590517fca61675700000000000000000000000000000000000000000000000000000000815273__$a3850c79b56376fa7983472f601544d59e$__9063ca61675790613b3c9086908890869033906003906004908101615c25565b60006040518083038186803b158015613b5457600080fd5b505af4158015613b68573d6000803e3d6000fd5b50505060008581526007602090815260408083206004835281842086855283529083206001918201805480840182559085529290932083546005909302019182558281015490820155909150600280820190613bc690840182615985565b50600381810190613bd990840182615985565b506004918201805491909201805473ffffffffffffffffffffffffffffffffffffffff9092167fffffffffffffffffffffffff000000000000000000000000000000000000000083168117825592547fffffffffffffffffffffff000000000000000000000000000000000000000000909216909217740100000000000000000000000000000000000000009182900460ff1615159091021790559392505050565b84516020808701919091206000908152600282526040808220548083526005845281832073ffffffffffffffffffffffffffffffffffffffff8816845260080190935290205460ff16613cfa576040517fc1ef36f300000000000000000000000000000000000000000000000000000000815260040160405180910390fd5b6040517fc800fec400000000000000000000000000000000000000000000000000000000815273ffffffffffffffffffffffffffffffffffffffff85169063c800fec490613d52908990899088908890600401615cde565b600060405180830381600087803b158015613d6c57600080fd5b505af1158015613d80573d6000803e3d6000fd5b50505050505050505050565b6000838152600960209081526040808320858452825282208054600181018255908352912082518392919091019081906120759082615d1d565b6000828152600660205260408120600101805490915b8181101561376e57828181548110613df657613df66155c4565b906000526020600020906002020160000154840361400a576000858152600960209081526040808320878452825280832080548251818502810185019093528083529192909190849084015b82821015613f0257838290600052602060002001604051806020016040529081600082018054613e7190615535565b80601f0160208091040260200160405190810160405280929190818152602001828054613e9d90615535565b8015613eea5780601f10613ebf57610100808354040283529160200191613eea565b820191906000526020600020905b815481529060010190602001808311613ecd57829003601f168201915b50505050508152505081526020019060010190613e42565b5050825192935060009150505b81811015613f4357613f3b8888858481518110613f2e57613f2e6155c4565b60200260200101516130fb565b600101613f0f565b5084613f5060018661592c565b81548110613f6057613f606155c4565b9060005260206000209060020201858481548110613f8057613f806155c4565b600091825260209091208254600290920201908155600180820190613fa790840182615985565b5090505084805480613fbb57613fbb615a9e565b60008281526020812060027fffffffffffffffffffffffffffffffffffffffffffffffffffffffffffffffff9093019283020181815590613fff60018301826146b3565b50509055505061376e565b600101613ddc565b6000828152600660205260408120805482918261402e8361566d565b909155506000858152600660209081526040808320815180830190925284825281830188815260019182018054808401825590865293909420825160029094020192835592519394509290918201906140879082615d1d565b5050506140913390565b73ffffffffffffffffffffffffffffffffffffffff1681857ff2acd80042599c3a4a989c076d6230de719e2710947bd49c55f69372abda1583866040516140d89190615e11565b60405180910390a49392505050565b6140f082613a1e565b60006140fc8383612f58565b9050806000036130f6576040517f6ddd9da900000000000000000000000000000000000000000000000000000000815260040160405180910390fd5b6040517f01ffc9a70000000000000000000000000000000000000000000000000000000081527fa4bfe65900000000000000000000000000000000000000000000000000000000600482015273ffffffffffffffffffffffffffffffffffffffff8216906301ffc9a790602401602060405180830381865afa1580156141c2573d6000803e3d6000fd5b505050506040513d601f19601f820116820180604052508101906141e69190615e24565b1515600003612e48576040517fdb24a1e200000000000000000000000000000000000000000000000000000000815260040160405180910390fd5b600060026000898960405161423792919061591c565b604080519182900390912082526020808301939093529081016000908120548082526005845282822073ffffffffffffffffffffffffffffffffffffffff89168352600801909352205490915060ff166142bd576040517fc1ef36f300000000000000000000000000000000000000000000000000000000815260040160405180910390fd5b6040517f257f5ea900000000000000000000000000000000000000000000000000000000815273ffffffffffffffffffffffffffffffffffffffff85169063257f5ea990614319908b908b908b908b908a908a90600401615e41565b600060405180830381600087803b15801561433357600080fd5b505af1158015614347573d6000803e3d6000fd5b505050505050505050505050565b60008061437686805160209182012060009081526002909152604090205490565b60008181526005602052604081206009015491925090815b818110156144a45760008481526005602052604081206009018054839081106143b9576143b96155c4565b60009182526020909120015473ffffffffffffffffffffffffffffffffffffffff169050806143e85750614492565b6040517fbf77b66300000000000000000000000000000000000000000000000000000000815273ffffffffffffffffffffffffffffffffffffffff82169063bf77b66390614440908d908d908d908d90600401615ec1565b602060405180830381865afa15801561445d573d6000803e3d6000fd5b505050506040513d601f19601f820116820180604052508101906144819190615e24565b156144905760019350506144a4565b505b8061449c8161566d565b91505061438e565b5090979650505050505050565b81518151600091849184919081146144cf5760009350505050610903565b60005b8181101561456c578281815181106144ec576144ec6155c4565b602001015160f81c60f81b7effffffffffffffffffffffffffffffffffffffffffffffffffffffffffffff191684828151811061452b5761452b6155c4565b01602001517fff000000000000000000000000000000000000000000000000000000000000001614614564576000945050505050610903565b6001016144d2565b5060019695505050505050565b6000806145bb836040518060400160405280600581526020017f4f776e6572000000000000000000000000000000000000000000000000000000815250614012565b905080600560008581526020019081526020016000206006018190555060007f000000000000000000000000000000000000000000000000000000000000000073ffffffffffffffffffffffffffffffffffffffff1663b989e2c56040518163ffffffff1660e01b8152600401600060405180830381865afa158015614645573d6000803e3d6000fd5b505050506040513d6000823e601f3d908101601f1916820160405261466d9190810190615f1f565b805190915060005b818110156146a9576146a18685858481518110614694576146946155c4565b6020026020010151613d8c565b600101614675565b5091949350505050565b5080546146bf90615535565b6000825580601f106146cf575050565b601f016020900490600052602060002090810190612e4891905b808211156146fd57600081556001016146e9565b5090565b60008083601f84011261471357600080fd5b50813567ffffffffffffffff81111561472b57600080fd5b60208301915083602082850101111561474357600080fd5b9250929050565b6000806000806040858703121561476057600080fd5b843567ffffffffffffffff8082111561477857600080fd5b61478488838901614701565b9096509450602087013591508082111561479d57600080fd5b506147aa87828801614701565b95989497509550505050565b60005b838110156147d15781810151838201526020016147b9565b50506000910152565b600081518084526147f28160208601602086016147b6565b601f01601f19169290920160200192915050565b60208152815160208201526000602083015160c0604084015261482c60e08401826147da565b9050604084015160608401526060840151601f1984830301608085015261485382826147da565b91505073ffffffffffffffffffffffffffffffffffffffff60808501511660a084015260a0840151151560c08401528091505092915050565b6000806020838503121561489f57600080fd5b823567ffffffffffffffff8111156148b657600080fd5b6148c285828601614701565b90969095509350505050565b6020808252825182820181905260009190848201906040850190845b8181101561491c57835173ffffffffffffffffffffffffffffffffffffffff16835292840192918401916001016148ea565b50909695505050505050565b805182526000602082015160e0602085015261494760e08501826147da565b9050604083015160408501526060830151848203606086015261496a82826147da565b915050608083015173ffffffffffffffffffffffffffffffffffffffff80821660808701528060a08601511660a0870152505060c0830151151560c08501528091505092915050565b6000602080830181845280855180835260408601915060408160051b870101925083870160005b82811015614a26577fffffffffffffffffffffffffffffffffffffffffffffffffffffffffffffffc0888603018452614a14858351614928565b945092850192908501906001016149da565b5092979650505050505050565b803573ffffffffffffffffffffffffffffffffffffffff81168114614a5757600080fd5b919050565b600060208284031215614a6e57600080fd5b61234982614a33565b6020815260006123496020830184614928565b60006020808301818452808551808352604092508286019150828160051b87010184880160005b83811015614b41577fffffffffffffffffffffffffffffffffffffffffffffffffffffffffffffffc08984030185528151606073ffffffffffffffffffffffffffffffffffffffff825116855288820151818a870152614b13828701826147da565b91505087820151915084810388860152614b2d81836147da565b968901969450505090860190600101614ab1565b509098975050505050505050565b600080600060408486031215614b6457600080fd5b833567ffffffffffffffff811115614b7b57600080fd5b614b8786828701614701565b9094509250614b9a905060208501614a33565b90509250925092565b600060208284031215610b9d57600080fd5b60008060008060608587031215614bcb57600080fd5b843567ffffffffffffffff80821115614be357600080fd5b614bef88838901614701565b9096509450602087013593506040870135915080821115614c0f57600080fd5b50614c1c87828801614ba3565b91505092959194509250565b805182526000602082015160406020850152614c4760408501826147da565b949350505050565b6000602080830181845280855180835260408601915060408160051b870101925083870160005b82811015614a26577fffffffffffffffffffffffffffffffffffffffffffffffffffffffffffffffc0888603018452614cb0858351614c28565b94509285019290850190600101614c76565b600060408284031215610b9d57600080fd5b600060208284031215614ce657600080fd5b813567ffffffffffffffff811115614cfd57600080fd5b614c4784828501614cc2565b7f4e487b7100000000000000000000000000000000000000000000000000000000600052604160045260246000fd5b6040516060810167ffffffffffffffff81118282101715614d5b57614d5b614d09565b60405290565b6040516020810167ffffffffffffffff81118282101715614d5b57614d5b614d09565b604051601f8201601f1916810167ffffffffffffffff81118282101715614dad57614dad614d09565b604052919050565b600067ffffffffffffffff821115614dcf57614dcf614d09565b50601f01601f191660200190565b600082601f830112614dee57600080fd5b8135614e01614dfc82614db5565b614d84565b818152846020838601011115614e1657600080fd5b816020850160208301376000918101602001919091529392505050565b600060208284031215614e4557600080fd5b813567ffffffffffffffff811115614e5c57600080fd5b614c4784828501614ddd565b6000602080835260608084018551838601528286015160408081880152828251808552608094508489019150848160051b8a0101878501945060005b82811015614f50577fffffffffffffffffffffffffffffffffffffffffffffffffffffffffffffff808b8303018452855160c0815184528a8201518b850152868201518188860152614ef8828601826147da565b915050898201518482038b860152614f1082826147da565b838b015173ffffffffffffffffffffffffffffffffffffffff16868c015260a0938401511515939095019290925250509488019492880192600101614ea4565b509a9950505050505050505050565b600080600060408486031215614f7457600080fd5b833567ffffffffffffffff811115614f8b57600080fd5b614f9786828701614701565b909790965060209590950135949350505050565b6000602080830181845280855180835260408601915060408160051b870101925083870160005b82811015614a26577fffffffffffffffffffffffffffffffffffffffffffffffffffffffffffffffc0888603018452815151868652615013878701826147da565b9550509285019290850190600101614fd2565b8015158114612e4857600080fd5b60008060008060006060868803121561504c57600080fd5b853567ffffffffffffffff8082111561506457600080fd5b61507089838a01614701565b9097509550602088013591508082111561508957600080fd5b5061509688828901614701565b90945092505060408601356150aa81615026565b809150509295509295909350565b6000602082840312156150ca57600080fd5b813567ffffffffffffffff808211156150e257600080fd5b90830190606082860312156150f657600080fd5b6150fe614d38565b82358281111561510d57600080fd5b61511987828601614ddd565b82525060208301358281111561512e57600080fd5b61513a87828601614ddd565b60208301525060408301358281111561515257600080fd5b61515e87828601614ddd565b60408301525095945050505050565b6000806040838503121561518057600080fd5b823567ffffffffffffffff8082111561519857600080fd5b6151a486838701614cc2565b935060208501359150808211156151ba57600080fd5b50830160e081860312156151cd57600080fd5b809150509250929050565b6000602082840312156151ea57600080fd5b5035919050565b6020815260008251602080840152614c4760408401826147da565b600080600080600080600080600060a08a8c03121561522a57600080fd5b893567ffffffffffffffff8082111561524257600080fd5b61524e8d838e01614701565b909b50995060208c013591508082111561526757600080fd5b6152738d838e01614701565b909950975087915061528760408d01614a33565b965060608c013591508082111561529d57600080fd5b818c0191508c601f8301126152b157600080fd5b8135818111156152c057600080fd5b8d60208260051b85010111156152d557600080fd5b6020830196508095505060808c01359150808211156152f357600080fd5b506153008c828d01614701565b915080935050809150509295985092959850929598565b6020815260006123496020830184614c28565b60008060008060008060008060a0898b03121561534657600080fd5b883567ffffffffffffffff8082111561535e57600080fd5b61536a8c838d01614701565b909a50985060208b013591508082111561538357600080fd5b61538f8c838d01614701565b90985096508691506153a360408c01614a33565b955060608b0135945060808b01359150808211156153c057600080fd5b506153cd8b828c01614701565b999c989b5096995094979396929594505050565b600080600080600080608087890312156153fa57600080fd5b863567ffffffffffffffff8082111561541257600080fd5b61541e8a838b01614701565b9098509650602089013591508082111561543757600080fd5b6154438a838b01614701565b909650945084915061545760408a01614a33565b9350606089013591508082111561546d57600080fd5b5061547a89828a01614ba3565b9150509295509295509295565b6000806000806060858703121561549d57600080fd5b843567ffffffffffffffff8111156154b457600080fd5b6154c087828801614701565b90955093506154d3905060208601614a33565b915060408501356154e381615026565b939692955090935050565b6000806040838503121561550157600080fd5b823567ffffffffffffffff81111561551857600080fd5b61552485828601614ddd565b92505060208301356151cd81615026565b600181811c9082168061554957607f821691505b602082108103610b9d577f4e487b7100000000000000000000000000000000000000000000000000000000600052602260045260246000fd5b7f4e487b7100000000000000000000000000000000000000000000000000000000600052601160045260246000fd5b8082018082111561090357610903615582565b7f4e487b7100000000000000000000000000000000000000000000000000000000600052603260045260246000fd5b600082601f83011261560457600080fd5b8151615612614dfc82614db5565b81815284602083860101111561562757600080fd5b614c478260208301602087016147b6565b60006020828403121561564a57600080fd5b815167ffffffffffffffff81111561566157600080fd5b614c47848285016155f3565b60007fffffffffffffffffffffffffffffffffffffffffffffffffffffffffffffffff820361569e5761569e615582565b5060010190565b6000602082360312156156b757600080fd5b6156bf614d61565b823567ffffffffffffffff8111156156d657600080fd5b6156e236828601614ddd565b82525092915050565b60008083357fffffffffffffffffffffffffffffffffffffffffffffffffffffffffffffffe184360301811261572057600080fd5b83018035915067ffffffffffffffff82111561573b57600080fd5b60200191503681900382131561474357600080fd5b818352818160208501375060006020828401015260006020601f19601f840116840101905092915050565b602081526000614c47602083018486615750565b6080815260006157a260808301876147da565b73ffffffffffffffffffffffffffffffffffffffff959095166020830152506040810192909252606090910152919050565b60008083357fffffffffffffffffffffffffffffffffffffffffffffffffffffffffffffffe184360301811261580957600080fd5b83018035915067ffffffffffffffff82111561582457600080fd5b6020019150600581901b360382131561474357600080fd5b60006020828403121561584e57600080fd5b813561234981615026565b60a08152600061586d60a08301888a615750565b73ffffffffffffffffffffffffffffffffffffffff969096166020830152506040810193909352901515606083015260809091015292915050565b6000602082840312156158ba57600080fd5b6158c2614d61565b9050815167ffffffffffffffff8111156158db57600080fd5b6156e2848285016155f3565b6000602082840312156158f957600080fd5b815167ffffffffffffffff81111561591057600080fd5b614c47848285016158a8565b8183823760009101908152919050565b8181038181111561090357610903615582565b601f8211156130f657600081815260208120601f850160051c810160208610156159665750805b601f850160051c820191505b8181101561207557828155600101615972565b818103615990575050565b61599a8254615535565b67ffffffffffffffff8111156159b2576159b2614d09565b6159c6816159c08454615535565b8461593f565b6000601f821160018114615a1857600083156159e25750848201545b7fffffffffffffffffffffffffffffffffffffffffffffffffffffffffffffffff600385901b1c1916600184901b17845561376e565b600085815260209020601f19841690600086815260209020845b83811015615a525782860154825560019586019590910190602001615a32565b5085831015615a8e57818501547fffffffffffffffffffffffffffffffffffffffffffffffffffffffffffffffff600388901b60f8161c191681555b5050505050600190811b01905550565b7f4e487b7100000000000000000000000000000000000000000000000000000000600052603160045260246000fd5b60008083357fffffffffffffffffffffffffffffffffffffffffffffffffffffffffffffffe1843603018112615b0257600080fd5b830160208101925035905067ffffffffffffffff811115615b2257600080fd5b80360382131561474357600080fd5b60a081526000615b418788615acd565b604060a0850152615b5660e085018284615750565b915050615b666020890189615acd565b7fffffffffffffffffffffffffffffffffffffffffffffffffffffffffffffff608584030160c0860152615b9b838284615750565b935050505085602083015273ffffffffffffffffffffffffffffffffffffffff851660408301528360608301528260808301529695505050505050565b60a081526000615beb60a08301886147da565b73ffffffffffffffffffffffffffffffffffffffff9690961660208301525060408101939093529015156060830152608090910152919050565b60c0815260008751606060c0840152615c426101208401826147da565b905060208901517fffffffffffffffffffffffffffffffffffffffffffffffffffffffffffffff40808584030160e0860152615c7e83836147da565b925060408b01519150808584030161010086015250615c9d82826147da565b6020850199909952505050604081019490945273ffffffffffffffffffffffffffffffffffffffff929092166060840152608083015260a090910152919050565b608081526000615cf160808301876147da565b8281036020840152615d0381876147da565b90508460408401528281036060840152612aac81856147da565b815167ffffffffffffffff811115615d3757615d37614d09565b615d45816159c08454615535565b602080601f831160018114615d985760008415615d625750858301515b7fffffffffffffffffffffffffffffffffffffffffffffffffffffffffffffffff600386901b1c1916600185901b178555612075565b600085815260208120601f198616915b82811015615dc757888601518255948401946001909101908401615da8565b5085821015615a8e5793909601517fffffffffffffffffffffffffffffffffffffffffffffffffffffffffffffffff60f8600387901b161c19169092555050600190811b01905550565b60208152600061234960208301846147da565b600060208284031215615e3657600080fd5b815161234981615026565b608081526000615e5560808301888a615750565b602083820381850152615e6982888a615750565b8481036040860152865180825282880193509082019060005b81811015615e9e57845183529383019391830191600101615e82565b50508481036060860152615eb281876147da565b9b9a5050505050505050505050565b608081526000615ed460808301876147da565b8281036020840152615ee681876147da565b905073ffffffffffffffffffffffffffffffffffffffff851660408401528281036060840152835160208252612c3460208301826147da565b60006020808385031215615f3257600080fd5b825167ffffffffffffffff80821115615f4a57600080fd5b818501915085601f830112615f5e57600080fd5b815181811115615f7057615f70614d09565b8060051b615f7f858201614d84565b9182528381018501918581019089841115615f9957600080fd5b86860192505b83831015615fd557825185811115615fb75760008081fd5b615fc58b89838a01016158a8565b8352509186019190860190615f9f565b999850505050505050505056fea26469706673582212200ca333ba164afe7e90ff8515d7bf86a1778f329c4c08bf2b5a7555cc878f078c64736f6c63430008100033",
    "linkReferences": {
      "contracts/zion-governance/src/spaces/libraries/CreationLogic.sol": {
        "CreationLogic": [
          {
            "start": 13613,
            "length": 20
          },
          {
            "start": 15415,
            "length": 20
          }
        ]
      }
    }
  },
  "methodIdentifiers": {
    "addPermissionToRole(string,uint256,(string))": "7d9a0230",
    "addRoleToEntitlementModule(string,string,address,uint256,bytes)": "bbd7358a",
    "createChannel((string,string,string))": "79960fe1",
    "createRole(string,string)": "d2192dbf",
    "createSpace((string,string))": "50b88cf7",
    "createSpaceWithTokenEntitlement((string,string),(address,uint256,string,bool,uint256,string[],string))": "8f720f1e",
    "getChannelIdByNetworkId(string,string)": "3e66eae3",
    "getChannelInfoByChannelId(string,string)": "0db37ba3",
    "getChannelsBySpaceId(string)": "50c24eef",
    "getEntitlementModulesBySpaceId(string)": "141b6498",
    "getEntitlementsInfoBySpaceId(string)": "3519167c",
    "getPermissionFromMap(bytes32)": "9ea4d532",
    "getPermissionsBySpaceIdByRoleId(string,uint256)": "7074047c",
    "getRoleBySpaceIdByRoleId(string,uint256)": "b3ff31b2",
    "getRolesBySpaceId(string)": "4bf2abb2",
    "getSpaceIdByNetworkId(string)": "9ddd0d6b",
    "getSpaceInfoBySpaceId(string)": "2bb59212",
    "getSpaceOwnerBySpaceId(string)": "2a4bdf25",
    "getSpaces()": "15478ca9",
    "isEntitled(string,string,address,(string))": "bf77b663",
    "isEntitlementModuleWhitelisted(string,address)": "4196d1ff",
    "owner()": "8da5cb5b",
    "removeEntitlement(string,string,address,uint256[],bytes)": "a3a39cb9",
    "removePermissionFromRole(string,uint256,(string))": "4832a4ec",
    "removeRole(string,uint256)": "8b0e905a",
    "renounceOwnership()": "715018a6",
    "setChannelAccess(string,string,bool)": "72a29321",
    "setDefaultTokenEntitlementModule(address)": "1a039620",
    "setDefaultUserEntitlementModule(address)": "e1b7a9e5",
    "setSpaceAccess(string,bool)": "f86caf83",
    "setSpaceNFT(address)": "ccde2de3",
    "transferOwnership(address)": "f2fde38b",
    "whitelistEntitlementModule(string,address,bool)": "e798ff3f"
  },
  "id": 7
}