{
  "abi": [
    {
      "inputs": [
        {
          "internalType": "address",
          "name": "_permissionRegistry",
          "type": "address"
        },
        {
          "internalType": "address",
          "name": "_roleManager",
          "type": "address"
        }
      ],
      "stateMutability": "nonpayable",
      "type": "constructor"
    },
    {
      "inputs": [],
      "name": "AddRoleFailed",
      "type": "error"
    },
    {
      "inputs": [],
      "name": "ChannelDoesNotExist",
      "type": "error"
    },
    {
      "inputs": [],
      "name": "DefaultEntitlementModuleNotSet",
      "type": "error"
    },
    {
      "inputs": [],
      "name": "DefaultPermissionsManagerNotSet",
      "type": "error"
    },
    {
      "inputs": [],
      "name": "EntitlementAlreadyWhitelisted",
      "type": "error"
    },
    {
      "inputs": [],
      "name": "EntitlementModuleNotSupported",
      "type": "error"
    },
    {
      "inputs": [],
      "name": "EntitlementNotWhitelisted",
      "type": "error"
    },
    {
      "inputs": [],
      "name": "InvalidParameters",
      "type": "error"
    },
    {
      "inputs": [],
      "name": "NameContainsInvalidCharacters",
      "type": "error"
    },
    {
      "inputs": [],
      "name": "NameLengthInvalid",
      "type": "error"
    },
    {
      "inputs": [],
      "name": "NotAllowed",
      "type": "error"
    },
    {
      "inputs": [],
      "name": "SpaceDoesNotExist",
      "type": "error"
    },
    {
      "inputs": [],
      "name": "SpaceNFTNotSet",
      "type": "error"
    },
    {
      "anonymous": false,
      "inputs": [
        {
          "indexed": true,
          "internalType": "address",
          "name": "previousOwner",
          "type": "address"
        },
        {
          "indexed": true,
          "internalType": "address",
          "name": "newOwner",
          "type": "address"
        }
      ],
      "name": "OwnershipTransferred",
      "type": "event"
    },
    {
      "inputs": [
        {
          "internalType": "string",
          "name": "spaceId",
          "type": "string"
        },
        {
          "internalType": "uint256",
          "name": "roleId",
          "type": "uint256"
        },
        {
          "components": [
            {
              "internalType": "string",
              "name": "name",
              "type": "string"
            }
          ],
          "internalType": "struct DataTypes.Permission",
          "name": "permission",
          "type": "tuple"
        }
      ],
      "name": "addPermissionToRole",
      "outputs": [],
      "stateMutability": "nonpayable",
      "type": "function"
    },
    {
      "inputs": [
        {
          "internalType": "string",
          "name": "spaceId",
          "type": "string"
        },
        {
          "internalType": "string",
          "name": "channelId",
          "type": "string"
        },
        {
          "internalType": "uint256[]",
          "name": "roleId",
          "type": "uint256[]"
        }
      ],
      "name": "addRoleIdsToChannel",
      "outputs": [],
      "stateMutability": "nonpayable",
      "type": "function"
    },
    {
      "inputs": [
        {
          "internalType": "string",
          "name": "spaceNetworkId",
          "type": "string"
        },
        {
          "internalType": "address",
          "name": "entitlementModuleAddress",
          "type": "address"
        },
        {
          "internalType": "uint256",
          "name": "roleId",
          "type": "uint256"
        },
        {
          "internalType": "bytes",
          "name": "entitlementData",
          "type": "bytes"
        }
      ],
      "name": "addRoleToEntitlementModule",
      "outputs": [],
      "stateMutability": "nonpayable",
      "type": "function"
    },
    {
      "inputs": [
        {
          "components": [
            {
              "internalType": "string",
              "name": "spaceNetworkId",
              "type": "string"
            },
            {
              "internalType": "string",
              "name": "channelName",
              "type": "string"
            },
            {
              "internalType": "string",
              "name": "channelNetworkId",
              "type": "string"
            },
            {
              "internalType": "uint256[]",
              "name": "roleIds",
              "type": "uint256[]"
            }
          ],
          "internalType": "struct DataTypes.CreateChannelData",
          "name": "data",
          "type": "tuple"
        }
      ],
      "name": "createChannel",
      "outputs": [
        {
          "internalType": "uint256",
          "name": "channelId",
          "type": "uint256"
        }
      ],
      "stateMutability": "nonpayable",
      "type": "function"
    },
    {
      "inputs": [
        {
          "internalType": "string",
          "name": "spaceNetworkId",
          "type": "string"
        },
        {
          "internalType": "string",
          "name": "name",
          "type": "string"
        }
      ],
      "name": "createRole",
      "outputs": [
        {
          "internalType": "uint256",
          "name": "roleId",
          "type": "uint256"
        }
      ],
      "stateMutability": "nonpayable",
      "type": "function"
    },
    {
      "inputs": [
        {
          "internalType": "string",
          "name": "spaceNetworkId",
          "type": "string"
        },
        {
          "internalType": "string",
          "name": "roleName",
          "type": "string"
        },
        {
          "components": [
            {
              "internalType": "string",
              "name": "name",
              "type": "string"
            }
          ],
          "internalType": "struct DataTypes.Permission[]",
          "name": "permissions",
          "type": "tuple[]"
        },
        {
          "components": [
            {
              "components": [
                {
                  "internalType": "address",
                  "name": "contractAddress",
                  "type": "address"
                },
                {
                  "internalType": "uint256",
                  "name": "quantity",
                  "type": "uint256"
                },
                {
                  "internalType": "bool",
                  "name": "isSingleToken",
                  "type": "bool"
                },
                {
                  "internalType": "uint256",
                  "name": "tokenId",
                  "type": "uint256"
                }
              ],
              "internalType": "struct DataTypes.ExternalToken[]",
              "name": "tokens",
              "type": "tuple[]"
            }
          ],
          "internalType": "struct DataTypes.ExternalTokenEntitlement[]",
          "name": "tokenEntitlements",
          "type": "tuple[]"
        },
        {
          "internalType": "address[]",
          "name": "users",
          "type": "address[]"
        }
      ],
      "name": "createRoleWithEntitlementData",
      "outputs": [
        {
          "internalType": "uint256",
          "name": "roleId",
          "type": "uint256"
        }
      ],
      "stateMutability": "nonpayable",
      "type": "function"
    },
    {
      "inputs": [
        {
          "components": [
            {
              "internalType": "string",
              "name": "spaceName",
              "type": "string"
            },
            {
              "internalType": "string",
              "name": "spaceNetworkId",
              "type": "string"
            },
            {
              "internalType": "string",
              "name": "spaceMetadata",
              "type": "string"
            }
          ],
          "internalType": "struct DataTypes.CreateSpaceData",
          "name": "info",
          "type": "tuple"
        },
        {
          "components": [
            {
              "internalType": "string",
              "name": "roleName",
              "type": "string"
            },
            {
              "components": [
                {
                  "internalType": "string",
                  "name": "name",
                  "type": "string"
                }
              ],
              "internalType": "struct DataTypes.Permission[]",
              "name": "permissions",
              "type": "tuple[]"
            },
            {
              "components": [
                {
                  "components": [
                    {
                      "internalType": "address",
                      "name": "contractAddress",
                      "type": "address"
                    },
                    {
                      "internalType": "uint256",
                      "name": "quantity",
                      "type": "uint256"
                    },
                    {
                      "internalType": "bool",
                      "name": "isSingleToken",
                      "type": "bool"
                    },
                    {
                      "internalType": "uint256",
                      "name": "tokenId",
                      "type": "uint256"
                    }
                  ],
                  "internalType": "struct DataTypes.ExternalToken[]",
                  "name": "tokens",
                  "type": "tuple[]"
                }
              ],
              "internalType": "struct DataTypes.ExternalTokenEntitlement[]",
              "name": "externalTokenEntitlements",
              "type": "tuple[]"
            },
            {
              "internalType": "address[]",
              "name": "users",
              "type": "address[]"
            }
          ],
          "internalType": "struct DataTypes.CreateSpaceEntitlementData",
          "name": "entitlementData",
          "type": "tuple"
        },
        {
          "components": [
            {
              "internalType": "string",
              "name": "name",
              "type": "string"
            }
          ],
          "internalType": "struct DataTypes.Permission[]",
          "name": "everyonePermissions",
          "type": "tuple[]"
        }
      ],
      "name": "createSpace",
      "outputs": [
        {
          "internalType": "uint256",
          "name": "",
          "type": "uint256"
        }
      ],
      "stateMutability": "nonpayable",
      "type": "function"
    },
    {
      "inputs": [
        {
          "internalType": "string",
          "name": "spaceId",
          "type": "string"
        },
        {
          "internalType": "string",
          "name": "channelId",
          "type": "string"
        }
      ],
      "name": "getChannelIdByNetworkId",
      "outputs": [
        {
          "internalType": "uint256",
          "name": "",
          "type": "uint256"
        }
      ],
      "stateMutability": "view",
      "type": "function"
    },
    {
      "inputs": [
        {
          "internalType": "string",
          "name": "spaceId",
          "type": "string"
        },
        {
          "internalType": "string",
          "name": "channelId",
          "type": "string"
        }
      ],
      "name": "getChannelInfoByChannelId",
      "outputs": [
        {
          "components": [
            {
              "internalType": "uint256",
              "name": "channelId",
              "type": "uint256"
            },
            {
              "internalType": "string",
              "name": "networkId",
              "type": "string"
            },
            {
              "internalType": "uint256",
              "name": "createdAt",
              "type": "uint256"
            },
            {
              "internalType": "string",
              "name": "name",
              "type": "string"
            },
            {
              "internalType": "address",
              "name": "creator",
              "type": "address"
            },
            {
              "internalType": "bool",
              "name": "disabled",
              "type": "bool"
            }
          ],
          "internalType": "struct DataTypes.ChannelInfo",
          "name": "",
          "type": "tuple"
        }
      ],
      "stateMutability": "view",
      "type": "function"
    },
    {
      "inputs": [
        {
          "internalType": "string",
          "name": "spaceId",
          "type": "string"
        }
      ],
      "name": "getChannelsBySpaceId",
      "outputs": [
        {
          "components": [
            {
              "internalType": "uint256",
              "name": "idCounter",
              "type": "uint256"
            },
            {
              "components": [
                {
                  "internalType": "uint256",
                  "name": "channelId",
                  "type": "uint256"
                },
                {
                  "internalType": "uint256",
                  "name": "createdAt",
                  "type": "uint256"
                },
                {
                  "internalType": "string",
                  "name": "networkId",
                  "type": "string"
                },
                {
                  "internalType": "string",
                  "name": "name",
                  "type": "string"
                },
                {
                  "internalType": "address",
                  "name": "creator",
                  "type": "address"
                },
                {
                  "internalType": "bool",
                  "name": "disabled",
                  "type": "bool"
                }
              ],
              "internalType": "struct DataTypes.Channel[]",
              "name": "channels",
              "type": "tuple[]"
            }
          ],
          "internalType": "struct DataTypes.Channels",
          "name": "",
          "type": "tuple"
        }
      ],
      "stateMutability": "view",
      "type": "function"
    },
    {
      "inputs": [
        {
          "internalType": "string",
          "name": "spaceId",
          "type": "string"
        }
      ],
      "name": "getEntitlementModulesBySpaceId",
      "outputs": [
        {
          "internalType": "address[]",
          "name": "",
          "type": "address[]"
        }
      ],
      "stateMutability": "view",
      "type": "function"
    },
    {
      "inputs": [
        {
          "internalType": "string",
          "name": "spaceId",
          "type": "string"
        }
      ],
      "name": "getEntitlementsInfoBySpaceId",
      "outputs": [
        {
          "components": [
            {
              "internalType": "address",
              "name": "addr",
              "type": "address"
            },
            {
              "internalType": "string",
              "name": "name",
              "type": "string"
            },
            {
              "internalType": "string",
              "name": "moduleType",
              "type": "string"
            },
            {
              "internalType": "string",
              "name": "description",
              "type": "string"
            }
          ],
          "internalType": "struct DataTypes.EntitlementModuleInfo[]",
          "name": "",
          "type": "tuple[]"
        }
      ],
      "stateMutability": "view",
      "type": "function"
    },
    {
      "inputs": [
        {
          "internalType": "string",
          "name": "networkId",
          "type": "string"
        }
      ],
      "name": "getSpaceIdByNetworkId",
      "outputs": [
        {
          "internalType": "uint256",
          "name": "",
          "type": "uint256"
        }
      ],
      "stateMutability": "view",
      "type": "function"
    },
    {
      "inputs": [
        {
          "internalType": "string",
          "name": "spaceId",
          "type": "string"
        }
      ],
      "name": "getSpaceInfoBySpaceId",
      "outputs": [
        {
          "components": [
            {
              "internalType": "uint256",
              "name": "spaceId",
              "type": "uint256"
            },
            {
              "internalType": "string",
              "name": "networkId",
              "type": "string"
            },
            {
              "internalType": "uint256",
              "name": "createdAt",
              "type": "uint256"
            },
            {
              "internalType": "string",
              "name": "name",
              "type": "string"
            },
            {
              "internalType": "address",
              "name": "creator",
              "type": "address"
            },
            {
              "internalType": "address",
              "name": "owner",
              "type": "address"
            },
            {
              "internalType": "bool",
              "name": "disabled",
              "type": "bool"
            }
          ],
          "internalType": "struct DataTypes.SpaceInfo",
          "name": "",
          "type": "tuple"
        }
      ],
      "stateMutability": "view",
      "type": "function"
    },
    {
      "inputs": [
        {
          "internalType": "string",
          "name": "spaceId",
          "type": "string"
        }
      ],
      "name": "getSpaceOwnerBySpaceId",
      "outputs": [
        {
          "internalType": "address",
          "name": "",
          "type": "address"
        }
      ],
      "stateMutability": "view",
      "type": "function"
    },
    {
      "inputs": [],
      "name": "getSpaces",
      "outputs": [
        {
          "components": [
            {
              "internalType": "uint256",
              "name": "spaceId",
              "type": "uint256"
            },
            {
              "internalType": "string",
              "name": "networkId",
              "type": "string"
            },
            {
              "internalType": "uint256",
              "name": "createdAt",
              "type": "uint256"
            },
            {
              "internalType": "string",
              "name": "name",
              "type": "string"
            },
            {
              "internalType": "address",
              "name": "creator",
              "type": "address"
            },
            {
              "internalType": "address",
              "name": "owner",
              "type": "address"
            },
            {
              "internalType": "bool",
              "name": "disabled",
              "type": "bool"
            }
          ],
          "internalType": "struct DataTypes.SpaceInfo[]",
          "name": "",
          "type": "tuple[]"
        }
      ],
      "stateMutability": "view",
      "type": "function"
    },
    {
      "inputs": [
        {
          "internalType": "string",
          "name": "spaceId",
          "type": "string"
        },
        {
          "internalType": "string",
          "name": "channelId",
          "type": "string"
        },
        {
          "internalType": "address",
          "name": "user",
          "type": "address"
        },
        {
          "components": [
            {
              "internalType": "string",
              "name": "name",
              "type": "string"
            }
          ],
          "internalType": "struct DataTypes.Permission",
          "name": "permission",
          "type": "tuple"
        }
      ],
      "name": "isEntitled",
      "outputs": [
        {
          "internalType": "bool",
          "name": "",
          "type": "bool"
        }
      ],
      "stateMutability": "view",
      "type": "function"
    },
    {
      "inputs": [
        {
          "internalType": "string",
          "name": "spaceId",
          "type": "string"
        },
        {
          "internalType": "address",
          "name": "entitlementModuleAddress",
          "type": "address"
        }
      ],
      "name": "isEntitlementModuleWhitelisted",
      "outputs": [
        {
          "internalType": "bool",
          "name": "",
          "type": "bool"
        }
      ],
      "stateMutability": "view",
      "type": "function"
    },
    {
      "inputs": [
        {
          "internalType": "string",
          "name": "spaceNetworkId",
          "type": "string"
        },
        {
          "internalType": "uint256",
          "name": "roleId",
          "type": "uint256"
        },
        {
          "internalType": "string",
          "name": "roleName",
          "type": "string"
        },
        {
          "components": [
            {
              "internalType": "string",
              "name": "name",
              "type": "string"
            }
          ],
          "internalType": "struct DataTypes.Permission[]",
          "name": "permissions",
          "type": "tuple[]"
        },
        {
          "components": [
            {
              "components": [
                {
                  "internalType": "address",
                  "name": "contractAddress",
                  "type": "address"
                },
                {
                  "internalType": "uint256",
                  "name": "quantity",
                  "type": "uint256"
                },
                {
                  "internalType": "bool",
                  "name": "isSingleToken",
                  "type": "bool"
                },
                {
                  "internalType": "uint256",
                  "name": "tokenId",
                  "type": "uint256"
                }
              ],
              "internalType": "struct DataTypes.ExternalToken[]",
              "name": "tokens",
              "type": "tuple[]"
            }
          ],
          "internalType": "struct DataTypes.ExternalTokenEntitlement[]",
          "name": "tokenEntitlements",
          "type": "tuple[]"
        },
        {
          "internalType": "address[]",
          "name": "users",
          "type": "address[]"
        }
      ],
      "name": "modifyRoleWithEntitlementData",
      "outputs": [
        {
          "internalType": "bool",
          "name": "isModified",
          "type": "bool"
        }
      ],
      "stateMutability": "nonpayable",
      "type": "function"
    },
    {
      "inputs": [],
      "name": "owner",
      "outputs": [
        {
          "internalType": "address",
          "name": "",
          "type": "address"
        }
      ],
      "stateMutability": "view",
      "type": "function"
    },
    {
      "inputs": [
        {
          "internalType": "string",
          "name": "spaceNetworkId",
          "type": "string"
        },
        {
          "internalType": "address",
          "name": "entitlementModuleAddress",
          "type": "address"
        },
        {
          "internalType": "uint256",
          "name": "roleId",
          "type": "uint256"
        },
        {
          "internalType": "bytes",
          "name": "data",
          "type": "bytes"
        }
      ],
      "name": "removeEntitlement",
      "outputs": [],
      "stateMutability": "nonpayable",
      "type": "function"
    },
    {
      "inputs": [
        {
          "internalType": "string",
          "name": "spaceNetworkId",
          "type": "string"
        },
        {
          "internalType": "uint256",
          "name": "roleId",
          "type": "uint256"
        },
        {
          "components": [
            {
              "internalType": "string",
              "name": "name",
              "type": "string"
            }
          ],
          "internalType": "struct DataTypes.Permission",
          "name": "permission",
          "type": "tuple"
        }
      ],
      "name": "removePermissionFromRole",
      "outputs": [],
      "stateMutability": "nonpayable",
      "type": "function"
    },
    {
      "inputs": [
        {
          "internalType": "string",
          "name": "spaceNetworkId",
          "type": "string"
        },
        {
          "internalType": "uint256",
          "name": "roleId",
          "type": "uint256"
        }
      ],
      "name": "removeRole",
      "outputs": [],
      "stateMutability": "nonpayable",
      "type": "function"
    },
    {
      "inputs": [
        {
          "internalType": "string",
          "name": "spaceId",
          "type": "string"
        },
        {
          "internalType": "string",
          "name": "channelId",
          "type": "string"
        },
        {
          "internalType": "uint256[]",
          "name": "roleId",
          "type": "uint256[]"
        }
      ],
      "name": "removeRoleIdsFromChannel",
      "outputs": [],
      "stateMutability": "nonpayable",
      "type": "function"
    },
    {
      "inputs": [],
      "name": "renounceOwnership",
      "outputs": [],
      "stateMutability": "nonpayable",
      "type": "function"
    },
    {
      "inputs": [
        {
          "internalType": "string",
          "name": "spaceNetworkId",
          "type": "string"
        },
        {
          "internalType": "string",
          "name": "channelNetworkId",
          "type": "string"
        },
        {
          "internalType": "bool",
          "name": "disabled",
          "type": "bool"
        }
      ],
      "name": "setChannelAccess",
      "outputs": [],
      "stateMutability": "nonpayable",
      "type": "function"
    },
    {
      "inputs": [
        {
          "internalType": "address",
          "name": "entitlementModule",
          "type": "address"
        }
      ],
      "name": "setDefaultTokenEntitlementModule",
      "outputs": [],
      "stateMutability": "nonpayable",
      "type": "function"
    },
    {
      "inputs": [
        {
          "internalType": "address",
          "name": "entitlementModule",
          "type": "address"
        }
      ],
      "name": "setDefaultUserEntitlementModule",
      "outputs": [],
      "stateMutability": "nonpayable",
      "type": "function"
    },
    {
      "inputs": [
        {
          "internalType": "string",
          "name": "spaceNetworkId",
          "type": "string"
        },
        {
          "internalType": "bool",
          "name": "disabled",
          "type": "bool"
        }
      ],
      "name": "setSpaceAccess",
      "outputs": [],
      "stateMutability": "nonpayable",
      "type": "function"
    },
    {
      "inputs": [
        {
          "internalType": "address",
          "name": "spaceNFTAddress",
          "type": "address"
        }
      ],
      "name": "setSpaceNFT",
      "outputs": [],
      "stateMutability": "nonpayable",
      "type": "function"
    },
    {
      "inputs": [
        {
          "internalType": "address",
          "name": "newOwner",
          "type": "address"
        }
      ],
      "name": "transferOwnership",
      "outputs": [],
      "stateMutability": "nonpayable",
      "type": "function"
    },
    {
      "inputs": [
        {
          "internalType": "string",
          "name": "spaceNetworkId",
          "type": "string"
        },
        {
          "internalType": "address",
          "name": "entitlementAddress",
          "type": "address"
        },
        {
          "internalType": "bool",
          "name": "whitelist",
          "type": "bool"
        }
      ],
      "name": "whitelistEntitlementModule",
      "outputs": [],
      "stateMutability": "nonpayable",
      "type": "function"
    }
  ],
  "bytecode": {
    "object": "0x60c06040523480156200001157600080fd5b5060405162005fc538038062005fc5833981016040819052620000349162000129565b6200003f33620000bc565b6001600160a01b0382166200006757604051630e52390960e41b815260040160405180910390fd5b6001600160a01b0381166200008f57604051630e52390960e41b815260040160405180910390fd5b6001600160a01b0391821660a052166080819052600b80546001600160a01b031916909117905562000161565b600080546001600160a01b038381166001600160a01b0319831681178455604051919092169283917f8be0079c531659141344cd1fd0a4f28419497f9722a3daafe3b4186f6b6457e09190a35050565b80516001600160a01b03811681146200012457600080fd5b919050565b600080604083850312156200013d57600080fd5b62000148836200010c565b915062000158602084016200010c565b90509250929050565b60805160a051615e33620001926000396000818161311e01528181613a0e0152613b66015260005050615e336000f3fe608060405234801561001057600080fd5b50600436106101f05760003560e01c80637a40ab901161010f578063ccde2de3116100a2578063e798ff3f11610071578063e798ff3f14610480578063f1b287d814610493578063f2fde38b146104a6578063f86caf83146104b957600080fd5b8063ccde2de314610434578063d2192dbf14610447578063d6b1b6331461045a578063e1b7a9e51461046d57600080fd5b80638da5cb5b116100de5780638da5cb5b146103ea5780639ddd0d6b146103fb578063bf77b6631461040e578063c79ff5891461042157600080fd5b80637a40ab901461039e5780637d9a0230146103b157806381fb7db2146103c45780638b0e905a146103d757600080fd5b80633519167c116101875780634832a4ec116101565780634832a4ec1461035057806350c24eef14610363578063715018a61461038357806372a293211461038b57600080fd5b80633519167c146102f75780633e66eae31461031757806340c0df811461032a5780634196d1ff1461033d57600080fd5b80631f2bd9e5116101c35780631f2bd9e5146102685780632a4bdf25146102895780632bb59212146102b45780632ca07161146102d457600080fd5b80630db37ba3146101f5578063141b64981461021e57806315478ca91461023e5780631a03962014610253575b600080fd5b6102086102033660046146ef565b6104cc565b60405161021591906147aa565b60405180910390f35b61023161022c366004614822565b61079d565b6040516102159190614863565b610246610855565b604051610215919061492d565b6102666102613660046149a4565b610a7b565b005b61027b610276366004614a17565b610acd565b604051908152602001610215565b61029c610297366004614822565b610d00565b6040516001600160a01b039091168152602001610215565b6102c76102c2366004614822565b610db9565b6040516102159190614a9d565b6102e76102e2366004614ab0565b610fcf565b6040519015158152602001610215565b61030a610305366004614822565b6111c2565b6040516102159190614bac565b61027b6103253660046146ef565b611496565b61027b610338366004614c63565b611514565b6102e761034b366004614d53565b61171c565b61026661035e366004614dbb565b611797565b610376610371366004614f3a565b6118fc565b6040516102159190614f76565b610266611b23565b610266610399366004615050565b611b37565b6102666103ac3660046150d3565b611dcd565b6102666103bf366004614dbb565b611f55565b6102666103d23660046150d3565b612005565b6102666103e536600461516c565b612182565b6000546001600160a01b031661029c565b61027b610409366004614822565b612361565b6102e761041c3660046151b7565b6123a2565b61026661042f36600461525d565b6124cd565b6102666104423660046149a4565b612654565b61027b6104553660046146ef565b6126a6565b61026661046836600461525d565b612839565b61026661047b3660046149a4565b6129c0565b61026661048e3660046152d8565b612a12565b61027b6104a136600461533f565b612b5b565b6102666104b43660046149a4565b612f03565b6102666104c7366004615373565b612f7c565b6105106040518060c001604052806000815260200160608152602001600081526020016060815260200160006001600160a01b031681526020016000151581525090565b600061055186868080601f01602080910402602001604051908101604052809392919081815260200183838082843760009201919091525061305592505050565b905060006105c887878080601f01602080910402602001604051908101604052809392919081815260200183838082843760009201919091525050604080516020601f8b01819004810282018101909252898152925089915088908190840183828082843760009201919091525061306f92505050565b6040805160c0810182526000858152600460209081528382208583528082529382208054845291859052928352600201805493945090929183019161060c906153c4565b80601f0160208091040260200160405190810160405280929190818152602001828054610638906153c4565b80156106855780601f1061065a57610100808354040283529160200191610685565b820191906000526020600020905b81548152906001019060200180831161066857829003601f168201915b5050509183525050600084815260046020908152604080832086845280835281842060018101548487015293879052909152600390910180549190920191906106cd906153c4565b80601f01602080910402602001604051908101604052809291908181526020018280546106f9906153c4565b80156107465780601f1061071b57610100808354040283529160200191610746565b820191906000526020600020905b81548152906001019060200180831161072957829003601f168201915b50505091835250506000938452600460208181526040808720868852808352818820909301546001600160a01b038116838601529590965252600160a01b90920460ff161515929091019190915295945050505050565b6060600560006107e285858080601f01602080910402602001604051908101604052809392919081815260200183838082843760009201919091525061305592505050565b815260200190815260200160002060090180548060200260200160405190810160405280929190818152602001828054801561084757602002820191906000526020600020905b81546001600160a01b03168152600190910190602001808311610829575b505050505090505b92915050565b606060006001546001600160401b0381111561087357610873614e2d565b6040519080825280602002602001820160405280156108ac57816020015b610899614656565b8152602001906001900390816108915790505b50905060005b600154811015610a755760006005816108cc84600161540e565b815260200190815260200160002090506040518060e0016040528082600001548152602001826002018054610900906153c4565b80601f016020809104026020016040519081016040528092919081815260200182805461092c906153c4565b80156109795780601f1061094e57610100808354040283529160200191610979565b820191906000526020600020905b81548152906001019060200180831161095c57829003601f168201915b505050505081526020018260010154815260200182600301805461099c906153c4565b80601f01602080910402602001604051908101604052809291908181526020018280546109c8906153c4565b8015610a155780601f106109ea57610100808354040283529160200191610a15565b820191906000526020600020905b8154815290600101906020018083116109f857829003601f168201915b505050918352505060048301546001600160a01b0390811660208301526005840154166040820152600783015460ff1615156060909101528351849084908110610a6157610a61615421565b6020908102919091010152506001016108b2565b50919050565b610a836130c2565b600980546001600160a01b0319166001600160a01b0383169081179091556040517f07b136952c7460e1fc2d593fad96b5b379f28cc13a49857b6a825c5228c1a8d190600090a250565b6000610ad761311c565b610ae9610ae48680615437565b6131dd565b6000610af4866133f9565b600a549091506001600160a01b0316631e3197908233610b1760408b018b615437565b6040518563ffffffff1660e01b8152600401610b3694939291906154a6565b600060405180830381600087803b158015610b5057600080fd5b505af1158015610b64573d6000803e3d6000fd5b5050600854610b8192508391506001600160a01b03166001613479565b600954610b9a9082906001600160a01b03166001613479565b6000610ba58261354f565b60008381526005602052604090206006018190559050610bc68286866136c4565b506000610bd660208801886154d1565b9150508015610ca857600b546000906001600160a01b031663e88ca8a185610bfe8b80615437565b6040518463ffffffff1660e01b8152600401610c1c9392919061551a565b6020604051808303816000875af1158015610c3b573d6000803e3d6000fd5b505050506040513d601f19601f82011682018060405250810190610c5f9190615534565b9050610c788482610c7360208c018c6154d1565b61381d565b610c8f8482610c8a60408c018c6154d1565b6138ba565b610ca68482610ca160608c018c6154d1565b613926565b505b33610cb660208a018a615437565b604051610cc492919061554d565b604051908190038120907ff53000b1113bed1ef6bf6b948fa1fe2c66a643b317a45c5d52a1537050b2dad290600090a350909695505050505050565b600a54604080516020601f85018190048102820181019092528381526000926001600160a01b03169163cc3f8dc891610d5391879087908190840183828082843760009201919091525061305592505050565b6040518263ffffffff1660e01b8152600401610d7191815260200190565b602060405180830381865afa158015610d8e573d6000803e3d6000fd5b505050506040513d601f19601f82011682018060405250810190610db2919061555d565b9392505050565b610dc1614656565b6000610e0284848080601f01602080910402602001604051908101604052809392919081815260200183838082843760009201919091525061305592505050565b6040805160e081018252600083815260056020818152938220805484529185905283526002018054939450909291830191610e3c906153c4565b80601f0160208091040260200160405190810160405280929190818152602001828054610e68906153c4565b8015610eb55780601f10610e8a57610100808354040283529160200191610eb5565b820191906000526020600020905b815481529060010190602001808311610e9857829003601f168201915b5050505050815260200160056000848152602001908152602001600020600101548152602001600560008481526020019081526020016000206003018054610efc906153c4565b80601f0160208091040260200160405190810160405280929190818152602001828054610f28906153c4565b8015610f755780601f10610f4a57610100808354040283529160200191610f75565b820191906000526020600020905b815481529060010190602001808311610f5857829003601f168201915b5050509183525050600083815260056020818152604080842060048101546001600160a01b039081168488015281850154169186019190915295909252905260079092015460ff1615156060909201919091529392505050565b60008561101d5760405162461bcd60e51b8152602060048201526017602482015276139bc81c195c9b5a5cdcda5bdb9cc81c1c9bdd9a591959604a1b60448201526064015b60405180910390fd5b600061105e8d8d8080601f01602080910402602001604051908101604052809392919081815260200183838082843760009201919091525061305592505050565b905061106a818c61398d565b6110c78d8d8080601f016020809104026020016040519081016040528093929190818152602001838380828437600092018290525060408051602081019091529081529250600080516020615dbe83398151915291506139c29050565b600b5460405163344acd0160e11b81526001600160a01b03909116906368959a02906110fd9084908f908f908f9060040161557a565b600060405180830381600087803b15801561111757600080fd5b505af115801561112b573d6000803e3d6000fd5b5050505061113b818c8a8a613aaa565b611147818c8888613deb565b611153818c8686613f29565b8a8d8d60405161116492919061554d565b60405180910390207f801a8340a2e3e69143ad15dc0e65197734d77195e7339e153576c528f9e81d7c6111943390565b6040516001600160a01b03909116815260200160405180910390a35060019c9b505050505050505050505050565b6060600061120584848080601f01602080910402602001604051908101604052809392919081815260200183838082843760009201919091525061305592505050565b600081815260056020526040812060090154919250906001600160401b0381111561123257611232614e2d565b60405190808252806020026020018201604052801561129757816020015b611284604051806080016040528060006001600160a01b031681526020016060815260200160608152602001606081525090565b8152602001906001900390816112505790505b506000838152600560205260408120600901549192505b8181101561148b5760008481526005602052604081206009018054839081106112d9576112d9615421565b6000918252602090912001546001600160a01b03169050806112fb5750611479565b60006040518060800160405280836001600160a01b03168152602001836001600160a01b03166306fdde036040518163ffffffff1660e01b8152600401600060405180830381865afa158015611355573d6000803e3d6000fd5b505050506040513d6000823e601f3d908101601f1916820160405261137d91908101906155ea565b8152602001836001600160a01b0316636465e69f6040518163ffffffff1660e01b8152600401600060405180830381865afa1580156113c0573d6000803e3d6000fd5b505050506040513d6000823e601f3d908101601f191682016040526113e891908101906155ea565b8152602001836001600160a01b0316637284e4166040518163ffffffff1660e01b8152600401600060405180830381865afa15801561142b573d6000803e3d6000fd5b505050506040513d6000823e601f3d908101601f1916820160405261145391908101906155ea565b81525090508085848151811061146b5761146b615421565b602002602001018190525050505b806114838161561e565b9150506112ae565b509095945050505050565b600061150b85858080601f01602080910402602001604051908101604052809392919081815260200183838082843760009201919091525050604080516020601f8901819004810282018101909252878152925087915086908190840183828082843760009201919091525061306f92505050565b95945050505050565b60008561155d5760405162461bcd60e51b8152602060048201526017602482015276139bc81c195c9b5a5cdcda5bdb9cc81c1c9bdd9a591959604a1b6044820152606401611014565b6115ba8b8b8080601f016020809104026020016040519081016040528093929190818152602001838380828437600092018290525060408051602081019091529081529250600080516020615dbe83398151915291506139c29050565b60006115fb8c8c8080601f01602080910402602001604051908101604052809392919081815260200183838082843760009201919091525061305592505050565b600b5460405163e88ca8a160e01b81529192506001600160a01b03169063e88ca8a1906116309084908e908e9060040161551a565b6020604051808303816000875af115801561164f573d6000803e3d6000fd5b505050506040513d601f19601f820116820180604052508101906116739190615534565b915061168181838a8a61381d565b61168d818388886138ba565b61169981838686613926565b89896040516116a992919061554d565b6040518091039020828d8d6040516116c292919061554d565b60405180910390207feb29af321b2cd1d53b9e6e813395256774b0015589f25c335a6d00670a164ac86116f23390565b6040516001600160a01b03909116815260200160405180910390a4509a9950505050505050505050565b60006005600061176186868080601f01602080910402602001604051908101604052809392919081815260200183838082843760009201919091525061305592505050565b8152602080820192909252604090810160009081206001600160a01b038616825260080190925290205460ff1690509392505050565b6117f484848080601f016020809104026020016040519081016040528093929190818152602001838380828437600092018290525060408051602081019091529081529250600080516020615dbe83398151915291506139c29050565b600b54604080516020601f87018190048102820181019092528581526001600160a01b039092169163db474ecb916118479190889088908190840183828082843760009201919091525061305592505050565b84846040518463ffffffff1660e01b81526004016118679392919061567c565b600060405180830381600087803b15801561188157600080fd5b505af1158015611895573d6000803e3d6000fd5b505050508184846040516118aa92919061554d565b60405180910390207fb72e43fbdf2abeb3bfe59e783bcca829d13e9fcde1eac425751faabea6c134c96118da3390565b6040516001600160a01b0390911681526020015b60405180910390a350505050565b6040805180820190915260008152606060208201526006600061193384805160209182012060009081526002909152604090205490565b81526020019081526020016000206040518060400160405290816000820154815260200160018201805480602002602001604051908101604052809291908181526020016000905b82821015611b1557838290600052602060002090600502016040518060c001604052908160008201548152602001600182015481526020016002820180546119c2906153c4565b80601f01602080910402602001604051908101604052809291908181526020018280546119ee906153c4565b8015611a3b5780601f10611a1057610100808354040283529160200191611a3b565b820191906000526020600020905b815481529060010190602001808311611a1e57829003601f168201915b50505050508152602001600382018054611a54906153c4565b80601f0160208091040260200160405190810160405280929190818152602001828054611a80906153c4565b8015611acd5780601f10611aa257610100808354040283529160200191611acd565b820191906000526020600020905b815481529060010190602001808311611ab057829003601f168201915b5050509183525050600491909101546001600160a01b038116602080840191909152600160a01b90910460ff161515604090920191909152908252600192909201910161197b565b505050915250909392505050565b611b2b6130c2565b611b35600061401d565b565b611bba85858080601f01602080910402602001604051908101604052809392919081815260200183838082843760009201919091525050604080516020601f89018190048102820181019092528781529250879150869081908401838280828437600092019190915250600080516020615dde83398151915292506139c2915050565b611bf985858080601f01602080910402602001604051908101604052809392919081815260200183838082843760009201919091525061406d92505050565b611c6c85858080601f01602080910402602001604051908101604052809392919081815260200183838082843760009201919091525050604080516020601f890181900481028201810190925287815292508791508690819084018382808284376000920191909152506140e392505050565b6000611cad86868080601f01602080910402602001604051908101604052809392919081815260200183838082843760009201919091525061305592505050565b90506000611d2487878080601f01602080910402602001604051908101604052809392919081815260200183838082843760009201919091525050604080516020601f8b01819004810282018101909252898152925089915088908190840183828082843760009201919091525061306f92505050565b600083815260046020818152604080842085855290915290912001805460ff60a01b1916600160a01b861515021790559050336001600160a01b03168585604051611d7092919061554d565b60405180910390208888604051611d8892919061554d565b6040519081900381208615158252907fcba51876aa74b247950c251d3459c41aaebd8b10717beadb480ca1a105166ab59060200160405180910390a450505050505050565b611e5086868080601f01602080910402602001604051908101604052809392919081815260200183838082843760009201919091525050604080516020601f8a018190048102820181019092528881529250889150879081908401838280828437600092019190915250600080516020615dde83398151915292506139c2915050565b6000611e9187878080601f01602080910402602001604051908101604052809392919081815260200183838082843760009201919091525061305592505050565b90506000611f0888888080601f01602080910402602001604051908101604052809392919081815260200183838082843760009201919091525050604080516020601f8c018190048102820181019092528a815292508a915089908190840183828082843760009201919091525061306f92505050565b905060005b83811015611f4a57611f388383878785818110611f2c57611f2c615421565b90506020020135614117565b80611f428161561e565b915050611f0d565b505050505050505050565b611fb284848080601f016020809104026020016040519081016040528093929190818152602001838380828437600092018290525060408051602081019091529081529250600080516020615dbe83398151915291506139c29050565b600b54604080516020601f87018190048102820181019092528581526001600160a01b0390921691633368c918916118479190889088908190840183828082843760009201919091525061305592505050565b61208886868080601f01602080910402602001604051908101604052809392919081815260200183838082843760009201919091525050604080516020601f8a018190048102820181019092528881529250889150879081908401838280828437600092019190915250600080516020615dde83398151915292506139c2915050565b60006120c987878080601f01602080910402602001604051908101604052809392919081815260200183838082843760009201919091525061305592505050565b9050600061214088888080601f01602080910402602001604051908101604052809392919081815260200183838082843760009201919091525050604080516020601f8c018190048102820181019092528a815292508a915089908190840183828082843760009201919091525061306f92505050565b905060005b83811015611f4a57612170838387878581811061216457612164615421565b905060200201356141f4565b8061217a8161561e565b915050612145565b6121df83838080601f016020809104026020016040519081016040528093929190818152602001838380828437600092018290525060408051602081019091529081529250600080516020615dbe83398151915291506139c29050565b6005600061222285858080601f01602080910402602001604051908101604052809392919081815260200183838082843760009201919091525061305592505050565b815260200190815260200160002060060154810361225357604051630e52390960e41b815260040160405180910390fd5b600b54604080516020601f86018190048102820181019092528481526001600160a01b039092169163cdb0ba50916122a69190879087908190840183828082843760009201919091525061305592505050565b836040518363ffffffff1660e01b81526004016122cd929190918252602082015260400190565b600060405180830381600087803b1580156122e757600080fd5b505af11580156122fb573d6000803e3d6000fd5b5050505080838360405161231092919061554d565b60405180910390207f7bb07acd566d038f77cba9c39e7536f74ea2c4ee382024d1b428d7f0680dbc026123403390565b6040516001600160a01b0390911681526020015b60405180910390a3505050565b6000610db283838080601f01602080910402602001604051908101604052809392919081815260200183838082843760009201919091525061305592505050565b60006123e387878080601f0160208091040260200160405190810160405280939291908181526020018383808284376000920191909152506142d192505050565b156123f0575060006124c3565b600061243188888080601f01602080910402602001604051908101604052809392919081815260200183838082843760009201919091525061305592505050565b905060006124a889898080601f01602080910402602001604051908101604052809392919081815260200183838082843760009201919091525050604080516020601f8d018190048102820181019092528b815292508b91508a908190840183828082843760009201919091525061306f92505050565b90506124be8282876124b9886156b8565b614317565b925050505b9695505050505050565b61250c86868080601f01602080910402602001604051908101604052809392919081815260200183838082843760009201919091525061406d92505050565b61256986868080601f016020809104026020016040519081016040528093929190818152602001838380828437600092018290525060408051602081019091529081529250600080516020615dde83398151915291506139c29050565b61257284614418565b60006125b387878080601f01602080910402602001604051908101604052809392919081815260200183838082843760009201919091525061305592505050565b90506125bf818561398d565b61260181868686868080601f0160208091040260200160405190810160405280939291908181526020018383808284376000920191909152506144a992505050565b846001600160a01b0316878760405161261b92919061554d565b604051908190038120907fe78ad18845af93a80fbe8718cacc631fbe1c453b092806818a044440b96ba67790600090a350505050505050565b61265c6130c2565b600a80546001600160a01b0319166001600160a01b0383169081179091556040517f68e3ca42e475f54d65227ed8cb60daf9cec4546691052783063876ad972db71190600090a250565b600061270585858080601f016020809104026020016040519081016040528093929190818152602001838380828437600092018290525060408051602081019091529081529250600080516020615dbe83398151915291506139c29050565b600b54604080516020601f88018190048102820181019092528681526001600160a01b039092169163e88ca8a1916127589190899089908190840183828082843760009201919091525061305592505050565b85856040518463ffffffff1660e01b81526004016127789392919061551a565b6020604051808303816000875af1158015612797573d6000803e3d6000fd5b505050506040513d601f19601f820116820180604052508101906127bb9190615534565b905082826040516127cd92919061554d565b60405180910390208186866040516127e692919061554d565b60405180910390207fc06cee439d340740b1e427558729eb0fcc080aa2ab6d0bcfb30b6618234f460a6128163390565b6040516001600160a01b03909116815260200160405180910390a4949350505050565b61287886868080601f01602080910402602001604051908101604052809392919081815260200183838082843760009201919091525061406d92505050565b6128d586868080601f016020809104026020016040519081016040528093929190818152602001838380828437600092018290525060408051602081019091529081529250600080516020615dde83398151915291506139c29050565b600061291687878080601f01602080910402602001604051908101604052809392919081815260200183838082843760009201919091525061305592505050565b9050612922818561398d565b61292b85614418565b61296d81868686868080601f01602080910402602001604051908101604052809392919081815260200183838082843760009201919091525061454d92505050565b846001600160a01b0316878760405161298792919061554d565b604051908190038120907f9b42a541e0a10f6a80059e1448b92d56a4e71354d43a2ca1fd3701878cb50ae290600090a350505050505050565b6129c86130c2565b600880546001600160a01b0319166001600160a01b0383169081179091556040517f07b136952c7460e1fc2d593fad96b5b379f28cc13a49857b6a825c5228c1a8d190600090a250565b612a1b82614418565b612a7884848080601f016020809104026020016040519081016040528093929190818152602001838380828437600092018290525060408051602081019091529081529250600080516020615dbe83398151915291506139c29050565b6009546001600160a01b0383811691161480612aa157506008546001600160a01b038381169116145b15612abf57604051631eb49d6d60e11b815260040160405180910390fd5b612b08612b0185858080601f01602080910402602001604051908101604052809392919081815260200183838082843760009201919091525061305592505050565b8383613479565b816001600160a01b03168484604051612b2292919061554d565b6040519081900381208315158252907f558bdc63bfb8cb1188bc6f559a22d16b8e64dccf7af1d84c90bcf2b7feb1e009906020016118ee565b6000612bd4612b6a8380615437565b8080601f0160208091040260200160405190810160405280939291908181526020018383808284376000920182905250604080516020810190915290815292507f5ef98f1e5b8bd5ee1978908b3f5b2128d59a65f7702f04e6aca3c95aff590be191506139c29050565b612c1b612be18380615437565b8080601f01602080910402602001604051908101604052809392919081815260200183838082843760009201919091525061406d92505050565b612c2b610ae46020840184615437565b6000612c74612c3a8480615437565b8080601f01602080910402602001604051908101604052809392919081815260200183838082843760009201919091525061305592505050565b9050612c8881612c8385615786565b6145c3565b6000828152600560205260408120600901549193505b81811015612efb576000838152600560205260408120600901805483908110612cc957612cc9615421565b6000918252602090912001546001600160a01b0316905080612ceb5750612ee9565b600084815260056020526040908190206006015490516340a74b4360e01b8152600481018690526024810187905260448101919091526001600160a01b038216906340a74b4390606401600060405180830381600087803b158015612d4f57600080fd5b505af1158015612d63573d6000803e3d6000fd5b5050505060005b612d7760608801886154d1565b9050811015612ee657600085815260056020526040902060060154612d9f60608901896154d1565b83818110612daf57612daf615421565b905060200201350315612ed4576001600160a01b0382166340a74b438688612dda60608c018c6154d1565b86818110612dea57612dea615421565b6040516001600160e01b031960e088901b1681526004810195909552602485019390935250602090910201356044820152606401600060405180830381600087803b158015612e3857600080fd5b505af1925050508015612e49575060015b612e665760405163d9afe50760e01b815260040160405180910390fd5b33612e746040890189615437565b604051612e8292919061554d565b604051908190039020612e958980615437565b604051612ea392919061554d565b604051908190038120907ff22ca4e1529bca70f91b82d259651796b8973cec866e55ad258c1f6d56ea71d390600090a45b80612ede8161561e565b915050612d6a565b50505b80612ef38161561e565b915050612c9e565b505050919050565b612f0b6130c2565b6001600160a01b038116612f705760405162461bcd60e51b815260206004820152602660248201527f4f776e61626c653a206e6577206f776e657220697320746865207a65726f206160448201526564647265737360d01b6064820152608401611014565b612f798161401d565b50565b612fa48260405180602001604052806000815250600080516020615dbe8339815191526139c2565b6000612fc483805160209182012060009081526002909152604090205490565b905080600003612fe75760405163be34080760e01b815260040160405180910390fd5b6000818152600560205260409020600701805460ff1916831515179055336001600160a01b03168360405161301c919061583c565b6040519081900381208415158252907fb52a77d1c8e7ecf705bef894088b2c74fb373648434090edc15688f5c80a868790602001612354565b805160209182012060009081526002909152604090205490565b60006003600061309385805160209182012060009081526002909152604090205490565b815260200190815260200160002060008380519060200120815260200190815260200160002054905092915050565b6000546001600160a01b03163314611b355760405162461bcd60e51b815260206004820181905260248201527f4f776e61626c653a2063616c6c6572206973206e6f7420746865206f776e65726044820152606401611014565b7f00000000000000000000000000000000000000000000000000000000000000006001600160a01b03166131635760405163361882e360e01b815260040160405180910390fd5b6008546001600160a01b031661318c57604051632ab51add60e01b815260040160405180910390fd5b6009546001600160a01b03166131b557604051632ab51add60e01b815260040160405180910390fd5b600a546001600160a01b0316611b355760405162d1740b60e61b815260040160405180910390fd5b600082828080601f01602080910402602001604051908101604052809392919081815260200183838082843760009201919091525050825192935050600290911090508061322c575080516020105b1561324a5760405163354b556f60e11b815260040160405180910390fd5b805160005b818110156133f257600360fc1b83828151811061326e5761326e615421565b01602001516001600160f81b03191610806132ac5750603d60f91b83828151811061329b5761329b615421565b01602001516001600160f81b031916115b806133085750603960f81b8382815181106132c9576132c9615421565b01602001516001600160f81b0319161180156133085750606160f81b8382815181106132f7576132f7615421565b01602001516001600160f81b031916105b8015613339575082818151811061332157613321615421565b6020910101516001600160f81b031916601760f91b14155b801561336a575082818151811061335257613352615421565b6020910101516001600160f81b031916602d60f81b14155b801561339b575082818151811061338357613383615421565b6020910101516001600160f81b031916605f60f81b14155b80156133cc57508281815181106133b4576133b4615421565b6020910101516001600160f81b031916600160fd1b14155b156133ea5760405163f8fa659760e01b815260040160405180910390fd5b60010161324f565b5050505050565b6001805481019081905560405163aa424abb60e01b815273__$41f15a773ad44a80f32c4029fe25814db2$__9063aa424abb9061344490859085903390600290600590600401615858565b60006040518083038186803b15801561345c57600080fd5b505af4158015613470573d6000803e3d6000fd5b50505050919050565b8080156134ab575060008381526005602090815260408083206001600160a01b038616845260080190915290205460ff165b156134c95760405163186abc9b60e01b815260040160405180910390fd5b60405163fd81c88f60e01b8152600481018490526001600160a01b038316602482015281151560448201526005606482015273__$41f15a773ad44a80f32c4029fe25814db2$__9063fd81c88f9060840160006040518083038186803b15801561353257600080fd5b505af4158015613546573d6000803e3d6000fd5b50505050505050565b604080516080808201835260008083526020808401829052838501829052606093840182905284519283018552600a546001600160a01b03168352600183820181905283860181905293830186905284518481528086019095529093919284929182015b6040805160808101825260008082526020808301829052928201819052606082015282526000199092019101816135b357905050905081816000815181106135fd576135fd615421565b602090810291909101810191909152604080519182018152828252600b54905163f62df4df60e01b8152600481018790526000916001600160a01b03169063f62df4df906024016020604051808303816000875af1158015613663573d6000803e3d6000fd5b505050506040513d601f19601f820116820180604052508101906136879190615534565b60095460405191925061150b9188916001600160a01b03169088906136b09087906020016158ff565b6040516020818303038152906040526144a9565b600b546040805163e88ca8a160e01b8152600481018690526024810191909152600860448201526745766572796f6e6560c01b60648201526000916001600160a01b03169063e88ca8a1906084016020604051808303816000875af1158015613731573d6000803e3d6000fd5b505050506040513d601f19601f820116820180604052508101906137559190615534565b905060005b828110156137f457600b546001600160a01b0316633368c918868487878681811061378757613787615421565b9050602002810190613799919061596b565b6040518463ffffffff1660e01b81526004016137b79392919061567c565b600060405180830381600087803b1580156137d157600080fd5b505af11580156137e5573d6000803e3d6000fd5b5050505080600101905061375a565b506008546040805160016020820152610db29287926001600160a01b03909116918591016136b0565b60005b818110156133f257600b546001600160a01b0316633368c918868686868681811061384d5761384d615421565b905060200281019061385f919061596b565b6040518463ffffffff1660e01b815260040161387d9392919061567c565b600060405180830381600087803b15801561389757600080fd5b505af11580156138ab573d6000803e3d6000fd5b50505050806001019050613820565b60005b818110156133f25760008383838181106138d9576138d9615421565b90506020028101906138eb919061596b565b6138f490615981565b60095460405191925061391d9188916001600160a01b03169088906136b09086906020016158ff565b506001016138bd565b60005b818110156133f2576008546139859086906001600160a01b03168686868681811061395657613956615421565b905060200201602081019061396b91906149a4565b604080516001600160a01b039092166020830152016136b0565b600101613929565b60008281526005602052604090206006015481036139be57604051631eb49d6d60e11b815260040160405180910390fd5b5050565b60006139e284805160209182012060009081526002909152604090205490565b905060006139f0858561306f565b9050613a8582823360405163173c4a6360e01b8152600481018890527f00000000000000000000000000000000000000000000000000000000000000006001600160a01b03169063173c4a6390602401600060405180830381865afa158015613a5d573d6000803e3d6000fd5b505050506040513d6000823e601f3d908101601f191682016040526124b99190810190615aa4565b15613a91575050505050565b604051631eb49d6d60e11b815260040160405180910390fd5b600b546040516329f4c97f60e21b815260048101869052602481018590526000916001600160a01b03169063a7d325fc90604401600060405180830381865afa158015613afb573d6000803e3d6000fd5b505050506040513d6000823e601f3d908101601f19168201604052613b239190810190615ad8565b60405163173c4a6360e01b81527f929f3fd6848015f83b9210c89f7744e3941acae1195c8bf9f5798c090dc8f49760048201529091506000906001600160a01b037f0000000000000000000000000000000000000000000000000000000000000000169063173c4a6390602401600060405180830381865afa158015613bad573d6000803e3d6000fd5b505050506040513d6000823e601f3d908101601f19168201604052613bd59190810190615aa4565b600001519050600081604051602001613bee919061583c565b60405160208183030381529060405280519060200120905060005b8351811015613cea5781848281518110613c2557613c25615421565b602002602001015160000151604051602001613c41919061583c565b6040516020818303038152906040528051906020012014613ce257600b5484516001600160a01b039091169063db474ecb908a908a90889086908110613c8957613c89615421565b60200260200101516040518463ffffffff1660e01b8152600401613caf93929190615b88565b600060405180830381600087803b158015613cc957600080fd5b505af1158015613cdd573d6000803e3d6000fd5b505050505b600101613c09565b5060005b84811015613de15781868683818110613d0957613d09615421565b9050602002810190613d1b919061596b565b613d259080615437565b604051602001613d3692919061554d565b6040516020818303038152906040528051906020012014613dd957600b546001600160a01b0316633368c9188989898986818110613d7657613d76615421565b9050602002810190613d88919061596b565b6040518463ffffffff1660e01b8152600401613da69392919061567c565b600060405180830381600087803b158015613dc057600080fd5b505af1158015613dd4573d6000803e3d6000fd5b505050505b600101613cee565b5050505050505050565b600954604051633cb36fa160e11b815260048101869052602481018590526000916001600160a01b031690637966df4290604401600060405180830381865afa158015613e3c573d6000803e3d6000fd5b505050506040513d6000823e601f3d908101601f19168201604052613e649190810190615bb0565b905060005b8151811015613eb457613eac86600960009054906101000a90046001600160a01b031687858581518110613e9f57613e9f615421565b602002602001015161454d565b600101613e69565b5060005b82811015613f21576000848483818110613ed457613ed4615421565b9050602002810190613ee6919061596b565b613eef90615981565b600954604051919250613f189189916001600160a01b03169089906136b09086906020016158ff565b50600101613eb8565b505050505050565b600854604051633cb36fa160e11b815260048101869052602481018590526000916001600160a01b031690637966df4290604401600060405180830381865afa158015613f7a573d6000803e3d6000fd5b505050506040513d6000823e601f3d908101601f19168201604052613fa29190810190615bb0565b905060005b82811015613fe457613fdc86600860009054906101000a90046001600160a01b031687858581518110613e9f57613e9f615421565b600101613fa7565b5060005b82811015613f21576008546140159087906001600160a01b03168787878681811061395657613956615421565b600101613fe8565b600080546001600160a01b038381166001600160a01b0319831681178455604051919092169283917f8be0079c531659141344cd1fd0a4f28419497f9722a3daafe3b4186f6b6457e09190a35050565b600061408d82805160209182012060009081526002909152604090205490565b9050806000036140b05760405163be34080760e01b815260040160405180910390fd5b60008181526005602052604090206007015460ff16156139be5760405163be34080760e01b815260040160405180910390fd5b60006140ef838361306f565b90508060000361411257604051636ddd9da960e01b815260040160405180910390fd5b505050565b600083815260056020526040812060090154905b818110156133f257600085815260056020526040812060090180548390811061415657614156615421565b6000918252602090912001546001600160a01b031690508061417857506141e2565b604051635c1b185d60e01b81526004810187905260248101869052604481018590526001600160a01b03821690635c1b185d90606401600060405180830381600087803b1580156141c857600080fd5b505af11580156141dc573d6000803e3d6000fd5b50505050505b806141ec8161561e565b91505061412b565b600083815260056020526040812060090154905b818110156133f257600085815260056020526040812060090180548390811061423357614233615421565b6000918252602090912001546001600160a01b031690508061425557506142bf565b6040516340a74b4360e01b81526004810187905260248101869052604481018590526001600160a01b038216906340a74b4390606401600060405180830381600087803b1580156142a557600080fd5b505af11580156142b9573d6000803e3d6000fd5b50505050505b806142c98161561e565b915050614208565b6000806142f283805160209182012060009081526002909152604090205490565b9050801580610db2575060009081526005602052604090206007015460ff1692915050565b600084815260056020526040812060090154815b8181101561440e57600087815260056020526040812060090180548390811061435657614356615421565b6000918252602090912001546001600160a01b031690508061437857506143fc565b604051636621899960e01b81526001600160a01b038216906366218999906143aa908b908b908b908b90600401615c68565b602060405180830381865afa1580156143c7573d6000803e3d6000fd5b505050506040513d601f19601f820116820180604052508101906143eb9190615c9e565b156143fa57600193505061440e565b505b806144068161561e565b91505061432b565b5050949350505050565b6040516301ffc9a760e01b81526392d0109760e01b60048201526001600160a01b038216906301ffc9a790602401602060405180830381865afa158015614463573d6000803e3d6000fd5b505050506040513d601f19601f820116820180604052508101906144879190615c9e565b1515600003612f7957604051636d9250f160e11b815260040160405180910390fd5b60008481526005602090815260408083206001600160a01b038716845260080190915290205460ff166144ef5760405163c1ef36f360e01b815260040160405180910390fd5b604051632587e8d160e11b81526001600160a01b03841690634b0fd1a29061451f90879086908690600401615cbb565b600060405180830381600087803b15801561453957600080fd5b505af1158015613de1573d6000803e3d6000fd5b60008481526005602090815260408083206001600160a01b038716845260080190915290205460ff166145935760405163c1ef36f360e01b815260040160405180910390fd5b604051630f477aa360e21b81526001600160a01b03841690633d1dea8c9061451f90879086908690600401615cbb565b600082815260066020526040902080546001019081905573__$41f15a773ad44a80f32c4029fe25814db2$__631ddb9a8b838584336006600360046040518863ffffffff1660e01b81526004016146209796959493929190615cda565b60006040518083038186803b15801561463857600080fd5b505af415801561464c573d6000803e3d6000fd5b5050505092915050565b6040518060e001604052806000815260200160608152602001600081526020016060815260200160006001600160a01b0316815260200160006001600160a01b031681526020016000151581525090565b60008083601f8401126146b957600080fd5b5081356001600160401b038111156146d057600080fd5b6020830191508360208285010111156146e857600080fd5b9250929050565b6000806000806040858703121561470557600080fd5b84356001600160401b038082111561471c57600080fd5b614728888389016146a7565b9096509450602087013591508082111561474157600080fd5b5061474e878288016146a7565b95989497509550505050565b60005b8381101561477557818101518382015260200161475d565b50506000910152565b6000815180845261479681602086016020860161475a565b601f01601f19169290920160200192915050565b60208152815160208201526000602083015160c060408401526147d060e084018261477e565b9050604084015160608401526060840151601f198483030160808501526147f7828261477e565b91505060018060a01b0360808501511660a084015260a0840151151560c08401528091505092915050565b6000806020838503121561483557600080fd5b82356001600160401b0381111561484b57600080fd5b614857858286016146a7565b90969095509350505050565b6020808252825182820181905260009190848201906040850190845b818110156148a45783516001600160a01b03168352928401929184019160010161487f565b50909695505050505050565b805182526000602082015160e060208501526148cf60e085018261477e565b905060408301516040850152606083015184820360608601526148f2828261477e565b915050608083015160018060a01b0380821660808701528060a08601511660a0870152505060c0830151151560c08501528091505092915050565b6000602080830181845280855180835260408601915060408160051b870101925083870160005b8281101561498257603f198886030184526149708583516148b0565b94509285019290850190600101614954565b5092979650505050505050565b6001600160a01b0381168114612f7957600080fd5b6000602082840312156149b657600080fd5b8135610db28161498f565b600060808284031215610a7557600080fd5b60008083601f8401126149e557600080fd5b5081356001600160401b038111156149fc57600080fd5b6020830191508360208260051b85010111156146e857600080fd5b60008060008060608587031215614a2d57600080fd5b84356001600160401b0380821115614a4457600080fd5b9086019060608289031215614a5857600080fd5b90945060208601359080821115614a6e57600080fd5b614a7a888389016149c1565b94506040870135915080821115614a9057600080fd5b5061474e878288016149d3565b602081526000610db260208301846148b0565b600080600080600080600080600080600060c08c8e031215614ad157600080fd5b6001600160401b03808d351115614ae757600080fd5b614af48e8e358f016146a7565b909c509a5060208d0135995060408d0135811015614b1157600080fd5b614b218e60408f01358f016146a7565b909950975060608d0135811015614b3757600080fd5b614b478e60608f01358f016149d3565b909750955060808d0135811015614b5d57600080fd5b614b6d8e60808f01358f016149d3565b909550935060a08d0135811015614b8357600080fd5b50614b948d60a08e01358e016149d3565b81935080925050509295989b509295989b9093969950565b60006020808301818452808551808352604092508286019150828160051b87010184880160005b83811015614c5557888303603f19018552815180516001600160a01b0316845287810151608089860181905290614c0c8287018261477e565b9150508782015185820389870152614c24828261477e565b91505060608083015192508582038187015250614c41818361477e565b968901969450505090860190600101614bd3565b509098975050505050505050565b60008060008060008060008060008060a08b8d031215614c8257600080fd5b8a356001600160401b0380821115614c9957600080fd5b614ca58e838f016146a7565b909c509a5060208d0135915080821115614cbe57600080fd5b614cca8e838f016146a7565b909a50985060408d0135915080821115614ce357600080fd5b614cef8e838f016149d3565b909850965060608d0135915080821115614d0857600080fd5b614d148e838f016149d3565b909650945060808d0135915080821115614d2d57600080fd5b50614d3a8d828e016149d3565b915080935050809150509295989b9194979a5092959850565b600080600060408486031215614d6857600080fd5b83356001600160401b03811115614d7e57600080fd5b614d8a868287016146a7565b9094509250506020840135614d9e8161498f565b809150509250925092565b600060208284031215610a7557600080fd5b60008060008060608587031215614dd157600080fd5b84356001600160401b0380821115614de857600080fd5b614df4888389016146a7565b9096509450602087013593506040870135915080821115614e1457600080fd5b50614e2187828801614da9565b91505092959194509250565b634e487b7160e01b600052604160045260246000fd5b604051602081016001600160401b0381118282101715614e6557614e65614e2d565b60405290565b604051608081016001600160401b0381118282101715614e6557614e65614e2d565b604051601f8201601f191681016001600160401b0381118282101715614eb557614eb5614e2d565b604052919050565b60006001600160401b03821115614ed657614ed6614e2d565b50601f01601f191660200190565b600082601f830112614ef557600080fd5b8135614f08614f0382614ebd565b614e8d565b818152846020838601011115614f1d57600080fd5b816020850160208301376000918101602001919091529392505050565b600060208284031215614f4c57600080fd5b81356001600160401b03811115614f6257600080fd5b614f6e84828501614ee4565b949350505050565b6000602080835260608084018551838601528286015160408081880152828251808552608094508489019150848160051b8a0101878501945060005b8281101561503357607f198b8303018452855160c0815184528a8201518b850152868201518188860152614fe88286018261477e565b915050898201518482038b860152615000828261477e565b8a8401516001600160a01b0316868c015260a0938401511515939095019290925250509488019492880192600101614fb2565b509a9950505050505050505050565b8015158114612f7957600080fd5b60008060008060006060868803121561506857600080fd5b85356001600160401b038082111561507f57600080fd5b61508b89838a016146a7565b909750955060208801359150808211156150a457600080fd5b506150b1888289016146a7565b90945092505060408601356150c581615042565b809150509295509295909350565b600080600080600080606087890312156150ec57600080fd5b86356001600160401b038082111561510357600080fd5b61510f8a838b016146a7565b9098509650602089013591508082111561512857600080fd5b6151348a838b016146a7565b9096509450604089013591508082111561514d57600080fd5b5061515a89828a016149d3565b979a9699509497509295939492505050565b60008060006040848603121561518157600080fd5b83356001600160401b0381111561519757600080fd5b6151a3868287016146a7565b909790965060209590950135949350505050565b600080600080600080608087890312156151d057600080fd5b86356001600160401b03808211156151e757600080fd5b6151f38a838b016146a7565b9098509650602089013591508082111561520c57600080fd5b6152188a838b016146a7565b90965094506040890135915061522d8261498f565b9092506060880135908082111561524357600080fd5b5061525089828a01614da9565b9150509295509295509295565b6000806000806000806080878903121561527657600080fd5b86356001600160401b038082111561528d57600080fd5b6152998a838b016146a7565b9098509650602089013591506152ae8261498f565b90945060408801359350606088013590808211156152cb57600080fd5b5061515a89828a016146a7565b600080600080606085870312156152ee57600080fd5b84356001600160401b0381111561530457600080fd5b615310878288016146a7565b90955093505060208501356153248161498f565b9150604085013561533481615042565b939692955090935050565b60006020828403121561535157600080fd5b81356001600160401b0381111561536757600080fd5b614f6e848285016149c1565b6000806040838503121561538657600080fd5b82356001600160401b0381111561539c57600080fd5b6153a885828601614ee4565b92505060208301356153b981615042565b809150509250929050565b600181811c908216806153d857607f821691505b602082108103610a7557634e487b7160e01b600052602260045260246000fd5b634e487b7160e01b600052601160045260246000fd5b8082018082111561084f5761084f6153f8565b634e487b7160e01b600052603260045260246000fd5b6000808335601e1984360301811261544e57600080fd5b8301803591506001600160401b0382111561546857600080fd5b6020019150368190038213156146e857600080fd5b81835281816020850137506000828201602090810191909152601f909101601f19169091010190565b8481526001600160a01b03841660208201526060604082018190526000906124c3908301848661547d565b6000808335601e198436030181126154e857600080fd5b8301803591506001600160401b0382111561550257600080fd5b6020019150600581901b36038213156146e857600080fd5b83815260406020820152600061150b60408301848661547d565b60006020828403121561554657600080fd5b5051919050565b8183823760009101908152919050565b60006020828403121561556f57600080fd5b8151610db28161498f565b8481528360208201526060604082015260006124c360608301848661547d565b60006155a8614f0384614ebd565b90508281528383830111156155bc57600080fd5b610db283602083018461475a565b600082601f8301126155db57600080fd5b610db28383516020850161559a565b6000602082840312156155fc57600080fd5b81516001600160401b0381111561561257600080fd5b614f6e848285016155ca565b600060018201615630576156306153f8565b5060010190565b6000808335601e1984360301811261564e57600080fd5b83016020810192503590506001600160401b0381111561566d57600080fd5b8036038213156146e857600080fd5b8381528260208201526060604082015260006156988384615637565b602060608501526156ad60808501828461547d565b979650505050505050565b6000602082360312156156ca57600080fd5b6156d2614e43565b82356001600160401b038111156156e857600080fd5b6156f436828601614ee4565b82525092915050565b60006001600160401b0382111561571657615716614e2d565b5060051b60200190565b600082601f83011261573157600080fd5b81356020615741614f03836156fd565b82815260059290921b8401810191818101908684111561576057600080fd5b8286015b8481101561577b5780358352918301918301615764565b509695505050505050565b60006080823603121561579857600080fd5b6157a0614e6b565b82356001600160401b03808211156157b757600080fd5b6157c336838701614ee4565b835260208501359150808211156157d957600080fd5b6157e536838701614ee4565b602084015260408501359150808211156157fe57600080fd5b61580a36838701614ee4565b6040840152606085013591508082111561582357600080fd5b5061583036828601615720565b60608301525092915050565b6000825161584e81846020870161475a565b9190910192915050565b60a0815260006158688788615637565b606060a085015261587e6101008501828461547d565b91505061588e6020890189615637565b609f19808685030160c08701526158a684838561547d565b93506158b560408c018c615637565b93509150808685030160e0870152506158cf83838361547d565b6020860199909952505050506001600160a01b039390931660408401526060830191909152608090910152919050565b60006020808352604080840185518384870152818151808452606093508388019150858301925060005b81811015614c5557835180516001600160a01b031684528781015188850152868101511515878501528501518584015292860192608090920191600101615929565b60008235601e1983360301811261584e57600080fd5b6000602080833603121561599457600080fd5b61599c614e43565b83356001600160401b038111156159b257600080fd5b840136601f8201126159c357600080fd5b80356159d1614f03826156fd565b81815260079190911b820184019084810190368311156159f057600080fd5b928501925b82841015615a595760808436031215615a0e5760008081fd5b615a16614e6b565b8435615a218161498f565b81528487013587820152604080860135615a3a81615042565b90820152606085810135908201528252608090930192908501906159f5565b8452509195945050505050565b600060208284031215615a7857600080fd5b615a80614e43565b905081516001600160401b03811115615a9857600080fd5b6156f4848285016155ca565b600060208284031215615ab657600080fd5b81516001600160401b03811115615acc57600080fd5b614f6e84828501615a66565b60006020808385031215615aeb57600080fd5b82516001600160401b0380821115615b0257600080fd5b818501915085601f830112615b1657600080fd5b8151615b24614f03826156fd565b81815260059190911b83018401908481019088831115615b4357600080fd5b8585015b83811015615b7b57805185811115615b5f5760008081fd5b615b6d8b89838a0101615a66565b845250918601918601615b47565b5098975050505050505050565b8381528260208201526060604082015260008251602060608401526124c3608084018261477e565b60006020808385031215615bc357600080fd5b82516001600160401b0380821115615bda57600080fd5b818501915085601f830112615bee57600080fd5b8151615bfc614f03826156fd565b81815260059190911b83018401908481019088831115615c1b57600080fd5b8585015b83811015615b7b57805185811115615c375760008081fd5b8601603f81018b13615c495760008081fd5b615c5a8b898301516040840161559a565b845250918601918601615c1f565b84815283602082015260018060a01b03831660408201526080606082015260008251602060808401526156ad60a084018261477e565b600060208284031215615cb057600080fd5b8151610db281615042565b83815282602082015260606040820152600061150b606083018461477e565b60e0815260008851608060e0840152615cf761016084018261477e565b90506020808b015160df198086850301610100870152615d17848361477e565b935060408d015191508086850301610120870152615d35848361477e565b60608e015187820390920161014088015281518082529184019450600092508301905b80831015615d785784518252938301936001929092019190830190615d58565b509185018b905250604084018990526001600160a01b03881660608501529150615d9f9050565b8460808301528360a08301528260c08301529897505050505050505056fe75be26f315524d8937b28469fe5b4df7e59aebca1fcbbbe5669005e1491b131b71e770fed024e50450e0cb5318c1a012e92ab6439dfbe6c071800b700ce55c0aa2646970667358221220a8b216e745c7459de7f9c7e3e2331bf5cd9fd978abfc05174b2710410cd0f4dc64736f6c63430008110033",
    "linkReferences": {
      "contracts/src/spaces/libraries/CreationLogic.sol": {
        "CreationLogic": [
          {
            "start": 13732,
            "length": 20
          },
          {
            "start": 13967,
            "length": 20
          },
          {
            "start": 18286,
            "length": 20
          }
        ]
      }
    }
  },
  "methodIdentifiers": {
    "addPermissionToRole(string,uint256,(string))": "7d9a0230",
    "addRoleIdsToChannel(string,string,uint256[])": "81fb7db2",
    "addRoleToEntitlementModule(string,address,uint256,bytes)": "c79ff589",
    "createChannel((string,string,string,uint256[]))": "f1b287d8",
    "createRole(string,string)": "d2192dbf",
    "createRoleWithEntitlementData(string,string,(string)[],((address,uint256,bool,uint256)[])[],address[])": "40c0df81",
    "createSpace((string,string,string),(string,(string)[],((address,uint256,bool,uint256)[])[],address[]),(string)[])": "1f2bd9e5",
    "getChannelIdByNetworkId(string,string)": "3e66eae3",
    "getChannelInfoByChannelId(string,string)": "0db37ba3",
    "getChannelsBySpaceId(string)": "50c24eef",
    "getEntitlementModulesBySpaceId(string)": "141b6498",
    "getEntitlementsInfoBySpaceId(string)": "3519167c",
    "getSpaceIdByNetworkId(string)": "9ddd0d6b",
    "getSpaceInfoBySpaceId(string)": "2bb59212",
    "getSpaceOwnerBySpaceId(string)": "2a4bdf25",
    "getSpaces()": "15478ca9",
    "isEntitled(string,string,address,(string))": "bf77b663",
    "isEntitlementModuleWhitelisted(string,address)": "4196d1ff",
    "modifyRoleWithEntitlementData(string,uint256,string,(string)[],((address,uint256,bool,uint256)[])[],address[])": "2ca07161",
    "owner()": "8da5cb5b",
    "removeEntitlement(string,address,uint256,bytes)": "d6b1b633",
    "removePermissionFromRole(string,uint256,(string))": "4832a4ec",
    "removeRole(string,uint256)": "8b0e905a",
    "removeRoleIdsFromChannel(string,string,uint256[])": "7a40ab90",
    "renounceOwnership()": "715018a6",
    "setChannelAccess(string,string,bool)": "72a29321",
    "setDefaultTokenEntitlementModule(address)": "1a039620",
    "setDefaultUserEntitlementModule(address)": "e1b7a9e5",
    "setSpaceAccess(string,bool)": "f86caf83",
    "setSpaceNFT(address)": "ccde2de3",
    "transferOwnership(address)": "f2fde38b",
    "whitelistEntitlementModule(string,address,bool)": "e798ff3f"
  },
  "id": 26
}