{
  "abi": [
    {
      "inputs": [
        {
          "internalType": "address",
          "name": "_permissionRegistry",
          "type": "address"
        },
        {
          "internalType": "address",
          "name": "_roleManager",
          "type": "address"
        }
      ],
      "stateMutability": "nonpayable",
      "type": "constructor"
    },
    {
      "inputs": [],
      "name": "AddRoleFailed",
      "type": "error"
    },
    {
      "inputs": [],
      "name": "ChannelDoesNotExist",
      "type": "error"
    },
    {
      "inputs": [],
      "name": "DefaultEntitlementModuleNotSet",
      "type": "error"
    },
    {
      "inputs": [],
      "name": "DefaultPermissionsManagerNotSet",
      "type": "error"
    },
    {
      "inputs": [],
      "name": "EntitlementAlreadyWhitelisted",
      "type": "error"
    },
    {
      "inputs": [],
      "name": "EntitlementModuleNotSupported",
      "type": "error"
    },
    {
      "inputs": [],
      "name": "EntitlementNotWhitelisted",
      "type": "error"
    },
    {
      "inputs": [],
      "name": "InvalidParameters",
      "type": "error"
    },
    {
      "inputs": [],
      "name": "NameContainsInvalidCharacters",
      "type": "error"
    },
    {
      "inputs": [],
      "name": "NameLengthInvalid",
      "type": "error"
    },
    {
      "inputs": [],
      "name": "NotAllowed",
      "type": "error"
    },
    {
      "inputs": [],
      "name": "SpaceDoesNotExist",
      "type": "error"
    },
    {
      "inputs": [],
      "name": "SpaceNFTNotSet",
      "type": "error"
    },
    {
      "anonymous": false,
      "inputs": [
        {
          "indexed": true,
          "internalType": "address",
          "name": "previousOwner",
          "type": "address"
        },
        {
          "indexed": true,
          "internalType": "address",
          "name": "newOwner",
          "type": "address"
        }
      ],
      "name": "OwnershipTransferred",
      "type": "event"
    },
    {
      "inputs": [
        {
          "internalType": "string",
          "name": "spaceId",
          "type": "string"
        },
        {
          "internalType": "uint256",
          "name": "roleId",
          "type": "uint256"
        },
        {
          "components": [
            {
              "internalType": "string",
              "name": "name",
              "type": "string"
            }
          ],
          "internalType": "struct DataTypes.Permission",
          "name": "permission",
          "type": "tuple"
        }
      ],
      "name": "addPermissionToRole",
      "outputs": [],
      "stateMutability": "nonpayable",
      "type": "function"
    },
    {
      "inputs": [
        {
          "internalType": "string",
          "name": "spaceId",
          "type": "string"
        },
        {
          "internalType": "string",
          "name": "channelId",
          "type": "string"
        },
        {
          "internalType": "uint256[]",
          "name": "roleId",
          "type": "uint256[]"
        }
      ],
      "name": "addRoleIdsToChannel",
      "outputs": [],
      "stateMutability": "nonpayable",
      "type": "function"
    },
    {
      "inputs": [
        {
          "internalType": "string",
          "name": "spaceNetworkId",
          "type": "string"
        },
        {
          "internalType": "address",
          "name": "entitlementModuleAddress",
          "type": "address"
        },
        {
          "internalType": "uint256",
          "name": "roleId",
          "type": "uint256"
        },
        {
          "internalType": "bytes",
          "name": "entitlementData",
          "type": "bytes"
        }
      ],
      "name": "addRoleToEntitlementModule",
      "outputs": [],
      "stateMutability": "nonpayable",
      "type": "function"
    },
    {
      "inputs": [
        {
          "components": [
            {
              "internalType": "string",
              "name": "spaceNetworkId",
              "type": "string"
            },
            {
              "internalType": "string",
              "name": "channelName",
              "type": "string"
            },
            {
              "internalType": "string",
              "name": "channelNetworkId",
              "type": "string"
            },
            {
              "internalType": "uint256[]",
              "name": "roleIds",
              "type": "uint256[]"
            }
          ],
          "internalType": "struct DataTypes.CreateChannelData",
          "name": "data",
          "type": "tuple"
        }
      ],
      "name": "createChannel",
      "outputs": [
        {
          "internalType": "uint256",
          "name": "channelId",
          "type": "uint256"
        }
      ],
      "stateMutability": "nonpayable",
      "type": "function"
    },
    {
      "inputs": [
        {
          "internalType": "string",
          "name": "spaceNetworkId",
          "type": "string"
        },
        {
          "internalType": "string",
          "name": "name",
          "type": "string"
        }
      ],
      "name": "createRole",
      "outputs": [
        {
          "internalType": "uint256",
          "name": "roleId",
          "type": "uint256"
        }
      ],
      "stateMutability": "nonpayable",
      "type": "function"
    },
    {
      "inputs": [
        {
          "internalType": "string",
          "name": "spaceNetworkId",
          "type": "string"
        },
        {
          "internalType": "string",
          "name": "roleName",
          "type": "string"
        },
        {
          "components": [
            {
              "internalType": "string",
              "name": "name",
              "type": "string"
            }
          ],
          "internalType": "struct DataTypes.Permission[]",
          "name": "permissions",
          "type": "tuple[]"
        },
        {
          "components": [
            {
              "components": [
                {
                  "internalType": "address",
                  "name": "contractAddress",
                  "type": "address"
                },
                {
                  "internalType": "uint256",
                  "name": "quantity",
                  "type": "uint256"
                },
                {
                  "internalType": "bool",
                  "name": "isSingleToken",
                  "type": "bool"
                },
                {
                  "internalType": "uint256",
                  "name": "tokenId",
                  "type": "uint256"
                }
              ],
              "internalType": "struct DataTypes.ExternalToken[]",
              "name": "tokens",
              "type": "tuple[]"
            }
          ],
          "internalType": "struct DataTypes.ExternalTokenEntitlement[]",
          "name": "tokenEntitlements",
          "type": "tuple[]"
        },
        {
          "internalType": "address[]",
          "name": "users",
          "type": "address[]"
        }
      ],
      "name": "createRoleWithEntitlementData",
      "outputs": [
        {
          "internalType": "uint256",
          "name": "roleId",
          "type": "uint256"
        }
      ],
      "stateMutability": "nonpayable",
      "type": "function"
    },
    {
      "inputs": [
        {
          "components": [
            {
              "internalType": "string",
              "name": "spaceName",
              "type": "string"
            },
            {
              "internalType": "string",
              "name": "spaceNetworkId",
              "type": "string"
            },
            {
              "internalType": "string",
              "name": "spaceMetadata",
              "type": "string"
            }
          ],
          "internalType": "struct DataTypes.CreateSpaceData",
          "name": "info",
          "type": "tuple"
        },
        {
          "components": [
            {
              "internalType": "string",
              "name": "roleName",
              "type": "string"
            },
            {
              "components": [
                {
                  "internalType": "string",
                  "name": "name",
                  "type": "string"
                }
              ],
              "internalType": "struct DataTypes.Permission[]",
              "name": "permissions",
              "type": "tuple[]"
            },
            {
              "components": [
                {
                  "components": [
                    {
                      "internalType": "address",
                      "name": "contractAddress",
                      "type": "address"
                    },
                    {
                      "internalType": "uint256",
                      "name": "quantity",
                      "type": "uint256"
                    },
                    {
                      "internalType": "bool",
                      "name": "isSingleToken",
                      "type": "bool"
                    },
                    {
                      "internalType": "uint256",
                      "name": "tokenId",
                      "type": "uint256"
                    }
                  ],
                  "internalType": "struct DataTypes.ExternalToken[]",
                  "name": "tokens",
                  "type": "tuple[]"
                }
              ],
              "internalType": "struct DataTypes.ExternalTokenEntitlement[]",
              "name": "externalTokenEntitlements",
              "type": "tuple[]"
            },
            {
              "internalType": "address[]",
              "name": "users",
              "type": "address[]"
            }
          ],
          "internalType": "struct DataTypes.CreateSpaceEntitlementData",
          "name": "entitlementData",
          "type": "tuple"
        },
        {
          "components": [
            {
              "internalType": "string",
              "name": "name",
              "type": "string"
            }
          ],
          "internalType": "struct DataTypes.Permission[]",
          "name": "everyonePermissions",
          "type": "tuple[]"
        }
      ],
      "name": "createSpace",
      "outputs": [
        {
          "internalType": "uint256",
          "name": "",
          "type": "uint256"
        }
      ],
      "stateMutability": "nonpayable",
      "type": "function"
    },
    {
      "inputs": [
        {
          "internalType": "string",
          "name": "spaceId",
          "type": "string"
        },
        {
          "internalType": "string",
          "name": "channelId",
          "type": "string"
        }
      ],
      "name": "getChannelIdByNetworkId",
      "outputs": [
        {
          "internalType": "uint256",
          "name": "",
          "type": "uint256"
        }
      ],
      "stateMutability": "view",
      "type": "function"
    },
    {
      "inputs": [
        {
          "internalType": "string",
          "name": "spaceId",
          "type": "string"
        },
        {
          "internalType": "string",
          "name": "channelId",
          "type": "string"
        }
      ],
      "name": "getChannelInfoByChannelId",
      "outputs": [
        {
          "components": [
            {
              "internalType": "uint256",
              "name": "channelId",
              "type": "uint256"
            },
            {
              "internalType": "string",
              "name": "networkId",
              "type": "string"
            },
            {
              "internalType": "uint256",
              "name": "createdAt",
              "type": "uint256"
            },
            {
              "internalType": "string",
              "name": "name",
              "type": "string"
            },
            {
              "internalType": "address",
              "name": "creator",
              "type": "address"
            },
            {
              "internalType": "bool",
              "name": "disabled",
              "type": "bool"
            }
          ],
          "internalType": "struct DataTypes.ChannelInfo",
          "name": "",
          "type": "tuple"
        }
      ],
      "stateMutability": "view",
      "type": "function"
    },
    {
      "inputs": [
        {
          "internalType": "string",
          "name": "spaceId",
          "type": "string"
        }
      ],
      "name": "getChannelsBySpaceId",
      "outputs": [
        {
          "components": [
            {
              "internalType": "uint256",
              "name": "idCounter",
              "type": "uint256"
            },
            {
              "components": [
                {
                  "internalType": "uint256",
                  "name": "channelId",
                  "type": "uint256"
                },
                {
                  "internalType": "uint256",
                  "name": "createdAt",
                  "type": "uint256"
                },
                {
                  "internalType": "string",
                  "name": "networkId",
                  "type": "string"
                },
                {
                  "internalType": "string",
                  "name": "name",
                  "type": "string"
                },
                {
                  "internalType": "address",
                  "name": "creator",
                  "type": "address"
                },
                {
                  "internalType": "bool",
                  "name": "disabled",
                  "type": "bool"
                }
              ],
              "internalType": "struct DataTypes.Channel[]",
              "name": "channels",
              "type": "tuple[]"
            }
          ],
          "internalType": "struct DataTypes.Channels",
          "name": "",
          "type": "tuple"
        }
      ],
      "stateMutability": "view",
      "type": "function"
    },
    {
      "inputs": [
        {
          "internalType": "string",
          "name": "spaceId",
          "type": "string"
        }
      ],
      "name": "getEntitlementModulesBySpaceId",
      "outputs": [
        {
          "internalType": "address[]",
          "name": "",
          "type": "address[]"
        }
      ],
      "stateMutability": "view",
      "type": "function"
    },
    {
      "inputs": [
        {
          "internalType": "string",
          "name": "spaceId",
          "type": "string"
        }
      ],
      "name": "getEntitlementsInfoBySpaceId",
      "outputs": [
        {
          "components": [
            {
              "internalType": "address",
              "name": "addr",
              "type": "address"
            },
            {
              "internalType": "string",
              "name": "name",
              "type": "string"
            },
            {
              "internalType": "string",
              "name": "moduleType",
              "type": "string"
            },
            {
              "internalType": "string",
              "name": "description",
              "type": "string"
            }
          ],
          "internalType": "struct DataTypes.EntitlementModuleInfo[]",
          "name": "",
          "type": "tuple[]"
        }
      ],
      "stateMutability": "view",
      "type": "function"
    },
    {
      "inputs": [
        {
          "internalType": "string",
          "name": "networkId",
          "type": "string"
        }
      ],
      "name": "getSpaceIdByNetworkId",
      "outputs": [
        {
          "internalType": "uint256",
          "name": "",
          "type": "uint256"
        }
      ],
      "stateMutability": "view",
      "type": "function"
    },
    {
      "inputs": [
        {
          "internalType": "string",
          "name": "spaceId",
          "type": "string"
        }
      ],
      "name": "getSpaceInfoBySpaceId",
      "outputs": [
        {
          "components": [
            {
              "internalType": "uint256",
              "name": "spaceId",
              "type": "uint256"
            },
            {
              "internalType": "string",
              "name": "networkId",
              "type": "string"
            },
            {
              "internalType": "uint256",
              "name": "createdAt",
              "type": "uint256"
            },
            {
              "internalType": "string",
              "name": "name",
              "type": "string"
            },
            {
              "internalType": "address",
              "name": "creator",
              "type": "address"
            },
            {
              "internalType": "address",
              "name": "owner",
              "type": "address"
            },
            {
              "internalType": "bool",
              "name": "disabled",
              "type": "bool"
            }
          ],
          "internalType": "struct DataTypes.SpaceInfo",
          "name": "",
          "type": "tuple"
        }
      ],
      "stateMutability": "view",
      "type": "function"
    },
    {
      "inputs": [
        {
          "internalType": "string",
          "name": "spaceId",
          "type": "string"
        }
      ],
      "name": "getSpaceOwnerBySpaceId",
      "outputs": [
        {
          "internalType": "address",
          "name": "",
          "type": "address"
        }
      ],
      "stateMutability": "view",
      "type": "function"
    },
    {
      "inputs": [],
      "name": "getSpaces",
      "outputs": [
        {
          "components": [
            {
              "internalType": "uint256",
              "name": "spaceId",
              "type": "uint256"
            },
            {
              "internalType": "string",
              "name": "networkId",
              "type": "string"
            },
            {
              "internalType": "uint256",
              "name": "createdAt",
              "type": "uint256"
            },
            {
              "internalType": "string",
              "name": "name",
              "type": "string"
            },
            {
              "internalType": "address",
              "name": "creator",
              "type": "address"
            },
            {
              "internalType": "address",
              "name": "owner",
              "type": "address"
            },
            {
              "internalType": "bool",
              "name": "disabled",
              "type": "bool"
            }
          ],
          "internalType": "struct DataTypes.SpaceInfo[]",
          "name": "",
          "type": "tuple[]"
        }
      ],
      "stateMutability": "view",
      "type": "function"
    },
    {
      "inputs": [
        {
          "internalType": "string",
          "name": "spaceId",
          "type": "string"
        },
        {
          "internalType": "string",
          "name": "channelId",
          "type": "string"
        },
        {
          "internalType": "address",
          "name": "user",
          "type": "address"
        },
        {
          "components": [
            {
              "internalType": "string",
              "name": "name",
              "type": "string"
            }
          ],
          "internalType": "struct DataTypes.Permission",
          "name": "permission",
          "type": "tuple"
        }
      ],
      "name": "isEntitled",
      "outputs": [
        {
          "internalType": "bool",
          "name": "",
          "type": "bool"
        }
      ],
      "stateMutability": "view",
      "type": "function"
    },
    {
      "inputs": [
        {
          "internalType": "string",
          "name": "spaceId",
          "type": "string"
        },
        {
          "internalType": "address",
          "name": "entitlementModuleAddress",
          "type": "address"
        }
      ],
      "name": "isEntitlementModuleWhitelisted",
      "outputs": [
        {
          "internalType": "bool",
          "name": "",
          "type": "bool"
        }
      ],
      "stateMutability": "view",
      "type": "function"
    },
    {
      "inputs": [
        {
          "internalType": "string",
          "name": "spaceNetworkId",
          "type": "string"
        },
        {
          "internalType": "uint256",
          "name": "roleId",
          "type": "uint256"
        },
        {
          "internalType": "string",
          "name": "roleName",
          "type": "string"
        },
        {
          "components": [
            {
              "internalType": "string",
              "name": "name",
              "type": "string"
            }
          ],
          "internalType": "struct DataTypes.Permission[]",
          "name": "permissions",
          "type": "tuple[]"
        },
        {
          "components": [
            {
              "components": [
                {
                  "internalType": "address",
                  "name": "contractAddress",
                  "type": "address"
                },
                {
                  "internalType": "uint256",
                  "name": "quantity",
                  "type": "uint256"
                },
                {
                  "internalType": "bool",
                  "name": "isSingleToken",
                  "type": "bool"
                },
                {
                  "internalType": "uint256",
                  "name": "tokenId",
                  "type": "uint256"
                }
              ],
              "internalType": "struct DataTypes.ExternalToken[]",
              "name": "tokens",
              "type": "tuple[]"
            }
          ],
          "internalType": "struct DataTypes.ExternalTokenEntitlement[]",
          "name": "tokenEntitlements",
          "type": "tuple[]"
        },
        {
          "internalType": "address[]",
          "name": "users",
          "type": "address[]"
        }
      ],
      "name": "modifyRoleWithEntitlementData",
      "outputs": [
        {
          "internalType": "bool",
          "name": "isModified",
          "type": "bool"
        }
      ],
      "stateMutability": "nonpayable",
      "type": "function"
    },
    {
      "inputs": [],
      "name": "owner",
      "outputs": [
        {
          "internalType": "address",
          "name": "",
          "type": "address"
        }
      ],
      "stateMutability": "view",
      "type": "function"
    },
    {
      "inputs": [
        {
          "internalType": "string",
          "name": "spaceNetworkId",
          "type": "string"
        },
        {
          "internalType": "address",
          "name": "entitlementModuleAddress",
          "type": "address"
        },
        {
          "internalType": "uint256",
          "name": "roleId",
          "type": "uint256"
        },
        {
          "internalType": "bytes",
          "name": "data",
          "type": "bytes"
        }
      ],
      "name": "removeEntitlement",
      "outputs": [],
      "stateMutability": "nonpayable",
      "type": "function"
    },
    {
      "inputs": [
        {
          "internalType": "string",
          "name": "spaceNetworkId",
          "type": "string"
        },
        {
          "internalType": "uint256",
          "name": "roleId",
          "type": "uint256"
        },
        {
          "components": [
            {
              "internalType": "string",
              "name": "name",
              "type": "string"
            }
          ],
          "internalType": "struct DataTypes.Permission",
          "name": "permission",
          "type": "tuple"
        }
      ],
      "name": "removePermissionFromRole",
      "outputs": [],
      "stateMutability": "nonpayable",
      "type": "function"
    },
    {
      "inputs": [
        {
          "internalType": "string",
          "name": "spaceNetworkId",
          "type": "string"
        },
        {
          "internalType": "uint256",
          "name": "roleId",
          "type": "uint256"
        }
      ],
      "name": "removeRole",
      "outputs": [],
      "stateMutability": "nonpayable",
      "type": "function"
    },
    {
      "inputs": [
        {
          "internalType": "string",
          "name": "spaceId",
          "type": "string"
        },
        {
          "internalType": "string",
          "name": "channelId",
          "type": "string"
        },
        {
          "internalType": "uint256[]",
          "name": "roleId",
          "type": "uint256[]"
        }
      ],
      "name": "removeRoleIdsFromChannel",
      "outputs": [],
      "stateMutability": "nonpayable",
      "type": "function"
    },
    {
      "inputs": [],
      "name": "renounceOwnership",
      "outputs": [],
      "stateMutability": "nonpayable",
      "type": "function"
    },
    {
      "inputs": [
        {
          "internalType": "string",
          "name": "spaceNetworkId",
          "type": "string"
        },
        {
          "internalType": "string",
          "name": "channelNetworkId",
          "type": "string"
        },
        {
          "internalType": "bool",
          "name": "disabled",
          "type": "bool"
        }
      ],
      "name": "setChannelAccess",
      "outputs": [],
      "stateMutability": "nonpayable",
      "type": "function"
    },
    {
      "inputs": [
        {
          "internalType": "address",
          "name": "entitlementModule",
          "type": "address"
        }
      ],
      "name": "setDefaultTokenEntitlementModule",
      "outputs": [],
      "stateMutability": "nonpayable",
      "type": "function"
    },
    {
      "inputs": [
        {
          "internalType": "address",
          "name": "entitlementModule",
          "type": "address"
        }
      ],
      "name": "setDefaultUserEntitlementModule",
      "outputs": [],
      "stateMutability": "nonpayable",
      "type": "function"
    },
    {
      "inputs": [
        {
          "internalType": "string",
          "name": "spaceNetworkId",
          "type": "string"
        },
        {
          "internalType": "bool",
          "name": "disabled",
          "type": "bool"
        }
      ],
      "name": "setSpaceAccess",
      "outputs": [],
      "stateMutability": "nonpayable",
      "type": "function"
    },
    {
      "inputs": [
        {
          "internalType": "address",
          "name": "spaceNFTAddress",
          "type": "address"
        }
      ],
      "name": "setSpaceNFT",
      "outputs": [],
      "stateMutability": "nonpayable",
      "type": "function"
    },
    {
      "inputs": [
        {
          "internalType": "address",
          "name": "newOwner",
          "type": "address"
        }
      ],
      "name": "transferOwnership",
      "outputs": [],
      "stateMutability": "nonpayable",
      "type": "function"
    },
    {
      "inputs": [
        {
          "internalType": "string",
          "name": "spaceNetworkId",
          "type": "string"
        },
        {
          "internalType": "address",
          "name": "entitlementAddress",
          "type": "address"
        },
        {
          "internalType": "bool",
          "name": "whitelist",
          "type": "bool"
        }
      ],
      "name": "whitelistEntitlementModule",
      "outputs": [],
      "stateMutability": "nonpayable",
      "type": "function"
    }
  ],
  "bytecode": {
    "object": "0x60c06040523480156200001157600080fd5b5060405162005fd238038062005fd2833981016040819052620000349162000129565b6200003f33620000bc565b6001600160a01b0382166200006757604051630e52390960e41b815260040160405180910390fd5b6001600160a01b0381166200008f57604051630e52390960e41b815260040160405180910390fd5b6001600160a01b0391821660a052166080819052600b80546001600160a01b031916909117905562000161565b600080546001600160a01b038381166001600160a01b0319831681178455604051919092169283917f8be0079c531659141344cd1fd0a4f28419497f9722a3daafe3b4186f6b6457e09190a35050565b80516001600160a01b03811681146200012457600080fd5b919050565b600080604083850312156200013d57600080fd5b62000148836200010c565b915062000158602084016200010c565b90509250929050565b60805160a051615e40620001926000396000818161311701528181613a070152613b5f015260005050615e406000f3fe608060405234801561001057600080fd5b50600436106101f05760003560e01c80637a40ab901161010f578063ccde2de3116100a2578063e798ff3f11610071578063e798ff3f14610480578063f1b287d814610493578063f2fde38b146104a6578063f86caf83146104b957600080fd5b8063ccde2de314610434578063d2192dbf14610447578063d6b1b6331461045a578063e1b7a9e51461046d57600080fd5b80638da5cb5b116100de5780638da5cb5b146103ea5780639ddd0d6b146103fb578063bf77b6631461040e578063c79ff5891461042157600080fd5b80637a40ab901461039e5780637d9a0230146103b157806381fb7db2146103c45780638b0e905a146103d757600080fd5b80633519167c116101875780634832a4ec116101565780634832a4ec1461035057806350c24eef14610363578063715018a61461038357806372a293211461038b57600080fd5b80633519167c146102f75780633e66eae31461031757806340c0df811461032a5780634196d1ff1461033d57600080fd5b80631f2bd9e5116101c35780631f2bd9e5146102685780632a4bdf25146102895780632bb59212146102b45780632ca07161146102d457600080fd5b80630db37ba3146101f5578063141b64981461021e57806315478ca91461023e5780631a03962014610253575b600080fd5b6102086102033660046146e8565b6104cc565b60405161021591906147a3565b60405180910390f35b61023161022c36600461481b565b61079d565b604051610215919061485c565b610246610855565b6040516102159190614926565b61026661026136600461499d565b610a7b565b005b61027b610276366004614a10565b610acd565b604051908152602001610215565b61029c61029736600461481b565b610cf9565b6040516001600160a01b039091168152602001610215565b6102c76102c236600461481b565b610db2565b6040516102159190614a96565b6102e76102e2366004614aa9565b610fc8565b6040519015158152602001610215565b61030a61030536600461481b565b6111bb565b6040516102159190614ba5565b61027b6103253660046146e8565b61148f565b61027b610338366004614c5c565b61150d565b6102e761034b366004614d4c565b611715565b61026661035e366004614db4565b611790565b610376610371366004614f33565b6118f5565b6040516102159190614f6f565b610266611b1c565b610266610399366004615049565b611b30565b6102666103ac3660046150cc565b611dc6565b6102666103bf366004614db4565b611f4e565b6102666103d23660046150cc565b611ffe565b6102666103e5366004615165565b61217b565b6000546001600160a01b031661029c565b61027b61040936600461481b565b61235a565b6102e761041c3660046151b0565b61239b565b61026661042f366004615256565b6124c6565b61026661044236600461499d565b61264d565b61027b6104553660046146e8565b61269f565b610266610468366004615256565b612832565b61026661047b36600461499d565b6129b9565b61026661048e3660046152d1565b612a0b565b61027b6104a1366004615338565b612b54565b6102666104b436600461499d565b612efc565b6102666104c736600461536c565b612f75565b6105106040518060c001604052806000815260200160608152602001600081526020016060815260200160006001600160a01b031681526020016000151581525090565b600061055186868080601f01602080910402602001604051908101604052809392919081815260200183838082843760009201919091525061304e92505050565b905060006105c887878080601f01602080910402602001604051908101604052809392919081815260200183838082843760009201919091525050604080516020601f8b01819004810282018101909252898152925089915088908190840183828082843760009201919091525061306892505050565b6040805160c0810182526000858152600460209081528382208583528082529382208054845291859052928352600201805493945090929183019161060c906153bd565b80601f0160208091040260200160405190810160405280929190818152602001828054610638906153bd565b80156106855780601f1061065a57610100808354040283529160200191610685565b820191906000526020600020905b81548152906001019060200180831161066857829003601f168201915b5050509183525050600084815260046020908152604080832086845280835281842060018101548487015293879052909152600390910180549190920191906106cd906153bd565b80601f01602080910402602001604051908101604052809291908181526020018280546106f9906153bd565b80156107465780601f1061071b57610100808354040283529160200191610746565b820191906000526020600020905b81548152906001019060200180831161072957829003601f168201915b50505091835250506000938452600460208181526040808720868852808352818820909301546001600160a01b038116838601529590965252600160a01b90920460ff161515929091019190915295945050505050565b6060600560006107e285858080601f01602080910402602001604051908101604052809392919081815260200183838082843760009201919091525061304e92505050565b815260200190815260200160002060090180548060200260200160405190810160405280929190818152602001828054801561084757602002820191906000526020600020905b81546001600160a01b03168152600190910190602001808311610829575b505050505090505b92915050565b606060006001546001600160401b0381111561087357610873614e26565b6040519080825280602002602001820160405280156108ac57816020015b61089961464f565b8152602001906001900390816108915790505b50905060005b600154811015610a755760006005816108cc846001615407565b815260200190815260200160002090506040518060e0016040528082600001548152602001826002018054610900906153bd565b80601f016020809104026020016040519081016040528092919081815260200182805461092c906153bd565b80156109795780601f1061094e57610100808354040283529160200191610979565b820191906000526020600020905b81548152906001019060200180831161095c57829003601f168201915b505050505081526020018260010154815260200182600301805461099c906153bd565b80601f01602080910402602001604051908101604052809291908181526020018280546109c8906153bd565b8015610a155780601f106109ea57610100808354040283529160200191610a15565b820191906000526020600020905b8154815290600101906020018083116109f857829003601f168201915b505050918352505060048301546001600160a01b0390811660208301526005840154166040820152600783015460ff1615156060909101528351849084908110610a6157610a6161541a565b6020908102919091010152506001016108b2565b50919050565b610a836130bb565b600980546001600160a01b0319166001600160a01b0383169081179091556040517f07b136952c7460e1fc2d593fad96b5b379f28cc13a49857b6a825c5228c1a8d190600090a250565b6000610ad7613115565b610ae9610ae48680615430565b6131d6565b6000610af4866133f2565b600a549091506001600160a01b0316631e3197908233610b1760408b018b615430565b6040518563ffffffff1660e01b8152600401610b36949392919061549f565b600060405180830381600087803b158015610b5057600080fd5b505af1158015610b64573d6000803e3d6000fd5b5050600854610b8192508391506001600160a01b03166001613472565b600954610b9a9082906001600160a01b03166001613472565b6000610ba582613548565b60008381526005602052604090206006018190559050610bc68286866136bd565b506000610bd660208801886154ca565b9150508015610ca857600b546000906001600160a01b031663e88ca8a185610bfe8b80615430565b6040518463ffffffff1660e01b8152600401610c1c93929190615513565b6020604051808303816000875af1158015610c3b573d6000803e3d6000fd5b505050506040513d601f19601f82011682018060405250810190610c5f919061552d565b9050610c788482610c7360208c018c6154ca565b613816565b610c8f8482610c8a60408c018c6154ca565b6138b3565b610ca68482610ca160608c018c6154ca565b61391f565b505b337ff53000b1113bed1ef6bf6b948fa1fe2c66a643b317a45c5d52a1537050b2dad2610cd760208b018b615430565b604051610ce5929190615546565b60405180910390a250909695505050505050565b600a54604080516020601f85018190048102820181019092528381526000926001600160a01b03169163cc3f8dc891610d4c91879087908190840183828082843760009201919091525061304e92505050565b6040518263ffffffff1660e01b8152600401610d6a91815260200190565b602060405180830381865afa158015610d87573d6000803e3d6000fd5b505050506040513d601f19601f82011682018060405250810190610dab919061555a565b9392505050565b610dba61464f565b6000610dfb84848080601f01602080910402602001604051908101604052809392919081815260200183838082843760009201919091525061304e92505050565b6040805160e081018252600083815260056020818152938220805484529185905283526002018054939450909291830191610e35906153bd565b80601f0160208091040260200160405190810160405280929190818152602001828054610e61906153bd565b8015610eae5780601f10610e8357610100808354040283529160200191610eae565b820191906000526020600020905b815481529060010190602001808311610e9157829003601f168201915b5050505050815260200160056000848152602001908152602001600020600101548152602001600560008481526020019081526020016000206003018054610ef5906153bd565b80601f0160208091040260200160405190810160405280929190818152602001828054610f21906153bd565b8015610f6e5780601f10610f4357610100808354040283529160200191610f6e565b820191906000526020600020905b815481529060010190602001808311610f5157829003601f168201915b5050509183525050600083815260056020818152604080842060048101546001600160a01b039081168488015281850154169186019190915295909252905260079092015460ff1615156060909201919091529392505050565b6000856110165760405162461bcd60e51b8152602060048201526017602482015276139bc81c195c9b5a5cdcda5bdb9cc81c1c9bdd9a591959604a1b60448201526064015b60405180910390fd5b60006110578d8d8080601f01602080910402602001604051908101604052809392919081815260200183838082843760009201919091525061304e92505050565b9050611063818c613986565b6110c08d8d8080601f016020809104026020016040519081016040528093929190818152602001838380828437600092018290525060408051602081019091529081529250600080516020615dcb83398151915291506139bb9050565b600b5460405163344acd0160e11b81526001600160a01b03909116906368959a02906110f69084908f908f908f90600401615577565b600060405180830381600087803b15801561111057600080fd5b505af1158015611124573d6000803e3d6000fd5b50505050611134818c8a8a613aa3565b611140818c8888613de4565b61114c818c8686613f22565b8a8d8d60405161115d929190615597565b60405180910390207f801a8340a2e3e69143ad15dc0e65197734d77195e7339e153576c528f9e81d7c61118d3390565b6040516001600160a01b03909116815260200160405180910390a35060019c9b505050505050505050505050565b606060006111fe84848080601f01602080910402602001604051908101604052809392919081815260200183838082843760009201919091525061304e92505050565b600081815260056020526040812060090154919250906001600160401b0381111561122b5761122b614e26565b60405190808252806020026020018201604052801561129057816020015b61127d604051806080016040528060006001600160a01b031681526020016060815260200160608152602001606081525090565b8152602001906001900390816112495790505b506000838152600560205260408120600901549192505b818110156114845760008481526005602052604081206009018054839081106112d2576112d261541a565b6000918252602090912001546001600160a01b03169050806112f45750611472565b60006040518060800160405280836001600160a01b03168152602001836001600160a01b03166306fdde036040518163ffffffff1660e01b8152600401600060405180830381865afa15801561134e573d6000803e3d6000fd5b505050506040513d6000823e601f3d908101601f1916820160405261137691908101906155f7565b8152602001836001600160a01b0316636465e69f6040518163ffffffff1660e01b8152600401600060405180830381865afa1580156113b9573d6000803e3d6000fd5b505050506040513d6000823e601f3d908101601f191682016040526113e191908101906155f7565b8152602001836001600160a01b0316637284e4166040518163ffffffff1660e01b8152600401600060405180830381865afa158015611424573d6000803e3d6000fd5b505050506040513d6000823e601f3d908101601f1916820160405261144c91908101906155f7565b8152509050808584815181106114645761146461541a565b602002602001018190525050505b8061147c8161562b565b9150506112a7565b509095945050505050565b600061150485858080601f01602080910402602001604051908101604052809392919081815260200183838082843760009201919091525050604080516020601f8901819004810282018101909252878152925087915086908190840183828082843760009201919091525061306892505050565b95945050505050565b6000856115565760405162461bcd60e51b8152602060048201526017602482015276139bc81c195c9b5a5cdcda5bdb9cc81c1c9bdd9a591959604a1b604482015260640161100d565b6115b38b8b8080601f016020809104026020016040519081016040528093929190818152602001838380828437600092018290525060408051602081019091529081529250600080516020615dcb83398151915291506139bb9050565b60006115f48c8c8080601f01602080910402602001604051908101604052809392919081815260200183838082843760009201919091525061304e92505050565b600b5460405163e88ca8a160e01b81529192506001600160a01b03169063e88ca8a1906116299084908e908e90600401615513565b6020604051808303816000875af1158015611648573d6000803e3d6000fd5b505050506040513d601f19601f8201168201806040525081019061166c919061552d565b915061167a81838a8a613816565b611686818388886138b3565b6116928183868661391f565b89896040516116a2929190615597565b6040518091039020828d8d6040516116bb929190615597565b60405180910390207feb29af321b2cd1d53b9e6e813395256774b0015589f25c335a6d00670a164ac86116eb3390565b6040516001600160a01b03909116815260200160405180910390a4509a9950505050505050505050565b60006005600061175a86868080601f01602080910402602001604051908101604052809392919081815260200183838082843760009201919091525061304e92505050565b8152602080820192909252604090810160009081206001600160a01b038616825260080190925290205460ff1690509392505050565b6117ed84848080601f016020809104026020016040519081016040528093929190818152602001838380828437600092018290525060408051602081019091529081529250600080516020615dcb83398151915291506139bb9050565b600b54604080516020601f87018190048102820181019092528581526001600160a01b039092169163db474ecb916118409190889088908190840183828082843760009201919091525061304e92505050565b84846040518463ffffffff1660e01b815260040161186093929190615689565b600060405180830381600087803b15801561187a57600080fd5b505af115801561188e573d6000803e3d6000fd5b505050508184846040516118a3929190615597565b60405180910390207fb72e43fbdf2abeb3bfe59e783bcca829d13e9fcde1eac425751faabea6c134c96118d33390565b6040516001600160a01b0390911681526020015b60405180910390a350505050565b6040805180820190915260008152606060208201526006600061192c84805160209182012060009081526002909152604090205490565b81526020019081526020016000206040518060400160405290816000820154815260200160018201805480602002602001604051908101604052809291908181526020016000905b82821015611b0e57838290600052602060002090600502016040518060c001604052908160008201548152602001600182015481526020016002820180546119bb906153bd565b80601f01602080910402602001604051908101604052809291908181526020018280546119e7906153bd565b8015611a345780601f10611a0957610100808354040283529160200191611a34565b820191906000526020600020905b815481529060010190602001808311611a1757829003601f168201915b50505050508152602001600382018054611a4d906153bd565b80601f0160208091040260200160405190810160405280929190818152602001828054611a79906153bd565b8015611ac65780601f10611a9b57610100808354040283529160200191611ac6565b820191906000526020600020905b815481529060010190602001808311611aa957829003601f168201915b5050509183525050600491909101546001600160a01b038116602080840191909152600160a01b90910460ff1615156040909201919091529082526001929092019101611974565b505050915250909392505050565b611b246130bb565b611b2e6000614016565b565b611bb385858080601f01602080910402602001604051908101604052809392919081815260200183838082843760009201919091525050604080516020601f89018190048102820181019092528781529250879150869081908401838280828437600092019190915250600080516020615deb83398151915292506139bb915050565b611bf285858080601f01602080910402602001604051908101604052809392919081815260200183838082843760009201919091525061406692505050565b611c6585858080601f01602080910402602001604051908101604052809392919081815260200183838082843760009201919091525050604080516020601f890181900481028201810190925287815292508791508690819084018382808284376000920191909152506140dc92505050565b6000611ca686868080601f01602080910402602001604051908101604052809392919081815260200183838082843760009201919091525061304e92505050565b90506000611d1d87878080601f01602080910402602001604051908101604052809392919081815260200183838082843760009201919091525050604080516020601f8b01819004810282018101909252898152925089915088908190840183828082843760009201919091525061306892505050565b600083815260046020818152604080842085855290915290912001805460ff60a01b1916600160a01b861515021790559050336001600160a01b03168585604051611d69929190615597565b60405180910390208888604051611d81929190615597565b6040519081900381208615158252907fcba51876aa74b247950c251d3459c41aaebd8b10717beadb480ca1a105166ab59060200160405180910390a450505050505050565b611e4986868080601f01602080910402602001604051908101604052809392919081815260200183838082843760009201919091525050604080516020601f8a018190048102820181019092528881529250889150879081908401838280828437600092019190915250600080516020615deb83398151915292506139bb915050565b6000611e8a87878080601f01602080910402602001604051908101604052809392919081815260200183838082843760009201919091525061304e92505050565b90506000611f0188888080601f01602080910402602001604051908101604052809392919081815260200183838082843760009201919091525050604080516020601f8c018190048102820181019092528a815292508a915089908190840183828082843760009201919091525061306892505050565b905060005b83811015611f4357611f318383878785818110611f2557611f2561541a565b90506020020135614110565b80611f3b8161562b565b915050611f06565b505050505050505050565b611fab84848080601f016020809104026020016040519081016040528093929190818152602001838380828437600092018290525060408051602081019091529081529250600080516020615dcb83398151915291506139bb9050565b600b54604080516020601f87018190048102820181019092528581526001600160a01b0390921691633368c918916118409190889088908190840183828082843760009201919091525061304e92505050565b61208186868080601f01602080910402602001604051908101604052809392919081815260200183838082843760009201919091525050604080516020601f8a018190048102820181019092528881529250889150879081908401838280828437600092019190915250600080516020615deb83398151915292506139bb915050565b60006120c287878080601f01602080910402602001604051908101604052809392919081815260200183838082843760009201919091525061304e92505050565b9050600061213988888080601f01602080910402602001604051908101604052809392919081815260200183838082843760009201919091525050604080516020601f8c018190048102820181019092528a815292508a915089908190840183828082843760009201919091525061306892505050565b905060005b83811015611f4357612169838387878581811061215d5761215d61541a565b905060200201356141ed565b806121738161562b565b91505061213e565b6121d883838080601f016020809104026020016040519081016040528093929190818152602001838380828437600092018290525060408051602081019091529081529250600080516020615dcb83398151915291506139bb9050565b6005600061221b85858080601f01602080910402602001604051908101604052809392919081815260200183838082843760009201919091525061304e92505050565b815260200190815260200160002060060154810361224c57604051630e52390960e41b815260040160405180910390fd5b600b54604080516020601f86018190048102820181019092528481526001600160a01b039092169163cdb0ba509161229f9190879087908190840183828082843760009201919091525061304e92505050565b836040518363ffffffff1660e01b81526004016122c6929190918252602082015260400190565b600060405180830381600087803b1580156122e057600080fd5b505af11580156122f4573d6000803e3d6000fd5b50505050808383604051612309929190615597565b60405180910390207f7bb07acd566d038f77cba9c39e7536f74ea2c4ee382024d1b428d7f0680dbc026123393390565b6040516001600160a01b0390911681526020015b60405180910390a3505050565b6000610dab83838080601f01602080910402602001604051908101604052809392919081815260200183838082843760009201919091525061304e92505050565b60006123dc87878080601f0160208091040260200160405190810160405280939291908181526020018383808284376000920191909152506142ca92505050565b156123e9575060006124bc565b600061242a88888080601f01602080910402602001604051908101604052809392919081815260200183838082843760009201919091525061304e92505050565b905060006124a189898080601f01602080910402602001604051908101604052809392919081815260200183838082843760009201919091525050604080516020601f8d018190048102820181019092528b815292508b91508a908190840183828082843760009201919091525061306892505050565b90506124b78282876124b2886156c5565b614310565b925050505b9695505050505050565b61250586868080601f01602080910402602001604051908101604052809392919081815260200183838082843760009201919091525061406692505050565b61256286868080601f016020809104026020016040519081016040528093929190818152602001838380828437600092018290525060408051602081019091529081529250600080516020615deb83398151915291506139bb9050565b61256b84614411565b60006125ac87878080601f01602080910402602001604051908101604052809392919081815260200183838082843760009201919091525061304e92505050565b90506125b88185613986565b6125fa81868686868080601f0160208091040260200160405190810160405280939291908181526020018383808284376000920191909152506144a292505050565b846001600160a01b03168787604051612614929190615597565b604051908190038120907fe78ad18845af93a80fbe8718cacc631fbe1c453b092806818a044440b96ba67790600090a350505050505050565b6126556130bb565b600a80546001600160a01b0319166001600160a01b0383169081179091556040517f68e3ca42e475f54d65227ed8cb60daf9cec4546691052783063876ad972db71190600090a250565b60006126fe85858080601f016020809104026020016040519081016040528093929190818152602001838380828437600092018290525060408051602081019091529081529250600080516020615dcb83398151915291506139bb9050565b600b54604080516020601f88018190048102820181019092528681526001600160a01b039092169163e88ca8a1916127519190899089908190840183828082843760009201919091525061304e92505050565b85856040518463ffffffff1660e01b815260040161277193929190615513565b6020604051808303816000875af1158015612790573d6000803e3d6000fd5b505050506040513d601f19601f820116820180604052508101906127b4919061552d565b905082826040516127c6929190615597565b60405180910390208186866040516127df929190615597565b60405180910390207fc06cee439d340740b1e427558729eb0fcc080aa2ab6d0bcfb30b6618234f460a61280f3390565b6040516001600160a01b03909116815260200160405180910390a4949350505050565b61287186868080601f01602080910402602001604051908101604052809392919081815260200183838082843760009201919091525061406692505050565b6128ce86868080601f016020809104026020016040519081016040528093929190818152602001838380828437600092018290525060408051602081019091529081529250600080516020615deb83398151915291506139bb9050565b600061290f87878080601f01602080910402602001604051908101604052809392919081815260200183838082843760009201919091525061304e92505050565b905061291b8185613986565b61292485614411565b61296681868686868080601f01602080910402602001604051908101604052809392919081815260200183838082843760009201919091525061454692505050565b846001600160a01b03168787604051612980929190615597565b604051908190038120907f9b42a541e0a10f6a80059e1448b92d56a4e71354d43a2ca1fd3701878cb50ae290600090a350505050505050565b6129c16130bb565b600880546001600160a01b0319166001600160a01b0383169081179091556040517f07b136952c7460e1fc2d593fad96b5b379f28cc13a49857b6a825c5228c1a8d190600090a250565b612a1482614411565b612a7184848080601f016020809104026020016040519081016040528093929190818152602001838380828437600092018290525060408051602081019091529081529250600080516020615dcb83398151915291506139bb9050565b6009546001600160a01b0383811691161480612a9a57506008546001600160a01b038381169116145b15612ab857604051631eb49d6d60e11b815260040160405180910390fd5b612b01612afa85858080601f01602080910402602001604051908101604052809392919081815260200183838082843760009201919091525061304e92505050565b8383613472565b816001600160a01b03168484604051612b1b929190615597565b6040519081900381208315158252907f558bdc63bfb8cb1188bc6f559a22d16b8e64dccf7af1d84c90bcf2b7feb1e009906020016118e7565b6000612bcd612b638380615430565b8080601f0160208091040260200160405190810160405280939291908181526020018383808284376000920182905250604080516020810190915290815292507f5ef98f1e5b8bd5ee1978908b3f5b2128d59a65f7702f04e6aca3c95aff590be191506139bb9050565b612c14612bda8380615430565b8080601f01602080910402602001604051908101604052809392919081815260200183838082843760009201919091525061406692505050565b612c24610ae46020840184615430565b6000612c6d612c338480615430565b8080601f01602080910402602001604051908101604052809392919081815260200183838082843760009201919091525061304e92505050565b9050612c8181612c7c85615793565b6145bc565b6000828152600560205260408120600901549193505b81811015612ef4576000838152600560205260408120600901805483908110612cc257612cc261541a565b6000918252602090912001546001600160a01b0316905080612ce45750612ee2565b600084815260056020526040908190206006015490516340a74b4360e01b8152600481018690526024810187905260448101919091526001600160a01b038216906340a74b4390606401600060405180830381600087803b158015612d4857600080fd5b505af1158015612d5c573d6000803e3d6000fd5b5050505060005b612d7060608801886154ca565b9050811015612edf57600085815260056020526040902060060154612d9860608901896154ca565b83818110612da857612da861541a565b905060200201350315612ecd576001600160a01b0382166340a74b438688612dd360608c018c6154ca565b86818110612de357612de361541a565b6040516001600160e01b031960e088901b1681526004810195909552602485019390935250602090910201356044820152606401600060405180830381600087803b158015612e3157600080fd5b505af1925050508015612e42575060015b612e5f5760405163d9afe50760e01b815260040160405180910390fd5b33612e6d6040890189615430565b604051612e7b929190615597565b604051908190039020612e8e8980615430565b604051612e9c929190615597565b604051908190038120907ff22ca4e1529bca70f91b82d259651796b8973cec866e55ad258c1f6d56ea71d390600090a45b80612ed78161562b565b915050612d63565b50505b80612eec8161562b565b915050612c97565b505050919050565b612f046130bb565b6001600160a01b038116612f695760405162461bcd60e51b815260206004820152602660248201527f4f776e61626c653a206e6577206f776e657220697320746865207a65726f206160448201526564647265737360d01b606482015260840161100d565b612f7281614016565b50565b612f9d8260405180602001604052806000815250600080516020615dcb8339815191526139bb565b6000612fbd83805160209182012060009081526002909152604090205490565b905080600003612fe05760405163be34080760e01b815260040160405180910390fd5b6000818152600560205260409020600701805460ff1916831515179055336001600160a01b0316836040516130159190615849565b6040519081900381208415158252907fb52a77d1c8e7ecf705bef894088b2c74fb373648434090edc15688f5c80a86879060200161234d565b805160209182012060009081526002909152604090205490565b60006003600061308c85805160209182012060009081526002909152604090205490565b815260200190815260200160002060008380519060200120815260200190815260200160002054905092915050565b6000546001600160a01b03163314611b2e5760405162461bcd60e51b815260206004820181905260248201527f4f776e61626c653a2063616c6c6572206973206e6f7420746865206f776e6572604482015260640161100d565b7f00000000000000000000000000000000000000000000000000000000000000006001600160a01b031661315c5760405163361882e360e01b815260040160405180910390fd5b6008546001600160a01b031661318557604051632ab51add60e01b815260040160405180910390fd5b6009546001600160a01b03166131ae57604051632ab51add60e01b815260040160405180910390fd5b600a546001600160a01b0316611b2e5760405162d1740b60e61b815260040160405180910390fd5b600082828080601f016020809104026020016040519081016040528093929190818152602001838380828437600092019190915250508251929350506002909110905080613225575080516020105b156132435760405163354b556f60e11b815260040160405180910390fd5b805160005b818110156133eb57600360fc1b8382815181106132675761326761541a565b01602001516001600160f81b03191610806132a55750603d60f91b8382815181106132945761329461541a565b01602001516001600160f81b031916115b806133015750603960f81b8382815181106132c2576132c261541a565b01602001516001600160f81b0319161180156133015750606160f81b8382815181106132f0576132f061541a565b01602001516001600160f81b031916105b8015613332575082818151811061331a5761331a61541a565b6020910101516001600160f81b031916601760f91b14155b8015613363575082818151811061334b5761334b61541a565b6020910101516001600160f81b031916602d60f81b14155b8015613394575082818151811061337c5761337c61541a565b6020910101516001600160f81b031916605f60f81b14155b80156133c557508281815181106133ad576133ad61541a565b6020910101516001600160f81b031916600160fd1b14155b156133e35760405163f8fa659760e01b815260040160405180910390fd5b600101613248565b5050505050565b6001805481019081905560405163aa424abb60e01b815273__$41f15a773ad44a80f32c4029fe25814db2$__9063aa424abb9061343d90859085903390600290600590600401615865565b60006040518083038186803b15801561345557600080fd5b505af4158015613469573d6000803e3d6000fd5b50505050919050565b8080156134a4575060008381526005602090815260408083206001600160a01b038616845260080190915290205460ff165b156134c25760405163186abc9b60e01b815260040160405180910390fd5b60405163fd81c88f60e01b8152600481018490526001600160a01b038316602482015281151560448201526005606482015273__$41f15a773ad44a80f32c4029fe25814db2$__9063fd81c88f9060840160006040518083038186803b15801561352b57600080fd5b505af415801561353f573d6000803e3d6000fd5b50505050505050565b604080516080808201835260008083526020808401829052838501829052606093840182905284519283018552600a546001600160a01b03168352600183820181905283860181905293830186905284518481528086019095529093919284929182015b6040805160808101825260008082526020808301829052928201819052606082015282526000199092019101816135ac57905050905081816000815181106135f6576135f661541a565b602090810291909101810191909152604080519182018152828252600b54905163f62df4df60e01b8152600481018790526000916001600160a01b03169063f62df4df906024016020604051808303816000875af115801561365c573d6000803e3d6000fd5b505050506040513d601f19601f82011682018060405250810190613680919061552d565b6009546040519192506115049188916001600160a01b03169088906136a990879060200161590c565b6040516020818303038152906040526144a2565b600b546040805163e88ca8a160e01b8152600481018690526024810191909152600860448201526745766572796f6e6560c01b60648201526000916001600160a01b03169063e88ca8a1906084016020604051808303816000875af115801561372a573d6000803e3d6000fd5b505050506040513d601f19601f8201168201806040525081019061374e919061552d565b905060005b828110156137ed57600b546001600160a01b0316633368c91886848787868181106137805761378061541a565b90506020028101906137929190615978565b6040518463ffffffff1660e01b81526004016137b093929190615689565b600060405180830381600087803b1580156137ca57600080fd5b505af11580156137de573d6000803e3d6000fd5b50505050806001019050613753565b506008546040805160016020820152610dab9287926001600160a01b03909116918591016136a9565b60005b818110156133eb57600b546001600160a01b0316633368c91886868686868181106138465761384661541a565b90506020028101906138589190615978565b6040518463ffffffff1660e01b815260040161387693929190615689565b600060405180830381600087803b15801561389057600080fd5b505af11580156138a4573d6000803e3d6000fd5b50505050806001019050613819565b60005b818110156133eb5760008383838181106138d2576138d261541a565b90506020028101906138e49190615978565b6138ed9061598e565b6009546040519192506139169188916001600160a01b03169088906136a990869060200161590c565b506001016138b6565b60005b818110156133eb5760085461397e9086906001600160a01b03168686868681811061394f5761394f61541a565b9050602002016020810190613964919061499d565b604080516001600160a01b039092166020830152016136a9565b600101613922565b60008281526005602052604090206006015481036139b757604051631eb49d6d60e11b815260040160405180910390fd5b5050565b60006139db84805160209182012060009081526002909152604090205490565b905060006139e98585613068565b9050613a7e82823360405163173c4a6360e01b8152600481018890527f00000000000000000000000000000000000000000000000000000000000000006001600160a01b03169063173c4a6390602401600060405180830381865afa158015613a56573d6000803e3d6000fd5b505050506040513d6000823e601f3d908101601f191682016040526124b29190810190615ab1565b15613a8a575050505050565b604051631eb49d6d60e11b815260040160405180910390fd5b600b546040516329f4c97f60e21b815260048101869052602481018590526000916001600160a01b03169063a7d325fc90604401600060405180830381865afa158015613af4573d6000803e3d6000fd5b505050506040513d6000823e601f3d908101601f19168201604052613b1c9190810190615ae5565b60405163173c4a6360e01b81527f929f3fd6848015f83b9210c89f7744e3941acae1195c8bf9f5798c090dc8f49760048201529091506000906001600160a01b037f0000000000000000000000000000000000000000000000000000000000000000169063173c4a6390602401600060405180830381865afa158015613ba6573d6000803e3d6000fd5b505050506040513d6000823e601f3d908101601f19168201604052613bce9190810190615ab1565b600001519050600081604051602001613be79190615849565b60405160208183030381529060405280519060200120905060005b8351811015613ce35781848281518110613c1e57613c1e61541a565b602002602001015160000151604051602001613c3a9190615849565b6040516020818303038152906040528051906020012014613cdb57600b5484516001600160a01b039091169063db474ecb908a908a90889086908110613c8257613c8261541a565b60200260200101516040518463ffffffff1660e01b8152600401613ca893929190615b95565b600060405180830381600087803b158015613cc257600080fd5b505af1158015613cd6573d6000803e3d6000fd5b505050505b600101613c02565b5060005b84811015613dda5781868683818110613d0257613d0261541a565b9050602002810190613d149190615978565b613d1e9080615430565b604051602001613d2f929190615597565b6040516020818303038152906040528051906020012014613dd257600b546001600160a01b0316633368c9188989898986818110613d6f57613d6f61541a565b9050602002810190613d819190615978565b6040518463ffffffff1660e01b8152600401613d9f93929190615689565b600060405180830381600087803b158015613db957600080fd5b505af1158015613dcd573d6000803e3d6000fd5b505050505b600101613ce7565b5050505050505050565b600954604051633cb36fa160e11b815260048101869052602481018590526000916001600160a01b031690637966df4290604401600060405180830381865afa158015613e35573d6000803e3d6000fd5b505050506040513d6000823e601f3d908101601f19168201604052613e5d9190810190615bbd565b905060005b8151811015613ead57613ea586600960009054906101000a90046001600160a01b031687858581518110613e9857613e9861541a565b6020026020010151614546565b600101613e62565b5060005b82811015613f1a576000848483818110613ecd57613ecd61541a565b9050602002810190613edf9190615978565b613ee89061598e565b600954604051919250613f119189916001600160a01b03169089906136a990869060200161590c565b50600101613eb1565b505050505050565b600854604051633cb36fa160e11b815260048101869052602481018590526000916001600160a01b031690637966df4290604401600060405180830381865afa158015613f73573d6000803e3d6000fd5b505050506040513d6000823e601f3d908101601f19168201604052613f9b9190810190615bbd565b905060005b82811015613fdd57613fd586600860009054906101000a90046001600160a01b031687858581518110613e9857613e9861541a565b600101613fa0565b5060005b82811015613f1a5760085461400e9087906001600160a01b03168787878681811061394f5761394f61541a565b600101613fe1565b600080546001600160a01b038381166001600160a01b0319831681178455604051919092169283917f8be0079c531659141344cd1fd0a4f28419497f9722a3daafe3b4186f6b6457e09190a35050565b600061408682805160209182012060009081526002909152604090205490565b9050806000036140a95760405163be34080760e01b815260040160405180910390fd5b60008181526005602052604090206007015460ff16156139b75760405163be34080760e01b815260040160405180910390fd5b60006140e88383613068565b90508060000361410b57604051636ddd9da960e01b815260040160405180910390fd5b505050565b600083815260056020526040812060090154905b818110156133eb57600085815260056020526040812060090180548390811061414f5761414f61541a565b6000918252602090912001546001600160a01b031690508061417157506141db565b604051635c1b185d60e01b81526004810187905260248101869052604481018590526001600160a01b03821690635c1b185d90606401600060405180830381600087803b1580156141c157600080fd5b505af11580156141d5573d6000803e3d6000fd5b50505050505b806141e58161562b565b915050614124565b600083815260056020526040812060090154905b818110156133eb57600085815260056020526040812060090180548390811061422c5761422c61541a565b6000918252602090912001546001600160a01b031690508061424e57506142b8565b6040516340a74b4360e01b81526004810187905260248101869052604481018590526001600160a01b038216906340a74b4390606401600060405180830381600087803b15801561429e57600080fd5b505af11580156142b2573d6000803e3d6000fd5b50505050505b806142c28161562b565b915050614201565b6000806142eb83805160209182012060009081526002909152604090205490565b9050801580610dab575060009081526005602052604090206007015460ff1692915050565b600084815260056020526040812060090154815b8181101561440757600087815260056020526040812060090180548390811061434f5761434f61541a565b6000918252602090912001546001600160a01b031690508061437157506143f5565b604051636621899960e01b81526001600160a01b038216906366218999906143a3908b908b908b908b90600401615c75565b602060405180830381865afa1580156143c0573d6000803e3d6000fd5b505050506040513d601f19601f820116820180604052508101906143e49190615cab565b156143f3576001935050614407565b505b806143ff8161562b565b915050614324565b5050949350505050565b6040516301ffc9a760e01b81526392d0109760e01b60048201526001600160a01b038216906301ffc9a790602401602060405180830381865afa15801561445c573d6000803e3d6000fd5b505050506040513d601f19601f820116820180604052508101906144809190615cab565b1515600003612f7257604051636d9250f160e11b815260040160405180910390fd5b60008481526005602090815260408083206001600160a01b038716845260080190915290205460ff166144e85760405163c1ef36f360e01b815260040160405180910390fd5b604051632587e8d160e11b81526001600160a01b03841690634b0fd1a29061451890879086908690600401615cc8565b600060405180830381600087803b15801561453257600080fd5b505af1158015613dda573d6000803e3d6000fd5b60008481526005602090815260408083206001600160a01b038716845260080190915290205460ff1661458c5760405163c1ef36f360e01b815260040160405180910390fd5b604051630f477aa360e21b81526001600160a01b03841690633d1dea8c9061451890879086908690600401615cc8565b600082815260066020526040902080546001019081905573__$41f15a773ad44a80f32c4029fe25814db2$__631ddb9a8b838584336006600360046040518863ffffffff1660e01b81526004016146199796959493929190615ce7565b60006040518083038186803b15801561463157600080fd5b505af4158015614645573d6000803e3d6000fd5b5050505092915050565b6040518060e001604052806000815260200160608152602001600081526020016060815260200160006001600160a01b0316815260200160006001600160a01b031681526020016000151581525090565b60008083601f8401126146b257600080fd5b5081356001600160401b038111156146c957600080fd5b6020830191508360208285010111156146e157600080fd5b9250929050565b600080600080604085870312156146fe57600080fd5b84356001600160401b038082111561471557600080fd5b614721888389016146a0565b9096509450602087013591508082111561473a57600080fd5b50614747878288016146a0565b95989497509550505050565b60005b8381101561476e578181015183820152602001614756565b50506000910152565b6000815180845261478f816020860160208601614753565b601f01601f19169290920160200192915050565b60208152815160208201526000602083015160c060408401526147c960e0840182614777565b9050604084015160608401526060840151601f198483030160808501526147f08282614777565b91505060018060a01b0360808501511660a084015260a0840151151560c08401528091505092915050565b6000806020838503121561482e57600080fd5b82356001600160401b0381111561484457600080fd5b614850858286016146a0565b90969095509350505050565b6020808252825182820181905260009190848201906040850190845b8181101561489d5783516001600160a01b031683529284019291840191600101614878565b50909695505050505050565b805182526000602082015160e060208501526148c860e0850182614777565b905060408301516040850152606083015184820360608601526148eb8282614777565b915050608083015160018060a01b0380821660808701528060a08601511660a0870152505060c0830151151560c08501528091505092915050565b6000602080830181845280855180835260408601915060408160051b870101925083870160005b8281101561497b57603f198886030184526149698583516148a9565b9450928501929085019060010161494d565b5092979650505050505050565b6001600160a01b0381168114612f7257600080fd5b6000602082840312156149af57600080fd5b8135610dab81614988565b600060808284031215610a7557600080fd5b60008083601f8401126149de57600080fd5b5081356001600160401b038111156149f557600080fd5b6020830191508360208260051b85010111156146e157600080fd5b60008060008060608587031215614a2657600080fd5b84356001600160401b0380821115614a3d57600080fd5b9086019060608289031215614a5157600080fd5b90945060208601359080821115614a6757600080fd5b614a73888389016149ba565b94506040870135915080821115614a8957600080fd5b50614747878288016149cc565b602081526000610dab60208301846148a9565b600080600080600080600080600080600060c08c8e031215614aca57600080fd5b6001600160401b03808d351115614ae057600080fd5b614aed8e8e358f016146a0565b909c509a5060208d0135995060408d0135811015614b0a57600080fd5b614b1a8e60408f01358f016146a0565b909950975060608d0135811015614b3057600080fd5b614b408e60608f01358f016149cc565b909750955060808d0135811015614b5657600080fd5b614b668e60808f01358f016149cc565b909550935060a08d0135811015614b7c57600080fd5b50614b8d8d60a08e01358e016149cc565b81935080925050509295989b509295989b9093969950565b60006020808301818452808551808352604092508286019150828160051b87010184880160005b83811015614c4e57888303603f19018552815180516001600160a01b0316845287810151608089860181905290614c0582870182614777565b9150508782015185820389870152614c1d8282614777565b91505060608083015192508582038187015250614c3a8183614777565b968901969450505090860190600101614bcc565b509098975050505050505050565b60008060008060008060008060008060a08b8d031215614c7b57600080fd5b8a356001600160401b0380821115614c9257600080fd5b614c9e8e838f016146a0565b909c509a5060208d0135915080821115614cb757600080fd5b614cc38e838f016146a0565b909a50985060408d0135915080821115614cdc57600080fd5b614ce88e838f016149cc565b909850965060608d0135915080821115614d0157600080fd5b614d0d8e838f016149cc565b909650945060808d0135915080821115614d2657600080fd5b50614d338d828e016149cc565b915080935050809150509295989b9194979a5092959850565b600080600060408486031215614d6157600080fd5b83356001600160401b03811115614d7757600080fd5b614d83868287016146a0565b9094509250506020840135614d9781614988565b809150509250925092565b600060208284031215610a7557600080fd5b60008060008060608587031215614dca57600080fd5b84356001600160401b0380821115614de157600080fd5b614ded888389016146a0565b9096509450602087013593506040870135915080821115614e0d57600080fd5b50614e1a87828801614da2565b91505092959194509250565b634e487b7160e01b600052604160045260246000fd5b604051602081016001600160401b0381118282101715614e5e57614e5e614e26565b60405290565b604051608081016001600160401b0381118282101715614e5e57614e5e614e26565b604051601f8201601f191681016001600160401b0381118282101715614eae57614eae614e26565b604052919050565b60006001600160401b03821115614ecf57614ecf614e26565b50601f01601f191660200190565b600082601f830112614eee57600080fd5b8135614f01614efc82614eb6565b614e86565b818152846020838601011115614f1657600080fd5b816020850160208301376000918101602001919091529392505050565b600060208284031215614f4557600080fd5b81356001600160401b03811115614f5b57600080fd5b614f6784828501614edd565b949350505050565b6000602080835260608084018551838601528286015160408081880152828251808552608094508489019150848160051b8a0101878501945060005b8281101561502c57607f198b8303018452855160c0815184528a8201518b850152868201518188860152614fe182860182614777565b915050898201518482038b860152614ff98282614777565b8a8401516001600160a01b0316868c015260a0938401511515939095019290925250509488019492880192600101614fab565b509a9950505050505050505050565b8015158114612f7257600080fd5b60008060008060006060868803121561506157600080fd5b85356001600160401b038082111561507857600080fd5b61508489838a016146a0565b9097509550602088013591508082111561509d57600080fd5b506150aa888289016146a0565b90945092505060408601356150be8161503b565b809150509295509295909350565b600080600080600080606087890312156150e557600080fd5b86356001600160401b03808211156150fc57600080fd5b6151088a838b016146a0565b9098509650602089013591508082111561512157600080fd5b61512d8a838b016146a0565b9096509450604089013591508082111561514657600080fd5b5061515389828a016149cc565b979a9699509497509295939492505050565b60008060006040848603121561517a57600080fd5b83356001600160401b0381111561519057600080fd5b61519c868287016146a0565b909790965060209590950135949350505050565b600080600080600080608087890312156151c957600080fd5b86356001600160401b03808211156151e057600080fd5b6151ec8a838b016146a0565b9098509650602089013591508082111561520557600080fd5b6152118a838b016146a0565b90965094506040890135915061522682614988565b9092506060880135908082111561523c57600080fd5b5061524989828a01614da2565b9150509295509295509295565b6000806000806000806080878903121561526f57600080fd5b86356001600160401b038082111561528657600080fd5b6152928a838b016146a0565b9098509650602089013591506152a782614988565b90945060408801359350606088013590808211156152c457600080fd5b5061515389828a016146a0565b600080600080606085870312156152e757600080fd5b84356001600160401b038111156152fd57600080fd5b615309878288016146a0565b909550935050602085013561531d81614988565b9150604085013561532d8161503b565b939692955090935050565b60006020828403121561534a57600080fd5b81356001600160401b0381111561536057600080fd5b614f67848285016149ba565b6000806040838503121561537f57600080fd5b82356001600160401b0381111561539557600080fd5b6153a185828601614edd565b92505060208301356153b28161503b565b809150509250929050565b600181811c908216806153d157607f821691505b602082108103610a7557634e487b7160e01b600052602260045260246000fd5b634e487b7160e01b600052601160045260246000fd5b8082018082111561084f5761084f6153f1565b634e487b7160e01b600052603260045260246000fd5b6000808335601e1984360301811261544757600080fd5b8301803591506001600160401b0382111561546157600080fd5b6020019150368190038213156146e157600080fd5b81835281816020850137506000828201602090810191909152601f909101601f19169091010190565b8481526001600160a01b03841660208201526060604082018190526000906124bc9083018486615476565b6000808335601e198436030181126154e157600080fd5b8301803591506001600160401b038211156154fb57600080fd5b6020019150600581901b36038213156146e157600080fd5b838152604060208201526000611504604083018486615476565b60006020828403121561553f57600080fd5b5051919050565b602081526000614f67602083018486615476565b60006020828403121561556c57600080fd5b8151610dab81614988565b8481528360208201526060604082015260006124bc606083018486615476565b8183823760009101908152919050565b60006155b5614efc84614eb6565b90508281528383830111156155c957600080fd5b610dab836020830184614753565b600082601f8301126155e857600080fd5b610dab838351602085016155a7565b60006020828403121561560957600080fd5b81516001600160401b0381111561561f57600080fd5b614f67848285016155d7565b60006001820161563d5761563d6153f1565b5060010190565b6000808335601e1984360301811261565b57600080fd5b83016020810192503590506001600160401b0381111561567a57600080fd5b8036038213156146e157600080fd5b8381528260208201526060604082015260006156a58384615644565b602060608501526156ba608085018284615476565b979650505050505050565b6000602082360312156156d757600080fd5b6156df614e3c565b82356001600160401b038111156156f557600080fd5b61570136828601614edd565b82525092915050565b60006001600160401b0382111561572357615723614e26565b5060051b60200190565b600082601f83011261573e57600080fd5b8135602061574e614efc8361570a565b82815260059290921b8401810191818101908684111561576d57600080fd5b8286015b848110156157885780358352918301918301615771565b509695505050505050565b6000608082360312156157a557600080fd5b6157ad614e64565b82356001600160401b03808211156157c457600080fd5b6157d036838701614edd565b835260208501359150808211156157e657600080fd5b6157f236838701614edd565b6020840152604085013591508082111561580b57600080fd5b61581736838701614edd565b6040840152606085013591508082111561583057600080fd5b5061583d3682860161572d565b60608301525092915050565b6000825161585b818460208701614753565b9190910192915050565b60a0815260006158758788615644565b606060a085015261588b61010085018284615476565b91505061589b6020890189615644565b609f19808685030160c08701526158b3848385615476565b93506158c260408c018c615644565b93509150808685030160e0870152506158dc838383615476565b6020860199909952505050506001600160a01b039390931660408401526060830191909152608090910152919050565b60006020808352604080840185518384870152818151808452606093508388019150858301925060005b81811015614c4e57835180516001600160a01b031684528781015188850152868101511515878501528501518584015292860192608090920191600101615936565b60008235601e1983360301811261585b57600080fd5b600060208083360312156159a157600080fd5b6159a9614e3c565b83356001600160401b038111156159bf57600080fd5b840136601f8201126159d057600080fd5b80356159de614efc8261570a565b81815260079190911b820184019084810190368311156159fd57600080fd5b928501925b82841015615a665760808436031215615a1b5760008081fd5b615a23614e64565b8435615a2e81614988565b81528487013587820152604080860135615a478161503b565b9082015260608581013590820152825260809093019290850190615a02565b8452509195945050505050565b600060208284031215615a8557600080fd5b615a8d614e3c565b905081516001600160401b03811115615aa557600080fd5b615701848285016155d7565b600060208284031215615ac357600080fd5b81516001600160401b03811115615ad957600080fd5b614f6784828501615a73565b60006020808385031215615af857600080fd5b82516001600160401b0380821115615b0f57600080fd5b818501915085601f830112615b2357600080fd5b8151615b31614efc8261570a565b81815260059190911b83018401908481019088831115615b5057600080fd5b8585015b83811015615b8857805185811115615b6c5760008081fd5b615b7a8b89838a0101615a73565b845250918601918601615b54565b5098975050505050505050565b8381528260208201526060604082015260008251602060608401526124bc6080840182614777565b60006020808385031215615bd057600080fd5b82516001600160401b0380821115615be757600080fd5b818501915085601f830112615bfb57600080fd5b8151615c09614efc8261570a565b81815260059190911b83018401908481019088831115615c2857600080fd5b8585015b83811015615b8857805185811115615c445760008081fd5b8601603f81018b13615c565760008081fd5b615c678b89830151604084016155a7565b845250918601918601615c2c565b84815283602082015260018060a01b03831660408201526080606082015260008251602060808401526156ba60a0840182614777565b600060208284031215615cbd57600080fd5b8151610dab8161503b565b8381528260208201526060604082015260006115046060830184614777565b60e0815260008851608060e0840152615d04610160840182614777565b90506020808b015160df198086850301610100870152615d248483614777565b935060408d015191508086850301610120870152615d428483614777565b60608e015187820390920161014088015281518082529184019450600092508301905b80831015615d855784518252938301936001929092019190830190615d65565b509185018b905250604084018990526001600160a01b03881660608501529150615dac9050565b8460808301528360a08301528260c08301529897505050505050505056fe75be26f315524d8937b28469fe5b4df7e59aebca1fcbbbe5669005e1491b131b71e770fed024e50450e0cb5318c1a012e92ab6439dfbe6c071800b700ce55c0aa26469706673582212208f9c5e1e63e50769a12f23bbe60980702f1c18393ba8248ce0e41e21116959ef64736f6c63430008110033",
    "linkReferences": {
      "contracts/src/spaces/libraries/CreationLogic.sol": {
        "CreationLogic": [
          {
            "start": 13725,
            "length": 20
          },
          {
            "start": 13960,
            "length": 20
          },
          {
            "start": 18279,
            "length": 20
          }
        ]
      }
    }
  },
  "methodIdentifiers": {
    "addPermissionToRole(string,uint256,(string))": "7d9a0230",
    "addRoleIdsToChannel(string,string,uint256[])": "81fb7db2",
    "addRoleToEntitlementModule(string,address,uint256,bytes)": "c79ff589",
    "createChannel((string,string,string,uint256[]))": "f1b287d8",
    "createRole(string,string)": "d2192dbf",
    "createRoleWithEntitlementData(string,string,(string)[],((address,uint256,bool,uint256)[])[],address[])": "40c0df81",
    "createSpace((string,string,string),(string,(string)[],((address,uint256,bool,uint256)[])[],address[]),(string)[])": "1f2bd9e5",
    "getChannelIdByNetworkId(string,string)": "3e66eae3",
    "getChannelInfoByChannelId(string,string)": "0db37ba3",
    "getChannelsBySpaceId(string)": "50c24eef",
    "getEntitlementModulesBySpaceId(string)": "141b6498",
    "getEntitlementsInfoBySpaceId(string)": "3519167c",
    "getSpaceIdByNetworkId(string)": "9ddd0d6b",
    "getSpaceInfoBySpaceId(string)": "2bb59212",
    "getSpaceOwnerBySpaceId(string)": "2a4bdf25",
    "getSpaces()": "15478ca9",
    "isEntitled(string,string,address,(string))": "bf77b663",
    "isEntitlementModuleWhitelisted(string,address)": "4196d1ff",
    "modifyRoleWithEntitlementData(string,uint256,string,(string)[],((address,uint256,bool,uint256)[])[],address[])": "2ca07161",
    "owner()": "8da5cb5b",
    "removeEntitlement(string,address,uint256,bytes)": "d6b1b633",
    "removePermissionFromRole(string,uint256,(string))": "4832a4ec",
    "removeRole(string,uint256)": "8b0e905a",
    "removeRoleIdsFromChannel(string,string,uint256[])": "7a40ab90",
    "renounceOwnership()": "715018a6",
    "setChannelAccess(string,string,bool)": "72a29321",
    "setDefaultTokenEntitlementModule(address)": "1a039620",
    "setDefaultUserEntitlementModule(address)": "e1b7a9e5",
    "setSpaceAccess(string,bool)": "f86caf83",
    "setSpaceNFT(address)": "ccde2de3",
    "transferOwnership(address)": "f2fde38b",
    "whitelistEntitlementModule(string,address,bool)": "e798ff3f"
  },
  "id": 27
}