{
  "abi": [
    {
      "inputs": [
        {
          "internalType": "address",
          "name": "_permissionRegistry",
          "type": "address"
        },
        {
          "internalType": "address",
          "name": "_roleManager",
          "type": "address"
        }
      ],
      "stateMutability": "nonpayable",
      "type": "constructor"
    },
    {
      "inputs": [],
      "name": "ChannelDoesNotExist",
      "type": "error"
    },
    {
      "inputs": [],
      "name": "DefaultEntitlementModuleNotSet",
      "type": "error"
    },
    {
      "inputs": [],
      "name": "DefaultPermissionsManagerNotSet",
      "type": "error"
    },
    {
      "inputs": [],
      "name": "EntitlementAlreadyWhitelisted",
      "type": "error"
    },
    {
      "inputs": [],
      "name": "EntitlementModuleNotSupported",
      "type": "error"
    },
    {
      "inputs": [],
      "name": "EntitlementNotWhitelisted",
      "type": "error"
    },
    {
      "inputs": [],
      "name": "InvalidParameters",
      "type": "error"
    },
    {
      "inputs": [],
      "name": "NameContainsInvalidCharacters",
      "type": "error"
    },
    {
      "inputs": [],
      "name": "NameLengthInvalid",
      "type": "error"
    },
    {
      "inputs": [],
      "name": "NotAllowed",
      "type": "error"
    },
    {
      "inputs": [],
      "name": "RoleDoesNotExist",
      "type": "error"
    },
    {
      "inputs": [],
      "name": "SpaceDoesNotExist",
      "type": "error"
    },
    {
      "inputs": [],
      "name": "SpaceNFTNotSet",
      "type": "error"
    },
    {
      "anonymous": false,
      "inputs": [
        {
          "indexed": true,
          "internalType": "address",
          "name": "previousOwner",
          "type": "address"
        },
        {
          "indexed": true,
          "internalType": "address",
          "name": "newOwner",
          "type": "address"
        }
      ],
      "name": "OwnershipTransferred",
      "type": "event"
    },
    {
      "inputs": [
        {
          "internalType": "string",
          "name": "spaceId",
          "type": "string"
        },
        {
          "internalType": "uint256",
          "name": "roleId",
          "type": "uint256"
        },
        {
          "components": [
            {
              "internalType": "string",
              "name": "name",
              "type": "string"
            }
          ],
          "internalType": "struct DataTypes.Permission",
          "name": "permission",
          "type": "tuple"
        }
      ],
      "name": "addPermissionToRole",
      "outputs": [],
      "stateMutability": "nonpayable",
      "type": "function"
    },
    {
      "inputs": [
        {
          "internalType": "string",
          "name": "spaceNetworkId",
          "type": "string"
        },
        {
          "internalType": "string",
          "name": "channelNetworkId",
          "type": "string"
        },
        {
          "internalType": "address",
          "name": "entitlementModuleAddress",
          "type": "address"
        },
        {
          "internalType": "uint256",
          "name": "roleId",
          "type": "uint256"
        },
        {
          "internalType": "bytes",
          "name": "entitlementData",
          "type": "bytes"
        }
      ],
      "name": "addRoleToEntitlementModule",
      "outputs": [],
      "stateMutability": "nonpayable",
      "type": "function"
    },
    {
      "inputs": [
        {
          "components": [
            {
              "internalType": "string",
              "name": "spaceNetworkId",
              "type": "string"
            },
            {
              "internalType": "string",
              "name": "channelName",
              "type": "string"
            },
            {
              "internalType": "string",
              "name": "channelNetworkId",
              "type": "string"
            }
          ],
          "internalType": "struct DataTypes.CreateChannelData",
          "name": "data",
          "type": "tuple"
        },
        {
          "components": [
            {
              "internalType": "uint256",
              "name": "roleId",
              "type": "uint256"
            },
            {
              "internalType": "address",
              "name": "entitlementModule",
              "type": "address"
            },
            {
              "internalType": "bytes",
              "name": "entitlementData",
              "type": "bytes"
            }
          ],
          "internalType": "struct DataTypes.CreateRoleEntitlementData[]",
          "name": "roles",
          "type": "tuple[]"
        }
      ],
      "name": "createChannel",
      "outputs": [
        {
          "internalType": "uint256",
          "name": "channelId",
          "type": "uint256"
        }
      ],
      "stateMutability": "nonpayable",
      "type": "function"
    },
    {
      "inputs": [
        {
          "internalType": "string",
          "name": "spaceNetworkId",
          "type": "string"
        },
        {
          "internalType": "string",
          "name": "name",
          "type": "string"
        }
      ],
      "name": "createRole",
      "outputs": [
        {
          "internalType": "uint256",
          "name": "roleId",
          "type": "uint256"
        }
      ],
      "stateMutability": "nonpayable",
      "type": "function"
    },
    {
      "inputs": [
        {
          "components": [
            {
              "internalType": "string",
              "name": "spaceName",
              "type": "string"
            },
            {
              "internalType": "string",
              "name": "spaceNetworkId",
              "type": "string"
            }
          ],
          "internalType": "struct DataTypes.CreateSpaceData",
          "name": "info",
          "type": "tuple"
        },
        {
          "components": [
            {
              "internalType": "string",
              "name": "roleName",
              "type": "string"
            },
            {
              "components": [
                {
                  "internalType": "string",
                  "name": "name",
                  "type": "string"
                }
              ],
              "internalType": "struct DataTypes.Permission[]",
              "name": "permissions",
              "type": "tuple[]"
            },
            {
              "components": [
                {
                  "internalType": "string",
                  "name": "tag",
                  "type": "string"
                },
                {
                  "components": [
                    {
                      "internalType": "address",
                      "name": "contractAddress",
                      "type": "address"
                    },
                    {
                      "internalType": "uint256",
                      "name": "quantity",
                      "type": "uint256"
                    },
                    {
                      "internalType": "bool",
                      "name": "isSingleToken",
                      "type": "bool"
                    },
                    {
                      "internalType": "uint256",
                      "name": "tokenId",
                      "type": "uint256"
                    }
                  ],
                  "internalType": "struct DataTypes.ExternalToken[]",
                  "name": "tokens",
                  "type": "tuple[]"
                }
              ],
              "internalType": "struct DataTypes.ExternalTokenEntitlement[]",
              "name": "externalTokenEntitlements",
              "type": "tuple[]"
            },
            {
              "internalType": "address[]",
              "name": "users",
              "type": "address[]"
            }
          ],
          "internalType": "struct DataTypes.CreateSpaceEntitlementData",
          "name": "entitlementData",
          "type": "tuple"
        },
        {
          "components": [
            {
              "internalType": "string",
              "name": "name",
              "type": "string"
            }
          ],
          "internalType": "struct DataTypes.Permission[]",
          "name": "everyonePermissions",
          "type": "tuple[]"
        }
      ],
      "name": "createSpace",
      "outputs": [
        {
          "internalType": "uint256",
          "name": "",
          "type": "uint256"
        }
      ],
      "stateMutability": "nonpayable",
      "type": "function"
    },
    {
      "inputs": [
        {
          "internalType": "string",
          "name": "spaceId",
          "type": "string"
        },
        {
          "internalType": "string",
          "name": "channelId",
          "type": "string"
        }
      ],
      "name": "getChannelIdByNetworkId",
      "outputs": [
        {
          "internalType": "uint256",
          "name": "",
          "type": "uint256"
        }
      ],
      "stateMutability": "view",
      "type": "function"
    },
    {
      "inputs": [
        {
          "internalType": "string",
          "name": "spaceId",
          "type": "string"
        },
        {
          "internalType": "string",
          "name": "channelId",
          "type": "string"
        }
      ],
      "name": "getChannelInfoByChannelId",
      "outputs": [
        {
          "components": [
            {
              "internalType": "uint256",
              "name": "channelId",
              "type": "uint256"
            },
            {
              "internalType": "string",
              "name": "networkId",
              "type": "string"
            },
            {
              "internalType": "uint256",
              "name": "createdAt",
              "type": "uint256"
            },
            {
              "internalType": "string",
              "name": "name",
              "type": "string"
            },
            {
              "internalType": "address",
              "name": "creator",
              "type": "address"
            },
            {
              "internalType": "bool",
              "name": "disabled",
              "type": "bool"
            }
          ],
          "internalType": "struct DataTypes.ChannelInfo",
          "name": "",
          "type": "tuple"
        }
      ],
      "stateMutability": "view",
      "type": "function"
    },
    {
      "inputs": [
        {
          "internalType": "string",
          "name": "spaceId",
          "type": "string"
        }
      ],
      "name": "getChannelsBySpaceId",
      "outputs": [
        {
          "components": [
            {
              "internalType": "uint256",
              "name": "idCounter",
              "type": "uint256"
            },
            {
              "components": [
                {
                  "internalType": "uint256",
                  "name": "channelId",
                  "type": "uint256"
                },
                {
                  "internalType": "uint256",
                  "name": "createdAt",
                  "type": "uint256"
                },
                {
                  "internalType": "string",
                  "name": "networkId",
                  "type": "string"
                },
                {
                  "internalType": "string",
                  "name": "name",
                  "type": "string"
                },
                {
                  "internalType": "address",
                  "name": "creator",
                  "type": "address"
                },
                {
                  "internalType": "bool",
                  "name": "disabled",
                  "type": "bool"
                }
              ],
              "internalType": "struct DataTypes.Channel[]",
              "name": "channels",
              "type": "tuple[]"
            }
          ],
          "internalType": "struct DataTypes.Channels",
          "name": "",
          "type": "tuple"
        }
      ],
      "stateMutability": "view",
      "type": "function"
    },
    {
      "inputs": [
        {
          "internalType": "string",
          "name": "spaceId",
          "type": "string"
        }
      ],
      "name": "getEntitlementModulesBySpaceId",
      "outputs": [
        {
          "internalType": "address[]",
          "name": "",
          "type": "address[]"
        }
      ],
      "stateMutability": "view",
      "type": "function"
    },
    {
      "inputs": [
        {
          "internalType": "string",
          "name": "spaceId",
          "type": "string"
        }
      ],
      "name": "getEntitlementsInfoBySpaceId",
      "outputs": [
        {
          "components": [
            {
              "internalType": "address",
              "name": "addr",
              "type": "address"
            },
            {
              "internalType": "string",
              "name": "name",
              "type": "string"
            },
            {
              "internalType": "string",
              "name": "description",
              "type": "string"
            }
          ],
          "internalType": "struct DataTypes.EntitlementModuleInfo[]",
          "name": "",
          "type": "tuple[]"
        }
      ],
      "stateMutability": "view",
      "type": "function"
    },
    {
      "inputs": [
        {
          "internalType": "string",
          "name": "networkId",
          "type": "string"
        }
      ],
      "name": "getSpaceIdByNetworkId",
      "outputs": [
        {
          "internalType": "uint256",
          "name": "",
          "type": "uint256"
        }
      ],
      "stateMutability": "view",
      "type": "function"
    },
    {
      "inputs": [
        {
          "internalType": "string",
          "name": "spaceId",
          "type": "string"
        }
      ],
      "name": "getSpaceInfoBySpaceId",
      "outputs": [
        {
          "components": [
            {
              "internalType": "uint256",
              "name": "spaceId",
              "type": "uint256"
            },
            {
              "internalType": "string",
              "name": "networkId",
              "type": "string"
            },
            {
              "internalType": "uint256",
              "name": "createdAt",
              "type": "uint256"
            },
            {
              "internalType": "string",
              "name": "name",
              "type": "string"
            },
            {
              "internalType": "address",
              "name": "creator",
              "type": "address"
            },
            {
              "internalType": "address",
              "name": "owner",
              "type": "address"
            },
            {
              "internalType": "bool",
              "name": "disabled",
              "type": "bool"
            }
          ],
          "internalType": "struct DataTypes.SpaceInfo",
          "name": "",
          "type": "tuple"
        }
      ],
      "stateMutability": "view",
      "type": "function"
    },
    {
      "inputs": [
        {
          "internalType": "string",
          "name": "spaceId",
          "type": "string"
        }
      ],
      "name": "getSpaceOwnerBySpaceId",
      "outputs": [
        {
          "internalType": "address",
          "name": "",
          "type": "address"
        }
      ],
      "stateMutability": "view",
      "type": "function"
    },
    {
      "inputs": [],
      "name": "getSpaces",
      "outputs": [
        {
          "components": [
            {
              "internalType": "uint256",
              "name": "spaceId",
              "type": "uint256"
            },
            {
              "internalType": "string",
              "name": "networkId",
              "type": "string"
            },
            {
              "internalType": "uint256",
              "name": "createdAt",
              "type": "uint256"
            },
            {
              "internalType": "string",
              "name": "name",
              "type": "string"
            },
            {
              "internalType": "address",
              "name": "creator",
              "type": "address"
            },
            {
              "internalType": "address",
              "name": "owner",
              "type": "address"
            },
            {
              "internalType": "bool",
              "name": "disabled",
              "type": "bool"
            }
          ],
          "internalType": "struct DataTypes.SpaceInfo[]",
          "name": "",
          "type": "tuple[]"
        }
      ],
      "stateMutability": "view",
      "type": "function"
    },
    {
      "inputs": [
        {
          "internalType": "string",
          "name": "spaceId",
          "type": "string"
        },
        {
          "internalType": "string",
          "name": "channelId",
          "type": "string"
        },
        {
          "internalType": "address",
          "name": "user",
          "type": "address"
        },
        {
          "components": [
            {
              "internalType": "string",
              "name": "name",
              "type": "string"
            }
          ],
          "internalType": "struct DataTypes.Permission",
          "name": "permission",
          "type": "tuple"
        }
      ],
      "name": "isEntitled",
      "outputs": [
        {
          "internalType": "bool",
          "name": "",
          "type": "bool"
        }
      ],
      "stateMutability": "view",
      "type": "function"
    },
    {
      "inputs": [
        {
          "internalType": "string",
          "name": "spaceId",
          "type": "string"
        },
        {
          "internalType": "address",
          "name": "entitlementModuleAddress",
          "type": "address"
        }
      ],
      "name": "isEntitlementModuleWhitelisted",
      "outputs": [
        {
          "internalType": "bool",
          "name": "",
          "type": "bool"
        }
      ],
      "stateMutability": "view",
      "type": "function"
    },
    {
      "inputs": [],
      "name": "owner",
      "outputs": [
        {
          "internalType": "address",
          "name": "",
          "type": "address"
        }
      ],
      "stateMutability": "view",
      "type": "function"
    },
    {
      "inputs": [
        {
          "internalType": "string",
          "name": "spaceNetworkId",
          "type": "string"
        },
        {
          "internalType": "string",
          "name": "channelNetworkId",
          "type": "string"
        },
        {
          "internalType": "address",
          "name": "entitlementModuleAddress",
          "type": "address"
        },
        {
          "internalType": "uint256",
          "name": "roleId",
          "type": "uint256"
        },
        {
          "internalType": "bytes",
          "name": "data",
          "type": "bytes"
        }
      ],
      "name": "removeEntitlement",
      "outputs": [],
      "stateMutability": "nonpayable",
      "type": "function"
    },
    {
      "inputs": [
        {
          "internalType": "string",
          "name": "spaceNetworkId",
          "type": "string"
        },
        {
          "internalType": "uint256",
          "name": "roleId",
          "type": "uint256"
        },
        {
          "components": [
            {
              "internalType": "string",
              "name": "name",
              "type": "string"
            }
          ],
          "internalType": "struct DataTypes.Permission",
          "name": "permission",
          "type": "tuple"
        }
      ],
      "name": "removePermissionFromRole",
      "outputs": [],
      "stateMutability": "nonpayable",
      "type": "function"
    },
    {
      "inputs": [
        {
          "internalType": "string",
          "name": "spaceNetworkId",
          "type": "string"
        },
        {
          "internalType": "uint256",
          "name": "roleId",
          "type": "uint256"
        }
      ],
      "name": "removeRole",
      "outputs": [],
      "stateMutability": "nonpayable",
      "type": "function"
    },
    {
      "inputs": [],
      "name": "renounceOwnership",
      "outputs": [],
      "stateMutability": "nonpayable",
      "type": "function"
    },
    {
      "inputs": [
        {
          "internalType": "string",
          "name": "spaceNetworkId",
          "type": "string"
        },
        {
          "internalType": "string",
          "name": "channelNetworkId",
          "type": "string"
        },
        {
          "internalType": "bool",
          "name": "disabled",
          "type": "bool"
        }
      ],
      "name": "setChannelAccess",
      "outputs": [],
      "stateMutability": "nonpayable",
      "type": "function"
    },
    {
      "inputs": [
        {
          "internalType": "address",
          "name": "entitlementModule",
          "type": "address"
        }
      ],
      "name": "setDefaultTokenEntitlementModule",
      "outputs": [],
      "stateMutability": "nonpayable",
      "type": "function"
    },
    {
      "inputs": [
        {
          "internalType": "address",
          "name": "entitlementModule",
          "type": "address"
        }
      ],
      "name": "setDefaultUserEntitlementModule",
      "outputs": [],
      "stateMutability": "nonpayable",
      "type": "function"
    },
    {
      "inputs": [
        {
          "internalType": "string",
          "name": "spaceNetworkId",
          "type": "string"
        },
        {
          "internalType": "bool",
          "name": "disabled",
          "type": "bool"
        }
      ],
      "name": "setSpaceAccess",
      "outputs": [],
      "stateMutability": "nonpayable",
      "type": "function"
    },
    {
      "inputs": [
        {
          "internalType": "address",
          "name": "spaceNFTAddress",
          "type": "address"
        }
      ],
      "name": "setSpaceNFT",
      "outputs": [],
      "stateMutability": "nonpayable",
      "type": "function"
    },
    {
      "inputs": [
        {
          "internalType": "address",
          "name": "newOwner",
          "type": "address"
        }
      ],
      "name": "transferOwnership",
      "outputs": [],
      "stateMutability": "nonpayable",
      "type": "function"
    },
    {
      "inputs": [
        {
          "internalType": "string",
          "name": "spaceNetworkId",
          "type": "string"
        },
        {
          "internalType": "address",
          "name": "entitlementAddress",
          "type": "address"
        },
        {
          "internalType": "bool",
          "name": "whitelist",
          "type": "bool"
        }
      ],
      "name": "whitelistEntitlementModule",
      "outputs": [],
      "stateMutability": "nonpayable",
      "type": "function"
    }
  ],
  "bytecode": {
    "object": "0x60c06040523480156200001157600080fd5b5060405162005f8838038062005f88833981016040819052620000349162000129565b6200003f33620000bc565b6001600160a01b0382166200006757604051630e52390960e41b815260040160405180910390fd5b6001600160a01b0381166200008f57604051630e52390960e41b815260040160405180910390fd5b6001600160a01b0391821660a052166080819052600b80546001600160a01b031916909117905562000161565b600080546001600160a01b038381166001600160a01b0319831681178455604051919092169283917f8be0079c531659141344cd1fd0a4f28419497f9722a3daafe3b4186f6b6457e09190a35050565b80516001600160a01b03811681146200012457600080fd5b919050565b600080604083850312156200013d57600080fd5b62000148836200010c565b915062000158602084016200010c565b90509250929050565b60805160a051615dfd6200018b600039600081816133e30152613abb015260005050615dfd6000f3fe608060405234801561001057600080fd5b50600436106101c45760003560e01c80638b0e905a116100f9578063d2192dbf11610097578063e69689af11610071578063e69689af14610422578063e798ff3f14610435578063f2fde38b14610448578063f86caf831461045b57600080fd5b8063d2192dbf146103e9578063d9d94cb7146103fc578063e1b7a9e51461040f57600080fd5b8063b53b8167116100d3578063b53b81671461039d578063bbd7358a146103b0578063bf77b663146103c3578063ccde2de3146103d657600080fd5b80638b0e905a146103595780638da5cb5b1461036c5780639ddd0d6b1461038a57600080fd5b80633e66eae31161016657806350c24eef1161014057806350c24eef1461030b578063715018a61461032b57806372a29321146103335780637d9a02301461034657600080fd5b80633e66eae3146102b45780634196d1ff146102d55780634832a4ec146102f857600080fd5b80631a039620116101a25780631a039620146102275780632a4bdf251461023c5780632bb59212146102745780633519167c1461029457600080fd5b80630db37ba3146101c9578063141b6498146101f257806315478ca914610212575b600080fd5b6101dc6101d736600461465f565b61046e565b6040516101e99190614739565b60405180910390f35b6102056102003660046147dd565b61076c565b6040516101e9919061481f565b61021a610831565b6040516101e99190614904565b61023a6102353660046149a6565b610acb565b005b61024f61024a3660046147dd565b610b42565b60405173ffffffffffffffffffffffffffffffffffffffff90911681526020016101e9565b6102876102823660046147dd565b610c08565b6040516101e991906149c3565b6102a76102a23660046147dd565b610e91565b6040516101e991906149d6565b6102c76102c236600461465f565b611171565b6040519081526020016101e9565b6102e86102e3366004614a9b565b6111ef565b60405190151581526020016101e9565b61023a610306366004614b04565b611277565b61031e610319366004614d08565b611408565b6040516101e99190614d3d565b61023a61164d565b61023a610341366004614e42565b611661565b61023a610354366004614b04565b611942565b61023a610367366004614ec6565b611a11565b60005473ffffffffffffffffffffffffffffffffffffffff1661024f565b6102c76103983660046147dd565b611c35565b61023a6103ab366004614f12565b611c76565b61023a6103be366004614f12565b611e72565b6102e86103d1366004614fca565b6120d4565b61023a6103e43660046149a6565b612160565b6102c76103f736600461465f565b6121d7565b6102c761040a366004615071565b612396565b61023a61041d3660046149a6565b61299b565b6102c761043036600461515e565b612a12565b61023a6104433660046152c0565b612fb4565b61023a6104563660046149a6565b6130d5565b61023a610469366004615328565b613191565b6104bf6040518060c0016040528060008152602001606081526020016000815260200160608152602001600073ffffffffffffffffffffffffffffffffffffffff1681526020016000151581525090565b600061050086868080601f0160208091040260200160405190810160405280939291908181526020018383808284376000920191909152506132c092505050565b9050600061057787878080601f01602080910402602001604051908101604052809392919081815260200183838082843760009201919091525050604080516020601f8b0181900481028201810190925289815292508991508890819084018382808284376000920191909152506132da92505050565b6040805160c081018252600085815260046020908152838220858352808252938220805484529185905292835260020180549394509092918301916105bb9061537a565b80601f01602080910402602001604051908101604052809291908181526020018280546105e79061537a565b80156106345780601f1061060957610100808354040283529160200191610634565b820191906000526020600020905b81548152906001019060200180831161061757829003601f168201915b50505091835250506000848152600460209081526040808320868452808352818420600181015484870152938790529091526003909101805491909201919061067c9061537a565b80601f01602080910402602001604051908101604052809291908181526020018280546106a89061537a565b80156106f55780601f106106ca576101008083540402835291602001916106f5565b820191906000526020600020905b8154815290600101906020018083116106d857829003601f168201915b505050918352505060009384526004602081815260408087208688528083528188209093015473ffffffffffffffffffffffffffffffffffffffff81168386015295909652527401000000000000000000000000000000000000000090920460ff161515929091019190915290505b949350505050565b6060600560006107b185858080601f0160208091040260200160405190810160405280939291908181526020018383808284376000920191909152506132c092505050565b815260200190815260200160002060090180548060200260200160405190810160405280929190818152602001828054801561082357602002820191906000526020600020905b815473ffffffffffffffffffffffffffffffffffffffff1681526001909101906020018083116107f8575b505050505090505b92915050565b6060600060015467ffffffffffffffff81111561085057610850614b77565b6040519080825280602002602001820160405280156108ef57816020015b6108dc6040518060e0016040528060008152602001606081526020016000815260200160608152602001600073ffffffffffffffffffffffffffffffffffffffff168152602001600073ffffffffffffffffffffffffffffffffffffffff1681526020016000151581525090565b81526020019060019003908161086e5790505b50905060005b600154811015610ac557600060058161090f8460016153f6565b815260200190815260200160002090506040518060e00160405280826000015481526020018260020180546109439061537a565b80601f016020809104026020016040519081016040528092919081815260200182805461096f9061537a565b80156109bc5780601f10610991576101008083540402835291602001916109bc565b820191906000526020600020905b81548152906001019060200180831161099f57829003601f168201915b50505050508152602001826001015481526020018260030180546109df9061537a565b80601f0160208091040260200160405190810160405280929190818152602001828054610a0b9061537a565b8015610a585780601f10610a2d57610100808354040283529160200191610a58565b820191906000526020600020905b815481529060010190602001808311610a3b57829003601f168201915b5050509183525050600483015473ffffffffffffffffffffffffffffffffffffffff90811660208301526005840154166040820152600783015460ff1615156060909101528351849084908110610ab157610ab1615409565b6020908102919091010152506001016108f5565b50919050565b610ad361332d565b600980547fffffffffffffffffffffffff00000000000000000000000000000000000000001673ffffffffffffffffffffffffffffffffffffffff83169081179091556040517f07b136952c7460e1fc2d593fad96b5b379f28cc13a49857b6a825c5228c1a8d190600090a250565b600a54604080516020601f850181900481028201810190925283815260009273ffffffffffffffffffffffffffffffffffffffff169163cc3f8dc891610ba29187908790819084018382808284376000920191909152506132c092505050565b6040518263ffffffff1660e01b8152600401610bc091815260200190565b602060405180830381865afa158015610bdd573d6000803e3d6000fd5b505050506040513d601f19601f82011682018060405250810190610c019190615438565b9392505050565b610c766040518060e0016040528060008152602001606081526020016000815260200160608152602001600073ffffffffffffffffffffffffffffffffffffffff168152602001600073ffffffffffffffffffffffffffffffffffffffff1681526020016000151581525090565b6000610cb784848080601f0160208091040260200160405190810160405280939291908181526020018383808284376000920191909152506132c092505050565b6040805160e081018252600083815260056020818152938220805484529185905283526002018054939450909291830191610cf19061537a565b80601f0160208091040260200160405190810160405280929190818152602001828054610d1d9061537a565b8015610d6a5780601f10610d3f57610100808354040283529160200191610d6a565b820191906000526020600020905b815481529060010190602001808311610d4d57829003601f168201915b5050505050815260200160056000848152602001908152602001600020600101548152602001600560008481526020019081526020016000206003018054610db19061537a565b80601f0160208091040260200160405190810160405280929190818152602001828054610ddd9061537a565b8015610e2a5780601f10610dff57610100808354040283529160200191610e2a565b820191906000526020600020905b815481529060010190602001808311610e0d57829003601f168201915b50505091835250506000838152600560208181526040808420600481015473ffffffffffffffffffffffffffffffffffffffff9081168488015281850154169186019190915295909252905260079092015460ff1615156060909201919091529392505050565b60606000610ed484848080601f0160208091040260200160405190810160405280939291908181526020018383808284376000920191909152506132c092505050565b6000818152600560205260408120600901549192509067ffffffffffffffff811115610f0257610f02614b77565b604051908082528060200260200182016040528015610f6d57816020015b610f5a6040518060600160405280600073ffffffffffffffffffffffffffffffffffffffff16815260200160608152602001606081525090565b815260200190600190039081610f205790505b506000838152600560205260408120600901549192505b81811015611166576000848152600560205260408120600901805483908110610faf57610faf615409565b60009182526020909120015473ffffffffffffffffffffffffffffffffffffffff16905080610fde5750611154565b600060405180606001604052808373ffffffffffffffffffffffffffffffffffffffff1681526020018373ffffffffffffffffffffffffffffffffffffffff166306fdde036040518163ffffffff1660e01b8152600401600060405180830381865afa158015611052573d6000803e3d6000fd5b505050506040513d6000823e601f3d9081017fffffffffffffffffffffffffffffffffffffffffffffffffffffffffffffffe0168201604052611098919081019061549a565b81526020018373ffffffffffffffffffffffffffffffffffffffff16637284e4166040518163ffffffff1660e01b8152600401600060405180830381865afa1580156110e8573d6000803e3d6000fd5b505050506040513d6000823e601f3d9081017fffffffffffffffffffffffffffffffffffffffffffffffffffffffffffffffe016820160405261112e919081019061549a565b81525090508085848151811061114657611146615409565b602002602001018190525050505b8061115e816154cf565b915050610f84565b509095945050505050565b60006111e685858080601f01602080910402602001604051908101604052809392919081815260200183838082843760009201919091525050604080516020601f890181900481028201810190925287815292508791508690819084018382808284376000920191909152506132da92505050565b95945050505050565b60006005600061123486868080601f0160208091040260200160405190810160405280939291908181526020018383808284376000920191909152506132c092505050565b81526020808201929092526040908101600090812073ffffffffffffffffffffffffffffffffffffffff8616825260080190925290205460ff1690509392505050565b6112e684848080601f0160208091040260200160405190810160405280939291908181526020018383808284376000920182905250604080516020810190915290815292507f75be26f315524d8937b28469fe5b4df7e59aebca1fcbbbe5669005e1491b131b91506133ae9050565b600b54604080516020601f870181900481028201810190925285815273ffffffffffffffffffffffffffffffffffffffff9092169163db474ecb91611346919088908890819084018382808284376000920191909152506132c092505050565b84846040518463ffffffff1660e01b8152600401611366939291906155b4565b600060405180830381600087803b15801561138057600080fd5b505af1158015611394573d6000803e3d6000fd5b505050508184846040516113a99291906155e5565b60405180910390207fb72e43fbdf2abeb3bfe59e783bcca829d13e9fcde1eac425751faabea6c134c96113d93390565b60405173ffffffffffffffffffffffffffffffffffffffff90911681526020015b60405180910390a350505050565b6040805180820190915260008152606060208201526006600061143f84805160209182012060009081526002909152604090205490565b81526020019081526020016000206040518060400160405290816000820154815260200160018201805480602002602001604051908101604052809291908181526020016000905b8282101561163f57838290600052602060002090600502016040518060c001604052908160008201548152602001600182015481526020016002820180546114ce9061537a565b80601f01602080910402602001604051908101604052809291908181526020018280546114fa9061537a565b80156115475780601f1061151c57610100808354040283529160200191611547565b820191906000526020600020905b81548152906001019060200180831161152a57829003601f168201915b505050505081526020016003820180546115609061537a565b80601f016020809104026020016040519081016040528092919081815260200182805461158c9061537a565b80156115d95780601f106115ae576101008083540402835291602001916115d9565b820191906000526020600020905b8154815290600101906020018083116115bc57829003601f168201915b50505091835250506004919091015473ffffffffffffffffffffffffffffffffffffffff81166020808401919091527401000000000000000000000000000000000000000090910460ff1615156040909201919091529082526001929092019101611487565b505050915250909392505050565b61165561332d565b61165f60006134c6565b565b6116f685858080601f01602080910402602001604051908101604052809392919081815260200183838082843760009201919091525050604080516020601f890181900481028201810190925287815292508791508690819084018382808284376000920191909152507f71e770fed024e50450e0cb5318c1a012e92ab6439dfbe6c071800b700ce55c0a92506133ae915050565b61173585858080601f01602080910402602001604051908101604052809392919081815260200183838082843760009201919091525061353b92505050565b6117a885858080601f01602080910402602001604051908101604052809392919081815260200183838082843760009201919091525050604080516020601f890181900481028201810190925287815292508791508690819084018382808284376000920191909152506135e792505050565b60006117e986868080601f0160208091040260200160405190810160405280939291908181526020018383808284376000920191909152506132c092505050565b9050600061186087878080601f01602080910402602001604051908101604052809392919081815260200183838082843760009201919091525050604080516020601f8b0181900481028201810190925289815292508991508890819084018382808284376000920191909152506132da92505050565b60008381526004602081815260408084208585529091529091200180547fffffffffffffffffffffff00ffffffffffffffffffffffffffffffffffffffff16740100000000000000000000000000000000000000008615150217905590503373ffffffffffffffffffffffffffffffffffffffff1685856040516118e59291906155e5565b604051809103902088886040516118fd9291906155e5565b6040519081900381208615158252907fcba51876aa74b247950c251d3459c41aaebd8b10717beadb480ca1a105166ab59060200160405180910390a450505050505050565b6119b184848080601f0160208091040260200160405190810160405280939291908181526020018383808284376000920182905250604080516020810190915290815292507f75be26f315524d8937b28469fe5b4df7e59aebca1fcbbbe5669005e1491b131b91506133ae9050565b600b54604080516020601f870181900481028201810190925285815273ffffffffffffffffffffffffffffffffffffffff90921691633368c91891611346919088908890819084018382808284376000920191909152506132c092505050565b611a8083838080601f0160208091040260200160405190810160405280939291908181526020018383808284376000920182905250604080516020810190915290815292507f75be26f315524d8937b28469fe5b4df7e59aebca1fcbbbe5669005e1491b131b91506133ae9050565b60056000611ac385858080601f0160208091040260200160405190810160405280939291908181526020018383808284376000920191909152506132c092505050565b8152602001908152602001600020600601548103611b0d576040517fe523909000000000000000000000000000000000000000000000000000000000815260040160405180910390fd5b600b54604080516020601f860181900481028201810190925284815273ffffffffffffffffffffffffffffffffffffffff9092169163cdb0ba5091611b6d919087908790819084018382808284376000920191909152506132c092505050565b836040518363ffffffff1660e01b8152600401611b94929190918252602082015260400190565b600060405180830381600087803b158015611bae57600080fd5b505af1158015611bc2573d6000803e3d6000fd5b50505050808383604051611bd79291906155e5565b60405180910390207f7bb07acd566d038f77cba9c39e7536f74ea2c4ee382024d1b428d7f0680dbc02611c073390565b60405173ffffffffffffffffffffffffffffffffffffffff90911681526020015b60405180910390a3505050565b6000610c0183838080601f0160208091040260200160405190810160405280939291908181526020018383808284376000920191909152506132c092505050565b611cb588888080601f01602080910402602001604051908101604052809392919081815260200183838082843760009201919091525061353b92505050565b611d4a88888080601f01602080910402602001604051908101604052809392919081815260200183838082843760009201919091525050604080516020601f8c018190048102820181019092528a815292508a91508990819084018382808284376000920191909152507f71e770fed024e50450e0cb5318c1a012e92ab6439dfbe6c071800b700ce55c0a92506133ae915050565b8415611dc357611dc388888080601f01602080910402602001604051908101604052809392919081815260200183838082843760009201919091525050604080516020601f8c018190048102820181019092528a815292508a91508990819084018382808284376000920191909152506135e792505050565b611dcc8461362f565b611e1188888888888888888080601f01602080910402602001604051908101604052809392919081815260200183838082843760009201919091525061371892505050565b8373ffffffffffffffffffffffffffffffffffffffff168888604051611e389291906155e5565b604051908190038120907f9b42a541e0a10f6a80059e1448b92d56a4e71354d43a2ca1fd3701878cb50ae290600090a35050505050505050565b611eb188888080601f01602080910402602001604051908101604052809392919081815260200183838082843760009201919091525061353b92505050565b611f4688888080601f01602080910402602001604051908101604052809392919081815260200183838082843760009201919091525050604080516020601f8c018190048102820181019092528a815292508a91508990819084018382808284376000920191909152507f71e770fed024e50450e0cb5318c1a012e92ab6439dfbe6c071800b700ce55c0a92506133ae915050565b8415611fbf57611fbf88888080601f01602080910402602001604051908101604052809392919081815260200183838082843760009201919091525050604080516020601f8c018190048102820181019092528a815292508a91508990819084018382808284376000920191909152506135e792505050565b611fc88461362f565b61207388888080601f01602080910402602001604051908101604052809392919081815260200183838082843760009201919091525050604080516020601f8c018190048102820181019092528a815292508a915089908190840183828082843760009201919091525050604080516020601f89018190048102820181019092528781528a935089925090889088908190840183828082843760009201919091525061384c92505050565b8373ffffffffffffffffffffffffffffffffffffffff16888860405161209a9291906155e5565b604051908190038120907fe78ad18845af93a80fbe8718cacc631fbe1c453b092806818a044440b96ba67790600090a35050505050505050565b600061215587878080601f01602080910402602001604051908101604052809392919081815260200183838082843760009201919091525050604080516020601f8b01819004810282018101909252898152925089915088908190840183828082843760009201919091525088925061215091508790506155f5565b61395d565b979650505050505050565b61216861332d565b600a80547fffffffffffffffffffffffff00000000000000000000000000000000000000001673ffffffffffffffffffffffffffffffffffffffff83169081179091556040517f68e3ca42e475f54d65227ed8cb60daf9cec4546691052783063876ad972db71190600090a250565b600061224885858080601f0160208091040260200160405190810160405280939291908181526020018383808284376000920182905250604080516020810190915290815292507f75be26f315524d8937b28469fe5b4df7e59aebca1fcbbbe5669005e1491b131b91506133ae9050565b600b54604080516020601f880181900481028201810190925286815273ffffffffffffffffffffffffffffffffffffffff9092169163e88ca8a1916122a8919089908990819084018382808284376000920191909152506132c092505050565b85856040518463ffffffff1660e01b81526004016122c893929190615656565b6020604051808303816000875af11580156122e7573d6000803e3d6000fd5b505050506040513d601f19601f8201168201806040525081019061230b9190615670565b9050828260405161231d9291906155e5565b60405180910390208186866040516123369291906155e5565b60405180910390207fc06cee439d340740b1e427558729eb0fcc080aa2ab6d0bcfb30b6618234f460a6123663390565b60405173ffffffffffffffffffffffffffffffffffffffff909116815260200160405180910390a4949350505050565b60006123a0613ab9565b6123b26123ad8680615689565b613c13565b60006123bd86614001565b600a5490915073ffffffffffffffffffffffffffffffffffffffff1663b4b715c482336040517fffffffff0000000000000000000000000000000000000000000000000000000060e085901b168152600481019290925273ffffffffffffffffffffffffffffffffffffffff166024820152604401600060405180830381600087803b15801561244c57600080fd5b505af1158015612460573d6000803e3d6000fd5b505060085461248a925083915073ffffffffffffffffffffffffffffffffffffffff16600161409a565b6009546124b090829073ffffffffffffffffffffffffffffffffffffffff16600161409a565b60006124fd826124c360208a018a615689565b8080601f0160208091040260200160405190810160405280939291908181526020018383808284376000920191909152506141bc92505050565b6000838152600560209081526040909120600601829055909150612567908390612529908a018a615689565b8080601f0160208091040260200160405190810160405280939291908181526020018383808284376000920191909152508a92508991506143c59050565b50600061257760208801886156ee565b915050801561294357600b5460009073ffffffffffffffffffffffffffffffffffffffff1663e88ca8a1856125ac8b80615689565b6040518463ffffffff1660e01b81526004016125ca93929190615656565b6020604051808303816000875af11580156125e9573d6000803e3d6000fd5b505050506040513d601f19601f8201168201806040525081019061260d9190615670565b905060005b828110156126c457600b5473ffffffffffffffffffffffffffffffffffffffff16633368c918868461264760208e018e6156ee565b8681811061265757612657615409565b90506020028101906126699190615756565b6040518463ffffffff1660e01b8152600401612687939291906155b4565b600060405180830381600087803b1580156126a157600080fd5b505af11580156126b5573d6000803e3d6000fd5b50505050806001019050612612565b5060006126d460408a018a6156ee565b9050111561283f5760005b6126ec60408a018a6156ee565b905081101561283d57600061270460408b018b6156ee565b8381811061271457612714615409565b90506020028101906127269190615794565b61272f906157c8565b905061273e60408b018b6156ee565b8381811061274e5761274e615409565b90506020028101906127609190615794565b61276a9080615689565b8080601f0160208091040260200160405190810160405280939291908181526020018383808284376000920191909152505050908252506128346127b160208d018d615689565b8080601f01602080910402602001604051908101604052809392919081815260200183838082843760009201829052506040805160208082018352928152600954915190955073ffffffffffffffffffffffffffffffffffffffff9091169350899250612820918891016158d7565b60405160208183030381529060405261384c565b506001016126df565b505b600061284e60608a018a6156ee565b905011156129415760005b61286660608a018a6156ee565b905081101561293f5761293761287f60208c018c615689565b8080601f0160208091040260200160405190810160405280939291908181526020018383808284376000920182905250604080516020810190915290815260085490935073ffffffffffffffffffffffffffffffffffffffff1691508690506128eb60608f018f6156ee565b878181106128fb576128fb615409565b905060200201602081019061291091906149a6565b6040805173ffffffffffffffffffffffffffffffffffffffff909216602083015201612820565b600101612859565b505b505b3361295160208a018a615689565b60405161295f9291906155e5565b604051908190038120907ff53000b1113bed1ef6bf6b948fa1fe2c66a643b317a45c5d52a1537050b2dad290600090a350909695505050505050565b6129a361332d565b600880547fffffffffffffffffffffffff00000000000000000000000000000000000000001673ffffffffffffffffffffffffffffffffffffffff83169081179091556040517f07b136952c7460e1fc2d593fad96b5b379f28cc13a49857b6a825c5228c1a8d190600090a250565b6000612a8b612a218480615689565b8080601f0160208091040260200160405190810160405280939291908181526020018383808284376000920182905250604080516020810190915290815292507f5ef98f1e5b8bd5ee1978908b3f5b2128d59a65f7702f04e6aca3c95aff590be191506133ae9050565b612ad2612a988480615689565b8080601f01602080910402602001604051908101604052809392919081815260200183838082843760009201919091525061353b92505050565b612ae26123ad6020850185615689565b6000612b2b612af18580615689565b8080601f0160208091040260200160405190810160405280939291908181526020018383808284376000920191909152506132c092505050565b9050612b3f81612b3a86615993565b614583565b60408051600180825281830190925291935060009190816020015b6040805160808101825260008082526020808301829052928201819052606082015282527fffffffffffffffffffffffffffffffffffffffffffffffffffffffffffffffff909201910181612b5a57505060408051608080820183526000808352602080840182905283850182905260609384019190915283519182018452600a5473ffffffffffffffffffffffffffffffffffffffff168252600190820181905292810192909252810184905290915081600081518110612c1e57612c1e615409565b6020908102919091018101919091526040805160808101825260149181019182527f5370616365204f776e6572204e465420476174650000000000000000000000006060820152908152908101829052612d30612c7b8780615689565b8080601f016020809104026020016040519081016040528093929190818152602001838380828437600092019190915250612cbd925050506040890189615689565b8080601f01602080910402602001604051908101604052809392919081815260200183838082843760009201829052506009548a82526005602090815260409283902060060154925173ffffffffffffffffffffffffffffffffffffffff909216955091935061282092508891016158d7565b845115612f3e5760005b8551811015612f3c57600b54865160009173ffffffffffffffffffffffffffffffffffffffff169063d9af4ecf9087908a9086908110612d7c57612d7c615409565b6020026020010151600001516040518363ffffffff1660e01b8152600401612dae929190918252602082015260400190565b600060405180830381865afa158015612dcb573d6000803e3d6000fd5b505050506040513d6000823e601f3d9081017fffffffffffffffffffffffffffffffffffffffffffffffffffffffffffffffe0168201604052612e119190810190615a3e565b8051909150600003612e4f576040517fb810dc5d00000000000000000000000000000000000000000000000000000000815260040160405180910390fd5b612f33612e5c8980615689565b8080601f016020809104026020016040519081016040528093929190818152602001838380828437600092019190915250612e9e9250505060408b018b615689565b8080601f016020809104026020016040519081016040528093929190818152602001838380828437600092019190915250508b518c92508791508110612ee657612ee6615409565b6020026020010151602001518a8681518110612f0457612f04615409565b6020026020010151600001518b8781518110612f2257612f22615409565b60200260200101516040015161384c565b50600101612d3a565b505b33612f4c6040880188615689565b604051612f5a9291906155e5565b604051908190039020612f6d8880615689565b604051612f7b9291906155e5565b604051908190038120907ff22ca4e1529bca70f91b82d259651796b8973cec866e55ad258c1f6d56ea71d390600090a450505092915050565b612fbd8261362f565b61302c84848080601f0160208091040260200160405190810160405280939291908181526020018383808284376000920182905250604080516020810190915290815292507f75be26f315524d8937b28469fe5b4df7e59aebca1fcbbbe5669005e1491b131b91506133ae9050565b61307561306e85858080601f0160208091040260200160405190810160405280939291908181526020018383808284376000920191909152506132c092505050565b838361409a565b8173ffffffffffffffffffffffffffffffffffffffff16848460405161309c9291906155e5565b6040519081900381208315158252907f558bdc63bfb8cb1188bc6f559a22d16b8e64dccf7af1d84c90bcf2b7feb1e009906020016113fa565b6130dd61332d565b73ffffffffffffffffffffffffffffffffffffffff8116613185576040517f08c379a000000000000000000000000000000000000000000000000000000000815260206004820152602660248201527f4f776e61626c653a206e6577206f776e657220697320746865207a65726f206160448201527f646472657373000000000000000000000000000000000000000000000000000060648201526084015b60405180910390fd5b61318e816134c6565b50565b6131cb82604051806020016040528060008152507f75be26f315524d8937b28469fe5b4df7e59aebca1fcbbbe5669005e1491b131b6133ae565b60006131eb83805160209182012060009081526002909152604090205490565b905080600003613227576040517fbe34080700000000000000000000000000000000000000000000000000000000815260040160405180910390fd5b600081815260056020526040902060070180547fffffffffffffffffffffffffffffffffffffffffffffffffffffffffffffff00168315151790553373ffffffffffffffffffffffffffffffffffffffff16836040516132879190615ab5565b6040519081900381208415158252907fb52a77d1c8e7ecf705bef894088b2c74fb373648434090edc15688f5c80a868790602001611c28565b805160209182012060009081526002909152604090205490565b6000600360006132fe85805160209182012060009081526002909152604090205490565b815260200190815260200160002060008380519060200120815260200190815260200160002054905092915050565b60005473ffffffffffffffffffffffffffffffffffffffff16331461165f576040517f08c379a000000000000000000000000000000000000000000000000000000000815260206004820181905260248201527f4f776e61626c653a2063616c6c6572206973206e6f7420746865206f776e6572604482015260640161317c565b6134858383336040517f173c4a63000000000000000000000000000000000000000000000000000000008152600481018690527f000000000000000000000000000000000000000000000000000000000000000073ffffffffffffffffffffffffffffffffffffffff169063173c4a6390602401600060405180830381865afa15801561343f573d6000803e3d6000fd5b505050506040513d6000823e601f3d9081017fffffffffffffffffffffffffffffffffffffffffffffffffffffffffffffffe01682016040526121509190810190615ac7565b1561348f57505050565b6040517f3d693ada00000000000000000000000000000000000000000000000000000000815260040160405180910390fd5b505050565b6000805473ffffffffffffffffffffffffffffffffffffffff8381167fffffffffffffffffffffffff0000000000000000000000000000000000000000831681178455604051919092169283917f8be0079c531659141344cd1fd0a4f28419497f9722a3daafe3b4186f6b6457e09190a35050565b600061355b82805160209182012060009081526002909152604090205490565b905080600003613597576040517fbe34080700000000000000000000000000000000000000000000000000000000815260040160405180910390fd5b60008181526005602052604090206007015460ff16156135e3576040517fbe34080700000000000000000000000000000000000000000000000000000000815260040160405180910390fd5b5050565b60006135f383836132da565b9050806000036134c1576040517f6ddd9da900000000000000000000000000000000000000000000000000000000815260040160405180910390fd5b6040517f01ffc9a70000000000000000000000000000000000000000000000000000000081527f6dabdcca00000000000000000000000000000000000000000000000000000000600482015273ffffffffffffffffffffffffffffffffffffffff8216906301ffc9a790602401602060405180830381865afa1580156136b9573d6000803e3d6000fd5b505050506040513d601f19601f820116820180604052508101906136dd9190615b4a565b151560000361318e576040517fdb24a1e200000000000000000000000000000000000000000000000000000000815260040160405180910390fd5b600060026000898960405161372e9291906155e5565b604080519182900390912082526020808301939093529081016000908120548082526005845282822073ffffffffffffffffffffffffffffffffffffffff89168352600801909352205490915060ff166137b4576040517fc1ef36f300000000000000000000000000000000000000000000000000000000815260040160405180910390fd5b6040517fec6b643a00000000000000000000000000000000000000000000000000000000815273ffffffffffffffffffffffffffffffffffffffff85169063ec6b643a90613810908b908b908b908b908a908a90600401615b67565b600060405180830381600087803b15801561382a57600080fd5b505af115801561383e573d6000803e3d6000fd5b505050505050505050505050565b84516020808701919091206000908152600282526040808220548083526005845281832073ffffffffffffffffffffffffffffffffffffffff8816845260080190935290205460ff166138cb576040517fc1ef36f300000000000000000000000000000000000000000000000000000000815260040160405180910390fd5b6040517fc800fec400000000000000000000000000000000000000000000000000000000815273ffffffffffffffffffffffffffffffffffffffff85169063c800fec490613923908990899088908890600401615bb5565b600060405180830381600087803b15801561393d57600080fd5b505af1158015613951573d6000803e3d6000fd5b50505050505050505050565b60008061397e86805160209182012060009081526002909152604090205490565b600081815260056020526040812060090154909350909150825b81811015613aae5760008381526005602052604081206009018054839081106139c3576139c3615409565b60009182526020909120015473ffffffffffffffffffffffffffffffffffffffff169050806139f25750613a9c565b6040517fbf77b66300000000000000000000000000000000000000000000000000000000815273ffffffffffffffffffffffffffffffffffffffff82169063bf77b66390613a4a908c908c908c908c90600401615bf4565b602060405180830381865afa158015613a67573d6000803e3d6000fd5b505050506040513d601f19601f82011682018060405250810190613a8b9190615b4a565b15613a9a576001945050613aae565b505b80613aa6816154cf565b915050613998565b505050949350505050565b7f000000000000000000000000000000000000000000000000000000000000000073ffffffffffffffffffffffffffffffffffffffff16613b26576040517f361882e300000000000000000000000000000000000000000000000000000000815260040160405180910390fd5b60085473ffffffffffffffffffffffffffffffffffffffff16613b75576040517f2ab51add00000000000000000000000000000000000000000000000000000000815260040160405180910390fd5b60095473ffffffffffffffffffffffffffffffffffffffff16613bc4576040517f2ab51add00000000000000000000000000000000000000000000000000000000815260040160405180910390fd5b600a5473ffffffffffffffffffffffffffffffffffffffff1661165f576040517f345d02c000000000000000000000000000000000000000000000000000000000815260040160405180910390fd5b600082828080601f016020809104026020016040519081016040528093929190818152602001838380828437600092019190915250508251929350506002909110905080613c62575080516020105b15613c99576040517f6a96aade00000000000000000000000000000000000000000000000000000000815260040160405180910390fd5b805160005b81811015613ffa577f3000000000000000000000000000000000000000000000000000000000000000838281518110613cd957613cd9615409565b01602001517fff00000000000000000000000000000000000000000000000000000000000000161080613d6357507f7a00000000000000000000000000000000000000000000000000000000000000838281518110613d3a57613d3a615409565b01602001517fff0000000000000000000000000000000000000000000000000000000000000016115b80613e2757507f3900000000000000000000000000000000000000000000000000000000000000838281518110613d9c57613d9c615409565b01602001517fff0000000000000000000000000000000000000000000000000000000000000016118015613e2757507f6100000000000000000000000000000000000000000000000000000000000000838281518110613dfe57613dfe615409565b01602001517fff0000000000000000000000000000000000000000000000000000000000000016105b8015613e8c5750828181518110613e4057613e40615409565b6020910101517fff00000000000000000000000000000000000000000000000000000000000000167f2e0000000000000000000000000000000000000000000000000000000000000014155b8015613ef15750828181518110613ea557613ea5615409565b6020910101517fff00000000000000000000000000000000000000000000000000000000000000167f2d0000000000000000000000000000000000000000000000000000000000000014155b8015613f565750828181518110613f0a57613f0a615409565b6020910101517fff00000000000000000000000000000000000000000000000000000000000000167f5f0000000000000000000000000000000000000000000000000000000000000014155b8015613fbb5750828181518110613f6f57613f6f615409565b6020910101517fff00000000000000000000000000000000000000000000000000000000000000167f200000000000000000000000000000000000000000000000000000000000000014155b15613ff2576040517ff8fa659700000000000000000000000000000000000000000000000000000000815260040160405180910390fd5b600101613c9e565b5050505050565b600180548101908190556040517faa424abb00000000000000000000000000000000000000000000000000000000815273__$a3850c79b56376fa7983472f601544d59e$__9063aa424abb9061406590859085903390600290600590600401615c5e565b60006040518083038186803b15801561407d57600080fd5b505af4158015614091573d6000803e3d6000fd5b50505050919050565b8080156140d95750600083815260056020908152604080832073ffffffffffffffffffffffffffffffffffffffff8616845260080190915290205460ff165b15614110576040517f186abc9b00000000000000000000000000000000000000000000000000000000815260040160405180910390fd5b6040517ffd81c88f0000000000000000000000000000000000000000000000000000000081526004810184905273ffffffffffffffffffffffffffffffffffffffff8316602482015281151560448201526005606482015273__$a3850c79b56376fa7983472f601544d59e$__9063fd81c88f9060840160006040518083038186803b15801561419f57600080fd5b505af41580156141b3573d6000803e3d6000fd5b50505050505050565b604080516080808201835260008083526020808401829052838501829052606093840182905284519283018552600a5473ffffffffffffffffffffffffffffffffffffffff168352600183820181905283860181905293830187905284518481528086019095529093919284929182015b6040805160808101825260008082526020808301829052928201819052606082015282527fffffffffffffffffffffffffffffffffffffffffffffffffffffffffffffffff90920191018161422d579050509050818160008151811061429557614295615409565b6020908102919091018101919091526040805160808101825260148183019081527f5370616365204f776e6572204e4654204761746500000000000000000000000060608301528152918201839052600b5490517ff62df4df0000000000000000000000000000000000000000000000000000000081526004810188905260009173ffffffffffffffffffffffffffffffffffffffff169063f62df4df906024016020604051808303816000875af1158015614355573d6000803e3d6000fd5b505050506040513d601f19601f820116820180604052508101906143799190615670565b60408051602080820183526000825260095492519394506143bb938a9373ffffffffffffffffffffffffffffffffffffffff16918a91612820918991016158d7565b9695505050505050565b600b54604080517fe88ca8a1000000000000000000000000000000000000000000000000000000008152600481018790526024810191909152600860448201527f45766572796f6e65000000000000000000000000000000000000000000000000606482015260009173ffffffffffffffffffffffffffffffffffffffff169063e88ca8a1906084016020604051808303816000875af115801561446d573d6000803e3d6000fd5b505050506040513d601f19601f820116820180604052508101906144919190615670565b905060005b8281101561453d57600b5473ffffffffffffffffffffffffffffffffffffffff16633368c91887848787868181106144d0576144d0615409565b90506020028101906144e29190615756565b6040518463ffffffff1660e01b8152600401614500939291906155b4565b600060405180830381600087803b15801561451a57600080fd5b505af115801561452e573d6000803e3d6000fd5b50505050806001019050614496565b5060408051602080820183526000825260085483516001928101929092526107649388939273ffffffffffffffffffffffffffffffffffffffff90921691869101612820565b600082815260066020526040902080546001019081905573__$a3850c79b56376fa7983472f601544d59e$__631ddb9a8b838584336006600360046040518863ffffffff1660e01b81526004016145e09796959493929190615d05565b60006040518083038186803b1580156145f857600080fd5b505af415801561460c573d6000803e3d6000fd5b5050505092915050565b60008083601f84011261462857600080fd5b50813567ffffffffffffffff81111561464057600080fd5b60208301915083602082850101111561465857600080fd5b9250929050565b6000806000806040858703121561467557600080fd5b843567ffffffffffffffff8082111561468d57600080fd5b61469988838901614616565b909650945060208701359150808211156146b257600080fd5b506146bf87828801614616565b95989497509550505050565b60005b838110156146e65781810151838201526020016146ce565b50506000910152565b600081518084526147078160208601602086016146cb565b601f017fffffffffffffffffffffffffffffffffffffffffffffffffffffffffffffffe0169290920160200192915050565b60208152815160208201526000602083015160c0604084015261475f60e08401826146ef565b90506040840151606084015260608401517fffffffffffffffffffffffffffffffffffffffffffffffffffffffffffffffe08483030160808501526147a482826146ef565b91505073ffffffffffffffffffffffffffffffffffffffff60808501511660a084015260a0840151151560c08401528091505092915050565b600080602083850312156147f057600080fd5b823567ffffffffffffffff81111561480757600080fd5b61481385828601614616565b90969095509350505050565b6020808252825182820181905260009190848201906040850190845b8181101561486d57835173ffffffffffffffffffffffffffffffffffffffff168352928401929184019160010161483b565b50909695505050505050565b805182526000602082015160e0602085015261489860e08501826146ef565b905060408301516040850152606083015184820360608601526148bb82826146ef565b915050608083015173ffffffffffffffffffffffffffffffffffffffff80821660808701528060a08601511660a0870152505060c0830151151560c08501528091505092915050565b6000602080830181845280855180835260408601915060408160051b870101925083870160005b82811015614977577fffffffffffffffffffffffffffffffffffffffffffffffffffffffffffffffc0888603018452614965858351614879565b9450928501929085019060010161492b565b5092979650505050505050565b73ffffffffffffffffffffffffffffffffffffffff8116811461318e57600080fd5b6000602082840312156149b857600080fd5b8135610c0181614984565b602081526000610c016020830184614879565b60006020808301818452808551808352604092508286019150828160051b87010184880160005b83811015614a8d577fffffffffffffffffffffffffffffffffffffffffffffffffffffffffffffffc08984030185528151606073ffffffffffffffffffffffffffffffffffffffff825116855288820151818a870152614a5f828701826146ef565b91505087820151915084810388860152614a7981836146ef565b9689019694505050908601906001016149fd565b509098975050505050505050565b600080600060408486031215614ab057600080fd5b833567ffffffffffffffff811115614ac757600080fd5b614ad386828701614616565b9094509250506020840135614ae781614984565b809150509250925092565b600060208284031215610ac557600080fd5b60008060008060608587031215614b1a57600080fd5b843567ffffffffffffffff80821115614b3257600080fd5b614b3e88838901614616565b9096509450602087013593506040870135915080821115614b5e57600080fd5b50614b6b87828801614af2565b91505092959194509250565b7f4e487b7100000000000000000000000000000000000000000000000000000000600052604160045260246000fd5b6040516060810167ffffffffffffffff81118282101715614bc957614bc9614b77565b60405290565b6040805190810167ffffffffffffffff81118282101715614bc957614bc9614b77565b6040516080810167ffffffffffffffff81118282101715614bc957614bc9614b77565b604051601f82017fffffffffffffffffffffffffffffffffffffffffffffffffffffffffffffffe016810167ffffffffffffffff81118282101715614c5c57614c5c614b77565b604052919050565b600067ffffffffffffffff821115614c7e57614c7e614b77565b50601f017fffffffffffffffffffffffffffffffffffffffffffffffffffffffffffffffe01660200190565b6000614cbd614cb884614c64565b614c15565b9050828152838383011115614cd157600080fd5b828260208301376000602084830101529392505050565b600082601f830112614cf957600080fd5b610c0183833560208501614caa565b600060208284031215614d1a57600080fd5b813567ffffffffffffffff811115614d3157600080fd5b61076484828501614ce8565b6000602080835260608084018551838601528286015160408081880152828251808552608094508489019150848160051b8a0101878501945060005b82811015614e25577fffffffffffffffffffffffffffffffffffffffffffffffffffffffffffffff808b8303018452855160c0815184528a8201518b850152868201518188860152614dcd828601826146ef565b915050898201518482038b860152614de582826146ef565b838b015173ffffffffffffffffffffffffffffffffffffffff16868c015260a0938401511515939095019290925250509488019492880192600101614d79565b509a9950505050505050505050565b801515811461318e57600080fd5b600080600080600060608688031215614e5a57600080fd5b853567ffffffffffffffff80821115614e7257600080fd5b614e7e89838a01614616565b90975095506020880135915080821115614e9757600080fd5b50614ea488828901614616565b9094509250506040860135614eb881614e34565b809150509295509295909350565b600080600060408486031215614edb57600080fd5b833567ffffffffffffffff811115614ef257600080fd5b614efe86828701614616565b909790965060209590950135949350505050565b60008060008060008060008060a0898b031215614f2e57600080fd5b883567ffffffffffffffff80821115614f4657600080fd5b614f528c838d01614616565b909a50985060208b0135915080821115614f6b57600080fd5b614f778c838d01614616565b909850965060408b01359150614f8c82614984565b90945060608a0135935060808a01359080821115614fa957600080fd5b50614fb68b828c01614616565b999c989b5096995094979396929594505050565b60008060008060008060808789031215614fe357600080fd5b863567ffffffffffffffff80821115614ffb57600080fd5b6150078a838b01614616565b9098509650602089013591508082111561502057600080fd5b61502c8a838b01614616565b90965094506040890135915061504182614984565b9092506060880135908082111561505757600080fd5b5061506489828a01614af2565b9150509295509295509295565b6000806000806060858703121561508757600080fd5b843567ffffffffffffffff8082111561509f57600080fd5b90860190604082890312156150b357600080fd5b909450602086013590808211156150c957600080fd5b90860190608082890312156150dd57600080fd5b909350604086013590808211156150f357600080fd5b818701915087601f83011261510757600080fd5b81358181111561511657600080fd5b8860208260051b850101111561512b57600080fd5b95989497505060200194505050565b600067ffffffffffffffff82111561515457615154614b77565b5060051b60200190565b600080604080848603121561517257600080fd5b833567ffffffffffffffff8082111561518a57600080fd5b908501906060828803121561519e57600080fd5b90935060209085820135818111156151b557600080fd5b8601601f810188136151c657600080fd5b80356151d4614cb88261513a565b81815260059190911b8201840190848101908a8311156151f357600080fd5b8584015b838110156152ae5780358681111561520f5760008081fd5b85016060818e037fffffffffffffffffffffffffffffffffffffffffffffffffffffffffffffffe00112156152445760008081fd5b61524c614ba6565b8882013581528982013561525f81614984565b818a01526060820135888111156152765760008081fd5b8083019250508d603f83011261528c5760008081fd5b61529c8e8a8401358c8501614caa565b818b01528452509186019186016151f7565b50809750505050505050509250929050565b600080600080606085870312156152d657600080fd5b843567ffffffffffffffff8111156152ed57600080fd5b6152f987828801614616565b909550935050602085013561530d81614984565b9150604085013561531d81614e34565b939692955090935050565b6000806040838503121561533b57600080fd5b823567ffffffffffffffff81111561535257600080fd5b61535e85828601614ce8565b925050602083013561536f81614e34565b809150509250929050565b600181811c9082168061538e57607f821691505b602082108103610ac5577f4e487b7100000000000000000000000000000000000000000000000000000000600052602260045260246000fd5b7f4e487b7100000000000000000000000000000000000000000000000000000000600052601160045260246000fd5b8082018082111561082b5761082b6153c7565b7f4e487b7100000000000000000000000000000000000000000000000000000000600052603260045260246000fd5b60006020828403121561544a57600080fd5b8151610c0181614984565b600082601f83011261546657600080fd5b8151615474614cb882614c64565b81815284602083860101111561548957600080fd5b6107648260208301602087016146cb565b6000602082840312156154ac57600080fd5b815167ffffffffffffffff8111156154c357600080fd5b61076484828501615455565b60007fffffffffffffffffffffffffffffffffffffffffffffffffffffffffffffffff8203615500576155006153c7565b5060010190565b60008083357fffffffffffffffffffffffffffffffffffffffffffffffffffffffffffffffe184360301811261553c57600080fd5b830160208101925035905067ffffffffffffffff81111561555c57600080fd5b80360382131561465857600080fd5b8183528181602085013750600060208284010152600060207fffffffffffffffffffffffffffffffffffffffffffffffffffffffffffffffe0601f840116840101905092915050565b8381528260208201526060604082015260006155d08384615507565b6020606085015261215560808501828461556b565b8183823760009101908152919050565b60006020823603121561560757600080fd5b6040516020810167ffffffffffffffff828210818311171561562b5761562b614b77565b81604052843591508082111561564057600080fd5b5061564d36828601614ce8565b82525092915050565b8381526040602082015260006111e660408301848661556b565b60006020828403121561568257600080fd5b5051919050565b60008083357fffffffffffffffffffffffffffffffffffffffffffffffffffffffffffffffe18436030181126156be57600080fd5b83018035915067ffffffffffffffff8211156156d957600080fd5b60200191503681900382131561465857600080fd5b60008083357fffffffffffffffffffffffffffffffffffffffffffffffffffffffffffffffe184360301811261572357600080fd5b83018035915067ffffffffffffffff82111561573e57600080fd5b6020019150600581901b360382131561465857600080fd5b600082357fffffffffffffffffffffffffffffffffffffffffffffffffffffffffffffffe183360301811261578a57600080fd5b9190910192915050565b600082357fffffffffffffffffffffffffffffffffffffffffffffffffffffffffffffffc183360301811261578a57600080fd5b600060408083360312156157db57600080fd5b6157e3614bcf565b833567ffffffffffffffff808211156157fb57600080fd5b61580736838801614ce8565b835260209150818601358181111561581e57600080fd5b8601905036601f82011261583157600080fd5b803561583f614cb88261513a565b81815260079190911b8201830190838101903683111561585e57600080fd5b928401925b828410156158c5576080843603121561587c5760008081fd5b615884614bf2565b843561588f81614984565b81528486013586820152878501356158a681614e34565b8189015260608581013590820152825260809093019290840190615863565b93850193909352509195945050505050565b6000602080835260608451604080848701526158f5838701836146ef565b878501518782037fffffffffffffffffffffffffffffffffffffffffffffffffffffffffffffffe00183890152805180835290860193506000918601905b80831015615986578451805173ffffffffffffffffffffffffffffffffffffffff168352878101518884015284810151151585840152860151868301529386019360019290920191608090910190615933565b5098975050505050505050565b6000606082360312156159a557600080fd5b6040516060810167ffffffffffffffff82821081831117156159c9576159c9614b77565b8160405284359150808211156159de57600080fd5b6159ea36838701614ce8565b83526020850135915080821115615a0057600080fd5b615a0c36838701614ce8565b60208401526040850135915080821115615a2557600080fd5b50615a3236828601614ce8565b60408301525092915050565b600060208284031215615a5057600080fd5b815167ffffffffffffffff80821115615a6857600080fd5b9083019060408286031215615a7c57600080fd5b615a84614bcf565b82518152602083015182811115615a9a57600080fd5b615aa687828601615455565b60208301525095945050505050565b6000825161578a8184602087016146cb565b600060208284031215615ad957600080fd5b815167ffffffffffffffff80821115615af157600080fd5b9083019060208286031215615b0557600080fd5b604051602081018181108382111715615b2057615b20614b77565b604052825182811115615b3257600080fd5b615b3e87828601615455565b82525095945050505050565b600060208284031215615b5c57600080fd5b8151610c0181614e34565b608081526000615b7b60808301888a61556b565b8281036020840152615b8e81878961556b565b90508460408401528281036060840152615ba881856146ef565b9998505050505050505050565b608081526000615bc860808301876146ef565b8281036020840152615bda81876146ef565b9050846040840152828103606084015261215581856146ef565b608081526000615c0760808301876146ef565b8281036020840152615c1981876146ef565b905073ffffffffffffffffffffffffffffffffffffffff851660408401528281036060840152835160208252615c5260208301826146ef565b98975050505050505050565b60a081526000615c6e8788615507565b604060a0850152615c8360e08501828461556b565b915050615c936020890189615507565b7fffffffffffffffffffffffffffffffffffffffffffffffffffffffffffffff608584030160c0860152615cc883828461556b565b935050505085602083015273ffffffffffffffffffffffffffffffffffffffff851660408301528360608301528260808301529695505050505050565b60e0815260008851606060e0840152615d226101408401826146ef565b905060208a01517fffffffffffffffffffffffffffffffffffffffffffffffffffffffffffffff208085840301610100860152615d5f83836146ef565b925060408c01519150808584030161012086015250615d7e82826146ef565b602085019a909a52505050604081019590955273ffffffffffffffffffffffffffffffffffffffff939093166060850152608084019190915260a083015260c09091015291905056fea2646970667358221220cb7a48a2f867a8670968ce969d4d3d73bb39b6ee023d7553af2c5990afce30ca64736f6c63430008110033",
    "linkReferences": {
      "contracts/zion-governance/src/spaces/libraries/CreationLogic.sol": {
        "CreationLogic": [
          {
            "start": 16830,
            "length": 20
          },
          {
            "start": 17141,
            "length": 20
          },
          {
            "start": 18215,
            "length": 20
          }
        ]
      }
    }
  },
  "methodIdentifiers": {
    "addPermissionToRole(string,uint256,(string))": "7d9a0230",
    "addRoleToEntitlementModule(string,string,address,uint256,bytes)": "bbd7358a",
    "createChannel((string,string,string),(uint256,address,bytes)[])": "e69689af",
    "createRole(string,string)": "d2192dbf",
    "createSpace((string,string),(string,(string)[],(string,(address,uint256,bool,uint256)[])[],address[]),(string)[])": "d9d94cb7",
    "getChannelIdByNetworkId(string,string)": "3e66eae3",
    "getChannelInfoByChannelId(string,string)": "0db37ba3",
    "getChannelsBySpaceId(string)": "50c24eef",
    "getEntitlementModulesBySpaceId(string)": "141b6498",
    "getEntitlementsInfoBySpaceId(string)": "3519167c",
    "getSpaceIdByNetworkId(string)": "9ddd0d6b",
    "getSpaceInfoBySpaceId(string)": "2bb59212",
    "getSpaceOwnerBySpaceId(string)": "2a4bdf25",
    "getSpaces()": "15478ca9",
    "isEntitled(string,string,address,(string))": "bf77b663",
    "isEntitlementModuleWhitelisted(string,address)": "4196d1ff",
    "owner()": "8da5cb5b",
    "removeEntitlement(string,string,address,uint256,bytes)": "b53b8167",
    "removePermissionFromRole(string,uint256,(string))": "4832a4ec",
    "removeRole(string,uint256)": "8b0e905a",
    "renounceOwnership()": "715018a6",
    "setChannelAccess(string,string,bool)": "72a29321",
    "setDefaultTokenEntitlementModule(address)": "1a039620",
    "setDefaultUserEntitlementModule(address)": "e1b7a9e5",
    "setSpaceAccess(string,bool)": "f86caf83",
    "setSpaceNFT(address)": "ccde2de3",
    "transferOwnership(address)": "f2fde38b",
    "whitelistEntitlementModule(string,address,bool)": "e798ff3f"
  },
  "id": 21
}