{
  "abi": [
    {
      "inputs": [
        {
          "internalType": "address",
          "name": "permissionRegistry",
          "type": "address"
        }
      ],
      "stateMutability": "nonpayable",
      "type": "constructor"
    },
    {
      "inputs": [],
      "name": "InvalidParameters",
      "type": "error"
    },
    {
      "inputs": [],
      "name": "NotSpaceManager",
      "type": "error"
    },
    {
      "anonymous": false,
      "inputs": [
        {
          "indexed": true,
          "internalType": "address",
          "name": "previousOwner",
          "type": "address"
        },
        {
          "indexed": true,
          "internalType": "address",
          "name": "newOwner",
          "type": "address"
        }
      ],
      "name": "OwnershipTransferred",
      "type": "event"
    },
    {
      "inputs": [
        {
          "internalType": "uint256",
          "name": "spaceId",
          "type": "uint256"
        },
        {
          "internalType": "uint256",
          "name": "roleId",
          "type": "uint256"
        },
        {
          "components": [
            {
              "internalType": "string",
              "name": "name",
              "type": "string"
            }
          ],
          "internalType": "struct DataTypes.Permission",
          "name": "permission",
          "type": "tuple"
        }
      ],
      "name": "addPermissionToRole",
      "outputs": [],
      "stateMutability": "nonpayable",
      "type": "function"
    },
    {
      "inputs": [
        {
          "internalType": "uint256",
          "name": "spaceId",
          "type": "uint256"
        }
      ],
      "name": "createOwnerRole",
      "outputs": [
        {
          "internalType": "uint256",
          "name": "",
          "type": "uint256"
        }
      ],
      "stateMutability": "nonpayable",
      "type": "function"
    },
    {
      "inputs": [
        {
          "internalType": "uint256",
          "name": "spaceId",
          "type": "uint256"
        },
        {
          "internalType": "string",
          "name": "name",
          "type": "string"
        }
      ],
      "name": "createRole",
      "outputs": [
        {
          "internalType": "uint256",
          "name": "",
          "type": "uint256"
        }
      ],
      "stateMutability": "nonpayable",
      "type": "function"
    },
    {
      "inputs": [
        {
          "internalType": "uint256",
          "name": "spaceId",
          "type": "uint256"
        },
        {
          "internalType": "uint256",
          "name": "roleId",
          "type": "uint256"
        }
      ],
      "name": "getPermissionsBySpaceIdByRoleId",
      "outputs": [
        {
          "components": [
            {
              "internalType": "string",
              "name": "name",
              "type": "string"
            }
          ],
          "internalType": "struct DataTypes.Permission[]",
          "name": "",
          "type": "tuple[]"
        }
      ],
      "stateMutability": "view",
      "type": "function"
    },
    {
      "inputs": [
        {
          "internalType": "uint256",
          "name": "spaceId",
          "type": "uint256"
        },
        {
          "internalType": "uint256",
          "name": "roleId",
          "type": "uint256"
        }
      ],
      "name": "getRoleBySpaceIdByRoleId",
      "outputs": [
        {
          "components": [
            {
              "internalType": "uint256",
              "name": "roleId",
              "type": "uint256"
            },
            {
              "internalType": "string",
              "name": "name",
              "type": "string"
            }
          ],
          "internalType": "struct DataTypes.Role",
          "name": "role",
          "type": "tuple"
        }
      ],
      "stateMutability": "view",
      "type": "function"
    },
    {
      "inputs": [
        {
          "internalType": "uint256",
          "name": "spaceId",
          "type": "uint256"
        }
      ],
      "name": "getRolesBySpaceId",
      "outputs": [
        {
          "components": [
            {
              "internalType": "uint256",
              "name": "roleId",
              "type": "uint256"
            },
            {
              "internalType": "string",
              "name": "name",
              "type": "string"
            }
          ],
          "internalType": "struct DataTypes.Role[]",
          "name": "",
          "type": "tuple[]"
        }
      ],
      "stateMutability": "view",
      "type": "function"
    },
    {
      "inputs": [],
      "name": "owner",
      "outputs": [
        {
          "internalType": "address",
          "name": "",
          "type": "address"
        }
      ],
      "stateMutability": "view",
      "type": "function"
    },
    {
      "inputs": [
        {
          "internalType": "uint256",
          "name": "spaceId",
          "type": "uint256"
        },
        {
          "internalType": "uint256",
          "name": "roleId",
          "type": "uint256"
        },
        {
          "components": [
            {
              "internalType": "string",
              "name": "name",
              "type": "string"
            }
          ],
          "internalType": "struct DataTypes.Permission",
          "name": "permission",
          "type": "tuple"
        }
      ],
      "name": "removePermissionFromRole",
      "outputs": [],
      "stateMutability": "nonpayable",
      "type": "function"
    },
    {
      "inputs": [
        {
          "internalType": "uint256",
          "name": "spaceId",
          "type": "uint256"
        },
        {
          "internalType": "uint256",
          "name": "roleId",
          "type": "uint256"
        }
      ],
      "name": "removeRole",
      "outputs": [],
      "stateMutability": "nonpayable",
      "type": "function"
    },
    {
      "inputs": [],
      "name": "renounceOwnership",
      "outputs": [],
      "stateMutability": "nonpayable",
      "type": "function"
    },
    {
      "inputs": [
        {
          "internalType": "address",
          "name": "spaceManager",
          "type": "address"
        }
      ],
      "name": "setSpaceManager",
      "outputs": [],
      "stateMutability": "nonpayable",
      "type": "function"
    },
    {
      "inputs": [
        {
          "internalType": "address",
          "name": "newOwner",
          "type": "address"
        }
      ],
      "name": "transferOwnership",
      "outputs": [],
      "stateMutability": "nonpayable",
      "type": "function"
    }
  ],
  "bytecode": {
    "object": "0x60a060405234801561001057600080fd5b5060405161183338038061183383398101604081905261002f916100c0565b61003833610070565b6001600160a01b03811661005f57604051630e52390960e41b815260040160405180910390fd5b6001600160a01b03166080526100f0565b600080546001600160a01b038381166001600160a01b0319831681178455604051919092169283917f8be0079c531659141344cd1fd0a4f28419497f9722a3daafe3b4186f6b6457e09190a35050565b6000602082840312156100d257600080fd5b81516001600160a01b03811681146100e957600080fd5b9392505050565b608051611721610112600039600081816109aa0152610aa901526117216000f3fe608060405234801561001057600080fd5b50600436106100b45760003560e01c8063cdb0ba5011610071578063cdb0ba501461014d578063d9af4ecf14610160578063db474ecb14610180578063e88ca8a114610193578063f2fde38b146101b4578063f62df4df146101c757600080fd5b80633368c918146100b95780634b30a330146100ce57806352f1bea2146100e1578063715018a61461010a5780638da5cb5b14610112578063a7d325fc1461012d575b600080fd5b6100cc6100c7366004611029565b6101da565b005b6100cc6100dc3660046110c1565b61021e565b6100f46100ef3660046110ea565b610248565b604051610101919061117a565b60405180910390f35b6100cc610359565b6000546040516001600160a01b039091168152602001610101565b61014061013b3660046111dc565b61036d565b60405161010191906111fe565b6100cc61015b3660046111dc565b610470565b61017361016e3660046111dc565b6106d0565b604051610101919061125b565b6100cc61018e366004611029565b61084d565b6101a66101a136600461126e565b61088c565b604051908152602001610101565b6100cc6101c23660046110c1565b6108cd565b6101a66101d53660046110ea565b61094b565b6003546001600160a01b03163314610205576040516312cb521760e11b815260040160405180910390fd5b61020e81610a74565b610219838383610b8b565b505050565b610226610b98565b600380546001600160a01b0319166001600160a01b0392909216919091179055565b606060016000838152602001908152602001600020600101805480602002602001604051908101604052809291908181526020016000905b8282101561034e5783829060005260206000209060020201604051806040016040529081600082015481526020016001820180546102bd906112b5565b80601f01602080910402602001604051908101604052809291908181526020018280546102e9906112b5565b80156103365780601f1061030b57610100808354040283529160200191610336565b820191906000526020600020905b81548152906001019060200180831161031957829003601f168201915b50505050508152505081526020019060010190610280565b505050509050919050565b610361610b98565b61036b6000610bf2565b565b60008281526002602090815260408083208484528252808320805482518185028101850190935280835260609492939192909184015b82821015610463578382906000526020600020016040518060200160405290816000820180546103d2906112b5565b80601f01602080910402602001604051908101604052809291908181526020018280546103fe906112b5565b801561044b5780601f106104205761010080835404028352916020019161044b565b820191906000526020600020905b81548152906001019060200180831161042e57829003601f168201915b505050505081525050815260200190600101906103a3565b5050505090505b92915050565b6003546001600160a01b0316331461049b576040516312cb521760e11b815260040160405180910390fd5b6000828152600160208190526040822001805490915b818110156106c9578281815481106104cb576104cb6112ef565b90600052602060002090600202016000015484036106c1576000858152600260209081526040808320878452825280832080548251818502810185019093528083529192909190849084015b828210156105d757838290600052602060002001604051806020016040529081600082018054610546906112b5565b80601f0160208091040260200160405190810160405280929190818152602001828054610572906112b5565b80156105bf5780601f10610594576101008083540402835291602001916105bf565b820191906000526020600020905b8154815290600101906020018083116105a257829003601f168201915b50505050508152505081526020019060010190610517565b5050825192935060009150505b81811015610618576106108888858481518110610603576106036112ef565b6020026020010151610c42565b6001016105e4565b508461062560018661131b565b81548110610635576106356112ef565b9060005260206000209060020201858481548110610655576106556112ef565b60009182526020909120825460029092020190815560018082019061067c90840182611374565b509050508480548061069057610690611451565b600082815260208120600260001990930192830201818155906106b66001830182610f16565b5050905550506106c9565b6001016104b1565b5050505050565b604080518082019091526000815260606020820152600083815260016020818152604080842090920180548351818402810184019094528084529091849084015b828210156107df57838290600052602060002090600202016040518060400160405290816000820154815260200160018201805461074e906112b5565b80601f016020809104026020016040519081016040528092919081815260200182805461077a906112b5565b80156107c75780601f1061079c576101008083540402835291602001916107c7565b820191906000526020600020905b8154815290600101906020018083116107aa57829003601f168201915b50505050508152505081526020019060010190610711565b5050825192935060009150505b8181101561084457828181518110610806576108066112ef565b602002602001015160000151850361083c5782818151811061082a5761082a6112ef565b6020026020010151935050505061046a565b6001016107ec565b50505092915050565b6003546001600160a01b03163314610878576040516312cb521760e11b815260040160405180910390fd5b61088181610a74565b610219838383610c42565b6003546000906001600160a01b031633146108ba576040516312cb521760e11b815260040160405180910390fd5b6108c683836001610dbe565b9392505050565b6108d5610b98565b6001600160a01b03811661093f5760405162461bcd60e51b815260206004820152602660248201527f4f776e61626c653a206e6577206f776e657220697320746865207a65726f206160448201526564647265737360d01b60648201526084015b60405180910390fd5b61094881610bf2565b50565b6003546000906001600160a01b03163314610979576040516312cb521760e11b815260040160405180910390fd5b60006109a4836040518060400160405280600581526020016427bbb732b960d91b8152506001610dbe565b905060007f00000000000000000000000000000000000000000000000000000000000000006001600160a01b031663b989e2c56040518163ffffffff1660e01b8152600401600060405180830381865afa158015610a06573d6000803e3d6000fd5b505050506040513d6000823e601f3d908101601f19168201604052610a2e9190810190611507565b805190915060005b81811015610a6a57610a628685858481518110610a5557610a556112ef565b6020026020010151610b8b565b600101610a36565b5091949350505050565b60405163173c4a6360e01b81527f929f3fd6848015f83b9210c89f7744e3941acae1195c8bf9f5798c090dc8f49760048201527f00000000000000000000000000000000000000000000000000000000000000006001600160a01b03169063173c4a6390602401600060405180830381865afa158015610af8573d6000803e3d6000fd5b505050506040513d6000823e601f3d908101601f19168201604052610b2091908101906115ca565b604051602001610b3091906115ff565b6040516020818303038152906040528051906020012081604051602001610b5791906115ff565b604051602081830303815290604052805190602001200361094857604051630e52390960e41b815260040160405180910390fd5b6102198383836002610e3d565b6000546001600160a01b0316331461036b5760405162461bcd60e51b815260206004820181905260248201527f4f776e61626c653a2063616c6c6572206973206e6f7420746865206f776e65726044820152606401610936565b600080546001600160a01b038381166001600160a01b0319831681178455604051919092169283917f8be0079c531659141344cd1fd0a4f28419497f9722a3daafe3b4186f6b6457e09190a35050565b60008381526002602090815260408083208584529091528120805490915b81811015610db657610d1d8460000151848381548110610c8257610c826112ef565b906000526020600020016000018054610c9a906112b5565b80601f0160208091040260200160405190810160405280929190818152602001828054610cc6906112b5565b8015610d135780601f10610ce857610100808354040283529160200191610d13565b820191906000526020600020905b815481529060010190602001808311610cf657829003601f168201915b5050505050610e7e565b15610dae5782610d2e60018461131b565b81548110610d3e57610d3e6112ef565b90600052602060002001838281548110610d5a57610d5a6112ef565b600091825260209091200180610d708382611374565b5090505082805480610d8457610d84611451565b6001900381819060005260206000200160008082016000610da59190610f16565b50509055610db6565b600101610c60565b505050505050565b60008381526020829052604081208054829182610dda8361161a565b9091555060008681526020858152604080832081518083019092528482528183018981526001918201805480840182559086529390942082516002909402019283559251939450929091820190610e319082611633565b50919695505050505050565b60008481526020828152604080832086845282528220805460018101825590835291208351849291909101908190610e759082611633565b50505050505050565b8151815160009184918491908114610e9c576000935050505061046a565b60005b81811015610f0957828181518110610eb957610eb96112ef565b602001015160f81c60f81b6001600160f81b031916848281518110610ee057610ee06112ef565b01602001516001600160f81b03191614610f0157600094505050505061046a565b600101610e9f565b5060019695505050505050565b508054610f22906112b5565b6000825580601f10610f32575050565b601f01602090049060005260206000209081019061094891905b80821115610f605760008155600101610f4c565b5090565b634e487b7160e01b600052604160045260246000fd5b604051601f8201601f1916810167ffffffffffffffff81118282101715610fa357610fa3610f64565b604052919050565b600067ffffffffffffffff821115610fc557610fc5610f64565b50601f01601f191660200190565b600082601f830112610fe457600080fd5b8135610ff7610ff282610fab565b610f7a565b81815284602083860101111561100c57600080fd5b816020850160208301376000918101602001919091529392505050565b60008060006060848603121561103e57600080fd5b8335925060208401359150604084013567ffffffffffffffff8082111561106457600080fd5b908501906020828803121561107857600080fd5b60405160208101818110838211171561109357611093610f64565b6040528235828111156110a557600080fd5b6110b189828601610fd3565b8252508093505050509250925092565b6000602082840312156110d357600080fd5b81356001600160a01b03811681146108c657600080fd5b6000602082840312156110fc57600080fd5b5035919050565b60005b8381101561111e578181015183820152602001611106565b50506000910152565b6000815180845261113f816020860160208601611103565b601f01601f19169290920160200192915050565b8051825260006020820151604060208501526111726040850182611127565b949350505050565b6000602080830181845280855180835260408601915060408160051b870101925083870160005b828110156111cf57603f198886030184526111bd858351611153565b945092850192908501906001016111a1565b5092979650505050505050565b600080604083850312156111ef57600080fd5b50508035926020909101359150565b6000602080830181845280855180835260408601915060408160051b870101925083870160005b828110156111cf57878503603f1901845281515186865261124887870182611127565b9550509285019290850190600101611225565b6020815260006108c66020830184611153565b6000806040838503121561128157600080fd5b82359150602083013567ffffffffffffffff81111561129f57600080fd5b6112ab85828601610fd3565b9150509250929050565b600181811c908216806112c957607f821691505b6020821081036112e957634e487b7160e01b600052602260045260246000fd5b50919050565b634e487b7160e01b600052603260045260246000fd5b634e487b7160e01b600052601160045260246000fd5b8181038181111561046a5761046a611305565b601f82111561021957600081815260208120601f850160051c810160208610156113555750805b601f850160051c820191505b81811015610db657828155600101611361565b81810361137f575050565b61138982546112b5565b67ffffffffffffffff8111156113a1576113a1610f64565b6113b5816113af84546112b5565b8461132e565b6000601f8211600181146113e957600083156113d15750848201545b600019600385901b1c1916600184901b1784556106c9565b600085815260209020601f19841690600086815260209020845b838110156114235782860154825560019586019590910190602001611403565b50858310156114415781850154600019600388901b60f8161c191681555b5050505050600190811b01905550565b634e487b7160e01b600052603160045260246000fd5b60006020828403121561147957600080fd5b6040516020810167ffffffffffffffff828210818311171561149d5761149d610f64565b8160405282935084519150808211156114b557600080fd5b508301601f810185136114c757600080fd5b80516114d5610ff282610fab565b8181528660208385010111156114ea57600080fd5b6114fb826020830160208601611103565b90925250909392505050565b6000602080838503121561151a57600080fd5b825167ffffffffffffffff8082111561153257600080fd5b818501915085601f83011261154657600080fd5b81518181111561155857611558610f64565b8060051b611567858201610f7a565b918252838101850191858101908984111561158157600080fd5b86860192505b838310156115bd5782518581111561159f5760008081fd5b6115ad8b89838a0101611467565b8352509186019190860190611587565b9998505050505050505050565b6000602082840312156115dc57600080fd5b815167ffffffffffffffff8111156115f357600080fd5b61117284828501611467565b60208152600082516020808401526111726040840182611127565b60006001820161162c5761162c611305565b5060010190565b815167ffffffffffffffff81111561164d5761164d610f64565b61165b816113af84546112b5565b602080601f83116001811461169057600084156116785750858301515b600019600386901b1c1916600185901b178555610db6565b600085815260208120601f198616915b828110156116bf578886015182559484019460019091019084016116a0565b508582101561144157939096015160001960f8600387901b161c19169092555050600190811b0190555056fea2646970667358221220940ce5871160dc7d335b24908159c33eaf625faf44ed9e8a68938b37a1f51f3f64736f6c63430008110033",
    "linkReferences": {}
  },
  "methodIdentifiers": {
    "addPermissionToRole(uint256,uint256,(string))": "3368c918",
    "createOwnerRole(uint256)": "f62df4df",
    "createRole(uint256,string)": "e88ca8a1",
    "getPermissionsBySpaceIdByRoleId(uint256,uint256)": "a7d325fc",
    "getRoleBySpaceIdByRoleId(uint256,uint256)": "d9af4ecf",
    "getRolesBySpaceId(uint256)": "52f1bea2",
    "owner()": "8da5cb5b",
    "removePermissionFromRole(uint256,uint256,(string))": "db474ecb",
    "removeRole(uint256,uint256)": "cdb0ba50",
    "renounceOwnership()": "715018a6",
    "setSpaceManager(address)": "4b30a330",
    "transferOwnership(address)": "f2fde38b"
  },
  "id": 17
}