{
  "abi": [
    {
      "inputs": [
        {
          "internalType": "address",
          "name": "permissionRegistry",
          "type": "address"
        }
      ],
      "stateMutability": "nonpayable",
      "type": "constructor"
    },
    {
      "inputs": [],
      "name": "ChannelDoesNotExist",
      "type": "error"
    },
    {
      "inputs": [],
      "name": "DefaultEntitlementModuleNotSet",
      "type": "error"
    },
    {
      "inputs": [],
      "name": "DefaultPermissionsManagerNotSet",
      "type": "error"
    },
    {
      "inputs": [],
      "name": "EntitlementAlreadyWhitelisted",
      "type": "error"
    },
    {
      "inputs": [],
      "name": "EntitlementModuleNotSupported",
      "type": "error"
    },
    {
      "inputs": [],
      "name": "EntitlementNotWhitelisted",
      "type": "error"
    },
    {
      "inputs": [],
      "name": "InvalidParameters",
      "type": "error"
    },
    {
      "inputs": [],
      "name": "NotAllowed",
      "type": "error"
    },
    {
      "inputs": [],
      "name": "SpaceDoesNotExist",
      "type": "error"
    },
    {
      "anonymous": false,
      "inputs": [
        {
          "indexed": true,
          "internalType": "address",
          "name": "previousOwner",
          "type": "address"
        },
        {
          "indexed": true,
          "internalType": "address",
          "name": "newOwner",
          "type": "address"
        }
      ],
      "name": "OwnershipTransferred",
      "type": "event"
    },
    {
      "inputs": [
        {
          "internalType": "string",
          "name": "spaceId",
          "type": "string"
        },
        {
          "internalType": "uint256",
          "name": "roleId",
          "type": "uint256"
        },
        {
          "components": [
            {
              "internalType": "string",
              "name": "name",
              "type": "string"
            }
          ],
          "internalType": "struct DataTypes.Permission",
          "name": "permission",
          "type": "tuple"
        }
      ],
      "name": "addPermissionToRole",
      "outputs": [],
      "stateMutability": "nonpayable",
      "type": "function"
    },
    {
      "inputs": [
        {
          "internalType": "string",
          "name": "spaceId",
          "type": "string"
        },
        {
          "internalType": "string",
          "name": "channelId",
          "type": "string"
        },
        {
          "internalType": "address",
          "name": "entitlementModuleAddress",
          "type": "address"
        },
        {
          "internalType": "uint256",
          "name": "roleId",
          "type": "uint256"
        },
        {
          "internalType": "bytes",
          "name": "entitlementData",
          "type": "bytes"
        }
      ],
      "name": "addRoleToEntitlementModule",
      "outputs": [],
      "stateMutability": "nonpayable",
      "type": "function"
    },
    {
      "inputs": [
        {
          "components": [
            {
              "internalType": "string",
              "name": "spaceNetworkId",
              "type": "string"
            },
            {
              "internalType": "string",
              "name": "channelName",
              "type": "string"
            },
            {
              "internalType": "string",
              "name": "channelNetworkId",
              "type": "string"
            }
          ],
          "internalType": "struct DataTypes.CreateChannelData",
          "name": "data",
          "type": "tuple"
        },
        {
          "components": [
            {
              "internalType": "string",
              "name": "name",
              "type": "string"
            },
            {
              "internalType": "string",
              "name": "metadata",
              "type": "string"
            },
            {
              "components": [
                {
                  "internalType": "string",
                  "name": "name",
                  "type": "string"
                }
              ],
              "internalType": "struct DataTypes.Permission[]",
              "name": "permissions",
              "type": "tuple[]"
            }
          ],
          "internalType": "struct DataTypes.CreateRoleData",
          "name": "role",
          "type": "tuple"
        }
      ],
      "name": "createChannel",
      "outputs": [
        {
          "internalType": "uint256",
          "name": "",
          "type": "uint256"
        }
      ],
      "stateMutability": "nonpayable",
      "type": "function"
    },
    {
      "inputs": [
        {
          "internalType": "string",
          "name": "spaceId",
          "type": "string"
        },
        {
          "internalType": "string",
          "name": "name",
          "type": "string"
        }
      ],
      "name": "createRole",
      "outputs": [
        {
          "internalType": "uint256",
          "name": "",
          "type": "uint256"
        }
      ],
      "stateMutability": "nonpayable",
      "type": "function"
    },
    {
      "inputs": [
        {
          "components": [
            {
              "internalType": "string",
              "name": "spaceName",
              "type": "string"
            },
            {
              "internalType": "string",
              "name": "spaceNetworkId",
              "type": "string"
            }
          ],
          "internalType": "struct DataTypes.CreateSpaceData",
          "name": "info",
          "type": "tuple"
        }
      ],
      "name": "createSpace",
      "outputs": [
        {
          "internalType": "uint256",
          "name": "",
          "type": "uint256"
        }
      ],
      "stateMutability": "nonpayable",
      "type": "function"
    },
    {
      "inputs": [
        {
          "components": [
            {
              "internalType": "string",
              "name": "spaceName",
              "type": "string"
            },
            {
              "internalType": "string",
              "name": "spaceNetworkId",
              "type": "string"
            }
          ],
          "internalType": "struct DataTypes.CreateSpaceData",
          "name": "info",
          "type": "tuple"
        },
        {
          "components": [
            {
              "internalType": "address",
              "name": "entitlementModuleAddress",
              "type": "address"
            },
            {
              "internalType": "address",
              "name": "tokenAddress",
              "type": "address"
            },
            {
              "internalType": "uint256",
              "name": "quantity",
              "type": "uint256"
            },
            {
              "internalType": "string",
              "name": "description",
              "type": "string"
            },
            {
              "internalType": "string[]",
              "name": "permissions",
              "type": "string[]"
            },
            {
              "internalType": "string",
              "name": "roleName",
              "type": "string"
            }
          ],
          "internalType": "struct DataTypes.CreateSpaceTokenEntitlementData",
          "name": "entitlement",
          "type": "tuple"
        }
      ],
      "name": "createSpaceWithTokenEntitlement",
      "outputs": [
        {
          "internalType": "uint256",
          "name": "",
          "type": "uint256"
        }
      ],
      "stateMutability": "nonpayable",
      "type": "function"
    },
    {
      "inputs": [
        {
          "internalType": "string",
          "name": "spaceId",
          "type": "string"
        },
        {
          "internalType": "string",
          "name": "channelId",
          "type": "string"
        }
      ],
      "name": "getChannelIdByNetworkId",
      "outputs": [
        {
          "internalType": "uint256",
          "name": "",
          "type": "uint256"
        }
      ],
      "stateMutability": "view",
      "type": "function"
    },
    {
      "inputs": [
        {
          "internalType": "string",
          "name": "spaceId",
          "type": "string"
        },
        {
          "internalType": "string",
          "name": "channelId",
          "type": "string"
        }
      ],
      "name": "getChannelInfoByChannelId",
      "outputs": [
        {
          "components": [
            {
              "internalType": "uint256",
              "name": "channelId",
              "type": "uint256"
            },
            {
              "internalType": "string",
              "name": "networkId",
              "type": "string"
            },
            {
              "internalType": "uint256",
              "name": "createdAt",
              "type": "uint256"
            },
            {
              "internalType": "string",
              "name": "name",
              "type": "string"
            },
            {
              "internalType": "address",
              "name": "creator",
              "type": "address"
            },
            {
              "internalType": "bool",
              "name": "disabled",
              "type": "bool"
            }
          ],
          "internalType": "struct DataTypes.ChannelInfo",
          "name": "",
          "type": "tuple"
        }
      ],
      "stateMutability": "view",
      "type": "function"
    },
    {
      "inputs": [
        {
          "internalType": "string",
          "name": "spaceId",
          "type": "string"
        }
      ],
      "name": "getChannelsBySpaceId",
      "outputs": [
        {
          "components": [
            {
              "internalType": "uint256",
              "name": "idCounter",
              "type": "uint256"
            },
            {
              "components": [
                {
                  "internalType": "uint256",
                  "name": "channelId",
                  "type": "uint256"
                },
                {
                  "internalType": "uint256",
                  "name": "createdAt",
                  "type": "uint256"
                },
                {
                  "internalType": "string",
                  "name": "networkId",
                  "type": "string"
                },
                {
                  "internalType": "string",
                  "name": "name",
                  "type": "string"
                },
                {
                  "internalType": "address",
                  "name": "creator",
                  "type": "address"
                },
                {
                  "internalType": "bool",
                  "name": "disabled",
                  "type": "bool"
                }
              ],
              "internalType": "struct DataTypes.Channel[]",
              "name": "channels",
              "type": "tuple[]"
            }
          ],
          "internalType": "struct DataTypes.Channels",
          "name": "",
          "type": "tuple"
        }
      ],
      "stateMutability": "view",
      "type": "function"
    },
    {
      "inputs": [
        {
          "internalType": "string",
          "name": "spaceId",
          "type": "string"
        }
      ],
      "name": "getEntitlementModulesBySpaceId",
      "outputs": [
        {
          "internalType": "address[]",
          "name": "entitlementModules",
          "type": "address[]"
        }
      ],
      "stateMutability": "view",
      "type": "function"
    },
    {
      "inputs": [
        {
          "internalType": "string",
          "name": "spaceId",
          "type": "string"
        }
      ],
      "name": "getEntitlementsInfoBySpaceId",
      "outputs": [
        {
          "components": [
            {
              "internalType": "address",
              "name": "entitlementAddress",
              "type": "address"
            },
            {
              "internalType": "string",
              "name": "entitlementName",
              "type": "string"
            },
            {
              "internalType": "string",
              "name": "entitlementDescription",
              "type": "string"
            }
          ],
          "internalType": "struct DataTypes.EntitlementModuleInfo[]",
          "name": "",
          "type": "tuple[]"
        }
      ],
      "stateMutability": "view",
      "type": "function"
    },
    {
      "inputs": [
        {
          "internalType": "bytes32",
          "name": "permissionType",
          "type": "bytes32"
        }
      ],
      "name": "getPermissionFromMap",
      "outputs": [
        {
          "components": [
            {
              "internalType": "string",
              "name": "name",
              "type": "string"
            }
          ],
          "internalType": "struct DataTypes.Permission",
          "name": "permission",
          "type": "tuple"
        }
      ],
      "stateMutability": "view",
      "type": "function"
    },
    {
      "inputs": [
        {
          "internalType": "string",
          "name": "spaceId",
          "type": "string"
        },
        {
          "internalType": "uint256",
          "name": "roleId",
          "type": "uint256"
        }
      ],
      "name": "getPermissionsBySpaceIdByRoleId",
      "outputs": [
        {
          "components": [
            {
              "internalType": "string",
              "name": "name",
              "type": "string"
            }
          ],
          "internalType": "struct DataTypes.Permission[]",
          "name": "",
          "type": "tuple[]"
        }
      ],
      "stateMutability": "view",
      "type": "function"
    },
    {
      "inputs": [
        {
          "internalType": "string",
          "name": "spaceId",
          "type": "string"
        },
        {
          "internalType": "uint256",
          "name": "roleId",
          "type": "uint256"
        }
      ],
      "name": "getRoleBySpaceIdByRoleId",
      "outputs": [
        {
          "components": [
            {
              "internalType": "uint256",
              "name": "roleId",
              "type": "uint256"
            },
            {
              "internalType": "string",
              "name": "name",
              "type": "string"
            }
          ],
          "internalType": "struct DataTypes.Role",
          "name": "",
          "type": "tuple"
        }
      ],
      "stateMutability": "view",
      "type": "function"
    },
    {
      "inputs": [
        {
          "internalType": "string",
          "name": "spaceId",
          "type": "string"
        }
      ],
      "name": "getRolesBySpaceId",
      "outputs": [
        {
          "components": [
            {
              "internalType": "uint256",
              "name": "roleId",
              "type": "uint256"
            },
            {
              "internalType": "string",
              "name": "name",
              "type": "string"
            }
          ],
          "internalType": "struct DataTypes.Role[]",
          "name": "",
          "type": "tuple[]"
        }
      ],
      "stateMutability": "view",
      "type": "function"
    },
    {
      "inputs": [
        {
          "internalType": "string",
          "name": "networkId",
          "type": "string"
        }
      ],
      "name": "getSpaceIdByNetworkId",
      "outputs": [
        {
          "internalType": "uint256",
          "name": "",
          "type": "uint256"
        }
      ],
      "stateMutability": "view",
      "type": "function"
    },
    {
      "inputs": [
        {
          "internalType": "string",
          "name": "spaceId",
          "type": "string"
        }
      ],
      "name": "getSpaceInfoBySpaceId",
      "outputs": [
        {
          "components": [
            {
              "internalType": "uint256",
              "name": "spaceId",
              "type": "uint256"
            },
            {
              "internalType": "string",
              "name": "networkId",
              "type": "string"
            },
            {
              "internalType": "uint256",
              "name": "createdAt",
              "type": "uint256"
            },
            {
              "internalType": "string",
              "name": "name",
              "type": "string"
            },
            {
              "internalType": "address",
              "name": "creator",
              "type": "address"
            },
            {
              "internalType": "address",
              "name": "owner",
              "type": "address"
            },
            {
              "internalType": "bool",
              "name": "disabled",
              "type": "bool"
            }
          ],
          "internalType": "struct DataTypes.SpaceInfo",
          "name": "",
          "type": "tuple"
        }
      ],
      "stateMutability": "view",
      "type": "function"
    },
    {
      "inputs": [
        {
          "internalType": "string",
          "name": "spaceId",
          "type": "string"
        }
      ],
      "name": "getSpaceOwnerBySpaceId",
      "outputs": [
        {
          "internalType": "address",
          "name": "ownerAddress",
          "type": "address"
        }
      ],
      "stateMutability": "view",
      "type": "function"
    },
    {
      "inputs": [],
      "name": "getSpaces",
      "outputs": [
        {
          "components": [
            {
              "internalType": "uint256",
              "name": "spaceId",
              "type": "uint256"
            },
            {
              "internalType": "string",
              "name": "networkId",
              "type": "string"
            },
            {
              "internalType": "uint256",
              "name": "createdAt",
              "type": "uint256"
            },
            {
              "internalType": "string",
              "name": "name",
              "type": "string"
            },
            {
              "internalType": "address",
              "name": "creator",
              "type": "address"
            },
            {
              "internalType": "address",
              "name": "owner",
              "type": "address"
            },
            {
              "internalType": "bool",
              "name": "disabled",
              "type": "bool"
            }
          ],
          "internalType": "struct DataTypes.SpaceInfo[]",
          "name": "",
          "type": "tuple[]"
        }
      ],
      "stateMutability": "view",
      "type": "function"
    },
    {
      "inputs": [
        {
          "internalType": "string",
          "name": "spaceId",
          "type": "string"
        },
        {
          "internalType": "string",
          "name": "channelId",
          "type": "string"
        },
        {
          "internalType": "address",
          "name": "user",
          "type": "address"
        },
        {
          "components": [
            {
              "internalType": "string",
              "name": "name",
              "type": "string"
            }
          ],
          "internalType": "struct DataTypes.Permission",
          "name": "permission",
          "type": "tuple"
        }
      ],
      "name": "isEntitled",
      "outputs": [
        {
          "internalType": "bool",
          "name": "",
          "type": "bool"
        }
      ],
      "stateMutability": "view",
      "type": "function"
    },
    {
      "inputs": [
        {
          "internalType": "string",
          "name": "spaceId",
          "type": "string"
        },
        {
          "internalType": "address",
          "name": "entitlementModuleAddress",
          "type": "address"
        }
      ],
      "name": "isEntitlementModuleWhitelisted",
      "outputs": [
        {
          "internalType": "bool",
          "name": "",
          "type": "bool"
        }
      ],
      "stateMutability": "view",
      "type": "function"
    },
    {
      "inputs": [],
      "name": "owner",
      "outputs": [
        {
          "internalType": "address",
          "name": "",
          "type": "address"
        }
      ],
      "stateMutability": "view",
      "type": "function"
    },
    {
      "inputs": [
        {
          "internalType": "string",
          "name": "spaceId",
          "type": "string"
        },
        {
          "internalType": "string",
          "name": "channelId",
          "type": "string"
        },
        {
          "internalType": "address",
          "name": "entitlementModuleAddress",
          "type": "address"
        },
        {
          "internalType": "uint256[]",
          "name": "roleIds",
          "type": "uint256[]"
        },
        {
          "internalType": "bytes",
          "name": "data",
          "type": "bytes"
        }
      ],
      "name": "removeEntitlement",
      "outputs": [],
      "stateMutability": "nonpayable",
      "type": "function"
    },
    {
      "inputs": [
        {
          "internalType": "string",
          "name": "spaceId",
          "type": "string"
        },
        {
          "internalType": "uint256",
          "name": "roleId",
          "type": "uint256"
        },
        {
          "components": [
            {
              "internalType": "string",
              "name": "name",
              "type": "string"
            }
          ],
          "internalType": "struct DataTypes.Permission",
          "name": "permission",
          "type": "tuple"
        }
      ],
      "name": "removePermissionFromRole",
      "outputs": [],
      "stateMutability": "nonpayable",
      "type": "function"
    },
    {
      "inputs": [
        {
          "internalType": "string",
          "name": "spaceId",
          "type": "string"
        },
        {
          "internalType": "uint256",
          "name": "roleId",
          "type": "uint256"
        }
      ],
      "name": "removeRole",
      "outputs": [],
      "stateMutability": "nonpayable",
      "type": "function"
    },
    {
      "inputs": [],
      "name": "renounceOwnership",
      "outputs": [],
      "stateMutability": "nonpayable",
      "type": "function"
    },
    {
      "inputs": [
        {
          "internalType": "string",
          "name": "spaceNetworkId",
          "type": "string"
        },
        {
          "internalType": "string",
          "name": "channelNetworkId",
          "type": "string"
        },
        {
          "internalType": "bool",
          "name": "disabled",
          "type": "bool"
        }
      ],
      "name": "setChannelAccess",
      "outputs": [],
      "stateMutability": "nonpayable",
      "type": "function"
    },
    {
      "inputs": [
        {
          "internalType": "address",
          "name": "entitlementModule",
          "type": "address"
        }
      ],
      "name": "setDefaultEntitlementModule",
      "outputs": [],
      "stateMutability": "nonpayable",
      "type": "function"
    },
    {
      "inputs": [
        {
          "internalType": "string",
          "name": "spaceNetworkId",
          "type": "string"
        },
        {
          "internalType": "bool",
          "name": "disabled",
          "type": "bool"
        }
      ],
      "name": "setSpaceAccess",
      "outputs": [],
      "stateMutability": "nonpayable",
      "type": "function"
    },
    {
      "inputs": [
        {
          "internalType": "address",
          "name": "newOwner",
          "type": "address"
        }
      ],
      "name": "transferOwnership",
      "outputs": [],
      "stateMutability": "nonpayable",
      "type": "function"
    },
    {
      "inputs": [
        {
          "internalType": "string",
          "name": "spaceId",
          "type": "string"
        },
        {
          "internalType": "address",
          "name": "entitlementAddress",
          "type": "address"
        },
        {
          "internalType": "bool",
          "name": "whitelist",
          "type": "bool"
        }
      ],
      "name": "whitelistEntitlementModule",
      "outputs": [],
      "stateMutability": "nonpayable",
      "type": "function"
    }
  ],
  "bytecode": {
    "object": "0x60a06040523480156200001157600080fd5b5060405162005eb238038062005eb28339810160408190526200003491620000cb565b8062000040336200007b565b6001600160a01b0381166200006857604051630e52390960e41b815260040160405180910390fd5b6001600160a01b031660805250620000fd565b600080546001600160a01b038381166001600160a01b0319831681178455604051919092169283917f8be0079c531659141344cd1fd0a4f28419497f9722a3daafe3b4186f6b6457e09190a35050565b600060208284031215620000de57600080fd5b81516001600160a01b0381168114620000f657600080fd5b9392505050565b608051615d846200012e60003960008181611e0301528181612f930152818161351a01526142d70152615d846000f3fe608060405234801561001057600080fd5b50600436106101e55760003560e01c80637d9a02301161010f578063bc374841116100a2578063e76c630311610071578063e76c6303146104b0578063e798ff3f146104c3578063f2fde38b146104d6578063f86caf83146104e957600080fd5b8063bc37484114610464578063bf77b66314610477578063ccaf0a2b1461048a578063d2192dbf1461049d57600080fd5b80639ea4d532116100de5780639ea4d532146103fe578063a3a39cb91461041e578063b3ff31b214610431578063bbd7358a1461045157600080fd5b80637d9a0230146103a75780638b0e905a146103ba5780638da5cb5b146103cd5780639ddd0d6b146103eb57600080fd5b80634196d1ff1161018757806350c24eef1161015657806350c24eef1461034c5780637074047c1461036c578063715018a61461038c57806372a293211461039457600080fd5b80634196d1ff146102e15780634832a4ec146103045780634bf2abb21461031957806350b88cf71461033957600080fd5b80632a4bdf25116101c35780632a4bdf25146102485780632bb59212146102805780633519167c146102a05780633e66eae3146102c057600080fd5b80630db37ba3146101ea578063141b64981461021357806315478ca914610233575b600080fd5b6101fd6101f8366004614438565b6104fc565b60405161020a91906144f4565b60405180910390f35b61022661022136600461457a565b6107f8565b60405161020a91906145bc565b61023b6108bd565b60405161020a91906146a1565b61025b61025636600461457a565b610b57565b60405173ffffffffffffffffffffffffffffffffffffffff909116815260200161020a565b61029361028e36600461457a565b610bcd565b60405161020a9190614721565b6102b36102ae36600461457a565b610e56565b60405161020a9190614734565b6102d36102ce366004614438565b6110fa565b60405190815260200161020a565b6102f46102ef366004614822565b611178565b604051901515815260200161020a565b610317610312366004614888565b611200565b005b61032c61032736600461457a565b6112e0565b60405161020a919061491a565b6102d361034736600461499f565b611430565b61035f61035a366004614afe565b611559565b60405161020a9190614b33565b61037f61037a366004614c2a565b611797565b60405161020a9190614c76565b6103176118e8565b6103176103a2366004614cff565b6118fc565b6103176103b5366004614888565b611bbd565b6103176103c8366004614c2a565b611c94565b60005473ffffffffffffffffffffffffffffffffffffffff1661025b565b6102d36103f936600461457a565b611d6a565b61041161040c366004614d83565b611db2565b60405161020a9190614d9c565b61031761042c366004614db7565b611e72565b61044461043f366004614c2a565b6120da565b60405161020a9190614ec2565b61031761045f366004614ed5565b612212565b6102d36104723660046150fa565b61248d565b6102f46104853660046151d4565b6125ec565b61031761049836600461527a565b612678565b6102d36104ab366004614438565b6126ef565b6102d36104be366004615295565b612801565b6103176104d1366004615300565b612a5a565b6103176104e436600461527a565b612b32565b6103176104f7366004615367565b612bee565b61054d6040518060c0016040528060008152602001606081526020016000815260200160608152602001600073ffffffffffffffffffffffffffffffffffffffff1681526020016000151581525090565b600061058e86868080601f016020809104026020016040519081016040528093929190818152602001838380828437600092019190915250612ce192505050565b9050600061060587878080601f01602080910402602001604051908101604052809392919081815260200183838082843760009201919091525050604080516020601f8b018190048102820181019092528981529250899150889081908401838280828437600092019190915250612cfb92505050565b6040805160c08101825260008581526004602090815283822085835280825293822080548452918590529283526002018054939450909291830191610649906153ae565b80601f0160208091040260200160405190810160405280929190818152602001828054610675906153ae565b80156106c25780601f10610697576101008083540402835291602001916106c2565b820191906000526020600020905b8154815290600101906020018083116106a557829003601f168201915b50505091835250506000848152600460209081526040808320868452808352818420600181015484870152938790529091526003909101805491909201919061070a906153ae565b80601f0160208091040260200160405190810160405280929190818152602001828054610736906153ae565b80156107835780601f1061075857610100808354040283529160200191610783565b820191906000526020600020905b81548152906001019060200180831161076657829003601f168201915b505050918352505060009384526004602081815260408087208688528083528188209093015473ffffffffffffffffffffffffffffffffffffffff81168386015295909652527401000000000000000000000000000000000000000090920460ff161515929091019190915295945050505050565b60606005600061083d85858080601f016020809104026020016040519081016040528093929190818152602001838380828437600092019190915250612ce192505050565b81526020019081526020016000206009018054806020026020016040519081016040528092919081815260200182805480156108af57602002820191906000526020600020905b815473ffffffffffffffffffffffffffffffffffffffff168152600190910190602001808311610884575b505050505090505b92915050565b6060600060015467ffffffffffffffff8111156108dc576108dc6149d4565b60405190808252806020026020018201604052801561097b57816020015b6109686040518060e0016040528060008152602001606081526020016000815260200160608152602001600073ffffffffffffffffffffffffffffffffffffffff168152602001600073ffffffffffffffffffffffffffffffffffffffff1681526020016000151581525090565b8152602001906001900390816108fa5790505b50905060005b600154811015610b5157600060058161099b84600161542a565b815260200190815260200160002090506040518060e00160405280826000015481526020018260020180546109cf906153ae565b80601f01602080910402602001604051908101604052809291908181526020018280546109fb906153ae565b8015610a485780601f10610a1d57610100808354040283529160200191610a48565b820191906000526020600020905b815481529060010190602001808311610a2b57829003601f168201915b5050505050815260200182600101548152602001826003018054610a6b906153ae565b80601f0160208091040260200160405190810160405280929190818152602001828054610a97906153ae565b8015610ae45780601f10610ab957610100808354040283529160200191610ae4565b820191906000526020600020905b815481529060010190602001808311610ac757829003601f168201915b5050509183525050600483015473ffffffffffffffffffffffffffffffffffffffff90811660208301526005840154166040820152600783015460ff1615156060909101528351849084908110610b3d57610b3d61543d565b602090810291909101015250600101610981565b50919050565b600060056000610b9c85858080601f016020809104026020016040519081016040528093929190818152602001838380828437600092019190915250612ce192505050565b815260208101919091526040016000206005015473ffffffffffffffffffffffffffffffffffffffff169392505050565b610c3b6040518060e0016040528060008152602001606081526020016000815260200160608152602001600073ffffffffffffffffffffffffffffffffffffffff168152602001600073ffffffffffffffffffffffffffffffffffffffff1681526020016000151581525090565b6000610c7c84848080601f016020809104026020016040519081016040528093929190818152602001838380828437600092019190915250612ce192505050565b6040805160e081018252600083815260056020818152938220805484529185905283526002018054939450909291830191610cb6906153ae565b80601f0160208091040260200160405190810160405280929190818152602001828054610ce2906153ae565b8015610d2f5780601f10610d0457610100808354040283529160200191610d2f565b820191906000526020600020905b815481529060010190602001808311610d1257829003601f168201915b5050505050815260200160056000848152602001908152602001600020600101548152602001600560008481526020019081526020016000206003018054610d76906153ae565b80601f0160208091040260200160405190810160405280929190818152602001828054610da2906153ae565b8015610def5780601f10610dc457610100808354040283529160200191610def565b820191906000526020600020905b815481529060010190602001808311610dd257829003601f168201915b50505091835250506000838152600560208181526040808420600481015473ffffffffffffffffffffffffffffffffffffffff9081168488015281850154169186019190915295909252905260079092015460ff1615156060909201919091529392505050565b60606000610e9984848080601f016020809104026020016040519081016040528093929190818152602001838380828437600092019190915250612ce192505050565b6000818152600560205260408120600901549192509067ffffffffffffffff811115610ec757610ec76149d4565b604051908082528060200260200182016040528015610f3257816020015b610f1f6040518060600160405280600073ffffffffffffffffffffffffffffffffffffffff16815260200160608152602001606081525090565b815260200190600190039081610ee55790505b506000838152600560205260408120600901549192505b818110156110ef576000848152600560205260408120600901805483908110610f7457610f7461543d565b60009182526020909120015473ffffffffffffffffffffffffffffffffffffffff16905080610fa357506110dd565b600060405180606001604052808373ffffffffffffffffffffffffffffffffffffffff1681526020018373ffffffffffffffffffffffffffffffffffffffff166306fdde036040518163ffffffff1660e01b8152600401600060405180830381865afa158015611017573d6000803e3d6000fd5b505050506040513d6000823e601f3d908101601f1916820160405261103f91908101906154b1565b81526020018373ffffffffffffffffffffffffffffffffffffffff16637284e4166040518163ffffffff1660e01b8152600401600060405180830381865afa15801561108f573d6000803e3d6000fd5b505050506040513d6000823e601f3d908101601f191682016040526110b791908101906154b1565b8152509050808584815181106110cf576110cf61543d565b602002602001018190525050505b806110e7816154e6565b915050610f49565b509095945050505050565b600061116f85858080601f01602080910402602001604051908101604052809392919081815260200183838082843760009201919091525050604080516020601f89018190048102820181019092528781529250879150869081908401838280828437600092019190915250612cfb92505050565b95945050505050565b6000600560006111bd86868080601f016020809104026020016040519081016040528093929190818152602001838380828437600092019190915250612ce192505050565b81526020808201929092526040908101600090812073ffffffffffffffffffffffffffffffffffffffff8616825260080190925290205460ff1690509392505050565b83838080601f016020809104026020016040519081016040528093929190818152602001838380828437600092018290525060408051602080820183529281528151808301909252601882527f4d6f646966794368616e6e656c5065726d697373696f6e7300000000000000009282019290925290935091506112869050838383612d4e565b6112d76112c888888080601f016020809104026020016040519081016040528093929190818152602001838380828437600092019190915250612ce192505050565b866112d28761551e565b612e1d565b50505050505050565b60606006600061132585858080601f016020809104026020016040519081016040528093929190818152602001838380828437600092019190915250612ce192505050565b8152602001908152602001600020600101805480602002602001604051908101604052809291908181526020016000905b82821015611424578382906000526020600020906002020160405180604001604052908160008201548152602001600182018054611393906153ae565b80601f01602080910402602001604051908101604052809291908181526020018280546113bf906153ae565b801561140c5780601f106113e15761010080835404028352916020019161140c565b820191906000526020600020905b8154815290600101906020018083116113ef57829003601f168201915b50505050508152505081526020019060010190611356565b50505050905092915050565b600061143a612f91565b60006114458361304d565b600b5490915061146e90829073ffffffffffffffffffffffffffffffffffffffff1660016130ec565b6114c28161147f602086018661552a565b8080601f0160208091040260200160405190810160405280939291908181526020018383808284376000920191909152506114bd92506133f9915050565b6133fd565b5061150e816114d4602086018661552a565b8080601f01602080910402602001604051908101604052809392919081815260200183838082843760009201919091525061346f92505050565b503380827f9d575dd5f8c535bc0f29f0993aa2580a10f030e244e416fbfdc70ddb8e9935f161153d878061552a565b60405161154b9291906155ba565b60405180910390a492915050565b604080518082019091526000815260606020820152600061158e83805160209182012060009081526002909152604090205490565b60008181526007602090815260408083208151808301835281548152600182018054845181870281018701909552808552969750909591948685019491929184015b8282101561178857838290600052602060002090600502016040518060c00160405290816000820154815260200160018201548152602001600282018054611617906153ae565b80601f0160208091040260200160405190810160405280929190818152602001828054611643906153ae565b80156116905780601f1061166557610100808354040283529160200191611690565b820191906000526020600020905b81548152906001019060200180831161167357829003601f168201915b505050505081526020016003820180546116a9906153ae565b80601f01602080910402602001604051908101604052809291908181526020018280546116d5906153ae565b80156117225780601f106116f757610100808354040283529160200191611722565b820191906000526020600020905b81548152906001019060200180831161170557829003601f168201915b50505091835250506004919091015473ffffffffffffffffffffffffffffffffffffffff81166020808401919091527401000000000000000000000000000000000000000090910460ff16151560409092019190915290825260019290920191016115d0565b50505091525090949350505050565b6060600960006117dc86868080601f016020809104026020016040519081016040528093929190818152602001838380828437600092019190915250612ce192505050565b81526020019081526020016000206000838152602001908152602001600020805480602002602001604051908101604052809291908181526020016000905b828210156118db5783829060005260206000200160405180602001604052908160008201805461184a906153ae565b80601f0160208091040260200160405190810160405280929190818152602001828054611876906153ae565b80156118c35780601f10611898576101008083540402835291602001916118c3565b820191906000526020600020905b8154815290600101906020018083116118a657829003601f168201915b5050505050815250508152602001906001019061181b565b5050505090509392505050565b6118f06135e3565b6118fa6000613664565b565b84848080601f01602080910402602001604051908101604052809392919081815260200183838082843760009201919091525050604080516020601f880181900481028201810190925286815292508691508590819084018382808284376000920191909152505060408051808201909152601881527f4d6f646966794368616e6e656c5065726d697373696f6e730000000000000000602082015291506119a79050838383612d4e565b6119e688888080601f0160208091040260200160405190810160405280939291908181526020018383808284376000920191909152506136d992505050565b6000611a5b89898080601f01602080910402602001604051908101604052809392919081815260200183838082843760009201919091525050604080516020601f8d018190048102820181019092528b815292508b91508a9081908401838280828437600092019190915250612cfb92505050565b905080600003611a97576040517f6ddd9da900000000000000000000000000000000000000000000000000000000815260040160405180910390fd5b6000611ad88a8a8080601f016020809104026020016040519081016040528093929190818152602001838380828437600092019190915250612ce192505050565b90506000611b4f8b8b8080601f01602080910402602001604051908101604052809392919081815260200183838082843760009201919091525050604080516020601f8f018190048102820181019092528d815292508d91508c9081908401838280828437600092019190915250612cfb92505050565b60009283526004602081815260408086209386529290529220909101805496151574010000000000000000000000000000000000000000027fffffffffffffffffffffff00ffffffffffffffffffffffffffffffffffffffff90971696909617909555505050505050505050565b83838080601f016020809104026020016040519081016040528093929190818152602001838380828437600092018290525060408051602080820183529281528151808301909252601882527f4d6f646966794368616e6e656c5065726d697373696f6e730000000000000000928201929092529093509150611c439050838383612d4e565b6112d7611c8588888080601f016020809104026020016040519081016040528093929190818152602001838380828437600092019190915250612ce192505050565b86611c8f8761551e565b613785565b82828080601f016020809104026020016040519081016040528093929190818152602001838380828437600092018290525060408051602080820183529281528151808301909252601882527f4d6f646966794368616e6e656c5065726d697373696f6e730000000000000000928201929092529093509150611d1a9050838383612d4e565b611d62611d5c87878080601f016020809104026020016040519081016040528093929190818152602001838380828437600092019190915250612ce192505050565b856137bf565b505050505050565b6000611dab83838080601f016020809104026020016040519081016040528093929190818152602001838380828437600092019190915250612ce192505050565b9392505050565b604080516020810182526060815290517f173c4a630000000000000000000000000000000000000000000000000000000081526004810183905273ffffffffffffffffffffffffffffffffffffffff7f0000000000000000000000000000000000000000000000000000000000000000169063173c4a6390602401600060405180830381865afa158015611e4a573d6000803e3d6000fd5b505050506040513d6000823e601f3d908101601f191682016040526108b7919081019061560d565b88888080601f01602080910402602001604051908101604052809392919081815260200183838082843760009201919091525050604080516020601f8c018190048102820181019092528a815292508a91508990819084018382808284376000920191909152505060408051808201909152601881527f4d6f646966794368616e6e656c5065726d697373696f6e73000000000000000060208201529150611f1d9050838383612d4e565b611f5c8c8c8080601f0160208091040260200160405190810160405280939291908181526020018383808284376000920191909152506136d992505050565b8815611fe657611fe68c8c8080601f016020809104026020016040519081016040528093929190818152602001838380828437600081840152601f19601f820116905080830192505050505050508b8b8080601f016020809104026020016040519081016040528093929190818152602001838380828437600092019190915250613a0b92505050565b611fef88613a5c565b6120758c8c8c8c8c8c8c80806020026020016040519081016040528093929190818152602001838360200280828437600081840152601f19601f820116905080830192505050505050508b8b8080601f016020809104026020016040519081016040528093929190818152602001838380828437600092019190915250613b4592505050565b8773ffffffffffffffffffffffffffffffffffffffff168c8c60405161209c929190615642565b604051908190038120907f9b42a541e0a10f6a80059e1448b92d56a4e71354d43a2ca1fd3701878cb50ae290600090a3505050505050505050505050565b6040805180820190915260008152606060208201526006600061213286868080601f016020809104026020016040519081016040528093929190818152602001838380828437600092019190915250612ce192505050565b815260200190815260200160002060010182815481106121545761215461543d565b906000526020600020906002020160405180604001604052908160008201548152602001600182018054612187906153ae565b80601f01602080910402602001604051908101604052809291908181526020018280546121b3906153ae565b80156122005780601f106121d557610100808354040283529160200191612200565b820191906000526020600020905b8154815290600101906020018083116121e357829003601f168201915b50505050508152505090509392505050565b87878080601f01602080910402602001604051908101604052809392919081815260200183838082843760009201919091525050604080516020601f8b0181900481028201810190925289815292508991508890819084018382808284376000920191909152505060408051808201909152601881527f4d6f646966794368616e6e656c5065726d697373696f6e730000000000000000602082015291506122bd9050838383612d4e565b6122fc8b8b8080601f0160208091040260200160405190810160405280939291908181526020018383808284376000920191909152506136d992505050565b8715612375576123758b8b8080601f01602080910402602001604051908101604052809392919081815260200183838082843760009201919091525050604080516020601f8f018190048102820181019092528d815292508d91508c9081908401838280828437600092019190915250613a0b92505050565b61237e87613a5c565b6124298b8b8080601f01602080910402602001604051908101604052809392919081815260200183838082843760009201919091525050604080516020601f8f018190048102820181019092528d815292508d91508c908190840183828082843760009201919091525050604080516020601f8c018190048102820181019092528a81528d93508c9250908b908b9081908401838280828437600092019190915250613c7992505050565b8673ffffffffffffffffffffffffffffffffffffffff168b8b604051612450929190615642565b604051908190038120907fe78ad18845af93a80fbe8718cacc631fbe1c453b092806818a044440b96ba67790600090a35050505050505050505050565b60008260000151604051806020016040528060008152506040518060400160405280601181526020017f41646452656d6f76654368616e6e656c730000000000000000000000000000008152506124e5838383612d4e565b85516124f0906136d9565b85518051602091820120600090815260029091526040812054906125148289613d8a565b88516040808b0151600b5460008781526005602052929092206006015493945061258993909173ffffffffffffffffffffffffffffffffffffffff1690336040805173ffffffffffffffffffffffffffffffffffffffff9092166020830152015b604051602081830303815290604052613c79565b6000612599838960000151613f3b565b60408901515190915060005b818110156125dd576125d585848c6040015184815181106125c8576125c861543d565b6020026020010151613785565b6001016125a5565b50919998505050505050505050565b600061266d87878080601f01602080910402602001604051908101604052809392919081815260200183838082843760009201919091525050604080516020601f8b018190048102820181019092528981529250899150889081908401838280828437600092019190915250889250612668915087905061551e565b614010565b979650505050505050565b6126806135e3565b600b80547fffffffffffffffffffffffff00000000000000000000000000000000000000001673ffffffffffffffffffffffffffffffffffffffff83169081179091556040517f07b136952c7460e1fc2d593fad96b5b379f28cc13a49857b6a825c5228c1a8d190600090a250565b600084848080601f016020809104026020016040519081016040528093929190818152602001838380828437600092018290525060408051602080820183529281528151808301909252601882527f4d6f646966794368616e6e656c5065726d697373696f6e7300000000000000009282019290925290935091506127779050838383612d4e565b6127f56127b989898080601f016020809104026020016040519081016040528093929190818152602001838380828437600092019190915250612ce192505050565b87878080601f016020809104026020016040519081016040528093929190818152602001838380828437600092019190915250613f3b92505050565b98975050505050505050565b600061280b612f91565b60006128168461304d565b600b5490915061283f90829073ffffffffffffffffffffffffffffffffffffffff1660016130ec565b61285781612850602086018661527a565b60016130ec565b6128688161147f602087018761552a565b5061287a816114d4602087018761552a565b50600061288a6080850185615652565b9150600090506128db836128a160a088018861552a565b8080601f016020809104026020016040519081016040528093929190818152602001838380828437600092019190915250613f3b92505050565b905081156129755760005b828110156129735761296b848360405180602001604052808a806080019061290e9190615652565b8781811061291e5761291e61543d565b9050602002810190612930919061552a565b8080601f0160208091040260200160405190810160405280939291908181526020018383808284376000920191909152505050915250613785565b6001016128e6565b505b612a0c612985602088018861552a565b8080601f01602080910402602001604051908101604052809392919081815260200183838082843760009201829052506040805160208082019092529182529093506129d692508a0190508961527a565b846129e460608b018b61552a565b6129f460408d0160208e0161527a565b8c6040013560405160200161257594939291906156ba565b3380847f9d575dd5f8c535bc0f29f0993aa2580a10f030e244e416fbfdc70ddb8e9935f1612a3a8a8061552a565b604051612a489291906155ba565b60405180910390a45090949350505050565b83838080601f016020809104026020016040519081016040528093929190818152602001838380828437600092018290525060408051602080820183529281528151808301909252601682527f4d6f6469667953706163655065726d697373696f6e7300000000000000000000928201929092529093509150612ae09050838383612d4e565b612ae985613a5c565b6112d7612b2b88888080601f016020809104026020016040519081016040528093929190818152602001838380828437600092019190915250612ce192505050565b86866130ec565b612b3a6135e3565b73ffffffffffffffffffffffffffffffffffffffff8116612be2576040517f08c379a000000000000000000000000000000000000000000000000000000000815260206004820152602660248201527f4f776e61626c653a206e6577206f776e657220697320746865207a65726f206160448201527f646472657373000000000000000000000000000000000000000000000000000060648201526084015b60405180910390fd5b612beb81613664565b50565b81604051806020016040528060008152506040518060400160405280601681526020017f4d6f6469667953706163655065726d697373696f6e7300000000000000000000815250612c40838383612d4e565b6000612c6086805160209182012060009081526002909152604090205490565b905080600003612c9c576040517fbe34080700000000000000000000000000000000000000000000000000000000815260040160405180910390fd5b600090815260056020526040902060070180547fffffffffffffffffffffffffffffffffffffffffffffffffffffffffffffff00169415159490941790935550505050565b805160209182012060009081526002909152604090205490565b600060036000612d1f85805160209182012060009081526002909152604090205490565b815260200190815260200160002060008380519060200120815260200190815260200160002054905092915050565b33301480612dbc575060056000612d7985805160209182012060009081526002909152604090205490565b815260208101919091526040016000206005015473ffffffffffffffffffffffffffffffffffffffff163373ffffffffffffffffffffffffffffffffffffffff16145b80612ddc5750612ddc838333604051806020016040528086815250614010565b15612de657505050565b6040517f3d693ada00000000000000000000000000000000000000000000000000000000815260040160405180910390fd5b505050565b60008381526009602090815260408083208584529091528120805490915b81811015611d6257612ef88460000151848381548110612e5d57612e5d61543d565b906000526020600020016000018054612e75906153ae565b80601f0160208091040260200160405190810160405280929190818152602001828054612ea1906153ae565b8015612eee5780601f10612ec357610100808354040283529160200191612eee565b820191906000526020600020905b815481529060010190602001808311612ed157829003601f168201915b50505050506141ac565b15612f895782612f096001846156f7565b81548110612f1957612f1961543d565b90600052602060002001838281548110612f3557612f3561543d565b600091825260209091200180612f4b8382615750565b5090505082805480612f5f57612f5f615869565b6001900381819060005260206000200160008082016000612f8091906143a1565b50509055611d62565b600101612e3b565b7f000000000000000000000000000000000000000000000000000000000000000073ffffffffffffffffffffffffffffffffffffffff16612ffe576040517f361882e300000000000000000000000000000000000000000000000000000000815260040160405180910390fd5b600b5473ffffffffffffffffffffffffffffffffffffffff166118fa576040517f2ab51add00000000000000000000000000000000000000000000000000000000815260040160405180910390fd5b600180548101908190556040517faa424abb0000000000000000000000000000000000000000000000000000000081526000919073__$a3850c79b56376fa7983472f601544d59e$__9063aa424abb906130b5908690859033906002906005906004016158fc565b60006040518083038186803b1580156130cd57600080fd5b505af41580156130e1573d6000803e3d6000fd5b509295945050505050565b80801561312b5750600083815260056020908152604080832073ffffffffffffffffffffffffffffffffffffffff8616845260080190915290205460ff165b15613162576040517f186abc9b00000000000000000000000000000000000000000000000000000000815260040160405180910390fd5b600083815260056020908152604080832073ffffffffffffffffffffffffffffffffffffffff86168452600801909152902080547fffffffffffffffffffffffffffffffffffffffffffffffffffffffffffffff0016821580159190911790915561322d57600083815260056020908152604082206009018054600181018255908352912001805473ffffffffffffffffffffffffffffffffffffffff84167fffffffffffffffffffffffff0000000000000000000000000000000000000000909116179055505050565b600083815260056020526040812060090154905b818110156133f2576000858152600560205260409020600901805473ffffffffffffffffffffffffffffffffffffffff86169190839081106132855761328561543d565b60009182526020909120015473ffffffffffffffffffffffffffffffffffffffff16036133ea5760008581526005602052604090206009016132c86001846156f7565b815481106132d8576132d861543d565b600091825260208083209091015487835260059091526040909120600901805473ffffffffffffffffffffffffffffffffffffffff90921691839081106133215761332161543d565b600091825260208083209190910180547fffffffffffffffffffffffff00000000000000000000000000000000000000001673ffffffffffffffffffffffffffffffffffffffff949094169390931790925586815260059091526040902060090180548061339157613391615869565b60008281526020902081017fffffffffffffffffffffffffffffffffffffffffffffffffffffffffffffffff90810180547fffffffffffffffffffffffff00000000000000000000000000000000000000001690550190555b600101613241565b5050505050565b3390565b60008061340985614274565b604080516020808201835260008252600b54925193945061346793889373ffffffffffffffffffffffffffffffffffffffff16918691612575918a910173ffffffffffffffffffffffffffffffffffffffff91909116815260200190565b949350505050565b6000806134b1846040518060400160405280600881526020017f45766572796f6e65000000000000000000000000000000000000000000000000815250613f3b565b6040517f173c4a630000000000000000000000000000000000000000000000000000000081527f2b3d061cc9a05a241dd71f0a41723b519b0e5797b2389fcc6f98c31433922d4d600482015290915060009073ffffffffffffffffffffffffffffffffffffffff7f0000000000000000000000000000000000000000000000000000000000000000169063173c4a6390602401600060405180830381865afa158015613561573d6000803e3d6000fd5b505050506040513d6000823e601f3d908101601f19168201604052613589919081019061560d565b9050613596858383613785565b604080516020808201835260008252600b5483516001928101929092526135db9388939273ffffffffffffffffffffffffffffffffffffffff90921691879101612575565b509392505050565b60005473ffffffffffffffffffffffffffffffffffffffff1633146118fa576040517f08c379a000000000000000000000000000000000000000000000000000000000815260206004820181905260248201527f4f776e61626c653a2063616c6c6572206973206e6f7420746865206f776e65726044820152606401612bd9565b6000805473ffffffffffffffffffffffffffffffffffffffff8381167fffffffffffffffffffffffff0000000000000000000000000000000000000000831681178455604051919092169283917f8be0079c531659141344cd1fd0a4f28419497f9722a3daafe3b4186f6b6457e09190a35050565b60006136f982805160209182012060009081526002909152604090205490565b905080600003613735576040517fbe34080700000000000000000000000000000000000000000000000000000000815260040160405180910390fd5b60008181526005602052604090206007015460ff1615613781576040517fbe34080700000000000000000000000000000000000000000000000000000000815260040160405180910390fd5b5050565b600083815260096020908152604080832085845282528220805460018101825590835291208251839291909101908190611d6290826159a3565b6000828152600660205260408120600101805490915b818110156133f2578281815481106137ef576137ef61543d565b9060005260206000209060020201600001548403613a03576000858152600960209081526040808320878452825280832080548251818502810185019093528083529192909190849084015b828210156138fb5783829060005260206000200160405180602001604052908160008201805461386a906153ae565b80601f0160208091040260200160405190810160405280929190818152602001828054613896906153ae565b80156138e35780601f106138b8576101008083540402835291602001916138e3565b820191906000526020600020905b8154815290600101906020018083116138c657829003601f168201915b5050505050815250508152602001906001019061383b565b5050825192935060009150505b8181101561393c5761393488888584815181106139275761392761543d565b6020026020010151612e1d565b600101613908565b50846139496001866156f7565b815481106139595761395961543d565b90600052602060002090600202018584815481106139795761397961543d565b6000918252602090912082546002909202019081556001808201906139a090840182615750565b50905050848054806139b4576139b4615869565b60008281526020812060027fffffffffffffffffffffffffffffffffffffffffffffffffffffffffffffffff90930192830201818155906139f860018301826143a1565b5050905550506133f2565b6001016137d5565b613a14826136d9565b6000613a208383612cfb565b905080600003612e18576040517f6ddd9da900000000000000000000000000000000000000000000000000000000815260040160405180910390fd5b6040517f01ffc9a70000000000000000000000000000000000000000000000000000000081527fa4bfe65900000000000000000000000000000000000000000000000000000000600482015273ffffffffffffffffffffffffffffffffffffffff8216906301ffc9a790602401602060405180830381865afa158015613ae6573d6000803e3d6000fd5b505050506040513d601f19601f82011682018060405250810190613b0a9190615a97565b1515600003612beb576040517fdb24a1e200000000000000000000000000000000000000000000000000000000815260040160405180910390fd5b6000600260008989604051613b5b929190615642565b604080519182900390912082526020808301939093529081016000908120548082526005845282822073ffffffffffffffffffffffffffffffffffffffff89168352600801909352205490915060ff16613be1576040517fc1ef36f300000000000000000000000000000000000000000000000000000000815260040160405180910390fd5b6040517f257f5ea900000000000000000000000000000000000000000000000000000000815273ffffffffffffffffffffffffffffffffffffffff85169063257f5ea990613c3d908b908b908b908b908a908a90600401615ab4565b600060405180830381600087803b158015613c5757600080fd5b505af1158015613c6b573d6000803e3d6000fd5b505050505050505050505050565b84516020808701919091206000908152600282526040808220548083526005845281832073ffffffffffffffffffffffffffffffffffffffff8816845260080190935290205460ff16613cf8576040517fc1ef36f300000000000000000000000000000000000000000000000000000000815260040160405180910390fd5b6040517fc800fec400000000000000000000000000000000000000000000000000000000815273ffffffffffffffffffffffffffffffffffffffff85169063c800fec490613d50908990899088908890600401615b34565b600060405180830381600087803b158015613d6a57600080fd5b505af1158015613d7e573d6000803e3d6000fd5b50505050505050505050565b60008281526007602052604080822080546001019081905590517fca61675700000000000000000000000000000000000000000000000000000000815273__$a3850c79b56376fa7983472f601544d59e$__9063ca61675790613dfc9086908890869033906003906004908101615b73565b60006040518083038186803b158015613e1457600080fd5b505af4158015613e28573d6000803e3d6000fd5b50505060008581526007602090815260408083206004835281842086855283529083206001918201805480840182559085529290932083546005909302019182558281015490820155909150600280820190613e8690840182615750565b50600381810190613e9990840182615750565b506004918201805491909201805473ffffffffffffffffffffffffffffffffffffffff9092167fffffffffffffffffffffffff000000000000000000000000000000000000000083168117825592547fffffffffffffffffffffff000000000000000000000000000000000000000000909216909217740100000000000000000000000000000000000000009182900460ff1615159091021790559392505050565b60008281526006602052604081208054829182613f57836154e6565b90915550600085815260066020908152604080832081518083019092528482528183018881526001918201805480840182559086529390942082516002909402019283559251939450929091820190613fb090826159a3565b505050613fba3390565b73ffffffffffffffffffffffffffffffffffffffff1681857ff2acd80042599c3a4a989c076d6230de719e2710947bd49c55f69372abda1583866040516140019190615c2c565b60405180910390a49392505050565b60008061403186805160209182012060009081526002909152604090205490565b60008181526005602052604081206009015491925090815b8181101561419f5760008481526005602052604081206009018054839081106140745761407461543d565b60009182526020909120015473ffffffffffffffffffffffffffffffffffffffff1690508015806140d85750600085815260056020908152604080832073ffffffffffffffffffffffffffffffffffffffff8516845260080190915290205460ff16155b156140e3575061418d565b6040517fbf77b66300000000000000000000000000000000000000000000000000000000815273ffffffffffffffffffffffffffffffffffffffff82169063bf77b6639061413b908d908d908d908d90600401615c3f565b602060405180830381865afa158015614158573d6000803e3d6000fd5b505050506040513d601f19601f8201168201806040525081019061417c9190615a97565b1561418b57600193505061419f565b505b80614197816154e6565b915050614049565b5090979650505050505050565b81518151600091849184919081146141ca57600093505050506108b7565b60005b81811015614267578281815181106141e7576141e761543d565b602001015160f81c60f81b7effffffffffffffffffffffffffffffffffffffffffffffffffffffffffffff19168482815181106142265761422661543d565b01602001517fff00000000000000000000000000000000000000000000000000000000000000161461425f5760009450505050506108b7565b6001016141cd565b5060019695505050505050565b6000806142b6836040518060400160405280600581526020017f4f776e6572000000000000000000000000000000000000000000000000000000815250613f3b565b905080600560008581526020019081526020016000206006018190555060007f000000000000000000000000000000000000000000000000000000000000000073ffffffffffffffffffffffffffffffffffffffff1663b989e2c56040518163ffffffff1660e01b8152600401600060405180830381865afa158015614340573d6000803e3d6000fd5b505050506040513d6000823e601f3d908101601f191682016040526143689190810190615c9d565b805190915060005b818110156143975761438f86858584815181106125c8576125c861543d565b600101614370565b5091949350505050565b5080546143ad906153ae565b6000825580601f106143bd575050565b601f016020900490600052602060002090810190612beb91905b808211156143eb57600081556001016143d7565b5090565b60008083601f84011261440157600080fd5b50813567ffffffffffffffff81111561441957600080fd5b60208301915083602082850101111561443157600080fd5b9250929050565b6000806000806040858703121561444e57600080fd5b843567ffffffffffffffff8082111561446657600080fd5b614472888389016143ef565b9096509450602087013591508082111561448b57600080fd5b50614498878288016143ef565b95989497509550505050565b60005b838110156144bf5781810151838201526020016144a7565b50506000910152565b600081518084526144e08160208601602086016144a4565b601f01601f19169290920160200192915050565b60208152815160208201526000602083015160c0604084015261451a60e08401826144c8565b9050604084015160608401526060840151601f1984830301608085015261454182826144c8565b91505073ffffffffffffffffffffffffffffffffffffffff60808501511660a084015260a0840151151560c08401528091505092915050565b6000806020838503121561458d57600080fd5b823567ffffffffffffffff8111156145a457600080fd5b6145b0858286016143ef565b90969095509350505050565b6020808252825182820181905260009190848201906040850190845b8181101561460a57835173ffffffffffffffffffffffffffffffffffffffff16835292840192918401916001016145d8565b50909695505050505050565b805182526000602082015160e0602085015261463560e08501826144c8565b9050604083015160408501526060830151848203606086015261465882826144c8565b915050608083015173ffffffffffffffffffffffffffffffffffffffff80821660808701528060a08601511660a0870152505060c0830151151560c08501528091505092915050565b6000602080830181845280855180835260408601915060408160051b870101925083870160005b82811015614714577fffffffffffffffffffffffffffffffffffffffffffffffffffffffffffffffc0888603018452614702858351614616565b945092850192908501906001016146c8565b5092979650505050505050565b602081526000611dab6020830184614616565b60006020808301818452808551808352604092508286019150828160051b87010184880160005b838110156147eb577fffffffffffffffffffffffffffffffffffffffffffffffffffffffffffffffc08984030185528151606073ffffffffffffffffffffffffffffffffffffffff825116855288820151818a8701526147bd828701826144c8565b915050878201519150848103888601526147d781836144c8565b96890196945050509086019060010161475b565b509098975050505050505050565b803573ffffffffffffffffffffffffffffffffffffffff8116811461481d57600080fd5b919050565b60008060006040848603121561483757600080fd5b833567ffffffffffffffff81111561484e57600080fd5b61485a868287016143ef565b909450925061486d9050602085016147f9565b90509250925092565b600060208284031215610b5157600080fd5b6000806000806060858703121561489e57600080fd5b843567ffffffffffffffff808211156148b657600080fd5b6148c2888389016143ef565b90965094506020870135935060408701359150808211156148e257600080fd5b506148ef87828801614876565b91505092959194509250565b80518252600060208201516040602085015261346760408501826144c8565b6000602080830181845280855180835260408601915060408160051b870101925083870160005b82811015614714577fffffffffffffffffffffffffffffffffffffffffffffffffffffffffffffffc088860301845261497b8583516148fb565b94509285019290850190600101614941565b600060408284031215610b5157600080fd5b6000602082840312156149b157600080fd5b813567ffffffffffffffff8111156149c857600080fd5b6134678482850161498d565b7f4e487b7100000000000000000000000000000000000000000000000000000000600052604160045260246000fd5b6040516020810167ffffffffffffffff81118282101715614a2657614a266149d4565b60405290565b6040516060810167ffffffffffffffff81118282101715614a2657614a266149d4565b604051601f8201601f1916810167ffffffffffffffff81118282101715614a7857614a786149d4565b604052919050565b600067ffffffffffffffff821115614a9a57614a9a6149d4565b50601f01601f191660200190565b600082601f830112614ab957600080fd5b8135614acc614ac782614a80565b614a4f565b818152846020838601011115614ae157600080fd5b816020850160208301376000918101602001919091529392505050565b600060208284031215614b1057600080fd5b813567ffffffffffffffff811115614b2757600080fd5b61346784828501614aa8565b6000602080835260608084018551838601528286015160408081880152828251808552608094508489019150848160051b8a0101878501945060005b82811015614c1b577fffffffffffffffffffffffffffffffffffffffffffffffffffffffffffffff808b8303018452855160c0815184528a8201518b850152868201518188860152614bc3828601826144c8565b915050898201518482038b860152614bdb82826144c8565b838b015173ffffffffffffffffffffffffffffffffffffffff16868c015260a0938401511515939095019290925250509488019492880192600101614b6f565b509a9950505050505050505050565b600080600060408486031215614c3f57600080fd5b833567ffffffffffffffff811115614c5657600080fd5b614c62868287016143ef565b909790965060209590950135949350505050565b6000602080830181845280855180835260408601915060408160051b870101925083870160005b82811015614714577fffffffffffffffffffffffffffffffffffffffffffffffffffffffffffffffc0888603018452815151868652614cde878701826144c8565b9550509285019290850190600101614c9d565b8015158114612beb57600080fd5b600080600080600060608688031215614d1757600080fd5b853567ffffffffffffffff80821115614d2f57600080fd5b614d3b89838a016143ef565b90975095506020880135915080821115614d5457600080fd5b50614d61888289016143ef565b9094509250506040860135614d7581614cf1565b809150509295509295909350565b600060208284031215614d9557600080fd5b5035919050565b602081526000825160208084015261346760408401826144c8565b600080600080600080600080600060a08a8c031215614dd557600080fd5b893567ffffffffffffffff80821115614ded57600080fd5b614df98d838e016143ef565b909b50995060208c0135915080821115614e1257600080fd5b614e1e8d838e016143ef565b9099509750879150614e3260408d016147f9565b965060608c0135915080821115614e4857600080fd5b818c0191508c601f830112614e5c57600080fd5b813581811115614e6b57600080fd5b8d60208260051b8501011115614e8057600080fd5b6020830196508095505060808c0135915080821115614e9e57600080fd5b50614eab8c828d016143ef565b915080935050809150509295985092959850929598565b602081526000611dab60208301846148fb565b60008060008060008060008060a0898b031215614ef157600080fd5b883567ffffffffffffffff80821115614f0957600080fd5b614f158c838d016143ef565b909a50985060208b0135915080821115614f2e57600080fd5b614f3a8c838d016143ef565b9098509650869150614f4e60408c016147f9565b955060608b0135945060808b0135915080821115614f6b57600080fd5b50614f788b828c016143ef565b999c989b5096995094979396929594505050565b600067ffffffffffffffff821115614fa657614fa66149d4565b5060051b60200190565b600060208284031215614fc257600080fd5b614fca614a03565b9050813567ffffffffffffffff811115614fe357600080fd5b614fef84828501614aa8565b82525092915050565b60006060828403121561500a57600080fd5b615012614a2c565b9050813567ffffffffffffffff8082111561502c57600080fd5b61503885838601614aa8565b835260209150818401358181111561504f57600080fd5b61505b86828701614aa8565b838501525060408401358181111561507257600080fd5b8401601f8101861361508357600080fd5b8035615091614ac782614f8c565b81815260059190911b820184019084810190888311156150b057600080fd5b8584015b838110156150e8578035868111156150cc5760008081fd5b6150da8b8983890101614fb0565b8452509186019186016150b4565b50604087015250939695505050505050565b6000806040838503121561510d57600080fd5b823567ffffffffffffffff8082111561512557600080fd5b908401906060828703121561513957600080fd5b615141614a2c565b82358281111561515057600080fd5b61515c88828601614aa8565b82525060208301358281111561517157600080fd5b61517d88828601614aa8565b60208301525060408301358281111561519557600080fd5b6151a188828601614aa8565b604083015250935060208501359150808211156151bd57600080fd5b506151ca85828601614ff8565b9150509250929050565b600080600080600080608087890312156151ed57600080fd5b863567ffffffffffffffff8082111561520557600080fd5b6152118a838b016143ef565b9098509650602089013591508082111561522a57600080fd5b6152368a838b016143ef565b909650945084915061524a60408a016147f9565b9350606089013591508082111561526057600080fd5b5061526d89828a01614876565b9150509295509295509295565b60006020828403121561528c57600080fd5b611dab826147f9565b600080604083850312156152a857600080fd5b823567ffffffffffffffff808211156152c057600080fd5b6152cc8683870161498d565b935060208501359150808211156152e257600080fd5b50830160c081860312156152f557600080fd5b809150509250929050565b6000806000806060858703121561531657600080fd5b843567ffffffffffffffff81111561532d57600080fd5b615339878288016143ef565b909550935061534c9050602086016147f9565b9150604085013561535c81614cf1565b939692955090935050565b6000806040838503121561537a57600080fd5b823567ffffffffffffffff81111561539157600080fd5b61539d85828601614aa8565b92505060208301356152f581614cf1565b600181811c908216806153c257607f821691505b602082108103610b51577f4e487b7100000000000000000000000000000000000000000000000000000000600052602260045260246000fd5b7f4e487b7100000000000000000000000000000000000000000000000000000000600052601160045260246000fd5b808201808211156108b7576108b76153fb565b7f4e487b7100000000000000000000000000000000000000000000000000000000600052603260045260246000fd5b600082601f83011261547d57600080fd5b815161548b614ac782614a80565b8181528460208386010111156154a057600080fd5b6134678260208301602087016144a4565b6000602082840312156154c357600080fd5b815167ffffffffffffffff8111156154da57600080fd5b6134678482850161546c565b60007fffffffffffffffffffffffffffffffffffffffffffffffffffffffffffffffff8203615517576155176153fb565b5060010190565b60006108b73683614fb0565b60008083357fffffffffffffffffffffffffffffffffffffffffffffffffffffffffffffffe184360301811261555f57600080fd5b83018035915067ffffffffffffffff82111561557a57600080fd5b60200191503681900382131561443157600080fd5b818352818160208501375060006020828401015260006020601f19601f840116840101905092915050565b60208152600061346760208301848661558f565b6000602082840312156155e057600080fd5b6155e8614a03565b9050815167ffffffffffffffff81111561560157600080fd5b614fef8482850161546c565b60006020828403121561561f57600080fd5b815167ffffffffffffffff81111561563657600080fd5b613467848285016155ce565b8183823760009101908152919050565b60008083357fffffffffffffffffffffffffffffffffffffffffffffffffffffffffffffffe184360301811261568757600080fd5b83018035915067ffffffffffffffff8211156156a257600080fd5b6020019150600581901b360382131561443157600080fd5b6060815260006156ce60608301868861558f565b73ffffffffffffffffffffffffffffffffffffffff949094166020830152506040015292915050565b818103818111156108b7576108b76153fb565b601f821115612e1857600081815260208120601f850160051c810160208610156157315750805b601f850160051c820191505b81811015611d625782815560010161573d565b81810361575b575050565b61576582546153ae565b67ffffffffffffffff81111561577d5761577d6149d4565b6157918161578b84546153ae565b8461570a565b6000601f8211600181146157e357600083156157ad5750848201545b7fffffffffffffffffffffffffffffffffffffffffffffffffffffffffffffffff600385901b1c1916600184901b1784556133f2565b600085815260209020601f19841690600086815260209020845b8381101561581d57828601548255600195860195909101906020016157fd565b508583101561585957818501547fffffffffffffffffffffffffffffffffffffffffffffffffffffffffffffffff600388901b60f8161c191681555b5050505050600190811b01905550565b7f4e487b7100000000000000000000000000000000000000000000000000000000600052603160045260246000fd5b60008083357fffffffffffffffffffffffffffffffffffffffffffffffffffffffffffffffe18436030181126158cd57600080fd5b830160208101925035905067ffffffffffffffff8111156158ed57600080fd5b80360382131561443157600080fd5b60a08152600061590c8788615898565b604060a085015261592160e08501828461558f565b9150506159316020890189615898565b7fffffffffffffffffffffffffffffffffffffffffffffffffffffffffffffff608584030160c086015261596683828461558f565b935050505085602083015273ffffffffffffffffffffffffffffffffffffffff851660408301528360608301528260808301529695505050505050565b815167ffffffffffffffff8111156159bd576159bd6149d4565b6159cb8161578b84546153ae565b602080601f831160018114615a1e57600084156159e85750858301515b7fffffffffffffffffffffffffffffffffffffffffffffffffffffffffffffffff600386901b1c1916600185901b178555611d62565b600085815260208120601f198616915b82811015615a4d57888601518255948401946001909101908401615a2e565b50858210156158595793909601517fffffffffffffffffffffffffffffffffffffffffffffffffffffffffffffffff60f8600387901b161c19169092555050600190811b01905550565b600060208284031215615aa957600080fd5b8151611dab81614cf1565b608081526000615ac860808301888a61558f565b602083820381850152615adc82888a61558f565b8481036040860152865180825282880193509082019060005b81811015615b1157845183529383019391830191600101615af5565b50508481036060860152615b2581876144c8565b9b9a5050505050505050505050565b608081526000615b4760808301876144c8565b8281036020840152615b5981876144c8565b9050846040840152828103606084015261266d81856144c8565b60c0815260008751606060c0840152615b906101208401826144c8565b905060208901517fffffffffffffffffffffffffffffffffffffffffffffffffffffffffffffff40808584030160e0860152615bcc83836144c8565b925060408b01519150808584030161010086015250615beb82826144c8565b6020850199909952505050604081019490945273ffffffffffffffffffffffffffffffffffffffff929092166060840152608083015260a090910152919050565b602081526000611dab60208301846144c8565b608081526000615c5260808301876144c8565b8281036020840152615c6481876144c8565b905073ffffffffffffffffffffffffffffffffffffffff8516604084015282810360608401528351602082526127f560208301826144c8565b60006020808385031215615cb057600080fd5b825167ffffffffffffffff80821115615cc857600080fd5b818501915085601f830112615cdc57600080fd5b8151615cea614ac782614f8c565b81815260059190911b83018401908481019088831115615d0957600080fd5b8585015b83811015615d4157805185811115615d255760008081fd5b615d338b89838a01016155ce565b845250918601918601615d0d565b509897505050505050505056fea2646970667358221220fa0148eaf8312328b811d40ec16545cace97921ea58e77b99bcdc97ae8fe666364736f6c63430008100033",
    "linkReferences": {
      "contracts/zion-governance/src/spaces/libraries/CreationLogic.sol": {
        "CreationLogic": [
          {
            "start": 12721,
            "length": 20
          },
          {
            "start": 16119,
            "length": 20
          }
        ]
      }
    }
  },
  "methodIdentifiers": {
    "addPermissionToRole(string,uint256,(string))": "7d9a0230",
    "addRoleToEntitlementModule(string,string,address,uint256,bytes)": "bbd7358a",
    "createChannel((string,string,string),(string,string,(string)[]))": "bc374841",
    "createRole(string,string)": "d2192dbf",
    "createSpace((string,string))": "50b88cf7",
    "createSpaceWithTokenEntitlement((string,string),(address,address,uint256,string,string[],string))": "e76c6303",
    "getChannelIdByNetworkId(string,string)": "3e66eae3",
    "getChannelInfoByChannelId(string,string)": "0db37ba3",
    "getChannelsBySpaceId(string)": "50c24eef",
    "getEntitlementModulesBySpaceId(string)": "141b6498",
    "getEntitlementsInfoBySpaceId(string)": "3519167c",
    "getPermissionFromMap(bytes32)": "9ea4d532",
    "getPermissionsBySpaceIdByRoleId(string,uint256)": "7074047c",
    "getRoleBySpaceIdByRoleId(string,uint256)": "b3ff31b2",
    "getRolesBySpaceId(string)": "4bf2abb2",
    "getSpaceIdByNetworkId(string)": "9ddd0d6b",
    "getSpaceInfoBySpaceId(string)": "2bb59212",
    "getSpaceOwnerBySpaceId(string)": "2a4bdf25",
    "getSpaces()": "15478ca9",
    "isEntitled(string,string,address,(string))": "bf77b663",
    "isEntitlementModuleWhitelisted(string,address)": "4196d1ff",
    "owner()": "8da5cb5b",
    "removeEntitlement(string,string,address,uint256[],bytes)": "a3a39cb9",
    "removePermissionFromRole(string,uint256,(string))": "4832a4ec",
    "removeRole(string,uint256)": "8b0e905a",
    "renounceOwnership()": "715018a6",
    "setChannelAccess(string,string,bool)": "72a29321",
    "setDefaultEntitlementModule(address)": "ccaf0a2b",
    "setSpaceAccess(string,bool)": "f86caf83",
    "transferOwnership(address)": "f2fde38b",
    "whitelistEntitlementModule(string,address,bool)": "e798ff3f"
  },
  "id": 17
}