{
  "abi": [
    {
      "anonymous": false,
      "inputs": [
        {
          "indexed": true,
          "internalType": "address",
          "name": "callerAddress",
          "type": "address"
        },
        {
          "indexed": false,
          "internalType": "bytes32",
          "name": "transactionId",
          "type": "bytes32"
        },
        {
          "indexed": false,
          "internalType": "address[]",
          "name": "selectedNodes",
          "type": "address[]"
        },
        {
          "indexed": false,
          "internalType": "address",
          "name": "contractAddress",
          "type": "address"
        }
      ],
      "name": "EntitlementCheckRequested",
      "type": "event"
    },
    {
      "anonymous": false,
      "inputs": [
        {
          "indexed": true,
          "internalType": "bytes32",
          "name": "transactionId",
          "type": "bytes32"
        },
        {
          "indexed": false,
          "internalType": "enum IEntitlementCheckerEvents.NodeVoteStatus",
          "name": "result",
          "type": "uint8"
        }
      ],
      "name": "EntitlementCheckResultPosted",
      "type": "event"
    },
    {
      "inputs": [
        {
          "internalType": "bytes32",
          "name": "transactionId",
          "type": "bytes32"
        },
        {
          "internalType": "address[]",
          "name": "selectedNodes",
          "type": "address[]"
        }
      ],
      "name": "emitEntitlementCheckRequested",
      "outputs": [],
      "stateMutability": "nonpayable",
      "type": "function"
    },
    {
      "inputs": [
        {
          "internalType": "uint256",
          "name": "requestedNodeCount",
          "type": "uint256"
        },
        {
          "internalType": "address",
          "name": "requestingContract",
          "type": "address"
        }
      ],
      "name": "getRandomNodes",
      "outputs": [
        {
          "internalType": "address[]",
          "name": "",
          "type": "address[]"
        }
      ],
      "stateMutability": "view",
      "type": "function"
    },
    {
      "inputs": [],
      "name": "nodeCount",
      "outputs": [
        {
          "internalType": "uint256",
          "name": "",
          "type": "uint256"
        }
      ],
      "stateMutability": "view",
      "type": "function"
    },
    {
      "inputs": [
        {
          "internalType": "address",
          "name": "",
          "type": "address"
        }
      ],
      "name": "nodes",
      "outputs": [
        {
          "internalType": "address",
          "name": "",
          "type": "address"
        }
      ],
      "stateMutability": "view",
      "type": "function"
    },
    {
      "inputs": [
        {
          "internalType": "uint256",
          "name": "",
          "type": "uint256"
        }
      ],
      "name": "nodesArray",
      "outputs": [
        {
          "internalType": "address",
          "name": "",
          "type": "address"
        }
      ],
      "stateMutability": "view",
      "type": "function"
    },
    {
      "inputs": [],
      "name": "registerNode",
      "outputs": [
        {
          "internalType": "bool",
          "name": "",
          "type": "bool"
        }
      ],
      "stateMutability": "nonpayable",
      "type": "function"
    },
    {
      "inputs": [],
      "name": "unregisterNode",
      "outputs": [
        {
          "internalType": "bool",
          "name": "",
          "type": "bool"
        }
      ],
      "stateMutability": "nonpayable",
      "type": "function"
    }
  ],
  "bytecode": {
    "object": "0x608060405234801561001057600080fd5b50610c13806100206000396000f3fe608060405234801561001057600080fd5b506004361061007d5760003560e01c80633d385cf51161005b5780633d385cf5146101005780636da49b8314610108578063c4e10a1414610119578063f22f8d2e1461012c57600080fd5b80631680b35c14610082578063189a5a171461009f57806320f36dae146100e0575b600080fd5b61008a610141565b60405190151581526020015b60405180910390f35b6100c86100ad36600461083d565b6000602081905290815260409020546001600160a01b031681565b6040516001600160a01b039091168152602001610096565b6100f36100ee36600461085f565b610212565b60405161009691906108cf565b61008a6103d4565b600154604051908152602001610096565b6100c86101273660046108e2565b6105d9565b61013f61013a366004610942565b610603565b005b3360008181526020819052604081205490916001600160a01b03909116036101b05760405162461bcd60e51b815260206004820152601760248201527f4e6f646520616c7265616479207265676973746572656400000000000000000060448201526064015b60405180910390fd5b5033600081815260208190526040812080546001600160a01b03199081168417909155600180548082018255928190527fb10e2d527612073b26eecdfd717e6a320cf44b4afac2b0732d9fcbe2b7fa0cf6909201805490911690921790915590565b6001546060908311156102675760405162461bcd60e51b815260206004820152601c60248201527f496e73756666696369656e74206e756d626572206f66204e6f6465730000000060448201526064016101a7565b60008367ffffffffffffffff811115610282576102826108fb565b6040519080825280602002602001820160405280156102ab578160200160208202803683370190505b50905060005b8481101561032657600181815481106102cc576102cc6109fb565b9060005260206000200160009054906101000a90046001600160a01b03168282815181106102fc576102fc6109fb565b6001600160a01b03909216602092830291909101909101528061031e81610a27565b9150506102b1565b50835b6001548110156103ca576000610349610343836001610a40565b86610701565b9050858110156103b75760018281548110610366576103666109fb565b9060005260206000200160009054906101000a90046001600160a01b0316838281518110610396576103966109fb565b60200260200101906001600160a01b031690816001600160a01b0316815250505b50806103c281610a27565b915050610329565b5090505b92915050565b3360008181526020819052604081205490916001600160a01b03909116146104345760405162461bcd60e51b8152602060048201526013602482015272139bd91948191bd95cc81b9bdd08195e1a5cdd606a1b60448201526064016101a7565b600080805b60015481101561049857336001600160a01b031660018281548110610460576104606109fb565b6000918252602090912001546001600160a01b0316036104865780925060019150610498565b8061049081610a27565b915050610439565b50806104d75760405162461bcd60e51b815260206004820152600e60248201526d139bd919481b9bdd08199bdd5b9960921b60448201526064016101a7565b600180546104e6908290610a53565b815481106104f6576104f66109fb565b600091825260209091200154600180546001600160a01b039092169184908110610522576105226109fb565b9060005260206000200160006101000a8154816001600160a01b0302191690836001600160a01b03160217905550600180548061056157610561610a66565b60008281526020808220830160001990810180546001600160a01b0319908116909155930190935533808252818452604091829020805490931690925580518082019091526011815270139bd919481d5b9c9959da5cdd195c9959607a1b928101929092526105d0919061076b565b60019250505090565b600181815481106105e957600080fd5b6000918252602090912001546001600160a01b0316905081565b604080518082018252601d81527f656d6974456e7469746c656d656e74436865636b5265717565737465640000006020820152905163c68b378760e01b8152600481018490526106b8919073__$3a0ba01a0709b49916a6decf609cce6249$__9063c68b378790602401600060405180830381865af415801561068a573d6000803e3d6000fd5b505050506040513d6000823e601f3d908101601f191682016040526106b29190810190610aa0565b436107b4565b326001600160a01b03167f58529d9ba9cbe2a11e905b3c701769d5265641ce084d196095a7692839481a4b8383336040516106f593929190610b34565b60405180910390a25050565b6040805144602082015242918101919091526bffffffffffffffffffffffff1932606090811b82168184015283901b166074820152600090819084906088016040516020818303038152906040528051906020012060001c6107639190610b65565b949350505050565b6107b08282604051602401610781929190610bb3565b60408051601f198184030181529190526020810180516001600160e01b031663319af33360e01b179052610800565b5050565b6107fb8383836040516024016107cc93929190610bdd565b60408051601f198184030181529190526020810180516001600160e01b0316635821efa160e01b179052610800565b505050565b80516a636f6e736f6c652e6c6f67602083016000808483855afa5050505050565b80356001600160a01b038116811461083857600080fd5b919050565b60006020828403121561084f57600080fd5b61085882610821565b9392505050565b6000806040838503121561087257600080fd5b8235915061088260208401610821565b90509250929050565b600081518084526020808501945080840160005b838110156108c45781516001600160a01b03168752958201959082019060010161089f565b509495945050505050565b602081526000610858602083018461088b565b6000602082840312156108f457600080fd5b5035919050565b634e487b7160e01b600052604160045260246000fd5b604051601f8201601f1916810167ffffffffffffffff8111828210171561093a5761093a6108fb565b604052919050565b6000806040838503121561095557600080fd5b8235915060208084013567ffffffffffffffff8082111561097557600080fd5b818601915086601f83011261098957600080fd5b81358181111561099b5761099b6108fb565b8060051b91506109ac848301610911565b81815291830184019184810190898411156109c657600080fd5b938501935b838510156109eb576109dc85610821565b825293850193908501906109cb565b8096505050505050509250929050565b634e487b7160e01b600052603260045260246000fd5b634e487b7160e01b600052601160045260246000fd5b600060018201610a3957610a39610a11565b5060010190565b808201808211156103ce576103ce610a11565b818103818111156103ce576103ce610a11565b634e487b7160e01b600052603160045260246000fd5b60005b83811015610a97578181015183820152602001610a7f565b50506000910152565b600060208284031215610ab257600080fd5b815167ffffffffffffffff80821115610aca57600080fd5b818401915084601f830112610ade57600080fd5b815181811115610af057610af06108fb565b610b03601f8201601f1916602001610911565b9150808252856020828501011115610b1a57600080fd5b610b2b816020840160208601610a7c565b50949350505050565b838152606060208201526000610b4d606083018561088b565b905060018060a01b0383166040830152949350505050565b600082610b8257634e487b7160e01b600052601260045260246000fd5b500690565b60008151808452610b9f816020860160208601610a7c565b601f01601f19169290920160200192915050565b604081526000610bc66040830185610b87565b905060018060a01b03831660208301529392505050565b606081526000610bf06060830186610b87565b8281036020840152610c028186610b87565b91505082604083015294935050505056",
    "linkReferences": {
      "contracts/src/utils/Bytes32ToHexString.sol": {
        "Bytes32ToHexString": [
          {
            "start": 1648,
            "length": 20
          }
        ]
      }
    }
  },
  "methodIdentifiers": {
    "emitEntitlementCheckRequested(bytes32,address[])": "f22f8d2e",
    "getRandomNodes(uint256,address)": "20f36dae",
    "nodeCount()": "6da49b83",
    "nodes(address)": "189a5a17",
    "nodesArray(uint256)": "c4e10a14",
    "registerNode()": "1680b35c",
    "unregisterNode()": "3d385cf5"
  },
  "id": 26
}