{
  "abi": [
    {
      "inputs": [
        {
          "internalType": "string",
          "name": "_greeting",
          "type": "string"
        }
      ],
      "stateMutability": "nonpayable",
      "type": "constructor"
    },
    {
      "inputs": [],
      "name": "getCount",
      "outputs": [
        {
          "internalType": "uint256",
          "name": "",
          "type": "uint256"
        }
      ],
      "stateMutability": "view",
      "type": "function"
    },
    {
      "inputs": [],
      "name": "greet",
      "outputs": [
        {
          "internalType": "string",
          "name": "",
          "type": "string"
        }
      ],
      "stateMutability": "view",
      "type": "function"
    },
    {
      "inputs": [
        {
          "internalType": "uint256",
          "name": "_count",
          "type": "uint256"
        }
      ],
      "name": "setCount",
      "outputs": [],
      "stateMutability": "nonpayable",
      "type": "function"
    },
    {
      "inputs": [
        {
          "internalType": "string",
          "name": "_greeting",
          "type": "string"
        }
      ],
      "name": "setGreeting",
      "outputs": [],
      "stateMutability": "nonpayable",
      "type": "function"
    }
  ],
  "bytecode": {
    "object": "0x60806040523480156200001157600080fd5b50604051620009d8380380620009d8833981016040819052620000349162000135565b62000064604051806060016040528060228152602001620009b660229139826200007a60201b620001f31760201c565b60006200007282826200027c565b5050620003a8565b620000c782826040516024016200009392919062000376565b60408051601f198184030181529190526020810180516001600160e01b03908116634b5c427760e01b17909152620000cb16565b5050565b80516a636f6e736f6c652e6c6f67602083016000808483855afa5050505050565b634e487b7160e01b600052604160045260246000fd5b60005b838110156200011f57818101518382015260200162000105565b838111156200012f576000848401525b50505050565b6000602082840312156200014857600080fd5b81516001600160401b03808211156200016057600080fd5b818401915084601f8301126200017557600080fd5b8151818111156200018a576200018a620000ec565b604051601f8201601f19908116603f01168101908382118183101715620001b557620001b5620000ec565b81604052828152876020848701011115620001cf57600080fd5b620001e283602083016020880162000102565b979650505050505050565b600181811c908216806200020257607f821691505b6020821081036200022357634e487b7160e01b600052602260045260246000fd5b50919050565b601f8211156200027757600081815260208120601f850160051c81016020861015620002525750805b601f850160051c820191505b8181101562000273578281556001016200025e565b5050505b505050565b81516001600160401b03811115620002985762000298620000ec565b620002b081620002a98454620001ed565b8462000229565b602080601f831160018114620002e85760008415620002cf5750858301515b600019600386901b1c1916600185901b17855562000273565b600085815260208120601f198616915b828110156200031957888601518255948401946001909101908401620002f8565b5085821015620003385787850151600019600388901b60f8161c191681555b5050505050600190811b01905550565b600081518084526200036281602086016020860162000102565b601f01601f19169290920160200192915050565b6040815260006200038b604083018562000348565b82810360208401526200039f818562000348565b95945050505050565b6105fe80620003b86000396000f3fe608060405234801561001057600080fd5b506004361061004c5760003560e01c8063a413686214610051578063a87d942c14610066578063cfae32171461007c578063d14e62b814610091575b600080fd5b61006461005f3660046102bb565b6100a4565b005b6001546040519081526020015b60405180910390f35b610084610161565b60405161007391906103b9565b61006461009f3660046103d3565b600155565b6101516040518060600160405280602381526020016105a660239139600080546100cd906103ec565b80601f01602080910402602001604051908101604052809291908181526020018280546100f9906103ec565b80156101465780601f1061011b57610100808354040283529160200191610146565b820191906000526020600020905b81548152906001019060200180831161012957829003601f168201915b505050505083610238565b600061015d8282610474565b5050565b606060008054610170906103ec565b80601f016020809104026020016040519081016040528092919081815260200182805461019c906103ec565b80156101e95780601f106101be576101008083540402835291602001916101e9565b820191906000526020600020905b8154815290600101906020018083116101cc57829003601f168201915b5050505050905090565b61015d8282604051602401610209929190610534565b60408051601f198184030181529190526020810180516001600160e01b0316634b5c427760e01b179052610284565b61027f83838360405160240161025093929190610562565b60408051601f198184030181529190526020810180516001600160e01b0316632ced7cef60e01b179052610284565b505050565b80516a636f6e736f6c652e6c6f67602083016000808483855afa5050505050565b634e487b7160e01b600052604160045260246000fd5b6000602082840312156102cd57600080fd5b813567ffffffffffffffff808211156102e557600080fd5b818401915084601f8301126102f957600080fd5b81358181111561030b5761030b6102a5565b604051601f8201601f19908116603f01168101908382118183101715610333576103336102a5565b8160405282815287602084870101111561034c57600080fd5b826020860160208301376000928101602001929092525095945050505050565b6000815180845260005b8181101561039257602081850181015186830182015201610376565b818111156103a4576000602083870101525b50601f01601f19169290920160200192915050565b6020815260006103cc602083018461036c565b9392505050565b6000602082840312156103e557600080fd5b5035919050565b600181811c9082168061040057607f821691505b60208210810361042057634e487b7160e01b600052602260045260246000fd5b50919050565b601f82111561027f57600081815260208120601f850160051c8101602086101561044d5750805b601f850160051c820191505b8181101561046c57828155600101610459565b505050505050565b815167ffffffffffffffff81111561048e5761048e6102a5565b6104a28161049c84546103ec565b84610426565b602080601f8311600181146104d757600084156104bf5750858301515b600019600386901b1c1916600185901b17855561046c565b600085815260208120601f198616915b82811015610506578886015182559484019460019091019084016104e7565b50858210156105245787850151600019600388901b60f8161c191681555b5050505050600190811b01905550565b604081526000610547604083018561036c565b8281036020840152610559818561036c565b95945050505050565b606081526000610575606083018661036c565b8281036020840152610587818661036c565b9050828103604084015261059b818561036c565b969550505050505056fe4368616e67696e67206772656574696e672066726f6d202725732720746f2027257327a26469706673582212202eaba591b705492532b6b49612008bfa7f1091d4b2870e7c05d5c72d0a0238d264736f6c634300080f00334465706c6f79696e67206120477265657465722077697468206772656574696e673a",
    "linkReferences": {}
  },
  "methodIdentifiers": {
    "getCount()": "a87d942c",
    "greet()": "cfae3217",
    "setCount(uint256)": "d14e62b8",
    "setGreeting(string)": "a4136862"
  },
  "id": 4
}