{
  "abi": [
    {
      "inputs": [],
      "name": "ApprovalCallerNotOwnerNorApproved",
      "type": "error"
    },
    {
      "inputs": [],
      "name": "ApprovalQueryForNonexistentToken",
      "type": "error"
    },
    {
      "inputs": [],
      "name": "BalanceQueryForZeroAddress",
      "type": "error"
    },
    {
      "inputs": [],
      "name": "ERC5643__DurationZero",
      "type": "error"
    },
    {
      "inputs": [
        {
          "internalType": "uint256",
          "name": "tokenId",
          "type": "uint256"
        }
      ],
      "name": "ERC5643__InvalidTokenId",
      "type": "error"
    },
    {
      "inputs": [],
      "name": "ERC5643__NotApprovedOrOwner",
      "type": "error"
    },
    {
      "inputs": [
        {
          "internalType": "uint256",
          "name": "tokenId",
          "type": "uint256"
        }
      ],
      "name": "ERC5643__SubscriptionNotRenewable",
      "type": "error"
    },
    {
      "inputs": [],
      "name": "Entitlement__InvalidValue",
      "type": "error"
    },
    {
      "inputs": [],
      "name": "Entitlement__NotAllowed",
      "type": "error"
    },
    {
      "inputs": [],
      "name": "Entitlement__ValueAlreadyExists",
      "type": "error"
    },
    {
      "inputs": [],
      "name": "Initializable_InInitializingState",
      "type": "error"
    },
    {
      "inputs": [],
      "name": "Initializable_NotInInitializingState",
      "type": "error"
    },
    {
      "inputs": [],
      "name": "Introspection_AlreadySupported",
      "type": "error"
    },
    {
      "inputs": [],
      "name": "Introspection_NotSupported",
      "type": "error"
    },
    {
      "inputs": [],
      "name": "Membership__AlreadyMember",
      "type": "error"
    },
    {
      "inputs": [],
      "name": "Membership__InsufficientPayment",
      "type": "error"
    },
    {
      "inputs": [],
      "name": "Membership__InvalidAddress",
      "type": "error"
    },
    {
      "inputs": [],
      "name": "Membership__InvalidCurrency",
      "type": "error"
    },
    {
      "inputs": [],
      "name": "Membership__InvalidFeeRecipient",
      "type": "error"
    },
    {
      "inputs": [],
      "name": "Membership__InvalidLimit",
      "type": "error"
    },
    {
      "inputs": [],
      "name": "Membership__InvalidPrice",
      "type": "error"
    },
    {
      "inputs": [],
      "name": "Membership__LimitReached",
      "type": "error"
    },
    {
      "inputs": [],
      "name": "Membership__PriceTooLow",
      "type": "error"
    },
    {
      "inputs": [],
      "name": "MintERC2309QuantityExceedsLimit",
      "type": "error"
    },
    {
      "inputs": [],
      "name": "MintToZeroAddress",
      "type": "error"
    },
    {
      "inputs": [],
      "name": "MintZeroQuantity",
      "type": "error"
    },
    {
      "inputs": [
        {
          "internalType": "address",
          "name": "account",
          "type": "address"
        }
      ],
      "name": "Ownable__NotOwner",
      "type": "error"
    },
    {
      "inputs": [],
      "name": "Ownable__ZeroAddress",
      "type": "error"
    },
    {
      "inputs": [],
      "name": "OwnerQueryForNonexistentToken",
      "type": "error"
    },
    {
      "inputs": [],
      "name": "OwnershipNotInitializedForExtraData",
      "type": "error"
    },
    {
      "inputs": [],
      "name": "Pausable__NotPaused",
      "type": "error"
    },
    {
      "inputs": [],
      "name": "Pausable__Paused",
      "type": "error"
    },
    {
      "inputs": [],
      "name": "ReentrancyGuard__ReentrantCall",
      "type": "error"
    },
    {
      "inputs": [],
      "name": "TransferCallerNotOwnerNorApproved",
      "type": "error"
    },
    {
      "inputs": [],
      "name": "TransferFromIncorrectOwner",
      "type": "error"
    },
    {
      "inputs": [],
      "name": "TransferToNonERC721ReceiverImplementer",
      "type": "error"
    },
    {
      "inputs": [],
      "name": "TransferToZeroAddress",
      "type": "error"
    },
    {
      "inputs": [],
      "name": "URIQueryForNonexistentToken",
      "type": "error"
    },
    {
      "anonymous": false,
      "inputs": [
        {
          "indexed": true,
          "internalType": "address",
          "name": "owner",
          "type": "address"
        },
        {
          "indexed": true,
          "internalType": "address",
          "name": "approved",
          "type": "address"
        },
        {
          "indexed": true,
          "internalType": "uint256",
          "name": "tokenId",
          "type": "uint256"
        }
      ],
      "name": "Approval",
      "type": "event"
    },
    {
      "anonymous": false,
      "inputs": [
        {
          "indexed": true,
          "internalType": "address",
          "name": "owner",
          "type": "address"
        },
        {
          "indexed": true,
          "internalType": "address",
          "name": "operator",
          "type": "address"
        },
        {
          "indexed": false,
          "internalType": "bool",
          "name": "approved",
          "type": "bool"
        }
      ],
      "name": "ApprovalForAll",
      "type": "event"
    },
    {
      "anonymous": false,
      "inputs": [
        {
          "indexed": true,
          "internalType": "uint256",
          "name": "fromTokenId",
          "type": "uint256"
        },
        {
          "indexed": false,
          "internalType": "uint256",
          "name": "toTokenId",
          "type": "uint256"
        },
        {
          "indexed": true,
          "internalType": "address",
          "name": "from",
          "type": "address"
        },
        {
          "indexed": true,
          "internalType": "address",
          "name": "to",
          "type": "address"
        }
      ],
      "name": "ConsecutiveTransfer",
      "type": "event"
    },
    {
      "anonymous": false,
      "inputs": [
        {
          "indexed": false,
          "internalType": "uint32",
          "name": "version",
          "type": "uint32"
        }
      ],
      "name": "Initialized",
      "type": "event"
    },
    {
      "anonymous": false,
      "inputs": [
        {
          "indexed": true,
          "internalType": "bytes4",
          "name": "interfaceId",
          "type": "bytes4"
        }
      ],
      "name": "InterfaceAdded",
      "type": "event"
    },
    {
      "anonymous": false,
      "inputs": [
        {
          "indexed": true,
          "internalType": "bytes4",
          "name": "interfaceId",
          "type": "bytes4"
        }
      ],
      "name": "InterfaceRemoved",
      "type": "event"
    },
    {
      "anonymous": false,
      "inputs": [
        {
          "indexed": true,
          "internalType": "address",
          "name": "currency",
          "type": "address"
        }
      ],
      "name": "MembershipCurrencyUpdated",
      "type": "event"
    },
    {
      "anonymous": false,
      "inputs": [
        {
          "indexed": true,
          "internalType": "address",
          "name": "recipient",
          "type": "address"
        }
      ],
      "name": "MembershipFeeRecipientUpdated",
      "type": "event"
    },
    {
      "anonymous": false,
      "inputs": [
        {
          "indexed": true,
          "internalType": "uint256",
          "name": "limit",
          "type": "uint256"
        }
      ],
      "name": "MembershipLimitUpdated",
      "type": "event"
    },
    {
      "anonymous": false,
      "inputs": [
        {
          "indexed": true,
          "internalType": "uint256",
          "name": "price",
          "type": "uint256"
        }
      ],
      "name": "MembershipPriceUpdated",
      "type": "event"
    },
    {
      "anonymous": false,
      "inputs": [
        {
          "indexed": true,
          "internalType": "address",
          "name": "previousOwner",
          "type": "address"
        },
        {
          "indexed": true,
          "internalType": "address",
          "name": "newOwner",
          "type": "address"
        }
      ],
      "name": "OwnershipTransferred",
      "type": "event"
    },
    {
      "anonymous": false,
      "inputs": [
        {
          "indexed": false,
          "internalType": "address",
          "name": "account",
          "type": "address"
        }
      ],
      "name": "Paused",
      "type": "event"
    },
    {
      "anonymous": false,
      "inputs": [
        {
          "indexed": true,
          "internalType": "uint256",
          "name": "tokenId",
          "type": "uint256"
        },
        {
          "indexed": false,
          "internalType": "uint64",
          "name": "expiration",
          "type": "uint64"
        }
      ],
      "name": "SubscriptionUpdate",
      "type": "event"
    },
    {
      "anonymous": false,
      "inputs": [
        {
          "indexed": true,
          "internalType": "address",
          "name": "from",
          "type": "address"
        },
        {
          "indexed": true,
          "internalType": "address",
          "name": "to",
          "type": "address"
        },
        {
          "indexed": true,
          "internalType": "uint256",
          "name": "tokenId",
          "type": "uint256"
        }
      ],
      "name": "Transfer",
      "type": "event"
    },
    {
      "anonymous": false,
      "inputs": [
        {
          "indexed": false,
          "internalType": "address",
          "name": "account",
          "type": "address"
        }
      ],
      "name": "Unpaused",
      "type": "event"
    },
    {
      "inputs": [
        {
          "internalType": "string",
          "name": "name_",
          "type": "string"
        },
        {
          "internalType": "string",
          "name": "symbol_",
          "type": "string"
        }
      ],
      "name": "__ERC721A_init",
      "outputs": [],
      "stateMutability": "nonpayable",
      "type": "function"
    },
    {
      "inputs": [
        {
          "components": [
            {
              "internalType": "uint256",
              "name": "membershipPrice",
              "type": "uint256"
            },
            {
              "internalType": "uint256",
              "name": "membershipLimit",
              "type": "uint256"
            },
            {
              "internalType": "address",
              "name": "membershipCurrency",
              "type": "address"
            },
            {
              "internalType": "address",
              "name": "membershipFeeRecipient",
              "type": "address"
            },
            {
              "internalType": "address",
              "name": "townFactory",
              "type": "address"
            },
            {
              "internalType": "address",
              "name": "forwarder",
              "type": "address"
            },
            {
              "internalType": "string",
              "name": "name",
              "type": "string"
            },
            {
              "internalType": "string",
              "name": "symbol",
              "type": "string"
            }
          ],
          "internalType": "struct IMembershipBase.MembershipInfo",
          "name": "info",
          "type": "tuple"
        }
      ],
      "name": "__Membership_init",
      "outputs": [],
      "stateMutability": "nonpayable",
      "type": "function"
    },
    {
      "inputs": [],
      "name": "_getMembershipCurrency",
      "outputs": [
        {
          "internalType": "address",
          "name": "",
          "type": "address"
        }
      ],
      "stateMutability": "view",
      "type": "function"
    },
    {
      "inputs": [],
      "name": "_getMembershipFeeRecipient",
      "outputs": [
        {
          "internalType": "address",
          "name": "",
          "type": "address"
        }
      ],
      "stateMutability": "view",
      "type": "function"
    },
    {
      "inputs": [],
      "name": "_getMembershipLimit",
      "outputs": [
        {
          "internalType": "uint256",
          "name": "",
          "type": "uint256"
        }
      ],
      "stateMutability": "view",
      "type": "function"
    },
    {
      "inputs": [],
      "name": "_getMembershipPrice",
      "outputs": [
        {
          "internalType": "uint256",
          "name": "",
          "type": "uint256"
        }
      ],
      "stateMutability": "view",
      "type": "function"
    },
    {
      "inputs": [],
      "name": "_getTownFactory",
      "outputs": [
        {
          "internalType": "address",
          "name": "",
          "type": "address"
        }
      ],
      "stateMutability": "view",
      "type": "function"
    },
    {
      "inputs": [
        {
          "internalType": "address",
          "name": "newCurrency",
          "type": "address"
        }
      ],
      "name": "_setMembershipCurrency",
      "outputs": [],
      "stateMutability": "nonpayable",
      "type": "function"
    },
    {
      "inputs": [
        {
          "internalType": "address",
          "name": "newRecipient",
          "type": "address"
        }
      ],
      "name": "_setMembershipFeeRecipient",
      "outputs": [],
      "stateMutability": "nonpayable",
      "type": "function"
    },
    {
      "inputs": [
        {
          "internalType": "uint256",
          "name": "newLimit",
          "type": "uint256"
        }
      ],
      "name": "_setMembershipLimit",
      "outputs": [],
      "stateMutability": "nonpayable",
      "type": "function"
    },
    {
      "inputs": [
        {
          "internalType": "uint256",
          "name": "newPrice",
          "type": "uint256"
        }
      ],
      "name": "_setMembershipPrice",
      "outputs": [],
      "stateMutability": "nonpayable",
      "type": "function"
    },
    {
      "inputs": [
        {
          "internalType": "address",
          "name": "to",
          "type": "address"
        },
        {
          "internalType": "uint256",
          "name": "tokenId",
          "type": "uint256"
        }
      ],
      "name": "approve",
      "outputs": [],
      "stateMutability": "payable",
      "type": "function"
    },
    {
      "inputs": [
        {
          "internalType": "address",
          "name": "account",
          "type": "address"
        }
      ],
      "name": "balanceOf",
      "outputs": [
        {
          "internalType": "uint256",
          "name": "",
          "type": "uint256"
        }
      ],
      "stateMutability": "view",
      "type": "function"
    },
    {
      "inputs": [
        {
          "internalType": "uint256",
          "name": "tokenId",
          "type": "uint256"
        }
      ],
      "name": "cancelMembership",
      "outputs": [],
      "stateMutability": "nonpayable",
      "type": "function"
    },
    {
      "inputs": [
        {
          "internalType": "uint256",
          "name": "tokenId",
          "type": "uint256"
        }
      ],
      "name": "expiresAt",
      "outputs": [
        {
          "internalType": "uint256",
          "name": "",
          "type": "uint256"
        }
      ],
      "stateMutability": "view",
      "type": "function"
    },
    {
      "inputs": [
        {
          "internalType": "uint256",
          "name": "tokenId",
          "type": "uint256"
        }
      ],
      "name": "getApproved",
      "outputs": [
        {
          "internalType": "address",
          "name": "",
          "type": "address"
        }
      ],
      "stateMutability": "view",
      "type": "function"
    },
    {
      "inputs": [],
      "name": "getMembershipCurrency",
      "outputs": [
        {
          "internalType": "address",
          "name": "",
          "type": "address"
        }
      ],
      "stateMutability": "view",
      "type": "function"
    },
    {
      "inputs": [],
      "name": "getMembershipFeeRecipient",
      "outputs": [
        {
          "internalType": "address",
          "name": "",
          "type": "address"
        }
      ],
      "stateMutability": "view",
      "type": "function"
    },
    {
      "inputs": [],
      "name": "getMembershipLimit",
      "outputs": [
        {
          "internalType": "uint256",
          "name": "",
          "type": "uint256"
        }
      ],
      "stateMutability": "view",
      "type": "function"
    },
    {
      "inputs": [],
      "name": "getMembershipPrice",
      "outputs": [
        {
          "internalType": "uint256",
          "name": "",
          "type": "uint256"
        }
      ],
      "stateMutability": "view",
      "type": "function"
    },
    {
      "inputs": [],
      "name": "getTownFactory",
      "outputs": [
        {
          "internalType": "address",
          "name": "",
          "type": "address"
        }
      ],
      "stateMutability": "view",
      "type": "function"
    },
    {
      "inputs": [
        {
          "internalType": "address",
          "name": "owner",
          "type": "address"
        },
        {
          "internalType": "address",
          "name": "operator",
          "type": "address"
        }
      ],
      "name": "isApprovedForAll",
      "outputs": [
        {
          "internalType": "bool",
          "name": "",
          "type": "bool"
        }
      ],
      "stateMutability": "view",
      "type": "function"
    },
    {
      "inputs": [
        {
          "internalType": "address",
          "name": "forwarder",
          "type": "address"
        }
      ],
      "name": "isTrustedForwarder",
      "outputs": [
        {
          "internalType": "bool",
          "name": "",
          "type": "bool"
        }
      ],
      "stateMutability": "view",
      "type": "function"
    },
    {
      "inputs": [
        {
          "internalType": "address",
          "name": "receiver",
          "type": "address"
        }
      ],
      "name": "joinTown",
      "outputs": [
        {
          "internalType": "uint256",
          "name": "tokenId",
          "type": "uint256"
        }
      ],
      "stateMutability": "payable",
      "type": "function"
    },
    {
      "inputs": [],
      "name": "name",
      "outputs": [
        {
          "internalType": "string",
          "name": "",
          "type": "string"
        }
      ],
      "stateMutability": "view",
      "type": "function"
    },
    {
      "inputs": [
        {
          "internalType": "uint256",
          "name": "tokenId",
          "type": "uint256"
        }
      ],
      "name": "ownerOf",
      "outputs": [
        {
          "internalType": "address",
          "name": "",
          "type": "address"
        }
      ],
      "stateMutability": "view",
      "type": "function"
    },
    {
      "inputs": [
        {
          "internalType": "address",
          "name": "receiver",
          "type": "address"
        }
      ],
      "name": "renewMembership",
      "outputs": [],
      "stateMutability": "payable",
      "type": "function"
    },
    {
      "inputs": [
        {
          "internalType": "address",
          "name": "from",
          "type": "address"
        },
        {
          "internalType": "address",
          "name": "to",
          "type": "address"
        },
        {
          "internalType": "uint256",
          "name": "tokenId",
          "type": "uint256"
        }
      ],
      "name": "safeTransferFrom",
      "outputs": [],
      "stateMutability": "payable",
      "type": "function"
    },
    {
      "inputs": [
        {
          "internalType": "address",
          "name": "from",
          "type": "address"
        },
        {
          "internalType": "address",
          "name": "to",
          "type": "address"
        },
        {
          "internalType": "uint256",
          "name": "tokenId",
          "type": "uint256"
        },
        {
          "internalType": "bytes",
          "name": "_data",
          "type": "bytes"
        }
      ],
      "name": "safeTransferFrom",
      "outputs": [],
      "stateMutability": "payable",
      "type": "function"
    },
    {
      "inputs": [
        {
          "internalType": "address",
          "name": "operator",
          "type": "address"
        },
        {
          "internalType": "bool",
          "name": "approved",
          "type": "bool"
        }
      ],
      "name": "setApprovalForAll",
      "outputs": [],
      "stateMutability": "nonpayable",
      "type": "function"
    },
    {
      "inputs": [
        {
          "internalType": "address",
          "name": "newCurrency",
          "type": "address"
        }
      ],
      "name": "setMembershipCurrency",
      "outputs": [],
      "stateMutability": "nonpayable",
      "type": "function"
    },
    {
      "inputs": [
        {
          "internalType": "address",
          "name": "newRecipient",
          "type": "address"
        }
      ],
      "name": "setMembershipFeeRecipient",
      "outputs": [],
      "stateMutability": "nonpayable",
      "type": "function"
    },
    {
      "inputs": [
        {
          "internalType": "uint256",
          "name": "newLimit",
          "type": "uint256"
        }
      ],
      "name": "setMembershipLimit",
      "outputs": [],
      "stateMutability": "nonpayable",
      "type": "function"
    },
    {
      "inputs": [
        {
          "internalType": "uint256",
          "name": "newPrice",
          "type": "uint256"
        }
      ],
      "name": "setMembershipPrice",
      "outputs": [],
      "stateMutability": "nonpayable",
      "type": "function"
    },
    {
      "inputs": [],
      "name": "symbol",
      "outputs": [
        {
          "internalType": "string",
          "name": "",
          "type": "string"
        }
      ],
      "stateMutability": "view",
      "type": "function"
    },
    {
      "inputs": [
        {
          "internalType": "uint256",
          "name": "tokenId",
          "type": "uint256"
        }
      ],
      "name": "tokenURI",
      "outputs": [
        {
          "internalType": "string",
          "name": "",
          "type": "string"
        }
      ],
      "stateMutability": "view",
      "type": "function"
    },
    {
      "inputs": [],
      "name": "totalSupply",
      "outputs": [
        {
          "internalType": "uint256",
          "name": "",
          "type": "uint256"
        }
      ],
      "stateMutability": "view",
      "type": "function"
    },
    {
      "inputs": [
        {
          "internalType": "address",
          "name": "from",
          "type": "address"
        },
        {
          "internalType": "address",
          "name": "to",
          "type": "address"
        },
        {
          "internalType": "uint256",
          "name": "tokenId",
          "type": "uint256"
        }
      ],
      "name": "transferFrom",
      "outputs": [],
      "stateMutability": "payable",
      "type": "function"
    }
  ],
  "bytecode": {
    "object": "0x60806040523480156200001157600080fd5b506200001c62000022565b620000ca565b7f2d0d21306acfe8e9bb163a4573e95aff6cef95dc1102c6a16d5f19eac08cc4de8054640100000000900460ff16156200006f576040516366008a2d60e01b815260040160405180910390fd5b805463ffffffff9081161015620000c757805463ffffffff191663ffffffff90811782556040519081527fe9c9b456cb2994b80aeef036cf59d26e9617df80f816a6ee5a5b4166e07e2f5c9060200160405180910390a15b50565b61341e80620000da6000396000f3fe6080604052600436106102255760003560e01c80636340d0961161012357806395d600c8116100ab578063b88d4fde1161006f578063b88d4fde14610634578063bf3bc87814610647578063c87b56dd1461065c578063d2f01f191461067c578063e985e9c51461069c57600080fd5b806395d600c8146105aa57806395d89b41146105bf57806397fb7c1e146105d4578063a22cb465146105f4578063b83073761461061457600080fd5b80636e43d05d116100f25780636e43d05d146104ff578063702515631461051f57806370a082311461054a5780637d0567c41461056a57806389def3201461058a57600080fd5b80636340d096146104955780636352211e146104aa578063657e45e8146104ca57806369d5f38a146104df57600080fd5b806318160ddd116101b157806342842e0e1161017557806342842e0e146103f4578063572b6c05146104075780635b312fce1461043757806361a9c7df14610462578063624520061461047557600080fd5b806318160ddd1461034d57806318e5da65146103625780631b3972f0146103825780631d214b4d146103a457806323b872dd146103e157600080fd5b80630c3a01b1116101f85780630c3a01b1146102c25780631278076a146102e257806316a344b4146103055780631766bb7b1461031857806317c957091461032d57600080fd5b806302b24da51461022a57806306fdde031461024c578063081812fc14610277578063095ea7b3146102af575b600080fd5b34801561023657600080fd5b5061024a610245366004612b75565b6106bc565b005b34801561025857600080fd5b50610261610793565b60405161026e9190612bde565b60405180910390f35b34801561028357600080fd5b50610297610292366004612b75565b61082e565b6040516001600160a01b03909116815260200161026e565b61024a6102bd366004612c11565b61083f565b3480156102ce57600080fd5b5061024a6102dd366004612b75565b61084f565b3480156102ee57600080fd5b506102f761092f565b60405190815260200161026e565b6102f7610313366004612c3d565b61094c565b34801561032457600080fd5b506102f7610a7c565b34801561033957600080fd5b506102f7610348366004612b75565b610b3f565b34801561035957600080fd5b506102f7610b59565b34801561036e57600080fd5b5061024a61037d366004612c3d565b610b63565b34801561038e57600080fd5b506000805160206133fe833981519152546102f7565b3480156103b057600080fd5b507f9b35df16c33a6c0e085c9ebd55fb367f81c58c2ed7e9bed98cc622f3308a6012546001600160a01b0316610297565b61024a6103ef366004612c5a565b610baf565b61024a610402366004612c5a565b610da4565b34801561041357600080fd5b50610427610422366004612c3d565b610dc4565b604051901515815260200161026e565b34801561044357600080fd5b506000805160206133de833981519152546001600160a01b0316610297565b61024a610470366004612c3d565b610e01565b34801561048157600080fd5b5061024a610490366004612c3d565b610ecf565b3480156104a157600080fd5b50610297610f37565b3480156104b657600080fd5b506102976104c5366004612b75565b610f58565b3480156104d657600080fd5b50610297610f63565b3480156104eb57600080fd5b5061024a6104fa366004612b75565b610f84565b34801561050b57600080fd5b5061024a61051a366004612d6f565b610fc8565b34801561052b57600080fd5b5060008051602061335e833981519152546001600160a01b0316610297565b34801561055657600080fd5b506102f7610565366004612c3d565b611090565b34801561057657600080fd5b5061024a610585366004612c3d565b6110c3565b34801561059657600080fd5b5061024a6105a5366004612b75565b611107565b3480156105b657600080fd5b506102f761119d565b3480156105cb57600080fd5b506102616111a7565b3480156105e057600080fd5b5061024a6105ef366004612b75565b6111bf565b34801561060057600080fd5b5061024a61060f366004612e66565b611203565b34801561062057600080fd5b5061024a61062f366004612c3d565b6112a5565b61024a610642366004612e9f565b6112fb565b34801561065357600080fd5b50610297611345565b34801561066857600080fd5b50610261610677366004612b75565b611378565b34801561068857600080fd5b5061024a610697366004612f1e565b611409565b3480156106a857600080fd5b506104276106b7366004612f81565b61145d565b6000805160206133de8339815191525460408051632cbb9d1360e01b8152905160008051602061337e833981519152926000926001600160a01b0390911691632cbb9d13916004808201926020929091908290030181865afa158015610726573d6000803e3d6000fd5b505050506040513d601f19601f8201168201806040525081019061074a9190612faf565b90508083111561076d57604051632b6e8cbb60e11b815260040160405180910390fd5b50507f9b35df16c33a6c0e085c9ebd55fb367f81c58c2ed7e9bed98cc622f3308a601055565b606061079d611469565b60020180546107ab90612fc8565b80601f01602080910402602001604051908101604052809291908181526020018280546107d790612fc8565b80156108245780601f106107f957610100808354040283529160200191610824565b820191906000526020600020905b81548152906001019060200180831161080757829003601f168201915b5050505050905090565b60006108398261148d565b92915050565b61084b828260016114da565b5050565b60008051602061335e8339815191525460008051602061337e833981519152906001600160a01b031661089557604051636da3122b60e01b815260040160405180910390fd5b600681015460408051630eac306d60e01b815290516000926001600160a01b031691630eac306d9160048083019260209291908290030181865afa1580156108e1573d6000803e3d6000fd5b505050506040513d601f19601f820116820180604052508101906109059190612faf565b90508083101561092857604051631a23d64760e11b815260040160405180910390fd5b5060020155565b60006109476000805160206133fe8339815191525490565b905090565b6000600260008051602061339e833981519152540361097e57604051635db5c7cd60e11b815260040160405180910390fd5b610995600260008051602061339e83398151915255565b6109be604051806040016040528060088152602001672537b4b72a37bbb760c11b8152506115a6565b60006109c9836115dc565b11156109e8576040516316d9a23f60e31b815260040160405180910390fd5b6000805160206133fe83398151915254158015610a135750610a08610a7c565b610a10611644565b10155b15610a3157604051635e9cd6f760e01b815260040160405180910390fd5b610a39611663565b9050610a4482611673565b610a4f826001611953565b610a6081610a5b61196d565b6119e8565b610a77600160008051602061339e83398151915255565b919050565b7f9b35df16c33a6c0e085c9ebd55fb367f81c58c2ed7e9bed98cc622f3308a60105460009060008051602061337e833981519152908203610b36578060060160009054906101000a90046001600160a01b03166001600160a01b0316632cbb9d136040518163ffffffff1660e01b8152600401602060405180830381865afa158015610b0c573d6000803e3d6000fd5b505050506040513d601f19601f82011682018060405250810190610b309190612faf565b91505090565b60030154919050565b6000610b4a82611ada565b6001600160401b031692915050565b6000610947611644565b610b6b611b14565b6001600160a01b0316336001600160a01b031614610ba3576040516365f4906560e01b81523360048201526024015b60405180910390fd5b610bac81610ecf565b50565b6000610bba82611bd8565b9050836001600160a01b0316816001600160a01b031614610bed5760405162a1148160e81b815260040160405180910390fd5b600080610bf984611c7c565b91509150610c1f8187610c0a611ca4565b6001600160a01b039081169116811491141790565b610c4c57610c2f866106b7611ca4565b610c4c57604051632ce44b5f60e11b815260040160405180910390fd5b6001600160a01b038516610c7357604051633a954ecd60e21b815260040160405180910390fd5b610c808686866001611cae565b8015610c8b57600082555b610c93611469565b6001600160a01b0387166000908152600591909101602052604090208054600019019055610cbf611469565b6001600160a01b03861660008181526005929092016020526040909120805460010190554260a01b17600160e11b17610cf6611469565b60008681526004919091016020526040812091909155600160e11b84169003610d6c5760018401610d25611469565b600082815260049190910160205260408120549003610d6a57610d46611469565b548114610d6a5783610d56611469565b600083815260049190910160205260409020555b505b83856001600160a01b0316876001600160a01b03166000805160206133be83398151915260405160405180910390a45b505050505050565b610dbf838383604051806020016040528060008152506112fb565b505050565b6001600160a01b031660009081527f9be1203d7c008407e47cf520c8f15f54b074f0a2af3750145c254290338afc3f602052604090205460ff1690565b600260008051602061339e8339815191525403610e3157604051635db5c7cd60e11b815260040160405180910390fd5b610e48600260008051602061339e83398151915255565b6001600160a01b038116610e6f57604051635fbd571760e01b815260040160405180910390fd5b6000610e7a82611d18565b9050610e8581611d52565b610ea2576040516367d9dca160e11b815260040160405180910390fd5b610eab82611673565b610eb781610a5b61196d565b50610bac600160008051602061339e83398151915255565b6001600160a01b038116610ef657604051631492df6160e21b815260040160405180910390fd5b7f9b35df16c33a6c0e085c9ebd55fb367f81c58c2ed7e9bed98cc622f3308a601280546001600160a01b0319166001600160a01b0392909216919091179055565b60006109476000805160206133de833981519152546001600160a01b031690565b600061083982611bd8565b600061094760008051602061335e833981519152546001600160a01b031690565b610f8c611b14565b6001600160a01b0316336001600160a01b031614610fbf576040516365f4906560e01b8152336004820152602401610b9a565b610bac8161084f565b7f2d0d21306acfe8e9bb163a4573e95aff6cef95dc1102c6a16d5f19eac08cc4de54640100000000900460ff1661101257604051630ef4733760e31b815260040160405180910390fd5b61103381600001518260200151836040015184606001518560800151611dbf565b61107e8160a001516001600160a01b031660009081527f9be1203d7c008407e47cf520c8f15f54b074f0a2af3750145c254290338afc3f60205260409020805460ff19166001179055565b610bac8160c001518260e00151611e76565b6000426110a461109f84611d18565b611ada565b6001600160401b0316116110ba57506000919050565b610839826115dc565b6110cb611b14565b6001600160a01b0316336001600160a01b0316146110fe576040516365f4906560e01b8152336004820152602401610b9a565b610bac816112a5565b600260008051602061339e833981519152540361113757604051635db5c7cd60e11b815260040160405180910390fd5b61114e600260008051602061339e83398151915255565b61115781611d52565b611174576040516367d9dca160e11b815260040160405180910390fd5b61117d81611eea565b61118681611ef5565b610bac600160008051602061339e83398151915255565b6000610947610a7c565b60606111b1611469565b60030180546107ab90612fc8565b6111c7611b14565b6001600160a01b0316336001600160a01b0316146111fa576040516365f4906560e01b8152336004820152602401610b9a565b610bac816106bc565b8061120c611469565b6007016000611219611ca4565b6001600160a01b03908116825260208083019390935260409182016000908120918716808252919093529120805460ff19169215159290921790915561125d611ca4565b6001600160a01b03167f17307eab39ab6107e8899845ad3d59bd9653f200f220920489ca2b5937696c3183604051611299911515815260200190565b60405180910390a35050565b6001600160a01b0381166112cc57604051636da3122b60e01b815260040160405180910390fd5b60008051602061335e83398151915280546001600160a01b0319166001600160a01b0392909216919091179055565b611306848484610baf565b6001600160a01b0383163b1561133f5761132284848484611f68565b61133f576040516368d2bf6b60e11b815260040160405180910390fd5b50505050565b60006109477f9b35df16c33a6c0e085c9ebd55fb367f81c58c2ed7e9bed98cc622f3308a6012546001600160a01b031690565b60606113838261205a565b6113a057604051630a14c4b560e41b815260040160405180910390fd5b60006113b760408051602081019091526000815290565b905080516000036113d75760405180602001604052806000815250611402565b806113e184612096565b6040516020016113f2929190613002565b6040516020818303038152906040525b9392505050565b7f2d0d21306acfe8e9bb163a4573e95aff6cef95dc1102c6a16d5f19eac08cc4de54640100000000900460ff1661145357604051630ef4733760e31b815260040160405180910390fd5b61084b8282611e76565b600061140283836120da565b7f234d8962d7c9a6a6604d7f98797e6ad6d7a886804f7409feb26422e27bf8125490565b60006114988261205a565b6114b5576040516333d1c03960e21b815260040160405180910390fd5b6114bd611469565b60009283526006016020525060409020546001600160a01b031690565b60006114e583610f58565b9050811561153b57806001600160a01b03166114ff611ca4565b6001600160a01b03161461153b5761151e81611519611ca4565b6120da565b61153b576040516367d9dca160e11b815260040160405180910390fd5b83611544611469565b6000858152600691909101602052604080822080546001600160a01b0319166001600160a01b0394851617905551859287811692908516917f8c5be1e5ebec7d5bd14f71427d1e84f3dd0314c0f7b2291e5b200ac8c7c3b9259190a450505050565b6115bf6040518060200160405280600081525082612117565b610bac57604051630ce39a4b60e21b815260040160405180910390fd5b60006001600160a01b038216611605576040516323d3ad8160e21b815260040160405180910390fd5b6001600160401b03611615611469565b6005016000846001600160a01b03166001600160a01b0316815260200190815260200160002054169050919050565b60008061164f611469565b6001015461165b611469565b540303919050565b600061166d611469565b54919050565b600061168b6000805160206133fe8339815191525490565b905080600003611699575050565b6000805160206133de8339815191525460408051630eac306d60e01b8152905160008051602061337e833981519152926000926001600160a01b0390911691630eac306d916004808201926020929091908290030181865afa158015611703573d6000803e3d6000fd5b505050506040513d601f19601f820116820180604052508101906117279190612faf565b90508083101561174a57604051635894b54560e11b815260040160405180910390fd5b6006820154604080516301332c8360e61b815290516000926001600160a01b031691634ccb20c09160048083019260209291908290030181865afa158015611796573d6000803e3d6000fd5b505050506040513d601f19601f820116820180604052508101906117ba9190613031565b905060008360060160009054906101000a90046001600160a01b03166001600160a01b0316639f6542aa6040518163ffffffff1660e01b8152600401602060405180830381865afa158015611813573d6000803e3d6000fd5b505050506040513d601f19601f82011682018060405250810190611837919061304e565b905060008460060160009054906101000a90046001600160a01b03166001600160a01b031663190eaaba6040518163ffffffff1660e01b8152600401602060405180830381865afa158015611890573d6000803e3d6000fd5b505050506040513d601f19601f820116820180604052508101906118b49190612faf565b905060006118c28588613088565b905080156118f15784826118da61ffff86168461309b565b6118e491906130b2565b6118ee91906130d4565b94505b600486015461190b906001600160a01b03168986886121a9565b8060000361191d575050505050505050565b60048601546005870154611949916001600160a01b03908116918b9116611944898c613088565b6121a9565b5050505050505050565b61084b8282604051806020016040528060008152506121ef565b6000805160206133de8339815191525460408051634090785d60e11b815290516000926001600160a01b031691638120f0ba9160048083019260209291908290030181865afa1580156119c4573d6000803e3d6000fd5b505050506040513d601f19601f8201168201806040525081019061094791906130e7565b60008281527f62df4f6c50e7f750c679c064ab345c286dd49de6e39940ae1538c75b44a0e3616020819052604082205490916001600160401b0390911690818103611a3e57611a378442613110565b9050611a74565b611a478561226c565b611a6757604051637be9098d60e11b815260048101869052602401610b9a565b611a718483613110565b90505b60008581526020848152604091829020805467ffffffffffffffff19166001600160401b038516908117909155915191825286917f2ec2be2c4b90c2cf13ecb6751a24daed6bb741ae5ed3f7371aabf9402f6d62e8910160405180910390a25050505050565b60009081527f62df4f6c50e7f750c679c064ab345c286dd49de6e39940ae1538c75b44a0e36160205260409020546001600160401b031690565b6040805180820182527f9bd0e1a7aef81c47cff971a2fee48406b20f55522326b2e2616c49c24aa506d0546001600160a01b03168082527f9bd0e1a7aef81c47cff971a2fee48406b20f55522326b2e2616c49c24aa506d154602080840182905284516331a9108f60e11b815260048101929092529351600094636352211e92602480820193918290030181865afa158015611bb4573d6000803e3d6000fd5b505050506040513d601f19601f82011682018060405250810190610b309190613031565b6000611be2611469565b600083815260049190910160205260408120549150600160e01b82169003611c635780600003610a7757611c14611469565b548210611c3457604051636f96cda160e11b815260040160405180910390fd5b611c3c611469565b600019909201600081815260049390930160205260409092205490508015611c3457919050565b604051636f96cda160e11b815260040160405180910390fd5b6000806000611c89611469565b60009485526006016020525050604090912080549092909150565b60006109476122a3565b61133f8284600082815260008051602061337e8339815191526020908152604080832080546001600160a01b0319166001600160a01b039590951694851790559282527f9b35df16c33a6c0e085c9ebd55fb367f81c58c2ed7e9bed98cc622f3308a600e90522055565b6001600160a01b031660009081527f9b35df16c33a6c0e085c9ebd55fb367f81c58c2ed7e9bed98cc622f3308a600e602052604090205490565b600080611d5e83610f58565b9050806001600160a01b0316611d726122a3565b6001600160a01b03161480611d8e5750611d8e816115196122a3565b806114025750611d9c6122a3565b6001600160a01b0316611dae8461148d565b6001600160a01b0316149392505050565b6000805160206133fe8339815191528590557f9b35df16c33a6c0e085c9ebd55fb367f81c58c2ed7e9bed98cc622f3308a601084905560008051602061337e8339815191526001600160a01b03841615611e195783611e2f565b73eeeeeeeeeeeeeeeeeeeeeeeeeeeeeeeeeeeeeeee5b6004820180546001600160a01b03199081166001600160a01b0393841617909155600583018054821695831695909517909455600690910180549093169116179055505050565b7f2d0d21306acfe8e9bb163a4573e95aff6cef95dc1102c6a16d5f19eac08cc4de54640100000000900460ff16611ec057604051630ef4733760e31b815260040160405180910390fd5b611ed06380ac58cd60e01b6122d1565b611ee0635b5e139f60e01b6122d1565b61084b82826123af565b610bac8160006123e1565b7f62df4f6c50e7f750c679c064ab345c286dd49de6e39940ae1538c75b44a0e361600082815260209182526040808220805467ffffffffffffffff191690555190815282917f2ec2be2c4b90c2cf13ecb6751a24daed6bb741ae5ed3f7371aabf9402f6d62e8910160405180910390a250565b6000836001600160a01b031663150b7a02611f81611ca4565b8786866040518563ffffffff1660e01b8152600401611fa39493929190613137565b6020604051808303816000875af1925050508015611fde575060408051601f3d908101601f19168201909252611fdb91810190613174565b60015b61203c573d80801561200c576040519150601f19603f3d011682016040523d82523d6000602084013e612011565b606091505b508051600003612034576040516368d2bf6b60e11b815260040160405180910390fd5b805181602001fd5b6001600160e01b031916630a85bd0160e11b1490505b949350505050565b6000612064611469565b54821080156108395750600160e01b61207b611469565b60008481526004919091016020526040902054161592915050565b606060a06040510180604052602081039150506000815280825b600183039250600a81066030018353600a9004806120b05750819003601f19909101908152919050565b60006120e4611469565b6001600160a01b039384166000908152600791909101602090815260408083209490951682529290925250205460ff1690565b6000612121611ca4565b6001600160a01b0316612132611b14565b6001600160a01b0316148061140257507ff421ea548af7158b1d71ba0aeccf57104c067038bd8fd214edd05c09eb4f735b5460ff1615801561140257506114028361217b611ca4565b8460405160200161218c919061319e565b6040516020818303038152906040526121a4906131ba565b612562565b801561133f5773eeeeeeeeeeeeeeeeeeeeeeeeeeeeeeeeeeeeeeed196001600160a01b038516016121e3576121de828261268b565b61133f565b61133f8484848461272e565b6121f98383612781565b6001600160a01b0383163b15610dbf576000612213611469565b5490508281035b61222d6000868380600101945086611f68565b61224a576040516368d2bf6b60e11b815260040160405180910390fd5b81811061221a578161225a611469565b541461226557600080fd5b5050505050565b60004261227761196d565b6001600160401b031661228a91906130d4565b61229383611ada565b6001600160401b03161092915050565b6000601436108015906122ba57506122ba33610dc4565b156122cc575060131936013560601c90565b503390565b6001600160e01b0319811660009081527fbc7de460bcfb6afd0c415c8c610d408bd914b18d7d0feec0da9e25348087a5c4602052604090205460ff16151560011461235e576001600160e01b0319811660009081527fbc7de460bcfb6afd0c415c8c610d408bd914b18d7d0feec0da9e25348087a5c460205260409020805460ff19166001179055612377565b604051637967f77d60e11b815260040160405180910390fd5b6040516001600160e01b03198216907f78f84e5b1c5c05be2b5ad3800781dd404d6d6c6302bc755c0fe20f58a33a7f2290600090a250565b60006123b9611469565b9050600281016123c98482613224565b50600381016123d88382613224565b50600090555050565b60006123ec83611bd8565b9050806000806123fb86611c7c565b91509150841561243f576124128184610c0a611ca4565b61243f5761242283611519611ca4565b61243f57604051632ce44b5f60e11b815260040160405180910390fd5b61244d836000886001611cae565b801561245857600082555b6fffffffffffffffffffffffffffffffff612471611469565b6001600160a01b038516600081815260059290920160205260409091208054929092019091554260a01b17600360e01b176124aa611469565b60008881526004919091016020526040812091909155600160e11b8516900361252057600186016124d9611469565b60008281526004919091016020526040812054900361251e576124fa611469565b54811461251e578461250a611469565b600083815260049190910160205260409020555b505b60405186906000906001600160a01b038616906000805160206133be833981519152908390a461254e611469565b600190810180549091019055505050505050565b600061256c611b14565b6001600160a01b0316836001600160a01b03160361258c57506001611402565b7f2df4f8e2489b335ef09ede56990b0838afbcdea6c639a41af44b533474fb855860006125d87f2df4f8e2489b335ef09ede56990b0838afbcdea6c639a41af44b533474fb85596128a5565b905060005b81811015612681576125f260018401826128af565b6001600160a01b031662b4eaa88888886040518463ffffffff1660e01b8152600401612620939291906132e3565b602060405180830381865afa15801561263d573d6000803e3d6000fd5b505050506040513d601f19601f820116820180604052508101906126619190613311565b1561266f5760019350612681565b806126798161332e565b9150506125dd565b5050509392505050565b6000826001600160a01b03168260405160006040518083038185875af1925050503d80600081146126d8576040519150601f19603f3d011682016040523d82523d6000602084013e6126dd565b606091505b5050905080610dbf5760405162461bcd60e51b815260206004820152601c60248201527f6e617469766520746f6b656e207472616e73666572206661696c6564000000006044820152606401610b9a565b816001600160a01b0316836001600160a01b0316031561133f57306001600160a01b0384160361276c576121de6001600160a01b03851683836128bb565b61133f6001600160a01b03851684848461291e565b600061278b611469565b54905060008290036127b05760405163b562e8dd60e01b815260040160405180910390fd5b6127bd6000848385611cae565b6801000000000000000182026127d1611469565b6001600160a01b038516600081815260059290920160205260409091208054929092019091554260a01b6001841460e11b171761280c611469565b600083815260049190910160205260408120919091556001600160a01b0384169083830190839083906000805160206133be8339815191528180a4600183015b81811461287257808360006000805160206133be833981519152600080a460010161284c565b508160000361289357604051622e076360e81b815260040160405180910390fd5b8061289c611469565b5550610dbf9050565b6000610839825490565b60006114028383612956565b6040516001600160a01b038316602482015260448101829052610dbf90849063a9059cbb60e01b906064015b60408051601f198184030181529190526020810180516001600160e01b03166001600160e01b031990931692909217909152612980565b6040516001600160a01b038085166024830152831660448201526064810182905261133f9085906323b872dd60e01b906084016128e7565b600082600001828154811061296d5761296d613347565b9060005260206000200154905092915050565b60006129d5826040518060400160405280602081526020017f5361666545524332303a206c6f772d6c6576656c2063616c6c206661696c6564815250856001600160a01b0316612a529092919063ffffffff16565b805190915015610dbf57808060200190518101906129f39190613311565b610dbf5760405162461bcd60e51b815260206004820152602a60248201527f5361666545524332303a204552433230206f7065726174696f6e20646964206e6044820152691bdd081cdd58d8d9595960b21b6064820152608401610b9a565b6060612052848460008585600080866001600160a01b03168587604051612a79919061319e565b60006040518083038185875af1925050503d8060008114612ab6576040519150601f19603f3d011682016040523d82523d6000602084013e612abb565b606091505b5091509150612acc87838387612ad7565b979650505050505050565b60608315612b46578251600003612b3f576001600160a01b0385163b612b3f5760405162461bcd60e51b815260206004820152601d60248201527f416464726573733a2063616c6c20746f206e6f6e2d636f6e74726163740000006044820152606401610b9a565b5081612052565b6120528383815115612b5b5781518083602001fd5b8060405162461bcd60e51b8152600401610b9a9190612bde565b600060208284031215612b8757600080fd5b5035919050565b60005b83811015612ba9578181015183820152602001612b91565b50506000910152565b60008151808452612bca816020860160208601612b8e565b601f01601f19169290920160200192915050565b6020815260006114026020830184612bb2565b6001600160a01b0381168114610bac57600080fd5b8035610a7781612bf1565b60008060408385031215612c2457600080fd5b8235612c2f81612bf1565b946020939093013593505050565b600060208284031215612c4f57600080fd5b813561140281612bf1565b600080600060608486031215612c6f57600080fd5b8335612c7a81612bf1565b92506020840135612c8a81612bf1565b929592945050506040919091013590565b634e487b7160e01b600052604160045260246000fd5b60405161010081016001600160401b0381118282101715612cd457612cd4612c9b565b60405290565b60006001600160401b0380841115612cf457612cf4612c9b565b604051601f8501601f19908116603f01168101908282118183101715612d1c57612d1c612c9b565b81604052809350858152868686011115612d3557600080fd5b858560208301376000602087830101525050509392505050565b600082601f830112612d6057600080fd5b61140283833560208501612cda565b600060208284031215612d8157600080fd5b81356001600160401b0380821115612d9857600080fd5b908301906101008286031215612dad57600080fd5b612db5612cb1565b8235815260208301356020820152612dcf60408401612c06565b6040820152612de060608401612c06565b6060820152612df160808401612c06565b6080820152612e0260a08401612c06565b60a082015260c083013582811115612e1957600080fd5b612e2587828601612d4f565b60c08301525060e083013582811115612e3d57600080fd5b612e4987828601612d4f565b60e08301525095945050505050565b8015158114610bac57600080fd5b60008060408385031215612e7957600080fd5b8235612e8481612bf1565b91506020830135612e9481612e58565b809150509250929050565b60008060008060808587031215612eb557600080fd5b8435612ec081612bf1565b93506020850135612ed081612bf1565b92506040850135915060608501356001600160401b03811115612ef257600080fd5b8501601f81018713612f0357600080fd5b612f1287823560208401612cda565b91505092959194509250565b60008060408385031215612f3157600080fd5b82356001600160401b0380821115612f4857600080fd5b612f5486838701612d4f565b93506020850135915080821115612f6a57600080fd5b50612f7785828601612d4f565b9150509250929050565b60008060408385031215612f9457600080fd5b8235612f9f81612bf1565b91506020830135612e9481612bf1565b600060208284031215612fc157600080fd5b5051919050565b600181811c90821680612fdc57607f821691505b602082108103612ffc57634e487b7160e01b600052602260045260246000fd5b50919050565b60008351613014818460208801612b8e565b835190830190613028818360208801612b8e565b01949350505050565b60006020828403121561304357600080fd5b815161140281612bf1565b60006020828403121561306057600080fd5b815161ffff8116811461140257600080fd5b634e487b7160e01b600052601160045260246000fd5b8181038181111561083957610839613072565b808202811582820484141761083957610839613072565b6000826130cf57634e487b7160e01b600052601260045260246000fd5b500490565b8082018082111561083957610839613072565b6000602082840312156130f957600080fd5b81516001600160401b038116811461140257600080fd5b6001600160401b0381811683821601908082111561313057613130613072565b5092915050565b6001600160a01b038581168252841660208201526040810183905260806060820181905260009061316a90830184612bb2565b9695505050505050565b60006020828403121561318657600080fd5b81516001600160e01b03198116811461140257600080fd5b600082516131b0818460208701612b8e565b9190910192915050565b80516020808301519190811015612ffc5760001960209190910360031b1b16919050565b601f821115610dbf57600081815260208120601f850160051c810160208610156132055750805b601f850160051c820191505b81811015610d9c57828155600101613211565b81516001600160401b0381111561323d5761323d612c9b565b6132518161324b8454612fc8565b846131de565b602080601f831160018114613286576000841561326e5750858301515b600019600386901b1c1916600185901b178555610d9c565b600085815260208120601f198616915b828110156132b557888601518255948401946001909101908401613296565b50858210156132d35787850151600019600388901b60f8161c191681555b5050505050600190811b01905550565b6060815260006132f66060830186612bb2565b6001600160a01b039490941660208301525060400152919050565b60006020828403121561332357600080fd5b815161140281612e58565b60006001820161334057613340613072565b5060010190565b634e487b7160e01b600052603260045260246000fdfe9b35df16c33a6c0e085c9ebd55fb367f81c58c2ed7e9bed98cc622f3308a60119b35df16c33a6c0e085c9ebd55fb367f81c58c2ed7e9bed98cc622f3308a600d50b052c8fb38984269a818b2b593d0584a81b1b99245abc0fab04abc7afb010fddf252ad1be2c89b69c2b068fc378daa952ba7f163c4a11628f55a4df523b3ef9b35df16c33a6c0e085c9ebd55fb367f81c58c2ed7e9bed98cc622f3308a60139b35df16c33a6c0e085c9ebd55fb367f81c58c2ed7e9bed98cc622f3308a600f",
    "linkReferences": {}
  },
  "methodIdentifiers": {
    "__ERC721A_init(string,string)": "d2f01f19",
    "__Membership_init((uint256,uint256,address,address,address,address,string,string))": "6e43d05d",
    "_getMembershipCurrency()": "70251563",
    "_getMembershipFeeRecipient()": "1d214b4d",
    "_getMembershipLimit()": "1766bb7b",
    "_getMembershipPrice()": "1b3972f0",
    "_getTownFactory()": "5b312fce",
    "_setMembershipCurrency(address)": "b8307376",
    "_setMembershipFeeRecipient(address)": "62452006",
    "_setMembershipLimit(uint256)": "02b24da5",
    "_setMembershipPrice(uint256)": "0c3a01b1",
    "approve(address,uint256)": "095ea7b3",
    "balanceOf(address)": "70a08231",
    "cancelMembership(uint256)": "89def320",
    "expiresAt(uint256)": "17c95709",
    "getApproved(uint256)": "081812fc",
    "getMembershipCurrency()": "657e45e8",
    "getMembershipFeeRecipient()": "bf3bc878",
    "getMembershipLimit()": "95d600c8",
    "getMembershipPrice()": "1278076a",
    "getTownFactory()": "6340d096",
    "isApprovedForAll(address,address)": "e985e9c5",
    "isTrustedForwarder(address)": "572b6c05",
    "joinTown(address)": "16a344b4",
    "name()": "06fdde03",
    "ownerOf(uint256)": "6352211e",
    "renewMembership(address)": "61a9c7df",
    "safeTransferFrom(address,address,uint256)": "42842e0e",
    "safeTransferFrom(address,address,uint256,bytes)": "b88d4fde",
    "setApprovalForAll(address,bool)": "a22cb465",
    "setMembershipCurrency(address)": "7d0567c4",
    "setMembershipFeeRecipient(address)": "18e5da65",
    "setMembershipLimit(uint256)": "97fb7c1e",
    "setMembershipPrice(uint256)": "69d5f38a",
    "symbol()": "95d89b41",
    "tokenURI(uint256)": "c87b56dd",
    "totalSupply()": "18160ddd",
    "transferFrom(address,address,uint256)": "23b872dd"
  },
  "id": 196
}