{"abi":[{"type":"function","name":"addRoleToChannel","inputs":[{"name":"channelId","type":"bytes32","internalType":"bytes32"},{"name":"roleId","type":"uint256","internalType":"uint256"}],"outputs":[],"stateMutability":"nonpayable"},{"type":"function","name":"createChannel","inputs":[{"name":"channelId","type":"bytes32","internalType":"bytes32"},{"name":"metadata","type":"string","internalType":"string"},{"name":"roleIds","type":"uint256[]","internalType":"uint256[]"}],"outputs":[],"stateMutability":"nonpayable"},{"type":"function","name":"createChannelWithOverridePermissions","inputs":[{"name":"channelId","type":"bytes32","internalType":"bytes32"},{"name":"metadata","type":"string","internalType":"string"},{"name":"rolePermissions","type":"tuple[]","internalType":"struct IChannelBase.RolePermissions[]","components":[{"name":"roleId","type":"uint256","internalType":"uint256"},{"name":"permissions","type":"string[]","internalType":"string[]"}]}],"outputs":[],"stateMutability":"nonpayable"},{"type":"function","name":"getChannel","inputs":[{"name":"channelId","type":"bytes32","internalType":"bytes32"}],"outputs":[{"name":"channel","type":"tuple","internalType":"struct IChannelBase.Channel","components":[{"name":"id","type":"bytes32","internalType":"bytes32"},{"name":"disabled","type":"bool","internalType":"bool"},{"name":"metadata","type":"string","internalType":"string"},{"name":"roleIds","type":"uint256[]","internalType":"uint256[]"}]}],"stateMutability":"view"},{"type":"function","name":"getChannels","inputs":[],"outputs":[{"name":"channels","type":"tuple[]","internalType":"struct IChannelBase.Channel[]","components":[{"name":"id","type":"bytes32","internalType":"bytes32"},{"name":"disabled","type":"bool","internalType":"bool"},{"name":"metadata","type":"string","internalType":"string"},{"name":"roleIds","type":"uint256[]","internalType":"uint256[]"}]}],"stateMutability":"view"},{"type":"function","name":"getRolesByChannel","inputs":[{"name":"channelId","type":"bytes32","internalType":"bytes32"}],"outputs":[{"name":"roleIds","type":"uint256[]","internalType":"uint256[]"}],"stateMutability":"view"},{"type":"function","name":"removeChannel","inputs":[{"name":"channelId","type":"bytes32","internalType":"bytes32"}],"outputs":[],"stateMutability":"nonpayable"},{"type":"function","name":"removeRoleFromChannel","inputs":[{"name":"channelId","type":"bytes32","internalType":"bytes32"},{"name":"roleId","type":"uint256","internalType":"uint256"}],"outputs":[],"stateMutability":"nonpayable"},{"type":"function","name":"updateChannel","inputs":[{"name":"channelId","type":"bytes32","internalType":"bytes32"},{"name":"metadata","type":"string","internalType":"string"},{"name":"disabled","type":"bool","internalType":"bool"}],"outputs":[],"stateMutability":"nonpayable"},{"type":"event","name":"Approval","inputs":[{"name":"owner","type":"address","indexed":true,"internalType":"address"},{"name":"approved","type":"address","indexed":true,"internalType":"address"},{"name":"tokenId","type":"uint256","indexed":true,"internalType":"uint256"}],"anonymous":false},{"type":"event","name":"ApprovalForAll","inputs":[{"name":"owner","type":"address","indexed":true,"internalType":"address"},{"name":"operator","type":"address","indexed":true,"internalType":"address"},{"name":"approved","type":"bool","indexed":false,"internalType":"bool"}],"anonymous":false},{"type":"event","name":"Banned","inputs":[{"name":"moderator","type":"address","indexed":true,"internalType":"address"},{"name":"tokenId","type":"uint256","indexed":true,"internalType":"uint256"}],"anonymous":false},{"type":"event","name":"ChannelCreated","inputs":[{"name":"caller","type":"address","indexed":true,"internalType":"address"},{"name":"channelId","type":"bytes32","indexed":false,"internalType":"bytes32"}],"anonymous":false},{"type":"event","name":"ChannelRemoved","inputs":[{"name":"caller","type":"address","indexed":true,"internalType":"address"},{"name":"channelId","type":"bytes32","indexed":false,"internalType":"bytes32"}],"anonymous":false},{"type":"event","name":"ChannelRoleAdded","inputs":[{"name":"caller","type":"address","indexed":true,"internalType":"address"},{"name":"channelId","type":"bytes32","indexed":false,"internalType":"bytes32"},{"name":"roleId","type":"uint256","indexed":false,"internalType":"uint256"}],"anonymous":false},{"type":"event","name":"ChannelRoleRemoved","inputs":[{"name":"caller","type":"address","indexed":true,"internalType":"address"},{"name":"channelId","type":"bytes32","indexed":false,"internalType":"bytes32"},{"name":"roleId","type":"uint256","indexed":false,"internalType":"uint256"}],"anonymous":false},{"type":"event","name":"ChannelUpdated","inputs":[{"name":"caller","type":"address","indexed":true,"internalType":"address"},{"name":"channelId","type":"bytes32","indexed":false,"internalType":"bytes32"}],"anonymous":false},{"type":"event","name":"ConsecutiveTransfer","inputs":[{"name":"fromTokenId","type":"uint256","indexed":true,"internalType":"uint256"},{"name":"toTokenId","type":"uint256","indexed":false,"internalType":"uint256"},{"name":"from","type":"address","indexed":true,"internalType":"address"},{"name":"to","type":"address","indexed":true,"internalType":"address"}],"anonymous":false},{"type":"event","name":"Initialized","inputs":[{"name":"version","type":"uint32","indexed":false,"internalType":"uint32"}],"anonymous":false},{"type":"event","name":"InterfaceAdded","inputs":[{"name":"interfaceId","type":"bytes4","indexed":true,"internalType":"bytes4"}],"anonymous":false},{"type":"event","name":"InterfaceRemoved","inputs":[{"name":"interfaceId","type":"bytes4","indexed":true,"internalType":"bytes4"}],"anonymous":false},{"type":"event","name":"OwnershipTransferred","inputs":[{"name":"previousOwner","type":"address","indexed":true,"internalType":"address"},{"name":"newOwner","type":"address","indexed":true,"internalType":"address"}],"anonymous":false},{"type":"event","name":"Paused","inputs":[{"name":"account","type":"address","indexed":false,"internalType":"address"}],"anonymous":false},{"type":"event","name":"PermissionsAddedToChannelRole","inputs":[{"name":"updater","type":"address","indexed":true,"internalType":"address"},{"name":"roleId","type":"uint256","indexed":true,"internalType":"uint256"},{"name":"channelId","type":"bytes32","indexed":true,"internalType":"bytes32"}],"anonymous":false},{"type":"event","name":"PermissionsRemovedFromChannelRole","inputs":[{"name":"updater","type":"address","indexed":true,"internalType":"address"},{"name":"roleId","type":"uint256","indexed":true,"internalType":"uint256"},{"name":"channelId","type":"bytes32","indexed":true,"internalType":"bytes32"}],"anonymous":false},{"type":"event","name":"PermissionsUpdatedForChannelRole","inputs":[{"name":"updater","type":"address","indexed":true,"internalType":"address"},{"name":"roleId","type":"uint256","indexed":true,"internalType":"uint256"},{"name":"channelId","type":"bytes32","indexed":true,"internalType":"bytes32"}],"anonymous":false},{"type":"event","name":"RoleCreated","inputs":[{"name":"creator","type":"address","indexed":true,"internalType":"address"},{"name":"roleId","type":"uint256","indexed":true,"internalType":"uint256"}],"anonymous":false},{"type":"event","name":"RoleRemoved","inputs":[{"name":"remover","type":"address","indexed":true,"internalType":"address"},{"name":"roleId","type":"uint256","indexed":true,"internalType":"uint256"}],"anonymous":false},{"type":"event","name":"RoleUpdated","inputs":[{"name":"updater","type":"address","indexed":true,"internalType":"address"},{"name":"roleId","type":"uint256","indexed":true,"internalType":"uint256"}],"anonymous":false},{"type":"event","name":"SubscriptionUpdate","inputs":[{"name":"tokenId","type":"uint256","indexed":true,"internalType":"uint256"},{"name":"expiration","type":"uint64","indexed":false,"internalType":"uint64"}],"anonymous":false},{"type":"event","name":"Transfer","inputs":[{"name":"from","type":"address","indexed":true,"internalType":"address"},{"name":"to","type":"address","indexed":true,"internalType":"address"},{"name":"tokenId","type":"uint256","indexed":true,"internalType":"uint256"}],"anonymous":false},{"type":"event","name":"Unbanned","inputs":[{"name":"moderator","type":"address","indexed":true,"internalType":"address"},{"name":"tokenId","type":"uint256","indexed":true,"internalType":"uint256"}],"anonymous":false},{"type":"event","name":"Unpaused","inputs":[{"name":"account","type":"address","indexed":false,"internalType":"address"}],"anonymous":false},{"type":"error","name":"ApprovalCallerNotOwnerNorApproved","inputs":[]},{"type":"error","name":"ApprovalQueryForNonexistentToken","inputs":[]},{"type":"error","name":"BalanceQueryForZeroAddress","inputs":[]},{"type":"error","name":"Banning__AlreadyBanned","inputs":[{"name":"tokenId","type":"uint256","internalType":"uint256"}]},{"type":"error","name":"Banning__CannotBanOwner","inputs":[]},{"type":"error","name":"Banning__CannotBanSelf","inputs":[]},{"type":"error","name":"Banning__InvalidTokenId","inputs":[{"name":"tokenId","type":"uint256","internalType":"uint256"}]},{"type":"error","name":"Banning__NotBanned","inputs":[{"name":"tokenId","type":"uint256","internalType":"uint256"}]},{"type":"error","name":"ChannelService__ChannelAlreadyExists","inputs":[]},{"type":"error","name":"ChannelService__ChannelDisabled","inputs":[]},{"type":"error","name":"ChannelService__ChannelDoesNotExist","inputs":[]},{"type":"error","name":"ChannelService__RoleAlreadyExists","inputs":[]},{"type":"error","name":"ChannelService__RoleDoesNotExist","inputs":[]},{"type":"error","name":"ERC5643__DurationZero","inputs":[]},{"type":"error","name":"ERC5643__InvalidTokenId","inputs":[{"name":"tokenId","type":"uint256","internalType":"uint256"}]},{"type":"error","name":"ERC5643__NotApprovedOrOwner","inputs":[]},{"type":"error","name":"ERC5643__SubscriptionNotRenewable","inputs":[{"name":"tokenId","type":"uint256","internalType":"uint256"}]},{"type":"error","name":"Entitlement__InvalidValue","inputs":[]},{"type":"error","name":"Entitlement__NotAllowed","inputs":[]},{"type":"error","name":"Entitlement__NotMember","inputs":[]},{"type":"error","name":"Entitlement__ValueAlreadyExists","inputs":[]},{"type":"error","name":"Initializable_InInitializingState","inputs":[]},{"type":"error","name":"Introspection_AlreadySupported","inputs":[]},{"type":"error","name":"Introspection_NotSupported","inputs":[]},{"type":"error","name":"MintERC2309QuantityExceedsLimit","inputs":[]},{"type":"error","name":"MintToZeroAddress","inputs":[]},{"type":"error","name":"MintZeroQuantity","inputs":[]},{"type":"error","name":"Ownable__NotOwner","inputs":[{"name":"account","type":"address","internalType":"address"}]},{"type":"error","name":"Ownable__ZeroAddress","inputs":[]},{"type":"error","name":"OwnerQueryForNonexistentToken","inputs":[]},{"type":"error","name":"OwnershipNotInitializedForExtraData","inputs":[]},{"type":"error","name":"Pausable__NotPaused","inputs":[]},{"type":"error","name":"Pausable__Paused","inputs":[]},{"type":"error","name":"Roles__EntitlementAlreadyExists","inputs":[]},{"type":"error","name":"Roles__EntitlementDoesNotExist","inputs":[]},{"type":"error","name":"Roles__InvalidEntitlementAddress","inputs":[]},{"type":"error","name":"Roles__InvalidPermission","inputs":[]},{"type":"error","name":"Roles__PermissionAlreadyExists","inputs":[]},{"type":"error","name":"Roles__PermissionDoesNotExist","inputs":[]},{"type":"error","name":"Roles__RoleDoesNotExist","inputs":[]},{"type":"error","name":"Roles__RoleIsImmutable","inputs":[]},{"type":"error","name":"TransferCallerNotOwnerNorApproved","inputs":[]},{"type":"error","name":"TransferFromIncorrectOwner","inputs":[]},{"type":"error","name":"TransferToNonERC721ReceiverImplementer","inputs":[]},{"type":"error","name":"TransferToZeroAddress","inputs":[]},{"type":"error","name":"URIQueryForNonexistentToken","inputs":[]}],"bytecode":{"object":"0x6080604052348015600e575f5ffd5b5060156019565b60bd565b7f59b501c3653afc186af7d48dda36cf6732bd21629a6295693664240a6ef520008054640100000000900460ff16156064576040516366008a2d60e01b815260040160405180910390fd5b805463ffffffff908116101560ba57805463ffffffff191663ffffffff90811782556040519081527fe9c9b456cb2994b80aeef036cf59d26e9617df80f816a6ee5a5b4166e07e2f5c9060200160405180910390a15b50565b612880806100ca5f395ff3fe608060405234801561000f575f5ffd5b506004361061009f575f3560e01c8063921f7175116100725780639935218311610058578063993521831461012f578063b9de61591461014f578063ef86d69614610162575f5ffd5b8063921f7175146101075780639575f6ac1461011a575f5ffd5b806302da0e51146100a357806337644cf7146100b85780635a2dce7a146100cb578063831c2b82146100de575b5f5ffd5b6100b66100b1366004611ed5565b610175565b005b6100b66100c6366004611eec565b6101bf565b6100b66100d9366004611f92565b61020b565b6100f16100ec366004611ed5565b61036d565b6040516100fe91906120c5565b60405180910390f35b6100b6610115366004611f92565b6103a7565b61012261042a565b6040516100fe91906120d7565b61014261013d366004611ed5565b610439565b6040516100fe9190612158565b6100b661015d366004611eec565b610444565b6100b66101703660046121a7565b61048c565b6101b36040518060400160405280601181526020017f41646452656d6f76654368616e6e656c730000000000000000000000000000008152506104dc565b6101bc81610513565b50565b6101fd6040518060400160405280601181526020017f41646452656d6f76654368616e6e656c730000000000000000000000000000008152506104dc565b6102078282610554565b5050565b6102496040518060400160405280601181526020017f41646452656d6f76654368616e6e656c730000000000000000000000000000008152506104dc565b5f8167ffffffffffffffff81111561026357610263612202565b60405190808252806020026020018201604052801561028c578160200160208202803683370190505b5090505f5b828110156102e5578383828181106102ab576102ab61222f565b90506020028101906102bd919061225c565b5f01358282815181106102d2576102d261222f565b6020908102919091010152600101610291565b506102f28686868461059e565b5f5b828110156103645761035c8484838181106103115761031161222f565b9050602002810190610323919061225c565b35888686858181106103375761033761222f565b9050602002810190610349919061225c565b610357906020810190612298565b6105f1565b6001016102f4565b50505050505050565b61039860405180608001604052805f81526020015f1515815260200160608152602001606081525090565b6103a182610768565b92915050565b6103e56040518060400160405280601181526020017f41646452656d6f76654368616e6e656c730000000000000000000000000000008152506104dc565b6104238585858585808060200260200160405190810160405280939291908181526020018383602002808284375f9201919091525061059e92505050565b5050505050565b60606104346107c8565b905090565b60606103a1826108f1565b6104826040518060400160405280601181526020017f41646452656d6f76654368616e6e656c730000000000000000000000000000008152506104dc565b61020782826108fc565b6104ca6040518060400160405280601181526020017f41646452656d6f76654368616e6e656c730000000000000000000000000000008152506104dc565b6104d68484848461093e565b50505050565b6104e65f8261097c565b6101bc576101bc7f338e692c000000000000000000000000000000000000000000000000000000006109ec565b61051c816109f4565b60405181815233907f3a3f387aa42656bc1732adfc7aea5cde9ccc05a59f9af9c29ebfa68e66383e939060200160405180910390a250565b61055e8282610a8e565b604080518381526020810183905233917f2b10481523b59a7978f8ab73b237349b0f38c801f6094bdc8994d379c067d71391015b60405180910390a25050565b6105a983835f610b30565b6105b584848484610b66565b60405184815233907fdd6c5b83be3557f8b2674712946f9f05dcd882b82bfd58b9539b9706efd35d8c906020015b60405180910390a250505050565b80801561075e5761060185610c7d565b61060a84610cd4565b5f8581527f672ef851d5f92307da037116e23aa9e31af7e1f7e3ca62c4e6d540631df3fd056020908152604080832087845290915290207f672ef851d5f92307da037116e23aa9e31af7e1f7e3ca62c4e6d540631df3fd009061066c81610d2d565b5f5b8381101561070e576106a286868381811061068b5761068b61222f565b905060200281019061069d91906122fc565b610e15565b6107058686838181106106b7576106b761222f565b90506020028101906106c991906122fc565b8080601f0160208091040260200160405190810160405280939291908181526020018383808284375f920191909152508693925050610e469050565b5060010161066e565b505f87815260048301602052604090206107289087610e9c565b506040518690889033907f38ef31503bf60258feeceab5e2c3778cf74be2a8fbcc150d209ca96cd3c98553905f90a45050610423565b6104238585610eae565b61079360405180608001604052805f81526020015f1515815260200160608152602001606081525090565b5f5f61079e84610f70565b92509250505f6107ad85611073565b60608501525060408301919091521515602082015290815290565b60605f6107d36110d5565b9050805167ffffffffffffffff8111156107ef576107ef612202565b60405190808252806020026020018201604052801561084b57816020015b61083860405180608001604052805f81526020015f1515815260200160608152602001606081525090565b81526020019060019003908161080d5790505b5091505f5b81518110156108ec575f5f5f61087e8585815181106108715761087161222f565b6020026020010151610f70565b9250925092505f6108a786868151811061089a5761089a61222f565b6020026020010151611073565b90505f8786815181106108bc576108bc61222f565b60209081029190910181015160608101939093526040830194909452509015159181019190915252600101610850565b505090565b60606103a182611073565b6109068282611107565b604080518381526020810183905233917faee688d80dbf97230e5d2b4b06aa7074bfe38ddd8abf856551177db3039561299101610592565b61094a848484846111a8565b60405184815233907f94af4a611b3fb1eaa653a6b29f82b71bcea25ca378171c5f059010fa18e0716e906020016105e3565b5f3380610987611336565b73ffffffffffffffffffffffffffffffffffffffff1614806109e457507fe17a067c7963a59b6dfd65d33b053fdbea1c56500e2aae4f976d9eda4da9eb005460ff161580156109e457506109e484826109df8661235d565b6113f0565b949350505050565b805f5260045ffd5b6109fd81610cd4565b7f804ad633258ac9b908ae115a2763b3f6e04be3b1165402c872b25af518504300610a2881836116c0565b505f8281526002808301602052604082208281556001810180547fffffffffffffffffffffffffffffffffffffffffffffffffffffffffffffff001690559190610a7490830182611e8b565b50505f8281526003820160205260409020610207906116cb565b610a9782610cd4565b610aa0826116d4565b5f8281527f804ad633258ac9b908ae115a2763b3f6e04be3b1165402c872b25af518504303602052604090207f804ad633258ac9b908ae115a2763b3f6e04be3b1165402c872b25af51850430090610af88184611735565b15610b2657610b267f2369ff30000000000000000000000000000000000000000000000000000000006109ec565b6104238184610e9c565b80821015610b6157610b617f947d5a84000000000000000000000000000000000000000000000000000000006109ec565b505050565b610b6f8461174c565b7f804ad633258ac9b908ae115a2763b3f6e04be3b1165402c872b25af518504300610b9a8186610e9c565b505f858152600280830160205260408220918791879187918591908201610bc284868361242e565b50509290925550505f8681526003830160205260408120905b8451811015610c7357610c10858281518110610bf957610bf961222f565b60200260200101518361173590919063ffffffff16565b15610c3e57610c3e7f2369ff30000000000000000000000000000000000000000000000000000000006109ec565b610c6a858281518110610c5357610c5361222f565b602002602001015183610e9c90919063ffffffff16565b50600101610bdb565b5050505050505050565b610ca77f672ef851d5f92307da037116e23aa9e31af7e1f7e3ca62c4e6d540631df3fd0182611735565b6101bc576101bc7fa3f70f7b000000000000000000000000000000000000000000000000000000006109ec565b610d00817f804ad633258ac9b908ae115a2763b3f6e04be3b1165402c872b25af5185043005b90611735565b6101bc576101bc7fac169682000000000000000000000000000000000000000000000000000000006109ec565b805481905f5b81811015610e0d575f84815260208120820190505f610df986835f018054610d5a9061239f565b80601f0160208091040260200160405190810160405280929190818152602001828054610d869061239f565b8015610dd15780601f10610da857610100808354040283529160200191610dd1565b820191905f5260205f20905b815481529060010190602001808311610db457829003601f168201915b5050505050805180820160209081018051600195909501815291810192019190912091905290565b55610e04815f611e8b565b50600101610d33565b50505f905550565b5f819003610207576102077f0ce76c10000000000000000000000000000000000000000000000000000000006109ec565b805160208183018101805160018601825292820191840191909120919052805415908115610e95578354600181018086555f86815260209020869291908201610e8f8782612544565b50835550505b5092915050565b5f610ea783836117a4565b9392505050565b610eb782610c7d565b610ec081610cd4565b5f8281527f672ef851d5f92307da037116e23aa9e31af7e1f7e3ca62c4e6d540631df3fd056020908152604080832084845290915290207f672ef851d5f92307da037116e23aa9e31af7e1f7e3ca62c4e6d540631df3fd0090610f2281610d2d565b5f8481526004830160205260409020610f3b90846116c0565b506040518390859033907f07439707c74b686d8e4d3f3226348eac82205e6dffd780ac4c555a4c2dc9d86c905f90a450505050565b5f60605f610f7d84610cd4565b5f8481527f804ad633258ac9b908ae115a2763b3f6e04be3b1165402c872b25af5185043026020526040902080546002820180549195507f804ad633258ac9b908ae115a2763b3f6e04be3b1165402c872b25af5185043009291610fe09061239f565b80601f016020809104026020016040519081016040528092919081815260200182805461100c9061239f565b80156110575780601f1061102e57610100808354040283529160200191611057565b820191905f5260205f20905b81548152906001019060200180831161103a57829003601f168201915b50505060019093015496989197505060ff909516949350505050565b606061107e82610cd4565b5f8281527f804ad633258ac9b908ae115a2763b3f6e04be3b1165402c872b25af518504303602052604090207f804ad633258ac9b908ae115a2763b3f6e04be3b1165402c872b25af51850430090610ea7906117f0565b60607f804ad633258ac9b908ae115a2763b3f6e04be3b1165402c872b25af518504300611101816117f0565b91505090565b61111082610cd4565b611119826116d4565b5f8281527f804ad633258ac9b908ae115a2763b3f6e04be3b1165402c872b25af518504303602052604090207f804ad633258ac9b908ae115a2763b3f6e04be3b1165402c872b25af518504300906111718184611735565b61119e5761119e7f6796073e000000000000000000000000000000000000000000000000000000006109ec565b61042381846116c0565b6111b184610cd4565b5f8481527f804ad633258ac9b908ae115a2763b3f6e04be3b1165402c872b25af518504302602052604090207f804ad633258ac9b908ae115a2763b3f6e04be3b1165402c872b25af5185043009083158015906112d757506112d581600201805461121b9061239f565b80601f01602080910402602001604051908101604052809291908181526020018280546112479061239f565b80156112925780601f1061126957610100808354040283529160200191611292565b820191905f5260205f20905b81548152906001019060200180831161127557829003601f168201915b505050505086868080601f0160208091040260200160405190810160405280939291908181526020018383808284375f9201919091525092939250506117fc9050565b155b156112ed57600281016112eb85878361242e565b505b600181015460ff1615158315151461132e576001810180547fffffffffffffffffffffffffffffffffffffffffffffffffffffffffffffff00168415151790555b505050505050565b5f807fd2f24d4f172e4e84e48e7c4125b6e904c29e5eba33ad4938fee51dd5dbd4b600805460018201546040517f6352211e000000000000000000000000000000000000000000000000000000008152600481019190915291925073ffffffffffffffffffffffffffffffffffffffff1690636352211e90602401602060405180830381865afa1580156113cc573d5f5f3e3d5ffd5b505050506040513d601f19601f820116820180604052508101906111019190612683565b5f5f6113fa611336565b90505f61140685611812565b80519091505f611414611b56565b80519091505f5b83811015611503575f8582815181106114365761143661222f565b602002602001015190508673ffffffffffffffffffffffffffffffffffffffff168173ffffffffffffffffffffffffffffffffffffffff1603611483576001975050505050505050610ea7565b5f5b838110156114f9578173ffffffffffffffffffffffffffffffffffffffff166114c68683815181106114b9576114b961222f565b6020026020010151611b81565b73ffffffffffffffffffffffffffffffffffffffff16036114f1575f98505050505050505050610ea7565b600101611485565b505060010161141b565b507fa558e822bd359dacbe30f0da89cbfde5f95895b441e13a4864caec1423c931005f61154f7fa558e822bd359dacbe30f0da89cbfde5f95895b441e13a4864caec1423c93101611b8b565b90505f5b818110156116af575f838161156b6001830185611b94565b73ffffffffffffffffffffffffffffffffffffffff908116825260208083019390935260409182015f205482517f2e1b61e40000000000000000000000000000000000000000000000000000000081529251911693508392632e1b61e492600480820193918290030181865afa1580156115e7573d5f5f3e3d5ffd5b505050506040513d601f19601f8201168201806040525081019061160b919061269c565b15801561168f57508073ffffffffffffffffffffffffffffffffffffffff16630cf0b5338e8a8e6040518463ffffffff1660e01b8152600401611650939291906126b7565b602060405180830381865afa15801561166b573d5f5f3e3d5ffd5b505050506040513d601f19601f8201168201806040525081019061168f919061269c565b156116a65760019950505050505050505050610ea7565b50600101611553565b505f9b9a5050505050505050505050565b5f610ea78383611b9f565b6101bc81611c82565b5f8181527f804ad633258ac9b908ae115a2763b3f6e04be3b1165402c872b25af518504302602052604090206001015460ff16156101bc576101bc7fd9c00512000000000000000000000000000000000000000000000000000000006109ec565b5f8181526001830160205260408120541515610ea7565b611776817f804ad633258ac9b908ae115a2763b3f6e04be3b1165402c872b25af518504300610cfa565b156101bc576101bc7f8c93df64000000000000000000000000000000000000000000000000000000006109ec565b5f8181526001830160205260408120546117e957508154600181810184555f8481526020808220909301849055845484825282860190935260409020919091556103a1565b505f6103a1565b60605f610ea783611cdb565b8051602091820120825192909101919091201490565b60605f7fc21004fcc619240a31f006438274d15cd813308303284436eef6055f0fdcb600600601546040517f02345b9800000000000000000000000000000000000000000000000000000000815273ffffffffffffffffffffffffffffffffffffffff858116600483015290911691505f9082906302345b98906024015f60405180830381865afa1580156118a9573d5f5f3e3d5ffd5b505050506040513d5f823e601f3d9081017fffffffffffffffffffffffffffffffffffffffffffffffffffffffffffffffe01682016040526118ee9190810190612722565b905080515f03611a5f576040517ff821039800000000000000000000000000000000000000000000000000000000815273ffffffffffffffffffffffffffffffffffffffff85811660048301525f919084169063f821039890602401602060405180830381865afa158015611965573d5f5f3e3d5ffd5b505050506040513d601f19601f820116820180604052508101906119899190612683565b905073ffffffffffffffffffffffffffffffffffffffff811615611a5d576040517f02345b9800000000000000000000000000000000000000000000000000000000815273ffffffffffffffffffffffffffffffffffffffff808316600483015291955085918416906302345b98906024015f60405180830381865afa158015611a15573d5f5f3e3d5ffd5b505050506040513d5f823e601f3d9081017fffffffffffffffffffffffffffffffffffffffffffffffffffffffffffffffe0168201604052611a5a9190810190612722565b91505b505b80515f611a6d82600161282d565b67ffffffffffffffff811115611a8557611a85612202565b604051908082528060200260200182016040528015611aae578160200160208202803683370190505b5090505f5b82811015611b1457838181518110611acd57611acd61222f565b6020026020010151828281518110611ae757611ae761222f565b73ffffffffffffffffffffffffffffffffffffffff90921660209283029190910190910152600101611ab3565b5085818381518110611b2857611b2861222f565b73ffffffffffffffffffffffffffffffffffffffff9092166020928302919091019091015295945050505050565b60606104347f49daf035076c43671ca9f9fb568d931e51ab7f9098a5a694781b45341112cf006117f0565b5f6103a182611d34565b5f6103a1825490565b5f610ea78383611e65565b5f8181526001830160205260408120548015611c79575f611bc1600183612840565b85549091505f90611bd490600190612840565b9050808214611c33575f865f018281548110611bf257611bf261222f565b905f5260205f200154905080875f018481548110611c1257611c1261222f565b5f918252602080832090910192909255918252600188019052604090208390555b8554869080611c4457611c44612853565b600190038181905f5260205f20015f90559055856001015f8681526020019081526020015f205f9055600193505050506103a1565b5f9150506103a1565b5f611c8b825490565b90505f5b81811015611cd457826001015f845f018381548110611cb057611cb061222f565b905f5260205f20015481526020019081526020015f205f9055806001019050611c8f565b50505f9055565b6060815f01805480602002602001604051908101604052809291908181526020018280548015611d2857602002820191905f5260205f20905b815481526020019060010190808311611d14575b50505050509050919050565b5f8181527f6569bde4a160c636ea8b8d11acb83a60d7fec0b8f2e09389306cba0e1340df046020526040812054907f6569bde4a160c636ea8b8d11acb83a60d7fec0b8f2e09389306cba0e1340df00907c010000000000000000000000000000000000000000000000000000000083169003611e3257815f03611e2c5780548310611deb576040517fdf2d9b4200000000000000000000000000000000000000000000000000000000815260040160405180910390fd5b5b7fffffffffffffffffffffffffffffffffffffffffffffffffffffffffffffffff9092015f81815260048401602052604090205490929091508115611dec575b50919050565b506040517fdf2d9b4200000000000000000000000000000000000000000000000000000000815260040160405180910390fd5b5f825f018281548110611e7a57611e7a61222f565b905f5260205f200154905092915050565b508054611e979061239f565b5f825580601f10611ea6575050565b601f0160209004905f5260205f20908101906101bc91905b80821115611ed1575f8155600101611ebe565b5090565b5f60208284031215611ee5575f5ffd5b5035919050565b5f5f60408385031215611efd575f5ffd5b50508035926020909101359150565b5f5f83601f840112611f1c575f5ffd5b50813567ffffffffffffffff811115611f33575f5ffd5b602083019150836020828501011115611f4a575f5ffd5b9250929050565b5f5f83601f840112611f61575f5ffd5b50813567ffffffffffffffff811115611f78575f5ffd5b6020830191508360208260051b8501011115611f4a575f5ffd5b5f5f5f5f5f60608688031215611fa6575f5ffd5b85359450602086013567ffffffffffffffff811115611fc3575f5ffd5b611fcf88828901611f0c565b909550935050604086013567ffffffffffffffff811115611fee575f5ffd5b611ffa88828901611f51565b969995985093965092949392505050565b805182526020810151151560208301525f6040820151608060408501528051806080860152806020830160a087015e5f60a082870101527fffffffffffffffffffffffffffffffffffffffffffffffffffffffffffffffe0601f820116850191505060a08101606084015160a086840301606087015281815180845260c0850191506020830194505f93505b808410156120ba5784518252602082019150602085019450600184019350612097565b509695505050505050565b602081525f610ea7602083018461200b565b5f602082016020835280845180835260408501915060408160051b8601019250602086015f5b8281101561214c577fffffffffffffffffffffffffffffffffffffffffffffffffffffffffffffffc087860301845261213785835161200b565b945060209384019391909101906001016120fd565b50929695505050505050565b602080825282518282018190525f918401906040840190835b8181101561218f578351835260209384019390920191600101612171565b509095945050505050565b80151581146101bc575f5ffd5b5f5f5f5f606085870312156121ba575f5ffd5b84359350602085013567ffffffffffffffff8111156121d7575f5ffd5b6121e387828801611f0c565b90945092505060408501356121f78161219a565b939692955090935050565b7f4e487b71000000000000000000000000000000000000000000000000000000005f52604160045260245ffd5b7f4e487b71000000000000000000000000000000000000000000000000000000005f52603260045260245ffd5b5f82357fffffffffffffffffffffffffffffffffffffffffffffffffffffffffffffffc183360301811261228e575f5ffd5b9190910192915050565b5f5f83357fffffffffffffffffffffffffffffffffffffffffffffffffffffffffffffffe18436030181126122cb575f5ffd5b83018035915067ffffffffffffffff8211156122e5575f5ffd5b6020019150600581901b3603821315611f4a575f5ffd5b5f5f83357fffffffffffffffffffffffffffffffffffffffffffffffffffffffffffffffe184360301811261232f575f5ffd5b83018035915067ffffffffffffffff821115612349575f5ffd5b602001915036819003821315611f4a575f5ffd5b80516020808301519190811015611e2c577fffffffffffffffffffffffffffffffffffffffffffffffffffffffffffffffff60209190910360031b1b16919050565b600181811c908216806123b357607f821691505b602082108103611e2c577f4e487b71000000000000000000000000000000000000000000000000000000005f52602260045260245ffd5b601f821115610b6157805f5260205f20601f840160051c8101602085101561240f5750805b601f840160051c820191505b81811015610423575f815560010161241b565b67ffffffffffffffff83111561244657612446612202565b61245a83612454835461239f565b836123ea565b5f601f8411600181146124aa575f85156124745750838201355b7fffffffffffffffffffffffffffffffffffffffffffffffffffffffffffffffff600387901b1c1916600186901b178355610423565b5f838152602081207fffffffffffffffffffffffffffffffffffffffffffffffffffffffffffffffe08716915b828110156124f757868501358255602094850194600190920191016124d7565b5086821015612532577fffffffffffffffffffffffffffffffffffffffffffffffffffffffffffffffff60f88860031b161c19848701351681555b505060018560011b0183555050505050565b815167ffffffffffffffff81111561255e5761255e612202565b6125728161256c845461239f565b846123ea565b6020601f8211600181146125c3575f831561258d5750848201515b7fffffffffffffffffffffffffffffffffffffffffffffffffffffffffffffffff600385901b1c1916600184901b178455610423565b5f848152602081207fffffffffffffffffffffffffffffffffffffffffffffffffffffffffffffffe08516915b8281101561261057878501518255602094850194600190920191016125f0565b508482101561264c57868401517fffffffffffffffffffffffffffffffffffffffffffffffffffffffffffffffff600387901b60f8161c191681555b50505050600190811b01905550565b805173ffffffffffffffffffffffffffffffffffffffff8116811461267e575f5ffd5b919050565b5f60208284031215612693575f5ffd5b610ea78261265b565b5f602082840312156126ac575f5ffd5b8151610ea78161219a565b5f60608201858352606060208401528085518083526080850191506020870192505f5b8181101561270e57835173ffffffffffffffffffffffffffffffffffffffff168352602093840193909201916001016126da565b505060409390930193909352509392505050565b5f60208284031215612732575f5ffd5b815167ffffffffffffffff811115612748575f5ffd5b8201601f81018413612758575f5ffd5b805167ffffffffffffffff81111561277257612772612202565b8060051b6040517fffffffffffffffffffffffffffffffffffffffffffffffffffffffffffffffe0603f830116810181811067ffffffffffffffff821117156127bd576127bd612202565b6040529182526020818401810192908101878411156127da575f5ffd5b6020850194505b838510156120ba576127f28561265b565b8152602094850194016127e1565b7f4e487b71000000000000000000000000000000000000000000000000000000005f52601160045260245ffd5b808201808211156103a1576103a1612800565b818103818111156103a1576103a1612800565b7f4e487b71000000000000000000000000000000000000000000000000000000005f52603160045260245ffd","linkReferences":{}},"methodIdentifiers":{"addRoleToChannel(bytes32,uint256)":"37644cf7","createChannel(bytes32,string,uint256[])":"921f7175","createChannelWithOverridePermissions(bytes32,string,(uint256,string[])[])":"5a2dce7a","getChannel(bytes32)":"831c2b82","getChannels()":"9575f6ac","getRolesByChannel(bytes32)":"99352183","removeChannel(bytes32)":"02da0e51","removeRoleFromChannel(bytes32,uint256)":"b9de6159","updateChannel(bytes32,string,bool)":"ef86d696"},"id":510}