{"abi":[{"type":"function","name":"addRoleToChannel","inputs":[{"name":"channelId","type":"bytes32","internalType":"bytes32"},{"name":"roleId","type":"uint256","internalType":"uint256"}],"outputs":[],"stateMutability":"nonpayable"},{"type":"function","name":"createChannel","inputs":[{"name":"channelId","type":"bytes32","internalType":"bytes32"},{"name":"metadata","type":"string","internalType":"string"},{"name":"roleIds","type":"uint256[]","internalType":"uint256[]"}],"outputs":[],"stateMutability":"nonpayable"},{"type":"function","name":"createChannelWithOverridePermissions","inputs":[{"name":"channelId","type":"bytes32","internalType":"bytes32"},{"name":"metadata","type":"string","internalType":"string"},{"name":"rolePermissions","type":"tuple[]","internalType":"struct IChannelBase.RolePermissions[]","components":[{"name":"roleId","type":"uint256","internalType":"uint256"},{"name":"permissions","type":"string[]","internalType":"string[]"}]}],"outputs":[],"stateMutability":"nonpayable"},{"type":"function","name":"getChannel","inputs":[{"name":"channelId","type":"bytes32","internalType":"bytes32"}],"outputs":[{"name":"channel","type":"tuple","internalType":"struct IChannelBase.Channel","components":[{"name":"id","type":"bytes32","internalType":"bytes32"},{"name":"disabled","type":"bool","internalType":"bool"},{"name":"metadata","type":"string","internalType":"string"},{"name":"roleIds","type":"uint256[]","internalType":"uint256[]"}]}],"stateMutability":"view"},{"type":"function","name":"getChannels","inputs":[],"outputs":[{"name":"channels","type":"tuple[]","internalType":"struct IChannelBase.Channel[]","components":[{"name":"id","type":"bytes32","internalType":"bytes32"},{"name":"disabled","type":"bool","internalType":"bool"},{"name":"metadata","type":"string","internalType":"string"},{"name":"roleIds","type":"uint256[]","internalType":"uint256[]"}]}],"stateMutability":"view"},{"type":"function","name":"getRolesByChannel","inputs":[{"name":"channelId","type":"bytes32","internalType":"bytes32"}],"outputs":[{"name":"roleIds","type":"uint256[]","internalType":"uint256[]"}],"stateMutability":"view"},{"type":"function","name":"removeChannel","inputs":[{"name":"channelId","type":"bytes32","internalType":"bytes32"}],"outputs":[],"stateMutability":"nonpayable"},{"type":"function","name":"removeRoleFromChannel","inputs":[{"name":"channelId","type":"bytes32","internalType":"bytes32"},{"name":"roleId","type":"uint256","internalType":"uint256"}],"outputs":[],"stateMutability":"nonpayable"},{"type":"function","name":"updateChannel","inputs":[{"name":"channelId","type":"bytes32","internalType":"bytes32"},{"name":"metadata","type":"string","internalType":"string"},{"name":"disabled","type":"bool","internalType":"bool"}],"outputs":[],"stateMutability":"nonpayable"},{"type":"event","name":"Approval","inputs":[{"name":"owner","type":"address","indexed":true,"internalType":"address"},{"name":"approved","type":"address","indexed":true,"internalType":"address"},{"name":"tokenId","type":"uint256","indexed":true,"internalType":"uint256"}],"anonymous":false},{"type":"event","name":"ApprovalForAll","inputs":[{"name":"owner","type":"address","indexed":true,"internalType":"address"},{"name":"operator","type":"address","indexed":true,"internalType":"address"},{"name":"approved","type":"bool","indexed":false,"internalType":"bool"}],"anonymous":false},{"type":"event","name":"Banned","inputs":[{"name":"moderator","type":"address","indexed":true,"internalType":"address"},{"name":"tokenId","type":"uint256","indexed":true,"internalType":"uint256"}],"anonymous":false},{"type":"event","name":"ChannelCreated","inputs":[{"name":"caller","type":"address","indexed":true,"internalType":"address"},{"name":"channelId","type":"bytes32","indexed":false,"internalType":"bytes32"}],"anonymous":false},{"type":"event","name":"ChannelRemoved","inputs":[{"name":"caller","type":"address","indexed":true,"internalType":"address"},{"name":"channelId","type":"bytes32","indexed":false,"internalType":"bytes32"}],"anonymous":false},{"type":"event","name":"ChannelRoleAdded","inputs":[{"name":"caller","type":"address","indexed":true,"internalType":"address"},{"name":"channelId","type":"bytes32","indexed":false,"internalType":"bytes32"},{"name":"roleId","type":"uint256","indexed":false,"internalType":"uint256"}],"anonymous":false},{"type":"event","name":"ChannelRoleRemoved","inputs":[{"name":"caller","type":"address","indexed":true,"internalType":"address"},{"name":"channelId","type":"bytes32","indexed":false,"internalType":"bytes32"},{"name":"roleId","type":"uint256","indexed":false,"internalType":"uint256"}],"anonymous":false},{"type":"event","name":"ChannelUpdated","inputs":[{"name":"caller","type":"address","indexed":true,"internalType":"address"},{"name":"channelId","type":"bytes32","indexed":false,"internalType":"bytes32"}],"anonymous":false},{"type":"event","name":"ConsecutiveTransfer","inputs":[{"name":"fromTokenId","type":"uint256","indexed":true,"internalType":"uint256"},{"name":"toTokenId","type":"uint256","indexed":false,"internalType":"uint256"},{"name":"from","type":"address","indexed":true,"internalType":"address"},{"name":"to","type":"address","indexed":true,"internalType":"address"}],"anonymous":false},{"type":"event","name":"Initialized","inputs":[{"name":"version","type":"uint32","indexed":false,"internalType":"uint32"}],"anonymous":false},{"type":"event","name":"InterfaceAdded","inputs":[{"name":"interfaceId","type":"bytes4","indexed":true,"internalType":"bytes4"}],"anonymous":false},{"type":"event","name":"InterfaceRemoved","inputs":[{"name":"interfaceId","type":"bytes4","indexed":true,"internalType":"bytes4"}],"anonymous":false},{"type":"event","name":"OwnershipTransferred","inputs":[{"name":"previousOwner","type":"address","indexed":true,"internalType":"address"},{"name":"newOwner","type":"address","indexed":true,"internalType":"address"}],"anonymous":false},{"type":"event","name":"Paused","inputs":[{"name":"account","type":"address","indexed":false,"internalType":"address"}],"anonymous":false},{"type":"event","name":"PermissionsAddedToChannelRole","inputs":[{"name":"updater","type":"address","indexed":true,"internalType":"address"},{"name":"roleId","type":"uint256","indexed":true,"internalType":"uint256"},{"name":"channelId","type":"bytes32","indexed":true,"internalType":"bytes32"}],"anonymous":false},{"type":"event","name":"PermissionsRemovedFromChannelRole","inputs":[{"name":"updater","type":"address","indexed":true,"internalType":"address"},{"name":"roleId","type":"uint256","indexed":true,"internalType":"uint256"},{"name":"channelId","type":"bytes32","indexed":true,"internalType":"bytes32"}],"anonymous":false},{"type":"event","name":"PermissionsUpdatedForChannelRole","inputs":[{"name":"updater","type":"address","indexed":true,"internalType":"address"},{"name":"roleId","type":"uint256","indexed":true,"internalType":"uint256"},{"name":"channelId","type":"bytes32","indexed":true,"internalType":"bytes32"}],"anonymous":false},{"type":"event","name":"RoleCreated","inputs":[{"name":"creator","type":"address","indexed":true,"internalType":"address"},{"name":"roleId","type":"uint256","indexed":true,"internalType":"uint256"}],"anonymous":false},{"type":"event","name":"RoleRemoved","inputs":[{"name":"remover","type":"address","indexed":true,"internalType":"address"},{"name":"roleId","type":"uint256","indexed":true,"internalType":"uint256"}],"anonymous":false},{"type":"event","name":"RoleUpdated","inputs":[{"name":"updater","type":"address","indexed":true,"internalType":"address"},{"name":"roleId","type":"uint256","indexed":true,"internalType":"uint256"}],"anonymous":false},{"type":"event","name":"SubscriptionUpdate","inputs":[{"name":"tokenId","type":"uint256","indexed":true,"internalType":"uint256"},{"name":"expiration","type":"uint64","indexed":false,"internalType":"uint64"}],"anonymous":false},{"type":"event","name":"Transfer","inputs":[{"name":"from","type":"address","indexed":true,"internalType":"address"},{"name":"to","type":"address","indexed":true,"internalType":"address"},{"name":"tokenId","type":"uint256","indexed":true,"internalType":"uint256"}],"anonymous":false},{"type":"event","name":"Unbanned","inputs":[{"name":"moderator","type":"address","indexed":true,"internalType":"address"},{"name":"tokenId","type":"uint256","indexed":true,"internalType":"uint256"}],"anonymous":false},{"type":"event","name":"Unpaused","inputs":[{"name":"account","type":"address","indexed":false,"internalType":"address"}],"anonymous":false},{"type":"error","name":"ApprovalCallerNotOwnerNorApproved","inputs":[]},{"type":"error","name":"ApprovalQueryForNonexistentToken","inputs":[]},{"type":"error","name":"BalanceQueryForZeroAddress","inputs":[]},{"type":"error","name":"Banning__AlreadyBanned","inputs":[{"name":"tokenId","type":"uint256","internalType":"uint256"}]},{"type":"error","name":"Banning__CannotBanOwner","inputs":[]},{"type":"error","name":"Banning__CannotBanSelf","inputs":[]},{"type":"error","name":"Banning__InvalidTokenId","inputs":[{"name":"tokenId","type":"uint256","internalType":"uint256"}]},{"type":"error","name":"Banning__NotBanned","inputs":[{"name":"tokenId","type":"uint256","internalType":"uint256"}]},{"type":"error","name":"ChannelService__ChannelAlreadyExists","inputs":[]},{"type":"error","name":"ChannelService__ChannelDisabled","inputs":[]},{"type":"error","name":"ChannelService__ChannelDoesNotExist","inputs":[]},{"type":"error","name":"ChannelService__RoleAlreadyExists","inputs":[]},{"type":"error","name":"ChannelService__RoleDoesNotExist","inputs":[]},{"type":"error","name":"ERC5643__DurationZero","inputs":[]},{"type":"error","name":"ERC5643__InvalidTokenId","inputs":[{"name":"tokenId","type":"uint256","internalType":"uint256"}]},{"type":"error","name":"ERC5643__NotApprovedOrOwner","inputs":[]},{"type":"error","name":"ERC5643__SubscriptionNotRenewable","inputs":[{"name":"tokenId","type":"uint256","internalType":"uint256"}]},{"type":"error","name":"Entitlement__InvalidValue","inputs":[]},{"type":"error","name":"Entitlement__NotAllowed","inputs":[]},{"type":"error","name":"Entitlement__NotMember","inputs":[]},{"type":"error","name":"Entitlement__ValueAlreadyExists","inputs":[]},{"type":"error","name":"Initializable_InInitializingState","inputs":[]},{"type":"error","name":"Introspection_AlreadySupported","inputs":[]},{"type":"error","name":"Introspection_NotSupported","inputs":[]},{"type":"error","name":"MintERC2309QuantityExceedsLimit","inputs":[]},{"type":"error","name":"MintToZeroAddress","inputs":[]},{"type":"error","name":"MintZeroQuantity","inputs":[]},{"type":"error","name":"Ownable__NotOwner","inputs":[{"name":"account","type":"address","internalType":"address"}]},{"type":"error","name":"Ownable__ZeroAddress","inputs":[]},{"type":"error","name":"OwnerQueryForNonexistentToken","inputs":[]},{"type":"error","name":"OwnershipNotInitializedForExtraData","inputs":[]},{"type":"error","name":"Pausable__NotPaused","inputs":[]},{"type":"error","name":"Pausable__Paused","inputs":[]},{"type":"error","name":"Roles__EntitlementAlreadyExists","inputs":[]},{"type":"error","name":"Roles__EntitlementDoesNotExist","inputs":[]},{"type":"error","name":"Roles__InvalidEntitlementAddress","inputs":[]},{"type":"error","name":"Roles__InvalidPermission","inputs":[]},{"type":"error","name":"Roles__PermissionAlreadyExists","inputs":[]},{"type":"error","name":"Roles__PermissionDoesNotExist","inputs":[]},{"type":"error","name":"Roles__RoleDoesNotExist","inputs":[]},{"type":"error","name":"TransferCallerNotOwnerNorApproved","inputs":[]},{"type":"error","name":"TransferFromIncorrectOwner","inputs":[]},{"type":"error","name":"TransferToNonERC721ReceiverImplementer","inputs":[]},{"type":"error","name":"TransferToZeroAddress","inputs":[]},{"type":"error","name":"URIQueryForNonexistentToken","inputs":[]},{"type":"error","name":"Validator__InvalidStringLength","inputs":[]}],"bytecode":{"object":"0x60806040523480156200001157600080fd5b506200001c62000022565b620000ca565b7f59b501c3653afc186af7d48dda36cf6732bd21629a6295693664240a6ef520008054640100000000900460ff16156200006f576040516366008a2d60e01b815260040160405180910390fd5b805463ffffffff9081161015620000c757805463ffffffff191663ffffffff90811782556040519081527fe9c9b456cb2994b80aeef036cf59d26e9617df80f816a6ee5a5b4166e07e2f5c9060200160405180910390a15b50565b61263f80620000da6000396000f3fe608060405234801561001057600080fd5b50600436106100935760003560e01c8063921f717511610066578063921f7175146100fc5780639575f6ac1461010f5780639935218314610124578063b9de615914610144578063ef86d6961461015757600080fd5b806302da0e511461009857806337644cf7146100ad5780635a2dce7a146100c0578063831c2b82146100d3575b600080fd5b6100ab6100a6366004611d48565b61016a565b005b6100ab6100bb366004611d61565b6101a8565b6100ab6100ce366004611e38565b6101e8565b6100e66100e1366004611d48565b610348565b6040516100f39190611f92565b60405180910390f35b6100ab61010a366004611fc8565b61037a565b6101176103bc565b6040516100f3919061208f565b610137610132366004611d48565b6103cb565b6040516100f391906120f3565b6100ab610152366004611d61565b6103d6565b6100ab610165366004612145565b610412565b61019c6040518060400160405280601181526020017041646452656d6f76654368616e6e656c7360781b81525061044f565b6101a581610477565b50565b6101da6040518060400160405280601181526020017041646452656d6f76654368616e6e656c7360781b81525061044f565b6101e482826104b8565b5050565b61021a6040518060400160405280601181526020017041646452656d6f76654368616e6e656c7360781b81525061044f565b6000816001600160401b0381111561023457610234611d83565b60405190808252806020026020018201604052801561025d578160200160208202803683370190505b50905060005b828110156102b85783838281811061027d5761027d61219f565b905060200281019061028f91906121b5565b600001358282815181106102a5576102a561219f565b6020908102919091010152600101610263565b506102c4858583610502565b60005b82811015610340576103388484838181106102e4576102e461219f565b90506020028101906102f691906121b5565b358786868581811061030a5761030a61219f565b905060200281019061031c91906121b5565b61032a9060208101906121d5565b61033391612225565b610553565b6001016102c7565b505050505050565b6040805160808101825260008082526020820152606091810182905281810191909152610374826106ee565b92915050565b6103ac6040518060400160405280601181526020017041646452656d6f76654368616e6e656c7360781b81525061044f565b6103b7838383610502565b505050565b60606103c6610755565b905090565b60606103748261088c565b6104086040518060400160405280601181526020017041646452656d6f76654368616e6e656c7360781b81525061044f565b6101e48282610897565b6104446040518060400160405280601181526020017041646452656d6f76654368616e6e656c7360781b81525061044f565b6103b78383836108d9565b61045a600082610916565b6101a557604051630ce39a4b60e21b815260040160405180910390fd5b6104808161099a565b60405181815233907f3a3f387aa42656bc1732adfc7aea5cde9ccc05a59f9af9c29ebfa68e66383e939060200160405180910390a250565b6104c28282610a91565b604080518381526020810183905233917f2b10481523b59a7978f8ab73b237349b0f38c801f6094bdc8994d379c067d71391015b60405180910390a25050565b61050d826000610b22565b610518838383610b46565b60405183815233907fdd6c5b83be3557f8b2674712946f9f05dcd882b82bfd58b9539b9706efd35d8c906020015b60405180910390a2505050565b61055c82610c80565b61056583610cb7565b60008381527f672ef851d5f92307da037116e23aa9e31af7e1f7e3ca62c4e6d540631df3fd04602052604090207f672ef851d5f92307da037116e23aa9e31af7e1f7e3ca62c4e6d540631df3fd00906105be9084610cfe565b50600084815260058201602090815260408083208684529091528120906105e3825490565b111561063d5760006105f482610d11565b805190915060005b81811015610639576106308382815181106106195761061961219f565b602002602001015185610dee90919063ffffffff16565b506001016105fc565b5050505b825180156106ad5760005b818110156106a7576106728582815181106106655761066561219f565b6020026020010151610f30565b61069e8582815181106106875761068761219f565b602002602001015184610f5190919063ffffffff16565b50600101610648565b506106b7565b6106b78686610fb9565b6040518590879033907f38ef31503bf60258feeceab5e2c3778cf74be2a8fbcc150d209ca96cd3c9855390600090a4505050505050565b604080516080810182526000808252602082015260609181018290528181019190915260008061071d846110af565b9250925050600061072d856111cf565b6040805160808101825296875292151560208701529185019290925260608401525090919050565b60606000610761611220565b9050600081516001600160401b0381111561077e5761077e611d83565b6040519080825280602002602001820160405280156107d257816020015b604080516080810182526000808252602082015260609181018290528181019190915281526020019060019003908161079c5790505b50905060005b82518110156108855760008060006108088685815181106107fb576107fb61219f565b60200260200101516110af565b92509250925060006108328786815181106108255761082561219f565b60200260200101516111cf565b905060405180608001604052808581526020018315158152602001848152602001828152508686815181106108695761086961219f565b60200260200101819052505050505080806001019150506107d8565b5092915050565b6060610374826111cf565b6108a18282611240565b604080518381526020810183905233917faee688d80dbf97230e5d2b4b06aa7074bfe38ddd8abf856551177db30395612991016104f6565b6108e48383836112d0565b60405183815233907f94af4a611b3fb1eaa653a6b29f82b71bcea25ca378171c5f059010fa18e0716e90602001610546565b60003380610922611385565b6001600160a01b0316148061099257507fe17a067c7963a59b6dfd65d33b053fdbea1c56500e2aae4f976d9eda4da9eb005460ff1615801561099257506109928482856040516020016109759190612298565b60405160208183030381529060405261098d906122aa565b61141c565b949350505050565b6109a381610c80565b60008051602061261f8339815191526109bc8183611695565b5060408051602080820183526000808352858152600280860190925292909220909101906109ea908261234a565b50600082815260028083016020526040822060018101805460ff191690558281559190610a1990830182611cfa565b505060008281526003820160205260408120610a34906116a1565b905060005b8151811015610a8b57610a82828281518110610a5757610a5761219f565b602002602001015184600301600087815260200190815260200160002061169590919063ffffffff16565b50600101610a39565b50505050565b610a9a82610c80565b610aa3826116ae565b60008281527f804ad633258ac9b908ae115a2763b3f6e04be3b1165402c872b25af5185043036020526040902060008051602061261f83398151915290610aea9083611710565b15610b08576040516302369ff360e41b815260040160405180910390fd5b60008381526003820160205260409020610a8b9083610cfe565b815182908211156103b7576040516374eb20a760e01b815260040160405180910390fd5b610b4f83611728565b60008051602061261f833981519152610b688185610cfe565b50604080516060810182528581526000602080830182815283850188815289845260028781019093529490922083518155915160018301805460ff191691151591909117905592519192909190820190610bc2908261234a565b5090505060005b8251811015610c7957610c12838281518110610be757610be761219f565b602002602001015183600301600088815260200190815260200160002061171090919063ffffffff16565b15610c30576040516302369ff360e41b815260040160405180910390fd5b610c70838281518110610c4557610c4561219f565b6020026020010151836003016000888152602001908152602001600020610cfe90919063ffffffff16565b50600101610bc9565b5050505050565b610c9a8160008051602061261f8339815191525b90611710565b6101a55760405163560b4b4160e11b815260040160405180910390fd5b610ce17f672ef851d5f92307da037116e23aa9e31af7e1f7e3ca62c4e6d540631df3fd0182611710565b6101a55760405163a3f70f7b60e01b815260040160405180910390fd5b6000610d0a838361175e565b9392505050565b606081600001805480602002602001604051908101604052809291908181526020016000905b82821015610de3578382906000526020600020018054610d56906122ce565b80601f0160208091040260200160405190810160405280929190818152602001828054610d82906122ce565b8015610dcf5780601f10610da457610100808354040283529160200191610dcf565b820191906000526020600020905b815481529060010190602001808311610db257829003601f168201915b505050505081526020019060010190610d37565b505050509050919050565b805160208183018101805160018601825292820191840191909120919052805480158015929190610f2857845460008681526020902086919060001980830191830101848314610f15576000818054610e46906122ce565b80601f0160208091040260200160405190810160405280929190818152602001828054610e72906122ce565b8015610ebf5780601f10610e9457610100808354040283529160200191610ebf565b820191906000526020600020905b815481529060010190602001808311610ea257829003601f168201915b50505050509050808a6000016001880381548110610edf57610edf61219f565b906000526020600020019081610ef5919061234a565b50805160208183018101805160018e018252928201919093012091528590555b610f1e816117ad565b5090915550600082555b505092915050565b80516000036101a55760405162ce76c160e41b815260040160405180910390fd5b80516020818301810180516001860182529282019184019190912091905280541590811561088557835460018101808655859190858383838110610f9757610f9761219f565b906000526020600020019081610fad919061234a565b50835550505092915050565b610fc282610cb7565b610fcb81610c80565b60008281527f672ef851d5f92307da037116e23aa9e31af7e1f7e3ca62c4e6d540631df3fd056020908152604080832084845290915281207f672ef851d5f92307da037116e23aa9e31af7e1f7e3ca62c4e6d540631df3fd009161102e82610d11565b805190915060005b8181101561105c576110538382815181106106195761061961219f565b50600101611036565b50600086815260048501602052604090206110779086611695565b506040518590879033907f07439707c74b686d8e4d3f3226348eac82205e6dffd780ac4c555a4c2dc9d86c90600090a4505050505050565b6000606060006110be84610c80565b60008481527f804ad633258ac9b908ae115a2763b3f6e04be3b1165402c872b25af51850430260209081526040808320815160608101835281548152600182015460ff1615159381019390935260028101805460008051602061261f83398151915295949384019190611130906122ce565b80601f016020809104026020016040519081016040528092919081815260200182805461115c906122ce565b80156111a95780601f1061117e576101008083540402835291602001916111a9565b820191906000526020600020905b81548152906001019060200180831161118c57829003601f168201915b505050919092525050815160408301516020909301519099929850965090945050505050565b60606111da82610c80565b60008281527f804ad633258ac9b908ae115a2763b3f6e04be3b1165402c872b25af5185043036020526040902060008051602061261f83398151915290610d0a906116a1565b606060008051602061261f83398151915261123a816116a1565b91505090565b61124982610c80565b611252826116ae565b60008281527f804ad633258ac9b908ae115a2763b3f6e04be3b1165402c872b25af5185043036020526040902060008051602061261f833981519152906112999083611710565b6112b6576040516333cb039f60e11b815260040160405180910390fd5b60008381526003820160205260409020610a8b9083611695565b6112d983610c80565b60008381527f804ad633258ac9b908ae115a2763b3f6e04be3b1165402c872b25af51850430260205260409020825160008051602061261f8339815191529190158015906113465750806002016040516113339190612409565b6040518091039020848051906020012014155b1561135b5760028101611359858261234a565b505b600181015460ff16151583151514610c7957600101805460ff191692151592909217909155505050565b6000807fd2f24d4f172e4e84e48e7c4125b6e904c29e5eba33ad4938fee51dd5dbd4b600805460018201546040516331a9108f60e11b815260048101919091529192506001600160a01b031690636352211e90602401602060405180830381865afa1580156113f8573d6000803e3d6000fd5b505050506040513d601f19601f8201168201806040525081019061123a919061249b565b600080611427611385565b90506000611434856117e9565b80519091506000611443611a6a565b805190915060005b838110156115025760008582815181106114675761146761219f565b60200260200101519050866001600160a01b0316816001600160a01b03160361149a576001975050505050505050610d0a565b60005b838110156114f857816001600160a01b03166114d18683815181106114c4576114c461219f565b6020026020010151611a95565b6001600160a01b0316036114f057600098505050505050505050610d0a565b60010161149d565b505060010161144b565b507fa558e822bd359dacbe30f0da89cbfde5f95895b441e13a4864caec1423c93100600061154f7fa558e822bd359dacbe30f0da89cbfde5f95895b441e13a4864caec1423c93101611aa0565b905060005b81811015611683576000838161156d6001830185611aaa565b6001600160a01b0390811682526020808301939093526040918201600020548251630b86d87960e21b81529251911693508392632e1b61e492600480820193918290030181865afa1580156115c6573d6000803e3d6000fd5b505050506040513d601f19601f820116820180604052508101906115ea91906124b6565b1580156116635750806001600160a01b0316630cf0b5338e8a8e6040518463ffffffff1660e01b8152600401611622939291906124d3565b602060405180830381865afa15801561163f573d6000803e3d6000fd5b505050506040513d601f19601f8201168201806040525081019061166391906124b6565b1561167a5760019950505050505050505050610d0a565b50600101611554565b5060009b9a5050505050505050505050565b6000610d0a8383611ab6565b60606000610d0a83611ba9565b60008181527f804ad633258ac9b908ae115a2763b3f6e04be3b1165402c872b25af518504302602052604090206001015460008051602061261f8339815191529060ff16156101e457604051636ce0028960e11b815260040160405180910390fd5b60008181526001830160205260408120541515610d0a565b6117408160008051602061261f833981519152610c94565b156101a557604051632324f7d960e21b815260040160405180910390fd5b60008181526001830160205260408120546117a557508154600181810184556000848152602080822090930184905584548482528286019093526040902091909155610374565b506000610374565b8054600181166000835580156103b757600083815260209020601f600184901c0160051c8101905b81811015610c7957600081556001016117d5565b606060007fc21004fcc619240a31f006438274d15cd813308303284436eef6055f0fdcb6006006015460405162468b7360e31b81526001600160a01b038581166004830152909116915060009082906302345b9890602401600060405180830381865afa15801561185e573d6000803e3d6000fd5b505050506040513d6000823e601f3d908101601f191682016040526118869190810190612535565b604051631f04207360e31b81526001600160a01b03868116600483015291925060009184169063f821039890602401602060405180830381865afa1580156118d2573d6000803e3d6000fd5b505050506040513d601f19601f820116820180604052508101906118f6919061249b565b90508151600014801561191157506001600160a01b03811615155b1561198b5760405162468b7360e31b81526001600160a01b03808316600483015291955085918416906302345b9890602401600060405180830381865afa158015611960573d6000803e3d6000fd5b505050506040513d6000823e601f3d908101601f191682016040526119889190810190612535565b91505b8151600061199a8260016125e2565b6001600160401b038111156119b1576119b1611d83565b6040519080825280602002602001820160405280156119da578160200160208202803683370190505b50905060005b82811015611a34578481815181106119fa576119fa61219f565b6020026020010151828281518110611a1457611a1461219f565b6001600160a01b03909216602092830291909101909101526001016119e0565b5086818381518110611a4857611a4861219f565b6001600160a01b03909216602092830291909101909101529695505050505050565b60606103c67f49daf035076c43671ca9f9fb568d931e51ab7f9098a5a694781b45341112cf006116a1565b600061037482611c05565b6000610374825490565b6000610d0a8383611cd0565b60008181526001830160205260408120548015611b9f576000611ada6001836125f5565b8554909150600090611aee906001906125f5565b9050808214611b53576000866000018281548110611b0e57611b0e61219f565b9060005260206000200154905080876000018481548110611b3157611b3161219f565b6000918252602080832090910192909255918252600188019052604090208390555b8554869080611b6457611b64612608565b600190038181906000526020600020016000905590558560010160008681526020019081526020016000206000905560019350505050610374565b6000915050610374565b606081600001805480602002602001604051908101604052809291908181526020018280548015611bf957602002820191906000526020600020905b815481526020019060010190808311611be5575b50505050509050919050565b60008181527f6569bde4a160c636ea8b8d11acb83a60d7fec0b8f2e09389306cba0e1340df046020526040812054907f6569bde4a160c636ea8b8d11acb83a60d7fec0b8f2e09389306cba0e1340df0090600160e01b83169003611cb65781600003611cb05780548310611c8c57604051636f96cda160e11b815260040160405180910390fd5b5b600019909201600081815260048401602052604090205490929091508115611c8d575b50919050565b50604051636f96cda160e11b815260040160405180910390fd5b6000826000018281548110611ce757611ce761219f565b9060005260206000200154905092915050565b508054611d06906122ce565b6000825580601f10611d16575050565b601f0160209004906000526020600020908101906101a591905b80821115611d445760008155600101611d30565b5090565b600060208284031215611d5a57600080fd5b5035919050565b60008060408385031215611d7457600080fd5b50508035926020909101359150565b634e487b7160e01b600052604160045260246000fd5b604051601f8201601f191681016001600160401b0381118282101715611dc157611dc1611d83565b604052919050565b600082601f830112611dda57600080fd5b81356001600160401b03811115611df357611df3611d83565b611e06601f8201601f1916602001611d99565b818152846020838601011115611e1b57600080fd5b816020850160208301376000918101602001919091529392505050565b60008060008060608587031215611e4e57600080fd5b8435935060208501356001600160401b0380821115611e6c57600080fd5b611e7888838901611dc9565b94506040870135915080821115611e8e57600080fd5b818701915087601f830112611ea257600080fd5b813581811115611eb157600080fd5b8860208260051b8501011115611ec657600080fd5b95989497505060200194505050565b60005b83811015611ef0578181015183820152602001611ed8565b50506000910152565b8051825260006020808301511515818501526040830151608060408601528051806080870152611f2f8160a08801858501611ed5565b601f19601f820116860191505060a08101606085015160a087840301606088015281815180845260c0850191508583019450600093505b80841015611f865784518252938501936001939093019290850190611f66565b50979650505050505050565b602081526000610d0a6020830184611ef9565b60006001600160401b03821115611fbe57611fbe611d83565b5060051b60200190565b600080600060608486031215611fdd57600080fd5b833592506020808501356001600160401b0380821115611ffc57600080fd5b61200888838901611dc9565b9450604087013591508082111561201e57600080fd5b508501601f8101871361203057600080fd5b803561204361203e82611fa5565b611d99565b81815260059190911b8201830190838101908983111561206257600080fd5b928401925b8284101561208057833582529284019290840190612067565b80955050505050509250925092565b600060208083016020845280855180835260408601915060408160051b87010192506020870160005b828110156120e657603f198886030184526120d4858351611ef9565b945092850192908501906001016120b8565b5092979650505050505050565b6020808252825182820181905260009190848201906040850190845b8181101561212b5783518352928401929184019160010161210f565b50909695505050505050565b80151581146101a557600080fd5b60008060006060848603121561215a57600080fd5b8335925060208401356001600160401b0381111561217757600080fd5b61218386828701611dc9565b925050604084013561219481612137565b809150509250925092565b634e487b7160e01b600052603260045260246000fd5b60008235603e198336030181126121cb57600080fd5b9190910192915050565b6000808335601e198436030181126121ec57600080fd5b8301803591506001600160401b0382111561220657600080fd5b6020019150600581901b360382131561221e57600080fd5b9250929050565b600061223361203e84611fa5565b80848252602080830192508560051b85013681111561225157600080fd5b855b8181101561228c5780356001600160401b038111156122725760008081fd5b61227e36828a01611dc9565b865250938201938201612253565b50919695505050505050565b600082516121cb818460208701611ed5565b80516020808301519190811015611cb05760001960209190910360031b1b16919050565b600181811c908216806122e257607f821691505b602082108103611cb057634e487b7160e01b600052602260045260246000fd5b601f8211156103b7576000816000526020600020601f850160051c8101602086101561232b5750805b601f850160051c820191505b8181101561034057828155600101612337565b81516001600160401b0381111561236357612363611d83565b6123778161237184546122ce565b84612302565b602080601f8311600181146123ac57600084156123945750858301515b600019600386901b1c1916600185901b178555610340565b600085815260208120601f198616915b828110156123db578886015182559484019460019091019084016123bc565b50858210156123f95787850151600019600388901b60f8161c191681555b5050505050600190811b01905550565b6000808354612417816122ce565b6001828116801561242f576001811461244457612473565b60ff1984168752821515830287019450612473565b8760005260208060002060005b8581101561246a5781548a820152908401908201612451565b50505082870194505b50929695505050505050565b80516001600160a01b038116811461249657600080fd5b919050565b6000602082840312156124ad57600080fd5b610d0a8261247f565b6000602082840312156124c857600080fd5b8151610d0a81612137565b60006060820185835260206060602085015281865180845260808601915060208801935060005b8181101561251f5784516001600160a01b0316835293830193918301916001016124fa565b5050809350505050826040830152949350505050565b6000602080838503121561254857600080fd5b82516001600160401b0381111561255e57600080fd5b8301601f8101851361256f57600080fd5b805161257d61203e82611fa5565b81815260059190911b8201830190838101908783111561259c57600080fd5b928401925b828410156125c1576125b28461247f565b825292840192908401906125a1565b979650505050505050565b634e487b7160e01b600052601160045260246000fd5b80820180821115610374576103746125cc565b81810381811115610374576103746125cc565b634e487b7160e01b600052603160045260246000fdfe804ad633258ac9b908ae115a2763b3f6e04be3b1165402c872b25af518504300","linkReferences":{}},"methodIdentifiers":{"addRoleToChannel(bytes32,uint256)":"37644cf7","createChannel(bytes32,string,uint256[])":"921f7175","createChannelWithOverridePermissions(bytes32,string,(uint256,string[])[])":"5a2dce7a","getChannel(bytes32)":"831c2b82","getChannels()":"9575f6ac","getRolesByChannel(bytes32)":"99352183","removeChannel(bytes32)":"02da0e51","removeRoleFromChannel(bytes32,uint256)":"b9de6159","updateChannel(bytes32,string,bool)":"ef86d696"},"id":177}