{"abi":[{"type":"function","name":"addRoleToChannel","inputs":[{"name":"channelId","type":"string","internalType":"string"},{"name":"roleId","type":"uint256","internalType":"uint256"}],"outputs":[],"stateMutability":"nonpayable"},{"type":"function","name":"createChannel","inputs":[{"name":"channelId","type":"string","internalType":"string"},{"name":"metadata","type":"string","internalType":"string"},{"name":"roleIds","type":"uint256[]","internalType":"uint256[]"}],"outputs":[],"stateMutability":"nonpayable"},{"type":"function","name":"getChannel","inputs":[{"name":"channelId","type":"string","internalType":"string"}],"outputs":[{"name":"channel","type":"tuple","internalType":"struct IChannelBase.Channel","components":[{"name":"id","type":"string","internalType":"string"},{"name":"disabled","type":"bool","internalType":"bool"},{"name":"metadata","type":"string","internalType":"string"},{"name":"roleIds","type":"uint256[]","internalType":"uint256[]"}]}],"stateMutability":"view"},{"type":"function","name":"getChannels","inputs":[],"outputs":[{"name":"channels","type":"tuple[]","internalType":"struct IChannelBase.Channel[]","components":[{"name":"id","type":"string","internalType":"string"},{"name":"disabled","type":"bool","internalType":"bool"},{"name":"metadata","type":"string","internalType":"string"},{"name":"roleIds","type":"uint256[]","internalType":"uint256[]"}]}],"stateMutability":"view"},{"type":"function","name":"getRolesByChannel","inputs":[{"name":"channelId","type":"string","internalType":"string"}],"outputs":[{"name":"roleIds","type":"uint256[]","internalType":"uint256[]"}],"stateMutability":"view"},{"type":"function","name":"removeChannel","inputs":[{"name":"channelId","type":"string","internalType":"string"}],"outputs":[],"stateMutability":"nonpayable"},{"type":"function","name":"removeRoleFromChannel","inputs":[{"name":"channelId","type":"string","internalType":"string"},{"name":"roleId","type":"uint256","internalType":"uint256"}],"outputs":[],"stateMutability":"nonpayable"},{"type":"function","name":"updateChannel","inputs":[{"name":"channelId","type":"string","internalType":"string"},{"name":"metadata","type":"string","internalType":"string"},{"name":"disabled","type":"bool","internalType":"bool"}],"outputs":[],"stateMutability":"nonpayable"},{"type":"event","name":"Approval","inputs":[{"name":"owner","type":"address","indexed":true,"internalType":"address"},{"name":"approved","type":"address","indexed":true,"internalType":"address"},{"name":"tokenId","type":"uint256","indexed":true,"internalType":"uint256"}],"anonymous":false},{"type":"event","name":"ApprovalForAll","inputs":[{"name":"owner","type":"address","indexed":true,"internalType":"address"},{"name":"operator","type":"address","indexed":true,"internalType":"address"},{"name":"approved","type":"bool","indexed":false,"internalType":"bool"}],"anonymous":false},{"type":"event","name":"ChannelCreated","inputs":[{"name":"caller","type":"address","indexed":true,"internalType":"address"},{"name":"channelId","type":"string","indexed":false,"internalType":"string"}],"anonymous":false},{"type":"event","name":"ChannelRemoved","inputs":[{"name":"caller","type":"address","indexed":true,"internalType":"address"},{"name":"channelId","type":"string","indexed":false,"internalType":"string"}],"anonymous":false},{"type":"event","name":"ChannelRoleAdded","inputs":[{"name":"caller","type":"address","indexed":true,"internalType":"address"},{"name":"channelId","type":"string","indexed":false,"internalType":"string"},{"name":"roleId","type":"uint256","indexed":false,"internalType":"uint256"}],"anonymous":false},{"type":"event","name":"ChannelRoleRemoved","inputs":[{"name":"caller","type":"address","indexed":true,"internalType":"address"},{"name":"channelId","type":"string","indexed":false,"internalType":"string"},{"name":"roleId","type":"uint256","indexed":false,"internalType":"uint256"}],"anonymous":false},{"type":"event","name":"ChannelUpdated","inputs":[{"name":"caller","type":"address","indexed":true,"internalType":"address"},{"name":"channelId","type":"string","indexed":false,"internalType":"string"}],"anonymous":false},{"type":"event","name":"ConsecutiveTransfer","inputs":[{"name":"fromTokenId","type":"uint256","indexed":true,"internalType":"uint256"},{"name":"toTokenId","type":"uint256","indexed":false,"internalType":"uint256"},{"name":"from","type":"address","indexed":true,"internalType":"address"},{"name":"to","type":"address","indexed":true,"internalType":"address"}],"anonymous":false},{"type":"event","name":"Initialized","inputs":[{"name":"version","type":"uint32","indexed":false,"internalType":"uint32"}],"anonymous":false},{"type":"event","name":"InterfaceAdded","inputs":[{"name":"interfaceId","type":"bytes4","indexed":true,"internalType":"bytes4"}],"anonymous":false},{"type":"event","name":"InterfaceRemoved","inputs":[{"name":"interfaceId","type":"bytes4","indexed":true,"internalType":"bytes4"}],"anonymous":false},{"type":"event","name":"OwnershipTransferred","inputs":[{"name":"previousOwner","type":"address","indexed":true,"internalType":"address"},{"name":"newOwner","type":"address","indexed":true,"internalType":"address"}],"anonymous":false},{"type":"event","name":"Paused","inputs":[{"name":"account","type":"address","indexed":false,"internalType":"address"}],"anonymous":false},{"type":"event","name":"Transfer","inputs":[{"name":"from","type":"address","indexed":true,"internalType":"address"},{"name":"to","type":"address","indexed":true,"internalType":"address"},{"name":"tokenId","type":"uint256","indexed":true,"internalType":"uint256"}],"anonymous":false},{"type":"event","name":"Unpaused","inputs":[{"name":"account","type":"address","indexed":false,"internalType":"address"}],"anonymous":false},{"type":"error","name":"ApprovalCallerNotOwnerNorApproved","inputs":[]},{"type":"error","name":"ApprovalQueryForNonexistentToken","inputs":[]},{"type":"error","name":"BalanceQueryForZeroAddress","inputs":[]},{"type":"error","name":"Banning__InvalidTokenId","inputs":[{"name":"tokenId","type":"uint256","internalType":"uint256"}]},{"type":"error","name":"ChannelService__ChannelAlreadyExists","inputs":[]},{"type":"error","name":"ChannelService__ChannelDisabled","inputs":[]},{"type":"error","name":"ChannelService__ChannelDoesNotExist","inputs":[]},{"type":"error","name":"ChannelService__RoleAlreadyExists","inputs":[]},{"type":"error","name":"ChannelService__RoleDoesNotExist","inputs":[]},{"type":"error","name":"Entitlement__InvalidValue","inputs":[]},{"type":"error","name":"Entitlement__NotAllowed","inputs":[]},{"type":"error","name":"Entitlement__NotMember","inputs":[]},{"type":"error","name":"Entitlement__ValueAlreadyExists","inputs":[]},{"type":"error","name":"Initializable_InInitializingState","inputs":[]},{"type":"error","name":"Introspection_AlreadySupported","inputs":[]},{"type":"error","name":"Introspection_NotSupported","inputs":[]},{"type":"error","name":"MintERC2309QuantityExceedsLimit","inputs":[]},{"type":"error","name":"MintToZeroAddress","inputs":[]},{"type":"error","name":"MintZeroQuantity","inputs":[]},{"type":"error","name":"Ownable__NotOwner","inputs":[{"name":"account","type":"address","internalType":"address"}]},{"type":"error","name":"Ownable__ZeroAddress","inputs":[]},{"type":"error","name":"OwnerQueryForNonexistentToken","inputs":[]},{"type":"error","name":"OwnershipNotInitializedForExtraData","inputs":[]},{"type":"error","name":"Pausable__NotPaused","inputs":[]},{"type":"error","name":"Pausable__Paused","inputs":[]},{"type":"error","name":"TransferCallerNotOwnerNorApproved","inputs":[]},{"type":"error","name":"TransferFromIncorrectOwner","inputs":[]},{"type":"error","name":"TransferToNonERC721ReceiverImplementer","inputs":[]},{"type":"error","name":"TransferToZeroAddress","inputs":[]},{"type":"error","name":"URIQueryForNonexistentToken","inputs":[]},{"type":"error","name":"Validator__InvalidStringLength","inputs":[]}],"bytecode":{"object":"0x608060405234801561001057600080fd5b5061001961001e565b6100c4565b7f2d0d21306acfe8e9bb163a4573e95aff6cef95dc1102c6a16d5f19eac08cc4de8054640100000000900460ff161561006a576040516366008a2d60e01b815260040160405180910390fd5b805463ffffffff90811610156100c157805463ffffffff191663ffffffff90811782556040519081527fe9c9b456cb2994b80aeef036cf59d26e9617df80f816a6ee5a5b4166e07e2f5c9060200160405180910390a15b50565b61207980620000d46000396000f3fe608060405234801561001057600080fd5b50600436106100885760003560e01c806351f83cea1161005b57806351f83cea146100f15780637cd7ee3d146101045780639575f6ac146101245780639c02812e1461013957600080fd5b806305b2cfbc1461008d57806316b38751146100a257806342bb09b2146100cb578063499061b5146100de575b600080fd5b6100a061009b36600461193c565b61014c565b005b6100b56100b03660046119ba565b61018a565b6040516100c291906119fc565b60405180910390f35b6100a06100d9366004611a40565b6101d4565b6100a06100ec366004611a40565b61024c565b6100a06100ff366004611a8c565b6102bf565b61011761011236600461193c565b6102fc565b6040516100c29190611c51565b61012c610332565b6040516100c29190611c64565b6100a0610147366004611cd6565b610341565b61017e6040518060400160405280601181526020017041646452656d6f76654368616e6e656c7360781b81525061037e565b610187816103b4565b50565b60606101cb83838080601f01602080910402602001604051908101604052809392919081815260200183838082843760009201919091525061040192505050565b90505b92915050565b61023c83838080601f0160208091040260200160405190810160405280939291908181526020018383808284376000920191909152505060408051808201909152601181527041646452656d6f76654368616e6e656c7360781b6020820152915061040c9050565b610247838383610437565b505050565b6102b483838080601f0160208091040260200160405190810160405280939291908181526020018383808284376000920191909152505060408051808201909152601181527041646452656d6f76654368616e6e656c7360781b6020820152915061040c9050565b6102478383836104c2565b6102f16040518060400160405280601181526020017041646452656d6f76654368616e6e656c7360781b81525061037e565b610247838383610540565b61032960405180608001604052806060815260200160001515815260200160608152602001606081525090565b6101ce8261059a565b606061033c61060b565b905090565b6103736040518060400160405280601181526020017041646452656d6f76654368616e6e656c7360781b81525061037e565b61024783838361074d565b610397604051806020016040528060008152508261079c565b61018757604051630ce39a4b60e21b815260040160405180910390fd5b6103bd81610820565b336001600160a01b03167ffa523db6e0f9e715af524617025380ecb07a5bdc7266e951baa64c82096b42bf826040516103f69190611d4e565b60405180910390a250565b60606101ce8261098d565b610416828261079c565b61043357604051630ce39a4b60e21b815260040160405180910390fd5b5050565b61047883838080601f0160208091040260200160405190810160405280939291908181526020018383808284376000920191909152508592506109e3915050565b336001600160a01b03167fca076ccbc3aeaf982d7e8bda25501bca43f3ff1910a31364669925306e9a6e148484846040516104b593929190611d61565b60405180910390a2505050565b61050383838080601f016020809104026020016040519081016040528093929190818152602001838380828437600092019190915250859250610a99915050565b336001600160a01b03167f83a637a8897e018bd05113befc092187d3c58ae68539c6eb183e2a479dcca40d8484846040516104b593929190611d61565b61054b826000610b24565b610556836002610b24565b610561838383610b48565b336001600160a01b03167ff3a24943f70b2569320a93558b58442d48b340ed5cebe07ca9f94507fb78ce41846040516104b59190611d4e565b6105c760405180608001604052806060815260200160001515815260200160608152602001606081525090565b6000806105d384610c7d565b925092505060006105e38561098d565b6040805160808101825296875292151560208701529185019290925260608401525090919050565b60606000610617610e3b565b90506000815167ffffffffffffffff81111561063557610635611885565b60405190808252806020026020018201604052801561069357816020015b61068060405180608001604052806060815260200160001515815260200160608152602001606081525090565b8152602001906001900390816106535790505b50905060005b82518110156107465760008060006106c98685815181106106bc576106bc611d9a565b6020026020010151610c7d565b92509250925060006106f38786815181106106e6576106e6611d9a565b602002602001015161098d565b9050604051806080016040528085815260200183151581526020018481526020018281525086868151811061072a5761072a611d9a565b6020026020010181905250505050508080600101915050610699565b5092915050565b610758836002610b24565b610763838383610e5b565b336001600160a01b03167fceff7b159f9dbcf9e7e9d20f79690303c0fc5495a2e3c2525aa7e23c6742449c846040516104b59190611d4e565b600033806107a8610f26565b6001600160a01b0316148061081857507ff421ea548af7158b1d71ba0aeccf57104c067038bd8fd214edd05c09eb4f735b5460ff1615801561081857506108188482856040516020016107fb9190611db0565b60405160208183030381529060405261081390611dcc565b610fea565b949350505050565b61082981611199565b60008051602061205983398151915261084281836111d0565b506040518060200160405280600081525081600201836040516108659190611db0565b908152602001604051809103902060020190816108829190611e77565b50600081600201836040516108979190611db0565b908152604051908190036020018120600101805492151560ff199093169290921790915560028201906108cb908490611db0565b90815260405190819003602001902060006108e68282611837565b60018201805460ff19169055610900600283016000611837565b5050600061092c82600301846040516109199190611db0565b90815260200160405180910390206111dc565b905060005b81518110156109875761097e82828151811061094f5761094f611d9a565b602002602001015184600301866040516109699190611db0565b908152604051908190036020019020906111e9565b50600101610931565b50505050565b606061099882611199565b604051600080516020612059833981519152906109dc907fb688ec8e4241d4a907fd7254e1a20e7a6d28a9043ed3eac37de6f05135b33b3d90610919908690611db0565b9392505050565b6109ec82611199565b6109f5826111f5565b60405160008051602061205983398151915290610a509083907fb688ec8e4241d4a907fd7254e1a20e7a6d28a9043ed3eac37de6f05135b33b3d90610a3b908790611db0565b90815260405190819003602001902090611269565b15610a6e576040516302369ff360e41b815260040160405180910390fd5b610987828260030185604051610a849190611db0565b90815260405190819003602001902090611281565b610aa282611199565b610aab826111f5565b60405160008051602061205983398151915290610af19083907fb688ec8e4241d4a907fd7254e1a20e7a6d28a9043ed3eac37de6f05135b33b3d90610a3b908790611db0565b610b0e576040516333cb039f60e11b815260040160405180910390fd5b6109878282600301856040516109699190611db0565b81518290821115610247576040516374eb20a760e01b815260040160405180910390fd5b610b518361128d565b600080516020612059833981519152610b6a81856112c3565b50604080516060810182528581526000602082015280820185905290516002830190610b97908790611db0565b90815260405190819003602001902081518190610bb49082611e77565b50602082015160018201805460ff191691151591909117905560408201516002820190610be19082611e77565b5090505060005b8251811015610c7657610c20838281518110610c0657610c06611d9a565b60200260200101518360030187604051610a3b9190611db0565b15610c3e576040516302369ff360e41b815260040160405180910390fd5b610c6d838281518110610c5357610c53611d9a565b60200260200101518360030187604051610a849190611db0565b50600101610be8565b5050505050565b6060806000610c8b84611199565b604051600080516020612059833981519152906000907fb688ec8e4241d4a907fd7254e1a20e7a6d28a9043ed3eac37de6f05135b33b3c90610cce908890611db0565b9081526020016040518091039020604051806060016040529081600082018054610cf790611df3565b80601f0160208091040260200160405190810160405280929190818152602001828054610d2390611df3565b8015610d705780601f10610d4557610100808354040283529160200191610d70565b820191906000526020600020905b815481529060010190602001808311610d5357829003601f168201915b5050509183525050600182015460ff1615156020820152600282018054604090920191610d9c90611df3565b80601f0160208091040260200160405190810160405280929190818152602001828054610dc890611df3565b8015610e155780601f10610dea57610100808354040283529160200191610e15565b820191906000526020600020905b815481529060010190602001808311610df857829003601f168201915b505050919092525050815160408301516020909301519099929850965090945050505050565b6060600080516020612059833981519152610e55816112cf565b91505090565b610e6483611199565b604051600080516020612059833981519152906000907fb688ec8e4241d4a907fd7254e1a20e7a6d28a9043ed3eac37de6f05135b33b3c90610ea7908790611db0565b9081526020016040518091039020905060008451118015610ee7575080600201604051610ed49190611f37565b6040518091039020848051906020012014155b15610efc5760028101610efa8582611e77565b505b600181015460ff16151583151514610c7657600101805460ff191692151592909217909155505050565b6040805180820182527f9bd0e1a7aef81c47cff971a2fee48406b20f55522326b2e2616c49c24aa506d0546001600160a01b03168082527f9bd0e1a7aef81c47cff971a2fee48406b20f55522326b2e2616c49c24aa506d154602080840182905284516331a9108f60e11b815260048101929092529351600094636352211e92602480820193918290030181865afa158015610fc6573d6000803e3d6000fd5b505050506040513d601f19601f82011682018060405250810190610e559190611fad565b6000610ff4610f26565b6001600160a01b0316836001600160a01b031603611014575060016109dc565b6001600160a01b03831660009081527f9b35df16c33a6c0e085c9ebd55fb367f81c58c2ed7e9bed98cc622f3308a600e60205260409020546110848160009081527fa58ec377a0bfb65fc456fb479d6eb2f9e176963c85db6b84841175b4a0b637e9602052604090205460ff1690565b80611094575061109485826112da565b156110a35760009150506109dc565b7f2df4f8e2489b335ef09ede56990b0838afbcdea6c639a41af44b533474fb855860006110ef7f2df4f8e2489b335ef09ede56990b0838afbcdea6c639a41af44b533474fb8559611334565b905060005b8181101561118e57611109600184018261133e565b6001600160a01b031662b4eaa88989896040518463ffffffff1660e01b815260040161113793929190611fd6565b602060405180830381865afa158015611154573d6000803e3d6000fd5b505050506040513d601f19601f820116820180604052508101906111789190612004565b15611186576001945061118e565b6001016110f4565b505050509392505050565b6111b3816000805160206120598339815191525b9061134a565b6101875760405163560b4b4160e11b815260040160405180910390fd5b60006101cb8383611356565b606060006109dc83611515565b60006101cb8383611571565b604051600080516020612059833981519152907fb688ec8e4241d4a907fd7254e1a20e7a6d28a9043ed3eac37de6f05135b33b3c90611235908490611db0565b9081526040519081900360200190206001015460ff161561043357604051636ce0028960e11b815260040160405180910390fd5b600081815260018301602052604081205415156101cb565b60006101cb838361165a565b6112a5816000805160206120598339815191526111ad565b1561018757604051632324f7d960e21b815260040160405180910390fd5b60006101cb83836116a9565b60606101ce82611703565b60007fa58ec377a0bfb65fc456fb479d6eb2f9e176963c85db6b84841175b4a0b637e96001018360405161130e9190611db0565b908152604080516020928190038301902060009485529091529091205460ff1692915050565b60006101ce825490565b60006101cb83836117e0565b60006101cb838361180a565b600080836001018360405161136b9190611db0565b90815260200160405180910390205490508060001461150b576000611391600183612021565b85549091506000906113a590600190612021565b90508181146114ac5760008660000182815481106113c5576113c5611d9a565b9060005260206000200180546113da90611df3565b80601f016020809104026020016040519081016040528092919081815260200182805461140690611df3565b80156114535780601f1061142857610100808354040283529160200191611453565b820191906000526020600020905b81548152906001019060200180831161143657829003601f168201915b505050505090508087600001848154811061147057611470611d9a565b9060005260206000200190816114869190611e77565b5083876001018260405161149a9190611db0565b90815260405190819003602001902055505b85548690806114bd576114bd612042565b6001900381819060005260206000200160006114d99190611837565b905585600101856040516114ed9190611db0565b908152602001604051809103902060009055600193505050506101ce565b60009150506101ce565b60608160000180548060200260200160405190810160405280929190818152602001828054801561156557602002820191906000526020600020905b815481526020019060010190808311611551575b50505050509050919050565b6000818152600183016020526040812054801561150b576000611595600183612021565b85549091506000906115a990600190612021565b905081811461160e5760008660000182815481106115c9576115c9611d9a565b90600052602060002001549050808760000184815481106115ec576115ec611d9a565b6000918252602080832090910192909255918252600188019052604090208390555b855486908061161f5761161f612042565b6001900381819060005260206000200160009055905585600101600086815260200190815260200160002060009055600193505050506101ce565b60008181526001830160205260408120546116a1575081546001818101845560008481526020808220909301849055845484825282860190935260409020919091556101ce565b5060006101ce565b60006116b5838361180a565b6116a1578254600181018455600084815260209020016116d58382611e77565b50825460405160018501906116eb908590611db0565b908152604051908190036020019020555060016101ce565b606081600001805480602002602001604051908101604052809291908181526020016000905b828210156117d557838290600052602060002001805461174890611df3565b80601f016020809104026020016040519081016040528092919081815260200182805461177490611df3565b80156117c15780601f10611796576101008083540402835291602001916117c1565b820191906000526020600020905b8154815290600101906020018083116117a457829003601f168201915b505050505081526020019060010190611729565b505050509050919050565b60008260000182815481106117f7576117f7611d9a565b9060005260206000200154905092915050565b6000826001018260405161181e9190611db0565b9081526040519081900360200190205415159392505050565b50805461184390611df3565b6000825580601f10611853575050565b601f01602090049060005260206000209081019061018791905b80821115611881576000815560010161186d565b5090565b634e487b7160e01b600052604160045260246000fd5b604051601f8201601f1916810167ffffffffffffffff811182821017156118c4576118c4611885565b604052919050565b600082601f8301126118dd57600080fd5b813567ffffffffffffffff8111156118f7576118f7611885565b61190a601f8201601f191660200161189b565b81815284602083860101111561191f57600080fd5b816020850160208301376000918101602001919091529392505050565b60006020828403121561194e57600080fd5b813567ffffffffffffffff81111561196557600080fd5b610818848285016118cc565b60008083601f84011261198357600080fd5b50813567ffffffffffffffff81111561199b57600080fd5b6020830191508360208285010111156119b357600080fd5b9250929050565b600080602083850312156119cd57600080fd5b823567ffffffffffffffff8111156119e457600080fd5b6119f085828601611971565b90969095509350505050565b6020808252825182820181905260009190848201906040850190845b81811015611a3457835183529284019291840191600101611a18565b50909695505050505050565b600080600060408486031215611a5557600080fd5b833567ffffffffffffffff811115611a6c57600080fd5b611a7886828701611971565b909790965060209590950135949350505050565b600080600060608486031215611aa157600080fd5b833567ffffffffffffffff80821115611ab957600080fd5b611ac5878388016118cc565b9450602091508186013581811115611adc57600080fd5b611ae8888289016118cc565b945050604086013581811115611afd57600080fd5b8601601f81018813611b0e57600080fd5b803582811115611b2057611b20611885565b8060051b9250611b3184840161189b565b818152928201840192848101908a851115611b4b57600080fd5b928501925b84841015611b6957833582529285019290850190611b50565b8096505050505050509250925092565b60005b83811015611b94578181015183820152602001611b7c565b50506000910152565b60008151808452611bb5816020860160208601611b79565b601f01601f19169290920160200192915050565b6000815160808452611bde6080850182611b9d565b905060208084015115158186015260408401518583036040870152611c038382611b9d565b606086810151888303918901919091528051808352908401945060009250908301905b80831015611c465784518252938301936001929092019190830190611c26565b509695505050505050565b6020815260006101cb6020830184611bc9565b600060208083016020845280855180835260408601915060408160051b87010192506020870160005b82811015611cbb57603f19888603018452611ca9858351611bc9565b94509285019290850190600101611c8d565b5092979650505050505050565b801515811461018757600080fd5b600080600060608486031215611ceb57600080fd5b833567ffffffffffffffff80821115611d0357600080fd5b611d0f878388016118cc565b94506020860135915080821115611d2557600080fd5b50611d32868287016118cc565b9250506040840135611d4381611cc8565b809150509250925092565b6020815260006101cb6020830184611b9d565b604081528260408201528284606083013760006060848301015260006060601f19601f8601168301019050826020830152949350505050565b634e487b7160e01b600052603260045260246000fd5b60008251611dc2818460208701611b79565b9190910192915050565b80516020808301519190811015611ded576000198160200360031b1b821691505b50919050565b600181811c90821680611e0757607f821691505b602082108103611ded57634e487b7160e01b600052602260045260246000fd5b601f821115610247576000816000526020600020601f850160051c81016020861015611e505750805b601f850160051c820191505b81811015611e6f57828155600101611e5c565b505050505050565b815167ffffffffffffffff811115611e9157611e91611885565b611ea581611e9f8454611df3565b84611e27565b602080601f831160018114611eda5760008415611ec25750858301515b600019600386901b1c1916600185901b178555611e6f565b600085815260208120601f198616915b82811015611f0957888601518255948401946001909101908401611eea565b5085821015611f275787850151600019600388901b60f8161c191681555b5050505050600190811b01905550565b6000808354611f4581611df3565b60018281168015611f5d5760018114611f7257611fa1565b60ff1984168752821515830287019450611fa1565b8760005260208060002060005b85811015611f985781548a820152908401908201611f7f565b50505082870194505b50929695505050505050565b600060208284031215611fbf57600080fd5b81516001600160a01b03811681146109dc57600080fd5b606081526000611fe96060830186611b9d565b6001600160a01b039490941660208301525060400152919050565b60006020828403121561201657600080fd5b81516109dc81611cc8565b818103818111156101ce57634e487b7160e01b600052601160045260246000fd5b634e487b7160e01b600052603160045260246000fdfeb688ec8e4241d4a907fd7254e1a20e7a6d28a9043ed3eac37de6f05135b33b3a","linkReferences":{}},"methodIdentifiers":{"addRoleToChannel(string,uint256)":"42bb09b2","createChannel(string,string,uint256[])":"51f83cea","getChannel(string)":"7cd7ee3d","getChannels()":"9575f6ac","getRolesByChannel(string)":"16b38751","removeChannel(string)":"05b2cfbc","removeRoleFromChannel(string,uint256)":"499061b5","updateChannel(string,string,bool)":"9c02812e"},"id":148}