{"abi":[{"type":"function","name":"__DropFacet_init","inputs":[{"name":"rewardsDistribution","type":"address","internalType":"address"}],"outputs":[],"stateMutability":"nonpayable"},{"type":"function","name":"addClaimCondition","inputs":[{"name":"condition","type":"tuple","internalType":"struct DropClaimLib.ClaimCondition","components":[{"name":"currency","type":"address","internalType":"address"},{"name":"startTimestamp","type":"uint40","internalType":"uint40"},{"name":"endTimestamp","type":"uint40","internalType":"uint40"},{"name":"penaltyBps","type":"uint16","internalType":"uint16"},{"name":"maxClaimableSupply","type":"uint256","internalType":"uint256"},{"name":"supplyClaimed","type":"uint256","internalType":"uint256"},{"name":"merkleRoot","type":"bytes32","internalType":"bytes32"}]}],"outputs":[],"stateMutability":"nonpayable"},{"type":"function","name":"claimAndStake","inputs":[{"name":"claim","type":"tuple","internalType":"struct DropClaimLib.Claim","components":[{"name":"conditionId","type":"uint256","internalType":"uint256"},{"name":"account","type":"address","internalType":"address"},{"name":"quantity","type":"uint256","internalType":"uint256"},{"name":"points","type":"uint256","internalType":"uint256"},{"name":"proof","type":"bytes32[]","internalType":"bytes32[]"}]},{"name":"delegatee","type":"address","internalType":"address"},{"name":"deadline","type":"uint256","internalType":"uint256"},{"name":"signature","type":"bytes","internalType":"bytes"}],"outputs":[{"name":"","type":"uint256","internalType":"uint256"}],"stateMutability":"nonpayable"},{"type":"function","name":"claimWithPenalty","inputs":[{"name":"claim","type":"tuple","internalType":"struct DropClaimLib.Claim","components":[{"name":"conditionId","type":"uint256","internalType":"uint256"},{"name":"account","type":"address","internalType":"address"},{"name":"quantity","type":"uint256","internalType":"uint256"},{"name":"points","type":"uint256","internalType":"uint256"},{"name":"proof","type":"bytes32[]","internalType":"bytes32[]"}]},{"name":"expectedPenaltyBps","type":"uint16","internalType":"uint16"}],"outputs":[{"name":"amount","type":"uint256","internalType":"uint256"}],"stateMutability":"nonpayable"},{"type":"function","name":"getActiveClaimConditionId","inputs":[],"outputs":[{"name":"","type":"uint256","internalType":"uint256"}],"stateMutability":"view"},{"type":"function","name":"getClaimConditionById","inputs":[{"name":"conditionId","type":"uint256","internalType":"uint256"}],"outputs":[{"name":"condition","type":"tuple","internalType":"struct DropClaimLib.ClaimCondition","components":[{"name":"currency","type":"address","internalType":"address"},{"name":"startTimestamp","type":"uint40","internalType":"uint40"},{"name":"endTimestamp","type":"uint40","internalType":"uint40"},{"name":"penaltyBps","type":"uint16","internalType":"uint16"},{"name":"maxClaimableSupply","type":"uint256","internalType":"uint256"},{"name":"supplyClaimed","type":"uint256","internalType":"uint256"},{"name":"merkleRoot","type":"bytes32","internalType":"bytes32"}]}],"stateMutability":"view"},{"type":"function","name":"getClaimConditions","inputs":[],"outputs":[{"name":"","type":"tuple[]","internalType":"struct DropClaimLib.ClaimCondition[]","components":[{"name":"currency","type":"address","internalType":"address"},{"name":"startTimestamp","type":"uint40","internalType":"uint40"},{"name":"endTimestamp","type":"uint40","internalType":"uint40"},{"name":"penaltyBps","type":"uint16","internalType":"uint16"},{"name":"maxClaimableSupply","type":"uint256","internalType":"uint256"},{"name":"supplyClaimed","type":"uint256","internalType":"uint256"},{"name":"merkleRoot","type":"bytes32","internalType":"bytes32"}]}],"stateMutability":"view"},{"type":"function","name":"getDepositIdByWallet","inputs":[{"name":"account","type":"address","internalType":"address"},{"name":"conditionId","type":"uint256","internalType":"uint256"}],"outputs":[{"name":"","type":"uint256","internalType":"uint256"}],"stateMutability":"view"},{"type":"function","name":"getSupplyClaimedByWallet","inputs":[{"name":"account","type":"address","internalType":"address"},{"name":"conditionId","type":"uint256","internalType":"uint256"}],"outputs":[{"name":"","type":"uint256","internalType":"uint256"}],"stateMutability":"view"},{"type":"function","name":"setClaimConditions","inputs":[{"name":"conditions","type":"tuple[]","internalType":"struct DropClaimLib.ClaimCondition[]","components":[{"name":"currency","type":"address","internalType":"address"},{"name":"startTimestamp","type":"uint40","internalType":"uint40"},{"name":"endTimestamp","type":"uint40","internalType":"uint40"},{"name":"penaltyBps","type":"uint16","internalType":"uint16"},{"name":"maxClaimableSupply","type":"uint256","internalType":"uint256"},{"name":"supplyClaimed","type":"uint256","internalType":"uint256"},{"name":"merkleRoot","type":"bytes32","internalType":"bytes32"}]}],"outputs":[],"stateMutability":"nonpayable"},{"type":"event","name":"DropFacet_ClaimConditionAdded","inputs":[{"name":"conditionId","type":"uint256","indexed":true,"internalType":"uint256"},{"name":"condition","type":"tuple","indexed":false,"internalType":"struct DropClaimLib.ClaimCondition","components":[{"name":"currency","type":"address","internalType":"address"},{"name":"startTimestamp","type":"uint40","internalType":"uint40"},{"name":"endTimestamp","type":"uint40","internalType":"uint40"},{"name":"penaltyBps","type":"uint16","internalType":"uint16"},{"name":"maxClaimableSupply","type":"uint256","internalType":"uint256"},{"name":"supplyClaimed","type":"uint256","internalType":"uint256"},{"name":"merkleRoot","type":"bytes32","internalType":"bytes32"}]}],"anonymous":false},{"type":"event","name":"DropFacet_ClaimConditionsUpdated","inputs":[{"name":"conditionId","type":"uint256","indexed":true,"internalType":"uint256"},{"name":"conditions","type":"tuple[]","indexed":false,"internalType":"struct DropClaimLib.ClaimCondition[]","components":[{"name":"currency","type":"address","internalType":"address"},{"name":"startTimestamp","type":"uint40","internalType":"uint40"},{"name":"endTimestamp","type":"uint40","internalType":"uint40"},{"name":"penaltyBps","type":"uint16","internalType":"uint16"},{"name":"maxClaimableSupply","type":"uint256","internalType":"uint256"},{"name":"supplyClaimed","type":"uint256","internalType":"uint256"},{"name":"merkleRoot","type":"bytes32","internalType":"bytes32"}]}],"anonymous":false},{"type":"event","name":"DropFacet_Claimed_And_Staked","inputs":[{"name":"conditionId","type":"uint256","indexed":true,"internalType":"uint256"},{"name":"claimer","type":"address","indexed":true,"internalType":"address"},{"name":"account","type":"address","indexed":true,"internalType":"address"},{"name":"amount","type":"uint256","indexed":false,"internalType":"uint256"}],"anonymous":false},{"type":"event","name":"DropFacet_Claimed_WithPenalty","inputs":[{"name":"conditionId","type":"uint256","indexed":true,"internalType":"uint256"},{"name":"claimer","type":"address","indexed":true,"internalType":"address"},{"name":"account","type":"address","indexed":true,"internalType":"address"},{"name":"amount","type":"uint256","indexed":false,"internalType":"uint256"}],"anonymous":false},{"type":"event","name":"Initialized","inputs":[{"name":"version","type":"uint32","indexed":false,"internalType":"uint32"}],"anonymous":false},{"type":"event","name":"InterfaceAdded","inputs":[{"name":"interfaceId","type":"bytes4","indexed":true,"internalType":"bytes4"}],"anonymous":false},{"type":"event","name":"InterfaceRemoved","inputs":[{"name":"interfaceId","type":"bytes4","indexed":true,"internalType":"bytes4"}],"anonymous":false},{"type":"event","name":"OwnershipTransferred","inputs":[{"name":"previousOwner","type":"address","indexed":true,"internalType":"address"},{"name":"newOwner","type":"address","indexed":true,"internalType":"address"}],"anonymous":false},{"type":"error","name":"DropFacet__AlreadyClaimed","inputs":[]},{"type":"error","name":"DropFacet__CannotSetClaimConditions","inputs":[]},{"type":"error","name":"DropFacet__ClaimConditionsNotInAscendingOrder","inputs":[]},{"type":"error","name":"DropFacet__ClaimHasEnded","inputs":[]},{"type":"error","name":"DropFacet__ClaimHasNotStarted","inputs":[]},{"type":"error","name":"DropFacet__CurrencyNotSet","inputs":[]},{"type":"error","name":"DropFacet__ExceedsMaxClaimableSupply","inputs":[]},{"type":"error","name":"DropFacet__InsufficientBalance","inputs":[]},{"type":"error","name":"DropFacet__InvalidProof","inputs":[]},{"type":"error","name":"DropFacet__MerkleRootNotSet","inputs":[]},{"type":"error","name":"DropFacet__NoActiveClaimCondition","inputs":[]},{"type":"error","name":"DropFacet__PointsMustBeGreaterThanZero","inputs":[]},{"type":"error","name":"DropFacet__QuantityMustBeGreaterThanZero","inputs":[]},{"type":"error","name":"DropFacet__RewardsDistributionNotSet","inputs":[]},{"type":"error","name":"DropFacet__UnexpectedPenaltyBps","inputs":[]},{"type":"error","name":"ERC20InsufficientBalance","inputs":[{"name":"sender","type":"address","internalType":"address"},{"name":"balance","type":"uint256","internalType":"uint256"},{"name":"needed","type":"uint256","internalType":"uint256"}]},{"type":"error","name":"Initializable_InInitializingState","inputs":[]},{"type":"error","name":"Initializable_NotInInitializingState","inputs":[]},{"type":"error","name":"Introspection_AlreadySupported","inputs":[]},{"type":"error","name":"Introspection_NotSupported","inputs":[]},{"type":"error","name":"Ownable__NotOwner","inputs":[{"name":"account","type":"address","internalType":"address"}]},{"type":"error","name":"Ownable__ZeroAddress","inputs":[]}],"bytecode":{"object":"0x6080604052348015600e575f5ffd5b5060156019565b60bd565b7f59b501c3653afc186af7d48dda36cf6732bd21629a6295693664240a6ef520008054640100000000900460ff16156064576040516366008a2d60e01b815260040160405180910390fd5b805463ffffffff908116101560ba57805463ffffffff191663ffffffff90811782556040519081527fe9c9b456cb2994b80aeef036cf59d26e9617df80f816a6ee5a5b4166e07e2f5c9060200160405180910390a15b50565b61267f806100ca5f395ff3fe608060405234801561000f575f5ffd5b50600436106100b9575f3560e01c806381045e3611610072578063c68907de11610058578063c68907de14610166578063c9ac93681461016e578063fff9637414610181575f5ffd5b806381045e361461013e578063a1550b2f14610151575f5ffd5b806364843393116100a257806364843393146100f85780636f8934f41461010b5780637a05557c1461012b575f5ffd5b806314c9fcbc146100bd57806333d42dc6146100d2575b5f5ffd5b6100d06100cb366004611dee565b610194565b005b6100e56100e0366004611e09565b61022c565b6040519081526020015b60405180910390f35b6100d0610106366004611e33565b610291565b61011e610119366004611e4c565b610332565b6040516100ef9190611e63565b6100e5610139366004611e09565b61045d565b6100e561014c366004611f07565b610494565b61015961061a565b6040516100ef9190611f56565b6100e561064a565b6100d061017c36600461200a565b610674565b6100e561018f36600461207b565b610715565b7f59b501c3653afc186af7d48dda36cf6732bd21629a6295693664240a6ef5200054640100000000900460ff166101f7576040517f77a399b800000000000000000000000000000000000000000000000000000000815260040160405180910390fd5b6102207f9251dd0600000000000000000000000000000000000000000000000000000000610956565b61022981610aab565b50565b5f61028782847feda6a1e2ce6f1639b6d3066254ca87a2daf51c4f0ad5038d408bbab6cc2cab005b5f9283526001016020908152604080842073ffffffffffffffffffffffffffffffffffffffff9093168452919052902090565b5490505b92915050565b7f4675fa8241f86f37157864d3d49b85ad4b164352c516da28e1678a90470ae3005473ffffffffffffffffffffffffffffffffffffffff163314610308576040517f65f490650000000000000000000000000000000000000000000000000000000081523360048201526024015b60405180910390fd5b6102297feda6a1e2ce6f1639b6d3066254ca87a2daf51c4f0ad5038d408bbab6cc2cab0082610ad5565b604080515f80825260208201819052818301819052606082018190526080820181905260a0820181905260c08201529081905261039c827feda6a1e2ce6f1639b6d3066254ca87a2daf51c4f0ad5038d408bbab6cc2cab005b5f9182526002016020526040902090565b6040805160e081018252825473ffffffffffffffffffffffffffffffffffffffff8116825274010000000000000000000000000000000000000000810464ffffffffff9081166020840152790100000000000000000000000000000000000000000000000000820416928201929092527e0100000000000000000000000000000000000000000000000000000000000090910461ffff16606082015260018201546080820152600282015460a082015260039091015460c082015292915050565b5f61048982847feda6a1e2ce6f1639b6d3066254ca87a2daf51c4f0ad5038d408bbab6cc2cab00610254565b600101549392505050565b5f806104c184357feda6a1e2ce6f1639b6d3066254ca87a2daf51c4f0ad5038d408bbab6cc2cab0061038b565b90505f6104ff85356104d96040880160208901611dee565b7feda6a1e2ce6f1639b6d3066254ca87a2daf51c4f0ad5038d408bbab6cc2cab00610254565b905061050c828287610d87565b61051782868661104e565b92506105248282856110e2565b7f25a22d57af6f735dc617e9781981413da3bc5a71376b4237270a04c144aaf7006105646105586040880160208901611dee565b82906060890135611102565b82546105979073ffffffffffffffffffffffffffffffffffffffff163061059160408a0160208b01611dee565b8761111e565b6105a76040870160208801611dee565b73ffffffffffffffffffffffffffffffffffffffff163373ffffffffffffffffffffffffffffffffffffffff16875f01357f970af01ab25e63f8131277859b2c17e9a07c2eb257e6db87449000d91c0f84018760405161060991815260200190565b60405180910390a450505092915050565b60606106457feda6a1e2ce6f1639b6d3066254ca87a2daf51c4f0ad5038d408bbab6cc2cab006111b7565b905090565b5f6106457feda6a1e2ce6f1639b6d3066254ca87a2daf51c4f0ad5038d408bbab6cc2cab006113e2565b7f4675fa8241f86f37157864d3d49b85ad4b164352c516da28e1678a90470ae3005473ffffffffffffffffffffffffffffffffffffffff1633146106e6576040517f65f490650000000000000000000000000000000000000000000000000000000081523360048201526024016102ff565b6107117feda6a1e2ce6f1639b6d3066254ca87a2daf51c4f0ad5038d408bbab6cc2cab008383611551565b5050565b5f8061074287357feda6a1e2ce6f1639b6d3066254ca87a2daf51c4f0ad5038d408bbab6cc2cab0061038b565b90505f61075a88356104d960408b0160208c01611dee565b905061076782828a610d87565b610776828260408b01356110e2565b7f25a22d57af6f735dc617e9781981413da3bc5a71376b4237270a04c144aaf7006107b66107aa60408b0160208c01611dee565b829060608c0135611102565b6107e57feda6a1e2ce6f1639b6d3066254ca87a2daf51c4f0ad5038d408bbab6cc2cab008460408c0135611803565b5f7feda6a1e2ce6f1639b6d3066254ca87a2daf51c4f0ad5038d408bbab6cc2cab005473ffffffffffffffffffffffffffffffffffffffff1663e69f949561083060408d013561189d565b8b8d60200160208101906108449190611dee565b8e60200160208101906108579190611dee565b8d8d8d6040518863ffffffff1660e01b815260040161087c979695949392919061212c565b6020604051808303815f875af1158015610898573d5f5f3e3d5ffd5b505050506040513d601f19601f820116820180604052508101906108bc91906121eb565b6001840181905590506108d560408b0160208c01611dee565b73ffffffffffffffffffffffffffffffffffffffff163373ffffffffffffffffffffffffffffffffffffffff168b5f01357ff08f338c8905e343697a35fef11af2f611a36658016e0653521354c865373ea78d6040013560405161093b91815260200190565b60405180910390a45050506040909601359695505050505050565b7fffffffff0000000000000000000000000000000000000000000000000000000081165f9081527f81088bbc801e045ea3e7620779ab349988f58afbdfba10dff983df3f33522b00602052604090205460ff16610a2a577fffffffff0000000000000000000000000000000000000000000000000000000081165f9081527f81088bbc801e045ea3e7620779ab349988f58afbdfba10dff983df3f33522b006020526040902080547fffffffffffffffffffffffffffffffffffffffffffffffffffffffffffffff00166001179055610a5c565b6040517ff2cfeefa00000000000000000000000000000000000000000000000000000000815260040160405180910390fd5b6040517fffffffff000000000000000000000000000000000000000000000000000000008216907f78f84e5b1c5c05be2b5ad3800781dd404d6d6c6302bc755c0fe20f58a33a7f22905f90a250565b6102297feda6a1e2ce6f1639b6d3066254ca87a2daf51c4f0ad5038d408bbab6cc2cab00826118be565b815465ffffffffffff7401000000000000000000000000000000000000000082048116917a0100000000000000000000000000000000000000000000000000009004165f610b23828461222f565b905065ffffffffffff821615610cb0576040805160e0810182525f80825260208201819052918101829052606081018290526080810182905260a0810182905260c08101919091525065ffffffffffff7fffffffffffffffffffffffffffffffffffffffffffffffffffffffffffffffff8201165f90815260028087016020908152604092839020835160e081018552815473ffffffffffffffffffffffffffffffffffffffff8116825264ffffffffff7401000000000000000000000000000000000000000082048116838601527901000000000000000000000000000000000000000000000000008204168287015261ffff7e01000000000000000000000000000000000000000000000000000000000000909104166060820152600182015460808201529281015460a08401526003015460c08301529091610c6d9190870190870161225f565b64ffffffffff16816020015164ffffffffff1610610cae57610cae7f7b10269c00000000000000000000000000000000000000000000000000000000611944565b505b610cca610cc06020860186611dee565b856080013561194c565b65ffffffffffff81165f90815260028601602052604090208490610cee8282612292565b50610cfc905082600161222f565b855479ffffffffffffffffffffffffffffffffffffffffffffffffffff167a01000000000000000000000000000000000000000000000000000065ffffffffffff92831602178655604051908216907fb2d7f7a48138c995ec7024ac4e176fad4415d42377559f3178e3830941b0484190610d7890879061249b565b60405180910390a25050505050565b6003830154610db957610db97ff235dd0100000000000000000000000000000000000000000000000000000000611944565b80604001355f03610ded57610ded7fdf4e56a500000000000000000000000000000000000000000000000000000000611944565b80606001355f03610e2157610e217f14574b4900000000000000000000000000000000000000000000000000000000611944565b825473ffffffffffffffffffffffffffffffffffffffff16610e6657610e667fe211c34c00000000000000000000000000000000000000000000000000000000611944565b826001015481604001358460020154610e7f91906124a9565b1115610eae57610eae7fb0b4e6d400000000000000000000000000000000000000000000000000000000611944565b825474010000000000000000000000000000000000000000900464ffffffffff16421015610eff57610eff7f4b3950d800000000000000000000000000000000000000000000000000000000611944565b8254790100000000000000000000000000000000000000000000000000900464ffffffffff1615801590610f5857508254790100000000000000000000000000000000000000000000000000900464ffffffffff164210155b15610f8657610f867fd87c5b1d00000000000000000000000000000000000000000000000000000000611944565b815415610fb657610fb67f7f76444f00000000000000000000000000000000000000000000000000000000611944565b5f610ff8610fca6040840160208501611dee565b60408051606092831b8152818601356020808301919091528387013582840152838220825281209201905290565b600385015490915061101b908261101260808601866124bc565b90929091611a08565b611048576110487f592fca3400000000000000000000000000000000000000000000000000000000611944565b50505050565b82545f9061ffff7e01000000000000000000000000000000000000000000000000000000000000909104811690831681146110ac576110ac7f70566c0000000000000000000000000000000000000000000000000000000000611944565b6040840135915061ffff8116156110da575f6110d085604001358361ffff16611a40565b6040860135039250505b509392505050565b80836002015f8282546110f591906124a9565b9091555050815401905550565b61110d838383611af1565b600290920180549290920390915550565b8173ffffffffffffffffffffffffffffffffffffffff168373ffffffffffffffffffffffffffffffffffffffff160315611048573073ffffffffffffffffffffffffffffffffffffffff8416036111955761119073ffffffffffffffffffffffffffffffffffffffff85168383611b67565b611048565b61104873ffffffffffffffffffffffffffffffffffffffff8516848484611bba565b80546060907a010000000000000000000000000000000000000000000000000000900465ffffffffffff1667ffffffffffffffff8111156111fa576111fa612527565b60405190808252806020026020018201604052801561127e57816020015b6040805160e0810182525f8082526020808301829052928201819052606082018190526080820181905260a0820181905260c082015282527fffffffffffffffffffffffffffffffffffffffffffffffffffffffffffffffff9092019101816112185790505b5090505f5b82547a010000000000000000000000000000000000000000000000000000900465ffffffffffff168110156113dc57825460028401905f906112e690849074010000000000000000000000000000000000000000900465ffffffffffff166124a9565b815260208082019290925260409081015f20815160e081018352815473ffffffffffffffffffffffffffffffffffffffff8116825274010000000000000000000000000000000000000000810464ffffffffff908116958301959095527901000000000000000000000000000000000000000000000000008104909416928101929092527e0100000000000000000000000000000000000000000000000000000000000090920461ffff16606082015260018201546080820152600282015460a082015260039091015460c082015282518390839081106113c9576113c9612554565b6020908102919091010152600101611283565b50919050565b80545f9065ffffffffffff7401000000000000000000000000000000000000000082048116917a010000000000000000000000000000000000000000000000000000900416808303611457576114577f44d5f09400000000000000000000000000000000000000000000000000000000611944565b65ffffffffffff7fffffffffffffffffffffffffffffffffffffffffffffffffffffffffffffffff8383010116805b8365ffffffffffff16811061151f575f8181526002870160205260409020805464ffffffffff79010000000000000000000000000000000000000000000000000082048116917401000000000000000000000000000000000000000090041642108015906114fb57508015806114fb57508042105b1561150c5750909695505050505050565b50508061151890612581565b9050611486565b506115497f44d5f09400000000000000000000000000000000000000000000000000000000611944565b505050919050565b825465ffffffffffff7401000000000000000000000000000000000000000082048116917a01000000000000000000000000000000000000000000000000000090048116906115a084846124a9565b11156115cf576115cf7fae4eeeb100000000000000000000000000000000000000000000000000000000611944565b825f80805b8365ffffffffffff1681101561170b57368888838181106115f7576115f7612554565b905060e002019050806020016020810190611612919061225f565b64ffffffffff168465ffffffffffff1610611650576116507f7b10269c00000000000000000000000000000000000000000000000000000000611944565b5f60028b01816116688565ffffffffffff8c166124a9565b81526020019081526020015f2090505f8160020154905082608001358111156116b4576116b47fae4eeeb100000000000000000000000000000000000000000000000000000000611944565b6116be8284611c1c565b6116ce604084016020850161225f565b64ffffffffff1695506116e56080840135866124a9565b94506116fd6116f76020850185611dee565b8661194c565b5050508060010190506115d4565b50875465ffffffffffff8085167a010000000000000000000000000000000000000000000000000000810279ffffffffffffffffffffffffffffffffffffffffffffffffffff909316929092178a55851611156117b75765ffffffffffff83165b8465ffffffffffff168110156117b55765ffffffffffff861681015f9081526002808b01602052604082208281556001808201849055918101839055600301919091550161176c565b505b8465ffffffffffff167ff91c9c864018770f197086e7e64354d3a54259e85887953cbbe7d02ba32aba8e88886040516117f19291906125b5565b60405180910390a25050505050505050565b815483546040517f095ea7b300000000000000000000000000000000000000000000000000000000815273ffffffffffffffffffffffffffffffffffffffff91821660048201526024810184905291169063095ea7b3906044016020604051808303815f875af1158015611879573d5f5f3e3d5ffd5b505050506040513d601f19601f8201168201806040525081019061104891906125f6565b5f6c0100000000000000000000000082106118ba576118ba611d99565b5090565b73ffffffffffffffffffffffffffffffffffffffff8116611902576119027fe3224c7800000000000000000000000000000000000000000000000000000000611944565b81547fffffffffffffffffffffffff00000000000000000000000000000000000000001673ffffffffffffffffffffffffffffffffffffffff91909116179055565b805f5260045ffd5b6040517f70a0823100000000000000000000000000000000000000000000000000000000815230600482015273ffffffffffffffffffffffffffffffffffffffff8316906370a0823190602401602060405180830381865afa1580156119b4573d5f5f3e3d5ffd5b505050506040513d601f19601f820116820180604052508101906119d891906121eb565b811115610711576107117f42e1bedf00000000000000000000000000000000000000000000000000000000611944565b5f8315611a38578360051b8501855b803580851160051b94855260209485185260405f209301818110611a175750505b501492915050565b5f612710821115611ad3576040517f08c379a000000000000000000000000000000000000000000000000000000000815260206004820152602160248201527f426173697320706f696e74732063616e6e6f74206578636565642031305f303060448201527f300000000000000000000000000000000000000000000000000000000000000060648201526084016102ff565b612710611ae08385612615565b611aea919061262c565b9392505050565b5f5f611afe858585611da6565b915091508115611b60576040517fe450d38c00000000000000000000000000000000000000000000000000000000815273ffffffffffffffffffffffffffffffffffffffff8516600482015260248101829052604481018490526064016102ff565b5050505050565b81601452806034526fa9059cbb0000000000000000000000005f5260205f604460105f875af18060015f511416611bb057803d853b151710611bb0576390b8ec185f526004601cfd5b505f603452505050565b60405181606052826040528360601b602c526f23b872dd000000000000000000000000600c5260205f6064601c5f895af18060015f511416611c0e57803d873b151710611c0e57637939f4245f526004601cfd5b505f60605260405250505050565b611c2c604082016020830161225f565b825464ffffffffff9190911674010000000000000000000000000000000000000000027fffffffffffffff0000000000ffffffffffffffffffffffffffffffffffffffff909116178255611c86606082016040830161225f565b825464ffffffffff91909116790100000000000000000000000000000000000000000000000000027fffff0000000000ffffffffffffffffffffffffffffffffffffffffffffffffff9091161782556080810135600183015560c08101356003830155611cf66020820182611dee565b82547fffffffffffffffffffffffff00000000000000000000000000000000000000001673ffffffffffffffffffffffffffffffffffffffff91909116178255611d466080820160608301612664565b825461ffff919091167e01000000000000000000000000000000000000000000000000000000000000027dffffffffffffffffffffffffffffffffffffffffffffffffffffffffffff9091161790915550565b6335278d125f526004601cfd5b5f82815260208490526040902080548281109182611dc45783820381555b50935093915050565b73ffffffffffffffffffffffffffffffffffffffff81168114610229575f5ffd5b5f60208284031215611dfe575f5ffd5b8135611aea81611dcd565b5f5f60408385031215611e1a575f5ffd5b8235611e2581611dcd565b946020939093013593505050565b5f60e0828403128015611e44575f5ffd5b509092915050565b5f60208284031215611e5c575f5ffd5b5035919050565b60e0810161028b828473ffffffffffffffffffffffffffffffffffffffff815116825264ffffffffff602082015116602083015264ffffffffff604082015116604083015261ffff60608201511660608301526080810151608083015260a081015160a083015260c081015160c08301525050565b5f60a082840312156113dc575f5ffd5b61ffff81168114610229575f5ffd5b8035611f0281611ee8565b919050565b5f5f60408385031215611f18575f5ffd5b823567ffffffffffffffff811115611f2e575f5ffd5b611f3a85828601611ed8565b9250506020830135611f4b81611ee8565b809150509250929050565b602080825282518282018190525f918401906040840190835b81811015611fff57611fe983855173ffffffffffffffffffffffffffffffffffffffff815116825264ffffffffff602082015116602083015264ffffffffff604082015116604083015261ffff60608201511660608301526080810151608083015260a081015160a083015260c081015160c08301525050565b6020939093019260e09290920191600101611f6f565b509095945050505050565b5f5f6020838503121561201b575f5ffd5b823567ffffffffffffffff811115612031575f5ffd5b8301601f81018513612041575f5ffd5b803567ffffffffffffffff811115612057575f5ffd5b85602060e08302840101111561206b575f5ffd5b6020919091019590945092505050565b5f5f5f5f5f6080868803121561208f575f5ffd5b853567ffffffffffffffff8111156120a5575f5ffd5b6120b188828901611ed8565b95505060208601356120c281611dcd565b935060408601359250606086013567ffffffffffffffff8111156120e4575f5ffd5b8601601f810188136120f4575f5ffd5b803567ffffffffffffffff81111561210a575f5ffd5b88602082840101111561211b575f5ffd5b959894975092955050506020019190565b6bffffffffffffffffffffffff8816815273ffffffffffffffffffffffffffffffffffffffff8716602082015273ffffffffffffffffffffffffffffffffffffffff8616604082015273ffffffffffffffffffffffffffffffffffffffff8516606082015283608082015260c060a08201528160c0820152818360e08301375f81830160e090810191909152601f9092017fffffffffffffffffffffffffffffffffffffffffffffffffffffffffffffffe01601019695505050505050565b5f602082840312156121fb575f5ffd5b5051919050565b7f4e487b71000000000000000000000000000000000000000000000000000000005f52601160045260245ffd5b65ffffffffffff818116838216019081111561028b5761028b612202565b64ffffffffff81168114610229575f5ffd5b5f6020828403121561226f575f5ffd5b8135611aea8161224d565b5f813561028b8161224d565b5f813561028b81611ee8565b813561229d81611dcd565b73ffffffffffffffffffffffffffffffffffffffff81167fffffffffffffffffffffffff00000000000000000000000000000000000000008354161782555060208201356122ea8161224d565b81547fffffffffffffff0000000000ffffffffffffffffffffffffffffffffffffffff1660a09190911b78ffffffffff0000000000000000000000000000000000000000161781556123906123416040840161227a565b82547fffff0000000000ffffffffffffffffffffffffffffffffffffffffffffffffff1660c89190911b7dffffffffff0000000000000000000000000000000000000000000000000016178255565b6123ee61239f60608401612286565b82547dffffffffffffffffffffffffffffffffffffffffffffffffffffffffffff1660f09190911b7fffff00000000000000000000000000000000000000000000000000000000000016178255565b6080820135600182015560a0820135600282015560c090910135600390910155565b803561241b81611dcd565b73ffffffffffffffffffffffffffffffffffffffff16825260208101356124418161224d565b64ffffffffff166020830152604081013561245b8161224d565b64ffffffffff16604083015261247360608201611ef7565b61ffff1660608301526080818101359083015260a0808201359083015260c090810135910152565b60e0810161028b8284612410565b8082018082111561028b5761028b612202565b5f5f83357fffffffffffffffffffffffffffffffffffffffffffffffffffffffffffffffe18436030181126124ef575f5ffd5b83018035915067ffffffffffffffff821115612509575f5ffd5b6020019150600581901b3603821315612520575f5ffd5b9250929050565b7f4e487b71000000000000000000000000000000000000000000000000000000005f52604160045260245ffd5b7f4e487b71000000000000000000000000000000000000000000000000000000005f52603260045260245ffd5b5f8161258f5761258f612202565b507fffffffffffffffffffffffffffffffffffffffffffffffffffffffffffffffff0190565b602080825281018290525f8360408301825b858110156125ec576125d98284612410565b60e09283019291909101906001016125c7565b5095945050505050565b5f60208284031215612606575f5ffd5b81518015158114611aea575f5ffd5b808202811582820484141761028b5761028b612202565b5f8261265f577f4e487b71000000000000000000000000000000000000000000000000000000005f52601260045260245ffd5b500490565b5f60208284031215612674575f5ffd5b8135611aea81611ee856","linkReferences":{}},"methodIdentifiers":{"__DropFacet_init(address)":"14c9fcbc","addClaimCondition((address,uint40,uint40,uint16,uint256,uint256,bytes32))":"64843393","claimAndStake((uint256,address,uint256,uint256,bytes32[]),address,uint256,bytes)":"fff96374","claimWithPenalty((uint256,address,uint256,uint256,bytes32[]),uint16)":"81045e36","getActiveClaimConditionId()":"c68907de","getClaimConditionById(uint256)":"6f8934f4","getClaimConditions()":"a1550b2f","getDepositIdByWallet(address,uint256)":"7a05557c","getSupplyClaimedByWallet(address,uint256)":"33d42dc6","setClaimConditions((address,uint40,uint40,uint16,uint256,uint256,bytes32)[])":"c9ac9368"},"id":264}