{"abi":[{"type":"function","name":"__DropFacet_init","inputs":[{"name":"rewardsDistribution","type":"address","internalType":"address"}],"outputs":[],"stateMutability":"nonpayable"},{"type":"function","name":"addClaimCondition","inputs":[{"name":"condition","type":"tuple","internalType":"struct DropGroup.ClaimCondition","components":[{"name":"currency","type":"address","internalType":"address"},{"name":"startTimestamp","type":"uint40","internalType":"uint40"},{"name":"endTimestamp","type":"uint40","internalType":"uint40"},{"name":"penaltyBps","type":"uint16","internalType":"uint16"},{"name":"maxClaimableSupply","type":"uint256","internalType":"uint256"},{"name":"supplyClaimed","type":"uint256","internalType":"uint256"},{"name":"merkleRoot","type":"bytes32","internalType":"bytes32"}]}],"outputs":[],"stateMutability":"nonpayable"},{"type":"function","name":"claimAndStake","inputs":[{"name":"req","type":"tuple","internalType":"struct DropClaim.Claim","components":[{"name":"conditionId","type":"uint256","internalType":"uint256"},{"name":"account","type":"address","internalType":"address"},{"name":"quantity","type":"uint256","internalType":"uint256"},{"name":"points","type":"uint256","internalType":"uint256"},{"name":"proof","type":"bytes32[]","internalType":"bytes32[]"}]},{"name":"delegatee","type":"address","internalType":"address"},{"name":"deadline","type":"uint256","internalType":"uint256"},{"name":"signature","type":"bytes","internalType":"bytes"}],"outputs":[{"name":"amount","type":"uint256","internalType":"uint256"}],"stateMutability":"nonpayable"},{"type":"function","name":"claimWithPenalty","inputs":[{"name":"req","type":"tuple","internalType":"struct DropClaim.Claim","components":[{"name":"conditionId","type":"uint256","internalType":"uint256"},{"name":"account","type":"address","internalType":"address"},{"name":"quantity","type":"uint256","internalType":"uint256"},{"name":"points","type":"uint256","internalType":"uint256"},{"name":"proof","type":"bytes32[]","internalType":"bytes32[]"}]},{"name":"expectedPenaltyBps","type":"uint16","internalType":"uint16"}],"outputs":[{"name":"amount","type":"uint256","internalType":"uint256"}],"stateMutability":"nonpayable"},{"type":"function","name":"getActiveClaimConditionId","inputs":[],"outputs":[{"name":"","type":"uint256","internalType":"uint256"}],"stateMutability":"view"},{"type":"function","name":"getClaimConditionById","inputs":[{"name":"conditionId","type":"uint256","internalType":"uint256"}],"outputs":[{"name":"condition","type":"tuple","internalType":"struct DropGroup.ClaimCondition","components":[{"name":"currency","type":"address","internalType":"address"},{"name":"startTimestamp","type":"uint40","internalType":"uint40"},{"name":"endTimestamp","type":"uint40","internalType":"uint40"},{"name":"penaltyBps","type":"uint16","internalType":"uint16"},{"name":"maxClaimableSupply","type":"uint256","internalType":"uint256"},{"name":"supplyClaimed","type":"uint256","internalType":"uint256"},{"name":"merkleRoot","type":"bytes32","internalType":"bytes32"}]}],"stateMutability":"view"},{"type":"function","name":"getClaimConditions","inputs":[],"outputs":[{"name":"","type":"tuple[]","internalType":"struct DropGroup.ClaimCondition[]","components":[{"name":"currency","type":"address","internalType":"address"},{"name":"startTimestamp","type":"uint40","internalType":"uint40"},{"name":"endTimestamp","type":"uint40","internalType":"uint40"},{"name":"penaltyBps","type":"uint16","internalType":"uint16"},{"name":"maxClaimableSupply","type":"uint256","internalType":"uint256"},{"name":"supplyClaimed","type":"uint256","internalType":"uint256"},{"name":"merkleRoot","type":"bytes32","internalType":"bytes32"}]}],"stateMutability":"view"},{"type":"function","name":"getDepositIdByWallet","inputs":[{"name":"account","type":"address","internalType":"address"},{"name":"conditionId","type":"uint256","internalType":"uint256"}],"outputs":[{"name":"","type":"uint256","internalType":"uint256"}],"stateMutability":"view"},{"type":"function","name":"getSupplyClaimedByWallet","inputs":[{"name":"account","type":"address","internalType":"address"},{"name":"conditionId","type":"uint256","internalType":"uint256"}],"outputs":[{"name":"","type":"uint256","internalType":"uint256"}],"stateMutability":"view"},{"type":"function","name":"setClaimConditions","inputs":[{"name":"conditions","type":"tuple[]","internalType":"struct DropGroup.ClaimCondition[]","components":[{"name":"currency","type":"address","internalType":"address"},{"name":"startTimestamp","type":"uint40","internalType":"uint40"},{"name":"endTimestamp","type":"uint40","internalType":"uint40"},{"name":"penaltyBps","type":"uint16","internalType":"uint16"},{"name":"maxClaimableSupply","type":"uint256","internalType":"uint256"},{"name":"supplyClaimed","type":"uint256","internalType":"uint256"},{"name":"merkleRoot","type":"bytes32","internalType":"bytes32"}]}],"outputs":[],"stateMutability":"nonpayable"},{"type":"event","name":"DropFacet_ClaimConditionAdded","inputs":[{"name":"conditionId","type":"uint256","indexed":true,"internalType":"uint256"},{"name":"condition","type":"tuple","indexed":false,"internalType":"struct DropGroup.ClaimCondition","components":[{"name":"currency","type":"address","internalType":"address"},{"name":"startTimestamp","type":"uint40","internalType":"uint40"},{"name":"endTimestamp","type":"uint40","internalType":"uint40"},{"name":"penaltyBps","type":"uint16","internalType":"uint16"},{"name":"maxClaimableSupply","type":"uint256","internalType":"uint256"},{"name":"supplyClaimed","type":"uint256","internalType":"uint256"},{"name":"merkleRoot","type":"bytes32","internalType":"bytes32"}]}],"anonymous":false},{"type":"event","name":"DropFacet_ClaimConditionsUpdated","inputs":[{"name":"conditionId","type":"uint256","indexed":true,"internalType":"uint256"},{"name":"conditions","type":"tuple[]","indexed":false,"internalType":"struct DropGroup.ClaimCondition[]","components":[{"name":"currency","type":"address","internalType":"address"},{"name":"startTimestamp","type":"uint40","internalType":"uint40"},{"name":"endTimestamp","type":"uint40","internalType":"uint40"},{"name":"penaltyBps","type":"uint16","internalType":"uint16"},{"name":"maxClaimableSupply","type":"uint256","internalType":"uint256"},{"name":"supplyClaimed","type":"uint256","internalType":"uint256"},{"name":"merkleRoot","type":"bytes32","internalType":"bytes32"}]}],"anonymous":false},{"type":"event","name":"DropFacet_Claimed_And_Staked","inputs":[{"name":"conditionId","type":"uint256","indexed":true,"internalType":"uint256"},{"name":"claimer","type":"address","indexed":true,"internalType":"address"},{"name":"account","type":"address","indexed":true,"internalType":"address"},{"name":"amount","type":"uint256","indexed":false,"internalType":"uint256"}],"anonymous":false},{"type":"event","name":"DropFacet_Claimed_WithPenalty","inputs":[{"name":"conditionId","type":"uint256","indexed":true,"internalType":"uint256"},{"name":"claimer","type":"address","indexed":true,"internalType":"address"},{"name":"account","type":"address","indexed":true,"internalType":"address"},{"name":"amount","type":"uint256","indexed":false,"internalType":"uint256"}],"anonymous":false},{"type":"event","name":"Initialized","inputs":[{"name":"version","type":"uint32","indexed":false,"internalType":"uint32"}],"anonymous":false},{"type":"event","name":"InterfaceAdded","inputs":[{"name":"interfaceId","type":"bytes4","indexed":true,"internalType":"bytes4"}],"anonymous":false},{"type":"event","name":"InterfaceRemoved","inputs":[{"name":"interfaceId","type":"bytes4","indexed":true,"internalType":"bytes4"}],"anonymous":false},{"type":"event","name":"OwnershipTransferred","inputs":[{"name":"previousOwner","type":"address","indexed":true,"internalType":"address"},{"name":"newOwner","type":"address","indexed":true,"internalType":"address"}],"anonymous":false},{"type":"error","name":"DropFacet__AlreadyClaimed","inputs":[]},{"type":"error","name":"DropFacet__CannotSetClaimConditions","inputs":[]},{"type":"error","name":"DropFacet__ClaimConditionsNotInAscendingOrder","inputs":[]},{"type":"error","name":"DropFacet__ClaimHasEnded","inputs":[]},{"type":"error","name":"DropFacet__ClaimHasNotStarted","inputs":[]},{"type":"error","name":"DropFacet__CurrencyNotSet","inputs":[]},{"type":"error","name":"DropFacet__ExceedsMaxClaimableSupply","inputs":[]},{"type":"error","name":"DropFacet__InsufficientBalance","inputs":[]},{"type":"error","name":"DropFacet__InvalidProof","inputs":[]},{"type":"error","name":"DropFacet__MerkleRootNotSet","inputs":[]},{"type":"error","name":"DropFacet__NoActiveClaimCondition","inputs":[]},{"type":"error","name":"DropFacet__QuantityMustBeGreaterThanZero","inputs":[]},{"type":"error","name":"DropFacet__RewardsDistributionNotSet","inputs":[]},{"type":"error","name":"DropFacet__UnexpectedPenaltyBps","inputs":[]},{"type":"error","name":"ERC20InsufficientBalance","inputs":[{"name":"sender","type":"address","internalType":"address"},{"name":"balance","type":"uint256","internalType":"uint256"},{"name":"needed","type":"uint256","internalType":"uint256"}]},{"type":"error","name":"Initializable_InInitializingState","inputs":[]},{"type":"error","name":"Initializable_NotInInitializingState","inputs":[]},{"type":"error","name":"Introspection_AlreadySupported","inputs":[]},{"type":"error","name":"Introspection_NotSupported","inputs":[]},{"type":"error","name":"Ownable__NotOwner","inputs":[{"name":"account","type":"address","internalType":"address"}]},{"type":"error","name":"Ownable__ZeroAddress","inputs":[]}],"bytecode":{"object":"0x6080604052348015600e575f5ffd5b5060156019565b60bd565b7f59b501c3653afc186af7d48dda36cf6732bd21629a6295693664240a6ef520008054640100000000900460ff16156064576040516366008a2d60e01b815260040160405180910390fd5b805463ffffffff908116101560ba57805463ffffffff191663ffffffff90811782556040519081527fe9c9b456cb2994b80aeef036cf59d26e9617df80f816a6ee5a5b4166e07e2f5c9060200160405180910390a15b50565b6124ea806100ca5f395ff3fe608060405234801561000f575f5ffd5b50600436106100b9575f3560e01c806381045e3611610072578063c68907de11610058578063c68907de146101b6578063c9ac9368146101be578063fff96374146101d1575f5ffd5b806381045e361461018e578063a1550b2f146101a1575f5ffd5b806364843393116100a257806364843393146100f85780636f8934f41461010b5780637a05557c1461012b575f5ffd5b806314c9fcbc146100bd57806333d42dc6146100d2575b5f5ffd5b6100d06100cb366004611c72565b6101e4565b005b6100e56100e0366004611c8d565b61027c565b6040519081526020015b60405180910390f35b6100d0610106366004611cb7565b6102d1565b61011e610119366004611cd0565b610351565b6040516100ef9190611ce7565b6100e5610139366004611c8d565b5f9081527feda6a1e2ce6f1639b6d3066254ca87a2daf51c4f0ad5038d408bbab6cc2cab016020908152604080832073ffffffffffffffffffffffffffffffffffffffff949094168352929052206001015490565b6100e561019c366004611d91565b61047b565b6101a9610614565b6040516100ef9190611de0565b6100e5610623565b6100d06101cc366004611e94565b61062c565b6100e56101df366004611f05565b6106ac565b7f59b501c3653afc186af7d48dda36cf6732bd21629a6295693664240a6ef5200054640100000000900460ff16610247576040517f77a399b800000000000000000000000000000000000000000000000000000000815260040160405180910390fd5b6102707f9251dd060000000000000000000000000000000000000000000000000000000061090f565b61027981610a64565b50565b5f8181527feda6a1e2ce6f1639b6d3066254ca87a2daf51c4f0ad5038d408bbab6cc2cab016020908152604080832073ffffffffffffffffffffffffffffffffffffffff861684529091529020545b92915050565b7f4675fa8241f86f37157864d3d49b85ad4b164352c516da28e1678a90470ae3005473ffffffffffffffffffffffffffffffffffffffff163314610348576040517f65f490650000000000000000000000000000000000000000000000000000000081523360048201526024015b60405180910390fd5b61027981610a6d565b604080515f80825260208201819052818301819052606082018190526080820181905260a0820181905260c0820152908190526103ba825f9081527feda6a1e2ce6f1639b6d3066254ca87a2daf51c4f0ad5038d408bbab6cc2cab016020526040902060010190565b6040805160e081018252825473ffffffffffffffffffffffffffffffffffffffff8116825274010000000000000000000000000000000000000000810464ffffffffff9081166020840152790100000000000000000000000000000000000000000000000000820416928201929092527e0100000000000000000000000000000000000000000000000000000000000090910461ffff16606082015260018201546080820152600282015460a082015260039091015460c082015292915050565b81355f9081527feda6a1e2ce6f1639b6d3066254ca87a2daf51c4f0ad5038d408bbab6cc2cab016020526040808220600181015490916104e69190860135907e01000000000000000000000000000000000000000000000000000000000000900461ffff1685610cca565b91506104f28183610d2a565b6004810154610502908590610ef7565b61051d6105156040860160208701611c72565b829084610f4b565b7f25a22d57af6f735dc617e9781981413da3bc5a71376b4237270a04c144aaf70061055d6105516040870160208801611c72565b82906060880135610fbf565b6105926105706040870160208801611c72565b600184015473ffffffffffffffffffffffffffffffffffffffff169085610fdb565b6105a26040860160208701611c72565b73ffffffffffffffffffffffffffffffffffffffff163373ffffffffffffffffffffffffffffffffffffffff16865f01357f970af01ab25e63f8131277859b2c17e9a07c2eb257e6db87449000d91c0f84018660405161060491815260200190565b60405180910390a4505092915050565b606061061e61102e565b905090565b5f61061e61128a565b7f4675fa8241f86f37157864d3d49b85ad4b164352c516da28e1678a90470ae3005473ffffffffffffffffffffffffffffffffffffffff16331461069e576040517f65f4906500000000000000000000000000000000000000000000000000000000815233600482015260240161033f565b6106a88282611445565b5050565b84355f9081527feda6a1e2ce6f1639b6d3066254ca87a2daf51c4f0ad5038d408bbab6cc2cab0160205260409081902090860135906106eb8183610d2a565b60048101546106fb908890610ef7565b61070e6105156040890160208a01611c72565b7f25a22d57af6f735dc617e9781981413da3bc5a71376b4237270a04c144aaf70061074e61074260408a0160208b01611c72565b829060608b0135610fbf565b60018201546107739073ffffffffffffffffffffffffffffffffffffffff168461171b565b5f7feda6a1e2ce6f1639b6d3066254ca87a2daf51c4f0ad5038d408bbab6cc2cab005473ffffffffffffffffffffffffffffffffffffffff1663e69f94956107ba86611760565b8a6107cb60408e0160208f01611c72565b8d60200160208101906107de9190611c72565b8c8c8c6040518863ffffffff1660e01b81526004016108039796959493929190611fb6565b6020604051808303815f875af115801561081f573d5f5f3e3d5ffd5b505050506040513d601f19601f820116820180604052508101906108439190612075565b90505f838161085860408d0160208e01611c72565b73ffffffffffffffffffffffffffffffffffffffff16815260208082019290925260409081015f2060018101859055925061089891908c01908c01611c72565b73ffffffffffffffffffffffffffffffffffffffff163373ffffffffffffffffffffffffffffffffffffffff168b5f01357ff08f338c8905e343697a35fef11af2f611a36658016e0653521354c865373ea7886040516108fa91815260200190565b60405180910390a45050505095945050505050565b7fffffffff0000000000000000000000000000000000000000000000000000000081165f9081527f81088bbc801e045ea3e7620779ab349988f58afbdfba10dff983df3f33522b00602052604090205460ff166109e3577fffffffff0000000000000000000000000000000000000000000000000000000081165f9081527f81088bbc801e045ea3e7620779ab349988f58afbdfba10dff983df3f33522b006020526040902080547fffffffffffffffffffffffffffffffffffffffffffffffffffffffffffffff00166001179055610a15565b6040517ff2cfeefa00000000000000000000000000000000000000000000000000000000815260040160405180910390fd5b6040517fffffffff000000000000000000000000000000000000000000000000000000008216907f78f84e5b1c5c05be2b5ad3800781dd404d6d6c6302bc755c0fe20f58a33a7f22905f90a250565b61027981611781565b7feda6a1e2ce6f1639b6d3066254ca87a2daf51c4f0ad5038d408bbab6cc2cab005465ffffffffffff7401000000000000000000000000000000000000000082048116917a0100000000000000000000000000000000000000000000000000009004165f610adb82846120b9565b905065ffffffffffff821615610bae5765ffffffffffff7fffffffffffffffffffffffffffffffffffffffffffffffffffffffffffffffff8201165f9081527feda6a1e2ce6f1639b6d3066254ca87a2daf51c4f0ad5038d408bbab6cc2cab01602052604081206001019050610b5760408601602087016120e9565b815464ffffffffff9182167401000000000000000000000000000000000000000090910490911610610bac57610bac7f7b10269c0000000000000000000000000000000000000000000000000000000061182b565b505b610bc8610bbe6020860186611c72565b8560800135611833565b83610c048265ffffffffffff165f9081527feda6a1e2ce6f1639b6d3066254ca87a2daf51c4f0ad5038d408bbab6cc2cab016020526040902090565b600101610c11828261211c565b50610c1f90508260016120b9565b7feda6a1e2ce6f1639b6d3066254ca87a2daf51c4f0ad5038d408bbab6cc2cab00805479ffffffffffffffffffffffffffffffffffffffffffffffffffff167a01000000000000000000000000000000000000000000000000000065ffffffffffff93841602179055604051908216907fb2d7f7a48138c995ec7024ac4e176fad4415d42377559f3178e3830941b0484190610cbc908790612325565b60405180910390a250505050565b5f8161ffff168361ffff1614610d0357610d037f70566c000000000000000000000000000000000000000000000000000000000061182b565b61ffff831615610d22575f610d1c858561ffff16611883565b90940393505b509192915050565b60048201546001830190610d6157610d617ff235dd010000000000000000000000000000000000000000000000000000000061182b565b815f03610d9157610d917fdf4e56a50000000000000000000000000000000000000000000000000000000061182b565b805473ffffffffffffffffffffffffffffffffffffffff16610dd657610dd67fe211c34c0000000000000000000000000000000000000000000000000000000061182b565b8060010154828260020154610deb9190612333565b1115610e1a57610e1a7fb0b4e6d40000000000000000000000000000000000000000000000000000000061182b565b805474010000000000000000000000000000000000000000900464ffffffffff16421015610e6b57610e6b7f4b3950d80000000000000000000000000000000000000000000000000000000061182b565b8054790100000000000000000000000000000000000000000000000000900464ffffffffff1615801590610ec457508054790100000000000000000000000000000000000000000000000000900464ffffffffff164210155b15610ef257610ef27fd87c5b1d0000000000000000000000000000000000000000000000000000000061182b565b505050565b5f610f0183611934565b9050610f1e8282610f156080870187612346565b90929091611972565b610ef257610ef27f592fca340000000000000000000000000000000000000000000000000000000061182b565b73ffffffffffffffffffffffffffffffffffffffff82165f908152602084905260409020805415610f9f57610f9f7f7f76444f0000000000000000000000000000000000000000000000000000000061182b565b81846001016002015f828254610fb59190612333565b9091555050555050565b610fca8383836119aa565b600290920180549290920390915550565b81601452806034526fa9059cbb0000000000000000000000005f5260205f604460105f875af18060015f51141661102457803d853b151710611024576390b8ec185f526004601cfd5b505f603452505050565b60605f5f61109d7feda6a1e2ce6f1639b6d3066254ca87a2daf51c4f0ad5038d408bbab6cc2cab005474010000000000000000000000000000000000000000810465ffffffffffff908116927a0100000000000000000000000000000000000000000000000000009092041690565b915091508065ffffffffffff1667ffffffffffffffff8111156110c2576110c26123b1565b60405190808252806020026020018201604052801561114657816020015b6040805160e0810182525f8082526020808301829052928201819052606082018190526080820181905260a0820181905260c082015282527fffffffffffffffffffffffffffffffffffffffffffffffffffffffffffffffff9092019101816110e05790505b5092505f5b8165ffffffffffff16811015611284576111a26111708265ffffffffffff8616612333565b5f9081527feda6a1e2ce6f1639b6d3066254ca87a2daf51c4f0ad5038d408bbab6cc2cab016020526040902060010190565b6040805160e081018252825473ffffffffffffffffffffffffffffffffffffffff8116825274010000000000000000000000000000000000000000810464ffffffffff9081166020840152790100000000000000000000000000000000000000000000000000820416928201929092527e0100000000000000000000000000000000000000000000000000000000000090910461ffff16606082015260018201546080820152600282015460a082015260039091015460c08201528451859083908110611271576112716123de565b602090810291909101015260010161114b565b50505090565b5f5f5f6112f87feda6a1e2ce6f1639b6d3066254ca87a2daf51c4f0ad5038d408bbab6cc2cab005474010000000000000000000000000000000000000000810465ffffffffffff908116927a0100000000000000000000000000000000000000000000000000009092041690565b915091508065ffffffffffff165f03611334576113347f44d5f0940000000000000000000000000000000000000000000000000000000061182b565b65ffffffffffff7fffffffffffffffffffffffffffffffffffffffffffffffffffffffffffffffff8383010116805b8365ffffffffffff16811061141b575f8181527feda6a1e2ce6f1639b6d3066254ca87a2daf51c4f0ad5038d408bbab6cc2cab0160205260409020600101805464ffffffffff79010000000000000000000000000000000000000000000000000082048116917401000000000000000000000000000000000000000090041642108015906113f857508015806113f857508042105b1561140857509095945050505050565b5050806114149061240b565b9050611363565b506112847f44d5f0940000000000000000000000000000000000000000000000000000000061182b565b7feda6a1e2ce6f1639b6d3066254ca87a2daf51c4f0ad5038d408bbab6cc2cab00805465ffffffffffff7401000000000000000000000000000000000000000082048116917a01000000000000000000000000000000000000000000000000000090048116906114b58584612333565b11156114e4576114e47fae4eeeb10000000000000000000000000000000000000000000000000000000061182b565b835f80805b8365ffffffffffff16811015611620573689898381811061150c5761150c6123de565b905060e00201905080602001602081019061152791906120e9565b64ffffffffff168465ffffffffffff1610611565576115657f7b10269c0000000000000000000000000000000000000000000000000000000061182b565b5f600189018161157d8565ffffffffffff8c16612333565b815260208101919091526040015f20600381015490915060808301358111156115c9576115c97fae4eeeb10000000000000000000000000000000000000000000000000000000061182b565b6115d38284611a20565b6115e360408401602085016120e9565b64ffffffffff1695506115fa608084013586612333565b945061161261160c6020850185611c72565b86611833565b5050508060010190506114e9565b50855465ffffffffffff8085167a010000000000000000000000000000000000000000000000000000810279ffffffffffffffffffffffffffffffffffffffffffffffffffff909316929092178855851611156116cf5765ffffffffffff83165b8465ffffffffffff168110156116cd5765ffffffffffff861681015f90815260018089016020526040822080820183905560028101839055600381018390556004019190915501611681565b505b8465ffffffffffff167ff91c9c864018770f197086e7e64354d3a54259e85887953cbbe7d02ba32aba8e898960405161170992919061243f565b60405180910390a25050505050505050565b6106a87feda6a1e2ce6f1639b6d3066254ca87a2daf51c4f0ad5038d408bbab6cc2cab005473ffffffffffffffffffffffffffffffffffffffff848116911683611ba1565b5f6c01000000000000000000000000821061177d5761177d611bea565b5090565b73ffffffffffffffffffffffffffffffffffffffff81166117c5576117c57fe3224c780000000000000000000000000000000000000000000000000000000061182b565b7feda6a1e2ce6f1639b6d3066254ca87a2daf51c4f0ad5038d408bbab6cc2cab0080547fffffffffffffffffffffffff00000000000000000000000000000000000000001673ffffffffffffffffffffffffffffffffffffffff92909216919091179055565b805f5260045ffd5b61185373ffffffffffffffffffffffffffffffffffffffff831630611bf7565b8111156106a8576106a87f42e1bedf0000000000000000000000000000000000000000000000000000000061182b565b5f612710821115611916576040517f08c379a000000000000000000000000000000000000000000000000000000000815260206004820152602160248201527f426173697320706f696e74732063616e6e6f74206578636565642031305f303060448201527f3000000000000000000000000000000000000000000000000000000000000000606482015260840161033f565b6127106119238385612480565b61192d9190612497565b9392505050565b5f806119466040840160208501611c72565b604080515f92835281860135602090815260609687013583529583208352949091209390525090919050565b5f83156119a2578360051b8501855b803580851160051b94855260209485185260405f2093018181106119815750505b501492915050565b5f5f6119b7858585611c2a565b915091508115611a19576040517fe450d38c00000000000000000000000000000000000000000000000000000000815273ffffffffffffffffffffffffffffffffffffffff85166004820152602481018290526044810184905260640161033f565b5050505050565b60018201611a3460408301602084016120e9565b815464ffffffffff9190911674010000000000000000000000000000000000000000027fffffffffffffff0000000000ffffffffffffffffffffffffffffffffffffffff909116178155611a8e60608301604084016120e9565b815464ffffffffff91909116790100000000000000000000000000000000000000000000000000027fffff0000000000ffffffffffffffffffffffffffffffffffffffffffffffffff9091161781556080820135600182015560c08201356003820155611afe6020830183611c72565b81547fffffffffffffffffffffffff00000000000000000000000000000000000000001673ffffffffffffffffffffffffffffffffffffffff91909116178155611b4e60808301606084016124cf565b815461ffff919091167e01000000000000000000000000000000000000000000000000000000000000027dffffffffffffffffffffffffffffffffffffffffffffffffffffffffffff9091161790555050565b81601452806034526f095ea7b30000000000000000000000005f5260205f604460105f875af18060015f51141661102457803d853b15171061102457633e3f8f735f526004601cfd5b6335278d125f526004601cfd5b5f816014526f70a082310000000000000000000000005f5260208060246010865afa601f3d111660205102905092915050565b5f82815260208490526040902080548281109182611c485783820381555b50935093915050565b73ffffffffffffffffffffffffffffffffffffffff81168114610279575f5ffd5b5f60208284031215611c82575f5ffd5b813561192d81611c51565b5f5f60408385031215611c9e575f5ffd5b8235611ca981611c51565b946020939093013593505050565b5f60e0828403128015611cc8575f5ffd5b509092915050565b5f60208284031215611ce0575f5ffd5b5035919050565b60e081016102cb828473ffffffffffffffffffffffffffffffffffffffff815116825264ffffffffff602082015116602083015264ffffffffff604082015116604083015261ffff60608201511660608301526080810151608083015260a081015160a083015260c081015160c08301525050565b5f60a08284031215611d6c575f5ffd5b50919050565b61ffff81168114610279575f5ffd5b8035611d8c81611d72565b919050565b5f5f60408385031215611da2575f5ffd5b823567ffffffffffffffff811115611db8575f5ffd5b611dc485828601611d5c565b9250506020830135611dd581611d72565b809150509250929050565b602080825282518282018190525f918401906040840190835b81811015611e8957611e7383855173ffffffffffffffffffffffffffffffffffffffff815116825264ffffffffff602082015116602083015264ffffffffff604082015116604083015261ffff60608201511660608301526080810151608083015260a081015160a083015260c081015160c08301525050565b6020939093019260e09290920191600101611df9565b509095945050505050565b5f5f60208385031215611ea5575f5ffd5b823567ffffffffffffffff811115611ebb575f5ffd5b8301601f81018513611ecb575f5ffd5b803567ffffffffffffffff811115611ee1575f5ffd5b85602060e083028401011115611ef5575f5ffd5b6020919091019590945092505050565b5f5f5f5f5f60808688031215611f19575f5ffd5b853567ffffffffffffffff811115611f2f575f5ffd5b611f3b88828901611d5c565b9550506020860135611f4c81611c51565b935060408601359250606086013567ffffffffffffffff811115611f6e575f5ffd5b8601601f81018813611f7e575f5ffd5b803567ffffffffffffffff811115611f94575f5ffd5b886020828401011115611fa5575f5ffd5b959894975092955050506020019190565b6bffffffffffffffffffffffff8816815273ffffffffffffffffffffffffffffffffffffffff8716602082015273ffffffffffffffffffffffffffffffffffffffff8616604082015273ffffffffffffffffffffffffffffffffffffffff8516606082015283608082015260c060a08201528160c0820152818360e08301375f81830160e090810191909152601f9092017fffffffffffffffffffffffffffffffffffffffffffffffffffffffffffffffe01601019695505050505050565b5f60208284031215612085575f5ffd5b5051919050565b7f4e487b71000000000000000000000000000000000000000000000000000000005f52601160045260245ffd5b65ffffffffffff81811683821601908111156102cb576102cb61208c565b64ffffffffff81168114610279575f5ffd5b5f602082840312156120f9575f5ffd5b813561192d816120d7565b5f81356102cb816120d7565b5f81356102cb81611d72565b813561212781611c51565b73ffffffffffffffffffffffffffffffffffffffff81167fffffffffffffffffffffffff0000000000000000000000000000000000000000835416178255506020820135612174816120d7565b81547fffffffffffffff0000000000ffffffffffffffffffffffffffffffffffffffff1660a09190911b78ffffffffff00000000000000000000000000000000000000001617815561221a6121cb60408401612104565b82547fffff0000000000ffffffffffffffffffffffffffffffffffffffffffffffffff1660c89190911b7dffffffffff0000000000000000000000000000000000000000000000000016178255565b61227861222960608401612110565b82547dffffffffffffffffffffffffffffffffffffffffffffffffffffffffffff1660f09190911b7fffff00000000000000000000000000000000000000000000000000000000000016178255565b6080820135600182015560a0820135600282015560c090910135600390910155565b80356122a581611c51565b73ffffffffffffffffffffffffffffffffffffffff16825260208101356122cb816120d7565b64ffffffffff16602083015260408101356122e5816120d7565b64ffffffffff1660408301526122fd60608201611d81565b61ffff1660608301526080818101359083015260a0808201359083015260c090810135910152565b60e081016102cb828461229a565b808201808211156102cb576102cb61208c565b5f5f83357fffffffffffffffffffffffffffffffffffffffffffffffffffffffffffffffe1843603018112612379575f5ffd5b83018035915067ffffffffffffffff821115612393575f5ffd5b6020019150600581901b36038213156123aa575f5ffd5b9250929050565b7f4e487b71000000000000000000000000000000000000000000000000000000005f52604160045260245ffd5b7f4e487b71000000000000000000000000000000000000000000000000000000005f52603260045260245ffd5b5f816124195761241961208c565b507fffffffffffffffffffffffffffffffffffffffffffffffffffffffffffffffff0190565b602080825281018290525f8360408301825b8581101561247657612463828461229a565b60e0928301929190910190600101612451565b5095945050505050565b80820281158282048414176102cb576102cb61208c565b5f826124ca577f4e487b71000000000000000000000000000000000000000000000000000000005f52601260045260245ffd5b500490565b5f602082840312156124df575f5ffd5b813561192d81611d7256","linkReferences":{}},"methodIdentifiers":{"__DropFacet_init(address)":"14c9fcbc","addClaimCondition((address,uint40,uint40,uint16,uint256,uint256,bytes32))":"64843393","claimAndStake((uint256,address,uint256,uint256,bytes32[]),address,uint256,bytes)":"fff96374","claimWithPenalty((uint256,address,uint256,uint256,bytes32[]),uint16)":"81045e36","getActiveClaimConditionId()":"c68907de","getClaimConditionById(uint256)":"6f8934f4","getClaimConditions()":"a1550b2f","getDepositIdByWallet(address,uint256)":"7a05557c","getSupplyClaimedByWallet(address,uint256)":"33d42dc6","setClaimConditions((address,uint40,uint40,uint16,uint256,uint256,bytes32)[])":"c9ac9368"},"id":311}