{"abi":[{"type":"function","name":"addEntitlementModule","inputs":[{"name":"entitlement","type":"address","internalType":"address"}],"outputs":[],"stateMutability":"nonpayable"},{"type":"function","name":"addImmutableEntitlements","inputs":[{"name":"entitlements","type":"address[]","internalType":"address[]"}],"outputs":[],"stateMutability":"nonpayable"},{"type":"function","name":"getChannelEntitlements","inputs":[{"name":"channelId","type":"string","internalType":"string"},{"name":"permission","type":"string","internalType":"string"}],"outputs":[{"name":"","type":"tuple","internalType":"struct IRuleEntitlement.RuleData","components":[{"name":"operations","type":"tuple[]","internalType":"struct IRuleEntitlement.Operation[]","components":[{"name":"opType","type":"uint8","internalType":"enum IRuleEntitlement.CombinedOperationType"},{"name":"index","type":"uint8","internalType":"uint8"}]},{"name":"checkOperations","type":"tuple[]","internalType":"struct IRuleEntitlement.CheckOperation[]","components":[{"name":"opType","type":"uint8","internalType":"enum IRuleEntitlement.CheckOperationType"},{"name":"chainId","type":"uint256","internalType":"uint256"},{"name":"contractAddress","type":"address","internalType":"address"},{"name":"threshold","type":"uint256","internalType":"uint256"}]},{"name":"logicalOperations","type":"tuple[]","internalType":"struct IRuleEntitlement.LogicalOperation[]","components":[{"name":"logOpType","type":"uint8","internalType":"enum IRuleEntitlement.LogicalOperationType"},{"name":"leftOperationIndex","type":"uint8","internalType":"uint8"},{"name":"rightOperationIndex","type":"uint8","internalType":"uint8"}]}]}],"stateMutability":"pure"},{"type":"function","name":"getEntitlement","inputs":[{"name":"entitlement","type":"address","internalType":"address"}],"outputs":[{"name":"","type":"tuple","internalType":"struct IEntitlementsManagerBase.Entitlement","components":[{"name":"name","type":"string","internalType":"string"},{"name":"moduleAddress","type":"address","internalType":"address"},{"name":"moduleType","type":"string","internalType":"string"},{"name":"isImmutable","type":"bool","internalType":"bool"}]}],"stateMutability":"view"},{"type":"function","name":"getEntitlements","inputs":[],"outputs":[{"name":"","type":"tuple[]","internalType":"struct IEntitlementsManagerBase.Entitlement[]","components":[{"name":"name","type":"string","internalType":"string"},{"name":"moduleAddress","type":"address","internalType":"address"},{"name":"moduleType","type":"string","internalType":"string"},{"name":"isImmutable","type":"bool","internalType":"bool"}]}],"stateMutability":"view"},{"type":"function","name":"getSpaceEntitlements","inputs":[{"name":"permission","type":"string","internalType":"string"}],"outputs":[{"name":"","type":"tuple","internalType":"struct IRuleEntitlement.RuleData","components":[{"name":"operations","type":"tuple[]","internalType":"struct IRuleEntitlement.Operation[]","components":[{"name":"opType","type":"uint8","internalType":"enum IRuleEntitlement.CombinedOperationType"},{"name":"index","type":"uint8","internalType":"uint8"}]},{"name":"checkOperations","type":"tuple[]","internalType":"struct IRuleEntitlement.CheckOperation[]","components":[{"name":"opType","type":"uint8","internalType":"enum IRuleEntitlement.CheckOperationType"},{"name":"chainId","type":"uint256","internalType":"uint256"},{"name":"contractAddress","type":"address","internalType":"address"},{"name":"threshold","type":"uint256","internalType":"uint256"}]},{"name":"logicalOperations","type":"tuple[]","internalType":"struct IRuleEntitlement.LogicalOperation[]","components":[{"name":"logOpType","type":"uint8","internalType":"enum IRuleEntitlement.LogicalOperationType"},{"name":"leftOperationIndex","type":"uint8","internalType":"uint8"},{"name":"rightOperationIndex","type":"uint8","internalType":"uint8"}]}]}],"stateMutability":"pure"},{"type":"function","name":"isEntitledToChannel","inputs":[{"name":"channelId","type":"string","internalType":"string"},{"name":"user","type":"address","internalType":"address"},{"name":"permission","type":"string","internalType":"string"}],"outputs":[{"name":"","type":"bool","internalType":"bool"}],"stateMutability":"view"},{"type":"function","name":"isEntitledToSpace","inputs":[{"name":"user","type":"address","internalType":"address"},{"name":"permission","type":"string","internalType":"string"}],"outputs":[{"name":"","type":"bool","internalType":"bool"}],"stateMutability":"view"},{"type":"function","name":"removeEntitlementModule","inputs":[{"name":"entitlement","type":"address","internalType":"address"}],"outputs":[],"stateMutability":"nonpayable"},{"type":"event","name":"Approval","inputs":[{"name":"owner","type":"address","indexed":true,"internalType":"address"},{"name":"approved","type":"address","indexed":true,"internalType":"address"},{"name":"tokenId","type":"uint256","indexed":true,"internalType":"uint256"}],"anonymous":false},{"type":"event","name":"ApprovalForAll","inputs":[{"name":"owner","type":"address","indexed":true,"internalType":"address"},{"name":"operator","type":"address","indexed":true,"internalType":"address"},{"name":"approved","type":"bool","indexed":false,"internalType":"bool"}],"anonymous":false},{"type":"event","name":"ConsecutiveTransfer","inputs":[{"name":"fromTokenId","type":"uint256","indexed":true,"internalType":"uint256"},{"name":"toTokenId","type":"uint256","indexed":false,"internalType":"uint256"},{"name":"from","type":"address","indexed":true,"internalType":"address"},{"name":"to","type":"address","indexed":true,"internalType":"address"}],"anonymous":false},{"type":"event","name":"EntitlementModuleAdded","inputs":[{"name":"caller","type":"address","indexed":true,"internalType":"address"},{"name":"entitlement","type":"address","indexed":false,"internalType":"address"}],"anonymous":false},{"type":"event","name":"EntitlementModuleRemoved","inputs":[{"name":"caller","type":"address","indexed":true,"internalType":"address"},{"name":"entitlement","type":"address","indexed":false,"internalType":"address"}],"anonymous":false},{"type":"event","name":"OwnershipTransferred","inputs":[{"name":"previousOwner","type":"address","indexed":true,"internalType":"address"},{"name":"newOwner","type":"address","indexed":true,"internalType":"address"}],"anonymous":false},{"type":"event","name":"Paused","inputs":[{"name":"account","type":"address","indexed":false,"internalType":"address"}],"anonymous":false},{"type":"event","name":"Transfer","inputs":[{"name":"from","type":"address","indexed":true,"internalType":"address"},{"name":"to","type":"address","indexed":true,"internalType":"address"},{"name":"tokenId","type":"uint256","indexed":true,"internalType":"uint256"}],"anonymous":false},{"type":"event","name":"Unpaused","inputs":[{"name":"account","type":"address","indexed":false,"internalType":"address"}],"anonymous":false},{"type":"error","name":"ApprovalCallerNotOwnerNorApproved","inputs":[]},{"type":"error","name":"ApprovalQueryForNonexistentToken","inputs":[]},{"type":"error","name":"BalanceQueryForZeroAddress","inputs":[]},{"type":"error","name":"Banning__InvalidTokenId","inputs":[{"name":"tokenId","type":"uint256","internalType":"uint256"}]},{"type":"error","name":"Entitlement__InvalidValue","inputs":[]},{"type":"error","name":"Entitlement__NotAllowed","inputs":[]},{"type":"error","name":"Entitlement__NotMember","inputs":[]},{"type":"error","name":"Entitlement__ValueAlreadyExists","inputs":[]},{"type":"error","name":"EntitlementsService__EntitlementAlreadyExists","inputs":[]},{"type":"error","name":"EntitlementsService__EntitlementDoesNotExist","inputs":[]},{"type":"error","name":"EntitlementsService__ImmutableEntitlement","inputs":[]},{"type":"error","name":"EntitlementsService__InvalidEntitlementAddress","inputs":[]},{"type":"error","name":"EntitlementsService__InvalidEntitlementInterface","inputs":[]},{"type":"error","name":"MintERC2309QuantityExceedsLimit","inputs":[]},{"type":"error","name":"MintToZeroAddress","inputs":[]},{"type":"error","name":"MintZeroQuantity","inputs":[]},{"type":"error","name":"Ownable__NotOwner","inputs":[{"name":"account","type":"address","internalType":"address"}]},{"type":"error","name":"Ownable__ZeroAddress","inputs":[]},{"type":"error","name":"OwnerQueryForNonexistentToken","inputs":[]},{"type":"error","name":"OwnershipNotInitializedForExtraData","inputs":[]},{"type":"error","name":"Pausable__NotPaused","inputs":[]},{"type":"error","name":"Pausable__Paused","inputs":[]},{"type":"error","name":"TransferCallerNotOwnerNorApproved","inputs":[]},{"type":"error","name":"TransferFromIncorrectOwner","inputs":[]},{"type":"error","name":"TransferToNonERC721ReceiverImplementer","inputs":[]},{"type":"error","name":"TransferToZeroAddress","inputs":[]},{"type":"error","name":"URIQueryForNonexistentToken","inputs":[]}],"bytecode":{"object":"0x608060405234801561001057600080fd5b50611fdd806100206000396000f3fe608060405234801561001057600080fd5b50600436106100935760003560e01c80638bfc820f116100665780638bfc820f1461010a5780638c9dc80c1461011d578063be24138d14610130578063cea632bc14610143578063fba4ff9d1461015657600080fd5b8063070b9c3f1461009857806320759f9e146100ad57806338d171b1146100d5578063487dc38c146100f5575b600080fd5b6100ab6100a63660046117fb565b610176565b005b6100c06100bb366004611861565b6101c2565b60405190151581526020015b60405180910390f35b6100e86100e33660046118b6565b6101d9565b6040516100cc91906119e9565b6100fd610210565b6040516100cc9190611b2b565b6100ab610118366004611bd6565b61021f565b6100e861012b366004611c88565b610263565b6100ab61013e3660046117fb565b6102d3565b6100c0610151366004611cf4565b610317565b6101696101643660046117fb565b610367565b6040516100cc9190611d79565b61017e610378565b6001600160a01b0316336001600160a01b0316146101b6576040516365f4906560e01b81523360048201526024015b60405180910390fd5b6101bf81610442565b50565b60006101cf848484610498565b90505b9392505050565b6101fd60405180606001604052806060815260200160608152602001606081525090565b61020783836104de565b90505b92915050565b606061021a61050a565b905090565b610227610378565b6001600160a01b0316336001600160a01b03161461025a576040516365f4906560e01b81523360048201526024016101ad565b6101bf81610609565b61028760405180606001604052806060815260200160608152602001606081525090565b6102ca85858080601f0160208091040260200160405190810160405280939291908181526020018383808284376000920191909152508792508691506106679050565b95945050505050565b6102db610378565b6001600160a01b0316336001600160a01b03161461030e576040516365f4906560e01b81523360048201526024016101ad565b6101bf81610693565b600061035d86868080601f0160208091040260200160405190810160405280939291908181526020018383808284376000920191909152508892508791508690506106e0565b9695505050505050565b61036f6117b3565b61020a826106fa565b6040805180820182527f9bd0e1a7aef81c47cff971a2fee48406b20f55522326b2e2616c49c24aa506d0546001600160a01b03168082527f9bd0e1a7aef81c47cff971a2fee48406b20f55522326b2e2616c49c24aa506d154602080840182905284516331a9108f60e11b815260048101929092529351600094636352211e92602480820193918290030181865afa158015610418573d6000803e3d6000fd5b505050506040513d601f19601f8201168201806040525081019061043c9190611d8c565b91505090565b61044b8161074c565b610456816000610815565b6040516001600160a01b038216815233907f055c4c0e6f85afe96beaac6c9d650859c001e6ef93103856624cce6ceba811b4906020015b60405180910390a250565b60006101cf604051806020016040528060008152508585856040516020016104c1929190611da9565b6040516020818303038152906040526104d990611db9565b610954565b61050260405180606001604052806060815260200160608152602001606081525090565b610207610d84565b60606000610516610ed1565b9050805167ffffffffffffffff81111561053257610532611b8f565b60405190808252806020026020018201604052801561056b57816020015b6105586117b3565b8152602001906001900390816105505790505b50915060005b8151811015610604576000806000806105a286868151811061059557610595611de0565b6020026020010151610eea565b93509350935093506040518060800160405280858152602001846001600160a01b031681526020018381526020018215158152508786815181106105e8576105e8611de0565b6020026020010181905250505050508080600101915050610571565b505090565b60005b81518110156106635761063782828151811061062a5761062a611de0565b602002602001015161074c565b61065b82828151811061064c5761064c611de0565b60200260200101516001610815565b60010161060c565b5050565b61068b60405180606001604052806060815260200160608152602001606081525090565b6101cf610d84565b61069c8161074c565b6106a58161105e565b6040516001600160a01b038216815233907fa8e3e13a35b592afaa9d213d12c7ea06384518ada9733585d20883cfafcf249b9060200161048d565b60006102ca858585856040516020016104c1929190611da9565b6107026117b3565b61070b8261074c565b60008060008061071a86610eea565b604080516080810182529485526001600160a01b03909316602085015291830152151560608201529695505050505050565b6001600160a01b03811661077357604051630706e15760e51b815260040160405180910390fd5b6040516301ffc9a760e01b8152630b98417960e31b60048201526001600160a01b038216906301ffc9a790602401602060405180830381865afa9250505080156107da575060408051601f3d908101601f191682019092526107d791810190611df6565b60015b6107f75760405163f58a5f2760e01b815260040160405180910390fd5b806106635760405163f58a5f2760e01b815260040160405180910390fd5b81600080516020611f9d83398151915261083d600080516020611fbd8339815191528361111b565b1561085b57604051632406020960e01b815260040160405180910390fd5b610868600182018561113d565b506040518060600160405280856001600160a01b031681526020018415158152602001836001600160a01b0316632e1b61e46040518163ffffffff1660e01b8152600401602060405180830381865afa1580156108c9573d6000803e3d6000fd5b505050506040513d601f19601f820116820180604052508101906108ed9190611df6565b151590526001600160a01b0394851660009081526020928352604090819020825181549484015193909201511515600160a81b0260ff60a81b19931515600160a01b026001600160a81b031990951692909716919091179290921716939093179092555050565b6000604051806040016040528060098152602001684a6f696e537061636560b81b8152506040516020016109889190611e18565b6040516020818303038152906040526109a090611db9565b82036109b7576109b08484611152565b90506101d2565b60006109c1610378565b6001600160a01b03851660009081527f630d36d827dd2d1cf0d5118b0729bf3ba07959315de50567c8d0b01f7ec88e7260208190526040822092935091610a07906114d8565b9050600081516001610a199190611e4a565b67ffffffffffffffff811115610a3157610a31611b8f565b604051908082528060200260200182016040528015610a5a578160200160208202803683370190505b5090508681600081518110610a7157610a71611de0565b60200260200101906001600160a01b031690816001600160a01b03168152505060005b8251811015610af557828181518110610aaf57610aaf611de0565b602002602001015182826001610ac59190611e4a565b81518110610ad557610ad5611de0565b6001600160a01b0390921660209283029190910190910152600101610a94565b5060005b8151811015610b4a57846001600160a01b0316828281518110610b1e57610b1e611de0565b60200260200101516001600160a01b031603610b42576001955050505050506101d2565b600101610af9565b50600080805b835181108015610b5e575082155b15610be1576000848281518110610b7757610b77611de0565b60200260200101519050610b8a816114e5565b15610bce576001600160a01b03811660009081527f9b35df16c33a6c0e085c9ebd55fb367f81c58c2ed7e9bed98cc622f3308a600e60205260409020546001945092505b5080610bd981611e5d565b915050610b50565b5081610bf657600096505050505050506101d2565b60008181527fa58ec377a0bfb65fc456fb479d6eb2f9e176963c85db6b84841175b4a0b637e9602052604090205460ff1680610c375750610c378a826114f8565b15610c4b57600096505050505050506101d2565b600080516020611f9d83398151915260005b610c6982600101611552565b811015610d735760008281610c81600183018561155c565b6001600160a01b039081168252602080830193909352604091820160002082516060810184529054918216815260ff600160a01b83048116151594820194909452600160a81b909104909216158015918301829052919250610d53575080600001516001600160a01b031663a7b728718e888e6040518463ffffffff1660e01b8152600401610d1293929190611e76565b602060405180830381865afa158015610d2f573d6000803e3d6000fd5b505050506040513d601f19601f82011682018060405250810190610d539190611df6565b15610d6a57600199505050505050505050506101d2565b50600101610c5d565b5060009750505050505050506101d2565b610da860405180606001604052806060815260200160608152602001606081525090565b6040805160016060820181815260a0830190935290918291816020015b6040805180820190915260008082526020820152815260200190600190039081610dc557505081526040805160008082526020828101909352919092019190610e3d565b604080516080810182526000808252602080830182905292820181905260608201528252600019909201910181610e095790505b5081526020016000604051908082528060200260200182016040528015610e9057816020015b6040805160608101825260008082526020808301829052928201528252600019909201910181610e635790505b5090526040805180820190915260008082526020820181905282518051939450919283929190610ec257610ec2611de0565b60200260200101819052505090565b606061021a600080516020611fbd8339815191526114d8565b606060008181600080516020611f9d833981519152610f17600080516020611fbd8339815191528761111b565b610f345760405163017ab33760e71b815260040160405180910390fd5b60008690506000816001600160a01b03166306fdde036040518163ffffffff1660e01b8152600401600060405180830381865afa158015610f79573d6000803e3d6000fd5b505050506040513d6000823e601f3d908101601f19168201604052610fa19190810190611edf565b6001600160a01b03808a16600090815260208690526040808220548151636465e69f60e01b815291519495508316939192861691636465e69f9160048082019286929091908290030181865afa158015610fff573d6000803e3d6000fd5b505050506040513d6000823e601f3d908101601f191682016040526110279190810190611edf565b6001600160a01b039a909a16600090815260209590955250604090932054909892979650600160a01b900460ff1694509092505050565b600080516020611f9d833981519152611085600080516020611fbd8339815191528361111b565b6110a25760405163017ab33760e71b815260040160405180910390fd5b6001600160a01b038216600090815260208290526040902054600160a01b900460ff16156110e357604051636045809760e11b815260040160405180910390fd5b6110f06001820183611568565b506001600160a01b0390911660009081526020919091526040902080546001600160b01b0319169055565b6001600160a01b03811660009081526001830160205260408120541515610207565b6000610207836001600160a01b03841661157d565b60008061115d610378565b6001600160a01b03841660009081527f630d36d827dd2d1cf0d5118b0729bf3ba07959315de50567c8d0b01f7ec88e72602081905260408220929350916111a3906114d8565b90506000815160016111b59190611e4a565b67ffffffffffffffff8111156111cd576111cd611b8f565b6040519080825280602002602001820160405280156111f6578160200160208202803683370190505b509050858160008151811061120d5761120d611de0565b60200260200101906001600160a01b031690816001600160a01b03168152505060005b82518110156112915782818151811061124b5761124b611de0565b6020026020010151828260016112619190611e4a565b8151811061127157611271611de0565b6001600160a01b0390921660209283029190910190910152600101611230565b506000805b8251811080156112a4575081155b156112ed5760008382815181106112bd576112bd611de0565b602002602001015190506112d0816114e5565b156112da57600192505b50806112e581611e5d565b915050611296565b5080156113025760009550505050505061020a565b60005b825181101561135757856001600160a01b031683828151811061132a5761132a611de0565b60200260200101516001600160a01b03160361134f576001965050505050505061020a565b600101611305565b50600080516020611f9d83398151915260005b61137682600101611552565b8110156114c8576000828161138e600183018561155c565b6001600160a01b039081168252602080830193909352604091820160002082516060810184529054918216815260ff600160a01b83048116151594820194909452600160a81b9091049092161580159183018290529192506114a9575080600001516001600160a01b031663a7b728718c87604051806040016040528060098152602001684a6f696e537061636560b81b8152506040516020016114329190611e18565b60405160208183030381529060405261144a90611db9565b6040518463ffffffff1660e01b815260040161146893929190611e76565b602060405180830381865afa158015611485573d6000803e3d6000fd5b505050506040513d601f19601f820116820180604052508101906114a99190611df6565b156114bf5760019850505050505050505061020a565b5060010161136a565b5060009998505050505050505050565b606060006101d2836115cc565b6000806114f183611628565b1192915050565b60007fa58ec377a0bfb65fc456fb479d6eb2f9e176963c85db6b84841175b4a0b637e96001018360405161152c9190611e18565b908152604080516020928190038301902060009485529091529091205460ff1692915050565b600061020a825490565b60006102078383611696565b6000610207836001600160a01b0384166116c0565b60008181526001830160205260408120546115c45750815460018181018455600084815260208082209093018490558454848252828601909352604090209190915561020a565b50600061020a565b60608160000180548060200260200160405190810160405280929190818152602001828054801561161c57602002820191906000526020600020905b815481526020019060010190808311611608575b50505050509050919050565b60006001600160a01b038216611651576040516323d3ad8160e21b815260040160405180910390fd5b506001600160a01b031660009081527f234d8962d7c9a6a6604d7f98797e6ad6d7a886804f7409feb26422e27bf81259602052604090205467ffffffffffffffff1690565b60008260000182815481106116ad576116ad611de0565b9060005260206000200154905092915050565b600081815260018301602052604081205480156117a95760006116e4600183611f73565b85549091506000906116f890600190611f73565b905080821461175d57600086600001828154811061171857611718611de0565b906000526020600020015490508087600001848154811061173b5761173b611de0565b6000918252602080832090910192909255918252600188019052604090208390555b855486908061176e5761176e611f86565b60019003818190600052602060002001600090559055856001016000868152602001908152602001600020600090556001935050505061020a565b600091505061020a565b60405180608001604052806060815260200160006001600160a01b03168152602001606081526020016000151581525090565b6001600160a01b03811681146101bf57600080fd5b60006020828403121561180d57600080fd5b81356101d2816117e6565b60008083601f84011261182a57600080fd5b50813567ffffffffffffffff81111561184257600080fd5b60208301915083602082850101111561185a57600080fd5b9250929050565b60008060006040848603121561187657600080fd5b8335611881816117e6565b9250602084013567ffffffffffffffff81111561189d57600080fd5b6118a986828701611818565b9497909650939450505050565b600080602083850312156118c957600080fd5b823567ffffffffffffffff8111156118e057600080fd5b6118ec85828601611818565b90969095509350505050565b634e487b7160e01b600052602160045260246000fd5b600381106101bf576101bf6118f8565b60008151808452602080850194506020840160005b8381101561198857815180516006811061194f5761194f6118f8565b885280840151848901526040808201516001600160a01b0316908901526060908101519088015260809096019590820190600101611933565b509495945050505050565b60008151808452602080850194506020840160005b8381101561198857815180516119bd8161190e565b88528084015160ff908116858a01526040918201511690880152606090960195908201906001016119a8565b6020808252825160608383015280516080840181905260009291820190839060a08601905b80831015611a455783518051611a238161190e565b835285015160ff16858301529284019260019290920191604090910190611a0e565b50838701519350601f19925082868203016040870152611a65818561191e565b9350505060408501518185840301606086015261035d8382611993565b60005b83811015611a9d578181015183820152602001611a85565b50506000910152565b60008151808452611abe816020860160208601611a82565b601f01601f19169290920160200192915050565b6000815160808452611ae76080850182611aa6565b905060018060a01b03602084015116602085015260408301518482036040860152611b128282611aa6565b9150506060830151151560608501528091505092915050565b600060208083016020845280855180835260408601915060408160051b87010192506020870160005b82811015611b8257603f19888603018452611b70858351611ad2565b94509285019290850190600101611b54565b5092979650505050505050565b634e487b7160e01b600052604160045260246000fd5b604051601f8201601f1916810167ffffffffffffffff81118282101715611bce57611bce611b8f565b604052919050565b60006020808385031215611be957600080fd5b823567ffffffffffffffff80821115611c0157600080fd5b818501915085601f830112611c1557600080fd5b813581811115611c2757611c27611b8f565b8060051b9150611c38848301611ba5565b8181529183018401918481019088841115611c5257600080fd5b938501935b83851015611c7c5784359250611c6c836117e6565b8282529385019390850190611c57565b98975050505050505050565b60008060008060408587031215611c9e57600080fd5b843567ffffffffffffffff80821115611cb657600080fd5b611cc288838901611818565b90965094506020870135915080821115611cdb57600080fd5b50611ce887828801611818565b95989497509550505050565b600080600080600060608688031215611d0c57600080fd5b853567ffffffffffffffff80821115611d2457600080fd5b611d3089838a01611818565b909750955060208801359150611d45826117e6565b90935060408701359080821115611d5b57600080fd5b50611d6888828901611818565b969995985093965092949392505050565b6020815260006102076020830184611ad2565b600060208284031215611d9e57600080fd5b81516101d2816117e6565b8183823760009101908152919050565b80516020808301519190811015611dda576000198160200360031b1b821691505b50919050565b634e487b7160e01b600052603260045260246000fd5b600060208284031215611e0857600080fd5b815180151581146101d257600080fd5b60008251611e2a818460208701611a82565b9190910192915050565b634e487b7160e01b600052601160045260246000fd5b8082018082111561020a5761020a611e34565b600060018201611e6f57611e6f611e34565b5060010190565b606081526000611e896060830186611aa6565b82810360208481019190915285518083528682019282019060005b81811015611ec95784516001600160a01b031683529383019391830191600101611ea4565b5050809350505050826040830152949350505050565b600060208284031215611ef157600080fd5b815167ffffffffffffffff80821115611f0957600080fd5b818401915084601f830112611f1d57600080fd5b815181811115611f2f57611f2f611b8f565b611f42601f8201601f1916602001611ba5565b9150808252856020828501011115611f5957600080fd5b611f6a816020840160208601611a82565b50949350505050565b8181038181111561020a5761020a611e34565b634e487b7160e01b600052603160045260246000fdfe2df4f8e2489b335ef09ede56990b0838afbcdea6c639a41af44b533474fb85582df4f8e2489b335ef09ede56990b0838afbcdea6c639a41af44b533474fb8559","linkReferences":{}},"methodIdentifiers":{"addEntitlementModule(address)":"070b9c3f","addImmutableEntitlements(address[])":"8bfc820f","getChannelEntitlements(string,string)":"8c9dc80c","getEntitlement(address)":"fba4ff9d","getEntitlements()":"487dc38c","getSpaceEntitlements(string)":"38d171b1","isEntitledToChannel(string,address,string)":"cea632bc","isEntitledToSpace(address,string)":"20759f9e","removeEntitlementModule(address)":"be24138d"},"id":148}