{"abi":[{"type":"function","name":"addEntitlementModule","inputs":[{"name":"entitlement","type":"address","internalType":"address"}],"outputs":[],"stateMutability":"nonpayable"},{"type":"function","name":"addImmutableEntitlements","inputs":[{"name":"entitlements","type":"address[]","internalType":"address[]"}],"outputs":[],"stateMutability":"nonpayable"},{"type":"function","name":"getEntitlement","inputs":[{"name":"entitlement","type":"address","internalType":"address"}],"outputs":[{"name":"","type":"tuple","internalType":"struct IEntitlementsManagerBase.Entitlement","components":[{"name":"name","type":"string","internalType":"string"},{"name":"moduleAddress","type":"address","internalType":"address"},{"name":"moduleType","type":"string","internalType":"string"},{"name":"isImmutable","type":"bool","internalType":"bool"}]}],"stateMutability":"view"},{"type":"function","name":"getEntitlements","inputs":[],"outputs":[{"name":"","type":"tuple[]","internalType":"struct IEntitlementsManagerBase.Entitlement[]","components":[{"name":"name","type":"string","internalType":"string"},{"name":"moduleAddress","type":"address","internalType":"address"},{"name":"moduleType","type":"string","internalType":"string"},{"name":"isImmutable","type":"bool","internalType":"bool"}]}],"stateMutability":"view"},{"type":"function","name":"isEntitledToChannel","inputs":[{"name":"channelId","type":"string","internalType":"string"},{"name":"user","type":"address","internalType":"address"},{"name":"permission","type":"string","internalType":"string"}],"outputs":[{"name":"","type":"bool","internalType":"bool"}],"stateMutability":"view"},{"type":"function","name":"isEntitledToSpace","inputs":[{"name":"user","type":"address","internalType":"address"},{"name":"permission","type":"string","internalType":"string"}],"outputs":[{"name":"","type":"bool","internalType":"bool"}],"stateMutability":"view"},{"type":"function","name":"removeEntitlementModule","inputs":[{"name":"entitlement","type":"address","internalType":"address"}],"outputs":[],"stateMutability":"nonpayable"},{"type":"event","name":"Approval","inputs":[{"name":"owner","type":"address","indexed":true,"internalType":"address"},{"name":"approved","type":"address","indexed":true,"internalType":"address"},{"name":"tokenId","type":"uint256","indexed":true,"internalType":"uint256"}],"anonymous":false},{"type":"event","name":"ApprovalForAll","inputs":[{"name":"owner","type":"address","indexed":true,"internalType":"address"},{"name":"operator","type":"address","indexed":true,"internalType":"address"},{"name":"approved","type":"bool","indexed":false,"internalType":"bool"}],"anonymous":false},{"type":"event","name":"ConsecutiveTransfer","inputs":[{"name":"fromTokenId","type":"uint256","indexed":true,"internalType":"uint256"},{"name":"toTokenId","type":"uint256","indexed":false,"internalType":"uint256"},{"name":"from","type":"address","indexed":true,"internalType":"address"},{"name":"to","type":"address","indexed":true,"internalType":"address"}],"anonymous":false},{"type":"event","name":"EntitlementModuleAdded","inputs":[{"name":"caller","type":"address","indexed":true,"internalType":"address"},{"name":"entitlement","type":"address","indexed":false,"internalType":"address"}],"anonymous":false},{"type":"event","name":"EntitlementModuleRemoved","inputs":[{"name":"caller","type":"address","indexed":true,"internalType":"address"},{"name":"entitlement","type":"address","indexed":false,"internalType":"address"}],"anonymous":false},{"type":"event","name":"OwnershipTransferred","inputs":[{"name":"previousOwner","type":"address","indexed":true,"internalType":"address"},{"name":"newOwner","type":"address","indexed":true,"internalType":"address"}],"anonymous":false},{"type":"event","name":"Paused","inputs":[{"name":"account","type":"address","indexed":false,"internalType":"address"}],"anonymous":false},{"type":"event","name":"Transfer","inputs":[{"name":"from","type":"address","indexed":true,"internalType":"address"},{"name":"to","type":"address","indexed":true,"internalType":"address"},{"name":"tokenId","type":"uint256","indexed":true,"internalType":"uint256"}],"anonymous":false},{"type":"event","name":"Unpaused","inputs":[{"name":"account","type":"address","indexed":false,"internalType":"address"}],"anonymous":false},{"type":"error","name":"ApprovalCallerNotOwnerNorApproved","inputs":[]},{"type":"error","name":"ApprovalQueryForNonexistentToken","inputs":[]},{"type":"error","name":"BalanceQueryForZeroAddress","inputs":[]},{"type":"error","name":"Banning__InvalidTokenId","inputs":[{"name":"tokenId","type":"uint256","internalType":"uint256"}]},{"type":"error","name":"Entitlement__InvalidValue","inputs":[]},{"type":"error","name":"Entitlement__NotAllowed","inputs":[]},{"type":"error","name":"Entitlement__NotMember","inputs":[]},{"type":"error","name":"Entitlement__ValueAlreadyExists","inputs":[]},{"type":"error","name":"EntitlementsService__EntitlementAlreadyExists","inputs":[]},{"type":"error","name":"EntitlementsService__EntitlementDoesNotExist","inputs":[]},{"type":"error","name":"EntitlementsService__ImmutableEntitlement","inputs":[]},{"type":"error","name":"EntitlementsService__InvalidEntitlementAddress","inputs":[]},{"type":"error","name":"EntitlementsService__InvalidEntitlementInterface","inputs":[]},{"type":"error","name":"MintERC2309QuantityExceedsLimit","inputs":[]},{"type":"error","name":"MintToZeroAddress","inputs":[]},{"type":"error","name":"MintZeroQuantity","inputs":[]},{"type":"error","name":"Ownable__NotOwner","inputs":[{"name":"account","type":"address","internalType":"address"}]},{"type":"error","name":"Ownable__ZeroAddress","inputs":[]},{"type":"error","name":"OwnerQueryForNonexistentToken","inputs":[]},{"type":"error","name":"OwnershipNotInitializedForExtraData","inputs":[]},{"type":"error","name":"Pausable__NotPaused","inputs":[]},{"type":"error","name":"Pausable__Paused","inputs":[]},{"type":"error","name":"TransferCallerNotOwnerNorApproved","inputs":[]},{"type":"error","name":"TransferFromIncorrectOwner","inputs":[]},{"type":"error","name":"TransferToNonERC721ReceiverImplementer","inputs":[]},{"type":"error","name":"TransferToZeroAddress","inputs":[]},{"type":"error","name":"URIQueryForNonexistentToken","inputs":[]}],"bytecode":{"object":"0x608060405234801561001057600080fd5b5061134e806100206000396000f3fe608060405234801561001057600080fd5b506004361061007d5760003560e01c80638bfc820f1161005b5780638bfc820f146100d4578063be24138d146100e7578063cea632bc146100fa578063fba4ff9d1461010d57600080fd5b8063070b9c3f1461008257806320759f9e14610097578063487dc38c146100bf575b600080fd5b610095610090366004610e33565b61012d565b005b6100aa6100a5366004610e99565b610179565b60405190151581526020015b60405180910390f35b6100c7610190565b6040516100b69190610f97565b6100956100e2366004611042565b61019f565b6100956100f5366004610e33565b6101e3565b6100aa6101083660046110f4565b610227565b61012061011b366004610e33565b610277565b6040516100b69190611179565b61013561028e565b6001600160a01b0316336001600160a01b03161461016d576040516365f4906560e01b81523360048201526024015b60405180910390fd5b61017681610358565b50565b60006101868484846103ae565b90505b9392505050565b606061019a6103f4565b905090565b6101a761028e565b6001600160a01b0316336001600160a01b0316146101da576040516365f4906560e01b8152336004820152602401610164565b610176816104f3565b6101eb61028e565b6001600160a01b0316336001600160a01b03161461021e576040516365f4906560e01b8152336004820152602401610164565b61017681610551565b600061026d86868080601f01602080910402602001604051908101604052809392919081815260200183838082843760009201919091525088925087915086905061059e565b9695505050505050565b61027f610deb565b610288826105c1565b92915050565b6040805180820182527f9bd0e1a7aef81c47cff971a2fee48406b20f55522326b2e2616c49c24aa506d0546001600160a01b03168082527f9bd0e1a7aef81c47cff971a2fee48406b20f55522326b2e2616c49c24aa506d154602080840182905284516331a9108f60e11b815260048101929092529351600094636352211e92602480820193918290030181865afa15801561032e573d6000803e3d6000fd5b505050506040513d601f19601f82011682018060405250810190610352919061118c565b91505090565b61036181610613565b61036c8160006106dc565b6040516001600160a01b038216815233907f055c4c0e6f85afe96beaac6c9d650859c001e6ef93103856624cce6ceba811b4906020015b60405180910390a250565b6000610186604051806020016040528060008152508585856040516020016103d79291906111a9565b6040516020818303038152906040526103ef906111b9565b61078a565b60606000610400610927565b9050805167ffffffffffffffff81111561041c5761041c610ffb565b60405190808252806020026020018201604052801561045557816020015b610442610deb565b81526020019060019003908161043a5790505b50915060005b81518110156104ee5760008060008061048c86868151811061047f5761047f6111e0565b6020026020010151610952565b93509350935093506040518060800160405280858152602001846001600160a01b031681526020018381526020018215158152508786815181106104d2576104d26111e0565b602002602001018190525050505050808060010191505061045b565b505090565b60005b815181101561054d57610521828281518110610514576105146111e0565b6020026020010151610613565b610545828281518110610536576105366111e0565b602002602001015160016106dc565b6001016104f6565b5050565b61055a81610613565b61056381610ab9565b6040516001600160a01b038216815233907fa8e3e13a35b592afaa9d213d12c7ea06384518ada9733585d20883cfafcf249b906020016103a3565b60006105b8858585856040516020016103d79291906111a9565b95945050505050565b6105c9610deb565b6105d282610613565b6000806000806105e186610952565b604080516080810182529485526001600160a01b03909316602085015291830152151560608201529695505050505050565b6001600160a01b03811661063a57604051630706e15760e51b815260040160405180910390fd5b6040516301ffc9a760e01b815263df76a3d360e01b60048201526001600160a01b038216906301ffc9a790602401602060405180830381865afa9250505080156106a1575060408051601f3d908101601f1916820190925261069e918101906111f6565b60015b6106be5760405163f58a5f2760e01b815260040160405180910390fd5b8061054d5760405163f58a5f2760e01b815260040160405180910390fd5b6001600160a01b03828116600090815260008051602061132e83398151915260208190526040909120549091161561072757604051632406020960e01b815260040160405180910390fd5b6107346001820184610b7c565b506040805180820182526001600160a01b03948516808252931515602080830191825260009586529390935292209151825491511515600160a01b026001600160a81b0319909216931692909217919091179055565b600061079461028e565b6001600160a01b0316836001600160a01b0316036107b457506001610189565b6001600160a01b03831660009081527f9b35df16c33a6c0e085c9ebd55fb367f81c58c2ed7e9bed98cc622f3308a600e60205260409020546108248160009081527fa58ec377a0bfb65fc456fb479d6eb2f9e176963c85db6b84841175b4a0b637e9602052604090205460ff1690565b8061083457506108348582610b91565b15610843576000915050610189565b60008051602061132e833981519152600061087d7f2df4f8e2489b335ef09ede56990b0838afbcdea6c639a41af44b533474fb8559610beb565b905060005b8181101561091c576108976001840182610bf5565b6001600160a01b031662b4eaa88989896040518463ffffffff1660e01b81526004016108c593929190611218565b602060405180830381865afa1580156108e2573d6000803e3d6000fd5b505050506040513d601f19601f8201168201806040525081019061090691906111f6565b15610914576001945061091c565b600101610882565b505050509392505050565b606061019a7f2df4f8e2489b335ef09ede56990b0838afbcdea6c639a41af44b533474fb8559610c01565b6060600081818060008051602061132e8339815191526001600160a01b03878116600090815260208390526040902054919250166109a35760405163017ab33760e71b815260040160405180910390fd5b856001600160a01b03166306fdde036040518163ffffffff1660e01b8152600401600060405180830381865afa1580156109e1573d6000803e3d6000fd5b505050506040513d6000823e601f3d908101601f19168201604052610a099190810190611246565b6001600160a01b03808816600081815260208590526040808220548151636465e69f60e01b81529151941693636465e69f926004808401939192918290030181865afa158015610a5d573d6000803e3d6000fd5b505050506040513d6000823e601f3d908101601f19168201604052610a859190810190611246565b6001600160a01b03989098166000908152602093909352604090922054909791969550600160a01b900460ff169350915050565b6001600160a01b03818116600090815260008051602061132e8339815191526020819052604090912054909116610b035760405163017ab33760e71b815260040160405180910390fd5b6001600160a01b038216600090815260208290526040902054600160a01b900460ff1615610b4457604051636045809760e11b815260040160405180910390fd5b610b516001820183610c0e565b506001600160a01b0390911660009081526020919091526040902080546001600160a81b0319169055565b6000610189836001600160a01b038416610c23565b60007fa58ec377a0bfb65fc456fb479d6eb2f9e176963c85db6b84841175b4a0b637e960010183604051610bc591906112da565b908152604080516020928190038301902060009485529091529091205460ff1692915050565b6000610288825490565b60006101898383610c72565b6060600061018983610c9c565b6000610189836001600160a01b038416610cf8565b6000818152600183016020526040812054610c6a57508154600181810184556000848152602080822090930184905584548482528286019093526040902091909155610288565b506000610288565b6000826000018281548110610c8957610c896111e0565b9060005260206000200154905092915050565b606081600001805480602002602001604051908101604052809291908181526020018280548015610cec57602002820191906000526020600020905b815481526020019060010190808311610cd8575b50505050509050919050565b60008181526001830160205260408120548015610de1576000610d1c6001836112f6565b8554909150600090610d30906001906112f6565b9050818114610d95576000866000018281548110610d5057610d506111e0565b9060005260206000200154905080876000018481548110610d7357610d736111e0565b6000918252602080832090910192909255918252600188019052604090208390555b8554869080610da657610da6611317565b600190038181906000526020600020016000905590558560010160008681526020019081526020016000206000905560019350505050610288565b6000915050610288565b60405180608001604052806060815260200160006001600160a01b03168152602001606081526020016000151581525090565b6001600160a01b038116811461017657600080fd5b600060208284031215610e4557600080fd5b813561018981610e1e565b60008083601f840112610e6257600080fd5b50813567ffffffffffffffff811115610e7a57600080fd5b602083019150836020828501011115610e9257600080fd5b9250929050565b600080600060408486031215610eae57600080fd5b8335610eb981610e1e565b9250602084013567ffffffffffffffff811115610ed557600080fd5b610ee186828701610e50565b9497909650939450505050565b60005b83811015610f09578181015183820152602001610ef1565b50506000910152565b60008151808452610f2a816020860160208601610eee565b601f01601f19169290920160200192915050565b6000815160808452610f536080850182610f12565b905060018060a01b03602084015116602085015260408301518482036040860152610f7e8282610f12565b9150506060830151151560608501528091505092915050565b600060208083016020845280855180835260408601915060408160051b87010192506020870160005b82811015610fee57603f19888603018452610fdc858351610f3e565b94509285019290850190600101610fc0565b5092979650505050505050565b634e487b7160e01b600052604160045260246000fd5b604051601f8201601f1916810167ffffffffffffffff8111828210171561103a5761103a610ffb565b604052919050565b6000602080838503121561105557600080fd5b823567ffffffffffffffff8082111561106d57600080fd5b818501915085601f83011261108157600080fd5b81358181111561109357611093610ffb565b8060051b91506110a4848301611011565b81815291830184019184810190888411156110be57600080fd5b938501935b838510156110e857843592506110d883610e1e565b82825293850193908501906110c3565b98975050505050505050565b60008060008060006060868803121561110c57600080fd5b853567ffffffffffffffff8082111561112457600080fd5b61113089838a01610e50565b90975095506020880135915061114582610e1e565b9093506040870135908082111561115b57600080fd5b5061116888828901610e50565b969995985093965092949392505050565b6020815260006101896020830184610f3e565b60006020828403121561119e57600080fd5b815161018981610e1e565b8183823760009101908152919050565b805160208083015191908110156111da576000198160200360031b1b821691505b50919050565b634e487b7160e01b600052603260045260246000fd5b60006020828403121561120857600080fd5b8151801515811461018957600080fd5b60608152600061122b6060830186610f12565b6001600160a01b039490941660208301525060400152919050565b60006020828403121561125857600080fd5b815167ffffffffffffffff8082111561127057600080fd5b818401915084601f83011261128457600080fd5b81518181111561129657611296610ffb565b6112a9601f8201601f1916602001611011565b91508082528560208285010111156112c057600080fd5b6112d1816020840160208601610eee565b50949350505050565b600082516112ec818460208701610eee565b9190910192915050565b8181038181111561028857634e487b7160e01b600052601160045260246000fd5b634e487b7160e01b600052603160045260246000fdfe2df4f8e2489b335ef09ede56990b0838afbcdea6c639a41af44b533474fb8558","linkReferences":{}},"methodIdentifiers":{"addEntitlementModule(address)":"070b9c3f","addImmutableEntitlements(address[])":"8bfc820f","getEntitlement(address)":"fba4ff9d","getEntitlements()":"487dc38c","isEntitledToChannel(string,address,string)":"cea632bc","isEntitledToSpace(address,string)":"20759f9e","removeEntitlementModule(address)":"be24138d"},"id":150}