{"abi":[{"type":"function","name":"expiresAt","inputs":[{"name":"tokenId","type":"uint256","internalType":"uint256"}],"outputs":[{"name":"","type":"uint256","internalType":"uint256"}],"stateMutability":"view"},{"type":"function","name":"getMembershipCurrency","inputs":[],"outputs":[{"name":"","type":"address","internalType":"address"}],"stateMutability":"view"},{"type":"function","name":"getMembershipDuration","inputs":[],"outputs":[{"name":"","type":"uint64","internalType":"uint64"}],"stateMutability":"view"},{"type":"function","name":"getMembershipFreeAllocation","inputs":[],"outputs":[{"name":"","type":"uint256","internalType":"uint256"}],"stateMutability":"view"},{"type":"function","name":"getMembershipImage","inputs":[],"outputs":[{"name":"","type":"string","internalType":"string"}],"stateMutability":"view"},{"type":"function","name":"getMembershipLimit","inputs":[],"outputs":[{"name":"","type":"uint256","internalType":"uint256"}],"stateMutability":"view"},{"type":"function","name":"getMembershipPrice","inputs":[],"outputs":[{"name":"","type":"uint256","internalType":"uint256"}],"stateMutability":"view"},{"type":"function","name":"getMembershipPricingModule","inputs":[],"outputs":[{"name":"","type":"address","internalType":"address"}],"stateMutability":"view"},{"type":"function","name":"getMembershipRenewalPrice","inputs":[{"name":"tokenId","type":"uint256","internalType":"uint256"}],"outputs":[{"name":"","type":"uint256","internalType":"uint256"}],"stateMutability":"view"},{"type":"function","name":"getProtocolFee","inputs":[],"outputs":[{"name":"","type":"uint256","internalType":"uint256"}],"stateMutability":"view"},{"type":"function","name":"getSpaceFactory","inputs":[],"outputs":[{"name":"","type":"address","internalType":"address"}],"stateMutability":"view"},{"type":"function","name":"joinSpace","inputs":[{"name":"receiver","type":"address","internalType":"address"}],"outputs":[],"stateMutability":"payable"},{"type":"function","name":"joinSpaceWithReferral","inputs":[{"name":"receiver","type":"address","internalType":"address"},{"name":"referral","type":"tuple","internalType":"struct IMembershipBase.ReferralTypes","components":[{"name":"partner","type":"address","internalType":"address"},{"name":"userReferral","type":"address","internalType":"address"},{"name":"referralCode","type":"string","internalType":"string"}]}],"outputs":[],"stateMutability":"payable"},{"type":"function","name":"renewMembership","inputs":[{"name":"tokenId","type":"uint256","internalType":"uint256"}],"outputs":[],"stateMutability":"payable"},{"type":"function","name":"revenue","inputs":[],"outputs":[{"name":"","type":"uint256","internalType":"uint256"}],"stateMutability":"view"},{"type":"function","name":"setMembershipDuration","inputs":[{"name":"duration","type":"uint64","internalType":"uint64"}],"outputs":[],"stateMutability":"nonpayable"},{"type":"function","name":"setMembershipFreeAllocation","inputs":[{"name":"newAllocation","type":"uint256","internalType":"uint256"}],"outputs":[],"stateMutability":"nonpayable"},{"type":"function","name":"setMembershipImage","inputs":[{"name":"newImage","type":"string","internalType":"string"}],"outputs":[],"stateMutability":"nonpayable"},{"type":"function","name":"setMembershipLimit","inputs":[{"name":"newLimit","type":"uint256","internalType":"uint256"}],"outputs":[],"stateMutability":"nonpayable"},{"type":"function","name":"setMembershipPrice","inputs":[{"name":"newPrice","type":"uint256","internalType":"uint256"}],"outputs":[],"stateMutability":"nonpayable"},{"type":"function","name":"setMembershipPricingModule","inputs":[{"name":"pricingModule","type":"address","internalType":"address"}],"outputs":[],"stateMutability":"nonpayable"},{"type":"event","name":"Approval","inputs":[{"name":"owner","type":"address","indexed":true,"internalType":"address"},{"name":"approved","type":"address","indexed":true,"internalType":"address"},{"name":"tokenId","type":"uint256","indexed":true,"internalType":"uint256"}],"anonymous":false},{"type":"event","name":"ApprovalForAll","inputs":[{"name":"owner","type":"address","indexed":true,"internalType":"address"},{"name":"operator","type":"address","indexed":true,"internalType":"address"},{"name":"approved","type":"bool","indexed":false,"internalType":"bool"}],"anonymous":false},{"type":"event","name":"Banned","inputs":[{"name":"moderator","type":"address","indexed":true,"internalType":"address"},{"name":"tokenId","type":"uint256","indexed":true,"internalType":"uint256"}],"anonymous":false},{"type":"event","name":"ConsecutiveTransfer","inputs":[{"name":"fromTokenId","type":"uint256","indexed":true,"internalType":"uint256"},{"name":"toTokenId","type":"uint256","indexed":false,"internalType":"uint256"},{"name":"from","type":"address","indexed":true,"internalType":"address"},{"name":"to","type":"address","indexed":true,"internalType":"address"}],"anonymous":false},{"type":"event","name":"DefaultBpsFeeUpdated","inputs":[{"name":"defaultBpsFee","type":"uint256","indexed":false,"internalType":"uint256"}],"anonymous":false},{"type":"event","name":"EntitlementCheckResultPosted","inputs":[{"name":"transactionId","type":"bytes32","indexed":true,"internalType":"bytes32"},{"name":"result","type":"uint8","indexed":false,"internalType":"enum IEntitlementGatedBase.NodeVoteStatus"}],"anonymous":false},{"type":"event","name":"Initialized","inputs":[{"name":"version","type":"uint32","indexed":false,"internalType":"uint32"}],"anonymous":false},{"type":"event","name":"InterfaceAdded","inputs":[{"name":"interfaceId","type":"bytes4","indexed":true,"internalType":"bytes4"}],"anonymous":false},{"type":"event","name":"InterfaceRemoved","inputs":[{"name":"interfaceId","type":"bytes4","indexed":true,"internalType":"bytes4"}],"anonymous":false},{"type":"event","name":"MaxBpsFeeUpdated","inputs":[{"name":"maxBpsFee","type":"uint256","indexed":false,"internalType":"uint256"}],"anonymous":false},{"type":"event","name":"MaxPartnerFeeSet","inputs":[{"name":"fee","type":"uint256","indexed":false,"internalType":"uint256"}],"anonymous":false},{"type":"event","name":"MembershipCurrencyUpdated","inputs":[{"name":"currency","type":"address","indexed":true,"internalType":"address"}],"anonymous":false},{"type":"event","name":"MembershipFeeRecipientUpdated","inputs":[{"name":"recipient","type":"address","indexed":true,"internalType":"address"}],"anonymous":false},{"type":"event","name":"MembershipFreeAllocationUpdated","inputs":[{"name":"allocation","type":"uint256","indexed":true,"internalType":"uint256"}],"anonymous":false},{"type":"event","name":"MembershipLimitUpdated","inputs":[{"name":"limit","type":"uint256","indexed":true,"internalType":"uint256"}],"anonymous":false},{"type":"event","name":"MembershipPriceUpdated","inputs":[{"name":"price","type":"uint256","indexed":true,"internalType":"uint256"}],"anonymous":false},{"type":"event","name":"MembershipTokenIssued","inputs":[{"name":"recipient","type":"address","indexed":true,"internalType":"address"},{"name":"tokenId","type":"uint256","indexed":true,"internalType":"uint256"}],"anonymous":false},{"type":"event","name":"MembershipTokenRejected","inputs":[{"name":"recipient","type":"address","indexed":true,"internalType":"address"}],"anonymous":false},{"type":"event","name":"MembershipWithdrawal","inputs":[{"name":"recipient","type":"address","indexed":true,"internalType":"address"},{"name":"amount","type":"uint256","indexed":false,"internalType":"uint256"}],"anonymous":false},{"type":"event","name":"OwnershipTransferred","inputs":[{"name":"previousOwner","type":"address","indexed":true,"internalType":"address"},{"name":"newOwner","type":"address","indexed":true,"internalType":"address"}],"anonymous":false},{"type":"event","name":"PartnerRegistered","inputs":[{"name":"account","type":"address","indexed":true,"internalType":"address"}],"anonymous":false},{"type":"event","name":"PartnerRemoved","inputs":[{"name":"account","type":"address","indexed":true,"internalType":"address"}],"anonymous":false},{"type":"event","name":"PartnerUpdated","inputs":[{"name":"account","type":"address","indexed":true,"internalType":"address"}],"anonymous":false},{"type":"event","name":"Paused","inputs":[{"name":"account","type":"address","indexed":false,"internalType":"address"}],"anonymous":false},{"type":"event","name":"PermissionsAddedToChannelRole","inputs":[{"name":"updater","type":"address","indexed":true,"internalType":"address"},{"name":"roleId","type":"uint256","indexed":true,"internalType":"uint256"},{"name":"channelId","type":"bytes32","indexed":true,"internalType":"bytes32"}],"anonymous":false},{"type":"event","name":"PermissionsRemovedFromChannelRole","inputs":[{"name":"updater","type":"address","indexed":true,"internalType":"address"},{"name":"roleId","type":"uint256","indexed":true,"internalType":"uint256"},{"name":"channelId","type":"bytes32","indexed":true,"internalType":"bytes32"}],"anonymous":false},{"type":"event","name":"PermissionsUpdatedForChannelRole","inputs":[{"name":"updater","type":"address","indexed":true,"internalType":"address"},{"name":"roleId","type":"uint256","indexed":true,"internalType":"uint256"},{"name":"channelId","type":"bytes32","indexed":true,"internalType":"bytes32"}],"anonymous":false},{"type":"event","name":"Prepay__Prepaid","inputs":[{"name":"supply","type":"uint256","indexed":false,"internalType":"uint256"}],"anonymous":false},{"type":"event","name":"ReferralRegistered","inputs":[{"name":"referralCode","type":"bytes32","indexed":false,"internalType":"bytes32"},{"name":"basisPoints","type":"uint256","indexed":false,"internalType":"uint256"},{"name":"recipient","type":"address","indexed":false,"internalType":"address"}],"anonymous":false},{"type":"event","name":"ReferralRemoved","inputs":[{"name":"referralCode","type":"bytes32","indexed":false,"internalType":"bytes32"}],"anonymous":false},{"type":"event","name":"ReferralUpdated","inputs":[{"name":"referralCode","type":"bytes32","indexed":false,"internalType":"bytes32"},{"name":"basisPoints","type":"uint256","indexed":false,"internalType":"uint256"},{"name":"recipient","type":"address","indexed":false,"internalType":"address"}],"anonymous":false},{"type":"event","name":"RegistryFeeSet","inputs":[{"name":"fee","type":"uint256","indexed":false,"internalType":"uint256"}],"anonymous":false},{"type":"event","name":"RoleCreated","inputs":[{"name":"creator","type":"address","indexed":true,"internalType":"address"},{"name":"roleId","type":"uint256","indexed":true,"internalType":"uint256"}],"anonymous":false},{"type":"event","name":"RoleRemoved","inputs":[{"name":"remover","type":"address","indexed":true,"internalType":"address"},{"name":"roleId","type":"uint256","indexed":true,"internalType":"uint256"}],"anonymous":false},{"type":"event","name":"RoleUpdated","inputs":[{"name":"updater","type":"address","indexed":true,"internalType":"address"},{"name":"roleId","type":"uint256","indexed":true,"internalType":"uint256"}],"anonymous":false},{"type":"event","name":"SubscriptionUpdate","inputs":[{"name":"tokenId","type":"uint256","indexed":true,"internalType":"uint256"},{"name":"expiration","type":"uint64","indexed":false,"internalType":"uint64"}],"anonymous":false},{"type":"event","name":"Transfer","inputs":[{"name":"from","type":"address","indexed":true,"internalType":"address"},{"name":"to","type":"address","indexed":true,"internalType":"address"},{"name":"tokenId","type":"uint256","indexed":true,"internalType":"uint256"}],"anonymous":false},{"type":"event","name":"Unbanned","inputs":[{"name":"moderator","type":"address","indexed":true,"internalType":"address"},{"name":"tokenId","type":"uint256","indexed":true,"internalType":"uint256"}],"anonymous":false},{"type":"event","name":"Unpaused","inputs":[{"name":"account","type":"address","indexed":false,"internalType":"address"}],"anonymous":false},{"type":"error","name":"ApprovalCallerNotOwnerNorApproved","inputs":[]},{"type":"error","name":"ApprovalQueryForNonexistentToken","inputs":[]},{"type":"error","name":"BalanceQueryForZeroAddress","inputs":[]},{"type":"error","name":"Banning__AlreadyBanned","inputs":[{"name":"tokenId","type":"uint256","internalType":"uint256"}]},{"type":"error","name":"Banning__CannotBanOwner","inputs":[]},{"type":"error","name":"Banning__CannotBanSelf","inputs":[]},{"type":"error","name":"Banning__InvalidTokenId","inputs":[{"name":"tokenId","type":"uint256","internalType":"uint256"}]},{"type":"error","name":"Banning__NotBanned","inputs":[{"name":"tokenId","type":"uint256","internalType":"uint256"}]},{"type":"error","name":"Dispatcher__TransactionAlreadyExists","inputs":[]},{"type":"error","name":"ERC5643__DurationZero","inputs":[]},{"type":"error","name":"ERC5643__InvalidTokenId","inputs":[{"name":"tokenId","type":"uint256","internalType":"uint256"}]},{"type":"error","name":"ERC5643__NotApprovedOrOwner","inputs":[]},{"type":"error","name":"ERC5643__SubscriptionNotRenewable","inputs":[{"name":"tokenId","type":"uint256","internalType":"uint256"}]},{"type":"error","name":"EntitlementGated_InvalidAddress","inputs":[]},{"type":"error","name":"EntitlementGated_InvalidEntitlement","inputs":[]},{"type":"error","name":"EntitlementGated_NodeAlreadyVoted","inputs":[]},{"type":"error","name":"EntitlementGated_NodeNotFound","inputs":[]},{"type":"error","name":"EntitlementGated_OnlyEntitlementChecker","inputs":[]},{"type":"error","name":"EntitlementGated_RequestIdNotFound","inputs":[]},{"type":"error","name":"EntitlementGated_TransactionCheckAlreadyCompleted","inputs":[]},{"type":"error","name":"EntitlementGated_TransactionCheckAlreadyRegistered","inputs":[]},{"type":"error","name":"EntitlementGated_TransactionNotRegistered","inputs":[]},{"type":"error","name":"Entitlement__InvalidValue","inputs":[]},{"type":"error","name":"Entitlement__NotAllowed","inputs":[]},{"type":"error","name":"Entitlement__NotMember","inputs":[]},{"type":"error","name":"Entitlement__ValueAlreadyExists","inputs":[]},{"type":"error","name":"Initializable_InInitializingState","inputs":[]},{"type":"error","name":"Introspection_AlreadySupported","inputs":[]},{"type":"error","name":"Introspection_NotSupported","inputs":[]},{"type":"error","name":"Membership__AlreadyMember","inputs":[]},{"type":"error","name":"Membership__Banned","inputs":[]},{"type":"error","name":"Membership__InsufficientAllowance","inputs":[]},{"type":"error","name":"Membership__InsufficientPayment","inputs":[]},{"type":"error","name":"Membership__InvalidAddress","inputs":[]},{"type":"error","name":"Membership__InvalidCurrency","inputs":[]},{"type":"error","name":"Membership__InvalidDuration","inputs":[]},{"type":"error","name":"Membership__InvalidFeeRecipient","inputs":[]},{"type":"error","name":"Membership__InvalidFreeAllocation","inputs":[]},{"type":"error","name":"Membership__InvalidLimit","inputs":[]},{"type":"error","name":"Membership__InvalidMaxSupply","inputs":[]},{"type":"error","name":"Membership__InvalidPayment","inputs":[]},{"type":"error","name":"Membership__InvalidPrice","inputs":[]},{"type":"error","name":"Membership__InvalidPricingModule","inputs":[]},{"type":"error","name":"Membership__InvalidTokenId","inputs":[]},{"type":"error","name":"Membership__InvalidTransactionType","inputs":[]},{"type":"error","name":"Membership__MaxSupplyReached","inputs":[]},{"type":"error","name":"Membership__NotExpired","inputs":[]},{"type":"error","name":"Membership__PriceTooLow","inputs":[]},{"type":"error","name":"MintERC2309QuantityExceedsLimit","inputs":[]},{"type":"error","name":"MintToZeroAddress","inputs":[]},{"type":"error","name":"MintZeroQuantity","inputs":[]},{"type":"error","name":"Ownable__NotOwner","inputs":[{"name":"account","type":"address","internalType":"address"}]},{"type":"error","name":"Ownable__ZeroAddress","inputs":[]},{"type":"error","name":"OwnerQueryForNonexistentToken","inputs":[]},{"type":"error","name":"OwnershipNotInitializedForExtraData","inputs":[]},{"type":"error","name":"PartnerRegistry__InvalidPartnerFee","inputs":[{"name":"fee","type":"uint256","internalType":"uint256"}]},{"type":"error","name":"PartnerRegistry__InvalidRecipient","inputs":[]},{"type":"error","name":"PartnerRegistry__NotPartnerAccount","inputs":[{"name":"account","type":"address","internalType":"address"}]},{"type":"error","name":"PartnerRegistry__PartnerAlreadyRegistered","inputs":[{"name":"account","type":"address","internalType":"address"}]},{"type":"error","name":"PartnerRegistry__PartnerNotActive","inputs":[{"name":"account","type":"address","internalType":"address"}]},{"type":"error","name":"PartnerRegistry__PartnerNotRegistered","inputs":[{"name":"account","type":"address","internalType":"address"}]},{"type":"error","name":"PartnerRegistry__RegistryFeeNotPaid","inputs":[{"name":"fee","type":"uint256","internalType":"uint256"}]},{"type":"error","name":"Pausable__NotPaused","inputs":[]},{"type":"error","name":"Pausable__Paused","inputs":[]},{"type":"error","name":"Prepay__InvalidAddress","inputs":[]},{"type":"error","name":"Prepay__InvalidAmount","inputs":[]},{"type":"error","name":"Prepay__InvalidMembership","inputs":[]},{"type":"error","name":"Prepay__InvalidSupplyAmount","inputs":[]},{"type":"error","name":"Reentrancy","inputs":[]},{"type":"error","name":"Referrals__InvalidBasisPoints","inputs":[]},{"type":"error","name":"Referrals__InvalidBpsFee","inputs":[]},{"type":"error","name":"Referrals__InvalidRecipient","inputs":[]},{"type":"error","name":"Referrals__InvalidReferralCode","inputs":[]},{"type":"error","name":"Referrals__ReferralAlreadyExists","inputs":[]},{"type":"error","name":"Roles__EntitlementAlreadyExists","inputs":[]},{"type":"error","name":"Roles__EntitlementDoesNotExist","inputs":[]},{"type":"error","name":"Roles__InvalidEntitlementAddress","inputs":[]},{"type":"error","name":"Roles__InvalidPermission","inputs":[]},{"type":"error","name":"Roles__PermissionAlreadyExists","inputs":[]},{"type":"error","name":"Roles__PermissionDoesNotExist","inputs":[]},{"type":"error","name":"Roles__RoleDoesNotExist","inputs":[]},{"type":"error","name":"Roles__RoleIsImmutable","inputs":[]},{"type":"error","name":"TransferCallerNotOwnerNorApproved","inputs":[]},{"type":"error","name":"TransferFromIncorrectOwner","inputs":[]},{"type":"error","name":"TransferToNonERC721ReceiverImplementer","inputs":[]},{"type":"error","name":"TransferToZeroAddress","inputs":[]},{"type":"error","name":"URIQueryForNonexistentToken","inputs":[]}],"bytecode":{"object":"0x6080604052348015600e575f5ffd5b5060156019565b60bd565b7f59b501c3653afc186af7d48dda36cf6732bd21629a6295693664240a6ef520008054640100000000900460ff16156064576040516366008a2d60e01b815260040160405180910390fd5b805463ffffffff908116101560ba57805463ffffffff191663ffffffff90811782556040519081527fe9c9b456cb2994b80aeef036cf59d26e9617df80f816a6ee5a5b4166e07e2f5c9060200160405180910390a15b50565b614f15806100ca5f395ff3fe608060405260043610610162575f3560e01c806379dda585116100c657806393b13cb71161007c578063a5a4103111610057578063a5a41031146103ab578063df9a9fe6146103bf578063e847abdd146103de575f5ffd5b806393b13cb71461035757806395d600c81461037857806397fb7c1e1461038c575f5ffd5b80638120f0ba116100ac5780638120f0ba146102f857806383f3f0dc146103255780638c625b0614610344575f5ffd5b806379dda585146102d15780637c9669ac146102e5575f5ffd5b80635becd24a1161011b578063686f768411610101578063686f76841461028b57806369d5f38a1461029e578063706b8e09146102bd575f5ffd5b80635becd24a14610233578063657e45e814610252575f5ffd5b806317c957091161014b57806317c95709146101ae5780633e9491a2146102025780635803909f14610214575f5ffd5b80630ef1be5f146101665780631278076a14610187575b5f5ffd5b348015610171575f5ffd5b50610185610180366004614343565b6103f2565b005b348015610192575f5ffd5b5061019b6104a7565b6040519081526020015b60405180910390f35b3480156101b9575f5ffd5b5061019b6101c83660046143b1565b5f9081527f4775a23600034fdd9f073b224f794d51a58b35ba663a9602623ba7a5c09cce00602052604090205467ffffffffffffffff1690565b34801561020d575f5ffd5b504761019b565b34801561021f575f5ffd5b5061019b61022e3660046143b1565b610500565b34801561023e575f5ffd5b5061018561024d3660046143b1565b61055b565b34801561025d575f5ffd5b50610266610642565b60405173ffffffffffffffffffffffffffffffffffffffff90911681526020016101a5565b6101856102993660046144d3565b610681565b3480156102a9575f5ffd5b506101856102b83660046143b1565b6106c5565b3480156102c8575f5ffd5b5061019b6107dd565b3480156102dc575f5ffd5b506102666107e6565b6101856102f33660046143b1565b610825565b348015610303575f5ffd5b5061030c610868565b60405167ffffffffffffffff90911681526020016101a5565b348015610330575f5ffd5b5061018561033f3660046145d2565b610871565b6101856103523660046145ed565b6108eb565b348015610362575f5ffd5b5061036b61091e565b6040516101a59190614654565b348015610383575f5ffd5b5061019b610928565b348015610397575f5ffd5b506101856103a63660046143b1565b610951565b3480156103b6575f5ffd5b5061019b610a3b565b3480156103ca575f5ffd5b506101856103d93660046145ed565b610a92565b3480156103e9575f5ffd5b50610266610b6b565b6103fa610baa565b73ffffffffffffffffffffffffffffffffffffffff163373ffffffffffffffffffffffffffffffffffffffff1614610465576040517f65f490650000000000000000000000000000000000000000000000000000000081523360048201526024015b60405180910390fd5b6104a382828080601f0160208091040260200160405190810160405280939291908181526020018383808284375f92019190915250610c6a92505050565b5050565b5f6104fb6104f67f6569bde4a160c636ea8b8d11acb83a60d7fec0b8f2e09389306cba0e1340df01547f6569bde4a160c636ea8b8d11acb83a60d7fec0b8f2e09389306cba0e1340df00540390565b610c95565b905090565b5f610555826105507f6569bde4a160c636ea8b8d11acb83a60d7fec0b8f2e09389306cba0e1340df01547f6569bde4a160c636ea8b8d11acb83a60d7fec0b8f2e09389306cba0e1340df00540390565b610e78565b92915050565b610563610baa565b73ffffffffffffffffffffffffffffffffffffffff163373ffffffffffffffffffffffffffffffffffffffff16146105c9576040517f65f4906500000000000000000000000000000000000000000000000000000000815233600482015260240161045c565b5f6105f27fc21004fcc619240a31f006438274d15cd813308303284436eef6055f0fdcb6035490565b9050801580159061060257508082115b15610630576106307fc3983b9100000000000000000000000000000000000000000000000000000000610ef4565b61063982610efc565b6104a382610fa0565b5f6104fb7fc21004fcc619240a31f006438274d15cd813308303284436eef6055f0fdcb6045473ffffffffffffffffffffffffffffffffffffffff1690565b3068929eee149b4bd21268540361069f5763ab143c065f526004601cfd5b3068929eee149b4bd21268556106b5828261105e565b3868929eee149b4bd21268555050565b6106cd610baa565b73ffffffffffffffffffffffffffffffffffffffff163373ffffffffffffffffffffffffffffffffffffffff1614610733576040517f65f4906500000000000000000000000000000000000000000000000000000000815233600482015260240161045c565b61073c8161115c565b7fc21004fcc619240a31f006438274d15cd813308303284436eef6055f0fdcb608546040517f91b7f5ed0000000000000000000000000000000000000000000000000000000081526004810183905273ffffffffffffffffffffffffffffffffffffffff909116906391b7f5ed906024015f604051808303815f87803b1580156107c4575f5ffd5b505af11580156107d6573d5f5f3e3d5ffd5b5050505050565b5f6104fb611204565b5f6104fb7fc21004fcc619240a31f006438274d15cd813308303284436eef6055f0fdcb6065473ffffffffffffffffffffffffffffffffffffffff1690565b3068929eee149b4bd2126854036108435763ab143c065f526004601cfd5b3068929eee149b4bd212685561085933826112cf565b3868929eee149b4bd212685550565b5f6104fb611449565b610879610baa565b73ffffffffffffffffffffffffffffffffffffffff163373ffffffffffffffffffffffffffffffffffffffff16146108df576040517f65f4906500000000000000000000000000000000000000000000000000000000815233600482015260240161045c565b6108e88161150c565b50565b3068929eee149b4bd2126854036109095763ab143c065f526004601cfd5b3068929eee149b4bd212685561085981611587565b60606104fb61162a565b5f6104fb7fc21004fcc619240a31f006438274d15cd813308303284436eef6055f0fdcb6035490565b610959610baa565b73ffffffffffffffffffffffffffffffffffffffff163373ffffffffffffffffffffffffffffffffffffffff16146109bf576040517f65f4906500000000000000000000000000000000000000000000000000000000815233600482015260240161045c565b610a1381610a0e7f6569bde4a160c636ea8b8d11acb83a60d7fec0b8f2e09389306cba0e1340df01547f6569bde4a160c636ea8b8d11acb83a60d7fec0b8f2e09389306cba0e1340df00540390565b6116dc565b6108e8817fc21004fcc619240a31f006438274d15cd813308303284436eef6055f0fdcb60355565b5f6104fb610a8d6104f67f6569bde4a160c636ea8b8d11acb83a60d7fec0b8f2e09389306cba0e1340df01547f6569bde4a160c636ea8b8d11acb83a60d7fec0b8f2e09389306cba0e1340df00540390565b61170d565b610a9a610baa565b73ffffffffffffffffffffffffffffffffffffffff163373ffffffffffffffffffffffffffffffffffffffff1614610b00576040517f65f4906500000000000000000000000000000000000000000000000000000000815233600482015260240161045c565b610b0981611880565b7fc21004fcc619240a31f006438274d15cd813308303284436eef6055f0fdcb60880547fffffffffffffffffffffffff00000000000000000000000000000000000000001673ffffffffffffffffffffffffffffffffffffffff831617905550565b5f6104fb7fc21004fcc619240a31f006438274d15cd813308303284436eef6055f0fdcb6085473ffffffffffffffffffffffffffffffffffffffff1690565b5f807fd2f24d4f172e4e84e48e7c4125b6e904c29e5eba33ad4938fee51dd5dbd4b600805460018201546040517f6352211e000000000000000000000000000000000000000000000000000000008152600481019190915291925073ffffffffffffffffffffffffffffffffffffffff1690636352211e90602401602060405180830381865afa158015610c40573d5f5f3e3d5ffd5b505050506040513d601f19601f82011682018060405250810190610c649190614666565b91505090565b7fc21004fcc619240a31f006438274d15cd813308303284436eef6055f0fdcb60c6104a38282614710565b5f5f610c9f611204565b9050610cdf7fc21004fcc619240a31f006438274d15cd813308303284436eef6055f0fdcb6085473ffffffffffffffffffffffffffffffffffffffff1690565b6040517f5cf4ee91000000000000000000000000000000000000000000000000000000008152600481018390526024810185905273ffffffffffffffffffffffffffffffffffffffff9190911690635cf4ee9190604401602060405180830381865afa158015610d51573d5f5f3e3d5ffd5b505050506040513d601f19601f82011682018060405250810190610d759190614827565b91505f610d806107e6565b90505f8173ffffffffffffffffffffffffffffffffffffffff16631b159e2e6040518163ffffffff1660e01b8152600401602060405180830381865afa158015610dcc573d5f5f3e3d5ffd5b505050506040513d601f19601f82011682018060405250810190610df09190614827565b905080841015610e70578173ffffffffffffffffffffffffffffffffffffffff16630eac306d6040518163ffffffff1660e01b8152600401602060405180830381865afa158015610e43573d5f5f3e3d5ffd5b505050506040513d601f19601f82011682018060405250810190610e679190614827565b95945050505050565b505050919050565b5f8281527fc21004fcc619240a31f006438274d15cd813308303284436eef6055f0fdcb60960205260408120547fc21004fcc619240a31f006438274d15cd813308303284436eef6055f0fdcb600908015610eeb575f610ed78261170d565b828118908311029091189250610555915050565b610e6784610c95565b805f5260045ffd5b610f046107e6565b73ffffffffffffffffffffffffffffffffffffffff16632cbb9d136040518163ffffffff1660e01b8152600401602060405180830381865afa158015610f4c573d5f5f3e3d5ffd5b505050506040513d601f19601f82011682018060405250810190610f709190614827565b8111156108e8576108e87fc3983b9100000000000000000000000000000000000000000000000000000000610ef4565b7fc21004fcc619240a31f006438274d15cd813308303284436eef6055f0fdcb6078190557fc21004fcc619240a31f006438274d15cd813308303284436eef6055f0fdcb60d80547fffffffffffffffffffffffffffffffffffffffffffffffffffffffffffffff001660011790556040517fc21004fcc619240a31f006438274d15cd813308303284436eef6055f0fdcb6009082907fab14a23e88fb272313490d4f20d63098e64fd38304c0e07a377db98c2b39b92f905f90a25050565b611067826119b9565b5f611070611aaf565b9050801561108057611080611b48565b61108a8383611bd6565b5f8260405160200161109c919061483e565b604080517fffffffffffffffffffffffffffffffffffffffffffffffffffffffffffffffe081840301815291905290507f686f7684000000000000000000000000000000000000000000000000000000005f611103866110fe84338388611c7b565b611cad565b90505f5f611112883385611de8565b9150915080611152578115611148578515611130576111308361203d565b61113a83896121c1565b6111438861224c565b611152565b611152838961233b565b5050505050505050565b5f6111656107e6565b73ffffffffffffffffffffffffffffffffffffffff16630eac306d6040518163ffffffff1660e01b8152600401602060405180830381865afa1580156111ad573d5f5f3e3d5ffd5b505050506040513d601f19601f820116820180604052508101906111d19190614827565b9050808210156104a3576104a37f3447ac8e00000000000000000000000000000000000000000000000000000000610ef4565b7fc21004fcc619240a31f006438274d15cd813308303284436eef6055f0fdcb60d545f907fc21004fcc619240a31f006438274d15cd813308303284436eef6055f0fdcb6009060ff161561125b5760070154919050565b6112636107e6565b73ffffffffffffffffffffffffffffffffffffffff16632cbb9d136040518163ffffffff1660e01b8152600401602060405180830381865afa1580156112ab573d5f5f3e3d5ffd5b505050506040513d601f19601f82011682018060405250810190610c649190614827565b5f6112d9826123a1565b905073ffffffffffffffffffffffffffffffffffffffff811661131f5761131f7f5fbd571700000000000000000000000000000000000000000000000000000000610ef4565b5f611328611449565b67ffffffffffffffff1690505f611384846105507f6569bde4a160c636ea8b8d11acb83a60d7fec0b8f2e09389306cba0e1340df01547f6569bde4a160c636ea8b8d11acb83a60d7fec0b8f2e09389306cba0e1340df00540390565b9050348111156113b7576113b77f34a7a93d00000000000000000000000000000000000000000000000000000000610ef4565b5f6113c286836123ab565b90505f6113cf82846148c5565b905080156113e3576113e18782612473565b505b5f6113ee84346148c5565b9050801561143f5761143f6114377fc21004fcc619240a31f006438274d15cd813308303284436eef6055f0fdcb6045473ffffffffffffffffffffffffffffffffffffffff1690565b308a846125e9565b611152878661264d565b7fc21004fcc619240a31f006438274d15cd813308303284436eef6055f0fdcb6065474010000000000000000000000000000000000000000900467ffffffffffffffff165f8190036115095761149d6107e6565b73ffffffffffffffffffffffffffffffffffffffff16638120f0ba6040518163ffffffff1660e01b8152600401602060405180830381865afa1580156114e5573d5f5f3e3d5ffd5b505050506040513d601f19601f820116820180604052508101906104fb91906148d8565b90565b6115158161272d565b7fc21004fcc619240a31f006438274d15cd813308303284436eef6055f0fdcb606805467ffffffffffffffff90921674010000000000000000000000000000000000000000027fffffffff0000000000000000ffffffffffffffffffffffffffffffffffffffff909216919091179055565b611590816119b9565b5f611599611aaf565b905080156115a9576115a9611b48565b5f638c625b0660e01b90505f6115d3846110fe84338860405180602001604052805f815250611c7b565b90505f5f6115e2863385611de8565b91509150806116225781156116185784156116005761160083612823565b61160a83876121c1565b6116138661224c565b611622565b611622838761233b565b505050505050565b60607fc21004fcc619240a31f006438274d15cd813308303284436eef6055f0fdcb600600c01805461165b90614681565b80601f016020809104026020016040519081016040528092919081815260200182805461168790614681565b80156116d25780601f106116a9576101008083540402835291602001916116d2565b820191905f5260205f20905b8154815290600101906020018083116116b557829003601f168201915b5050505050905090565b808210156104a3576104a37fccc9aa2e00000000000000000000000000000000000000000000000000000000610ef4565b5f5f6117176107e6565b90505f8173ffffffffffffffffffffffffffffffffffffffff16631b159e2e6040518163ffffffff1660e01b8152600401602060405180830381865afa158015611763573d5f5f3e3d5ffd5b505050506040513d601f19601f820116820180604052508101906117879190614827565b905080841015611806578173ffffffffffffffffffffffffffffffffffffffff16630eac306d6040518163ffffffff1660e01b8152600401602060405180830381865afa1580156117da573d5f5f3e3d5ffd5b505050506040513d601f19601f820116820180604052508101906117fe9190614827565b949350505050565b6117fe848373ffffffffffffffffffffffffffffffffffffffff16639f6542aa6040518163ffffffff1660e01b8152600401602060405180830381865afa158015611853573d5f5f3e3d5ffd5b505050506040513d601f19601f8201168201806040525081019061187791906148f3565b61ffff16612941565b73ffffffffffffffffffffffffffffffffffffffff81166118c4576118c47f0e88bf4b00000000000000000000000000000000000000000000000000000000610ef4565b7fc21004fcc619240a31f006438274d15cd813308303284436eef6055f0fdcb6065473ffffffffffffffffffffffffffffffffffffffff166040517f8df80bd600000000000000000000000000000000000000000000000000000000815273ffffffffffffffffffffffffffffffffffffffff83811660048301529190911690638df80bd690602401602060405180830381865afa158015611968573d5f5f3e3d5ffd5b505050506040513d601f19601f8201168201806040525081019061198c9190614928565b6108e8576108e87f0e88bf4b00000000000000000000000000000000000000000000000000000000610ef4565b73ffffffffffffffffffffffffffffffffffffffff81166119fd576119fd7f5fbd571700000000000000000000000000000000000000000000000000000000610ef4565b5f611a267fc21004fcc619240a31f006438274d15cd813308303284436eef6055f0fdcb6035490565b90508015801590611a81575080611a7e7f6569bde4a160c636ea8b8d11acb83a60d7fec0b8f2e09389306cba0e1340df01547f6569bde4a160c636ea8b8d11acb83a60d7fec0b8f2e09389306cba0e1340df00540390565b10155b156104a3576104a37f7efcdb4900000000000000000000000000000000000000000000000000000000610ef4565b5f5f611afc7f6569bde4a160c636ea8b8d11acb83a60d7fec0b8f2e09389306cba0e1340df01547f6569bde4a160c636ea8b8d11acb83a60d7fec0b8f2e09389306cba0e1340df00540390565b90505f611b07611204565b90505f611b126129f2565b905082821115611b25575f935050505090565b8015611b3e57611b356001612a1b565b5f935050505090565b6001935050505090565b5f611b976104f67f6569bde4a160c636ea8b8d11acb83a60d7fec0b8f2e09389306cba0e1340df01547f6569bde4a160c636ea8b8d11acb83a60d7fec0b8f2e09389306cba0e1340df00540390565b90505f611ba382612a58565b9050803410156104a3576104a37fb1296a8a00000000000000000000000000000000000000000000000000000000610ef4565b602081015173ffffffffffffffffffffffffffffffffffffffff16156104a3578173ffffffffffffffffffffffffffffffffffffffff16816020015173ffffffffffffffffffffffffffffffffffffffff161480611c4d5750602081015173ffffffffffffffffffffffffffffffffffffffff1633145b156104a3576104a37f5fbd571700000000000000000000000000000000000000000000000000000000610ef4565b606084848484604051602001611c949493929190614941565b6040516020818303038152906040529050949350505050565b6040517fffffffffffffffffffffffffffffffffffffffff000000000000000000000000606084901b1660208201524360348201525f908190605401604051602081830303815290604052805190602001209050611d8c81611d608387611d1386612a88565b6040805160208082019590955273ffffffffffffffffffffffffffffffffffffffff9390931683820152606080840192909252805180840390920182526080909201909152805191012090565b604080516020808201949094528082019290925280518083038201815260609092019052805191012090565b91505f611d9883612ace565b511115611dc857611dc87ff82e65c300000000000000000000000000000000000000000000000000000000610ef4565b611dd28284612bae565b3415611de157611de182612c06565b5092915050565b5f5f5f611e296040518060400160405280600981526020017f4a6f696e53706163650000000000000000000000000000000000000000000000815250612c64565b90505f611e3587612dfc565b82519091505f5b81811015612030575f848281518110611e5757611e576149bd565b60200260200101519050806040015115611e715750612028565b5f5b816080015151811015612025575f82608001518281518110611e9757611e976149bd565b602002602001015190508073ffffffffffffffffffffffffffffffffffffffff16630cf0b5335f5f1b886040518060400160405280600981526020017f4a6f696e53706163650000000000000000000000000000000000000000000000815250604051602001611f0791906149ea565b604051602081830303815290604052611f1f90614a00565b6040518463ffffffff1660e01b8152600401611f3d93929190614a42565b602060405180830381865afa158015611f58573d5f5f3e3d5ffd5b505050506040513d601f19601f82011682018060405250810190611f7c9190614928565b15611f955750600197505f965061203595505050505050565b8073ffffffffffffffffffffffffffffffffffffffff16632e1b61e46040518163ffffffff1660e01b8152600401602060405180830381865afa158015611fde573d5f5f3e3d5ffd5b505050506040513d601f19601f820116820180604052508101906120029190614928565b1561201c576120178c8c8c84875f0151613140565b600197505b50600101611e73565b50505b600101611e3c565b505050505b935093915050565b5f61208c6104f67f6569bde4a160c636ea8b8d11acb83a60d7fec0b8f2e09389306cba0e1340df01547f6569bde4a160c636ea8b8d11acb83a60d7fec0b8f2e09389306cba0e1340df00540390565b90505f61209882612a58565b90505f5f5f5f6120a787612ace565b8060200190518101906120ba9190614b12565b929650909450925090507fffffffff0000000000000000000000000000000000000000000000000000000084167f686f76840000000000000000000000000000000000000000000000000000000014612136576121367fda6153bd00000000000000000000000000000000000000000000000000000000610ef4565b5f8180602001905181019061214b9190614b96565b90505f5f612159868a6123ab565b90505f61216a87855f01518c61335c565b90505f61218188866020015187604001518e6134c9565b9050808261218f858d6148c5565b61219991906148c5565b6121a391906148c5565b93505050506121b68986868a858d61364b565b505050505050505050565b5f8281527f34516f6fe09a043d57f1ff579a303a7ae85314751c77b4eb1a55837604a86e0160205260409020548015612247576121fe83826136d6565b61224761223f7fc21004fcc619240a31f006438274d15cd813308303284436eef6055f0fdcb6045473ffffffffffffffffffffffffffffffffffffffff1690565b3084846125e9565b505050565b5f61225561373e565b90506122d9816122a96104f67f6569bde4a160c636ea8b8d11acb83a60d7fec0b8f2e09389306cba0e1340df01547f6569bde4a160c636ea8b8d11acb83a60d7fec0b8f2e09389306cba0e1340df00540390565b5f9182527fc21004fcc619240a31f006438274d15cd813308303284436eef6055f0fdcb609602052604090912055565b6122e4826001613765565b6122f5816122f0611449565b61264d565b604051819073ffffffffffffffffffffffffffffffffffffffff8416907f2f40b0474996b72a4251e00fb9170cdd960deea1dc749772cbbab61395b9b576905f90a35050565b6123538260405180602001604052805f815250612bae565b61235d82826121c1565b60405173ffffffffffffffffffffffffffffffffffffffff8216907f86fd446d5c04e892d58b448a924dcd9c3ece3a5e0d2960b8c35cd475a5595a1f905f90a25050565b5f6105558261377e565b5f6123b58261170d565b90506105556123f87fc21004fcc619240a31f006438274d15cd813308303284436eef6055f0fdcb6045473ffffffffffffffffffffffffffffffffffffffff1690565b846124016107e6565b73ffffffffffffffffffffffffffffffffffffffff16634ccb20c06040518163ffffffff1660e01b8152600401602060405180830381865afa158015612449573d5f5f3e3d5ffd5b505050506040513d601f19601f8201168201806040525081019061246d9190614666565b846125e9565b5f7fc21004fcc619240a31f006438274d15cd813308303284436eef6055f0fdcb600816124d47fc21004fcc619240a31f006438274d15cd813308303284436eef6055f0fdcb6045473ffffffffffffffffffffffffffffffffffffffff1690565b90507fffffffffffffffffffffffff111111111111111111111111111111111111111273ffffffffffffffffffffffffffffffffffffffff821601612536578382600a015f8282546125269190614c3e565b9091555084935061055592505050565b5f61255773ffffffffffffffffffffffffffffffffffffffff8316306138af565b9050612565828730886125e9565b5f61258673ffffffffffffffffffffffffffffffffffffffff8416306138af565b90505f61259383836148c5565b90508681146125c5576125c57fb1296a8a00000000000000000000000000000000000000000000000000000000610ef4565b8085600a015f8282546125d89190614c3e565b909155509098975050505050505050565b8015612647577fffffffffffffffffffffffff111111111111111111111111111111111111111273ffffffffffffffffffffffffffffffffffffffff85160161263b5761263682826138e2565b612647565b61264784848484613902565b50505050565b5f8281527f4775a23600034fdd9f073b224f794d51a58b35ba663a9602623ba7a5c09cce0060208190526040822054909167ffffffffffffffff909116908181036126a35761269c8442614c51565b90506126b0565b6126ad8483614c51565b90505b5f858152602084815260409182902080547fffffffffffffffffffffffffffffffffffffffffffffffff00000000000000001667ffffffffffffffff8516908117909155915191825286917f2ec2be2c4b90c2cf13ecb6751a24daed6bb741ae5ed3f7371aabf9402f6d62e8910160405180910390a25050505050565b5f6127366107e6565b73ffffffffffffffffffffffffffffffffffffffff16638120f0ba6040518163ffffffff1660e01b8152600401602060405180830381865afa15801561277e573d5f5f3e3d5ffd5b505050506040513d601f19601f820116820180604052508101906127a291906148d8565b67ffffffffffffffff1690508167ffffffffffffffff165f036127e8576127e87f82323d2e00000000000000000000000000000000000000000000000000000000610ef4565b808267ffffffffffffffff1611156104a3576104a37f82323d2e00000000000000000000000000000000000000000000000000000000610ef4565b5f6128726104f67f6569bde4a160c636ea8b8d11acb83a60d7fec0b8f2e09389306cba0e1340df01547f6569bde4a160c636ea8b8d11acb83a60d7fec0b8f2e09389306cba0e1340df00540390565b90505f61287e82612a58565b90505f5f5f61288c86612ace565b80602001905181019061289f9190614b12565b50919450925090507fffffffff0000000000000000000000000000000000000000000000000000000083167f8c625b060000000000000000000000000000000000000000000000000000000014612919576129197fda6153bd00000000000000000000000000000000000000000000000000000000610ef4565b5f61292483876123ab565b90505f61293182876148c5565b905061115288858589858c61364b565b5f6127108211156129d4576040517f08c379a000000000000000000000000000000000000000000000000000000000815260206004820152602160248201527f426173697320706f696e74732063616e6e6f74206578636565642031305f303060448201527f3000000000000000000000000000000000000000000000000000000000000000606482015260840161045c565b6127106129e18385614c71565b6129eb9190614c88565b9392505050565b5f7f097b4f25b64e012d0cf55f67e9b34fe5d57f15b11b95baa4ddd136b424967c005b54919050565b7f097b4f25b64e012d0cf55f67e9b34fe5d57f15b11b95baa4ddd136b424967c008054829082905f90612a4f9084906148c5565b90915550505050565b5f5f612a626129f2565b90508015612a7257505f92915050565b825f03612a8157505f92915050565b5090919050565b5f8181527f34516f6fe09a043d57f1ff579a303a7ae85314751c77b4eb1a55837604a86e0060208190526040822080549083612ac383614cc0565b909155509392505050565b5f8181527f34516f6fe09a043d57f1ff579a303a7ae85314751c77b4eb1a55837604a86e026020526040902080546060917f34516f6fe09a043d57f1ff579a303a7ae85314751c77b4eb1a55837604a86e0091612b2a90614681565b80601f0160208091040260200160405190810160405280929190818152602001828054612b5690614681565b8015612ba15780601f10612b7857610100808354040283529160200191612ba1565b820191905f5260205f20905b815481529060010190602001808311612b8457829003601f168201915b5050505050915050919050565b5f8281527f34516f6fe09a043d57f1ff579a303a7ae85314751c77b4eb1a55837604a86e02602052604090207f34516f6fe09a043d57f1ff579a303a7ae85314751c77b4eb1a55837604a86e00906126478382614710565b5f8181527f34516f6fe09a043d57f1ff579a303a7ae85314751c77b4eb1a55837604a86e016020526040812080547f34516f6fe09a043d57f1ff579a303a7ae85314751c77b4eb1a55837604a86e0092349291612a4f908490614c3e565b60605f612c6f613996565b80519091505f8167ffffffffffffffff811115612c8e57612c8e6143e9565b604051908082528060200260200182016040528015612cf157816020015b612cde6040518060a001604052805f8152602001606081526020015f1515815260200160608152602001606081525090565b815260200190600190039081612cac5790505b50855160208701209091505f90815b84811015612df0575f5f5f5f612d2e8a8681518110612d2157612d216149bd565b60200260200101516139c1565b93509350935093505f5b8251811015612de05786838281518110612d5457612d546149bd565b60200260200101518051906020012003612dd8576040518060a001604052808c8881518110612d8557612d856149bd565b60200260200101518152602001868152602001851515815260200184815260200183815250898981518110612dbc57612dbc6149bd565b602002602001018190525087612dd190614cc0565b9750612de0565b600101612d38565b5050505050806001019050612d00565b50508152949350505050565b60605f7fc21004fcc619240a31f006438274d15cd813308303284436eef6055f0fdcb600600601546040517f02345b9800000000000000000000000000000000000000000000000000000000815273ffffffffffffffffffffffffffffffffffffffff858116600483015290911691505f9082906302345b98906024015f60405180830381865afa158015612e93573d5f5f3e3d5ffd5b505050506040513d5f823e601f3d9081017fffffffffffffffffffffffffffffffffffffffffffffffffffffffffffffffe0168201604052612ed89190810190614cf7565b905080515f03613049576040517ff821039800000000000000000000000000000000000000000000000000000000815273ffffffffffffffffffffffffffffffffffffffff85811660048301525f919084169063f821039890602401602060405180830381865afa158015612f4f573d5f5f3e3d5ffd5b505050506040513d601f19601f82011682018060405250810190612f739190614666565b905073ffffffffffffffffffffffffffffffffffffffff811615613047576040517f02345b9800000000000000000000000000000000000000000000000000000000815273ffffffffffffffffffffffffffffffffffffffff808316600483015291955085918416906302345b98906024015f60405180830381865afa158015612fff573d5f5f3e3d5ffd5b505050506040513d5f823e601f3d9081017fffffffffffffffffffffffffffffffffffffffffffffffffffffffffffffffe01682016040526130449190810190614cf7565b91505b505b80515f613057826001614c3e565b67ffffffffffffffff81111561306f5761306f6143e9565b604051908082528060200260200182016040528015613098578160200160208202803683370190505b5090505f5b828110156130fe578381815181106130b7576130b76149bd565b60200260200101518282815181106130d1576130d16149bd565b73ffffffffffffffffffffffffffffffffffffffff9092166020928302919091019091015260010161309d565b5085818381518110613112576131126149bd565b73ffffffffffffffffffffffffffffffffffffffff9092166020928302919091019091015295945050505050565b73ffffffffffffffffffffffffffffffffffffffff8516613184576131847f99ef038800000000000000000000000000000000000000000000000000000000610ef4565b73ffffffffffffffffffffffffffffffffffffffff82166131c8576131c87f4bb7c20500000000000000000000000000000000000000000000000000000000610ef4565b5f8381527f9075c515a635ba70c9696f31149324218d75cf00afe836c482e6473f38b19e016020908152604080832080547fffffffffffffffffffffffffffffffffffffffffffffffffffffffffffffff001660011781556003810180547fffffffffffffffffffffffff00000000000000000000000000000000000000001673ffffffffffffffffffffffffffffffffffffffff888116919091179091558251908916938101939093527f9075c515a635ba70c9696f31149324218d75cf00afe836c482e6473f38b19e00939092909101604080517fffffffffffffffffffffffffffffffffffffffffffffffffffffffffffffffe08184030181529082905284547f21be050a00000000000000000000000000000000000000000000000000000000835290925073ffffffffffffffffffffffffffffffffffffffff16906321be050a903490613324908c908b908a908890600401614dab565b5f604051808303818588803b15801561333b575f5ffd5b505af115801561334d573d5f5f3e3d5ffd5b50505050505050505050505050565b5f73ffffffffffffffffffffffffffffffffffffffff831661337f57505f6129eb565b5f6133be7fc21004fcc619240a31f006438274d15cd813308303284436eef6055f0fdcb6065473ffffffffffffffffffffffffffffffffffffffff1690565b6040517f5cb4f54800000000000000000000000000000000000000000000000000000000815273ffffffffffffffffffffffffffffffffffffffff86811660048301529190911690635cb4f54890602401608060405180830381865afa15801561342a573d5f5f3e3d5ffd5b505050506040513d601f19601f8201168201806040525081019061344e9190614de5565b905080604001515f03613464575f9150506129eb565b613472838260400151612941565b91506134c16134b57fc21004fcc619240a31f006438274d15cd813308303284436eef6055f0fdcb6045473ffffffffffffffffffffffffffffffffffffffff1690565b868360200151856125e9565b509392505050565b5f82515f14613579575f6134dc84613aad565b604081015190915073ffffffffffffffffffffffffffffffffffffffff16158061350857506020810151155b15613516575f9150506117fe565b613524838260200151612941565b91506135736135677fc21004fcc619240a31f006438274d15cd813308303284436eef6055f0fdcb6045473ffffffffffffffffffffffffffffffffffffffff1690565b878360400151856125e9565b506117fe565b73ffffffffffffffffffffffffffffffffffffffff8416156117fe578473ffffffffffffffffffffffffffffffffffffffff168473ffffffffffffffffffffffffffffffffffffffff16036135cf57505f6117fe565b613600826135fb7faca21cc4d2a125f3e0ae03aa135d42b2b9177631aca87599d42a68b47e9008015490565b612941565b90506117fe6136437fc21004fcc619240a31f006438274d15cd813308303284436eef6055f0fdcb6045473ffffffffffffffffffffffffffffffffffffffff1690565b8686846125e9565b811561365d5761365b8583612473565b505b61366786846136d6565b61367f8660405180602001604052805f815250612bae565b5f613688613b55565b90505f6136b7825f856040516020016136a391815260200190565b604051602081830303815290604052613c42565b90506136c4828783613cb3565b611152826136d0610baa565b83613cb3565b5f8281527f34516f6fe09a043d57f1ff579a303a7ae85314751c77b4eb1a55837604a86e016020526040812080547f34516f6fe09a043d57f1ff579a303a7ae85314751c77b4eb1a55837604a86e00928492916137349084906148c5565b9091555050505050565b5f7f6569bde4a160c636ea8b8d11acb83a60d7fec0b8f2e09389306cba0e1340df00612a15565b6104a3828260405180602001604052805f815250613d3b565b5f8181527f6569bde4a160c636ea8b8d11acb83a60d7fec0b8f2e09389306cba0e1340df046020526040812054907f6569bde4a160c636ea8b8d11acb83a60d7fec0b8f2e09389306cba0e1340df00907c01000000000000000000000000000000000000000000000000000000008316900361387c57815f036138765780548310613835576040517fdf2d9b4200000000000000000000000000000000000000000000000000000000815260040160405180910390fd5b5b7fffffffffffffffffffffffffffffffffffffffffffffffffffffffffffffffff9092015f81815260048401602052604090205490929091508115613836575b50919050565b506040517fdf2d9b4200000000000000000000000000000000000000000000000000000000815260040160405180910390fd5b5f816014526f70a082310000000000000000000000005f5260208060246010865afa601f3d111660205102905092915050565b6104a373ffffffffffffffffffffffffffffffffffffffff831682613e03565b8173ffffffffffffffffffffffffffffffffffffffff168373ffffffffffffffffffffffffffffffffffffffff160315612647573073ffffffffffffffffffffffffffffffffffffffff8416036139745761263673ffffffffffffffffffffffffffffffffffffffff85168383613e1c565b61264773ffffffffffffffffffffffffffffffffffffffff8516848484613e6f565b60606104fb7f672ef851d5f92307da037116e23aa9e31af7e1f7e3ca62c4e6d540631df3fd01613ed1565b5f8181527f672ef851d5f92307da037116e23aa9e31af7e1f7e3ca62c4e6d540631df3fd036020526040812080546060929183918291908190613a0390614681565b80601f0160208091040260200160405190810160405280929190818152602001828054613a2f90614681565b8015613a7a5780601f10613a5157610100808354040283529160200191613a7a565b820191905f5260205f20905b815481529060010190602001808311613a5d57829003601f168201915b5050505060018301549196505060ff169350613a9860028201613edd565b9250613aa381613fb4565b9150509193509193565b613ae56040518060600160405280606081526020015f81526020015f73ffffffffffffffffffffffffffffffffffffffff1681525090565b5080516020808301919091205f9081527faca21cc4d2a125f3e0ae03aa135d42b2b9177631aca87599d42a68b47e9008028252604090819020815160608101835293845280549284019290925260019091015473ffffffffffffffffffffffffffffffffffffffff169082015290565b5f613b947fc21004fcc619240a31f006438274d15cd813308303284436eef6055f0fdcb6065473ffffffffffffffffffffffffffffffffffffffff1690565b6040517f44ab66800000000000000000000000000000000000000000000000000000000081527f526976657241697264726f700000000000000000000000000000000000000000600482015273ffffffffffffffffffffffffffffffffffffffff91909116906344ab668090602401602060405180830381865afa158015613c1e573d5f5f3e3d5ffd5b505050506040513d601f19601f820116820180604052508101906104fb9190614666565b6040517fdc69fdde0000000000000000000000000000000000000000000000000000000081525f9073ffffffffffffffffffffffffffffffffffffffff85169063dc69fdde90613c989086908690600401614e5f565b602060405180830381865afa1580156117da573d5f5f3e3d5ffd5b6040517f40c10f1900000000000000000000000000000000000000000000000000000000815273ffffffffffffffffffffffffffffffffffffffff8381166004830152602482018390528416906340c10f19906044015f604051808303815f87803b158015613d20575f5ffd5b505af1158015613d32573d5f5f3e3d5ffd5b50505050505050565b613d458383613fc3565b73ffffffffffffffffffffffffffffffffffffffff83163b15612247577f6569bde4a160c636ea8b8d11acb83a60d7fec0b8f2e09389306cba0e1340df00548281035b613d9a5f868380600101945086614178565b613dd0576040517fd1a57ed600000000000000000000000000000000000000000000000000000000815260040160405180910390fd5b818110613d8857817f6569bde4a160c636ea8b8d11acb83a60d7fec0b8f2e09389306cba0e1340df0054146107d6575f5ffd5b5f385f3884865af16104a35763b12d13eb5f526004601cfd5b81601452806034526fa9059cbb0000000000000000000000005f5260205f604460105f875af18060015f511416613e6557803d853b151710613e65576390b8ec185f526004601cfd5b505f603452505050565b60405181606052826040528360601b602c526f23b872dd000000000000000000000000600c5260205f6064601c5f895af18060015f511416613ec357803d873b151710613ec357637939f4245f526004601cfd5b505f60605260405250505050565b60605f6129eb836142ea565b6060815f01805480602002602001604051908101604052809291908181526020015f905b82821015613fa9578382905f5260205f20018054613f1e90614681565b80601f0160208091040260200160405190810160405280929190818152602001828054613f4a90614681565b8015613f955780601f10613f6c57610100808354040283529160200191613f95565b820191905f5260205f20905b815481529060010190602001808311613f7857829003601f168201915b505050505081526020019060010190613f01565b505050509050919050565b60605f6129eb83600401613ed1565b7f6569bde4a160c636ea8b8d11acb83a60d7fec0b8f2e09389306cba0e1340df00545f82900361401f576040517fb562e8dd00000000000000000000000000000000000000000000000000000000815260040160405180910390fd5b73ffffffffffffffffffffffffffffffffffffffff83165f8181527f6569bde4a160c636ea8b8d11acb83a60d7fec0b8f2e09389306cba0e1340df056020908152604080832080546801000000000000000188020190558483527f6569bde4a160c636ea8b8d11acb83a60d7fec0b8f2e09389306cba0e1340df0490915281206001851460e11b4260a01b178317905582840190839083907fddf252ad1be2c89b69c2b068fc378daa952ba7f163c4a11628f55a4df523b3ef8180a4600183015b8181146141165780835f7fddf252ad1be2c89b69c2b068fc378daa952ba7f163c4a11628f55a4df523b3ef5f5fa46001016140e0565b50815f03614150576040517f2e07630000000000000000000000000000000000000000000000000000000000815260040160405180910390fd5b7f6569bde4a160c636ea8b8d11acb83a60d7fec0b8f2e09389306cba0e1340df005550505050565b6040517f150b7a020000000000000000000000000000000000000000000000000000000081525f9073ffffffffffffffffffffffffffffffffffffffff85169063150b7a02906141d2903390899088908890600401614eac565b6020604051808303815f875af192505050801561422a575060408051601f3d9081017fffffffffffffffffffffffffffffffffffffffffffffffffffffffffffffffe016820190925261422791810190614efc565b60015b61429f573d808015614257576040519150601f19603f3d011682016040523d82523d5f602084013e61425c565b606091505b5080515f03614297576040517fd1a57ed600000000000000000000000000000000000000000000000000000000815260040160405180910390fd5b805181602001fd5b7fffffffff00000000000000000000000000000000000000000000000000000000167f150b7a02000000000000000000000000000000000000000000000000000000001490506117fe565b6060815f0180548060200260200160405190810160405280929190818152602001828054801561433757602002820191905f5260205f20905b815481526020019060010190808311614323575b50505050509050919050565b5f5f60208385031215614354575f5ffd5b823567ffffffffffffffff81111561436a575f5ffd5b8301601f8101851361437a575f5ffd5b803567ffffffffffffffff811115614390575f5ffd5b8560208284010111156143a1575f5ffd5b6020919091019590945092505050565b5f602082840312156143c1575f5ffd5b5035919050565b73ffffffffffffffffffffffffffffffffffffffff811681146108e8575f5ffd5b7f4e487b71000000000000000000000000000000000000000000000000000000005f52604160045260245ffd5b6040516060810167ffffffffffffffff81118282101715614439576144396143e9565b60405290565b604051601f82017fffffffffffffffffffffffffffffffffffffffffffffffffffffffffffffffe016810167ffffffffffffffff81118282101715614486576144866143e9565b604052919050565b5f67ffffffffffffffff8211156144a7576144a76143e9565b50601f017fffffffffffffffffffffffffffffffffffffffffffffffffffffffffffffffe01660200190565b5f5f604083850312156144e4575f5ffd5b82356144ef816143c8565b9150602083013567ffffffffffffffff81111561450a575f5ffd5b83016060818603121561451b575f5ffd5b614523614416565b813561452e816143c8565b8152602082013561453e816143c8565b6020820152604082013567ffffffffffffffff81111561455c575f5ffd5b80830192505085601f830112614570575f5ffd5b813561458361457e8261448e565b61443f565b818152876020838601011115614597575f5ffd5b816020850160208301375f60208383010152806040840152505080925050509250929050565b67ffffffffffffffff811681146108e8575f5ffd5b5f602082840312156145e2575f5ffd5b81356129eb816145bd565b5f602082840312156145fd575f5ffd5b81356129eb816143c8565b5f81518084528060208401602086015e5f6020828601015260207fffffffffffffffffffffffffffffffffffffffffffffffffffffffffffffffe0601f83011685010191505092915050565b602081525f6129eb6020830184614608565b5f60208284031215614676575f5ffd5b81516129eb816143c8565b600181811c9082168061469557607f821691505b602082108103613876577f4e487b71000000000000000000000000000000000000000000000000000000005f52602260045260245ffd5b601f82111561224757805f5260205f20601f840160051c810160208510156146f15750805b601f840160051c820191505b818110156107d6575f81556001016146fd565b815167ffffffffffffffff81111561472a5761472a6143e9565b61473e816147388454614681565b846146cc565b6020601f82116001811461478f575f83156147595750848201515b7fffffffffffffffffffffffffffffffffffffffffffffffffffffffffffffffff600385901b1c1916600184901b1784556107d6565b5f848152602081207fffffffffffffffffffffffffffffffffffffffffffffffffffffffffffffffe08516915b828110156147dc57878501518255602094850194600190920191016147bc565b508482101561481857868401517fffffffffffffffffffffffffffffffffffffffffffffffffffffffffffffffff600387901b60f8161c191681555b50505050600190811b01905550565b5f60208284031215614837575f5ffd5b5051919050565b6020815273ffffffffffffffffffffffffffffffffffffffff825116602082015273ffffffffffffffffffffffffffffffffffffffff60208301511660408201525f60408301516060808401526117fe6080840182614608565b7f4e487b71000000000000000000000000000000000000000000000000000000005f52601160045260245ffd5b8181038181111561055557610555614898565b5f602082840312156148e8575f5ffd5b81516129eb816145bd565b5f60208284031215614903575f5ffd5b815161ffff811681146129eb575f5ffd5b80518015158114614923575f5ffd5b919050565b5f60208284031215614938575f5ffd5b6129eb82614914565b7fffffffff000000000000000000000000000000000000000000000000000000008516815273ffffffffffffffffffffffffffffffffffffffff8416602082015273ffffffffffffffffffffffffffffffffffffffff83166040820152608060608201525f6149b36080830184614608565b9695505050505050565b7f4e487b71000000000000000000000000000000000000000000000000000000005f52603260045260245ffd5b5f82518060208501845e5f920191825250919050565b80516020808301519190811015613876577fffffffffffffffffffffffffffffffffffffffffffffffffffffffffffffffff60209190910360031b1b16919050565b5f60608201858352606060208401528085518083526080850191506020870192505f5b81811015614a9957835173ffffffffffffffffffffffffffffffffffffffff16835260209384019390920191600101614a65565b505060409390930193909352509392505050565b80517fffffffff0000000000000000000000000000000000000000000000000000000081168114614923575f5ffd5b5f614ae961457e8461448e565b9050828152838383011115614afc575f5ffd5b8282602083015e5f602084830101529392505050565b5f5f5f5f60808587031215614b25575f5ffd5b614b2e85614aad565b93506020850151614b3e816143c8565b6040860151909350614b4f816143c8565b606086015190925067ffffffffffffffff811115614b6b575f5ffd5b8501601f81018713614b7b575f5ffd5b614b8a87825160208401614adc565b91505092959194509250565b5f60208284031215614ba6575f5ffd5b815167ffffffffffffffff811115614bbc575f5ffd5b820160608185031215614bcd575f5ffd5b614bd5614416565b8151614be0816143c8565b81526020820151614bf0816143c8565b6020820152604082015167ffffffffffffffff811115614c0e575f5ffd5b80830192505084601f830112614c22575f5ffd5b614c3185835160208501614adc565b6040820152949350505050565b8082018082111561055557610555614898565b67ffffffffffffffff818116838216019081111561055557610555614898565b808202811582820484141761055557610555614898565b5f82614cbb577f4e487b71000000000000000000000000000000000000000000000000000000005f52601260045260245ffd5b500490565b5f7fffffffffffffffffffffffffffffffffffffffffffffffffffffffffffffffff8203614cf057614cf0614898565b5060010190565b5f60208284031215614d07575f5ffd5b815167ffffffffffffffff811115614d1d575f5ffd5b8201601f81018413614d2d575f5ffd5b805167ffffffffffffffff811115614d4757614d476143e9565b8060051b614d576020820161443f565b91825260208184018101929081019087841115614d72575f5ffd5b6020850194505b83851015614da05784519250614d8e836143c8565b82825260209485019490910190614d79565b979650505050505050565b73ffffffffffffffffffffffffffffffffffffffff85168152836020820152826040820152608060608201525f6149b36080830184614608565b5f6080828403128015614df6575f5ffd5b506040516080810167ffffffffffffffff81118282101715614e1a57614e1a6143e9565b6040528251614e28816143c8565b81526020830151614e38816143c8565b602082015260408381015190820152614e5360608401614914565b60608201529392505050565b5f60048410614e95577f4e487b71000000000000000000000000000000000000000000000000000000005f52602160045260245ffd5b838252604060208301526117fe6040830184614608565b73ffffffffffffffffffffffffffffffffffffffff8516815273ffffffffffffffffffffffffffffffffffffffff84166020820152826040820152608060608201525f6149b36080830184614608565b5f60208284031215614f0c575f5ffd5b6129eb82614aad56","linkReferences":{}},"methodIdentifiers":{"expiresAt(uint256)":"17c95709","getMembershipCurrency()":"657e45e8","getMembershipDuration()":"8120f0ba","getMembershipFreeAllocation()":"706b8e09","getMembershipImage()":"93b13cb7","getMembershipLimit()":"95d600c8","getMembershipPrice()":"1278076a","getMembershipPricingModule()":"e847abdd","getMembershipRenewalPrice(uint256)":"5803909f","getProtocolFee()":"a5a41031","getSpaceFactory()":"79dda585","joinSpace(address)":"8c625b06","joinSpaceWithReferral(address,(address,address,string))":"686f7684","renewMembership(uint256)":"7c9669ac","revenue()":"3e9491a2","setMembershipDuration(uint64)":"83f3f0dc","setMembershipFreeAllocation(uint256)":"5becd24a","setMembershipImage(string)":"0ef1be5f","setMembershipLimit(uint256)":"97fb7c1e","setMembershipPrice(uint256)":"69d5f38a","setMembershipPricingModule(address)":"df9a9fe6"},"id":471}