{"abi":[{"type":"function","name":"expiresAt","inputs":[{"name":"tokenId","type":"uint256","internalType":"uint256"}],"outputs":[{"name":"","type":"uint256","internalType":"uint256"}],"stateMutability":"view"},{"type":"function","name":"getMembershipCurrency","inputs":[],"outputs":[{"name":"","type":"address","internalType":"address"}],"stateMutability":"view"},{"type":"function","name":"getMembershipDuration","inputs":[],"outputs":[{"name":"","type":"uint64","internalType":"uint64"}],"stateMutability":"view"},{"type":"function","name":"getMembershipFreeAllocation","inputs":[],"outputs":[{"name":"","type":"uint256","internalType":"uint256"}],"stateMutability":"view"},{"type":"function","name":"getMembershipImage","inputs":[],"outputs":[{"name":"","type":"string","internalType":"string"}],"stateMutability":"view"},{"type":"function","name":"getMembershipLimit","inputs":[],"outputs":[{"name":"","type":"uint256","internalType":"uint256"}],"stateMutability":"view"},{"type":"function","name":"getMembershipPrice","inputs":[],"outputs":[{"name":"","type":"uint256","internalType":"uint256"}],"stateMutability":"view"},{"type":"function","name":"getMembershipPricingModule","inputs":[],"outputs":[{"name":"","type":"address","internalType":"address"}],"stateMutability":"view"},{"type":"function","name":"getMembershipRenewalPrice","inputs":[{"name":"tokenId","type":"uint256","internalType":"uint256"}],"outputs":[{"name":"","type":"uint256","internalType":"uint256"}],"stateMutability":"view"},{"type":"function","name":"getProtocolFee","inputs":[],"outputs":[{"name":"","type":"uint256","internalType":"uint256"}],"stateMutability":"view"},{"type":"function","name":"getSpaceFactory","inputs":[],"outputs":[{"name":"","type":"address","internalType":"address"}],"stateMutability":"view"},{"type":"function","name":"joinSpace","inputs":[{"name":"receiver","type":"address","internalType":"address"}],"outputs":[],"stateMutability":"payable"},{"type":"function","name":"joinSpaceWithReferral","inputs":[{"name":"receiver","type":"address","internalType":"address"},{"name":"referral","type":"tuple","internalType":"struct IMembershipBase.ReferralTypes","components":[{"name":"partner","type":"address","internalType":"address"},{"name":"userReferral","type":"address","internalType":"address"},{"name":"referralCode","type":"string","internalType":"string"}]}],"outputs":[],"stateMutability":"payable"},{"type":"function","name":"renewMembership","inputs":[{"name":"tokenId","type":"uint256","internalType":"uint256"}],"outputs":[],"stateMutability":"payable"},{"type":"function","name":"revenue","inputs":[],"outputs":[{"name":"","type":"uint256","internalType":"uint256"}],"stateMutability":"view"},{"type":"function","name":"setMembershipFreeAllocation","inputs":[{"name":"newAllocation","type":"uint256","internalType":"uint256"}],"outputs":[],"stateMutability":"nonpayable"},{"type":"function","name":"setMembershipImage","inputs":[{"name":"newImage","type":"string","internalType":"string"}],"outputs":[],"stateMutability":"nonpayable"},{"type":"function","name":"setMembershipLimit","inputs":[{"name":"newLimit","type":"uint256","internalType":"uint256"}],"outputs":[],"stateMutability":"nonpayable"},{"type":"function","name":"setMembershipPrice","inputs":[{"name":"newPrice","type":"uint256","internalType":"uint256"}],"outputs":[],"stateMutability":"nonpayable"},{"type":"function","name":"setMembershipPricingModule","inputs":[{"name":"pricingModule","type":"address","internalType":"address"}],"outputs":[],"stateMutability":"nonpayable"},{"type":"event","name":"Approval","inputs":[{"name":"owner","type":"address","indexed":true,"internalType":"address"},{"name":"approved","type":"address","indexed":true,"internalType":"address"},{"name":"tokenId","type":"uint256","indexed":true,"internalType":"uint256"}],"anonymous":false},{"type":"event","name":"ApprovalForAll","inputs":[{"name":"owner","type":"address","indexed":true,"internalType":"address"},{"name":"operator","type":"address","indexed":true,"internalType":"address"},{"name":"approved","type":"bool","indexed":false,"internalType":"bool"}],"anonymous":false},{"type":"event","name":"Banned","inputs":[{"name":"moderator","type":"address","indexed":true,"internalType":"address"},{"name":"tokenId","type":"uint256","indexed":true,"internalType":"uint256"}],"anonymous":false},{"type":"event","name":"ConsecutiveTransfer","inputs":[{"name":"fromTokenId","type":"uint256","indexed":true,"internalType":"uint256"},{"name":"toTokenId","type":"uint256","indexed":false,"internalType":"uint256"},{"name":"from","type":"address","indexed":true,"internalType":"address"},{"name":"to","type":"address","indexed":true,"internalType":"address"}],"anonymous":false},{"type":"event","name":"DefaultBpsFeeUpdated","inputs":[{"name":"defaultBpsFee","type":"uint256","indexed":false,"internalType":"uint256"}],"anonymous":false},{"type":"event","name":"EntitlementCheckResultPosted","inputs":[{"name":"transactionId","type":"bytes32","indexed":true,"internalType":"bytes32"},{"name":"result","type":"uint8","indexed":false,"internalType":"enum IEntitlementGatedBase.NodeVoteStatus"}],"anonymous":false},{"type":"event","name":"Initialized","inputs":[{"name":"version","type":"uint32","indexed":false,"internalType":"uint32"}],"anonymous":false},{"type":"event","name":"InterfaceAdded","inputs":[{"name":"interfaceId","type":"bytes4","indexed":true,"internalType":"bytes4"}],"anonymous":false},{"type":"event","name":"InterfaceRemoved","inputs":[{"name":"interfaceId","type":"bytes4","indexed":true,"internalType":"bytes4"}],"anonymous":false},{"type":"event","name":"MaxBpsFeeUpdated","inputs":[{"name":"maxBpsFee","type":"uint256","indexed":false,"internalType":"uint256"}],"anonymous":false},{"type":"event","name":"MaxPartnerFeeSet","inputs":[{"name":"fee","type":"uint256","indexed":false,"internalType":"uint256"}],"anonymous":false},{"type":"event","name":"MembershipCurrencyUpdated","inputs":[{"name":"currency","type":"address","indexed":true,"internalType":"address"}],"anonymous":false},{"type":"event","name":"MembershipFeeRecipientUpdated","inputs":[{"name":"recipient","type":"address","indexed":true,"internalType":"address"}],"anonymous":false},{"type":"event","name":"MembershipFreeAllocationUpdated","inputs":[{"name":"allocation","type":"uint256","indexed":true,"internalType":"uint256"}],"anonymous":false},{"type":"event","name":"MembershipLimitUpdated","inputs":[{"name":"limit","type":"uint256","indexed":true,"internalType":"uint256"}],"anonymous":false},{"type":"event","name":"MembershipPriceUpdated","inputs":[{"name":"price","type":"uint256","indexed":true,"internalType":"uint256"}],"anonymous":false},{"type":"event","name":"MembershipTokenIssued","inputs":[{"name":"recipient","type":"address","indexed":true,"internalType":"address"},{"name":"tokenId","type":"uint256","indexed":true,"internalType":"uint256"}],"anonymous":false},{"type":"event","name":"MembershipTokenRejected","inputs":[{"name":"recipient","type":"address","indexed":true,"internalType":"address"}],"anonymous":false},{"type":"event","name":"MembershipWithdrawal","inputs":[{"name":"recipient","type":"address","indexed":true,"internalType":"address"},{"name":"amount","type":"uint256","indexed":false,"internalType":"uint256"}],"anonymous":false},{"type":"event","name":"OwnershipTransferred","inputs":[{"name":"previousOwner","type":"address","indexed":true,"internalType":"address"},{"name":"newOwner","type":"address","indexed":true,"internalType":"address"}],"anonymous":false},{"type":"event","name":"PartnerRegistered","inputs":[{"name":"account","type":"address","indexed":true,"internalType":"address"}],"anonymous":false},{"type":"event","name":"PartnerRemoved","inputs":[{"name":"account","type":"address","indexed":true,"internalType":"address"}],"anonymous":false},{"type":"event","name":"PartnerUpdated","inputs":[{"name":"account","type":"address","indexed":true,"internalType":"address"}],"anonymous":false},{"type":"event","name":"Paused","inputs":[{"name":"account","type":"address","indexed":false,"internalType":"address"}],"anonymous":false},{"type":"event","name":"PermissionsAddedToChannelRole","inputs":[{"name":"updater","type":"address","indexed":true,"internalType":"address"},{"name":"roleId","type":"uint256","indexed":true,"internalType":"uint256"},{"name":"channelId","type":"bytes32","indexed":true,"internalType":"bytes32"}],"anonymous":false},{"type":"event","name":"PermissionsRemovedFromChannelRole","inputs":[{"name":"updater","type":"address","indexed":true,"internalType":"address"},{"name":"roleId","type":"uint256","indexed":true,"internalType":"uint256"},{"name":"channelId","type":"bytes32","indexed":true,"internalType":"bytes32"}],"anonymous":false},{"type":"event","name":"PermissionsUpdatedForChannelRole","inputs":[{"name":"updater","type":"address","indexed":true,"internalType":"address"},{"name":"roleId","type":"uint256","indexed":true,"internalType":"uint256"},{"name":"channelId","type":"bytes32","indexed":true,"internalType":"bytes32"}],"anonymous":false},{"type":"event","name":"Prepay__Prepaid","inputs":[{"name":"supply","type":"uint256","indexed":false,"internalType":"uint256"}],"anonymous":false},{"type":"event","name":"ReferralRegistered","inputs":[{"name":"referralCode","type":"bytes32","indexed":false,"internalType":"bytes32"},{"name":"basisPoints","type":"uint256","indexed":false,"internalType":"uint256"},{"name":"recipient","type":"address","indexed":false,"internalType":"address"}],"anonymous":false},{"type":"event","name":"ReferralRemoved","inputs":[{"name":"referralCode","type":"bytes32","indexed":false,"internalType":"bytes32"}],"anonymous":false},{"type":"event","name":"ReferralUpdated","inputs":[{"name":"referralCode","type":"bytes32","indexed":false,"internalType":"bytes32"},{"name":"basisPoints","type":"uint256","indexed":false,"internalType":"uint256"},{"name":"recipient","type":"address","indexed":false,"internalType":"address"}],"anonymous":false},{"type":"event","name":"RegistryFeeSet","inputs":[{"name":"fee","type":"uint256","indexed":false,"internalType":"uint256"}],"anonymous":false},{"type":"event","name":"RoleCreated","inputs":[{"name":"creator","type":"address","indexed":true,"internalType":"address"},{"name":"roleId","type":"uint256","indexed":true,"internalType":"uint256"}],"anonymous":false},{"type":"event","name":"RoleRemoved","inputs":[{"name":"remover","type":"address","indexed":true,"internalType":"address"},{"name":"roleId","type":"uint256","indexed":true,"internalType":"uint256"}],"anonymous":false},{"type":"event","name":"RoleUpdated","inputs":[{"name":"updater","type":"address","indexed":true,"internalType":"address"},{"name":"roleId","type":"uint256","indexed":true,"internalType":"uint256"}],"anonymous":false},{"type":"event","name":"SubscriptionUpdate","inputs":[{"name":"tokenId","type":"uint256","indexed":true,"internalType":"uint256"},{"name":"expiration","type":"uint64","indexed":false,"internalType":"uint64"}],"anonymous":false},{"type":"event","name":"Transfer","inputs":[{"name":"from","type":"address","indexed":true,"internalType":"address"},{"name":"to","type":"address","indexed":true,"internalType":"address"},{"name":"tokenId","type":"uint256","indexed":true,"internalType":"uint256"}],"anonymous":false},{"type":"event","name":"Unbanned","inputs":[{"name":"moderator","type":"address","indexed":true,"internalType":"address"},{"name":"tokenId","type":"uint256","indexed":true,"internalType":"uint256"}],"anonymous":false},{"type":"event","name":"Unpaused","inputs":[{"name":"account","type":"address","indexed":false,"internalType":"address"}],"anonymous":false},{"type":"error","name":"ApprovalCallerNotOwnerNorApproved","inputs":[]},{"type":"error","name":"ApprovalQueryForNonexistentToken","inputs":[]},{"type":"error","name":"BalanceQueryForZeroAddress","inputs":[]},{"type":"error","name":"Banning__AlreadyBanned","inputs":[{"name":"tokenId","type":"uint256","internalType":"uint256"}]},{"type":"error","name":"Banning__CannotBanOwner","inputs":[]},{"type":"error","name":"Banning__CannotBanSelf","inputs":[]},{"type":"error","name":"Banning__InvalidTokenId","inputs":[{"name":"tokenId","type":"uint256","internalType":"uint256"}]},{"type":"error","name":"Banning__NotBanned","inputs":[{"name":"tokenId","type":"uint256","internalType":"uint256"}]},{"type":"error","name":"Dispatcher__TransactionAlreadyExists","inputs":[]},{"type":"error","name":"ERC5643__DurationZero","inputs":[]},{"type":"error","name":"ERC5643__InvalidTokenId","inputs":[{"name":"tokenId","type":"uint256","internalType":"uint256"}]},{"type":"error","name":"ERC5643__NotApprovedOrOwner","inputs":[]},{"type":"error","name":"ERC5643__SubscriptionNotRenewable","inputs":[{"name":"tokenId","type":"uint256","internalType":"uint256"}]},{"type":"error","name":"EntitlementGated_InvalidAddress","inputs":[]},{"type":"error","name":"EntitlementGated_InvalidEntitlement","inputs":[]},{"type":"error","name":"EntitlementGated_NodeAlreadyVoted","inputs":[]},{"type":"error","name":"EntitlementGated_NodeNotFound","inputs":[]},{"type":"error","name":"EntitlementGated_OnlyEntitlementChecker","inputs":[]},{"type":"error","name":"EntitlementGated_RequestIdNotFound","inputs":[]},{"type":"error","name":"EntitlementGated_TransactionCheckAlreadyCompleted","inputs":[]},{"type":"error","name":"EntitlementGated_TransactionCheckAlreadyRegistered","inputs":[]},{"type":"error","name":"EntitlementGated_TransactionNotRegistered","inputs":[]},{"type":"error","name":"Entitlement__InvalidValue","inputs":[]},{"type":"error","name":"Entitlement__NotAllowed","inputs":[]},{"type":"error","name":"Entitlement__NotMember","inputs":[]},{"type":"error","name":"Entitlement__ValueAlreadyExists","inputs":[]},{"type":"error","name":"Initializable_InInitializingState","inputs":[]},{"type":"error","name":"Introspection_AlreadySupported","inputs":[]},{"type":"error","name":"Introspection_NotSupported","inputs":[]},{"type":"error","name":"Membership__AlreadyMember","inputs":[]},{"type":"error","name":"Membership__Banned","inputs":[]},{"type":"error","name":"Membership__InsufficientAllowance","inputs":[]},{"type":"error","name":"Membership__InsufficientPayment","inputs":[]},{"type":"error","name":"Membership__InvalidAddress","inputs":[]},{"type":"error","name":"Membership__InvalidCurrency","inputs":[]},{"type":"error","name":"Membership__InvalidDuration","inputs":[]},{"type":"error","name":"Membership__InvalidFeeRecipient","inputs":[]},{"type":"error","name":"Membership__InvalidFreeAllocation","inputs":[]},{"type":"error","name":"Membership__InvalidLimit","inputs":[]},{"type":"error","name":"Membership__InvalidMaxSupply","inputs":[]},{"type":"error","name":"Membership__InvalidPayment","inputs":[]},{"type":"error","name":"Membership__InvalidPrice","inputs":[]},{"type":"error","name":"Membership__InvalidPricingModule","inputs":[]},{"type":"error","name":"Membership__InvalidTokenId","inputs":[]},{"type":"error","name":"Membership__InvalidTransactionType","inputs":[]},{"type":"error","name":"Membership__MaxSupplyReached","inputs":[]},{"type":"error","name":"Membership__NotExpired","inputs":[]},{"type":"error","name":"Membership__PriceTooLow","inputs":[]},{"type":"error","name":"MintERC2309QuantityExceedsLimit","inputs":[]},{"type":"error","name":"MintToZeroAddress","inputs":[]},{"type":"error","name":"MintZeroQuantity","inputs":[]},{"type":"error","name":"Ownable__NotOwner","inputs":[{"name":"account","type":"address","internalType":"address"}]},{"type":"error","name":"Ownable__ZeroAddress","inputs":[]},{"type":"error","name":"OwnerQueryForNonexistentToken","inputs":[]},{"type":"error","name":"OwnershipNotInitializedForExtraData","inputs":[]},{"type":"error","name":"PartnerRegistry__InvalidPartnerFee","inputs":[{"name":"fee","type":"uint256","internalType":"uint256"}]},{"type":"error","name":"PartnerRegistry__InvalidRecipient","inputs":[]},{"type":"error","name":"PartnerRegistry__NotPartnerAccount","inputs":[{"name":"account","type":"address","internalType":"address"}]},{"type":"error","name":"PartnerRegistry__PartnerAlreadyRegistered","inputs":[{"name":"account","type":"address","internalType":"address"}]},{"type":"error","name":"PartnerRegistry__PartnerNotActive","inputs":[{"name":"account","type":"address","internalType":"address"}]},{"type":"error","name":"PartnerRegistry__PartnerNotRegistered","inputs":[{"name":"account","type":"address","internalType":"address"}]},{"type":"error","name":"PartnerRegistry__RegistryFeeNotPaid","inputs":[{"name":"fee","type":"uint256","internalType":"uint256"}]},{"type":"error","name":"Pausable__NotPaused","inputs":[]},{"type":"error","name":"Pausable__Paused","inputs":[]},{"type":"error","name":"Prepay__InvalidAddress","inputs":[]},{"type":"error","name":"Prepay__InvalidAmount","inputs":[]},{"type":"error","name":"Prepay__InvalidMembership","inputs":[]},{"type":"error","name":"Prepay__InvalidSupplyAmount","inputs":[]},{"type":"error","name":"Reentrancy","inputs":[]},{"type":"error","name":"Referrals__InvalidBasisPoints","inputs":[]},{"type":"error","name":"Referrals__InvalidBpsFee","inputs":[]},{"type":"error","name":"Referrals__InvalidRecipient","inputs":[]},{"type":"error","name":"Referrals__InvalidReferralCode","inputs":[]},{"type":"error","name":"Referrals__ReferralAlreadyExists","inputs":[]},{"type":"error","name":"Roles__EntitlementAlreadyExists","inputs":[]},{"type":"error","name":"Roles__EntitlementDoesNotExist","inputs":[]},{"type":"error","name":"Roles__InvalidEntitlementAddress","inputs":[]},{"type":"error","name":"Roles__InvalidPermission","inputs":[]},{"type":"error","name":"Roles__PermissionAlreadyExists","inputs":[]},{"type":"error","name":"Roles__PermissionDoesNotExist","inputs":[]},{"type":"error","name":"Roles__RoleDoesNotExist","inputs":[]},{"type":"error","name":"TransferCallerNotOwnerNorApproved","inputs":[]},{"type":"error","name":"TransferFromIncorrectOwner","inputs":[]},{"type":"error","name":"TransferToNonERC721ReceiverImplementer","inputs":[]},{"type":"error","name":"TransferToZeroAddress","inputs":[]},{"type":"error","name":"URIQueryForNonexistentToken","inputs":[]}],"bytecode":{"object":"0x6080604052348015600e575f5ffd5b5060156019565b60bd565b7f59b501c3653afc186af7d48dda36cf6732bd21629a6295693664240a6ef520008054640100000000900460ff16156064576040516366008a2d60e01b815260040160405180910390fd5b805463ffffffff908116101560ba57805463ffffffff191663ffffffff90811782556040519081527fe9c9b456cb2994b80aeef036cf59d26e9617df80f816a6ee5a5b4166e07e2f5c9060200160405180910390a15b50565b614e58806100ca5f395ff3fe608060405260043610610157575f3560e01c806379dda585116100bb57806395d600c811610071578063a5a4103111610057578063a5a4103114610381578063df9a9fe614610395578063e847abdd146103b4575f5ffd5b806395d600c81461034e57806397fb7c1e14610362575f5ffd5b80638120f0ba116100a15780638120f0ba146102ed5780638c625b061461031a57806393b13cb71461032d575f5ffd5b806379dda585146102c65780637c9669ac146102da575f5ffd5b80635becd24a11610110578063686f7684116100f6578063686f76841461028057806369d5f38a14610293578063706b8e09146102b2575f5ffd5b80635becd24a14610228578063657e45e814610247575f5ffd5b806317c957091161014057806317c95709146101a35780633e9491a2146101f75780635803909f14610209575f5ffd5b80630ef1be5f1461015b5780631278076a1461017c575b5f5ffd5b348015610166575f5ffd5b5061017a6101753660046142aa565b6103c8565b005b348015610187575f5ffd5b5061019061047d565b6040519081526020015b60405180910390f35b3480156101ae575f5ffd5b506101906101bd366004614318565b5f9081527f4775a23600034fdd9f073b224f794d51a58b35ba663a9602623ba7a5c09cce00602052604090205467ffffffffffffffff1690565b348015610202575f5ffd5b5047610190565b348015610214575f5ffd5b50610190610223366004614318565b6104d6565b348015610233575f5ffd5b5061017a610242366004614318565b610531565b348015610252575f5ffd5b5061025b610618565b60405173ffffffffffffffffffffffffffffffffffffffff909116815260200161019a565b61017a61028e36600461443a565b610657565b34801561029e575f5ffd5b5061017a6102ad366004614318565b61069b565b3480156102bd575f5ffd5b506101906107b3565b3480156102d1575f5ffd5b5061025b6107bc565b61017a6102e8366004614318565b6107fb565b3480156102f8575f5ffd5b5061030161083e565b60405167ffffffffffffffff909116815260200161019a565b61017a610328366004614524565b610847565b348015610338575f5ffd5b5061034161087a565b60405161019a919061458b565b348015610359575f5ffd5b50610190610884565b34801561036d575f5ffd5b5061017a61037c366004614318565b6108ad565b34801561038c575f5ffd5b5061019061099a565b3480156103a0575f5ffd5b5061017a6103af366004614524565b6109f1565b3480156103bf575f5ffd5b5061025b610aca565b6103d0610b09565b73ffffffffffffffffffffffffffffffffffffffff163373ffffffffffffffffffffffffffffffffffffffff161461043b576040517f65f490650000000000000000000000000000000000000000000000000000000081523360048201526024015b60405180910390fd5b61047982828080601f0160208091040260200160405190810160405280939291908181526020018383808284375f92019190915250610bc992505050565b5050565b5f6104d16104cc7f6569bde4a160c636ea8b8d11acb83a60d7fec0b8f2e09389306cba0e1340df01547f6569bde4a160c636ea8b8d11acb83a60d7fec0b8f2e09389306cba0e1340df00540390565b610bf4565b905090565b5f61052b826105267f6569bde4a160c636ea8b8d11acb83a60d7fec0b8f2e09389306cba0e1340df01547f6569bde4a160c636ea8b8d11acb83a60d7fec0b8f2e09389306cba0e1340df00540390565b610dd7565b92915050565b610539610b09565b73ffffffffffffffffffffffffffffffffffffffff163373ffffffffffffffffffffffffffffffffffffffff161461059f576040517f65f49065000000000000000000000000000000000000000000000000000000008152336004820152602401610432565b5f6105c87fc21004fcc619240a31f006438274d15cd813308303284436eef6055f0fdcb6035490565b905080158015906105d857508082115b15610606576106067fc3983b9100000000000000000000000000000000000000000000000000000000610e53565b61060f82610e5b565b61047982610eff565b5f6104d17fc21004fcc619240a31f006438274d15cd813308303284436eef6055f0fdcb6045473ffffffffffffffffffffffffffffffffffffffff1690565b3068929eee149b4bd2126854036106755763ab143c065f526004601cfd5b3068929eee149b4bd212685561068b8282610fbd565b3868929eee149b4bd21268555050565b6106a3610b09565b73ffffffffffffffffffffffffffffffffffffffff163373ffffffffffffffffffffffffffffffffffffffff1614610709576040517f65f49065000000000000000000000000000000000000000000000000000000008152336004820152602401610432565b610712816110bb565b7fc21004fcc619240a31f006438274d15cd813308303284436eef6055f0fdcb608546040517f91b7f5ed0000000000000000000000000000000000000000000000000000000081526004810183905273ffffffffffffffffffffffffffffffffffffffff909116906391b7f5ed906024015f604051808303815f87803b15801561079a575f5ffd5b505af11580156107ac573d5f5f3e3d5ffd5b5050505050565b5f6104d1611163565b5f6104d17fc21004fcc619240a31f006438274d15cd813308303284436eef6055f0fdcb6065473ffffffffffffffffffffffffffffffffffffffff1690565b3068929eee149b4bd2126854036108195763ab143c065f526004601cfd5b3068929eee149b4bd212685561082f338261122e565b3868929eee149b4bd212685550565b5f6104d16113a8565b3068929eee149b4bd2126854036108655763ab143c065f526004601cfd5b3068929eee149b4bd212685561082f8161141d565b60606104d16114c0565b5f6104d17fc21004fcc619240a31f006438274d15cd813308303284436eef6055f0fdcb6035490565b6108b5610b09565b73ffffffffffffffffffffffffffffffffffffffff163373ffffffffffffffffffffffffffffffffffffffff161461091b576040517f65f49065000000000000000000000000000000000000000000000000000000008152336004820152602401610432565b61096f8161096a7f6569bde4a160c636ea8b8d11acb83a60d7fec0b8f2e09389306cba0e1340df01547f6569bde4a160c636ea8b8d11acb83a60d7fec0b8f2e09389306cba0e1340df00540390565b611572565b610997817fc21004fcc619240a31f006438274d15cd813308303284436eef6055f0fdcb60355565b50565b5f6104d16109ec6104cc7f6569bde4a160c636ea8b8d11acb83a60d7fec0b8f2e09389306cba0e1340df01547f6569bde4a160c636ea8b8d11acb83a60d7fec0b8f2e09389306cba0e1340df00540390565b6115a3565b6109f9610b09565b73ffffffffffffffffffffffffffffffffffffffff163373ffffffffffffffffffffffffffffffffffffffff1614610a5f576040517f65f49065000000000000000000000000000000000000000000000000000000008152336004820152602401610432565b610a6881611716565b7fc21004fcc619240a31f006438274d15cd813308303284436eef6055f0fdcb60880547fffffffffffffffffffffffff00000000000000000000000000000000000000001673ffffffffffffffffffffffffffffffffffffffff831617905550565b5f6104d17fc21004fcc619240a31f006438274d15cd813308303284436eef6055f0fdcb6085473ffffffffffffffffffffffffffffffffffffffff1690565b5f807fd2f24d4f172e4e84e48e7c4125b6e904c29e5eba33ad4938fee51dd5dbd4b600805460018201546040517f6352211e000000000000000000000000000000000000000000000000000000008152600481019190915291925073ffffffffffffffffffffffffffffffffffffffff1690636352211e90602401602060405180830381865afa158015610b9f573d5f5f3e3d5ffd5b505050506040513d601f19601f82011682018060405250810190610bc3919061459d565b91505090565b7fc21004fcc619240a31f006438274d15cd813308303284436eef6055f0fdcb60c6104798282614647565b5f5f610bfe611163565b9050610c3e7fc21004fcc619240a31f006438274d15cd813308303284436eef6055f0fdcb6085473ffffffffffffffffffffffffffffffffffffffff1690565b6040517f5cf4ee91000000000000000000000000000000000000000000000000000000008152600481018390526024810185905273ffffffffffffffffffffffffffffffffffffffff9190911690635cf4ee9190604401602060405180830381865afa158015610cb0573d5f5f3e3d5ffd5b505050506040513d601f19601f82011682018060405250810190610cd4919061475e565b91505f610cdf6107bc565b90505f8173ffffffffffffffffffffffffffffffffffffffff16631b159e2e6040518163ffffffff1660e01b8152600401602060405180830381865afa158015610d2b573d5f5f3e3d5ffd5b505050506040513d601f19601f82011682018060405250810190610d4f919061475e565b905080841015610dcf578173ffffffffffffffffffffffffffffffffffffffff16630eac306d6040518163ffffffff1660e01b8152600401602060405180830381865afa158015610da2573d5f5f3e3d5ffd5b505050506040513d601f19601f82011682018060405250810190610dc6919061475e565b95945050505050565b505050919050565b5f8281527fc21004fcc619240a31f006438274d15cd813308303284436eef6055f0fdcb60960205260408120547fc21004fcc619240a31f006438274d15cd813308303284436eef6055f0fdcb600908015610e4a575f610e36826115a3565b82811890831102909118925061052b915050565b610dc684610bf4565b805f5260045ffd5b610e636107bc565b73ffffffffffffffffffffffffffffffffffffffff16632cbb9d136040518163ffffffff1660e01b8152600401602060405180830381865afa158015610eab573d5f5f3e3d5ffd5b505050506040513d601f19601f82011682018060405250810190610ecf919061475e565b811115610997576109977fc3983b9100000000000000000000000000000000000000000000000000000000610e53565b7fc21004fcc619240a31f006438274d15cd813308303284436eef6055f0fdcb6078190557fc21004fcc619240a31f006438274d15cd813308303284436eef6055f0fdcb60d80547fffffffffffffffffffffffffffffffffffffffffffffffffffffffffffffff001660011790556040517fc21004fcc619240a31f006438274d15cd813308303284436eef6055f0fdcb6009082907fab14a23e88fb272313490d4f20d63098e64fd38304c0e07a377db98c2b39b92f905f90a25050565b610fc68261184f565b5f610fcf611945565b90508015610fdf57610fdf6119de565b610fe98383611a6c565b5f82604051602001610ffb9190614775565b604080517fffffffffffffffffffffffffffffffffffffffffffffffffffffffffffffffe081840301815291905290507f686f7684000000000000000000000000000000000000000000000000000000005f6110628661105d84338388611b11565b611b43565b90505f5f611071883385611c7e565b91509150806110b15781156110a757851561108f5761108f83611ed3565b6110998389612057565b6110a2886120e2565b6110b1565b6110b183896121d1565b5050505050505050565b5f6110c46107bc565b73ffffffffffffffffffffffffffffffffffffffff16630eac306d6040518163ffffffff1660e01b8152600401602060405180830381865afa15801561110c573d5f5f3e3d5ffd5b505050506040513d601f19601f82011682018060405250810190611130919061475e565b905080821015610479576104797f3447ac8e00000000000000000000000000000000000000000000000000000000610e53565b7fc21004fcc619240a31f006438274d15cd813308303284436eef6055f0fdcb60d545f907fc21004fcc619240a31f006438274d15cd813308303284436eef6055f0fdcb6009060ff16156111ba5760070154919050565b6111c26107bc565b73ffffffffffffffffffffffffffffffffffffffff16632cbb9d136040518163ffffffff1660e01b8152600401602060405180830381865afa15801561120a573d5f5f3e3d5ffd5b505050506040513d601f19601f82011682018060405250810190610bc3919061475e565b5f61123882612237565b905073ffffffffffffffffffffffffffffffffffffffff811661127e5761127e7f5fbd571700000000000000000000000000000000000000000000000000000000610e53565b5f6112876113a8565b67ffffffffffffffff1690505f6112e3846105267f6569bde4a160c636ea8b8d11acb83a60d7fec0b8f2e09389306cba0e1340df01547f6569bde4a160c636ea8b8d11acb83a60d7fec0b8f2e09389306cba0e1340df00540390565b905034811115611316576113167f34a7a93d00000000000000000000000000000000000000000000000000000000610e53565b5f6113218683612241565b90505f61132e82846147fc565b90508015611342576113408782612309565b505b5f61134d84346147fc565b9050801561139e5761139e6113967fc21004fcc619240a31f006438274d15cd813308303284436eef6055f0fdcb6045473ffffffffffffffffffffffffffffffffffffffff1690565b308a8461247f565b6110b187866124e3565b5f6113b16107bc565b73ffffffffffffffffffffffffffffffffffffffff16638120f0ba6040518163ffffffff1660e01b8152600401602060405180830381865afa1580156113f9573d5f5f3e3d5ffd5b505050506040513d601f19601f820116820180604052508101906104d1919061480f565b6114268161184f565b5f61142f611945565b9050801561143f5761143f6119de565b5f638c625b0660e01b90505f6114698461105d84338860405180602001604052805f815250611b11565b90505f5f611478863385611c7e565b91509150806114b85781156114ae57841561149657611496836125c3565b6114a08387612057565b6114a9866120e2565b6114b8565b6114b883876121d1565b505050505050565b60607fc21004fcc619240a31f006438274d15cd813308303284436eef6055f0fdcb600600c0180546114f1906145b8565b80601f016020809104026020016040519081016040528092919081815260200182805461151d906145b8565b80156115685780601f1061153f57610100808354040283529160200191611568565b820191905f5260205f20905b81548152906001019060200180831161154b57829003601f168201915b5050505050905090565b80821015610479576104797fccc9aa2e00000000000000000000000000000000000000000000000000000000610e53565b5f5f6115ad6107bc565b90505f8173ffffffffffffffffffffffffffffffffffffffff16631b159e2e6040518163ffffffff1660e01b8152600401602060405180830381865afa1580156115f9573d5f5f3e3d5ffd5b505050506040513d601f19601f8201168201806040525081019061161d919061475e565b90508084101561169c578173ffffffffffffffffffffffffffffffffffffffff16630eac306d6040518163ffffffff1660e01b8152600401602060405180830381865afa158015611670573d5f5f3e3d5ffd5b505050506040513d601f19601f82011682018060405250810190611694919061475e565b949350505050565b611694848373ffffffffffffffffffffffffffffffffffffffff16639f6542aa6040518163ffffffff1660e01b8152600401602060405180830381865afa1580156116e9573d5f5f3e3d5ffd5b505050506040513d601f19601f8201168201806040525081019061170d9190614836565b61ffff166126e1565b73ffffffffffffffffffffffffffffffffffffffff811661175a5761175a7f0e88bf4b00000000000000000000000000000000000000000000000000000000610e53565b7fc21004fcc619240a31f006438274d15cd813308303284436eef6055f0fdcb6065473ffffffffffffffffffffffffffffffffffffffff166040517f8df80bd600000000000000000000000000000000000000000000000000000000815273ffffffffffffffffffffffffffffffffffffffff83811660048301529190911690638df80bd690602401602060405180830381865afa1580156117fe573d5f5f3e3d5ffd5b505050506040513d601f19601f82011682018060405250810190611822919061486b565b610997576109977f0e88bf4b00000000000000000000000000000000000000000000000000000000610e53565b73ffffffffffffffffffffffffffffffffffffffff8116611893576118937f5fbd571700000000000000000000000000000000000000000000000000000000610e53565b5f6118bc7fc21004fcc619240a31f006438274d15cd813308303284436eef6055f0fdcb6035490565b905080158015906119175750806119147f6569bde4a160c636ea8b8d11acb83a60d7fec0b8f2e09389306cba0e1340df01547f6569bde4a160c636ea8b8d11acb83a60d7fec0b8f2e09389306cba0e1340df00540390565b10155b15610479576104797f7efcdb4900000000000000000000000000000000000000000000000000000000610e53565b5f5f6119927f6569bde4a160c636ea8b8d11acb83a60d7fec0b8f2e09389306cba0e1340df01547f6569bde4a160c636ea8b8d11acb83a60d7fec0b8f2e09389306cba0e1340df00540390565b90505f61199d611163565b90505f6119a8612792565b9050828211156119bb575f935050505090565b80156119d4576119cb60016127bb565b5f935050505090565b6001935050505090565b5f611a2d6104cc7f6569bde4a160c636ea8b8d11acb83a60d7fec0b8f2e09389306cba0e1340df01547f6569bde4a160c636ea8b8d11acb83a60d7fec0b8f2e09389306cba0e1340df00540390565b90505f611a39826127f8565b905080341015610479576104797fb1296a8a00000000000000000000000000000000000000000000000000000000610e53565b602081015173ffffffffffffffffffffffffffffffffffffffff1615610479578173ffffffffffffffffffffffffffffffffffffffff16816020015173ffffffffffffffffffffffffffffffffffffffff161480611ae35750602081015173ffffffffffffffffffffffffffffffffffffffff1633145b15610479576104797f5fbd571700000000000000000000000000000000000000000000000000000000610e53565b606084848484604051602001611b2a9493929190614884565b6040516020818303038152906040529050949350505050565b6040517fffffffffffffffffffffffffffffffffffffffff000000000000000000000000606084901b1660208201524360348201525f908190605401604051602081830303815290604052805190602001209050611c2281611bf68387611ba986612828565b6040805160208082019590955273ffffffffffffffffffffffffffffffffffffffff9390931683820152606080840192909252805180840390920182526080909201909152805191012090565b604080516020808201949094528082019290925280518083038201815260609092019052805191012090565b91505f611c2e8361286e565b511115611c5e57611c5e7ff82e65c300000000000000000000000000000000000000000000000000000000610e53565b611c68828461294e565b3415611c7757611c77826129a6565b5092915050565b5f5f5f611cbf6040518060400160405280600981526020017f4a6f696e53706163650000000000000000000000000000000000000000000000815250612a04565b90505f611ccb87612ba1565b82519091505f5b81811015611ec6575f848281518110611ced57611ced614900565b60200260200101519050806040015115611d075750611ebe565b5f5b816080015151811015611ebb575f82608001518281518110611d2d57611d2d614900565b602002602001015190508073ffffffffffffffffffffffffffffffffffffffff16630cf0b5335f5f1b886040518060400160405280600981526020017f4a6f696e53706163650000000000000000000000000000000000000000000000815250604051602001611d9d919061492d565b604051602081830303815290604052611db590614943565b6040518463ffffffff1660e01b8152600401611dd393929190614985565b602060405180830381865afa158015611dee573d5f5f3e3d5ffd5b505050506040513d601f19601f82011682018060405250810190611e12919061486b565b15611e2b5750600197505f9650611ecb95505050505050565b8073ffffffffffffffffffffffffffffffffffffffff16632e1b61e46040518163ffffffff1660e01b8152600401602060405180830381865afa158015611e74573d5f5f3e3d5ffd5b505050506040513d601f19601f82011682018060405250810190611e98919061486b565b15611eb257611ead8c8c8c84875f0151612ee5565b600197505b50600101611d09565b50505b600101611cd2565b505050505b935093915050565b5f611f226104cc7f6569bde4a160c636ea8b8d11acb83a60d7fec0b8f2e09389306cba0e1340df01547f6569bde4a160c636ea8b8d11acb83a60d7fec0b8f2e09389306cba0e1340df00540390565b90505f611f2e826127f8565b90505f5f5f5f611f3d8761286e565b806020019051810190611f509190614a55565b929650909450925090507fffffffff0000000000000000000000000000000000000000000000000000000084167f686f76840000000000000000000000000000000000000000000000000000000014611fcc57611fcc7fda6153bd00000000000000000000000000000000000000000000000000000000610e53565b5f81806020019051810190611fe19190614ad9565b90505f5f611fef868a612241565b90505f61200087855f01518c613101565b90505f61201788866020015187604001518e61326e565b90508082612025858d6147fc565b61202f91906147fc565b61203991906147fc565b935050505061204c8986868a858d6133f0565b505050505050505050565b5f8281527f34516f6fe09a043d57f1ff579a303a7ae85314751c77b4eb1a55837604a86e01602052604090205480156120dd5761209483826136e4565b6120dd6120d57fc21004fcc619240a31f006438274d15cd813308303284436eef6055f0fdcb6045473ffffffffffffffffffffffffffffffffffffffff1690565b30848461247f565b505050565b5f6120eb61374c565b905061216f8161213f6104cc7f6569bde4a160c636ea8b8d11acb83a60d7fec0b8f2e09389306cba0e1340df01547f6569bde4a160c636ea8b8d11acb83a60d7fec0b8f2e09389306cba0e1340df00540390565b5f9182527fc21004fcc619240a31f006438274d15cd813308303284436eef6055f0fdcb609602052604090912055565b61217a826001613773565b61218b816121866113a8565b6124e3565b604051819073ffffffffffffffffffffffffffffffffffffffff8416907f2f40b0474996b72a4251e00fb9170cdd960deea1dc749772cbbab61395b9b576905f90a35050565b6121e98260405180602001604052805f81525061294e565b6121f38282612057565b60405173ffffffffffffffffffffffffffffffffffffffff8216907f86fd446d5c04e892d58b448a924dcd9c3ece3a5e0d2960b8c35cd475a5595a1f905f90a25050565b5f61052b8261378c565b5f61224b826115a3565b905061052b61228e7fc21004fcc619240a31f006438274d15cd813308303284436eef6055f0fdcb6045473ffffffffffffffffffffffffffffffffffffffff1690565b846122976107bc565b73ffffffffffffffffffffffffffffffffffffffff16634ccb20c06040518163ffffffff1660e01b8152600401602060405180830381865afa1580156122df573d5f5f3e3d5ffd5b505050506040513d601f19601f82011682018060405250810190612303919061459d565b8461247f565b5f7fc21004fcc619240a31f006438274d15cd813308303284436eef6055f0fdcb6008161236a7fc21004fcc619240a31f006438274d15cd813308303284436eef6055f0fdcb6045473ffffffffffffffffffffffffffffffffffffffff1690565b90507fffffffffffffffffffffffff111111111111111111111111111111111111111273ffffffffffffffffffffffffffffffffffffffff8216016123cc578382600a015f8282546123bc9190614b81565b9091555084935061052b92505050565b5f6123ed73ffffffffffffffffffffffffffffffffffffffff8316306138bd565b90506123fb8287308861247f565b5f61241c73ffffffffffffffffffffffffffffffffffffffff8416306138bd565b90505f61242983836147fc565b905086811461245b5761245b7fb1296a8a00000000000000000000000000000000000000000000000000000000610e53565b8085600a015f82825461246e9190614b81565b909155509098975050505050505050565b80156124dd577fffffffffffffffffffffffff111111111111111111111111111111111111111273ffffffffffffffffffffffffffffffffffffffff8516016124d1576124cc82826138f0565b6124dd565b6124dd84848484613910565b50505050565b5f8281527f4775a23600034fdd9f073b224f794d51a58b35ba663a9602623ba7a5c09cce0060208190526040822054909167ffffffffffffffff90911690818103612539576125328442614b94565b9050612546565b6125438483614b94565b90505b5f858152602084815260409182902080547fffffffffffffffffffffffffffffffffffffffffffffffff00000000000000001667ffffffffffffffff8516908117909155915191825286917f2ec2be2c4b90c2cf13ecb6751a24daed6bb741ae5ed3f7371aabf9402f6d62e8910160405180910390a25050505050565b5f6126126104cc7f6569bde4a160c636ea8b8d11acb83a60d7fec0b8f2e09389306cba0e1340df01547f6569bde4a160c636ea8b8d11acb83a60d7fec0b8f2e09389306cba0e1340df00540390565b90505f61261e826127f8565b90505f5f5f61262c8661286e565b80602001905181019061263f9190614a55565b50919450925090507fffffffff0000000000000000000000000000000000000000000000000000000083167f8c625b0600000000000000000000000000000000000000000000000000000000146126b9576126b97fda6153bd00000000000000000000000000000000000000000000000000000000610e53565b5f6126c48387612241565b90505f6126d182876147fc565b90506110b188858589858c6133f0565b5f612710821115612774576040517f08c379a000000000000000000000000000000000000000000000000000000000815260206004820152602160248201527f426173697320706f696e74732063616e6e6f74206578636565642031305f303060448201527f30000000000000000000000000000000000000000000000000000000000000006064820152608401610432565b6127106127818385614bb4565b61278b9190614bcb565b9392505050565b5f7f097b4f25b64e012d0cf55f67e9b34fe5d57f15b11b95baa4ddd136b424967c005b54919050565b7f097b4f25b64e012d0cf55f67e9b34fe5d57f15b11b95baa4ddd136b424967c008054829082905f906127ef9084906147fc565b90915550505050565b5f5f612802612792565b9050801561281257505f92915050565b825f0361282157505f92915050565b5090919050565b5f8181527f34516f6fe09a043d57f1ff579a303a7ae85314751c77b4eb1a55837604a86e006020819052604082208054908361286383614c03565b909155509392505050565b5f8181527f34516f6fe09a043d57f1ff579a303a7ae85314751c77b4eb1a55837604a86e026020526040902080546060917f34516f6fe09a043d57f1ff579a303a7ae85314751c77b4eb1a55837604a86e00916128ca906145b8565b80601f01602080910402602001604051908101604052809291908181526020018280546128f6906145b8565b80156129415780601f1061291857610100808354040283529160200191612941565b820191905f5260205f20905b81548152906001019060200180831161292457829003601f168201915b5050505050915050919050565b5f8281527f34516f6fe09a043d57f1ff579a303a7ae85314751c77b4eb1a55837604a86e02602052604090207f34516f6fe09a043d57f1ff579a303a7ae85314751c77b4eb1a55837604a86e00906124dd8382614647565b5f8181527f34516f6fe09a043d57f1ff579a303a7ae85314751c77b4eb1a55837604a86e016020526040812080547f34516f6fe09a043d57f1ff579a303a7ae85314751c77b4eb1a55837604a86e00923492916127ef908490614b81565b60605f612a0f6139a4565b80519091505f8167ffffffffffffffff811115612a2e57612a2e614350565b604051908082528060200260200182016040528015612a9157816020015b612a7e6040518060a001604052805f8152602001606081526020015f1515815260200160608152602001606081525090565b815260200190600190039081612a4c5790505b50855160208701209091505f90815b84811015612b95575f5f5f5f612ace8a8681518110612ac157612ac1614900565b60200260200101516139cf565b929650909450925090505f5b8251811015612b845786838281518110612af657612af6614900565b60200260200101518051906020012003612b7c576040518060a001604052808c8881518110612b2757612b27614900565b60200260200101518152602001868152602001851515815260200184815260200183815250898981518110612b5e57612b5e614900565b60200260200101819052508780612b7490614c03565b985050612b84565b600101612ada565b505060019093019250612aa0915050565b50508152949350505050565b60605f7fc21004fcc619240a31f006438274d15cd813308303284436eef6055f0fdcb600600601546040517f02345b9800000000000000000000000000000000000000000000000000000000815273ffffffffffffffffffffffffffffffffffffffff858116600483015290911691505f9082906302345b98906024015f60405180830381865afa158015612c38573d5f5f3e3d5ffd5b505050506040513d5f823e601f3d9081017fffffffffffffffffffffffffffffffffffffffffffffffffffffffffffffffe0168201604052612c7d9190810190614c3a565b905080515f03612dee576040517ff821039800000000000000000000000000000000000000000000000000000000815273ffffffffffffffffffffffffffffffffffffffff85811660048301525f919084169063f821039890602401602060405180830381865afa158015612cf4573d5f5f3e3d5ffd5b505050506040513d601f19601f82011682018060405250810190612d18919061459d565b905073ffffffffffffffffffffffffffffffffffffffff811615612dec576040517f02345b9800000000000000000000000000000000000000000000000000000000815273ffffffffffffffffffffffffffffffffffffffff808316600483015291955085918416906302345b98906024015f60405180830381865afa158015612da4573d5f5f3e3d5ffd5b505050506040513d5f823e601f3d9081017fffffffffffffffffffffffffffffffffffffffffffffffffffffffffffffffe0168201604052612de99190810190614c3a565b91505b505b80515f612dfc826001614b81565b67ffffffffffffffff811115612e1457612e14614350565b604051908082528060200260200182016040528015612e3d578160200160208202803683370190505b5090505f5b82811015612ea357838181518110612e5c57612e5c614900565b6020026020010151828281518110612e7657612e76614900565b73ffffffffffffffffffffffffffffffffffffffff90921660209283029190910190910152600101612e42565b5085818381518110612eb757612eb7614900565b73ffffffffffffffffffffffffffffffffffffffff9092166020928302919091019091015295945050505050565b73ffffffffffffffffffffffffffffffffffffffff8516612f2957612f297f99ef038800000000000000000000000000000000000000000000000000000000610e53565b73ffffffffffffffffffffffffffffffffffffffff8216612f6d57612f6d7f4bb7c20500000000000000000000000000000000000000000000000000000000610e53565b5f8381527f9075c515a635ba70c9696f31149324218d75cf00afe836c482e6473f38b19e016020908152604080832080547fffffffffffffffffffffffffffffffffffffffffffffffffffffffffffffff001660011781556003810180547fffffffffffffffffffffffff00000000000000000000000000000000000000001673ffffffffffffffffffffffffffffffffffffffff888116919091179091558251908916938101939093527f9075c515a635ba70c9696f31149324218d75cf00afe836c482e6473f38b19e00939092909101604080517fffffffffffffffffffffffffffffffffffffffffffffffffffffffffffffffe08184030181529082905284547f21be050a00000000000000000000000000000000000000000000000000000000835290925073ffffffffffffffffffffffffffffffffffffffff16906321be050a9034906130c9908c908b908a908890600401614cee565b5f604051808303818588803b1580156130e0575f5ffd5b505af11580156130f2573d5f5f3e3d5ffd5b50505050505050505050505050565b5f73ffffffffffffffffffffffffffffffffffffffff831661312457505f61278b565b5f6131637fc21004fcc619240a31f006438274d15cd813308303284436eef6055f0fdcb6065473ffffffffffffffffffffffffffffffffffffffff1690565b6040517f5cb4f54800000000000000000000000000000000000000000000000000000000815273ffffffffffffffffffffffffffffffffffffffff86811660048301529190911690635cb4f54890602401608060405180830381865afa1580156131cf573d5f5f3e3d5ffd5b505050506040513d601f19601f820116820180604052508101906131f39190614d28565b905080604001515f03613209575f91505061278b565b6132178382604001516126e1565b915061326661325a7fc21004fcc619240a31f006438274d15cd813308303284436eef6055f0fdcb6045473ffffffffffffffffffffffffffffffffffffffff1690565b8683602001518561247f565b509392505050565b5f82515f1461331e575f61328184613aed565b604081015190915073ffffffffffffffffffffffffffffffffffffffff1615806132ad57506020810151155b156132bb575f915050611694565b6132c98382602001516126e1565b915061331861330c7fc21004fcc619240a31f006438274d15cd813308303284436eef6055f0fdcb6045473ffffffffffffffffffffffffffffffffffffffff1690565b8783604001518561247f565b50611694565b73ffffffffffffffffffffffffffffffffffffffff841615611694578473ffffffffffffffffffffffffffffffffffffffff168473ffffffffffffffffffffffffffffffffffffffff160361337457505f611694565b6133a5826133a07faca21cc4d2a125f3e0ae03aa135d42b2b9177631aca87599d42a68b47e9008015490565b6126e1565b90506116946133e87fc21004fcc619240a31f006438274d15cd813308303284436eef6055f0fdcb6045473ffffffffffffffffffffffffffffffffffffffff1690565b86868461247f565b8115613402576134008583612309565b505b61340c86846136e4565b6134248660405180602001604052805f81525061294e565b5f6134637fc21004fcc619240a31f006438274d15cd813308303284436eef6055f0fdcb6065473ffffffffffffffffffffffffffffffffffffffff1690565b6040517f44ab66800000000000000000000000000000000000000000000000000000000081527f526976657241697264726f700000000000000000000000000000000000000000600482015273ffffffffffffffffffffffffffffffffffffffff91909116906344ab668090602401602060405180830381865afa1580156134ed573d5f5f3e3d5ffd5b505050506040513d601f19601f82011682018060405250810190613511919061459d565b90505f8173ffffffffffffffffffffffffffffffffffffffff1663dc69fdde5f8560405160200161354491815260200190565b6040516020818303038152906040526040518363ffffffff1660e01b8152600401613570929190614da2565b602060405180830381865afa15801561358b573d5f5f3e3d5ffd5b505050506040513d601f19601f820116820180604052508101906135af919061475e565b6040517f40c10f1900000000000000000000000000000000000000000000000000000000815273ffffffffffffffffffffffffffffffffffffffff888116600483015260248201839052919250908316906340c10f19906044015f604051808303815f87803b158015613620575f5ffd5b505af1158015613632573d5f5f3e3d5ffd5b505050508173ffffffffffffffffffffffffffffffffffffffff166340c10f1961365a610b09565b6040517fffffffff0000000000000000000000000000000000000000000000000000000060e084901b16815273ffffffffffffffffffffffffffffffffffffffff9091166004820152602481018490526044015f604051808303815f87803b1580156136c4575f5ffd5b505af11580156136d6573d5f5f3e3d5ffd5b505050505050505050505050565b5f8281527f34516f6fe09a043d57f1ff579a303a7ae85314751c77b4eb1a55837604a86e016020526040812080547f34516f6fe09a043d57f1ff579a303a7ae85314751c77b4eb1a55837604a86e00928492916137429084906147fc565b9091555050505050565b5f7f6569bde4a160c636ea8b8d11acb83a60d7fec0b8f2e09389306cba0e1340df006127b5565b610479828260405180602001604052805f815250613b95565b5f8181527f6569bde4a160c636ea8b8d11acb83a60d7fec0b8f2e09389306cba0e1340df046020526040812054907f6569bde4a160c636ea8b8d11acb83a60d7fec0b8f2e09389306cba0e1340df00907c01000000000000000000000000000000000000000000000000000000008316900361388a57815f036138845780548310613843576040517fdf2d9b4200000000000000000000000000000000000000000000000000000000815260040160405180910390fd5b5b7fffffffffffffffffffffffffffffffffffffffffffffffffffffffffffffffff9092015f81815260048401602052604090205490929091508115613844575b50919050565b506040517fdf2d9b4200000000000000000000000000000000000000000000000000000000815260040160405180910390fd5b5f816014526f70a082310000000000000000000000005f5260208060246010865afa601f3d111660205102905092915050565b61047973ffffffffffffffffffffffffffffffffffffffff831682613c5d565b8173ffffffffffffffffffffffffffffffffffffffff168373ffffffffffffffffffffffffffffffffffffffff1603156124dd573073ffffffffffffffffffffffffffffffffffffffff841603613982576124cc73ffffffffffffffffffffffffffffffffffffffff85168383613c76565b6124dd73ffffffffffffffffffffffffffffffffffffffff8516848484613cc9565b60606104d17f672ef851d5f92307da037116e23aa9e31af7e1f7e3ca62c4e6d540631df3fd01613d2b565b5f8181527f672ef851d5f92307da037116e23aa9e31af7e1f7e3ca62c4e6d540631df3fd0360205260408120805460609291839182917f672ef851d5f92307da037116e23aa9e31af7e1f7e3ca62c4e6d540631df3fd0091613a30906145b8565b80601f0160208091040260200160405190810160405280929190818152602001828054613a5c906145b8565b8015613aa75780601f10613a7e57610100808354040283529160200191613aa7565b820191905f5260205f20905b815481529060010190602001808311613a8a57829003601f168201915b5050505f8981526003850160205260409020600181015493985060ff9093169650613ad8926002019150613d379050565b9250613ae386613e0e565b9150509193509193565b613b256040518060600160405280606081526020015f81526020015f73ffffffffffffffffffffffffffffffffffffffff1681525090565b5080516020808301919091205f9081527faca21cc4d2a125f3e0ae03aa135d42b2b9177631aca87599d42a68b47e9008028252604090819020815160608101835293845280549284019290925260019091015473ffffffffffffffffffffffffffffffffffffffff169082015290565b613b9f8383613ef5565b73ffffffffffffffffffffffffffffffffffffffff83163b156120dd577f6569bde4a160c636ea8b8d11acb83a60d7fec0b8f2e09389306cba0e1340df00548281035b613bf45f8683806001019450866140aa565b613c2a576040517fd1a57ed600000000000000000000000000000000000000000000000000000000815260040160405180910390fd5b818110613be257817f6569bde4a160c636ea8b8d11acb83a60d7fec0b8f2e09389306cba0e1340df0054146107ac575f5ffd5b5f385f3884865af16104795763b12d13eb5f526004601cfd5b81601452806034526fa9059cbb0000000000000000000000005f5260205f604460105f875af18060015f511416613cbf57803d853b151710613cbf576390b8ec185f526004601cfd5b505f603452505050565b60405181606052826040528360601b602c526f23b872dd000000000000000000000000600c5260205f6064601c5f895af18060015f511416613d1d57803d873b151710613d1d57637939f4245f526004601cfd5b505f60605260405250505050565b60605f61278b8361421c565b6060815f01805480602002602001604051908101604052809291908181526020015f905b82821015613e03578382905f5260205f20018054613d78906145b8565b80601f0160208091040260200160405190810160405280929190818152602001828054613da4906145b8565b8015613def5780601f10613dc657610100808354040283529160200191613def565b820191905f5260205f20905b815481529060010190602001808311613dd257829003601f168201915b505050505081526020019060010190613d5b565b505050509050919050565b5f8181527f672ef851d5f92307da037116e23aa9e31af7e1f7e3ca62c4e6d540631df3fd0360205260408120606091600490910190613e4c82614275565b90505f8167ffffffffffffffff811115613e6857613e68614350565b604051908082528060200260200182016040528015613e91578160200160208202803683370190505b5090505f5b82811015613eec575f613ea9858361427e565b905080838381518110613ebe57613ebe614900565b73ffffffffffffffffffffffffffffffffffffffff9092166020928302919091019091015250600101613e96565b50949350505050565b7f6569bde4a160c636ea8b8d11acb83a60d7fec0b8f2e09389306cba0e1340df00545f829003613f51576040517fb562e8dd00000000000000000000000000000000000000000000000000000000815260040160405180910390fd5b73ffffffffffffffffffffffffffffffffffffffff83165f8181527f6569bde4a160c636ea8b8d11acb83a60d7fec0b8f2e09389306cba0e1340df056020908152604080832080546801000000000000000188020190558483527f6569bde4a160c636ea8b8d11acb83a60d7fec0b8f2e09389306cba0e1340df0490915281206001851460e11b4260a01b178317905582840190839083907fddf252ad1be2c89b69c2b068fc378daa952ba7f163c4a11628f55a4df523b3ef8180a4600183015b8181146140485780835f7fddf252ad1be2c89b69c2b068fc378daa952ba7f163c4a11628f55a4df523b3ef5f5fa4600101614012565b50815f03614082576040517f2e07630000000000000000000000000000000000000000000000000000000000815260040160405180910390fd5b7f6569bde4a160c636ea8b8d11acb83a60d7fec0b8f2e09389306cba0e1340df005550505050565b6040517f150b7a020000000000000000000000000000000000000000000000000000000081525f9073ffffffffffffffffffffffffffffffffffffffff85169063150b7a0290614104903390899088908890600401614def565b6020604051808303815f875af192505050801561415c575060408051601f3d9081017fffffffffffffffffffffffffffffffffffffffffffffffffffffffffffffffe016820190925261415991810190614e3f565b60015b6141d1573d808015614189576040519150601f19603f3d011682016040523d82523d5f602084013e61418e565b606091505b5080515f036141c9576040517fd1a57ed600000000000000000000000000000000000000000000000000000000815260040160405180910390fd5b805181602001fd5b7fffffffff00000000000000000000000000000000000000000000000000000000167f150b7a0200000000000000000000000000000000000000000000000000000000149050611694565b6060815f0180548060200260200160405190810160405280929190818152602001828054801561426957602002820191905f5260205f20905b815481526020019060010190808311614255575b50505050509050919050565b5f61052b825490565b5f61278b83835f825f01828154811061429957614299614900565b905f5260205f200154905092915050565b5f5f602083850312156142bb575f5ffd5b823567ffffffffffffffff8111156142d1575f5ffd5b8301601f810185136142e1575f5ffd5b803567ffffffffffffffff8111156142f7575f5ffd5b856020828401011115614308575f5ffd5b6020919091019590945092505050565b5f60208284031215614328575f5ffd5b5035919050565b73ffffffffffffffffffffffffffffffffffffffff81168114610997575f5ffd5b7f4e487b71000000000000000000000000000000000000000000000000000000005f52604160045260245ffd5b6040516060810167ffffffffffffffff811182821017156143a0576143a0614350565b60405290565b604051601f82017fffffffffffffffffffffffffffffffffffffffffffffffffffffffffffffffe016810167ffffffffffffffff811182821017156143ed576143ed614350565b604052919050565b5f67ffffffffffffffff82111561440e5761440e614350565b50601f017fffffffffffffffffffffffffffffffffffffffffffffffffffffffffffffffe01660200190565b5f5f6040838503121561444b575f5ffd5b82356144568161432f565b9150602083013567ffffffffffffffff811115614471575f5ffd5b830160608186031215614482575f5ffd5b61448a61437d565b81356144958161432f565b815260208201356144a58161432f565b6020820152604082013567ffffffffffffffff8111156144c3575f5ffd5b80830192505085601f8301126144d7575f5ffd5b81356144ea6144e5826143f5565b6143a6565b8181528760208386010111156144fe575f5ffd5b816020850160208301375f60208383010152806040840152505080925050509250929050565b5f60208284031215614534575f5ffd5b813561278b8161432f565b5f81518084528060208401602086015e5f6020828601015260207fffffffffffffffffffffffffffffffffffffffffffffffffffffffffffffffe0601f83011685010191505092915050565b602081525f61278b602083018461453f565b5f602082840312156145ad575f5ffd5b815161278b8161432f565b600181811c908216806145cc57607f821691505b602082108103613884577f4e487b71000000000000000000000000000000000000000000000000000000005f52602260045260245ffd5b601f8211156120dd57805f5260205f20601f840160051c810160208510156146285750805b601f840160051c820191505b818110156107ac575f8155600101614634565b815167ffffffffffffffff81111561466157614661614350565b6146758161466f84546145b8565b84614603565b6020601f8211600181146146c6575f83156146905750848201515b7fffffffffffffffffffffffffffffffffffffffffffffffffffffffffffffffff600385901b1c1916600184901b1784556107ac565b5f848152602081207fffffffffffffffffffffffffffffffffffffffffffffffffffffffffffffffe08516915b8281101561471357878501518255602094850194600190920191016146f3565b508482101561474f57868401517fffffffffffffffffffffffffffffffffffffffffffffffffffffffffffffffff600387901b60f8161c191681555b50505050600190811b01905550565b5f6020828403121561476e575f5ffd5b5051919050565b6020815273ffffffffffffffffffffffffffffffffffffffff825116602082015273ffffffffffffffffffffffffffffffffffffffff60208301511660408201525f6040830151606080840152611694608084018261453f565b7f4e487b71000000000000000000000000000000000000000000000000000000005f52601160045260245ffd5b8181038181111561052b5761052b6147cf565b5f6020828403121561481f575f5ffd5b815167ffffffffffffffff8116811461278b575f5ffd5b5f60208284031215614846575f5ffd5b815161ffff8116811461278b575f5ffd5b80518015158114614866575f5ffd5b919050565b5f6020828403121561487b575f5ffd5b61278b82614857565b7fffffffff000000000000000000000000000000000000000000000000000000008516815273ffffffffffffffffffffffffffffffffffffffff8416602082015273ffffffffffffffffffffffffffffffffffffffff83166040820152608060608201525f6148f6608083018461453f565b9695505050505050565b7f4e487b71000000000000000000000000000000000000000000000000000000005f52603260045260245ffd5b5f82518060208501845e5f920191825250919050565b80516020808301519190811015613884577fffffffffffffffffffffffffffffffffffffffffffffffffffffffffffffffff60209190910360031b1b16919050565b5f60608201858352606060208401528085518083526080850191506020870192505f5b818110156149dc57835173ffffffffffffffffffffffffffffffffffffffff168352602093840193909201916001016149a8565b505060409390930193909352509392505050565b80517fffffffff0000000000000000000000000000000000000000000000000000000081168114614866575f5ffd5b5f614a2c6144e5846143f5565b9050828152838383011115614a3f575f5ffd5b8282602083015e5f602084830101529392505050565b5f5f5f5f60808587031215614a68575f5ffd5b614a71856149f0565b93506020850151614a818161432f565b6040860151909350614a928161432f565b606086015190925067ffffffffffffffff811115614aae575f5ffd5b8501601f81018713614abe575f5ffd5b614acd87825160208401614a1f565b91505092959194509250565b5f60208284031215614ae9575f5ffd5b815167ffffffffffffffff811115614aff575f5ffd5b820160608185031215614b10575f5ffd5b614b1861437d565b8151614b238161432f565b81526020820151614b338161432f565b6020820152604082015167ffffffffffffffff811115614b51575f5ffd5b80830192505084601f830112614b65575f5ffd5b614b7485835160208501614a1f565b6040820152949350505050565b8082018082111561052b5761052b6147cf565b67ffffffffffffffff818116838216019081111561052b5761052b6147cf565b808202811582820484141761052b5761052b6147cf565b5f82614bfe577f4e487b71000000000000000000000000000000000000000000000000000000005f52601260045260245ffd5b500490565b5f7fffffffffffffffffffffffffffffffffffffffffffffffffffffffffffffffff8203614c3357614c336147cf565b5060010190565b5f60208284031215614c4a575f5ffd5b815167ffffffffffffffff811115614c60575f5ffd5b8201601f81018413614c70575f5ffd5b805167ffffffffffffffff811115614c8a57614c8a614350565b8060051b614c9a602082016143a6565b91825260208184018101929081019087841115614cb5575f5ffd5b6020850194505b83851015614ce35784519250614cd18361432f565b82825260209485019490910190614cbc565b979650505050505050565b73ffffffffffffffffffffffffffffffffffffffff85168152836020820152826040820152608060608201525f6148f6608083018461453f565b5f6080828403128015614d39575f5ffd5b506040516080810167ffffffffffffffff81118282101715614d5d57614d5d614350565b6040528251614d6b8161432f565b81526020830151614d7b8161432f565b602082015260408381015190820152614d9660608401614857565b60608201529392505050565b5f60038410614dd8577f4e487b71000000000000000000000000000000000000000000000000000000005f52602160045260245ffd5b83825260406020830152611694604083018461453f565b73ffffffffffffffffffffffffffffffffffffffff8516815273ffffffffffffffffffffffffffffffffffffffff84166020820152826040820152608060608201525f6148f6608083018461453f565b5f60208284031215614e4f575f5ffd5b61278b826149f056","linkReferences":{}},"methodIdentifiers":{"expiresAt(uint256)":"17c95709","getMembershipCurrency()":"657e45e8","getMembershipDuration()":"8120f0ba","getMembershipFreeAllocation()":"706b8e09","getMembershipImage()":"93b13cb7","getMembershipLimit()":"95d600c8","getMembershipPrice()":"1278076a","getMembershipPricingModule()":"e847abdd","getMembershipRenewalPrice(uint256)":"5803909f","getProtocolFee()":"a5a41031","getSpaceFactory()":"79dda585","joinSpace(address)":"8c625b06","joinSpaceWithReferral(address,(address,address,string))":"686f7684","renewMembership(uint256)":"7c9669ac","revenue()":"3e9491a2","setMembershipFreeAllocation(uint256)":"5becd24a","setMembershipImage(string)":"0ef1be5f","setMembershipLimit(uint256)":"97fb7c1e","setMembershipPrice(uint256)":"69d5f38a","setMembershipPricingModule(address)":"df9a9fe6"},"id":492}