{"abi":[{"type":"function","name":"expiresAt","inputs":[{"name":"tokenId","type":"uint256","internalType":"uint256"}],"outputs":[{"name":"","type":"uint256","internalType":"uint256"}],"stateMutability":"view"},{"type":"function","name":"getMembershipCurrency","inputs":[],"outputs":[{"name":"","type":"address","internalType":"address"}],"stateMutability":"view"},{"type":"function","name":"getMembershipDuration","inputs":[],"outputs":[{"name":"","type":"uint64","internalType":"uint64"}],"stateMutability":"view"},{"type":"function","name":"getMembershipFreeAllocation","inputs":[],"outputs":[{"name":"","type":"uint256","internalType":"uint256"}],"stateMutability":"view"},{"type":"function","name":"getMembershipImage","inputs":[],"outputs":[{"name":"","type":"string","internalType":"string"}],"stateMutability":"view"},{"type":"function","name":"getMembershipLimit","inputs":[],"outputs":[{"name":"","type":"uint256","internalType":"uint256"}],"stateMutability":"view"},{"type":"function","name":"getMembershipPrice","inputs":[],"outputs":[{"name":"","type":"uint256","internalType":"uint256"}],"stateMutability":"view"},{"type":"function","name":"getMembershipPricingModule","inputs":[],"outputs":[{"name":"","type":"address","internalType":"address"}],"stateMutability":"view"},{"type":"function","name":"getMembershipRenewalPrice","inputs":[{"name":"tokenId","type":"uint256","internalType":"uint256"}],"outputs":[{"name":"","type":"uint256","internalType":"uint256"}],"stateMutability":"view"},{"type":"function","name":"getProtocolFee","inputs":[],"outputs":[{"name":"","type":"uint256","internalType":"uint256"}],"stateMutability":"view"},{"type":"function","name":"getSpaceFactory","inputs":[],"outputs":[{"name":"","type":"address","internalType":"address"}],"stateMutability":"view"},{"type":"function","name":"joinSpace","inputs":[{"name":"receiver","type":"address","internalType":"address"}],"outputs":[],"stateMutability":"payable"},{"type":"function","name":"joinSpaceWithReferral","inputs":[{"name":"receiver","type":"address","internalType":"address"},{"name":"referral","type":"tuple","internalType":"struct IMembershipBase.ReferralTypes","components":[{"name":"partner","type":"address","internalType":"address"},{"name":"userReferral","type":"address","internalType":"address"},{"name":"referralCode","type":"string","internalType":"string"}]}],"outputs":[],"stateMutability":"payable"},{"type":"function","name":"renewMembership","inputs":[{"name":"tokenId","type":"uint256","internalType":"uint256"}],"outputs":[],"stateMutability":"payable"},{"type":"function","name":"revenue","inputs":[],"outputs":[{"name":"","type":"uint256","internalType":"uint256"}],"stateMutability":"view"},{"type":"function","name":"setMembershipFreeAllocation","inputs":[{"name":"newAllocation","type":"uint256","internalType":"uint256"}],"outputs":[],"stateMutability":"nonpayable"},{"type":"function","name":"setMembershipImage","inputs":[{"name":"newImage","type":"string","internalType":"string"}],"outputs":[],"stateMutability":"nonpayable"},{"type":"function","name":"setMembershipLimit","inputs":[{"name":"newLimit","type":"uint256","internalType":"uint256"}],"outputs":[],"stateMutability":"nonpayable"},{"type":"function","name":"setMembershipPrice","inputs":[{"name":"newPrice","type":"uint256","internalType":"uint256"}],"outputs":[],"stateMutability":"nonpayable"},{"type":"function","name":"setMembershipPricingModule","inputs":[{"name":"pricingModule","type":"address","internalType":"address"}],"outputs":[],"stateMutability":"nonpayable"},{"type":"event","name":"Approval","inputs":[{"name":"owner","type":"address","indexed":true,"internalType":"address"},{"name":"approved","type":"address","indexed":true,"internalType":"address"},{"name":"tokenId","type":"uint256","indexed":true,"internalType":"uint256"}],"anonymous":false},{"type":"event","name":"ApprovalForAll","inputs":[{"name":"owner","type":"address","indexed":true,"internalType":"address"},{"name":"operator","type":"address","indexed":true,"internalType":"address"},{"name":"approved","type":"bool","indexed":false,"internalType":"bool"}],"anonymous":false},{"type":"event","name":"Banned","inputs":[{"name":"moderator","type":"address","indexed":true,"internalType":"address"},{"name":"tokenId","type":"uint256","indexed":true,"internalType":"uint256"}],"anonymous":false},{"type":"event","name":"ConsecutiveTransfer","inputs":[{"name":"fromTokenId","type":"uint256","indexed":true,"internalType":"uint256"},{"name":"toTokenId","type":"uint256","indexed":false,"internalType":"uint256"},{"name":"from","type":"address","indexed":true,"internalType":"address"},{"name":"to","type":"address","indexed":true,"internalType":"address"}],"anonymous":false},{"type":"event","name":"DefaultBpsFeeUpdated","inputs":[{"name":"defaultBpsFee","type":"uint256","indexed":false,"internalType":"uint256"}],"anonymous":false},{"type":"event","name":"EntitlementCheckResultPosted","inputs":[{"name":"transactionId","type":"bytes32","indexed":true,"internalType":"bytes32"},{"name":"result","type":"uint8","indexed":false,"internalType":"enum IEntitlementGatedBase.NodeVoteStatus"}],"anonymous":false},{"type":"event","name":"Initialized","inputs":[{"name":"version","type":"uint32","indexed":false,"internalType":"uint32"}],"anonymous":false},{"type":"event","name":"InterfaceAdded","inputs":[{"name":"interfaceId","type":"bytes4","indexed":true,"internalType":"bytes4"}],"anonymous":false},{"type":"event","name":"InterfaceRemoved","inputs":[{"name":"interfaceId","type":"bytes4","indexed":true,"internalType":"bytes4"}],"anonymous":false},{"type":"event","name":"MaxBpsFeeUpdated","inputs":[{"name":"maxBpsFee","type":"uint256","indexed":false,"internalType":"uint256"}],"anonymous":false},{"type":"event","name":"MaxPartnerFeeSet","inputs":[{"name":"fee","type":"uint256","indexed":false,"internalType":"uint256"}],"anonymous":false},{"type":"event","name":"MembershipCurrencyUpdated","inputs":[{"name":"currency","type":"address","indexed":true,"internalType":"address"}],"anonymous":false},{"type":"event","name":"MembershipFeeRecipientUpdated","inputs":[{"name":"recipient","type":"address","indexed":true,"internalType":"address"}],"anonymous":false},{"type":"event","name":"MembershipFreeAllocationUpdated","inputs":[{"name":"allocation","type":"uint256","indexed":true,"internalType":"uint256"}],"anonymous":false},{"type":"event","name":"MembershipLimitUpdated","inputs":[{"name":"limit","type":"uint256","indexed":true,"internalType":"uint256"}],"anonymous":false},{"type":"event","name":"MembershipPriceUpdated","inputs":[{"name":"price","type":"uint256","indexed":true,"internalType":"uint256"}],"anonymous":false},{"type":"event","name":"MembershipTokenIssued","inputs":[{"name":"recipient","type":"address","indexed":true,"internalType":"address"},{"name":"tokenId","type":"uint256","indexed":true,"internalType":"uint256"}],"anonymous":false},{"type":"event","name":"MembershipTokenRejected","inputs":[{"name":"recipient","type":"address","indexed":true,"internalType":"address"}],"anonymous":false},{"type":"event","name":"MembershipWithdrawal","inputs":[{"name":"recipient","type":"address","indexed":true,"internalType":"address"},{"name":"amount","type":"uint256","indexed":false,"internalType":"uint256"}],"anonymous":false},{"type":"event","name":"OwnershipTransferred","inputs":[{"name":"previousOwner","type":"address","indexed":true,"internalType":"address"},{"name":"newOwner","type":"address","indexed":true,"internalType":"address"}],"anonymous":false},{"type":"event","name":"PartnerRegistered","inputs":[{"name":"account","type":"address","indexed":true,"internalType":"address"}],"anonymous":false},{"type":"event","name":"PartnerRemoved","inputs":[{"name":"account","type":"address","indexed":true,"internalType":"address"}],"anonymous":false},{"type":"event","name":"PartnerUpdated","inputs":[{"name":"account","type":"address","indexed":true,"internalType":"address"}],"anonymous":false},{"type":"event","name":"Paused","inputs":[{"name":"account","type":"address","indexed":false,"internalType":"address"}],"anonymous":false},{"type":"event","name":"PermissionsAddedToChannelRole","inputs":[{"name":"updater","type":"address","indexed":true,"internalType":"address"},{"name":"roleId","type":"uint256","indexed":true,"internalType":"uint256"},{"name":"channelId","type":"bytes32","indexed":true,"internalType":"bytes32"}],"anonymous":false},{"type":"event","name":"PermissionsRemovedFromChannelRole","inputs":[{"name":"updater","type":"address","indexed":true,"internalType":"address"},{"name":"roleId","type":"uint256","indexed":true,"internalType":"uint256"},{"name":"channelId","type":"bytes32","indexed":true,"internalType":"bytes32"}],"anonymous":false},{"type":"event","name":"PermissionsUpdatedForChannelRole","inputs":[{"name":"updater","type":"address","indexed":true,"internalType":"address"},{"name":"roleId","type":"uint256","indexed":true,"internalType":"uint256"},{"name":"channelId","type":"bytes32","indexed":true,"internalType":"bytes32"}],"anonymous":false},{"type":"event","name":"Prepay__Prepaid","inputs":[{"name":"supply","type":"uint256","indexed":false,"internalType":"uint256"}],"anonymous":false},{"type":"event","name":"ReferralRegistered","inputs":[{"name":"referralCode","type":"bytes32","indexed":false,"internalType":"bytes32"},{"name":"basisPoints","type":"uint256","indexed":false,"internalType":"uint256"},{"name":"recipient","type":"address","indexed":false,"internalType":"address"}],"anonymous":false},{"type":"event","name":"ReferralRemoved","inputs":[{"name":"referralCode","type":"bytes32","indexed":false,"internalType":"bytes32"}],"anonymous":false},{"type":"event","name":"ReferralUpdated","inputs":[{"name":"referralCode","type":"bytes32","indexed":false,"internalType":"bytes32"},{"name":"basisPoints","type":"uint256","indexed":false,"internalType":"uint256"},{"name":"recipient","type":"address","indexed":false,"internalType":"address"}],"anonymous":false},{"type":"event","name":"RegistryFeeSet","inputs":[{"name":"fee","type":"uint256","indexed":false,"internalType":"uint256"}],"anonymous":false},{"type":"event","name":"RoleCreated","inputs":[{"name":"creator","type":"address","indexed":true,"internalType":"address"},{"name":"roleId","type":"uint256","indexed":true,"internalType":"uint256"}],"anonymous":false},{"type":"event","name":"RoleRemoved","inputs":[{"name":"remover","type":"address","indexed":true,"internalType":"address"},{"name":"roleId","type":"uint256","indexed":true,"internalType":"uint256"}],"anonymous":false},{"type":"event","name":"RoleUpdated","inputs":[{"name":"updater","type":"address","indexed":true,"internalType":"address"},{"name":"roleId","type":"uint256","indexed":true,"internalType":"uint256"}],"anonymous":false},{"type":"event","name":"SubscriptionUpdate","inputs":[{"name":"tokenId","type":"uint256","indexed":true,"internalType":"uint256"},{"name":"expiration","type":"uint64","indexed":false,"internalType":"uint64"}],"anonymous":false},{"type":"event","name":"Transfer","inputs":[{"name":"from","type":"address","indexed":true,"internalType":"address"},{"name":"to","type":"address","indexed":true,"internalType":"address"},{"name":"tokenId","type":"uint256","indexed":true,"internalType":"uint256"}],"anonymous":false},{"type":"event","name":"Unbanned","inputs":[{"name":"moderator","type":"address","indexed":true,"internalType":"address"},{"name":"tokenId","type":"uint256","indexed":true,"internalType":"uint256"}],"anonymous":false},{"type":"event","name":"Unpaused","inputs":[{"name":"account","type":"address","indexed":false,"internalType":"address"}],"anonymous":false},{"type":"error","name":"ApprovalCallerNotOwnerNorApproved","inputs":[]},{"type":"error","name":"ApprovalQueryForNonexistentToken","inputs":[]},{"type":"error","name":"BalanceQueryForZeroAddress","inputs":[]},{"type":"error","name":"Banning__AlreadyBanned","inputs":[{"name":"tokenId","type":"uint256","internalType":"uint256"}]},{"type":"error","name":"Banning__CannotBanOwner","inputs":[]},{"type":"error","name":"Banning__CannotBanSelf","inputs":[]},{"type":"error","name":"Banning__InvalidTokenId","inputs":[{"name":"tokenId","type":"uint256","internalType":"uint256"}]},{"type":"error","name":"Banning__NotBanned","inputs":[{"name":"tokenId","type":"uint256","internalType":"uint256"}]},{"type":"error","name":"Dispatcher__TransactionAlreadyExists","inputs":[]},{"type":"error","name":"ERC5643__DurationZero","inputs":[]},{"type":"error","name":"ERC5643__InvalidTokenId","inputs":[{"name":"tokenId","type":"uint256","internalType":"uint256"}]},{"type":"error","name":"ERC5643__NotApprovedOrOwner","inputs":[]},{"type":"error","name":"ERC5643__SubscriptionNotRenewable","inputs":[{"name":"tokenId","type":"uint256","internalType":"uint256"}]},{"type":"error","name":"EntitlementGated_InvalidAddress","inputs":[]},{"type":"error","name":"EntitlementGated_InvalidEntitlement","inputs":[]},{"type":"error","name":"EntitlementGated_NodeAlreadyVoted","inputs":[]},{"type":"error","name":"EntitlementGated_NodeNotFound","inputs":[]},{"type":"error","name":"EntitlementGated_OnlyEntitlementChecker","inputs":[]},{"type":"error","name":"EntitlementGated_RequestIdNotFound","inputs":[]},{"type":"error","name":"EntitlementGated_TransactionCheckAlreadyCompleted","inputs":[]},{"type":"error","name":"EntitlementGated_TransactionCheckAlreadyRegistered","inputs":[]},{"type":"error","name":"EntitlementGated_TransactionNotRegistered","inputs":[]},{"type":"error","name":"Entitlement__InvalidValue","inputs":[]},{"type":"error","name":"Entitlement__NotAllowed","inputs":[]},{"type":"error","name":"Entitlement__NotMember","inputs":[]},{"type":"error","name":"Entitlement__ValueAlreadyExists","inputs":[]},{"type":"error","name":"Initializable_InInitializingState","inputs":[]},{"type":"error","name":"Introspection_AlreadySupported","inputs":[]},{"type":"error","name":"Introspection_NotSupported","inputs":[]},{"type":"error","name":"Membership__AlreadyMember","inputs":[]},{"type":"error","name":"Membership__Banned","inputs":[]},{"type":"error","name":"Membership__InsufficientAllowance","inputs":[]},{"type":"error","name":"Membership__InsufficientPayment","inputs":[]},{"type":"error","name":"Membership__InvalidAddress","inputs":[]},{"type":"error","name":"Membership__InvalidCurrency","inputs":[]},{"type":"error","name":"Membership__InvalidDuration","inputs":[]},{"type":"error","name":"Membership__InvalidFeeRecipient","inputs":[]},{"type":"error","name":"Membership__InvalidFreeAllocation","inputs":[]},{"type":"error","name":"Membership__InvalidLimit","inputs":[]},{"type":"error","name":"Membership__InvalidMaxSupply","inputs":[]},{"type":"error","name":"Membership__InvalidPayment","inputs":[]},{"type":"error","name":"Membership__InvalidPrice","inputs":[]},{"type":"error","name":"Membership__InvalidPricingModule","inputs":[]},{"type":"error","name":"Membership__InvalidTokenId","inputs":[]},{"type":"error","name":"Membership__InvalidTransactionType","inputs":[]},{"type":"error","name":"Membership__MaxSupplyReached","inputs":[]},{"type":"error","name":"Membership__NotExpired","inputs":[]},{"type":"error","name":"Membership__PriceTooLow","inputs":[]},{"type":"error","name":"MintERC2309QuantityExceedsLimit","inputs":[]},{"type":"error","name":"MintToZeroAddress","inputs":[]},{"type":"error","name":"MintZeroQuantity","inputs":[]},{"type":"error","name":"Ownable__NotOwner","inputs":[{"name":"account","type":"address","internalType":"address"}]},{"type":"error","name":"Ownable__ZeroAddress","inputs":[]},{"type":"error","name":"OwnerQueryForNonexistentToken","inputs":[]},{"type":"error","name":"OwnershipNotInitializedForExtraData","inputs":[]},{"type":"error","name":"PartnerRegistry__InvalidPartnerFee","inputs":[{"name":"fee","type":"uint256","internalType":"uint256"}]},{"type":"error","name":"PartnerRegistry__InvalidRecipient","inputs":[]},{"type":"error","name":"PartnerRegistry__NotPartnerAccount","inputs":[{"name":"account","type":"address","internalType":"address"}]},{"type":"error","name":"PartnerRegistry__PartnerAlreadyRegistered","inputs":[{"name":"account","type":"address","internalType":"address"}]},{"type":"error","name":"PartnerRegistry__PartnerNotActive","inputs":[{"name":"account","type":"address","internalType":"address"}]},{"type":"error","name":"PartnerRegistry__PartnerNotRegistered","inputs":[{"name":"account","type":"address","internalType":"address"}]},{"type":"error","name":"PartnerRegistry__RegistryFeeNotPaid","inputs":[{"name":"fee","type":"uint256","internalType":"uint256"}]},{"type":"error","name":"Pausable__NotPaused","inputs":[]},{"type":"error","name":"Pausable__Paused","inputs":[]},{"type":"error","name":"Prepay__InvalidAddress","inputs":[]},{"type":"error","name":"Prepay__InvalidAmount","inputs":[]},{"type":"error","name":"Prepay__InvalidMembership","inputs":[]},{"type":"error","name":"Prepay__InvalidSupplyAmount","inputs":[]},{"type":"error","name":"Reentrancy","inputs":[]},{"type":"error","name":"Referrals__InvalidBasisPoints","inputs":[]},{"type":"error","name":"Referrals__InvalidBpsFee","inputs":[]},{"type":"error","name":"Referrals__InvalidRecipient","inputs":[]},{"type":"error","name":"Referrals__InvalidReferralCode","inputs":[]},{"type":"error","name":"Referrals__ReferralAlreadyExists","inputs":[]},{"type":"error","name":"Roles__EntitlementAlreadyExists","inputs":[]},{"type":"error","name":"Roles__EntitlementDoesNotExist","inputs":[]},{"type":"error","name":"Roles__InvalidEntitlementAddress","inputs":[]},{"type":"error","name":"Roles__InvalidPermission","inputs":[]},{"type":"error","name":"Roles__PermissionAlreadyExists","inputs":[]},{"type":"error","name":"Roles__PermissionDoesNotExist","inputs":[]},{"type":"error","name":"Roles__RoleDoesNotExist","inputs":[]},{"type":"error","name":"TransferCallerNotOwnerNorApproved","inputs":[]},{"type":"error","name":"TransferFromIncorrectOwner","inputs":[]},{"type":"error","name":"TransferToNonERC721ReceiverImplementer","inputs":[]},{"type":"error","name":"TransferToZeroAddress","inputs":[]},{"type":"error","name":"URIQueryForNonexistentToken","inputs":[]}],"bytecode":{"object":"0x6080604052348015600e575f5ffd5b5060156019565b60bd565b7f59b501c3653afc186af7d48dda36cf6732bd21629a6295693664240a6ef520008054640100000000900460ff16156064576040516366008a2d60e01b815260040160405180910390fd5b805463ffffffff908116101560ba57805463ffffffff191663ffffffff90811782556040519081527fe9c9b456cb2994b80aeef036cf59d26e9617df80f816a6ee5a5b4166e07e2f5c9060200160405180910390a15b50565b614e35806100ca5f395ff3fe608060405260043610610157575f3560e01c806379dda585116100bb57806395d600c811610071578063a5a4103111610057578063a5a4103114610381578063df9a9fe614610395578063e847abdd146103b4575f5ffd5b806395d600c81461034e57806397fb7c1e14610362575f5ffd5b80638120f0ba116100a15780638120f0ba146102ed5780638c625b061461031a57806393b13cb71461032d575f5ffd5b806379dda585146102c65780637c9669ac146102da575f5ffd5b80635becd24a11610110578063686f7684116100f6578063686f76841461028057806369d5f38a14610293578063706b8e09146102b2575f5ffd5b80635becd24a14610228578063657e45e814610247575f5ffd5b806317c957091161014057806317c95709146101a35780633e9491a2146101f75780635803909f14610209575f5ffd5b80630ef1be5f1461015b5780631278076a1461017c575b5f5ffd5b348015610166575f5ffd5b5061017a610175366004614287565b6103c8565b005b348015610187575f5ffd5b5061019061047d565b6040519081526020015b60405180910390f35b3480156101ae575f5ffd5b506101906101bd3660046142f5565b5f9081527f4775a23600034fdd9f073b224f794d51a58b35ba663a9602623ba7a5c09cce00602052604090205467ffffffffffffffff1690565b348015610202575f5ffd5b5047610190565b348015610214575f5ffd5b506101906102233660046142f5565b6104d6565b348015610233575f5ffd5b5061017a6102423660046142f5565b610531565b348015610252575f5ffd5b5061025b610618565b60405173ffffffffffffffffffffffffffffffffffffffff909116815260200161019a565b61017a61028e366004614417565b610657565b34801561029e575f5ffd5b5061017a6102ad3660046142f5565b61069b565b3480156102bd575f5ffd5b506101906107b3565b3480156102d1575f5ffd5b5061025b6107bc565b61017a6102e83660046142f5565b6107fb565b3480156102f8575f5ffd5b506103016109a0565b60405167ffffffffffffffff909116815260200161019a565b61017a610328366004614501565b6109a9565b348015610338575f5ffd5b506103416109eb565b60405161019a9190614568565b348015610359575f5ffd5b506101906109f5565b34801561036d575f5ffd5b5061017a61037c3660046142f5565b610a1e565b34801561038c575f5ffd5b50610190610b0b565b3480156103a0575f5ffd5b5061017a6103af366004614501565b610b62565b3480156103bf575f5ffd5b5061025b610c3b565b6103d0610c7a565b73ffffffffffffffffffffffffffffffffffffffff163373ffffffffffffffffffffffffffffffffffffffff161461043b576040517f65f490650000000000000000000000000000000000000000000000000000000081523360048201526024015b60405180910390fd5b61047982828080601f0160208091040260200160405190810160405280939291908181526020018383808284375f92019190915250610d3a92505050565b5050565b5f6104d16104cc7f6569bde4a160c636ea8b8d11acb83a60d7fec0b8f2e09389306cba0e1340df01547f6569bde4a160c636ea8b8d11acb83a60d7fec0b8f2e09389306cba0e1340df00540390565b610d65565b905090565b5f61052b826105267f6569bde4a160c636ea8b8d11acb83a60d7fec0b8f2e09389306cba0e1340df01547f6569bde4a160c636ea8b8d11acb83a60d7fec0b8f2e09389306cba0e1340df00540390565b610f48565b92915050565b610539610c7a565b73ffffffffffffffffffffffffffffffffffffffff163373ffffffffffffffffffffffffffffffffffffffff161461059f576040517f65f49065000000000000000000000000000000000000000000000000000000008152336004820152602401610432565b5f6105c87fc21004fcc619240a31f006438274d15cd813308303284436eef6055f0fdcb6035490565b905080158015906105d857508082115b15610606576106067fc3983b9100000000000000000000000000000000000000000000000000000000610faf565b61060f82610fb7565b6104798261105b565b5f6104d17fc21004fcc619240a31f006438274d15cd813308303284436eef6055f0fdcb6045473ffffffffffffffffffffffffffffffffffffffff1690565b3068929eee149b4bd2126854036106755763ab143c065f526004601cfd5b3068929eee149b4bd212685561068b8282611119565b3868929eee149b4bd21268555050565b6106a3610c7a565b73ffffffffffffffffffffffffffffffffffffffff163373ffffffffffffffffffffffffffffffffffffffff1614610709576040517f65f49065000000000000000000000000000000000000000000000000000000008152336004820152602401610432565b61071281611217565b7fc21004fcc619240a31f006438274d15cd813308303284436eef6055f0fdcb608546040517f91b7f5ed0000000000000000000000000000000000000000000000000000000081526004810183905273ffffffffffffffffffffffffffffffffffffffff909116906391b7f5ed906024015f604051808303815f87803b15801561079a575f5ffd5b505af11580156107ac573d5f5f3e3d5ffd5b5050505050565b5f6104d16112bf565b5f6104d17fc21004fcc619240a31f006438274d15cd813308303284436eef6055f0fdcb6065473ffffffffffffffffffffffffffffffffffffffff1690565b3068929eee149b4bd2126854036108195763ab143c065f526004601cfd5b3068929eee149b4bd21268555f61082f8261138a565b905073ffffffffffffffffffffffffffffffffffffffff8116610875576108757f5fbd571700000000000000000000000000000000000000000000000000000000610faf565b5f8281527f4775a23600034fdd9f073b224f794d51a58b35ba663a9602623ba7a5c09cce00602052604090205467ffffffffffffffff166108b4611394565b67ffffffffffffffff166108c842836145a7565b106108f6576108f67fdce9a1d300000000000000000000000000000000000000000000000000000000610faf565b5f610946846105267f6569bde4a160c636ea8b8d11acb83a60d7fec0b8f2e09389306cba0e1340df01547f6569bde4a160c636ea8b8d11acb83a60d7fec0b8f2e09389306cba0e1340df00540390565b9050801561097d575f6109598483611409565b90505f61096682846145a7565b9050801561097a5761097885826114d1565b505b50505b61098e84610989611394565b611647565b5050503868929eee149b4bd212685550565b5f6104d1611394565b3068929eee149b4bd2126854036109c75763ab143c065f526004601cfd5b3068929eee149b4bd21268556109dc81611727565b3868929eee149b4bd212685550565b60606104d16117ca565b5f6104d17fc21004fcc619240a31f006438274d15cd813308303284436eef6055f0fdcb6035490565b610a26610c7a565b73ffffffffffffffffffffffffffffffffffffffff163373ffffffffffffffffffffffffffffffffffffffff1614610a8c576040517f65f49065000000000000000000000000000000000000000000000000000000008152336004820152602401610432565b610ae081610adb7f6569bde4a160c636ea8b8d11acb83a60d7fec0b8f2e09389306cba0e1340df01547f6569bde4a160c636ea8b8d11acb83a60d7fec0b8f2e09389306cba0e1340df00540390565b61187c565b610b08817fc21004fcc619240a31f006438274d15cd813308303284436eef6055f0fdcb60355565b50565b5f6104d1610b5d6104cc7f6569bde4a160c636ea8b8d11acb83a60d7fec0b8f2e09389306cba0e1340df01547f6569bde4a160c636ea8b8d11acb83a60d7fec0b8f2e09389306cba0e1340df00540390565b6118ad565b610b6a610c7a565b73ffffffffffffffffffffffffffffffffffffffff163373ffffffffffffffffffffffffffffffffffffffff1614610bd0576040517f65f49065000000000000000000000000000000000000000000000000000000008152336004820152602401610432565b610bd981611a20565b7fc21004fcc619240a31f006438274d15cd813308303284436eef6055f0fdcb60880547fffffffffffffffffffffffff00000000000000000000000000000000000000001673ffffffffffffffffffffffffffffffffffffffff831617905550565b5f6104d17fc21004fcc619240a31f006438274d15cd813308303284436eef6055f0fdcb6085473ffffffffffffffffffffffffffffffffffffffff1690565b5f807fd2f24d4f172e4e84e48e7c4125b6e904c29e5eba33ad4938fee51dd5dbd4b600805460018201546040517f6352211e000000000000000000000000000000000000000000000000000000008152600481019190915291925073ffffffffffffffffffffffffffffffffffffffff1690636352211e90602401602060405180830381865afa158015610d10573d5f5f3e3d5ffd5b505050506040513d601f19601f82011682018060405250810190610d3491906145ba565b91505090565b7fc21004fcc619240a31f006438274d15cd813308303284436eef6055f0fdcb60c6104798282614664565b5f5f610d6f6112bf565b9050610daf7fc21004fcc619240a31f006438274d15cd813308303284436eef6055f0fdcb6085473ffffffffffffffffffffffffffffffffffffffff1690565b6040517f5cf4ee91000000000000000000000000000000000000000000000000000000008152600481018390526024810185905273ffffffffffffffffffffffffffffffffffffffff9190911690635cf4ee9190604401602060405180830381865afa158015610e21573d5f5f3e3d5ffd5b505050506040513d601f19601f82011682018060405250810190610e45919061477b565b91505f610e506107bc565b90505f8173ffffffffffffffffffffffffffffffffffffffff16631b159e2e6040518163ffffffff1660e01b8152600401602060405180830381865afa158015610e9c573d5f5f3e3d5ffd5b505050506040513d601f19601f82011682018060405250810190610ec0919061477b565b905080841015610f40578173ffffffffffffffffffffffffffffffffffffffff16630eac306d6040518163ffffffff1660e01b8152600401602060405180830381865afa158015610f13573d5f5f3e3d5ffd5b505050506040513d601f19601f82011682018060405250810190610f37919061477b565b95945050505050565b505050919050565b5f8281527fc21004fcc619240a31f006438274d15cd813308303284436eef6055f0fdcb60960205260408120547fc21004fcc619240a31f006438274d15cd813308303284436eef6055f0fdcb600908015610fa657915061052b9050565b610f3784610d65565b805f5260045ffd5b610fbf6107bc565b73ffffffffffffffffffffffffffffffffffffffff16632cbb9d136040518163ffffffff1660e01b8152600401602060405180830381865afa158015611007573d5f5f3e3d5ffd5b505050506040513d601f19601f8201168201806040525081019061102b919061477b565b811115610b0857610b087fc3983b9100000000000000000000000000000000000000000000000000000000610faf565b7fc21004fcc619240a31f006438274d15cd813308303284436eef6055f0fdcb6078190557fc21004fcc619240a31f006438274d15cd813308303284436eef6055f0fdcb60d80547fffffffffffffffffffffffffffffffffffffffffffffffffffffffffffffff001660011790556040517fc21004fcc619240a31f006438274d15cd813308303284436eef6055f0fdcb6009082907fab14a23e88fb272313490d4f20d63098e64fd38304c0e07a377db98c2b39b92f905f90a25050565b61112282611b59565b5f61112b611c4f565b9050801561113b5761113b611ce8565b6111458383611d76565b5f826040516020016111579190614792565b604080517fffffffffffffffffffffffffffffffffffffffffffffffffffffffffffffffe081840301815291905290507f686f7684000000000000000000000000000000000000000000000000000000005f6111be866111b984338388611e1b565b611e4d565b90505f5f6111cd883385611f88565b915091508061120d5781156112035785156111eb576111eb836121dd565b6111f58389612361565b6111fe886123ec565b61120d565b61120d83896124d6565b5050505050505050565b5f6112206107bc565b73ffffffffffffffffffffffffffffffffffffffff16630eac306d6040518163ffffffff1660e01b8152600401602060405180830381865afa158015611268573d5f5f3e3d5ffd5b505050506040513d601f19601f8201168201806040525081019061128c919061477b565b905080821015610479576104797f3447ac8e00000000000000000000000000000000000000000000000000000000610faf565b7fc21004fcc619240a31f006438274d15cd813308303284436eef6055f0fdcb60d545f907fc21004fcc619240a31f006438274d15cd813308303284436eef6055f0fdcb6009060ff16156113165760070154919050565b61131e6107bc565b73ffffffffffffffffffffffffffffffffffffffff16632cbb9d136040518163ffffffff1660e01b8152600401602060405180830381865afa158015611366573d5f5f3e3d5ffd5b505050506040513d601f19601f82011682018060405250810190610d34919061477b565b5f61052b8261253c565b5f61139d6107bc565b73ffffffffffffffffffffffffffffffffffffffff16638120f0ba6040518163ffffffff1660e01b8152600401602060405180830381865afa1580156113e5573d5f5f3e3d5ffd5b505050506040513d601f19601f820116820180604052508101906104d191906147ec565b5f611413826118ad565b905061052b6114567fc21004fcc619240a31f006438274d15cd813308303284436eef6055f0fdcb6045473ffffffffffffffffffffffffffffffffffffffff1690565b8461145f6107bc565b73ffffffffffffffffffffffffffffffffffffffff16634ccb20c06040518163ffffffff1660e01b8152600401602060405180830381865afa1580156114a7573d5f5f3e3d5ffd5b505050506040513d601f19601f820116820180604052508101906114cb91906145ba565b8461266d565b5f7fc21004fcc619240a31f006438274d15cd813308303284436eef6055f0fdcb600816115327fc21004fcc619240a31f006438274d15cd813308303284436eef6055f0fdcb6045473ffffffffffffffffffffffffffffffffffffffff1690565b90507fffffffffffffffffffffffff111111111111111111111111111111111111111273ffffffffffffffffffffffffffffffffffffffff821601611594578382600a015f8282546115849190614813565b9091555084935061052b92505050565b5f6115b573ffffffffffffffffffffffffffffffffffffffff8316306126d1565b90506115c38287308861266d565b5f6115e473ffffffffffffffffffffffffffffffffffffffff8416306126d1565b90505f6115f183836145a7565b9050868114611623576116237fb1296a8a00000000000000000000000000000000000000000000000000000000610faf565b8085600a015f8282546116369190614813565b909155509098975050505050505050565b5f8281527f4775a23600034fdd9f073b224f794d51a58b35ba663a9602623ba7a5c09cce0060208190526040822054909167ffffffffffffffff9091169081810361169d576116968442614826565b90506116aa565b6116a78483614826565b90505b5f858152602084815260409182902080547fffffffffffffffffffffffffffffffffffffffffffffffff00000000000000001667ffffffffffffffff8516908117909155915191825286917f2ec2be2c4b90c2cf13ecb6751a24daed6bb741ae5ed3f7371aabf9402f6d62e8910160405180910390a25050505050565b61173081611b59565b5f611739611c4f565b9050801561174957611749611ce8565b5f638c625b0660e01b90505f611773846111b984338860405180602001604052805f815250611e1b565b90505f5f611782863385611f88565b91509150806117c25781156117b85784156117a0576117a083612704565b6117aa8387612361565b6117b3866123ec565b6117c2565b6117c283876124d6565b505050505050565b60607fc21004fcc619240a31f006438274d15cd813308303284436eef6055f0fdcb600600c0180546117fb906145d5565b80601f0160208091040260200160405190810160405280929190818152602001828054611827906145d5565b80156118725780601f1061184957610100808354040283529160200191611872565b820191905f5260205f20905b81548152906001019060200180831161185557829003601f168201915b5050505050905090565b80821015610479576104797fccc9aa2e00000000000000000000000000000000000000000000000000000000610faf565b5f5f6118b76107bc565b90505f8173ffffffffffffffffffffffffffffffffffffffff16631b159e2e6040518163ffffffff1660e01b8152600401602060405180830381865afa158015611903573d5f5f3e3d5ffd5b505050506040513d601f19601f82011682018060405250810190611927919061477b565b9050808410156119a6578173ffffffffffffffffffffffffffffffffffffffff16630eac306d6040518163ffffffff1660e01b8152600401602060405180830381865afa15801561197a573d5f5f3e3d5ffd5b505050506040513d601f19601f8201168201806040525081019061199e919061477b565b949350505050565b61199e848373ffffffffffffffffffffffffffffffffffffffff16639f6542aa6040518163ffffffff1660e01b8152600401602060405180830381865afa1580156119f3573d5f5f3e3d5ffd5b505050506040513d601f19601f82011682018060405250810190611a179190614846565b61ffff16612822565b73ffffffffffffffffffffffffffffffffffffffff8116611a6457611a647f0e88bf4b00000000000000000000000000000000000000000000000000000000610faf565b7fc21004fcc619240a31f006438274d15cd813308303284436eef6055f0fdcb6065473ffffffffffffffffffffffffffffffffffffffff166040517f8df80bd600000000000000000000000000000000000000000000000000000000815273ffffffffffffffffffffffffffffffffffffffff83811660048301529190911690638df80bd690602401602060405180830381865afa158015611b08573d5f5f3e3d5ffd5b505050506040513d601f19601f82011682018060405250810190611b2c919061487b565b610b0857610b087f0e88bf4b00000000000000000000000000000000000000000000000000000000610faf565b73ffffffffffffffffffffffffffffffffffffffff8116611b9d57611b9d7f5fbd571700000000000000000000000000000000000000000000000000000000610faf565b5f611bc67fc21004fcc619240a31f006438274d15cd813308303284436eef6055f0fdcb6035490565b90508015801590611c21575080611c1e7f6569bde4a160c636ea8b8d11acb83a60d7fec0b8f2e09389306cba0e1340df01547f6569bde4a160c636ea8b8d11acb83a60d7fec0b8f2e09389306cba0e1340df00540390565b10155b15610479576104797f7efcdb4900000000000000000000000000000000000000000000000000000000610faf565b5f5f611c9c7f6569bde4a160c636ea8b8d11acb83a60d7fec0b8f2e09389306cba0e1340df01547f6569bde4a160c636ea8b8d11acb83a60d7fec0b8f2e09389306cba0e1340df00540390565b90505f611ca76112bf565b90505f611cb26128d3565b905082821115611cc5575f935050505090565b8015611cde57611cd560016128fc565b5f935050505090565b6001935050505090565b5f611d376104cc7f6569bde4a160c636ea8b8d11acb83a60d7fec0b8f2e09389306cba0e1340df01547f6569bde4a160c636ea8b8d11acb83a60d7fec0b8f2e09389306cba0e1340df00540390565b90505f611d4382612939565b905080341015610479576104797fb1296a8a00000000000000000000000000000000000000000000000000000000610faf565b602081015173ffffffffffffffffffffffffffffffffffffffff1615610479578173ffffffffffffffffffffffffffffffffffffffff16816020015173ffffffffffffffffffffffffffffffffffffffff161480611ded5750602081015173ffffffffffffffffffffffffffffffffffffffff1633145b15610479576104797f5fbd571700000000000000000000000000000000000000000000000000000000610faf565b606084848484604051602001611e349493929190614894565b6040516020818303038152906040529050949350505050565b6040517fffffffffffffffffffffffffffffffffffffffff000000000000000000000000606084901b1660208201524360348201525f908190605401604051602081830303815290604052805190602001209050611f2c81611f008387611eb386612969565b6040805160208082019590955273ffffffffffffffffffffffffffffffffffffffff9390931683820152606080840192909252805180840390920182526080909201909152805191012090565b604080516020808201949094528082019290925280518083038201815260609092019052805191012090565b91505f611f38836129af565b511115611f6857611f687ff82e65c300000000000000000000000000000000000000000000000000000000610faf565b611f728284612a8f565b3415611f8157611f8182612ae7565b5092915050565b5f5f5f611fc96040518060400160405280600981526020017f4a6f696e53706163650000000000000000000000000000000000000000000000815250612b45565b90505f611fd587612ce2565b82519091505f5b818110156121d0575f848281518110611ff757611ff7614910565b6020026020010151905080604001511561201157506121c8565b5f5b8160800151518110156121c5575f8260800151828151811061203757612037614910565b602002602001015190508073ffffffffffffffffffffffffffffffffffffffff16630cf0b5335f5f1b886040518060400160405280600981526020017f4a6f696e537061636500000000000000000000000000000000000000000000008152506040516020016120a7919061493d565b6040516020818303038152906040526120bf90614953565b6040518463ffffffff1660e01b81526004016120dd93929190614995565b602060405180830381865afa1580156120f8573d5f5f3e3d5ffd5b505050506040513d601f19601f8201168201806040525081019061211c919061487b565b156121355750600197505f96506121d595505050505050565b8073ffffffffffffffffffffffffffffffffffffffff16632e1b61e46040518163ffffffff1660e01b8152600401602060405180830381865afa15801561217e573d5f5f3e3d5ffd5b505050506040513d601f19601f820116820180604052508101906121a2919061487b565b156121bc576121b78c8c8c84875f0151613026565b600197505b50600101612013565b50505b600101611fdc565b505050505b935093915050565b5f61222c6104cc7f6569bde4a160c636ea8b8d11acb83a60d7fec0b8f2e09389306cba0e1340df01547f6569bde4a160c636ea8b8d11acb83a60d7fec0b8f2e09389306cba0e1340df00540390565b90505f61223882612939565b90505f5f5f5f612247876129af565b80602001905181019061225a9190614a65565b929650909450925090507fffffffff0000000000000000000000000000000000000000000000000000000084167f686f768400000000000000000000000000000000000000000000000000000000146122d6576122d67fda6153bd00000000000000000000000000000000000000000000000000000000610faf565b5f818060200190518101906122eb9190614ae9565b90505f5f6122f9868a611409565b90505f61230a87855f01518c613242565b90505f61232188866020015187604001518e6133af565b9050808261232f858d6145a7565b61233991906145a7565b61234391906145a7565b93505050506123568986868a858d613531565b505050505050505050565b5f8281527f34516f6fe09a043d57f1ff579a303a7ae85314751c77b4eb1a55837604a86e01602052604090205480156123e75761239e8382613825565b6123e76123df7fc21004fcc619240a31f006438274d15cd813308303284436eef6055f0fdcb6045473ffffffffffffffffffffffffffffffffffffffff1690565b30848461266d565b505050565b5f6123f561388d565b9050612479816124496104cc7f6569bde4a160c636ea8b8d11acb83a60d7fec0b8f2e09389306cba0e1340df01547f6569bde4a160c636ea8b8d11acb83a60d7fec0b8f2e09389306cba0e1340df00540390565b5f9182527fc21004fcc619240a31f006438274d15cd813308303284436eef6055f0fdcb609602052604090912055565b6124848260016138b4565b61249081610989611394565b604051819073ffffffffffffffffffffffffffffffffffffffff8416907f2f40b0474996b72a4251e00fb9170cdd960deea1dc749772cbbab61395b9b576905f90a35050565b6124ee8260405180602001604052805f815250612a8f565b6124f88282612361565b60405173ffffffffffffffffffffffffffffffffffffffff8216907f86fd446d5c04e892d58b448a924dcd9c3ece3a5e0d2960b8c35cd475a5595a1f905f90a25050565b5f8181527f6569bde4a160c636ea8b8d11acb83a60d7fec0b8f2e09389306cba0e1340df046020526040812054907f6569bde4a160c636ea8b8d11acb83a60d7fec0b8f2e09389306cba0e1340df00907c01000000000000000000000000000000000000000000000000000000008316900361263a57815f0361263457805483106125f3576040517fdf2d9b4200000000000000000000000000000000000000000000000000000000815260040160405180910390fd5b5b7fffffffffffffffffffffffffffffffffffffffffffffffffffffffffffffffff9092015f818152600484016020526040902054909290915081156125f4575b50919050565b506040517fdf2d9b4200000000000000000000000000000000000000000000000000000000815260040160405180910390fd5b80156126cb577fffffffffffffffffffffffff111111111111111111111111111111111111111273ffffffffffffffffffffffffffffffffffffffff8516016126bf576126ba82826138cd565b6126cb565b6126cb848484846138ed565b50505050565b5f816014526f70a082310000000000000000000000005f5260208060246010865afa601f3d111660205102905092915050565b5f6127536104cc7f6569bde4a160c636ea8b8d11acb83a60d7fec0b8f2e09389306cba0e1340df01547f6569bde4a160c636ea8b8d11acb83a60d7fec0b8f2e09389306cba0e1340df00540390565b90505f61275f82612939565b90505f5f5f61276d866129af565b8060200190518101906127809190614a65565b50919450925090507fffffffff0000000000000000000000000000000000000000000000000000000083167f8c625b0600000000000000000000000000000000000000000000000000000000146127fa576127fa7fda6153bd00000000000000000000000000000000000000000000000000000000610faf565b5f6128058387611409565b90505f61281282876145a7565b905061120d88858589858c613531565b5f6127108211156128b5576040517f08c379a000000000000000000000000000000000000000000000000000000000815260206004820152602160248201527f426173697320706f696e74732063616e6e6f74206578636565642031305f303060448201527f30000000000000000000000000000000000000000000000000000000000000006064820152608401610432565b6127106128c28385614b91565b6128cc9190614ba8565b9392505050565b5f7f097b4f25b64e012d0cf55f67e9b34fe5d57f15b11b95baa4ddd136b424967c005b54919050565b7f097b4f25b64e012d0cf55f67e9b34fe5d57f15b11b95baa4ddd136b424967c008054829082905f906129309084906145a7565b90915550505050565b5f5f6129436128d3565b9050801561295357505f92915050565b825f0361296257505f92915050565b5090919050565b5f8181527f34516f6fe09a043d57f1ff579a303a7ae85314751c77b4eb1a55837604a86e00602081905260408220805490836129a483614be0565b909155509392505050565b5f8181527f34516f6fe09a043d57f1ff579a303a7ae85314751c77b4eb1a55837604a86e026020526040902080546060917f34516f6fe09a043d57f1ff579a303a7ae85314751c77b4eb1a55837604a86e0091612a0b906145d5565b80601f0160208091040260200160405190810160405280929190818152602001828054612a37906145d5565b8015612a825780601f10612a5957610100808354040283529160200191612a82565b820191905f5260205f20905b815481529060010190602001808311612a6557829003601f168201915b5050505050915050919050565b5f8281527f34516f6fe09a043d57f1ff579a303a7ae85314751c77b4eb1a55837604a86e02602052604090207f34516f6fe09a043d57f1ff579a303a7ae85314751c77b4eb1a55837604a86e00906126cb8382614664565b5f8181527f34516f6fe09a043d57f1ff579a303a7ae85314751c77b4eb1a55837604a86e016020526040812080547f34516f6fe09a043d57f1ff579a303a7ae85314751c77b4eb1a55837604a86e0092349291612930908490614813565b60605f612b50613981565b80519091505f8167ffffffffffffffff811115612b6f57612b6f61432d565b604051908082528060200260200182016040528015612bd257816020015b612bbf6040518060a001604052805f8152602001606081526020015f1515815260200160608152602001606081525090565b815260200190600190039081612b8d5790505b50855160208701209091505f90815b84811015612cd6575f5f5f5f612c0f8a8681518110612c0257612c02614910565b60200260200101516139ac565b929650909450925090505f5b8251811015612cc55786838281518110612c3757612c37614910565b60200260200101518051906020012003612cbd576040518060a001604052808c8881518110612c6857612c68614910565b60200260200101518152602001868152602001851515815260200184815260200183815250898981518110612c9f57612c9f614910565b60200260200101819052508780612cb590614be0565b985050612cc5565b600101612c1b565b505060019093019250612be1915050565b50508152949350505050565b60605f7fc21004fcc619240a31f006438274d15cd813308303284436eef6055f0fdcb600600601546040517f02345b9800000000000000000000000000000000000000000000000000000000815273ffffffffffffffffffffffffffffffffffffffff858116600483015290911691505f9082906302345b98906024015f60405180830381865afa158015612d79573d5f5f3e3d5ffd5b505050506040513d5f823e601f3d9081017fffffffffffffffffffffffffffffffffffffffffffffffffffffffffffffffe0168201604052612dbe9190810190614c17565b905080515f03612f2f576040517ff821039800000000000000000000000000000000000000000000000000000000815273ffffffffffffffffffffffffffffffffffffffff85811660048301525f919084169063f821039890602401602060405180830381865afa158015612e35573d5f5f3e3d5ffd5b505050506040513d601f19601f82011682018060405250810190612e5991906145ba565b905073ffffffffffffffffffffffffffffffffffffffff811615612f2d576040517f02345b9800000000000000000000000000000000000000000000000000000000815273ffffffffffffffffffffffffffffffffffffffff808316600483015291955085918416906302345b98906024015f60405180830381865afa158015612ee5573d5f5f3e3d5ffd5b505050506040513d5f823e601f3d9081017fffffffffffffffffffffffffffffffffffffffffffffffffffffffffffffffe0168201604052612f2a9190810190614c17565b91505b505b80515f612f3d826001614813565b67ffffffffffffffff811115612f5557612f5561432d565b604051908082528060200260200182016040528015612f7e578160200160208202803683370190505b5090505f5b82811015612fe457838181518110612f9d57612f9d614910565b6020026020010151828281518110612fb757612fb7614910565b73ffffffffffffffffffffffffffffffffffffffff90921660209283029190910190910152600101612f83565b5085818381518110612ff857612ff8614910565b73ffffffffffffffffffffffffffffffffffffffff9092166020928302919091019091015295945050505050565b73ffffffffffffffffffffffffffffffffffffffff851661306a5761306a7f99ef038800000000000000000000000000000000000000000000000000000000610faf565b73ffffffffffffffffffffffffffffffffffffffff82166130ae576130ae7f4bb7c20500000000000000000000000000000000000000000000000000000000610faf565b5f8381527f9075c515a635ba70c9696f31149324218d75cf00afe836c482e6473f38b19e016020908152604080832080547fffffffffffffffffffffffffffffffffffffffffffffffffffffffffffffff001660011781556003810180547fffffffffffffffffffffffff00000000000000000000000000000000000000001673ffffffffffffffffffffffffffffffffffffffff888116919091179091558251908916938101939093527f9075c515a635ba70c9696f31149324218d75cf00afe836c482e6473f38b19e00939092909101604080517fffffffffffffffffffffffffffffffffffffffffffffffffffffffffffffffe08184030181529082905284547f21be050a00000000000000000000000000000000000000000000000000000000835290925073ffffffffffffffffffffffffffffffffffffffff16906321be050a90349061320a908c908b908a908890600401614ccb565b5f604051808303818588803b158015613221575f5ffd5b505af1158015613233573d5f5f3e3d5ffd5b50505050505050505050505050565b5f73ffffffffffffffffffffffffffffffffffffffff831661326557505f6128cc565b5f6132a47fc21004fcc619240a31f006438274d15cd813308303284436eef6055f0fdcb6065473ffffffffffffffffffffffffffffffffffffffff1690565b6040517f5cb4f54800000000000000000000000000000000000000000000000000000000815273ffffffffffffffffffffffffffffffffffffffff86811660048301529190911690635cb4f54890602401608060405180830381865afa158015613310573d5f5f3e3d5ffd5b505050506040513d601f19601f820116820180604052508101906133349190614d05565b905080604001515f0361334a575f9150506128cc565b613358838260400151612822565b91506133a761339b7fc21004fcc619240a31f006438274d15cd813308303284436eef6055f0fdcb6045473ffffffffffffffffffffffffffffffffffffffff1690565b8683602001518561266d565b509392505050565b5f82515f1461345f575f6133c284613aca565b604081015190915073ffffffffffffffffffffffffffffffffffffffff1615806133ee57506020810151155b156133fc575f91505061199e565b61340a838260200151612822565b915061345961344d7fc21004fcc619240a31f006438274d15cd813308303284436eef6055f0fdcb6045473ffffffffffffffffffffffffffffffffffffffff1690565b8783604001518561266d565b5061199e565b73ffffffffffffffffffffffffffffffffffffffff84161561199e578473ffffffffffffffffffffffffffffffffffffffff168473ffffffffffffffffffffffffffffffffffffffff16036134b557505f61199e565b6134e6826134e17faca21cc4d2a125f3e0ae03aa135d42b2b9177631aca87599d42a68b47e9008015490565b612822565b905061199e6135297fc21004fcc619240a31f006438274d15cd813308303284436eef6055f0fdcb6045473ffffffffffffffffffffffffffffffffffffffff1690565b86868461266d565b81156135435761354185836114d1565b505b61354d8684613825565b6135658660405180602001604052805f815250612a8f565b5f6135a47fc21004fcc619240a31f006438274d15cd813308303284436eef6055f0fdcb6065473ffffffffffffffffffffffffffffffffffffffff1690565b6040517f44ab66800000000000000000000000000000000000000000000000000000000081527f526976657241697264726f700000000000000000000000000000000000000000600482015273ffffffffffffffffffffffffffffffffffffffff91909116906344ab668090602401602060405180830381865afa15801561362e573d5f5f3e3d5ffd5b505050506040513d601f19601f8201168201806040525081019061365291906145ba565b90505f8173ffffffffffffffffffffffffffffffffffffffff1663dc69fdde5f8560405160200161368591815260200190565b6040516020818303038152906040526040518363ffffffff1660e01b81526004016136b1929190614d7f565b602060405180830381865afa1580156136cc573d5f5f3e3d5ffd5b505050506040513d601f19601f820116820180604052508101906136f0919061477b565b6040517f40c10f1900000000000000000000000000000000000000000000000000000000815273ffffffffffffffffffffffffffffffffffffffff888116600483015260248201839052919250908316906340c10f19906044015f604051808303815f87803b158015613761575f5ffd5b505af1158015613773573d5f5f3e3d5ffd5b505050508173ffffffffffffffffffffffffffffffffffffffff166340c10f1961379b610c7a565b6040517fffffffff0000000000000000000000000000000000000000000000000000000060e084901b16815273ffffffffffffffffffffffffffffffffffffffff9091166004820152602481018490526044015f604051808303815f87803b158015613805575f5ffd5b505af1158015613817573d5f5f3e3d5ffd5b505050505050505050505050565b5f8281527f34516f6fe09a043d57f1ff579a303a7ae85314751c77b4eb1a55837604a86e016020526040812080547f34516f6fe09a043d57f1ff579a303a7ae85314751c77b4eb1a55837604a86e00928492916138839084906145a7565b9091555050505050565b5f7f6569bde4a160c636ea8b8d11acb83a60d7fec0b8f2e09389306cba0e1340df006128f6565b610479828260405180602001604052805f815250613b72565b61047973ffffffffffffffffffffffffffffffffffffffff831682613c3a565b8173ffffffffffffffffffffffffffffffffffffffff168373ffffffffffffffffffffffffffffffffffffffff1603156126cb573073ffffffffffffffffffffffffffffffffffffffff84160361395f576126ba73ffffffffffffffffffffffffffffffffffffffff85168383613c53565b6126cb73ffffffffffffffffffffffffffffffffffffffff8516848484613ca6565b60606104d17f672ef851d5f92307da037116e23aa9e31af7e1f7e3ca62c4e6d540631df3fd01613d08565b5f8181527f672ef851d5f92307da037116e23aa9e31af7e1f7e3ca62c4e6d540631df3fd0360205260408120805460609291839182917f672ef851d5f92307da037116e23aa9e31af7e1f7e3ca62c4e6d540631df3fd0091613a0d906145d5565b80601f0160208091040260200160405190810160405280929190818152602001828054613a39906145d5565b8015613a845780601f10613a5b57610100808354040283529160200191613a84565b820191905f5260205f20905b815481529060010190602001808311613a6757829003601f168201915b5050505f8981526003850160205260409020600181015493985060ff9093169650613ab5926002019150613d149050565b9250613ac086613deb565b9150509193509193565b613b026040518060600160405280606081526020015f81526020015f73ffffffffffffffffffffffffffffffffffffffff1681525090565b5080516020808301919091205f9081527faca21cc4d2a125f3e0ae03aa135d42b2b9177631aca87599d42a68b47e9008028252604090819020815160608101835293845280549284019290925260019091015473ffffffffffffffffffffffffffffffffffffffff169082015290565b613b7c8383613ed2565b73ffffffffffffffffffffffffffffffffffffffff83163b156123e7577f6569bde4a160c636ea8b8d11acb83a60d7fec0b8f2e09389306cba0e1340df00548281035b613bd15f868380600101945086614087565b613c07576040517fd1a57ed600000000000000000000000000000000000000000000000000000000815260040160405180910390fd5b818110613bbf57817f6569bde4a160c636ea8b8d11acb83a60d7fec0b8f2e09389306cba0e1340df0054146107ac575f5ffd5b5f385f3884865af16104795763b12d13eb5f526004601cfd5b81601452806034526fa9059cbb0000000000000000000000005f5260205f604460105f875af18060015f511416613c9c57803d853b151710613c9c576390b8ec185f526004601cfd5b505f603452505050565b60405181606052826040528360601b602c526f23b872dd000000000000000000000000600c5260205f6064601c5f895af18060015f511416613cfa57803d873b151710613cfa57637939f4245f526004601cfd5b505f60605260405250505050565b60605f6128cc836141f9565b6060815f01805480602002602001604051908101604052809291908181526020015f905b82821015613de0578382905f5260205f20018054613d55906145d5565b80601f0160208091040260200160405190810160405280929190818152602001828054613d81906145d5565b8015613dcc5780601f10613da357610100808354040283529160200191613dcc565b820191905f5260205f20905b815481529060010190602001808311613daf57829003601f168201915b505050505081526020019060010190613d38565b505050509050919050565b5f8181527f672ef851d5f92307da037116e23aa9e31af7e1f7e3ca62c4e6d540631df3fd0360205260408120606091600490910190613e2982614252565b90505f8167ffffffffffffffff811115613e4557613e4561432d565b604051908082528060200260200182016040528015613e6e578160200160208202803683370190505b5090505f5b82811015613ec9575f613e86858361425b565b905080838381518110613e9b57613e9b614910565b73ffffffffffffffffffffffffffffffffffffffff9092166020928302919091019091015250600101613e73565b50949350505050565b7f6569bde4a160c636ea8b8d11acb83a60d7fec0b8f2e09389306cba0e1340df00545f829003613f2e576040517fb562e8dd00000000000000000000000000000000000000000000000000000000815260040160405180910390fd5b73ffffffffffffffffffffffffffffffffffffffff83165f8181527f6569bde4a160c636ea8b8d11acb83a60d7fec0b8f2e09389306cba0e1340df056020908152604080832080546801000000000000000188020190558483527f6569bde4a160c636ea8b8d11acb83a60d7fec0b8f2e09389306cba0e1340df0490915281206001851460e11b4260a01b178317905582840190839083907fddf252ad1be2c89b69c2b068fc378daa952ba7f163c4a11628f55a4df523b3ef8180a4600183015b8181146140255780835f7fddf252ad1be2c89b69c2b068fc378daa952ba7f163c4a11628f55a4df523b3ef5f5fa4600101613fef565b50815f0361405f576040517f2e07630000000000000000000000000000000000000000000000000000000000815260040160405180910390fd5b7f6569bde4a160c636ea8b8d11acb83a60d7fec0b8f2e09389306cba0e1340df005550505050565b6040517f150b7a020000000000000000000000000000000000000000000000000000000081525f9073ffffffffffffffffffffffffffffffffffffffff85169063150b7a02906140e1903390899088908890600401614dcc565b6020604051808303815f875af1925050508015614139575060408051601f3d9081017fffffffffffffffffffffffffffffffffffffffffffffffffffffffffffffffe016820190925261413691810190614e1c565b60015b6141ae573d808015614166576040519150601f19603f3d011682016040523d82523d5f602084013e61416b565b606091505b5080515f036141a6576040517fd1a57ed600000000000000000000000000000000000000000000000000000000815260040160405180910390fd5b805181602001fd5b7fffffffff00000000000000000000000000000000000000000000000000000000167f150b7a020000000000000000000000000000000000000000000000000000000014905061199e565b6060815f0180548060200260200160405190810160405280929190818152602001828054801561424657602002820191905f5260205f20905b815481526020019060010190808311614232575b50505050509050919050565b5f61052b825490565b5f6128cc83835f825f01828154811061427657614276614910565b905f5260205f200154905092915050565b5f5f60208385031215614298575f5ffd5b823567ffffffffffffffff8111156142ae575f5ffd5b8301601f810185136142be575f5ffd5b803567ffffffffffffffff8111156142d4575f5ffd5b8560208284010111156142e5575f5ffd5b6020919091019590945092505050565b5f60208284031215614305575f5ffd5b5035919050565b73ffffffffffffffffffffffffffffffffffffffff81168114610b08575f5ffd5b7f4e487b71000000000000000000000000000000000000000000000000000000005f52604160045260245ffd5b6040516060810167ffffffffffffffff8111828210171561437d5761437d61432d565b60405290565b604051601f82017fffffffffffffffffffffffffffffffffffffffffffffffffffffffffffffffe016810167ffffffffffffffff811182821017156143ca576143ca61432d565b604052919050565b5f67ffffffffffffffff8211156143eb576143eb61432d565b50601f017fffffffffffffffffffffffffffffffffffffffffffffffffffffffffffffffe01660200190565b5f5f60408385031215614428575f5ffd5b82356144338161430c565b9150602083013567ffffffffffffffff81111561444e575f5ffd5b83016060818603121561445f575f5ffd5b61446761435a565b81356144728161430c565b815260208201356144828161430c565b6020820152604082013567ffffffffffffffff8111156144a0575f5ffd5b80830192505085601f8301126144b4575f5ffd5b81356144c76144c2826143d2565b614383565b8181528760208386010111156144db575f5ffd5b816020850160208301375f60208383010152806040840152505080925050509250929050565b5f60208284031215614511575f5ffd5b81356128cc8161430c565b5f81518084528060208401602086015e5f6020828601015260207fffffffffffffffffffffffffffffffffffffffffffffffffffffffffffffffe0601f83011685010191505092915050565b602081525f6128cc602083018461451c565b7f4e487b71000000000000000000000000000000000000000000000000000000005f52601160045260245ffd5b8181038181111561052b5761052b61457a565b5f602082840312156145ca575f5ffd5b81516128cc8161430c565b600181811c908216806145e957607f821691505b602082108103612634577f4e487b71000000000000000000000000000000000000000000000000000000005f52602260045260245ffd5b601f8211156123e757805f5260205f20601f840160051c810160208510156146455750805b601f840160051c820191505b818110156107ac575f8155600101614651565b815167ffffffffffffffff81111561467e5761467e61432d565b6146928161468c84546145d5565b84614620565b6020601f8211600181146146e3575f83156146ad5750848201515b7fffffffffffffffffffffffffffffffffffffffffffffffffffffffffffffffff600385901b1c1916600184901b1784556107ac565b5f848152602081207fffffffffffffffffffffffffffffffffffffffffffffffffffffffffffffffe08516915b828110156147305787850151825560209485019460019092019101614710565b508482101561476c57868401517fffffffffffffffffffffffffffffffffffffffffffffffffffffffffffffffff600387901b60f8161c191681555b50505050600190811b01905550565b5f6020828403121561478b575f5ffd5b5051919050565b6020815273ffffffffffffffffffffffffffffffffffffffff825116602082015273ffffffffffffffffffffffffffffffffffffffff60208301511660408201525f604083015160608084015261199e608084018261451c565b5f602082840312156147fc575f5ffd5b815167ffffffffffffffff811681146128cc575f5ffd5b8082018082111561052b5761052b61457a565b67ffffffffffffffff818116838216019081111561052b5761052b61457a565b5f60208284031215614856575f5ffd5b815161ffff811681146128cc575f5ffd5b80518015158114614876575f5ffd5b919050565b5f6020828403121561488b575f5ffd5b6128cc82614867565b7fffffffff000000000000000000000000000000000000000000000000000000008516815273ffffffffffffffffffffffffffffffffffffffff8416602082015273ffffffffffffffffffffffffffffffffffffffff83166040820152608060608201525f614906608083018461451c565b9695505050505050565b7f4e487b71000000000000000000000000000000000000000000000000000000005f52603260045260245ffd5b5f82518060208501845e5f920191825250919050565b80516020808301519190811015612634577fffffffffffffffffffffffffffffffffffffffffffffffffffffffffffffffff60209190910360031b1b16919050565b5f60608201858352606060208401528085518083526080850191506020870192505f5b818110156149ec57835173ffffffffffffffffffffffffffffffffffffffff168352602093840193909201916001016149b8565b505060409390930193909352509392505050565b80517fffffffff0000000000000000000000000000000000000000000000000000000081168114614876575f5ffd5b5f614a3c6144c2846143d2565b9050828152838383011115614a4f575f5ffd5b8282602083015e5f602084830101529392505050565b5f5f5f5f60808587031215614a78575f5ffd5b614a8185614a00565b93506020850151614a918161430c565b6040860151909350614aa28161430c565b606086015190925067ffffffffffffffff811115614abe575f5ffd5b8501601f81018713614ace575f5ffd5b614add87825160208401614a2f565b91505092959194509250565b5f60208284031215614af9575f5ffd5b815167ffffffffffffffff811115614b0f575f5ffd5b820160608185031215614b20575f5ffd5b614b2861435a565b8151614b338161430c565b81526020820151614b438161430c565b6020820152604082015167ffffffffffffffff811115614b61575f5ffd5b80830192505084601f830112614b75575f5ffd5b614b8485835160208501614a2f565b6040820152949350505050565b808202811582820484141761052b5761052b61457a565b5f82614bdb577f4e487b71000000000000000000000000000000000000000000000000000000005f52601260045260245ffd5b500490565b5f7fffffffffffffffffffffffffffffffffffffffffffffffffffffffffffffffff8203614c1057614c1061457a565b5060010190565b5f60208284031215614c27575f5ffd5b815167ffffffffffffffff811115614c3d575f5ffd5b8201601f81018413614c4d575f5ffd5b805167ffffffffffffffff811115614c6757614c6761432d565b8060051b614c7760208201614383565b91825260208184018101929081019087841115614c92575f5ffd5b6020850194505b83851015614cc05784519250614cae8361430c565b82825260209485019490910190614c99565b979650505050505050565b73ffffffffffffffffffffffffffffffffffffffff85168152836020820152826040820152608060608201525f614906608083018461451c565b5f6080828403128015614d16575f5ffd5b506040516080810167ffffffffffffffff81118282101715614d3a57614d3a61432d565b6040528251614d488161430c565b81526020830151614d588161430c565b602082015260408381015190820152614d7360608401614867565b60608201529392505050565b5f60038410614db5577f4e487b71000000000000000000000000000000000000000000000000000000005f52602160045260245ffd5b8382526040602083015261199e604083018461451c565b73ffffffffffffffffffffffffffffffffffffffff8516815273ffffffffffffffffffffffffffffffffffffffff84166020820152826040820152608060608201525f614906608083018461451c565b5f60208284031215614e2c575f5ffd5b6128cc82614a0056","linkReferences":{}},"methodIdentifiers":{"expiresAt(uint256)":"17c95709","getMembershipCurrency()":"657e45e8","getMembershipDuration()":"8120f0ba","getMembershipFreeAllocation()":"706b8e09","getMembershipImage()":"93b13cb7","getMembershipLimit()":"95d600c8","getMembershipPrice()":"1278076a","getMembershipPricingModule()":"e847abdd","getMembershipRenewalPrice(uint256)":"5803909f","getProtocolFee()":"a5a41031","getSpaceFactory()":"79dda585","joinSpace(address)":"8c625b06","joinSpaceWithReferral(address,(address,address,string))":"686f7684","renewMembership(uint256)":"7c9669ac","revenue()":"3e9491a2","setMembershipFreeAllocation(uint256)":"5becd24a","setMembershipImage(string)":"0ef1be5f","setMembershipLimit(uint256)":"97fb7c1e","setMembershipPrice(uint256)":"69d5f38a","setMembershipPricingModule(address)":"df9a9fe6"},"id":497}