{"abi":[{"type":"function","name":"expiresAt","inputs":[{"name":"tokenId","type":"uint256","internalType":"uint256"}],"outputs":[{"name":"","type":"uint256","internalType":"uint256"}],"stateMutability":"view"},{"type":"function","name":"getMembershipCurrency","inputs":[],"outputs":[{"name":"","type":"address","internalType":"address"}],"stateMutability":"view"},{"type":"function","name":"getMembershipDuration","inputs":[],"outputs":[{"name":"","type":"uint64","internalType":"uint64"}],"stateMutability":"view"},{"type":"function","name":"getMembershipFreeAllocation","inputs":[],"outputs":[{"name":"","type":"uint256","internalType":"uint256"}],"stateMutability":"view"},{"type":"function","name":"getMembershipImage","inputs":[],"outputs":[{"name":"","type":"string","internalType":"string"}],"stateMutability":"view"},{"type":"function","name":"getMembershipLimit","inputs":[],"outputs":[{"name":"","type":"uint256","internalType":"uint256"}],"stateMutability":"view"},{"type":"function","name":"getMembershipPrice","inputs":[],"outputs":[{"name":"","type":"uint256","internalType":"uint256"}],"stateMutability":"view"},{"type":"function","name":"getMembershipPricingModule","inputs":[],"outputs":[{"name":"","type":"address","internalType":"address"}],"stateMutability":"view"},{"type":"function","name":"getMembershipRenewalPrice","inputs":[{"name":"tokenId","type":"uint256","internalType":"uint256"}],"outputs":[{"name":"","type":"uint256","internalType":"uint256"}],"stateMutability":"view"},{"type":"function","name":"getProtocolFee","inputs":[],"outputs":[{"name":"","type":"uint256","internalType":"uint256"}],"stateMutability":"view"},{"type":"function","name":"getSpaceFactory","inputs":[],"outputs":[{"name":"","type":"address","internalType":"address"}],"stateMutability":"view"},{"type":"function","name":"joinSpace","inputs":[{"name":"receiver","type":"address","internalType":"address"}],"outputs":[],"stateMutability":"payable"},{"type":"function","name":"joinSpaceWithReferral","inputs":[{"name":"receiver","type":"address","internalType":"address"},{"name":"referral","type":"tuple","internalType":"struct IMembershipBase.ReferralTypes","components":[{"name":"partner","type":"address","internalType":"address"},{"name":"userReferral","type":"address","internalType":"address"},{"name":"referralCode","type":"string","internalType":"string"}]}],"outputs":[],"stateMutability":"payable"},{"type":"function","name":"renewMembership","inputs":[{"name":"tokenId","type":"uint256","internalType":"uint256"}],"outputs":[],"stateMutability":"payable"},{"type":"function","name":"revenue","inputs":[],"outputs":[{"name":"","type":"uint256","internalType":"uint256"}],"stateMutability":"view"},{"type":"function","name":"setMembershipFreeAllocation","inputs":[{"name":"newAllocation","type":"uint256","internalType":"uint256"}],"outputs":[],"stateMutability":"nonpayable"},{"type":"function","name":"setMembershipImage","inputs":[{"name":"newImage","type":"string","internalType":"string"}],"outputs":[],"stateMutability":"nonpayable"},{"type":"function","name":"setMembershipLimit","inputs":[{"name":"newLimit","type":"uint256","internalType":"uint256"}],"outputs":[],"stateMutability":"nonpayable"},{"type":"function","name":"setMembershipPrice","inputs":[{"name":"newPrice","type":"uint256","internalType":"uint256"}],"outputs":[],"stateMutability":"nonpayable"},{"type":"function","name":"setMembershipPricingModule","inputs":[{"name":"pricingModule","type":"address","internalType":"address"}],"outputs":[],"stateMutability":"nonpayable"},{"type":"function","name":"withdraw","inputs":[{"name":"account","type":"address","internalType":"address"}],"outputs":[],"stateMutability":"nonpayable"},{"type":"event","name":"Approval","inputs":[{"name":"owner","type":"address","indexed":true,"internalType":"address"},{"name":"approved","type":"address","indexed":true,"internalType":"address"},{"name":"tokenId","type":"uint256","indexed":true,"internalType":"uint256"}],"anonymous":false},{"type":"event","name":"ApprovalForAll","inputs":[{"name":"owner","type":"address","indexed":true,"internalType":"address"},{"name":"operator","type":"address","indexed":true,"internalType":"address"},{"name":"approved","type":"bool","indexed":false,"internalType":"bool"}],"anonymous":false},{"type":"event","name":"Banned","inputs":[{"name":"moderator","type":"address","indexed":true,"internalType":"address"},{"name":"tokenId","type":"uint256","indexed":true,"internalType":"uint256"}],"anonymous":false},{"type":"event","name":"ConsecutiveTransfer","inputs":[{"name":"fromTokenId","type":"uint256","indexed":true,"internalType":"uint256"},{"name":"toTokenId","type":"uint256","indexed":false,"internalType":"uint256"},{"name":"from","type":"address","indexed":true,"internalType":"address"},{"name":"to","type":"address","indexed":true,"internalType":"address"}],"anonymous":false},{"type":"event","name":"DefaultBpsFeeUpdated","inputs":[{"name":"defaultBpsFee","type":"uint256","indexed":false,"internalType":"uint256"}],"anonymous":false},{"type":"event","name":"EntitlementCheckResultPosted","inputs":[{"name":"transactionId","type":"bytes32","indexed":true,"internalType":"bytes32"},{"name":"result","type":"uint8","indexed":false,"internalType":"enum IEntitlementGatedBase.NodeVoteStatus"}],"anonymous":false},{"type":"event","name":"Initialized","inputs":[{"name":"version","type":"uint32","indexed":false,"internalType":"uint32"}],"anonymous":false},{"type":"event","name":"InterfaceAdded","inputs":[{"name":"interfaceId","type":"bytes4","indexed":true,"internalType":"bytes4"}],"anonymous":false},{"type":"event","name":"InterfaceRemoved","inputs":[{"name":"interfaceId","type":"bytes4","indexed":true,"internalType":"bytes4"}],"anonymous":false},{"type":"event","name":"MaxBpsFeeUpdated","inputs":[{"name":"maxBpsFee","type":"uint256","indexed":false,"internalType":"uint256"}],"anonymous":false},{"type":"event","name":"MaxPartnerFeeSet","inputs":[{"name":"fee","type":"uint256","indexed":false,"internalType":"uint256"}],"anonymous":false},{"type":"event","name":"MembershipCurrencyUpdated","inputs":[{"name":"currency","type":"address","indexed":true,"internalType":"address"}],"anonymous":false},{"type":"event","name":"MembershipFeeRecipientUpdated","inputs":[{"name":"recipient","type":"address","indexed":true,"internalType":"address"}],"anonymous":false},{"type":"event","name":"MembershipFreeAllocationUpdated","inputs":[{"name":"allocation","type":"uint256","indexed":true,"internalType":"uint256"}],"anonymous":false},{"type":"event","name":"MembershipLimitUpdated","inputs":[{"name":"limit","type":"uint256","indexed":true,"internalType":"uint256"}],"anonymous":false},{"type":"event","name":"MembershipPriceUpdated","inputs":[{"name":"price","type":"uint256","indexed":true,"internalType":"uint256"}],"anonymous":false},{"type":"event","name":"MembershipTokenIssued","inputs":[{"name":"recipient","type":"address","indexed":true,"internalType":"address"},{"name":"tokenId","type":"uint256","indexed":true,"internalType":"uint256"}],"anonymous":false},{"type":"event","name":"MembershipTokenRejected","inputs":[{"name":"recipient","type":"address","indexed":true,"internalType":"address"}],"anonymous":false},{"type":"event","name":"MembershipWithdrawal","inputs":[{"name":"recipient","type":"address","indexed":true,"internalType":"address"},{"name":"amount","type":"uint256","indexed":false,"internalType":"uint256"}],"anonymous":false},{"type":"event","name":"OwnershipTransferred","inputs":[{"name":"previousOwner","type":"address","indexed":true,"internalType":"address"},{"name":"newOwner","type":"address","indexed":true,"internalType":"address"}],"anonymous":false},{"type":"event","name":"PartnerRegistered","inputs":[{"name":"account","type":"address","indexed":true,"internalType":"address"}],"anonymous":false},{"type":"event","name":"PartnerRemoved","inputs":[{"name":"account","type":"address","indexed":true,"internalType":"address"}],"anonymous":false},{"type":"event","name":"PartnerUpdated","inputs":[{"name":"account","type":"address","indexed":true,"internalType":"address"}],"anonymous":false},{"type":"event","name":"Paused","inputs":[{"name":"account","type":"address","indexed":false,"internalType":"address"}],"anonymous":false},{"type":"event","name":"PermissionsAddedToChannelRole","inputs":[{"name":"updater","type":"address","indexed":true,"internalType":"address"},{"name":"roleId","type":"uint256","indexed":true,"internalType":"uint256"},{"name":"channelId","type":"bytes32","indexed":true,"internalType":"bytes32"}],"anonymous":false},{"type":"event","name":"PermissionsRemovedFromChannelRole","inputs":[{"name":"updater","type":"address","indexed":true,"internalType":"address"},{"name":"roleId","type":"uint256","indexed":true,"internalType":"uint256"},{"name":"channelId","type":"bytes32","indexed":true,"internalType":"bytes32"}],"anonymous":false},{"type":"event","name":"PermissionsUpdatedForChannelRole","inputs":[{"name":"updater","type":"address","indexed":true,"internalType":"address"},{"name":"roleId","type":"uint256","indexed":true,"internalType":"uint256"},{"name":"channelId","type":"bytes32","indexed":true,"internalType":"bytes32"}],"anonymous":false},{"type":"event","name":"Prepay__Prepaid","inputs":[{"name":"supply","type":"uint256","indexed":false,"internalType":"uint256"}],"anonymous":false},{"type":"event","name":"ReferralRegistered","inputs":[{"name":"referralCode","type":"bytes32","indexed":false,"internalType":"bytes32"},{"name":"basisPoints","type":"uint256","indexed":false,"internalType":"uint256"},{"name":"recipient","type":"address","indexed":false,"internalType":"address"}],"anonymous":false},{"type":"event","name":"ReferralRemoved","inputs":[{"name":"referralCode","type":"bytes32","indexed":false,"internalType":"bytes32"}],"anonymous":false},{"type":"event","name":"ReferralUpdated","inputs":[{"name":"referralCode","type":"bytes32","indexed":false,"internalType":"bytes32"},{"name":"basisPoints","type":"uint256","indexed":false,"internalType":"uint256"},{"name":"recipient","type":"address","indexed":false,"internalType":"address"}],"anonymous":false},{"type":"event","name":"RegistryFeeSet","inputs":[{"name":"fee","type":"uint256","indexed":false,"internalType":"uint256"}],"anonymous":false},{"type":"event","name":"RoleCreated","inputs":[{"name":"creator","type":"address","indexed":true,"internalType":"address"},{"name":"roleId","type":"uint256","indexed":true,"internalType":"uint256"}],"anonymous":false},{"type":"event","name":"RoleRemoved","inputs":[{"name":"remover","type":"address","indexed":true,"internalType":"address"},{"name":"roleId","type":"uint256","indexed":true,"internalType":"uint256"}],"anonymous":false},{"type":"event","name":"RoleUpdated","inputs":[{"name":"updater","type":"address","indexed":true,"internalType":"address"},{"name":"roleId","type":"uint256","indexed":true,"internalType":"uint256"}],"anonymous":false},{"type":"event","name":"SubscriptionUpdate","inputs":[{"name":"tokenId","type":"uint256","indexed":true,"internalType":"uint256"},{"name":"expiration","type":"uint64","indexed":false,"internalType":"uint64"}],"anonymous":false},{"type":"event","name":"Transfer","inputs":[{"name":"from","type":"address","indexed":true,"internalType":"address"},{"name":"to","type":"address","indexed":true,"internalType":"address"},{"name":"tokenId","type":"uint256","indexed":true,"internalType":"uint256"}],"anonymous":false},{"type":"event","name":"Unbanned","inputs":[{"name":"moderator","type":"address","indexed":true,"internalType":"address"},{"name":"tokenId","type":"uint256","indexed":true,"internalType":"uint256"}],"anonymous":false},{"type":"event","name":"Unpaused","inputs":[{"name":"account","type":"address","indexed":false,"internalType":"address"}],"anonymous":false},{"type":"error","name":"ApprovalCallerNotOwnerNorApproved","inputs":[]},{"type":"error","name":"ApprovalQueryForNonexistentToken","inputs":[]},{"type":"error","name":"BalanceQueryForZeroAddress","inputs":[]},{"type":"error","name":"Banning__AlreadyBanned","inputs":[{"name":"tokenId","type":"uint256","internalType":"uint256"}]},{"type":"error","name":"Banning__CannotBanOwner","inputs":[]},{"type":"error","name":"Banning__CannotBanSelf","inputs":[]},{"type":"error","name":"Banning__InvalidTokenId","inputs":[{"name":"tokenId","type":"uint256","internalType":"uint256"}]},{"type":"error","name":"Banning__NotBanned","inputs":[{"name":"tokenId","type":"uint256","internalType":"uint256"}]},{"type":"error","name":"Dispatcher__TransactionAlreadyExists","inputs":[]},{"type":"error","name":"ERC5643__DurationZero","inputs":[]},{"type":"error","name":"ERC5643__InvalidTokenId","inputs":[{"name":"tokenId","type":"uint256","internalType":"uint256"}]},{"type":"error","name":"ERC5643__NotApprovedOrOwner","inputs":[]},{"type":"error","name":"ERC5643__SubscriptionNotRenewable","inputs":[{"name":"tokenId","type":"uint256","internalType":"uint256"}]},{"type":"error","name":"EntitlementGated_InvalidAddress","inputs":[]},{"type":"error","name":"EntitlementGated_InvalidEntitlement","inputs":[]},{"type":"error","name":"EntitlementGated_NodeAlreadyVoted","inputs":[]},{"type":"error","name":"EntitlementGated_NodeNotFound","inputs":[]},{"type":"error","name":"EntitlementGated_OnlyEntitlementChecker","inputs":[]},{"type":"error","name":"EntitlementGated_RequestIdNotFound","inputs":[]},{"type":"error","name":"EntitlementGated_TransactionCheckAlreadyCompleted","inputs":[]},{"type":"error","name":"EntitlementGated_TransactionCheckAlreadyRegistered","inputs":[]},{"type":"error","name":"EntitlementGated_TransactionNotRegistered","inputs":[]},{"type":"error","name":"Entitlement__InvalidValue","inputs":[]},{"type":"error","name":"Entitlement__NotAllowed","inputs":[]},{"type":"error","name":"Entitlement__NotMember","inputs":[]},{"type":"error","name":"Entitlement__ValueAlreadyExists","inputs":[]},{"type":"error","name":"Initializable_InInitializingState","inputs":[]},{"type":"error","name":"Introspection_AlreadySupported","inputs":[]},{"type":"error","name":"Introspection_NotSupported","inputs":[]},{"type":"error","name":"Membership__AlreadyMember","inputs":[]},{"type":"error","name":"Membership__Banned","inputs":[]},{"type":"error","name":"Membership__InsufficientAllowance","inputs":[]},{"type":"error","name":"Membership__InsufficientPayment","inputs":[]},{"type":"error","name":"Membership__InvalidAddress","inputs":[]},{"type":"error","name":"Membership__InvalidCurrency","inputs":[]},{"type":"error","name":"Membership__InvalidDuration","inputs":[]},{"type":"error","name":"Membership__InvalidFeeRecipient","inputs":[]},{"type":"error","name":"Membership__InvalidFreeAllocation","inputs":[]},{"type":"error","name":"Membership__InvalidLimit","inputs":[]},{"type":"error","name":"Membership__InvalidMaxSupply","inputs":[]},{"type":"error","name":"Membership__InvalidPayment","inputs":[]},{"type":"error","name":"Membership__InvalidPrice","inputs":[]},{"type":"error","name":"Membership__InvalidPricingModule","inputs":[]},{"type":"error","name":"Membership__InvalidTokenId","inputs":[]},{"type":"error","name":"Membership__InvalidTransactionType","inputs":[]},{"type":"error","name":"Membership__MaxSupplyReached","inputs":[]},{"type":"error","name":"Membership__NotExpired","inputs":[]},{"type":"error","name":"Membership__PriceTooLow","inputs":[]},{"type":"error","name":"MintERC2309QuantityExceedsLimit","inputs":[]},{"type":"error","name":"MintToZeroAddress","inputs":[]},{"type":"error","name":"MintZeroQuantity","inputs":[]},{"type":"error","name":"Ownable__NotOwner","inputs":[{"name":"account","type":"address","internalType":"address"}]},{"type":"error","name":"Ownable__ZeroAddress","inputs":[]},{"type":"error","name":"OwnerQueryForNonexistentToken","inputs":[]},{"type":"error","name":"OwnershipNotInitializedForExtraData","inputs":[]},{"type":"error","name":"PartnerRegistry__InvalidPartnerFee","inputs":[{"name":"fee","type":"uint256","internalType":"uint256"}]},{"type":"error","name":"PartnerRegistry__InvalidRecipient","inputs":[]},{"type":"error","name":"PartnerRegistry__NotPartnerAccount","inputs":[{"name":"account","type":"address","internalType":"address"}]},{"type":"error","name":"PartnerRegistry__PartnerAlreadyRegistered","inputs":[{"name":"account","type":"address","internalType":"address"}]},{"type":"error","name":"PartnerRegistry__PartnerNotActive","inputs":[{"name":"account","type":"address","internalType":"address"}]},{"type":"error","name":"PartnerRegistry__PartnerNotRegistered","inputs":[{"name":"account","type":"address","internalType":"address"}]},{"type":"error","name":"PartnerRegistry__RegistryFeeNotPaid","inputs":[{"name":"fee","type":"uint256","internalType":"uint256"}]},{"type":"error","name":"Pausable__NotPaused","inputs":[]},{"type":"error","name":"Pausable__Paused","inputs":[]},{"type":"error","name":"Prepay__InvalidAddress","inputs":[]},{"type":"error","name":"Prepay__InvalidAmount","inputs":[]},{"type":"error","name":"Prepay__InvalidMembership","inputs":[]},{"type":"error","name":"Prepay__InvalidSupplyAmount","inputs":[]},{"type":"error","name":"Reentrancy","inputs":[]},{"type":"error","name":"Referrals__InvalidBasisPoints","inputs":[]},{"type":"error","name":"Referrals__InvalidBpsFee","inputs":[]},{"type":"error","name":"Referrals__InvalidRecipient","inputs":[]},{"type":"error","name":"Referrals__InvalidReferralCode","inputs":[]},{"type":"error","name":"Referrals__ReferralAlreadyExists","inputs":[]},{"type":"error","name":"Roles__EntitlementAlreadyExists","inputs":[]},{"type":"error","name":"Roles__EntitlementDoesNotExist","inputs":[]},{"type":"error","name":"Roles__InvalidEntitlementAddress","inputs":[]},{"type":"error","name":"Roles__InvalidPermission","inputs":[]},{"type":"error","name":"Roles__PermissionAlreadyExists","inputs":[]},{"type":"error","name":"Roles__PermissionDoesNotExist","inputs":[]},{"type":"error","name":"Roles__RoleDoesNotExist","inputs":[]},{"type":"error","name":"TransferCallerNotOwnerNorApproved","inputs":[]},{"type":"error","name":"TransferFromIncorrectOwner","inputs":[]},{"type":"error","name":"TransferToNonERC721ReceiverImplementer","inputs":[]},{"type":"error","name":"TransferToZeroAddress","inputs":[]},{"type":"error","name":"URIQueryForNonexistentToken","inputs":[]}],"bytecode":{"object":"0x6080604052348015600e575f5ffd5b5060156019565b60bd565b7f59b501c3653afc186af7d48dda36cf6732bd21629a6295693664240a6ef520008054640100000000900460ff16156064576040516366008a2d60e01b815260040160405180910390fd5b805463ffffffff908116101560ba57805463ffffffff191663ffffffff90811782556040519081527fe9c9b456cb2994b80aeef036cf59d26e9617df80f816a6ee5a5b4166e07e2f5c9060200160405180910390a15b50565b614fbe806100ca5f395ff3fe608060405260043610610162575f3560e01c8063706b8e09116100c657806393b13cb71161007c578063a5a4103111610057578063a5a41031146103ab578063df9a9fe6146103bf578063e847abdd146103de575f5ffd5b806393b13cb71461035757806395d600c81461037857806397fb7c1e1461038c575f5ffd5b80637c9669ac116100ac5780637c9669ac146103045780638120f0ba146103175780638c625b0614610344575f5ffd5b8063706b8e09146102dc57806379dda585146102f0575f5ffd5b80635803909f1161011b578063657e45e811610101578063657e45e814610271578063686f7684146102aa57806369d5f38a146102bd575f5ffd5b80635803909f146102335780635becd24a14610252575f5ffd5b806317c957091161014b57806317c95709146101ae5780633e9491a21461020257806351cff8d914610214575f5ffd5b80630ef1be5f146101665780631278076a14610187575b5f5ffd5b348015610171575f5ffd5b50610185610180366004614410565b6103f2565b005b348015610192575f5ffd5b5061019b6104a7565b6040519081526020015b60405180910390f35b3480156101b9575f5ffd5b5061019b6101c836600461447e565b5f9081527f4775a23600034fdd9f073b224f794d51a58b35ba663a9602623ba7a5c09cce00602052604090205467ffffffffffffffff1690565b34801561020d575f5ffd5b504761019b565b34801561021f575f5ffd5b5061018561022e3660046144b6565b610500565b34801561023e575f5ffd5b5061019b61024d36600461447e565b610667565b34801561025d575f5ffd5b5061018561026c36600461447e565b6106c2565b34801561027c575f5ffd5b506102856107a9565b60405173ffffffffffffffffffffffffffffffffffffffff90911681526020016101a5565b6101856102b83660046145bb565b6107e8565b3480156102c8575f5ffd5b506101856102d736600461447e565b61082c565b3480156102e7575f5ffd5b5061019b610944565b3480156102fb575f5ffd5b5061028561094d565b61018561031236600461447e565b61098c565b348015610322575f5ffd5b5061032b610b31565b60405167ffffffffffffffff90911681526020016101a5565b6101856103523660046144b6565b610b3a565b348015610362575f5ffd5b5061036b610b7c565b6040516101a591906146f1565b348015610383575f5ffd5b5061019b610b86565b348015610397575f5ffd5b506101856103a636600461447e565b610baf565b3480156103b6575f5ffd5b5061019b610c9c565b3480156103ca575f5ffd5b506101856103d93660046144b6565b610cf3565b3480156103e9575f5ffd5b50610285610dcc565b6103fa610e0b565b73ffffffffffffffffffffffffffffffffffffffff163373ffffffffffffffffffffffffffffffffffffffff1614610465576040517f65f490650000000000000000000000000000000000000000000000000000000081523360048201526024015b60405180910390fd5b6104a382828080601f0160208091040260200160405190810160405280939291908181526020018383808284375f92019190915250610ecb92505050565b5050565b5f6104fb6104f67f6569bde4a160c636ea8b8d11acb83a60d7fec0b8f2e09389306cba0e1340df01547f6569bde4a160c636ea8b8d11acb83a60d7fec0b8f2e09389306cba0e1340df00540390565b610ef6565b905090565b610508610e0b565b73ffffffffffffffffffffffffffffffffffffffff163373ffffffffffffffffffffffffffffffffffffffff161461056e576040517f65f4906500000000000000000000000000000000000000000000000000000000815233600482015260240161045c565b3068929eee149b4bd21268540361058c5763ab143c065f526004601cfd5b3068929eee149b4bd212685573ffffffffffffffffffffffffffffffffffffffff81166105dc576105dc7f5fbd5717000000000000000000000000000000000000000000000000000000006110d9565b475f81900361060e5761060e7fb1296a8a000000000000000000000000000000000000000000000000000000006110d9565b61065761064f7fc21004fcc619240a31f006438274d15cd813308303284436eef6055f0fdcb6045473ffffffffffffffffffffffffffffffffffffffff1690565b3084846110e1565b503868929eee149b4bd212685550565b5f6106bc826106b77f6569bde4a160c636ea8b8d11acb83a60d7fec0b8f2e09389306cba0e1340df01547f6569bde4a160c636ea8b8d11acb83a60d7fec0b8f2e09389306cba0e1340df00540390565b611145565b92915050565b6106ca610e0b565b73ffffffffffffffffffffffffffffffffffffffff163373ffffffffffffffffffffffffffffffffffffffff1614610730576040517f65f4906500000000000000000000000000000000000000000000000000000000815233600482015260240161045c565b5f6107597fc21004fcc619240a31f006438274d15cd813308303284436eef6055f0fdcb6035490565b9050801580159061076957508082115b15610797576107977fc3983b91000000000000000000000000000000000000000000000000000000006110d9565b6107a0826111ac565b6104a382611250565b5f6104fb7fc21004fcc619240a31f006438274d15cd813308303284436eef6055f0fdcb6045473ffffffffffffffffffffffffffffffffffffffff1690565b3068929eee149b4bd2126854036108065763ab143c065f526004601cfd5b3068929eee149b4bd212685561081c828261130e565b3868929eee149b4bd21268555050565b610834610e0b565b73ffffffffffffffffffffffffffffffffffffffff163373ffffffffffffffffffffffffffffffffffffffff161461089a576040517f65f4906500000000000000000000000000000000000000000000000000000000815233600482015260240161045c565b6108a38161140c565b7fc21004fcc619240a31f006438274d15cd813308303284436eef6055f0fdcb608546040517f91b7f5ed0000000000000000000000000000000000000000000000000000000081526004810183905273ffffffffffffffffffffffffffffffffffffffff909116906391b7f5ed906024015f604051808303815f87803b15801561092b575f5ffd5b505af115801561093d573d5f5f3e3d5ffd5b5050505050565b5f6104fb6114b4565b5f6104fb7fc21004fcc619240a31f006438274d15cd813308303284436eef6055f0fdcb6065473ffffffffffffffffffffffffffffffffffffffff1690565b3068929eee149b4bd2126854036109aa5763ab143c065f526004601cfd5b3068929eee149b4bd21268555f6109c08261157f565b905073ffffffffffffffffffffffffffffffffffffffff8116610a0657610a067f5fbd5717000000000000000000000000000000000000000000000000000000006110d9565b5f8281527f4775a23600034fdd9f073b224f794d51a58b35ba663a9602623ba7a5c09cce00602052604090205467ffffffffffffffff16610a45611589565b67ffffffffffffffff16610a594283614730565b10610a8757610a877fdce9a1d3000000000000000000000000000000000000000000000000000000006110d9565b5f610ad7846106b77f6569bde4a160c636ea8b8d11acb83a60d7fec0b8f2e09389306cba0e1340df01547f6569bde4a160c636ea8b8d11acb83a60d7fec0b8f2e09389306cba0e1340df00540390565b90508015610b0e575f610aea84836115fe565b90505f610af78284614730565b90508015610b0b57610b0985826116c6565b505b50505b610b1f84610b1a611589565b61183c565b5050503868929eee149b4bd212685550565b5f6104fb611589565b3068929eee149b4bd212685403610b585763ab143c065f526004601cfd5b3068929eee149b4bd2126855610b6d8161191c565b3868929eee149b4bd212685550565b60606104fb6119bf565b5f6104fb7fc21004fcc619240a31f006438274d15cd813308303284436eef6055f0fdcb6035490565b610bb7610e0b565b73ffffffffffffffffffffffffffffffffffffffff163373ffffffffffffffffffffffffffffffffffffffff1614610c1d576040517f65f4906500000000000000000000000000000000000000000000000000000000815233600482015260240161045c565b610c7181610c6c7f6569bde4a160c636ea8b8d11acb83a60d7fec0b8f2e09389306cba0e1340df01547f6569bde4a160c636ea8b8d11acb83a60d7fec0b8f2e09389306cba0e1340df00540390565b611a71565b610c99817fc21004fcc619240a31f006438274d15cd813308303284436eef6055f0fdcb60355565b50565b5f6104fb610cee6104f67f6569bde4a160c636ea8b8d11acb83a60d7fec0b8f2e09389306cba0e1340df01547f6569bde4a160c636ea8b8d11acb83a60d7fec0b8f2e09389306cba0e1340df00540390565b611aa2565b610cfb610e0b565b73ffffffffffffffffffffffffffffffffffffffff163373ffffffffffffffffffffffffffffffffffffffff1614610d61576040517f65f4906500000000000000000000000000000000000000000000000000000000815233600482015260240161045c565b610d6a81611c15565b7fc21004fcc619240a31f006438274d15cd813308303284436eef6055f0fdcb60880547fffffffffffffffffffffffff00000000000000000000000000000000000000001673ffffffffffffffffffffffffffffffffffffffff831617905550565b5f6104fb7fc21004fcc619240a31f006438274d15cd813308303284436eef6055f0fdcb6085473ffffffffffffffffffffffffffffffffffffffff1690565b5f807fd2f24d4f172e4e84e48e7c4125b6e904c29e5eba33ad4938fee51dd5dbd4b600805460018201546040517f6352211e000000000000000000000000000000000000000000000000000000008152600481019190915291925073ffffffffffffffffffffffffffffffffffffffff1690636352211e90602401602060405180830381865afa158015610ea1573d5f5f3e3d5ffd5b505050506040513d601f19601f82011682018060405250810190610ec59190614743565b91505090565b7fc21004fcc619240a31f006438274d15cd813308303284436eef6055f0fdcb60c6104a382826147ed565b5f5f610f006114b4565b9050610f407fc21004fcc619240a31f006438274d15cd813308303284436eef6055f0fdcb6085473ffffffffffffffffffffffffffffffffffffffff1690565b6040517f5cf4ee91000000000000000000000000000000000000000000000000000000008152600481018390526024810185905273ffffffffffffffffffffffffffffffffffffffff9190911690635cf4ee9190604401602060405180830381865afa158015610fb2573d5f5f3e3d5ffd5b505050506040513d601f19601f82011682018060405250810190610fd69190614904565b91505f610fe161094d565b90505f8173ffffffffffffffffffffffffffffffffffffffff16631b159e2e6040518163ffffffff1660e01b8152600401602060405180830381865afa15801561102d573d5f5f3e3d5ffd5b505050506040513d601f19601f820116820180604052508101906110519190614904565b9050808410156110d1578173ffffffffffffffffffffffffffffffffffffffff16630eac306d6040518163ffffffff1660e01b8152600401602060405180830381865afa1580156110a4573d5f5f3e3d5ffd5b505050506040513d601f19601f820116820180604052508101906110c89190614904565b95945050505050565b505050919050565b805f5260045ffd5b801561113f577fffffffffffffffffffffffff111111111111111111111111111111111111111273ffffffffffffffffffffffffffffffffffffffff8516016111335761112e8282611d4e565b61113f565b61113f84848484611d6e565b50505050565b5f8281527fc21004fcc619240a31f006438274d15cd813308303284436eef6055f0fdcb60960205260408120547fc21004fcc619240a31f006438274d15cd813308303284436eef6055f0fdcb6009080156111a35791506106bc9050565b6110c884610ef6565b6111b461094d565b73ffffffffffffffffffffffffffffffffffffffff16632cbb9d136040518163ffffffff1660e01b8152600401602060405180830381865afa1580156111fc573d5f5f3e3d5ffd5b505050506040513d601f19601f820116820180604052508101906112209190614904565b811115610c9957610c997fc3983b91000000000000000000000000000000000000000000000000000000006110d9565b7fc21004fcc619240a31f006438274d15cd813308303284436eef6055f0fdcb6078190557fc21004fcc619240a31f006438274d15cd813308303284436eef6055f0fdcb60d80547fffffffffffffffffffffffffffffffffffffffffffffffffffffffffffffff001660011790556040517fc21004fcc619240a31f006438274d15cd813308303284436eef6055f0fdcb6009082907fab14a23e88fb272313490d4f20d63098e64fd38304c0e07a377db98c2b39b92f905f90a25050565b61131782611e02565b5f611320611ef8565b9050801561133057611330611f91565b61133a838361201f565b5f8260405160200161134c919061491b565b604080517fffffffffffffffffffffffffffffffffffffffffffffffffffffffffffffffe081840301815291905290507f686f7684000000000000000000000000000000000000000000000000000000005f6113b3866113ae843383886120c4565b6120f6565b90505f5f6113c2883385612231565b91509150806114025781156113f85785156113e0576113e083612486565b6113ea838961260a565b6113f38861268d565b611402565b6114028389612777565b5050505050505050565b5f61141561094d565b73ffffffffffffffffffffffffffffffffffffffff16630eac306d6040518163ffffffff1660e01b8152600401602060405180830381865afa15801561145d573d5f5f3e3d5ffd5b505050506040513d601f19601f820116820180604052508101906114819190614904565b9050808210156104a3576104a37f3447ac8e000000000000000000000000000000000000000000000000000000006110d9565b7fc21004fcc619240a31f006438274d15cd813308303284436eef6055f0fdcb60d545f907fc21004fcc619240a31f006438274d15cd813308303284436eef6055f0fdcb6009060ff161561150b5760070154919050565b61151361094d565b73ffffffffffffffffffffffffffffffffffffffff16632cbb9d136040518163ffffffff1660e01b8152600401602060405180830381865afa15801561155b573d5f5f3e3d5ffd5b505050506040513d601f19601f82011682018060405250810190610ec59190614904565b5f6106bc826127dd565b5f61159261094d565b73ffffffffffffffffffffffffffffffffffffffff16638120f0ba6040518163ffffffff1660e01b8152600401602060405180830381865afa1580156115da573d5f5f3e3d5ffd5b505050506040513d601f19601f820116820180604052508101906104fb9190614975565b5f61160882611aa2565b90506106bc61164b7fc21004fcc619240a31f006438274d15cd813308303284436eef6055f0fdcb6045473ffffffffffffffffffffffffffffffffffffffff1690565b8461165461094d565b73ffffffffffffffffffffffffffffffffffffffff16634ccb20c06040518163ffffffff1660e01b8152600401602060405180830381865afa15801561169c573d5f5f3e3d5ffd5b505050506040513d601f19601f820116820180604052508101906116c09190614743565b846110e1565b5f7fc21004fcc619240a31f006438274d15cd813308303284436eef6055f0fdcb600816117277fc21004fcc619240a31f006438274d15cd813308303284436eef6055f0fdcb6045473ffffffffffffffffffffffffffffffffffffffff1690565b90507fffffffffffffffffffffffff111111111111111111111111111111111111111273ffffffffffffffffffffffffffffffffffffffff821601611789578382600a015f828254611779919061499c565b909155508493506106bc92505050565b5f6117aa73ffffffffffffffffffffffffffffffffffffffff83163061290e565b90506117b8828730886110e1565b5f6117d973ffffffffffffffffffffffffffffffffffffffff84163061290e565b90505f6117e68383614730565b9050868114611818576118187fb1296a8a000000000000000000000000000000000000000000000000000000006110d9565b8085600a015f82825461182b919061499c565b909155509098975050505050505050565b5f8281527f4775a23600034fdd9f073b224f794d51a58b35ba663a9602623ba7a5c09cce0060208190526040822054909167ffffffffffffffff909116908181036118925761188b84426149af565b905061189f565b61189c84836149af565b90505b5f858152602084815260409182902080547fffffffffffffffffffffffffffffffffffffffffffffffff00000000000000001667ffffffffffffffff8516908117909155915191825286917f2ec2be2c4b90c2cf13ecb6751a24daed6bb741ae5ed3f7371aabf9402f6d62e8910160405180910390a25050505050565b61192581611e02565b5f61192e611ef8565b9050801561193e5761193e611f91565b5f638c625b0660e01b90505f611968846113ae84338860405180602001604052805f8152506120c4565b90505f5f611977863385612231565b91509150806119b75781156119ad5784156119955761199583612941565b61199f838761260a565b6119a88661268d565b6119b7565b6119b78387612777565b505050505050565b60607fc21004fcc619240a31f006438274d15cd813308303284436eef6055f0fdcb600600c0180546119f09061475e565b80601f0160208091040260200160405190810160405280929190818152602001828054611a1c9061475e565b8015611a675780601f10611a3e57610100808354040283529160200191611a67565b820191905f5260205f20905b815481529060010190602001808311611a4a57829003601f168201915b5050505050905090565b808210156104a3576104a37fccc9aa2e000000000000000000000000000000000000000000000000000000006110d9565b5f5f611aac61094d565b90505f8173ffffffffffffffffffffffffffffffffffffffff16631b159e2e6040518163ffffffff1660e01b8152600401602060405180830381865afa158015611af8573d5f5f3e3d5ffd5b505050506040513d601f19601f82011682018060405250810190611b1c9190614904565b905080841015611b9b578173ffffffffffffffffffffffffffffffffffffffff16630eac306d6040518163ffffffff1660e01b8152600401602060405180830381865afa158015611b6f573d5f5f3e3d5ffd5b505050506040513d601f19601f82011682018060405250810190611b939190614904565b949350505050565b611b93848373ffffffffffffffffffffffffffffffffffffffff16639f6542aa6040518163ffffffff1660e01b8152600401602060405180830381865afa158015611be8573d5f5f3e3d5ffd5b505050506040513d601f19601f82011682018060405250810190611c0c91906149cf565b61ffff16612a5f565b73ffffffffffffffffffffffffffffffffffffffff8116611c5957611c597f0e88bf4b000000000000000000000000000000000000000000000000000000006110d9565b7fc21004fcc619240a31f006438274d15cd813308303284436eef6055f0fdcb6065473ffffffffffffffffffffffffffffffffffffffff166040517f8df80bd600000000000000000000000000000000000000000000000000000000815273ffffffffffffffffffffffffffffffffffffffff83811660048301529190911690638df80bd690602401602060405180830381865afa158015611cfd573d5f5f3e3d5ffd5b505050506040513d601f19601f82011682018060405250810190611d219190614a04565b610c9957610c997f0e88bf4b000000000000000000000000000000000000000000000000000000006110d9565b6104a373ffffffffffffffffffffffffffffffffffffffff831682612b10565b8173ffffffffffffffffffffffffffffffffffffffff168373ffffffffffffffffffffffffffffffffffffffff16031561113f573073ffffffffffffffffffffffffffffffffffffffff841603611de05761112e73ffffffffffffffffffffffffffffffffffffffff85168383612b29565b61113f73ffffffffffffffffffffffffffffffffffffffff8516848484612b7c565b73ffffffffffffffffffffffffffffffffffffffff8116611e4657611e467f5fbd5717000000000000000000000000000000000000000000000000000000006110d9565b5f611e6f7fc21004fcc619240a31f006438274d15cd813308303284436eef6055f0fdcb6035490565b90508015801590611eca575080611ec77f6569bde4a160c636ea8b8d11acb83a60d7fec0b8f2e09389306cba0e1340df01547f6569bde4a160c636ea8b8d11acb83a60d7fec0b8f2e09389306cba0e1340df00540390565b10155b156104a3576104a37f7efcdb49000000000000000000000000000000000000000000000000000000006110d9565b5f5f611f457f6569bde4a160c636ea8b8d11acb83a60d7fec0b8f2e09389306cba0e1340df01547f6569bde4a160c636ea8b8d11acb83a60d7fec0b8f2e09389306cba0e1340df00540390565b90505f611f506114b4565b90505f611f5b612bde565b905082821115611f6e575f935050505090565b8015611f8757611f7e6001612c07565b5f935050505090565b6001935050505090565b5f611fe06104f67f6569bde4a160c636ea8b8d11acb83a60d7fec0b8f2e09389306cba0e1340df01547f6569bde4a160c636ea8b8d11acb83a60d7fec0b8f2e09389306cba0e1340df00540390565b90505f611fec82612c44565b9050803410156104a3576104a37fb1296a8a000000000000000000000000000000000000000000000000000000006110d9565b602081015173ffffffffffffffffffffffffffffffffffffffff16156104a3578173ffffffffffffffffffffffffffffffffffffffff16816020015173ffffffffffffffffffffffffffffffffffffffff1614806120965750602081015173ffffffffffffffffffffffffffffffffffffffff1633145b156104a3576104a37f5fbd5717000000000000000000000000000000000000000000000000000000006110d9565b6060848484846040516020016120dd9493929190614a1d565b6040516020818303038152906040529050949350505050565b6040517fffffffffffffffffffffffffffffffffffffffff000000000000000000000000606084901b1660208201524360348201525f9081906054016040516020818303038152906040528051906020012090506121d5816121a9838761215c86612c74565b6040805160208082019590955273ffffffffffffffffffffffffffffffffffffffff9390931683820152606080840192909252805180840390920182526080909201909152805191012090565b604080516020808201949094528082019290925280518083038201815260609092019052805191012090565b91505f6121e183612cba565b511115612211576122117ff82e65c3000000000000000000000000000000000000000000000000000000006110d9565b61221b8284612d9a565b341561222a5761222a82612df2565b5092915050565b5f5f5f6122726040518060400160405280600981526020017f4a6f696e53706163650000000000000000000000000000000000000000000000815250612e50565b90505f61227e87612fed565b82519091505f5b81811015612479575f8482815181106122a0576122a0614a99565b602002602001015190508060400151156122ba5750612471565b5f5b81608001515181101561246e575f826080015182815181106122e0576122e0614a99565b602002602001015190508073ffffffffffffffffffffffffffffffffffffffff16630cf0b5335f5f1b886040518060400160405280600981526020017f4a6f696e537061636500000000000000000000000000000000000000000000008152506040516020016123509190614ac6565b60405160208183030381529060405261236890614adc565b6040518463ffffffff1660e01b815260040161238693929190614b1e565b602060405180830381865afa1580156123a1573d5f5f3e3d5ffd5b505050506040513d601f19601f820116820180604052508101906123c59190614a04565b156123de5750600197505f965061247e95505050505050565b8073ffffffffffffffffffffffffffffffffffffffff16632e1b61e46040518163ffffffff1660e01b8152600401602060405180830381865afa158015612427573d5f5f3e3d5ffd5b505050506040513d601f19601f8201168201806040525081019061244b9190614a04565b15612465576124608c8c8c84875f0151613331565b600197505b506001016122bc565b50505b600101612285565b505050505b935093915050565b5f6124d56104f67f6569bde4a160c636ea8b8d11acb83a60d7fec0b8f2e09389306cba0e1340df01547f6569bde4a160c636ea8b8d11acb83a60d7fec0b8f2e09389306cba0e1340df00540390565b90505f6124e182612c44565b90505f5f5f5f6124f087612cba565b8060200190518101906125039190614bee565b929650909450925090507fffffffff0000000000000000000000000000000000000000000000000000000084167f686f7684000000000000000000000000000000000000000000000000000000001461257f5761257f7fda6153bd000000000000000000000000000000000000000000000000000000006110d9565b5f818060200190518101906125949190614c72565b90505f5f6125a2868a6115fe565b90505f6125b387855f01518c61354d565b90505f6125ca88866020015187604001518e6136ba565b905080826125d8858d614730565b6125e29190614730565b6125ec9190614730565b93505050506125ff8986868a858d61383c565b505050505050505050565b5f8281527f34516f6fe09a043d57f1ff579a303a7ae85314751c77b4eb1a55837604a86e0160205260409020548015612688576126478382613b30565b61268861064f7fc21004fcc619240a31f006438274d15cd813308303284436eef6055f0fdcb6045473ffffffffffffffffffffffffffffffffffffffff1690565b505050565b5f612696613b98565b905061271a816126ea6104f67f6569bde4a160c636ea8b8d11acb83a60d7fec0b8f2e09389306cba0e1340df01547f6569bde4a160c636ea8b8d11acb83a60d7fec0b8f2e09389306cba0e1340df00540390565b5f9182527fc21004fcc619240a31f006438274d15cd813308303284436eef6055f0fdcb609602052604090912055565b612725826001613bbf565b61273181610b1a611589565b604051819073ffffffffffffffffffffffffffffffffffffffff8416907f2f40b0474996b72a4251e00fb9170cdd960deea1dc749772cbbab61395b9b576905f90a35050565b61278f8260405180602001604052805f815250612d9a565b612799828261260a565b60405173ffffffffffffffffffffffffffffffffffffffff8216907f86fd446d5c04e892d58b448a924dcd9c3ece3a5e0d2960b8c35cd475a5595a1f905f90a25050565b5f8181527f6569bde4a160c636ea8b8d11acb83a60d7fec0b8f2e09389306cba0e1340df046020526040812054907f6569bde4a160c636ea8b8d11acb83a60d7fec0b8f2e09389306cba0e1340df00907c0100000000000000000000000000000000000000000000000000000000831690036128db57815f036128d55780548310612894576040517fdf2d9b4200000000000000000000000000000000000000000000000000000000815260040160405180910390fd5b5b7fffffffffffffffffffffffffffffffffffffffffffffffffffffffffffffffff9092015f81815260048401602052604090205490929091508115612895575b50919050565b506040517fdf2d9b4200000000000000000000000000000000000000000000000000000000815260040160405180910390fd5b5f816014526f70a082310000000000000000000000005f5260208060246010865afa601f3d111660205102905092915050565b5f6129906104f67f6569bde4a160c636ea8b8d11acb83a60d7fec0b8f2e09389306cba0e1340df01547f6569bde4a160c636ea8b8d11acb83a60d7fec0b8f2e09389306cba0e1340df00540390565b90505f61299c82612c44565b90505f5f5f6129aa86612cba565b8060200190518101906129bd9190614bee565b50919450925090507fffffffff0000000000000000000000000000000000000000000000000000000083167f8c625b060000000000000000000000000000000000000000000000000000000014612a3757612a377fda6153bd000000000000000000000000000000000000000000000000000000006110d9565b5f612a4283876115fe565b90505f612a4f8287614730565b905061140288858589858c61383c565b5f612710821115612af2576040517f08c379a000000000000000000000000000000000000000000000000000000000815260206004820152602160248201527f426173697320706f696e74732063616e6e6f74206578636565642031305f303060448201527f3000000000000000000000000000000000000000000000000000000000000000606482015260840161045c565b612710612aff8385614d1a565b612b099190614d31565b9392505050565b5f385f3884865af16104a35763b12d13eb5f526004601cfd5b81601452806034526fa9059cbb0000000000000000000000005f5260205f604460105f875af18060015f511416612b7257803d853b151710612b72576390b8ec185f526004601cfd5b505f603452505050565b60405181606052826040528360601b602c526f23b872dd000000000000000000000000600c5260205f6064601c5f895af18060015f511416612bd057803d873b151710612bd057637939f4245f526004601cfd5b505f60605260405250505050565b5f7f097b4f25b64e012d0cf55f67e9b34fe5d57f15b11b95baa4ddd136b424967c005b54919050565b7f097b4f25b64e012d0cf55f67e9b34fe5d57f15b11b95baa4ddd136b424967c008054829082905f90612c3b908490614730565b90915550505050565b5f5f612c4e612bde565b90508015612c5e57505f92915050565b825f03612c6d57505f92915050565b5090919050565b5f8181527f34516f6fe09a043d57f1ff579a303a7ae85314751c77b4eb1a55837604a86e0060208190526040822080549083612caf83614d69565b909155509392505050565b5f8181527f34516f6fe09a043d57f1ff579a303a7ae85314751c77b4eb1a55837604a86e026020526040902080546060917f34516f6fe09a043d57f1ff579a303a7ae85314751c77b4eb1a55837604a86e0091612d169061475e565b80601f0160208091040260200160405190810160405280929190818152602001828054612d429061475e565b8015612d8d5780601f10612d6457610100808354040283529160200191612d8d565b820191905f5260205f20905b815481529060010190602001808311612d7057829003601f168201915b5050505050915050919050565b5f8281527f34516f6fe09a043d57f1ff579a303a7ae85314751c77b4eb1a55837604a86e02602052604090207f34516f6fe09a043d57f1ff579a303a7ae85314751c77b4eb1a55837604a86e009061113f83826147ed565b5f8181527f34516f6fe09a043d57f1ff579a303a7ae85314751c77b4eb1a55837604a86e016020526040812080547f34516f6fe09a043d57f1ff579a303a7ae85314751c77b4eb1a55837604a86e0092349291612c3b90849061499c565b60605f612e5b613bd8565b80519091505f8167ffffffffffffffff811115612e7a57612e7a6144d1565b604051908082528060200260200182016040528015612edd57816020015b612eca6040518060a001604052805f8152602001606081526020015f1515815260200160608152602001606081525090565b815260200190600190039081612e985790505b50855160208701209091505f90815b84811015612fe1575f5f5f5f612f1a8a8681518110612f0d57612f0d614a99565b6020026020010151613c03565b929650909450925090505f5b8251811015612fd05786838281518110612f4257612f42614a99565b60200260200101518051906020012003612fc8576040518060a001604052808c8881518110612f7357612f73614a99565b60200260200101518152602001868152602001851515815260200184815260200183815250898981518110612faa57612faa614a99565b60200260200101819052508780612fc090614d69565b985050612fd0565b600101612f26565b505060019093019250612eec915050565b50508152949350505050565b60605f7fc21004fcc619240a31f006438274d15cd813308303284436eef6055f0fdcb600600601546040517f02345b9800000000000000000000000000000000000000000000000000000000815273ffffffffffffffffffffffffffffffffffffffff858116600483015290911691505f9082906302345b98906024015f60405180830381865afa158015613084573d5f5f3e3d5ffd5b505050506040513d5f823e601f3d9081017fffffffffffffffffffffffffffffffffffffffffffffffffffffffffffffffe01682016040526130c99190810190614da0565b905080515f0361323a576040517ff821039800000000000000000000000000000000000000000000000000000000815273ffffffffffffffffffffffffffffffffffffffff85811660048301525f919084169063f821039890602401602060405180830381865afa158015613140573d5f5f3e3d5ffd5b505050506040513d601f19601f820116820180604052508101906131649190614743565b905073ffffffffffffffffffffffffffffffffffffffff811615613238576040517f02345b9800000000000000000000000000000000000000000000000000000000815273ffffffffffffffffffffffffffffffffffffffff808316600483015291955085918416906302345b98906024015f60405180830381865afa1580156131f0573d5f5f3e3d5ffd5b505050506040513d5f823e601f3d9081017fffffffffffffffffffffffffffffffffffffffffffffffffffffffffffffffe01682016040526132359190810190614da0565b91505b505b80515f61324882600161499c565b67ffffffffffffffff811115613260576132606144d1565b604051908082528060200260200182016040528015613289578160200160208202803683370190505b5090505f5b828110156132ef578381815181106132a8576132a8614a99565b60200260200101518282815181106132c2576132c2614a99565b73ffffffffffffffffffffffffffffffffffffffff9092166020928302919091019091015260010161328e565b508581838151811061330357613303614a99565b73ffffffffffffffffffffffffffffffffffffffff9092166020928302919091019091015295945050505050565b73ffffffffffffffffffffffffffffffffffffffff8516613375576133757f99ef0388000000000000000000000000000000000000000000000000000000006110d9565b73ffffffffffffffffffffffffffffffffffffffff82166133b9576133b97f4bb7c205000000000000000000000000000000000000000000000000000000006110d9565b5f8381527f9075c515a635ba70c9696f31149324218d75cf00afe836c482e6473f38b19e016020908152604080832080547fffffffffffffffffffffffffffffffffffffffffffffffffffffffffffffff001660011781556003810180547fffffffffffffffffffffffff00000000000000000000000000000000000000001673ffffffffffffffffffffffffffffffffffffffff888116919091179091558251908916938101939093527f9075c515a635ba70c9696f31149324218d75cf00afe836c482e6473f38b19e00939092909101604080517fffffffffffffffffffffffffffffffffffffffffffffffffffffffffffffffe08184030181529082905284547f21be050a00000000000000000000000000000000000000000000000000000000835290925073ffffffffffffffffffffffffffffffffffffffff16906321be050a903490613515908c908b908a908890600401614e54565b5f604051808303818588803b15801561352c575f5ffd5b505af115801561353e573d5f5f3e3d5ffd5b50505050505050505050505050565b5f73ffffffffffffffffffffffffffffffffffffffff831661357057505f612b09565b5f6135af7fc21004fcc619240a31f006438274d15cd813308303284436eef6055f0fdcb6065473ffffffffffffffffffffffffffffffffffffffff1690565b6040517f5cb4f54800000000000000000000000000000000000000000000000000000000815273ffffffffffffffffffffffffffffffffffffffff86811660048301529190911690635cb4f54890602401608060405180830381865afa15801561361b573d5f5f3e3d5ffd5b505050506040513d601f19601f8201168201806040525081019061363f9190614e8e565b905080604001515f03613655575f915050612b09565b613663838260400151612a5f565b91506136b26136a67fc21004fcc619240a31f006438274d15cd813308303284436eef6055f0fdcb6045473ffffffffffffffffffffffffffffffffffffffff1690565b868360200151856110e1565b509392505050565b5f82515f1461376a575f6136cd84613d21565b604081015190915073ffffffffffffffffffffffffffffffffffffffff1615806136f957506020810151155b15613707575f915050611b93565b613715838260200151612a5f565b91506137646137587fc21004fcc619240a31f006438274d15cd813308303284436eef6055f0fdcb6045473ffffffffffffffffffffffffffffffffffffffff1690565b878360400151856110e1565b50611b93565b73ffffffffffffffffffffffffffffffffffffffff841615611b93578473ffffffffffffffffffffffffffffffffffffffff168473ffffffffffffffffffffffffffffffffffffffff16036137c057505f611b93565b6137f1826137ec7faca21cc4d2a125f3e0ae03aa135d42b2b9177631aca87599d42a68b47e9008015490565b612a5f565b9050611b936138347fc21004fcc619240a31f006438274d15cd813308303284436eef6055f0fdcb6045473ffffffffffffffffffffffffffffffffffffffff1690565b8686846110e1565b811561384e5761384c85836116c6565b505b6138588684613b30565b6138708660405180602001604052805f815250612d9a565b5f6138af7fc21004fcc619240a31f006438274d15cd813308303284436eef6055f0fdcb6065473ffffffffffffffffffffffffffffffffffffffff1690565b6040517f44ab66800000000000000000000000000000000000000000000000000000000081527f526976657241697264726f700000000000000000000000000000000000000000600482015273ffffffffffffffffffffffffffffffffffffffff91909116906344ab668090602401602060405180830381865afa158015613939573d5f5f3e3d5ffd5b505050506040513d601f19601f8201168201806040525081019061395d9190614743565b90505f8173ffffffffffffffffffffffffffffffffffffffff1663dc69fdde5f8560405160200161399091815260200190565b6040516020818303038152906040526040518363ffffffff1660e01b81526004016139bc929190614f08565b602060405180830381865afa1580156139d7573d5f5f3e3d5ffd5b505050506040513d601f19601f820116820180604052508101906139fb9190614904565b6040517f40c10f1900000000000000000000000000000000000000000000000000000000815273ffffffffffffffffffffffffffffffffffffffff888116600483015260248201839052919250908316906340c10f19906044015f604051808303815f87803b158015613a6c575f5ffd5b505af1158015613a7e573d5f5f3e3d5ffd5b505050508173ffffffffffffffffffffffffffffffffffffffff166340c10f19613aa6610e0b565b6040517fffffffff0000000000000000000000000000000000000000000000000000000060e084901b16815273ffffffffffffffffffffffffffffffffffffffff9091166004820152602481018490526044015f604051808303815f87803b158015613b10575f5ffd5b505af1158015613b22573d5f5f3e3d5ffd5b505050505050505050505050565b5f8281527f34516f6fe09a043d57f1ff579a303a7ae85314751c77b4eb1a55837604a86e016020526040812080547f34516f6fe09a043d57f1ff579a303a7ae85314751c77b4eb1a55837604a86e0092849291613b8e908490614730565b9091555050505050565b5f7f6569bde4a160c636ea8b8d11acb83a60d7fec0b8f2e09389306cba0e1340df00612c01565b6104a3828260405180602001604052805f815250613dc9565b60606104fb7f672ef851d5f92307da037116e23aa9e31af7e1f7e3ca62c4e6d540631df3fd01613e91565b5f8181527f672ef851d5f92307da037116e23aa9e31af7e1f7e3ca62c4e6d540631df3fd0360205260408120805460609291839182917f672ef851d5f92307da037116e23aa9e31af7e1f7e3ca62c4e6d540631df3fd0091613c649061475e565b80601f0160208091040260200160405190810160405280929190818152602001828054613c909061475e565b8015613cdb5780601f10613cb257610100808354040283529160200191613cdb565b820191905f5260205f20905b815481529060010190602001808311613cbe57829003601f168201915b5050505f8981526003850160205260409020600181015493985060ff9093169650613d0c926002019150613e9d9050565b9250613d1786613f74565b9150509193509193565b613d596040518060600160405280606081526020015f81526020015f73ffffffffffffffffffffffffffffffffffffffff1681525090565b5080516020808301919091205f9081527faca21cc4d2a125f3e0ae03aa135d42b2b9177631aca87599d42a68b47e9008028252604090819020815160608101835293845280549284019290925260019091015473ffffffffffffffffffffffffffffffffffffffff169082015290565b613dd3838361405b565b73ffffffffffffffffffffffffffffffffffffffff83163b15612688577f6569bde4a160c636ea8b8d11acb83a60d7fec0b8f2e09389306cba0e1340df00548281035b613e285f868380600101945086614210565b613e5e576040517fd1a57ed600000000000000000000000000000000000000000000000000000000815260040160405180910390fd5b818110613e1657817f6569bde4a160c636ea8b8d11acb83a60d7fec0b8f2e09389306cba0e1340df00541461093d575f5ffd5b60605f612b0983614382565b6060815f01805480602002602001604051908101604052809291908181526020015f905b82821015613f69578382905f5260205f20018054613ede9061475e565b80601f0160208091040260200160405190810160405280929190818152602001828054613f0a9061475e565b8015613f555780601f10613f2c57610100808354040283529160200191613f55565b820191905f5260205f20905b815481529060010190602001808311613f3857829003601f168201915b505050505081526020019060010190613ec1565b505050509050919050565b5f8181527f672ef851d5f92307da037116e23aa9e31af7e1f7e3ca62c4e6d540631df3fd0360205260408120606091600490910190613fb2826143db565b90505f8167ffffffffffffffff811115613fce57613fce6144d1565b604051908082528060200260200182016040528015613ff7578160200160208202803683370190505b5090505f5b82811015614052575f61400f85836143e4565b90508083838151811061402457614024614a99565b73ffffffffffffffffffffffffffffffffffffffff9092166020928302919091019091015250600101613ffc565b50949350505050565b7f6569bde4a160c636ea8b8d11acb83a60d7fec0b8f2e09389306cba0e1340df00545f8290036140b7576040517fb562e8dd00000000000000000000000000000000000000000000000000000000815260040160405180910390fd5b73ffffffffffffffffffffffffffffffffffffffff83165f8181527f6569bde4a160c636ea8b8d11acb83a60d7fec0b8f2e09389306cba0e1340df056020908152604080832080546801000000000000000188020190558483527f6569bde4a160c636ea8b8d11acb83a60d7fec0b8f2e09389306cba0e1340df0490915281206001851460e11b4260a01b178317905582840190839083907fddf252ad1be2c89b69c2b068fc378daa952ba7f163c4a11628f55a4df523b3ef8180a4600183015b8181146141ae5780835f7fddf252ad1be2c89b69c2b068fc378daa952ba7f163c4a11628f55a4df523b3ef5f5fa4600101614178565b50815f036141e8576040517f2e07630000000000000000000000000000000000000000000000000000000000815260040160405180910390fd5b7f6569bde4a160c636ea8b8d11acb83a60d7fec0b8f2e09389306cba0e1340df005550505050565b6040517f150b7a020000000000000000000000000000000000000000000000000000000081525f9073ffffffffffffffffffffffffffffffffffffffff85169063150b7a029061426a903390899088908890600401614f55565b6020604051808303815f875af19250505080156142c2575060408051601f3d9081017fffffffffffffffffffffffffffffffffffffffffffffffffffffffffffffffe01682019092526142bf91810190614fa5565b60015b614337573d8080156142ef576040519150601f19603f3d011682016040523d82523d5f602084013e6142f4565b606091505b5080515f0361432f576040517fd1a57ed600000000000000000000000000000000000000000000000000000000815260040160405180910390fd5b805181602001fd5b7fffffffff00000000000000000000000000000000000000000000000000000000167f150b7a0200000000000000000000000000000000000000000000000000000000149050611b93565b6060815f018054806020026020016040519081016040528092919081815260200182805480156143cf57602002820191905f5260205f20905b8154815260200190600101908083116143bb575b50505050509050919050565b5f6106bc825490565b5f612b0983835f825f0182815481106143ff576143ff614a99565b905f5260205f200154905092915050565b5f5f60208385031215614421575f5ffd5b823567ffffffffffffffff811115614437575f5ffd5b8301601f81018513614447575f5ffd5b803567ffffffffffffffff81111561445d575f5ffd5b85602082840101111561446e575f5ffd5b6020919091019590945092505050565b5f6020828403121561448e575f5ffd5b5035919050565b73ffffffffffffffffffffffffffffffffffffffff81168114610c99575f5ffd5b5f602082840312156144c6575f5ffd5b8135612b0981614495565b7f4e487b71000000000000000000000000000000000000000000000000000000005f52604160045260245ffd5b6040516060810167ffffffffffffffff81118282101715614521576145216144d1565b60405290565b604051601f82017fffffffffffffffffffffffffffffffffffffffffffffffffffffffffffffffe016810167ffffffffffffffff8111828210171561456e5761456e6144d1565b604052919050565b5f67ffffffffffffffff82111561458f5761458f6144d1565b50601f017fffffffffffffffffffffffffffffffffffffffffffffffffffffffffffffffe01660200190565b5f5f604083850312156145cc575f5ffd5b82356145d781614495565b9150602083013567ffffffffffffffff8111156145f2575f5ffd5b830160608186031215614603575f5ffd5b61460b6144fe565b813561461681614495565b8152602082013561462681614495565b6020820152604082013567ffffffffffffffff811115614644575f5ffd5b80830192505085601f830112614658575f5ffd5b813561466b61466682614576565b614527565b81815287602083860101111561467f575f5ffd5b816020850160208301375f60208383010152806040840152505080925050509250929050565b5f81518084528060208401602086015e5f6020828601015260207fffffffffffffffffffffffffffffffffffffffffffffffffffffffffffffffe0601f83011685010191505092915050565b602081525f612b0960208301846146a5565b7f4e487b71000000000000000000000000000000000000000000000000000000005f52601160045260245ffd5b818103818111156106bc576106bc614703565b5f60208284031215614753575f5ffd5b8151612b0981614495565b600181811c9082168061477257607f821691505b6020821081036128d5577f4e487b71000000000000000000000000000000000000000000000000000000005f52602260045260245ffd5b601f82111561268857805f5260205f20601f840160051c810160208510156147ce5750805b601f840160051c820191505b8181101561093d575f81556001016147da565b815167ffffffffffffffff811115614807576148076144d1565b61481b81614815845461475e565b846147a9565b6020601f82116001811461486c575f83156148365750848201515b7fffffffffffffffffffffffffffffffffffffffffffffffffffffffffffffffff600385901b1c1916600184901b17845561093d565b5f848152602081207fffffffffffffffffffffffffffffffffffffffffffffffffffffffffffffffe08516915b828110156148b95787850151825560209485019460019092019101614899565b50848210156148f557868401517fffffffffffffffffffffffffffffffffffffffffffffffffffffffffffffffff600387901b60f8161c191681555b50505050600190811b01905550565b5f60208284031215614914575f5ffd5b5051919050565b6020815273ffffffffffffffffffffffffffffffffffffffff825116602082015273ffffffffffffffffffffffffffffffffffffffff60208301511660408201525f6040830151606080840152611b9360808401826146a5565b5f60208284031215614985575f5ffd5b815167ffffffffffffffff81168114612b09575f5ffd5b808201808211156106bc576106bc614703565b67ffffffffffffffff81811683821601908111156106bc576106bc614703565b5f602082840312156149df575f5ffd5b815161ffff81168114612b09575f5ffd5b805180151581146149ff575f5ffd5b919050565b5f60208284031215614a14575f5ffd5b612b09826149f0565b7fffffffff000000000000000000000000000000000000000000000000000000008516815273ffffffffffffffffffffffffffffffffffffffff8416602082015273ffffffffffffffffffffffffffffffffffffffff83166040820152608060608201525f614a8f60808301846146a5565b9695505050505050565b7f4e487b71000000000000000000000000000000000000000000000000000000005f52603260045260245ffd5b5f82518060208501845e5f920191825250919050565b805160208083015191908110156128d5577fffffffffffffffffffffffffffffffffffffffffffffffffffffffffffffffff60209190910360031b1b16919050565b5f60608201858352606060208401528085518083526080850191506020870192505f5b81811015614b7557835173ffffffffffffffffffffffffffffffffffffffff16835260209384019390920191600101614b41565b505060409390930193909352509392505050565b80517fffffffff00000000000000000000000000000000000000000000000000000000811681146149ff575f5ffd5b5f614bc561466684614576565b9050828152838383011115614bd8575f5ffd5b8282602083015e5f602084830101529392505050565b5f5f5f5f60808587031215614c01575f5ffd5b614c0a85614b89565b93506020850151614c1a81614495565b6040860151909350614c2b81614495565b606086015190925067ffffffffffffffff811115614c47575f5ffd5b8501601f81018713614c57575f5ffd5b614c6687825160208401614bb8565b91505092959194509250565b5f60208284031215614c82575f5ffd5b815167ffffffffffffffff811115614c98575f5ffd5b820160608185031215614ca9575f5ffd5b614cb16144fe565b8151614cbc81614495565b81526020820151614ccc81614495565b6020820152604082015167ffffffffffffffff811115614cea575f5ffd5b80830192505084601f830112614cfe575f5ffd5b614d0d85835160208501614bb8565b6040820152949350505050565b80820281158282048414176106bc576106bc614703565b5f82614d64577f4e487b71000000000000000000000000000000000000000000000000000000005f52601260045260245ffd5b500490565b5f7fffffffffffffffffffffffffffffffffffffffffffffffffffffffffffffffff8203614d9957614d99614703565b5060010190565b5f60208284031215614db0575f5ffd5b815167ffffffffffffffff811115614dc6575f5ffd5b8201601f81018413614dd6575f5ffd5b805167ffffffffffffffff811115614df057614df06144d1565b8060051b614e0060208201614527565b91825260208184018101929081019087841115614e1b575f5ffd5b6020850194505b83851015614e495784519250614e3783614495565b82825260209485019490910190614e22565b979650505050505050565b73ffffffffffffffffffffffffffffffffffffffff85168152836020820152826040820152608060608201525f614a8f60808301846146a5565b5f6080828403128015614e9f575f5ffd5b506040516080810167ffffffffffffffff81118282101715614ec357614ec36144d1565b6040528251614ed181614495565b81526020830151614ee181614495565b602082015260408381015190820152614efc606084016149f0565b60608201529392505050565b5f60038410614f3e577f4e487b71000000000000000000000000000000000000000000000000000000005f52602160045260245ffd5b83825260406020830152611b9360408301846146a5565b73ffffffffffffffffffffffffffffffffffffffff8516815273ffffffffffffffffffffffffffffffffffffffff84166020820152826040820152608060608201525f614a8f60808301846146a5565b5f60208284031215614fb5575f5ffd5b612b0982614b8956","linkReferences":{}},"methodIdentifiers":{"expiresAt(uint256)":"17c95709","getMembershipCurrency()":"657e45e8","getMembershipDuration()":"8120f0ba","getMembershipFreeAllocation()":"706b8e09","getMembershipImage()":"93b13cb7","getMembershipLimit()":"95d600c8","getMembershipPrice()":"1278076a","getMembershipPricingModule()":"e847abdd","getMembershipRenewalPrice(uint256)":"5803909f","getProtocolFee()":"a5a41031","getSpaceFactory()":"79dda585","joinSpace(address)":"8c625b06","joinSpaceWithReferral(address,(address,address,string))":"686f7684","renewMembership(uint256)":"7c9669ac","revenue()":"3e9491a2","setMembershipFreeAllocation(uint256)":"5becd24a","setMembershipImage(string)":"0ef1be5f","setMembershipLimit(uint256)":"97fb7c1e","setMembershipPrice(uint256)":"69d5f38a","setMembershipPricingModule(address)":"df9a9fe6","withdraw(address)":"51cff8d9"},"id":260}