{"abi":[{"type":"function","name":"checkIfLinked","inputs":[{"name":"rootKey","type":"address","internalType":"address"},{"name":"wallet","type":"address","internalType":"address"}],"outputs":[{"name":"","type":"bool","internalType":"bool"}],"stateMutability":"view"},{"type":"function","name":"getLatestNonceForRootKey","inputs":[{"name":"","type":"address","internalType":"address"}],"outputs":[{"name":"","type":"uint256","internalType":"uint256"}],"stateMutability":"pure"},{"type":"function","name":"getRootKeyForWallet","inputs":[{"name":"wallet","type":"address","internalType":"address"}],"outputs":[{"name":"rootKey","type":"address","internalType":"address"}],"stateMutability":"view"},{"type":"function","name":"getWalletsByRootKey","inputs":[{"name":"rootKey","type":"address","internalType":"address"}],"outputs":[{"name":"wallets","type":"address[]","internalType":"address[]"}],"stateMutability":"view"},{"type":"function","name":"getWalletsByRootKeyWithDelegations","inputs":[{"name":"rootKey","type":"address","internalType":"address"}],"outputs":[{"name":"wallets","type":"address[]","internalType":"address[]"}],"stateMutability":"view"},{"type":"function","name":"linkCallerToRootKey","inputs":[{"name":"rootWallet","type":"tuple","internalType":"struct IWalletLinkBase.LinkedWallet","components":[{"name":"addr","type":"address","internalType":"address"},{"name":"signature","type":"bytes","internalType":"bytes"},{"name":"message","type":"string","internalType":"string"}]},{"name":"","type":"uint256","internalType":"uint256"}],"outputs":[],"stateMutability":"nonpayable"},{"type":"function","name":"linkWalletToRootKey","inputs":[{"name":"wallet","type":"tuple","internalType":"struct IWalletLinkBase.LinkedWallet","components":[{"name":"addr","type":"address","internalType":"address"},{"name":"signature","type":"bytes","internalType":"bytes"},{"name":"message","type":"string","internalType":"string"}]},{"name":"rootWallet","type":"tuple","internalType":"struct IWalletLinkBase.LinkedWallet","components":[{"name":"addr","type":"address","internalType":"address"},{"name":"signature","type":"bytes","internalType":"bytes"},{"name":"message","type":"string","internalType":"string"}]},{"name":"","type":"uint256","internalType":"uint256"}],"outputs":[],"stateMutability":"nonpayable"},{"type":"event","name":"LinkNonEVMWalletToRootWallet","inputs":[{"name":"walletHash","type":"bytes32","indexed":true,"internalType":"bytes32"},{"name":"rootKey","type":"address","indexed":true,"internalType":"address"}],"anonymous":false},{"type":"event","name":"LinkWalletToRootKey","inputs":[{"name":"wallet","type":"address","indexed":true,"internalType":"address"},{"name":"rootKey","type":"address","indexed":true,"internalType":"address"}],"anonymous":false},{"type":"event","name":"RemoveLink","inputs":[{"name":"wallet","type":"address","indexed":true,"internalType":"address"},{"name":"secondWallet","type":"address","indexed":true,"internalType":"address"}],"anonymous":false},{"type":"event","name":"RemoveNonEVMWalletLink","inputs":[{"name":"walletHash","type":"bytes32","indexed":true,"internalType":"bytes32"},{"name":"rootKey","type":"address","indexed":true,"internalType":"address"}],"anonymous":false},{"type":"event","name":"SetDefaultWallet","inputs":[{"name":"rootKey","type":"address","indexed":true,"internalType":"address"},{"name":"defaultWallet","type":"address","indexed":true,"internalType":"address"}],"anonymous":false},{"type":"error","name":"WalletLink__AddressMismatch","inputs":[]},{"type":"error","name":"WalletLink__CannotLinkToRootWallet","inputs":[{"name":"wallet","type":"address","internalType":"address"},{"name":"rootKey","type":"address","internalType":"address"}]},{"type":"error","name":"WalletLink__CannotLinkToSelf","inputs":[]},{"type":"error","name":"WalletLink__CannotRemoveDefaultWallet","inputs":[]},{"type":"error","name":"WalletLink__CannotRemoveRootWallet","inputs":[]},{"type":"error","name":"WalletLink__DefaultWalletAlreadySet","inputs":[]},{"type":"error","name":"WalletLink__InvalidAddress","inputs":[]},{"type":"error","name":"WalletLink__InvalidMessage","inputs":[]},{"type":"error","name":"WalletLink__InvalidNonEVMAddress","inputs":[]},{"type":"error","name":"WalletLink__InvalidSignature","inputs":[]},{"type":"error","name":"WalletLink__InvalidVMSpecificData","inputs":[{"name":"key","type":"string","internalType":"string"},{"name":"value","type":"bytes","internalType":"bytes"}]},{"type":"error","name":"WalletLink__LinkAlreadyExists","inputs":[{"name":"wallet","type":"address","internalType":"address"},{"name":"rootKey","type":"address","internalType":"address"}]},{"type":"error","name":"WalletLink__LinkedToAnotherRootKey","inputs":[{"name":"wallet","type":"address","internalType":"address"},{"name":"rootKey","type":"address","internalType":"address"}]},{"type":"error","name":"WalletLink__MaxLinkedWalletsReached","inputs":[]},{"type":"error","name":"WalletLink__NonEVMWalletAlreadyLinked","inputs":[{"name":"wallet","type":"string","internalType":"string"},{"name":"rootKey","type":"address","internalType":"address"}]},{"type":"error","name":"WalletLink__NonEVMWalletNotLinked","inputs":[{"name":"wallet","type":"string","internalType":"string"},{"name":"rootKey","type":"address","internalType":"address"}]},{"type":"error","name":"WalletLink__NotLinked","inputs":[{"name":"wallet","type":"address","internalType":"address"},{"name":"rootKey","type":"address","internalType":"address"}]},{"type":"error","name":"WalletLink__RootKeyMismatch","inputs":[{"name":"callerRootKey","type":"address","internalType":"address"},{"name":"rootKey","type":"address","internalType":"address"}]},{"type":"error","name":"WalletLink__UnsupportedVMType","inputs":[]}],"bytecode":{"object":"0x608060405234801561001057600080fd5b506106a4806100206000396000f3fe608060405234801561001057600080fd5b506004361061007d5760003560e01c80632f4614531161005b5780632f461453146100e25780633d005eab14610082578063912b9758146100f5578063f82103981461015457600080fd5b806302345b981461008257806320a00ac8146100ab578063243a7134146100cd575b600080fd5b6100956100903660046103f7565b6101b7565b6040516100a29190610412565b60405180910390f35b6100bf6100b93660046103f7565b50600090565b6040519081526020016100a2565b6100e06100db3660046105bf565b610200565b005b6100e06100f036600461062c565b610285565b610144610103366004610671565b6001600160a01b0390811660009081527f53bdded980027e2c478b287c6d24ce77f39d36276f54116d9f518f7ecd94eb016020526040902054811691161490565b60405190151581526020016100a2565b61019f6101623660046103f7565b6001600160a01b0390811660009081527f53bdded980027e2c478b287c6d24ce77f39d36276f54116d9f518f7ecd94eb0160205260409020541690565b6040516001600160a01b0390911681526020016100a2565b6001600160a01b03811660009081527f53bdded980027e2c478b287c6d24ce77f39d36276f54116d9f518f7ecd94eb00602052604090206060906101fa90610307565b92915050565b825182516001600160a01b031660009081527f53bdded980027e2c478b287c6d24ce77f39d36276f54116d9f518f7ecd94eb00602081905260409091209091610249919061031b565b50915192516001600160a01b0390811660009081526001909301602052604090922080546001600160a01b031916929093169190911790915550565b81516001600160a01b031660009081527f53bdded980027e2c478b287c6d24ce77f39d36276f54116d9f518f7ecd94eb006020819052604090912033906102cc908261031b565b5092516001600160a01b039384166000908152600192909201602052604090912080546001600160a01b031916939091169290921790915550565b6060600061031483610330565b9392505050565b6000610314836001600160a01b03841661038c565b60608160000180548060200260200160405190810160405280929190818152602001828054801561038057602002820191906000526020600020905b81548152602001906001019080831161036c575b50505050509050919050565b60008181526001830160205260408120546103d3575081546001818101845560008481526020808220909301849055845484825282860190935260409020919091556101fa565b5060006101fa565b80356001600160a01b03811681146103f257600080fd5b919050565b60006020828403121561040957600080fd5b610314826103db565b6020808252825182820181905260009190848201906040850190845b818110156104535783516001600160a01b03168352928401929184019160010161042e565b50909695505050505050565b634e487b7160e01b600052604160045260246000fd5b6040516060810167ffffffffffffffff811182821017156104985761049861045f565b60405290565b600067ffffffffffffffff808411156104b9576104b961045f565b604051601f8501601f19908116603f011681019082821181831017156104e1576104e161045f565b816040528093508581528686860111156104fa57600080fd5b858560208301376000602087830101525050509392505050565b60006060828403121561052657600080fd5b61052e610475565b9050610539826103db565b8152602082013567ffffffffffffffff8082111561055657600080fd5b818401915084601f83011261056a57600080fd5b6105798583356020850161049e565b6020840152604084013591508082111561059257600080fd5b508201601f810184136105a457600080fd5b6105b38482356020840161049e565b60408301525092915050565b6000806000606084860312156105d457600080fd5b833567ffffffffffffffff808211156105ec57600080fd5b6105f887838801610514565b9450602086013591508082111561060e57600080fd5b5061061b86828701610514565b925050604084013590509250925092565b6000806040838503121561063f57600080fd5b823567ffffffffffffffff81111561065657600080fd5b61066285828601610514565b95602094909401359450505050565b6000806040838503121561068457600080fd5b61068d836103db565b915061069b602084016103db565b9050925092905056","linkReferences":{}},"methodIdentifiers":{"checkIfLinked(address,address)":"912b9758","getLatestNonceForRootKey(address)":"20a00ac8","getRootKeyForWallet(address)":"f8210398","getWalletsByRootKey(address)":"02345b98","getWalletsByRootKeyWithDelegations(address)":"3d005eab","linkCallerToRootKey((address,bytes,string),uint256)":"2f461453","linkWalletToRootKey((address,bytes,string),(address,bytes,string),uint256)":"243a7134"},"id":322}