{"abi":[{"type":"constructor","inputs":[{"name":"approvedOperators","type":"address[]","internalType":"address[]"}],"stateMutability":"nonpayable"},{"type":"function","name":"__OperatorRegistry_init","inputs":[{"name":"initialOperators","type":"address[]","internalType":"address[]"}],"outputs":[],"stateMutability":"nonpayable"},{"type":"function","name":"__RiverConfig_init","inputs":[{"name":"configManagers","type":"address[]","internalType":"address[]"}],"outputs":[],"stateMutability":"nonpayable"},{"type":"function","name":"addStream","inputs":[{"name":"streamId","type":"bytes32","internalType":"bytes32"},{"name":"genesisMiniblockHash","type":"bytes32","internalType":"bytes32"},{"name":"stream","type":"tuple","internalType":"struct Stream","components":[{"name":"lastMiniblockHash","type":"bytes32","internalType":"bytes32"},{"name":"lastMiniblockNum","type":"uint64","internalType":"uint64"},{"name":"reserved0","type":"uint64","internalType":"uint64"},{"name":"flags","type":"uint64","internalType":"uint64"},{"name":"nodes","type":"address[]","internalType":"address[]"}]}],"outputs":[],"stateMutability":"nonpayable"},{"type":"function","name":"allocateStream","inputs":[{"name":"streamId","type":"bytes32","internalType":"bytes32"},{"name":"nodes","type":"address[]","internalType":"address[]"},{"name":"genesisMiniblockHash","type":"bytes32","internalType":"bytes32"},{"name":"genesisMiniblock","type":"bytes","internalType":"bytes"}],"outputs":[],"stateMutability":"nonpayable"},{"type":"function","name":"approveConfigurationManager","inputs":[{"name":"manager","type":"address","internalType":"address"}],"outputs":[],"stateMutability":"nonpayable"},{"type":"function","name":"approveOperator","inputs":[{"name":"operator","type":"address","internalType":"address"}],"outputs":[],"stateMutability":"nonpayable"},{"type":"function","name":"configurationExists","inputs":[{"name":"key","type":"bytes32","internalType":"bytes32"}],"outputs":[{"name":"","type":"bool","internalType":"bool"}],"stateMutability":"view"},{"type":"function","name":"deleteConfiguration","inputs":[{"name":"key","type":"bytes32","internalType":"bytes32"}],"outputs":[],"stateMutability":"nonpayable"},{"type":"function","name":"deleteConfigurationOnBlock","inputs":[{"name":"key","type":"bytes32","internalType":"bytes32"},{"name":"blockNumber","type":"uint64","internalType":"uint64"}],"outputs":[],"stateMutability":"nonpayable"},{"type":"function","name":"getAllConfiguration","inputs":[],"outputs":[{"name":"","type":"tuple[]","internalType":"struct Setting[]","components":[{"name":"key","type":"bytes32","internalType":"bytes32"},{"name":"blockNumber","type":"uint64","internalType":"uint64"},{"name":"value","type":"bytes","internalType":"bytes"}]}],"stateMutability":"view"},{"type":"function","name":"getAllNodeAddresses","inputs":[],"outputs":[{"name":"","type":"address[]","internalType":"address[]"}],"stateMutability":"view"},{"type":"function","name":"getAllNodes","inputs":[],"outputs":[{"name":"","type":"tuple[]","internalType":"struct Node[]","components":[{"name":"status","type":"uint8","internalType":"enum NodeStatus"},{"name":"url","type":"string","internalType":"string"},{"name":"nodeAddress","type":"address","internalType":"address"},{"name":"operator","type":"address","internalType":"address"}]}],"stateMutability":"view"},{"type":"function","name":"getAllOperators","inputs":[],"outputs":[{"name":"","type":"address[]","internalType":"address[]"}],"stateMutability":"view"},{"type":"function","name":"getConfiguration","inputs":[{"name":"key","type":"bytes32","internalType":"bytes32"}],"outputs":[{"name":"","type":"tuple[]","internalType":"struct Setting[]","components":[{"name":"key","type":"bytes32","internalType":"bytes32"},{"name":"blockNumber","type":"uint64","internalType":"uint64"},{"name":"value","type":"bytes","internalType":"bytes"}]}],"stateMutability":"view"},{"type":"function","name":"getNode","inputs":[{"name":"nodeAddress","type":"address","internalType":"address"}],"outputs":[{"name":"","type":"tuple","internalType":"struct Node","components":[{"name":"status","type":"uint8","internalType":"enum NodeStatus"},{"name":"url","type":"string","internalType":"string"},{"name":"nodeAddress","type":"address","internalType":"address"},{"name":"operator","type":"address","internalType":"address"}]}],"stateMutability":"view"},{"type":"function","name":"getNodeCount","inputs":[],"outputs":[{"name":"","type":"uint256","internalType":"uint256"}],"stateMutability":"view"},{"type":"function","name":"getPaginatedStreams","inputs":[{"name":"start","type":"uint256","internalType":"uint256"},{"name":"stop","type":"uint256","internalType":"uint256"}],"outputs":[{"name":"","type":"tuple[]","internalType":"struct StreamWithId[]","components":[{"name":"id","type":"bytes32","internalType":"bytes32"},{"name":"stream","type":"tuple","internalType":"struct Stream","components":[{"name":"lastMiniblockHash","type":"bytes32","internalType":"bytes32"},{"name":"lastMiniblockNum","type":"uint64","internalType":"uint64"},{"name":"reserved0","type":"uint64","internalType":"uint64"},{"name":"flags","type":"uint64","internalType":"uint64"},{"name":"nodes","type":"address[]","internalType":"address[]"}]}]},{"name":"","type":"bool","internalType":"bool"}],"stateMutability":"view"},{"type":"function","name":"getStream","inputs":[{"name":"streamId","type":"bytes32","internalType":"bytes32"}],"outputs":[{"name":"stream","type":"tuple","internalType":"struct Stream","components":[{"name":"lastMiniblockHash","type":"bytes32","internalType":"bytes32"},{"name":"lastMiniblockNum","type":"uint64","internalType":"uint64"},{"name":"reserved0","type":"uint64","internalType":"uint64"},{"name":"flags","type":"uint64","internalType":"uint64"},{"name":"nodes","type":"address[]","internalType":"address[]"}]}],"stateMutability":"view"},{"type":"function","name":"getStreamCount","inputs":[],"outputs":[{"name":"","type":"uint256","internalType":"uint256"}],"stateMutability":"view"},{"type":"function","name":"getStreamCountOnNode","inputs":[{"name":"nodeAddress","type":"address","internalType":"address"}],"outputs":[{"name":"count","type":"uint256","internalType":"uint256"}],"stateMutability":"view"},{"type":"function","name":"getStreamWithGenesis","inputs":[{"name":"streamId","type":"bytes32","internalType":"bytes32"}],"outputs":[{"name":"stream","type":"tuple","internalType":"struct Stream","components":[{"name":"lastMiniblockHash","type":"bytes32","internalType":"bytes32"},{"name":"lastMiniblockNum","type":"uint64","internalType":"uint64"},{"name":"reserved0","type":"uint64","internalType":"uint64"},{"name":"flags","type":"uint64","internalType":"uint64"},{"name":"nodes","type":"address[]","internalType":"address[]"}]},{"name":"","type":"bytes32","internalType":"bytes32"},{"name":"","type":"bytes","internalType":"bytes"}],"stateMutability":"view"},{"type":"function","name":"isConfigurationManager","inputs":[{"name":"manager","type":"address","internalType":"address"}],"outputs":[{"name":"","type":"bool","internalType":"bool"}],"stateMutability":"view"},{"type":"function","name":"isNode","inputs":[{"name":"nodeAddress","type":"address","internalType":"address"}],"outputs":[{"name":"","type":"bool","internalType":"bool"}],"stateMutability":"view"},{"type":"function","name":"isOperator","inputs":[{"name":"operator","type":"address","internalType":"address"}],"outputs":[{"name":"","type":"bool","internalType":"bool"}],"stateMutability":"view"},{"type":"function","name":"isStream","inputs":[{"name":"streamId","type":"bytes32","internalType":"bytes32"}],"outputs":[{"name":"","type":"bool","internalType":"bool"}],"stateMutability":"view"},{"type":"function","name":"placeStreamOnNode","inputs":[{"name":"streamId","type":"bytes32","internalType":"bytes32"},{"name":"nodeAddress","type":"address","internalType":"address"}],"outputs":[],"stateMutability":"nonpayable"},{"type":"function","name":"registerNode","inputs":[{"name":"nodeAddress","type":"address","internalType":"address"},{"name":"url","type":"string","internalType":"string"},{"name":"status","type":"uint8","internalType":"enum NodeStatus"}],"outputs":[],"stateMutability":"nonpayable"},{"type":"function","name":"removeConfigurationManager","inputs":[{"name":"manager","type":"address","internalType":"address"}],"outputs":[],"stateMutability":"nonpayable"},{"type":"function","name":"removeNode","inputs":[{"name":"nodeAddress","type":"address","internalType":"address"}],"outputs":[],"stateMutability":"nonpayable"},{"type":"function","name":"removeOperator","inputs":[{"name":"operator","type":"address","internalType":"address"}],"outputs":[],"stateMutability":"nonpayable"},{"type":"function","name":"removeStreamFromNode","inputs":[{"name":"streamId","type":"bytes32","internalType":"bytes32"},{"name":"nodeAddress","type":"address","internalType":"address"}],"outputs":[],"stateMutability":"nonpayable"},{"type":"function","name":"setConfiguration","inputs":[{"name":"key","type":"bytes32","internalType":"bytes32"},{"name":"blockNumber","type":"uint64","internalType":"uint64"},{"name":"value","type":"bytes","internalType":"bytes"}],"outputs":[],"stateMutability":"nonpayable"},{"type":"function","name":"setStreamLastMiniblock","inputs":[{"name":"streamId","type":"bytes32","internalType":"bytes32"},{"name":"","type":"bytes32","internalType":"bytes32"},{"name":"lastMiniblockHash","type":"bytes32","internalType":"bytes32"},{"name":"lastMiniblockNum","type":"uint64","internalType":"uint64"},{"name":"isSealed","type":"bool","internalType":"bool"}],"outputs":[],"stateMutability":"nonpayable"},{"type":"function","name":"setStreamLastMiniblockBatch","inputs":[{"name":"miniblocks","type":"tuple[]","internalType":"struct SetMiniblock[]","components":[{"name":"streamId","type":"bytes32","internalType":"bytes32"},{"name":"prevMiniBlockHash","type":"bytes32","internalType":"bytes32"},{"name":"lastMiniblockHash","type":"bytes32","internalType":"bytes32"},{"name":"lastMiniblockNum","type":"uint64","internalType":"uint64"},{"name":"isSealed","type":"bool","internalType":"bool"}]}],"outputs":[],"stateMutability":"nonpayable"},{"type":"function","name":"updateNodeStatus","inputs":[{"name":"nodeAddress","type":"address","internalType":"address"},{"name":"status","type":"uint8","internalType":"enum NodeStatus"}],"outputs":[],"stateMutability":"nonpayable"},{"type":"function","name":"updateNodeUrl","inputs":[{"name":"nodeAddress","type":"address","internalType":"address"},{"name":"url","type":"string","internalType":"string"}],"outputs":[],"stateMutability":"nonpayable"},{"type":"event","name":"ConfigurationChanged","inputs":[{"name":"key","type":"bytes32","indexed":false,"internalType":"bytes32"},{"name":"block","type":"uint64","indexed":false,"internalType":"uint64"},{"name":"value","type":"bytes","indexed":false,"internalType":"bytes"},{"name":"deleted","type":"bool","indexed":false,"internalType":"bool"}],"anonymous":false},{"type":"event","name":"ConfigurationManagerAdded","inputs":[{"name":"manager","type":"address","indexed":true,"internalType":"address"}],"anonymous":false},{"type":"event","name":"ConfigurationManagerRemoved","inputs":[{"name":"manager","type":"address","indexed":true,"internalType":"address"}],"anonymous":false},{"type":"event","name":"Initialized","inputs":[{"name":"version","type":"uint32","indexed":false,"internalType":"uint32"}],"anonymous":false},{"type":"event","name":"InterfaceAdded","inputs":[{"name":"interfaceId","type":"bytes4","indexed":true,"internalType":"bytes4"}],"anonymous":false},{"type":"event","name":"InterfaceRemoved","inputs":[{"name":"interfaceId","type":"bytes4","indexed":true,"internalType":"bytes4"}],"anonymous":false},{"type":"event","name":"NodeAdded","inputs":[{"name":"nodeAddress","type":"address","indexed":true,"internalType":"address"},{"name":"operator","type":"address","indexed":true,"internalType":"address"},{"name":"url","type":"string","indexed":false,"internalType":"string"},{"name":"status","type":"uint8","indexed":false,"internalType":"enum NodeStatus"}],"anonymous":false},{"type":"event","name":"NodeRemoved","inputs":[{"name":"nodeAddress","type":"address","indexed":true,"internalType":"address"}],"anonymous":false},{"type":"event","name":"NodeStatusUpdated","inputs":[{"name":"nodeAddress","type":"address","indexed":true,"internalType":"address"},{"name":"status","type":"uint8","indexed":false,"internalType":"enum NodeStatus"}],"anonymous":false},{"type":"event","name":"NodeUrlUpdated","inputs":[{"name":"nodeAddress","type":"address","indexed":true,"internalType":"address"},{"name":"url","type":"string","indexed":false,"internalType":"string"}],"anonymous":false},{"type":"event","name":"OperatorAdded","inputs":[{"name":"operatorAddress","type":"address","indexed":true,"internalType":"address"}],"anonymous":false},{"type":"event","name":"OperatorRemoved","inputs":[{"name":"operatorAddress","type":"address","indexed":true,"internalType":"address"}],"anonymous":false},{"type":"event","name":"OwnershipTransferred","inputs":[{"name":"previousOwner","type":"address","indexed":true,"internalType":"address"},{"name":"newOwner","type":"address","indexed":true,"internalType":"address"}],"anonymous":false},{"type":"event","name":"StreamAllocated","inputs":[{"name":"streamId","type":"bytes32","indexed":false,"internalType":"bytes32"},{"name":"nodes","type":"address[]","indexed":false,"internalType":"address[]"},{"name":"genesisMiniblockHash","type":"bytes32","indexed":false,"internalType":"bytes32"},{"name":"genesisMiniblock","type":"bytes","indexed":false,"internalType":"bytes"}],"anonymous":false},{"type":"event","name":"StreamCreated","inputs":[{"name":"streamId","type":"bytes32","indexed":false,"internalType":"bytes32"},{"name":"genesisMiniblockHash","type":"bytes32","indexed":false,"internalType":"bytes32"},{"name":"stream","type":"tuple","indexed":false,"internalType":"struct Stream","components":[{"name":"lastMiniblockHash","type":"bytes32","internalType":"bytes32"},{"name":"lastMiniblockNum","type":"uint64","internalType":"uint64"},{"name":"reserved0","type":"uint64","internalType":"uint64"},{"name":"flags","type":"uint64","internalType":"uint64"},{"name":"nodes","type":"address[]","internalType":"address[]"}]}],"anonymous":false},{"type":"event","name":"StreamLastMiniblockUpdateFailed","inputs":[{"name":"streamId","type":"bytes32","indexed":false,"internalType":"bytes32"},{"name":"lastMiniblockHash","type":"bytes32","indexed":false,"internalType":"bytes32"},{"name":"lastMiniblockNum","type":"uint64","indexed":false,"internalType":"uint64"},{"name":"reason","type":"string","indexed":false,"internalType":"string"}],"anonymous":false},{"type":"event","name":"StreamLastMiniblockUpdated","inputs":[{"name":"streamId","type":"bytes32","indexed":false,"internalType":"bytes32"},{"name":"lastMiniblockHash","type":"bytes32","indexed":false,"internalType":"bytes32"},{"name":"lastMiniblockNum","type":"uint64","indexed":false,"internalType":"uint64"},{"name":"isSealed","type":"bool","indexed":false,"internalType":"bool"}],"anonymous":false},{"type":"event","name":"StreamPlacementUpdated","inputs":[{"name":"streamId","type":"bytes32","indexed":false,"internalType":"bytes32"},{"name":"nodeAddress","type":"address","indexed":false,"internalType":"address"},{"name":"isAdded","type":"bool","indexed":false,"internalType":"bool"}],"anonymous":false},{"type":"error","name":"Initializable_InInitializingState","inputs":[]},{"type":"error","name":"Initializable_NotInInitializingState","inputs":[]},{"type":"error","name":"Introspection_AlreadySupported","inputs":[]},{"type":"error","name":"Introspection_NotSupported","inputs":[]},{"type":"error","name":"Ownable__NotOwner","inputs":[{"name":"account","type":"address","internalType":"address"}]},{"type":"error","name":"Ownable__ZeroAddress","inputs":[]}],"bytecode":{"object":"0x60806040523480156200001157600080fd5b5060405162004d7338038062004d738339810160408190526200003491620004a6565b6200003e620000c1565b620000493362000169565b60005b8151811015620000b957620000838282815181106200006f576200006f62000578565b60200260200101516200023760201b60201c565b620000b08282815181106200009c576200009c62000578565b60200260200101516200031c60201b60201c565b6001016200004c565b5050620005df565b7f59b501c3653afc186af7d48dda36cf6732bd21629a6295693664240a6ef520008054640100000000900460ff16156200010e576040516366008a2d60e01b815260040160405180910390fd5b805463ffffffff90811610156200016657805463ffffffff191663ffffffff90811782556040519081527fe9c9b456cb2994b80aeef036cf59d26e9617df80f816a6ee5a5b4166e07e2f5c9060200160405180910390a15b50565b60006200019d7f4675fa8241f86f37157864d3d49b85ad4b164352c516da28e1678a90470ae300546001600160a01b031690565b90506001600160a01b038216620001c757604051634e3ef82560e01b815260040160405180910390fd5b817f4675fa8241f86f37157864d3d49b85ad4b164352c516da28e1678a90470ae30080546001600160a01b0319166001600160a01b03928316179055604051838216918316907f8be0079c531659141344cd1fd0a4f28419497f9722a3daafe3b4186f6b6457e090600090a35050565b6001600160a01b038116620002865760408051808201825260078152664241445f41524760c81b6020820152905162461bcd60e51b81526200027d91906004016200058e565b60405180910390fd5b62000293600882620003e9565b15620002d757604080518082018252600e81526d414c52454144595f45584953545360901b6020820152905162461bcd60e51b81526200027d91906004016200058e565b620002e460088262000410565b506040516001600160a01b038216907fac6fa858e9350a46cec16539926e0fde25b7629f84b5a72bffaae4df888ae86d90600090a250565b6001600160a01b038116620003625760408051808201825260078152664241445f41524760c81b6020820152905162461bcd60e51b81526200027d91906004016200058e565b6200036f600d8262000410565b620003b257604080518082018252600e81526d414c52454144595f45584953545360901b6020820152905162461bcd60e51b81526200027d91906004016200058e565b6040516001600160a01b038216907f7afd798379ae2d2e5035438544cea2b60eb1dde6a8128e6d447fd2a25f8825a290600090a250565b6001600160a01b038116600090815260018301602052604081205415155b90505b92915050565b600062000407836001600160a01b03841660008181526001830160205260408120546200046a575081546001818101845560008481526020808220909301849055845484825282860190935260409020919091556200040a565b5060006200040a565b634e487b7160e01b600052604160045260246000fd5b80516001600160a01b0381168114620004a157600080fd5b919050565b60006020808385031215620004ba57600080fd5b82516001600160401b0380821115620004d257600080fd5b818501915085601f830112620004e757600080fd5b815181811115620004fc57620004fc62000473565b8060051b604051601f19603f8301168101818110858211171562000524576200052462000473565b6040529182528482019250838101850191888311156200054357600080fd5b938501935b828510156200056c576200055c8562000489565b8452938501939285019262000548565b98975050505050505050565b634e487b7160e01b600052603260045260246000fd5b60006020808352835180602085015260005b81811015620005be57858101830151858201604001528201620005a0565b506000604082860101526040601f19601f8301168501019250505092915050565b61478480620005ef6000396000f3fe608060405234801561001057600080fd5b506004361061021c5760003560e01c8063ac8a584a11610125578063ca78c41a116100ad578063d911c6321161007c578063d911c632146104d8578063ee885b12146104e0578063eecc66f4146104f3578063fc207c0114610506578063ff3a14ab1461051957600080fd5b8063ca78c41a1461047e578063d0c27c4f1461049f578063d4bd44a0146104b2578063d7a3158a146104c557600080fd5b8063ba428b1a116100f4578063ba428b1a14610428578063c0f220841461043b578063c179b85f14610443578063c87d132414610456578063c8fe3a011461046957600080fd5b8063ac8a584a146103dc578063b2b99ec9146103ef578063b2e76b8e14610402578063b7f227ee1461041557600080fd5b80636b883c39116101a85780639283ae3a116101775780639283ae3a1461036e5780639d209048146103815780639ee86d38146103a1578063a09449a6146103b4578063a1174e7d146103c757600080fd5b80636b883c39146103225780636d70f7ae146103355780637e4465e714610348578063813049ec1461035b57600080fd5b8063242cae9f116101ef578063242cae9f146102b157806331374511146102c457806339bf397e146102d75780633c2544d1146102ed578063581f8b9b1461030f57600080fd5b80630175015214610221578063035759e114610267578063081814db1461027c5780631290abe814610291575b600080fd5b61025261022f3660046136be565b6001600160a01b0390811660009081526007602052604090206002015416151590565b60405190151581526020015b60405180910390f35b61027a6102753660046136db565b61052c565b005b6102846106a0565b60405161025e9190613744565b6102a461029f3660046136db565b61090b565b60405161025e919061385f565b61027a6102bf3660046136be565b6109ef565b61027a6102d23660046138b6565b610a36565b6102df610ac7565b60405190815260200161025e565b6103006102fb3660046136db565b610ad8565b60405161025e939291906138f7565b61027a61031d366004613940565b610c6a565b61027a6103303660046139b6565b610e0a565b6102526103433660046136be565b610f32565b61027a610356366004613ada565b610f45565b61027a6103693660046136be565b61113d565b61028461037c3660046136db565b611238565b61039461038f3660046136be565b61139b565b60405161025e9190613bb5565b61027a6103af366004613bc8565b61151c565b61027a6103c2366004613c0d565b61169b565b6103cf611974565b60405161025e9190613c68565b61027a6103ea3660046136be565b611b48565b61027a6103fd3660046136be565b611cab565b61027a610410366004613ccc565b611e74565b61027a610423366004613d22565b611f5e565b61027a6104363660046138b6565b6121ad565b6102df612239565b61027a6104513660046136be565b612244565b6102df6104643660046136be565b612288565b610471612331565b60405161025e9190613d47565b61049161048c366004613d94565b61233d565b60405161025e929190613db6565b6102526104ad3660046136db565b61252e565b6102526104c03660046136be565b61253a565b61027a6104d3366004613e45565b612547565b6104716126dc565b61027a6104ee366004613bc8565b6126e8565b61027a610501366004613e97565b6128f8565b6102526105143660046136db565b612ac3565b61027a610527366004613ef6565b612ad0565b33610538600d82612e29565b61057b5760408051808201825260088152670848288be82aaa8960c31b6020820152905162461bcd60e51b81526105729190600401613f6a565b60405180910390fd5b81610587600a82612e4e565b6105c25760408051808201825260098152681393d517d193d5539160ba1b6020820152905162461bcd60e51b81526105729190600401613f6a565b6000838152600c602052604090205415610635576000838152600c602052604090208054806105f3576105f3613f7d565b60008281526020812060036000199093019283020181815560018101805467ffffffffffffffff191690559061062c6002830182613556565b505090556105c2565b6000838152600c6020526040812061064c91613590565b610657600a84612e66565b50604080518481526001600160401b03602082015260808183018190526000908201526001606082015290516000805160206147648339815191529181900360a00190a1505050565b60606000806106af600a612e72565b905060005b818110156106f05760006106c9600a83612e7c565b6000818152600c60205260409020549091506106e59085613fa9565b9350506001016106b4565b506000826001600160401b0381111561070b5761070b613a38565b60405190808252806020026020018201604052801561075857816020015b604080516060808201835260008083526020830152918101919091528152602001906001900390816107295790505b5090506000610767600a612e72565b90506000805b82811015610900576000610782600a83612e7c565b6000818152600c6020908152604080832080548251818502810185019093528083529495509293909291849084015b8282101561089557600084815260209081902060408051606081018252600386029092018054835260018101546001600160401b0316938301939093526002830180549293929184019161080490613fbc565b80601f016020809104026020016040519081016040528092919081815260200182805461083090613fbc565b801561087d5780601f106108525761010080835404028352916020019161087d565b820191906000526020600020905b81548152906001019060200180831161086057829003601f168201915b505050505081525050815260200190600101906107b1565b50505050905060005b81518110156108f2578181815181106108b9576108b9613ff0565b60200260200101518786806108cd90614006565b9750815181106108df576108df613ff0565b602090810291909101015260010161089e565b50505080600101905061076d565b509195945050505050565b6040805160008082526020820181905281830181905260608083019190915260808201529081905261093c82612e88565b600082815260026020818152604092839020835160a0810185528154815260018201546001600160401b0380821683860152600160401b8204811683880152600160801b90910416606082015292810180548551818502810185019096528086529394919360808601938301828280156109df57602002820191906000526020600020905b81546001600160a01b031681526001909101906020018083116109c1575b5050505050815250509050919050565b6109f7612ece565b6001600160a01b0316336001600160a01b031614610a2a576040516365f4906560e01b8152336004820152602401610572565b610a3381612efc565b50565b7f59b501c3653afc186af7d48dda36cf6732bd21629a6295693664240a6ef5200054640100000000900460ff16610a8057604051630ef4733760e31b815260040160405180910390fd5b60005b81811015610ac257610aba838383818110610aa057610aa0613ff0565b9050602002016020810190610ab591906136be565b612fce565b600101610a83565b505050565b6000610ad36005612e72565b905090565b60408051600080825260208201819052818301819052606080830182905260808301819052928290529091610b0c84612e88565b600084815260026020818152604080842060048352818520546003845294829020825160a0810184528254815260018301546001600160401b0380821683880152600160401b8204811683870152600160801b90910416606082015294820180548451818702810187019095528085529296959194919387936080860193919291830182828015610bc657602002820191906000526020600020905b81546001600160a01b03168152600190910190602001808311610ba8575b5050505050815250509250808054610bdd90613fbc565b80601f0160208091040260200160405190810160405280929190818152602001828054610c0990613fbc565b8015610c565780601f10610c2b57610100808354040283529160200191610c56565b820191906000526020600020905b815481529060010190602001808311610c3957829003601f168201915b505050505090509250925092509193909250565b6001600160a01b03808316600090815260076020526040902060020154839116610cca57604080518082018252600e81526d1393d11157d393d517d193d5539160921b6020820152905162461bcd60e51b81526105729190600401613f6a565b33610cd6600882612e29565b610d105760408051808201825260088152670848288be82aaa8960c31b6020820152905162461bcd60e51b81526105729190600401613f6a565b6001600160a01b0380851660009081526007602052604090206003015485913391168114610d6e5760408051808201825260088152670848288be82aaa8960c31b6020820152905162461bcd60e51b81526105729190600401613f6a565b6001600160a01b03861660009081526007602052604090208054610d959060ff1687613093565b80548690829060ff19166001836005811115610db357610db3613b29565b021790555060028101546040516001600160a01b03909116907f20891cc7622c7951cbd8c70c61a5201eb45625b8c00e8f6c986cfca78f3dbfa090610df990899061401f565b60405180910390a250505050505050565b336000818152600760205260409020600201546001600160a01b0316610e6657604080518082018252600e81526d1393d11157d393d517d193d5539160921b6020820152905162461bcd60e51b81526105729190600401613f6a565b86610e7081613226565b8686610e7c8282613272565b60008a815260026020819052604082209189918c918c91859190610ea390830185856135b1565b50509290925550610eb7905060008c6132fe565b5060008b8152600360205260409020610ed1878983614094565b5060008b81526004602052604090819020899055517f55ef7efc60ef99743e54209752c9a8e047e013917ec91572db75875069dd65bb90610f1d908d908d908d908d908d908d906141bf565b60405180910390a15050505050505050505050565b6000610f3f600883612e29565b92915050565b33610f51600882612e29565b610f8b5760408051808201825260088152670848288be82aaa8960c31b6020820152905162461bcd60e51b81526105729190600401613f6a565b6001600160a01b03808416600090815260076020526040902060020154849116610feb57604080518082018252600e81526d1393d11157d393d517d193d5539160921b6020820152905162461bcd60e51b81526105729190600401613f6a565b6001600160a01b03808516600090815260076020526040902060030154859133911681146110495760408051808201825260088152670848288be82aaa8960c31b6020820152905162461bcd60e51b81526105729190600401613f6a565b6001600160a01b0386166000908152600760209081526040918290209151611073918891016141ff565b604051602081830303815290604052805190602001208160010160405160200161109d919061421b565b60405160208183030381529060405280519060200120036110ed5760408051808201825260078152664241445f41524760c81b6020820152905162461bcd60e51b81526105729190600401613f6a565b600181016110fb8782614291565b5060028101546040516001600160a01b03909116907f4505168a8705a16fd4d0575197fd0f510db69df93a065e158ad2c0957ba12bac90610df9908990613f6a565b611145612ece565b6001600160a01b0316336001600160a01b031614611178576040516365f4906560e01b8152336004820152602401610572565b6001600160a01b0381166111bb5760408051808201825260078152664241445f41524760c81b6020820152905162461bcd60e51b81526105729190600401613f6a565b6111c6600d8261330a565b6112015760408051808201825260098152681393d517d193d5539160ba1b6020820152905162461bcd60e51b81526105729190600401613f6a565b6040516001600160a01b038216907ff9889c857e5356066b564327caa757c325ecbc001b2b47d72edf8cf9aedb1be590600090a250565b606081611246600a82612e4e565b6112815760408051808201825260098152681393d517d193d5539160ba1b6020820152905162461bcd60e51b81526105729190600401613f6a565b6000838152600c6020908152604080832080548251818502810185019093528083529193909284015b8282101561138e57600084815260209081902060408051606081018252600386029092018054835260018101546001600160401b031693830193909352600283018054929392918401916112fd90613fbc565b80601f016020809104026020016040519081016040528092919081815260200182805461132990613fbc565b80156113765780601f1061134b57610100808354040283529160200191611376565b820191906000526020600020905b81548152906001019060200180831161135957829003601f168201915b505050505081525050815260200190600101906112aa565b5050505091505b50919050565b6113c66040805160808101909152806000815260606020820181905260006040830181905291015290565b6113d1600583612e29565b61141157604080518082018252600e81526d1393d11157d393d517d193d5539160921b6020820152905162461bcd60e51b81526105729190600401613f6a565b6001600160a01b038216600090815260076020526040908190208151608081019092528054829060ff16600581111561144c5761144c613b29565b600581111561145d5761145d613b29565b815260200160018201805461147190613fbc565b80601f016020809104026020016040519081016040528092919081815260200182805461149d90613fbc565b80156114ea5780601f106114bf576101008083540402835291602001916114ea565b820191906000526020600020905b8154815290600101906020018083116114cd57829003601f168201915b505050918352505060028201546001600160a01b03908116602083015260039092015490911660409091015292915050565b8161152681612e88565b336000818152600760205260409020600201546001600160a01b031661158257604080518082018252600e81526d1393d11157d393d517d193d5539160921b6020820152905162461bcd60e51b81526105729190600401613f6a565b60008481526002602081905260408220908101805491929091905b8181101561161f57866001600160a01b03168382815481106115c1576115c1613ff0565b6000918252602090912001546001600160a01b03160361161757604080518082018252600e81526d414c52454144595f45584953545360901b6020820152905162461bcd60e51b81526105729190600401613f6a565b60010161159d565b50815460018082018455600084815260209081902090920180546001600160a01b0319166001600160a01b038a16908117909155604080518b8152938401919091528201527faaa473c28a5fe04b6a7ecd795826e462f9d0c23f00ef9f51ec02fa6ea418806f906060015b60405180910390a150505050505050565b336116a7600d82612e29565b6116e15760408051808201825260088152670848288be82aaa8960c31b6020820152905162461bcd60e51b81526105729190600401613f6a565b67fffffffffffffffe196001600160401b0385160161172f5760408051808201825260078152664241445f41524760c81b6020820152905162461bcd60e51b81526105729190600401613f6a565b600082900361176d5760408051808201825260078152664241445f41524760c81b6020820152905162461bcd60e51b81526105729190600401613f6a565b611778600a86612e4e565b61178957611787600a866132fe565b505b6000858152600c6020526040812054905b81811015611870576000878152600c6020526040902080546001600160401b0388169190839081106117ce576117ce613ff0565b60009182526020909120600160039092020101546001600160401b031603611868576000878152600c602052604090208054869186918490811061181457611814613ff0565b90600052602060002090600302016002019182611832929190614094565b5060008051602061476483398151915287878787600060405161185995949392919061434e565b60405180910390a1505061196d565b60010161179a565b506000600c0160008781526020019081526020016000206040518060600160405280888152602001876001600160401b0316815260200186868080601f0160208091040260200160405190810160405280939291908181526020018383808284376000920182905250939094525050835460018082018655948252602091829020845160039092020190815590830151938101805467ffffffffffffffff19166001600160401b0390951694909417909355506040810151909190600282019061193a9082614291565b50505060008051602061476483398151915286868686600060405161196395949392919061434e565b60405180910390a1505b5050505050565b606060006119826005612e72565b6001600160401b0381111561199957611999613a38565b6040519080825280602002602001820160405280156119f557816020015b6119e26040805160808101909152806000815260606020820181905260006040830181905291015290565b8152602001906001900390816119b75790505b50905060005b611a056005612e72565b8110156113955760076000611a1b600584612e7c565b6001600160a01b03168152602081019190915260409081016000208151608081019092528054829060ff166005811115611a5757611a57613b29565b6005811115611a6857611a68613b29565b8152602001600182018054611a7c90613fbc565b80601f0160208091040260200160405190810160405280929190818152602001828054611aa890613fbc565b8015611af55780601f10611aca57610100808354040283529160200191611af5565b820191906000526020600020905b815481529060010190602001808311611ad857829003601f168201915b505050918352505060028201546001600160a01b0390811660208301526003909201549091166040909101528251839083908110611b3557611b35613ff0565b60209081029190910101526001016119fb565b611b50612ece565b6001600160a01b0316336001600160a01b031614611b83576040516365f4906560e01b8152336004820152602401610572565b611b8e600882612e29565b611bd257604080518082018252601281527113d41154905513d497d393d517d193d5539160721b6020820152905162461bcd60e51b81526105729190600401613f6a565b60005b611bdf6005612e72565b811015611c67576001600160a01b03821660076000611bff600585612e7c565b6001600160a01b0390811682526020820192909252604001600020600301541603611c5f57604080518082018252600d81526c4f55545f4f465f424f554e445360981b6020820152905162461bcd60e51b81526105729190600401613f6a565b600101611bd5565b50611c7360088261330a565b506040516001600160a01b038216907f80c0b871b97b595b16a7741c1b06fed0c6f6f558639f18ccbce50724325dc40d90600090a250565b6001600160a01b0380821660009081526007602052604090206003015482913391168114611d095760408051808201825260088152670848288be82aaa8960c31b6020820152905162461bcd60e51b81526105729190600401613f6a565b6001600160a01b0383811660009081526007602052604090206002015416611d6757604080518082018252600e81526d1393d11157d393d517d193d5539160921b6020820152905162461bcd60e51b81526105729190600401613f6a565b60056001600160a01b03841660009081526007602052604090205460ff166005811115611d9657611d96613b29565b14611ddf5760408051808201825260168152751393d11157d4d510551157d393d517d0531313d5d15160521b6020820152905162461bcd60e51b81526105729190600401613f6a565b611dea60058461330a565b506001600160a01b0383166000908152600760205260408120805460ff1916815590611e196001830182613556565b506002810180546001600160a01b03199081169091556003909101805490911690556040516001600160a01b038416907fcfc24166db4bb677e857cacabd1541fb2b30645021b27c5130419589b84db52b90600090a2505050565b336000818152600760205260409020600201546001600160a01b0316611ed057604080518082018252600e81526d1393d11157d393d517d193d5539160921b6020820152905162461bcd60e51b81526105729190600401613f6a565b83611eda81613226565b611ee7608084018461438b565b611ef18282613272565b611efc6000886132fe565b5060008781526002602052604090208590611f178282614460565b505060008781526004602052604090819020879055517fac1b69e6e0382c43def3cccabf63091ba47b5d8b10a705d16a1076668643fe4d9061168a9089908990899061452f565b33611f6a600d82612e29565b611fa45760408051808201825260088152670848288be82aaa8960c31b6020820152905162461bcd60e51b81526105729190600401613f6a565b6000805b6000858152600c6020526040902054811015612125576000858152600c6020526040902080546001600160401b038616919083908110611fea57611fea613ff0565b60009182526020909120600160039092020101546001600160401b03160361211d576000858152600c602052604090208054612028906001906145f8565b8154811061203857612038613ff0565b90600052602060002090600302016000600c016000878152602001908152602001600020828154811061206d5761206d613ff0565b600091825260209091208254600390920201908155600180830154908201805467ffffffffffffffff19166001600160401b039092169190911790556002808201906120bb9084018261460b565b5050506000858152600c602052604090208054806120db576120db613f7d565b60008281526020812060036000199093019283020181815560018101805467ffffffffffffffff19169055906121146002830182613556565b50509055600191505b600101611fa8565b50806121625760408051808201825260098152681393d517d193d5539160ba1b6020820152905162461bcd60e51b81526105729190600401613f6a565b604080518581526001600160401b038516602082015260808183018190526000908201526001606082015290516000805160206147648339815191529181900360a00190a150505050565b7f59b501c3653afc186af7d48dda36cf6732bd21629a6295693664240a6ef5200054640100000000900460ff166121f757604051630ef4733760e31b815260040160405180910390fd5b60005b81811015610ac25761223183838381811061221757612217613ff0565b905060200201602081019061222c91906136be565b612efc565b6001016121fa565b6000610ad381612e72565b61224c612ece565b6001600160a01b0316336001600160a01b03161461227f576040516365f4906560e01b8152336004820152602401610572565b610a3381612fce565b60008061229481612e72565b905060005b8181101561232a5760006122ad8183612e7c565b60008181526002602052604081209192505b600282015481101561231c57866001600160a01b03168260020182815481106122ea576122ea613ff0565b6000918252602090912001546001600160a01b0316036123145761230d86614006565b955061231c565b6001016122bf565b505050806001019050612299565b5050919050565b6060610ad3600561331f565b6060600082841061237d5760408051808201825260078152664241445f41524760c81b6020820152905162461bcd60e51b81526105729190600401613f6a565b600061238881612e72565b90506000818511612399578461239b565b815b905060008682116123ad5760006123b7565b6123b787836145f8565b90506000816001600160401b038111156123d3576123d3613a38565b60405190808252806020026020018201604052801561240c57816020015b6123f9613614565b8152602001906001900390816123f15790505b50905060005b8281101561251c576000612431612429838c613fa9565b600090612e7c565b60408051808201825282815260008381526002602081815291849020845160a0810186528154815260018201546001600160401b0380821683870152600160401b8204811683890152600160801b90910416606082015291810180548651818602810186019097528087529697509395838701959294919360808601939291908301828280156124ea57602002820191906000526020600020905b81546001600160a01b031681526001909101906020018083116124cc575b50505050508152505081525083838151811061250857612508613ff0565b602090810291909101015250600101612412565b509450505083101590505b9250929050565b6000610f3f8183612e4e565b6000610f3f600d83612e29565b336000818152600760205260409020600201546001600160a01b03166125a357604080518082018252600e81526d1393d11157d393d517d193d5539160921b6020820152905162461bcd60e51b81526105729190600401613f6a565b856125ad81612e88565b6000878152600260205260409020600180820154600160801b9004161561260957604080518082018252600d81526c14d51491505357d4d150531151609a1b6020820152905162461bcd60e51b81526105729190600401613f6a565b60018101546001600160401b038087169116106126555760408051808201825260078152664241445f41524760c81b6020820152905162461bcd60e51b81526105729190600401613f6a565b600088815260036020526040812061266c91613556565b85815560018101805467ffffffffffffffff19166001600160401b03871617905583156126c6576001818101805467ffffffffffffffff60801b198116600160801b918290046001600160401b0316909317029190911790555b6126d28887878761332c565b5050505050505050565b6060610ad3600861331f565b816126f281612e88565b336000818152600760205260409020600201546001600160a01b031661274e57604080518082018252600e81526d1393d11157d393d517d193d5539160921b6020820152905162461bcd60e51b81526105729190600401613f6a565b60008481526002602081905260408220908101805491929091815b8181101561286457876001600160a01b031684828154811061278d5761278d613ff0565b6000918252602090912001546001600160a01b03160361285c57836127b36001846145f8565b815481106127c3576127c3613ff0565b9060005260206000200160009054906101000a90046001600160a01b03168482815481106127f3576127f3613ff0565b9060005260206000200160006101000a8154816001600160a01b0302191690836001600160a01b031602179055508380548061283157612831613f7d565b600082815260209020810160001990810180546001600160a01b031916905501905560019250612864565b600101612769565b50816128a657604080518082018252600e81526d1393d11157d393d517d193d5539160921b6020820152905162461bcd60e51b81526105729190600401613f6a565b604080518981526001600160a01b038916602082015260008183015290517faaa473c28a5fe04b6a7ecd795826e462f9d0c23f00ef9f51ec02fa6ea418806f9181900360600190a15050505050505050565b33612904600882612e29565b61293e5760408051808201825260088152670848288be82aaa8960c31b6020820152905162461bcd60e51b81526105729190600401613f6a565b6001600160a01b03848116600090815260076020526040902060020154161561299d57604080518082018252600e81526d414c52454144595f45584953545360901b6020820152905162461bcd60e51b81526105729190600401613f6a565b600060405180608001604052808460058111156129bc576129bc613b29565b8152602081018690526001600160a01b03871660408201523360609091015290506129e8600586613379565b506001600160a01b03851660009081526007602052604090208151815483929190829060ff19166001836005811115612a2357612a23613b29565b021790555060208201516001820190612a3c9082614291565b506040828101516002830180546001600160a01b03199081166001600160a01b03938416179091556060909401516003909301805490941692811692909217909255905133918716907f759154d15a6aec80ceab7bc8820f46ebc53ad68bb18f47afb77483fea9dcc9ff90612ab490889088906146db565b60405180910390a35050505050565b6000610f3f600a83612e4e565b336000818152600760205260409020600201546001600160a01b0316612b2c57604080518082018252600e81526d1393d11157d393d517d193d5539160921b6020820152905162461bcd60e51b81526105729190600401613f6a565b816000819003612b6b5760408051808201825260078152664241445f41524760c81b6020820152905162461bcd60e51b81526105729190600401613f6a565b60005b8181101561196d5736858583818110612b8957612b89613ff0565b60a002919091019150612ba0905060008235612e4e565b612c18577f75460fe319331413a18a82d99b07735cec53fa0c4061ada38c2141e331082afa81356040830135612bdc60808501606086016146fd565b60408051808201825260098152681393d517d193d5539160ba1b60208201529051612c0a949392919061471a565b60405180910390a150612e21565b80356000908152600260205260409020600180820154600160801b90041615612cb4577f75460fe319331413a18a82d99b07735cec53fa0c4061ada38c2141e331082afa82356040840135612c7360808601606087016146fd565b604080518082018252600d81526c14d51491505357d4d150531151609a1b60208201529051612ca5949392919061471a565b60405180910390a15050612e21565b612cc460808301606084016146fd565b60018201546001600160401b03918216911610612d3f577f75460fe319331413a18a82d99b07735cec53fa0c4061ada38c2141e331082afa82356040840135612d1360808601606087016146fd565b60408051808201825260078152664241445f41524760c81b60208201529051612ca5949392919061471a565b60018101546001600160401b0316600003612d6d5781356000908152600360205260408120612d6d91613556565b60408201358155612d8460808301606084016146fd565b60018201805467ffffffffffffffff19166001600160401b0392909216919091179055612db760a0830160808401614748565b15612def576001818101805467ffffffffffffffff60801b198116600160801b918290046001600160401b0316909317029190911790555b612e1e82356040840135612e0960808601606087016146fd565b612e1960a0870160808801614748565b61332c565b50505b600101612b6e565b6001600160a01b038116600090815260018301602052604081205415155b9392505050565b60008181526001830160205260408120541515612e47565b6000612e47838361338e565b6000610f3f825490565b6000612e478383613481565b612e93600082612e4e565b610a335760408051808201825260098152681393d517d193d5539160ba1b6020820152905162461bcd60e51b81526105729190600401613f6a565b7f4675fa8241f86f37157864d3d49b85ad4b164352c516da28e1678a90470ae300546001600160a01b031690565b6001600160a01b038116612f3f5760408051808201825260078152664241445f41524760c81b6020820152905162461bcd60e51b81526105729190600401613f6a565b612f4a600882612e29565b15612f8b57604080518082018252600e81526d414c52454144595f45584953545360901b6020820152905162461bcd60e51b81526105729190600401613f6a565b612f96600882613379565b506040516001600160a01b038216907fac6fa858e9350a46cec16539926e0fde25b7629f84b5a72bffaae4df888ae86d90600090a250565b6001600160a01b0381166130115760408051808201825260078152664241445f41524760c81b6020820152905162461bcd60e51b81526105729190600401613f6a565b61301c600d82613379565b61305c57604080518082018252600e81526d414c52454144595f45584953545360901b6020820152905162461bcd60e51b81526105729190600401613f6a565b6040516001600160a01b038216907f7afd798379ae2d2e5035438544cea2b60eb1dde6a8128e6d447fd2a25f8825a290600090a250565b60008260058111156130a7576130a7613b29565b14806130fb575060018260058111156130c2576130c2613b29565b1480156130fb575060038160058111156130de576130de613b29565b14806130fb575060048160058111156130f9576130f9613b29565b145b8061314e5750600282600581111561311557613115613b29565b14801561314e5750600381600581111561313157613131613b29565b148061314e5750600481600581111561314c5761314c613b29565b145b806131a15750600482600581111561316857613168613b29565b1480156131a15750600381600581111561318457613184613b29565b14806131a15750600581600581111561319f5761319f613b29565b145b806131d9575060038260058111156131bb576131bb613b29565b1480156131d9575060058160058111156131d7576131d7613b29565b145b156131e2575050565b60408051808201825260168152751393d11157d4d510551157d393d517d0531313d5d15160521b6020820152905162461bcd60e51b81526105729190600401613f6a565b613231600082612e4e565b15610a3357604080518082018252600e81526d414c52454144595f45584953545360901b6020820152905162461bcd60e51b81526105729190600401613f6a565b8060005b818110156132f8576132b084848381811061329357613293613ff0565b90506020020160208101906132a891906136be565b600590612e29565b6132f057604080518082018252600e81526d1393d11157d393d517d193d5539160921b6020820152905162461bcd60e51b81526105729190600401613f6a565b600101613276565b50505050565b6000612e4783836134ab565b6000612e47836001600160a01b03841661338e565b60606000612e47836134fa565b60007fccc26bbb6dd655ea0bb8a40a3c30e35c6bdf42f8faf0d71bbea897af768cda8b9050604051856000528460205283604052826060528160806000a160405250506000606052505050565b6000612e47836001600160a01b0384166134ab565b600081815260018301602052604081205480156134775760006133b26001836145f8565b85549091506000906133c6906001906145f8565b905080821461342b5760008660000182815481106133e6576133e6613ff0565b906000526020600020015490508087600001848154811061340957613409613ff0565b6000918252602080832090910192909255918252600188019052604090208390555b855486908061343c5761343c613f7d565b600190038181906000526020600020016000905590558560010160008681526020019081526020016000206000905560019350505050610f3f565b6000915050610f3f565b600082600001828154811061349857613498613ff0565b9060005260206000200154905092915050565b60008181526001830160205260408120546134f257508154600181810184556000848152602080822090930184905584548482528286019093526040902091909155610f3f565b506000610f3f565b60608160000180548060200260200160405190810160405280929190818152602001828054801561354a57602002820191906000526020600020905b815481526020019060010190808311613536575b50505050509050919050565b50805461356290613fbc565b6000825580601f10613572575050565b601f016020900490600052602060002090810190610a33919061365e565b5080546000825560030290600052602060002090810190610a339190613673565b828054828255906000526020600020908101928215613604579160200282015b828111156136045781546001600160a01b0319166001600160a01b038435161782556020909201916001909101906135d1565b5061361092915061365e565b5090565b6040805180820190915260008152602081016136596040805160a081018252600080825260208201819052918101829052606080820192909252608081019190915290565b905290565b5b80821115613610576000815560010161365f565b8082111561361057600080825560018201805467ffffffffffffffff191690556136a06002830182613556565b50600301613673565b6001600160a01b0381168114610a3357600080fd5b6000602082840312156136d057600080fd5b8135612e47816136a9565b6000602082840312156136ed57600080fd5b5035919050565b60005b8381101561370f5781810151838201526020016136f7565b50506000910152565b600081518084526137308160208601602086016136f4565b601f01601f19169290920160200192915050565b600060208083018184528085518083526040925060408601915060408160051b87010184880160005b838110156137c057888303603f19018552815180518452878101516001600160401b03168885015286015160608785018190526137ac81860183613718565b96890196945050509086019060010161376d565b509098975050505050505050565b600060a08301825184526020808401516001600160401b0380821660208801528060408701511660408801528060608701511660608801525050608084015160a0608087015282815180855260c088019150602083019450600092505b808310156138545784516001600160a01b0316825293830193600192909201919083019061382b565b509695505050505050565b602081526000612e4760208301846137ce565b60008083601f84011261388457600080fd5b5081356001600160401b0381111561389b57600080fd5b6020830191508360208260051b850101111561252757600080fd5b600080602083850312156138c957600080fd5b82356001600160401b038111156138df57600080fd5b6138eb85828601613872565b90969095509350505050565b60608152600061390a60608301866137ce565b84602084015282810360408401526139228185613718565b9695505050505050565b80356006811061393b57600080fd5b919050565b6000806040838503121561395357600080fd5b823561395e816136a9565b915061396c6020840161392c565b90509250929050565b60008083601f84011261398757600080fd5b5081356001600160401b0381111561399e57600080fd5b60208301915083602082850101111561252757600080fd5b600080600080600080608087890312156139cf57600080fd5b8635955060208701356001600160401b03808211156139ed57600080fd5b6139f98a838b01613872565b9097509550604089013594506060890135915080821115613a1957600080fd5b50613a2689828a01613975565b979a9699509497509295939492505050565b634e487b7160e01b600052604160045260246000fd5b600082601f830112613a5f57600080fd5b81356001600160401b0380821115613a7957613a79613a38565b604051601f8301601f19908116603f01168101908282118183101715613aa157613aa1613a38565b81604052838152866020858801011115613aba57600080fd5b836020870160208301376000602085830101528094505050505092915050565b60008060408385031215613aed57600080fd5b8235613af8816136a9565b915060208301356001600160401b03811115613b1357600080fd5b613b1f85828601613a4e565b9150509250929050565b634e487b7160e01b600052602160045260246000fd5b60068110613b5d57634e487b7160e01b600052602160045260246000fd5b9052565b613b6c828251613b3f565b6000602082015160806020850152613b876080850182613718565b6040848101516001600160a01b03908116918701919091526060948501511693909401929092525090919050565b602081526000612e476020830184613b61565b60008060408385031215613bdb57600080fd5b823591506020830135613bed816136a9565b809150509250929050565b6001600160401b0381168114610a3357600080fd5b60008060008060608587031215613c2357600080fd5b843593506020850135613c3581613bf8565b925060408501356001600160401b03811115613c5057600080fd5b613c5c87828801613975565b95989497509550505050565b600060208083016020845280855180835260408601915060408160051b87010192506020870160005b82811015613cbf57603f19888603018452613cad858351613b61565b94509285019290850190600101613c91565b5092979650505050505050565b600080600060608486031215613ce157600080fd5b833592506020840135915060408401356001600160401b03811115613d0557600080fd5b840160a08187031215613d1757600080fd5b809150509250925092565b60008060408385031215613d3557600080fd5b823591506020830135613bed81613bf8565b6020808252825182820181905260009190848201906040850190845b81811015613d885783516001600160a01b031683529284019291840191600101613d63565b50909695505050505050565b60008060408385031215613da757600080fd5b50508035926020909101359150565b600060408083016040845280865180835260608601915060608160051b8701019250602080890160005b83811015613e1f57888603605f19018552815180518752830151838701889052613e0c888801826137ce565b9650509382019390820190600101613de0565b5050961515959096019490945295945050505050565b8035801515811461393b57600080fd5b600080600080600060a08688031215613e5d57600080fd5b8535945060208601359350604086013592506060860135613e7d81613bf8565b9150613e8b60808701613e35565b90509295509295909350565b600080600060608486031215613eac57600080fd5b8335613eb7816136a9565b925060208401356001600160401b03811115613ed257600080fd5b613ede86828701613a4e565b925050613eed6040850161392c565b90509250925092565b60008060208385031215613f0957600080fd5b82356001600160401b0380821115613f2057600080fd5b818501915085601f830112613f3457600080fd5b813581811115613f4357600080fd5b86602060a083028501011115613f5857600080fd5b60209290920196919550909350505050565b602081526000612e476020830184613718565b634e487b7160e01b600052603160045260246000fd5b634e487b7160e01b600052601160045260246000fd5b80820180821115610f3f57610f3f613f93565b600181811c90821680613fd057607f821691505b60208210810361139557634e487b7160e01b600052602260045260246000fd5b634e487b7160e01b600052603260045260246000fd5b60006001820161401857614018613f93565b5060010190565b60208101610f3f8284613b3f565b5b81811015614042576000815560010161402e565b5050565b601f821115610ac257806000526020600020601f840160051c8101602085101561406d5750805b61196d601f850160051c83018261402d565b600019600383901b1c191660019190911b1790565b6001600160401b038311156140ab576140ab613a38565b6140bf836140b98354613fbc565b83614046565b6000601f8411600181146140ed57600085156140db5750838201355b6140e5868261407f565b84555061196d565b600083815260209020601f19861690835b8281101561411e57868501358255602094850194600190920191016140fe565b508682101561413b5760001960f88860031b161c19848701351681555b505060018560011b0183555050505050565b8183526000602080850194508260005b8581101561418b578135614170816136a9565b6001600160a01b03168752958201959082019060010161415d565b509495945050505050565b81835281816020850137506000828201602090810191909152601f909101601f19169091010190565b8681526080602082015260006141d960808301878961414d565b85604084015282810360608401526141f2818587614196565b9998505050505050505050565b600082516142118184602087016136f4565b9190910192915050565b600080835461422981613fbc565b60018281168015614241576001811461425657614285565b60ff1984168752821515830287019450614285565b8760005260208060002060005b8581101561427c5781548a820152908401908201614263565b50505082870194505b50929695505050505050565b81516001600160401b038111156142aa576142aa613a38565b6142be816142b88454613fbc565b84614046565b602080601f8311600181146142ed57600084156142db5750858301515b6142e5858261407f565b865550614346565b600085815260208120601f198616915b8281101561431c578886015182559484019460019091019084016142fd565b508582101561433a5787850151600019600388901b60f8161c191681555b505060018460011b0185555b505050505050565b8581526001600160401b0385166020820152608060408201526000614377608083018587614196565b905082151560608301529695505050505050565b6000808335601e198436030181126143a257600080fd5b8301803591506001600160401b038211156143bc57600080fd5b6020019150600581901b360382131561252757600080fd5b6001600160401b038311156143eb576143eb613a38565b600160401b8311156143ff576143ff613a38565b8054838255808410156144255781600052602060002061442382820186830161402d565b505b50818160005260208060002060005b86811015614457578335614447816136a9565b8282015592820192600101614434565b50505050505050565b8135815560018101602083013561447681613bf8565b6001600160401b038254604086013561448e81613bf8565b606087013561449c81613bf8565b6001600160401b0360801b8160801b168486166001600160401b0360c01b8516176fffffffffffffffff00000000000000008460401b161717865550505060808501359250601e198536030183126144f357600080fd5b91840191823591508082111561450857600080fd5b506020820191508060051b360382131561452157600080fd5b6132f88183600286016143d4565b83815282602082015260606040820152813560608201526000602083013561455681613bf8565b6001600160401b03908116608084015260408401359061457582613bf8565b90811660a084015260608401359061458c82613bf8565b90811660c084015260808401359036859003601e190182126145ad57600080fd5b60209185019182019135818111156145c457600080fd5b8060051b36038313156145d657600080fd5b60a060e08601526145ec6101008601828561414d565b98975050505050505050565b81810381811115610f3f57610f3f613f93565b818103614616575050565b6146208254613fbc565b6001600160401b0381111561463757614637613a38565b614645816142b88454613fbc565b6000601f82116001811461467357600083156146615750848201545b61466b848261407f565b85555061196d565b600085815260209020601f19841690600086815260209020845b838110156146ad578286015482556001958601959091019060200161468d565b50858310156146cb5781850154600019600388901b60f8161c191681555b5050505050600190811b01905550565b6040815260006146ee6040830185613718565b9050612e476020830184613b3f565b60006020828403121561470f57600080fd5b8135612e4781613bf8565b8481528360208201526001600160401b03831660408201526080606082015260006139226080830184613718565b60006020828403121561475a57600080fd5b612e4782613e3556fec01483261a841a868b99cb8802faed4ea44a1a816651c4f7ee061a96a205fe98","linkReferences":{}},"methodIdentifiers":{"__OperatorRegistry_init(address[])":"ba428b1a","__RiverConfig_init(address[])":"31374511","addStream(bytes32,bytes32,(bytes32,uint64,uint64,uint64,address[]))":"b2e76b8e","allocateStream(bytes32,address[],bytes32,bytes)":"6b883c39","approveConfigurationManager(address)":"c179b85f","approveOperator(address)":"242cae9f","configurationExists(bytes32)":"fc207c01","deleteConfiguration(bytes32)":"035759e1","deleteConfigurationOnBlock(bytes32,uint64)":"b7f227ee","getAllConfiguration()":"081814db","getAllNodeAddresses()":"c8fe3a01","getAllNodes()":"a1174e7d","getAllOperators()":"d911c632","getConfiguration(bytes32)":"9283ae3a","getNode(address)":"9d209048","getNodeCount()":"39bf397e","getPaginatedStreams(uint256,uint256)":"ca78c41a","getStream(bytes32)":"1290abe8","getStreamCount()":"c0f22084","getStreamCountOnNode(address)":"c87d1324","getStreamWithGenesis(bytes32)":"3c2544d1","isConfigurationManager(address)":"d4bd44a0","isNode(address)":"01750152","isOperator(address)":"6d70f7ae","isStream(bytes32)":"d0c27c4f","placeStreamOnNode(bytes32,address)":"9ee86d38","registerNode(address,string,uint8)":"eecc66f4","removeConfigurationManager(address)":"813049ec","removeNode(address)":"b2b99ec9","removeOperator(address)":"ac8a584a","removeStreamFromNode(bytes32,address)":"ee885b12","setConfiguration(bytes32,uint64,bytes)":"a09449a6","setStreamLastMiniblock(bytes32,bytes32,bytes32,uint64,bool)":"d7a3158a","setStreamLastMiniblockBatch((bytes32,bytes32,bytes32,uint64,bool)[])":"ff3a14ab","updateNodeStatus(address,uint8)":"581f8b9b","updateNodeUrl(address,string)":"7e4465e7"},"id":401}