{"abi":[{"type":"constructor","inputs":[{"name":"approvedOperators","type":"address[]","internalType":"address[]"}],"stateMutability":"nonpayable"},{"type":"function","name":"__OperatorRegistry_init","inputs":[{"name":"initialOperators","type":"address[]","internalType":"address[]"}],"outputs":[],"stateMutability":"nonpayable"},{"type":"function","name":"__RiverConfig_init","inputs":[{"name":"configManagers","type":"address[]","internalType":"address[]"}],"outputs":[],"stateMutability":"nonpayable"},{"type":"function","name":"addStream","inputs":[{"name":"streamId","type":"bytes32","internalType":"bytes32"},{"name":"genesisMiniblockHash","type":"bytes32","internalType":"bytes32"},{"name":"stream","type":"tuple","internalType":"struct Stream","components":[{"name":"lastMiniblockHash","type":"bytes32","internalType":"bytes32"},{"name":"lastMiniblockNum","type":"uint64","internalType":"uint64"},{"name":"reserved0","type":"uint64","internalType":"uint64"},{"name":"flags","type":"uint64","internalType":"uint64"},{"name":"nodes","type":"address[]","internalType":"address[]"}]}],"outputs":[],"stateMutability":"nonpayable"},{"type":"function","name":"allocateStream","inputs":[{"name":"streamId","type":"bytes32","internalType":"bytes32"},{"name":"nodes","type":"address[]","internalType":"address[]"},{"name":"genesisMiniblockHash","type":"bytes32","internalType":"bytes32"},{"name":"genesisMiniblock","type":"bytes","internalType":"bytes"}],"outputs":[],"stateMutability":"nonpayable"},{"type":"function","name":"approveConfigurationManager","inputs":[{"name":"manager","type":"address","internalType":"address"}],"outputs":[],"stateMutability":"nonpayable"},{"type":"function","name":"approveOperator","inputs":[{"name":"operator","type":"address","internalType":"address"}],"outputs":[],"stateMutability":"nonpayable"},{"type":"function","name":"configurationExists","inputs":[{"name":"key","type":"bytes32","internalType":"bytes32"}],"outputs":[{"name":"","type":"bool","internalType":"bool"}],"stateMutability":"view"},{"type":"function","name":"deleteConfiguration","inputs":[{"name":"key","type":"bytes32","internalType":"bytes32"}],"outputs":[],"stateMutability":"nonpayable"},{"type":"function","name":"deleteConfigurationOnBlock","inputs":[{"name":"key","type":"bytes32","internalType":"bytes32"},{"name":"blockNumber","type":"uint64","internalType":"uint64"}],"outputs":[],"stateMutability":"nonpayable"},{"type":"function","name":"getAllConfiguration","inputs":[],"outputs":[{"name":"","type":"tuple[]","internalType":"struct Setting[]","components":[{"name":"key","type":"bytes32","internalType":"bytes32"},{"name":"blockNumber","type":"uint64","internalType":"uint64"},{"name":"value","type":"bytes","internalType":"bytes"}]}],"stateMutability":"view"},{"type":"function","name":"getAllNodeAddresses","inputs":[],"outputs":[{"name":"","type":"address[]","internalType":"address[]"}],"stateMutability":"view"},{"type":"function","name":"getAllNodes","inputs":[],"outputs":[{"name":"","type":"tuple[]","internalType":"struct Node[]","components":[{"name":"status","type":"uint8","internalType":"enum NodeStatus"},{"name":"url","type":"string","internalType":"string"},{"name":"nodeAddress","type":"address","internalType":"address"},{"name":"operator","type":"address","internalType":"address"}]}],"stateMutability":"view"},{"type":"function","name":"getAllOperators","inputs":[],"outputs":[{"name":"","type":"address[]","internalType":"address[]"}],"stateMutability":"view"},{"type":"function","name":"getConfiguration","inputs":[{"name":"key","type":"bytes32","internalType":"bytes32"}],"outputs":[{"name":"","type":"tuple[]","internalType":"struct Setting[]","components":[{"name":"key","type":"bytes32","internalType":"bytes32"},{"name":"blockNumber","type":"uint64","internalType":"uint64"},{"name":"value","type":"bytes","internalType":"bytes"}]}],"stateMutability":"view"},{"type":"function","name":"getNode","inputs":[{"name":"nodeAddress","type":"address","internalType":"address"}],"outputs":[{"name":"","type":"tuple","internalType":"struct Node","components":[{"name":"status","type":"uint8","internalType":"enum NodeStatus"},{"name":"url","type":"string","internalType":"string"},{"name":"nodeAddress","type":"address","internalType":"address"},{"name":"operator","type":"address","internalType":"address"}]}],"stateMutability":"view"},{"type":"function","name":"getNodeCount","inputs":[],"outputs":[{"name":"","type":"uint256","internalType":"uint256"}],"stateMutability":"view"},{"type":"function","name":"getPaginatedStreams","inputs":[{"name":"start","type":"uint256","internalType":"uint256"},{"name":"stop","type":"uint256","internalType":"uint256"}],"outputs":[{"name":"","type":"tuple[]","internalType":"struct StreamWithId[]","components":[{"name":"id","type":"bytes32","internalType":"bytes32"},{"name":"stream","type":"tuple","internalType":"struct Stream","components":[{"name":"lastMiniblockHash","type":"bytes32","internalType":"bytes32"},{"name":"lastMiniblockNum","type":"uint64","internalType":"uint64"},{"name":"reserved0","type":"uint64","internalType":"uint64"},{"name":"flags","type":"uint64","internalType":"uint64"},{"name":"nodes","type":"address[]","internalType":"address[]"}]}]},{"name":"","type":"bool","internalType":"bool"}],"stateMutability":"view"},{"type":"function","name":"getPaginatedStreamsOnNode","inputs":[{"name":"nodeAddress","type":"address","internalType":"address"},{"name":"start","type":"uint256","internalType":"uint256"},{"name":"stop","type":"uint256","internalType":"uint256"}],"outputs":[{"name":"streams","type":"tuple[]","internalType":"struct StreamWithId[]","components":[{"name":"id","type":"bytes32","internalType":"bytes32"},{"name":"stream","type":"tuple","internalType":"struct Stream","components":[{"name":"lastMiniblockHash","type":"bytes32","internalType":"bytes32"},{"name":"lastMiniblockNum","type":"uint64","internalType":"uint64"},{"name":"reserved0","type":"uint64","internalType":"uint64"},{"name":"flags","type":"uint64","internalType":"uint64"},{"name":"nodes","type":"address[]","internalType":"address[]"}]}]}],"stateMutability":"view"},{"type":"function","name":"getStream","inputs":[{"name":"streamId","type":"bytes32","internalType":"bytes32"}],"outputs":[{"name":"stream","type":"tuple","internalType":"struct Stream","components":[{"name":"lastMiniblockHash","type":"bytes32","internalType":"bytes32"},{"name":"lastMiniblockNum","type":"uint64","internalType":"uint64"},{"name":"reserved0","type":"uint64","internalType":"uint64"},{"name":"flags","type":"uint64","internalType":"uint64"},{"name":"nodes","type":"address[]","internalType":"address[]"}]}],"stateMutability":"view"},{"type":"function","name":"getStreamCount","inputs":[],"outputs":[{"name":"","type":"uint256","internalType":"uint256"}],"stateMutability":"view"},{"type":"function","name":"getStreamCountOnNode","inputs":[{"name":"nodeAddress","type":"address","internalType":"address"}],"outputs":[{"name":"count","type":"uint256","internalType":"uint256"}],"stateMutability":"view"},{"type":"function","name":"getStreamWithGenesis","inputs":[{"name":"streamId","type":"bytes32","internalType":"bytes32"}],"outputs":[{"name":"stream","type":"tuple","internalType":"struct Stream","components":[{"name":"lastMiniblockHash","type":"bytes32","internalType":"bytes32"},{"name":"lastMiniblockNum","type":"uint64","internalType":"uint64"},{"name":"reserved0","type":"uint64","internalType":"uint64"},{"name":"flags","type":"uint64","internalType":"uint64"},{"name":"nodes","type":"address[]","internalType":"address[]"}]},{"name":"","type":"bytes32","internalType":"bytes32"},{"name":"","type":"bytes","internalType":"bytes"}],"stateMutability":"view"},{"type":"function","name":"isConfigurationManager","inputs":[{"name":"manager","type":"address","internalType":"address"}],"outputs":[{"name":"","type":"bool","internalType":"bool"}],"stateMutability":"view"},{"type":"function","name":"isNode","inputs":[{"name":"nodeAddress","type":"address","internalType":"address"}],"outputs":[{"name":"","type":"bool","internalType":"bool"}],"stateMutability":"view"},{"type":"function","name":"isOperator","inputs":[{"name":"operator","type":"address","internalType":"address"}],"outputs":[{"name":"","type":"bool","internalType":"bool"}],"stateMutability":"view"},{"type":"function","name":"isStream","inputs":[{"name":"streamId","type":"bytes32","internalType":"bytes32"}],"outputs":[{"name":"","type":"bool","internalType":"bool"}],"stateMutability":"view"},{"type":"function","name":"placeStreamOnNode","inputs":[{"name":"streamId","type":"bytes32","internalType":"bytes32"},{"name":"nodeAddress","type":"address","internalType":"address"}],"outputs":[],"stateMutability":"nonpayable"},{"type":"function","name":"registerNode","inputs":[{"name":"nodeAddress","type":"address","internalType":"address"},{"name":"url","type":"string","internalType":"string"},{"name":"status","type":"uint8","internalType":"enum NodeStatus"}],"outputs":[],"stateMutability":"nonpayable"},{"type":"function","name":"removeConfigurationManager","inputs":[{"name":"manager","type":"address","internalType":"address"}],"outputs":[],"stateMutability":"nonpayable"},{"type":"function","name":"removeNode","inputs":[{"name":"nodeAddress","type":"address","internalType":"address"}],"outputs":[],"stateMutability":"nonpayable"},{"type":"function","name":"removeOperator","inputs":[{"name":"operator","type":"address","internalType":"address"}],"outputs":[],"stateMutability":"nonpayable"},{"type":"function","name":"removeStreamFromNode","inputs":[{"name":"streamId","type":"bytes32","internalType":"bytes32"},{"name":"nodeAddress","type":"address","internalType":"address"}],"outputs":[],"stateMutability":"nonpayable"},{"type":"function","name":"setConfiguration","inputs":[{"name":"key","type":"bytes32","internalType":"bytes32"},{"name":"blockNumber","type":"uint64","internalType":"uint64"},{"name":"value","type":"bytes","internalType":"bytes"}],"outputs":[],"stateMutability":"nonpayable"},{"type":"function","name":"setStreamLastMiniblockBatch","inputs":[{"name":"miniblocks","type":"tuple[]","internalType":"struct SetMiniblock[]","components":[{"name":"streamId","type":"bytes32","internalType":"bytes32"},{"name":"prevMiniBlockHash","type":"bytes32","internalType":"bytes32"},{"name":"lastMiniblockHash","type":"bytes32","internalType":"bytes32"},{"name":"lastMiniblockNum","type":"uint64","internalType":"uint64"},{"name":"isSealed","type":"bool","internalType":"bool"}]}],"outputs":[],"stateMutability":"nonpayable"},{"type":"function","name":"syncNodesOnStreams","inputs":[{"name":"start","type":"uint256","internalType":"uint256"},{"name":"stop","type":"uint256","internalType":"uint256"}],"outputs":[],"stateMutability":"nonpayable"},{"type":"function","name":"updateNodeStatus","inputs":[{"name":"nodeAddress","type":"address","internalType":"address"},{"name":"status","type":"uint8","internalType":"enum NodeStatus"}],"outputs":[],"stateMutability":"nonpayable"},{"type":"function","name":"updateNodeUrl","inputs":[{"name":"nodeAddress","type":"address","internalType":"address"},{"name":"url","type":"string","internalType":"string"}],"outputs":[],"stateMutability":"nonpayable"},{"type":"event","name":"ConfigurationChanged","inputs":[{"name":"key","type":"bytes32","indexed":false,"internalType":"bytes32"},{"name":"block","type":"uint64","indexed":false,"internalType":"uint64"},{"name":"value","type":"bytes","indexed":false,"internalType":"bytes"},{"name":"deleted","type":"bool","indexed":false,"internalType":"bool"}],"anonymous":false},{"type":"event","name":"ConfigurationManagerAdded","inputs":[{"name":"manager","type":"address","indexed":true,"internalType":"address"}],"anonymous":false},{"type":"event","name":"ConfigurationManagerRemoved","inputs":[{"name":"manager","type":"address","indexed":true,"internalType":"address"}],"anonymous":false},{"type":"event","name":"Initialized","inputs":[{"name":"version","type":"uint32","indexed":false,"internalType":"uint32"}],"anonymous":false},{"type":"event","name":"InterfaceAdded","inputs":[{"name":"interfaceId","type":"bytes4","indexed":true,"internalType":"bytes4"}],"anonymous":false},{"type":"event","name":"InterfaceRemoved","inputs":[{"name":"interfaceId","type":"bytes4","indexed":true,"internalType":"bytes4"}],"anonymous":false},{"type":"event","name":"NodeAdded","inputs":[{"name":"nodeAddress","type":"address","indexed":true,"internalType":"address"},{"name":"operator","type":"address","indexed":true,"internalType":"address"},{"name":"url","type":"string","indexed":false,"internalType":"string"},{"name":"status","type":"uint8","indexed":false,"internalType":"enum NodeStatus"}],"anonymous":false},{"type":"event","name":"NodeRemoved","inputs":[{"name":"nodeAddress","type":"address","indexed":true,"internalType":"address"}],"anonymous":false},{"type":"event","name":"NodeStatusUpdated","inputs":[{"name":"nodeAddress","type":"address","indexed":true,"internalType":"address"},{"name":"status","type":"uint8","indexed":false,"internalType":"enum NodeStatus"}],"anonymous":false},{"type":"event","name":"NodeUrlUpdated","inputs":[{"name":"nodeAddress","type":"address","indexed":true,"internalType":"address"},{"name":"url","type":"string","indexed":false,"internalType":"string"}],"anonymous":false},{"type":"event","name":"OperatorAdded","inputs":[{"name":"operatorAddress","type":"address","indexed":true,"internalType":"address"}],"anonymous":false},{"type":"event","name":"OperatorRemoved","inputs":[{"name":"operatorAddress","type":"address","indexed":true,"internalType":"address"}],"anonymous":false},{"type":"event","name":"OwnershipTransferred","inputs":[{"name":"previousOwner","type":"address","indexed":true,"internalType":"address"},{"name":"newOwner","type":"address","indexed":true,"internalType":"address"}],"anonymous":false},{"type":"event","name":"StreamAllocated","inputs":[{"name":"streamId","type":"bytes32","indexed":false,"internalType":"bytes32"},{"name":"nodes","type":"address[]","indexed":false,"internalType":"address[]"},{"name":"genesisMiniblockHash","type":"bytes32","indexed":false,"internalType":"bytes32"},{"name":"genesisMiniblock","type":"bytes","indexed":false,"internalType":"bytes"}],"anonymous":false},{"type":"event","name":"StreamCreated","inputs":[{"name":"streamId","type":"bytes32","indexed":false,"internalType":"bytes32"},{"name":"genesisMiniblockHash","type":"bytes32","indexed":false,"internalType":"bytes32"},{"name":"stream","type":"tuple","indexed":false,"internalType":"struct Stream","components":[{"name":"lastMiniblockHash","type":"bytes32","internalType":"bytes32"},{"name":"lastMiniblockNum","type":"uint64","internalType":"uint64"},{"name":"reserved0","type":"uint64","internalType":"uint64"},{"name":"flags","type":"uint64","internalType":"uint64"},{"name":"nodes","type":"address[]","internalType":"address[]"}]}],"anonymous":false},{"type":"event","name":"StreamLastMiniblockUpdateFailed","inputs":[{"name":"streamId","type":"bytes32","indexed":false,"internalType":"bytes32"},{"name":"lastMiniblockHash","type":"bytes32","indexed":false,"internalType":"bytes32"},{"name":"lastMiniblockNum","type":"uint64","indexed":false,"internalType":"uint64"},{"name":"reason","type":"string","indexed":false,"internalType":"string"}],"anonymous":false},{"type":"event","name":"StreamLastMiniblockUpdated","inputs":[{"name":"streamId","type":"bytes32","indexed":false,"internalType":"bytes32"},{"name":"lastMiniblockHash","type":"bytes32","indexed":false,"internalType":"bytes32"},{"name":"lastMiniblockNum","type":"uint64","indexed":false,"internalType":"uint64"},{"name":"isSealed","type":"bool","indexed":false,"internalType":"bool"}],"anonymous":false},{"type":"event","name":"StreamPlacementUpdated","inputs":[{"name":"streamId","type":"bytes32","indexed":false,"internalType":"bytes32"},{"name":"nodeAddress","type":"address","indexed":false,"internalType":"address"},{"name":"isAdded","type":"bool","indexed":false,"internalType":"bool"}],"anonymous":false},{"type":"event","name":"StreamUpdated","inputs":[{"name":"eventType","type":"uint8","indexed":true,"internalType":"enum IStreamRegistryBase.StreamEventType"},{"name":"data","type":"bytes","indexed":false,"internalType":"bytes"}],"anonymous":false},{"type":"error","name":"Initializable_InInitializingState","inputs":[]},{"type":"error","name":"Initializable_NotInInitializingState","inputs":[]},{"type":"error","name":"Introspection_AlreadySupported","inputs":[]},{"type":"error","name":"Introspection_NotSupported","inputs":[]},{"type":"error","name":"Ownable__NotOwner","inputs":[{"name":"account","type":"address","internalType":"address"}]},{"type":"error","name":"Ownable__ZeroAddress","inputs":[]}],"bytecode":{"object":"0x60806040523480156200001157600080fd5b5060405162005168380380620051688339810160408190526200003491620004a6565b6200003e620000c1565b620000493362000169565b60005b8151811015620000b957620000838282815181106200006f576200006f62000578565b60200260200101516200023760201b60201c565b620000b08282815181106200009c576200009c62000578565b60200260200101516200031c60201b60201c565b6001016200004c565b5050620005df565b7f59b501c3653afc186af7d48dda36cf6732bd21629a6295693664240a6ef520008054640100000000900460ff16156200010e576040516366008a2d60e01b815260040160405180910390fd5b805463ffffffff90811610156200016657805463ffffffff191663ffffffff90811782556040519081527fe9c9b456cb2994b80aeef036cf59d26e9617df80f816a6ee5a5b4166e07e2f5c9060200160405180910390a15b50565b60006200019d7f4675fa8241f86f37157864d3d49b85ad4b164352c516da28e1678a90470ae300546001600160a01b031690565b90506001600160a01b038216620001c757604051634e3ef82560e01b815260040160405180910390fd5b817f4675fa8241f86f37157864d3d49b85ad4b164352c516da28e1678a90470ae30080546001600160a01b0319166001600160a01b03928316179055604051838216918316907f8be0079c531659141344cd1fd0a4f28419497f9722a3daafe3b4186f6b6457e090600090a35050565b6001600160a01b038116620002865760408051808201825260078152664241445f41524760c81b6020820152905162461bcd60e51b81526200027d91906004016200058e565b60405180910390fd5b62000293600882620003e9565b15620002d757604080518082018252600e81526d414c52454144595f45584953545360901b6020820152905162461bcd60e51b81526200027d91906004016200058e565b620002e460088262000410565b506040516001600160a01b038216907fac6fa858e9350a46cec16539926e0fde25b7629f84b5a72bffaae4df888ae86d90600090a250565b6001600160a01b038116620003625760408051808201825260078152664241445f41524760c81b6020820152905162461bcd60e51b81526200027d91906004016200058e565b6200036f600d8262000410565b620003b257604080518082018252600e81526d414c52454144595f45584953545360901b6020820152905162461bcd60e51b81526200027d91906004016200058e565b6040516001600160a01b038216907f7afd798379ae2d2e5035438544cea2b60eb1dde6a8128e6d447fd2a25f8825a290600090a250565b6001600160a01b038116600090815260018301602052604081205415155b90505b92915050565b600062000407836001600160a01b03841660008181526001830160205260408120546200046a575081546001818101845560008481526020808220909301849055845484825282860190935260409020919091556200040a565b5060006200040a565b634e487b7160e01b600052604160045260246000fd5b80516001600160a01b0381168114620004a157600080fd5b919050565b60006020808385031215620004ba57600080fd5b82516001600160401b0380821115620004d257600080fd5b818501915085601f830112620004e757600080fd5b815181811115620004fc57620004fc62000473565b8060051b604051601f19603f8301168101818110858211171562000524576200052462000473565b6040529182528482019250838101850191888311156200054357600080fd5b938501935b828510156200056c576200055c8562000489565b8452938501939285019262000548565b98975050505050505050565b634e487b7160e01b600052603260045260246000fd5b60006020808352835180602085015260005b81811015620005be57858101830151858201604001528201620005a0565b506000604082860101526040601f19601f8301168501019250505092915050565b614b7980620005ef6000396000f3fe608060405234801561001057600080fd5b50600436106102275760003560e01c8063a09449a611610130578063c87d1324116100b8578063d911c6321161007c578063d911c63214610503578063ee885b121461050b578063eecc66f41461051e578063fc207c0114610531578063ff3a14ab1461054457600080fd5b8063c87d132414610494578063c8fe3a01146104a7578063ca78c41a146104bc578063d0c27c4f146104dd578063d4bd44a0146104f057600080fd5b8063b2e76b8e116100ff578063b2e76b8e14610440578063b7f227ee14610453578063ba428b1a14610466578063c0f2208414610479578063c179b85f1461048157600080fd5b8063a09449a6146103f2578063a1174e7d14610405578063ac8a584a1461041a578063b2b99ec91461042d57600080fd5b80633c2544d1116101b35780637e4465e7116101825780637e4465e714610386578063813049ec146103995780639283ae3a146103ac5780639d209048146103bf5780639ee86d38146103df57600080fd5b80633c2544d11461032b578063581f8b9b1461034d5780636b883c39146103605780636d70f7ae1461037357600080fd5b80631290abe8116101fa5780631290abe8146102af57806322bbda64146102cf578063242cae9f146102ef578063313745111461030257806339bf397e1461031557600080fd5b8063017501521461022c578063035759e11461027257806303cc879314610287578063081814db1461029a575b600080fd5b61025d61023a3660046138f4565b6001600160a01b0390811660009081526007602052604090206002015416151590565b60405190151581526020015b60405180910390f35b610285610280366004613911565b610557565b005b61028561029536600461392a565b6106cb565b6102a261078c565b604051610269919061399c565b6102c26102bd366004613911565b6109f7565b6040516102699190613ab7565b6102e26102dd366004613aca565b610adb565b6040516102699190613b6b565b6102856102fd3660046138f4565b610c6d565b610285610310366004613bc2565b610cb4565b61031d610d40565b604051908152602001610269565b61033e610339366004613911565b610d51565b60405161026993929190613c03565b61028561035b366004613c4c565b610ee3565b61028561036e366004613cc2565b611083565b61025d6103813660046138f4565b6111e1565b610285610394366004613de6565b6111f4565b6102856103a73660046138f4565b6113ec565b6102a26103ba366004613911565b6114e7565b6103d26103cd3660046138f4565b61164a565b6040516102699190613ec1565b6102856103ed366004613ed4565b6117cb565b610285610400366004613f19565b61198a565b61040d611c63565b6040516102699190613f74565b6102856104283660046138f4565b611e37565b61028561043b3660046138f4565b611f9a565b61028561044e366004613fd8565b612163565b61028561046136600461402e565b61227a565b610285610474366004613bc2565b6124c9565b61031d612555565b61028561048f3660046138f4565b612560565b61031d6104a23660046138f4565b6125a4565b6104af6125c5565b6040516102699190614053565b6104cf6104ca36600461392a565b6125d1565b6040516102699291906140a0565b61025d6104eb366004613911565b612750565b61025d6104fe3660046138f4565b61275c565b6104af612769565b610285610519366004613ed4565b612775565b61028561052c3660046140c4565b6129bd565b61025d61053f366004613911565b612b88565b610285610552366004614123565b612b95565b33610563600d82612fbe565b6105a65760408051808201825260088152670848288be82aaa8960c31b6020820152905162461bcd60e51b815261059d9190600401614197565b60405180910390fd5b816105b2600a82612fe3565b6105ed5760408051808201825260098152681393d517d193d5539160ba1b6020820152905162461bcd60e51b815261059d9190600401614197565b6000838152600c602052604090205415610660576000838152600c6020526040902080548061061e5761061e6141aa565b60008281526020812060036000199093019283020181815560018101805467ffffffffffffffff1916905590610657600283018261378c565b505090556105ed565b6000838152600c60205260408120610677916137c6565b610682600a84612ffb565b50604080518481526001600160401b0360208201526080818301819052600090820152600160608201529051600080516020614b598339815191529181900360a00190a1505050565b6000806106d781613007565b838118908411028318848111908590030284019150505b808310156107875760006107028185613011565b600081815260026020819052604082209081018054939450909290915b818110156107775761076e856000600f016000868581548110610744576107446141c0565b60009182526020808320909101546001600160a01b0316835282019290925260400190209061301d565b5060010161071f565b50505050508260010192506106ee565b505050565b606060008061079b600a613007565b905060005b818110156107dc5760006107b5600a83613011565b6000818152600c60205260409020549091506107d190856141ec565b9350506001016107a0565b506000826001600160401b038111156107f7576107f7613d44565b60405190808252806020026020018201604052801561084457816020015b604080516060808201835260008083526020830152918101919091528152602001906001900390816108155790505b5090506000610853600a613007565b90506000805b828110156109ec57600061086e600a83613011565b6000818152600c6020908152604080832080548251818502810185019093528083529495509293909291849084015b8282101561098157600084815260209081902060408051606081018252600386029092018054835260018101546001600160401b031693830193909352600283018054929392918401916108f0906141ff565b80601f016020809104026020016040519081016040528092919081815260200182805461091c906141ff565b80156109695780601f1061093e57610100808354040283529160200191610969565b820191906000526020600020905b81548152906001019060200180831161094c57829003601f168201915b5050505050815250508152602001906001019061089d565b50505050905060005b81518110156109de578181815181106109a5576109a56141c0565b60200260200101518786806109b990614233565b9750815181106109cb576109cb6141c0565b602090810291909101015260010161098a565b505050806001019050610859565b509195945050505050565b60408051600080825260208201819052818301819052606080830191909152608082015290819052610a2882613029565b600082815260026020818152604092839020835160a0810185528154815260018201546001600160401b0380821683860152600160401b8204811683880152600160801b9091041660608201529281018054855181850281018501909652808652939491936080860193830182828015610acb57602002820191906000526020600020905b81546001600160a01b03168152600190910190602001808311610aad575b5050505050815250509050919050565b6001600160a01b0383166000908152600f60205260408120606091610aff82613007565b905083811881851102841885811186820302806001600160401b03811115610b2957610b29613d44565b604051908082528060200260200182016040528015610b6257816020015b610b4f6137e7565b815260200190600190039081610b475790505b50945060005b81811015610c61576000868281518110610b8457610b846141c0565b60200260200101519050610ba3828a018761301190919063ffffffff16565b808252600090815260026020818152604092839020835160a0810185528154815260018201546001600160401b0380821683860152600160401b8204811683880152600160801b9091041660608201529281018054855181850281018501909652808652939491936080860193830182828015610c4957602002820191906000526020600020905b81546001600160a01b03168152600190910190602001808311610c2b575b50505091909252505050602090910152600101610b68565b50505050509392505050565b610c7561306f565b6001600160a01b0316336001600160a01b031614610ca8576040516365f4906560e01b815233600482015260240161059d565b610cb18161309d565b50565b7f59b501c3653afc186af7d48dda36cf6732bd21629a6295693664240a6ef5200054640100000000900460ff16610cfe57604051630ef4733760e31b815260040160405180910390fd5b60005b8181101561078757610d38838383818110610d1e57610d1e6141c0565b9050602002016020810190610d3391906138f4565b61316f565b600101610d01565b6000610d4c6005613007565b905090565b60408051600080825260208201819052818301819052606080830182905260808301819052928290529091610d8584613029565b600084815260026020818152604080842060048352818520546003845294829020825160a0810184528254815260018301546001600160401b0380821683880152600160401b8204811683870152600160801b90910416606082015294820180548451818702810187019095528085529296959194919387936080860193919291830182828015610e3f57602002820191906000526020600020905b81546001600160a01b03168152600190910190602001808311610e21575b5050505050815250509250808054610e56906141ff565b80601f0160208091040260200160405190810160405280929190818152602001828054610e82906141ff565b8015610ecf5780601f10610ea457610100808354040283529160200191610ecf565b820191906000526020600020905b815481529060010190602001808311610eb257829003601f168201915b505050505090509250925092509193909250565b6001600160a01b03808316600090815260076020526040902060020154839116610f4357604080518082018252600e81526d1393d11157d393d517d193d5539160921b6020820152905162461bcd60e51b815261059d9190600401614197565b33610f4f600882612fbe565b610f895760408051808201825260088152670848288be82aaa8960c31b6020820152905162461bcd60e51b815261059d9190600401614197565b6001600160a01b0380851660009081526007602052604090206003015485913391168114610fe75760408051808201825260088152670848288be82aaa8960c31b6020820152905162461bcd60e51b815261059d9190600401614197565b6001600160a01b0386166000908152600760205260409020805461100e9060ff1687613234565b80548690829060ff1916600183600581111561102c5761102c613e35565b021790555060028101546040516001600160a01b03909116907f20891cc7622c7951cbd8c70c61a5201eb45625b8c00e8f6c986cfca78f3dbfa09061107290899061424c565b60405180910390a250505050505050565b336000818152600760205260409020600201546001600160a01b03166110df57604080518082018252600e81526d1393d11157d393d517d193d5539160921b6020820152905162461bcd60e51b815261059d9190600401614197565b866110e9816133c7565b86866110f58282613413565b60008a815260026020819052604082209189918c918c9185919061111c9083018585613831565b50509290925550611130905060008c61301d565b5060008b815260036020526040902061114a8789836142c1565b5060008b81526004602052604090208890556111678b8b8b61349f565b61119360008c8360405160200161117f92919061437a565b604051602081830303815290604052613501565b7f55ef7efc60ef99743e54209752c9a8e047e013917ec91572db75875069dd65bb8b8b8b8b8b8b6040516111cc9695949392919061448e565b60405180910390a15050505050505050505050565b60006111ee600883612fbe565b92915050565b33611200600882612fbe565b61123a5760408051808201825260088152670848288be82aaa8960c31b6020820152905162461bcd60e51b815261059d9190600401614197565b6001600160a01b0380841660009081526007602052604090206002015484911661129a57604080518082018252600e81526d1393d11157d393d517d193d5539160921b6020820152905162461bcd60e51b815261059d9190600401614197565b6001600160a01b03808516600090815260076020526040902060030154859133911681146112f85760408051808201825260088152670848288be82aaa8960c31b6020820152905162461bcd60e51b815261059d9190600401614197565b6001600160a01b0386166000908152600760209081526040918290209151611322918891016144ce565b604051602081830303815290604052805190602001208160010160405160200161134c91906144ea565b604051602081830303815290604052805190602001200361139c5760408051808201825260078152664241445f41524760c81b6020820152905162461bcd60e51b815261059d9190600401614197565b600181016113aa8782614560565b5060028101546040516001600160a01b03909116907f4505168a8705a16fd4d0575197fd0f510db69df93a065e158ad2c0957ba12bac90611072908990614197565b6113f461306f565b6001600160a01b0316336001600160a01b031614611427576040516365f4906560e01b815233600482015260240161059d565b6001600160a01b03811661146a5760408051808201825260078152664241445f41524760c81b6020820152905162461bcd60e51b815261059d9190600401614197565b611475600d82613540565b6114b05760408051808201825260098152681393d517d193d5539160ba1b6020820152905162461bcd60e51b815261059d9190600401614197565b6040516001600160a01b038216907ff9889c857e5356066b564327caa757c325ecbc001b2b47d72edf8cf9aedb1be590600090a250565b6060816114f5600a82612fe3565b6115305760408051808201825260098152681393d517d193d5539160ba1b6020820152905162461bcd60e51b815261059d9190600401614197565b6000838152600c6020908152604080832080548251818502810185019093528083529193909284015b8282101561163d57600084815260209081902060408051606081018252600386029092018054835260018101546001600160401b031693830193909352600283018054929392918401916115ac906141ff565b80601f01602080910402602001604051908101604052809291908181526020018280546115d8906141ff565b80156116255780601f106115fa57610100808354040283529160200191611625565b820191906000526020600020905b81548152906001019060200180831161160857829003601f168201915b50505050508152505081526020019060010190611559565b5050505091505b50919050565b6116756040805160808101909152806000815260606020820181905260006040830181905291015290565b611680600583612fbe565b6116c057604080518082018252600e81526d1393d11157d393d517d193d5539160921b6020820152905162461bcd60e51b815261059d9190600401614197565b6001600160a01b038216600090815260076020526040908190208151608081019092528054829060ff1660058111156116fb576116fb613e35565b600581111561170c5761170c613e35565b8152602001600182018054611720906141ff565b80601f016020809104026020016040519081016040528092919081815260200182805461174c906141ff565b80156117995780601f1061176e57610100808354040283529160200191611799565b820191906000526020600020905b81548152906001019060200180831161177c57829003601f168201915b505050918352505060028201546001600160a01b03908116602083015260039092015490911660409091015292915050565b816117d581613029565b336000818152600760205260409020600201546001600160a01b031661183157604080518082018252600e81526d1393d11157d393d517d193d5539160921b6020820152905162461bcd60e51b815261059d9190600401614197565b60008481526002602081815260408084206001600160a01b0388168552600f90925290922090820190611864908761301d565b50805460005b818110156118ec57866001600160a01b031683828154811061188e5761188e6141c0565b6000918252602090912001546001600160a01b0316036118e457604080518082018252600e81526d414c52454144595f45584953545360901b6020820152905162461bcd60e51b815261059d9190600401614197565b60010161186a565b508154600181018355600083815260209081902090910180546001600160a01b0319166001600160a01b0389161790556040516119349160029161117f918b9188910161437a565b604080518881526001600160a01b03881660208201526001918101919091527faaa473c28a5fe04b6a7ecd795826e462f9d0c23f00ef9f51ec02fa6ea418806f906060015b60405180910390a150505050505050565b33611996600d82612fbe565b6119d05760408051808201825260088152670848288be82aaa8960c31b6020820152905162461bcd60e51b815261059d9190600401614197565b67fffffffffffffffe196001600160401b03851601611a1e5760408051808201825260078152664241445f41524760c81b6020820152905162461bcd60e51b815261059d9190600401614197565b6000829003611a5c5760408051808201825260078152664241445f41524760c81b6020820152905162461bcd60e51b815261059d9190600401614197565b611a67600a86612fe3565b611a7857611a76600a8661301d565b505b6000858152600c6020526040812054905b81811015611b5f576000878152600c6020526040902080546001600160401b038816919083908110611abd57611abd6141c0565b60009182526020909120600160039092020101546001600160401b031603611b57576000878152600c6020526040902080548691869184908110611b0357611b036141c0565b90600052602060002090600302016002019182611b219291906142c1565b50600080516020614b59833981519152878787876000604051611b48959493929190614619565b60405180910390a15050611c5c565b600101611a89565b506000600c0160008781526020019081526020016000206040518060600160405280888152602001876001600160401b0316815260200186868080601f0160208091040260200160405190810160405280939291908181526020018383808284376000920182905250939094525050835460018082018655948252602091829020845160039092020190815590830151938101805467ffffffffffffffff19166001600160401b03909516949094179093555060408101519091906002820190611c299082614560565b505050600080516020614b59833981519152868686866000604051611c52959493929190614619565b60405180910390a1505b5050505050565b60606000611c716005613007565b6001600160401b03811115611c8857611c88613d44565b604051908082528060200260200182016040528015611ce457816020015b611cd16040805160808101909152806000815260606020820181905260006040830181905291015290565b815260200190600190039081611ca65790505b50905060005b611cf46005613007565b8110156116445760076000611d0a600584613011565b6001600160a01b03168152602081019190915260409081016000208151608081019092528054829060ff166005811115611d4657611d46613e35565b6005811115611d5757611d57613e35565b8152602001600182018054611d6b906141ff565b80601f0160208091040260200160405190810160405280929190818152602001828054611d97906141ff565b8015611de45780601f10611db957610100808354040283529160200191611de4565b820191906000526020600020905b815481529060010190602001808311611dc757829003601f168201915b505050918352505060028201546001600160a01b0390811660208301526003909201549091166040909101528251839083908110611e2457611e246141c0565b6020908102919091010152600101611cea565b611e3f61306f565b6001600160a01b0316336001600160a01b031614611e72576040516365f4906560e01b815233600482015260240161059d565b611e7d600882612fbe565b611ec157604080518082018252601281527113d41154905513d497d393d517d193d5539160721b6020820152905162461bcd60e51b815261059d9190600401614197565b60005b611ece6005613007565b811015611f56576001600160a01b03821660076000611eee600585613011565b6001600160a01b0390811682526020820192909252604001600020600301541603611f4e57604080518082018252600d81526c4f55545f4f465f424f554e445360981b6020820152905162461bcd60e51b815261059d9190600401614197565b600101611ec4565b50611f62600882613540565b506040516001600160a01b038216907f80c0b871b97b595b16a7741c1b06fed0c6f6f558639f18ccbce50724325dc40d90600090a250565b6001600160a01b0380821660009081526007602052604090206003015482913391168114611ff85760408051808201825260088152670848288be82aaa8960c31b6020820152905162461bcd60e51b815261059d9190600401614197565b6001600160a01b038381166000908152600760205260409020600201541661205657604080518082018252600e81526d1393d11157d393d517d193d5539160921b6020820152905162461bcd60e51b815261059d9190600401614197565b60056001600160a01b03841660009081526007602052604090205460ff16600581111561208557612085613e35565b146120ce5760408051808201825260168152751393d11157d4d510551157d393d517d0531313d5d15160521b6020820152905162461bcd60e51b815261059d9190600401614197565b6120d9600584613540565b506001600160a01b0383166000908152600760205260408120805460ff1916815590612108600183018261378c565b506002810180546001600160a01b03199081169091556003909101805490911690556040516001600160a01b038416907fcfc24166db4bb677e857cacabd1541fb2b30645021b27c5130419589b84db52b90600090a2505050565b336000818152600760205260409020600201546001600160a01b03166121bf57604080518082018252600e81526d1393d11157d393d517d193d5539160921b6020820152905162461bcd60e51b815261059d9190600401614197565b836121c9816133c7565b6121d66080840184614656565b6121e08282613413565b6121eb60008861301d565b5060008781526002602052604090208590612206828261472b565b5050600087815260046020526040902086905561222f8761222a6080880188614656565b61349f565b6122476001888760405160200161117f9291906148a3565b7fac1b69e6e0382c43def3cccabf63091ba47b5d8b10a705d16a1076668643fe4d878787604051611979939291906148c4565b33612286600d82612fbe565b6122c05760408051808201825260088152670848288be82aaa8960c31b6020820152905162461bcd60e51b815261059d9190600401614197565b6000805b6000858152600c6020526040902054811015612441576000858152600c6020526040902080546001600160401b038616919083908110612306576123066141c0565b60009182526020909120600160039092020101546001600160401b031603612439576000858152600c602052604090208054612344906001906148ec565b81548110612354576123546141c0565b90600052602060002090600302016000600c0160008781526020019081526020016000208281548110612389576123896141c0565b600091825260209091208254600390920201908155600180830154908201805467ffffffffffffffff19166001600160401b039092169190911790556002808201906123d7908401826148ff565b5050506000858152600c602052604090208054806123f7576123f76141aa565b60008281526020812060036000199093019283020181815560018101805467ffffffffffffffff1916905590612430600283018261378c565b50509055600191505b6001016122c4565b508061247e5760408051808201825260098152681393d517d193d5539160ba1b6020820152905162461bcd60e51b815261059d9190600401614197565b604080518581526001600160401b03851660208201526080818301819052600090820152600160608201529051600080516020614b598339815191529181900360a00190a150505050565b7f59b501c3653afc186af7d48dda36cf6732bd21629a6295693664240a6ef5200054640100000000900460ff1661251357604051630ef4733760e31b815260040160405180910390fd5b60005b818110156107875761254d838383818110612533576125336141c0565b905060200201602081019061254891906138f4565b61309d565b600101612516565b6000610d4c81613007565b61256861306f565b6001600160a01b0316336001600160a01b03161461259b576040516365f4906560e01b815233600482015260240161059d565b610cb18161316f565b6001600160a01b0381166000908152600f602052604081206111ee90613007565b6060610d4c6005613555565b60606000806125df81613007565b9050838118818511028418858111868203026000816001600160401b0381111561260b5761260b613d44565b60405190808252806020026020018201604052801561264457816020015b6126316137e7565b8152602001906001900390816126295790505b50905060005b8281101561273e576000828281518110612666576126666141c0565b6020908102919091010151905061268060008b8401613011565b808252600090815260026020818152604092839020835160a0810185528154815260018201546001600160401b0380821683860152600160401b8204811683880152600160801b909104166060820152928101805485518185028101850190965280865293949193608086019383018282801561272657602002820191906000526020600020905b81546001600160a01b03168152600190910190602001808311612708575b5050509190925250505060209091015260010161264a565b509450505083101590505b9250929050565b60006111ee8183612fe3565b60006111ee600d83612fbe565b6060610d4c6008613555565b8161277f81613029565b336000818152600760205260409020600201546001600160a01b03166127db57604080518082018252600e81526d1393d11157d393d517d193d5539160921b6020820152905162461bcd60e51b815261059d9190600401614197565b60008481526002602081815260408084206001600160a01b0388168552600f9092529092209082019061280e9087612ffb565b508054600090815b8181101561291157876001600160a01b031684828154811061283a5761283a6141c0565b6000918252602090912001546001600160a01b03160361290957836128606001846148ec565b81548110612870576128706141c0565b9060005260206000200160009054906101000a90046001600160a01b03168482815481106128a0576128a06141c0565b9060005260206000200160006101000a8154816001600160a01b0302191690836001600160a01b03160217905550838054806128de576128de6141aa565b600082815260209020810160001990810180546001600160a01b031916905501905560019250612911565b600101612816565b508161295357604080518082018252600e81526d1393d11157d393d517d193d5539160921b6020820152905162461bcd60e51b815261059d9190600401614197565b61296b6002898660405160200161117f92919061437a565b604080518981526001600160a01b038916602082015260008183015290517faaa473c28a5fe04b6a7ecd795826e462f9d0c23f00ef9f51ec02fa6ea418806f9181900360600190a15050505050505050565b336129c9600882612fbe565b612a035760408051808201825260088152670848288be82aaa8960c31b6020820152905162461bcd60e51b815261059d9190600401614197565b6001600160a01b038481166000908152600760205260409020600201541615612a6257604080518082018252600e81526d414c52454144595f45584953545360901b6020820152905162461bcd60e51b815261059d9190600401614197565b60006040518060800160405280846005811115612a8157612a81613e35565b8152602081018690526001600160a01b0387166040820152336060909101529050612aad600586613562565b506001600160a01b03851660009081526007602052604090208151815483929190829060ff19166001836005811115612ae857612ae8613e35565b021790555060208201516001820190612b019082614560565b506040828101516002830180546001600160a01b03199081166001600160a01b03938416179091556060909401516003909301805490941692811692909217909255905133918716907f759154d15a6aec80ceab7bc8820f46ebc53ad68bb18f47afb77483fea9dcc9ff90612b7990889088906149cb565b60405180910390a35050505050565b60006111ee600a83612fe3565b336000818152600760205260409020600201546001600160a01b0316612bf157604080518082018252600e81526d1393d11157d393d517d193d5539160921b6020820152905162461bcd60e51b815261059d9190600401614197565b816000819003612c305760408051808201825260078152664241445f41524760c81b6020820152905162461bcd60e51b815261059d9190600401614197565b6000816001600160401b03811115612c4a57612c4a613d44565b604051908082528060200260200182016040528015612ca357816020015b6040805160a081018252600080825260208083018290529282018190526060820181905260808201528252600019909201910181612c685790505b5090506000805b83811015612f9c5736878783818110612cc557612cc56141c0565b60a002919091019150612cdc905060008235612fe3565b612d54577f75460fe319331413a18a82d99b07735cec53fa0c4061ada38c2141e331082afa81356040830135612d1860808501606086016149ed565b60408051808201825260098152681393d517d193d5539160ba1b60208201529051612d469493929190614a0a565b60405180910390a150612f94565b80356000908152600260205260409020600180820154600160801b90041615612df0577f75460fe319331413a18a82d99b07735cec53fa0c4061ada38c2141e331082afa82356040840135612daf60808601606087016149ed565b604080518082018252600d81526c14d51491505357d4d150531151609a1b60208201529051612de19493929190614a0a565b60405180910390a15050612f94565b612e0060808301606084016149ed565b60018201546001600160401b03918216911610612e7b577f75460fe319331413a18a82d99b07735cec53fa0c4061ada38c2141e331082afa82356040840135612e4f60808601606087016149ed565b60408051808201825260078152664241445f41524760c81b60208201529051612de19493929190614a0a565b60018101546001600160401b0316600003612ea95781356000908152600360205260408120612ea99161378c565b60408201358155612ec060808301606084016149ed565b60018201805467ffffffffffffffff19166001600160401b0392909216919091179055612ef360a0830160808401614a48565b15612f2b576001818101805467ffffffffffffffff60801b198116600160801b918290046001600160401b0316909317029190911790555b612f3a36839003830183614a63565b8585612f4581614233565b965081518110612f5757612f576141c0565b6020908102919091010152612f9182356040840135612f7c60808601606087016149ed565b612f8c60a0870160808801614a48565b613577565b50505b600101612caa565b50808252612fb660038360405160200161117f9190614adf565b505050505050565b6001600160a01b038116600090815260018301602052604081205415155b9392505050565b60008181526001830160205260408120541515612fdc565b6000612fdc83836135c4565b60006111ee825490565b6000612fdc83836136b7565b6000612fdc83836136e1565b613034600082612fe3565b610cb15760408051808201825260098152681393d517d193d5539160ba1b6020820152905162461bcd60e51b815261059d9190600401614197565b7f4675fa8241f86f37157864d3d49b85ad4b164352c516da28e1678a90470ae300546001600160a01b031690565b6001600160a01b0381166130e05760408051808201825260078152664241445f41524760c81b6020820152905162461bcd60e51b815261059d9190600401614197565b6130eb600882612fbe565b1561312c57604080518082018252600e81526d414c52454144595f45584953545360901b6020820152905162461bcd60e51b815261059d9190600401614197565b613137600882613562565b506040516001600160a01b038216907fac6fa858e9350a46cec16539926e0fde25b7629f84b5a72bffaae4df888ae86d90600090a250565b6001600160a01b0381166131b25760408051808201825260078152664241445f41524760c81b6020820152905162461bcd60e51b815261059d9190600401614197565b6131bd600d82613562565b6131fd57604080518082018252600e81526d414c52454144595f45584953545360901b6020820152905162461bcd60e51b815261059d9190600401614197565b6040516001600160a01b038216907f7afd798379ae2d2e5035438544cea2b60eb1dde6a8128e6d447fd2a25f8825a290600090a250565b600082600581111561324857613248613e35565b148061329c5750600182600581111561326357613263613e35565b14801561329c5750600381600581111561327f5761327f613e35565b148061329c5750600481600581111561329a5761329a613e35565b145b806132ef575060028260058111156132b6576132b6613e35565b1480156132ef575060038160058111156132d2576132d2613e35565b14806132ef575060048160058111156132ed576132ed613e35565b145b806133425750600482600581111561330957613309613e35565b1480156133425750600381600581111561332557613325613e35565b14806133425750600581600581111561334057613340613e35565b145b8061337a5750600382600581111561335c5761335c613e35565b14801561337a5750600581600581111561337857613378613e35565b145b15613383575050565b60408051808201825260168152751393d11157d4d510551157d393d517d0531313d5d15160521b6020820152905162461bcd60e51b815261059d9190600401614197565b6133d2600082612fe3565b15610cb157604080518082018252600e81526d414c52454144595f45584953545360901b6020820152905162461bcd60e51b815261059d9190600401614197565b8060005b8181101561349957613451848483818110613434576134346141c0565b905060200201602081019061344991906138f4565b600590612fbe565b61349157604080518082018252600e81526d1393d11157d393d517d193d5539160921b6020820152905162461bcd60e51b815261059d9190600401614197565b600101613417565b50505050565b60005b81811015613499576134f884600f60008686868181106134c4576134c46141c0565b90506020020160208101906134d991906138f4565b6001600160a01b0316815260208101919091526040016000209061301d565b506001016134a2565b60007f378ece20ebca29c2f887798617154658265a73d80c84fad8c9c49639ffdb29bb9050602082038051602082528483604086510184a29052505050565b6000612fdc836001600160a01b0384166135c4565b60606000612fdc83613730565b6000612fdc836001600160a01b0384166136e1565b60007fccc26bbb6dd655ea0bb8a40a3c30e35c6bdf42f8faf0d71bbea897af768cda8b9050604051856000528460205283604052826060528160806000a160405250506000606052505050565b600081815260018301602052604081205480156136ad5760006135e86001836148ec565b85549091506000906135fc906001906148ec565b905080821461366157600086600001828154811061361c5761361c6141c0565b906000526020600020015490508087600001848154811061363f5761363f6141c0565b6000918252602080832090910192909255918252600188019052604090208390555b8554869080613672576136726141aa565b6001900381819060005260206000200160009055905585600101600086815260200190815260200160002060009055600193505050506111ee565b60009150506111ee565b60008260000182815481106136ce576136ce6141c0565b9060005260206000200154905092915050565b6000818152600183016020526040812054613728575081546001818101845560008481526020808220909301849055845484825282860190935260409020919091556111ee565b5060006111ee565b60608160000180548060200260200160405190810160405280929190818152602001828054801561378057602002820191906000526020600020905b81548152602001906001019080831161376c575b50505050509050919050565b508054613798906141ff565b6000825580601f106137a8575050565b601f016020900490600052602060002090810190610cb19190613894565b5080546000825560030290600052602060002090810190610cb191906138a9565b60408051808201909152600081526020810161382c6040805160a081018252600080825260208201819052918101829052606080820192909252608081019190915290565b905290565b828054828255906000526020600020908101928215613884579160200282015b828111156138845781546001600160a01b0319166001600160a01b03843516178255602090920191600190910190613851565b50613890929150613894565b5090565b5b808211156138905760008155600101613895565b8082111561389057600080825560018201805467ffffffffffffffff191690556138d6600283018261378c565b506003016138a9565b6001600160a01b0381168114610cb157600080fd5b60006020828403121561390657600080fd5b8135612fdc816138df565b60006020828403121561392357600080fd5b5035919050565b6000806040838503121561393d57600080fd5b50508035926020909101359150565b60005b8381101561396757818101518382015260200161394f565b50506000910152565b6000815180845261398881602086016020860161394c565b601f01601f19169290920160200192915050565b600060208083018184528085518083526040925060408601915060408160051b87010184880160005b83811015613a1857888303603f19018552815180518452878101516001600160401b0316888501528601516060878501819052613a0481860183613970565b9689019694505050908601906001016139c5565b509098975050505050505050565b600060a08301825184526020808401516001600160401b0380821660208801528060408701511660408801528060608701511660608801525050608084015160a0608087015282815180855260c088019150602083019450600092505b80831015613aac5784516001600160a01b03168252938301936001929092019190830190613a83565b509695505050505050565b602081526000612fdc6020830184613a26565b600080600060608486031215613adf57600080fd5b8335613aea816138df565b95602085013595506040909401359392505050565b600082825180855260208086019550808260051b84010181860160005b84811015613b5e57858303601f190189528151805184528401516040858501819052613b4a81860183613a26565b9a86019a9450505090830190600101613b1c565b5090979650505050505050565b602081526000612fdc6020830184613aff565b60008083601f840112613b9057600080fd5b5081356001600160401b03811115613ba757600080fd5b6020830191508360208260051b850101111561274957600080fd5b60008060208385031215613bd557600080fd5b82356001600160401b03811115613beb57600080fd5b613bf785828601613b7e565b90969095509350505050565b606081526000613c166060830186613a26565b8460208401528281036040840152613c2e8185613970565b9695505050505050565b803560068110613c4757600080fd5b919050565b60008060408385031215613c5f57600080fd5b8235613c6a816138df565b9150613c7860208401613c38565b90509250929050565b60008083601f840112613c9357600080fd5b5081356001600160401b03811115613caa57600080fd5b60208301915083602082850101111561274957600080fd5b60008060008060008060808789031215613cdb57600080fd5b8635955060208701356001600160401b0380821115613cf957600080fd5b613d058a838b01613b7e565b9097509550604089013594506060890135915080821115613d2557600080fd5b50613d3289828a01613c81565b979a9699509497509295939492505050565b634e487b7160e01b600052604160045260246000fd5b600082601f830112613d6b57600080fd5b81356001600160401b0380821115613d8557613d85613d44565b604051601f8301601f19908116603f01168101908282118183101715613dad57613dad613d44565b81604052838152866020858801011115613dc657600080fd5b836020870160208301376000602085830101528094505050505092915050565b60008060408385031215613df957600080fd5b8235613e04816138df565b915060208301356001600160401b03811115613e1f57600080fd5b613e2b85828601613d5a565b9150509250929050565b634e487b7160e01b600052602160045260246000fd5b60068110613e6957634e487b7160e01b600052602160045260246000fd5b9052565b613e78828251613e4b565b6000602082015160806020850152613e936080850182613970565b6040848101516001600160a01b03908116918701919091526060948501511693909401929092525090919050565b602081526000612fdc6020830184613e6d565b60008060408385031215613ee757600080fd5b823591506020830135613ef9816138df565b809150509250929050565b6001600160401b0381168114610cb157600080fd5b60008060008060608587031215613f2f57600080fd5b843593506020850135613f4181613f04565b925060408501356001600160401b03811115613f5c57600080fd5b613f6887828801613c81565b95989497509550505050565b600060208083016020845280855180835260408601915060408160051b87010192506020870160005b82811015613fcb57603f19888603018452613fb9858351613e6d565b94509285019290850190600101613f9d565b5092979650505050505050565b600080600060608486031215613fed57600080fd5b833592506020840135915060408401356001600160401b0381111561401157600080fd5b840160a0818703121561402357600080fd5b809150509250925092565b6000806040838503121561404157600080fd5b823591506020830135613ef981613f04565b6020808252825182820181905260009190848201906040850190845b818110156140945783516001600160a01b03168352928401929184019160010161406f565b50909695505050505050565b6040815260006140b36040830185613aff565b905082151560208301529392505050565b6000806000606084860312156140d957600080fd5b83356140e4816138df565b925060208401356001600160401b038111156140ff57600080fd5b61410b86828701613d5a565b92505061411a60408501613c38565b90509250925092565b6000806020838503121561413657600080fd5b82356001600160401b038082111561414d57600080fd5b818501915085601f83011261416157600080fd5b81358181111561417057600080fd5b86602060a08302850101111561418557600080fd5b60209290920196919550909350505050565b602081526000612fdc6020830184613970565b634e487b7160e01b600052603160045260246000fd5b634e487b7160e01b600052603260045260246000fd5b634e487b7160e01b600052601160045260246000fd5b808201808211156111ee576111ee6141d6565b600181811c9082168061421357607f821691505b60208210810361164457634e487b7160e01b600052602260045260246000fd5b600060018201614245576142456141d6565b5060010190565b602081016111ee8284613e4b565b5b8181101561426f576000815560010161425b565b5050565b601f82111561078757806000526020600020601f840160051c8101602085101561429a5750805b611c5c601f850160051c83018261425a565b600019600383901b1c191660019190911b1790565b6001600160401b038311156142d8576142d8613d44565b6142ec836142e683546141ff565b83614273565b6000601f84116001811461431a57600085156143085750838201355b61431286826142ac565b845550611c5c565b600083815260209020601f19861690835b8281101561434b578685013582556020948501946001909201910161432b565b50868210156143685760001960f88860031b161c19848701351681555b505060018560011b0183555050505050565b828152600060206040602084015260e08301845460408501526001808601546001600160401b038082166060880152808260401c166080880152808260801c1660a088015250506002860160a060c0870152828154808552610100880191508260005260206000209450600092505b8083101561440f5784546001600160a01b031682529383019391830191908501906143e9565b5098975050505050505050565b8183526000602080850194508260005b8581101561445a57813561443f816138df565b6001600160a01b03168752958201959082019060010161442c565b509495945050505050565b81835281816020850137506000828201602090810191909152601f909101601f19169091010190565b8681526080602082015260006144a860808301878961441c565b85604084015282810360608401526144c1818587614465565b9998505050505050505050565b600082516144e081846020870161394c565b9190910192915050565b60008083546144f8816141ff565b60018281168015614510576001811461452557614554565b60ff1984168752821515830287019450614554565b8760005260208060002060005b8581101561454b5781548a820152908401908201614532565b50505082870194505b50929695505050505050565b81516001600160401b0381111561457957614579613d44565b61458d8161458784546141ff565b84614273565b602080601f8311600181146145bc57600084156145aa5750858301515b6145b485826142ac565b865550612fb6565b600085815260208120601f198616915b828110156145eb578886015182559484019460019091019084016145cc565b50858210156146095787850151600019600388901b60f8161c191681555b5050505050600190811b01905550565b8581526001600160401b0385166020820152608060408201526000614642608083018587614465565b905082151560608301529695505050505050565b6000808335601e1984360301811261466d57600080fd5b8301803591506001600160401b0382111561468757600080fd5b6020019150600581901b360382131561274957600080fd5b6001600160401b038311156146b6576146b6613d44565b600160401b8311156146ca576146ca613d44565b8054838255808410156146f0578160005260206000206146ee82820186830161425a565b505b50818160005260208060002060005b86811015614722578335614712816138df565b82820155928201926001016146ff565b50505050505050565b8135815560018101602083013561474181613f04565b6001600160401b038254604086013561475981613f04565b606087013561476781613f04565b6001600160401b0360801b8160801b168486166001600160401b0360c01b8516176fffffffffffffffff00000000000000008460401b161717865550505060808501359250601e198536030183126147be57600080fd5b9184019182359150808211156147d357600080fd5b506020820191508060051b36038213156147ec57600080fd5b61349981836002860161469f565b803582526000602082013561480e81613f04565b6001600160401b03908116602085015260408301359061482d82613f04565b908116604085015260608301359061484482613f04565b908116606085015260808301359036849003601e1901821261486557600080fd5b602091840191820191358181111561487c57600080fd5b8060051b360383131561488e57600080fd5b60a06080870152613c2e60a08701828561441c565b8281526040602082015260006148bc60408301846147fa565b949350505050565b8381528260208201526060604082015260006148e360608301846147fa565b95945050505050565b818103818111156111ee576111ee6141d6565b81810361490a575050565b61491482546141ff565b6001600160401b0381111561492b5761492b613d44565b6149398161458784546141ff565b6000601f82116001811461496757600083156149555750848201545b61495f84826142ac565b855550611c5c565b600085815260209020601f19841690600086815260209020845b838110156149a15782860154825560019586019590910190602001614981565b50858310156146095793015460001960f8600387901b161c19169092555050600190811b01905550565b6040815260006149de6040830185613970565b9050612fdc6020830184613e4b565b6000602082840312156149ff57600080fd5b8135612fdc81613f04565b8481528360208201526001600160401b0383166040820152608060608201526000613c2e6080830184613970565b80358015158114613c4757600080fd5b600060208284031215614a5a57600080fd5b612fdc82614a38565b600060a08284031215614a7557600080fd5b60405160a081018181106001600160401b0382111715614a9757614a97613d44565b80604052508235815260208301356020820152604083013560408201526060830135614ac281613f04565b6060820152614ad360808401614a38565b60808201529392505050565b602080825282518282018190526000919060409081850190868401855b82811015614b4b57815180518552868101518786015285810151868601526060808201516001600160401b03169086015260809081015115159085015260a09093019290850190600101614afc565b509197965050505050505056fec01483261a841a868b99cb8802faed4ea44a1a816651c4f7ee061a96a205fe98","linkReferences":{}},"methodIdentifiers":{"__OperatorRegistry_init(address[])":"ba428b1a","__RiverConfig_init(address[])":"31374511","addStream(bytes32,bytes32,(bytes32,uint64,uint64,uint64,address[]))":"b2e76b8e","allocateStream(bytes32,address[],bytes32,bytes)":"6b883c39","approveConfigurationManager(address)":"c179b85f","approveOperator(address)":"242cae9f","configurationExists(bytes32)":"fc207c01","deleteConfiguration(bytes32)":"035759e1","deleteConfigurationOnBlock(bytes32,uint64)":"b7f227ee","getAllConfiguration()":"081814db","getAllNodeAddresses()":"c8fe3a01","getAllNodes()":"a1174e7d","getAllOperators()":"d911c632","getConfiguration(bytes32)":"9283ae3a","getNode(address)":"9d209048","getNodeCount()":"39bf397e","getPaginatedStreams(uint256,uint256)":"ca78c41a","getPaginatedStreamsOnNode(address,uint256,uint256)":"22bbda64","getStream(bytes32)":"1290abe8","getStreamCount()":"c0f22084","getStreamCountOnNode(address)":"c87d1324","getStreamWithGenesis(bytes32)":"3c2544d1","isConfigurationManager(address)":"d4bd44a0","isNode(address)":"01750152","isOperator(address)":"6d70f7ae","isStream(bytes32)":"d0c27c4f","placeStreamOnNode(bytes32,address)":"9ee86d38","registerNode(address,string,uint8)":"eecc66f4","removeConfigurationManager(address)":"813049ec","removeNode(address)":"b2b99ec9","removeOperator(address)":"ac8a584a","removeStreamFromNode(bytes32,address)":"ee885b12","setConfiguration(bytes32,uint64,bytes)":"a09449a6","setStreamLastMiniblockBatch((bytes32,bytes32,bytes32,uint64,bool)[])":"ff3a14ab","syncNodesOnStreams(uint256,uint256)":"03cc8793","updateNodeStatus(address,uint8)":"581f8b9b","updateNodeUrl(address,string)":"7e4465e7"},"id":31}