{"abi":[{"type":"constructor","inputs":[{"name":"approvedOperators","type":"address[]","internalType":"address[]"}],"stateMutability":"payable"},{"type":"function","name":"__OperatorRegistry_init","inputs":[{"name":"initialOperators","type":"address[]","internalType":"address[]"}],"outputs":[],"stateMutability":"nonpayable"},{"type":"function","name":"__RiverConfig_init","inputs":[{"name":"configManagers","type":"address[]","internalType":"address[]"}],"outputs":[],"stateMutability":"nonpayable"},{"type":"function","name":"addStream","inputs":[{"name":"streamId","type":"bytes32","internalType":"bytes32"},{"name":"genesisMiniblockHash","type":"bytes32","internalType":"bytes32"},{"name":"stream","type":"tuple","internalType":"struct Stream","components":[{"name":"lastMiniblockHash","type":"bytes32","internalType":"bytes32"},{"name":"lastMiniblockNum","type":"uint64","internalType":"uint64"},{"name":"reserved0","type":"uint64","internalType":"uint64"},{"name":"flags","type":"uint64","internalType":"uint64"},{"name":"nodes","type":"address[]","internalType":"address[]"}]}],"outputs":[],"stateMutability":"nonpayable"},{"type":"function","name":"allocateStream","inputs":[{"name":"streamId","type":"bytes32","internalType":"bytes32"},{"name":"nodes","type":"address[]","internalType":"address[]"},{"name":"genesisMiniblockHash","type":"bytes32","internalType":"bytes32"},{"name":"genesisMiniblock","type":"bytes","internalType":"bytes"}],"outputs":[],"stateMutability":"nonpayable"},{"type":"function","name":"approveConfigurationManager","inputs":[{"name":"manager","type":"address","internalType":"address"}],"outputs":[],"stateMutability":"nonpayable"},{"type":"function","name":"approveOperator","inputs":[{"name":"operator","type":"address","internalType":"address"}],"outputs":[],"stateMutability":"nonpayable"},{"type":"function","name":"configurationExists","inputs":[{"name":"key","type":"bytes32","internalType":"bytes32"}],"outputs":[{"name":"","type":"bool","internalType":"bool"}],"stateMutability":"view"},{"type":"function","name":"deleteConfiguration","inputs":[{"name":"key","type":"bytes32","internalType":"bytes32"}],"outputs":[],"stateMutability":"nonpayable"},{"type":"function","name":"deleteConfigurationOnBlock","inputs":[{"name":"key","type":"bytes32","internalType":"bytes32"},{"name":"blockNumber","type":"uint64","internalType":"uint64"}],"outputs":[],"stateMutability":"nonpayable"},{"type":"function","name":"getAllConfiguration","inputs":[],"outputs":[{"name":"settings","type":"tuple[]","internalType":"struct Setting[]","components":[{"name":"key","type":"bytes32","internalType":"bytes32"},{"name":"blockNumber","type":"uint64","internalType":"uint64"},{"name":"value","type":"bytes","internalType":"bytes"}]}],"stateMutability":"view"},{"type":"function","name":"getAllNodeAddresses","inputs":[],"outputs":[{"name":"","type":"address[]","internalType":"address[]"}],"stateMutability":"view"},{"type":"function","name":"getAllNodes","inputs":[],"outputs":[{"name":"","type":"tuple[]","internalType":"struct Node[]","components":[{"name":"status","type":"uint8","internalType":"enum NodeStatus"},{"name":"url","type":"string","internalType":"string"},{"name":"nodeAddress","type":"address","internalType":"address"},{"name":"operator","type":"address","internalType":"address"}]}],"stateMutability":"view"},{"type":"function","name":"getAllOperators","inputs":[],"outputs":[{"name":"","type":"address[]","internalType":"address[]"}],"stateMutability":"view"},{"type":"function","name":"getConfiguration","inputs":[{"name":"key","type":"bytes32","internalType":"bytes32"}],"outputs":[{"name":"","type":"tuple[]","internalType":"struct Setting[]","components":[{"name":"key","type":"bytes32","internalType":"bytes32"},{"name":"blockNumber","type":"uint64","internalType":"uint64"},{"name":"value","type":"bytes","internalType":"bytes"}]}],"stateMutability":"view"},{"type":"function","name":"getNode","inputs":[{"name":"nodeAddress","type":"address","internalType":"address"}],"outputs":[{"name":"","type":"tuple","internalType":"struct Node","components":[{"name":"status","type":"uint8","internalType":"enum NodeStatus"},{"name":"url","type":"string","internalType":"string"},{"name":"nodeAddress","type":"address","internalType":"address"},{"name":"operator","type":"address","internalType":"address"}]}],"stateMutability":"view"},{"type":"function","name":"getNodeCount","inputs":[],"outputs":[{"name":"","type":"uint256","internalType":"uint256"}],"stateMutability":"view"},{"type":"function","name":"getPaginatedStreams","inputs":[{"name":"start","type":"uint256","internalType":"uint256"},{"name":"stop","type":"uint256","internalType":"uint256"}],"outputs":[{"name":"","type":"tuple[]","internalType":"struct StreamWithId[]","components":[{"name":"id","type":"bytes32","internalType":"bytes32"},{"name":"stream","type":"tuple","internalType":"struct Stream","components":[{"name":"lastMiniblockHash","type":"bytes32","internalType":"bytes32"},{"name":"lastMiniblockNum","type":"uint64","internalType":"uint64"},{"name":"reserved0","type":"uint64","internalType":"uint64"},{"name":"flags","type":"uint64","internalType":"uint64"},{"name":"nodes","type":"address[]","internalType":"address[]"}]}]},{"name":"","type":"bool","internalType":"bool"}],"stateMutability":"view"},{"type":"function","name":"getPaginatedStreamsOnNode","inputs":[{"name":"nodeAddress","type":"address","internalType":"address"},{"name":"start","type":"uint256","internalType":"uint256"},{"name":"stop","type":"uint256","internalType":"uint256"}],"outputs":[{"name":"streams","type":"tuple[]","internalType":"struct StreamWithId[]","components":[{"name":"id","type":"bytes32","internalType":"bytes32"},{"name":"stream","type":"tuple","internalType":"struct Stream","components":[{"name":"lastMiniblockHash","type":"bytes32","internalType":"bytes32"},{"name":"lastMiniblockNum","type":"uint64","internalType":"uint64"},{"name":"reserved0","type":"uint64","internalType":"uint64"},{"name":"flags","type":"uint64","internalType":"uint64"},{"name":"nodes","type":"address[]","internalType":"address[]"}]}]}],"stateMutability":"view"},{"type":"function","name":"getStream","inputs":[{"name":"streamId","type":"bytes32","internalType":"bytes32"}],"outputs":[{"name":"stream","type":"tuple","internalType":"struct Stream","components":[{"name":"lastMiniblockHash","type":"bytes32","internalType":"bytes32"},{"name":"lastMiniblockNum","type":"uint64","internalType":"uint64"},{"name":"reserved0","type":"uint64","internalType":"uint64"},{"name":"flags","type":"uint64","internalType":"uint64"},{"name":"nodes","type":"address[]","internalType":"address[]"}]}],"stateMutability":"view"},{"type":"function","name":"getStreamCount","inputs":[],"outputs":[{"name":"","type":"uint256","internalType":"uint256"}],"stateMutability":"view"},{"type":"function","name":"getStreamCountOnNode","inputs":[{"name":"nodeAddress","type":"address","internalType":"address"}],"outputs":[{"name":"count","type":"uint256","internalType":"uint256"}],"stateMutability":"view"},{"type":"function","name":"getStreamWithGenesis","inputs":[{"name":"streamId","type":"bytes32","internalType":"bytes32"}],"outputs":[{"name":"stream","type":"tuple","internalType":"struct Stream","components":[{"name":"lastMiniblockHash","type":"bytes32","internalType":"bytes32"},{"name":"lastMiniblockNum","type":"uint64","internalType":"uint64"},{"name":"reserved0","type":"uint64","internalType":"uint64"},{"name":"flags","type":"uint64","internalType":"uint64"},{"name":"nodes","type":"address[]","internalType":"address[]"}]},{"name":"","type":"bytes32","internalType":"bytes32"},{"name":"","type":"bytes","internalType":"bytes"}],"stateMutability":"view"},{"type":"function","name":"isConfigurationManager","inputs":[{"name":"manager","type":"address","internalType":"address"}],"outputs":[{"name":"","type":"bool","internalType":"bool"}],"stateMutability":"view"},{"type":"function","name":"isNode","inputs":[{"name":"nodeAddress","type":"address","internalType":"address"}],"outputs":[{"name":"","type":"bool","internalType":"bool"}],"stateMutability":"view"},{"type":"function","name":"isOperator","inputs":[{"name":"operator","type":"address","internalType":"address"}],"outputs":[{"name":"","type":"bool","internalType":"bool"}],"stateMutability":"view"},{"type":"function","name":"isStream","inputs":[{"name":"streamId","type":"bytes32","internalType":"bytes32"}],"outputs":[{"name":"","type":"bool","internalType":"bool"}],"stateMutability":"view"},{"type":"function","name":"placeStreamOnNode","inputs":[{"name":"streamId","type":"bytes32","internalType":"bytes32"},{"name":"nodeAddress","type":"address","internalType":"address"}],"outputs":[],"stateMutability":"nonpayable"},{"type":"function","name":"registerNode","inputs":[{"name":"nodeAddress","type":"address","internalType":"address"},{"name":"url","type":"string","internalType":"string"},{"name":"status","type":"uint8","internalType":"enum NodeStatus"}],"outputs":[],"stateMutability":"nonpayable"},{"type":"function","name":"removeConfigurationManager","inputs":[{"name":"manager","type":"address","internalType":"address"}],"outputs":[],"stateMutability":"nonpayable"},{"type":"function","name":"removeNode","inputs":[{"name":"nodeAddress","type":"address","internalType":"address"}],"outputs":[],"stateMutability":"nonpayable"},{"type":"function","name":"removeOperator","inputs":[{"name":"operator","type":"address","internalType":"address"}],"outputs":[],"stateMutability":"nonpayable"},{"type":"function","name":"removeStreamFromNode","inputs":[{"name":"streamId","type":"bytes32","internalType":"bytes32"},{"name":"nodeAddress","type":"address","internalType":"address"}],"outputs":[],"stateMutability":"nonpayable"},{"type":"function","name":"setConfiguration","inputs":[{"name":"key","type":"bytes32","internalType":"bytes32"},{"name":"blockNumber","type":"uint64","internalType":"uint64"},{"name":"value","type":"bytes","internalType":"bytes"}],"outputs":[],"stateMutability":"nonpayable"},{"type":"function","name":"setStreamLastMiniblockBatch","inputs":[{"name":"miniblocks","type":"tuple[]","internalType":"struct SetMiniblock[]","components":[{"name":"streamId","type":"bytes32","internalType":"bytes32"},{"name":"prevMiniBlockHash","type":"bytes32","internalType":"bytes32"},{"name":"lastMiniblockHash","type":"bytes32","internalType":"bytes32"},{"name":"lastMiniblockNum","type":"uint64","internalType":"uint64"},{"name":"isSealed","type":"bool","internalType":"bool"}]}],"outputs":[],"stateMutability":"nonpayable"},{"type":"function","name":"setStreamReplicationFactor","inputs":[{"name":"requests","type":"tuple[]","internalType":"struct SetStreamReplicationFactor[]","components":[{"name":"streamId","type":"bytes32","internalType":"bytes32"},{"name":"nodes","type":"address[]","internalType":"address[]"},{"name":"replicationFactor","type":"uint8","internalType":"uint8"}]}],"outputs":[],"stateMutability":"nonpayable"},{"type":"function","name":"syncNodesOnStreams","inputs":[{"name":"start","type":"uint256","internalType":"uint256"},{"name":"stop","type":"uint256","internalType":"uint256"}],"outputs":[],"stateMutability":"nonpayable"},{"type":"function","name":"updateNodeStatus","inputs":[{"name":"nodeAddress","type":"address","internalType":"address"},{"name":"status","type":"uint8","internalType":"enum NodeStatus"}],"outputs":[],"stateMutability":"nonpayable"},{"type":"function","name":"updateNodeUrl","inputs":[{"name":"nodeAddress","type":"address","internalType":"address"},{"name":"url","type":"string","internalType":"string"}],"outputs":[],"stateMutability":"nonpayable"},{"type":"event","name":"ConfigurationChanged","inputs":[{"name":"key","type":"bytes32","indexed":false,"internalType":"bytes32"},{"name":"block","type":"uint64","indexed":false,"internalType":"uint64"},{"name":"value","type":"bytes","indexed":false,"internalType":"bytes"},{"name":"deleted","type":"bool","indexed":false,"internalType":"bool"}],"anonymous":false},{"type":"event","name":"ConfigurationManagerAdded","inputs":[{"name":"manager","type":"address","indexed":true,"internalType":"address"}],"anonymous":false},{"type":"event","name":"ConfigurationManagerRemoved","inputs":[{"name":"manager","type":"address","indexed":true,"internalType":"address"}],"anonymous":false},{"type":"event","name":"Initialized","inputs":[{"name":"version","type":"uint32","indexed":false,"internalType":"uint32"}],"anonymous":false},{"type":"event","name":"InterfaceAdded","inputs":[{"name":"interfaceId","type":"bytes4","indexed":true,"internalType":"bytes4"}],"anonymous":false},{"type":"event","name":"InterfaceRemoved","inputs":[{"name":"interfaceId","type":"bytes4","indexed":true,"internalType":"bytes4"}],"anonymous":false},{"type":"event","name":"NodeAdded","inputs":[{"name":"nodeAddress","type":"address","indexed":true,"internalType":"address"},{"name":"operator","type":"address","indexed":true,"internalType":"address"},{"name":"url","type":"string","indexed":false,"internalType":"string"},{"name":"status","type":"uint8","indexed":false,"internalType":"enum NodeStatus"}],"anonymous":false},{"type":"event","name":"NodeRemoved","inputs":[{"name":"nodeAddress","type":"address","indexed":true,"internalType":"address"}],"anonymous":false},{"type":"event","name":"NodeStatusUpdated","inputs":[{"name":"nodeAddress","type":"address","indexed":true,"internalType":"address"},{"name":"status","type":"uint8","indexed":false,"internalType":"enum NodeStatus"}],"anonymous":false},{"type":"event","name":"NodeUrlUpdated","inputs":[{"name":"nodeAddress","type":"address","indexed":true,"internalType":"address"},{"name":"url","type":"string","indexed":false,"internalType":"string"}],"anonymous":false},{"type":"event","name":"OperatorAdded","inputs":[{"name":"operatorAddress","type":"address","indexed":true,"internalType":"address"}],"anonymous":false},{"type":"event","name":"OperatorRemoved","inputs":[{"name":"operatorAddress","type":"address","indexed":true,"internalType":"address"}],"anonymous":false},{"type":"event","name":"OwnershipTransferred","inputs":[{"name":"previousOwner","type":"address","indexed":true,"internalType":"address"},{"name":"newOwner","type":"address","indexed":true,"internalType":"address"}],"anonymous":false},{"type":"event","name":"StreamAllocated","inputs":[{"name":"streamId","type":"bytes32","indexed":false,"internalType":"bytes32"},{"name":"nodes","type":"address[]","indexed":false,"internalType":"address[]"},{"name":"genesisMiniblockHash","type":"bytes32","indexed":false,"internalType":"bytes32"},{"name":"genesisMiniblock","type":"bytes","indexed":false,"internalType":"bytes"}],"anonymous":false},{"type":"event","name":"StreamCreated","inputs":[{"name":"streamId","type":"bytes32","indexed":false,"internalType":"bytes32"},{"name":"genesisMiniblockHash","type":"bytes32","indexed":false,"internalType":"bytes32"},{"name":"stream","type":"tuple","indexed":false,"internalType":"struct Stream","components":[{"name":"lastMiniblockHash","type":"bytes32","internalType":"bytes32"},{"name":"lastMiniblockNum","type":"uint64","internalType":"uint64"},{"name":"reserved0","type":"uint64","internalType":"uint64"},{"name":"flags","type":"uint64","internalType":"uint64"},{"name":"nodes","type":"address[]","internalType":"address[]"}]}],"anonymous":false},{"type":"event","name":"StreamLastMiniblockUpdateFailed","inputs":[{"name":"streamId","type":"bytes32","indexed":false,"internalType":"bytes32"},{"name":"lastMiniblockHash","type":"bytes32","indexed":false,"internalType":"bytes32"},{"name":"lastMiniblockNum","type":"uint64","indexed":false,"internalType":"uint64"},{"name":"reason","type":"string","indexed":false,"internalType":"string"}],"anonymous":false},{"type":"event","name":"StreamLastMiniblockUpdated","inputs":[{"name":"streamId","type":"bytes32","indexed":false,"internalType":"bytes32"},{"name":"lastMiniblockHash","type":"bytes32","indexed":false,"internalType":"bytes32"},{"name":"lastMiniblockNum","type":"uint64","indexed":false,"internalType":"uint64"},{"name":"isSealed","type":"bool","indexed":false,"internalType":"bool"}],"anonymous":false},{"type":"event","name":"StreamPlacementUpdated","inputs":[{"name":"streamId","type":"bytes32","indexed":false,"internalType":"bytes32"},{"name":"nodeAddress","type":"address","indexed":false,"internalType":"address"},{"name":"isAdded","type":"bool","indexed":false,"internalType":"bool"}],"anonymous":false},{"type":"event","name":"StreamUpdated","inputs":[{"name":"eventType","type":"uint8","indexed":true,"internalType":"enum IStreamRegistryBase.StreamEventType"},{"name":"data","type":"bytes","indexed":false,"internalType":"bytes"}],"anonymous":false},{"type":"error","name":"Initializable_InInitializingState","inputs":[]},{"type":"error","name":"Initializable_NotInInitializingState","inputs":[]},{"type":"error","name":"Introspection_AlreadySupported","inputs":[]},{"type":"error","name":"Introspection_NotSupported","inputs":[]},{"type":"error","name":"Ownable__NotOwner","inputs":[{"name":"account","type":"address","internalType":"address"}]},{"type":"error","name":"Ownable__ZeroAddress","inputs":[]}],"bytecode":{"object":"0x6080604052604051615e84380380615e8483398101604081905261002291610416565b61002a610085565b6100333361012b565b80515f5b8181101561007d575f838281518110610052576100526104e0565b6020026020010151905061006b816101cf60201b60201c565b61007481610282565b50600101610037565b5050506104f4565b7f59b501c3653afc186af7d48dda36cf6732bd21629a6295693664240a6ef520008054640100000000900460ff16156100d1576040516366008a2d60e01b815260040160405180910390fd5b805463ffffffff908116101561012857805463ffffffff191663ffffffff90811782556040519081527fe9c9b456cb2994b80aeef036cf59d26e9617df80f816a6ee5a5b4166e07e2f5c9060200160405180910390a15b50565b5f61014a5f516020615e645f395f51905f52546001600160a01b031690565b90506001600160a01b03821661017357604051634e3ef82560e01b815260040160405180910390fd5b815f516020615e645f395f51905f5280546001600160a01b0319166001600160a01b03928316179055604051838216918316907f8be0079c531659141344cd1fd0a4f28419497f9722a3daafe3b4186f6b6457e0905f90a35050565b6001600160a01b038116610204576040805180820190915260078152664241445f41524760c81b60208201526102049061032a565b61020d8161034d565b156102405760408051808201909152600e81526d414c52454144595f45584953545360901b60208201526102409061032a565b61024b60088261035f565b506040516001600160a01b038216907fac6fa858e9350a46cec16539926e0fde25b7629f84b5a72bffaae4df888ae86d905f90a250565b6001600160a01b0381166102b7576040805180820190915260078152664241445f41524760c81b60208201526102b79061032a565b6102c2600d8261035f565b6102f45760408051808201909152600e81526d414c52454144595f45584953545360901b60208201526102f49061032a565b6040516001600160a01b038216907f7afd798379ae2d2e5035438544cea2b60eb1dde6a8128e6d447fd2a25f8825a2905f90a250565b6308c379a06040820352602080820352601f19601f825101166044810160248303fd5b5f61035960088361037a565b92915050565b5f610373836001600160a01b03841661039b565b9392505050565b6001600160a01b0381165f9081526001830160205260408120541515610373565b5f8181526001830160205260408120546103e057508154600181810184555f848152602080822090930184905584548482528286019093526040902091909155610359565b505f610359565b634e487b7160e01b5f52604160045260245ffd5b80516001600160a01b0381168114610411575f5ffd5b919050565b5f60208284031215610426575f5ffd5b81516001600160401b0381111561043b575f5ffd5b8201601f8101841361044b575f5ffd5b80516001600160401b03811115610464576104646103e7565b604051600582901b90603f8201601f191681016001600160401b0381118282101715610492576104926103e7565b6040529182526020818401810192908101878411156104af575f5ffd5b6020850194505b838510156104d5576104c7856103fb565b8152602094850194016104b6565b509695505050505050565b634e487b7160e01b5f52603260045260245ffd5b615963806105015f395ff3fe608060405234801561000f575f5ffd5b5060043610610283575f3560e01c8063a09449a611610157578063c87d1324116100d2578063d911c63211610088578063eecc66f41161006e578063eecc66f414610598578063fc207c01146105ab578063ff3a14ab146105be575f5ffd5b8063d911c6321461057d578063ee885b1214610585575f5ffd5b8063ca78c41a116100b8578063ca78c41a14610536578063d0c27c4f14610557578063d4bd44a01461056a575f5ffd5b8063c87d13241461050e578063c8fe3a0114610521575f5ffd5b8063b2e76b8e11610127578063ba428b1a1161010d578063ba428b1a146104e0578063c0f22084146104f3578063c179b85f146104fb575f5ffd5b8063b2e76b8e146104ba578063b7f227ee146104cd575f5ffd5b8063a09449a61461046c578063a1174e7d1461047f578063ac8a584a14610494578063b2b99ec9146104a7575f5ffd5b80633c2544d1116102015780637e4465e7116101b75780639283ae3a1161019d5780639283ae3a146104265780639d209048146104395780639ee86d3814610459575f5ffd5b80637e4465e714610400578063813049ec14610413575f5ffd5b80635c665ce9116101e75780635c665ce9146103c75780636b883c39146103da5780636d70f7ae146103ed575f5ffd5b80633c2544d114610392578063581f8b9b146103b4575f5ffd5b80631290abe811610256578063242cae9f1161023c578063242cae9f14610356578063313745111461036957806339bf397e1461037c575f5ffd5b80631290abe81461031657806322bbda6414610336575f5ffd5b80630175015214610287578063035759e1146102d957806303cc8793146102ee578063081814db14610301575b5f5ffd5b6102c461029536600461436e565b73ffffffffffffffffffffffffffffffffffffffff9081165f9081526007602052604090206002015416151590565b60405190151581526020015b60405180910390f35b6102ec6102e7366004614389565b6105d1565b005b6102ec6102fc3660046143a0565b6106e9565b610309610750565b6040516102d0919061440c565b610329610324366004614389565b610981565b6040516102d09190614562565b610349610344366004614574565b610aaa565b6040516102d09190614635565b6102ec61036436600461436e565b610c64565b6102ec610377366004614688565b610ce7565b610384610d8b565b6040519081526020016102d0565b6103a56103a0366004614389565b610d9b565b6040516102d0939291906146c7565b6102ec6103c236600461470e565b610f70565b6102ec6103d5366004614688565b611171565b6102ec6103e836600461477f565b6113f2565b6102c46103fb36600461436e565b6115a6565b6102ec61040e3660046148d7565b6115b8565b6102ec61042136600461436e565b6117fc565b610309610434366004614389565b611957565b61044c61044736600461436e565b611abe565b6040516102d091906149fb565b6102ec610467366004614a0d565b611c56565b6102ec61047a366004614a50565b611eef565b6104876121cd565b6040516102d09190614aa8565b6102ec6104a236600461436e565b6123b4565b6102ec6104b536600461436e565b612575565b6102ec6104c8366004614b1d565b6127b4565b6102ec6104db366004614b6f565b6128d1565b6102ec6104ee366004614688565b612b4f565b610384612bf3565b6102ec61050936600461436e565b612bfd565b61038461051c36600461436e565b612c78565b610529612ca5565b6040516102d09190614b92565b6105496105443660046143a0565b612cb1565b6040516102d0929190614bea565b6102c4610565366004614389565b612e49565b6102c461057836600461436e565b612e54565b610529612e60565b6102ec610593366004614a0d565b612e6c565b6102ec6105a6366004614c0d565b61319b565b6102c46105b9366004614389565b6133d7565b6102ec6105cc366004614c69565b6133e3565b336105dd600d826138b1565b61061f5761061f6040518060400160405280600881526020017f4241445f415554480000000000000000000000000000000000000000000000008152506138e2565b8161062b600a82613905565b61066d5761066d6040518060400160405280600981526020017f4e4f545f464f554e4400000000000000000000000000000000000000000000008152506138e2565b5f838152600c60205260408120610683916141b0565b61068e600a8461391c565b506040805184815267ffffffffffffffff602082015260808183018190525f908201526001606082015290517fc01483261a841a868b99cb8802faed4ea44a1a816651c4f7ee061a96a205fe989181900360a00190a1505050565b5f806106f481613927565b838118908411028318848111908590030284019150505b8083101561074b575f61071e8185613930565b5f81815260026020819052604090912091925061073e908390830161393b565b505082600101925061070b565b505050565b60605f8061075e600a613927565b90505f5b8181101561079c575f610776600a83613930565b5f818152600c60205260409020549091506107919085614d07565b935050600101610762565b508167ffffffffffffffff8111156107b6576107b6614801565b60405190808252806020026020018201604052801561080257816020015b60408051606080820183525f8083526020830152918101919091528152602001906001900390816107d45790505b5092505f610810600a613927565b90505f805b82811015610979575f610829600a83613930565b5f818152600c60205260408120805492935091905b8181101561096a5782818154811061085857610858614d1a565b905f5260205f2090600302016040518060600160405290815f8201548152602001600182015f9054906101000a900467ffffffffffffffff1667ffffffffffffffff1667ffffffffffffffff1681526020016002820180546108b990614d47565b80601f01602080910402602001604051908101604052809291908181526020018280546108e590614d47565b80156109305780601f1061090757610100808354040283529160200191610930565b820191905f5260205f20905b81548152906001019060200180831161091357829003601f168201915b5050505050815250508a878061094590614d92565b98508151811061095757610957614d1a565b602090810291909101015260010161083e565b50505050806001019050610815565b505050505090565b6109cd6040518060a001604052805f81526020015f67ffffffffffffffff1681526020015f67ffffffffffffffff1681526020015f67ffffffffffffffff168152602001606081525090565b806040526109da826139a7565b5f82815260026020818152604092839020835160a08101855281548152600182015467ffffffffffffffff808216838601526801000000000000000082048116838801527001000000000000000000000000000000009091041660608201529281018054855181850281018501909652808652939491936080860193830182828015610a9a57602002820191905f5260205f20905b815473ffffffffffffffffffffffffffffffffffffffff168152600190910190602001808311610a6f575b5050505050815250509050919050565b73ffffffffffffffffffffffffffffffffffffffff83165f908152601060205260408120606091610ada82613927565b9050838118818511028418858111868203028067ffffffffffffffff811115610b0557610b05614801565b604051908082528060200260200182016040528015610b3e57816020015b610b2b6141ce565b815260200190600190039081610b235790505b5094505f5b81811015610c58575f868281518110610b5e57610b5e614d1a565b60200260200101519050610b7d828a018761393090919063ffffffff16565b8082525f90815260026020818152604092839020835160a08101855281548152600182015467ffffffffffffffff808216838601526801000000000000000082048116838801527001000000000000000000000000000000009091041660608201529281018054855181850281018501909652808652939491936080860193830182828015610c4057602002820191905f5260205f20905b815473ffffffffffffffffffffffffffffffffffffffff168152600190910190602001808311610c15575b50505091909252505050602090910152600101610b43565b50505050509392505050565b7f4675fa8241f86f37157864d3d49b85ad4b164352c516da28e1678a90470ae3005473ffffffffffffffffffffffffffffffffffffffff163314610cdb576040517f65f490650000000000000000000000000000000000000000000000000000000081523360048201526024015b60405180910390fd5b610ce4816139f3565b50565b7f59b501c3653afc186af7d48dda36cf6732bd21629a6295693664240a6ef5200054640100000000900460ff16610d4a576040517f77a399b800000000000000000000000000000000000000000000000000000000815260040160405180910390fd5b5f5b8181101561074b57610d83838383818110610d6957610d69614d1a565b9050602002016020810190610d7e919061436e565b613ae7565b600101610d4c565b5f610d966005613927565b905090565b610de76040518060a001604052805f81526020015f67ffffffffffffffff1681526020015f67ffffffffffffffff1681526020015f67ffffffffffffffff168152602001606081525090565b5f606082604052610df7846139a7565b5f84815260026020818152604080842060048352818520546003845294829020825160a08101845282548152600183015467ffffffffffffffff8082168388015268010000000000000000820481168387015270010000000000000000000000000000000090910416606082015294820180548451818702810187019095528085529296959194919387936080860193919291830182828015610ece57602002820191905f5260205f20905b815473ffffffffffffffffffffffffffffffffffffffff168152600190910190602001808311610ea3575b5050505050815250509250808054610ee590614d47565b80601f0160208091040260200160405190810160405280929190818152602001828054610f1190614d47565b8015610f5c5780601f10610f3357610100808354040283529160200191610f5c565b820191905f5260205f20905b815481529060010190602001808311610f3f57829003601f168201915b505050505090509250925092509193909250565b73ffffffffffffffffffffffffffffffffffffffff8083165f90815260076020526040902060020154839116610fde57610fde6040518060400160405280600e81526020017f4e4f44455f4e4f545f464f554e440000000000000000000000000000000000008152506138e2565b33610fea6008826138b1565b61102c5761102c6040518060400160405280600881526020017f4241445f415554480000000000000000000000000000000000000000000000008152506138e2565b73ffffffffffffffffffffffffffffffffffffffff8085165f908152600760205260409020600301548591339116811461109e5761109e6040518060400160405280600881526020017f4241445f415554480000000000000000000000000000000000000000000000008152506138e2565b73ffffffffffffffffffffffffffffffffffffffff86165f90815260076020526040902080546110d19060ff1687613bd0565b8054869082907fffffffffffffffffffffffffffffffffffffffffffffffffffffffffffffff0016600183600581111561110d5761110d614924565b0217905550600281015460405173ffffffffffffffffffffffffffffffffffffffff909116907f20891cc7622c7951cbd8c70c61a5201eb45625b8c00e8f6c986cfca78f3dbfa090611160908990614dc9565b60405180910390a250505050505050565b3361117d600d826138b1565b6111bf576111bf6040518060400160405280600881526020017f4241445f415554480000000000000000000000000000000000000000000000008152506138e2565b815f819003611206576112066040518060400160405280600781526020017f4241445f415247000000000000000000000000000000000000000000000000008152506138e2565b5f5b818110156113eb573685858381811061122357611223614d1a565b90506020028101906112359190614dd7565b90506112476060820160408301614e13565b60ff161580611275575061125e6020820182614e33565b90506112706060830160408401614e13565b60ff16115b156112b8576112b86040518060400160405280600781526020017f4241445f415247000000000000000000000000000000000000000000000000008152506138e2565b6112c281356139a7565b80355f818152600260208190526040909120916112e0918301613d7c565b6112f782356112f26020850185614e33565b613de2565b6113046020830183614e33565b600183015461135f9068010000000000000000900467ffffffffffffffff166113336060870160408801614e13565b60ff167fffffffffffffffffffffffffffffffffffffffffffffffffffffffffffffff00919091161790565b6001840180547fffffffffffffffffffffffffffffffff0000000000000000ffffffffffffffff166801000000000000000067ffffffffffffffff8416021790556113ae600285018484614230565b505050506113e16002835f0135836040516020016113cd929190614e97565b604051602081830303815290604052613e4e565b5050600101611208565b5050505050565b335f8181526007602052604090206002015473ffffffffffffffffffffffffffffffffffffffff1661145c5761145c6040518060400160405280600e81526020017f4e4f44455f4e4f545f464f554e440000000000000000000000000000000000008152506138e2565b8661146681613e8c565b86866114728282613ed9565b5f8a8152600260205260409020600181015488908b908b9067ffffffffffffff00680100000000000000009091041660ff8216176001850180547fffffffffffffffffffffffffffffffff0000000000000000ffffffffffffffff166801000000000000000067ffffffffffffffff841602179055845f6114f7600283018686614230565b5050939093555061150c91505f90508c613f60565b505f8b8152600360205260409020611525878983614f9d565b505f8b81526004602052604090208890556115418b8b8b613de2565b6115585f8c836040516020016113cd929190614e97565b7f55ef7efc60ef99743e54209752c9a8e047e013917ec91572db75875069dd65bb8b8b8b8b8b8b6040516115919695949392919061514f565b60405180910390a15050505050505050505050565b5f6115b26008836138b1565b92915050565b336115c46008826138b1565b611606576116066040518060400160405280600881526020017f4241445f415554480000000000000000000000000000000000000000000000008152506138e2565b73ffffffffffffffffffffffffffffffffffffffff8084165f90815260076020526040902060020154849116611674576116746040518060400160405280600e81526020017f4e4f44455f4e4f545f464f554e440000000000000000000000000000000000008152506138e2565b73ffffffffffffffffffffffffffffffffffffffff8085165f90815260076020526040902060030154859133911681146116e6576116e66040518060400160405280600881526020017f4241445f415554480000000000000000000000000000000000000000000000008152506138e2565b73ffffffffffffffffffffffffffffffffffffffff86165f90815260076020908152604091829020915161171c9188910161518e565b604051602081830303815290604052805190602001208160010160405160200161174691906151a4565b604051602081830303815290604052805190602001200361179f5761179f6040518060400160405280600781526020017f4241445f415247000000000000000000000000000000000000000000000000008152506138e2565b600181016117ad8782615233565b50600281015460405173ffffffffffffffffffffffffffffffffffffffff909116907f4505168a8705a16fd4d0575197fd0f510db69df93a065e158ad2c0957ba12bac9061116090899061534d565b7f4675fa8241f86f37157864d3d49b85ad4b164352c516da28e1678a90470ae3005473ffffffffffffffffffffffffffffffffffffffff16331461186e576040517f65f49065000000000000000000000000000000000000000000000000000000008152336004820152602401610cd2565b73ffffffffffffffffffffffffffffffffffffffff81166118c7576118c76040518060400160405280600781526020017f4241445f415247000000000000000000000000000000000000000000000000008152506138e2565b6118d2600d82613f6b565b611914576119146040518060400160405280600981526020017f4e4f545f464f554e4400000000000000000000000000000000000000000000008152506138e2565b60405173ffffffffffffffffffffffffffffffffffffffff8216907ff9889c857e5356066b564327caa757c325ecbc001b2b47d72edf8cf9aedb1be5905f90a250565b606081611965600a82613905565b6119a7576119a76040518060400160405280600981526020017f4e4f545f464f554e4400000000000000000000000000000000000000000000008152506138e2565b5f838152600c6020908152604080832080548251818502810185019093528083529193909284015b82821015611ab1575f848152602090819020604080516060810182526003860290920180548352600181015467ffffffffffffffff169383019390935260028301805492939291840191611a2290614d47565b80601f0160208091040260200160405190810160405280929190818152602001828054611a4e90614d47565b8015611a995780601f10611a7057610100808354040283529160200191611a99565b820191905f5260205f20905b815481529060010190602001808311611a7c57829003601f168201915b505050505081525050815260200190600101906119cf565b5050505091505b50919050565b611ae76040805160808101909152805f81526060602082018190525f6040830181905291015290565b611af26005836138b1565b611b3457611b346040518060400160405280600e81526020017f4e4f44455f4e4f545f464f554e440000000000000000000000000000000000008152506138e2565b73ffffffffffffffffffffffffffffffffffffffff82165f90815260076020526040908190208151608081019092528054829060ff166005811115611b7b57611b7b614924565b6005811115611b8c57611b8c614924565b8152602001600182018054611ba090614d47565b80601f0160208091040260200160405190810160405280929190818152602001828054611bcc90614d47565b8015611c175780601f10611bee57610100808354040283529160200191611c17565b820191905f5260205f20905b815481529060010190602001808311611bfa57829003601f168201915b5050509183525050600282015473ffffffffffffffffffffffffffffffffffffffff908116602083015260039092015490911660409091015292915050565b81611c60816139a7565b335f8181526007602052604090206002015473ffffffffffffffffffffffffffffffffffffffff16611cca57611cca6040518060400160405280600e81526020017f4e4f44455f4e4f545f464f554e440000000000000000000000000000000000008152506138e2565b5f84815260026020818152604080842073ffffffffffffffffffffffffffffffffffffffff88168552601090925290922090820190611d099087613f60565b5080545f5b81811015611dab578673ffffffffffffffffffffffffffffffffffffffff16838281548110611d3f57611d3f614d1a565b5f9182526020909120015473ffffffffffffffffffffffffffffffffffffffff1603611da357611da36040518060400160405280600e81526020017f414c52454144595f4558495354530000000000000000000000000000000000008152506138e2565b600101611d0e565b508154600180820184555f8481526020902090910180547fffffffffffffffffffffffff00000000000000000000000000000000000000001673ffffffffffffffffffffffffffffffffffffffff89161790558301548254611e4a9168010000000000000000900467ffffffffffffffff169060ff167fffffffffffffffffffffffffffffffffffffffffffffffffffffffffffffff00919091161790565b8360010160086101000a81548167ffffffffffffffff021916908367ffffffffffffffff160217905550611e8c600288856040516020016113cd929190614e97565b6040805188815273ffffffffffffffffffffffffffffffffffffffff881660208201526001918101919091527faaa473c28a5fe04b6a7ecd795826e462f9d0c23f00ef9f51ec02fa6ea418806f906060015b60405180910390a150505050505050565b33611efb600d826138b1565b611f3d57611f3d6040518060400160405280600881526020017f4241445f415554480000000000000000000000000000000000000000000000008152506138e2565b7fffffffffffffffffffffffffffffffffffffffffffffffff000000000000000167ffffffffffffffff851601611fac57611fac6040518060400160405280600781526020017f4241445f415247000000000000000000000000000000000000000000000000008152506138e2565b5f829003611ff257611ff26040518060400160405280600781526020017f4241445f415247000000000000000000000000000000000000000000000000008152506138e2565b611ffd600a86613905565b61200e5761200c600a86613f60565b505b5f858152600c60205260408120805490915b818110156120c6575f83828154811061203b5761203b614d1a565b5f9182526020909120600390910201600181015490915067ffffffffffffffff8981169116036120bd5760028101612074878983614f9d565b507fc01483261a841a868b99cb8802faed4ea44a1a816651c4f7ee061a96a205fe98898989895f6040516120ac95949392919061535f565b60405180910390a1505050506113eb565b50600101612020565b508160405180606001604052808981526020018867ffffffffffffffff16815260200187878080601f0160208091040260200160405190810160405280939291908181526020018383808284375f92018290525093909452505083546001808201865594825260209182902084516003909202019081559083015193810180547fffffffffffffffffffffffffffffffffffffffffffffffff00000000000000001667ffffffffffffffff9095169490941790935550604081015190919060028201906121939082615233565b5050507fc01483261a841a868b99cb8802faed4ea44a1a816651c4f7ee061a96a205fe98878787875f604051611ede95949392919061535f565b60605f6121da6005613927565b67ffffffffffffffff8111156121f2576121f2614801565b60405190808252806020026020018201604052801561224c57816020015b6122396040805160808101909152805f81526060602082018190525f6040830181905291015290565b8152602001906001900390816122105790505b5090505f5b61225b6005613927565b811015611ab85760075f612270600584613930565b73ffffffffffffffffffffffffffffffffffffffff168152602081019190915260409081015f208151608081019092528054829060ff1660058111156122b8576122b8614924565b60058111156122c9576122c9614924565b81526020016001820180546122dd90614d47565b80601f016020809104026020016040519081016040528092919081815260200182805461230990614d47565b80156123545780601f1061232b57610100808354040283529160200191612354565b820191905f5260205f20905b81548152906001019060200180831161233757829003601f168201915b5050509183525050600282015473ffffffffffffffffffffffffffffffffffffffff908116602083015260039092015490911660409091015282518390839081106123a1576123a1614d1a565b6020908102919091010152600101612251565b7f4675fa8241f86f37157864d3d49b85ad4b164352c516da28e1678a90470ae3005473ffffffffffffffffffffffffffffffffffffffff163314612426576040517f65f49065000000000000000000000000000000000000000000000000000000008152336004820152602401610cd2565b61242f816115a6565b612471576124716040518060400160405280601281526020017f4f50455241544f525f4e4f545f464f554e4400000000000000000000000000008152506138e2565b5f61247c6005613927565b90505f5b818110156125245773ffffffffffffffffffffffffffffffffffffffff831660075f6124ad600585613930565b73ffffffffffffffffffffffffffffffffffffffff908116825260208201929092526040015f2060030154160361251c5761251c6040518060400160405280600d81526020017f4f55545f4f465f424f554e4453000000000000000000000000000000000000008152506138e2565b600101612480565b50612530600883613f6b565b5060405173ffffffffffffffffffffffffffffffffffffffff8316907f80c0b871b97b595b16a7741c1b06fed0c6f6f558639f18ccbce50724325dc40d905f90a25050565b73ffffffffffffffffffffffffffffffffffffffff8082165f90815260076020526040902060030154829133911681146125e7576125e76040518060400160405280600881526020017f4241445f415554480000000000000000000000000000000000000000000000008152506138e2565b73ffffffffffffffffffffffffffffffffffffffff8381165f9081526007602052604090206002015416612653576126536040518060400160405280600e81526020017f4e4f44455f4e4f545f464f554e440000000000000000000000000000000000008152506138e2565b600573ffffffffffffffffffffffffffffffffffffffff84165f9081526007602052604090205460ff16600581111561268e5761268e614924565b146126d1576126d16040518060400160405280601681526020017f4e4f44455f53544154455f4e4f545f414c4c4f574544000000000000000000008152506138e2565b6126dc600584613f6b565b5073ffffffffffffffffffffffffffffffffffffffff83165f90815260076020526040812080547fffffffffffffffffffffffffffffffffffffffffffffffffffffffffffffff001681559061273560018301826142b6565b506002810180547fffffffffffffffffffffffff000000000000000000000000000000000000000090811690915560039091018054909116905560405173ffffffffffffffffffffffffffffffffffffffff8416907fcfc24166db4bb677e857cacabd1541fb2b30645021b27c5130419589b84db52b905f90a2505050565b335f8181526007602052604090206002015473ffffffffffffffffffffffffffffffffffffffff1661281e5761281e6040518060400160405280600e81526020017f4e4f44455f4e4f545f464f554e440000000000000000000000000000000000008152506138e2565b8361282881613e8c565b6128356080840184614e33565b61283f8282613ed9565b6128495f88613f60565b505f87815260026020526040902085906128638282615422565b50505f878152600460205260409020869055612886876112f26080880188614e33565b61289e600188876040516020016113cd92919061563c565b7fac1b69e6e0382c43def3cccabf63091ba47b5d8b10a705d16a1076668643fe4d878787604051611ede9392919061565c565b336128dd600d826138b1565b61291f5761291f6040518060400160405280600881526020017f4241445f415554480000000000000000000000000000000000000000000000008152506138e2565b5f838152600c602052604081208054825b81811015612aac578567ffffffffffffffff1683828154811061295557612955614d1a565b5f91825260209091206001600390920201015467ffffffffffffffff1603612aa4578261298360018461567a565b8154811061299357612993614d1a565b905f5260205f2090600302018382815481106129b1576129b1614d1a565b5f9182526020909120825460039092020190815560018083015490820180547fffffffffffffffffffffffffffffffffffffffffffffffff00000000000000001667ffffffffffffffff909216919091179055600280820190612a169084018261568d565b5090505082805480612a2a57612a2a6157b6565b5f8281526020812060037fffffffffffffffffffffffffffffffffffffffffffffffffffffffffffffffff909301928302018181556001810180547fffffffffffffffffffffffffffffffffffffffffffffffff000000000000000016905590612a9760028301826142b6565b5050905560019350612aac565b600101612930565b5082612af057612af06040518060400160405280600981526020017f4e4f545f464f554e4400000000000000000000000000000000000000000000008152506138e2565b6040805187815267ffffffffffffffff8716602082015260808183018190525f908201526001606082015290517fc01483261a841a868b99cb8802faed4ea44a1a816651c4f7ee061a96a205fe989181900360a00190a1505050505050565b7f59b501c3653afc186af7d48dda36cf6732bd21629a6295693664240a6ef5200054640100000000900460ff16612bb2576040517f77a399b800000000000000000000000000000000000000000000000000000000815260040160405180910390fd5b5f5b8181101561074b57612beb838383818110612bd157612bd1614d1a565b9050602002016020810190612be6919061436e565b6139f3565b600101612bb4565b5f610d9681613927565b7f4675fa8241f86f37157864d3d49b85ad4b164352c516da28e1678a90470ae3005473ffffffffffffffffffffffffffffffffffffffff163314612c6f576040517f65f49065000000000000000000000000000000000000000000000000000000008152336004820152602401610cd2565b610ce481613ae7565b73ffffffffffffffffffffffffffffffffffffffff81165f9081526010602052604081206115b290613927565b6060610d966005613f8c565b60605f80612cbe81613927565b9050838118818511028418858111868203025f8167ffffffffffffffff811115612cea57612cea614801565b604051908082528060200260200182016040528015612d2357816020015b612d106141ce565b815260200190600190039081612d085790505b5090505f5b82811015612e37575f828281518110612d4357612d43614d1a565b60209081029190910101519050612d5c5f8b8401613930565b8082525f90815260026020818152604092839020835160a08101855281548152600182015467ffffffffffffffff808216838601526801000000000000000082048116838801527001000000000000000000000000000000009091041660608201529281018054855181850281018501909652808652939491936080860193830182828015612e1f57602002820191905f5260205f20905b815473ffffffffffffffffffffffffffffffffffffffff168152600190910190602001808311612df4575b50505091909252505050602090910152600101612d28565b509450505083101590505b9250929050565b5f6115b28183613905565b5f6115b2600d836138b1565b6060610d966008613f8c565b81612e76816139a7565b335f8181526007602052604090206002015473ffffffffffffffffffffffffffffffffffffffff16612ee057612ee06040518060400160405280600e81526020017f4e4f44455f4e4f545f464f554e440000000000000000000000000000000000008152506138e2565b5f84815260026020818152604080842073ffffffffffffffffffffffffffffffffffffffff88168552601090925290922090820190612f1f908761391c565b5080545f90815b81811015613090578773ffffffffffffffffffffffffffffffffffffffff16848281548110612f5757612f57614d1a565b5f9182526020909120015473ffffffffffffffffffffffffffffffffffffffff16036130885783612f8960018461567a565b81548110612f9957612f99614d1a565b905f5260205f20015f9054906101000a900473ffffffffffffffffffffffffffffffffffffffff16848281548110612fd357612fd3614d1a565b905f5260205f20015f6101000a81548173ffffffffffffffffffffffffffffffffffffffff021916908373ffffffffffffffffffffffffffffffffffffffff16021790555083805480613028576130286157b6565b5f8281526020902081017fffffffffffffffffffffffffffffffffffffffffffffffffffffffffffffffff90810180547fffffffffffffffffffffffff000000000000000000000000000000000000000016905501905560019250613090565b600101612f26565b50816130d4576130d46040518060400160405280600e81526020017f4e4f44455f4e4f545f464f554e440000000000000000000000000000000000008152506138e2565b60018401805484547fffffffffffffffffffffffffffffffff0000000000000000ffffffffffffffff821660ff909116680100000000000000009283900467ffffffffffffff00161790910217905560405161313d906002906113cd908b908890602001614e97565b6040805189815273ffffffffffffffffffffffffffffffffffffffff891660208201525f8183015290517faaa473c28a5fe04b6a7ecd795826e462f9d0c23f00ef9f51ec02fa6ea418806f9181900360600190a15050505050505050565b336131a76008826138b1565b6131e9576131e96040518060400160405280600881526020017f4241445f415554480000000000000000000000000000000000000000000000008152506138e2565b73ffffffffffffffffffffffffffffffffffffffff8481165f908152600760205260409020600201541615613256576132566040518060400160405280600e81526020017f414c52454144595f4558495354530000000000000000000000000000000000008152506138e2565b5f604051806080016040528084600581111561327457613274614924565b81526020810186905273ffffffffffffffffffffffffffffffffffffffff871660408201523360609091015290506132ad600586613f98565b5073ffffffffffffffffffffffffffffffffffffffff85165f908152600760205260409020815181548392919082907fffffffffffffffffffffffffffffffffffffffffffffffffffffffffffffff0016600183600581111561331257613312614924565b02179055506020820151600182019061332b9082615233565b506040828101516002830180547fffffffffffffffffffffffff000000000000000000000000000000000000000090811673ffffffffffffffffffffffffffffffffffffffff938416179091556060909401516003909301805490941692811692909217909255905133918716907f759154d15a6aec80ceab7bc8820f46ebc53ad68bb18f47afb77483fea9dcc9ff906133c890889088906157e3565b60405180910390a35050505050565b5f6115b2600a83613905565b335f8181526007602052604090206002015473ffffffffffffffffffffffffffffffffffffffff1661344d5761344d6040518060400160405280600e81526020017f4e4f44455f4e4f545f464f554e440000000000000000000000000000000000008152506138e2565b815f819003613494576134946040518060400160405280600781526020017f4241445f415247000000000000000000000000000000000000000000000000008152506138e2565b5f8167ffffffffffffffff8111156134ae576134ae614801565b60405190808252806020026020018201604052801561351857816020015b6135056040518060a001604052805f81526020015f81526020015f81526020015f67ffffffffffffffff1681526020015f151581525090565b8152602001906001900390816134cc5790505b5090505f805b8381101561388f573687878381811061353957613539614d1a565b60a00291909101915061354f90505f8235613905565b6135db577f75460fe319331413a18a82d99b07735cec53fa0c4061ada38c2141e331082afa8135604083013561358b6080850160608601615804565b604080518082018252600981527f4e4f545f464f554e440000000000000000000000000000000000000000000000602082015290516135cd949392919061581f565b60405180910390a150613887565b80355f90815260026020526040902060018082015470010000000000000000000000000000000090041615613693577f75460fe319331413a18a82d99b07735cec53fa0c4061ada38c2141e331082afa823560408401356136426080860160608701615804565b604080518082018252600d81527f53545245414d5f5345414c45440000000000000000000000000000000000000060208201529051613684949392919061581f565b60405180910390a15050613887565b6136a36080830160608401615804565b600182015467ffffffffffffffff918216911610613735577f75460fe319331413a18a82d99b07735cec53fa0c4061ada38c2141e331082afa823560408401356136f36080860160608701615804565b604080518082018252600781527f4241445f4152470000000000000000000000000000000000000000000000000060208201529051613684949392919061581f565b600181015467ffffffffffffffff165f036137625781355f908152600360205260408120613762916142b6565b604082013581556137796080830160608401615804565b6001820180547fffffffffffffffffffffffffffffffffffffffffffffffff00000000000000001667ffffffffffffffff929092169190911790556137c460a083016080840161585c565b1561381e57600181810180547fffffffffffffffff0000000000000000ffffffffffffffffffffffffffffffff81167001000000000000000000000000000000009182900467ffffffffffffffff16909317029190911790555b61382d36839003830183615875565b858561383881614d92565b96508151811061384a5761384a614d1a565b60209081029190910101526138848235604084013561386f6080860160608701615804565b61387f60a087016080880161585c565b613fb9565b50505b60010161351e565b508082526138a96003836040516020016113cd91906158f0565b505050505050565b73ffffffffffffffffffffffffffffffffffffffff81165f90815260018301602052604081205415155b9392505050565b6308c379a06040820352602080820352601f19601f825101166044810160248303fd5b5f81815260018301602052604081205415156138db565b5f6138db8383614002565b5f6115b2825490565b5f6138db83836140e5565b80545f5b818110156139a157613998845f6010015f86858154811061396257613962614d1a565b5f91825260208083209091015473ffffffffffffffffffffffffffffffffffffffff168352820192909252604001902090613f60565b5060010161393f565b50505050565b6139b15f82613905565b610ce457610ce46040518060400160405280600981526020017f4e4f545f464f554e4400000000000000000000000000000000000000000000008152506138e2565b73ffffffffffffffffffffffffffffffffffffffff8116613a4c57613a4c6040518060400160405280600781526020017f4241445f415247000000000000000000000000000000000000000000000000008152506138e2565b613a55816115a6565b15613a9857613a986040518060400160405280600e81526020017f414c52454144595f4558495354530000000000000000000000000000000000008152506138e2565b613aa3600882613f98565b5060405173ffffffffffffffffffffffffffffffffffffffff8216907fac6fa858e9350a46cec16539926e0fde25b7629f84b5a72bffaae4df888ae86d905f90a250565b73ffffffffffffffffffffffffffffffffffffffff8116613b4057613b406040518060400160405280600781526020017f4241445f415247000000000000000000000000000000000000000000000000008152506138e2565b613b4b600d82613f98565b613b8d57613b8d6040518060400160405280600e81526020017f414c52454144595f4558495354530000000000000000000000000000000000008152506138e2565b60405173ffffffffffffffffffffffffffffffffffffffff8216907f7afd798379ae2d2e5035438544cea2b60eb1dde6a8128e6d447fd2a25f8825a2905f90a250565b5f826005811115613be357613be3614924565b1480613c5357506001826005811115613bfe57613bfe614924565b148015613c5357506003816005811115613c1a57613c1a614924565b1480613c3757506004816005811115613c3557613c35614924565b145b80613c5357506002816005811115613c5157613c51614924565b145b80613ca657506002826005811115613c6d57613c6d614924565b148015613ca657506003816005811115613c8957613c89614924565b1480613ca657506004816005811115613ca457613ca4614924565b145b80613cf957506004826005811115613cc057613cc0614924565b148015613cf957506003816005811115613cdc57613cdc614924565b1480613cf957506005816005811115613cf757613cf7614924565b145b80613d3157506003826005811115613d1357613d13614924565b148015613d3157506005816005811115613d2f57613d2f614924565b145b15613d3a575050565b613d786040518060400160405280601681526020017f4e4f44455f53544154455f4e4f545f414c4c4f574544000000000000000000008152506138e2565b5050565b80545f5b818110156139a157613dd9845f6010015f868581548110613da357613da3614d1a565b5f91825260208083209091015473ffffffffffffffffffffffffffffffffffffffff16835282019290925260400190209061391c565b50600101613d80565b5f5b818110156139a157613e458460105f868686818110613e0557613e05614d1a565b9050602002016020810190613e1a919061436e565b73ffffffffffffffffffffffffffffffffffffffff16815260208101919091526040015f2090613f60565b50600101613de4565b5f7f378ece20ebca29c2f887798617154658265a73d80c84fad8c9c49639ffdb29bb9050602082038051602082528483604086510184a29052505050565b613e965f82613905565b15610ce457610ce46040518060400160405280600e81526020017f414c52454144595f4558495354530000000000000000000000000000000000008152506138e2565b805f5b818110156139a157613f16848483818110613ef957613ef9614d1a565b9050602002016020810190613f0e919061436e565b6005906138b1565b613f5857613f586040518060400160405280600e81526020017f4e4f44455f4e4f545f464f554e440000000000000000000000000000000000008152506138e2565b600101613edc565b5f6138db838361410b565b5f6138db8373ffffffffffffffffffffffffffffffffffffffff8416614002565b60605f6138db83614157565b5f6138db8373ffffffffffffffffffffffffffffffffffffffff841661410b565b5f7fccc26bbb6dd655ea0bb8a40a3c30e35c6bdf42f8faf0d71bbea897af768cda8b9050604051855f528460205283604052826060528160805fa160405250505f606052505050565b5f81815260018301602052604081205480156140dc575f61402460018361567a565b85549091505f906140379060019061567a565b9050808214614096575f865f01828154811061405557614055614d1a565b905f5260205f200154905080875f01848154811061407557614075614d1a565b5f918252602080832090910192909255918252600188019052604090208390555b85548690806140a7576140a76157b6565b600190038181905f5260205f20015f90559055856001015f8681526020019081526020015f205f9055600193505050506115b2565b5f9150506115b2565b5f825f0182815481106140fa576140fa614d1a565b905f5260205f200154905092915050565b5f81815260018301602052604081205461415057508154600181810184555f8481526020808220909301849055845484825282860190935260409020919091556115b2565b505f6115b2565b6060815f018054806020026020016040519081016040528092919081815260200182805480156141a457602002820191905f5260205f20905b815481526020019060010190808311614190575b50505050509050919050565b5080545f8255600302905f5260205f2090810190610ce491906142ed565b60405180604001604052805f815260200161422b6040518060a001604052805f81526020015f67ffffffffffffffff1681526020015f67ffffffffffffffff1681526020015f67ffffffffffffffff168152602001606081525090565b905290565b828054828255905f5260205f209081019282156142a6579160200282015b828111156142a65781547fffffffffffffffffffffffff00000000000000000000000000000000000000001673ffffffffffffffffffffffffffffffffffffffff84351617825560209092019160019091019061424e565b506142b2929150614339565b5090565b5080546142c290614d47565b5f825580601f106142d1575050565b601f0160209004905f5260205f2090810190610ce49190614339565b808211156142b2575f8082556001820180547fffffffffffffffffffffffffffffffffffffffffffffffff000000000000000016905561433060028301826142b6565b506003016142ed565b5b808211156142b2575f815560010161433a565b73ffffffffffffffffffffffffffffffffffffffff81168114610ce4575f5ffd5b5f6020828403121561437e575f5ffd5b81356138db8161434d565b5f60208284031215614399575f5ffd5b5035919050565b5f5f604083850312156143b1575f5ffd5b50508035926020909101359150565b5f81518084528060208401602086015e5f6020828601015260207fffffffffffffffffffffffffffffffffffffffffffffffffffffffffffffffe0601f83011685010191505092915050565b5f602082016020835280845180835260408501915060408160051b8601019250602086015f5b828110156144ac577fffffffffffffffffffffffffffffffffffffffffffffffffffffffffffffffc087860301845281518051865267ffffffffffffffff6020820151166020870152604081015190506060604087015261449660608701826143c0565b9550506020938401939190910190600101614432565b50929695505050505050565b5f60a083018251845267ffffffffffffffff602084015116602085015267ffffffffffffffff604084015116604085015267ffffffffffffffff6060840151166060850152608083015160a0608086015281815180845260c0870191506020830193505f92505b808310156145585773ffffffffffffffffffffffffffffffffffffffff845116825260208201915060208401935060018301925061451f565b5095945050505050565b602081525f6138db60208301846144b8565b5f5f5f60608486031215614586575f5ffd5b83356145918161434d565b95602085013595506040909401359392505050565b5f82825180855260208501945060208160051b830101602085015f5b83811015614629577fffffffffffffffffffffffffffffffffffffffffffffffffffffffffffffffe0858403018852815180518452602081015190506040602085015261461260408501826144b8565b6020998a01999094509290920191506001016145c2565b50909695505050505050565b602081525f6138db60208301846145a6565b5f5f83601f840112614657575f5ffd5b50813567ffffffffffffffff81111561466e575f5ffd5b6020830191508360208260051b8501011115612e42575f5ffd5b5f5f60208385031215614699575f5ffd5b823567ffffffffffffffff8111156146af575f5ffd5b6146bb85828601614647565b90969095509350505050565b606081525f6146d960608301866144b8565b84602084015282810360408401526146f181856143c0565b9695505050505050565b803560068110614709575f5ffd5b919050565b5f5f6040838503121561471f575f5ffd5b823561472a8161434d565b9150614738602084016146fb565b90509250929050565b5f5f83601f840112614751575f5ffd5b50813567ffffffffffffffff811115614768575f5ffd5b602083019150836020828501011115612e42575f5ffd5b5f5f5f5f5f5f60808789031215614794575f5ffd5b86359550602087013567ffffffffffffffff8111156147b1575f5ffd5b6147bd89828a01614647565b90965094505060408701359250606087013567ffffffffffffffff8111156147e3575f5ffd5b6147ef89828a01614741565b979a9699509497509295939492505050565b7f4e487b71000000000000000000000000000000000000000000000000000000005f52604160045260245ffd5b5f82601f83011261483d575f5ffd5b813567ffffffffffffffff81111561485757614857614801565b604051601f82017fffffffffffffffffffffffffffffffffffffffffffffffffffffffffffffffe0908116603f0116810167ffffffffffffffff811182821017156148a4576148a4614801565b6040528181528382016020018510156148bb575f5ffd5b816020850160208301375f918101602001919091529392505050565b5f5f604083850312156148e8575f5ffd5b82356148f38161434d565b9150602083013567ffffffffffffffff81111561490e575f5ffd5b61491a8582860161482e565b9150509250929050565b7f4e487b71000000000000000000000000000000000000000000000000000000005f52602160045260245ffd5b60068110614986577f4e487b71000000000000000000000000000000000000000000000000000000005f52602160045260245ffd5b9052565b614995828251614951565b5f6020820151608060208501526149af60808501826143c0565b905073ffffffffffffffffffffffffffffffffffffffff604084015116604085015273ffffffffffffffffffffffffffffffffffffffff60608401511660608501528091505092915050565b602081525f6138db602083018461498a565b5f5f60408385031215614a1e575f5ffd5b823591506020830135614a308161434d565b809150509250929050565b67ffffffffffffffff81168114610ce4575f5ffd5b5f5f5f5f60608587031215614a63575f5ffd5b843593506020850135614a7581614a3b565b9250604085013567ffffffffffffffff811115614a90575f5ffd5b614a9c87828801614741565b95989497509550505050565b5f602082016020835280845180835260408501915060408160051b8601019250602086015f5b828110156144ac577fffffffffffffffffffffffffffffffffffffffffffffffffffffffffffffffc0878603018452614b0885835161498a565b94506020938401939190910190600101614ace565b5f5f5f60608486031215614b2f575f5ffd5b8335925060208401359150604084013567ffffffffffffffff811115614b53575f5ffd5b840160a08187031215614b64575f5ffd5b809150509250925092565b5f5f60408385031215614b80575f5ffd5b823591506020830135614a3081614a3b565b602080825282518282018190525f918401906040840190835b81811015614bdf57835173ffffffffffffffffffffffffffffffffffffffff16835260209384019390920191600101614bab565b509095945050505050565b604081525f614bfc60408301856145a6565b905082151560208301529392505050565b5f5f5f60608486031215614c1f575f5ffd5b8335614c2a8161434d565b9250602084013567ffffffffffffffff811115614c45575f5ffd5b614c518682870161482e565b925050614c60604085016146fb565b90509250925092565b5f5f60208385031215614c7a575f5ffd5b823567ffffffffffffffff811115614c90575f5ffd5b8301601f81018513614ca0575f5ffd5b803567ffffffffffffffff811115614cb6575f5ffd5b85602060a083028401011115614cca575f5ffd5b6020919091019590945092505050565b7f4e487b71000000000000000000000000000000000000000000000000000000005f52601160045260245ffd5b808201808211156115b2576115b2614cda565b7f4e487b71000000000000000000000000000000000000000000000000000000005f52603260045260245ffd5b600181811c90821680614d5b57607f821691505b602082108103611ab8577f4e487b71000000000000000000000000000000000000000000000000000000005f52602260045260245ffd5b5f7fffffffffffffffffffffffffffffffffffffffffffffffffffffffffffffffff8203614dc257614dc2614cda565b5060010190565b602081016115b28284614951565b5f82357fffffffffffffffffffffffffffffffffffffffffffffffffffffffffffffffa1833603018112614e09575f5ffd5b9190910192915050565b5f60208284031215614e23575f5ffd5b813560ff811681146138db575f5ffd5b5f5f83357fffffffffffffffffffffffffffffffffffffffffffffffffffffffffffffffe1843603018112614e66575f5ffd5b83018035915067ffffffffffffffff821115614e80575f5ffd5b6020019150600581901b3603821315612e42575f5ffd5b828152604060208201525f60e0820183546040840152600184015467ffffffffffffffff8116606085015267ffffffffffffffff8160401c16608085015267ffffffffffffffff8160801c1660a0850152506002840160a060c085015281815480845261010086019150825f5260205f2093505f92505b80831015614f475773ffffffffffffffffffffffffffffffffffffffff8454168252602082019150600184019350600183019250614f0e565b509695505050505050565b5b81811015613d78575f8155600101614f53565b601f82111561074b57805f5260205f20601f840160051c81016020851015614f8b5750805b6113eb601f850160051c830182614f52565b67ffffffffffffffff831115614fb557614fb5614801565b614fc983614fc38354614d47565b83614f66565b5f601f841160018114615019575f8515614fe35750838201355b7fffffffffffffffffffffffffffffffffffffffffffffffffffffffffffffffff600387901b1c1916600186901b1783556113eb565b5f838152602081207fffffffffffffffffffffffffffffffffffffffffffffffffffffffffffffffe08716915b828110156150665786850135825560209485019460019092019101615046565b50868210156150a1577fffffffffffffffffffffffffffffffffffffffffffffffffffffffffffffffff60f88860031b161c19848701351681555b505060018560011b0183555050505050565b8183526020830192505f815f5b848110156150fe5781356150d38161434d565b73ffffffffffffffffffffffffffffffffffffffff16865260209586019591909101906001016150c0565b5093949350505050565b81835281816020850137505f602082840101525f60207fffffffffffffffffffffffffffffffffffffffffffffffffffffffffffffffe0601f840116840101905092915050565b868152608060208201525f6151686080830187896150b3565b8560408401528281036060840152615181818587615108565b9998505050505050505050565b5f82518060208501845e5f920191825250919050565b5f5f83546151b181614d47565b6001821680156151c857600181146151fb57615228565b7fffffffffffffffffffffffffffffffffffffffffffffffffffffffffffffff0083168652811515820286019350615228565b865f5260205f205f5b8381101561522057815488820152600190910190602001615204565b505081860193505b509195945050505050565b815167ffffffffffffffff81111561524d5761524d614801565b6152618161525b8454614d47565b84614f66565b6020601f8211600181146152b5575f831561527c5750848201515b600184901b7fffffffffffffffffffffffffffffffffffffffffffffffffffffffffffffffff600386901b1c198216175b8555506113eb565b5f848152602081207fffffffffffffffffffffffffffffffffffffffffffffffffffffffffffffffe08516915b8281101561530257878501518255602094850194600190920191016152e2565b508482101561533e57868401517fffffffffffffffffffffffffffffffffffffffffffffffffffffffffffffffff600387901b60f8161c191681555b50505050600190811b01905550565b602081525f6138db60208301846143c0565b85815267ffffffffffffffff85166020820152608060408201525f615388608083018587615108565b905082151560608301529695505050505050565b67ffffffffffffffff8311156153b4576153b4614801565b680100000000000000008311156153cd576153cd614801565b8054838255808410156153f157815f5260205f206153ef828201868301614f52565b505b5081815f5260205f205f5b858110156138a957823561540f8161434d565b82820155602092909201916001016153fc565b8135815560018101602083013561543881614a3b565b8154604085013561544881614a3b565b6fffffffffffffffff00000000000000008160401b1667ffffffffffffffff84167fffffffffffffffffffffffffffffffff000000000000000000000000000000008416171784555050505f60608401356154a281614a3b565b82547fffffffffffffffff0000000000000000ffffffffffffffffffffffffffffffff16608091821b77ffffffffffffffff000000000000000000000000000000001617909255505f908190840135368590037fffffffffffffffffffffffffffffffffffffffffffffffffffffffffffffffe1018112615521575f5ffd5b84018035915067ffffffffffffffff82111561553b575f5ffd5b6020019150600581901b3603821315615552575f5ffd5b6139a181836002860161539c565b803582525f602082013561557381614a3b565b67ffffffffffffffff166020840152604082013561559081614a3b565b67ffffffffffffffff16604084015260608201356155ad81614a3b565b67ffffffffffffffff1660608401526080820135368390037fffffffffffffffffffffffffffffffffffffffffffffffffffffffffffffffe10181126155f1575f5ffd5b820160208101903567ffffffffffffffff81111561560d575f5ffd5b8060051b360382131561561e575f5ffd5b60a0608086015261563360a0860182846150b3565b95945050505050565b828152604060208201525f6156546040830184615560565b949350505050565b838152826020820152606060408201525f6156336060830184615560565b818103818111156115b2576115b2614cda565b818103615698575050565b6156a28254614d47565b67ffffffffffffffff8111156156ba576156ba614801565b6156c88161525b8454614d47565b5f601f821160018114615716575f831561527c575081850154600184901b7fffffffffffffffffffffffffffffffffffffffffffffffffffffffffffffffff600386901b1c198216176152ad565b5f85815260208082208683529082207fffffffffffffffffffffffffffffffffffffffffffffffffffffffffffffffe08616925b8381101561576a578286015482556001958601959091019060200161574a565b50858310156157a657818501547fffffffffffffffffffffffffffffffffffffffffffffffffffffffffffffffff600388901b60f8161c191681555b5050505050600190811b01905550565b7f4e487b71000000000000000000000000000000000000000000000000000000005f52603160045260245ffd5b604081525f6157f560408301856143c0565b90506138db6020830184614951565b5f60208284031215615814575f5ffd5b81356138db81614a3b565b84815283602082015267ffffffffffffffff83166040820152608060608201525f6146f160808301846143c0565b80358015158114614709575f5ffd5b5f6020828403121561586c575f5ffd5b6138db8261584d565b5f60a0828403128015615886575f5ffd5b5060405160a0810167ffffffffffffffff811182821017156158aa576158aa614801565b60409081528335825260208085013590830152838101359082015260608301356158d381614a3b565b60608201526158e46080840161584d565b60808201529392505050565b602080825282518282018190525f918401906040840190835b81811015614bdf57835180518452602081015160208501526040810151604085015267ffffffffffffffff60608201511660608501526080810151151560808501525060a083019250602084019350600181019050615909564675fa8241f86f37157864d3d49b85ad4b164352c516da28e1678a90470ae300","linkReferences":{}},"methodIdentifiers":{"__OperatorRegistry_init(address[])":"ba428b1a","__RiverConfig_init(address[])":"31374511","addStream(bytes32,bytes32,(bytes32,uint64,uint64,uint64,address[]))":"b2e76b8e","allocateStream(bytes32,address[],bytes32,bytes)":"6b883c39","approveConfigurationManager(address)":"c179b85f","approveOperator(address)":"242cae9f","configurationExists(bytes32)":"fc207c01","deleteConfiguration(bytes32)":"035759e1","deleteConfigurationOnBlock(bytes32,uint64)":"b7f227ee","getAllConfiguration()":"081814db","getAllNodeAddresses()":"c8fe3a01","getAllNodes()":"a1174e7d","getAllOperators()":"d911c632","getConfiguration(bytes32)":"9283ae3a","getNode(address)":"9d209048","getNodeCount()":"39bf397e","getPaginatedStreams(uint256,uint256)":"ca78c41a","getPaginatedStreamsOnNode(address,uint256,uint256)":"22bbda64","getStream(bytes32)":"1290abe8","getStreamCount()":"c0f22084","getStreamCountOnNode(address)":"c87d1324","getStreamWithGenesis(bytes32)":"3c2544d1","isConfigurationManager(address)":"d4bd44a0","isNode(address)":"01750152","isOperator(address)":"6d70f7ae","isStream(bytes32)":"d0c27c4f","placeStreamOnNode(bytes32,address)":"9ee86d38","registerNode(address,string,uint8)":"eecc66f4","removeConfigurationManager(address)":"813049ec","removeNode(address)":"b2b99ec9","removeOperator(address)":"ac8a584a","removeStreamFromNode(bytes32,address)":"ee885b12","setConfiguration(bytes32,uint64,bytes)":"a09449a6","setStreamLastMiniblockBatch((bytes32,bytes32,bytes32,uint64,bool)[])":"ff3a14ab","setStreamReplicationFactor((bytes32,address[],uint8)[])":"5c665ce9","syncNodesOnStreams(uint256,uint256)":"03cc8793","updateNodeStatus(address,uint8)":"581f8b9b","updateNodeUrl(address,string)":"7e4465e7"},"id":89}