{"abi":[{"type":"constructor","inputs":[{"name":"approvedOperators","type":"address[]","internalType":"address[]"}],"stateMutability":"nonpayable"},{"type":"function","name":"__RiverRegistry_init","inputs":[{"name":"approvedOperators","type":"address[]","internalType":"address[]"}],"outputs":[],"stateMutability":"nonpayable"},{"type":"function","name":"allocateStream","inputs":[{"name":"streamId","type":"bytes32","internalType":"bytes32"},{"name":"nodes","type":"address[]","internalType":"address[]"},{"name":"genesisMiniblockHash","type":"bytes32","internalType":"bytes32"},{"name":"genesisMiniblock","type":"bytes","internalType":"bytes"}],"outputs":[],"stateMutability":"nonpayable"},{"type":"function","name":"approveOperator","inputs":[{"name":"operator","type":"address","internalType":"address"}],"outputs":[],"stateMutability":"nonpayable"},{"type":"function","name":"getAllNodeAddresses","inputs":[],"outputs":[{"name":"","type":"address[]","internalType":"address[]"}],"stateMutability":"view"},{"type":"function","name":"getAllNodes","inputs":[],"outputs":[{"name":"","type":"tuple[]","internalType":"struct IRiverRegistryBase.Node[]","components":[{"name":"nodeAddress","type":"address","internalType":"address"},{"name":"url","type":"string","internalType":"string"},{"name":"status","type":"uint8","internalType":"enum IRiverRegistryBase.NodeStatus"}]}],"stateMutability":"view"},{"type":"function","name":"getAllStreamIds","inputs":[],"outputs":[{"name":"","type":"bytes32[]","internalType":"bytes32[]"}],"stateMutability":"view"},{"type":"function","name":"getAllStreams","inputs":[],"outputs":[{"name":"","type":"tuple[]","internalType":"struct IRiverRegistryBase.StreamWithId[]","components":[{"name":"id","type":"bytes32","internalType":"bytes32"},{"name":"stream","type":"tuple","internalType":"struct IRiverRegistryBase.Stream","components":[{"name":"lastMiniblockHash","type":"bytes32","internalType":"bytes32"},{"name":"lastMiniblockNum","type":"uint64","internalType":"uint64"},{"name":"flags","type":"uint64","internalType":"uint64"},{"name":"reserved0","type":"uint64","internalType":"uint64"},{"name":"reserved1","type":"uint64","internalType":"uint64"},{"name":"nodes","type":"address[]","internalType":"address[]"}]}]}],"stateMutability":"view"},{"type":"function","name":"getNode","inputs":[{"name":"nodeAddress","type":"address","internalType":"address"}],"outputs":[{"name":"","type":"tuple","internalType":"struct IRiverRegistryBase.Node","components":[{"name":"nodeAddress","type":"address","internalType":"address"},{"name":"url","type":"string","internalType":"string"},{"name":"status","type":"uint8","internalType":"enum IRiverRegistryBase.NodeStatus"}]}],"stateMutability":"view"},{"type":"function","name":"getNodeCount","inputs":[],"outputs":[{"name":"","type":"uint256","internalType":"uint256"}],"stateMutability":"view"},{"type":"function","name":"getStream","inputs":[{"name":"streamId","type":"bytes32","internalType":"bytes32"}],"outputs":[{"name":"","type":"tuple","internalType":"struct IRiverRegistryBase.Stream","components":[{"name":"lastMiniblockHash","type":"bytes32","internalType":"bytes32"},{"name":"lastMiniblockNum","type":"uint64","internalType":"uint64"},{"name":"flags","type":"uint64","internalType":"uint64"},{"name":"reserved0","type":"uint64","internalType":"uint64"},{"name":"reserved1","type":"uint64","internalType":"uint64"},{"name":"nodes","type":"address[]","internalType":"address[]"}]}],"stateMutability":"view"},{"type":"function","name":"getStreamCount","inputs":[],"outputs":[{"name":"","type":"uint256","internalType":"uint256"}],"stateMutability":"view"},{"type":"function","name":"getStreamWithGenesis","inputs":[{"name":"streamId","type":"bytes32","internalType":"bytes32"}],"outputs":[{"name":"","type":"tuple","internalType":"struct IRiverRegistryBase.Stream","components":[{"name":"lastMiniblockHash","type":"bytes32","internalType":"bytes32"},{"name":"lastMiniblockNum","type":"uint64","internalType":"uint64"},{"name":"flags","type":"uint64","internalType":"uint64"},{"name":"reserved0","type":"uint64","internalType":"uint64"},{"name":"reserved1","type":"uint64","internalType":"uint64"},{"name":"nodes","type":"address[]","internalType":"address[]"}]},{"name":"","type":"bytes32","internalType":"bytes32"},{"name":"","type":"bytes","internalType":"bytes"}],"stateMutability":"view"},{"type":"function","name":"isOperator","inputs":[{"name":"operator","type":"address","internalType":"address"}],"outputs":[{"name":"","type":"bool","internalType":"bool"}],"stateMutability":"view"},{"type":"function","name":"placeStreamOnNode","inputs":[{"name":"streamId","type":"bytes32","internalType":"bytes32"},{"name":"nodeAddress","type":"address","internalType":"address"}],"outputs":[],"stateMutability":"nonpayable"},{"type":"function","name":"registerNode","inputs":[{"name":"nodeAddress","type":"address","internalType":"address"},{"name":"url","type":"string","internalType":"string"}],"outputs":[],"stateMutability":"nonpayable"},{"type":"function","name":"removeOperator","inputs":[{"name":"operator","type":"address","internalType":"address"}],"outputs":[],"stateMutability":"nonpayable"},{"type":"function","name":"removeStreamFromNode","inputs":[{"name":"streamId","type":"bytes32","internalType":"bytes32"},{"name":"nodeAddress","type":"address","internalType":"address"}],"outputs":[],"stateMutability":"nonpayable"},{"type":"function","name":"setStreamLastMiniblock","inputs":[{"name":"streamId","type":"bytes32","internalType":"bytes32"},{"name":"lastMiniblockHash","type":"bytes32","internalType":"bytes32"},{"name":"lastMiniblockNum","type":"uint64","internalType":"uint64"},{"name":"isSealed","type":"bool","internalType":"bool"}],"outputs":[],"stateMutability":"nonpayable"},{"type":"function","name":"updateNodeStatus","inputs":[{"name":"status","type":"uint8","internalType":"enum IRiverRegistryBase.NodeStatus"}],"outputs":[],"stateMutability":"nonpayable"},{"type":"function","name":"updateNodeUrl","inputs":[{"name":"url","type":"string","internalType":"string"}],"outputs":[],"stateMutability":"nonpayable"},{"type":"event","name":"Initialized","inputs":[{"name":"version","type":"uint32","indexed":false,"internalType":"uint32"}],"anonymous":false},{"type":"event","name":"InterfaceAdded","inputs":[{"name":"interfaceId","type":"bytes4","indexed":true,"internalType":"bytes4"}],"anonymous":false},{"type":"event","name":"InterfaceRemoved","inputs":[{"name":"interfaceId","type":"bytes4","indexed":true,"internalType":"bytes4"}],"anonymous":false},{"type":"event","name":"NodeAdded","inputs":[{"name":"nodeAddress","type":"address","indexed":true,"internalType":"address"},{"name":"url","type":"string","indexed":false,"internalType":"string"},{"name":"status","type":"uint8","indexed":false,"internalType":"enum IRiverRegistryBase.NodeStatus"}],"anonymous":false},{"type":"event","name":"NodeStatusUpdated","inputs":[{"name":"nodeAddress","type":"address","indexed":true,"internalType":"address"},{"name":"status","type":"uint8","indexed":false,"internalType":"enum IRiverRegistryBase.NodeStatus"}],"anonymous":false},{"type":"event","name":"NodeUrlUpdated","inputs":[{"name":"nodeAddress","type":"address","indexed":true,"internalType":"address"},{"name":"url","type":"string","indexed":false,"internalType":"string"}],"anonymous":false},{"type":"event","name":"OperatorAdded","inputs":[{"name":"operatorAddress","type":"address","indexed":true,"internalType":"address"}],"anonymous":false},{"type":"event","name":"OperatorRemoved","inputs":[{"name":"operatorAddress","type":"address","indexed":true,"internalType":"address"}],"anonymous":false},{"type":"event","name":"OwnershipTransferred","inputs":[{"name":"previousOwner","type":"address","indexed":true,"internalType":"address"},{"name":"newOwner","type":"address","indexed":true,"internalType":"address"}],"anonymous":false},{"type":"event","name":"StreamAllocated","inputs":[{"name":"streamId","type":"bytes32","indexed":false,"internalType":"bytes32"},{"name":"nodes","type":"address[]","indexed":false,"internalType":"address[]"},{"name":"genesisMiniblockHash","type":"bytes32","indexed":false,"internalType":"bytes32"}],"anonymous":false},{"type":"event","name":"StreamLastMiniblockUpdated","inputs":[{"name":"streamId","type":"bytes32","indexed":false,"internalType":"bytes32"},{"name":"lastMiniblockHash","type":"bytes32","indexed":false,"internalType":"bytes32"},{"name":"lastMiniblockNum","type":"uint64","indexed":false,"internalType":"uint64"},{"name":"isSealed","type":"bool","indexed":false,"internalType":"bool"}],"anonymous":false},{"type":"event","name":"StreamPlacementUpdated","inputs":[{"name":"streamId","type":"bytes32","indexed":false,"internalType":"bytes32"},{"name":"nodeAddress","type":"address","indexed":false,"internalType":"address"},{"name":"isAdded","type":"bool","indexed":false,"internalType":"bool"}],"anonymous":false},{"type":"error","name":"Initializable_InInitializingState","inputs":[]},{"type":"error","name":"Initializable_NotInInitializingState","inputs":[]},{"type":"error","name":"Introspection_AlreadySupported","inputs":[]},{"type":"error","name":"Introspection_NotSupported","inputs":[]},{"type":"error","name":"Ownable__NotOwner","inputs":[{"name":"account","type":"address","internalType":"address"}]},{"type":"error","name":"Ownable__ZeroAddress","inputs":[]}],"bytecode":{"object":"0x60806040523480156200001157600080fd5b5060405162002b8d38038062002b8d8339810160408190526200003491620002c5565b6200003e6200005b565b620000498162000103565b620000543362000174565b50620003ad565b7f2d0d21306acfe8e9bb163a4573e95aff6cef95dc1102c6a16d5f19eac08cc4de8054640100000000900460ff1615620000a8576040516366008a2d60e01b815260040160405180910390fd5b805463ffffffff90811610156200010057805463ffffffff191663ffffffff90811782556040519081527fe9c9b456cb2994b80aeef036cf59d26e9617df80f816a6ee5a5b4166e07e2f5c9060200160405180910390a15b50565b7f1320bfade83d725f4918cce6752986eeef865fd566a9348c57c798b58dfc7ea660005b82518110156200016f57620001658382815181106200014a576200014a62000397565b6020026020010151836008016200022060201b90919060201c565b5060010162000127565b505050565b60006200019760008051602062002b6d833981519152546001600160a01b031690565b90506001600160a01b038216620001c157604051634e3ef82560e01b815260040160405180910390fd5b8160008051602062002b6d83398151915280546001600160a01b0319166001600160a01b03928316179055604051838216918316907f8be0079c531659141344cd1fd0a4f28419497f9722a3daafe3b4186f6b6457e090600090a35050565b600062000237836001600160a01b03841662000240565b90505b92915050565b600081815260018301602052604081205462000289575081546001818101845560008481526020808220909301849055845484825282860190935260409020919091556200023a565b5060006200023a565b634e487b7160e01b600052604160045260246000fd5b80516001600160a01b0381168114620002c057600080fd5b919050565b60006020808385031215620002d957600080fd5b82516001600160401b0380821115620002f157600080fd5b818501915085601f8301126200030657600080fd5b8151818111156200031b576200031b62000292565b8060051b604051601f19603f8301168101818110858211171562000343576200034362000292565b6040529182528482019250838101850191888311156200036257600080fd5b938501935b828510156200038b576200037b85620002a8565b8452938501939285019262000367565b98975050505050505050565b634e487b7160e01b600052603260045260246000fd5b6127b080620003bd6000396000f3fe608060405234801561001057600080fd5b506004361061012c5760003560e01c806386789fc6116100ad578063bb9b342d11610071578063bb9b342d1461029b578063be6522d6146102ae578063c0f22084146102c1578063c8fe3a01146102c9578063ee885b12146102de57600080fd5b806386789fc61461022b5780639d209048146102405780639ee86d3814610260578063a1174e7d14610273578063ac8a584a1461028857600080fd5b80633c2544d1116100f45780633c2544d1146101ad578063681a8d67146101cf5780636b883c39146101e25780636d70f7ae146101f55780637691f5ed1461021857600080fd5b80631290abe814610131578063242cae9f1461015a578063286af2531461016f57806339bf397e146101825780633bd84c0c14610198575b600080fd5b61014461013f366004611ed5565b6102f1565b6040516101519190611f8b565b60405180910390f35b61016d610168366004611fba565b610418565b005b61016d61017d3660046120a1565b610547565b61018a61059d565b604051908152602001610151565b6101a06105b7565b60405161015191906120dd565b6101c06101bb366004611ed5565b610745565b60405161015193929190612199565b61016d6101dd3660046121ce565b610916565b61016d6101f0366004612280565b610b5c565b610208610203366004611fba565b610dd3565b6040519015158152602001610151565b61016d61022636600461230a565b610df0565b610233610ebd565b604051610151919061232b565b61025361024e366004611fba565b610eda565b60405161015191906123ea565b61016d61026e3660046123fd565b61103b565b61027b6111f0565b6040516101519190612429565b61016d610296366004611fba565b6113a7565b61016d6102a93660046124ad565b6114fa565b61016d6102bc3660046124fa565b6116a6565b61018a611751565b6102d1611763565b6040516101519190612573565b61016d6102ec3660046123fd565b61177d565b6102f9611d96565b60006103036119c8565b905061030f81846119ec565b6103535760408051808201825260098152681393d517d193d5539160ba1b6020820152905162461bcd60e51b815261034a9190600401612586565b60405180910390fd5b600083815260028083016020908152604092839020835160c0810185528154815260018201546001600160401b0380821683860152600160401b8204811683880152600160801b820481166060840152600160c01b90910416608082015292810180548551818502810185019096528086529394919360a086019383018282801561040757602002820191906000526020600020905b81546001600160a01b031681526001909101906020018083116103e9575b505050505081525050915050919050565b7fa7c3be20e3a76821507555109752fad8a6630ef0362a34dcfcdfef83c99a2537546001600160a01b03163314610464576040516365f4906560e01b815233600482015260240161034a565b6001600160a01b0381166104a75760408051808201825260078152664241445f41524760c81b6020820152905162461bcd60e51b815261034a9190600401612586565b60006104b16119c8565b90506104c06008820183611a07565b1561050157604080518082018252600e81526d414c52454144595f45584953545360901b6020820152905162461bcd60e51b815261034a9190600401612586565b61050e6008820183611a29565b506040516001600160a01b038316907fac6fa858e9350a46cec16539926e0fde25b7629f84b5a72bffaae4df888ae86d90600090a25050565b7f2d0d21306acfe8e9bb163a4573e95aff6cef95dc1102c6a16d5f19eac08cc4de54640100000000900460ff1661059157604051630ef4733760e31b815260040160405180910390fd5b61059a81611a3e565b50565b60006105b26105aa6119c8565b600501611a57565b905090565b606060006105c36119c8565b905060006105d082611a57565b6001600160401b038111156105e7576105e7611fd5565b60405190808252806020026020018201604052801561062057816020015b61060d611dcd565b8152602001906001900390816106055790505b50905060005b61062f83611a57565b81101561073e5760006106428483611a61565b60408051808201825282815260008381526002808901602090815291849020845160c0810186528154815260018201546001600160401b0380821683870152600160401b8204811683890152600160801b820481166060840152600160c01b90910416608082015291810180548651818602810186019097528087529697509395838701959294919360a086019392919083018282801561070c57602002820191906000526020600020905b81546001600160a01b031681526001909101906020018083116106ee575b50505050508152505081525083838151811061072a5761072a612599565b602090810291909101015250600101610626565b5092915050565b61074d611d96565b60006060600061075b6119c8565b905061076781866119ec565b6107a25760408051808201825260098152681393d517d193d5539160ba1b6020820152905162461bcd60e51b815261034a9190600401612586565b60008581526002808301602090815260408084206004860183528185205460038701845294829020825160c0810184528254815260018301546001600160401b0380821683880152600160401b8204811683870152600160801b820481166060840152600160c01b909104166080820152948201805484518187028101870190955280855292969591949193879360a086019391929183018282801561087157602002820191906000526020600020905b81546001600160a01b03168152600190910190602001808311610853575b5050505050815250509250808054610888906125af565b80601f01602080910402602001604051908101604052809291908181526020018280546108b4906125af565b80156109015780601f106108d657610100808354040283529160200191610901565b820191906000526020600020905b8154815290600101906020018083116108e457829003601f168201915b50505050509050935093509350509193909250565b61092b336109226119c8565b60050190611a07565b6109655760408051808201825260088152670848288be82aaa8960c31b6020820152905162461bcd60e51b815261034a9190600401612586565b600061096f6119c8565b905061097b81866119ec565b6109b65760408051808201825260098152681393d517d193d5539160ba1b6020820152905162461bcd60e51b815261034a9190600401612586565b60008581526002820160205260409020600180820154600160401b90041615610a1457604080518082018252600d81526c14d51491505357d4d150531151609a1b6020820152905162461bcd60e51b815261034a9190600401612586565b6001808201546001600160401b0380871692610a3392909116906125ff565b6001600160401b031614610a765760408051808201825260078152664241445f41524760c81b6020820152905162461bcd60e51b815261034a9190600401612586565b84815560018101805467ffffffffffffffff19166001600160401b0386161790558215610ad557600181810180546fffffffffffffffff0000000000000000198116600160401b918290046001600160401b0316909317029190911790555b836001600160401b0316600103610aff5760008681526003830160205260408120610aff91611dec565b60408051878152602081018790526001600160401b0386169181019190915283151560608201527fccc26bbb6dd655ea0bb8a40a3c30e35c6bdf42f8faf0d71bbea897af768cda8b906080015b60405180910390a1505050505050565b610b68336109226119c8565b610ba25760408051808201825260088152670848288be82aaa8960c31b6020820152905162461bcd60e51b815261034a9190600401612586565b6000610bac6119c8565b9050610bb881866119ec565b15610bf957604080518082018252600e81526d414c52454144595f45584953545360901b6020820152905162461bcd60e51b815261034a9190600401612586565b60005b8451811015610c7c57610c34858281518110610c1a57610c1a612599565b602002602001015183600501611a0790919063ffffffff16565b610c7457604080518082018252600e81526d1393d11157d393d517d193d5539160921b6020820152905162461bcd60e51b815261034a9190600401612586565b600101610bfc565b506040805160c08101825284815260006020820181905291810182905260608101829052608081019190915260a08101859052610cb98287611a6d565b50600086815260028084016020908152604092839020845181558185015160018201805495870151606088015160808901516001600160401b03908116600160c01b026001600160c01b03928216600160801b02929092166fffffffffffffffffffffffffffffffff938216600160401b026fffffffffffffffffffffffffffffffff19909a1691909516179790971716919091179490941790935560a08401518051859493610d6e93908501920190611e26565b50505060008681526003830160205260409020610d8b848261266f565b50600086815260048301602052604090819020859055517fd79158fa478ef0af48ae6b32b29d29b2a37ee7b0dfcce6005880fd071623b5fb90610b4c9088908890889061272e565b6000610dea82610de16119c8565b60080190611a07565b92915050565b610dfc336109226119c8565b610e365760408051808201825260088152670848288be82aaa8960c31b6020820152905162461bcd60e51b815261034a9190600401612586565b6000610e406119c8565b33600090815260078201602052604090206002018054919250839160ff19166001836004811115610e7357610e7361236f565b0217905550336001600160a01b03167f20891cc7622c7951cbd8c70c61a5201eb45625b8c00e8f6c986cfca78f3dbfa083604051610eb19190612757565b60405180910390a25050565b60606000610ec96119c8565b9050610ed481611a79565b91505090565b610ee2611e8b565b6000610eec6119c8565b9050610efb6005820184611a07565b610f3b57604080518082018252600e81526d1393d11157d393d517d193d5539160921b6020820152905162461bcd60e51b815261034a9190600401612586565b6001600160a01b0380841660009081526007830160209081526040918290208251606081019093528054909316825260018301805492939291840191610f80906125af565b80601f0160208091040260200160405190810160405280929190818152602001828054610fac906125af565b8015610ff95780601f10610fce57610100808354040283529160200191610ff9565b820191906000526020600020905b815481529060010190602001808311610fdc57829003601f168201915b5050509183525050600282015460209091019060ff1660048111156110205761102061236f565b60048111156110315761103161236f565b9052509392505050565b60006110456119c8565b905061105181846119ec565b61108c5760408051808201825260098152681393d517d193d5539160ba1b6020820152905162461bcd60e51b815261034a9190600401612586565b6110996005820183611a07565b6110d957604080518082018252600e81526d1393d11157d393d517d193d5539160921b6020820152905162461bcd60e51b815261034a9190600401612586565b60008381526002820160205260408120905b600282015481101561117457836001600160a01b031682600201828154811061111657611116612599565b6000918252602090912001546001600160a01b03160361116c57604080518082018252600e81526d414c52454144595f45584953545360901b6020820152905162461bcd60e51b815261034a9190600401612586565b6001016110eb565b5060028101805460018082018355600092835260209283902090910180546001600160a01b0319166001600160a01b03871690811790915560408051888152938401919091528201527faaa473c28a5fe04b6a7ecd795826e462f9d0c23f00ef9f51ec02fa6ea418806f9060600160405180910390a150505050565b606060006111fc6119c8565b9050600061120c82600501611a57565b6001600160401b0381111561122357611223611fd5565b60405190808252806020026020018201604052801561125c57816020015b611249611e8b565b8152602001906001900390816112415790505b50905060005b61126e83600501611a57565b81101561073e576007830160006112886005860184611a61565b6001600160a01b03908116825260208083019390935260409182016000208251606081019093528054909116825260018101805492939192918401916112cd906125af565b80601f01602080910402602001604051908101604052809291908181526020018280546112f9906125af565b80156113465780601f1061131b57610100808354040283529160200191611346565b820191906000526020600020905b81548152906001019060200180831161132957829003601f168201915b5050509183525050600282015460209091019060ff16600481111561136d5761136d61236f565b600481111561137e5761137e61236f565b8152505082828151811061139457611394612599565b6020908102919091010152600101611262565b7fa7c3be20e3a76821507555109752fad8a6630ef0362a34dcfcdfef83c99a2537546001600160a01b031633146113f3576040516365f4906560e01b815233600482015260240161034a565b60006113fd6119c8565b905061140c6008820183611a07565b61145057604080518082018252601281527113d41154905513d497d393d517d193d5539160721b6020820152905162461bcd60e51b815261034a9190600401612586565b6001600160a01b0382166000908152600a82016020526040812061147390611a57565b11156114b457604080518082018252600d81526c4f55545f4f465f424f554e445360981b6020820152905162461bcd60e51b815261034a9190600401612586565b6114c16008820183611a86565b506040516001600160a01b038316907f80c0b871b97b595b16a7741c1b06fed0c6f6f558639f18ccbce50724325dc40d90600090a25050565b61150633610de16119c8565b6115405760408051808201825260088152670848288be82aaa8960c31b6020820152905162461bcd60e51b815261034a9190600401612586565b600061154a6119c8565b90506115596005820184611a07565b1561159a57604080518082018252600e81526d414c52454144595f45584953545360901b6020820152905162461bcd60e51b815261034a9190600401612586565b604080516060810182526001600160a01b038516815260208082018590526000828401819052338152600a8501909152919091206115d89085611a29565b506115e66005830185611a29565b506001600160a01b0384811660009081526007840160209081526040909120835181546001600160a01b03191693169290921782558201518291906001820190611630908261266f565b50604082015160028201805460ff191660018360048111156116545761165461236f565b0217905550905050836001600160a01b03167fd6f3629b08191adb8308c3a65d5f8803b7f8f3e359c433fa7ae623276635e561846000604051611698929190612765565b60405180910390a250505050565b6116b2336109226119c8565b6116ec5760408051808201825260088152670848288be82aaa8960c31b6020820152905162461bcd60e51b815261034a9190600401612586565b60006116f66119c8565b3360009081526007820160205260409020909150600101611717838261266f565b50336001600160a01b03167f4505168a8705a16fd4d0575197fd0f510db69df93a065e158ad2c0957ba12bac83604051610eb19190612586565b60006105b261175e6119c8565b611a57565b6060600061176f6119c8565b9050610ed481600501611a79565b60006117876119c8565b905061179381846119ec565b6117ce5760408051808201825260098152681393d517d193d5539160ba1b6020820152905162461bcd60e51b815261034a9190600401612586565b6117db6005820183611a07565b61181b57604080518082018252600e81526d1393d11157d393d517d193d5539160921b6020820152905162461bcd60e51b815261034a9190600401612586565b6000838152600282016020526040812090805b600283015481101561193757846001600160a01b031683600201828154811061185957611859612599565b6000918252602090912001546001600160a01b03160361192f5760028301805461188590600190612787565b8154811061189557611895612599565b6000918252602090912001546002840180546001600160a01b0390921691839081106118c3576118c3612599565b9060005260206000200160006101000a8154816001600160a01b0302191690836001600160a01b03160217905550826002018054806119045761190461279a565b600082815260209020810160001990810180546001600160a01b031916905501905560019150611937565b60010161182e565b508061197957604080518082018252600e81526d1393d11157d393d517d193d5539160921b6020820152905162461bcd60e51b815261034a9190600401612586565b604080518681526001600160a01b038616602082015260008183015290517faaa473c28a5fe04b6a7ecd795826e462f9d0c23f00ef9f51ec02fa6ea418806f9181900360600190a15050505050565b7f1320bfade83d725f4918cce6752986eeef865fd566a9348c57c798b58dfc7ea690565b600081815260018301602052604081205415155b9392505050565b6001600160a01b03811660009081526001830160205260408120541515611a00565b6000611a00836001600160a01b038416611a9b565b611a4e63b32e731f60e01b611aea565b61059a81611bc8565b6000610dea825490565b6000611a008383611c1d565b6000611a008383611a9b565b60606000611a0083611c47565b6000611a00836001600160a01b038416611ca3565b6000818152600183016020526040812054611ae257508154600181810184556000848152602080822090930184905584548482528286019093526040902091909155610dea565b506000610dea565b6001600160e01b0319811660009081527fbc7de460bcfb6afd0c415c8c610d408bd914b18d7d0feec0da9e25348087a5c4602052604090205460ff161515600114611b77576001600160e01b0319811660009081527fbc7de460bcfb6afd0c415c8c610d408bd914b18d7d0feec0da9e25348087a5c460205260409020805460ff19166001179055611b90565b604051637967f77d60e11b815260040160405180910390fd5b6040516001600160e01b03198216907f78f84e5b1c5c05be2b5ad3800781dd404d6d6c6302bc755c0fe20f58a33a7f2290600090a250565b6000611bd26119c8565b905060005b8251811015611c1857611c0f838281518110611bf557611bf5612599565b602002602001015183600801611a2990919063ffffffff16565b50600101611bd7565b505050565b6000826000018281548110611c3457611c34612599565b9060005260206000200154905092915050565b606081600001805480602002602001604051908101604052809291908181526020018280548015611c9757602002820191906000526020600020905b815481526020019060010190808311611c83575b50505050509050919050565b60008181526001830160205260408120548015611d8c576000611cc7600183612787565b8554909150600090611cdb90600190612787565b9050818114611d40576000866000018281548110611cfb57611cfb612599565b9060005260206000200154905080876000018481548110611d1e57611d1e612599565b6000918252602080832090910192909255918252600188019052604090208390555b8554869080611d5157611d5161279a565b600190038181906000526020600020016000905590558560010160008681526020019081526020016000206000905560019350505050610dea565b6000915050610dea565b6040805160c0810182526000808252602082018190529181018290526060808201839052608082019290925260a081019190915290565b604080518082019091526000815260208101611de7611d96565b905290565b508054611df8906125af565b6000825580601f10611e08575050565b601f01602090049060005260206000209081019061059a9190611ec0565b828054828255906000526020600020908101928215611e7b579160200282015b82811115611e7b57825182546001600160a01b0319166001600160a01b03909116178255602090920191600190910190611e46565b50611e87929150611ec0565b5090565b604051806060016040528060006001600160a01b031681526020016060815260200160006004811115611de757611de761236f565b5b80821115611e875760008155600101611ec1565b600060208284031215611ee757600080fd5b5035919050565b600060c08301825184526020808401516001600160401b038082166020880152806040870151166040880152806060870151166060880152806080870151166080880152505060a084015160c060a087015282815180855260e088019150602083019450600092505b80831015611f805784516001600160a01b03168252938301936001929092019190830190611f57565b509695505050505050565b602081526000611a006020830184611eee565b80356001600160a01b0381168114611fb557600080fd5b919050565b600060208284031215611fcc57600080fd5b611a0082611f9e565b634e487b7160e01b600052604160045260246000fd5b604051601f8201601f191681016001600160401b038111828210171561201357612013611fd5565b604052919050565b600082601f83011261202c57600080fd5b813560206001600160401b0382111561204757612047611fd5565b8160051b612056828201611feb565b928352848101820192828101908785111561207057600080fd5b83870192505b848310156120965761208783611f9e565b82529183019190830190612076565b979650505050505050565b6000602082840312156120b357600080fd5b81356001600160401b038111156120c957600080fd5b6120d58482850161201b565b949350505050565b600060208083018184528085518083526040925060408601915060408160051b87010184880160005b8381101561214557888303603f1901855281518051845287015187840187905261213287850182611eee565b9588019593505090860190600101612106565b509098975050505050505050565b6000815180845260005b818110156121795760208185018101518683018201520161215d565b506000602082860101526020601f19601f83011685010191505092915050565b6060815260006121ac6060830186611eee565b84602084015282810360408401526121c48185612153565b9695505050505050565b600080600080608085870312156121e457600080fd5b843593506020850135925060408501356001600160401b038116811461220957600080fd5b91506060850135801515811461221e57600080fd5b939692955090935050565b60006001600160401b0383111561224257612242611fd5565b612255601f8401601f1916602001611feb565b905082815283838301111561226957600080fd5b828260208301376000602084830101529392505050565b6000806000806080858703121561229657600080fd5b8435935060208501356001600160401b03808211156122b457600080fd5b6122c08883890161201b565b94506040870135935060608701359150808211156122dd57600080fd5b508501601f810187136122ef57600080fd5b6122fe87823560208401612229565b91505092959194509250565b60006020828403121561231c57600080fd5b813560058110611a0057600080fd5b6020808252825182820181905260009190848201906040850190845b8181101561236357835183529284019291840191600101612347565b50909695505050505050565b634e487b7160e01b600052602160045260246000fd5b600581106123a357634e487b7160e01b600052602160045260246000fd5b9052565b60018060a01b03815116825260006020820151606060208501526123ce6060850182612153565b905060408301516123e26040860182612385565b509392505050565b602081526000611a0060208301846123a7565b6000806040838503121561241057600080fd5b8235915061242060208401611f9e565b90509250929050565b600060208083016020845280855180835260408601915060408160051b87010192506020870160005b8281101561248057603f1988860301845261246e8583516123a7565b94509285019290850190600101612452565b5092979650505050505050565b600082601f83011261249e57600080fd5b611a0083833560208501612229565b600080604083850312156124c057600080fd5b6124c983611f9e565b915060208301356001600160401b038111156124e457600080fd5b6124f08582860161248d565b9150509250929050565b60006020828403121561250c57600080fd5b81356001600160401b0381111561252257600080fd5b6120d58482850161248d565b60008151808452602080850194506020840160005b838110156125685781516001600160a01b031687529582019590820190600101612543565b509495945050505050565b602081526000611a00602083018461252e565b602081526000611a006020830184612153565b634e487b7160e01b600052603260045260246000fd5b600181811c908216806125c357607f821691505b6020821081036125e357634e487b7160e01b600052602260045260246000fd5b50919050565b634e487b7160e01b600052601160045260246000fd5b6001600160401b0381811683821601908082111561073e5761073e6125e9565b601f821115611c18576000816000526020600020601f850160051c810160208610156126485750805b601f850160051c820191505b8181101561266757828155600101612654565b505050505050565b81516001600160401b0381111561268857612688611fd5565b61269c8161269684546125af565b8461261f565b602080601f8311600181146126d157600084156126b95750858301515b600019600386901b1c1916600185901b178555612667565b600085815260208120601f198616915b82811015612700578886015182559484019460019091019084016126e1565b508582101561271e5787850151600019600388901b60f8161c191681555b5050505050600190811b01905550565b838152606060208201526000612747606083018561252e565b9050826040830152949350505050565b60208101610dea8284612385565b6040815260006127786040830185612153565b9050611a006020830184612385565b81810381811115610dea57610dea6125e9565b634e487b7160e01b600052603160045260246000fda7c3be20e3a76821507555109752fad8a6630ef0362a34dcfcdfef83c99a2537","linkReferences":{}},"methodIdentifiers":{"__RiverRegistry_init(address[])":"286af253","allocateStream(bytes32,address[],bytes32,bytes)":"6b883c39","approveOperator(address)":"242cae9f","getAllNodeAddresses()":"c8fe3a01","getAllNodes()":"a1174e7d","getAllStreamIds()":"86789fc6","getAllStreams()":"3bd84c0c","getNode(address)":"9d209048","getNodeCount()":"39bf397e","getStream(bytes32)":"1290abe8","getStreamCount()":"c0f22084","getStreamWithGenesis(bytes32)":"3c2544d1","isOperator(address)":"6d70f7ae","placeStreamOnNode(bytes32,address)":"9ee86d38","registerNode(address,string)":"bb9b342d","removeOperator(address)":"ac8a584a","removeStreamFromNode(bytes32,address)":"ee885b12","setStreamLastMiniblock(bytes32,bytes32,uint64,bool)":"681a8d67","updateNodeStatus(uint8)":"7691f5ed","updateNodeUrl(string)":"be6522d6"},"id":287}