{"abi":[{"type":"function","name":"isEntitled","inputs":[{"name":"users","type":"address[]","internalType":"address[]"},{"name":"data","type":"bytes","internalType":"bytes"}],"outputs":[{"name":"","type":"bool","internalType":"bool"}],"stateMutability":"view"},{"type":"function","name":"isEntitledByUserAndId","inputs":[{"name":"","type":"bytes32","internalType":"bytes32"}],"outputs":[{"name":"","type":"bool","internalType":"bool"}],"stateMutability":"view"},{"type":"function","name":"parameters","inputs":[],"outputs":[{"name":"","type":"tuple[]","internalType":"struct ICrossChainEntitlement.Parameter[]","components":[{"name":"name","type":"string","internalType":"string"},{"name":"primitive","type":"string","internalType":"string"},{"name":"description","type":"string","internalType":"string"}]}],"stateMutability":"pure"},{"type":"function","name":"setIsEntitled","inputs":[{"name":"id","type":"uint256","internalType":"uint256"},{"name":"user","type":"address","internalType":"address"},{"name":"entitled","type":"bool","internalType":"bool"}],"outputs":[],"stateMutability":"nonpayable"}],"bytecode":{"object":"0x6080604052348015600e575f5ffd5b506106248061001c5f395ff3fe608060405234801561000f575f5ffd5b506004361061004a575f3560e01c806316089f651461004e5780637addd587146100765780638903573014610098578063b48900e8146100ad575b5f5ffd5b61006161005c36600461038c565b61015b565b60405190151581526020015b60405180910390f35b610061610084366004610427565b5f6020819052908152604090205460ff1681565b6100a0610235565b60405161006d919061048a565b6101596100bb366004610574565b6040805173ffffffffffffffffffffffffffffffffffffffff841660208201529081018490525f90606001604080518083037fffffffffffffffffffffffffffffffffffffffffffffffffffffffffffffffe001815291815281516020928301205f90815291829052902080547fffffffffffffffffffffffffffffffffffffffffffffffffffffffffffffff001692151592909217909155505050565b005b5f8061016983850185610427565b90505f5b85811015610227575f878783818110610188576101886105b5565b905060200201602081019061019d91906105e2565b6040805173ffffffffffffffffffffffffffffffffffffffff90921660208301528101849052606001604080517fffffffffffffffffffffffffffffffffffffffffffffffffffffffffffffffe081840301815291815281516020928301205f8181529283905291205490915060ff161561021e576001935050505061022d565b5060010161016d565b505f9150505b949350505050565b6040805160018082528183019092526060915f9190816020015b61027360405180606001604052806060815260200160608152602001606081525090565b81526020019060019003908161024f57905050905060405180606001604052806040518060400160405280600281526020017f696400000000000000000000000000000000000000000000000000000000000081525081526020016040518060400160405280600781526020017f75696e7432353600000000000000000000000000000000000000000000000000815250815260200160405180606001604052806021815260200161060360219139815250815f81518110610337576103376105b5565b6020908102919091010152919050565b5f5f83601f840112610357575f5ffd5b50813567ffffffffffffffff81111561036e575f5ffd5b602083019150836020828501011115610385575f5ffd5b9250929050565b5f5f5f5f6040858703121561039f575f5ffd5b843567ffffffffffffffff8111156103b5575f5ffd5b8501601f810187136103c5575f5ffd5b803567ffffffffffffffff8111156103db575f5ffd5b8760208260051b84010111156103ef575f5ffd5b60209182019550935085013567ffffffffffffffff81111561040f575f5ffd5b61041b87828801610347565b95989497509550505050565b5f60208284031215610437575f5ffd5b5035919050565b5f81518084528060208401602086015e5f6020828601015260207fffffffffffffffffffffffffffffffffffffffffffffffffffffffffffffffe0601f83011685010191505092915050565b5f602082016020835280845180835260408501915060408160051b8601019250602086015f5b82811015610540577fffffffffffffffffffffffffffffffffffffffffffffffffffffffffffffffc087860301845281518051606087526104f4606088018261043e565b90506020820151878203602089015261050d828261043e565b915050604082015191508681036040880152610529818361043e565b9650505060209384019391909101906001016104b0565b50929695505050505050565b803573ffffffffffffffffffffffffffffffffffffffff8116811461056f575f5ffd5b919050565b5f5f5f60608486031215610586575f5ffd5b833592506105966020850161054c565b9150604084013580151581146105aa575f5ffd5b809150509250925092565b7f4e487b71000000000000000000000000000000000000000000000000000000005f52603260045260245ffd5b5f602082840312156105f2575f5ffd5b6105fb8261054c565b939250505056fe53696d706c6520706172616d65746572207479706520666f722074657374696e67","linkReferences":{}},"methodIdentifiers":{"isEntitled(address[],bytes)":"16089f65","isEntitledByUserAndId(bytes32)":"7addd587","parameters()":"89035730","setIsEntitled(uint256,address,bool)":"b48900e8"},"id":389}