{"abi":[{"type":"function","name":"__Architect_init","inputs":[],"outputs":[],"stateMutability":"nonpayable"},{"type":"function","name":"createSpace","inputs":[{"name":"spaceInfo","type":"tuple","internalType":"struct ILegacyArchitectBase.SpaceInfo","components":[{"name":"name","type":"string","internalType":"string"},{"name":"uri","type":"string","internalType":"string"},{"name":"shortDescription","type":"string","internalType":"string"},{"name":"longDescription","type":"string","internalType":"string"},{"name":"membership","type":"tuple","internalType":"struct ILegacyArchitectBase.Membership","components":[{"name":"settings","type":"tuple","internalType":"struct IMembershipBase.Membership","components":[{"name":"name","type":"string","internalType":"string"},{"name":"symbol","type":"string","internalType":"string"},{"name":"price","type":"uint256","internalType":"uint256"},{"name":"maxSupply","type":"uint256","internalType":"uint256"},{"name":"duration","type":"uint64","internalType":"uint64"},{"name":"currency","type":"address","internalType":"address"},{"name":"feeRecipient","type":"address","internalType":"address"},{"name":"freeAllocation","type":"uint256","internalType":"uint256"},{"name":"pricingModule","type":"address","internalType":"address"}]},{"name":"requirements","type":"tuple","internalType":"struct ILegacyArchitectBase.MembershipRequirements","components":[{"name":"everyone","type":"bool","internalType":"bool"},{"name":"users","type":"address[]","internalType":"address[]"},{"name":"ruleData","type":"tuple","internalType":"struct IRuleEntitlementBase.RuleData","components":[{"name":"operations","type":"tuple[]","internalType":"struct IRuleEntitlementBase.Operation[]","components":[{"name":"opType","type":"uint8","internalType":"enum IRuleEntitlementBase.CombinedOperationType"},{"name":"index","type":"uint8","internalType":"uint8"}]},{"name":"checkOperations","type":"tuple[]","internalType":"struct IRuleEntitlementBase.CheckOperation[]","components":[{"name":"opType","type":"uint8","internalType":"enum IRuleEntitlementBase.CheckOperationType"},{"name":"chainId","type":"uint256","internalType":"uint256"},{"name":"contractAddress","type":"address","internalType":"address"},{"name":"threshold","type":"uint256","internalType":"uint256"}]},{"name":"logicalOperations","type":"tuple[]","internalType":"struct IRuleEntitlementBase.LogicalOperation[]","components":[{"name":"logOpType","type":"uint8","internalType":"enum IRuleEntitlementBase.LogicalOperationType"},{"name":"leftOperationIndex","type":"uint8","internalType":"uint8"},{"name":"rightOperationIndex","type":"uint8","internalType":"uint8"}]}]},{"name":"syncEntitlements","type":"bool","internalType":"bool"}]},{"name":"permissions","type":"string[]","internalType":"string[]"}]},{"name":"channel","type":"tuple","internalType":"struct ILegacyArchitectBase.ChannelInfo","components":[{"name":"metadata","type":"string","internalType":"string"}]}]}],"outputs":[{"name":"","type":"address","internalType":"address"}],"stateMutability":"nonpayable"},{"type":"event","name":"Initialized","inputs":[{"name":"version","type":"uint32","indexed":false,"internalType":"uint32"}],"anonymous":false},{"type":"event","name":"InterfaceAdded","inputs":[{"name":"interfaceId","type":"bytes4","indexed":true,"internalType":"bytes4"}],"anonymous":false},{"type":"event","name":"InterfaceRemoved","inputs":[{"name":"interfaceId","type":"bytes4","indexed":true,"internalType":"bytes4"}],"anonymous":false},{"type":"event","name":"Paused","inputs":[{"name":"account","type":"address","indexed":false,"internalType":"address"}],"anonymous":false},{"type":"event","name":"SpaceCreated","inputs":[{"name":"owner","type":"address","indexed":true,"internalType":"address"},{"name":"tokenId","type":"uint256","indexed":true,"internalType":"uint256"},{"name":"space","type":"address","indexed":true,"internalType":"address"}],"anonymous":false},{"type":"event","name":"Unpaused","inputs":[{"name":"account","type":"address","indexed":false,"internalType":"address"}],"anonymous":false},{"type":"error","name":"Architect__InvalidAddress","inputs":[]},{"type":"error","name":"Architect__InvalidNetworkId","inputs":[]},{"type":"error","name":"Architect__InvalidStringLength","inputs":[]},{"type":"error","name":"Architect__NotContract","inputs":[]},{"type":"error","name":"Initializable_InInitializingState","inputs":[]},{"type":"error","name":"Initializable_NotInInitializingState","inputs":[]},{"type":"error","name":"Introspection_AlreadySupported","inputs":[]},{"type":"error","name":"Introspection_NotSupported","inputs":[]},{"type":"error","name":"Pausable__NotPaused","inputs":[]},{"type":"error","name":"Pausable__Paused","inputs":[]},{"type":"error","name":"Reentrancy","inputs":[]},{"type":"error","name":"Validator__InvalidAddress","inputs":[]}],"bytecode":{"object":"0x6080604052348015600e575f5ffd5b5060156019565b60bd565b7f59b501c3653afc186af7d48dda36cf6732bd21629a6295693664240a6ef520008054640100000000900460ff16156064576040516366008a2d60e01b815260040160405180910390fd5b805463ffffffff908116101560ba57805463ffffffff191663ffffffff90811782556040519081527fe9c9b456cb2994b80aeef036cf59d26e9617df80f816a6ee5a5b4166e07e2f5c9060200160405180910390a15b50565b6130b0806100ca5f395ff3fe608060405234801561000f575f5ffd5b5060043610610034575f3560e01c8063ade4c8fa14610038578063e8546e0714610074575b5f5ffd5b61004b610046366004611b98565b61007e565b60405173ffffffffffffffffffffffffffffffffffffffff909116815260200160405180910390f35b61007c610120565b005b5f3068929eee149b4bd21268540361009d5763ab143c065f526004601cfd5b3068929eee149b4bd21268557fe17a067c7963a59b6dfd65d33b053fdbea1c56500e2aae4f976d9eda4da9eb005460ff1615610105576040517f059519da00000000000000000000000000000000000000000000000000000000815260040160405180910390fd5b61010e826101ae565b3868929eee149b4bd212685592915050565b7f59b501c3653afc186af7d48dda36cf6732bd21629a6295693664240a6ef5200054640100000000900460ff16610183576040517f77a399b800000000000000000000000000000000000000000000000000000000815260040160405180910390fd5b6101ac7fade4c8fa00000000000000000000000000000000000000000000000000000000610626565b565b7f9e34afa7b4d27d347d25d9d9dab4f1a106fa081382e6c4243e834d093e787d008054604080517f75794a3c00000000000000000000000000000000000000000000000000000000815290515f937f06bd04a817647c31ee485c8a0baab96facd62dbfd4b475796bb17ca2c12f0000939092859273ffffffffffffffffffffffffffffffffffffffff909216916375794a3c916004808201926020929091908290030181865afa158015610264573d5f5f3e3d5ffd5b505050506040513d601f19601f820116820180604052508101906102889190611cdb565b905061029881866080015161077b565b8354909450835f6102a883611cf2565b90915550505f818152600284016020908152604080832080547fffffffffffffffffffffffff00000000000000000000000000000000000000001673ffffffffffffffffffffffffffffffffffffffff89811691821790925584526001870183529281902084905584548851928901518983015160608b015193517f3bf5b8f40000000000000000000000000000000000000000000000000000000081529290951694633bf5b8f4946103639490938b929190600401611d9a565b6020604051808303815f875af115801561037f573d5f5f3e3d5ffd5b505050506040513d601f19601f820116820180604052508101906103a39190611cdb565b5060018201545f906103cb9073ffffffffffffffffffffffffffffffffffffffff16866107a1565b60058401549091505f906103f59073ffffffffffffffffffffffffffffffffffffffff16876107a1565b6040805160028082526060820183529293505f92909160208301908036833701905050905082815f8151811061042d5761042d611e0e565b602002602001019073ffffffffffffffffffffffffffffffffffffffff16908173ffffffffffffffffffffffffffffffffffffffff1681525050818160018151811061047b5761047b611e0e565b73ffffffffffffffffffffffffffffffffffffffff92831660209182029290920101526040517f8bfc820f00000000000000000000000000000000000000000000000000000000815290881690638bfc820f906104dc908490600401611e3b565b5f604051808303815f87803b1580156104f3575f5ffd5b505af1158015610505573d5f5f3e3d5ffd5b5050505061051d8784848b60800151602001516108ea565b5060808801518051516040909101515f9161053b918a919087610d77565b905061054c88828b60a00151610f2d565b85546040517f42842e0e0000000000000000000000000000000000000000000000000000000081523060048201523360248201526044810187905273ffffffffffffffffffffffffffffffffffffffff909116906342842e0e906064015f604051808303815f87803b1580156105c0575f5ffd5b505af11580156105d2573d5f5f3e3d5ffd5b505060405173ffffffffffffffffffffffffffffffffffffffff8b16925087915033907fe50fc3942f8a2d7e5a7c8fb9488499eba5255b41e18bc3f1b4791402976d1d0b905f90a450505050505050919050565b7fffffffff0000000000000000000000000000000000000000000000000000000081165f9081527f81088bbc801e045ea3e7620779ab349988f58afbdfba10dff983df3f33522b00602052604090205460ff166106fa577fffffffff0000000000000000000000000000000000000000000000000000000081165f9081527f81088bbc801e045ea3e7620779ab349988f58afbdfba10dff983df3f33522b006020526040902080547fffffffffffffffffffffffffffffffffffffffffffffffffffffffffffffff0016600117905561072c565b6040517ff2cfeefa00000000000000000000000000000000000000000000000000000000815260040160405180910390fd5b6040517fffffffff000000000000000000000000000000000000000000000000000000008216907f78f84e5b1c5c05be2b5ad3800781dd404d6d6c6302bc755c0fe20f58a33a7f22905f90a250565b5f5f5f6107888585611072565b91509150610796828261129b565b925050505b92915050565b5f5f604051806020016107b390611395565b7fffffffffffffffffffffffffffffffffffffffffffffffffffffffffffffffe082820381018352601f90910116604081905273ffffffffffffffffffffffffffffffffffffffff851660248201528590604401604080517fffffffffffffffffffffffffffffffffffffffffffffffffffffffffffffffe0818403018152918152602080830180517bffffffffffffffffffffffffffffffffffffffffffffffffffffffff167fc4d66de800000000000000000000000000000000000000000000000000000000179052905161088c93929101611e93565b604080517fffffffffffffffffffffffffffffffffffffffffffffffffffffffffffffffe0818403018152908290526108c89291602001611ed8565b60405160208183030381529060405290506108e2816112ee565b949350505050565b6040805160018082528183019092525f91829190816020015b60608152602001906001900390816109035790505090506040518060400160405280600981526020017f4a6f696e53706163650000000000000000000000000000000000000000000000815250815f8151811061096257610962611e0e565b60200260200101819052508573ffffffffffffffffffffffffffffffffffffffff16638fcd793d6040518060400160405280600681526020017f4d696e7465720000000000000000000000000000000000000000000000000000815250835f67ffffffffffffffff8111156109d9576109d96113af565b604051908082528060200260200182016040528015610a1e57816020015b604080518082019091525f8152606060208201528152602001906001900390816109f75790505b506040518463ffffffff1660e01b8152600401610a3d93929190611f20565b6020604051808303815f875af1158015610a59573d5f5f3e3d5ffd5b505050506040513d601f19601f82011682018060405250810190610a7d9190611cdb565b835190925015610bad576040805160018082528183019092525f91602080830190803683370190505090506001815f81518110610abc57610abc611e0e565b602002602001019073ffffffffffffffffffffffffffffffffffffffff16908173ffffffffffffffffffffffffffffffffffffffff16815250508673ffffffffffffffffffffffffffffffffffffffff1663ba201ba88460405180604001604052808a73ffffffffffffffffffffffffffffffffffffffff16815260200185604051602001610b4b9190611e3b565b6040516020818303038152906040528152506040518363ffffffff1660e01b8152600401610b7a92919061202c565b5f604051808303815f87803b158015610b91575f5ffd5b505af1158015610ba3573d5f5f3e3d5ffd5b5050505050610d6e565b60208301515115610cac575f5b836020015151811015610bf557610bed84602001518281518110610be057610be0611e0e565b6020026020010151611345565b600101610bba565b508573ffffffffffffffffffffffffffffffffffffffff1663ba201ba88360405180604001604052808973ffffffffffffffffffffffffffffffffffffffff1681526020018760200151604051602001610c4f9190611e3b565b6040516020818303038152906040528152506040518363ffffffff1660e01b8152600401610c7e92919061202c565b5f604051808303815f87803b158015610c95575f5ffd5b505af1158015610ca7573d5f5f3e3d5ffd5b505050505b6040830151515115610d6e578573ffffffffffffffffffffffffffffffffffffffff1663ba201ba88360405180604001604052808873ffffffffffffffffffffffffffffffffffffffff1681526020018760400151604051602001610d119190612166565b6040516020818303038152906040528152506040518363ffffffff1660e01b8152600401610d4092919061202c565b5f604051808303815f87803b158015610d57575f5ffd5b505af1158015610d69573d5f5f3e3d5ffd5b505050505b50949350505050565b6040805160018082528183019092525f91829190602080830190803683370190505090506001815f81518110610daf57610daf611e0e565b73ffffffffffffffffffffffffffffffffffffffff92909216602092830291909101909101526040805160018082528183019092525f91816020015b604080518082019091525f815260606020820152815260200190600190039081610deb57905050905083815f81518110610e2757610e27611e0e565b60209081029190910181015173ffffffffffffffffffffffffffffffffffffffff909216909152604051610e5d91849101611e3b565b604051602081830303815290604052815f81518110610e7e57610e7e611e0e565b60209081029190910181015101526040517f8fcd793d00000000000000000000000000000000000000000000000000000000815273ffffffffffffffffffffffffffffffffffffffff881690638fcd793d90610ee290899089908690600401611f20565b6020604051808303815f875af1158015610efe573d5f5f3e3d5ffd5b505050506040513d601f19601f82011682018060405250810190610f229190611cdb565b979650505050505050565b6040805160018082528183019092525f916020808301908036833701905050905082815f81518110610f6157610f61611e0e565b6020908102919091018101919091526040517f2000000000000000000000000000000000000000000000000000000000000000918101919091527fffffffffffffffffffffffffffffffffffffffff000000000000000000000000606086901b1660218201525f90603501604051602081830303815290604052610fe49061223f565b83516040517f921f717500000000000000000000000000000000000000000000000000000000815291925073ffffffffffffffffffffffffffffffffffffffff87169163921f71759161103e918591908790600401612284565b5f604051808303815f87803b158015611055575f5ffd5b505af1158015611067573d5f5f3e3d5ffd5b505050505050505050565b60408051336020808301919091528183018590524260608381019190915283518084038201815260809093019093528151910120825160c08101517f9e34afa7b4d27d347d25d9d9dab4f1a106fa081382e6c4243e834d093e787d00919073ffffffffffffffffffffffffffffffffffffffff166110f1573360c08201525b600682015460405173ffffffffffffffffffffffffffffffffffffffff9091169061111e602082016113a2565b7fffffffffffffffffffffffffffffffffffffffffffffffffffffffffffffffe0828203810183526040601f9092011681810182527fdc9cc64500000000000000000000000000000000000000000000000000000000815230602082810182905283518085018552885473ffffffffffffffffffffffffffffffffffffffff1681529081018c90529251919285926111be923392909189906024016122de565b604080517fffffffffffffffffffffffffffffffffffffffffffffffffffffffffffffffe0818403018152918152602080830180517bffffffffffffffffffffffffffffffffffffffffffffffffffffffff167f40e47dfe0000000000000000000000000000000000000000000000000000000017905290516112449493929101612449565b604080517fffffffffffffffffffffffffffffffffffffffffffffffffffffffffffffffe0818403018152908290526112809291602001611ed8565b60405160208183030381529060405294505050509250929050565b5f818351602085015ff590508061079b57632b1c22465f52602080523d6040523d5f60603e7fffffffffffffffffffffffffffffffffffffffffffffffffffffffffffffffe0601f3d011660448101601cfd5b5f8151602083015ff090508061134057632b1c22465f52602080523d6040523d5f60603e7fffffffffffffffffffffffffffffffffffffffffffffffffffffffffffffffe0601f3d011660448101601cfd5b919050565b73ffffffffffffffffffffffffffffffffffffffff8116611392576040517f2e47d15000000000000000000000000000000000000000000000000000000000815260040160405180910390fd5b50565b6103a7806124ca83390190565b61083f8061287183390190565b7f4e487b71000000000000000000000000000000000000000000000000000000005f52604160045260245ffd5b6040516080810167ffffffffffffffff811182821017156113ff576113ff6113af565b60405290565b6040516060810167ffffffffffffffff811182821017156113ff576113ff6113af565b6040805190810167ffffffffffffffff811182821017156113ff576113ff6113af565b604051610120810167ffffffffffffffff811182821017156113ff576113ff6113af565b60405160c0810167ffffffffffffffff811182821017156113ff576113ff6113af565b604051601f82017fffffffffffffffffffffffffffffffffffffffffffffffffffffffffffffffe016810167ffffffffffffffff811182821017156114d9576114d96113af565b604052919050565b5f82601f8301126114f0575f5ffd5b813567ffffffffffffffff81111561150a5761150a6113af565b61153b60207fffffffffffffffffffffffffffffffffffffffffffffffffffffffffffffffe0601f84011601611492565b81815284602083860101111561154f575f5ffd5b816020850160208301375f918101602001919091529392505050565b803567ffffffffffffffff81168114611340575f5ffd5b803573ffffffffffffffffffffffffffffffffffffffff81168114611340575f5ffd5b80358015158114611340575f5ffd5b5f67ffffffffffffffff8211156115cd576115cd6113af565b5060051b60200190565b60038110611392575f5ffd5b803560ff81168114611340575f5ffd5b5f82601f830112611602575f5ffd5b8135611615611610826115b4565b611492565b8082825260208201915060208360071b860101925085831115611636575f5ffd5b602085015b8381101561169f5760808188031215611652575f5ffd5b61165a6113dc565b813560078110611668575f5ffd5b81526020828101359082015261168060408301611582565b604082015260608281013590820152835260209092019160800161163b565b5095945050505050565b5f82601f8301126116b8575f5ffd5b81356116c6611610826115b4565b808282526020820191506020606084028601019250858311156116e7575f5ffd5b602085015b8381101561169f5760608188031215611703575f5ffd5b61170b611405565b8135611716816115d7565b8152611724602083016115e3565b6020820152611735604083016115e3565b604082015283526020909201916060016116ec565b5f6060828403121561175a575f5ffd5b611762611405565b9050813567ffffffffffffffff81111561177a575f5ffd5b8201601f8101841361178a575f5ffd5b8035611798611610826115b4565b8082825260208201915060208360061b8501019250868311156117b9575f5ffd5b6020840193505b8284101561181257604084880312156117d7575f5ffd5b6117df611428565b84356117ea816115d7565b81526117f8602086016115e3565b6020820152808352506020820191506040840193506117c0565b8452505050602082013567ffffffffffffffff811115611830575f5ffd5b61183c848285016115f3565b602083015250604082013567ffffffffffffffff81111561185b575f5ffd5b611867848285016116a9565b60408301525092915050565b5f60808284031215611883575f5ffd5b61188b6113dc565b9050611896826115a5565b8152602082013567ffffffffffffffff8111156118b1575f5ffd5b8201601f810184136118c1575f5ffd5b80356118cf611610826115b4565b8082825260208201915060208360051b8501019250868311156118f0575f5ffd5b6020840193505b828410156119195761190884611582565b8252602093840193909101906118f7565b6020850152505050604082013567ffffffffffffffff81111561193a575f5ffd5b6119468482850161174a565b604083015250611958606083016115a5565b606082015292915050565b5f82601f830112611972575f5ffd5b8135611980611610826115b4565b8082825260208201915060208360051b8601019250858311156119a1575f5ffd5b602085015b8381101561169f57803567ffffffffffffffff8111156119c4575f5ffd5b6119d3886020838a01016114e1565b845250602092830192016119a6565b5f606082840312156119f2575f5ffd5b6119fa611405565b9050813567ffffffffffffffff811115611a12575f5ffd5b82016101208185031215611a24575f5ffd5b611a2c61144b565b813567ffffffffffffffff811115611a42575f5ffd5b611a4e868285016114e1565b825250602082013567ffffffffffffffff811115611a6a575f5ffd5b611a76868285016114e1565b6020830152506040828101359082015260608083013590820152611a9c6080830161156b565b6080820152611aad60a08301611582565b60a0820152611abe60c08301611582565b60c082015260e08281013590820152611ada6101008301611582565b610100820152825250602082013567ffffffffffffffff811115611afc575f5ffd5b611b0884828501611873565b602083015250604082013567ffffffffffffffff811115611b27575f5ffd5b61186784828501611963565b5f60208284031215611b43575f5ffd5b6040516020810167ffffffffffffffff81118282101715611b6657611b666113af565b604052905080823567ffffffffffffffff811115611b82575f5ffd5b611b8e858286016114e1565b8252505092915050565b5f60208284031215611ba8575f5ffd5b813567ffffffffffffffff811115611bbe575f5ffd5b820160c08185031215611bcf575f5ffd5b611bd761146f565b813567ffffffffffffffff811115611bed575f5ffd5b611bf9868285016114e1565b825250602082013567ffffffffffffffff811115611c15575f5ffd5b611c21868285016114e1565b602083015250604082013567ffffffffffffffff811115611c40575f5ffd5b611c4c868285016114e1565b604083015250606082013567ffffffffffffffff811115611c6b575f5ffd5b611c77868285016114e1565b606083015250608082013567ffffffffffffffff811115611c96575f5ffd5b611ca2868285016119e2565b60808301525060a082013567ffffffffffffffff811115611cc1575f5ffd5b611ccd86828501611b33565b60a083015250949350505050565b5f60208284031215611ceb575f5ffd5b5051919050565b5f7fffffffffffffffffffffffffffffffffffffffffffffffffffffffffffffffff8203611d47577f4e487b71000000000000000000000000000000000000000000000000000000005f52601160045260245ffd5b5060010190565b5f81518084528060208401602086015e5f6020828601015260207fffffffffffffffffffffffffffffffffffffffffffffffffffffffffffffffe0601f83011685010191505092915050565b60a081525f611dac60a0830188611d4e565b8281036020840152611dbe8188611d4e565b905073ffffffffffffffffffffffffffffffffffffffff861660408401528281036060840152611dee8186611d4e565b90508281036080840152611e028185611d4e565b98975050505050505050565b7f4e487b71000000000000000000000000000000000000000000000000000000005f52603260045260245ffd5b602080825282518282018190525f918401906040840190835b81811015611e8857835173ffffffffffffffffffffffffffffffffffffffff16835260209384019390920191600101611e54565b509095945050505050565b73ffffffffffffffffffffffffffffffffffffffff83168152604060208201525f6108e26040830184611d4e565b5f81518060208401855e5f93019283525090919050565b5f6108e2611ee68386611ec1565b84611ec1565b73ffffffffffffffffffffffffffffffffffffffff81511682525f6020820151604060208501526108e26040850182611d4e565b606081525f611f326060830186611d4e565b828103602084015280855180835260208301915060208160051b840101602088015f5b83811015611fa5577fffffffffffffffffffffffffffffffffffffffffffffffffffffffffffffffe0868403018552611f8f838351611d4e565b6020958601959093509190910190600101611f55565b50508581036040870152865180825260208083019550909350600584901b82018101925087015f5b8481101561201d577fffffffffffffffffffffffffffffffffffffffffffffffffffffffffffffffe0838503018652612007848351611eec565b6020968701969094509190910190600101611fcd565b50919998505050505050505050565b828152604060208201525f6108e26040830184611eec565b7f4e487b71000000000000000000000000000000000000000000000000000000005f52602160045260245ffd5b6003811061139257611392612044565b5f8151808452602084019350602083015f5b828110156120ff5781518051600781106120af576120af612044565b808852506020810151602088015273ffffffffffffffffffffffffffffffffffffffff60408201511660408801526060810151606088015250608086019550602082019150600181019050612093565b5093949350505050565b5f8151808452602084019350602083015f5b828110156120ff578151805161213081612071565b8088525060ff602082015116602088015260ff60408201511660408801525060608601955060208201915060018101905061211b565b602080825282516060838301528051608084018190525f929190910190829060a08501905b808310156121c657835180516121a081612071565b835260209081015160ff168184015293909301926001929092019160409091019061218b565b50602086015192507fffffffffffffffffffffffffffffffffffffffffffffffffffffffffffffffe08582030160408601526122028184612081565b9250505060408401517fffffffffffffffffffffffffffffffffffffffffffffffffffffffffffffffe08483030160608501526107968282612109565b8051602080830151919081101561227e577fffffffffffffffffffffffffffffffffffffffffffffffffffffffffffffffff8160200360031b1b821691505b50919050565b838152606060208201525f61229c6060830185611d4e565b8281036040840152835180825260208086019201905f5b818110156122d15783518352602093840193909201916001016122b3565b5090979650505050505050565b73ffffffffffffffffffffffffffffffffffffffff8516815273ffffffffffffffffffffffffffffffffffffffff8416602082015273ffffffffffffffffffffffffffffffffffffffff83511660408201526020830151606082015260a060808201525f825161012060a084015261235a6101c0840182611d4e565b905060208401517fffffffffffffffffffffffffffffffffffffffffffffffffffffffffffffff608483030160c08501526123958282611d4e565b915050604084015160e0840152606084015161010084015260808401516123c961012085018267ffffffffffffffff169052565b5060a084015173ffffffffffffffffffffffffffffffffffffffff81166101408501525060c084015173ffffffffffffffffffffffffffffffffffffffff81166101608501525060e084015161018084015261010084015173ffffffffffffffffffffffffffffffffffffffff81166101a0850152509695505050505050565b7fffffffff00000000000000000000000000000000000000000000000000000000845116815273ffffffffffffffffffffffffffffffffffffffff602085015116602082015273ffffffffffffffffffffffffffffffffffffffff83166040820152608060608201525f6124c06080830184611d4e565b9594505050505056fe60806040526040516103a73803806103a78339810160408190526100229161023c565b61002c8282610033565b5050610321565b61003c82610091565b6040516001600160a01b038316907fbc7cd75a20ee27fd9adebab32041f755214dbc6bffa90cc0225b39da2e5c2d3b905f90a280511561008557610080828261010c565b505050565b61008d61017f565b5050565b806001600160a01b03163b5f036100cb57604051634c9c8ce360e01b81526001600160a01b03821660048201526024015b60405180910390fd5b7f360894a13ba1a3210667c828492db98dca3e2076cc3735a920a3ca505d382bbc80546001600160a01b0319166001600160a01b0392909216919091179055565b60605f5f846001600160a01b031684604051610128919061030b565b5f60405180830381855af49150503d805f8114610160576040519150601f19603f3d011682016040523d82523d5f602084013e610165565b606091505b5090925090506101768583836101a0565b95945050505050565b341561019e5760405163b398979f60e01b815260040160405180910390fd5b565b6060826101b5576101b0826101ff565b6101f8565b81511580156101cc57506001600160a01b0384163b155b156101f557604051639996b31560e01b81526001600160a01b03851660048201526024016100c2565b50805b9392505050565b80511561020f5780518082602001fd5b60405163d6bda27560e01b815260040160405180910390fd5b634e487b7160e01b5f52604160045260245ffd5b5f5f6040838503121561024d575f5ffd5b82516001600160a01b0381168114610263575f5ffd5b60208401519092506001600160401b0381111561027e575f5ffd5b8301601f8101851361028e575f5ffd5b80516001600160401b038111156102a7576102a7610228565b604051601f8201601f19908116603f011681016001600160401b03811182821017156102d5576102d5610228565b6040528181528282016020018710156102ec575f5ffd5b8160208401602083015e5f602083830101528093505050509250929050565b5f82518060208501845e5f920191825250919050565b607a8061032d5f395ff3fe6080604052600a600c565b005b60186014601a565b605d565b565b5f60587f360894a13ba1a3210667c828492db98dca3e2076cc3735a920a3ca505d382bbc5473ffffffffffffffffffffffffffffffffffffffff1690565b905090565b365f5f375f5f365f845af43d5f5f3e8080156076573d5ff35b3d5ffd608060405234801561000f575f5ffd5b5060405161083f38038061083f83398101604081905261002e9161022d565b6100948380517f9c16cba5b9f2fcbd952b38bec34079e93cbe107475c15fc20705f4e704198a0080546020909301516001600160a01b03166001600160a01b031960e09390931c600160a01b02929092166001600160c01b031990931692909217179055565b61009e82826100a7565b5050505061032e565b60605f5f846001600160a01b0316846040516100c39190610318565b5f60405180830381855af49150503d805f81146100fb576040519150601f19603f3d011682016040523d82523d5f602084013e610100565b606091505b50909250905061011185838361011a565b95945050505050565b60608261012f5761012a8261017d565b610176565b815115801561014657506001600160a01b0384163b155b1561017357604051639996b31560e01b81526001600160a01b038516600482015260240160405180910390fd5b50805b9392505050565b80511561018d5780518082602001fd5b60405163d6bda27560e01b815260040160405180910390fd5b634e487b7160e01b5f52604160045260245ffd5b604080519081016001600160401b03811182821017156101dc576101dc6101a6565b60405290565b604051601f8201601f191681016001600160401b038111828210171561020a5761020a6101a6565b604052919050565b80516001600160a01b0381168114610228575f5ffd5b919050565b5f5f5f8385036080811215610240575f5ffd5b604081121561024d575f5ffd5b506102566101ba565b84516001600160e01b03198116811461026d575f5ffd5b815261027b60208601610212565b6020820152925061028e60408501610212565b60608501519092506001600160401b038111156102a9575f5ffd5b8401601f810186136102b9575f5ffd5b80516001600160401b038111156102d2576102d26101a6565b6102e5601f8201601f19166020016101e2565b8181528760208385010111156102f9575f5ffd5b8160208401602083015e5f602083830101528093505050509250925092565b5f82518060208501845e5f920191825250919050565b6105048061033b5f395ff3fe608060405260043610610021575f3560e01c8063ac9650d81461003257610028565b3661002857005b61003061005b565b005b610045610040366004610383565b6100d4565b60405161005291906103f4565b60405180910390f35b5f6100646100f8565b90508073ffffffffffffffffffffffffffffffffffffffff163b5f036100b6576040517f87c9fc3400000000000000000000000000000000000000000000000000000000815260040160405180910390fd5b365f5f375f5f365f845af43d5f5f3e8080156100d0573d5ff35b3d5ffd5b606034156100e0575f5ffd5b6100f26100ed84846102e0565b610372565b92915050565b7f9c16cba5b9f2fcbd952b38bec34079e93cbe107475c15fc20705f4e704198a00545f9074010000000000000000000000000000000000000000900460e01b81806101777f9c16cba5b9f2fcbd952b38bec34079e93cbe107475c15fc20705f4e704198a005473ffffffffffffffffffffffffffffffffffffffff1690565b6040517fffffffff000000000000000000000000000000000000000000000000000000005f3516602482015273ffffffffffffffffffffffffffffffffffffffff91909116908490604401604080517fffffffffffffffffffffffffffffffffffffffffffffffffffffffffffffffe08184030181529181526020820180517bffffffffffffffffffffffffffffffffffffffffffffffffffffffff167fffffffff0000000000000000000000000000000000000000000000000000000090941693909317909252905161024b91906104b4565b5f60405180830381855afa9150503d805f8114610283576040519150601f19603f3d011682016040523d82523d5f602084013e610288565b606091505b5091509150816102c4576040517f391aa44500000000000000000000000000000000000000000000000000000000815260040160405180910390fd5b808060200190518101906102d891906104ca565b935050505090565b5f60405190506020815281816020015280604001808360051b80868437820180851561035a575b8351870180356020820183375f38823584305af4610327573d5f873e3d86fd5b5082810384523d815260209384019381013d5f823e5f3d8201523d01601f0167ffffffffffffffe0169050818410610307575b806040528485820360401b1794505050505092915050565b8060401c8167ffffffffffffffff16f35b5f5f60208385031215610394575f5ffd5b823567ffffffffffffffff8111156103aa575f5ffd5b8301601f810185136103ba575f5ffd5b803567ffffffffffffffff8111156103d0575f5ffd5b8560208260051b84010111156103e4575f5ffd5b6020919091019590945092505050565b5f602082016020835280845180835260408501915060408160051b8601019250602086015f5b828110156104a8577fffffffffffffffffffffffffffffffffffffffffffffffffffffffffffffffc0878603018452815180518087528060208301602089015e5f6020828901015260207fffffffffffffffffffffffffffffffffffffffffffffffffffffffffffffffe0601f8301168801019650505060208201915060208401935060018101905061041a565b50929695505050505050565b5f82518060208501845e5f920191825250919050565b5f602082840312156104da575f5ffd5b815173ffffffffffffffffffffffffffffffffffffffff811681146104fd575f5ffd5b939250505056","linkReferences":{}},"methodIdentifiers":{"__Architect_init()":"e8546e07","createSpace((string,string,string,string,((string,string,uint256,uint256,uint64,address,address,uint256,address),(bool,address[],((uint8,uint8)[],(uint8,uint256,address,uint256)[],(uint8,uint8,uint8)[]),bool),string[]),(string)))":"ade4c8fa"},"id":653}