{"abi":[{"type":"constructor","inputs":[{"name":"approvedOperators","type":"address[]","internalType":"address[]"}],"stateMutability":"nonpayable"},{"type":"function","name":"__RiverRegistry_init","inputs":[{"name":"approvedOperators","type":"address[]","internalType":"address[]"}],"outputs":[],"stateMutability":"nonpayable"},{"type":"function","name":"allocateStream","inputs":[{"name":"streamId","type":"bytes32","internalType":"bytes32"},{"name":"nodes","type":"address[]","internalType":"address[]"},{"name":"genesisMiniblockHash","type":"bytes32","internalType":"bytes32"},{"name":"genesisMiniblock","type":"bytes","internalType":"bytes"}],"outputs":[],"stateMutability":"nonpayable"},{"type":"function","name":"approveOperator","inputs":[{"name":"operator","type":"address","internalType":"address"}],"outputs":[],"stateMutability":"nonpayable"},{"type":"function","name":"getAllNodeAddresses","inputs":[],"outputs":[{"name":"","type":"address[]","internalType":"address[]"}],"stateMutability":"view"},{"type":"function","name":"getAllNodes","inputs":[],"outputs":[{"name":"","type":"tuple[]","internalType":"struct IRiverRegistryBase.Node[]","components":[{"name":"nodeAddress","type":"address","internalType":"address"},{"name":"url","type":"string","internalType":"string"},{"name":"status","type":"uint8","internalType":"enum IRiverRegistryBase.NodeStatus"},{"name":"operator","type":"address","internalType":"address"}]}],"stateMutability":"view"},{"type":"function","name":"getAllStreamIds","inputs":[],"outputs":[{"name":"","type":"bytes32[]","internalType":"bytes32[]"}],"stateMutability":"view"},{"type":"function","name":"getAllStreams","inputs":[],"outputs":[{"name":"","type":"tuple[]","internalType":"struct IRiverRegistryBase.StreamWithId[]","components":[{"name":"id","type":"bytes32","internalType":"bytes32"},{"name":"stream","type":"tuple","internalType":"struct IRiverRegistryBase.Stream","components":[{"name":"lastMiniblockHash","type":"bytes32","internalType":"bytes32"},{"name":"lastMiniblockNum","type":"uint64","internalType":"uint64"},{"name":"flags","type":"uint64","internalType":"uint64"},{"name":"reserved0","type":"uint64","internalType":"uint64"},{"name":"reserved1","type":"uint64","internalType":"uint64"},{"name":"nodes","type":"address[]","internalType":"address[]"}]}]}],"stateMutability":"view"},{"type":"function","name":"getNode","inputs":[{"name":"nodeAddress","type":"address","internalType":"address"}],"outputs":[{"name":"","type":"tuple","internalType":"struct IRiverRegistryBase.Node","components":[{"name":"nodeAddress","type":"address","internalType":"address"},{"name":"url","type":"string","internalType":"string"},{"name":"status","type":"uint8","internalType":"enum IRiverRegistryBase.NodeStatus"},{"name":"operator","type":"address","internalType":"address"}]}],"stateMutability":"view"},{"type":"function","name":"getNodeCount","inputs":[],"outputs":[{"name":"","type":"uint256","internalType":"uint256"}],"stateMutability":"view"},{"type":"function","name":"getStream","inputs":[{"name":"streamId","type":"bytes32","internalType":"bytes32"}],"outputs":[{"name":"","type":"tuple","internalType":"struct IRiverRegistryBase.Stream","components":[{"name":"lastMiniblockHash","type":"bytes32","internalType":"bytes32"},{"name":"lastMiniblockNum","type":"uint64","internalType":"uint64"},{"name":"flags","type":"uint64","internalType":"uint64"},{"name":"reserved0","type":"uint64","internalType":"uint64"},{"name":"reserved1","type":"uint64","internalType":"uint64"},{"name":"nodes","type":"address[]","internalType":"address[]"}]}],"stateMutability":"view"},{"type":"function","name":"getStreamCount","inputs":[],"outputs":[{"name":"","type":"uint256","internalType":"uint256"}],"stateMutability":"view"},{"type":"function","name":"getStreamWithGenesis","inputs":[{"name":"streamId","type":"bytes32","internalType":"bytes32"}],"outputs":[{"name":"","type":"tuple","internalType":"struct IRiverRegistryBase.Stream","components":[{"name":"lastMiniblockHash","type":"bytes32","internalType":"bytes32"},{"name":"lastMiniblockNum","type":"uint64","internalType":"uint64"},{"name":"flags","type":"uint64","internalType":"uint64"},{"name":"reserved0","type":"uint64","internalType":"uint64"},{"name":"reserved1","type":"uint64","internalType":"uint64"},{"name":"nodes","type":"address[]","internalType":"address[]"}]},{"name":"","type":"bytes32","internalType":"bytes32"},{"name":"","type":"bytes","internalType":"bytes"}],"stateMutability":"view"},{"type":"function","name":"getStreamsOnNode","inputs":[{"name":"nodeAddress","type":"address","internalType":"address"}],"outputs":[{"name":"","type":"tuple[]","internalType":"struct IRiverRegistryBase.StreamWithId[]","components":[{"name":"id","type":"bytes32","internalType":"bytes32"},{"name":"stream","type":"tuple","internalType":"struct IRiverRegistryBase.Stream","components":[{"name":"lastMiniblockHash","type":"bytes32","internalType":"bytes32"},{"name":"lastMiniblockNum","type":"uint64","internalType":"uint64"},{"name":"flags","type":"uint64","internalType":"uint64"},{"name":"reserved0","type":"uint64","internalType":"uint64"},{"name":"reserved1","type":"uint64","internalType":"uint64"},{"name":"nodes","type":"address[]","internalType":"address[]"}]}]}],"stateMutability":"view"},{"type":"function","name":"isOperator","inputs":[{"name":"operator","type":"address","internalType":"address"}],"outputs":[{"name":"","type":"bool","internalType":"bool"}],"stateMutability":"view"},{"type":"function","name":"placeStreamOnNode","inputs":[{"name":"streamId","type":"bytes32","internalType":"bytes32"},{"name":"nodeAddress","type":"address","internalType":"address"}],"outputs":[],"stateMutability":"nonpayable"},{"type":"function","name":"registerNode","inputs":[{"name":"nodeAddress","type":"address","internalType":"address"},{"name":"url","type":"string","internalType":"string"},{"name":"status","type":"uint8","internalType":"enum IRiverRegistryBase.NodeStatus"}],"outputs":[],"stateMutability":"nonpayable"},{"type":"function","name":"removeNode","inputs":[{"name":"nodeAddress","type":"address","internalType":"address"}],"outputs":[],"stateMutability":"nonpayable"},{"type":"function","name":"removeOperator","inputs":[{"name":"operator","type":"address","internalType":"address"}],"outputs":[],"stateMutability":"nonpayable"},{"type":"function","name":"removeStreamFromNode","inputs":[{"name":"streamId","type":"bytes32","internalType":"bytes32"},{"name":"nodeAddress","type":"address","internalType":"address"}],"outputs":[],"stateMutability":"nonpayable"},{"type":"function","name":"setStreamLastMiniblock","inputs":[{"name":"streamId","type":"bytes32","internalType":"bytes32"},{"name":"lastMiniblockHash","type":"bytes32","internalType":"bytes32"},{"name":"lastMiniblockNum","type":"uint64","internalType":"uint64"},{"name":"isSealed","type":"bool","internalType":"bool"}],"outputs":[],"stateMutability":"nonpayable"},{"type":"function","name":"updateNodeStatus","inputs":[{"name":"nodeAddress","type":"address","internalType":"address"},{"name":"status","type":"uint8","internalType":"enum IRiverRegistryBase.NodeStatus"}],"outputs":[],"stateMutability":"nonpayable"},{"type":"function","name":"updateNodeUrl","inputs":[{"name":"nodeAddress","type":"address","internalType":"address"},{"name":"url","type":"string","internalType":"string"}],"outputs":[],"stateMutability":"nonpayable"},{"type":"event","name":"Initialized","inputs":[{"name":"version","type":"uint32","indexed":false,"internalType":"uint32"}],"anonymous":false},{"type":"event","name":"InterfaceAdded","inputs":[{"name":"interfaceId","type":"bytes4","indexed":true,"internalType":"bytes4"}],"anonymous":false},{"type":"event","name":"InterfaceRemoved","inputs":[{"name":"interfaceId","type":"bytes4","indexed":true,"internalType":"bytes4"}],"anonymous":false},{"type":"event","name":"NodeAdded","inputs":[{"name":"nodeAddress","type":"address","indexed":true,"internalType":"address"},{"name":"url","type":"string","indexed":false,"internalType":"string"},{"name":"status","type":"uint8","indexed":false,"internalType":"enum IRiverRegistryBase.NodeStatus"}],"anonymous":false},{"type":"event","name":"NodeRemoved","inputs":[{"name":"nodeAddress","type":"address","indexed":true,"internalType":"address"}],"anonymous":false},{"type":"event","name":"NodeStatusUpdated","inputs":[{"name":"nodeAddress","type":"address","indexed":true,"internalType":"address"},{"name":"status","type":"uint8","indexed":false,"internalType":"enum IRiverRegistryBase.NodeStatus"}],"anonymous":false},{"type":"event","name":"NodeUrlUpdated","inputs":[{"name":"nodeAddress","type":"address","indexed":true,"internalType":"address"},{"name":"url","type":"string","indexed":false,"internalType":"string"}],"anonymous":false},{"type":"event","name":"OperatorAdded","inputs":[{"name":"operatorAddress","type":"address","indexed":true,"internalType":"address"}],"anonymous":false},{"type":"event","name":"OperatorRemoved","inputs":[{"name":"operatorAddress","type":"address","indexed":true,"internalType":"address"}],"anonymous":false},{"type":"event","name":"OwnershipTransferred","inputs":[{"name":"previousOwner","type":"address","indexed":true,"internalType":"address"},{"name":"newOwner","type":"address","indexed":true,"internalType":"address"}],"anonymous":false},{"type":"event","name":"StreamAllocated","inputs":[{"name":"streamId","type":"bytes32","indexed":false,"internalType":"bytes32"},{"name":"nodes","type":"address[]","indexed":false,"internalType":"address[]"},{"name":"genesisMiniblockHash","type":"bytes32","indexed":false,"internalType":"bytes32"},{"name":"genesisMiniblock","type":"bytes","indexed":false,"internalType":"bytes"}],"anonymous":false},{"type":"event","name":"StreamLastMiniblockUpdated","inputs":[{"name":"streamId","type":"bytes32","indexed":false,"internalType":"bytes32"},{"name":"lastMiniblockHash","type":"bytes32","indexed":false,"internalType":"bytes32"},{"name":"lastMiniblockNum","type":"uint64","indexed":false,"internalType":"uint64"},{"name":"isSealed","type":"bool","indexed":false,"internalType":"bool"}],"anonymous":false},{"type":"event","name":"StreamPlacementUpdated","inputs":[{"name":"streamId","type":"bytes32","indexed":false,"internalType":"bytes32"},{"name":"nodeAddress","type":"address","indexed":false,"internalType":"address"},{"name":"isAdded","type":"bool","indexed":false,"internalType":"bool"}],"anonymous":false},{"type":"error","name":"Initializable_InInitializingState","inputs":[]},{"type":"error","name":"Initializable_NotInInitializingState","inputs":[]},{"type":"error","name":"Introspection_AlreadySupported","inputs":[]},{"type":"error","name":"Introspection_NotSupported","inputs":[]},{"type":"error","name":"Ownable__NotOwner","inputs":[{"name":"account","type":"address","internalType":"address"}]},{"type":"error","name":"Ownable__ZeroAddress","inputs":[]}],"bytecode":{"object":"0x60806040523480156200001157600080fd5b50604051620033fe380380620033fe8339810160408190526200003491620002c5565b6200003e6200005b565b620000498162000103565b620000543362000174565b50620003ad565b7f2d0d21306acfe8e9bb163a4573e95aff6cef95dc1102c6a16d5f19eac08cc4de8054640100000000900460ff1615620000a8576040516366008a2d60e01b815260040160405180910390fd5b805463ffffffff90811610156200010057805463ffffffff191663ffffffff90811782556040519081527fe9c9b456cb2994b80aeef036cf59d26e9617df80f816a6ee5a5b4166e07e2f5c9060200160405180910390a15b50565b7f1320bfade83d725f4918cce6752986eeef865fd566a9348c57c798b58dfc7ea660005b82518110156200016f57620001658382815181106200014a576200014a62000397565b6020026020010151836008016200022060201b90919060201c565b5060010162000127565b505050565b600062000197600080516020620033de833981519152546001600160a01b031690565b90506001600160a01b038216620001c157604051634e3ef82560e01b815260040160405180910390fd5b81600080516020620033de83398151915280546001600160a01b0319166001600160a01b03928316179055604051838216918316907f8be0079c531659141344cd1fd0a4f28419497f9722a3daafe3b4186f6b6457e090600090a35050565b600062000237836001600160a01b03841662000240565b90505b92915050565b600081815260018301602052604081205462000289575081546001818101845560008481526020808220909301849055845484825282860190935260409020919091556200023a565b5060006200023a565b634e487b7160e01b600052604160045260246000fd5b80516001600160a01b0381168114620002c057600080fd5b919050565b60006020808385031215620002d957600080fd5b82516001600160401b0380821115620002f157600080fd5b818501915085601f8301126200030657600080fd5b8151818111156200031b576200031b62000292565b8060051b604051601f19603f8301168101818110858211171562000343576200034362000292565b6040529182528482019250838101850191888311156200036257600080fd5b938501935b828510156200038b576200037b85620002a8565b8452938501939285019262000367565b98975050505050505050565b634e487b7160e01b600052603260045260246000fd5b61302180620003bd6000396000f3fe608060405234801561001057600080fd5b50600436106101425760003560e01c80637e4465e7116100b8578063ac8a584a1161007c578063ac8a584a146102c4578063b2b99ec9146102d7578063c0f22084146102ea578063c8fe3a01146102f2578063ee885b1214610307578063eecc66f41461031a57600080fd5b80637e4465e71461025457806386789fc6146102675780639d2090481461027c5780639ee86d381461029c578063a1174e7d146102af57600080fd5b80633bd84c0c1161010a5780633bd84c0c146101ce5780633c2544d1146101d6578063581f8b9b146101f8578063681a8d671461020b5780636b883c391461021e5780636d70f7ae1461023157600080fd5b80631290abe814610147578063242cae9f14610170578063286af2531461018557806332705ac41461019857806339bf397e146101b8575b600080fd5b61015a61015536600461262d565b61032d565b60405161016791906126e3565b60405180910390f35b61018361017e366004612712565b610454565b005b6101836101933660046127f9565b610583565b6101ab6101a6366004612712565b6105d9565b6040516101679190612835565b6101c06108a4565b604051908152602001610167565b6101ab6108be565b6101e96101e436600461262d565b610a4c565b604051610167939291906128fb565b61018361020636600461293f565b610c1d565b610183610219366004612972565b610dd6565b61018361022c366004612a24565b61101c565b61024461023f366004612712565b611295565b6040519015158152602001610167565b610183610262366004612ace565b6112a9565b61026f611493565b6040516101679190612b1b565b61028f61028a366004612712565b6114b0565b6040516101679190612beb565b6101836102aa366004612bfe565b61164e565b6102b7611803565b6040516101679190612c21565b6101836102d2366004612712565b6119f8565b6101836102e5366004612712565b611b88565b6101c0611bce565b6102fa611be0565b6040516101679190612cca565b610183610315366004612bfe565b611bfa565b610183610328366004612cdd565b611e45565b610335612523565b600061033f612015565b905061034b8184612039565b61038f5760408051808201825260098152681393d517d193d5539160ba1b6020820152905162461bcd60e51b81526103869190600401612d3a565b60405180910390fd5b600083815260028083016020908152604092839020835160c0810185528154815260018201546001600160401b0380821683860152600160401b8204811683880152600160801b820481166060840152600160c01b90910416608082015292810180548551818502810185019096528086529394919360a086019383018282801561044357602002820191906000526020600020905b81546001600160a01b03168152600190910190602001808311610425575b505050505081525050915050919050565b7fa7c3be20e3a76821507555109752fad8a6630ef0362a34dcfcdfef83c99a2537546001600160a01b031633146104a0576040516365f4906560e01b8152336004820152602401610386565b6001600160a01b0381166104e35760408051808201825260078152664241445f41524760c81b6020820152905162461bcd60e51b81526103869190600401612d3a565b60006104ed612015565b90506104fc6008820183612054565b1561053d57604080518082018252600e81526d414c52454144595f45584953545360901b6020820152905162461bcd60e51b81526103869190600401612d3a565b61054a6008820183612076565b506040516001600160a01b038316907fac6fa858e9350a46cec16539926e0fde25b7629f84b5a72bffaae4df888ae86d90600090a25050565b7f2d0d21306acfe8e9bb163a4573e95aff6cef95dc1102c6a16d5f19eac08cc4de54640100000000900460ff166105cd57604051630ef4733760e31b815260040160405180910390fd5b6105d68161208b565b50565b606060006105e5612015565b905060006105f2826120a4565b6001600160401b038111156106095761060961272d565b604051908082528060200260200182016040528015610632578160200160208202803683370190505b5090506000805b610642846120a4565b8110156106f957600061065585836120ae565b600081815260028701602052604081209192505b60028201548110156106eb57886001600160a01b031682600201828154811061069457610694612d4d565b6000918252602090912001546001600160a01b0316036106e3578286866106ba81612d79565b975063ffffffff16815181106106d2576106d2612d4d565b6020026020010181815250506106eb565b600101610669565b505050806001019050610639565b5060008163ffffffff166001600160401b0381111561071a5761071a61272d565b60405190808252806020026020018201604052801561075357816020015b61074061255a565b8152602001906001900390816107385790505b50905060005b8263ffffffff1681101561089a57604051806040016040528085838151811061078457610784612d4d565b602002602001015181526020018660020160008785815181106107a9576107a9612d4d565b6020908102919091018101518252818101929092526040908101600020815160c0810183528154815260018201546001600160401b0380821683870152600160401b8204811683860152600160801b820481166060840152600160c01b9091041660808201526002820180548451818702810187019095528085529194929360a086019390929083018282801561086957602002820191906000526020600020905b81546001600160a01b0316815260019091019060200180831161084b575b50505050508152505081525082828151811061088757610887612d4d565b6020908102919091010152600101610759565b5095945050505050565b60006108b96108b1612015565b6005016120a4565b905090565b606060006108ca612015565b905060006108d7826120a4565b6001600160401b038111156108ee576108ee61272d565b60405190808252806020026020018201604052801561092757816020015b61091461255a565b81526020019060019003908161090c5790505b50905060005b610936836120a4565b811015610a4557600061094984836120ae565b60408051808201825282815260008381526002808901602090815291849020845160c0810186528154815260018201546001600160401b0380821683870152600160401b8204811683890152600160801b820481166060840152600160c01b90910416608082015291810180548651818602810186019097528087529697509395838701959294919360a0860193929190830182828015610a1357602002820191906000526020600020905b81546001600160a01b031681526001909101906020018083116109f5575b505050505081525050815250838381518110610a3157610a31612d4d565b60209081029190910101525060010161092d565b5092915050565b610a54612523565b600060606000610a62612015565b9050610a6e8186612039565b610aa95760408051808201825260098152681393d517d193d5539160ba1b6020820152905162461bcd60e51b81526103869190600401612d3a565b60008581526002808301602090815260408084206004860183528185205460038701845294829020825160c0810184528254815260018301546001600160401b0380821683880152600160401b8204811683870152600160801b820481166060840152600160c01b909104166080820152948201805484518187028101870190955280855292969591949193879360a0860193919291830182828015610b7857602002820191906000526020600020905b81546001600160a01b03168152600190910190602001808311610b5a575b5050505050815250509250808054610b8f90612d9c565b80601f0160208091040260200160405190810160405280929190818152602001828054610bbb90612d9c565b8015610c085780601f10610bdd57610100808354040283529160200191610c08565b820191906000526020600020905b815481529060010190602001808311610beb57829003601f168201915b50505050509050935093509350509193909250565b610c3233610c29612015565b60080190612054565b610c6c5760408051808201825260088152670848288be82aaa8960c31b6020820152905162461bcd60e51b81526103869190600401612d3a565b6000610c76612015565b9050610c856005820184612054565b610cc557604080518082018252600e81526d1393d11157d393d517d193d5539160921b6020820152905162461bcd60e51b81526103869190600401612d3a565b6001600160a01b0383811660009081526007830160205260409020600201546101009004163314610d265760408051808201825260088152670848288be82aaa8960c31b6020820152905162461bcd60e51b81526103869190600401612d3a565b6001600160a01b0383166000908152600782016020526040902060020154610d519060ff16836120ba565b6001600160a01b03831660009081526007820160205260409020600201805483919060ff19166001836004811115610d8b57610d8b612b5f565b0217905550336001600160a01b03167f20891cc7622c7951cbd8c70c61a5201eb45625b8c00e8f6c986cfca78f3dbfa083604051610dc99190612dd6565b60405180910390a2505050565b610deb33610de2612015565b60050190612054565b610e255760408051808201825260088152670848288be82aaa8960c31b6020820152905162461bcd60e51b81526103869190600401612d3a565b6000610e2f612015565b9050610e3b8186612039565b610e765760408051808201825260098152681393d517d193d5539160ba1b6020820152905162461bcd60e51b81526103869190600401612d3a565b60008581526002820160205260409020600180820154600160401b90041615610ed457604080518082018252600d81526c14d51491505357d4d150531151609a1b6020820152905162461bcd60e51b81526103869190600401612d3a565b6001808201546001600160401b0380871692610ef39290911690612de4565b6001600160401b031614610f365760408051808201825260078152664241445f41524760c81b6020820152905162461bcd60e51b81526103869190600401612d3a565b84815560018101805467ffffffffffffffff19166001600160401b0386161790558215610f9557600181810180546fffffffffffffffff0000000000000000198116600160401b918290046001600160401b0316909317029190911790555b836001600160401b0316600103610fbf5760008681526003830160205260408120610fbf91612579565b60408051878152602081018790526001600160401b0386169181019190915283151560608201527fccc26bbb6dd655ea0bb8a40a3c30e35c6bdf42f8faf0d71bbea897af768cda8b906080015b60405180910390a1505050505050565b61102833610de2612015565b6110625760408051808201825260088152670848288be82aaa8960c31b6020820152905162461bcd60e51b81526103869190600401612d3a565b600061106c612015565b90506110788186612039565b156110b957604080518082018252600e81526d414c52454144595f45584953545360901b6020820152905162461bcd60e51b81526103869190600401612d3a565b60005b845181101561113c576110f48582815181106110da576110da612d4d565b60200260200101518360050161205490919063ffffffff16565b61113457604080518082018252600e81526d1393d11157d393d517d193d5539160921b6020820152905162461bcd60e51b81526103869190600401612d3a565b6001016110bc565b506040805160c08101825284815260006020820181905291810182905260608101829052608081019190915260a0810185905261117982876121fa565b50600086815260028084016020908152604092839020845181558185015160018201805495870151606088015160808901516001600160401b03908116600160c01b026001600160c01b03928216600160801b02929092166fffffffffffffffffffffffffffffffff938216600160401b026fffffffffffffffffffffffffffffffff19909a1691909516179790971716919091179490941790935560a0840151805185949361122e939085019201906125b3565b5050506000868152600383016020526040902061124b8482612e54565b50600086815260048301602052604090819020859055517f55ef7efc60ef99743e54209752c9a8e047e013917ec91572db75875069dd65bb9061100c908890889088908890612f13565b60006112a382610c29612015565b92915050565b6112b533610c29612015565b6112ef5760408051808201825260088152670848288be82aaa8960c31b6020820152905162461bcd60e51b81526103869190600401612d3a565b60006112f9612015565b90506113086005820184612054565b61134857604080518082018252600e81526d1393d11157d393d517d193d5539160921b6020820152905162461bcd60e51b81526103869190600401612d3a565b6001600160a01b0380841660009081526007830160205260409020600281015490916101009091041633146113ad5760408051808201825260088152670848288be82aaa8960c31b6020820152905162461bcd60e51b81526103869190600401612d3a565b826040516020016113be9190612f44565b60405160208183030381529060405280519060200120816001016040516020016113e89190612f60565b60405160208183030381529060405280519060200120036114385760408051808201825260078152664241445f41524760c81b6020820152905162461bcd60e51b81526103869190600401612d3a565b600181016114468482612e54565b5080546040516001600160a01b03909116907f4505168a8705a16fd4d0575197fd0f510db69df93a065e158ad2c0957ba12bac90611485908690612d3a565b60405180910390a250505050565b6060600061149f612015565b90506114aa81612206565b91505090565b6114db6040805160808101825260008082526060602083015290918201908152600060209091015290565b60006114e5612015565b90506114f46005820184612054565b61153457604080518082018252600e81526d1393d11157d393d517d193d5539160921b6020820152905162461bcd60e51b81526103869190600401612d3a565b6001600160a01b038084166000908152600783016020908152604091829020825160808101909352805490931682526001830180549293929184019161157990612d9c565b80601f01602080910402602001604051908101604052809291908181526020018280546115a590612d9c565b80156115f25780601f106115c7576101008083540402835291602001916115f2565b820191906000526020600020905b8154815290600101906020018083116115d557829003601f168201915b5050509183525050600282015460209091019060ff16600481111561161957611619612b5f565b600481111561162a5761162a612b5f565b81526002919091015461010090046001600160a01b03166020909101529392505050565b6000611658612015565b90506116648184612039565b61169f5760408051808201825260098152681393d517d193d5539160ba1b6020820152905162461bcd60e51b81526103869190600401612d3a565b6116ac6005820183612054565b6116ec57604080518082018252600e81526d1393d11157d393d517d193d5539160921b6020820152905162461bcd60e51b81526103869190600401612d3a565b60008381526002820160205260408120905b600282015481101561178757836001600160a01b031682600201828154811061172957611729612d4d565b6000918252602090912001546001600160a01b03160361177f57604080518082018252600e81526d414c52454144595f45584953545360901b6020820152905162461bcd60e51b81526103869190600401612d3a565b6001016116fe565b5060028101805460018082018355600092835260209283902090910180546001600160a01b0319166001600160a01b03871690811790915560408051888152938401919091528201527faaa473c28a5fe04b6a7ecd795826e462f9d0c23f00ef9f51ec02fa6ea418806f9060600160405180910390a150505050565b6060600061180f612015565b9050600061181f826005016120a4565b6001600160401b038111156118365761183661272d565b60405190808252806020026020018201604052801561189257816020015b61187f6040805160808101825260008082526060602083015290918201908152600060209091015290565b8152602001906001900390816118545790505b50905060005b6118a4836005016120a4565b811015610a45576007830160006118be60058601846120ae565b6001600160a01b039081168252602080830193909352604091820160002082516080810190935280549091168252600181018054929391929184019161190390612d9c565b80601f016020809104026020016040519081016040528092919081815260200182805461192f90612d9c565b801561197c5780601f106119515761010080835404028352916020019161197c565b820191906000526020600020905b81548152906001019060200180831161195f57829003601f168201915b5050509183525050600282015460209091019060ff1660048111156119a3576119a3612b5f565b60048111156119b4576119b4612b5f565b81526002919091015461010090046001600160a01b031660209091015282518390839081106119e5576119e5612d4d565b6020908102919091010152600101611898565b7fa7c3be20e3a76821507555109752fad8a6630ef0362a34dcfcdfef83c99a2537546001600160a01b03163314611a44576040516365f4906560e01b8152336004820152602401610386565b6000611a4e612015565b9050611a5d6008820183612054565b611aa157604080518082018252601281527113d41154905513d497d393d517d193d5539160721b6020820152905162461bcd60e51b81526103869190600401612d3a565b60005b611ab0826005016120a4565b811015611b41576001600160a01b038316600783016000611ad460058601856120ae565b6001600160a01b03908116825260208201929092526040016000206002015461010090041603611b3957604080518082018252600d81526c4f55545f4f465f424f554e445360981b6020820152905162461bcd60e51b81526103869190600401612d3a565b600101611aa4565b50611b4f6008820183612213565b506040516001600160a01b038316907f80c0b871b97b595b16a7741c1b06fed0c6f6f558639f18ccbce50724325dc40d90600090a25050565b611b9433610c29612015565b6105d65760408051808201825260088152670848288be82aaa8960c31b6020820152905162461bcd60e51b81526103869190600401612d3a565b60006108b9611bdb612015565b6120a4565b60606000611bec612015565b90506114aa81600501612206565b6000611c04612015565b9050611c108184612039565b611c4b5760408051808201825260098152681393d517d193d5539160ba1b6020820152905162461bcd60e51b81526103869190600401612d3a565b611c586005820183612054565b611c9857604080518082018252600e81526d1393d11157d393d517d193d5539160921b6020820152905162461bcd60e51b81526103869190600401612d3a565b6000838152600282016020526040812090805b6002830154811015611db457846001600160a01b0316836002018281548110611cd657611cd6612d4d565b6000918252602090912001546001600160a01b031603611dac57600283018054611d0290600190612fd6565b81548110611d1257611d12612d4d565b6000918252602090912001546002840180546001600160a01b039092169183908110611d4057611d40612d4d565b9060005260206000200160006101000a8154816001600160a01b0302191690836001600160a01b0316021790555082600201805480611d8157611d81612fe9565b600082815260209020810160001990810180546001600160a01b031916905501905560019150611db4565b600101611cab565b5080611df657604080518082018252600e81526d1393d11157d393d517d193d5539160921b6020820152905162461bcd60e51b81526103869190600401612d3a565b604080518681526001600160a01b038616602082015260008183015290517faaa473c28a5fe04b6a7ecd795826e462f9d0c23f00ef9f51ec02fa6ea418806f9181900360600190a15050505050565b611e5133610c29612015565b611e8b5760408051808201825260088152670848288be82aaa8960c31b6020820152905162461bcd60e51b81526103869190600401612d3a565b6000611e95612015565b9050611ea46005820185612054565b15611ee557604080518082018252600e81526d414c52454144595f45584953545360901b6020820152905162461bcd60e51b81526103869190600401612d3a565b60006040518060800160405280866001600160a01b03168152602001858152602001846004811115611f1957611f19612b5f565b8152336020909101529050611f316005830186612076565b506001600160a01b0385811660009081526007840160209081526040909120835181546001600160a01b03191693169290921782558201518291906001820190611f7b9082612e54565b50604082015160028201805460ff19166001836004811115611f9f57611f9f612b5f565b02179055506060919091015160029091018054610100600160a81b0319166101006001600160a01b0393841602179055604051908616907fd6f3629b08191adb8308c3a65d5f8803b7f8f3e359c433fa7ae623276635e56190612006908790600090612fff565b60405180910390a25050505050565b7f1320bfade83d725f4918cce6752986eeef865fd566a9348c57c798b58dfc7ea690565b600081815260018301602052604081205415155b9392505050565b6001600160a01b0381166000908152600183016020526040812054151561204d565b600061204d836001600160a01b038416612228565b61209b6340eb0bb760e01b612277565b6105d681612355565b60006112a3825490565b600061204d83836123aa565b60008260048111156120ce576120ce612b5f565b1480612122575060018260048111156120e9576120e9612b5f565b1480156121225750600381600481111561210557612105612b5f565b14806121225750600481600481111561212057612120612b5f565b145b806121755750600282600481111561213c5761213c612b5f565b1480156121755750600381600481111561215857612158612b5f565b14806121755750600481600481111561217357612173612b5f565b145b806121ad5750600482600481111561218f5761218f612b5f565b1480156121ad575060038160048111156121ab576121ab612b5f565b145b156121b6575050565b60408051808201825260168152751393d11157d4d510551157d393d517d0531313d5d15160521b6020820152905162461bcd60e51b81526103869190600401612d3a565b600061204d8383612228565b6060600061204d836123d4565b600061204d836001600160a01b038416612430565b600081815260018301602052604081205461226f575081546001818101845560008481526020808220909301849055845484825282860190935260409020919091556112a3565b5060006112a3565b6001600160e01b0319811660009081527fbc7de460bcfb6afd0c415c8c610d408bd914b18d7d0feec0da9e25348087a5c4602052604090205460ff161515600114612304576001600160e01b0319811660009081527fbc7de460bcfb6afd0c415c8c610d408bd914b18d7d0feec0da9e25348087a5c460205260409020805460ff1916600117905561231d565b604051637967f77d60e11b815260040160405180910390fd5b6040516001600160e01b03198216907f78f84e5b1c5c05be2b5ad3800781dd404d6d6c6302bc755c0fe20f58a33a7f2290600090a250565b600061235f612015565b905060005b82518110156123a55761239c83828151811061238257612382612d4d565b60200260200101518360080161207690919063ffffffff16565b50600101612364565b505050565b60008260000182815481106123c1576123c1612d4d565b9060005260206000200154905092915050565b60608160000180548060200260200160405190810160405280929190818152602001828054801561242457602002820191906000526020600020905b815481526020019060010190808311612410575b50505050509050919050565b60008181526001830160205260408120548015612519576000612454600183612fd6565b855490915060009061246890600190612fd6565b90508181146124cd57600086600001828154811061248857612488612d4d565b90600052602060002001549050808760000184815481106124ab576124ab612d4d565b6000918252602080832090910192909255918252600188019052604090208390555b85548690806124de576124de612fe9565b6001900381819060005260206000200160009055905585600101600086815260200190815260200160002060009055600193505050506112a3565b60009150506112a3565b6040805160c0810182526000808252602082018190529181018290526060808201839052608082019290925260a081019190915290565b604080518082019091526000815260208101612574612523565b905290565b50805461258590612d9c565b6000825580601f10612595575050565b601f0160209004906000526020600020908101906105d69190612618565b828054828255906000526020600020908101928215612608579160200282015b8281111561260857825182546001600160a01b0319166001600160a01b039091161782556020909201916001909101906125d3565b50612614929150612618565b5090565b5b808211156126145760008155600101612619565b60006020828403121561263f57600080fd5b5035919050565b600060c08301825184526020808401516001600160401b038082166020880152806040870151166040880152806060870151166060880152806080870151166080880152505060a084015160c060a087015282815180855260e088019150602083019450600092505b808310156126d85784516001600160a01b031682529383019360019290920191908301906126af565b509695505050505050565b60208152600061204d6020830184612646565b80356001600160a01b038116811461270d57600080fd5b919050565b60006020828403121561272457600080fd5b61204d826126f6565b634e487b7160e01b600052604160045260246000fd5b604051601f8201601f191681016001600160401b038111828210171561276b5761276b61272d565b604052919050565b600082601f83011261278457600080fd5b813560206001600160401b0382111561279f5761279f61272d565b8160051b6127ae828201612743565b92835284810182019282810190878511156127c857600080fd5b83870192505b848310156127ee576127df836126f6565b825291830191908301906127ce565b979650505050505050565b60006020828403121561280b57600080fd5b81356001600160401b0381111561282157600080fd5b61282d84828501612773565b949350505050565b600060208083018184528085518083526040925060408601915060408160051b87010184880160005b8381101561289d57888303603f1901855281518051845287015187840187905261288a87850182612646565b958801959350509086019060010161285e565b509098975050505050505050565b60005b838110156128c65781810151838201526020016128ae565b50506000910152565b600081518084526128e78160208601602086016128ab565b601f01601f19169290920160200192915050565b60608152600061290e6060830186612646565b846020840152828103604084015261292681856128cf565b9695505050505050565b80356005811061270d57600080fd5b6000806040838503121561295257600080fd5b61295b836126f6565b915061296960208401612930565b90509250929050565b6000806000806080858703121561298857600080fd5b843593506020850135925060408501356001600160401b03811681146129ad57600080fd5b9150606085013580151581146129c257600080fd5b939692955090935050565b60006001600160401b038311156129e6576129e661272d565b6129f9601f8401601f1916602001612743565b9050828152838383011115612a0d57600080fd5b828260208301376000602084830101529392505050565b60008060008060808587031215612a3a57600080fd5b8435935060208501356001600160401b0380821115612a5857600080fd5b612a6488838901612773565b9450604087013593506060870135915080821115612a8157600080fd5b508501601f81018713612a9357600080fd5b612aa2878235602084016129cd565b91505092959194509250565b600082601f830112612abf57600080fd5b61204d838335602085016129cd565b60008060408385031215612ae157600080fd5b612aea836126f6565b915060208301356001600160401b03811115612b0557600080fd5b612b1185828601612aae565b9150509250929050565b6020808252825182820181905260009190848201906040850190845b81811015612b5357835183529284019291840191600101612b37565b50909695505050505050565b634e487b7160e01b600052602160045260246000fd5b60058110612b9357634e487b7160e01b600052602160045260246000fd5b9052565b600060018060a01b03808351168452602083015160806020860152612bbf60808601826128cf565b90506040840151612bd36040870182612b75565b50816060850151166060860152809250505092915050565b60208152600061204d6020830184612b97565b60008060408385031215612c1157600080fd5b82359150612969602084016126f6565b600060208083016020845280855180835260408601915060408160051b87010192506020870160005b82811015612c7857603f19888603018452612c66858351612b97565b94509285019290850190600101612c4a565b5092979650505050505050565b60008151808452602080850194506020840160005b83811015612cbf5781516001600160a01b031687529582019590820190600101612c9a565b509495945050505050565b60208152600061204d6020830184612c85565b600080600060608486031215612cf257600080fd5b612cfb846126f6565b925060208401356001600160401b03811115612d1657600080fd5b612d2286828701612aae565b925050612d3160408501612930565b90509250925092565b60208152600061204d60208301846128cf565b634e487b7160e01b600052603260045260246000fd5b634e487b7160e01b600052601160045260246000fd5b600063ffffffff808316818103612d9257612d92612d63565b6001019392505050565b600181811c90821680612db057607f821691505b602082108103612dd057634e487b7160e01b600052602260045260246000fd5b50919050565b602081016112a38284612b75565b6001600160401b03818116838216019080821115610a4557610a45612d63565b601f8211156123a5576000816000526020600020601f850160051c81016020861015612e2d5750805b601f850160051c820191505b81811015612e4c57828155600101612e39565b505050505050565b81516001600160401b03811115612e6d57612e6d61272d565b612e8181612e7b8454612d9c565b84612e04565b602080601f831160018114612eb65760008415612e9e5750858301515b600019600386901b1c1916600185901b178555612e4c565b600085815260208120601f198616915b82811015612ee557888601518255948401946001909101908401612ec6565b5085821015612f035787850151600019600388901b60f8161c191681555b5050505050600190811b01905550565b848152608060208201526000612f2c6080830186612c85565b84604084015282810360608401526127ee81856128cf565b60008251612f568184602087016128ab565b9190910192915050565b6000808354612f6e81612d9c565b60018281168015612f865760018114612f9b57612fca565b60ff1984168752821515830287019450612fca565b8760005260208060002060005b85811015612fc15781548a820152908401908201612fa8565b50505082870194505b50929695505050505050565b818103818111156112a3576112a3612d63565b634e487b7160e01b600052603160045260246000fd5b60408152600061301260408301856128cf565b905061204d6020830184612b7556a7c3be20e3a76821507555109752fad8a6630ef0362a34dcfcdfef83c99a2537","linkReferences":{}},"methodIdentifiers":{"__RiverRegistry_init(address[])":"286af253","allocateStream(bytes32,address[],bytes32,bytes)":"6b883c39","approveOperator(address)":"242cae9f","getAllNodeAddresses()":"c8fe3a01","getAllNodes()":"a1174e7d","getAllStreamIds()":"86789fc6","getAllStreams()":"3bd84c0c","getNode(address)":"9d209048","getNodeCount()":"39bf397e","getStream(bytes32)":"1290abe8","getStreamCount()":"c0f22084","getStreamWithGenesis(bytes32)":"3c2544d1","getStreamsOnNode(address)":"32705ac4","isOperator(address)":"6d70f7ae","placeStreamOnNode(bytes32,address)":"9ee86d38","registerNode(address,string,uint8)":"eecc66f4","removeNode(address)":"b2b99ec9","removeOperator(address)":"ac8a584a","removeStreamFromNode(bytes32,address)":"ee885b12","setStreamLastMiniblock(bytes32,bytes32,uint64,bool)":"681a8d67","updateNodeStatus(address,uint8)":"581f8b9b","updateNodeUrl(address,string)":"7e4465e7"},"id":285}