{"abi":[{"type":"function","name":"getAllNodeAddresses","inputs":[],"outputs":[{"name":"","type":"address[]","internalType":"address[]"}],"stateMutability":"view"},{"type":"function","name":"getAllNodes","inputs":[],"outputs":[{"name":"","type":"tuple[]","internalType":"struct Node[]","components":[{"name":"status","type":"uint8","internalType":"enum NodeStatus"},{"name":"url","type":"string","internalType":"string"},{"name":"nodeAddress","type":"address","internalType":"address"},{"name":"operator","type":"address","internalType":"address"}]}],"stateMutability":"view"},{"type":"function","name":"getNode","inputs":[{"name":"nodeAddress","type":"address","internalType":"address"}],"outputs":[{"name":"","type":"tuple","internalType":"struct Node","components":[{"name":"status","type":"uint8","internalType":"enum NodeStatus"},{"name":"url","type":"string","internalType":"string"},{"name":"nodeAddress","type":"address","internalType":"address"},{"name":"operator","type":"address","internalType":"address"}]}],"stateMutability":"view"},{"type":"function","name":"getNodeCount","inputs":[],"outputs":[{"name":"","type":"uint256","internalType":"uint256"}],"stateMutability":"view"},{"type":"function","name":"registerNode","inputs":[{"name":"nodeAddress","type":"address","internalType":"address"},{"name":"url","type":"string","internalType":"string"},{"name":"status","type":"uint8","internalType":"enum NodeStatus"}],"outputs":[],"stateMutability":"nonpayable"},{"type":"function","name":"removeNode","inputs":[{"name":"nodeAddress","type":"address","internalType":"address"}],"outputs":[],"stateMutability":"nonpayable"},{"type":"function","name":"updateNodeStatus","inputs":[{"name":"nodeAddress","type":"address","internalType":"address"},{"name":"status","type":"uint8","internalType":"enum NodeStatus"}],"outputs":[],"stateMutability":"nonpayable"},{"type":"function","name":"updateNodeUrl","inputs":[{"name":"nodeAddress","type":"address","internalType":"address"},{"name":"url","type":"string","internalType":"string"}],"outputs":[],"stateMutability":"nonpayable"},{"type":"event","name":"NodeAdded","inputs":[{"name":"nodeAddress","type":"address","indexed":true,"internalType":"address"},{"name":"url","type":"string","indexed":false,"internalType":"string"},{"name":"status","type":"uint8","indexed":false,"internalType":"enum NodeStatus"}],"anonymous":false},{"type":"event","name":"NodeRemoved","inputs":[{"name":"nodeAddress","type":"address","indexed":true,"internalType":"address"}],"anonymous":false},{"type":"event","name":"NodeStatusUpdated","inputs":[{"name":"nodeAddress","type":"address","indexed":true,"internalType":"address"},{"name":"status","type":"uint8","indexed":false,"internalType":"enum NodeStatus"}],"anonymous":false},{"type":"event","name":"NodeUrlUpdated","inputs":[{"name":"nodeAddress","type":"address","indexed":true,"internalType":"address"},{"name":"url","type":"string","indexed":false,"internalType":"string"}],"anonymous":false}],"bytecode":{"object":"0x608060405234801561001057600080fd5b50611627806100206000396000f3fe608060405234801561001057600080fd5b50600436106100885760003560e01c8063a1174e7d1161005b578063a1174e7d146100f0578063b2b99ec914610105578063c8fe3a0114610118578063eecc66f41461012d57600080fd5b806339bf397e1461008d578063581f8b9b146100a85780637e4465e7146100bd5780639d209048146100d0575b600080fd5b610095610140565b6040519081526020015b60405180910390f35b6100bb6100b6366004611083565b610151565b005b6100bb6100cb366004611159565b61032b565b6100e36100de3660046111a7565b610554565b60405161009f919061129e565b6100f86106d5565b60405161009f91906112b1565b6100bb6101133660046111a7565b6108b0565b610120610a6c565b60405161009f9190611315565b6100bb61013b366004611362565b610a78565b600061014c6005610c2f565b905090565b8161015d600582610c3f565b6101a05760408051808201825260088152670848288be82aaa8960c31b6020820152905162461bcd60e51b815261019791906004016113c0565b60405180910390fd5b336101ac600882610c3f565b6101e65760408051808201825260088152670848288be82aaa8960c31b6020820152905162461bcd60e51b815261019791906004016113c0565b6001600160a01b03808516600090815260076020526040902060030154859133911681146102445760408051808201825260088152670848288be82aaa8960c31b6020820152905162461bcd60e51b815261019791906004016113c0565b61024f600587610c3f565b61028f57604080518082018252600e81526d1393d11157d393d517d193d5539160921b6020820152905162461bcd60e51b815261019791906004016113c0565b6001600160a01b038616600090815260076020526040902080546102b69060ff1687610c64565b80548690829060ff191660018360058111156102d4576102d46111c2565b021790555060028101546040516001600160a01b03909116907f20891cc7622c7951cbd8c70c61a5201eb45625b8c00e8f6c986cfca78f3dbfa09061031a9089906113d3565b60405180910390a250505050505050565b33610337600882610c3f565b6103715760408051808201825260088152670848288be82aaa8960c31b6020820152905162461bcd60e51b815261019791906004016113c0565b8261037d600582610c3f565b6103b75760408051808201825260088152670848288be82aaa8960c31b6020820152905162461bcd60e51b815261019791906004016113c0565b6001600160a01b03808516600090815260076020526040902060030154859133911681146104155760408051808201825260088152670848288be82aaa8960c31b6020820152905162461bcd60e51b815261019791906004016113c0565b610420600587610c3f565b61046057604080518082018252600e81526d1393d11157d393d517d193d5539160921b6020820152905162461bcd60e51b815261019791906004016113c0565b6001600160a01b038616600090815260076020908152604091829020915161048a918891016113e1565b60405160208183030381529060405280519060200120816001016040516020016104b49190611431565b60405160208183030381529060405280519060200120036105045760408051808201825260078152664241445f41524760c81b6020820152905162461bcd60e51b815261019791906004016113c0565b6001810161051287826114f8565b5060028101546040516001600160a01b03909116907f4505168a8705a16fd4d0575197fd0f510db69df93a065e158ad2c0957ba12bac9061031a9089906113c0565b61057f6040805160808101909152806000815260606020820181905260006040830181905291015290565b61058a600583610c3f565b6105ca57604080518082018252600e81526d1393d11157d393d517d193d5539160921b6020820152905162461bcd60e51b815261019791906004016113c0565b6001600160a01b038216600090815260076020526040908190208151608081019092528054829060ff166005811115610605576106056111c2565b6005811115610616576106166111c2565b815260200160018201805461062a906113fd565b80601f0160208091040260200160405190810160405280929190818152602001828054610656906113fd565b80156106a35780601f10610678576101008083540402835291602001916106a3565b820191906000526020600020905b81548152906001019060200180831161068657829003601f168201915b505050918352505060028201546001600160a01b03908116602083015260039092015490911660409091015292915050565b606060006106e36005610c2f565b67ffffffffffffffff8111156106fb576106fb6110b6565b60405190808252806020026020018201604052801561075757816020015b6107446040805160808101909152806000815260606020820181905260006040830181905291015290565b8152602001906001900390816107195790505b50905060005b6107676005610c2f565b8110156108aa576007600061077d600584610df7565b6001600160a01b03168152602081019190915260409081016000208151608081019092528054829060ff1660058111156107b9576107b96111c2565b60058111156107ca576107ca6111c2565b81526020016001820180546107de906113fd565b80601f016020809104026020016040519081016040528092919081815260200182805461080a906113fd565b80156108575780601f1061082c57610100808354040283529160200191610857565b820191906000526020600020905b81548152906001019060200180831161083a57829003601f168201915b505050918352505060028201546001600160a01b0390811660208301526003909201549091166040909101528251839083908110610897576108976115b8565b602090810291909101015260010161075d565b50919050565b6001600160a01b038082166000908152600760205260409020600301548291339116811461090e5760408051808201825260088152670848288be82aaa8960c31b6020820152905162461bcd60e51b815261019791906004016113c0565b610919600584610c3f565b61095957604080518082018252600e81526d1393d11157d393d517d193d5539160921b6020820152905162461bcd60e51b815261019791906004016113c0565b60056001600160a01b03841660009081526007602052604090205460ff166005811115610988576109886111c2565b14604051806040016040528060168152602001751393d11157d4d510551157d393d517d0531313d5d15160521b815250906109d65760405162461bcd60e51b815260040161019791906113c0565b506109e2600584610e03565b506001600160a01b0383166000908152600760205260408120805460ff1916815590610a116001830182611002565b506002810180546001600160a01b03199081169091556003909101805490911690556040516001600160a01b038416907fcfc24166db4bb677e857cacabd1541fb2b30645021b27c5130419589b84db52b90600090a2505050565b606061014c6005610e18565b33610a84600882610c3f565b610abe5760408051808201825260088152670848288be82aaa8960c31b6020820152905162461bcd60e51b815261019791906004016113c0565b610ac9600585610c3f565b15610b0a57604080518082018252600e81526d414c52454144595f45584953545360901b6020820152905162461bcd60e51b815261019791906004016113c0565b60006040518060800160405280846005811115610b2957610b296111c2565b8152602081018690526001600160a01b0387166040820152336060909101529050610b55600586610e25565b506001600160a01b03851660009081526007602052604090208151815483929190829060ff19166001836005811115610b9057610b906111c2565b021790555060208201516001820190610ba990826114f8565b506040828101516002830180546001600160a01b03199081166001600160a01b039384161790915560609094015160039093018054909416928116929092179092559051908616907fd6f3629b08191adb8308c3a65d5f8803b7f8f3e359c433fa7ae623276635e56190610c2090879087906115ce565b60405180910390a25050505050565b6000610c39825490565b92915050565b6001600160a01b038116600090815260018301602052604081205415155b9392505050565b6000826005811115610c7857610c786111c2565b1480610ccc57506001826005811115610c9357610c936111c2565b148015610ccc57506003816005811115610caf57610caf6111c2565b1480610ccc57506004816005811115610cca57610cca6111c2565b145b80610d1f57506002826005811115610ce657610ce66111c2565b148015610d1f57506003816005811115610d0257610d026111c2565b1480610d1f57506004816005811115610d1d57610d1d6111c2565b145b80610d7257506004826005811115610d3957610d396111c2565b148015610d7257506003816005811115610d5557610d556111c2565b1480610d7257506005816005811115610d7057610d706111c2565b145b80610daa57506003826005811115610d8c57610d8c6111c2565b148015610daa57506005816005811115610da857610da86111c2565b145b15610db3575050565b60408051808201825260168152751393d11157d4d510551157d393d517d0531313d5d15160521b6020820152905162461bcd60e51b815261019791906004016113c0565b6000610c5d8383610e3a565b6000610c5d836001600160a01b038416610e64565b60606000610c5d83610f57565b6000610c5d836001600160a01b038416610fb3565b6000826000018281548110610e5157610e516115b8565b9060005260206000200154905092915050565b60008181526001830160205260408120548015610f4d576000610e886001836115f0565b8554909150600090610e9c906001906115f0565b9050808214610f01576000866000018281548110610ebc57610ebc6115b8565b9060005260206000200154905080876000018481548110610edf57610edf6115b8565b6000918252602080832090910192909255918252600188019052604090208390555b8554869080610f1257610f12611611565b600190038181906000526020600020016000905590558560010160008681526020019081526020016000206000905560019350505050610c39565b6000915050610c39565b606081600001805480602002602001604051908101604052809291908181526020018280548015610fa757602002820191906000526020600020905b815481526020019060010190808311610f93575b50505050509050919050565b6000818152600183016020526040812054610ffa57508154600181810184556000848152602080822090930184905584548482528286019093526040902091909155610c39565b506000610c39565b50805461100e906113fd565b6000825580601f1061101e575050565b601f01602090049060005260206000209081019061103c919061103f565b50565b5b808211156110545760008155600101611040565b5090565b80356001600160a01b038116811461106f57600080fd5b919050565b80356006811061106f57600080fd5b6000806040838503121561109657600080fd5b61109f83611058565b91506110ad60208401611074565b90509250929050565b634e487b7160e01b600052604160045260246000fd5b600082601f8301126110dd57600080fd5b813567ffffffffffffffff808211156110f8576110f86110b6565b604051601f8301601f19908116603f01168101908282118183101715611120576111206110b6565b8160405283815286602085880101111561113957600080fd5b836020870160208301376000602085830101528094505050505092915050565b6000806040838503121561116c57600080fd5b61117583611058565b9150602083013567ffffffffffffffff81111561119157600080fd5b61119d858286016110cc565b9150509250929050565b6000602082840312156111b957600080fd5b610c5d82611058565b634e487b7160e01b600052602160045260246000fd5b600681106111f657634e487b7160e01b600052602160045260246000fd5b9052565b60005b838110156112155781810151838201526020016111fd565b50506000910152565b600081518084526112368160208601602086016111fa565b601f01601f19169290920160200192915050565b6112558282516111d8565b6000602082015160806020850152611270608085018261121e565b6040848101516001600160a01b03908116918701919091526060948501511693909401929092525090919050565b602081526000610c5d602083018461124a565b600060208083016020845280855180835260408601915060408160051b87010192506020870160005b8281101561130857603f198886030184526112f685835161124a565b945092850192908501906001016112da565b5092979650505050505050565b6020808252825182820181905260009190848201906040850190845b818110156113565783516001600160a01b031683529284019291840191600101611331565b50909695505050505050565b60008060006060848603121561137757600080fd5b61138084611058565b9250602084013567ffffffffffffffff81111561139c57600080fd5b6113a8868287016110cc565b9250506113b760408501611074565b90509250925092565b602081526000610c5d602083018461121e565b60208101610c3982846111d8565b600082516113f38184602087016111fa565b9190910192915050565b600181811c9082168061141157607f821691505b6020821081036108aa57634e487b7160e01b600052602260045260246000fd5b600080835461143f816113fd565b60018281168015611457576001811461146c5761149b565b60ff198416875282151583028701945061149b565b8760005260208060002060005b858110156114925781548a820152908401908201611479565b50505082870194505b50929695505050505050565b601f8211156114f3576000816000526020600020601f850160051c810160208610156114d05750805b601f850160051c820191505b818110156114ef578281556001016114dc565b5050505b505050565b815167ffffffffffffffff811115611512576115126110b6565b6115268161152084546113fd565b846114a7565b602080601f83116001811461155b57600084156115435750858301515b600019600386901b1c1916600185901b1785556114ef565b600085815260208120601f198616915b8281101561158a5788860151825594840194600190910190840161156b565b50858210156115a85787850151600019600388901b60f8161c191681555b5050505050600190811b01905550565b634e487b7160e01b600052603260045260246000fd5b6040815260006115e1604083018561121e565b9050610c5d60208301846111d8565b81810381811115610c3957634e487b7160e01b600052601160045260246000fd5b634e487b7160e01b600052603160045260246000fd","linkReferences":{}},"methodIdentifiers":{"getAllNodeAddresses()":"c8fe3a01","getAllNodes()":"a1174e7d","getNode(address)":"9d209048","getNodeCount()":"39bf397e","registerNode(address,string,uint8)":"eecc66f4","removeNode(address)":"b2b99ec9","updateNodeStatus(address,uint8)":"581f8b9b","updateNodeUrl(address,string)":"7e4465e7"},"id":35}