{"abi":[{"type":"function","name":"getAllNodeAddresses","inputs":[],"outputs":[{"name":"","type":"address[]","internalType":"address[]"}],"stateMutability":"view"},{"type":"function","name":"getAllNodes","inputs":[],"outputs":[{"name":"","type":"tuple[]","internalType":"struct Node[]","components":[{"name":"status","type":"uint8","internalType":"enum NodeStatus"},{"name":"url","type":"string","internalType":"string"},{"name":"nodeAddress","type":"address","internalType":"address"},{"name":"operator","type":"address","internalType":"address"}]}],"stateMutability":"view"},{"type":"function","name":"getNode","inputs":[{"name":"nodeAddress","type":"address","internalType":"address"}],"outputs":[{"name":"","type":"tuple","internalType":"struct Node","components":[{"name":"status","type":"uint8","internalType":"enum NodeStatus"},{"name":"url","type":"string","internalType":"string"},{"name":"nodeAddress","type":"address","internalType":"address"},{"name":"operator","type":"address","internalType":"address"}]}],"stateMutability":"view"},{"type":"function","name":"getNodeCount","inputs":[],"outputs":[{"name":"","type":"uint256","internalType":"uint256"}],"stateMutability":"view"},{"type":"function","name":"isNode","inputs":[{"name":"nodeAddress","type":"address","internalType":"address"}],"outputs":[{"name":"","type":"bool","internalType":"bool"}],"stateMutability":"view"},{"type":"function","name":"registerNode","inputs":[{"name":"nodeAddress","type":"address","internalType":"address"},{"name":"url","type":"string","internalType":"string"},{"name":"status","type":"uint8","internalType":"enum NodeStatus"}],"outputs":[],"stateMutability":"nonpayable"},{"type":"function","name":"removeNode","inputs":[{"name":"nodeAddress","type":"address","internalType":"address"}],"outputs":[],"stateMutability":"nonpayable"},{"type":"function","name":"updateNodeStatus","inputs":[{"name":"nodeAddress","type":"address","internalType":"address"},{"name":"status","type":"uint8","internalType":"enum NodeStatus"}],"outputs":[],"stateMutability":"nonpayable"},{"type":"function","name":"updateNodeUrl","inputs":[{"name":"nodeAddress","type":"address","internalType":"address"},{"name":"url","type":"string","internalType":"string"}],"outputs":[],"stateMutability":"nonpayable"},{"type":"event","name":"NodeAdded","inputs":[{"name":"nodeAddress","type":"address","indexed":true,"internalType":"address"},{"name":"operator","type":"address","indexed":true,"internalType":"address"},{"name":"url","type":"string","indexed":false,"internalType":"string"},{"name":"status","type":"uint8","indexed":false,"internalType":"enum NodeStatus"}],"anonymous":false},{"type":"event","name":"NodeRemoved","inputs":[{"name":"nodeAddress","type":"address","indexed":true,"internalType":"address"}],"anonymous":false},{"type":"event","name":"NodeStatusUpdated","inputs":[{"name":"nodeAddress","type":"address","indexed":true,"internalType":"address"},{"name":"status","type":"uint8","indexed":false,"internalType":"enum NodeStatus"}],"anonymous":false},{"type":"event","name":"NodeUrlUpdated","inputs":[{"name":"nodeAddress","type":"address","indexed":true,"internalType":"address"},{"name":"url","type":"string","indexed":false,"internalType":"string"}],"anonymous":false}],"bytecode":{"object":"0x6080604052348015600e575f5ffd5b50611ba28061001c5f395ff3fe608060405234801561000f575f5ffd5b506004361061009f575f3560e01c80639d20904811610072578063b2b99ec911610058578063b2b99ec914610168578063c8fe3a011461017b578063eecc66f414610190575f5ffd5b80639d20904814610133578063a1174e7d14610153575f5ffd5b806301750152146100a357806339bf397e146100f5578063581f8b9b1461010b5780637e4465e714610120575b5f5ffd5b6100e06100b136600461147c565b73ffffffffffffffffffffffffffffffffffffffff9081165f9081526007602052604090206002015416151590565b60405190151581526020015b60405180910390f35b6100fd6101a3565b6040519081526020016100ec565b61011e6101193660046114a3565b6101b3565b005b61011e61012e3660046115c9565b610432565b61014661014136600461147c565b610712565b6040516100ec9190611737565b61015b6108d1565b6040516100ec9190611749565b61011e61017636600461147c565b610abe565b610183610d72565b6040516100ec91906117ca565b61011e61019e366004611822565b610d7e565b5f6101ae6005611008565b905090565b73ffffffffffffffffffffffffffffffffffffffff8083165f9081526007602052604090206002015483911661025157604080518082018252600e81527f4e4f44455f4e4f545f464f554e44000000000000000000000000000000000000602082015290517f08c379a0000000000000000000000000000000000000000000000000000000008152610248919060040161187c565b60405180910390fd5b3361025d600882611017565b6102c657604080518082018252600881527f4241445f41555448000000000000000000000000000000000000000000000000602082015290517f08c379a0000000000000000000000000000000000000000000000000000000008152610248919060040161187c565b73ffffffffffffffffffffffffffffffffffffffff8085165f908152600760205260409020600301548591339116811461035f57604080518082018252600881527f4241445f41555448000000000000000000000000000000000000000000000000602082015290517f08c379a0000000000000000000000000000000000000000000000000000000008152610248919060040161187c565b73ffffffffffffffffffffffffffffffffffffffff86165f90815260076020526040902080546103929060ff1687611048565b8054869082907fffffffffffffffffffffffffffffffffffffffffffffffffffffffffffffff001660018360058111156103ce576103ce611614565b0217905550600281015460405173ffffffffffffffffffffffffffffffffffffffff909116907f20891cc7622c7951cbd8c70c61a5201eb45625b8c00e8f6c986cfca78f3dbfa09061042190899061188e565b60405180910390a250505050505050565b3361043e600882611017565b6104a757604080518082018252600881527f4241445f41555448000000000000000000000000000000000000000000000000602082015290517f08c379a0000000000000000000000000000000000000000000000000000000008152610248919060040161187c565b73ffffffffffffffffffffffffffffffffffffffff8084165f9081526007602052604090206002015484911661053c57604080518082018252600e81527f4e4f44455f4e4f545f464f554e44000000000000000000000000000000000000602082015290517f08c379a0000000000000000000000000000000000000000000000000000000008152610248919060040161187c565b73ffffffffffffffffffffffffffffffffffffffff8085165f90815260076020526040902060030154859133911681146105d557604080518082018252600881527f4241445f41555448000000000000000000000000000000000000000000000000602082015290517f08c379a0000000000000000000000000000000000000000000000000000000008152610248919060040161187c565b73ffffffffffffffffffffffffffffffffffffffff86165f90815260076020908152604091829020915161060b9188910161189c565b604051602081830303815290604052805190602001208160010160405160200161063591906118fd565b60405160208183030381529060405280519060200120036106b557604080518082018252600781527f4241445f41524700000000000000000000000000000000000000000000000000602082015290517f08c379a0000000000000000000000000000000000000000000000000000000008152610248919060040161187c565b600181016106c387826119d8565b50600281015460405173ffffffffffffffffffffffffffffffffffffffff909116907f4505168a8705a16fd4d0575197fd0f510db69df93a065e158ad2c0957ba12bac9061042190899061187c565b61073b6040805160808101909152805f81526060602082018190525f6040830181905291015290565b610746600583611017565b6107af57604080518082018252600e81527f4e4f44455f4e4f545f464f554e44000000000000000000000000000000000000602082015290517f08c379a0000000000000000000000000000000000000000000000000000000008152610248919060040161187c565b73ffffffffffffffffffffffffffffffffffffffff82165f90815260076020526040908190208151608081019092528054829060ff1660058111156107f6576107f6611614565b600581111561080757610807611614565b815260200160018201805461081b906118b2565b80601f0160208091040260200160405190810160405280929190818152602001828054610847906118b2565b80156108925780601f1061086957610100808354040283529160200191610892565b820191905f5260205f20905b81548152906001019060200180831161087557829003601f168201915b5050509183525050600282015473ffffffffffffffffffffffffffffffffffffffff908116602083015260039092015490911660409091015292915050565b60605f6108de6005611008565b67ffffffffffffffff8111156108f6576108f66114d4565b60405190808252806020026020018201604052801561095057816020015b61093d6040805160808101909152805f81526060602082018190525f6040830181905291015290565b8152602001906001900390816109145790505b5090505f5b61095f6005611008565b811015610ab85760075f6109746005846111fb565b73ffffffffffffffffffffffffffffffffffffffff168152602081019190915260409081015f208151608081019092528054829060ff1660058111156109bc576109bc611614565b60058111156109cd576109cd611614565b81526020016001820180546109e1906118b2565b80601f0160208091040260200160405190810160405280929190818152602001828054610a0d906118b2565b8015610a585780601f10610a2f57610100808354040283529160200191610a58565b820191905f5260205f20905b815481529060010190602001808311610a3b57829003601f168201915b5050509183525050600282015473ffffffffffffffffffffffffffffffffffffffff90811660208301526003909201549091166040909101528251839083908110610aa557610aa5611aef565b6020908102919091010152600101610955565b50919050565b73ffffffffffffffffffffffffffffffffffffffff8082165f9081526007602052604090206003015482913391168114610b5757604080518082018252600881527f4241445f41555448000000000000000000000000000000000000000000000000602082015290517f08c379a0000000000000000000000000000000000000000000000000000000008152610248919060040161187c565b73ffffffffffffffffffffffffffffffffffffffff8381165f9081526007602052604090206002015416610bea57604080518082018252600e81527f4e4f44455f4e4f545f464f554e44000000000000000000000000000000000000602082015290517f08c379a0000000000000000000000000000000000000000000000000000000008152610248919060040161187c565b600573ffffffffffffffffffffffffffffffffffffffff84165f9081526007602052604090205460ff166005811115610c2557610c25611614565b14610c8f57604080518082018252601681527f4e4f44455f53544154455f4e4f545f414c4c4f57454400000000000000000000602082015290517f08c379a0000000000000000000000000000000000000000000000000000000008152610248919060040161187c565b610c9a600584611206565b5073ffffffffffffffffffffffffffffffffffffffff83165f90815260076020526040812080547fffffffffffffffffffffffffffffffffffffffffffffffffffffffffffffff0016815590610cf36001830182611402565b506002810180547fffffffffffffffffffffffff000000000000000000000000000000000000000090811690915560039091018054909116905560405173ffffffffffffffffffffffffffffffffffffffff8416907fcfc24166db4bb677e857cacabd1541fb2b30645021b27c5130419589b84db52b905f90a2505050565b60606101ae6005611227565b33610d8a600882611017565b610df357604080518082018252600881527f4241445f41555448000000000000000000000000000000000000000000000000602082015290517f08c379a0000000000000000000000000000000000000000000000000000000008152610248919060040161187c565b73ffffffffffffffffffffffffffffffffffffffff8481165f908152600760205260409020600201541615610e8757604080518082018252600e81527f414c52454144595f455849535453000000000000000000000000000000000000602082015290517f08c379a0000000000000000000000000000000000000000000000000000000008152610248919060040161187c565b5f6040518060800160405280846005811115610ea557610ea5611614565b81526020810186905273ffffffffffffffffffffffffffffffffffffffff87166040820152336060909101529050610ede600586611233565b5073ffffffffffffffffffffffffffffffffffffffff85165f908152600760205260409020815181548392919082907fffffffffffffffffffffffffffffffffffffffffffffffffffffffffffffff00166001836005811115610f4357610f43611614565b021790555060208201516001820190610f5c90826119d8565b506040828101516002830180547fffffffffffffffffffffffff000000000000000000000000000000000000000090811673ffffffffffffffffffffffffffffffffffffffff938416179091556060909401516003909301805490941692811692909217909255905133918716907f759154d15a6aec80ceab7bc8820f46ebc53ad68bb18f47afb77483fea9dcc9ff90610ff99088908890611b1c565b60405180910390a35050505050565b5f611011825490565b92915050565b73ffffffffffffffffffffffffffffffffffffffff81165f90815260018301602052604081205415155b9392505050565b5f82600581111561105b5761105b611614565b14806110af5750600182600581111561107657611076611614565b1480156110af5750600381600581111561109257611092611614565b14806110af575060048160058111156110ad576110ad611614565b145b80611102575060028260058111156110c9576110c9611614565b148015611102575060038160058111156110e5576110e5611614565b14806111025750600481600581111561110057611100611614565b145b806111555750600482600581111561111c5761111c611614565b1480156111555750600381600581111561113857611138611614565b14806111555750600581600581111561115357611153611614565b145b8061118d5750600382600581111561116f5761116f611614565b14801561118d5750600581600581111561118b5761118b611614565b145b15611196575050565b604080518082018252601681527f4e4f44455f53544154455f4e4f545f414c4c4f57454400000000000000000000602082015290517f08c379a0000000000000000000000000000000000000000000000000000000008152610248919060040161187c565b5f6110418383611254565b5f6110418373ffffffffffffffffffffffffffffffffffffffff841661127a565b60605f6110418361135d565b5f6110418373ffffffffffffffffffffffffffffffffffffffff84166113b6565b5f825f01828154811061126957611269611aef565b905f5260205f200154905092915050565b5f8181526001830160205260408120548015611354575f61129c600183611b3d565b85549091505f906112af90600190611b3d565b905080821461130e575f865f0182815481106112cd576112cd611aef565b905f5260205f200154905080875f0184815481106112ed576112ed611aef565b5f918252602080832090910192909255918252600188019052604090208390555b855486908061131f5761131f611b75565b600190038181905f5260205f20015f90559055856001015f8681526020019081526020015f205f905560019350505050611011565b5f915050611011565b6060815f018054806020026020016040519081016040528092919081815260200182805480156113aa57602002820191905f5260205f20905b815481526020019060010190808311611396575b50505050509050919050565b5f8181526001830160205260408120546113fb57508154600181810184555f848152602080822090930184905584548482528286019093526040902091909155611011565b505f611011565b50805461140e906118b2565b5f825580601f1061141d575050565b601f0160209004905f5260205f2090810190611439919061143c565b50565b5b80821115611450575f815560010161143d565b5090565b803573ffffffffffffffffffffffffffffffffffffffff81168114611477575f5ffd5b919050565b5f6020828403121561148c575f5ffd5b61104182611454565b803560068110611477575f5ffd5b5f5f604083850312156114b4575f5ffd5b6114bd83611454565b91506114cb60208401611495565b90509250929050565b7f4e487b71000000000000000000000000000000000000000000000000000000005f52604160045260245ffd5b5f82601f830112611510575f5ffd5b813567ffffffffffffffff81111561152a5761152a6114d4565b6040517fffffffffffffffffffffffffffffffffffffffffffffffffffffffffffffffe0603f7fffffffffffffffffffffffffffffffffffffffffffffffffffffffffffffffe0601f8501160116810181811067ffffffffffffffff82111715611596576115966114d4565b6040528181528382016020018510156115ad575f5ffd5b816020850160208301375f918101602001919091529392505050565b5f5f604083850312156115da575f5ffd5b6115e383611454565b9150602083013567ffffffffffffffff8111156115fe575f5ffd5b61160a85828601611501565b9150509250929050565b7f4e487b71000000000000000000000000000000000000000000000000000000005f52602160045260245ffd5b60068110611676577f4e487b71000000000000000000000000000000000000000000000000000000005f52602160045260245ffd5b9052565b5f81518084528060208401602086015e5f6020828601015260207fffffffffffffffffffffffffffffffffffffffffffffffffffffffffffffffe0601f83011685010191505092915050565b6116d1828251611641565b5f6020820151608060208501526116eb608085018261167a565b905073ffffffffffffffffffffffffffffffffffffffff604084015116604085015273ffffffffffffffffffffffffffffffffffffffff60608401511660608501528091505092915050565b602081525f61104160208301846116c6565b5f602082016020835280845180835260408501915060408160051b8601019250602086015f5b828110156117be577fffffffffffffffffffffffffffffffffffffffffffffffffffffffffffffffc08786030184526117a98583516116c6565b9450602093840193919091019060010161176f565b50929695505050505050565b602080825282518282018190525f918401906040840190835b8181101561181757835173ffffffffffffffffffffffffffffffffffffffff168352602093840193909201916001016117e3565b509095945050505050565b5f5f5f60608486031215611834575f5ffd5b61183d84611454565b9250602084013567ffffffffffffffff811115611858575f5ffd5b61186486828701611501565b92505061187360408501611495565b90509250925092565b602081525f611041602083018461167a565b602081016110118284611641565b5f82518060208501845e5f920191825250919050565b600181811c908216806118c657607f821691505b602082108103610ab8577f4e487b71000000000000000000000000000000000000000000000000000000005f52602260045260245ffd5b5f5f835461190a816118b2565b600182168015611921576001811461195457611981565b7fffffffffffffffffffffffffffffffffffffffffffffffffffffffffffffff0083168652811515820286019350611981565b865f5260205f205f5b838110156119795781548882015260019091019060200161195d565b505081860193505b509195945050505050565b601f8211156119d357805f5260205f20601f840160051c810160208510156119b15750805b601f840160051c820191505b818110156119d0575f81556001016119bd565b50505b505050565b815167ffffffffffffffff8111156119f2576119f26114d4565b611a0681611a0084546118b2565b8461198c565b6020601f821160018114611a57575f8315611a215750848201515b7fffffffffffffffffffffffffffffffffffffffffffffffffffffffffffffffff600385901b1c1916600184901b1784556119d0565b5f848152602081207fffffffffffffffffffffffffffffffffffffffffffffffffffffffffffffffe08516915b82811015611aa45787850151825560209485019460019092019101611a84565b5084821015611ae057868401517fffffffffffffffffffffffffffffffffffffffffffffffffffffffffffffffff600387901b60f8161c191681555b50505050600190811b01905550565b7f4e487b71000000000000000000000000000000000000000000000000000000005f52603260045260245ffd5b604081525f611b2e604083018561167a565b90506110416020830184611641565b81810381811115611011577f4e487b71000000000000000000000000000000000000000000000000000000005f52601160045260245ffd5b7f4e487b71000000000000000000000000000000000000000000000000000000005f52603160045260245ffd","linkReferences":{}},"methodIdentifiers":{"getAllNodeAddresses()":"c8fe3a01","getAllNodes()":"a1174e7d","getNode(address)":"9d209048","getNodeCount()":"39bf397e","isNode(address)":"01750152","registerNode(address,string,uint8)":"eecc66f4","removeNode(address)":"b2b99ec9","updateNodeStatus(address,uint8)":"581f8b9b","updateNodeUrl(address,string)":"7e4465e7"},"id":210}