{"abi":[{"type":"function","name":"__PrepayFacet_init","inputs":[],"outputs":[],"stateMutability":"nonpayable"},{"type":"function","name":"calculateMembershipPrepayFee","inputs":[{"name":"supply","type":"uint256","internalType":"uint256"}],"outputs":[{"name":"","type":"uint256","internalType":"uint256"}],"stateMutability":"view"},{"type":"function","name":"prepaidMembershipSupply","inputs":[],"outputs":[{"name":"","type":"uint256","internalType":"uint256"}],"stateMutability":"view"},{"type":"function","name":"prepayMembership","inputs":[{"name":"supply","type":"uint256","internalType":"uint256"}],"outputs":[],"stateMutability":"payable"},{"type":"event","name":"Approval","inputs":[{"name":"owner","type":"address","indexed":true,"internalType":"address"},{"name":"approved","type":"address","indexed":true,"internalType":"address"},{"name":"tokenId","type":"uint256","indexed":true,"internalType":"uint256"}],"anonymous":false},{"type":"event","name":"ApprovalForAll","inputs":[{"name":"owner","type":"address","indexed":true,"internalType":"address"},{"name":"operator","type":"address","indexed":true,"internalType":"address"},{"name":"approved","type":"bool","indexed":false,"internalType":"bool"}],"anonymous":false},{"type":"event","name":"Banned","inputs":[{"name":"moderator","type":"address","indexed":true,"internalType":"address"},{"name":"tokenId","type":"uint256","indexed":true,"internalType":"uint256"}],"anonymous":false},{"type":"event","name":"ConsecutiveTransfer","inputs":[{"name":"fromTokenId","type":"uint256","indexed":true,"internalType":"uint256"},{"name":"toTokenId","type":"uint256","indexed":false,"internalType":"uint256"},{"name":"from","type":"address","indexed":true,"internalType":"address"},{"name":"to","type":"address","indexed":true,"internalType":"address"}],"anonymous":false},{"type":"event","name":"Initialized","inputs":[{"name":"version","type":"uint32","indexed":false,"internalType":"uint32"}],"anonymous":false},{"type":"event","name":"InterfaceAdded","inputs":[{"name":"interfaceId","type":"bytes4","indexed":true,"internalType":"bytes4"}],"anonymous":false},{"type":"event","name":"InterfaceRemoved","inputs":[{"name":"interfaceId","type":"bytes4","indexed":true,"internalType":"bytes4"}],"anonymous":false},{"type":"event","name":"OwnershipTransferred","inputs":[{"name":"previousOwner","type":"address","indexed":true,"internalType":"address"},{"name":"newOwner","type":"address","indexed":true,"internalType":"address"}],"anonymous":false},{"type":"event","name":"Paused","inputs":[{"name":"account","type":"address","indexed":false,"internalType":"address"}],"anonymous":false},{"type":"event","name":"Prepay__Prepaid","inputs":[{"name":"supply","type":"uint256","indexed":false,"internalType":"uint256"}],"anonymous":false},{"type":"event","name":"SubscriptionUpdate","inputs":[{"name":"tokenId","type":"uint256","indexed":true,"internalType":"uint256"},{"name":"expiration","type":"uint64","indexed":false,"internalType":"uint64"}],"anonymous":false},{"type":"event","name":"Transfer","inputs":[{"name":"from","type":"address","indexed":true,"internalType":"address"},{"name":"to","type":"address","indexed":true,"internalType":"address"},{"name":"tokenId","type":"uint256","indexed":true,"internalType":"uint256"}],"anonymous":false},{"type":"event","name":"Unbanned","inputs":[{"name":"moderator","type":"address","indexed":true,"internalType":"address"},{"name":"tokenId","type":"uint256","indexed":true,"internalType":"uint256"}],"anonymous":false},{"type":"event","name":"Unpaused","inputs":[{"name":"account","type":"address","indexed":false,"internalType":"address"}],"anonymous":false},{"type":"error","name":"ApprovalCallerNotOwnerNorApproved","inputs":[]},{"type":"error","name":"ApprovalQueryForNonexistentToken","inputs":[]},{"type":"error","name":"BalanceQueryForZeroAddress","inputs":[]},{"type":"error","name":"Banning__AlreadyBanned","inputs":[{"name":"tokenId","type":"uint256","internalType":"uint256"}]},{"type":"error","name":"Banning__CannotBanOwner","inputs":[]},{"type":"error","name":"Banning__CannotBanSelf","inputs":[]},{"type":"error","name":"Banning__InvalidTokenId","inputs":[{"name":"tokenId","type":"uint256","internalType":"uint256"}]},{"type":"error","name":"Banning__NotBanned","inputs":[{"name":"tokenId","type":"uint256","internalType":"uint256"}]},{"type":"error","name":"ERC5643__DurationZero","inputs":[]},{"type":"error","name":"ERC5643__InvalidTokenId","inputs":[{"name":"tokenId","type":"uint256","internalType":"uint256"}]},{"type":"error","name":"ERC5643__NotApprovedOrOwner","inputs":[]},{"type":"error","name":"ERC5643__SubscriptionNotRenewable","inputs":[{"name":"tokenId","type":"uint256","internalType":"uint256"}]},{"type":"error","name":"Entitlement__InvalidValue","inputs":[]},{"type":"error","name":"Entitlement__NotAllowed","inputs":[]},{"type":"error","name":"Entitlement__NotMember","inputs":[]},{"type":"error","name":"Entitlement__ValueAlreadyExists","inputs":[]},{"type":"error","name":"Initializable_InInitializingState","inputs":[]},{"type":"error","name":"Initializable_NotInInitializingState","inputs":[]},{"type":"error","name":"Introspection_AlreadySupported","inputs":[]},{"type":"error","name":"Introspection_NotSupported","inputs":[]},{"type":"error","name":"MintERC2309QuantityExceedsLimit","inputs":[]},{"type":"error","name":"MintToZeroAddress","inputs":[]},{"type":"error","name":"MintZeroQuantity","inputs":[]},{"type":"error","name":"Ownable__NotOwner","inputs":[{"name":"account","type":"address","internalType":"address"}]},{"type":"error","name":"Ownable__ZeroAddress","inputs":[]},{"type":"error","name":"OwnerQueryForNonexistentToken","inputs":[]},{"type":"error","name":"OwnershipNotInitializedForExtraData","inputs":[]},{"type":"error","name":"Pausable__NotPaused","inputs":[]},{"type":"error","name":"Pausable__Paused","inputs":[]},{"type":"error","name":"Prepay__InvalidAddress","inputs":[]},{"type":"error","name":"Prepay__InvalidAmount","inputs":[]},{"type":"error","name":"Prepay__InvalidMembership","inputs":[]},{"type":"error","name":"Prepay__InvalidSupplyAmount","inputs":[]},{"type":"error","name":"Reentrancy","inputs":[]},{"type":"error","name":"TransferCallerNotOwnerNorApproved","inputs":[]},{"type":"error","name":"TransferFromIncorrectOwner","inputs":[]},{"type":"error","name":"TransferToNonERC721ReceiverImplementer","inputs":[]},{"type":"error","name":"TransferToZeroAddress","inputs":[]},{"type":"error","name":"URIQueryForNonexistentToken","inputs":[]}],"bytecode":{"object":"0x6080604052348015600e575f5ffd5b5060156019565b60bd565b7f59b501c3653afc186af7d48dda36cf6732bd21629a6295693664240a6ef520008054640100000000900460ff16156064576040516366008a2d60e01b815260040160405180910390fd5b805463ffffffff908116101560ba57805463ffffffff191663ffffffff90811782556040519081527fe9c9b456cb2994b80aeef036cf59d26e9617df80f816a6ee5a5b4166e07e2f5c9060200160405180910390a15b50565b610904806100ca5f395ff3fe60806040526004361061003e575f3560e01c806306499d7f1461004257806327bc79f114610057578063aabe967d14610088578063b6a45cd61461009c575b5f5ffd5b61005561005036600461083f565b6100b0565b005b348015610062575f5ffd5b5061007661007136600461083f565b6102ec565b60405190815260200160405180910390f35b348015610093575f5ffd5b506100556103d4565b3480156100a7575f5ffd5b50610076610462565b3068929eee149b4bd2126854036100ce5763ab143c065f526004601cfd5b3068929eee149b4bd2126855805f03610113576040517f305b66fd00000000000000000000000000000000000000000000000000000000815260040160405180910390fd5b7fc21004fcc619240a31f006438274d15cd813308303284436eef6055f0fdcb60654604080517f0eac306d00000000000000000000000000000000000000000000000000000000815290517fc21004fcc619240a31f006438274d15cd813308303284436eef6055f0fdcb6009273ffffffffffffffffffffffffffffffffffffffff16915f918391630eac306d9160048083019260209291908290030181865afa1580156101c3573d5f5f3e3d5ffd5b505050506040513d601f19601f820116820180604052508101906101e79190610856565b6101f1908561089a565b905080341461022c576040517fcd27698700000000000000000000000000000000000000000000000000000000815260040160405180910390fd5b61023584610490565b600480840154604080517f4ccb20c0000000000000000000000000000000000000000000000000000000008152905173ffffffffffffffffffffffffffffffffffffffff928316935f93871692634ccb20c092818301926020928290030181865afa1580156102a6573d5f5f3e3d5ffd5b505050506040513d601f19601f820116820180604052508101906102ca91906108b7565b90506102d882338386610500565b50505050503868929eee149b4bd212685550565b7fc21004fcc619240a31f006438274d15cd813308303284436eef6055f0fdcb60654604080517f0eac306d00000000000000000000000000000000000000000000000000000000815290515f927fc21004fcc619240a31f006438274d15cd813308303284436eef6055f0fdcb6009273ffffffffffffffffffffffffffffffffffffffff909116918291630eac306d9160048083019260209291908290030181865afa15801561039e573d5f5f3e3d5ffd5b505050506040513d601f19601f820116820180604052508101906103c29190610856565b6103cc908561089a565b949350505050565b7f59b501c3653afc186af7d48dda36cf6732bd21629a6295693664240a6ef5200054640100000000900460ff16610437576040517f77a399b800000000000000000000000000000000000000000000000000000000815260040160405180910390fd5b6104607f9751b85800000000000000000000000000000000000000000000000000000000610564565b565b5f61048b7f097b4f25b64e012d0cf55f67e9b34fe5d57f15b11b95baa4ddd136b424967c005490565b905090565b7f097b4f25b64e012d0cf55f67e9b34fe5d57f15b11b95baa4ddd136b424967c008054829082905f906104c49084906108f1565b90915550506040518281527fad9b877dcdf275e10be629bbe390dc68f7b5de14e3cc5f11f1745d300bb3852e9060200160405180910390a15050565b801561055e577fffffffffffffffffffffffff111111111111111111111111111111111111111273ffffffffffffffffffffffffffffffffffffffff8516016105525761054d82826106b9565b61055e565b61055e848484846106dd565b50505050565b7fffffffff0000000000000000000000000000000000000000000000000000000081165f9081527f81088bbc801e045ea3e7620779ab349988f58afbdfba10dff983df3f33522b00602052604090205460ff16610638577fffffffff0000000000000000000000000000000000000000000000000000000081165f9081527f81088bbc801e045ea3e7620779ab349988f58afbdfba10dff983df3f33522b006020526040902080547fffffffffffffffffffffffffffffffffffffffffffffffffffffffffffffff0016600117905561066a565b6040517ff2cfeefa00000000000000000000000000000000000000000000000000000000815260040160405180910390fd5b6040517fffffffff000000000000000000000000000000000000000000000000000000008216907f78f84e5b1c5c05be2b5ad3800781dd404d6d6c6302bc755c0fe20f58a33a7f22905f90a250565b6106d973ffffffffffffffffffffffffffffffffffffffff831682610771565b5050565b8173ffffffffffffffffffffffffffffffffffffffff168373ffffffffffffffffffffffffffffffffffffffff16031561055e573073ffffffffffffffffffffffffffffffffffffffff84160361074f5761054d73ffffffffffffffffffffffffffffffffffffffff8516838361078a565b61055e73ffffffffffffffffffffffffffffffffffffffff85168484846107dd565b5f385f3884865af16106d95763b12d13eb5f526004601cfd5b81601452806034526fa9059cbb0000000000000000000000005f5260205f604460105f875af18060015f5114166107d357803d853b1517106107d3576390b8ec185f526004601cfd5b505f603452505050565b60405181606052826040528360601b602c526f23b872dd000000000000000000000000600c5260205f6064601c5f895af18060015f51141661083157803d873b15171061083157637939f4245f526004601cfd5b505f60605260405250505050565b5f6020828403121561084f575f5ffd5b5035919050565b5f60208284031215610866575f5ffd5b5051919050565b7f4e487b71000000000000000000000000000000000000000000000000000000005f52601160045260245ffd5b80820281158282048414176108b1576108b161086d565b92915050565b5f602082840312156108c7575f5ffd5b815173ffffffffffffffffffffffffffffffffffffffff811681146108ea575f5ffd5b9392505050565b808201808211156108b1576108b161086d56","linkReferences":{}},"methodIdentifiers":{"__PrepayFacet_init()":"aabe967d","calculateMembershipPrepayFee(uint256)":"27bc79f1","prepaidMembershipSupply()":"b6a45cd6","prepayMembership(uint256)":"06499d7f"},"id":516}