{"abi":[{"type":"function","name":"__RiverRegistry_init","inputs":[{"name":"approvedOperators","type":"address[]","internalType":"address[]"}],"outputs":[],"stateMutability":"nonpayable"},{"type":"function","name":"allocateStream","inputs":[{"name":"streamId","type":"string","internalType":"string"},{"name":"nodes","type":"address[]","internalType":"address[]"},{"name":"genesisMiniblockHash","type":"bytes32","internalType":"bytes32"},{"name":"genesisMiniblock","type":"bytes","internalType":"bytes"}],"outputs":[],"stateMutability":"nonpayable"},{"type":"function","name":"approveOperator","inputs":[{"name":"operator","type":"address","internalType":"address"}],"outputs":[],"stateMutability":"nonpayable"},{"type":"function","name":"getAllNodeAddresses","inputs":[],"outputs":[{"name":"","type":"address[]","internalType":"address[]"}],"stateMutability":"view"},{"type":"function","name":"getAllNodes","inputs":[],"outputs":[{"name":"","type":"tuple[]","internalType":"struct IRiverRegistryBase.Node[]","components":[{"name":"nodeAddress","type":"address","internalType":"address"},{"name":"url","type":"string","internalType":"string"},{"name":"status","type":"uint8","internalType":"enum IRiverRegistryBase.NodeStatus"}]}],"stateMutability":"view"},{"type":"function","name":"getAllStreamIds","inputs":[],"outputs":[{"name":"","type":"string[]","internalType":"string[]"}],"stateMutability":"view"},{"type":"function","name":"getAllStreams","inputs":[],"outputs":[{"name":"","type":"tuple[]","internalType":"struct IRiverRegistryBase.Stream[]","components":[{"name":"streamId","type":"string","internalType":"string"},{"name":"nodes","type":"address[]","internalType":"address[]"},{"name":"genesisMiniblockHash","type":"bytes32","internalType":"bytes32"},{"name":"genesisMiniblock","type":"bytes","internalType":"bytes"},{"name":"lastMiniblockHash","type":"bytes32","internalType":"bytes32"},{"name":"lastMiniblockNum","type":"uint64","internalType":"uint64"}]}],"stateMutability":"view"},{"type":"function","name":"getNode","inputs":[{"name":"nodeAddress","type":"address","internalType":"address"}],"outputs":[{"name":"","type":"tuple","internalType":"struct IRiverRegistryBase.Node","components":[{"name":"nodeAddress","type":"address","internalType":"address"},{"name":"url","type":"string","internalType":"string"},{"name":"status","type":"uint8","internalType":"enum IRiverRegistryBase.NodeStatus"}]}],"stateMutability":"view"},{"type":"function","name":"getNodeCount","inputs":[],"outputs":[{"name":"","type":"uint256","internalType":"uint256"}],"stateMutability":"view"},{"type":"function","name":"getStream","inputs":[{"name":"streamIdHash","type":"bytes32","internalType":"bytes32"}],"outputs":[{"name":"","type":"tuple","internalType":"struct IRiverRegistryBase.Stream","components":[{"name":"streamId","type":"string","internalType":"string"},{"name":"nodes","type":"address[]","internalType":"address[]"},{"name":"genesisMiniblockHash","type":"bytes32","internalType":"bytes32"},{"name":"genesisMiniblock","type":"bytes","internalType":"bytes"},{"name":"lastMiniblockHash","type":"bytes32","internalType":"bytes32"},{"name":"lastMiniblockNum","type":"uint64","internalType":"uint64"}]}],"stateMutability":"view"},{"type":"function","name":"getStreamCount","inputs":[],"outputs":[{"name":"","type":"uint256","internalType":"uint256"}],"stateMutability":"view"},{"type":"function","name":"isOperator","inputs":[{"name":"operator","type":"address","internalType":"address"}],"outputs":[{"name":"","type":"bool","internalType":"bool"}],"stateMutability":"view"},{"type":"function","name":"registerNode","inputs":[{"name":"nodeAddress","type":"address","internalType":"address"},{"name":"url","type":"string","internalType":"string"}],"outputs":[],"stateMutability":"nonpayable"},{"type":"function","name":"removeOperator","inputs":[{"name":"operator","type":"address","internalType":"address"}],"outputs":[],"stateMutability":"nonpayable"},{"type":"function","name":"setStreamLastMiniblock","inputs":[{"name":"streamIdHash","type":"bytes32","internalType":"bytes32"},{"name":"lastMiniblockHash","type":"bytes32","internalType":"bytes32"},{"name":"lastMiniblockNum","type":"uint64","internalType":"uint64"}],"outputs":[],"stateMutability":"nonpayable"},{"type":"function","name":"updateNodeStatus","inputs":[{"name":"status","type":"uint8","internalType":"enum IRiverRegistryBase.NodeStatus"}],"outputs":[],"stateMutability":"nonpayable"},{"type":"function","name":"updateNodeUrl","inputs":[{"name":"url","type":"string","internalType":"string"}],"outputs":[],"stateMutability":"nonpayable"},{"type":"event","name":"Initialized","inputs":[{"name":"version","type":"uint32","indexed":false,"internalType":"uint32"}],"anonymous":false},{"type":"event","name":"InterfaceAdded","inputs":[{"name":"interfaceId","type":"bytes4","indexed":true,"internalType":"bytes4"}],"anonymous":false},{"type":"event","name":"InterfaceRemoved","inputs":[{"name":"interfaceId","type":"bytes4","indexed":true,"internalType":"bytes4"}],"anonymous":false},{"type":"event","name":"NodeAdded","inputs":[{"name":"nodeAddress","type":"address","indexed":true,"internalType":"address"},{"name":"url","type":"string","indexed":false,"internalType":"string"},{"name":"status","type":"uint8","indexed":false,"internalType":"enum IRiverRegistryBase.NodeStatus"}],"anonymous":false},{"type":"event","name":"NodeStatusUpdated","inputs":[{"name":"nodeAddress","type":"address","indexed":true,"internalType":"address"},{"name":"status","type":"uint8","indexed":false,"internalType":"enum IRiverRegistryBase.NodeStatus"}],"anonymous":false},{"type":"event","name":"NodeUrlUpdated","inputs":[{"name":"nodeAddress","type":"address","indexed":true,"internalType":"address"},{"name":"url","type":"string","indexed":false,"internalType":"string"}],"anonymous":false},{"type":"event","name":"OperatorAdded","inputs":[{"name":"operatorAddress","type":"address","indexed":true,"internalType":"address"}],"anonymous":false},{"type":"event","name":"OperatorRemoved","inputs":[{"name":"operatorAddress","type":"address","indexed":true,"internalType":"address"}],"anonymous":false},{"type":"event","name":"OwnershipTransferred","inputs":[{"name":"previousOwner","type":"address","indexed":true,"internalType":"address"},{"name":"newOwner","type":"address","indexed":true,"internalType":"address"}],"anonymous":false},{"type":"event","name":"StreamAllocated","inputs":[{"name":"streamId","type":"string","indexed":false,"internalType":"string"},{"name":"nodes","type":"address[]","indexed":false,"internalType":"address[]"},{"name":"genesisMiniblockHash","type":"bytes32","indexed":false,"internalType":"bytes32"}],"anonymous":false},{"type":"event","name":"StreamLastMiniblockUpdated","inputs":[{"name":"streamId","type":"string","indexed":false,"internalType":"string"},{"name":"lastMiniblockHash","type":"bytes32","indexed":false,"internalType":"bytes32"},{"name":"lastMiniblockNum","type":"uint64","indexed":false,"internalType":"uint64"}],"anonymous":false},{"type":"error","name":"Initializable_InInitializingState","inputs":[]},{"type":"error","name":"Initializable_NotInInitializingState","inputs":[]},{"type":"error","name":"Introspection_AlreadySupported","inputs":[]},{"type":"error","name":"Introspection_NotSupported","inputs":[]},{"type":"error","name":"Ownable__NotOwner","inputs":[{"name":"account","type":"address","internalType":"address"}]},{"type":"error","name":"Ownable__ZeroAddress","inputs":[]}],"bytecode":{"object":"0x608060405234801561001057600080fd5b5061001961001e565b6100c4565b7f2d0d21306acfe8e9bb163a4573e95aff6cef95dc1102c6a16d5f19eac08cc4de8054640100000000900460ff161561006a576040516366008a2d60e01b815260040160405180910390fd5b805463ffffffff90811610156100c157805463ffffffff191663ffffffff90811782556040519081527fe9c9b456cb2994b80aeef036cf59d26e9617df80f816a6ee5a5b4166e07e2f5c9060200160405180910390a15b50565b6123f780620000d46000396000f3fe608060405234801561001057600080fd5b506004361061010b5760003560e01c80639d209048116100a2578063be6522d611610071578063be6522d614610232578063c0f2208414610245578063c8fe3a011461024d578063e5d78f6a14610262578063fc7a92231461027557600080fd5b80639d209048146101d7578063a1174e7d146101f7578063ac8a584a1461020c578063bb9b342d1461021f57600080fd5b80633bd84c0c116100de5780633bd84c0c146101775780636d70f7ae1461018c5780637691f5ed146101af57806386789fc6146101c257600080fd5b80631290abe814610110578063242cae9f14610139578063286af2531461014e57806339bf397e14610161575b600080fd5b61012361011e366004611ac4565b610288565b6040516101309190611bd7565b60405180910390f35b61014c610147366004611c06565b6104e0565b005b61014c61015c366004611ced565b61060f565b610169610665565b604051908152602001610130565b61017f61067f565b6040516101309190611d29565b61019f61019a366004611c06565b61092c565b6040519015158152602001610130565b61014c6101bd366004611d8d565b610949565b6101ca610a1f565b6040516101309190611dae565b6101ea6101e5366004611c06565b610b67565b6040516101309190611e78565b6101ff610cc8565b6040516101309190611e8b565b61014c61021a366004611c06565b610e7f565b61014c61022d366004611f59565b610fd2565b61014c610240366004611fa6565b61117e565b610169611229565b61025561123b565b604051610130919061201f565b61014c610270366004612032565b61125b565b61014c6102833660046120d7565b6114d7565b6040805160c0810182526060808252602082018190526000928201839052808201526080810182905260a08101829052906102c1611646565b90506102cd818461166a565b6103115760408051808201825260098152681393d517d193d5539160ba1b6020820152905162461bcd60e51b8152610308919060040161211c565b60405180910390fd5b600083815260028201602052604090819020815160c0810190925280548290829061033b9061212f565b80601f01602080910402602001604051908101604052809291908181526020018280546103679061212f565b80156103b45780601f10610389576101008083540402835291602001916103b4565b820191906000526020600020905b81548152906001019060200180831161039757829003601f168201915b505050505081526020016001820180548060200260200160405190810160405280929190818152602001828054801561041657602002820191906000526020600020905b81546001600160a01b031681526001909101906020018083116103f8575b50505050508152602001600282015481526020016003820180546104399061212f565b80601f01602080910402602001604051908101604052809291908181526020018280546104659061212f565b80156104b25780601f10610487576101008083540402835291602001916104b2565b820191906000526020600020905b81548152906001019060200180831161049557829003601f168201915b5050509183525050600482015460208201526005909101546001600160401b03166040909101529392505050565b7fa7c3be20e3a76821507555109752fad8a6630ef0362a34dcfcdfef83c99a2537546001600160a01b0316331461052c576040516365f4906560e01b8152336004820152602401610308565b6001600160a01b03811661056f5760408051808201825260078152664241445f41524760c81b6020820152905162461bcd60e51b8152610308919060040161211c565b6000610579611646565b90506105886006820183611685565b156105c957604080518082018252600e81526d414c52454144595f45584953545360901b6020820152905162461bcd60e51b8152610308919060040161211c565b6105d660068201836116a7565b506040516001600160a01b038316907fac6fa858e9350a46cec16539926e0fde25b7629f84b5a72bffaae4df888ae86d90600090a25050565b7f2d0d21306acfe8e9bb163a4573e95aff6cef95dc1102c6a16d5f19eac08cc4de54640100000000900460ff1661065957604051630ef4733760e31b815260040160405180910390fd5b610662816116bc565b50565b600061067a610672611646565b6003016116d5565b905090565b6060600061068b611646565b90506000610698826116d5565b6001600160401b038111156106af576106af611c21565b60405190808252806020026020018201604052801561071157816020015b6040805160c0810182526060808252602082018190526000928201839052808201526080810182905260a08101919091528152602001906001900390816106cd5790505b50905060005b610720836116d5565b8110156109255760028301600061073785846116df565b81526020019081526020016000206040518060c00160405290816000820180546107609061212f565b80601f016020809104026020016040519081016040528092919081815260200182805461078c9061212f565b80156107d95780601f106107ae576101008083540402835291602001916107d9565b820191906000526020600020905b8154815290600101906020018083116107bc57829003601f168201915b505050505081526020016001820180548060200260200160405190810160405280929190818152602001828054801561083b57602002820191906000526020600020905b81546001600160a01b0316815260019091019060200180831161081d575b505050505081526020016002820154815260200160038201805461085e9061212f565b80601f016020809104026020016040519081016040528092919081815260200182805461088a9061212f565b80156108d75780601f106108ac576101008083540402835291602001916108d7565b820191906000526020600020905b8154815290600101906020018083116108ba57829003601f168201915b5050509183525050600482015460208201526005909101546001600160401b0316604090910152825183908390811061091257610912612169565b6020908102919091010152600101610717565b5092915050565b60006109438261093a611646565b60060190611685565b92915050565b61095e33610955611646565b60030190611685565b6109985760408051808201825260088152670848288be82aaa8960c31b6020820152905162461bcd60e51b8152610308919060040161211c565b60006109a2611646565b33600090815260058201602052604090206002018054919250839160ff191660018360048111156109d5576109d5611e05565b0217905550336001600160a01b03167f20891cc7622c7951cbd8c70c61a5201eb45625b8c00e8f6c986cfca78f3dbfa083604051610a13919061217f565b60405180910390a25050565b60606000610a2b611646565b90506000610a38826116d5565b6001600160401b03811115610a4f57610a4f611c21565b604051908082528060200260200182016040528015610a8257816020015b6060815260200190600190039081610a6d5790505b50905060005b610a91836116d5565b81101561092557600283016000610aa885846116df565b81526020019081526020016000206000018054610ac49061212f565b80601f0160208091040260200160405190810160405280929190818152602001828054610af09061212f565b8015610b3d5780601f10610b1257610100808354040283529160200191610b3d565b820191906000526020600020905b815481529060010190602001808311610b2057829003601f168201915b5050505050828281518110610b5457610b54612169565b6020908102919091010152600101610a88565b610b6f611a10565b6000610b79611646565b9050610b886003820184611685565b610bc857604080518082018252600e81526d1393d11157d393d517d193d5539160921b6020820152905162461bcd60e51b8152610308919060040161211c565b6001600160a01b0380841660009081526005830160209081526040918290208251606081019093528054909316825260018301805492939291840191610c0d9061212f565b80601f0160208091040260200160405190810160405280929190818152602001828054610c399061212f565b8015610c865780601f10610c5b57610100808354040283529160200191610c86565b820191906000526020600020905b815481529060010190602001808311610c6957829003601f168201915b5050509183525050600282015460209091019060ff166004811115610cad57610cad611e05565b6004811115610cbe57610cbe611e05565b9052509392505050565b60606000610cd4611646565b90506000610ce4826003016116d5565b6001600160401b03811115610cfb57610cfb611c21565b604051908082528060200260200182016040528015610d3457816020015b610d21611a10565b815260200190600190039081610d195790505b50905060005b610d46836003016116d5565b81101561092557600583016000610d6060038601846116df565b6001600160a01b0390811682526020808301939093526040918201600020825160608101909352805490911682526001810180549293919291840191610da59061212f565b80601f0160208091040260200160405190810160405280929190818152602001828054610dd19061212f565b8015610e1e5780601f10610df357610100808354040283529160200191610e1e565b820191906000526020600020905b815481529060010190602001808311610e0157829003601f168201915b5050509183525050600282015460209091019060ff166004811115610e4557610e45611e05565b6004811115610e5657610e56611e05565b81525050828281518110610e6c57610e6c612169565b6020908102919091010152600101610d3a565b7fa7c3be20e3a76821507555109752fad8a6630ef0362a34dcfcdfef83c99a2537546001600160a01b03163314610ecb576040516365f4906560e01b8152336004820152602401610308565b6000610ed5611646565b9050610ee46006820183611685565b610f2857604080518082018252601281527113d41154905513d497d393d517d193d5539160721b6020820152905162461bcd60e51b8152610308919060040161211c565b6001600160a01b03821660009081526008820160205260408120610f4b906116d5565b1115610f8c57604080518082018252600d81526c4f55545f4f465f424f554e445360981b6020820152905162461bcd60e51b8152610308919060040161211c565b610f9960068201836116eb565b506040516001600160a01b038316907f80c0b871b97b595b16a7741c1b06fed0c6f6f558639f18ccbce50724325dc40d90600090a25050565b610fde3361093a611646565b6110185760408051808201825260088152670848288be82aaa8960c31b6020820152905162461bcd60e51b8152610308919060040161211c565b6000611022611646565b90506110316003820184611685565b1561107257604080518082018252600e81526d414c52454144595f45584953545360901b6020820152905162461bcd60e51b8152610308919060040161211c565b604080516060810182526001600160a01b03851681526020808201859052600082840181905233815260088501909152919091206110b090856116a7565b506110be60038301856116a7565b506001600160a01b0384811660009081526005840160209081526040909120835181546001600160a01b0319169316929092178255820151829190600182019061110890826121dd565b50604082015160028201805460ff1916600183600481111561112c5761112c611e05565b0217905550905050836001600160a01b03167fd6f3629b08191adb8308c3a65d5f8803b7f8f3e359c433fa7ae623276635e56184600060405161117092919061229c565b60405180910390a250505050565b61118a33610955611646565b6111c45760408051808201825260088152670848288be82aaa8960c31b6020820152905162461bcd60e51b8152610308919060040161211c565b60006111ce611646565b33600090815260058201602052604090209091506001016111ef83826121dd565b50336001600160a01b03167f4505168a8705a16fd4d0575197fd0f510db69df93a065e158ad2c0957ba12bac83604051610a13919061211c565b600061067a611236611646565b6116d5565b60606000611247611646565b905061125581600301611700565b91505090565b61126733610955611646565b6112a15760408051808201825260088152670848288be82aaa8960c31b6020820152905162461bcd60e51b8152610308919060040161211c565b83516000036112e95760408051808201825260118152701253959053125117d4d51491505357d251607a1b6020820152905162461bcd60e51b8152610308919060040161211c565b8351602085012060006112fa611646565b9050611306818361166a565b1561134757604080518082018252600e81526d414c52454144595f45584953545360901b6020820152905162461bcd60e51b8152610308919060040161211c565b60005b85518110156113ca5761138286828151811061136857611368612169565b60200260200101518360030161168590919063ffffffff16565b6113c257604080518082018252600e81526d1393d11157d393d517d193d5539160921b6020820152905162461bcd60e51b8152610308919060040161211c565b60010161134a565b506040805160c081018252878152602081018790529081018590526060810184905260808101859052600060a0820152611404828461170d565b50600083815260028301602052604090208151829190819061142690826121dd565b50602082810151805161143f9260018501920190611a4a565b50604082015160028201556060820151600382019061145e90826121dd565b506080820151600482015560a0909101516005909101805467ffffffffffffffff19166001600160401b039092169190911790556040517fa79c4b435a69ed59ac1dddf9315512561153a9b7b20c43c354bdf5a0c9e2f26e906114c6908990899089906122be565b60405180910390a150505050505050565b6114e333610955611646565b61151d5760408051808201825260088152670848288be82aaa8960c31b6020820152905162461bcd60e51b8152610308919060040161211c565b6000611527611646565b9050611533818561166a565b61156e5760408051808201825260098152681393d517d193d5539160ba1b6020820152905162461bcd60e51b8152610308919060040161211c565b6000848152600282016020526040902060058101546001600160401b038085169161159b9116600161230a565b6001600160401b0316146115de5760408051808201825260078152664241445f41524760c81b6020820152905162461bcd60e51b8152610308919060040161211c565b6004810184905560058101805467ffffffffffffffff19166001600160401b0385161790556040517f751aae24847a063a2e4c98e9ec7575141ee0974ceb0d8f39a915c2da73a90865906116379083908790879061232a565b60405180910390a15050505050565b7f1320bfade83d725f4918cce6752986eeef865fd566a9348c57c798b58dfc7ea690565b600081815260018301602052604081205415155b9392505050565b6001600160a01b0381166000908152600183016020526040812054151561167e565b600061167e836001600160a01b038416611715565b6116cc63e554adf360e01b611764565b61066281611842565b6000610943825490565b600061167e8383611897565b600061167e836001600160a01b0384166118c1565b6060600061167e836119b4565b600061167e83835b600081815260018301602052604081205461175c57508154600181810184556000848152602080822090930184905584548482528286019093526040902091909155610943565b506000610943565b6001600160e01b0319811660009081527fbc7de460bcfb6afd0c415c8c610d408bd914b18d7d0feec0da9e25348087a5c4602052604090205460ff1615156001146117f1576001600160e01b0319811660009081527fbc7de460bcfb6afd0c415c8c610d408bd914b18d7d0feec0da9e25348087a5c460205260409020805460ff1916600117905561180a565b604051637967f77d60e11b815260040160405180910390fd5b6040516001600160e01b03198216907f78f84e5b1c5c05be2b5ad3800781dd404d6d6c6302bc755c0fe20f58a33a7f2290600090a250565b600061184c611646565b905060005b82518110156118925761188983828151811061186f5761186f612169565b6020026020010151836006016116a790919063ffffffff16565b50600101611851565b505050565b60008260000182815481106118ae576118ae612169565b9060005260206000200154905092915050565b600081815260018301602052604081205480156119aa5760006118e56001836123ce565b85549091506000906118f9906001906123ce565b905081811461195e57600086600001828154811061191957611919612169565b906000526020600020015490508087600001848154811061193c5761193c612169565b6000918252602080832090910192909255918252600188019052604090208390555b855486908061196f5761196f6123e1565b600190038181906000526020600020016000905590558560010160008681526020019081526020016000206000905560019350505050610943565b6000915050610943565b606081600001805480602002602001604051908101604052809291908181526020018280548015611a0457602002820191906000526020600020905b8154815260200190600101908083116119f0575b50505050509050919050565b604051806060016040528060006001600160a01b031681526020016060815260200160006004811115611a4557611a45611e05565b905290565b828054828255906000526020600020908101928215611a9f579160200282015b82811115611a9f57825182546001600160a01b0319166001600160a01b03909116178255602090920191600190910190611a6a565b50611aab929150611aaf565b5090565b5b80821115611aab5760008155600101611ab0565b600060208284031215611ad657600080fd5b5035919050565b6000815180845260005b81811015611b0357602081850181015186830182015201611ae7565b506000602082860101526020601f19601f83011685010191505092915050565b6000815160c08452611b3860c0850182611add565b60208481015186830387830152805180845290820193509091600091908301905b80831015611b825784516001600160a01b03168252938301936001929092019190830190611b59565b5060408601516040880152606086015193508681036060880152611ba68185611add565b93505050506080830151608085015260a0830151611bcf60a08601826001600160401b03169052565b509392505050565b60208152600061167e6020830184611b23565b80356001600160a01b0381168114611c0157600080fd5b919050565b600060208284031215611c1857600080fd5b61167e82611bea565b634e487b7160e01b600052604160045260246000fd5b604051601f8201601f191681016001600160401b0381118282101715611c5f57611c5f611c21565b604052919050565b600082601f830112611c7857600080fd5b813560206001600160401b03821115611c9357611c93611c21565b8160051b611ca2828201611c37565b9283528481018201928281019087851115611cbc57600080fd5b83870192505b84831015611ce257611cd383611bea565b82529183019190830190611cc2565b979650505050505050565b600060208284031215611cff57600080fd5b81356001600160401b03811115611d1557600080fd5b611d2184828501611c67565b949350505050565b600060208083016020845280855180835260408601915060408160051b87010192506020870160005b82811015611d8057603f19888603018452611d6e858351611b23565b94509285019290850190600101611d52565b5092979650505050505050565b600060208284031215611d9f57600080fd5b81356005811061167e57600080fd5b600060208083016020845280855180835260408601915060408160051b87010192506020870160005b82811015611d8057603f19888603018452611df3858351611add565b94509285019290850190600101611dd7565b634e487b7160e01b600052602160045260246000fd5b60058110611e3957634e487b7160e01b600052602160045260246000fd5b9052565b60018060a01b0381511682526000602082015160606020850152611e646060850182611add565b90506040830151611bcf6040860182611e1b565b60208152600061167e6020830184611e3d565b600060208083016020845280855180835260408601915060408160051b87010192506020870160005b82811015611d8057603f19888603018452611ed0858351611e3d565b94509285019290850190600101611eb4565b60006001600160401b03831115611efb57611efb611c21565b611f0e601f8401601f1916602001611c37565b9050828152838383011115611f2257600080fd5b828260208301376000602084830101529392505050565b600082601f830112611f4a57600080fd5b61167e83833560208501611ee2565b60008060408385031215611f6c57600080fd5b611f7583611bea565b915060208301356001600160401b03811115611f9057600080fd5b611f9c85828601611f39565b9150509250929050565b600060208284031215611fb857600080fd5b81356001600160401b03811115611fce57600080fd5b611d2184828501611f39565b60008151808452602080850194506020840160005b838110156120145781516001600160a01b031687529582019590820190600101611fef565b509495945050505050565b60208152600061167e6020830184611fda565b6000806000806080858703121561204857600080fd5b84356001600160401b038082111561205f57600080fd5b61206b88838901611f39565b9550602087013591508082111561208157600080fd5b61208d88838901611c67565b94506040870135935060608701359150808211156120aa57600080fd5b508501601f810187136120bc57600080fd5b6120cb87823560208401611ee2565b91505092959194509250565b6000806000606084860312156120ec57600080fd5b833592506020840135915060408401356001600160401b038116811461211157600080fd5b809150509250925092565b60208152600061167e6020830184611add565b600181811c9082168061214357607f821691505b60208210810361216357634e487b7160e01b600052602260045260246000fd5b50919050565b634e487b7160e01b600052603260045260246000fd5b602081016109438284611e1b565b601f821115611892576000816000526020600020601f850160051c810160208610156121b65750805b601f850160051c820191505b818110156121d5578281556001016121c2565b505050505050565b81516001600160401b038111156121f6576121f6611c21565b61220a81612204845461212f565b8461218d565b602080601f83116001811461223f57600084156122275750858301515b600019600386901b1c1916600185901b1785556121d5565b600085815260208120601f198616915b8281101561226e5788860151825594840194600190910190840161224f565b508582101561228c5787850151600019600388901b60f8161c191681555b5050505050600190811b01905550565b6040815260006122af6040830185611add565b905061167e6020830184611e1b565b6060815260006122d16060830186611add565b82810360208401526122e38186611fda565b915050826040830152949350505050565b634e487b7160e01b600052601160045260246000fd5b6001600160401b03818116838216019080821115610925576109256122f4565b60608152600080855461233c8161212f565b806060860152608060018084166000811461235e576001811461237a576123ac565b60ff1985166080890152608084151560051b89010195506123ac565b8a60005260208060002060005b868110156123a25781548b8201870152908401908201612387565b8a01608001975050505b5050505050602083018590526001600160401b03841660408401529050611d21565b81810381811115610943576109436122f4565b634e487b7160e01b600052603160045260246000fd","linkReferences":{}},"methodIdentifiers":{"__RiverRegistry_init(address[])":"286af253","allocateStream(string,address[],bytes32,bytes)":"e5d78f6a","approveOperator(address)":"242cae9f","getAllNodeAddresses()":"c8fe3a01","getAllNodes()":"a1174e7d","getAllStreamIds()":"86789fc6","getAllStreams()":"3bd84c0c","getNode(address)":"9d209048","getNodeCount()":"39bf397e","getStream(bytes32)":"1290abe8","getStreamCount()":"c0f22084","isOperator(address)":"6d70f7ae","registerNode(address,string)":"bb9b342d","removeOperator(address)":"ac8a584a","setStreamLastMiniblock(bytes32,bytes32,uint64)":"fc7a9223","updateNodeStatus(uint8)":"7691f5ed","updateNodeUrl(string)":"be6522d6"},"id":130}