{"abi":[{"type":"function","name":"__RiverRegistry_init","inputs":[{"name":"approvedOperators","type":"address[]","internalType":"address[]"}],"outputs":[],"stateMutability":"nonpayable"},{"type":"function","name":"allocateStream","inputs":[{"name":"streamId","type":"bytes32","internalType":"bytes32"},{"name":"nodes","type":"address[]","internalType":"address[]"},{"name":"genesisMiniblockHash","type":"bytes32","internalType":"bytes32"},{"name":"genesisMiniblock","type":"bytes","internalType":"bytes"}],"outputs":[],"stateMutability":"nonpayable"},{"type":"function","name":"approveOperator","inputs":[{"name":"operator","type":"address","internalType":"address"}],"outputs":[],"stateMutability":"nonpayable"},{"type":"function","name":"getAllNodeAddresses","inputs":[],"outputs":[{"name":"","type":"address[]","internalType":"address[]"}],"stateMutability":"view"},{"type":"function","name":"getAllNodes","inputs":[],"outputs":[{"name":"","type":"tuple[]","internalType":"struct IRiverRegistryBase.Node[]","components":[{"name":"nodeAddress","type":"address","internalType":"address"},{"name":"url","type":"string","internalType":"string"},{"name":"status","type":"uint8","internalType":"enum IRiverRegistryBase.NodeStatus"}]}],"stateMutability":"view"},{"type":"function","name":"getAllStreamIds","inputs":[],"outputs":[{"name":"","type":"bytes32[]","internalType":"bytes32[]"}],"stateMutability":"view"},{"type":"function","name":"getAllStreams","inputs":[],"outputs":[{"name":"","type":"tuple[]","internalType":"struct IRiverRegistryBase.StreamWithId[]","components":[{"name":"id","type":"bytes32","internalType":"bytes32"},{"name":"stream","type":"tuple","internalType":"struct IRiverRegistryBase.Stream","components":[{"name":"lastMiniblockHash","type":"bytes32","internalType":"bytes32"},{"name":"lastMiniblockNum","type":"uint64","internalType":"uint64"},{"name":"flags","type":"uint64","internalType":"uint64"},{"name":"reserved0","type":"uint64","internalType":"uint64"},{"name":"reserved1","type":"uint64","internalType":"uint64"},{"name":"nodes","type":"address[]","internalType":"address[]"}]}]}],"stateMutability":"view"},{"type":"function","name":"getNode","inputs":[{"name":"nodeAddress","type":"address","internalType":"address"}],"outputs":[{"name":"","type":"tuple","internalType":"struct IRiverRegistryBase.Node","components":[{"name":"nodeAddress","type":"address","internalType":"address"},{"name":"url","type":"string","internalType":"string"},{"name":"status","type":"uint8","internalType":"enum IRiverRegistryBase.NodeStatus"}]}],"stateMutability":"view"},{"type":"function","name":"getNodeCount","inputs":[],"outputs":[{"name":"","type":"uint256","internalType":"uint256"}],"stateMutability":"view"},{"type":"function","name":"getStream","inputs":[{"name":"streamId","type":"bytes32","internalType":"bytes32"}],"outputs":[{"name":"","type":"tuple","internalType":"struct IRiverRegistryBase.Stream","components":[{"name":"lastMiniblockHash","type":"bytes32","internalType":"bytes32"},{"name":"lastMiniblockNum","type":"uint64","internalType":"uint64"},{"name":"flags","type":"uint64","internalType":"uint64"},{"name":"reserved0","type":"uint64","internalType":"uint64"},{"name":"reserved1","type":"uint64","internalType":"uint64"},{"name":"nodes","type":"address[]","internalType":"address[]"}]}],"stateMutability":"view"},{"type":"function","name":"getStreamCount","inputs":[],"outputs":[{"name":"","type":"uint256","internalType":"uint256"}],"stateMutability":"view"},{"type":"function","name":"getStreamWithGenesis","inputs":[{"name":"streamId","type":"bytes32","internalType":"bytes32"}],"outputs":[{"name":"","type":"tuple","internalType":"struct IRiverRegistryBase.Stream","components":[{"name":"lastMiniblockHash","type":"bytes32","internalType":"bytes32"},{"name":"lastMiniblockNum","type":"uint64","internalType":"uint64"},{"name":"flags","type":"uint64","internalType":"uint64"},{"name":"reserved0","type":"uint64","internalType":"uint64"},{"name":"reserved1","type":"uint64","internalType":"uint64"},{"name":"nodes","type":"address[]","internalType":"address[]"}]},{"name":"","type":"bytes32","internalType":"bytes32"},{"name":"","type":"bytes","internalType":"bytes"}],"stateMutability":"view"},{"type":"function","name":"isOperator","inputs":[{"name":"operator","type":"address","internalType":"address"}],"outputs":[{"name":"","type":"bool","internalType":"bool"}],"stateMutability":"view"},{"type":"function","name":"placeStreamOnNode","inputs":[{"name":"streamId","type":"bytes32","internalType":"bytes32"},{"name":"nodeAddress","type":"address","internalType":"address"}],"outputs":[],"stateMutability":"nonpayable"},{"type":"function","name":"registerNode","inputs":[{"name":"nodeAddress","type":"address","internalType":"address"},{"name":"url","type":"string","internalType":"string"}],"outputs":[],"stateMutability":"nonpayable"},{"type":"function","name":"removeOperator","inputs":[{"name":"operator","type":"address","internalType":"address"}],"outputs":[],"stateMutability":"nonpayable"},{"type":"function","name":"removeStreamFromNode","inputs":[{"name":"streamId","type":"bytes32","internalType":"bytes32"},{"name":"nodeAddress","type":"address","internalType":"address"}],"outputs":[],"stateMutability":"nonpayable"},{"type":"function","name":"setStreamLastMiniblock","inputs":[{"name":"streamId","type":"bytes32","internalType":"bytes32"},{"name":"lastMiniblockHash","type":"bytes32","internalType":"bytes32"},{"name":"lastMiniblockNum","type":"uint64","internalType":"uint64"},{"name":"isSealed","type":"bool","internalType":"bool"}],"outputs":[],"stateMutability":"nonpayable"},{"type":"function","name":"updateNodeStatus","inputs":[{"name":"status","type":"uint8","internalType":"enum IRiverRegistryBase.NodeStatus"}],"outputs":[],"stateMutability":"nonpayable"},{"type":"function","name":"updateNodeUrl","inputs":[{"name":"url","type":"string","internalType":"string"}],"outputs":[],"stateMutability":"nonpayable"},{"type":"function","name":"updateNodeUrlByOperator","inputs":[{"name":"nodeAddress","type":"address","internalType":"address"},{"name":"url","type":"string","internalType":"string"}],"outputs":[],"stateMutability":"nonpayable"},{"type":"event","name":"Initialized","inputs":[{"name":"version","type":"uint32","indexed":false,"internalType":"uint32"}],"anonymous":false},{"type":"event","name":"InterfaceAdded","inputs":[{"name":"interfaceId","type":"bytes4","indexed":true,"internalType":"bytes4"}],"anonymous":false},{"type":"event","name":"InterfaceRemoved","inputs":[{"name":"interfaceId","type":"bytes4","indexed":true,"internalType":"bytes4"}],"anonymous":false},{"type":"event","name":"NodeAdded","inputs":[{"name":"nodeAddress","type":"address","indexed":true,"internalType":"address"},{"name":"url","type":"string","indexed":false,"internalType":"string"},{"name":"status","type":"uint8","indexed":false,"internalType":"enum IRiverRegistryBase.NodeStatus"}],"anonymous":false},{"type":"event","name":"NodeStatusUpdated","inputs":[{"name":"nodeAddress","type":"address","indexed":true,"internalType":"address"},{"name":"status","type":"uint8","indexed":false,"internalType":"enum IRiverRegistryBase.NodeStatus"}],"anonymous":false},{"type":"event","name":"NodeUrlUpdated","inputs":[{"name":"nodeAddress","type":"address","indexed":true,"internalType":"address"},{"name":"url","type":"string","indexed":false,"internalType":"string"}],"anonymous":false},{"type":"event","name":"OperatorAdded","inputs":[{"name":"operatorAddress","type":"address","indexed":true,"internalType":"address"}],"anonymous":false},{"type":"event","name":"OperatorRemoved","inputs":[{"name":"operatorAddress","type":"address","indexed":true,"internalType":"address"}],"anonymous":false},{"type":"event","name":"OwnershipTransferred","inputs":[{"name":"previousOwner","type":"address","indexed":true,"internalType":"address"},{"name":"newOwner","type":"address","indexed":true,"internalType":"address"}],"anonymous":false},{"type":"event","name":"StreamAllocated","inputs":[{"name":"streamId","type":"bytes32","indexed":false,"internalType":"bytes32"},{"name":"nodes","type":"address[]","indexed":false,"internalType":"address[]"},{"name":"genesisMiniblockHash","type":"bytes32","indexed":false,"internalType":"bytes32"}],"anonymous":false},{"type":"event","name":"StreamLastMiniblockUpdated","inputs":[{"name":"streamId","type":"bytes32","indexed":false,"internalType":"bytes32"},{"name":"lastMiniblockHash","type":"bytes32","indexed":false,"internalType":"bytes32"},{"name":"lastMiniblockNum","type":"uint64","indexed":false,"internalType":"uint64"},{"name":"isSealed","type":"bool","indexed":false,"internalType":"bool"}],"anonymous":false},{"type":"event","name":"StreamPlacementUpdated","inputs":[{"name":"streamId","type":"bytes32","indexed":false,"internalType":"bytes32"},{"name":"nodeAddress","type":"address","indexed":false,"internalType":"address"},{"name":"isAdded","type":"bool","indexed":false,"internalType":"bool"}],"anonymous":false},{"type":"error","name":"Initializable_InInitializingState","inputs":[]},{"type":"error","name":"Initializable_NotInInitializingState","inputs":[]},{"type":"error","name":"Introspection_AlreadySupported","inputs":[]},{"type":"error","name":"Introspection_NotSupported","inputs":[]},{"type":"error","name":"Ownable__NotOwner","inputs":[{"name":"account","type":"address","internalType":"address"}]},{"type":"error","name":"Ownable__ZeroAddress","inputs":[]}],"bytecode":{"object":"0x60806040523480156200001157600080fd5b506200001c62000022565b620000ca565b7f2d0d21306acfe8e9bb163a4573e95aff6cef95dc1102c6a16d5f19eac08cc4de8054640100000000900460ff16156200006f576040516366008a2d60e01b815260040160405180910390fd5b805463ffffffff9081161015620000c757805463ffffffff191663ffffffff90811782556040519081527fe9c9b456cb2994b80aeef036cf59d26e9617df80f816a6ee5a5b4166e07e2f5c9060200160405180910390a15b50565b61293080620000da6000396000f3fe608060405234801561001057600080fd5b50600436106101375760003560e01c80637691f5ed116100b8578063ac8a584a1161007c578063ac8a584a146102a6578063bb9b342d146102b9578063be6522d6146102cc578063c0f22084146102df578063c8fe3a01146102e7578063ee885b12146102fc57600080fd5b80637691f5ed1461023657806386789fc6146102495780639d2090481461025e5780639ee86d381461027e578063a1174e7d1461029157600080fd5b80633bd84c0c116100ff5780633bd84c0c146101b65780633c2544d1146101cb578063681a8d67146101ed5780636b883c39146102005780636d70f7ae1461021357600080fd5b8063023a401c1461013c5780631290abe814610151578063242cae9f1461017a578063286af2531461018d57806339bf397e146101a0575b600080fd5b61014f61014a36600461212e565b61030f565b005b61016461015f36600461217b565b610483565b6040516101719190612231565b60405180910390f35b61014f610188366004612244565b6105a1565b61014f61019b3660046122e5565b6106d0565b6101a8610726565b604051908152602001610171565b6101be610740565b6040516101719190612321565b6101de6101d936600461217b565b6108ce565b604051610171939291906123dd565b61014f6101fb366004612412565b610a9f565b61014f61020e36600461246d565b610ce5565b610226610221366004612244565b610f5c565b6040519015158152602001610171565b61014f6102443660046124f7565b610f70565b61025161103d565b6040516101719190612518565b61027161026c366004612244565b61105a565b60405161017191906125d7565b61014f61028c3660046125ea565b6111bb565b610299611370565b6040516101719190612616565b61014f6102b4366004612244565b611527565b61014f6102c736600461212e565b61167a565b61014f6102da36600461267a565b611826565b6101a86118d1565b6102ef6118e3565b60405161017191906126f3565b61014f61030a3660046125ea565b6118fd565b6103243361031b611b48565b60080190611b6c565b6103675760408051808201825260088152670848288be82aaa8960c31b6020820152905162461bcd60e51b815261035e9190600401612706565b60405180910390fd5b6000610371611b48565b90506103806005820184611b6c565b6103c057604080518082018252600e81526d1393d11157d393d517d193d5539160921b6020820152905162461bcd60e51b815261035e9190600401612706565b336000908152600a8201602052604090206103db9084611b6c565b6104155760408051808201825260088152670848288be82aaa8960c31b6020820152905162461bcd60e51b815261035e9190600401612706565b6001600160a01b0383166000908152600782016020526040902060010161043c83826127a3565b50826001600160a01b03167f4505168a8705a16fd4d0575197fd0f510db69df93a065e158ad2c0957ba12bac836040516104769190612706565b60405180910390a2505050565b61048b611f16565b6000610495611b48565b90506104a18184611b91565b6104dc5760408051808201825260098152681393d517d193d5539160ba1b6020820152905162461bcd60e51b815261035e9190600401612706565b600083815260028083016020908152604092839020835160c0810185528154815260018201546001600160401b0380821683860152600160401b8204811683880152600160801b820481166060840152600160c01b90910416608082015292810180548551818502810185019096528086529394919360a086019383018282801561059057602002820191906000526020600020905b81546001600160a01b03168152600190910190602001808311610572575b505050505081525050915050919050565b7fa7c3be20e3a76821507555109752fad8a6630ef0362a34dcfcdfef83c99a2537546001600160a01b031633146105ed576040516365f4906560e01b815233600482015260240161035e565b6001600160a01b0381166106305760408051808201825260078152664241445f41524760c81b6020820152905162461bcd60e51b815261035e9190600401612706565b600061063a611b48565b90506106496008820183611b6c565b1561068a57604080518082018252600e81526d414c52454144595f45584953545360901b6020820152905162461bcd60e51b815261035e9190600401612706565b6106976008820183611ba9565b506040516001600160a01b038316907fac6fa858e9350a46cec16539926e0fde25b7629f84b5a72bffaae4df888ae86d90600090a25050565b7f2d0d21306acfe8e9bb163a4573e95aff6cef95dc1102c6a16d5f19eac08cc4de54640100000000900460ff1661071a57604051630ef4733760e31b815260040160405180910390fd5b61072381611bbe565b50565b600061073b610733611b48565b600501611bd7565b905090565b6060600061074c611b48565b9050600061075982611bd7565b6001600160401b0381111561077057610770612071565b6040519080825280602002602001820160405280156107a957816020015b610796611f4d565b81526020019060019003908161078e5790505b50905060005b6107b883611bd7565b8110156108c75760006107cb8483611be1565b60408051808201825282815260008381526002808901602090815291849020845160c0810186528154815260018201546001600160401b0380821683870152600160401b8204811683890152600160801b820481166060840152600160c01b90910416608082015291810180548651818602810186019097528087529697509395838701959294919360a086019392919083018282801561089557602002820191906000526020600020905b81546001600160a01b03168152600190910190602001808311610877575b5050505050815250508152508383815181106108b3576108b3612862565b6020908102919091010152506001016107af565b5092915050565b6108d6611f16565b6000606060006108e4611b48565b90506108f08186611b91565b61092b5760408051808201825260098152681393d517d193d5539160ba1b6020820152905162461bcd60e51b815261035e9190600401612706565b60008581526002808301602090815260408084206004860183528185205460038701845294829020825160c0810184528254815260018301546001600160401b0380821683880152600160401b8204811683870152600160801b820481166060840152600160c01b909104166080820152948201805484518187028101870190955280855292969591949193879360a08601939192918301828280156109fa57602002820191906000526020600020905b81546001600160a01b031681526001909101906020018083116109dc575b5050505050815250509250808054610a1190612719565b80601f0160208091040260200160405190810160405280929190818152602001828054610a3d90612719565b8015610a8a5780601f10610a5f57610100808354040283529160200191610a8a565b820191906000526020600020905b815481529060010190602001808311610a6d57829003601f168201915b50505050509050935093509350509193909250565b610ab433610aab611b48565b60050190611b6c565b610aee5760408051808201825260088152670848288be82aaa8960c31b6020820152905162461bcd60e51b815261035e9190600401612706565b6000610af8611b48565b9050610b048186611b91565b610b3f5760408051808201825260098152681393d517d193d5539160ba1b6020820152905162461bcd60e51b815261035e9190600401612706565b60008581526002820160205260409020600180820154600160401b90041615610b9d57604080518082018252600d81526c14d51491505357d4d150531151609a1b6020820152905162461bcd60e51b815261035e9190600401612706565b6001808201546001600160401b0380871692610bbc929091169061288e565b6001600160401b031614610bff5760408051808201825260078152664241445f41524760c81b6020820152905162461bcd60e51b815261035e9190600401612706565b84815560018101805467ffffffffffffffff19166001600160401b0386161790558215610c5e57600181810180546fffffffffffffffff0000000000000000198116600160401b918290046001600160401b0316909317029190911790555b836001600160401b0316600103610c885760008681526003830160205260408120610c8891611f6c565b60408051878152602081018790526001600160401b0386169181019190915283151560608201527fccc26bbb6dd655ea0bb8a40a3c30e35c6bdf42f8faf0d71bbea897af768cda8b906080015b60405180910390a1505050505050565b610cf133610aab611b48565b610d2b5760408051808201825260088152670848288be82aaa8960c31b6020820152905162461bcd60e51b815261035e9190600401612706565b6000610d35611b48565b9050610d418186611b91565b15610d8257604080518082018252600e81526d414c52454144595f45584953545360901b6020820152905162461bcd60e51b815261035e9190600401612706565b60005b8451811015610e0557610dbd858281518110610da357610da3612862565b602002602001015183600501611b6c90919063ffffffff16565b610dfd57604080518082018252600e81526d1393d11157d393d517d193d5539160921b6020820152905162461bcd60e51b815261035e9190600401612706565b600101610d85565b506040805160c08101825284815260006020820181905291810182905260608101829052608081019190915260a08101859052610e428287611bed565b50600086815260028084016020908152604092839020845181558185015160018201805495870151606088015160808901516001600160401b03908116600160c01b026001600160c01b03928216600160801b02929092166fffffffffffffffffffffffffffffffff938216600160401b026fffffffffffffffffffffffffffffffff19909a1691909516179790971716919091179490941790935560a08401518051859493610ef793908501920190611fa6565b50505060008681526003830160205260409020610f1484826127a3565b50600086815260048301602052604090819020859055517fd79158fa478ef0af48ae6b32b29d29b2a37ee7b0dfcce6005880fd071623b5fb90610cd5908890889088906128ae565b6000610f6a8261031b611b48565b92915050565b610f7c33610aab611b48565b610fb65760408051808201825260088152670848288be82aaa8960c31b6020820152905162461bcd60e51b815261035e9190600401612706565b6000610fc0611b48565b33600090815260078201602052604090206002018054919250839160ff19166001836004811115610ff357610ff361255c565b0217905550336001600160a01b03167f20891cc7622c7951cbd8c70c61a5201eb45625b8c00e8f6c986cfca78f3dbfa08360405161103191906128d7565b60405180910390a25050565b60606000611049611b48565b905061105481611bf9565b91505090565b61106261200b565b600061106c611b48565b905061107b6005820184611b6c565b6110bb57604080518082018252600e81526d1393d11157d393d517d193d5539160921b6020820152905162461bcd60e51b815261035e9190600401612706565b6001600160a01b038084166000908152600783016020908152604091829020825160608101909352805490931682526001830180549293929184019161110090612719565b80601f016020809104026020016040519081016040528092919081815260200182805461112c90612719565b80156111795780601f1061114e57610100808354040283529160200191611179565b820191906000526020600020905b81548152906001019060200180831161115c57829003601f168201915b5050509183525050600282015460209091019060ff1660048111156111a0576111a061255c565b60048111156111b1576111b161255c565b9052509392505050565b60006111c5611b48565b90506111d18184611b91565b61120c5760408051808201825260098152681393d517d193d5539160ba1b6020820152905162461bcd60e51b815261035e9190600401612706565b6112196005820183611b6c565b61125957604080518082018252600e81526d1393d11157d393d517d193d5539160921b6020820152905162461bcd60e51b815261035e9190600401612706565b60008381526002820160205260408120905b60028201548110156112f457836001600160a01b031682600201828154811061129657611296612862565b6000918252602090912001546001600160a01b0316036112ec57604080518082018252600e81526d414c52454144595f45584953545360901b6020820152905162461bcd60e51b815261035e9190600401612706565b60010161126b565b5060028101805460018082018355600092835260209283902090910180546001600160a01b0319166001600160a01b03871690811790915560408051888152938401919091528201527faaa473c28a5fe04b6a7ecd795826e462f9d0c23f00ef9f51ec02fa6ea418806f9060600160405180910390a150505050565b6060600061137c611b48565b9050600061138c82600501611bd7565b6001600160401b038111156113a3576113a3612071565b6040519080825280602002602001820160405280156113dc57816020015b6113c961200b565b8152602001906001900390816113c15790505b50905060005b6113ee83600501611bd7565b8110156108c7576007830160006114086005860184611be1565b6001600160a01b039081168252602080830193909352604091820160002082516060810190935280549091168252600181018054929391929184019161144d90612719565b80601f016020809104026020016040519081016040528092919081815260200182805461147990612719565b80156114c65780601f1061149b576101008083540402835291602001916114c6565b820191906000526020600020905b8154815290600101906020018083116114a957829003601f168201915b5050509183525050600282015460209091019060ff1660048111156114ed576114ed61255c565b60048111156114fe576114fe61255c565b8152505082828151811061151457611514612862565b60209081029190910101526001016113e2565b7fa7c3be20e3a76821507555109752fad8a6630ef0362a34dcfcdfef83c99a2537546001600160a01b03163314611573576040516365f4906560e01b815233600482015260240161035e565b600061157d611b48565b905061158c6008820183611b6c565b6115d057604080518082018252601281527113d41154905513d497d393d517d193d5539160721b6020820152905162461bcd60e51b815261035e9190600401612706565b6001600160a01b0382166000908152600a8201602052604081206115f390611bd7565b111561163457604080518082018252600d81526c4f55545f4f465f424f554e445360981b6020820152905162461bcd60e51b815261035e9190600401612706565b6116416008820183611c06565b506040516001600160a01b038316907f80c0b871b97b595b16a7741c1b06fed0c6f6f558639f18ccbce50724325dc40d90600090a25050565b6116863361031b611b48565b6116c05760408051808201825260088152670848288be82aaa8960c31b6020820152905162461bcd60e51b815261035e9190600401612706565b60006116ca611b48565b90506116d96005820184611b6c565b1561171a57604080518082018252600e81526d414c52454144595f45584953545360901b6020820152905162461bcd60e51b815261035e9190600401612706565b604080516060810182526001600160a01b038516815260208082018590526000828401819052338152600a8501909152919091206117589085611ba9565b506117666005830185611ba9565b506001600160a01b0384811660009081526007840160209081526040909120835181546001600160a01b031916931692909217825582015182919060018201906117b090826127a3565b50604082015160028201805460ff191660018360048111156117d4576117d461255c565b0217905550905050836001600160a01b03167fd6f3629b08191adb8308c3a65d5f8803b7f8f3e359c433fa7ae623276635e5618460006040516118189291906128e5565b60405180910390a250505050565b61183233610aab611b48565b61186c5760408051808201825260088152670848288be82aaa8960c31b6020820152905162461bcd60e51b815261035e9190600401612706565b6000611876611b48565b336000908152600782016020526040902090915060010161189783826127a3565b50336001600160a01b03167f4505168a8705a16fd4d0575197fd0f510db69df93a065e158ad2c0957ba12bac836040516110319190612706565b600061073b6118de611b48565b611bd7565b606060006118ef611b48565b905061105481600501611bf9565b6000611907611b48565b90506119138184611b91565b61194e5760408051808201825260098152681393d517d193d5539160ba1b6020820152905162461bcd60e51b815261035e9190600401612706565b61195b6005820183611b6c565b61199b57604080518082018252600e81526d1393d11157d393d517d193d5539160921b6020820152905162461bcd60e51b815261035e9190600401612706565b6000838152600282016020526040812090805b6002830154811015611ab757846001600160a01b03168360020182815481106119d9576119d9612862565b6000918252602090912001546001600160a01b031603611aaf57600283018054611a0590600190612907565b81548110611a1557611a15612862565b6000918252602090912001546002840180546001600160a01b039092169183908110611a4357611a43612862565b9060005260206000200160006101000a8154816001600160a01b0302191690836001600160a01b0316021790555082600201805480611a8457611a8461291a565b600082815260209020810160001990810180546001600160a01b031916905501905560019150611ab7565b6001016119ae565b5080611af957604080518082018252600e81526d1393d11157d393d517d193d5539160921b6020820152905162461bcd60e51b815261035e9190600401612706565b604080518681526001600160a01b038616602082015260008183015290517faaa473c28a5fe04b6a7ecd795826e462f9d0c23f00ef9f51ec02fa6ea418806f9181900360600190a15050505050565b7f1320bfade83d725f4918cce6752986eeef865fd566a9348c57c798b58dfc7ea690565b6001600160a01b038116600090815260018301602052604081205415155b9392505050565b60008181526001830160205260408120541515611b8a565b6000611b8a836001600160a01b038416611c1b565b611bce63b32e731f60e01b611c6a565b61072381611d48565b6000610f6a825490565b6000611b8a8383611d9d565b6000611b8a8383611c1b565b60606000611b8a83611dc7565b6000611b8a836001600160a01b038416611e23565b6000818152600183016020526040812054611c6257508154600181810184556000848152602080822090930184905584548482528286019093526040902091909155610f6a565b506000610f6a565b6001600160e01b0319811660009081527fbc7de460bcfb6afd0c415c8c610d408bd914b18d7d0feec0da9e25348087a5c4602052604090205460ff161515600114611cf7576001600160e01b0319811660009081527fbc7de460bcfb6afd0c415c8c610d408bd914b18d7d0feec0da9e25348087a5c460205260409020805460ff19166001179055611d10565b604051637967f77d60e11b815260040160405180910390fd5b6040516001600160e01b03198216907f78f84e5b1c5c05be2b5ad3800781dd404d6d6c6302bc755c0fe20f58a33a7f2290600090a250565b6000611d52611b48565b905060005b8251811015611d9857611d8f838281518110611d7557611d75612862565b602002602001015183600801611ba990919063ffffffff16565b50600101611d57565b505050565b6000826000018281548110611db457611db4612862565b9060005260206000200154905092915050565b606081600001805480602002602001604051908101604052809291908181526020018280548015611e1757602002820191906000526020600020905b815481526020019060010190808311611e03575b50505050509050919050565b60008181526001830160205260408120548015611f0c576000611e47600183612907565b8554909150600090611e5b90600190612907565b9050818114611ec0576000866000018281548110611e7b57611e7b612862565b9060005260206000200154905080876000018481548110611e9e57611e9e612862565b6000918252602080832090910192909255918252600188019052604090208390555b8554869080611ed157611ed161291a565b600190038181906000526020600020016000905590558560010160008681526020019081526020016000206000905560019350505050610f6a565b6000915050610f6a565b6040805160c0810182526000808252602082018190529181018290526060808201839052608082019290925260a081019190915290565b604080518082019091526000815260208101611f67611f16565b905290565b508054611f7890612719565b6000825580601f10611f88575050565b601f0160209004906000526020600020908101906107239190612040565b828054828255906000526020600020908101928215611ffb579160200282015b82811115611ffb57825182546001600160a01b0319166001600160a01b03909116178255602090920191600190910190611fc6565b50612007929150612040565b5090565b604051806060016040528060006001600160a01b031681526020016060815260200160006004811115611f6757611f6761255c565b5b808211156120075760008155600101612041565b80356001600160a01b038116811461206c57600080fd5b919050565b634e487b7160e01b600052604160045260246000fd5b604051601f8201601f191681016001600160401b03811182821017156120af576120af612071565b604052919050565b60006001600160401b038311156120d0576120d0612071565b6120e3601f8401601f1916602001612087565b90508281528383830111156120f757600080fd5b828260208301376000602084830101529392505050565b600082601f83011261211f57600080fd5b611b8a838335602085016120b7565b6000806040838503121561214157600080fd5b61214a83612055565b915060208301356001600160401b0381111561216557600080fd5b6121718582860161210e565b9150509250929050565b60006020828403121561218d57600080fd5b5035919050565b600060c08301825184526020808401516001600160401b038082166020880152806040870151166040880152806060870151166060880152806080870151166080880152505060a084015160c060a087015282815180855260e088019150602083019450600092505b808310156122265784516001600160a01b031682529383019360019290920191908301906121fd565b509695505050505050565b602081526000611b8a6020830184612194565b60006020828403121561225657600080fd5b611b8a82612055565b600082601f83011261227057600080fd5b813560206001600160401b0382111561228b5761228b612071565b8160051b61229a828201612087565b92835284810182019282810190878511156122b457600080fd5b83870192505b848310156122da576122cb83612055565b825291830191908301906122ba565b979650505050505050565b6000602082840312156122f757600080fd5b81356001600160401b0381111561230d57600080fd5b6123198482850161225f565b949350505050565b600060208083018184528085518083526040925060408601915060408160051b87010184880160005b8381101561238957888303603f1901855281518051845287015187840187905261237687850182612194565b958801959350509086019060010161234a565b509098975050505050505050565b6000815180845260005b818110156123bd576020818501810151868301820152016123a1565b506000602082860101526020601f19601f83011685010191505092915050565b6060815260006123f06060830186612194565b84602084015282810360408401526124088185612397565b9695505050505050565b6000806000806080858703121561242857600080fd5b843593506020850135925060408501356001600160401b038116811461244d57600080fd5b91506060850135801515811461246257600080fd5b939692955090935050565b6000806000806080858703121561248357600080fd5b8435935060208501356001600160401b03808211156124a157600080fd5b6124ad8883890161225f565b94506040870135935060608701359150808211156124ca57600080fd5b508501601f810187136124dc57600080fd5b6124eb878235602084016120b7565b91505092959194509250565b60006020828403121561250957600080fd5b813560058110611b8a57600080fd5b6020808252825182820181905260009190848201906040850190845b8181101561255057835183529284019291840191600101612534565b50909695505050505050565b634e487b7160e01b600052602160045260246000fd5b6005811061259057634e487b7160e01b600052602160045260246000fd5b9052565b60018060a01b03815116825260006020820151606060208501526125bb6060850182612397565b905060408301516125cf6040860182612572565b509392505050565b602081526000611b8a6020830184612594565b600080604083850312156125fd57600080fd5b8235915061260d60208401612055565b90509250929050565b600060208083016020845280855180835260408601915060408160051b87010192506020870160005b8281101561266d57603f1988860301845261265b858351612594565b9450928501929085019060010161263f565b5092979650505050505050565b60006020828403121561268c57600080fd5b81356001600160401b038111156126a257600080fd5b6123198482850161210e565b60008151808452602080850194506020840160005b838110156126e85781516001600160a01b0316875295820195908201906001016126c3565b509495945050505050565b602081526000611b8a60208301846126ae565b602081526000611b8a6020830184612397565b600181811c9082168061272d57607f821691505b60208210810361274d57634e487b7160e01b600052602260045260246000fd5b50919050565b601f821115611d98576000816000526020600020601f850160051c8101602086101561277c5750805b601f850160051c820191505b8181101561279b57828155600101612788565b505050505050565b81516001600160401b038111156127bc576127bc612071565b6127d0816127ca8454612719565b84612753565b602080601f83116001811461280557600084156127ed5750858301515b600019600386901b1c1916600185901b17855561279b565b600085815260208120601f198616915b8281101561283457888601518255948401946001909101908401612815565b50858210156128525787850151600019600388901b60f8161c191681555b5050505050600190811b01905550565b634e487b7160e01b600052603260045260246000fd5b634e487b7160e01b600052601160045260246000fd5b6001600160401b038181168382160190808211156108c7576108c7612878565b8381526060602082015260006128c760608301856126ae565b9050826040830152949350505050565b60208101610f6a8284612572565b6040815260006128f86040830185612397565b9050611b8a6020830184612572565b81810381811115610f6a57610f6a612878565b634e487b7160e01b600052603160045260246000fd","linkReferences":{}},"methodIdentifiers":{"__RiverRegistry_init(address[])":"286af253","allocateStream(bytes32,address[],bytes32,bytes)":"6b883c39","approveOperator(address)":"242cae9f","getAllNodeAddresses()":"c8fe3a01","getAllNodes()":"a1174e7d","getAllStreamIds()":"86789fc6","getAllStreams()":"3bd84c0c","getNode(address)":"9d209048","getNodeCount()":"39bf397e","getStream(bytes32)":"1290abe8","getStreamCount()":"c0f22084","getStreamWithGenesis(bytes32)":"3c2544d1","isOperator(address)":"6d70f7ae","placeStreamOnNode(bytes32,address)":"9ee86d38","registerNode(address,string)":"bb9b342d","removeOperator(address)":"ac8a584a","removeStreamFromNode(bytes32,address)":"ee885b12","setStreamLastMiniblock(bytes32,bytes32,uint64,bool)":"681a8d67","updateNodeStatus(uint8)":"7691f5ed","updateNodeUrl(string)":"be6522d6","updateNodeUrlByOperator(address,string)":"023a401c"},"id":126}