{"abi":[{"type":"function","name":"__RiverRegistry_init","inputs":[{"name":"approvedOperators","type":"address[]","internalType":"address[]"}],"outputs":[],"stateMutability":"nonpayable"},{"type":"function","name":"allocateStream","inputs":[{"name":"streamId","type":"bytes32","internalType":"bytes32"},{"name":"nodes","type":"address[]","internalType":"address[]"},{"name":"genesisMiniblockHash","type":"bytes32","internalType":"bytes32"},{"name":"genesisMiniblock","type":"bytes","internalType":"bytes"}],"outputs":[],"stateMutability":"nonpayable"},{"type":"function","name":"approveOperator","inputs":[{"name":"operator","type":"address","internalType":"address"}],"outputs":[],"stateMutability":"nonpayable"},{"type":"function","name":"getAllNodeAddresses","inputs":[],"outputs":[{"name":"","type":"address[]","internalType":"address[]"}],"stateMutability":"view"},{"type":"function","name":"getAllNodes","inputs":[],"outputs":[{"name":"","type":"tuple[]","internalType":"struct IRiverRegistryBase.Node[]","components":[{"name":"nodeAddress","type":"address","internalType":"address"},{"name":"url","type":"string","internalType":"string"},{"name":"status","type":"uint8","internalType":"enum IRiverRegistryBase.NodeStatus"}]}],"stateMutability":"view"},{"type":"function","name":"getAllStreamIds","inputs":[],"outputs":[{"name":"","type":"bytes32[]","internalType":"bytes32[]"}],"stateMutability":"view"},{"type":"function","name":"getAllStreams","inputs":[],"outputs":[{"name":"","type":"tuple[]","internalType":"struct IRiverRegistryBase.Stream[]","components":[{"name":"streamId","type":"bytes32","internalType":"bytes32"},{"name":"genesisMiniblockHash","type":"bytes32","internalType":"bytes32"},{"name":"lastMiniblockHash","type":"bytes32","internalType":"bytes32"},{"name":"lastMiniblockNum","type":"uint64","internalType":"uint64"},{"name":"flags","type":"uint64","internalType":"uint64"},{"name":"reserved0","type":"uint64","internalType":"uint64"},{"name":"reserved1","type":"uint64","internalType":"uint64"},{"name":"nodes","type":"address[]","internalType":"address[]"},{"name":"genesisMiniblock","type":"bytes","internalType":"bytes"}]}],"stateMutability":"view"},{"type":"function","name":"getNode","inputs":[{"name":"nodeAddress","type":"address","internalType":"address"}],"outputs":[{"name":"","type":"tuple","internalType":"struct IRiverRegistryBase.Node","components":[{"name":"nodeAddress","type":"address","internalType":"address"},{"name":"url","type":"string","internalType":"string"},{"name":"status","type":"uint8","internalType":"enum IRiverRegistryBase.NodeStatus"}]}],"stateMutability":"view"},{"type":"function","name":"getNodeCount","inputs":[],"outputs":[{"name":"","type":"uint256","internalType":"uint256"}],"stateMutability":"view"},{"type":"function","name":"getStream","inputs":[{"name":"streamId","type":"bytes32","internalType":"bytes32"}],"outputs":[{"name":"","type":"tuple","internalType":"struct IRiverRegistryBase.Stream","components":[{"name":"streamId","type":"bytes32","internalType":"bytes32"},{"name":"genesisMiniblockHash","type":"bytes32","internalType":"bytes32"},{"name":"lastMiniblockHash","type":"bytes32","internalType":"bytes32"},{"name":"lastMiniblockNum","type":"uint64","internalType":"uint64"},{"name":"flags","type":"uint64","internalType":"uint64"},{"name":"reserved0","type":"uint64","internalType":"uint64"},{"name":"reserved1","type":"uint64","internalType":"uint64"},{"name":"nodes","type":"address[]","internalType":"address[]"},{"name":"genesisMiniblock","type":"bytes","internalType":"bytes"}]}],"stateMutability":"view"},{"type":"function","name":"getStreamCount","inputs":[],"outputs":[{"name":"","type":"uint256","internalType":"uint256"}],"stateMutability":"view"},{"type":"function","name":"isOperator","inputs":[{"name":"operator","type":"address","internalType":"address"}],"outputs":[{"name":"","type":"bool","internalType":"bool"}],"stateMutability":"view"},{"type":"function","name":"registerNode","inputs":[{"name":"nodeAddress","type":"address","internalType":"address"},{"name":"url","type":"string","internalType":"string"}],"outputs":[],"stateMutability":"nonpayable"},{"type":"function","name":"removeOperator","inputs":[{"name":"operator","type":"address","internalType":"address"}],"outputs":[],"stateMutability":"nonpayable"},{"type":"function","name":"setStreamLastMiniblock","inputs":[{"name":"streamId","type":"bytes32","internalType":"bytes32"},{"name":"lastMiniblockHash","type":"bytes32","internalType":"bytes32"},{"name":"lastMiniblockNum","type":"uint64","internalType":"uint64"},{"name":"isSealed","type":"bool","internalType":"bool"}],"outputs":[],"stateMutability":"nonpayable"},{"type":"function","name":"updateNodeStatus","inputs":[{"name":"status","type":"uint8","internalType":"enum IRiverRegistryBase.NodeStatus"}],"outputs":[],"stateMutability":"nonpayable"},{"type":"function","name":"updateNodeUrl","inputs":[{"name":"url","type":"string","internalType":"string"}],"outputs":[],"stateMutability":"nonpayable"},{"type":"event","name":"Initialized","inputs":[{"name":"version","type":"uint32","indexed":false,"internalType":"uint32"}],"anonymous":false},{"type":"event","name":"InterfaceAdded","inputs":[{"name":"interfaceId","type":"bytes4","indexed":true,"internalType":"bytes4"}],"anonymous":false},{"type":"event","name":"InterfaceRemoved","inputs":[{"name":"interfaceId","type":"bytes4","indexed":true,"internalType":"bytes4"}],"anonymous":false},{"type":"event","name":"NodeAdded","inputs":[{"name":"nodeAddress","type":"address","indexed":true,"internalType":"address"},{"name":"url","type":"string","indexed":false,"internalType":"string"},{"name":"status","type":"uint8","indexed":false,"internalType":"enum IRiverRegistryBase.NodeStatus"}],"anonymous":false},{"type":"event","name":"NodeStatusUpdated","inputs":[{"name":"nodeAddress","type":"address","indexed":true,"internalType":"address"},{"name":"status","type":"uint8","indexed":false,"internalType":"enum IRiverRegistryBase.NodeStatus"}],"anonymous":false},{"type":"event","name":"NodeUrlUpdated","inputs":[{"name":"nodeAddress","type":"address","indexed":true,"internalType":"address"},{"name":"url","type":"string","indexed":false,"internalType":"string"}],"anonymous":false},{"type":"event","name":"OperatorAdded","inputs":[{"name":"operatorAddress","type":"address","indexed":true,"internalType":"address"}],"anonymous":false},{"type":"event","name":"OperatorRemoved","inputs":[{"name":"operatorAddress","type":"address","indexed":true,"internalType":"address"}],"anonymous":false},{"type":"event","name":"OwnershipTransferred","inputs":[{"name":"previousOwner","type":"address","indexed":true,"internalType":"address"},{"name":"newOwner","type":"address","indexed":true,"internalType":"address"}],"anonymous":false},{"type":"event","name":"StreamAllocated","inputs":[{"name":"streamId","type":"bytes32","indexed":false,"internalType":"bytes32"},{"name":"nodes","type":"address[]","indexed":false,"internalType":"address[]"},{"name":"genesisMiniblockHash","type":"bytes32","indexed":false,"internalType":"bytes32"}],"anonymous":false},{"type":"event","name":"StreamLastMiniblockUpdated","inputs":[{"name":"streamId","type":"bytes32","indexed":false,"internalType":"bytes32"},{"name":"lastMiniblockHash","type":"bytes32","indexed":false,"internalType":"bytes32"},{"name":"lastMiniblockNum","type":"uint64","indexed":false,"internalType":"uint64"},{"name":"isSealed","type":"bool","indexed":false,"internalType":"bool"}],"anonymous":false},{"type":"error","name":"Initializable_InInitializingState","inputs":[]},{"type":"error","name":"Initializable_NotInInitializingState","inputs":[]},{"type":"error","name":"Introspection_AlreadySupported","inputs":[]},{"type":"error","name":"Introspection_NotSupported","inputs":[]},{"type":"error","name":"Ownable__NotOwner","inputs":[{"name":"account","type":"address","internalType":"address"}]},{"type":"error","name":"Ownable__ZeroAddress","inputs":[]}],"bytecode":{"object":"0x608060405234801561001057600080fd5b5061001961001e565b6100c4565b7f2d0d21306acfe8e9bb163a4573e95aff6cef95dc1102c6a16d5f19eac08cc4de8054640100000000900460ff161561006a576040516366008a2d60e01b815260040160405180910390fd5b805463ffffffff90811610156100c157805463ffffffff191663ffffffff90811782556040519081527fe9c9b456cb2994b80aeef036cf59d26e9617df80f816a6ee5a5b4166e07e2f5c9060200160405180910390a15b50565b61220780620000d46000396000f3fe608060405234801561001057600080fd5b506004361061010b5760003560e01c80637691f5ed116100a2578063ac8a584a11610071578063ac8a584a14610232578063bb9b342d14610245578063be6522d614610258578063c0f220841461026b578063c8fe3a011461027357600080fd5b80637691f5ed146101d557806386789fc6146101e85780639d209048146101fd578063a1174e7d1461021d57600080fd5b80633bd84c0c116100de5780633bd84c0c14610177578063681a8d671461018c5780636b883c391461019f5780636d70f7ae146101b257600080fd5b80631290abe814610110578063242cae9f14610139578063286af2531461014e57806339bf397e14610161575b600080fd5b61012361011e366004611984565b610288565b6040516101309190611aed565b60405180910390f35b61014c610147366004611b1c565b610456565b005b61014c61015c366004611c03565b610585565b6101696105db565b604051908152602001610130565b61017f6105f5565b6040516101309190611c3f565b61014c61019a366004611ca3565b610816565b61014c6101ad366004611d55565b610a32565b6101c56101c0366004611b1c565b610cbc565b6040519015158152602001610130565b61014c6101e3366004611ddf565b610cd9565b6101f0610da6565b6040516101309190611e00565b61021061020b366004611b1c565b610dc3565b6040516101309190611ebf565b610225610f24565b6040516101309190611ed2565b61014c610240366004611b1c565b6110db565b61014c610253366004611f49565b61122e565b61014c610266366004611f96565b6113da565b610169611485565b61027b611497565b6040516101309190611fca565b610290611882565b600061029a6114b1565b90506102a681846114d5565b6102ea5760408051808201825260098152681393d517d193d5539160ba1b6020820152905162461bcd60e51b81526102e19190600401611fdd565b60405180910390fd5b60008381526002808301602090815260409283902083516101208101855281548152600182015481840152928101548385015260038101546001600160401b038082166060860152600160401b820481166080860152600160801b8204811660a0860152600160c01b9091041660c08401526004810180548551818502810185019096528086529394919360e08601938301828280156103b357602002820191906000526020600020905b81546001600160a01b03168152600190910190602001808311610395575b505050505081526020016005820180546103cc90611ff0565b80601f01602080910402602001604051908101604052809291908181526020018280546103f890611ff0565b80156104455780601f1061041a57610100808354040283529160200191610445565b820191906000526020600020905b81548152906001019060200180831161042857829003601f168201915b505050505081525050915050919050565b7fa7c3be20e3a76821507555109752fad8a6630ef0362a34dcfcdfef83c99a2537546001600160a01b031633146104a2576040516365f4906560e01b81523360048201526024016102e1565b6001600160a01b0381166104e55760408051808201825260078152664241445f41524760c81b6020820152905162461bcd60e51b81526102e19190600401611fdd565b60006104ef6114b1565b90506104fe60068201836114f0565b1561053f57604080518082018252600e81526d414c52454144595f45584953545360901b6020820152905162461bcd60e51b81526102e19190600401611fdd565b61054c6006820183611512565b506040516001600160a01b038316907fac6fa858e9350a46cec16539926e0fde25b7629f84b5a72bffaae4df888ae86d90600090a25050565b7f2d0d21306acfe8e9bb163a4573e95aff6cef95dc1102c6a16d5f19eac08cc4de54640100000000900460ff166105cf57604051630ef4733760e31b815260040160405180910390fd5b6105d881611527565b50565b60006105f06105e86114b1565b600301611543565b905090565b606060006106016114b1565b9050600061060e82611543565b6001600160401b0381111561062557610625611b37565b60405190808252806020026020018201604052801561065e57816020015b61064b611882565b8152602001906001900390816106435790505b50905060005b61066d83611543565b81101561080f57600283016000610684858461154d565b815260208082019290925260409081016000208151610120810183528154815260018201548185015260028201548184015260038201546001600160401b038082166060840152600160401b820481166080840152600160801b8204811660a0840152600160c01b9091041660c08201526004820180548451818702810187019095528085529194929360e086019390929083018282801561074f57602002820191906000526020600020905b81546001600160a01b03168152600190910190602001808311610731575b5050505050815260200160058201805461076890611ff0565b80601f016020809104026020016040519081016040528092919081815260200182805461079490611ff0565b80156107e15780601f106107b6576101008083540402835291602001916107e1565b820191906000526020600020905b8154815290600101906020018083116107c457829003601f168201915b5050505050815250508282815181106107fc576107fc61202a565b6020908102919091010152600101610664565b5092915050565b61082b336108226114b1565b600301906114f0565b6108655760408051808201825260088152670848288be82aaa8960c31b6020820152905162461bcd60e51b81526102e19190600401611fdd565b600061086f6114b1565b905061087b81866114d5565b6108b65760408051808201825260098152681393d517d193d5539160ba1b6020820152905162461bcd60e51b81526102e19190600401611fdd565b600085815260028201602052604090206003810154600160401b90046001161561091557604080518082018252600d81526c14d51491505357d4d150531151609a1b6020820152905162461bcd60e51b81526102e19190600401611fdd565b60038101546001600160401b038086169161093291166001612056565b6001600160401b0316146109755760408051808201825260078152664241445f41524760c81b6020820152905162461bcd60e51b81526102e19190600401611fdd565b6002810185905560038101805467ffffffffffffffff19166001600160401b03861617905582156109d6576003810180546fffffffffffffffff00000000000000001981166001600160401b928390046001600160401b0316179091021790555b805460408051918252602082018790526001600160401b0386169082015283151560608201527fccc26bbb6dd655ea0bb8a40a3c30e35c6bdf42f8faf0d71bbea897af768cda8b906080015b60405180910390a1505050505050565b610a3e336108226114b1565b610a785760408051808201825260088152670848288be82aaa8960c31b6020820152905162461bcd60e51b81526102e19190600401611fdd565b6000610a826114b1565b9050610a8e81866114d5565b15610acf57604080518082018252600e81526d414c52454144595f45584953545360901b6020820152905162461bcd60e51b81526102e19190600401611fdd565b60005b8451811015610b5257610b0a858281518110610af057610af061202a565b6020026020010151836003016114f090919063ffffffff16565b610b4a57604080518082018252600e81526d1393d11157d393d517d193d5539160921b6020820152905162461bcd60e51b81526102e19190600401611fdd565b600101610ad2565b506040805161012081018252868152602081018590529081018490526000606082018190526080820181905260a0820181905260c082015260e081018590526101008101839052610ba38287611559565b506000868152600280840160209081526040928390208451815581850151600182015592840151918301919091556060830151600383018054608086015160a087015160c08801516001600160401b03908116600160c01b026001600160c01b03928216600160801b02929092166fffffffffffffffffffffffffffffffff938216600160401b026fffffffffffffffffffffffffffffffff19909516919096161792909217169290921791909117905560e08301518051849392610c6f9260048501929101906118d0565b506101008201516005820190610c8590826120c6565b509050507fd79158fa478ef0af48ae6b32b29d29b2a37ee7b0dfcce6005880fd071623b5fb868686604051610a2293929190612185565b6000610cd382610cca6114b1565b600601906114f0565b92915050565b610ce5336108226114b1565b610d1f5760408051808201825260088152670848288be82aaa8960c31b6020820152905162461bcd60e51b81526102e19190600401611fdd565b6000610d296114b1565b33600090815260058201602052604090206002018054919250839160ff19166001836004811115610d5c57610d5c611e44565b0217905550336001600160a01b03167f20891cc7622c7951cbd8c70c61a5201eb45625b8c00e8f6c986cfca78f3dbfa083604051610d9a91906121ae565b60405180910390a25050565b60606000610db26114b1565b9050610dbd81611565565b91505090565b610dcb611935565b6000610dd56114b1565b9050610de460038201846114f0565b610e2457604080518082018252600e81526d1393d11157d393d517d193d5539160921b6020820152905162461bcd60e51b81526102e19190600401611fdd565b6001600160a01b0380841660009081526005830160209081526040918290208251606081019093528054909316825260018301805492939291840191610e6990611ff0565b80601f0160208091040260200160405190810160405280929190818152602001828054610e9590611ff0565b8015610ee25780601f10610eb757610100808354040283529160200191610ee2565b820191906000526020600020905b815481529060010190602001808311610ec557829003601f168201915b5050509183525050600282015460209091019060ff166004811115610f0957610f09611e44565b6004811115610f1a57610f1a611e44565b9052509392505050565b60606000610f306114b1565b90506000610f4082600301611543565b6001600160401b03811115610f5757610f57611b37565b604051908082528060200260200182016040528015610f9057816020015b610f7d611935565b815260200190600190039081610f755790505b50905060005b610fa283600301611543565b81101561080f57600583016000610fbc600386018461154d565b6001600160a01b039081168252602080830193909352604091820160002082516060810190935280549091168252600181018054929391929184019161100190611ff0565b80601f016020809104026020016040519081016040528092919081815260200182805461102d90611ff0565b801561107a5780601f1061104f5761010080835404028352916020019161107a565b820191906000526020600020905b81548152906001019060200180831161105d57829003601f168201915b5050509183525050600282015460209091019060ff1660048111156110a1576110a1611e44565b60048111156110b2576110b2611e44565b815250508282815181106110c8576110c861202a565b6020908102919091010152600101610f96565b7fa7c3be20e3a76821507555109752fad8a6630ef0362a34dcfcdfef83c99a2537546001600160a01b03163314611127576040516365f4906560e01b81523360048201526024016102e1565b60006111316114b1565b905061114060068201836114f0565b61118457604080518082018252601281527113d41154905513d497d393d517d193d5539160721b6020820152905162461bcd60e51b81526102e19190600401611fdd565b6001600160a01b038216600090815260088201602052604081206111a790611543565b11156111e857604080518082018252600d81526c4f55545f4f465f424f554e445360981b6020820152905162461bcd60e51b81526102e19190600401611fdd565b6111f56006820183611572565b506040516001600160a01b038316907f80c0b871b97b595b16a7741c1b06fed0c6f6f558639f18ccbce50724325dc40d90600090a25050565b61123a33610cca6114b1565b6112745760408051808201825260088152670848288be82aaa8960c31b6020820152905162461bcd60e51b81526102e19190600401611fdd565b600061127e6114b1565b905061128d60038201846114f0565b156112ce57604080518082018252600e81526d414c52454144595f45584953545360901b6020820152905162461bcd60e51b81526102e19190600401611fdd565b604080516060810182526001600160a01b038516815260208082018590526000828401819052338152600885019091529190912061130c9085611512565b5061131a6003830185611512565b506001600160a01b0384811660009081526005840160209081526040909120835181546001600160a01b0319169316929092178255820151829190600182019061136490826120c6565b50604082015160028201805460ff1916600183600481111561138857611388611e44565b0217905550905050836001600160a01b03167fd6f3629b08191adb8308c3a65d5f8803b7f8f3e359c433fa7ae623276635e5618460006040516113cc9291906121bc565b60405180910390a250505050565b6113e6336108226114b1565b6114205760408051808201825260088152670848288be82aaa8960c31b6020820152905162461bcd60e51b81526102e19190600401611fdd565b600061142a6114b1565b336000908152600582016020526040902090915060010161144b83826120c6565b50336001600160a01b03167f4505168a8705a16fd4d0575197fd0f510db69df93a065e158ad2c0957ba12bac83604051610d9a9190611fdd565b60006105f06114926114b1565b611543565b606060006114a36114b1565b9050610dbd81600301611565565b7f1320bfade83d725f4918cce6752986eeef865fd566a9348c57c798b58dfc7ea690565b600081815260018301602052604081205415155b9392505050565b6001600160a01b038116600090815260018301602052604081205415156114e9565b60006114e9836001600160a01b038416611587565b61153a600162253f8760e21b03196115d6565b6105d8816116b4565b6000610cd3825490565b60006114e98383611709565b60006114e98383611587565b606060006114e983611733565b60006114e9836001600160a01b03841661178f565b60008181526001830160205260408120546115ce57508154600181810184556000848152602080822090930184905584548482528286019093526040902091909155610cd3565b506000610cd3565b6001600160e01b0319811660009081527fbc7de460bcfb6afd0c415c8c610d408bd914b18d7d0feec0da9e25348087a5c4602052604090205460ff161515600114611663576001600160e01b0319811660009081527fbc7de460bcfb6afd0c415c8c610d408bd914b18d7d0feec0da9e25348087a5c460205260409020805460ff1916600117905561167c565b604051637967f77d60e11b815260040160405180910390fd5b6040516001600160e01b03198216907f78f84e5b1c5c05be2b5ad3800781dd404d6d6c6302bc755c0fe20f58a33a7f2290600090a250565b60006116be6114b1565b905060005b8251811015611704576116fb8382815181106116e1576116e161202a565b60200260200101518360060161151290919063ffffffff16565b506001016116c3565b505050565b60008260000182815481106117205761172061202a565b9060005260206000200154905092915050565b60608160000180548060200260200160405190810160405280929190818152602001828054801561178357602002820191906000526020600020905b81548152602001906001019080831161176f575b50505050509050919050565b600081815260018301602052604081205480156118785760006117b36001836121de565b85549091506000906117c7906001906121de565b905081811461182c5760008660000182815481106117e7576117e761202a565b906000526020600020015490508087600001848154811061180a5761180a61202a565b6000918252602080832090910192909255918252600188019052604090208390555b855486908061183d5761183d6121f1565b600190038181906000526020600020016000905590558560010160008681526020019081526020016000206000905560019350505050610cd3565b6000915050610cd3565b604080516101208101825260008082526020820181905291810182905260608082018390526080820183905260a0820183905260c082019290925260e0810182905261010081019190915290565b828054828255906000526020600020908101928215611925579160200282015b8281111561192557825182546001600160a01b0319166001600160a01b039091161782556020909201916001909101906118f0565b5061193192915061196f565b5090565b604051806060016040528060006001600160a01b03168152602001606081526020016000600481111561196a5761196a611e44565b905290565b5b808211156119315760008155600101611970565b60006020828403121561199657600080fd5b5035919050565b60008151808452602080850194506020840160005b838110156119d75781516001600160a01b0316875295820195908201906001016119b2565b509495945050505050565b6000815180845260005b81811015611a08576020818501810151868301820152016119ec565b506000602082860101526020601f19601f83011685010191505092915050565b60006101208251845260208301516020850152604083015160408501526060830151611a5f60608601826001600160401b03169052565b506080830151611a7a60808601826001600160401b03169052565b5060a0830151611a9560a08601826001600160401b03169052565b5060c0830151611ab060c08601826001600160401b03169052565b5060e08301518160e0860152611ac88286018261199d565b9150506101008084015185830382870152611ae383826119e2565b9695505050505050565b6020815260006114e96020830184611a28565b80356001600160a01b0381168114611b1757600080fd5b919050565b600060208284031215611b2e57600080fd5b6114e982611b00565b634e487b7160e01b600052604160045260246000fd5b604051601f8201601f191681016001600160401b0381118282101715611b7557611b75611b37565b604052919050565b600082601f830112611b8e57600080fd5b813560206001600160401b03821115611ba957611ba9611b37565b8160051b611bb8828201611b4d565b9283528481018201928281019087851115611bd257600080fd5b83870192505b84831015611bf857611be983611b00565b82529183019190830190611bd8565b979650505050505050565b600060208284031215611c1557600080fd5b81356001600160401b03811115611c2b57600080fd5b611c3784828501611b7d565b949350505050565b600060208083016020845280855180835260408601915060408160051b87010192506020870160005b82811015611c9657603f19888603018452611c84858351611a28565b94509285019290850190600101611c68565b5092979650505050505050565b60008060008060808587031215611cb957600080fd5b843593506020850135925060408501356001600160401b0381168114611cde57600080fd5b915060608501358015158114611cf357600080fd5b939692955090935050565b60006001600160401b03831115611d1757611d17611b37565b611d2a601f8401601f1916602001611b4d565b9050828152838383011115611d3e57600080fd5b828260208301376000602084830101529392505050565b60008060008060808587031215611d6b57600080fd5b8435935060208501356001600160401b0380821115611d8957600080fd5b611d9588838901611b7d565b9450604087013593506060870135915080821115611db257600080fd5b508501601f81018713611dc457600080fd5b611dd387823560208401611cfe565b91505092959194509250565b600060208284031215611df157600080fd5b8135600581106114e957600080fd5b6020808252825182820181905260009190848201906040850190845b81811015611e3857835183529284019291840191600101611e1c565b50909695505050505050565b634e487b7160e01b600052602160045260246000fd5b60058110611e7857634e487b7160e01b600052602160045260246000fd5b9052565b60018060a01b0381511682526000602082015160606020850152611ea360608501826119e2565b90506040830151611eb76040860182611e5a565b509392505050565b6020815260006114e96020830184611e7c565b600060208083016020845280855180835260408601915060408160051b87010192506020870160005b82811015611c9657603f19888603018452611f17858351611e7c565b94509285019290850190600101611efb565b600082601f830112611f3a57600080fd5b6114e983833560208501611cfe565b60008060408385031215611f5c57600080fd5b611f6583611b00565b915060208301356001600160401b03811115611f8057600080fd5b611f8c85828601611f29565b9150509250929050565b600060208284031215611fa857600080fd5b81356001600160401b03811115611fbe57600080fd5b611c3784828501611f29565b6020815260006114e9602083018461199d565b6020815260006114e960208301846119e2565b600181811c9082168061200457607f821691505b60208210810361202457634e487b7160e01b600052602260045260246000fd5b50919050565b634e487b7160e01b600052603260045260246000fd5b634e487b7160e01b600052601160045260246000fd5b6001600160401b0381811683821601908082111561080f5761080f612040565b601f821115611704576000816000526020600020601f850160051c8101602086101561209f5750805b601f850160051c820191505b818110156120be578281556001016120ab565b505050505050565b81516001600160401b038111156120df576120df611b37565b6120f3816120ed8454611ff0565b84612076565b602080601f83116001811461212857600084156121105750858301515b600019600386901b1c1916600185901b1785556120be565b600085815260208120601f198616915b8281101561215757888601518255948401946001909101908401612138565b50858210156121755787850151600019600388901b60f8161c191681555b5050505050600190811b01905550565b83815260606020820152600061219e606083018561199d565b9050826040830152949350505050565b60208101610cd38284611e5a565b6040815260006121cf60408301856119e2565b90506114e96020830184611e5a565b81810381811115610cd357610cd3612040565b634e487b7160e01b600052603160045260246000fd","linkReferences":{}},"methodIdentifiers":{"__RiverRegistry_init(address[])":"286af253","allocateStream(bytes32,address[],bytes32,bytes)":"6b883c39","approveOperator(address)":"242cae9f","getAllNodeAddresses()":"c8fe3a01","getAllNodes()":"a1174e7d","getAllStreamIds()":"86789fc6","getAllStreams()":"3bd84c0c","getNode(address)":"9d209048","getNodeCount()":"39bf397e","getStream(bytes32)":"1290abe8","getStreamCount()":"c0f22084","isOperator(address)":"6d70f7ae","registerNode(address,string)":"bb9b342d","removeOperator(address)":"ac8a584a","setStreamLastMiniblock(bytes32,bytes32,uint64,bool)":"681a8d67","updateNodeStatus(uint8)":"7691f5ed","updateNodeUrl(string)":"be6522d6"},"id":130}