{"abi":[{"type":"function","name":"addPermissionsToRole","inputs":[{"name":"roleId","type":"uint256","internalType":"uint256"},{"name":"permissions","type":"string[]","internalType":"string[]"}],"outputs":[],"stateMutability":"nonpayable"},{"type":"function","name":"addRoleToEntitlement","inputs":[{"name":"roleId","type":"uint256","internalType":"uint256"},{"name":"entitlement","type":"tuple","internalType":"struct IRolesBase.CreateEntitlement","components":[{"name":"module","type":"address","internalType":"contract IEntitlement"},{"name":"data","type":"bytes","internalType":"bytes"}]}],"outputs":[],"stateMutability":"nonpayable"},{"type":"function","name":"clearChannelPermissionOverrides","inputs":[{"name":"roleId","type":"uint256","internalType":"uint256"},{"name":"channelId","type":"bytes32","internalType":"bytes32"}],"outputs":[],"stateMutability":"nonpayable"},{"type":"function","name":"createRole","inputs":[{"name":"roleName","type":"string","internalType":"string"},{"name":"permissions","type":"string[]","internalType":"string[]"},{"name":"entitlements","type":"tuple[]","internalType":"struct IRolesBase.CreateEntitlement[]","components":[{"name":"module","type":"address","internalType":"contract IEntitlement"},{"name":"data","type":"bytes","internalType":"bytes"}]}],"outputs":[{"name":"","type":"uint256","internalType":"uint256"}],"stateMutability":"nonpayable"},{"type":"function","name":"getChannelPermissionOverrides","inputs":[{"name":"roleId","type":"uint256","internalType":"uint256"},{"name":"channelId","type":"bytes32","internalType":"bytes32"}],"outputs":[{"name":"permissions","type":"string[]","internalType":"string[]"}],"stateMutability":"view"},{"type":"function","name":"getPermissionsByRoleId","inputs":[{"name":"roleId","type":"uint256","internalType":"uint256"}],"outputs":[{"name":"permissions","type":"string[]","internalType":"string[]"}],"stateMutability":"view"},{"type":"function","name":"getRoleById","inputs":[{"name":"roleId","type":"uint256","internalType":"uint256"}],"outputs":[{"name":"","type":"tuple","internalType":"struct IRolesBase.Role","components":[{"name":"id","type":"uint256","internalType":"uint256"},{"name":"name","type":"string","internalType":"string"},{"name":"disabled","type":"bool","internalType":"bool"},{"name":"permissions","type":"string[]","internalType":"string[]"},{"name":"entitlements","type":"address[]","internalType":"contract IEntitlement[]"}]}],"stateMutability":"view"},{"type":"function","name":"getRoles","inputs":[],"outputs":[{"name":"","type":"tuple[]","internalType":"struct IRolesBase.Role[]","components":[{"name":"id","type":"uint256","internalType":"uint256"},{"name":"name","type":"string","internalType":"string"},{"name":"disabled","type":"bool","internalType":"bool"},{"name":"permissions","type":"string[]","internalType":"string[]"},{"name":"entitlements","type":"address[]","internalType":"contract IEntitlement[]"}]}],"stateMutability":"view"},{"type":"function","name":"removePermissionsFromRole","inputs":[{"name":"roleId","type":"uint256","internalType":"uint256"},{"name":"permissions","type":"string[]","internalType":"string[]"}],"outputs":[],"stateMutability":"nonpayable"},{"type":"function","name":"removeRole","inputs":[{"name":"roleId","type":"uint256","internalType":"uint256"}],"outputs":[],"stateMutability":"nonpayable"},{"type":"function","name":"removeRoleFromEntitlement","inputs":[{"name":"roleId","type":"uint256","internalType":"uint256"},{"name":"entitlement","type":"tuple","internalType":"struct IRolesBase.CreateEntitlement","components":[{"name":"module","type":"address","internalType":"contract IEntitlement"},{"name":"data","type":"bytes","internalType":"bytes"}]}],"outputs":[],"stateMutability":"nonpayable"},{"type":"function","name":"setChannelPermissionOverrides","inputs":[{"name":"roleId","type":"uint256","internalType":"uint256"},{"name":"channelId","type":"bytes32","internalType":"bytes32"},{"name":"permissions","type":"string[]","internalType":"string[]"}],"outputs":[],"stateMutability":"nonpayable"},{"type":"function","name":"updateRole","inputs":[{"name":"roleId","type":"uint256","internalType":"uint256"},{"name":"roleName","type":"string","internalType":"string"},{"name":"permissions","type":"string[]","internalType":"string[]"},{"name":"entitlements","type":"tuple[]","internalType":"struct IRolesBase.CreateEntitlement[]","components":[{"name":"module","type":"address","internalType":"contract IEntitlement"},{"name":"data","type":"bytes","internalType":"bytes"}]}],"outputs":[],"stateMutability":"nonpayable"},{"type":"event","name":"Approval","inputs":[{"name":"owner","type":"address","indexed":true,"internalType":"address"},{"name":"approved","type":"address","indexed":true,"internalType":"address"},{"name":"tokenId","type":"uint256","indexed":true,"internalType":"uint256"}],"anonymous":false},{"type":"event","name":"ApprovalForAll","inputs":[{"name":"owner","type":"address","indexed":true,"internalType":"address"},{"name":"operator","type":"address","indexed":true,"internalType":"address"},{"name":"approved","type":"bool","indexed":false,"internalType":"bool"}],"anonymous":false},{"type":"event","name":"Banned","inputs":[{"name":"moderator","type":"address","indexed":true,"internalType":"address"},{"name":"tokenId","type":"uint256","indexed":true,"internalType":"uint256"}],"anonymous":false},{"type":"event","name":"ConsecutiveTransfer","inputs":[{"name":"fromTokenId","type":"uint256","indexed":true,"internalType":"uint256"},{"name":"toTokenId","type":"uint256","indexed":false,"internalType":"uint256"},{"name":"from","type":"address","indexed":true,"internalType":"address"},{"name":"to","type":"address","indexed":true,"internalType":"address"}],"anonymous":false},{"type":"event","name":"OwnershipTransferred","inputs":[{"name":"previousOwner","type":"address","indexed":true,"internalType":"address"},{"name":"newOwner","type":"address","indexed":true,"internalType":"address"}],"anonymous":false},{"type":"event","name":"Paused","inputs":[{"name":"account","type":"address","indexed":false,"internalType":"address"}],"anonymous":false},{"type":"event","name":"PermissionsAddedToChannelRole","inputs":[{"name":"updater","type":"address","indexed":true,"internalType":"address"},{"name":"roleId","type":"uint256","indexed":true,"internalType":"uint256"},{"name":"channelId","type":"bytes32","indexed":true,"internalType":"bytes32"}],"anonymous":false},{"type":"event","name":"PermissionsRemovedFromChannelRole","inputs":[{"name":"updater","type":"address","indexed":true,"internalType":"address"},{"name":"roleId","type":"uint256","indexed":true,"internalType":"uint256"},{"name":"channelId","type":"bytes32","indexed":true,"internalType":"bytes32"}],"anonymous":false},{"type":"event","name":"PermissionsUpdatedForChannelRole","inputs":[{"name":"updater","type":"address","indexed":true,"internalType":"address"},{"name":"roleId","type":"uint256","indexed":true,"internalType":"uint256"},{"name":"channelId","type":"bytes32","indexed":true,"internalType":"bytes32"}],"anonymous":false},{"type":"event","name":"RoleCreated","inputs":[{"name":"creator","type":"address","indexed":true,"internalType":"address"},{"name":"roleId","type":"uint256","indexed":true,"internalType":"uint256"}],"anonymous":false},{"type":"event","name":"RoleRemoved","inputs":[{"name":"remover","type":"address","indexed":true,"internalType":"address"},{"name":"roleId","type":"uint256","indexed":true,"internalType":"uint256"}],"anonymous":false},{"type":"event","name":"RoleUpdated","inputs":[{"name":"updater","type":"address","indexed":true,"internalType":"address"},{"name":"roleId","type":"uint256","indexed":true,"internalType":"uint256"}],"anonymous":false},{"type":"event","name":"SubscriptionUpdate","inputs":[{"name":"tokenId","type":"uint256","indexed":true,"internalType":"uint256"},{"name":"expiration","type":"uint64","indexed":false,"internalType":"uint64"}],"anonymous":false},{"type":"event","name":"Transfer","inputs":[{"name":"from","type":"address","indexed":true,"internalType":"address"},{"name":"to","type":"address","indexed":true,"internalType":"address"},{"name":"tokenId","type":"uint256","indexed":true,"internalType":"uint256"}],"anonymous":false},{"type":"event","name":"Unbanned","inputs":[{"name":"moderator","type":"address","indexed":true,"internalType":"address"},{"name":"tokenId","type":"uint256","indexed":true,"internalType":"uint256"}],"anonymous":false},{"type":"event","name":"Unpaused","inputs":[{"name":"account","type":"address","indexed":false,"internalType":"address"}],"anonymous":false},{"type":"error","name":"ApprovalCallerNotOwnerNorApproved","inputs":[]},{"type":"error","name":"ApprovalQueryForNonexistentToken","inputs":[]},{"type":"error","name":"BalanceQueryForZeroAddress","inputs":[]},{"type":"error","name":"Banning__AlreadyBanned","inputs":[{"name":"tokenId","type":"uint256","internalType":"uint256"}]},{"type":"error","name":"Banning__CannotBanOwner","inputs":[]},{"type":"error","name":"Banning__CannotBanSelf","inputs":[]},{"type":"error","name":"Banning__InvalidTokenId","inputs":[{"name":"tokenId","type":"uint256","internalType":"uint256"}]},{"type":"error","name":"Banning__NotBanned","inputs":[{"name":"tokenId","type":"uint256","internalType":"uint256"}]},{"type":"error","name":"ChannelService__ChannelDisabled","inputs":[]},{"type":"error","name":"ChannelService__ChannelDoesNotExist","inputs":[]},{"type":"error","name":"ChannelService__RoleDoesNotExist","inputs":[]},{"type":"error","name":"ERC5643__DurationZero","inputs":[]},{"type":"error","name":"ERC5643__InvalidTokenId","inputs":[{"name":"tokenId","type":"uint256","internalType":"uint256"}]},{"type":"error","name":"ERC5643__NotApprovedOrOwner","inputs":[]},{"type":"error","name":"ERC5643__SubscriptionNotRenewable","inputs":[{"name":"tokenId","type":"uint256","internalType":"uint256"}]},{"type":"error","name":"Entitlement__InvalidValue","inputs":[]},{"type":"error","name":"Entitlement__NotAllowed","inputs":[]},{"type":"error","name":"Entitlement__NotMember","inputs":[]},{"type":"error","name":"Entitlement__ValueAlreadyExists","inputs":[]},{"type":"error","name":"EntitlementsService__EntitlementDoesNotExist","inputs":[]},{"type":"error","name":"EntitlementsService__InvalidEntitlementAddress","inputs":[]},{"type":"error","name":"EntitlementsService__InvalidEntitlementInterface","inputs":[]},{"type":"error","name":"MintERC2309QuantityExceedsLimit","inputs":[]},{"type":"error","name":"MintToZeroAddress","inputs":[]},{"type":"error","name":"MintZeroQuantity","inputs":[]},{"type":"error","name":"Ownable__NotOwner","inputs":[{"name":"account","type":"address","internalType":"address"}]},{"type":"error","name":"Ownable__ZeroAddress","inputs":[]},{"type":"error","name":"OwnerQueryForNonexistentToken","inputs":[]},{"type":"error","name":"OwnershipNotInitializedForExtraData","inputs":[]},{"type":"error","name":"Pausable__NotPaused","inputs":[]},{"type":"error","name":"Pausable__Paused","inputs":[]},{"type":"error","name":"Roles__EntitlementAlreadyExists","inputs":[]},{"type":"error","name":"Roles__EntitlementDoesNotExist","inputs":[]},{"type":"error","name":"Roles__InvalidEntitlementAddress","inputs":[]},{"type":"error","name":"Roles__InvalidPermission","inputs":[]},{"type":"error","name":"Roles__PermissionAlreadyExists","inputs":[]},{"type":"error","name":"Roles__PermissionDoesNotExist","inputs":[]},{"type":"error","name":"Roles__RoleDoesNotExist","inputs":[]},{"type":"error","name":"TransferCallerNotOwnerNorApproved","inputs":[]},{"type":"error","name":"TransferFromIncorrectOwner","inputs":[]},{"type":"error","name":"TransferToNonERC721ReceiverImplementer","inputs":[]},{"type":"error","name":"TransferToZeroAddress","inputs":[]},{"type":"error","name":"URIQueryForNonexistentToken","inputs":[]},{"type":"error","name":"Validator__InvalidByteLength","inputs":[]},{"type":"error","name":"Validator__InvalidStringLength","inputs":[]}],"bytecode":{"object":"0x608060405234801561001057600080fd5b50613568806100206000396000f3fe608060405234801561001057600080fd5b50600436106100cf5760003560e01c80639a8e4c3e1161008c578063ba201ba811610066578063ba201ba8146101b4578063bd9af74a146101c7578063d2dea2b9146101da578063dba81864146101ed57600080fd5b80639a8e4c3e1461017b578063b42642331461018e578063b7515761146101a157600080fd5b80634d8b50a2146100d457806365634a48146100e95780637106139814610112578063784c872b146101275780638fcd793d146101475780639269182114610168575b600080fd5b6100e76100e2366004612c4b565b610200565b005b6100fc6100f7366004612ce2565b610240565b6040516101099190612d54565b60405180910390f35b61011a610255565b6040516101099190612ea7565b61013a610135366004612efe565b610264565b6040516101099190612f17565b61015a610155366004612f2a565b6102aa565b604051908152602001610109565b6100e7610176366004612efe565b6102ed565b6100e7610189366004612fb7565b610325565b6100fc61019c366004612efe565b61035f565b6100e76101af366004612fb7565b61036a565b6100e76101c2366004612ffd565b6103a0565b6100e76101d5366004613039565b6103d6565b6100e76101e8366004612ce2565b610412565b6100e76101fb366004612ffd565b610448565b61022c60405180604001604052806013815260200160008051602061352883398151915281525061047e565b610239858585858561049d565b5050505050565b606061024c838361083c565b90505b92915050565b606061025f610891565b905090565b6102986040518060a00160405280600081526020016060815260200160001515815260200160608152602001606081525090565b6102a1826109d3565b61024f82610a1a565b60006102d860405180604001604052806013815260200160008051602061352883398151915281525061047e565b6102e485858585610a93565b95945050505050565b61031960405180604001604052806013815260200160008051602061352883398151915281525061047e565b61032281610c76565b50565b61035160405180604001604052806013815260200160008051602061352883398151915281525061047e565b61035b8282610eca565b5050565b606061024f82610faa565b61039660405180604001604052806013815260200160008051602061352883398151915281525061047e565b61035b8282610fbe565b6103cc60405180604001604052806013815260200160008051602061352883398151915281525061047e565b61035b82826110a6565b61040260405180604001604052806013815260200160008051602061352883398151915281525061047e565b61040d8383836110db565b505050565b61043e60405180604001604052806013815260200160008051602061352883398151915281525061047e565b61035b8282611257565b61047460405180604001604052806013815260200160008051602061352883398151915281525061047e565b61035b828261133b565b610489600082611369565b61032257610322630ce39a4b60e21b6113cd565b6104a6856109d3565b60006104b1866113d7565b80518351919250906000816001600160401b038111156104d3576104d36129bd565b6040519080825280602002602001820160405280156104fc578160200160208202803683370190505b50905060005b8281101561058f57600086828151811061051e5761051e613088565b602002602001015160000151905061053581611499565b61053e81611562565b86828151811061055057610550613088565b60200260200101516000015183838151811061056e5761056e613088565b6001600160a01b039092166020928302919091019091015250600101610502565b5086156105be576000898152600080516020613548833981519152602052604090206105bc888a8361311a565b505b855115610604576000898152600080516020613548833981519152602052604081206105ec906002016115ca565b90506105f88a82610eca565b6106028a88610fbe565b505b816000036106155750505050610239565b80511561068e57805160005b848110156106545761064c8b87838151811061063f5761063f613088565b60200260200101516116a7565b600101610621565b5060005b8181101561068b576106838b84838151811061067657610676613088565b60200260200101516116ff565b600101610658565b50505b60005b8381101561075d5760008582815181106106ad576106ad613088565b60200260200101516001600160a01b0316631eee07b28c6040518263ffffffff1660e01b81526004016106e291815260200190565b600060405180830381865afa1580156106ff573d6000803e3d6000fd5b505050506040513d6000823e601f3d908101601f1916820160405261072791908101906131d9565b8051909150156107545761075486838151811061074657610746613088565b60200260200101518c611752565b50600101610691565b5060005b8281101561080357600086828151811061077d5761077d613088565b6020026020010151602001515111156107fb576107b68682815181106107a5576107a5613088565b6020026020010151602001516117b9565b6107fb8682815181106107cb576107cb613088565b6020026020010151600001518b8884815181106107ea576107ea613088565b6020026020010151602001516117db565b600101610761565b50604051899033907f1aff41ff8e9139aae6bb355cc69107cda7e1d1dcd25511da436f3171bdbf77e690600090a3505050505050505050565b6060610847836109d3565b61085082611849565b60008381527f672ef851d5f92307da037116e23aa9e31af7e1f7e3ca62c4e6d540631df3fd0560209081526040808320858452909152902061024c906115ca565b6060600061089d61187e565b8051909150806001600160401b038111156108ba576108ba6129bd565b60405190808252806020026020018201604052801561091f57816020015b61090c6040518060a00160405280600081526020016060815260200160001515815260200160608152602001606081525090565b8152602001906001900390816108d85790505b50925060005b818110156109cd5760008060008061095587868151811061094857610948613088565b60200260200101516118a9565b93509350935093506040518060a0016040528088878151811061097a5761097a613088565b602002602001015181526020018581526020018415158152602001838152602001828152508886815181106109b1576109b1613088565b6020026020010181905250848060010195505050505050610925565b50505090565b6109fd7f672ef851d5f92307da037116e23aa9e31af7e1f7e3ca62c4e6d540631df3fd01826119a7565b6103225760405163a3f70f7b60e01b815260040160405180910390fd5b610a4e6040518060a00160405280600081526020016060815260200160001515815260200160608152602001606081525090565b600080600080610a5d866118a9565b6040805160a0810182529a8b5260208b019490945291151592890192909252606088019190915260808701525093949350505050565b6000610ad785858080601f016020809104026020016040519081016040528093929190818152602001838380828437600092019190915250600292506119bf915050565b81516000816001600160401b03811115610af357610af36129bd565b604051908082528060200260200182016040528015610b1c578160200160208202803683370190505b509050610b276119e3565b925060005b82811015610bfb57610b5a858281518110610b4957610b49613088565b602002602001015160000151611499565b848181518110610b6c57610b6c613088565b602002602001015160000151828281518110610b8a57610b8a613088565b60200260200101906001600160a01b031690816001600160a01b031681525050610bbf8582815181106107a5576107a5613088565b610bf3858281518110610bd457610bd4613088565b602002602001015160000151858784815181106107ea576107ea613088565b600101610b2c565b50610c3e87878080601f01602080910402602001604051908101604052809392919081815260200183838082843760009201829052509250899150859050611a09565b50604051839033907f20a7a288530dd94b1eccaa691a582ecfd7550c9dfcee78ddf50a97f774a2b14790600090a35050949350505050565b610c7f816109d3565b6000610c8a826113d7565b8051909150600080516020613508833981519152610cc87f672ef851d5f92307da037116e23aa9e31af7e1f7e3ca62c4e6d540631df3fd0185611b32565b506000848152600382016020526040812090610ce482826128cd565b60018201805460ff19169055600282016000610d008282612907565b50506004820160008181610d148282612925565b5050604080516020808201835260008083528b815260038901909152919091209450610d4593509150839050613246565b506000848152600382016020526040812060018101805460ff1916905560028101549190610d7590600401611b3e565b905060005b82811015610dc55760008781526003850160205260409020610dbc90610da39060020183611b48565b6000898152600387016020526040902060020190611bfa565b50600101610d7a565b5060005b81811015610e145760008781526003850160205260409020610e0b90610df29060040183611d3c565b6000898152600387016020526040902060040190611d48565b50600101610dc9565b506000610e2087611d5d565b805190915060005b81811015610e5b57610e53838281518110610e4557610e45613088565b60200260200101518a611e49565b600101610e28565b5060005b86811015610e9257610e8a888281518110610e7c57610e7c613088565b60200260200101518a611752565b600101610e5f565b50604051889033907f268a6f1b90f6f5ddf50cc736d36513e80cdc5fd56326bff71f335e8b4b61d05590600090a35050505050505050565b610ed3826109d3565b80516000805160206135088339815191529060005b8181101561023957610f12848281518110610f0557610f05613088565b6020026020010151611ed9565b600085815260038401602052604090208451610f5490869084908110610f3a57610f3a613088565b602002602001015182600201611efa90919063ffffffff16565b610f7157604051633e2b026160e01b815260040160405180910390fd5b610fa0858381518110610f8657610f86613088565b602002602001015182600201611bfa90919063ffffffff16565b5050600101610ee8565b6060610fb5826118a9565b50949350505050565b610fc7826109d3565b80516000805160206135088339815191529060005b8181101561023957610ff9848281518110610f0557610f05613088565b61103c84828151811061100e5761100e613088565b6020026020010151846003016000888152602001908152602001600020600201611efa90919063ffffffff16565b1561105a5760405163b0ab682160e01b815260040160405180910390fd5b61109d84828151811061106f5761106f613088565b6020026020010151846003016000888152602001908152602001600020600201611f1f90919063ffffffff16565b50600101610fdc565b6110af826109d3565b80516110ba90611562565b6110c88282600001516116ff565b61035b81600001518383602001516117db565b6110e482611849565b6110ed836109d3565b60008381527f672ef851d5f92307da037116e23aa9e31af7e1f7e3ca62c4e6d540631df3fd0460205260409020600080516020613508833981519152906111349084611f88565b5060008481526005820160209081526040808320868452909152812090611159825490565b11156111b357600061116a826115ca565b805190915060005b818110156111af576111a683828151811061118f5761118f613088565b602002602001015185611bfa90919063ffffffff16565b50600101611172565b5050505b825180156112165760005b81811015611210576111db858281518110610f0557610f05613088565b6112078582815181106111f0576111f0613088565b602002602001015184611f1f90919063ffffffff16565b506001016111be565b50611220565b6112208686611257565b6040518590879033907f38ef31503bf60258feeceab5e2c3778cf74be2a8fbcc150d209ca96cd3c9855390600090a4505050505050565b611260826109d3565b61126981611849565b60008281527f672ef851d5f92307da037116e23aa9e31af7e1f7e3ca62c4e6d540631df3fd05602090815260408083208484529091528120600080516020613508833981519152916112ba826115ca565b805190915060005b818110156112e8576112df83828151811061118f5761118f613088565b506001016112c2565b50600086815260048501602052604090206113039086611b32565b506040518590879033907f07439707c74b686d8e4d3f3226348eac82205e6dffd780ac4c555a4c2dc9d86c90600090a4505050505050565b611344826109d3565b805161134f90611562565b61135d8282600001516116a7565b805161035b9083611752565b60003380611375611f94565b6001600160a01b031614806113c557507fe17a067c7963a59b6dfd65d33b053fdbea1c56500e2aae4f976d9eda4da9eb005460ff161580156113c557506113c584826113c086613305565b61202b565b949350505050565b8060005260046000fd5b60008181526000805160206135488339815191526020526040812060609160049091019061140482611b3e565b90506000816001600160401b03811115611420576114206129bd565b604051908082528060200260200182016040528015611449578160200160208202803683370190505b50905060005b82811015610fb55760006114638583611d3c565b90508083838151811061147857611478613088565b6001600160a01b03909216602092830291909101909101525060010161144f565b6001600160a01b0381166114c057604051630706e15760e51b815260040160405180910390fd5b6040516301ffc9a760e01b8152637bc2cb4560e11b60048201526001600160a01b038216906301ffc9a790602401602060405180830381865afa925050508015611527575060408051601f3d908101601f1916820190925261152491810190613329565b60015b6115445760405163f58a5f2760e01b815260040160405180910390fd5b8061035b5760405163f58a5f2760e01b815260040160405180910390fd5b7fa558e822bd359dacbe30f0da89cbfde5f95895b441e13a4864caec1423c931006115ad7fa558e822bd359dacbe30f0da89cbfde5f95895b441e13a4864caec1423c93101836122a6565b61035b5760405163017ab33760e71b815260040160405180910390fd5b606081600001805480602002602001604051908101604052809291908181526020016000905b8282101561169c57838290600052602060002001805461160f9061309e565b80601f016020809104026020016040519081016040528092919081815260200182805461163b9061309e565b80156116885780601f1061165d57610100808354040283529160200191611688565b820191906000526020600020905b81548152906001019060200180831161166b57829003601f168201915b5050505050815260200190600101906115f0565b505050509050919050565b6000828152600080516020613548833981519152602052604090206116cf60048201836122a6565b6116ec57604051632405297d60e11b815260040160405180910390fd5b6116f96004820183611d48565b50505050565b60008281526000805160206135488339815191526020526040902061172760048201836122a6565b156117455760405163fb5584f160e01b815260040160405180910390fd5b6116f960048201836122c8565b61175b82611562565b60405163f0c111f960e01b8152600481018290526001600160a01b0383169063f0c111f990602401600060405180830381600087803b15801561179d57600080fd5b505af11580156117b1573d6000803e3d6000fd5b505050505050565b8051600003610322576040516319c6193b60e31b815260040160405180910390fd5b6117e483611562565b604051633be2f95d60e21b81526001600160a01b0384169063ef8be57490611812908590859060040161334b565b600060405180830381600087803b15801561182c57600080fd5b505af1158015611840573d6000803e3d6000fd5b50505050505050565b6118616000805160206134e8833981519152826119a7565b6103225760405163560b4b4160e11b815260040160405180910390fd5b606061025f7f672ef851d5f92307da037116e23aa9e31af7e1f7e3ca62c4e6d540631df3fd016122dd565b60008181526000805160206135488339815191526020526040812080546060929183918291600080516020613508833981519152916118e79061309e565b80601f01602080910402602001604051908101604052809291908181526020018280546119139061309e565b80156119605780601f1061193557610100808354040283529160200191611960565b820191906000526020600020905b81548152906001019060200180831161194357829003601f168201915b50505060008981526003850160205260409020600181015493985060ff90931696506119929260020191506115ca9050565b925061199d866113d7565b9150509193509193565b6000818152600183016020526040812054151561024c565b8151829082111561040d576040516374eb20a760e01b815260040160405180910390fd5b600080516020613508833981519152805460009190611a0390600161337a565b91505090565b60008051602061350883398151915280546000919081908390611a2b9061338d565b91829055509150611a3f6001820183611f88565b5060008281526003820160205260409020611a5a8782613246565b5060008281526003820160205260409020600101805460ff1916861515179055611a848285610fbe565b60005b8351811015611b285760006001600160a01b0316848281518110611aad57611aad613088565b60200260200101516001600160a01b031603611adc57604051637442429b60e01b815260040160405180910390fd5b611b1f848281518110611af157611af1613088565b60200260200101518360030160008681526020019081526020016000206004016122c890919063ffffffff16565b50600101611a87565b5050949350505050565b600061024c83836122ea565b600061024f825490565b6060826000018281548110611b5f57611b5f613088565b906000526020600020018054611b749061309e565b80601f0160208091040260200160405190810160405280929190818152602001828054611ba09061309e565b8015611bed5780601f10611bc257610100808354040283529160200191611bed565b820191906000526020600020905b815481529060010190602001808311611bd057829003601f168201915b5050505050905092915050565b805160208183018101805160018601825292820191840191909120919052805480158015929190611d3457845460008681526020902086919060001980830191830101848314611d21576000818054611c529061309e565b80601f0160208091040260200160405190810160405280929190818152602001828054611c7e9061309e565b8015611ccb5780601f10611ca057610100808354040283529160200191611ccb565b820191906000526020600020905b815481529060010190602001808311611cae57829003601f168201915b50505050509050808a6000016001880381548110611ceb57611ceb613088565b906000526020600020019081611d019190613246565b50805160208183018101805160018e018252928201919093012091528590555b611d2a816123dd565b5090915550600082555b505092915050565b600061024c8383612419565b600061024c836001600160a01b0384166122ea565b60606000805160206134e88339815191526000611d7982611b3e565b90506000816001600160401b03811115611d9557611d956129bd565b604051908082528060200260200182016040528015611dbe578160200160208202803683370190505b50935060005b82811015611e2e576000611dd88583611d3c565b60008181526003870160205260409020909150611df590886119a7565b15611e2557808684611e068161338d565b955081518110611e1857611e18613088565b6020026020010181815250505b50600101611dc4565b5080821115611e41578351818303900384525b505050919050565b611e5282611849565b611e5b82612443565b60008281527f804ad633258ac9b908ae115a2763b3f6e04be3b1165402c872b25af518504303602052604090206000805160206134e883398151915290611ea290836119a7565b611ebf576040516333cb039f60e11b815260040160405180910390fd5b600083815260038201602052604090206116f99083611b32565b80516000036103225760405162ce76c160e41b815260040160405180910390fd5b8051602081830181018051600195909501815291810192019190912091905254151590565b805160208183018101805160018601825292820191840191909120919052805415908115611f8157835460018101808655859190858383838110611f6557611f65613088565b906000526020600020019081611f7b9190613246565b50835550505b5092915050565b600061024c83836124a5565b6000807fd2f24d4f172e4e84e48e7c4125b6e904c29e5eba33ad4938fee51dd5dbd4b600805460018201546040516331a9108f60e11b815260048101919091529192506001600160a01b031690636352211e90602401602060405180830381865afa158015612007573d6000803e3d6000fd5b505050506040513d601f19601f82011682018060405250810190611a0391906133a6565b600080612036611f94565b90506000612043856124f4565b80519091506000612052612770565b805190915060005b8381101561211157600085828151811061207657612076613088565b60200260200101519050866001600160a01b0316816001600160a01b0316036120a957600197505050505050505061229f565b60005b8381101561210757816001600160a01b03166120e08683815181106120d3576120d3613088565b602002602001015161279b565b6001600160a01b0316036120ff5760009850505050505050505061229f565b6001016120ac565b505060010161205a565b507fa558e822bd359dacbe30f0da89cbfde5f95895b441e13a4864caec1423c93100600061215e7fa558e822bd359dacbe30f0da89cbfde5f95895b441e13a4864caec1423c93101611b3e565b905060005b81811015612292576000838161217c6001830185611d3c565b6001600160a01b0390811682526020808301939093526040918201600020548251630b86d87960e21b81529251911693508392632e1b61e492600480820193918290030181865afa1580156121d5573d6000803e3d6000fd5b505050506040513d601f19601f820116820180604052508101906121f99190613329565b1580156122725750806001600160a01b0316630cf0b5338e8a8e6040518463ffffffff1660e01b8152600401612231939291906133c3565b602060405180830381865afa15801561224e573d6000803e3d6000fd5b505050506040513d601f19601f820116820180604052508101906122729190613329565b15612289576001995050505050505050505061229f565b50600101612163565b5060009750505050505050505b9392505050565b6001600160a01b0381166000908152600183016020526040812054151561024c565b600061024c836001600160a01b0384166124a5565b6060600061229f836127a6565b600081815260018301602052604081205480156123d357600061230e600183613425565b855490915060009061232290600190613425565b905080821461238757600086600001828154811061234257612342613088565b906000526020600020015490508087600001848154811061236557612365613088565b6000918252602080832090910192909255918252600188019052604090208390555b855486908061239857612398613438565b60019003818190600052602060002001600090559055856001016000868152602001908152602001600020600090556001935050505061024f565b600091505061024f565b80546001811660008355801561040d57600083815260209020601f600184901c0160051c8101905b818110156102395760008155600101612405565b600082600001828154811061243057612430613088565b9060005260206000200154905092915050565b60008181527f804ad633258ac9b908ae115a2763b3f6e04be3b1165402c872b25af51850430260205260409020600101546000805160206134e88339815191529060ff161561035b57604051636ce0028960e11b815260040160405180910390fd5b60008181526001830160205260408120546124ec5750815460018181018455600084815260208082209093018490558454848252828601909352604090209190915561024f565b50600061024f565b606060007fc21004fcc619240a31f006438274d15cd813308303284436eef6055f0fdcb6006006015460405162468b7360e31b81526001600160a01b038581166004830152909116915060009082906302345b9890602401600060405180830381865afa158015612569573d6000803e3d6000fd5b505050506040513d6000823e601f3d908101601f19168201604052612591919081019061344e565b9050805160000361269257604051631f04207360e31b81526001600160a01b0385811660048301526000919084169063f821039890602401602060405180830381865afa1580156125e6573d6000803e3d6000fd5b505050506040513d601f19601f8201168201806040525081019061260a91906133a6565b90506001600160a01b038116156126905760405162468b7360e31b81526001600160a01b03808316600483015291955085918416906302345b9890602401600060405180830381865afa158015612665573d6000803e3d6000fd5b505050506040513d6000823e601f3d908101601f1916820160405261268d919081019061344e565b91505b505b805160006126a182600161337a565b6001600160401b038111156126b8576126b86129bd565b6040519080825280602002602001820160405280156126e1578160200160208202803683370190505b50905060005b8281101561273b5783818151811061270157612701613088565b602002602001015182828151811061271b5761271b613088565b6001600160a01b03909216602092830291909101909101526001016126e7565b508581838151811061274f5761274f613088565b6001600160a01b039092166020928302919091019091015295945050505050565b606061025f7f49daf035076c43671ca9f9fb568d931e51ab7f9098a5a694781b45341112cf006122dd565b600061024f82612802565b6060816000018054806020026020016040519081016040528092919081815260200182805480156127f657602002820191906000526020600020905b8154815260200190600101908083116127e2575b50505050509050919050565b60008181527f6569bde4a160c636ea8b8d11acb83a60d7fec0b8f2e09389306cba0e1340df046020526040812054907f6569bde4a160c636ea8b8d11acb83a60d7fec0b8f2e09389306cba0e1340df0090600160e01b831690036128b357816000036128ad578054831061288957604051636f96cda160e11b815260040160405180910390fd5b5b60001990920160008181526004840160205260409020549092909150811561288a575b50919050565b50604051636f96cda160e11b815260040160405180910390fd5b5080546128d99061309e565b6000825580601f106128e9575050565b601f016020900490600052602060002090810190610322919061293f565b50805460008255906000526020600020908101906103229190612958565b508054600082559060005260206000209081019061032291905b5b808211156129545760008155600101612940565b5090565b8082111561295457600061296c82826128cd565b50600101612958565b60008083601f84011261298757600080fd5b5081356001600160401b0381111561299e57600080fd5b6020830191508360208285010111156129b657600080fd5b9250929050565b634e487b7160e01b600052604160045260246000fd5b604051601f8201601f191681016001600160401b03811182821017156129fb576129fb6129bd565b604052919050565b60006001600160401b03821115612a1c57612a1c6129bd565b5060051b60200190565b60006001600160401b03821115612a3f57612a3f6129bd565b50601f01601f191660200190565b6000612a60612a5b84612a26565b6129d3565b9050828152838383011115612a7457600080fd5b828260208301376000602084830101529392505050565b600082601f830112612a9c57600080fd5b81356020612aac612a5b83612a03565b82815260059290921b84018101918181019086841115612acb57600080fd5b8286015b84811015612b1f5780356001600160401b03811115612aee5760008081fd5b8701603f81018913612b005760008081fd5b612b11898683013560408401612a4d565b845250918301918301612acf565b509695505050505050565b6001600160a01b038116811461032257600080fd5b600060408284031215612b5157600080fd5b604051604081016001600160401b038282108183111715612b7457612b746129bd565b8160405282935084359150612b8882612b2a565b90825260208401359080821115612b9e57600080fd5b508301601f81018513612bb057600080fd5b612bbf85823560208401612a4d565b6020830152505092915050565b600082601f830112612bdd57600080fd5b81356020612bed612a5b83612a03565b82815260059290921b84018101918181019086841115612c0c57600080fd5b8286015b84811015612b1f5780356001600160401b03811115612c2f5760008081fd5b612c3d8986838b0101612b3f565b845250918301918301612c10565b600080600080600060808688031215612c6357600080fd5b8535945060208601356001600160401b0380821115612c8157600080fd5b612c8d89838a01612975565b90965094506040880135915080821115612ca657600080fd5b612cb289838a01612a8b565b93506060880135915080821115612cc857600080fd5b50612cd588828901612bcc565b9150509295509295909350565b60008060408385031215612cf557600080fd5b50508035926020909101359150565b60005b83811015612d1f578181015183820152602001612d07565b50506000910152565b60008151808452612d40816020860160208601612d04565b601f01601f19169290920160200192915050565b600060208083016020845280855180835260408601915060408160051b87010192506020870160005b82811015612dab57603f19888603018452612d99858351612d28565b94509285019290850190600101612d7d565b5092979650505050505050565b60008151808452602080850194506020840160005b83811015612df25781516001600160a01b031687529582019590820190600101612dcd565b509495945050505050565b80518252600060208083015160a082860152612e1c60a0860182612d28565b9050604084015115156040860152606084015185820360608701528181518084528484019150848160051b850101858401935060005b82811015612e8057601f19868303018452612e6e828651612d28565b94870194938701939150600101612e52565b506080880151955088810360808a0152612e9a8187612db8565b9998505050505050505050565b600060208083016020845280855180835260408601915060408160051b87010192506020870160005b82811015612dab57603f19888603018452612eec858351612dfd565b94509285019290850190600101612ed0565b600060208284031215612f1057600080fd5b5035919050565b60208152600061024c6020830184612dfd565b60008060008060608587031215612f4057600080fd5b84356001600160401b0380821115612f5757600080fd5b612f6388838901612975565b90965094506020870135915080821115612f7c57600080fd5b612f8888838901612a8b565b93506040870135915080821115612f9e57600080fd5b50612fab87828801612bcc565b91505092959194509250565b60008060408385031215612fca57600080fd5b8235915060208301356001600160401b03811115612fe757600080fd5b612ff385828601612a8b565b9150509250929050565b6000806040838503121561301057600080fd5b8235915060208301356001600160401b0381111561302d57600080fd5b612ff385828601612b3f565b60008060006060848603121561304e57600080fd5b833592506020840135915060408401356001600160401b0381111561307257600080fd5b61307e86828701612a8b565b9150509250925092565b634e487b7160e01b600052603260045260246000fd5b600181811c908216806130b257607f821691505b6020821081036128ad57634e487b7160e01b600052602260045260246000fd5b601f82111561040d576000816000526020600020601f850160051c810160208610156130fb5750805b601f850160051c820191505b818110156117b157828155600101613107565b6001600160401b03831115613131576131316129bd565b6131458361313f835461309e565b836130d2565b6000601f84116001811461317957600085156131615750838201355b600019600387901b1c1916600186901b178355610239565b600083815260209020601f19861690835b828110156131aa578685013582556020948501946001909201910161318a565b50868210156131c75760001960f88860031b161c19848701351681555b505060018560011b0183555050505050565b6000602082840312156131eb57600080fd5b81516001600160401b0381111561320157600080fd5b8201601f8101841361321257600080fd5b8051613220612a5b82612a26565b81815285602083850101111561323557600080fd5b6102e4826020830160208601612d04565b81516001600160401b0381111561325f5761325f6129bd565b6132738161326d845461309e565b846130d2565b602080601f8311600181146132a857600084156132905750858301515b600019600386901b1c1916600185901b1785556117b1565b600085815260208120601f198616915b828110156132d7578886015182559484019460019091019084016132b8565b50858210156132f55787850151600019600388901b60f8161c191681555b5050505050600190811b01905550565b805160208083015191908110156128ad5760001960209190910360031b1b16919050565b60006020828403121561333b57600080fd5b8151801515811461229f57600080fd5b8281526040602082015260006113c56040830184612d28565b634e487b7160e01b600052601160045260246000fd5b8082018082111561024f5761024f613364565b60006001820161339f5761339f613364565b5060010190565b6000602082840312156133b857600080fd5b815161229f81612b2a565b60006060820185835260206060602085015281865180845260808601915060208801935060005b8181101561340f5784516001600160a01b0316835293830193918301916001016133ea565b5050809350505050826040830152949350505050565b8181038181111561024f5761024f613364565b634e487b7160e01b600052603160045260246000fd5b6000602080838503121561346157600080fd5b82516001600160401b0381111561347757600080fd5b8301601f8101851361348857600080fd5b8051613496612a5b82612a03565b81815260059190911b820183019083810190878311156134b557600080fd5b928401925b828410156134dc5783516134cd81612b2a565b825292840192908401906134ba565b97965050505050505056fe804ad633258ac9b908ae115a2763b3f6e04be3b1165402c872b25af518504300672ef851d5f92307da037116e23aa9e31af7e1f7e3ca62c4e6d540631df3fd004d6f64696679537061636553657474696e677300000000000000000000000000672ef851d5f92307da037116e23aa9e31af7e1f7e3ca62c4e6d540631df3fd03","linkReferences":{}},"methodIdentifiers":{"addPermissionsToRole(uint256,string[])":"b7515761","addRoleToEntitlement(uint256,(address,bytes))":"ba201ba8","clearChannelPermissionOverrides(uint256,bytes32)":"d2dea2b9","createRole(string,string[],(address,bytes)[])":"8fcd793d","getChannelPermissionOverrides(uint256,bytes32)":"65634a48","getPermissionsByRoleId(uint256)":"b4264233","getRoleById(uint256)":"784c872b","getRoles()":"71061398","removePermissionsFromRole(uint256,string[])":"9a8e4c3e","removeRole(uint256)":"92691821","removeRoleFromEntitlement(uint256,(address,bytes))":"dba81864","setChannelPermissionOverrides(uint256,bytes32,string[])":"bd9af74a","updateRole(uint256,string,string[],(address,bytes)[])":"4d8b50a2"},"id":290}