{"abi":[{"type":"function","name":"addPermissionsToRole","inputs":[{"name":"roleId","type":"uint256","internalType":"uint256"},{"name":"permissions","type":"string[]","internalType":"string[]"}],"outputs":[],"stateMutability":"nonpayable"},{"type":"function","name":"addRoleToEntitlement","inputs":[{"name":"roleId","type":"uint256","internalType":"uint256"},{"name":"entitlement","type":"tuple","internalType":"struct IRolesBase.CreateEntitlement","components":[{"name":"module","type":"address","internalType":"address"},{"name":"data","type":"bytes","internalType":"bytes"}]}],"outputs":[],"stateMutability":"nonpayable"},{"type":"function","name":"createRole","inputs":[{"name":"roleName","type":"string","internalType":"string"},{"name":"permissions","type":"string[]","internalType":"string[]"},{"name":"entitlements","type":"tuple[]","internalType":"struct IRolesBase.CreateEntitlement[]","components":[{"name":"module","type":"address","internalType":"address"},{"name":"data","type":"bytes","internalType":"bytes"}]}],"outputs":[{"name":"","type":"uint256","internalType":"uint256"}],"stateMutability":"nonpayable"},{"type":"function","name":"getPermissionsByRoleId","inputs":[{"name":"roleId","type":"uint256","internalType":"uint256"}],"outputs":[{"name":"permissions","type":"string[]","internalType":"string[]"}],"stateMutability":"view"},{"type":"function","name":"getRoleById","inputs":[{"name":"roleId","type":"uint256","internalType":"uint256"}],"outputs":[{"name":"","type":"tuple","internalType":"struct IRolesBase.Role","components":[{"name":"id","type":"uint256","internalType":"uint256"},{"name":"name","type":"string","internalType":"string"},{"name":"disabled","type":"bool","internalType":"bool"},{"name":"permissions","type":"string[]","internalType":"string[]"},{"name":"entitlements","type":"address[]","internalType":"address[]"}]}],"stateMutability":"view"},{"type":"function","name":"getRoles","inputs":[],"outputs":[{"name":"","type":"tuple[]","internalType":"struct IRolesBase.Role[]","components":[{"name":"id","type":"uint256","internalType":"uint256"},{"name":"name","type":"string","internalType":"string"},{"name":"disabled","type":"bool","internalType":"bool"},{"name":"permissions","type":"string[]","internalType":"string[]"},{"name":"entitlements","type":"address[]","internalType":"address[]"}]}],"stateMutability":"view"},{"type":"function","name":"removePermissionsFromRole","inputs":[{"name":"roleId","type":"uint256","internalType":"uint256"},{"name":"permissions","type":"string[]","internalType":"string[]"}],"outputs":[],"stateMutability":"nonpayable"},{"type":"function","name":"removeRole","inputs":[{"name":"roleId","type":"uint256","internalType":"uint256"}],"outputs":[],"stateMutability":"nonpayable"},{"type":"function","name":"removeRoleFromEntitlement","inputs":[{"name":"roleId","type":"uint256","internalType":"uint256"},{"name":"entitlement","type":"tuple","internalType":"struct IRolesBase.CreateEntitlement","components":[{"name":"module","type":"address","internalType":"address"},{"name":"data","type":"bytes","internalType":"bytes"}]}],"outputs":[],"stateMutability":"nonpayable"},{"type":"function","name":"updateRole","inputs":[{"name":"roleId","type":"uint256","internalType":"uint256"},{"name":"roleName","type":"string","internalType":"string"},{"name":"permissions","type":"string[]","internalType":"string[]"},{"name":"entitlements","type":"tuple[]","internalType":"struct IRolesBase.CreateEntitlement[]","components":[{"name":"module","type":"address","internalType":"address"},{"name":"data","type":"bytes","internalType":"bytes"}]}],"outputs":[],"stateMutability":"nonpayable"},{"type":"event","name":"Approval","inputs":[{"name":"owner","type":"address","indexed":true,"internalType":"address"},{"name":"approved","type":"address","indexed":true,"internalType":"address"},{"name":"tokenId","type":"uint256","indexed":true,"internalType":"uint256"}],"anonymous":false},{"type":"event","name":"ApprovalForAll","inputs":[{"name":"owner","type":"address","indexed":true,"internalType":"address"},{"name":"operator","type":"address","indexed":true,"internalType":"address"},{"name":"approved","type":"bool","indexed":false,"internalType":"bool"}],"anonymous":false},{"type":"event","name":"ConsecutiveTransfer","inputs":[{"name":"fromTokenId","type":"uint256","indexed":true,"internalType":"uint256"},{"name":"toTokenId","type":"uint256","indexed":false,"internalType":"uint256"},{"name":"from","type":"address","indexed":true,"internalType":"address"},{"name":"to","type":"address","indexed":true,"internalType":"address"}],"anonymous":false},{"type":"event","name":"OwnershipTransferred","inputs":[{"name":"previousOwner","type":"address","indexed":true,"internalType":"address"},{"name":"newOwner","type":"address","indexed":true,"internalType":"address"}],"anonymous":false},{"type":"event","name":"Paused","inputs":[{"name":"account","type":"address","indexed":false,"internalType":"address"}],"anonymous":false},{"type":"event","name":"RoleCreated","inputs":[{"name":"creator","type":"address","indexed":true,"internalType":"address"},{"name":"roleId","type":"uint256","indexed":true,"internalType":"uint256"}],"anonymous":false},{"type":"event","name":"RoleRemoved","inputs":[{"name":"remover","type":"address","indexed":true,"internalType":"address"},{"name":"roleId","type":"uint256","indexed":true,"internalType":"uint256"}],"anonymous":false},{"type":"event","name":"RoleUpdated","inputs":[{"name":"updater","type":"address","indexed":true,"internalType":"address"},{"name":"roleId","type":"uint256","indexed":true,"internalType":"uint256"}],"anonymous":false},{"type":"event","name":"Transfer","inputs":[{"name":"from","type":"address","indexed":true,"internalType":"address"},{"name":"to","type":"address","indexed":true,"internalType":"address"},{"name":"tokenId","type":"uint256","indexed":true,"internalType":"uint256"}],"anonymous":false},{"type":"event","name":"Unpaused","inputs":[{"name":"account","type":"address","indexed":false,"internalType":"address"}],"anonymous":false},{"type":"error","name":"ApprovalCallerNotOwnerNorApproved","inputs":[]},{"type":"error","name":"ApprovalQueryForNonexistentToken","inputs":[]},{"type":"error","name":"BalanceQueryForZeroAddress","inputs":[]},{"type":"error","name":"Banning__InvalidTokenId","inputs":[{"name":"tokenId","type":"uint256","internalType":"uint256"}]},{"type":"error","name":"ChannelService__ChannelDisabled","inputs":[]},{"type":"error","name":"ChannelService__ChannelDoesNotExist","inputs":[]},{"type":"error","name":"ChannelService__RoleDoesNotExist","inputs":[]},{"type":"error","name":"Entitlement__InvalidValue","inputs":[]},{"type":"error","name":"Entitlement__NotAllowed","inputs":[]},{"type":"error","name":"Entitlement__NotMember","inputs":[]},{"type":"error","name":"Entitlement__ValueAlreadyExists","inputs":[]},{"type":"error","name":"EntitlementsService__EntitlementDoesNotExist","inputs":[]},{"type":"error","name":"EntitlementsService__InvalidEntitlementAddress","inputs":[]},{"type":"error","name":"EntitlementsService__InvalidEntitlementInterface","inputs":[]},{"type":"error","name":"MintERC2309QuantityExceedsLimit","inputs":[]},{"type":"error","name":"MintToZeroAddress","inputs":[]},{"type":"error","name":"MintZeroQuantity","inputs":[]},{"type":"error","name":"Ownable__NotOwner","inputs":[{"name":"account","type":"address","internalType":"address"}]},{"type":"error","name":"Ownable__ZeroAddress","inputs":[]},{"type":"error","name":"OwnerQueryForNonexistentToken","inputs":[]},{"type":"error","name":"OwnershipNotInitializedForExtraData","inputs":[]},{"type":"error","name":"Pausable__NotPaused","inputs":[]},{"type":"error","name":"Pausable__Paused","inputs":[]},{"type":"error","name":"Roles__EntitlementAlreadyExists","inputs":[]},{"type":"error","name":"Roles__EntitlementDoesNotExist","inputs":[]},{"type":"error","name":"Roles__InvalidEntitlementAddress","inputs":[]},{"type":"error","name":"Roles__InvalidPermission","inputs":[]},{"type":"error","name":"Roles__PermissionAlreadyExists","inputs":[]},{"type":"error","name":"Roles__PermissionDoesNotExist","inputs":[]},{"type":"error","name":"Roles__RoleDoesNotExist","inputs":[]},{"type":"error","name":"TransferCallerNotOwnerNorApproved","inputs":[]},{"type":"error","name":"TransferFromIncorrectOwner","inputs":[]},{"type":"error","name":"TransferToNonERC721ReceiverImplementer","inputs":[]},{"type":"error","name":"TransferToZeroAddress","inputs":[]},{"type":"error","name":"URIQueryForNonexistentToken","inputs":[]},{"type":"error","name":"Validator__InvalidByteLength","inputs":[]},{"type":"error","name":"Validator__InvalidStringLength","inputs":[]}],"bytecode":{"object":"0x608060405234801561001057600080fd5b506133df806100206000396000f3fe608060405234801561001057600080fd5b506004361061009e5760003560e01c80639a8e4c3e116100665780639a8e4c3e1461012a578063b42642331461013d578063b75157611461015d578063ba201ba814610170578063dba818641461018357600080fd5b80634d8b50a2146100a357806371061398146100b8578063784c872b146100d65780638fcd793d146100f65780639269182114610117575b600080fd5b6100b66100b1366004612c41565b610196565b005b6100c06101e7565b6040516100cd9190612e17565b60405180910390f35b6100e96100e4366004612e7b565b6101f6565b6040516100cd9190612e94565b610109610104366004612ea7565b610242565b6040519081526020016100cd565b6100b6610125366004612e7b565b61028d565b6100b6610138366004612f34565b6102d6565b61015061014b366004612e7b565b610321565b6040516100cd9190612f7a565b6100b661016b366004612f34565b61032c565b6100b661017e366004612fd1565b610373565b6100b6610191366004612fd1565b6103ba565b6101ca604051806040016040528060138152602001724d6f64696679537061636553657474696e677360681b815250610401565b6101d385610437565b6101e0858585858561047e565b5050505050565b60606101f1610792565b905090565b61022a6040518060a00160405280600081526020016060815260200160001515815260200160608152602001606081525090565b61023382610437565b61023c826108d4565b92915050565b6000610278604051806040016040528060138152602001724d6f64696679537061636553657474696e677360681b815250610401565b6102848585858561094d565b95945050505050565b6102c1604051806040016040528060138152602001724d6f64696679537061636553657474696e677360681b815250610401565b6102ca81610437565b6102d381610b55565b50565b61030a604051806040016040528060138152602001724d6f64696679537061636553657474696e677360681b815250610401565b61031382610437565b61031d8282610db9565b5050565b606061023c82610ea4565b610360604051806040016040528060138152602001724d6f64696679537061636553657474696e677360681b815250610401565b61036982610437565b61031d8282610eb8565b6103a7604051806040016040528060138152602001724d6f64696679537061636553657474696e677360681b815250610401565b6103b082610437565b61031d8282610f69565b6103ee604051806040016040528060138152602001724d6f64696679537061636553657474696e677360681b815250610401565b6103f782610437565b61031d8282610f9e565b61041a6040518060200160405280600081525082610fc3565b6102d357604051630ce39a4b60e21b815260040160405180910390fd5b6104617f6716c9783adc2ddce5cbd1c4b9be1a01eddc632993c01be3f480f07333626e1182611047565b6102d35760405163a3f70f7b60e01b815260040160405180910390fd5b600061048986611062565b80518351919250906000816001600160401b038111156104ab576104ab6129bc565b6040519080825280602002602001820160405280156104d4578160200160208202803683370190505b50905060005b8281101561057e576105088682815181106104f7576104f761300d565b60200260200101516000015161108c565b61052e86828151811061051d5761051d61300d565b602002602001015160000151611155565b8581815181106105405761054061300d565b60200260200101516000015182828151811061055e5761055e61300d565b6001600160a01b03909216602092830291909101909101526001016104da565b5086156105ad5760008981526000805160206133bf833981519152602052604090206105ab888a836130a5565b505b8551156105f35760008981526000805160206133bf833981519152602052604081206105db906002016111bd565b90506105e78a82610db9565b6105f18a88610eb8565b505b8160000361060457505050506101e0565b80511561067d57805160005b848110156106435761063b8b87838151811061062e5761062e61300d565b60200260200101516111c8565b600101610610565b5060005b8181101561067a576106728b8483815181106106655761066561300d565b6020026020010151611240565b600101610647565b50505b60005b838110156106b3576106ab85828151811061069d5761069d61300d565b60200260200101518b6112b3565b600101610680565b5060005b828110156107595760008682815181106106d3576106d361300d565b6020026020010151602001515111156107515761070c8682815181106106fb576106fb61300d565b60200260200101516020015161131a565b6107518682815181106107215761072161300d565b6020026020010151600001518b8884815181106107405761074061300d565b60200260200101516020015161133c565b6001016106b7565b50604051899033907f1aff41ff8e9139aae6bb355cc69107cda7e1d1dcd25511da436f3171bdbf77e690600090a3505050505050505050565b6060600061079e6113aa565b8051909150806001600160401b038111156107bb576107bb6129bc565b60405190808252806020026020018201604052801561082057816020015b61080d6040518060a00160405280600081526020016060815260200160001515815260200160608152602001606081525090565b8152602001906001900390816107d95790505b50925060005b818110156108ce576000806000806108568786815181106108495761084961300d565b60200260200101516113d5565b93509350935093506040518060a0016040528088878151811061087b5761087b61300d565b602002602001015181526020018581526020018415158152602001838152602001828152508886815181106108b2576108b261300d565b6020026020010181905250848060010195505050505050610826565b50505090565b6109086040518060a00160405280600081526020016060815260200160001515815260200160608152602001606081525090565b600080600080610917866113d5565b6040805160a0810182529a8b5260208b019490945291151592890192909252606088019190915260808701525093949350505050565b600061099185858080601f016020809104026020016040519081016040528093929190818152602001838380828437600092019190915250600292506114b5915050565b81516000816001600160401b038111156109ad576109ad6129bc565b6040519080825280602002602001820160405280156109d6578160200160208202803683370190505b5090506109e16114de565b925060005b82811015610ada57610a038582815181106104f7576104f761300d565b848181518110610a1557610a1561300d565b602002602001015160000151828281518110610a3357610a3361300d565b60200260200101906001600160a01b031690816001600160a01b031681525050610a8960405180604001604052806014815260200173656e7469746c656d656e74735b695d2e6461746160601b81525082611504565b610a9e8582815181106106fb576106fb61300d565b610ad2858281518110610ab357610ab361300d565b602002602001015160000151858784815181106107405761074061300d565b6001016109e6565b50610b1d87878080601f01602080910402602001604051908101604052809392919081815260200183838082843760009201829052509250899150859050611549565b50604051839033907f20a7a288530dd94b1eccaa691a582ecfd7550c9dfcee78ddf50a97f774a2b14790600090a35050949350505050565b6000610b6082611062565b805190915060008051602061339f833981519152610b9e7f6716c9783adc2ddce5cbd1c4b9be1a01eddc632993c01be3f480f07333626e1185611672565b506000848152600382016020526040812090610bba82826128cc565b60018201805460ff19169055600282016000610bd68282612906565b50506004820160008181610bea8282612924565b5050604080516020808201835260008083528b815260038901909152919091209450610c1b93509150839050613164565b506000848152600382016020526040812060018101805460ff19169055610c449060020161167e565b6000868152600384016020526040812091925090610c649060040161167e565b905060005b82811015610cb45760008781526003850160205260409020610cab90610c929060020183611688565b6000898152600387016020526040902060020190611694565b50600101610c69565b5060005b81811015610d035760008781526003850160205260409020610cfa90610ce190600401836116a0565b60008981526003870160205260409020600401906116ac565b50600101610cb8565b506000610d0f876116c1565b805190915060005b81811015610d4a57610d42838281518110610d3457610d3461300d565b60200260200101518a6117c6565b600101610d17565b5060005b86811015610d8157610d79888281518110610d6b57610d6b61300d565b60200260200101518a6112b3565b600101610d4e565b50604051889033907f268a6f1b90f6f5ddf50cc736d36513e80cdc5fd56326bff71f335e8b4b61d05590600090a35050505050505050565b805160008051602061339f8339815191529060005b818110156101e057610df8848281518110610deb57610deb61300d565b6020026020010151611866565b610e3b848281518110610e0d57610e0d61300d565b602002602001015184600301600088815260200190815260200160002060020161188790919063ffffffff16565b610e5857604051633e2b026160e01b815260040160405180910390fd5b610e9b848281518110610e6d57610e6d61300d565b602002602001015184600301600088815260200190815260200160002060020161169490919063ffffffff16565b50600101610dce565b6060610eaf826113d5565b50949350505050565b805160008051602061339f8339815191529060005b818110156101e057610eea848281518110610deb57610deb61300d565b610eff848281518110610e0d57610e0d61300d565b15610f1d5760405163b0ab682160e01b815260040160405180910390fd5b610f60848281518110610f3257610f3261300d565b602002602001015184600301600088815260200190815260200160002060020161189390919063ffffffff16565b50600101610ecd565b610f7282610437565b8051610f7d90611155565b610f8b828260000151611240565b61031d816000015183836020015161133c565b8051610fa990611155565b610fb78282600001516111c8565b805161031d90836112b3565b60003380610fcf61189f565b6001600160a01b0316148061103f57507ff421ea548af7158b1d71ba0aeccf57104c067038bd8fd214edd05c09eb4f735b5460ff1615801561103f575061103f8482856040516020016110229190613223565b60405160208183030381529060405261103a9061323f565b611963565b949350505050565b600081815260018301602052604081205415155b9392505050565b60008181526000805160206133bf8339815191526020526040902060609061023c90600401611da5565b6001600160a01b0381166110b357604051630706e15760e51b815260040160405180910390fd5b6040516301ffc9a760e01b8152630b98417960e31b60048201526001600160a01b038216906301ffc9a790602401602060405180830381865afa92505050801561111a575060408051601f3d908101601f1916820190925261111791810190613263565b60015b6111375760405163f58a5f2760e01b815260040160405180910390fd5b8061031d5760405163f58a5f2760e01b815260040160405180910390fd5b7f2df4f8e2489b335ef09ede56990b0838afbcdea6c639a41af44b533474fb85586111a07f2df4f8e2489b335ef09ede56990b0838afbcdea6c639a41af44b533474fb855983611db2565b61031d5760405163017ab33760e71b815260040160405180910390fd5b606061023c82611dd4565b60008281526000805160206133bf8339815191526020526040902060008051602061339f833981519152906112009060040183611db2565b61121d57604051632405297d60e11b815260040160405180910390fd5b6000838152600382016020526040902061123a90600401836116ac565b50505050565b60008281526000805160206133bf8339815191526020526040902060008051602061339f833981519152906112789060040183611db2565b156112965760405163fb5584f160e01b815260040160405180910390fd5b6000838152600382016020526040902061123a9060040183611eb1565b6112bc82611155565b60405163f0c111f960e01b8152600481018290526001600160a01b0383169063f0c111f990602401600060405180830381600087803b1580156112fe57600080fd5b505af1158015611312573d6000803e3d6000fd5b505050505050565b80516000036102d3576040516319c6193b60e31b815260040160405180910390fd5b61134583611155565b604051633be2f95d60e21b81526001600160a01b0384169063ef8be574906113739085908590600401613285565b600060405180830381600087803b15801561138d57600080fd5b505af11580156113a1573d6000803e3d6000fd5b50505050505050565b60606101f17f6716c9783adc2ddce5cbd1c4b9be1a01eddc632993c01be3f480f07333626e11611da5565b60008181526000805160206133bf833981519152602052604081208054606092918391829190819061140690613023565b80601f016020809104026020016040519081016040528092919081815260200182805461143290613023565b801561147f5780601f106114545761010080835404028352916020019161147f565b820191906000526020600020905b81548152906001019060200180831161146257829003601f168201915b5050505060018301549196505060ff16935061149d600282016111bd565b92506114ab81600401611da5565b9150509193509193565b815182908211156114d9576040516374eb20a760e01b815260040160405180910390fd5b505050565b60008051602061339f8339815191528054600091906114fe9060016132b4565b91505090565b61031d828260405160240161151a9291906132c7565b60408051601f198184030181529190526020810180516001600160e01b0316632d839cb360e21b179052611ec6565b60008051602061339f8339815191528054600091908190839061156b906132e9565b9182905550915061157f6001820183611ecf565b506000828152600382016020526040902061159a8782613164565b5060008281526003820160205260409020600101805460ff19168615151790556115c48285610eb8565b60005b83518110156116685760006001600160a01b03168482815181106115ed576115ed61300d565b60200260200101516001600160a01b03160361161c57604051637442429b60e01b815260040160405180910390fd5b61165f8482815181106116315761163161300d565b6020026020010151836003016000868152602001908152602001600020600401611eb190919063ffffffff16565b506001016115c7565b5050949350505050565b600061105b8383611edb565b600061023c825490565b606061105b8383611fce565b600061105b8383612080565b600061105b8383612235565b600061105b836001600160a01b038416611edb565b606060008051602061337f83398151915260006116dd8261167e565b90506000816001600160401b038111156116f9576116f96129bc565b60405190808252806020026020018201604052801561172c57816020015b60608152602001906001900390816117175790505b50935060005b828110156117ab5760006117468583611688565b905061177387866003018360405161175e9190613223565b90815260405190819003602001902090611047565b156117a257808684611784816132e9565b9550815181106117965761179661300d565b60200260200101819052505b50600101611732565b50808211156117be578351818303900384525b505050919050565b6117cf8261225f565b6117d882612294565b60405160008051602061337f8339815191529061181e9083907fb688ec8e4241d4a907fd7254e1a20e7a6d28a9043ed3eac37de6f05135b33b3d9061175e908790613223565b61183b576040516333cb039f60e11b815260040160405180910390fd5b61123a8282600301856040516118519190613223565b90815260405190819003602001902090611672565b80516000036102d35760405162ce76c160e41b815260040160405180910390fd5b600061105b8383612308565b600061105b8383612335565b6040805180820182527f9bd0e1a7aef81c47cff971a2fee48406b20f55522326b2e2616c49c24aa506d0546001600160a01b03168082527f9bd0e1a7aef81c47cff971a2fee48406b20f55522326b2e2616c49c24aa506d154602080840182905284516331a9108f60e11b815260048101929092529351600094636352211e92602480820193918290030181865afa15801561193f573d6000803e3d6000fd5b505050506040513d601f19601f820116820180604052508101906114fe9190613302565b6000604051806040016040528060098152602001684a6f696e537061636560b81b8152506040516020016119979190613223565b6040516020818303038152906040526119af9061323f565b82036119c6576119bf8484612397565b905061105b565b60006119d061189f565b6001600160a01b03851660009081527f630d36d827dd2d1cf0d5118b0729bf3ba07959315de50567c8d0b01f7ec88e7260208190526040822092935091611a1690611da5565b9050600081516001611a2891906132b4565b6001600160401b03811115611a3f57611a3f6129bc565b604051908082528060200260200182016040528015611a68578160200160208202803683370190505b5090508681600081518110611a7f57611a7f61300d565b60200260200101906001600160a01b031690816001600160a01b03168152505060005b8251811015611b0357828181518110611abd57611abd61300d565b602002602001015182826001611ad391906132b4565b81518110611ae357611ae361300d565b6001600160a01b0390921660209283029190910190910152600101611aa2565b5060005b8151811015611b5857846001600160a01b0316828281518110611b2c57611b2c61300d565b60200260200101516001600160a01b031603611b505760019550505050505061105b565b600101611b07565b50600080805b835181108015611b6c575082155b15611bef576000848281518110611b8557611b8561300d565b60200260200101519050611b988161272e565b15611bdc576001600160a01b03811660009081527f9b35df16c33a6c0e085c9ebd55fb367f81c58c2ed7e9bed98cc622f3308a600e60205260409020546001945092505b5080611be7816132e9565b915050611b5e565b5081611c04576000965050505050505061105b565b60008181527fa58ec377a0bfb65fc456fb479d6eb2f9e176963c85db6b84841175b4a0b637e9602052604090205460ff1680611c455750611c458a82612741565b15611c59576000965050505050505061105b565b7f2df4f8e2489b335ef09ede56990b0838afbcdea6c639a41af44b533474fb855860005b611c898260010161167e565b811015611d935760008281611ca160018301856116a0565b6001600160a01b039081168252602080830193909352604091820160002082516060810184529054918216815260ff600160a01b83048116151594820194909452600160a81b909104909216158015918301829052919250611d73575080600001516001600160a01b031663a7b728718e888e6040518463ffffffff1660e01b8152600401611d329392919061331f565b602060405180830381865afa158015611d4f573d6000803e3d6000fd5b505050506040513d601f19601f82011682018060405250810190611d739190613263565b15611d8a576001995050505050505050505061105b565b50600101611c7d565b5060009b9a5050505050505050505050565b6060600061105b8361279b565b6001600160a01b0381166000908152600183016020526040812054151561105b565b606081600001805480602002602001604051908101604052809291908181526020016000905b82821015611ea6578382906000526020600020018054611e1990613023565b80601f0160208091040260200160405190810160405280929190818152602001828054611e4590613023565b8015611e925780601f10611e6757610100808354040283529160200191611e92565b820191906000526020600020905b815481529060010190602001808311611e7557829003601f168201915b505050505081526020019060010190611dfa565b505050509050919050565b600061105b836001600160a01b0384166127f7565b6102d38161283e565b600061105b83836127f7565b60008181526001830160205260408120548015611fc4576000611eff600183613355565b8554909150600090611f1390600190613355565b9050818114611f78576000866000018281548110611f3357611f3361300d565b9060005260206000200154905080876000018481548110611f5657611f5661300d565b6000918252602080832090910192909255918252600188019052604090208390555b8554869080611f8957611f89613368565b60019003818190600052602060002001600090559055856001016000868152602001908152602001600020600090556001935050505061023c565b600091505061023c565b6060826000018281548110611fe557611fe561300d565b906000526020600020018054611ffa90613023565b80601f016020809104026020016040519081016040528092919081815260200182805461202690613023565b80156120735780601f1061204857610100808354040283529160200191612073565b820191906000526020600020905b81548152906001019060200180831161205657829003601f168201915b5050505050905092915050565b60008083600101836040516120959190613223565b908152602001604051809103902054905080600014611fc45760006120bb600183613355565b85549091506000906120cf90600190613355565b90508181146121d65760008660000182815481106120ef576120ef61300d565b90600052602060002001805461210490613023565b80601f016020809104026020016040519081016040528092919081815260200182805461213090613023565b801561217d5780601f106121525761010080835404028352916020019161217d565b820191906000526020600020905b81548152906001019060200180831161216057829003601f168201915b505050505090508087600001848154811061219a5761219a61300d565b9060005260206000200190816121b09190613164565b508387600101826040516121c49190613223565b90815260405190819003602001902055505b85548690806121e7576121e7613368565b60019003818190600052602060002001600061220391906128cc565b905585600101856040516122179190613223565b9081526020016040518091039020600090556001935050505061023c565b600082600001828154811061224c5761224c61300d565b9060005260206000200154905092915050565b61227760008051602061337f83398151915282611887565b6102d35760405163560b4b4160e11b815260040160405180910390fd5b60405160008051602061337f833981519152907fb688ec8e4241d4a907fd7254e1a20e7a6d28a9043ed3eac37de6f05135b33b3c906122d4908490613223565b9081526040519081900360200190206001015460ff161561031d57604051636ce0028960e11b815260040160405180910390fd5b6000826001018260405161231c9190613223565b9081526040519081900360200190205415159392505050565b60006123418383612308565b61238f578254600181018455600084815260209020016123618382613164565b5082546040516001850190612377908590613223565b9081526040519081900360200190205550600161023c565b50600061023c565b6000806123a261189f565b6001600160a01b03841660009081527f630d36d827dd2d1cf0d5118b0729bf3ba07959315de50567c8d0b01f7ec88e72602081905260408220929350916123e890611da5565b90506000815160016123fa91906132b4565b6001600160401b03811115612411576124116129bc565b60405190808252806020026020018201604052801561243a578160200160208202803683370190505b50905085816000815181106124515761245161300d565b60200260200101906001600160a01b031690816001600160a01b03168152505060005b82518110156124d55782818151811061248f5761248f61300d565b6020026020010151828260016124a591906132b4565b815181106124b5576124b561300d565b6001600160a01b0390921660209283029190910190910152600101612474565b506000805b8251811080156124e8575081155b156125315760008382815181106125015761250161300d565b602002602001015190506125148161272e565b1561251e57600192505b5080612529816132e9565b9150506124da565b5080156125465760009550505050505061023c565b60005b825181101561259b57856001600160a01b031683828151811061256e5761256e61300d565b60200260200101516001600160a01b031603612593576001965050505050505061023c565b600101612549565b507f2df4f8e2489b335ef09ede56990b0838afbcdea6c639a41af44b533474fb855860005b6125cc8260010161167e565b81101561271e57600082816125e460018301856116a0565b6001600160a01b039081168252602080830193909352604091820160002082516060810184529054918216815260ff600160a01b83048116151594820194909452600160a81b9091049092161580159183018290529192506126ff575080600001516001600160a01b031663a7b728718c87604051806040016040528060098152602001684a6f696e537061636560b81b8152506040516020016126889190613223565b6040516020818303038152906040526126a09061323f565b6040518463ffffffff1660e01b81526004016126be9392919061331f565b602060405180830381865afa1580156126db573d6000803e3d6000fd5b505050506040513d601f19601f820116820180604052508101906126ff9190613263565b156127155760019850505050505050505061023c565b506001016125c0565b5060009998505050505050505050565b60008061273a8361285f565b1192915050565b60007fa58ec377a0bfb65fc456fb479d6eb2f9e176963c85db6b84841175b4a0b637e9600101836040516127759190613223565b908152604080516020928190038301902060009485529091529091205460ff1692915050565b6060816000018054806020026020016040519081016040528092919081815260200182805480156127eb57602002820191906000526020600020905b8154815260200190600101908083116127d7575b50505050509050919050565b600081815260018301602052604081205461238f5750815460018181018455600084815260208082209093018490558454848252828601909352604090209190915561023c565b80516a636f6e736f6c652e6c6f67602083016000808483855afa5050505050565b60006001600160a01b038216612888576040516323d3ad8160e21b815260040160405180910390fd5b506001600160a01b031660009081527f234d8962d7c9a6a6604d7f98797e6ad6d7a886804f7409feb26422e27bf8125960205260409020546001600160401b031690565b5080546128d890613023565b6000825580601f106128e8575050565b601f0160209004906000526020600020908101906102d3919061293e565b50805460008255906000526020600020908101906102d39190612957565b50805460008255906000526020600020908101906102d391905b5b80821115612953576000815560010161293f565b5090565b8082111561295357600061296b82826128cc565b50600101612957565b60008083601f84011261298657600080fd5b5081356001600160401b0381111561299d57600080fd5b6020830191508360208285010111156129b557600080fd5b9250929050565b634e487b7160e01b600052604160045260246000fd5b604051601f8201601f191681016001600160401b03811182821017156129fa576129fa6129bc565b604052919050565b60006001600160401b03821115612a1b57612a1b6129bc565b5060051b60200190565b60006001600160401b03831115612a3e57612a3e6129bc565b612a51601f8401601f19166020016129d2565b9050828152838383011115612a6557600080fd5b828260208301376000602084830101529392505050565b600082601f830112612a8d57600080fd5b81356020612aa2612a9d83612a02565b6129d2565b82815260059290921b84018101918181019086841115612ac157600080fd5b8286015b84811015612b155780356001600160401b03811115612ae45760008081fd5b8701603f81018913612af65760008081fd5b612b07898683013560408401612a25565b845250918301918301612ac5565b509695505050505050565b6001600160a01b03811681146102d357600080fd5b600060408284031215612b4757600080fd5b604051604081016001600160401b038282108183111715612b6a57612b6a6129bc565b8160405282935084359150612b7e82612b20565b90825260208401359080821115612b9457600080fd5b508301601f81018513612ba657600080fd5b612bb585823560208401612a25565b6020830152505092915050565b600082601f830112612bd357600080fd5b81356020612be3612a9d83612a02565b82815260059290921b84018101918181019086841115612c0257600080fd5b8286015b84811015612b155780356001600160401b03811115612c255760008081fd5b612c338986838b0101612b35565b845250918301918301612c06565b600080600080600060808688031215612c5957600080fd5b8535945060208601356001600160401b0380821115612c7757600080fd5b612c8389838a01612974565b90965094506040880135915080821115612c9c57600080fd5b612ca889838a01612a7c565b93506060880135915080821115612cbe57600080fd5b50612ccb88828901612bc2565b9150509295509295909350565b60005b83811015612cf3578181015183820152602001612cdb565b50506000910152565b60008151808452612d14816020860160208601612cd8565b601f01601f19169290920160200192915050565b60008151808452602080850194506020840160005b83811015612d625781516001600160a01b031687529582019590820190600101612d3d565b509495945050505050565b80518252600060208083015160a082860152612d8c60a0860182612cfc565b9050604084015115156040860152606084015185820360608701528181518084528484019150848160051b850101858401935060005b82811015612df057601f19868303018452612dde828651612cfc565b94870194938701939150600101612dc2565b506080880151955088810360808a0152612e0a8187612d28565b9998505050505050505050565b600060208083016020845280855180835260408601915060408160051b87010192506020870160005b82811015612e6e57603f19888603018452612e5c858351612d6d565b94509285019290850190600101612e40565b5092979650505050505050565b600060208284031215612e8d57600080fd5b5035919050565b60208152600061105b6020830184612d6d565b60008060008060608587031215612ebd57600080fd5b84356001600160401b0380821115612ed457600080fd5b612ee088838901612974565b90965094506020870135915080821115612ef957600080fd5b612f0588838901612a7c565b93506040870135915080821115612f1b57600080fd5b50612f2887828801612bc2565b91505092959194509250565b60008060408385031215612f4757600080fd5b8235915060208301356001600160401b03811115612f6457600080fd5b612f7085828601612a7c565b9150509250929050565b600060208083016020845280855180835260408601915060408160051b87010192506020870160005b82811015612e6e57603f19888603018452612fbf858351612cfc565b94509285019290850190600101612fa3565b60008060408385031215612fe457600080fd5b8235915060208301356001600160401b0381111561300157600080fd5b612f7085828601612b35565b634e487b7160e01b600052603260045260246000fd5b600181811c9082168061303757607f821691505b60208210810361305757634e487b7160e01b600052602260045260246000fd5b50919050565b601f8211156114d9576000816000526020600020601f850160051c810160208610156130865750805b601f850160051c820191505b8181101561131257828155600101613092565b6001600160401b038311156130bc576130bc6129bc565b6130d0836130ca8354613023565b8361305d565b6000601f84116001811461310457600085156130ec5750838201355b600019600387901b1c1916600186901b1783556101e0565b600083815260209020601f19861690835b828110156131355786850135825560209485019460019092019101613115565b50868210156131525760001960f88860031b161c19848701351681555b505060018560011b0183555050505050565b81516001600160401b0381111561317d5761317d6129bc565b6131918161318b8454613023565b8461305d565b602080601f8311600181146131c657600084156131ae5750858301515b600019600386901b1c1916600185901b178555611312565b600085815260208120601f198616915b828110156131f5578886015182559484019460019091019084016131d6565b50858210156132135787850151600019600388901b60f8161c191681555b5050505050600190811b01905550565b60008251613235818460208701612cd8565b9190910192915050565b805160208083015191908110156130575760001960209190910360031b1b16919050565b60006020828403121561327557600080fd5b8151801515811461105b57600080fd5b82815260406020820152600061103f6040830184612cfc565b634e487b7160e01b600052601160045260246000fd5b8082018082111561023c5761023c61329e565b6040815260006132da6040830185612cfc565b90508260208301529392505050565b6000600182016132fb576132fb61329e565b5060010190565b60006020828403121561331457600080fd5b815161105b81612b20565b6060815260006133326060830186612cfc565b82810360208401526133448186612d28565b915050826040830152949350505050565b8181038181111561023c5761023c61329e565b634e487b7160e01b600052603160045260246000fdfeb688ec8e4241d4a907fd7254e1a20e7a6d28a9043ed3eac37de6f05135b33b3a6716c9783adc2ddce5cbd1c4b9be1a01eddc632993c01be3f480f07333626e106716c9783adc2ddce5cbd1c4b9be1a01eddc632993c01be3f480f07333626e13","linkReferences":{}},"methodIdentifiers":{"addPermissionsToRole(uint256,string[])":"b7515761","addRoleToEntitlement(uint256,(address,bytes))":"ba201ba8","createRole(string,string[],(address,bytes)[])":"8fcd793d","getPermissionsByRoleId(uint256)":"b4264233","getRoleById(uint256)":"784c872b","getRoles()":"71061398","removePermissionsFromRole(uint256,string[])":"9a8e4c3e","removeRole(uint256)":"92691821","removeRoleFromEntitlement(uint256,(address,bytes))":"dba81864","updateRole(uint256,string,string[],(address,bytes)[])":"4d8b50a2"},"id":184}