{"abi":[{"type":"function","name":"CLOCK_MODE","inputs":[],"outputs":[{"name":"","type":"string","internalType":"string"}],"stateMutability":"view"},{"type":"function","name":"DOMAIN_SEPARATOR","inputs":[],"outputs":[{"name":"result","type":"bytes32","internalType":"bytes32"}],"stateMutability":"view"},{"type":"function","name":"__ERC721A_init","inputs":[{"name":"name_","type":"string","internalType":"string"},{"name":"symbol_","type":"string","internalType":"string"}],"outputs":[],"stateMutability":"nonpayable"},{"type":"function","name":"__SpaceOwner_init","inputs":[{"name":"name","type":"string","internalType":"string"},{"name":"symbol","type":"string","internalType":"string"},{"name":"version","type":"string","internalType":"string"}],"outputs":[],"stateMutability":"nonpayable"},{"type":"function","name":"approve","inputs":[{"name":"to","type":"address","internalType":"address"},{"name":"tokenId","type":"uint256","internalType":"uint256"}],"outputs":[],"stateMutability":"payable"},{"type":"function","name":"balanceOf","inputs":[{"name":"owner","type":"address","internalType":"address"}],"outputs":[{"name":"","type":"uint256","internalType":"uint256"}],"stateMutability":"view"},{"type":"function","name":"clock","inputs":[],"outputs":[{"name":"","type":"uint48","internalType":"uint48"}],"stateMutability":"view"},{"type":"function","name":"delegate","inputs":[{"name":"delegatee","type":"address","internalType":"address"}],"outputs":[],"stateMutability":"nonpayable"},{"type":"function","name":"delegateBySig","inputs":[{"name":"delegatee","type":"address","internalType":"address"},{"name":"nonce","type":"uint256","internalType":"uint256"},{"name":"expiry","type":"uint256","internalType":"uint256"},{"name":"v","type":"uint8","internalType":"uint8"},{"name":"r","type":"bytes32","internalType":"bytes32"},{"name":"s","type":"bytes32","internalType":"bytes32"}],"outputs":[],"stateMutability":"nonpayable"},{"type":"function","name":"delegates","inputs":[{"name":"account","type":"address","internalType":"address"}],"outputs":[{"name":"","type":"address","internalType":"address"}],"stateMutability":"view"},{"type":"function","name":"eip712Domain","inputs":[],"outputs":[{"name":"fields","type":"bytes1","internalType":"bytes1"},{"name":"name","type":"string","internalType":"string"},{"name":"version","type":"string","internalType":"string"},{"name":"chainId","type":"uint256","internalType":"uint256"},{"name":"verifyingContract","type":"address","internalType":"address"},{"name":"salt","type":"bytes32","internalType":"bytes32"},{"name":"extensions","type":"uint256[]","internalType":"uint256[]"}],"stateMutability":"view"},{"type":"function","name":"getApproved","inputs":[{"name":"tokenId","type":"uint256","internalType":"uint256"}],"outputs":[{"name":"","type":"address","internalType":"address"}],"stateMutability":"view"},{"type":"function","name":"getDefaultUri","inputs":[],"outputs":[{"name":"","type":"string","internalType":"string"}],"stateMutability":"view"},{"type":"function","name":"getFactory","inputs":[],"outputs":[{"name":"","type":"address","internalType":"address"}],"stateMutability":"view"},{"type":"function","name":"getPastTotalSupply","inputs":[{"name":"timepoint","type":"uint256","internalType":"uint256"}],"outputs":[{"name":"","type":"uint256","internalType":"uint256"}],"stateMutability":"view"},{"type":"function","name":"getPastVotes","inputs":[{"name":"account","type":"address","internalType":"address"},{"name":"timepoint","type":"uint256","internalType":"uint256"}],"outputs":[{"name":"","type":"uint256","internalType":"uint256"}],"stateMutability":"view"},{"type":"function","name":"getSpaceByTokenId","inputs":[{"name":"tokenId","type":"uint256","internalType":"uint256"}],"outputs":[{"name":"","type":"address","internalType":"address"}],"stateMutability":"view"},{"type":"function","name":"getSpaceInfo","inputs":[{"name":"space","type":"address","internalType":"address"}],"outputs":[{"name":"","type":"tuple","internalType":"struct ISpaceOwnerBase.Space","components":[{"name":"name","type":"string","internalType":"string"},{"name":"uri","type":"string","internalType":"string"},{"name":"tokenId","type":"uint256","internalType":"uint256"},{"name":"createdAt","type":"uint256","internalType":"uint256"},{"name":"shortDescription","type":"string","internalType":"string"},{"name":"longDescription","type":"string","internalType":"string"}]}],"stateMutability":"view"},{"type":"function","name":"getVotes","inputs":[{"name":"account","type":"address","internalType":"address"}],"outputs":[{"name":"","type":"uint256","internalType":"uint256"}],"stateMutability":"view"},{"type":"function","name":"isApprovedForAll","inputs":[{"name":"owner","type":"address","internalType":"address"},{"name":"operator","type":"address","internalType":"address"}],"outputs":[{"name":"","type":"bool","internalType":"bool"}],"stateMutability":"view"},{"type":"function","name":"mintSpace","inputs":[{"name":"name","type":"string","internalType":"string"},{"name":"uri","type":"string","internalType":"string"},{"name":"space","type":"address","internalType":"address"},{"name":"shortDescription","type":"string","internalType":"string"},{"name":"longDescription","type":"string","internalType":"string"}],"outputs":[{"name":"tokenId","type":"uint256","internalType":"uint256"}],"stateMutability":"nonpayable"},{"type":"function","name":"name","inputs":[],"outputs":[{"name":"","type":"string","internalType":"string"}],"stateMutability":"view"},{"type":"function","name":"nextTokenId","inputs":[],"outputs":[{"name":"","type":"uint256","internalType":"uint256"}],"stateMutability":"view"},{"type":"function","name":"nonces","inputs":[{"name":"owner","type":"address","internalType":"address"}],"outputs":[{"name":"result","type":"uint256","internalType":"uint256"}],"stateMutability":"view"},{"type":"function","name":"ownerOf","inputs":[{"name":"tokenId","type":"uint256","internalType":"uint256"}],"outputs":[{"name":"","type":"address","internalType":"address"}],"stateMutability":"view"},{"type":"function","name":"safeTransferFrom","inputs":[{"name":"from","type":"address","internalType":"address"},{"name":"to","type":"address","internalType":"address"},{"name":"tokenId","type":"uint256","internalType":"uint256"}],"outputs":[],"stateMutability":"payable"},{"type":"function","name":"safeTransferFrom","inputs":[{"name":"from","type":"address","internalType":"address"},{"name":"to","type":"address","internalType":"address"},{"name":"tokenId","type":"uint256","internalType":"uint256"},{"name":"_data","type":"bytes","internalType":"bytes"}],"outputs":[],"stateMutability":"payable"},{"type":"function","name":"setApprovalForAll","inputs":[{"name":"operator","type":"address","internalType":"address"},{"name":"approved","type":"bool","internalType":"bool"}],"outputs":[],"stateMutability":"nonpayable"},{"type":"function","name":"setDefaultUri","inputs":[{"name":"uri","type":"string","internalType":"string"}],"outputs":[],"stateMutability":"nonpayable"},{"type":"function","name":"setFactory","inputs":[{"name":"factory","type":"address","internalType":"address"}],"outputs":[],"stateMutability":"nonpayable"},{"type":"function","name":"symbol","inputs":[],"outputs":[{"name":"","type":"string","internalType":"string"}],"stateMutability":"view"},{"type":"function","name":"tokenURI","inputs":[{"name":"tokenId","type":"uint256","internalType":"uint256"}],"outputs":[{"name":"","type":"string","internalType":"string"}],"stateMutability":"view"},{"type":"function","name":"totalSupply","inputs":[],"outputs":[{"name":"","type":"uint256","internalType":"uint256"}],"stateMutability":"view"},{"type":"function","name":"transferFrom","inputs":[{"name":"from","type":"address","internalType":"address"},{"name":"to","type":"address","internalType":"address"},{"name":"tokenId","type":"uint256","internalType":"uint256"}],"outputs":[],"stateMutability":"payable"},{"type":"function","name":"updateSpaceInfo","inputs":[{"name":"space","type":"address","internalType":"address"},{"name":"name","type":"string","internalType":"string"},{"name":"uri","type":"string","internalType":"string"},{"name":"shortDescription","type":"string","internalType":"string"},{"name":"longDescription","type":"string","internalType":"string"}],"outputs":[],"stateMutability":"nonpayable"},{"type":"event","name":"Approval","inputs":[{"name":"owner","type":"address","indexed":true,"internalType":"address"},{"name":"approved","type":"address","indexed":true,"internalType":"address"},{"name":"tokenId","type":"uint256","indexed":true,"internalType":"uint256"}],"anonymous":false},{"type":"event","name":"ApprovalForAll","inputs":[{"name":"owner","type":"address","indexed":true,"internalType":"address"},{"name":"operator","type":"address","indexed":true,"internalType":"address"},{"name":"approved","type":"bool","indexed":false,"internalType":"bool"}],"anonymous":false},{"type":"event","name":"ConsecutiveTransfer","inputs":[{"name":"fromTokenId","type":"uint256","indexed":true,"internalType":"uint256"},{"name":"toTokenId","type":"uint256","indexed":false,"internalType":"uint256"},{"name":"from","type":"address","indexed":true,"internalType":"address"},{"name":"to","type":"address","indexed":true,"internalType":"address"}],"anonymous":false},{"type":"event","name":"DelegateChanged","inputs":[{"name":"delegator","type":"address","indexed":true,"internalType":"address"},{"name":"fromDelegate","type":"address","indexed":true,"internalType":"address"},{"name":"toDelegate","type":"address","indexed":true,"internalType":"address"}],"anonymous":false},{"type":"event","name":"DelegateVotesChanged","inputs":[{"name":"delegate","type":"address","indexed":true,"internalType":"address"},{"name":"previousVotes","type":"uint256","indexed":false,"internalType":"uint256"},{"name":"newVotes","type":"uint256","indexed":false,"internalType":"uint256"}],"anonymous":false},{"type":"event","name":"EIP712DomainChanged","inputs":[],"anonymous":false},{"type":"event","name":"GuardianDefaultCooldownUpdated","inputs":[{"name":"cooldown","type":"uint256","indexed":true,"internalType":"uint256"}],"anonymous":false},{"type":"event","name":"GuardianUpdated","inputs":[{"name":"caller","type":"address","indexed":true,"internalType":"address"},{"name":"enabled","type":"bool","indexed":true,"internalType":"bool"},{"name":"cooldown","type":"uint256","indexed":false,"internalType":"uint256"},{"name":"timestamp","type":"uint256","indexed":false,"internalType":"uint256"}],"anonymous":false},{"type":"event","name":"Initialized","inputs":[{"name":"version","type":"uint32","indexed":false,"internalType":"uint32"}],"anonymous":false},{"type":"event","name":"InterfaceAdded","inputs":[{"name":"interfaceId","type":"bytes4","indexed":true,"internalType":"bytes4"}],"anonymous":false},{"type":"event","name":"InterfaceRemoved","inputs":[{"name":"interfaceId","type":"bytes4","indexed":true,"internalType":"bytes4"}],"anonymous":false},{"type":"event","name":"MetadataUpdate","inputs":[{"name":"_tokenId","type":"uint256","indexed":false,"internalType":"uint256"}],"anonymous":false},{"type":"event","name":"OwnershipTransferred","inputs":[{"name":"previousOwner","type":"address","indexed":true,"internalType":"address"},{"name":"newOwner","type":"address","indexed":true,"internalType":"address"}],"anonymous":false},{"type":"event","name":"SpaceOwner__SetDefaultUri","inputs":[{"name":"uri","type":"string","indexed":false,"internalType":"string"}],"anonymous":false},{"type":"event","name":"SpaceOwner__SetFactory","inputs":[{"name":"factory","type":"address","indexed":false,"internalType":"address"}],"anonymous":false},{"type":"event","name":"SpaceOwner__UpdateSpace","inputs":[{"name":"space","type":"address","indexed":true,"internalType":"address"}],"anonymous":false},{"type":"event","name":"Transfer","inputs":[{"name":"from","type":"address","indexed":true,"internalType":"address"},{"name":"to","type":"address","indexed":true,"internalType":"address"},{"name":"tokenId","type":"uint256","indexed":true,"internalType":"uint256"}],"anonymous":false},{"type":"error","name":"ApprovalCallerNotOwnerNorApproved","inputs":[]},{"type":"error","name":"ApprovalQueryForNonexistentToken","inputs":[]},{"type":"error","name":"BalanceQueryForZeroAddress","inputs":[]},{"type":"error","name":"ECDSAInvalidSignature","inputs":[]},{"type":"error","name":"ECDSAInvalidSignatureLength","inputs":[{"name":"length","type":"uint256","internalType":"uint256"}]},{"type":"error","name":"ECDSAInvalidSignatureS","inputs":[{"name":"s","type":"bytes32","internalType":"bytes32"}]},{"type":"error","name":"Guardian_AlreadyDisabled","inputs":[]},{"type":"error","name":"Guardian_AlreadyEnabled","inputs":[]},{"type":"error","name":"Guardian_Enabled","inputs":[]},{"type":"error","name":"Initializable_AlreadyInitialized","inputs":[{"name":"version","type":"uint32","internalType":"uint32"}]},{"type":"error","name":"Initializable_InInitializingState","inputs":[]},{"type":"error","name":"Initializable_NotInInitializingState","inputs":[]},{"type":"error","name":"Introspection_AlreadySupported","inputs":[]},{"type":"error","name":"Introspection_NotSupported","inputs":[]},{"type":"error","name":"InvalidAccountNonce","inputs":[{"name":"account","type":"address","internalType":"address"},{"name":"currentNonce","type":"uint256","internalType":"uint256"}]},{"type":"error","name":"MintERC2309QuantityExceedsLimit","inputs":[]},{"type":"error","name":"MintToZeroAddress","inputs":[]},{"type":"error","name":"MintZeroQuantity","inputs":[]},{"type":"error","name":"Ownable__NotOwner","inputs":[{"name":"account","type":"address","internalType":"address"}]},{"type":"error","name":"Ownable__ZeroAddress","inputs":[]},{"type":"error","name":"OwnerQueryForNonexistentToken","inputs":[]},{"type":"error","name":"OwnershipNotInitializedForExtraData","inputs":[]},{"type":"error","name":"SafeCastOverflowedUintDowncast","inputs":[{"name":"bits","type":"uint8","internalType":"uint8"},{"name":"value","type":"uint256","internalType":"uint256"}]},{"type":"error","name":"SpaceOwner__DefaultUriNotSet","inputs":[]},{"type":"error","name":"SpaceOwner__OnlyFactoryAllowed","inputs":[]},{"type":"error","name":"SpaceOwner__OnlySpaceOwnerAllowed","inputs":[]},{"type":"error","name":"SpaceOwner__SpaceNotFound","inputs":[]},{"type":"error","name":"TransferCallerNotOwnerNorApproved","inputs":[]},{"type":"error","name":"TransferFromIncorrectOwner","inputs":[]},{"type":"error","name":"TransferToNonERC721ReceiverImplementer","inputs":[]},{"type":"error","name":"TransferToZeroAddress","inputs":[]},{"type":"error","name":"URIQueryForNonexistentToken","inputs":[]},{"type":"error","name":"Validator__InvalidAddress","inputs":[]},{"type":"error","name":"Validator__InvalidStringLength","inputs":[]},{"type":"error","name":"VotesExpiredSignature","inputs":[{"name":"expiry","type":"uint256","internalType":"uint256"}]}],"bytecode":{"object":"0x6080604052348015600e575f5ffd5b5060156019565b60bd565b7f59b501c3653afc186af7d48dda36cf6732bd21629a6295693664240a6ef520008054640100000000900460ff16156064576040516366008a2d60e01b815260040160405180910390fd5b805463ffffffff908116101560ba57805463ffffffff191663ffffffff90811782556040519081527fe9c9b456cb2994b80aeef036cf59d26e9617df80f816a6ee5a5b4166e07e2f5c9060200160405180910390a15b50565b614c7a806100ca5f395ff3fe608060405260043610610229575f3560e01c806370a08231116101315780639ab24eb0116100ac578063c87b56dd1161007c578063d653654011610062578063d6536540146105fc578063d7a901d314610610578063e985e9c51461062f575f5ffd5b8063c87b56dd146105be578063d2f01f19146105dd575f5ffd5b80639ab24eb01461054e578063a22cb4651461056d578063b88d4fde1461058c578063c3cda5201461059f575f5ffd5b806384b0196e116101015780638e539e8c116100e75780638e539e8c146104f057806391ddadf41461050f57806395d89b411461053a575f5ffd5b806384b0196e146104b557806388cc58e4146104dc575f5ffd5b806370a082311461044457806375794a3c146104635780637ecebe00146104775780638488061414610496575f5ffd5b806342842e0e116101c15780635bb47808116101915780636352211e116101775780636352211e146103da578063673f0dd5146103f95780636a9a38e614610418575f5ffd5b80635bb478081461039c5780635c19a95c146103bb575f5ffd5b806342842e0e14610337578063466a18de1461034a5780634bf5d7e914610369578063587cde1e1461037d575f5ffd5b806323b872dd116101fc57806323b872dd146102d25780633644e515146102e55780633a46b1a8146102f95780633bf5b8f414610318575f5ffd5b806306fdde031461022d578063081812fc14610257578063095ea7b31461029b57806318160ddd146102b0575b5f5ffd5b348015610238575f5ffd5b5061024161065e565b60405161024e9190614153565b60405180910390f35b348015610262575f5ffd5b50610276610271366004614165565b610711565b60405173ffffffffffffffffffffffffffffffffffffffff909116815260200161024e565b6102ae6102a93660046141a4565b610721565b005b3480156102bb575f5ffd5b506102c461078f565b60405190815260200161024e565b6102ae6102e03660046141cc565b6107e0565b3480156102f0575f5ffd5b506102c4610b3c565b348015610304575f5ffd5b506102c46103133660046141a4565b610b45565b348015610323575f5ffd5b506102c46103323660046142e6565b610b57565b6102ae6103453660046141cc565b610c14565b348015610355575f5ffd5b506102ae6103643660046143af565b610c33565b348015610374575f5ffd5b50610241610cb6565b348015610388575f5ffd5b506102766103973660046143e1565b610cc0565b3480156103a7575f5ffd5b506102ae6103b63660046143e1565b610d0d565b3480156103c6575f5ffd5b506102ae6103d53660046143e1565b610d88565b3480156103e5575f5ffd5b506102766103f4366004614165565b610d92565b348015610404575f5ffd5b50610276610413366004614165565b610d9c565b348015610423575f5ffd5b506104376104323660046143e1565b610de4565b60405161024e91906143fa565b34801561044f575f5ffd5b506102c461045e3660046143e1565b610e24565b34801561046e575f5ffd5b506102c4610e2e565b348015610482575f5ffd5b506102c46104913660046143e1565b610e57565b3480156104a1575f5ffd5b506102ae6104b03660046144e5565b610ea0565b3480156104c0575f5ffd5b506104c9610f98565b60405161024e979695949392919061456d565b3480156104e7575f5ffd5b506102766110a9565b3480156104fb575f5ffd5b506102c461050a366004614165565b6110e8565b34801561051a575f5ffd5b506105236110f2565b60405165ffffffffffff909116815260200161024e565b348015610545575f5ffd5b506102416110fb565b348015610559575f5ffd5b506102c46105683660046143e1565b61112d565b348015610578575f5ffd5b506102ae61058736600461462c565b611137565b6102ae61059a366004614665565b611189565b3480156105aa575f5ffd5b506102ae6105b93660046146dc565b6111f9565b3480156105c9575f5ffd5b506102416105d8366004614165565b611207565b3480156105e8575f5ffd5b506102ae6105f7366004614737565b611251565b348015610607575f5ffd5b506102416112be565b34801561061b575f5ffd5b506102ae61062a36600461479c565b6112c8565b34801561063a575f5ffd5b5061064e61064936600461482a565b61142b565b604051901515815260200161024e565b60607f6569bde4a160c636ea8b8d11acb83a60d7fec0b8f2e09389306cba0e1340df005b60020180546106909061485b565b80601f01602080910402602001604051908101604052809291908181526020018280546106bc9061485b565b80156107075780601f106106de57610100808354040283529160200191610707565b820191905f5260205f20905b8154815290600101906020018083116106ea57829003601f168201915b5050505050905090565b5f61071b82611486565b92915050565b73ffffffffffffffffffffffffffffffffffffffff82161580159061074a575061074a3361150d565b15610781576040517fed551c3000000000000000000000000000000000000000000000000000000000815260040160405180910390fd5b61078b82826115e8565b5050565b5f6107db7f6569bde4a160c636ea8b8d11acb83a60d7fec0b8f2e09389306cba0e1340df01547f6569bde4a160c636ea8b8d11acb83a60d7fec0b8f2e09389306cba0e1340df00540390565b905090565b5f6107ea826115f4565b90508373ffffffffffffffffffffffffffffffffffffffff168173ffffffffffffffffffffffffffffffffffffffff1614610851576040517fa114810000000000000000000000000000000000000000000000000000000000815260040160405180910390fd5b5f8281527f6569bde4a160c636ea8b8d11acb83a60d7fec0b8f2e09389306cba0e1340df066020526040902080543380821473ffffffffffffffffffffffffffffffffffffffff8816909114176108e2576108ac863361142b565b6108e2576040517f59c896be00000000000000000000000000000000000000000000000000000000815260040160405180910390fd5b73ffffffffffffffffffffffffffffffffffffffff851661092f576040517fea553b3400000000000000000000000000000000000000000000000000000000815260040160405180910390fd5b61093c8686866001611725565b8015610946575f82555b73ffffffffffffffffffffffffffffffffffffffff8681165f9081527f6569bde4a160c636ea8b8d11acb83a60d7fec0b8f2e09389306cba0e1340df05602052604080822080547fffffffffffffffffffffffffffffffffffffffffffffffffffffffffffffffff019055918716808252919020805460010190554260a01b177c0200000000000000000000000000000000000000000000000000000000175f8581527f6569bde4a160c636ea8b8d11acb83a60d7fec0b8f2e09389306cba0e1340df0460205260408120919091557c020000000000000000000000000000000000000000000000000000000084169003610acc57600184015f8181527f6569bde4a160c636ea8b8d11acb83a60d7fec0b8f2e09389306cba0e1340df0460205260408120549003610aca577f6569bde4a160c636ea8b8d11acb83a60d7fec0b8f2e09389306cba0e1340df00548114610aca575f8181527f6569bde4a160c636ea8b8d11acb83a60d7fec0b8f2e09389306cba0e1340df04602052604090208490555b505b838573ffffffffffffffffffffffffffffffffffffffff168773ffffffffffffffffffffffffffffffffffffffff167fddf252ad1be2c89b69c2b068fc378daa952ba7f163c4a11628f55a4df523b3ef60405160405180910390a4610b34868686600161178a565b505050505050565b5f6107db611795565b5f610b50838361179e565b9392505050565b5f807f7fc24c9500f4388b797f8975c0991ad4ffd0338c2cbf5335b2bf5b7fe5747700805490915073ffffffffffffffffffffffffffffffffffffffff163314610bcd576040517f887cea1600000000000000000000000000000000000000000000000000000000815260040160405180910390fd5b7f6569bde4a160c636ea8b8d11acb83a60d7fec0b8f2e09389306cba0e1340df00549150610bff878784888888611891565b610c0a336001611a29565b5095945050505050565b610c2e83838360405180602001604052805f815250611189565b505050565b7f4675fa8241f86f37157864d3d49b85ad4b164352c516da28e1678a90470ae3005473ffffffffffffffffffffffffffffffffffffffff163314610caa576040517f65f490650000000000000000000000000000000000000000000000000000000081523360048201526024015b60405180910390fd5b610cb381611bf1565b50565b60606107db611c62565b73ffffffffffffffffffffffffffffffffffffffff8082165f9081527f423fcc3514229d79a30fb79b40a232f70b3fabdf664a75db0859c67848497f65602052604081205490911661071b565b7f4675fa8241f86f37157864d3d49b85ad4b164352c516da28e1678a90470ae3005473ffffffffffffffffffffffffffffffffffffffff163314610d7f576040517f65f49065000000000000000000000000000000000000000000000000000000008152336004820152602401610ca1565b610cb381611d14565b610cb33382611db5565b5f61071b826115f4565b5f8181527f7fc24c9500f4388b797f8975c0991ad4ffd0338c2cbf5335b2bf5b7fe5747701602052604081205473ffffffffffffffffffffffffffffffffffffffff1661071b565b610e1b6040518060c0016040528060608152602001606081526020015f81526020015f815260200160608152602001606081525090565b61071b82611e6a565b5f61071b82612176565b5f6107db7f6569bde4a160c636ea8b8d11acb83a60d7fec0b8f2e09389306cba0e1340df005490565b73ffffffffffffffffffffffffffffffffffffffff81165f9081527fda5d6d87446d81938877f0ee239dac391146dd7466ea30567f72becf06773c00602052604081205461071b565b610ea985612215565b610eb685858585856122b3565b8473ffffffffffffffffffffffffffffffffffffffff1663410066056040518163ffffffff1660e01b81526004015f604051808303815f87803b158015610efb575f5ffd5b505af1158015610f0d573d5f5f3e3d5ffd5b505050507ff8e1a15aba9398e019f0b49df1a4fde98ee17ae345cb5f6b5e2c27f5033e8ce7610f7f8673ffffffffffffffffffffffffffffffffffffffff165f9081527f7fc24c9500f4388b797f8975c0991ad4ffd0338c2cbf5335b2bf5b7fe5747702602052604090206002015490565b6040519081526020015b60405180910390a15050505050565b5f606080828080837f3a497e775dc7c283402f0d3c39c5f0ea53870eb15ab2dddfde5a1162a84c336c54158015610fee57507f3a497e775dc7c283402f0d3c39c5f0ea53870eb15ab2dddfde5a1162a84c336d54155b611054576040517f08c379a000000000000000000000000000000000000000000000000000000000815260206004820152601560248201527f4549503731323a20556e696e697469616c697a656400000000000000000000006044820152606401610ca1565b61105c6123d3565b6110646123fb565b604080515f808252602082019092527f0f000000000000000000000000000000000000000000000000000000000000009b939a50919850469750309650945092509050565b5f6107db7f7fc24c9500f4388b797f8975c0991ad4ffd0338c2cbf5335b2bf5b7fe57477005473ffffffffffffffffffffffffffffffffffffffff1690565b5f61071b82612423565b5f6107db6124f3565b60607f6569bde4a160c636ea8b8d11acb83a60d7fec0b8f2e09389306cba0e1340df005b60030180546106909061485b565b5f61071b826124fd565b80801561114857506111483361150d565b1561117f576040517fed551c3000000000000000000000000000000000000000000000000000000000815260040160405180910390fd5b61078b8282612549565b6111948484846107e0565b73ffffffffffffffffffffffffffffffffffffffff83163b156111f3576111bd848484846125fe565b6111f3576040517fd1a57ed600000000000000000000000000000000000000000000000000000000815260040160405180910390fd5b50505050565b610b34868686868686612774565b606061121282612883565b611248576040517fa14c4b5000000000000000000000000000000000000000000000000000000000815260040160405180910390fd5b61071b82612900565b7f59b501c3653afc186af7d48dda36cf6732bd21629a6295693664240a6ef5200054640100000000900460ff166112b4576040517f77a399b800000000000000000000000000000000000000000000000000000000815260040160405180910390fd5b61078b8282612c1c565b60606107db612c78565b7f59b501c3653afc186af7d48dda36cf6732bd21629a6295693664240a6ef520008054640100000000900460ff16158061130557303b1515611314565b8154600163ffffffff90911610155b156113565781546040517f5477bbf800000000000000000000000000000000000000000000000000000000815263ffffffff9091166004820152602401610ca1565b81547fffffffffffffffffffffffffffffffffffffffffffffffffffffffff0000000016600117825580156113b35781547fffffffffffffffffffffffffffffffffffffffffffffffffffffff00ffffffff166401000000001782555b6113bd8585612c1c565b6113c78584612ca9565b80156114245781547fffffffffffffffffffffffffffffffffffffffffffffffffffffff00ffffffff168255604051600181527fe9c9b456cb2994b80aeef036cf59d26e9617df80f816a6ee5a5b4166e07e2f5c90602001610f89565b5050505050565b73ffffffffffffffffffffffffffffffffffffffff8083165f9081527f6569bde4a160c636ea8b8d11acb83a60d7fec0b8f2e09389306cba0e1340df076020908152604080832093851683529290529081205460ff16610b50565b5f61149082612883565b6114c6576040517fcf4700e400000000000000000000000000000000000000000000000000000000815260040160405180910390fd5b505f9081527f6569bde4a160c636ea8b8d11acb83a60d7fec0b8f2e09389306cba0e1340df06602052604090205473ffffffffffffffffffffffffffffffffffffffff1690565b5f807f0c89d3aad1b583c77a2e9f9fffa651b386c9c29e300bf2a8e2f3de1bb0100a00905073ffffffffffffffffffffffffffffffffffffffff83167f7fc24c9500f4388b797f8975c0991ad4ffd0338c2cbf5335b2bf5b7fe57477005473ffffffffffffffffffffffffffffffffffffffff1614801590610b50575073ffffffffffffffffffffffffffffffffffffffff83165f9081526001820160205260409020541580610b50575073ffffffffffffffffffffffffffffffffffffffff83165f90815260018201602052604090205442109392505050565b61078b82826001612d16565b5f8181527f6569bde4a160c636ea8b8d11acb83a60d7fec0b8f2e09389306cba0e1340df046020526040812054907f6569bde4a160c636ea8b8d11acb83a60d7fec0b8f2e09389306cba0e1340df00907c0100000000000000000000000000000000000000000000000000000000831690036116f257815f036116ec57805483106116ab576040517fdf2d9b4200000000000000000000000000000000000000000000000000000000815260040160405180910390fd5b5b7fffffffffffffffffffffffffffffffffffffffffffffffffffffffffffffffff9092015f818152600484016020526040902054909290915081156116ac575b50919050565b506040517fdf2d9b4200000000000000000000000000000000000000000000000000000000815260040160405180910390fd5b73ffffffffffffffffffffffffffffffffffffffff84161580159061174e575061174e8461150d565b15611785576040517fed551c3000000000000000000000000000000000000000000000000000000000815260040160405180910390fd5b6111f3565b611785848483612e6d565b5f6107db612f6b565b5f6117a76124f3565b65ffffffffffff168210611817576040517f08c379a000000000000000000000000000000000000000000000000000000000815260206004820152601460248201527f566f7465733a20667574757265206c6f6f6b75700000000000000000000000006044820152606401610ca1565b61186c61182383612fde565b73ffffffffffffffffffffffffffffffffffffffff85165f9081527f423fcc3514229d79a30fb79b40a232f70b3fabdf664a75db0859c67848497f66602052604090209061302b565b7bffffffffffffffffffffffffffffffffffffffffffffffffffffffff169392505050565b61189c8660026130ef565b6118a6855f6130ef565b6118af8361312c565b5f8481527f7fc24c9500f4388b797f8975c0991ad4ffd0338c2cbf5335b2bf5b7fe57477016020908152604080832080547fffffffffffffffffffffffff00000000000000000000000000000000000000001673ffffffffffffffffffffffffffffffffffffffff881690811790915581516080810183528a81528084018a90528083018990524260608201529084527f7fc24c9500f4388b797f8975c0991ad4ffd0338c2cbf5335b2bf5b7fe574770290925290912081517f7fc24c9500f4388b797f8975c0991ad4ffd0338c2cbf5335b2bf5b7fe5747700929190819061199890826148ea565b50602082015160018201906119ad90826148ea565b50604082810151600283015560609092015160039182015581518083018352858152602080820186905273ffffffffffffffffffffffffffffffffffffffff88165f908152928501905291902081518190611a0890826148ea565b5060208201516001820190611a1d90826148ea565b50505050505050505050565b7f6569bde4a160c636ea8b8d11acb83a60d7fec0b8f2e09389306cba0e1340df00545f829003611a85576040517fb562e8dd00000000000000000000000000000000000000000000000000000000815260040160405180910390fd5b611a915f848385611725565b73ffffffffffffffffffffffffffffffffffffffff83165f8181527f6569bde4a160c636ea8b8d11acb83a60d7fec0b8f2e09389306cba0e1340df056020908152604080832080546801000000000000000188020190558483527f6569bde4a160c636ea8b8d11acb83a60d7fec0b8f2e09389306cba0e1340df0490915281206001851460e11b4260a01b178317905582840190839083907fddf252ad1be2c89b69c2b068fc378daa952ba7f163c4a11628f55a4df523b3ef8180a4600183015b818114611b885780835f7fddf252ad1be2c89b69c2b068fc378daa952ba7f163c4a11628f55a4df523b3ef5f5fa4600101611b52565b50815f03611bc2576040517f2e07630000000000000000000000000000000000000000000000000000000000815260040160405180910390fd5b7f6569bde4a160c636ea8b8d11acb83a60d7fec0b8f2e09389306cba0e1340df005550610c2e5f84838561178a565b611bfc8160016130ef565b7f7fc24c9500f4388b797f8975c0991ad4ffd0338c2cbf5335b2bf5b7fe5747704611c2782826148ea565b507f8fe3adc25723aa6a0b7eb4b4bacf52e92165c180bde5353f7cf606fbf5591f2b81604051611c579190614153565b60405180910390a150565b606043611c6d6124f3565b65ffffffffffff1614611cdc576040517f08c379a000000000000000000000000000000000000000000000000000000000815260206004820152601860248201527f566f7465733a2062726f6b656e20636c6f636b206d6f646500000000000000006044820152606401610ca1565b5060408051808201909152601d81527f6d6f64653d626c6f636b6e756d6265722666726f6d3d64656661756c74000000602082015290565b611d1d8161312c565b7f7fc24c9500f4388b797f8975c0991ad4ffd0338c2cbf5335b2bf5b7fe5747700805473ffffffffffffffffffffffffffffffffffffffff83167fffffffffffffffffffffffff00000000000000000000000000000000000000009091168117825560408051918252517f64c14256e532eac2ec90ddc4973ed2d3f5623faf7951d90eec38f9b7812f99a79181900360200190a15050565b73ffffffffffffffffffffffffffffffffffffffff8281165f8181527f423fcc3514229d79a30fb79b40a232f70b3fabdf664a75db0859c67848497f65602052604080822080548686167fffffffffffffffffffffffff0000000000000000000000000000000000000000821681179092559151919094169392849290917f3134e8a2e6d97e929a7e54011ea5485d7d196dd5f0ba4d4ef95803e8e3fc257f9190a4610c2e8183611e6586613179565b613183565b611ea16040518060c0016040528060608152602001606081526020015f81526020015f815260200160608152602001606081525090565b73ffffffffffffffffffffffffffffffffffffffff82165f9081527f7fc24c9500f4388b797f8975c0991ad4ffd0338c2cbf5335b2bf5b7fe5747702602090815260408083207f7fc24c9500f4388b797f8975c0991ad4ffd0338c2cbf5335b2bf5b7fe574770390925291829020825160c0810190935281549192909181908490611f2b9061485b565b80601f0160208091040260200160405190810160405280929190818152602001828054611f579061485b565b8015611fa25780601f10611f7957610100808354040283529160200191611fa2565b820191905f5260205f20905b815481529060010190602001808311611f8557829003601f168201915b50505050508152602001836001018054611fbb9061485b565b80601f0160208091040260200160405190810160405280929190818152602001828054611fe79061485b565b80156120325780601f1061200957610100808354040283529160200191612032565b820191905f5260205f20905b81548152906001019060200180831161201557829003601f168201915b505050505081526020018360020154815260200183600301548152602001825f01805461205e9061485b565b80601f016020809104026020016040519081016040528092919081815260200182805461208a9061485b565b80156120d55780601f106120ac576101008083540402835291602001916120d5565b820191905f5260205f20905b8154815290600101906020018083116120b857829003601f168201915b505050505081526020018260010180546120ee9061485b565b80601f016020809104026020016040519081016040528092919081815260200182805461211a9061485b565b80156121655780601f1061213c57610100808354040283529160200191612165565b820191905f5260205f20905b81548152906001019060200180831161214857829003601f168201915b505050505081525092505050919050565b5f73ffffffffffffffffffffffffffffffffffffffff82166121c4576040517f8f4eb60400000000000000000000000000000000000000000000000000000000815260040160405180910390fd5b5073ffffffffffffffffffffffffffffffffffffffff165f9081527f6569bde4a160c636ea8b8d11acb83a60d7fec0b8f2e09389306cba0e1340df05602052604090205467ffffffffffffffff1690565b336122666103f48373ffffffffffffffffffffffffffffffffffffffff165f9081527f7fc24c9500f4388b797f8975c0991ad4ffd0338c2cbf5335b2bf5b7fe5747702602052604090206002015490565b73ffffffffffffffffffffffffffffffffffffffff1614610cb3576040517fdbfcf17d00000000000000000000000000000000000000000000000000000000815260040160405180910390fd5b6122be8460026130ef565b6122c8835f6130ef565b73ffffffffffffffffffffffffffffffffffffffff85165f9081527f7fc24c9500f4388b797f8975c0991ad4ffd0338c2cbf5335b2bf5b7fe5747702602052604090207f7fc24c9500f4388b797f8975c0991ad4ffd0338c2cbf5335b2bf5b7fe5747700908061233887826148ea565b506001810161234786826148ea565b5073ffffffffffffffffffffffffffffffffffffffff87165f90815260038301602052604090208061237986826148ea565b506001810161238885826148ea565b5060405173ffffffffffffffffffffffffffffffffffffffff8916907f66da702131703ee5e745ecf2f5b98311caa00729edd55541baad49289fc42ed8905f90a25050505050505050565b60607f3a497e775dc7c283402f0d3c39c5f0ea53870eb15ab2dddfde5a1162a84c336c610682565b60607f3a497e775dc7c283402f0d3c39c5f0ea53870eb15ab2dddfde5a1162a84c336c61111f565b5f61242c6124f3565b65ffffffffffff16821061249c576040517f08c379a000000000000000000000000000000000000000000000000000000000815260206004820152601460248201527f566f7465733a20667574757265206c6f6f6b75700000000000000000000000006044820152606401610ca1565b6124cf6124a883612fde565b7f423fcc3514229d79a30fb79b40a232f70b3fabdf664a75db0859c67848497f679061302b565b7bffffffffffffffffffffffffffffffffffffffffffffffffffffffff1692915050565b5f6107db436133e1565b73ffffffffffffffffffffffffffffffffffffffff81165f9081527f423fcc3514229d79a30fb79b40a232f70b3fabdf664a75db0859c67848497f66602052604081206124cf9061342c565b335f8181527f6569bde4a160c636ea8b8d11acb83a60d7fec0b8f2e09389306cba0e1340df076020908152604080832073ffffffffffffffffffffffffffffffffffffffff87168085529083529281902080547fffffffffffffffffffffffffffffffffffffffffffffffffffffffffffffff001686151590811790915590519081529192917f17307eab39ab6107e8899845ad3d59bd9653f200f220920489ca2b5937696c31910160405180910390a35050565b6040517f150b7a020000000000000000000000000000000000000000000000000000000081525f9073ffffffffffffffffffffffffffffffffffffffff85169063150b7a0290612658903390899088908890600401614a01565b6020604051808303815f875af19250505080156126b0575060408051601f3d9081017fffffffffffffffffffffffffffffffffffffffffffffffffffffffffffffffe01682019092526126ad91810190614a5b565b60015b612725573d8080156126dd576040519150601f19603f3d011682016040523d82523d5f602084013e6126e2565b606091505b5080515f0361271d576040517fd1a57ed600000000000000000000000000000000000000000000000000000000815260040160405180910390fd5b805181602001fd5b7fffffffff00000000000000000000000000000000000000000000000000000000167f150b7a02000000000000000000000000000000000000000000000000000000001490505b949350505050565b834211156127de576040517f08c379a000000000000000000000000000000000000000000000000000000000815260206004820152601860248201527f566f7465733a207369676e6174757265206578706972656400000000000000006044820152606401610ca1565b604080517fe48329057bfd03d55e49b547132e39cffd9c1820ad7b9d4c5307691425d15adf602082015273ffffffffffffffffffffffffffffffffffffffff88169181019190915260608101869052608081018590525f906128649061285c9060a00160405160208183030381529060405280519060200120613479565b8585856134c0565b905061287081876134ec565b61287a8188611db5565b50505050505050565b5f7f6569bde4a160c636ea8b8d11acb83a60d7fec0b8f2e09389306cba0e1340df00548210801561071b5750505f9081527f6569bde4a160c636ea8b8d11acb83a60d7fec0b8f2e09389306cba0e1340df0460205260409020547c0100000000000000000000000000000000000000000000000000000000161590565b5f8181527f7fc24c9500f4388b797f8975c0991ad4ffd0338c2cbf5335b2bf5b7fe574770160205260409020546060907f7fc24c9500f4388b797f8975c0991ad4ffd0338c2cbf5335b2bf5b7fe57477009073ffffffffffffffffffffffffffffffffffffffff168061299f576040517faf5f208f00000000000000000000000000000000000000000000000000000000815260040160405180910390fd5b73ffffffffffffffffffffffffffffffffffffffff81165f90815260028301602052604090206001810180546129d49061485b565b159050612a70578060010180546129ea9061485b565b80601f0160208091040260200160405190810160405280929190818152602001828054612a169061485b565b8015612a615780601f10612a3857610100808354040283529160200191612a61565b820191905f5260205f20905b815481529060010190602001808311612a4457829003601f168201915b50505050509350505050919050565b5f836004018054612a809061485b565b80601f0160208091040260200160405190810160405280929190818152602001828054612aac9061485b565b8015612af75780601f10612ace57610100808354040283529160200191612af7565b820191905f5260205f20905b815481529060010190602001808311612ada57829003601f168201915b505050505090505f81519050805f03612b3c576040517fcd251ac500000000000000000000000000000000000000000000000000000000815260040160405180910390fd5b816001820381518110612b5157612b51614a9a565b6020910101517fff00000000000000000000000000000000000000000000000000000000000000167f2f0000000000000000000000000000000000000000000000000000000000000014612beb5781612bbf8573ffffffffffffffffffffffffffffffffffffffff16613590565b604051602001612bd0929190614ade565b60405160208183030381529060405295505050505050919050565b81612c0b8573ffffffffffffffffffffffffffffffffffffffff16613590565b604051602001612bd0929190614b19565b612c457f80ac58cd00000000000000000000000000000000000000000000000000000000613670565b612c6e7f5b5e139f00000000000000000000000000000000000000000000000000000000613670565b61078b82826137c5565b60607f7fc24c9500f4388b797f8975c0991ad4ffd0338c2cbf5335b2bf5b7fe574770060040180546106909061485b565b7f59b501c3653afc186af7d48dda36cf6732bd21629a6295693664240a6ef5200054640100000000900460ff16612d0c576040517f77a399b800000000000000000000000000000000000000000000000000000000815260040160405180910390fd5b61078b8282613828565b5f612d2083610d92565b90508115612dcd573373ffffffffffffffffffffffffffffffffffffffff821614612dcd5773ffffffffffffffffffffffffffffffffffffffff81165f9081527f6569bde4a160c636ea8b8d11acb83a60d7fec0b8f2e09389306cba0e1340df076020908152604080832033845290915290205460ff16612dcd576040517fcfb3b94200000000000000000000000000000000000000000000000000000000815260040160405180910390fd5b5f8381527f6569bde4a160c636ea8b8d11acb83a60d7fec0b8f2e09389306cba0e1340df06602052604080822080547fffffffffffffffffffffffff00000000000000000000000000000000000000001673ffffffffffffffffffffffffffffffffffffffff88811691821790925591518693918516917f8c5be1e5ebec7d5bd14f71427d1e84f3dd0314c0f7b2291e5b200ac8c7c3b92591a450505050565b73ffffffffffffffffffffffffffffffffffffffff8316612ec057612ebd7f423fcc3514229d79a30fb79b40a232f70b3fabdf664a75db0859c67848497f676138cb612eb8846138d6565b613937565b50505b73ffffffffffffffffffffffffffffffffffffffff8216612f0e57612f0b7f423fcc3514229d79a30fb79b40a232f70b3fabdf664a75db0859c67848497f6761397f612eb8846138d6565b50505b73ffffffffffffffffffffffffffffffffffffffff8381165f9081527f423fcc3514229d79a30fb79b40a232f70b3fabdf664a75db0859c67848497f656020526040808220548584168352912054610c2e92918216911683613183565b5f7f8b73c3c69bb8fe3d512ecc4cf759cc79239f7b179b0ffacaa9a75d522b39400f612f9561398a565b612f9d613a01565b60408051602081019490945283019190915260608201524660808201523060a082015260c00160405160208183030381529060405280519060200120905090565b5f63ffffffff821115613027576040517f6dfcc6500000000000000000000000000000000000000000000000000000000081526020600482015260248101839052604401610ca1565b5090565b81545f9081816005811115613085575f61304484613a50565b61304e9085614b5a565b5f8881526020902090915081015463ffffffff908116908716101561307557809150613083565b613080816001614b6d565b92505b505b5f61309287878585613bb5565b905080156130e2576130b6876130a9600184614b5a565b5f91825260209091200190565b5464010000000090047bffffffffffffffffffffffffffffffffffffffffffffffffffffffff166130e4565b5f5b979650505050505050565b81518290821115610c2e576040517f74eb20a700000000000000000000000000000000000000000000000000000000815260040160405180910390fd5b73ffffffffffffffffffffffffffffffffffffffff8116610cb3576040517f2e47d15000000000000000000000000000000000000000000000000000000000815260040160405180910390fd5b5f61071b82610e24565b8173ffffffffffffffffffffffffffffffffffffffff168373ffffffffffffffffffffffffffffffffffffffff16141580156131be57505f81115b15610c2e5773ffffffffffffffffffffffffffffffffffffffff8316156132d05773ffffffffffffffffffffffffffffffffffffffff83165f9081527f423fcc3514229d79a30fb79b40a232f70b3fabdf664a75db0859c67848497f666020526040812081906132349061397f612eb8866138d6565b7bffffffffffffffffffffffffffffffffffffffffffffffffffffffff1691507bffffffffffffffffffffffffffffffffffffffffffffffffffffffff1691508473ffffffffffffffffffffffffffffffffffffffff167fdec2bacdd2f05b59de34da9b523dff8be42e5e38e818c82fdb0bae774387a72483836040516132c5929190918252602082015260400190565b60405180910390a250505b73ffffffffffffffffffffffffffffffffffffffff821615610c2e5773ffffffffffffffffffffffffffffffffffffffff82165f9081527f423fcc3514229d79a30fb79b40a232f70b3fabdf664a75db0859c67848497f66602052604081208190613341906138cb612eb8866138d6565b7bffffffffffffffffffffffffffffffffffffffffffffffffffffffff1691507bffffffffffffffffffffffffffffffffffffffffffffffffffffffff1691508373ffffffffffffffffffffffffffffffffffffffff167fdec2bacdd2f05b59de34da9b523dff8be42e5e38e818c82fdb0bae774387a72483836040516133d2929190918252602082015260400190565b60405180910390a25050505050565b5f65ffffffffffff821115613027576040517f6dfcc6500000000000000000000000000000000000000000000000000000000081526030600482015260248101839052604401610ca1565b80545f90801561347157613445836130a9600184614b5a565b5464010000000090047bffffffffffffffffffffffffffffffffffffffffffffffffffffffff16610b50565b5f9392505050565b5f61071b613485611795565b836040517f19010000000000000000000000000000000000000000000000000000000000008152600281019290925260228201526042902090565b5f5f5f5f6134d088888888613c10565b9250925092506134e08282613d03565b50909695505050505050565b73ffffffffffffffffffffffffffffffffffffffff82165f9081527fda5d6d87446d81938877f0ee239dac391146dd7466ea30567f72becf06773c0060205260409020805460018101909155818114610c2e576040517f752d88c000000000000000000000000000000000000000000000000000000000815273ffffffffffffffffffffffffffffffffffffffff8416600482015260248101829052604401610ca1565b606061359b82613e06565b6028602282019081209192507f4040404040404040404040404040404040404040404040404040404040404040917f8888888888888888888888888888888888888888888888888888888888888880167e880000000000000000000000000000000000000000000000000000000000005f5b82811a82028180015260018101907fffffffffffffffffffffffffffffffffffffffffffffffffffffffffffffffed0161360d57505050818151165f511660011c8151188152602081019050818151166020511660011c81511881525050919050565b7fffffffff0000000000000000000000000000000000000000000000000000000081165f9081527f81088bbc801e045ea3e7620779ab349988f58afbdfba10dff983df3f33522b00602052604090205460ff16613744577fffffffff0000000000000000000000000000000000000000000000000000000081165f9081527f81088bbc801e045ea3e7620779ab349988f58afbdfba10dff983df3f33522b006020526040902080547fffffffffffffffffffffffffffffffffffffffffffffffffffffffffffffff00166001179055613776565b6040517ff2cfeefa00000000000000000000000000000000000000000000000000000000815260040160405180910390fd5b6040517fffffffff000000000000000000000000000000000000000000000000000000008216907f78f84e5b1c5c05be2b5ad3800781dd404d6d6c6302bc755c0fe20f58a33a7f22905f90a250565b7f6569bde4a160c636ea8b8d11acb83a60d7fec0b8f2e09389306cba0e1340df007f6569bde4a160c636ea8b8d11acb83a60d7fec0b8f2e09389306cba0e1340df0261381184826148ea565b506003810161382083826148ea565b505f90555050565b7f3a497e775dc7c283402f0d3c39c5f0ea53870eb15ab2dddfde5a1162a84c336e61385383826148ea565b507f3a497e775dc7c283402f0d3c39c5f0ea53870eb15ab2dddfde5a1162a84c336f61387f82826148ea565b50505f7f3a497e775dc7c283402f0d3c39c5f0ea53870eb15ab2dddfde5a1162a84c336c8190557f3a497e775dc7c283402f0d3c39c5f0ea53870eb15ab2dddfde5a1162a84c336d5550565b5f610b508284614b80565b5f7bffffffffffffffffffffffffffffffffffffffffffffffffffffffff821115613027576040517f6dfcc65000000000000000000000000000000000000000000000000000000000815260e0600482015260248101839052604401610ca1565b5f5f6139726139546139476124f3565b65ffffffffffff16612fde565b61396a6139608861342c565b868863ffffffff16565b879190613e48565b915091505b935093915050565b5f610b508284614bb4565b5f5f6139946123d3565b8051909150156139ab578051602090910120919050565b7f3a497e775dc7c283402f0d3c39c5f0ea53870eb15ab2dddfde5a1162a84c336c5480156139d95792915050565b7fc5d2460186f7233c927e7db2dcc703c0e500b653ca82273b7bfad8045d85a4709250505090565b5f5f613a0b6123fb565b805190915015613a22578051602090910120919050565b7f3a497e775dc7c283402f0d3c39c5f0ea53870eb15ab2dddfde5a1162a84c336d5480156139d95792915050565b5f60018211613a5d575090565b8160017001000000000000000000000000000000008210613a835760809190911c9060401b5b680100000000000000008210613a9e5760409190911c9060201b5b6401000000008210613ab55760209190911c9060101b5b620100008210613aca5760109190911c9060081b5b6101008210613ade5760089190911c9060041b5b60108210613af15760049190911c9060021b5b60048210613afd5760011b5b600302600190811c90818581613b1557613b15614be8565b048201901c90506001818581613b2d57613b2d614be8565b048201901c90506001818581613b4557613b45614be8565b048201901c90506001818581613b5d57613b5d614be8565b048201901c90506001818581613b7557613b75614be8565b048201901c90506001818581613b8d57613b8d614be8565b048201901c9050613bac818581613ba657613ba6614be8565b04821190565b90039392505050565b5f5b81831015613c08575f613bca8484613e55565b5f8781526020902090915063ffffffff86169082015463ffffffff161115613bf457809250613c02565b613bff816001614b6d565b93505b50613bb7565b509392505050565b5f80807f7fffffffffffffffffffffffffffffff5d576e7357a4501ddfe92f46681b20a0841115613c4957505f91506003905082613cf9565b604080515f808252602082018084528a905260ff891692820192909252606081018790526080810186905260019060a0016020604051602081039080840390855afa158015613c9a573d5f5f3e3d5ffd5b50506040517fffffffffffffffffffffffffffffffffffffffffffffffffffffffffffffffe0015191505073ffffffffffffffffffffffffffffffffffffffff8116613cf057505f925060019150829050613cf9565b92505f91508190505b9450945094915050565b5f826003811115613d1657613d16614c15565b03613d1f575050565b6001826003811115613d3357613d33614c15565b03613d6a576040517ff645eedf00000000000000000000000000000000000000000000000000000000815260040160405180910390fd5b6002826003811115613d7e57613d7e614c15565b03613db8576040517ffce698f700000000000000000000000000000000000000000000000000000000815260048101829052602401610ca1565b6003826003811115613dcc57613dcc614c15565b0361078b576040517fd78bce0c00000000000000000000000000000000000000000000000000000000815260048101829052602401610ca1565b6060613e1182613e6f565b805161307882526002017ffffffffffffffffffffffffffffffffffffffffffffffffffffffffffffffffe90910190815292915050565b5f80613972858585613efa565b5f613e636002848418614c42565b610b5090848416614b6d565b60606040519050608081016040526f30313233343536373839616263646566600f5260028101905060288152602081015f60288201528260601b92505f5b808101820184821a600f81165160018301538060041c518253505060018101907fffffffffffffffffffffffffffffffffffffffffffffffffffffffffffffffed01613ead575050919050565b82545f9081908015614099575f613f16876130a9600185614b5a565b60408051808201909152905463ffffffff8082168084526401000000009092047bffffffffffffffffffffffffffffffffffffffffffffffffffffffff1660208401529192509087161015613fc7576040517f08c379a000000000000000000000000000000000000000000000000000000000815260206004820152601b60248201527f436865636b706f696e743a2064656372656173696e67206b65797300000000006044820152606401610ca1565b805163ffffffff8088169116036140255784613fe8886130a9600186614b5a565b80547bffffffffffffffffffffffffffffffffffffffffffffffffffffffff929092166401000000000263ffffffff909216919091179055614089565b6040805180820190915263ffffffff80881682527bffffffffffffffffffffffffffffffffffffffffffffffffffffffff80881660208085019182528b54600181018d555f8d81529190912094519151909216640100000000029216919091179101555b6020015192508391506139779050565b50506040805180820190915263ffffffff80851682527bffffffffffffffffffffffffffffffffffffffffffffffffffffffff80851660208085019182528854600181018a555f8a815291822095519251909316640100000000029190931617920191909155905081613977565b5f81518084528060208401602086015e5f6020828601015260207fffffffffffffffffffffffffffffffffffffffffffffffffffffffffffffffe0601f83011685010191505092915050565b602081525f610b506020830184614107565b5f60208284031215614175575f5ffd5b5035919050565b803573ffffffffffffffffffffffffffffffffffffffff8116811461419f575f5ffd5b919050565b5f5f604083850312156141b5575f5ffd5b6141be8361417c565b946020939093013593505050565b5f5f5f606084860312156141de575f5ffd5b6141e78461417c565b92506141f56020850161417c565b929592945050506040919091013590565b7f4e487b71000000000000000000000000000000000000000000000000000000005f52604160045260245ffd5b5f5f67ffffffffffffffff84111561424d5761424d614206565b506040517fffffffffffffffffffffffffffffffffffffffffffffffffffffffffffffffe0601f85018116603f0116810181811067ffffffffffffffff8211171561429a5761429a614206565b6040528381529050808284018510156142b1575f5ffd5b838360208301375f60208583010152509392505050565b5f82601f8301126142d7575f5ffd5b610b5083833560208501614233565b5f5f5f5f5f60a086880312156142fa575f5ffd5b853567ffffffffffffffff811115614310575f5ffd5b61431c888289016142c8565b955050602086013567ffffffffffffffff811115614338575f5ffd5b614344888289016142c8565b9450506143536040870161417c565b9250606086013567ffffffffffffffff81111561436e575f5ffd5b61437a888289016142c8565b925050608086013567ffffffffffffffff811115614396575f5ffd5b6143a2888289016142c8565b9150509295509295909350565b5f602082840312156143bf575f5ffd5b813567ffffffffffffffff8111156143d5575f5ffd5b61276c848285016142c8565b5f602082840312156143f1575f5ffd5b610b508261417c565b602081525f825160c0602084015261441560e0840182614107565b905060208401517fffffffffffffffffffffffffffffffffffffffffffffffffffffffffffffffe08483030160408501526144508282614107565b915050604084015160608401526060840151608084015260808401517fffffffffffffffffffffffffffffffffffffffffffffffffffffffffffffffe08483030160a08501526144a08282614107565b91505060a08401517fffffffffffffffffffffffffffffffffffffffffffffffffffffffffffffffe08483030160c08501526144dc8282614107565b95945050505050565b5f5f5f5f5f60a086880312156144f9575f5ffd5b6145028661417c565b9450602086013567ffffffffffffffff81111561451d575f5ffd5b614529888289016142c8565b945050604086013567ffffffffffffffff811115614545575f5ffd5b614551888289016142c8565b935050606086013567ffffffffffffffff81111561436e575f5ffd5b7fff000000000000000000000000000000000000000000000000000000000000008816815260e060208201525f6145a760e0830189614107565b82810360408401526145b98189614107565b6060840188905273ffffffffffffffffffffffffffffffffffffffff8716608085015260a0840186905283810360c0850152845180825260208087019350909101905f5b8181101561461b5783518352602093840193909201916001016145fd565b50909b9a5050505050505050505050565b5f5f6040838503121561463d575f5ffd5b6146468361417c565b91506020830135801515811461465a575f5ffd5b809150509250929050565b5f5f5f5f60808587031215614678575f5ffd5b6146818561417c565b935061468f6020860161417c565b925060408501359150606085013567ffffffffffffffff8111156146b1575f5ffd5b8501601f810187136146c1575f5ffd5b6146d087823560208401614233565b91505092959194509250565b5f5f5f5f5f5f60c087890312156146f1575f5ffd5b6146fa8761417c565b95506020870135945060408701359350606087013560ff8116811461471d575f5ffd5b9598949750929560808101359460a0909101359350915050565b5f5f60408385031215614748575f5ffd5b823567ffffffffffffffff81111561475e575f5ffd5b61476a858286016142c8565b925050602083013567ffffffffffffffff811115614786575f5ffd5b614792858286016142c8565b9150509250929050565b5f5f5f606084860312156147ae575f5ffd5b833567ffffffffffffffff8111156147c4575f5ffd5b6147d0868287016142c8565b935050602084013567ffffffffffffffff8111156147ec575f5ffd5b6147f8868287016142c8565b925050604084013567ffffffffffffffff811115614814575f5ffd5b614820868287016142c8565b9150509250925092565b5f5f6040838503121561483b575f5ffd5b6148448361417c565b91506148526020840161417c565b90509250929050565b600181811c9082168061486f57607f821691505b6020821081036116ec577f4e487b71000000000000000000000000000000000000000000000000000000005f52602260045260245ffd5b601f821115610c2e57805f5260205f20601f840160051c810160208510156148cb5750805b601f840160051c820191505b81811015611424575f81556001016148d7565b815167ffffffffffffffff81111561490457614904614206565b61491881614912845461485b565b846148a6565b6020601f821160018114614969575f83156149335750848201515b7fffffffffffffffffffffffffffffffffffffffffffffffffffffffffffffffff600385901b1c1916600184901b178455611424565b5f848152602081207fffffffffffffffffffffffffffffffffffffffffffffffffffffffffffffffe08516915b828110156149b65787850151825560209485019460019092019101614996565b50848210156149f257868401517fffffffffffffffffffffffffffffffffffffffffffffffffffffffffffffffff600387901b60f8161c191681555b50505050600190811b01905550565b73ffffffffffffffffffffffffffffffffffffffff8516815273ffffffffffffffffffffffffffffffffffffffff84166020820152826040820152608060608201525f614a516080830184614107565b9695505050505050565b5f60208284031215614a6b575f5ffd5b81517fffffffff0000000000000000000000000000000000000000000000000000000081168114610b50575f5ffd5b7f4e487b71000000000000000000000000000000000000000000000000000000005f52603260045260245ffd5b5f81518060208401855e5f93019283525090919050565b5f614ae98285614ac7565b7f2f0000000000000000000000000000000000000000000000000000000000000081526144dc6001820185614ac7565b5f61276c614b278386614ac7565b84614ac7565b7f4e487b71000000000000000000000000000000000000000000000000000000005f52601160045260245ffd5b8181038181111561071b5761071b614b2d565b8082018082111561071b5761071b614b2d565b7bffffffffffffffffffffffffffffffffffffffffffffffffffffffff818116838216019081111561071b5761071b614b2d565b7bffffffffffffffffffffffffffffffffffffffffffffffffffffffff828116828216039081111561071b5761071b614b2d565b7f4e487b71000000000000000000000000000000000000000000000000000000005f52601260045260245ffd5b7f4e487b71000000000000000000000000000000000000000000000000000000005f52602160045260245ffd5b5f82614c75577f4e487b71000000000000000000000000000000000000000000000000000000005f52601260045260245ffd5b50049056","linkReferences":{}},"methodIdentifiers":{"CLOCK_MODE()":"4bf5d7e9","DOMAIN_SEPARATOR()":"3644e515","__ERC721A_init(string,string)":"d2f01f19","__SpaceOwner_init(string,string,string)":"d7a901d3","approve(address,uint256)":"095ea7b3","balanceOf(address)":"70a08231","clock()":"91ddadf4","delegate(address)":"5c19a95c","delegateBySig(address,uint256,uint256,uint8,bytes32,bytes32)":"c3cda520","delegates(address)":"587cde1e","eip712Domain()":"84b0196e","getApproved(uint256)":"081812fc","getDefaultUri()":"d6536540","getFactory()":"88cc58e4","getPastTotalSupply(uint256)":"8e539e8c","getPastVotes(address,uint256)":"3a46b1a8","getSpaceByTokenId(uint256)":"673f0dd5","getSpaceInfo(address)":"6a9a38e6","getVotes(address)":"9ab24eb0","isApprovedForAll(address,address)":"e985e9c5","mintSpace(string,string,address,string,string)":"3bf5b8f4","name()":"06fdde03","nextTokenId()":"75794a3c","nonces(address)":"7ecebe00","ownerOf(uint256)":"6352211e","safeTransferFrom(address,address,uint256)":"42842e0e","safeTransferFrom(address,address,uint256,bytes)":"b88d4fde","setApprovalForAll(address,bool)":"a22cb465","setDefaultUri(string)":"466a18de","setFactory(address)":"5bb47808","symbol()":"95d89b41","tokenURI(uint256)":"c87b56dd","totalSupply()":"18160ddd","transferFrom(address,address,uint256)":"23b872dd","updateSpaceInfo(address,string,string,string,string)":"84880614"},"id":272}