{"abi":[{"type":"function","name":"addStream","inputs":[{"name":"streamId","type":"bytes32","internalType":"bytes32"},{"name":"genesisMiniblockHash","type":"bytes32","internalType":"bytes32"},{"name":"stream","type":"tuple","internalType":"struct Stream","components":[{"name":"lastMiniblockHash","type":"bytes32","internalType":"bytes32"},{"name":"lastMiniblockNum","type":"uint64","internalType":"uint64"},{"name":"reserved0","type":"uint64","internalType":"uint64"},{"name":"flags","type":"uint64","internalType":"uint64"},{"name":"nodes","type":"address[]","internalType":"address[]"}]}],"outputs":[],"stateMutability":"nonpayable"},{"type":"function","name":"allocateStream","inputs":[{"name":"streamId","type":"bytes32","internalType":"bytes32"},{"name":"nodes","type":"address[]","internalType":"address[]"},{"name":"genesisMiniblockHash","type":"bytes32","internalType":"bytes32"},{"name":"genesisMiniblock","type":"bytes","internalType":"bytes"}],"outputs":[],"stateMutability":"nonpayable"},{"type":"function","name":"getPaginatedStreams","inputs":[{"name":"start","type":"uint256","internalType":"uint256"},{"name":"stop","type":"uint256","internalType":"uint256"}],"outputs":[{"name":"","type":"tuple[]","internalType":"struct StreamWithId[]","components":[{"name":"id","type":"bytes32","internalType":"bytes32"},{"name":"stream","type":"tuple","internalType":"struct Stream","components":[{"name":"lastMiniblockHash","type":"bytes32","internalType":"bytes32"},{"name":"lastMiniblockNum","type":"uint64","internalType":"uint64"},{"name":"reserved0","type":"uint64","internalType":"uint64"},{"name":"flags","type":"uint64","internalType":"uint64"},{"name":"nodes","type":"address[]","internalType":"address[]"}]}]},{"name":"","type":"bool","internalType":"bool"}],"stateMutability":"view"},{"type":"function","name":"getStream","inputs":[{"name":"streamId","type":"bytes32","internalType":"bytes32"}],"outputs":[{"name":"stream","type":"tuple","internalType":"struct Stream","components":[{"name":"lastMiniblockHash","type":"bytes32","internalType":"bytes32"},{"name":"lastMiniblockNum","type":"uint64","internalType":"uint64"},{"name":"reserved0","type":"uint64","internalType":"uint64"},{"name":"flags","type":"uint64","internalType":"uint64"},{"name":"nodes","type":"address[]","internalType":"address[]"}]}],"stateMutability":"view"},{"type":"function","name":"getStreamCount","inputs":[],"outputs":[{"name":"","type":"uint256","internalType":"uint256"}],"stateMutability":"view"},{"type":"function","name":"getStreamCountOnNode","inputs":[{"name":"nodeAddress","type":"address","internalType":"address"}],"outputs":[{"name":"count","type":"uint256","internalType":"uint256"}],"stateMutability":"view"},{"type":"function","name":"getStreamWithGenesis","inputs":[{"name":"streamId","type":"bytes32","internalType":"bytes32"}],"outputs":[{"name":"stream","type":"tuple","internalType":"struct Stream","components":[{"name":"lastMiniblockHash","type":"bytes32","internalType":"bytes32"},{"name":"lastMiniblockNum","type":"uint64","internalType":"uint64"},{"name":"reserved0","type":"uint64","internalType":"uint64"},{"name":"flags","type":"uint64","internalType":"uint64"},{"name":"nodes","type":"address[]","internalType":"address[]"}]},{"name":"","type":"bytes32","internalType":"bytes32"},{"name":"","type":"bytes","internalType":"bytes"}],"stateMutability":"view"},{"type":"function","name":"isStream","inputs":[{"name":"streamId","type":"bytes32","internalType":"bytes32"}],"outputs":[{"name":"","type":"bool","internalType":"bool"}],"stateMutability":"view"},{"type":"function","name":"placeStreamOnNode","inputs":[{"name":"streamId","type":"bytes32","internalType":"bytes32"},{"name":"nodeAddress","type":"address","internalType":"address"}],"outputs":[],"stateMutability":"nonpayable"},{"type":"function","name":"removeStreamFromNode","inputs":[{"name":"streamId","type":"bytes32","internalType":"bytes32"},{"name":"nodeAddress","type":"address","internalType":"address"}],"outputs":[],"stateMutability":"nonpayable"},{"type":"function","name":"setStreamLastMiniblock","inputs":[{"name":"streamId","type":"bytes32","internalType":"bytes32"},{"name":"","type":"bytes32","internalType":"bytes32"},{"name":"lastMiniblockHash","type":"bytes32","internalType":"bytes32"},{"name":"lastMiniblockNum","type":"uint64","internalType":"uint64"},{"name":"isSealed","type":"bool","internalType":"bool"}],"outputs":[],"stateMutability":"nonpayable"},{"type":"function","name":"setStreamLastMiniblockBatch","inputs":[{"name":"miniblocks","type":"tuple[]","internalType":"struct SetMiniblock[]","components":[{"name":"streamId","type":"bytes32","internalType":"bytes32"},{"name":"prevMiniBlockHash","type":"bytes32","internalType":"bytes32"},{"name":"lastMiniblockHash","type":"bytes32","internalType":"bytes32"},{"name":"lastMiniblockNum","type":"uint64","internalType":"uint64"},{"name":"isSealed","type":"bool","internalType":"bool"}]}],"outputs":[],"stateMutability":"nonpayable"},{"type":"event","name":"StreamAllocated","inputs":[{"name":"streamId","type":"bytes32","indexed":false,"internalType":"bytes32"},{"name":"nodes","type":"address[]","indexed":false,"internalType":"address[]"},{"name":"genesisMiniblockHash","type":"bytes32","indexed":false,"internalType":"bytes32"},{"name":"genesisMiniblock","type":"bytes","indexed":false,"internalType":"bytes"}],"anonymous":false},{"type":"event","name":"StreamCreated","inputs":[{"name":"streamId","type":"bytes32","indexed":false,"internalType":"bytes32"},{"name":"genesisMiniblockHash","type":"bytes32","indexed":false,"internalType":"bytes32"},{"name":"stream","type":"tuple","indexed":false,"internalType":"struct Stream","components":[{"name":"lastMiniblockHash","type":"bytes32","internalType":"bytes32"},{"name":"lastMiniblockNum","type":"uint64","internalType":"uint64"},{"name":"reserved0","type":"uint64","internalType":"uint64"},{"name":"flags","type":"uint64","internalType":"uint64"},{"name":"nodes","type":"address[]","internalType":"address[]"}]}],"anonymous":false},{"type":"event","name":"StreamLastMiniblockUpdateFailed","inputs":[{"name":"streamId","type":"bytes32","indexed":false,"internalType":"bytes32"},{"name":"lastMiniblockHash","type":"bytes32","indexed":false,"internalType":"bytes32"},{"name":"lastMiniblockNum","type":"uint64","indexed":false,"internalType":"uint64"},{"name":"reason","type":"string","indexed":false,"internalType":"string"}],"anonymous":false},{"type":"event","name":"StreamLastMiniblockUpdated","inputs":[{"name":"streamId","type":"bytes32","indexed":false,"internalType":"bytes32"},{"name":"lastMiniblockHash","type":"bytes32","indexed":false,"internalType":"bytes32"},{"name":"lastMiniblockNum","type":"uint64","indexed":false,"internalType":"uint64"},{"name":"isSealed","type":"bool","indexed":false,"internalType":"bool"}],"anonymous":false},{"type":"event","name":"StreamPlacementUpdated","inputs":[{"name":"streamId","type":"bytes32","indexed":false,"internalType":"bytes32"},{"name":"nodeAddress","type":"address","indexed":false,"internalType":"address"},{"name":"isAdded","type":"bool","indexed":false,"internalType":"bool"}],"anonymous":false}],"bytecode":{"object":"0x608060405234801561001057600080fd5b50611ed9806100206000396000f3fe608060405234801561001057600080fd5b50600436106100b45760003560e01c8063c87d132411610071578063c87d132414610155578063ca78c41a14610168578063d0c27c4f14610189578063d7a3158a146101ac578063ee885b12146101bf578063ff3a14ab146101d257600080fd5b80631290abe8146100b95780633c2544d1146100e25780636b883c39146101045780639ee86d3814610119578063b2e76b8e1461012c578063c0f220841461013f575b600080fd5b6100cc6100c73660046114f8565b6101e5565b6040516100d991906115a2565b60405180910390f35b6100f56100f03660046114f8565b6102c9565b6040516100d9939291906115fb565b610117610112366004611671565b61045b565b005b610117610127366004611739565b61058c565b61011761013a366004611769565b61070b565b6101476107f5565b6040519081526020016100d9565b6101476101633660046117bf565b610805565b61017b6101763660046117dc565b6108ae565b6040516100d99291906117fe565b61019c6101973660046114f8565b610a9f565b60405190151581526020016100d9565b6101176101ba3660046118a7565b610ab1565b6101176101cd366004611739565b610c46565b6101176101e03660046118f9565b610e56565b60408051600080825260208201819052818301819052606080830191909152608082015290819052610216826111b6565b600082815260026020818152604092839020835160a0810185528154815260018201546001600160401b0380821683860152600160401b8204811683880152600160801b90910416606082015292810180548551818502810185019096528086529394919360808601938301828280156102b957602002820191906000526020600020905b81546001600160a01b0316815260019091019060200180831161029b575b5050505050815250509050919050565b604080516000808252602082018190528183018190526060808301829052608083018190529282905290916102fd846111b6565b600084815260026020818152604080842060048352818520546003845294829020825160a0810184528254815260018301546001600160401b0380821683880152600160401b8204811683870152600160801b909104166060820152948201805484518187028101870190955280855292969591949193879360808601939192918301828280156103b757602002820191906000526020600020905b81546001600160a01b03168152600190910190602001808311610399575b50505050508152505092508080546103ce9061196d565b80601f01602080910402602001604051908101604052809291908181526020018280546103fa9061196d565b80156104475780601f1061041c57610100808354040283529160200191610447565b820191906000526020600020905b81548152906001019060200180831161042a57829003601f168201915b505050505090509250925092509193909250565b336000818152600760205260409020600201546001600160a01b03166104c057604080518082018252600e81526d1393d11157d393d517d193d5539160921b6020820152905162461bcd60e51b81526104b791906004016119a7565b60405180910390fd5b866104ca816111ff565b86866104d6828261124b565b60008a815260026020819052604082209189918c918c918591906104fd9083018585611400565b50509290925550610511905060008c6112d7565b5060008b815260036020526040902061052b878983611a27565b5060008b81526004602052604090819020899055517f55ef7efc60ef99743e54209752c9a8e047e013917ec91572db75875069dd65bb90610577908d908d908d908d908d908d90611b2f565b60405180910390a15050505050505050505050565b81610596816111b6565b336000818152600760205260409020600201546001600160a01b03166105f257604080518082018252600e81526d1393d11157d393d517d193d5539160921b6020820152905162461bcd60e51b81526104b791906004016119a7565b60008481526002602081905260408220908101805491929091905b8181101561068f57866001600160a01b031683828154811061063157610631611b85565b6000918252602090912001546001600160a01b03160361068757604080518082018252600e81526d414c52454144595f45584953545360901b6020820152905162461bcd60e51b81526104b791906004016119a7565b60010161060d565b50815460018082018455600084815260209081902090920180546001600160a01b0319166001600160a01b038a16908117909155604080518b8152938401919091528201527faaa473c28a5fe04b6a7ecd795826e462f9d0c23f00ef9f51ec02fa6ea418806f906060015b60405180910390a150505050505050565b336000818152600760205260409020600201546001600160a01b031661076757604080518082018252600e81526d1393d11157d393d517d193d5539160921b6020820152905162461bcd60e51b81526104b791906004016119a7565b83610771816111ff565b61077e6080840184611b9b565b610788828261124b565b6107936000886112d7565b50600087815260026020526040902085906107ae8282611c86565b505060008781526004602052604090819020879055517fac1b69e6e0382c43def3cccabf63091ba47b5d8b10a705d16a1076668643fe4d906106fa90899089908990611d55565b6000610800816112ea565b905090565b600080610811816112ea565b905060005b818110156108a757600061082a81836112f4565b60008181526002602052604081209192505b600282015481101561089957866001600160a01b031682600201828154811061086757610867611b85565b6000918252602090912001546001600160a01b0316036108915761088a86611e1e565b9550610899565b60010161083c565b505050806001019050610816565b5050919050565b606060008284106108ee5760408051808201825260078152664241445f41524760c81b6020820152905162461bcd60e51b81526104b791906004016119a7565b60006108f9816112ea565b9050600081851161090a578461090c565b815b9050600086821161091e576000610928565b6109288783611e37565b90506000816001600160401b03811115610944576109446119ba565b60405190808252806020026020018201604052801561097d57816020015b61096a611463565b8152602001906001900390816109625790505b50905060005b82811015610a8d5760006109a261099a838c611e4a565b6000906112f4565b60408051808201825282815260008381526002602081815291849020845160a0810186528154815260018201546001600160401b0380821683870152600160401b8204811683890152600160801b9091041660608201529181018054865181860281018601909752808752969750939583870195929491936080860193929190830182828015610a5b57602002820191906000526020600020905b81546001600160a01b03168152600190910190602001808311610a3d575b505050505081525050815250838381518110610a7957610a79611b85565b602090810291909101015250600101610983565b509450505083101590505b9250929050565b6000610aab8183611300565b92915050565b336000818152600760205260409020600201546001600160a01b0316610b0d57604080518082018252600e81526d1393d11157d393d517d193d5539160921b6020820152905162461bcd60e51b81526104b791906004016119a7565b85610b17816111b6565b6000878152600260205260409020600180820154600160801b90041615610b7357604080518082018252600d81526c14d51491505357d4d150531151609a1b6020820152905162461bcd60e51b81526104b791906004016119a7565b60018101546001600160401b03808716911610610bbf5760408051808201825260078152664241445f41524760c81b6020820152905162461bcd60e51b81526104b791906004016119a7565b6000888152600360205260408120610bd6916114ad565b85815560018101805467ffffffffffffffff19166001600160401b0387161790558315610c30576001818101805467ffffffffffffffff60801b198116600160801b918290046001600160401b0316909317029190911790555b610c3c88878787611318565b5050505050505050565b81610c50816111b6565b336000818152600760205260409020600201546001600160a01b0316610cac57604080518082018252600e81526d1393d11157d393d517d193d5539160921b6020820152905162461bcd60e51b81526104b791906004016119a7565b60008481526002602081905260408220908101805491929091815b81811015610dc257876001600160a01b0316848281548110610ceb57610ceb611b85565b6000918252602090912001546001600160a01b031603610dba5783610d11600184611e37565b81548110610d2157610d21611b85565b9060005260206000200160009054906101000a90046001600160a01b0316848281548110610d5157610d51611b85565b9060005260206000200160006101000a8154816001600160a01b0302191690836001600160a01b0316021790555083805480610d8f57610d8f611e5d565b600082815260209020810160001990810180546001600160a01b031916905501905560019250610dc2565b600101610cc7565b5081610e0457604080518082018252600e81526d1393d11157d393d517d193d5539160921b6020820152905162461bcd60e51b81526104b791906004016119a7565b604080518981526001600160a01b038916602082015260008183015290517faaa473c28a5fe04b6a7ecd795826e462f9d0c23f00ef9f51ec02fa6ea418806f9181900360600190a15050505050505050565b336000818152600760205260409020600201546001600160a01b0316610eb257604080518082018252600e81526d1393d11157d393d517d193d5539160921b6020820152905162461bcd60e51b81526104b791906004016119a7565b816000819003610ef15760408051808201825260078152664241445f41524760c81b6020820152905162461bcd60e51b81526104b791906004016119a7565b60005b818110156111af5736858583818110610f0f57610f0f611b85565b60a002919091019150610f26905060008235611300565b610f9e577f75460fe319331413a18a82d99b07735cec53fa0c4061ada38c2141e331082afa81356040830135610f626080850160608601611e73565b60408051808201825260098152681393d517d193d5539160ba1b60208201529051610f909493929190611e90565b60405180910390a1506111a7565b80356000908152600260205260409020600180820154600160801b9004161561103a577f75460fe319331413a18a82d99b07735cec53fa0c4061ada38c2141e331082afa82356040840135610ff96080860160608701611e73565b604080518082018252600d81526c14d51491505357d4d150531151609a1b6020820152905161102b9493929190611e90565b60405180910390a150506111a7565b61104a6080830160608401611e73565b60018201546001600160401b039182169116106110c5577f75460fe319331413a18a82d99b07735cec53fa0c4061ada38c2141e331082afa823560408401356110996080860160608701611e73565b60408051808201825260078152664241445f41524760c81b6020820152905161102b9493929190611e90565b60018101546001600160401b03166000036110f357813560009081526003602052604081206110f3916114ad565b6040820135815561110a6080830160608401611e73565b60018201805467ffffffffffffffff19166001600160401b039290921691909117905561113d60a0830160808401611ebe565b15611175576001818101805467ffffffffffffffff60801b198116600160801b918290046001600160401b0316909317029190911790555b6111a48235604084013561118f6080860160608701611e73565b61119f60a0870160808801611ebe565b611318565b50505b600101610ef4565b5050505050565b6111c1600082611300565b6111fc5760408051808201825260098152681393d517d193d5539160ba1b6020820152905162461bcd60e51b81526104b791906004016119a7565b50565b61120a600082611300565b156111fc57604080518082018252600e81526d414c52454144595f45584953545360901b6020820152905162461bcd60e51b81526104b791906004016119a7565b8060005b818110156112d15761128984848381811061126c5761126c611b85565b905060200201602081019061128191906117bf565b600590611365565b6112c957604080518082018252600e81526d1393d11157d393d517d193d5539160921b6020820152905162461bcd60e51b81526104b791906004016119a7565b60010161124f565b50505050565b60006112e38383611387565b9392505050565b6000610aab825490565b60006112e383836113d6565b600081815260018301602052604081205415156112e3565b60007fccc26bbb6dd655ea0bb8a40a3c30e35c6bdf42f8faf0d71bbea897af768cda8b9050604051856000528460205283604052826060528160806000a160405250506000606052505050565b6001600160a01b038116600090815260018301602052604081205415156112e3565b60008181526001830160205260408120546113ce57508154600181810184556000848152602080822090930184905584548482528286019093526040902091909155610aab565b506000610aab565b60008260000182815481106113ed576113ed611b85565b9060005260206000200154905092915050565b828054828255906000526020600020908101928215611453579160200282015b828111156114535781546001600160a01b0319166001600160a01b03843516178255602090920191600190910190611420565b5061145f9291506114e3565b5090565b6040805180820190915260008152602081016114a86040805160a081018252600080825260208201819052918101829052606080820192909252608081019190915290565b905290565b5080546114b99061196d565b6000825580601f106114c9575050565b601f0160209004906000526020600020908101906111fc91905b5b8082111561145f57600081556001016114e4565b60006020828403121561150a57600080fd5b5035919050565b600060a08301825184526020808401516001600160401b0380821660208801528060408701511660408801528060608701511660608801525050608084015160a0608087015282815180855260c088019150602083019450600092505b808310156115975784516001600160a01b0316825293830193600192909201919083019061156e565b509695505050505050565b6020815260006112e36020830184611511565b6000815180845260005b818110156115db576020818501810151868301820152016115bf565b506000602082860101526020601f19601f83011685010191505092915050565b60608152600061160e6060830186611511565b846020840152828103604084015261162681856115b5565b9695505050505050565b60008083601f84011261164257600080fd5b5081356001600160401b0381111561165957600080fd5b602083019150836020828501011115610a9857600080fd5b6000806000806000806080878903121561168a57600080fd5b8635955060208701356001600160401b03808211156116a857600080fd5b818901915089601f8301126116bc57600080fd5b8135818111156116cb57600080fd5b8a60208260051b85010111156116e057600080fd5b6020830197508096505060408901359450606089013591508082111561170557600080fd5b5061171289828a01611630565b979a9699509497509295939492505050565b6001600160a01b03811681146111fc57600080fd5b6000806040838503121561174c57600080fd5b82359150602083013561175e81611724565b809150509250929050565b60008060006060848603121561177e57600080fd5b833592506020840135915060408401356001600160401b038111156117a257600080fd5b840160a081870312156117b457600080fd5b809150509250925092565b6000602082840312156117d157600080fd5b81356112e381611724565b600080604083850312156117ef57600080fd5b50508035926020909101359150565b600060408083016040845280865180835260608601915060608160051b8701019250602080890160005b8381101561186757888603605f1901855281518051875283015183870188905261185488880182611511565b9650509382019390820190600101611828565b5050961515959096019490945295945050505050565b6001600160401b03811681146111fc57600080fd5b803580151581146118a257600080fd5b919050565b600080600080600060a086880312156118bf57600080fd5b85359450602086013593506040860135925060608601356118df8161187d565b91506118ed60808701611892565b90509295509295909350565b6000806020838503121561190c57600080fd5b82356001600160401b038082111561192357600080fd5b818501915085601f83011261193757600080fd5b81358181111561194657600080fd5b86602060a08302850101111561195b57600080fd5b60209290920196919550909350505050565b600181811c9082168061198157607f821691505b6020821081036119a157634e487b7160e01b600052602260045260246000fd5b50919050565b6020815260006112e360208301846115b5565b634e487b7160e01b600052604160045260246000fd5b5b818110156119e557600081556001016119d1565b5050565b601f821115611a2257806000526020600020601f840160051c81016020851015611a105750805b6111af601f850160051c8301826119d0565b505050565b6001600160401b03831115611a3e57611a3e6119ba565b611a5283611a4c835461196d565b836119e9565b6000601f841160018114611a865760008515611a6e5750838201355b600019600387901b1c1916600186901b1783556111af565b600083815260209020601f19861690835b82811015611ab75786850135825560209485019460019092019101611a97565b5086821015611ad45760001960f88860031b161c19848701351681555b505060018560011b0183555050505050565b8183526000602080850194508260005b85811015611b24578135611b0981611724565b6001600160a01b031687529582019590820190600101611af6565b509495945050505050565b868152608060208201526000611b49608083018789611ae6565b8560408401528281036060840152838152838560208301376000602085830101526020601f19601f860116820101915050979650505050505050565b634e487b7160e01b600052603260045260246000fd5b6000808335601e19843603018112611bb257600080fd5b8301803591506001600160401b03821115611bcc57600080fd5b6020019150600581901b3603821315610a9857600080fd5b634e487b7160e01b600052601160045260246000fd5b6001600160401b03831115611c1157611c116119ba565b600160401b831115611c2557611c256119ba565b805483825580841015611c4b57816000526020600020611c498282018683016119d0565b505b50818160005260208060002060005b86811015611c7d578335611c6d81611724565b8282015592820192600101611c5a565b50505050505050565b81358155600181016020830135611c9c8161187d565b6001600160401b0382546040860135611cb48161187d565b6060870135611cc28161187d565b6001600160401b0360801b8160801b168486166001600160401b0360c01b8516176fffffffffffffffff00000000000000008460401b161717865550505060808501359250601e19853603018312611d1957600080fd5b918401918235915080821115611d2e57600080fd5b506020820191508060051b3603821315611d4757600080fd5b6112d1818360028601611bfa565b838152826020820152606060408201528135606082015260006020830135611d7c8161187d565b6001600160401b039081166080840152604084013590611d9b8261187d565b90811660a0840152606084013590611db28261187d565b90811660c084015260808401359036859003601e19018212611dd357600080fd5b6020918501918201913581811115611dea57600080fd5b8060051b3603831315611dfc57600080fd5b60a060e0860152611e1261010086018285611ae6565b98975050505050505050565b600060018201611e3057611e30611be4565b5060010190565b81810381811115610aab57610aab611be4565b80820180821115610aab57610aab611be4565b634e487b7160e01b600052603160045260246000fd5b600060208284031215611e8557600080fd5b81356112e38161187d565b8481528360208201526001600160401b038316604082015260806060820152600061162660808301846115b5565b600060208284031215611ed057600080fd5b6112e38261189256","linkReferences":{}},"methodIdentifiers":{"addStream(bytes32,bytes32,(bytes32,uint64,uint64,uint64,address[]))":"b2e76b8e","allocateStream(bytes32,address[],bytes32,bytes)":"6b883c39","getPaginatedStreams(uint256,uint256)":"ca78c41a","getStream(bytes32)":"1290abe8","getStreamCount()":"c0f22084","getStreamCountOnNode(address)":"c87d1324","getStreamWithGenesis(bytes32)":"3c2544d1","isStream(bytes32)":"d0c27c4f","placeStreamOnNode(bytes32,address)":"9ee86d38","removeStreamFromNode(bytes32,address)":"ee885b12","setStreamLastMiniblock(bytes32,bytes32,bytes32,uint64,bool)":"d7a3158a","setStreamLastMiniblockBatch((bytes32,bytes32,bytes32,uint64,bool)[])":"ff3a14ab"},"id":208}