{"abi":[{"type":"function","name":"addStream","inputs":[{"name":"streamId","type":"bytes32","internalType":"bytes32"},{"name":"genesisMiniblockHash","type":"bytes32","internalType":"bytes32"},{"name":"stream","type":"tuple","internalType":"struct Stream","components":[{"name":"lastMiniblockHash","type":"bytes32","internalType":"bytes32"},{"name":"lastMiniblockNum","type":"uint64","internalType":"uint64"},{"name":"reserved0","type":"uint64","internalType":"uint64"},{"name":"flags","type":"uint64","internalType":"uint64"},{"name":"nodes","type":"address[]","internalType":"address[]"}]}],"outputs":[],"stateMutability":"nonpayable"},{"type":"function","name":"allocateStream","inputs":[{"name":"streamId","type":"bytes32","internalType":"bytes32"},{"name":"nodes","type":"address[]","internalType":"address[]"},{"name":"genesisMiniblockHash","type":"bytes32","internalType":"bytes32"},{"name":"genesisMiniblock","type":"bytes","internalType":"bytes"}],"outputs":[],"stateMutability":"nonpayable"},{"type":"function","name":"getPaginatedStreams","inputs":[{"name":"start","type":"uint256","internalType":"uint256"},{"name":"stop","type":"uint256","internalType":"uint256"}],"outputs":[{"name":"","type":"tuple[]","internalType":"struct StreamWithId[]","components":[{"name":"id","type":"bytes32","internalType":"bytes32"},{"name":"stream","type":"tuple","internalType":"struct Stream","components":[{"name":"lastMiniblockHash","type":"bytes32","internalType":"bytes32"},{"name":"lastMiniblockNum","type":"uint64","internalType":"uint64"},{"name":"reserved0","type":"uint64","internalType":"uint64"},{"name":"flags","type":"uint64","internalType":"uint64"},{"name":"nodes","type":"address[]","internalType":"address[]"}]}]},{"name":"","type":"bool","internalType":"bool"}],"stateMutability":"view"},{"type":"function","name":"getPaginatedStreamsOnNode","inputs":[{"name":"nodeAddress","type":"address","internalType":"address"},{"name":"start","type":"uint256","internalType":"uint256"},{"name":"stop","type":"uint256","internalType":"uint256"}],"outputs":[{"name":"streams","type":"tuple[]","internalType":"struct StreamWithId[]","components":[{"name":"id","type":"bytes32","internalType":"bytes32"},{"name":"stream","type":"tuple","internalType":"struct Stream","components":[{"name":"lastMiniblockHash","type":"bytes32","internalType":"bytes32"},{"name":"lastMiniblockNum","type":"uint64","internalType":"uint64"},{"name":"reserved0","type":"uint64","internalType":"uint64"},{"name":"flags","type":"uint64","internalType":"uint64"},{"name":"nodes","type":"address[]","internalType":"address[]"}]}]}],"stateMutability":"view"},{"type":"function","name":"getStream","inputs":[{"name":"streamId","type":"bytes32","internalType":"bytes32"}],"outputs":[{"name":"stream","type":"tuple","internalType":"struct Stream","components":[{"name":"lastMiniblockHash","type":"bytes32","internalType":"bytes32"},{"name":"lastMiniblockNum","type":"uint64","internalType":"uint64"},{"name":"reserved0","type":"uint64","internalType":"uint64"},{"name":"flags","type":"uint64","internalType":"uint64"},{"name":"nodes","type":"address[]","internalType":"address[]"}]}],"stateMutability":"view"},{"type":"function","name":"getStreamCount","inputs":[],"outputs":[{"name":"","type":"uint256","internalType":"uint256"}],"stateMutability":"view"},{"type":"function","name":"getStreamCountOnNode","inputs":[{"name":"nodeAddress","type":"address","internalType":"address"}],"outputs":[{"name":"count","type":"uint256","internalType":"uint256"}],"stateMutability":"view"},{"type":"function","name":"getStreamWithGenesis","inputs":[{"name":"streamId","type":"bytes32","internalType":"bytes32"}],"outputs":[{"name":"stream","type":"tuple","internalType":"struct Stream","components":[{"name":"lastMiniblockHash","type":"bytes32","internalType":"bytes32"},{"name":"lastMiniblockNum","type":"uint64","internalType":"uint64"},{"name":"reserved0","type":"uint64","internalType":"uint64"},{"name":"flags","type":"uint64","internalType":"uint64"},{"name":"nodes","type":"address[]","internalType":"address[]"}]},{"name":"","type":"bytes32","internalType":"bytes32"},{"name":"","type":"bytes","internalType":"bytes"}],"stateMutability":"view"},{"type":"function","name":"isStream","inputs":[{"name":"streamId","type":"bytes32","internalType":"bytes32"}],"outputs":[{"name":"","type":"bool","internalType":"bool"}],"stateMutability":"view"},{"type":"function","name":"placeStreamOnNode","inputs":[{"name":"streamId","type":"bytes32","internalType":"bytes32"},{"name":"nodeAddress","type":"address","internalType":"address"}],"outputs":[],"stateMutability":"nonpayable"},{"type":"function","name":"removeStreamFromNode","inputs":[{"name":"streamId","type":"bytes32","internalType":"bytes32"},{"name":"nodeAddress","type":"address","internalType":"address"}],"outputs":[],"stateMutability":"nonpayable"},{"type":"function","name":"setStreamLastMiniblock","inputs":[{"name":"streamId","type":"bytes32","internalType":"bytes32"},{"name":"","type":"bytes32","internalType":"bytes32"},{"name":"lastMiniblockHash","type":"bytes32","internalType":"bytes32"},{"name":"lastMiniblockNum","type":"uint64","internalType":"uint64"},{"name":"isSealed","type":"bool","internalType":"bool"}],"outputs":[],"stateMutability":"nonpayable"},{"type":"function","name":"setStreamLastMiniblockBatch","inputs":[{"name":"miniblocks","type":"tuple[]","internalType":"struct SetMiniblock[]","components":[{"name":"streamId","type":"bytes32","internalType":"bytes32"},{"name":"prevMiniBlockHash","type":"bytes32","internalType":"bytes32"},{"name":"lastMiniblockHash","type":"bytes32","internalType":"bytes32"},{"name":"lastMiniblockNum","type":"uint64","internalType":"uint64"},{"name":"isSealed","type":"bool","internalType":"bool"}]}],"outputs":[],"stateMutability":"nonpayable"},{"type":"function","name":"syncNodesOnStreams","inputs":[{"name":"start","type":"uint256","internalType":"uint256"},{"name":"stop","type":"uint256","internalType":"uint256"}],"outputs":[],"stateMutability":"nonpayable"},{"type":"event","name":"StreamAllocated","inputs":[{"name":"streamId","type":"bytes32","indexed":false,"internalType":"bytes32"},{"name":"nodes","type":"address[]","indexed":false,"internalType":"address[]"},{"name":"genesisMiniblockHash","type":"bytes32","indexed":false,"internalType":"bytes32"},{"name":"genesisMiniblock","type":"bytes","indexed":false,"internalType":"bytes"}],"anonymous":false},{"type":"event","name":"StreamCreated","inputs":[{"name":"streamId","type":"bytes32","indexed":false,"internalType":"bytes32"},{"name":"genesisMiniblockHash","type":"bytes32","indexed":false,"internalType":"bytes32"},{"name":"stream","type":"tuple","indexed":false,"internalType":"struct Stream","components":[{"name":"lastMiniblockHash","type":"bytes32","internalType":"bytes32"},{"name":"lastMiniblockNum","type":"uint64","internalType":"uint64"},{"name":"reserved0","type":"uint64","internalType":"uint64"},{"name":"flags","type":"uint64","internalType":"uint64"},{"name":"nodes","type":"address[]","internalType":"address[]"}]}],"anonymous":false},{"type":"event","name":"StreamLastMiniblockUpdateFailed","inputs":[{"name":"streamId","type":"bytes32","indexed":false,"internalType":"bytes32"},{"name":"lastMiniblockHash","type":"bytes32","indexed":false,"internalType":"bytes32"},{"name":"lastMiniblockNum","type":"uint64","indexed":false,"internalType":"uint64"},{"name":"reason","type":"string","indexed":false,"internalType":"string"}],"anonymous":false},{"type":"event","name":"StreamLastMiniblockUpdated","inputs":[{"name":"streamId","type":"bytes32","indexed":false,"internalType":"bytes32"},{"name":"lastMiniblockHash","type":"bytes32","indexed":false,"internalType":"bytes32"},{"name":"lastMiniblockNum","type":"uint64","indexed":false,"internalType":"uint64"},{"name":"isSealed","type":"bool","indexed":false,"internalType":"bool"}],"anonymous":false},{"type":"event","name":"StreamPlacementUpdated","inputs":[{"name":"streamId","type":"bytes32","indexed":false,"internalType":"bytes32"},{"name":"nodeAddress","type":"address","indexed":false,"internalType":"address"},{"name":"isAdded","type":"bool","indexed":false,"internalType":"bool"}],"anonymous":false}],"bytecode":{"object":"0x6080604052348015600e575f5ffd5b506129688061001c5f395ff3fe608060405234801561000f575f5ffd5b50600436106100e5575f3560e01c8063c0f2208411610088578063d0c27c4f11610063578063d0c27c4f146101ec578063d7a3158a1461020f578063ee885b1214610222578063ff3a14ab14610235575f5ffd5b8063c0f22084146101a2578063c87d1324146101b8578063ca78c41a146101cb575f5ffd5b80633c2544d1116100c35780633c2544d1146101475780636b883c39146101695780639ee86d381461017c578063b2e76b8e1461018f575f5ffd5b806303cc8793146100e95780631290abe8146100fe57806322bbda6414610127575b5f5ffd5b6100fc6100f7366004611d95565b610248565b005b61011161010c366004611db5565b610310565b60405161011e9190611e76565b60405180910390f35b61013a610135366004611ea9565b610439565b60405161011e9190611f6a565b61015a610155366004611db5565b6105f3565b60405161011e93929190611fc8565b6100fc61017736600461203a565b6107c8565b6100fc61018a3660046120ee565b610934565b6100fc61019d36600461211c565b610b77565b6101aa610ca8565b60405190815260200161011e565b6101aa6101c636600461216e565b610cb7565b6101de6101d9366004611d95565b610cea565b60405161011e929190612189565b6101ff6101fa366004611db5565b610e82565b604051901515815260200161011e565b6100fc61021d3660046121d5565b610e8d565b6100fc6102303660046120ee565b6110f7565b6100fc610243366004612223565b61140b565b5f806102538161184d565b838118908411028318848111908590030284019150505b8083101561030b575f61027d8185611856565b5f81815260026020819052604082209081018054939450909290915b818110156102fb576102f2855f600f015f8685815481106102bc576102bc612294565b5f91825260208083209091015473ffffffffffffffffffffffffffffffffffffffff168352820192909252604001902090611868565b50600101610299565b505050505082600101925061026a565b505050565b61035c6040518060a001604052805f81526020015f67ffffffffffffffff1681526020015f67ffffffffffffffff1681526020015f67ffffffffffffffff168152602001606081525090565b8060405261036982611873565b5f82815260026020818152604092839020835160a08101855281548152600182015467ffffffffffffffff80821683860152680100000000000000008204811683880152700100000000000000000000000000000000909104166060820152928101805485518185028101850190965280865293949193608086019383018282801561042957602002820191905f5260205f20905b815473ffffffffffffffffffffffffffffffffffffffff1681526001909101906020018083116103fe575b5050505050815250509050919050565b73ffffffffffffffffffffffffffffffffffffffff83165f908152600f602052604081206060916104698261184d565b9050838118818511028418858111868203028067ffffffffffffffff811115610494576104946122c1565b6040519080825280602002602001820160405280156104cd57816020015b6104ba611c66565b8152602001906001900390816104b25790505b5094505f5b818110156105e7575f8682815181106104ed576104ed612294565b6020026020010151905061050c828a018761185690919063ffffffff16565b8082525f90815260026020818152604092839020835160a08101855281548152600182015467ffffffffffffffff8082168386015268010000000000000000820481168388015270010000000000000000000000000000000090910416606082015292810180548551818502810185019096528086529394919360808601938301828280156105cf57602002820191905f5260205f20905b815473ffffffffffffffffffffffffffffffffffffffff1681526001909101906020018083116105a4575b505050919092525050506020909101526001016104d2565b50505050509392505050565b61063f6040518060a001604052805f81526020015f67ffffffffffffffff1681526020015f67ffffffffffffffff1681526020015f67ffffffffffffffff168152602001606081525090565b5f60608260405261064f84611873565b5f84815260026020818152604080842060048352818520546003845294829020825160a08101845282548152600183015467ffffffffffffffff808216838801526801000000000000000082048116838701527001000000000000000000000000000000009091041660608201529482018054845181870281018701909552808552929695919491938793608086019391929183018282801561072657602002820191905f5260205f20905b815473ffffffffffffffffffffffffffffffffffffffff1681526001909101906020018083116106fb575b505050505081525050925080805461073d906122ee565b80601f0160208091040260200160405190810160405280929190818152602001828054610769906122ee565b80156107b45780601f1061078b576101008083540402835291602001916107b4565b820191905f5260205f20905b81548152906001019060200180831161079757829003601f168201915b505050505090509250925092509193909250565b335f8181526007602052604090206002015473ffffffffffffffffffffffffffffffffffffffff1661086257604080518082018252600e81527f4e4f44455f4e4f545f464f554e44000000000000000000000000000000000000602082015290517f08c379a0000000000000000000000000000000000000000000000000000000008152610859919060040161233f565b60405180910390fd5b8661086c816118e9565b8686610878828261195d565b5f8a815260026020819052604082209189918c918c9185919061089e9083018585611cc8565b505092909255506108b190505f8c611868565b505f8b81526003602052604090206108ca8789836123a0565b505f8b81526004602052604090208890556108e68b8b8b611a3a565b7f55ef7efc60ef99743e54209752c9a8e047e013917ec91572db75875069dd65bb8b8b8b8b8b8b60405161091f9695949392919061250b565b60405180910390a15050505050505050505050565b8161093e81611873565b335f8181526007602052604090206002015473ffffffffffffffffffffffffffffffffffffffff166109cf57604080518082018252600e81527f4e4f44455f4e4f545f464f554e44000000000000000000000000000000000000602082015290517f08c379a0000000000000000000000000000000000000000000000000000000008152610859919060040161233f565b5f84815260026020818152604080842073ffffffffffffffffffffffffffffffffffffffff88168552600f90925290922090820190610a0e9087611868565b5080545f5b81811015610ad7578673ffffffffffffffffffffffffffffffffffffffff16838281548110610a4457610a44612294565b5f9182526020909120015473ffffffffffffffffffffffffffffffffffffffff1603610acf57604080518082018252600e81527f414c52454144595f455849535453000000000000000000000000000000000000602082015290517f08c379a0000000000000000000000000000000000000000000000000000000008152610859919060040161233f565b600101610a13565b508154600180820184555f84815260209081902090920180547fffffffffffffffffffffffff00000000000000000000000000000000000000001673ffffffffffffffffffffffffffffffffffffffff8a16908117909155604080518b8152938401919091528201527faaa473c28a5fe04b6a7ecd795826e462f9d0c23f00ef9f51ec02fa6ea418806f906060015b60405180910390a150505050505050565b335f8181526007602052604090206002015473ffffffffffffffffffffffffffffffffffffffff16610c0857604080518082018252600e81527f4e4f44455f4e4f545f464f554e44000000000000000000000000000000000000602082015290517f08c379a0000000000000000000000000000000000000000000000000000000008152610859919060040161233f565b83610c12816118e9565b610c1f608084018461257d565b610c29828261195d565b610c335f88611868565b505f8781526002602052604090208590610c4d828261266f565b50505f878152600460205260409020869055610c7587610c70608088018861257d565b611a3a565b7fac1b69e6e0382c43def3cccabf63091ba47b5d8b10a705d16a1076668643fe4d878787604051610b66939291906127ad565b5f610cb28161184d565b905090565b73ffffffffffffffffffffffffffffffffffffffff81165f908152600f60205260408120610ce49061184d565b92915050565b60605f80610cf78161184d565b9050838118818511028418858111868203025f8167ffffffffffffffff811115610d2357610d236122c1565b604051908082528060200260200182016040528015610d5c57816020015b610d49611c66565b815260200190600190039081610d415790505b5090505f5b82811015610e70575f828281518110610d7c57610d7c612294565b60209081029190910101519050610d955f8b8401611856565b8082525f90815260026020818152604092839020835160a08101855281548152600182015467ffffffffffffffff808216838601526801000000000000000082048116838801527001000000000000000000000000000000009091041660608201529281018054855181850281018501909652808652939491936080860193830182828015610e5857602002820191905f5260205f20905b815473ffffffffffffffffffffffffffffffffffffffff168152600190910190602001808311610e2d575b50505091909252505050602090910152600101610d61565b509450505083101590505b9250929050565b5f610ce48183611aa6565b335f8181526007602052604090206002015473ffffffffffffffffffffffffffffffffffffffff16610f1e57604080518082018252600e81527f4e4f44455f4e4f545f464f554e44000000000000000000000000000000000000602082015290517f08c379a0000000000000000000000000000000000000000000000000000000008152610859919060040161233f565b85610f2881611873565b5f87815260026020526040902060018082015470010000000000000000000000000000000090041615610fba57604080518082018252600d81527f53545245414d5f5345414c454400000000000000000000000000000000000000602082015290517f08c379a0000000000000000000000000000000000000000000000000000000008152610859919060040161233f565b600181015467ffffffffffffffff80871691161061103757604080518082018252600781527f4241445f41524700000000000000000000000000000000000000000000000000602082015290517f08c379a0000000000000000000000000000000000000000000000000000000008152610859919060040161233f565b5f88815260036020526040812061104d91611d4e565b8581556001810180547fffffffffffffffffffffffffffffffffffffffffffffffff00000000000000001667ffffffffffffffff871617905583156110e157600181810180547fffffffffffffffff0000000000000000ffffffffffffffffffffffffffffffff81167001000000000000000000000000000000009182900467ffffffffffffffff16909317029190911790555b6110ed88878787611abd565b5050505050505050565b8161110181611873565b335f8181526007602052604090206002015473ffffffffffffffffffffffffffffffffffffffff1661119257604080518082018252600e81527f4e4f44455f4e4f545f464f554e44000000000000000000000000000000000000602082015290517f08c379a0000000000000000000000000000000000000000000000000000000008152610859919060040161233f565b5f84815260026020818152604080842073ffffffffffffffffffffffffffffffffffffffff88168552600f909252909220908201906111d19087611b06565b5080545f90815b81811015611342578773ffffffffffffffffffffffffffffffffffffffff1684828154811061120957611209612294565b5f9182526020909120015473ffffffffffffffffffffffffffffffffffffffff160361133a578361123b6001846128a1565b8154811061124b5761124b612294565b905f5260205f20015f9054906101000a900473ffffffffffffffffffffffffffffffffffffffff1684828154811061128557611285612294565b905f5260205f20015f6101000a81548173ffffffffffffffffffffffffffffffffffffffff021916908373ffffffffffffffffffffffffffffffffffffffff160217905550838054806112da576112da6128d9565b5f8281526020902081017fffffffffffffffffffffffffffffffffffffffffffffffffffffffffffffffff90810180547fffffffffffffffffffffffff000000000000000000000000000000000000000016905501905560019250611342565b6001016111d8565b50816113ad57604080518082018252600e81527f4e4f44455f4e4f545f464f554e44000000000000000000000000000000000000602082015290517f08c379a0000000000000000000000000000000000000000000000000000000008152610859919060040161233f565b6040805189815273ffffffffffffffffffffffffffffffffffffffff891660208201525f8183015290517faaa473c28a5fe04b6a7ecd795826e462f9d0c23f00ef9f51ec02fa6ea418806f9181900360600190a15050505050505050565b335f8181526007602052604090206002015473ffffffffffffffffffffffffffffffffffffffff1661149c57604080518082018252600e81527f4e4f44455f4e4f545f464f554e44000000000000000000000000000000000000602082015290517f08c379a0000000000000000000000000000000000000000000000000000000008152610859919060040161233f565b815f81900361150a57604080518082018252600781527f4241445f41524700000000000000000000000000000000000000000000000000602082015290517f08c379a0000000000000000000000000000000000000000000000000000000008152610859919060040161233f565b5f5b81811015611846573685858381811061152757611527612294565b60a00291909101915061153d90505f8235611aa6565b6115c9577f75460fe319331413a18a82d99b07735cec53fa0c4061ada38c2141e331082afa813560408301356115796080850160608601612906565b604080518082018252600981527f4e4f545f464f554e440000000000000000000000000000000000000000000000602082015290516115bb9493929190612921565b60405180910390a15061183e565b80355f90815260026020526040902060018082015470010000000000000000000000000000000090041615611681577f75460fe319331413a18a82d99b07735cec53fa0c4061ada38c2141e331082afa823560408401356116306080860160608701612906565b604080518082018252600d81527f53545245414d5f5345414c454400000000000000000000000000000000000000602082015290516116729493929190612921565b60405180910390a1505061183e565b6116916080830160608401612906565b600182015467ffffffffffffffff918216911610611723577f75460fe319331413a18a82d99b07735cec53fa0c4061ada38c2141e331082afa823560408401356116e16080860160608701612906565b604080518082018252600781527f4241445f41524700000000000000000000000000000000000000000000000000602082015290516116729493929190612921565b600181015467ffffffffffffffff165f036117505781355f90815260036020526040812061175091611d4e565b604082013581556117676080830160608401612906565b6001820180547fffffffffffffffffffffffffffffffffffffffffffffffff00000000000000001667ffffffffffffffff929092169190911790556117b260a083016080840161294f565b1561180c57600181810180547fffffffffffffffff0000000000000000ffffffffffffffffffffffffffffffff81167001000000000000000000000000000000009182900467ffffffffffffffff16909317029190911790555b61183b823560408401356118266080860160608701612906565b61183660a087016080880161294f565b611abd565b50505b60010161150c565b5050505050565b5f610ce4825490565b5f6118618383611b11565b9392505050565b5f6118618383611b37565b61187d5f82611aa6565b6118e657604080518082018252600981527f4e4f545f464f554e440000000000000000000000000000000000000000000000602082015290517f08c379a0000000000000000000000000000000000000000000000000000000008152610859919060040161233f565b50565b6118f35f82611aa6565b156118e657604080518082018252600e81527f414c52454144595f455849535453000000000000000000000000000000000000602082015290517f08c379a0000000000000000000000000000000000000000000000000000000008152610859919060040161233f565b805f5b81811015611a34576119c384848381811061197d5761197d612294565b9050602002016020810190611992919061216e565b60059073ffffffffffffffffffffffffffffffffffffffff81165f9081526001830160205260408120541515611861565b611a2c57604080518082018252600e81527f4e4f44455f4e4f545f464f554e44000000000000000000000000000000000000602082015290517f08c379a0000000000000000000000000000000000000000000000000000000008152610859919060040161233f565b600101611960565b50505050565b5f5b81811015611a3457611a9d84600f5f868686818110611a5d57611a5d612294565b9050602002016020810190611a72919061216e565b73ffffffffffffffffffffffffffffffffffffffff16815260208101919091526040015f2090611868565b50600101611a3c565b5f8181526001830160205260408120541515611861565b5f7fccc26bbb6dd655ea0bb8a40a3c30e35c6bdf42f8faf0d71bbea897af768cda8b9050604051855f528460205283604052826060528160805fa160405250505f606052505050565b5f6118618383611b83565b5f825f018281548110611b2657611b26612294565b905f5260205f200154905092915050565b5f818152600183016020526040812054611b7c57508154600181810184555f848152602080822090930184905584548482528286019093526040902091909155610ce4565b505f610ce4565b5f8181526001830160205260408120548015611c5d575f611ba56001836128a1565b85549091505f90611bb8906001906128a1565b9050808214611c17575f865f018281548110611bd657611bd6612294565b905f5260205f200154905080875f018481548110611bf657611bf6612294565b5f918252602080832090910192909255918252600188019052604090208390555b8554869080611c2857611c286128d9565b600190038181905f5260205f20015f90559055856001015f8681526020019081526020015f205f905560019350505050610ce4565b5f915050610ce4565b60405180604001604052805f8152602001611cc36040518060a001604052805f81526020015f67ffffffffffffffff1681526020015f67ffffffffffffffff1681526020015f67ffffffffffffffff168152602001606081525090565b905290565b828054828255905f5260205f20908101928215611d3e579160200282015b82811115611d3e5781547fffffffffffffffffffffffff00000000000000000000000000000000000000001673ffffffffffffffffffffffffffffffffffffffff843516178255602090920191600190910190611ce6565b50611d4a929150611d81565b5090565b508054611d5a906122ee565b5f825580601f10611d69575050565b601f0160209004905f5260205f20908101906118e691905b5b80821115611d4a575f8155600101611d82565b5f5f60408385031215611da6575f5ffd5b50508035926020909101359150565b5f60208284031215611dc5575f5ffd5b5035919050565b5f60a083018251845267ffffffffffffffff602084015116602085015267ffffffffffffffff604084015116604085015267ffffffffffffffff6060840151166060850152608083015160a0608086015281815180845260c0870191506020830193505f92505b80831015611e6c5773ffffffffffffffffffffffffffffffffffffffff8451168252602082019150602084019350600183019250611e33565b5095945050505050565b602081525f6118616020830184611dcc565b73ffffffffffffffffffffffffffffffffffffffff811681146118e6575f5ffd5b5f5f5f60608486031215611ebb575f5ffd5b8335611ec681611e88565b95602085013595506040909401359392505050565b5f82825180855260208501945060208160051b830101602085015f5b83811015611f5e577fffffffffffffffffffffffffffffffffffffffffffffffffffffffffffffffe08584030188528151805184526020810151905060406020850152611f476040850182611dcc565b6020998a0199909450929092019150600101611ef7565b50909695505050505050565b602081525f6118616020830184611edb565b5f81518084528060208401602086015e5f6020828601015260207fffffffffffffffffffffffffffffffffffffffffffffffffffffffffffffffe0601f83011685010191505092915050565b606081525f611fda6060830186611dcc565b8460208401528281036040840152611ff28185611f7c565b9695505050505050565b5f5f83601f84011261200c575f5ffd5b50813567ffffffffffffffff811115612023575f5ffd5b602083019150836020828501011115610e7b575f5ffd5b5f5f5f5f5f5f6080878903121561204f575f5ffd5b86359550602087013567ffffffffffffffff81111561206c575f5ffd5b8701601f8101891361207c575f5ffd5b803567ffffffffffffffff811115612092575f5ffd5b8960208260051b84010111156120a6575f5ffd5b6020919091019550935060408701359250606087013567ffffffffffffffff8111156120d0575f5ffd5b6120dc89828a01611ffc565b979a9699509497509295939492505050565b5f5f604083850312156120ff575f5ffd5b82359150602083013561211181611e88565b809150509250929050565b5f5f5f6060848603121561212e575f5ffd5b8335925060208401359150604084013567ffffffffffffffff811115612152575f5ffd5b840160a08187031215612163575f5ffd5b809150509250925092565b5f6020828403121561217e575f5ffd5b813561186181611e88565b604081525f61219b6040830185611edb565b905082151560208301529392505050565b67ffffffffffffffff811681146118e6575f5ffd5b803580151581146121d0575f5ffd5b919050565b5f5f5f5f5f60a086880312156121e9575f5ffd5b8535945060208601359350604086013592506060860135612209816121ac565b9150612217608087016121c1565b90509295509295909350565b5f5f60208385031215612234575f5ffd5b823567ffffffffffffffff81111561224a575f5ffd5b8301601f8101851361225a575f5ffd5b803567ffffffffffffffff811115612270575f5ffd5b85602060a083028401011115612284575f5ffd5b6020919091019590945092505050565b7f4e487b71000000000000000000000000000000000000000000000000000000005f52603260045260245ffd5b7f4e487b71000000000000000000000000000000000000000000000000000000005f52604160045260245ffd5b600181811c9082168061230257607f821691505b602082108103612339577f4e487b71000000000000000000000000000000000000000000000000000000005f52602260045260245ffd5b50919050565b602081525f6118616020830184611f7c565b5b81811015612365575f8155600101612352565b5050565b601f82111561030b57805f5260205f20601f840160051c8101602085101561238e5750805b611846601f850160051c830182612351565b67ffffffffffffffff8311156123b8576123b86122c1565b6123cc836123c683546122ee565b83612369565b5f601f84116001811461241c575f85156123e65750838201355b7fffffffffffffffffffffffffffffffffffffffffffffffffffffffffffffffff600387901b1c1916600186901b178355611846565b5f838152602081207fffffffffffffffffffffffffffffffffffffffffffffffffffffffffffffffe08716915b828110156124695786850135825560209485019460019092019101612449565b50868210156124a4577fffffffffffffffffffffffffffffffffffffffffffffffffffffffffffffffff60f88860031b161c19848701351681555b505060018560011b0183555050505050565b8183526020830192505f815f5b848110156125015781356124d681611e88565b73ffffffffffffffffffffffffffffffffffffffff16865260209586019591909101906001016124c3565b5093949350505050565b868152608060208201525f6125246080830187896124b6565b8560408401528281036060840152838152838560208301375f6020858301015260207fffffffffffffffffffffffffffffffffffffffffffffffffffffffffffffffe0601f860116820101915050979650505050505050565b5f5f83357fffffffffffffffffffffffffffffffffffffffffffffffffffffffffffffffe18436030181126125b0575f5ffd5b83018035915067ffffffffffffffff8211156125ca575f5ffd5b6020019150600581901b3603821315610e7b575f5ffd5b67ffffffffffffffff8311156125f9576125f96122c1565b68010000000000000000831115612612576126126122c1565b80548382558084101561263657815f5260205f20612634828201868301612351565b505b5081815f5260205f205f5b8581101561266757823561265481611e88565b8282015560209290920191600101612641565b505050505050565b81358155600181016020830135612685816121ac565b81546040850135612695816121ac565b6fffffffffffffffff00000000000000008160401b1667ffffffffffffffff84167fffffffffffffffffffffffffffffffff000000000000000000000000000000008416171784555050505f60608401356126ef816121ac565b82547fffffffffffffffff0000000000000000ffffffffffffffffffffffffffffffff16608091821b77ffffffffffffffff000000000000000000000000000000001617909255505f908190840135368590037fffffffffffffffffffffffffffffffffffffffffffffffffffffffffffffffe101811261276e575f5ffd5b84018035915067ffffffffffffffff821115612788575f5ffd5b6020019150600581901b360382131561279f575f5ffd5b611a348183600286016125e1565b83815260208082018490526060604083018190528335908301525f908301356127d5816121ac565b67ffffffffffffffff16608083015260408301356127f2816121ac565b67ffffffffffffffff1660a0830152606083013561280f816121ac565b67ffffffffffffffff1660c08301526080830135368490037fffffffffffffffffffffffffffffffffffffffffffffffffffffffffffffffe1018112612853575f5ffd5b830160208101903567ffffffffffffffff81111561286f575f5ffd5b8060051b3603821315612880575f5ffd5b60a060e0850152612896610100850182846124b6565b979650505050505050565b81810381811115610ce4577f4e487b71000000000000000000000000000000000000000000000000000000005f52601160045260245ffd5b7f4e487b71000000000000000000000000000000000000000000000000000000005f52603160045260245ffd5b5f60208284031215612916575f5ffd5b8135611861816121ac565b84815283602082015267ffffffffffffffff83166040820152608060608201525f611ff26080830184611f7c565b5f6020828403121561295f575f5ffd5b611861826121c156","linkReferences":{}},"methodIdentifiers":{"addStream(bytes32,bytes32,(bytes32,uint64,uint64,uint64,address[]))":"b2e76b8e","allocateStream(bytes32,address[],bytes32,bytes)":"6b883c39","getPaginatedStreams(uint256,uint256)":"ca78c41a","getPaginatedStreamsOnNode(address,uint256,uint256)":"22bbda64","getStream(bytes32)":"1290abe8","getStreamCount()":"c0f22084","getStreamCountOnNode(address)":"c87d1324","getStreamWithGenesis(bytes32)":"3c2544d1","isStream(bytes32)":"d0c27c4f","placeStreamOnNode(bytes32,address)":"9ee86d38","removeStreamFromNode(bytes32,address)":"ee885b12","setStreamLastMiniblock(bytes32,bytes32,bytes32,uint64,bool)":"d7a3158a","setStreamLastMiniblockBatch((bytes32,bytes32,bytes32,uint64,bool)[])":"ff3a14ab","syncNodesOnStreams(uint256,uint256)":"03cc8793"},"id":214}