{"abi":[{"type":"function","name":"addStream","inputs":[{"name":"streamId","type":"bytes32","internalType":"bytes32"},{"name":"genesisMiniblockHash","type":"bytes32","internalType":"bytes32"},{"name":"stream","type":"tuple","internalType":"struct Stream","components":[{"name":"lastMiniblockHash","type":"bytes32","internalType":"bytes32"},{"name":"lastMiniblockNum","type":"uint64","internalType":"uint64"},{"name":"reserved0","type":"uint64","internalType":"uint64"},{"name":"flags","type":"uint64","internalType":"uint64"},{"name":"nodes","type":"address[]","internalType":"address[]"}]}],"outputs":[],"stateMutability":"nonpayable"},{"type":"function","name":"allocateStream","inputs":[{"name":"streamId","type":"bytes32","internalType":"bytes32"},{"name":"nodes","type":"address[]","internalType":"address[]"},{"name":"genesisMiniblockHash","type":"bytes32","internalType":"bytes32"},{"name":"genesisMiniblock","type":"bytes","internalType":"bytes"}],"outputs":[],"stateMutability":"nonpayable"},{"type":"function","name":"getPaginatedStreams","inputs":[{"name":"start","type":"uint256","internalType":"uint256"},{"name":"stop","type":"uint256","internalType":"uint256"}],"outputs":[{"name":"","type":"tuple[]","internalType":"struct StreamWithId[]","components":[{"name":"id","type":"bytes32","internalType":"bytes32"},{"name":"stream","type":"tuple","internalType":"struct Stream","components":[{"name":"lastMiniblockHash","type":"bytes32","internalType":"bytes32"},{"name":"lastMiniblockNum","type":"uint64","internalType":"uint64"},{"name":"reserved0","type":"uint64","internalType":"uint64"},{"name":"flags","type":"uint64","internalType":"uint64"},{"name":"nodes","type":"address[]","internalType":"address[]"}]}]},{"name":"","type":"bool","internalType":"bool"}],"stateMutability":"view"},{"type":"function","name":"getStream","inputs":[{"name":"streamId","type":"bytes32","internalType":"bytes32"}],"outputs":[{"name":"stream","type":"tuple","internalType":"struct Stream","components":[{"name":"lastMiniblockHash","type":"bytes32","internalType":"bytes32"},{"name":"lastMiniblockNum","type":"uint64","internalType":"uint64"},{"name":"reserved0","type":"uint64","internalType":"uint64"},{"name":"flags","type":"uint64","internalType":"uint64"},{"name":"nodes","type":"address[]","internalType":"address[]"}]}],"stateMutability":"view"},{"type":"function","name":"getStreamCount","inputs":[],"outputs":[{"name":"","type":"uint256","internalType":"uint256"}],"stateMutability":"view"},{"type":"function","name":"getStreamCountOnNode","inputs":[{"name":"nodeAddress","type":"address","internalType":"address"}],"outputs":[{"name":"count","type":"uint256","internalType":"uint256"}],"stateMutability":"view"},{"type":"function","name":"getStreamWithGenesis","inputs":[{"name":"streamId","type":"bytes32","internalType":"bytes32"}],"outputs":[{"name":"stream","type":"tuple","internalType":"struct Stream","components":[{"name":"lastMiniblockHash","type":"bytes32","internalType":"bytes32"},{"name":"lastMiniblockNum","type":"uint64","internalType":"uint64"},{"name":"reserved0","type":"uint64","internalType":"uint64"},{"name":"flags","type":"uint64","internalType":"uint64"},{"name":"nodes","type":"address[]","internalType":"address[]"}]},{"name":"","type":"bytes32","internalType":"bytes32"},{"name":"","type":"bytes","internalType":"bytes"}],"stateMutability":"view"},{"type":"function","name":"isStream","inputs":[{"name":"streamId","type":"bytes32","internalType":"bytes32"}],"outputs":[{"name":"","type":"bool","internalType":"bool"}],"stateMutability":"view"},{"type":"function","name":"placeStreamOnNode","inputs":[{"name":"streamId","type":"bytes32","internalType":"bytes32"},{"name":"nodeAddress","type":"address","internalType":"address"}],"outputs":[],"stateMutability":"nonpayable"},{"type":"function","name":"removeStreamFromNode","inputs":[{"name":"streamId","type":"bytes32","internalType":"bytes32"},{"name":"nodeAddress","type":"address","internalType":"address"}],"outputs":[],"stateMutability":"nonpayable"},{"type":"function","name":"setStreamLastMiniblock","inputs":[{"name":"streamId","type":"bytes32","internalType":"bytes32"},{"name":"","type":"bytes32","internalType":"bytes32"},{"name":"lastMiniblockHash","type":"bytes32","internalType":"bytes32"},{"name":"lastMiniblockNum","type":"uint64","internalType":"uint64"},{"name":"isSealed","type":"bool","internalType":"bool"}],"outputs":[],"stateMutability":"nonpayable"},{"type":"function","name":"setStreamLastMiniblockBatch","inputs":[{"name":"miniblocks","type":"tuple[]","internalType":"struct SetMiniblock[]","components":[{"name":"streamId","type":"bytes32","internalType":"bytes32"},{"name":"prevMiniBlockHash","type":"bytes32","internalType":"bytes32"},{"name":"lastMiniblockHash","type":"bytes32","internalType":"bytes32"},{"name":"lastMiniblockNum","type":"uint64","internalType":"uint64"},{"name":"isSealed","type":"bool","internalType":"bool"}]}],"outputs":[],"stateMutability":"nonpayable"},{"type":"event","name":"StreamAllocated","inputs":[{"name":"streamId","type":"bytes32","indexed":false,"internalType":"bytes32"},{"name":"nodes","type":"address[]","indexed":false,"internalType":"address[]"},{"name":"genesisMiniblockHash","type":"bytes32","indexed":false,"internalType":"bytes32"},{"name":"genesisMiniblock","type":"bytes","indexed":false,"internalType":"bytes"}],"anonymous":false},{"type":"event","name":"StreamCreated","inputs":[{"name":"streamId","type":"bytes32","indexed":false,"internalType":"bytes32"},{"name":"genesisMiniblockHash","type":"bytes32","indexed":false,"internalType":"bytes32"},{"name":"stream","type":"tuple","indexed":false,"internalType":"struct Stream","components":[{"name":"lastMiniblockHash","type":"bytes32","internalType":"bytes32"},{"name":"lastMiniblockNum","type":"uint64","internalType":"uint64"},{"name":"reserved0","type":"uint64","internalType":"uint64"},{"name":"flags","type":"uint64","internalType":"uint64"},{"name":"nodes","type":"address[]","internalType":"address[]"}]}],"anonymous":false},{"type":"event","name":"StreamLastMiniblockUpdateFailed","inputs":[{"name":"streamId","type":"bytes32","indexed":false,"internalType":"bytes32"},{"name":"lastMiniblockHash","type":"bytes32","indexed":false,"internalType":"bytes32"},{"name":"lastMiniblockNum","type":"uint64","indexed":false,"internalType":"uint64"},{"name":"reason","type":"string","indexed":false,"internalType":"string"}],"anonymous":false},{"type":"event","name":"StreamLastMiniblockUpdated","inputs":[{"name":"streamId","type":"bytes32","indexed":false,"internalType":"bytes32"},{"name":"lastMiniblockHash","type":"bytes32","indexed":false,"internalType":"bytes32"},{"name":"lastMiniblockNum","type":"uint64","indexed":false,"internalType":"uint64"},{"name":"isSealed","type":"bool","indexed":false,"internalType":"bool"}],"anonymous":false},{"type":"event","name":"StreamPlacementUpdated","inputs":[{"name":"streamId","type":"bytes32","indexed":false,"internalType":"bytes32"},{"name":"nodeAddress","type":"address","indexed":false,"internalType":"address"},{"name":"isAdded","type":"bool","indexed":false,"internalType":"bool"}],"anonymous":false}],"bytecode":{"object":"0x608060405234801561001057600080fd5b50612146806100206000396000f3fe608060405234801561001057600080fd5b50600436106100b45760003560e01c8063c87d132411610071578063c87d132414610155578063ca78c41a14610168578063d0c27c4f14610189578063d7a3158a146101ac578063ee885b12146101bf578063ff3a14ab146101d257600080fd5b80631290abe8146100b95780633c2544d1146100e25780636b883c39146101045780639ee86d3814610119578063b2e76b8e1461012c578063c0f220841461013f575b600080fd5b6100cc6100c7366004611768565b6101e5565b6040516100d99190611812565b60405180910390f35b6100f56100f0366004611768565b61030e565b6040516100d99392919061186b565b6101176101123660046118e1565b6104dc565b005b6101176101273660046119a9565b61079d565b61011761013a3660046119d9565b61095a565b610147610b05565b6040519081526020016100d9565b610147610163366004611a2f565b610b15565b61017b610176366004611a4c565b610bbe565b6040516100d9929190611a6e565b61019c610197366004611768565b610daf565b60405190151581526020016100d9565b6101176101ba366004611b17565b610dc1565b6101176101cd3660046119a9565b610f91565b6101176101e0366004611b69565b6111e2565b604080516000808252602082018190528183018190526060808301829052608083015291819052906102179083611542565b61025b5760408051808201825260098152681393d517d193d5539160ba1b6020820152905162461bcd60e51b81526102529190600401611bdd565b60405180910390fd5b600082815260026020818152604092839020835160a0810185528154815260018201546001600160401b0380821683860152600160401b8204811683880152600160801b90910416606082015292810180548551818502810185019096528086529394919360808601938301828280156102fe57602002820191906000526020600020905b81546001600160a01b031681526001909101906020018083116102e0575b5050505050815250509050919050565b604080516000808252602082018190528183018190526060808301829052608083018190529282905290916103438285611542565b61037e5760408051808201825260098152681393d517d193d5539160ba1b6020820152905162461bcd60e51b81526102529190600401611bdd565b600084815260026020818152604080842060048352818520546003845294829020825160a0810184528254815260018301546001600160401b0380821683880152600160401b8204811683870152600160801b9091041660608201529482018054845181870281018701909552808552929695919491938793608086019391929183018282801561043857602002820191906000526020600020905b81546001600160a01b0316815260019091019060200180831161041a575b505050505081525050925080805461044f90611bf0565b80601f016020809104026020016040519081016040528092919081815260200182805461047b90611bf0565b80156104c85780601f1061049d576101008083540402835291602001916104c8565b820191906000526020600020905b8154815290600101906020018083116104ab57829003601f168201915b505050505090509250925092509193909250565b336000818152600760205260409020600201546001600160a01b031661053857604080518082018252600e81526d1393d11157d393d517d193d5539160921b6020820152905162461bcd60e51b81526102529190600401611bdd565b610543600088611542565b1561058457604080518082018252600e81526d414c52454144595f45584953545360901b6020820152905162461bcd60e51b81526102529190600401611bdd565b8460005b8181101561060a576105c28888838181106105a5576105a5611c2a565b90506020020160208101906105ba9190611a2f565b60059061155d565b61060257604080518082018252600e81526d1393d11157d393d517d193d5539160921b6020820152905162461bcd60e51b81526102529190600401611bdd565b600101610588565b5060006040518060a0016040528087815260200160006001600160401b0316815260200160006001600160401b0316815260200160006001600160401b0316815260200189898080602002602001604051908101604052809392919081815260200183836020028082843760009201829052509390945250929350610692925090508a61157f565b5060008981526002602081815260409283902084518155818501516001820180549587015160608801516001600160401b03908116600160801b0267ffffffffffffffff60801b19928216600160401b026fffffffffffffffffffffffffffffffff1990991691909416179690961795909516179093556080840151805185949361072293908501920190611667565b505050600089815260036020526040902061073e858783611cad565b5060008981526004602052604090819020879055517f55ef7efc60ef99743e54209752c9a8e047e013917ec91572db75875069dd65bb9061078a908b908b908b908b908b908b90611db5565b60405180910390a1505050505050505050565b816107a9600082611542565b6107e45760408051808201825260098152681393d517d193d5539160ba1b6020820152905162461bcd60e51b81526102529190600401611bdd565b336000818152600760205260409020600201546001600160a01b031661084057604080518082018252600e81526d1393d11157d393d517d193d5539160921b6020820152905162461bcd60e51b81526102529190600401611bdd565b600084815260026020819052604082209081015490915b818110156108dc57856001600160a01b031683600201828154811061087e5761087e611c2a565b6000918252602090912001546001600160a01b0316036108d457604080518082018252600e81526d414c52454144595f45584953545360901b6020820152905162461bcd60e51b81526102529190600401611bdd565b600101610857565b5060028201805460018082018355600092835260209283902090910180546001600160a01b0319166001600160a01b038916908117909155604080518a8152938401919091528201527faaa473c28a5fe04b6a7ecd795826e462f9d0c23f00ef9f51ec02fa6ea418806f9060600160405180910390a1505050505050565b336000818152600760205260409020600201546001600160a01b03166109b657604080518082018252600e81526d1393d11157d393d517d193d5539160921b6020820152905162461bcd60e51b81526102529190600401611bdd565b6109c1600085611542565b15610a0257604080518082018252600e81526d414c52454144595f45584953545360901b6020820152905162461bcd60e51b81526102529190600401611bdd565b6000610a116080840184611e0b565b9050905060005b81811015610a8857610a40610a306080860186611e0b565b838181106105a5576105a5611c2a565b610a8057604080518082018252600e81526d1393d11157d393d517d193d5539160921b6020820152905162461bcd60e51b81526102529190600401611bdd565b600101610a18565b50610a9460008661157f565b5060008581526002602052604090208390610aaf8282611eed565b505060008581526004602052604090819020859055517fac1b69e6e0382c43def3cccabf63091ba47b5d8b10a705d16a1076668643fe4d90610af690879087908790611fc2565b60405180910390a15050505050565b6000610b108161158b565b905090565b600080610b218161158b565b905060005b81811015610bb7576000610b3a8183611595565b60008181526002602052604081209192505b6002820154811015610ba957866001600160a01b0316826002018281548110610b7757610b77611c2a565b6000918252602090912001546001600160a01b031603610ba157610b9a8661208b565b9550610ba9565b600101610b4c565b505050806001019050610b26565b5050919050565b60606000828410610bfe5760408051808201825260078152664241445f41524760c81b6020820152905162461bcd60e51b81526102529190600401611bdd565b6000610c098161158b565b90506000818511610c1a5784610c1c565b815b90506000868211610c2e576000610c38565b610c3887836120a4565b90506000816001600160401b03811115610c5457610c54611c40565b604051908082528060200260200182016040528015610c8d57816020015b610c7a6116cc565b815260200190600190039081610c725790505b50905060005b82811015610d9d576000610cb2610caa838c6120b7565b600090611595565b60408051808201825282815260008381526002602081815291849020845160a0810186528154815260018201546001600160401b0380821683870152600160401b8204811683890152600160801b9091041660608201529181018054865181860281018601909752808752969750939583870195929491936080860193929190830182828015610d6b57602002820191906000526020600020905b81546001600160a01b03168152600190910190602001808311610d4d575b505050505081525050815250838381518110610d8957610d89611c2a565b602090810291909101015250600101610c93565b509450505083101590505b9250929050565b6000610dbb8183611542565b92915050565b336000818152600760205260409020600201546001600160a01b0316610e1d57604080518082018252600e81526d1393d11157d393d517d193d5539160921b6020820152905162461bcd60e51b81526102529190600401611bdd565b610e28600087611542565b610e635760408051808201825260098152681393d517d193d5539160ba1b6020820152905162461bcd60e51b81526102529190600401611bdd565b6000868152600260205260409020600180820154600160801b90041615610ebf57604080518082018252600d81526c14d51491505357d4d150531151609a1b6020820152905162461bcd60e51b81526102529190600401611bdd565b60018101546001600160401b03808616911610610f0b5760408051808201825260078152664241445f41524760c81b6020820152905162461bcd60e51b81526102529190600401611bdd565b6000878152600360205260408120610f2291611716565b84815560018101805467ffffffffffffffff19166001600160401b0386161790558215610f7c576001818101805467ffffffffffffffff60801b198116600160801b918290046001600160401b0316909317029190911790555b610f88878686866115a1565b50505050505050565b81610f9d600082611542565b610fd85760408051808201825260098152681393d517d193d5539160ba1b6020820152905162461bcd60e51b81526102529190600401611bdd565b336000818152600760205260409020600201546001600160a01b031661103457604080518082018252600e81526d1393d11157d393d517d193d5539160921b6020820152905162461bcd60e51b81526102529190600401611bdd565b6000848152600260208190526040822090810154909190815b8181101561114f57866001600160a01b031684600201828154811061107457611074611c2a565b6000918252602090912001546001600160a01b031603611147576002840161109d6001846120a4565b815481106110ad576110ad611c2a565b6000918252602090912001546002850180546001600160a01b0390921691839081106110db576110db611c2a565b9060005260206000200160006101000a8154816001600160a01b0302191690836001600160a01b031602179055508360020180548061111c5761111c6120ca565b600082815260209020810160001990810180546001600160a01b03191690550190556001925061114f565b60010161104d565b508161119157604080518082018252600e81526d1393d11157d393d517d193d5539160921b6020820152905162461bcd60e51b81526102529190600401611bdd565b604080518881526001600160a01b038816602082015260008183015290517faaa473c28a5fe04b6a7ecd795826e462f9d0c23f00ef9f51ec02fa6ea418806f9181900360600190a150505050505050565b336000818152600760205260409020600201546001600160a01b031661123e57604080518082018252600e81526d1393d11157d393d517d193d5539160921b6020820152905162461bcd60e51b81526102529190600401611bdd565b81600081900361127d5760408051808201825260078152664241445f41524760c81b6020820152905162461bcd60e51b81526102529190600401611bdd565b60005b8181101561153b573685858381811061129b5761129b611c2a565b60a0029190910191506112b2905060008235611542565b61132a577f75460fe319331413a18a82d99b07735cec53fa0c4061ada38c2141e331082afa813560408301356112ee60808501606086016120e0565b60408051808201825260098152681393d517d193d5539160ba1b6020820152905161131c94939291906120fd565b60405180910390a150611533565b80356000908152600260205260409020600180820154600160801b900416156113c6577f75460fe319331413a18a82d99b07735cec53fa0c4061ada38c2141e331082afa8235604084013561138560808601606087016120e0565b604080518082018252600d81526c14d51491505357d4d150531151609a1b602082015290516113b794939291906120fd565b60405180910390a15050611533565b6113d660808301606084016120e0565b60018201546001600160401b03918216911610611451577f75460fe319331413a18a82d99b07735cec53fa0c4061ada38c2141e331082afa8235604084013561142560808601606087016120e0565b60408051808201825260078152664241445f41524760c81b602082015290516113b794939291906120fd565b60018101546001600160401b031660000361147f578135600090815260036020526040812061147f91611716565b6040820135815561149660808301606084016120e0565b60018201805467ffffffffffffffff19166001600160401b03929092169190911790556114c960a083016080840161212b565b15611501576001818101805467ffffffffffffffff60801b198116600160801b918290046001600160401b0316909317029190911790555b6115308235604084013561151b60808601606087016120e0565b61152b60a087016080880161212b565b6115a1565b50505b600101611280565b5050505050565b600081815260018301602052604081205415155b9392505050565b6001600160a01b03811660009081526001830160205260408120541515611556565b600061155683836115ee565b6000610dbb825490565b6000611556838361163d565b60007fccc26bbb6dd655ea0bb8a40a3c30e35c6bdf42f8faf0d71bbea897af768cda8b9050604051856000528460205283604052826060528160806000a160405250506000606052505050565b600081815260018301602052604081205461163557508154600181810184556000848152602080822090930184905584548482528286019093526040902091909155610dbb565b506000610dbb565b600082600001828154811061165457611654611c2a565b9060005260206000200154905092915050565b8280548282559060005260206000209081019282156116bc579160200282015b828111156116bc57825182546001600160a01b0319166001600160a01b03909116178255602090920191600190910190611687565b506116c8929150611753565b5090565b6040805180820190915260008152602081016117116040805160a081018252600080825260208201819052918101829052606080820192909252608081019190915290565b905290565b50805461172290611bf0565b6000825580601f10611732575050565b601f0160209004906000526020600020908101906117509190611753565b50565b5b808211156116c85760008155600101611754565b60006020828403121561177a57600080fd5b5035919050565b600060a08301825184526020808401516001600160401b0380821660208801528060408701511660408801528060608701511660608801525050608084015160a0608087015282815180855260c088019150602083019450600092505b808310156118075784516001600160a01b031682529383019360019290920191908301906117de565b509695505050505050565b6020815260006115566020830184611781565b6000815180845260005b8181101561184b5760208185018101518683018201520161182f565b506000602082860101526020601f19601f83011685010191505092915050565b60608152600061187e6060830186611781565b84602084015282810360408401526118968185611825565b9695505050505050565b60008083601f8401126118b257600080fd5b5081356001600160401b038111156118c957600080fd5b602083019150836020828501011115610da857600080fd5b600080600080600080608087890312156118fa57600080fd5b8635955060208701356001600160401b038082111561191857600080fd5b818901915089601f83011261192c57600080fd5b81358181111561193b57600080fd5b8a60208260051b850101111561195057600080fd5b6020830197508096505060408901359450606089013591508082111561197557600080fd5b5061198289828a016118a0565b979a9699509497509295939492505050565b6001600160a01b038116811461175057600080fd5b600080604083850312156119bc57600080fd5b8235915060208301356119ce81611994565b809150509250929050565b6000806000606084860312156119ee57600080fd5b833592506020840135915060408401356001600160401b03811115611a1257600080fd5b840160a08187031215611a2457600080fd5b809150509250925092565b600060208284031215611a4157600080fd5b813561155681611994565b60008060408385031215611a5f57600080fd5b50508035926020909101359150565b600060408083016040845280865180835260608601915060608160051b8701019250602080890160005b83811015611ad757888603605f19018552815180518752830151838701889052611ac488880182611781565b9650509382019390820190600101611a98565b5050961515959096019490945295945050505050565b6001600160401b038116811461175057600080fd5b80358015158114611b1257600080fd5b919050565b600080600080600060a08688031215611b2f57600080fd5b8535945060208601359350604086013592506060860135611b4f81611aed565b9150611b5d60808701611b02565b90509295509295909350565b60008060208385031215611b7c57600080fd5b82356001600160401b0380821115611b9357600080fd5b818501915085601f830112611ba757600080fd5b813581811115611bb657600080fd5b86602060a083028501011115611bcb57600080fd5b60209290920196919550909350505050565b6020815260006115566020830184611825565b600181811c90821680611c0457607f821691505b602082108103611c2457634e487b7160e01b600052602260045260246000fd5b50919050565b634e487b7160e01b600052603260045260246000fd5b634e487b7160e01b600052604160045260246000fd5b5b81811015611c6b5760008155600101611c57565b5050565b601f821115611ca857806000526020600020601f840160051c81016020851015611c965750805b61153b601f850160051c830182611c56565b505050565b6001600160401b03831115611cc457611cc4611c40565b611cd883611cd28354611bf0565b83611c6f565b6000601f841160018114611d0c5760008515611cf45750838201355b600019600387901b1c1916600186901b17835561153b565b600083815260209020601f19861690835b82811015611d3d5786850135825560209485019460019092019101611d1d565b5086821015611d5a5760001960f88860031b161c19848701351681555b505060018560011b0183555050505050565b8183526000602080850194508260005b85811015611daa578135611d8f81611994565b6001600160a01b031687529582019590820190600101611d7c565b509495945050505050565b868152608060208201526000611dcf608083018789611d6c565b8560408401528281036060840152838152838560208301376000602085830101526020601f19601f860116820101915050979650505050505050565b6000808335601e19843603018112611e2257600080fd5b8301803591506001600160401b03821115611e3c57600080fd5b6020019150600581901b3603821315610da857600080fd5b634e487b7160e01b600052601160045260246000fd5b6001600160401b03831115611e8157611e81611c40565b600160401b831115611e9557611e95611c40565b805483825580841015611ebb57816000526020600020611eb9828201868301611c56565b505b50818160005260208060002060005b86811015610f88578335611edd81611994565b8282015592820192600101611eca565b81358155600181016020830135611f0381611aed565b6001600160401b0382546040860135611f1b81611aed565b6060870135611f2981611aed565b6001600160401b0360801b8160801b168486166001600160401b0360c01b8516176fffffffffffffffff00000000000000008460401b161717865550505060808501359250601e19853603018312611f8057600080fd5b918401918235915080821115611f9557600080fd5b506020820191508060051b3603821315611fae57600080fd5b611fbc818360028601611e6a565b50505050565b838152826020820152606060408201528135606082015260006020830135611fe981611aed565b6001600160401b03908116608084015260408401359061200882611aed565b90811660a084015260608401359061201f82611aed565b90811660c084015260808401359036859003601e1901821261204057600080fd5b602091850191820191358181111561205757600080fd5b8060051b360383131561206957600080fd5b60a060e086015261207f61010086018285611d6c565b98975050505050505050565b60006001820161209d5761209d611e54565b5060010190565b81810381811115610dbb57610dbb611e54565b80820180821115610dbb57610dbb611e54565b634e487b7160e01b600052603160045260246000fd5b6000602082840312156120f257600080fd5b813561155681611aed565b8481528360208201526001600160401b03831660408201526080606082015260006118966080830184611825565b60006020828403121561213d57600080fd5b61155682611b0256","linkReferences":{}},"methodIdentifiers":{"addStream(bytes32,bytes32,(bytes32,uint64,uint64,uint64,address[]))":"b2e76b8e","allocateStream(bytes32,address[],bytes32,bytes)":"6b883c39","getPaginatedStreams(uint256,uint256)":"ca78c41a","getStream(bytes32)":"1290abe8","getStreamCount()":"c0f22084","getStreamCountOnNode(address)":"c87d1324","getStreamWithGenesis(bytes32)":"3c2544d1","isStream(bytes32)":"d0c27c4f","placeStreamOnNode(bytes32,address)":"9ee86d38","removeStreamFromNode(bytes32,address)":"ee885b12","setStreamLastMiniblock(bytes32,bytes32,bytes32,uint64,bool)":"d7a3158a","setStreamLastMiniblockBatch((bytes32,bytes32,bytes32,uint64,bool)[])":"ff3a14ab"},"id":207}