{"abi":[{"type":"function","name":"addStream","inputs":[{"name":"streamId","type":"bytes32","internalType":"bytes32"},{"name":"genesisMiniblockHash","type":"bytes32","internalType":"bytes32"},{"name":"stream","type":"tuple","internalType":"struct Stream","components":[{"name":"lastMiniblockHash","type":"bytes32","internalType":"bytes32"},{"name":"lastMiniblockNum","type":"uint64","internalType":"uint64"},{"name":"reserved0","type":"uint64","internalType":"uint64"},{"name":"flags","type":"uint64","internalType":"uint64"},{"name":"nodes","type":"address[]","internalType":"address[]"}]}],"outputs":[],"stateMutability":"nonpayable"},{"type":"function","name":"allocateStream","inputs":[{"name":"streamId","type":"bytes32","internalType":"bytes32"},{"name":"nodes","type":"address[]","internalType":"address[]"},{"name":"genesisMiniblockHash","type":"bytes32","internalType":"bytes32"},{"name":"genesisMiniblock","type":"bytes","internalType":"bytes"}],"outputs":[],"stateMutability":"nonpayable"},{"type":"function","name":"getPaginatedStreams","inputs":[{"name":"start","type":"uint256","internalType":"uint256"},{"name":"stop","type":"uint256","internalType":"uint256"}],"outputs":[{"name":"","type":"tuple[]","internalType":"struct StreamWithId[]","components":[{"name":"id","type":"bytes32","internalType":"bytes32"},{"name":"stream","type":"tuple","internalType":"struct Stream","components":[{"name":"lastMiniblockHash","type":"bytes32","internalType":"bytes32"},{"name":"lastMiniblockNum","type":"uint64","internalType":"uint64"},{"name":"reserved0","type":"uint64","internalType":"uint64"},{"name":"flags","type":"uint64","internalType":"uint64"},{"name":"nodes","type":"address[]","internalType":"address[]"}]}]},{"name":"","type":"bool","internalType":"bool"}],"stateMutability":"view"},{"type":"function","name":"getPaginatedStreamsOnNode","inputs":[{"name":"nodeAddress","type":"address","internalType":"address"},{"name":"start","type":"uint256","internalType":"uint256"},{"name":"stop","type":"uint256","internalType":"uint256"}],"outputs":[{"name":"streams","type":"tuple[]","internalType":"struct StreamWithId[]","components":[{"name":"id","type":"bytes32","internalType":"bytes32"},{"name":"stream","type":"tuple","internalType":"struct Stream","components":[{"name":"lastMiniblockHash","type":"bytes32","internalType":"bytes32"},{"name":"lastMiniblockNum","type":"uint64","internalType":"uint64"},{"name":"reserved0","type":"uint64","internalType":"uint64"},{"name":"flags","type":"uint64","internalType":"uint64"},{"name":"nodes","type":"address[]","internalType":"address[]"}]}]}],"stateMutability":"view"},{"type":"function","name":"getStream","inputs":[{"name":"streamId","type":"bytes32","internalType":"bytes32"}],"outputs":[{"name":"stream","type":"tuple","internalType":"struct Stream","components":[{"name":"lastMiniblockHash","type":"bytes32","internalType":"bytes32"},{"name":"lastMiniblockNum","type":"uint64","internalType":"uint64"},{"name":"reserved0","type":"uint64","internalType":"uint64"},{"name":"flags","type":"uint64","internalType":"uint64"},{"name":"nodes","type":"address[]","internalType":"address[]"}]}],"stateMutability":"view"},{"type":"function","name":"getStreamCount","inputs":[],"outputs":[{"name":"","type":"uint256","internalType":"uint256"}],"stateMutability":"view"},{"type":"function","name":"getStreamCountOnNode","inputs":[{"name":"nodeAddress","type":"address","internalType":"address"}],"outputs":[{"name":"count","type":"uint256","internalType":"uint256"}],"stateMutability":"view"},{"type":"function","name":"getStreamWithGenesis","inputs":[{"name":"streamId","type":"bytes32","internalType":"bytes32"}],"outputs":[{"name":"stream","type":"tuple","internalType":"struct Stream","components":[{"name":"lastMiniblockHash","type":"bytes32","internalType":"bytes32"},{"name":"lastMiniblockNum","type":"uint64","internalType":"uint64"},{"name":"reserved0","type":"uint64","internalType":"uint64"},{"name":"flags","type":"uint64","internalType":"uint64"},{"name":"nodes","type":"address[]","internalType":"address[]"}]},{"name":"","type":"bytes32","internalType":"bytes32"},{"name":"","type":"bytes","internalType":"bytes"}],"stateMutability":"view"},{"type":"function","name":"isStream","inputs":[{"name":"streamId","type":"bytes32","internalType":"bytes32"}],"outputs":[{"name":"","type":"bool","internalType":"bool"}],"stateMutability":"view"},{"type":"function","name":"placeStreamOnNode","inputs":[{"name":"streamId","type":"bytes32","internalType":"bytes32"},{"name":"nodeAddress","type":"address","internalType":"address"}],"outputs":[],"stateMutability":"nonpayable"},{"type":"function","name":"removeStreamFromNode","inputs":[{"name":"streamId","type":"bytes32","internalType":"bytes32"},{"name":"nodeAddress","type":"address","internalType":"address"}],"outputs":[],"stateMutability":"nonpayable"},{"type":"function","name":"setStreamLastMiniblock","inputs":[{"name":"streamId","type":"bytes32","internalType":"bytes32"},{"name":"","type":"bytes32","internalType":"bytes32"},{"name":"lastMiniblockHash","type":"bytes32","internalType":"bytes32"},{"name":"lastMiniblockNum","type":"uint64","internalType":"uint64"},{"name":"isSealed","type":"bool","internalType":"bool"}],"outputs":[],"stateMutability":"nonpayable"},{"type":"function","name":"setStreamLastMiniblockBatch","inputs":[{"name":"miniblocks","type":"tuple[]","internalType":"struct SetMiniblock[]","components":[{"name":"streamId","type":"bytes32","internalType":"bytes32"},{"name":"prevMiniBlockHash","type":"bytes32","internalType":"bytes32"},{"name":"lastMiniblockHash","type":"bytes32","internalType":"bytes32"},{"name":"lastMiniblockNum","type":"uint64","internalType":"uint64"},{"name":"isSealed","type":"bool","internalType":"bool"}]}],"outputs":[],"stateMutability":"nonpayable"},{"type":"function","name":"syncNodesOnStreams","inputs":[{"name":"start","type":"uint256","internalType":"uint256"},{"name":"stop","type":"uint256","internalType":"uint256"}],"outputs":[],"stateMutability":"nonpayable"},{"type":"event","name":"StreamAllocated","inputs":[{"name":"streamId","type":"bytes32","indexed":false,"internalType":"bytes32"},{"name":"nodes","type":"address[]","indexed":false,"internalType":"address[]"},{"name":"genesisMiniblockHash","type":"bytes32","indexed":false,"internalType":"bytes32"},{"name":"genesisMiniblock","type":"bytes","indexed":false,"internalType":"bytes"}],"anonymous":false},{"type":"event","name":"StreamCreated","inputs":[{"name":"streamId","type":"bytes32","indexed":false,"internalType":"bytes32"},{"name":"genesisMiniblockHash","type":"bytes32","indexed":false,"internalType":"bytes32"},{"name":"stream","type":"tuple","indexed":false,"internalType":"struct Stream","components":[{"name":"lastMiniblockHash","type":"bytes32","internalType":"bytes32"},{"name":"lastMiniblockNum","type":"uint64","internalType":"uint64"},{"name":"reserved0","type":"uint64","internalType":"uint64"},{"name":"flags","type":"uint64","internalType":"uint64"},{"name":"nodes","type":"address[]","internalType":"address[]"}]}],"anonymous":false},{"type":"event","name":"StreamLastMiniblockUpdateFailed","inputs":[{"name":"streamId","type":"bytes32","indexed":false,"internalType":"bytes32"},{"name":"lastMiniblockHash","type":"bytes32","indexed":false,"internalType":"bytes32"},{"name":"lastMiniblockNum","type":"uint64","indexed":false,"internalType":"uint64"},{"name":"reason","type":"string","indexed":false,"internalType":"string"}],"anonymous":false},{"type":"event","name":"StreamLastMiniblockUpdated","inputs":[{"name":"streamId","type":"bytes32","indexed":false,"internalType":"bytes32"},{"name":"lastMiniblockHash","type":"bytes32","indexed":false,"internalType":"bytes32"},{"name":"lastMiniblockNum","type":"uint64","indexed":false,"internalType":"uint64"},{"name":"isSealed","type":"bool","indexed":false,"internalType":"bool"}],"anonymous":false},{"type":"event","name":"StreamPlacementUpdated","inputs":[{"name":"streamId","type":"bytes32","indexed":false,"internalType":"bytes32"},{"name":"nodeAddress","type":"address","indexed":false,"internalType":"address"},{"name":"isAdded","type":"bool","indexed":false,"internalType":"bool"}],"anonymous":false}],"bytecode":{"object":"0x608060405234801561001057600080fd5b50612274806100206000396000f3fe608060405234801561001057600080fd5b50600436106100ea5760003560e01c8063c0f220841161008c578063d0c27c4f11610066578063d0c27c4f146101f2578063d7a3158a14610215578063ee885b1214610228578063ff3a14ab1461023b57600080fd5b8063c0f22084146101a8578063c87d1324146101be578063ca78c41a146101d157600080fd5b80633c2544d1116100c85780633c2544d11461014d5780636b883c391461016f5780639ee86d3814610182578063b2e76b8e1461019557600080fd5b806303cc8793146100ef5780631290abe81461010457806322bbda641461012d575b600080fd5b6101026100fd366004611873565b61024e565b005b610117610112366004611895565b61030f565b604051610124919061193f565b60405180910390f35b61014061013b366004611967565b6103f3565b6040516101249190611a08565b61016061015b366004611895565b610585565b60405161012493929190611a61565b61010261017d366004611ad7565b610717565b610102610190366004611b8a565b610852565b6101026101a3366004611bba565b6109ef565b6101b0610aee565b604051908152602001610124565b6101b06101cc366004611c10565b610afe565b6101e46101df366004611873565b610b25565b604051610124929190611c2d565b610205610200366004611895565b610ca4565b6040519015158152602001610124565b610102610223366004611c7b565b610cb0565b610102610236366004611b8a565b610e45565b610102610249366004611ccd565b611075565b60008061025a816113d5565b838118908411028318848111908590030284019150505b8083101561030a57600061028581856113df565b600081815260026020819052604082209081018054939450909290915b818110156102fa576102f1856000600f0160008685815481106102c7576102c7611d41565b60009182526020808320909101546001600160a01b031683528201929092526040019020906113f2565b506001016102a2565b5050505050826001019250610271565b505050565b60408051600080825260208201819052818301819052606080830191909152608082015290819052610340826113fe565b600082815260026020818152604092839020835160a0810185528154815260018201546001600160401b0380821683860152600160401b8204811683880152600160801b90910416606082015292810180548551818502810185019096528086529394919360808601938301828280156103e357602002820191906000526020600020905b81546001600160a01b031681526001909101906020018083116103c5575b5050505050815250509050919050565b6001600160a01b0383166000908152600f60205260408120606091610417826113d5565b905083811881851102841885811186820302806001600160401b0381111561044157610441611d57565b60405190808252806020026020018201604052801561047a57816020015b61046761177b565b81526020019060019003908161045f5790505b50945060005b8181101561057957600086828151811061049c5761049c611d41565b602002602001015190506104bb828a01876113df90919063ffffffff16565b808252600090815260026020818152604092839020835160a0810185528154815260018201546001600160401b0380821683860152600160401b8204811683880152600160801b909104166060820152928101805485518185028101850190965280865293949193608086019383018282801561056157602002820191906000526020600020905b81546001600160a01b03168152600190910190602001808311610543575b50505091909252505050602090910152600101610480565b50505050509392505050565b604080516000808252602082018190528183018190526060808301829052608083018190529282905290916105b9846113fe565b600084815260026020818152604080842060048352818520546003845294829020825160a0810184528254815260018301546001600160401b0380821683880152600160401b8204811683870152600160801b9091041660608201529482018054845181870281018701909552808552929695919491938793608086019391929183018282801561067357602002820191906000526020600020905b81546001600160a01b03168152600190910190602001808311610655575b505050505081525050925080805461068a90611d6d565b80601f01602080910402602001604051908101604052809291908181526020018280546106b690611d6d565b80156107035780601f106106d857610100808354040283529160200191610703565b820191906000526020600020905b8154815290600101906020018083116106e657829003601f168201915b505050505090509250925092509193909250565b336000818152600760205260409020600201546001600160a01b031661077c57604080518082018252600e81526d1393d11157d393d517d193d5539160921b6020820152905162461bcd60e51b81526107739190600401611da7565b60405180910390fd5b8661078681611447565b86866107928282611493565b60008a815260026020819052604082209189918c918c918591906107b990830185856117c5565b505092909255506107cd905060008c6113f2565b5060008b81526003602052604090206107e7878983611e0c565b5060008b81526004602052604090208890556108048b8b8b61153c565b7f55ef7efc60ef99743e54209752c9a8e047e013917ec91572db75875069dd65bb8b8b8b8b8b8b60405161083d96959493929190611f14565b60405180910390a15050505050505050505050565b8161085c816113fe565b336000818152600760205260409020600201546001600160a01b03166108b857604080518082018252600e81526d1393d11157d393d517d193d5539160921b6020820152905162461bcd60e51b81526107739190600401611da7565b60008481526002602081815260408084206001600160a01b0388168552600f909252909220908201906108eb90876113f2565b50805460005b8181101561097357866001600160a01b031683828154811061091557610915611d41565b6000918252602090912001546001600160a01b03160361096b57604080518082018252600e81526d414c52454144595f45584953545360901b6020820152905162461bcd60e51b81526107739190600401611da7565b6001016108f1565b50815460018082018455600084815260209081902090920180546001600160a01b0319166001600160a01b038a16908117909155604080518b8152938401919091528201527faaa473c28a5fe04b6a7ecd795826e462f9d0c23f00ef9f51ec02fa6ea418806f906060015b60405180910390a150505050505050565b336000818152600760205260409020600201546001600160a01b0316610a4b57604080518082018252600e81526d1393d11157d393d517d193d5539160921b6020820152905162461bcd60e51b81526107739190600401611da7565b83610a5581611447565b610a626080840184611f6a565b610a6c8282611493565b610a776000886113f2565b5060008781526002602052604090208590610a92828261203f565b50506000878152600460205260409020869055610abb87610ab66080880188611f6a565b61153c565b7fac1b69e6e0382c43def3cccabf63091ba47b5d8b10a705d16a1076668643fe4d8787876040516109de9392919061210e565b6000610af9816113d5565b905090565b6001600160a01b0381166000908152600f60205260408120610b1f906113d5565b92915050565b6060600080610b33816113d5565b9050838118818511028418858111868203026000816001600160401b03811115610b5f57610b5f611d57565b604051908082528060200260200182016040528015610b9857816020015b610b8561177b565b815260200190600190039081610b7d5790505b50905060005b82811015610c92576000828281518110610bba57610bba611d41565b60209081029190910101519050610bd460008b84016113df565b808252600090815260026020818152604092839020835160a0810185528154815260018201546001600160401b0380821683860152600160401b8204811683880152600160801b9091041660608201529281018054855181850281018501909652808652939491936080860193830182828015610c7a57602002820191906000526020600020905b81546001600160a01b03168152600190910190602001808311610c5c575b50505091909252505050602090910152600101610b9e565b509450505083101590505b9250929050565b6000610b1f818361159e565b336000818152600760205260409020600201546001600160a01b0316610d0c57604080518082018252600e81526d1393d11157d393d517d193d5539160921b6020820152905162461bcd60e51b81526107739190600401611da7565b85610d16816113fe565b6000878152600260205260409020600180820154600160801b90041615610d7257604080518082018252600d81526c14d51491505357d4d150531151609a1b6020820152905162461bcd60e51b81526107739190600401611da7565b60018101546001600160401b03808716911610610dbe5760408051808201825260078152664241445f41524760c81b6020820152905162461bcd60e51b81526107739190600401611da7565b6000888152600360205260408120610dd591611828565b85815560018101805467ffffffffffffffff19166001600160401b0387161790558315610e2f576001818101805467ffffffffffffffff60801b198116600160801b918290046001600160401b0316909317029190911790555b610e3b888787876115b6565b5050505050505050565b81610e4f816113fe565b336000818152600760205260409020600201546001600160a01b0316610eab57604080518082018252600e81526d1393d11157d393d517d193d5539160921b6020820152905162461bcd60e51b81526107739190600401611da7565b60008481526002602081815260408084206001600160a01b0388168552600f90925290922090820190610ede9087611603565b508054600090815b81811015610fe157876001600160a01b0316848281548110610f0a57610f0a611d41565b6000918252602090912001546001600160a01b031603610fd95783610f306001846121d7565b81548110610f4057610f40611d41565b9060005260206000200160009054906101000a90046001600160a01b0316848281548110610f7057610f70611d41565b9060005260206000200160006101000a8154816001600160a01b0302191690836001600160a01b0316021790555083805480610fae57610fae6121f8565b600082815260209020810160001990810180546001600160a01b031916905501905560019250610fe1565b600101610ee6565b508161102357604080518082018252600e81526d1393d11157d393d517d193d5539160921b6020820152905162461bcd60e51b81526107739190600401611da7565b604080518981526001600160a01b038916602082015260008183015290517faaa473c28a5fe04b6a7ecd795826e462f9d0c23f00ef9f51ec02fa6ea418806f9181900360600190a15050505050505050565b336000818152600760205260409020600201546001600160a01b03166110d157604080518082018252600e81526d1393d11157d393d517d193d5539160921b6020820152905162461bcd60e51b81526107739190600401611da7565b8160008190036111105760408051808201825260078152664241445f41524760c81b6020820152905162461bcd60e51b81526107739190600401611da7565b60005b818110156113ce573685858381811061112e5761112e611d41565b60a00291909101915061114590506000823561159e565b6111bd577f75460fe319331413a18a82d99b07735cec53fa0c4061ada38c2141e331082afa81356040830135611181608085016060860161220e565b60408051808201825260098152681393d517d193d5539160ba1b602082015290516111af949392919061222b565b60405180910390a1506113c6565b80356000908152600260205260409020600180820154600160801b90041615611259577f75460fe319331413a18a82d99b07735cec53fa0c4061ada38c2141e331082afa82356040840135611218608086016060870161220e565b604080518082018252600d81526c14d51491505357d4d150531151609a1b6020820152905161124a949392919061222b565b60405180910390a150506113c6565b611269608083016060840161220e565b60018201546001600160401b039182169116106112e4577f75460fe319331413a18a82d99b07735cec53fa0c4061ada38c2141e331082afa823560408401356112b8608086016060870161220e565b60408051808201825260078152664241445f41524760c81b6020820152905161124a949392919061222b565b60018101546001600160401b0316600003611312578135600090815260036020526040812061131291611828565b60408201358155611329608083016060840161220e565b60018201805467ffffffffffffffff19166001600160401b039290921691909117905561135c60a0830160808401612259565b15611394576001818101805467ffffffffffffffff60801b198116600160801b918290046001600160401b0316909317029190911790555b6113c3823560408401356113ae608086016060870161220e565b6113be60a0870160808801612259565b6115b6565b50505b600101611113565b5050505050565b6000610b1f825490565b60006113eb838361160f565b9392505050565b60006113eb8383611639565b61140960008261159e565b6114445760408051808201825260098152681393d517d193d5539160ba1b6020820152905162461bcd60e51b81526107739190600401611da7565b50565b61145260008261159e565b1561144457604080518082018252600e81526d414c52454144595f45584953545360901b6020820152905162461bcd60e51b81526107739190600401611da7565b8060005b81811015611536576114ee8484838181106114b4576114b4611d41565b90506020020160208101906114c99190611c10565b6005906001600160a01b038116600090815260018301602052604081205415156113eb565b61152e57604080518082018252600e81526d1393d11157d393d517d193d5539160921b6020820152905162461bcd60e51b81526107739190600401611da7565b600101611497565b50505050565b60005b818110156115365761159584600f600086868681811061156157611561611d41565b90506020020160208101906115769190611c10565b6001600160a01b031681526020810191909152604001600020906113f2565b5060010161153f565b600081815260018301602052604081205415156113eb565b60007fccc26bbb6dd655ea0bb8a40a3c30e35c6bdf42f8faf0d71bbea897af768cda8b9050604051856000528460205283604052826060528160806000a160405250506000606052505050565b60006113eb8383611688565b600082600001828154811061162657611626611d41565b9060005260206000200154905092915050565b600081815260018301602052604081205461168057508154600181810184556000848152602080822090930184905584548482528286019093526040902091909155610b1f565b506000610b1f565b600081815260018301602052604081205480156117715760006116ac6001836121d7565b85549091506000906116c0906001906121d7565b90508082146117255760008660000182815481106116e0576116e0611d41565b906000526020600020015490508087600001848154811061170357611703611d41565b6000918252602080832090910192909255918252600188019052604090208390555b8554869080611736576117366121f8565b600190038181906000526020600020016000905590558560010160008681526020019081526020016000206000905560019350505050610b1f565b6000915050610b1f565b6040805180820190915260008152602081016117c06040805160a081018252600080825260208201819052918101829052606080820192909252608081019190915290565b905290565b828054828255906000526020600020908101928215611818579160200282015b828111156118185781546001600160a01b0319166001600160a01b038435161782556020909201916001909101906117e5565b5061182492915061185e565b5090565b50805461183490611d6d565b6000825580601f10611844575050565b601f01602090049060005260206000209081019061144491905b5b80821115611824576000815560010161185f565b6000806040838503121561188657600080fd5b50508035926020909101359150565b6000602082840312156118a757600080fd5b5035919050565b600060a08301825184526020808401516001600160401b0380821660208801528060408701511660408801528060608701511660608801525050608084015160a0608087015282815180855260c088019150602083019450600092505b808310156119345784516001600160a01b0316825293830193600192909201919083019061190b565b509695505050505050565b6020815260006113eb60208301846118ae565b6001600160a01b038116811461144457600080fd5b60008060006060848603121561197c57600080fd5b833561198781611952565b95602085013595506040909401359392505050565b600082825180855260208086019550808260051b84010181860160005b848110156119fb57858303601f1901895281518051845284015160408585018190526119e7818601836118ae565b9a86019a94505050908301906001016119b9565b5090979650505050505050565b6020815260006113eb602083018461199c565b6000815180845260005b81811015611a4157602081850181015186830182015201611a25565b506000602082860101526020601f19601f83011685010191505092915050565b606081526000611a7460608301866118ae565b8460208401528281036040840152611a8c8185611a1b565b9695505050505050565b60008083601f840112611aa857600080fd5b5081356001600160401b03811115611abf57600080fd5b602083019150836020828501011115610c9d57600080fd5b60008060008060008060808789031215611af057600080fd5b8635955060208701356001600160401b0380821115611b0e57600080fd5b818901915089601f830112611b2257600080fd5b813581811115611b3157600080fd5b8a60208260051b8501011115611b4657600080fd5b60208301975080965050604089013594506060890135915080821115611b6b57600080fd5b50611b7889828a01611a96565b979a9699509497509295939492505050565b60008060408385031215611b9d57600080fd5b823591506020830135611baf81611952565b809150509250929050565b600080600060608486031215611bcf57600080fd5b833592506020840135915060408401356001600160401b03811115611bf357600080fd5b840160a08187031215611c0557600080fd5b809150509250925092565b600060208284031215611c2257600080fd5b81356113eb81611952565b604081526000611c40604083018561199c565b905082151560208301529392505050565b6001600160401b038116811461144457600080fd5b80358015158114611c7657600080fd5b919050565b600080600080600060a08688031215611c9357600080fd5b8535945060208601359350604086013592506060860135611cb381611c51565b9150611cc160808701611c66565b90509295509295909350565b60008060208385031215611ce057600080fd5b82356001600160401b0380821115611cf757600080fd5b818501915085601f830112611d0b57600080fd5b813581811115611d1a57600080fd5b86602060a083028501011115611d2f57600080fd5b60209290920196919550909350505050565b634e487b7160e01b600052603260045260246000fd5b634e487b7160e01b600052604160045260246000fd5b600181811c90821680611d8157607f821691505b602082108103611da157634e487b7160e01b600052602260045260246000fd5b50919050565b6020815260006113eb6020830184611a1b565b5b81811015611dcf5760008155600101611dbb565b5050565b601f82111561030a57806000526020600020601f840160051c81016020851015611dfa5750805b6113ce601f850160051c830182611dba565b6001600160401b03831115611e2357611e23611d57565b611e3783611e318354611d6d565b83611dd3565b6000601f841160018114611e6b5760008515611e535750838201355b600019600387901b1c1916600186901b1783556113ce565b600083815260209020601f19861690835b82811015611e9c5786850135825560209485019460019092019101611e7c565b5086821015611eb95760001960f88860031b161c19848701351681555b505060018560011b0183555050505050565b8183526000602080850194508260005b85811015611f09578135611eee81611952565b6001600160a01b031687529582019590820190600101611edb565b509495945050505050565b868152608060208201526000611f2e608083018789611ecb565b8560408401528281036060840152838152838560208301376000602085830101526020601f19601f860116820101915050979650505050505050565b6000808335601e19843603018112611f8157600080fd5b8301803591506001600160401b03821115611f9b57600080fd5b6020019150600581901b3603821315610c9d57600080fd5b6001600160401b03831115611fca57611fca611d57565b600160401b831115611fde57611fde611d57565b80548382558084101561200457816000526020600020612002828201868301611dba565b505b50818160005260208060002060005b8681101561203657833561202681611952565b8282015592820192600101612013565b50505050505050565b8135815560018101602083013561205581611c51565b6001600160401b038254604086013561206d81611c51565b606087013561207b81611c51565b6001600160401b0360801b8160801b168486166001600160401b0360c01b8516176fffffffffffffffff00000000000000008460401b161717865550505060808501359250601e198536030183126120d257600080fd5b9184019182359150808211156120e757600080fd5b506020820191508060051b360382131561210057600080fd5b611536818360028601611fb3565b83815282602082015260606040820152813560608201526000602083013561213581611c51565b6001600160401b03908116608084015260408401359061215482611c51565b90811660a084015260608401359061216b82611c51565b90811660c084015260808401359036859003601e1901821261218c57600080fd5b60209185019182019135818111156121a357600080fd5b8060051b36038313156121b557600080fd5b60a060e08601526121cb61010086018285611ecb565b98975050505050505050565b81810381811115610b1f57634e487b7160e01b600052601160045260246000fd5b634e487b7160e01b600052603160045260246000fd5b60006020828403121561222057600080fd5b81356113eb81611c51565b8481528360208201526001600160401b0383166040820152608060608201526000611a8c6080830184611a1b565b60006020828403121561226b57600080fd5b6113eb82611c6656","linkReferences":{}},"methodIdentifiers":{"addStream(bytes32,bytes32,(bytes32,uint64,uint64,uint64,address[]))":"b2e76b8e","allocateStream(bytes32,address[],bytes32,bytes)":"6b883c39","getPaginatedStreams(uint256,uint256)":"ca78c41a","getPaginatedStreamsOnNode(address,uint256,uint256)":"22bbda64","getStream(bytes32)":"1290abe8","getStreamCount()":"c0f22084","getStreamCountOnNode(address)":"c87d1324","getStreamWithGenesis(bytes32)":"3c2544d1","isStream(bytes32)":"d0c27c4f","placeStreamOnNode(bytes32,address)":"9ee86d38","removeStreamFromNode(bytes32,address)":"ee885b12","setStreamLastMiniblock(bytes32,bytes32,bytes32,uint64,bool)":"d7a3158a","setStreamLastMiniblockBatch((bytes32,bytes32,bytes32,uint64,bool)[])":"ff3a14ab","syncNodesOnStreams(uint256,uint256)":"03cc8793"},"id":25}