{"abi":[{"type":"function","name":"addStream","inputs":[{"name":"streamId","type":"bytes32","internalType":"bytes32"},{"name":"genesisMiniblockHash","type":"bytes32","internalType":"bytes32"},{"name":"stream","type":"tuple","internalType":"struct Stream","components":[{"name":"lastMiniblockHash","type":"bytes32","internalType":"bytes32"},{"name":"lastMiniblockNum","type":"uint64","internalType":"uint64"},{"name":"reserved0","type":"uint64","internalType":"uint64"},{"name":"flags","type":"uint64","internalType":"uint64"},{"name":"nodes","type":"address[]","internalType":"address[]"}]}],"outputs":[],"stateMutability":"nonpayable"},{"type":"function","name":"allocateStream","inputs":[{"name":"streamId","type":"bytes32","internalType":"bytes32"},{"name":"nodes","type":"address[]","internalType":"address[]"},{"name":"genesisMiniblockHash","type":"bytes32","internalType":"bytes32"},{"name":"genesisMiniblock","type":"bytes","internalType":"bytes"}],"outputs":[],"stateMutability":"nonpayable"},{"type":"function","name":"getPaginatedStreams","inputs":[{"name":"start","type":"uint256","internalType":"uint256"},{"name":"stop","type":"uint256","internalType":"uint256"}],"outputs":[{"name":"","type":"tuple[]","internalType":"struct StreamWithId[]","components":[{"name":"id","type":"bytes32","internalType":"bytes32"},{"name":"stream","type":"tuple","internalType":"struct Stream","components":[{"name":"lastMiniblockHash","type":"bytes32","internalType":"bytes32"},{"name":"lastMiniblockNum","type":"uint64","internalType":"uint64"},{"name":"reserved0","type":"uint64","internalType":"uint64"},{"name":"flags","type":"uint64","internalType":"uint64"},{"name":"nodes","type":"address[]","internalType":"address[]"}]}]},{"name":"","type":"bool","internalType":"bool"}],"stateMutability":"view"},{"type":"function","name":"getPaginatedStreamsOnNode","inputs":[{"name":"nodeAddress","type":"address","internalType":"address"},{"name":"start","type":"uint256","internalType":"uint256"},{"name":"stop","type":"uint256","internalType":"uint256"}],"outputs":[{"name":"streams","type":"tuple[]","internalType":"struct StreamWithId[]","components":[{"name":"id","type":"bytes32","internalType":"bytes32"},{"name":"stream","type":"tuple","internalType":"struct Stream","components":[{"name":"lastMiniblockHash","type":"bytes32","internalType":"bytes32"},{"name":"lastMiniblockNum","type":"uint64","internalType":"uint64"},{"name":"reserved0","type":"uint64","internalType":"uint64"},{"name":"flags","type":"uint64","internalType":"uint64"},{"name":"nodes","type":"address[]","internalType":"address[]"}]}]}],"stateMutability":"view"},{"type":"function","name":"getStream","inputs":[{"name":"streamId","type":"bytes32","internalType":"bytes32"}],"outputs":[{"name":"stream","type":"tuple","internalType":"struct Stream","components":[{"name":"lastMiniblockHash","type":"bytes32","internalType":"bytes32"},{"name":"lastMiniblockNum","type":"uint64","internalType":"uint64"},{"name":"reserved0","type":"uint64","internalType":"uint64"},{"name":"flags","type":"uint64","internalType":"uint64"},{"name":"nodes","type":"address[]","internalType":"address[]"}]}],"stateMutability":"view"},{"type":"function","name":"getStreamCount","inputs":[],"outputs":[{"name":"","type":"uint256","internalType":"uint256"}],"stateMutability":"view"},{"type":"function","name":"getStreamCountOnNode","inputs":[{"name":"nodeAddress","type":"address","internalType":"address"}],"outputs":[{"name":"count","type":"uint256","internalType":"uint256"}],"stateMutability":"view"},{"type":"function","name":"getStreamWithGenesis","inputs":[{"name":"streamId","type":"bytes32","internalType":"bytes32"}],"outputs":[{"name":"stream","type":"tuple","internalType":"struct Stream","components":[{"name":"lastMiniblockHash","type":"bytes32","internalType":"bytes32"},{"name":"lastMiniblockNum","type":"uint64","internalType":"uint64"},{"name":"reserved0","type":"uint64","internalType":"uint64"},{"name":"flags","type":"uint64","internalType":"uint64"},{"name":"nodes","type":"address[]","internalType":"address[]"}]},{"name":"","type":"bytes32","internalType":"bytes32"},{"name":"","type":"bytes","internalType":"bytes"}],"stateMutability":"view"},{"type":"function","name":"isStream","inputs":[{"name":"streamId","type":"bytes32","internalType":"bytes32"}],"outputs":[{"name":"","type":"bool","internalType":"bool"}],"stateMutability":"view"},{"type":"function","name":"placeStreamOnNode","inputs":[{"name":"streamId","type":"bytes32","internalType":"bytes32"},{"name":"nodeAddress","type":"address","internalType":"address"}],"outputs":[],"stateMutability":"nonpayable"},{"type":"function","name":"removeStreamFromNode","inputs":[{"name":"streamId","type":"bytes32","internalType":"bytes32"},{"name":"nodeAddress","type":"address","internalType":"address"}],"outputs":[],"stateMutability":"nonpayable"},{"type":"function","name":"setStreamLastMiniblockBatch","inputs":[{"name":"miniblocks","type":"tuple[]","internalType":"struct SetMiniblock[]","components":[{"name":"streamId","type":"bytes32","internalType":"bytes32"},{"name":"prevMiniBlockHash","type":"bytes32","internalType":"bytes32"},{"name":"lastMiniblockHash","type":"bytes32","internalType":"bytes32"},{"name":"lastMiniblockNum","type":"uint64","internalType":"uint64"},{"name":"isSealed","type":"bool","internalType":"bool"}]}],"outputs":[],"stateMutability":"nonpayable"},{"type":"function","name":"syncNodesOnStreams","inputs":[{"name":"start","type":"uint256","internalType":"uint256"},{"name":"stop","type":"uint256","internalType":"uint256"}],"outputs":[],"stateMutability":"nonpayable"},{"type":"event","name":"StreamAllocated","inputs":[{"name":"streamId","type":"bytes32","indexed":false,"internalType":"bytes32"},{"name":"nodes","type":"address[]","indexed":false,"internalType":"address[]"},{"name":"genesisMiniblockHash","type":"bytes32","indexed":false,"internalType":"bytes32"},{"name":"genesisMiniblock","type":"bytes","indexed":false,"internalType":"bytes"}],"anonymous":false},{"type":"event","name":"StreamCreated","inputs":[{"name":"streamId","type":"bytes32","indexed":false,"internalType":"bytes32"},{"name":"genesisMiniblockHash","type":"bytes32","indexed":false,"internalType":"bytes32"},{"name":"stream","type":"tuple","indexed":false,"internalType":"struct Stream","components":[{"name":"lastMiniblockHash","type":"bytes32","internalType":"bytes32"},{"name":"lastMiniblockNum","type":"uint64","internalType":"uint64"},{"name":"reserved0","type":"uint64","internalType":"uint64"},{"name":"flags","type":"uint64","internalType":"uint64"},{"name":"nodes","type":"address[]","internalType":"address[]"}]}],"anonymous":false},{"type":"event","name":"StreamLastMiniblockUpdateFailed","inputs":[{"name":"streamId","type":"bytes32","indexed":false,"internalType":"bytes32"},{"name":"lastMiniblockHash","type":"bytes32","indexed":false,"internalType":"bytes32"},{"name":"lastMiniblockNum","type":"uint64","indexed":false,"internalType":"uint64"},{"name":"reason","type":"string","indexed":false,"internalType":"string"}],"anonymous":false},{"type":"event","name":"StreamLastMiniblockUpdated","inputs":[{"name":"streamId","type":"bytes32","indexed":false,"internalType":"bytes32"},{"name":"lastMiniblockHash","type":"bytes32","indexed":false,"internalType":"bytes32"},{"name":"lastMiniblockNum","type":"uint64","indexed":false,"internalType":"uint64"},{"name":"isSealed","type":"bool","indexed":false,"internalType":"bool"}],"anonymous":false},{"type":"event","name":"StreamPlacementUpdated","inputs":[{"name":"streamId","type":"bytes32","indexed":false,"internalType":"bytes32"},{"name":"nodeAddress","type":"address","indexed":false,"internalType":"address"},{"name":"isAdded","type":"bool","indexed":false,"internalType":"bool"}],"anonymous":false},{"type":"event","name":"StreamUpdated","inputs":[{"name":"eventType","type":"uint8","indexed":true,"internalType":"enum IStreamRegistryBase.StreamEventType"},{"name":"data","type":"bytes","indexed":false,"internalType":"bytes"}],"anonymous":false}],"bytecode":{"object":"0x608060405234801561001057600080fd5b506123cd806100206000396000f3fe608060405234801561001057600080fd5b50600436106100cf5760003560e01c8063b2e76b8e1161008c578063ca78c41a11610066578063ca78c41a146101b6578063d0c27c4f146101d7578063ee885b12146101fa578063ff3a14ab1461020d57600080fd5b8063b2e76b8e1461017a578063c0f220841461018d578063c87d1324146101a357600080fd5b806303cc8793146100d45780631290abe8146100e957806322bbda64146101125780633c2544d1146101325780636b883c39146101545780639ee86d3814610167575b600080fd5b6100e76100e2366004611836565b610220565b005b6100fc6100f7366004611858565b6102e1565b6040516101099190611902565b60405180910390f35b61012561012036600461192a565b6103c5565b60405161010991906119cb565b610145610140366004611858565b610557565b60405161010993929190611a24565b6100e7610162366004611a9a565b6106e9565b6100e7610175366004611b4d565b610850565b6100e7610188366004611b7d565b610a0f565b610195610b26565b604051908152602001610109565b6101956101b1366004611bd3565b610b36565b6101c96101c4366004611836565b610b5d565b604051610109929190611bf0565b6101ea6101e5366004611858565b610cdc565b6040519015158152602001610109565b6100e7610208366004611b4d565b610ce8565b6100e761021b366004611c14565b610f30565b60008061022c81611359565b838118908411028318848111908590030284019150505b808310156102dc5760006102578185611363565b600081815260026020819052604082209081018054939450909290915b818110156102cc576102c3856000600f01600086858154811061029957610299611c88565b60009182526020808320909101546001600160a01b03168352820192909252604001902090611376565b50600101610274565b5050505050826001019250610243565b505050565b6040805160008082526020820181905281830181905260608083019190915260808201529081905261031282611382565b600082815260026020818152604092839020835160a0810185528154815260018201546001600160401b0380821683860152600160401b8204811683880152600160801b90910416606082015292810180548551818502810185019096528086529394919360808601938301828280156103b557602002820191906000526020600020905b81546001600160a01b03168152600190910190602001808311610397575b5050505050815250509050919050565b6001600160a01b0383166000908152600f602052604081206060916103e982611359565b905083811881851102841885811186820302806001600160401b0381111561041357610413611c9e565b60405190808252806020026020018201604052801561044c57816020015b61043961173e565b8152602001906001900390816104315790505b50945060005b8181101561054b57600086828151811061046e5761046e611c88565b6020026020010151905061048d828a018761136390919063ffffffff16565b808252600090815260026020818152604092839020835160a0810185528154815260018201546001600160401b0380821683860152600160401b8204811683880152600160801b909104166060820152928101805485518185028101850190965280865293949193608086019383018282801561053357602002820191906000526020600020905b81546001600160a01b03168152600190910190602001808311610515575b50505091909252505050602090910152600101610452565b50505050509392505050565b6040805160008082526020820181905281830181905260608083018290526080830181905292829052909161058b84611382565b600084815260026020818152604080842060048352818520546003845294829020825160a0810184528254815260018301546001600160401b0380821683880152600160401b8204811683870152600160801b9091041660608201529482018054845181870281018701909552808552929695919491938793608086019391929183018282801561064557602002820191906000526020600020905b81546001600160a01b03168152600190910190602001808311610627575b505050505081525050925080805461065c90611cb4565b80601f016020809104026020016040519081016040528092919081815260200182805461068890611cb4565b80156106d55780601f106106aa576101008083540402835291602001916106d5565b820191906000526020600020905b8154815290600101906020018083116106b857829003601f168201915b505050505090509250925092509193909250565b336000818152600760205260409020600201546001600160a01b031661074e57604080518082018252600e81526d1393d11157d393d517d193d5539160921b6020820152905162461bcd60e51b81526107459190600401611cee565b60405180910390fd5b86610758816113cb565b86866107648282611417565b60008a815260026020819052604082209189918c918c9185919061078b9083018585611788565b5050929092555061079f905060008c611376565b5060008b81526003602052604090206107b9878983611d5a565b5060008b81526004602052604090208890556107d68b8b8b6114c0565b61080260008c836040516020016107ee929190611e19565b604051602081830303815290604052611522565b7f55ef7efc60ef99743e54209752c9a8e047e013917ec91572db75875069dd65bb8b8b8b8b8b8b60405161083b96959493929190611f04565b60405180910390a15050505050505050505050565b8161085a81611382565b336000818152600760205260409020600201546001600160a01b03166108b657604080518082018252600e81526d1393d11157d393d517d193d5539160921b6020820152905162461bcd60e51b81526107459190600401611cee565b60008481526002602081815260408084206001600160a01b0388168552600f909252909220908201906108e99087611376565b50805460005b8181101561097157866001600160a01b031683828154811061091357610913611c88565b6000918252602090912001546001600160a01b03160361096957604080518082018252600e81526d414c52454144595f45584953545360901b6020820152905162461bcd60e51b81526107459190600401611cee565b6001016108ef565b508154600181018355600083815260209081902090910180546001600160a01b0319166001600160a01b0389161790556040516109b9916002916107ee918b91889101611e19565b604080518881526001600160a01b03881660208201526001918101919091527faaa473c28a5fe04b6a7ecd795826e462f9d0c23f00ef9f51ec02fa6ea418806f906060015b60405180910390a150505050505050565b336000818152600760205260409020600201546001600160a01b0316610a6b57604080518082018252600e81526d1393d11157d393d517d193d5539160921b6020820152905162461bcd60e51b81526107459190600401611cee565b83610a75816113cb565b610a826080840184611f5a565b610a8c8282611417565b610a97600088611376565b5060008781526002602052604090208590610ab2828261205a565b50506000878152600460205260409020869055610adb87610ad66080880188611f5a565b6114c0565b610af3600188876040516020016107ee9291906121d2565b7fac1b69e6e0382c43def3cccabf63091ba47b5d8b10a705d16a1076668643fe4d8787876040516109fe939291906121f3565b6000610b3181611359565b905090565b6001600160a01b0381166000908152600f60205260408120610b5790611359565b92915050565b6060600080610b6b81611359565b9050838118818511028418858111868203026000816001600160401b03811115610b9757610b97611c9e565b604051908082528060200260200182016040528015610bd057816020015b610bbd61173e565b815260200190600190039081610bb55790505b50905060005b82811015610cca576000828281518110610bf257610bf2611c88565b60209081029190910101519050610c0c60008b8401611363565b808252600090815260026020818152604092839020835160a0810185528154815260018201546001600160401b0380821683860152600160401b8204811683880152600160801b9091041660608201529281018054855181850281018501909652808652939491936080860193830182828015610cb257602002820191906000526020600020905b81546001600160a01b03168152600190910190602001808311610c94575b50505091909252505050602090910152600101610bd6565b509450505083101590505b9250929050565b6000610b578183611561565b81610cf281611382565b336000818152600760205260409020600201546001600160a01b0316610d4e57604080518082018252600e81526d1393d11157d393d517d193d5539160921b6020820152905162461bcd60e51b81526107459190600401611cee565b60008481526002602081815260408084206001600160a01b0388168552600f90925290922090820190610d819087611579565b508054600090815b81811015610e8457876001600160a01b0316848281548110610dad57610dad611c88565b6000918252602090912001546001600160a01b031603610e7c5783610dd360018461221b565b81548110610de357610de3611c88565b9060005260206000200160009054906101000a90046001600160a01b0316848281548110610e1357610e13611c88565b9060005260206000200160006101000a8154816001600160a01b0302191690836001600160a01b0316021790555083805480610e5157610e5161222e565b600082815260209020810160001990810180546001600160a01b031916905501905560019250610e84565b600101610d89565b5081610ec657604080518082018252600e81526d1393d11157d393d517d193d5539160921b6020820152905162461bcd60e51b81526107459190600401611cee565b610ede600289866040516020016107ee929190611e19565b604080518981526001600160a01b038916602082015260008183015290517faaa473c28a5fe04b6a7ecd795826e462f9d0c23f00ef9f51ec02fa6ea418806f9181900360600190a15050505050505050565b336000818152600760205260409020600201546001600160a01b0316610f8c57604080518082018252600e81526d1393d11157d393d517d193d5539160921b6020820152905162461bcd60e51b81526107459190600401611cee565b816000819003610fcb5760408051808201825260078152664241445f41524760c81b6020820152905162461bcd60e51b81526107459190600401611cee565b6000816001600160401b03811115610fe557610fe5611c9e565b60405190808252806020026020018201604052801561103e57816020015b6040805160a0810182526000808252602080830182905292820181905260608201819052608082015282526000199092019101816110035790505b5090506000805b83811015611337573687878381811061106057611060611c88565b60a002919091019150611077905060008235611561565b6110ef577f75460fe319331413a18a82d99b07735cec53fa0c4061ada38c2141e331082afa813560408301356110b36080850160608601612244565b60408051808201825260098152681393d517d193d5539160ba1b602082015290516110e19493929190612261565b60405180910390a15061132f565b80356000908152600260205260409020600180820154600160801b9004161561118b577f75460fe319331413a18a82d99b07735cec53fa0c4061ada38c2141e331082afa8235604084013561114a6080860160608701612244565b604080518082018252600d81526c14d51491505357d4d150531151609a1b6020820152905161117c9493929190612261565b60405180910390a1505061132f565b61119b6080830160608401612244565b60018201546001600160401b03918216911610611216577f75460fe319331413a18a82d99b07735cec53fa0c4061ada38c2141e331082afa823560408401356111ea6080860160608701612244565b60408051808201825260078152664241445f41524760c81b6020820152905161117c9493929190612261565b60018101546001600160401b03166000036112445781356000908152600360205260408120611244916117eb565b6040820135815561125b6080830160608401612244565b60018201805467ffffffffffffffff19166001600160401b039290921691909117905561128e60a08301608084016122a4565b156112c6576001818101805467ffffffffffffffff60801b198116600160801b918290046001600160401b0316909317029190911790555b6112d5368390038301836122bf565b85856112e08161233b565b9650815181106112f2576112f2611c88565b602090810291909101015261132c823560408401356113176080860160608701612244565b61132760a08701608088016122a4565b611585565b50505b600101611045565b508082526113516003836040516020016107ee9190612354565b505050505050565b6000610b57825490565b600061136f83836115d2565b9392505050565b600061136f83836115fc565b61138d600082611561565b6113c85760408051808201825260098152681393d517d193d5539160ba1b6020820152905162461bcd60e51b81526107459190600401611cee565b50565b6113d6600082611561565b156113c857604080518082018252600e81526d414c52454144595f45584953545360901b6020820152905162461bcd60e51b81526107459190600401611cee565b8060005b818110156114ba5761147284848381811061143857611438611c88565b905060200201602081019061144d9190611bd3565b6005906001600160a01b0381166000908152600183016020526040812054151561136f565b6114b257604080518082018252600e81526d1393d11157d393d517d193d5539160921b6020820152905162461bcd60e51b81526107459190600401611cee565b60010161141b565b50505050565b60005b818110156114ba5761151984600f60008686868181106114e5576114e5611c88565b90506020020160208101906114fa9190611bd3565b6001600160a01b03168152602081019190915260400160002090611376565b506001016114c3565b60007f378ece20ebca29c2f887798617154658265a73d80c84fad8c9c49639ffdb29bb9050602082038051602082528483604086510184a29052505050565b6000818152600183016020526040812054151561136f565b600061136f838361164b565b60007fccc26bbb6dd655ea0bb8a40a3c30e35c6bdf42f8faf0d71bbea897af768cda8b9050604051856000528460205283604052826060528160806000a160405250506000606052505050565b60008260000182815481106115e9576115e9611c88565b9060005260206000200154905092915050565b600081815260018301602052604081205461164357508154600181810184556000848152602080822090930184905584548482528286019093526040902091909155610b57565b506000610b57565b6000818152600183016020526040812054801561173457600061166f60018361221b565b85549091506000906116839060019061221b565b90508082146116e85760008660000182815481106116a3576116a3611c88565b90600052602060002001549050808760000184815481106116c6576116c6611c88565b6000918252602080832090910192909255918252600188019052604090208390555b85548690806116f9576116f961222e565b600190038181906000526020600020016000905590558560010160008681526020019081526020016000206000905560019350505050610b57565b6000915050610b57565b6040805180820190915260008152602081016117836040805160a081018252600080825260208201819052918101829052606080820192909252608081019190915290565b905290565b8280548282559060005260206000209081019282156117db579160200282015b828111156117db5781546001600160a01b0319166001600160a01b038435161782556020909201916001909101906117a8565b506117e7929150611821565b5090565b5080546117f790611cb4565b6000825580601f10611807575050565b601f0160209004906000526020600020908101906113c891905b5b808211156117e75760008155600101611822565b6000806040838503121561184957600080fd5b50508035926020909101359150565b60006020828403121561186a57600080fd5b5035919050565b600060a08301825184526020808401516001600160401b0380821660208801528060408701511660408801528060608701511660608801525050608084015160a0608087015282815180855260c088019150602083019450600092505b808310156118f75784516001600160a01b031682529383019360019290920191908301906118ce565b509695505050505050565b60208152600061136f6020830184611871565b6001600160a01b03811681146113c857600080fd5b60008060006060848603121561193f57600080fd5b833561194a81611915565b95602085013595506040909401359392505050565b600082825180855260208086019550808260051b84010181860160005b848110156119be57858303601f1901895281518051845284015160408585018190526119aa81860183611871565b9a86019a945050509083019060010161197c565b5090979650505050505050565b60208152600061136f602083018461195f565b6000815180845260005b81811015611a04576020818501810151868301820152016119e8565b506000602082860101526020601f19601f83011685010191505092915050565b606081526000611a376060830186611871565b8460208401528281036040840152611a4f81856119de565b9695505050505050565b60008083601f840112611a6b57600080fd5b5081356001600160401b03811115611a8257600080fd5b602083019150836020828501011115610cd557600080fd5b60008060008060008060808789031215611ab357600080fd5b8635955060208701356001600160401b0380821115611ad157600080fd5b818901915089601f830112611ae557600080fd5b813581811115611af457600080fd5b8a60208260051b8501011115611b0957600080fd5b60208301975080965050604089013594506060890135915080821115611b2e57600080fd5b50611b3b89828a01611a59565b979a9699509497509295939492505050565b60008060408385031215611b6057600080fd5b823591506020830135611b7281611915565b809150509250929050565b600080600060608486031215611b9257600080fd5b833592506020840135915060408401356001600160401b03811115611bb657600080fd5b840160a08187031215611bc857600080fd5b809150509250925092565b600060208284031215611be557600080fd5b813561136f81611915565b604081526000611c03604083018561195f565b905082151560208301529392505050565b60008060208385031215611c2757600080fd5b82356001600160401b0380821115611c3e57600080fd5b818501915085601f830112611c5257600080fd5b813581811115611c6157600080fd5b86602060a083028501011115611c7657600080fd5b60209290920196919550909350505050565b634e487b7160e01b600052603260045260246000fd5b634e487b7160e01b600052604160045260246000fd5b600181811c90821680611cc857607f821691505b602082108103611ce857634e487b7160e01b600052602260045260246000fd5b50919050565b60208152600061136f60208301846119de565b5b81811015611d165760008155600101611d02565b5050565b601f8211156102dc57806000526020600020601f840160051c81016020851015611d415750805b611d53601f850160051c830182611d01565b5050505050565b6001600160401b03831115611d7157611d71611c9e565b611d8583611d7f8354611cb4565b83611d1a565b6000601f841160018114611db95760008515611da15750838201355b600019600387901b1c1916600186901b178355611d53565b600083815260209020601f19861690835b82811015611dea5786850135825560209485019460019092019101611dca565b5086821015611e075760001960f88860031b161c19848701351681555b505060018560011b0183555050505050565b828152600060206040602084015260e08301845460408501526001808601546001600160401b038082166060880152808260401c166080880152808260801c1660a088015250506002860160a060c0870152828154808552610100880191508260005260206000209450600092505b80831015611eae5784546001600160a01b03168252938301939183019190850190611e88565b5098975050505050505050565b8183526000602080850194508260005b85811015611ef9578135611ede81611915565b6001600160a01b031687529582019590820190600101611ecb565b509495945050505050565b868152608060208201526000611f1e608083018789611ebb565b8560408401528281036060840152838152838560208301376000602085830101526020601f19601f860116820101915050979650505050505050565b6000808335601e19843603018112611f7157600080fd5b8301803591506001600160401b03821115611f8b57600080fd5b6020019150600581901b3603821315610cd557600080fd5b6001600160401b03811681146113c857600080fd5b634e487b7160e01b600052601160045260246000fd5b6001600160401b03831115611fe557611fe5611c9e565b600160401b831115611ff957611ff9611c9e565b80548382558084101561201f5781600052602060002061201d828201868301611d01565b505b50818160005260208060002060005b8681101561205157833561204181611915565b828201559282019260010161202e565b50505050505050565b8135815560018101602083013561207081611fa3565b6001600160401b038254604086013561208881611fa3565b606087013561209681611fa3565b6001600160401b0360801b8160801b168486166001600160401b0360c01b8516176fffffffffffffffff00000000000000008460401b161717865550505060808501359250601e198536030183126120ed57600080fd5b91840191823591508082111561210257600080fd5b506020820191508060051b360382131561211b57600080fd5b6114ba818360028601611fce565b803582526000602082013561213d81611fa3565b6001600160401b03908116602085015260408301359061215c82611fa3565b908116604085015260608301359061217382611fa3565b908116606085015260808301359036849003601e1901821261219457600080fd5b60209184019182019135818111156121ab57600080fd5b8060051b36038313156121bd57600080fd5b60a06080870152611a4f60a087018285611ebb565b8281526040602082015260006121eb6040830184612129565b949350505050565b8381528260208201526060604082015260006122126060830184612129565b95945050505050565b81810381811115610b5757610b57611fb8565b634e487b7160e01b600052603160045260246000fd5b60006020828403121561225657600080fd5b813561136f81611fa3565b8481528360208201526001600160401b0383166040820152608060608201526000611a4f60808301846119de565b8035801515811461229f57600080fd5b919050565b6000602082840312156122b657600080fd5b61136f8261228f565b600060a082840312156122d157600080fd5b60405160a081018181106001600160401b03821117156122f3576122f3611c9e565b8060405250823581526020830135602082015260408301356040820152606083013561231e81611fa3565b606082015261232f6080840161228f565b60808201529392505050565b60006001820161234d5761234d611fb8565b5060010190565b602080825282518282018190526000919060409081850190868401855b828110156123c057815180518552868101518786015285810151868601526060808201516001600160401b03169086015260809081015115159085015260a09093019290850190600101612371565b509197965050505050505056","linkReferences":{}},"methodIdentifiers":{"addStream(bytes32,bytes32,(bytes32,uint64,uint64,uint64,address[]))":"b2e76b8e","allocateStream(bytes32,address[],bytes32,bytes)":"6b883c39","getPaginatedStreams(uint256,uint256)":"ca78c41a","getPaginatedStreamsOnNode(address,uint256,uint256)":"22bbda64","getStream(bytes32)":"1290abe8","getStreamCount()":"c0f22084","getStreamCountOnNode(address)":"c87d1324","getStreamWithGenesis(bytes32)":"3c2544d1","isStream(bytes32)":"d0c27c4f","placeStreamOnNode(bytes32,address)":"9ee86d38","removeStreamFromNode(bytes32,address)":"ee885b12","setStreamLastMiniblockBatch((bytes32,bytes32,bytes32,uint64,bool)[])":"ff3a14ab","syncNodesOnStreams(uint256,uint256)":"03cc8793"},"id":25}