{"abi":[{"type":"function","name":"allocateStream","inputs":[{"name":"streamId","type":"bytes32","internalType":"bytes32"},{"name":"nodes","type":"address[]","internalType":"address[]"},{"name":"genesisMiniblockHash","type":"bytes32","internalType":"bytes32"},{"name":"genesisMiniblock","type":"bytes","internalType":"bytes"}],"outputs":[],"stateMutability":"nonpayable"},{"type":"function","name":"getAllStreamIds","inputs":[],"outputs":[{"name":"","type":"bytes32[]","internalType":"bytes32[]"}],"stateMutability":"view"},{"type":"function","name":"getAllStreams","inputs":[],"outputs":[{"name":"","type":"tuple[]","internalType":"struct StreamWithId[]","components":[{"name":"id","type":"bytes32","internalType":"bytes32"},{"name":"stream","type":"tuple","internalType":"struct Stream","components":[{"name":"lastMiniblockHash","type":"bytes32","internalType":"bytes32"},{"name":"lastMiniblockNum","type":"uint64","internalType":"uint64"},{"name":"reserved0","type":"uint64","internalType":"uint64"},{"name":"flags","type":"uint64","internalType":"uint64"},{"name":"nodes","type":"address[]","internalType":"address[]"}]}]}],"stateMutability":"view"},{"type":"function","name":"getStream","inputs":[{"name":"streamId","type":"bytes32","internalType":"bytes32"}],"outputs":[{"name":"","type":"tuple","internalType":"struct Stream","components":[{"name":"lastMiniblockHash","type":"bytes32","internalType":"bytes32"},{"name":"lastMiniblockNum","type":"uint64","internalType":"uint64"},{"name":"reserved0","type":"uint64","internalType":"uint64"},{"name":"flags","type":"uint64","internalType":"uint64"},{"name":"nodes","type":"address[]","internalType":"address[]"}]}],"stateMutability":"view"},{"type":"function","name":"getStreamCount","inputs":[],"outputs":[{"name":"","type":"uint256","internalType":"uint256"}],"stateMutability":"view"},{"type":"function","name":"getStreamWithGenesis","inputs":[{"name":"streamId","type":"bytes32","internalType":"bytes32"}],"outputs":[{"name":"","type":"tuple","internalType":"struct Stream","components":[{"name":"lastMiniblockHash","type":"bytes32","internalType":"bytes32"},{"name":"lastMiniblockNum","type":"uint64","internalType":"uint64"},{"name":"reserved0","type":"uint64","internalType":"uint64"},{"name":"flags","type":"uint64","internalType":"uint64"},{"name":"nodes","type":"address[]","internalType":"address[]"}]},{"name":"","type":"bytes32","internalType":"bytes32"},{"name":"","type":"bytes","internalType":"bytes"}],"stateMutability":"view"},{"type":"function","name":"getStreamsOnNode","inputs":[{"name":"nodeAddress","type":"address","internalType":"address"}],"outputs":[{"name":"","type":"tuple[]","internalType":"struct StreamWithId[]","components":[{"name":"id","type":"bytes32","internalType":"bytes32"},{"name":"stream","type":"tuple","internalType":"struct Stream","components":[{"name":"lastMiniblockHash","type":"bytes32","internalType":"bytes32"},{"name":"lastMiniblockNum","type":"uint64","internalType":"uint64"},{"name":"reserved0","type":"uint64","internalType":"uint64"},{"name":"flags","type":"uint64","internalType":"uint64"},{"name":"nodes","type":"address[]","internalType":"address[]"}]}]}],"stateMutability":"view"},{"type":"function","name":"placeStreamOnNode","inputs":[{"name":"streamId","type":"bytes32","internalType":"bytes32"},{"name":"nodeAddress","type":"address","internalType":"address"}],"outputs":[],"stateMutability":"nonpayable"},{"type":"function","name":"removeStreamFromNode","inputs":[{"name":"streamId","type":"bytes32","internalType":"bytes32"},{"name":"nodeAddress","type":"address","internalType":"address"}],"outputs":[],"stateMutability":"nonpayable"},{"type":"function","name":"setStreamLastMiniblock","inputs":[{"name":"streamId","type":"bytes32","internalType":"bytes32"},{"name":"prevMiniBlockHash","type":"bytes32","internalType":"bytes32"},{"name":"lastMiniblockHash","type":"bytes32","internalType":"bytes32"},{"name":"lastMiniblockNum","type":"uint64","internalType":"uint64"},{"name":"isSealed","type":"bool","internalType":"bool"}],"outputs":[],"stateMutability":"nonpayable"},{"type":"event","name":"StreamAllocated","inputs":[{"name":"streamId","type":"bytes32","indexed":false,"internalType":"bytes32"},{"name":"nodes","type":"address[]","indexed":false,"internalType":"address[]"},{"name":"genesisMiniblockHash","type":"bytes32","indexed":false,"internalType":"bytes32"},{"name":"genesisMiniblock","type":"bytes","indexed":false,"internalType":"bytes"}],"anonymous":false},{"type":"event","name":"StreamLastMiniblockUpdated","inputs":[{"name":"streamId","type":"bytes32","indexed":false,"internalType":"bytes32"},{"name":"lastMiniblockHash","type":"bytes32","indexed":false,"internalType":"bytes32"},{"name":"lastMiniblockNum","type":"uint64","indexed":false,"internalType":"uint64"},{"name":"isSealed","type":"bool","indexed":false,"internalType":"bool"}],"anonymous":false},{"type":"event","name":"StreamPlacementUpdated","inputs":[{"name":"streamId","type":"bytes32","indexed":false,"internalType":"bytes32"},{"name":"nodeAddress","type":"address","indexed":false,"internalType":"address"},{"name":"isAdded","type":"bool","indexed":false,"internalType":"bool"}],"anonymous":false}],"bytecode":{"object":"0x608060405234801561001057600080fd5b50611a27806100206000396000f3fe608060405234801561001057600080fd5b506004361061009e5760003560e01c806386789fc61161006657806386789fc61461012b5780639ee86d3814610140578063c0f2208414610153578063d7a3158a14610169578063ee885b121461017c57600080fd5b80631290abe8146100a357806332705ac4146100cc5780633bd84c0c146100ec5780633c2544d1146100f45780636b883c3914610116575b600080fd5b6100b66100b136600461136a565b61018f565b6040516100c39190611414565b60405180910390f35b6100df6100da366004611443565b6102ba565b6040516100c3919061145e565b6100df61056a565b61010761010236600461136a565b6106db565b6040516100c39392919061151a565b610129610124366004611604565b6108ac565b005b610133610afb565b6040516100c391906116e7565b61012961014e36600461172b565b610b0c565b61015b610caf565b6040519081526020016100c3565b610129610177366004611757565b610cba565b61012961018a36600461172b565b610eed565b6040805160a08101825260008082526020820181905291810182905260608082018390526080820152906101c3908361111f565b6102075760408051808201825260098152681393d517d193d5539160ba1b6020820152905162461bcd60e51b81526101fe91906004016117be565b60405180910390fd5b600082815260026020818152604092839020835160a0810185528154815260018201546001600160401b0380821683860152600160401b8204811683880152600160801b90910416606082015292810180548551818502810185019096528086529394919360808601938301828280156102aa57602002820191906000526020600020905b81546001600160a01b0316815260019091019060200180831161028c575b5050505050815250509050919050565b606060006102c78161113c565b6001600160401b038111156102de576102de61154f565b604051908082528060200260200182016040528015610307578160200160208202803683370190505b5090506000805b610318600061113c565b8110156103cd57600061032b8183611146565b60008181526002602052604081209192505b60028201548110156103bf57876001600160a01b0316826002018281548110610368576103686117d1565b6000918252602090912001546001600160a01b0316036103b75782868661038e816117fd565b975063ffffffff16815181106103a6576103a66117d1565b6020026020010181815250506103bf565b60010161033d565b50505080600101905061030e565b5060008163ffffffff166001600160401b038111156103ee576103ee61154f565b60405190808252806020026020018201604052801561042757816020015b610414611269565b81526020019060019003908161040c5790505b50905060005b8263ffffffff16811015610561576040518060400160405280858381518110610458576104586117d1565b602002602001015181526020016000600201600087858151811061047e5761047e6117d1565b6020908102919091018101518252818101929092526040908101600020815160a0810183528154815260018201546001600160401b0380821683870152600160401b8204811683860152600160801b90910416606082015260028201805484518187028101870190955280855291949293608086019390929083018282801561053057602002820191906000526020600020905b81546001600160a01b03168152600190910190602001808311610512575b50505050508152505081525082828151811061054e5761054e6117d1565b602090810291909101015260010161042d565b50949350505050565b606060006105778161113c565b6001600160401b0381111561058e5761058e61154f565b6040519080825280602002602001820160405280156105c757816020015b6105b4611269565b8152602001906001900390816105ac5790505b50905060005b6105d7600061113c565b8110156106d55760006105ea8183611146565b60408051808201825282815260008381526002602081815291849020845160a0810186528154815260018201546001600160401b0380821683870152600160401b8204811683890152600160801b90910416606082015291810180548651818602810186019097528087529697509395838701959294919360808601939291908301828280156106a357602002820191906000526020600020905b81546001600160a01b03168152600190910190602001808311610685575b5050505050815250508152508383815181106106c1576106c16117d1565b6020908102919091010152506001016105cd565b50919050565b6040805160a081018252600080825260208201819052918101829052606080820183905260808201819052909190610713828561111f565b61074e5760408051808201825260098152681393d517d193d5539160ba1b6020820152905162461bcd60e51b81526101fe91906004016117be565b600084815260026020818152604080842060048352818520546003845294829020825160a0810184528254815260018301546001600160401b0380821683880152600160401b8204811683870152600160801b9091041660608201529482018054845181870281018701909552808552929695919491938793608086019391929183018282801561080857602002820191906000526020600020905b81546001600160a01b031681526001909101906020018083116107ea575b505050505081525050925080805461081f90611820565b80601f016020809104026020016040519081016040528092919081815260200182805461084b90611820565b80156108985780601f1061086d57610100808354040283529160200191610898565b820191906000526020600020905b81548152906001019060200180831161087b57829003601f168201915b505050505090509250925092509193909250565b336108b8600582611152565b6108f25760408051808201825260088152670848288be82aaa8960c31b6020820152905162461bcd60e51b81526101fe91906004016117be565b6108fd60008661111f565b1561093e57604080518082018252600e81526d414c52454144595f45584953545360901b6020820152905162461bcd60e51b81526101fe91906004016117be565b60005b84518110156109c25761097a85828151811061095f5761095f6117d1565b6020026020010151600060050161115290919063ffffffff16565b6109ba57604080518082018252600e81526d1393d11157d393d517d193d5539160921b6020820152905162461bcd60e51b81526101fe91906004016117be565b600101610941565b506040805160a0810182528481526000602082018190529181018290526060810182905260808101869052906109f89087611174565b5060008681526002602081815260409283902084518155818501516001820180549587015160608801516001600160401b03908116600160801b0267ffffffffffffffff60801b19928216600160401b026fffffffffffffffffffffffffffffffff19909916919094161796909617959095161790935560808401518051859493610a88939085019201906112b3565b5050506000868152600360205260409020610aa384826118a5565b5060008681526004602052604090819020859055517f55ef7efc60ef99743e54209752c9a8e047e013917ec91572db75875069dd65bb90610aeb908890889088908890611964565b60405180910390a1505050505050565b6060610b076000611180565b905090565b81610b1860008261111f565b610b535760408051808201825260098152681393d517d193d5539160ba1b6020820152905162461bcd60e51b81526101fe91906004016117be565b81610b5f600582611152565b610b995760408051808201825260088152670848288be82aaa8960c31b6020820152905162461bcd60e51b81526101fe91906004016117be565b6000848152600260205260408120905b6002820154811015610c3257846001600160a01b0316826002018281548110610bd457610bd46117d1565b6000918252602090912001546001600160a01b031603610c2a57604080518082018252600e81526d414c52454144595f45584953545360901b6020820152905162461bcd60e51b81526101fe91906004016117be565b600101610ba9565b5060028101805460018082018355600092835260209283902090910180546001600160a01b0319166001600160a01b03881690811790915560408051898152938401919091528201527faaa473c28a5fe04b6a7ecd795826e462f9d0c23f00ef9f51ec02fa6ea418806f9060600160405180910390a15050505050565b6000610b078161113c565b33610cc6600582611152565b610d005760408051808201825260088152670848288be82aaa8960c31b6020820152905162461bcd60e51b81526101fe91906004016117be565b610d0b60008761111f565b610d465760408051808201825260098152681393d517d193d5539160ba1b6020820152905162461bcd60e51b81526101fe91906004016117be565b6000868152600260205260409020600180820154600160801b90041615610da257604080518082018252600d81526c14d51491505357d4d150531151609a1b6020820152905162461bcd60e51b81526101fe91906004016117be565b6001808201546001600160401b0380871692610dc192909116906119d7565b6001600160401b0316141580610dd8575080548614155b15610e125760408051808201825260078152664241445f41524760c81b6020820152905162461bcd60e51b81526101fe91906004016117be565b84815560018101805467ffffffffffffffff19166001600160401b0386161790558215610e6c576001818101805467ffffffffffffffff60801b198116600160801b918290046001600160401b0316909317029190911790555b836001600160401b0316600103610e94576000878152600360205260408120610e9491611318565b60408051888152602081018790526001600160401b03861681830152841515606082015290517fccc26bbb6dd655ea0bb8a40a3c30e35c6bdf42f8faf0d71bbea897af768cda8b9181900360800190a150505050505050565b81610ef960008261111f565b610f345760408051808201825260098152681393d517d193d5539160ba1b6020820152905162461bcd60e51b81526101fe91906004016117be565b81610f40600582611152565b610f7a5760408051808201825260088152670848288be82aaa8960c31b6020820152905162461bcd60e51b81526101fe91906004016117be565b600084815260026020526040812090805b600283015481101561109457856001600160a01b0316836002018281548110610fb657610fb66117d1565b6000918252602090912001546001600160a01b03160361108c57600283018054610fe2906001906119fe565b81548110610ff257610ff26117d1565b6000918252602090912001546002840180546001600160a01b039092169183908110611020576110206117d1565b9060005260206000200160006101000a8154816001600160a01b0302191690836001600160a01b031602179055508260020180548061106157611061611a11565b600082815260209020810160001990810180546001600160a01b031916905501905560019150611094565b600101610f8b565b50806110d657604080518082018252600e81526d1393d11157d393d517d193d5539160921b6020820152905162461bcd60e51b81526101fe91906004016117be565b604080518781526001600160a01b03871660208201526000918101919091527faaa473c28a5fe04b6a7ecd795826e462f9d0c23f00ef9f51ec02fa6ea418806f90606001610aeb565b600081815260018301602052604081205415155b90505b92915050565b6000611136825490565b60006111338383611194565b6001600160a01b03811660009081526001830160205260408120541515611133565b600061113383836111be565b6060600061118d8361120d565b9392505050565b60008260000182815481106111ab576111ab6117d1565b9060005260206000200154905092915050565b600081815260018301602052604081205461120557508154600181810184556000848152602080822090930184905584548482528286019093526040902091909155611136565b506000611136565b60608160000180548060200260200160405190810160405280929190818152602001828054801561125d57602002820191906000526020600020905b815481526020019060010190808311611249575b50505050509050919050565b6040805180820190915260008152602081016112ae6040805160a081018252600080825260208201819052918101829052606080820192909252608081019190915290565b905290565b828054828255906000526020600020908101928215611308579160200282015b8281111561130857825182546001600160a01b0319166001600160a01b039091161782556020909201916001909101906112d3565b50611314929150611355565b5090565b50805461132490611820565b6000825580601f10611334575050565b601f0160209004906000526020600020908101906113529190611355565b50565b5b808211156113145760008155600101611356565b60006020828403121561137c57600080fd5b5035919050565b600060a08301825184526020808401516001600160401b0380821660208801528060408701511660408801528060608701511660608801525050608084015160a0608087015282815180855260c088019150602083019450600092505b808310156114095784516001600160a01b031682529383019360019290920191908301906113e0565b509695505050505050565b6020815260006111336020830184611383565b80356001600160a01b038116811461143e57600080fd5b919050565b60006020828403121561145557600080fd5b61113382611427565b600060208083018184528085518083526040925060408601915060408160051b87010184880160005b838110156114c657888303603f190185528151805184528701518784018790526114b387850182611383565b9588019593505090860190600101611487565b509098975050505050505050565b6000815180845260005b818110156114fa576020818501810151868301820152016114de565b506000602082860101526020601f19601f83011685010191505092915050565b60608152600061152d6060830186611383565b846020840152828103604084015261154581856114d4565b9695505050505050565b634e487b7160e01b600052604160045260246000fd5b604051601f8201601f191681016001600160401b038111828210171561158d5761158d61154f565b604052919050565b600082601f8301126115a657600080fd5b81356001600160401b038111156115bf576115bf61154f565b6115d2601f8201601f1916602001611565565b8181528460208386010111156115e757600080fd5b816020850160208301376000918101602001919091529392505050565b6000806000806080858703121561161a57600080fd5b843593506020808601356001600160401b038082111561163957600080fd5b818801915088601f83011261164d57600080fd5b81358181111561165f5761165f61154f565b8060051b61166e858201611565565b918252838101850191858101908c84111561168857600080fd5b948601945b838610156116ad5761169e86611427565b8252948601949086019061168d565b98505050506040880135945060608801359250808311156116cd57600080fd5b50506116db87828801611595565b91505092959194509250565b6020808252825182820181905260009190848201906040850190845b8181101561171f57835183529284019291840191600101611703565b50909695505050505050565b6000806040838503121561173e57600080fd5b8235915061174e60208401611427565b90509250929050565b600080600080600060a0868803121561176f57600080fd5b85359450602086013593506040860135925060608601356001600160401b038116811461179b57600080fd5b9150608086013580151581146117b057600080fd5b809150509295509295909350565b60208152600061113360208301846114d4565b634e487b7160e01b600052603260045260246000fd5b634e487b7160e01b600052601160045260246000fd5b600063ffffffff808316818103611816576118166117e7565b6001019392505050565b600181811c9082168061183457607f821691505b6020821081036106d557634e487b7160e01b600052602260045260246000fd5b601f8211156118a0576000816000526020600020601f850160051c8101602086101561187d5750805b601f850160051c820191505b8181101561189c57828155600101611889565b5050505b505050565b81516001600160401b038111156118be576118be61154f565b6118d2816118cc8454611820565b84611854565b602080601f83116001811461190757600084156118ef5750858301515b600019600386901b1c1916600185901b17855561189c565b600085815260208120601f198616915b8281101561193657888601518255948401946001909101908401611917565b50858210156119545787850151600019600388901b60f8161c191681555b5050505050600190811b01905550565b60006080820186835260206080602085015281875180845260a08601915060208901935060005b818110156119b05784516001600160a01b03168352938301939183019160010161198b565b505086604086015284810360608601526119ca81876114d4565b9998505050505050505050565b6001600160401b038181168382160190808211156119f7576119f76117e7565b5092915050565b81810381811115611136576111366117e7565b634e487b7160e01b600052603160045260246000fd","linkReferences":{}},"methodIdentifiers":{"allocateStream(bytes32,address[],bytes32,bytes)":"6b883c39","getAllStreamIds()":"86789fc6","getAllStreams()":"3bd84c0c","getStream(bytes32)":"1290abe8","getStreamCount()":"c0f22084","getStreamWithGenesis(bytes32)":"3c2544d1","getStreamsOnNode(address)":"32705ac4","placeStreamOnNode(bytes32,address)":"9ee86d38","removeStreamFromNode(bytes32,address)":"ee885b12","setStreamLastMiniblock(bytes32,bytes32,bytes32,uint64,bool)":"d7a3158a"},"id":37}