{"abi":[{"type":"function","name":"__Pausable_init","inputs":[],"outputs":[],"stateMutability":"nonpayable"},{"type":"function","name":"pause","inputs":[],"outputs":[],"stateMutability":"nonpayable"},{"type":"function","name":"paused","inputs":[],"outputs":[{"name":"","type":"bool","internalType":"bool"}],"stateMutability":"view"},{"type":"function","name":"unpause","inputs":[],"outputs":[],"stateMutability":"nonpayable"},{"type":"event","name":"Initialized","inputs":[{"name":"version","type":"uint32","indexed":false,"internalType":"uint32"}],"anonymous":false},{"type":"event","name":"InterfaceAdded","inputs":[{"name":"interfaceId","type":"bytes4","indexed":true,"internalType":"bytes4"}],"anonymous":false},{"type":"event","name":"InterfaceRemoved","inputs":[{"name":"interfaceId","type":"bytes4","indexed":true,"internalType":"bytes4"}],"anonymous":false},{"type":"event","name":"OwnershipTransferred","inputs":[{"name":"previousOwner","type":"address","indexed":true,"internalType":"address"},{"name":"newOwner","type":"address","indexed":true,"internalType":"address"}],"anonymous":false},{"type":"event","name":"Paused","inputs":[{"name":"account","type":"address","indexed":false,"internalType":"address"}],"anonymous":false},{"type":"event","name":"Unpaused","inputs":[{"name":"account","type":"address","indexed":false,"internalType":"address"}],"anonymous":false},{"type":"error","name":"Initializable_InInitializingState","inputs":[]},{"type":"error","name":"Initializable_NotInInitializingState","inputs":[]},{"type":"error","name":"Introspection_AlreadySupported","inputs":[]},{"type":"error","name":"Introspection_NotSupported","inputs":[]},{"type":"error","name":"Ownable__NotOwner","inputs":[{"name":"account","type":"address","internalType":"address"}]},{"type":"error","name":"Ownable__ZeroAddress","inputs":[]},{"type":"error","name":"Pausable__NotPaused","inputs":[]},{"type":"error","name":"Pausable__Paused","inputs":[]}],"bytecode":{"object":"0x6080604052348015600e575f5ffd5b5060156019565b60bd565b7f59b501c3653afc186af7d48dda36cf6732bd21629a6295693664240a6ef520008054640100000000900460ff16156064576040516366008a2d60e01b815260040160405180910390fd5b805463ffffffff908116101560ba57805463ffffffff191663ffffffff90811782556040519081527fe9c9b456cb2994b80aeef036cf59d26e9617df80f816a6ee5a5b4166e07e2f5c9060200160405180910390a15b50565b6104b3806100ca5f395ff3fe608060405234801561000f575f5ffd5b506004361061004a575f3560e01c80633f4ba83a1461004e5780635c975abb146100585780638456cb591461007457806384d2023a1461007c575b5f5ffd5b610056610084565b005b61006061015c565b604051901515815260200160405180910390f35b61005661018d565b61005661025f565b61008c6102c2565b73ffffffffffffffffffffffffffffffffffffffff163373ffffffffffffffffffffffffffffffffffffffff16146100f7576040517f65f490650000000000000000000000000000000000000000000000000000000081523360048201526024015b60405180910390fd5b7fe17a067c7963a59b6dfd65d33b053fdbea1c56500e2aae4f976d9eda4da9eb005460ff16610152576040517f59488a5a00000000000000000000000000000000000000000000000000000000815260040160405180910390fd5b61015a610382565b565b5f6101887fe17a067c7963a59b6dfd65d33b053fdbea1c56500e2aae4f976d9eda4da9eb005460ff1690565b905090565b6101956102c2565b73ffffffffffffffffffffffffffffffffffffffff163373ffffffffffffffffffffffffffffffffffffffff16146101fb576040517f65f490650000000000000000000000000000000000000000000000000000000081523360048201526024016100ee565b7fe17a067c7963a59b6dfd65d33b053fdbea1c56500e2aae4f976d9eda4da9eb005460ff1615610257576040517f059519da00000000000000000000000000000000000000000000000000000000815260040160405180910390fd5b61015a6103ff565b7f59b501c3653afc186af7d48dda36cf6732bd21629a6295693664240a6ef5200054640100000000900460ff16610152576040517f77a399b800000000000000000000000000000000000000000000000000000000815260040160405180910390fd5b5f807fd2f24d4f172e4e84e48e7c4125b6e904c29e5eba33ad4938fee51dd5dbd4b600805460018201546040517f6352211e000000000000000000000000000000000000000000000000000000008152600481019190915291925073ffffffffffffffffffffffffffffffffffffffff1690636352211e90602401602060405180830381865afa158015610358573d5f5f3e3d5ffd5b505050506040513d601f19601f8201168201806040525081019061037c9190610479565b91505090565b7fe17a067c7963a59b6dfd65d33b053fdbea1c56500e2aae4f976d9eda4da9eb0080547fffffffffffffffffffffffffffffffffffffffffffffffffffffffffffffff001690556040513381527f5db9ee0a495bf2e6ff9c91a7834c1ba4fdd244a5e8aa4e537bd38aeae4b073aa906020015b60405180910390a1565b7fe17a067c7963a59b6dfd65d33b053fdbea1c56500e2aae4f976d9eda4da9eb0080547fffffffffffffffffffffffffffffffffffffffffffffffffffffffffffffff001660011790556040513381527f62e78cea01bee320cd4e420270b5ea74000d11b0c9f74754ebdbfc544b05a258906020016103f5565b5f60208284031215610489575f5ffd5b815173ffffffffffffffffffffffffffffffffffffffff811681146104ac575f5ffd5b939250505056","linkReferences":{}},"methodIdentifiers":{"__Pausable_init()":"84d2023a","pause()":"8456cb59","paused()":"5c975abb","unpause()":"3f4ba83a"},"id":146}