{"abi":[{"type":"constructor","inputs":[],"stateMutability":"nonpayable"},{"type":"function","name":"SPACE_ADDRESS","inputs":[],"outputs":[{"name":"","type":"address","internalType":"address"}],"stateMutability":"view"},{"type":"function","name":"description","inputs":[],"outputs":[{"name":"","type":"string","internalType":"string"}],"stateMutability":"view"},{"type":"function","name":"getEntitlementDataByRoleId","inputs":[{"name":"roleId","type":"uint256","internalType":"uint256"}],"outputs":[{"name":"","type":"bytes","internalType":"bytes"}],"stateMutability":"view"},{"type":"function","name":"initialize","inputs":[{"name":"_space","type":"address","internalType":"address"}],"outputs":[],"stateMutability":"nonpayable"},{"type":"function","name":"isCrosschain","inputs":[],"outputs":[{"name":"","type":"bool","internalType":"bool"}],"stateMutability":"pure"},{"type":"function","name":"isEntitled","inputs":[{"name":"channelId","type":"string","internalType":"string"},{"name":"wallets","type":"address[]","internalType":"address[]"},{"name":"permission","type":"bytes32","internalType":"bytes32"}],"outputs":[{"name":"","type":"bool","internalType":"bool"}],"stateMutability":"view"},{"type":"function","name":"moduleType","inputs":[],"outputs":[{"name":"","type":"string","internalType":"string"}],"stateMutability":"view"},{"type":"function","name":"name","inputs":[],"outputs":[{"name":"","type":"string","internalType":"string"}],"stateMutability":"view"},{"type":"function","name":"proxiableUUID","inputs":[],"outputs":[{"name":"","type":"bytes32","internalType":"bytes32"}],"stateMutability":"view"},{"type":"function","name":"removeEntitlement","inputs":[{"name":"roleId","type":"uint256","internalType":"uint256"}],"outputs":[],"stateMutability":"nonpayable"},{"type":"function","name":"setEntitlement","inputs":[{"name":"roleId","type":"uint256","internalType":"uint256"},{"name":"entitlementData","type":"bytes","internalType":"bytes"}],"outputs":[],"stateMutability":"nonpayable"},{"type":"function","name":"supportsInterface","inputs":[{"name":"interfaceId","type":"bytes4","internalType":"bytes4"}],"outputs":[{"name":"","type":"bool","internalType":"bool"}],"stateMutability":"view"},{"type":"function","name":"upgradeTo","inputs":[{"name":"newImplementation","type":"address","internalType":"address"}],"outputs":[],"stateMutability":"nonpayable"},{"type":"function","name":"upgradeToAndCall","inputs":[{"name":"newImplementation","type":"address","internalType":"address"},{"name":"data","type":"bytes","internalType":"bytes"}],"outputs":[],"stateMutability":"payable"},{"type":"event","name":"AdminChanged","inputs":[{"name":"previousAdmin","type":"address","indexed":false,"internalType":"address"},{"name":"newAdmin","type":"address","indexed":false,"internalType":"address"}],"anonymous":false},{"type":"event","name":"BeaconUpgraded","inputs":[{"name":"beacon","type":"address","indexed":true,"internalType":"address"}],"anonymous":false},{"type":"event","name":"Initialized","inputs":[{"name":"version","type":"uint8","indexed":false,"internalType":"uint8"}],"anonymous":false},{"type":"event","name":"Upgraded","inputs":[{"name":"implementation","type":"address","indexed":true,"internalType":"address"}],"anonymous":false},{"type":"error","name":"Entitlement__InvalidValue","inputs":[]},{"type":"error","name":"Entitlement__NotAllowed","inputs":[]},{"type":"error","name":"Entitlement__NotMember","inputs":[]},{"type":"error","name":"Entitlement__ValueAlreadyExists","inputs":[]}],"bytecode":{"object":"0x60a06040523060805234801561001457600080fd5b5061001d610022565b6100e2565b600054610100900460ff161561008e5760405162461bcd60e51b815260206004820152602760248201527f496e697469616c697a61626c653a20636f6e747261637420697320696e697469604482015266616c697a696e6760c81b606482015260840160405180910390fd5b60005460ff90811610156100e0576000805460ff191660ff9081179091556040519081527f7f26b83ff96e1f2b6a682f133852f6798a09c465da95921460cefb38474024989060200160405180910390a15b565b608051611ea16101196000396000818161039f015281816103e801528181610487015281816104c7015261055a0152611ea16000f3fe6080604052600436106100dd5760003560e01c806352d1902d1161007f578063a7b7287111610059578063a7b72871146102a0578063c4d66de8146102c0578063ef8be574146102e0578063f0c111f91461030057600080fd5b806352d1902d146102015780636465e69f146102245780637284e4161461025f57600080fd5b80632e1b61e4116100bb5780632e1b61e41461018057806334322eff146101945780633659cfe6146101cc5780634f1ef286146101ee57600080fd5b806301ffc9a7146100e257806306fdde03146101175780631eee07b214610160575b600080fd5b3480156100ee57600080fd5b506101026100fd36600461166d565b610320565b60405190151581526020015b60405180910390f35b34801561012357600080fd5b506101536040518060400160405280601081526020016f155cd95c88115b9d1a5d1b195b595b9d60821b81525081565b60405161010e91906116e7565b34801561016c57600080fd5b5061015361017b3660046116fa565b610357565b34801561018c57600080fd5b506000610102565b3480156101a057600080fd5b5060c9546101b4906001600160a01b031681565b6040516001600160a01b03909116815260200161010e565b3480156101d857600080fd5b506101ec6101e736600461172f565b610395565b005b6101ec6101fc3660046117e2565b61047d565b34801561020d57600080fd5b5061021661054d565b60405190815260200161010e565b34801561023057600080fd5b506101536040518060400160405280600f81526020016e155cd95c915b9d1a5d1b195b595b9d608a1b81525081565b34801561026b57600080fd5b5061015360405180604001604052806015815260200174456e7469746c656d656e7420666f7220757365727360581b81525081565b3480156102ac57600080fd5b506101026102bb366004611951565b610600565b3480156102cc57600080fd5b506101ec6102db36600461172f565b61062d565b3480156102ec57600080fd5b506101ec6102fb3660046119c2565b610769565b34801561030c57600080fd5b506101ec61031b3660046116fa565b6109dc565b60006001600160e01b03198216630b98417960e31b148061035157506301ffc9a760e01b6001600160e01b03198316145b92915050565b606060ca600083815260200190815260200160002060020160405160200161037f9190611a0e565b6040516020818303038152906040529050919050565b6001600160a01b037f00000000000000000000000000000000000000000000000000000000000000001630036103e65760405162461bcd60e51b81526004016103dd90611a5e565b60405180910390fd5b7f00000000000000000000000000000000000000000000000000000000000000006001600160a01b031661042f600080516020611e5a833981519152546001600160a01b031690565b6001600160a01b0316146104555760405162461bcd60e51b81526004016103dd90611aaa565b61045e81610b2a565b6040805160008082526020820190925261047a91839190610b5e565b50565b6001600160a01b037f00000000000000000000000000000000000000000000000000000000000000001630036104c55760405162461bcd60e51b81526004016103dd90611a5e565b7f00000000000000000000000000000000000000000000000000000000000000006001600160a01b031661050e600080516020611e5a833981519152546001600160a01b031690565b6001600160a01b0316146105345760405162461bcd60e51b81526004016103dd90611aaa565b61053d82610b2a565b61054982826001610b5e565b5050565b6000306001600160a01b037f000000000000000000000000000000000000000000000000000000000000000016146105ed5760405162461bcd60e51b815260206004820152603860248201527f555550535570677261646561626c653a206d757374206e6f742062652063616c60448201527f6c6564207468726f7567682064656c656761746563616c6c000000000000000060648201526084016103dd565b50600080516020611e5a83398151915290565b6000831561061b5761061485858585610cc9565b9050610625565b6106148383610dff565b949350505050565b600054610100900460ff161580801561064d5750600054600160ff909116105b806106675750303b158015610667575060005460ff166001145b6106ca5760405162461bcd60e51b815260206004820152602e60248201527f496e697469616c697a61626c653a20636f6e747261637420697320616c72656160448201526d191e481a5b9a5d1a585b1a5e995960921b60648201526084016103dd565b6000805460ff1916600117905580156106ed576000805461ff0019166101001790555b6106f5610e5f565b6106fd610e5f565b610705610e5f565b60c980546001600160a01b0319166001600160a01b0384161790558015610549576000805461ff0019169055604051600181527f7f26b83ff96e1f2b6a682f133852f6798a09c465da95921460cefb38474024989060200160405180910390a15050565b60c9546001600160a01b0316336001600160a01b03161461079d57604051630ce39a4b60e21b815260040160405180910390fd5b60006107ab82840184611af6565b905060005b81518110156108135760008282815181106107cd576107cd611b2b565b6020026020010151905060006001600160a01b0316816001600160a01b03160361080a576040516372bbc80f60e11b815260040160405180910390fd5b506001016107b0565b505b600084815260ca6020526040902060020154156108c457600084815260ca60205260408120600201805461084b90600190611b57565b8154811061085b5761085b611b2b565b6000918252602090912001546001600160a01b0316905061087c8186610ecc565b600085815260ca6020526040902060020180548061089c5761089c611b6a565b600082815260209020810160001990810180546001600160a01b031916905501905550610815565b600084815260ca6020526040812080546001600160a01b031916815560018101829055906108f560028301826115d5565b505060405180606001604052806109093390565b6001600160a01b039081168252426020808401919091526040928301859052600088815260ca8252839020845181546001600160a01b0319169316929092178255838101516001830155918301518051919261096d926002850192909101906115f3565b5090505060005b81518110156109d55760cb600083838151811061099357610993611b2b565b6020908102919091018101516001600160a01b031682528181019290925260400160009081208054600181810183559183529290912090910186905501610974565b5050505050565b60c9546001600160a01b0316336001600160a01b031614610a1057604051630ce39a4b60e21b815260040160405180910390fd5b600081815260ca60205260409020546001600160a01b0316610a45576040516372bbc80f60e11b815260040160405180910390fd5b600081815260ca602052604090206002015415610af457600081815260ca602052604081206002018054610a7b90600190611b57565b81548110610a8b57610a8b611b2b565b6000918252602090912001546001600160a01b03169050610aac8183610ecc565b600082815260ca60205260409020600201805480610acc57610acc611b6a565b600082815260209020810160001990810180546001600160a01b031916905501905550610a45565b600081815260ca6020526040812080546001600160a01b03191681556001810182905590610b2560028301826115d5565b505050565b60c9546001600160a01b0316336001600160a01b03161461047a57604051630ce39a4b60e21b815260040160405180910390fd5b7f4910fdfa16fed3260ed0e7147f7cc6da11a60208b5b9406d12a635614ffd91435460ff1615610b9157610b2583610fda565b826001600160a01b03166352d1902d6040518163ffffffff1660e01b8152600401602060405180830381865afa925050508015610beb575060408051601f3d908101601f19168201909252610be891810190611b80565b60015b610c4e5760405162461bcd60e51b815260206004820152602e60248201527f45524331393637557067726164653a206e657720696d706c656d656e7461746960448201526d6f6e206973206e6f74205555505360901b60648201526084016103dd565b600080516020611e5a8339815191528114610cbd5760405162461bcd60e51b815260206004820152602960248201527f45524331393637557067726164653a20756e737570706f727465642070726f786044820152681a58589b195555525160ba1b60648201526084016103dd565b50610b25838383611076565b60c954604051637cd7ee3d60e01b815260009182916001600160a01b0390911690637cd7ee3d90610d009089908990600401611b99565b600060405180830381865afa158015610d1d573d6000803e3d6000fd5b505050506040513d6000823e601f3d908101601f19168201604052610d459190810190611c6c565b90506000610d52856110a1565b905060005b826060015151811015610df457600083606001518281518110610d7c57610d7c611b2b565b6020026020010151905060005b8351811015610dea5781848281518110610da557610da5611b2b565b6020026020010151148015610dd85750610dd8848281518110610dca57610dca611b2b565b602002602001015188611362565b15610de257600195505b600101610d89565b5050600101610d57565b505050949350505050565b600080610e0b846110a1565b905060005b8151811015610e5457610e3c828281518110610e2e57610e2e611b2b565b602002602001015185611362565b15610e4c57600192505050610351565b600101610e10565b506000949350505050565b600054610100900460ff16610eca5760405162461bcd60e51b815260206004820152602b60248201527f496e697469616c697a61626c653a20636f6e7472616374206973206e6f74206960448201526a6e697469616c697a696e6760a81b60648201526084016103dd565b565b6001600160a01b038216600090815260cb60205260408120905b8154811015610f915782828281548110610f0257610f02611b2b565b906000526020600020015403610f895781548290610f2290600190611b57565b81548110610f3257610f32611b2b565b9060005260206000200154828281548110610f4f57610f4f611b2b565b906000526020600020018190555081805480610f6d57610f6d611b6a565b6001900381819060005260206000200160009055905550505050565b600101610ee6565b5060405162461bcd60e51b815260206004820152601e60248201527f526f6c65204944206e6f7420666f756e6420666f72207468652075736572000060448201526064016103dd565b6001600160a01b0381163b6110475760405162461bcd60e51b815260206004820152602d60248201527f455243313936373a206e657720696d706c656d656e746174696f6e206973206e60448201526c1bdd08184818dbdb9d1c9858dd609a1b60648201526084016103dd565b600080516020611e5a83398151915280546001600160a01b0319166001600160a01b0392909216919091179055565b61107f83611457565b60008251118061108c5750805b15610b255761109b8383611497565b50505050565b60606000805b83518110156111075760cb60008583815181106110c6576110c6611b2b565b60200260200101516001600160a01b03166001600160a01b0316815260200190815260200160002080549050826110fd9190611d39565b91506001016110a7565b50600160005260cb6020527fb3c459fcfa972435363277a54960f9947fdf75faf912b521fbcc6cd1c34ddc335461113e9082611d39565b905060008167ffffffffffffffff81111561115b5761115b61174a565b604051908082528060200260200182016040528015611184578160200160208202803683370190505b5090506000805b855181101561128657600060cb60008884815181106111ac576111ac611b2b565b60200260200101516001600160a01b03166001600160a01b0316815260200190815260200160002080548060200260200160405190810160405280929190818152602001828054801561121e57602002820191906000526020600020905b81548152602001906001019080831161120a575b5050505050905060005b815181101561127c5781818151811061124357611243611b2b565b602002602001015185858061125790611d4c565b96508151811061126957611269611b2b565b6020908102919091010152600101611228565b505060010161118b565b506001600090815260cb60209081527fb3c459fcfa972435363277a54960f9947fdf75faf912b521fbcc6cd1c34ddc3380546040805182850281018501909152818152928301828280156112f957602002820191906000526020600020905b8154815260200190600101908083116112e5575b5050505050905060005b81518110156113575781818151811061131e5761131e611b2b565b602002602001015184848061133290611d4c565b95508151811061134457611344611b2b565b6020908102919091010152600101611303565b509195945050505050565b60c95460405163b426423360e01b81526004810184905260009182916001600160a01b039091169063b426423390602401600060405180830381865afa1580156113b0573d6000803e3d6000fd5b505050506040513d6000823e601f3d908101601f191682016040526113d89190810190611d65565b805190915060005b8181101561144b5760008382815181106113fc576113fc611b2b565b60200260200101516040516020016114149190611e16565b60405160208183030381529060405261142c90611e32565b9050858103611442576001945050505050610351565b506001016113e0565b50600095945050505050565b61146081610fda565b6040516001600160a01b038216907fbc7cd75a20ee27fd9adebab32041f755214dbc6bffa90cc0225b39da2e5c2d3b90600090a250565b60606001600160a01b0383163b6114ff5760405162461bcd60e51b815260206004820152602660248201527f416464726573733a2064656c65676174652063616c6c20746f206e6f6e2d636f6044820152651b9d1c9858dd60d21b60648201526084016103dd565b600080846001600160a01b03168460405161151a9190611e16565b600060405180830381855af49150503d8060008114611555576040519150601f19603f3d011682016040523d82523d6000602084013e61155a565b606091505b50915091506115828282604051806060016040528060278152602001611e7a6027913961158b565b95945050505050565b6060831561159a5750816115a4565b6115a483836115ab565b9392505050565b8151156115bb5781518083602001fd5b8060405162461bcd60e51b81526004016103dd91906116e7565b508054600082559060005260206000209081019061047a9190611658565b828054828255906000526020600020908101928215611648579160200282015b8281111561164857825182546001600160a01b0319166001600160a01b03909116178255602090920191600190910190611613565b50611654929150611658565b5090565b5b808211156116545760008155600101611659565b60006020828403121561167f57600080fd5b81356001600160e01b0319811681146115a457600080fd5b60005b838110156116b257818101518382015260200161169a565b50506000910152565b600081518084526116d3816020860160208601611697565b601f01601f19169290920160200192915050565b6020815260006115a460208301846116bb565b60006020828403121561170c57600080fd5b5035919050565b80356001600160a01b038116811461172a57600080fd5b919050565b60006020828403121561174157600080fd5b6115a482611713565b634e487b7160e01b600052604160045260246000fd5b6040516080810167ffffffffffffffff811182821017156117835761178361174a565b60405290565b604051601f8201601f1916810167ffffffffffffffff811182821017156117b2576117b261174a565b604052919050565b600067ffffffffffffffff8211156117d4576117d461174a565b50601f01601f191660200190565b600080604083850312156117f557600080fd5b6117fe83611713565b9150602083013567ffffffffffffffff81111561181a57600080fd5b8301601f8101851361182b57600080fd5b803561183e611839826117ba565b611789565b81815286602083850101111561185357600080fd5b816020840160208301376000602083830101528093505050509250929050565b60008083601f84011261188557600080fd5b50813567ffffffffffffffff81111561189d57600080fd5b6020830191508360208285010111156118b557600080fd5b9250929050565b600067ffffffffffffffff8211156118d6576118d661174a565b5060051b60200190565b600082601f8301126118f157600080fd5b81356020611901611839836118bc565b8083825260208201915060208460051b87010193508684111561192357600080fd5b602086015b848110156119465761193981611713565b8352918301918301611928565b509695505050505050565b6000806000806060858703121561196757600080fd5b843567ffffffffffffffff8082111561197f57600080fd5b61198b88838901611873565b909650945060208701359150808211156119a457600080fd5b506119b1878288016118e0565b949793965093946040013593505050565b6000806000604084860312156119d757600080fd5b83359250602084013567ffffffffffffffff8111156119f557600080fd5b611a0186828701611873565b9497909650939450505050565b6020808252825482820181905260008481528281209092916040850190845b81811015611a525783546001600160a01b031683526001938401939285019201611a2d565b50909695505050505050565b6020808252602c908201527f46756e6374696f6e206d7573742062652063616c6c6564207468726f7567682060408201526b19195b1959d85d1958d85b1b60a21b606082015260800190565b6020808252602c908201527f46756e6374696f6e206d7573742062652063616c6c6564207468726f7567682060408201526b6163746976652070726f787960a01b606082015260800190565b600060208284031215611b0857600080fd5b813567ffffffffffffffff811115611b1f57600080fd5b610625848285016118e0565b634e487b7160e01b600052603260045260246000fd5b634e487b7160e01b600052601160045260246000fd5b8181038181111561035157610351611b41565b634e487b7160e01b600052603160045260246000fd5b600060208284031215611b9257600080fd5b5051919050565b60208152816020820152818360408301376000818301604090810191909152601f909201601f19160101919050565b600082601f830112611bd957600080fd5b8151611be7611839826117ba565b818152846020838601011115611bfc57600080fd5b610625826020830160208701611697565b600082601f830112611c1e57600080fd5b81516020611c2e611839836118bc565b8083825260208201915060208460051b870101935086841115611c5057600080fd5b602086015b848110156119465780518352918301918301611c55565b600060208284031215611c7e57600080fd5b815167ffffffffffffffff80821115611c9657600080fd5b9083019060808286031215611caa57600080fd5b611cb2611760565b825182811115611cc157600080fd5b611ccd87828601611bc8565b82525060208301518015158114611ce357600080fd5b6020820152604083015182811115611cfa57600080fd5b611d0687828601611bc8565b604083015250606083015182811115611d1e57600080fd5b611d2a87828601611c0d565b60608301525095945050505050565b8082018082111561035157610351611b41565b600060018201611d5e57611d5e611b41565b5060010190565b60006020808385031215611d7857600080fd5b825167ffffffffffffffff80821115611d9057600080fd5b818501915085601f830112611da457600080fd5b8151611db2611839826118bc565b81815260059190911b83018401908481019088831115611dd157600080fd5b8585015b83811015611e0957805185811115611ded5760008081fd5b611dfb8b89838a0101611bc8565b845250918601918601611dd5565b5098975050505050505050565b60008251611e28818460208701611697565b9190910192915050565b80516020808301519190811015611e53576000198160200360031b1b821691505b5091905056fe360894a13ba1a3210667c828492db98dca3e2076cc3735a920a3ca505d382bbc416464726573733a206c6f772d6c6576656c2064656c65676174652063616c6c206661696c6564","linkReferences":{}},"methodIdentifiers":{"SPACE_ADDRESS()":"34322eff","description()":"7284e416","getEntitlementDataByRoleId(uint256)":"1eee07b2","initialize(address)":"c4d66de8","isCrosschain()":"2e1b61e4","isEntitled(string,address[],bytes32)":"a7b72871","moduleType()":"6465e69f","name()":"06fdde03","proxiableUUID()":"52d1902d","removeEntitlement(uint256)":"f0c111f9","setEntitlement(uint256,bytes)":"ef8be574","supportsInterface(bytes4)":"01ffc9a7","upgradeTo(address)":"3659cfe6","upgradeToAndCall(address,bytes)":"4f1ef286"},"id":97}