{"abi":[{"type":"constructor","inputs":[],"stateMutability":"nonpayable"},{"type":"function","name":"SPACE_ADDRESS","inputs":[],"outputs":[{"name":"","type":"address","internalType":"address"}],"stateMutability":"view"},{"type":"function","name":"UPGRADE_INTERFACE_VERSION","inputs":[],"outputs":[{"name":"","type":"string","internalType":"string"}],"stateMutability":"view"},{"type":"function","name":"description","inputs":[],"outputs":[{"name":"","type":"string","internalType":"string"}],"stateMutability":"view"},{"type":"function","name":"getEntitlementDataByRoleId","inputs":[{"name":"roleId","type":"uint256","internalType":"uint256"}],"outputs":[{"name":"","type":"bytes","internalType":"bytes"}],"stateMutability":"view"},{"type":"function","name":"initialize","inputs":[{"name":"_space","type":"address","internalType":"address"}],"outputs":[],"stateMutability":"nonpayable"},{"type":"function","name":"isCrosschain","inputs":[],"outputs":[{"name":"","type":"bool","internalType":"bool"}],"stateMutability":"pure"},{"type":"function","name":"isEntitled","inputs":[{"name":"channelId","type":"bytes32","internalType":"bytes32"},{"name":"wallets","type":"address[]","internalType":"address[]"},{"name":"permission","type":"bytes32","internalType":"bytes32"}],"outputs":[{"name":"","type":"bool","internalType":"bool"}],"stateMutability":"view"},{"type":"function","name":"moduleType","inputs":[],"outputs":[{"name":"","type":"string","internalType":"string"}],"stateMutability":"view"},{"type":"function","name":"name","inputs":[],"outputs":[{"name":"","type":"string","internalType":"string"}],"stateMutability":"view"},{"type":"function","name":"proxiableUUID","inputs":[],"outputs":[{"name":"","type":"bytes32","internalType":"bytes32"}],"stateMutability":"view"},{"type":"function","name":"removeEntitlement","inputs":[{"name":"roleId","type":"uint256","internalType":"uint256"}],"outputs":[],"stateMutability":"nonpayable"},{"type":"function","name":"setEntitlement","inputs":[{"name":"roleId","type":"uint256","internalType":"uint256"},{"name":"entitlementData","type":"bytes","internalType":"bytes"}],"outputs":[],"stateMutability":"nonpayable"},{"type":"function","name":"supportsInterface","inputs":[{"name":"interfaceId","type":"bytes4","internalType":"bytes4"}],"outputs":[{"name":"","type":"bool","internalType":"bool"}],"stateMutability":"view"},{"type":"function","name":"upgradeToAndCall","inputs":[{"name":"newImplementation","type":"address","internalType":"address"},{"name":"data","type":"bytes","internalType":"bytes"}],"outputs":[],"stateMutability":"payable"},{"type":"event","name":"Initialized","inputs":[{"name":"version","type":"uint64","indexed":false,"internalType":"uint64"}],"anonymous":false},{"type":"event","name":"Upgraded","inputs":[{"name":"implementation","type":"address","indexed":true,"internalType":"address"}],"anonymous":false},{"type":"error","name":"AddressEmptyCode","inputs":[{"name":"target","type":"address","internalType":"address"}]},{"type":"error","name":"ERC1967InvalidImplementation","inputs":[{"name":"implementation","type":"address","internalType":"address"}]},{"type":"error","name":"ERC1967NonPayable","inputs":[]},{"type":"error","name":"Entitlement__InvalidValue","inputs":[]},{"type":"error","name":"Entitlement__NotAllowed","inputs":[]},{"type":"error","name":"Entitlement__NotMember","inputs":[]},{"type":"error","name":"Entitlement__ValueAlreadyExists","inputs":[]},{"type":"error","name":"FailedCall","inputs":[]},{"type":"error","name":"InvalidInitialization","inputs":[]},{"type":"error","name":"NotInitializing","inputs":[]},{"type":"error","name":"UUPSUnauthorizedCallContext","inputs":[]},{"type":"error","name":"UUPSUnsupportedProxiableUUID","inputs":[{"name":"slot","type":"bytes32","internalType":"bytes32"}]}],"bytecode":{"object":"0x60a060405230608052348015610013575f5ffd5b5061001c610021565b6100d3565b7ff0c57e16840df040f15088dc2f81fe391c3923bec73e23a9662efc9c229c6a00805468010000000000000000900460ff16156100715760405163f92ee8a960e01b815260040160405180910390fd5b80546001600160401b03908116146100d05780546001600160401b0319166001600160401b0390811782556040519081527fc7f505b2f371ae2175ee4913f4499e1f2633a7b5936321eed1cdaeb6115181d29060200160405180910390a15b50565b6080516121a56100f95f395f8181610dbd01528181610de6015261106a01526121a55ff3fe6080604052600436106100d9575f3560e01c806352d1902d1161007c578063ad3cb1cc11610057578063ad3cb1cc146102cd578063c4d66de814610315578063ef8be57414610334578063f0c111f914610353575f5ffd5b806352d1902d1461021b5780636465e69f1461023d5780637284e41614610285575f5ffd5b80631eee07b2116100b75780631eee07b2146101855780632e1b61e4146101a457806334322eff146101b65780634f1ef28614610206575f5ffd5b806301ffc9a7146100dd57806306fdde03146101115780630cf0b53314610166575b5f5ffd5b3480156100e8575f5ffd5b506100fc6100f73660046119e0565b610372565b60405190151581526020015b60405180910390f35b34801561011c575f5ffd5b506101596040518060400160405280601081526020017f5573657220456e7469746c656d656e740000000000000000000000000000000081525081565b6040516101089190611a6b565b348015610171575f5ffd5b506100fc610180366004611bde565b61040a565b348015610190575f5ffd5b5061015961019f366004611c2b565b610434565b3480156101af575f5ffd5b505f6100fc565b3480156101c1575f5ffd5b505f546101e19073ffffffffffffffffffffffffffffffffffffffff1681565b60405173ffffffffffffffffffffffffffffffffffffffff9091168152602001610108565b610219610214366004611c87565b610470565b005b348015610226575f5ffd5b5061022f61048f565b604051908152602001610108565b348015610248575f5ffd5b506101596040518060400160405280600f81526020017f55736572456e7469746c656d656e74000000000000000000000000000000000081525081565b348015610290575f5ffd5b506101596040518060400160405280601581526020017f456e7469746c656d656e7420666f72207573657273000000000000000000000081525081565b3480156102d8575f5ffd5b506101596040518060400160405280600581526020017f352e302e3000000000000000000000000000000000000000000000000000000081525081565b348015610320575f5ffd5b5061021961032f366004611d0d565b6104bd565b34801561033f575f5ffd5b5061021961034e366004611d26565b610689565b34801561035e575f5ffd5b5061021961036d366004611c2b565b6109e3565b5f7fffffffff0000000000000000000000000000000000000000000000000000000082167ff785968a00000000000000000000000000000000000000000000000000000000148061040457507f01ffc9a7000000000000000000000000000000000000000000000000000000007fffffffff000000000000000000000000000000000000000000000000000000008316145b92915050565b5f83156104235761041c848484610bdf565b905061042d565b61041c8383610d48565b9392505050565b606060015f8381526020019081526020015f2060020160405160200161045a9190611d9d565b6040516020818303038152906040529050919050565b610478610da5565b61048182610eab565b61048b8282610f14565b5050565b5f610498611052565b507f360894a13ba1a3210667c828492db98dca3e2076cc3735a920a3ca505d382bbc90565b7ff0c57e16840df040f15088dc2f81fe391c3923bec73e23a9662efc9c229c6a00805468010000000000000000810460ff16159067ffffffffffffffff165f811580156105075750825b90505f8267ffffffffffffffff1660011480156105235750303b155b905081158015610531575080155b15610568576040517ff92ee8a900000000000000000000000000000000000000000000000000000000815260040160405180910390fd5b84547fffffffffffffffffffffffffffffffffffffffffffffffff000000000000000016600117855583156105c95784547fffffffffffffffffffffffffffffffffffffffffffffff00ffffffffffffffff16680100000000000000001785555b6105d16110c1565b6105d96110c1565b6105e16110c1565b5f80547fffffffffffffffffffffffff00000000000000000000000000000000000000001673ffffffffffffffffffffffffffffffffffffffff881617905583156106815784547fffffffffffffffffffffffffffffffffffffffffffffff00ffffffffffffffff168555604051600181527fc7f505b2f371ae2175ee4913f4499e1f2633a7b5936321eed1cdaeb6115181d29060200160405180910390a15b505050505050565b5f5473ffffffffffffffffffffffffffffffffffffffff163373ffffffffffffffffffffffffffffffffffffffff16146106ef576040517f338e692c00000000000000000000000000000000000000000000000000000000815260040160405180910390fd5b5f6106fc82840184611df8565b90505f5b8151811015610794575f82828151811061071c5761071c611e32565b602002602001015190505f73ffffffffffffffffffffffffffffffffffffffff168173ffffffffffffffffffffffffffffffffffffffff160361078b576040517fe577901e00000000000000000000000000000000000000000000000000000000815260040160405180910390fd5b50600101610700565b505b5f8481526001602052604090206002015415610884575f8481526001602081905260408220600201805490916107cb91611e8c565b815481106107db576107db611e32565b5f9182526020909120015473ffffffffffffffffffffffffffffffffffffffff16905061080881866110c9565b5f85815260016020526040902060020180548061082757610827611e9f565b5f8281526020902081017fffffffffffffffffffffffffffffffffffffffffffffffffffffffffffffffff90810180547fffffffffffffffffffffffff000000000000000000000000000000000000000016905501905550610796565b5f848152600160208190526040822080547fffffffffffffffffffffffff0000000000000000000000000000000000000000168155908101829055906108cd6002830182611929565b505060405180606001604052806108e13390565b73ffffffffffffffffffffffffffffffffffffffff90811682524260208084019190915260409283018590525f888152600180835290849020855181547fffffffffffffffffffffffff00000000000000000000000000000000000000001694169390931783558482015190830155918301518051919261096a92600285019290910190611944565b505f9150505b81518110156109dc5760025f83838151811061098e5761098e611e32565b60209081029190910181015173ffffffffffffffffffffffffffffffffffffffff168252818101929092526040015f9081208054600181810183559183529290912090910186905501610970565b5050505050565b5f5473ffffffffffffffffffffffffffffffffffffffff163373ffffffffffffffffffffffffffffffffffffffff1614610a49576040517f338e692c00000000000000000000000000000000000000000000000000000000815260040160405180910390fd5b5f8181526001602052604090205473ffffffffffffffffffffffffffffffffffffffff16610aa3576040517fe577901e00000000000000000000000000000000000000000000000000000000815260040160405180910390fd5b5f8181526001602052604090206002015415610b91575f818152600160208190526040822060020180549091610ad891611e8c565b81548110610ae857610ae8611e32565b5f9182526020909120015473ffffffffffffffffffffffffffffffffffffffff169050610b1581836110c9565b5f828152600160205260409020600201805480610b3457610b34611e9f565b5f8281526020902081017fffffffffffffffffffffffffffffffffffffffffffffffffffffffffffffffff90810180547fffffffffffffffffffffffff000000000000000000000000000000000000000016905501905550610aa3565b5f818152600160208190526040822080547fffffffffffffffffffffffff000000000000000000000000000000000000000016815590810182905590610bda6002830182611929565b505050565b5f80546040517f831c2b8200000000000000000000000000000000000000000000000000000000815260048101869052829173ffffffffffffffffffffffffffffffffffffffff169063831c2b82906024015f60405180830381865afa158015610c4b573d5f5f3e3d5ffd5b505050506040513d5f823e601f3d9081017fffffffffffffffffffffffffffffffffffffffffffffffffffffffffffffffe0168201604052610c909190810190611f19565b90505f610c9c856111f4565b90505f5b826060015151811015610d3e575f83606001518281518110610cc457610cc4611e32565b602002602001015190505f5f90505b8351811015610d345781848281518110610cef57610cef611e32565b6020026020010151148015610d225750610d22848281518110610d1457610d14611e32565b6020026020010151886114dd565b15610d2c57600195505b600101610cd3565b5050600101610ca0565b5050509392505050565b5f5f610d53846111f4565b90505f5b8151811015610d9b57610d83828281518110610d7557610d75611e32565b6020026020010151856114dd565b15610d9357600192505050610404565b600101610d57565b505f949350505050565b3073ffffffffffffffffffffffffffffffffffffffff7f0000000000000000000000000000000000000000000000000000000000000000161480610e7257507f000000000000000000000000000000000000000000000000000000000000000073ffffffffffffffffffffffffffffffffffffffff16610e597f360894a13ba1a3210667c828492db98dca3e2076cc3735a920a3ca505d382bbc5473ffffffffffffffffffffffffffffffffffffffff1690565b73ffffffffffffffffffffffffffffffffffffffff1614155b15610ea9576040517fe07c8dba00000000000000000000000000000000000000000000000000000000815260040160405180910390fd5b565b5f5473ffffffffffffffffffffffffffffffffffffffff163373ffffffffffffffffffffffffffffffffffffffff1614610f11576040517f338e692c00000000000000000000000000000000000000000000000000000000815260040160405180910390fd5b50565b8173ffffffffffffffffffffffffffffffffffffffff166352d1902d6040518163ffffffff1660e01b8152600401602060405180830381865afa925050508015610f99575060408051601f3d9081017fffffffffffffffffffffffffffffffffffffffffffffffffffffffffffffffe0168201909252610f969181019061202c565b60015b610fec576040517f4c9c8ce300000000000000000000000000000000000000000000000000000000815273ffffffffffffffffffffffffffffffffffffffff831660048201526024015b60405180910390fd5b7f360894a13ba1a3210667c828492db98dca3e2076cc3735a920a3ca505d382bbc8114611048576040517faa1d49a400000000000000000000000000000000000000000000000000000000815260048101829052602401610fe3565b610bda838361160a565b3073ffffffffffffffffffffffffffffffffffffffff7f00000000000000000000000000000000000000000000000000000000000000001614610ea9576040517fe07c8dba00000000000000000000000000000000000000000000000000000000815260040160405180910390fd5b610ea961166c565b73ffffffffffffffffffffffffffffffffffffffff82165f908152600260205260408120905b8154811015611191578282828154811061110b5761110b611e32565b905f5260205f20015403611189578154829061112990600190611e8c565b8154811061113957611139611e32565b905f5260205f20015482828154811061115457611154611e32565b905f5260205f2001819055508180548061117057611170611e9f565b600190038181905f5260205f20015f9055905550505050565b6001016110ef565b506040517f08c379a000000000000000000000000000000000000000000000000000000000815260206004820152601e60248201527f526f6c65204944206e6f7420666f756e6420666f7220746865207573657200006044820152606401610fe3565b60605f805b83518110156112715760025f85838151811061121757611217611e32565b602002602001015173ffffffffffffffffffffffffffffffffffffffff1673ffffffffffffffffffffffffffffffffffffffff1681526020019081526020015f2080549050826112679190612043565b91506001016111f9565b5060015f5260026020527fe90b7bceb6e7df5418fb78d8ee546e97c83a08bbccc01a0644d599ccd2a7c2e0546112a79082612043565b90505f8167ffffffffffffffff8111156112c3576112c3611a7d565b6040519080825280602002602001820160405280156112ec578160200160208202803683370190505b5090505f805b8551811015611403575f60025f88848151811061131157611311611e32565b602002602001015173ffffffffffffffffffffffffffffffffffffffff1673ffffffffffffffffffffffffffffffffffffffff1681526020019081526020015f2080548060200260200160405190810160405280929190818152602001828054801561139a57602002820191905f5260205f20905b815481526020019060010190808311611386575b509394505f93505050505b81518110156113f9578181815181106113c0576113c0611e32565b60200260200101518585806113d490612056565b9650815181106113e6576113e6611e32565b60209081029190910101526001016113a5565b50506001016112f2565b5060015f908152600260209081527fe90b7bceb6e7df5418fb78d8ee546e97c83a08bbccc01a0644d599ccd2a7c2e0805460408051828502810185019091528181529283018282801561147357602002820191905f5260205f20905b81548152602001906001019080831161145f575b509394505f93505050505b81518110156114d25781818151811061149957611499611e32565b60200260200101518484806114ad90612056565b9550815181106114bf576114bf611e32565b602090810291909101015260010161147e565b509195945050505050565b5f80546040517fb426423300000000000000000000000000000000000000000000000000000000815260048101859052829173ffffffffffffffffffffffffffffffffffffffff169063b4264233906024015f60405180830381865afa158015611549573d5f5f3e3d5ffd5b505050506040513d5f823e601f3d9081017fffffffffffffffffffffffffffffffffffffffffffffffffffffffffffffffe016820160405261158e919081019061208d565b80519091505f5b818110156115ff575f8382815181106115b0576115b0611e32565b60200260200101516040516020016115c89190612155565b6040516020818303038152906040526115e090612160565b90508581036115f6576001945050505050610404565b50600101611595565b505f95945050505050565b611613826116d3565b60405173ffffffffffffffffffffffffffffffffffffffff8316907fbc7cd75a20ee27fd9adebab32041f755214dbc6bffa90cc0225b39da2e5c2d3b905f90a280511561166457610bda82826117a1565b61048b611820565b7ff0c57e16840df040f15088dc2f81fe391c3923bec73e23a9662efc9c229c6a005468010000000000000000900460ff16610ea9576040517fd7e6bcf800000000000000000000000000000000000000000000000000000000815260040160405180910390fd5b8073ffffffffffffffffffffffffffffffffffffffff163b5f0361173b576040517f4c9c8ce300000000000000000000000000000000000000000000000000000000815273ffffffffffffffffffffffffffffffffffffffff82166004820152602401610fe3565b7f360894a13ba1a3210667c828492db98dca3e2076cc3735a920a3ca505d382bbc80547fffffffffffffffffffffffff00000000000000000000000000000000000000001673ffffffffffffffffffffffffffffffffffffffff92909216919091179055565b60605f5f8473ffffffffffffffffffffffffffffffffffffffff16846040516117ca9190612155565b5f60405180830381855af49150503d805f8114611802576040519150601f19603f3d011682016040523d82523d5f602084013e611807565b606091505b5091509150611817858383611858565b95945050505050565b3415610ea9576040517fb398979f00000000000000000000000000000000000000000000000000000000815260040160405180910390fd5b60608261186d57611868826118e7565b61042d565b8151158015611891575073ffffffffffffffffffffffffffffffffffffffff84163b155b156118e0576040517f9996b31500000000000000000000000000000000000000000000000000000000815273ffffffffffffffffffffffffffffffffffffffff85166004820152602401610fe3565b508061042d565b8051156118f75780518082602001fd5b6040517fd6bda27500000000000000000000000000000000000000000000000000000000815260040160405180910390fd5b5080545f8255905f5260205f2090810190610f1191906119cc565b828054828255905f5260205f209081019282156119bc579160200282015b828111156119bc57825182547fffffffffffffffffffffffff00000000000000000000000000000000000000001673ffffffffffffffffffffffffffffffffffffffff909116178255602090920191600190910190611962565b506119c89291506119cc565b5090565b5b808211156119c8575f81556001016119cd565b5f602082840312156119f0575f5ffd5b81357fffffffff000000000000000000000000000000000000000000000000000000008116811461042d575f5ffd5b5f81518084528060208401602086015e5f6020828601015260207fffffffffffffffffffffffffffffffffffffffffffffffffffffffffffffffe0601f83011685010191505092915050565b602081525f61042d6020830184611a1f565b7f4e487b71000000000000000000000000000000000000000000000000000000005f52604160045260245ffd5b6040516080810167ffffffffffffffff81118282101715611acd57611acd611a7d565b60405290565b604051601f82017fffffffffffffffffffffffffffffffffffffffffffffffffffffffffffffffe016810167ffffffffffffffff81118282101715611b1a57611b1a611a7d565b604052919050565b5f67ffffffffffffffff821115611b3b57611b3b611a7d565b5060051b60200190565b803573ffffffffffffffffffffffffffffffffffffffff81168114611b68575f5ffd5b919050565b5f82601f830112611b7c575f5ffd5b8135611b8f611b8a82611b22565b611ad3565b8082825260208201915060208360051b860101925085831115611bb0575f5ffd5b602085015b83811015611bd457611bc681611b45565b835260209283019201611bb5565b5095945050505050565b5f5f5f60608486031215611bf0575f5ffd5b83359250602084013567ffffffffffffffff811115611c0d575f5ffd5b611c1986828701611b6d565b93969395505050506040919091013590565b5f60208284031215611c3b575f5ffd5b5035919050565b5f67ffffffffffffffff821115611c5b57611c5b611a7d565b50601f017fffffffffffffffffffffffffffffffffffffffffffffffffffffffffffffffe01660200190565b5f5f60408385031215611c98575f5ffd5b611ca183611b45565b9150602083013567ffffffffffffffff811115611cbc575f5ffd5b8301601f81018513611ccc575f5ffd5b8035611cda611b8a82611c42565b818152866020838501011115611cee575f5ffd5b816020840160208301375f602083830101528093505050509250929050565b5f60208284031215611d1d575f5ffd5b61042d82611b45565b5f5f5f60408486031215611d38575f5ffd5b83359250602084013567ffffffffffffffff811115611d55575f5ffd5b8401601f81018613611d65575f5ffd5b803567ffffffffffffffff811115611d7b575f5ffd5b866020828401011115611d8c575f5ffd5b939660209190910195509293505050565b602080825282548282018190525f848152918220906040840190835b81811015611ded57835473ffffffffffffffffffffffffffffffffffffffff16835260019384019360209093019201611db9565b509095945050505050565b5f60208284031215611e08575f5ffd5b813567ffffffffffffffff811115611e1e575f5ffd5b611e2a84828501611b6d565b949350505050565b7f4e487b71000000000000000000000000000000000000000000000000000000005f52603260045260245ffd5b7f4e487b71000000000000000000000000000000000000000000000000000000005f52601160045260245ffd5b8181038181111561040457610404611e5f565b7f4e487b71000000000000000000000000000000000000000000000000000000005f52603160045260245ffd5b5f82601f830112611edb575f5ffd5b8151611ee9611b8a82611c42565b818152846020838601011115611efd575f5ffd5b8160208501602083015e5f918101602001919091529392505050565b5f60208284031215611f29575f5ffd5b815167ffffffffffffffff811115611f3f575f5ffd5b820160808185031215611f50575f5ffd5b611f58611aaa565b8151815260208201518015158114611f6e575f5ffd5b6020820152604082015167ffffffffffffffff811115611f8c575f5ffd5b611f9886828501611ecc565b604083015250606082015167ffffffffffffffff811115611fb7575f5ffd5b80830192505084601f830112611fcb575f5ffd5b8151611fd9611b8a82611b22565b8082825260208201915060208360051b860101925087831115611ffa575f5ffd5b6020850194505b8285101561201c578451825260209485019490910190612001565b6060840152509095945050505050565b5f6020828403121561203c575f5ffd5b5051919050565b8082018082111561040457610404611e5f565b5f7fffffffffffffffffffffffffffffffffffffffffffffffffffffffffffffffff820361208657612086611e5f565b5060010190565b5f6020828403121561209d575f5ffd5b815167ffffffffffffffff8111156120b3575f5ffd5b8201601f810184136120c3575f5ffd5b80516120d1611b8a82611b22565b8082825260208201915060208360051b8501019250868311156120f2575f5ffd5b602084015b8381101561213357805167ffffffffffffffff811115612115575f5ffd5b61212489602083890101611ecc565b845250602092830192016120f7565b509695505050505050565b5f81518060208401855e5f93019283525090919050565b5f61042d828461213e565b8051602080830151919081101561219f577fffffffffffffffffffffffffffffffffffffffffffffffffffffffffffffffff8160200360031b1b821691505b5091905056","linkReferences":{}},"methodIdentifiers":{"SPACE_ADDRESS()":"34322eff","UPGRADE_INTERFACE_VERSION()":"ad3cb1cc","description()":"7284e416","getEntitlementDataByRoleId(uint256)":"1eee07b2","initialize(address)":"c4d66de8","isCrosschain()":"2e1b61e4","isEntitled(bytes32,address[],bytes32)":"0cf0b533","moduleType()":"6465e69f","name()":"06fdde03","proxiableUUID()":"52d1902d","removeEntitlement(uint256)":"f0c111f9","setEntitlement(uint256,bytes)":"ef8be574","supportsInterface(bytes4)":"01ffc9a7","upgradeToAndCall(address,bytes)":"4f1ef286"},"id":226}