{"abi":[{"type":"constructor","inputs":[],"stateMutability":"nonpayable"},{"type":"function","name":"SPACE_ADDRESS","inputs":[],"outputs":[{"name":"","type":"address","internalType":"address"}],"stateMutability":"view"},{"type":"function","name":"UPGRADE_INTERFACE_VERSION","inputs":[],"outputs":[{"name":"","type":"string","internalType":"string"}],"stateMutability":"view"},{"type":"function","name":"description","inputs":[],"outputs":[{"name":"","type":"string","internalType":"string"}],"stateMutability":"view"},{"type":"function","name":"getEntitlementDataByRoleId","inputs":[{"name":"roleId","type":"uint256","internalType":"uint256"}],"outputs":[{"name":"","type":"bytes","internalType":"bytes"}],"stateMutability":"view"},{"type":"function","name":"initialize","inputs":[{"name":"_space","type":"address","internalType":"address"}],"outputs":[],"stateMutability":"nonpayable"},{"type":"function","name":"isCrosschain","inputs":[],"outputs":[{"name":"","type":"bool","internalType":"bool"}],"stateMutability":"pure"},{"type":"function","name":"isEntitled","inputs":[{"name":"channelId","type":"string","internalType":"string"},{"name":"wallets","type":"address[]","internalType":"address[]"},{"name":"permission","type":"bytes32","internalType":"bytes32"}],"outputs":[{"name":"","type":"bool","internalType":"bool"}],"stateMutability":"view"},{"type":"function","name":"moduleType","inputs":[],"outputs":[{"name":"","type":"string","internalType":"string"}],"stateMutability":"view"},{"type":"function","name":"name","inputs":[],"outputs":[{"name":"","type":"string","internalType":"string"}],"stateMutability":"view"},{"type":"function","name":"proxiableUUID","inputs":[],"outputs":[{"name":"","type":"bytes32","internalType":"bytes32"}],"stateMutability":"view"},{"type":"function","name":"removeEntitlement","inputs":[{"name":"roleId","type":"uint256","internalType":"uint256"}],"outputs":[],"stateMutability":"nonpayable"},{"type":"function","name":"setEntitlement","inputs":[{"name":"roleId","type":"uint256","internalType":"uint256"},{"name":"entitlementData","type":"bytes","internalType":"bytes"}],"outputs":[],"stateMutability":"nonpayable"},{"type":"function","name":"supportsInterface","inputs":[{"name":"interfaceId","type":"bytes4","internalType":"bytes4"}],"outputs":[{"name":"","type":"bool","internalType":"bool"}],"stateMutability":"view"},{"type":"function","name":"upgradeToAndCall","inputs":[{"name":"newImplementation","type":"address","internalType":"address"},{"name":"data","type":"bytes","internalType":"bytes"}],"outputs":[],"stateMutability":"payable"},{"type":"event","name":"Initialized","inputs":[{"name":"version","type":"uint64","indexed":false,"internalType":"uint64"}],"anonymous":false},{"type":"event","name":"Upgraded","inputs":[{"name":"implementation","type":"address","indexed":true,"internalType":"address"}],"anonymous":false},{"type":"error","name":"AddressEmptyCode","inputs":[{"name":"target","type":"address","internalType":"address"}]},{"type":"error","name":"ERC1967InvalidImplementation","inputs":[{"name":"implementation","type":"address","internalType":"address"}]},{"type":"error","name":"ERC1967NonPayable","inputs":[]},{"type":"error","name":"Entitlement__InvalidValue","inputs":[]},{"type":"error","name":"Entitlement__NotAllowed","inputs":[]},{"type":"error","name":"Entitlement__NotMember","inputs":[]},{"type":"error","name":"Entitlement__ValueAlreadyExists","inputs":[]},{"type":"error","name":"FailedInnerCall","inputs":[]},{"type":"error","name":"InvalidInitialization","inputs":[]},{"type":"error","name":"NotInitializing","inputs":[]},{"type":"error","name":"UUPSUnauthorizedCallContext","inputs":[]},{"type":"error","name":"UUPSUnsupportedProxiableUUID","inputs":[{"name":"slot","type":"bytes32","internalType":"bytes32"}]}],"bytecode":{"object":"0x60a06040523060805234801561001457600080fd5b5061001d610022565b6100d4565b7ff0c57e16840df040f15088dc2f81fe391c3923bec73e23a9662efc9c229c6a00805468010000000000000000900460ff16156100725760405163f92ee8a960e01b815260040160405180910390fd5b80546001600160401b03908116146100d15780546001600160401b0319166001600160401b0390811782556040519081527fc7f505b2f371ae2175ee4913f4499e1f2633a7b5936321eed1cdaeb6115181d29060200160405180910390a15b50565b608051611b726100fd60003960008181610918015281816109410152610ab80152611b726000f3fe6080604052600436106100dd5760003560e01c80636465e69f1161007f578063ad3cb1cc11610059578063ad3cb1cc146102a0578063c4d66de8146102d1578063ef8be574146102f1578063f0c111f91461031157600080fd5b80636465e69f146102045780637284e4161461023f578063a7b728711461028057600080fd5b80632e1b61e4116100bb5780632e1b61e41461018057806334322eff146101945780634f1ef286146101cc57806352d1902d146101e157600080fd5b806301ffc9a7146100e257806306fdde03146101175780631eee07b214610160575b600080fd5b3480156100ee57600080fd5b506101026100fd366004611408565b610331565b60405190151581526020015b60405180910390f35b34801561012357600080fd5b506101536040518060400160405280601081526020016f155cd95c88115b9d1a5d1b195b595b9d60821b81525081565b60405161010e9190611482565b34801561016c57600080fd5b5061015361017b366004611495565b610368565b34801561018c57600080fd5b506000610102565b3480156101a057600080fd5b506000546101b4906001600160a01b031681565b6040516001600160a01b03909116815260200161010e565b6101df6101da36600461155f565b6103a6565b005b3480156101ed57600080fd5b506101f66103c5565b60405190815260200161010e565b34801561021057600080fd5b506101536040518060400160405280600f81526020016e155cd95c915b9d1a5d1b195b595b9d608a1b81525081565b34801561024b57600080fd5b5061015360405180604001604052806015815260200174456e7469746c656d656e7420666f7220757365727360581b81525081565b34801561028c57600080fd5b5061010261029b3660046116cb565b6103e2565b3480156102ac57600080fd5b50610153604051806040016040528060058152602001640352e302e360dc1b81525081565b3480156102dd57600080fd5b506101df6102ec36600461173b565b61040f565b3480156102fd57600080fd5b506101df61030c366004611756565b610547565b34801561031d57600080fd5b506101df61032c366004611495565b6107bd565b60006001600160e01b03198216630b98417960e31b148061036257506301ffc9a760e01b6001600160e01b03198316145b92915050565b60606001600083815260200190815260200160002060020160405160200161039091906117a1565b6040516020818303038152906040529050919050565b6103ae61090d565b6103b7826109b4565b6103c182826109eb565b5050565b60006103cf610aad565b50600080516020611b5283398151915290565b600083156103fd576103f685858585610af6565b9050610407565b6103f68383610c28565b949350505050565b7ff0c57e16840df040f15088dc2f81fe391c3923bec73e23a9662efc9c229c6a008054600160401b810460ff1615906001600160401b03166000811580156104545750825b90506000826001600160401b031660011480156104705750303b155b90508115801561047e575080155b1561049c5760405163f92ee8a960e01b815260040160405180910390fd5b845467ffffffffffffffff1916600117855583156104c657845460ff60401b1916600160401b1785555b6104ce610c88565b6104d6610c88565b6104de610c88565b600080546001600160a01b0319166001600160a01b038816179055831561053f57845460ff60401b19168555604051600181527fc7f505b2f371ae2175ee4913f4499e1f2633a7b5936321eed1cdaeb6115181d29060200160405180910390a15b505050505050565b6000546001600160a01b0316336001600160a01b03161461057b57604051630ce39a4b60e21b815260040160405180910390fd5b6000610589828401846117f1565b905060005b81518110156105f15760008282815181106105ab576105ab611825565b6020026020010151905060006001600160a01b0316816001600160a01b0316036105e8576040516372bbc80f60e11b815260040160405180910390fd5b5060010161058e565b505b600084815260016020526040902060020154156106a357600084815260016020819052604082206002018054909161062a91611851565b8154811061063a5761063a611825565b6000918252602090912001546001600160a01b0316905061065b8186610c90565b600085815260016020526040902060020180548061067b5761067b611864565b600082815260209020810160001990810180546001600160a01b0319169055019055506105f3565b6000848152600160208190526040822080546001600160a01b0319168155908101829055906106d56002830182611370565b505060405180606001604052806106e93390565b6001600160a01b0390811682524260208084019190915260409283018590526000888152600180835290849020855181546001600160a01b03191694169390931783558482015190830155918301518051919261074e9260028501929091019061138e565b5090505060005b81518110156107b6576002600083838151811061077457610774611825565b6020908102919091018101516001600160a01b031682528181019290925260400160009081208054600181810183559183529290912090910186905501610755565b5050505050565b6000546001600160a01b0316336001600160a01b0316146107f157604051630ce39a4b60e21b815260040160405180910390fd5b6000818152600160205260409020546001600160a01b0316610826576040516372bbc80f60e11b815260040160405180910390fd5b600081815260016020526040902060020154156108d657600081815260016020819052604082206002018054909161085d91611851565b8154811061086d5761086d611825565b6000918252602090912001546001600160a01b0316905061088e8183610c90565b60008281526001602052604090206002018054806108ae576108ae611864565b600082815260209020810160001990810180546001600160a01b031916905501905550610826565b6000818152600160208190526040822080546001600160a01b0319168155908101829055906109086002830182611370565b505050565b306001600160a01b037f000000000000000000000000000000000000000000000000000000000000000016148061099457507f00000000000000000000000000000000000000000000000000000000000000006001600160a01b0316610988600080516020611b52833981519152546001600160a01b031690565b6001600160a01b031614155b156109b25760405163703e46dd60e11b815260040160405180910390fd5b565b6000546001600160a01b0316336001600160a01b0316146109e857604051630ce39a4b60e21b815260040160405180910390fd5b50565b816001600160a01b03166352d1902d6040518163ffffffff1660e01b8152600401602060405180830381865afa925050508015610a45575060408051601f3d908101601f19168201909252610a429181019061187a565b60015b610a7257604051634c9c8ce360e01b81526001600160a01b03831660048201526024015b60405180910390fd5b600080516020611b528339815191528114610aa357604051632a87526960e21b815260048101829052602401610a69565b6109088383610d9e565b306001600160a01b037f000000000000000000000000000000000000000000000000000000000000000016146109b25760405163703e46dd60e11b815260040160405180910390fd5b60008054604051637cd7ee3d60e01b815282916001600160a01b031690637cd7ee3d90610b299089908990600401611893565b600060405180830381865afa158015610b46573d6000803e3d6000fd5b505050506040513d6000823e601f3d908101601f19168201604052610b6e9190810190611966565b90506000610b7b85610df4565b905060005b826060015151811015610c1d57600083606001518281518110610ba557610ba5611825565b6020026020010151905060005b8351811015610c135781848281518110610bce57610bce611825565b6020026020010151148015610c015750610c01848281518110610bf357610bf3611825565b6020026020010151886110b4565b15610c0b57600195505b600101610bb2565b5050600101610b80565b505050949350505050565b600080610c3484610df4565b905060005b8151811015610c7d57610c65828281518110610c5757610c57611825565b6020026020010151856110b4565b15610c7557600192505050610362565b600101610c39565b506000949350505050565b6109b26111a5565b6001600160a01b0382166000908152600260205260408120905b8154811015610d555782828281548110610cc657610cc6611825565b906000526020600020015403610d4d5781548290610ce690600190611851565b81548110610cf657610cf6611825565b9060005260206000200154828281548110610d1357610d13611825565b906000526020600020018190555081805480610d3157610d31611864565b6001900381819060005260206000200160009055905550505050565b600101610caa565b5060405162461bcd60e51b815260206004820152601e60248201527f526f6c65204944206e6f7420666f756e6420666f7220746865207573657200006044820152606401610a69565b610da7826111ee565b6040516001600160a01b038316907fbc7cd75a20ee27fd9adebab32041f755214dbc6bffa90cc0225b39da2e5c2d3b90600090a2805115610dec576109088282611253565b6103c16112c9565b60606000805b8351811015610e5a5760026000858381518110610e1957610e19611825565b60200260200101516001600160a01b03166001600160a01b031681526020019081526020016000208054905082610e509190611a32565b9150600101610dfa565b50600160005260026020527fe90b7bceb6e7df5418fb78d8ee546e97c83a08bbccc01a0644d599ccd2a7c2e054610e919082611a32565b90506000816001600160401b03811115610ead57610ead6114ca565b604051908082528060200260200182016040528015610ed6578160200160208202803683370190505b5090506000805b8551811015610fd857600060026000888481518110610efe57610efe611825565b60200260200101516001600160a01b03166001600160a01b03168152602001908152602001600020805480602002602001604051908101604052809291908181526020018280548015610f7057602002820191906000526020600020905b815481526020019060010190808311610f5c575b5050505050905060005b8151811015610fce57818181518110610f9557610f95611825565b6020026020010151858580610fa990611a45565b965081518110610fbb57610fbb611825565b6020908102919091010152600101610f7a565b5050600101610edd565b5060016000908152600260209081527fe90b7bceb6e7df5418fb78d8ee546e97c83a08bbccc01a0644d599ccd2a7c2e0805460408051828502810185019091528181529283018282801561104b57602002820191906000526020600020905b815481526020019060010190808311611037575b5050505050905060005b81518110156110a95781818151811061107057611070611825565b602002602001015184848061108490611a45565b95508151811061109657611096611825565b6020908102919091010152600101611055565b509195945050505050565b6000805460405163b426423360e01b81526004810185905282916001600160a01b03169063b426423390602401600060405180830381865afa1580156110fe573d6000803e3d6000fd5b505050506040513d6000823e601f3d908101601f191682016040526111269190810190611a5e565b805190915060005b8181101561119957600083828151811061114a5761114a611825565b60200260200101516040516020016111629190611b0e565b60405160208183030381529060405261117a90611b2a565b9050858103611190576001945050505050610362565b5060010161112e565b50600095945050505050565b7ff0c57e16840df040f15088dc2f81fe391c3923bec73e23a9662efc9c229c6a0054600160401b900460ff166109b257604051631afcd79f60e31b815260040160405180910390fd5b806001600160a01b03163b60000361122457604051634c9c8ce360e01b81526001600160a01b0382166004820152602401610a69565b600080516020611b5283398151915280546001600160a01b0319166001600160a01b0392909216919091179055565b6060600080846001600160a01b0316846040516112709190611b0e565b600060405180830381855af49150503d80600081146112ab576040519150601f19603f3d011682016040523d82523d6000602084013e6112b0565b606091505b50915091506112c08583836112e8565b95945050505050565b34156109b25760405163b398979f60e01b815260040160405180910390fd5b6060826112fd576112f882611347565b611340565b815115801561131457506001600160a01b0384163b155b1561133d57604051639996b31560e01b81526001600160a01b0385166004820152602401610a69565b50805b9392505050565b8051156113575780518082602001fd5b604051630a12f52160e11b815260040160405180910390fd5b50805460008255906000526020600020908101906109e891906113f3565b8280548282559060005260206000209081019282156113e3579160200282015b828111156113e357825182546001600160a01b0319166001600160a01b039091161782556020909201916001909101906113ae565b506113ef9291506113f3565b5090565b5b808211156113ef57600081556001016113f4565b60006020828403121561141a57600080fd5b81356001600160e01b03198116811461134057600080fd5b60005b8381101561144d578181015183820152602001611435565b50506000910152565b6000815180845261146e816020860160208601611432565b601f01601f19169290920160200192915050565b6020815260006113406020830184611456565b6000602082840312156114a757600080fd5b5035919050565b80356001600160a01b03811681146114c557600080fd5b919050565b634e487b7160e01b600052604160045260246000fd5b604051608081016001600160401b0381118282101715611502576115026114ca565b60405290565b604051601f8201601f191681016001600160401b0381118282101715611530576115306114ca565b604052919050565b60006001600160401b03821115611551576115516114ca565b50601f01601f191660200190565b6000806040838503121561157257600080fd5b61157b836114ae565b915060208301356001600160401b0381111561159657600080fd5b8301601f810185136115a757600080fd5b80356115ba6115b582611538565b611508565b8181528660208385010111156115cf57600080fd5b816020840160208301376000602083830101528093505050509250929050565b60008083601f84011261160157600080fd5b5081356001600160401b0381111561161857600080fd5b60208301915083602082850101111561163057600080fd5b9250929050565b60006001600160401b03821115611650576116506114ca565b5060051b60200190565b600082601f83011261166b57600080fd5b8135602061167b6115b583611637565b8083825260208201915060208460051b87010193508684111561169d57600080fd5b602086015b848110156116c0576116b3816114ae565b83529183019183016116a2565b509695505050505050565b600080600080606085870312156116e157600080fd5b84356001600160401b03808211156116f857600080fd5b611704888389016115ef565b9096509450602087013591508082111561171d57600080fd5b5061172a8782880161165a565b949793965093946040013593505050565b60006020828403121561174d57600080fd5b611340826114ae565b60008060006040848603121561176b57600080fd5b8335925060208401356001600160401b0381111561178857600080fd5b611794868287016115ef565b9497909650939450505050565b6020808252825482820181905260008481528281209092916040850190845b818110156117e55783546001600160a01b0316835260019384019392850192016117c0565b50909695505050505050565b60006020828403121561180357600080fd5b81356001600160401b0381111561181957600080fd5b6104078482850161165a565b634e487b7160e01b600052603260045260246000fd5b634e487b7160e01b600052601160045260246000fd5b818103818111156103625761036261183b565b634e487b7160e01b600052603160045260246000fd5b60006020828403121561188c57600080fd5b5051919050565b60208152816020820152818360408301376000818301604090810191909152601f909201601f19160101919050565b600082601f8301126118d357600080fd5b81516118e16115b582611538565b8181528460208386010111156118f657600080fd5b610407826020830160208701611432565b600082601f83011261191857600080fd5b815160206119286115b583611637565b8083825260208201915060208460051b87010193508684111561194a57600080fd5b602086015b848110156116c0578051835291830191830161194f565b60006020828403121561197857600080fd5b81516001600160401b038082111561198f57600080fd5b90830190608082860312156119a357600080fd5b6119ab6114e0565b8251828111156119ba57600080fd5b6119c6878286016118c2565b825250602083015180151581146119dc57600080fd5b60208201526040830151828111156119f357600080fd5b6119ff878286016118c2565b604083015250606083015182811115611a1757600080fd5b611a2387828601611907565b60608301525095945050505050565b808201808211156103625761036261183b565b600060018201611a5757611a5761183b565b5060010190565b60006020808385031215611a7157600080fd5b82516001600160401b0380821115611a8857600080fd5b818501915085601f830112611a9c57600080fd5b8151611aaa6115b582611637565b81815260059190911b83018401908481019088831115611ac957600080fd5b8585015b83811015611b0157805185811115611ae55760008081fd5b611af38b89838a01016118c2565b845250918601918601611acd565b5098975050505050505050565b60008251611b20818460208701611432565b9190910192915050565b80516020808301519190811015611b4b576000198160200360031b1b821691505b5091905056fe360894a13ba1a3210667c828492db98dca3e2076cc3735a920a3ca505d382bbc","linkReferences":{}},"methodIdentifiers":{"SPACE_ADDRESS()":"34322eff","UPGRADE_INTERFACE_VERSION()":"ad3cb1cc","description()":"7284e416","getEntitlementDataByRoleId(uint256)":"1eee07b2","initialize(address)":"c4d66de8","isCrosschain()":"2e1b61e4","isEntitled(string,address[],bytes32)":"a7b72871","moduleType()":"6465e69f","name()":"06fdde03","proxiableUUID()":"52d1902d","removeEntitlement(uint256)":"f0c111f9","setEntitlement(uint256,bytes)":"ef8be574","supportsInterface(bytes4)":"01ffc9a7","upgradeToAndCall(address,bytes)":"4f1ef286"},"id":132}