{"abi":[{"type":"function","name":"__WalletLink_init","inputs":[{"name":"sclEip6565","type":"address","internalType":"address"}],"outputs":[],"stateMutability":"nonpayable"},{"type":"function","name":"checkIfLinked","inputs":[{"name":"rootKey","type":"address","internalType":"address"},{"name":"wallet","type":"address","internalType":"address"}],"outputs":[{"name":"","type":"bool","internalType":"bool"}],"stateMutability":"view"},{"type":"function","name":"checkIfNonEVMWalletLinked","inputs":[{"name":"rootKey","type":"address","internalType":"address"},{"name":"walletHash","type":"bytes32","internalType":"bytes32"}],"outputs":[{"name":"","type":"bool","internalType":"bool"}],"stateMutability":"view"},{"type":"function","name":"getAllWalletsByRootKey","inputs":[{"name":"rootKey","type":"address","internalType":"address"}],"outputs":[{"name":"wallets","type":"tuple[]","internalType":"struct WalletLib.Wallet[]","components":[{"name":"addr","type":"string","internalType":"string"},{"name":"vmType","type":"uint8","internalType":"enum WalletLib.VirtualMachineType"}]}],"stateMutability":"view"},{"type":"function","name":"getDefaultWallet","inputs":[{"name":"rootWallet","type":"address","internalType":"address"}],"outputs":[{"name":"","type":"address","internalType":"address"}],"stateMutability":"view"},{"type":"function","name":"getDependency","inputs":[{"name":"dependency","type":"bytes32","internalType":"bytes32"}],"outputs":[{"name":"","type":"address","internalType":"address"}],"stateMutability":"view"},{"type":"function","name":"getLatestNonceForRootKey","inputs":[{"name":"rootKey","type":"address","internalType":"address"}],"outputs":[{"name":"","type":"uint256","internalType":"uint256"}],"stateMutability":"view"},{"type":"function","name":"getRootKeyForWallet","inputs":[{"name":"wallet","type":"address","internalType":"address"}],"outputs":[{"name":"rootKey","type":"address","internalType":"address"}],"stateMutability":"view"},{"type":"function","name":"getWalletsByRootKey","inputs":[{"name":"rootKey","type":"address","internalType":"address"}],"outputs":[{"name":"wallets","type":"address[]","internalType":"address[]"}],"stateMutability":"view"},{"type":"function","name":"linkCallerToRootKey","inputs":[{"name":"rootWallet","type":"tuple","internalType":"struct IWalletLinkBase.LinkedWallet","components":[{"name":"addr","type":"address","internalType":"address"},{"name":"signature","type":"bytes","internalType":"bytes"},{"name":"message","type":"string","internalType":"string"}]},{"name":"nonce","type":"uint256","internalType":"uint256"}],"outputs":[],"stateMutability":"nonpayable"},{"type":"function","name":"linkNonEVMWalletToRootKey","inputs":[{"name":"wallet","type":"tuple","internalType":"struct IWalletLinkBase.NonEVMLinkedWallet","components":[{"name":"wallet","type":"tuple","internalType":"struct WalletLib.Wallet","components":[{"name":"addr","type":"string","internalType":"string"},{"name":"vmType","type":"uint8","internalType":"enum WalletLib.VirtualMachineType"}]},{"name":"signature","type":"bytes","internalType":"bytes"},{"name":"message","type":"string","internalType":"string"},{"name":"extraData","type":"tuple[]","internalType":"struct IWalletLinkBase.VMSpecificData[]","components":[{"name":"key","type":"string","internalType":"string"},{"name":"value","type":"bytes","internalType":"bytes"}]}]},{"name":"nonce","type":"uint256","internalType":"uint256"}],"outputs":[],"stateMutability":"nonpayable"},{"type":"function","name":"linkWalletToRootKey","inputs":[{"name":"wallet","type":"tuple","internalType":"struct IWalletLinkBase.LinkedWallet","components":[{"name":"addr","type":"address","internalType":"address"},{"name":"signature","type":"bytes","internalType":"bytes"},{"name":"message","type":"string","internalType":"string"}]},{"name":"rootWallet","type":"tuple","internalType":"struct IWalletLinkBase.LinkedWallet","components":[{"name":"addr","type":"address","internalType":"address"},{"name":"signature","type":"bytes","internalType":"bytes"},{"name":"message","type":"string","internalType":"string"}]},{"name":"nonce","type":"uint256","internalType":"uint256"}],"outputs":[],"stateMutability":"nonpayable"},{"type":"function","name":"removeCallerLink","inputs":[],"outputs":[],"stateMutability":"nonpayable"},{"type":"function","name":"removeLink","inputs":[{"name":"wallet","type":"address","internalType":"address"},{"name":"rootWallet","type":"tuple","internalType":"struct IWalletLinkBase.LinkedWallet","components":[{"name":"addr","type":"address","internalType":"address"},{"name":"signature","type":"bytes","internalType":"bytes"},{"name":"message","type":"string","internalType":"string"}]},{"name":"nonce","type":"uint256","internalType":"uint256"}],"outputs":[],"stateMutability":"nonpayable"},{"type":"function","name":"removeNonEVMWalletLink","inputs":[{"name":"wallet","type":"tuple","internalType":"struct WalletLib.Wallet","components":[{"name":"addr","type":"string","internalType":"string"},{"name":"vmType","type":"uint8","internalType":"enum WalletLib.VirtualMachineType"}]},{"name":"nonce","type":"uint256","internalType":"uint256"}],"outputs":[],"stateMutability":"nonpayable"},{"type":"function","name":"setDefaultWallet","inputs":[{"name":"defaultWallet","type":"address","internalType":"address"}],"outputs":[],"stateMutability":"nonpayable"},{"type":"function","name":"setDependency","inputs":[{"name":"dependency","type":"bytes32","internalType":"bytes32"},{"name":"dependencyAddress","type":"address","internalType":"address"}],"outputs":[],"stateMutability":"nonpayable"},{"type":"event","name":"Initialized","inputs":[{"name":"version","type":"uint32","indexed":false,"internalType":"uint32"}],"anonymous":false},{"type":"event","name":"InterfaceAdded","inputs":[{"name":"interfaceId","type":"bytes4","indexed":true,"internalType":"bytes4"}],"anonymous":false},{"type":"event","name":"InterfaceRemoved","inputs":[{"name":"interfaceId","type":"bytes4","indexed":true,"internalType":"bytes4"}],"anonymous":false},{"type":"event","name":"LinkNonEVMWalletToRootWallet","inputs":[{"name":"walletHash","type":"bytes32","indexed":true,"internalType":"bytes32"},{"name":"rootKey","type":"address","indexed":true,"internalType":"address"}],"anonymous":false},{"type":"event","name":"LinkWalletToRootKey","inputs":[{"name":"wallet","type":"address","indexed":true,"internalType":"address"},{"name":"rootKey","type":"address","indexed":true,"internalType":"address"}],"anonymous":false},{"type":"event","name":"OwnershipTransferred","inputs":[{"name":"previousOwner","type":"address","indexed":true,"internalType":"address"},{"name":"newOwner","type":"address","indexed":true,"internalType":"address"}],"anonymous":false},{"type":"event","name":"RemoveLink","inputs":[{"name":"wallet","type":"address","indexed":true,"internalType":"address"},{"name":"secondWallet","type":"address","indexed":true,"internalType":"address"}],"anonymous":false},{"type":"event","name":"RemoveNonEVMWalletLink","inputs":[{"name":"walletHash","type":"bytes32","indexed":true,"internalType":"bytes32"},{"name":"rootKey","type":"address","indexed":true,"internalType":"address"}],"anonymous":false},{"type":"event","name":"SetDefaultWallet","inputs":[{"name":"rootKey","type":"address","indexed":true,"internalType":"address"},{"name":"defaultWallet","type":"address","indexed":true,"internalType":"address"}],"anonymous":false},{"type":"error","name":"Initializable_InInitializingState","inputs":[]},{"type":"error","name":"Initializable_NotInInitializingState","inputs":[]},{"type":"error","name":"Introspection_AlreadySupported","inputs":[]},{"type":"error","name":"Introspection_NotSupported","inputs":[]},{"type":"error","name":"InvalidAccountNonce","inputs":[{"name":"account","type":"address","internalType":"address"},{"name":"currentNonce","type":"uint256","internalType":"uint256"}]},{"type":"error","name":"Ownable__NotOwner","inputs":[{"name":"account","type":"address","internalType":"address"}]},{"type":"error","name":"Ownable__ZeroAddress","inputs":[]},{"type":"error","name":"WalletLink__AddressMismatch","inputs":[]},{"type":"error","name":"WalletLink__CannotLinkToRootWallet","inputs":[{"name":"wallet","type":"address","internalType":"address"},{"name":"rootKey","type":"address","internalType":"address"}]},{"type":"error","name":"WalletLink__CannotLinkToSelf","inputs":[]},{"type":"error","name":"WalletLink__CannotRemoveDefaultWallet","inputs":[]},{"type":"error","name":"WalletLink__CannotRemoveRootWallet","inputs":[]},{"type":"error","name":"WalletLink__DefaultWalletAlreadySet","inputs":[]},{"type":"error","name":"WalletLink__InvalidAddress","inputs":[]},{"type":"error","name":"WalletLink__InvalidMessage","inputs":[]},{"type":"error","name":"WalletLink__InvalidNonEVMAddress","inputs":[]},{"type":"error","name":"WalletLink__InvalidSignature","inputs":[]},{"type":"error","name":"WalletLink__InvalidVMSpecificData","inputs":[{"name":"key","type":"string","internalType":"string"},{"name":"value","type":"bytes","internalType":"bytes"}]},{"type":"error","name":"WalletLink__LinkAlreadyExists","inputs":[{"name":"wallet","type":"address","internalType":"address"},{"name":"rootKey","type":"address","internalType":"address"}]},{"type":"error","name":"WalletLink__LinkedToAnotherRootKey","inputs":[{"name":"wallet","type":"address","internalType":"address"},{"name":"rootKey","type":"address","internalType":"address"}]},{"type":"error","name":"WalletLink__MaxLinkedWalletsReached","inputs":[]},{"type":"error","name":"WalletLink__NonEVMWalletAlreadyLinked","inputs":[{"name":"wallet","type":"string","internalType":"string"},{"name":"rootKey","type":"address","internalType":"address"}]},{"type":"error","name":"WalletLink__NonEVMWalletNotLinked","inputs":[{"name":"wallet","type":"string","internalType":"string"},{"name":"rootKey","type":"address","internalType":"address"}]},{"type":"error","name":"WalletLink__NotLinked","inputs":[{"name":"wallet","type":"address","internalType":"address"},{"name":"rootKey","type":"address","internalType":"address"}]},{"type":"error","name":"WalletLink__RootKeyMismatch","inputs":[{"name":"callerRootKey","type":"address","internalType":"address"},{"name":"rootKey","type":"address","internalType":"address"}]},{"type":"error","name":"WalletLink__UnsupportedVMType","inputs":[]}],"bytecode":{"object":"0x6080604052348015600e575f5ffd5b5060156019565b60bd565b7f59b501c3653afc186af7d48dda36cf6732bd21629a6295693664240a6ef520008054640100000000900460ff16156064576040516366008a2d60e01b815260040160405180910390fd5b805463ffffffff908116101560ba57805463ffffffff191663ffffffff90811782556040519081527fe9c9b456cb2994b80aeef036cf59d26e9617df80f816a6ee5a5b4166e07e2f5c9060200160405180910390a15b50565b613aaa806100ca5f395ff3fe608060405234801561000f575f5ffd5b5060043610610115575f3560e01c806371926900116100ad578063a3f100e51161007d578063af61f22b11610063578063af61f22b14610273578063baafda6b14610293578063f8210398146102a6575f5ffd5b8063a3f100e51461024d578063a5bbf48014610260575f5ffd5b806371926900146101f15780637238695e14610204578063912b97581461021757806397d9a8491461023a575f5ffd5b8063243a7134116100e8578063243a7134146101ae5780632f461453146101c357806335d2fb64146101d657806364899d98146101e9575f5ffd5b806302345b9814610119578063039dd19314610142578063101659b11461017a57806320a00ac81461018d575b5f5ffd5b61012c610127366004613019565b6102b9565b6040516101399190613032565b60405180910390f35b61015561015036600461308a565b6102ca565b60405173ffffffffffffffffffffffffffffffffffffffff9091168152602001610139565b610155610188366004613019565b610312565b6101a061019b366004613019565b610362565b604051908152602001610139565b6101c16101bc3660046130b1565b6103ab565b005b6101c16101d136600461311f565b6103bb565b6101c16101e4366004613161565b6103c9565b6101c16103d4565b6101c16101ff366004613197565b6103de565b6101c16102123660046131dd565b6103e8565b61022a610225366004613207565b6104cd565b6040519015158152602001610139565b61022a61024836600461322f565b610522565b6101c161025b366004613019565b61056f565b6101c161026e366004613249565b6106a7565b610286610281366004613019565b6106b1565b60405161013991906132e7565b6101c16102a1366004613019565b6106bc565b6101556102b4366004613019565b6106c6565b60606102c482610713565b92915050565b5f8181527f19511ce7944c192b1007be99b82019218d1decfc513f05239612743360a0dc02602052604081205473ffffffffffffffffffffffffffffffffffffffff166102c4565b73ffffffffffffffffffffffffffffffffffffffff8082165f9081527f19511ce7944c192b1007be99b82019218d1decfc513f05239612743360a0dc0360205260408120600201549091166102c4565b73ffffffffffffffffffffffffffffffffffffffff81165f9081527fda5d6d87446d81938877f0ee239dac391146dd7466ea30567f72becf06773c0060205260408120546102c4565b6103b6838383610762565b505050565b6103c58282610be3565b5050565b6103b6838383610dea565b6103dc6111ed565b565b6103c582826113d5565b7f4675fa8241f86f37157864d3d49b85ad4b164352c516da28e1678a90470ae3005473ffffffffffffffffffffffffffffffffffffffff16331461045f576040517f65f490650000000000000000000000000000000000000000000000000000000081523360048201526024015b60405180910390fd5b5f8281527f19511ce7944c192b1007be99b82019218d1decfc513f05239612743360a0dc026020526040902080547fffffffffffffffffffffffff00000000000000000000000000000000000000001673ffffffffffffffffffffffffffffffffffffffff83161790555050565b73ffffffffffffffffffffffffffffffffffffffff8181165f9081527f19511ce7944c192b1007be99b82019218d1decfc513f05239612743360a0dc01602052604081205490918481169116145b9392505050565b5f8181527f19511ce7944c192b1007be99b82019218d1decfc513f05239612743360a0dc04602052604081205473ffffffffffffffffffffffffffffffffffffffff80851691161461051b565b7f59b501c3653afc186af7d48dda36cf6732bd21629a6295693664240a6ef5200054640100000000900460ff166105d2576040517f77a399b800000000000000000000000000000000000000000000000000000000815260040160405180910390fd5b6105fb7f26343afe00000000000000000000000000000000000000000000000000000000611602565b7f53434c5f454950363536350000000000000000000000000000000000000000005f527f19511ce7944c192b1007be99b82019218d1decfc513f05239612743360a0dc026020527fec8c052a03b4861df1d3561683815d4c9de39968b0fde24c6d42a80a8e74254d80547fffffffffffffffffffffffff00000000000000000000000000000000000000001673ffffffffffffffffffffffffffffffffffffffff831617905550565b50565b6103c58282611757565b60606102c482611a01565b6106a43382611cab565b73ffffffffffffffffffffffffffffffffffffffff8082165f9081527f19511ce7944c192b1007be99b82019218d1decfc513f05239612743360a0dc0160205260408120549091166102c4565b73ffffffffffffffffffffffffffffffffffffffff81165f9081527f19511ce7944c192b1007be99b82019218d1decfc513f05239612743360a0dc00602052604090206060906102c490611f91565b7f19511ce7944c192b1007be99b82019218d1decfc513f05239612743360a0dc006107a6816107946020870187613019565b6107a16020870187613019565b611f9d565b5f6108706107b760408701876133c0565b8080601f0160208091040260200160405190810160405280939291908181526020018383808284375f920191909152506107f8925050506020880188613019565b858251602093840120604080517f6bb89d031fcd292ecd4c0e6855878b7165cebc3a2f35bc6bbac48c088dd8325c818701528082019290925273ffffffffffffffffffffffffffffffffffffffff9390931660608201526080808201929092528251808203909201825260a001909152805191012090565b90505f61087c826122e7565b905061088b6020860186613019565b73ffffffffffffffffffffffffffffffffffffffff166108eb826108b260208901896133c0565b8080601f0160208091040260200160405190810160405280939291908181526020018383808284375f9201919091525061231292505050565b73ffffffffffffffffffffffffffffffffffffffff1614610938576040517f55e0083a00000000000000000000000000000000000000000000000000000000815260040160405180910390fd5b610a0161094860408701876133c0565b8080601f0160208091040260200160405190810160405280939291908181526020018383808284375f92019190915250610989925050506020880188613019565b868251602093840120604080517f6bb89d031fcd292ecd4c0e6855878b7165cebc3a2f35bc6bbac48c088dd8325c818701528082019290925273ffffffffffffffffffffffffffffffffffffffff9390931660608201526080808201929092528251808203909201825260a001909152805191012090565b91505f610a0d836122e7565b9050610a1c6020880188613019565b73ffffffffffffffffffffffffffffffffffffffff16610a43826108b260208b018b6133c0565b73ffffffffffffffffffffffffffffffffffffffff1614610a90576040517f55e0083a00000000000000000000000000000000000000000000000000000000815260040160405180910390fd5b610aa6610aa06020880188613019565b866123b7565b610af0610ab66020890189613019565b855f610ac560208b018b613019565b73ffffffffffffffffffffffffffffffffffffffff16815260208101919091526040015f209061245b565b50610afe6020870187613019565b600185015f610b1060208b018b613019565b73ffffffffffffffffffffffffffffffffffffffff908116825260208083019390935260409091015f2080547fffffffffffffffffffffffff0000000000000000000000000000000000000000169390911692909217909155610b7590870187613019565b73ffffffffffffffffffffffffffffffffffffffff16610b986020890189613019565b73ffffffffffffffffffffffffffffffffffffffff167f64126824352170c4025060d1f6e215159635e4b08e649830695f26ef6d2b572160405160405180910390a350505050505050565b7f19511ce7944c192b1007be99b82019218d1decfc513f05239612743360a0dc0033610c1782826107a16020880188613019565b5f610c65610c2860408701876133c0565b8080601f0160208091040260200160405190810160405280939291908181526020018383808284375f920191909152508692508891506122709050565b90505f610c71826122e7565b9050610c806020870187613019565b73ffffffffffffffffffffffffffffffffffffffff16610ca7826108b260208a018a6133c0565b73ffffffffffffffffffffffffffffffffffffffff1614610cf4576040517f55e0083a00000000000000000000000000000000000000000000000000000000815260040160405180910390fd5b610d04610aa06020880188613019565b610d1783855f610ac560208b018b613019565b50610d256020870187613019565b73ffffffffffffffffffffffffffffffffffffffff8481165f908152600187016020908152604090912080547fffffffffffffffffffffffff00000000000000000000000000000000000000001693909216929092179055610d8990870187613019565b73ffffffffffffffffffffffffffffffffffffffff168373ffffffffffffffffffffffffffffffffffffffff167f64126824352170c4025060d1f6e215159635e4b08e649830695f26ef6d2b572160405160405180910390a3505050505050565b7f19511ce7944c192b1007be99b82019218d1decfc513f05239612743360a0dc0073ffffffffffffffffffffffffffffffffffffffff84161580610e4f57505f610e376020850185613019565b73ffffffffffffffffffffffffffffffffffffffff16145b15610e86576040517f6df3f5c300000000000000000000000000000000000000000000000000000000815260040160405180910390fd5b610e936020840184613019565b73ffffffffffffffffffffffffffffffffffffffff168473ffffffffffffffffffffffffffffffffffffffff1603610ef7576040517f672edc7600000000000000000000000000000000000000000000000000000000815260040160405180910390fd5b610f046020840184613019565b73ffffffffffffffffffffffffffffffffffffffff8581165f9081526001840160205260409020548116911614610f955783610f436020850185613019565b6040517f5e300c8300000000000000000000000000000000000000000000000000000000815273ffffffffffffffffffffffffffffffffffffffff928316600482015291166024820152604401610456565b73ffffffffffffffffffffffffffffffffffffffff8416600382015f610fbe6020870187613019565b73ffffffffffffffffffffffffffffffffffffffff908116825260208201929092526040015f20600201541603611021576040517fd51f04c100000000000000000000000000000000000000000000000000000000815260040160405180910390fd5b5f61106f61103260408601866133c0565b8080601f0160208091040260200160405190810160405280939291908181526020018383808284375f920191909152508992508791506122709050565b90505f61107b826122e7565b905061108a6020860186613019565b73ffffffffffffffffffffffffffffffffffffffff166110b1826108b260208901896133c0565b73ffffffffffffffffffffffffffffffffffffffff16146110fe576040517f55e0083a00000000000000000000000000000000000000000000000000000000815260040160405180910390fd5b61111461110e6020870187613019565b856123b7565b73ffffffffffffffffffffffffffffffffffffffff86165f9081526001840160209081526040822080547fffffffffffffffffffffffff00000000000000000000000000000000000000001690556111a2918891869190611177908a018a613019565b73ffffffffffffffffffffffffffffffffffffffff16815260208101919091526040015f209061247c565b50604051339073ffffffffffffffffffffffffffffffffffffffff8816907f9a9d98629b39adf596077fc95a0712ba55c38f40a354e99d366a10f9c3e27da2905f90a3505050505050565b335f8181527f19511ce7944c192b1007be99b82019218d1decfc513f05239612743360a0dc0160205260409020547f19511ce7944c192b1007be99b82019218d1decfc513f05239612743360a0dc00919073ffffffffffffffffffffffffffffffffffffffff16806112ab576040517f5e300c8300000000000000000000000000000000000000000000000000000000815273ffffffffffffffffffffffffffffffffffffffff808416600483015282166024820152604401610456565b73ffffffffffffffffffffffffffffffffffffffff8181165f908152600385016020526040902060020154818416911603611312576040517fd51f04c100000000000000000000000000000000000000000000000000000000815260040160405180910390fd5b73ffffffffffffffffffffffffffffffffffffffff8083165f908152600185016020908152604080832080547fffffffffffffffffffffffff0000000000000000000000000000000000000000169055928416825285905220611375908361247c565b508073ffffffffffffffffffffffffffffffffffffffff168273ffffffffffffffffffffffffffffffffffffffff167f9a9d98629b39adf596077fc95a0712ba55c38f40a354e99d366a10f9c3e27da260405160405180910390a3505050565b6040517f19511ce7944c192b1007be99b82019218d1decfc513f05239612743360a0dc009033905f9061140c90869060200161347b565b604080517fffffffffffffffffffffffffffffffffffffffffffffffffffffffffffffffe0818403018152918152815160209283012073ffffffffffffffffffffffffffffffffffffffff8086165f90815260018801909452919092205491925016806114c5576040517f5e300c8300000000000000000000000000000000000000000000000000000000815273ffffffffffffffffffffffffffffffffffffffff808516600483015282166024820152604401610456565b73ffffffffffffffffffffffffffffffffffffffff81165f90815260038501602052604090206114f5818461249d565b6115395761150387806133c0565b836040517f9cc2f63600000000000000000000000000000000000000000000000000000000815260040161045693929190613516565b61154382876123b7565b61154d81846124b4565b5073ffffffffffffffffffffffffffffffffffffffff82165f908152600380870160209081526040808420878552909201905281209061158d8282612fa7565b5060010180547fffffffffffffffffffffffffffffffffffffffffffffffffffffffffffffff0016905560405173ffffffffffffffffffffffffffffffffffffffff83169084907fbd9633f1d49d3b0a615e7eba9e46218c1bfc459278b5764c2aeee591b1b1230a905f90a350505050505050565b7fffffffff0000000000000000000000000000000000000000000000000000000081165f9081527f81088bbc801e045ea3e7620779ab349988f58afbdfba10dff983df3f33522b00602052604090205460ff166116d6577fffffffff0000000000000000000000000000000000000000000000000000000081165f9081527f81088bbc801e045ea3e7620779ab349988f58afbdfba10dff983df3f33522b006020526040902080547fffffffffffffffffffffffffffffffffffffffffffffffffffffffffffffff00166001179055611708565b6040517ff2cfeefa00000000000000000000000000000000000000000000000000000000815260040160405180910390fd5b6040517fffffffff000000000000000000000000000000000000000000000000000000008216907f78f84e5b1c5c05be2b5ad3800781dd404d6d6c6302bc755c0fe20f58a33a7f22905f90a250565b7f19511ce7944c192b1007be99b82019218d1decfc513f05239612743360a0dc00335f611784858061354f565b604051602001611794919061347b565b6040516020818303038152906040528051906020012090506117b78386836124bf565b73ffffffffffffffffffffffffffffffffffffffff8083165f908152600185016020908152604080832054909316808352600387019091529190206117fc818461249d565b1561184b5761180b878061354f565b61181590806133c0565b836040517fc7d36f2f00000000000000000000000000000000000000000000000000000000815260040161045693929190613516565b600a6118568261269a565b1061188d576040517f4c8780db00000000000000000000000000000000000000000000000000000000815260040160405180910390fd5b6001611899888061354f565b6118aa90604081019060200161358b565b60068111156118bb576118bb613281565b036118e0576118d26118cd888061354f565b6126a3565b6118db8761271e565b611909565b6119097f196e7f7e0000000000000000000000000000000000000000000000000000000061297c565b5f838152600486016020526040902080547fffffffffffffffffffffffff00000000000000000000000000000000000000001673ffffffffffffffffffffffffffffffffffffffff84161790556119608184612984565b5061196b878061354f565b73ffffffffffffffffffffffffffffffffffffffff83165f908152600380880160209081526040808420888552909201905290206119a982826136db565b9050506119b682876123b7565b60405173ffffffffffffffffffffffffffffffffffffffff83169084907feb317a93636ebc39c613bf403c3fb4147a957dbf439fb47b4c9cc5c2b372f6bc905f90a350505050505050565b73ffffffffffffffffffffffffffffffffffffffff81165f9081527f19511ce7944c192b1007be99b82019218d1decfc513f05239612743360a0dc03602090815260408083207f19511ce7944c192b1007be99b82019218d1decfc513f05239612743360a0dc009283905290832060609390611a7c90611f91565b90505f611a8883611f91565b82518151919250905f611a9b8284613883565b90508067ffffffffffffffff811115611ab657611ab66135a6565b604051908082528060200260200182016040528015611afb57816020015b60408051808201909152606081525f6020820152815260200190600190039081611ad45790505b5097505f5b83811015611b63576040518060400160405280611b35888481518110611b2857611b28613896565b602002602001015161298f565b81526020015f815250898281518110611b5057611b50613896565b6020908102919091010152600101611b00565b505f5b82811015611c9e575f876003015f878481518110611b8657611b86613896565b602002602001015181526020019081526020015f206040518060400160405290815f82018054611bb5906135d3565b80601f0160208091040260200160405190810160405280929190818152602001828054611be1906135d3565b8015611c2c5780601f10611c0357610100808354040283529160200191611c2c565b820191905f5260205f20905b815481529060010190602001808311611c0f57829003601f168201915b5050509183525050600182015460209091019060ff166006811115611c5357611c53613281565b6006811115611c6457611c64613281565b90525090505f611c748387613883565b9050818b8281518110611c8957611c89613896565b60209081029190910101525050600101611b66565b5050505050505050919050565b73ffffffffffffffffffffffffffffffffffffffff8116611cf8576040517f6df3f5c300000000000000000000000000000000000000000000000000000000815260040160405180910390fd5b73ffffffffffffffffffffffffffffffffffffffff8181165f9081527f19511ce7944c192b1007be99b82019218d1decfc513f05239612743360a0dc0160205260409020541680611d95576040517f5e300c8300000000000000000000000000000000000000000000000000000000815273ffffffffffffffffffffffffffffffffffffffff808416600483015282166024820152604401610456565b73ffffffffffffffffffffffffffffffffffffffff8084165f9081527f19511ce7944c192b1007be99b82019218d1decfc513f05239612743360a0dc016020526040902054811690821614158015611e1957508073ffffffffffffffffffffffffffffffffffffffff168373ffffffffffffffffffffffffffffffffffffffff1614155b15611e70576040517f5e300c8300000000000000000000000000000000000000000000000000000000815273ffffffffffffffffffffffffffffffffffffffff808516600483015282166024820152604401610456565b73ffffffffffffffffffffffffffffffffffffffff8181165f9081527f19511ce7944c192b1007be99b82019218d1decfc513f05239612743360a0dc036020526040902060028101547f19511ce7944c192b1007be99b82019218d1decfc513f05239612743360a0dc0092858116911603611f17576040517f2febf33700000000000000000000000000000000000000000000000000000000815260040160405180910390fd5b6002810180547fffffffffffffffffffffffff00000000000000000000000000000000000000001673ffffffffffffffffffffffffffffffffffffffff86811691821790925560405190918516907f63a3f19f9166855a56a40467088468f9ae049d32865102cf64b70444db555036905f90a35050505050565b60605f61051b836129d1565b73ffffffffffffffffffffffffffffffffffffffff82161580611fd4575073ffffffffffffffffffffffffffffffffffffffff8116155b1561200b576040517f6df3f5c300000000000000000000000000000000000000000000000000000000815260040160405180910390fd5b8073ffffffffffffffffffffffffffffffffffffffff168273ffffffffffffffffffffffffffffffffffffffff1603612070576040517f848ba26d00000000000000000000000000000000000000000000000000000000815260040160405180910390fd5b73ffffffffffffffffffffffffffffffffffffffff8281165f90815260018501602052604090205416156120f0576040517f14790b7f00000000000000000000000000000000000000000000000000000000815273ffffffffffffffffffffffffffffffffffffffff808416600483015282166024820152604401610456565b73ffffffffffffffffffffffffffffffffffffffff8181165f90815260018501602052604090205416156121845773ffffffffffffffffffffffffffffffffffffffff8181165f908152600185016020526040908190205490517f47227b5d000000000000000000000000000000000000000000000000000000008152848316600482015291166024820152604401610456565b73ffffffffffffffffffffffffffffffffffffffff82165f9081526020849052604081206121b19061269a565b1115612209576040517ff702bdda00000000000000000000000000000000000000000000000000000000815273ffffffffffffffffffffffffffffffffffffffff808416600483015282166024820152604401610456565b73ffffffffffffffffffffffffffffffffffffffff81165f908152602084905260409020600a906122399061269a565b106103b6576040517f4c8780db00000000000000000000000000000000000000000000000000000000815260040160405180910390fd5b8251602093840120604080517f6bb89d031fcd292ecd4c0e6855878b7165cebc3a2f35bc6bbac48c088dd8325c818701528082019290925273ffffffffffffffffffffffffffffffffffffffff9390931660608201526080808201929092528251808203909201825260a001909152805191012090565b5f6102c47f219639d1c7dec7d049ffb8dc11e39f070f052764b142bd61682a7811a502a60083612a2a565b5f60405182516040811461232e576041811461236857506123a3565b604084015160ff81901c601b016020527f7fffffffffffffffffffffffffffffffffffffffffffffffffffffffffffffff1660605261237b565b60608401515f1a60205260408401516060525b50835f5260208301516040526020600160805f60015afa5191505f606052806040523d6123b0575b638baa579f5f526004601cfd5b5092915050565b73ffffffffffffffffffffffffffffffffffffffff82165f9081527fda5d6d87446d81938877f0ee239dac391146dd7466ea30567f72becf06773c00602052604090208054600181019091558181146103b6576040517f752d88c000000000000000000000000000000000000000000000000000000000815273ffffffffffffffffffffffffffffffffffffffff8416600482015260248101829052604401610456565b5f61051b8373ffffffffffffffffffffffffffffffffffffffff8416612a71565b5f61051b8373ffffffffffffffffffffffffffffffffffffffff8416612abd565b5f818152600183016020526040812054151561051b565b5f61051b8383612abd565b336124ca838061354f565b6124d490806133c0565b90505f0361250e576040517f3761dda000000000000000000000000000000000000000000000000000000000815260040160405180910390fd5b606461251a848061354f565b61252490806133c0565b9050111561255e576040517f3761dda000000000000000000000000000000000000000000000000000000000815260040160405180910390fd5b335f90815260018501602052604090205473ffffffffffffffffffffffffffffffffffffffff16806125da576040517f5e300c8300000000000000000000000000000000000000000000000000000000815273ffffffffffffffffffffffffffffffffffffffff831660048201525f6024820152604401610456565b5f83815260048601602052604090205473ffffffffffffffffffffffffffffffffffffffff16801580159061263b57508173ffffffffffffffffffffffffffffffffffffffff168173ffffffffffffffffffffffffffffffffffffffff1614155b15612692576040517f5760279b00000000000000000000000000000000000000000000000000000000815273ffffffffffffffffffffffffffffffffffffffff808416600483015282166024820152604401610456565b505050505050565b5f6102c4825490565b60016126b5604083016020840161358b565b60068111156126c6576126c6613281565b036106a45760206126d782806133c0565b905010806126f05750602c6126ec82806133c0565b9050115b156106a4576106a47f3761dda00000000000000000000000000000000000000000000000000000000061297c565b5f61272c60608301836138c3565b5f81811061273c5761273c613896565b905060200281019061274e919061354f565b61275c9060208101906133c0565b8101906127699190613950565b90506127be612778838061354f565b61278290806133c0565b8080601f0160208091040260200160405190810160405280939291908181526020018383808284375f920191909152505084519150612ba09050565b6127f4576040517fd5ecf56b00000000000000000000000000000000000000000000000000000000815260040160405180910390fd5b7f53434c5f454950363536350000000000000000000000000000000000000000005f9081527f19511ce7944c192b1007be99b82019218d1decfc513f05239612743360a0dc026020527fec8c052a03b4861df1d3561683815d4c9de39968b0fde24c6d42a80a8e74254d5473ffffffffffffffffffffffffffffffffffffffff1690505f8061288660208601866133c0565b81019061289391906139d5565b90925090505f73ffffffffffffffffffffffffffffffffffffffff841663369b69216128c260408901896133c0565b88516040517fffffffff0000000000000000000000000000000000000000000000000000000060e086901b16815261290393929189918991906004016139f5565b6020604051808303815f875af115801561291f573d5f5f3e3d5ffd5b505050506040513d601f19601f820116820180604052508101906129439190613a4b565b905080612692576040517f55e0083a00000000000000000000000000000000000000000000000000000000815260040160405180910390fd5b805f5260045ffd5b5f61051b8383612a71565b606061299a82612bc4565b805161307882526002017ffffffffffffffffffffffffffffffffffffffffffffffffffffffffffffffffe90910190815292915050565b6060815f01805480602002602001604051908101604052809291908181526020018280548015612a1e57602002820191905f5260205f20905b815481526020019060010190808311612a0a575b50505050509050919050565b5f61051b612a3784612c4f565b7f19010000000000000000000000000000000000000000000000000000000000005f90815260029190915260228481526042822091905290565b5f818152600183016020526040812054612ab657508154600181810184555f8481526020808220909301849055845484825282860190935260409020919091556102c4565b505f6102c4565b5f8181526001830160205260408120548015612b97575f612adf600183613a6a565b85549091505f90612af290600190613a6a565b9050808214612b51575f865f018281548110612b1057612b10613896565b905f5260205f200154905080875f018481548110612b3057612b30613896565b5f918252602080832090910192909255918252600188019052604090208390555b8554869080612b6257612b62613a7d565b600190038181905f5260205f20015f90559055856001015f8681526020019081526020015f205f9055600193505050506102c4565b5f9150506102c4565b5f61051b83612bae84612c59565b8051602091820120825192909101919091201490565b60606040519050608081016040526f30313233343536373839616263646566600f5260028101905060288152602081015f60288201528260601b92505f5b808101820184821a600f81165160018301538060041c518253505060018101907fffffffffffffffffffffffffffffffffffffffffffffffffffffffffffffffed01612c02575050919050565b5f6102c482612c6b565b60606102c48260046020020151612ce2565b5f7f8b73c3c69bb8fe3d512ecc4cf759cc79239f7b179b0ffacaa9a75d522b39400f612c9683612e76565b612c9f84612ed7565b60408051602081019490945283019190915260608201524660808201523060a082015260c001604051602081830303815290604052805190602001209050919050565b6060815f600382157ff8f9f9faf9fdfafbf9fdfcfdfafbfcfef9fafdfafcfcfbfefafafcfbffffffff6f8421084210842108cc6318c6db6d54be6fffffffffffffffffffffffffffffffff861160071b86811c67ffffffffffffffff1060061b1786811c63ffffffff1060051b1786811c61ffff1060041b1786811c60ff10851b1786811c9190911c601f169190911a180160408051602c808252606082019092529190921c9250604c01805b8415612e1957603a808604957fffffffffffffffffffffffffffffffffffffffffffffffffffffffffffffffff90920191067f5a6162636465666768696a6b6d6e6f707172737475767778797a000000000000602082107f6b5351575153515f51282828292b293739383838383827292b295455565758590218601f821681901a83535050612d8f565b7f31313131313131313131313131313131313131313131313131313131313131317fffffffffffffffffffffffffffffffffffffffffffffffffffffffffffffffe080830191909152939003908190039201918252509392505050565b5f5f612e8183612f0c565b805190915015612e9957805160209091012092915050565b82548015612ea8579392505050565b507fc5d2460186f7233c927e7db2dcc703c0e500b653ca82273b7bfad8045d85a4709392505050565b50919050565b5f5f612ee283612f96565b805190915015612efa57805160209091012092915050565b60018301548015612ea8579392505050565b6060816002018054612f1d906135d3565b80601f0160208091040260200160405190810160405280929190818152602001828054612f49906135d3565b8015612a1e5780601f10612f6b57610100808354040283529160200191612a1e565b820191905f5260205f20905b815481529060010190602001808311612f775750939695505050505050565b6060816003018054612f1d906135d3565b508054612fb3906135d3565b5f825580601f10612fc2575050565b601f0160209004905f5260205f20908101906106a491905b80821115612fed575f8155600101612fda565b5090565b803573ffffffffffffffffffffffffffffffffffffffff81168114613014575f5ffd5b919050565b5f60208284031215613029575f5ffd5b61051b82612ff1565b602080825282518282018190525f918401906040840190835b8181101561307f57835173ffffffffffffffffffffffffffffffffffffffff1683526020938401939092019160010161304b565b509095945050505050565b5f6020828403121561309a575f5ffd5b5035919050565b5f60608284031215612ed1575f5ffd5b5f5f5f606084860312156130c3575f5ffd5b833567ffffffffffffffff8111156130d9575f5ffd5b6130e5868287016130a1565b935050602084013567ffffffffffffffff811115613101575f5ffd5b61310d868287016130a1565b93969395505050506040919091013590565b5f5f60408385031215613130575f5ffd5b823567ffffffffffffffff811115613146575f5ffd5b613152858286016130a1565b95602094909401359450505050565b5f5f5f60608486031215613173575f5ffd5b61317c84612ff1565b9250602084013567ffffffffffffffff811115613101575f5ffd5b5f5f604083850312156131a8575f5ffd5b823567ffffffffffffffff8111156131be575f5ffd5b8301604081860312156131cf575f5ffd5b946020939093013593505050565b5f5f604083850312156131ee575f5ffd5b823591506131fe60208401612ff1565b90509250929050565b5f5f60408385031215613218575f5ffd5b61322183612ff1565b91506131fe60208401612ff1565b5f5f60408385031215613240575f5ffd5b6131cf83612ff1565b5f5f6040838503121561325a575f5ffd5b823567ffffffffffffffff811115613270575f5ffd5b8301608081860312156131cf575f5ffd5b7f4e487b71000000000000000000000000000000000000000000000000000000005f52602160045260245ffd5b600781106132e3577f4e487b71000000000000000000000000000000000000000000000000000000005f52602160045260245ffd5b9052565b5f602082016020835280845180835260408501915060408160051b8601019250602086015f5b828110156133b4577fffffffffffffffffffffffffffffffffffffffffffffffffffffffffffffffc087860301845281518051604087528051806040890152806020830160608a015e5f6060828a0101526020830151925061337260208901846132ae565b601f017fffffffffffffffffffffffffffffffffffffffffffffffffffffffffffffffe01696909601606001955050602093840193919091019060010161330d565b50929695505050505050565b5f5f83357fffffffffffffffffffffffffffffffffffffffffffffffffffffffffffffffe18436030181126133f3575f5ffd5b83018035915067ffffffffffffffff82111561340d575f5ffd5b602001915036819003821315613421575f5ffd5b9250929050565b81835281816020850137505f602082840101525f60207fffffffffffffffffffffffffffffffffffffffffffffffffffffffffffffffe0601f840116840101905092915050565b600781106106a4575f5ffd5b602081525f82357fffffffffffffffffffffffffffffffffffffffffffffffffffffffffffffffe18436030181126134b1575f5ffd5b830160208101903567ffffffffffffffff8111156134cd575f5ffd5b8036038213156134db575f5ffd5b604060208501526134f0606085018284613428565b91505060208401356135018161346f565b61350e60408501826132ae565b509392505050565b604081525f613529604083018587613428565b905073ffffffffffffffffffffffffffffffffffffffff83166020830152949350505050565b5f82357fffffffffffffffffffffffffffffffffffffffffffffffffffffffffffffffc1833603018112613581575f5ffd5b9190910192915050565b5f6020828403121561359b575f5ffd5b813561051b8161346f565b7f4e487b71000000000000000000000000000000000000000000000000000000005f52604160045260245ffd5b600181811c908216806135e757607f821691505b602082108103612ed1577f4e487b71000000000000000000000000000000000000000000000000000000005f52602260045260245ffd5b601f8211156103b657805f5260205f20601f840160051c810160208510156136435750805b601f840160051c820191505b81811015613662575f815560010161364f565b5050505050565b5f81356102c48161346f565b600782106136aa577f4e487b71000000000000000000000000000000000000000000000000000000005f52602160045260245ffd5b7fffffffffffffffffffffffffffffffffffffffffffffffffffffffffffffff0081541660ff831681178255505050565b81357fffffffffffffffffffffffffffffffffffffffffffffffffffffffffffffffe183360301811261370c575f5ffd5b8201803567ffffffffffffffff81118015613725575f5ffd5b813603602084011315613736575f5ffd5b5f90505061374e8161374885546135d3565b8561361e565b5f601f8211600181146137a1575f831561376b5750838201602001355b7fffffffffffffffffffffffffffffffffffffffffffffffffffffffffffffffff600385901b1c1916600184901b17855561383a565b5f858152602081207fffffffffffffffffffffffffffffffffffffffffffffffffffffffffffffffe08516915b828110156137f0576020858801810135835594850194600190920191016137ce565b508482101561382e577fffffffffffffffffffffffffffffffffffffffffffffffffffffffffffffffff60f88660031b161c19602085880101351681555b505060018360011b0185555b505050506103c561384d60208401613669565b60018301613675565b7f4e487b71000000000000000000000000000000000000000000000000000000005f52601160045260245ffd5b808201808211156102c4576102c4613856565b7f4e487b71000000000000000000000000000000000000000000000000000000005f52603260045260245ffd5b5f5f83357fffffffffffffffffffffffffffffffffffffffffffffffffffffffffffffffe18436030181126138f6575f5ffd5b83018035915067ffffffffffffffff821115613910575f5ffd5b6020019150600581901b3603821315613421575f5ffd5b60405160a0810167ffffffffffffffff8111828210171561394a5761394a6135a6565b60405290565b5f60a0828403128015613961575f5ffd5b506040516020810167ffffffffffffffff81118282101715613985576139856135a6565b604052601f83018413613996575f5ffd5b61399e613927565b8060a08501868111156139af575f5ffd5b855b818110156139c95780358452602093840193016139b1565b50508252509392505050565b5f5f604083850312156139e6575f5ffd5b50508035926020909101359150565b61010081525f613a0a61010083018789613428565b905084602083015283604083015260608201835f5b6005811015613a3e578151835260209283019290910190600101613a1f565b5050509695505050505050565b5f60208284031215613a5b575f5ffd5b8151801515811461051b575f5ffd5b818103818111156102c4576102c4613856565b7f4e487b71000000000000000000000000000000000000000000000000000000005f52603160045260245ffd","linkReferences":{}},"methodIdentifiers":{"__WalletLink_init(address)":"a3f100e5","checkIfLinked(address,address)":"912b9758","checkIfNonEVMWalletLinked(address,bytes32)":"97d9a849","getAllWalletsByRootKey(address)":"af61f22b","getDefaultWallet(address)":"101659b1","getDependency(bytes32)":"039dd193","getLatestNonceForRootKey(address)":"20a00ac8","getRootKeyForWallet(address)":"f8210398","getWalletsByRootKey(address)":"02345b98","linkCallerToRootKey((address,bytes,string),uint256)":"2f461453","linkNonEVMWalletToRootKey(((string,uint8),bytes,string,(string,bytes)[]),uint256)":"a5bbf480","linkWalletToRootKey((address,bytes,string),(address,bytes,string),uint256)":"243a7134","removeCallerLink()":"64899d98","removeLink(address,(address,bytes,string),uint256)":"35d2fb64","removeNonEVMWalletLink((string,uint8),uint256)":"71926900","setDefaultWallet(address)":"baafda6b","setDependency(bytes32,address)":"7238695e"},"id":433}