{"abi":[{"type":"function","name":"__WalletLink_init","inputs":[],"outputs":[],"stateMutability":"nonpayable"},{"type":"function","name":"checkIfLinked","inputs":[{"name":"rootKey","type":"address","internalType":"address"},{"name":"wallet","type":"address","internalType":"address"}],"outputs":[{"name":"","type":"bool","internalType":"bool"}],"stateMutability":"view"},{"type":"function","name":"getLatestNonceForRootKey","inputs":[{"name":"rootKey","type":"address","internalType":"address"}],"outputs":[{"name":"","type":"uint256","internalType":"uint256"}],"stateMutability":"view"},{"type":"function","name":"getRootKeyForWallet","inputs":[{"name":"wallet","type":"address","internalType":"address"}],"outputs":[{"name":"rootKey","type":"address","internalType":"address"}],"stateMutability":"view"},{"type":"function","name":"getWalletsByRootKey","inputs":[{"name":"rootKey","type":"address","internalType":"address"}],"outputs":[{"name":"wallets","type":"address[]","internalType":"address[]"}],"stateMutability":"view"},{"type":"function","name":"linkWalletToRootKey","inputs":[{"name":"rootKey","type":"address","internalType":"address"},{"name":"rootKeySignature","type":"bytes","internalType":"bytes"},{"name":"nonce","type":"uint256","internalType":"uint256"}],"outputs":[],"stateMutability":"nonpayable"},{"type":"function","name":"removeLink","inputs":[{"name":"wallet","type":"address","internalType":"address"}],"outputs":[],"stateMutability":"nonpayable"},{"type":"event","name":"Initialized","inputs":[{"name":"version","type":"uint32","indexed":false,"internalType":"uint32"}],"anonymous":false},{"type":"event","name":"InterfaceAdded","inputs":[{"name":"interfaceId","type":"bytes4","indexed":true,"internalType":"bytes4"}],"anonymous":false},{"type":"event","name":"InterfaceRemoved","inputs":[{"name":"interfaceId","type":"bytes4","indexed":true,"internalType":"bytes4"}],"anonymous":false},{"type":"event","name":"LinkWalletToRootKey","inputs":[{"name":"wallet","type":"address","indexed":true,"internalType":"address"},{"name":"rootKey","type":"address","indexed":true,"internalType":"address"}],"anonymous":false},{"type":"event","name":"RemoveLink","inputs":[{"name":"wallet","type":"address","indexed":true,"internalType":"address"},{"name":"secondWallet","type":"address","indexed":true,"internalType":"address"}],"anonymous":false},{"type":"error","name":"Initializable_InInitializingState","inputs":[]},{"type":"error","name":"Initializable_NotInInitializingState","inputs":[]},{"type":"error","name":"Introspection_AlreadySupported","inputs":[]},{"type":"error","name":"Introspection_NotSupported","inputs":[]},{"type":"error","name":"InvalidAccountNonce","inputs":[{"name":"account","type":"address","internalType":"address"},{"name":"currentNonce","type":"uint256","internalType":"uint256"}]},{"type":"error","name":"WalletLink__InvalidSignature","inputs":[]},{"type":"error","name":"WalletLink__LinkAlreadyExists","inputs":[{"name":"wallet","type":"address","internalType":"address"},{"name":"rootKey","type":"address","internalType":"address"}]},{"type":"error","name":"WalletLink__NotLinked","inputs":[{"name":"wallet","type":"address","internalType":"address"},{"name":"rootKey","type":"address","internalType":"address"}]}],"bytecode":{"object":"0x608060405234801561001057600080fd5b5061001961001e565b6100c4565b7f2d0d21306acfe8e9bb163a4573e95aff6cef95dc1102c6a16d5f19eac08cc4de8054640100000000900460ff161561006a576040516366008a2d60e01b815260040160405180910390fd5b805463ffffffff90811610156100c157805463ffffffff191663ffffffff90811782556040519081527fe9c9b456cb2994b80aeef036cf59d26e9617df80f816a6ee5a5b4166e07e2f5c9060200160405180910390a15b50565b610b83806100d36000396000f3fe608060405234801561001057600080fd5b506004361061007d5760003560e01c806327a04d851161005b57806327a04d85146100d65780633b6a64a4146100e9578063912b9758146100fc578063f82103981461011f57600080fd5b806302345b981461008257806320a00ac8146100ab578063260a409d146100cc575b600080fd5b6100956100903660046109f1565b61014a565b6040516100a29190610a0c565b60405180910390f35b6100be6100b93660046109f1565b61015b565b6040519081526020016100a2565b6100d4610198565b005b6100d46100e43660046109f1565b6101f4565b6100d46100f7366004610a59565b610200565b61010f61010a366004610ae2565b610212565b60405190151581526020016100a2565b61013261012d3660046109f1565b610249565b6040516001600160a01b0390911681526020016100a2565b606061015582610278565b92915050565b6001600160a01b03811660009081527f2049909b9faa0ec75b0ddea779633de6857cef26e9bbc36588098c42dd43bf0e6020526040812054610155565b7f2d0d21306acfe8e9bb163a4573e95aff6cef95dc1102c6a16d5f19eac08cc4de54640100000000900460ff166101e257604051630ef4733760e31b815260040160405180910390fd5b6101f2635754ecb160e01b6102bb565b565b6101fd81610399565b50565b61020c84848484610498565b50505050565b6001600160a01b038181166000908152600080516020610b63833981519152602052604081205490918481169116145b9392505050565b6001600160a01b038082166000908152600080516020610b638339815191526020526040812054909116610155565b6001600160a01b03811660009081527f630d36d827dd2d1cf0d5118b0729bf3ba07959315de50567c8d0b01f7ec88e726020526040902060609061015590610686565b6001600160e01b0319811660009081527fbc7de460bcfb6afd0c415c8c610d408bd914b18d7d0feec0da9e25348087a5c4602052604090205460ff161515600114610348576001600160e01b0319811660009081527fbc7de460bcfb6afd0c415c8c610d408bd914b18d7d0feec0da9e25348087a5c460205260409020805460ff19166001179055610361565b604051637967f77d60e11b815260040160405180910390fd5b6040516001600160e01b03198216907f78f84e5b1c5c05be2b5ad3800781dd404d6d6c6302bc755c0fe20f58a33a7f2290600090a250565b336000818152600080516020610b6383398151915260205260409020547f630d36d827dd2d1cf0d5118b0729bf3ba07959315de50567c8d0b01f7ec88e7291906001600160a01b038481169116036103fb576103f6828483610693565b61045d565b6001600160a01b03838116600090815260018401602052604090205481831691160361042c576103f6828285610693565b604051635e300c8360e01b81526001600160a01b038085166004830152821660248201526044015b60405180910390fd5b60405133906001600160a01b038516907f9a9d98629b39adf596077fc95a0712ba55c38f40a354e99d366a10f9c3e27da290600090a3505050565b336000818152600080516020610b6383398151915260205260409020547f630d36d827dd2d1cf0d5118b0729bf3ba07959315de50567c8d0b01f7ec88e7291906001600160a01b031615610512576040516314790b7f60e01b81526001600160a01b03808316600483015287166024820152604401610454565b604080516001600160a01b0383166020808301919091528183018690528251808303840181526060830184528051908201207f19457468657265756d205369676e6564204d6573736167653a0a3332000000006080840152609c808401919091528351808403909101815260bc9092019092528051910120866001600160a01b03166105d48288888080601f0160208091040260200160405190810160405280939291908181526020018383808284376000920191909152506106d292505050565b6001600160a01b0316146105fb57604051632af0041d60e11b815260040160405180910390fd5b6106058785610751565b6001600160a01b038716600090815260208490526040902061062790836107c8565b506001600160a01b03828116600081815260018601602052604080822080546001600160a01b031916948c169485179055517f64126824352170c4025060d1f6e215159635e4b08e649830695f26ef6d2b57219190a350505050505050565b60606000610242836107dd565b6001600160a01b038082166000908152600185016020908152604080832080546001600160a01b031916905592851682528590522061020c9082610839565b6000806000806106e18561084e565b6040805160008152602081018083528b905260ff8316918101919091526060810184905260808101839052929550909350915060019060a0016020604051602081039080840390855afa15801561073c573d6000803e3d6000fd5b5050604051601f190151979650505050505050565b6001600160a01b03821660009081527f2049909b9faa0ec75b0ddea779633de6857cef26e9bbc36588098c42dd43bf0e602052604090208054600181019091558181146107c3576040516301d4b62360e61b81526001600160a01b038416600482015260248101829052604401610454565b505050565b6000610242836001600160a01b038416610893565b60608160000180548060200260200160405190810160405280929190818152602001828054801561082d57602002820191906000526020600020905b815481526020019060010190808311610819575b50505050509050919050565b6000610242836001600160a01b0384166108e2565b6000806000835160411461087557604051632af0041d60e11b815260040160405180910390fd5b50505060208101516040820151606090920151909260009190911a90565b60008181526001830160205260408120546108da57508154600181810184556000848152602080822090930184905584548482528286019093526040902091909155610155565b506000610155565b600081815260018301602052604081205480156109cb576000610906600183610b15565b855490915060009061091a90600190610b15565b905081811461097f57600086600001828154811061093a5761093a610b36565b906000526020600020015490508087600001848154811061095d5761095d610b36565b6000918252602080832090910192909255918252600188019052604090208390555b855486908061099057610990610b4c565b600190038181906000526020600020016000905590558560010160008681526020019081526020016000206000905560019350505050610155565b6000915050610155565b80356001600160a01b03811681146109ec57600080fd5b919050565b600060208284031215610a0357600080fd5b610242826109d5565b6020808252825182820181905260009190848201906040850190845b81811015610a4d5783516001600160a01b031683529284019291840191600101610a28565b50909695505050505050565b60008060008060608587031215610a6f57600080fd5b610a78856109d5565b9350602085013567ffffffffffffffff80821115610a9557600080fd5b818701915087601f830112610aa957600080fd5b813581811115610ab857600080fd5b886020828501011115610aca57600080fd5b95986020929092019750949560400135945092505050565b60008060408385031215610af557600080fd5b610afe836109d5565b9150610b0c602084016109d5565b90509250929050565b8181038181111561015557634e487b7160e01b600052601160045260246000fd5b634e487b7160e01b600052603260045260246000fd5b634e487b7160e01b600052603160045260246000fdfe630d36d827dd2d1cf0d5118b0729bf3ba07959315de50567c8d0b01f7ec88e73","linkReferences":{}},"methodIdentifiers":{"__WalletLink_init()":"260a409d","checkIfLinked(address,address)":"912b9758","getLatestNonceForRootKey(address)":"20a00ac8","getRootKeyForWallet(address)":"f8210398","getWalletsByRootKey(address)":"02345b98","linkWalletToRootKey(address,bytes,uint256)":"3b6a64a4","removeLink(address)":"27a04d85"},"id":131}