{"abi":[{"type":"function","name":"__WalletLink_init","inputs":[{"name":"delegateRegistry","type":"address","internalType":"address"}],"outputs":[],"stateMutability":"nonpayable"},{"type":"function","name":"checkIfLinked","inputs":[{"name":"rootKey","type":"address","internalType":"address"},{"name":"wallet","type":"address","internalType":"address"}],"outputs":[{"name":"","type":"bool","internalType":"bool"}],"stateMutability":"view"},{"type":"function","name":"getDefaultWallet","inputs":[{"name":"rootWallet","type":"address","internalType":"address"}],"outputs":[{"name":"","type":"address","internalType":"address"}],"stateMutability":"view"},{"type":"function","name":"getDelegateByVersion","inputs":[{"name":"version","type":"uint256","internalType":"uint256"}],"outputs":[{"name":"","type":"address","internalType":"address"}],"stateMutability":"view"},{"type":"function","name":"getLatestNonceForRootKey","inputs":[{"name":"rootKey","type":"address","internalType":"address"}],"outputs":[{"name":"","type":"uint256","internalType":"uint256"}],"stateMutability":"view"},{"type":"function","name":"getRootKeyForWallet","inputs":[{"name":"wallet","type":"address","internalType":"address"}],"outputs":[{"name":"rootKey","type":"address","internalType":"address"}],"stateMutability":"view"},{"type":"function","name":"getWalletsByRootKey","inputs":[{"name":"rootKey","type":"address","internalType":"address"}],"outputs":[{"name":"wallets","type":"address[]","internalType":"address[]"}],"stateMutability":"view"},{"type":"function","name":"getWalletsByRootKeyWithDelegations","inputs":[{"name":"rootKey","type":"address","internalType":"address"}],"outputs":[{"name":"wallets","type":"address[]","internalType":"address[]"}],"stateMutability":"view"},{"type":"function","name":"linkCallerToRootKey","inputs":[{"name":"rootWallet","type":"tuple","internalType":"struct IWalletLinkBase.LinkedWallet","components":[{"name":"addr","type":"address","internalType":"address"},{"name":"signature","type":"bytes","internalType":"bytes"},{"name":"message","type":"string","internalType":"string"}]},{"name":"nonce","type":"uint256","internalType":"uint256"}],"outputs":[],"stateMutability":"nonpayable"},{"type":"function","name":"linkWalletToRootKey","inputs":[{"name":"wallet","type":"tuple","internalType":"struct IWalletLinkBase.LinkedWallet","components":[{"name":"addr","type":"address","internalType":"address"},{"name":"signature","type":"bytes","internalType":"bytes"},{"name":"message","type":"string","internalType":"string"}]},{"name":"rootWallet","type":"tuple","internalType":"struct IWalletLinkBase.LinkedWallet","components":[{"name":"addr","type":"address","internalType":"address"},{"name":"signature","type":"bytes","internalType":"bytes"},{"name":"message","type":"string","internalType":"string"}]},{"name":"nonce","type":"uint256","internalType":"uint256"}],"outputs":[],"stateMutability":"nonpayable"},{"type":"function","name":"removeCallerLink","inputs":[],"outputs":[],"stateMutability":"nonpayable"},{"type":"function","name":"removeLink","inputs":[{"name":"wallet","type":"address","internalType":"address"},{"name":"rootWallet","type":"tuple","internalType":"struct IWalletLinkBase.LinkedWallet","components":[{"name":"addr","type":"address","internalType":"address"},{"name":"signature","type":"bytes","internalType":"bytes"},{"name":"message","type":"string","internalType":"string"}]},{"name":"nonce","type":"uint256","internalType":"uint256"}],"outputs":[],"stateMutability":"nonpayable"},{"type":"function","name":"setDefaultWallet","inputs":[{"name":"defaultWallet","type":"address","internalType":"address"}],"outputs":[],"stateMutability":"nonpayable"},{"type":"function","name":"setDelegateByVersion","inputs":[{"name":"version","type":"uint256","internalType":"uint256"},{"name":"delegate","type":"address","internalType":"address"}],"outputs":[],"stateMutability":"nonpayable"},{"type":"event","name":"Initialized","inputs":[{"name":"version","type":"uint32","indexed":false,"internalType":"uint32"}],"anonymous":false},{"type":"event","name":"InterfaceAdded","inputs":[{"name":"interfaceId","type":"bytes4","indexed":true,"internalType":"bytes4"}],"anonymous":false},{"type":"event","name":"InterfaceRemoved","inputs":[{"name":"interfaceId","type":"bytes4","indexed":true,"internalType":"bytes4"}],"anonymous":false},{"type":"event","name":"LinkThirdPartyDelegation","inputs":[{"name":"delegator","type":"address","indexed":true,"internalType":"address"},{"name":"delegatedWallet","type":"address","indexed":true,"internalType":"address"}],"anonymous":false},{"type":"event","name":"LinkWalletToRootKey","inputs":[{"name":"wallet","type":"address","indexed":true,"internalType":"address"},{"name":"rootKey","type":"address","indexed":true,"internalType":"address"}],"anonymous":false},{"type":"event","name":"OwnershipTransferred","inputs":[{"name":"previousOwner","type":"address","indexed":true,"internalType":"address"},{"name":"newOwner","type":"address","indexed":true,"internalType":"address"}],"anonymous":false},{"type":"event","name":"RemoveLink","inputs":[{"name":"wallet","type":"address","indexed":true,"internalType":"address"},{"name":"secondWallet","type":"address","indexed":true,"internalType":"address"}],"anonymous":false},{"type":"event","name":"SetDefaultWallet","inputs":[{"name":"rootKey","type":"address","indexed":true,"internalType":"address"},{"name":"defaultWallet","type":"address","indexed":true,"internalType":"address"}],"anonymous":false},{"type":"error","name":"ECDSAInvalidSignature","inputs":[]},{"type":"error","name":"ECDSAInvalidSignatureLength","inputs":[{"name":"length","type":"uint256","internalType":"uint256"}]},{"type":"error","name":"ECDSAInvalidSignatureS","inputs":[{"name":"s","type":"bytes32","internalType":"bytes32"}]},{"type":"error","name":"Initializable_InInitializingState","inputs":[]},{"type":"error","name":"Initializable_NotInInitializingState","inputs":[]},{"type":"error","name":"Introspection_AlreadySupported","inputs":[]},{"type":"error","name":"Introspection_NotSupported","inputs":[]},{"type":"error","name":"InvalidAccountNonce","inputs":[{"name":"account","type":"address","internalType":"address"},{"name":"currentNonce","type":"uint256","internalType":"uint256"}]},{"type":"error","name":"Ownable__NotOwner","inputs":[{"name":"account","type":"address","internalType":"address"}]},{"type":"error","name":"Ownable__ZeroAddress","inputs":[]},{"type":"error","name":"WalletLink__CannotLinkToRootWallet","inputs":[{"name":"wallet","type":"address","internalType":"address"},{"name":"rootKey","type":"address","internalType":"address"}]},{"type":"error","name":"WalletLink__CannotLinkToSelf","inputs":[]},{"type":"error","name":"WalletLink__CannotRemoveDefaultWallet","inputs":[]},{"type":"error","name":"WalletLink__CannotRemoveRootWallet","inputs":[]},{"type":"error","name":"WalletLink__DefaultWalletAlreadySet","inputs":[]},{"type":"error","name":"WalletLink__InvalidAddress","inputs":[]},{"type":"error","name":"WalletLink__InvalidSignature","inputs":[]},{"type":"error","name":"WalletLink__LinkAlreadyExists","inputs":[{"name":"wallet","type":"address","internalType":"address"},{"name":"rootKey","type":"address","internalType":"address"}]},{"type":"error","name":"WalletLink__LinkedToAnotherRootKey","inputs":[{"name":"wallet","type":"address","internalType":"address"},{"name":"rootKey","type":"address","internalType":"address"}]},{"type":"error","name":"WalletLink__MaxLinkedWalletsReached","inputs":[]},{"type":"error","name":"WalletLink__NotLinked","inputs":[{"name":"wallet","type":"address","internalType":"address"},{"name":"rootKey","type":"address","internalType":"address"}]}],"bytecode":{"object":"0x608060405234801561001057600080fd5b5061001961001e565b6100c4565b7f59b501c3653afc186af7d48dda36cf6732bd21629a6295693664240a6ef520008054640100000000900460ff161561006a576040516366008a2d60e01b815260040160405180910390fd5b805463ffffffff90811610156100c157805463ffffffff191663ffffffff90811782556040519081527fe9c9b456cb2994b80aeef036cf59d26e9617df80f816a6ee5a5b4166e07e2f5c9060200160405180910390a15b50565b611e30806100d36000396000f3fe608060405234801561001057600080fd5b50600436106100ea5760003560e01c806364899d981161008c578063a3f100e511610066578063a3f100e5146101f0578063baafda6b14610203578063d1093a3e14610216578063f82103981461022957600080fd5b806364899d98146101b25780638a56a2c5146101ba578063912b9758146101cd57600080fd5b8063243a7134116100c8578063243a7134146101645780632f4614531461017957806335d2fb641461018c5780633d005eab1461019f57600080fd5b806302345b98146100ef578063101659b11461011857806320a00ac814610143575b600080fd5b6101026100fd3660046118af565b61023c565b60405161010f91906118cc565b60405180910390f35b61012b6101263660046118af565b61024d565b6040516001600160a01b03909116815260200161010f565b6101566101513660046118af565b61028e565b60405190815260200161010f565b610177610172366004611ab1565b6102cb565b005b610177610187366004611b1e565b6102db565b61017761019a366004611b63565b6102e9565b6101026101ad3660046118af565b6102f4565b6101776102ff565b6101776101c8366004611bab565b610309565b6101e06101db366004611bdb565b610364565b604051901515815260200161010f565b6101776101fe3660046118af565b610377565b6101776102113660046118af565b6103df565b61012b610224366004611c09565b6103e9565b61012b6102373660046118af565b610425565b606061024782610430565b92915050565b6001600160a01b0380821660009081527f19511ce7944c192b1007be99b82019218d1decfc513f05239612743360a0dc026020526040812054909116610247565b6001600160a01b03811660009081527fda5d6d87446d81938877f0ee239dac391146dd7466ea30567f72becf06773c006020526040812054610247565b6102d6838383610461565b505050565b6102e582826105ef565b5050565b6102d683838361070d565b606061024782610914565b6103076109fc565b565b7f4675fa8241f86f37157864d3d49b85ad4b164352c516da28e1678a90470ae300546001600160a01b0316331461035a576040516365f4906560e01b81523360048201526024015b60405180910390fd5b6102e58282610b3a565b60006103708383610b87565b9392505050565b7f59b501c3653afc186af7d48dda36cf6732bd21629a6295693664240a6ef5200054640100000000900460ff166103c157604051630ef4733760e31b815260040160405180910390fd5b6103d163dd5f838160e01b610bc8565b6103dc600282610b3a565b50565b6103dc3382610ca1565b60008181527f19511ce7944c192b1007be99b82019218d1decfc513f05239612743360a0dc0360205260408120546001600160a01b0316610247565b600061024782610e30565b6001600160a01b0381166000908152600080516020611e108339815191526020526040902060609061024790610e6d565b82518251600080516020611e108339815191529161048191839190610e7a565b6000610496856040015186600001518561102d565b905060006104a382611097565b905084600001516001600160a01b03166104c18287602001516110c4565b6001600160a01b0316146104e857604051632af0041d60e11b815260040160405180910390fd5b6104fb856040015186600001518661102d565b9150600061050883611097565b905086600001516001600160a01b03166105268289602001516110c4565b6001600160a01b03161461054d57604051632af0041d60e11b815260040160405180910390fd5b855161055990866110ee565b865186516001600160a01b0316600090815260208690526040902061057d91611160565b50855187516001600160a01b03908116600090815260018701602052604080822080546001600160a01b0319169484169490941790935588518a51935190831693909216917f64126824352170c4025060d1f6e215159635e4b08e649830695f26ef6d2b57219190a350505050505050565b8151600080516020611e108339815191529033906106109083908390610e7a565b60006106218560400151838661102d565b9050600061062e82611097565b905085600001516001600160a01b031661064c8288602001516110c4565b6001600160a01b03161461067357604051632af0041d60e11b815260040160405180910390fd5b855161067f90866110ee565b85516001600160a01b031660009081526020859052604090206106a29084611160565b5085516001600160a01b03848116600081815260018801602052604080822080546001600160a01b0319169585169590951790945589519351939092169290917f64126824352170c4025060d1f6e215159635e4b08e649830695f26ef6d2b572191a3505050505050565b600080516020611e108339815191526001600160a01b038416158061073a575082516001600160a01b0316155b1561075857604051636df3f5c360e01b815260040160405180910390fd5b82600001516001600160a01b0316846001600160a01b03160361078e576040516333976e3b60e11b815260040160405180910390fd5b82516001600160a01b03858116600090815260018401602052604090205481169116146107e4578251604051635e300c8360e01b81526001600160a01b0380871660048301529091166024820152604401610351565b82516001600160a01b0390811660009081526002830160205260409020548186169116036108255760405163d51f04c160e01b815260040160405180910390fd5b60006108368460400151868561102d565b9050600061084382611097565b905084600001516001600160a01b03166108618287602001516110c4565b6001600160a01b03161461088857604051632af0041d60e11b815260040160405180910390fd5b845161089490856110ee565b6001600160a01b038087166000908152600185016020908152604080832080546001600160a01b031916905588519093168252859052206108d59087611175565b5060405133906001600160a01b038816907f9a9d98629b39adf596077fc95a0712ba55c38f40a354e99d366a10f9c3e27da290600090a3505050505050565b6001600160a01b0381166000908152600080516020611e10833981519152602052604081206060919061094690610e6d565b8051909150600090815b818110156109f357600061097c85838151811061096f5761096f611c22565b602002602001015161118a565b805190915060005b818110156109e55782818151811061099e5761099e611c22565b60200260200101518887815181106109b8576109b8611c22565b6001600160a01b0390921660209283029190910190910152856109da81611c4e565b965050600101610984565b505050806001019050610950565b50505050919050565b3360008181527f19511ce7944c192b1007be99b82019218d1decfc513f05239612743360a0dc016020526040902054600080516020611e1083398151915291906001600160a01b031680610a7657604051635e300c8360e01b81526001600160a01b03808416600483015282166024820152604401610351565b6001600160a01b038181166000908152600285016020526040902054818416911603610ab55760405163d51f04c160e01b815260040160405180910390fd5b6001600160a01b038083166000908152600185016020908152604080832080546001600160a01b0319169055928416825285905220610af49083611175565b50806001600160a01b0316826001600160a01b03167f9a9d98629b39adf596077fc95a0712ba55c38f40a354e99d366a10f9c3e27da260405160405180910390a3505050565b60009182527f19511ce7944c192b1007be99b82019218d1decfc513f05239612743360a0dc03602052604090912080546001600160a01b0319166001600160a01b03909216919091179055565b6001600160a01b0390811660009081527f19511ce7944c192b1007be99b82019218d1decfc513f05239612743360a0dc016020526040902054811691161490565b6001600160e01b0319811660009081527f81088bbc801e045ea3e7620779ab349988f58afbdfba10dff983df3f33522b00602052604090205460ff16610c50576001600160e01b0319811660009081527f81088bbc801e045ea3e7620779ab349988f58afbdfba10dff983df3f33522b0060205260409020805460ff19166001179055610c69565b604051637967f77d60e11b815260040160405180910390fd5b6040516001600160e01b03198216907f78f84e5b1c5c05be2b5ad3800781dd404d6d6c6302bc755c0fe20f58a33a7f2290600090a250565b6001600160a01b038116610cc857604051636df3f5c360e01b815260040160405180910390fd5b6000610cd382610e30565b90506001600160a01b038116610d0f57604051635e300c8360e01b81526001600160a01b03808416600483015282166024820152604401610351565b610d198184610b87565b158015610d385750806001600160a01b0316836001600160a01b031614155b15610d6957604051635e300c8360e01b81526001600160a01b03808516600483015282166024820152604401610351565b6001600160a01b0381811660009081527f19511ce7944c192b1007be99b82019218d1decfc513f05239612743360a0dc026020526040902054600080516020611e1083398151915291848116911603610dd557604051632febf33760e01b815260040160405180910390fd5b6001600160a01b03828116600081815260028401602052604080822080546001600160a01b0319169488169485179055517f63a3f19f9166855a56a40467088468f9ae049d32865102cf64b70444db5550369190a350505050565b6001600160a01b0390811660009081527f19511ce7944c192b1007be99b82019218d1decfc513f05239612743360a0dc0160205260409020541690565b60606000610370836112ed565b6001600160a01b0382161580610e9757506001600160a01b038116155b15610eb557604051636df3f5c360e01b815260040160405180910390fd5b806001600160a01b0316826001600160a01b031603610ee75760405163848ba26d60e01b815260040160405180910390fd5b6001600160a01b0382811660009081526001850160205260409020541615610f35576040516314790b7f60e01b81526001600160a01b03808416600483015282166024820152604401610351565b6001600160a01b0381811660009081526001850160205260409020541615610f98576001600160a01b038181166000908152600185016020526040908190205490516347227b5d60e01b8152848316600482015291166024820152604401610351565b6001600160a01b0382166000908152602084905260408120610fb990611349565b1115610feb57604051637b815eed60e11b81526001600160a01b03808416600483015282166024820152604401610351565b6001600160a01b0381166000908152602084905260409020600a9061100f90611349565b106102d657604051634c8780db60e01b815260040160405180910390fd5b8251602093840120604080517f6bb89d031fcd292ecd4c0e6855878b7165cebc3a2f35bc6bbac48c088dd8325c81870152808201929092526001600160a01b039390931660608201526080808201929092528251808203909201825260a001909152805191012090565b60006102476110a4611353565b8360405161190160f01b8152600281019290925260228201526042902090565b6000806000806110d48686611362565b9250925092506110e482826113af565b5090949350505050565b6001600160a01b03821660009081527fda5d6d87446d81938877f0ee239dac391146dd7466ea30567f72becf06773c00602052604090208054600181019091558181146102d6576040516301d4b62360e61b81526001600160a01b038416600482015260248101829052604401610351565b6000610370836001600160a01b038416611468565b6000610370836001600160a01b0384166114b7565b60606000600080516020611e10833981519152600260009081526003919091016020526040908190205490516342f87c2560e01b81526001600160a01b038581166004830152909116906342f87c2590602401600060405180830381865afa1580156111fa573d6000803e3d6000fd5b505050506040513d6000823e601f3d908101601f191682016040526112229190810190611c77565b90508051600003611243575050604080516000815260208101909152919050565b6000805b82518110156112e457600183828151811061126457611264611c22565b602002602001015160000151600581111561128157611281611d96565b036112dc5782818151811061129857611298611c22565b6020026020010151604001518483815181106112b6576112b6611c22565b6001600160a01b0390921660209283029190910190910152816112d881611c4e565b9250505b600101611247565b50825250919050565b60608160000180548060200260200160405190810160405280929190818152602001828054801561133d57602002820191906000526020600020905b815481526020019060010190808311611329575b50505050509050919050565b6000610247825490565b600061135d6115aa565b905090565b6000806000835160410361139c5760208401516040850151606086015160001a61138e8882858561161e565b9550955095505050506113a8565b50508151600091506002905b9250925092565b60008260038111156113c3576113c3611d96565b036113cc575050565b60018260038111156113e0576113e0611d96565b036113fe5760405163f645eedf60e01b815260040160405180910390fd5b600282600381111561141257611412611d96565b036114335760405163fce698f760e01b815260048101829052602401610351565b600382600381111561144757611447611d96565b036102e5576040516335e2f38360e21b815260048101829052602401610351565b60008181526001830160205260408120546114af57508154600181810184556000848152602080822090930184905584548482528286019093526040902091909155610247565b506000610247565b600081815260018301602052604081205480156115a05760006114db600183611dac565b85549091506000906114ef90600190611dac565b905080821461155457600086600001828154811061150f5761150f611c22565b906000526020600020015490508087600001848154811061153257611532611c22565b6000918252602080832090910192909255918252600188019052604090208390555b855486908061156557611565611dbf565b600190038181906000526020600020016000905590558560010160008681526020019081526020016000206000905560019350505050610247565b6000915050610247565b60007f8b73c3c69bb8fe3d512ecc4cf759cc79239f7b179b0ffacaa9a75d522b39400f6115d56116ed565b6115dd611765565b60408051602081019490945283019190915260608201524660808201523060a082015260c00160405160208183030381529060405280519060200120905090565b600080807f7fffffffffffffffffffffffffffffff5d576e7357a4501ddfe92f46681b20a084111561165957506000915060039050826116e3565b604080516000808252602082018084528a905260ff891692820192909252606081018790526080810186905260019060a0016020604051602081039080840390855afa1580156116ad573d6000803e3d6000fd5b5050604051601f1901519150506001600160a01b0381166116d9575060009250600191508290506116e3565b9250600091508190505b9450945094915050565b6000806116f86117b5565b80519091501561170f578051602090910120919050565b7f219639d1c7dec7d049ffb8dc11e39f070f052764b142bd61682a7811a502a60054801561173d5792915050565b7fc5d2460186f7233c927e7db2dcc703c0e500b653ca82273b7bfad8045d85a4709250505090565b600080611770611869565b805190915015611787578051602090910120919050565b7f219639d1c7dec7d049ffb8dc11e39f070f052764b142bd61682a7811a502a60154801561173d5792915050565b60607f219639d1c7dec7d049ffb8dc11e39f070f052764b142bd61682a7811a502a60060020180546117e690611dd5565b80601f016020809104026020016040519081016040528092919081815260200182805461181290611dd5565b801561185f5780601f106118345761010080835404028352916020019161185f565b820191906000526020600020905b81548152906001019060200180831161184257829003601f168201915b5050505050905090565b60607f219639d1c7dec7d049ffb8dc11e39f070f052764b142bd61682a7811a502a60060030180546117e690611dd5565b6001600160a01b03811681146103dc57600080fd5b6000602082840312156118c157600080fd5b81356103708161189a565b6020808252825182820181905260009190848201906040850190845b8181101561190d5783516001600160a01b0316835292840192918401916001016118e8565b50909695505050505050565b634e487b7160e01b600052604160045260246000fd5b6040516060810167ffffffffffffffff8111828210171561195257611952611919565b60405290565b60405160e0810167ffffffffffffffff8111828210171561195257611952611919565b604051601f8201601f1916810167ffffffffffffffff811182821017156119a4576119a4611919565b604052919050565b600067ffffffffffffffff8311156119c6576119c6611919565b6119d9601f8401601f191660200161197b565b90508281528383830111156119ed57600080fd5b828260208301376000602084830101529392505050565b600060608284031215611a1657600080fd5b611a1e61192f565b90508135611a2b8161189a565b8152602082013567ffffffffffffffff80821115611a4857600080fd5b818401915084601f830112611a5c57600080fd5b611a6b858335602085016119ac565b60208401526040840135915080821115611a8457600080fd5b508201601f81018413611a9657600080fd5b611aa5848235602084016119ac565b60408301525092915050565b600080600060608486031215611ac657600080fd5b833567ffffffffffffffff80821115611ade57600080fd5b611aea87838801611a04565b94506020860135915080821115611b0057600080fd5b50611b0d86828701611a04565b925050604084013590509250925092565b60008060408385031215611b3157600080fd5b823567ffffffffffffffff811115611b4857600080fd5b611b5485828601611a04565b95602094909401359450505050565b600080600060608486031215611b7857600080fd5b8335611b838161189a565b9250602084013567ffffffffffffffff811115611b9f57600080fd5b611b0d86828701611a04565b60008060408385031215611bbe57600080fd5b823591506020830135611bd08161189a565b809150509250929050565b60008060408385031215611bee57600080fd5b8235611bf98161189a565b91506020830135611bd08161189a565b600060208284031215611c1b57600080fd5b5035919050565b634e487b7160e01b600052603260045260246000fd5b634e487b7160e01b600052601160045260246000fd5b600060018201611c6057611c60611c38565b5060010190565b8051611c728161189a565b919050565b60006020808385031215611c8a57600080fd5b825167ffffffffffffffff80821115611ca257600080fd5b818501915085601f830112611cb657600080fd5b815181811115611cc857611cc8611919565b611cd6848260051b0161197b565b818152848101925060e0918202840185019188831115611cf557600080fd5b938501935b82851015611d8a5780858a031215611d125760008081fd5b611d1a611958565b855160068110611d2a5760008081fd5b8152611d37868801611c67565b878201526040611d48818801611c67565b90820152606086810151908201526080611d63818801611c67565b9082015260a0868101519082015260c0808701519082015284529384019392850192611cfa565b50979650505050505050565b634e487b7160e01b600052602160045260246000fd5b8181038181111561024757610247611c38565b634e487b7160e01b600052603160045260246000fd5b600181811c90821680611de957607f821691505b602082108103611e0957634e487b7160e01b600052602260045260246000fd5b5091905056fe19511ce7944c192b1007be99b82019218d1decfc513f05239612743360a0dc00","linkReferences":{}},"methodIdentifiers":{"__WalletLink_init(address)":"a3f100e5","checkIfLinked(address,address)":"912b9758","getDefaultWallet(address)":"101659b1","getDelegateByVersion(uint256)":"d1093a3e","getLatestNonceForRootKey(address)":"20a00ac8","getRootKeyForWallet(address)":"f8210398","getWalletsByRootKey(address)":"02345b98","getWalletsByRootKeyWithDelegations(address)":"3d005eab","linkCallerToRootKey((address,bytes,string),uint256)":"2f461453","linkWalletToRootKey((address,bytes,string),(address,bytes,string),uint256)":"243a7134","removeCallerLink()":"64899d98","removeLink(address,(address,bytes,string),uint256)":"35d2fb64","setDefaultWallet(address)":"baafda6b","setDelegateByVersion(uint256,address)":"8a56a2c5"},"id":197}