{"abi":[{"type":"function","name":"__WalletLink_init","inputs":[{"name":"delegateRegistry","type":"address","internalType":"address"},{"name":"sclEip6565","type":"address","internalType":"address"}],"outputs":[],"stateMutability":"nonpayable"},{"type":"function","name":"checkIfLinked","inputs":[{"name":"rootKey","type":"address","internalType":"address"},{"name":"wallet","type":"address","internalType":"address"}],"outputs":[{"name":"","type":"bool","internalType":"bool"}],"stateMutability":"view"},{"type":"function","name":"checkIfNonEVMWalletLinked","inputs":[{"name":"rootKey","type":"address","internalType":"address"},{"name":"walletHash","type":"bytes32","internalType":"bytes32"}],"outputs":[{"name":"","type":"bool","internalType":"bool"}],"stateMutability":"view"},{"type":"function","name":"explicitWalletsByRootKey","inputs":[{"name":"rootKey","type":"address","internalType":"address"},{"name":"options","type":"tuple","internalType":"struct IWalletLinkBase.WalletQueryOptions","components":[{"name":"includeDelegations","type":"bool","internalType":"bool"}]}],"outputs":[{"name":"wallets","type":"tuple[]","internalType":"struct WalletLib.Wallet[]","components":[{"name":"addr","type":"string","internalType":"string"},{"name":"vmType","type":"uint8","internalType":"enum WalletLib.VirtualMachineType"}]}],"stateMutability":"view"},{"type":"function","name":"getDefaultWallet","inputs":[{"name":"rootWallet","type":"address","internalType":"address"}],"outputs":[{"name":"","type":"address","internalType":"address"}],"stateMutability":"view"},{"type":"function","name":"getDependency","inputs":[{"name":"dependency","type":"bytes32","internalType":"bytes32"}],"outputs":[{"name":"","type":"address","internalType":"address"}],"stateMutability":"view"},{"type":"function","name":"getLatestNonceForRootKey","inputs":[{"name":"rootKey","type":"address","internalType":"address"}],"outputs":[{"name":"","type":"uint256","internalType":"uint256"}],"stateMutability":"view"},{"type":"function","name":"getRootKeyForWallet","inputs":[{"name":"wallet","type":"address","internalType":"address"}],"outputs":[{"name":"rootKey","type":"address","internalType":"address"}],"stateMutability":"view"},{"type":"function","name":"getWalletsByRootKey","inputs":[{"name":"rootKey","type":"address","internalType":"address"}],"outputs":[{"name":"wallets","type":"address[]","internalType":"address[]"}],"stateMutability":"view"},{"type":"function","name":"getWalletsByRootKeyWithDelegations","inputs":[{"name":"rootKey","type":"address","internalType":"address"}],"outputs":[{"name":"wallets","type":"address[]","internalType":"address[]"}],"stateMutability":"view"},{"type":"function","name":"linkCallerToRootKey","inputs":[{"name":"rootWallet","type":"tuple","internalType":"struct IWalletLinkBase.LinkedWallet","components":[{"name":"addr","type":"address","internalType":"address"},{"name":"signature","type":"bytes","internalType":"bytes"},{"name":"message","type":"string","internalType":"string"}]},{"name":"nonce","type":"uint256","internalType":"uint256"}],"outputs":[],"stateMutability":"nonpayable"},{"type":"function","name":"linkNonEVMWalletToRootKey","inputs":[{"name":"wallet","type":"tuple","internalType":"struct IWalletLinkBase.NonEVMLinkedWallet","components":[{"name":"wallet","type":"tuple","internalType":"struct WalletLib.Wallet","components":[{"name":"addr","type":"string","internalType":"string"},{"name":"vmType","type":"uint8","internalType":"enum WalletLib.VirtualMachineType"}]},{"name":"signature","type":"bytes","internalType":"bytes"},{"name":"message","type":"string","internalType":"string"},{"name":"extraData","type":"tuple[]","internalType":"struct IWalletLinkBase.VMSpecificData[]","components":[{"name":"key","type":"string","internalType":"string"},{"name":"value","type":"bytes","internalType":"bytes"}]}]},{"name":"nonce","type":"uint256","internalType":"uint256"}],"outputs":[],"stateMutability":"nonpayable"},{"type":"function","name":"linkWalletToRootKey","inputs":[{"name":"wallet","type":"tuple","internalType":"struct IWalletLinkBase.LinkedWallet","components":[{"name":"addr","type":"address","internalType":"address"},{"name":"signature","type":"bytes","internalType":"bytes"},{"name":"message","type":"string","internalType":"string"}]},{"name":"rootWallet","type":"tuple","internalType":"struct IWalletLinkBase.LinkedWallet","components":[{"name":"addr","type":"address","internalType":"address"},{"name":"signature","type":"bytes","internalType":"bytes"},{"name":"message","type":"string","internalType":"string"}]},{"name":"nonce","type":"uint256","internalType":"uint256"}],"outputs":[],"stateMutability":"nonpayable"},{"type":"function","name":"removeCallerLink","inputs":[],"outputs":[],"stateMutability":"nonpayable"},{"type":"function","name":"removeLink","inputs":[{"name":"wallet","type":"address","internalType":"address"},{"name":"rootWallet","type":"tuple","internalType":"struct IWalletLinkBase.LinkedWallet","components":[{"name":"addr","type":"address","internalType":"address"},{"name":"signature","type":"bytes","internalType":"bytes"},{"name":"message","type":"string","internalType":"string"}]},{"name":"nonce","type":"uint256","internalType":"uint256"}],"outputs":[],"stateMutability":"nonpayable"},{"type":"function","name":"removeNonEVMWalletLink","inputs":[{"name":"wallet","type":"tuple","internalType":"struct WalletLib.Wallet","components":[{"name":"addr","type":"string","internalType":"string"},{"name":"vmType","type":"uint8","internalType":"enum WalletLib.VirtualMachineType"}]},{"name":"nonce","type":"uint256","internalType":"uint256"}],"outputs":[],"stateMutability":"nonpayable"},{"type":"function","name":"setDefaultWallet","inputs":[{"name":"defaultWallet","type":"address","internalType":"address"}],"outputs":[],"stateMutability":"nonpayable"},{"type":"function","name":"setDependency","inputs":[{"name":"dependency","type":"bytes32","internalType":"bytes32"},{"name":"dependencyAddress","type":"address","internalType":"address"}],"outputs":[],"stateMutability":"nonpayable"},{"type":"event","name":"Initialized","inputs":[{"name":"version","type":"uint32","indexed":false,"internalType":"uint32"}],"anonymous":false},{"type":"event","name":"InterfaceAdded","inputs":[{"name":"interfaceId","type":"bytes4","indexed":true,"internalType":"bytes4"}],"anonymous":false},{"type":"event","name":"InterfaceRemoved","inputs":[{"name":"interfaceId","type":"bytes4","indexed":true,"internalType":"bytes4"}],"anonymous":false},{"type":"event","name":"LinkNonEVMWalletToRootWallet","inputs":[{"name":"walletHash","type":"bytes32","indexed":true,"internalType":"bytes32"},{"name":"rootKey","type":"address","indexed":true,"internalType":"address"}],"anonymous":false},{"type":"event","name":"LinkWalletToRootKey","inputs":[{"name":"wallet","type":"address","indexed":true,"internalType":"address"},{"name":"rootKey","type":"address","indexed":true,"internalType":"address"}],"anonymous":false},{"type":"event","name":"OwnershipTransferred","inputs":[{"name":"previousOwner","type":"address","indexed":true,"internalType":"address"},{"name":"newOwner","type":"address","indexed":true,"internalType":"address"}],"anonymous":false},{"type":"event","name":"RemoveLink","inputs":[{"name":"wallet","type":"address","indexed":true,"internalType":"address"},{"name":"secondWallet","type":"address","indexed":true,"internalType":"address"}],"anonymous":false},{"type":"event","name":"RemoveNonEVMWalletLink","inputs":[{"name":"walletHash","type":"bytes32","indexed":true,"internalType":"bytes32"},{"name":"rootKey","type":"address","indexed":true,"internalType":"address"}],"anonymous":false},{"type":"event","name":"SetDefaultWallet","inputs":[{"name":"rootKey","type":"address","indexed":true,"internalType":"address"},{"name":"defaultWallet","type":"address","indexed":true,"internalType":"address"}],"anonymous":false},{"type":"error","name":"Initializable_InInitializingState","inputs":[]},{"type":"error","name":"Initializable_NotInInitializingState","inputs":[]},{"type":"error","name":"Introspection_AlreadySupported","inputs":[]},{"type":"error","name":"Introspection_NotSupported","inputs":[]},{"type":"error","name":"InvalidAccountNonce","inputs":[{"name":"account","type":"address","internalType":"address"},{"name":"currentNonce","type":"uint256","internalType":"uint256"}]},{"type":"error","name":"Ownable__NotOwner","inputs":[{"name":"account","type":"address","internalType":"address"}]},{"type":"error","name":"Ownable__ZeroAddress","inputs":[]},{"type":"error","name":"WalletLink__AddressMismatch","inputs":[]},{"type":"error","name":"WalletLink__CannotLinkToRootWallet","inputs":[{"name":"wallet","type":"address","internalType":"address"},{"name":"rootKey","type":"address","internalType":"address"}]},{"type":"error","name":"WalletLink__CannotLinkToSelf","inputs":[]},{"type":"error","name":"WalletLink__CannotRemoveDefaultWallet","inputs":[]},{"type":"error","name":"WalletLink__CannotRemoveRootWallet","inputs":[]},{"type":"error","name":"WalletLink__DefaultWalletAlreadySet","inputs":[]},{"type":"error","name":"WalletLink__InvalidAddress","inputs":[]},{"type":"error","name":"WalletLink__InvalidMessage","inputs":[]},{"type":"error","name":"WalletLink__InvalidNonEVMAddress","inputs":[]},{"type":"error","name":"WalletLink__InvalidSignature","inputs":[]},{"type":"error","name":"WalletLink__InvalidVMSpecificData","inputs":[{"name":"key","type":"string","internalType":"string"},{"name":"value","type":"bytes","internalType":"bytes"}]},{"type":"error","name":"WalletLink__LinkAlreadyExists","inputs":[{"name":"wallet","type":"address","internalType":"address"},{"name":"rootKey","type":"address","internalType":"address"}]},{"type":"error","name":"WalletLink__LinkedToAnotherRootKey","inputs":[{"name":"wallet","type":"address","internalType":"address"},{"name":"rootKey","type":"address","internalType":"address"}]},{"type":"error","name":"WalletLink__MaxLinkedWalletsReached","inputs":[]},{"type":"error","name":"WalletLink__NonEVMWalletAlreadyLinked","inputs":[{"name":"wallet","type":"string","internalType":"string"},{"name":"rootKey","type":"address","internalType":"address"}]},{"type":"error","name":"WalletLink__NonEVMWalletNotLinked","inputs":[{"name":"wallet","type":"string","internalType":"string"},{"name":"rootKey","type":"address","internalType":"address"}]},{"type":"error","name":"WalletLink__NotLinked","inputs":[{"name":"wallet","type":"address","internalType":"address"},{"name":"rootKey","type":"address","internalType":"address"}]},{"type":"error","name":"WalletLink__RootKeyMismatch","inputs":[{"name":"callerRootKey","type":"address","internalType":"address"},{"name":"rootKey","type":"address","internalType":"address"}]},{"type":"error","name":"WalletLink__UnsupportedVMType","inputs":[]}],"bytecode":{"object":"0x6080604052348015600e575f5ffd5b5060156019565b60bd565b7f59b501c3653afc186af7d48dda36cf6732bd21629a6295693664240a6ef520008054640100000000900460ff16156064576040516366008a2d60e01b815260040160405180910390fd5b805463ffffffff908116101560ba57805463ffffffff191663ffffffff90811782556040519081527fe9c9b456cb2994b80aeef036cf59d26e9617df80f816a6ee5a5b4166e07e2f5c9060200160405180910390a15b50565b6141b1806100ca5f395ff3fe608060405234801561000f575f5ffd5b506004361061012f575f3560e01c80636aa40299116100ad57806397d9a8491161007d578063baafda6b11610063578063baafda6b146102a0578063f8210398146102b3578063f8aca11e146102c6575f5ffd5b806397d9a8491461027a578063a5bbf4801461028d575f5ffd5b80636aa402991461021e57806371926900146102315780637238695e14610244578063912b975814610257575f5ffd5b8063243a71341161010257806335d2fb64116100e857806335d2fb64146101f05780633d005eab1461020357806364899d9814610216575f5ffd5b8063243a7134146101c85780632f461453146101dd575f5ffd5b806302345b9814610133578063039dd1931461015c578063101659b11461019457806320a00ac8146101a7575b5f5ffd5b6101466101413660046134b6565b6102e6565b60405161015391906134d1565b60405180910390f35b61016f61016a366004613529565b6102f7565b60405173ffffffffffffffffffffffffffffffffffffffff9091168152602001610153565b61016f6101a23660046134b6565b61033f565b6101ba6101b53660046134b6565b61038f565b604051908152602001610153565b6101db6101d6366004613556565b6103d8565b005b6101db6101eb3660046135c4565b6103e8565b6101db6101fe366004613606565b6103f6565b6101466102113660046134b6565b610401565b6101db61040c565b6101db61022c36600461363e565b610416565b6101db61023f366004613675565b61057a565b6101db6102523660046136bb565b610584565b61026a61026536600461363e565b610669565b6040519015158152602001610153565b61026a6102883660046136de565b6106be565b6101db61029b3660046136fa565b61070b565b6101db6102ae3660046134b6565b610715565b61016f6102c13660046134b6565b610722565b6102d96102d4366004613732565b61076f565b60405161015391906137f4565b60606102f18261077b565b92915050565b5f8181527f19511ce7944c192b1007be99b82019218d1decfc513f05239612743360a0dc02602052604081205473ffffffffffffffffffffffffffffffffffffffff166102f1565b73ffffffffffffffffffffffffffffffffffffffff8082165f9081527f19511ce7944c192b1007be99b82019218d1decfc513f05239612743360a0dc0360205260408120600201549091166102f1565b73ffffffffffffffffffffffffffffffffffffffff81165f9081527fda5d6d87446d81938877f0ee239dac391146dd7466ea30567f72becf06773c0060205260408120546102f1565b6103e38383836107ca565b505050565b6103f28282610c4b565b5050565b6103e3838383610e52565b60606102f182611255565b610414611620565b565b7f59b501c3653afc186af7d48dda36cf6732bd21629a6295693664240a6ef5200054640100000000900460ff16610479576040517f77a399b800000000000000000000000000000000000000000000000000000000815260040160405180910390fd5b6104a27f4cf9376000000000000000000000000000000000000000000000000000000000611808565b7f19511ce7944c192b1007be99b82019218d1decfc513f05239612743360a0dc026020527fe148878d3ec6f61c12b8793d2b906fa601bb48234edb57fec1c1d5ae779e45a4805473ffffffffffffffffffffffffffffffffffffffff9384167fffffffffffffffffffffffff0000000000000000000000000000000000000000918216179091557f53434c5f454950363536350000000000000000000000000000000000000000005f527fec8c052a03b4861df1d3561683815d4c9de39968b0fde24c6d42a80a8e74254d8054929093169116179055565b6103f2828261195d565b7f4675fa8241f86f37157864d3d49b85ad4b164352c516da28e1678a90470ae3005473ffffffffffffffffffffffffffffffffffffffff1633146105fb576040517f65f490650000000000000000000000000000000000000000000000000000000081523360048201526024015b60405180910390fd5b5f8281527f19511ce7944c192b1007be99b82019218d1decfc513f05239612743360a0dc026020526040902080547fffffffffffffffffffffffff00000000000000000000000000000000000000001673ffffffffffffffffffffffffffffffffffffffff83161790555050565b73ffffffffffffffffffffffffffffffffffffffff8181165f9081527f19511ce7944c192b1007be99b82019218d1decfc513f05239612743360a0dc01602052604081205490918481169116145b9392505050565b5f8181527f19511ce7944c192b1007be99b82019218d1decfc513f05239612743360a0dc04602052604081205473ffffffffffffffffffffffffffffffffffffffff8085169116146106b7565b6103f28282611b20565b61071f3382611d8a565b50565b73ffffffffffffffffffffffffffffffffffffffff8082165f9081527f19511ce7944c192b1007be99b82019218d1decfc513f05239612743360a0dc0160205260408120549091166102f1565b60606106b78383612070565b73ffffffffffffffffffffffffffffffffffffffff81165f9081527f19511ce7944c192b1007be99b82019218d1decfc513f05239612743360a0dc00602052604090206060906102f19061235d565b7f19511ce7944c192b1007be99b82019218d1decfc513f05239612743360a0dc0061080e816107fc60208701876134b6565b61080960208701876134b6565b612369565b5f6108d861081f60408701876138cd565b8080601f0160208091040260200160405190810160405280939291908181526020018383808284375f920191909152506108609250505060208801886134b6565b858251602093840120604080517f6bb89d031fcd292ecd4c0e6855878b7165cebc3a2f35bc6bbac48c088dd8325c818701528082019290925273ffffffffffffffffffffffffffffffffffffffff9390931660608201526080808201929092528251808203909201825260a001909152805191012090565b90505f6108e4826126b3565b90506108f360208601866134b6565b73ffffffffffffffffffffffffffffffffffffffff166109538261091a60208901896138cd565b8080601f0160208091040260200160405190810160405280939291908181526020018383808284375f920191909152506126fa92505050565b73ffffffffffffffffffffffffffffffffffffffff16146109a0576040517f55e0083a00000000000000000000000000000000000000000000000000000000815260040160405180910390fd5b610a696109b060408701876138cd565b8080601f0160208091040260200160405190810160405280939291908181526020018383808284375f920191909152506109f19250505060208801886134b6565b868251602093840120604080517f6bb89d031fcd292ecd4c0e6855878b7165cebc3a2f35bc6bbac48c088dd8325c818701528082019290925273ffffffffffffffffffffffffffffffffffffffff9390931660608201526080808201929092528251808203909201825260a001909152805191012090565b91505f610a75836126b3565b9050610a8460208801886134b6565b73ffffffffffffffffffffffffffffffffffffffff16610aab8261091a60208b018b6138cd565b73ffffffffffffffffffffffffffffffffffffffff1614610af8576040517f55e0083a00000000000000000000000000000000000000000000000000000000815260040160405180910390fd5b610b0e610b0860208801886134b6565b8661279f565b610b58610b1e60208901896134b6565b855f610b2d60208b018b6134b6565b73ffffffffffffffffffffffffffffffffffffffff16815260208101919091526040015f2090612843565b50610b6660208701876134b6565b600185015f610b7860208b018b6134b6565b73ffffffffffffffffffffffffffffffffffffffff908116825260208083019390935260409091015f2080547fffffffffffffffffffffffff0000000000000000000000000000000000000000169390911692909217909155610bdd908701876134b6565b73ffffffffffffffffffffffffffffffffffffffff16610c0060208901896134b6565b73ffffffffffffffffffffffffffffffffffffffff167f64126824352170c4025060d1f6e215159635e4b08e649830695f26ef6d2b572160405160405180910390a350505050505050565b7f19511ce7944c192b1007be99b82019218d1decfc513f05239612743360a0dc0033610c7f828261080960208801886134b6565b5f610ccd610c9060408701876138cd565b8080601f0160208091040260200160405190810160405280939291908181526020018383808284375f9201919091525086925088915061263c9050565b90505f610cd9826126b3565b9050610ce860208701876134b6565b73ffffffffffffffffffffffffffffffffffffffff16610d0f8261091a60208a018a6138cd565b73ffffffffffffffffffffffffffffffffffffffff1614610d5c576040517f55e0083a00000000000000000000000000000000000000000000000000000000815260040160405180910390fd5b610d6c610b0860208801886134b6565b610d7f83855f610b2d60208b018b6134b6565b50610d8d60208701876134b6565b73ffffffffffffffffffffffffffffffffffffffff8481165f908152600187016020908152604090912080547fffffffffffffffffffffffff00000000000000000000000000000000000000001693909216929092179055610df1908701876134b6565b73ffffffffffffffffffffffffffffffffffffffff168373ffffffffffffffffffffffffffffffffffffffff167f64126824352170c4025060d1f6e215159635e4b08e649830695f26ef6d2b572160405160405180910390a3505050505050565b7f19511ce7944c192b1007be99b82019218d1decfc513f05239612743360a0dc0073ffffffffffffffffffffffffffffffffffffffff84161580610eb757505f610e9f60208501856134b6565b73ffffffffffffffffffffffffffffffffffffffff16145b15610eee576040517f6df3f5c300000000000000000000000000000000000000000000000000000000815260040160405180910390fd5b610efb60208401846134b6565b73ffffffffffffffffffffffffffffffffffffffff168473ffffffffffffffffffffffffffffffffffffffff1603610f5f576040517f672edc7600000000000000000000000000000000000000000000000000000000815260040160405180910390fd5b610f6c60208401846134b6565b73ffffffffffffffffffffffffffffffffffffffff8581165f9081526001840160205260409020548116911614610ffd5783610fab60208501856134b6565b6040517f5e300c8300000000000000000000000000000000000000000000000000000000815273ffffffffffffffffffffffffffffffffffffffff9283166004820152911660248201526044016105f2565b73ffffffffffffffffffffffffffffffffffffffff8416600382015f61102660208701876134b6565b73ffffffffffffffffffffffffffffffffffffffff908116825260208201929092526040015f20600201541603611089576040517fd51f04c100000000000000000000000000000000000000000000000000000000815260040160405180910390fd5b5f6110d761109a60408601866138cd565b8080601f0160208091040260200160405190810160405280939291908181526020018383808284375f9201919091525089925087915061263c9050565b90505f6110e3826126b3565b90506110f260208601866134b6565b73ffffffffffffffffffffffffffffffffffffffff166111198261091a60208901896138cd565b73ffffffffffffffffffffffffffffffffffffffff1614611166576040517f55e0083a00000000000000000000000000000000000000000000000000000000815260040160405180910390fd5b61117c61117660208701876134b6565b8561279f565b73ffffffffffffffffffffffffffffffffffffffff86165f9081526001840160209081526040822080547fffffffffffffffffffffffff000000000000000000000000000000000000000016905561120a9188918691906111df908a018a6134b6565b73ffffffffffffffffffffffffffffffffffffffff16815260208101919091526040015f2090612864565b50604051339073ffffffffffffffffffffffffffffffffffffffff8816907f9a9d98629b39adf596077fc95a0712ba55c38f40a354e99d366a10f9c3e27da2905f90a3505050505050565b7fe148878d3ec6f61c12b8793d2b906fa601bb48234edb57fec1c1d5ae779e45a45473ffffffffffffffffffffffffffffffffffffffff8281165f9081527f19511ce7944c192b1007be99b82019218d1decfc513f05239612743360a0dc006020819052604082206060949193909116916112cf82612885565b9050805f036112f0575050604080515f815260208101909152949350505050565b5f6112fa8361235d565b9050815f8167ffffffffffffffff81111561131757611317613935565b60405190808252806020026020018201604052801561134a57816020015b60608152602001906001900390816113355790505b5090505f5b848110156114c4578673ffffffffffffffffffffffffffffffffffffffff166342f87c2585838151811061138557611385613962565b60200260200101516040518263ffffffff1660e01b81526004016113c5919073ffffffffffffffffffffffffffffffffffffffff91909116815260200190565b5f60405180830381865afa1580156113df573d5f5f3e3d5ffd5b505050506040513d5f823e601f3d9081017fffffffffffffffffffffffffffffffffffffffffffffffffffffffffffffffe01682016040526114249190810190613a3a565b82828151811061143657611436613962565b60200260200101819052505f82828151811061145457611454613962565b602002602001015190505f815190505f5b818110156114b657600183828151811061148157611481613962565b60200260200101515f0151600581111561149d5761149d61378e565b036114ae576114ab86613b8b565b95505b600101611465565b50505080600101905061134f565b508167ffffffffffffffff8111156114de576114de613935565b604051908082528060200260200182016040528015611507578160200160208202803683370190505b50975060208801602084018560051b8083828460045afa508692505f9150505b85811015611612575f83828151811061154257611542613962565b602002602001015190505f815190505f5b81811015611604575f83828151811061156e5761156e613962565b602002602001015190506001600581111561158b5761158b61378e565b8151600581111561159e5761159e61378e565b036115fb5780604001518e87806001019850815181106115c0576115c0613962565b602002602001019073ffffffffffffffffffffffffffffffffffffffff16908173ffffffffffffffffffffffffffffffffffffffff16815250505b50600101611553565b505050806001019050611527565b505050505050505050919050565b335f8181527f19511ce7944c192b1007be99b82019218d1decfc513f05239612743360a0dc0160205260409020547f19511ce7944c192b1007be99b82019218d1decfc513f05239612743360a0dc00919073ffffffffffffffffffffffffffffffffffffffff16806116de576040517f5e300c8300000000000000000000000000000000000000000000000000000000815273ffffffffffffffffffffffffffffffffffffffff8084166004830152821660248201526044016105f2565b73ffffffffffffffffffffffffffffffffffffffff8181165f908152600385016020526040902060020154818416911603611745576040517fd51f04c100000000000000000000000000000000000000000000000000000000815260040160405180910390fd5b73ffffffffffffffffffffffffffffffffffffffff8083165f908152600185016020908152604080832080547fffffffffffffffffffffffff00000000000000000000000000000000000000001690559284168252859052206117a89083612864565b508073ffffffffffffffffffffffffffffffffffffffff168273ffffffffffffffffffffffffffffffffffffffff167f9a9d98629b39adf596077fc95a0712ba55c38f40a354e99d366a10f9c3e27da260405160405180910390a3505050565b7fffffffff0000000000000000000000000000000000000000000000000000000081165f9081527f81088bbc801e045ea3e7620779ab349988f58afbdfba10dff983df3f33522b00602052604090205460ff166118dc577fffffffff0000000000000000000000000000000000000000000000000000000081165f9081527f81088bbc801e045ea3e7620779ab349988f58afbdfba10dff983df3f33522b006020526040902080547fffffffffffffffffffffffffffffffffffffffffffffffffffffffffffffff0016600117905561190e565b6040517ff2cfeefa00000000000000000000000000000000000000000000000000000000815260040160405180910390fd5b6040517fffffffff000000000000000000000000000000000000000000000000000000008216907f78f84e5b1c5c05be2b5ad3800781dd404d6d6c6302bc755c0fe20f58a33a7f22905f90a250565b6040517f19511ce7944c192b1007be99b82019218d1decfc513f05239612743360a0dc009033905f90611994908690602001613c15565b604080517fffffffffffffffffffffffffffffffffffffffffffffffffffffffffffffffe0818403018152918152815160209283012073ffffffffffffffffffffffffffffffffffffffff8086165f9081526001880190945291909220549192501680611a4d576040517f5e300c8300000000000000000000000000000000000000000000000000000000815273ffffffffffffffffffffffffffffffffffffffff8085166004830152821660248201526044016105f2565b73ffffffffffffffffffffffffffffffffffffffff81165f9081526003850160205260409020611a7d818461288e565b611ac157611a8b87806138cd565b836040517f9cc2f6360000000000000000000000000000000000000000000000000000000081526004016105f293929190613cb0565b611acb828761279f565b611ad58184612899565b60405173ffffffffffffffffffffffffffffffffffffffff83169084907fbd9633f1d49d3b0a615e7eba9e46218c1bfc459278b5764c2aeee591b1b1230a905f90a350505050505050565b7f19511ce7944c192b1007be99b82019218d1decfc513f05239612743360a0dc00335f611b4d8580613ce9565b604051602001611b5d9190613c15565b604051602081830303815290604052805190602001209050611b808386836128ec565b73ffffffffffffffffffffffffffffffffffffffff8083165f90815260018501602090815260408083205490931680835260038701909152919020611bc5818461288e565b15611c1457611bd48780613ce9565b611bde90806138cd565b836040517fc7d36f2f0000000000000000000000000000000000000000000000000000000081526004016105f293929190613cb0565b600a611c1f82612885565b10611c56576040517f4c8780db00000000000000000000000000000000000000000000000000000000815260040160405180910390fd5b6001611c628880613ce9565b611c73906040810190602001613d25565b6006811115611c8457611c8461378e565b03611ca957611c9b611c968880613ce9565b612ac7565b611ca487612b42565b611cd2565b611cd27f196e7f7e00000000000000000000000000000000000000000000000000000000612da0565b5f838152600486016020526040902080547fffffffffffffffffffffffff00000000000000000000000000000000000000001673ffffffffffffffffffffffffffffffffffffffff8416179055611d3583611d2d8980613ce9565b839190612da8565b611d3f828761279f565b60405173ffffffffffffffffffffffffffffffffffffffff83169084907feb317a93636ebc39c613bf403c3fb4147a957dbf439fb47b4c9cc5c2b372f6bc905f90a350505050505050565b73ffffffffffffffffffffffffffffffffffffffff8116611dd7576040517f6df3f5c300000000000000000000000000000000000000000000000000000000815260040160405180910390fd5b73ffffffffffffffffffffffffffffffffffffffff8181165f9081527f19511ce7944c192b1007be99b82019218d1decfc513f05239612743360a0dc0160205260409020541680611e74576040517f5e300c8300000000000000000000000000000000000000000000000000000000815273ffffffffffffffffffffffffffffffffffffffff8084166004830152821660248201526044016105f2565b73ffffffffffffffffffffffffffffffffffffffff8084165f9081527f19511ce7944c192b1007be99b82019218d1decfc513f05239612743360a0dc016020526040902054811690821614158015611ef857508073ffffffffffffffffffffffffffffffffffffffff168373ffffffffffffffffffffffffffffffffffffffff1614155b15611f4f576040517f5e300c8300000000000000000000000000000000000000000000000000000000815273ffffffffffffffffffffffffffffffffffffffff8085166004830152821660248201526044016105f2565b73ffffffffffffffffffffffffffffffffffffffff8181165f9081527f19511ce7944c192b1007be99b82019218d1decfc513f05239612743360a0dc036020526040902060028101547f19511ce7944c192b1007be99b82019218d1decfc513f05239612743360a0dc0092858116911603611ff6576040517f2febf33700000000000000000000000000000000000000000000000000000000815260040160405180910390fd5b6002810180547fffffffffffffffffffffffff00000000000000000000000000000000000000001673ffffffffffffffffffffffffffffffffffffffff86811691821790925560405190918516907f63a3f19f9166855a56a40467088468f9ae049d32865102cf64b70444db555036905f90a35050505050565b73ffffffffffffffffffffffffffffffffffffffff82165f9081527f19511ce7944c192b1007be99b82019218d1decfc513f05239612743360a0dc03602090815260409091206060917f19511ce7944c192b1007be99b82019218d1decfc513f05239612743360a0dc00919083906120ea90860186613d4d565b156120ff576120f886611255565b905061212f565b73ffffffffffffffffffffffffffffffffffffffff86165f90815260208490526040902061212c9061235d565b90505b5f6121398361235d565b82518151919250905f61214c8284613d68565b90508067ffffffffffffffff81111561216757612167613935565b6040519080825280602002602001820160405280156121ac57816020015b60408051808201909152606081525f60208201528152602001906001900390816121855790505b5097505f5b838110156122145760405180604001604052806121e68884815181106121d9576121d9613962565b6020026020010151612dd5565b81526020015f81525089828151811061220157612201613962565b60209081029190910101526001016121b1565b505f5b8281101561234f575f876003015f87848151811061223757612237613962565b602002602001015181526020019081526020015f206040518060400160405290815f8201805461226690613d7b565b80601f016020809104026020016040519081016040528092919081815260200182805461229290613d7b565b80156122dd5780601f106122b4576101008083540402835291602001916122dd565b820191905f5260205f20905b8154815290600101906020018083116122c057829003601f168201915b5050509183525050600182015460209091019060ff1660068111156123045761230461378e565b60068111156123155761231561378e565b90525090505f6123258387613d68565b9050818b828151811061233a5761233a613962565b60209081029190910101525050600101612217565b505050505050505092915050565b60605f6106b783612e17565b73ffffffffffffffffffffffffffffffffffffffff821615806123a0575073ffffffffffffffffffffffffffffffffffffffff8116155b156123d7576040517f6df3f5c300000000000000000000000000000000000000000000000000000000815260040160405180910390fd5b8073ffffffffffffffffffffffffffffffffffffffff168273ffffffffffffffffffffffffffffffffffffffff160361243c576040517f848ba26d00000000000000000000000000000000000000000000000000000000815260040160405180910390fd5b73ffffffffffffffffffffffffffffffffffffffff8281165f90815260018501602052604090205416156124bc576040517f14790b7f00000000000000000000000000000000000000000000000000000000815273ffffffffffffffffffffffffffffffffffffffff8084166004830152821660248201526044016105f2565b73ffffffffffffffffffffffffffffffffffffffff8181165f90815260018501602052604090205416156125505773ffffffffffffffffffffffffffffffffffffffff8181165f908152600185016020526040908190205490517f47227b5d0000000000000000000000000000000000000000000000000000000081528483166004820152911660248201526044016105f2565b73ffffffffffffffffffffffffffffffffffffffff82165f90815260208490526040812061257d90612885565b11156125d5576040517ff702bdda00000000000000000000000000000000000000000000000000000000815273ffffffffffffffffffffffffffffffffffffffff8084166004830152821660248201526044016105f2565b73ffffffffffffffffffffffffffffffffffffffff81165f908152602084905260409020600a9061260590612885565b106103e3576040517f4c8780db00000000000000000000000000000000000000000000000000000000815260040160405180910390fd5b8251602093840120604080517f6bb89d031fcd292ecd4c0e6855878b7165cebc3a2f35bc6bbac48c088dd8325c818701528082019290925273ffffffffffffffffffffffffffffffffffffffff9390931660608201526080808201929092528251808203909201825260a001909152805191012090565b5f6102f16126bf612e70565b836040517f19010000000000000000000000000000000000000000000000000000000000008152600281019290925260228201526042902090565b5f6040518251604081146127165760418114612750575061278b565b604084015160ff81901c601b016020527f7fffffffffffffffffffffffffffffffffffffffffffffffffffffffffffffff16606052612763565b60608401515f1a60205260408401516060525b50835f5260208301516040526020600160805f60015afa5191505f606052806040523d612798575b638baa579f5f526004601cfd5b5092915050565b73ffffffffffffffffffffffffffffffffffffffff82165f9081527fda5d6d87446d81938877f0ee239dac391146dd7466ea30567f72becf06773c00602052604090208054600181019091558181146103e3576040517f752d88c000000000000000000000000000000000000000000000000000000000815273ffffffffffffffffffffffffffffffffffffffff84166004820152602481018290526044016105f2565b5f6106b78373ffffffffffffffffffffffffffffffffffffffff8416612e7e565b5f6106b78373ffffffffffffffffffffffffffffffffffffffff8416612eca565b5f6102f1825490565b5f6106b78383612fad565b6128a38282612fc4565b505f8181526003830160205260408120906128be828261344f565b5060010180547fffffffffffffffffffffffffffffffffffffffffffffffffffffffffffffff001690555050565b336128f78380613ce9565b61290190806138cd565b90505f0361293b576040517f3761dda000000000000000000000000000000000000000000000000000000000815260040160405180910390fd5b60646129478480613ce9565b61295190806138cd565b9050111561298b576040517f3761dda000000000000000000000000000000000000000000000000000000000815260040160405180910390fd5b335f90815260018501602052604090205473ffffffffffffffffffffffffffffffffffffffff1680612a07576040517f5e300c8300000000000000000000000000000000000000000000000000000000815273ffffffffffffffffffffffffffffffffffffffff831660048201525f60248201526044016105f2565b5f83815260048601602052604090205473ffffffffffffffffffffffffffffffffffffffff168015801590612a6857508173ffffffffffffffffffffffffffffffffffffffff168173ffffffffffffffffffffffffffffffffffffffff1614155b15612abf576040517f5760279b00000000000000000000000000000000000000000000000000000000815273ffffffffffffffffffffffffffffffffffffffff8084166004830152821660248201526044016105f2565b505050505050565b6001612ad96040830160208401613d25565b6006811115612aea57612aea61378e565b0361071f576020612afb82806138cd565b90501080612b145750602c612b1082806138cd565b9050115b1561071f5761071f7f3761dda000000000000000000000000000000000000000000000000000000000612da0565b5f612b506060830183613dc6565b5f818110612b6057612b60613962565b9050602002810190612b729190613ce9565b612b809060208101906138cd565b810190612b8d9190613e2a565b9050612be2612b9c8380613ce9565b612ba690806138cd565b8080601f0160208091040260200160405190810160405280939291908181526020018383808284375f920191909152505084519150612fcf9050565b612c18576040517fd5ecf56b00000000000000000000000000000000000000000000000000000000815260040160405180910390fd5b7f53434c5f454950363536350000000000000000000000000000000000000000005f9081527f19511ce7944c192b1007be99b82019218d1decfc513f05239612743360a0dc026020527fec8c052a03b4861df1d3561683815d4c9de39968b0fde24c6d42a80a8e74254d5473ffffffffffffffffffffffffffffffffffffffff1690505f80612caa60208601866138cd565b810190612cb79190613eaf565b90925090505f73ffffffffffffffffffffffffffffffffffffffff841663369b6921612ce660408901896138cd565b88516040517fffffffff0000000000000000000000000000000000000000000000000000000060e086901b168152612d279392918991899190600401613ecf565b6020604051808303815f875af1158015612d43573d5f5f3e3d5ffd5b505050506040513d601f19601f82011682018060405250810190612d679190613f25565b905080612abf576040517f55e0083a00000000000000000000000000000000000000000000000000000000815260040160405180910390fd5b805f5260045ffd5b612db28383612ff3565b505f82815260038401602052604090208190612dce8282613ff6565b5050505050565b6060612de082612ffe565b805161307882526002017ffffffffffffffffffffffffffffffffffffffffffffffffffffffffffffffffe90910190815292915050565b6060815f01805480602002602001604051908101604052809291908181526020018280548015612e6457602002820191905f5260205f20905b815481526020019060010190808311612e50575b50505050509050919050565b5f612e79613089565b905090565b5f818152600183016020526040812054612ec357508154600181810184555f8481526020808220909301849055845484825282860190935260409020919091556102f1565b505f6102f1565b5f8181526001830160205260408120548015612fa4575f612eec600183614171565b85549091505f90612eff90600190614171565b9050808214612f5e575f865f018281548110612f1d57612f1d613962565b905f5260205f200154905080875f018481548110612f3d57612f3d613962565b5f918252602080832090910192909255918252600188019052604090208390555b8554869080612f6f57612f6f614184565b600190038181905f5260205f20015f90559055856001015f8681526020019081526020015f205f9055600193505050506102f1565b5f9150506102f1565b5f81815260018301602052604081205415156106b7565b5f6106b78383612eca565b5f6106b783612fdd846130fc565b8051602091820120825192909101919091201490565b5f6106b78383612e7e565b60606040519050608081016040526f30313233343536373839616263646566600f5260028101905060288152602081015f60288201528260601b92505f5b808101820184821a600f81165160018301538060041c518253505060018101907fffffffffffffffffffffffffffffffffffffffffffffffffffffffffffffffed0161303c575050919050565b5f7f8b73c3c69bb8fe3d512ecc4cf759cc79239f7b179b0ffacaa9a75d522b39400f6130b361310e565b6130bb613189565b60408051602081019490945283019190915260608201524660808201523060a082015260c00160405160208183030381529060405280519060200120905090565b60606102f182600460200201516131d8565b5f5f61311861336c565b80519091501561312f578051602090910120919050565b7f219639d1c7dec7d049ffb8dc11e39f070f052764b142bd61682a7811a502a60054801561315d5792915050565b7fc5d2460186f7233c927e7db2dcc703c0e500b653ca82273b7bfad8045d85a4709250505090565b5090565b5f5f61319361341e565b8051909150156131aa578051602090910120919050565b7f219639d1c7dec7d049ffb8dc11e39f070f052764b142bd61682a7811a502a60154801561315d5792915050565b6060815f600382157ff8f9f9faf9fdfafbf9fdfcfdfafbfcfef9fafdfafcfcfbfefafafcfbffffffff6f8421084210842108cc6318c6db6d54be6fffffffffffffffffffffffffffffffff861160071b86811c67ffffffffffffffff1060061b1786811c63ffffffff1060051b1786811c61ffff1060041b1786811c60ff10851b1786811c9190911c601f169190911a180160408051602c808252606082019092529190921c9250604c01805b841561330f57603a808604957fffffffffffffffffffffffffffffffffffffffffffffffffffffffffffffffff90920191067f5a6162636465666768696a6b6d6e6f707172737475767778797a000000000000602082107f6b5351575153515f51282828292b293739383838383827292b295455565758590218601f821681901a83535050613285565b7f31313131313131313131313131313131313131313131313131313131313131317fffffffffffffffffffffffffffffffffffffffffffffffffffffffffffffffe080830191909152939003908190039201918252509392505050565b60607f219639d1c7dec7d049ffb8dc11e39f070f052764b142bd61682a7811a502a600600201805461339d90613d7b565b80601f01602080910402602001604051908101604052809291908181526020018280546133c990613d7b565b80156134145780601f106133eb57610100808354040283529160200191613414565b820191905f5260205f20905b8154815290600101906020018083116133f757829003601f168201915b5050505050905090565b60607f219639d1c7dec7d049ffb8dc11e39f070f052764b142bd61682a7811a502a600600301805461339d90613d7b565b50805461345b90613d7b565b5f825580601f1061346a575050565b601f0160209004905f5260205f209081019061071f91905b80821115613185575f8155600101613482565b73ffffffffffffffffffffffffffffffffffffffff8116811461071f575f5ffd5b5f602082840312156134c6575f5ffd5b81356106b781613495565b602080825282518282018190525f918401906040840190835b8181101561351e57835173ffffffffffffffffffffffffffffffffffffffff168352602093840193909201916001016134ea565b509095945050505050565b5f60208284031215613539575f5ffd5b5035919050565b5f60608284031215613550575f5ffd5b50919050565b5f5f5f60608486031215613568575f5ffd5b833567ffffffffffffffff81111561357e575f5ffd5b61358a86828701613540565b935050602084013567ffffffffffffffff8111156135a6575f5ffd5b6135b286828701613540565b93969395505050506040919091013590565b5f5f604083850312156135d5575f5ffd5b823567ffffffffffffffff8111156135eb575f5ffd5b6135f785828601613540565b95602094909401359450505050565b5f5f5f60608486031215613618575f5ffd5b833561362381613495565b9250602084013567ffffffffffffffff8111156135a6575f5ffd5b5f5f6040838503121561364f575f5ffd5b823561365a81613495565b9150602083013561366a81613495565b809150509250929050565b5f5f60408385031215613686575f5ffd5b823567ffffffffffffffff81111561369c575f5ffd5b8301604081860312156136ad575f5ffd5b946020939093013593505050565b5f5f604083850312156136cc575f5ffd5b82359150602083013561366a81613495565b5f5f604083850312156136ef575f5ffd5b82356136ad81613495565b5f5f6040838503121561370b575f5ffd5b823567ffffffffffffffff811115613721575f5ffd5b8301608081860312156136ad575f5ffd5b5f5f8284036040811215613744575f5ffd5b833561374f81613495565b925060207fffffffffffffffffffffffffffffffffffffffffffffffffffffffffffffffe082011215613780575f5ffd5b506020830190509250929050565b7f4e487b71000000000000000000000000000000000000000000000000000000005f52602160045260245ffd5b600781106137f0577f4e487b71000000000000000000000000000000000000000000000000000000005f52602160045260245ffd5b9052565b5f602082016020835280845180835260408501915060408160051b8601019250602086015f5b828110156138c1577fffffffffffffffffffffffffffffffffffffffffffffffffffffffffffffffc087860301845281518051604087528051806040890152806020830160608a015e5f6060828a0101526020830151925061387f60208901846137bb565b601f017fffffffffffffffffffffffffffffffffffffffffffffffffffffffffffffffe01696909601606001955050602093840193919091019060010161381a565b50929695505050505050565b5f5f83357fffffffffffffffffffffffffffffffffffffffffffffffffffffffffffffffe1843603018112613900575f5ffd5b83018035915067ffffffffffffffff82111561391a575f5ffd5b60200191503681900382131561392e575f5ffd5b9250929050565b7f4e487b71000000000000000000000000000000000000000000000000000000005f52604160045260245ffd5b7f4e487b71000000000000000000000000000000000000000000000000000000005f52603260045260245ffd5b60405160e0810167ffffffffffffffff811182821017156139b2576139b2613935565b60405290565b60405160a0810167ffffffffffffffff811182821017156139b2576139b2613935565b604051601f82017fffffffffffffffffffffffffffffffffffffffffffffffffffffffffffffffe016810167ffffffffffffffff81118282101715613a2257613a22613935565b604052919050565b8051613a3581613495565b919050565b5f60208284031215613a4a575f5ffd5b815167ffffffffffffffff811115613a60575f5ffd5b8201601f81018413613a70575f5ffd5b805167ffffffffffffffff811115613a8a57613a8a613935565b613a9960208260051b016139db565b80828252602082019150602060e08402850101925086831115613aba575f5ffd5b6020840193505b82841015613b545760e08488031215613ad8575f5ffd5b613ae061398f565b845160068110613aee575f5ffd5b8152613afc60208601613a2a565b6020820152613b0d60408601613a2a565b604082015260608581015190820152613b2860808601613a2a565b608082015260a0858101519082015260c08086015190820152825260e090930192602090910190613ac1565b9695505050505050565b7f4e487b71000000000000000000000000000000000000000000000000000000005f52601160045260245ffd5b5f7fffffffffffffffffffffffffffffffffffffffffffffffffffffffffffffffff8203613bbb57613bbb613b5e565b5060010190565b81835281816020850137505f602082840101525f60207fffffffffffffffffffffffffffffffffffffffffffffffffffffffffffffffe0601f840116840101905092915050565b6007811061071f575f5ffd5b602081525f82357fffffffffffffffffffffffffffffffffffffffffffffffffffffffffffffffe1843603018112613c4b575f5ffd5b830160208101903567ffffffffffffffff811115613c67575f5ffd5b803603821315613c75575f5ffd5b60406020850152613c8a606085018284613bc2565b9150506020840135613c9b81613c09565b613ca860408501826137bb565b509392505050565b604081525f613cc3604083018587613bc2565b905073ffffffffffffffffffffffffffffffffffffffff83166020830152949350505050565b5f82357fffffffffffffffffffffffffffffffffffffffffffffffffffffffffffffffc1833603018112613d1b575f5ffd5b9190910192915050565b5f60208284031215613d35575f5ffd5b81356106b781613c09565b801515811461071f575f5ffd5b5f60208284031215613d5d575f5ffd5b81356106b781613d40565b808201808211156102f1576102f1613b5e565b600181811c90821680613d8f57607f821691505b602082108103613550577f4e487b71000000000000000000000000000000000000000000000000000000005f52602260045260245ffd5b5f5f83357fffffffffffffffffffffffffffffffffffffffffffffffffffffffffffffffe1843603018112613df9575f5ffd5b83018035915067ffffffffffffffff821115613e13575f5ffd5b6020019150600581901b360382131561392e575f5ffd5b5f60a0828403128015613e3b575f5ffd5b506040516020810167ffffffffffffffff81118282101715613e5f57613e5f613935565b604052601f83018413613e70575f5ffd5b613e786139b8565b8060a0850186811115613e89575f5ffd5b855b81811015613ea3578035845260209384019301613e8b565b50508252509392505050565b5f5f60408385031215613ec0575f5ffd5b50508035926020909101359150565b61010081525f613ee461010083018789613bc2565b905084602083015283604083015260608201835f5b6005811015613f18578151835260209283019290910190600101613ef9565b5050509695505050505050565b5f60208284031215613f35575f5ffd5b81516106b781613d40565b601f8211156103e357805f5260205f20601f840160051c81016020851015613f655750805b601f840160051c820191505b81811015612dce575f8155600101613f71565b5f81356102f181613c09565b60078210613fc5577f4e487b71000000000000000000000000000000000000000000000000000000005f52602160045260245ffd5b7fffffffffffffffffffffffffffffffffffffffffffffffffffffffffffffff0081541660ff831681178255505050565b81357fffffffffffffffffffffffffffffffffffffffffffffffffffffffffffffffe1833603018112614027575f5ffd5b8201803567ffffffffffffffff81118015614040575f5ffd5b813603602084011315614051575f5ffd5b5f905050614069816140638554613d7b565b85613f40565b5f601f8211600181146140bc575f83156140865750838201602001355b7fffffffffffffffffffffffffffffffffffffffffffffffffffffffffffffffff600385901b1c1916600184901b178555614155565b5f858152602081207fffffffffffffffffffffffffffffffffffffffffffffffffffffffffffffffe08516915b8281101561410b576020858801810135835594850194600190920191016140e9565b5084821015614149577fffffffffffffffffffffffffffffffffffffffffffffffffffffffffffffffff60f88660031b161c19602085880101351681555b505060018360011b0185555b505050506103f261416860208401613f84565b60018301613f90565b818103818111156102f1576102f1613b5e565b7f4e487b71000000000000000000000000000000000000000000000000000000005f52603160045260245ffd","linkReferences":{}},"methodIdentifiers":{"__WalletLink_init(address,address)":"6aa40299","checkIfLinked(address,address)":"912b9758","checkIfNonEVMWalletLinked(address,bytes32)":"97d9a849","explicitWalletsByRootKey(address,(bool))":"f8aca11e","getDefaultWallet(address)":"101659b1","getDependency(bytes32)":"039dd193","getLatestNonceForRootKey(address)":"20a00ac8","getRootKeyForWallet(address)":"f8210398","getWalletsByRootKey(address)":"02345b98","getWalletsByRootKeyWithDelegations(address)":"3d005eab","linkCallerToRootKey((address,bytes,string),uint256)":"2f461453","linkNonEVMWalletToRootKey(((string,uint8),bytes,string,(string,bytes)[]),uint256)":"a5bbf480","linkWalletToRootKey((address,bytes,string),(address,bytes,string),uint256)":"243a7134","removeCallerLink()":"64899d98","removeLink(address,(address,bytes,string),uint256)":"35d2fb64","removeNonEVMWalletLink((string,uint8),uint256)":"71926900","setDefaultWallet(address)":"baafda6b","setDependency(bytes32,address)":"7238695e"},"id":200}