{"abi":[{"type":"function","name":"__WalletLink_init","inputs":[{"name":"delegateRegistry","type":"address","internalType":"address"},{"name":"sclEip6565","type":"address","internalType":"address"}],"outputs":[],"stateMutability":"nonpayable"},{"type":"function","name":"checkIfLinked","inputs":[{"name":"rootKey","type":"address","internalType":"address"},{"name":"wallet","type":"address","internalType":"address"}],"outputs":[{"name":"","type":"bool","internalType":"bool"}],"stateMutability":"view"},{"type":"function","name":"checkIfNonEVMWalletLinked","inputs":[{"name":"rootKey","type":"address","internalType":"address"},{"name":"walletHash","type":"bytes32","internalType":"bytes32"}],"outputs":[{"name":"","type":"bool","internalType":"bool"}],"stateMutability":"view"},{"type":"function","name":"getDefaultWallet","inputs":[{"name":"rootWallet","type":"address","internalType":"address"}],"outputs":[{"name":"","type":"address","internalType":"address"}],"stateMutability":"view"},{"type":"function","name":"getDependency","inputs":[{"name":"dependency","type":"bytes32","internalType":"bytes32"}],"outputs":[{"name":"","type":"address","internalType":"address"}],"stateMutability":"view"},{"type":"function","name":"getLatestNonceForRootKey","inputs":[{"name":"rootKey","type":"address","internalType":"address"}],"outputs":[{"name":"","type":"uint256","internalType":"uint256"}],"stateMutability":"view"},{"type":"function","name":"getRootKeyForWallet","inputs":[{"name":"wallet","type":"address","internalType":"address"}],"outputs":[{"name":"rootKey","type":"address","internalType":"address"}],"stateMutability":"view"},{"type":"function","name":"getWalletsByRootKey","inputs":[{"name":"rootKey","type":"address","internalType":"address"}],"outputs":[{"name":"wallets","type":"address[]","internalType":"address[]"}],"stateMutability":"view"},{"type":"function","name":"getWalletsByRootKeyWithDelegations","inputs":[{"name":"rootKey","type":"address","internalType":"address"}],"outputs":[{"name":"wallets","type":"address[]","internalType":"address[]"}],"stateMutability":"view"},{"type":"function","name":"linkCallerToRootKey","inputs":[{"name":"rootWallet","type":"tuple","internalType":"struct IWalletLinkBase.LinkedWalletData","components":[{"name":"addr","type":"address","internalType":"address"},{"name":"signature","type":"bytes","internalType":"bytes"},{"name":"message","type":"string","internalType":"string"}]},{"name":"nonce","type":"uint256","internalType":"uint256"}],"outputs":[],"stateMutability":"nonpayable"},{"type":"function","name":"linkNonEVMWalletToRootKey","inputs":[{"name":"wallet","type":"tuple","internalType":"struct IWalletLinkBase.NonEVMLinkedWalletData","components":[{"name":"addr","type":"string","internalType":"string"},{"name":"signature","type":"bytes","internalType":"bytes"},{"name":"message","type":"string","internalType":"string"},{"name":"vmType","type":"uint8","internalType":"enum IWalletLinkBase.VirtualMachineType"},{"name":"extraData","type":"tuple[]","internalType":"struct IWalletLinkBase.VMSpecificData[]","components":[{"name":"key","type":"string","internalType":"string"},{"name":"value","type":"bytes","internalType":"bytes"}]}]},{"name":"nonce","type":"uint256","internalType":"uint256"}],"outputs":[],"stateMutability":"nonpayable"},{"type":"function","name":"linkWalletToRootKey","inputs":[{"name":"wallet","type":"tuple","internalType":"struct IWalletLinkBase.LinkedWalletData","components":[{"name":"addr","type":"address","internalType":"address"},{"name":"signature","type":"bytes","internalType":"bytes"},{"name":"message","type":"string","internalType":"string"}]},{"name":"rootWallet","type":"tuple","internalType":"struct IWalletLinkBase.LinkedWalletData","components":[{"name":"addr","type":"address","internalType":"address"},{"name":"signature","type":"bytes","internalType":"bytes"},{"name":"message","type":"string","internalType":"string"}]},{"name":"nonce","type":"uint256","internalType":"uint256"}],"outputs":[],"stateMutability":"nonpayable"},{"type":"function","name":"removeCallerLink","inputs":[],"outputs":[],"stateMutability":"nonpayable"},{"type":"function","name":"removeLink","inputs":[{"name":"wallet","type":"address","internalType":"address"},{"name":"rootWallet","type":"tuple","internalType":"struct IWalletLinkBase.LinkedWalletData","components":[{"name":"addr","type":"address","internalType":"address"},{"name":"signature","type":"bytes","internalType":"bytes"},{"name":"message","type":"string","internalType":"string"}]},{"name":"nonce","type":"uint256","internalType":"uint256"}],"outputs":[],"stateMutability":"nonpayable"},{"type":"function","name":"removeNonEVMWalletLink","inputs":[{"name":"addr","type":"string","internalType":"string"},{"name":"vmType","type":"uint8","internalType":"enum IWalletLinkBase.VirtualMachineType"},{"name":"nonce","type":"uint256","internalType":"uint256"}],"outputs":[],"stateMutability":"nonpayable"},{"type":"function","name":"setDefaultWallet","inputs":[{"name":"defaultWallet","type":"address","internalType":"address"}],"outputs":[],"stateMutability":"nonpayable"},{"type":"function","name":"setDependency","inputs":[{"name":"dependency","type":"bytes32","internalType":"bytes32"},{"name":"dependencyAddress","type":"address","internalType":"address"}],"outputs":[],"stateMutability":"nonpayable"},{"type":"event","name":"Initialized","inputs":[{"name":"version","type":"uint32","indexed":false,"internalType":"uint32"}],"anonymous":false},{"type":"event","name":"InterfaceAdded","inputs":[{"name":"interfaceId","type":"bytes4","indexed":true,"internalType":"bytes4"}],"anonymous":false},{"type":"event","name":"InterfaceRemoved","inputs":[{"name":"interfaceId","type":"bytes4","indexed":true,"internalType":"bytes4"}],"anonymous":false},{"type":"event","name":"LinkNonEVMWalletToRootWallet","inputs":[{"name":"walletHash","type":"bytes32","indexed":true,"internalType":"bytes32"},{"name":"rootKey","type":"address","indexed":true,"internalType":"address"}],"anonymous":false},{"type":"event","name":"LinkWalletToRootKey","inputs":[{"name":"wallet","type":"address","indexed":true,"internalType":"address"},{"name":"rootKey","type":"address","indexed":true,"internalType":"address"}],"anonymous":false},{"type":"event","name":"OwnershipTransferred","inputs":[{"name":"previousOwner","type":"address","indexed":true,"internalType":"address"},{"name":"newOwner","type":"address","indexed":true,"internalType":"address"}],"anonymous":false},{"type":"event","name":"RemoveLink","inputs":[{"name":"wallet","type":"address","indexed":true,"internalType":"address"},{"name":"secondWallet","type":"address","indexed":true,"internalType":"address"}],"anonymous":false},{"type":"event","name":"RemoveNonEVMWalletLink","inputs":[{"name":"walletHash","type":"bytes32","indexed":true,"internalType":"bytes32"},{"name":"rootKey","type":"address","indexed":true,"internalType":"address"}],"anonymous":false},{"type":"event","name":"SetDefaultWallet","inputs":[{"name":"rootKey","type":"address","indexed":true,"internalType":"address"},{"name":"defaultWallet","type":"address","indexed":true,"internalType":"address"}],"anonymous":false},{"type":"error","name":"Initializable_InInitializingState","inputs":[]},{"type":"error","name":"Initializable_NotInInitializingState","inputs":[]},{"type":"error","name":"Introspection_AlreadySupported","inputs":[]},{"type":"error","name":"Introspection_NotSupported","inputs":[]},{"type":"error","name":"InvalidAccountNonce","inputs":[{"name":"account","type":"address","internalType":"address"},{"name":"currentNonce","type":"uint256","internalType":"uint256"}]},{"type":"error","name":"Ownable__NotOwner","inputs":[{"name":"account","type":"address","internalType":"address"}]},{"type":"error","name":"Ownable__ZeroAddress","inputs":[]},{"type":"error","name":"WalletLink__AddressMismatch","inputs":[]},{"type":"error","name":"WalletLink__CannotLinkToRootWallet","inputs":[{"name":"wallet","type":"address","internalType":"address"},{"name":"rootKey","type":"address","internalType":"address"}]},{"type":"error","name":"WalletLink__CannotLinkToSelf","inputs":[]},{"type":"error","name":"WalletLink__CannotRemoveDefaultWallet","inputs":[]},{"type":"error","name":"WalletLink__CannotRemoveRootWallet","inputs":[]},{"type":"error","name":"WalletLink__DefaultWalletAlreadySet","inputs":[]},{"type":"error","name":"WalletLink__InvalidAddress","inputs":[]},{"type":"error","name":"WalletLink__InvalidMessage","inputs":[]},{"type":"error","name":"WalletLink__InvalidNonEVMAddress","inputs":[]},{"type":"error","name":"WalletLink__InvalidSignature","inputs":[]},{"type":"error","name":"WalletLink__InvalidVMSpecificData","inputs":[{"name":"key","type":"string","internalType":"string"},{"name":"value","type":"bytes","internalType":"bytes"}]},{"type":"error","name":"WalletLink__LinkAlreadyExists","inputs":[{"name":"wallet","type":"address","internalType":"address"},{"name":"rootKey","type":"address","internalType":"address"}]},{"type":"error","name":"WalletLink__LinkedToAnotherRootKey","inputs":[{"name":"wallet","type":"address","internalType":"address"},{"name":"rootKey","type":"address","internalType":"address"}]},{"type":"error","name":"WalletLink__MaxLinkedWalletsReached","inputs":[]},{"type":"error","name":"WalletLink__NonEVMWalletAlreadyLinked","inputs":[{"name":"wallet","type":"string","internalType":"string"},{"name":"rootKey","type":"address","internalType":"address"}]},{"type":"error","name":"WalletLink__NonEVMWalletNotLinked","inputs":[{"name":"wallet","type":"string","internalType":"string"},{"name":"rootKey","type":"address","internalType":"address"}]},{"type":"error","name":"WalletLink__NotLinked","inputs":[{"name":"wallet","type":"address","internalType":"address"},{"name":"rootKey","type":"address","internalType":"address"}]},{"type":"error","name":"WalletLink__RootKeyMismatch","inputs":[{"name":"callerRootKey","type":"address","internalType":"address"},{"name":"rootKey","type":"address","internalType":"address"}]},{"type":"error","name":"WalletLink__UnsupportedVMType","inputs":[]}],"bytecode":{"object":"0x60806040523480156200001157600080fd5b506200001c62000022565b620000ca565b7f59b501c3653afc186af7d48dda36cf6732bd21629a6295693664240a6ef520008054640100000000900460ff16156200006f576040516366008a2d60e01b815260040160405180910390fd5b805463ffffffff9081161015620000c757805463ffffffff191663ffffffff90811782556040519081527fe9c9b456cb2994b80aeef036cf59d26e9617df80f816a6ee5a5b4166e07e2f5c9060200160405180910390a15b50565b612f3180620000da6000396000f3fe608060405234801561001057600080fd5b506004361061010b5760003560e01c80634d2bead6116100a2578063912b975811610071578063912b97581461022757806397d9a8491461024a578063baafda6b1461025d578063c93ffd2a14610270578063f82103981461028357600080fd5b80634d2bead6146101e657806364899d98146101f95780636aa40299146102015780637238695e1461021457600080fd5b8063243a7134116100de578063243a7134146101985780632f461453146101ad57806335d2fb64146101c05780633d005eab146101d357600080fd5b806302345b9814610110578063039dd19314610139578063101659b11461016457806320a00ac814610177575b600080fd5b61012361011e366004612545565b610296565b6040516101309190612562565b60405180910390f35b61014c6101473660046125af565b6102a7565b6040516001600160a01b039091168152602001610130565b61014c610172366004612545565b6102b2565b61018a610185366004612545565b6102f6565b604051908152602001610130565b6101ab6101a63660046125e0565b610333565b005b6101ab6101bb36600461264c565b610343565b6101ab6101ce366004612690565b610351565b6101236101e1366004612545565b61035c565b6101ab6101f436600461277b565b610367565b6101ab610372565b6101ab61020f366004612829565b61037c565b6101ab610222366004612862565b61040f565b61023a610235366004612829565b61046a565b6040519015158152602001610130565b61023a610258366004612887565b61047d565b6101ab61026b366004612545565b6104be565b6101ab61027e3660046128b3565b6104cb565b61014c610291366004612545565b6104d5565b60606102a1826104e0565b92915050565b60006102a182610511565b6001600160a01b0380821660009081527f19511ce7944c192b1007be99b82019218d1decfc513f05239612743360a0dc0360205260408120600201549091166102a1565b6001600160a01b03811660009081527fda5d6d87446d81938877f0ee239dac391146dd7466ea30567f72becf06773c0060205260408120546102a1565b61033e83838361054b565b505050565b61034d828261082e565b5050565b61033e8383836109b6565b60606102a182610c62565b61033e838383610ea8565b61037a610fc3565b565b7f59b501c3653afc186af7d48dda36cf6732bd21629a6295693664240a6ef5200054640100000000900460ff166103c657604051630ef4733760e31b815260040160405180910390fd5b6103d66372340e0160e11b6110f5565b6103f7732222a622a3a0aa22afa922a3a4a9aa292cafab1960611b836111ce565b61034d6a53434c5f4549503635363560a81b826111ce565b7f4675fa8241f86f37157864d3d49b85ad4b164352c516da28e1678a90470ae300546001600160a01b03163314610460576040516365f4906560e01b81523360048201526024015b60405180910390fd5b61034d82826111ce565b6000610476838361121b565b9392505050565b60008181527f19511ce7944c192b1007be99b82019218d1decfc513f05239612743360a0dc0460205260408120546001600160a01b03808516911614610476565b6104c8338261125c565b50565b61034d82826113cc565b60006102a182611626565b6001600160a01b0381166000908152600080516020612f11833981519152602052604090206060906102a190611663565b60009081527f19511ce7944c192b1007be99b82019218d1decfc513f05239612743360a0dc0260205260409020546001600160a01b031690565b600080516020612f1183398151915261057d8161056b6020870187612545565b6105786020870187612545565b611670565b60006105d761058f60408701876128ee565b8080601f0160208091040260200160405190810160405280939291908181526020018383808284376000920191909152506105d1925050506020880188612545565b856117fe565b905060006105e482611868565b90506105f36020860186612545565b6001600160a01b03166106478261060d60208901896128ee565b8080601f01602080910402602001604051908101604052809392919081815260200183838082843760009201919091525061189592505050565b6001600160a01b03161461066e57604051632af0041d60e11b815260040160405180910390fd5b6106c661067e60408701876128ee565b8080601f0160208091040260200160405190810160405280939291908181526020018383808284376000920191909152506106c0925050506020880188612545565b866117fe565b915060006106d383611868565b90506106e26020880188612545565b6001600160a01b03166106fc8261060d60208b018b6128ee565b6001600160a01b03161461072357604051632af0041d60e11b815260040160405180910390fd5b6107396107336020880188612545565b86611927565b6107786107496020890189612545565b85600061075960208b018b612545565b6001600160a01b03168152602081019190915260400160002090611999565b506107866020870187612545565b60018501600061079960208b018b612545565b6001600160a01b039081168252602080830193909352604090910160002080546001600160a01b03191693909116929092179091556107da90870187612545565b6001600160a01b03166107f06020890189612545565b6001600160a01b03167f64126824352170c4025060d1f6e215159635e4b08e649830695f26ef6d2b572160405160405180910390a350505050505050565b600080516020612f118339815191523361085082826105786020880188612545565b60006108a061086260408701876128ee565b8080601f0160208091040260200160405190810160405280939291908181526020018383808284376000920191909152508692508891506117fe9050565b905060006108ad82611868565b90506108bc6020870187612545565b6001600160a01b03166108d68261060d60208a018a6128ee565b6001600160a01b0316146108fd57604051632af0041d60e11b815260040160405180910390fd5b61090d6107336020880188612545565b6109218385600061075960208b018b612545565b5061092f6020870187612545565b6001600160a01b038481166000908152600187016020908152604090912080546001600160a01b0319169390921692909217905561096f90870187612545565b6001600160a01b0316836001600160a01b03167f64126824352170c4025060d1f6e215159635e4b08e649830695f26ef6d2b572160405160405180910390a3505050505050565b600080516020612f118339815191526001600160a01b03841615806109f0575060006109e56020850185612545565b6001600160a01b0316145b15610a0e57604051636df3f5c360e01b815260040160405180910390fd5b610a1b6020840184612545565b6001600160a01b0316846001600160a01b031603610a4c576040516333976e3b60e11b815260040160405180910390fd5b610a596020840184612545565b6001600160a01b0385811660009081526001840160205260409020548116911614610aa75783610a8c6020850185612545565b604051635e300c8360e01b815260040161045792919061293b565b6001600160a01b038416600382016000610ac46020870187612545565b6001600160a01b0390811682526020820192909252604001600020600201541603610b025760405163d51f04c160e01b815260040160405180910390fd5b6000610b52610b1460408601866128ee565b8080601f0160208091040260200160405190810160405280939291908181526020018383808284376000920191909152508992508791506117fe9050565b90506000610b5f82611868565b9050610b6e6020860186612545565b6001600160a01b0316610b888261060d60208901896128ee565b6001600160a01b031614610baf57604051632af0041d60e11b815260040160405180910390fd5b610bc5610bbf6020870187612545565b85611927565b6001600160a01b03861660009081526001840160209081526040822080546001600160a01b0319169055610c23918891869190610c04908a018a612545565b6001600160a01b031681526020810191909152604001600020906119ae565b5060405133906001600160a01b038816907f9a9d98629b39adf596077fc95a0712ba55c38f40a354e99d366a10f9c3e27da290600090a3505050505050565b6001600160a01b0381166000908152600080516020612f11833981519152602081905260408220606092610c95826119c3565b905080600003610cb75750506040805160008152602081019091529392505050565b6000610cc283611663565b9050816000610cd0836119cd565b905060005b84811015610d64576000828281518110610cf157610cf1612955565b6020026020010151905060008151905060005b81811015610d56576001838281518110610d2057610d20612955565b6020026020010151600001516005811115610d3d57610d3d61296b565b03610d4e57610d4b86612997565b95505b600101610d04565b505050806001019050610cd5565b50816001600160401b03811115610d7d57610d7d6126d7565b604051908082528060200260200182016040528015610da6578160200160208202803683370190505b50965060208701602084018560051b8083828460045afa5086925060009150505b85811015610e9b576000838281518110610de357610de3612955565b6020026020010151905060008151905060005b81811015610e8d576000838281518110610e1257610e12612955565b6020026020010151905060016005811115610e2f57610e2f61296b565b81516005811115610e4257610e4261296b565b03610e845760408101518d5160018801978f918110610e6357610e63612955565b60200260200101906001600160a01b031690816001600160a01b0316815250505b50600101610df6565b505050806001019050610dc7565b5050505050505050919050565b604051600080516020612f11833981519152903390600090610ed09087908790602001612a18565b60408051601f1981840301815291815281516020928301206001600160a01b0380861660009081526001880190945291909220549192501680610f2a578281604051635e300c8360e01b815260040161045792919061293b565b6001600160a01b03811660009081526003850160205260409020610f4e8184611b5c565b610f6f578782604051634e617b1b60e11b8152600401610457929190612a3a565b610f798287611927565b610f838184611b68565b6040516001600160a01b0383169084907fbd9633f1d49d3b0a615e7eba9e46218c1bfc459278b5764c2aeee591b1b1230a90600090a35050505050505050565b3360008181527f19511ce7944c192b1007be99b82019218d1decfc513f05239612743360a0dc016020526040902054600080516020612f1183398151915291906001600160a01b03168061102e578181604051635e300c8360e01b815260040161045792919061293b565b6001600160a01b0381811660009081526003850160205260409020600201548184169116036110705760405163d51f04c160e01b815260040160405180910390fd5b6001600160a01b038083166000908152600185016020908152604080832080546001600160a01b03191690559284168252859052206110af90836119ae565b50806001600160a01b0316826001600160a01b03167f9a9d98629b39adf596077fc95a0712ba55c38f40a354e99d366a10f9c3e27da260405160405180910390a3505050565b6001600160e01b0319811660009081527f81088bbc801e045ea3e7620779ab349988f58afbdfba10dff983df3f33522b00602052604090205460ff1661117d576001600160e01b0319811660009081527f81088bbc801e045ea3e7620779ab349988f58afbdfba10dff983df3f33522b0060205260409020805460ff19166001179055611196565b604051637967f77d60e11b815260040160405180910390fd5b6040516001600160e01b03198216907f78f84e5b1c5c05be2b5ad3800781dd404d6d6c6302bc755c0fe20f58a33a7f2290600090a250565b60009182527f19511ce7944c192b1007be99b82019218d1decfc513f05239612743360a0dc02602052604090912080546001600160a01b0319166001600160a01b03909216919091179055565b6001600160a01b0390811660009081527f19511ce7944c192b1007be99b82019218d1decfc513f05239612743360a0dc016020526040902054811691161490565b6001600160a01b03811661128357604051636df3f5c360e01b815260040160405180910390fd5b600061128e82611626565b90506001600160a01b0381166112bb578181604051635e300c8360e01b815260040161045792919061293b565b6112c5818461121b565b1580156112e45750806001600160a01b0316836001600160a01b031614155b15611306578281604051635e300c8360e01b815260040161045792919061293b565b6001600160a01b0381811660009081527f19511ce7944c192b1007be99b82019218d1decfc513f05239612743360a0dc03602052604090206002810154600080516020612f118339815191529285811691160361137657604051632febf33760e01b815260040160405180910390fd5b6002810180546001600160a01b0319166001600160a01b0386811691821790925560405190918516907f63a3f19f9166855a56a40467088468f9ae049d32865102cf64b70444db55503690600090a35050505050565b600080516020612f118339815191523360006113e885806128ee565b6113f86080880160608901612a64565b60405160200161140a93929190612aa8565b60405160208183030381529060405280519060200120905061142d838683611b9e565b6001600160a01b038083166000908152600185016020908152604080832054909316808352600387019091529190206114668184611b5c565b156114925761147587806128ee565b8360405163c7d36f2f60e01b815260040161045793929190612acb565b600a61149d826119c3565b106114bb57604051634c8780db60e01b815260040160405180910390fd5b60016114cd6080890160608a01612a64565b60068111156114de576114de61296b565b036115485761153a6114f088806128ee565b8080601f0160208091040260200160405190810160405280939291908181526020018383808284376000920191909152506115359250505060808a0160608b01612a64565b611c9b565b61154387611cda565b611558565b611558630cb73fbf60e11b611e2a565b6000838152600486016020526040902080546001600160a01b0319166001600160a01b0384161790556115dd8361158f89806128ee565b8080601f0160208091040260200160405190810160405280939291908181526020018383808284376000920191909152506115d49250505060808b0160608c01612a64565b84929190611e34565b6115e78287611927565b6040516001600160a01b0383169084907feb317a93636ebc39c613bf403c3fb4147a957dbf439fb47b4c9cc5c2b372f6bc90600090a350505050505050565b6001600160a01b0390811660009081527f19511ce7944c192b1007be99b82019218d1decfc513f05239612743360a0dc0160205260409020541690565b6060600061047683611eb7565b6001600160a01b038216158061168d57506001600160a01b038116155b156116ab57604051636df3f5c360e01b815260040160405180910390fd5b806001600160a01b0316826001600160a01b0316036116dd5760405163848ba26d60e01b815260040160405180910390fd5b6001600160a01b038281166000908152600185016020526040902054161561171c5781816040516314790b7f60e01b815260040161045792919061293b565b6001600160a01b0381811660009081526001850160205260409020541615611778576001600160a01b038082166000908152600185016020526040908190205490516347227b5d60e01b8152610457928592169060040161293b565b6001600160a01b0382166000908152602084905260408120611799906119c3565b11156117bc578181604051637b815eed60e11b815260040161045792919061293b565b6001600160a01b0381166000908152602084905260409020600a906117e0906119c3565b1061033e57604051634c8780db60e01b815260040160405180910390fd5b8251602093840120604080517f6bb89d031fcd292ecd4c0e6855878b7165cebc3a2f35bc6bbac48c088dd8325c81870152808201929092526001600160a01b039390931660608201526080808201929092528251808203909201825260a001909152805191012090565b60006102a1611875611f13565b8360405161190160f01b8152600281019290925260228201526042902090565b60006040518251604081146118b257604181146118d35750611912565b604084015160ff81901c601b016020526001600160ff1b03166060526118e7565b606084015160001a60205260408401516060525b50836000526020830151604052602060016080600060015afa5191506000606052806040523d611920575b638baa579f6000526004601cfd5b5092915050565b6001600160a01b03821660009081527fda5d6d87446d81938877f0ee239dac391146dd7466ea30567f72becf06773c006020526040902080546001810190915581811461033e576040516301d4b62360e61b81526001600160a01b038416600482015260248101829052604401610457565b6000610476836001600160a01b038416611f22565b6000610476836001600160a01b038416611f71565b60006102a1825490565b732222a622a3a0aa22afa922a3a4a9aa292cafab1960611b6000527f19511ce7944c192b1007be99b82019218d1decfc513f05239612743360a0dc026020527fe148878d3ec6f61c12b8793d2b906fa601bb48234edb57fec1c1d5ae779e45a45481516060916001600160a01b031690806001600160401b03811115611a5557611a556126d7565b604051908082528060200260200182016040528015611a8857816020015b6060815260200190600190039081611a735790505b50925060005b81811015611b5457826001600160a01b03166342f87c25868381518110611ab757611ab7612955565b60200260200101516040518263ffffffff1660e01b8152600401611aea91906001600160a01b0391909116815260200190565b600060405180830381865afa158015611b07573d6000803e3d6000fd5b505050506040513d6000823e601f3d908101601f19168201604052611b2f9190810190612b02565b848281518110611b4157611b41612955565b6020908102919091010152600101611a8e565b505050919050565b60006104768383612064565b611b72828261207c565b506000818152600383016020526040812090611b8e82826124e6565b50600101805460ff191690555050565b33611ba983806128ee565b9050600003611bcb576040516301bb0eed60e51b815260040160405180910390fd5b6064611bd784806128ee565b90501115611bf8576040516301bb0eed60e51b815260040160405180910390fd5b3360009081526001850160205260409020546001600160a01b031680611c3657816000604051635e300c8360e01b815260040161045792919061293b565b60008381526004860160205260409020546001600160a01b03168015801590611c715750816001600160a01b0316816001600160a01b031614155b15611c93578181604051635760279b60e01b815260040161045792919061293b565b505050505050565b6001816006811115611caf57611caf61296b565b0361034d57602082511080611cc55750602c8251115b1561034d5761034d6301bb0eed60e51b611e2a565b6000611ce96080830183612c20565b6000818110611cfa57611cfa612955565b9050602002810190611d0c9190612c69565b611d1a9060208101906128ee565b810190611d279190612c89565b9050611d73611d3683806128ee565b8080601f01602080910402602001604051908101604052809392919081815260200183838082843760009201919091525050845191506120889050565b611d905760405163d5ecf56b60e01b815260040160405180910390fd5b600080611da060208501856128ee565b810190611dad9190612d11565b90925090506000611e03611dc460408701876128ee565b8080601f0160208091040260200160405190810160405280939291908181526020018383808284376000920191909152505087518792508691506120ad565b905080611e2357604051632af0041d60e11b815260040160405180910390fd5b5050505050565b8060005260046000fd5b611e3e848461214b565b506040518060400160405280838152602001826006811115611e6257611e6261296b565b90526000848152600386016020526040902081518190611e829082612daf565b50602082015160018083018054909160ff1990911690836006811115611eaa57611eaa61296b565b0217905550505050505050565b606081600001805480602002602001604051908101604052809291908181526020018280548015611f0757602002820191906000526020600020905b815481526020019060010190808311611ef3575b50505050509050919050565b6000611f1d612157565b905090565b6000818152600183016020526040812054611f69575081546001818101845560008481526020808220909301849055845484825282860190935260409020919091556102a1565b5060006102a1565b6000818152600183016020526040812054801561205a576000611f95600183612e6e565b8554909150600090611fa990600190612e6e565b905080821461200e576000866000018281548110611fc957611fc9612955565b9060005260206000200154905080876000018481548110611fec57611fec612955565b6000918252602080832090910192909255918252600188019052604090208390555b855486908061201f5761201f612e81565b6001900381819060005260206000200160009055905585600101600086815260200190815260200160002060009055600193505050506102a1565b60009150506102a1565b60008181526001830160205260408120541515610476565b60006104768383611f71565b600061047683612097846121cb565b8051602091820120825192909101919091201490565b6000806120c76a53434c5f4549503635363560a81b610511565b60405163369b692160e01b81529091506001600160a01b0382169063369b6921906120fc908990899089908990600401612e97565b6020604051808303816000875af115801561211b573d6000803e3d6000fd5b505050506040513d601f19601f8201168201806040525081019061213f9190612eee565b9150505b949350505050565b60006104768383611f22565b60007f8b73c3c69bb8fe3d512ecc4cf759cc79239f7b179b0ffacaa9a75d522b39400f6121826121dd565b61218a612259565b60408051602081019490945283019190915260608201524660808201523060a082015260c00160405160208183030381529060405280519060200120905090565b60606102a182600460200201516122a9565b6000806121e8612401565b8051909150156121ff578051602090910120919050565b7f219639d1c7dec7d049ffb8dc11e39f070f052764b142bd61682a7811a502a60054801561222d5792915050565b7fc5d2460186f7233c927e7db2dcc703c0e500b653ca82273b7bfad8045d85a4709250505090565b5090565b6000806122646124b5565b80519091501561227b578051602090910120919050565b7f219639d1c7dec7d049ffb8dc11e39f070f052764b142bd61682a7811a502a60154801561222d5792915050565b6060816000600382157ff8f9f9faf9fdfafbf9fdfcfdfafbfcfef9fafdfafcfcfbfefafafcfbffffffff6f8421084210842108cc6318c6db6d54be6fffffffffffffffffffffffffffffffff861160071b86811c6001600160401b031060061b1786811c63ffffffff1060051b1786811c61ffff1060041b1786811c60ff10851b1786811c9190911c601f169190911a180160408051602c808252606082019092529190921c9250604c01805b84156123c257603a8086049560001990920191067f5a6162636465666768696a6b6d6e6f707172737475767778797a000000000000602082107f6b5351575153515f51282828292b293739383838383827292b295455565758590218601f821681901a83535050612356565b7f3131313131313131313131313131313131313131313131313131313131313131601f1980830191909152939003908190039201918252509392505050565b60607f219639d1c7dec7d049ffb8dc11e39f070f052764b142bd61682a7811a502a600600201805461243290612d33565b80601f016020809104026020016040519081016040528092919081815260200182805461245e90612d33565b80156124ab5780601f10612480576101008083540402835291602001916124ab565b820191906000526020600020905b81548152906001019060200180831161248e57829003601f168201915b5050505050905090565b60607f219639d1c7dec7d049ffb8dc11e39f070f052764b142bd61682a7811a502a600600301805461243290612d33565b5080546124f290612d33565b6000825580601f10612502575050565b601f0160209004906000526020600020908101906104c891905b80821115612255576000815560010161251c565b6001600160a01b03811681146104c857600080fd5b60006020828403121561255757600080fd5b813561047681612530565b6020808252825182820181905260009190848201906040850190845b818110156125a35783516001600160a01b03168352928401929184019160010161257e565b50909695505050505050565b6000602082840312156125c157600080fd5b5035919050565b6000606082840312156125da57600080fd5b50919050565b6000806000606084860312156125f557600080fd5b83356001600160401b038082111561260c57600080fd5b612618878388016125c8565b9450602086013591508082111561262e57600080fd5b5061263b868287016125c8565b925050604084013590509250925092565b6000806040838503121561265f57600080fd5b82356001600160401b0381111561267557600080fd5b612681858286016125c8565b95602094909401359450505050565b6000806000606084860312156126a557600080fd5b83356126b081612530565b925060208401356001600160401b038111156126cb57600080fd5b61263b868287016125c8565b634e487b7160e01b600052604160045260246000fd5b60405160e081016001600160401b038111828210171561270f5761270f6126d7565b60405290565b60405160a081016001600160401b038111828210171561270f5761270f6126d7565b604051601f8201601f191681016001600160401b038111828210171561275f5761275f6126d7565b604052919050565b80356007811061277657600080fd5b919050565b60008060006060848603121561279057600080fd5b83356001600160401b03808211156127a757600080fd5b818601915086601f8301126127bb57600080fd5b81356020828211156127cf576127cf6126d7565b6127e1601f8301601f19168201612737565b925081835288818386010111156127f757600080fd5b81818501828501376000818385010152829650612815818901612767565b955050505050604084013590509250925092565b6000806040838503121561283c57600080fd5b823561284781612530565b9150602083013561285781612530565b809150509250929050565b6000806040838503121561287557600080fd5b82359150602083013561285781612530565b6000806040838503121561289a57600080fd5b82356128a581612530565b946020939093013593505050565b600080604083850312156128c657600080fd5b82356001600160401b038111156128dc57600080fd5b830160a081860312156128a557600080fd5b6000808335601e1984360301811261290557600080fd5b8301803591506001600160401b0382111561291f57600080fd5b60200191503681900382131561293457600080fd5b9250929050565b6001600160a01b0392831681529116602082015260400190565b634e487b7160e01b600052603260045260246000fd5b634e487b7160e01b600052602160045260246000fd5b634e487b7160e01b600052601160045260246000fd5b6000600182016129a9576129a9612981565b5060010190565b6000815180845260005b818110156129d6576020818501810151868301820152016129ba565b506000602082860101526020601f19601f83011685010191505092915050565b60078110612a1457634e487b7160e01b600052602160045260246000fd5b9052565b604081526000612a2b60408301856129b0565b905061047660208301846129f6565b604081526000612a4d60408301856129b0565b905060018060a01b03831660208301529392505050565b600060208284031215612a7657600080fd5b61047682612767565b81835281816020850137506000828201602090810191909152601f909101601f19169091010190565b604081526000612abc604083018587612a7f565b905061214360208301846129f6565b604081526000612adf604083018587612a7f565b905060018060a01b0383166020830152949350505050565b805161277681612530565b60006020808385031215612b1557600080fd5b82516001600160401b0380821115612b2c57600080fd5b818501915085601f830112612b4057600080fd5b815181811115612b5257612b526126d7565b612b60848260051b01612737565b818152848101925060e0918202840185019188831115612b7f57600080fd5b938501935b82851015612c145780858a031215612b9c5760008081fd5b612ba46126ed565b855160068110612bb45760008081fd5b8152612bc1868801612af7565b878201526040612bd2818801612af7565b90820152606086810151908201526080612bed818801612af7565b9082015260a0868101519082015260c0808701519082015284529384019392850192612b84565b50979650505050505050565b6000808335601e19843603018112612c3757600080fd5b8301803591506001600160401b03821115612c5157600080fd5b6020019150600581901b360382131561293457600080fd5b60008235603e19833603018112612c7f57600080fd5b9190910192915050565b600060a08284031215612c9b57600080fd5b60405160208082018281106001600160401b0382111715612cbe57612cbe6126d7565b604052601f84018513612cd057600080fd5b612cd8612715565b8060a0860187811115612cea57600080fd5b865b81811015612d035780358452928401928401612cec565b505083525090949350505050565b60008060408385031215612d2457600080fd5b50508035926020909101359150565b600181811c90821680612d4757607f821691505b6020821081036125da57634e487b7160e01b600052602260045260246000fd5b601f82111561033e576000816000526020600020601f850160051c81016020861015612d905750805b601f850160051c820191505b81811015611c9357828155600101612d9c565b81516001600160401b03811115612dc857612dc86126d7565b612ddc81612dd68454612d33565b84612d67565b602080601f831160018114612e115760008415612df95750858301515b600019600386901b1c1916600185901b178555611c93565b600085815260208120601f198616915b82811015612e4057888601518255948401946001909101908401612e21565b5085821015612e5e5787850151600019600388901b60f8161c191681555b5050505050600190811b01905550565b818103818111156102a1576102a1612981565b634e487b7160e01b600052603160045260246000fd5b6000610100808352612eab818401886129b0565b9150506020856020840152846040840152606083018460005b6005811015612ee157815183529183019190830190600101612ec4565b5050505095945050505050565b600060208284031215612f0057600080fd5b8151801515811461047657600080fdfe19511ce7944c192b1007be99b82019218d1decfc513f05239612743360a0dc00","linkReferences":{}},"methodIdentifiers":{"__WalletLink_init(address,address)":"6aa40299","checkIfLinked(address,address)":"912b9758","checkIfNonEVMWalletLinked(address,bytes32)":"97d9a849","getDefaultWallet(address)":"101659b1","getDependency(bytes32)":"039dd193","getLatestNonceForRootKey(address)":"20a00ac8","getRootKeyForWallet(address)":"f8210398","getWalletsByRootKey(address)":"02345b98","getWalletsByRootKeyWithDelegations(address)":"3d005eab","linkCallerToRootKey((address,bytes,string),uint256)":"2f461453","linkNonEVMWalletToRootKey((string,bytes,string,uint8,(string,bytes)[]),uint256)":"c93ffd2a","linkWalletToRootKey((address,bytes,string),(address,bytes,string),uint256)":"243a7134","removeCallerLink()":"64899d98","removeLink(address,(address,bytes,string),uint256)":"35d2fb64","removeNonEVMWalletLink(string,uint8,uint256)":"4d2bead6","setDefaultWallet(address)":"baafda6b","setDependency(bytes32,address)":"7238695e"},"id":158}