{
  "abi": [
    {
      "inputs": [],
      "name": "ApprovalCallerNotOwnerNorApproved",
      "type": "error"
    },
    {
      "inputs": [],
      "name": "ApprovalQueryForNonexistentToken",
      "type": "error"
    },
    {
      "inputs": [],
      "name": "BalanceQueryForZeroAddress",
      "type": "error"
    },
    {
      "inputs": [],
      "name": "Initializable_InInitializingState",
      "type": "error"
    },
    {
      "inputs": [],
      "name": "Initializable_NotInInitializingState",
      "type": "error"
    },
    {
      "inputs": [],
      "name": "Introspection_AlreadySupported",
      "type": "error"
    },
    {
      "inputs": [],
      "name": "Introspection_NotSupported",
      "type": "error"
    },
    {
      "inputs": [],
      "name": "MintERC2309QuantityExceedsLimit",
      "type": "error"
    },
    {
      "inputs": [],
      "name": "MintToZeroAddress",
      "type": "error"
    },
    {
      "inputs": [],
      "name": "MintZeroQuantity",
      "type": "error"
    },
    {
      "inputs": [
        {
          "internalType": "address",
          "name": "account",
          "type": "address"
        }
      ],
      "name": "Ownable__NotOwner",
      "type": "error"
    },
    {
      "inputs": [],
      "name": "Ownable__ZeroAddress",
      "type": "error"
    },
    {
      "inputs": [],
      "name": "OwnerQueryForNonexistentToken",
      "type": "error"
    },
    {
      "inputs": [],
      "name": "OwnershipNotInitializedForExtraData",
      "type": "error"
    },
    {
      "inputs": [],
      "name": "TownOwner__OnlyFactoryAllowed",
      "type": "error"
    },
    {
      "inputs": [],
      "name": "TransferCallerNotOwnerNorApproved",
      "type": "error"
    },
    {
      "inputs": [],
      "name": "TransferFromIncorrectOwner",
      "type": "error"
    },
    {
      "inputs": [],
      "name": "TransferToNonERC721ReceiverImplementer",
      "type": "error"
    },
    {
      "inputs": [],
      "name": "TransferToZeroAddress",
      "type": "error"
    },
    {
      "inputs": [],
      "name": "URIQueryForNonexistentToken",
      "type": "error"
    },
    {
      "anonymous": false,
      "inputs": [
        {
          "indexed": true,
          "internalType": "address",
          "name": "owner",
          "type": "address"
        },
        {
          "indexed": true,
          "internalType": "address",
          "name": "approved",
          "type": "address"
        },
        {
          "indexed": true,
          "internalType": "uint256",
          "name": "tokenId",
          "type": "uint256"
        }
      ],
      "name": "Approval",
      "type": "event"
    },
    {
      "anonymous": false,
      "inputs": [
        {
          "indexed": true,
          "internalType": "address",
          "name": "owner",
          "type": "address"
        },
        {
          "indexed": true,
          "internalType": "address",
          "name": "operator",
          "type": "address"
        },
        {
          "indexed": false,
          "internalType": "bool",
          "name": "approved",
          "type": "bool"
        }
      ],
      "name": "ApprovalForAll",
      "type": "event"
    },
    {
      "anonymous": false,
      "inputs": [
        {
          "indexed": true,
          "internalType": "uint256",
          "name": "fromTokenId",
          "type": "uint256"
        },
        {
          "indexed": false,
          "internalType": "uint256",
          "name": "toTokenId",
          "type": "uint256"
        },
        {
          "indexed": true,
          "internalType": "address",
          "name": "from",
          "type": "address"
        },
        {
          "indexed": true,
          "internalType": "address",
          "name": "to",
          "type": "address"
        }
      ],
      "name": "ConsecutiveTransfer",
      "type": "event"
    },
    {
      "anonymous": false,
      "inputs": [
        {
          "indexed": false,
          "internalType": "uint32",
          "name": "version",
          "type": "uint32"
        }
      ],
      "name": "Initialized",
      "type": "event"
    },
    {
      "anonymous": false,
      "inputs": [
        {
          "indexed": true,
          "internalType": "bytes4",
          "name": "interfaceId",
          "type": "bytes4"
        }
      ],
      "name": "InterfaceAdded",
      "type": "event"
    },
    {
      "anonymous": false,
      "inputs": [
        {
          "indexed": true,
          "internalType": "bytes4",
          "name": "interfaceId",
          "type": "bytes4"
        }
      ],
      "name": "InterfaceRemoved",
      "type": "event"
    },
    {
      "anonymous": false,
      "inputs": [
        {
          "indexed": true,
          "internalType": "address",
          "name": "previousOwner",
          "type": "address"
        },
        {
          "indexed": true,
          "internalType": "address",
          "name": "newOwner",
          "type": "address"
        }
      ],
      "name": "OwnershipTransferred",
      "type": "event"
    },
    {
      "anonymous": false,
      "inputs": [
        {
          "indexed": true,
          "internalType": "address",
          "name": "from",
          "type": "address"
        },
        {
          "indexed": true,
          "internalType": "address",
          "name": "to",
          "type": "address"
        },
        {
          "indexed": true,
          "internalType": "uint256",
          "name": "tokenId",
          "type": "uint256"
        }
      ],
      "name": "Transfer",
      "type": "event"
    },
    {
      "inputs": [
        {
          "internalType": "string",
          "name": "name",
          "type": "string"
        },
        {
          "internalType": "string",
          "name": "symbol",
          "type": "string"
        }
      ],
      "name": "__TownOwner__init",
      "outputs": [],
      "stateMutability": "nonpayable",
      "type": "function"
    },
    {
      "inputs": [
        {
          "internalType": "address",
          "name": "to",
          "type": "address"
        },
        {
          "internalType": "uint256",
          "name": "tokenId",
          "type": "uint256"
        }
      ],
      "name": "approve",
      "outputs": [],
      "stateMutability": "payable",
      "type": "function"
    },
    {
      "inputs": [
        {
          "internalType": "address",
          "name": "owner",
          "type": "address"
        }
      ],
      "name": "balanceOf",
      "outputs": [
        {
          "internalType": "uint256",
          "name": "",
          "type": "uint256"
        }
      ],
      "stateMutability": "view",
      "type": "function"
    },
    {
      "inputs": [
        {
          "internalType": "uint256",
          "name": "tokenId",
          "type": "uint256"
        }
      ],
      "name": "getApproved",
      "outputs": [
        {
          "internalType": "address",
          "name": "",
          "type": "address"
        }
      ],
      "stateMutability": "view",
      "type": "function"
    },
    {
      "inputs": [
        {
          "internalType": "address",
          "name": "townAddress",
          "type": "address"
        }
      ],
      "name": "getTownInfo",
      "outputs": [
        {
          "components": [
            {
              "internalType": "string",
              "name": "name",
              "type": "string"
            },
            {
              "internalType": "string",
              "name": "uri",
              "type": "string"
            },
            {
              "internalType": "uint256",
              "name": "tokenId",
              "type": "uint256"
            },
            {
              "internalType": "string",
              "name": "networkId",
              "type": "string"
            },
            {
              "internalType": "uint256",
              "name": "createdAt",
              "type": "uint256"
            }
          ],
          "internalType": "struct ITownOwnerBase.Town",
          "name": "",
          "type": "tuple"
        }
      ],
      "stateMutability": "view",
      "type": "function"
    },
    {
      "inputs": [
        {
          "internalType": "address",
          "name": "owner",
          "type": "address"
        },
        {
          "internalType": "address",
          "name": "operator",
          "type": "address"
        }
      ],
      "name": "isApprovedForAll",
      "outputs": [
        {
          "internalType": "bool",
          "name": "",
          "type": "bool"
        }
      ],
      "stateMutability": "view",
      "type": "function"
    },
    {
      "inputs": [
        {
          "internalType": "string",
          "name": "name",
          "type": "string"
        },
        {
          "internalType": "string",
          "name": "uri",
          "type": "string"
        },
        {
          "internalType": "string",
          "name": "networkId",
          "type": "string"
        },
        {
          "internalType": "address",
          "name": "townAddress",
          "type": "address"
        }
      ],
      "name": "mintTown",
      "outputs": [
        {
          "internalType": "uint256",
          "name": "tokenId",
          "type": "uint256"
        }
      ],
      "stateMutability": "nonpayable",
      "type": "function"
    },
    {
      "inputs": [],
      "name": "name",
      "outputs": [
        {
          "internalType": "string",
          "name": "",
          "type": "string"
        }
      ],
      "stateMutability": "view",
      "type": "function"
    },
    {
      "inputs": [],
      "name": "nextTokenId",
      "outputs": [
        {
          "internalType": "uint256",
          "name": "",
          "type": "uint256"
        }
      ],
      "stateMutability": "view",
      "type": "function"
    },
    {
      "inputs": [
        {
          "internalType": "uint256",
          "name": "tokenId",
          "type": "uint256"
        }
      ],
      "name": "ownerOf",
      "outputs": [
        {
          "internalType": "address",
          "name": "",
          "type": "address"
        }
      ],
      "stateMutability": "view",
      "type": "function"
    },
    {
      "inputs": [
        {
          "internalType": "address",
          "name": "from",
          "type": "address"
        },
        {
          "internalType": "address",
          "name": "to",
          "type": "address"
        },
        {
          "internalType": "uint256",
          "name": "tokenId",
          "type": "uint256"
        }
      ],
      "name": "safeTransferFrom",
      "outputs": [],
      "stateMutability": "payable",
      "type": "function"
    },
    {
      "inputs": [
        {
          "internalType": "address",
          "name": "from",
          "type": "address"
        },
        {
          "internalType": "address",
          "name": "to",
          "type": "address"
        },
        {
          "internalType": "uint256",
          "name": "tokenId",
          "type": "uint256"
        },
        {
          "internalType": "bytes",
          "name": "_data",
          "type": "bytes"
        }
      ],
      "name": "safeTransferFrom",
      "outputs": [],
      "stateMutability": "payable",
      "type": "function"
    },
    {
      "inputs": [
        {
          "internalType": "address",
          "name": "operator",
          "type": "address"
        },
        {
          "internalType": "bool",
          "name": "approved",
          "type": "bool"
        }
      ],
      "name": "setApprovalForAll",
      "outputs": [],
      "stateMutability": "nonpayable",
      "type": "function"
    },
    {
      "inputs": [
        {
          "internalType": "address",
          "name": "factory",
          "type": "address"
        }
      ],
      "name": "setFactory",
      "outputs": [],
      "stateMutability": "nonpayable",
      "type": "function"
    },
    {
      "inputs": [],
      "name": "symbol",
      "outputs": [
        {
          "internalType": "string",
          "name": "",
          "type": "string"
        }
      ],
      "stateMutability": "view",
      "type": "function"
    },
    {
      "inputs": [
        {
          "internalType": "uint256",
          "name": "tokenId",
          "type": "uint256"
        }
      ],
      "name": "tokenURI",
      "outputs": [
        {
          "internalType": "string",
          "name": "",
          "type": "string"
        }
      ],
      "stateMutability": "view",
      "type": "function"
    },
    {
      "inputs": [],
      "name": "totalSupply",
      "outputs": [
        {
          "internalType": "uint256",
          "name": "",
          "type": "uint256"
        }
      ],
      "stateMutability": "view",
      "type": "function"
    },
    {
      "inputs": [
        {
          "internalType": "address",
          "name": "from",
          "type": "address"
        },
        {
          "internalType": "address",
          "name": "to",
          "type": "address"
        },
        {
          "internalType": "uint256",
          "name": "tokenId",
          "type": "uint256"
        }
      ],
      "name": "transferFrom",
      "outputs": [],
      "stateMutability": "payable",
      "type": "function"
    }
  ],
  "bytecode": {
    "object": "0x608060405234801561001057600080fd5b5061001961001e565b6100c4565b7feed92ff1d97f833a6121465a3ac08360f4c7c88d55a5e6a9b0e08466a018167d8054640100000000900460ff161561006a576040516366008a2d60e01b815260040160405180910390fd5b805463ffffffff90811610156100c157805463ffffffff191663ffffffff90811782556040519081527fe9c9b456cb2994b80aeef036cf59d26e9617df80f816a6ee5a5b4166e07e2f5c9060200160405180910390a15b50565b611a33806100d36000396000f3fe6080604052600436106101095760003560e01c80636352211e11610095578063a22cb46511610064578063a22cb46514610295578063ac9207f4146102b5578063b88d4fde146102e2578063c87b56dd146102f5578063e985e9c51461031557600080fd5b80636352211e1461022b57806370a082311461024b57806375794a3c1461026b57806395d89b411461028057600080fd5b806311c6ca8e116100dc57806311c6ca8e146101b057806318160ddd146101d057806323b872dd146101e557806342842e0e146101f85780635bb478081461020b57600080fd5b8063062528081461010e57806306fdde0314610141578063081812fc14610163578063095ea7b31461019b575b600080fd5b34801561011a57600080fd5b5061012e6101293660046114de565b610345565b6040519081526020015b60405180910390f35b34801561014d57600080fd5b506101566103af565b60405161013891906115c7565b34801561016f57600080fd5b5061018361017e3660046115da565b61044a565b6040516001600160a01b039091168152602001610138565b6101ae6101a93660046115f3565b610497565b005b3480156101bc57600080fd5b506101ae6101cb36600461161d565b6104a7565b3480156101dc57600080fd5b5061012e6104fb565b6101ae6101f3366004611681565b61051a565b6101ae610206366004611681565b610711565b34801561021757600080fd5b506101ae6102263660046116bd565b610731565b34801561023757600080fd5b506101836102463660046115da565b6107ac565b34801561025757600080fd5b5061012e6102663660046116bd565b6107bd565b34801561027757600080fd5b5061012e610826565b34801561028c57600080fd5b50610156610835565b3480156102a157600080fd5b506101ae6102b03660046116d8565b61084d565b3480156102c157600080fd5b506102d56102d03660046116bd565b6108ca565b6040516101389190611714565b6101ae6102f036600461178d565b610905565b34801561030157600080fd5b506101566103103660046115da565b61094f565b34801561032157600080fd5b50610335610330366004611809565b6109e0565b6040519015158152602001610138565b600080600080516020611a1383398151915280549091506001600160a01b031633146103845760405163b73edbc160e01b815260040160405180910390fd5b61038c610a1d565b915061039b8686848688610a2d565b6103a6336001610af6565b50949350505050565b60606103b9610b10565b60020180546103c79061183c565b80601f01602080910402602001604051908101604052809291908181526020018280546103f39061183c565b80156104405780601f1061041557610100808354040283529160200191610440565b820191906000526020600020905b81548152906001019060200180831161042357829003601f168201915b5050505050905090565b600061045582610b34565b610472576040516333d1c03960e21b815260040160405180910390fd5b61047a610b10565b60009283526006016020525060409020546001600160a01b031690565b6104a382826001610b70565b5050565b7feed92ff1d97f833a6121465a3ac08360f4c7c88d55a5e6a9b0e08466a018167d54640100000000900460ff166104f157604051630ef4733760e31b815260040160405180910390fd5b6104a38282610c25565b600080610506610b10565b60010154610512610b10565b540303919050565b600061052582610c79565b9050836001600160a01b0316816001600160a01b0316146105585760405162a1148160e81b815260040160405180910390fd5b60008061056484610d1e565b9150915061058981876105743390565b6001600160a01b039081169116811491141790565b6105b45761059786336109e0565b6105b457604051632ce44b5f60e11b815260040160405180910390fd5b6001600160a01b0385166105db57604051633a954ecd60e21b815260040160405180910390fd5b80156105e657600082555b6105ee610b10565b6001600160a01b038716600090815260059190910160205260409020805460001901905561061a610b10565b6001600160a01b03861660008181526005929092016020526040909120805460010190554260a01b17600160e11b17610651610b10565b60008681526004919091016020526040812091909155600160e11b841690036106c75760018401610680610b10565b6000828152600491909101602052604081205490036106c5576106a1610b10565b5481146106c557836106b1610b10565b600083815260049190910160205260409020555b505b83856001600160a01b0316876001600160a01b03167fddf252ad1be2c89b69c2b068fc378daa952ba7f163c4a11628f55a4df523b3ef60405160405180910390a45b505050505050565b61072c83838360405180602001604052806000815250610905565b505050565b7f79ae75762492beaf6e592c7e395674410f8f73b3120cc73dfae9d6c73528681c546001600160a01b03163314610781576040516365f4906560e01b815233600482015260240160405180910390fd5b600080516020611a1383398151915280546001600160a01b0319166001600160a01b03831617905550565b60006107b782610c79565b92915050565b60006001600160a01b0382166107e6576040516323d3ad8160e21b815260040160405180910390fd5b67ffffffffffffffff6107f7610b10565b6005016000846001600160a01b03166001600160a01b0316815260200190815260200160002054169050919050565b6000610830610a1d565b905090565b606061083f610b10565b60030180546103c79061183c565b80610856610b10565b336000818152600792909201602090815260408084206001600160a01b03881680865290835293819020805460ff19169515159590951790945592518415158152919290917f17307eab39ab6107e8899845ad3d59bd9653f200f220920489ca2b5937696c31910160405180910390a35050565b6108fc6040518060a0016040528060608152602001606081526020016000815260200160608152602001600081525090565b6107b782610d46565b61091084848461051a565b6001600160a01b0383163b156109495761092c84848484610f9d565b610949576040516368d2bf6b60e11b815260040160405180910390fd5b50505050565b606061095a82610b34565b61097757604051630a14c4b560e41b815260040160405180910390fd5b600061098e60408051602081019091526000815290565b905080516000036109ae57604051806020016040528060008152506109d9565b806109b884611088565b6040516020016109c9929190611876565b6040516020818303038152906040525b9392505050565b60006109ea610b10565b6001600160a01b039384166000908152600791909101602090815260408083209490951682529290925250205460ff1690565b6000610a27610b10565b54919050565b6040805160a0810182528681526020808201879052818301869052606082018490524260808301526001600160a01b03851660009081527f29fd831c424d24cd5e9cb3bb2c716700fad0c388fe4c8545bfa7e16ccd6601d6909152919091208151600080516020611a138339815191529291908190610aac90826118eb565b5060208201516001820190610ac190826118eb565b506040820151600282015560608201516003820190610ae090826118eb565b5060808201518160040155905050505050505050565b6104a38282604051806020016040528060008152506110cc565b7f234d8962d7c9a6a6604d7f98797e6ad6d7a886804f7409feb26422e27bf8125490565b6000610b3e610b10565b54821080156107b75750600160e01b610b55610b10565b60008481526004919091016020526040902054161592915050565b6000610b7b836107ac565b90508115610bba57336001600160a01b03821614610bba57610b9d81336109e0565b610bba576040516367d9dca160e11b815260040160405180910390fd5b83610bc3610b10565b6000858152600691909101602052604080822080546001600160a01b0319166001600160a01b0394851617905551859287811692908516917f8c5be1e5ebec7d5bd14f71427d1e84f3dd0314c0f7b2291e5b200ac8c7c3b9259190a450505050565b7feed92ff1d97f833a6121465a3ac08360f4c7c88d55a5e6a9b0e08466a018167d54640100000000900460ff16610c6f57604051630ef4733760e31b815260040160405180910390fd5b6104a38282611149565b6000610c83610b10565b600083815260049190910160205260408120549150600160e01b82169003610d055780600003610d0057610cb5610b10565b548210610cd557604051636f96cda160e11b815260040160405180910390fd5b610cdd610b10565b600019909201600081815260049390930160205260409092205490508015610cd5575b919050565b604051636f96cda160e11b815260040160405180910390fd5b6000806000610d2b610b10565b60009485526006016020525050604090912080549092909150565b610d786040518060a0016040528060608152602001606081526020016000815260200160608152602001600081525090565b6001600160a01b03821660009081527f29fd831c424d24cd5e9cb3bb2c716700fad0c388fe4c8545bfa7e16ccd6601d6602052604090819020815160a081019092528054600080516020611a1383398151915292919082908290610ddb9061183c565b80601f0160208091040260200160405190810160405280929190818152602001828054610e079061183c565b8015610e545780601f10610e2957610100808354040283529160200191610e54565b820191906000526020600020905b815481529060010190602001808311610e3757829003601f168201915b50505050508152602001600182018054610e6d9061183c565b80601f0160208091040260200160405190810160405280929190818152602001828054610e999061183c565b8015610ee65780601f10610ebb57610100808354040283529160200191610ee6565b820191906000526020600020905b815481529060010190602001808311610ec957829003601f168201915b5050505050815260200160028201548152602001600382018054610f099061183c565b80601f0160208091040260200160405190810160405280929190818152602001828054610f359061183c565b8015610f825780601f10610f5757610100808354040283529160200191610f82565b820191906000526020600020905b815481529060010190602001808311610f6557829003601f168201915b50505050508152602001600482015481525050915050919050565b604051630a85bd0160e11b81526000906001600160a01b0385169063150b7a0290610fd29033908990889088906004016119ab565b6020604051808303816000875af192505050801561100d575060408051601f3d908101601f1916820190925261100a918101906119e8565b60015b61106b573d80801561103b576040519150601f19603f3d011682016040523d82523d6000602084013e611040565b606091505b508051600003611063576040516368d2bf6b60e11b815260040160405180910390fd5b805181602001fd5b6001600160e01b031916630a85bd0160e11b149050949350505050565b606060a06040510180604052602081039150506000815280825b600183039250600a81066030018353600a9004806110a25750819003601f19909101908152919050565b6110d683836111d4565b6001600160a01b0383163b1561072c5760006110f0610b10565b5490508281035b61110a6000868380600101945086610f9d565b611127576040516368d2bf6b60e11b815260040160405180910390fd5b8181106110f75781611137610b10565b541461114257600080fd5b5050505050565b7feed92ff1d97f833a6121465a3ac08360f4c7c88d55a5e6a9b0e08466a018167d54640100000000900460ff1661119357604051630ef4733760e31b815260040160405180910390fd5b6111a36380ac58cd60e01b61130f565b6111b3635b5e139f60e01b61130f565b6111bc826113ed565b6111c581611404565b60006111cf610b10565b555050565b60006111de610b10565b54905060008290036112035760405163b562e8dd60e01b815260040160405180910390fd5b680100000000000000018202611217610b10565b6001600160a01b038516600081815260059290920160205260409091208054929092019091554260a01b6001841460e11b1717611252610b10565b600083815260049190910160205260408120919091556001600160a01b0384169083830190839083907fddf252ad1be2c89b69c2b068fc378daa952ba7f163c4a11628f55a4df523b3ef8180a4600183015b8181146112dc57808360007fddf252ad1be2c89b69c2b068fc378daa952ba7f163c4a11628f55a4df523b3ef600080a46001016112a4565b50816000036112fd57604051622e076360e81b815260040160405180910390fd5b80611306610b10565b555061072c9050565b6001600160e01b0319811660009081527f716fbddc818ce773c0a312622f0a1f213896c1b4e76e60d0305e93981329ed95602052604090205460ff16151560011461139c576001600160e01b0319811660009081527f716fbddc818ce773c0a312622f0a1f213896c1b4e76e60d0305e93981329ed9560205260409020805460ff191660011790556113b5565b604051637967f77d60e11b815260040160405180910390fd5b6040516001600160e01b03198216907f78f84e5b1c5c05be2b5ad3800781dd404d6d6c6302bc755c0fe20f58a33a7f2290600090a250565b806113f6610b10565b600201906104a390826118eb565b8061140d610b10565b600301906104a390826118eb565b634e487b7160e01b600052604160045260246000fd5b600067ffffffffffffffff8084111561144c5761144c61141b565b604051601f8501601f19908116603f011681019082821181831017156114745761147461141b565b8160405280935085815286868601111561148d57600080fd5b858560208301376000602087830101525050509392505050565b600082601f8301126114b857600080fd5b6109d983833560208501611431565b80356001600160a01b0381168114610d0057600080fd5b600080600080608085870312156114f457600080fd5b843567ffffffffffffffff8082111561150c57600080fd5b611518888389016114a7565b9550602087013591508082111561152e57600080fd5b61153a888389016114a7565b9450604087013591508082111561155057600080fd5b5061155d878288016114a7565b92505061156c606086016114c7565b905092959194509250565b60005b8381101561159257818101518382015260200161157a565b50506000910152565b600081518084526115b3816020860160208601611577565b601f01601f19169290920160200192915050565b6020815260006109d9602083018461159b565b6000602082840312156115ec57600080fd5b5035919050565b6000806040838503121561160657600080fd5b61160f836114c7565b946020939093013593505050565b6000806040838503121561163057600080fd5b823567ffffffffffffffff8082111561164857600080fd5b611654868387016114a7565b9350602085013591508082111561166a57600080fd5b50611677858286016114a7565b9150509250929050565b60008060006060848603121561169657600080fd5b61169f846114c7565b92506116ad602085016114c7565b9150604084013590509250925092565b6000602082840312156116cf57600080fd5b6109d9826114c7565b600080604083850312156116eb57600080fd5b6116f4836114c7565b91506020830135801515811461170957600080fd5b809150509250929050565b602081526000825160a0602084015261173060c084018261159b565b90506020840151601f198085840301604086015261174e838361159b565b925060408601516060860152606086015191508085840301608086015250611776828261159b565b915050608084015160a08401528091505092915050565b600080600080608085870312156117a357600080fd5b6117ac856114c7565b93506117ba602086016114c7565b925060408501359150606085013567ffffffffffffffff8111156117dd57600080fd5b8501601f810187136117ee57600080fd5b6117fd87823560208401611431565b91505092959194509250565b6000806040838503121561181c57600080fd5b611825836114c7565b9150611833602084016114c7565b90509250929050565b600181811c9082168061185057607f821691505b60208210810361187057634e487b7160e01b600052602260045260246000fd5b50919050565b60008351611888818460208801611577565b83519083019061189c818360208801611577565b01949350505050565b601f82111561072c57600081815260208120601f850160051c810160208610156118cc5750805b601f850160051c820191505b81811015610709578281556001016118d8565b815167ffffffffffffffff8111156119055761190561141b565b61191981611913845461183c565b846118a5565b602080601f83116001811461194e57600084156119365750858301515b600019600386901b1c1916600185901b178555610709565b600085815260208120601f198616915b8281101561197d5788860151825594840194600190910190840161195e565b508582101561199b5787850151600019600388901b60f8161c191681555b5050505050600190811b01905550565b6001600160a01b03858116825284166020820152604081018390526080606082018190526000906119de9083018461159b565b9695505050505050565b6000602082840312156119fa57600080fd5b81516001600160e01b0319811681146109d957600080fdfe29fd831c424d24cd5e9cb3bb2c716700fad0c388fe4c8545bfa7e16ccd6601d5",
    "linkReferences": {}
  },
  "methodIdentifiers": {
    "__TownOwner__init(string,string)": "11c6ca8e",
    "approve(address,uint256)": "095ea7b3",
    "balanceOf(address)": "70a08231",
    "getApproved(uint256)": "081812fc",
    "getTownInfo(address)": "ac9207f4",
    "isApprovedForAll(address,address)": "e985e9c5",
    "mintTown(string,string,string,address)": "06252808",
    "name()": "06fdde03",
    "nextTokenId()": "75794a3c",
    "ownerOf(uint256)": "6352211e",
    "safeTransferFrom(address,address,uint256)": "42842e0e",
    "safeTransferFrom(address,address,uint256,bytes)": "b88d4fde",
    "setApprovalForAll(address,bool)": "a22cb465",
    "setFactory(address)": "5bb47808",
    "symbol()": "95d89b41",
    "tokenURI(uint256)": "c87b56dd",
    "totalSupply()": "18160ddd",
    "transferFrom(address,address,uint256)": "23b872dd"
  },
  "id": 149
}