{
  "abi": [
    {
      "inputs": [
        {
          "internalType": "string",
          "name": "_name",
          "type": "string"
        },
        {
          "internalType": "string",
          "name": "_symbol",
          "type": "string"
        },
        {
          "internalType": "address",
          "name": "_royaltyReceiver",
          "type": "address"
        },
        {
          "internalType": "uint256",
          "name": "_royaltyAmount",
          "type": "uint256"
        }
      ],
      "stateMutability": "nonpayable",
      "type": "constructor"
    },
    {
      "inputs": [],
      "name": "ApprovalCallerNotOwnerNorApproved",
      "type": "error"
    },
    {
      "inputs": [],
      "name": "ApprovalQueryForNonexistentToken",
      "type": "error"
    },
    {
      "inputs": [],
      "name": "BalanceQueryForZeroAddress",
      "type": "error"
    },
    {
      "inputs": [],
      "name": "MintERC2309QuantityExceedsLimit",
      "type": "error"
    },
    {
      "inputs": [],
      "name": "MintToZeroAddress",
      "type": "error"
    },
    {
      "inputs": [],
      "name": "MintZeroQuantity",
      "type": "error"
    },
    {
      "inputs": [
        {
          "internalType": "address",
          "name": "operator",
          "type": "address"
        }
      ],
      "name": "OperatorNotAllowed",
      "type": "error"
    },
    {
      "inputs": [],
      "name": "OwnerQueryForNonexistentToken",
      "type": "error"
    },
    {
      "inputs": [],
      "name": "OwnershipNotInitializedForExtraData",
      "type": "error"
    },
    {
      "inputs": [],
      "name": "TransferCallerNotOwnerNorApproved",
      "type": "error"
    },
    {
      "inputs": [],
      "name": "TransferFromIncorrectOwner",
      "type": "error"
    },
    {
      "inputs": [],
      "name": "TransferToNonERC721ReceiverImplementer",
      "type": "error"
    },
    {
      "inputs": [],
      "name": "TransferToZeroAddress",
      "type": "error"
    },
    {
      "inputs": [],
      "name": "URIQueryForNonexistentToken",
      "type": "error"
    },
    {
      "anonymous": false,
      "inputs": [
        {
          "indexed": true,
          "internalType": "address",
          "name": "owner",
          "type": "address"
        },
        {
          "indexed": true,
          "internalType": "address",
          "name": "approved",
          "type": "address"
        },
        {
          "indexed": true,
          "internalType": "uint256",
          "name": "tokenId",
          "type": "uint256"
        }
      ],
      "name": "Approval",
      "type": "event"
    },
    {
      "anonymous": false,
      "inputs": [
        {
          "indexed": true,
          "internalType": "address",
          "name": "owner",
          "type": "address"
        },
        {
          "indexed": true,
          "internalType": "address",
          "name": "operator",
          "type": "address"
        },
        {
          "indexed": false,
          "internalType": "bool",
          "name": "approved",
          "type": "bool"
        }
      ],
      "name": "ApprovalForAll",
      "type": "event"
    },
    {
      "anonymous": false,
      "inputs": [
        {
          "indexed": true,
          "internalType": "uint256",
          "name": "fromTokenId",
          "type": "uint256"
        },
        {
          "indexed": false,
          "internalType": "uint256",
          "name": "toTokenId",
          "type": "uint256"
        },
        {
          "indexed": true,
          "internalType": "address",
          "name": "from",
          "type": "address"
        },
        {
          "indexed": true,
          "internalType": "address",
          "name": "to",
          "type": "address"
        }
      ],
      "name": "ConsecutiveTransfer",
      "type": "event"
    },
    {
      "anonymous": false,
      "inputs": [
        {
          "indexed": false,
          "internalType": "string",
          "name": "prevURI",
          "type": "string"
        },
        {
          "indexed": false,
          "internalType": "string",
          "name": "newURI",
          "type": "string"
        }
      ],
      "name": "ContractURIUpdated",
      "type": "event"
    },
    {
      "anonymous": false,
      "inputs": [
        {
          "indexed": true,
          "internalType": "address",
          "name": "_receiver",
          "type": "address"
        },
        {
          "indexed": false,
          "internalType": "uint256",
          "name": "_amount",
          "type": "uint256"
        }
      ],
      "name": "DefaultRoyalty",
      "type": "event"
    },
    {
      "anonymous": false,
      "inputs": [
        {
          "indexed": true,
          "internalType": "address",
          "name": "previousOwner",
          "type": "address"
        },
        {
          "indexed": true,
          "internalType": "address",
          "name": "newOwner",
          "type": "address"
        }
      ],
      "name": "OwnershipTransferred",
      "type": "event"
    },
    {
      "anonymous": false,
      "inputs": [
        {
          "indexed": true,
          "internalType": "uint256",
          "name": "_tokenId",
          "type": "uint256"
        },
        {
          "indexed": true,
          "internalType": "address",
          "name": "_receiver",
          "type": "address"
        },
        {
          "indexed": false,
          "internalType": "uint256",
          "name": "_amount",
          "type": "uint256"
        }
      ],
      "name": "RoyaltyForToken",
      "type": "event"
    },
    {
      "anonymous": false,
      "inputs": [
        {
          "indexed": true,
          "internalType": "address",
          "name": "from",
          "type": "address"
        },
        {
          "indexed": true,
          "internalType": "address",
          "name": "to",
          "type": "address"
        },
        {
          "indexed": true,
          "internalType": "uint256",
          "name": "tokenId",
          "type": "uint256"
        }
      ],
      "name": "Transfer",
      "type": "event"
    },
    {
      "inputs": [],
      "name": "FACTORY_ADDRESS",
      "outputs": [
        {
          "internalType": "address",
          "name": "",
          "type": "address"
        }
      ],
      "stateMutability": "view",
      "type": "function"
    },
    {
      "inputs": [],
      "name": "OPERATOR_FILTER_REGISTRY",
      "outputs": [
        {
          "internalType": "contract IOperatorFilterRegistry",
          "name": "",
          "type": "address"
        }
      ],
      "stateMutability": "view",
      "type": "function"
    },
    {
      "inputs": [
        {
          "internalType": "address",
          "name": "operator",
          "type": "address"
        },
        {
          "internalType": "uint256",
          "name": "tokenId",
          "type": "uint256"
        }
      ],
      "name": "approve",
      "outputs": [],
      "stateMutability": "payable",
      "type": "function"
    },
    {
      "inputs": [
        {
          "internalType": "address",
          "name": "owner",
          "type": "address"
        }
      ],
      "name": "balanceOf",
      "outputs": [
        {
          "internalType": "uint256",
          "name": "",
          "type": "uint256"
        }
      ],
      "stateMutability": "view",
      "type": "function"
    },
    {
      "inputs": [
        {
          "internalType": "address",
          "name": "_to",
          "type": "address"
        },
        {
          "internalType": "uint256",
          "name": "_quantity",
          "type": "uint256"
        },
        {
          "internalType": "string",
          "name": "_baseURI",
          "type": "string"
        },
        {
          "internalType": "bytes",
          "name": "_data",
          "type": "bytes"
        }
      ],
      "name": "batchMintTo",
      "outputs": [],
      "stateMutability": "nonpayable",
      "type": "function"
    },
    {
      "inputs": [
        {
          "internalType": "uint256",
          "name": "_tokenId",
          "type": "uint256"
        }
      ],
      "name": "burn",
      "outputs": [],
      "stateMutability": "nonpayable",
      "type": "function"
    },
    {
      "inputs": [],
      "name": "contractURI",
      "outputs": [
        {
          "internalType": "string",
          "name": "",
          "type": "string"
        }
      ],
      "stateMutability": "view",
      "type": "function"
    },
    {
      "inputs": [
        {
          "internalType": "uint256",
          "name": "tokenId",
          "type": "uint256"
        }
      ],
      "name": "getApproved",
      "outputs": [
        {
          "internalType": "address",
          "name": "",
          "type": "address"
        }
      ],
      "stateMutability": "view",
      "type": "function"
    },
    {
      "inputs": [],
      "name": "getBaseURICount",
      "outputs": [
        {
          "internalType": "uint256",
          "name": "",
          "type": "uint256"
        }
      ],
      "stateMutability": "view",
      "type": "function"
    },
    {
      "inputs": [
        {
          "internalType": "uint256",
          "name": "_index",
          "type": "uint256"
        }
      ],
      "name": "getBatchIdAtIndex",
      "outputs": [
        {
          "internalType": "uint256",
          "name": "",
          "type": "uint256"
        }
      ],
      "stateMutability": "view",
      "type": "function"
    },
    {
      "inputs": [],
      "name": "getDefaultRoyaltyInfo",
      "outputs": [
        {
          "components": [
            {
              "internalType": "address",
              "name": "receiver",
              "type": "address"
            },
            {
              "internalType": "uint256",
              "name": "amount",
              "type": "uint256"
            }
          ],
          "internalType": "struct IRoyalty.RoyaltyInfo",
          "name": "_royalty",
          "type": "tuple"
        }
      ],
      "stateMutability": "view",
      "type": "function"
    },
    {
      "inputs": [
        {
          "internalType": "uint256",
          "name": "_tokenId",
          "type": "uint256"
        }
      ],
      "name": "getRoyaltyInfoForToken",
      "outputs": [
        {
          "components": [
            {
              "internalType": "address",
              "name": "receiver",
              "type": "address"
            },
            {
              "internalType": "uint256",
              "name": "amount",
              "type": "uint256"
            }
          ],
          "internalType": "struct IRoyalty.RoyaltyInfo",
          "name": "_royalty",
          "type": "tuple"
        }
      ],
      "stateMutability": "view",
      "type": "function"
    },
    {
      "inputs": [
        {
          "internalType": "address",
          "name": "owner",
          "type": "address"
        },
        {
          "internalType": "address",
          "name": "operator",
          "type": "address"
        }
      ],
      "name": "isApprovedForAll",
      "outputs": [
        {
          "internalType": "bool",
          "name": "",
          "type": "bool"
        }
      ],
      "stateMutability": "view",
      "type": "function"
    },
    {
      "inputs": [
        {
          "internalType": "address",
          "name": "_spender",
          "type": "address"
        },
        {
          "internalType": "uint256",
          "name": "_tokenId",
          "type": "uint256"
        }
      ],
      "name": "isApprovedOrOwner",
      "outputs": [
        {
          "internalType": "bool",
          "name": "isApprovedOrOwnerOf",
          "type": "bool"
        }
      ],
      "stateMutability": "view",
      "type": "function"
    },
    {
      "inputs": [
        {
          "internalType": "address",
          "name": "_to",
          "type": "address"
        },
        {
          "internalType": "string",
          "name": "_tokenURI",
          "type": "string"
        }
      ],
      "name": "mintTo",
      "outputs": [],
      "stateMutability": "nonpayable",
      "type": "function"
    },
    {
      "inputs": [
        {
          "internalType": "bytes[]",
          "name": "data",
          "type": "bytes[]"
        }
      ],
      "name": "multicall",
      "outputs": [
        {
          "internalType": "bytes[]",
          "name": "results",
          "type": "bytes[]"
        }
      ],
      "stateMutability": "nonpayable",
      "type": "function"
    },
    {
      "inputs": [],
      "name": "name",
      "outputs": [
        {
          "internalType": "string",
          "name": "",
          "type": "string"
        }
      ],
      "stateMutability": "view",
      "type": "function"
    },
    {
      "inputs": [],
      "name": "nextTokenId",
      "outputs": [
        {
          "internalType": "uint256",
          "name": "",
          "type": "uint256"
        }
      ],
      "stateMutability": "view",
      "type": "function"
    },
    {
      "inputs": [],
      "name": "owner",
      "outputs": [
        {
          "internalType": "address",
          "name": "",
          "type": "address"
        }
      ],
      "stateMutability": "view",
      "type": "function"
    },
    {
      "inputs": [
        {
          "internalType": "uint256",
          "name": "tokenId",
          "type": "uint256"
        }
      ],
      "name": "ownerOf",
      "outputs": [
        {
          "internalType": "address",
          "name": "",
          "type": "address"
        }
      ],
      "stateMutability": "view",
      "type": "function"
    },
    {
      "inputs": [],
      "name": "renounceOwnership",
      "outputs": [],
      "stateMutability": "nonpayable",
      "type": "function"
    },
    {
      "inputs": [
        {
          "internalType": "uint256",
          "name": "tokenId",
          "type": "uint256"
        },
        {
          "internalType": "uint256",
          "name": "salePrice",
          "type": "uint256"
        }
      ],
      "name": "royaltyInfo",
      "outputs": [
        {
          "internalType": "address",
          "name": "",
          "type": "address"
        },
        {
          "internalType": "uint256",
          "name": "",
          "type": "uint256"
        }
      ],
      "stateMutability": "view",
      "type": "function"
    },
    {
      "inputs": [
        {
          "internalType": "address",
          "name": "from",
          "type": "address"
        },
        {
          "internalType": "address",
          "name": "to",
          "type": "address"
        },
        {
          "internalType": "uint256",
          "name": "tokenId",
          "type": "uint256"
        }
      ],
      "name": "safeTransferFrom",
      "outputs": [],
      "stateMutability": "payable",
      "type": "function"
    },
    {
      "inputs": [
        {
          "internalType": "address",
          "name": "from",
          "type": "address"
        },
        {
          "internalType": "address",
          "name": "to",
          "type": "address"
        },
        {
          "internalType": "uint256",
          "name": "tokenId",
          "type": "uint256"
        },
        {
          "internalType": "bytes",
          "name": "data",
          "type": "bytes"
        }
      ],
      "name": "safeTransferFrom",
      "outputs": [],
      "stateMutability": "payable",
      "type": "function"
    },
    {
      "inputs": [
        {
          "internalType": "address",
          "name": "operator",
          "type": "address"
        },
        {
          "internalType": "bool",
          "name": "approved",
          "type": "bool"
        }
      ],
      "name": "setApprovalForAll",
      "outputs": [],
      "stateMutability": "nonpayable",
      "type": "function"
    },
    {
      "inputs": [
        {
          "internalType": "string",
          "name": "_uri",
          "type": "string"
        }
      ],
      "name": "setContractURI",
      "outputs": [],
      "stateMutability": "nonpayable",
      "type": "function"
    },
    {
      "inputs": [
        {
          "internalType": "address",
          "name": "_recipient",
          "type": "address"
        },
        {
          "internalType": "uint256",
          "name": "_amount",
          "type": "uint256"
        }
      ],
      "name": "setDefaultRoyaltyInfo",
      "outputs": [],
      "stateMutability": "nonpayable",
      "type": "function"
    },
    {
      "inputs": [
        {
          "internalType": "address",
          "name": "_factory",
          "type": "address"
        }
      ],
      "name": "setFactory",
      "outputs": [],
      "stateMutability": "nonpayable",
      "type": "function"
    },
    {
      "inputs": [
        {
          "internalType": "uint256",
          "name": "_tokenId",
          "type": "uint256"
        },
        {
          "internalType": "address",
          "name": "_recipient",
          "type": "address"
        },
        {
          "internalType": "uint256",
          "name": "_amount",
          "type": "uint256"
        }
      ],
      "name": "setRoyaltyInfoForToken",
      "outputs": [],
      "stateMutability": "nonpayable",
      "type": "function"
    },
    {
      "inputs": [
        {
          "internalType": "uint256",
          "name": "_tokenId",
          "type": "uint256"
        },
        {
          "internalType": "string",
          "name": "_tokenURI",
          "type": "string"
        }
      ],
      "name": "setTokenURI",
      "outputs": [],
      "stateMutability": "nonpayable",
      "type": "function"
    },
    {
      "inputs": [
        {
          "internalType": "bytes4",
          "name": "interfaceId",
          "type": "bytes4"
        }
      ],
      "name": "supportsInterface",
      "outputs": [
        {
          "internalType": "bool",
          "name": "",
          "type": "bool"
        }
      ],
      "stateMutability": "view",
      "type": "function"
    },
    {
      "inputs": [],
      "name": "symbol",
      "outputs": [
        {
          "internalType": "string",
          "name": "",
          "type": "string"
        }
      ],
      "stateMutability": "view",
      "type": "function"
    },
    {
      "inputs": [
        {
          "internalType": "uint256",
          "name": "_tokenId",
          "type": "uint256"
        }
      ],
      "name": "tokenURI",
      "outputs": [
        {
          "internalType": "string",
          "name": "",
          "type": "string"
        }
      ],
      "stateMutability": "view",
      "type": "function"
    },
    {
      "inputs": [],
      "name": "totalSupply",
      "outputs": [
        {
          "internalType": "uint256",
          "name": "",
          "type": "uint256"
        }
      ],
      "stateMutability": "view",
      "type": "function"
    },
    {
      "inputs": [
        {
          "internalType": "address",
          "name": "from",
          "type": "address"
        },
        {
          "internalType": "address",
          "name": "to",
          "type": "address"
        },
        {
          "internalType": "uint256",
          "name": "tokenId",
          "type": "uint256"
        }
      ],
      "name": "transferFrom",
      "outputs": [],
      "stateMutability": "payable",
      "type": "function"
    },
    {
      "inputs": [
        {
          "internalType": "address",
          "name": "newOwner",
          "type": "address"
        }
      ],
      "name": "transferOwnership",
      "outputs": [],
      "stateMutability": "nonpayable",
      "type": "function"
    }
  ],
  "bytecode": {
    "object": "0x60806040523480156200001157600080fd5b5060405162002fd638038062002fd6833981016040819052620000349162000425565b83838383733cc6cdda760b79bafa08df41ecfa224f810dceb66001858560026200005f838262000547565b5060036200006e828262000547565b505060008055506200008033620001e2565b6daaeb6d7670e522a718067333cd4e3b15620001c55780156200011357604051633e9f1edf60e11b81523060048201526001600160a01b03831660248201526daaeb6d7670e522a718067333cd4e90637d3e3dbe906044015b600060405180830381600087803b158015620000f457600080fd5b505af115801562000109573d6000803e3d6000fd5b50505050620001c5565b6001600160a01b03821615620001645760405163a0af290360e01b81523060048201526001600160a01b03831660248201526daaeb6d7670e522a718067333cd4e9063a0af290390604401620000d9565b604051632210724360e11b81523060048201526daaeb6d7670e522a718067333cd4e90634420e48690602401600060405180830381600087803b158015620001ab57600080fd5b505af1158015620001c0573d6000803e3d6000fd5b505050505b50620001d49050828262000234565b505050505050505062000613565b600980546001600160a01b038381166001600160a01b0319831681179093556040519116919082907f8be0079c531659141344cd1fd0a4f28419497f9722a3daafe3b4186f6b6457e090600090a35050565b6127108111156200029f5760405162461bcd60e51b815260206004820152602a60248201527f526f79616c74793a20726f79616c7479206665652077696c6c206578636565646044820152692073616c65507269636560b01b60648201526084015b60405180910390fd5b6001600160a01b038216620002f75760405162461bcd60e51b815260206004820152601960248201527f526f79616c74793a20696e76616c696420726563656976657200000000000000604482015260640162000296565b6040805180820182526001600160a01b0384168082526020918201849052600a80546001600160a01b03191682179055600b84905591518381527f90d7ec04bcb8978719414f82e52e4cb651db41d0e6f8cea6118c2191e6183adb910160405180910390a25050565b634e487b7160e01b600052604160045260246000fd5b600082601f8301126200038857600080fd5b81516001600160401b0380821115620003a557620003a562000360565b604051601f8301601f19908116603f01168101908282118183101715620003d057620003d062000360565b81604052838152602092508683858801011115620003ed57600080fd5b600091505b83821015620004115785820183015181830184015290820190620003f2565b600093810190920192909252949350505050565b600080600080608085870312156200043c57600080fd5b84516001600160401b03808211156200045457600080fd5b620004628883890162000376565b955060208701519150808211156200047957600080fd5b50620004888782880162000376565b604087015190945090506001600160a01b0381168114620004a857600080fd5b6060959095015193969295505050565b600181811c90821680620004cd57607f821691505b602082108103620004ee57634e487b7160e01b600052602260045260246000fd5b50919050565b601f8211156200054257600081815260208120601f850160051c810160208610156200051d5750805b601f850160051c820191505b818110156200053e5782815560010162000529565b5050505b505050565b81516001600160401b0381111562000563576200056362000360565b6200057b81620005748454620004b8565b84620004f4565b602080601f831160018114620005b357600084156200059a5750858301515b600019600386901b1c1916600185901b1785556200053e565b600085815260208120601f198616915b82811015620005e457888601518255948401946001909101908401620005c3565b5085821015620006035787850151600019600388901b60f8161c191681555b5050505050600190811b01905550565b6129b380620006236000396000f3fe60806040526004361061020e5760003560e01c806363b45e2d116101185780639bcf7a15116100a0578063b88d4fde1161006f578063b88d4fde14610647578063c87b56dd1461065a578063e8a3d4851461067a578063e985e9c51461068f578063f2fde38b146106d857600080fd5b80639bcf7a1514610597578063a22cb465146105b7578063ac9650d8146105d7578063b24f2d391461060457600080fd5b806375794a3c116100e757806375794a3c1461050f5780638823151b146105245780638da5cb5b14610544578063938e3d7b1461056257806395d89b411461058257600080fd5b806363b45e2d146104a557806370a08231146104ba578063715018a6146104da578063754a81d9146104ef57600080fd5b80632a55205a1161019b578063430c20811161016a578063430c2081146103e15780634cc157df146104015780635bb4780814610445578063600dd5ea146104655780636352211e1461048557600080fd5b80632a55205a1461034d57806341f434341461038c57806342842e0e146103ae57806342966c68146103c157600080fd5b8063095ea7b3116101e2578063095ea7b3146102c4578063162094c4146102d757806318160ddd146102f757806323b872dd1461031a5780632419f51b1461032d57600080fd5b806275a3171461021357806301ffc9a71461023557806306fdde031461026a578063081812fc1461028c575b600080fd5b34801561021f57600080fd5b5061023361022e3660046121cd565b6106f8565b005b34801561024157600080fd5b50610255610250366004612231565b610772565b60405190151581526020015b60405180910390f35b34801561027657600080fd5b5061027f6107df565b604051610261919061229e565b34801561029857600080fd5b506102ac6102a73660046122b1565b610871565b6040516001600160a01b039091168152602001610261565b6102336102d23660046122ca565b6108b5565b3480156102e357600080fd5b506102336102f23660046122f4565b6108ce565b34801561030357600080fd5b50600154600054035b604051908152602001610261565b610233610328366004612325565b6108e0565b34801561033957600080fd5b5061030c6103483660046122b1565b61090b565b34801561035957600080fd5b5061036d610368366004612361565b610998565b604080516001600160a01b039093168352602083019190915201610261565b34801561039857600080fd5b506102ac6daaeb6d7670e522a718067333cd4e81565b6102336103bc366004612325565b6109e5565b3480156103cd57600080fd5b506102336103dc3660046122b1565b610a0a565b3480156103ed57600080fd5b506102556103fc3660046122ca565b610a18565b34801561040d57600080fd5b5061042161041c3660046122b1565b610aa0565b6040805182516001600160a01b031681526020928301519281019290925201610261565b34801561045157600080fd5b50610233610460366004612383565b610b1b565b34801561047157600080fd5b506102336104803660046122ca565b610b45565b34801561049157600080fd5b506102ac6104a03660046122b1565b610b9d565b3480156104b157600080fd5b50600d5461030c565b3480156104c657600080fd5b5061030c6104d5366004612383565b610ba8565b3480156104e657600080fd5b50610233610bf7565b3480156104fb57600080fd5b5061023361050a36600461239e565b610c0b565b34801561051b57600080fd5b5060005461030c565b34801561053057600080fd5b506010546102ac906001600160a01b031681565b34801561055057600080fd5b506009546001600160a01b03166102ac565b34801561056e57600080fd5b5061023361057d36600461241c565b610c7f565b34801561058e57600080fd5b5061027f610d12565b3480156105a357600080fd5b506102336105b236600461248e565b610d21565b3480156105c357600080fd5b506102336105d23660046124c1565b610d7a565b3480156105e357600080fd5b506105f76105f23660046124f8565b610d8e565b604051610261919061255b565b34801561061057600080fd5b5060408051808201825260008082526020918201528151808301909252600a546001600160a01b03168252600b5490820152610421565b6102336106553660046125bd565b610ead565b34801561066657600080fd5b5061027f6106753660046122b1565b610eda565b34801561068657600080fd5b5061027f610fc8565b34801561069b57600080fd5b506102556106aa366004612619565b6001600160a01b03918216600090815260076020908152604080832093909416825291909152205460ff1690565b3480156106e457600080fd5b506102336106f3366004612383565b611056565b6107006110cc565b6107515760405162461bcd60e51b815260206004820152601e60248201527f455243373231426173653a2063616c6c65722063616e6e6f74206d696e74000060448201526064015b60405180910390fd5b61076361075d60005490565b826110ec565b61076e82600161116c565b5050565b60006301ffc9a760e01b6001600160e01b0319831614806107a357506380ac58cd60e01b6001600160e01b03198316145b806107be5750635b5e139f60e01b6001600160e01b03198316145b806107d957506001600160e01b0319821663152a902d60e11b145b92915050565b6060600280546107ee9061264c565b80601f016020809104026020016040519081016040528092919081815260200182805461081a9061264c565b80156108675780601f1061083c57610100808354040283529160200191610867565b820191906000526020600020905b81548152906001019060200180831161084a57829003601f168201915b5050505050905090565b600061087c82611186565b610899576040516333d1c03960e21b815260040160405180910390fd5b506000908152600660205260409020546001600160a01b031690565b816108bf816111ad565b6108c98383611266565b505050565b6108d6611306565b61076e82826110ec565b826001600160a01b03811633146108fa576108fa336111ad565b610905848484611360565b50505050565b6000610916600d5490565b82106109735760405162461bcd60e51b815260206004820152602660248201527f42617463684d696e744d657461646174613a20696e646578206f7574206f6620604482015265626f756e647360d01b6064820152608401610748565b600d828154811061098657610986612686565b90600052602060002001549050919050565b60008060006109a685610aa0565b905060006127106bffffffffffffffffffffffff168260200151866109cb91906126b2565b6109d591906126c9565b91519350909150505b9250929050565b826001600160a01b03811633146109ff576109ff336111ad565b6109058484846114f1565b610a1581600161150c565b50565b6000610a2382610b9d565b6001600160a01b0316836001600160a01b03161480610a5b5750610a4682610871565b6001600160a01b0316836001600160a01b0316145b80610a995750610a99610a6d83610b9d565b6001600160a01b0390811660009081526007602090815260408083209388168352929052205460ff1690565b9392505050565b60408051808201909152600080825260208201526000828152600c6020908152604091829020825180840190935280546001600160a01b03168084526001909101549183019190915215610af45780610a99565b60408051808201909152600a546001600160a01b03168152600b5460208201529392505050565b610b23611306565b601080546001600160a01b0319166001600160a01b0392909216919091179055565b610b4d611644565b610b935760405162461bcd60e51b8152602060048201526017602482015276149bde585b1d1e4e881b9bdd08185d5d1a1bdc9a5e9959604a1b6044820152606401610748565b61076e8282611667565b60006107d982611744565b60006001600160a01b038216610bd1576040516323d3ad8160e21b815260040160405180910390fd5b506001600160a01b031660009081526005602052604090205467ffffffffffffffff1690565b610bff611306565b610c0960006117ab565b565b610c136110cc565b610c5f5760405162461bcd60e51b815260206004820152601e60248201527f455243373231426173653a2063616c6c65722063616e6e6f74206d696e7400006044820152606401610748565b610c72610c6b60005490565b84846117fd565b5050610905848483611856565b610c87611644565b610cd35760405162461bcd60e51b815260206004820152601860248201527f4d657461646174613a206e6f7420617574686f72697a656400000000000000006044820152606401610748565b61076e82828080601f0160208091040260200160405190810160405280939291908181526020018383808284376000920191909152506118bc92505050565b6060600380546107ee9061264c565b610d29611644565b610d6f5760405162461bcd60e51b8152602060048201526017602482015276149bde585b1d1e4e881b9bdd08185d5d1a1bdc9a5e9959604a1b6044820152606401610748565b6108c9838383611998565b81610d84816111ad565b6108c98383611a91565b60608167ffffffffffffffff811115610da957610da961212a565b604051908082528060200260200182016040528015610ddc57816020015b6060815260200190600190039081610dc75790505b50905060005b82811015610ea65760008030868685818110610e0057610e00612686565b9050602002810190610e1291906126eb565b604051610e20929190612732565b600060405180830381855af49150503d8060008114610e5b576040519150601f19603f3d011682016040523d82523d6000602084013e610e60565b606091505b509150915081610e7357610e7381611afd565b80848481518110610e8657610e86612686565b602002602001018190525050508080610e9e90612742565b915050610de2565b5092915050565b836001600160a01b0381163314610ec757610ec7336111ad565b610ed385858585611bca565b5050505050565b6000818152600f6020526040812080546060929190610ef89061264c565b80601f0160208091040260200160405190810160405280929190818152602001828054610f249061264c565b8015610f715780601f10610f4657610100808354040283529160200191610f71565b820191906000526020600020905b815481529060010190602001808311610f5457829003601f168201915b50505050509050600081511115610f885792915050565b6000610f9384611c0e565b905080610f9f85611dc6565b604051602001610fb092919061275b565b60405160208183030381529060405292505050919050565b60088054610fd59061264c565b80601f01602080910402602001604051908101604052809291908181526020018280546110019061264c565b801561104e5780601f106110235761010080835404028352916020019161104e565b820191906000526020600020905b81548152906001019060200180831161103157829003601f168201915b505050505081565b61105e611306565b6001600160a01b0381166110c35760405162461bcd60e51b815260206004820152602660248201527f4f776e61626c653a206e6577206f776e657220697320746865207a65726f206160448201526564647265737360d01b6064820152608401610748565b610a15816117ab565b6010546000906001600160a01b0316335b6001600160a01b031614905090565b6000828152600f6020526040902080546111059061264c565b1590506111545760405162461bcd60e51b815260206004820181905260248201527f455243373231426173653a20746f6b656e55524920616c7265616479207365746044820152606401610748565b6000828152600f602052604090206108c982826127d0565b61076e828260405180602001604052806000815250611856565b60008054821080156107d9575050600090815260046020526040902054600160e01b161590565b6daaeb6d7670e522a718067333cd4e3b15610a1557604051633185c44d60e21b81523060048201526001600160a01b03821660248201526daaeb6d7670e522a718067333cd4e9063c617113490604401602060405180830381865afa15801561121a573d6000803e3d6000fd5b505050506040513d601f19601f8201168201806040525081019061123e9190612890565b610a1557604051633b79c77360e21b81526001600160a01b0382166004820152602401610748565b600061127182610b9d565b9050336001600160a01b038216146112aa5761128d81336106aa565b6112aa576040516367d9dca160e11b815260040160405180910390fd5b60008281526006602052604080822080546001600160a01b0319166001600160a01b0387811691821790925591518593918516917f8c5be1e5ebec7d5bd14f71427d1e84f3dd0314c0f7b2291e5b200ac8c7c3b92591a4505050565b6009546001600160a01b03163314610c095760405162461bcd60e51b815260206004820181905260248201527f4f776e61626c653a2063616c6c6572206973206e6f7420746865206f776e65726044820152606401610748565b600061136b82611744565b9050836001600160a01b0316816001600160a01b03161461139e5760405162a1148160e81b815260040160405180910390fd5b600082815260066020526040902080546113ca8187335b6001600160a01b039081169116811491141790565b6113f5576113d886336106aa565b6113f557604051632ce44b5f60e11b815260040160405180910390fd5b6001600160a01b03851661141c57604051633a954ecd60e21b815260040160405180910390fd5b801561142757600082555b6001600160a01b038681166000908152600560205260408082208054600019019055918716808252919020805460010190554260a01b17600160e11b17600085815260046020526040812091909155600160e11b841690036114b9576001840160008181526004602052604081205490036114b75760005481146114b75760008181526004602052604090208490555b505b83856001600160a01b0316876001600160a01b031660008051602061299383398151915260405160405180910390a45b505050505050565b6108c983838360405180602001604052806000815250610ead565b600061151783611744565b90508060008061153586600090815260066020526040902080549091565b9150915084156115755761154a8184336113b5565b6115755761155883336106aa565b61157557604051632ce44b5f60e11b815260040160405180910390fd5b801561158057600082555b6001600160a01b038316600081815260056020526040902080546fffffffffffffffffffffffffffffffff0190554260a01b17600360e01b17600087815260046020526040812091909155600160e11b8516900361160e5760018601600081815260046020526040812054900361160c57600054811461160c5760008181526004602052604090208590555b505b60405186906000906001600160a01b03861690600080516020612993833981519152908390a45050600180548101905550505050565b60006116586009546001600160a01b031690565b6001600160a01b0316336110dd565b6127108111156116895760405162461bcd60e51b8152600401610748906128ad565b6001600160a01b0382166116db5760405162461bcd60e51b81526020600482015260196024820152782937bcb0b63a3c9d1034b73b30b634b2103932b1b2b4bb32b960391b6044820152606401610748565b6040805180820182526001600160a01b0384168082526020918201849052600a80546001600160a01b03191682179055600b84905591518381527f90d7ec04bcb8978719414f82e52e4cb651db41d0e6f8cea6118c2191e6183adb910160405180910390a25050565b6000816000548110156117925760008181526004602052604081205490600160e01b82169003611790575b80600003610a9957506000190160008181526004602052604090205461176f565b505b604051636f96cda160e11b815260040160405180910390fd5b600980546001600160a01b038381166001600160a01b0319831681179093556040519116919082907f8be0079c531659141344cd1fd0a4f28419497f9722a3daafe3b4186f6b6457e090600090a35050565b60008061180a84866128f7565b600d80546001810182556000919091527fd7b6990105719101dabeb77144f2a3385c8033acd3af97e9423a695e81ad1eb501819055915081905061184e8184611e59565b935093915050565b6118608383611e71565b6001600160a01b0383163b156108c9576000548281035b61188a6000868380600101945086611f4b565b6118a7576040516368d2bf6b60e11b815260040160405180910390fd5b818110611877578160005414610ed357600080fd5b6000600880546118cb9061264c565b80601f01602080910402602001604051908101604052809291908181526020018280546118f79061264c565b80156119445780601f1061191957610100808354040283529160200191611944565b820191906000526020600020905b81548152906001019060200180831161192757829003601f168201915b50505050509050816008908161195a91906127d0565b507fc9c7c3fe08b88b4df9d4d47ef47d2c43d55c025a0ba88ca442580ed9e7348a16818360405161198c92919061290a565b60405180910390a15050565b6127108111156119ba5760405162461bcd60e51b8152600401610748906128ad565b6001600160a01b038216611a0c5760405162461bcd60e51b81526020600482015260196024820152782937bcb0b63a3c9d1034b73b30b634b2103932b1b2b4bb32b960391b6044820152606401610748565b6040805180820182526001600160a01b0384811680835260208084018681526000898152600c8352869020945185546001600160a01b031916941693909317845591516001909301929092559151838152909185917f7365cf4122f072a3365c20d54eff9b38d73c096c28e1892ec8f5b0e403a0f12d910160405180910390a3505050565b3360008181526007602090815260408083206001600160a01b03871680855290835292819020805460ff191686151590811790915590519081529192917f17307eab39ab6107e8899845ad3d59bd9653f200f220920489ca2b5937696c31910160405180910390a35050565b600481511015611b425760405162461bcd60e51b815260206004820152601060248201526f1d5b9a185b991b1959081c995d995c9d60821b6044820152606401610748565b602081015163b1b7848f60e01b6001600160e01b0319821601611bc157604080518082018252600e81526d70616e69636b65643a2030785f5f60901b602082018181526024860151600481811c600f908116603090810160081b9184160117909317909152925162461bcd60e51b81529192916107489184910161229e565b81518060208401fd5b611bd58484846108e0565b6001600160a01b0383163b1561090557611bf184848484611f4b565b610905576040516368d2bf6b60e11b815260040160405180910390fd5b60606000611c1b600d5490565b90506000600d805480602002602001604051908101604052809291908181526020018280548015611c6b57602002820191906000526020600020905b815481526020019060010190808311611c57575b5050505050905060005b82811015611d6f57818181518110611c8f57611c8f612686565b6020026020010151851015611d5d57600e6000838381518110611cb457611cb4612686565b602002602001015181526020019081526020016000208054611cd59061264c565b80601f0160208091040260200160405190810160405280929190818152602001828054611d019061264c565b8015611d4e5780601f10611d2357610100808354040283529160200191611d4e565b820191906000526020600020905b815481529060010190602001808311611d3157829003601f168201915b50505050509350505050919050565b80611d6781612742565b915050611c75565b5060405162461bcd60e51b815260206004820152602560248201527f42617463684d696e744d657461646174613a206261736520555249206e6f7420604482015264199bdd5b9960da1b6064820152608401610748565b60606000611dd383612036565b600101905060008167ffffffffffffffff811115611df357611df361212a565b6040519080825280601f01601f191660200182016040528015611e1d576020820181803683370190505b5090508181016020015b600019016f181899199a1a9b1b9c1cb0b131b232b360811b600a86061a8153600a8504945084611e2757509392505050565b6000828152600e602052604090206108c982826127d0565b6000805490829003611e965760405163b562e8dd60e01b815260040160405180910390fd5b6001600160a01b03831660008181526005602090815260408083208054680100000000000000018802019055848352600490915281206001851460e11b4260a01b178317905582840190839083906000805160206129938339815191528180a4600183015b818114611f215780836000600080516020612993833981519152600080a4600101611efb565b5081600003611f4257604051622e076360e81b815260040160405180910390fd5b60005550505050565b604051630a85bd0160e11b81526000906001600160a01b0385169063150b7a0290611f80903390899088908890600401612938565b6020604051808303816000875af1925050508015611fbb575060408051601f3d908101601f19168201909252611fb891810190612975565b60015b612019573d808015611fe9576040519150601f19603f3d011682016040523d82523d6000602084013e611fee565b606091505b508051600003612011576040516368d2bf6b60e11b815260040160405180910390fd5b805181602001fd5b6001600160e01b031916630a85bd0160e11b149050949350505050565b60008072184f03e93ff9f4daa797ed6e38ed64bf6a1f0160401b83106120755772184f03e93ff9f4daa797ed6e38ed64bf6a1f0160401b830492506040015b6d04ee2d6d415b85acef810000000083106120a1576d04ee2d6d415b85acef8100000000830492506020015b662386f26fc1000083106120bf57662386f26fc10000830492506010015b6305f5e10083106120d7576305f5e100830492506008015b61271083106120eb57612710830492506004015b606483106120fd576064830492506002015b600a83106107d95760010192915050565b80356001600160a01b038116811461212557600080fd5b919050565b634e487b7160e01b600052604160045260246000fd5b600082601f83011261215157600080fd5b813567ffffffffffffffff8082111561216c5761216c61212a565b604051601f8301601f19908116603f011681019082821181831017156121945761219461212a565b816040528381528660208588010111156121ad57600080fd5b836020870160208301376000602085830101528094505050505092915050565b600080604083850312156121e057600080fd5b6121e98361210e565b9150602083013567ffffffffffffffff81111561220557600080fd5b61221185828601612140565b9150509250929050565b6001600160e01b031981168114610a1557600080fd5b60006020828403121561224357600080fd5b8135610a998161221b565b60005b83811015612269578181015183820152602001612251565b50506000910152565b6000815180845261228a81602086016020860161224e565b601f01601f19169290920160200192915050565b602081526000610a996020830184612272565b6000602082840312156122c357600080fd5b5035919050565b600080604083850312156122dd57600080fd5b6122e68361210e565b946020939093013593505050565b6000806040838503121561230757600080fd5b82359150602083013567ffffffffffffffff81111561220557600080fd5b60008060006060848603121561233a57600080fd5b6123438461210e565b92506123516020850161210e565b9150604084013590509250925092565b6000806040838503121561237457600080fd5b50508035926020909101359150565b60006020828403121561239557600080fd5b610a998261210e565b600080600080608085870312156123b457600080fd5b6123bd8561210e565b935060208501359250604085013567ffffffffffffffff808211156123e157600080fd5b6123ed88838901612140565b9350606087013591508082111561240357600080fd5b5061241087828801612140565b91505092959194509250565b6000806020838503121561242f57600080fd5b823567ffffffffffffffff8082111561244757600080fd5b818501915085601f83011261245b57600080fd5b81358181111561246a57600080fd5b86602082850101111561247c57600080fd5b60209290920196919550909350505050565b6000806000606084860312156124a357600080fd5b833592506123516020850161210e565b8015158114610a1557600080fd5b600080604083850312156124d457600080fd5b6124dd8361210e565b915060208301356124ed816124b3565b809150509250929050565b6000806020838503121561250b57600080fd5b823567ffffffffffffffff8082111561252357600080fd5b818501915085601f83011261253757600080fd5b81358181111561254657600080fd5b8660208260051b850101111561247c57600080fd5b6000602080830181845280855180835260408601915060408160051b870101925083870160005b828110156125b057603f1988860301845261259e858351612272565b94509285019290850190600101612582565b5092979650505050505050565b600080600080608085870312156125d357600080fd5b6125dc8561210e565b93506125ea6020860161210e565b925060408501359150606085013567ffffffffffffffff81111561260d57600080fd5b61241087828801612140565b6000806040838503121561262c57600080fd5b6126358361210e565b91506126436020840161210e565b90509250929050565b600181811c9082168061266057607f821691505b60208210810361268057634e487b7160e01b600052602260045260246000fd5b50919050565b634e487b7160e01b600052603260045260246000fd5b634e487b7160e01b600052601160045260246000fd5b80820281158282048414176107d9576107d961269c565b6000826126e657634e487b7160e01b600052601260045260246000fd5b500490565b6000808335601e1984360301811261270257600080fd5b83018035915067ffffffffffffffff82111561271d57600080fd5b6020019150368190038213156109de57600080fd5b8183823760009101908152919050565b6000600182016127545761275461269c565b5060010190565b6000835161276d81846020880161224e565b83519083019061278181836020880161224e565b01949350505050565b601f8211156108c957600081815260208120601f850160051c810160208610156127b15750805b601f850160051c820191505b818110156114e9578281556001016127bd565b815167ffffffffffffffff8111156127ea576127ea61212a565b6127fe816127f8845461264c565b8461278a565b602080601f831160018114612833576000841561281b5750858301515b600019600386901b1c1916600185901b1785556114e9565b600085815260208120601f198616915b8281101561286257888601518255948401946001909101908401612843565b50858210156128805787850151600019600388901b60f8161c191681555b5050505050600190811b01905550565b6000602082840312156128a257600080fd5b8151610a99816124b3565b6020808252602a908201527f526f79616c74793a20726f79616c7479206665652077696c6c206578636565646040820152692073616c65507269636560b01b606082015260800190565b808201808211156107d9576107d961269c565b60408152600061291d6040830185612272565b828103602084015261292f8185612272565b95945050505050565b6001600160a01b038581168252841660208201526040810183905260806060820181905260009061296b90830184612272565b9695505050505050565b60006020828403121561298757600080fd5b8151610a998161221b56feddf252ad1be2c89b69c2b068fc378daa952ba7f163c4a11628f55a4df523b3ef",
    "linkReferences": {}
  },
  "methodIdentifiers": {
    "FACTORY_ADDRESS()": "8823151b",
    "OPERATOR_FILTER_REGISTRY()": "41f43434",
    "approve(address,uint256)": "095ea7b3",
    "balanceOf(address)": "70a08231",
    "batchMintTo(address,uint256,string,bytes)": "754a81d9",
    "burn(uint256)": "42966c68",
    "contractURI()": "e8a3d485",
    "getApproved(uint256)": "081812fc",
    "getBaseURICount()": "63b45e2d",
    "getBatchIdAtIndex(uint256)": "2419f51b",
    "getDefaultRoyaltyInfo()": "b24f2d39",
    "getRoyaltyInfoForToken(uint256)": "4cc157df",
    "isApprovedForAll(address,address)": "e985e9c5",
    "isApprovedOrOwner(address,uint256)": "430c2081",
    "mintTo(address,string)": "0075a317",
    "multicall(bytes[])": "ac9650d8",
    "name()": "06fdde03",
    "nextTokenId()": "75794a3c",
    "owner()": "8da5cb5b",
    "ownerOf(uint256)": "6352211e",
    "renounceOwnership()": "715018a6",
    "royaltyInfo(uint256,uint256)": "2a55205a",
    "safeTransferFrom(address,address,uint256)": "42842e0e",
    "safeTransferFrom(address,address,uint256,bytes)": "b88d4fde",
    "setApprovalForAll(address,bool)": "a22cb465",
    "setContractURI(string)": "938e3d7b",
    "setDefaultRoyaltyInfo(address,uint256)": "600dd5ea",
    "setFactory(address)": "5bb47808",
    "setRoyaltyInfoForToken(uint256,address,uint256)": "9bcf7a15",
    "setTokenURI(uint256,string)": "162094c4",
    "supportsInterface(bytes4)": "01ffc9a7",
    "symbol()": "95d89b41",
    "tokenURI(uint256)": "c87b56dd",
    "totalSupply()": "18160ddd",
    "transferFrom(address,address,uint256)": "23b872dd",
    "transferOwnership(address)": "f2fde38b"
  },
  "id": 108
}