{"abi":[{"type":"function","name":"__Architect_init","inputs":[{"name":"ownerImplementation","type":"address","internalType":"address"},{"name":"userEntitlementImplementation","type":"address","internalType":"contract IUserEntitlement"},{"name":"ruleEntitlementImplementation","type":"address","internalType":"contract IRuleEntitlement"},{"name":"walletLink","type":"address","internalType":"contract IWalletLink"}],"outputs":[],"stateMutability":"nonpayable"},{"type":"function","name":"createSpace","inputs":[{"name":"spaceInfo","type":"tuple","internalType":"struct IArchitectBase.SpaceInfo","components":[{"name":"id","type":"string","internalType":"string"},{"name":"name","type":"string","internalType":"string"},{"name":"uri","type":"string","internalType":"string"},{"name":"membership","type":"tuple","internalType":"struct IArchitectBase.Membership","components":[{"name":"settings","type":"tuple","internalType":"struct IMembershipBase.Membership","components":[{"name":"name","type":"string","internalType":"string"},{"name":"symbol","type":"string","internalType":"string"},{"name":"price","type":"uint256","internalType":"uint256"},{"name":"maxSupply","type":"uint256","internalType":"uint256"},{"name":"duration","type":"uint64","internalType":"uint64"},{"name":"currency","type":"address","internalType":"address"},{"name":"feeRecipient","type":"address","internalType":"address"},{"name":"freeAllocation","type":"uint256","internalType":"uint256"},{"name":"pricingModule","type":"address","internalType":"address"}]},{"name":"requirements","type":"tuple","internalType":"struct IArchitectBase.MembershipRequirements","components":[{"name":"everyone","type":"bool","internalType":"bool"},{"name":"users","type":"address[]","internalType":"address[]"},{"name":"ruleData","type":"tuple","internalType":"struct IRuleEntitlement.RuleData","components":[{"name":"operations","type":"tuple[]","internalType":"struct IRuleEntitlement.Operation[]","components":[{"name":"opType","type":"uint8","internalType":"enum IRuleEntitlement.CombinedOperationType"},{"name":"index","type":"uint8","internalType":"uint8"}]},{"name":"checkOperations","type":"tuple[]","internalType":"struct IRuleEntitlement.CheckOperation[]","components":[{"name":"opType","type":"uint8","internalType":"enum IRuleEntitlement.CheckOperationType"},{"name":"chainId","type":"uint256","internalType":"uint256"},{"name":"contractAddress","type":"address","internalType":"address"},{"name":"threshold","type":"uint256","internalType":"uint256"}]},{"name":"logicalOperations","type":"tuple[]","internalType":"struct IRuleEntitlement.LogicalOperation[]","components":[{"name":"logOpType","type":"uint8","internalType":"enum IRuleEntitlement.LogicalOperationType"},{"name":"leftOperationIndex","type":"uint8","internalType":"uint8"},{"name":"rightOperationIndex","type":"uint8","internalType":"uint8"}]}]}]},{"name":"permissions","type":"string[]","internalType":"string[]"}]},{"name":"channel","type":"tuple","internalType":"struct IArchitectBase.ChannelInfo","components":[{"name":"id","type":"string","internalType":"string"},{"name":"metadata","type":"string","internalType":"string"}]}]}],"outputs":[{"name":"","type":"address","internalType":"address"}],"stateMutability":"nonpayable"},{"type":"function","name":"getSpaceArchitectImplementations","inputs":[],"outputs":[{"name":"spaceToken","type":"address","internalType":"address"},{"name":"userEntitlementImplementation","type":"address","internalType":"contract IUserEntitlement"},{"name":"ruleEntitlementImplementation","type":"address","internalType":"contract IRuleEntitlement"},{"name":"walletLink","type":"address","internalType":"contract IWalletLink"}],"stateMutability":"view"},{"type":"function","name":"getSpaceById","inputs":[{"name":"spaceId","type":"string","internalType":"string"}],"outputs":[{"name":"","type":"address","internalType":"address"}],"stateMutability":"view"},{"type":"function","name":"getTokenIdBySpace","inputs":[{"name":"space","type":"address","internalType":"address"}],"outputs":[{"name":"","type":"uint256","internalType":"uint256"}],"stateMutability":"view"},{"type":"function","name":"getTokenIdBySpaceId","inputs":[{"name":"spaceId","type":"string","internalType":"string"}],"outputs":[{"name":"","type":"uint256","internalType":"uint256"}],"stateMutability":"view"},{"type":"function","name":"isSpace","inputs":[{"name":"space","type":"address","internalType":"address"}],"outputs":[{"name":"","type":"bool","internalType":"bool"}],"stateMutability":"view"},{"type":"function","name":"setSpaceArchitectImplementations","inputs":[{"name":"spaceToken","type":"address","internalType":"address"},{"name":"userEntitlementImplementation","type":"address","internalType":"contract IUserEntitlement"},{"name":"ruleEntitlementImplementation","type":"address","internalType":"contract IRuleEntitlement"},{"name":"walletLink","type":"address","internalType":"contract IWalletLink"}],"outputs":[],"stateMutability":"nonpayable"},{"type":"event","name":"Initialized","inputs":[{"name":"version","type":"uint32","indexed":false,"internalType":"uint32"}],"anonymous":false},{"type":"event","name":"InterfaceAdded","inputs":[{"name":"interfaceId","type":"bytes4","indexed":true,"internalType":"bytes4"}],"anonymous":false},{"type":"event","name":"InterfaceRemoved","inputs":[{"name":"interfaceId","type":"bytes4","indexed":true,"internalType":"bytes4"}],"anonymous":false},{"type":"event","name":"OwnershipTransferred","inputs":[{"name":"previousOwner","type":"address","indexed":true,"internalType":"address"},{"name":"newOwner","type":"address","indexed":true,"internalType":"address"}],"anonymous":false},{"type":"event","name":"Paused","inputs":[{"name":"account","type":"address","indexed":false,"internalType":"address"}],"anonymous":false},{"type":"event","name":"SpaceCreated","inputs":[{"name":"owner","type":"address","indexed":true,"internalType":"address"},{"name":"spaceId","type":"uint256","indexed":true,"internalType":"uint256"},{"name":"space","type":"address","indexed":false,"internalType":"address"}],"anonymous":false},{"type":"event","name":"Unpaused","inputs":[{"name":"account","type":"address","indexed":false,"internalType":"address"}],"anonymous":false},{"type":"error","name":"Architect__InvalidAddress","inputs":[]},{"type":"error","name":"Architect__InvalidNetworkId","inputs":[]},{"type":"error","name":"Architect__InvalidStringLength","inputs":[]},{"type":"error","name":"Architect__NotContract","inputs":[]},{"type":"error","name":"Factory__FailedDeployment","inputs":[]},{"type":"error","name":"Initializable_InInitializingState","inputs":[]},{"type":"error","name":"Initializable_NotInInitializingState","inputs":[]},{"type":"error","name":"Introspection_AlreadySupported","inputs":[]},{"type":"error","name":"Introspection_NotSupported","inputs":[]},{"type":"error","name":"Ownable__NotOwner","inputs":[{"name":"account","type":"address","internalType":"address"}]},{"type":"error","name":"Ownable__ZeroAddress","inputs":[]},{"type":"error","name":"Pausable__NotPaused","inputs":[]},{"type":"error","name":"Pausable__Paused","inputs":[]},{"type":"error","name":"ReentrancyGuard__ReentrantCall","inputs":[]},{"type":"error","name":"Validator__InvalidAddress","inputs":[]},{"type":"error","name":"Validator__InvalidStringLength","inputs":[]}],"bytecode":{"object":"0x60806040523480156200001157600080fd5b506200001c62000022565b620000ca565b7f2d0d21306acfe8e9bb163a4573e95aff6cef95dc1102c6a16d5f19eac08cc4de8054640100000000900460ff16156200006f576040516366008a2d60e01b815260040160405180910390fd5b805463ffffffff9081161015620000c757805463ffffffff191663ffffffff90811782556040519081527fe9c9b456cb2994b80aeef036cf59d26e9617df80f816a6ee5a5b4166e07e2f5c9060200160405180910390a15b50565b6144bc80620000da6000396000f3fe60806040523480156200001157600080fd5b5060043610620000935760003560e01c8063c0bc67961162000062578063c0bc67961462000141578063cd7242b81462000158578063e530ee5c146200016f578063f181942a146200019f57600080fd5b80631a424b66146200009857806333518c8014620000b1578063545efb2d14620000dd578063bed8f27c146200011b575b600080fd5b620000af620000a936600462001619565b620001b6565b005b620000c8620000c23660046200167e565b62000215565b60405190151581526020015b60405180910390f35b620000e762000228565b604080516001600160a01b0395861681529385166020850152918416918301919091529091166060820152608001620000d4565b620001326200012c3660046200181d565b620002e1565b604051908152602001620000d4565b62000132620001523660046200167e565b620002ee565b620000af6200016936600462001619565b6200032c565b620001866200018036600462001eb0565b6200037d565b6040516001600160a01b039091168152602001620000d4565b62000186620001b03660046200181d565b6200046c565b7f2d0d21306acfe8e9bb163a4573e95aff6cef95dc1102c6a16d5f19eac08cc4de54640100000000900460ff166200020157604051630ef4733760e31b815260040160405180910390fd5b6200020f8484848462000479565b50505050565b60006200022282620005c9565b92915050565b600080600080620002d37ff5c6524ca7717dce3260f151d3a5f456914eb85fe781aba307beba9708cc8ccb547ff5c6524ca7717dce3260f151d3a5f456914eb85fe781aba307beba9708cc8ccc547ff5c6524ca7717dce3260f151d3a5f456914eb85fe781aba307beba9708cc8ccd547ff5c6524ca7717dce3260f151d3a5f456914eb85fe781aba307beba9708cc8cce546001600160a01b03938416949284169391821692911690565b935093509350935090919293565b600062000222826200061c565b6001600160a01b03811660009081527ff5c6524ca7717dce3260f151d3a5f456914eb85fe781aba307beba9708cc8cca602052604081205462000222565b7fa7c3be20e3a76821507555109752fad8a6630ef0362a34dcfcdfef83c99a2537546001600160a01b0316331462000201576040516365f4906560e01b815233600482015260240160405180910390fd5b600060027f50b052c8fb38984269a818b2b593d0584a81b1b99245abc0fab04abc7afb010f5403620003c257604051635db5c7cd60e11b815260040160405180910390fd5b620003ec60027f50b052c8fb38984269a818b2b593d0584a81b1b99245abc0fab04abc7afb010f55565b7ff421ea548af7158b1d71ba0aeccf57104c067038bd8fd214edd05c09eb4f735b5460ff161562000430576040516302ca8ced60e11b815260040160405180910390fd5b6200043b826200065a565b90506200046760017f50b052c8fb38984269a818b2b593d0584a81b1b99245abc0fab04abc7afb010f55565b919050565b6000620002228262000a94565b836001600160a01b03163b600003620004a5576040516302f3d00b60e01b815260040160405180910390fd5b826001600160a01b03163b600003620004d1576040516302f3d00b60e01b815260040160405180910390fd5b816001600160a01b03163b600003620004fd576040516302f3d00b60e01b815260040160405180910390fd5b7ff5c6524ca7717dce3260f151d3a5f456914eb85fe781aba307beba9708cc8ccb80546001600160a01b03199081166001600160a01b03968716179091557ff5c6524ca7717dce3260f151d3a5f456914eb85fe781aba307beba9708cc8ccc80548216948616949094179093557ff5c6524ca7717dce3260f151d3a5f456914eb85fe781aba307beba9708cc8ccd80548416928516929092179091557ff5c6524ca7717dce3260f151d3a5f456914eb85fe781aba307beba9708cc8cce80549092169216919091179055565b6001600160a01b03811660009081527ff5c6524ca7717dce3260f151d3a5f456914eb85fe781aba307beba9708cc8cc860205260408120546000805160206200449c8339815191529015155b9392505050565b60006000805160206200449c8339815191526004018260405162000641919062001fe6565b9081526020016040518091039020600101549050919050565b60006200066b826000015162000ad8565b81516000805160206200449c833981519152906200068b90829062000b01565b15620006aa57604051636deb108f60e01b815260040160405180910390fd5b600681015460408051631d5e528f60e21b815290516000926001600160a01b0316916375794a3c9160048083019260209291908290030181865afa158015620006f7573d6000803e3d6000fd5b505050506040513d601f19601f820116820180604052508101906200071d919062002004565b905062000734846000015182866060015162000b0f565b84519093506200074690839062000b3b565b5062000756600283018462000b49565b506040518060400160405280846001600160a01b03168152602001828152508260040185600001516040516200078d919062001fe6565b9081526040805160209281900383018120845181546001600160a01b0319166001600160a01b039182161782559484015160019091015586841660009081526005870184528290208590556006860154928801519188015188516333bcc11760e21b8352939094169363cef3045c936200080d939289906004016200204c565b6020604051808303816000875af11580156200082d573d6000803e3d6000fd5b505050506040513d601f19601f8201168201806040525081019062000853919062002004565b50600782015460009062000871906001600160a01b03168562000b60565b600884015490915060009062000891906001600160a01b03168662000b60565b60408051600280825260608201835292935060009290916020830190803683370190505090508281600081518110620008ce57620008ce620020a5565b60200260200101906001600160a01b031690816001600160a01b0316815250508181600181518110620009055762000905620020a5565b6001600160a01b039283166020918202929092010152604051638bfc820f60e01b815290871690638bfc820f9062000942908490600401620020bb565b600060405180830381600087803b1580156200095d57600080fd5b505af115801562000972573d6000803e3d6000fd5b505050506200098c8684848a606001516020015162000c1d565b506060870151805151604090910151600091620009ad918991908762001042565b9050620009c087828a60800151620011d2565b60068601546001600160a01b03166342842e0e30336040516001600160e01b031960e085901b1681526001600160a01b0392831660048201529116602482015260448101889052606401600060405180830381600087803b15801562000a2557600080fd5b505af115801562000a3a573d6000803e3d6000fd5b505050508462000a473390565b6040516001600160a01b038a8116825291909116907fe50fc3942f8a2d7e5a7c8fb9488499eba5255b41e18bc3f1b4791402976d1d0b9060200160405180910390a3505050505050919050565b60006000805160206200449c8339815191526004018260405162000ab9919062001fe6565b908152604051908190036020019020546001600160a01b031692915050565b8051819060000362000afd576040516374eb20a760e01b815260040160405180910390fd5b5050565b600062000615838362001288565b600080600062000b21868686620012b7565b9150915062000b31828262001486565b9695505050505050565b6000620006158383620014c1565b600062000615836001600160a01b0384166200152c565b6000806040518060200162000b7590620015da565b601f1982820381018352601f9091011660408190526001600160a01b0385166024820152859060440160408051601f19818403018152918152602080830180516001600160e01b031663189acdbd60e31b179052905162000bd9939291016200210a565b60408051601f198184030181529082905262000bf9929160200162002130565b604051602081830303815290604052905062000c158162001575565b949350505050565b604080516001808252818301909252600091829190816020015b606081526020019060019003908162000c37579050509050604051806040016040528060098152602001684a6f696e537061636560b81b8152508160008151811062000c875762000c87620020a5565b6020026020010181905250856001600160a01b0316638fcd793d6040518060400160405280600681526020016526b4b73a32b960d11b8152508360006001600160401b0381111562000cdd5762000cdd6200169e565b60405190808252806020026020018201604052801562000d2557816020015b60408051808201909152600081526060602082015281526020019060019003908162000cfc5790505b506040518463ffffffff1660e01b815260040162000d46939291906200218c565b6020604051808303816000875af115801562000d66573d6000803e3d6000fd5b505050506040513d601f19601f8201168201806040525081019062000d8c919062002004565b83519092501562000e9a576040805160018082528183019092526000916020808301908036833701905050905060018160008151811062000dd15762000dd1620020a5565b60200260200101906001600160a01b031690816001600160a01b031681525050866001600160a01b031663ba201ba88460405180604001604052808a6001600160a01b031681526020018560405160200162000e2e9190620020bb565b6040516020818303038152906040528152506040518363ffffffff1660e01b815260040162000e5f9291906200225e565b600060405180830381600087803b15801562000e7a57600080fd5b505af115801562000e8f573d6000803e3d6000fd5b505050505062001039565b60208301515115620010395760005b83602001515181101562000eeb5762000ee28460200151828151811062000ed45762000ed4620020a5565b6020026020010151620015af565b60010162000ea9565b50856001600160a01b031663ba201ba8836040518060400160405280896001600160a01b03168152602001876020015160405160200162000f2d9190620020bb565b6040516020818303038152906040528152506040518363ffffffff1660e01b815260040162000f5e9291906200225e565b600060405180830381600087803b15801562000f7957600080fd5b505af115801562000f8e573d6000803e3d6000fd5b50505050856001600160a01b031663ba201ba8836040518060400160405280886001600160a01b03168152602001876040015160405160200162000fd3919062002376565b6040516020818303038152906040528152506040518363ffffffff1660e01b8152600401620010049291906200225e565b600060405180830381600087803b1580156200101f57600080fd5b505af115801562001034573d6000803e3d6000fd5b505050505b50949350505050565b604080516001808252818301909252600091829190602080830190803683370190505090506001816000815181106200107f576200107f620020a5565b6001600160a01b039290921660209283029190910190910152604080516001808252818301909252600091816020015b604080518082019091526000815260606020820152815260200190600190039081620010af5790505090508381600081518110620010f157620010f1620020a5565b6020908102919091018101516001600160a01b039092169091526040516200111c91849101620020bb565b60405160208183030381529060405281600081518110620011415762001141620020a5565b6020908102919091018101510152604051638fcd793d60e01b81526001600160a01b03881690638fcd793d9062001181908990899086906004016200218c565b6020604051808303816000875af1158015620011a1573d6000803e3d6000fd5b505050506040513d601f19601f82011682018060405250810190620011c7919062002004565b979650505050505050565b6040805160018082528183019092526000916020808301908036833701905050905082816000815181106200120b576200120b620020a5565b6020908102919091018101919091528251908301516040516328fc1e7560e11b81526001600160a01b038716926351f83cea926200124e92869060040162002417565b600060405180830381600087803b1580156200126957600080fd5b505af11580156200127e573d6000803e3d6000fd5b5050505050505050565b600082600101826040516200129e919062001fe6565b9081526040519081900360200190205415159392505050565b7ff5c6524ca7717dce3260f151d3a5f456914eb85fe781aba307beba9708cc8ccb546040516060916000916000805160206200449c833981519152916200130f9188916001600160a01b031690889060200162002489565b604051602081830303815290604052805190602001209150604051806020016200133990620015e8565b818103601f1990810183526009840154601f909201166040818101815263dc9cc64560e01b8252306020808401919091528151808301835260068701546001600160a01b0390811682528183018c90528351610120810185528b515181528b51840151938101939093528a518401519383019390935289516060908101519083015289516080908101516001600160401b031690830152895160a090810151841690830152895160c0908101519584169591939083019116156200140357895160c0015162001405565b335b6001600160a01b03168152602001896000015160e001518152602001896000015161010001516001600160a01b03168152506040516020016200144c9493929190620024b9565b60408051601f19818403018152908290526200146c929160200162002130565b604051602081830303815290604052925050935093915050565b60008260200183518381836000f59250506001600160a01b0382169050620002225760405163ef35ca1960e01b815260040160405180910390fd5b6000620014cf838362001288565b6200152357825460018101845560008481526020902001620014f2838262002645565b50825460405160018501906200150a90859062001fe6565b9081526040519081900360200190205550600162000222565b50600062000222565b6000818152600183016020526040812054620015235750815460018181018455600084815260208082209093018490558454848252828601909352604090209190915562000222565b600081602001825180826000f09250506001600160a01b0382169050620004675760405163ef35ca1960e01b815260040160405180910390fd5b6001600160a01b038116620015d7576040516302e47d1560e41b815260040160405180910390fd5b50565b6103d4806200271283390190565b6119b68062002ae683390190565b6001600160a01b0381168114620015d757600080fd5b80356200046781620015f6565b600080600080608085870312156200163057600080fd5b84356200163d81620015f6565b935060208501356200164f81620015f6565b925060408501356200166181620015f6565b915060608501356200167381620015f6565b939692955090935050565b6000602082840312156200169157600080fd5b81356200061581620015f6565b634e487b7160e01b600052604160045260246000fd5b604051608081016001600160401b0381118282101715620016d957620016d96200169e565b60405290565b604051606081016001600160401b0381118282101715620016d957620016d96200169e565b604080519081016001600160401b0381118282101715620016d957620016d96200169e565b60405161012081016001600160401b0381118282101715620016d957620016d96200169e565b60405160a081016001600160401b0381118282101715620016d957620016d96200169e565b604051601f8201601f191681016001600160401b03811182821017156200179f576200179f6200169e565b604052919050565b600082601f830112620017b957600080fd5b81356001600160401b03811115620017d557620017d56200169e565b620017ea601f8201601f191660200162001774565b8181528460208386010111156200180057600080fd5b816020850160208301376000918101602001919091529392505050565b6000602082840312156200183057600080fd5b81356001600160401b038111156200184757600080fd5b62000c1584828501620017a7565b80356001600160401b03811681146200046757600080fd5b60006001600160401b038211156200188957620018896200169e565b5060051b60200190565b60038110620015d757600080fd5b803560ff811681146200046757600080fd5b600082601f830112620018c557600080fd5b81356020620018de620018d8836200186d565b62001774565b82815260079290921b84018101918181019086841115620018fe57600080fd5b8286015b848110156200197057608081890312156200191d5760008081fd5b62001927620016b4565b813560068110620019385760008081fd5b815281850135858201526040808301356200195381620015f6565b908201526060828101359082015283529183019160800162001902565b509695505050505050565b600082601f8301126200198d57600080fd5b81356020620019a0620018d8836200186d565b82815260609283028501820192828201919087851115620019c057600080fd5b8387015b8581101562001a295781818a031215620019de5760008081fd5b620019e8620016df565b8135620019f58162001893565b815262001a04828701620018a1565b86820152604062001a17818401620018a1565b908201528452928401928101620019c4565b5090979650505050505050565b60006060828403121562001a4957600080fd5b62001a53620016df565b905081356001600160401b038082111562001a6d57600080fd5b818401915084601f83011262001a8257600080fd5b8135602062001a95620018d8836200186d565b82815260069290921b8401810191818101908884111562001ab557600080fd5b948201945b8386101562001b12576040868a03121562001ad55760008081fd5b62001adf62001704565b863562001aec8162001893565b815262001afb878501620018a1565b818501528252604095909501949082019062001aba565b8652508581013593508284111562001b2957600080fd5b62001b3787858801620018b3565b9085015250604084013591508082111562001b5157600080fd5b5062001b60848285016200197b565b60408301525092915050565b60006060828403121562001b7f57600080fd5b62001b89620016df565b90508135801515811462001b9c57600080fd5b81526020828101356001600160401b038082111562001bba57600080fd5b818501915085601f83011262001bcf57600080fd5b813562001be0620018d8826200186d565b81815260059190911b8301840190848101908883111562001c0057600080fd5b938501935b8285101562001c2b57843562001c1b81620015f6565b8252938501939085019062001c05565b8086880152505050604085013592508083111562001c4857600080fd5b505062001b608482850162001a36565b600082601f83011262001c6a57600080fd5b8135602062001c7d620018d8836200186d565b82815260059290921b8401810191818101908684111562001c9d57600080fd5b8286015b84811015620019705780356001600160401b0381111562001cc25760008081fd5b62001cd28986838b0101620017a7565b84525091830191830162001ca1565b60006060828403121562001cf457600080fd5b62001cfe620016df565b905081356001600160401b038082111562001d1857600080fd5b90830190610120828603121562001d2e57600080fd5b62001d3862001729565b82358281111562001d4857600080fd5b62001d5687828601620017a7565b82525060208301358281111562001d6c57600080fd5b62001d7a87828601620017a7565b602083015250604083013560408201526060830135606082015262001da26080840162001855565b608082015262001db560a084016200160c565b60a082015262001dc860c084016200160c565b60c082015260e083013560e082015261010062001de78185016200160c565b908201528352602084013591508082111562001e0257600080fd5b62001e108583860162001b6c565b6020840152604084013591508082111562001e2a57600080fd5b5062001b608482850162001c58565b60006040828403121562001e4c57600080fd5b62001e5662001704565b905081356001600160401b038082111562001e7057600080fd5b62001e7e85838601620017a7565b8352602084013591508082111562001e9557600080fd5b5062001ea484828501620017a7565b60208301525092915050565b60006020828403121562001ec357600080fd5b81356001600160401b038082111562001edb57600080fd5b9083019060a0828603121562001ef057600080fd5b62001efa6200174f565b82358281111562001f0a57600080fd5b62001f1887828601620017a7565b82525060208301358281111562001f2e57600080fd5b62001f3c87828601620017a7565b60208301525060408301358281111562001f5557600080fd5b62001f6387828601620017a7565b60408301525060608301358281111562001f7c57600080fd5b62001f8a8782860162001ce1565b60608301525060808301358281111562001fa357600080fd5b62001fb18782860162001e39565b60808301525095945050505050565b60005b8381101562001fdd57818101518382015260200162001fc3565b50506000910152565b6000825162001ffa81846020870162001fc0565b9190910192915050565b6000602082840312156200201757600080fd5b5051919050565b600081518084526200203881602086016020860162001fc0565b601f01601f19169290920160200192915050565b6080815260006200206160808301876200201e565b82810360208401526200207581876200201e565b905082810360408401526200208b81866200201e565b91505060018060a01b038316606083015295945050505050565b634e487b7160e01b600052603260045260246000fd5b6020808252825182820181905260009190848201906040850190845b81811015620020fe5783516001600160a01b031683529284019291840191600101620020d7565b50909695505050505050565b6001600160a01b038316815260406020820181905260009062000c15908301846200201e565b600083516200214481846020880162001fc0565b8351908301906200215a81836020880162001fc0565b01949350505050565b60018060a01b038151168252600060208201516040602085015262000c1560408501826200201e565b606081526000620021a160608301866200201e565b6020838203818501528186518084528284019150828160051b85010183890160005b83811015620021f557601f19878403018552620021e28383516200201e565b94860194925090850190600101620021c3565b50508681036040880152875180825284820195509250600583901b81018401915083880160005b848110156200224e57601f198385030187526200223b84835162002163565b968601969350908501906001016200221c565b50919a9950505050505050505050565b82815260406020820152600062000c15604083018462002163565b634e487b7160e01b600052602160045260246000fd5b60038110620015d757620015d762002279565b60008151808452602080850194506020840160005b8381101562002311578151805160068110620022d757620022d762002279565b885280840151848901526040808201516001600160a01b0316908901526060908101519088015260809096019590820190600101620022b7565b509495945050505050565b60008151808452602080850194506020840160005b8381101562002311578151805162002349816200228f565b88528084015160ff908116858a015260409182015116908801526060909601959082019060010162002331565b6020808252825160608383015280516080840181905260009291820190839060a08601905b80831015620023d65783518051620023b3816200228f565b835285015160ff168583015292840192600192909201916040909101906200239b565b50838701519350601f19925082868203016040870152620023f88185620022a2565b9350505060408501518185840301606086015262000b3183826200231c565b6060815260006200242c60608301866200201e565b602083820360208501526200244282876200201e565b84810360408601528551808252602080880194509091019060005b818110156200247b578451835293830193918301916001016200245d565b509098975050505050505050565b6060815260006200249e60608301866200201e565b6001600160a01b039490941660208301525060400152919050565b600060018060a01b03808716835263ffffffff60e01b8651166020840152806020870151166040840152808551166060840152506020840151608083015260c060a083015282516101208060c0850152620025196101e08501836200201e565b9150602085015160bf198584030160e08601526200253883826200201e565b92505060408501516101008181870152606087015183870152608087015192506200256f6101408701846001600160401b03169052565b60a08701516001600160a01b0390811661016088015260c0880151811661018088015260e08801516101a0880152908701519081166101c08701529150620019709050565b600181811c90821680620025c957607f821691505b602082108103620025ea57634e487b7160e01b600052602260045260246000fd5b50919050565b601f82111562002640576000816000526020600020601f850160051c810160208610156200261b5750805b601f850160051c820191505b818110156200263c5782815560010162002627565b5050505b505050565b81516001600160401b038111156200266157620026616200169e565b6200267981620026728454620025b4565b84620025f0565b602080601f831160018114620026b15760008415620026985750858301515b600019600386901b1c1916600185901b1785556200263c565b600085815260208120601f198616915b82811015620026e257888601518255948401946001909101908401620026c1565b5085821015620027015787850151600019600388901b60f8161c191681555b5050505050600190811b0190555056fe60806040526040516103d43803806103d483398101604081905261002291610268565b61002c8282610033565b5050610352565b61003c82610092565b6040516001600160a01b038316907fbc7cd75a20ee27fd9adebab32041f755214dbc6bffa90cc0225b39da2e5c2d3b90600090a280511561008657610081828261010e565b505050565b61008e610185565b5050565b806001600160a01b03163b6000036100cd57604051634c9c8ce360e01b81526001600160a01b03821660048201526024015b60405180910390fd5b7f360894a13ba1a3210667c828492db98dca3e2076cc3735a920a3ca505d382bbc80546001600160a01b0319166001600160a01b0392909216919091179055565b6060600080846001600160a01b03168460405161012b9190610336565b600060405180830381855af49150503d8060008114610166576040519150601f19603f3d011682016040523d82523d6000602084013e61016b565b606091505b50909250905061017c8583836101a6565b95945050505050565b34156101a45760405163b398979f60e01b815260040160405180910390fd5b565b6060826101bb576101b682610205565b6101fe565b81511580156101d257506001600160a01b0384163b155b156101fb57604051639996b31560e01b81526001600160a01b03851660048201526024016100c4565b50805b9392505050565b8051156102155780518082602001fd5b604051630a12f52160e11b815260040160405180910390fd5b634e487b7160e01b600052604160045260246000fd5b60005b8381101561025f578181015183820152602001610247565b50506000910152565b6000806040838503121561027b57600080fd5b82516001600160a01b038116811461029257600080fd5b60208401519092506001600160401b03808211156102af57600080fd5b818501915085601f8301126102c357600080fd5b8151818111156102d5576102d561022e565b604051601f8201601f19908116603f011681019083821181831017156102fd576102fd61022e565b8160405282815288602084870101111561031657600080fd5b610327836020830160208801610244565b80955050505050509250929050565b60008251610348818460208701610244565b9190910192915050565b6074806103606000396000f3fe6080604052600a600c565b005b60186014601a565b6051565b565b6000604c7f360894a13ba1a3210667c828492db98dca3e2076cc3735a920a3ca505d382bbc546001600160a01b031690565b905090565b3660008037600080366000845af43d6000803e808015606f573d6000f35b3d6000fd60806040523480156200001157600080fd5b50604051620019b6380380620019b68339810160408190526200003491620009f0565b6200003e6200018d565b620000a58380517f8554b9df6321355bca4334cacaab69e5fcc1f4562dedc2e1f459ba5fa38bf21c80546020909301516001600160a01b03166001600160a01b031960e09390931c600160a01b02929092166001600160c01b031990931692909217179055565b81517f9bd0e1a7aef81c47cff971a2fee48406b20f55522326b2e2616c49c24aa506d080546001600160a01b0319166001600160a01b0390921691909117905560208201517f9bd0e1a7aef81c47cff971a2fee48406b20f55522326b2e2616c49c24aa506d155805160208201516200011f9190620001a1565b620001358184602001516200020960201b60201c565b6200013f6200035a565b7f438e2013c1d3a5bb9642eb30342f1d83ec0d3add620b71cdaf5043d9570b0a9580546001600160a01b0319166001600160a01b0386161790556200018362000369565b5050505062000c9a565b6200019f6301ffc9a760e01b620003be565b565b7f234d8962d7c9a6a6604d7f98797e6ad6d7a886804f7409feb26422e27bf812547f234d8962d7c9a6a6604d7f98797e6ad6d7a886804f7409feb26422e27bf81256620001ef848262000b6b565b506003810162000200838262000b6b565b50600190555050565b6000805160206200199683398151915280546001600160a01b0319166001600160a01b0383161790556080820151600080516020620019768339815191529062000253906200047c565b60c0830151620002639062000530565b60e0830151620002739062000558565b61010083015162000284906200060a565b6060830151600382015560a08301516001600160a01b031615620002ad578260a00151620002c3565b73eeeeeeeeeeeeeeeeeeeeeeeeeeeeeeeeeeeeeeee5b6004820180546001600160a01b03199081166001600160a01b0393841617909155604085015160028401556080850151600684018054600160a01b600160e01b031916600160a01b6001600160401b039093169290920291909117905560c0850151600584018054831691841691909117905560e08501516007840155610100909401516008909201805490941691161790915550565b6200019f607b6103e8620006ac565b6200037b6380ac58cd60e01b620003be565b6200038d635b5e139f60e01b620003be565b6200039f638c65f84d60e01b620003be565b620003b16307f5828d60e41b620003be565b6200019f63695d5db560e11b5b6001600160e01b03198116600090815260008051602062001956833981519152602052604090205460ff1615156001146200042b576001600160e01b0319811660009081526000805160206200195683398151915260205260409020805460ff1916600117905562000444565b604051637967f77d60e11b815260040160405180910390fd5b6040516001600160e01b03198216907f78f84e5b1c5c05be2b5ad3800781dd404d6d6c6302bc755c0fe20f58a33a7f2290600090a250565b60008051602062001996833981519152546001600160a01b03166001600160a01b0316638120f0ba6040518163ffffffff1660e01b8152600401602060405180830381865afa158015620004d4573d6000803e3d6000fd5b505050506040513d601f19601f82011682018060405250810190620004fa919062000c37565b6001600160401b0316816001600160401b031611156200052d576040516341191e9760e11b815260040160405180910390fd5b50565b6001600160a01b0381166200052d57604051631492df6160e21b815260040160405180910390fd5b600080516020620019968339815191525460408051632cbb9d1360e01b8152905160008051602062001976833981519152926001600160a01b031691632cbb9d139160048083019260209291908290030181865afa158015620005bf573d6000803e3d6000fd5b505050506040513d601f19601f82011682018060405250810190620005e5919062000c5c565b821115620006065760405163c3983b9160e01b815260040160405180910390fd5b5050565b6001600160a01b0381166200061c5750565b6040516301ffc9a760e01b8152635cf4ee9160e01b60048201526001600160a01b038216906301ffc9a790602401602060405180830381865afa15801562000668573d6000803e3d6000fd5b505050506040513d601f19601f820116820180604052508101906200068e919062000c76565b6200052d57604051630e88bf4b60e01b815260040160405180910390fd5b81600003620006ce576040516306c1cb6d60e51b815260040160405180910390fd5b6127108161ffff161115620006f657604051634e7ee09d60e11b815260040160405180910390fd5b60008281527fe51b25fea73f50a2b3aac2a4ae8549fcc692472b6c9df7ca78c0d969dad9e841602081905260409091205461ffff1680156200074b576040516306c1cb6d60e51b815260040160405180910390fd5b60008481526020838152604091829020805461ffff191661ffff8716908117909155915191825285917f674ed3e313f9254fbafb8a51fa62be8b5f0a767d64c64cfe6f099c80c779a528910160405180910390a250505050565b6001600160a01b03811681146200052d57600080fd5b634e487b7160e01b600052604160045260246000fd5b604080519081016001600160401b0381118282101715620007f657620007f6620007bb565b60405290565b60405161012081016001600160401b0381118282101715620007f657620007f6620007bb565b604051601f8201601f191681016001600160401b03811182821017156200084d576200084d620007bb565b604052919050565b80516200086281620007a5565b919050565b600082601f8301126200087957600080fd5b81516001600160401b03811115620008955762000895620007bb565b6020620008ab601f8301601f1916820162000822565b8281528582848701011115620008c057600080fd5b60005b83811015620008e0578581018301518282018401528201620008c3565b506000928101909101919091529392505050565b80516001600160401b03811681146200086257600080fd5b600061012082840312156200092057600080fd5b6200092a620007fc565b82519091506001600160401b03808211156200094557600080fd5b620009538583860162000867565b835260208401519150808211156200096a57600080fd5b50620009798482850162000867565b6020830152506040820151604082015260608201516060820152620009a160808301620008f4565b6080820152620009b460a0830162000855565b60a0820152620009c760c0830162000855565b60c082015260e082015160e0820152610100620009e681840162000855565b9082015292915050565b60008060008084860360c081121562000a0857600080fd5b855162000a1581620007a5565b94506040601f198201121562000a2a57600080fd5b62000a34620007d1565b60208701516001600160e01b03198116811462000a5057600080fd5b8152604087015162000a6281620007a5565b602082015293506040605f198201121562000a7c57600080fd5b5062000a87620007d1565b606086015162000a9781620007a5565b81526080860151602082015260a08601519092506001600160401b0381111562000ac057600080fd5b62000ace878288016200090c565b91505092959194509250565b600181811c9082168062000aef57607f821691505b60208210810362000b1057634e487b7160e01b600052602260045260246000fd5b50919050565b601f82111562000b66576000816000526020600020601f850160051c8101602086101562000b415750805b601f850160051c820191505b8181101562000b625782815560010162000b4d565b5050505b505050565b81516001600160401b0381111562000b875762000b87620007bb565b62000b9f8162000b98845462000ada565b8462000b16565b602080601f83116001811462000bd7576000841562000bbe5750858301515b600019600386901b1c1916600185901b17855562000b62565b600085815260208120601f198616915b8281101562000c085788860151825594840194600190910190840162000be7565b508582101562000c275787850151600019600388901b60f8161c191681555b5050505050600190811b01905550565b60006020828403121562000c4a57600080fd5b62000c5582620008f4565b9392505050565b60006020828403121562000c6f57600080fd5b5051919050565b60006020828403121562000c8957600080fd5b8151801515811462000c5557600080fd5b610cac8062000caa6000396000f3fe6080604052600436106100e15760003560e01c806373fc5a051161007f578063ac9650d811610059578063ac9650d814610378578063b3a5be6d146103a5578063b8307376146103ba578063f9d5d22c14610416576100e8565b806373fc5a05146102c85780638934207f14610307578063ac7ee6261461033b576100e8565b80635b312fce116100bb5780635b312fce1461019657806362452006146101d357806369d9346b1461022f578063702515631461028b576100e8565b80630c3a01b1146100f25780631d214b4d146101125780633ded10de14610168576100e8565b366100e857005b6100f0610436565b005b3480156100fe57600080fd5b506100f061010d366004610a68565b610491565b34801561011e57600080fd5b507f9b35df16c33a6c0e085c9ebd55fb367f81c58c2ed7e9bed98cc622f3308a6012546001600160a01b03165b6040516001600160a01b0390911681526020015b60405180910390f35b34801561017457600080fd5b50610188610183366004610a68565b610573565b60405190815260200161015f565b3480156101a257600080fd5b507f9b35df16c33a6c0e085c9ebd55fb367f81c58c2ed7e9bed98cc622f3308a6013546001600160a01b031661014b565b3480156101df57600080fd5b506100f06101ee366004610a99565b7f9b35df16c33a6c0e085c9ebd55fb367f81c58c2ed7e9bed98cc622f3308a601280546001600160a01b0319166001600160a01b0392909216919091179055565b34801561023b57600080fd5b506100f061024a366004610a99565b7f9b35df16c33a6c0e085c9ebd55fb367f81c58c2ed7e9bed98cc622f3308a601580546001600160a01b0319166001600160a01b0392909216919091179055565b34801561029757600080fd5b507f9b35df16c33a6c0e085c9ebd55fb367f81c58c2ed7e9bed98cc622f3308a6011546001600160a01b031661014b565b3480156102d457600080fd5b506100f06102e3366004610a68565b7f9b35df16c33a6c0e085c9ebd55fb367f81c58c2ed7e9bed98cc622f3308a601055565b34801561031357600080fd5b507f9b35df16c33a6c0e085c9ebd55fb367f81c58c2ed7e9bed98cc622f3308a601054610188565b34801561034757600080fd5b507f9b35df16c33a6c0e085c9ebd55fb367f81c58c2ed7e9bed98cc622f3308a6015546001600160a01b031661014b565b34801561038457600080fd5b50610398610393366004610abd565b6106cd565b60405161015f9190610b56565b3480156103b157600080fd5b506101886107ea565b3480156103c657600080fd5b506100f06103d5366004610a99565b7f9b35df16c33a6c0e085c9ebd55fb367f81c58c2ed7e9bed98cc622f3308a601180546001600160a01b0319166001600160a01b0392909216919091179055565b34801561042257600080fd5b506100f0610431366004610a68565b6108ad565b6000610440610922565b9050806001600160a01b03163b60000361046d576040516321f27f0d60e21b815260040160405180910390fd5b3660008037600080366000845af43d6000803e80801561048c573d6000f35b3d6000fd5b60006104c47f9b35df16c33a6c0e085c9ebd55fb367f81c58c2ed7e9bed98cc622f3308a6013546001600160a01b031690565b90506000816001600160a01b0316630eac306d6040518163ffffffff1660e01b8152600401602060405180830381865afa158015610506573d6000803e3d6000fd5b505050506040513d601f19601f8201168201806040525081019061052a9190610bd0565b90508083101561054d57604051631a23d64760e11b815260040160405180910390fd5b50507f9b35df16c33a6c0e085c9ebd55fb367f81c58c2ed7e9bed98cc622f3308a600f55565b60007f9b35df16c33a6c0e085c9ebd55fb367f81c58c2ed7e9bed98cc622f3308a600d8161059f6107ea565b9050838111156105b3575060009392505050565b6006820154604051639262b1b360e01b815230600482015285916001600160a01b031690639262b1b390602401602060405180830381865afa1580156105fd573d6000803e3d6000fd5b505050506040513d601f19601f820116820180604052508101906106219190610bd0565b1115610631575060009392505050565b60088201546001600160a01b0316156106c2576008820154604051635cf4ee9160e01b815260048101839052602481018690526001600160a01b0390911690635cf4ee9190604401602060405180830381865afa158015610696573d6000803e3d6000fd5b505050506040513d601f19601f820116820180604052508101906106ba9190610bd0565b949350505050565b506002015492915050565b6060818067ffffffffffffffff8111156106e9576106e9610be9565b60405190808252806020026020018201604052801561071c57816020015b60608152602001906001900390816107075790505b50915060005b818110156107e2576000803087878581811061074057610740610bff565b90506020028101906107529190610c15565b604051610760929190610c63565b600060405180830381855af49150503d806000811461079b576040519150601f19603f3d011682016040523d82523d6000602084013e6107a0565b606091505b509150915081156107ce57808584815181106107be576107be610bff565b60200260200101819052506107d8565b3d6000803e3d6000fd5b5050600101610722565b505092915050565b7f9b35df16c33a6c0e085c9ebd55fb367f81c58c2ed7e9bed98cc622f3308a601454600090801561081a57919050565b7f9b35df16c33a6c0e085c9ebd55fb367f81c58c2ed7e9bed98cc622f3308a60135460408051632cbb9d1360e01b815290516001600160a01b0390921691632cbb9d13916004808201926020929091908290030181865afa158015610883573d6000803e3d6000fd5b505050506040513d601f19601f820116820180604052508101906108a79190610bd0565b91505090565b7f9b35df16c33a6c0e085c9ebd55fb367f81c58c2ed7e9bed98cc622f3308a60148190556040517f9b35df16c33a6c0e085c9ebd55fb367f81c58c2ed7e9bed98cc622f3308a600d9082907fab14a23e88fb272313490d4f20d63098e64fd38304c0e07a377db98c2b39b92f90600090a25050565b7f8554b9df6321355bca4334cacaab69e5fcc1f4562dedc2e1f459ba5fa38bf21c54600090600160a01b900460e01b81806109847f8554b9df6321355bca4334cacaab69e5fcc1f4562dedc2e1f459ba5fa38bf21c546001600160a01b031690565b6040516001600160e01b03196000351660248201526001600160a01b039190911690849060440160408051601f198184030181529181526020820180516001600160e01b03166001600160e01b03199094169390931790925290516109e99190610c73565b600060405180830381855afa9150503d8060008114610a24576040519150601f19603f3d011682016040523d82523d6000602084013e610a29565b606091505b509150915081610a4c5760405163391aa44560e01b815260040160405180910390fd5b80806020019051810190610a609190610c8f565b935050505090565b600060208284031215610a7a57600080fd5b5035919050565b6001600160a01b0381168114610a9657600080fd5b50565b600060208284031215610aab57600080fd5b8135610ab681610a81565b9392505050565b60008060208385031215610ad057600080fd5b823567ffffffffffffffff80821115610ae857600080fd5b818501915085601f830112610afc57600080fd5b813581811115610b0b57600080fd5b8660208260051b8501011115610b2057600080fd5b60209290920196919550909350505050565b60005b83811015610b4d578181015183820152602001610b35565b50506000910152565b6000602080830181845280855180835260408601915060408160051b870101925083870160005b82811015610bc357878503603f1901845281518051808752610ba4818989018a8501610b32565b601f01601f191695909501860194509285019290850190600101610b7d565b5092979650505050505050565b600060208284031215610be257600080fd5b5051919050565b634e487b7160e01b600052604160045260246000fd5b634e487b7160e01b600052603260045260246000fd5b6000808335601e19843603018112610c2c57600080fd5b83018035915067ffffffffffffffff821115610c4757600080fd5b602001915036819003821315610c5c57600080fd5b9250929050565b8183823760009101908152919050565b60008251610c85818460208701610b32565b9190910192915050565b600060208284031215610ca157600080fd5b8151610ab681610a8156bc7de460bcfb6afd0c415c8c610d408bd914b18d7d0feec0da9e25348087a5c49b35df16c33a6c0e085c9ebd55fb367f81c58c2ed7e9bed98cc622f3308a600d9b35df16c33a6c0e085c9ebd55fb367f81c58c2ed7e9bed98cc622f3308a6013f5c6524ca7717dce3260f151d3a5f456914eb85fe781aba307beba9708cc8cc5","linkReferences":{}},"methodIdentifiers":{"__Architect_init(address,address,address,address)":"1a424b66","createSpace((string,string,string,((string,string,uint256,uint256,uint64,address,address,uint256,address),(bool,address[],((uint8,uint8)[],(uint8,uint256,address,uint256)[],(uint8,uint8,uint8)[])),string[]),(string,string)))":"e530ee5c","getSpaceArchitectImplementations()":"545efb2d","getSpaceById(string)":"f181942a","getTokenIdBySpace(address)":"c0bc6796","getTokenIdBySpaceId(string)":"bed8f27c","isSpace(address)":"33518c80","setSpaceArchitectImplementations(address,address,address,address)":"cd7242b8"},"id":99}