{"abi":[{"type":"function","name":"__Architect_init","inputs":[{"name":"ownerImplementation","type":"address","internalType":"contract ISpaceOwner"},{"name":"userEntitlementImplementation","type":"address","internalType":"contract IUserEntitlement"},{"name":"ruleEntitlementImplementation","type":"address","internalType":"contract IRuleEntitlement"},{"name":"walletLink","type":"address","internalType":"contract IWalletLink"}],"outputs":[],"stateMutability":"nonpayable"},{"type":"function","name":"createSpace","inputs":[{"name":"spaceInfo","type":"tuple","internalType":"struct IArchitectBase.SpaceInfo","components":[{"name":"name","type":"string","internalType":"string"},{"name":"uri","type":"string","internalType":"string"},{"name":"membership","type":"tuple","internalType":"struct IArchitectBase.Membership","components":[{"name":"settings","type":"tuple","internalType":"struct IMembershipBase.Membership","components":[{"name":"name","type":"string","internalType":"string"},{"name":"symbol","type":"string","internalType":"string"},{"name":"price","type":"uint256","internalType":"uint256"},{"name":"maxSupply","type":"uint256","internalType":"uint256"},{"name":"duration","type":"uint64","internalType":"uint64"},{"name":"currency","type":"address","internalType":"address"},{"name":"feeRecipient","type":"address","internalType":"address"},{"name":"freeAllocation","type":"uint256","internalType":"uint256"},{"name":"pricingModule","type":"address","internalType":"address"}]},{"name":"requirements","type":"tuple","internalType":"struct IArchitectBase.MembershipRequirements","components":[{"name":"everyone","type":"bool","internalType":"bool"},{"name":"users","type":"address[]","internalType":"address[]"},{"name":"ruleData","type":"tuple","internalType":"struct IRuleEntitlement.RuleData","components":[{"name":"operations","type":"tuple[]","internalType":"struct IRuleEntitlement.Operation[]","components":[{"name":"opType","type":"uint8","internalType":"enum IRuleEntitlement.CombinedOperationType"},{"name":"index","type":"uint8","internalType":"uint8"}]},{"name":"checkOperations","type":"tuple[]","internalType":"struct IRuleEntitlement.CheckOperation[]","components":[{"name":"opType","type":"uint8","internalType":"enum IRuleEntitlement.CheckOperationType"},{"name":"chainId","type":"uint256","internalType":"uint256"},{"name":"contractAddress","type":"address","internalType":"address"},{"name":"threshold","type":"uint256","internalType":"uint256"}]},{"name":"logicalOperations","type":"tuple[]","internalType":"struct IRuleEntitlement.LogicalOperation[]","components":[{"name":"logOpType","type":"uint8","internalType":"enum IRuleEntitlement.LogicalOperationType"},{"name":"leftOperationIndex","type":"uint8","internalType":"uint8"},{"name":"rightOperationIndex","type":"uint8","internalType":"uint8"}]}]}]},{"name":"permissions","type":"string[]","internalType":"string[]"}]},{"name":"channel","type":"tuple","internalType":"struct IArchitectBase.ChannelInfo","components":[{"name":"metadata","type":"string","internalType":"string"}]}]}],"outputs":[{"name":"","type":"address","internalType":"address"}],"stateMutability":"nonpayable"},{"type":"function","name":"getSpaceArchitectImplementations","inputs":[],"outputs":[{"name":"spaceToken","type":"address","internalType":"contract ISpaceOwner"},{"name":"userEntitlementImplementation","type":"address","internalType":"contract IUserEntitlement"},{"name":"ruleEntitlementImplementation","type":"address","internalType":"contract IRuleEntitlement"},{"name":"walletLink","type":"address","internalType":"contract IWalletLink"}],"stateMutability":"view"},{"type":"function","name":"getSpaceByTokenId","inputs":[{"name":"tokenId","type":"uint256","internalType":"uint256"}],"outputs":[{"name":"","type":"address","internalType":"address"}],"stateMutability":"view"},{"type":"function","name":"getTokenIdBySpace","inputs":[{"name":"space","type":"address","internalType":"address"}],"outputs":[{"name":"","type":"uint256","internalType":"uint256"}],"stateMutability":"view"},{"type":"function","name":"setSpaceArchitectImplementations","inputs":[{"name":"spaceToken","type":"address","internalType":"contract ISpaceOwner"},{"name":"userEntitlementImplementation","type":"address","internalType":"contract IUserEntitlement"},{"name":"ruleEntitlementImplementation","type":"address","internalType":"contract IRuleEntitlement"},{"name":"walletLink","type":"address","internalType":"contract IWalletLink"}],"outputs":[],"stateMutability":"nonpayable"},{"type":"event","name":"Initialized","inputs":[{"name":"version","type":"uint32","indexed":false,"internalType":"uint32"}],"anonymous":false},{"type":"event","name":"InterfaceAdded","inputs":[{"name":"interfaceId","type":"bytes4","indexed":true,"internalType":"bytes4"}],"anonymous":false},{"type":"event","name":"InterfaceRemoved","inputs":[{"name":"interfaceId","type":"bytes4","indexed":true,"internalType":"bytes4"}],"anonymous":false},{"type":"event","name":"OwnershipTransferred","inputs":[{"name":"previousOwner","type":"address","indexed":true,"internalType":"address"},{"name":"newOwner","type":"address","indexed":true,"internalType":"address"}],"anonymous":false},{"type":"event","name":"Paused","inputs":[{"name":"account","type":"address","indexed":false,"internalType":"address"}],"anonymous":false},{"type":"event","name":"SpaceCreated","inputs":[{"name":"owner","type":"address","indexed":true,"internalType":"address"},{"name":"tokenId","type":"uint256","indexed":true,"internalType":"uint256"},{"name":"space","type":"address","indexed":true,"internalType":"address"}],"anonymous":false},{"type":"event","name":"Unpaused","inputs":[{"name":"account","type":"address","indexed":false,"internalType":"address"}],"anonymous":false},{"type":"error","name":"Architect__InvalidAddress","inputs":[]},{"type":"error","name":"Architect__InvalidNetworkId","inputs":[]},{"type":"error","name":"Architect__InvalidStringLength","inputs":[]},{"type":"error","name":"Architect__NotContract","inputs":[]},{"type":"error","name":"Factory__FailedDeployment","inputs":[]},{"type":"error","name":"Initializable_InInitializingState","inputs":[]},{"type":"error","name":"Initializable_NotInInitializingState","inputs":[]},{"type":"error","name":"Introspection_AlreadySupported","inputs":[]},{"type":"error","name":"Introspection_NotSupported","inputs":[]},{"type":"error","name":"Ownable__NotOwner","inputs":[{"name":"account","type":"address","internalType":"address"}]},{"type":"error","name":"Ownable__ZeroAddress","inputs":[]},{"type":"error","name":"Pausable__NotPaused","inputs":[]},{"type":"error","name":"Pausable__Paused","inputs":[]},{"type":"error","name":"ReentrancyGuard__ReentrantCall","inputs":[]},{"type":"error","name":"Validator__InvalidAddress","inputs":[]}],"bytecode":{"object":"0x608060405234801561001057600080fd5b5061001961001e565b6100c4565b7f59b501c3653afc186af7d48dda36cf6732bd21629a6295693664240a6ef520008054640100000000900460ff161561006a576040516366008a2d60e01b815260040160405180910390fd5b805463ffffffff90811610156100c157805463ffffffff191663ffffffff90811782556040519081527fe9c9b456cb2994b80aeef036cf59d26e9617df80f816a6ee5a5b4166e07e2f5c9060200160405180910390a15b50565b61444580620000d46000396000f3fe60806040523480156200001157600080fd5b50600436106200006a5760003560e01c80631a424b66146200006f578063545efb2d1462000088578063673f0dd514620000ca5780637d8c452214620000fa578063c0bc67961462000111578063cd7242b81462000137575b600080fd5b620000866200008036600462001334565b6200014e565b005b62000092620001ad565b604080516001600160a01b03958616815293851660208501529184169183019190915290911660608201526080015b60405180910390f35b620000e1620000db36600462001399565b62000255565b6040516001600160a01b039091168152602001620000c1565b620000e16200010b36600462001b69565b62000293565b620001286200012236600462001c52565b62000382565b604051908152602001620000c1565b620000866200014836600462001334565b620003c0565b7f59b501c3653afc186af7d48dda36cf6732bd21629a6295693664240a6ef5200054640100000000900460ff166200019957604051630ef4733760e31b815260040160405180910390fd5b620001a78484848462000411565b50505050565b6000806000806200024760008051602062004425833981519152547f9e34afa7b4d27d347d25d9d9dab4f1a106fa081382e6c4243e834d093e787d01547f9e34afa7b4d27d347d25d9d9dab4f1a106fa081382e6c4243e834d093e787d02547f9e34afa7b4d27d347d25d9d9dab4f1a106fa081382e6c4243e834d093e787d03546001600160a01b03938416949284169391821692911690565b935093509350935090919293565b60008181527f06bd04a817647c31ee485c8a0baab96facd62dbfd4b475796bb17ca2c12f000260205260408120546001600160a01b03165b92915050565b600060027f54f22f54f370bd020e00ee80e1a5099a71652e2ccbcf6a75281e4c70a3e11a005403620002d857604051635db5c7cd60e11b815260040160405180910390fd5b6200030260027f54f22f54f370bd020e00ee80e1a5099a71652e2ccbcf6a75281e4c70a3e11a0055565b7fe17a067c7963a59b6dfd65d33b053fdbea1c56500e2aae4f976d9eda4da9eb005460ff161562000346576040516302ca8ced60e11b815260040160405180910390fd5b62000351826200057c565b90506200037d60017f54f22f54f370bd020e00ee80e1a5099a71652e2ccbcf6a75281e4c70a3e11a0055565b919050565b6001600160a01b03811660009081527f06bd04a817647c31ee485c8a0baab96facd62dbfd4b475796bb17ca2c12f000160205260408120546200028d565b7f4675fa8241f86f37157864d3d49b85ad4b164352c516da28e1678a90470ae300546001600160a01b0316331462000199576040516365f4906560e01b815233600482015260240160405180910390fd5b836001600160a01b03163b6000036200043d576040516302f3d00b60e01b815260040160405180910390fd5b826001600160a01b03163b60000362000469576040516302f3d00b60e01b815260040160405180910390fd5b816001600160a01b03163b60000362000495576040516302f3d00b60e01b815260040160405180910390fd5b806001600160a01b03163b600003620004c1576040516302f3d00b60e01b815260040160405180910390fd5b6000805160206200442583398151915280546001600160a01b03199081166001600160a01b03968716179091557f9e34afa7b4d27d347d25d9d9dab4f1a106fa081382e6c4243e834d093e787d0180548216948616949094179093557f9e34afa7b4d27d347d25d9d9dab4f1a106fa081382e6c4243e834d093e787d0280548416928516929092179091557f9e34afa7b4d27d347d25d9d9dab4f1a106fa081382e6c4243e834d093e787d0380549092169216919091179055565b60008051602062004425833981519152805460408051631d5e528f60e21b815290516000937f06bd04a817647c31ee485c8a0baab96facd62dbfd4b475796bb17ca2c12f000093909285926001600160a01b03909216916375794a3c916004808201926020929091908290030181865afa158015620005ff573d6000803e3d6000fd5b505050506040513d601f19601f8201168201806040525081019062000625919062001c79565b9050620006378186604001516200091d565b83549094508360006200064a8362001c93565b90915550506000818152600284016020908152604080832080546001600160a01b0319166001600160a01b03898116918217909255845260018701835292819020849055845488519289015191516391de4a8360e01b81529316926391de4a8392620006bd929091899060040162001d0f565b6020604051808303816000875af1158015620006dd573d6000803e3d6000fd5b505050506040513d601f19601f8201168201806040525081019062000703919062001c79565b50600182015460009062000721906001600160a01b03168662000947565b600284015490915060009062000741906001600160a01b03168762000947565b604080516002808252606082018352929350600092909160208301908036833701905050905082816000815181106200077e576200077e62001d51565b60200260200101906001600160a01b031690816001600160a01b0316815250508181600181518110620007b557620007b562001d51565b6001600160a01b039283166020918202929092010152604051638bfc820f60e01b815290881690638bfc820f90620007f290849060040162001d67565b600060405180830381600087803b1580156200080d57600080fd5b505af115801562000822573d6000803e3d6000fd5b505050506200083c8784848b604001516020015162000a04565b506040808901518051519101516000916200085b918a91908762000e29565b90506200086e88828b6060015162000fb9565b8554604051632142170760e11b8152306004820152336024820152604481018790526001600160a01b03909116906342842e0e90606401600060405180830381600087803b158015620008c057600080fd5b505af1158015620008d5573d6000803e3d6000fd5b50506040516001600160a01b038b16925087915033907fe50fc3942f8a2d7e5a7c8fb9488499eba5255b41e18bc3f1b4791402976d1d0b90600090a450505050505050919050565b60008060006200092e8585620010ba565b915091506200093e828262001262565b95945050505050565b600080604051806020016200095c9062001302565b601f1982820381018352601f9091011660408190526001600160a01b0385166024820152859060440160408051601f19818403018152918152602080830180516001600160e01b031663189acdbd60e31b1790529051620009c09392910162001db6565b60408051601f1981840301815290829052620009e0929160200162001ddc565b6040516020818303038152906040529050620009fc816200129d565b949350505050565b604080516001808252818301909252600091829190816020015b606081526020019060019003908162000a1e579050509050604051806040016040528060098152602001684a6f696e537061636560b81b8152508160008151811062000a6e5762000a6e62001d51565b6020026020010181905250856001600160a01b0316638fcd793d6040518060400160405280600681526020016526b4b73a32b960d11b8152508360006001600160401b0381111562000ac45762000ac4620013b3565b60405190808252806020026020018201604052801562000b0c57816020015b60408051808201909152600081526060602082015281526020019060019003908162000ae35790505b506040518463ffffffff1660e01b815260040162000b2d9392919062001e38565b6020604051808303816000875af115801562000b4d573d6000803e3d6000fd5b505050506040513d601f19601f8201168201806040525081019062000b73919062001c79565b83519092501562000c81576040805160018082528183019092526000916020808301908036833701905050905060018160008151811062000bb85762000bb862001d51565b60200260200101906001600160a01b031690816001600160a01b031681525050866001600160a01b031663ba201ba88460405180604001604052808a6001600160a01b031681526020018560405160200162000c15919062001d67565b6040516020818303038152906040528152506040518363ffffffff1660e01b815260040162000c4692919062001f0a565b600060405180830381600087803b15801562000c6157600080fd5b505af115801562000c76573d6000803e3d6000fd5b505050505062000e20565b6020830151511562000e205760005b83602001515181101562000cd25762000cc98460200151828151811062000cbb5762000cbb62001d51565b6020026020010151620012d7565b60010162000c90565b50856001600160a01b031663ba201ba8836040518060400160405280896001600160a01b03168152602001876020015160405160200162000d14919062001d67565b6040516020818303038152906040528152506040518363ffffffff1660e01b815260040162000d4592919062001f0a565b600060405180830381600087803b15801562000d6057600080fd5b505af115801562000d75573d6000803e3d6000fd5b50505050856001600160a01b031663ba201ba8836040518060400160405280886001600160a01b03168152602001876040015160405160200162000dba919062002022565b6040516020818303038152906040528152506040518363ffffffff1660e01b815260040162000deb92919062001f0a565b600060405180830381600087803b15801562000e0657600080fd5b505af115801562000e1b573d6000803e3d6000fd5b505050505b50949350505050565b6040805160018082528183019092526000918291906020808301908036833701905050905060018160008151811062000e665762000e6662001d51565b6001600160a01b039290921660209283029190910190910152604080516001808252818301909252600091816020015b60408051808201909152600081526060602082015281526020019060019003908162000e96579050509050838160008151811062000ed85762000ed862001d51565b6020908102919091018101516001600160a01b0390921690915260405162000f039184910162001d67565b6040516020818303038152906040528160008151811062000f285762000f2862001d51565b6020908102919091018101510152604051638fcd793d60e01b81526001600160a01b03881690638fcd793d9062000f689089908990869060040162001e38565b6020604051808303816000875af115801562000f88573d6000803e3d6000fd5b505050506040513d601f19601f8201168201806040525081019062000fae919062001c79565b979650505050505050565b60408051600180825281830190925260009160208083019080368337019050509050828160008151811062000ff25762000ff262001d51565b602090810291909101810191909152604051600160fd1b918101919091526bffffffffffffffffffffffff19606086901b1660218201526000906035016040516020818303038152906040526200104990620020cd565b835160405163921f717560e01b81529192506001600160a01b0387169163921f7175916200107f918591908790600401620020f5565b600060405180830381600087803b1580156200109a57600080fd5b505af1158015620010af573d6000803e3d6000fd5b505050505050505050565b6060600080600080516020620044258339815191526040805133602082015290810187905242606082015290915060800160405160208183030381529060405280519060200120915060405180602001620011159062001310565b818103601f1990810183526003840154601f909201166040818101815263dc9cc64560e01b8252306020808401919091528151808301835286546001600160a01b0390811682528183018c90528351610120810185528b515181528b51840151938101939093528a518401519383019390935289516060908101519083015289516080908101516001600160401b031690830152895160a090810151841690830152895160c090810151339685169594929392918301911615620011df578a5160c00151620011e1565b335b6001600160a01b031681526020018a6000015160e0015181526020018a6000015161010001516001600160a01b03168152506040516020016200122995949392919062002156565b60408051601f198184030181529082905262001249929160200162001ddc565b6040516020818303038152906040529250509250929050565b60008260200183518381836000f59250506001600160a01b03821690506200028d5760405163ef35ca1960e01b815260040160405180910390fd5b600081602001825180826000f09250506001600160a01b03821690506200037d5760405163ef35ca1960e01b815260040160405180910390fd5b6001600160a01b038116620012ff576040516302e47d1560e41b815260040160405180910390fd5b50565b6103d4806200226583390190565b611dec806200263983390190565b6001600160a01b0381168114620012ff57600080fd5b600080600080608085870312156200134b57600080fd5b843562001358816200131e565b935060208501356200136a816200131e565b925060408501356200137c816200131e565b915060608501356200138e816200131e565b939692955090935050565b600060208284031215620013ac57600080fd5b5035919050565b634e487b7160e01b600052604160045260246000fd5b604051608081016001600160401b0381118282101715620013ee57620013ee620013b3565b60405290565b604051606081016001600160401b0381118282101715620013ee57620013ee620013b3565b604080519081016001600160401b0381118282101715620013ee57620013ee620013b3565b60405161012081016001600160401b0381118282101715620013ee57620013ee620013b3565b604051601f8201601f191681016001600160401b03811182821017156200148f576200148f620013b3565b604052919050565b600082601f830112620014a957600080fd5b81356001600160401b03811115620014c557620014c5620013b3565b620014da601f8201601f191660200162001464565b818152846020838601011115620014f057600080fd5b816020850160208301376000918101602001919091529392505050565b80356001600160401b03811681146200037d57600080fd5b80356200037d816200131e565b60006001600160401b038211156200154e576200154e620013b3565b5060051b60200190565b60038110620012ff57600080fd5b803560ff811681146200037d57600080fd5b600082601f8301126200158a57600080fd5b81356020620015a36200159d8362001532565b62001464565b82815260079290921b84018101918181019086841115620015c357600080fd5b8286015b84811015620016355760808189031215620015e25760008081fd5b620015ec620013c9565b813560068110620015fd5760008081fd5b8152818501358582015260408083013562001618816200131e565b9082015260608281013590820152835291830191608001620015c7565b509695505050505050565b600082601f8301126200165257600080fd5b81356020620016656200159d8362001532565b828152606092830285018201928282019190878511156200168557600080fd5b8387015b85811015620016ee5781818a031215620016a35760008081fd5b620016ad620013f4565b8135620016ba8162001558565b8152620016c982870162001566565b868201526040620016dc81840162001566565b90820152845292840192810162001689565b5090979650505050505050565b6000606082840312156200170e57600080fd5b62001718620013f4565b905081356001600160401b03808211156200173257600080fd5b818401915084601f8301126200174757600080fd5b813560206200175a6200159d8362001532565b82815260069290921b840181019181810190888411156200177a57600080fd5b948201945b83861015620017d7576040868a0312156200179a5760008081fd5b620017a462001419565b8635620017b18162001558565b8152620017c087850162001566565b81850152825260409590950194908201906200177f565b86525085810135935082841115620017ee57600080fd5b620017fc8785880162001578565b908501525060408401359150808211156200181657600080fd5b50620018258482850162001640565b60408301525092915050565b6000606082840312156200184457600080fd5b6200184e620013f4565b9050813580151581146200186157600080fd5b81526020828101356001600160401b03808211156200187f57600080fd5b818501915085601f8301126200189457600080fd5b8135620018a56200159d8262001532565b81815260059190911b83018401908481019088831115620018c557600080fd5b938501935b82851015620018f0578435620018e0816200131e565b82529385019390850190620018ca565b808688015250505060408501359250808311156200190d57600080fd5b50506200182584828501620016fb565b600082601f8301126200192f57600080fd5b81356020620019426200159d8362001532565b82815260059290921b840181019181810190868411156200196257600080fd5b8286015b84811015620016355780356001600160401b03811115620019875760008081fd5b620019978986838b010162001497565b84525091830191830162001966565b600060608284031215620019b957600080fd5b620019c3620013f4565b905081356001600160401b0380821115620019dd57600080fd5b908301906101208286031215620019f357600080fd5b620019fd6200143e565b82358281111562001a0d57600080fd5b62001a1b8782860162001497565b82525060208301358281111562001a3157600080fd5b62001a3f8782860162001497565b602083015250604083013560408201526060830135606082015262001a67608084016200150d565b608082015262001a7a60a0840162001525565b60a082015262001a8d60c0840162001525565b60c082015260e083013560e082015261010062001aac81850162001525565b908201528352602084013591508082111562001ac757600080fd5b62001ad58583860162001831565b6020840152604084013591508082111562001aef57600080fd5b5062001825848285016200191d565b60006020828403121562001b1157600080fd5b604051602081016001600160401b03828210818311171562001b375762001b37620013b3565b81604052829350843591508082111562001b5057600080fd5b5062001b5f8582860162001497565b8252505092915050565b60006020828403121562001b7c57600080fd5b81356001600160401b038082111562001b9457600080fd5b908301906080828603121562001ba957600080fd5b62001bb3620013c9565b82358281111562001bc357600080fd5b62001bd18782860162001497565b82525060208301358281111562001be757600080fd5b62001bf58782860162001497565b60208301525060408301358281111562001c0e57600080fd5b62001c1c87828601620019a6565b60408301525060608301358281111562001c3557600080fd5b62001c438782860162001afe565b60608301525095945050505050565b60006020828403121562001c6557600080fd5b813562001c72816200131e565b9392505050565b60006020828403121562001c8c57600080fd5b5051919050565b60006001820162001cb457634e487b7160e01b600052601160045260246000fd5b5060010190565b60005b8381101562001cd857818101518382015260200162001cbe565b50506000910152565b6000815180845262001cfb81602086016020860162001cbb565b601f01601f19169290920160200192915050565b60608152600062001d24606083018662001ce1565b828103602084015262001d38818662001ce1565b91505060018060a01b0383166040830152949350505050565b634e487b7160e01b600052603260045260246000fd5b6020808252825182820181905260009190848201906040850190845b8181101562001daa5783516001600160a01b03168352928401929184019160010162001d83565b50909695505050505050565b6001600160a01b0383168152604060208201819052600090620009fc9083018462001ce1565b6000835162001df081846020880162001cbb565b83519083019062001e0681836020880162001cbb565b01949350505050565b60018060a01b0381511682526000602082015160406020850152620009fc604085018262001ce1565b60608152600062001e4d606083018662001ce1565b6020838203818501528186518084528284019150828160051b85010183890160005b8381101562001ea157601f1987840301855262001e8e83835162001ce1565b9486019492509085019060010162001e6f565b50508681036040880152875180825284820195509250600583901b81018401915083880160005b8481101562001efa57601f1983850301875262001ee784835162001e0f565b9686019693509085019060010162001ec8565b50919a9950505050505050505050565b828152604060208201526000620009fc604083018462001e0f565b634e487b7160e01b600052602160045260246000fd5b60038110620012ff57620012ff62001f25565b60008151808452602080850194506020840160005b8381101562001fbd57815180516006811062001f835762001f8362001f25565b885280840151848901526040808201516001600160a01b031690890152606090810151908801526080909601959082019060010162001f63565b509495945050505050565b60008151808452602080850194506020840160005b8381101562001fbd578151805162001ff58162001f3b565b88528084015160ff908116858a015260409182015116908801526060909601959082019060010162001fdd565b6020808252825160608383015280516080840181905260009291820190839060a08601905b808310156200208257835180516200205f8162001f3b565b835285015160ff1685830152928401926001929092019160409091019062002047565b50838701519350601f19925082868203016040870152620020a4818562001f4e565b93505050604085015181858403016060860152620020c3838262001fc8565b9695505050505050565b80516020808301519190811015620020ef576000198160200360031b1b821691505b50919050565b838152600060206060602084015262002112606084018662001ce1565b83810360408501528451808252602080870192019060005b8181101562002148578351835292840192918401916001016200212a565b509098975050505050505050565b600060018060a01b038088168352808716602084015263ffffffff60e01b865116604084015280602087015116606084015280855116608084015250602084015160a083015260e060c083015282516101208060e0850152620021be61020085018362001ce1565b9150602085015161010060df198685030181870152620021df848362001ce1565b9350604087015183870152606087015161014087015260808701519250620022136101608701846001600160401b03169052565b60a08701516001600160a01b0390811661018088015260c088015181166101a088015260e08801516101c0880152908701519081166101e08701529150620022589050565b5097965050505050505056fe60806040526040516103d43803806103d483398101604081905261002291610268565b61002c8282610033565b5050610352565b61003c82610092565b6040516001600160a01b038316907fbc7cd75a20ee27fd9adebab32041f755214dbc6bffa90cc0225b39da2e5c2d3b90600090a280511561008657610081828261010e565b505050565b61008e610185565b5050565b806001600160a01b03163b6000036100cd57604051634c9c8ce360e01b81526001600160a01b03821660048201526024015b60405180910390fd5b7f360894a13ba1a3210667c828492db98dca3e2076cc3735a920a3ca505d382bbc80546001600160a01b0319166001600160a01b0392909216919091179055565b6060600080846001600160a01b03168460405161012b9190610336565b600060405180830381855af49150503d8060008114610166576040519150601f19603f3d011682016040523d82523d6000602084013e61016b565b606091505b50909250905061017c8583836101a6565b95945050505050565b34156101a45760405163b398979f60e01b815260040160405180910390fd5b565b6060826101bb576101b682610205565b6101fe565b81511580156101d257506001600160a01b0384163b155b156101fb57604051639996b31560e01b81526001600160a01b03851660048201526024016100c4565b50805b9392505050565b8051156102155780518082602001fd5b604051630a12f52160e11b815260040160405180910390fd5b634e487b7160e01b600052604160045260246000fd5b60005b8381101561025f578181015183820152602001610247565b50506000910152565b6000806040838503121561027b57600080fd5b82516001600160a01b038116811461029257600080fd5b60208401519092506001600160401b03808211156102af57600080fd5b818501915085601f8301126102c357600080fd5b8151818111156102d5576102d561022e565b604051601f8201601f19908116603f011681019083821181831017156102fd576102fd61022e565b8160405282815288602084870101111561031657600080fd5b610327836020830160208801610244565b80955050505050509250929050565b60008251610348818460208701610244565b9190910192915050565b6074806103606000396000f3fe6080604052600a600c565b005b60186014601a565b6051565b565b6000604c7f360894a13ba1a3210667c828492db98dca3e2076cc3735a920a3ca505d382bbc546001600160a01b031690565b905090565b3660008037600080366000845af43d6000803e808015606f573d6000f35b3d6000fd60806040523480156200001157600080fd5b5060405162001dec38038062001dec833981016040819052620000349162000d8b565b6200003e62000224565b620000a58380517f9c16cba5b9f2fcbd952b38bec34079e93cbe107475c15fc20705f4e704198a0080546020909301516001600160a01b03166001600160a01b031960e09390931c600160a01b02929092166001600160c01b031990931692909217179055565b81517fd2f24d4f172e4e84e48e7c4125b6e904c29e5eba33ad4938fee51dd5dbd4b60080546001600160a01b0319166001600160a01b0390921691909117905560208201517fd2f24d4f172e4e84e48e7c4125b6e904c29e5eba33ad4938fee51dd5dbd4b60155805160208201516200011f919062000238565b620001358184602001516200028f60201b60201c565b6200013f620003e0565b7f438e2013c1d3a5bb9642eb30342f1d83ec0d3add620b71cdaf5043d9570b0a9580546001600160a01b0319166001600160a01b03861617905560006200019360008051602062001d6c8339815191525490565b9050620001a2866001620003ef565b6200020e8187600082815260008051602062001dcc8339815191526020908152604080832080546001600160a01b0319166001600160a01b039590951694851790559282527fc21004fcc619240a31f006438274d15cd813308303284436eef6055f0fdcb60190522055565b6200021862000415565b505050505050620010b0565b620002366301ffc9a760e01b6200046a565b565b60008051602062001d6c8339815191527f6569bde4a160c636ea8b8d11acb83a60d7fec0b8f2e09389306cba0e1340df0262000275848262000f0d565b506003810162000286838262000f0d565b50600090555050565b60008051602062001d8c83398151915280546001600160a01b0319166001600160a01b038316179055608082015160008051602062001dcc83398151915290620002d9906200054a565b60c0830151620002e990620005fe565b60e0830151620002f99062000626565b6101008301516200030a90620006d4565b6060830151600382015560a08301516001600160a01b03161562000333578260a0015162000349565b73eeeeeeeeeeeeeeeeeeeeeeeeeeeeeeeeeeeeeeee5b6004820180546001600160a01b03199081166001600160a01b0393841617909155604085015160028401556080850151600684018054600160a01b600160e01b031916600160a01b6001600160401b039093169290920291909117905560c0850151600584018054831691841691909117905560e08501516007840155610100909401516008909201805490941691161790915550565b62000236607b6103e862000776565b620004118282604051806020016040528060008152506200086f60201b60201c565b5050565b620004276380ac58cd60e01b6200046a565b62000439635b5e139f60e01b6200046a565b6200044b638c65f84d60e01b6200046a565b6200045d6307f5828d60e41b6200046a565b6200023663f5306a5360e01b5b6001600160e01b0319811660009081527f81088bbc801e045ea3e7620779ab349988f58afbdfba10dff983df3f33522b00602052604090205460ff161515600114620004f9576001600160e01b0319811660009081527f81088bbc801e045ea3e7620779ab349988f58afbdfba10dff983df3f33522b0060205260409020805460ff1916600117905562000512565b604051637967f77d60e11b815260040160405180910390fd5b6040516001600160e01b03198216907f78f84e5b1c5c05be2b5ad3800781dd404d6d6c6302bc755c0fe20f58a33a7f2290600090a250565b60008051602062001d8c833981519152546001600160a01b03166001600160a01b0316638120f0ba6040518163ffffffff1660e01b8152600401602060405180830381865afa158015620005a2573d6000803e3d6000fd5b505050506040513d601f19601f82011682018060405250810190620005c8919062000fd9565b6001600160401b0316816001600160401b03161115620005fb576040516341191e9760e11b815260040160405180910390fd5b50565b6001600160a01b038116620005fb57604051631492df6160e21b815260040160405180910390fd5b60008051602062001d8c8339815191525460408051632cbb9d1360e01b8152905160008051602062001dcc833981519152926001600160a01b031691632cbb9d139160048083019260209291908290030181865afa1580156200068d573d6000803e3d6000fd5b505050506040513d601f19601f82011682018060405250810190620006b3919062000ffe565b821115620004115760405163c3983b9160e01b815260040160405180910390fd5b6001600160a01b038116620006e65750565b6040516301ffc9a760e01b8152635cf4ee9160e01b60048201526001600160a01b038216906301ffc9a790602401602060405180830381865afa15801562000732573d6000803e3d6000fd5b505050506040513d601f19601f8201168201806040525081019062000758919062001018565b620005fb57604051630e88bf4b60e01b815260040160405180910390fd5b8160000362000798576040516306c1cb6d60e51b815260040160405180910390fd5b6127108161ffff161115620007c057604051634e7ee09d60e11b815260040160405180910390fd5b60008281527f3c2290b88407133303e904ceb4ee7d0d14164eda8a629372d8406216ceb57e00602081905260409091205461ffff16801562000815576040516306c1cb6d60e51b815260040160405180910390fd5b60008481526020838152604091829020805461ffff191661ffff8716908117909155915191825285917f674ed3e313f9254fbafb8a51fa62be8b5f0a767d64c64cfe6f099c80c779a528910160405180910390a250505050565b6200087b838362000902565b6001600160a01b0383163b15620008fd5760008051602062001d6c833981519152548281035b6001810190620008b79060009087908662000a3c565b620008d5576040516368d2bf6b60e11b815260040160405180910390fd5b818110620008a1578160008051602062001d6c8339815191525414620008fa57600080fd5b50505b505050565b60008051602062001d6c833981519152546000829003620009365760405163b562e8dd60e01b815260040160405180910390fd5b6001600160a01b03831660008181527f6569bde4a160c636ea8b8d11acb83a60d7fec0b8f2e09389306cba0e1340df056020908152604080832080546801000000000000000188020190558483527f6569bde4a160c636ea8b8d11acb83a60d7fec0b8f2e09389306cba0e1340df0490915281206001851460e11b4260a01b1783179055828401908390839060008051602062001dac8339815191528180a4600183015b81811462000a03578083600060008051602062001dac833981519152600080a4600101620009da565b508160000362000a2557604051622e076360e81b815260040160405180910390fd5b60008051602062001d6c8339815191525550505050565b604051630a85bd0160e11b81526000906001600160a01b0385169063150b7a029062000a739033908990889088906004016200103c565b6020604051808303816000875af192505050801562000ab1575060408051601f3d908101601f1916820190925262000aae9181019062001092565b60015b62000b13573d80801562000ae2576040519150601f19603f3d011682016040523d82523d6000602084013e62000ae7565b606091505b50805160000362000b0b576040516368d2bf6b60e11b815260040160405180910390fd5b805181602001fd5b6001600160e01b031916630a85bd0160e11b149050949350505050565b6001600160a01b0381168114620005fb57600080fd5b805162000b538162000b30565b919050565b634e487b7160e01b600052604160045260246000fd5b60405161012081016001600160401b038111828210171562000b945762000b9462000b58565b60405290565b604080519081016001600160401b038111828210171562000b945762000b9462000b58565b80516001600160e01b03198116811462000b5357600080fd5b60005b8381101562000bf557818101518382015260200162000bdb565b50506000910152565b600082601f83011262000c1057600080fd5b81516001600160401b038082111562000c2d5762000c2d62000b58565b604051601f8301601f19908116603f0116810190828211818310171562000c585762000c5862000b58565b8160405283815286602085880101111562000c7257600080fd5b62000c8584602083016020890162000bd8565b9695505050505050565b80516001600160401b038116811462000b5357600080fd5b6000610120828403121562000cbb57600080fd5b62000cc562000b6e565b82519091506001600160401b038082111562000ce057600080fd5b62000cee8583860162000bfe565b8352602084015191508082111562000d0557600080fd5b5062000d148482850162000bfe565b602083015250604082015160408201526060820151606082015262000d3c6080830162000c8f565b608082015262000d4f60a0830162000b46565b60a082015262000d6260c0830162000b46565b60c082015260e082015160e082015261010062000d8181840162000b46565b9082015292915050565b600080600080600085870360e081121562000da557600080fd5b865162000db28162000b30565b602088015190965062000dc58162000b30565b94506040603f198201121562000dda57600080fd5b62000de462000b9a565b62000df26040890162000bbf565b8152606088015162000e048162000b30565b602082015293506040607f198201121562000e1e57600080fd5b5062000e2962000b9a565b608087015162000e398162000b30565b815260a0870151602082015260c08701519092506001600160401b0381111562000e6257600080fd5b62000e708882890162000ca7565b9150509295509295909350565b600181811c9082168062000e9257607f821691505b60208210810362000eb357634e487b7160e01b600052602260045260246000fd5b50919050565b601f821115620008fd576000816000526020600020601f850160051c8101602086101562000ee45750805b601f850160051c820191505b8181101562000f055782815560010162000ef0565b505050505050565b81516001600160401b0381111562000f295762000f2962000b58565b62000f418162000f3a845462000e7d565b8462000eb9565b602080601f83116001811462000f79576000841562000f605750858301515b600019600386901b1c1916600185901b17855562000f05565b600085815260208120601f198616915b8281101562000faa5788860151825594840194600190910190840162000f89565b508582101562000fc95787850151600019600388901b60f8161c191681555b5050505050600190811b01905550565b60006020828403121562000fec57600080fd5b62000ff78262000c8f565b9392505050565b6000602082840312156200101157600080fd5b5051919050565b6000602082840312156200102b57600080fd5b8151801515811462000ff757600080fd5b600060018060a01b0380871683528086166020840152508360408301526080606083015282518060808401526200107b8160a085016020870162000bd8565b601f01601f19169190910160a00195945050505050565b600060208284031215620010a557600080fd5b62000ff78262000bbf565b610cac80620010c06000396000f3fe6080604052600436106100e15760003560e01c806377460cd31161007f578063ac9650d811610059578063ac9650d814610378578063b3a5be6d146103a5578063b8307376146103ba578063f9d5d22c14610416576100e8565b806377460cd3146102ca5780638934207f14610307578063ac7ee6261461033b576100e8565b806362452006116100bb578063624520061461019657806369d9346b146101f2578063702515631461024e57806373fc5a051461028b576100e8565b80630c3a01b1146100f25780631d214b4d146101125780633ded10de14610168576100e8565b366100e857005b6100f0610436565b005b3480156100fe57600080fd5b506100f061010d366004610a68565b610491565b34801561011e57600080fd5b507fc21004fcc619240a31f006438274d15cd813308303284436eef6055f0fdcb605546001600160a01b03165b6040516001600160a01b0390911681526020015b60405180910390f35b34801561017457600080fd5b50610188610183366004610a68565b610573565b60405190815260200161015f565b3480156101a257600080fd5b506100f06101b1366004610a99565b7fc21004fcc619240a31f006438274d15cd813308303284436eef6055f0fdcb60580546001600160a01b0319166001600160a01b0392909216919091179055565b3480156101fe57600080fd5b506100f061020d366004610a99565b7fc21004fcc619240a31f006438274d15cd813308303284436eef6055f0fdcb60880546001600160a01b0319166001600160a01b0392909216919091179055565b34801561025a57600080fd5b507fc21004fcc619240a31f006438274d15cd813308303284436eef6055f0fdcb604546001600160a01b031661014b565b34801561029757600080fd5b506100f06102a6366004610a68565b7fc21004fcc619240a31f006438274d15cd813308303284436eef6055f0fdcb60355565b3480156102d657600080fd5b507fc21004fcc619240a31f006438274d15cd813308303284436eef6055f0fdcb606546001600160a01b031661014b565b34801561031357600080fd5b507fc21004fcc619240a31f006438274d15cd813308303284436eef6055f0fdcb60354610188565b34801561034757600080fd5b507fc21004fcc619240a31f006438274d15cd813308303284436eef6055f0fdcb608546001600160a01b031661014b565b34801561038457600080fd5b50610398610393366004610abd565b6106cd565b60405161015f9190610b56565b3480156103b157600080fd5b506101886107ea565b3480156103c657600080fd5b506100f06103d5366004610a99565b7fc21004fcc619240a31f006438274d15cd813308303284436eef6055f0fdcb60480546001600160a01b0319166001600160a01b0392909216919091179055565b34801561042257600080fd5b506100f0610431366004610a68565b6108ad565b6000610440610922565b9050806001600160a01b03163b60000361046d576040516321f27f0d60e21b815260040160405180910390fd5b3660008037600080366000845af43d6000803e80801561048c573d6000f35b3d6000fd5b60006104c47fc21004fcc619240a31f006438274d15cd813308303284436eef6055f0fdcb606546001600160a01b031690565b90506000816001600160a01b0316630eac306d6040518163ffffffff1660e01b8152600401602060405180830381865afa158015610506573d6000803e3d6000fd5b505050506040513d601f19601f8201168201806040525081019061052a9190610bd0565b90508083101561054d57604051631a23d64760e11b815260040160405180910390fd5b50507fc21004fcc619240a31f006438274d15cd813308303284436eef6055f0fdcb60255565b60007fc21004fcc619240a31f006438274d15cd813308303284436eef6055f0fdcb6008161059f6107ea565b9050838111156105b3575060009392505050565b6006820154604051639262b1b360e01b815230600482015285916001600160a01b031690639262b1b390602401602060405180830381865afa1580156105fd573d6000803e3d6000fd5b505050506040513d601f19601f820116820180604052508101906106219190610bd0565b1115610631575060009392505050565b60088201546001600160a01b0316156106c2576008820154604051635cf4ee9160e01b815260048101839052602481018690526001600160a01b0390911690635cf4ee9190604401602060405180830381865afa158015610696573d6000803e3d6000fd5b505050506040513d601f19601f820116820180604052508101906106ba9190610bd0565b949350505050565b506002015492915050565b6060818067ffffffffffffffff8111156106e9576106e9610be9565b60405190808252806020026020018201604052801561071c57816020015b60608152602001906001900390816107075790505b50915060005b818110156107e2576000803087878581811061074057610740610bff565b90506020028101906107529190610c15565b604051610760929190610c63565b600060405180830381855af49150503d806000811461079b576040519150601f19603f3d011682016040523d82523d6000602084013e6107a0565b606091505b509150915081156107ce57808584815181106107be576107be610bff565b60200260200101819052506107d8565b3d6000803e3d6000fd5b5050600101610722565b505092915050565b7fc21004fcc619240a31f006438274d15cd813308303284436eef6055f0fdcb60754600090801561081a57919050565b7fc21004fcc619240a31f006438274d15cd813308303284436eef6055f0fdcb6065460408051632cbb9d1360e01b815290516001600160a01b0390921691632cbb9d13916004808201926020929091908290030181865afa158015610883573d6000803e3d6000fd5b505050506040513d601f19601f820116820180604052508101906108a79190610bd0565b91505090565b7fc21004fcc619240a31f006438274d15cd813308303284436eef6055f0fdcb6078190556040517fc21004fcc619240a31f006438274d15cd813308303284436eef6055f0fdcb6009082907fab14a23e88fb272313490d4f20d63098e64fd38304c0e07a377db98c2b39b92f90600090a25050565b7f9c16cba5b9f2fcbd952b38bec34079e93cbe107475c15fc20705f4e704198a0054600090600160a01b900460e01b81806109847f9c16cba5b9f2fcbd952b38bec34079e93cbe107475c15fc20705f4e704198a00546001600160a01b031690565b6040516001600160e01b03196000351660248201526001600160a01b039190911690849060440160408051601f198184030181529181526020820180516001600160e01b03166001600160e01b03199094169390931790925290516109e99190610c73565b600060405180830381855afa9150503d8060008114610a24576040519150601f19603f3d011682016040523d82523d6000602084013e610a29565b606091505b509150915081610a4c5760405163391aa44560e01b815260040160405180910390fd5b80806020019051810190610a609190610c8f565b935050505090565b600060208284031215610a7a57600080fd5b5035919050565b6001600160a01b0381168114610a9657600080fd5b50565b600060208284031215610aab57600080fd5b8135610ab681610a81565b9392505050565b60008060208385031215610ad057600080fd5b823567ffffffffffffffff80821115610ae857600080fd5b818501915085601f830112610afc57600080fd5b813581811115610b0b57600080fd5b8660208260051b8501011115610b2057600080fd5b60209290920196919550909350505050565b60005b83811015610b4d578181015183820152602001610b35565b50506000910152565b6000602080830181845280855180835260408601915060408160051b870101925083870160005b82811015610bc357878503603f1901845281518051808752610ba4818989018a8501610b32565b601f01601f191695909501860194509285019290850190600101610b7d565b5092979650505050505050565b600060208284031215610be257600080fd5b5051919050565b634e487b7160e01b600052604160045260246000fd5b634e487b7160e01b600052603260045260246000fd5b6000808335601e19843603018112610c2c57600080fd5b83018035915067ffffffffffffffff821115610c4757600080fd5b602001915036819003821315610c5c57600080fd5b9250929050565b8183823760009101908152919050565b60008251610c85818460208701610b32565b9190910192915050565b600060208284031215610ca157600080fd5b8151610ab681610a81566569bde4a160c636ea8b8d11acb83a60d7fec0b8f2e09389306cba0e1340df00c21004fcc619240a31f006438274d15cd813308303284436eef6055f0fdcb606ddf252ad1be2c89b69c2b068fc378daa952ba7f163c4a11628f55a4df523b3efc21004fcc619240a31f006438274d15cd813308303284436eef6055f0fdcb6009e34afa7b4d27d347d25d9d9dab4f1a106fa081382e6c4243e834d093e787d00","linkReferences":{}},"methodIdentifiers":{"__Architect_init(address,address,address,address)":"1a424b66","createSpace((string,string,((string,string,uint256,uint256,uint64,address,address,uint256,address),(bool,address[],((uint8,uint8)[],(uint8,uint256,address,uint256)[],(uint8,uint8,uint8)[])),string[]),(string)))":"7d8c4522","getSpaceArchitectImplementations()":"545efb2d","getSpaceByTokenId(uint256)":"673f0dd5","getTokenIdBySpace(address)":"c0bc6796","setSpaceArchitectImplementations(address,address,address,address)":"cd7242b8"},"id":102}