{"abi":[{"type":"function","name":"__Architect_init","inputs":[{"name":"ownerImplementation","type":"address","internalType":"contract ISpaceOwner"},{"name":"userEntitlementImplementation","type":"address","internalType":"contract IUserEntitlement"},{"name":"ruleEntitlementImplementation","type":"address","internalType":"contract IRuleEntitlement"},{"name":"walletLink","type":"address","internalType":"contract IWalletLink"},{"name":"entitlementChecker","type":"address","internalType":"contract IEntitlementChecker"}],"outputs":[],"stateMutability":"nonpayable"},{"type":"function","name":"createSpace","inputs":[{"name":"spaceInfo","type":"tuple","internalType":"struct IArchitectBase.SpaceInfo","components":[{"name":"name","type":"string","internalType":"string"},{"name":"uri","type":"string","internalType":"string"},{"name":"membership","type":"tuple","internalType":"struct IArchitectBase.Membership","components":[{"name":"settings","type":"tuple","internalType":"struct IMembershipBase.Membership","components":[{"name":"name","type":"string","internalType":"string"},{"name":"symbol","type":"string","internalType":"string"},{"name":"price","type":"uint256","internalType":"uint256"},{"name":"maxSupply","type":"uint256","internalType":"uint256"},{"name":"duration","type":"uint64","internalType":"uint64"},{"name":"currency","type":"address","internalType":"address"},{"name":"feeRecipient","type":"address","internalType":"address"},{"name":"freeAllocation","type":"uint256","internalType":"uint256"},{"name":"pricingModule","type":"address","internalType":"address"}]},{"name":"requirements","type":"tuple","internalType":"struct IArchitectBase.MembershipRequirements","components":[{"name":"everyone","type":"bool","internalType":"bool"},{"name":"users","type":"address[]","internalType":"address[]"},{"name":"ruleData","type":"tuple","internalType":"struct IRuleEntitlement.RuleData","components":[{"name":"operations","type":"tuple[]","internalType":"struct IRuleEntitlement.Operation[]","components":[{"name":"opType","type":"uint8","internalType":"enum IRuleEntitlement.CombinedOperationType"},{"name":"index","type":"uint8","internalType":"uint8"}]},{"name":"checkOperations","type":"tuple[]","internalType":"struct IRuleEntitlement.CheckOperation[]","components":[{"name":"opType","type":"uint8","internalType":"enum IRuleEntitlement.CheckOperationType"},{"name":"chainId","type":"uint256","internalType":"uint256"},{"name":"contractAddress","type":"address","internalType":"address"},{"name":"threshold","type":"uint256","internalType":"uint256"}]},{"name":"logicalOperations","type":"tuple[]","internalType":"struct IRuleEntitlement.LogicalOperation[]","components":[{"name":"logOpType","type":"uint8","internalType":"enum IRuleEntitlement.LogicalOperationType"},{"name":"leftOperationIndex","type":"uint8","internalType":"uint8"},{"name":"rightOperationIndex","type":"uint8","internalType":"uint8"}]}]}]},{"name":"permissions","type":"string[]","internalType":"string[]"}]},{"name":"channel","type":"tuple","internalType":"struct IArchitectBase.ChannelInfo","components":[{"name":"metadata","type":"string","internalType":"string"}]}]}],"outputs":[{"name":"","type":"address","internalType":"address"}],"stateMutability":"nonpayable"},{"type":"function","name":"getSpaceArchitectImplementations","inputs":[],"outputs":[{"name":"spaceToken","type":"address","internalType":"contract ISpaceOwner"},{"name":"userEntitlementImplementation","type":"address","internalType":"contract IUserEntitlement"},{"name":"ruleEntitlementImplementation","type":"address","internalType":"contract IRuleEntitlement"},{"name":"walletLink","type":"address","internalType":"contract IWalletLink"},{"name":"entitlementChecker","type":"address","internalType":"contract IEntitlementChecker"}],"stateMutability":"view"},{"type":"function","name":"getSpaceByTokenId","inputs":[{"name":"tokenId","type":"uint256","internalType":"uint256"}],"outputs":[{"name":"","type":"address","internalType":"address"}],"stateMutability":"view"},{"type":"function","name":"getTokenIdBySpace","inputs":[{"name":"space","type":"address","internalType":"address"}],"outputs":[{"name":"","type":"uint256","internalType":"uint256"}],"stateMutability":"view"},{"type":"function","name":"setSpaceArchitectImplementations","inputs":[{"name":"spaceToken","type":"address","internalType":"contract ISpaceOwner"},{"name":"userEntitlementImplementation","type":"address","internalType":"contract IUserEntitlement"},{"name":"ruleEntitlementImplementation","type":"address","internalType":"contract IRuleEntitlement"},{"name":"walletLink","type":"address","internalType":"contract IWalletLink"},{"name":"entitlementChecker","type":"address","internalType":"contract IEntitlementChecker"}],"outputs":[],"stateMutability":"nonpayable"},{"type":"event","name":"Initialized","inputs":[{"name":"version","type":"uint32","indexed":false,"internalType":"uint32"}],"anonymous":false},{"type":"event","name":"InterfaceAdded","inputs":[{"name":"interfaceId","type":"bytes4","indexed":true,"internalType":"bytes4"}],"anonymous":false},{"type":"event","name":"InterfaceRemoved","inputs":[{"name":"interfaceId","type":"bytes4","indexed":true,"internalType":"bytes4"}],"anonymous":false},{"type":"event","name":"OwnershipTransferred","inputs":[{"name":"previousOwner","type":"address","indexed":true,"internalType":"address"},{"name":"newOwner","type":"address","indexed":true,"internalType":"address"}],"anonymous":false},{"type":"event","name":"Paused","inputs":[{"name":"account","type":"address","indexed":false,"internalType":"address"}],"anonymous":false},{"type":"event","name":"SpaceCreated","inputs":[{"name":"owner","type":"address","indexed":true,"internalType":"address"},{"name":"tokenId","type":"uint256","indexed":true,"internalType":"uint256"},{"name":"space","type":"address","indexed":true,"internalType":"address"}],"anonymous":false},{"type":"event","name":"Unpaused","inputs":[{"name":"account","type":"address","indexed":false,"internalType":"address"}],"anonymous":false},{"type":"error","name":"Architect__InvalidAddress","inputs":[]},{"type":"error","name":"Architect__InvalidNetworkId","inputs":[]},{"type":"error","name":"Architect__InvalidStringLength","inputs":[]},{"type":"error","name":"Architect__NotContract","inputs":[]},{"type":"error","name":"Factory__FailedDeployment","inputs":[]},{"type":"error","name":"Initializable_InInitializingState","inputs":[]},{"type":"error","name":"Initializable_NotInInitializingState","inputs":[]},{"type":"error","name":"Introspection_AlreadySupported","inputs":[]},{"type":"error","name":"Introspection_NotSupported","inputs":[]},{"type":"error","name":"Ownable__NotOwner","inputs":[{"name":"account","type":"address","internalType":"address"}]},{"type":"error","name":"Ownable__ZeroAddress","inputs":[]},{"type":"error","name":"Pausable__NotPaused","inputs":[]},{"type":"error","name":"Pausable__Paused","inputs":[]},{"type":"error","name":"ReentrancyGuard__ReentrantCall","inputs":[]},{"type":"error","name":"Validator__InvalidAddress","inputs":[]}],"bytecode":{"object":"0x608060405234801561001057600080fd5b5061001961001e565b6100c4565b7f59b501c3653afc186af7d48dda36cf6732bd21629a6295693664240a6ef520008054640100000000900460ff161561006a576040516366008a2d60e01b815260040160405180910390fd5b805463ffffffff90811610156100c157805463ffffffff191663ffffffff90811782556040519081527fe9c9b456cb2994b80aeef036cf59d26e9617df80f816a6ee5a5b4166e07e2f5c9060200160405180910390a15b50565b61435380620000d46000396000f3fe60806040523480156200001157600080fd5b50600436106200006a5760003560e01c8063343852cb146200006f578063545efb2d1462000088578063673f0dd514620000d157806379cba28a14620001015780637d8c45221462000118578063c0bc6796146200012f575b600080fd5b6200008662000080366004620013ad565b62000155565b005b62000092620001bc565b604080516001600160a01b03968716815294861660208601529285169284019290925283166060830152909116608082015260a0015b60405180910390f35b620000e8620000e236600462001429565b6200028e565b6040516001600160a01b039091168152602001620000c8565b6200008662000112366004620013ad565b620002cc565b620000e86200012936600462001bf9565b62000317565b620001466200014036600462001ce2565b62000406565b604051908152602001620000c8565b7f4675fa8241f86f37157864d3d49b85ad4b164352c516da28e1678a90470ae300546001600160a01b03163314620001a6576040516365f4906560e01b815233600482015260240160405180910390fd5b620001b5858585858562000444565b5050505050565b60008060008060006200027d60008051602062004333833981519152547f9e34afa7b4d27d347d25d9d9dab4f1a106fa081382e6c4243e834d093e787d01547f9e34afa7b4d27d347d25d9d9dab4f1a106fa081382e6c4243e834d093e787d02547f9e34afa7b4d27d347d25d9d9dab4f1a106fa081382e6c4243e834d093e787d03547f9e34afa7b4d27d347d25d9d9dab4f1a106fa081382e6c4243e834d093e787d04546001600160a01b03948516959385169492831693918316921690565b945094509450945094509091929394565b60008181527f06bd04a817647c31ee485c8a0baab96facd62dbfd4b475796bb17ca2c12f000260205260408120546001600160a01b03165b92915050565b7f59b501c3653afc186af7d48dda36cf6732bd21629a6295693664240a6ef5200054640100000000900460ff16620001a657604051630ef4733760e31b815260040160405180910390fd5b600060027f54f22f54f370bd020e00ee80e1a5099a71652e2ccbcf6a75281e4c70a3e11a0054036200035c57604051635db5c7cd60e11b815260040160405180910390fd5b6200038660027f54f22f54f370bd020e00ee80e1a5099a71652e2ccbcf6a75281e4c70a3e11a0055565b7fe17a067c7963a59b6dfd65d33b053fdbea1c56500e2aae4f976d9eda4da9eb005460ff1615620003ca576040516302ca8ced60e11b815260040160405180910390fd5b620003d582620005dd565b90506200040160017f54f22f54f370bd020e00ee80e1a5099a71652e2ccbcf6a75281e4c70a3e11a0055565b919050565b6001600160a01b03811660009081527f06bd04a817647c31ee485c8a0baab96facd62dbfd4b475796bb17ca2c12f00016020526040812054620002c6565b846001600160a01b03163b60000362000470576040516302f3d00b60e01b815260040160405180910390fd5b836001600160a01b03163b6000036200049c576040516302f3d00b60e01b815260040160405180910390fd5b826001600160a01b03163b600003620004c8576040516302f3d00b60e01b815260040160405180910390fd5b816001600160a01b03163b600003620004f4576040516302f3d00b60e01b815260040160405180910390fd5b6000805160206200433383398151915280546001600160a01b03199081166001600160a01b03978816179091557f9e34afa7b4d27d347d25d9d9dab4f1a106fa081382e6c4243e834d093e787d0180548216958716959095179094557f9e34afa7b4d27d347d25d9d9dab4f1a106fa081382e6c4243e834d093e787d0280548516938616939093179092557f9e34afa7b4d27d347d25d9d9dab4f1a106fa081382e6c4243e834d093e787d03805484169185169190911790557f9e34afa7b4d27d347d25d9d9dab4f1a106fa081382e6c4243e834d093e787d0480549092169216919091179055565b60008051602062004333833981519152805460408051631d5e528f60e21b815290516000937f06bd04a817647c31ee485c8a0baab96facd62dbfd4b475796bb17ca2c12f000093909285926001600160a01b03909216916375794a3c916004808201926020929091908290030181865afa15801562000660573d6000803e3d6000fd5b505050506040513d601f19601f8201168201806040525081019062000686919062001d09565b9050620006988186604001516200097e565b8354909450836000620006ab8362001d23565b90915550506000818152600284016020908152604080832080546001600160a01b0319166001600160a01b03898116918217909255845260018701835292819020849055845488519289015191516391de4a8360e01b81529316926391de4a83926200071e929091899060040162001d9f565b6020604051808303816000875af11580156200073e573d6000803e3d6000fd5b505050506040513d601f19601f8201168201806040525081019062000764919062001d09565b50600182015460009062000782906001600160a01b031686620009a8565b6002840154909150600090620007a2906001600160a01b031687620009a8565b60408051600280825260608201835292935060009290916020830190803683370190505090508281600081518110620007df57620007df62001de1565b60200260200101906001600160a01b031690816001600160a01b031681525050818160018151811062000816576200081662001de1565b6001600160a01b039283166020918202929092010152604051638bfc820f60e01b815290881690638bfc820f906200085390849060040162001df7565b600060405180830381600087803b1580156200086e57600080fd5b505af115801562000883573d6000803e3d6000fd5b505050506200089d8784848b604001516020015162000a65565b50604080890151805151910151600091620008bc918a91908762000e98565b9050620008cf88828b6060015162001028565b8554604051632142170760e11b8152306004820152336024820152604481018790526001600160a01b03909116906342842e0e90606401600060405180830381600087803b1580156200092157600080fd5b505af115801562000936573d6000803e3d6000fd5b50506040516001600160a01b038b16925087915033907fe50fc3942f8a2d7e5a7c8fb9488499eba5255b41e18bc3f1b4791402976d1d0b90600090a450505050505050919050565b60008060006200098f858562001129565b915091506200099f8282620012db565b95945050505050565b60008060405180602001620009bd906200137b565b601f1982820381018352601f9091011660408190526001600160a01b0385166024820152859060440160408051601f19818403018152918152602080830180516001600160e01b031663189acdbd60e31b179052905162000a219392910162001e46565b60408051601f198184030181529082905262000a41929160200162001e6c565b604051602081830303815290604052905062000a5d8162001316565b949350505050565b604080516001808252818301909252600091829190816020015b606081526020019060019003908162000a7f579050509050604051806040016040528060098152602001684a6f696e537061636560b81b8152508160008151811062000acf5762000acf62001de1565b6020026020010181905250856001600160a01b0316638fcd793d6040518060400160405280600681526020016526b4b73a32b960d11b8152508360006001600160401b0381111562000b255762000b2562001443565b60405190808252806020026020018201604052801562000b6d57816020015b60408051808201909152600081526060602082015281526020019060019003908162000b445790505b506040518463ffffffff1660e01b815260040162000b8e9392919062001ec8565b6020604051808303816000875af115801562000bae573d6000803e3d6000fd5b505050506040513d601f19601f8201168201806040525081019062000bd4919062001d09565b83519092501562000ce2576040805160018082528183019092526000916020808301908036833701905050905060018160008151811062000c195762000c1962001de1565b60200260200101906001600160a01b031690816001600160a01b031681525050866001600160a01b031663ba201ba88460405180604001604052808a6001600160a01b031681526020018560405160200162000c76919062001df7565b6040516020818303038152906040528152506040518363ffffffff1660e01b815260040162000ca792919062001f9a565b600060405180830381600087803b15801562000cc257600080fd5b505af115801562000cd7573d6000803e3d6000fd5b505050505062000e8f565b6020830151511562000ddb5760005b83602001515181101562000d335762000d2a8460200151828151811062000d1c5762000d1c62001de1565b602002602001015162001350565b60010162000cf1565b50856001600160a01b031663ba201ba8836040518060400160405280896001600160a01b03168152602001876020015160405160200162000d75919062001df7565b6040516020818303038152906040528152506040518363ffffffff1660e01b815260040162000da692919062001f9a565b600060405180830381600087803b15801562000dc157600080fd5b505af115801562000dd6573d6000803e3d6000fd5b505050505b604083015151511562000e8f57856001600160a01b031663ba201ba8836040518060400160405280886001600160a01b03168152602001876040015160405160200162000e299190620020b2565b6040516020818303038152906040528152506040518363ffffffff1660e01b815260040162000e5a92919062001f9a565b600060405180830381600087803b15801562000e7557600080fd5b505af115801562000e8a573d6000803e3d6000fd5b505050505b50949350505050565b6040805160018082528183019092526000918291906020808301908036833701905050905060018160008151811062000ed55762000ed562001de1565b6001600160a01b039290921660209283029190910190910152604080516001808252818301909252600091816020015b60408051808201909152600081526060602082015281526020019060019003908162000f05579050509050838160008151811062000f475762000f4762001de1565b6020908102919091018101516001600160a01b0390921690915260405162000f729184910162001df7565b6040516020818303038152906040528160008151811062000f975762000f9762001de1565b6020908102919091018101510152604051638fcd793d60e01b81526001600160a01b03881690638fcd793d9062000fd79089908990869060040162001ec8565b6020604051808303816000875af115801562000ff7573d6000803e3d6000fd5b505050506040513d601f19601f820116820180604052508101906200101d919062001d09565b979650505050505050565b60408051600180825281830190925260009160208083019080368337019050509050828160008151811062001061576200106162001de1565b602090810291909101810191909152604051600160fd1b918101919091526bffffffffffffffffffffffff19606086901b166021820152600090603501604051602081830303815290604052620010b8906200215d565b835160405163921f717560e01b81529192506001600160a01b0387169163921f717591620010ee91859190879060040162002185565b600060405180830381600087803b1580156200110957600080fd5b505af11580156200111e573d6000803e3d6000fd5b505050505050505050565b6060600080600080516020620043338339815191526040805133602082015290810187905242606082015290915060800160405160208183030381529060405280519060200120915060405180602001620011849062001389565b601f1982820381018352600384015460048501546040601f909401909216838101845263dc9cc64560e01b8152306020828101919091528451808601865287546001600160a01b0390811682528183018d90528651610120810188528c515181528c51840151938101939093528b51870151968301969096528a51606090810151908301528a516080908101516001600160401b0316908301528a5160a0908101518716908301528a5160c09081015133979586169686169592939291830191161562001257578b5160c0015162001259565b335b6001600160a01b031681526020018b6000015160e0015181526020018b6000015161010001516001600160a01b0316815250604051602001620012a296959493929190620021e6565b60408051601f1981840301815290829052620012c2929160200162001e6c565b6040516020818303038152906040529250509250929050565b60008260200183518381836000f59250506001600160a01b0382169050620002c65760405163ef35ca1960e01b815260040160405180910390fd5b600081602001825180826000f09250506001600160a01b0382169050620004015760405163ef35ca1960e01b815260040160405180910390fd5b6001600160a01b03811662001378576040516302e47d1560e41b815260040160405180910390fd5b50565b6103d480620022f583390190565b611c6a80620026c983390190565b6001600160a01b03811681146200137857600080fd5b600080600080600060a08688031215620013c657600080fd5b8535620013d38162001397565b94506020860135620013e58162001397565b93506040860135620013f78162001397565b92506060860135620014098162001397565b915060808601356200141b8162001397565b809150509295509295909350565b6000602082840312156200143c57600080fd5b5035919050565b634e487b7160e01b600052604160045260246000fd5b604051608081016001600160401b03811182821017156200147e576200147e62001443565b60405290565b604051606081016001600160401b03811182821017156200147e576200147e62001443565b604080519081016001600160401b03811182821017156200147e576200147e62001443565b60405161012081016001600160401b03811182821017156200147e576200147e62001443565b604051601f8201601f191681016001600160401b03811182821017156200151f576200151f62001443565b604052919050565b600082601f8301126200153957600080fd5b81356001600160401b0381111562001555576200155562001443565b6200156a601f8201601f1916602001620014f4565b8181528460208386010111156200158057600080fd5b816020850160208301376000918101602001919091529392505050565b80356001600160401b03811681146200040157600080fd5b8035620004018162001397565b60006001600160401b03821115620015de57620015de62001443565b5060051b60200190565b600381106200137857600080fd5b803560ff811681146200040157600080fd5b600082601f8301126200161a57600080fd5b81356020620016336200162d83620015c2565b620014f4565b82815260079290921b840181019181810190868411156200165357600080fd5b8286015b84811015620016c55760808189031215620016725760008081fd5b6200167c62001459565b8135600681106200168d5760008081fd5b81528185013585820152604080830135620016a88162001397565b908201526060828101359082015283529183019160800162001657565b509695505050505050565b600082601f830112620016e257600080fd5b81356020620016f56200162d83620015c2565b828152606092830285018201928282019190878511156200171557600080fd5b8387015b858110156200177e5781818a031215620017335760008081fd5b6200173d62001484565b81356200174a81620015e8565b815262001759828701620015f6565b8682015260406200176c818401620015f6565b90820152845292840192810162001719565b5090979650505050505050565b6000606082840312156200179e57600080fd5b620017a862001484565b905081356001600160401b0380821115620017c257600080fd5b818401915084601f830112620017d757600080fd5b81356020620017ea6200162d83620015c2565b82815260069290921b840181019181810190888411156200180a57600080fd5b948201945b8386101562001867576040868a0312156200182a5760008081fd5b62001834620014a9565b86356200184181620015e8565b815262001850878501620015f6565b81850152825260409590950194908201906200180f565b865250858101359350828411156200187e57600080fd5b6200188c8785880162001608565b90850152506040840135915080821115620018a657600080fd5b50620018b584828501620016d0565b60408301525092915050565b600060608284031215620018d457600080fd5b620018de62001484565b905081358015158114620018f157600080fd5b81526020828101356001600160401b03808211156200190f57600080fd5b818501915085601f8301126200192457600080fd5b8135620019356200162d82620015c2565b81815260059190911b830184019084810190888311156200195557600080fd5b938501935b8285101562001980578435620019708162001397565b825293850193908501906200195a565b808688015250505060408501359250808311156200199d57600080fd5b5050620018b5848285016200178b565b600082601f830112620019bf57600080fd5b81356020620019d26200162d83620015c2565b82815260059290921b84018101918181019086841115620019f257600080fd5b8286015b84811015620016c55780356001600160401b0381111562001a175760008081fd5b62001a278986838b010162001527565b845250918301918301620019f6565b60006060828403121562001a4957600080fd5b62001a5362001484565b905081356001600160401b038082111562001a6d57600080fd5b90830190610120828603121562001a8357600080fd5b62001a8d620014ce565b82358281111562001a9d57600080fd5b62001aab8782860162001527565b82525060208301358281111562001ac157600080fd5b62001acf8782860162001527565b602083015250604083013560408201526060830135606082015262001af7608084016200159d565b608082015262001b0a60a08401620015b5565b60a082015262001b1d60c08401620015b5565b60c082015260e083013560e082015261010062001b3c818501620015b5565b908201528352602084013591508082111562001b5757600080fd5b62001b6585838601620018c1565b6020840152604084013591508082111562001b7f57600080fd5b50620018b584828501620019ad565b60006020828403121562001ba157600080fd5b604051602081016001600160401b03828210818311171562001bc75762001bc762001443565b81604052829350843591508082111562001be057600080fd5b5062001bef8582860162001527565b8252505092915050565b60006020828403121562001c0c57600080fd5b81356001600160401b038082111562001c2457600080fd5b908301906080828603121562001c3957600080fd5b62001c4362001459565b82358281111562001c5357600080fd5b62001c618782860162001527565b82525060208301358281111562001c7757600080fd5b62001c858782860162001527565b60208301525060408301358281111562001c9e57600080fd5b62001cac8782860162001a36565b60408301525060608301358281111562001cc557600080fd5b62001cd38782860162001b8e565b60608301525095945050505050565b60006020828403121562001cf557600080fd5b813562001d028162001397565b9392505050565b60006020828403121562001d1c57600080fd5b5051919050565b60006001820162001d4457634e487b7160e01b600052601160045260246000fd5b5060010190565b60005b8381101562001d6857818101518382015260200162001d4e565b50506000910152565b6000815180845262001d8b81602086016020860162001d4b565b601f01601f19169290920160200192915050565b60608152600062001db4606083018662001d71565b828103602084015262001dc8818662001d71565b91505060018060a01b0383166040830152949350505050565b634e487b7160e01b600052603260045260246000fd5b6020808252825182820181905260009190848201906040850190845b8181101562001e3a5783516001600160a01b03168352928401929184019160010162001e13565b50909695505050505050565b6001600160a01b038316815260406020820181905260009062000a5d9083018462001d71565b6000835162001e8081846020880162001d4b565b83519083019062001e9681836020880162001d4b565b01949350505050565b60018060a01b038151168252600060208201516040602085015262000a5d604085018262001d71565b60608152600062001edd606083018662001d71565b6020838203818501528186518084528284019150828160051b85010183890160005b8381101562001f3157601f1987840301855262001f1e83835162001d71565b9486019492509085019060010162001eff565b50508681036040880152875180825284820195509250600583901b81018401915083880160005b8481101562001f8a57601f1983850301875262001f7784835162001e9f565b9686019693509085019060010162001f58565b50919a9950505050505050505050565b82815260406020820152600062000a5d604083018462001e9f565b634e487b7160e01b600052602160045260246000fd5b6003811062001378576200137862001fb5565b60008151808452602080850194506020840160005b838110156200204d57815180516006811062002013576200201362001fb5565b885280840151848901526040808201516001600160a01b031690890152606090810151908801526080909601959082019060010162001ff3565b509495945050505050565b60008151808452602080850194506020840160005b838110156200204d5781518051620020858162001fcb565b88528084015160ff908116858a01526040918201511690880152606090960195908201906001016200206d565b6020808252825160608383015280516080840181905260009291820190839060a08601905b80831015620021125783518051620020ef8162001fcb565b835285015160ff16858301529284019260019290920191604090910190620020d7565b50838701519350601f1992508286820301604087015262002134818562001fde565b9350505060408501518185840301606086015262002153838262002058565b9695505050505050565b805160208083015191908110156200217f576000198160200360031b1b821691505b50919050565b8381526000602060606020840152620021a2606084018662001d71565b83810360408501528451808252602080870192019060005b81811015620021d857835183529284019291840191600101620021ba565b509098975050505050505050565b600061010060018060a01b03808a1684528089166020850152808816604085015263ffffffff60e01b87511660608501528060208801511660808501528086511660a085015250602085015160c08401528060e0840152835161012080838601526200225761022086018362001d71565b9150602086015160ff19868403018287015262002275838262001d71565b92505050604085015161014085015260608501516101608501526080850151620022ab6101808601826001600160401b03169052565b5060a08501516001600160a01b039081166101a086015260c086015181166101c086015260e08601516101e086015291909401511661020090920191909152509594505050505056fe60806040526040516103d43803806103d483398101604081905261002291610268565b61002c8282610033565b5050610352565b61003c82610092565b6040516001600160a01b038316907fbc7cd75a20ee27fd9adebab32041f755214dbc6bffa90cc0225b39da2e5c2d3b90600090a280511561008657610081828261010e565b505050565b61008e610185565b5050565b806001600160a01b03163b6000036100cd57604051634c9c8ce360e01b81526001600160a01b03821660048201526024015b60405180910390fd5b7f360894a13ba1a3210667c828492db98dca3e2076cc3735a920a3ca505d382bbc80546001600160a01b0319166001600160a01b0392909216919091179055565b6060600080846001600160a01b03168460405161012b9190610336565b600060405180830381855af49150503d8060008114610166576040519150601f19603f3d011682016040523d82523d6000602084013e61016b565b606091505b50909250905061017c8583836101a6565b95945050505050565b34156101a45760405163b398979f60e01b815260040160405180910390fd5b565b6060826101bb576101b682610205565b6101fe565b81511580156101d257506001600160a01b0384163b155b156101fb57604051639996b31560e01b81526001600160a01b03851660048201526024016100c4565b50805b9392505050565b8051156102155780518082602001fd5b604051630a12f52160e11b815260040160405180910390fd5b634e487b7160e01b600052604160045260246000fd5b60005b8381101561025f578181015183820152602001610247565b50506000910152565b6000806040838503121561027b57600080fd5b82516001600160a01b038116811461029257600080fd5b60208401519092506001600160401b03808211156102af57600080fd5b818501915085601f8301126102c357600080fd5b8151818111156102d5576102d561022e565b604051601f8201601f19908116603f011681019083821181831017156102fd576102fd61022e565b8160405282815288602084870101111561031657600080fd5b610327836020830160208801610244565b80955050505050509250929050565b60008251610348818460208701610244565b9190910192915050565b6074806103606000396000f3fe6080604052600a600c565b005b60186014601a565b6051565b565b6000604c7f360894a13ba1a3210667c828492db98dca3e2076cc3735a920a3ca505d382bbc546001600160a01b031690565b905090565b3660008037600080366000845af43d6000803e808015606f573d6000f35b3d6000fd60806040523480156200001157600080fd5b5060405162001c6a38038062001c6a833981016040819052620000349162000e55565b6200003e62000229565b620000a58380517f9c16cba5b9f2fcbd952b38bec34079e93cbe107475c15fc20705f4e704198a0080546020909301516001600160a01b03166001600160a01b031960e09390931c600160a01b02929092166001600160c01b031990931692909217179055565b81517fd2f24d4f172e4e84e48e7c4125b6e904c29e5eba33ad4938fee51dd5dbd4b60080546001600160a01b0319166001600160a01b0390921691909117905560208201517fd2f24d4f172e4e84e48e7c4125b6e904c29e5eba33ad4938fee51dd5dbd4b60155805160208201516200011f91906200023d565b620001358184602001516200029460201b60201c565b6200013f6200045b565b7f133f5e83927ae0f4eccaf443b57ee2634efab46c5ecb3a58ec4bb3201dd55ef680546001600160a01b038681166001600160a01b03199283161783557f438e2013c1d3a5bb9642eb30342f1d83ec0d3add620b71cdaf5043d9570b0a958054918916919092161790556000620001c360008051602062001c0a8339815191525490565b9050620001d28860016200046a565b6200021181896001600160a01b031660009081527fc21004fcc619240a31f006438274d15cd813308303284436eef6055f0fdcb6016020526040902055565b6200021b62000490565b505050505050505062001147565b6200023b6301ffc9a760e01b620004e5565b565b60008051602062001c0a8339815191527f6569bde4a160c636ea8b8d11acb83a60d7fec0b8f2e09389306cba0e1340df026200027a848262000fc2565b50600381016200028b838262000fc2565b50600090555050565b60008051602062001c2a83398151915280546001600160a01b038381166001600160a01b0319928316179092556101008401517fc21004fcc619240a31f006438274d15cd813308303284436eef6055f0fdcb608805491909316908216179091557fc21004fcc619240a31f006438274d15cd813308303284436eef6055f0fdcb604805490911673eeeeeeeeeeeeeeeeeeeeeeeeeeeeeeeeeeeeeeee17905560608201517fc21004fcc619240a31f006438274d15cd813308303284436eef6055f0fdcb6035560e08201517fc21004fcc619240a31f006438274d15cd813308303284436eef6055f0fdcb6078190557fc21004fcc619240a31f006438274d15cd813308303284436eef6055f0fdcb6009015620003bb5760e0830151620003bb90620005c5565b610100830151620003cc9062000684565b60408301511562000456576040830151620003e79062000756565b600881015460408085015190516391b7f5ed60e01b81526001600160a01b03909216916391b7f5ed91620004219160040190815260200190565b600060405180830381600087803b1580156200043c57600080fd5b505af115801562000451573d6000803e3d6000fd5b505050505b505050565b6200023b607b6103e862000801565b6200048c828260405180602001604052806000815250620008fa60201b60201c565b5050565b620004a26380ac58cd60e01b620004e5565b620004b4635b5e139f60e01b620004e5565b620004c6638c65f84d60e01b620004e5565b620004d86307f5828d60e41b620004e5565b6200023b630318da4960e51b5b6001600160e01b0319811660009081527f81088bbc801e045ea3e7620779ab349988f58afbdfba10dff983df3f33522b00602052604090205460ff16151560011462000574576001600160e01b0319811660009081527f81088bbc801e045ea3e7620779ab349988f58afbdfba10dff983df3f33522b0060205260409020805460ff191660011790556200058d565b604051637967f77d60e11b815260040160405180910390fd5b6040516001600160e01b03198216907f78f84e5b1c5c05be2b5ad3800781dd404d6d6c6302bc755c0fe20f58a33a7f2290600090a250565b60008051602062001c2a8339815191525460408051632cbb9d1360e01b815290517fc21004fcc619240a31f006438274d15cd813308303284436eef6055f0fdcb600926001600160a01b031691632cbb9d139160048083019260209291908290030181865afa1580156200063d573d6000803e3d6000fd5b505050506040513d601f19601f820116820180604052508101906200066391906200108e565b8211156200048c5760405163c3983b9160e01b815260040160405180910390fd5b6001600160a01b038116620006ac57604051630e88bf4b60e01b815260040160405180910390fd5b60008051602062001c2a833981519152546001600160a01b03166040516346fc05eb60e11b81526001600160a01b0383811660048301529190911690638df80bd690602401602060405180830381865afa1580156200070f573d6000803e3d6000fd5b505050506040513d601f19601f82011682018060405250810190620007359190620010a8565b6200075357604051630e88bf4b60e01b815260040160405180910390fd5b50565b60006200077960008051602062001c2a833981519152546001600160a01b031690565b6001600160a01b0316630eac306d6040518163ffffffff1660e01b8152600401602060405180830381865afa158015620007b7573d6000803e3d6000fd5b505050506040513d601f19601f82011682018060405250810190620007dd91906200108e565b9050808210156200048c57604051631a23d64760e11b815260040160405180910390fd5b8160000362000823576040516306c1cb6d60e51b815260040160405180910390fd5b6127108161ffff1611156200084b57604051634e7ee09d60e11b815260040160405180910390fd5b60008281527f3c2290b88407133303e904ceb4ee7d0d14164eda8a629372d8406216ceb57e00602081905260409091205461ffff168015620008a0576040516306c1cb6d60e51b815260040160405180910390fd5b60008481526020838152604091829020805461ffff191661ffff8716908117909155915191825285917f674ed3e313f9254fbafb8a51fa62be8b5f0a767d64c64cfe6f099c80c779a528910160405180910390a250505050565b6200090683836200098c565b6001600160a01b0383163b15620004565760008051602062001c0a833981519152548281035b6001810190620009429060009087908662000ac6565b62000960576040516368d2bf6b60e11b815260040160405180910390fd5b8181106200092c578160008051602062001c0a83398151915254146200098557600080fd5b5050505050565b60008051602062001c0a833981519152546000829003620009c05760405163b562e8dd60e01b815260040160405180910390fd5b6001600160a01b03831660008181527f6569bde4a160c636ea8b8d11acb83a60d7fec0b8f2e09389306cba0e1340df056020908152604080832080546801000000000000000188020190558483527f6569bde4a160c636ea8b8d11acb83a60d7fec0b8f2e09389306cba0e1340df0490915281206001851460e11b4260a01b1783179055828401908390839060008051602062001c4a8339815191528180a4600183015b81811462000a8d578083600060008051602062001c4a833981519152600080a460010162000a64565b508160000362000aaf57604051622e076360e81b815260040160405180910390fd5b60008051602062001c0a8339815191525550505050565b604051630a85bd0160e11b81526000906001600160a01b0385169063150b7a029062000afd903390899088908890600401620010d3565b6020604051808303816000875af192505050801562000b3b575060408051601f3d908101601f1916820190925262000b389181019062001129565b60015b62000b9d573d80801562000b6c576040519150601f19603f3d011682016040523d82523d6000602084013e62000b71565b606091505b50805160000362000b95576040516368d2bf6b60e11b815260040160405180910390fd5b805181602001fd5b6001600160e01b031916630a85bd0160e11b149050949350505050565b6001600160a01b03811681146200075357600080fd5b805162000bdd8162000bba565b919050565b634e487b7160e01b600052604160045260246000fd5b604080519081016001600160401b038111828210171562000c1d5762000c1d62000be2565b60405290565b60405161012081016001600160401b038111828210171562000c1d5762000c1d62000be2565b80516001600160e01b03198116811462000bdd57600080fd5b60006040828403121562000c7557600080fd5b62000c7f62000bf8565b9050815162000c8e8162000bba565b808252506020820151602082015292915050565b60005b8381101562000cbf57818101518382015260200162000ca5565b50506000910152565b600082601f83011262000cda57600080fd5b81516001600160401b038082111562000cf75762000cf762000be2565b604051601f8301601f19908116603f0116810190828211818310171562000d225762000d2262000be2565b8160405283815286602085880101111562000d3c57600080fd5b62000d4f84602083016020890162000ca2565b9695505050505050565b80516001600160401b038116811462000bdd57600080fd5b6000610120828403121562000d8557600080fd5b62000d8f62000c23565b82519091506001600160401b038082111562000daa57600080fd5b62000db88583860162000cc8565b8352602084015191508082111562000dcf57600080fd5b5062000dde8482850162000cc8565b602083015250604082015160408201526060820151606082015262000e066080830162000d59565b608082015262000e1960a0830162000bd0565b60a082015262000e2c60c0830162000bd0565b60c082015260e082015160e082015261010062000e4b81840162000bd0565b9082015292915050565b60008060008060008086880361010081121562000e7157600080fd5b875162000e7e8162000bba565b602089015190975062000e918162000bba565b604089015190965062000ea48162000bba565b94506040605f198201121562000eb957600080fd5b5062000ec462000bf8565b62000ed26060890162000c49565b8152608088015162000ee48162000bba565b6020820152925062000efa8860a0890162000c62565b60e08801519092506001600160401b0381111562000f1757600080fd5b62000f2589828a0162000d71565b9150509295509295509295565b600181811c9082168062000f4757607f821691505b60208210810362000f6857634e487b7160e01b600052602260045260246000fd5b50919050565b601f82111562000456576000816000526020600020601f850160051c8101602086101562000f995750805b601f850160051c820191505b8181101562000fba5782815560010162000fa5565b505050505050565b81516001600160401b0381111562000fde5762000fde62000be2565b62000ff68162000fef845462000f32565b8462000f6e565b602080601f8311600181146200102e5760008415620010155750858301515b600019600386901b1c1916600185901b17855562000fba565b600085815260208120601f198616915b828110156200105f578886015182559484019460019091019084016200103e565b50858210156200107e5787850151600019600388901b60f8161c191681555b5050505050600190811b01905550565b600060208284031215620010a157600080fd5b5051919050565b600060208284031215620010bb57600080fd5b81518015158114620010cc57600080fd5b9392505050565b600060018060a01b038087168352808616602084015250836040830152608060608301528251806080840152620011128160a085016020870162000ca2565b601f01601f19169190910160a00195945050505050565b6000602082840312156200113c57600080fd5b620010cc8262000c49565b610ab380620011576000396000f3fe6080604052600436106100955760003560e01c80638934207f116100595780638934207f14610202578063ac7ee62614610236578063ac9650d814610273578063b3a5be6d146102a0578063f9d5d22c146102b55761009c565b80633ded10de146100a657806369d9346b146100d9578063702515631461013557806373fc5a051461018657806377460cd3146101c55761009c565b3661009c57005b6100a46102d5565b005b3480156100b257600080fd5b506100c66100c136600461086f565b610330565b6040519081526020015b60405180910390f35b3480156100e557600080fd5b506100a46100f43660046108a0565b7fc21004fcc619240a31f006438274d15cd813308303284436eef6055f0fdcb60880546001600160a01b0319166001600160a01b0392909216919091179055565b34801561014157600080fd5b507fc21004fcc619240a31f006438274d15cd813308303284436eef6055f0fdcb604546001600160a01b03165b6040516001600160a01b0390911681526020016100d0565b34801561019257600080fd5b506100a46101a136600461086f565b7fc21004fcc619240a31f006438274d15cd813308303284436eef6055f0fdcb60355565b3480156101d157600080fd5b507fc21004fcc619240a31f006438274d15cd813308303284436eef6055f0fdcb606546001600160a01b031661016e565b34801561020e57600080fd5b507fc21004fcc619240a31f006438274d15cd813308303284436eef6055f0fdcb603546100c6565b34801561024257600080fd5b507fc21004fcc619240a31f006438274d15cd813308303284436eef6055f0fdcb608546001600160a01b031661016e565b34801561027f57600080fd5b5061029361028e3660046108c4565b6104d4565b6040516100d0919061095d565b3480156102ac57600080fd5b506100c66105f1565b3480156102c157600080fd5b506100a46102d036600461086f565b6106b4565b60006102df610729565b9050806001600160a01b03163b60000361030c576040516321f27f0d60e21b815260040160405180910390fd5b3660008037600080366000845af43d6000803e80801561032b573d6000f35b3d6000fd5b60007fc21004fcc619240a31f006438274d15cd813308303284436eef6055f0fdcb6008161035c6105f1565b905083811115610370575060009392505050565b6006820154604051639262b1b360e01b815230600482015285916001600160a01b031690639262b1b390602401602060405180830381865afa1580156103ba573d6000803e3d6000fd5b505050506040513d601f19601f820116820180604052508101906103de91906109d7565b11156103ee575060009392505050565b60088201546001600160a01b03161561047f576008820154604051635cf4ee9160e01b815260048101839052602481018690526001600160a01b0390911690635cf4ee9190604401602060405180830381865afa158015610453573d6000803e3d6000fd5b505050506040513d601f19601f8201168201806040525081019061047791906109d7565b949350505050565b8160060160009054906101000a90046001600160a01b03166001600160a01b0316630eac306d6040518163ffffffff1660e01b8152600401602060405180830381865afa158015610453573d6000803e3d6000fd5b6060818067ffffffffffffffff8111156104f0576104f06109f0565b60405190808252806020026020018201604052801561052357816020015b606081526020019060019003908161050e5790505b50915060005b818110156105e9576000803087878581811061054757610547610a06565b90506020028101906105599190610a1c565b604051610567929190610a6a565b600060405180830381855af49150503d80600081146105a2576040519150601f19603f3d011682016040523d82523d6000602084013e6105a7565b606091505b509150915081156105d557808584815181106105c5576105c5610a06565b60200260200101819052506105df565b3d6000803e3d6000fd5b5050600101610529565b505092915050565b7fc21004fcc619240a31f006438274d15cd813308303284436eef6055f0fdcb60754600090801561062157919050565b7fc21004fcc619240a31f006438274d15cd813308303284436eef6055f0fdcb6065460408051632cbb9d1360e01b815290516001600160a01b0390921691632cbb9d13916004808201926020929091908290030181865afa15801561068a573d6000803e3d6000fd5b505050506040513d601f19601f820116820180604052508101906106ae91906109d7565b91505090565b7fc21004fcc619240a31f006438274d15cd813308303284436eef6055f0fdcb6078190556040517fc21004fcc619240a31f006438274d15cd813308303284436eef6055f0fdcb6009082907fab14a23e88fb272313490d4f20d63098e64fd38304c0e07a377db98c2b39b92f90600090a25050565b7f9c16cba5b9f2fcbd952b38bec34079e93cbe107475c15fc20705f4e704198a0054600090600160a01b900460e01b818061078b7f9c16cba5b9f2fcbd952b38bec34079e93cbe107475c15fc20705f4e704198a00546001600160a01b031690565b6040516001600160e01b03196000351660248201526001600160a01b039190911690849060440160408051601f198184030181529181526020820180516001600160e01b03166001600160e01b03199094169390931790925290516107f09190610a7a565b600060405180830381855afa9150503d806000811461082b576040519150601f19603f3d011682016040523d82523d6000602084013e610830565b606091505b5091509150816108535760405163391aa44560e01b815260040160405180910390fd5b808060200190518101906108679190610a96565b935050505090565b60006020828403121561088157600080fd5b5035919050565b6001600160a01b038116811461089d57600080fd5b50565b6000602082840312156108b257600080fd5b81356108bd81610888565b9392505050565b600080602083850312156108d757600080fd5b823567ffffffffffffffff808211156108ef57600080fd5b818501915085601f83011261090357600080fd5b81358181111561091257600080fd5b8660208260051b850101111561092757600080fd5b60209290920196919550909350505050565b60005b8381101561095457818101518382015260200161093c565b50506000910152565b6000602080830181845280855180835260408601915060408160051b870101925083870160005b828110156109ca57878503603f19018452815180518087526109ab818989018a8501610939565b601f01601f191695909501860194509285019290850190600101610984565b5092979650505050505050565b6000602082840312156109e957600080fd5b5051919050565b634e487b7160e01b600052604160045260246000fd5b634e487b7160e01b600052603260045260246000fd5b6000808335601e19843603018112610a3357600080fd5b83018035915067ffffffffffffffff821115610a4e57600080fd5b602001915036819003821315610a6357600080fd5b9250929050565b8183823760009101908152919050565b60008251610a8c818460208701610939565b9190910192915050565b600060208284031215610aa857600080fd5b81516108bd81610888566569bde4a160c636ea8b8d11acb83a60d7fec0b8f2e09389306cba0e1340df00c21004fcc619240a31f006438274d15cd813308303284436eef6055f0fdcb606ddf252ad1be2c89b69c2b068fc378daa952ba7f163c4a11628f55a4df523b3ef9e34afa7b4d27d347d25d9d9dab4f1a106fa081382e6c4243e834d093e787d00","linkReferences":{}},"methodIdentifiers":{"__Architect_init(address,address,address,address,address)":"79cba28a","createSpace((string,string,((string,string,uint256,uint256,uint64,address,address,uint256,address),(bool,address[],((uint8,uint8)[],(uint8,uint256,address,uint256)[],(uint8,uint8,uint8)[])),string[]),(string)))":"7d8c4522","getSpaceArchitectImplementations()":"545efb2d","getSpaceByTokenId(uint256)":"673f0dd5","getTokenIdBySpace(address)":"c0bc6796","setSpaceArchitectImplementations(address,address,address,address,address)":"343852cb"},"id":121}