{"abi":[{"type":"function","name":"addRoleToChannel","inputs":[{"name":"channelId","type":"bytes32","internalType":"bytes32"},{"name":"roleId","type":"uint256","internalType":"uint256"}],"outputs":[],"stateMutability":"nonpayable"},{"type":"function","name":"createChannel","inputs":[{"name":"channelId","type":"bytes32","internalType":"bytes32"},{"name":"metadata","type":"string","internalType":"string"},{"name":"roleIds","type":"uint256[]","internalType":"uint256[]"}],"outputs":[],"stateMutability":"nonpayable"},{"type":"function","name":"getChannel","inputs":[{"name":"channelId","type":"bytes32","internalType":"bytes32"}],"outputs":[{"name":"channel","type":"tuple","internalType":"struct IChannelBase.Channel","components":[{"name":"id","type":"bytes32","internalType":"bytes32"},{"name":"disabled","type":"bool","internalType":"bool"},{"name":"metadata","type":"string","internalType":"string"},{"name":"roleIds","type":"uint256[]","internalType":"uint256[]"}]}],"stateMutability":"view"},{"type":"function","name":"getChannels","inputs":[],"outputs":[{"name":"channels","type":"tuple[]","internalType":"struct IChannelBase.Channel[]","components":[{"name":"id","type":"bytes32","internalType":"bytes32"},{"name":"disabled","type":"bool","internalType":"bool"},{"name":"metadata","type":"string","internalType":"string"},{"name":"roleIds","type":"uint256[]","internalType":"uint256[]"}]}],"stateMutability":"view"},{"type":"function","name":"getRolesByChannel","inputs":[{"name":"channelId","type":"bytes32","internalType":"bytes32"}],"outputs":[{"name":"roleIds","type":"uint256[]","internalType":"uint256[]"}],"stateMutability":"view"},{"type":"function","name":"removeChannel","inputs":[{"name":"channelId","type":"bytes32","internalType":"bytes32"}],"outputs":[],"stateMutability":"nonpayable"},{"type":"function","name":"removeRoleFromChannel","inputs":[{"name":"channelId","type":"bytes32","internalType":"bytes32"},{"name":"roleId","type":"uint256","internalType":"uint256"}],"outputs":[],"stateMutability":"nonpayable"},{"type":"function","name":"updateChannel","inputs":[{"name":"channelId","type":"bytes32","internalType":"bytes32"},{"name":"metadata","type":"string","internalType":"string"},{"name":"disabled","type":"bool","internalType":"bool"}],"outputs":[],"stateMutability":"nonpayable"},{"type":"event","name":"Approval","inputs":[{"name":"owner","type":"address","indexed":true,"internalType":"address"},{"name":"approved","type":"address","indexed":true,"internalType":"address"},{"name":"tokenId","type":"uint256","indexed":true,"internalType":"uint256"}],"anonymous":false},{"type":"event","name":"ApprovalForAll","inputs":[{"name":"owner","type":"address","indexed":true,"internalType":"address"},{"name":"operator","type":"address","indexed":true,"internalType":"address"},{"name":"approved","type":"bool","indexed":false,"internalType":"bool"}],"anonymous":false},{"type":"event","name":"Banned","inputs":[{"name":"moderator","type":"address","indexed":true,"internalType":"address"},{"name":"tokenId","type":"uint256","indexed":true,"internalType":"uint256"}],"anonymous":false},{"type":"event","name":"ChannelCreated","inputs":[{"name":"caller","type":"address","indexed":true,"internalType":"address"},{"name":"channelId","type":"bytes32","indexed":false,"internalType":"bytes32"}],"anonymous":false},{"type":"event","name":"ChannelRemoved","inputs":[{"name":"caller","type":"address","indexed":true,"internalType":"address"},{"name":"channelId","type":"bytes32","indexed":false,"internalType":"bytes32"}],"anonymous":false},{"type":"event","name":"ChannelRoleAdded","inputs":[{"name":"caller","type":"address","indexed":true,"internalType":"address"},{"name":"channelId","type":"bytes32","indexed":false,"internalType":"bytes32"},{"name":"roleId","type":"uint256","indexed":false,"internalType":"uint256"}],"anonymous":false},{"type":"event","name":"ChannelRoleRemoved","inputs":[{"name":"caller","type":"address","indexed":true,"internalType":"address"},{"name":"channelId","type":"bytes32","indexed":false,"internalType":"bytes32"},{"name":"roleId","type":"uint256","indexed":false,"internalType":"uint256"}],"anonymous":false},{"type":"event","name":"ChannelUpdated","inputs":[{"name":"caller","type":"address","indexed":true,"internalType":"address"},{"name":"channelId","type":"bytes32","indexed":false,"internalType":"bytes32"}],"anonymous":false},{"type":"event","name":"ConsecutiveTransfer","inputs":[{"name":"fromTokenId","type":"uint256","indexed":true,"internalType":"uint256"},{"name":"toTokenId","type":"uint256","indexed":false,"internalType":"uint256"},{"name":"from","type":"address","indexed":true,"internalType":"address"},{"name":"to","type":"address","indexed":true,"internalType":"address"}],"anonymous":false},{"type":"event","name":"Initialized","inputs":[{"name":"version","type":"uint32","indexed":false,"internalType":"uint32"}],"anonymous":false},{"type":"event","name":"InterfaceAdded","inputs":[{"name":"interfaceId","type":"bytes4","indexed":true,"internalType":"bytes4"}],"anonymous":false},{"type":"event","name":"InterfaceRemoved","inputs":[{"name":"interfaceId","type":"bytes4","indexed":true,"internalType":"bytes4"}],"anonymous":false},{"type":"event","name":"OwnershipTransferred","inputs":[{"name":"previousOwner","type":"address","indexed":true,"internalType":"address"},{"name":"newOwner","type":"address","indexed":true,"internalType":"address"}],"anonymous":false},{"type":"event","name":"Paused","inputs":[{"name":"account","type":"address","indexed":false,"internalType":"address"}],"anonymous":false},{"type":"event","name":"Transfer","inputs":[{"name":"from","type":"address","indexed":true,"internalType":"address"},{"name":"to","type":"address","indexed":true,"internalType":"address"},{"name":"tokenId","type":"uint256","indexed":true,"internalType":"uint256"}],"anonymous":false},{"type":"event","name":"Unbanned","inputs":[{"name":"moderator","type":"address","indexed":true,"internalType":"address"},{"name":"tokenId","type":"uint256","indexed":true,"internalType":"uint256"}],"anonymous":false},{"type":"event","name":"Unpaused","inputs":[{"name":"account","type":"address","indexed":false,"internalType":"address"}],"anonymous":false},{"type":"error","name":"ApprovalCallerNotOwnerNorApproved","inputs":[]},{"type":"error","name":"ApprovalQueryForNonexistentToken","inputs":[]},{"type":"error","name":"BalanceQueryForZeroAddress","inputs":[]},{"type":"error","name":"Banning__AlreadyBanned","inputs":[{"name":"tokenId","type":"uint256","internalType":"uint256"}]},{"type":"error","name":"Banning__CannotBanSelf","inputs":[]},{"type":"error","name":"Banning__InvalidTokenId","inputs":[{"name":"tokenId","type":"uint256","internalType":"uint256"}]},{"type":"error","name":"Banning__NotBanned","inputs":[{"name":"tokenId","type":"uint256","internalType":"uint256"}]},{"type":"error","name":"ChannelService__ChannelAlreadyExists","inputs":[]},{"type":"error","name":"ChannelService__ChannelDisabled","inputs":[]},{"type":"error","name":"ChannelService__ChannelDoesNotExist","inputs":[]},{"type":"error","name":"ChannelService__RoleAlreadyExists","inputs":[]},{"type":"error","name":"ChannelService__RoleDoesNotExist","inputs":[]},{"type":"error","name":"Entitlement__InvalidValue","inputs":[]},{"type":"error","name":"Entitlement__NotAllowed","inputs":[]},{"type":"error","name":"Entitlement__NotMember","inputs":[]},{"type":"error","name":"Entitlement__ValueAlreadyExists","inputs":[]},{"type":"error","name":"Initializable_InInitializingState","inputs":[]},{"type":"error","name":"Introspection_AlreadySupported","inputs":[]},{"type":"error","name":"Introspection_NotSupported","inputs":[]},{"type":"error","name":"MintERC2309QuantityExceedsLimit","inputs":[]},{"type":"error","name":"MintToZeroAddress","inputs":[]},{"type":"error","name":"MintZeroQuantity","inputs":[]},{"type":"error","name":"Ownable__NotOwner","inputs":[{"name":"account","type":"address","internalType":"address"}]},{"type":"error","name":"Ownable__ZeroAddress","inputs":[]},{"type":"error","name":"OwnerQueryForNonexistentToken","inputs":[]},{"type":"error","name":"OwnershipNotInitializedForExtraData","inputs":[]},{"type":"error","name":"Pausable__NotPaused","inputs":[]},{"type":"error","name":"Pausable__Paused","inputs":[]},{"type":"error","name":"TransferCallerNotOwnerNorApproved","inputs":[]},{"type":"error","name":"TransferFromIncorrectOwner","inputs":[]},{"type":"error","name":"TransferToNonERC721ReceiverImplementer","inputs":[]},{"type":"error","name":"TransferToZeroAddress","inputs":[]},{"type":"error","name":"URIQueryForNonexistentToken","inputs":[]},{"type":"error","name":"Validator__InvalidStringLength","inputs":[]}],"bytecode":{"object":"0x608060405234801561001057600080fd5b5061001961001e565b6100c4565b7f59b501c3653afc186af7d48dda36cf6732bd21629a6295693664240a6ef520008054640100000000900460ff161561006a576040516366008a2d60e01b815260040160405180910390fd5b805463ffffffff90811610156100c157805463ffffffff191663ffffffff90811782556040519081527fe9c9b456cb2994b80aeef036cf59d26e9617df80f816a6ee5a5b4166e07e2f5c9060200160405180910390a15b50565b611c9b806100d36000396000f3fe608060405234801561001057600080fd5b50600436106100885760003560e01c80639575f6ac1161005b5780639575f6ac146100f15780639935218314610106578063b9de615914610126578063ef86d6961461013957600080fd5b806302da0e511461008d57806337644cf7146100a2578063831c2b82146100b5578063921f7175146100de575b600080fd5b6100a061009b366004611508565b61014c565b005b6100a06100b0366004611521565b61018a565b6100c86100c3366004611508565b6101cb565b6040516100d59190611600565b60405180910390f35b6100a06100ec3660046116ee565b6101fd565b6100f961023f565b6040516100d591906117b6565b610119610114366004611508565b61024e565b6040516100d5919061181a565b6100a0610134366004611521565b610259565b6100a061014736600461186c565b610296565b61017e6040518060400160405280601181526020017041646452656d6f76654368616e6e656c7360781b8152506102d3565b610187816102fb565b50565b6101bd826040518060400160405280601181526020017041646452656d6f76654368616e6e656c7360781b81525061033c565b6101c78282610363565b5050565b60408051608081018252600080825260208201526060918101829052818101919091526101f7826103ad565b92915050565b61022f6040518060400160405280601181526020017041646452656d6f76654368616e6e656c7360781b8152506102d3565b61023a838383610414565b505050565b6060610249610465565b905090565b60606101f78261059d565b61028c826040518060400160405280601181526020017041646452656d6f76654368616e6e656c7360781b81525061033c565b6101c782826105a8565b6102c86040518060400160405280601181526020017041646452656d6f76654368616e6e656c7360781b8152506102d3565b61023a8383836105ea565b6102de600082610627565b61018757604051630ce39a4b60e21b815260040160405180910390fd5b610304816106ab565b60405181815233907f3a3f387aa42656bc1732adfc7aea5cde9ccc05a59f9af9c29ebfa68e66383e939060200160405180910390a250565b6103468282610627565b6101c757604051630ce39a4b60e21b815260040160405180910390fd5b61036d82826107a2565b604080518381526020810183905233917f2b10481523b59a7978f8ab73b237349b0f38c801f6094bdc8994d379c067d71391015b60405180910390a25050565b60408051608081018252600080825260208201526060918101829052818101919091526000806103dc84610833565b925092505060006103ec85610953565b6040805160808101825296875292151560208701529185019290925260608401525090919050565b61041f8260006109ab565b61042a8383836109cf565b60405183815233907fdd6c5b83be3557f8b2674712946f9f05dcd882b82bfd58b9539b9706efd35d8c906020015b60405180910390a2505050565b60606000610471610b09565b90506000815167ffffffffffffffff81111561048f5761048f611613565b6040519080825280602002602001820160405280156104e357816020015b60408051608081018252600080825260208201526060918101829052818101919091528152602001906001900390816104ad5790505b50905060005b825181101561059657600080600061051986858151811061050c5761050c6118c7565b6020026020010151610833565b9250925092506000610543878681518110610536576105366118c7565b6020026020010151610953565b9050604051806080016040528085815260200183151581526020018481526020018281525086868151811061057a5761057a6118c7565b60200260200101819052505050505080806001019150506104e9565b5092915050565b60606101f782610953565b6105b28282610b29565b604080518381526020810183905233917faee688d80dbf97230e5d2b4b06aa7074bfe38ddd8abf856551177db30395612991016103a1565b6105f5838383610bb9565b60405183815233907f94af4a611b3fb1eaa653a6b29f82b71bcea25ca378171c5f059010fa18e0716e90602001610458565b60003380610633610c6e565b6001600160a01b031614806106a357507fe17a067c7963a59b6dfd65d33b053fdbea1c56500e2aae4f976d9eda4da9eb005460ff161580156106a357506106a384828560405160200161068691906118dd565b60405160208183030381529060405261069e906118f9565b610d32565b949350505050565b6106b481610fc5565b600080516020611c7b8339815191526106cd8183610ffc565b5060408051602080820183526000808352858152600280860190925292909220909101906106fb90826119a4565b50600082815260028083016020526040822060018101805460ff19169055828155919061072a908301826114ba565b50506000828152600382016020526040812061074590611008565b905060005b815181101561079c57610793828281518110610768576107686118c7565b6020026020010151846003016000878152602001908152602001600020610ffc90919063ffffffff16565b5060010161074a565b50505050565b6107ab82610fc5565b6107b482611015565b60008281527f804ad633258ac9b908ae115a2763b3f6e04be3b1165402c872b25af51850430360205260409020600080516020611c7b833981519152906107fb9083611077565b15610819576040516302369ff360e41b815260040160405180910390fd5b6000838152600382016020526040902061079c908361108f565b60006060600061084284610fc5565b60008481527f804ad633258ac9b908ae115a2763b3f6e04be3b1165402c872b25af51850430260209081526040808320815160608101835281548152600182015460ff16151593810193909352600281018054600080516020611c7b833981519152959493840191906108b490611920565b80601f01602080910402602001604051908101604052809291908181526020018280546108e090611920565b801561092d5780601f106109025761010080835404028352916020019161092d565b820191906000526020600020905b81548152906001019060200180831161091057829003601f168201915b505050919092525050815160408301516020909301519099929850965090945050505050565b606061095e82610fc5565b60008281527f804ad633258ac9b908ae115a2763b3f6e04be3b1165402c872b25af51850430360205260409020600080516020611c7b833981519152906109a490611008565b9392505050565b8151829082111561023a576040516374eb20a760e01b815260040160405180910390fd5b6109d88361109b565b600080516020611c7b8339815191526109f1818561108f565b50604080516060810182528581526000602080830182815283850188815289845260028781019093529490922083518155915160018301805460ff191691151591909117905592519192909190820190610a4b90826119a4565b5090505060005b8251811015610b0257610a9b838281518110610a7057610a706118c7565b602002602001015183600301600088815260200190815260200160002061107790919063ffffffff16565b15610ab9576040516302369ff360e41b815260040160405180910390fd5b610af9838281518110610ace57610ace6118c7565b602002602001015183600301600088815260200190815260200160002061108f90919063ffffffff16565b50600101610a52565b5050505050565b6060600080516020611c7b833981519152610b2381611008565b91505090565b610b3282610fc5565b610b3b82611015565b60008281527f804ad633258ac9b908ae115a2763b3f6e04be3b1165402c872b25af51850430360205260409020600080516020611c7b83398151915290610b829083611077565b610b9f576040516333cb039f60e11b815260040160405180910390fd5b6000838152600382016020526040902061079c9083610ffc565b610bc283610fc5565b60008381527f804ad633258ac9b908ae115a2763b3f6e04be3b1165402c872b25af518504302602052604090208251600080516020611c7b833981519152919015801590610c2f575080600201604051610c1c9190611a64565b6040518091039020848051906020012014155b15610c445760028101610c4285826119a4565b505b600181015460ff16151583151514610b0257600101805460ff191692151592909217909155505050565b6040805180820182527fd2f24d4f172e4e84e48e7c4125b6e904c29e5eba33ad4938fee51dd5dbd4b600546001600160a01b03168082527fd2f24d4f172e4e84e48e7c4125b6e904c29e5eba33ad4938fee51dd5dbd4b60154602080840182905284516331a9108f60e11b815260048101929092529351600094636352211e92602480820193918290030181865afa158015610d0e573d6000803e3d6000fd5b505050506040513d601f19601f82011682018060405250810190610b239190611af6565b600080610d3e846110d1565b8051909150600080610d4e610c6e565b90506000805b84811015610e12576000868281518110610d7057610d706118c7565b60200260200101519050836001600160a01b0316878381518110610d9657610d966118c7565b60200260200101516001600160a01b031603610dbc5760019750505050505050506109a4565b610dc58161125b565b15610e09576001600160a01b03811660009081527fc21004fcc619240a31f006438274d15cd813308303284436eef6055f0fdcb60160205260409020546001955092505b50600101610d54565b5060008181527f49daf035076c43671ca9f9fb568d931e51ab7f9098a5a694781b45341112cf02602052604090205460ff1615610e57576000955050505050506109a4565b7fa558e822bd359dacbe30f0da89cbfde5f95895b441e13a4864caec1423c931006000610ea37fa558e822bd359dacbe30f0da89cbfde5f95895b441e13a4864caec1423c9310161126e565b905060005b81811015610fb35760008381610ec16001830185611278565b6001600160a01b039081168252602080830193909352604091820160002082516060810184529054918216815260ff600160a01b83048116151594820194909452600160a81b909104909216158015918301829052919250610f93575080600001516001600160a01b0316630cf0b5338e8b8e6040518463ffffffff1660e01b8152600401610f5293929190611b11565b602060405180830381865afa158015610f6f573d6000803e3d6000fd5b505050506040513d601f19601f82011682018060405250810190610f939190611b73565b15610faa57600199505050505050505050506109a4565b50600101610ea8565b5060009b9a5050505050505050505050565b610fdf81600080516020611c7b8339815191525b90611077565b6101875760405163560b4b4160e11b815260040160405180910390fd5b60006109a48383611284565b606060006109a483611377565b60008181527f804ad633258ac9b908ae115a2763b3f6e04be3b1165402c872b25af5185043026020526040902060010154600080516020611c7b8339815191529060ff16156101c757604051636ce0028960e11b815260040160405180910390fd5b600081815260018301602052604081205415156109a4565b60006109a483836113d3565b6110b381600080516020611c7b833981519152610fd9565b1561018757604051632324f7d960e21b815260040160405180910390fd5b606060006111067f438e2013c1d3a5bb9642eb30342f1d83ec0d3add620b71cdaf5043d9570b0a95546001600160a01b031690565b60405162468b7360e31b81526001600160a01b0385811660048301529192506000918316906302345b9890602401600060405180830381865afa158015611151573d6000803e3d6000fd5b505050506040513d6000823e601f3d908101601f191682016040526111799190810190611b90565b8051909150600061118b826001611c3e565b67ffffffffffffffff8111156111a3576111a3611613565b6040519080825280602002602001820160405280156111cc578160200160208202803683370190505b50905060005b82811015611226578381815181106111ec576111ec6118c7565b6020026020010151828281518110611206576112066118c7565b6001600160a01b03909216602092830291909101909101526001016111d2565b508581838151811061123a5761123a6118c7565b6001600160a01b039092166020928302919091019091015295945050505050565b60008061126783611422565b1192915050565b60006101f7825490565b60006109a48383611490565b6000818152600183016020526040812054801561136d5760006112a8600183611c51565b85549091506000906112bc90600190611c51565b90508082146113215760008660000182815481106112dc576112dc6118c7565b90600052602060002001549050808760000184815481106112ff576112ff6118c7565b6000918252602080832090910192909255918252600188019052604090208390555b855486908061133257611332611c64565b6001900381819060005260206000200160009055905585600101600086815260200190815260200160002060009055600193505050506101f7565b60009150506101f7565b6060816000018054806020026020016040519081016040528092919081815260200182805480156113c757602002820191906000526020600020905b8154815260200190600101908083116113b3575b50505050509050919050565b600081815260018301602052604081205461141a575081546001818101845560008481526020808220909301849055845484825282860190935260409020919091556101f7565b5060006101f7565b60006001600160a01b03821661144b576040516323d3ad8160e21b815260040160405180910390fd5b506001600160a01b031660009081527f6569bde4a160c636ea8b8d11acb83a60d7fec0b8f2e09389306cba0e1340df05602052604090205467ffffffffffffffff1690565b60008260000182815481106114a7576114a76118c7565b9060005260206000200154905092915050565b5080546114c690611920565b6000825580601f106114d6575050565b601f01602090049060005260206000209081019061018791905b8082111561150457600081556001016114f0565b5090565b60006020828403121561151a57600080fd5b5035919050565b6000806040838503121561153457600080fd5b50508035926020909101359150565b60005b8381101561155e578181015183820152602001611546565b50506000910152565b805182526000602080830151151581850152604083015160806040860152805180608087015261159d8160a08801858501611543565b601f19601f820116860191505060a08101606085015160a087840301606088015281815180845260c0850191508583019450600093505b808410156115f457845182529385019360019390930192908501906115d4565b50979650505050505050565b6020815260006109a46020830184611567565b634e487b7160e01b600052604160045260246000fd5b604051601f8201601f1916810167ffffffffffffffff8111828210171561165257611652611613565b604052919050565b600082601f83011261166b57600080fd5b813567ffffffffffffffff81111561168557611685611613565b611698601f8201601f1916602001611629565b8181528460208386010111156116ad57600080fd5b816020850160208301376000918101602001919091529392505050565b600067ffffffffffffffff8211156116e4576116e4611613565b5060051b60200190565b60008060006060848603121561170357600080fd5b8335925060208085013567ffffffffffffffff8082111561172357600080fd5b61172f8883890161165a565b9450604087013591508082111561174557600080fd5b508501601f8101871361175757600080fd5b803561176a611765826116ca565b611629565b81815260059190911b8201830190838101908983111561178957600080fd5b928401925b828410156117a75783358252928401929084019061178e565b80955050505050509250925092565b600060208083016020845280855180835260408601915060408160051b87010192506020870160005b8281101561180d57603f198886030184526117fb858351611567565b945092850192908501906001016117df565b5092979650505050505050565b6020808252825182820181905260009190848201906040850190845b8181101561185257835183529284019291840191600101611836565b50909695505050505050565b801515811461018757600080fd5b60008060006060848603121561188157600080fd5b83359250602084013567ffffffffffffffff81111561189f57600080fd5b6118ab8682870161165a565b92505060408401356118bc8161185e565b809150509250925092565b634e487b7160e01b600052603260045260246000fd5b600082516118ef818460208701611543565b9190910192915050565b8051602080830151919081101561191a576000198160200360031b1b821691505b50919050565b600181811c9082168061193457607f821691505b60208210810361191a57634e487b7160e01b600052602260045260246000fd5b601f82111561023a576000816000526020600020601f850160051c8101602086101561197d5750805b601f850160051c820191505b8181101561199c57828155600101611989565b505050505050565b815167ffffffffffffffff8111156119be576119be611613565b6119d2816119cc8454611920565b84611954565b602080601f831160018114611a0757600084156119ef5750858301515b600019600386901b1c1916600185901b17855561199c565b600085815260208120601f198616915b82811015611a3657888601518255948401946001909101908401611a17565b5085821015611a545787850151600019600388901b60f8161c191681555b5050505050600190811b01905550565b6000808354611a7281611920565b60018281168015611a8a5760018114611a9f57611ace565b60ff1984168752821515830287019450611ace565b8760005260208060002060005b85811015611ac55781548a820152908401908201611aac565b50505082870194505b50929695505050505050565b80516001600160a01b0381168114611af157600080fd5b919050565b600060208284031215611b0857600080fd5b6109a482611ada565b60006060820185835260206060602085015281865180845260808601915060208801935060005b81811015611b5d5784516001600160a01b031683529383019391830191600101611b38565b5050809350505050826040830152949350505050565b600060208284031215611b8557600080fd5b81516109a48161185e565b60006020808385031215611ba357600080fd5b825167ffffffffffffffff811115611bba57600080fd5b8301601f81018513611bcb57600080fd5b8051611bd9611765826116ca565b81815260059190911b82018301908381019087831115611bf857600080fd5b928401925b82841015611c1d57611c0e84611ada565b82529284019290840190611bfd565b979650505050505050565b634e487b7160e01b600052601160045260246000fd5b808201808211156101f7576101f7611c28565b818103818111156101f7576101f7611c28565b634e487b7160e01b600052603160045260246000fdfe804ad633258ac9b908ae115a2763b3f6e04be3b1165402c872b25af518504300","linkReferences":{}},"methodIdentifiers":{"addRoleToChannel(bytes32,uint256)":"37644cf7","createChannel(bytes32,string,uint256[])":"921f7175","getChannel(bytes32)":"831c2b82","getChannels()":"9575f6ac","getRolesByChannel(bytes32)":"99352183","removeChannel(bytes32)":"02da0e51","removeRoleFromChannel(bytes32,uint256)":"b9de6159","updateChannel(bytes32,string,bool)":"ef86d696"},"id":140}