{"abi":[{"type":"function","name":"addEntitlementModule","inputs":[{"name":"entitlement","type":"address","internalType":"address"}],"outputs":[],"stateMutability":"nonpayable"},{"type":"function","name":"addImmutableEntitlements","inputs":[{"name":"entitlements","type":"address[]","internalType":"address[]"}],"outputs":[],"stateMutability":"nonpayable"},{"type":"function","name":"getChannelEntitlements","inputs":[{"name":"channelId","type":"bytes32","internalType":"bytes32"},{"name":"permission","type":"string","internalType":"string"}],"outputs":[{"name":"","type":"tuple","internalType":"struct IRuleEntitlement.RuleData","components":[{"name":"operations","type":"tuple[]","internalType":"struct IRuleEntitlement.Operation[]","components":[{"name":"opType","type":"uint8","internalType":"enum IRuleEntitlement.CombinedOperationType"},{"name":"index","type":"uint8","internalType":"uint8"}]},{"name":"checkOperations","type":"tuple[]","internalType":"struct IRuleEntitlement.CheckOperation[]","components":[{"name":"opType","type":"uint8","internalType":"enum IRuleEntitlement.CheckOperationType"},{"name":"chainId","type":"uint256","internalType":"uint256"},{"name":"contractAddress","type":"address","internalType":"address"},{"name":"threshold","type":"uint256","internalType":"uint256"}]},{"name":"logicalOperations","type":"tuple[]","internalType":"struct IRuleEntitlement.LogicalOperation[]","components":[{"name":"logOpType","type":"uint8","internalType":"enum IRuleEntitlement.LogicalOperationType"},{"name":"leftOperationIndex","type":"uint8","internalType":"uint8"},{"name":"rightOperationIndex","type":"uint8","internalType":"uint8"}]}]}],"stateMutability":"pure"},{"type":"function","name":"getEntitlement","inputs":[{"name":"entitlement","type":"address","internalType":"address"}],"outputs":[{"name":"","type":"tuple","internalType":"struct IEntitlementsManagerBase.Entitlement","components":[{"name":"name","type":"string","internalType":"string"},{"name":"moduleAddress","type":"address","internalType":"address"},{"name":"moduleType","type":"string","internalType":"string"},{"name":"isImmutable","type":"bool","internalType":"bool"}]}],"stateMutability":"view"},{"type":"function","name":"getEntitlements","inputs":[],"outputs":[{"name":"","type":"tuple[]","internalType":"struct IEntitlementsManagerBase.Entitlement[]","components":[{"name":"name","type":"string","internalType":"string"},{"name":"moduleAddress","type":"address","internalType":"address"},{"name":"moduleType","type":"string","internalType":"string"},{"name":"isImmutable","type":"bool","internalType":"bool"}]}],"stateMutability":"view"},{"type":"function","name":"getSpaceEntitlements","inputs":[{"name":"permission","type":"string","internalType":"string"}],"outputs":[{"name":"","type":"tuple","internalType":"struct IRuleEntitlement.RuleData","components":[{"name":"operations","type":"tuple[]","internalType":"struct IRuleEntitlement.Operation[]","components":[{"name":"opType","type":"uint8","internalType":"enum IRuleEntitlement.CombinedOperationType"},{"name":"index","type":"uint8","internalType":"uint8"}]},{"name":"checkOperations","type":"tuple[]","internalType":"struct IRuleEntitlement.CheckOperation[]","components":[{"name":"opType","type":"uint8","internalType":"enum IRuleEntitlement.CheckOperationType"},{"name":"chainId","type":"uint256","internalType":"uint256"},{"name":"contractAddress","type":"address","internalType":"address"},{"name":"threshold","type":"uint256","internalType":"uint256"}]},{"name":"logicalOperations","type":"tuple[]","internalType":"struct IRuleEntitlement.LogicalOperation[]","components":[{"name":"logOpType","type":"uint8","internalType":"enum IRuleEntitlement.LogicalOperationType"},{"name":"leftOperationIndex","type":"uint8","internalType":"uint8"},{"name":"rightOperationIndex","type":"uint8","internalType":"uint8"}]}]}],"stateMutability":"pure"},{"type":"function","name":"isEntitledToChannel","inputs":[{"name":"channelId","type":"bytes32","internalType":"bytes32"},{"name":"user","type":"address","internalType":"address"},{"name":"permission","type":"string","internalType":"string"}],"outputs":[{"name":"","type":"bool","internalType":"bool"}],"stateMutability":"view"},{"type":"function","name":"isEntitledToSpace","inputs":[{"name":"user","type":"address","internalType":"address"},{"name":"permission","type":"string","internalType":"string"}],"outputs":[{"name":"","type":"bool","internalType":"bool"}],"stateMutability":"view"},{"type":"function","name":"removeEntitlementModule","inputs":[{"name":"entitlement","type":"address","internalType":"address"}],"outputs":[],"stateMutability":"nonpayable"},{"type":"event","name":"Approval","inputs":[{"name":"owner","type":"address","indexed":true,"internalType":"address"},{"name":"approved","type":"address","indexed":true,"internalType":"address"},{"name":"tokenId","type":"uint256","indexed":true,"internalType":"uint256"}],"anonymous":false},{"type":"event","name":"ApprovalForAll","inputs":[{"name":"owner","type":"address","indexed":true,"internalType":"address"},{"name":"operator","type":"address","indexed":true,"internalType":"address"},{"name":"approved","type":"bool","indexed":false,"internalType":"bool"}],"anonymous":false},{"type":"event","name":"Banned","inputs":[{"name":"moderator","type":"address","indexed":true,"internalType":"address"},{"name":"tokenId","type":"uint256","indexed":true,"internalType":"uint256"}],"anonymous":false},{"type":"event","name":"ConsecutiveTransfer","inputs":[{"name":"fromTokenId","type":"uint256","indexed":true,"internalType":"uint256"},{"name":"toTokenId","type":"uint256","indexed":false,"internalType":"uint256"},{"name":"from","type":"address","indexed":true,"internalType":"address"},{"name":"to","type":"address","indexed":true,"internalType":"address"}],"anonymous":false},{"type":"event","name":"EntitlementModuleAdded","inputs":[{"name":"caller","type":"address","indexed":true,"internalType":"address"},{"name":"entitlement","type":"address","indexed":false,"internalType":"address"}],"anonymous":false},{"type":"event","name":"EntitlementModuleRemoved","inputs":[{"name":"caller","type":"address","indexed":true,"internalType":"address"},{"name":"entitlement","type":"address","indexed":false,"internalType":"address"}],"anonymous":false},{"type":"event","name":"OwnershipTransferred","inputs":[{"name":"previousOwner","type":"address","indexed":true,"internalType":"address"},{"name":"newOwner","type":"address","indexed":true,"internalType":"address"}],"anonymous":false},{"type":"event","name":"Paused","inputs":[{"name":"account","type":"address","indexed":false,"internalType":"address"}],"anonymous":false},{"type":"event","name":"Transfer","inputs":[{"name":"from","type":"address","indexed":true,"internalType":"address"},{"name":"to","type":"address","indexed":true,"internalType":"address"},{"name":"tokenId","type":"uint256","indexed":true,"internalType":"uint256"}],"anonymous":false},{"type":"event","name":"Unbanned","inputs":[{"name":"moderator","type":"address","indexed":true,"internalType":"address"},{"name":"tokenId","type":"uint256","indexed":true,"internalType":"uint256"}],"anonymous":false},{"type":"event","name":"Unpaused","inputs":[{"name":"account","type":"address","indexed":false,"internalType":"address"}],"anonymous":false},{"type":"error","name":"ApprovalCallerNotOwnerNorApproved","inputs":[]},{"type":"error","name":"ApprovalQueryForNonexistentToken","inputs":[]},{"type":"error","name":"BalanceQueryForZeroAddress","inputs":[]},{"type":"error","name":"Banning__AlreadyBanned","inputs":[{"name":"tokenId","type":"uint256","internalType":"uint256"}]},{"type":"error","name":"Banning__CannotBanSelf","inputs":[]},{"type":"error","name":"Banning__InvalidTokenId","inputs":[{"name":"tokenId","type":"uint256","internalType":"uint256"}]},{"type":"error","name":"Banning__NotBanned","inputs":[{"name":"tokenId","type":"uint256","internalType":"uint256"}]},{"type":"error","name":"Entitlement__InvalidValue","inputs":[]},{"type":"error","name":"Entitlement__NotAllowed","inputs":[]},{"type":"error","name":"Entitlement__NotMember","inputs":[]},{"type":"error","name":"Entitlement__ValueAlreadyExists","inputs":[]},{"type":"error","name":"EntitlementsService__EntitlementAlreadyExists","inputs":[]},{"type":"error","name":"EntitlementsService__EntitlementDoesNotExist","inputs":[]},{"type":"error","name":"EntitlementsService__ImmutableEntitlement","inputs":[]},{"type":"error","name":"EntitlementsService__InvalidEntitlementAddress","inputs":[]},{"type":"error","name":"EntitlementsService__InvalidEntitlementInterface","inputs":[]},{"type":"error","name":"MintERC2309QuantityExceedsLimit","inputs":[]},{"type":"error","name":"MintToZeroAddress","inputs":[]},{"type":"error","name":"MintZeroQuantity","inputs":[]},{"type":"error","name":"Ownable__NotOwner","inputs":[{"name":"account","type":"address","internalType":"address"}]},{"type":"error","name":"Ownable__ZeroAddress","inputs":[]},{"type":"error","name":"OwnerQueryForNonexistentToken","inputs":[]},{"type":"error","name":"OwnershipNotInitializedForExtraData","inputs":[]},{"type":"error","name":"Pausable__NotPaused","inputs":[]},{"type":"error","name":"Pausable__Paused","inputs":[]},{"type":"error","name":"TransferCallerNotOwnerNorApproved","inputs":[]},{"type":"error","name":"TransferFromIncorrectOwner","inputs":[]},{"type":"error","name":"TransferToNonERC721ReceiverImplementer","inputs":[]},{"type":"error","name":"TransferToZeroAddress","inputs":[]},{"type":"error","name":"URIQueryForNonexistentToken","inputs":[]}],"bytecode":{"object":"0x608060405234801561001057600080fd5b50611b3f806100206000396000f3fe608060405234801561001057600080fd5b50600436106100935760003560e01c8063487dc38c11610066578063487dc38c14610108578063542bee3b1461011d5780638bfc820f14610130578063be24138d14610143578063fba4ff9d1461015657600080fd5b8063070b9c3f1461009857806320759f9e146100ad578063367287e3146100d557806338d171b1146100e8575b600080fd5b6100ab6100a636600461135b565b610176565b005b6100c06100bb3660046113c0565b6101c2565b60405190151581526020015b60405180910390f35b6100c06100e3366004611414565b6101d9565b6100fb6100f636600461146f565b6101f0565b6040516100cc91906115a1565b610110610227565b6040516100cc91906116ed565b6100fb61012b366004611751565b610236565b6100ab61013e3660046117ec565b610265565b6100ab61015136600461135b565b6102a9565b61016961016436600461135b565b6102ed565b6040516100cc919061188a565b61017e6102fe565b6001600160a01b0316336001600160a01b0316146101b6576040516365f4906560e01b81523360048201526024015b60405180910390fd5b6101bf816103c8565b50565b60006101cf84848461041e565b90505b9392505050565b60006101e785858585610458565b95945050505050565b61021460405180606001604052806060815260200160608152602001606081525090565b61021e8383610472565b90505b92915050565b606061023161049e565b905090565b61025a60405180606001604052806060815260200160608152602001606081525090565b6101cf84848461059c565b61026d6102fe565b6001600160a01b0316336001600160a01b0316146102a0576040516365f4906560e01b81523360048201526024016101ad565b6101bf816105c8565b6102b16102fe565b6001600160a01b0316336001600160a01b0316146102e4576040516365f4906560e01b81523360048201526024016101ad565b6101bf81610626565b6102f5611313565b61022182610673565b6040805180820182527fd2f24d4f172e4e84e48e7c4125b6e904c29e5eba33ad4938fee51dd5dbd4b600546001600160a01b03168082527fd2f24d4f172e4e84e48e7c4125b6e904c29e5eba33ad4938fee51dd5dbd4b60154602080840182905284516331a9108f60e11b815260048101929092529351600094636352211e92602480820193918290030181865afa15801561039e573d6000803e3d6000fd5b505050506040513d601f19601f820116820180604052508101906103c2919061189d565b91505090565b6103d1816106c5565b6103dc81600061078e565b6040516001600160a01b038216815233907f055c4c0e6f85afe96beaac6c9d650859c001e6ef93103856624cce6ceba811b4906020015b60405180910390a250565b60006101cf6000801b85858560405160200161043b9291906118ba565b604051602081830303815290604052610453906118ca565b6108cd565b60006101e78585858560405160200161043b9291906118ba565b61049660405180606001604052806060815260200160608152602001606081525090565b61021e610b3c565b606060006104aa610c89565b905080516001600160401b038111156104c5576104c5611783565b6040519080825280602002602001820160405280156104fe57816020015b6104eb611313565b8152602001906001900390816104e35790505b50915060005b815181101561059757600080600080610535868681518110610528576105286118f1565b6020026020010151610ca2565b93509350935093506040518060800160405280858152602001846001600160a01b0316815260200183815260200182151581525087868151811061057b5761057b6118f1565b6020026020010181905250505050508080600101915050610504565b505090565b6105c060405180606001604052806060815260200160608152602001606081525090565b6101cf610b3c565b60005b8151811015610622576105f68282815181106105e9576105e96118f1565b60200260200101516106c5565b61061a82828151811061060b5761060b6118f1565b6020026020010151600161078e565b6001016105cb565b5050565b61062f816106c5565b61063881610e16565b6040516001600160a01b038216815233907fa8e3e13a35b592afaa9d213d12c7ea06384518ada9733585d20883cfafcf249b90602001610413565b61067b611313565b610684826106c5565b60008060008061069386610ca2565b604080516080810182529485526001600160a01b03909316602085015291830152151560608201529695505050505050565b6001600160a01b0381166106ec57604051630706e15760e51b815260040160405180910390fd5b6040516301ffc9a760e01b8152637bc2cb4560e11b60048201526001600160a01b038216906301ffc9a790602401602060405180830381865afa925050508015610753575060408051601f3d908101601f1916820190925261075091810190611907565b60015b6107705760405163f58a5f2760e01b815260040160405180910390fd5b806106225760405163f58a5f2760e01b815260040160405180910390fd5b81600080516020611b1f8339815191526107b6600080516020611aff83398151915283610ed3565b156107d457604051632406020960e01b815260040160405180910390fd5b6107e16001820185610ef5565b506040518060600160405280856001600160a01b031681526020018415158152602001836001600160a01b0316632e1b61e46040518163ffffffff1660e01b8152600401602060405180830381865afa158015610842573d6000803e3d6000fd5b505050506040513d601f19601f820116820180604052508101906108669190611907565b151590526001600160a01b0394851660009081526020928352604090819020825181549484015193909201511515600160a81b0260ff60a81b19931515600160a01b026001600160a81b031990951692909716919091179290921716939093179092555050565b6000806108d984610f0a565b80519091506000806108e96102fe565b90506000805b848110156109ad57600086828151811061090b5761090b6118f1565b60200260200101519050836001600160a01b0316878381518110610931576109316118f1565b60200260200101516001600160a01b0316036109575760019750505050505050506101d2565b61096081611093565b156109a4576001600160a01b03811660009081527fc21004fcc619240a31f006438274d15cd813308303284436eef6055f0fdcb60160205260409020546001955092505b506001016108ef565b5060008181527f49daf035076c43671ca9f9fb568d931e51ab7f9098a5a694781b45341112cf02602052604090205460ff16156109f2576000955050505050506101d2565b600080516020611b1f8339815191526000610a1a600080516020611aff8339815191526110a6565b905060005b81811015610b2a5760008381610a3860018301856110b0565b6001600160a01b039081168252602080830193909352604091820160002082516060810184529054918216815260ff600160a01b83048116151594820194909452600160a81b909104909216158015918301829052919250610b0a575080600001516001600160a01b0316630cf0b5338e8b8e6040518463ffffffff1660e01b8152600401610ac993929190611929565b602060405180830381865afa158015610ae6573d6000803e3d6000fd5b505050506040513d601f19601f82011682018060405250810190610b0a9190611907565b15610b2157600199505050505050505050506101d2565b50600101610a1f565b5060009b9a5050505050505050505050565b610b6060405180606001604052806060815260200160608152602001606081525090565b6040805160016060820181815260a0830190935290918291816020015b6040805180820190915260008082526020820152815260200190600190039081610b7d57505081526040805160008082526020828101909352919092019190610bf5565b604080516080810182526000808252602080830182905292820181905260608201528252600019909201910181610bc15790505b5081526020016000604051908082528060200260200182016040528015610c4857816020015b6040805160608101825260008082526020808301829052928201528252600019909201910181610c1b5790505b5090526040805180820190915260008082526020820181905282518051939450919283929190610c7a57610c7a6118f1565b60200260200101819052505090565b6060610231600080516020611aff8339815191526110bc565b606060008181600080516020611b1f833981519152610ccf600080516020611aff83398151915287610ed3565b610cec5760405163017ab33760e71b815260040160405180910390fd5b60008690506000816001600160a01b03166306fdde036040518163ffffffff1660e01b8152600401600060405180830381865afa158015610d31573d6000803e3d6000fd5b505050506040513d6000823e601f3d908101601f19168201604052610d59919081019061198b565b6001600160a01b03808a16600090815260208690526040808220548151636465e69f60e01b815291519495508316939192861691636465e69f9160048082019286929091908290030181865afa158015610db7573d6000803e3d6000fd5b505050506040513d6000823e601f3d908101601f19168201604052610ddf919081019061198b565b6001600160a01b039a909a16600090815260209590955250604090932054909892979650600160a01b900460ff1694509092505050565b600080516020611b1f833981519152610e3d600080516020611aff83398151915283610ed3565b610e5a5760405163017ab33760e71b815260040160405180910390fd5b6001600160a01b038216600090815260208290526040902054600160a01b900460ff1615610e9b57604051636045809760e11b815260040160405180910390fd5b610ea860018201836110c9565b506001600160a01b0390911660009081526020919091526040902080546001600160b01b0319169055565b6001600160a01b0381166000908152600183016020526040812054151561021e565b600061021e836001600160a01b0384166110de565b60606000610f3f7f438e2013c1d3a5bb9642eb30342f1d83ec0d3add620b71cdaf5043d9570b0a95546001600160a01b031690565b60405162468b7360e31b81526001600160a01b0385811660048301529192506000918316906302345b9890602401600060405180830381865afa158015610f8a573d6000803e3d6000fd5b505050506040513d6000823e601f3d908101601f19168201604052610fb29190810190611a1e565b80519091506000610fc4826001611ac2565b6001600160401b03811115610fdb57610fdb611783565b604051908082528060200260200182016040528015611004578160200160208202803683370190505b50905060005b8281101561105e57838181518110611024576110246118f1565b602002602001015182828151811061103e5761103e6118f1565b6001600160a01b039092166020928302919091019091015260010161100a565b5085818381518110611072576110726118f1565b6001600160a01b039092166020928302919091019091015295945050505050565b60008061109f8361112d565b1192915050565b6000610221825490565b600061021e838361119a565b606060006101d2836111c4565b600061021e836001600160a01b038416611220565b600081815260018301602052604081205461112557508154600181810184556000848152602080822090930184905584548482528286019093526040902091909155610221565b506000610221565b60006001600160a01b038216611156576040516323d3ad8160e21b815260040160405180910390fd5b506001600160a01b031660009081527f6569bde4a160c636ea8b8d11acb83a60d7fec0b8f2e09389306cba0e1340df0560205260409020546001600160401b031690565b60008260000182815481106111b1576111b16118f1565b9060005260206000200154905092915050565b60608160000180548060200260200160405190810160405280929190818152602001828054801561121457602002820191906000526020600020905b815481526020019060010190808311611200575b50505050509050919050565b60008181526001830160205260408120548015611309576000611244600183611ad5565b855490915060009061125890600190611ad5565b90508082146112bd576000866000018281548110611278576112786118f1565b906000526020600020015490508087600001848154811061129b5761129b6118f1565b6000918252602080832090910192909255918252600188019052604090208390555b85548690806112ce576112ce611ae8565b600190038181906000526020600020016000905590558560010160008681526020019081526020016000206000905560019350505050610221565b6000915050610221565b60405180608001604052806060815260200160006001600160a01b03168152602001606081526020016000151581525090565b6001600160a01b03811681146101bf57600080fd5b60006020828403121561136d57600080fd5b81356101d281611346565b60008083601f84011261138a57600080fd5b5081356001600160401b038111156113a157600080fd5b6020830191508360208285010111156113b957600080fd5b9250929050565b6000806000604084860312156113d557600080fd5b83356113e081611346565b925060208401356001600160401b038111156113fb57600080fd5b61140786828701611378565b9497909650939450505050565b6000806000806060858703121561142a57600080fd5b84359350602085013561143c81611346565b925060408501356001600160401b0381111561145757600080fd5b61146387828801611378565b95989497509550505050565b6000806020838503121561148257600080fd5b82356001600160401b0381111561149857600080fd5b6114a485828601611378565b90969095509350505050565b634e487b7160e01b600052602160045260246000fd5b600381106101bf576101bf6114b0565b60008151808452602080850194506020840160005b83811015611540578151805160068110611507576115076114b0565b885280840151848901526040808201516001600160a01b03169089015260609081015190880152608090960195908201906001016114eb565b509495945050505050565b60008151808452602080850194506020840160005b838110156115405781518051611575816114c6565b88528084015160ff908116858a0152604091820151169088015260609096019590820190600101611560565b6020808252825160608383015280516080840181905260009291820190839060a08601905b808310156115fd57835180516115db816114c6565b835285015160ff168583015292840192600192909201916040909101906115c6565b50838701519350601f1992508286820301604087015261161d81856114d6565b9350505060408501518185840301606086015261163a838261154b565b9695505050505050565b60005b8381101561165f578181015183820152602001611647565b50506000910152565b60008151808452611680816020860160208601611644565b601f01601f19169290920160200192915050565b60008151608084526116a96080850182611668565b905060018060a01b036020840151166020850152604083015184820360408601526116d48282611668565b9150506060830151151560608501528091505092915050565b600060208083016020845280855180835260408601915060408160051b87010192506020870160005b8281101561174457603f19888603018452611732858351611694565b94509285019290850190600101611716565b5092979650505050505050565b60008060006040848603121561176657600080fd5b8335925060208401356001600160401b038111156113fb57600080fd5b634e487b7160e01b600052604160045260246000fd5b604051601f8201601f191681016001600160401b03811182821017156117c1576117c1611783565b604052919050565b60006001600160401b038211156117e2576117e2611783565b5060051b60200190565b600060208083850312156117ff57600080fd5b82356001600160401b0381111561181557600080fd5b8301601f8101851361182657600080fd5b8035611839611834826117c9565b611799565b81815260059190911b8201830190838101908783111561185857600080fd5b928401925b8284101561187f57833561187081611346565b8252928401929084019061185d565b979650505050505050565b60208152600061021e6020830184611694565b6000602082840312156118af57600080fd5b81516101d281611346565b8183823760009101908152919050565b805160208083015191908110156118eb576000198160200360031b1b821691505b50919050565b634e487b7160e01b600052603260045260246000fd5b60006020828403121561191957600080fd5b815180151581146101d257600080fd5b60006060820185835260206060602085015281865180845260808601915060208801935060005b818110156119755784516001600160a01b031683529383019391830191600101611950565b5050809350505050826040830152949350505050565b60006020828403121561199d57600080fd5b81516001600160401b03808211156119b457600080fd5b818401915084601f8301126119c857600080fd5b8151818111156119da576119da611783565b6119ed601f8201601f1916602001611799565b9150808252856020828501011115611a0457600080fd5b611a15816020840160208601611644565b50949350505050565b60006020808385031215611a3157600080fd5b82516001600160401b03811115611a4757600080fd5b8301601f81018513611a5857600080fd5b8051611a66611834826117c9565b81815260059190911b82018301908381019087831115611a8557600080fd5b928401925b8284101561187f578351611a9d81611346565b82529284019290840190611a8a565b634e487b7160e01b600052601160045260246000fd5b8082018082111561022157610221611aac565b8181038181111561022157610221611aac565b634e487b7160e01b600052603160045260246000fdfea558e822bd359dacbe30f0da89cbfde5f95895b441e13a4864caec1423c93101a558e822bd359dacbe30f0da89cbfde5f95895b441e13a4864caec1423c93100","linkReferences":{}},"methodIdentifiers":{"addEntitlementModule(address)":"070b9c3f","addImmutableEntitlements(address[])":"8bfc820f","getChannelEntitlements(bytes32,string)":"542bee3b","getEntitlement(address)":"fba4ff9d","getEntitlements()":"487dc38c","getSpaceEntitlements(string)":"38d171b1","isEntitledToChannel(bytes32,address,string)":"367287e3","isEntitledToSpace(address,string)":"20759f9e","removeEntitlementModule(address)":"be24138d"},"id":144}