{"abi":[{"type":"function","name":"addEntitlementModule","inputs":[{"name":"entitlement","type":"address","internalType":"address"}],"outputs":[],"stateMutability":"nonpayable"},{"type":"function","name":"addImmutableEntitlements","inputs":[{"name":"entitlements","type":"address[]","internalType":"address[]"}],"outputs":[],"stateMutability":"nonpayable"},{"type":"function","name":"getChannelEntitlements","inputs":[{"name":"channelId","type":"string","internalType":"string"},{"name":"permission","type":"string","internalType":"string"}],"outputs":[{"name":"","type":"tuple","internalType":"struct IRuleEntitlement.RuleData","components":[{"name":"operations","type":"tuple[]","internalType":"struct IRuleEntitlement.Operation[]","components":[{"name":"opType","type":"uint8","internalType":"enum IRuleEntitlement.CombinedOperationType"},{"name":"index","type":"uint8","internalType":"uint8"}]},{"name":"checkOperations","type":"tuple[]","internalType":"struct IRuleEntitlement.CheckOperation[]","components":[{"name":"opType","type":"uint8","internalType":"enum IRuleEntitlement.CheckOperationType"},{"name":"chainId","type":"uint256","internalType":"uint256"},{"name":"contractAddress","type":"address","internalType":"address"},{"name":"threshold","type":"uint256","internalType":"uint256"}]},{"name":"logicalOperations","type":"tuple[]","internalType":"struct IRuleEntitlement.LogicalOperation[]","components":[{"name":"logOpType","type":"uint8","internalType":"enum IRuleEntitlement.LogicalOperationType"},{"name":"leftOperationIndex","type":"uint8","internalType":"uint8"},{"name":"rightOperationIndex","type":"uint8","internalType":"uint8"}]}]}],"stateMutability":"pure"},{"type":"function","name":"getEntitlement","inputs":[{"name":"entitlement","type":"address","internalType":"address"}],"outputs":[{"name":"","type":"tuple","internalType":"struct IEntitlementsManagerBase.Entitlement","components":[{"name":"name","type":"string","internalType":"string"},{"name":"moduleAddress","type":"address","internalType":"address"},{"name":"moduleType","type":"string","internalType":"string"},{"name":"isImmutable","type":"bool","internalType":"bool"}]}],"stateMutability":"view"},{"type":"function","name":"getEntitlements","inputs":[],"outputs":[{"name":"","type":"tuple[]","internalType":"struct IEntitlementsManagerBase.Entitlement[]","components":[{"name":"name","type":"string","internalType":"string"},{"name":"moduleAddress","type":"address","internalType":"address"},{"name":"moduleType","type":"string","internalType":"string"},{"name":"isImmutable","type":"bool","internalType":"bool"}]}],"stateMutability":"view"},{"type":"function","name":"getSpaceEntitlements","inputs":[{"name":"permission","type":"string","internalType":"string"}],"outputs":[{"name":"","type":"tuple","internalType":"struct IRuleEntitlement.RuleData","components":[{"name":"operations","type":"tuple[]","internalType":"struct IRuleEntitlement.Operation[]","components":[{"name":"opType","type":"uint8","internalType":"enum IRuleEntitlement.CombinedOperationType"},{"name":"index","type":"uint8","internalType":"uint8"}]},{"name":"checkOperations","type":"tuple[]","internalType":"struct IRuleEntitlement.CheckOperation[]","components":[{"name":"opType","type":"uint8","internalType":"enum IRuleEntitlement.CheckOperationType"},{"name":"chainId","type":"uint256","internalType":"uint256"},{"name":"contractAddress","type":"address","internalType":"address"},{"name":"threshold","type":"uint256","internalType":"uint256"}]},{"name":"logicalOperations","type":"tuple[]","internalType":"struct IRuleEntitlement.LogicalOperation[]","components":[{"name":"logOpType","type":"uint8","internalType":"enum IRuleEntitlement.LogicalOperationType"},{"name":"leftOperationIndex","type":"uint8","internalType":"uint8"},{"name":"rightOperationIndex","type":"uint8","internalType":"uint8"}]}]}],"stateMutability":"pure"},{"type":"function","name":"isEntitledToChannel","inputs":[{"name":"channelId","type":"string","internalType":"string"},{"name":"user","type":"address","internalType":"address"},{"name":"permission","type":"string","internalType":"string"}],"outputs":[{"name":"","type":"bool","internalType":"bool"}],"stateMutability":"view"},{"type":"function","name":"isEntitledToSpace","inputs":[{"name":"user","type":"address","internalType":"address"},{"name":"permission","type":"string","internalType":"string"}],"outputs":[{"name":"","type":"bool","internalType":"bool"}],"stateMutability":"view"},{"type":"function","name":"removeEntitlementModule","inputs":[{"name":"entitlement","type":"address","internalType":"address"}],"outputs":[],"stateMutability":"nonpayable"},{"type":"event","name":"Approval","inputs":[{"name":"owner","type":"address","indexed":true,"internalType":"address"},{"name":"approved","type":"address","indexed":true,"internalType":"address"},{"name":"tokenId","type":"uint256","indexed":true,"internalType":"uint256"}],"anonymous":false},{"type":"event","name":"ApprovalForAll","inputs":[{"name":"owner","type":"address","indexed":true,"internalType":"address"},{"name":"operator","type":"address","indexed":true,"internalType":"address"},{"name":"approved","type":"bool","indexed":false,"internalType":"bool"}],"anonymous":false},{"type":"event","name":"ConsecutiveTransfer","inputs":[{"name":"fromTokenId","type":"uint256","indexed":true,"internalType":"uint256"},{"name":"toTokenId","type":"uint256","indexed":false,"internalType":"uint256"},{"name":"from","type":"address","indexed":true,"internalType":"address"},{"name":"to","type":"address","indexed":true,"internalType":"address"}],"anonymous":false},{"type":"event","name":"EntitlementModuleAdded","inputs":[{"name":"caller","type":"address","indexed":true,"internalType":"address"},{"name":"entitlement","type":"address","indexed":false,"internalType":"address"}],"anonymous":false},{"type":"event","name":"EntitlementModuleRemoved","inputs":[{"name":"caller","type":"address","indexed":true,"internalType":"address"},{"name":"entitlement","type":"address","indexed":false,"internalType":"address"}],"anonymous":false},{"type":"event","name":"OwnershipTransferred","inputs":[{"name":"previousOwner","type":"address","indexed":true,"internalType":"address"},{"name":"newOwner","type":"address","indexed":true,"internalType":"address"}],"anonymous":false},{"type":"event","name":"Paused","inputs":[{"name":"account","type":"address","indexed":false,"internalType":"address"}],"anonymous":false},{"type":"event","name":"Transfer","inputs":[{"name":"from","type":"address","indexed":true,"internalType":"address"},{"name":"to","type":"address","indexed":true,"internalType":"address"},{"name":"tokenId","type":"uint256","indexed":true,"internalType":"uint256"}],"anonymous":false},{"type":"event","name":"Unpaused","inputs":[{"name":"account","type":"address","indexed":false,"internalType":"address"}],"anonymous":false},{"type":"error","name":"ApprovalCallerNotOwnerNorApproved","inputs":[]},{"type":"error","name":"ApprovalQueryForNonexistentToken","inputs":[]},{"type":"error","name":"BalanceQueryForZeroAddress","inputs":[]},{"type":"error","name":"Banning__InvalidTokenId","inputs":[{"name":"tokenId","type":"uint256","internalType":"uint256"}]},{"type":"error","name":"Entitlement__InvalidValue","inputs":[]},{"type":"error","name":"Entitlement__NotAllowed","inputs":[]},{"type":"error","name":"Entitlement__NotMember","inputs":[]},{"type":"error","name":"Entitlement__ValueAlreadyExists","inputs":[]},{"type":"error","name":"EntitlementsService__EntitlementAlreadyExists","inputs":[]},{"type":"error","name":"EntitlementsService__EntitlementDoesNotExist","inputs":[]},{"type":"error","name":"EntitlementsService__ImmutableEntitlement","inputs":[]},{"type":"error","name":"EntitlementsService__InvalidEntitlementAddress","inputs":[]},{"type":"error","name":"EntitlementsService__InvalidEntitlementInterface","inputs":[]},{"type":"error","name":"MintERC2309QuantityExceedsLimit","inputs":[]},{"type":"error","name":"MintToZeroAddress","inputs":[]},{"type":"error","name":"MintZeroQuantity","inputs":[]},{"type":"error","name":"Ownable__NotOwner","inputs":[{"name":"account","type":"address","internalType":"address"}]},{"type":"error","name":"Ownable__ZeroAddress","inputs":[]},{"type":"error","name":"OwnerQueryForNonexistentToken","inputs":[]},{"type":"error","name":"OwnershipNotInitializedForExtraData","inputs":[]},{"type":"error","name":"Pausable__NotPaused","inputs":[]},{"type":"error","name":"Pausable__Paused","inputs":[]},{"type":"error","name":"TransferCallerNotOwnerNorApproved","inputs":[]},{"type":"error","name":"TransferFromIncorrectOwner","inputs":[]},{"type":"error","name":"TransferToNonERC721ReceiverImplementer","inputs":[]},{"type":"error","name":"TransferToZeroAddress","inputs":[]},{"type":"error","name":"URIQueryForNonexistentToken","inputs":[]}],"bytecode":{"object":"0x608060405234801561001057600080fd5b50611d3f806100206000396000f3fe608060405234801561001057600080fd5b50600436106100935760003560e01c80638bfc820f116100665780638bfc820f1461010a5780638c9dc80c1461011d578063be24138d14610130578063cea632bc14610143578063fba4ff9d1461015657600080fd5b8063070b9c3f1461009857806320759f9e146100ad57806338d171b1146100d5578063487dc38c146100f5575b600080fd5b6100ab6100a63660046114c7565b610176565b005b6100c06100bb36600461152c565b6101c2565b60405190151581526020015b60405180910390f35b6100e86100e3366004611580565b6101d9565b6040516100cc91906116b2565b6100fd610210565b6040516100cc91906117f4565b6100ab6101183660046118c1565b61021f565b6100e861012b36600461195f565b610263565b6100ab61013e3660046114c7565b6102d3565b6100c06101513660046119ca565b610317565b6101696101643660046114c7565b610367565b6040516100cc9190611a4e565b61017e610378565b6001600160a01b0316336001600160a01b0316146101b6576040516365f4906560e01b81523360048201526024015b60405180910390fd5b6101bf81610442565b50565b60006101cf848484610498565b90505b9392505050565b6101fd60405180606001604052806060815260200160608152602001606081525090565b61020783836104de565b90505b92915050565b606061021a61050a565b905090565b610227610378565b6001600160a01b0316336001600160a01b03161461025a576040516365f4906560e01b81523360048201526024016101ad565b6101bf81610608565b61028760405180606001604052806060815260200160608152602001606081525090565b6102ca85858080601f0160208091040260200160405190810160405280939291908181526020018383808284376000920191909152508792508691506106669050565b95945050505050565b6102db610378565b6001600160a01b0316336001600160a01b03161461030e576040516365f4906560e01b81523360048201526024016101ad565b6101bf81610692565b600061035d86868080601f0160208091040260200160405190810160405280939291908181526020018383808284376000920191909152508892508791508690506106df565b9695505050505050565b61036f61147f565b61020a826106f9565b6040805180820182527f9bd0e1a7aef81c47cff971a2fee48406b20f55522326b2e2616c49c24aa506d0546001600160a01b03168082527f9bd0e1a7aef81c47cff971a2fee48406b20f55522326b2e2616c49c24aa506d154602080840182905284516331a9108f60e11b815260048101929092529351600094636352211e92602480820193918290030181865afa158015610418573d6000803e3d6000fd5b505050506040513d601f19601f8201168201806040525081019061043c9190611a61565b91505090565b61044b8161074b565b610456816000610814565b6040516001600160a01b038216815233907f055c4c0e6f85afe96beaac6c9d650859c001e6ef93103856624cce6ceba811b4906020015b60405180910390a250565b60006101cf604051806020016040528060008152508585856040516020016104c1929190611a7e565b6040516020818303038152906040526104d990611a8e565b610953565b61050260405180606001604052806060815260200160608152602001606081525090565b610207610c4e565b60606000610516610d9b565b905080516001600160401b0381111561053157610531611858565b60405190808252806020026020018201604052801561056a57816020015b61055761147f565b81526020019060019003908161054f5790505b50915060005b8151811015610603576000806000806105a186868151811061059457610594611ab5565b6020026020010151610db4565b93509350935093506040518060800160405280858152602001846001600160a01b031681526020018381526020018215158152508786815181106105e7576105e7611ab5565b6020026020010181905250505050508080600101915050610570565b505090565b60005b81518110156106625761063682828151811061062957610629611ab5565b602002602001015161074b565b61065a82828151811061064b5761064b611ab5565b60200260200101516001610814565b60010161060b565b5050565b61068a60405180606001604052806060815260200160608152602001606081525090565b6101cf610c4e565b61069b8161074b565b6106a481610f28565b6040516001600160a01b038216815233907fa8e3e13a35b592afaa9d213d12c7ea06384518ada9733585d20883cfafcf249b9060200161048d565b60006102ca858585856040516020016104c1929190611a7e565b61070161147f565b61070a8261074b565b60008060008061071986610db4565b604080516080810182529485526001600160a01b03909316602085015291830152151560608201529695505050505050565b6001600160a01b03811661077257604051630706e15760e51b815260040160405180910390fd5b6040516301ffc9a760e01b8152630b98417960e31b60048201526001600160a01b038216906301ffc9a790602401602060405180830381865afa9250505080156107d9575060408051601f3d908101601f191682019092526107d691810190611acb565b60015b6107f65760405163f58a5f2760e01b815260040160405180910390fd5b806106625760405163f58a5f2760e01b815260040160405180910390fd5b81600080516020611cff83398151915261083c600080516020611d1f83398151915283610fe5565b1561085a57604051632406020960e01b815260040160405180910390fd5b6108676001820185611007565b506040518060600160405280856001600160a01b031681526020018415158152602001836001600160a01b0316632e1b61e46040518163ffffffff1660e01b8152600401602060405180830381865afa1580156108c8573d6000803e3d6000fd5b505050506040513d601f19601f820116820180604052508101906108ec9190611acb565b151590526001600160a01b0394851660009081526020928352604090819020825181549484015193909201511515600160a81b0260ff60a81b19931515600160a01b026001600160a81b031990951692909716919091179290921716939093179092555050565b60008061095f8461101c565b8051909150600080805b8381108015610976575082155b156109f957600085828151811061098f5761098f611ab5565b602002602001015190506109a2816111a5565b156109e6576001600160a01b03811660009081527f9b35df16c33a6c0e085c9ebd55fb367f81c58c2ed7e9bed98cc622f3308a600e60205260409020546001945092505b50806109f181611b03565b915050610969565b50818015610a4f5750604051806040016040528060098152602001684a6f696e537061636560b81b815250604051602001610a349190611b1c565b604051602081830303815290604052610a4c90611a8e565b86145b15610a615760009450505050506101d2565b6000610a6b610378565b905060005b8551811015610ac257816001600160a01b0316868281518110610a9557610a95611ab5565b60200260200101516001600160a01b031603610aba57600196505050505050506101d2565b600101610a70565b5060008281527fa58ec377a0bfb65fc456fb479d6eb2f9e176963c85db6b84841175b4a0b637e9602052604090205460ff1680610b045750610b0489836111b8565b15610b17576000955050505050506101d2565b600080516020611cff83398151915260005b610b3582600101611212565b811015610c3d5760008281610b4d600183018561121c565b6001600160a01b039081168252602080830193909352604091820160002082516060810184529054918216815260ff600160a01b83048116151594820194909452600160a81b909104909216158015918301829052919250610c1e5750805160405163a7b7287160e01b81526001600160a01b039091169063a7b7287190610bdd908f908c908f90600401611b38565b602060405180830381865afa158015610bfa573d6000803e3d6000fd5b505050506040513d601f19601f82011682018060405250810190610c1e9190611acb565b15610c34576001985050505050505050506101d2565b50600101610b29565b5060009a9950505050505050505050565b610c7260405180606001604052806060815260200160608152602001606081525090565b6040805160016060820181815260a0830190935290918291816020015b6040805180820190915260008082526020820152815260200190600190039081610c8f57505081526040805160008082526020828101909352919092019190610d07565b604080516080810182526000808252602080830182905292820181905260608201528252600019909201910181610cd35790505b5081526020016000604051908082528060200260200182016040528015610d5a57816020015b6040805160608101825260008082526020808301829052928201528252600019909201910181610d2d5790505b5090526040805180820190915260008082526020820181905282518051939450919283929190610d8c57610d8c611ab5565b60200260200101819052505090565b606061021a600080516020611d1f833981519152611228565b606060008181600080516020611cff833981519152610de1600080516020611d1f83398151915287610fe5565b610dfe5760405163017ab33760e71b815260040160405180910390fd5b60008690506000816001600160a01b03166306fdde036040518163ffffffff1660e01b8152600401600060405180830381865afa158015610e43573d6000803e3d6000fd5b505050506040513d6000823e601f3d908101601f19168201604052610e6b9190810190611ba1565b6001600160a01b03808a16600090815260208690526040808220548151636465e69f60e01b815291519495508316939192861691636465e69f9160048082019286929091908290030181865afa158015610ec9573d6000803e3d6000fd5b505050506040513d6000823e601f3d908101601f19168201604052610ef19190810190611ba1565b6001600160a01b039a909a16600090815260209590955250604090932054909892979650600160a01b900460ff1694509092505050565b600080516020611cff833981519152610f4f600080516020611d1f83398151915283610fe5565b610f6c5760405163017ab33760e71b815260040160405180910390fd5b6001600160a01b038216600090815260208290526040902054600160a01b900460ff1615610fad57604051636045809760e11b815260040160405180910390fd5b610fba6001820183611235565b506001600160a01b0390911660009081526020919091526040902080546001600160b01b0319169055565b6001600160a01b03811660009081526001830160205260408120541515610207565b6000610207836001600160a01b03841661124a565b606060006110517f438e2013c1d3a5bb9642eb30342f1d83ec0d3add620b71cdaf5043d9570b0a95546001600160a01b031690565b60405162468b7360e31b81526001600160a01b0385811660048301529192506000918316906302345b9890602401600060405180830381865afa15801561109c573d6000803e3d6000fd5b505050506040513d6000823e601f3d908101601f191682016040526110c49190810190611c34565b805190915060006110d6826001611cc2565b6001600160401b038111156110ed576110ed611858565b604051908082528060200260200182016040528015611116578160200160208202803683370190505b50905060005b828110156111705783818151811061113657611136611ab5565b602002602001015182828151811061115057611150611ab5565b6001600160a01b039092166020928302919091019091015260010161111c565b508581838151811061118457611184611ab5565b6001600160a01b039092166020928302919091019091015295945050505050565b6000806111b183611299565b1192915050565b60007fa58ec377a0bfb65fc456fb479d6eb2f9e176963c85db6b84841175b4a0b637e9600101836040516111ec9190611b1c565b908152604080516020928190038301902060009485529091529091205460ff1692915050565b600061020a825490565b60006102078383611306565b606060006101d283611330565b6000610207836001600160a01b03841661138c565b60008181526001830160205260408120546112915750815460018181018455600084815260208082209093018490558454848252828601909352604090209190915561020a565b50600061020a565b60006001600160a01b0382166112c2576040516323d3ad8160e21b815260040160405180910390fd5b506001600160a01b031660009081527f234d8962d7c9a6a6604d7f98797e6ad6d7a886804f7409feb26422e27bf8125960205260409020546001600160401b031690565b600082600001828154811061131d5761131d611ab5565b9060005260206000200154905092915050565b60608160000180548060200260200160405190810160405280929190818152602001828054801561138057602002820191906000526020600020905b81548152602001906001019080831161136c575b50505050509050919050565b600081815260018301602052604081205480156114755760006113b0600183611cd5565b85549091506000906113c490600190611cd5565b90508082146114295760008660000182815481106113e4576113e4611ab5565b906000526020600020015490508087600001848154811061140757611407611ab5565b6000918252602080832090910192909255918252600188019052604090208390555b855486908061143a5761143a611ce8565b60019003818190600052602060002001600090559055856001016000868152602001908152602001600020600090556001935050505061020a565b600091505061020a565b60405180608001604052806060815260200160006001600160a01b03168152602001606081526020016000151581525090565b6001600160a01b03811681146101bf57600080fd5b6000602082840312156114d957600080fd5b81356101d2816114b2565b60008083601f8401126114f657600080fd5b5081356001600160401b0381111561150d57600080fd5b60208301915083602082850101111561152557600080fd5b9250929050565b60008060006040848603121561154157600080fd5b833561154c816114b2565b925060208401356001600160401b0381111561156757600080fd5b611573868287016114e4565b9497909650939450505050565b6000806020838503121561159357600080fd5b82356001600160401b038111156115a957600080fd5b6115b5858286016114e4565b90969095509350505050565b634e487b7160e01b600052602160045260246000fd5b600381106101bf576101bf6115c1565b60008151808452602080850194506020840160005b83811015611651578151805160068110611618576116186115c1565b885280840151848901526040808201516001600160a01b03169089015260609081015190880152608090960195908201906001016115fc565b509495945050505050565b60008151808452602080850194506020840160005b838110156116515781518051611686816115d7565b88528084015160ff908116858a0152604091820151169088015260609096019590820190600101611671565b6020808252825160608383015280516080840181905260009291820190839060a08601905b8083101561170e57835180516116ec816115d7565b835285015160ff168583015292840192600192909201916040909101906116d7565b50838701519350601f1992508286820301604087015261172e81856115e7565b9350505060408501518185840301606086015261035d838261165c565b60005b8381101561176657818101518382015260200161174e565b50506000910152565b6000815180845261178781602086016020860161174b565b601f01601f19169290920160200192915050565b60008151608084526117b0608085018261176f565b905060018060a01b036020840151166020850152604083015184820360408601526117db828261176f565b9150506060830151151560608501528091505092915050565b600060208083016020845280855180835260408601915060408160051b87010192506020870160005b8281101561184b57603f1988860301845261183985835161179b565b9450928501929085019060010161181d565b5092979650505050505050565b634e487b7160e01b600052604160045260246000fd5b604051601f8201601f191681016001600160401b038111828210171561189657611896611858565b604052919050565b60006001600160401b038211156118b7576118b7611858565b5060051b60200190565b600060208083850312156118d457600080fd5b82356001600160401b038111156118ea57600080fd5b8301601f810185136118fb57600080fd5b803561190e6119098261189e565b61186e565b81815260059190911b8201830190838101908783111561192d57600080fd5b928401925b82841015611954578335611945816114b2565b82529284019290840190611932565b979650505050505050565b6000806000806040858703121561197557600080fd5b84356001600160401b038082111561198c57600080fd5b611998888389016114e4565b909650945060208701359150808211156119b157600080fd5b506119be878288016114e4565b95989497509550505050565b6000806000806000606086880312156119e257600080fd5b85356001600160401b03808211156119f957600080fd5b611a0589838a016114e4565b909750955060208801359150611a1a826114b2565b90935060408701359080821115611a3057600080fd5b50611a3d888289016114e4565b969995985093965092949392505050565b602081526000610207602083018461179b565b600060208284031215611a7357600080fd5b81516101d2816114b2565b8183823760009101908152919050565b80516020808301519190811015611aaf576000198160200360031b1b821691505b50919050565b634e487b7160e01b600052603260045260246000fd5b600060208284031215611add57600080fd5b815180151581146101d257600080fd5b634e487b7160e01b600052601160045260246000fd5b600060018201611b1557611b15611aed565b5060010190565b60008251611b2e81846020870161174b565b9190910192915050565b606081526000611b4b606083018661176f565b82810360208481019190915285518083528682019282019060005b81811015611b8b5784516001600160a01b031683529383019391830191600101611b66565b5050809350505050826040830152949350505050565b600060208284031215611bb357600080fd5b81516001600160401b0380821115611bca57600080fd5b818401915084601f830112611bde57600080fd5b815181811115611bf057611bf0611858565b611c03601f8201601f191660200161186e565b9150808252856020828501011115611c1a57600080fd5b611c2b81602084016020860161174b565b50949350505050565b60006020808385031215611c4757600080fd5b82516001600160401b03811115611c5d57600080fd5b8301601f81018513611c6e57600080fd5b8051611c7c6119098261189e565b81815260059190911b82018301908381019087831115611c9b57600080fd5b928401925b82841015611954578351611cb3816114b2565b82529284019290840190611ca0565b8082018082111561020a5761020a611aed565b8181038181111561020a5761020a611aed565b634e487b7160e01b600052603160045260246000fdfe2df4f8e2489b335ef09ede56990b0838afbcdea6c639a41af44b533474fb85582df4f8e2489b335ef09ede56990b0838afbcdea6c639a41af44b533474fb8559","linkReferences":{}},"methodIdentifiers":{"addEntitlementModule(address)":"070b9c3f","addImmutableEntitlements(address[])":"8bfc820f","getChannelEntitlements(string,string)":"8c9dc80c","getEntitlement(address)":"fba4ff9d","getEntitlements()":"487dc38c","getSpaceEntitlements(string)":"38d171b1","isEntitledToChannel(string,address,string)":"cea632bc","isEntitledToSpace(address,string)":"20759f9e","removeEntitlementModule(address)":"be24138d"},"id":155}