{"abi":[{"type":"function","name":"__ERC721A_init","inputs":[{"name":"name_","type":"string","internalType":"string"},{"name":"symbol_","type":"string","internalType":"string"}],"outputs":[],"stateMutability":"nonpayable"},{"type":"function","name":"__Membership_init","inputs":[{"name":"info","type":"tuple","internalType":"struct IMembershipBase.Membership","components":[{"name":"name","type":"string","internalType":"string"},{"name":"symbol","type":"string","internalType":"string"},{"name":"price","type":"uint256","internalType":"uint256"},{"name":"maxSupply","type":"uint256","internalType":"uint256"},{"name":"duration","type":"uint64","internalType":"uint64"},{"name":"currency","type":"address","internalType":"address"},{"name":"feeRecipient","type":"address","internalType":"address"},{"name":"freeAllocation","type":"uint256","internalType":"uint256"},{"name":"pricingModule","type":"address","internalType":"address"}]},{"name":"spaceFactory","type":"address","internalType":"address"}],"outputs":[],"stateMutability":"nonpayable"},{"type":"function","name":"_getMembershipCurrency","inputs":[],"outputs":[{"name":"","type":"address","internalType":"address"}],"stateMutability":"view"},{"type":"function","name":"_getMembershipFreeAllocation","inputs":[],"outputs":[{"name":"","type":"uint256","internalType":"uint256"}],"stateMutability":"view"},{"type":"function","name":"_getMembershipPrice","inputs":[{"name":"totalSupply","type":"uint256","internalType":"uint256"}],"outputs":[{"name":"","type":"uint256","internalType":"uint256"}],"stateMutability":"view"},{"type":"function","name":"_getMembershipSupplyLimit","inputs":[],"outputs":[{"name":"","type":"uint256","internalType":"uint256"}],"stateMutability":"view"},{"type":"function","name":"_getPricingModule","inputs":[],"outputs":[{"name":"","type":"address","internalType":"address"}],"stateMutability":"view"},{"type":"function","name":"_getSpaceFactory","inputs":[],"outputs":[{"name":"","type":"address","internalType":"address"}],"stateMutability":"view"},{"type":"function","name":"_setMembershipFreeAllocation","inputs":[{"name":"newAllocation","type":"uint256","internalType":"uint256"}],"outputs":[],"stateMutability":"nonpayable"},{"type":"function","name":"_setMembershipSupplyLimit","inputs":[{"name":"newLimit","type":"uint256","internalType":"uint256"}],"outputs":[],"stateMutability":"nonpayable"},{"type":"function","name":"_setPricingModule","inputs":[{"name":"newPricingModule","type":"address","internalType":"address"}],"outputs":[],"stateMutability":"nonpayable"},{"type":"function","name":"approve","inputs":[{"name":"to","type":"address","internalType":"address"},{"name":"tokenId","type":"uint256","internalType":"uint256"}],"outputs":[],"stateMutability":"payable"},{"type":"function","name":"balanceOf","inputs":[{"name":"account","type":"address","internalType":"address"}],"outputs":[{"name":"","type":"uint256","internalType":"uint256"}],"stateMutability":"view"},{"type":"function","name":"cancelMembership","inputs":[{"name":"tokenId","type":"uint256","internalType":"uint256"}],"outputs":[],"stateMutability":"nonpayable"},{"type":"function","name":"expiresAt","inputs":[{"name":"tokenId","type":"uint256","internalType":"uint256"}],"outputs":[{"name":"","type":"uint256","internalType":"uint256"}],"stateMutability":"view"},{"type":"function","name":"getApproved","inputs":[{"name":"tokenId","type":"uint256","internalType":"uint256"}],"outputs":[{"name":"","type":"address","internalType":"address"}],"stateMutability":"view"},{"type":"function","name":"getMembershipCurrency","inputs":[],"outputs":[{"name":"","type":"address","internalType":"address"}],"stateMutability":"view"},{"type":"function","name":"getMembershipDuration","inputs":[],"outputs":[{"name":"","type":"uint64","internalType":"uint64"}],"stateMutability":"view"},{"type":"function","name":"getMembershipFreeAllocation","inputs":[],"outputs":[{"name":"","type":"uint256","internalType":"uint256"}],"stateMutability":"view"},{"type":"function","name":"getMembershipLimit","inputs":[],"outputs":[{"name":"","type":"uint256","internalType":"uint256"}],"stateMutability":"view"},{"type":"function","name":"getMembershipPrice","inputs":[],"outputs":[{"name":"","type":"uint256","internalType":"uint256"}],"stateMutability":"view"},{"type":"function","name":"getMembershipPricingModule","inputs":[],"outputs":[{"name":"","type":"address","internalType":"address"}],"stateMutability":"view"},{"type":"function","name":"getMembershipRenewalPrice","inputs":[{"name":"tokenId","type":"uint256","internalType":"uint256"}],"outputs":[{"name":"","type":"uint256","internalType":"uint256"}],"stateMutability":"view"},{"type":"function","name":"getSpaceFactory","inputs":[],"outputs":[{"name":"","type":"address","internalType":"address"}],"stateMutability":"view"},{"type":"function","name":"getTokenIdByMembership","inputs":[{"name":"member","type":"address","internalType":"address"}],"outputs":[{"name":"","type":"uint256","internalType":"uint256"}],"stateMutability":"view"},{"type":"function","name":"isApprovedForAll","inputs":[{"name":"owner","type":"address","internalType":"address"},{"name":"operator","type":"address","internalType":"address"}],"outputs":[{"name":"","type":"bool","internalType":"bool"}],"stateMutability":"view"},{"type":"function","name":"joinSpace","inputs":[{"name":"receiver","type":"address","internalType":"address"}],"outputs":[],"stateMutability":"payable"},{"type":"function","name":"joinSpaceWithReferral","inputs":[{"name":"receiver","type":"address","internalType":"address"},{"name":"referrer","type":"address","internalType":"address"},{"name":"referralCode","type":"uint256","internalType":"uint256"}],"outputs":[],"stateMutability":"payable"},{"type":"function","name":"name","inputs":[],"outputs":[{"name":"","type":"string","internalType":"string"}],"stateMutability":"view"},{"type":"function","name":"ownerOf","inputs":[{"name":"tokenId","type":"uint256","internalType":"uint256"}],"outputs":[{"name":"","type":"address","internalType":"address"}],"stateMutability":"view"},{"type":"function","name":"postEntitlementCheckResult","inputs":[{"name":"transactionId","type":"bytes32","internalType":"bytes32"},{"name":"result","type":"uint8","internalType":"enum IEntitlementGatedBase.NodeVoteStatus"}],"outputs":[],"stateMutability":"nonpayable"},{"type":"function","name":"renewMembership","inputs":[{"name":"tokenId","type":"uint256","internalType":"uint256"}],"outputs":[],"stateMutability":"payable"},{"type":"function","name":"requestEntitlementCheck","inputs":[],"outputs":[{"name":"","type":"bytes32","internalType":"bytes32"}],"stateMutability":"nonpayable"},{"type":"function","name":"safeTransferFrom","inputs":[{"name":"from","type":"address","internalType":"address"},{"name":"to","type":"address","internalType":"address"},{"name":"tokenId","type":"uint256","internalType":"uint256"}],"outputs":[],"stateMutability":"payable"},{"type":"function","name":"safeTransferFrom","inputs":[{"name":"from","type":"address","internalType":"address"},{"name":"to","type":"address","internalType":"address"},{"name":"tokenId","type":"uint256","internalType":"uint256"},{"name":"_data","type":"bytes","internalType":"bytes"}],"outputs":[],"stateMutability":"payable"},{"type":"function","name":"setApprovalForAll","inputs":[{"name":"operator","type":"address","internalType":"address"},{"name":"approved","type":"bool","internalType":"bool"}],"outputs":[],"stateMutability":"nonpayable"},{"type":"function","name":"setMembershipDuration","inputs":[{"name":"newDuration","type":"uint64","internalType":"uint64"}],"outputs":[],"stateMutability":"nonpayable"},{"type":"function","name":"setMembershipFreeAllocation","inputs":[{"name":"newAllocation","type":"uint256","internalType":"uint256"}],"outputs":[],"stateMutability":"nonpayable"},{"type":"function","name":"setMembershipLimit","inputs":[{"name":"newLimit","type":"uint256","internalType":"uint256"}],"outputs":[],"stateMutability":"nonpayable"},{"type":"function","name":"setMembershipPrice","inputs":[{"name":"newPrice","type":"uint256","internalType":"uint256"}],"outputs":[],"stateMutability":"nonpayable"},{"type":"function","name":"setMembershipPricingModule","inputs":[{"name":"pricingModule","type":"address","internalType":"address"}],"outputs":[],"stateMutability":"nonpayable"},{"type":"function","name":"symbol","inputs":[],"outputs":[{"name":"","type":"string","internalType":"string"}],"stateMutability":"view"},{"type":"function","name":"tokenURI","inputs":[{"name":"tokenId","type":"uint256","internalType":"uint256"}],"outputs":[{"name":"","type":"string","internalType":"string"}],"stateMutability":"view"},{"type":"function","name":"totalSupply","inputs":[],"outputs":[{"name":"","type":"uint256","internalType":"uint256"}],"stateMutability":"view"},{"type":"function","name":"transferFrom","inputs":[{"name":"from","type":"address","internalType":"address"},{"name":"to","type":"address","internalType":"address"},{"name":"tokenId","type":"uint256","internalType":"uint256"}],"outputs":[],"stateMutability":"payable"},{"type":"function","name":"withdraw","inputs":[{"name":"account","type":"address","internalType":"address"}],"outputs":[],"stateMutability":"nonpayable"},{"type":"event","name":"Approval","inputs":[{"name":"owner","type":"address","indexed":true,"internalType":"address"},{"name":"approved","type":"address","indexed":true,"internalType":"address"},{"name":"tokenId","type":"uint256","indexed":true,"internalType":"uint256"}],"anonymous":false},{"type":"event","name":"ApprovalForAll","inputs":[{"name":"owner","type":"address","indexed":true,"internalType":"address"},{"name":"operator","type":"address","indexed":true,"internalType":"address"},{"name":"approved","type":"bool","indexed":false,"internalType":"bool"}],"anonymous":false},{"type":"event","name":"Banned","inputs":[{"name":"moderator","type":"address","indexed":true,"internalType":"address"},{"name":"tokenId","type":"uint256","indexed":true,"internalType":"uint256"}],"anonymous":false},{"type":"event","name":"ConsecutiveTransfer","inputs":[{"name":"fromTokenId","type":"uint256","indexed":true,"internalType":"uint256"},{"name":"toTokenId","type":"uint256","indexed":false,"internalType":"uint256"},{"name":"from","type":"address","indexed":true,"internalType":"address"},{"name":"to","type":"address","indexed":true,"internalType":"address"}],"anonymous":false},{"type":"event","name":"EntitlementCheckResultPosted","inputs":[{"name":"transactionId","type":"bytes32","indexed":true,"internalType":"bytes32"},{"name":"result","type":"uint8","indexed":false,"internalType":"enum IEntitlementGatedBase.NodeVoteStatus"}],"anonymous":false},{"type":"event","name":"Initialized","inputs":[{"name":"version","type":"uint32","indexed":false,"internalType":"uint32"}],"anonymous":false},{"type":"event","name":"InterfaceAdded","inputs":[{"name":"interfaceId","type":"bytes4","indexed":true,"internalType":"bytes4"}],"anonymous":false},{"type":"event","name":"InterfaceRemoved","inputs":[{"name":"interfaceId","type":"bytes4","indexed":true,"internalType":"bytes4"}],"anonymous":false},{"type":"event","name":"MembershipCurrencyUpdated","inputs":[{"name":"currency","type":"address","indexed":true,"internalType":"address"}],"anonymous":false},{"type":"event","name":"MembershipFeeRecipientUpdated","inputs":[{"name":"recipient","type":"address","indexed":true,"internalType":"address"}],"anonymous":false},{"type":"event","name":"MembershipFreeAllocationUpdated","inputs":[{"name":"allocation","type":"uint256","indexed":true,"internalType":"uint256"}],"anonymous":false},{"type":"event","name":"MembershipLimitUpdated","inputs":[{"name":"limit","type":"uint256","indexed":true,"internalType":"uint256"}],"anonymous":false},{"type":"event","name":"MembershipPriceUpdated","inputs":[{"name":"price","type":"uint256","indexed":true,"internalType":"uint256"}],"anonymous":false},{"type":"event","name":"MembershipTokenIssued","inputs":[{"name":"recipient","type":"address","indexed":true,"internalType":"address"},{"name":"tokenId","type":"uint256","indexed":true,"internalType":"uint256"}],"anonymous":false},{"type":"event","name":"MembershipTokenRejected","inputs":[{"name":"recipient","type":"address","indexed":true,"internalType":"address"}],"anonymous":false},{"type":"event","name":"MembershipWithdrawal","inputs":[{"name":"recipient","type":"address","indexed":true,"internalType":"address"},{"name":"amount","type":"uint256","indexed":false,"internalType":"uint256"}],"anonymous":false},{"type":"event","name":"Membership__ReferralCreated","inputs":[{"name":"code","type":"uint256","indexed":true,"internalType":"uint256"},{"name":"bps","type":"uint16","indexed":false,"internalType":"uint16"}],"anonymous":false},{"type":"event","name":"Membership__ReferralRemoved","inputs":[{"name":"code","type":"uint256","indexed":true,"internalType":"uint256"}],"anonymous":false},{"type":"event","name":"Membership__ReferralTimeCreated","inputs":[{"name":"code","type":"uint256","indexed":true,"internalType":"uint256"},{"name":"bps","type":"uint16","indexed":false,"internalType":"uint16"},{"name":"startTime","type":"uint256","indexed":false,"internalType":"uint256"},{"name":"endTime","type":"uint256","indexed":false,"internalType":"uint256"}],"anonymous":false},{"type":"event","name":"OwnershipTransferred","inputs":[{"name":"previousOwner","type":"address","indexed":true,"internalType":"address"},{"name":"newOwner","type":"address","indexed":true,"internalType":"address"}],"anonymous":false},{"type":"event","name":"Paused","inputs":[{"name":"account","type":"address","indexed":false,"internalType":"address"}],"anonymous":false},{"type":"event","name":"RoleCreated","inputs":[{"name":"creator","type":"address","indexed":true,"internalType":"address"},{"name":"roleId","type":"uint256","indexed":true,"internalType":"uint256"}],"anonymous":false},{"type":"event","name":"RoleRemoved","inputs":[{"name":"remover","type":"address","indexed":true,"internalType":"address"},{"name":"roleId","type":"uint256","indexed":true,"internalType":"uint256"}],"anonymous":false},{"type":"event","name":"RoleUpdated","inputs":[{"name":"updater","type":"address","indexed":true,"internalType":"address"},{"name":"roleId","type":"uint256","indexed":true,"internalType":"uint256"}],"anonymous":false},{"type":"event","name":"SubscriptionUpdate","inputs":[{"name":"tokenId","type":"uint256","indexed":true,"internalType":"uint256"},{"name":"expiration","type":"uint64","indexed":false,"internalType":"uint64"}],"anonymous":false},{"type":"event","name":"Transfer","inputs":[{"name":"from","type":"address","indexed":true,"internalType":"address"},{"name":"to","type":"address","indexed":true,"internalType":"address"},{"name":"tokenId","type":"uint256","indexed":true,"internalType":"uint256"}],"anonymous":false},{"type":"event","name":"Unbanned","inputs":[{"name":"moderator","type":"address","indexed":true,"internalType":"address"},{"name":"tokenId","type":"uint256","indexed":true,"internalType":"uint256"}],"anonymous":false},{"type":"event","name":"Unpaused","inputs":[{"name":"account","type":"address","indexed":false,"internalType":"address"}],"anonymous":false},{"type":"error","name":"AddressEmptyCode","inputs":[{"name":"target","type":"address","internalType":"address"}]},{"type":"error","name":"AddressInsufficientBalance","inputs":[{"name":"account","type":"address","internalType":"address"}]},{"type":"error","name":"ApprovalCallerNotOwnerNorApproved","inputs":[]},{"type":"error","name":"ApprovalQueryForNonexistentToken","inputs":[]},{"type":"error","name":"BalanceQueryForZeroAddress","inputs":[]},{"type":"error","name":"Banning__AlreadyBanned","inputs":[{"name":"tokenId","type":"uint256","internalType":"uint256"}]},{"type":"error","name":"Banning__CannotBanSelf","inputs":[]},{"type":"error","name":"Banning__InvalidTokenId","inputs":[{"name":"tokenId","type":"uint256","internalType":"uint256"}]},{"type":"error","name":"Banning__NotBanned","inputs":[{"name":"tokenId","type":"uint256","internalType":"uint256"}]},{"type":"error","name":"ERC5643__DurationZero","inputs":[]},{"type":"error","name":"ERC5643__InvalidTokenId","inputs":[{"name":"tokenId","type":"uint256","internalType":"uint256"}]},{"type":"error","name":"ERC5643__NotApprovedOrOwner","inputs":[]},{"type":"error","name":"ERC5643__SubscriptionNotRenewable","inputs":[{"name":"tokenId","type":"uint256","internalType":"uint256"}]},{"type":"error","name":"EntitlementGated_InvalidAddress","inputs":[]},{"type":"error","name":"EntitlementGated_NodeAlreadyVoted","inputs":[]},{"type":"error","name":"EntitlementGated_NodeNotFound","inputs":[]},{"type":"error","name":"EntitlementGated_TransactionAlreadyCompleted","inputs":[]},{"type":"error","name":"EntitlementGated_TransactionAlreadyRegistered","inputs":[]},{"type":"error","name":"EntitlementGated_TransactionNotRegistered","inputs":[]},{"type":"error","name":"Entitlement__InvalidValue","inputs":[]},{"type":"error","name":"Entitlement__NotAllowed","inputs":[]},{"type":"error","name":"Entitlement__NotMember","inputs":[]},{"type":"error","name":"Entitlement__ValueAlreadyExists","inputs":[]},{"type":"error","name":"FailedInnerCall","inputs":[]},{"type":"error","name":"Initializable_InInitializingState","inputs":[]},{"type":"error","name":"Initializable_NotInInitializingState","inputs":[]},{"type":"error","name":"Introspection_AlreadySupported","inputs":[]},{"type":"error","name":"Introspection_NotSupported","inputs":[]},{"type":"error","name":"Membership__AlreadyMember","inputs":[]},{"type":"error","name":"Membership__InsufficientAllowance","inputs":[]},{"type":"error","name":"Membership__InsufficientPayment","inputs":[]},{"type":"error","name":"Membership__InvalidAddress","inputs":[]},{"type":"error","name":"Membership__InvalidCurrency","inputs":[]},{"type":"error","name":"Membership__InvalidDuration","inputs":[]},{"type":"error","name":"Membership__InvalidFeeRecipient","inputs":[]},{"type":"error","name":"Membership__InvalidFreeAllocation","inputs":[]},{"type":"error","name":"Membership__InvalidLimit","inputs":[]},{"type":"error","name":"Membership__InvalidMaxSupply","inputs":[]},{"type":"error","name":"Membership__InvalidPrice","inputs":[]},{"type":"error","name":"Membership__InvalidPricingModule","inputs":[]},{"type":"error","name":"Membership__InvalidReferralBps","inputs":[]},{"type":"error","name":"Membership__InvalidReferralCode","inputs":[]},{"type":"error","name":"Membership__InvalidReferralTime","inputs":[]},{"type":"error","name":"Membership__InvalidTokenId","inputs":[]},{"type":"error","name":"Membership__MaxSupplyReached","inputs":[]},{"type":"error","name":"Membership__NotExpired","inputs":[]},{"type":"error","name":"Membership__PriceTooLow","inputs":[]},{"type":"error","name":"MintERC2309QuantityExceedsLimit","inputs":[]},{"type":"error","name":"MintToZeroAddress","inputs":[]},{"type":"error","name":"MintZeroQuantity","inputs":[]},{"type":"error","name":"Ownable__NotOwner","inputs":[{"name":"account","type":"address","internalType":"address"}]},{"type":"error","name":"Ownable__ZeroAddress","inputs":[]},{"type":"error","name":"OwnerQueryForNonexistentToken","inputs":[]},{"type":"error","name":"OwnershipNotInitializedForExtraData","inputs":[]},{"type":"error","name":"Pausable__NotPaused","inputs":[]},{"type":"error","name":"Pausable__Paused","inputs":[]},{"type":"error","name":"ReentrancyGuard__ReentrantCall","inputs":[]},{"type":"error","name":"Roles__EntitlementAlreadyExists","inputs":[]},{"type":"error","name":"Roles__EntitlementDoesNotExist","inputs":[]},{"type":"error","name":"Roles__InvalidEntitlementAddress","inputs":[]},{"type":"error","name":"Roles__InvalidPermission","inputs":[]},{"type":"error","name":"Roles__PermissionAlreadyExists","inputs":[]},{"type":"error","name":"Roles__PermissionDoesNotExist","inputs":[]},{"type":"error","name":"Roles__RoleDoesNotExist","inputs":[]},{"type":"error","name":"SafeERC20FailedOperation","inputs":[{"name":"token","type":"address","internalType":"address"}]},{"type":"error","name":"TransferCallerNotOwnerNorApproved","inputs":[]},{"type":"error","name":"TransferFromIncorrectOwner","inputs":[]},{"type":"error","name":"TransferToNonERC721ReceiverImplementer","inputs":[]},{"type":"error","name":"TransferToZeroAddress","inputs":[]},{"type":"error","name":"URIQueryForNonexistentToken","inputs":[]}],"bytecode":{"object":"0x60806040523480156200001157600080fd5b506200001c62000022565b620000ca565b7f59b501c3653afc186af7d48dda36cf6732bd21629a6295693664240a6ef520008054640100000000900460ff16156200006f576040516366008a2d60e01b815260040160405180910390fd5b805463ffffffff9081161015620000c757805463ffffffff191663ffffffff90811782556040519081527fe9c9b456cb2994b80aeef036cf59d26e9617df80f816a6ee5a5b4166e07e2f5c9060200160405180910390a15b50565b61517c80620000da6000396000f3fe60806040526004361061027d5760003560e01c80637c9669ac1161014f578063b3a5be6d116100c1578063d7eca30a1161007a578063d7eca30a146106e3578063df9a9fe6146106f8578063e847abdd14610718578063e985e9c51461072d578063f4efb0bb1461075d578063f9d5d22c1461077d57600080fd5b8063b3a5be6d14610648578063b6697f931461065d578063b88d4fde1461067d578063c87b56dd14610690578063c9f7c833146106b0578063d2f01f19146106c357600080fd5b80638c625b06116101135780638c625b06146105b657806395d600c8146105c957806395d89b41146105de57806397fb7c1e146105f3578063a22cb46514610613578063ac7ee6261461063357600080fd5b80637c9669ac146105215780638120f0ba1461053457806383f3f0dc146105615780638934207f1461058157806389def3201461059657600080fd5b80635803909f116101f357806370251563116101ac578063702515631461048d578063706b8e09146104a257806370a08231146104b757806373fc5a05146104d757806377460cd3146104f757806379dda5851461050c57600080fd5b80635803909f146103d85780635becd24a146103f85780636352211e14610418578063657e45e81461043857806369d5f38a1461044d57806369d9346b1461046d57600080fd5b806318160ddd1161024557806318160ddd1461033d57806323b872dd146103525780633ded10de1461036557806342842e0e146103855780634c2abfbe1461039857806351cff8d9146103b857600080fd5b806306fdde0314610282578063081812fc146102ad578063095ea7b3146102e55780631278076a146102fa57806317c957091461031d575b600080fd5b34801561028e57600080fd5b5061029761079d565b6040516102a4919061429e565b60405180910390f35b3480156102b957600080fd5b506102cd6102c83660046142b1565b610838565b6040516001600160a01b0390911681526020016102a4565b6102f86102f33660046142ef565b610849565b005b34801561030657600080fd5b5061030f610859565b6040519081526020016102a4565b34801561032957600080fd5b5061030f6103383660046142b1565b61086b565b34801561034957600080fd5b5061030f610885565b6102f861036036600461431b565b61088f565b34801561037157600080fd5b5061030f6103803660046142b1565b610a81565b6102f861039336600461431b565b610c10565b3480156103a457600080fd5b506102f86103b33660046144d6565b610c30565b3480156103c457600080fd5b506102f86103d33660046145df565b610cc7565b3480156103e457600080fd5b5061030f6103f33660046142b1565b610d6e565b34801561040457600080fd5b506102f86104133660046142b1565b610d81565b34801561042457600080fd5b506102cd6104333660046142b1565b610e06565b34801561044457600080fd5b506102cd610e11565b34801561045957600080fd5b506102f86104683660046142b1565b610e1b565b34801561047957600080fd5b506102f86104883660046145df565b610ec9565b34801561049957600080fd5b506102cd610ef6565b3480156104ae57600080fd5b5061030f610f12565b3480156104c357600080fd5b5061030f6104d23660046145df565b610f1c565b3480156104e357600080fd5b506102f86104f23660046142b1565b610f4f565b34801561050357600080fd5b506102cd610f5f565b34801561051857600080fd5b506102cd610f7b565b6102f861052f3660046142b1565b610f85565b34801561054057600080fd5b5061054961109a565b6040516001600160401b0390911681526020016102a4565b34801561056d57600080fd5b506102f861057c3660046145fc565b6110a4565b34801561058d57600080fd5b5061030f6110df565b3480156105a257600080fd5b506102f86105b13660046142b1565b6110f2565b6102f86105c43660046145df565b611188565b3480156105d557600080fd5b5061030f6115d2565b3480156105ea57600080fd5b506102976115dc565b3480156105ff57600080fd5b506102f861060e3660046142b1565b6115f4565b34801561061f57600080fd5b506102f861062e366004614627565b611649565b34801561063f57600080fd5b506102cd6116c6565b34801561065457600080fd5b5061030f6116e2565b34801561066957600080fd5b5061030f6106783660046145df565b611784565b6102f861068b366004614660565b61178f565b34801561069c57600080fd5b506102976106ab3660046142b1565b6117d9565b6102f86106be36600461431b565b61186a565b3480156106cf57600080fd5b506102f86106de3660046146df565b611984565b3480156106ef57600080fd5b5061030f6119d8565b34801561070457600080fd5b506102f86107133660046145df565b6119f3565b34801561072457600080fd5b506102cd611a40565b34801561073957600080fd5b5061074d610748366004614742565b611a4a565b60405190151581526020016102a4565b34801561076957600080fd5b506102f861077836600461477d565b611a56565b34801561078957600080fd5b506102f86107983660046142b1565b611a60565b60606107a7611aa3565b60020180546107b5906147a2565b80601f01602080910402602001604051908101604052809291908181526020018280546107e1906147a2565b801561082e5780601f106108035761010080835404028352916020019161082e565b820191906000526020600020905b81548152906001019060200180831161081157829003601f168201915b5050505050905090565b600061084382611ac7565b92915050565b61085582826001611b14565b5050565b6000610866610380611bc9565b905090565b600061087682611be8565b6001600160401b031692915050565b6000610866611bc9565b600061089a82611c22565b9050836001600160a01b0316816001600160a01b0316146108cd5760405162a1148160e81b815260040160405180910390fd5b6000806108d984611cbd565b915091506108fe81876108e93390565b6001600160a01b039081169116811491141790565b6109295761090c8633611a4a565b61092957604051632ce44b5f60e11b815260040160405180910390fd5b6001600160a01b03851661095057604051633a954ecd60e21b815260040160405180910390fd5b61095d8686866001611ce5565b801561096857600082555b610970611aa3565b6001600160a01b038716600090815260059190910160205260409020805460001901905561099c611aa3565b6001600160a01b03861660008181526005929092016020526040909120805460010190554260a01b17600160e11b176109d3611aa3565b60008681526004919091016020526040812091909155600160e11b84169003610a495760018401610a02611aa3565b600082815260049190910160205260408120549003610a4757610a23611aa3565b548114610a475783610a33611aa3565b600083815260049190910160205260409020555b505b83856001600160a01b0316876001600160a01b031660008051602061513b83398151915260405160405180910390a45b505050505050565b600080610a8c611cef565b90506000610a986116e2565b905083811115610aac575060009392505050565b6006820154604051639262b1b360e01b815230600482015285916001600160a01b031690639262b1b390602401602060405180830381865afa158015610af6573d6000803e3d6000fd5b505050506040513d601f19601f82011682018060405250810190610b1a91906147d6565b1115610b2a575060009392505050565b60088201546001600160a01b031615610bbb576008820154604051635cf4ee9160e01b815260048101839052602481018690526001600160a01b0390911690635cf4ee9190604401602060405180830381865afa158015610b8f573d6000803e3d6000fd5b505050506040513d601f19601f82011682018060405250810190610bb391906147d6565b949350505050565b8160060160009054906101000a90046001600160a01b03166001600160a01b0316630eac306d6040518163ffffffff1660e01b8152600401602060405180830381865afa158015610b8f573d6000803e3d6000fd5b610c2b8383836040518060200160405280600081525061178f565b505050565b7f59b501c3653afc186af7d48dda36cf6732bd21629a6295693664240a6ef5200054640100000000900460ff16610c7a57604051630ef4733760e31b815260040160405180910390fd5b610c9b60405180606001604052806021815260200161515b60219139611d13565b610cab630318da4960e51b611d56565b610cb58282611e34565b61085582600001518360200151611f57565b610ccf611fcb565b6001600160a01b0316336001600160a01b031614610d07576040516365f4906560e01b81523360048201526024015b60405180910390fd5b6001600160a01b038116610d2e57604051635fbd571760e01b815260040160405180910390fd5b6000610d3861208f565b905080600003610d5b57604051635894b54560e11b815260040160405180910390fd5b610855610d66610ef6565b3084846120a2565b600061084382610d7c611bc9565b6120f1565b610d89611fcb565b6001600160a01b0316336001600160a01b031614610dbc576040516365f4906560e01b8152336004820152602401610cfe565b6000610dc66110df565b90508015801590610dd657508082115b15610df45760405163c3983b9160e01b815260040160405180910390fd5b610dfd82612137565b61085582611a60565b600061084382611c22565b6000610866610ef6565b610e23611fcb565b6001600160a01b0316336001600160a01b031614610e56576040516365f4906560e01b8152336004820152602401610cfe565b610e5f816121dc565b610e676116c6565b6001600160a01b03166391b7f5ed826040518263ffffffff1660e01b8152600401610e9491815260200190565b600060405180830381600087803b158015610eae57600080fd5b505af1158015610ec2573d6000803e3d6000fd5b5050505050565b80610ed2611cef565b60080180546001600160a01b0319166001600160a01b039290921691909117905550565b6000610f00611cef565b600401546001600160a01b0316919050565b60006108666116e2565b600042610f30610f2b8461226a565b611be8565b6001600160401b031611610f4657506000919050565b61084382612296565b80610f58611cef565b6003015550565b6000610f69611cef565b600601546001600160a01b0316919050565b6000610866610f5f565b60026000805160206150fb8339815191525403610fb557604051635db5c7cd60e11b815260040160405180910390fd5b610fcc60026000805160206150fb83398151915255565b6000610fd782610e06565b90506001600160a01b03811661100057604051635fbd571760e01b815260040160405180910390fd5b611009826122fe565b6110265760405163dce9a1d360e01b815260040160405180910390fd5b600061103483610d7c611bc9565b9050801561106d5760006110488383612335565b905060006110568284614805565b9050801561106a57611068848261248e565b505b50505b61107e8361107961266c565b6126f2565b505061109760016000805160206150fb83398151915255565b50565b600061086661266c565b6110ac611fcb565b6001600160a01b0316336001600160a01b031614611097576040516365f4906560e01b8152336004820152602401610cfe565b60006110e9611cef565b60030154905090565b60026000805160206150fb833981519152540361112257604051635db5c7cd60e11b815260040160405180910390fd5b61113960026000805160206150fb83398151915255565b611142816127e4565b61115f576040516367d9dca160e11b815260040160405180910390fd5b6111688161283a565b61117181612845565b61109760016000805160206150fb83398151915255565b60026000805160206150fb83398151915254036111b857604051635db5c7cd60e11b815260040160405180910390fd5b6111cf60026000805160206150fb83398151915255565b6111d8816128b8565b600033905060008061120a604051806040016040528060098152602001684a6f696e537061636560b81b815250612975565b905060005b815181101561159957600082828151811061122c5761122c614818565b6020026020010151905080604001516115905760005b81608001515181101561158e5760008260800151828151811061126757611267614818565b60200260200101519050806001600160a01b0316632e1b61e46040518163ffffffff1660e01b8152600401602060405180830381865afa1580156112af573d6000803e3d6000fd5b505050506040513d601f19601f820116820180604052508101906112d3919061482e565b6114095760408051600180825281830190925260009160208083019080368337019050509050878160008151811061130d5761130d614818565b60200260200101906001600160a01b031690816001600160a01b031681525050816001600160a01b0316630cf0b533600083604051806040016040528060098152602001684a6f696e537061636560b81b815250604051602001611371919061484b565b60405160208183030381529060405261138990614867565b6040518463ffffffff1660e01b81526004016113a7939291906148d0565b602060405180830381865afa1580156113c4573d6000803e3d6000fd5b505050506040513d601f19601f820116820180604052508101906113e8919061482e565b15611403576113f689612bbf565b5050505050505050611171565b50611585565b825160405163069a3ee960e01b8152600481019190915281906000906001600160a01b0383169063069a3ee990602401600060405180830381865afa158015611456573d6000803e3d6000fd5b505050506040513d6000823e601f3d908101601f1916820160405261147e9190810190614a8d565b80515190915060011480156114c257506000815180516000906114a3576114a3614818565b60200260200101516000015160028111156114c0576114c0614bca565b145b61158257604051632e88a83960e11b81526000906001600160a01b03841690635d115072906114f5908590600401614cb0565b600060405180830381865afa158015611512573d6000803e3d6000fd5b505050506040513d6000823e601f3d908101601f1916820160405261153a9190810190614d49565b9050600061154782612c6d565b90506000611553611cef565b6000928352600b01602052506040902080546001600160a01b0319166001600160a01b038d1617905550600197505b50505b50600101611242565b505b5060010161120f565b50816115b857604051630ce39a4b60e21b815260040160405180910390fd5b50505061109760016000805160206150fb83398151915255565b60006108666110df565b60606115e6611aa3565b60030180546107b5906147a2565b6115fc611fcb565b6001600160a01b0316336001600160a01b03161461162f576040516365f4906560e01b8152336004820152602401610cfe565b6116408161163b611bc9565b612ef2565b61109781610f4f565b80611652611aa3565b336000818152600792909201602090815260408084206001600160a01b03881680865290835293819020805460ff19169515159590951790945592518415158152919290917f17307eab39ab6107e8899845ad3d59bd9653f200f220920489ca2b5937696c31910160405180910390a35050565b60006116d0611cef565b600801546001600160a01b0316919050565b6000806116ed611cef565b60070154905080156116fe57919050565b611706611cef565b60060160009054906101000a90046001600160a01b03166001600160a01b0316632cbb9d136040518163ffffffff1660e01b8152600401602060405180830381865afa15801561175a573d6000803e3d6000fd5b505050506040513d601f19601f8201168201806040525081019061177e91906147d6565b91505090565b60006108438261226a565b61179a84848461088f565b6001600160a01b0383163b156117d3576117b684848484612f13565b6117d3576040516368d2bf6b60e11b815260040160405180910390fd5b50505050565b60606117e482612ffe565b61180157604051630a14c4b560e41b815260040160405180910390fd5b600061181860408051602081019091526000815290565b905080516000036118385760405180602001604052806000815250611863565b806118428461303a565b604051602001611853929190614dbf565b6040516020818303038152906040525b9392505050565b60026000805160206150fb833981519152540361189a57604051635db5c7cd60e11b815260040160405180910390fd5b6118b160026000805160206150fb83398151915255565b6118ba836128b8565b60006118c461307e565b905060006118d3610380611bc9565b90508015611954576118e5828261308e565b60006118f18683612335565b905060006118ff8284614805565b9050600061190b610ef6565b9050811561195057600061191f83886130ae565b905061192d828a8a846120a2565b60006119398285614805565b9050801561194d5761194b8a8261248e565b505b50505b5050505b61195f856001613161565b61196b8261107961266c565b5050610c2b60016000805160206150fb83398151915255565b7f59b501c3653afc186af7d48dda36cf6732bd21629a6295693664240a6ef5200054640100000000900460ff166119ce57604051630ef4733760e31b815260040160405180910390fd5b6108558282611f57565b6000604051630ce39a4b60e21b815260040160405180910390fd5b6119fb611fcb565b6001600160a01b0316336001600160a01b031614611a2e576040516365f4906560e01b8152336004820152602401610cfe565b611a378161317b565b61109781610ec9565b60006108666116c6565b60006118638383613233565b6108558282613270565b6000611a6a611cef565b6007810183905560405190915082907fab14a23e88fb272313490d4f20d63098e64fd38304c0e07a377db98c2b39b92f90600090a25050565b7f6569bde4a160c636ea8b8d11acb83a60d7fec0b8f2e09389306cba0e1340df0090565b6000611ad282612ffe565b611aef576040516333d1c03960e21b815260040160405180910390fd5b611af7611aa3565b60009283526006016020525060409020546001600160a01b031690565b6000611b1f83610e06565b90508115611b5e57336001600160a01b03821614611b5e57611b418133613233565b611b5e576040516367d9dca160e11b815260040160405180910390fd5b83611b67611aa3565b6000858152600691909101602052604080822080546001600160a01b0319166001600160a01b0394851617905551859287811692908516917f8c5be1e5ebec7d5bd14f71427d1e84f3dd0314c0f7b2291e5b200ac8c7c3b9259190a450505050565b600080611bd4611aa3565b60010154611be0611aa3565b540303919050565b60009081527f4775a23600034fdd9f073b224f794d51a58b35ba663a9602623ba7a5c09cce0060205260409020546001600160401b031690565b600080611c2d611aa3565b60008481526004820160205260408120549350909150600160e01b83169003611ca35781600003611c9d5780548310611c7957604051636f96cda160e11b815260040160405180910390fd5b5b600019909201600081815260048401602052604090205490929091508115611c7a575b50919050565b50604051636f96cda160e11b815260040160405180910390fd5b6000806000611cca611aa3565b60009485526006016020525050604090912080549092909150565b6117d38284613578565b7fc21004fcc619240a31f006438274d15cd813308303284436eef6055f0fdcb60090565b61109781604051602401611d27919061429e565b60408051601f198184030181529190526020810180516001600160e01b031663104c13eb60e21b1790526135a2565b6001600160e01b0319811660009081527f81088bbc801e045ea3e7620779ab349988f58afbdfba10dff983df3f33522b00602052604090205460ff161515600114611de3576001600160e01b0319811660009081527f81088bbc801e045ea3e7620779ab349988f58afbdfba10dff983df3f33522b0060205260409020805460ff19166001179055611dfc565b604051637967f77d60e11b815260040160405180910390fd5b6040516001600160e01b03198216907f78f84e5b1c5c05be2b5ad3800781dd404d6d6c6302bc755c0fe20f58a33a7f2290600090a250565b6000611e3e611cef565b6006810180546001600160a01b038086166001600160a01b031992831617909255610100860151600884018054919093169082161790915560048201805490911673eeeeeeeeeeeeeeeeeeeeeeeeeeeeeeeeeeeeeeee1790556060840151600382015560e08401516007820181905590915015611ec257611ec28360e00151612137565b611ed083610100015161317b565b604083015115610c2b57611ee783604001516121dc565b600881015460408085015190516391b7f5ed60e01b81526001600160a01b03909216916391b7f5ed91611f209160040190815260200190565b600060405180830381600087803b158015611f3a57600080fd5b505af1158015611f4e573d6000803e3d6000fd5b50505050505050565b7f59b501c3653afc186af7d48dda36cf6732bd21629a6295693664240a6ef5200054640100000000900460ff16611fa157604051630ef4733760e31b815260040160405180910390fd5b611fb16380ac58cd60e01b611d56565b611fc1635b5e139f60e01b611d56565b61085582826135ab565b6040805180820182527fd2f24d4f172e4e84e48e7c4125b6e904c29e5eba33ad4938fee51dd5dbd4b600546001600160a01b03168082527fd2f24d4f172e4e84e48e7c4125b6e904c29e5eba33ad4938fee51dd5dbd4b60154602080840182905284516331a9108f60e11b815260048101929092529351600094636352211e92602480820193918290030181865afa15801561206b573d6000803e3d6000fd5b505050506040513d601f19601f8201168201806040525081019061177e9190614dee565b6000612099611cef565b600a0154905090565b816001600160a01b03167f6a88f9e03ef4a1786c4d5b1eb17d944dbdecbd661e86a6b18dfa7aaa28f172be826040516120dd91815260200190565b60405180910390a26117d3848484846135dd565b6000806120fc611cef565b60008581526009820160205260409020549091501561212e576000848152600990910160205260409020549050610843565b610bb383610a81565b6000612141611cef565b90508060060160009054906101000a90046001600160a01b03166001600160a01b0316632cbb9d136040518163ffffffff1660e01b8152600401602060405180830381865afa158015612198573d6000803e3d6000fd5b505050506040513d601f19601f820116820180604052508101906121bc91906147d6565b8211156108555760405163c3983b9160e01b815260040160405180910390fd5b60006121e6610f5f565b6001600160a01b0316630eac306d6040518163ffffffff1660e01b8152600401602060405180830381865afa158015612223573d6000803e3d6000fd5b505050506040513d601f19601f8201168201806040525081019061224791906147d6565b90508082101561085557604051631a23d64760e11b815260040160405180910390fd5b6000612274611cef565b6001600160a01b03909216600090815260019290920160205250604090205490565b60006001600160a01b0382166122bf576040516323d3ad8160e21b815260040160405180910390fd5b6001600160401b036122cf611aa3565b6005016000846001600160a01b03166001600160a01b0316815260200190815260200160002054169050919050565b60004261230961266c565b6001600160401b031661231c9190614e0b565b61232583611be8565b6001600160401b03161092915050565b600080612340611cef565b600681015460048201549192506001600160a01b03908116911673eeeeeeeeeeeeeeeeeeeeeeeeeeeeeeeeeeeeeeee8114801561237d5750843414155b1561239b57604051635894b54560e11b815260040160405180910390fd5b6000826001600160a01b0316634ccb20c06040518163ffffffff1660e01b8152600401602060405180830381865afa1580156123db573d6000803e3d6000fd5b505050506040513d601f19601f820116820180604052508101906123ff9190614dee565b90506000836001600160a01b0316639f6542aa6040518163ffffffff1660e01b8152600401602060405180830381865afa158015612441573d6000803e3d6000fd5b505050506040513d601f19601f820116820180604052508101906124659190614e1e565b9050612475878261ffff16613623565b9550612483838984896135dd565b505050505092915050565b600080612499611cef565b905060006124a5610ef6565b905073eeeeeeeeeeeeeeeeeeeeeeeeeeeeeeeeeeeeeeed196001600160a01b0382160161251157346000036124ed57604051635894b54560e11b815260040160405180910390fd5b8382600a0160008282546125019190614e0b565b9091555084935061084392505050565b341561253057604051636da3122b60e01b815260040160405180910390fd5b6040516370a0823160e01b815230600482015281906000906001600160a01b038316906370a0823190602401602060405180830381865afa158015612579573d6000803e3d6000fd5b505050506040513d601f19601f8201168201806040525081019061259d91906147d6565b90506125ab838830896135dd565b6040516370a0823160e01b81523060048201526000906001600160a01b038416906370a0823190602401602060405180830381865afa1580156125f2573d6000803e3d6000fd5b505050506040513d601f19601f8201168201806040525081019061261691906147d6565b905060006126248383614805565b905087811461264657604051635894b54560e11b815260040160405180910390fd5b8086600a01600082825461265a9190614e0b565b90915550909998505050505050505050565b600080612677611cef565b90508060060160009054906101000a90046001600160a01b03166001600160a01b0316638120f0ba6040518163ffffffff1660e01b8152600401602060405180830381865afa1580156126ce573d6000803e3d6000fd5b505050506040513d601f19601f8201168201806040525081019061177e9190614e42565b60008281527f4775a23600034fdd9f073b224f794d51a58b35ba663a9602623ba7a5c09cce006020819052604082205490916001600160401b0390911690818103612748576127418442614e5f565b905061277e565b612751856122fe565b61277157604051637be9098d60e11b815260048101869052602401610cfe565b61277b8483614e5f565b90505b60008581526020848152604091829020805467ffffffffffffffff19166001600160401b038516908117909155915191825286917f2ec2be2c4b90c2cf13ecb6751a24daed6bb741ae5ed3f7371aabf9402f6d62e8910160405180910390a25050505050565b6000806127f083610e06565b9050336001600160a01b03821681148061280f575061280f8282613233565b80610bb35750806001600160a01b031661282885611ac7565b6001600160a01b031614949350505050565b611097816000613698565b7f4775a23600034fdd9f073b224f794d51a58b35ba663a9602623ba7a5c09cce00600082815260209182526040808220805467ffffffffffffffff191690555190815282917f2ec2be2c4b90c2cf13ecb6751a24daed6bb741ae5ed3f7371aabf9402f6d62e8910160405180910390a250565b6001600160a01b0381166128df57604051635fbd571760e01b815260040160405180910390fd5b60006128ea33612296565b1115612909576040516316d9a23f60e31b815260040160405180910390fd5b600061291482612296565b1115612933576040516316d9a23f60e31b815260040160405180910390fd5b61293b6110df565b15801590612957575061294c6110df565b612954611bc9565b10155b1561109757604051637efcdb4960e01b815260040160405180910390fd5b606060006129816137e7565b80519091506000816001600160401b038111156129a0576129a061435c565b6040519080825280602002602001820160405280156129c9578160200160208202803683370190505b5085516020870120909150600090815b84811015612a98576000612a058783815181106129f8576129f8614818565b6020026020010151613812565b509250505060005b8151811015612a8e5783828281518110612a2957612a29614818565b60200260200101518051906020012003612a8657878381518110612a4f57612a4f614818565b6020026020010151868681518110612a6957612a69614818565b602090810291909101015284612a7e81614e7f565b955050612a8e565b600101612a0d565b50506001016129d9565b506000826001600160401b03811115612ab357612ab361435c565b604051908082528060200260200182016040528015612b1857816020015b612b056040518060a00160405280600081526020016060815260200160001515815260200160608152602001606081525090565b815260200190600190039081612ad15790505b50905060005b83811015612bb3576000858281518110612b3a57612b3a614818565b60200260200101519050600080600080612b5385613812565b93509350935093506040518060a00160405280868152602001858152602001841515815260200183815260200182815250878781518110612b9657612b96614818565b602002602001018190525050505050508080600101915050612b1e565b50979650505050505050565b6000612bcc610380611bc9565b90506000612bd861307e565b90508115612c1b57612bea818361308e565b6000612bf68484612335565b90506000612c048285614805565b90508015612c1857612c16858261248e565b505b50505b612c26836001613161565b612c328161107961266c565b60405181906001600160a01b038516907f2f40b0474996b72a4251e00fb9170cdd960deea1dc749772cbbab61395b9b57690600090a3505050565b6040516bffffffffffffffffffffffff193260601b16602082015243603482015260009081906054016040516020818303038152906040528051906020012090506000612cd77f133f5e83927ae0f4eccaf443b57ee2634efab46c5ecb3a58ec4bb3201dd55ef690565b60008381526001808301602052604090912080549293509160ff1615159003612d135760405163bf2a062560e01b815260040160405180910390fd5b8154604051631079b6d760e11b8152600560048201523060248201526000916001600160a01b0316906320f36dae90604401600060405180830381865afa158015612d62573d6000803e3d6000fd5b505050506040513d6000823e601f3d908101601f19168201604052612d8a9190810190614e98565b825433610100026001600160a81b03199091161760011761ffff60a81b19168355905060028201612dbb8782614f79565b5060005b8151811015612e8457826001016040518060400160405280848481518110612de957612de9614818565b60200260200101516001600160a01b0316815260200160006002811115612e1257612e12614bca565b9052815460018101835560009283526020928390208251910180546001600160a01b031981166001600160a01b03909316928317825593830151929390929183916001600160a81b03191617600160a01b836002811115612e7557612e75614bca565b02179055505050600101612dbf565b508254604051637917c69760e11b81526001600160a01b039091169063f22f8d2e90612eb69087908590600401615038565b600060405180830381600087803b158015612ed057600080fd5b505af1158015612ee4573d6000803e3d6000fd5b509598975050505050505050565b8082101561085557604051636664d51760e11b815260040160405180910390fd5b604051630a85bd0160e11b81526000906001600160a01b0385169063150b7a0290612f48903390899088908890600401615051565b6020604051808303816000875af1925050508015612f83575060408051601f3d908101601f19168201909252612f8091810190615084565b60015b612fe1573d808015612fb1576040519150601f19603f3d011682016040523d82523d6000602084013e612fb6565b606091505b508051600003612fd9576040516368d2bf6b60e11b815260040160405180910390fd5b805181602001fd5b6001600160e01b031916630a85bd0160e11b149050949350505050565b6000613008611aa3565b54821080156108435750600160e01b61301f611aa3565b60008481526004919091016020526040902054161592915050565b606060a06040510180604052602081039150506000815280825b600183039250600a81066030018353600a9004806130545750819003601f19909101908152919050565b6000613088611aa3565b54919050565b80613097611cef565b600093845260090160205260409092209190915550565b60008181527f3c2290b88407133303e904ceb4ee7d0d14164eda8a629372d8406216ceb57e006020819052604082205461ffff168083036130f457600092505050610843565b600084815260018084016020908152604092839020835180850190945280548085529201549083015215801590613138575080514210806131385750806020015142115b156131495760009350505050610843565b613157868361ffff16613623565b9695505050505050565b61085582826040518060200160405280600081525061393d565b6001600160a01b0381166131a257604051630e88bf4b60e01b815260040160405180910390fd5b6131aa610f5f565b6040516346fc05eb60e11b81526001600160a01b0383811660048301529190911690638df80bd690602401602060405180830381865afa1580156131f2573d6000803e3d6000fd5b505050506040513d601f19601f82011682018060405250810190613216919061482e565b61109757604051630e88bf4b60e01b815260040160405180910390fd5b600061323d611aa3565b6001600160a01b039384166000908152600791909101602090815260408083209490951682529290925250205460ff1690565b60008281527f133f5e83927ae0f4eccaf443b57ee2634efab46c5ecb3a58ec4bb3201dd55ef76020526040812080547f133f5e83927ae0f4eccaf443b57ee2634efab46c5ecb3a58ec4bb3201dd55ef69260ff909116151590036132e757604051637ad5a43960e11b815260040160405180910390fd5b6000805b60018301548110156133a857600083600101828154811061330e5761330e614818565b60009182526020909120018054909150336001600160a01b039091160361339f5760008154600160a01b900460ff16600281111561334e5761334e614bca565b1461336c576040516347592a4d60e01b815260040160405180910390fd5b8054600193508690829060ff60a01b1916600160a01b83600281111561339457613394614bca565b0217905550506133a8565b506001016132eb565b508015156000036133cc57604051638223a7e960e01b815260040160405180910390fd5b60008060005b60018501548110156134735760008560010182815481106133f5576133f5614818565b6000918252602090912001905060018154600160a01b900460ff16600281111561342157613421614bca565b03613438578361343081614e7f565b94505061346a565b60028154600160a01b900460ff16600281111561345757613457614bca565b0361346a578261346681614e7f565b9350505b506001016133d2565b508354600160b01b900460ff16611f4e576001840154613495906002906150ae565b82111561350157835461ffff60a81b191661010160a81b1784556134ba8760016139b3565b867fb9d6ce397e562841871d119aaf77469c60a3b5bf8b99a5d9851656015015c63360016040516134eb91906150d0565b60405180910390a26134fc87613a83565b611f4e565b6001840154613512906002906150ae565b811115611f4e57835461ffff60a81b1916608160a91b1784556135368760026139b3565b867fb9d6ce397e562841871d119aaf77469c60a3b5bf8b99a5d9851656015015c633600260405161356791906150d0565b60405180910390a2611f4e87613a83565b6000613582611cef565b6001600160a01b0390921660009081526001909201602052506040902055565b61109781613afb565b60006135b5611aa3565b9050600281016135c58482614f79565b50600381016135d48382614f79565b50600090555050565b80156117d35773eeeeeeeeeeeeeeeeeeeeeeeeeeeeeeeeeeeeeeed196001600160a01b03851601613617576136128282613b1c565b6117d3565b6117d384848484613bbf565b60006127108211156136815760405162461bcd60e51b815260206004820152602160248201527f426173697320706f696e74732063616e6e6f74206578636565642031305f30306044820152600360fc1b6064820152608401610cfe565b61271061368e83856150e3565b61186391906150ae565b60006136a383611c22565b9050806000806136b286611cbd565b9150915084156136f2576136c78184336108e9565b6136f2576136d58333613233565b6136f257604051632ce44b5f60e11b815260040160405180910390fd5b613700836000886001611ce5565b801561370b57600082555b6000613715611aa3565b6001600160a01b0385166000818152600583016020526040902080546fffffffffffffffffffffffffffffffff0190559091504260a01b17600360e01b176000888152600483016020526040812091909155600160e11b861690036137ad5760018701600081815260048301602052604081205490036137ab57815481146137ab57600081815260048301602052604090208690555b505b60405187906000906001600160a01b0387169060008051602061513b833981519152908390a4600190810180549091019055505050505050565b60606108667f672ef851d5f92307da037116e23aa9e31af7e1f7e3ca62c4e6d540631df3fd01613c12565b600081815260008051602061511b833981519152602052604081208054606092918391829190613841906147a2565b80601f016020809104026020016040519081016040528092919081815260200182805461386d906147a2565b80156138ba5780601f1061388f576101008083540402835291602001916138ba565b820191906000526020600020905b81548152906001019060200180831161389d57829003601f168201915b505050505093506138e87f672ef851d5f92307da037116e23aa9e31af7e1f7e3ca62c4e6d540631df3fd0090565b6000868152600391909101602090815260408083206001015460008051602061511b83398151915290925290912060ff909116935061392990600201613c1f565b915061393485613c2a565b90509193509193565b6139478383613d2e565b6001600160a01b0383163b15610c2b576000613961611aa3565b5490508281035b61397b6000868380600101945086612f13565b613998576040516368d2bf6b60e11b815260040160405180910390fd5b81811061396857816139a8611aa3565b5414610ec257600080fd5b60006139bd611cef565b905060018260028111156139d3576139d3614bca565b03613a1c576000838152600b820160205260409020546001600160a01b03166139fb81612bbf565b506000928352600b01602052506040902080546001600160a01b0319169055565b6000838152600b820160205260408082205490516001600160a01b039091169182917f86fd446d5c04e892d58b448a924dcd9c3ece3a5e0d2960b8c35cd475a5595a1f9190a2506000928352600b01602052506040902080546001600160a01b0319169055565b60008181527f133f5e83927ae0f4eccaf443b57ee2634efab46c5ecb3a58ec4bb3201dd55ef76020526040812080546001600160b81b03191681557f133f5e83927ae0f4eccaf443b57ee2634efab46c5ecb3a58ec4bb3201dd55ef691613aed60018301826141be565b6117d36002830160006141dc565b80516a636f6e736f6c652e6c6f67602083016000808483855afa5050505050565b6000826001600160a01b03168260405160006040518083038185875af1925050503d8060008114613b69576040519150601f19603f3d011682016040523d82523d6000602084013e613b6e565b606091505b5050905080610c2b5760405162461bcd60e51b815260206004820152601c60248201527f6e617469766520746f6b656e207472616e73666572206661696c6564000000006044820152606401610cfe565b816001600160a01b0316836001600160a01b031603156117d357306001600160a01b03841603613bfd576136126001600160a01b0385168383613e52565b6117d36001600160a01b038516848484613eb1565b6060600061186383613eea565b606061084382613f46565b600081815260008051602061511b8339815191526020526040812060609190613c5590600401614023565b6001600160401b03811115613c6c57613c6c61435c565b604051908082528060200260200182016040528015613c95578160200160208202803683370190505b50905060005b600084815260008051602061511b83398151915260205260409020613cc290600401614023565b811015613d2757600084815260008051602061511b83398151915260205260408120613cf1906004018361402d565b905080838381518110613d0657613d06614818565b6001600160a01b039092166020928302919091019091015250600101613c9b565b5092915050565b6000613d38611aa3565b5490506000829003613d5d5760405163b562e8dd60e01b815260040160405180910390fd5b613d6a6000848385611ce5565b680100000000000000018202613d7e611aa3565b6001600160a01b038516600081815260059290920160205260409091208054929092019091554260a01b6001841460e11b1717613db9611aa3565b600083815260049190910160205260408120919091556001600160a01b03841690838301908390839060008051602061513b8339815191528180a4600183015b818114613e1f578083600060008051602061513b833981519152600080a4600101613df9565b5081600003613e4057604051622e076360e81b815260040160405180910390fd5b80613e49611aa3565b5550610c2b9050565b6040516001600160a01b03838116602483015260448201839052610c2b91859182169063a9059cbb906064015b604051602081830303815290604052915060e01b6020820180516001600160e01b038381831617835250505050614039565b6040516001600160a01b0384811660248301528381166044830152606482018390526117d39186918216906323b872dd90608401613e7f565b606081600001805480602002602001604051908101604052809291908181526020018280548015613f3a57602002820191906000526020600020905b815481526020019060010190808311613f26575b50505050509050919050565b606081600001805480602002602001604051908101604052809291908181526020016000905b82821015614018578382906000526020600020018054613f8b906147a2565b80601f0160208091040260200160405190810160405280929190818152602001828054613fb7906147a2565b80156140045780601f10613fd957610100808354040283529160200191614004565b820191906000526020600020905b815481529060010190602001808311613fe757829003601f168201915b505050505081526020019060010190613f6c565b505050509050919050565b6000610843825490565b6000611863838361409c565b600061404e6001600160a01b038416836140c6565b90508051600014158015614073575080806020019051810190614071919061482e565b155b15610c2b57604051635274afe760e01b81526001600160a01b0384166004820152602401610cfe565b60008260000182815481106140b3576140b3614818565b9060005260206000200154905092915050565b60606118638383600084600080856001600160a01b031684866040516140ec919061484b565b60006040518083038185875af1925050503d8060008114614129576040519150601f19603f3d011682016040523d82523d6000602084013e61412e565b606091505b509150915061315786838360608261414e5761414982614195565b611863565b815115801561416557506001600160a01b0384163b155b1561418e57604051639996b31560e01b81526001600160a01b0385166004820152602401610cfe565b5080611863565b8051156141a55780518082602001fd5b604051630a12f52160e11b815260040160405180910390fd5b50805460008255906000526020600020908101906110979190614216565b5080546141e8906147a2565b6000825580601f106141f8575050565b601f0160209004906000526020600020908101906110979190614239565b5b808211156142355780546001600160a81b0319168155600101614217565b5090565b5b80821115614235576000815560010161423a565b60005b83811015614269578181015183820152602001614251565b50506000910152565b6000815180845261428a81602086016020860161424e565b601f01601f19169290920160200192915050565b6020815260006118636020830184614272565b6000602082840312156142c357600080fd5b5035919050565b6001600160a01b038116811461109757600080fd5b80356142ea816142ca565b919050565b6000806040838503121561430257600080fd5b823561430d816142ca565b946020939093013593505050565b60008060006060848603121561433057600080fd5b833561433b816142ca565b9250602084013561434b816142ca565b929592945050506040919091013590565b634e487b7160e01b600052604160045260246000fd5b60405161012081016001600160401b03811182821017156143955761439561435c565b60405290565b604051608081016001600160401b03811182821017156143955761439561435c565b604051606081016001600160401b03811182821017156143955761439561435c565b604080519081016001600160401b03811182821017156143955761439561435c565b604051601f8201601f191681016001600160401b03811182821017156144295761442961435c565b604052919050565b60006001600160401b0382111561444a5761444a61435c565b50601f01601f191660200190565b600061446b61446684614431565b614401565b905082815283838301111561447f57600080fd5b828260208301376000602084830101529392505050565b600082601f8301126144a757600080fd5b61186383833560208501614458565b6001600160401b038116811461109757600080fd5b80356142ea816144b6565b600080604083850312156144e957600080fd5b82356001600160401b038082111561450057600080fd5b90840190610120828703121561451557600080fd5b61451d614372565b82358281111561452c57600080fd5b61453888828601614496565b82525060208301358281111561454d57600080fd5b61455988828601614496565b602083015250604083013560408201526060830135606082015261457f608084016144cb565b608082015261459060a084016142df565b60a08201526145a160c084016142df565b60c082015260e083013560e082015261010091506145c08284016142df565b828201528094505050506145d6602084016142df565b90509250929050565b6000602082840312156145f157600080fd5b8135611863816142ca565b60006020828403121561460e57600080fd5b8135611863816144b6565b801515811461109757600080fd5b6000806040838503121561463a57600080fd5b8235614645816142ca565b9150602083013561465581614619565b809150509250929050565b6000806000806080858703121561467657600080fd5b8435614681816142ca565b93506020850135614691816142ca565b92506040850135915060608501356001600160401b038111156146b357600080fd5b8501601f810187136146c457600080fd5b6146d387823560208401614458565b91505092959194509250565b600080604083850312156146f257600080fd5b82356001600160401b038082111561470957600080fd5b61471586838701614496565b9350602085013591508082111561472b57600080fd5b5061473885828601614496565b9150509250929050565b6000806040838503121561475557600080fd5b8235614760816142ca565b91506020830135614655816142ca565b6003811061109757600080fd5b6000806040838503121561479057600080fd5b82359150602083013561465581614770565b600181811c908216806147b657607f821691505b602082108103611c9d57634e487b7160e01b600052602260045260246000fd5b6000602082840312156147e857600080fd5b5051919050565b634e487b7160e01b600052601160045260246000fd5b81810381811115610843576108436147ef565b634e487b7160e01b600052603260045260246000fd5b60006020828403121561484057600080fd5b815161186381614619565b6000825161485d81846020870161424e565b9190910192915050565b80516020808301519190811015611c9d5760001960209190910360031b1b16919050565b60008151808452602080850194506020840160005b838110156148c55781516001600160a01b0316875295820195908201906001016148a0565b509495945050505050565b8381526060602082015260006148e9606083018561488b565b9050826040830152949350505050565b60006001600160401b038211156149125761491261435c565b5060051b60200190565b805160ff811681146142ea57600080fd5b600082601f83011261493e57600080fd5b8151602061494e614466836148f9565b82815260079290921b8401810191818101908684111561496d57600080fd5b8286015b848110156149d7576080818903121561498a5760008081fd5b61499261439b565b8151600681106149a25760008081fd5b815281850151858201526040808301516149bb816142ca565b9082015260608281015190820152835291830191608001614971565b509695505050505050565b600082601f8301126149f357600080fd5b81516020614a03614466836148f9565b82815260609283028501820192828201919087851115614a2257600080fd5b8387015b85811015614a805781818a031215614a3e5760008081fd5b614a466143bd565b8151614a5181614770565b8152614a5e82870161491c565b868201526040614a6f81840161491c565b908201528452928401928101614a26565b5090979650505050505050565b60006020808385031215614aa057600080fd5b82516001600160401b0380821115614ab757600080fd5b9084019060608287031215614acb57600080fd5b614ad36143bd565b825182811115614ae257600080fd5b8301601f81018813614af357600080fd5b8051614b01614466826148f9565b81815260069190911b8201860190868101908a831115614b2057600080fd5b928701925b82841015614b74576040848c031215614b3e5760008081fd5b614b466143df565b8451614b5181614770565b8152614b5e858a0161491c565b818a015282526040939093019290870190614b25565b84525050508284015182811115614b8a57600080fd5b614b968882860161492d565b85830152506040830151935081841115614baf57600080fd5b614bbb878585016149e2565b60408201529695505050505050565b634e487b7160e01b600052602160045260246000fd5b6003811061109757611097614bca565b60008151808452602080850194506020840160005b838110156148c5578151805160068110614c2157614c21614bca565b885280840151848901526040808201516001600160a01b0316908901526060908101519088015260809096019590820190600101614c05565b60008151808452602080850194506020840160005b838110156148c55781518051614c8481614be0565b88528084015160ff908116858a0152604091820151169088015260609096019590820190600101614c6f565b6020808252825160608383015280516080840181905260009291820190839060a08601905b80831015614d0c5783518051614cea81614be0565b835285015160ff16858301529284019260019290920191604090910190614cd5565b50838701519350601f19925082868203016040870152614d2c8185614bf0565b935050506040850151818584030160608601526131578382614c5a565b600060208284031215614d5b57600080fd5b81516001600160401b03811115614d7157600080fd5b8201601f81018413614d8257600080fd5b8051614d9061446682614431565b818152856020838501011115614da557600080fd5b614db682602083016020860161424e565b95945050505050565b60008351614dd181846020880161424e565b835190830190614de581836020880161424e565b01949350505050565b600060208284031215614e0057600080fd5b8151611863816142ca565b80820180821115610843576108436147ef565b600060208284031215614e3057600080fd5b815161ffff8116811461186357600080fd5b600060208284031215614e5457600080fd5b8151611863816144b6565b6001600160401b03818116838216019080821115613d2757613d276147ef565b600060018201614e9157614e916147ef565b5060010190565b60006020808385031215614eab57600080fd5b82516001600160401b03811115614ec157600080fd5b8301601f81018513614ed257600080fd5b8051614ee0614466826148f9565b81815260059190911b82018301908381019087831115614eff57600080fd5b928401925b82841015614f26578351614f17816142ca565b82529284019290840190614f04565b979650505050505050565b601f821115610c2b576000816000526020600020601f850160051c81016020861015614f5a5750805b601f850160051c820191505b81811015610a7957828155600101614f66565b81516001600160401b03811115614f9257614f9261435c565b614fa681614fa084546147a2565b84614f31565b602080601f831160018114614fdb5760008415614fc35750858301515b600019600386901b1c1916600185901b178555610a79565b600085815260208120601f198616915b8281101561500a57888601518255948401946001909101908401614feb565b50858210156150285787850151600019600388901b60f8161c191681555b5050505050600190811b01905550565b828152604060208201526000610bb3604083018461488b565b6001600160a01b038581168252841660208201526040810183905260806060820181905260009061315790830184614272565b60006020828403121561509657600080fd5b81516001600160e01b03198116811461186357600080fd5b6000826150cb57634e487b7160e01b600052601260045260246000fd5b500490565b602081016150dd83614be0565b91905290565b8082028115828204841417610843576108436147ef56fe54f22f54f370bd020e00ee80e1a5099a71652e2ccbcf6a75281e4c70a3e11a00672ef851d5f92307da037116e23aa9e31af7e1f7e3ca62c4e6d540631df3fd03ddf252ad1be2c89b69c2b068fc378daa952ba7f163c4a11628f55a4df523b3ef4d656d6265727368697046616365742e5f5f4d656d626572736869705f696e6974","linkReferences":{}},"methodIdentifiers":{"__ERC721A_init(string,string)":"d2f01f19","__Membership_init((string,string,uint256,uint256,uint64,address,address,uint256,address),address)":"4c2abfbe","_getMembershipCurrency()":"70251563","_getMembershipFreeAllocation()":"b3a5be6d","_getMembershipPrice(uint256)":"3ded10de","_getMembershipSupplyLimit()":"8934207f","_getPricingModule()":"ac7ee626","_getSpaceFactory()":"77460cd3","_setMembershipFreeAllocation(uint256)":"f9d5d22c","_setMembershipSupplyLimit(uint256)":"73fc5a05","_setPricingModule(address)":"69d9346b","approve(address,uint256)":"095ea7b3","balanceOf(address)":"70a08231","cancelMembership(uint256)":"89def320","expiresAt(uint256)":"17c95709","getApproved(uint256)":"081812fc","getMembershipCurrency()":"657e45e8","getMembershipDuration()":"8120f0ba","getMembershipFreeAllocation()":"706b8e09","getMembershipLimit()":"95d600c8","getMembershipPrice()":"1278076a","getMembershipPricingModule()":"e847abdd","getMembershipRenewalPrice(uint256)":"5803909f","getSpaceFactory()":"79dda585","getTokenIdByMembership(address)":"b6697f93","isApprovedForAll(address,address)":"e985e9c5","joinSpace(address)":"8c625b06","joinSpaceWithReferral(address,address,uint256)":"c9f7c833","name()":"06fdde03","ownerOf(uint256)":"6352211e","postEntitlementCheckResult(bytes32,uint8)":"f4efb0bb","renewMembership(uint256)":"7c9669ac","requestEntitlementCheck()":"d7eca30a","safeTransferFrom(address,address,uint256)":"42842e0e","safeTransferFrom(address,address,uint256,bytes)":"b88d4fde","setApprovalForAll(address,bool)":"a22cb465","setMembershipDuration(uint64)":"83f3f0dc","setMembershipFreeAllocation(uint256)":"5becd24a","setMembershipLimit(uint256)":"97fb7c1e","setMembershipPrice(uint256)":"69d5f38a","setMembershipPricingModule(address)":"df9a9fe6","symbol()":"95d89b41","tokenURI(uint256)":"c87b56dd","totalSupply()":"18160ddd","transferFrom(address,address,uint256)":"23b872dd","withdraw(address)":"51cff8d9"},"id":159}