{"abi":[{"type":"function","name":"__ERC721A_init","inputs":[{"name":"name_","type":"string","internalType":"string"},{"name":"symbol_","type":"string","internalType":"string"}],"outputs":[],"stateMutability":"nonpayable"},{"type":"function","name":"__Membership_init","inputs":[{"name":"info","type":"tuple","internalType":"struct IMembershipBase.Membership","components":[{"name":"name","type":"string","internalType":"string"},{"name":"symbol","type":"string","internalType":"string"},{"name":"price","type":"uint256","internalType":"uint256"},{"name":"maxSupply","type":"uint256","internalType":"uint256"},{"name":"duration","type":"uint64","internalType":"uint64"},{"name":"currency","type":"address","internalType":"address"},{"name":"feeRecipient","type":"address","internalType":"address"},{"name":"freeAllocation","type":"uint256","internalType":"uint256"},{"name":"pricingModule","type":"address","internalType":"address"}]},{"name":"spaceFactory","type":"address","internalType":"address"}],"outputs":[],"stateMutability":"nonpayable"},{"type":"function","name":"_getMembershipCurrency","inputs":[],"outputs":[{"name":"","type":"address","internalType":"address"}],"stateMutability":"view"},{"type":"function","name":"_getMembershipFeeRecipient","inputs":[],"outputs":[{"name":"","type":"address","internalType":"address"}],"stateMutability":"view"},{"type":"function","name":"_getMembershipFreeAllocation","inputs":[],"outputs":[{"name":"","type":"uint256","internalType":"uint256"}],"stateMutability":"view"},{"type":"function","name":"_getMembershipPrice","inputs":[{"name":"totalSupply","type":"uint256","internalType":"uint256"}],"outputs":[{"name":"","type":"uint256","internalType":"uint256"}],"stateMutability":"view"},{"type":"function","name":"_getMembershipSupplyLimit","inputs":[],"outputs":[{"name":"","type":"uint256","internalType":"uint256"}],"stateMutability":"view"},{"type":"function","name":"_getPricingModule","inputs":[],"outputs":[{"name":"","type":"address","internalType":"address"}],"stateMutability":"view"},{"type":"function","name":"_getTownFactory","inputs":[],"outputs":[{"name":"","type":"address","internalType":"address"}],"stateMutability":"view"},{"type":"function","name":"_setMembershipCurrency","inputs":[{"name":"newCurrency","type":"address","internalType":"address"}],"outputs":[],"stateMutability":"nonpayable"},{"type":"function","name":"_setMembershipFeeRecipient","inputs":[{"name":"newRecipient","type":"address","internalType":"address"}],"outputs":[],"stateMutability":"nonpayable"},{"type":"function","name":"_setMembershipFreeAllocation","inputs":[{"name":"newAllocation","type":"uint256","internalType":"uint256"}],"outputs":[],"stateMutability":"nonpayable"},{"type":"function","name":"_setMembershipPrice","inputs":[{"name":"newPrice","type":"uint256","internalType":"uint256"}],"outputs":[],"stateMutability":"nonpayable"},{"type":"function","name":"_setMembershipSupplyLimit","inputs":[{"name":"newLimit","type":"uint256","internalType":"uint256"}],"outputs":[],"stateMutability":"nonpayable"},{"type":"function","name":"_setPricingModule","inputs":[{"name":"newPricingModule","type":"address","internalType":"address"}],"outputs":[],"stateMutability":"nonpayable"},{"type":"function","name":"approve","inputs":[{"name":"to","type":"address","internalType":"address"},{"name":"tokenId","type":"uint256","internalType":"uint256"}],"outputs":[],"stateMutability":"payable"},{"type":"function","name":"balanceOf","inputs":[{"name":"account","type":"address","internalType":"address"}],"outputs":[{"name":"","type":"uint256","internalType":"uint256"}],"stateMutability":"view"},{"type":"function","name":"cancelMembership","inputs":[{"name":"tokenId","type":"uint256","internalType":"uint256"}],"outputs":[],"stateMutability":"nonpayable"},{"type":"function","name":"expiresAt","inputs":[{"name":"tokenId","type":"uint256","internalType":"uint256"}],"outputs":[{"name":"","type":"uint256","internalType":"uint256"}],"stateMutability":"view"},{"type":"function","name":"getApproved","inputs":[{"name":"tokenId","type":"uint256","internalType":"uint256"}],"outputs":[{"name":"","type":"address","internalType":"address"}],"stateMutability":"view"},{"type":"function","name":"getMembershipCurrency","inputs":[],"outputs":[{"name":"","type":"address","internalType":"address"}],"stateMutability":"view"},{"type":"function","name":"getMembershipDuration","inputs":[],"outputs":[{"name":"","type":"uint64","internalType":"uint64"}],"stateMutability":"view"},{"type":"function","name":"getMembershipFeeRecipient","inputs":[],"outputs":[{"name":"","type":"address","internalType":"address"}],"stateMutability":"view"},{"type":"function","name":"getMembershipFreeAllocation","inputs":[],"outputs":[{"name":"","type":"uint256","internalType":"uint256"}],"stateMutability":"view"},{"type":"function","name":"getMembershipLimit","inputs":[],"outputs":[{"name":"","type":"uint256","internalType":"uint256"}],"stateMutability":"view"},{"type":"function","name":"getMembershipPrice","inputs":[],"outputs":[{"name":"","type":"uint256","internalType":"uint256"}],"stateMutability":"view"},{"type":"function","name":"getMembershipPricingModule","inputs":[],"outputs":[{"name":"","type":"address","internalType":"address"}],"stateMutability":"view"},{"type":"function","name":"getMembershipRenewalPrice","inputs":[{"name":"tokenId","type":"uint256","internalType":"uint256"}],"outputs":[{"name":"","type":"uint256","internalType":"uint256"}],"stateMutability":"view"},{"type":"function","name":"getTownFactory","inputs":[],"outputs":[{"name":"","type":"address","internalType":"address"}],"stateMutability":"view"},{"type":"function","name":"isApprovedForAll","inputs":[{"name":"owner","type":"address","internalType":"address"},{"name":"operator","type":"address","internalType":"address"}],"outputs":[{"name":"","type":"bool","internalType":"bool"}],"stateMutability":"view"},{"type":"function","name":"joinTown","inputs":[{"name":"receiver","type":"address","internalType":"address"}],"outputs":[{"name":"tokenId","type":"uint256","internalType":"uint256"}],"stateMutability":"payable"},{"type":"function","name":"joinTownWithReferral","inputs":[{"name":"receiver","type":"address","internalType":"address"},{"name":"referrer","type":"address","internalType":"address"},{"name":"referralCode","type":"uint256","internalType":"uint256"}],"outputs":[{"name":"tokenId","type":"uint256","internalType":"uint256"}],"stateMutability":"payable"},{"type":"function","name":"name","inputs":[],"outputs":[{"name":"","type":"string","internalType":"string"}],"stateMutability":"view"},{"type":"function","name":"ownerOf","inputs":[{"name":"tokenId","type":"uint256","internalType":"uint256"}],"outputs":[{"name":"","type":"address","internalType":"address"}],"stateMutability":"view"},{"type":"function","name":"renewMembership","inputs":[{"name":"receiver","type":"address","internalType":"address"}],"outputs":[],"stateMutability":"payable"},{"type":"function","name":"safeTransferFrom","inputs":[{"name":"from","type":"address","internalType":"address"},{"name":"to","type":"address","internalType":"address"},{"name":"tokenId","type":"uint256","internalType":"uint256"}],"outputs":[],"stateMutability":"payable"},{"type":"function","name":"safeTransferFrom","inputs":[{"name":"from","type":"address","internalType":"address"},{"name":"to","type":"address","internalType":"address"},{"name":"tokenId","type":"uint256","internalType":"uint256"},{"name":"_data","type":"bytes","internalType":"bytes"}],"outputs":[],"stateMutability":"payable"},{"type":"function","name":"setApprovalForAll","inputs":[{"name":"operator","type":"address","internalType":"address"},{"name":"approved","type":"bool","internalType":"bool"}],"outputs":[],"stateMutability":"nonpayable"},{"type":"function","name":"setMembershipCurrency","inputs":[{"name":"newCurrency","type":"address","internalType":"address"}],"outputs":[],"stateMutability":"nonpayable"},{"type":"function","name":"setMembershipDuration","inputs":[{"name":"newDuration","type":"uint64","internalType":"uint64"}],"outputs":[],"stateMutability":"nonpayable"},{"type":"function","name":"setMembershipFeeRecipient","inputs":[{"name":"newRecipient","type":"address","internalType":"address"}],"outputs":[],"stateMutability":"nonpayable"},{"type":"function","name":"setMembershipFreeAllocation","inputs":[{"name":"newAllocation","type":"uint256","internalType":"uint256"}],"outputs":[],"stateMutability":"nonpayable"},{"type":"function","name":"setMembershipLimit","inputs":[{"name":"newLimit","type":"uint256","internalType":"uint256"}],"outputs":[],"stateMutability":"nonpayable"},{"type":"function","name":"setMembershipPrice","inputs":[{"name":"newPrice","type":"uint256","internalType":"uint256"}],"outputs":[],"stateMutability":"nonpayable"},{"type":"function","name":"setMembershipPricingModule","inputs":[{"name":"pricingModule","type":"address","internalType":"address"}],"outputs":[],"stateMutability":"nonpayable"},{"type":"function","name":"symbol","inputs":[],"outputs":[{"name":"","type":"string","internalType":"string"}],"stateMutability":"view"},{"type":"function","name":"tokenURI","inputs":[{"name":"tokenId","type":"uint256","internalType":"uint256"}],"outputs":[{"name":"","type":"string","internalType":"string"}],"stateMutability":"view"},{"type":"function","name":"totalSupply","inputs":[],"outputs":[{"name":"","type":"uint256","internalType":"uint256"}],"stateMutability":"view"},{"type":"function","name":"transferFrom","inputs":[{"name":"from","type":"address","internalType":"address"},{"name":"to","type":"address","internalType":"address"},{"name":"tokenId","type":"uint256","internalType":"uint256"}],"outputs":[],"stateMutability":"payable"},{"type":"event","name":"Approval","inputs":[{"name":"owner","type":"address","indexed":true,"internalType":"address"},{"name":"approved","type":"address","indexed":true,"internalType":"address"},{"name":"tokenId","type":"uint256","indexed":true,"internalType":"uint256"}],"anonymous":false},{"type":"event","name":"ApprovalForAll","inputs":[{"name":"owner","type":"address","indexed":true,"internalType":"address"},{"name":"operator","type":"address","indexed":true,"internalType":"address"},{"name":"approved","type":"bool","indexed":false,"internalType":"bool"}],"anonymous":false},{"type":"event","name":"ConsecutiveTransfer","inputs":[{"name":"fromTokenId","type":"uint256","indexed":true,"internalType":"uint256"},{"name":"toTokenId","type":"uint256","indexed":false,"internalType":"uint256"},{"name":"from","type":"address","indexed":true,"internalType":"address"},{"name":"to","type":"address","indexed":true,"internalType":"address"}],"anonymous":false},{"type":"event","name":"Initialized","inputs":[{"name":"version","type":"uint32","indexed":false,"internalType":"uint32"}],"anonymous":false},{"type":"event","name":"InterfaceAdded","inputs":[{"name":"interfaceId","type":"bytes4","indexed":true,"internalType":"bytes4"}],"anonymous":false},{"type":"event","name":"InterfaceRemoved","inputs":[{"name":"interfaceId","type":"bytes4","indexed":true,"internalType":"bytes4"}],"anonymous":false},{"type":"event","name":"MembershipCurrencyUpdated","inputs":[{"name":"currency","type":"address","indexed":true,"internalType":"address"}],"anonymous":false},{"type":"event","name":"MembershipFeeRecipientUpdated","inputs":[{"name":"recipient","type":"address","indexed":true,"internalType":"address"}],"anonymous":false},{"type":"event","name":"MembershipFreeAllocationUpdated","inputs":[{"name":"allocation","type":"uint256","indexed":true,"internalType":"uint256"}],"anonymous":false},{"type":"event","name":"MembershipLimitUpdated","inputs":[{"name":"limit","type":"uint256","indexed":true,"internalType":"uint256"}],"anonymous":false},{"type":"event","name":"MembershipPriceUpdated","inputs":[{"name":"price","type":"uint256","indexed":true,"internalType":"uint256"}],"anonymous":false},{"type":"event","name":"Membership__ReferralCreated","inputs":[{"name":"code","type":"uint256","indexed":true,"internalType":"uint256"},{"name":"bps","type":"uint16","indexed":false,"internalType":"uint16"}],"anonymous":false},{"type":"event","name":"Membership__ReferralRemoved","inputs":[{"name":"code","type":"uint256","indexed":true,"internalType":"uint256"}],"anonymous":false},{"type":"event","name":"Membership__ReferralTimeCreated","inputs":[{"name":"code","type":"uint256","indexed":true,"internalType":"uint256"},{"name":"bps","type":"uint16","indexed":false,"internalType":"uint16"},{"name":"startTime","type":"uint256","indexed":false,"internalType":"uint256"},{"name":"endTime","type":"uint256","indexed":false,"internalType":"uint256"}],"anonymous":false},{"type":"event","name":"OwnershipTransferred","inputs":[{"name":"previousOwner","type":"address","indexed":true,"internalType":"address"},{"name":"newOwner","type":"address","indexed":true,"internalType":"address"}],"anonymous":false},{"type":"event","name":"Paused","inputs":[{"name":"account","type":"address","indexed":false,"internalType":"address"}],"anonymous":false},{"type":"event","name":"SubscriptionUpdate","inputs":[{"name":"tokenId","type":"uint256","indexed":true,"internalType":"uint256"},{"name":"expiration","type":"uint64","indexed":false,"internalType":"uint64"}],"anonymous":false},{"type":"event","name":"Transfer","inputs":[{"name":"from","type":"address","indexed":true,"internalType":"address"},{"name":"to","type":"address","indexed":true,"internalType":"address"},{"name":"tokenId","type":"uint256","indexed":true,"internalType":"uint256"}],"anonymous":false},{"type":"event","name":"Unpaused","inputs":[{"name":"account","type":"address","indexed":false,"internalType":"address"}],"anonymous":false},{"type":"error","name":"AddressEmptyCode","inputs":[{"name":"target","type":"address","internalType":"address"}]},{"type":"error","name":"AddressInsufficientBalance","inputs":[{"name":"account","type":"address","internalType":"address"}]},{"type":"error","name":"ApprovalCallerNotOwnerNorApproved","inputs":[]},{"type":"error","name":"ApprovalQueryForNonexistentToken","inputs":[]},{"type":"error","name":"BalanceQueryForZeroAddress","inputs":[]},{"type":"error","name":"Banning__InvalidTokenId","inputs":[{"name":"tokenId","type":"uint256","internalType":"uint256"}]},{"type":"error","name":"ERC5643__DurationZero","inputs":[]},{"type":"error","name":"ERC5643__InvalidTokenId","inputs":[{"name":"tokenId","type":"uint256","internalType":"uint256"}]},{"type":"error","name":"ERC5643__NotApprovedOrOwner","inputs":[]},{"type":"error","name":"ERC5643__SubscriptionNotRenewable","inputs":[{"name":"tokenId","type":"uint256","internalType":"uint256"}]},{"type":"error","name":"Entitlement__InvalidValue","inputs":[]},{"type":"error","name":"Entitlement__NotAllowed","inputs":[]},{"type":"error","name":"Entitlement__NotMember","inputs":[]},{"type":"error","name":"Entitlement__ValueAlreadyExists","inputs":[]},{"type":"error","name":"FailedInnerCall","inputs":[]},{"type":"error","name":"Initializable_InInitializingState","inputs":[]},{"type":"error","name":"Initializable_NotInInitializingState","inputs":[]},{"type":"error","name":"Introspection_AlreadySupported","inputs":[]},{"type":"error","name":"Introspection_NotSupported","inputs":[]},{"type":"error","name":"Membership__AlreadyMember","inputs":[]},{"type":"error","name":"Membership__InsufficientPayment","inputs":[]},{"type":"error","name":"Membership__InvalidAddress","inputs":[]},{"type":"error","name":"Membership__InvalidCurrency","inputs":[]},{"type":"error","name":"Membership__InvalidDuration","inputs":[]},{"type":"error","name":"Membership__InvalidFeeRecipient","inputs":[]},{"type":"error","name":"Membership__InvalidFreeAllocation","inputs":[]},{"type":"error","name":"Membership__InvalidLimit","inputs":[]},{"type":"error","name":"Membership__InvalidMaxSupply","inputs":[]},{"type":"error","name":"Membership__InvalidPrice","inputs":[]},{"type":"error","name":"Membership__InvalidPricingModule","inputs":[]},{"type":"error","name":"Membership__InvalidReferralBps","inputs":[]},{"type":"error","name":"Membership__InvalidReferralCode","inputs":[]},{"type":"error","name":"Membership__InvalidReferralTime","inputs":[]},{"type":"error","name":"Membership__InvalidTokenId","inputs":[]},{"type":"error","name":"Membership__MaxSupplyReached","inputs":[]},{"type":"error","name":"Membership__NotExpired","inputs":[]},{"type":"error","name":"Membership__NotRenewable","inputs":[]},{"type":"error","name":"Membership__PriceTooLow","inputs":[]},{"type":"error","name":"MintERC2309QuantityExceedsLimit","inputs":[]},{"type":"error","name":"MintToZeroAddress","inputs":[]},{"type":"error","name":"MintZeroQuantity","inputs":[]},{"type":"error","name":"Ownable__NotOwner","inputs":[{"name":"account","type":"address","internalType":"address"}]},{"type":"error","name":"Ownable__ZeroAddress","inputs":[]},{"type":"error","name":"OwnerQueryForNonexistentToken","inputs":[]},{"type":"error","name":"OwnershipNotInitializedForExtraData","inputs":[]},{"type":"error","name":"Pausable__NotPaused","inputs":[]},{"type":"error","name":"Pausable__Paused","inputs":[]},{"type":"error","name":"ReentrancyGuard__ReentrantCall","inputs":[]},{"type":"error","name":"SafeERC20FailedOperation","inputs":[{"name":"token","type":"address","internalType":"address"}]},{"type":"error","name":"TransferCallerNotOwnerNorApproved","inputs":[]},{"type":"error","name":"TransferFromIncorrectOwner","inputs":[]},{"type":"error","name":"TransferToNonERC721ReceiverImplementer","inputs":[]},{"type":"error","name":"TransferToZeroAddress","inputs":[]},{"type":"error","name":"URIQueryForNonexistentToken","inputs":[]}],"bytecode":{"object":"0x60806040523480156200001157600080fd5b506200001c62000022565b620000ca565b7f2d0d21306acfe8e9bb163a4573e95aff6cef95dc1102c6a16d5f19eac08cc4de8054640100000000900460ff16156200006f576040516366008a2d60e01b815260040160405180910390fd5b805463ffffffff9081161015620000c757805463ffffffff191663ffffffff90811782556040519081527fe9c9b456cb2994b80aeef036cf59d26e9617df80f816a6ee5a5b4166e07e2f5c9060200160405180910390a15b50565b61403b80620000da6000396000f3fe6080604052600436106102ae5760003560e01c80637025156311610175578063a22cb465116100dc578063c87b56dd11610095578063df9a9fe61161006f578063df9a9fe61461079e578063e847abdd146107be578063e985e9c5146107d3578063f9d5d22c1461080357600080fd5b8063c87b56dd1461074b578063d2f01f191461076b578063d8480c381461078b57600080fd5b8063a22cb465146106b9578063ac7ee626146106d9578063b3a5be6d146106ee578063b830737614610703578063b88d4fde14610723578063bf3bc8781461073657600080fd5b806383f3f0dc1161012e57806383f3f0dc1461061a5780638934207f1461063a57806389def3201461064f57806395d600c81461066f57806395d89b411461068457806397fb7c1e1461069957600080fd5b80637025156314610563578063706b8e091461057857806370a082311461058d57806373fc5a05146105ad5780637d0567c4146105cd5780638120f0ba146105ed57600080fd5b806342842e0e1161021957806362452006116101d257806362452006146104b95780636340d096146104d95780636352211e146104ee578063657e45e81461050e57806369d5f38a1461052357806369d9346b1461054357600080fd5b806342842e0e1461041e5780634c2abfbe146104315780635803909f146104515780635b312fce146104715780635becd24a1461048657806361a9c7df146104a657600080fd5b806317c957091161026b57806317c957091461038157806318160ddd146103a157806318e5da65146103b65780631d214b4d146103d657806323b872dd146103eb5780633ded10de146103fe57600080fd5b806306fdde03146102b3578063081812fc146102de578063095ea7b3146103165780630c3a01b11461032b5780631278076a1461034b57806316a344b41461036e575b600080fd5b3480156102bf57600080fd5b506102c8610823565b6040516102d5919061371b565b60405180910390f35b3480156102ea57600080fd5b506102fe6102f936600461372e565b6108be565b6040516001600160a01b0390911681526020016102d5565b610329610324366004613767565b6108cf565b005b34801561033757600080fd5b5061032961034636600461372e565b6108df565b34801561035757600080fd5b50610360610984565b6040519081526020016102d5565b61036061037c366004613793565b610996565b34801561038d57600080fd5b5061036061039c36600461372e565b610a81565b3480156103ad57600080fd5b50610360610a9b565b3480156103c257600080fd5b506103296103d1366004613793565b610aa5565b3480156103e257600080fd5b506102fe610afa565b6103296103f93660046137b0565b610b16565b34801561040a57600080fd5b5061036061041936600461372e565b610d08565b61032961042c3660046137b0565b610e4d565b34801561043d57600080fd5b5061032961044c3660046138f7565b610e6d565b34801561045d57600080fd5b5061036061046c36600461372e565b610ee3565b34801561047d57600080fd5b506102fe610ef6565b34801561049257600080fd5b506103296104a136600461372e565b610f12565b6103296104b4366004613793565b610f97565b3480156104c557600080fd5b506103296104d4366004613793565b6110cd565b3480156104e557600080fd5b506102fe6110fa565b3480156104fa57600080fd5b506102fe61050936600461372e565b611104565b34801561051a57600080fd5b506102fe61110f565b34801561052f57600080fd5b5061032961053e36600461372e565b611119565b34801561054f57600080fd5b5061032961055e366004613793565b611176565b34801561056f57600080fd5b506102fe6111a3565b34801561058457600080fd5b506103606111bf565b34801561059957600080fd5b506103606105a8366004613793565b6111c9565b3480156105b957600080fd5b506103296105c836600461372e565b6111fc565b3480156105d957600080fd5b506103296105e8366004613793565b61120c565b3480156105f957600080fd5b50610602611259565b6040516001600160401b0390911681526020016102d5565b34801561062657600080fd5b50610329610635366004613a00565b611263565b34801561064657600080fd5b506103606112b0565b34801561065b57600080fd5b5061032961066a36600461372e565b6112c3565b34801561067b57600080fd5b50610360611359565b34801561069057600080fd5b506102c8611363565b3480156106a557600080fd5b506103296106b436600461372e565b61137b565b3480156106c557600080fd5b506103296106d4366004613a2b565b6113d0565b3480156106e557600080fd5b506102fe61144d565b3480156106fa57600080fd5b50610360611469565b34801561070f57600080fd5b5061032961071e366004613793565b61150b565b610329610731366004613a64565b611538565b34801561074257600080fd5b506102fe611582565b34801561075757600080fd5b506102c861076636600461372e565b61158c565b34801561077757600080fd5b50610329610786366004613ae3565b61161d565b6103606107993660046137b0565b611671565b3480156107aa57600080fd5b506103296107b9366004613793565b61177c565b3480156107ca57600080fd5b506102fe6117f0565b3480156107df57600080fd5b506107f36107ee366004613b46565b6117fa565b60405190151581526020016102d5565b34801561080f57600080fd5b5061032961081e36600461372e565b611806565b606061082d611849565b600201805461083b90613b74565b80601f016020809104026020016040519081016040528092919081815260200182805461086790613b74565b80156108b45780601f10610889576101008083540402835291602001916108b4565b820191906000526020600020905b81548152906001019060200180831161089757829003601f168201915b5050505050905090565b60006108c98261186d565b92915050565b6108db828260016118ba565b5050565b60006108e9610ef6565b90506000816001600160a01b0316630eac306d6040518163ffffffff1660e01b8152600401602060405180830381865afa15801561092b573d6000803e3d6000fd5b505050506040513d601f19601f8201168201806040525081019061094f9190613bae565b90508083101561097257604051631a23d64760e11b815260040160405180910390fd5b8261097b61196f565b60020155505050565b6000610991610419611993565b905090565b60006002600080516020613ffb83398151915254036109c857604051635db5c7cd60e11b815260040160405180910390fd5b6109df6002600080516020613ffb83398151915255565b6109e8826119b2565b6109f0611a9a565b905060006109ff610419611993565b90508015610a4857610a118282611aaa565b6000610a1d8483611aca565b90506000610a2b8284613bdd565b90508015610a4557610a4585610a3f610afa565b83611be4565b50505b610a53836001611c0b565b610a6482610a5f611c25565b611cdf565b50610a7c6001600080516020613ffb83398151915255565b919050565b6000610a8c82611dd1565b6001600160401b031692915050565b6000610991611993565b610aad611e0b565b6001600160a01b0316336001600160a01b031614610ae5576040516365f4906560e01b81523360048201526024015b60405180910390fd5b610aee81611ecf565b610af7816110cd565b50565b6000610b0461196f565b600501546001600160a01b0316919050565b6000610b2182611ef6565b9050836001600160a01b0316816001600160a01b031614610b545760405162a1148160e81b815260040160405180910390fd5b600080610b6084611f9a565b91509150610b858187610b703390565b6001600160a01b039081169116811491141790565b610bb057610b9386336117fa565b610bb057604051632ce44b5f60e11b815260040160405180910390fd5b6001600160a01b038516610bd757604051633a954ecd60e21b815260040160405180910390fd5b610be48686866001611fc2565b8015610bef57600082555b610bf7611849565b6001600160a01b0387166000908152600591909101602052604090208054600019019055610c23611849565b6001600160a01b03861660008181526005929092016020526040909120805460010190554260a01b17600160e11b17610c5a611849565b60008681526004919091016020526040812091909155600160e11b84169003610cd05760018401610c89611849565b600082815260049190910160205260408120549003610cce57610caa611849565b548114610cce5783610cba611849565b600083815260049190910160205260409020555b505b83856001600160a01b0316876001600160a01b031660008051602061401b83398151915260405160405180910390a45b505050505050565b600080610d1361196f565b90506000610d1f611469565b905083811115610d33575060009392505050565b6006820154604051639262b1b360e01b815230600482015285916001600160a01b031690639262b1b390602401602060405180830381865afa158015610d7d573d6000803e3d6000fd5b505050506040513d601f19601f82011682018060405250810190610da19190613bae565b1115610db1575060009392505050565b60088201546001600160a01b031615610e42576008820154604051635cf4ee9160e01b815260048101839052602481018690526001600160a01b0390911690635cf4ee9190604401602060405180830381865afa158015610e16573d6000803e3d6000fd5b505050506040513d601f19601f82011682018060405250810190610e3a9190613bae565b949350505050565b506002015492915050565b610e6883838360405180602001604052806000815250611538565b505050565b7f2d0d21306acfe8e9bb163a4573e95aff6cef95dc1102c6a16d5f19eac08cc4de54640100000000900460ff16610eb757604051630ef4733760e31b815260040160405180910390fd5b610ec763695d5db560e11b611fcc565b610ed182826120aa565b6108db826000015183602001516121df565b60006108c982610ef1611993565b612253565b6000610f0061196f565b600601546001600160a01b0316919050565b610f1a611e0b565b6001600160a01b0316336001600160a01b031614610f4d576040516365f4906560e01b8152336004820152602401610adc565b6000610f576112b0565b90508015801590610f6757508082115b15610f855760405163c3983b9160e01b815260040160405180910390fd5b610f8e82612299565b6108db82611806565b6002600080516020613ffb8339815191525403610fc757604051635db5c7cd60e11b815260040160405180910390fd5b610fde6002600080516020613ffb83398151915255565b6001600160a01b03811661100557604051635fbd571760e01b815260040160405180910390fd5b61100e8161233e565b60000361102e576040516331d6fa3360e11b815260040160405180910390fd5b6000611039826123a6565b9050611044816123d2565b6110615760405163dce9a1d360e01b815260040160405180910390fd5b600061106f82610ef1611993565b905080156110a85760006110838483611aca565b905060006110918284613bdd565b905080156110a5576110a585610a3f610afa565b50505b6110b482610a5f611c25565b5050610af76001600080516020613ffb83398151915255565b806110d661196f565b60050180546001600160a01b0319166001600160a01b039290921691909117905550565b6000610991610ef6565b60006108c982611ef6565b60006109916111a3565b611121611e0b565b6001600160a01b0316336001600160a01b031614611154576040516365f4906560e01b8152336004820152602401610adc565b61116461115f6111a3565b612409565b61116d81612430565b610af7816108df565b8061117f61196f565b60080180546001600160a01b0319166001600160a01b039290921691909117905550565b60006111ad61196f565b600401546001600160a01b0316919050565b6000610991611469565b6000426111dd6111d8846123a6565b611dd1565b6001600160401b0316116111f357506000919050565b6108c98261233e565b8061120561196f565b6003015550565b611214611e0b565b6001600160a01b0316336001600160a01b031614611247576040516365f4906560e01b8152336004820152602401610adc565b61125081612409565b610af78161150b565b6000610991611c25565b61126b611e0b565b6001600160a01b0316336001600160a01b03161461129e576040516365f4906560e01b8152336004820152602401610adc565b6112a7816124be565b610af781612559565b60006112ba61196f565b60030154905090565b6002600080516020613ffb83398151915254036112f357604051635db5c7cd60e11b815260040160405180910390fd5b61130a6002600080516020613ffb83398151915255565b6113138161258c565b611330576040516367d9dca160e11b815260040160405180910390fd5b611339816125e2565b611342816125ed565b610af76001600080516020613ffb83398151915255565b60006109916112b0565b606061136d611849565b600301805461083b90613b74565b611383611e0b565b6001600160a01b0316336001600160a01b0316146113b6576040516365f4906560e01b8152336004820152602401610adc565b6113c7816113c2611993565b612660565b610af7816111fc565b806113d9611849565b336000818152600792909201602090815260408084206001600160a01b03881680865290835293819020805460ff19169515159590951790945592518415158152919290917f17307eab39ab6107e8899845ad3d59bd9653f200f220920489ca2b5937696c31910160405180910390a35050565b600061145761196f565b600801546001600160a01b0316919050565b60008061147461196f565b600701549050801561148557919050565b61148d61196f565b60060160009054906101000a90046001600160a01b03166001600160a01b0316632cbb9d136040518163ffffffff1660e01b8152600401602060405180830381865afa1580156114e1573d6000803e3d6000fd5b505050506040513d601f19601f820116820180604052508101906115059190613bae565b91505090565b8061151461196f565b60040180546001600160a01b0319166001600160a01b039290921691909117905550565b611543848484610b16565b6001600160a01b0383163b1561157c5761155f848484846126a8565b61157c576040516368d2bf6b60e11b815260040160405180910390fd5b50505050565b6000610991610afa565b606061159782612793565b6115b457604051630a14c4b560e41b815260040160405180910390fd5b60006115cb60408051602081019091526000815290565b905080516000036115eb5760405180602001604052806000815250611616565b806115f5846127cf565b604051602001611606929190613bf0565b6040516020818303038152906040525b9392505050565b7f2d0d21306acfe8e9bb163a4573e95aff6cef95dc1102c6a16d5f19eac08cc4de54640100000000900460ff1661166757604051630ef4733760e31b815260040160405180910390fd5b6108db82826121df565b60006002600080516020613ffb83398151915254036116a357604051635db5c7cd60e11b815260040160405180910390fd5b6116ba6002600080516020613ffb83398151915255565b6116c3846119b2565b6116cb611a9a565b905060006116da610419611993565b9050801561174d576116ec8282611aaa565b60006116f88683611aca565b905060006117068284613bdd565b9050801561174a57600061171a8287612813565b9050611727888883611be4565b60006117338284613bdd565b905080156117475761174789610a3f610afa565b50505b50505b611758856001611c0b565b61176482610a5f611c25565b506116166001600080516020613ffb83398151915255565b611784611e0b565b6001600160a01b0316336001600160a01b0316146117b7576040516365f4906560e01b8152336004820152602401610adc565b6001600160a01b0381166117de57604051630e88bf4b60e01b815260040160405180910390fd5b6117e7816128c6565b610af781611176565b600061099161144d565b60006116168383612963565b600061181061196f565b6007810183905560405190915082907fab14a23e88fb272313490d4f20d63098e64fd38304c0e07a377db98c2b39b92f90600090a25050565b7f234d8962d7c9a6a6604d7f98797e6ad6d7a886804f7409feb26422e27bf8125490565b600061187882612793565b611895576040516333d1c03960e21b815260040160405180910390fd5b61189d611849565b60009283526006016020525060409020546001600160a01b031690565b60006118c583611104565b9050811561190457336001600160a01b03821614611904576118e78133612963565b611904576040516367d9dca160e11b815260040160405180910390fd5b8361190d611849565b6000858152600691909101602052604080822080546001600160a01b0319166001600160a01b0394851617905551859287811692908516917f8c5be1e5ebec7d5bd14f71427d1e84f3dd0314c0f7b2291e5b200ac8c7c3b9259190a450505050565b7f9b35df16c33a6c0e085c9ebd55fb367f81c58c2ed7e9bed98cc622f3308a600d90565b60008061199e611849565b600101546119aa611849565b540303919050565b6001600160a01b0381166119d957604051635fbd571760e01b815260040160405180910390fd5b60006119e43361233e565b1115611a03576040516316d9a23f60e31b815260040160405180910390fd5b6000611a0e8261233e565b1115611a2d576040516316d9a23f60e31b815260040160405180910390fd5b611a356112b0565b15801590611a515750611a466112b0565b611a4e611993565b10155b15611a6f57604051637efcdb4960e01b815260040160405180910390fd5b610af7604051806040016040528060098152602001684a6f696e537061636560b81b815250826129a0565b6000611aa4611849565b54919050565b80611ab361196f565b600093845260090160205260409092209190915550565b600080611ad561196f565b905060008160060160009054906101000a90046001600160a01b031690506000816001600160a01b0316634ccb20c06040518163ffffffff1660e01b8152600401602060405180830381865afa158015611b33573d6000803e3d6000fd5b505050506040513d601f19601f82011682018060405250810190611b579190613c1f565b90506000826001600160a01b0316639f6542aa6040518163ffffffff1660e01b8152600401602060405180830381865afa158015611b99573d6000803e3d6000fd5b505050506040513d601f19601f82011682018060405250810190611bbd9190613c3c565b9050611bcd868261ffff166129d7565b9450611bda878387611be4565b5050505092915050565b6000611bee61196f565b600481015490915061157c906001600160a01b0316858585612a4c565b6108db828260405180602001604052806000815250612a92565b600080611c3061196f565b6006810154909150600160a01b90046001600160401b031615611c665760060154600160a01b90046001600160401b0316919050565b8060060160009054906101000a90046001600160a01b03166001600160a01b0316638120f0ba6040518163ffffffff1660e01b8152600401602060405180830381865afa158015611cbb573d6000803e3d6000fd5b505050506040513d601f19601f820116820180604052508101906115059190613c60565b60008281527f62df4f6c50e7f750c679c064ab345c286dd49de6e39940ae1538c75b44a0e3616020819052604082205490916001600160401b0390911690818103611d3557611d2e8442613c7d565b9050611d6b565b611d3e856123d2565b611d5e57604051637be9098d60e11b815260048101869052602401610adc565b611d688483613c7d565b90505b60008581526020848152604091829020805467ffffffffffffffff19166001600160401b038516908117909155915191825286917f2ec2be2c4b90c2cf13ecb6751a24daed6bb741ae5ed3f7371aabf9402f6d62e8910160405180910390a25050505050565b60009081527f62df4f6c50e7f750c679c064ab345c286dd49de6e39940ae1538c75b44a0e36160205260409020546001600160401b031690565b6040805180820182527f9bd0e1a7aef81c47cff971a2fee48406b20f55522326b2e2616c49c24aa506d0546001600160a01b03168082527f9bd0e1a7aef81c47cff971a2fee48406b20f55522326b2e2616c49c24aa506d154602080840182905284516331a9108f60e11b815260048101929092529351600094636352211e92602480820193918290030181865afa158015611eab573d6000803e3d6000fd5b505050506040513d601f19601f820116820180604052508101906115059190613c1f565b6001600160a01b038116610af757604051631492df6160e21b815260040160405180910390fd5b6000611f00611849565b600083815260049190910160205260408120549150600160e01b82169003611f815780600003610a7c57611f32611849565b548210611f5257604051636f96cda160e11b815260040160405180910390fd5b611f5a611849565b600019909201600081815260049390930160205260409092205490508015611f5257919050565b604051636f96cda160e11b815260040160405180910390fd5b6000806000611fa7611849565b60009485526006016020525050604090912080549092909150565b61157c8284612b0f565b6001600160e01b0319811660009081527fbc7de460bcfb6afd0c415c8c610d408bd914b18d7d0feec0da9e25348087a5c4602052604090205460ff161515600114612059576001600160e01b0319811660009081527fbc7de460bcfb6afd0c415c8c610d408bd914b18d7d0feec0da9e25348087a5c460205260409020805460ff19166001179055612072565b604051637967f77d60e11b815260040160405180910390fd5b6040516001600160e01b03198216907f78f84e5b1c5c05be2b5ad3800781dd404d6d6c6302bc755c0fe20f58a33a7f2290600090a250565b60006120b461196f565b6006810180546001600160a01b0319166001600160a01b03851617905560808401519091506120e2906124be565b6120ef8360c00151611ecf565b6120fc8360e00151612299565b61210a8361010001516128c6565b6060830151600382015560a08301516001600160a01b031615612131578260a00151612147565b73eeeeeeeeeeeeeeeeeeeeeeeeeeeeeeeeeeeeeeee5b6004820180546001600160a01b03199081166001600160a01b039384161790915560408501516002840155608085015160068401805467ffffffffffffffff60a01b1916600160a01b6001600160401b039093169290920291909117905560c0850151600584018054831691841691909117905560e08501516007840155610100909401516008909201805490941691161790915550565b7f2d0d21306acfe8e9bb163a4573e95aff6cef95dc1102c6a16d5f19eac08cc4de54640100000000900460ff1661222957604051630ef4733760e31b815260040160405180910390fd5b6122396380ac58cd60e01b611fcc565b612249635b5e139f60e01b611fcc565b6108db8282612b5b565b60008061225e61196f565b6000858152600982016020526040902054909150156122905760008481526009909101602052604090205490506108c9565b610e3a83610d08565b60006122a361196f565b90508060060160009054906101000a90046001600160a01b03166001600160a01b0316632cbb9d136040518163ffffffff1660e01b8152600401602060405180830381865afa1580156122fa573d6000803e3d6000fd5b505050506040513d601f19601f8201168201806040525081019061231e9190613bae565b8211156108db5760405163c3983b9160e01b815260040160405180910390fd5b60006001600160a01b038216612367576040516323d3ad8160e21b815260040160405180910390fd5b6001600160401b03612377611849565b6005016000846001600160a01b03166001600160a01b0316815260200190815260200160002054169050919050565b60006123b061196f565b6001600160a01b03909216600090815260019290920160205250604090205490565b6000426123dd611c25565b6001600160401b03166123f09190613ca4565b6123f983611dd1565b6001600160401b03161092915050565b6001600160a01b038116610af757604051636da3122b60e01b815260040160405180910390fd5b600061243a610ef6565b6001600160a01b0316630eac306d6040518163ffffffff1660e01b8152600401602060405180830381865afa158015612477573d6000803e3d6000fd5b505050506040513d601f19601f8201168201806040525081019061249b9190613bae565b9050808210156108db57604051631a23d64760e11b815260040160405180910390fd5b6124c6610ef6565b6001600160a01b0316638120f0ba6040518163ffffffff1660e01b8152600401602060405180830381865afa158015612503573d6000803e3d6000fd5b505050506040513d601f19601f820116820180604052508101906125279190613c60565b6001600160401b0316816001600160401b03161115610af7576040516341191e9760e11b815260040160405180910390fd5b8061256261196f565b60060160146101000a8154816001600160401b0302191690836001600160401b0316021790555050565b60008061259883611104565b9050336001600160a01b0382168114806125b757506125b78282612963565b80610e3a5750806001600160a01b03166125d08561186d565b6001600160a01b031614949350505050565b610af7816000612b8d565b7f62df4f6c50e7f750c679c064ab345c286dd49de6e39940ae1538c75b44a0e361600082815260209182526040808220805467ffffffffffffffff191690555190815282917f2ec2be2c4b90c2cf13ecb6751a24daed6bb741ae5ed3f7371aabf9402f6d62e8910160405180910390a250565b8082101561268157604051636664d51760e11b815260040160405180910390fd5b6126896112b0565b82116108db57604051636664d51760e11b815260040160405180910390fd5b604051630a85bd0160e11b81526000906001600160a01b0385169063150b7a02906126dd903390899088908890600401613cb7565b6020604051808303816000875af1925050508015612718575060408051601f3d908101601f1916820190925261271591810190613cea565b60015b612776573d808015612746576040519150601f19603f3d011682016040523d82523d6000602084013e61274b565b606091505b50805160000361276e576040516368d2bf6b60e11b815260040160405180910390fd5b805181602001fd5b6001600160e01b031916630a85bd0160e11b149050949350505050565b600061279d611849565b54821080156108c95750600160e01b6127b4611849565b60008481526004919091016020526040902054161592915050565b606060a06040510180604052602081039150506000815280825b600183039250600a81066030018353600a9004806127e95750819003601f19909101908152919050565b60008181527fe51b25fea73f50a2b3aac2a4ae8549fcc692472b6c9df7ca78c0d969dad9e8416020819052604082205461ffff16808303612859576000925050506108c9565b60008481526001808401602090815260409283902083518085019094528054808552920154908301521580159061289d5750805142108061289d5750806020015142115b156128ae57600093505050506108c9565b6128bc868361ffff166129d7565b9695505050505050565b6001600160a01b0381166128d75750565b6040516301ffc9a760e01b8152635cf4ee9160e01b60048201526001600160a01b038216906301ffc9a790602401602060405180830381865afa158015612922573d6000803e3d6000fd5b505050506040513d601f19601f820116820180604052508101906129469190613d14565b610af757604051630e88bf4b60e01b815260040160405180910390fd5b600061296d611849565b6001600160a01b039384166000908152600791909101602090815260408083209490951682529290925250205460ff1690565b6129ba604051806020016040528060008152508383612d0a565b6108db57604051630ce39a4b60e21b815260040160405180910390fd5b6000612710821115612a355760405162461bcd60e51b815260206004820152602160248201527f426173697320706f696e74732063616e6e6f74206578636565642031305f30306044820152600360fc1b6064820152608401610adc565b612710612a428385613d31565b6116169190613d48565b801561157c5773eeeeeeeeeeeeeeeeeeeeeeeeeeeeeeeeeeeeeeed196001600160a01b03851601612a8657612a818282612d8e565b61157c565b61157c84848484612e31565b612a9c8383612e84565b6001600160a01b0383163b15610e68576000612ab6611849565b5490508281035b612ad060008683806001019450866126a8565b612aed576040516368d2bf6b60e11b815260040160405180910390fd5b818110612abd5781612afd611849565b5414612b0857600080fd5b5050505050565b6000612b1961196f565b60008481526020828152604080832080546001600160a01b039097166001600160a01b0319909716871790559482526001909201909152919091209190915550565b6000612b65611849565b905060028101612b758482613db2565b5060038101612b848382613db2565b50600090555050565b6000612b9883611ef6565b905080600080612ba786611f9a565b915091508415612be757612bbc818433610b70565b612be757612bca8333612963565b612be757604051632ce44b5f60e11b815260040160405180910390fd5b612bf5836000886001611fc2565b8015612c0057600082555b6fffffffffffffffffffffffffffffffff612c19611849565b6001600160a01b038516600081815260059290920160205260409091208054929092019091554260a01b17600360e01b17612c52611849565b60008881526004919091016020526040812091909155600160e11b85169003612cc85760018601612c81611849565b600082815260049190910160205260408120549003612cc657612ca2611849565b548114612cc65784612cb2611849565b600083815260049190910160205260409020555b505b60405186906000906001600160a01b0386169060008051602061401b833981519152908390a4612cf6611849565b600190810180549091019055505050505050565b6000816001600160a01b0316612d1e611e0b565b6001600160a01b03161480610e3a57507ff421ea548af7158b1d71ba0aeccf57104c067038bd8fd214edd05c09eb4f735b5460ff16158015610e3a5750610e3a848385604051602001612d719190613e71565b604051602081830303815290604052612d8990613e8d565b612fa8565b6000826001600160a01b03168260405160006040518083038185875af1925050503d8060008114612ddb576040519150601f19603f3d011682016040523d82523d6000602084013e612de0565b606091505b5050905080610e685760405162461bcd60e51b815260206004820152601c60248201527f6e617469766520746f6b656e207472616e73666572206661696c6564000000006044820152606401610adc565b816001600160a01b0316836001600160a01b0316031561157c57306001600160a01b03841603612e6f57612a816001600160a01b03851683836132a2565b61157c6001600160a01b038516848484613301565b6000612e8e611849565b5490506000829003612eb35760405163b562e8dd60e01b815260040160405180910390fd5b612ec06000848385611fc2565b680100000000000000018202612ed4611849565b6001600160a01b038516600081815260059290920160205260409091208054929092019091554260a01b6001841460e11b1717612f0f611849565b600083815260049190910160205260408120919091556001600160a01b03841690838301908390839060008051602061401b8339815191528180a4600183015b818114612f75578083600060008051602061401b833981519152600080a4600101612f4f565b5081600003612f9657604051622e076360e81b815260040160405180910390fd5b80612f9f611849565b5550610e689050565b600080612fb48461333a565b8051909150600080805b8381108015612fcb575082155b1561303b576000858281518110612fe457612fe4613eb1565b60200260200101519050612ff7816134c3565b15613028576001935061300861196f565b6001600160a01b0382166000908152600191909101602052604090205492505b508061303381613ec7565b915050612fbe565b508180156130915750604051806040016040528060098152602001684a6f696e537061636560b81b8152506040516020016130769190613e71565b60405160208183030381529060405261308e90613e8d565b86145b156130a3576000945050505050611616565b60006130ad611e0b565b905060005b855181101561310457816001600160a01b03168682815181106130d7576130d7613eb1565b60200260200101516001600160a01b0316036130fc5760019650505050505050611616565b6001016130b2565b5060008281527fa58ec377a0bfb65fc456fb479d6eb2f9e176963c85db6b84841175b4a0b637e9602052604090205460ff1680613146575061314689836134d6565b1561315957600095505050505050611616565b7f2df4f8e2489b335ef09ede56990b0838afbcdea6c639a41af44b533474fb855860005b61318982600101613530565b81101561329157600082816131a1600183018561353a565b6001600160a01b039081168252602080830193909352604091820160002082516060810184529054918216815260ff600160a01b83048116151594820194909452600160a81b9091049092161580159183018290529192506132725750805160405163a7b7287160e01b81526001600160a01b039091169063a7b7287190613231908f908c908f90600401613ee0565b602060405180830381865afa15801561324e573d6000803e3d6000fd5b505050506040513d601f19601f820116820180604052508101906132729190613d14565b1561328857600198505050505050505050611616565b5060010161317d565b5060009a9950505050505050505050565b6040516001600160a01b03838116602483015260448201839052610e6891859182169063a9059cbb906064015b604051602081830303815290604052915060e01b6020820180516001600160e01b038381831617835250505050613546565b6040516001600160a01b03848116602483015283811660448301526064820183905261157c9186918216906323b872dd906084016132cf565b6060600061336f7f438e2013c1d3a5bb9642eb30342f1d83ec0d3add620b71cdaf5043d9570b0a95546001600160a01b031690565b60405162468b7360e31b81526001600160a01b0385811660048301529192506000918316906302345b9890602401600060405180830381865afa1580156133ba573d6000803e3d6000fd5b505050506040513d6000823e601f3d908101601f191682016040526133e29190810190613f49565b805190915060006133f4826001613ca4565b6001600160401b0381111561340b5761340b6137f1565b604051908082528060200260200182016040528015613434578160200160208202803683370190505b50905060005b8281101561348e5783818151811061345457613454613eb1565b602002602001015182828151811061346e5761346e613eb1565b6001600160a01b039092166020928302919091019091015260010161343a565b50858183815181106134a2576134a2613eb1565b6001600160a01b039092166020928302919091019091015295945050505050565b6000806134cf8361233e565b1192915050565b60007fa58ec377a0bfb65fc456fb479d6eb2f9e176963c85db6b84841175b4a0b637e96001018360405161350a9190613e71565b908152604080516020928190038301902060009485529091529091205460ff1692915050565b60006108c9825490565b600061161683836135a9565b600061355b6001600160a01b038416836135d3565b9050805160001415801561358057508080602001905181019061357e9190613d14565b155b15610e6857604051635274afe760e01b81526001600160a01b0384166004820152602401610adc565b60008260000182815481106135c0576135c0613eb1565b9060005260206000200154905092915050565b60606116168383600084600080856001600160a01b031684866040516135f99190613e71565b60006040518083038185875af1925050503d8060008114613636576040519150601f19603f3d011682016040523d82523d6000602084013e61363b565b606091505b50915091506128bc86838360608261365b57613656826136a2565b611616565b815115801561367257506001600160a01b0384163b155b1561369b57604051639996b31560e01b81526001600160a01b0385166004820152602401610adc565b5080611616565b8051156136b25780518082602001fd5b604051630a12f52160e11b815260040160405180910390fd5b60005b838110156136e65781810151838201526020016136ce565b50506000910152565b600081518084526137078160208601602086016136cb565b601f01601f19169290920160200192915050565b60208152600061161660208301846136ef565b60006020828403121561374057600080fd5b5035919050565b6001600160a01b0381168114610af757600080fd5b8035610a7c81613747565b6000806040838503121561377a57600080fd5b823561378581613747565b946020939093013593505050565b6000602082840312156137a557600080fd5b813561161681613747565b6000806000606084860312156137c557600080fd5b83356137d081613747565b925060208401356137e081613747565b929592945050506040919091013590565b634e487b7160e01b600052604160045260246000fd5b60405161012081016001600160401b038111828210171561382a5761382a6137f1565b60405290565b604051601f8201601f191681016001600160401b0381118282101715613858576138586137f1565b604052919050565b60006001600160401b03831115613879576138796137f1565b61388c601f8401601f1916602001613830565b90508281528383830111156138a057600080fd5b828260208301376000602084830101529392505050565b600082601f8301126138c857600080fd5b61161683833560208501613860565b6001600160401b0381168114610af757600080fd5b8035610a7c816138d7565b6000806040838503121561390a57600080fd5b82356001600160401b038082111561392157600080fd5b90840190610120828703121561393657600080fd5b61393e613807565b82358281111561394d57600080fd5b613959888286016138b7565b82525060208301358281111561396e57600080fd5b61397a888286016138b7565b60208301525060408301356040820152606083013560608201526139a0608084016138ec565b60808201526139b160a0840161375c565b60a08201526139c260c0840161375c565b60c082015260e083013560e082015261010091506139e182840161375c565b828201528094505050506139f76020840161375c565b90509250929050565b600060208284031215613a1257600080fd5b8135611616816138d7565b8015158114610af757600080fd5b60008060408385031215613a3e57600080fd5b8235613a4981613747565b91506020830135613a5981613a1d565b809150509250929050565b60008060008060808587031215613a7a57600080fd5b8435613a8581613747565b93506020850135613a9581613747565b92506040850135915060608501356001600160401b03811115613ab757600080fd5b8501601f81018713613ac857600080fd5b613ad787823560208401613860565b91505092959194509250565b60008060408385031215613af657600080fd5b82356001600160401b0380821115613b0d57600080fd5b613b19868387016138b7565b93506020850135915080821115613b2f57600080fd5b50613b3c858286016138b7565b9150509250929050565b60008060408385031215613b5957600080fd5b8235613b6481613747565b91506020830135613a5981613747565b600181811c90821680613b8857607f821691505b602082108103613ba857634e487b7160e01b600052602260045260246000fd5b50919050565b600060208284031215613bc057600080fd5b5051919050565b634e487b7160e01b600052601160045260246000fd5b818103818111156108c9576108c9613bc7565b60008351613c028184602088016136cb565b835190830190613c168183602088016136cb565b01949350505050565b600060208284031215613c3157600080fd5b815161161681613747565b600060208284031215613c4e57600080fd5b815161ffff8116811461161657600080fd5b600060208284031215613c7257600080fd5b8151611616816138d7565b6001600160401b03818116838216019080821115613c9d57613c9d613bc7565b5092915050565b808201808211156108c9576108c9613bc7565b6001600160a01b03858116825284166020820152604081018390526080606082018190526000906128bc908301846136ef565b600060208284031215613cfc57600080fd5b81516001600160e01b03198116811461161657600080fd5b600060208284031215613d2657600080fd5b815161161681613a1d565b80820281158282048414176108c9576108c9613bc7565b600082613d6557634e487b7160e01b600052601260045260246000fd5b500490565b601f821115610e68576000816000526020600020601f850160051c81016020861015613d935750805b601f850160051c820191505b81811015610d0057828155600101613d9f565b81516001600160401b03811115613dcb57613dcb6137f1565b613ddf81613dd98454613b74565b84613d6a565b602080601f831160018114613e145760008415613dfc5750858301515b600019600386901b1c1916600185901b178555610d00565b600085815260208120601f198616915b82811015613e4357888601518255948401946001909101908401613e24565b5085821015613e615787850151600019600388901b60f8161c191681555b5050505050600190811b01905550565b60008251613e838184602087016136cb565b9190910192915050565b80516020808301519190811015613ba85760001960209190910360031b1b16919050565b634e487b7160e01b600052603260045260246000fd5b600060018201613ed957613ed9613bc7565b5060010190565b606081526000613ef360608301866136ef565b82810360208481019190915285518083528682019282019060005b81811015613f335784516001600160a01b031683529383019391830191600101613f0e565b5050809350505050826040830152949350505050565b60006020808385031215613f5c57600080fd5b82516001600160401b0380821115613f7357600080fd5b818501915085601f830112613f8757600080fd5b815181811115613f9957613f996137f1565b8060051b9150613faa848301613830565b8181529183018401918481019088841115613fc457600080fd5b938501935b83851015613fee5784519250613fde83613747565b8282529385019390850190613fc9565b9897505050505050505056fe50b052c8fb38984269a818b2b593d0584a81b1b99245abc0fab04abc7afb010fddf252ad1be2c89b69c2b068fc378daa952ba7f163c4a11628f55a4df523b3ef","linkReferences":{}},"methodIdentifiers":{"__ERC721A_init(string,string)":"d2f01f19","__Membership_init((string,string,uint256,uint256,uint64,address,address,uint256,address),address)":"4c2abfbe","_getMembershipCurrency()":"70251563","_getMembershipFeeRecipient()":"1d214b4d","_getMembershipFreeAllocation()":"b3a5be6d","_getMembershipPrice(uint256)":"3ded10de","_getMembershipSupplyLimit()":"8934207f","_getPricingModule()":"ac7ee626","_getTownFactory()":"5b312fce","_setMembershipCurrency(address)":"b8307376","_setMembershipFeeRecipient(address)":"62452006","_setMembershipFreeAllocation(uint256)":"f9d5d22c","_setMembershipPrice(uint256)":"0c3a01b1","_setMembershipSupplyLimit(uint256)":"73fc5a05","_setPricingModule(address)":"69d9346b","approve(address,uint256)":"095ea7b3","balanceOf(address)":"70a08231","cancelMembership(uint256)":"89def320","expiresAt(uint256)":"17c95709","getApproved(uint256)":"081812fc","getMembershipCurrency()":"657e45e8","getMembershipDuration()":"8120f0ba","getMembershipFeeRecipient()":"bf3bc878","getMembershipFreeAllocation()":"706b8e09","getMembershipLimit()":"95d600c8","getMembershipPrice()":"1278076a","getMembershipPricingModule()":"e847abdd","getMembershipRenewalPrice(uint256)":"5803909f","getTownFactory()":"6340d096","isApprovedForAll(address,address)":"e985e9c5","joinTown(address)":"16a344b4","joinTownWithReferral(address,address,uint256)":"d8480c38","name()":"06fdde03","ownerOf(uint256)":"6352211e","renewMembership(address)":"61a9c7df","safeTransferFrom(address,address,uint256)":"42842e0e","safeTransferFrom(address,address,uint256,bytes)":"b88d4fde","setApprovalForAll(address,bool)":"a22cb465","setMembershipCurrency(address)":"7d0567c4","setMembershipDuration(uint64)":"83f3f0dc","setMembershipFeeRecipient(address)":"18e5da65","setMembershipFreeAllocation(uint256)":"5becd24a","setMembershipLimit(uint256)":"97fb7c1e","setMembershipPrice(uint256)":"69d5f38a","setMembershipPricingModule(address)":"df9a9fe6","symbol()":"95d89b41","tokenURI(uint256)":"c87b56dd","totalSupply()":"18160ddd","transferFrom(address,address,uint256)":"23b872dd"},"id":166}