{"abi":[{"type":"function","name":"__ERC721A_init","inputs":[{"name":"name_","type":"string","internalType":"string"},{"name":"symbol_","type":"string","internalType":"string"}],"outputs":[],"stateMutability":"nonpayable"},{"type":"function","name":"__Membership_init","inputs":[{"name":"info","type":"tuple","internalType":"struct IMembershipBase.Membership","components":[{"name":"name","type":"string","internalType":"string"},{"name":"symbol","type":"string","internalType":"string"},{"name":"price","type":"uint256","internalType":"uint256"},{"name":"maxSupply","type":"uint256","internalType":"uint256"},{"name":"duration","type":"uint64","internalType":"uint64"},{"name":"currency","type":"address","internalType":"address"},{"name":"feeRecipient","type":"address","internalType":"address"},{"name":"freeAllocation","type":"uint256","internalType":"uint256"},{"name":"pricingModule","type":"address","internalType":"address"}]},{"name":"spaceFactory","type":"address","internalType":"address"}],"outputs":[],"stateMutability":"nonpayable"},{"type":"function","name":"_getMembershipCurrency","inputs":[],"outputs":[{"name":"","type":"address","internalType":"address"}],"stateMutability":"view"},{"type":"function","name":"_getMembershipFreeAllocation","inputs":[],"outputs":[{"name":"","type":"uint256","internalType":"uint256"}],"stateMutability":"view"},{"type":"function","name":"_getMembershipPrice","inputs":[{"name":"totalSupply","type":"uint256","internalType":"uint256"}],"outputs":[{"name":"","type":"uint256","internalType":"uint256"}],"stateMutability":"view"},{"type":"function","name":"_getMembershipSupplyLimit","inputs":[],"outputs":[{"name":"","type":"uint256","internalType":"uint256"}],"stateMutability":"view"},{"type":"function","name":"_getPricingModule","inputs":[],"outputs":[{"name":"","type":"address","internalType":"address"}],"stateMutability":"view"},{"type":"function","name":"_getSpaceFactory","inputs":[],"outputs":[{"name":"","type":"address","internalType":"address"}],"stateMutability":"view"},{"type":"function","name":"_setMembershipFreeAllocation","inputs":[{"name":"newAllocation","type":"uint256","internalType":"uint256"}],"outputs":[],"stateMutability":"nonpayable"},{"type":"function","name":"_setMembershipSupplyLimit","inputs":[{"name":"newLimit","type":"uint256","internalType":"uint256"}],"outputs":[],"stateMutability":"nonpayable"},{"type":"function","name":"_setPricingModule","inputs":[{"name":"newPricingModule","type":"address","internalType":"address"}],"outputs":[],"stateMutability":"nonpayable"},{"type":"function","name":"approve","inputs":[{"name":"to","type":"address","internalType":"address"},{"name":"tokenId","type":"uint256","internalType":"uint256"}],"outputs":[],"stateMutability":"payable"},{"type":"function","name":"balanceOf","inputs":[{"name":"account","type":"address","internalType":"address"}],"outputs":[{"name":"","type":"uint256","internalType":"uint256"}],"stateMutability":"view"},{"type":"function","name":"cancelMembership","inputs":[{"name":"tokenId","type":"uint256","internalType":"uint256"}],"outputs":[],"stateMutability":"nonpayable"},{"type":"function","name":"expiresAt","inputs":[{"name":"tokenId","type":"uint256","internalType":"uint256"}],"outputs":[{"name":"","type":"uint256","internalType":"uint256"}],"stateMutability":"view"},{"type":"function","name":"getApproved","inputs":[{"name":"tokenId","type":"uint256","internalType":"uint256"}],"outputs":[{"name":"","type":"address","internalType":"address"}],"stateMutability":"view"},{"type":"function","name":"getMembershipCurrency","inputs":[],"outputs":[{"name":"","type":"address","internalType":"address"}],"stateMutability":"view"},{"type":"function","name":"getMembershipDuration","inputs":[],"outputs":[{"name":"","type":"uint64","internalType":"uint64"}],"stateMutability":"view"},{"type":"function","name":"getMembershipFreeAllocation","inputs":[],"outputs":[{"name":"","type":"uint256","internalType":"uint256"}],"stateMutability":"view"},{"type":"function","name":"getMembershipLimit","inputs":[],"outputs":[{"name":"","type":"uint256","internalType":"uint256"}],"stateMutability":"view"},{"type":"function","name":"getMembershipPrice","inputs":[],"outputs":[{"name":"","type":"uint256","internalType":"uint256"}],"stateMutability":"view"},{"type":"function","name":"getMembershipPricingModule","inputs":[],"outputs":[{"name":"","type":"address","internalType":"address"}],"stateMutability":"view"},{"type":"function","name":"getMembershipRenewalPrice","inputs":[{"name":"tokenId","type":"uint256","internalType":"uint256"}],"outputs":[{"name":"","type":"uint256","internalType":"uint256"}],"stateMutability":"view"},{"type":"function","name":"getSpaceFactory","inputs":[],"outputs":[{"name":"","type":"address","internalType":"address"}],"stateMutability":"view"},{"type":"function","name":"getTokenIdByMembership","inputs":[{"name":"member","type":"address","internalType":"address"}],"outputs":[{"name":"","type":"uint256","internalType":"uint256"}],"stateMutability":"view"},{"type":"function","name":"isApprovedForAll","inputs":[{"name":"owner","type":"address","internalType":"address"},{"name":"operator","type":"address","internalType":"address"}],"outputs":[{"name":"","type":"bool","internalType":"bool"}],"stateMutability":"view"},{"type":"function","name":"joinSpace","inputs":[{"name":"receiver","type":"address","internalType":"address"}],"outputs":[],"stateMutability":"payable"},{"type":"function","name":"joinSpaceWithReferral","inputs":[{"name":"receiver","type":"address","internalType":"address"},{"name":"referrer","type":"address","internalType":"address"},{"name":"referralCode","type":"uint256","internalType":"uint256"}],"outputs":[],"stateMutability":"payable"},{"type":"function","name":"name","inputs":[],"outputs":[{"name":"","type":"string","internalType":"string"}],"stateMutability":"view"},{"type":"function","name":"ownerOf","inputs":[{"name":"tokenId","type":"uint256","internalType":"uint256"}],"outputs":[{"name":"","type":"address","internalType":"address"}],"stateMutability":"view"},{"type":"function","name":"renewMembership","inputs":[{"name":"tokenId","type":"uint256","internalType":"uint256"}],"outputs":[],"stateMutability":"payable"},{"type":"function","name":"safeTransferFrom","inputs":[{"name":"from","type":"address","internalType":"address"},{"name":"to","type":"address","internalType":"address"},{"name":"tokenId","type":"uint256","internalType":"uint256"}],"outputs":[],"stateMutability":"payable"},{"type":"function","name":"safeTransferFrom","inputs":[{"name":"from","type":"address","internalType":"address"},{"name":"to","type":"address","internalType":"address"},{"name":"tokenId","type":"uint256","internalType":"uint256"},{"name":"_data","type":"bytes","internalType":"bytes"}],"outputs":[],"stateMutability":"payable"},{"type":"function","name":"setApprovalForAll","inputs":[{"name":"operator","type":"address","internalType":"address"},{"name":"approved","type":"bool","internalType":"bool"}],"outputs":[],"stateMutability":"nonpayable"},{"type":"function","name":"setMembershipDuration","inputs":[{"name":"newDuration","type":"uint64","internalType":"uint64"}],"outputs":[],"stateMutability":"nonpayable"},{"type":"function","name":"setMembershipFreeAllocation","inputs":[{"name":"newAllocation","type":"uint256","internalType":"uint256"}],"outputs":[],"stateMutability":"nonpayable"},{"type":"function","name":"setMembershipLimit","inputs":[{"name":"newLimit","type":"uint256","internalType":"uint256"}],"outputs":[],"stateMutability":"nonpayable"},{"type":"function","name":"setMembershipPrice","inputs":[{"name":"newPrice","type":"uint256","internalType":"uint256"}],"outputs":[],"stateMutability":"nonpayable"},{"type":"function","name":"setMembershipPricingModule","inputs":[{"name":"pricingModule","type":"address","internalType":"address"}],"outputs":[],"stateMutability":"nonpayable"},{"type":"function","name":"symbol","inputs":[],"outputs":[{"name":"","type":"string","internalType":"string"}],"stateMutability":"view"},{"type":"function","name":"tokenURI","inputs":[{"name":"tokenId","type":"uint256","internalType":"uint256"}],"outputs":[{"name":"","type":"string","internalType":"string"}],"stateMutability":"view"},{"type":"function","name":"totalSupply","inputs":[],"outputs":[{"name":"","type":"uint256","internalType":"uint256"}],"stateMutability":"view"},{"type":"function","name":"transferFrom","inputs":[{"name":"from","type":"address","internalType":"address"},{"name":"to","type":"address","internalType":"address"},{"name":"tokenId","type":"uint256","internalType":"uint256"}],"outputs":[],"stateMutability":"payable"},{"type":"function","name":"withdraw","inputs":[{"name":"account","type":"address","internalType":"address"}],"outputs":[],"stateMutability":"nonpayable"},{"type":"event","name":"Approval","inputs":[{"name":"owner","type":"address","indexed":true,"internalType":"address"},{"name":"approved","type":"address","indexed":true,"internalType":"address"},{"name":"tokenId","type":"uint256","indexed":true,"internalType":"uint256"}],"anonymous":false},{"type":"event","name":"ApprovalForAll","inputs":[{"name":"owner","type":"address","indexed":true,"internalType":"address"},{"name":"operator","type":"address","indexed":true,"internalType":"address"},{"name":"approved","type":"bool","indexed":false,"internalType":"bool"}],"anonymous":false},{"type":"event","name":"Banned","inputs":[{"name":"moderator","type":"address","indexed":true,"internalType":"address"},{"name":"tokenId","type":"uint256","indexed":true,"internalType":"uint256"}],"anonymous":false},{"type":"event","name":"ConsecutiveTransfer","inputs":[{"name":"fromTokenId","type":"uint256","indexed":true,"internalType":"uint256"},{"name":"toTokenId","type":"uint256","indexed":false,"internalType":"uint256"},{"name":"from","type":"address","indexed":true,"internalType":"address"},{"name":"to","type":"address","indexed":true,"internalType":"address"}],"anonymous":false},{"type":"event","name":"EntitlementCheckResultPosted","inputs":[{"name":"transactionId","type":"bytes32","indexed":true,"internalType":"bytes32"},{"name":"result","type":"uint8","indexed":false,"internalType":"enum IEntitlementGatedBase.NodeVoteStatus"}],"anonymous":false},{"type":"event","name":"Initialized","inputs":[{"name":"version","type":"uint32","indexed":false,"internalType":"uint32"}],"anonymous":false},{"type":"event","name":"InterfaceAdded","inputs":[{"name":"interfaceId","type":"bytes4","indexed":true,"internalType":"bytes4"}],"anonymous":false},{"type":"event","name":"InterfaceRemoved","inputs":[{"name":"interfaceId","type":"bytes4","indexed":true,"internalType":"bytes4"}],"anonymous":false},{"type":"event","name":"MembershipCurrencyUpdated","inputs":[{"name":"currency","type":"address","indexed":true,"internalType":"address"}],"anonymous":false},{"type":"event","name":"MembershipFeeRecipientUpdated","inputs":[{"name":"recipient","type":"address","indexed":true,"internalType":"address"}],"anonymous":false},{"type":"event","name":"MembershipFreeAllocationUpdated","inputs":[{"name":"allocation","type":"uint256","indexed":true,"internalType":"uint256"}],"anonymous":false},{"type":"event","name":"MembershipLimitUpdated","inputs":[{"name":"limit","type":"uint256","indexed":true,"internalType":"uint256"}],"anonymous":false},{"type":"event","name":"MembershipPriceUpdated","inputs":[{"name":"price","type":"uint256","indexed":true,"internalType":"uint256"}],"anonymous":false},{"type":"event","name":"MembershipTokenIssued","inputs":[{"name":"recipient","type":"address","indexed":true,"internalType":"address"},{"name":"tokenId","type":"uint256","indexed":true,"internalType":"uint256"}],"anonymous":false},{"type":"event","name":"MembershipTokenRejected","inputs":[{"name":"recipient","type":"address","indexed":true,"internalType":"address"}],"anonymous":false},{"type":"event","name":"MembershipWithdrawal","inputs":[{"name":"recipient","type":"address","indexed":true,"internalType":"address"},{"name":"amount","type":"uint256","indexed":false,"internalType":"uint256"}],"anonymous":false},{"type":"event","name":"Membership__ReferralCreated","inputs":[{"name":"code","type":"uint256","indexed":true,"internalType":"uint256"},{"name":"bps","type":"uint16","indexed":false,"internalType":"uint16"}],"anonymous":false},{"type":"event","name":"Membership__ReferralRemoved","inputs":[{"name":"code","type":"uint256","indexed":true,"internalType":"uint256"}],"anonymous":false},{"type":"event","name":"Membership__ReferralTimeCreated","inputs":[{"name":"code","type":"uint256","indexed":true,"internalType":"uint256"},{"name":"bps","type":"uint16","indexed":false,"internalType":"uint16"},{"name":"startTime","type":"uint256","indexed":false,"internalType":"uint256"},{"name":"endTime","type":"uint256","indexed":false,"internalType":"uint256"}],"anonymous":false},{"type":"event","name":"OwnershipTransferred","inputs":[{"name":"previousOwner","type":"address","indexed":true,"internalType":"address"},{"name":"newOwner","type":"address","indexed":true,"internalType":"address"}],"anonymous":false},{"type":"event","name":"Paused","inputs":[{"name":"account","type":"address","indexed":false,"internalType":"address"}],"anonymous":false},{"type":"event","name":"RoleCreated","inputs":[{"name":"creator","type":"address","indexed":true,"internalType":"address"},{"name":"roleId","type":"uint256","indexed":true,"internalType":"uint256"}],"anonymous":false},{"type":"event","name":"RoleRemoved","inputs":[{"name":"remover","type":"address","indexed":true,"internalType":"address"},{"name":"roleId","type":"uint256","indexed":true,"internalType":"uint256"}],"anonymous":false},{"type":"event","name":"RoleUpdated","inputs":[{"name":"updater","type":"address","indexed":true,"internalType":"address"},{"name":"roleId","type":"uint256","indexed":true,"internalType":"uint256"}],"anonymous":false},{"type":"event","name":"SubscriptionUpdate","inputs":[{"name":"tokenId","type":"uint256","indexed":true,"internalType":"uint256"},{"name":"expiration","type":"uint64","indexed":false,"internalType":"uint64"}],"anonymous":false},{"type":"event","name":"Transfer","inputs":[{"name":"from","type":"address","indexed":true,"internalType":"address"},{"name":"to","type":"address","indexed":true,"internalType":"address"},{"name":"tokenId","type":"uint256","indexed":true,"internalType":"uint256"}],"anonymous":false},{"type":"event","name":"Unbanned","inputs":[{"name":"moderator","type":"address","indexed":true,"internalType":"address"},{"name":"tokenId","type":"uint256","indexed":true,"internalType":"uint256"}],"anonymous":false},{"type":"event","name":"Unpaused","inputs":[{"name":"account","type":"address","indexed":false,"internalType":"address"}],"anonymous":false},{"type":"error","name":"AddressEmptyCode","inputs":[{"name":"target","type":"address","internalType":"address"}]},{"type":"error","name":"AddressInsufficientBalance","inputs":[{"name":"account","type":"address","internalType":"address"}]},{"type":"error","name":"ApprovalCallerNotOwnerNorApproved","inputs":[]},{"type":"error","name":"ApprovalQueryForNonexistentToken","inputs":[]},{"type":"error","name":"BalanceQueryForZeroAddress","inputs":[]},{"type":"error","name":"Banning__AlreadyBanned","inputs":[{"name":"tokenId","type":"uint256","internalType":"uint256"}]},{"type":"error","name":"Banning__CannotBanSelf","inputs":[]},{"type":"error","name":"Banning__InvalidTokenId","inputs":[{"name":"tokenId","type":"uint256","internalType":"uint256"}]},{"type":"error","name":"Banning__NotBanned","inputs":[{"name":"tokenId","type":"uint256","internalType":"uint256"}]},{"type":"error","name":"ERC5643__DurationZero","inputs":[]},{"type":"error","name":"ERC5643__InvalidTokenId","inputs":[{"name":"tokenId","type":"uint256","internalType":"uint256"}]},{"type":"error","name":"ERC5643__NotApprovedOrOwner","inputs":[]},{"type":"error","name":"ERC5643__SubscriptionNotRenewable","inputs":[{"name":"tokenId","type":"uint256","internalType":"uint256"}]},{"type":"error","name":"EntitlementGated_InvalidAddress","inputs":[]},{"type":"error","name":"EntitlementGated_NodeAlreadyVoted","inputs":[]},{"type":"error","name":"EntitlementGated_NodeNotFound","inputs":[]},{"type":"error","name":"EntitlementGated_TransactionAlreadyCompleted","inputs":[]},{"type":"error","name":"EntitlementGated_TransactionAlreadyRegistered","inputs":[]},{"type":"error","name":"EntitlementGated_TransactionNotRegistered","inputs":[]},{"type":"error","name":"Entitlement__InvalidValue","inputs":[]},{"type":"error","name":"Entitlement__NotAllowed","inputs":[]},{"type":"error","name":"Entitlement__NotMember","inputs":[]},{"type":"error","name":"Entitlement__ValueAlreadyExists","inputs":[]},{"type":"error","name":"FailedInnerCall","inputs":[]},{"type":"error","name":"Initializable_InInitializingState","inputs":[]},{"type":"error","name":"Initializable_NotInInitializingState","inputs":[]},{"type":"error","name":"Introspection_AlreadySupported","inputs":[]},{"type":"error","name":"Introspection_NotSupported","inputs":[]},{"type":"error","name":"Membership__AlreadyMember","inputs":[]},{"type":"error","name":"Membership__InsufficientAllowance","inputs":[]},{"type":"error","name":"Membership__InsufficientPayment","inputs":[]},{"type":"error","name":"Membership__InvalidAddress","inputs":[]},{"type":"error","name":"Membership__InvalidCurrency","inputs":[]},{"type":"error","name":"Membership__InvalidDuration","inputs":[]},{"type":"error","name":"Membership__InvalidFeeRecipient","inputs":[]},{"type":"error","name":"Membership__InvalidFreeAllocation","inputs":[]},{"type":"error","name":"Membership__InvalidLimit","inputs":[]},{"type":"error","name":"Membership__InvalidMaxSupply","inputs":[]},{"type":"error","name":"Membership__InvalidPrice","inputs":[]},{"type":"error","name":"Membership__InvalidPricingModule","inputs":[]},{"type":"error","name":"Membership__InvalidReferralBps","inputs":[]},{"type":"error","name":"Membership__InvalidReferralCode","inputs":[]},{"type":"error","name":"Membership__InvalidReferralTime","inputs":[]},{"type":"error","name":"Membership__InvalidTokenId","inputs":[]},{"type":"error","name":"Membership__MaxSupplyReached","inputs":[]},{"type":"error","name":"Membership__NotExpired","inputs":[]},{"type":"error","name":"Membership__PriceTooLow","inputs":[]},{"type":"error","name":"MintERC2309QuantityExceedsLimit","inputs":[]},{"type":"error","name":"MintToZeroAddress","inputs":[]},{"type":"error","name":"MintZeroQuantity","inputs":[]},{"type":"error","name":"Ownable__NotOwner","inputs":[{"name":"account","type":"address","internalType":"address"}]},{"type":"error","name":"Ownable__ZeroAddress","inputs":[]},{"type":"error","name":"OwnerQueryForNonexistentToken","inputs":[]},{"type":"error","name":"OwnershipNotInitializedForExtraData","inputs":[]},{"type":"error","name":"Pausable__NotPaused","inputs":[]},{"type":"error","name":"Pausable__Paused","inputs":[]},{"type":"error","name":"ReentrancyGuard__ReentrantCall","inputs":[]},{"type":"error","name":"Roles__EntitlementAlreadyExists","inputs":[]},{"type":"error","name":"Roles__EntitlementDoesNotExist","inputs":[]},{"type":"error","name":"Roles__InvalidEntitlementAddress","inputs":[]},{"type":"error","name":"Roles__InvalidPermission","inputs":[]},{"type":"error","name":"Roles__PermissionAlreadyExists","inputs":[]},{"type":"error","name":"Roles__PermissionDoesNotExist","inputs":[]},{"type":"error","name":"Roles__RoleDoesNotExist","inputs":[]},{"type":"error","name":"SafeERC20FailedOperation","inputs":[{"name":"token","type":"address","internalType":"address"}]},{"type":"error","name":"TransferCallerNotOwnerNorApproved","inputs":[]},{"type":"error","name":"TransferFromIncorrectOwner","inputs":[]},{"type":"error","name":"TransferToNonERC721ReceiverImplementer","inputs":[]},{"type":"error","name":"TransferToZeroAddress","inputs":[]},{"type":"error","name":"URIQueryForNonexistentToken","inputs":[]}],"bytecode":{"object":"0x60806040523480156200001157600080fd5b506200001c62000022565b620000ca565b7f59b501c3653afc186af7d48dda36cf6732bd21629a6295693664240a6ef520008054640100000000900460ff16156200006f576040516366008a2d60e01b815260040160405180910390fd5b805463ffffffff9081161015620000c757805463ffffffff191663ffffffff90811782556040519081527fe9c9b456cb2994b80aeef036cf59d26e9617df80f816a6ee5a5b4166e07e2f5c9060200160405180910390a15b50565b614c0d80620000da6000396000f3fe6080604052600436106102675760003560e01c806379dda58511610144578063ac7ee626116100b6578063c9f7c8331161007a578063c9f7c8331461069a578063d2f01f19146106ad578063df9a9fe6146106cd578063e847abdd146106ed578063e985e9c514610702578063f9d5d22c1461073257600080fd5b8063ac7ee6261461061d578063b3a5be6d14610632578063b6697f9314610647578063b88d4fde14610667578063c87b56dd1461067a57600080fd5b806389def3201161010857806389def320146105805780638c625b06146105a057806395d600c8146105b357806395d89b41146105c857806397fb7c1e146105dd578063a22cb465146105fd57600080fd5b806379dda585146104f65780637c9669ac1461050b5780638120f0ba1461051e57806383f3f0dc1461054b5780638934207f1461056b57600080fd5b80635803909f116101dd57806369d9346b116101a157806369d9346b146104575780637025156314610477578063706b8e091461048c57806370a08231146104a157806373fc5a05146104c157806377460cd3146104e157600080fd5b80635803909f146103c25780635becd24a146103e25780636352211e14610402578063657e45e81461042257806369d5f38a1461043757600080fd5b806318160ddd1161022f57806318160ddd1461032757806323b872dd1461033c5780633ded10de1461034f57806342842e0e1461036f5780634c2abfbe1461038257806351cff8d9146103a257600080fd5b806306fdde031461026c578063081812fc14610297578063095ea7b3146102cf5780631278076a146102e457806317c9570914610307575b600080fd5b34801561027857600080fd5b50610281610752565b60405161028e9190613d7a565b60405180910390f35b3480156102a357600080fd5b506102b76102b2366004613d8d565b6107ed565b6040516001600160a01b03909116815260200161028e565b6102e26102dd366004613dcb565b6107fe565b005b3480156102f057600080fd5b506102f961080e565b60405190815260200161028e565b34801561031357600080fd5b506102f9610322366004613d8d565b610820565b34801561033357600080fd5b506102f961083a565b6102e261034a366004613df7565b610844565b34801561035b57600080fd5b506102f961036a366004613d8d565b610a36565b6102e261037d366004613df7565b610bc5565b34801561038e57600080fd5b506102e261039d366004613fb2565b610be5565b3480156103ae57600080fd5b506102e26103bd3660046140bb565b610c5b565b3480156103ce57600080fd5b506102f96103dd366004613d8d565b610d02565b3480156103ee57600080fd5b506102e26103fd366004613d8d565b610d15565b34801561040e57600080fd5b506102b761041d366004613d8d565b610d9a565b34801561042e57600080fd5b506102b7610da5565b34801561044357600080fd5b506102e2610452366004613d8d565b610daf565b34801561046357600080fd5b506102e26104723660046140bb565b610e5d565b34801561048357600080fd5b506102b7610e8a565b34801561049857600080fd5b506102f9610ea6565b3480156104ad57600080fd5b506102f96104bc3660046140bb565b610eb0565b3480156104cd57600080fd5b506102e26104dc366004613d8d565b610ee3565b3480156104ed57600080fd5b506102b7610ef3565b34801561050257600080fd5b506102b7610f0f565b6102e2610519366004613d8d565b610f19565b34801561052a57600080fd5b5061053361102e565b6040516001600160401b03909116815260200161028e565b34801561055757600080fd5b506102e26105663660046140d8565b611038565b34801561057757600080fd5b506102f9611073565b34801561058c57600080fd5b506102e261059b366004613d8d565b611086565b6102e26105ae3660046140bb565b61111c565b3480156105bf57600080fd5b506102f96115a3565b3480156105d457600080fd5b506102816115ad565b3480156105e957600080fd5b506102e26105f8366004613d8d565b6115c5565b34801561060957600080fd5b506102e2610618366004614103565b61161a565b34801561062957600080fd5b506102b7611697565b34801561063e57600080fd5b506102f96116b3565b34801561065357600080fd5b506102f96106623660046140bb565b611755565b6102e261067536600461413c565b611760565b34801561068657600080fd5b50610281610695366004613d8d565b6117aa565b6102e26106a8366004613df7565b61183b565b3480156106b957600080fd5b506102e26106c83660046141bb565b611955565b3480156106d957600080fd5b506102e26106e83660046140bb565b6119a9565b3480156106f957600080fd5b506102b76119f6565b34801561070e57600080fd5b5061072261071d36600461421e565b611a00565b604051901515815260200161028e565b34801561073e57600080fd5b506102e261074d366004613d8d565b611a0c565b606061075c611a4f565b600201805461076a9061424c565b80601f01602080910402602001604051908101604052809291908181526020018280546107969061424c565b80156107e35780601f106107b8576101008083540402835291602001916107e3565b820191906000526020600020905b8154815290600101906020018083116107c657829003601f168201915b5050505050905090565b60006107f882611a73565b92915050565b61080a82826001611ac0565b5050565b600061081b61036a611b75565b905090565b600061082b82611b94565b6001600160401b031692915050565b600061081b611b75565b600061084f82611bce565b9050836001600160a01b0316816001600160a01b0316146108825760405162a1148160e81b815260040160405180910390fd5b60008061088e84611c69565b915091506108b3818761089e3390565b6001600160a01b039081169116811491141790565b6108de576108c18633611a00565b6108de57604051632ce44b5f60e11b815260040160405180910390fd5b6001600160a01b03851661090557604051633a954ecd60e21b815260040160405180910390fd5b6109128686866001611c91565b801561091d57600082555b610925611a4f565b6001600160a01b0387166000908152600591909101602052604090208054600019019055610951611a4f565b6001600160a01b03861660008181526005929092016020526040909120805460010190554260a01b17600160e11b17610988611a4f565b60008681526004919091016020526040812091909155600160e11b841690036109fe57600184016109b7611a4f565b6000828152600491909101602052604081205490036109fc576109d8611a4f565b5481146109fc57836109e8611a4f565b600083815260049190910160205260409020555b505b83856001600160a01b0316876001600160a01b0316600080516020614bed83398151915260405160405180910390a45b505050505050565b600080610a41611c9b565b90506000610a4d6116b3565b905083811115610a61575060009392505050565b6006820154604051639262b1b360e01b815230600482015285916001600160a01b031690639262b1b390602401602060405180830381865afa158015610aab573d6000803e3d6000fd5b505050506040513d601f19601f82011682018060405250810190610acf9190614280565b1115610adf575060009392505050565b60088201546001600160a01b031615610b70576008820154604051635cf4ee9160e01b815260048101839052602481018690526001600160a01b0390911690635cf4ee9190604401602060405180830381865afa158015610b44573d6000803e3d6000fd5b505050506040513d601f19601f82011682018060405250810190610b689190614280565b949350505050565b8160060160009054906101000a90046001600160a01b03166001600160a01b0316630eac306d6040518163ffffffff1660e01b8152600401602060405180830381865afa158015610b44573d6000803e3d6000fd5b610be083838360405180602001604052806000815250611760565b505050565b7f59b501c3653afc186af7d48dda36cf6732bd21629a6295693664240a6ef5200054640100000000900460ff16610c2f57604051630ef4733760e31b815260040160405180910390fd5b610c3f630318da4960e51b611cbf565b610c498282611d9d565b61080a82600001518360200151611ec0565b610c63611f34565b6001600160a01b0316336001600160a01b031614610c9b576040516365f4906560e01b81523360048201526024015b60405180910390fd5b6001600160a01b038116610cc257604051635fbd571760e01b815260040160405180910390fd5b6000610ccc611ff8565b905080600003610cef57604051635894b54560e11b815260040160405180910390fd5b61080a610cfa610e8a565b30848461200b565b60006107f882610d10611b75565b61205a565b610d1d611f34565b6001600160a01b0316336001600160a01b031614610d50576040516365f4906560e01b8152336004820152602401610c92565b6000610d5a611073565b90508015801590610d6a57508082115b15610d885760405163c3983b9160e01b815260040160405180910390fd5b610d91826120a0565b61080a82611a0c565b60006107f882611bce565b600061081b610e8a565b610db7611f34565b6001600160a01b0316336001600160a01b031614610dea576040516365f4906560e01b8152336004820152602401610c92565b610df381612145565b610dfb611697565b6001600160a01b03166391b7f5ed826040518263ffffffff1660e01b8152600401610e2891815260200190565b600060405180830381600087803b158015610e4257600080fd5b505af1158015610e56573d6000803e3d6000fd5b5050505050565b80610e66611c9b565b60080180546001600160a01b0319166001600160a01b039290921691909117905550565b6000610e94611c9b565b600401546001600160a01b0316919050565b600061081b6116b3565b600042610ec4610ebf846121d3565b611b94565b6001600160401b031611610eda57506000919050565b6107f8826121ff565b80610eec611c9b565b6003015550565b6000610efd611c9b565b600601546001600160a01b0316919050565b600061081b610ef3565b6002600080516020614bad8339815191525403610f4957604051635db5c7cd60e11b815260040160405180910390fd5b610f606002600080516020614bad83398151915255565b6000610f6b82610d9a565b90506001600160a01b038116610f9457604051635fbd571760e01b815260040160405180910390fd5b610f9d82612267565b610fba5760405163dce9a1d360e01b815260040160405180910390fd5b6000610fc883610d10611b75565b90508015611001576000610fdc838361229e565b90506000610fea82846142af565b90508015610ffe57610ffc84826123f7565b505b50505b6110128361100d6125d5565b61265b565b505061102b6001600080516020614bad83398151915255565b50565b600061081b6125d5565b611040611f34565b6001600160a01b0316336001600160a01b03161461102b576040516365f4906560e01b8152336004820152602401610c92565b600061107d611c9b565b60030154905090565b6002600080516020614bad83398151915254036110b657604051635db5c7cd60e11b815260040160405180910390fd5b6110cd6002600080516020614bad83398151915255565b6110d68161274d565b6110f3576040516367d9dca160e11b815260040160405180910390fd5b6110fc816127a3565b611105816127ae565b61102b6001600080516020614bad83398151915255565b6002600080516020614bad833981519152540361114c57604051635db5c7cd60e11b815260040160405180910390fd5b6111636002600080516020614bad83398151915255565b61116c81612821565b600033905060008061119e604051806040016040528060098152602001684a6f696e537061636560b81b8152506128b4565b905060005b815181101561156a5760008282815181106111c0576111c06142c2565b6020026020010151905080604001516115615760005b81608001515181101561155f576000826080015182815181106111fb576111fb6142c2565b60200260200101519050806001600160a01b0316632e1b61e46040518163ffffffff1660e01b8152600401602060405180830381865afa158015611243573d6000803e3d6000fd5b505050506040513d601f19601f8201168201806040525081019061126791906142d8565b61139d576040805160018082528183019092526000916020808301908036833701905050905087816000815181106112a1576112a16142c2565b60200260200101906001600160a01b031690816001600160a01b031681525050816001600160a01b0316630cf0b533600083604051806040016040528060098152602001684a6f696e537061636560b81b81525060405160200161130591906142f5565b60405160208183030381529060405261131d90614311565b6040518463ffffffff1660e01b815260040161133b9392919061437a565b602060405180830381865afa158015611358573d6000803e3d6000fd5b505050506040513d601f19601f8201168201806040525081019061137c91906142d8565b156113975761138a89612afe565b5050505050505050611105565b50611556565b825160405163069a3ee960e01b8152600481019190915281906000906001600160a01b0383169063069a3ee990602401600060405180830381865afa1580156113ea573d6000803e3d6000fd5b505050506040513d6000823e601f3d908101601f191682016040526114129190810190614544565b80515190915060011480156114565750600081518051600090611437576114376142c2565b602002602001015160000151600281111561145457611454614681565b145b61155357604051632e88a83960e11b81526000906001600160a01b03841690635d11507290611489908590600401614767565b600060405180830381865afa1580156114a6573d6000803e3d6000fd5b505050506040513d6000823e601f3d908101601f191682016040526114ce9190810190614800565b6040516bffffffffffffffffffffffff193260601b16602082015243603482015290915060009060540160405160208183030381529060405280519060200120905061151a8183612bac565b6000611524611c9b565b6000928352600b01602052506040902080546001600160a01b0319166001600160a01b038d1617905550600197505b50505b506001016111d6565b505b506001016111a3565b508161158957604051630ce39a4b60e21b815260040160405180910390fd5b50505061102b6001600080516020614bad83398151915255565b600061081b611073565b60606115b7611a4f565b600301805461076a9061424c565b6115cd611f34565b6001600160a01b0316336001600160a01b031614611600576040516365f4906560e01b8152336004820152602401610c92565b6116118161160c611b75565b612e12565b61102b81610ee3565b80611623611a4f565b336000818152600792909201602090815260408084206001600160a01b03881680865290835293819020805460ff19169515159590951790945592518415158152919290917f17307eab39ab6107e8899845ad3d59bd9653f200f220920489ca2b5937696c31910160405180910390a35050565b60006116a1611c9b565b600801546001600160a01b0316919050565b6000806116be611c9b565b60070154905080156116cf57919050565b6116d7611c9b565b60060160009054906101000a90046001600160a01b03166001600160a01b0316632cbb9d136040518163ffffffff1660e01b8152600401602060405180830381865afa15801561172b573d6000803e3d6000fd5b505050506040513d601f19601f8201168201806040525081019061174f9190614280565b91505090565b60006107f8826121d3565b61176b848484610844565b6001600160a01b0383163b156117a45761178784848484612e33565b6117a4576040516368d2bf6b60e11b815260040160405180910390fd5b50505050565b60606117b582612f1e565b6117d257604051630a14c4b560e41b815260040160405180910390fd5b60006117e960408051602081019091526000815290565b905080516000036118095760405180602001604052806000815250611834565b8061181384612f5a565b604051602001611824929190614876565b6040516020818303038152906040525b9392505050565b6002600080516020614bad833981519152540361186b57604051635db5c7cd60e11b815260040160405180910390fd5b6118826002600080516020614bad83398151915255565b61188b83612821565b6000611895612f9e565b905060006118a461036a611b75565b90508015611925576118b68282612fae565b60006118c2868361229e565b905060006118d082846142af565b905060006118dc610e8a565b905081156119215760006118f08388612fce565b90506118fe828a8a8461200b565b600061190a82856142af565b9050801561191e5761191c8a826123f7565b505b50505b5050505b611930856001613081565b61193c8261100d6125d5565b5050610be06001600080516020614bad83398151915255565b7f59b501c3653afc186af7d48dda36cf6732bd21629a6295693664240a6ef5200054640100000000900460ff1661199f57604051630ef4733760e31b815260040160405180910390fd5b61080a8282611ec0565b6119b1611f34565b6001600160a01b0316336001600160a01b0316146119e4576040516365f4906560e01b8152336004820152602401610c92565b6119ed8161309b565b61102b81610e5d565b600061081b611697565b60006118348383613153565b6000611a16611c9b565b6007810183905560405190915082907fab14a23e88fb272313490d4f20d63098e64fd38304c0e07a377db98c2b39b92f90600090a25050565b7f6569bde4a160c636ea8b8d11acb83a60d7fec0b8f2e09389306cba0e1340df0090565b6000611a7e82612f1e565b611a9b576040516333d1c03960e21b815260040160405180910390fd5b611aa3611a4f565b60009283526006016020525060409020546001600160a01b031690565b6000611acb83610d9a565b90508115611b0a57336001600160a01b03821614611b0a57611aed8133613153565b611b0a576040516367d9dca160e11b815260040160405180910390fd5b83611b13611a4f565b6000858152600691909101602052604080822080546001600160a01b0319166001600160a01b0394851617905551859287811692908516917f8c5be1e5ebec7d5bd14f71427d1e84f3dd0314c0f7b2291e5b200ac8c7c3b9259190a450505050565b600080611b80611a4f565b60010154611b8c611a4f565b540303919050565b60009081527f4775a23600034fdd9f073b224f794d51a58b35ba663a9602623ba7a5c09cce0060205260409020546001600160401b031690565b600080611bd9611a4f565b60008481526004820160205260408120549350909150600160e01b83169003611c4f5781600003611c495780548310611c2557604051636f96cda160e11b815260040160405180910390fd5b5b600019909201600081815260048401602052604090205490929091508115611c26575b50919050565b50604051636f96cda160e11b815260040160405180910390fd5b6000806000611c76611a4f565b60009485526006016020525050604090912080549092909150565b6117a48284613190565b7fc21004fcc619240a31f006438274d15cd813308303284436eef6055f0fdcb60090565b6001600160e01b0319811660009081527f81088bbc801e045ea3e7620779ab349988f58afbdfba10dff983df3f33522b00602052604090205460ff161515600114611d4c576001600160e01b0319811660009081527f81088bbc801e045ea3e7620779ab349988f58afbdfba10dff983df3f33522b0060205260409020805460ff19166001179055611d65565b604051637967f77d60e11b815260040160405180910390fd5b6040516001600160e01b03198216907f78f84e5b1c5c05be2b5ad3800781dd404d6d6c6302bc755c0fe20f58a33a7f2290600090a250565b6000611da7611c9b565b6006810180546001600160a01b038086166001600160a01b031992831617909255610100860151600884018054919093169082161790915560048201805490911673eeeeeeeeeeeeeeeeeeeeeeeeeeeeeeeeeeeeeeee1790556060840151600382015560e08401516007820181905590915015611e2b57611e2b8360e001516120a0565b611e3983610100015161309b565b604083015115610be057611e508360400151612145565b600881015460408085015190516391b7f5ed60e01b81526001600160a01b03909216916391b7f5ed91611e899160040190815260200190565b600060405180830381600087803b158015611ea357600080fd5b505af1158015611eb7573d6000803e3d6000fd5b50505050505050565b7f59b501c3653afc186af7d48dda36cf6732bd21629a6295693664240a6ef5200054640100000000900460ff16611f0a57604051630ef4733760e31b815260040160405180910390fd5b611f1a6380ac58cd60e01b611cbf565b611f2a635b5e139f60e01b611cbf565b61080a82826131ba565b6040805180820182527fd2f24d4f172e4e84e48e7c4125b6e904c29e5eba33ad4938fee51dd5dbd4b600546001600160a01b03168082527fd2f24d4f172e4e84e48e7c4125b6e904c29e5eba33ad4938fee51dd5dbd4b60154602080840182905284516331a9108f60e11b815260048101929092529351600094636352211e92602480820193918290030181865afa158015611fd4573d6000803e3d6000fd5b505050506040513d601f19601f8201168201806040525081019061174f91906148a5565b6000612002611c9b565b600a0154905090565b816001600160a01b03167f6a88f9e03ef4a1786c4d5b1eb17d944dbdecbd661e86a6b18dfa7aaa28f172be8260405161204691815260200190565b60405180910390a26117a4848484846131ec565b600080612065611c9b565b6000858152600982016020526040902054909150156120975760008481526009909101602052604090205490506107f8565b610b6883610a36565b60006120aa611c9b565b90508060060160009054906101000a90046001600160a01b03166001600160a01b0316632cbb9d136040518163ffffffff1660e01b8152600401602060405180830381865afa158015612101573d6000803e3d6000fd5b505050506040513d601f19601f820116820180604052508101906121259190614280565b82111561080a5760405163c3983b9160e01b815260040160405180910390fd5b600061214f610ef3565b6001600160a01b0316630eac306d6040518163ffffffff1660e01b8152600401602060405180830381865afa15801561218c573d6000803e3d6000fd5b505050506040513d601f19601f820116820180604052508101906121b09190614280565b90508082101561080a57604051631a23d64760e11b815260040160405180910390fd5b60006121dd611c9b565b6001600160a01b03909216600090815260019290920160205250604090205490565b60006001600160a01b038216612228576040516323d3ad8160e21b815260040160405180910390fd5b6001600160401b03612238611a4f565b6005016000846001600160a01b03166001600160a01b0316815260200190815260200160002054169050919050565b6000426122726125d5565b6001600160401b031661228591906148c2565b61228e83611b94565b6001600160401b03161092915050565b6000806122a9611c9b565b600681015460048201549192506001600160a01b03908116911673eeeeeeeeeeeeeeeeeeeeeeeeeeeeeeeeeeeeeeee811480156122e65750843414155b1561230457604051635894b54560e11b815260040160405180910390fd5b6000826001600160a01b0316634ccb20c06040518163ffffffff1660e01b8152600401602060405180830381865afa158015612344573d6000803e3d6000fd5b505050506040513d601f19601f8201168201806040525081019061236891906148a5565b90506000836001600160a01b0316639f6542aa6040518163ffffffff1660e01b8152600401602060405180830381865afa1580156123aa573d6000803e3d6000fd5b505050506040513d601f19601f820116820180604052508101906123ce91906148d5565b90506123de878261ffff16613232565b95506123ec838984896131ec565b505050505092915050565b600080612402611c9b565b9050600061240e610e8a565b905073eeeeeeeeeeeeeeeeeeeeeeeeeeeeeeeeeeeeeeed196001600160a01b0382160161247a573460000361245657604051635894b54560e11b815260040160405180910390fd5b8382600a01600082825461246a91906148c2565b909155508493506107f892505050565b341561249957604051636da3122b60e01b815260040160405180910390fd5b6040516370a0823160e01b815230600482015281906000906001600160a01b038316906370a0823190602401602060405180830381865afa1580156124e2573d6000803e3d6000fd5b505050506040513d601f19601f820116820180604052508101906125069190614280565b9050612514838830896131ec565b6040516370a0823160e01b81523060048201526000906001600160a01b038416906370a0823190602401602060405180830381865afa15801561255b573d6000803e3d6000fd5b505050506040513d601f19601f8201168201806040525081019061257f9190614280565b9050600061258d83836142af565b90508781146125af57604051635894b54560e11b815260040160405180910390fd5b8086600a0160008282546125c391906148c2565b90915550909998505050505050505050565b6000806125e0611c9b565b90508060060160009054906101000a90046001600160a01b03166001600160a01b0316638120f0ba6040518163ffffffff1660e01b8152600401602060405180830381865afa158015612637573d6000803e3d6000fd5b505050506040513d601f19601f8201168201806040525081019061174f91906148f9565b60008281527f4775a23600034fdd9f073b224f794d51a58b35ba663a9602623ba7a5c09cce006020819052604082205490916001600160401b03909116908181036126b1576126aa8442614916565b90506126e7565b6126ba85612267565b6126da57604051637be9098d60e11b815260048101869052602401610c92565b6126e48483614916565b90505b60008581526020848152604091829020805467ffffffffffffffff19166001600160401b038516908117909155915191825286917f2ec2be2c4b90c2cf13ecb6751a24daed6bb741ae5ed3f7371aabf9402f6d62e8910160405180910390a25050505050565b60008061275983610d9a565b9050336001600160a01b03821681148061277857506127788282613153565b80610b685750806001600160a01b031661279185611a73565b6001600160a01b031614949350505050565b61102b8160006132a7565b7f4775a23600034fdd9f073b224f794d51a58b35ba663a9602623ba7a5c09cce00600082815260209182526040808220805467ffffffffffffffff191690555190815282917f2ec2be2c4b90c2cf13ecb6751a24daed6bb741ae5ed3f7371aabf9402f6d62e8910160405180910390a250565b6001600160a01b03811661284857604051635fbd571760e01b815260040160405180910390fd5b6000612853826121ff565b1115612872576040516316d9a23f60e31b815260040160405180910390fd5b61287a611073565b15801590612896575061288b611073565b612893611b75565b10155b1561102b57604051637efcdb4960e01b815260040160405180910390fd5b606060006128c06133f6565b80519091506000816001600160401b038111156128df576128df613e38565b604051908082528060200260200182016040528015612908578160200160208202803683370190505b5085516020870120909150600090815b848110156129d7576000612944878381518110612937576129376142c2565b6020026020010151613421565b509250505060005b81518110156129cd5783828281518110612968576129686142c2565b602002602001015180519060200120036129c55787838151811061298e5761298e6142c2565b60200260200101518686815181106129a8576129a86142c2565b6020908102919091010152846129bd81614936565b9550506129cd565b60010161294c565b5050600101612918565b506000826001600160401b038111156129f2576129f2613e38565b604051908082528060200260200182016040528015612a5757816020015b612a446040518060a00160405280600081526020016060815260200160001515815260200160608152602001606081525090565b815260200190600190039081612a105790505b50905060005b83811015612af2576000858281518110612a7957612a796142c2565b60200260200101519050600080600080612a9285613421565b93509350935093506040518060a00160405280868152602001858152602001841515815260200183815260200182815250878781518110612ad557612ad56142c2565b602002602001018190525050505050508080600101915050612a5d565b50979650505050505050565b6000612b0b61036a611b75565b90506000612b17612f9e565b90508115612b5a57612b298183612fae565b6000612b35848461229e565b90506000612b4382856142af565b90508015612b5757612b5585826123f7565b505b50505b612b65836001613081565b612b718161100d6125d5565b60405181906001600160a01b038516907f2f40b0474996b72a4251e00fb9170cdd960deea1dc749772cbbab61395b9b57690600090a3505050565b60008281527f9075c515a635ba70c9696f31149324218d75cf00afe836c482e6473f38b19e016020526040902080547f9075c515a635ba70c9696f31149324218d75cf00afe836c482e6473f38b19e00919060ff161515600103612c235760405163bf2a062560e01b815260040160405180910390fd5b81546001600160a01b0316612c3a57612c3a61354c565b8154604051634f84544560e01b8152600560048201526000916001600160a01b031690634f84544590602401600060405180830381865afa158015612c83573d6000803e3d6000fd5b505050506040513d6000823e601f3d908101601f19168201604052612cab919081019061494f565b825433610100026001600160a81b03199091161760011761ffff60a81b19168355905060028201612cdc8582614a30565b5060005b8151811015612da557826001016040518060400160405280848481518110612d0a57612d0a6142c2565b60200260200101516001600160a01b0316815260200160006002811115612d3357612d33614681565b9052815460018101835560009283526020928390208251910180546001600160a01b031981166001600160a01b03909316928317825593830151929390929183916001600160a81b03191617600160a01b836002811115612d9657612d96614681565b02179055505050600101612ce0565b508254604051636ef10e6960e11b81526001600160a01b039091169063dde21cd290612dd990339089908690600401614aef565b600060405180830381600087803b158015612df357600080fd5b505af1158015612e07573d6000803e3d6000fd5b505050505050505050565b8082101561080a57604051636664d51760e11b815260040160405180910390fd5b604051630a85bd0160e11b81526000906001600160a01b0385169063150b7a0290612e68903390899088908890600401614b16565b6020604051808303816000875af1925050508015612ea3575060408051601f3d908101601f19168201909252612ea091810190614b49565b60015b612f01573d808015612ed1576040519150601f19603f3d011682016040523d82523d6000602084013e612ed6565b606091505b508051600003612ef9576040516368d2bf6b60e11b815260040160405180910390fd5b805181602001fd5b6001600160e01b031916630a85bd0160e11b149050949350505050565b6000612f28611a4f565b54821080156107f85750600160e01b612f3f611a4f565b60008481526004919091016020526040902054161592915050565b606060a06040510180604052602081039150506000815280825b600183039250600a81066030018353600a900480612f745750819003601f19909101908152919050565b6000612fa8611a4f565b54919050565b80612fb7611c9b565b600093845260090160205260409092209190915550565b60008181527f3c2290b88407133303e904ceb4ee7d0d14164eda8a629372d8406216ceb57e006020819052604082205461ffff16808303613014576000925050506107f8565b600084815260018084016020908152604092839020835180850190945280548085529201549083015215801590613058575080514210806130585750806020015142115b1561306957600093505050506107f8565b613077868361ffff16613232565b9695505050505050565b61080a828260405180602001604052806000815250613612565b6001600160a01b0381166130c257604051630e88bf4b60e01b815260040160405180910390fd5b6130ca610ef3565b6040516346fc05eb60e11b81526001600160a01b0383811660048301529190911690638df80bd690602401602060405180830381865afa158015613112573d6000803e3d6000fd5b505050506040513d601f19601f8201168201806040525081019061313691906142d8565b61102b57604051630e88bf4b60e01b815260040160405180910390fd5b600061315d611a4f565b6001600160a01b039384166000908152600791909101602090815260408083209490951682529290925250205460ff1690565b600061319a611c9b565b6001600160a01b0390921660009081526001909201602052506040902055565b60006131c4611a4f565b9050600281016131d48482614a30565b50600381016131e38382614a30565b50600090555050565b80156117a45773eeeeeeeeeeeeeeeeeeeeeeeeeeeeeeeeeeeeeeed196001600160a01b03851601613226576132218282613688565b6117a4565b6117a48484848461372b565b60006127108211156132905760405162461bcd60e51b815260206004820152602160248201527f426173697320706f696e74732063616e6e6f74206578636565642031305f30306044820152600360fc1b6064820152608401610c92565b61271061329d8385614b73565b6118349190614b8a565b60006132b283611bce565b9050806000806132c186611c69565b915091508415613301576132d681843361089e565b613301576132e48333613153565b61330157604051632ce44b5f60e11b815260040160405180910390fd5b61330f836000886001611c91565b801561331a57600082555b6000613324611a4f565b6001600160a01b0385166000818152600583016020526040902080546fffffffffffffffffffffffffffffffff0190559091504260a01b17600360e01b176000888152600483016020526040812091909155600160e11b861690036133bc5760018701600081815260048301602052604081205490036133ba57815481146133ba57600081815260048301602052604090208690555b505b60405187906000906001600160a01b03871690600080516020614bed833981519152908390a4600190810180549091019055505050505050565b606061081b7f672ef851d5f92307da037116e23aa9e31af7e1f7e3ca62c4e6d540631df3fd0161377e565b6000818152600080516020614bcd8339815191526020526040812080546060929183918291906134509061424c565b80601f016020809104026020016040519081016040528092919081815260200182805461347c9061424c565b80156134c95780601f1061349e576101008083540402835291602001916134c9565b820191906000526020600020905b8154815290600101906020018083116134ac57829003601f168201915b505050505093506134f77f672ef851d5f92307da037116e23aa9e31af7e1f7e3ca62c4e6d540631df3fd0090565b60008681526003919091016020908152604080832060010154600080516020614bcd83398151915290925290912060ff90911693506135389060020161378b565b915061354385613796565b90509193509193565b7f9075c515a635ba70c9696f31149324218d75cf00afe836c482e6473f38b19e006000613577611c9b565b60060154604051628956cd60e71b81526c29b830b1b2a7b832b930ba37b960991b60048201526001600160a01b03909116906344ab668090602401602060405180830381865afa1580156135cf573d6000803e3d6000fd5b505050506040513d601f19601f820116820180604052508101906135f391906148a5565b82546001600160a01b0319166001600160a01b03919091161790915550565b61361c838361389a565b6001600160a01b0383163b15610be0576000613636611a4f565b5490508281035b6136506000868380600101945086612e33565b61366d576040516368d2bf6b60e11b815260040160405180910390fd5b81811061363d578161367d611a4f565b5414610e5657600080fd5b6000826001600160a01b03168260405160006040518083038185875af1925050503d80600081146136d5576040519150601f19603f3d011682016040523d82523d6000602084013e6136da565b606091505b5050905080610be05760405162461bcd60e51b815260206004820152601c60248201527f6e617469766520746f6b656e207472616e73666572206661696c6564000000006044820152606401610c92565b816001600160a01b0316836001600160a01b031603156117a457306001600160a01b03841603613769576132216001600160a01b03851683836139be565b6117a46001600160a01b038516848484613a1d565b6060600061183483613a56565b60606107f882613ab2565b6000818152600080516020614bcd83398151915260205260408120606091906137c190600401613b8f565b6001600160401b038111156137d8576137d8613e38565b604051908082528060200260200182016040528015613801578160200160208202803683370190505b50905060005b6000848152600080516020614bcd8339815191526020526040902061382e90600401613b8f565b811015613893576000848152600080516020614bcd8339815191526020526040812061385d9060040183613b99565b905080838381518110613872576138726142c2565b6001600160a01b039092166020928302919091019091015250600101613807565b5092915050565b60006138a4611a4f565b54905060008290036138c95760405163b562e8dd60e01b815260040160405180910390fd5b6138d66000848385611c91565b6801000000000000000182026138ea611a4f565b6001600160a01b038516600081815260059290920160205260409091208054929092019091554260a01b6001841460e11b1717613925611a4f565b600083815260049190910160205260408120919091556001600160a01b038416908383019083908390600080516020614bed8339815191528180a4600183015b81811461398b5780836000600080516020614bed833981519152600080a4600101613965565b50816000036139ac57604051622e076360e81b815260040160405180910390fd5b806139b5611a4f565b5550610be09050565b6040516001600160a01b03838116602483015260448201839052610be091859182169063a9059cbb906064015b604051602081830303815290604052915060e01b6020820180516001600160e01b038381831617835250505050613ba5565b6040516001600160a01b0384811660248301528381166044830152606482018390526117a49186918216906323b872dd906084016139eb565b606081600001805480602002602001604051908101604052809291908181526020018280548015613aa657602002820191906000526020600020905b815481526020019060010190808311613a92575b50505050509050919050565b606081600001805480602002602001604051908101604052809291908181526020016000905b82821015613b84578382906000526020600020018054613af79061424c565b80601f0160208091040260200160405190810160405280929190818152602001828054613b239061424c565b8015613b705780601f10613b4557610100808354040283529160200191613b70565b820191906000526020600020905b815481529060010190602001808311613b5357829003601f168201915b505050505081526020019060010190613ad8565b505050509050919050565b60006107f8825490565b60006118348383613c08565b6000613bba6001600160a01b03841683613c32565b90508051600014158015613bdf575080806020019051810190613bdd91906142d8565b155b15610be057604051635274afe760e01b81526001600160a01b0384166004820152602401610c92565b6000826000018281548110613c1f57613c1f6142c2565b9060005260206000200154905092915050565b60606118348383600084600080856001600160a01b03168486604051613c5891906142f5565b60006040518083038185875af1925050503d8060008114613c95576040519150601f19603f3d011682016040523d82523d6000602084013e613c9a565b606091505b5091509150613077868383606082613cba57613cb582613d01565b611834565b8151158015613cd157506001600160a01b0384163b155b15613cfa57604051639996b31560e01b81526001600160a01b0385166004820152602401610c92565b5080611834565b805115613d115780518082602001fd5b604051630a12f52160e11b815260040160405180910390fd5b60005b83811015613d45578181015183820152602001613d2d565b50506000910152565b60008151808452613d66816020860160208601613d2a565b601f01601f19169290920160200192915050565b6020815260006118346020830184613d4e565b600060208284031215613d9f57600080fd5b5035919050565b6001600160a01b038116811461102b57600080fd5b8035613dc681613da6565b919050565b60008060408385031215613dde57600080fd5b8235613de981613da6565b946020939093013593505050565b600080600060608486031215613e0c57600080fd5b8335613e1781613da6565b92506020840135613e2781613da6565b929592945050506040919091013590565b634e487b7160e01b600052604160045260246000fd5b60405161012081016001600160401b0381118282101715613e7157613e71613e38565b60405290565b604051608081016001600160401b0381118282101715613e7157613e71613e38565b604051606081016001600160401b0381118282101715613e7157613e71613e38565b604080519081016001600160401b0381118282101715613e7157613e71613e38565b604051601f8201601f191681016001600160401b0381118282101715613f0557613f05613e38565b604052919050565b60006001600160401b03821115613f2657613f26613e38565b50601f01601f191660200190565b6000613f47613f4284613f0d565b613edd565b9050828152838383011115613f5b57600080fd5b828260208301376000602084830101529392505050565b600082601f830112613f8357600080fd5b61183483833560208501613f34565b6001600160401b038116811461102b57600080fd5b8035613dc681613f92565b60008060408385031215613fc557600080fd5b82356001600160401b0380821115613fdc57600080fd5b908401906101208287031215613ff157600080fd5b613ff9613e4e565b82358281111561400857600080fd5b61401488828601613f72565b82525060208301358281111561402957600080fd5b61403588828601613f72565b602083015250604083013560408201526060830135606082015261405b60808401613fa7565b608082015261406c60a08401613dbb565b60a082015261407d60c08401613dbb565b60c082015260e083013560e0820152610100915061409c828401613dbb565b828201528094505050506140b260208401613dbb565b90509250929050565b6000602082840312156140cd57600080fd5b813561183481613da6565b6000602082840312156140ea57600080fd5b813561183481613f92565b801515811461102b57600080fd5b6000806040838503121561411657600080fd5b823561412181613da6565b91506020830135614131816140f5565b809150509250929050565b6000806000806080858703121561415257600080fd5b843561415d81613da6565b9350602085013561416d81613da6565b92506040850135915060608501356001600160401b0381111561418f57600080fd5b8501601f810187136141a057600080fd5b6141af87823560208401613f34565b91505092959194509250565b600080604083850312156141ce57600080fd5b82356001600160401b03808211156141e557600080fd5b6141f186838701613f72565b9350602085013591508082111561420757600080fd5b5061421485828601613f72565b9150509250929050565b6000806040838503121561423157600080fd5b823561423c81613da6565b9150602083013561413181613da6565b600181811c9082168061426057607f821691505b602082108103611c4957634e487b7160e01b600052602260045260246000fd5b60006020828403121561429257600080fd5b5051919050565b634e487b7160e01b600052601160045260246000fd5b818103818111156107f8576107f8614299565b634e487b7160e01b600052603260045260246000fd5b6000602082840312156142ea57600080fd5b8151611834816140f5565b60008251614307818460208701613d2a565b9190910192915050565b80516020808301519190811015611c495760001960209190910360031b1b16919050565b60008151808452602080850194506020840160005b8381101561436f5781516001600160a01b03168752958201959082019060010161434a565b509495945050505050565b8381526060602082015260006143936060830185614335565b9050826040830152949350505050565b60006001600160401b038211156143bc576143bc613e38565b5060051b60200190565b6003811061102b57600080fd5b805160ff81168114613dc657600080fd5b600082601f8301126143f557600080fd5b81516020614405613f42836143a3565b82815260079290921b8401810191818101908684111561442457600080fd5b8286015b8481101561448e57608081890312156144415760008081fd5b614449613e77565b8151600681106144595760008081fd5b8152818501518582015260408083015161447281613da6565b9082015260608281015190820152835291830191608001614428565b509695505050505050565b600082601f8301126144aa57600080fd5b815160206144ba613f42836143a3565b828152606092830285018201928282019190878511156144d957600080fd5b8387015b858110156145375781818a0312156144f55760008081fd5b6144fd613e99565b8151614508816143c6565b81526145158287016143d3565b8682015260406145268184016143d3565b9082015284529284019281016144dd565b5090979650505050505050565b6000602080838503121561455757600080fd5b82516001600160401b038082111561456e57600080fd5b908401906060828703121561458257600080fd5b61458a613e99565b82518281111561459957600080fd5b8301601f810188136145aa57600080fd5b80516145b8613f42826143a3565b81815260069190911b8201860190868101908a8311156145d757600080fd5b928701925b8284101561462b576040848c0312156145f55760008081fd5b6145fd613ebb565b8451614608816143c6565b8152614615858a016143d3565b818a0152825260409390930192908701906145dc565b8452505050828401518281111561464157600080fd5b61464d888286016143e4565b8583015250604083015193508184111561466657600080fd5b61467287858501614499565b60408201529695505050505050565b634e487b7160e01b600052602160045260246000fd5b6003811061102b5761102b614681565b60008151808452602080850194506020840160005b8381101561436f5781518051600681106146d8576146d8614681565b885280840151848901526040808201516001600160a01b03169089015260609081015190880152608090960195908201906001016146bc565b60008151808452602080850194506020840160005b8381101561436f578151805161473b81614697565b88528084015160ff908116858a0152604091820151169088015260609096019590820190600101614726565b6020808252825160608383015280516080840181905260009291820190839060a08601905b808310156147c357835180516147a181614697565b835285015160ff1685830152928401926001929092019160409091019061478c565b50838701519350601f199250828682030160408701526147e381856146a7565b935050506040850151818584030160608601526130778382614711565b60006020828403121561481257600080fd5b81516001600160401b0381111561482857600080fd5b8201601f8101841361483957600080fd5b8051614847613f4282613f0d565b81815285602083850101111561485c57600080fd5b61486d826020830160208601613d2a565b95945050505050565b60008351614888818460208801613d2a565b83519083019061489c818360208801613d2a565b01949350505050565b6000602082840312156148b757600080fd5b815161183481613da6565b808201808211156107f8576107f8614299565b6000602082840312156148e757600080fd5b815161ffff8116811461183457600080fd5b60006020828403121561490b57600080fd5b815161183481613f92565b6001600160401b0381811683821601908082111561389357613893614299565b60006001820161494857614948614299565b5060010190565b6000602080838503121561496257600080fd5b82516001600160401b0381111561497857600080fd5b8301601f8101851361498957600080fd5b8051614997613f42826143a3565b81815260059190911b820183019083810190878311156149b657600080fd5b928401925b828410156149dd5783516149ce81613da6565b825292840192908401906149bb565b979650505050505050565b601f821115610be0576000816000526020600020601f850160051c81016020861015614a115750805b601f850160051c820191505b81811015610a2e57828155600101614a1d565b81516001600160401b03811115614a4957614a49613e38565b614a5d81614a57845461424c565b846149e8565b602080601f831160018114614a925760008415614a7a5750858301515b600019600386901b1c1916600185901b178555610a2e565b600085815260208120601f198616915b82811015614ac157888601518255948401946001909101908401614aa2565b5085821015614adf5787850151600019600388901b60f8161c191681555b5050505050600190811b01905550565b60018060a01b038416815282602082015260606040820152600061486d6060830184614335565b6001600160a01b038581168252841660208201526040810183905260806060820181905260009061307790830184613d4e565b600060208284031215614b5b57600080fd5b81516001600160e01b03198116811461183457600080fd5b80820281158282048414176107f8576107f8614299565b600082614ba757634e487b7160e01b600052601260045260246000fd5b50049056fe54f22f54f370bd020e00ee80e1a5099a71652e2ccbcf6a75281e4c70a3e11a00672ef851d5f92307da037116e23aa9e31af7e1f7e3ca62c4e6d540631df3fd03ddf252ad1be2c89b69c2b068fc378daa952ba7f163c4a11628f55a4df523b3ef","linkReferences":{}},"methodIdentifiers":{"__ERC721A_init(string,string)":"d2f01f19","__Membership_init((string,string,uint256,uint256,uint64,address,address,uint256,address),address)":"4c2abfbe","_getMembershipCurrency()":"70251563","_getMembershipFreeAllocation()":"b3a5be6d","_getMembershipPrice(uint256)":"3ded10de","_getMembershipSupplyLimit()":"8934207f","_getPricingModule()":"ac7ee626","_getSpaceFactory()":"77460cd3","_setMembershipFreeAllocation(uint256)":"f9d5d22c","_setMembershipSupplyLimit(uint256)":"73fc5a05","_setPricingModule(address)":"69d9346b","approve(address,uint256)":"095ea7b3","balanceOf(address)":"70a08231","cancelMembership(uint256)":"89def320","expiresAt(uint256)":"17c95709","getApproved(uint256)":"081812fc","getMembershipCurrency()":"657e45e8","getMembershipDuration()":"8120f0ba","getMembershipFreeAllocation()":"706b8e09","getMembershipLimit()":"95d600c8","getMembershipPrice()":"1278076a","getMembershipPricingModule()":"e847abdd","getMembershipRenewalPrice(uint256)":"5803909f","getSpaceFactory()":"79dda585","getTokenIdByMembership(address)":"b6697f93","isApprovedForAll(address,address)":"e985e9c5","joinSpace(address)":"8c625b06","joinSpaceWithReferral(address,address,uint256)":"c9f7c833","name()":"06fdde03","ownerOf(uint256)":"6352211e","renewMembership(uint256)":"7c9669ac","safeTransferFrom(address,address,uint256)":"42842e0e","safeTransferFrom(address,address,uint256,bytes)":"b88d4fde","setApprovalForAll(address,bool)":"a22cb465","setMembershipDuration(uint64)":"83f3f0dc","setMembershipFreeAllocation(uint256)":"5becd24a","setMembershipLimit(uint256)":"97fb7c1e","setMembershipPrice(uint256)":"69d5f38a","setMembershipPricingModule(address)":"df9a9fe6","symbol()":"95d89b41","tokenURI(uint256)":"c87b56dd","totalSupply()":"18160ddd","transferFrom(address,address,uint256)":"23b872dd","withdraw(address)":"51cff8d9"},"id":213}