{"abi":[{"type":"function","name":"__ERC721A_init","inputs":[{"name":"name_","type":"string","internalType":"string"},{"name":"symbol_","type":"string","internalType":"string"}],"outputs":[],"stateMutability":"nonpayable"},{"type":"function","name":"__Membership_init","inputs":[{"name":"info","type":"tuple","internalType":"struct IMembershipBase.Membership","components":[{"name":"name","type":"string","internalType":"string"},{"name":"symbol","type":"string","internalType":"string"},{"name":"price","type":"uint256","internalType":"uint256"},{"name":"maxSupply","type":"uint256","internalType":"uint256"},{"name":"duration","type":"uint64","internalType":"uint64"},{"name":"currency","type":"address","internalType":"address"},{"name":"feeRecipient","type":"address","internalType":"address"},{"name":"freeAllocation","type":"uint256","internalType":"uint256"},{"name":"pricingModule","type":"address","internalType":"address"}]},{"name":"spaceFactory","type":"address","internalType":"address"}],"outputs":[],"stateMutability":"nonpayable"},{"type":"function","name":"_getMembershipCurrency","inputs":[],"outputs":[{"name":"","type":"address","internalType":"address"}],"stateMutability":"view"},{"type":"function","name":"_getMembershipFreeAllocation","inputs":[],"outputs":[{"name":"","type":"uint256","internalType":"uint256"}],"stateMutability":"view"},{"type":"function","name":"_getMembershipPrice","inputs":[{"name":"totalSupply","type":"uint256","internalType":"uint256"}],"outputs":[{"name":"","type":"uint256","internalType":"uint256"}],"stateMutability":"view"},{"type":"function","name":"_getMembershipSupplyLimit","inputs":[],"outputs":[{"name":"","type":"uint256","internalType":"uint256"}],"stateMutability":"view"},{"type":"function","name":"_getPricingModule","inputs":[],"outputs":[{"name":"","type":"address","internalType":"address"}],"stateMutability":"view"},{"type":"function","name":"_getSpaceFactory","inputs":[],"outputs":[{"name":"","type":"address","internalType":"address"}],"stateMutability":"view"},{"type":"function","name":"_setMembershipFreeAllocation","inputs":[{"name":"newAllocation","type":"uint256","internalType":"uint256"}],"outputs":[],"stateMutability":"nonpayable"},{"type":"function","name":"_setMembershipSupplyLimit","inputs":[{"name":"newLimit","type":"uint256","internalType":"uint256"}],"outputs":[],"stateMutability":"nonpayable"},{"type":"function","name":"_setPricingModule","inputs":[{"name":"newPricingModule","type":"address","internalType":"address"}],"outputs":[],"stateMutability":"nonpayable"},{"type":"function","name":"approve","inputs":[{"name":"to","type":"address","internalType":"address"},{"name":"tokenId","type":"uint256","internalType":"uint256"}],"outputs":[],"stateMutability":"payable"},{"type":"function","name":"balanceOf","inputs":[{"name":"account","type":"address","internalType":"address"}],"outputs":[{"name":"","type":"uint256","internalType":"uint256"}],"stateMutability":"view"},{"type":"function","name":"cancelMembership","inputs":[{"name":"tokenId","type":"uint256","internalType":"uint256"}],"outputs":[],"stateMutability":"nonpayable"},{"type":"function","name":"expiresAt","inputs":[{"name":"tokenId","type":"uint256","internalType":"uint256"}],"outputs":[{"name":"","type":"uint256","internalType":"uint256"}],"stateMutability":"view"},{"type":"function","name":"getApproved","inputs":[{"name":"tokenId","type":"uint256","internalType":"uint256"}],"outputs":[{"name":"","type":"address","internalType":"address"}],"stateMutability":"view"},{"type":"function","name":"getMembershipCurrency","inputs":[],"outputs":[{"name":"","type":"address","internalType":"address"}],"stateMutability":"view"},{"type":"function","name":"getMembershipDuration","inputs":[],"outputs":[{"name":"","type":"uint64","internalType":"uint64"}],"stateMutability":"view"},{"type":"function","name":"getMembershipFreeAllocation","inputs":[],"outputs":[{"name":"","type":"uint256","internalType":"uint256"}],"stateMutability":"view"},{"type":"function","name":"getMembershipLimit","inputs":[],"outputs":[{"name":"","type":"uint256","internalType":"uint256"}],"stateMutability":"view"},{"type":"function","name":"getMembershipPrice","inputs":[],"outputs":[{"name":"","type":"uint256","internalType":"uint256"}],"stateMutability":"view"},{"type":"function","name":"getMembershipPricingModule","inputs":[],"outputs":[{"name":"","type":"address","internalType":"address"}],"stateMutability":"view"},{"type":"function","name":"getMembershipRenewalPrice","inputs":[{"name":"tokenId","type":"uint256","internalType":"uint256"}],"outputs":[{"name":"","type":"uint256","internalType":"uint256"}],"stateMutability":"view"},{"type":"function","name":"getRuleData","inputs":[{"name":"transactionId","type":"bytes32","internalType":"bytes32"}],"outputs":[{"name":"","type":"tuple","internalType":"struct IRuleEntitlement.RuleData","components":[{"name":"operations","type":"tuple[]","internalType":"struct IRuleEntitlement.Operation[]","components":[{"name":"opType","type":"uint8","internalType":"enum IRuleEntitlement.CombinedOperationType"},{"name":"index","type":"uint8","internalType":"uint8"}]},{"name":"checkOperations","type":"tuple[]","internalType":"struct IRuleEntitlement.CheckOperation[]","components":[{"name":"opType","type":"uint8","internalType":"enum IRuleEntitlement.CheckOperationType"},{"name":"chainId","type":"uint256","internalType":"uint256"},{"name":"contractAddress","type":"address","internalType":"address"},{"name":"threshold","type":"uint256","internalType":"uint256"}]},{"name":"logicalOperations","type":"tuple[]","internalType":"struct IRuleEntitlement.LogicalOperation[]","components":[{"name":"logOpType","type":"uint8","internalType":"enum IRuleEntitlement.LogicalOperationType"},{"name":"leftOperationIndex","type":"uint8","internalType":"uint8"},{"name":"rightOperationIndex","type":"uint8","internalType":"uint8"}]}]}],"stateMutability":"view"},{"type":"function","name":"getSpaceFactory","inputs":[],"outputs":[{"name":"","type":"address","internalType":"address"}],"stateMutability":"view"},{"type":"function","name":"getTokenIdByMembership","inputs":[{"name":"member","type":"address","internalType":"address"}],"outputs":[{"name":"","type":"uint256","internalType":"uint256"}],"stateMutability":"view"},{"type":"function","name":"isApprovedForAll","inputs":[{"name":"owner","type":"address","internalType":"address"},{"name":"operator","type":"address","internalType":"address"}],"outputs":[{"name":"","type":"bool","internalType":"bool"}],"stateMutability":"view"},{"type":"function","name":"joinSpace","inputs":[{"name":"receiver","type":"address","internalType":"address"}],"outputs":[],"stateMutability":"payable"},{"type":"function","name":"joinSpaceWithReferral","inputs":[{"name":"receiver","type":"address","internalType":"address"},{"name":"referrer","type":"address","internalType":"address"},{"name":"referralCode","type":"uint256","internalType":"uint256"}],"outputs":[],"stateMutability":"payable"},{"type":"function","name":"name","inputs":[],"outputs":[{"name":"","type":"string","internalType":"string"}],"stateMutability":"view"},{"type":"function","name":"ownerOf","inputs":[{"name":"tokenId","type":"uint256","internalType":"uint256"}],"outputs":[{"name":"","type":"address","internalType":"address"}],"stateMutability":"view"},{"type":"function","name":"postEntitlementCheckResult","inputs":[{"name":"transactionId","type":"bytes32","internalType":"bytes32"},{"name":"result","type":"uint8","internalType":"enum IEntitlementGatedBase.NodeVoteStatus"}],"outputs":[],"stateMutability":"nonpayable"},{"type":"function","name":"renewMembership","inputs":[{"name":"tokenId","type":"uint256","internalType":"uint256"}],"outputs":[],"stateMutability":"payable"},{"type":"function","name":"requestEntitlementCheck","inputs":[{"name":"","type":"tuple","internalType":"struct IRuleEntitlement.RuleData","components":[{"name":"operations","type":"tuple[]","internalType":"struct IRuleEntitlement.Operation[]","components":[{"name":"opType","type":"uint8","internalType":"enum IRuleEntitlement.CombinedOperationType"},{"name":"index","type":"uint8","internalType":"uint8"}]},{"name":"checkOperations","type":"tuple[]","internalType":"struct IRuleEntitlement.CheckOperation[]","components":[{"name":"opType","type":"uint8","internalType":"enum IRuleEntitlement.CheckOperationType"},{"name":"chainId","type":"uint256","internalType":"uint256"},{"name":"contractAddress","type":"address","internalType":"address"},{"name":"threshold","type":"uint256","internalType":"uint256"}]},{"name":"logicalOperations","type":"tuple[]","internalType":"struct IRuleEntitlement.LogicalOperation[]","components":[{"name":"logOpType","type":"uint8","internalType":"enum IRuleEntitlement.LogicalOperationType"},{"name":"leftOperationIndex","type":"uint8","internalType":"uint8"},{"name":"rightOperationIndex","type":"uint8","internalType":"uint8"}]}]}],"outputs":[{"name":"","type":"bytes32","internalType":"bytes32"}],"stateMutability":"nonpayable"},{"type":"function","name":"safeTransferFrom","inputs":[{"name":"from","type":"address","internalType":"address"},{"name":"to","type":"address","internalType":"address"},{"name":"tokenId","type":"uint256","internalType":"uint256"}],"outputs":[],"stateMutability":"payable"},{"type":"function","name":"safeTransferFrom","inputs":[{"name":"from","type":"address","internalType":"address"},{"name":"to","type":"address","internalType":"address"},{"name":"tokenId","type":"uint256","internalType":"uint256"},{"name":"_data","type":"bytes","internalType":"bytes"}],"outputs":[],"stateMutability":"payable"},{"type":"function","name":"setApprovalForAll","inputs":[{"name":"operator","type":"address","internalType":"address"},{"name":"approved","type":"bool","internalType":"bool"}],"outputs":[],"stateMutability":"nonpayable"},{"type":"function","name":"setMembershipDuration","inputs":[{"name":"newDuration","type":"uint64","internalType":"uint64"}],"outputs":[],"stateMutability":"nonpayable"},{"type":"function","name":"setMembershipFreeAllocation","inputs":[{"name":"newAllocation","type":"uint256","internalType":"uint256"}],"outputs":[],"stateMutability":"nonpayable"},{"type":"function","name":"setMembershipLimit","inputs":[{"name":"newLimit","type":"uint256","internalType":"uint256"}],"outputs":[],"stateMutability":"nonpayable"},{"type":"function","name":"setMembershipPrice","inputs":[{"name":"newPrice","type":"uint256","internalType":"uint256"}],"outputs":[],"stateMutability":"nonpayable"},{"type":"function","name":"setMembershipPricingModule","inputs":[{"name":"pricingModule","type":"address","internalType":"address"}],"outputs":[],"stateMutability":"nonpayable"},{"type":"function","name":"symbol","inputs":[],"outputs":[{"name":"","type":"string","internalType":"string"}],"stateMutability":"view"},{"type":"function","name":"tokenURI","inputs":[{"name":"tokenId","type":"uint256","internalType":"uint256"}],"outputs":[{"name":"","type":"string","internalType":"string"}],"stateMutability":"view"},{"type":"function","name":"totalSupply","inputs":[],"outputs":[{"name":"","type":"uint256","internalType":"uint256"}],"stateMutability":"view"},{"type":"function","name":"transferFrom","inputs":[{"name":"from","type":"address","internalType":"address"},{"name":"to","type":"address","internalType":"address"},{"name":"tokenId","type":"uint256","internalType":"uint256"}],"outputs":[],"stateMutability":"payable"},{"type":"function","name":"withdraw","inputs":[{"name":"account","type":"address","internalType":"address"}],"outputs":[],"stateMutability":"nonpayable"},{"type":"event","name":"Approval","inputs":[{"name":"owner","type":"address","indexed":true,"internalType":"address"},{"name":"approved","type":"address","indexed":true,"internalType":"address"},{"name":"tokenId","type":"uint256","indexed":true,"internalType":"uint256"}],"anonymous":false},{"type":"event","name":"ApprovalForAll","inputs":[{"name":"owner","type":"address","indexed":true,"internalType":"address"},{"name":"operator","type":"address","indexed":true,"internalType":"address"},{"name":"approved","type":"bool","indexed":false,"internalType":"bool"}],"anonymous":false},{"type":"event","name":"Banned","inputs":[{"name":"moderator","type":"address","indexed":true,"internalType":"address"},{"name":"tokenId","type":"uint256","indexed":true,"internalType":"uint256"}],"anonymous":false},{"type":"event","name":"ConsecutiveTransfer","inputs":[{"name":"fromTokenId","type":"uint256","indexed":true,"internalType":"uint256"},{"name":"toTokenId","type":"uint256","indexed":false,"internalType":"uint256"},{"name":"from","type":"address","indexed":true,"internalType":"address"},{"name":"to","type":"address","indexed":true,"internalType":"address"}],"anonymous":false},{"type":"event","name":"EntitlementCheckResultPosted","inputs":[{"name":"transactionId","type":"bytes32","indexed":true,"internalType":"bytes32"},{"name":"result","type":"uint8","indexed":false,"internalType":"enum IEntitlementGatedBase.NodeVoteStatus"}],"anonymous":false},{"type":"event","name":"Initialized","inputs":[{"name":"version","type":"uint32","indexed":false,"internalType":"uint32"}],"anonymous":false},{"type":"event","name":"InterfaceAdded","inputs":[{"name":"interfaceId","type":"bytes4","indexed":true,"internalType":"bytes4"}],"anonymous":false},{"type":"event","name":"InterfaceRemoved","inputs":[{"name":"interfaceId","type":"bytes4","indexed":true,"internalType":"bytes4"}],"anonymous":false},{"type":"event","name":"MembershipCurrencyUpdated","inputs":[{"name":"currency","type":"address","indexed":true,"internalType":"address"}],"anonymous":false},{"type":"event","name":"MembershipFeeRecipientUpdated","inputs":[{"name":"recipient","type":"address","indexed":true,"internalType":"address"}],"anonymous":false},{"type":"event","name":"MembershipFreeAllocationUpdated","inputs":[{"name":"allocation","type":"uint256","indexed":true,"internalType":"uint256"}],"anonymous":false},{"type":"event","name":"MembershipLimitUpdated","inputs":[{"name":"limit","type":"uint256","indexed":true,"internalType":"uint256"}],"anonymous":false},{"type":"event","name":"MembershipPriceUpdated","inputs":[{"name":"price","type":"uint256","indexed":true,"internalType":"uint256"}],"anonymous":false},{"type":"event","name":"MembershipTokenIssued","inputs":[{"name":"recipient","type":"address","indexed":true,"internalType":"address"},{"name":"tokenId","type":"uint256","indexed":true,"internalType":"uint256"}],"anonymous":false},{"type":"event","name":"MembershipTokenRejected","inputs":[{"name":"recipient","type":"address","indexed":true,"internalType":"address"}],"anonymous":false},{"type":"event","name":"MembershipWithdrawal","inputs":[{"name":"recipient","type":"address","indexed":true,"internalType":"address"},{"name":"amount","type":"uint256","indexed":false,"internalType":"uint256"}],"anonymous":false},{"type":"event","name":"Membership__ReferralCreated","inputs":[{"name":"code","type":"uint256","indexed":true,"internalType":"uint256"},{"name":"bps","type":"uint16","indexed":false,"internalType":"uint16"}],"anonymous":false},{"type":"event","name":"Membership__ReferralRemoved","inputs":[{"name":"code","type":"uint256","indexed":true,"internalType":"uint256"}],"anonymous":false},{"type":"event","name":"Membership__ReferralTimeCreated","inputs":[{"name":"code","type":"uint256","indexed":true,"internalType":"uint256"},{"name":"bps","type":"uint16","indexed":false,"internalType":"uint16"},{"name":"startTime","type":"uint256","indexed":false,"internalType":"uint256"},{"name":"endTime","type":"uint256","indexed":false,"internalType":"uint256"}],"anonymous":false},{"type":"event","name":"OwnershipTransferred","inputs":[{"name":"previousOwner","type":"address","indexed":true,"internalType":"address"},{"name":"newOwner","type":"address","indexed":true,"internalType":"address"}],"anonymous":false},{"type":"event","name":"Paused","inputs":[{"name":"account","type":"address","indexed":false,"internalType":"address"}],"anonymous":false},{"type":"event","name":"RoleCreated","inputs":[{"name":"creator","type":"address","indexed":true,"internalType":"address"},{"name":"roleId","type":"uint256","indexed":true,"internalType":"uint256"}],"anonymous":false},{"type":"event","name":"RoleRemoved","inputs":[{"name":"remover","type":"address","indexed":true,"internalType":"address"},{"name":"roleId","type":"uint256","indexed":true,"internalType":"uint256"}],"anonymous":false},{"type":"event","name":"RoleUpdated","inputs":[{"name":"updater","type":"address","indexed":true,"internalType":"address"},{"name":"roleId","type":"uint256","indexed":true,"internalType":"uint256"}],"anonymous":false},{"type":"event","name":"SubscriptionUpdate","inputs":[{"name":"tokenId","type":"uint256","indexed":true,"internalType":"uint256"},{"name":"expiration","type":"uint64","indexed":false,"internalType":"uint64"}],"anonymous":false},{"type":"event","name":"Transfer","inputs":[{"name":"from","type":"address","indexed":true,"internalType":"address"},{"name":"to","type":"address","indexed":true,"internalType":"address"},{"name":"tokenId","type":"uint256","indexed":true,"internalType":"uint256"}],"anonymous":false},{"type":"event","name":"Unbanned","inputs":[{"name":"moderator","type":"address","indexed":true,"internalType":"address"},{"name":"tokenId","type":"uint256","indexed":true,"internalType":"uint256"}],"anonymous":false},{"type":"event","name":"Unpaused","inputs":[{"name":"account","type":"address","indexed":false,"internalType":"address"}],"anonymous":false},{"type":"error","name":"AddressEmptyCode","inputs":[{"name":"target","type":"address","internalType":"address"}]},{"type":"error","name":"AddressInsufficientBalance","inputs":[{"name":"account","type":"address","internalType":"address"}]},{"type":"error","name":"ApprovalCallerNotOwnerNorApproved","inputs":[]},{"type":"error","name":"ApprovalQueryForNonexistentToken","inputs":[]},{"type":"error","name":"BalanceQueryForZeroAddress","inputs":[]},{"type":"error","name":"Banning__AlreadyBanned","inputs":[{"name":"tokenId","type":"uint256","internalType":"uint256"}]},{"type":"error","name":"Banning__CannotBanSelf","inputs":[]},{"type":"error","name":"Banning__InvalidTokenId","inputs":[{"name":"tokenId","type":"uint256","internalType":"uint256"}]},{"type":"error","name":"Banning__NotBanned","inputs":[{"name":"tokenId","type":"uint256","internalType":"uint256"}]},{"type":"error","name":"ERC5643__DurationZero","inputs":[]},{"type":"error","name":"ERC5643__InvalidTokenId","inputs":[{"name":"tokenId","type":"uint256","internalType":"uint256"}]},{"type":"error","name":"ERC5643__NotApprovedOrOwner","inputs":[]},{"type":"error","name":"ERC5643__SubscriptionNotRenewable","inputs":[{"name":"tokenId","type":"uint256","internalType":"uint256"}]},{"type":"error","name":"EntitlementGated_InvalidAddress","inputs":[]},{"type":"error","name":"EntitlementGated_NodeAlreadyVoted","inputs":[]},{"type":"error","name":"EntitlementGated_NodeNotFound","inputs":[]},{"type":"error","name":"EntitlementGated_TransactionAlreadyCompleted","inputs":[]},{"type":"error","name":"EntitlementGated_TransactionAlreadyRegistered","inputs":[]},{"type":"error","name":"EntitlementGated_TransactionNotRegistered","inputs":[]},{"type":"error","name":"Entitlement__InvalidValue","inputs":[]},{"type":"error","name":"Entitlement__NotAllowed","inputs":[]},{"type":"error","name":"Entitlement__NotMember","inputs":[]},{"type":"error","name":"Entitlement__ValueAlreadyExists","inputs":[]},{"type":"error","name":"FailedInnerCall","inputs":[]},{"type":"error","name":"Initializable_InInitializingState","inputs":[]},{"type":"error","name":"Initializable_NotInInitializingState","inputs":[]},{"type":"error","name":"Introspection_AlreadySupported","inputs":[]},{"type":"error","name":"Introspection_NotSupported","inputs":[]},{"type":"error","name":"Membership__AlreadyMember","inputs":[]},{"type":"error","name":"Membership__InsufficientAllowance","inputs":[]},{"type":"error","name":"Membership__InsufficientPayment","inputs":[]},{"type":"error","name":"Membership__InvalidAddress","inputs":[]},{"type":"error","name":"Membership__InvalidCurrency","inputs":[]},{"type":"error","name":"Membership__InvalidDuration","inputs":[]},{"type":"error","name":"Membership__InvalidFeeRecipient","inputs":[]},{"type":"error","name":"Membership__InvalidFreeAllocation","inputs":[]},{"type":"error","name":"Membership__InvalidLimit","inputs":[]},{"type":"error","name":"Membership__InvalidMaxSupply","inputs":[]},{"type":"error","name":"Membership__InvalidPrice","inputs":[]},{"type":"error","name":"Membership__InvalidPricingModule","inputs":[]},{"type":"error","name":"Membership__InvalidReferralBps","inputs":[]},{"type":"error","name":"Membership__InvalidReferralCode","inputs":[]},{"type":"error","name":"Membership__InvalidReferralTime","inputs":[]},{"type":"error","name":"Membership__InvalidTokenId","inputs":[]},{"type":"error","name":"Membership__MaxSupplyReached","inputs":[]},{"type":"error","name":"Membership__NotExpired","inputs":[]},{"type":"error","name":"Membership__PriceTooLow","inputs":[]},{"type":"error","name":"MintERC2309QuantityExceedsLimit","inputs":[]},{"type":"error","name":"MintToZeroAddress","inputs":[]},{"type":"error","name":"MintZeroQuantity","inputs":[]},{"type":"error","name":"Ownable__NotOwner","inputs":[{"name":"account","type":"address","internalType":"address"}]},{"type":"error","name":"Ownable__ZeroAddress","inputs":[]},{"type":"error","name":"OwnerQueryForNonexistentToken","inputs":[]},{"type":"error","name":"OwnershipNotInitializedForExtraData","inputs":[]},{"type":"error","name":"Pausable__NotPaused","inputs":[]},{"type":"error","name":"Pausable__Paused","inputs":[]},{"type":"error","name":"ReentrancyGuard__ReentrantCall","inputs":[]},{"type":"error","name":"Roles__EntitlementAlreadyExists","inputs":[]},{"type":"error","name":"Roles__EntitlementDoesNotExist","inputs":[]},{"type":"error","name":"Roles__InvalidEntitlementAddress","inputs":[]},{"type":"error","name":"Roles__InvalidPermission","inputs":[]},{"type":"error","name":"Roles__PermissionAlreadyExists","inputs":[]},{"type":"error","name":"Roles__PermissionDoesNotExist","inputs":[]},{"type":"error","name":"Roles__RoleDoesNotExist","inputs":[]},{"type":"error","name":"SafeERC20FailedOperation","inputs":[{"name":"token","type":"address","internalType":"address"}]},{"type":"error","name":"TransferCallerNotOwnerNorApproved","inputs":[]},{"type":"error","name":"TransferFromIncorrectOwner","inputs":[]},{"type":"error","name":"TransferToNonERC721ReceiverImplementer","inputs":[]},{"type":"error","name":"TransferToZeroAddress","inputs":[]},{"type":"error","name":"URIQueryForNonexistentToken","inputs":[]}],"bytecode":{"object":"0x60806040523480156200001157600080fd5b506200001c62000022565b620000ca565b7f59b501c3653afc186af7d48dda36cf6732bd21629a6295693664240a6ef520008054640100000000900460ff16156200006f576040516366008a2d60e01b815260040160405180910390fd5b805463ffffffff9081161015620000c757805463ffffffff191663ffffffff90811782556040519081527fe9c9b456cb2994b80aeef036cf59d26e9617df80f816a6ee5a5b4166e07e2f5c9060200160405180910390a15b50565b61533980620000da6000396000f3fe6080604052600436106102885760003560e01c80637c9669ac1161015a578063b3a5be6d116100c1578063df9a9fe61161007a578063df9a9fe61461071b578063e847abdd1461073b578063e985e9c514610750578063efa8db2314610780578063f4efb0bb146107a0578063f9d5d22c146107c057600080fd5b8063b3a5be6d14610680578063b6697f9314610695578063b88d4fde146106b5578063c87b56dd146106c8578063c9f7c833146106e8578063d2f01f19146106fb57600080fd5b80638c625b06116101135780638c625b06146105ee57806395d600c81461060157806395d89b411461061657806397fb7c1e1461062b578063a22cb4651461064b578063ac7ee6261461066b57600080fd5b80637c9669ac1461052c5780638120f0ba1461053f57806383f3f0dc1461056c5780638934207f1461058c57806389def320146105a15780638a59b1b4146105c157600080fd5b80635803909f116101fe57806370251563116101b75780637025156314610498578063706b8e09146104ad57806370a08231146104c257806373fc5a05146104e257806377460cd31461050257806379dda5851461051757600080fd5b80635803909f146103e35780635becd24a146104035780636352211e14610423578063657e45e81461044357806369d5f38a1461045857806369d9346b1461047857600080fd5b806318160ddd1161025057806318160ddd1461034857806323b872dd1461035d5780633ded10de1461037057806342842e0e146103905780634c2abfbe146103a357806351cff8d9146103c357600080fd5b806306fdde031461028d578063081812fc146102b8578063095ea7b3146102f05780631278076a1461030557806317c9570914610328575b600080fd5b34801561029957600080fd5b506102a26107e0565b6040516102af9190614401565b60405180910390f35b3480156102c457600080fd5b506102d86102d3366004614414565b61087b565b6040516001600160a01b0390911681526020016102af565b6103036102fe366004614452565b61088c565b005b34801561031157600080fd5b5061031a61089c565b6040519081526020016102af565b34801561033457600080fd5b5061031a610343366004614414565b6108ae565b34801561035457600080fd5b5061031a6108c8565b61030361036b36600461447e565b6108d2565b34801561037c57600080fd5b5061031a61038b366004614414565b610ac4565b61030361039e36600461447e565b610c53565b3480156103af57600080fd5b506103036103be366004614639565b610c73565b3480156103cf57600080fd5b506103036103de366004614742565b610d0a565b3480156103ef57600080fd5b5061031a6103fe366004614414565b610db1565b34801561040f57600080fd5b5061030361041e366004614414565b610dc4565b34801561042f57600080fd5b506102d861043e366004614414565b610e49565b34801561044f57600080fd5b506102d8610e54565b34801561046457600080fd5b50610303610473366004614414565b610e5e565b34801561048457600080fd5b50610303610493366004614742565b610f0c565b3480156104a457600080fd5b506102d8610f39565b3480156104b957600080fd5b5061031a610f55565b3480156104ce57600080fd5b5061031a6104dd366004614742565b610f5f565b3480156104ee57600080fd5b506103036104fd366004614414565b610f92565b34801561050e57600080fd5b506102d8610fa2565b34801561052357600080fd5b506102d8610fbe565b61030361053a366004614414565b610fc8565b34801561054b57600080fd5b506105546110dd565b6040516001600160401b0390911681526020016102af565b34801561057857600080fd5b5061030361058736600461475f565b6110e7565b34801561059857600080fd5b5061031a611122565b3480156105ad57600080fd5b506103036105bc366004614414565b611135565b3480156105cd57600080fd5b506105e16105dc366004614414565b6111cb565b6040516102af919061486d565b6103036105fc366004614742565b6111f8565b34801561060d57600080fd5b5061031a611642565b34801561062257600080fd5b506102a261164c565b34801561063757600080fd5b50610303610646366004614414565b611664565b34801561065757600080fd5b50610303610666366004614914565b6116b9565b34801561067757600080fd5b506102d8611736565b34801561068c57600080fd5b5061031a611752565b3480156106a157600080fd5b5061031a6106b0366004614742565b6117f4565b6103036106c336600461494d565b6117ff565b3480156106d457600080fd5b506102a26106e3366004614414565b611849565b6103036106f636600461447e565b6118da565b34801561070757600080fd5b506103036107163660046149cc565b6119f4565b34801561072757600080fd5b50610303610736366004614742565b611a48565b34801561074757600080fd5b506102d8611a95565b34801561075c57600080fd5b5061077061076b366004614a2f565b611a9f565b60405190151581526020016102af565b34801561078c57600080fd5b5061031a61079b366004614a5d565b611aab565b3480156107ac57600080fd5b506103036107bb366004614aa4565b611ac6565b3480156107cc57600080fd5b506103036107db366004614414565b611ad0565b60606107ea611b13565b60020180546107f890614ac9565b80601f016020809104026020016040519081016040528092919081815260200182805461082490614ac9565b80156108715780601f1061084657610100808354040283529160200191610871565b820191906000526020600020905b81548152906001019060200180831161085457829003601f168201915b5050505050905090565b600061088682611b37565b92915050565b61089882826001611b84565b5050565b60006108a961038b611c39565b905090565b60006108b982611c58565b6001600160401b031692915050565b60006108a9611c39565b60006108dd82611c92565b9050836001600160a01b0316816001600160a01b0316146109105760405162a1148160e81b815260040160405180910390fd5b60008061091c84611d2d565b91509150610941818761092c3390565b6001600160a01b039081169116811491141790565b61096c5761094f8633611a9f565b61096c57604051632ce44b5f60e11b815260040160405180910390fd5b6001600160a01b03851661099357604051633a954ecd60e21b815260040160405180910390fd5b6109a08686866001611d55565b80156109ab57600082555b6109b3611b13565b6001600160a01b03871660009081526005919091016020526040902080546000190190556109df611b13565b6001600160a01b03861660008181526005929092016020526040909120805460010190554260a01b17600160e11b17610a16611b13565b60008681526004919091016020526040812091909155600160e11b84169003610a8c5760018401610a45611b13565b600082815260049190910160205260408120549003610a8a57610a66611b13565b548114610a8a5783610a76611b13565b600083815260049190910160205260409020555b505b83856001600160a01b0316876001600160a01b03166000805160206152f883398151915260405160405180910390a45b505050505050565b600080610acf611d5f565b90506000610adb611752565b905083811115610aef575060009392505050565b6006820154604051639262b1b360e01b815230600482015285916001600160a01b031690639262b1b390602401602060405180830381865afa158015610b39573d6000803e3d6000fd5b505050506040513d601f19601f82011682018060405250810190610b5d9190614afd565b1115610b6d575060009392505050565b60088201546001600160a01b031615610bfe576008820154604051635cf4ee9160e01b815260048101839052602481018690526001600160a01b0390911690635cf4ee9190604401602060405180830381865afa158015610bd2573d6000803e3d6000fd5b505050506040513d601f19601f82011682018060405250810190610bf69190614afd565b949350505050565b8160060160009054906101000a90046001600160a01b03166001600160a01b0316630eac306d6040518163ffffffff1660e01b8152600401602060405180830381865afa158015610bd2573d6000803e3d6000fd5b610c6e838383604051806020016040528060008152506117ff565b505050565b7f59b501c3653afc186af7d48dda36cf6732bd21629a6295693664240a6ef5200054640100000000900460ff16610cbd57604051630ef4733760e31b815260040160405180910390fd5b610cde60405180606001604052806021815260200161531860219139611d83565b610cee630318da4960e51b611dc6565b610cf88282611ea4565b61089882600001518360200151611fc7565b610d1261203b565b6001600160a01b0316336001600160a01b031614610d4a576040516365f4906560e01b81523360048201526024015b60405180910390fd5b6001600160a01b038116610d7157604051635fbd571760e01b815260040160405180910390fd5b6000610d7b6120ff565b905080600003610d9e57604051635894b54560e11b815260040160405180910390fd5b610898610da9610f39565b308484612112565b600061088682610dbf611c39565b612161565b610dcc61203b565b6001600160a01b0316336001600160a01b031614610dff576040516365f4906560e01b8152336004820152602401610d41565b6000610e09611122565b90508015801590610e1957508082115b15610e375760405163c3983b9160e01b815260040160405180910390fd5b610e40826121a7565b61089882611ad0565b600061088682611c92565b60006108a9610f39565b610e6661203b565b6001600160a01b0316336001600160a01b031614610e99576040516365f4906560e01b8152336004820152602401610d41565b610ea28161224c565b610eaa611736565b6001600160a01b03166391b7f5ed826040518263ffffffff1660e01b8152600401610ed791815260200190565b600060405180830381600087803b158015610ef157600080fd5b505af1158015610f05573d6000803e3d6000fd5b5050505050565b80610f15611d5f565b60080180546001600160a01b0319166001600160a01b039290921691909117905550565b6000610f43611d5f565b600401546001600160a01b0316919050565b60006108a9611752565b600042610f73610f6e846122da565b611c58565b6001600160401b031611610f8957506000919050565b61088682612306565b80610f9b611d5f565b6003015550565b6000610fac611d5f565b600601546001600160a01b0316919050565b60006108a9610fa2565b60026000805160206152988339815191525403610ff857604051635db5c7cd60e11b815260040160405180910390fd5b61100f600260008051602061529883398151915255565b600061101a82610e49565b90506001600160a01b03811661104357604051635fbd571760e01b815260040160405180910390fd5b61104c8261236e565b6110695760405163dce9a1d360e01b815260040160405180910390fd5b600061107783610dbf611c39565b905080156110b057600061108b83836123a5565b905060006110998284614b2c565b905080156110ad576110ab84826124fe565b505b50505b6110c1836110bc6126dc565b612762565b50506110da600160008051602061529883398151915255565b50565b60006108a96126dc565b6110ef61203b565b6001600160a01b0316336001600160a01b0316146110da576040516365f4906560e01b8152336004820152602401610d41565b600061112c611d5f565b60030154905090565b6002600080516020615298833981519152540361116557604051635db5c7cd60e11b815260040160405180910390fd5b61117c600260008051602061529883398151915255565b61118581612854565b6111a2576040516367d9dca160e11b815260040160405180910390fd5b6111ab816128aa565b6111b4816128b5565b6110da600160008051602061529883398151915255565b6111ef60405180606001604052806060815260200160608152602001606081525090565b61088682612928565b6002600080516020615298833981519152540361122857604051635db5c7cd60e11b815260040160405180910390fd5b61123f600260008051602061529883398151915255565b61124881612a51565b600033905060008061127a604051806040016040528060098152602001684a6f696e537061636560b81b815250612b0e565b905060005b815181101561160957600082828151811061129c5761129c614b3f565b6020026020010151905080604001516116005760005b8160800151518110156115fe576000826080015182815181106112d7576112d7614b3f565b60200260200101519050806001600160a01b0316632e1b61e46040518163ffffffff1660e01b8152600401602060405180830381865afa15801561131f573d6000803e3d6000fd5b505050506040513d601f19601f820116820180604052508101906113439190614b55565b6114795760408051600180825281830190925260009160208083019080368337019050509050878160008151811061137d5761137d614b3f565b60200260200101906001600160a01b031690816001600160a01b031681525050816001600160a01b0316630cf0b533600083604051806040016040528060098152602001684a6f696e537061636560b81b8152506040516020016113e19190614b72565b6040516020818303038152906040526113f990614b8e565b6040518463ffffffff1660e01b815260040161141793929190614bec565b602060405180830381865afa158015611434573d6000803e3d6000fd5b505050506040513d601f19601f820116820180604052508101906114589190614b55565b156114735761146689612d58565b50505050505050506111b4565b506115f5565b825160405163069a3ee960e01b8152600481019190915281906000906001600160a01b0383169063069a3ee990602401600060405180830381865afa1580156114c6573d6000803e3d6000fd5b505050506040513d6000823e601f3d908101601f191682016040526114ee9190810190614da9565b8051519091506001148015611532575060008151805160009061151357611513614b3f565b60200260200101516000015160028111156115305761153061477c565b145b6115f257604051632e88a83960e11b81526000906001600160a01b03841690635d1150729061156590859060040161486d565b600060405180830381865afa158015611582573d6000803e3d6000fd5b505050506040513d6000823e601f3d908101601f191682016040526115aa9190810190614ee6565b905060006115b782612e06565b905060006115c3611d5f565b6000928352600b01602052506040902080546001600160a01b0319166001600160a01b038d1617905550600197505b50505b506001016112b2565b505b5060010161127f565b508161162857604051630ce39a4b60e21b815260040160405180910390fd5b5050506110da600160008051602061529883398151915255565b60006108a9611122565b6060611656611b13565b60030180546107f890614ac9565b61166c61203b565b6001600160a01b0316336001600160a01b03161461169f576040516365f4906560e01b8152336004820152602401610d41565b6116b0816116ab611c39565b613079565b6110da81610f92565b806116c2611b13565b336000818152600792909201602090815260408084206001600160a01b03881680865290835293819020805460ff19169515159590951790945592518415158152919290917f17307eab39ab6107e8899845ad3d59bd9653f200f220920489ca2b5937696c31910160405180910390a35050565b6000611740611d5f565b600801546001600160a01b0316919050565b60008061175d611d5f565b600701549050801561176e57919050565b611776611d5f565b60060160009054906101000a90046001600160a01b03166001600160a01b0316632cbb9d136040518163ffffffff1660e01b8152600401602060405180830381865afa1580156117ca573d6000803e3d6000fd5b505050506040513d601f19601f820116820180604052508101906117ee9190614afd565b91505090565b6000610886826122da565b61180a8484846108d2565b6001600160a01b0383163b15611843576118268484848461309a565b611843576040516368d2bf6b60e11b815260040160405180910390fd5b50505050565b606061185482613185565b61187157604051630a14c4b560e41b815260040160405180910390fd5b600061188860408051602081019091526000815290565b905080516000036118a857604051806020016040528060008152506118d3565b806118b2846131c1565b6040516020016118c3929190614f5c565b6040516020818303038152906040525b9392505050565b6002600080516020615298833981519152540361190a57604051635db5c7cd60e11b815260040160405180910390fd5b611921600260008051602061529883398151915255565b61192a83612a51565b6000611934613205565b9050600061194361038b611c39565b905080156119c4576119558282613215565b600061196186836123a5565b9050600061196f8284614b2c565b9050600061197b610f39565b905081156119c057600061198f8388613235565b905061199d828a8a84612112565b60006119a98285614b2c565b905080156119bd576119bb8a826124fe565b505b50505b5050505b6119cf8560016132e8565b6119db826110bc6126dc565b5050610c6e600160008051602061529883398151915255565b7f59b501c3653afc186af7d48dda36cf6732bd21629a6295693664240a6ef5200054640100000000900460ff16611a3e57604051630ef4733760e31b815260040160405180910390fd5b6108988282611fc7565b611a5061203b565b6001600160a01b0316336001600160a01b031614611a83576040516365f4906560e01b8152336004820152602401610d41565b611a8c81613302565b6110da81610f0c565b60006108a9611736565b60006118d383836133ba565b6000604051630ce39a4b60e21b815260040160405180910390fd5b61089882826133f7565b6000611ada611d5f565b6007810183905560405190915082907fab14a23e88fb272313490d4f20d63098e64fd38304c0e07a377db98c2b39b92f90600090a25050565b7f6569bde4a160c636ea8b8d11acb83a60d7fec0b8f2e09389306cba0e1340df0090565b6000611b4282613185565b611b5f576040516333d1c03960e21b815260040160405180910390fd5b611b67611b13565b60009283526006016020525060409020546001600160a01b031690565b6000611b8f83610e49565b90508115611bce57336001600160a01b03821614611bce57611bb181336133ba565b611bce576040516367d9dca160e11b815260040160405180910390fd5b83611bd7611b13565b6000858152600691909101602052604080822080546001600160a01b0319166001600160a01b0394851617905551859287811692908516917f8c5be1e5ebec7d5bd14f71427d1e84f3dd0314c0f7b2291e5b200ac8c7c3b9259190a450505050565b600080611c44611b13565b60010154611c50611b13565b540303919050565b60009081527f4775a23600034fdd9f073b224f794d51a58b35ba663a9602623ba7a5c09cce0060205260409020546001600160401b031690565b600080611c9d611b13565b60008481526004820160205260408120549350909150600160e01b83169003611d135781600003611d0d5780548310611ce957604051636f96cda160e11b815260040160405180910390fd5b5b600019909201600081815260048401602052604090205490929091508115611cea575b50919050565b50604051636f96cda160e11b815260040160405180910390fd5b6000806000611d3a611b13565b60009485526006016020525050604090912080549092909150565b61184382846136ed565b7fc21004fcc619240a31f006438274d15cd813308303284436eef6055f0fdcb60090565b6110da81604051602401611d979190614401565b60408051601f198184030181529190526020810180516001600160e01b031663104c13eb60e21b179052613717565b6001600160e01b0319811660009081527f81088bbc801e045ea3e7620779ab349988f58afbdfba10dff983df3f33522b00602052604090205460ff161515600114611e53576001600160e01b0319811660009081527f81088bbc801e045ea3e7620779ab349988f58afbdfba10dff983df3f33522b0060205260409020805460ff19166001179055611e6c565b604051637967f77d60e11b815260040160405180910390fd5b6040516001600160e01b03198216907f78f84e5b1c5c05be2b5ad3800781dd404d6d6c6302bc755c0fe20f58a33a7f2290600090a250565b6000611eae611d5f565b6006810180546001600160a01b038086166001600160a01b031992831617909255610100860151600884018054919093169082161790915560048201805490911673eeeeeeeeeeeeeeeeeeeeeeeeeeeeeeeeeeeeeeee1790556060840151600382015560e08401516007820181905590915015611f3257611f328360e001516121a7565b611f40836101000151613302565b604083015115610c6e57611f57836040015161224c565b600881015460408085015190516391b7f5ed60e01b81526001600160a01b03909216916391b7f5ed91611f909160040190815260200190565b600060405180830381600087803b158015611faa57600080fd5b505af1158015611fbe573d6000803e3d6000fd5b50505050505050565b7f59b501c3653afc186af7d48dda36cf6732bd21629a6295693664240a6ef5200054640100000000900460ff1661201157604051630ef4733760e31b815260040160405180910390fd5b6120216380ac58cd60e01b611dc6565b612031635b5e139f60e01b611dc6565b6108988282613720565b6040805180820182527fd2f24d4f172e4e84e48e7c4125b6e904c29e5eba33ad4938fee51dd5dbd4b600546001600160a01b03168082527fd2f24d4f172e4e84e48e7c4125b6e904c29e5eba33ad4938fee51dd5dbd4b60154602080840182905284516331a9108f60e11b815260048101929092529351600094636352211e92602480820193918290030181865afa1580156120db573d6000803e3d6000fd5b505050506040513d601f19601f820116820180604052508101906117ee9190614f8b565b6000612109611d5f565b600a0154905090565b816001600160a01b03167f6a88f9e03ef4a1786c4d5b1eb17d944dbdecbd661e86a6b18dfa7aaa28f172be8260405161214d91815260200190565b60405180910390a261184384848484613752565b60008061216c611d5f565b60008581526009820160205260409020549091501561219e576000848152600990910160205260409020549050610886565b610bf683610ac4565b60006121b1611d5f565b90508060060160009054906101000a90046001600160a01b03166001600160a01b0316632cbb9d136040518163ffffffff1660e01b8152600401602060405180830381865afa158015612208573d6000803e3d6000fd5b505050506040513d601f19601f8201168201806040525081019061222c9190614afd565b8211156108985760405163c3983b9160e01b815260040160405180910390fd5b6000612256610fa2565b6001600160a01b0316630eac306d6040518163ffffffff1660e01b8152600401602060405180830381865afa158015612293573d6000803e3d6000fd5b505050506040513d601f19601f820116820180604052508101906122b79190614afd565b90508082101561089857604051631a23d64760e11b815260040160405180910390fd5b60006122e4611d5f565b6001600160a01b03909216600090815260019290920160205250604090205490565b60006001600160a01b03821661232f576040516323d3ad8160e21b815260040160405180910390fd5b6001600160401b0361233f611b13565b6005016000846001600160a01b03166001600160a01b0316815260200190815260200160002054169050919050565b6000426123796126dc565b6001600160401b031661238c9190614fa8565b61239583611c58565b6001600160401b03161092915050565b6000806123b0611d5f565b600681015460048201549192506001600160a01b03908116911673eeeeeeeeeeeeeeeeeeeeeeeeeeeeeeeeeeeeeeee811480156123ed5750843414155b1561240b57604051635894b54560e11b815260040160405180910390fd5b6000826001600160a01b0316634ccb20c06040518163ffffffff1660e01b8152600401602060405180830381865afa15801561244b573d6000803e3d6000fd5b505050506040513d601f19601f8201168201806040525081019061246f9190614f8b565b90506000836001600160a01b0316639f6542aa6040518163ffffffff1660e01b8152600401602060405180830381865afa1580156124b1573d6000803e3d6000fd5b505050506040513d601f19601f820116820180604052508101906124d59190614fbb565b90506124e5878261ffff16613798565b95506124f383898489613752565b505050505092915050565b600080612509611d5f565b90506000612515610f39565b905073eeeeeeeeeeeeeeeeeeeeeeeeeeeeeeeeeeeeeeed196001600160a01b03821601612581573460000361255d57604051635894b54560e11b815260040160405180910390fd5b8382600a0160008282546125719190614fa8565b9091555084935061088692505050565b34156125a057604051636da3122b60e01b815260040160405180910390fd5b6040516370a0823160e01b815230600482015281906000906001600160a01b038316906370a0823190602401602060405180830381865afa1580156125e9573d6000803e3d6000fd5b505050506040513d601f19601f8201168201806040525081019061260d9190614afd565b905061261b83883089613752565b6040516370a0823160e01b81523060048201526000906001600160a01b038416906370a0823190602401602060405180830381865afa158015612662573d6000803e3d6000fd5b505050506040513d601f19601f820116820180604052508101906126869190614afd565b905060006126948383614b2c565b90508781146126b657604051635894b54560e11b815260040160405180910390fd5b8086600a0160008282546126ca9190614fa8565b90915550909998505050505050505050565b6000806126e7611d5f565b90508060060160009054906101000a90046001600160a01b03166001600160a01b0316638120f0ba6040518163ffffffff1660e01b8152600401602060405180830381865afa15801561273e573d6000803e3d6000fd5b505050506040513d601f19601f820116820180604052508101906117ee9190614fdf565b60008281527f4775a23600034fdd9f073b224f794d51a58b35ba663a9602623ba7a5c09cce006020819052604082205490916001600160401b03909116908181036127b8576127b18442614ffc565b90506127ee565b6127c18561236e565b6127e157604051637be9098d60e11b815260048101869052602401610d41565b6127eb8483614ffc565b90505b60008581526020848152604091829020805467ffffffffffffffff19166001600160401b038516908117909155915191825286917f2ec2be2c4b90c2cf13ecb6751a24daed6bb741ae5ed3f7371aabf9402f6d62e8910160405180910390a25050505050565b60008061286083610e49565b9050336001600160a01b03821681148061287f575061287f82826133ba565b80610bf65750806001600160a01b031661289885611b37565b6001600160a01b031614949350505050565b6110da81600061380d565b7f4775a23600034fdd9f073b224f794d51a58b35ba663a9602623ba7a5c09cce00600082815260209182526040808220805467ffffffffffffffff191690555190815282917f2ec2be2c4b90c2cf13ecb6751a24daed6bb741ae5ed3f7371aabf9402f6d62e8910160405180910390a250565b61294c60405180606001604052806060815260200160608152602001606081525090565b60008281527f133f5e83927ae0f4eccaf443b57ee2634efab46c5ecb3a58ec4bb3201dd55ef76020526040812080546000805160206152d88339815191529260ff909116151590036129b157604051637ad5a43960e11b815260040160405180910390fd5b8060020180546129c090614ac9565b80601f01602080910402602001604051908101604052809291908181526020018280546129ec90614ac9565b8015612a395780601f10612a0e57610100808354040283529160200191612a39565b820191906000526020600020905b815481529060010190602001808311612a1c57829003601f168201915b5050505050806020019051810190610bf69190614da9565b6001600160a01b038116612a7857604051635fbd571760e01b815260040160405180910390fd5b6000612a8333612306565b1115612aa2576040516316d9a23f60e31b815260040160405180910390fd5b6000612aad82612306565b1115612acc576040516316d9a23f60e31b815260040160405180910390fd5b612ad4611122565b15801590612af05750612ae5611122565b612aed611c39565b10155b156110da57604051637efcdb4960e01b815260040160405180910390fd5b60606000612b1a61395c565b80519091506000816001600160401b03811115612b3957612b396144bf565b604051908082528060200260200182016040528015612b62578160200160208202803683370190505b5085516020870120909150600090815b84811015612c31576000612b9e878381518110612b9157612b91614b3f565b6020026020010151613987565b509250505060005b8151811015612c275783828281518110612bc257612bc2614b3f565b60200260200101518051906020012003612c1f57878381518110612be857612be8614b3f565b6020026020010151868681518110612c0257612c02614b3f565b602090810291909101015284612c178161501c565b955050612c27565b600101612ba6565b5050600101612b72565b506000826001600160401b03811115612c4c57612c4c6144bf565b604051908082528060200260200182016040528015612cb157816020015b612c9e6040518060a00160405280600081526020016060815260200160001515815260200160608152602001606081525090565b815260200190600190039081612c6a5790505b50905060005b83811015612d4c576000858281518110612cd357612cd3614b3f565b60200260200101519050600080600080612cec85613987565b93509350935093506040518060a00160405280868152602001858152602001841515815260200183815260200182815250878781518110612d2f57612d2f614b3f565b602002602001018190525050505050508080600101915050612cb7565b50979650505050505050565b6000612d6561038b611c39565b90506000612d71613205565b90508115612db457612d838183613215565b6000612d8f84846123a5565b90506000612d9d8285614b2c565b90508015612db157612daf85826124fe565b505b50505b612dbf8360016132e8565b612dcb816110bc6126dc565b60405181906001600160a01b038516907f2f40b0474996b72a4251e00fb9170cdd960deea1dc749772cbbab61395b9b57690600090a3505050565b6040516bffffffffffffffffffffffff193260601b16602082015243603482015260009081906054016040516020818303038152906040528051906020012090506000612e5e6000805160206152d883398151915290565b60008381526001808301602052604090912080549293509160ff1615159003612e9a5760405163bf2a062560e01b815260040160405180910390fd5b8154604051631079b6d760e11b8152600560048201523060248201526000916001600160a01b0316906320f36dae90604401600060405180830381865afa158015612ee9573d6000803e3d6000fd5b505050506040513d6000823e601f3d908101601f19168201604052612f119190810190615035565b825433610100026001600160a81b03199091161760011761ffff60a81b19168355905060028201612f428782615116565b5060005b815181101561300b57826001016040518060400160405280848481518110612f7057612f70614b3f565b60200260200101516001600160a01b0316815260200160006002811115612f9957612f9961477c565b9052815460018101835560009283526020928390208251910180546001600160a01b031981166001600160a01b03909316928317825593830151929390929183916001600160a81b03191617600160a01b836002811115612ffc57612ffc61477c565b02179055505050600101612f46565b508254604051637917c69760e11b81526001600160a01b039091169063f22f8d2e9061303d90879085906004016151d5565b600060405180830381600087803b15801561305757600080fd5b505af115801561306b573d6000803e3d6000fd5b509598975050505050505050565b8082101561089857604051636664d51760e11b815260040160405180910390fd5b604051630a85bd0160e11b81526000906001600160a01b0385169063150b7a02906130cf9033908990889088906004016151ee565b6020604051808303816000875af192505050801561310a575060408051601f3d908101601f1916820190925261310791810190615221565b60015b613168573d808015613138576040519150601f19603f3d011682016040523d82523d6000602084013e61313d565b606091505b508051600003613160576040516368d2bf6b60e11b815260040160405180910390fd5b805181602001fd5b6001600160e01b031916630a85bd0160e11b149050949350505050565b600061318f611b13565b54821080156108865750600160e01b6131a6611b13565b60008481526004919091016020526040902054161592915050565b606060a06040510180604052602081039150506000815280825b600183039250600a81066030018353600a9004806131db5750819003601f19909101908152919050565b600061320f611b13565b54919050565b8061321e611d5f565b600093845260090160205260409092209190915550565b60008181527f3c2290b88407133303e904ceb4ee7d0d14164eda8a629372d8406216ceb57e006020819052604082205461ffff1680830361327b57600092505050610886565b6000848152600180840160209081526040928390208351808501909452805480855292015490830152158015906132bf575080514210806132bf5750806020015142115b156132d05760009350505050610886565b6132de868361ffff16613798565b9695505050505050565b610898828260405180602001604052806000815250613ab2565b6001600160a01b03811661332957604051630e88bf4b60e01b815260040160405180910390fd5b613331610fa2565b6040516346fc05eb60e11b81526001600160a01b0383811660048301529190911690638df80bd690602401602060405180830381865afa158015613379573d6000803e3d6000fd5b505050506040513d601f19601f8201168201806040525081019061339d9190614b55565b6110da57604051630e88bf4b60e01b815260040160405180910390fd5b60006133c4611b13565b6001600160a01b039384166000908152600791909101602090815260408083209490951682529290925250205460ff1690565b60008281527f133f5e83927ae0f4eccaf443b57ee2634efab46c5ecb3a58ec4bb3201dd55ef76020526040812080546000805160206152d88339815191529260ff9091161515900361345c57604051637ad5a43960e11b815260040160405180910390fd5b6000805b600183015481101561351d57600083600101828154811061348357613483614b3f565b60009182526020909120018054909150336001600160a01b03909116036135145760008154600160a01b900460ff1660028111156134c3576134c361477c565b146134e1576040516347592a4d60e01b815260040160405180910390fd5b8054600193508690829060ff60a01b1916600160a01b8360028111156135095761350961477c565b02179055505061351d565b50600101613460565b5080151560000361354157604051638223a7e960e01b815260040160405180910390fd5b60008060005b60018501548110156135e857600085600101828154811061356a5761356a614b3f565b6000918252602090912001905060018154600160a01b900460ff1660028111156135965761359661477c565b036135ad57836135a58161501c565b9450506135df565b60028154600160a01b900460ff1660028111156135cc576135cc61477c565b036135df57826135db8161501c565b9350505b50600101613547565b508354600160b01b900460ff16611fbe57600184015461360a9060029061524b565b82111561367657835461ffff60a81b191661010160a81b17845561362f876001613b28565b867fb9d6ce397e562841871d119aaf77469c60a3b5bf8b99a5d9851656015015c6336001604051613660919061526d565b60405180910390a261367187613bf8565b611fbe565b60018401546136879060029061524b565b811115611fbe57835461ffff60a81b1916608160a91b1784556136ab876002613b28565b867fb9d6ce397e562841871d119aaf77469c60a3b5bf8b99a5d9851656015015c63360026040516136dc919061526d565b60405180910390a2611fbe87613bf8565b60006136f7611d5f565b6001600160a01b0390921660009081526001909201602052506040902055565b6110da81613c5e565b600061372a611b13565b90506002810161373a8482615116565b50600381016137498382615116565b50600090555050565b80156118435773eeeeeeeeeeeeeeeeeeeeeeeeeeeeeeeeeeeeeeed196001600160a01b0385160161378c576137878282613c7f565b611843565b61184384848484613d22565b60006127108211156137f65760405162461bcd60e51b815260206004820152602160248201527f426173697320706f696e74732063616e6e6f74206578636565642031305f30306044820152600360fc1b6064820152608401610d41565b6127106138038385615280565b6118d3919061524b565b600061381883611c92565b90508060008061382786611d2d565b9150915084156138675761383c81843361092c565b6138675761384a83336133ba565b61386757604051632ce44b5f60e11b815260040160405180910390fd5b613875836000886001611d55565b801561388057600082555b600061388a611b13565b6001600160a01b0385166000818152600583016020526040902080546fffffffffffffffffffffffffffffffff0190559091504260a01b17600360e01b176000888152600483016020526040812091909155600160e11b86169003613922576001870160008181526004830160205260408120549003613920578154811461392057600081815260048301602052604090208690555b505b60405187906000906001600160a01b038716906000805160206152f8833981519152908390a4600190810180549091019055505050505050565b60606108a97f672ef851d5f92307da037116e23aa9e31af7e1f7e3ca62c4e6d540631df3fd01613d75565b60008181526000805160206152b88339815191526020526040812080546060929183918291906139b690614ac9565b80601f01602080910402602001604051908101604052809291908181526020018280546139e290614ac9565b8015613a2f5780601f10613a0457610100808354040283529160200191613a2f565b820191906000526020600020905b815481529060010190602001808311613a1257829003601f168201915b50505050509350613a5d7f672ef851d5f92307da037116e23aa9e31af7e1f7e3ca62c4e6d540631df3fd0090565b600086815260039190910160209081526040808320600101546000805160206152b883398151915290925290912060ff9091169350613a9e90600201613d82565b9150613aa985613d8d565b90509193509193565b613abc8383613e91565b6001600160a01b0383163b15610c6e576000613ad6611b13565b5490508281035b613af0600086838060010194508661309a565b613b0d576040516368d2bf6b60e11b815260040160405180910390fd5b818110613add5781613b1d611b13565b5414610f0557600080fd5b6000613b32611d5f565b90506001826002811115613b4857613b4861477c565b03613b91576000838152600b820160205260409020546001600160a01b0316613b7081612d58565b506000928352600b01602052506040902080546001600160a01b0319169055565b6000838152600b820160205260408082205490516001600160a01b039091169182917f86fd446d5c04e892d58b448a924dcd9c3ece3a5e0d2960b8c35cd475a5595a1f9190a2506000928352600b01602052506040902080546001600160a01b0319169055565b60008181527f133f5e83927ae0f4eccaf443b57ee2634efab46c5ecb3a58ec4bb3201dd55ef76020526040812080546001600160b81b03191681556000805160206152d883398151915291613c506001830182614321565b61184360028301600061433f565b80516a636f6e736f6c652e6c6f67602083016000808483855afa5050505050565b6000826001600160a01b03168260405160006040518083038185875af1925050503d8060008114613ccc576040519150601f19603f3d011682016040523d82523d6000602084013e613cd1565b606091505b5050905080610c6e5760405162461bcd60e51b815260206004820152601c60248201527f6e617469766520746f6b656e207472616e73666572206661696c6564000000006044820152606401610d41565b816001600160a01b0316836001600160a01b0316031561184357306001600160a01b03841603613d60576137876001600160a01b0385168383613fb5565b6118436001600160a01b038516848484614014565b606060006118d38361404d565b6060610886826140a9565b60008181526000805160206152b88339815191526020526040812060609190613db890600401614186565b6001600160401b03811115613dcf57613dcf6144bf565b604051908082528060200260200182016040528015613df8578160200160208202803683370190505b50905060005b60008481526000805160206152b883398151915260205260409020613e2590600401614186565b811015613e8a5760008481526000805160206152b883398151915260205260408120613e549060040183614190565b905080838381518110613e6957613e69614b3f565b6001600160a01b039092166020928302919091019091015250600101613dfe565b5092915050565b6000613e9b611b13565b5490506000829003613ec05760405163b562e8dd60e01b815260040160405180910390fd5b613ecd6000848385611d55565b680100000000000000018202613ee1611b13565b6001600160a01b038516600081815260059290920160205260409091208054929092019091554260a01b6001841460e11b1717613f1c611b13565b600083815260049190910160205260408120919091556001600160a01b0384169083830190839083906000805160206152f88339815191528180a4600183015b818114613f8257808360006000805160206152f8833981519152600080a4600101613f5c565b5081600003613fa357604051622e076360e81b815260040160405180910390fd5b80613fac611b13565b5550610c6e9050565b6040516001600160a01b03838116602483015260448201839052610c6e91859182169063a9059cbb906064015b604051602081830303815290604052915060e01b6020820180516001600160e01b03838183161783525050505061419c565b6040516001600160a01b0384811660248301528381166044830152606482018390526118439186918216906323b872dd90608401613fe2565b60608160000180548060200260200160405190810160405280929190818152602001828054801561409d57602002820191906000526020600020905b815481526020019060010190808311614089575b50505050509050919050565b606081600001805480602002602001604051908101604052809291908181526020016000905b8282101561417b5783829060005260206000200180546140ee90614ac9565b80601f016020809104026020016040519081016040528092919081815260200182805461411a90614ac9565b80156141675780601f1061413c57610100808354040283529160200191614167565b820191906000526020600020905b81548152906001019060200180831161414a57829003601f168201915b5050505050815260200190600101906140cf565b505050509050919050565b6000610886825490565b60006118d383836141ff565b60006141b16001600160a01b03841683614229565b905080516000141580156141d65750808060200190518101906141d49190614b55565b155b15610c6e57604051635274afe760e01b81526001600160a01b0384166004820152602401610d41565b600082600001828154811061421657614216614b3f565b9060005260206000200154905092915050565b60606118d38383600084600080856001600160a01b0316848660405161424f9190614b72565b60006040518083038185875af1925050503d806000811461428c576040519150601f19603f3d011682016040523d82523d6000602084013e614291565b606091505b50915091506132de8683836060826142b1576142ac826142f8565b6118d3565b81511580156142c857506001600160a01b0384163b155b156142f157604051639996b31560e01b81526001600160a01b0385166004820152602401610d41565b50806118d3565b8051156143085780518082602001fd5b604051630a12f52160e11b815260040160405180910390fd5b50805460008255906000526020600020908101906110da9190614379565b50805461434b90614ac9565b6000825580601f1061435b575050565b601f0160209004906000526020600020908101906110da919061439c565b5b808211156143985780546001600160a81b031916815560010161437a565b5090565b5b80821115614398576000815560010161439d565b60005b838110156143cc5781810151838201526020016143b4565b50506000910152565b600081518084526143ed8160208601602086016143b1565b601f01601f19169290920160200192915050565b6020815260006118d360208301846143d5565b60006020828403121561442657600080fd5b5035919050565b6001600160a01b03811681146110da57600080fd5b803561444d8161442d565b919050565b6000806040838503121561446557600080fd5b82356144708161442d565b946020939093013593505050565b60008060006060848603121561449357600080fd5b833561449e8161442d565b925060208401356144ae8161442d565b929592945050506040919091013590565b634e487b7160e01b600052604160045260246000fd5b60405161012081016001600160401b03811182821017156144f8576144f86144bf565b60405290565b604051608081016001600160401b03811182821017156144f8576144f86144bf565b604051606081016001600160401b03811182821017156144f8576144f86144bf565b604080519081016001600160401b03811182821017156144f8576144f86144bf565b604051601f8201601f191681016001600160401b038111828210171561458c5761458c6144bf565b604052919050565b60006001600160401b038211156145ad576145ad6144bf565b50601f01601f191660200190565b60006145ce6145c984614594565b614564565b90508281528383830111156145e257600080fd5b828260208301376000602084830101529392505050565b600082601f83011261460a57600080fd5b6118d3838335602085016145bb565b6001600160401b03811681146110da57600080fd5b803561444d81614619565b6000806040838503121561464c57600080fd5b82356001600160401b038082111561466357600080fd5b90840190610120828703121561467857600080fd5b6146806144d5565b82358281111561468f57600080fd5b61469b888286016145f9565b8252506020830135828111156146b057600080fd5b6146bc888286016145f9565b60208301525060408301356040820152606083013560608201526146e26080840161462e565b60808201526146f360a08401614442565b60a082015261470460c08401614442565b60c082015260e083013560e08201526101009150614723828401614442565b8282015280945050505061473960208401614442565b90509250929050565b60006020828403121561475457600080fd5b81356118d38161442d565b60006020828403121561477157600080fd5b81356118d381614619565b634e487b7160e01b600052602160045260246000fd5b600381106110da576110da61477c565b60008151808452602080850194506020840160005b8381101561480c5781518051600681106147d3576147d361477c565b885280840151848901526040808201516001600160a01b03169089015260609081015190880152608090960195908201906001016147b7565b509495945050505050565b60008151808452602080850194506020840160005b8381101561480c578151805161484181614792565b88528084015160ff908116858a015260409182015116908801526060909601959082019060010161482c565b6020808252825160608383015280516080840181905260009291820190839060a08601905b808310156148c957835180516148a781614792565b835285015160ff16858301529284019260019290920191604090910190614892565b50838701519350601f199250828682030160408701526148e981856147a2565b935050506040850151818584030160608601526132de8382614817565b80151581146110da57600080fd5b6000806040838503121561492757600080fd5b82356149328161442d565b9150602083013561494281614906565b809150509250929050565b6000806000806080858703121561496357600080fd5b843561496e8161442d565b9350602085013561497e8161442d565b92506040850135915060608501356001600160401b038111156149a057600080fd5b8501601f810187136149b157600080fd5b6149c0878235602084016145bb565b91505092959194509250565b600080604083850312156149df57600080fd5b82356001600160401b03808211156149f657600080fd5b614a02868387016145f9565b93506020850135915080821115614a1857600080fd5b50614a25858286016145f9565b9150509250929050565b60008060408385031215614a4257600080fd5b8235614a4d8161442d565b915060208301356149428161442d565b600060208284031215614a6f57600080fd5b81356001600160401b03811115614a8557600080fd5b8201606081850312156118d357600080fd5b600381106110da57600080fd5b60008060408385031215614ab757600080fd5b82359150602083013561494281614a97565b600181811c90821680614add57607f821691505b602082108103611d0d57634e487b7160e01b600052602260045260246000fd5b600060208284031215614b0f57600080fd5b5051919050565b634e487b7160e01b600052601160045260246000fd5b8181038181111561088657610886614b16565b634e487b7160e01b600052603260045260246000fd5b600060208284031215614b6757600080fd5b81516118d381614906565b60008251614b848184602087016143b1565b9190910192915050565b80516020808301519190811015611d0d5760001960209190910360031b1b16919050565b60008151808452602080850194506020840160005b8381101561480c5781516001600160a01b031687529582019590820190600101614bc7565b838152606060208201526000614c056060830185614bb2565b9050826040830152949350505050565b60006001600160401b03821115614c2e57614c2e6144bf565b5060051b60200190565b805160ff8116811461444d57600080fd5b600082601f830112614c5a57600080fd5b81516020614c6a6145c983614c15565b82815260079290921b84018101918181019086841115614c8957600080fd5b8286015b84811015614cf35760808189031215614ca65760008081fd5b614cae6144fe565b815160068110614cbe5760008081fd5b81528185015185820152604080830151614cd78161442d565b9082015260608281015190820152835291830191608001614c8d565b509695505050505050565b600082601f830112614d0f57600080fd5b81516020614d1f6145c983614c15565b82815260609283028501820192828201919087851115614d3e57600080fd5b8387015b85811015614d9c5781818a031215614d5a5760008081fd5b614d62614520565b8151614d6d81614a97565b8152614d7a828701614c38565b868201526040614d8b818401614c38565b908201528452928401928101614d42565b5090979650505050505050565b60006020808385031215614dbc57600080fd5b82516001600160401b0380821115614dd357600080fd5b9084019060608287031215614de757600080fd5b614def614520565b825182811115614dfe57600080fd5b8301601f81018813614e0f57600080fd5b8051614e1d6145c982614c15565b81815260069190911b8201860190868101908a831115614e3c57600080fd5b928701925b82841015614e90576040848c031215614e5a5760008081fd5b614e62614542565b8451614e6d81614a97565b8152614e7a858a01614c38565b818a015282526040939093019290870190614e41565b84525050508284015182811115614ea657600080fd5b614eb288828601614c49565b85830152506040830151935081841115614ecb57600080fd5b614ed787858501614cfe565b60408201529695505050505050565b600060208284031215614ef857600080fd5b81516001600160401b03811115614f0e57600080fd5b8201601f81018413614f1f57600080fd5b8051614f2d6145c982614594565b818152856020838501011115614f4257600080fd5b614f538260208301602086016143b1565b95945050505050565b60008351614f6e8184602088016143b1565b835190830190614f828183602088016143b1565b01949350505050565b600060208284031215614f9d57600080fd5b81516118d38161442d565b8082018082111561088657610886614b16565b600060208284031215614fcd57600080fd5b815161ffff811681146118d357600080fd5b600060208284031215614ff157600080fd5b81516118d381614619565b6001600160401b03818116838216019080821115613e8a57613e8a614b16565b60006001820161502e5761502e614b16565b5060010190565b6000602080838503121561504857600080fd5b82516001600160401b0381111561505e57600080fd5b8301601f8101851361506f57600080fd5b805161507d6145c982614c15565b81815260059190911b8201830190838101908783111561509c57600080fd5b928401925b828410156150c35783516150b48161442d565b825292840192908401906150a1565b979650505050505050565b601f821115610c6e576000816000526020600020601f850160051c810160208610156150f75750805b601f850160051c820191505b81811015610abc57828155600101615103565b81516001600160401b0381111561512f5761512f6144bf565b6151438161513d8454614ac9565b846150ce565b602080601f83116001811461517857600084156151605750858301515b600019600386901b1c1916600185901b178555610abc565b600085815260208120601f198616915b828110156151a757888601518255948401946001909101908401615188565b50858210156151c55787850151600019600388901b60f8161c191681555b5050505050600190811b01905550565b828152604060208201526000610bf66040830184614bb2565b6001600160a01b03858116825284166020820152604081018390526080606082018190526000906132de908301846143d5565b60006020828403121561523357600080fd5b81516001600160e01b0319811681146118d357600080fd5b60008261526857634e487b7160e01b600052601260045260246000fd5b500490565b6020810161527a83614792565b91905290565b808202811582820484141761088657610886614b1656fe54f22f54f370bd020e00ee80e1a5099a71652e2ccbcf6a75281e4c70a3e11a00672ef851d5f92307da037116e23aa9e31af7e1f7e3ca62c4e6d540631df3fd03133f5e83927ae0f4eccaf443b57ee2634efab46c5ecb3a58ec4bb3201dd55ef6ddf252ad1be2c89b69c2b068fc378daa952ba7f163c4a11628f55a4df523b3ef4d656d6265727368697046616365742e5f5f4d656d626572736869705f696e6974","linkReferences":{}},"methodIdentifiers":{"__ERC721A_init(string,string)":"d2f01f19","__Membership_init((string,string,uint256,uint256,uint64,address,address,uint256,address),address)":"4c2abfbe","_getMembershipCurrency()":"70251563","_getMembershipFreeAllocation()":"b3a5be6d","_getMembershipPrice(uint256)":"3ded10de","_getMembershipSupplyLimit()":"8934207f","_getPricingModule()":"ac7ee626","_getSpaceFactory()":"77460cd3","_setMembershipFreeAllocation(uint256)":"f9d5d22c","_setMembershipSupplyLimit(uint256)":"73fc5a05","_setPricingModule(address)":"69d9346b","approve(address,uint256)":"095ea7b3","balanceOf(address)":"70a08231","cancelMembership(uint256)":"89def320","expiresAt(uint256)":"17c95709","getApproved(uint256)":"081812fc","getMembershipCurrency()":"657e45e8","getMembershipDuration()":"8120f0ba","getMembershipFreeAllocation()":"706b8e09","getMembershipLimit()":"95d600c8","getMembershipPrice()":"1278076a","getMembershipPricingModule()":"e847abdd","getMembershipRenewalPrice(uint256)":"5803909f","getRuleData(bytes32)":"8a59b1b4","getSpaceFactory()":"79dda585","getTokenIdByMembership(address)":"b6697f93","isApprovedForAll(address,address)":"e985e9c5","joinSpace(address)":"8c625b06","joinSpaceWithReferral(address,address,uint256)":"c9f7c833","name()":"06fdde03","ownerOf(uint256)":"6352211e","postEntitlementCheckResult(bytes32,uint8)":"f4efb0bb","renewMembership(uint256)":"7c9669ac","requestEntitlementCheck(((uint8,uint8)[],(uint8,uint256,address,uint256)[],(uint8,uint8,uint8)[]))":"efa8db23","safeTransferFrom(address,address,uint256)":"42842e0e","safeTransferFrom(address,address,uint256,bytes)":"b88d4fde","setApprovalForAll(address,bool)":"a22cb465","setMembershipDuration(uint64)":"83f3f0dc","setMembershipFreeAllocation(uint256)":"5becd24a","setMembershipLimit(uint256)":"97fb7c1e","setMembershipPrice(uint256)":"69d5f38a","setMembershipPricingModule(address)":"df9a9fe6","symbol()":"95d89b41","tokenURI(uint256)":"c87b56dd","totalSupply()":"18160ddd","transferFrom(address,address,uint256)":"23b872dd","withdraw(address)":"51cff8d9"},"id":205}