{"abi":[{"type":"function","name":"__ERC721A_init","inputs":[{"name":"name_","type":"string","internalType":"string"},{"name":"symbol_","type":"string","internalType":"string"}],"outputs":[],"stateMutability":"nonpayable"},{"type":"function","name":"__Membership_init","inputs":[{"name":"info","type":"tuple","internalType":"struct IMembershipBase.Membership","components":[{"name":"name","type":"string","internalType":"string"},{"name":"symbol","type":"string","internalType":"string"},{"name":"price","type":"uint256","internalType":"uint256"},{"name":"maxSupply","type":"uint256","internalType":"uint256"},{"name":"duration","type":"uint64","internalType":"uint64"},{"name":"currency","type":"address","internalType":"address"},{"name":"feeRecipient","type":"address","internalType":"address"},{"name":"freeAllocation","type":"uint256","internalType":"uint256"},{"name":"pricingModule","type":"address","internalType":"address"}]},{"name":"spaceFactory","type":"address","internalType":"address"}],"outputs":[],"stateMutability":"nonpayable"},{"type":"function","name":"_getMembershipCurrency","inputs":[],"outputs":[{"name":"","type":"address","internalType":"address"}],"stateMutability":"view"},{"type":"function","name":"_getMembershipFreeAllocation","inputs":[],"outputs":[{"name":"","type":"uint256","internalType":"uint256"}],"stateMutability":"view"},{"type":"function","name":"_getMembershipPrice","inputs":[{"name":"totalSupply","type":"uint256","internalType":"uint256"}],"outputs":[{"name":"","type":"uint256","internalType":"uint256"}],"stateMutability":"view"},{"type":"function","name":"_getMembershipSupplyLimit","inputs":[],"outputs":[{"name":"","type":"uint256","internalType":"uint256"}],"stateMutability":"view"},{"type":"function","name":"_getPricingModule","inputs":[],"outputs":[{"name":"","type":"address","internalType":"address"}],"stateMutability":"view"},{"type":"function","name":"_getSpaceFactory","inputs":[],"outputs":[{"name":"","type":"address","internalType":"address"}],"stateMutability":"view"},{"type":"function","name":"_setMembershipFreeAllocation","inputs":[{"name":"newAllocation","type":"uint256","internalType":"uint256"}],"outputs":[],"stateMutability":"nonpayable"},{"type":"function","name":"_setMembershipSupplyLimit","inputs":[{"name":"newLimit","type":"uint256","internalType":"uint256"}],"outputs":[],"stateMutability":"nonpayable"},{"type":"function","name":"_setPricingModule","inputs":[{"name":"newPricingModule","type":"address","internalType":"address"}],"outputs":[],"stateMutability":"nonpayable"},{"type":"function","name":"approve","inputs":[{"name":"to","type":"address","internalType":"address"},{"name":"tokenId","type":"uint256","internalType":"uint256"}],"outputs":[],"stateMutability":"payable"},{"type":"function","name":"balanceOf","inputs":[{"name":"account","type":"address","internalType":"address"}],"outputs":[{"name":"","type":"uint256","internalType":"uint256"}],"stateMutability":"view"},{"type":"function","name":"cancelMembership","inputs":[{"name":"tokenId","type":"uint256","internalType":"uint256"}],"outputs":[],"stateMutability":"nonpayable"},{"type":"function","name":"expiresAt","inputs":[{"name":"tokenId","type":"uint256","internalType":"uint256"}],"outputs":[{"name":"","type":"uint256","internalType":"uint256"}],"stateMutability":"view"},{"type":"function","name":"getApproved","inputs":[{"name":"tokenId","type":"uint256","internalType":"uint256"}],"outputs":[{"name":"","type":"address","internalType":"address"}],"stateMutability":"view"},{"type":"function","name":"getMembershipCurrency","inputs":[],"outputs":[{"name":"","type":"address","internalType":"address"}],"stateMutability":"view"},{"type":"function","name":"getMembershipDuration","inputs":[],"outputs":[{"name":"","type":"uint64","internalType":"uint64"}],"stateMutability":"view"},{"type":"function","name":"getMembershipFreeAllocation","inputs":[],"outputs":[{"name":"","type":"uint256","internalType":"uint256"}],"stateMutability":"view"},{"type":"function","name":"getMembershipLimit","inputs":[],"outputs":[{"name":"","type":"uint256","internalType":"uint256"}],"stateMutability":"view"},{"type":"function","name":"getMembershipPrice","inputs":[],"outputs":[{"name":"","type":"uint256","internalType":"uint256"}],"stateMutability":"view"},{"type":"function","name":"getMembershipPricingModule","inputs":[],"outputs":[{"name":"","type":"address","internalType":"address"}],"stateMutability":"view"},{"type":"function","name":"getMembershipRenewalPrice","inputs":[{"name":"tokenId","type":"uint256","internalType":"uint256"}],"outputs":[{"name":"","type":"uint256","internalType":"uint256"}],"stateMutability":"view"},{"type":"function","name":"getSpaceFactory","inputs":[],"outputs":[{"name":"","type":"address","internalType":"address"}],"stateMutability":"view"},{"type":"function","name":"getTokenIdByMembership","inputs":[{"name":"member","type":"address","internalType":"address"}],"outputs":[{"name":"","type":"uint256","internalType":"uint256"}],"stateMutability":"view"},{"type":"function","name":"isApprovedForAll","inputs":[{"name":"owner","type":"address","internalType":"address"},{"name":"operator","type":"address","internalType":"address"}],"outputs":[{"name":"","type":"bool","internalType":"bool"}],"stateMutability":"view"},{"type":"function","name":"joinSpace","inputs":[{"name":"receiver","type":"address","internalType":"address"}],"outputs":[{"name":"tokenId","type":"uint256","internalType":"uint256"}],"stateMutability":"payable"},{"type":"function","name":"joinSpaceWithReferral","inputs":[{"name":"receiver","type":"address","internalType":"address"},{"name":"referrer","type":"address","internalType":"address"},{"name":"referralCode","type":"uint256","internalType":"uint256"}],"outputs":[{"name":"tokenId","type":"uint256","internalType":"uint256"}],"stateMutability":"payable"},{"type":"function","name":"name","inputs":[],"outputs":[{"name":"","type":"string","internalType":"string"}],"stateMutability":"view"},{"type":"function","name":"ownerOf","inputs":[{"name":"tokenId","type":"uint256","internalType":"uint256"}],"outputs":[{"name":"","type":"address","internalType":"address"}],"stateMutability":"view"},{"type":"function","name":"renewMembership","inputs":[{"name":"tokenId","type":"uint256","internalType":"uint256"}],"outputs":[],"stateMutability":"payable"},{"type":"function","name":"safeTransferFrom","inputs":[{"name":"from","type":"address","internalType":"address"},{"name":"to","type":"address","internalType":"address"},{"name":"tokenId","type":"uint256","internalType":"uint256"}],"outputs":[],"stateMutability":"payable"},{"type":"function","name":"safeTransferFrom","inputs":[{"name":"from","type":"address","internalType":"address"},{"name":"to","type":"address","internalType":"address"},{"name":"tokenId","type":"uint256","internalType":"uint256"},{"name":"_data","type":"bytes","internalType":"bytes"}],"outputs":[],"stateMutability":"payable"},{"type":"function","name":"setApprovalForAll","inputs":[{"name":"operator","type":"address","internalType":"address"},{"name":"approved","type":"bool","internalType":"bool"}],"outputs":[],"stateMutability":"nonpayable"},{"type":"function","name":"setMembershipDuration","inputs":[{"name":"newDuration","type":"uint64","internalType":"uint64"}],"outputs":[],"stateMutability":"nonpayable"},{"type":"function","name":"setMembershipFreeAllocation","inputs":[{"name":"newAllocation","type":"uint256","internalType":"uint256"}],"outputs":[],"stateMutability":"nonpayable"},{"type":"function","name":"setMembershipLimit","inputs":[{"name":"newLimit","type":"uint256","internalType":"uint256"}],"outputs":[],"stateMutability":"nonpayable"},{"type":"function","name":"setMembershipPrice","inputs":[{"name":"newPrice","type":"uint256","internalType":"uint256"}],"outputs":[],"stateMutability":"nonpayable"},{"type":"function","name":"setMembershipPricingModule","inputs":[{"name":"pricingModule","type":"address","internalType":"address"}],"outputs":[],"stateMutability":"nonpayable"},{"type":"function","name":"symbol","inputs":[],"outputs":[{"name":"","type":"string","internalType":"string"}],"stateMutability":"view"},{"type":"function","name":"tokenURI","inputs":[{"name":"tokenId","type":"uint256","internalType":"uint256"}],"outputs":[{"name":"","type":"string","internalType":"string"}],"stateMutability":"view"},{"type":"function","name":"totalSupply","inputs":[],"outputs":[{"name":"","type":"uint256","internalType":"uint256"}],"stateMutability":"view"},{"type":"function","name":"transferFrom","inputs":[{"name":"from","type":"address","internalType":"address"},{"name":"to","type":"address","internalType":"address"},{"name":"tokenId","type":"uint256","internalType":"uint256"}],"outputs":[],"stateMutability":"payable"},{"type":"function","name":"withdraw","inputs":[{"name":"account","type":"address","internalType":"address"}],"outputs":[],"stateMutability":"nonpayable"},{"type":"event","name":"Approval","inputs":[{"name":"owner","type":"address","indexed":true,"internalType":"address"},{"name":"approved","type":"address","indexed":true,"internalType":"address"},{"name":"tokenId","type":"uint256","indexed":true,"internalType":"uint256"}],"anonymous":false},{"type":"event","name":"ApprovalForAll","inputs":[{"name":"owner","type":"address","indexed":true,"internalType":"address"},{"name":"operator","type":"address","indexed":true,"internalType":"address"},{"name":"approved","type":"bool","indexed":false,"internalType":"bool"}],"anonymous":false},{"type":"event","name":"Banned","inputs":[{"name":"moderator","type":"address","indexed":true,"internalType":"address"},{"name":"tokenId","type":"uint256","indexed":true,"internalType":"uint256"}],"anonymous":false},{"type":"event","name":"ConsecutiveTransfer","inputs":[{"name":"fromTokenId","type":"uint256","indexed":true,"internalType":"uint256"},{"name":"toTokenId","type":"uint256","indexed":false,"internalType":"uint256"},{"name":"from","type":"address","indexed":true,"internalType":"address"},{"name":"to","type":"address","indexed":true,"internalType":"address"}],"anonymous":false},{"type":"event","name":"Initialized","inputs":[{"name":"version","type":"uint32","indexed":false,"internalType":"uint32"}],"anonymous":false},{"type":"event","name":"InterfaceAdded","inputs":[{"name":"interfaceId","type":"bytes4","indexed":true,"internalType":"bytes4"}],"anonymous":false},{"type":"event","name":"InterfaceRemoved","inputs":[{"name":"interfaceId","type":"bytes4","indexed":true,"internalType":"bytes4"}],"anonymous":false},{"type":"event","name":"MembershipCurrencyUpdated","inputs":[{"name":"currency","type":"address","indexed":true,"internalType":"address"}],"anonymous":false},{"type":"event","name":"MembershipFeeRecipientUpdated","inputs":[{"name":"recipient","type":"address","indexed":true,"internalType":"address"}],"anonymous":false},{"type":"event","name":"MembershipFreeAllocationUpdated","inputs":[{"name":"allocation","type":"uint256","indexed":true,"internalType":"uint256"}],"anonymous":false},{"type":"event","name":"MembershipLimitUpdated","inputs":[{"name":"limit","type":"uint256","indexed":true,"internalType":"uint256"}],"anonymous":false},{"type":"event","name":"MembershipPriceUpdated","inputs":[{"name":"price","type":"uint256","indexed":true,"internalType":"uint256"}],"anonymous":false},{"type":"event","name":"MembershipWithdrawal","inputs":[{"name":"recipient","type":"address","indexed":true,"internalType":"address"},{"name":"amount","type":"uint256","indexed":false,"internalType":"uint256"}],"anonymous":false},{"type":"event","name":"Membership__ReferralCreated","inputs":[{"name":"code","type":"uint256","indexed":true,"internalType":"uint256"},{"name":"bps","type":"uint16","indexed":false,"internalType":"uint16"}],"anonymous":false},{"type":"event","name":"Membership__ReferralRemoved","inputs":[{"name":"code","type":"uint256","indexed":true,"internalType":"uint256"}],"anonymous":false},{"type":"event","name":"Membership__ReferralTimeCreated","inputs":[{"name":"code","type":"uint256","indexed":true,"internalType":"uint256"},{"name":"bps","type":"uint16","indexed":false,"internalType":"uint16"},{"name":"startTime","type":"uint256","indexed":false,"internalType":"uint256"},{"name":"endTime","type":"uint256","indexed":false,"internalType":"uint256"}],"anonymous":false},{"type":"event","name":"OwnershipTransferred","inputs":[{"name":"previousOwner","type":"address","indexed":true,"internalType":"address"},{"name":"newOwner","type":"address","indexed":true,"internalType":"address"}],"anonymous":false},{"type":"event","name":"Paused","inputs":[{"name":"account","type":"address","indexed":false,"internalType":"address"}],"anonymous":false},{"type":"event","name":"SubscriptionUpdate","inputs":[{"name":"tokenId","type":"uint256","indexed":true,"internalType":"uint256"},{"name":"expiration","type":"uint64","indexed":false,"internalType":"uint64"}],"anonymous":false},{"type":"event","name":"Transfer","inputs":[{"name":"from","type":"address","indexed":true,"internalType":"address"},{"name":"to","type":"address","indexed":true,"internalType":"address"},{"name":"tokenId","type":"uint256","indexed":true,"internalType":"uint256"}],"anonymous":false},{"type":"event","name":"Unbanned","inputs":[{"name":"moderator","type":"address","indexed":true,"internalType":"address"},{"name":"tokenId","type":"uint256","indexed":true,"internalType":"uint256"}],"anonymous":false},{"type":"event","name":"Unpaused","inputs":[{"name":"account","type":"address","indexed":false,"internalType":"address"}],"anonymous":false},{"type":"error","name":"AddressEmptyCode","inputs":[{"name":"target","type":"address","internalType":"address"}]},{"type":"error","name":"AddressInsufficientBalance","inputs":[{"name":"account","type":"address","internalType":"address"}]},{"type":"error","name":"ApprovalCallerNotOwnerNorApproved","inputs":[]},{"type":"error","name":"ApprovalQueryForNonexistentToken","inputs":[]},{"type":"error","name":"BalanceQueryForZeroAddress","inputs":[]},{"type":"error","name":"Banning__AlreadyBanned","inputs":[{"name":"tokenId","type":"uint256","internalType":"uint256"}]},{"type":"error","name":"Banning__CannotBanSelf","inputs":[]},{"type":"error","name":"Banning__InvalidTokenId","inputs":[{"name":"tokenId","type":"uint256","internalType":"uint256"}]},{"type":"error","name":"Banning__NotBanned","inputs":[{"name":"tokenId","type":"uint256","internalType":"uint256"}]},{"type":"error","name":"ERC5643__DurationZero","inputs":[]},{"type":"error","name":"ERC5643__InvalidTokenId","inputs":[{"name":"tokenId","type":"uint256","internalType":"uint256"}]},{"type":"error","name":"ERC5643__NotApprovedOrOwner","inputs":[]},{"type":"error","name":"ERC5643__SubscriptionNotRenewable","inputs":[{"name":"tokenId","type":"uint256","internalType":"uint256"}]},{"type":"error","name":"Entitlement__InvalidValue","inputs":[]},{"type":"error","name":"Entitlement__NotAllowed","inputs":[]},{"type":"error","name":"Entitlement__NotMember","inputs":[]},{"type":"error","name":"Entitlement__ValueAlreadyExists","inputs":[]},{"type":"error","name":"FailedInnerCall","inputs":[]},{"type":"error","name":"Initializable_InInitializingState","inputs":[]},{"type":"error","name":"Initializable_NotInInitializingState","inputs":[]},{"type":"error","name":"Introspection_AlreadySupported","inputs":[]},{"type":"error","name":"Introspection_NotSupported","inputs":[]},{"type":"error","name":"Membership__AlreadyMember","inputs":[]},{"type":"error","name":"Membership__InsufficientAllowance","inputs":[]},{"type":"error","name":"Membership__InsufficientPayment","inputs":[]},{"type":"error","name":"Membership__InvalidAddress","inputs":[]},{"type":"error","name":"Membership__InvalidCurrency","inputs":[]},{"type":"error","name":"Membership__InvalidDuration","inputs":[]},{"type":"error","name":"Membership__InvalidFeeRecipient","inputs":[]},{"type":"error","name":"Membership__InvalidFreeAllocation","inputs":[]},{"type":"error","name":"Membership__InvalidLimit","inputs":[]},{"type":"error","name":"Membership__InvalidMaxSupply","inputs":[]},{"type":"error","name":"Membership__InvalidPrice","inputs":[]},{"type":"error","name":"Membership__InvalidPricingModule","inputs":[]},{"type":"error","name":"Membership__InvalidReferralBps","inputs":[]},{"type":"error","name":"Membership__InvalidReferralCode","inputs":[]},{"type":"error","name":"Membership__InvalidReferralTime","inputs":[]},{"type":"error","name":"Membership__InvalidTokenId","inputs":[]},{"type":"error","name":"Membership__MaxSupplyReached","inputs":[]},{"type":"error","name":"Membership__NotExpired","inputs":[]},{"type":"error","name":"Membership__PriceTooLow","inputs":[]},{"type":"error","name":"MintERC2309QuantityExceedsLimit","inputs":[]},{"type":"error","name":"MintToZeroAddress","inputs":[]},{"type":"error","name":"MintZeroQuantity","inputs":[]},{"type":"error","name":"Ownable__NotOwner","inputs":[{"name":"account","type":"address","internalType":"address"}]},{"type":"error","name":"Ownable__ZeroAddress","inputs":[]},{"type":"error","name":"OwnerQueryForNonexistentToken","inputs":[]},{"type":"error","name":"OwnershipNotInitializedForExtraData","inputs":[]},{"type":"error","name":"Pausable__NotPaused","inputs":[]},{"type":"error","name":"Pausable__Paused","inputs":[]},{"type":"error","name":"ReentrancyGuard__ReentrantCall","inputs":[]},{"type":"error","name":"SafeERC20FailedOperation","inputs":[{"name":"token","type":"address","internalType":"address"}]},{"type":"error","name":"TransferCallerNotOwnerNorApproved","inputs":[]},{"type":"error","name":"TransferFromIncorrectOwner","inputs":[]},{"type":"error","name":"TransferToNonERC721ReceiverImplementer","inputs":[]},{"type":"error","name":"TransferToZeroAddress","inputs":[]},{"type":"error","name":"URIQueryForNonexistentToken","inputs":[]}],"bytecode":{"object":"0x60806040523480156200001157600080fd5b506200001c62000022565b620000ca565b7f59b501c3653afc186af7d48dda36cf6732bd21629a6295693664240a6ef520008054640100000000900460ff16156200006f576040516366008a2d60e01b815260040160405180910390fd5b805463ffffffff9081161015620000c757805463ffffffff191663ffffffff90811782556040519081527fe9c9b456cb2994b80aeef036cf59d26e9617df80f816a6ee5a5b4166e07e2f5c9060200160405180910390a15b50565b613e4480620000da6000396000f3fe6080604052600436106102675760003560e01c806379dda58511610144578063ac7ee626116100b6578063c9f7c8331161007a578063c9f7c8331461069a578063d2f01f19146106ad578063df9a9fe6146106cd578063e847abdd146106ed578063e985e9c514610702578063f9d5d22c1461073257600080fd5b8063ac7ee6261461061d578063b3a5be6d14610632578063b6697f9314610647578063b88d4fde14610667578063c87b56dd1461067a57600080fd5b806389def3201161010857806389def320146105805780638c625b06146105a057806395d600c8146105b357806395d89b41146105c857806397fb7c1e146105dd578063a22cb465146105fd57600080fd5b806379dda585146104f65780637c9669ac1461050b5780638120f0ba1461051e57806383f3f0dc1461054b5780638934207f1461056b57600080fd5b80635803909f116101dd57806369d9346b116101a157806369d9346b146104575780637025156314610477578063706b8e091461048c57806370a08231146104a157806373fc5a05146104c157806377460cd3146104e157600080fd5b80635803909f146103c25780635becd24a146103e25780636352211e14610402578063657e45e81461042257806369d5f38a1461043757600080fd5b806318160ddd1161022f57806318160ddd1461032757806323b872dd1461033c5780633ded10de1461034f57806342842e0e1461036f5780634c2abfbe1461038257806351cff8d9146103a257600080fd5b806306fdde031461026c578063081812fc14610297578063095ea7b3146102cf5780631278076a146102e457806317c9570914610307575b600080fd5b34801561027857600080fd5b50610281610752565b60405161028e919061354a565b60405180910390f35b3480156102a357600080fd5b506102b76102b236600461355d565b6107ed565b6040516001600160a01b03909116815260200161028e565b6102e26102dd366004613596565b6107fe565b005b3480156102f057600080fd5b506102f961080e565b60405190815260200161028e565b34801561031357600080fd5b506102f961032236600461355d565b610820565b34801561033357600080fd5b506102f961083a565b6102e261034a3660046135c2565b610844565b34801561035b57600080fd5b506102f961036a36600461355d565b610a36565b6102e261037d3660046135c2565b610bc5565b34801561038e57600080fd5b506102e261039d366004613709565b610be5565b3480156103ae57600080fd5b506102e26103bd366004613812565b610c5b565b3480156103ce57600080fd5b506102f96103dd36600461355d565b610d02565b3480156103ee57600080fd5b506102e26103fd36600461355d565b610d15565b34801561040e57600080fd5b506102b761041d36600461355d565b610d9a565b34801561042e57600080fd5b506102b7610da5565b34801561044357600080fd5b506102e261045236600461355d565b610daf565b34801561046357600080fd5b506102e2610472366004613812565b610e5d565b34801561048357600080fd5b506102b7610e8a565b34801561049857600080fd5b506102f9610ea6565b3480156104ad57600080fd5b506102f96104bc366004613812565b610eb0565b3480156104cd57600080fd5b506102e26104dc36600461355d565b610ee3565b3480156104ed57600080fd5b506102b7610ef3565b34801561050257600080fd5b506102b7610f0f565b6102e261051936600461355d565b610f19565b34801561052a57600080fd5b5061053361102e565b6040516001600160401b03909116815260200161028e565b34801561055757600080fd5b506102e261056636600461382f565b611038565b34801561057757600080fd5b506102f9611073565b34801561058c57600080fd5b506102e261059b36600461355d565b611086565b6102f96105ae366004613812565b61111c565b3480156105bf57600080fd5b506102f96111fc565b3480156105d457600080fd5b50610281611206565b3480156105e957600080fd5b506102e26105f836600461355d565b61121e565b34801561060957600080fd5b506102e261061836600461385a565b611273565b34801561062957600080fd5b506102b76112f0565b34801561063e57600080fd5b506102f961130c565b34801561065357600080fd5b506102f9610662366004613812565b6113ae565b6102e2610675366004613893565b6113b9565b34801561068657600080fd5b5061028161069536600461355d565b611403565b6102f96106a83660046135c2565b611494565b3480156106b957600080fd5b506102e26106c8366004613912565b6115ad565b3480156106d957600080fd5b506102e26106e8366004613812565b611601565b3480156106f957600080fd5b506102b761164e565b34801561070e57600080fd5b5061072261071d366004613975565b611658565b604051901515815260200161028e565b34801561073e57600080fd5b506102e261074d36600461355d565b611664565b606061075c6116a7565b600201805461076a906139a3565b80601f0160208091040260200160405190810160405280929190818152602001828054610796906139a3565b80156107e35780601f106107b8576101008083540402835291602001916107e3565b820191906000526020600020905b8154815290600101906020018083116107c657829003601f168201915b5050505050905090565b60006107f8826116cb565b92915050565b61080a82826001611718565b5050565b600061081b61036a6117cd565b905090565b600061082b826117ec565b6001600160401b031692915050565b600061081b6117cd565b600061084f82611826565b9050836001600160a01b0316816001600160a01b0316146108825760405162a1148160e81b815260040160405180910390fd5b60008061088e846118c1565b915091506108b3818761089e3390565b6001600160a01b039081169116811491141790565b6108de576108c18633611658565b6108de57604051632ce44b5f60e11b815260040160405180910390fd5b6001600160a01b03851661090557604051633a954ecd60e21b815260040160405180910390fd5b61091286868660016118e9565b801561091d57600082555b6109256116a7565b6001600160a01b03871660009081526005919091016020526040902080546000190190556109516116a7565b6001600160a01b03861660008181526005929092016020526040909120805460010190554260a01b17600160e11b176109886116a7565b60008681526004919091016020526040812091909155600160e11b841690036109fe57600184016109b76116a7565b6000828152600491909101602052604081205490036109fc576109d86116a7565b5481146109fc57836109e86116a7565b600083815260049190910160205260409020555b505b83856001600160a01b0316876001600160a01b0316600080516020613e2483398151915260405160405180910390a45b505050505050565b600080610a416118f3565b90506000610a4d61130c565b905083811115610a61575060009392505050565b6006820154604051639262b1b360e01b815230600482015285916001600160a01b031690639262b1b390602401602060405180830381865afa158015610aab573d6000803e3d6000fd5b505050506040513d601f19601f82011682018060405250810190610acf91906139d7565b1115610adf575060009392505050565b60088201546001600160a01b031615610b70576008820154604051635cf4ee9160e01b815260048101839052602481018690526001600160a01b0390911690635cf4ee9190604401602060405180830381865afa158015610b44573d6000803e3d6000fd5b505050506040513d601f19601f82011682018060405250810190610b6891906139d7565b949350505050565b8160060160009054906101000a90046001600160a01b03166001600160a01b0316630eac306d6040518163ffffffff1660e01b8152600401602060405180830381865afa158015610b44573d6000803e3d6000fd5b610be0838383604051806020016040528060008152506113b9565b505050565b7f59b501c3653afc186af7d48dda36cf6732bd21629a6295693664240a6ef5200054640100000000900460ff16610c2f57604051630ef4733760e31b815260040160405180910390fd5b610c3f630318da4960e51b611917565b610c4982826119f5565b61080a82600001518360200151611b18565b610c63611b8c565b6001600160a01b0316336001600160a01b031614610c9b576040516365f4906560e01b81523360048201526024015b60405180910390fd5b6001600160a01b038116610cc257604051635fbd571760e01b815260040160405180910390fd5b6000610ccc611c50565b905080600003610cef57604051635894b54560e11b815260040160405180910390fd5b61080a610cfa610e8a565b308484611c63565b60006107f882610d106117cd565b611cb2565b610d1d611b8c565b6001600160a01b0316336001600160a01b031614610d50576040516365f4906560e01b8152336004820152602401610c92565b6000610d5a611073565b90508015801590610d6a57508082115b15610d885760405163c3983b9160e01b815260040160405180910390fd5b610d9182611cf8565b61080a82611664565b60006107f882611826565b600061081b610e8a565b610db7611b8c565b6001600160a01b0316336001600160a01b031614610dea576040516365f4906560e01b8152336004820152602401610c92565b610df381611d9d565b610dfb6112f0565b6001600160a01b03166391b7f5ed826040518263ffffffff1660e01b8152600401610e2891815260200190565b600060405180830381600087803b158015610e4257600080fd5b505af1158015610e56573d6000803e3d6000fd5b5050505050565b80610e666118f3565b60080180546001600160a01b0319166001600160a01b039290921691909117905550565b6000610e946118f3565b600401546001600160a01b0316919050565b600061081b61130c565b600042610ec4610ebf84611e2b565b6117ec565b6001600160401b031611610eda57506000919050565b6107f882611e57565b80610eec6118f3565b6003015550565b6000610efd6118f3565b600601546001600160a01b0316919050565b600061081b610ef3565b6002600080516020613e048339815191525403610f4957604051635db5c7cd60e11b815260040160405180910390fd5b610f606002600080516020613e0483398151915255565b6000610f6b82610d9a565b90506001600160a01b038116610f9457604051635fbd571760e01b815260040160405180910390fd5b610f9d82611ebf565b610fba5760405163dce9a1d360e01b815260040160405180910390fd5b6000610fc883610d106117cd565b90508015611001576000610fdc8383611ef6565b90506000610fea8284613a06565b90508015610ffe57610ffc848261204f565b505b50505b6110128361100d61222d565b6122b3565b505061102b6001600080516020613e0483398151915255565b50565b600061081b61222d565b611040611b8c565b6001600160a01b0316336001600160a01b03161461102b576040516365f4906560e01b8152336004820152602401610c92565b600061107d6118f3565b60030154905090565b6002600080516020613e0483398151915254036110b657604051635db5c7cd60e11b815260040160405180910390fd5b6110cd6002600080516020613e0483398151915255565b6110d6816123a5565b6110f3576040516367d9dca160e11b815260040160405180910390fd5b6110fc816123fb565b61110581612406565b61102b6001600080516020613e0483398151915255565b60006002600080516020613e04833981519152540361114e57604051635db5c7cd60e11b815260040160405180910390fd5b6111656002600080516020613e0483398151915255565b61116e82612479565b611176612561565b9050600061118561036a6117cd565b905080156111c8576111978282612571565b60006111a38483611ef6565b905060006111b18284613a06565b905080156111c5576111c3858261204f565b505b50505b6111d3836001612591565b6111df8261100d61222d565b506111f76001600080516020613e0483398151915255565b919050565b600061081b611073565b60606112106116a7565b600301805461076a906139a3565b611226611b8c565b6001600160a01b0316336001600160a01b031614611259576040516365f4906560e01b8152336004820152602401610c92565b61126a816112656117cd565b6125ab565b61102b81610ee3565b8061127c6116a7565b336000818152600792909201602090815260408084206001600160a01b03881680865290835293819020805460ff19169515159590951790945592518415158152919290917f17307eab39ab6107e8899845ad3d59bd9653f200f220920489ca2b5937696c31910160405180910390a35050565b60006112fa6118f3565b600801546001600160a01b0316919050565b6000806113176118f3565b600701549050801561132857919050565b6113306118f3565b60060160009054906101000a90046001600160a01b03166001600160a01b0316632cbb9d136040518163ffffffff1660e01b8152600401602060405180830381865afa158015611384573d6000803e3d6000fd5b505050506040513d601f19601f820116820180604052508101906113a891906139d7565b91505090565b60006107f882611e2b565b6113c4848484610844565b6001600160a01b0383163b156113fd576113e0848484846125cc565b6113fd576040516368d2bf6b60e11b815260040160405180910390fd5b50505050565b606061140e826126b7565b61142b57604051630a14c4b560e41b815260040160405180910390fd5b600061144260408051602081019091526000815290565b90508051600003611462576040518060200160405280600081525061148d565b8061146c846126f3565b60405160200161147d929190613a19565b6040516020818303038152906040525b9392505050565b60006002600080516020613e0483398151915254036114c657604051635db5c7cd60e11b815260040160405180910390fd5b6114dd6002600080516020613e0483398151915255565b6114e684612479565b6114ee612561565b905060006114fd61036a6117cd565b9050801561157e5761150f8282612571565b600061151b8683611ef6565b905060006115298284613a06565b90506000611535610e8a565b9050811561157a5760006115498388612737565b9050611557828a8a84611c63565b60006115638285613a06565b90508015611577576115758a8261204f565b505b50505b5050505b611589856001612591565b6115958261100d61222d565b5061148d6001600080516020613e0483398151915255565b7f59b501c3653afc186af7d48dda36cf6732bd21629a6295693664240a6ef5200054640100000000900460ff166115f757604051630ef4733760e31b815260040160405180910390fd5b61080a8282611b18565b611609611b8c565b6001600160a01b0316336001600160a01b03161461163c576040516365f4906560e01b8152336004820152602401610c92565b611645816127ea565b61102b81610e5d565b600061081b6112f0565b600061148d83836128a2565b600061166e6118f3565b6007810183905560405190915082907fab14a23e88fb272313490d4f20d63098e64fd38304c0e07a377db98c2b39b92f90600090a25050565b7f6569bde4a160c636ea8b8d11acb83a60d7fec0b8f2e09389306cba0e1340df0090565b60006116d6826126b7565b6116f3576040516333d1c03960e21b815260040160405180910390fd5b6116fb6116a7565b60009283526006016020525060409020546001600160a01b031690565b600061172383610d9a565b9050811561176257336001600160a01b038216146117625761174581336128a2565b611762576040516367d9dca160e11b815260040160405180910390fd5b8361176b6116a7565b6000858152600691909101602052604080822080546001600160a01b0319166001600160a01b0394851617905551859287811692908516917f8c5be1e5ebec7d5bd14f71427d1e84f3dd0314c0f7b2291e5b200ac8c7c3b9259190a450505050565b6000806117d86116a7565b600101546117e46116a7565b540303919050565b60009081527f4775a23600034fdd9f073b224f794d51a58b35ba663a9602623ba7a5c09cce0060205260409020546001600160401b031690565b6000806118316116a7565b60008481526004820160205260408120549350909150600160e01b831690036118a757816000036118a1578054831061187d57604051636f96cda160e11b815260040160405180910390fd5b5b60001990920160008181526004840160205260409020549092909150811561187e575b50919050565b50604051636f96cda160e11b815260040160405180910390fd5b60008060006118ce6116a7565b60009485526006016020525050604090912080549092909150565b6113fd82846128df565b7fc21004fcc619240a31f006438274d15cd813308303284436eef6055f0fdcb60090565b6001600160e01b0319811660009081527f81088bbc801e045ea3e7620779ab349988f58afbdfba10dff983df3f33522b00602052604090205460ff1615156001146119a4576001600160e01b0319811660009081527f81088bbc801e045ea3e7620779ab349988f58afbdfba10dff983df3f33522b0060205260409020805460ff191660011790556119bd565b604051637967f77d60e11b815260040160405180910390fd5b6040516001600160e01b03198216907f78f84e5b1c5c05be2b5ad3800781dd404d6d6c6302bc755c0fe20f58a33a7f2290600090a250565b60006119ff6118f3565b6006810180546001600160a01b038086166001600160a01b031992831617909255610100860151600884018054919093169082161790915560048201805490911673eeeeeeeeeeeeeeeeeeeeeeeeeeeeeeeeeeeeeeee1790556060840151600382015560e08401516007820181905590915015611a8357611a838360e00151611cf8565b611a918361010001516127ea565b604083015115610be057611aa88360400151611d9d565b600881015460408085015190516391b7f5ed60e01b81526001600160a01b03909216916391b7f5ed91611ae19160040190815260200190565b600060405180830381600087803b158015611afb57600080fd5b505af1158015611b0f573d6000803e3d6000fd5b50505050505050565b7f59b501c3653afc186af7d48dda36cf6732bd21629a6295693664240a6ef5200054640100000000900460ff16611b6257604051630ef4733760e31b815260040160405180910390fd5b611b726380ac58cd60e01b611917565b611b82635b5e139f60e01b611917565b61080a8282612909565b6040805180820182527fd2f24d4f172e4e84e48e7c4125b6e904c29e5eba33ad4938fee51dd5dbd4b600546001600160a01b03168082527fd2f24d4f172e4e84e48e7c4125b6e904c29e5eba33ad4938fee51dd5dbd4b60154602080840182905284516331a9108f60e11b815260048101929092529351600094636352211e92602480820193918290030181865afa158015611c2c573d6000803e3d6000fd5b505050506040513d601f19601f820116820180604052508101906113a89190613a48565b6000611c5a6118f3565b600a0154905090565b816001600160a01b03167f6a88f9e03ef4a1786c4d5b1eb17d944dbdecbd661e86a6b18dfa7aaa28f172be82604051611c9e91815260200190565b60405180910390a26113fd8484848461293b565b600080611cbd6118f3565b600085815260098201602052604090205490915015611cef5760008481526009909101602052604090205490506107f8565b610b6883610a36565b6000611d026118f3565b90508060060160009054906101000a90046001600160a01b03166001600160a01b0316632cbb9d136040518163ffffffff1660e01b8152600401602060405180830381865afa158015611d59573d6000803e3d6000fd5b505050506040513d601f19601f82011682018060405250810190611d7d91906139d7565b82111561080a5760405163c3983b9160e01b815260040160405180910390fd5b6000611da7610ef3565b6001600160a01b0316630eac306d6040518163ffffffff1660e01b8152600401602060405180830381865afa158015611de4573d6000803e3d6000fd5b505050506040513d601f19601f82011682018060405250810190611e0891906139d7565b90508082101561080a57604051631a23d64760e11b815260040160405180910390fd5b6000611e356118f3565b6001600160a01b03909216600090815260019290920160205250604090205490565b60006001600160a01b038216611e80576040516323d3ad8160e21b815260040160405180910390fd5b6001600160401b03611e906116a7565b6005016000846001600160a01b03166001600160a01b0316815260200190815260200160002054169050919050565b600042611eca61222d565b6001600160401b0316611edd9190613a65565b611ee6836117ec565b6001600160401b03161092915050565b600080611f016118f3565b600681015460048201549192506001600160a01b03908116911673eeeeeeeeeeeeeeeeeeeeeeeeeeeeeeeeeeeeeeee81148015611f3e5750843414155b15611f5c57604051635894b54560e11b815260040160405180910390fd5b6000826001600160a01b0316634ccb20c06040518163ffffffff1660e01b8152600401602060405180830381865afa158015611f9c573d6000803e3d6000fd5b505050506040513d601f19601f82011682018060405250810190611fc09190613a48565b90506000836001600160a01b0316639f6542aa6040518163ffffffff1660e01b8152600401602060405180830381865afa158015612002573d6000803e3d6000fd5b505050506040513d601f19601f820116820180604052508101906120269190613a78565b9050612036878261ffff16612981565b95506120448389848961293b565b505050505092915050565b60008061205a6118f3565b90506000612066610e8a565b905073eeeeeeeeeeeeeeeeeeeeeeeeeeeeeeeeeeeeeeed196001600160a01b038216016120d257346000036120ae57604051635894b54560e11b815260040160405180910390fd5b8382600a0160008282546120c29190613a65565b909155508493506107f892505050565b34156120f157604051636da3122b60e01b815260040160405180910390fd5b6040516370a0823160e01b815230600482015281906000906001600160a01b038316906370a0823190602401602060405180830381865afa15801561213a573d6000803e3d6000fd5b505050506040513d601f19601f8201168201806040525081019061215e91906139d7565b905061216c8388308961293b565b6040516370a0823160e01b81523060048201526000906001600160a01b038416906370a0823190602401602060405180830381865afa1580156121b3573d6000803e3d6000fd5b505050506040513d601f19601f820116820180604052508101906121d791906139d7565b905060006121e58383613a06565b905087811461220757604051635894b54560e11b815260040160405180910390fd5b8086600a01600082825461221b9190613a65565b90915550909998505050505050505050565b6000806122386118f3565b90508060060160009054906101000a90046001600160a01b03166001600160a01b0316638120f0ba6040518163ffffffff1660e01b8152600401602060405180830381865afa15801561228f573d6000803e3d6000fd5b505050506040513d601f19601f820116820180604052508101906113a89190613a9c565b60008281527f4775a23600034fdd9f073b224f794d51a58b35ba663a9602623ba7a5c09cce006020819052604082205490916001600160401b0390911690818103612309576123028442613ab9565b905061233f565b61231285611ebf565b61233257604051637be9098d60e11b815260048101869052602401610c92565b61233c8483613ab9565b90505b60008581526020848152604091829020805467ffffffffffffffff19166001600160401b038516908117909155915191825286917f2ec2be2c4b90c2cf13ecb6751a24daed6bb741ae5ed3f7371aabf9402f6d62e8910160405180910390a25050505050565b6000806123b183610d9a565b9050336001600160a01b0382168114806123d057506123d082826128a2565b80610b685750806001600160a01b03166123e9856116cb565b6001600160a01b031614949350505050565b61102b8160006129f6565b7f4775a23600034fdd9f073b224f794d51a58b35ba663a9602623ba7a5c09cce00600082815260209182526040808220805467ffffffffffffffff191690555190815282917f2ec2be2c4b90c2cf13ecb6751a24daed6bb741ae5ed3f7371aabf9402f6d62e8910160405180910390a250565b6001600160a01b0381166124a057604051635fbd571760e01b815260040160405180910390fd5b60006124ab33611e57565b11156124ca576040516316d9a23f60e31b815260040160405180910390fd5b60006124d582611e57565b11156124f4576040516316d9a23f60e31b815260040160405180910390fd5b6124fc611073565b15801590612518575061250d611073565b6125156117cd565b10155b1561253657604051637efcdb4960e01b815260040160405180910390fd5b61102b604051806040016040528060098152602001684a6f696e537061636560b81b81525082612b45565b600061256b6116a7565b54919050565b8061257a6118f3565b600093845260090160205260409092209190915550565b61080a828260405180602001604052806000815250612b6e565b8082101561080a57604051636664d51760e11b815260040160405180910390fd5b604051630a85bd0160e11b81526000906001600160a01b0385169063150b7a0290612601903390899088908890600401613ae0565b6020604051808303816000875af192505050801561263c575060408051601f3d908101601f1916820190925261263991810190613b13565b60015b61269a573d80801561266a576040519150601f19603f3d011682016040523d82523d6000602084013e61266f565b606091505b508051600003612692576040516368d2bf6b60e11b815260040160405180910390fd5b805181602001fd5b6001600160e01b031916630a85bd0160e11b149050949350505050565b60006126c16116a7565b54821080156107f85750600160e01b6126d86116a7565b60008481526004919091016020526040902054161592915050565b606060a06040510180604052602081039150506000815280825b600183039250600a81066030018353600a90048061270d5750819003601f19909101908152919050565b60008181527f3c2290b88407133303e904ceb4ee7d0d14164eda8a629372d8406216ceb57e006020819052604082205461ffff1680830361277d576000925050506107f8565b6000848152600180840160209081526040928390208351808501909452805480855292015490830152158015906127c1575080514210806127c15750806020015142115b156127d257600093505050506107f8565b6127e0868361ffff16612981565b9695505050505050565b6001600160a01b03811661281157604051630e88bf4b60e01b815260040160405180910390fd5b612819610ef3565b6040516346fc05eb60e11b81526001600160a01b0383811660048301529190911690638df80bd690602401602060405180830381865afa158015612861573d6000803e3d6000fd5b505050506040513d601f19601f820116820180604052508101906128859190613b3d565b61102b57604051630e88bf4b60e01b815260040160405180910390fd5b60006128ac6116a7565b6001600160a01b039384166000908152600791909101602090815260408083209490951682529290925250205460ff1690565b60006128e96118f3565b6001600160a01b0390921660009081526001909201602052506040902055565b60006129136116a7565b9050600281016129238482613ba2565b50600381016129328382613ba2565b50600090555050565b80156113fd5773eeeeeeeeeeeeeeeeeeeeeeeeeeeeeeeeeeeeeeed196001600160a01b03851601612975576129708282612be4565b6113fd565b6113fd84848484612c87565b60006127108211156129df5760405162461bcd60e51b815260206004820152602160248201527f426173697320706f696e74732063616e6e6f74206578636565642031305f30306044820152600360fc1b6064820152608401610c92565b6127106129ec8385613c61565b61148d9190613c78565b6000612a0183611826565b905080600080612a10866118c1565b915091508415612a5057612a2581843361089e565b612a5057612a3383336128a2565b612a5057604051632ce44b5f60e11b815260040160405180910390fd5b612a5e8360008860016118e9565b8015612a6957600082555b6000612a736116a7565b6001600160a01b0385166000818152600583016020526040902080546fffffffffffffffffffffffffffffffff0190559091504260a01b17600360e01b176000888152600483016020526040812091909155600160e11b86169003612b0b576001870160008181526004830160205260408120549003612b095781548114612b0957600081815260048301602052604090208690555b505b60405187906000906001600160a01b03871690600080516020613e24833981519152908390a4600190810180549091019055505050505050565b612b5160008383612cda565b61080a57604051630ce39a4b60e21b815260040160405180910390fd5b612b788383612d5e565b6001600160a01b0383163b15610be0576000612b926116a7565b5490508281035b612bac60008683806001019450866125cc565b612bc9576040516368d2bf6b60e11b815260040160405180910390fd5b818110612b995781612bd96116a7565b5414610e5657600080fd5b6000826001600160a01b03168260405160006040518083038185875af1925050503d8060008114612c31576040519150601f19603f3d011682016040523d82523d6000602084013e612c36565b606091505b5050905080610be05760405162461bcd60e51b815260206004820152601c60248201527f6e617469766520746f6b656e207472616e73666572206661696c6564000000006044820152606401610c92565b816001600160a01b0316836001600160a01b031603156113fd57306001600160a01b03841603612cc5576129706001600160a01b0385168383612e82565b6113fd6001600160a01b038516848484612ee1565b6000816001600160a01b0316612cee611b8c565b6001600160a01b03161480610b6857507fe17a067c7963a59b6dfd65d33b053fdbea1c56500e2aae4f976d9eda4da9eb005460ff16158015610b685750610b68848385604051602001612d419190613c9a565b604051602081830303815290604052612d5990613cb6565b612f1a565b6000612d686116a7565b5490506000829003612d8d5760405163b562e8dd60e01b815260040160405180910390fd5b612d9a60008483856118e9565b680100000000000000018202612dae6116a7565b6001600160a01b038516600081815260059290920160205260409091208054929092019091554260a01b6001841460e11b1717612de96116a7565b600083815260049190910160205260408120919091556001600160a01b038416908383019083908390600080516020613e248339815191528180a4600183015b818114612e4f5780836000600080516020613e24833981519152600080a4600101612e29565b5081600003612e7057604051622e076360e81b815260040160405180910390fd5b80612e796116a7565b5550610be09050565b6040516001600160a01b03838116602483015260448201839052610be091859182169063a9059cbb906064015b604051602081830303815290604052915060e01b6020820180516001600160e01b03838183161783525050505061319a565b6040516001600160a01b0384811660248301528381166044830152606482018390526113fd9186918216906323b872dd90608401612eaf565b600080612f26846131fd565b8051909150600080612f36611b8c565b90506000805b84811015612fe7576000868281518110612f5857612f58613cda565b60200260200101519050836001600160a01b0316878381518110612f7e57612f7e613cda565b60200260200101516001600160a01b031603612fa457600197505050505050505061148d565b612fad81613386565b15612fde5760019450612fbe6118f3565b6001600160a01b0382166000908152600191909101602052604090205492505b50600101612f3c565b5060008181527f49daf035076c43671ca9f9fb568d931e51ab7f9098a5a694781b45341112cf02602052604090205460ff161561302c5760009550505050505061148d565b7fa558e822bd359dacbe30f0da89cbfde5f95895b441e13a4864caec1423c9310060006130787fa558e822bd359dacbe30f0da89cbfde5f95895b441e13a4864caec1423c93101613399565b905060005b81811015613188576000838161309660018301856133a3565b6001600160a01b039081168252602080830193909352604091820160002082516060810184529054918216815260ff600160a01b83048116151594820194909452600160a81b909104909216158015918301829052919250613168575080600001516001600160a01b0316630cf0b5338e8b8e6040518463ffffffff1660e01b815260040161312793929190613cf0565b602060405180830381865afa158015613144573d6000803e3d6000fd5b505050506040513d601f19601f820116820180604052508101906131689190613b3d565b1561317f576001995050505050505050505061148d565b5060010161307d565b5060009b9a5050505050505050505050565b60006131af6001600160a01b038416836133af565b905080516000141580156131d45750808060200190518101906131d29190613b3d565b155b15610be057604051635274afe760e01b81526001600160a01b0384166004820152602401610c92565b606060006132327f438e2013c1d3a5bb9642eb30342f1d83ec0d3add620b71cdaf5043d9570b0a95546001600160a01b031690565b60405162468b7360e31b81526001600160a01b0385811660048301529192506000918316906302345b9890602401600060405180830381865afa15801561327d573d6000803e3d6000fd5b505050506040513d6000823e601f3d908101601f191682016040526132a59190810190613d52565b805190915060006132b7826001613a65565b6001600160401b038111156132ce576132ce613603565b6040519080825280602002602001820160405280156132f7578160200160208202803683370190505b50905060005b828110156133515783818151811061331757613317613cda565b602002602001015182828151811061333157613331613cda565b6001600160a01b03909216602092830291909101909101526001016132fd565b508581838151811061336557613365613cda565b6001600160a01b039092166020928302919091019091015295945050505050565b60008061339283611e57565b1192915050565b60006107f8825490565b600061148d83836133bd565b606061148d838360006133e7565b60008260000182815481106133d4576133d4613cda565b9060005260206000200154905092915050565b60608147101561340c5760405163cd78605960e01b8152306004820152602401610c92565b600080856001600160a01b031684866040516134289190613c9a565b60006040518083038185875af1925050503d8060008114613465576040519150601f19603f3d011682016040523d82523d6000602084013e61346a565b606091505b50915091506127e086838360608261348a57613485826134d1565b61148d565b81511580156134a157506001600160a01b0384163b155b156134ca57604051639996b31560e01b81526001600160a01b0385166004820152602401610c92565b508061148d565b8051156134e15780518082602001fd5b604051630a12f52160e11b815260040160405180910390fd5b60005b838110156135155781810151838201526020016134fd565b50506000910152565b600081518084526135368160208601602086016134fa565b601f01601f19169290920160200192915050565b60208152600061148d602083018461351e565b60006020828403121561356f57600080fd5b5035919050565b6001600160a01b038116811461102b57600080fd5b80356111f781613576565b600080604083850312156135a957600080fd5b82356135b481613576565b946020939093013593505050565b6000806000606084860312156135d757600080fd5b83356135e281613576565b925060208401356135f281613576565b929592945050506040919091013590565b634e487b7160e01b600052604160045260246000fd5b60405161012081016001600160401b038111828210171561363c5761363c613603565b60405290565b604051601f8201601f191681016001600160401b038111828210171561366a5761366a613603565b604052919050565b60006001600160401b0383111561368b5761368b613603565b61369e601f8401601f1916602001613642565b90508281528383830111156136b257600080fd5b828260208301376000602084830101529392505050565b600082601f8301126136da57600080fd5b61148d83833560208501613672565b6001600160401b038116811461102b57600080fd5b80356111f7816136e9565b6000806040838503121561371c57600080fd5b82356001600160401b038082111561373357600080fd5b90840190610120828703121561374857600080fd5b613750613619565b82358281111561375f57600080fd5b61376b888286016136c9565b82525060208301358281111561378057600080fd5b61378c888286016136c9565b60208301525060408301356040820152606083013560608201526137b2608084016136fe565b60808201526137c360a0840161358b565b60a08201526137d460c0840161358b565b60c082015260e083013560e082015261010091506137f382840161358b565b828201528094505050506138096020840161358b565b90509250929050565b60006020828403121561382457600080fd5b813561148d81613576565b60006020828403121561384157600080fd5b813561148d816136e9565b801515811461102b57600080fd5b6000806040838503121561386d57600080fd5b823561387881613576565b915060208301356138888161384c565b809150509250929050565b600080600080608085870312156138a957600080fd5b84356138b481613576565b935060208501356138c481613576565b92506040850135915060608501356001600160401b038111156138e657600080fd5b8501601f810187136138f757600080fd5b61390687823560208401613672565b91505092959194509250565b6000806040838503121561392557600080fd5b82356001600160401b038082111561393c57600080fd5b613948868387016136c9565b9350602085013591508082111561395e57600080fd5b5061396b858286016136c9565b9150509250929050565b6000806040838503121561398857600080fd5b823561399381613576565b9150602083013561388881613576565b600181811c908216806139b757607f821691505b6020821081036118a157634e487b7160e01b600052602260045260246000fd5b6000602082840312156139e957600080fd5b5051919050565b634e487b7160e01b600052601160045260246000fd5b818103818111156107f8576107f86139f0565b60008351613a2b8184602088016134fa565b835190830190613a3f8183602088016134fa565b01949350505050565b600060208284031215613a5a57600080fd5b815161148d81613576565b808201808211156107f8576107f86139f0565b600060208284031215613a8a57600080fd5b815161ffff8116811461148d57600080fd5b600060208284031215613aae57600080fd5b815161148d816136e9565b6001600160401b03818116838216019080821115613ad957613ad96139f0565b5092915050565b6001600160a01b03858116825284166020820152604081018390526080606082018190526000906127e09083018461351e565b600060208284031215613b2557600080fd5b81516001600160e01b03198116811461148d57600080fd5b600060208284031215613b4f57600080fd5b815161148d8161384c565b601f821115610be0576000816000526020600020601f850160051c81016020861015613b835750805b601f850160051c820191505b81811015610a2e57828155600101613b8f565b81516001600160401b03811115613bbb57613bbb613603565b613bcf81613bc984546139a3565b84613b5a565b602080601f831160018114613c045760008415613bec5750858301515b600019600386901b1c1916600185901b178555610a2e565b600085815260208120601f198616915b82811015613c3357888601518255948401946001909101908401613c14565b5085821015613c515787850151600019600388901b60f8161c191681555b5050505050600190811b01905550565b80820281158282048414176107f8576107f86139f0565b600082613c9557634e487b7160e01b600052601260045260246000fd5b500490565b60008251613cac8184602087016134fa565b9190910192915050565b805160208083015191908110156118a15760001960209190910360031b1b16919050565b634e487b7160e01b600052603260045260246000fd5b60006060820185835260206060602085015281865180845260808601915060208801935060005b81811015613d3c5784516001600160a01b031683529383019391830191600101613d17565b5050809350505050826040830152949350505050565b60006020808385031215613d6557600080fd5b82516001600160401b0380821115613d7c57600080fd5b818501915085601f830112613d9057600080fd5b815181811115613da257613da2613603565b8060051b9150613db3848301613642565b8181529183018401918481019088841115613dcd57600080fd5b938501935b83851015613df75784519250613de783613576565b8282529385019390850190613dd2565b9897505050505050505056fe54f22f54f370bd020e00ee80e1a5099a71652e2ccbcf6a75281e4c70a3e11a00ddf252ad1be2c89b69c2b068fc378daa952ba7f163c4a11628f55a4df523b3ef","linkReferences":{}},"methodIdentifiers":{"__ERC721A_init(string,string)":"d2f01f19","__Membership_init((string,string,uint256,uint256,uint64,address,address,uint256,address),address)":"4c2abfbe","_getMembershipCurrency()":"70251563","_getMembershipFreeAllocation()":"b3a5be6d","_getMembershipPrice(uint256)":"3ded10de","_getMembershipSupplyLimit()":"8934207f","_getPricingModule()":"ac7ee626","_getSpaceFactory()":"77460cd3","_setMembershipFreeAllocation(uint256)":"f9d5d22c","_setMembershipSupplyLimit(uint256)":"73fc5a05","_setPricingModule(address)":"69d9346b","approve(address,uint256)":"095ea7b3","balanceOf(address)":"70a08231","cancelMembership(uint256)":"89def320","expiresAt(uint256)":"17c95709","getApproved(uint256)":"081812fc","getMembershipCurrency()":"657e45e8","getMembershipDuration()":"8120f0ba","getMembershipFreeAllocation()":"706b8e09","getMembershipLimit()":"95d600c8","getMembershipPrice()":"1278076a","getMembershipPricingModule()":"e847abdd","getMembershipRenewalPrice(uint256)":"5803909f","getSpaceFactory()":"79dda585","getTokenIdByMembership(address)":"b6697f93","isApprovedForAll(address,address)":"e985e9c5","joinSpace(address)":"8c625b06","joinSpaceWithReferral(address,address,uint256)":"c9f7c833","name()":"06fdde03","ownerOf(uint256)":"6352211e","renewMembership(uint256)":"7c9669ac","safeTransferFrom(address,address,uint256)":"42842e0e","safeTransferFrom(address,address,uint256,bytes)":"b88d4fde","setApprovalForAll(address,bool)":"a22cb465","setMembershipDuration(uint64)":"83f3f0dc","setMembershipFreeAllocation(uint256)":"5becd24a","setMembershipLimit(uint256)":"97fb7c1e","setMembershipPrice(uint256)":"69d5f38a","setMembershipPricingModule(address)":"df9a9fe6","symbol()":"95d89b41","tokenURI(uint256)":"c87b56dd","totalSupply()":"18160ddd","transferFrom(address,address,uint256)":"23b872dd","withdraw(address)":"51cff8d9"},"id":155}