{"abi":[{"type":"function","name":"__ERC721A_init","inputs":[{"name":"name_","type":"string","internalType":"string"},{"name":"symbol_","type":"string","internalType":"string"}],"outputs":[],"stateMutability":"nonpayable"},{"type":"function","name":"__EntitlementGated_init","inputs":[{"name":"entitlementChecker","type":"address","internalType":"contract IEntitlementChecker"}],"outputs":[],"stateMutability":"nonpayable"},{"type":"function","name":"__Membership_init","inputs":[{"name":"info","type":"tuple","internalType":"struct IMembershipBase.Membership","components":[{"name":"name","type":"string","internalType":"string"},{"name":"symbol","type":"string","internalType":"string"},{"name":"price","type":"uint256","internalType":"uint256"},{"name":"maxSupply","type":"uint256","internalType":"uint256"},{"name":"duration","type":"uint64","internalType":"uint64"},{"name":"currency","type":"address","internalType":"address"},{"name":"feeRecipient","type":"address","internalType":"address"},{"name":"freeAllocation","type":"uint256","internalType":"uint256"},{"name":"pricingModule","type":"address","internalType":"address"}]},{"name":"spaceFactory","type":"address","internalType":"address"}],"outputs":[],"stateMutability":"nonpayable"},{"type":"function","name":"_getMembershipCurrency","inputs":[],"outputs":[{"name":"","type":"address","internalType":"address"}],"stateMutability":"view"},{"type":"function","name":"_getMembershipFreeAllocation","inputs":[],"outputs":[{"name":"","type":"uint256","internalType":"uint256"}],"stateMutability":"view"},{"type":"function","name":"_getMembershipPrice","inputs":[{"name":"totalSupply","type":"uint256","internalType":"uint256"}],"outputs":[{"name":"","type":"uint256","internalType":"uint256"}],"stateMutability":"view"},{"type":"function","name":"_getMembershipSupplyLimit","inputs":[],"outputs":[{"name":"","type":"uint256","internalType":"uint256"}],"stateMutability":"view"},{"type":"function","name":"_getPricingModule","inputs":[],"outputs":[{"name":"","type":"address","internalType":"address"}],"stateMutability":"view"},{"type":"function","name":"_getSpaceFactory","inputs":[],"outputs":[{"name":"","type":"address","internalType":"address"}],"stateMutability":"view"},{"type":"function","name":"_setMembershipFreeAllocation","inputs":[{"name":"newAllocation","type":"uint256","internalType":"uint256"}],"outputs":[],"stateMutability":"nonpayable"},{"type":"function","name":"_setMembershipSupplyLimit","inputs":[{"name":"newLimit","type":"uint256","internalType":"uint256"}],"outputs":[],"stateMutability":"nonpayable"},{"type":"function","name":"_setPricingModule","inputs":[{"name":"newPricingModule","type":"address","internalType":"address"}],"outputs":[],"stateMutability":"nonpayable"},{"type":"function","name":"approve","inputs":[{"name":"to","type":"address","internalType":"address"},{"name":"tokenId","type":"uint256","internalType":"uint256"}],"outputs":[],"stateMutability":"payable"},{"type":"function","name":"balanceOf","inputs":[{"name":"owner","type":"address","internalType":"address"}],"outputs":[{"name":"","type":"uint256","internalType":"uint256"}],"stateMutability":"view"},{"type":"function","name":"expiresAt","inputs":[{"name":"tokenId","type":"uint256","internalType":"uint256"}],"outputs":[{"name":"","type":"uint256","internalType":"uint256"}],"stateMutability":"view"},{"type":"function","name":"getApproved","inputs":[{"name":"tokenId","type":"uint256","internalType":"uint256"}],"outputs":[{"name":"","type":"address","internalType":"address"}],"stateMutability":"view"},{"type":"function","name":"getMembershipCurrency","inputs":[],"outputs":[{"name":"","type":"address","internalType":"address"}],"stateMutability":"view"},{"type":"function","name":"getMembershipDuration","inputs":[],"outputs":[{"name":"","type":"uint64","internalType":"uint64"}],"stateMutability":"view"},{"type":"function","name":"getMembershipFreeAllocation","inputs":[],"outputs":[{"name":"","type":"uint256","internalType":"uint256"}],"stateMutability":"view"},{"type":"function","name":"getMembershipLimit","inputs":[],"outputs":[{"name":"","type":"uint256","internalType":"uint256"}],"stateMutability":"view"},{"type":"function","name":"getMembershipPrice","inputs":[],"outputs":[{"name":"","type":"uint256","internalType":"uint256"}],"stateMutability":"view"},{"type":"function","name":"getMembershipPricingModule","inputs":[],"outputs":[{"name":"","type":"address","internalType":"address"}],"stateMutability":"view"},{"type":"function","name":"getMembershipRenewalPrice","inputs":[{"name":"tokenId","type":"uint256","internalType":"uint256"}],"outputs":[{"name":"","type":"uint256","internalType":"uint256"}],"stateMutability":"view"},{"type":"function","name":"getRuleData","inputs":[{"name":"transactionId","type":"bytes32","internalType":"bytes32"}],"outputs":[{"name":"","type":"tuple","internalType":"struct IRuleEntitlement.RuleData","components":[{"name":"operations","type":"tuple[]","internalType":"struct IRuleEntitlement.Operation[]","components":[{"name":"opType","type":"uint8","internalType":"enum IRuleEntitlement.CombinedOperationType"},{"name":"index","type":"uint8","internalType":"uint8"}]},{"name":"checkOperations","type":"tuple[]","internalType":"struct IRuleEntitlement.CheckOperation[]","components":[{"name":"opType","type":"uint8","internalType":"enum IRuleEntitlement.CheckOperationType"},{"name":"chainId","type":"uint256","internalType":"uint256"},{"name":"contractAddress","type":"address","internalType":"address"},{"name":"threshold","type":"uint256","internalType":"uint256"}]},{"name":"logicalOperations","type":"tuple[]","internalType":"struct IRuleEntitlement.LogicalOperation[]","components":[{"name":"logOpType","type":"uint8","internalType":"enum IRuleEntitlement.LogicalOperationType"},{"name":"leftOperationIndex","type":"uint8","internalType":"uint8"},{"name":"rightOperationIndex","type":"uint8","internalType":"uint8"}]}]}],"stateMutability":"view"},{"type":"function","name":"getSpaceFactory","inputs":[],"outputs":[{"name":"","type":"address","internalType":"address"}],"stateMutability":"view"},{"type":"function","name":"isApprovedForAll","inputs":[{"name":"owner","type":"address","internalType":"address"},{"name":"operator","type":"address","internalType":"address"}],"outputs":[{"name":"","type":"bool","internalType":"bool"}],"stateMutability":"view"},{"type":"function","name":"joinSpace","inputs":[{"name":"receiver","type":"address","internalType":"address"}],"outputs":[],"stateMutability":"payable"},{"type":"function","name":"joinSpaceWithReferral","inputs":[{"name":"receiver","type":"address","internalType":"address"},{"name":"referrer","type":"address","internalType":"address"},{"name":"referralCode","type":"uint256","internalType":"uint256"}],"outputs":[],"stateMutability":"payable"},{"type":"function","name":"name","inputs":[],"outputs":[{"name":"","type":"string","internalType":"string"}],"stateMutability":"view"},{"type":"function","name":"ownerOf","inputs":[{"name":"tokenId","type":"uint256","internalType":"uint256"}],"outputs":[{"name":"","type":"address","internalType":"address"}],"stateMutability":"view"},{"type":"function","name":"postEntitlementCheckResult","inputs":[{"name":"transactionId","type":"bytes32","internalType":"bytes32"},{"name":"result","type":"uint8","internalType":"enum IEntitlementGatedBase.NodeVoteStatus"}],"outputs":[],"stateMutability":"nonpayable"},{"type":"function","name":"renewMembership","inputs":[{"name":"tokenId","type":"uint256","internalType":"uint256"}],"outputs":[],"stateMutability":"payable"},{"type":"function","name":"requestEntitlementCheck","inputs":[{"name":"ruleData","type":"tuple","internalType":"struct IRuleEntitlement.RuleData","components":[{"name":"operations","type":"tuple[]","internalType":"struct IRuleEntitlement.Operation[]","components":[{"name":"opType","type":"uint8","internalType":"enum IRuleEntitlement.CombinedOperationType"},{"name":"index","type":"uint8","internalType":"uint8"}]},{"name":"checkOperations","type":"tuple[]","internalType":"struct IRuleEntitlement.CheckOperation[]","components":[{"name":"opType","type":"uint8","internalType":"enum IRuleEntitlement.CheckOperationType"},{"name":"chainId","type":"uint256","internalType":"uint256"},{"name":"contractAddress","type":"address","internalType":"address"},{"name":"threshold","type":"uint256","internalType":"uint256"}]},{"name":"logicalOperations","type":"tuple[]","internalType":"struct IRuleEntitlement.LogicalOperation[]","components":[{"name":"logOpType","type":"uint8","internalType":"enum IRuleEntitlement.LogicalOperationType"},{"name":"leftOperationIndex","type":"uint8","internalType":"uint8"},{"name":"rightOperationIndex","type":"uint8","internalType":"uint8"}]}]}],"outputs":[{"name":"","type":"bytes32","internalType":"bytes32"}],"stateMutability":"nonpayable"},{"type":"function","name":"safeTransferFrom","inputs":[{"name":"from","type":"address","internalType":"address"},{"name":"to","type":"address","internalType":"address"},{"name":"tokenId","type":"uint256","internalType":"uint256"}],"outputs":[],"stateMutability":"payable"},{"type":"function","name":"safeTransferFrom","inputs":[{"name":"from","type":"address","internalType":"address"},{"name":"to","type":"address","internalType":"address"},{"name":"tokenId","type":"uint256","internalType":"uint256"},{"name":"_data","type":"bytes","internalType":"bytes"}],"outputs":[],"stateMutability":"payable"},{"type":"function","name":"setApprovalForAll","inputs":[{"name":"operator","type":"address","internalType":"address"},{"name":"approved","type":"bool","internalType":"bool"}],"outputs":[],"stateMutability":"nonpayable"},{"type":"function","name":"setMembershipFreeAllocation","inputs":[{"name":"newAllocation","type":"uint256","internalType":"uint256"}],"outputs":[],"stateMutability":"nonpayable"},{"type":"function","name":"setMembershipLimit","inputs":[{"name":"newLimit","type":"uint256","internalType":"uint256"}],"outputs":[],"stateMutability":"nonpayable"},{"type":"function","name":"setMembershipPrice","inputs":[{"name":"newPrice","type":"uint256","internalType":"uint256"}],"outputs":[],"stateMutability":"nonpayable"},{"type":"function","name":"setMembershipPricingModule","inputs":[{"name":"pricingModule","type":"address","internalType":"address"}],"outputs":[],"stateMutability":"nonpayable"},{"type":"function","name":"symbol","inputs":[],"outputs":[{"name":"","type":"string","internalType":"string"}],"stateMutability":"view"},{"type":"function","name":"tokenURI","inputs":[{"name":"tokenId","type":"uint256","internalType":"uint256"}],"outputs":[{"name":"","type":"string","internalType":"string"}],"stateMutability":"view"},{"type":"function","name":"totalSupply","inputs":[],"outputs":[{"name":"","type":"uint256","internalType":"uint256"}],"stateMutability":"view"},{"type":"function","name":"transferFrom","inputs":[{"name":"from","type":"address","internalType":"address"},{"name":"to","type":"address","internalType":"address"},{"name":"tokenId","type":"uint256","internalType":"uint256"}],"outputs":[],"stateMutability":"payable"},{"type":"function","name":"withdraw","inputs":[{"name":"account","type":"address","internalType":"address"}],"outputs":[],"stateMutability":"nonpayable"},{"type":"event","name":"Approval","inputs":[{"name":"owner","type":"address","indexed":true,"internalType":"address"},{"name":"approved","type":"address","indexed":true,"internalType":"address"},{"name":"tokenId","type":"uint256","indexed":true,"internalType":"uint256"}],"anonymous":false},{"type":"event","name":"ApprovalForAll","inputs":[{"name":"owner","type":"address","indexed":true,"internalType":"address"},{"name":"operator","type":"address","indexed":true,"internalType":"address"},{"name":"approved","type":"bool","indexed":false,"internalType":"bool"}],"anonymous":false},{"type":"event","name":"Banned","inputs":[{"name":"moderator","type":"address","indexed":true,"internalType":"address"},{"name":"tokenId","type":"uint256","indexed":true,"internalType":"uint256"}],"anonymous":false},{"type":"event","name":"ConsecutiveTransfer","inputs":[{"name":"fromTokenId","type":"uint256","indexed":true,"internalType":"uint256"},{"name":"toTokenId","type":"uint256","indexed":false,"internalType":"uint256"},{"name":"from","type":"address","indexed":true,"internalType":"address"},{"name":"to","type":"address","indexed":true,"internalType":"address"}],"anonymous":false},{"type":"event","name":"EntitlementCheckResultPosted","inputs":[{"name":"transactionId","type":"bytes32","indexed":true,"internalType":"bytes32"},{"name":"result","type":"uint8","indexed":false,"internalType":"enum IEntitlementGatedBase.NodeVoteStatus"}],"anonymous":false},{"type":"event","name":"Initialized","inputs":[{"name":"version","type":"uint32","indexed":false,"internalType":"uint32"}],"anonymous":false},{"type":"event","name":"InterfaceAdded","inputs":[{"name":"interfaceId","type":"bytes4","indexed":true,"internalType":"bytes4"}],"anonymous":false},{"type":"event","name":"InterfaceRemoved","inputs":[{"name":"interfaceId","type":"bytes4","indexed":true,"internalType":"bytes4"}],"anonymous":false},{"type":"event","name":"MembershipCurrencyUpdated","inputs":[{"name":"currency","type":"address","indexed":true,"internalType":"address"}],"anonymous":false},{"type":"event","name":"MembershipFeeRecipientUpdated","inputs":[{"name":"recipient","type":"address","indexed":true,"internalType":"address"}],"anonymous":false},{"type":"event","name":"MembershipFreeAllocationUpdated","inputs":[{"name":"allocation","type":"uint256","indexed":true,"internalType":"uint256"}],"anonymous":false},{"type":"event","name":"MembershipLimitUpdated","inputs":[{"name":"limit","type":"uint256","indexed":true,"internalType":"uint256"}],"anonymous":false},{"type":"event","name":"MembershipPriceUpdated","inputs":[{"name":"price","type":"uint256","indexed":true,"internalType":"uint256"}],"anonymous":false},{"type":"event","name":"MembershipTokenIssued","inputs":[{"name":"recipient","type":"address","indexed":true,"internalType":"address"},{"name":"tokenId","type":"uint256","indexed":true,"internalType":"uint256"}],"anonymous":false},{"type":"event","name":"MembershipTokenRejected","inputs":[{"name":"recipient","type":"address","indexed":true,"internalType":"address"}],"anonymous":false},{"type":"event","name":"MembershipWithdrawal","inputs":[{"name":"recipient","type":"address","indexed":true,"internalType":"address"},{"name":"amount","type":"uint256","indexed":false,"internalType":"uint256"}],"anonymous":false},{"type":"event","name":"Membership__ReferralCreated","inputs":[{"name":"code","type":"uint256","indexed":true,"internalType":"uint256"},{"name":"bps","type":"uint16","indexed":false,"internalType":"uint16"}],"anonymous":false},{"type":"event","name":"Membership__ReferralRemoved","inputs":[{"name":"code","type":"uint256","indexed":true,"internalType":"uint256"}],"anonymous":false},{"type":"event","name":"Membership__ReferralTimeCreated","inputs":[{"name":"code","type":"uint256","indexed":true,"internalType":"uint256"},{"name":"bps","type":"uint16","indexed":false,"internalType":"uint16"},{"name":"startTime","type":"uint256","indexed":false,"internalType":"uint256"},{"name":"endTime","type":"uint256","indexed":false,"internalType":"uint256"}],"anonymous":false},{"type":"event","name":"OwnershipTransferred","inputs":[{"name":"previousOwner","type":"address","indexed":true,"internalType":"address"},{"name":"newOwner","type":"address","indexed":true,"internalType":"address"}],"anonymous":false},{"type":"event","name":"Paused","inputs":[{"name":"account","type":"address","indexed":false,"internalType":"address"}],"anonymous":false},{"type":"event","name":"RoleCreated","inputs":[{"name":"creator","type":"address","indexed":true,"internalType":"address"},{"name":"roleId","type":"uint256","indexed":true,"internalType":"uint256"}],"anonymous":false},{"type":"event","name":"RoleRemoved","inputs":[{"name":"remover","type":"address","indexed":true,"internalType":"address"},{"name":"roleId","type":"uint256","indexed":true,"internalType":"uint256"}],"anonymous":false},{"type":"event","name":"RoleUpdated","inputs":[{"name":"updater","type":"address","indexed":true,"internalType":"address"},{"name":"roleId","type":"uint256","indexed":true,"internalType":"uint256"}],"anonymous":false},{"type":"event","name":"SubscriptionUpdate","inputs":[{"name":"tokenId","type":"uint256","indexed":true,"internalType":"uint256"},{"name":"expiration","type":"uint64","indexed":false,"internalType":"uint64"}],"anonymous":false},{"type":"event","name":"Transfer","inputs":[{"name":"from","type":"address","indexed":true,"internalType":"address"},{"name":"to","type":"address","indexed":true,"internalType":"address"},{"name":"tokenId","type":"uint256","indexed":true,"internalType":"uint256"}],"anonymous":false},{"type":"event","name":"Unbanned","inputs":[{"name":"moderator","type":"address","indexed":true,"internalType":"address"},{"name":"tokenId","type":"uint256","indexed":true,"internalType":"uint256"}],"anonymous":false},{"type":"event","name":"Unpaused","inputs":[{"name":"account","type":"address","indexed":false,"internalType":"address"}],"anonymous":false},{"type":"error","name":"AddressEmptyCode","inputs":[{"name":"target","type":"address","internalType":"address"}]},{"type":"error","name":"AddressInsufficientBalance","inputs":[{"name":"account","type":"address","internalType":"address"}]},{"type":"error","name":"ApprovalCallerNotOwnerNorApproved","inputs":[]},{"type":"error","name":"ApprovalQueryForNonexistentToken","inputs":[]},{"type":"error","name":"BalanceQueryForZeroAddress","inputs":[]},{"type":"error","name":"Banning__AlreadyBanned","inputs":[{"name":"tokenId","type":"uint256","internalType":"uint256"}]},{"type":"error","name":"Banning__CannotBanSelf","inputs":[]},{"type":"error","name":"Banning__InvalidTokenId","inputs":[{"name":"tokenId","type":"uint256","internalType":"uint256"}]},{"type":"error","name":"Banning__NotBanned","inputs":[{"name":"tokenId","type":"uint256","internalType":"uint256"}]},{"type":"error","name":"Dispatcher__InvalidCaller","inputs":[]},{"type":"error","name":"Dispatcher__InvalidValue","inputs":[]},{"type":"error","name":"ERC5643__DurationZero","inputs":[]},{"type":"error","name":"ERC5643__InvalidTokenId","inputs":[{"name":"tokenId","type":"uint256","internalType":"uint256"}]},{"type":"error","name":"ERC5643__NotApprovedOrOwner","inputs":[]},{"type":"error","name":"ERC5643__SubscriptionNotRenewable","inputs":[{"name":"tokenId","type":"uint256","internalType":"uint256"}]},{"type":"error","name":"EntitlementGated_InvalidAddress","inputs":[]},{"type":"error","name":"EntitlementGated_NodeAlreadyVoted","inputs":[]},{"type":"error","name":"EntitlementGated_NodeNotFound","inputs":[]},{"type":"error","name":"EntitlementGated_TransactionAlreadyCompleted","inputs":[]},{"type":"error","name":"EntitlementGated_TransactionAlreadyRegistered","inputs":[]},{"type":"error","name":"EntitlementGated_TransactionNotRegistered","inputs":[]},{"type":"error","name":"Entitlement__InvalidValue","inputs":[]},{"type":"error","name":"Entitlement__NotAllowed","inputs":[]},{"type":"error","name":"Entitlement__NotMember","inputs":[]},{"type":"error","name":"Entitlement__ValueAlreadyExists","inputs":[]},{"type":"error","name":"FailedInnerCall","inputs":[]},{"type":"error","name":"Initializable_InInitializingState","inputs":[]},{"type":"error","name":"Initializable_NotInInitializingState","inputs":[]},{"type":"error","name":"Introspection_AlreadySupported","inputs":[]},{"type":"error","name":"Introspection_NotSupported","inputs":[]},{"type":"error","name":"Membership__AlreadyMember","inputs":[]},{"type":"error","name":"Membership__InsufficientAllowance","inputs":[]},{"type":"error","name":"Membership__InsufficientPayment","inputs":[]},{"type":"error","name":"Membership__InvalidAddress","inputs":[]},{"type":"error","name":"Membership__InvalidCurrency","inputs":[]},{"type":"error","name":"Membership__InvalidDuration","inputs":[]},{"type":"error","name":"Membership__InvalidFeeRecipient","inputs":[]},{"type":"error","name":"Membership__InvalidFreeAllocation","inputs":[]},{"type":"error","name":"Membership__InvalidLimit","inputs":[]},{"type":"error","name":"Membership__InvalidMaxSupply","inputs":[]},{"type":"error","name":"Membership__InvalidPrice","inputs":[]},{"type":"error","name":"Membership__InvalidPricingModule","inputs":[]},{"type":"error","name":"Membership__InvalidReferralBps","inputs":[]},{"type":"error","name":"Membership__InvalidReferralCode","inputs":[]},{"type":"error","name":"Membership__InvalidReferralTime","inputs":[]},{"type":"error","name":"Membership__InvalidTokenId","inputs":[]},{"type":"error","name":"Membership__MaxSupplyReached","inputs":[]},{"type":"error","name":"Membership__NotExpired","inputs":[]},{"type":"error","name":"Membership__PriceTooLow","inputs":[]},{"type":"error","name":"MintERC2309QuantityExceedsLimit","inputs":[]},{"type":"error","name":"MintToZeroAddress","inputs":[]},{"type":"error","name":"MintZeroQuantity","inputs":[]},{"type":"error","name":"Ownable__NotOwner","inputs":[{"name":"account","type":"address","internalType":"address"}]},{"type":"error","name":"Ownable__ZeroAddress","inputs":[]},{"type":"error","name":"OwnerQueryForNonexistentToken","inputs":[]},{"type":"error","name":"OwnershipNotInitializedForExtraData","inputs":[]},{"type":"error","name":"Pausable__NotPaused","inputs":[]},{"type":"error","name":"Pausable__Paused","inputs":[]},{"type":"error","name":"ReentrancyGuard__ReentrantCall","inputs":[]},{"type":"error","name":"Roles__EntitlementAlreadyExists","inputs":[]},{"type":"error","name":"Roles__EntitlementDoesNotExist","inputs":[]},{"type":"error","name":"Roles__InvalidEntitlementAddress","inputs":[]},{"type":"error","name":"Roles__InvalidPermission","inputs":[]},{"type":"error","name":"Roles__PermissionAlreadyExists","inputs":[]},{"type":"error","name":"Roles__PermissionDoesNotExist","inputs":[]},{"type":"error","name":"Roles__RoleDoesNotExist","inputs":[]},{"type":"error","name":"SafeERC20FailedOperation","inputs":[{"name":"token","type":"address","internalType":"address"}]},{"type":"error","name":"TransferCallerNotOwnerNorApproved","inputs":[]},{"type":"error","name":"TransferFromIncorrectOwner","inputs":[]},{"type":"error","name":"TransferToNonERC721ReceiverImplementer","inputs":[]},{"type":"error","name":"TransferToZeroAddress","inputs":[]},{"type":"error","name":"URIQueryForNonexistentToken","inputs":[]}],"bytecode":{"object":"0x60806040523480156200001157600080fd5b506200001c62000022565b620000ca565b7f59b501c3653afc186af7d48dda36cf6732bd21629a6295693664240a6ef520008054640100000000900460ff16156200006f576040516366008a2d60e01b815260040160405180910390fd5b805463ffffffff9081161015620000c757805463ffffffff191663ffffffff90811782556040519081527fe9c9b456cb2994b80aeef036cf59d26e9617df80f816a6ee5a5b4166e07e2f5c9060200160405180910390a15b50565b61527780620000da6000396000f3fe6080604052600436106102725760003560e01c806379dda5851161014f578063ac7ee626116100c1578063df9a9fe61161007a578063df9a9fe6146106fa578063e847abdd1461071a578063e985e9c51461072f578063efa8db231461075f578063f4efb0bb14610780578063f9d5d22c146107a057600080fd5b8063ac7ee6261461066a578063b3a5be6d1461067f578063b88d4fde14610694578063c87b56dd146106a7578063c9f7c833146106c7578063d2f01f19146106da57600080fd5b80638a59b1b4116101135780638a59b1b4146105c05780638c625b06146105ed57806395d600c81461060057806395d89b411461061557806397fb7c1e1461062a578063a22cb4651461064a57600080fd5b806379dda585146105365780637adc9cbe1461054b5780637c9669ac1461056b5780638120f0ba1461057e5780638934207f146105ab57600080fd5b80635803909f116101e857806369d9346b116101ac57806369d9346b1461049757806370251563146104b7578063706b8e09146104cc57806370a08231146104e157806373fc5a051461050157806377460cd31461052157600080fd5b80635803909f146104025780635becd24a146104225780636352211e14610442578063657e45e81461046257806369d5f38a1461047757600080fd5b806318160ddd1161023a57806318160ddd1461036757806323b872dd1461037c5780633ded10de1461038f57806342842e0e146103af5780634c2abfbe146103c257806351cff8d9146103e257600080fd5b806306fdde0314610277578063081812fc146102a2578063095ea7b3146102da5780631278076a146102ef57806317c9570914610312575b600080fd5b34801561028357600080fd5b5061028c6107c0565b604051610299919061432f565b60405180910390f35b3480156102ae57600080fd5b506102c26102bd366004614342565b61085b565b6040516001600160a01b039091168152602001610299565b6102ed6102e8366004614380565b61086c565b005b3480156102fb57600080fd5b5061030461087c565b604051908152602001610299565b34801561031e57600080fd5b5061030461032d366004614342565b60009081527f4775a23600034fdd9f073b224f794d51a58b35ba663a9602623ba7a5c09cce0060205260409020546001600160401b031690565b34801561037357600080fd5b5061030461088e565b6102ed61038a3660046143ac565b610898565b34801561039b57600080fd5b506103046103aa366004614342565b610a8f565b6102ed6103bd3660046143ac565b610c1e565b3480156103ce57600080fd5b506102ed6103dd366004614567565b610c3e565b3480156103ee57600080fd5b506102ed6103fd366004614670565b610ca2565b34801561040e57600080fd5b5061030461041d366004614342565b610d49565b34801561042e57600080fd5b506102ed61043d366004614342565b610d5c565b34801561044e57600080fd5b506102c261045d366004614342565b610de1565b34801561046e57600080fd5b506102c2610dec565b34801561048357600080fd5b506102ed610492366004614342565b610df6565b3480156104a357600080fd5b506102ed6104b2366004614670565b610ea4565b3480156104c357600080fd5b506102c2610ed1565b3480156104d857600080fd5b50610304610eed565b3480156104ed57600080fd5b506103046104fc366004614670565b610ef7565b34801561050d57600080fd5b506102ed61051c366004614342565b610f02565b34801561052d57600080fd5b506102c2610f12565b34801561054257600080fd5b506102c2610f2e565b34801561055757600080fd5b506102ed610566366004614670565b610f38565b6102ed610579366004614342565b610f7c565b34801561058a57600080fd5b506105936110d9565b6040516001600160401b039091168152602001610299565b3480156105b757600080fd5b506103046110e3565b3480156105cc57600080fd5b506105e06105db366004614342565b6110f6565b604051610299919061477e565b6102ed6105fb366004614670565b611123565b34801561060c57600080fd5b5061030461163a565b34801561062157600080fd5b5061028c611644565b34801561063657600080fd5b506102ed610645366004614342565b61165c565b34801561065657600080fd5b506102ed610665366004614825565b6116b1565b34801561067657600080fd5b506102c261172e565b34801561068b57600080fd5b5061030461174a565b6102ed6106a236600461485e565b6117e9565b3480156106b357600080fd5b5061028c6106c2366004614342565b611833565b6102ed6106d53660046143ac565b6118c4565b3480156106e657600080fd5b506102ed6106f53660046148dd565b6119de565b34801561070657600080fd5b506102ed610715366004614670565b611a20565b34801561072657600080fd5b506102c2611a6d565b34801561073b57600080fd5b5061074f61074a366004614940565b611a77565b6040519015158152602001610299565b34801561076b57600080fd5b5061030461077a36600461496e565b50600090565b34801561078c57600080fd5b506102ed61079b3660046149b5565b611a83565b3480156107ac57600080fd5b506102ed6107bb366004614342565b611a8d565b60606107ca611ad0565b60020180546107d8906149da565b80601f0160208091040260200160405190810160405280929190818152602001828054610804906149da565b80156108515780601f1061082657610100808354040283529160200191610851565b820191906000526020600020905b81548152906001019060200180831161083457829003601f168201915b5050505050905090565b600061086682611af4565b92915050565b61087882826001611b41565b5050565b60006108896103aa611bf6565b905090565b6000610889611bf6565b60006108a382611c15565b9050836001600160a01b0316816001600160a01b0316146108d65760405162a1148160e81b815260040160405180910390fd5b6000806108e284611cb0565b9150915061090781876108f23390565b6001600160a01b039081169116811491141790565b610932576109158633611a77565b61093257604051632ce44b5f60e11b815260040160405180910390fd5b6001600160a01b03851661095957604051633a954ecd60e21b815260040160405180910390fd5b801561096457600082555b61096c611ad0565b6001600160a01b0387166000908152600591909101602052604090208054600019019055610998611ad0565b6001600160a01b03861660008181526005929092016020526040909120805460010190554260a01b17600160e11b176109cf611ad0565b60008681526004919091016020526040812091909155600160e11b84169003610a4557600184016109fe611ad0565b600082815260049190910160205260408120549003610a4357610a1f611ad0565b548114610a435783610a2f611ad0565b600083815260049190910160205260409020555b505b83856001600160a01b0316876001600160a01b03167fddf252ad1be2c89b69c2b068fc378daa952ba7f163c4a11628f55a4df523b3ef60405160405180910390a45b505050505050565b600080610a9a611cd8565b90506000610aa661174a565b905083811115610aba575060009392505050565b6006820154604051639262b1b360e01b815230600482015285916001600160a01b031690639262b1b390602401602060405180830381865afa158015610b04573d6000803e3d6000fd5b505050506040513d601f19601f82011682018060405250810190610b289190614a0e565b1115610b38575060009392505050565b60088201546001600160a01b031615610bc9576008820154604051635cf4ee9160e01b815260048101839052602481018690526001600160a01b0390911690635cf4ee9190604401602060405180830381865afa158015610b9d573d6000803e3d6000fd5b505050506040513d601f19601f82011682018060405250810190610bc19190614a0e565b949350505050565b8160060160009054906101000a90046001600160a01b03166001600160a01b0316630eac306d6040518163ffffffff1660e01b8152600401602060405180830381865afa158015610b9d573d6000803e3d6000fd5b610c39838383604051806020016040528060008152506117e9565b505050565b60008051602061525783398151915254640100000000900460ff16610c7657604051630ef4733760e31b815260040160405180910390fd5b610c8663df5f354f60e01b611cfc565b610c908282611dda565b61087882600001518360200151611efd565b610caa611f5f565b6001600160a01b0316336001600160a01b031614610ce2576040516365f4906560e01b81523360048201526024015b60405180910390fd5b6001600160a01b038116610d0957604051635fbd571760e01b815260040160405180910390fd5b6000610d13612029565b905080600003610d3657604051635894b54560e11b815260040160405180910390fd5b610878610d41610ed1565b30848461203c565b600061086682610d57611bf6565b61208b565b610d64611f5f565b6001600160a01b0316336001600160a01b031614610d97576040516365f4906560e01b8152336004820152602401610cd9565b6000610da16110e3565b90508015801590610db157508082115b15610dcf5760405163c3983b9160e01b815260040160405180910390fd5b610dd8826120d1565b61087882611a8d565b600061086682611c15565b6000610889610ed1565b610dfe611f5f565b6001600160a01b0316336001600160a01b031614610e31576040516365f4906560e01b8152336004820152602401610cd9565b610e3a81612176565b610e4261172e565b6001600160a01b03166391b7f5ed826040518263ffffffff1660e01b8152600401610e6f91815260200190565b600060405180830381600087803b158015610e8957600080fd5b505af1158015610e9d573d6000803e3d6000fd5b5050505050565b80610ead611cd8565b60080180546001600160a01b0319166001600160a01b039290921691909117905550565b6000610edb611cd8565b600401546001600160a01b0316919050565b600061088961174a565b600061086682612204565b80610f0b611cd8565b6003015550565b6000610f1c611cd8565b600601546001600160a01b0316919050565b6000610889610f12565b60008051602061525783398151915254640100000000900460ff16610f7057604051630ef4733760e31b815260040160405180910390fd5b610f798161226c565b50565b60026000805160206151f78339815191525403610fac57604051635db5c7cd60e11b815260040160405180910390fd5b610fc360026000805160206151f783398151915255565b6000610fce82610de1565b90506001600160a01b038116610ff757604051635fbd571760e01b815260040160405180910390fd5b60008281527f4775a23600034fdd9f073b224f794d51a58b35ba663a9602623ba7a5c09cce0060205260409020546001600160401b03166110366122a7565b6001600160401b03166110494283614a3d565b106110675760405163dce9a1d360e01b815260040160405180910390fd5b600061107584610d57611bf6565b905080156110ae576000611089848361232d565b905060006110978284614a3d565b905080156110ab576110a98582612445565b505b50505b6110bf846110ba6122a7565b6125e3565b505050610f7960016000805160206151f783398151915255565b60006108896122a7565b60006110ed611cd8565b60030154905090565b61111a60405180606001604052806060815260200160608152602001606081525090565b610866826126ac565b60026000805160206151f7833981519152540361115357604051635db5c7cd60e11b815260040160405180910390fd5b61116a60026000805160206151f783398151915255565b611173816127c3565b60405133606081901b6bffffffffffffffffffffffff19166020830152436034830152600091829060540160405160208183030381529060405280519060200120905060006112368261120a84866111ca8761282c565b604080516020808201959095526001600160a01b039390931683820152606080840192909252805180840390920182526080909201909152805191012090565b604080516020808201949094528082019290925280518083038201815260609092019052805191012090565b604080516001600160a01b038816602082015291925061126791839101604051602081830303815290604052612861565b34156112775761127781346128a8565b60006112a3604051806040016040528060098152602001684a6f696e537061636560b81b815250612940565b905060005b81518110156115fe5760008282815181106112c5576112c5614a50565b6020026020010151905080604001516115f55760005b8160800151518110156115f35760008260800151828151811061130057611300614a50565b60200260200101519050806001600160a01b0316632e1b61e46040518163ffffffff1660e01b8152600401602060405180830381865afa158015611348573d6000803e3d6000fd5b505050506040513d601f19601f8201168201806040525081019061136c9190614a66565b6114a4576040805160018082528183019092526000916020808301908036833701905050905088816000815181106113a6576113a6614a50565b60200260200101906001600160a01b031690816001600160a01b031681525050816001600160a01b0316630cf0b533600083604051806040016040528060098152602001684a6f696e537061636560b81b81525060405160200161140a9190614a83565b60405160208183030381529060405261142290614a9f565b6040518463ffffffff1660e01b815260040161144093929190614afd565b602060405180830381865afa15801561145d573d6000803e3d6000fd5b505050506040513d601f19601f820116820180604052508101906114819190614a66565b1561149e5761148f87612b8a565b50505050505050505050611623565b506115ea565b825160405163069a3ee960e01b8152600481019190915281906000906001600160a01b0383169063069a3ee990602401600060405180830381865afa1580156114f1573d6000803e3d6000fd5b505050506040513d6000823e601f3d908101601f191682016040526115199190810190614cba565b805151909150600114801561155d575060008151805160009061153e5761153e614a50565b602002602001015160000151600281111561155b5761155b61468d565b145b6115e757604051632e88a83960e11b81526000906001600160a01b03841690635d1150729061159090859060040161477e565b600060405180830381865afa1580156115ad573d6000803e3d6000fd5b505050506040513d6000823e601f3d908101601f191682016040526115d59190810190614df7565b90506115e18982612ced565b60019b50505b50505b506001016112db565b505b506001016112a8565b508461161d57604051630ce39a4b60e21b815260040160405180910390fd5b50505050505b610f7960016000805160206151f783398151915255565b60006108896110e3565b606061164e611ad0565b60030180546107d8906149da565b611664611f5f565b6001600160a01b0316336001600160a01b031614611697576040516365f4906560e01b8152336004820152602401610cd9565b6116a8816116a3611bf6565b612f2e565b610f7981610f02565b806116ba611ad0565b336000818152600792909201602090815260408084206001600160a01b03881680865290835293819020805460ff19169515159590951790945592518415158152919290917f17307eab39ab6107e8899845ad3d59bd9653f200f220920489ca2b5937696c31910160405180910390a35050565b6000611738611cd8565b600801546001600160a01b0316919050565b600080611755611cd8565b600781015490915080156117695792915050565b8160060160009054906101000a90046001600160a01b03166001600160a01b0316632cbb9d136040518163ffffffff1660e01b8152600401602060405180830381865afa1580156117be573d6000803e3d6000fd5b505050506040513d601f19601f820116820180604052508101906117e29190614a0e565b9250505090565b6117f4848484610898565b6001600160a01b0383163b1561182d5761181084848484612f4f565b61182d576040516368d2bf6b60e11b815260040160405180910390fd5b50505050565b606061183e8261303a565b61185b57604051630a14c4b560e41b815260040160405180910390fd5b600061187260408051602081019091526000815290565b9050805160000361189257604051806020016040528060008152506118bd565b8061189c84613076565b6040516020016118ad929190614e6d565b6040516020818303038152906040525b9392505050565b60026000805160206151f783398151915254036118f457604051635db5c7cd60e11b815260040160405180910390fd5b61190b60026000805160206151f783398151915255565b611914836127c3565b600061191e6130ba565b9050600061192d6103aa611bf6565b905080156119ae5761193f82826130ca565b600061194b868361232d565b905060006119598284614a3d565b90506000611965610ed1565b905081156119aa57600061197983886130ea565b9050611987828a8a8461203c565b60006119938285614a3d565b905080156119a7576119a58a82612445565b505b50505b5050505b6119b985600161319d565b6119c5826110ba6122a7565b5050610c3960016000805160206151f783398151915255565b60008051602061525783398151915254640100000000900460ff16611a1657604051630ef4733760e31b815260040160405180910390fd5b6108788282611efd565b611a28611f5f565b6001600160a01b0316336001600160a01b031614611a5b576040516365f4906560e01b8152336004820152602401610cd9565b611a64816131b7565b610f7981610ea4565b600061088961172e565b60006118bd838361326f565b61087882826132ac565b6000611a97611cd8565b6007810183905560405190915082907fab14a23e88fb272313490d4f20d63098e64fd38304c0e07a377db98c2b39b92f90600090a25050565b7f6569bde4a160c636ea8b8d11acb83a60d7fec0b8f2e09389306cba0e1340df0090565b6000611aff8261303a565b611b1c576040516333d1c03960e21b815260040160405180910390fd5b611b24611ad0565b60009283526006016020525060409020546001600160a01b031690565b6000611b4c83610de1565b90508115611b8b57336001600160a01b03821614611b8b57611b6e813361326f565b611b8b576040516367d9dca160e11b815260040160405180910390fd5b83611b94611ad0565b6000858152600691909101602052604080822080546001600160a01b0319166001600160a01b0394851617905551859287811692908516917f8c5be1e5ebec7d5bd14f71427d1e84f3dd0314c0f7b2291e5b200ac8c7c3b9259190a450505050565b600080611c01611ad0565b60010154611c0d611ad0565b540303919050565b600080611c20611ad0565b60008481526004820160205260408120549350909150600160e01b83169003611c965781600003611c905780548310611c6c57604051636f96cda160e11b815260040160405180910390fd5b5b600019909201600081815260048401602052604090205490929091508115611c6d575b50919050565b50604051636f96cda160e11b815260040160405180910390fd5b6000806000611cbd611ad0565b60009485526006016020525050604090912080549092909150565b7fc21004fcc619240a31f006438274d15cd813308303284436eef6055f0fdcb60090565b6001600160e01b0319811660009081527f81088bbc801e045ea3e7620779ab349988f58afbdfba10dff983df3f33522b00602052604090205460ff161515600114611d89576001600160e01b0319811660009081527f81088bbc801e045ea3e7620779ab349988f58afbdfba10dff983df3f33522b0060205260409020805460ff19166001179055611da2565b604051637967f77d60e11b815260040160405180910390fd5b6040516001600160e01b03198216907f78f84e5b1c5c05be2b5ad3800781dd404d6d6c6302bc755c0fe20f58a33a7f2290600090a250565b6000611de4611cd8565b6006810180546001600160a01b038086166001600160a01b031992831617909255610100860151600884018054919093169082161790915560048201805490911673eeeeeeeeeeeeeeeeeeeeeeeeeeeeeeeeeeeeeeee1790556060840151600382015560e08401516007820181905590915015611e6857611e688360e001516120d1565b611e768361010001516131b7565b604083015115610c3957611e8d8360400151612176565b600881015460408085015190516391b7f5ed60e01b81526001600160a01b03909216916391b7f5ed91611ec69160040190815260200190565b600060405180830381600087803b158015611ee057600080fd5b505af1158015611ef4573d6000803e3d6000fd5b50505050505050565b60008051602061525783398151915254640100000000900460ff16611f3557604051630ef4733760e31b815260040160405180910390fd5b611f456380ac58cd60e01b611cfc565b611f55635b5e139f60e01b611cfc565b61087882826135d4565b6040805180820182527fd2f24d4f172e4e84e48e7c4125b6e904c29e5eba33ad4938fee51dd5dbd4b600546001600160a01b03168082527fd2f24d4f172e4e84e48e7c4125b6e904c29e5eba33ad4938fee51dd5dbd4b60154602080840182905284516331a9108f60e11b815260048101929092529351600094636352211e92602480820193918290030181865afa158015611fff573d6000803e3d6000fd5b505050506040513d601f19601f820116820180604052508101906120239190614e9c565b91505090565b6000612033611cd8565b600a0154905090565b816001600160a01b03167f6a88f9e03ef4a1786c4d5b1eb17d944dbdecbd661e86a6b18dfa7aaa28f172be8260405161207791815260200190565b60405180910390a261182d84848484613606565b600080612096611cd8565b6000858152600982016020526040902054909150156120c8576000848152600990910160205260409020549050610866565b610bc183610a8f565b60006120db611cd8565b90508060060160009054906101000a90046001600160a01b03166001600160a01b0316632cbb9d136040518163ffffffff1660e01b8152600401602060405180830381865afa158015612132573d6000803e3d6000fd5b505050506040513d601f19601f820116820180604052508101906121569190614a0e565b8211156108785760405163c3983b9160e01b815260040160405180910390fd5b6000612180610f12565b6001600160a01b0316630eac306d6040518163ffffffff1660e01b8152600401602060405180830381865afa1580156121bd573d6000803e3d6000fd5b505050506040513d601f19601f820116820180604052508101906121e19190614a0e565b90508082101561087857604051631a23d64760e11b815260040160405180910390fd5b60006001600160a01b03821661222d576040516323d3ad8160e21b815260040160405180910390fd5b6001600160401b0361223d611ad0565b6005016000846001600160a01b03166001600160a01b0316815260200190815260200160002054169050919050565b61227c632447b68b60e21b611cfc565b6000805160206151b783398151915280546001600160a01b0319166001600160a01b03831617905550565b6000806122b2611cd8565b90508060060160009054906101000a90046001600160a01b03166001600160a01b0316638120f0ba6040518163ffffffff1660e01b8152600401602060405180830381865afa158015612309573d6000803e3d6000fd5b505050506040513d601f19601f820116820180604052508101906120239190614eb9565b600080612338611cd8565b6006810154600480830154604080516301332c8360e61b815290519495506001600160a01b039384169493909116926000928592634ccb20c092818301926020928290030181865afa158015612392573d6000803e3d6000fd5b505050506040513d601f19601f820116820180604052508101906123b69190614e9c565b90506000836001600160a01b0316639f6542aa6040518163ffffffff1660e01b8152600401602060405180830381865afa1580156123f8573d6000803e3d6000fd5b505050506040513d601f19601f8201168201806040525081019061241c9190614ed6565b905061242c878261ffff1661364c565b955061243a83898489613606565b505050505092915050565b600080612450611cd8565b9050600061245c610ed1565b905073eeeeeeeeeeeeeeeeeeeeeeeeeeeeeeeeeeeeeeed196001600160a01b038216016124a7578382600a0160008282546124979190614efa565b9091555084935061086692505050565b6040516370a0823160e01b815230600482015281906000906001600160a01b038316906370a0823190602401602060405180830381865afa1580156124f0573d6000803e3d6000fd5b505050506040513d601f19601f820116820180604052508101906125149190614a0e565b905061252283883089613606565b6040516370a0823160e01b81523060048201526000906001600160a01b038416906370a0823190602401602060405180830381865afa158015612569573d6000803e3d6000fd5b505050506040513d601f19601f8201168201806040525081019061258d9190614a0e565b9050600061259b8383614a3d565b90508781146125bd57604051635894b54560e11b815260040160405180910390fd5b8086600a0160008282546125d19190614efa565b90915550909998505050505050505050565b60008281527f4775a23600034fdd9f073b224f794d51a58b35ba663a9602623ba7a5c09cce006020819052604082205490916001600160401b0390911690818103612639576126328442614f0d565b9050612646565b6126438483614f0d565b90505b60008581526020848152604091829020805467ffffffffffffffff19166001600160401b038516908117909155915191825286917f2ec2be2c4b90c2cf13ecb6751a24daed6bb741ae5ed3f7371aabf9402f6d62e8910160405180910390a25050505050565b6126d060405180606001604052806060815260200160608152602001606081525090565b60008281526000805160206151d78339815191526020526040812080546000805160206151b78339815191529260ff9091161515900361272357604051637ad5a43960e11b815260040160405180910390fd5b806002018054612732906149da565b80601f016020809104026020016040519081016040528092919081815260200182805461275e906149da565b80156127ab5780601f10612780576101008083540402835291602001916127ab565b820191906000526020600020905b81548152906001019060200180831161278e57829003601f168201915b5050505050806020019051810190610bc19190614cba565b6001600160a01b0381166127ea57604051635fbd571760e01b815260040160405180910390fd5b6127f26110e3565b1580159061280e57506128036110e3565b61280b611bf6565b10155b15610f7957604051637efcdb4960e01b815260040160405180910390fd5b60008181526000805160206152178339815191526020819052604082208054908361285683614f2d565b909155509392505050565b60008281527f34516f6fe09a043d57f1ff579a303a7ae85314751c77b4eb1a55837604a86e02602052604090206000805160206152178339815191529061182d8382614f8e565b806000036128c95760405163acdc0d4960e01b815260040160405180910390fd5b8034146128e95760405163acdc0d4960e01b815260040160405180910390fd5b60008281527f34516f6fe09a043d57f1ff579a303a7ae85314751c77b4eb1a55837604a86e0160205260408120805460008051602061521783398151915292849291612936908490614efa565b9091555050505050565b6060600061294c6136c1565b80519091506000816001600160401b0381111561296b5761296b6143ed565b604051908082528060200260200182016040528015612994578160200160208202803683370190505b5085516020870120909150600090815b84811015612a635760006129d08783815181106129c3576129c3614a50565b60200260200101516136ec565b509250505060005b8151811015612a5957838282815181106129f4576129f4614a50565b60200260200101518051906020012003612a5157878381518110612a1a57612a1a614a50565b6020026020010151868681518110612a3457612a34614a50565b602090810291909101015284612a4981614f2d565b955050612a59565b6001016129d8565b50506001016129a4565b506000826001600160401b03811115612a7e57612a7e6143ed565b604051908082528060200260200182016040528015612ae357816020015b612ad06040518060a00160405280600081526020016060815260200160001515815260200160608152602001606081525090565b815260200190600190039081612a9c5790505b50905060005b83811015612b7e576000858281518110612b0557612b05614a50565b60200260200101519050600080600080612b1e856136ec565b93509350935093506040518060a00160405280868152602001858152602001841515815260200183815260200182815250878781518110612b6157612b61614a50565b602002602001018190525050505050508080600101915050612ae9565b50979650505050505050565b6000612b9582613817565b806020019051810190612ba89190614e9c565b90506000612bb76103aa611bf6565b90506000612bc36130ba565b90508115612c9a5760008481527f34516f6fe09a043d57f1ff579a303a7ae85314751c77b4eb1a55837604a86e01602052604081205490819003612c1a57604051635894b54560e11b815260040160405180910390fd5b80831115612c3b57604051635894b54560e11b815260040160405180910390fd5b612c4582846130ca565b6000612c51858561232d565b90506000612c5f8286614a3d565b90508015612c7357612c718682612445565b505b612c7d87866138e8565b612c968760405180602001604052806000815250612861565b5050505b612ca583600161319d565b612cb1816110ba6122a7565b60405181906001600160a01b038516907f2f40b0474996b72a4251e00fb9170cdd960deea1dc749772cbbab61395b9b57690600090a350505050565b60008281526000805160206151d78339815191526020526040902080546000805160206151b7833981519152919060ff161515600103612d405760405163bf2a062560e01b815260040160405180910390fd5b81546001600160a01b0316612d5757612d57613935565b8154604051634f84544560e01b8152600560048201526000916001600160a01b031690634f84544590602401600060405180830381865afa158015612da0573d6000803e3d6000fd5b505050506040513d6000823e601f3d908101601f19168201604052612dc8919081019061504d565b825460016001600160a81b03199091166101003302171760ff60a81b19168355905060028201612df88582614f8e565b5060005b8151811015612ec157826001016040518060400160405280848481518110612e2657612e26614a50565b60200260200101516001600160a01b0316815260200160006002811115612e4f57612e4f61468d565b9052815460018101835560009283526020928390208251910180546001600160a01b031981166001600160a01b03909316928317825593830151929390929183916001600160a81b03191617600160a01b836002811115612eb257612eb261468d565b02179055505050600101612dfc565b508254604051636ef10e6960e11b81526001600160a01b039091169063dde21cd290612ef5903390899086906004016150e6565b600060405180830381600087803b158015612f0f57600080fd5b505af1158015612f23573d6000803e3d6000fd5b505050505050505050565b8082101561087857604051636664d51760e11b815260040160405180910390fd5b604051630a85bd0160e11b81526000906001600160a01b0385169063150b7a0290612f8490339089908890889060040161510d565b6020604051808303816000875af1925050508015612fbf575060408051601f3d908101601f19168201909252612fbc91810190615140565b60015b61301d573d808015612fed576040519150601f19603f3d011682016040523d82523d6000602084013e612ff2565b606091505b508051600003613015576040516368d2bf6b60e11b815260040160405180910390fd5b805181602001fd5b6001600160e01b031916630a85bd0160e11b149050949350505050565b6000613044611ad0565b54821080156108665750600160e01b61305b611ad0565b60008481526004919091016020526040902054161592915050565b606060a06040510180604052602081039150506000815280825b600183039250600a81066030018353600a9004806130905750819003601f19909101908152919050565b60006130c4611ad0565b54919050565b806130d3611cd8565b600093845260090160205260409092209190915550565b60008181527f3c2290b88407133303e904ceb4ee7d0d14164eda8a629372d8406216ceb57e006020819052604082205461ffff1680830361313057600092505050610866565b600084815260018084016020908152604092839020835180850190945280548085529201549083015215801590613174575080514210806131745750806020015142115b156131855760009350505050610866565b613193868361ffff1661364c565b9695505050505050565b6108788282604051806020016040528060008152506139e9565b6001600160a01b0381166131de57604051630e88bf4b60e01b815260040160405180910390fd5b6131e6610f12565b6040516346fc05eb60e11b81526001600160a01b0383811660048301529190911690638df80bd690602401602060405180830381865afa15801561322e573d6000803e3d6000fd5b505050506040513d601f19601f820116820180604052508101906132529190614a66565b610f7957604051630e88bf4b60e01b815260040160405180910390fd5b6000613279611ad0565b6001600160a01b039384166000908152600791909101602090815260408083209490951682529290925250205460ff1690565b60008281526000805160206151d78339815191526020526040902080546000805160206151b7833981519152919061010090046001600160a01b031661330557604051637ad5a43960e11b815260040160405180910390fd5b8054600160a81b900460ff161561332f57604051635d802b6760e11b815260040160405180910390fd5b805460ff16151560000361335657604051637ad5a43960e11b815260040160405180910390fd5b6000805b600183015481101561341757600083600101828154811061337d5761337d614a50565b60009182526020909120018054909150336001600160a01b039091160361340e5760008154600160a01b900460ff1660028111156133bd576133bd61468d565b146133db576040516347592a4d60e01b815260040160405180910390fd5b8054600193508690829060ff60a01b1916600160a01b8360028111156134035761340361468d565b021790555050613417565b5060010161335a565b5080151560000361343b57604051638223a7e960e01b815260040160405180910390fd5b60008060005b60018501548110156134e257600085600101828154811061346457613464614a50565b6000918252602090912001905060018154600160a01b900460ff1660028111156134905761349061468d565b036134a7578361349f81614f2d565b9450506134d9565b60028154600160a01b900460ff1660028111156134c6576134c661468d565b036134d957826134d581614f2d565b9350505b50600101613441565b5060018401546134f49060029061516a565b82111561355e57835460ff60a81b1916600160a81b178455613517876001613a5f565b867fb9d6ce397e562841871d119aaf77469c60a3b5bf8b99a5d9851656015015c6336001604051613548919061518c565b60405180910390a261355987613b14565b611ef4565b600184015461356f9060029061516a565b811115611ef457835460ff60a81b1916600160a81b178455613592876002613a5f565b867fb9d6ce397e562841871d119aaf77469c60a3b5bf8b99a5d9851656015015c63360026040516135c3919061518c565b60405180910390a2611ef487613b14565b60006135de611ad0565b9050600281016135ee8482614f8e565b50600381016135fd8382614f8e565b50600090555050565b801561182d5773eeeeeeeeeeeeeeeeeeeeeeeeeeeeeeeeeeeeeeed196001600160a01b038516016136405761363b8282613b96565b61182d565b61182d84848484613c39565b60006127108211156136aa5760405162461bcd60e51b815260206004820152602160248201527f426173697320706f696e74732063616e6e6f74206578636565642031305f30306044820152600360fc1b6064820152608401610cd9565b6127106136b7838561519f565b6118bd919061516a565b60606108897f672ef851d5f92307da037116e23aa9e31af7e1f7e3ca62c4e6d540631df3fd01613c8c565b600081815260008051602061523783398151915260205260408120805460609291839182919061371b906149da565b80601f0160208091040260200160405190810160405280929190818152602001828054613747906149da565b80156137945780601f1061376957610100808354040283529160200191613794565b820191906000526020600020905b81548152906001019060200180831161377757829003601f168201915b505050505093506137c27f672ef851d5f92307da037116e23aa9e31af7e1f7e3ca62c4e6d540631df3fd0090565b6000868152600391909101602090815260408083206001015460008051602061523783398151915290925290912060ff909116935061380390600201613c99565b915061380e85613ca4565b90509193509193565b60008181527f34516f6fe09a043d57f1ff579a303a7ae85314751c77b4eb1a55837604a86e0260205260409020805460609160008051602061521783398151915291613862906149da565b80601f016020809104026020016040519081016040528092919081815260200182805461388e906149da565b80156138db5780601f106138b0576101008083540402835291602001916138db565b820191906000526020600020905b8154815290600101906020018083116138be57829003601f168201915b5050505050915050919050565b60008281527f34516f6fe09a043d57f1ff579a303a7ae85314751c77b4eb1a55837604a86e0160205260408120805460008051602061521783398151915292849291612936908490614a3d565b6000805160206151b7833981519152600061394e611cd8565b60060154604051628956cd60e71b81526c29b830b1b2a7b832b930ba37b960991b60048201526001600160a01b03909116906344ab668090602401602060405180830381865afa1580156139a6573d6000803e3d6000fd5b505050506040513d601f19601f820116820180604052508101906139ca9190614e9c565b82546001600160a01b0319166001600160a01b03919091161790915550565b6139f38383613da8565b6001600160a01b0383163b15610c39576000613a0d611ad0565b5490508281035b613a276000868380600101945086612f4f565b613a44576040516368d2bf6b60e11b815260040160405180910390fd5b818110613a145781613a54611ad0565b5414610e9d57600080fd5b6000613a69611cd8565b90506001826002811115613a7f57613a7f61468d565b03613aad57613a8d83612b8a565b6000928352600b01602052506040902080546001600160a01b0319169055565b6000838152600b820160205260408082205490516001600160a01b039091169182917f86fd446d5c04e892d58b448a924dcd9c3ece3a5e0d2960b8c35cd475a5595a1f9190a2506000928352600b01602052506040902080546001600160a01b0319169055565b60008181526000805160206151d7833981519152602052604081206000805160206151b783398151915291613b4d90600183019061424f565b613b5b60028201600061426d565b600083815260018084016020526040822080546001600160b01b03191681559190613b889083018261424f565b610e9d60028301600061426d565b6000826001600160a01b03168260405160006040518083038185875af1925050503d8060008114613be3576040519150601f19603f3d011682016040523d82523d6000602084013e613be8565b606091505b5050905080610c395760405162461bcd60e51b815260206004820152601c60248201527f6e617469766520746f6b656e207472616e73666572206661696c6564000000006044820152606401610cd9565b816001600160a01b0316836001600160a01b0316031561182d57306001600160a01b03841603613c775761363b6001600160a01b0385168383613ee3565b61182d6001600160a01b038516848484613f42565b606060006118bd83613f7b565b606061086682613fd7565b60008181526000805160206152378339815191526020526040812060609190613ccf906004016140b4565b6001600160401b03811115613ce657613ce66143ed565b604051908082528060200260200182016040528015613d0f578160200160208202803683370190505b50905060005b600084815260008051602061523783398151915260205260409020613d3c906004016140b4565b811015613da157600084815260008051602061523783398151915260205260408120613d6b90600401836140be565b905080838381518110613d8057613d80614a50565b6001600160a01b039092166020928302919091019091015250600101613d15565b5092915050565b6000613db2611ad0565b5490506000829003613dd75760405163b562e8dd60e01b815260040160405180910390fd5b680100000000000000018202613deb611ad0565b6001600160a01b038516600081815260059290920160205260409091208054929092019091554260a01b6001841460e11b1717613e26611ad0565b600083815260049190910160205260408120919091556001600160a01b0384169083830190839083907fddf252ad1be2c89b69c2b068fc378daa952ba7f163c4a11628f55a4df523b3ef8180a4600183015b818114613eb057808360007fddf252ad1be2c89b69c2b068fc378daa952ba7f163c4a11628f55a4df523b3ef600080a4600101613e78565b5081600003613ed157604051622e076360e81b815260040160405180910390fd5b80613eda611ad0565b5550610c399050565b6040516001600160a01b03838116602483015260448201839052610c3991859182169063a9059cbb906064015b604051602081830303815290604052915060e01b6020820180516001600160e01b0383818316178352505050506140ca565b6040516001600160a01b03848116602483015283811660448301526064820183905261182d9186918216906323b872dd90608401613f10565b606081600001805480602002602001604051908101604052809291908181526020018280548015613fcb57602002820191906000526020600020905b815481526020019060010190808311613fb7575b50505050509050919050565b606081600001805480602002602001604051908101604052809291908181526020016000905b828210156140a957838290600052602060002001805461401c906149da565b80601f0160208091040260200160405190810160405280929190818152602001828054614048906149da565b80156140955780601f1061406a57610100808354040283529160200191614095565b820191906000526020600020905b81548152906001019060200180831161407857829003601f168201915b505050505081526020019060010190613ffd565b505050509050919050565b6000610866825490565b60006118bd838361412d565b60006140df6001600160a01b03841683614157565b905080516000141580156141045750808060200190518101906141029190614a66565b155b15610c3957604051635274afe760e01b81526001600160a01b0384166004820152602401610cd9565b600082600001828154811061414457614144614a50565b9060005260206000200154905092915050565b60606118bd8383600084600080856001600160a01b0316848660405161417d9190614a83565b60006040518083038185875af1925050503d80600081146141ba576040519150601f19603f3d011682016040523d82523d6000602084013e6141bf565b606091505b50915091506131938683836060826141df576141da82614226565b6118bd565b81511580156141f657506001600160a01b0384163b155b1561421f57604051639996b31560e01b81526001600160a01b0385166004820152602401610cd9565b50806118bd565b8051156142365780518082602001fd5b604051630a12f52160e11b815260040160405180910390fd5b5080546000825590600052602060002090810190610f7991906142a7565b508054614279906149da565b6000825580601f10614289575050565b601f016020900490600052602060002090810190610f7991906142ca565b5b808211156142c65780546001600160a81b03191681556001016142a8565b5090565b5b808211156142c657600081556001016142cb565b60005b838110156142fa5781810151838201526020016142e2565b50506000910152565b6000815180845261431b8160208601602086016142df565b601f01601f19169290920160200192915050565b6020815260006118bd6020830184614303565b60006020828403121561435457600080fd5b5035919050565b6001600160a01b0381168114610f7957600080fd5b803561437b8161435b565b919050565b6000806040838503121561439357600080fd5b823561439e8161435b565b946020939093013593505050565b6000806000606084860312156143c157600080fd5b83356143cc8161435b565b925060208401356143dc8161435b565b929592945050506040919091013590565b634e487b7160e01b600052604160045260246000fd5b60405161012081016001600160401b0381118282101715614426576144266143ed565b60405290565b604051608081016001600160401b0381118282101715614426576144266143ed565b604051606081016001600160401b0381118282101715614426576144266143ed565b604080519081016001600160401b0381118282101715614426576144266143ed565b604051601f8201601f191681016001600160401b03811182821017156144ba576144ba6143ed565b604052919050565b60006001600160401b038211156144db576144db6143ed565b50601f01601f191660200190565b60006144fc6144f7846144c2565b614492565b905082815283838301111561451057600080fd5b828260208301376000602084830101529392505050565b600082601f83011261453857600080fd5b6118bd838335602085016144e9565b6001600160401b0381168114610f7957600080fd5b803561437b81614547565b6000806040838503121561457a57600080fd5b82356001600160401b038082111561459157600080fd5b9084019061012082870312156145a657600080fd5b6145ae614403565b8235828111156145bd57600080fd5b6145c988828601614527565b8252506020830135828111156145de57600080fd5b6145ea88828601614527565b60208301525060408301356040820152606083013560608201526146106080840161455c565b608082015261462160a08401614370565b60a082015261463260c08401614370565b60c082015260e083013560e08201526101009150614651828401614370565b8282015280945050505061466760208401614370565b90509250929050565b60006020828403121561468257600080fd5b81356118bd8161435b565b634e487b7160e01b600052602160045260246000fd5b60038110610f7957610f7961468d565b60008151808452602080850194506020840160005b8381101561471d5781518051600681106146e4576146e461468d565b885280840151848901526040808201516001600160a01b03169089015260609081015190880152608090960195908201906001016146c8565b509495945050505050565b60008151808452602080850194506020840160005b8381101561471d5781518051614752816146a3565b88528084015160ff908116858a015260409182015116908801526060909601959082019060010161473d565b6020808252825160608383015280516080840181905260009291820190839060a08601905b808310156147da57835180516147b8816146a3565b835285015160ff168583015292840192600192909201916040909101906147a3565b50838701519350601f199250828682030160408701526147fa81856146b3565b935050506040850151818584030160608601526131938382614728565b8015158114610f7957600080fd5b6000806040838503121561483857600080fd5b82356148438161435b565b9150602083013561485381614817565b809150509250929050565b6000806000806080858703121561487457600080fd5b843561487f8161435b565b9350602085013561488f8161435b565b92506040850135915060608501356001600160401b038111156148b157600080fd5b8501601f810187136148c257600080fd5b6148d1878235602084016144e9565b91505092959194509250565b600080604083850312156148f057600080fd5b82356001600160401b038082111561490757600080fd5b61491386838701614527565b9350602085013591508082111561492957600080fd5b5061493685828601614527565b9150509250929050565b6000806040838503121561495357600080fd5b823561495e8161435b565b915060208301356148538161435b565b60006020828403121561498057600080fd5b81356001600160401b0381111561499657600080fd5b8201606081850312156118bd57600080fd5b60038110610f7957600080fd5b600080604083850312156149c857600080fd5b823591506020830135614853816149a8565b600181811c908216806149ee57607f821691505b602082108103611c9057634e487b7160e01b600052602260045260246000fd5b600060208284031215614a2057600080fd5b5051919050565b634e487b7160e01b600052601160045260246000fd5b8181038181111561086657610866614a27565b634e487b7160e01b600052603260045260246000fd5b600060208284031215614a7857600080fd5b81516118bd81614817565b60008251614a958184602087016142df565b9190910192915050565b80516020808301519190811015611c905760001960209190910360031b1b16919050565b60008151808452602080850194506020840160005b8381101561471d5781516001600160a01b031687529582019590820190600101614ad8565b838152606060208201526000614b166060830185614ac3565b9050826040830152949350505050565b60006001600160401b03821115614b3f57614b3f6143ed565b5060051b60200190565b805160ff8116811461437b57600080fd5b600082601f830112614b6b57600080fd5b81516020614b7b6144f783614b26565b82815260079290921b84018101918181019086841115614b9a57600080fd5b8286015b84811015614c045760808189031215614bb75760008081fd5b614bbf61442c565b815160068110614bcf5760008081fd5b81528185015185820152604080830151614be88161435b565b9082015260608281015190820152835291830191608001614b9e565b509695505050505050565b600082601f830112614c2057600080fd5b81516020614c306144f783614b26565b82815260609283028501820192828201919087851115614c4f57600080fd5b8387015b85811015614cad5781818a031215614c6b5760008081fd5b614c7361444e565b8151614c7e816149a8565b8152614c8b828701614b49565b868201526040614c9c818401614b49565b908201528452928401928101614c53565b5090979650505050505050565b60006020808385031215614ccd57600080fd5b82516001600160401b0380821115614ce457600080fd5b9084019060608287031215614cf857600080fd5b614d0061444e565b825182811115614d0f57600080fd5b8301601f81018813614d2057600080fd5b8051614d2e6144f782614b26565b81815260069190911b8201860190868101908a831115614d4d57600080fd5b928701925b82841015614da1576040848c031215614d6b5760008081fd5b614d73614470565b8451614d7e816149a8565b8152614d8b858a01614b49565b818a015282526040939093019290870190614d52565b84525050508284015182811115614db757600080fd5b614dc388828601614b5a565b85830152506040830151935081841115614ddc57600080fd5b614de887858501614c0f565b60408201529695505050505050565b600060208284031215614e0957600080fd5b81516001600160401b03811115614e1f57600080fd5b8201601f81018413614e3057600080fd5b8051614e3e6144f7826144c2565b818152856020838501011115614e5357600080fd5b614e648260208301602086016142df565b95945050505050565b60008351614e7f8184602088016142df565b835190830190614e938183602088016142df565b01949350505050565b600060208284031215614eae57600080fd5b81516118bd8161435b565b600060208284031215614ecb57600080fd5b81516118bd81614547565b600060208284031215614ee857600080fd5b815161ffff811681146118bd57600080fd5b8082018082111561086657610866614a27565b6001600160401b03818116838216019080821115613da157613da1614a27565b600060018201614f3f57614f3f614a27565b5060010190565b601f821115610c39576000816000526020600020601f850160051c81016020861015614f6f5750805b601f850160051c820191505b81811015610a8757828155600101614f7b565b81516001600160401b03811115614fa757614fa76143ed565b614fbb81614fb584546149da565b84614f46565b602080601f831160018114614ff05760008415614fd85750858301515b600019600386901b1c1916600185901b178555610a87565b600085815260208120601f198616915b8281101561501f57888601518255948401946001909101908401615000565b508582101561503d5787850151600019600388901b60f8161c191681555b5050505050600190811b01905550565b6000602080838503121561506057600080fd5b82516001600160401b0381111561507657600080fd5b8301601f8101851361508757600080fd5b80516150956144f782614b26565b81815260059190911b820183019083810190878311156150b457600080fd5b928401925b828410156150db5783516150cc8161435b565b825292840192908401906150b9565b979650505050505050565b60018060a01b0384168152826020820152606060408201526000614e646060830184614ac3565b6001600160a01b038581168252841660208201526040810183905260806060820181905260009061319390830184614303565b60006020828403121561515257600080fd5b81516001600160e01b0319811681146118bd57600080fd5b60008261518757634e487b7160e01b600052601260045260246000fd5b500490565b60208101615199836146a3565b91905290565b808202811582820484141761086657610866614a2756fe9075c515a635ba70c9696f31149324218d75cf00afe836c482e6473f38b19e009075c515a635ba70c9696f31149324218d75cf00afe836c482e6473f38b19e0154f22f54f370bd020e00ee80e1a5099a71652e2ccbcf6a75281e4c70a3e11a0034516f6fe09a043d57f1ff579a303a7ae85314751c77b4eb1a55837604a86e00672ef851d5f92307da037116e23aa9e31af7e1f7e3ca62c4e6d540631df3fd0359b501c3653afc186af7d48dda36cf6732bd21629a6295693664240a6ef52000","linkReferences":{}},"methodIdentifiers":{"__ERC721A_init(string,string)":"d2f01f19","__EntitlementGated_init(address)":"7adc9cbe","__Membership_init((string,string,uint256,uint256,uint64,address,address,uint256,address),address)":"4c2abfbe","_getMembershipCurrency()":"70251563","_getMembershipFreeAllocation()":"b3a5be6d","_getMembershipPrice(uint256)":"3ded10de","_getMembershipSupplyLimit()":"8934207f","_getPricingModule()":"ac7ee626","_getSpaceFactory()":"77460cd3","_setMembershipFreeAllocation(uint256)":"f9d5d22c","_setMembershipSupplyLimit(uint256)":"73fc5a05","_setPricingModule(address)":"69d9346b","approve(address,uint256)":"095ea7b3","balanceOf(address)":"70a08231","expiresAt(uint256)":"17c95709","getApproved(uint256)":"081812fc","getMembershipCurrency()":"657e45e8","getMembershipDuration()":"8120f0ba","getMembershipFreeAllocation()":"706b8e09","getMembershipLimit()":"95d600c8","getMembershipPrice()":"1278076a","getMembershipPricingModule()":"e847abdd","getMembershipRenewalPrice(uint256)":"5803909f","getRuleData(bytes32)":"8a59b1b4","getSpaceFactory()":"79dda585","isApprovedForAll(address,address)":"e985e9c5","joinSpace(address)":"8c625b06","joinSpaceWithReferral(address,address,uint256)":"c9f7c833","name()":"06fdde03","ownerOf(uint256)":"6352211e","postEntitlementCheckResult(bytes32,uint8)":"f4efb0bb","renewMembership(uint256)":"7c9669ac","requestEntitlementCheck(((uint8,uint8)[],(uint8,uint256,address,uint256)[],(uint8,uint8,uint8)[]))":"efa8db23","safeTransferFrom(address,address,uint256)":"42842e0e","safeTransferFrom(address,address,uint256,bytes)":"b88d4fde","setApprovalForAll(address,bool)":"a22cb465","setMembershipFreeAllocation(uint256)":"5becd24a","setMembershipLimit(uint256)":"97fb7c1e","setMembershipPrice(uint256)":"69d5f38a","setMembershipPricingModule(address)":"df9a9fe6","symbol()":"95d89b41","tokenURI(uint256)":"c87b56dd","totalSupply()":"18160ddd","transferFrom(address,address,uint256)":"23b872dd","withdraw(address)":"51cff8d9"},"id":182}