{"abi":[{"type":"constructor","inputs":[{"name":"approvedOperators","type":"address[]","internalType":"address[]"}],"stateMutability":"nonpayable"},{"type":"function","name":"__OperatorRegistry_init","inputs":[{"name":"initialOperators","type":"address[]","internalType":"address[]"}],"outputs":[],"stateMutability":"nonpayable"},{"type":"function","name":"allocateStream","inputs":[{"name":"streamId","type":"bytes32","internalType":"bytes32"},{"name":"nodes","type":"address[]","internalType":"address[]"},{"name":"genesisMiniblockHash","type":"bytes32","internalType":"bytes32"},{"name":"genesisMiniblock","type":"bytes","internalType":"bytes"}],"outputs":[],"stateMutability":"nonpayable"},{"type":"function","name":"approveOperator","inputs":[{"name":"operator","type":"address","internalType":"address"}],"outputs":[],"stateMutability":"nonpayable"},{"type":"function","name":"getAllNodeAddresses","inputs":[],"outputs":[{"name":"","type":"address[]","internalType":"address[]"}],"stateMutability":"view"},{"type":"function","name":"getAllNodes","inputs":[],"outputs":[{"name":"","type":"tuple[]","internalType":"struct Node[]","components":[{"name":"status","type":"uint8","internalType":"enum NodeStatus"},{"name":"url","type":"string","internalType":"string"},{"name":"nodeAddress","type":"address","internalType":"address"},{"name":"operator","type":"address","internalType":"address"}]}],"stateMutability":"view"},{"type":"function","name":"getAllStreamIds","inputs":[],"outputs":[{"name":"","type":"bytes32[]","internalType":"bytes32[]"}],"stateMutability":"view"},{"type":"function","name":"getAllStreams","inputs":[],"outputs":[{"name":"","type":"tuple[]","internalType":"struct StreamWithId[]","components":[{"name":"id","type":"bytes32","internalType":"bytes32"},{"name":"stream","type":"tuple","internalType":"struct Stream","components":[{"name":"lastMiniblockHash","type":"bytes32","internalType":"bytes32"},{"name":"lastMiniblockNum","type":"uint64","internalType":"uint64"},{"name":"reserved0","type":"uint64","internalType":"uint64"},{"name":"flags","type":"uint64","internalType":"uint64"},{"name":"nodes","type":"address[]","internalType":"address[]"}]}]}],"stateMutability":"view"},{"type":"function","name":"getNode","inputs":[{"name":"nodeAddress","type":"address","internalType":"address"}],"outputs":[{"name":"","type":"tuple","internalType":"struct Node","components":[{"name":"status","type":"uint8","internalType":"enum NodeStatus"},{"name":"url","type":"string","internalType":"string"},{"name":"nodeAddress","type":"address","internalType":"address"},{"name":"operator","type":"address","internalType":"address"}]}],"stateMutability":"view"},{"type":"function","name":"getNodeCount","inputs":[],"outputs":[{"name":"","type":"uint256","internalType":"uint256"}],"stateMutability":"view"},{"type":"function","name":"getStream","inputs":[{"name":"streamId","type":"bytes32","internalType":"bytes32"}],"outputs":[{"name":"","type":"tuple","internalType":"struct Stream","components":[{"name":"lastMiniblockHash","type":"bytes32","internalType":"bytes32"},{"name":"lastMiniblockNum","type":"uint64","internalType":"uint64"},{"name":"reserved0","type":"uint64","internalType":"uint64"},{"name":"flags","type":"uint64","internalType":"uint64"},{"name":"nodes","type":"address[]","internalType":"address[]"}]}],"stateMutability":"view"},{"type":"function","name":"getStreamCount","inputs":[],"outputs":[{"name":"","type":"uint256","internalType":"uint256"}],"stateMutability":"view"},{"type":"function","name":"getStreamWithGenesis","inputs":[{"name":"streamId","type":"bytes32","internalType":"bytes32"}],"outputs":[{"name":"","type":"tuple","internalType":"struct Stream","components":[{"name":"lastMiniblockHash","type":"bytes32","internalType":"bytes32"},{"name":"lastMiniblockNum","type":"uint64","internalType":"uint64"},{"name":"reserved0","type":"uint64","internalType":"uint64"},{"name":"flags","type":"uint64","internalType":"uint64"},{"name":"nodes","type":"address[]","internalType":"address[]"}]},{"name":"","type":"bytes32","internalType":"bytes32"},{"name":"","type":"bytes","internalType":"bytes"}],"stateMutability":"view"},{"type":"function","name":"getStreamsOnNode","inputs":[{"name":"nodeAddress","type":"address","internalType":"address"}],"outputs":[{"name":"","type":"tuple[]","internalType":"struct StreamWithId[]","components":[{"name":"id","type":"bytes32","internalType":"bytes32"},{"name":"stream","type":"tuple","internalType":"struct Stream","components":[{"name":"lastMiniblockHash","type":"bytes32","internalType":"bytes32"},{"name":"lastMiniblockNum","type":"uint64","internalType":"uint64"},{"name":"reserved0","type":"uint64","internalType":"uint64"},{"name":"flags","type":"uint64","internalType":"uint64"},{"name":"nodes","type":"address[]","internalType":"address[]"}]}]}],"stateMutability":"view"},{"type":"function","name":"isOperator","inputs":[{"name":"operator","type":"address","internalType":"address"}],"outputs":[{"name":"","type":"bool","internalType":"bool"}],"stateMutability":"view"},{"type":"function","name":"placeStreamOnNode","inputs":[{"name":"streamId","type":"bytes32","internalType":"bytes32"},{"name":"nodeAddress","type":"address","internalType":"address"}],"outputs":[],"stateMutability":"nonpayable"},{"type":"function","name":"registerNode","inputs":[{"name":"nodeAddress","type":"address","internalType":"address"},{"name":"url","type":"string","internalType":"string"},{"name":"status","type":"uint8","internalType":"enum NodeStatus"}],"outputs":[],"stateMutability":"nonpayable"},{"type":"function","name":"removeNode","inputs":[{"name":"nodeAddress","type":"address","internalType":"address"}],"outputs":[],"stateMutability":"nonpayable"},{"type":"function","name":"removeOperator","inputs":[{"name":"operator","type":"address","internalType":"address"}],"outputs":[],"stateMutability":"nonpayable"},{"type":"function","name":"removeStreamFromNode","inputs":[{"name":"streamId","type":"bytes32","internalType":"bytes32"},{"name":"nodeAddress","type":"address","internalType":"address"}],"outputs":[],"stateMutability":"nonpayable"},{"type":"function","name":"setStreamLastMiniblock","inputs":[{"name":"streamId","type":"bytes32","internalType":"bytes32"},{"name":"lastMiniblockHash","type":"bytes32","internalType":"bytes32"},{"name":"lastMiniblockNum","type":"uint64","internalType":"uint64"},{"name":"isSealed","type":"bool","internalType":"bool"}],"outputs":[],"stateMutability":"nonpayable"},{"type":"function","name":"updateNodeStatus","inputs":[{"name":"nodeAddress","type":"address","internalType":"address"},{"name":"status","type":"uint8","internalType":"enum NodeStatus"}],"outputs":[],"stateMutability":"nonpayable"},{"type":"function","name":"updateNodeUrl","inputs":[{"name":"nodeAddress","type":"address","internalType":"address"},{"name":"url","type":"string","internalType":"string"}],"outputs":[],"stateMutability":"nonpayable"},{"type":"event","name":"Initialized","inputs":[{"name":"version","type":"uint32","indexed":false,"internalType":"uint32"}],"anonymous":false},{"type":"event","name":"InterfaceAdded","inputs":[{"name":"interfaceId","type":"bytes4","indexed":true,"internalType":"bytes4"}],"anonymous":false},{"type":"event","name":"InterfaceRemoved","inputs":[{"name":"interfaceId","type":"bytes4","indexed":true,"internalType":"bytes4"}],"anonymous":false},{"type":"event","name":"NodeAdded","inputs":[{"name":"nodeAddress","type":"address","indexed":true,"internalType":"address"},{"name":"url","type":"string","indexed":false,"internalType":"string"},{"name":"status","type":"uint8","indexed":false,"internalType":"enum NodeStatus"}],"anonymous":false},{"type":"event","name":"NodeRemoved","inputs":[{"name":"nodeAddress","type":"address","indexed":true,"internalType":"address"}],"anonymous":false},{"type":"event","name":"NodeStatusUpdated","inputs":[{"name":"nodeAddress","type":"address","indexed":true,"internalType":"address"},{"name":"status","type":"uint8","indexed":false,"internalType":"enum NodeStatus"}],"anonymous":false},{"type":"event","name":"NodeUrlUpdated","inputs":[{"name":"nodeAddress","type":"address","indexed":true,"internalType":"address"},{"name":"url","type":"string","indexed":false,"internalType":"string"}],"anonymous":false},{"type":"event","name":"OperatorAdded","inputs":[{"name":"operatorAddress","type":"address","indexed":true,"internalType":"address"}],"anonymous":false},{"type":"event","name":"OperatorRemoved","inputs":[{"name":"operatorAddress","type":"address","indexed":true,"internalType":"address"}],"anonymous":false},{"type":"event","name":"OwnershipTransferred","inputs":[{"name":"previousOwner","type":"address","indexed":true,"internalType":"address"},{"name":"newOwner","type":"address","indexed":true,"internalType":"address"}],"anonymous":false},{"type":"event","name":"StreamAllocated","inputs":[{"name":"streamId","type":"bytes32","indexed":false,"internalType":"bytes32"},{"name":"nodes","type":"address[]","indexed":false,"internalType":"address[]"},{"name":"genesisMiniblockHash","type":"bytes32","indexed":false,"internalType":"bytes32"},{"name":"genesisMiniblock","type":"bytes","indexed":false,"internalType":"bytes"}],"anonymous":false},{"type":"event","name":"StreamLastMiniblockUpdated","inputs":[{"name":"streamId","type":"bytes32","indexed":false,"internalType":"bytes32"},{"name":"lastMiniblockHash","type":"bytes32","indexed":false,"internalType":"bytes32"},{"name":"lastMiniblockNum","type":"uint64","indexed":false,"internalType":"uint64"},{"name":"isSealed","type":"bool","indexed":false,"internalType":"bool"}],"anonymous":false},{"type":"event","name":"StreamPlacementUpdated","inputs":[{"name":"streamId","type":"bytes32","indexed":false,"internalType":"bytes32"},{"name":"nodeAddress","type":"address","indexed":false,"internalType":"address"},{"name":"isAdded","type":"bool","indexed":false,"internalType":"bool"}],"anonymous":false},{"type":"error","name":"Initializable_InInitializingState","inputs":[]},{"type":"error","name":"Initializable_NotInInitializingState","inputs":[]},{"type":"error","name":"Introspection_AlreadySupported","inputs":[]},{"type":"error","name":"Introspection_NotSupported","inputs":[]},{"type":"error","name":"Ownable__NotOwner","inputs":[{"name":"account","type":"address","internalType":"address"}]},{"type":"error","name":"Ownable__ZeroAddress","inputs":[]}],"bytecode":{"object":"0x60806040523480156200001157600080fd5b506040516200326f3803806200326f83398101604081905262000034916200038a565b6200003e62000094565b62000049336200013c565b60005b81518110156200008c57620000838282815181106200006f576200006f6200045c565b6020026020010151620001e860201b60201c565b6001016200004c565b5050620004c3565b7f2d0d21306acfe8e9bb163a4573e95aff6cef95dc1102c6a16d5f19eac08cc4de8054640100000000900460ff1615620000e1576040516366008a2d60e01b815260040160405180910390fd5b805463ffffffff90811610156200013957805463ffffffff191663ffffffff90811782556040519081527fe9c9b456cb2994b80aeef036cf59d26e9617df80f816a6ee5a5b4166e07e2f5c9060200160405180910390a15b50565b60006200015f6000805160206200324f833981519152546001600160a01b031690565b90506001600160a01b0382166200018957604051634e3ef82560e01b815260040160405180910390fd5b816000805160206200324f83398151915280546001600160a01b0319166001600160a01b03928316179055604051838216918316907f8be0079c531659141344cd1fd0a4f28419497f9722a3daafe3b4186f6b6457e090600090a35050565b6001600160a01b038116620002375760408051808201825260078152664241445f41524760c81b6020820152905162461bcd60e51b81526200022e919060040162000472565b60405180910390fd5b62000244600882620002cd565b156200028857604080518082018252600e81526d414c52454144595f45584953545360901b6020820152905162461bcd60e51b81526200022e919060040162000472565b62000295600882620002f4565b506040516001600160a01b038216907fac6fa858e9350a46cec16539926e0fde25b7629f84b5a72bffaae4df888ae86d90600090a250565b6001600160a01b038116600090815260018301602052604081205415155b90505b92915050565b6000620002eb836001600160a01b03841660008181526001830160205260408120546200034e57508154600181810184556000848152602080822090930184905584548482528286019093526040902091909155620002ee565b506000620002ee565b634e487b7160e01b600052604160045260246000fd5b80516001600160a01b03811681146200038557600080fd5b919050565b600060208083850312156200039e57600080fd5b82516001600160401b0380821115620003b657600080fd5b818501915085601f830112620003cb57600080fd5b815181811115620003e057620003e062000357565b8060051b604051601f19603f8301168101818110858211171562000408576200040862000357565b6040529182528482019250838101850191888311156200042757600080fd5b938501935b82851015620004505762000440856200036d565b845293850193928501926200042c565b98975050505050505050565b634e487b7160e01b600052603260045260246000fd5b60006020808352835180602085015260005b81811015620004a25785810183015185820160400152820162000484565b506000604082860101526040601f19601f8301168501019250505092915050565b612d7c80620004d36000396000f3fe608060405234801561001057600080fd5b50600436106101425760003560e01c806386789fc6116100b8578063b2b99ec91161007c578063b2b99ec9146102c4578063ba428b1a146102d7578063c0f22084146102ea578063c8fe3a01146102f2578063ee885b1214610307578063eecc66f41461031a57600080fd5b806386789fc6146102545780639d209048146102695780639ee86d3814610289578063a1174e7d1461029c578063ac8a584a146102b157600080fd5b80633c2544d11161010a5780633c2544d1146101c3578063581f8b9b146101e5578063681a8d67146101f85780636b883c391461020b5780636d70f7ae1461021e5780637e4465e71461024157600080fd5b80631290abe814610147578063242cae9f1461017057806332705ac41461018557806339bf397e146101a55780633bd84c0c146101bb575b600080fd5b61015a61015536600461238c565b61032d565b6040516101679190612436565b60405180910390f35b61018361017e366004612465565b610458565b005b610198610193366004612465565b6104b0565b6040516101679190612480565b6101ad610760565b604051908152602001610167565b610198610771565b6101d66101d136600461238c565b6108e2565b60405161016793929190612546565b6101836101f336600461258a565b610ab3565b6101836102063660046125bd565b610c46565b6101836102193660046126cd565b610e6f565b61023161022c366004612465565b6110ae565b6040519015158152602001610167565b61018361024f3660046127b0565b6110c1565b61025c6112b0565b60405161016791906127fd565b61027c610277366004612465565b6112bc565b60405161016791906128cd565b6101836102973660046128e0565b61143d565b6102a46115e0565b6040516101679190612903565b6101836102bf366004612465565b6117b4565b6101836102d2366004612465565b611928565b6101836102e5366004612967565b61198b565b6101ad611a17565b6102fa611a22565b6040516101679190612a20565b6101836103153660046128e0565b611a2e565b610183610328366004612a33565b611c60565b6040805160a08101825260008082526020820181905291810182905260608082018390526080820152906103619083611e17565b6103a55760408051808201825260098152681393d517d193d5539160ba1b6020820152905162461bcd60e51b815261039c9190600401612a90565b60405180910390fd5b600082815260026020818152604092839020835160a0810185528154815260018201546001600160401b0380821683860152600160401b8204811683880152600160801b909104166060820152928101805485518185028101850190965280865293949193608086019383018282801561044857602002820191906000526020600020905b81546001600160a01b0316815260019091019060200180831161042a575b5050505050815250509050919050565b7fa7c3be20e3a76821507555109752fad8a6630ef0362a34dcfcdfef83c99a2537546001600160a01b031633146104a4576040516365f4906560e01b815233600482015260240161039c565b6104ad81611e32565b50565b606060006104bd81611f04565b6001600160401b038111156104d4576104d4612618565b6040519080825280602002602001820160405280156104fd578160200160208202803683370190505b5090506000805b61050e6000611f04565b8110156105c35760006105218183611f0e565b60008181526002602052604081209192505b60028201548110156105b557876001600160a01b031682600201828154811061055e5761055e612aa3565b6000918252602090912001546001600160a01b0316036105ad5782868661058481612acf565b975063ffffffff168151811061059c5761059c612aa3565b6020026020010181815250506105b5565b600101610533565b505050806001019050610504565b5060008163ffffffff166001600160401b038111156105e4576105e4612618565b60405190808252806020026020018201604052801561061d57816020015b61060a61228e565b8152602001906001900390816106025790505b50905060005b8263ffffffff1681101561075757604051806040016040528085838151811061064e5761064e612aa3565b602002602001015181526020016000600201600087858151811061067457610674612aa3565b6020908102919091018101518252818101929092526040908101600020815160a0810183528154815260018201546001600160401b0380821683870152600160401b8204811683860152600160801b90910416606082015260028201805484518187028101870190955280855291949293608086019390929083018282801561072657602002820191906000526020600020905b81546001600160a01b03168152600190910190602001808311610708575b50505050508152505081525082828151811061074457610744612aa3565b6020908102919091010152600101610623565b50949350505050565b600061076c6005611f04565b905090565b6060600061077e81611f04565b6001600160401b0381111561079557610795612618565b6040519080825280602002602001820160405280156107ce57816020015b6107bb61228e565b8152602001906001900390816107b35790505b50905060005b6107de6000611f04565b8110156108dc5760006107f18183611f0e565b60408051808201825282815260008381526002602081815291849020845160a0810186528154815260018201546001600160401b0380821683870152600160401b8204811683890152600160801b90910416606082015291810180548651818602810186019097528087529697509395838701959294919360808601939291908301828280156108aa57602002820191906000526020600020905b81546001600160a01b0316815260019091019060200180831161088c575b5050505050815250508152508383815181106108c8576108c8612aa3565b6020908102919091010152506001016107d4565b50919050565b6040805160a08101825260008082526020820181905291810182905260608082018390526080820181905290919061091a8285611e17565b6109555760408051808201825260098152681393d517d193d5539160ba1b6020820152905162461bcd60e51b815261039c9190600401612a90565b600084815260026020818152604080842060048352818520546003845294829020825160a0810184528254815260018301546001600160401b0380821683880152600160401b8204811683870152600160801b90910416606082015294820180548451818702810187019095528085529296959194919387936080860193919291830182828015610a0f57602002820191906000526020600020905b81546001600160a01b031681526001909101906020018083116109f1575b5050505050815250509250808054610a2690612af2565b80601f0160208091040260200160405190810160405280929190818152602001828054610a5290612af2565b8015610a9f5780601f10610a7457610100808354040283529160200191610a9f565b820191906000526020600020905b815481529060010190602001808311610a8257829003601f168201915b505050505090509250925092509193909250565b81610abf600582611f1a565b610af95760408051808201825260088152670848288be82aaa8960c31b6020820152905162461bcd60e51b815261039c9190600401612a90565b33610b05600882611f1a565b610b3f5760408051808201825260088152670848288be82aaa8960c31b6020820152905162461bcd60e51b815261039c9190600401612a90565b6001600160a01b0380851660009081526007602052604090206003015485913391168114610b9d5760408051808201825260088152670848288be82aaa8960c31b6020820152905162461bcd60e51b815261039c9190600401612a90565b6001600160a01b038616600090815260076020526040902054610bc39060ff1686611f3c565b6001600160a01b0386166000908152600760205260409020805486919060ff19166001836004811115610bf857610bf8612841565b0217905550336001600160a01b03167f20891cc7622c7951cbd8c70c61a5201eb45625b8c00e8f6c986cfca78f3dbfa086604051610c369190612b26565b60405180910390a2505050505050565b33610c52600582611f1a565b610c8c5760408051808201825260088152670848288be82aaa8960c31b6020820152905162461bcd60e51b815261039c9190600401612a90565b610c97600086611e17565b610cd25760408051808201825260098152681393d517d193d5539160ba1b6020820152905162461bcd60e51b815261039c9190600401612a90565b6000858152600260205260409020600180820154600160801b90041615610d2e57604080518082018252600d81526c14d51491505357d4d150531151609a1b6020820152905162461bcd60e51b815261039c9190600401612a90565b6001808201546001600160401b0380871692610d4d9290911690612b34565b6001600160401b031614610d905760408051808201825260078152664241445f41524760c81b6020820152905162461bcd60e51b815261039c9190600401612a90565b84815560018101805467ffffffffffffffff19166001600160401b0386161790558215610dea576001818101805467ffffffffffffffff60801b198116600160801b918290046001600160401b0316909317029190911790555b836001600160401b0316600103610e12576000868152600360205260408120610e12916122d8565b60408051878152602081018790526001600160401b0386169181019190915283151560608201527fccc26bbb6dd655ea0bb8a40a3c30e35c6bdf42f8faf0d71bbea897af768cda8b906080015b60405180910390a1505050505050565b33610e7b600582611f1a565b610eb55760408051808201825260088152670848288be82aaa8960c31b6020820152905162461bcd60e51b815261039c9190600401612a90565b610ec0600086611e17565b15610f0157604080518082018252600e81526d414c52454144595f45584953545360901b6020820152905162461bcd60e51b815261039c9190600401612a90565b60005b8451811015610f8557610f3d858281518110610f2257610f22612aa3565b60200260200101516000600501611f1a90919063ffffffff16565b610f7d57604080518082018252600e81526d1393d11157d393d517d193d5539160921b6020820152905162461bcd60e51b815261039c9190600401612a90565b600101610f04565b506040805160a081018252848152600060208201819052918101829052606081018290526080810186905290610fbb908761207c565b5060008681526002602081815260409283902084518155818501516001820180549587015160608801516001600160401b03908116600160801b0267ffffffffffffffff60801b19928216600160401b026fffffffffffffffffffffffffffffffff1990991691909416179690961795909516179093556080840151805185949361104b93908501920190612312565b50505060008681526003602052604090206110668482612ba4565b5060008681526004602052604090819020859055517f55ef7efc60ef99743e54209752c9a8e047e013917ec91572db75875069dd65bb90610e5f908890889088908890612c63565b60006110bb600883611f1a565b92915050565b336110cd600882611f1a565b6111075760408051808201825260088152670848288be82aaa8960c31b6020820152905162461bcd60e51b815261039c9190600401612a90565b82611113600582611f1a565b61114d5760408051808201825260088152670848288be82aaa8960c31b6020820152905162461bcd60e51b815261039c9190600401612a90565b6001600160a01b03808516600090815260076020526040902060030154859133911681146111ab5760408051808201825260088152670848288be82aaa8960c31b6020820152905162461bcd60e51b815261039c9190600401612a90565b6001600160a01b03861660009081526007602090815260409182902091516111d591889101612c9f565b60405160208183030381529060405280519060200120816001016040516020016111ff9190612cbb565b604051602081830303815290604052805190602001200361124f5760408051808201825260078152664241445f41524760c81b6020820152905162461bcd60e51b815261039c9190600401612a90565b6001810161125d8782612ba4565b5060028101546040516001600160a01b03909116907f4505168a8705a16fd4d0575197fd0f510db69df93a065e158ad2c0957ba12bac9061129f908990612a90565b60405180910390a250505050505050565b606061076c6000612088565b6112e76040805160808101909152806000815260606020820181905260006040830181905291015290565b6112f2600583611f1a565b61133257604080518082018252600e81526d1393d11157d393d517d193d5539160921b6020820152905162461bcd60e51b815261039c9190600401612a90565b6001600160a01b038216600090815260076020526040908190208151608081019092528054829060ff16600481111561136d5761136d612841565b600481111561137e5761137e612841565b815260200160018201805461139290612af2565b80601f01602080910402602001604051908101604052809291908181526020018280546113be90612af2565b801561140b5780601f106113e05761010080835404028352916020019161140b565b820191906000526020600020905b8154815290600101906020018083116113ee57829003601f168201915b505050918352505060028201546001600160a01b03908116602083015260039092015490911660409091015292915050565b81611449600082611e17565b6114845760408051808201825260098152681393d517d193d5539160ba1b6020820152905162461bcd60e51b815261039c9190600401612a90565b81611490600582611f1a565b6114ca5760408051808201825260088152670848288be82aaa8960c31b6020820152905162461bcd60e51b815261039c9190600401612a90565b6000848152600260205260408120905b600282015481101561156357846001600160a01b031682600201828154811061150557611505612aa3565b6000918252602090912001546001600160a01b03160361155b57604080518082018252600e81526d414c52454144595f45584953545360901b6020820152905162461bcd60e51b815261039c9190600401612a90565b6001016114da565b5060028101805460018082018355600092835260209283902090910180546001600160a01b0319166001600160a01b03881690811790915560408051898152938401919091528201527faaa473c28a5fe04b6a7ecd795826e462f9d0c23f00ef9f51ec02fa6ea418806f9060600160405180910390a15050505050565b606060006115ee6005611f04565b6001600160401b0381111561160557611605612618565b60405190808252806020026020018201604052801561166157816020015b61164e6040805160808101909152806000815260606020820181905260006040830181905291015290565b8152602001906001900390816116235790505b50905060005b6116716005611f04565b8110156108dc5760076000611687600584611f0e565b6001600160a01b03168152602081019190915260409081016000208151608081019092528054829060ff1660048111156116c3576116c3612841565b60048111156116d4576116d4612841565b81526020016001820180546116e890612af2565b80601f016020809104026020016040519081016040528092919081815260200182805461171490612af2565b80156117615780601f1061173657610100808354040283529160200191611761565b820191906000526020600020905b81548152906001019060200180831161174457829003601f168201915b505050918352505060028201546001600160a01b03908116602083015260039092015490911660409091015282518390839081106117a1576117a1612aa3565b6020908102919091010152600101611667565b7fa7c3be20e3a76821507555109752fad8a6630ef0362a34dcfcdfef83c99a2537546001600160a01b03163314611800576040516365f4906560e01b815233600482015260240161039c565b61180b600882611f1a565b61184f57604080518082018252601281527113d41154905513d497d393d517d193d5539160721b6020820152905162461bcd60e51b815261039c9190600401612a90565b60005b61185c6005611f04565b8110156118e4576001600160a01b0382166007600061187c600585611f0e565b6001600160a01b03908116825260208201929092526040016000206003015416036118dc57604080518082018252600d81526c4f55545f4f465f424f554e445360981b6020820152905162461bcd60e51b815261039c9190600401612a90565b600101611852565b506118f0600882612095565b506040516001600160a01b038216907f80c0b871b97b595b16a7741c1b06fed0c6f6f558639f18ccbce50724325dc40d90600090a250565b6001600160a01b03808216600090815260076020526040902060030154829133911681146119865760408051808201825260088152670848288be82aaa8960c31b6020820152905162461bcd60e51b815261039c9190600401612a90565b505050565b7f2d0d21306acfe8e9bb163a4573e95aff6cef95dc1102c6a16d5f19eac08cc4de54640100000000900460ff166119d557604051630ef4733760e31b815260040160405180910390fd5b60005b8181101561198657611a0f8383838181106119f5576119f5612aa3565b9050602002016020810190611a0a9190612465565b611e32565b6001016119d8565b600061076c81611f04565b606061076c6005612088565b81611a3a600082611e17565b611a755760408051808201825260098152681393d517d193d5539160ba1b6020820152905162461bcd60e51b815261039c9190600401612a90565b81611a81600582611f1a565b611abb5760408051808201825260088152670848288be82aaa8960c31b6020820152905162461bcd60e51b815261039c9190600401612a90565b600084815260026020526040812090805b6002830154811015611bd557856001600160a01b0316836002018281548110611af757611af7612aa3565b6000918252602090912001546001600160a01b031603611bcd57600283018054611b2390600190612d31565b81548110611b3357611b33612aa3565b6000918252602090912001546002840180546001600160a01b039092169183908110611b6157611b61612aa3565b9060005260206000200160006101000a8154816001600160a01b0302191690836001600160a01b0316021790555082600201805480611ba257611ba2612d44565b600082815260209020810160001990810180546001600160a01b031916905501905560019150611bd5565b600101611acc565b5080611c1757604080518082018252600e81526d1393d11157d393d517d193d5539160921b6020820152905162461bcd60e51b815261039c9190600401612a90565b604080518781526001600160a01b03871660208201526000918101919091527faaa473c28a5fe04b6a7ecd795826e462f9d0c23f00ef9f51ec02fa6ea418806f90606001610e5f565b33611c6c600882611f1a565b611ca65760408051808201825260088152670848288be82aaa8960c31b6020820152905162461bcd60e51b815261039c9190600401612a90565b611cb1600585611f1a565b15611cf257604080518082018252600e81526d414c52454144595f45584953545360901b6020820152905162461bcd60e51b815261039c9190600401612a90565b60006040518060800160405280846004811115611d1157611d11612841565b8152602081018690526001600160a01b0387166040820152336060909101529050611d3d6005866120aa565b506001600160a01b03851660009081526007602052604090208151815483929190829060ff19166001836004811115611d7857611d78612841565b021790555060208201516001820190611d919082612ba4565b506040828101516002830180546001600160a01b03199081166001600160a01b039384161790915560609094015160039093018054909416928116929092179092559051908616907fd6f3629b08191adb8308c3a65d5f8803b7f8f3e359c433fa7ae623276635e56190611e089087908790612d5a565b60405180910390a25050505050565b600081815260018301602052604081205415155b9392505050565b6001600160a01b038116611e755760408051808201825260078152664241445f41524760c81b6020820152905162461bcd60e51b815261039c9190600401612a90565b611e80600882611f1a565b15611ec157604080518082018252600e81526d414c52454144595f45584953545360901b6020820152905162461bcd60e51b815261039c9190600401612a90565b611ecc6008826120aa565b506040516001600160a01b038216907fac6fa858e9350a46cec16539926e0fde25b7629f84b5a72bffaae4df888ae86d90600090a250565b60006110bb825490565b6000611e2b83836120bf565b6001600160a01b03811660009081526001830160205260408120541515611e2b565b6000826004811115611f5057611f50612841565b1480611fa457506001826004811115611f6b57611f6b612841565b148015611fa457506003816004811115611f8757611f87612841565b1480611fa457506004816004811115611fa257611fa2612841565b145b80611ff757506002826004811115611fbe57611fbe612841565b148015611ff757506003816004811115611fda57611fda612841565b1480611ff757506004816004811115611ff557611ff5612841565b145b8061202f5750600482600481111561201157612011612841565b14801561202f5750600381600481111561202d5761202d612841565b145b15612038575050565b60408051808201825260168152751393d11157d4d510551157d393d517d0531313d5d15160521b6020820152905162461bcd60e51b815261039c9190600401612a90565b6000611e2b83836120e9565b60606000611e2b83612138565b6000611e2b836001600160a01b038416612194565b6000611e2b836001600160a01b0384166120e9565b60008260000182815481106120d6576120d6612aa3565b9060005260206000200154905092915050565b6000818152600183016020526040812054612130575081546001818101845560008481526020808220909301849055845484825282860190935260409020919091556110bb565b5060006110bb565b60608160000180548060200260200160405190810160405280929190818152602001828054801561218857602002820191906000526020600020905b815481526020019060010190808311612174575b50505050509050919050565b6000818152600183016020526040812054801561227d5760006121b8600183612d31565b85549091506000906121cc90600190612d31565b90508082146122315760008660000182815481106121ec576121ec612aa3565b906000526020600020015490508087600001848154811061220f5761220f612aa3565b6000918252602080832090910192909255918252600188019052604090208390555b855486908061224257612242612d44565b6001900381819060005260206000200160009055905585600101600086815260200190815260200160002060009055600193505050506110bb565b60009150506110bb565b5092915050565b6040805180820190915260008152602081016122d36040805160a081018252600080825260208201819052918101829052606080820192909252608081019190915290565b905290565b5080546122e490612af2565b6000825580601f106122f4575050565b601f0160209004906000526020600020908101906104ad9190612377565b828054828255906000526020600020908101928215612367579160200282015b8281111561236757825182546001600160a01b0319166001600160a01b03909116178255602090920191600190910190612332565b50612373929150612377565b5090565b5b808211156123735760008155600101612378565b60006020828403121561239e57600080fd5b5035919050565b600060a08301825184526020808401516001600160401b0380821660208801528060408701511660408801528060608701511660608801525050608084015160a0608087015282815180855260c088019150602083019450600092505b8083101561242b5784516001600160a01b03168252938301936001929092019190830190612402565b509695505050505050565b602081526000611e2b60208301846123a5565b80356001600160a01b038116811461246057600080fd5b919050565b60006020828403121561247757600080fd5b611e2b82612449565b600060208083018184528085518083526040925060408601915060408160051b87010184880160005b838110156124e857888303603f190185528151805184528701518784018790526124d5878501826123a5565b95880195935050908601906001016124a9565b509098975050505050505050565b60005b838110156125115781810151838201526020016124f9565b50506000910152565b600081518084526125328160208601602086016124f6565b601f01601f19169290920160200192915050565b60608152600061255960608301866123a5565b8460208401528281036040840152612571818561251a565b9695505050505050565b80356005811061246057600080fd5b6000806040838503121561259d57600080fd5b6125a683612449565b91506125b46020840161257b565b90509250929050565b600080600080608085870312156125d357600080fd5b843593506020850135925060408501356001600160401b03811681146125f857600080fd5b91506060850135801515811461260d57600080fd5b939692955090935050565b634e487b7160e01b600052604160045260246000fd5b604051601f8201601f191681016001600160401b038111828210171561265657612656612618565b604052919050565b600082601f83011261266f57600080fd5b81356001600160401b0381111561268857612688612618565b61269b601f8201601f191660200161262e565b8181528460208386010111156126b057600080fd5b816020850160208301376000918101602001919091529392505050565b600080600080608085870312156126e357600080fd5b843593506020808601356001600160401b038082111561270257600080fd5b818801915088601f83011261271657600080fd5b81358181111561272857612728612618565b8060051b61273785820161262e565b918252838101850191858101908c84111561275157600080fd5b948601945b838610156127765761276786612449565b82529486019490860190612756565b985050505060408801359450606088013592508083111561279657600080fd5b50506127a48782880161265e565b91505092959194509250565b600080604083850312156127c357600080fd5b6127cc83612449565b915060208301356001600160401b038111156127e757600080fd5b6127f38582860161265e565b9150509250929050565b6020808252825182820181905260009190848201906040850190845b8181101561283557835183529284019291840191600101612819565b50909695505050505050565b634e487b7160e01b600052602160045260246000fd5b6005811061287557634e487b7160e01b600052602160045260246000fd5b9052565b612884828251612857565b600060208201516080602085015261289f608085018261251a565b6040848101516001600160a01b03908116918701919091526060948501511693909401929092525090919050565b602081526000611e2b6020830184612879565b600080604083850312156128f357600080fd5b823591506125b460208401612449565b600060208083016020845280855180835260408601915060408160051b87010192506020870160005b8281101561295a57603f19888603018452612948858351612879565b9450928501929085019060010161292c565b5092979650505050505050565b6000806020838503121561297a57600080fd5b82356001600160401b038082111561299157600080fd5b818501915085601f8301126129a557600080fd5b8135818111156129b457600080fd5b8660208260051b85010111156129c957600080fd5b60209290920196919550909350505050565b60008151808452602080850194506020840160005b83811015612a155781516001600160a01b0316875295820195908201906001016129f0565b509495945050505050565b602081526000611e2b60208301846129db565b600080600060608486031215612a4857600080fd5b612a5184612449565b925060208401356001600160401b03811115612a6c57600080fd5b612a788682870161265e565b925050612a876040850161257b565b90509250925092565b602081526000611e2b602083018461251a565b634e487b7160e01b600052603260045260246000fd5b634e487b7160e01b600052601160045260246000fd5b600063ffffffff808316818103612ae857612ae8612ab9565b6001019392505050565b600181811c90821680612b0657607f821691505b6020821081036108dc57634e487b7160e01b600052602260045260246000fd5b602081016110bb8284612857565b6001600160401b0381811683821601908082111561228757612287612ab9565b601f821115611986576000816000526020600020601f850160051c81016020861015612b7d5750805b601f850160051c820191505b81811015612b9c57828155600101612b89565b505050505050565b81516001600160401b03811115612bbd57612bbd612618565b612bd181612bcb8454612af2565b84612b54565b602080601f831160018114612c065760008415612bee5750858301515b600019600386901b1c1916600185901b178555612b9c565b600085815260208120601f198616915b82811015612c3557888601518255948401946001909101908401612c16565b5085821015612c535787850151600019600388901b60f8161c191681555b5050505050600190811b01905550565b848152608060208201526000612c7c60808301866129db565b8460408401528281036060840152612c94818561251a565b979650505050505050565b60008251612cb18184602087016124f6565b9190910192915050565b6000808354612cc981612af2565b60018281168015612ce15760018114612cf657612d25565b60ff1984168752821515830287019450612d25565b8760005260208060002060005b85811015612d1c5781548a820152908401908201612d03565b50505082870194505b50929695505050505050565b818103818111156110bb576110bb612ab9565b634e487b7160e01b600052603160045260246000fd5b604081526000612d6d604083018561251a565b9050611e2b602083018461285756a7c3be20e3a76821507555109752fad8a6630ef0362a34dcfcdfef83c99a2537","linkReferences":{}},"methodIdentifiers":{"__OperatorRegistry_init(address[])":"ba428b1a","allocateStream(bytes32,address[],bytes32,bytes)":"6b883c39","approveOperator(address)":"242cae9f","getAllNodeAddresses()":"c8fe3a01","getAllNodes()":"a1174e7d","getAllStreamIds()":"86789fc6","getAllStreams()":"3bd84c0c","getNode(address)":"9d209048","getNodeCount()":"39bf397e","getStream(bytes32)":"1290abe8","getStreamCount()":"c0f22084","getStreamWithGenesis(bytes32)":"3c2544d1","getStreamsOnNode(address)":"32705ac4","isOperator(address)":"6d70f7ae","placeStreamOnNode(bytes32,address)":"9ee86d38","registerNode(address,string,uint8)":"eecc66f4","removeNode(address)":"b2b99ec9","removeOperator(address)":"ac8a584a","removeStreamFromNode(bytes32,address)":"ee885b12","setStreamLastMiniblock(bytes32,bytes32,uint64,bool)":"681a8d67","updateNodeStatus(address,uint8)":"581f8b9b","updateNodeUrl(address,string)":"7e4465e7"},"id":194}