{"abi":[{"type":"constructor","inputs":[{"name":"approvedOperators","type":"address[]","internalType":"address[]"}],"stateMutability":"nonpayable"},{"type":"function","name":"__OperatorRegistry_init","inputs":[{"name":"initialOperators","type":"address[]","internalType":"address[]"}],"outputs":[],"stateMutability":"nonpayable"},{"type":"function","name":"allocateStream","inputs":[{"name":"streamId","type":"bytes32","internalType":"bytes32"},{"name":"nodes","type":"address[]","internalType":"address[]"},{"name":"genesisMiniblockHash","type":"bytes32","internalType":"bytes32"},{"name":"genesisMiniblock","type":"bytes","internalType":"bytes"}],"outputs":[],"stateMutability":"nonpayable"},{"type":"function","name":"approveOperator","inputs":[{"name":"operator","type":"address","internalType":"address"}],"outputs":[],"stateMutability":"nonpayable"},{"type":"function","name":"getAllNodeAddresses","inputs":[],"outputs":[{"name":"","type":"address[]","internalType":"address[]"}],"stateMutability":"view"},{"type":"function","name":"getAllNodes","inputs":[],"outputs":[{"name":"","type":"tuple[]","internalType":"struct Node[]","components":[{"name":"status","type":"uint8","internalType":"enum NodeStatus"},{"name":"url","type":"string","internalType":"string"},{"name":"nodeAddress","type":"address","internalType":"address"},{"name":"operator","type":"address","internalType":"address"}]}],"stateMutability":"view"},{"type":"function","name":"getAllStreamIds","inputs":[],"outputs":[{"name":"","type":"bytes32[]","internalType":"bytes32[]"}],"stateMutability":"view"},{"type":"function","name":"getAllStreams","inputs":[],"outputs":[{"name":"","type":"tuple[]","internalType":"struct StreamWithId[]","components":[{"name":"id","type":"bytes32","internalType":"bytes32"},{"name":"stream","type":"tuple","internalType":"struct Stream","components":[{"name":"lastMiniblockHash","type":"bytes32","internalType":"bytes32"},{"name":"lastMiniblockNum","type":"uint64","internalType":"uint64"},{"name":"reserved0","type":"uint64","internalType":"uint64"},{"name":"flags","type":"uint64","internalType":"uint64"},{"name":"nodes","type":"address[]","internalType":"address[]"}]}]}],"stateMutability":"view"},{"type":"function","name":"getNode","inputs":[{"name":"nodeAddress","type":"address","internalType":"address"}],"outputs":[{"name":"","type":"tuple","internalType":"struct Node","components":[{"name":"status","type":"uint8","internalType":"enum NodeStatus"},{"name":"url","type":"string","internalType":"string"},{"name":"nodeAddress","type":"address","internalType":"address"},{"name":"operator","type":"address","internalType":"address"}]}],"stateMutability":"view"},{"type":"function","name":"getNodeCount","inputs":[],"outputs":[{"name":"","type":"uint256","internalType":"uint256"}],"stateMutability":"view"},{"type":"function","name":"getPaginatedStreams","inputs":[{"name":"start","type":"uint256","internalType":"uint256"},{"name":"stop","type":"uint256","internalType":"uint256"}],"outputs":[{"name":"","type":"tuple[]","internalType":"struct StreamWithId[]","components":[{"name":"id","type":"bytes32","internalType":"bytes32"},{"name":"stream","type":"tuple","internalType":"struct Stream","components":[{"name":"lastMiniblockHash","type":"bytes32","internalType":"bytes32"},{"name":"lastMiniblockNum","type":"uint64","internalType":"uint64"},{"name":"reserved0","type":"uint64","internalType":"uint64"},{"name":"flags","type":"uint64","internalType":"uint64"},{"name":"nodes","type":"address[]","internalType":"address[]"}]}]},{"name":"","type":"bool","internalType":"bool"}],"stateMutability":"view"},{"type":"function","name":"getStream","inputs":[{"name":"streamId","type":"bytes32","internalType":"bytes32"}],"outputs":[{"name":"","type":"tuple","internalType":"struct Stream","components":[{"name":"lastMiniblockHash","type":"bytes32","internalType":"bytes32"},{"name":"lastMiniblockNum","type":"uint64","internalType":"uint64"},{"name":"reserved0","type":"uint64","internalType":"uint64"},{"name":"flags","type":"uint64","internalType":"uint64"},{"name":"nodes","type":"address[]","internalType":"address[]"}]}],"stateMutability":"view"},{"type":"function","name":"getStreamByIndex","inputs":[{"name":"i","type":"uint256","internalType":"uint256"}],"outputs":[{"name":"","type":"tuple","internalType":"struct StreamWithId","components":[{"name":"id","type":"bytes32","internalType":"bytes32"},{"name":"stream","type":"tuple","internalType":"struct Stream","components":[{"name":"lastMiniblockHash","type":"bytes32","internalType":"bytes32"},{"name":"lastMiniblockNum","type":"uint64","internalType":"uint64"},{"name":"reserved0","type":"uint64","internalType":"uint64"},{"name":"flags","type":"uint64","internalType":"uint64"},{"name":"nodes","type":"address[]","internalType":"address[]"}]}]}],"stateMutability":"view"},{"type":"function","name":"getStreamCount","inputs":[],"outputs":[{"name":"","type":"uint256","internalType":"uint256"}],"stateMutability":"view"},{"type":"function","name":"getStreamWithGenesis","inputs":[{"name":"streamId","type":"bytes32","internalType":"bytes32"}],"outputs":[{"name":"","type":"tuple","internalType":"struct Stream","components":[{"name":"lastMiniblockHash","type":"bytes32","internalType":"bytes32"},{"name":"lastMiniblockNum","type":"uint64","internalType":"uint64"},{"name":"reserved0","type":"uint64","internalType":"uint64"},{"name":"flags","type":"uint64","internalType":"uint64"},{"name":"nodes","type":"address[]","internalType":"address[]"}]},{"name":"","type":"bytes32","internalType":"bytes32"},{"name":"","type":"bytes","internalType":"bytes"}],"stateMutability":"view"},{"type":"function","name":"getStreamsOnNode","inputs":[{"name":"nodeAddress","type":"address","internalType":"address"}],"outputs":[{"name":"","type":"tuple[]","internalType":"struct StreamWithId[]","components":[{"name":"id","type":"bytes32","internalType":"bytes32"},{"name":"stream","type":"tuple","internalType":"struct Stream","components":[{"name":"lastMiniblockHash","type":"bytes32","internalType":"bytes32"},{"name":"lastMiniblockNum","type":"uint64","internalType":"uint64"},{"name":"reserved0","type":"uint64","internalType":"uint64"},{"name":"flags","type":"uint64","internalType":"uint64"},{"name":"nodes","type":"address[]","internalType":"address[]"}]}]}],"stateMutability":"view"},{"type":"function","name":"isOperator","inputs":[{"name":"operator","type":"address","internalType":"address"}],"outputs":[{"name":"","type":"bool","internalType":"bool"}],"stateMutability":"view"},{"type":"function","name":"placeStreamOnNode","inputs":[{"name":"streamId","type":"bytes32","internalType":"bytes32"},{"name":"nodeAddress","type":"address","internalType":"address"}],"outputs":[],"stateMutability":"nonpayable"},{"type":"function","name":"registerNode","inputs":[{"name":"nodeAddress","type":"address","internalType":"address"},{"name":"url","type":"string","internalType":"string"},{"name":"status","type":"uint8","internalType":"enum NodeStatus"}],"outputs":[],"stateMutability":"nonpayable"},{"type":"function","name":"removeNode","inputs":[{"name":"nodeAddress","type":"address","internalType":"address"}],"outputs":[],"stateMutability":"nonpayable"},{"type":"function","name":"removeOperator","inputs":[{"name":"operator","type":"address","internalType":"address"}],"outputs":[],"stateMutability":"nonpayable"},{"type":"function","name":"removeStreamFromNode","inputs":[{"name":"streamId","type":"bytes32","internalType":"bytes32"},{"name":"nodeAddress","type":"address","internalType":"address"}],"outputs":[],"stateMutability":"nonpayable"},{"type":"function","name":"setStreamLastMiniblock","inputs":[{"name":"streamId","type":"bytes32","internalType":"bytes32"},{"name":"","type":"bytes32","internalType":"bytes32"},{"name":"lastMiniblockHash","type":"bytes32","internalType":"bytes32"},{"name":"lastMiniblockNum","type":"uint64","internalType":"uint64"},{"name":"isSealed","type":"bool","internalType":"bool"}],"outputs":[],"stateMutability":"nonpayable"},{"type":"function","name":"updateNodeStatus","inputs":[{"name":"nodeAddress","type":"address","internalType":"address"},{"name":"status","type":"uint8","internalType":"enum NodeStatus"}],"outputs":[],"stateMutability":"nonpayable"},{"type":"function","name":"updateNodeUrl","inputs":[{"name":"nodeAddress","type":"address","internalType":"address"},{"name":"url","type":"string","internalType":"string"}],"outputs":[],"stateMutability":"nonpayable"},{"type":"event","name":"Initialized","inputs":[{"name":"version","type":"uint32","indexed":false,"internalType":"uint32"}],"anonymous":false},{"type":"event","name":"InterfaceAdded","inputs":[{"name":"interfaceId","type":"bytes4","indexed":true,"internalType":"bytes4"}],"anonymous":false},{"type":"event","name":"InterfaceRemoved","inputs":[{"name":"interfaceId","type":"bytes4","indexed":true,"internalType":"bytes4"}],"anonymous":false},{"type":"event","name":"NodeAdded","inputs":[{"name":"nodeAddress","type":"address","indexed":true,"internalType":"address"},{"name":"url","type":"string","indexed":false,"internalType":"string"},{"name":"status","type":"uint8","indexed":false,"internalType":"enum NodeStatus"}],"anonymous":false},{"type":"event","name":"NodeRemoved","inputs":[{"name":"nodeAddress","type":"address","indexed":true,"internalType":"address"}],"anonymous":false},{"type":"event","name":"NodeStatusUpdated","inputs":[{"name":"nodeAddress","type":"address","indexed":true,"internalType":"address"},{"name":"status","type":"uint8","indexed":false,"internalType":"enum NodeStatus"}],"anonymous":false},{"type":"event","name":"NodeUrlUpdated","inputs":[{"name":"nodeAddress","type":"address","indexed":true,"internalType":"address"},{"name":"url","type":"string","indexed":false,"internalType":"string"}],"anonymous":false},{"type":"event","name":"OperatorAdded","inputs":[{"name":"operatorAddress","type":"address","indexed":true,"internalType":"address"}],"anonymous":false},{"type":"event","name":"OperatorRemoved","inputs":[{"name":"operatorAddress","type":"address","indexed":true,"internalType":"address"}],"anonymous":false},{"type":"event","name":"OwnershipTransferred","inputs":[{"name":"previousOwner","type":"address","indexed":true,"internalType":"address"},{"name":"newOwner","type":"address","indexed":true,"internalType":"address"}],"anonymous":false},{"type":"event","name":"StreamAllocated","inputs":[{"name":"streamId","type":"bytes32","indexed":false,"internalType":"bytes32"},{"name":"nodes","type":"address[]","indexed":false,"internalType":"address[]"},{"name":"genesisMiniblockHash","type":"bytes32","indexed":false,"internalType":"bytes32"},{"name":"genesisMiniblock","type":"bytes","indexed":false,"internalType":"bytes"}],"anonymous":false},{"type":"event","name":"StreamLastMiniblockUpdated","inputs":[{"name":"streamId","type":"bytes32","indexed":false,"internalType":"bytes32"},{"name":"lastMiniblockHash","type":"bytes32","indexed":false,"internalType":"bytes32"},{"name":"lastMiniblockNum","type":"uint64","indexed":false,"internalType":"uint64"},{"name":"isSealed","type":"bool","indexed":false,"internalType":"bool"}],"anonymous":false},{"type":"event","name":"StreamPlacementUpdated","inputs":[{"name":"streamId","type":"bytes32","indexed":false,"internalType":"bytes32"},{"name":"nodeAddress","type":"address","indexed":false,"internalType":"address"},{"name":"isAdded","type":"bool","indexed":false,"internalType":"bool"}],"anonymous":false},{"type":"error","name":"Initializable_InInitializingState","inputs":[]},{"type":"error","name":"Initializable_NotInInitializingState","inputs":[]},{"type":"error","name":"Introspection_AlreadySupported","inputs":[]},{"type":"error","name":"Introspection_NotSupported","inputs":[]},{"type":"error","name":"Ownable__NotOwner","inputs":[{"name":"account","type":"address","internalType":"address"}]},{"type":"error","name":"Ownable__ZeroAddress","inputs":[]}],"bytecode":{"object":"0x60806040523480156200001157600080fd5b506040516200380f3803806200380f8339810160408190526200003491620003ac565b6200003e62000094565b62000049336200013c565b60005b81518110156200008c57620000838282815181106200006f576200006f6200047e565b60200260200101516200020a60201b60201c565b6001016200004c565b5050620004e5565b7f59b501c3653afc186af7d48dda36cf6732bd21629a6295693664240a6ef520008054640100000000900460ff1615620000e1576040516366008a2d60e01b815260040160405180910390fd5b805463ffffffff90811610156200013957805463ffffffff191663ffffffff90811782556040519081527fe9c9b456cb2994b80aeef036cf59d26e9617df80f816a6ee5a5b4166e07e2f5c9060200160405180910390a15b50565b6000620001707f4675fa8241f86f37157864d3d49b85ad4b164352c516da28e1678a90470ae300546001600160a01b031690565b90506001600160a01b0382166200019a57604051634e3ef82560e01b815260040160405180910390fd5b817f4675fa8241f86f37157864d3d49b85ad4b164352c516da28e1678a90470ae30080546001600160a01b0319166001600160a01b03928316179055604051838216918316907f8be0079c531659141344cd1fd0a4f28419497f9722a3daafe3b4186f6b6457e090600090a35050565b6001600160a01b038116620002595760408051808201825260078152664241445f41524760c81b6020820152905162461bcd60e51b815262000250919060040162000494565b60405180910390fd5b62000266600882620002ef565b15620002aa57604080518082018252600e81526d414c52454144595f45584953545360901b6020820152905162461bcd60e51b815262000250919060040162000494565b620002b760088262000316565b506040516001600160a01b038216907fac6fa858e9350a46cec16539926e0fde25b7629f84b5a72bffaae4df888ae86d90600090a250565b6001600160a01b038116600090815260018301602052604081205415155b90505b92915050565b60006200030d836001600160a01b0384166000818152600183016020526040812054620003705750815460018181018455600084815260208082209093018490558454848252828601909352604090209190915562000310565b50600062000310565b634e487b7160e01b600052604160045260246000fd5b80516001600160a01b0381168114620003a757600080fd5b919050565b60006020808385031215620003c057600080fd5b82516001600160401b0380821115620003d857600080fd5b818501915085601f830112620003ed57600080fd5b81518181111562000402576200040262000379565b8060051b604051601f19603f830116810181811085821117156200042a576200042a62000379565b6040529182528482019250838101850191888311156200044957600080fd5b938501935b82851015620004725762000462856200038f565b845293850193928501926200044e565b98975050505050505050565b634e487b7160e01b600052603260045260246000fd5b60006020808352835180602085015260005b81811015620004c457858101830151858201604001528201620004a6565b506000604082860101526040601f19601f8301168501019250505092915050565b61331a80620004f56000396000f3fe608060405234801561001057600080fd5b50600436106101585760003560e01c80639d209048116100c3578063c0f220841161007c578063c0f220841461030d578063c8fe3a0114610315578063ca78c41a1461032a578063d7a3158a1461034b578063ee885b121461035e578063eecc66f41461037157600080fd5b80639d2090481461028c5780639ee86d38146102ac578063a1174e7d146102bf578063ac8a584a146102d4578063b2b99ec9146102e7578063ba428b1a146102fa57600080fd5b8063581f8b9b11610115578063581f8b9b146101fb57806368b454df1461020e5780636b883c391461022e5780636d70f7ae146102415780637e4465e71461026457806386789fc61461027757600080fd5b80631290abe81461015d578063242cae9f1461018657806332705ac41461019b57806339bf397e146101bb5780633bd84c0c146101d15780633c2544d1146101d9575b600080fd5b61017061016b36600461289b565b610384565b60405161017d9190612945565b60405180910390f35b610199610194366004612974565b6104af565b005b6101ae6101a9366004612974565b610507565b60405161017d9190612a10565b6101c36107b7565b60405190815260200161017d565b6101ae6107c8565b6101ec6101e736600461289b565b610939565b60405161017d93929190612a73565b610199610209366004612ab7565b610b0a565b61022161021c36600461289b565b610caa565b60405161017d9190612aea565b61019961023c366004612bb2565b610dd1565b61025461024f366004612974565b611036565b604051901515815260200161017d565b610199610272366004612c95565b611049565b61027f611241565b60405161017d9190612ce2565b61029f61029a366004612974565b61124d565b60405161017d9190612db2565b6101996102ba366004612dc5565b6113ce565b6102c761158b565b60405161017d9190612de8565b6101996102e2366004612974565b61175f565b6101996102f5366004612974565b6118d3565b610199610308366004612e4c565b611a9c565b6101c3611b2d565b61031d611b38565b60405161017d9190612f05565b61033d610338366004612f18565b611b44565b60405161017d929190612f3a565b610199610359366004612f5e565b611d3d565b61019961036c366004612dc5565b611ec8565b61019961037f366004612fc5565b612114565b6040805160a08101825260008082526020820181905291810182905260608082018390526080820152906103b890836122de565b6103fc5760408051808201825260098152681393d517d193d5539160ba1b6020820152905162461bcd60e51b81526103f39190600401613022565b60405180910390fd5b600082815260026020818152604092839020835160a0810185528154815260018201546001600160401b0380821683860152600160401b8204811683880152600160801b909104166060820152928101805485518185028101850190965280865293949193608086019383018282801561049f57602002820191906000526020600020905b81546001600160a01b03168152600190910190602001808311610481575b5050505050815250509050919050565b7f4675fa8241f86f37157864d3d49b85ad4b164352c516da28e1678a90470ae300546001600160a01b031633146104fb576040516365f4906560e01b81523360048201526024016103f3565b610504816122f9565b50565b60606000610514816123cb565b6001600160401b0381111561052b5761052b612afd565b604051908082528060200260200182016040528015610554578160200160208202803683370190505b5090506000805b61056560006123cb565b81101561061a57600061057881836123d5565b60008181526002602052604081209192505b600282015481101561060c57876001600160a01b03168260020182815481106105b5576105b5613035565b6000918252602090912001546001600160a01b031603610604578286866105db81613061565b975063ffffffff16815181106105f3576105f3613035565b60200260200101818152505061060c565b60010161058a565b50505080600101905061055b565b5060008163ffffffff166001600160401b0381111561063b5761063b612afd565b60405190808252806020026020018201604052801561067457816020015b6106616127a1565b8152602001906001900390816106595790505b50905060005b8263ffffffff168110156107ae5760405180604001604052808583815181106106a5576106a5613035565b60200260200101518152602001600060020160008785815181106106cb576106cb613035565b6020908102919091018101518252818101929092526040908101600020815160a0810183528154815260018201546001600160401b0380821683870152600160401b8204811683860152600160801b90910416606082015260028201805484518187028101870190955280855291949293608086019390929083018282801561077d57602002820191906000526020600020905b81546001600160a01b0316815260019091019060200180831161075f575b50505050508152505081525082828151811061079b5761079b613035565b602090810291909101015260010161067a565b50949350505050565b60006107c360056123cb565b905090565b606060006107d5816123cb565b6001600160401b038111156107ec576107ec612afd565b60405190808252806020026020018201604052801561082557816020015b6108126127a1565b81526020019060019003908161080a5790505b50905060005b61083560006123cb565b81101561093357600061084881836123d5565b60408051808201825282815260008381526002602081815291849020845160a0810186528154815260018201546001600160401b0380821683870152600160401b8204811683890152600160801b909104166060820152918101805486518186028101860190975280875296975093958387019592949193608086019392919083018282801561090157602002820191906000526020600020905b81546001600160a01b031681526001909101906020018083116108e3575b50505050508152505081525083838151811061091f5761091f613035565b60209081029190910101525060010161082b565b50919050565b6040805160a08101825260008082526020820181905291810182905260608082018390526080820181905290919061097182856122de565b6109ac5760408051808201825260098152681393d517d193d5539160ba1b6020820152905162461bcd60e51b81526103f39190600401613022565b600084815260026020818152604080842060048352818520546003845294829020825160a0810184528254815260018301546001600160401b0380821683880152600160401b8204811683870152600160801b90910416606082015294820180548451818702810187019095528085529296959194919387936080860193919291830182828015610a6657602002820191906000526020600020905b81546001600160a01b03168152600190910190602001808311610a48575b5050505050815250509250808054610a7d90613084565b80601f0160208091040260200160405190810160405280929190818152602001828054610aa990613084565b8015610af65780601f10610acb57610100808354040283529160200191610af6565b820191906000526020600020905b815481529060010190602001808311610ad957829003601f168201915b505050505090509250925092509193909250565b6001600160a01b03808316600090815260076020526040902060020154839116610b6a57604080518082018252600e81526d1393d11157d393d517d193d5539160921b6020820152905162461bcd60e51b81526103f39190600401613022565b33610b766008826123e1565b610bb05760408051808201825260088152670848288be82aaa8960c31b6020820152905162461bcd60e51b81526103f39190600401613022565b6001600160a01b0380851660009081526007602052604090206003015485913391168114610c0e5760408051808201825260088152670848288be82aaa8960c31b6020820152905162461bcd60e51b81526103f39190600401613022565b6001600160a01b03861660009081526007602052604090208054610c359060ff1687612403565b80548690829060ff19166001836005811115610c5357610c53612d26565b021790555060028101546040516001600160a01b03909116907f20891cc7622c7951cbd8c70c61a5201eb45625b8c00e8f6c986cfca78f3dbfa090610c999089906130b8565b60405180910390a250505050505050565b610cb26127a1565b610cbc60006123cb565b8210610cf95760408051808201825260098152681393d517d193d5539160ba1b6020820152905162461bcd60e51b81526103f39190600401613022565b6000610d0581846123d5565b60408051808201825282815260008381526002602081815291849020845160a0810186528154815260018201546001600160401b0380821683870152600160401b8204811683890152600160801b9091041660608201529181018054865181860281018601909752808752969750939583870195929491936080860193929190830182828015610dbe57602002820191906000526020600020905b81546001600160a01b03168152600190910190602001808311610da0575b5050509190925250505090529392505050565b336000818152600760205260409020600201546001600160a01b0316610e2d57604080518082018252600e81526d1393d11157d393d517d193d5539160921b6020820152905162461bcd60e51b81526103f39190600401613022565b610e386000866122de565b15610e7957604080518082018252600e81526d414c52454144595f45584953545360901b6020820152905162461bcd60e51b81526103f39190600401613022565b60005b8451811015610efd57610eb5858281518110610e9a57610e9a613035565b602002602001015160006005016123e190919063ffffffff16565b610ef557604080518082018252600e81526d1393d11157d393d517d193d5539160921b6020820152905162461bcd60e51b81526103f39190600401613022565b600101610e7c565b506040805160a081018252848152600060208201819052918101829052606081018290526080810186905290610f339087612596565b5060008681526002602081815260409283902084518155818501516001820180549587015160608801516001600160401b03908116600160801b0267ffffffffffffffff60801b19928216600160401b026fffffffffffffffffffffffffffffffff19909916919094161796909617959095161790935560808401518051859493610fc3939085019201906127eb565b5050506000868152600360205260409020610fde8482613116565b5060008681526004602052604090819020859055517f55ef7efc60ef99743e54209752c9a8e047e013917ec91572db75875069dd65bb906110269088908890889088906131d5565b60405180910390a1505050505050565b60006110436008836123e1565b92915050565b336110556008826123e1565b61108f5760408051808201825260088152670848288be82aaa8960c31b6020820152905162461bcd60e51b81526103f39190600401613022565b6001600160a01b038084166000908152600760205260409020600201548491166110ef57604080518082018252600e81526d1393d11157d393d517d193d5539160921b6020820152905162461bcd60e51b81526103f39190600401613022565b6001600160a01b038085166000908152600760205260409020600301548591339116811461114d5760408051808201825260088152670848288be82aaa8960c31b6020820152905162461bcd60e51b81526103f39190600401613022565b6001600160a01b038616600090815260076020908152604091829020915161117791889101613211565b60405160208183030381529060405280519060200120816001016040516020016111a1919061322d565b60405160208183030381529060405280519060200120036111f15760408051808201825260078152664241445f41524760c81b6020820152905162461bcd60e51b81526103f39190600401613022565b600181016111ff8782613116565b5060028101546040516001600160a01b03909116907f4505168a8705a16fd4d0575197fd0f510db69df93a065e158ad2c0957ba12bac90610c99908990613022565b60606107c360006125a2565b6112786040805160808101909152806000815260606020820181905260006040830181905291015290565b6112836005836123e1565b6112c357604080518082018252600e81526d1393d11157d393d517d193d5539160921b6020820152905162461bcd60e51b81526103f39190600401613022565b6001600160a01b038216600090815260076020526040908190208151608081019092528054829060ff1660058111156112fe576112fe612d26565b600581111561130f5761130f612d26565b815260200160018201805461132390613084565b80601f016020809104026020016040519081016040528092919081815260200182805461134f90613084565b801561139c5780601f106113715761010080835404028352916020019161139c565b820191906000526020600020905b81548152906001019060200180831161137f57829003601f168201915b505050918352505060028201546001600160a01b03908116602083015260039092015490911660409091015292915050565b816113da6000826122de565b6114155760408051808201825260098152681393d517d193d5539160ba1b6020820152905162461bcd60e51b81526103f39190600401613022565b6001600160a01b0380831660009081526007602052604090206002015483911661147557604080518082018252600e81526d1393d11157d393d517d193d5539160921b6020820152905162461bcd60e51b81526103f39190600401613022565b6000848152600260205260408120905b600282015481101561150e57846001600160a01b03168260020182815481106114b0576114b0613035565b6000918252602090912001546001600160a01b03160361150657604080518082018252600e81526d414c52454144595f45584953545360901b6020820152905162461bcd60e51b81526103f39190600401613022565b600101611485565b5060028101805460018082018355600092835260209283902090910180546001600160a01b0319166001600160a01b03881690811790915560408051898152938401919091528201527faaa473c28a5fe04b6a7ecd795826e462f9d0c23f00ef9f51ec02fa6ea418806f9060600160405180910390a15050505050565b6060600061159960056123cb565b6001600160401b038111156115b0576115b0612afd565b60405190808252806020026020018201604052801561160c57816020015b6115f96040805160808101909152806000815260606020820181905260006040830181905291015290565b8152602001906001900390816115ce5790505b50905060005b61161c60056123cb565b81101561093357600760006116326005846123d5565b6001600160a01b03168152602081019190915260409081016000208151608081019092528054829060ff16600581111561166e5761166e612d26565b600581111561167f5761167f612d26565b815260200160018201805461169390613084565b80601f01602080910402602001604051908101604052809291908181526020018280546116bf90613084565b801561170c5780601f106116e15761010080835404028352916020019161170c565b820191906000526020600020905b8154815290600101906020018083116116ef57829003601f168201915b505050918352505060028201546001600160a01b039081166020830152600390920154909116604090910152825183908390811061174c5761174c613035565b6020908102919091010152600101611612565b7f4675fa8241f86f37157864d3d49b85ad4b164352c516da28e1678a90470ae300546001600160a01b031633146117ab576040516365f4906560e01b81523360048201526024016103f3565b6117b66008826123e1565b6117fa57604080518082018252601281527113d41154905513d497d393d517d193d5539160721b6020820152905162461bcd60e51b81526103f39190600401613022565b60005b61180760056123cb565b81101561188f576001600160a01b038216600760006118276005856123d5565b6001600160a01b039081168252602082019290925260400160002060030154160361188757604080518082018252600d81526c4f55545f4f465f424f554e445360981b6020820152905162461bcd60e51b81526103f39190600401613022565b6001016117fd565b5061189b6008826125af565b506040516001600160a01b038216907f80c0b871b97b595b16a7741c1b06fed0c6f6f558639f18ccbce50724325dc40d90600090a250565b6001600160a01b03808216600090815260076020526040902060030154829133911681146119315760408051808201825260088152670848288be82aaa8960c31b6020820152905162461bcd60e51b81526103f39190600401613022565b6001600160a01b038381166000908152600760205260409020600201541661198f57604080518082018252600e81526d1393d11157d393d517d193d5539160921b6020820152905162461bcd60e51b81526103f39190600401613022565b60056001600160a01b03841660009081526007602052604090205460ff1660058111156119be576119be612d26565b14611a075760408051808201825260168152751393d11157d4d510551157d393d517d0531313d5d15160521b6020820152905162461bcd60e51b81526103f39190600401613022565b611a126005846125af565b506001600160a01b0383166000908152600760205260408120805460ff1916815590611a416001830182612850565b506002810180546001600160a01b03199081169091556003909101805490911690556040516001600160a01b038416907fcfc24166db4bb677e857cacabd1541fb2b30645021b27c5130419589b84db52b90600090a2505050565b7f59b501c3653afc186af7d48dda36cf6732bd21629a6295693664240a6ef5200054640100000000900460ff16611ae657604051630ef4733760e31b815260040160405180910390fd5b60005b81811015611b2857611b20838383818110611b0657611b06613035565b9050602002016020810190611b1b9190612974565b6122f9565b600101611ae9565b505050565b60006107c3816123cb565b60606107c360056125a2565b60606000828410604051806040016040528060078152602001664241445f41524760c81b81525090611b895760405162461bcd60e51b81526004016103f39190613022565b506000611b9685856132a3565b6001600160401b03811115611bad57611bad612afd565b604051908082528060200260200182016040528015611be657816020015b611bd36127a1565b815260200190600190039081611bcb5790505b50905060005b611bf660006123cb565b611c0082886132b6565b108015611c15575084611c1382886132b6565b105b15611d25576000611c31611c2983896132b6565b6000906123d5565b60408051808201825282815260008381526002602081815291849020845160a0810186528154815260018201546001600160401b0380821683870152600160401b8204811683890152600160801b9091041660608201529181018054865181860281018601909752808752969750939583870195929491936080860193929190830182828015611cea57602002820191906000526020600020905b81546001600160a01b03168152600190910190602001808311611ccc575b505050505081525050815250838381518110611d0857611d08613035565b60200260200101819052505080611d1e906132c9565b9050611bec565b5080611d3160006123cb565b90969410159450505050565b336000818152600760205260409020600201546001600160a01b0316611d9957604080518082018252600e81526d1393d11157d393d517d193d5539160921b6020820152905162461bcd60e51b81526103f39190600401613022565b611da46000876122de565b611ddf5760408051808201825260098152681393d517d193d5539160ba1b6020820152905162461bcd60e51b81526103f39190600401613022565b600086815260026020526040902084815560018101805467ffffffffffffffff19166001600160401b0386161790558215611e47576001818101805467ffffffffffffffff60801b198116600160801b918290046001600160401b0316909317029190911790555b836001600160401b0316600103611e6f576000878152600360205260408120611e6f91612850565b60408051888152602081018790526001600160401b03861681830152841515606082015290517fccc26bbb6dd655ea0bb8a40a3c30e35c6bdf42f8faf0d71bbea897af768cda8b9181900360800190a150505050505050565b81611ed46000826122de565b611f0f5760408051808201825260098152681393d517d193d5539160ba1b6020820152905162461bcd60e51b81526103f39190600401613022565b6001600160a01b03808316600090815260076020526040902060020154839116611f6f57604080518082018252600e81526d1393d11157d393d517d193d5539160921b6020820152905162461bcd60e51b81526103f39190600401613022565b600084815260026020526040812090805b600283015481101561208957856001600160a01b0316836002018281548110611fab57611fab613035565b6000918252602090912001546001600160a01b03160361208157600283018054611fd7906001906132a3565b81548110611fe757611fe7613035565b6000918252602090912001546002840180546001600160a01b03909216918390811061201557612015613035565b9060005260206000200160006101000a8154816001600160a01b0302191690836001600160a01b0316021790555082600201805480612056576120566132e2565b600082815260209020810160001990810180546001600160a01b031916905501905560019150612089565b600101611f80565b50806120cb57604080518082018252600e81526d1393d11157d393d517d193d5539160921b6020820152905162461bcd60e51b81526103f39190600401613022565b604080518781526001600160a01b03871660208201526000918101919091527faaa473c28a5fe04b6a7ecd795826e462f9d0c23f00ef9f51ec02fa6ea418806f90606001611026565b336121206008826123e1565b61215a5760408051808201825260088152670848288be82aaa8960c31b6020820152905162461bcd60e51b81526103f39190600401613022565b6001600160a01b0384811660009081526007602052604090206002015416156121b957604080518082018252600e81526d414c52454144595f45584953545360901b6020820152905162461bcd60e51b81526103f39190600401613022565b600060405180608001604052808460058111156121d8576121d8612d26565b8152602081018690526001600160a01b03871660408201523360609091015290506122046005866125c4565b506001600160a01b03851660009081526007602052604090208151815483929190829060ff1916600183600581111561223f5761223f612d26565b0217905550602082015160018201906122589082613116565b506040828101516002830180546001600160a01b03199081166001600160a01b039384161790915560609094015160039093018054909416928116929092179092559051908616907fd6f3629b08191adb8308c3a65d5f8803b7f8f3e359c433fa7ae623276635e561906122cf90879087906132f8565b60405180910390a25050505050565b600081815260018301602052604081205415155b9392505050565b6001600160a01b03811661233c5760408051808201825260078152664241445f41524760c81b6020820152905162461bcd60e51b81526103f39190600401613022565b6123476008826123e1565b1561238857604080518082018252600e81526d414c52454144595f45584953545360901b6020820152905162461bcd60e51b81526103f39190600401613022565b6123936008826125c4565b506040516001600160a01b038216907fac6fa858e9350a46cec16539926e0fde25b7629f84b5a72bffaae4df888ae86d90600090a250565b6000611043825490565b60006122f283836125d9565b6001600160a01b038116600090815260018301602052604081205415156122f2565b600082600581111561241757612417612d26565b148061246b5750600182600581111561243257612432612d26565b14801561246b5750600381600581111561244e5761244e612d26565b148061246b5750600481600581111561246957612469612d26565b145b806124be5750600282600581111561248557612485612d26565b1480156124be575060038160058111156124a1576124a1612d26565b14806124be575060048160058111156124bc576124bc612d26565b145b80612511575060048260058111156124d8576124d8612d26565b148015612511575060038160058111156124f4576124f4612d26565b14806125115750600581600581111561250f5761250f612d26565b145b806125495750600382600581111561252b5761252b612d26565b1480156125495750600581600581111561254757612547612d26565b145b15612552575050565b60408051808201825260168152751393d11157d4d510551157d393d517d0531313d5d15160521b6020820152905162461bcd60e51b81526103f39190600401613022565b60006122f28383612603565b606060006122f283612652565b60006122f2836001600160a01b0384166126ae565b60006122f2836001600160a01b038416612603565b60008260000182815481106125f0576125f0613035565b9060005260206000200154905092915050565b600081815260018301602052604081205461264a57508154600181810184556000848152602080822090930184905584548482528286019093526040902091909155611043565b506000611043565b6060816000018054806020026020016040519081016040528092919081815260200182805480156126a257602002820191906000526020600020905b81548152602001906001019080831161268e575b50505050509050919050565b600081815260018301602052604081205480156127975760006126d26001836132a3565b85549091506000906126e6906001906132a3565b905080821461274b57600086600001828154811061270657612706613035565b906000526020600020015490508087600001848154811061272957612729613035565b6000918252602080832090910192909255918252600188019052604090208390555b855486908061275c5761275c6132e2565b600190038181906000526020600020016000905590558560010160008681526020019081526020016000206000905560019350505050611043565b6000915050611043565b6040805180820190915260008152602081016127e66040805160a081018252600080825260208201819052918101829052606080820192909252608081019190915290565b905290565b828054828255906000526020600020908101928215612840579160200282015b8281111561284057825182546001600160a01b0319166001600160a01b0390911617825560209092019160019091019061280b565b5061284c929150612886565b5090565b50805461285c90613084565b6000825580601f1061286c575050565b601f01602090049060005260206000209081019061050491905b5b8082111561284c5760008155600101612887565b6000602082840312156128ad57600080fd5b5035919050565b600060a08301825184526020808401516001600160401b0380821660208801528060408701511660408801528060608701511660608801525050608084015160a0608087015282815180855260c088019150602083019450600092505b8083101561293a5784516001600160a01b03168252938301936001929092019190830190612911565b509695505050505050565b6020815260006122f260208301846128b4565b80356001600160a01b038116811461296f57600080fd5b919050565b60006020828403121561298657600080fd5b6122f282612958565b8051825260006020820151604060208501526129ae60408501826128b4565b949350505050565b60008282518085526020808601955060208260051b8401016020860160005b84811015612a0357601f198684030189526129f183835161298f565b988401989250908301906001016129d5565b5090979650505050505050565b6020815260006122f260208301846129b6565b60005b83811015612a3e578181015183820152602001612a26565b50506000910152565b60008151808452612a5f816020860160208601612a23565b601f01601f19169290920160200192915050565b606081526000612a8660608301866128b4565b8460208401528281036040840152612a9e8185612a47565b9695505050505050565b80356006811061296f57600080fd5b60008060408385031215612aca57600080fd5b612ad383612958565b9150612ae160208401612aa8565b90509250929050565b6020815260006122f2602083018461298f565b634e487b7160e01b600052604160045260246000fd5b604051601f8201601f191681016001600160401b0381118282101715612b3b57612b3b612afd565b604052919050565b600082601f830112612b5457600080fd5b81356001600160401b03811115612b6d57612b6d612afd565b612b80601f8201601f1916602001612b13565b818152846020838601011115612b9557600080fd5b816020850160208301376000918101602001919091529392505050565b60008060008060808587031215612bc857600080fd5b843593506020808601356001600160401b0380821115612be757600080fd5b818801915088601f830112612bfb57600080fd5b813581811115612c0d57612c0d612afd565b8060051b612c1c858201612b13565b918252838101850191858101908c841115612c3657600080fd5b948601945b83861015612c5b57612c4c86612958565b82529486019490860190612c3b565b9850505050604088013594506060880135925080831115612c7b57600080fd5b5050612c8987828801612b43565b91505092959194509250565b60008060408385031215612ca857600080fd5b612cb183612958565b915060208301356001600160401b03811115612ccc57600080fd5b612cd885828601612b43565b9150509250929050565b6020808252825182820181905260009190848201906040850190845b81811015612d1a57835183529284019291840191600101612cfe565b50909695505050505050565b634e487b7160e01b600052602160045260246000fd5b60068110612d5a57634e487b7160e01b600052602160045260246000fd5b9052565b612d69828251612d3c565b6000602082015160806020850152612d846080850182612a47565b6040848101516001600160a01b03908116918701919091526060948501511693909401929092525090919050565b6020815260006122f26020830184612d5e565b60008060408385031215612dd857600080fd5b82359150612ae160208401612958565b600060208083016020845280855180835260408601915060408160051b87010192506020870160005b82811015612e3f57603f19888603018452612e2d858351612d5e565b94509285019290850190600101612e11565b5092979650505050505050565b60008060208385031215612e5f57600080fd5b82356001600160401b0380821115612e7657600080fd5b818501915085601f830112612e8a57600080fd5b813581811115612e9957600080fd5b8660208260051b8501011115612eae57600080fd5b60209290920196919550909350505050565b60008151808452602080850194506020840160005b83811015612efa5781516001600160a01b031687529582019590820190600101612ed5565b509495945050505050565b6020815260006122f26020830184612ec0565b60008060408385031215612f2b57600080fd5b50508035926020909101359150565b604081526000612f4d60408301856129b6565b905082151560208301529392505050565b600080600080600060a08688031215612f7657600080fd5b85359450602086013593506040860135925060608601356001600160401b0381168114612fa257600080fd5b915060808601358015158114612fb757600080fd5b809150509295509295909350565b600080600060608486031215612fda57600080fd5b612fe384612958565b925060208401356001600160401b03811115612ffe57600080fd5b61300a86828701612b43565b92505061301960408501612aa8565b90509250925092565b6020815260006122f26020830184612a47565b634e487b7160e01b600052603260045260246000fd5b634e487b7160e01b600052601160045260246000fd5b600063ffffffff80831681810361307a5761307a61304b565b6001019392505050565b600181811c9082168061309857607f821691505b60208210810361093357634e487b7160e01b600052602260045260246000fd5b602081016110438284612d3c565b601f821115611b28576000816000526020600020601f850160051c810160208610156130ef5750805b601f850160051c820191505b8181101561310e578281556001016130fb565b505050505050565b81516001600160401b0381111561312f5761312f612afd565b6131438161313d8454613084565b846130c6565b602080601f83116001811461317857600084156131605750858301515b600019600386901b1c1916600185901b17855561310e565b600085815260208120601f198616915b828110156131a757888601518255948401946001909101908401613188565b50858210156131c55787850151600019600388901b60f8161c191681555b5050505050600190811b01905550565b8481526080602082015260006131ee6080830186612ec0565b84604084015282810360608401526132068185612a47565b979650505050505050565b60008251613223818460208701612a23565b9190910192915050565b600080835461323b81613084565b60018281168015613253576001811461326857613297565b60ff1984168752821515830287019450613297565b8760005260208060002060005b8581101561328e5781548a820152908401908201613275565b50505082870194505b50929695505050505050565b818103818111156110435761104361304b565b808201808211156110435761104361304b565b6000600182016132db576132db61304b565b5060010190565b634e487b7160e01b600052603160045260246000fd5b60408152600061330b6040830185612a47565b90506122f26020830184612d3c56","linkReferences":{}},"methodIdentifiers":{"__OperatorRegistry_init(address[])":"ba428b1a","allocateStream(bytes32,address[],bytes32,bytes)":"6b883c39","approveOperator(address)":"242cae9f","getAllNodeAddresses()":"c8fe3a01","getAllNodes()":"a1174e7d","getAllStreamIds()":"86789fc6","getAllStreams()":"3bd84c0c","getNode(address)":"9d209048","getNodeCount()":"39bf397e","getPaginatedStreams(uint256,uint256)":"ca78c41a","getStream(bytes32)":"1290abe8","getStreamByIndex(uint256)":"68b454df","getStreamCount()":"c0f22084","getStreamWithGenesis(bytes32)":"3c2544d1","getStreamsOnNode(address)":"32705ac4","isOperator(address)":"6d70f7ae","placeStreamOnNode(bytes32,address)":"9ee86d38","registerNode(address,string,uint8)":"eecc66f4","removeNode(address)":"b2b99ec9","removeOperator(address)":"ac8a584a","removeStreamFromNode(bytes32,address)":"ee885b12","setStreamLastMiniblock(bytes32,bytes32,bytes32,uint64,bool)":"d7a3158a","updateNodeStatus(address,uint8)":"581f8b9b","updateNodeUrl(address,string)":"7e4465e7"},"id":316}