{"abi":[{"type":"constructor","inputs":[{"name":"approvedOperators","type":"address[]","internalType":"address[]"}],"stateMutability":"nonpayable"},{"type":"function","name":"__OperatorRegistry_init","inputs":[{"name":"initialOperators","type":"address[]","internalType":"address[]"}],"outputs":[],"stateMutability":"nonpayable"},{"type":"function","name":"allocateStream","inputs":[{"name":"streamId","type":"bytes32","internalType":"bytes32"},{"name":"nodes","type":"address[]","internalType":"address[]"},{"name":"genesisMiniblockHash","type":"bytes32","internalType":"bytes32"},{"name":"genesisMiniblock","type":"bytes","internalType":"bytes"}],"outputs":[],"stateMutability":"nonpayable"},{"type":"function","name":"approveOperator","inputs":[{"name":"operator","type":"address","internalType":"address"}],"outputs":[],"stateMutability":"nonpayable"},{"type":"function","name":"getAllNodeAddresses","inputs":[],"outputs":[{"name":"","type":"address[]","internalType":"address[]"}],"stateMutability":"view"},{"type":"function","name":"getAllNodes","inputs":[],"outputs":[{"name":"","type":"tuple[]","internalType":"struct Node[]","components":[{"name":"status","type":"uint8","internalType":"enum NodeStatus"},{"name":"url","type":"string","internalType":"string"},{"name":"nodeAddress","type":"address","internalType":"address"},{"name":"operator","type":"address","internalType":"address"}]}],"stateMutability":"view"},{"type":"function","name":"getAllStreamIds","inputs":[],"outputs":[{"name":"","type":"bytes32[]","internalType":"bytes32[]"}],"stateMutability":"view"},{"type":"function","name":"getAllStreams","inputs":[],"outputs":[{"name":"","type":"tuple[]","internalType":"struct StreamWithId[]","components":[{"name":"id","type":"bytes32","internalType":"bytes32"},{"name":"stream","type":"tuple","internalType":"struct Stream","components":[{"name":"lastMiniblockHash","type":"bytes32","internalType":"bytes32"},{"name":"lastMiniblockNum","type":"uint64","internalType":"uint64"},{"name":"reserved0","type":"uint64","internalType":"uint64"},{"name":"flags","type":"uint64","internalType":"uint64"},{"name":"nodes","type":"address[]","internalType":"address[]"}]}]}],"stateMutability":"view"},{"type":"function","name":"getNode","inputs":[{"name":"nodeAddress","type":"address","internalType":"address"}],"outputs":[{"name":"","type":"tuple","internalType":"struct Node","components":[{"name":"status","type":"uint8","internalType":"enum NodeStatus"},{"name":"url","type":"string","internalType":"string"},{"name":"nodeAddress","type":"address","internalType":"address"},{"name":"operator","type":"address","internalType":"address"}]}],"stateMutability":"view"},{"type":"function","name":"getNodeCount","inputs":[],"outputs":[{"name":"","type":"uint256","internalType":"uint256"}],"stateMutability":"view"},{"type":"function","name":"getStream","inputs":[{"name":"streamId","type":"bytes32","internalType":"bytes32"}],"outputs":[{"name":"","type":"tuple","internalType":"struct Stream","components":[{"name":"lastMiniblockHash","type":"bytes32","internalType":"bytes32"},{"name":"lastMiniblockNum","type":"uint64","internalType":"uint64"},{"name":"reserved0","type":"uint64","internalType":"uint64"},{"name":"flags","type":"uint64","internalType":"uint64"},{"name":"nodes","type":"address[]","internalType":"address[]"}]}],"stateMutability":"view"},{"type":"function","name":"getStreamCount","inputs":[],"outputs":[{"name":"","type":"uint256","internalType":"uint256"}],"stateMutability":"view"},{"type":"function","name":"getStreamWithGenesis","inputs":[{"name":"streamId","type":"bytes32","internalType":"bytes32"}],"outputs":[{"name":"","type":"tuple","internalType":"struct Stream","components":[{"name":"lastMiniblockHash","type":"bytes32","internalType":"bytes32"},{"name":"lastMiniblockNum","type":"uint64","internalType":"uint64"},{"name":"reserved0","type":"uint64","internalType":"uint64"},{"name":"flags","type":"uint64","internalType":"uint64"},{"name":"nodes","type":"address[]","internalType":"address[]"}]},{"name":"","type":"bytes32","internalType":"bytes32"},{"name":"","type":"bytes","internalType":"bytes"}],"stateMutability":"view"},{"type":"function","name":"getStreamsOnNode","inputs":[{"name":"nodeAddress","type":"address","internalType":"address"}],"outputs":[{"name":"","type":"tuple[]","internalType":"struct StreamWithId[]","components":[{"name":"id","type":"bytes32","internalType":"bytes32"},{"name":"stream","type":"tuple","internalType":"struct Stream","components":[{"name":"lastMiniblockHash","type":"bytes32","internalType":"bytes32"},{"name":"lastMiniblockNum","type":"uint64","internalType":"uint64"},{"name":"reserved0","type":"uint64","internalType":"uint64"},{"name":"flags","type":"uint64","internalType":"uint64"},{"name":"nodes","type":"address[]","internalType":"address[]"}]}]}],"stateMutability":"view"},{"type":"function","name":"isOperator","inputs":[{"name":"operator","type":"address","internalType":"address"}],"outputs":[{"name":"","type":"bool","internalType":"bool"}],"stateMutability":"view"},{"type":"function","name":"placeStreamOnNode","inputs":[{"name":"streamId","type":"bytes32","internalType":"bytes32"},{"name":"nodeAddress","type":"address","internalType":"address"}],"outputs":[],"stateMutability":"nonpayable"},{"type":"function","name":"registerNode","inputs":[{"name":"nodeAddress","type":"address","internalType":"address"},{"name":"url","type":"string","internalType":"string"},{"name":"status","type":"uint8","internalType":"enum NodeStatus"}],"outputs":[],"stateMutability":"nonpayable"},{"type":"function","name":"removeNode","inputs":[{"name":"nodeAddress","type":"address","internalType":"address"}],"outputs":[],"stateMutability":"nonpayable"},{"type":"function","name":"removeOperator","inputs":[{"name":"operator","type":"address","internalType":"address"}],"outputs":[],"stateMutability":"nonpayable"},{"type":"function","name":"removeStreamFromNode","inputs":[{"name":"streamId","type":"bytes32","internalType":"bytes32"},{"name":"nodeAddress","type":"address","internalType":"address"}],"outputs":[],"stateMutability":"nonpayable"},{"type":"function","name":"setStreamLastMiniblock","inputs":[{"name":"streamId","type":"bytes32","internalType":"bytes32"},{"name":"","type":"bytes32","internalType":"bytes32"},{"name":"lastMiniblockHash","type":"bytes32","internalType":"bytes32"},{"name":"lastMiniblockNum","type":"uint64","internalType":"uint64"},{"name":"isSealed","type":"bool","internalType":"bool"}],"outputs":[],"stateMutability":"nonpayable"},{"type":"function","name":"updateNodeStatus","inputs":[{"name":"nodeAddress","type":"address","internalType":"address"},{"name":"status","type":"uint8","internalType":"enum NodeStatus"}],"outputs":[],"stateMutability":"nonpayable"},{"type":"function","name":"updateNodeUrl","inputs":[{"name":"nodeAddress","type":"address","internalType":"address"},{"name":"url","type":"string","internalType":"string"}],"outputs":[],"stateMutability":"nonpayable"},{"type":"event","name":"Initialized","inputs":[{"name":"version","type":"uint32","indexed":false,"internalType":"uint32"}],"anonymous":false},{"type":"event","name":"InterfaceAdded","inputs":[{"name":"interfaceId","type":"bytes4","indexed":true,"internalType":"bytes4"}],"anonymous":false},{"type":"event","name":"InterfaceRemoved","inputs":[{"name":"interfaceId","type":"bytes4","indexed":true,"internalType":"bytes4"}],"anonymous":false},{"type":"event","name":"NodeAdded","inputs":[{"name":"nodeAddress","type":"address","indexed":true,"internalType":"address"},{"name":"url","type":"string","indexed":false,"internalType":"string"},{"name":"status","type":"uint8","indexed":false,"internalType":"enum NodeStatus"}],"anonymous":false},{"type":"event","name":"NodeRemoved","inputs":[{"name":"nodeAddress","type":"address","indexed":true,"internalType":"address"}],"anonymous":false},{"type":"event","name":"NodeStatusUpdated","inputs":[{"name":"nodeAddress","type":"address","indexed":true,"internalType":"address"},{"name":"status","type":"uint8","indexed":false,"internalType":"enum NodeStatus"}],"anonymous":false},{"type":"event","name":"NodeUrlUpdated","inputs":[{"name":"nodeAddress","type":"address","indexed":true,"internalType":"address"},{"name":"url","type":"string","indexed":false,"internalType":"string"}],"anonymous":false},{"type":"event","name":"OperatorAdded","inputs":[{"name":"operatorAddress","type":"address","indexed":true,"internalType":"address"}],"anonymous":false},{"type":"event","name":"OperatorRemoved","inputs":[{"name":"operatorAddress","type":"address","indexed":true,"internalType":"address"}],"anonymous":false},{"type":"event","name":"OwnershipTransferred","inputs":[{"name":"previousOwner","type":"address","indexed":true,"internalType":"address"},{"name":"newOwner","type":"address","indexed":true,"internalType":"address"}],"anonymous":false},{"type":"event","name":"StreamAllocated","inputs":[{"name":"streamId","type":"bytes32","indexed":false,"internalType":"bytes32"},{"name":"nodes","type":"address[]","indexed":false,"internalType":"address[]"},{"name":"genesisMiniblockHash","type":"bytes32","indexed":false,"internalType":"bytes32"},{"name":"genesisMiniblock","type":"bytes","indexed":false,"internalType":"bytes"}],"anonymous":false},{"type":"event","name":"StreamLastMiniblockUpdated","inputs":[{"name":"streamId","type":"bytes32","indexed":false,"internalType":"bytes32"},{"name":"lastMiniblockHash","type":"bytes32","indexed":false,"internalType":"bytes32"},{"name":"lastMiniblockNum","type":"uint64","indexed":false,"internalType":"uint64"},{"name":"isSealed","type":"bool","indexed":false,"internalType":"bool"}],"anonymous":false},{"type":"event","name":"StreamPlacementUpdated","inputs":[{"name":"streamId","type":"bytes32","indexed":false,"internalType":"bytes32"},{"name":"nodeAddress","type":"address","indexed":false,"internalType":"address"},{"name":"isAdded","type":"bool","indexed":false,"internalType":"bool"}],"anonymous":false},{"type":"error","name":"Initializable_InInitializingState","inputs":[]},{"type":"error","name":"Initializable_NotInInitializingState","inputs":[]},{"type":"error","name":"Introspection_AlreadySupported","inputs":[]},{"type":"error","name":"Introspection_NotSupported","inputs":[]},{"type":"error","name":"Ownable__NotOwner","inputs":[{"name":"account","type":"address","internalType":"address"}]},{"type":"error","name":"Ownable__ZeroAddress","inputs":[]}],"bytecode":{"object":"0x60806040523480156200001157600080fd5b50604051620033d7380380620033d78339810160408190526200003491620003ac565b6200003e62000094565b62000049336200013c565b60005b81518110156200008c57620000838282815181106200006f576200006f6200047e565b60200260200101516200020a60201b60201c565b6001016200004c565b5050620004e5565b7f59b501c3653afc186af7d48dda36cf6732bd21629a6295693664240a6ef520008054640100000000900460ff1615620000e1576040516366008a2d60e01b815260040160405180910390fd5b805463ffffffff90811610156200013957805463ffffffff191663ffffffff90811782556040519081527fe9c9b456cb2994b80aeef036cf59d26e9617df80f816a6ee5a5b4166e07e2f5c9060200160405180910390a15b50565b6000620001707f4675fa8241f86f37157864d3d49b85ad4b164352c516da28e1678a90470ae300546001600160a01b031690565b90506001600160a01b0382166200019a57604051634e3ef82560e01b815260040160405180910390fd5b817f4675fa8241f86f37157864d3d49b85ad4b164352c516da28e1678a90470ae30080546001600160a01b0319166001600160a01b03928316179055604051838216918316907f8be0079c531659141344cd1fd0a4f28419497f9722a3daafe3b4186f6b6457e090600090a35050565b6001600160a01b038116620002595760408051808201825260078152664241445f41524760c81b6020820152905162461bcd60e51b815262000250919060040162000494565b60405180910390fd5b62000266600882620002ef565b15620002aa57604080518082018252600e81526d414c52454144595f45584953545360901b6020820152905162461bcd60e51b815262000250919060040162000494565b620002b760088262000316565b506040516001600160a01b038216907fac6fa858e9350a46cec16539926e0fde25b7629f84b5a72bffaae4df888ae86d90600090a250565b6001600160a01b038116600090815260018301602052604081205415155b90505b92915050565b60006200030d836001600160a01b0384166000818152600183016020526040812054620003705750815460018181018455600084815260208082209093018490558454848252828601909352604090209190915562000310565b50600062000310565b634e487b7160e01b600052604160045260246000fd5b80516001600160a01b0381168114620003a757600080fd5b919050565b60006020808385031215620003c057600080fd5b82516001600160401b0380821115620003d857600080fd5b818501915085601f830112620003ed57600080fd5b81518181111562000402576200040262000379565b8060051b604051601f19603f830116810181811085821117156200042a576200042a62000379565b6040529182528482019250838101850191888311156200044957600080fd5b938501935b82851015620004725762000462856200038f565b845293850193928501926200044e565b98975050505050505050565b634e487b7160e01b600052603260045260246000fd5b60006020808352835180602085015260005b81811015620004c457858101830151858201604001528201620004a6565b506000604082860101526040601f19601f8301168501019250505092915050565b612ee280620004f56000396000f3fe608060405234801561001057600080fd5b50600436106101425760003560e01c80639d209048116100b8578063ba428b1a1161007c578063ba428b1a146102c4578063c0f22084146102d7578063c8fe3a01146102df578063d7a3158a146102f4578063ee885b1214610307578063eecc66f41461031a57600080fd5b80639d209048146102565780639ee86d3814610276578063a1174e7d14610289578063ac8a584a1461029e578063b2b99ec9146102b157600080fd5b80633c2544d11161010a5780633c2544d1146101c3578063581f8b9b146101e55780636b883c39146101f85780636d70f7ae1461020b5780637e4465e71461022e57806386789fc61461024157600080fd5b80631290abe814610147578063242cae9f1461017057806332705ac41461018557806339bf397e146101a55780633bd84c0c146101bb575b600080fd5b61015a610155366004612506565b61032d565b60405161016791906125b0565b60405180910390f35b61018361017e3660046125df565b610458565b005b6101986101933660046125df565b6104b0565b60405161016791906125fa565b6101ad610760565b604051908152602001610167565b610198610771565b6101d66101d1366004612506565b6108e2565b604051610167939291906126c0565b6101836101f3366004612704565b610ab3565b6101836102063660046127ec565b610c84565b61021e6102193660046125df565b610ed3565b6040519015158152602001610167565b61018361023c3660046128cf565b610ee6565b61024961110f565b604051610167919061291c565b6102696102643660046125df565b61111b565b60405161016791906129ec565b6101836102843660046129ff565b61129c565b61029161143f565b6040516101679190612a22565b6101836102ac3660046125df565b611613565b6101836102bf3660046125df565b611787565b6101836102d2366004612a86565b611943565b6101ad6119d4565b6102e76119df565b6040516101679190612b3f565b610183610302366004612b52565b6119eb565b6101836103153660046129ff565b611b60565b610183610328366004612bb9565b611d92565b6040805160a08101825260008082526020820181905291810182905260608082018390526080820152906103619083611f49565b6103a55760408051808201825260098152681393d517d193d5539160ba1b6020820152905162461bcd60e51b815261039c9190600401612c16565b60405180910390fd5b600082815260026020818152604092839020835160a0810185528154815260018201546001600160401b0380821683860152600160401b8204811683880152600160801b909104166060820152928101805485518185028101850190965280865293949193608086019383018282801561044857602002820191906000526020600020905b81546001600160a01b0316815260019091019060200180831161042a575b5050505050815250509050919050565b7f4675fa8241f86f37157864d3d49b85ad4b164352c516da28e1678a90470ae300546001600160a01b031633146104a4576040516365f4906560e01b815233600482015260240161039c565b6104ad81611f64565b50565b606060006104bd81612036565b6001600160401b038111156104d4576104d4612737565b6040519080825280602002602001820160405280156104fd578160200160208202803683370190505b5090506000805b61050e6000612036565b8110156105c35760006105218183612040565b60008181526002602052604081209192505b60028201548110156105b557876001600160a01b031682600201828154811061055e5761055e612c29565b6000918252602090912001546001600160a01b0316036105ad5782868661058481612c55565b975063ffffffff168151811061059c5761059c612c29565b6020026020010181815250506105b5565b600101610533565b505050806001019050610504565b5060008163ffffffff166001600160401b038111156105e4576105e4612737565b60405190808252806020026020018201604052801561061d57816020015b61060a61240c565b8152602001906001900390816106025790505b50905060005b8263ffffffff1681101561075757604051806040016040528085838151811061064e5761064e612c29565b602002602001015181526020016000600201600087858151811061067457610674612c29565b6020908102919091018101518252818101929092526040908101600020815160a0810183528154815260018201546001600160401b0380821683870152600160401b8204811683860152600160801b90910416606082015260028201805484518187028101870190955280855291949293608086019390929083018282801561072657602002820191906000526020600020905b81546001600160a01b03168152600190910190602001808311610708575b50505050508152505081525082828151811061074457610744612c29565b6020908102919091010152600101610623565b50949350505050565b600061076c6005612036565b905090565b6060600061077e81612036565b6001600160401b0381111561079557610795612737565b6040519080825280602002602001820160405280156107ce57816020015b6107bb61240c565b8152602001906001900390816107b35790505b50905060005b6107de6000612036565b8110156108dc5760006107f18183612040565b60408051808201825282815260008381526002602081815291849020845160a0810186528154815260018201546001600160401b0380821683870152600160401b8204811683890152600160801b90910416606082015291810180548651818602810186019097528087529697509395838701959294919360808601939291908301828280156108aa57602002820191906000526020600020905b81546001600160a01b0316815260019091019060200180831161088c575b5050505050815250508152508383815181106108c8576108c8612c29565b6020908102919091010152506001016107d4565b50919050565b6040805160a08101825260008082526020820181905291810182905260608082018390526080820181905290919061091a8285611f49565b6109555760408051808201825260098152681393d517d193d5539160ba1b6020820152905162461bcd60e51b815261039c9190600401612c16565b600084815260026020818152604080842060048352818520546003845294829020825160a0810184528254815260018301546001600160401b0380821683880152600160401b8204811683870152600160801b90910416606082015294820180548451818702810187019095528085529296959194919387936080860193919291830182828015610a0f57602002820191906000526020600020905b81546001600160a01b031681526001909101906020018083116109f1575b5050505050815250509250808054610a2690612c78565b80601f0160208091040260200160405190810160405280929190818152602001828054610a5290612c78565b8015610a9f5780601f10610a7457610100808354040283529160200191610a9f565b820191906000526020600020905b815481529060010190602001808311610a8257829003601f168201915b505050505090509250925092509193909250565b81610abf60058261204c565b610af95760408051808201825260088152670848288be82aaa8960c31b6020820152905162461bcd60e51b815261039c9190600401612c16565b33610b0560088261204c565b610b3f5760408051808201825260088152670848288be82aaa8960c31b6020820152905162461bcd60e51b815261039c9190600401612c16565b6001600160a01b0380851660009081526007602052604090206003015485913391168114610b9d5760408051808201825260088152670848288be82aaa8960c31b6020820152905162461bcd60e51b815261039c9190600401612c16565b610ba860058761204c565b610be857604080518082018252600e81526d1393d11157d393d517d193d5539160921b6020820152905162461bcd60e51b815261039c9190600401612c16565b6001600160a01b03861660009081526007602052604090208054610c0f9060ff168761206e565b80548690829060ff19166001836005811115610c2d57610c2d612960565b021790555060028101546040516001600160a01b03909116907f20891cc7622c7951cbd8c70c61a5201eb45625b8c00e8f6c986cfca78f3dbfa090610c73908990612cac565b60405180910390a250505050505050565b33610c9060058261204c565b610cca5760408051808201825260088152670848288be82aaa8960c31b6020820152905162461bcd60e51b815261039c9190600401612c16565b610cd5600086611f49565b15610d1657604080518082018252600e81526d414c52454144595f45584953545360901b6020820152905162461bcd60e51b815261039c9190600401612c16565b60005b8451811015610d9a57610d52858281518110610d3757610d37612c29565b6020026020010151600060050161204c90919063ffffffff16565b610d9257604080518082018252600e81526d1393d11157d393d517d193d5539160921b6020820152905162461bcd60e51b815261039c9190600401612c16565b600101610d19565b506040805160a081018252848152600060208201819052918101829052606081018290526080810186905290610dd09087612201565b5060008681526002602081815260409283902084518155818501516001820180549587015160608801516001600160401b03908116600160801b0267ffffffffffffffff60801b19928216600160401b026fffffffffffffffffffffffffffffffff19909916919094161796909617959095161790935560808401518051859493610e6093908501920190612456565b5050506000868152600360205260409020610e7b8482612d0a565b5060008681526004602052604090819020859055517f55ef7efc60ef99743e54209752c9a8e047e013917ec91572db75875069dd65bb90610ec3908890889088908890612dc9565b60405180910390a1505050505050565b6000610ee060088361204c565b92915050565b33610ef260088261204c565b610f2c5760408051808201825260088152670848288be82aaa8960c31b6020820152905162461bcd60e51b815261039c9190600401612c16565b82610f3860058261204c565b610f725760408051808201825260088152670848288be82aaa8960c31b6020820152905162461bcd60e51b815261039c9190600401612c16565b6001600160a01b0380851660009081526007602052604090206003015485913391168114610fd05760408051808201825260088152670848288be82aaa8960c31b6020820152905162461bcd60e51b815261039c9190600401612c16565b610fdb60058761204c565b61101b57604080518082018252600e81526d1393d11157d393d517d193d5539160921b6020820152905162461bcd60e51b815261039c9190600401612c16565b6001600160a01b038616600090815260076020908152604091829020915161104591889101612e05565b604051602081830303815290604052805190602001208160010160405160200161106f9190612e21565b60405160208183030381529060405280519060200120036110bf5760408051808201825260078152664241445f41524760c81b6020820152905162461bcd60e51b815261039c9190600401612c16565b600181016110cd8782612d0a565b5060028101546040516001600160a01b03909116907f4505168a8705a16fd4d0575197fd0f510db69df93a065e158ad2c0957ba12bac90610c73908990612c16565b606061076c600061220d565b6111466040805160808101909152806000815260606020820181905260006040830181905291015290565b61115160058361204c565b61119157604080518082018252600e81526d1393d11157d393d517d193d5539160921b6020820152905162461bcd60e51b815261039c9190600401612c16565b6001600160a01b038216600090815260076020526040908190208151608081019092528054829060ff1660058111156111cc576111cc612960565b60058111156111dd576111dd612960565b81526020016001820180546111f190612c78565b80601f016020809104026020016040519081016040528092919081815260200182805461121d90612c78565b801561126a5780601f1061123f5761010080835404028352916020019161126a565b820191906000526020600020905b81548152906001019060200180831161124d57829003601f168201915b505050918352505060028201546001600160a01b03908116602083015260039092015490911660409091015292915050565b816112a8600082611f49565b6112e35760408051808201825260098152681393d517d193d5539160ba1b6020820152905162461bcd60e51b815261039c9190600401612c16565b816112ef60058261204c565b6113295760408051808201825260088152670848288be82aaa8960c31b6020820152905162461bcd60e51b815261039c9190600401612c16565b6000848152600260205260408120905b60028201548110156113c257846001600160a01b031682600201828154811061136457611364612c29565b6000918252602090912001546001600160a01b0316036113ba57604080518082018252600e81526d414c52454144595f45584953545360901b6020820152905162461bcd60e51b815261039c9190600401612c16565b600101611339565b5060028101805460018082018355600092835260209283902090910180546001600160a01b0319166001600160a01b03881690811790915560408051898152938401919091528201527faaa473c28a5fe04b6a7ecd795826e462f9d0c23f00ef9f51ec02fa6ea418806f9060600160405180910390a15050505050565b6060600061144d6005612036565b6001600160401b0381111561146457611464612737565b6040519080825280602002602001820160405280156114c057816020015b6114ad6040805160808101909152806000815260606020820181905260006040830181905291015290565b8152602001906001900390816114825790505b50905060005b6114d06005612036565b8110156108dc57600760006114e6600584612040565b6001600160a01b03168152602081019190915260409081016000208151608081019092528054829060ff16600581111561152257611522612960565b600581111561153357611533612960565b815260200160018201805461154790612c78565b80601f016020809104026020016040519081016040528092919081815260200182805461157390612c78565b80156115c05780601f10611595576101008083540402835291602001916115c0565b820191906000526020600020905b8154815290600101906020018083116115a357829003601f168201915b505050918352505060028201546001600160a01b039081166020830152600390920154909116604090910152825183908390811061160057611600612c29565b60209081029190910101526001016114c6565b7f4675fa8241f86f37157864d3d49b85ad4b164352c516da28e1678a90470ae300546001600160a01b0316331461165f576040516365f4906560e01b815233600482015260240161039c565b61166a60088261204c565b6116ae57604080518082018252601281527113d41154905513d497d393d517d193d5539160721b6020820152905162461bcd60e51b815261039c9190600401612c16565b60005b6116bb6005612036565b811015611743576001600160a01b038216600760006116db600585612040565b6001600160a01b039081168252602082019290925260400160002060030154160361173b57604080518082018252600d81526c4f55545f4f465f424f554e445360981b6020820152905162461bcd60e51b815261039c9190600401612c16565b6001016116b1565b5061174f60088261221a565b506040516001600160a01b038216907f80c0b871b97b595b16a7741c1b06fed0c6f6f558639f18ccbce50724325dc40d90600090a250565b6001600160a01b03808216600090815260076020526040902060030154829133911681146117e55760408051808201825260088152670848288be82aaa8960c31b6020820152905162461bcd60e51b815261039c9190600401612c16565b6117f060058461204c565b61183057604080518082018252600e81526d1393d11157d393d517d193d5539160921b6020820152905162461bcd60e51b815261039c9190600401612c16565b60056001600160a01b03841660009081526007602052604090205460ff16600581111561185f5761185f612960565b14604051806040016040528060168152602001751393d11157d4d510551157d393d517d0531313d5d15160521b815250906118ad5760405162461bcd60e51b815260040161039c9190612c16565b506118b960058461221a565b506001600160a01b0383166000908152600760205260408120805460ff19168155906118e860018301826124bb565b506002810180546001600160a01b03199081169091556003909101805490911690556040516001600160a01b038416907fcfc24166db4bb677e857cacabd1541fb2b30645021b27c5130419589b84db52b90600090a2505050565b7f59b501c3653afc186af7d48dda36cf6732bd21629a6295693664240a6ef5200054640100000000900460ff1661198d57604051630ef4733760e31b815260040160405180910390fd5b60005b818110156119cf576119c78383838181106119ad576119ad612c29565b90506020020160208101906119c291906125df565b611f64565b600101611990565b505050565b600061076c81612036565b606061076c600561220d565b336119f760058261204c565b611a315760408051808201825260088152670848288be82aaa8960c31b6020820152905162461bcd60e51b815261039c9190600401612c16565b611a3c600087611f49565b611a775760408051808201825260098152681393d517d193d5539160ba1b6020820152905162461bcd60e51b815261039c9190600401612c16565b600086815260026020526040902084815560018101805467ffffffffffffffff19166001600160401b0386161790558215611adf576001818101805467ffffffffffffffff60801b198116600160801b918290046001600160401b0316909317029190911790555b836001600160401b0316600103611b07576000878152600360205260408120611b07916124bb565b60408051888152602081018790526001600160401b03861681830152841515606082015290517fccc26bbb6dd655ea0bb8a40a3c30e35c6bdf42f8faf0d71bbea897af768cda8b9181900360800190a150505050505050565b81611b6c600082611f49565b611ba75760408051808201825260098152681393d517d193d5539160ba1b6020820152905162461bcd60e51b815261039c9190600401612c16565b81611bb360058261204c565b611bed5760408051808201825260088152670848288be82aaa8960c31b6020820152905162461bcd60e51b815261039c9190600401612c16565b600084815260026020526040812090805b6002830154811015611d0757856001600160a01b0316836002018281548110611c2957611c29612c29565b6000918252602090912001546001600160a01b031603611cff57600283018054611c5590600190612e97565b81548110611c6557611c65612c29565b6000918252602090912001546002840180546001600160a01b039092169183908110611c9357611c93612c29565b9060005260206000200160006101000a8154816001600160a01b0302191690836001600160a01b0316021790555082600201805480611cd457611cd4612eaa565b600082815260209020810160001990810180546001600160a01b031916905501905560019150611d07565b600101611bfe565b5080611d4957604080518082018252600e81526d1393d11157d393d517d193d5539160921b6020820152905162461bcd60e51b815261039c9190600401612c16565b604080518781526001600160a01b03871660208201526000918101919091527faaa473c28a5fe04b6a7ecd795826e462f9d0c23f00ef9f51ec02fa6ea418806f90606001610ec3565b33611d9e60088261204c565b611dd85760408051808201825260088152670848288be82aaa8960c31b6020820152905162461bcd60e51b815261039c9190600401612c16565b611de360058561204c565b15611e2457604080518082018252600e81526d414c52454144595f45584953545360901b6020820152905162461bcd60e51b815261039c9190600401612c16565b60006040518060800160405280846005811115611e4357611e43612960565b8152602081018690526001600160a01b0387166040820152336060909101529050611e6f60058661222f565b506001600160a01b03851660009081526007602052604090208151815483929190829060ff19166001836005811115611eaa57611eaa612960565b021790555060208201516001820190611ec39082612d0a565b506040828101516002830180546001600160a01b03199081166001600160a01b039384161790915560609094015160039093018054909416928116929092179092559051908616907fd6f3629b08191adb8308c3a65d5f8803b7f8f3e359c433fa7ae623276635e56190611f3a9087908790612ec0565b60405180910390a25050505050565b600081815260018301602052604081205415155b9392505050565b6001600160a01b038116611fa75760408051808201825260078152664241445f41524760c81b6020820152905162461bcd60e51b815261039c9190600401612c16565b611fb260088261204c565b15611ff357604080518082018252600e81526d414c52454144595f45584953545360901b6020820152905162461bcd60e51b815261039c9190600401612c16565b611ffe60088261222f565b506040516001600160a01b038216907fac6fa858e9350a46cec16539926e0fde25b7629f84b5a72bffaae4df888ae86d90600090a250565b6000610ee0825490565b6000611f5d8383612244565b6001600160a01b03811660009081526001830160205260408120541515611f5d565b600082600581111561208257612082612960565b14806120d65750600182600581111561209d5761209d612960565b1480156120d6575060038160058111156120b9576120b9612960565b14806120d6575060048160058111156120d4576120d4612960565b145b80612129575060028260058111156120f0576120f0612960565b1480156121295750600381600581111561210c5761210c612960565b14806121295750600481600581111561212757612127612960565b145b8061217c5750600482600581111561214357612143612960565b14801561217c5750600381600581111561215f5761215f612960565b148061217c5750600581600581111561217a5761217a612960565b145b806121b45750600382600581111561219657612196612960565b1480156121b4575060058160058111156121b2576121b2612960565b145b156121bd575050565b60408051808201825260168152751393d11157d4d510551157d393d517d0531313d5d15160521b6020820152905162461bcd60e51b815261039c9190600401612c16565b6000611f5d838361226e565b60606000611f5d836122bd565b6000611f5d836001600160a01b038416612319565b6000611f5d836001600160a01b03841661226e565b600082600001828154811061225b5761225b612c29565b9060005260206000200154905092915050565b60008181526001830160205260408120546122b557508154600181810184556000848152602080822090930184905584548482528286019093526040902091909155610ee0565b506000610ee0565b60608160000180548060200260200160405190810160405280929190818152602001828054801561230d57602002820191906000526020600020905b8154815260200190600101908083116122f9575b50505050509050919050565b6000818152600183016020526040812054801561240257600061233d600183612e97565b855490915060009061235190600190612e97565b90508082146123b657600086600001828154811061237157612371612c29565b906000526020600020015490508087600001848154811061239457612394612c29565b6000918252602080832090910192909255918252600188019052604090208390555b85548690806123c7576123c7612eaa565b600190038181906000526020600020016000905590558560010160008681526020019081526020016000206000905560019350505050610ee0565b6000915050610ee0565b6040805180820190915260008152602081016124516040805160a081018252600080825260208201819052918101829052606080820192909252608081019190915290565b905290565b8280548282559060005260206000209081019282156124ab579160200282015b828111156124ab57825182546001600160a01b0319166001600160a01b03909116178255602090920191600190910190612476565b506124b79291506124f1565b5090565b5080546124c790612c78565b6000825580601f106124d7575050565b601f0160209004906000526020600020908101906104ad91905b5b808211156124b757600081556001016124f2565b60006020828403121561251857600080fd5b5035919050565b600060a08301825184526020808401516001600160401b0380821660208801528060408701511660408801528060608701511660608801525050608084015160a0608087015282815180855260c088019150602083019450600092505b808310156125a55784516001600160a01b0316825293830193600192909201919083019061257c565b509695505050505050565b602081526000611f5d602083018461251f565b80356001600160a01b03811681146125da57600080fd5b919050565b6000602082840312156125f157600080fd5b611f5d826125c3565b600060208083018184528085518083526040925060408601915060408160051b87010184880160005b8381101561266257888303603f1901855281518051845287015187840187905261264f8785018261251f565b9588019593505090860190600101612623565b509098975050505050505050565b60005b8381101561268b578181015183820152602001612673565b50506000910152565b600081518084526126ac816020860160208601612670565b601f01601f19169290920160200192915050565b6060815260006126d3606083018661251f565b84602084015282810360408401526126eb8185612694565b9695505050505050565b8035600681106125da57600080fd5b6000806040838503121561271757600080fd5b612720836125c3565b915061272e602084016126f5565b90509250929050565b634e487b7160e01b600052604160045260246000fd5b604051601f8201601f191681016001600160401b038111828210171561277557612775612737565b604052919050565b600082601f83011261278e57600080fd5b81356001600160401b038111156127a7576127a7612737565b6127ba601f8201601f191660200161274d565b8181528460208386010111156127cf57600080fd5b816020850160208301376000918101602001919091529392505050565b6000806000806080858703121561280257600080fd5b843593506020808601356001600160401b038082111561282157600080fd5b818801915088601f83011261283557600080fd5b81358181111561284757612847612737565b8060051b61285685820161274d565b918252838101850191858101908c84111561287057600080fd5b948601945b8386101561289557612886866125c3565b82529486019490860190612875565b98505050506040880135945060608801359250808311156128b557600080fd5b50506128c38782880161277d565b91505092959194509250565b600080604083850312156128e257600080fd5b6128eb836125c3565b915060208301356001600160401b0381111561290657600080fd5b6129128582860161277d565b9150509250929050565b6020808252825182820181905260009190848201906040850190845b8181101561295457835183529284019291840191600101612938565b50909695505050505050565b634e487b7160e01b600052602160045260246000fd5b6006811061299457634e487b7160e01b600052602160045260246000fd5b9052565b6129a3828251612976565b60006020820151608060208501526129be6080850182612694565b6040848101516001600160a01b03908116918701919091526060948501511693909401929092525090919050565b602081526000611f5d6020830184612998565b60008060408385031215612a1257600080fd5b8235915061272e602084016125c3565b600060208083016020845280855180835260408601915060408160051b87010192506020870160005b82811015612a7957603f19888603018452612a67858351612998565b94509285019290850190600101612a4b565b5092979650505050505050565b60008060208385031215612a9957600080fd5b82356001600160401b0380821115612ab057600080fd5b818501915085601f830112612ac457600080fd5b813581811115612ad357600080fd5b8660208260051b8501011115612ae857600080fd5b60209290920196919550909350505050565b60008151808452602080850194506020840160005b83811015612b345781516001600160a01b031687529582019590820190600101612b0f565b509495945050505050565b602081526000611f5d6020830184612afa565b600080600080600060a08688031215612b6a57600080fd5b85359450602086013593506040860135925060608601356001600160401b0381168114612b9657600080fd5b915060808601358015158114612bab57600080fd5b809150509295509295909350565b600080600060608486031215612bce57600080fd5b612bd7846125c3565b925060208401356001600160401b03811115612bf257600080fd5b612bfe8682870161277d565b925050612c0d604085016126f5565b90509250925092565b602081526000611f5d6020830184612694565b634e487b7160e01b600052603260045260246000fd5b634e487b7160e01b600052601160045260246000fd5b600063ffffffff808316818103612c6e57612c6e612c3f565b6001019392505050565b600181811c90821680612c8c57607f821691505b6020821081036108dc57634e487b7160e01b600052602260045260246000fd5b60208101610ee08284612976565b601f8211156119cf576000816000526020600020601f850160051c81016020861015612ce35750805b601f850160051c820191505b81811015612d0257828155600101612cef565b505050505050565b81516001600160401b03811115612d2357612d23612737565b612d3781612d318454612c78565b84612cba565b602080601f831160018114612d6c5760008415612d545750858301515b600019600386901b1c1916600185901b178555612d02565b600085815260208120601f198616915b82811015612d9b57888601518255948401946001909101908401612d7c565b5085821015612db95787850151600019600388901b60f8161c191681555b5050505050600190811b01905550565b848152608060208201526000612de26080830186612afa565b8460408401528281036060840152612dfa8185612694565b979650505050505050565b60008251612e17818460208701612670565b9190910192915050565b6000808354612e2f81612c78565b60018281168015612e475760018114612e5c57612e8b565b60ff1984168752821515830287019450612e8b565b8760005260208060002060005b85811015612e825781548a820152908401908201612e69565b50505082870194505b50929695505050505050565b81810381811115610ee057610ee0612c3f565b634e487b7160e01b600052603160045260246000fd5b604081526000612ed36040830185612694565b9050611f5d602083018461297656","linkReferences":{}},"methodIdentifiers":{"__OperatorRegistry_init(address[])":"ba428b1a","allocateStream(bytes32,address[],bytes32,bytes)":"6b883c39","approveOperator(address)":"242cae9f","getAllNodeAddresses()":"c8fe3a01","getAllNodes()":"a1174e7d","getAllStreamIds()":"86789fc6","getAllStreams()":"3bd84c0c","getNode(address)":"9d209048","getNodeCount()":"39bf397e","getStream(bytes32)":"1290abe8","getStreamCount()":"c0f22084","getStreamWithGenesis(bytes32)":"3c2544d1","getStreamsOnNode(address)":"32705ac4","isOperator(address)":"6d70f7ae","placeStreamOnNode(bytes32,address)":"9ee86d38","registerNode(address,string,uint8)":"eecc66f4","removeNode(address)":"b2b99ec9","removeOperator(address)":"ac8a584a","removeStreamFromNode(bytes32,address)":"ee885b12","setStreamLastMiniblock(bytes32,bytes32,bytes32,uint64,bool)":"d7a3158a","updateNodeStatus(address,uint8)":"581f8b9b","updateNodeUrl(address,string)":"7e4465e7"},"id":290}