{"abi":[{"type":"constructor","inputs":[{"name":"approvedOperators","type":"address[]","internalType":"address[]"}],"stateMutability":"nonpayable"},{"type":"function","name":"__OperatorRegistry_init","inputs":[{"name":"initialOperators","type":"address[]","internalType":"address[]"}],"outputs":[],"stateMutability":"nonpayable"},{"type":"function","name":"allocateStream","inputs":[{"name":"streamId","type":"bytes32","internalType":"bytes32"},{"name":"nodes","type":"address[]","internalType":"address[]"},{"name":"genesisMiniblockHash","type":"bytes32","internalType":"bytes32"},{"name":"genesisMiniblock","type":"bytes","internalType":"bytes"}],"outputs":[],"stateMutability":"nonpayable"},{"type":"function","name":"approveOperator","inputs":[{"name":"operator","type":"address","internalType":"address"}],"outputs":[],"stateMutability":"nonpayable"},{"type":"function","name":"getAllNodeAddresses","inputs":[],"outputs":[{"name":"","type":"address[]","internalType":"address[]"}],"stateMutability":"view"},{"type":"function","name":"getAllNodes","inputs":[],"outputs":[{"name":"","type":"tuple[]","internalType":"struct Node[]","components":[{"name":"status","type":"uint8","internalType":"enum NodeStatus"},{"name":"url","type":"string","internalType":"string"},{"name":"nodeAddress","type":"address","internalType":"address"},{"name":"operator","type":"address","internalType":"address"}]}],"stateMutability":"view"},{"type":"function","name":"getAllStreamIds","inputs":[],"outputs":[{"name":"","type":"bytes32[]","internalType":"bytes32[]"}],"stateMutability":"view"},{"type":"function","name":"getAllStreams","inputs":[],"outputs":[{"name":"","type":"tuple[]","internalType":"struct StreamWithId[]","components":[{"name":"id","type":"bytes32","internalType":"bytes32"},{"name":"stream","type":"tuple","internalType":"struct Stream","components":[{"name":"lastMiniblockHash","type":"bytes32","internalType":"bytes32"},{"name":"lastMiniblockNum","type":"uint64","internalType":"uint64"},{"name":"reserved0","type":"uint64","internalType":"uint64"},{"name":"flags","type":"uint64","internalType":"uint64"},{"name":"nodes","type":"address[]","internalType":"address[]"}]}]}],"stateMutability":"view"},{"type":"function","name":"getNode","inputs":[{"name":"nodeAddress","type":"address","internalType":"address"}],"outputs":[{"name":"","type":"tuple","internalType":"struct Node","components":[{"name":"status","type":"uint8","internalType":"enum NodeStatus"},{"name":"url","type":"string","internalType":"string"},{"name":"nodeAddress","type":"address","internalType":"address"},{"name":"operator","type":"address","internalType":"address"}]}],"stateMutability":"view"},{"type":"function","name":"getNodeCount","inputs":[],"outputs":[{"name":"","type":"uint256","internalType":"uint256"}],"stateMutability":"view"},{"type":"function","name":"getStream","inputs":[{"name":"streamId","type":"bytes32","internalType":"bytes32"}],"outputs":[{"name":"","type":"tuple","internalType":"struct Stream","components":[{"name":"lastMiniblockHash","type":"bytes32","internalType":"bytes32"},{"name":"lastMiniblockNum","type":"uint64","internalType":"uint64"},{"name":"reserved0","type":"uint64","internalType":"uint64"},{"name":"flags","type":"uint64","internalType":"uint64"},{"name":"nodes","type":"address[]","internalType":"address[]"}]}],"stateMutability":"view"},{"type":"function","name":"getStreamCount","inputs":[],"outputs":[{"name":"","type":"uint256","internalType":"uint256"}],"stateMutability":"view"},{"type":"function","name":"getStreamWithGenesis","inputs":[{"name":"streamId","type":"bytes32","internalType":"bytes32"}],"outputs":[{"name":"","type":"tuple","internalType":"struct Stream","components":[{"name":"lastMiniblockHash","type":"bytes32","internalType":"bytes32"},{"name":"lastMiniblockNum","type":"uint64","internalType":"uint64"},{"name":"reserved0","type":"uint64","internalType":"uint64"},{"name":"flags","type":"uint64","internalType":"uint64"},{"name":"nodes","type":"address[]","internalType":"address[]"}]},{"name":"","type":"bytes32","internalType":"bytes32"},{"name":"","type":"bytes","internalType":"bytes"}],"stateMutability":"view"},{"type":"function","name":"getStreamsOnNode","inputs":[{"name":"nodeAddress","type":"address","internalType":"address"}],"outputs":[{"name":"","type":"tuple[]","internalType":"struct StreamWithId[]","components":[{"name":"id","type":"bytes32","internalType":"bytes32"},{"name":"stream","type":"tuple","internalType":"struct Stream","components":[{"name":"lastMiniblockHash","type":"bytes32","internalType":"bytes32"},{"name":"lastMiniblockNum","type":"uint64","internalType":"uint64"},{"name":"reserved0","type":"uint64","internalType":"uint64"},{"name":"flags","type":"uint64","internalType":"uint64"},{"name":"nodes","type":"address[]","internalType":"address[]"}]}]}],"stateMutability":"view"},{"type":"function","name":"isOperator","inputs":[{"name":"operator","type":"address","internalType":"address"}],"outputs":[{"name":"","type":"bool","internalType":"bool"}],"stateMutability":"view"},{"type":"function","name":"placeStreamOnNode","inputs":[{"name":"streamId","type":"bytes32","internalType":"bytes32"},{"name":"nodeAddress","type":"address","internalType":"address"}],"outputs":[],"stateMutability":"nonpayable"},{"type":"function","name":"registerNode","inputs":[{"name":"nodeAddress","type":"address","internalType":"address"},{"name":"url","type":"string","internalType":"string"},{"name":"status","type":"uint8","internalType":"enum NodeStatus"}],"outputs":[],"stateMutability":"nonpayable"},{"type":"function","name":"removeNode","inputs":[{"name":"nodeAddress","type":"address","internalType":"address"}],"outputs":[],"stateMutability":"nonpayable"},{"type":"function","name":"removeOperator","inputs":[{"name":"operator","type":"address","internalType":"address"}],"outputs":[],"stateMutability":"nonpayable"},{"type":"function","name":"removeStreamFromNode","inputs":[{"name":"streamId","type":"bytes32","internalType":"bytes32"},{"name":"nodeAddress","type":"address","internalType":"address"}],"outputs":[],"stateMutability":"nonpayable"},{"type":"function","name":"setStreamLastMiniblock","inputs":[{"name":"streamId","type":"bytes32","internalType":"bytes32"},{"name":"prevMiniBlockHash","type":"bytes32","internalType":"bytes32"},{"name":"lastMiniblockHash","type":"bytes32","internalType":"bytes32"},{"name":"lastMiniblockNum","type":"uint64","internalType":"uint64"},{"name":"isSealed","type":"bool","internalType":"bool"}],"outputs":[],"stateMutability":"nonpayable"},{"type":"function","name":"updateNodeStatus","inputs":[{"name":"nodeAddress","type":"address","internalType":"address"},{"name":"status","type":"uint8","internalType":"enum NodeStatus"}],"outputs":[],"stateMutability":"nonpayable"},{"type":"function","name":"updateNodeUrl","inputs":[{"name":"nodeAddress","type":"address","internalType":"address"},{"name":"url","type":"string","internalType":"string"}],"outputs":[],"stateMutability":"nonpayable"},{"type":"event","name":"Initialized","inputs":[{"name":"version","type":"uint32","indexed":false,"internalType":"uint32"}],"anonymous":false},{"type":"event","name":"InterfaceAdded","inputs":[{"name":"interfaceId","type":"bytes4","indexed":true,"internalType":"bytes4"}],"anonymous":false},{"type":"event","name":"InterfaceRemoved","inputs":[{"name":"interfaceId","type":"bytes4","indexed":true,"internalType":"bytes4"}],"anonymous":false},{"type":"event","name":"NodeAdded","inputs":[{"name":"nodeAddress","type":"address","indexed":true,"internalType":"address"},{"name":"url","type":"string","indexed":false,"internalType":"string"},{"name":"status","type":"uint8","indexed":false,"internalType":"enum NodeStatus"}],"anonymous":false},{"type":"event","name":"NodeRemoved","inputs":[{"name":"nodeAddress","type":"address","indexed":true,"internalType":"address"}],"anonymous":false},{"type":"event","name":"NodeStatusUpdated","inputs":[{"name":"nodeAddress","type":"address","indexed":true,"internalType":"address"},{"name":"status","type":"uint8","indexed":false,"internalType":"enum NodeStatus"}],"anonymous":false},{"type":"event","name":"NodeUrlUpdated","inputs":[{"name":"nodeAddress","type":"address","indexed":true,"internalType":"address"},{"name":"url","type":"string","indexed":false,"internalType":"string"}],"anonymous":false},{"type":"event","name":"OperatorAdded","inputs":[{"name":"operatorAddress","type":"address","indexed":true,"internalType":"address"}],"anonymous":false},{"type":"event","name":"OperatorRemoved","inputs":[{"name":"operatorAddress","type":"address","indexed":true,"internalType":"address"}],"anonymous":false},{"type":"event","name":"OwnershipTransferred","inputs":[{"name":"previousOwner","type":"address","indexed":true,"internalType":"address"},{"name":"newOwner","type":"address","indexed":true,"internalType":"address"}],"anonymous":false},{"type":"event","name":"StreamAllocated","inputs":[{"name":"streamId","type":"bytes32","indexed":false,"internalType":"bytes32"},{"name":"nodes","type":"address[]","indexed":false,"internalType":"address[]"},{"name":"genesisMiniblockHash","type":"bytes32","indexed":false,"internalType":"bytes32"},{"name":"genesisMiniblock","type":"bytes","indexed":false,"internalType":"bytes"}],"anonymous":false},{"type":"event","name":"StreamLastMiniblockUpdated","inputs":[{"name":"streamId","type":"bytes32","indexed":false,"internalType":"bytes32"},{"name":"lastMiniblockHash","type":"bytes32","indexed":false,"internalType":"bytes32"},{"name":"lastMiniblockNum","type":"uint64","indexed":false,"internalType":"uint64"},{"name":"isSealed","type":"bool","indexed":false,"internalType":"bool"}],"anonymous":false},{"type":"event","name":"StreamPlacementUpdated","inputs":[{"name":"streamId","type":"bytes32","indexed":false,"internalType":"bytes32"},{"name":"nodeAddress","type":"address","indexed":false,"internalType":"address"},{"name":"isAdded","type":"bool","indexed":false,"internalType":"bool"}],"anonymous":false},{"type":"error","name":"Initializable_InInitializingState","inputs":[]},{"type":"error","name":"Initializable_NotInInitializingState","inputs":[]},{"type":"error","name":"Introspection_AlreadySupported","inputs":[]},{"type":"error","name":"Introspection_NotSupported","inputs":[]},{"type":"error","name":"Ownable__NotOwner","inputs":[{"name":"account","type":"address","internalType":"address"}]},{"type":"error","name":"Ownable__ZeroAddress","inputs":[]}],"bytecode":{"object":"0x60806040523480156200001157600080fd5b50604051620034ba380380620034ba83398101604081905262000034916200038a565b6200003e62000094565b62000049336200013c565b60005b81518110156200008c57620000838282815181106200006f576200006f6200045c565b6020026020010151620001e860201b60201c565b6001016200004c565b5050620004c3565b7f2d0d21306acfe8e9bb163a4573e95aff6cef95dc1102c6a16d5f19eac08cc4de8054640100000000900460ff1615620000e1576040516366008a2d60e01b815260040160405180910390fd5b805463ffffffff90811610156200013957805463ffffffff191663ffffffff90811782556040519081527fe9c9b456cb2994b80aeef036cf59d26e9617df80f816a6ee5a5b4166e07e2f5c9060200160405180910390a15b50565b60006200015f6000805160206200349a833981519152546001600160a01b031690565b90506001600160a01b0382166200018957604051634e3ef82560e01b815260040160405180910390fd5b816000805160206200349a83398151915280546001600160a01b0319166001600160a01b03928316179055604051838216918316907f8be0079c531659141344cd1fd0a4f28419497f9722a3daafe3b4186f6b6457e090600090a35050565b6001600160a01b038116620002375760408051808201825260078152664241445f41524760c81b6020820152905162461bcd60e51b81526200022e919060040162000472565b60405180910390fd5b62000244600882620002cd565b156200028857604080518082018252600e81526d414c52454144595f45584953545360901b6020820152905162461bcd60e51b81526200022e919060040162000472565b62000295600882620002f4565b506040516001600160a01b038216907fac6fa858e9350a46cec16539926e0fde25b7629f84b5a72bffaae4df888ae86d90600090a250565b6001600160a01b038116600090815260018301602052604081205415155b90505b92915050565b6000620002eb836001600160a01b03841660008181526001830160205260408120546200034e57508154600181810184556000848152602080822090930184905584548482528286019093526040902091909155620002ee565b506000620002ee565b634e487b7160e01b600052604160045260246000fd5b80516001600160a01b03811681146200038557600080fd5b919050565b600060208083850312156200039e57600080fd5b82516001600160401b0380821115620003b657600080fd5b818501915085601f830112620003cb57600080fd5b815181811115620003e057620003e062000357565b8060051b604051601f19603f8301168101818110858211171562000408576200040862000357565b6040529182528482019250838101850191888311156200042757600080fd5b938501935b82851015620004505762000440856200036d565b845293850193928501926200042c565b98975050505050505050565b634e487b7160e01b600052603260045260246000fd5b60006020808352835180602085015260005b81811015620004a25785810183015185820160400152820162000484565b506000604082860101526040601f19601f8301168501019250505092915050565b612fc780620004d36000396000f3fe608060405234801561001057600080fd5b50600436106101425760003560e01c80639d209048116100b8578063ba428b1a1161007c578063ba428b1a146102c4578063c0f22084146102d7578063c8fe3a01146102df578063d7a3158a146102f4578063ee885b1214610307578063eecc66f41461031a57600080fd5b80639d209048146102565780639ee86d3814610276578063a1174e7d14610289578063ac8a584a1461029e578063b2b99ec9146102b157600080fd5b80633c2544d11161010a5780633c2544d1146101c3578063581f8b9b146101e55780636b883c39146101f85780636d70f7ae1461020b5780637e4465e71461022e57806386789fc61461024157600080fd5b80631290abe814610147578063242cae9f1461017057806332705ac41461018557806339bf397e146101a55780633bd84c0c146101bb575b600080fd5b61015a6101553660046125cb565b61032d565b6040516101679190612675565b60405180910390f35b61018361017e3660046126a4565b610458565b005b6101986101933660046126a4565b6104b0565b60405161016791906126bf565b6101ad610760565b604051908152602001610167565b610198610771565b6101d66101d13660046125cb565b6108e2565b60405161016793929190612785565b6101836101f33660046127c9565b610ab3565b6101836102063660046128b1565b610c84565b61021e6102193660046126a4565b610ed3565b6040519015158152602001610167565b61018361023c366004612994565b610ee6565b61024961110f565b60405161016791906129e1565b6102696102643660046126a4565b61111b565b6040516101679190612ab1565b610183610284366004612ac4565b61129c565b61029161143f565b6040516101679190612ae7565b6101836102ac3660046126a4565b611613565b6101836102bf3660046126a4565b611787565b6101836102d2366004612b4b565b611943565b6101ad6119d4565b6102e76119df565b6040516101679190612c04565b610183610302366004612c17565b6119eb565b610183610315366004612ac4565b611c1e565b610183610328366004612c7e565b611e50565b6040805160a08101825260008082526020820181905291810182905260608082018390526080820152906103619083612007565b6103a55760408051808201825260098152681393d517d193d5539160ba1b6020820152905162461bcd60e51b815261039c9190600401612cdb565b60405180910390fd5b600082815260026020818152604092839020835160a0810185528154815260018201546001600160401b0380821683860152600160401b8204811683880152600160801b909104166060820152928101805485518185028101850190965280865293949193608086019383018282801561044857602002820191906000526020600020905b81546001600160a01b0316815260019091019060200180831161042a575b5050505050815250509050919050565b7fa7c3be20e3a76821507555109752fad8a6630ef0362a34dcfcdfef83c99a2537546001600160a01b031633146104a4576040516365f4906560e01b815233600482015260240161039c565b6104ad81612022565b50565b606060006104bd816120f4565b6001600160401b038111156104d4576104d46127fc565b6040519080825280602002602001820160405280156104fd578160200160208202803683370190505b5090506000805b61050e60006120f4565b8110156105c357600061052181836120fe565b60008181526002602052604081209192505b60028201548110156105b557876001600160a01b031682600201828154811061055e5761055e612cee565b6000918252602090912001546001600160a01b0316036105ad5782868661058481612d1a565b975063ffffffff168151811061059c5761059c612cee565b6020026020010181815250506105b5565b600101610533565b505050806001019050610504565b5060008163ffffffff166001600160401b038111156105e4576105e46127fc565b60405190808252806020026020018201604052801561061d57816020015b61060a6124d1565b8152602001906001900390816106025790505b50905060005b8263ffffffff1681101561075757604051806040016040528085838151811061064e5761064e612cee565b602002602001015181526020016000600201600087858151811061067457610674612cee565b6020908102919091018101518252818101929092526040908101600020815160a0810183528154815260018201546001600160401b0380821683870152600160401b8204811683860152600160801b90910416606082015260028201805484518187028101870190955280855291949293608086019390929083018282801561072657602002820191906000526020600020905b81546001600160a01b03168152600190910190602001808311610708575b50505050508152505081525082828151811061074457610744612cee565b6020908102919091010152600101610623565b50949350505050565b600061076c60056120f4565b905090565b6060600061077e816120f4565b6001600160401b03811115610795576107956127fc565b6040519080825280602002602001820160405280156107ce57816020015b6107bb6124d1565b8152602001906001900390816107b35790505b50905060005b6107de60006120f4565b8110156108dc5760006107f181836120fe565b60408051808201825282815260008381526002602081815291849020845160a0810186528154815260018201546001600160401b0380821683870152600160401b8204811683890152600160801b90910416606082015291810180548651818602810186019097528087529697509395838701959294919360808601939291908301828280156108aa57602002820191906000526020600020905b81546001600160a01b0316815260019091019060200180831161088c575b5050505050815250508152508383815181106108c8576108c8612cee565b6020908102919091010152506001016107d4565b50919050565b6040805160a08101825260008082526020820181905291810182905260608082018390526080820181905290919061091a8285612007565b6109555760408051808201825260098152681393d517d193d5539160ba1b6020820152905162461bcd60e51b815261039c9190600401612cdb565b600084815260026020818152604080842060048352818520546003845294829020825160a0810184528254815260018301546001600160401b0380821683880152600160401b8204811683870152600160801b90910416606082015294820180548451818702810187019095528085529296959194919387936080860193919291830182828015610a0f57602002820191906000526020600020905b81546001600160a01b031681526001909101906020018083116109f1575b5050505050815250509250808054610a2690612d3d565b80601f0160208091040260200160405190810160405280929190818152602001828054610a5290612d3d565b8015610a9f5780601f10610a7457610100808354040283529160200191610a9f565b820191906000526020600020905b815481529060010190602001808311610a8257829003601f168201915b505050505090509250925092509193909250565b81610abf60058261210a565b610af95760408051808201825260088152670848288be82aaa8960c31b6020820152905162461bcd60e51b815261039c9190600401612cdb565b33610b0560088261210a565b610b3f5760408051808201825260088152670848288be82aaa8960c31b6020820152905162461bcd60e51b815261039c9190600401612cdb565b6001600160a01b0380851660009081526007602052604090206003015485913391168114610b9d5760408051808201825260088152670848288be82aaa8960c31b6020820152905162461bcd60e51b815261039c9190600401612cdb565b610ba860058761210a565b610be857604080518082018252600e81526d1393d11157d393d517d193d5539160921b6020820152905162461bcd60e51b815261039c9190600401612cdb565b6001600160a01b03861660009081526007602052604090208054610c0f9060ff168761212c565b80548690829060ff19166001836005811115610c2d57610c2d612a25565b021790555060028101546040516001600160a01b03909116907f20891cc7622c7951cbd8c70c61a5201eb45625b8c00e8f6c986cfca78f3dbfa090610c73908990612d71565b60405180910390a250505050505050565b33610c9060058261210a565b610cca5760408051808201825260088152670848288be82aaa8960c31b6020820152905162461bcd60e51b815261039c9190600401612cdb565b610cd5600086612007565b15610d1657604080518082018252600e81526d414c52454144595f45584953545360901b6020820152905162461bcd60e51b815261039c9190600401612cdb565b60005b8451811015610d9a57610d52858281518110610d3757610d37612cee565b6020026020010151600060050161210a90919063ffffffff16565b610d9257604080518082018252600e81526d1393d11157d393d517d193d5539160921b6020820152905162461bcd60e51b815261039c9190600401612cdb565b600101610d19565b506040805160a081018252848152600060208201819052918101829052606081018290526080810186905290610dd090876122bf565b5060008681526002602081815260409283902084518155818501516001820180549587015160608801516001600160401b03908116600160801b0267ffffffffffffffff60801b19928216600160401b026fffffffffffffffffffffffffffffffff19909916919094161796909617959095161790935560808401518051859493610e609390850192019061251b565b5050506000868152600360205260409020610e7b8482612dcf565b5060008681526004602052604090819020859055517f55ef7efc60ef99743e54209752c9a8e047e013917ec91572db75875069dd65bb90610ec3908890889088908890612e8e565b60405180910390a1505050505050565b6000610ee060088361210a565b92915050565b33610ef260088261210a565b610f2c5760408051808201825260088152670848288be82aaa8960c31b6020820152905162461bcd60e51b815261039c9190600401612cdb565b82610f3860058261210a565b610f725760408051808201825260088152670848288be82aaa8960c31b6020820152905162461bcd60e51b815261039c9190600401612cdb565b6001600160a01b0380851660009081526007602052604090206003015485913391168114610fd05760408051808201825260088152670848288be82aaa8960c31b6020820152905162461bcd60e51b815261039c9190600401612cdb565b610fdb60058761210a565b61101b57604080518082018252600e81526d1393d11157d393d517d193d5539160921b6020820152905162461bcd60e51b815261039c9190600401612cdb565b6001600160a01b038616600090815260076020908152604091829020915161104591889101612eca565b604051602081830303815290604052805190602001208160010160405160200161106f9190612ee6565b60405160208183030381529060405280519060200120036110bf5760408051808201825260078152664241445f41524760c81b6020820152905162461bcd60e51b815261039c9190600401612cdb565b600181016110cd8782612dcf565b5060028101546040516001600160a01b03909116907f4505168a8705a16fd4d0575197fd0f510db69df93a065e158ad2c0957ba12bac90610c73908990612cdb565b606061076c60006122cb565b6111466040805160808101909152806000815260606020820181905260006040830181905291015290565b61115160058361210a565b61119157604080518082018252600e81526d1393d11157d393d517d193d5539160921b6020820152905162461bcd60e51b815261039c9190600401612cdb565b6001600160a01b038216600090815260076020526040908190208151608081019092528054829060ff1660058111156111cc576111cc612a25565b60058111156111dd576111dd612a25565b81526020016001820180546111f190612d3d565b80601f016020809104026020016040519081016040528092919081815260200182805461121d90612d3d565b801561126a5780601f1061123f5761010080835404028352916020019161126a565b820191906000526020600020905b81548152906001019060200180831161124d57829003601f168201915b505050918352505060028201546001600160a01b03908116602083015260039092015490911660409091015292915050565b816112a8600082612007565b6112e35760408051808201825260098152681393d517d193d5539160ba1b6020820152905162461bcd60e51b815261039c9190600401612cdb565b816112ef60058261210a565b6113295760408051808201825260088152670848288be82aaa8960c31b6020820152905162461bcd60e51b815261039c9190600401612cdb565b6000848152600260205260408120905b60028201548110156113c257846001600160a01b031682600201828154811061136457611364612cee565b6000918252602090912001546001600160a01b0316036113ba57604080518082018252600e81526d414c52454144595f45584953545360901b6020820152905162461bcd60e51b815261039c9190600401612cdb565b600101611339565b5060028101805460018082018355600092835260209283902090910180546001600160a01b0319166001600160a01b03881690811790915560408051898152938401919091528201527faaa473c28a5fe04b6a7ecd795826e462f9d0c23f00ef9f51ec02fa6ea418806f9060600160405180910390a15050505050565b6060600061144d60056120f4565b6001600160401b03811115611464576114646127fc565b6040519080825280602002602001820160405280156114c057816020015b6114ad6040805160808101909152806000815260606020820181905260006040830181905291015290565b8152602001906001900390816114825790505b50905060005b6114d060056120f4565b8110156108dc57600760006114e66005846120fe565b6001600160a01b03168152602081019190915260409081016000208151608081019092528054829060ff16600581111561152257611522612a25565b600581111561153357611533612a25565b815260200160018201805461154790612d3d565b80601f016020809104026020016040519081016040528092919081815260200182805461157390612d3d565b80156115c05780601f10611595576101008083540402835291602001916115c0565b820191906000526020600020905b8154815290600101906020018083116115a357829003601f168201915b505050918352505060028201546001600160a01b039081166020830152600390920154909116604090910152825183908390811061160057611600612cee565b60209081029190910101526001016114c6565b7fa7c3be20e3a76821507555109752fad8a6630ef0362a34dcfcdfef83c99a2537546001600160a01b0316331461165f576040516365f4906560e01b815233600482015260240161039c565b61166a60088261210a565b6116ae57604080518082018252601281527113d41154905513d497d393d517d193d5539160721b6020820152905162461bcd60e51b815261039c9190600401612cdb565b60005b6116bb60056120f4565b811015611743576001600160a01b038216600760006116db6005856120fe565b6001600160a01b039081168252602082019290925260400160002060030154160361173b57604080518082018252600d81526c4f55545f4f465f424f554e445360981b6020820152905162461bcd60e51b815261039c9190600401612cdb565b6001016116b1565b5061174f6008826122d8565b506040516001600160a01b038216907f80c0b871b97b595b16a7741c1b06fed0c6f6f558639f18ccbce50724325dc40d90600090a250565b6001600160a01b03808216600090815260076020526040902060030154829133911681146117e55760408051808201825260088152670848288be82aaa8960c31b6020820152905162461bcd60e51b815261039c9190600401612cdb565b6117f060058461210a565b61183057604080518082018252600e81526d1393d11157d393d517d193d5539160921b6020820152905162461bcd60e51b815261039c9190600401612cdb565b60056001600160a01b03841660009081526007602052604090205460ff16600581111561185f5761185f612a25565b14604051806040016040528060168152602001751393d11157d4d510551157d393d517d0531313d5d15160521b815250906118ad5760405162461bcd60e51b815260040161039c9190612cdb565b506118b96005846122d8565b506001600160a01b0383166000908152600760205260408120805460ff19168155906118e86001830182612580565b506002810180546001600160a01b03199081169091556003909101805490911690556040516001600160a01b038416907fcfc24166db4bb677e857cacabd1541fb2b30645021b27c5130419589b84db52b90600090a2505050565b7f2d0d21306acfe8e9bb163a4573e95aff6cef95dc1102c6a16d5f19eac08cc4de54640100000000900460ff1661198d57604051630ef4733760e31b815260040160405180910390fd5b60005b818110156119cf576119c78383838181106119ad576119ad612cee565b90506020020160208101906119c291906126a4565b612022565b600101611990565b505050565b600061076c816120f4565b606061076c60056122cb565b336119f760058261210a565b611a315760408051808201825260088152670848288be82aaa8960c31b6020820152905162461bcd60e51b815261039c9190600401612cdb565b611a3c600087612007565b611a775760408051808201825260098152681393d517d193d5539160ba1b6020820152905162461bcd60e51b815261039c9190600401612cdb565b6000868152600260205260409020600180820154600160801b90041615611ad357604080518082018252600d81526c14d51491505357d4d150531151609a1b6020820152905162461bcd60e51b815261039c9190600401612cdb565b6001808201546001600160401b0380871692611af29290911690612f5c565b6001600160401b0316141580611b09575080548614155b15611b435760408051808201825260078152664241445f41524760c81b6020820152905162461bcd60e51b815261039c9190600401612cdb565b84815560018101805467ffffffffffffffff19166001600160401b0386161790558215611b9d576001818101805467ffffffffffffffff60801b198116600160801b918290046001600160401b0316909317029190911790555b836001600160401b0316600103611bc5576000878152600360205260408120611bc591612580565b60408051888152602081018790526001600160401b03861681830152841515606082015290517fccc26bbb6dd655ea0bb8a40a3c30e35c6bdf42f8faf0d71bbea897af768cda8b9181900360800190a150505050505050565b81611c2a600082612007565b611c655760408051808201825260098152681393d517d193d5539160ba1b6020820152905162461bcd60e51b815261039c9190600401612cdb565b81611c7160058261210a565b611cab5760408051808201825260088152670848288be82aaa8960c31b6020820152905162461bcd60e51b815261039c9190600401612cdb565b600084815260026020526040812090805b6002830154811015611dc557856001600160a01b0316836002018281548110611ce757611ce7612cee565b6000918252602090912001546001600160a01b031603611dbd57600283018054611d1390600190612f7c565b81548110611d2357611d23612cee565b6000918252602090912001546002840180546001600160a01b039092169183908110611d5157611d51612cee565b9060005260206000200160006101000a8154816001600160a01b0302191690836001600160a01b0316021790555082600201805480611d9257611d92612f8f565b600082815260209020810160001990810180546001600160a01b031916905501905560019150611dc5565b600101611cbc565b5080611e0757604080518082018252600e81526d1393d11157d393d517d193d5539160921b6020820152905162461bcd60e51b815261039c9190600401612cdb565b604080518781526001600160a01b03871660208201526000918101919091527faaa473c28a5fe04b6a7ecd795826e462f9d0c23f00ef9f51ec02fa6ea418806f90606001610ec3565b33611e5c60088261210a565b611e965760408051808201825260088152670848288be82aaa8960c31b6020820152905162461bcd60e51b815261039c9190600401612cdb565b611ea160058561210a565b15611ee257604080518082018252600e81526d414c52454144595f45584953545360901b6020820152905162461bcd60e51b815261039c9190600401612cdb565b60006040518060800160405280846005811115611f0157611f01612a25565b8152602081018690526001600160a01b0387166040820152336060909101529050611f2d6005866122ed565b506001600160a01b03851660009081526007602052604090208151815483929190829060ff19166001836005811115611f6857611f68612a25565b021790555060208201516001820190611f819082612dcf565b506040828101516002830180546001600160a01b03199081166001600160a01b039384161790915560609094015160039093018054909416928116929092179092559051908616907fd6f3629b08191adb8308c3a65d5f8803b7f8f3e359c433fa7ae623276635e56190611ff89087908790612fa5565b60405180910390a25050505050565b600081815260018301602052604081205415155b9392505050565b6001600160a01b0381166120655760408051808201825260078152664241445f41524760c81b6020820152905162461bcd60e51b815261039c9190600401612cdb565b61207060088261210a565b156120b157604080518082018252600e81526d414c52454144595f45584953545360901b6020820152905162461bcd60e51b815261039c9190600401612cdb565b6120bc6008826122ed565b506040516001600160a01b038216907fac6fa858e9350a46cec16539926e0fde25b7629f84b5a72bffaae4df888ae86d90600090a250565b6000610ee0825490565b600061201b8383612302565b6001600160a01b0381166000908152600183016020526040812054151561201b565b600082600581111561214057612140612a25565b14806121945750600182600581111561215b5761215b612a25565b1480156121945750600381600581111561217757612177612a25565b14806121945750600481600581111561219257612192612a25565b145b806121e7575060028260058111156121ae576121ae612a25565b1480156121e7575060038160058111156121ca576121ca612a25565b14806121e7575060048160058111156121e5576121e5612a25565b145b8061223a5750600482600581111561220157612201612a25565b14801561223a5750600381600581111561221d5761221d612a25565b148061223a5750600581600581111561223857612238612a25565b145b806122725750600382600581111561225457612254612a25565b1480156122725750600581600581111561227057612270612a25565b145b1561227b575050565b60408051808201825260168152751393d11157d4d510551157d393d517d0531313d5d15160521b6020820152905162461bcd60e51b815261039c9190600401612cdb565b600061201b838361232c565b6060600061201b8361237b565b600061201b836001600160a01b0384166123d7565b600061201b836001600160a01b03841661232c565b600082600001828154811061231957612319612cee565b9060005260206000200154905092915050565b600081815260018301602052604081205461237357508154600181810184556000848152602080822090930184905584548482528286019093526040902091909155610ee0565b506000610ee0565b6060816000018054806020026020016040519081016040528092919081815260200182805480156123cb57602002820191906000526020600020905b8154815260200190600101908083116123b7575b50505050509050919050565b600081815260018301602052604081205480156124c05760006123fb600183612f7c565b855490915060009061240f90600190612f7c565b905080821461247457600086600001828154811061242f5761242f612cee565b906000526020600020015490508087600001848154811061245257612452612cee565b6000918252602080832090910192909255918252600188019052604090208390555b855486908061248557612485612f8f565b600190038181906000526020600020016000905590558560010160008681526020019081526020016000206000905560019350505050610ee0565b6000915050610ee0565b5092915050565b6040805180820190915260008152602081016125166040805160a081018252600080825260208201819052918101829052606080820192909252608081019190915290565b905290565b828054828255906000526020600020908101928215612570579160200282015b8281111561257057825182546001600160a01b0319166001600160a01b0390911617825560209092019160019091019061253b565b5061257c9291506125b6565b5090565b50805461258c90612d3d565b6000825580601f1061259c575050565b601f0160209004906000526020600020908101906104ad91905b5b8082111561257c57600081556001016125b7565b6000602082840312156125dd57600080fd5b5035919050565b600060a08301825184526020808401516001600160401b0380821660208801528060408701511660408801528060608701511660608801525050608084015160a0608087015282815180855260c088019150602083019450600092505b8083101561266a5784516001600160a01b03168252938301936001929092019190830190612641565b509695505050505050565b60208152600061201b60208301846125e4565b80356001600160a01b038116811461269f57600080fd5b919050565b6000602082840312156126b657600080fd5b61201b82612688565b600060208083018184528085518083526040925060408601915060408160051b87010184880160005b8381101561272757888303603f19018552815180518452870151878401879052612714878501826125e4565b95880195935050908601906001016126e8565b509098975050505050505050565b60005b83811015612750578181015183820152602001612738565b50506000910152565b60008151808452612771816020860160208601612735565b601f01601f19169290920160200192915050565b60608152600061279860608301866125e4565b84602084015282810360408401526127b08185612759565b9695505050505050565b80356006811061269f57600080fd5b600080604083850312156127dc57600080fd5b6127e583612688565b91506127f3602084016127ba565b90509250929050565b634e487b7160e01b600052604160045260246000fd5b604051601f8201601f191681016001600160401b038111828210171561283a5761283a6127fc565b604052919050565b600082601f83011261285357600080fd5b81356001600160401b0381111561286c5761286c6127fc565b61287f601f8201601f1916602001612812565b81815284602083860101111561289457600080fd5b816020850160208301376000918101602001919091529392505050565b600080600080608085870312156128c757600080fd5b843593506020808601356001600160401b03808211156128e657600080fd5b818801915088601f8301126128fa57600080fd5b81358181111561290c5761290c6127fc565b8060051b61291b858201612812565b918252838101850191858101908c84111561293557600080fd5b948601945b8386101561295a5761294b86612688565b8252948601949086019061293a565b985050505060408801359450606088013592508083111561297a57600080fd5b505061298887828801612842565b91505092959194509250565b600080604083850312156129a757600080fd5b6129b083612688565b915060208301356001600160401b038111156129cb57600080fd5b6129d785828601612842565b9150509250929050565b6020808252825182820181905260009190848201906040850190845b81811015612a19578351835292840192918401916001016129fd565b50909695505050505050565b634e487b7160e01b600052602160045260246000fd5b60068110612a5957634e487b7160e01b600052602160045260246000fd5b9052565b612a68828251612a3b565b6000602082015160806020850152612a836080850182612759565b6040848101516001600160a01b03908116918701919091526060948501511693909401929092525090919050565b60208152600061201b6020830184612a5d565b60008060408385031215612ad757600080fd5b823591506127f360208401612688565b600060208083016020845280855180835260408601915060408160051b87010192506020870160005b82811015612b3e57603f19888603018452612b2c858351612a5d565b94509285019290850190600101612b10565b5092979650505050505050565b60008060208385031215612b5e57600080fd5b82356001600160401b0380821115612b7557600080fd5b818501915085601f830112612b8957600080fd5b813581811115612b9857600080fd5b8660208260051b8501011115612bad57600080fd5b60209290920196919550909350505050565b60008151808452602080850194506020840160005b83811015612bf95781516001600160a01b031687529582019590820190600101612bd4565b509495945050505050565b60208152600061201b6020830184612bbf565b600080600080600060a08688031215612c2f57600080fd5b85359450602086013593506040860135925060608601356001600160401b0381168114612c5b57600080fd5b915060808601358015158114612c7057600080fd5b809150509295509295909350565b600080600060608486031215612c9357600080fd5b612c9c84612688565b925060208401356001600160401b03811115612cb757600080fd5b612cc386828701612842565b925050612cd2604085016127ba565b90509250925092565b60208152600061201b6020830184612759565b634e487b7160e01b600052603260045260246000fd5b634e487b7160e01b600052601160045260246000fd5b600063ffffffff808316818103612d3357612d33612d04565b6001019392505050565b600181811c90821680612d5157607f821691505b6020821081036108dc57634e487b7160e01b600052602260045260246000fd5b60208101610ee08284612a3b565b601f8211156119cf576000816000526020600020601f850160051c81016020861015612da85750805b601f850160051c820191505b81811015612dc757828155600101612db4565b505050505050565b81516001600160401b03811115612de857612de86127fc565b612dfc81612df68454612d3d565b84612d7f565b602080601f831160018114612e315760008415612e195750858301515b600019600386901b1c1916600185901b178555612dc7565b600085815260208120601f198616915b82811015612e6057888601518255948401946001909101908401612e41565b5085821015612e7e5787850151600019600388901b60f8161c191681555b5050505050600190811b01905550565b848152608060208201526000612ea76080830186612bbf565b8460408401528281036060840152612ebf8185612759565b979650505050505050565b60008251612edc818460208701612735565b9190910192915050565b6000808354612ef481612d3d565b60018281168015612f0c5760018114612f2157612f50565b60ff1984168752821515830287019450612f50565b8760005260208060002060005b85811015612f475781548a820152908401908201612f2e565b50505082870194505b50929695505050505050565b6001600160401b038181168382160190808211156124ca576124ca612d04565b81810381811115610ee057610ee0612d04565b634e487b7160e01b600052603160045260246000fd5b604081526000612fb86040830185612759565b905061201b6020830184612a3b56a7c3be20e3a76821507555109752fad8a6630ef0362a34dcfcdfef83c99a2537","linkReferences":{}},"methodIdentifiers":{"__OperatorRegistry_init(address[])":"ba428b1a","allocateStream(bytes32,address[],bytes32,bytes)":"6b883c39","approveOperator(address)":"242cae9f","getAllNodeAddresses()":"c8fe3a01","getAllNodes()":"a1174e7d","getAllStreamIds()":"86789fc6","getAllStreams()":"3bd84c0c","getNode(address)":"9d209048","getNodeCount()":"39bf397e","getStream(bytes32)":"1290abe8","getStreamCount()":"c0f22084","getStreamWithGenesis(bytes32)":"3c2544d1","getStreamsOnNode(address)":"32705ac4","isOperator(address)":"6d70f7ae","placeStreamOnNode(bytes32,address)":"9ee86d38","registerNode(address,string,uint8)":"eecc66f4","removeNode(address)":"b2b99ec9","removeOperator(address)":"ac8a584a","removeStreamFromNode(bytes32,address)":"ee885b12","setStreamLastMiniblock(bytes32,bytes32,bytes32,uint64,bool)":"d7a3158a","updateNodeStatus(address,uint8)":"581f8b9b","updateNodeUrl(address,string)":"7e4465e7"},"id":46}