{"abi":[{"type":"constructor","inputs":[{"name":"approvedOperators","type":"address[]","internalType":"address[]"}],"stateMutability":"nonpayable"},{"type":"function","name":"__OperatorRegistry_init","inputs":[{"name":"initialOperators","type":"address[]","internalType":"address[]"}],"outputs":[],"stateMutability":"nonpayable"},{"type":"function","name":"allocateStream","inputs":[{"name":"streamId","type":"bytes32","internalType":"bytes32"},{"name":"nodes","type":"address[]","internalType":"address[]"},{"name":"genesisMiniblockHash","type":"bytes32","internalType":"bytes32"},{"name":"genesisMiniblock","type":"bytes","internalType":"bytes"}],"outputs":[],"stateMutability":"nonpayable"},{"type":"function","name":"approveOperator","inputs":[{"name":"operator","type":"address","internalType":"address"}],"outputs":[],"stateMutability":"nonpayable"},{"type":"function","name":"getAllNodeAddresses","inputs":[],"outputs":[{"name":"","type":"address[]","internalType":"address[]"}],"stateMutability":"view"},{"type":"function","name":"getAllNodes","inputs":[],"outputs":[{"name":"","type":"tuple[]","internalType":"struct Node[]","components":[{"name":"status","type":"uint8","internalType":"enum NodeStatus"},{"name":"url","type":"string","internalType":"string"},{"name":"nodeAddress","type":"address","internalType":"address"},{"name":"operator","type":"address","internalType":"address"}]}],"stateMutability":"view"},{"type":"function","name":"getAllStreamIds","inputs":[],"outputs":[{"name":"","type":"bytes32[]","internalType":"bytes32[]"}],"stateMutability":"view"},{"type":"function","name":"getAllStreams","inputs":[],"outputs":[{"name":"","type":"tuple[]","internalType":"struct StreamWithId[]","components":[{"name":"id","type":"bytes32","internalType":"bytes32"},{"name":"stream","type":"tuple","internalType":"struct Stream","components":[{"name":"lastMiniblockHash","type":"bytes32","internalType":"bytes32"},{"name":"lastMiniblockNum","type":"uint64","internalType":"uint64"},{"name":"reserved0","type":"uint64","internalType":"uint64"},{"name":"flags","type":"uint64","internalType":"uint64"},{"name":"nodes","type":"address[]","internalType":"address[]"}]}]}],"stateMutability":"view"},{"type":"function","name":"getNode","inputs":[{"name":"nodeAddress","type":"address","internalType":"address"}],"outputs":[{"name":"","type":"tuple","internalType":"struct Node","components":[{"name":"status","type":"uint8","internalType":"enum NodeStatus"},{"name":"url","type":"string","internalType":"string"},{"name":"nodeAddress","type":"address","internalType":"address"},{"name":"operator","type":"address","internalType":"address"}]}],"stateMutability":"view"},{"type":"function","name":"getNodeCount","inputs":[],"outputs":[{"name":"","type":"uint256","internalType":"uint256"}],"stateMutability":"view"},{"type":"function","name":"getStream","inputs":[{"name":"streamId","type":"bytes32","internalType":"bytes32"}],"outputs":[{"name":"","type":"tuple","internalType":"struct Stream","components":[{"name":"lastMiniblockHash","type":"bytes32","internalType":"bytes32"},{"name":"lastMiniblockNum","type":"uint64","internalType":"uint64"},{"name":"reserved0","type":"uint64","internalType":"uint64"},{"name":"flags","type":"uint64","internalType":"uint64"},{"name":"nodes","type":"address[]","internalType":"address[]"}]}],"stateMutability":"view"},{"type":"function","name":"getStreamCount","inputs":[],"outputs":[{"name":"","type":"uint256","internalType":"uint256"}],"stateMutability":"view"},{"type":"function","name":"getStreamWithGenesis","inputs":[{"name":"streamId","type":"bytes32","internalType":"bytes32"}],"outputs":[{"name":"","type":"tuple","internalType":"struct Stream","components":[{"name":"lastMiniblockHash","type":"bytes32","internalType":"bytes32"},{"name":"lastMiniblockNum","type":"uint64","internalType":"uint64"},{"name":"reserved0","type":"uint64","internalType":"uint64"},{"name":"flags","type":"uint64","internalType":"uint64"},{"name":"nodes","type":"address[]","internalType":"address[]"}]},{"name":"","type":"bytes32","internalType":"bytes32"},{"name":"","type":"bytes","internalType":"bytes"}],"stateMutability":"view"},{"type":"function","name":"getStreamsOnNode","inputs":[{"name":"nodeAddress","type":"address","internalType":"address"}],"outputs":[{"name":"","type":"tuple[]","internalType":"struct StreamWithId[]","components":[{"name":"id","type":"bytes32","internalType":"bytes32"},{"name":"stream","type":"tuple","internalType":"struct Stream","components":[{"name":"lastMiniblockHash","type":"bytes32","internalType":"bytes32"},{"name":"lastMiniblockNum","type":"uint64","internalType":"uint64"},{"name":"reserved0","type":"uint64","internalType":"uint64"},{"name":"flags","type":"uint64","internalType":"uint64"},{"name":"nodes","type":"address[]","internalType":"address[]"}]}]}],"stateMutability":"view"},{"type":"function","name":"isOperator","inputs":[{"name":"operator","type":"address","internalType":"address"}],"outputs":[{"name":"","type":"bool","internalType":"bool"}],"stateMutability":"view"},{"type":"function","name":"placeStreamOnNode","inputs":[{"name":"streamId","type":"bytes32","internalType":"bytes32"},{"name":"nodeAddress","type":"address","internalType":"address"}],"outputs":[],"stateMutability":"nonpayable"},{"type":"function","name":"registerNode","inputs":[{"name":"nodeAddress","type":"address","internalType":"address"},{"name":"url","type":"string","internalType":"string"},{"name":"status","type":"uint8","internalType":"enum NodeStatus"}],"outputs":[],"stateMutability":"nonpayable"},{"type":"function","name":"removeNode","inputs":[{"name":"nodeAddress","type":"address","internalType":"address"}],"outputs":[],"stateMutability":"nonpayable"},{"type":"function","name":"removeOperator","inputs":[{"name":"operator","type":"address","internalType":"address"}],"outputs":[],"stateMutability":"nonpayable"},{"type":"function","name":"removeStreamFromNode","inputs":[{"name":"streamId","type":"bytes32","internalType":"bytes32"},{"name":"nodeAddress","type":"address","internalType":"address"}],"outputs":[],"stateMutability":"nonpayable"},{"type":"function","name":"setStreamLastMiniblock","inputs":[{"name":"streamId","type":"bytes32","internalType":"bytes32"},{"name":"lastMiniblockHash","type":"bytes32","internalType":"bytes32"},{"name":"lastMiniblockNum","type":"uint64","internalType":"uint64"},{"name":"isSealed","type":"bool","internalType":"bool"}],"outputs":[],"stateMutability":"nonpayable"},{"type":"function","name":"updateNodeStatus","inputs":[{"name":"nodeAddress","type":"address","internalType":"address"},{"name":"status","type":"uint8","internalType":"enum NodeStatus"}],"outputs":[],"stateMutability":"nonpayable"},{"type":"function","name":"updateNodeUrl","inputs":[{"name":"nodeAddress","type":"address","internalType":"address"},{"name":"url","type":"string","internalType":"string"}],"outputs":[],"stateMutability":"nonpayable"},{"type":"event","name":"Initialized","inputs":[{"name":"version","type":"uint32","indexed":false,"internalType":"uint32"}],"anonymous":false},{"type":"event","name":"InterfaceAdded","inputs":[{"name":"interfaceId","type":"bytes4","indexed":true,"internalType":"bytes4"}],"anonymous":false},{"type":"event","name":"InterfaceRemoved","inputs":[{"name":"interfaceId","type":"bytes4","indexed":true,"internalType":"bytes4"}],"anonymous":false},{"type":"event","name":"NodeAdded","inputs":[{"name":"nodeAddress","type":"address","indexed":true,"internalType":"address"},{"name":"url","type":"string","indexed":false,"internalType":"string"},{"name":"status","type":"uint8","indexed":false,"internalType":"enum NodeStatus"}],"anonymous":false},{"type":"event","name":"NodeRemoved","inputs":[{"name":"nodeAddress","type":"address","indexed":true,"internalType":"address"}],"anonymous":false},{"type":"event","name":"NodeStatusUpdated","inputs":[{"name":"nodeAddress","type":"address","indexed":true,"internalType":"address"},{"name":"status","type":"uint8","indexed":false,"internalType":"enum NodeStatus"}],"anonymous":false},{"type":"event","name":"NodeUrlUpdated","inputs":[{"name":"nodeAddress","type":"address","indexed":true,"internalType":"address"},{"name":"url","type":"string","indexed":false,"internalType":"string"}],"anonymous":false},{"type":"event","name":"OperatorAdded","inputs":[{"name":"operatorAddress","type":"address","indexed":true,"internalType":"address"}],"anonymous":false},{"type":"event","name":"OperatorRemoved","inputs":[{"name":"operatorAddress","type":"address","indexed":true,"internalType":"address"}],"anonymous":false},{"type":"event","name":"OwnershipTransferred","inputs":[{"name":"previousOwner","type":"address","indexed":true,"internalType":"address"},{"name":"newOwner","type":"address","indexed":true,"internalType":"address"}],"anonymous":false},{"type":"event","name":"StreamAllocated","inputs":[{"name":"streamId","type":"bytes32","indexed":false,"internalType":"bytes32"},{"name":"nodes","type":"address[]","indexed":false,"internalType":"address[]"},{"name":"genesisMiniblockHash","type":"bytes32","indexed":false,"internalType":"bytes32"},{"name":"genesisMiniblock","type":"bytes","indexed":false,"internalType":"bytes"}],"anonymous":false},{"type":"event","name":"StreamLastMiniblockUpdated","inputs":[{"name":"streamId","type":"bytes32","indexed":false,"internalType":"bytes32"},{"name":"lastMiniblockHash","type":"bytes32","indexed":false,"internalType":"bytes32"},{"name":"lastMiniblockNum","type":"uint64","indexed":false,"internalType":"uint64"},{"name":"isSealed","type":"bool","indexed":false,"internalType":"bool"}],"anonymous":false},{"type":"event","name":"StreamPlacementUpdated","inputs":[{"name":"streamId","type":"bytes32","indexed":false,"internalType":"bytes32"},{"name":"nodeAddress","type":"address","indexed":false,"internalType":"address"},{"name":"isAdded","type":"bool","indexed":false,"internalType":"bool"}],"anonymous":false},{"type":"error","name":"Initializable_InInitializingState","inputs":[]},{"type":"error","name":"Initializable_NotInInitializingState","inputs":[]},{"type":"error","name":"Introspection_AlreadySupported","inputs":[]},{"type":"error","name":"Introspection_NotSupported","inputs":[]},{"type":"error","name":"Ownable__NotOwner","inputs":[{"name":"account","type":"address","internalType":"address"}]},{"type":"error","name":"Ownable__ZeroAddress","inputs":[]}],"bytecode":{"object":"0x60806040523480156200001157600080fd5b50604051620034983803806200349883398101604081905262000034916200038a565b6200003e62000094565b62000049336200013c565b60005b81518110156200008c57620000838282815181106200006f576200006f6200045c565b6020026020010151620001e860201b60201c565b6001016200004c565b5050620004c3565b7f2d0d21306acfe8e9bb163a4573e95aff6cef95dc1102c6a16d5f19eac08cc4de8054640100000000900460ff1615620000e1576040516366008a2d60e01b815260040160405180910390fd5b805463ffffffff90811610156200013957805463ffffffff191663ffffffff90811782556040519081527fe9c9b456cb2994b80aeef036cf59d26e9617df80f816a6ee5a5b4166e07e2f5c9060200160405180910390a15b50565b60006200015f60008051602062003478833981519152546001600160a01b031690565b90506001600160a01b0382166200018957604051634e3ef82560e01b815260040160405180910390fd5b816000805160206200347883398151915280546001600160a01b0319166001600160a01b03928316179055604051838216918316907f8be0079c531659141344cd1fd0a4f28419497f9722a3daafe3b4186f6b6457e090600090a35050565b6001600160a01b038116620002375760408051808201825260078152664241445f41524760c81b6020820152905162461bcd60e51b81526200022e919060040162000472565b60405180910390fd5b62000244600882620002cd565b156200028857604080518082018252600e81526d414c52454144595f45584953545360901b6020820152905162461bcd60e51b81526200022e919060040162000472565b62000295600882620002f4565b506040516001600160a01b038216907fac6fa858e9350a46cec16539926e0fde25b7629f84b5a72bffaae4df888ae86d90600090a250565b6001600160a01b038116600090815260018301602052604081205415155b90505b92915050565b6000620002eb836001600160a01b03841660008181526001830160205260408120546200034e57508154600181810184556000848152602080822090930184905584548482528286019093526040902091909155620002ee565b506000620002ee565b634e487b7160e01b600052604160045260246000fd5b80516001600160a01b03811681146200038557600080fd5b919050565b600060208083850312156200039e57600080fd5b82516001600160401b0380821115620003b657600080fd5b818501915085601f830112620003cb57600080fd5b815181811115620003e057620003e062000357565b8060051b604051601f19603f8301168101818110858211171562000408576200040862000357565b6040529182528482019250838101850191888311156200042757600080fd5b938501935b82851015620004505762000440856200036d565b845293850193928501926200042c565b98975050505050505050565b634e487b7160e01b600052603260045260246000fd5b60006020808352835180602085015260005b81811015620004a25785810183015185820160400152820162000484565b506000604082860101526040601f19601f8301168501019250505092915050565b612fa580620004d36000396000f3fe608060405234801561001057600080fd5b50600436106101425760003560e01c806386789fc6116100b8578063b2b99ec91161007c578063b2b99ec9146102c4578063ba428b1a146102d7578063c0f22084146102ea578063c8fe3a01146102f2578063ee885b1214610307578063eecc66f41461031a57600080fd5b806386789fc6146102545780639d209048146102695780639ee86d3814610289578063a1174e7d1461029c578063ac8a584a146102b157600080fd5b80633c2544d11161010a5780633c2544d1146101c3578063581f8b9b146101e5578063681a8d67146101f85780636b883c391461020b5780636d70f7ae1461021e5780637e4465e71461024157600080fd5b80631290abe814610147578063242cae9f1461017057806332705ac41461018557806339bf397e146101a55780633bd84c0c146101bb575b600080fd5b61015a6101553660046125b5565b61032d565b604051610167919061265f565b60405180910390f35b61018361017e36600461268e565b610458565b005b61019861019336600461268e565b6104b0565b60405161016791906126a9565b6101ad610760565b604051908152602001610167565b610198610771565b6101d66101d13660046125b5565b6108e2565b6040516101679392919061276f565b6101836101f33660046127b3565b610ab3565b6101836102063660046127e6565b610c84565b6101836102193660046128f6565b610ead565b61023161022c36600461268e565b6110ec565b6040519015158152602001610167565b61018361024f3660046129d9565b6110ff565b61025c611328565b6040516101679190612a26565b61027c61027736600461268e565b611334565b6040516101679190612af6565b610183610297366004612b09565b6114b5565b6102a4611658565b6040516101679190612b2c565b6101836102bf36600461268e565b61182c565b6101836102d236600461268e565b6119a0565b6101836102e5366004612b90565b611b5c565b6101ad611bed565b6102fa611bf8565b6040516101679190612c49565b610183610315366004612b09565b611c04565b610183610328366004612c5c565b611e36565b6040805160a08101825260008082526020820181905291810182905260608082018390526080820152906103619083611fed565b6103a55760408051808201825260098152681393d517d193d5539160ba1b6020820152905162461bcd60e51b815261039c9190600401612cb9565b60405180910390fd5b600082815260026020818152604092839020835160a0810185528154815260018201546001600160401b0380821683860152600160401b8204811683880152600160801b909104166060820152928101805485518185028101850190965280865293949193608086019383018282801561044857602002820191906000526020600020905b81546001600160a01b0316815260019091019060200180831161042a575b5050505050815250509050919050565b7fa7c3be20e3a76821507555109752fad8a6630ef0362a34dcfcdfef83c99a2537546001600160a01b031633146104a4576040516365f4906560e01b815233600482015260240161039c565b6104ad81612008565b50565b606060006104bd816120da565b6001600160401b038111156104d4576104d4612841565b6040519080825280602002602001820160405280156104fd578160200160208202803683370190505b5090506000805b61050e60006120da565b8110156105c357600061052181836120e4565b60008181526002602052604081209192505b60028201548110156105b557876001600160a01b031682600201828154811061055e5761055e612ccc565b6000918252602090912001546001600160a01b0316036105ad5782868661058481612cf8565b975063ffffffff168151811061059c5761059c612ccc565b6020026020010181815250506105b5565b600101610533565b505050806001019050610504565b5060008163ffffffff166001600160401b038111156105e4576105e4612841565b60405190808252806020026020018201604052801561061d57816020015b61060a6124b7565b8152602001906001900390816106025790505b50905060005b8263ffffffff1681101561075757604051806040016040528085838151811061064e5761064e612ccc565b602002602001015181526020016000600201600087858151811061067457610674612ccc565b6020908102919091018101518252818101929092526040908101600020815160a0810183528154815260018201546001600160401b0380821683870152600160401b8204811683860152600160801b90910416606082015260028201805484518187028101870190955280855291949293608086019390929083018282801561072657602002820191906000526020600020905b81546001600160a01b03168152600190910190602001808311610708575b50505050508152505081525082828151811061074457610744612ccc565b6020908102919091010152600101610623565b50949350505050565b600061076c60056120da565b905090565b6060600061077e816120da565b6001600160401b0381111561079557610795612841565b6040519080825280602002602001820160405280156107ce57816020015b6107bb6124b7565b8152602001906001900390816107b35790505b50905060005b6107de60006120da565b8110156108dc5760006107f181836120e4565b60408051808201825282815260008381526002602081815291849020845160a0810186528154815260018201546001600160401b0380821683870152600160401b8204811683890152600160801b90910416606082015291810180548651818602810186019097528087529697509395838701959294919360808601939291908301828280156108aa57602002820191906000526020600020905b81546001600160a01b0316815260019091019060200180831161088c575b5050505050815250508152508383815181106108c8576108c8612ccc565b6020908102919091010152506001016107d4565b50919050565b6040805160a08101825260008082526020820181905291810182905260608082018390526080820181905290919061091a8285611fed565b6109555760408051808201825260098152681393d517d193d5539160ba1b6020820152905162461bcd60e51b815261039c9190600401612cb9565b600084815260026020818152604080842060048352818520546003845294829020825160a0810184528254815260018301546001600160401b0380821683880152600160401b8204811683870152600160801b90910416606082015294820180548451818702810187019095528085529296959194919387936080860193919291830182828015610a0f57602002820191906000526020600020905b81546001600160a01b031681526001909101906020018083116109f1575b5050505050815250509250808054610a2690612d1b565b80601f0160208091040260200160405190810160405280929190818152602001828054610a5290612d1b565b8015610a9f5780601f10610a7457610100808354040283529160200191610a9f565b820191906000526020600020905b815481529060010190602001808311610a8257829003601f168201915b505050505090509250925092509193909250565b81610abf6005826120f0565b610af95760408051808201825260088152670848288be82aaa8960c31b6020820152905162461bcd60e51b815261039c9190600401612cb9565b33610b056008826120f0565b610b3f5760408051808201825260088152670848288be82aaa8960c31b6020820152905162461bcd60e51b815261039c9190600401612cb9565b6001600160a01b0380851660009081526007602052604090206003015485913391168114610b9d5760408051808201825260088152670848288be82aaa8960c31b6020820152905162461bcd60e51b815261039c9190600401612cb9565b610ba86005876120f0565b610be857604080518082018252600e81526d1393d11157d393d517d193d5539160921b6020820152905162461bcd60e51b815261039c9190600401612cb9565b6001600160a01b03861660009081526007602052604090208054610c0f9060ff1687612112565b80548690829060ff19166001836005811115610c2d57610c2d612a6a565b021790555060028101546040516001600160a01b03909116907f20891cc7622c7951cbd8c70c61a5201eb45625b8c00e8f6c986cfca78f3dbfa090610c73908990612d4f565b60405180910390a250505050505050565b33610c906005826120f0565b610cca5760408051808201825260088152670848288be82aaa8960c31b6020820152905162461bcd60e51b815261039c9190600401612cb9565b610cd5600086611fed565b610d105760408051808201825260098152681393d517d193d5539160ba1b6020820152905162461bcd60e51b815261039c9190600401612cb9565b6000858152600260205260409020600180820154600160801b90041615610d6c57604080518082018252600d81526c14d51491505357d4d150531151609a1b6020820152905162461bcd60e51b815261039c9190600401612cb9565b6001808201546001600160401b0380871692610d8b9290911690612d5d565b6001600160401b031614610dce5760408051808201825260078152664241445f41524760c81b6020820152905162461bcd60e51b815261039c9190600401612cb9565b84815560018101805467ffffffffffffffff19166001600160401b0386161790558215610e28576001818101805467ffffffffffffffff60801b198116600160801b918290046001600160401b0316909317029190911790555b836001600160401b0316600103610e50576000868152600360205260408120610e5091612501565b60408051878152602081018790526001600160401b0386169181019190915283151560608201527fccc26bbb6dd655ea0bb8a40a3c30e35c6bdf42f8faf0d71bbea897af768cda8b906080015b60405180910390a1505050505050565b33610eb96005826120f0565b610ef35760408051808201825260088152670848288be82aaa8960c31b6020820152905162461bcd60e51b815261039c9190600401612cb9565b610efe600086611fed565b15610f3f57604080518082018252600e81526d414c52454144595f45584953545360901b6020820152905162461bcd60e51b815261039c9190600401612cb9565b60005b8451811015610fc357610f7b858281518110610f6057610f60612ccc565b602002602001015160006005016120f090919063ffffffff16565b610fbb57604080518082018252600e81526d1393d11157d393d517d193d5539160921b6020820152905162461bcd60e51b815261039c9190600401612cb9565b600101610f42565b506040805160a081018252848152600060208201819052918101829052606081018290526080810186905290610ff990876122a5565b5060008681526002602081815260409283902084518155818501516001820180549587015160608801516001600160401b03908116600160801b0267ffffffffffffffff60801b19928216600160401b026fffffffffffffffffffffffffffffffff199099169190941617969096179590951617909355608084015180518594936110899390850192019061253b565b50505060008681526003602052604090206110a48482612dcd565b5060008681526004602052604090819020859055517f55ef7efc60ef99743e54209752c9a8e047e013917ec91572db75875069dd65bb90610e9d908890889088908890612e8c565b60006110f96008836120f0565b92915050565b3361110b6008826120f0565b6111455760408051808201825260088152670848288be82aaa8960c31b6020820152905162461bcd60e51b815261039c9190600401612cb9565b826111516005826120f0565b61118b5760408051808201825260088152670848288be82aaa8960c31b6020820152905162461bcd60e51b815261039c9190600401612cb9565b6001600160a01b03808516600090815260076020526040902060030154859133911681146111e95760408051808201825260088152670848288be82aaa8960c31b6020820152905162461bcd60e51b815261039c9190600401612cb9565b6111f46005876120f0565b61123457604080518082018252600e81526d1393d11157d393d517d193d5539160921b6020820152905162461bcd60e51b815261039c9190600401612cb9565b6001600160a01b038616600090815260076020908152604091829020915161125e91889101612ec8565b60405160208183030381529060405280519060200120816001016040516020016112889190612ee4565b60405160208183030381529060405280519060200120036112d85760408051808201825260078152664241445f41524760c81b6020820152905162461bcd60e51b815261039c9190600401612cb9565b600181016112e68782612dcd565b5060028101546040516001600160a01b03909116907f4505168a8705a16fd4d0575197fd0f510db69df93a065e158ad2c0957ba12bac90610c73908990612cb9565b606061076c60006122b1565b61135f6040805160808101909152806000815260606020820181905260006040830181905291015290565b61136a6005836120f0565b6113aa57604080518082018252600e81526d1393d11157d393d517d193d5539160921b6020820152905162461bcd60e51b815261039c9190600401612cb9565b6001600160a01b038216600090815260076020526040908190208151608081019092528054829060ff1660058111156113e5576113e5612a6a565b60058111156113f6576113f6612a6a565b815260200160018201805461140a90612d1b565b80601f016020809104026020016040519081016040528092919081815260200182805461143690612d1b565b80156114835780601f1061145857610100808354040283529160200191611483565b820191906000526020600020905b81548152906001019060200180831161146657829003601f168201915b505050918352505060028201546001600160a01b03908116602083015260039092015490911660409091015292915050565b816114c1600082611fed565b6114fc5760408051808201825260098152681393d517d193d5539160ba1b6020820152905162461bcd60e51b815261039c9190600401612cb9565b816115086005826120f0565b6115425760408051808201825260088152670848288be82aaa8960c31b6020820152905162461bcd60e51b815261039c9190600401612cb9565b6000848152600260205260408120905b60028201548110156115db57846001600160a01b031682600201828154811061157d5761157d612ccc565b6000918252602090912001546001600160a01b0316036115d357604080518082018252600e81526d414c52454144595f45584953545360901b6020820152905162461bcd60e51b815261039c9190600401612cb9565b600101611552565b5060028101805460018082018355600092835260209283902090910180546001600160a01b0319166001600160a01b03881690811790915560408051898152938401919091528201527faaa473c28a5fe04b6a7ecd795826e462f9d0c23f00ef9f51ec02fa6ea418806f9060600160405180910390a15050505050565b6060600061166660056120da565b6001600160401b0381111561167d5761167d612841565b6040519080825280602002602001820160405280156116d957816020015b6116c66040805160808101909152806000815260606020820181905260006040830181905291015290565b81526020019060019003908161169b5790505b50905060005b6116e960056120da565b8110156108dc57600760006116ff6005846120e4565b6001600160a01b03168152602081019190915260409081016000208151608081019092528054829060ff16600581111561173b5761173b612a6a565b600581111561174c5761174c612a6a565b815260200160018201805461176090612d1b565b80601f016020809104026020016040519081016040528092919081815260200182805461178c90612d1b565b80156117d95780601f106117ae576101008083540402835291602001916117d9565b820191906000526020600020905b8154815290600101906020018083116117bc57829003601f168201915b505050918352505060028201546001600160a01b039081166020830152600390920154909116604090910152825183908390811061181957611819612ccc565b60209081029190910101526001016116df565b7fa7c3be20e3a76821507555109752fad8a6630ef0362a34dcfcdfef83c99a2537546001600160a01b03163314611878576040516365f4906560e01b815233600482015260240161039c565b6118836008826120f0565b6118c757604080518082018252601281527113d41154905513d497d393d517d193d5539160721b6020820152905162461bcd60e51b815261039c9190600401612cb9565b60005b6118d460056120da565b81101561195c576001600160a01b038216600760006118f46005856120e4565b6001600160a01b039081168252602082019290925260400160002060030154160361195457604080518082018252600d81526c4f55545f4f465f424f554e445360981b6020820152905162461bcd60e51b815261039c9190600401612cb9565b6001016118ca565b506119686008826122be565b506040516001600160a01b038216907f80c0b871b97b595b16a7741c1b06fed0c6f6f558639f18ccbce50724325dc40d90600090a250565b6001600160a01b03808216600090815260076020526040902060030154829133911681146119fe5760408051808201825260088152670848288be82aaa8960c31b6020820152905162461bcd60e51b815261039c9190600401612cb9565b611a096005846120f0565b611a4957604080518082018252600e81526d1393d11157d393d517d193d5539160921b6020820152905162461bcd60e51b815261039c9190600401612cb9565b60056001600160a01b03841660009081526007602052604090205460ff166005811115611a7857611a78612a6a565b14604051806040016040528060168152602001751393d11157d4d510551157d393d517d0531313d5d15160521b81525090611ac65760405162461bcd60e51b815260040161039c9190612cb9565b50611ad26005846122be565b506001600160a01b0383166000908152600760205260408120805460ff1916815590611b016001830182612501565b506002810180546001600160a01b03199081169091556003909101805490911690556040516001600160a01b038416907fcfc24166db4bb677e857cacabd1541fb2b30645021b27c5130419589b84db52b90600090a2505050565b7f2d0d21306acfe8e9bb163a4573e95aff6cef95dc1102c6a16d5f19eac08cc4de54640100000000900460ff16611ba657604051630ef4733760e31b815260040160405180910390fd5b60005b81811015611be857611be0838383818110611bc657611bc6612ccc565b9050602002016020810190611bdb919061268e565b612008565b600101611ba9565b505050565b600061076c816120da565b606061076c60056122b1565b81611c10600082611fed565b611c4b5760408051808201825260098152681393d517d193d5539160ba1b6020820152905162461bcd60e51b815261039c9190600401612cb9565b81611c576005826120f0565b611c915760408051808201825260088152670848288be82aaa8960c31b6020820152905162461bcd60e51b815261039c9190600401612cb9565b600084815260026020526040812090805b6002830154811015611dab57856001600160a01b0316836002018281548110611ccd57611ccd612ccc565b6000918252602090912001546001600160a01b031603611da357600283018054611cf990600190612f5a565b81548110611d0957611d09612ccc565b6000918252602090912001546002840180546001600160a01b039092169183908110611d3757611d37612ccc565b9060005260206000200160006101000a8154816001600160a01b0302191690836001600160a01b0316021790555082600201805480611d7857611d78612f6d565b600082815260209020810160001990810180546001600160a01b031916905501905560019150611dab565b600101611ca2565b5080611ded57604080518082018252600e81526d1393d11157d393d517d193d5539160921b6020820152905162461bcd60e51b815261039c9190600401612cb9565b604080518781526001600160a01b03871660208201526000918101919091527faaa473c28a5fe04b6a7ecd795826e462f9d0c23f00ef9f51ec02fa6ea418806f90606001610e9d565b33611e426008826120f0565b611e7c5760408051808201825260088152670848288be82aaa8960c31b6020820152905162461bcd60e51b815261039c9190600401612cb9565b611e876005856120f0565b15611ec857604080518082018252600e81526d414c52454144595f45584953545360901b6020820152905162461bcd60e51b815261039c9190600401612cb9565b60006040518060800160405280846005811115611ee757611ee7612a6a565b8152602081018690526001600160a01b0387166040820152336060909101529050611f136005866122d3565b506001600160a01b03851660009081526007602052604090208151815483929190829060ff19166001836005811115611f4e57611f4e612a6a565b021790555060208201516001820190611f679082612dcd565b506040828101516002830180546001600160a01b03199081166001600160a01b039384161790915560609094015160039093018054909416928116929092179092559051908616907fd6f3629b08191adb8308c3a65d5f8803b7f8f3e359c433fa7ae623276635e56190611fde9087908790612f83565b60405180910390a25050505050565b600081815260018301602052604081205415155b9392505050565b6001600160a01b03811661204b5760408051808201825260078152664241445f41524760c81b6020820152905162461bcd60e51b815261039c9190600401612cb9565b6120566008826120f0565b1561209757604080518082018252600e81526d414c52454144595f45584953545360901b6020820152905162461bcd60e51b815261039c9190600401612cb9565b6120a26008826122d3565b506040516001600160a01b038216907fac6fa858e9350a46cec16539926e0fde25b7629f84b5a72bffaae4df888ae86d90600090a250565b60006110f9825490565b600061200183836122e8565b6001600160a01b03811660009081526001830160205260408120541515612001565b600082600581111561212657612126612a6a565b148061217a5750600182600581111561214157612141612a6a565b14801561217a5750600381600581111561215d5761215d612a6a565b148061217a5750600481600581111561217857612178612a6a565b145b806121cd5750600282600581111561219457612194612a6a565b1480156121cd575060038160058111156121b0576121b0612a6a565b14806121cd575060048160058111156121cb576121cb612a6a565b145b80612220575060048260058111156121e7576121e7612a6a565b1480156122205750600381600581111561220357612203612a6a565b14806122205750600581600581111561221e5761221e612a6a565b145b806122585750600382600581111561223a5761223a612a6a565b1480156122585750600581600581111561225657612256612a6a565b145b15612261575050565b60408051808201825260168152751393d11157d4d510551157d393d517d0531313d5d15160521b6020820152905162461bcd60e51b815261039c9190600401612cb9565b60006120018383612312565b6060600061200183612361565b6000612001836001600160a01b0384166123bd565b6000612001836001600160a01b038416612312565b60008260000182815481106122ff576122ff612ccc565b9060005260206000200154905092915050565b6000818152600183016020526040812054612359575081546001818101845560008481526020808220909301849055845484825282860190935260409020919091556110f9565b5060006110f9565b6060816000018054806020026020016040519081016040528092919081815260200182805480156123b157602002820191906000526020600020905b81548152602001906001019080831161239d575b50505050509050919050565b600081815260018301602052604081205480156124a65760006123e1600183612f5a565b85549091506000906123f590600190612f5a565b905080821461245a57600086600001828154811061241557612415612ccc565b906000526020600020015490508087600001848154811061243857612438612ccc565b6000918252602080832090910192909255918252600188019052604090208390555b855486908061246b5761246b612f6d565b6001900381819060005260206000200160009055905585600101600086815260200190815260200160002060009055600193505050506110f9565b60009150506110f9565b5092915050565b6040805180820190915260008152602081016124fc6040805160a081018252600080825260208201819052918101829052606080820192909252608081019190915290565b905290565b50805461250d90612d1b565b6000825580601f1061251d575050565b601f0160209004906000526020600020908101906104ad91906125a0565b828054828255906000526020600020908101928215612590579160200282015b8281111561259057825182546001600160a01b0319166001600160a01b0390911617825560209092019160019091019061255b565b5061259c9291506125a0565b5090565b5b8082111561259c57600081556001016125a1565b6000602082840312156125c757600080fd5b5035919050565b600060a08301825184526020808401516001600160401b0380821660208801528060408701511660408801528060608701511660608801525050608084015160a0608087015282815180855260c088019150602083019450600092505b808310156126545784516001600160a01b0316825293830193600192909201919083019061262b565b509695505050505050565b60208152600061200160208301846125ce565b80356001600160a01b038116811461268957600080fd5b919050565b6000602082840312156126a057600080fd5b61200182612672565b600060208083018184528085518083526040925060408601915060408160051b87010184880160005b8381101561271157888303603f190185528151805184528701518784018790526126fe878501826125ce565b95880195935050908601906001016126d2565b509098975050505050505050565b60005b8381101561273a578181015183820152602001612722565b50506000910152565b6000815180845261275b81602086016020860161271f565b601f01601f19169290920160200192915050565b60608152600061278260608301866125ce565b846020840152828103604084015261279a8185612743565b9695505050505050565b80356006811061268957600080fd5b600080604083850312156127c657600080fd5b6127cf83612672565b91506127dd602084016127a4565b90509250929050565b600080600080608085870312156127fc57600080fd5b843593506020850135925060408501356001600160401b038116811461282157600080fd5b91506060850135801515811461283657600080fd5b939692955090935050565b634e487b7160e01b600052604160045260246000fd5b604051601f8201601f191681016001600160401b038111828210171561287f5761287f612841565b604052919050565b600082601f83011261289857600080fd5b81356001600160401b038111156128b1576128b1612841565b6128c4601f8201601f1916602001612857565b8181528460208386010111156128d957600080fd5b816020850160208301376000918101602001919091529392505050565b6000806000806080858703121561290c57600080fd5b843593506020808601356001600160401b038082111561292b57600080fd5b818801915088601f83011261293f57600080fd5b81358181111561295157612951612841565b8060051b612960858201612857565b918252838101850191858101908c84111561297a57600080fd5b948601945b8386101561299f5761299086612672565b8252948601949086019061297f565b98505050506040880135945060608801359250808311156129bf57600080fd5b50506129cd87828801612887565b91505092959194509250565b600080604083850312156129ec57600080fd5b6129f583612672565b915060208301356001600160401b03811115612a1057600080fd5b612a1c85828601612887565b9150509250929050565b6020808252825182820181905260009190848201906040850190845b81811015612a5e57835183529284019291840191600101612a42565b50909695505050505050565b634e487b7160e01b600052602160045260246000fd5b60068110612a9e57634e487b7160e01b600052602160045260246000fd5b9052565b612aad828251612a80565b6000602082015160806020850152612ac86080850182612743565b6040848101516001600160a01b03908116918701919091526060948501511693909401929092525090919050565b6020815260006120016020830184612aa2565b60008060408385031215612b1c57600080fd5b823591506127dd60208401612672565b600060208083016020845280855180835260408601915060408160051b87010192506020870160005b82811015612b8357603f19888603018452612b71858351612aa2565b94509285019290850190600101612b55565b5092979650505050505050565b60008060208385031215612ba357600080fd5b82356001600160401b0380821115612bba57600080fd5b818501915085601f830112612bce57600080fd5b813581811115612bdd57600080fd5b8660208260051b8501011115612bf257600080fd5b60209290920196919550909350505050565b60008151808452602080850194506020840160005b83811015612c3e5781516001600160a01b031687529582019590820190600101612c19565b509495945050505050565b6020815260006120016020830184612c04565b600080600060608486031215612c7157600080fd5b612c7a84612672565b925060208401356001600160401b03811115612c9557600080fd5b612ca186828701612887565b925050612cb0604085016127a4565b90509250925092565b6020815260006120016020830184612743565b634e487b7160e01b600052603260045260246000fd5b634e487b7160e01b600052601160045260246000fd5b600063ffffffff808316818103612d1157612d11612ce2565b6001019392505050565b600181811c90821680612d2f57607f821691505b6020821081036108dc57634e487b7160e01b600052602260045260246000fd5b602081016110f98284612a80565b6001600160401b038181168382160190808211156124b0576124b0612ce2565b601f821115611be8576000816000526020600020601f850160051c81016020861015612da65750805b601f850160051c820191505b81811015612dc557828155600101612db2565b505050505050565b81516001600160401b03811115612de657612de6612841565b612dfa81612df48454612d1b565b84612d7d565b602080601f831160018114612e2f5760008415612e175750858301515b600019600386901b1c1916600185901b178555612dc5565b600085815260208120601f198616915b82811015612e5e57888601518255948401946001909101908401612e3f565b5085821015612e7c5787850151600019600388901b60f8161c191681555b5050505050600190811b01905550565b848152608060208201526000612ea56080830186612c04565b8460408401528281036060840152612ebd8185612743565b979650505050505050565b60008251612eda81846020870161271f565b9190910192915050565b6000808354612ef281612d1b565b60018281168015612f0a5760018114612f1f57612f4e565b60ff1984168752821515830287019450612f4e565b8760005260208060002060005b85811015612f455781548a820152908401908201612f2c565b50505082870194505b50929695505050505050565b818103818111156110f9576110f9612ce2565b634e487b7160e01b600052603160045260246000fd5b604081526000612f966040830185612743565b90506120016020830184612a8056a7c3be20e3a76821507555109752fad8a6630ef0362a34dcfcdfef83c99a2537","linkReferences":{}},"methodIdentifiers":{"__OperatorRegistry_init(address[])":"ba428b1a","allocateStream(bytes32,address[],bytes32,bytes)":"6b883c39","approveOperator(address)":"242cae9f","getAllNodeAddresses()":"c8fe3a01","getAllNodes()":"a1174e7d","getAllStreamIds()":"86789fc6","getAllStreams()":"3bd84c0c","getNode(address)":"9d209048","getNodeCount()":"39bf397e","getStream(bytes32)":"1290abe8","getStreamCount()":"c0f22084","getStreamWithGenesis(bytes32)":"3c2544d1","getStreamsOnNode(address)":"32705ac4","isOperator(address)":"6d70f7ae","placeStreamOnNode(bytes32,address)":"9ee86d38","registerNode(address,string,uint8)":"eecc66f4","removeNode(address)":"b2b99ec9","removeOperator(address)":"ac8a584a","removeStreamFromNode(bytes32,address)":"ee885b12","setStreamLastMiniblock(bytes32,bytes32,uint64,bool)":"681a8d67","updateNodeStatus(address,uint8)":"581f8b9b","updateNodeUrl(address,string)":"7e4465e7"},"id":48}