{"abi":[{"type":"function","name":"__OperatorRegistry_init","inputs":[{"name":"initialOperators","type":"address[]","internalType":"address[]"}],"outputs":[],"stateMutability":"nonpayable"},{"type":"function","name":"approveOperator","inputs":[{"name":"operator","type":"address","internalType":"address"}],"outputs":[],"stateMutability":"nonpayable"},{"type":"function","name":"isOperator","inputs":[{"name":"operator","type":"address","internalType":"address"}],"outputs":[{"name":"","type":"bool","internalType":"bool"}],"stateMutability":"view"},{"type":"function","name":"removeOperator","inputs":[{"name":"operator","type":"address","internalType":"address"}],"outputs":[],"stateMutability":"nonpayable"},{"type":"event","name":"Initialized","inputs":[{"name":"version","type":"uint32","indexed":false,"internalType":"uint32"}],"anonymous":false},{"type":"event","name":"InterfaceAdded","inputs":[{"name":"interfaceId","type":"bytes4","indexed":true,"internalType":"bytes4"}],"anonymous":false},{"type":"event","name":"InterfaceRemoved","inputs":[{"name":"interfaceId","type":"bytes4","indexed":true,"internalType":"bytes4"}],"anonymous":false},{"type":"event","name":"OperatorAdded","inputs":[{"name":"operatorAddress","type":"address","indexed":true,"internalType":"address"}],"anonymous":false},{"type":"event","name":"OperatorRemoved","inputs":[{"name":"operatorAddress","type":"address","indexed":true,"internalType":"address"}],"anonymous":false},{"type":"event","name":"OwnershipTransferred","inputs":[{"name":"previousOwner","type":"address","indexed":true,"internalType":"address"},{"name":"newOwner","type":"address","indexed":true,"internalType":"address"}],"anonymous":false},{"type":"error","name":"Initializable_InInitializingState","inputs":[]},{"type":"error","name":"Initializable_NotInInitializingState","inputs":[]},{"type":"error","name":"Introspection_AlreadySupported","inputs":[]},{"type":"error","name":"Introspection_NotSupported","inputs":[]},{"type":"error","name":"Ownable__NotOwner","inputs":[{"name":"account","type":"address","internalType":"address"}]},{"type":"error","name":"Ownable__ZeroAddress","inputs":[]}],"bytecode":{"object":"0x608060405234801561001057600080fd5b5061001961001e565b6100c4565b7f2d0d21306acfe8e9bb163a4573e95aff6cef95dc1102c6a16d5f19eac08cc4de8054640100000000900460ff161561006a576040516366008a2d60e01b815260040160405180910390fd5b805463ffffffff90811610156100c157805463ffffffff191663ffffffff90811782556040519081527fe9c9b456cb2994b80aeef036cf59d26e9617df80f816a6ee5a5b4166e07e2f5c9060200160405180910390a15b50565b610705806100d36000396000f3fe608060405234801561001057600080fd5b506004361061004c5760003560e01c8063242cae9f146100515780636d70f7ae14610066578063ac8a584a1461008d578063ba428b1a146100a0575b600080fd5b61006461005f3660046105cb565b6100b3565b005b6100796100743660046105cb565b610110565b604051901515815260200160405180910390f35b61006461009b3660046105cb565b610123565b6100646100ae3660046105f4565b610297565b7fa7c3be20e3a76821507555109752fad8a6630ef0362a34dcfcdfef83c99a2537546001600160a01b03163314610104576040516365f4906560e01b81523360048201526024015b60405180910390fd5b61010d81610328565b50565b600061011d6008836103fa565b92915050565b7fa7c3be20e3a76821507555109752fad8a6630ef0362a34dcfcdfef83c99a2537546001600160a01b0316331461016f576040516365f4906560e01b81523360048201526024016100fb565b61017a6008826103fa565b6101be57604080518082018252601281527113d41154905513d497d393d517d193d5539160721b6020820152905162461bcd60e51b81526100fb9190600401610669565b60005b6101cb600561041f565b811015610253576001600160a01b038216600760006101eb600585610429565b6001600160a01b039081168252602082019290925260400160002060030154160361024b57604080518082018252600d81526c4f55545f4f465f424f554e445360981b6020820152905162461bcd60e51b81526100fb9190600401610669565b6001016101c1565b5061025f600882610435565b506040516001600160a01b038216907f80c0b871b97b595b16a7741c1b06fed0c6f6f558639f18ccbce50724325dc40d90600090a250565b7f2d0d21306acfe8e9bb163a4573e95aff6cef95dc1102c6a16d5f19eac08cc4de54640100000000900460ff166102e157604051630ef4733760e31b815260040160405180910390fd5b60005b818110156103235761031b838383818110610301576103016106b8565b905060200201602081019061031691906105cb565b610328565b6001016102e4565b505050565b6001600160a01b03811661036b5760408051808201825260078152664241445f41524760c81b6020820152905162461bcd60e51b81526100fb9190600401610669565b6103766008826103fa565b156103b757604080518082018252600e81526d414c52454144595f45584953545360901b6020820152905162461bcd60e51b81526100fb9190600401610669565b6103c260088261044a565b506040516001600160a01b038216907fac6fa858e9350a46cec16539926e0fde25b7629f84b5a72bffaae4df888ae86d90600090a250565b6001600160a01b038116600090815260018301602052604081205415155b9392505050565b600061011d825490565b6000610418838361045f565b6000610418836001600160a01b038416610489565b6000610418836001600160a01b03841661057c565b6000826000018281548110610476576104766106b8565b9060005260206000200154905092915050565b600081815260018301602052604081205480156105725760006104ad6001836106ce565b85549091506000906104c1906001906106ce565b90508082146105265760008660000182815481106104e1576104e16106b8565b9060005260206000200154905080876000018481548110610504576105046106b8565b6000918252602080832090910192909255918252600188019052604090208390555b8554869080610537576105376106ef565b60019003818190600052602060002001600090559055856001016000868152602001908152602001600020600090556001935050505061011d565b600091505061011d565b60008181526001830160205260408120546105c35750815460018181018455600084815260208082209093018490558454848252828601909352604090209190915561011d565b50600061011d565b6000602082840312156105dd57600080fd5b81356001600160a01b038116811461041857600080fd5b6000806020838503121561060757600080fd5b823567ffffffffffffffff8082111561061f57600080fd5b818501915085601f83011261063357600080fd5b81358181111561064257600080fd5b8660208260051b850101111561065757600080fd5b60209290920196919550909350505050565b60006020808352835180602085015260005b818110156106975785810183015185820160400152820161067b565b506000604082860101526040601f19601f8301168501019250505092915050565b634e487b7160e01b600052603260045260246000fd5b8181038181111561011d57634e487b7160e01b600052601160045260246000fd5b634e487b7160e01b600052603160045260246000fd","linkReferences":{}},"methodIdentifiers":{"__OperatorRegistry_init(address[])":"ba428b1a","approveOperator(address)":"242cae9f","isOperator(address)":"6d70f7ae","removeOperator(address)":"ac8a584a"},"id":37}