{"abi":[{"type":"function","name":"addPermissionsToRole","inputs":[{"name":"roleId","type":"uint256","internalType":"uint256"},{"name":"permissions","type":"string[]","internalType":"string[]"}],"outputs":[],"stateMutability":"nonpayable"},{"type":"function","name":"addRoleToEntitlement","inputs":[{"name":"roleId","type":"uint256","internalType":"uint256"},{"name":"entitlement","type":"tuple","internalType":"struct IRolesBase.CreateEntitlement","components":[{"name":"module","type":"address","internalType":"address"},{"name":"data","type":"bytes","internalType":"bytes"}]}],"outputs":[],"stateMutability":"nonpayable"},{"type":"function","name":"createRole","inputs":[{"name":"roleName","type":"string","internalType":"string"},{"name":"permissions","type":"string[]","internalType":"string[]"},{"name":"entitlements","type":"tuple[]","internalType":"struct IRolesBase.CreateEntitlement[]","components":[{"name":"module","type":"address","internalType":"address"},{"name":"data","type":"bytes","internalType":"bytes"}]}],"outputs":[{"name":"","type":"uint256","internalType":"uint256"}],"stateMutability":"nonpayable"},{"type":"function","name":"getPermissionsByRoleId","inputs":[{"name":"roleId","type":"uint256","internalType":"uint256"}],"outputs":[{"name":"permissions","type":"string[]","internalType":"string[]"}],"stateMutability":"view"},{"type":"function","name":"getRoleById","inputs":[{"name":"roleId","type":"uint256","internalType":"uint256"}],"outputs":[{"name":"","type":"tuple","internalType":"struct IRolesBase.Role","components":[{"name":"id","type":"uint256","internalType":"uint256"},{"name":"name","type":"string","internalType":"string"},{"name":"disabled","type":"bool","internalType":"bool"},{"name":"permissions","type":"string[]","internalType":"string[]"},{"name":"entitlements","type":"address[]","internalType":"address[]"}]}],"stateMutability":"view"},{"type":"function","name":"getRoles","inputs":[],"outputs":[{"name":"","type":"tuple[]","internalType":"struct IRolesBase.Role[]","components":[{"name":"id","type":"uint256","internalType":"uint256"},{"name":"name","type":"string","internalType":"string"},{"name":"disabled","type":"bool","internalType":"bool"},{"name":"permissions","type":"string[]","internalType":"string[]"},{"name":"entitlements","type":"address[]","internalType":"address[]"}]}],"stateMutability":"view"},{"type":"function","name":"removePermissionsFromRole","inputs":[{"name":"roleId","type":"uint256","internalType":"uint256"},{"name":"permissions","type":"string[]","internalType":"string[]"}],"outputs":[],"stateMutability":"nonpayable"},{"type":"function","name":"removeRole","inputs":[{"name":"roleId","type":"uint256","internalType":"uint256"}],"outputs":[],"stateMutability":"nonpayable"},{"type":"function","name":"removeRoleFromEntitlement","inputs":[{"name":"roleId","type":"uint256","internalType":"uint256"},{"name":"entitlement","type":"tuple","internalType":"struct IRolesBase.CreateEntitlement","components":[{"name":"module","type":"address","internalType":"address"},{"name":"data","type":"bytes","internalType":"bytes"}]}],"outputs":[],"stateMutability":"nonpayable"},{"type":"function","name":"updateRole","inputs":[{"name":"roleId","type":"uint256","internalType":"uint256"},{"name":"roleName","type":"string","internalType":"string"},{"name":"permissions","type":"string[]","internalType":"string[]"},{"name":"entitlements","type":"tuple[]","internalType":"struct IRolesBase.CreateEntitlement[]","components":[{"name":"module","type":"address","internalType":"address"},{"name":"data","type":"bytes","internalType":"bytes"}]}],"outputs":[],"stateMutability":"nonpayable"},{"type":"event","name":"Approval","inputs":[{"name":"owner","type":"address","indexed":true,"internalType":"address"},{"name":"approved","type":"address","indexed":true,"internalType":"address"},{"name":"tokenId","type":"uint256","indexed":true,"internalType":"uint256"}],"anonymous":false},{"type":"event","name":"ApprovalForAll","inputs":[{"name":"owner","type":"address","indexed":true,"internalType":"address"},{"name":"operator","type":"address","indexed":true,"internalType":"address"},{"name":"approved","type":"bool","indexed":false,"internalType":"bool"}],"anonymous":false},{"type":"event","name":"Banned","inputs":[{"name":"moderator","type":"address","indexed":true,"internalType":"address"},{"name":"tokenId","type":"uint256","indexed":true,"internalType":"uint256"}],"anonymous":false},{"type":"event","name":"ConsecutiveTransfer","inputs":[{"name":"fromTokenId","type":"uint256","indexed":true,"internalType":"uint256"},{"name":"toTokenId","type":"uint256","indexed":false,"internalType":"uint256"},{"name":"from","type":"address","indexed":true,"internalType":"address"},{"name":"to","type":"address","indexed":true,"internalType":"address"}],"anonymous":false},{"type":"event","name":"OwnershipTransferred","inputs":[{"name":"previousOwner","type":"address","indexed":true,"internalType":"address"},{"name":"newOwner","type":"address","indexed":true,"internalType":"address"}],"anonymous":false},{"type":"event","name":"Paused","inputs":[{"name":"account","type":"address","indexed":false,"internalType":"address"}],"anonymous":false},{"type":"event","name":"RoleCreated","inputs":[{"name":"creator","type":"address","indexed":true,"internalType":"address"},{"name":"roleId","type":"uint256","indexed":true,"internalType":"uint256"}],"anonymous":false},{"type":"event","name":"RoleRemoved","inputs":[{"name":"remover","type":"address","indexed":true,"internalType":"address"},{"name":"roleId","type":"uint256","indexed":true,"internalType":"uint256"}],"anonymous":false},{"type":"event","name":"RoleUpdated","inputs":[{"name":"updater","type":"address","indexed":true,"internalType":"address"},{"name":"roleId","type":"uint256","indexed":true,"internalType":"uint256"}],"anonymous":false},{"type":"event","name":"Transfer","inputs":[{"name":"from","type":"address","indexed":true,"internalType":"address"},{"name":"to","type":"address","indexed":true,"internalType":"address"},{"name":"tokenId","type":"uint256","indexed":true,"internalType":"uint256"}],"anonymous":false},{"type":"event","name":"Unbanned","inputs":[{"name":"moderator","type":"address","indexed":true,"internalType":"address"},{"name":"tokenId","type":"uint256","indexed":true,"internalType":"uint256"}],"anonymous":false},{"type":"event","name":"Unpaused","inputs":[{"name":"account","type":"address","indexed":false,"internalType":"address"}],"anonymous":false},{"type":"error","name":"ApprovalCallerNotOwnerNorApproved","inputs":[]},{"type":"error","name":"ApprovalQueryForNonexistentToken","inputs":[]},{"type":"error","name":"BalanceQueryForZeroAddress","inputs":[]},{"type":"error","name":"Banning__AlreadyBanned","inputs":[{"name":"tokenId","type":"uint256","internalType":"uint256"}]},{"type":"error","name":"Banning__CannotBanSelf","inputs":[]},{"type":"error","name":"Banning__InvalidTokenId","inputs":[{"name":"tokenId","type":"uint256","internalType":"uint256"}]},{"type":"error","name":"Banning__NotBanned","inputs":[{"name":"tokenId","type":"uint256","internalType":"uint256"}]},{"type":"error","name":"ChannelService__ChannelDisabled","inputs":[]},{"type":"error","name":"ChannelService__ChannelDoesNotExist","inputs":[]},{"type":"error","name":"ChannelService__RoleDoesNotExist","inputs":[]},{"type":"error","name":"Entitlement__InvalidValue","inputs":[]},{"type":"error","name":"Entitlement__NotAllowed","inputs":[]},{"type":"error","name":"Entitlement__NotMember","inputs":[]},{"type":"error","name":"Entitlement__ValueAlreadyExists","inputs":[]},{"type":"error","name":"EntitlementsService__EntitlementDoesNotExist","inputs":[]},{"type":"error","name":"EntitlementsService__InvalidEntitlementAddress","inputs":[]},{"type":"error","name":"EntitlementsService__InvalidEntitlementInterface","inputs":[]},{"type":"error","name":"MintERC2309QuantityExceedsLimit","inputs":[]},{"type":"error","name":"MintToZeroAddress","inputs":[]},{"type":"error","name":"MintZeroQuantity","inputs":[]},{"type":"error","name":"Ownable__NotOwner","inputs":[{"name":"account","type":"address","internalType":"address"}]},{"type":"error","name":"Ownable__ZeroAddress","inputs":[]},{"type":"error","name":"OwnerQueryForNonexistentToken","inputs":[]},{"type":"error","name":"OwnershipNotInitializedForExtraData","inputs":[]},{"type":"error","name":"Pausable__NotPaused","inputs":[]},{"type":"error","name":"Pausable__Paused","inputs":[]},{"type":"error","name":"Roles__EntitlementAlreadyExists","inputs":[]},{"type":"error","name":"Roles__EntitlementDoesNotExist","inputs":[]},{"type":"error","name":"Roles__InvalidEntitlementAddress","inputs":[]},{"type":"error","name":"Roles__InvalidPermission","inputs":[]},{"type":"error","name":"Roles__PermissionAlreadyExists","inputs":[]},{"type":"error","name":"Roles__PermissionDoesNotExist","inputs":[]},{"type":"error","name":"Roles__RoleDoesNotExist","inputs":[]},{"type":"error","name":"TransferCallerNotOwnerNorApproved","inputs":[]},{"type":"error","name":"TransferFromIncorrectOwner","inputs":[]},{"type":"error","name":"TransferToNonERC721ReceiverImplementer","inputs":[]},{"type":"error","name":"TransferToZeroAddress","inputs":[]},{"type":"error","name":"URIQueryForNonexistentToken","inputs":[]},{"type":"error","name":"Validator__InvalidByteLength","inputs":[]},{"type":"error","name":"Validator__InvalidStringLength","inputs":[]}],"bytecode":{"object":"0x608060405234801561001057600080fd5b50612f44806100206000396000f3fe608060405234801561001057600080fd5b506004361061009e5760003560e01c80639a8e4c3e116100665780639a8e4c3e1461012a578063b42642331461013d578063b75157611461015d578063ba201ba814610170578063dba818641461018357600080fd5b80634d8b50a2146100a357806371061398146100b8578063784c872b146100d65780638fcd793d146100f65780639269182114610117575b600080fd5b6100b66100b136600461273c565b610196565b005b6100c06101e7565b6040516100cd9190612912565b60405180910390f35b6100e96100e4366004612976565b6101f6565b6040516100cd919061298f565b6101096101043660046129a2565b610242565b6040519081526020016100cd565b6100b6610125366004612976565b61028d565b6100b6610138366004612a2f565b6102d6565b61015061014b366004612976565b610321565b6040516100cd9190612a75565b6100b661016b366004612a2f565b61032c565b6100b661017e366004612acc565b610373565b6100b6610191366004612acc565b6103ba565b6101ca604051806040016040528060138152602001724d6f64696679537061636553657474696e677360681b815250610401565b6101d385610429565b6101e08585858585610470565b5050505050565b60606101f1610784565b905090565b61022a6040518060a00160405280600081526020016060815260200160001515815260200160608152602001606081525090565b61023382610429565b61023c826108c6565b92915050565b6000610278604051806040016040528060138152602001724d6f64696679537061636553657474696e677360681b815250610401565b6102848585858561093f565b95945050505050565b6102c1604051806040016040528060138152602001724d6f64696679537061636553657474696e677360681b815250610401565b6102ca81610429565b6102d381610b11565b50565b61030a604051806040016040528060138152602001724d6f64696679537061636553657474696e677360681b815250610401565b61031382610429565b61031d8282610d75565b5050565b606061023c82610e60565b610360604051806040016040528060138152602001724d6f64696679537061636553657474696e677360681b815250610401565b61036982610429565b61031d8282610e74565b6103a7604051806040016040528060138152602001724d6f64696679537061636553657474696e677360681b815250610401565b6103b082610429565b61031d8282610f25565b6103ee604051806040016040528060138152602001724d6f64696679537061636553657474696e677360681b815250610401565b6103f782610429565b61031d8282610f5a565b61040c600082610f7f565b6102d357604051630ce39a4b60e21b815260040160405180910390fd5b6104537f672ef851d5f92307da037116e23aa9e31af7e1f7e3ca62c4e6d540631df3fd0182611003565b6102d35760405163a3f70f7b60e01b815260040160405180910390fd5b600061047b8661101e565b80518351919250906000816001600160401b0381111561049d5761049d6124b7565b6040519080825280602002602001820160405280156104c6578160200160208202803683370190505b50905060005b82811015610570576104fa8682815181106104e9576104e9612b08565b602002602001015160000151611048565b61052086828151811061050f5761050f612b08565b602002602001015160000151611111565b85818151811061053257610532612b08565b60200260200101516000015182828151811061055057610550612b08565b6001600160a01b03909216602092830291909101909101526001016104cc565b50861561059f576000898152600080516020612f248339815191526020526040902061059d888a83612ba0565b505b8551156105e5576000898152600080516020612f24833981519152602052604081206105cd90600201611179565b90506105d98a82610d75565b6105e38a88610e74565b505b816000036105f657505050506101e0565b80511561066f57805160005b848110156106355761062d8b87838151811061062057610620612b08565b6020026020010151611184565b600101610602565b5060005b8181101561066c576106648b84838151811061065757610657612b08565b60200260200101516111fc565b600101610639565b50505b60005b838110156106a55761069d85828151811061068f5761068f612b08565b60200260200101518b61126f565b600101610672565b5060005b8281101561074b5760008682815181106106c5576106c5612b08565b602002602001015160200151511115610743576106fe8682815181106106ed576106ed612b08565b6020026020010151602001516112d6565b61074386828151811061071357610713612b08565b6020026020010151600001518b88848151811061073257610732612b08565b6020026020010151602001516112f8565b6001016106a9565b50604051899033907f1aff41ff8e9139aae6bb355cc69107cda7e1d1dcd25511da436f3171bdbf77e690600090a3505050505050505050565b60606000610790611366565b8051909150806001600160401b038111156107ad576107ad6124b7565b60405190808252806020026020018201604052801561081257816020015b6107ff6040518060a00160405280600081526020016060815260200160001515815260200160608152602001606081525090565b8152602001906001900390816107cb5790505b50925060005b818110156108c05760008060008061084887868151811061083b5761083b612b08565b6020026020010151611391565b93509350935093506040518060a0016040528088878151811061086d5761086d612b08565b602002602001015181526020018581526020018415158152602001838152602001828152508886815181106108a4576108a4612b08565b6020026020010181905250848060010195505050505050610818565b50505090565b6108fa6040518060a00160405280600081526020016060815260200160001515815260200160608152602001606081525090565b60008060008061090986611391565b6040805160a0810182529a8b5260208b019490945291151592890192909252606088019190915260808701525093949350505050565b600061098385858080601f01602080910402602001604051908101604052809392919081815260200183838082843760009201919091525060029250611471915050565b81516000816001600160401b0381111561099f5761099f6124b7565b6040519080825280602002602001820160405280156109c8578160200160208202803683370190505b5090506109d361149a565b925060005b82811015610a96576109f58582815181106104e9576104e9612b08565b848181518110610a0757610a07612b08565b602002602001015160000151828281518110610a2557610a25612b08565b60200260200101906001600160a01b031690816001600160a01b031681525050610a5a8582815181106106ed576106ed612b08565b610a8e858281518110610a6f57610a6f612b08565b6020026020010151600001518587848151811061073257610732612b08565b6001016109d8565b50610ad987878080601f016020809104026020016040519081016040528093929190818152602001838380828437600092018290525092508991508590506114c0565b50604051839033907f20a7a288530dd94b1eccaa691a582ecfd7550c9dfcee78ddf50a97f774a2b14790600090a35050949350505050565b6000610b1c8261101e565b8051909150600080516020612f04833981519152610b5a7f672ef851d5f92307da037116e23aa9e31af7e1f7e3ca62c4e6d540631df3fd01856115e9565b506000848152600382016020526040812090610b7682826123c7565b60018201805460ff19169055600282016000610b928282612401565b50506004820160008181610ba6828261241f565b5050604080516020808201835260008083528b815260038901909152919091209450610bd793509150839050612c5f565b506000848152600382016020526040812060018101805460ff19169055610c00906002016115f5565b6000868152600384016020526040812091925090610c20906004016115f5565b905060005b82811015610c705760008781526003850160205260409020610c6790610c4e90600201836115ff565b600089815260038701602052604090206002019061160b565b50600101610c25565b5060005b81811015610cbf5760008781526003850160205260409020610cb690610c9d9060040183611617565b6000898152600387016020526040902060040190611623565b50600101610c74565b506000610ccb87611638565b805190915060005b81811015610d0657610cfe838281518110610cf057610cf0612b08565b60200260200101518a611724565b600101610cd3565b5060005b86811015610d3d57610d35888281518110610d2757610d27612b08565b60200260200101518a61126f565b600101610d0a565b50604051889033907f268a6f1b90f6f5ddf50cc736d36513e80cdc5fd56326bff71f335e8b4b61d05590600090a35050505050505050565b8051600080516020612f048339815191529060005b818110156101e057610db4848281518110610da757610da7612b08565b60200260200101516117b4565b610df7848281518110610dc957610dc9612b08565b60200260200101518460030160008881526020019081526020016000206002016117d590919063ffffffff16565b610e1457604051633e2b026160e01b815260040160405180910390fd5b610e57848281518110610e2957610e29612b08565b602002602001015184600301600088815260200190815260200160002060020161160b90919063ffffffff16565b50600101610d8a565b6060610e6b82611391565b50949350505050565b8051600080516020612f048339815191529060005b818110156101e057610ea6848281518110610da757610da7612b08565b610ebb848281518110610dc957610dc9612b08565b15610ed95760405163b0ab682160e01b815260040160405180910390fd5b610f1c848281518110610eee57610eee612b08565b60200260200101518460030160008881526020019081526020016000206002016117e190919063ffffffff16565b50600101610e89565b610f2e82610429565b8051610f3990611111565b610f478282600001516111fc565b61031d81600001518383602001516112f8565b8051610f6590611111565b610f73828260000151611184565b805161031d908361126f565b60003380610f8b6117ed565b6001600160a01b03161480610ffb57507fe17a067c7963a59b6dfd65d33b053fdbea1c56500e2aae4f976d9eda4da9eb005460ff16158015610ffb5750610ffb848285604051602001610fde9190612d1e565b604051602081830303815290604052610ff690612d3a565b6118b1565b949350505050565b600081815260018301602052604081205415155b9392505050565b6000818152600080516020612f248339815191526020526040902060609061023c90600401611b44565b6001600160a01b03811661106f57604051630706e15760e51b815260040160405180910390fd5b6040516301ffc9a760e01b8152637bc2cb4560e11b60048201526001600160a01b038216906301ffc9a790602401602060405180830381865afa9250505080156110d6575060408051601f3d908101601f191682019092526110d391810190612d5e565b60015b6110f35760405163f58a5f2760e01b815260040160405180910390fd5b8061031d5760405163f58a5f2760e01b815260040160405180910390fd5b7fa558e822bd359dacbe30f0da89cbfde5f95895b441e13a4864caec1423c9310061115c7fa558e822bd359dacbe30f0da89cbfde5f95895b441e13a4864caec1423c9310183611b51565b61031d5760405163017ab33760e71b815260040160405180910390fd5b606061023c82611b73565b6000828152600080516020612f2483398151915260205260409020600080516020612f04833981519152906111bc9060040183611b51565b6111d957604051632405297d60e11b815260040160405180910390fd5b600083815260038201602052604090206111f69060040183611623565b50505050565b6000828152600080516020612f2483398151915260205260409020600080516020612f04833981519152906112349060040183611b51565b156112525760405163fb5584f160e01b815260040160405180910390fd5b600083815260038201602052604090206111f69060040183611c50565b61127882611111565b60405163f0c111f960e01b8152600481018290526001600160a01b0383169063f0c111f990602401600060405180830381600087803b1580156112ba57600080fd5b505af11580156112ce573d6000803e3d6000fd5b505050505050565b80516000036102d3576040516319c6193b60e31b815260040160405180910390fd5b61130183611111565b604051633be2f95d60e21b81526001600160a01b0384169063ef8be5749061132f9085908590600401612d80565b600060405180830381600087803b15801561134957600080fd5b505af115801561135d573d6000803e3d6000fd5b50505050505050565b60606101f17f672ef851d5f92307da037116e23aa9e31af7e1f7e3ca62c4e6d540631df3fd01611b44565b6000818152600080516020612f2483398151915260205260408120805460609291839182919081906113c290612b1e565b80601f01602080910402602001604051908101604052809291908181526020018280546113ee90612b1e565b801561143b5780601f106114105761010080835404028352916020019161143b565b820191906000526020600020905b81548152906001019060200180831161141e57829003601f168201915b5050505060018301549196505060ff16935061145960028201611179565b925061146781600401611b44565b9150509193509193565b81518290821115611495576040516374eb20a760e01b815260040160405180910390fd5b505050565b600080516020612f048339815191528054600091906114ba906001612daf565b91505090565b600080516020612f04833981519152805460009190819083906114e290612dc2565b918290555091506114f66001820183611c65565b50600082815260038201602052604090206115118782612c5f565b5060008281526003820160205260409020600101805460ff191686151517905561153b8285610e74565b60005b83518110156115df5760006001600160a01b031684828151811061156457611564612b08565b60200260200101516001600160a01b03160361159357604051637442429b60e01b815260040160405180910390fd5b6115d68482815181106115a8576115a8612b08565b6020026020010151836003016000868152602001908152602001600020600401611c5090919063ffffffff16565b5060010161153e565b5050949350505050565b60006110178383611c71565b600061023c825490565b60606110178383611d64565b60006110178383611e16565b60006110178383611fcb565b6000611017836001600160a01b038416611c71565b6060600080516020612ee48339815191526000611654826115f5565b90506000816001600160401b03811115611670576116706124b7565b604051908082528060200260200182016040528015611699578160200160208202803683370190505b50935060005b828110156117095760006116b38583611617565b600081815260038701602052604090209091506116d09088611003565b15611700578086846116e181612dc2565b9550815181106116f3576116f3612b08565b6020026020010181815250505b5060010161169f565b508082111561171c578351818303900384525b505050919050565b61172d82611ff5565b6117368261202a565b60008281527f804ad633258ac9b908ae115a2763b3f6e04be3b1165402c872b25af51850430360205260409020600080516020612ee48339815191529061177d9083611003565b61179a576040516333cb039f60e11b815260040160405180910390fd5b600083815260038201602052604090206111f690836115e9565b80516000036102d35760405162ce76c160e41b815260040160405180910390fd5b6000611017838361208c565b600061101783836120b9565b6040805180820182527fd2f24d4f172e4e84e48e7c4125b6e904c29e5eba33ad4938fee51dd5dbd4b600546001600160a01b03168082527fd2f24d4f172e4e84e48e7c4125b6e904c29e5eba33ad4938fee51dd5dbd4b60154602080840182905284516331a9108f60e11b815260048101929092529351600094636352211e92602480820193918290030181865afa15801561188d573d6000803e3d6000fd5b505050506040513d601f19601f820116820180604052508101906114ba9190612ddb565b6000806118bd8461211b565b80519091506000806118cd6117ed565b90506000805b848110156119915760008682815181106118ef576118ef612b08565b60200260200101519050836001600160a01b031687838151811061191557611915612b08565b60200260200101516001600160a01b03160361193b576001975050505050505050611017565b611944816122a4565b15611988576001600160a01b03811660009081527fc21004fcc619240a31f006438274d15cd813308303284436eef6055f0fdcb60160205260409020546001955092505b506001016118d3565b5060008181527f49daf035076c43671ca9f9fb568d931e51ab7f9098a5a694781b45341112cf02602052604090205460ff16156119d657600095505050505050611017565b7fa558e822bd359dacbe30f0da89cbfde5f95895b441e13a4864caec1423c931006000611a227fa558e822bd359dacbe30f0da89cbfde5f95895b441e13a4864caec1423c931016115f5565b905060005b81811015611b325760008381611a406001830185611617565b6001600160a01b039081168252602080830193909352604091820160002082516060810184529054918216815260ff600160a01b83048116151594820194909452600160a81b909104909216158015918301829052919250611b12575080600001516001600160a01b0316630cf0b5338e8b8e6040518463ffffffff1660e01b8152600401611ad193929190612df8565b602060405180830381865afa158015611aee573d6000803e3d6000fd5b505050506040513d601f19601f82011682018060405250810190611b129190612d5e565b15611b295760019950505050505050505050611017565b50600101611a27565b5060009b9a5050505050505050505050565b60606000611017836122b7565b6001600160a01b03811660009081526001830160205260408120541515611017565b606081600001805480602002602001604051908101604052809291908181526020016000905b82821015611c45578382906000526020600020018054611bb890612b1e565b80601f0160208091040260200160405190810160405280929190818152602001828054611be490612b1e565b8015611c315780601f10611c0657610100808354040283529160200191611c31565b820191906000526020600020905b815481529060010190602001808311611c1457829003601f168201915b505050505081526020019060010190611b99565b505050509050919050565b6000611017836001600160a01b038416612313565b60006110178383612313565b60008181526001830160205260408120548015611d5a576000611c95600183612e21565b8554909150600090611ca990600190612e21565b9050808214611d0e576000866000018281548110611cc957611cc9612b08565b9060005260206000200154905080876000018481548110611cec57611cec612b08565b6000918252602080832090910192909255918252600188019052604090208390555b8554869080611d1f57611d1f612e34565b60019003818190600052602060002001600090559055856001016000868152602001908152602001600020600090556001935050505061023c565b600091505061023c565b6060826000018281548110611d7b57611d7b612b08565b906000526020600020018054611d9090612b1e565b80601f0160208091040260200160405190810160405280929190818152602001828054611dbc90612b1e565b8015611e095780601f10611dde57610100808354040283529160200191611e09565b820191906000526020600020905b815481529060010190602001808311611dec57829003601f168201915b5050505050905092915050565b6000808360010183604051611e2b9190612d1e565b908152602001604051809103902054905080600014611d5a576000611e51600183612e21565b8554909150600090611e6590600190612e21565b9050818114611f6c576000866000018281548110611e8557611e85612b08565b906000526020600020018054611e9a90612b1e565b80601f0160208091040260200160405190810160405280929190818152602001828054611ec690612b1e565b8015611f135780601f10611ee857610100808354040283529160200191611f13565b820191906000526020600020905b815481529060010190602001808311611ef657829003601f168201915b5050505050905080876000018481548110611f3057611f30612b08565b906000526020600020019081611f469190612c5f565b50838760010182604051611f5a9190612d1e565b90815260405190819003602001902055505b8554869080611f7d57611f7d612e34565b600190038181906000526020600020016000611f9991906123c7565b90558560010185604051611fad9190612d1e565b9081526020016040518091039020600090556001935050505061023c565b6000826000018281548110611fe257611fe2612b08565b9060005260206000200154905092915050565b61200d600080516020612ee483398151915282611003565b6102d35760405163560b4b4160e11b815260040160405180910390fd5b60008181527f804ad633258ac9b908ae115a2763b3f6e04be3b1165402c872b25af5185043026020526040902060010154600080516020612ee48339815191529060ff161561031d57604051636ce0028960e11b815260040160405180910390fd5b600082600101826040516120a09190612d1e565b9081526040519081900360200190205415159392505050565b60006120c5838361208c565b612113578254600181018455600084815260209020016120e58382612c5f565b50825460405160018501906120fb908590612d1e565b9081526040519081900360200190205550600161023c565b50600061023c565b606060006121507f438e2013c1d3a5bb9642eb30342f1d83ec0d3add620b71cdaf5043d9570b0a95546001600160a01b031690565b60405162468b7360e31b81526001600160a01b0385811660048301529192506000918316906302345b9890602401600060405180830381865afa15801561219b573d6000803e3d6000fd5b505050506040513d6000823e601f3d908101601f191682016040526121c39190810190612e4a565b805190915060006121d5826001612daf565b6001600160401b038111156121ec576121ec6124b7565b604051908082528060200260200182016040528015612215578160200160208202803683370190505b50905060005b8281101561226f5783818151811061223557612235612b08565b602002602001015182828151811061224f5761224f612b08565b6001600160a01b039092166020928302919091019091015260010161221b565b508581838151811061228357612283612b08565b6001600160a01b039092166020928302919091019091015295945050505050565b6000806122b08361235a565b1192915050565b60608160000180548060200260200160405190810160405280929190818152602001828054801561230757602002820191906000526020600020905b8154815260200190600101908083116122f3575b50505050509050919050565b60008181526001830160205260408120546121135750815460018181018455600084815260208082209093018490558454848252828601909352604090209190915561023c565b60006001600160a01b038216612383576040516323d3ad8160e21b815260040160405180910390fd5b506001600160a01b031660009081527f6569bde4a160c636ea8b8d11acb83a60d7fec0b8f2e09389306cba0e1340df0560205260409020546001600160401b031690565b5080546123d390612b1e565b6000825580601f106123e3575050565b601f0160209004906000526020600020908101906102d39190612439565b50805460008255906000526020600020908101906102d39190612452565b50805460008255906000526020600020908101906102d391905b5b8082111561244e576000815560010161243a565b5090565b8082111561244e57600061246682826123c7565b50600101612452565b60008083601f84011261248157600080fd5b5081356001600160401b0381111561249857600080fd5b6020830191508360208285010111156124b057600080fd5b9250929050565b634e487b7160e01b600052604160045260246000fd5b604051601f8201601f191681016001600160401b03811182821017156124f5576124f56124b7565b604052919050565b60006001600160401b03821115612516576125166124b7565b5060051b60200190565b60006001600160401b03831115612539576125396124b7565b61254c601f8401601f19166020016124cd565b905082815283838301111561256057600080fd5b828260208301376000602084830101529392505050565b600082601f83011261258857600080fd5b8135602061259d612598836124fd565b6124cd565b82815260059290921b840181019181810190868411156125bc57600080fd5b8286015b848110156126105780356001600160401b038111156125df5760008081fd5b8701603f810189136125f15760008081fd5b612602898683013560408401612520565b8452509183019183016125c0565b509695505050505050565b6001600160a01b03811681146102d357600080fd5b60006040828403121561264257600080fd5b604051604081016001600160401b038282108183111715612665576126656124b7565b81604052829350843591506126798261261b565b9082526020840135908082111561268f57600080fd5b508301601f810185136126a157600080fd5b6126b085823560208401612520565b6020830152505092915050565b600082601f8301126126ce57600080fd5b813560206126de612598836124fd565b82815260059290921b840181019181810190868411156126fd57600080fd5b8286015b848110156126105780356001600160401b038111156127205760008081fd5b61272e8986838b0101612630565b845250918301918301612701565b60008060008060006080868803121561275457600080fd5b8535945060208601356001600160401b038082111561277257600080fd5b61277e89838a0161246f565b9096509450604088013591508082111561279757600080fd5b6127a389838a01612577565b935060608801359150808211156127b957600080fd5b506127c6888289016126bd565b9150509295509295909350565b60005b838110156127ee5781810151838201526020016127d6565b50506000910152565b6000815180845261280f8160208601602086016127d3565b601f01601f19169290920160200192915050565b60008151808452602080850194506020840160005b8381101561285d5781516001600160a01b031687529582019590820190600101612838565b509495945050505050565b80518252600060208083015160a08286015261288760a08601826127f7565b9050604084015115156040860152606084015185820360608701528181518084528484019150848160051b850101858401935060005b828110156128eb57601f198683030184526128d98286516127f7565b948701949387019391506001016128bd565b506080880151955088810360808a01526129058187612823565b9998505050505050505050565b600060208083016020845280855180835260408601915060408160051b87010192506020870160005b8281101561296957603f19888603018452612957858351612868565b9450928501929085019060010161293b565b5092979650505050505050565b60006020828403121561298857600080fd5b5035919050565b6020815260006110176020830184612868565b600080600080606085870312156129b857600080fd5b84356001600160401b03808211156129cf57600080fd5b6129db8883890161246f565b909650945060208701359150808211156129f457600080fd5b612a0088838901612577565b93506040870135915080821115612a1657600080fd5b50612a23878288016126bd565b91505092959194509250565b60008060408385031215612a4257600080fd5b8235915060208301356001600160401b03811115612a5f57600080fd5b612a6b85828601612577565b9150509250929050565b600060208083016020845280855180835260408601915060408160051b87010192506020870160005b8281101561296957603f19888603018452612aba8583516127f7565b94509285019290850190600101612a9e565b60008060408385031215612adf57600080fd5b8235915060208301356001600160401b03811115612afc57600080fd5b612a6b85828601612630565b634e487b7160e01b600052603260045260246000fd5b600181811c90821680612b3257607f821691505b602082108103612b5257634e487b7160e01b600052602260045260246000fd5b50919050565b601f821115611495576000816000526020600020601f850160051c81016020861015612b815750805b601f850160051c820191505b818110156112ce57828155600101612b8d565b6001600160401b03831115612bb757612bb76124b7565b612bcb83612bc58354612b1e565b83612b58565b6000601f841160018114612bff5760008515612be75750838201355b600019600387901b1c1916600186901b1783556101e0565b600083815260209020601f19861690835b82811015612c305786850135825560209485019460019092019101612c10565b5086821015612c4d5760001960f88860031b161c19848701351681555b505060018560011b0183555050505050565b81516001600160401b03811115612c7857612c786124b7565b612c8c81612c868454612b1e565b84612b58565b602080601f831160018114612cc15760008415612ca95750858301515b600019600386901b1c1916600185901b1785556112ce565b600085815260208120601f198616915b82811015612cf057888601518255948401946001909101908401612cd1565b5085821015612d0e5787850151600019600388901b60f8161c191681555b5050505050600190811b01905550565b60008251612d308184602087016127d3565b9190910192915050565b80516020808301519190811015612b525760001960209190910360031b1b16919050565b600060208284031215612d7057600080fd5b8151801515811461101757600080fd5b828152604060208201526000610ffb60408301846127f7565b634e487b7160e01b600052601160045260246000fd5b8082018082111561023c5761023c612d99565b600060018201612dd457612dd4612d99565b5060010190565b600060208284031215612ded57600080fd5b81516110178161261b565b838152606060208201526000612e116060830185612823565b9050826040830152949350505050565b8181038181111561023c5761023c612d99565b634e487b7160e01b600052603160045260246000fd5b60006020808385031215612e5d57600080fd5b82516001600160401b03811115612e7357600080fd5b8301601f81018513612e8457600080fd5b8051612e92612598826124fd565b81815260059190911b82018301908381019087831115612eb157600080fd5b928401925b82841015612ed8578351612ec98161261b565b82529284019290840190612eb6565b97965050505050505056fe804ad633258ac9b908ae115a2763b3f6e04be3b1165402c872b25af518504300672ef851d5f92307da037116e23aa9e31af7e1f7e3ca62c4e6d540631df3fd00672ef851d5f92307da037116e23aa9e31af7e1f7e3ca62c4e6d540631df3fd03","linkReferences":{}},"methodIdentifiers":{"addPermissionsToRole(uint256,string[])":"b7515761","addRoleToEntitlement(uint256,(address,bytes))":"ba201ba8","createRole(string,string[],(address,bytes)[])":"8fcd793d","getPermissionsByRoleId(uint256)":"b4264233","getRoleById(uint256)":"784c872b","getRoles()":"71061398","removePermissionsFromRole(uint256,string[])":"9a8e4c3e","removeRole(uint256)":"92691821","removeRoleFromEntitlement(uint256,(address,bytes))":"dba81864","updateRole(uint256,string,string[],(address,bytes)[])":"4d8b50a2"},"id":176}