{"abi":[{"type":"function","name":"CLOCK_MODE","inputs":[],"outputs":[{"name":"","type":"string","internalType":"string"}],"stateMutability":"view"},{"type":"function","name":"DOMAIN_SEPARATOR","inputs":[],"outputs":[{"name":"result","type":"bytes32","internalType":"bytes32"}],"stateMutability":"view"},{"type":"function","name":"__ERC721A_init","inputs":[{"name":"name_","type":"string","internalType":"string"},{"name":"symbol_","type":"string","internalType":"string"}],"outputs":[],"stateMutability":"nonpayable"},{"type":"function","name":"__SpaceOwner_init","inputs":[{"name":"name","type":"string","internalType":"string"},{"name":"symbol","type":"string","internalType":"string"},{"name":"version","type":"string","internalType":"string"}],"outputs":[],"stateMutability":"nonpayable"},{"type":"function","name":"approve","inputs":[{"name":"to","type":"address","internalType":"address"},{"name":"tokenId","type":"uint256","internalType":"uint256"}],"outputs":[],"stateMutability":"payable"},{"type":"function","name":"balanceOf","inputs":[{"name":"owner","type":"address","internalType":"address"}],"outputs":[{"name":"","type":"uint256","internalType":"uint256"}],"stateMutability":"view"},{"type":"function","name":"clock","inputs":[],"outputs":[{"name":"","type":"uint48","internalType":"uint48"}],"stateMutability":"view"},{"type":"function","name":"delegate","inputs":[{"name":"delegatee","type":"address","internalType":"address"}],"outputs":[],"stateMutability":"nonpayable"},{"type":"function","name":"delegateBySig","inputs":[{"name":"delegatee","type":"address","internalType":"address"},{"name":"nonce","type":"uint256","internalType":"uint256"},{"name":"expiry","type":"uint256","internalType":"uint256"},{"name":"v","type":"uint8","internalType":"uint8"},{"name":"r","type":"bytes32","internalType":"bytes32"},{"name":"s","type":"bytes32","internalType":"bytes32"}],"outputs":[],"stateMutability":"nonpayable"},{"type":"function","name":"delegates","inputs":[{"name":"account","type":"address","internalType":"address"}],"outputs":[{"name":"","type":"address","internalType":"address"}],"stateMutability":"view"},{"type":"function","name":"eip712Domain","inputs":[],"outputs":[{"name":"fields","type":"bytes1","internalType":"bytes1"},{"name":"name","type":"string","internalType":"string"},{"name":"version","type":"string","internalType":"string"},{"name":"chainId","type":"uint256","internalType":"uint256"},{"name":"verifyingContract","type":"address","internalType":"address"},{"name":"salt","type":"bytes32","internalType":"bytes32"},{"name":"extensions","type":"uint256[]","internalType":"uint256[]"}],"stateMutability":"view"},{"type":"function","name":"getApproved","inputs":[{"name":"tokenId","type":"uint256","internalType":"uint256"}],"outputs":[{"name":"","type":"address","internalType":"address"}],"stateMutability":"view"},{"type":"function","name":"getFactory","inputs":[],"outputs":[{"name":"","type":"address","internalType":"address"}],"stateMutability":"view"},{"type":"function","name":"getPastTotalSupply","inputs":[{"name":"timepoint","type":"uint256","internalType":"uint256"}],"outputs":[{"name":"","type":"uint256","internalType":"uint256"}],"stateMutability":"view"},{"type":"function","name":"getPastVotes","inputs":[{"name":"account","type":"address","internalType":"address"},{"name":"timepoint","type":"uint256","internalType":"uint256"}],"outputs":[{"name":"","type":"uint256","internalType":"uint256"}],"stateMutability":"view"},{"type":"function","name":"getSpaceInfo","inputs":[{"name":"space","type":"address","internalType":"address"}],"outputs":[{"name":"","type":"tuple","internalType":"struct ISpaceOwnerBase.Space","components":[{"name":"name","type":"string","internalType":"string"},{"name":"uri","type":"string","internalType":"string"},{"name":"tokenId","type":"uint256","internalType":"uint256"},{"name":"networkId","type":"string","internalType":"string"},{"name":"createdAt","type":"uint256","internalType":"uint256"}]}],"stateMutability":"view"},{"type":"function","name":"getVotes","inputs":[{"name":"account","type":"address","internalType":"address"}],"outputs":[{"name":"","type":"uint256","internalType":"uint256"}],"stateMutability":"view"},{"type":"function","name":"isApprovedForAll","inputs":[{"name":"owner","type":"address","internalType":"address"},{"name":"operator","type":"address","internalType":"address"}],"outputs":[{"name":"","type":"bool","internalType":"bool"}],"stateMutability":"view"},{"type":"function","name":"mintSpace","inputs":[{"name":"networkId","type":"string","internalType":"string"},{"name":"name","type":"string","internalType":"string"},{"name":"uri","type":"string","internalType":"string"},{"name":"space","type":"address","internalType":"address"}],"outputs":[{"name":"tokenId","type":"uint256","internalType":"uint256"}],"stateMutability":"nonpayable"},{"type":"function","name":"name","inputs":[],"outputs":[{"name":"","type":"string","internalType":"string"}],"stateMutability":"view"},{"type":"function","name":"nextTokenId","inputs":[],"outputs":[{"name":"","type":"uint256","internalType":"uint256"}],"stateMutability":"view"},{"type":"function","name":"nonces","inputs":[{"name":"owner","type":"address","internalType":"address"}],"outputs":[{"name":"result","type":"uint256","internalType":"uint256"}],"stateMutability":"view"},{"type":"function","name":"ownerOf","inputs":[{"name":"tokenId","type":"uint256","internalType":"uint256"}],"outputs":[{"name":"","type":"address","internalType":"address"}],"stateMutability":"view"},{"type":"function","name":"safeTransferFrom","inputs":[{"name":"from","type":"address","internalType":"address"},{"name":"to","type":"address","internalType":"address"},{"name":"tokenId","type":"uint256","internalType":"uint256"}],"outputs":[],"stateMutability":"payable"},{"type":"function","name":"safeTransferFrom","inputs":[{"name":"from","type":"address","internalType":"address"},{"name":"to","type":"address","internalType":"address"},{"name":"tokenId","type":"uint256","internalType":"uint256"},{"name":"_data","type":"bytes","internalType":"bytes"}],"outputs":[],"stateMutability":"payable"},{"type":"function","name":"setApprovalForAll","inputs":[{"name":"operator","type":"address","internalType":"address"},{"name":"approved","type":"bool","internalType":"bool"}],"outputs":[],"stateMutability":"nonpayable"},{"type":"function","name":"setFactory","inputs":[{"name":"factory","type":"address","internalType":"address"}],"outputs":[],"stateMutability":"nonpayable"},{"type":"function","name":"symbol","inputs":[],"outputs":[{"name":"","type":"string","internalType":"string"}],"stateMutability":"view"},{"type":"function","name":"tokenURI","inputs":[{"name":"tokenId","type":"uint256","internalType":"uint256"}],"outputs":[{"name":"","type":"string","internalType":"string"}],"stateMutability":"view"},{"type":"function","name":"totalSupply","inputs":[],"outputs":[{"name":"","type":"uint256","internalType":"uint256"}],"stateMutability":"view"},{"type":"function","name":"transferFrom","inputs":[{"name":"from","type":"address","internalType":"address"},{"name":"to","type":"address","internalType":"address"},{"name":"tokenId","type":"uint256","internalType":"uint256"}],"outputs":[],"stateMutability":"payable"},{"type":"function","name":"updateSpaceInfo","inputs":[{"name":"space","type":"address","internalType":"address"},{"name":"name","type":"string","internalType":"string"},{"name":"uri","type":"string","internalType":"string"}],"outputs":[],"stateMutability":"nonpayable"},{"type":"event","name":"Approval","inputs":[{"name":"owner","type":"address","indexed":true,"internalType":"address"},{"name":"approved","type":"address","indexed":true,"internalType":"address"},{"name":"tokenId","type":"uint256","indexed":true,"internalType":"uint256"}],"anonymous":false},{"type":"event","name":"ApprovalForAll","inputs":[{"name":"owner","type":"address","indexed":true,"internalType":"address"},{"name":"operator","type":"address","indexed":true,"internalType":"address"},{"name":"approved","type":"bool","indexed":false,"internalType":"bool"}],"anonymous":false},{"type":"event","name":"ConsecutiveTransfer","inputs":[{"name":"fromTokenId","type":"uint256","indexed":true,"internalType":"uint256"},{"name":"toTokenId","type":"uint256","indexed":false,"internalType":"uint256"},{"name":"from","type":"address","indexed":true,"internalType":"address"},{"name":"to","type":"address","indexed":true,"internalType":"address"}],"anonymous":false},{"type":"event","name":"DelegateChanged","inputs":[{"name":"delegator","type":"address","indexed":true,"internalType":"address"},{"name":"fromDelegate","type":"address","indexed":true,"internalType":"address"},{"name":"toDelegate","type":"address","indexed":true,"internalType":"address"}],"anonymous":false},{"type":"event","name":"DelegateVotesChanged","inputs":[{"name":"delegate","type":"address","indexed":true,"internalType":"address"},{"name":"previousBalance","type":"uint256","indexed":false,"internalType":"uint256"},{"name":"newBalance","type":"uint256","indexed":false,"internalType":"uint256"}],"anonymous":false},{"type":"event","name":"EIP712DomainChanged","inputs":[],"anonymous":false},{"type":"event","name":"GuardianUpdated","inputs":[{"name":"caller","type":"address","indexed":true,"internalType":"address"},{"name":"enabled","type":"bool","indexed":true,"internalType":"bool"},{"name":"cooldown","type":"uint256","indexed":false,"internalType":"uint256"},{"name":"timestamp","type":"uint256","indexed":false,"internalType":"uint256"}],"anonymous":false},{"type":"event","name":"Initialized","inputs":[{"name":"version","type":"uint32","indexed":false,"internalType":"uint32"}],"anonymous":false},{"type":"event","name":"InterfaceAdded","inputs":[{"name":"interfaceId","type":"bytes4","indexed":true,"internalType":"bytes4"}],"anonymous":false},{"type":"event","name":"InterfaceRemoved","inputs":[{"name":"interfaceId","type":"bytes4","indexed":true,"internalType":"bytes4"}],"anonymous":false},{"type":"event","name":"OwnershipTransferred","inputs":[{"name":"previousOwner","type":"address","indexed":true,"internalType":"address"},{"name":"newOwner","type":"address","indexed":true,"internalType":"address"}],"anonymous":false},{"type":"event","name":"SpaceOwner__SetFactory","inputs":[{"name":"factory","type":"address","indexed":false,"internalType":"address"}],"anonymous":false},{"type":"event","name":"SpaceOwner__UpdateSpace","inputs":[{"name":"space","type":"address","indexed":true,"internalType":"address"}],"anonymous":false},{"type":"event","name":"Transfer","inputs":[{"name":"from","type":"address","indexed":true,"internalType":"address"},{"name":"to","type":"address","indexed":true,"internalType":"address"},{"name":"tokenId","type":"uint256","indexed":true,"internalType":"uint256"}],"anonymous":false},{"type":"error","name":"AlreadyDisabled","inputs":[]},{"type":"error","name":"AlreadyEnabled","inputs":[]},{"type":"error","name":"ApprovalCallerNotOwnerNorApproved","inputs":[]},{"type":"error","name":"ApprovalQueryForNonexistentToken","inputs":[]},{"type":"error","name":"BalanceQueryForZeroAddress","inputs":[]},{"type":"error","name":"ECDSAInvalidSignature","inputs":[]},{"type":"error","name":"ECDSAInvalidSignatureLength","inputs":[{"name":"length","type":"uint256","internalType":"uint256"}]},{"type":"error","name":"ECDSAInvalidSignatureS","inputs":[{"name":"s","type":"bytes32","internalType":"bytes32"}]},{"type":"error","name":"GuardianEnabled","inputs":[]},{"type":"error","name":"Initializable_AlreadyInitialized","inputs":[{"name":"version","type":"uint32","internalType":"uint32"}]},{"type":"error","name":"Initializable_InInitializingState","inputs":[]},{"type":"error","name":"Initializable_NotInInitializingState","inputs":[]},{"type":"error","name":"Introspection_AlreadySupported","inputs":[]},{"type":"error","name":"Introspection_NotSupported","inputs":[]},{"type":"error","name":"InvalidAccountNonce","inputs":[{"name":"account","type":"address","internalType":"address"},{"name":"currentNonce","type":"uint256","internalType":"uint256"}]},{"type":"error","name":"MintERC2309QuantityExceedsLimit","inputs":[]},{"type":"error","name":"MintToZeroAddress","inputs":[]},{"type":"error","name":"MintZeroQuantity","inputs":[]},{"type":"error","name":"NotExternalAccount","inputs":[]},{"type":"error","name":"Ownable__NotOwner","inputs":[{"name":"account","type":"address","internalType":"address"}]},{"type":"error","name":"Ownable__ZeroAddress","inputs":[]},{"type":"error","name":"OwnerQueryForNonexistentToken","inputs":[]},{"type":"error","name":"OwnershipNotInitializedForExtraData","inputs":[]},{"type":"error","name":"SafeCastOverflowedUintDowncast","inputs":[{"name":"bits","type":"uint8","internalType":"uint8"},{"name":"value","type":"uint256","internalType":"uint256"}]},{"type":"error","name":"SpaceOwner__OnlyFactoryAllowed","inputs":[]},{"type":"error","name":"SpaceOwner__OnlySpaceOwnerAllowed","inputs":[]},{"type":"error","name":"TransferCallerNotOwnerNorApproved","inputs":[]},{"type":"error","name":"TransferFromIncorrectOwner","inputs":[]},{"type":"error","name":"TransferToNonERC721ReceiverImplementer","inputs":[]},{"type":"error","name":"TransferToZeroAddress","inputs":[]},{"type":"error","name":"URIQueryForNonexistentToken","inputs":[]},{"type":"error","name":"Validator__InvalidAddress","inputs":[]},{"type":"error","name":"Validator__InvalidStringLength","inputs":[]}],"bytecode":{"object":"0x60806040523480156200001157600080fd5b506200001c62000022565b620000ca565b7f2d0d21306acfe8e9bb163a4573e95aff6cef95dc1102c6a16d5f19eac08cc4de8054640100000000900460ff16156200006f576040516366008a2d60e01b815260040160405180910390fd5b805463ffffffff9081161015620000c757805463ffffffff191663ffffffff90811782556040519081527fe9c9b456cb2994b80aeef036cf59d26e9617df80f816a6ee5a5b4166e07e2f5c9060200160405180910390a15b50565b613afb80620000da6000396000f3fe6080604052600436106101e35760003560e01c806375794a3c11610102578063a22cb46511610095578063cef3045c11610064578063cef3045c14610546578063d2f01f1914610566578063d7a901d314610586578063e985e9c5146105a657600080fd5b8063a22cb465146104d3578063b88d4fde146104f3578063c3cda52014610506578063c87b56dd1461052657600080fd5b80638e539e8c116100d15780638e539e8c1461045257806391ddadf41461047257806395d89b411461049e5780639ab24eb0146104b357600080fd5b806375794a3c146103e05780637ecebe00146103f557806384b0196e1461041557806388cc58e41461043d57600080fd5b806342842e0e1161017a5780635c19a95c116101495780635c19a95c146103535780636352211e146103735780636a9a38e61461039357806370a08231146103c057600080fd5b806342842e0e146102eb5780634bf5d7e9146102fe578063587cde1e146103135780635bb478081461033357600080fd5b806323b872dd116101b657806323b872dd146102835780633644e515146102965780633953801b146102ab5780633a46b1a8146102cb57600080fd5b806306fdde03146101e8578063081812fc14610213578063095ea7b31461024b57806318160ddd14610260575b600080fd5b3480156101f457600080fd5b506101fd6105d6565b60405161020a91906130f5565b60405180910390f35b34801561021f57600080fd5b5061023361022e366004613108565b610671565b6040516001600160a01b03909116815260200161020a565b61025e610259366004613138565b610682565b005b34801561026c57600080fd5b506102756106ca565b60405190815260200161020a565b61025e610291366004613162565b6106d9565b3480156102a257600080fd5b506102756108e9565b3480156102b757600080fd5b5061025e6102c636600461324a565b6108f3565b3480156102d757600080fd5b506102756102e6366004613138565b61090c565b61025e6102f9366004613162565b61091f565b34801561030a57600080fd5b506101fd61093a565b34801561031f57600080fd5b5061023361032e3660046132be565b610944565b34801561033f57600080fd5b5061025e61034e3660046132be565b61094f565b34801561035f57600080fd5b5061025e61036e3660046132be565b6109ac565b34801561037f57600080fd5b5061023361038e366004613108565b6109b6565b34801561039f57600080fd5b506103b36103ae3660046132be565b6109c1565b60405161020a91906132d9565b3480156103cc57600080fd5b506102756103db3660046132be565b6109fc565b3480156103ec57600080fd5b50610275610a07565b34801561040157600080fd5b506102756104103660046132be565b610a11565b34801561042157600080fd5b5061042a610a4e565b60405161020a9796959493929190613352565b34801561044957600080fd5b50610233610b11565b34801561045e57600080fd5b5061027561046d366004613108565b610b32565b34801561047e57600080fd5b50610487610b3d565b60405165ffffffffffff909116815260200161020a565b3480156104aa57600080fd5b506101fd610b47565b3480156104bf57600080fd5b506102756104ce3660046132be565b610b5f565b3480156104df57600080fd5b5061025e6104ee3660046133eb565b610b6a565b61025e610501366004613427565b610ba3565b34801561051257600080fd5b5061025e6105213660046134a3565b610bed565b34801561053257600080fd5b506101fd610541366004613108565b610bfb565b34801561055257600080fd5b50610275610561366004613503565b610c2c565b34801561057257600080fd5b5061025e61058136600461359c565b610c96565b34801561059257600080fd5b5061025e6105a1366004613600565b610cd7565b3480156105b257600080fd5b506105c66105c136600461364f565b610dc2565b604051901515815260200161020a565b60606105e0610dce565b60020180546105ee90613682565b80601f016020809104026020016040519081016040528092919081815260200182805461061a90613682565b80156106675780601f1061063c57610100808354040283529160200191610667565b820191906000526020600020905b81548152906001019060200180831161064a57829003601f168201915b5050505050905090565b600061067c82610df2565b92915050565b6001600160a01b0382161580159061069e575061069e33610e3f565b156106bc57604051638043dfaf60e01b815260040160405180910390fd5b6106c68282610ebb565b5050565b60006106d4610ec7565b905090565b60006106e482610ee6565b9050836001600160a01b0316816001600160a01b0316146107175760405162a1148160e81b815260040160405180910390fd5b60008061072384610f8b565b9150915061074881876107333390565b6001600160a01b039081169116811491141790565b610773576107568633610dc2565b61077357604051632ce44b5f60e11b815260040160405180910390fd5b6001600160a01b03851661079a57604051633a954ecd60e21b815260040160405180910390fd5b6107a78686866001610fb3565b80156107b257600082555b6107ba610dce565b6001600160a01b03871660009081526005919091016020526040902080546000190190556107e6610dce565b6001600160a01b03861660008181526005929092016020526040909120805460010190554260a01b17600160e11b1761081d610dce565b60008681526004919091016020526040812091909155600160e11b84169003610893576001840161084c610dce565b6000828152600491909101602052604081205490036108915761086d610dce565b548114610891578361087d610dce565b600083815260049190910160205260409020555b505b83856001600160a01b0316876001600160a01b03167fddf252ad1be2c89b69c2b068fc378daa952ba7f163c4a11628f55a4df523b3ef60405160405180910390a46108e18686866001610ff2565b505050505050565b60006106d4610ffd565b6108fc83611007565b610907838383611044565b505050565b600061091883836110f7565b9392505050565b61090783838360405180602001604052806000815250610ba3565b60606106d4611195565b600061067c8261122d565b7fa7c3be20e3a76821507555109752fad8a6630ef0362a34dcfcdfef83c99a2537546001600160a01b031633146109a0576040516365f4906560e01b81523360048201526024015b60405180910390fd5b6109a98161126a565b50565b6109a933826112d4565b600061067c82610ee6565b6109f36040518060a0016040528060608152602001606081526020016000815260200160608152602001600081525090565b61067c8261136e565b600061067c826115c5565b60006106d461162e565b6001600160a01b03811660009081527f2049909b9faa0ec75b0ddea779633de6857cef26e9bbc36588098c42dd43bf0e602052604081205461067c565b600060608082808083600080516020613a5b83398151915254158015610a9357507f3a497e775dc7c283402f0d3c39c5f0ea53870eb15ab2dddfde5a1162a84c336d54155b610ad75760405162461bcd60e51b81526020600482015260156024820152741152540dcc4c8e88155b9a5b9a5d1a585b1a5e9959605a1b6044820152606401610997565b610adf61163e565b610ae7611654565b60408051600080825260208201909252600f60f81b9b939a50919850469750309650945092509050565b60006106d4600080516020613adb833981519152546001600160a01b031690565b600061067c8261166a565b60006106d4611703565b6060610b51610dce565b60030180546105ee90613682565b600061067c8261170e565b808015610b7b5750610b7b33610e3f565b15610b9957604051638043dfaf60e01b815260040160405180910390fd5b6106c6828261173c565b610bae8484846106d9565b6001600160a01b0383163b15610be757610bca848484846117b9565b610be7576040516368d2bf6b60e11b815260040160405180910390fd5b50505050565b6108e18686868686866118a4565b6060610c068261198d565b610c2357604051630a14c4b560e41b815260040160405180910390fd5b61067c826119c9565b600080600080516020613adb83398151915280549091506001600160a01b03163314610c6b5760405163443e750b60e11b815260040160405180910390fd5b610c7361162e565b9150610c828686868587611c87565b610c8d336001611db5565b50949350505050565b600080516020613a3b83398151915254600160201b900460ff16610ccd57604051630ef4733760e31b815260040160405180910390fd5b6106c68282611f05565b600080516020613a3b8339815191528054600160201b900460ff161580610d0157303b1515610d10565b8154600163ffffffff90911610155b15610d39578154604051630a8ef77f60e31b815263ffffffff9091166004820152602401610997565b815463ffffffff191660011782558015610d6057815464ff000000001916600160201b1782555b610d6a8585611f05565b610d748584611f66565b8015610dbb57815464ff0000000019168255604051600181527fe9c9b456cb2994b80aeef036cf59d26e9617df80f816a6ee5a5b4166e07e2f5c9060200160405180910390a15b5050505050565b60006109188383611fa7565b7f234d8962d7c9a6a6604d7f98797e6ad6d7a886804f7409feb26422e27bf8125490565b6000610dfd8261198d565b610e1a576040516333d1c03960e21b815260040160405180910390fd5b610e22610dce565b60009283526006016020525060409020546001600160a01b031690565b60007f1f550ad653d7011dd740783aaa6c0d6cffff72baffc3774a51d0ca24f410f1066001600160a01b0383163b15801561091857506001600160a01b0383166000908152600182016020526040902054158061091857506001600160a01b038316600090815260018201602052604090205442109392505050565b6106c682826001611fe4565b600080610ed2610dce565b60010154610ede610dce565b540303919050565b6000610ef0610dce565b600083815260049190910160205260408120549150600160e01b82169003610f725780600003610f6d57610f22610dce565b548210610f4257604051636f96cda160e11b815260040160405180910390fd5b610f4a610dce565b600019909201600081815260049390930160205260409092205490508015610f42575b919050565b604051636f96cda160e11b815260040160405180910390fd5b6000806000610f98610dce565b60009485526006016020525050604090912080549092909150565b6001600160a01b03841615801590610fcf5750610fcf84610e3f565b15610fed57604051638043dfaf60e01b815260040160405180910390fd5b610be7565b610fed848483612099565b60006106d461213b565b3361101d6110148361136e565b604001516109b6565b6001600160a01b0316146109a95760405163dbfcf17d60e01b815260040160405180910390fd5b61104f8260026121af565b61105a8160016121af565b6001600160a01b03831660009081527fdad5b48f65ad2473122b651d896ac9615de31ad29131897fe257acecc069b14760205260409020600080516020613adb83398151915290806110ac8582613704565b50600181016110bb8482613704565b506040516001600160a01b038616907f66da702131703ee5e745ecf2f5b98311caa00729edd55541baad49289fc42ed890600090a25050505050565b6000611101611703565b65ffffffffffff16821061114e5760405162461bcd60e51b81526020600482015260146024820152730566f7465733a20667574757265206c6f6f6b75760641b6044820152606401610997565b61118561115a836121d3565b6001600160a01b0385166000908152600080516020613abb8339815191526020526040902090612208565b6001600160e01b03169392505050565b6060436111a0611703565b65ffffffffffff16146111f55760405162461bcd60e51b815260206004820152601860248201527f566f7465733a2062726f6b656e20636c6f636b206d6f646500000000000000006044820152606401610997565b5060408051808201909152601d81527f6d6f64653d626c6f636b6e756d6265722666726f6d3d64656661756c74000000602082015290565b6001600160a01b0390811660009081527f423fcc3514229d79a30fb79b40a232f70b3fabdf664a75db0859c67848497f6560205260409020541690565b611273816122bc565b600080516020613adb83398151915280546001600160a01b0383166001600160a01b03199091168117825560408051918252517f64c14256e532eac2ec90ddc4973ed2d3f5623faf7951d90eec38f9b7812f99a79181900360200190a15050565b60006112df8361122d565b6001600160a01b0384811660008181527f423fcc3514229d79a30fb79b40a232f70b3fabdf664a75db0859c67848497f65602052604080822080546001600160a01b031916888616908117909155905194955093928516927f3134e8a2e6d97e929a7e54011ea5485d7d196dd5f0ba4d4ef95803e8e3fc257f9190a46109078183611369866122e3565b6122ee565b6113a06040518060a0016040528060608152602001606081526020016000815260200160608152602001600081525090565b6001600160a01b03821660009081527fdad5b48f65ad2473122b651d896ac9615de31ad29131897fe257acecc069b147602052604090819020815160a081019092528054600080516020613adb8339815191529291908290829061140390613682565b80601f016020809104026020016040519081016040528092919081815260200182805461142f90613682565b801561147c5780601f106114515761010080835404028352916020019161147c565b820191906000526020600020905b81548152906001019060200180831161145f57829003601f168201915b5050505050815260200160018201805461149590613682565b80601f01602080910402602001604051908101604052809291908181526020018280546114c190613682565b801561150e5780601f106114e35761010080835404028352916020019161150e565b820191906000526020600020905b8154815290600101906020018083116114f157829003601f168201915b505050505081526020016002820154815260200160038201805461153190613682565b80601f016020809104026020016040519081016040528092919081815260200182805461155d90613682565b80156115aa5780601f1061157f576101008083540402835291602001916115aa565b820191906000526020600020905b81548152906001019060200180831161158d57829003601f168201915b50505050508152602001600482015481525050915050919050565b60006001600160a01b0382166115ee576040516323d3ad8160e21b815260040160405180910390fd5b67ffffffffffffffff6115ff610dce565b6005016000846001600160a01b03166001600160a01b0316815260200190815260200160002054169050919050565b6000611638610dce565b54919050565b6060600080516020613a5b8339815191526105e0565b6060600080516020613a5b833981519152610b51565b6000611674611703565b65ffffffffffff1682106116c15760405162461bcd60e51b81526020600482015260146024820152730566f7465733a20667574757265206c6f6f6b75760641b6044820152606401610997565b6116f46116cd836121d3565b7f423fcc3514229d79a30fb79b40a232f70b3fabdf664a75db0859c67848497f6790612208565b6001600160e01b031692915050565b60006106d44361246f565b6001600160a01b0381166000908152600080516020613abb833981519152602052604081206116f4906124a2565b80611745610dce565b336000818152600792909201602090815260408084206001600160a01b03881680865290835293819020805460ff19169515159590951790945592518415158152919290917f17307eab39ab6107e8899845ad3d59bd9653f200f220920489ca2b5937696c31910160405180910390a35050565b604051630a85bd0160e11b81526000906001600160a01b0385169063150b7a02906117ee9033908990889088906004016137c4565b6020604051808303816000875af1925050508015611829575060408051601f3d908101601f1916820190925261182691810190613801565b60015b611887573d808015611857576040519150601f19603f3d011682016040523d82523d6000602084013e61185c565b606091505b50805160000361187f576040516368d2bf6b60e11b815260040160405180910390fd5b805181602001fd5b6001600160e01b031916630a85bd0160e11b149050949350505050565b834211156118f45760405162461bcd60e51b815260206004820152601860248201527f566f7465733a207369676e6174757265206578706972656400000000000000006044820152606401610997565b604080517fe48329057bfd03d55e49b547132e39cffd9c1820ad7b9d4c5307691425d15adf60208201526001600160a01b03881691810191909152606081018690526080810185905260009061196e906119669060a001604051602081830303815290604052805190602001206124db565b858585612508565b905061197a8187612536565b61198481886112d4565b50505050505050565b6000611997610dce565b548210801561067c5750600160e01b6119ae610dce565b60008481526004919091016020526040902054161592915050565b60008181527fdad5b48f65ad2473122b651d896ac9615de31ad29131897fe257acecc069b1466020526040902054606090600080516020613adb833981519152906001600160a01b031680611a2f57505060408051602081019091526000815292915050565b6001600160a01b0381166000908152600283016020526040808220815160a08101909252805482908290611a6290613682565b80601f0160208091040260200160405190810160405280929190818152602001828054611a8e90613682565b8015611adb5780601f10611ab057610100808354040283529160200191611adb565b820191906000526020600020905b815481529060010190602001808311611abe57829003601f168201915b50505050508152602001600182018054611af490613682565b80601f0160208091040260200160405190810160405280929190818152602001828054611b2090613682565b8015611b6d5780601f10611b4257610100808354040283529160200191611b6d565b820191906000526020600020905b815481529060010190602001808311611b5057829003601f168201915b5050505050815260200160028201548152602001600382018054611b9090613682565b80601f0160208091040260200160405190810160405280929190818152602001828054611bbc90613682565b8015611c095780601f10611bde57610100808354040283529160200191611c09565b820191906000526020600020905b815481529060010190602001808311611bec57829003601f168201915b505050505081526020016004820154815250509050611c5e81600001518260200151611c3884608001516125a8565b604051602001611c4a9392919061382b565b60405160208183030381529060405261263b565b604051602001611c6e919061390d565b6040516020818303038152906040529350505050919050565b611c928460026121af565b611c9d8360006121af565b611ca88560016121af565b611cb1816122bc565b60008281527fdad5b48f65ad2473122b651d896ac9615de31ad29131897fe257acecc069b1466020908152604080832080546001600160a01b0319166001600160a01b038616908117909155815160a081018352888152808401889052808301879052606081018a90524260808201529084527fdad5b48f65ad2473122b651d896ac9615de31ad29131897fe257acecc069b1479092529091208151600080516020613adb8339815191529291908190611d6b9082613704565b5060208201516001820190611d809082613704565b506040820151600282015560608201516003820190611d9f9082613704565b5060808201518160040155905050505050505050565b6000611dbf610dce565b5490506000829003611de45760405163b562e8dd60e01b815260040160405180910390fd5b611df16000848385610fb3565b680100000000000000018202611e05610dce565b6001600160a01b038516600081815260059290920160205260409091208054929092019091554260a01b6001841460e11b1717611e40610dce565b600083815260049190910160205260408120919091556001600160a01b0384169083830190839083907fddf252ad1be2c89b69c2b068fc378daa952ba7f163c4a11628f55a4df523b3ef8180a4600183015b818114611eca57808360007fddf252ad1be2c89b69c2b068fc378daa952ba7f163c4a11628f55a4df523b3ef600080a4600101611e92565b5081600003611eeb57604051622e076360e81b815260040160405180910390fd5b80611ef4610dce565b555061090790506000848385610ff2565b600080516020613a3b83398151915254600160201b900460ff16611f3c57604051630ef4733760e31b815260040160405180910390fd5b611f4c6380ac58cd60e01b6127a0565b611f5c635b5e139f60e01b6127a0565b6106c6828261287e565b600080516020613a3b83398151915254600160201b900460ff16611f9d57604051630ef4733760e31b815260040160405180910390fd5b6106c682826128b0565b6000611fb1610dce565b6001600160a01b039384166000908152600791909101602090815260408083209490951682529290925250205460ff1690565b6000611fef836109b6565b9050811561202e57336001600160a01b0382161461202e576120118133611fa7565b61202e576040516367d9dca160e11b815260040160405180910390fd5b83612037610dce565b6000858152600691909101602052604080822080546001600160a01b0319166001600160a01b0394851617905551859287811692908516917f8c5be1e5ebec7d5bd14f71427d1e84f3dd0314c0f7b2291e5b200ac8c7c3b9259190a450505050565b6001600160a01b0383166120df576120dc7f423fcc3514229d79a30fb79b40a232f70b3fabdf664a75db0859c67848497f676129426120d78461294e565b612982565b50505b6001600160a01b0382166121205761211d7f423fcc3514229d79a30fb79b40a232f70b3fabdf664a75db0859c67848497f676129cb6120d78461294e565b50505b61090761212c8461122d565b6121358461122d565b836122ee565b60007f8b73c3c69bb8fe3d512ecc4cf759cc79239f7b179b0ffacaa9a75d522b39400f6121666129d7565b61216e612a3d565b60408051602081019490945283019190915260608201524660808201523060a082015260c00160405160208183030381529060405280519060200120905090565b81518290821115610907576040516374eb20a760e01b815260040160405180910390fd5b600063ffffffff821115612204576040516306dfcc6560e41b81526020600482015260248101839052604401610997565b5090565b81546000908181600581111561226557600061222384612a8d565b61222d9085613968565b60008881526020902090915081015463ffffffff908116908716101561225557809150612263565b61226081600161397b565b92505b505b600061227387878585612b75565b905080156122ae576122988761228a600184613968565b600091825260209091200190565b54600160201b90046001600160e01b03166122b1565b60005b979650505050505050565b6001600160a01b0381166109a9576040516302e47d1560e41b815260040160405180910390fd5b600061067c826109fc565b816001600160a01b0316836001600160a01b0316141580156123105750600081115b15610907576001600160a01b038316156123c0576001600160a01b0383166000908152600080516020613abb83398151915260205260408120819061235b906129cb6120d78661294e565b6001600160e01b031691506001600160e01b03169150846001600160a01b03167fdec2bacdd2f05b59de34da9b523dff8be42e5e38e818c82fdb0bae774387a72483836040516123b5929190918252602082015260400190565b60405180910390a250505b6001600160a01b03821615610907576001600160a01b0382166000908152600080516020613abb833981519152602052604081208190612406906129426120d78661294e565b6001600160e01b031691506001600160e01b03169150836001600160a01b03167fdec2bacdd2f05b59de34da9b523dff8be42e5e38e818c82fdb0bae774387a7248383604051612460929190918252602082015260400190565b60405180910390a25050505050565b600065ffffffffffff821115612204576040516306dfcc6560e41b81526030600482015260248101839052604401610997565b805460009080156124d2576124bc8361228a600184613968565b54600160201b90046001600160e01b0316610918565b60009392505050565b600061067c6124e8610ffd565b8360405161190160f01b8152600281019290925260228201526042902090565b60008060008061251a88888888612bd3565b92509250925061252a8282612ca2565b50909695505050505050565b6001600160a01b03821660009081527f2049909b9faa0ec75b0ddea779633de6857cef26e9bbc36588098c42dd43bf0e60205260409020805460018101909155818114610907576040516301d4b62360e61b81526001600160a01b038416600482015260248101829052604401610997565b606060006125b583612d5b565b600101905060008167ffffffffffffffff8111156125d5576125d561319e565b6040519080825280601f01601f1916602001820160405280156125ff576020820181803683370190505b5090508181016020015b600019016f181899199a1a9b1b9c1cb0b131b232b360811b600a86061a8153600a850494508461260957509392505050565b6060815160000361265a57505060408051602081019091526000815290565b6000604051806060016040528060408152602001613a7b6040913990506000600384516002612689919061397b565b61269391906139a4565b61269e9060046139c6565b905060006126ad82602061397b565b67ffffffffffffffff8111156126c5576126c561319e565b6040519080825280601f01601f1916602001820160405280156126ef576020820181803683370190505b509050818152600183018586518101602084015b8183101561275b576003830192508251603f8160121c168501518253600182019150603f81600c1c168501518253600182019150603f8160061c168501518253600182019150603f8116850151825350600101612703565b600389510660018114612775576002811461278657612792565b613d3d60f01b600119830152612792565b603d60f81b6000198301525b509398975050505050505050565b6001600160e01b0319811660009081527fbc7de460bcfb6afd0c415c8c610d408bd914b18d7d0feec0da9e25348087a5c4602052604090205460ff16151560011461282d576001600160e01b0319811660009081527fbc7de460bcfb6afd0c415c8c610d408bd914b18d7d0feec0da9e25348087a5c460205260409020805460ff19166001179055612846565b604051637967f77d60e11b815260040160405180910390fd5b6040516001600160e01b03198216907f78f84e5b1c5c05be2b5ad3800781dd404d6d6c6302bc755c0fe20f58a33a7f2290600090a250565b6000612888610dce565b9050600281016128988482613704565b50600381016128a78382613704565b50600090555050565b7f3a497e775dc7c283402f0d3c39c5f0ea53870eb15ab2dddfde5a1162a84c336e6128db8382613704565b507f3a497e775dc7c283402f0d3c39c5f0ea53870eb15ab2dddfde5a1162a84c336f6129078282613704565b50506000600080516020613a5b8339815191528190557f3a497e775dc7c283402f0d3c39c5f0ea53870eb15ab2dddfde5a1162a84c336d5550565b600061091882846139dd565b60006001600160e01b03821115612204576040516306dfcc6560e41b815260e0600482015260248101839052604401610997565b6000806129be6129a0612993611703565b65ffffffffffff166121d3565b6129b66129ac886124a2565b868863ffffffff16565b879190612e33565b915091505b935093915050565b60006109188284613a04565b6000806129e261163e565b8051909150156129f9578051602090910120919050565b600080516020613a5b833981519152548015612a155792915050565b7fc5d2460186f7233c927e7db2dcc703c0e500b653ca82273b7bfad8045d85a4709250505090565b600080612a48611654565b805190915015612a5f578051602090910120919050565b7f3a497e775dc7c283402f0d3c39c5f0ea53870eb15ab2dddfde5a1162a84c336d548015612a155792915050565b600081600003612a9f57506000919050565b60006001612aac84612e41565b901c6001901b90506001818481612ac557612ac561398e565b048201901c90506001818481612add57612add61398e565b048201901c90506001818481612af557612af561398e565b048201901c90506001818481612b0d57612b0d61398e565b048201901c90506001818481612b2557612b2561398e565b048201901c90506001818481612b3d57612b3d61398e565b048201901c90506001818481612b5557612b5561398e565b048201901c905061091881828581612b6f57612b6f61398e565b04612ed5565b60005b81831015612bcb576000612b8c8484612eeb565b60008781526020902090915063ffffffff86169082015463ffffffff161115612bb757809250612bc5565b612bc281600161397b565b93505b50612b78565b509392505050565b600080807f7fffffffffffffffffffffffffffffff5d576e7357a4501ddfe92f46681b20a0841115612c0e5750600091506003905082612c98565b604080516000808252602082018084528a905260ff891692820192909252606081018790526080810186905260019060a0016020604051602081039080840390855afa158015612c62573d6000803e3d6000fd5b5050604051601f1901519150506001600160a01b038116612c8e57506000925060019150829050612c98565b9250600091508190505b9450945094915050565b6000826003811115612cb657612cb6613a24565b03612cbf575050565b6001826003811115612cd357612cd3613a24565b03612cf15760405163f645eedf60e01b815260040160405180910390fd5b6002826003811115612d0557612d05613a24565b03612d265760405163fce698f760e01b815260048101829052602401610997565b6003826003811115612d3a57612d3a613a24565b036106c6576040516335e2f38360e21b815260048101829052602401610997565b60008072184f03e93ff9f4daa797ed6e38ed64bf6a1f0160401b8310612d9a5772184f03e93ff9f4daa797ed6e38ed64bf6a1f0160401b830492506040015b6d04ee2d6d415b85acef81000000008310612dc6576d04ee2d6d415b85acef8100000000830492506020015b662386f26fc100008310612de457662386f26fc10000830492506010015b6305f5e1008310612dfc576305f5e100830492506008015b6127108310612e1057612710830492506004015b60648310612e22576064830492506002015b600a831061067c5760010192915050565b6000806129be858585612f06565b600080608083901c15612e5657608092831c92015b604083901c15612e6857604092831c92015b602083901c15612e7a57602092831c92015b601083901c15612e8c57601092831c92015b600883901c15612e9e57600892831c92015b600483901c15612eb057600492831c92015b600283901c15612ec257600292831c92015b600183901c1561067c5760010192915050565b6000818310612ee45781610918565b5090919050565b6000612efa60028484186139a4565b6109189084841661397b565b82546000908190801561304c576000612f248761228a600185613968565b60408051808201909152905463ffffffff808216808452600160201b9092046001600160e01b031660208401529192509087161015612fa55760405162461bcd60e51b815260206004820152601b60248201527f436865636b706f696e743a2064656372656173696e67206b65797300000000006044820152606401610997565b805163ffffffff808816911603612fed5784612fc68861228a600186613968565b80546001600160e01b0392909216600160201b0263ffffffff90921691909117905561303c565b6040805180820190915263ffffffff80881682526001600160e01b0380881660208085019182528b54600181018d5560008d81529190912094519151909216600160201b029216919091179101555b6020015192508391506129c39050565b50506040805180820190915263ffffffff80851682526001600160e01b0380851660208085019182528854600181018a5560008a815291822095519251909316600160201b0291909316179201919091559050816129c3565b60005b838110156130c05781810151838201526020016130a8565b50506000910152565b600081518084526130e18160208601602086016130a5565b601f01601f19169290920160200192915050565b60208152600061091860208301846130c9565b60006020828403121561311a57600080fd5b5035919050565b80356001600160a01b0381168114610f6d57600080fd5b6000806040838503121561314b57600080fd5b61315483613121565b946020939093013593505050565b60008060006060848603121561317757600080fd5b61318084613121565b925061318e60208501613121565b9150604084013590509250925092565b634e487b7160e01b600052604160045260246000fd5b600067ffffffffffffffff808411156131cf576131cf61319e565b604051601f8501601f19908116603f011681019082821181831017156131f7576131f761319e565b8160405280935085815286868601111561321057600080fd5b858560208301376000602087830101525050509392505050565b600082601f83011261323b57600080fd5b610918838335602085016131b4565b60008060006060848603121561325f57600080fd5b61326884613121565b9250602084013567ffffffffffffffff8082111561328557600080fd5b6132918783880161322a565b935060408601359150808211156132a757600080fd5b506132b48682870161322a565b9150509250925092565b6000602082840312156132d057600080fd5b61091882613121565b602081526000825160a060208401526132f560c08401826130c9565b90506020840151601f198085840301604086015261331383836130c9565b92506040860151606086015260608601519150808584030160808601525061333b82826130c9565b915050608084015160a08401528091505092915050565b60ff60f81b881681526000602060e0602084015261337360e084018a6130c9565b8381036040850152613385818a6130c9565b606085018990526001600160a01b038816608086015260a0850187905284810360c08601528551808252602080880193509091019060005b818110156133d9578351835292840192918401916001016133bd565b50909c9b505050505050505050505050565b600080604083850312156133fe57600080fd5b61340783613121565b91506020830135801515811461341c57600080fd5b809150509250929050565b6000806000806080858703121561343d57600080fd5b61344685613121565b935061345460208601613121565b925060408501359150606085013567ffffffffffffffff81111561347757600080fd5b8501601f8101871361348857600080fd5b613497878235602084016131b4565b91505092959194509250565b60008060008060008060c087890312156134bc57600080fd5b6134c587613121565b95506020870135945060408701359350606087013560ff811681146134e957600080fd5b9598949750929560808101359460a0909101359350915050565b6000806000806080858703121561351957600080fd5b843567ffffffffffffffff8082111561353157600080fd5b61353d8883890161322a565b9550602087013591508082111561355357600080fd5b61355f8883890161322a565b9450604087013591508082111561357557600080fd5b506135828782880161322a565b92505061359160608601613121565b905092959194509250565b600080604083850312156135af57600080fd5b823567ffffffffffffffff808211156135c757600080fd5b6135d38683870161322a565b935060208501359150808211156135e957600080fd5b506135f68582860161322a565b9150509250929050565b60008060006060848603121561361557600080fd5b833567ffffffffffffffff8082111561362d57600080fd5b6136398783880161322a565b9450602086013591508082111561328557600080fd5b6000806040838503121561366257600080fd5b61366b83613121565b915061367960208401613121565b90509250929050565b600181811c9082168061369657607f821691505b6020821081036136b657634e487b7160e01b600052602260045260246000fd5b50919050565b601f821115610907576000816000526020600020601f850160051c810160208610156136e55750805b601f850160051c820191505b818110156108e1578281556001016136f1565b815167ffffffffffffffff81111561371e5761371e61319e565b6137328161372c8454613682565b846136bc565b602080601f831160018114613767576000841561374f5750858301515b600019600386901b1c1916600185901b1785556108e1565b600085815260208120601f198616915b8281101561379657888601518255948401946001909101908401613777565b50858210156137b45787850151600019600388901b60f8161c191681555b5050505050600190811b01905550565b6001600160a01b03858116825284166020820152604081018390526080606082018190526000906137f7908301846130c9565b9695505050505050565b60006020828403121561381357600080fd5b81516001600160e01b03198116811461091857600080fd5b683d913730b6b2911d1160b91b815283516000906138508160098501602089016130a5565b6a11161134b6b0b3b2911d1160a91b600991840191820152845161387b8160148401602089016130a5565b7f222c2261747472696275746573223a5b7b2274726169745f74797065223a2243601492909101918201527f726561746564222c22646973706c61795f74797065223a202264617465222c20603482015267113b30b63ab2911d60c11b605482015283516138f081605c8401602088016130a5565b627d5d7d60e81b605c9290910191820152605f0195945050505050565b7f646174613a6170706c69636174696f6e2f6a736f6e3b6261736536342c00000081526000825161394581601d8501602087016130a5565b91909101601d0192915050565b634e487b7160e01b600052601160045260246000fd5b8181038181111561067c5761067c613952565b8082018082111561067c5761067c613952565b634e487b7160e01b600052601260045260246000fd5b6000826139c157634e487b7160e01b600052601260045260246000fd5b500490565b808202811582820484141761067c5761067c613952565b6001600160e01b038181168382160190808211156139fd576139fd613952565b5092915050565b6001600160e01b038281168282160390808211156139fd576139fd613952565b634e487b7160e01b600052602160045260246000fdfe2d0d21306acfe8e9bb163a4573e95aff6cef95dc1102c6a16d5f19eac08cc4de3a497e775dc7c283402f0d3c39c5f0ea53870eb15ab2dddfde5a1162a84c336c4142434445464748494a4b4c4d4e4f505152535455565758595a6162636465666768696a6b6c6d6e6f707172737475767778797a303132333435363738392b2f423fcc3514229d79a30fb79b40a232f70b3fabdf664a75db0859c67848497f66dad5b48f65ad2473122b651d896ac9615de31ad29131897fe257acecc069b145","linkReferences":{}},"methodIdentifiers":{"CLOCK_MODE()":"4bf5d7e9","DOMAIN_SEPARATOR()":"3644e515","__ERC721A_init(string,string)":"d2f01f19","__SpaceOwner_init(string,string,string)":"d7a901d3","approve(address,uint256)":"095ea7b3","balanceOf(address)":"70a08231","clock()":"91ddadf4","delegate(address)":"5c19a95c","delegateBySig(address,uint256,uint256,uint8,bytes32,bytes32)":"c3cda520","delegates(address)":"587cde1e","eip712Domain()":"84b0196e","getApproved(uint256)":"081812fc","getFactory()":"88cc58e4","getPastTotalSupply(uint256)":"8e539e8c","getPastVotes(address,uint256)":"3a46b1a8","getSpaceInfo(address)":"6a9a38e6","getVotes(address)":"9ab24eb0","isApprovedForAll(address,address)":"e985e9c5","mintSpace(string,string,string,address)":"cef3045c","name()":"06fdde03","nextTokenId()":"75794a3c","nonces(address)":"7ecebe00","ownerOf(uint256)":"6352211e","safeTransferFrom(address,address,uint256)":"42842e0e","safeTransferFrom(address,address,uint256,bytes)":"b88d4fde","setApprovalForAll(address,bool)":"a22cb465","setFactory(address)":"5bb47808","symbol()":"95d89b41","tokenURI(uint256)":"c87b56dd","totalSupply()":"18160ddd","transferFrom(address,address,uint256)":"23b872dd","updateSpaceInfo(address,string,string)":"3953801b"},"id":175}