{"abi":[{"type":"function","name":"allocateStream","inputs":[{"name":"streamId","type":"bytes32","internalType":"bytes32"},{"name":"nodes","type":"address[]","internalType":"address[]"},{"name":"genesisMiniblockHash","type":"bytes32","internalType":"bytes32"},{"name":"genesisMiniblock","type":"bytes","internalType":"bytes"}],"outputs":[],"stateMutability":"nonpayable"},{"type":"function","name":"getAllStreamIds","inputs":[],"outputs":[{"name":"","type":"bytes32[]","internalType":"bytes32[]"}],"stateMutability":"view"},{"type":"function","name":"getAllStreams","inputs":[],"outputs":[{"name":"","type":"tuple[]","internalType":"struct StreamWithId[]","components":[{"name":"id","type":"bytes32","internalType":"bytes32"},{"name":"stream","type":"tuple","internalType":"struct Stream","components":[{"name":"lastMiniblockHash","type":"bytes32","internalType":"bytes32"},{"name":"lastMiniblockNum","type":"uint64","internalType":"uint64"},{"name":"reserved0","type":"uint64","internalType":"uint64"},{"name":"flags","type":"uint64","internalType":"uint64"},{"name":"nodes","type":"address[]","internalType":"address[]"}]}]}],"stateMutability":"view"},{"type":"function","name":"getStream","inputs":[{"name":"streamId","type":"bytes32","internalType":"bytes32"}],"outputs":[{"name":"","type":"tuple","internalType":"struct Stream","components":[{"name":"lastMiniblockHash","type":"bytes32","internalType":"bytes32"},{"name":"lastMiniblockNum","type":"uint64","internalType":"uint64"},{"name":"reserved0","type":"uint64","internalType":"uint64"},{"name":"flags","type":"uint64","internalType":"uint64"},{"name":"nodes","type":"address[]","internalType":"address[]"}]}],"stateMutability":"view"},{"type":"function","name":"getStreamCount","inputs":[],"outputs":[{"name":"","type":"uint256","internalType":"uint256"}],"stateMutability":"view"},{"type":"function","name":"getStreamWithGenesis","inputs":[{"name":"streamId","type":"bytes32","internalType":"bytes32"}],"outputs":[{"name":"","type":"tuple","internalType":"struct Stream","components":[{"name":"lastMiniblockHash","type":"bytes32","internalType":"bytes32"},{"name":"lastMiniblockNum","type":"uint64","internalType":"uint64"},{"name":"reserved0","type":"uint64","internalType":"uint64"},{"name":"flags","type":"uint64","internalType":"uint64"},{"name":"nodes","type":"address[]","internalType":"address[]"}]},{"name":"","type":"bytes32","internalType":"bytes32"},{"name":"","type":"bytes","internalType":"bytes"}],"stateMutability":"view"},{"type":"function","name":"getStreamsOnNode","inputs":[{"name":"nodeAddress","type":"address","internalType":"address"}],"outputs":[{"name":"","type":"tuple[]","internalType":"struct StreamWithId[]","components":[{"name":"id","type":"bytes32","internalType":"bytes32"},{"name":"stream","type":"tuple","internalType":"struct Stream","components":[{"name":"lastMiniblockHash","type":"bytes32","internalType":"bytes32"},{"name":"lastMiniblockNum","type":"uint64","internalType":"uint64"},{"name":"reserved0","type":"uint64","internalType":"uint64"},{"name":"flags","type":"uint64","internalType":"uint64"},{"name":"nodes","type":"address[]","internalType":"address[]"}]}]}],"stateMutability":"view"},{"type":"function","name":"placeStreamOnNode","inputs":[{"name":"streamId","type":"bytes32","internalType":"bytes32"},{"name":"nodeAddress","type":"address","internalType":"address"}],"outputs":[],"stateMutability":"nonpayable"},{"type":"function","name":"removeStreamFromNode","inputs":[{"name":"streamId","type":"bytes32","internalType":"bytes32"},{"name":"nodeAddress","type":"address","internalType":"address"}],"outputs":[],"stateMutability":"nonpayable"},{"type":"function","name":"setStreamLastMiniblock","inputs":[{"name":"streamId","type":"bytes32","internalType":"bytes32"},{"name":"","type":"bytes32","internalType":"bytes32"},{"name":"lastMiniblockHash","type":"bytes32","internalType":"bytes32"},{"name":"lastMiniblockNum","type":"uint64","internalType":"uint64"},{"name":"isSealed","type":"bool","internalType":"bool"}],"outputs":[],"stateMutability":"nonpayable"},{"type":"event","name":"StreamAllocated","inputs":[{"name":"streamId","type":"bytes32","indexed":false,"internalType":"bytes32"},{"name":"nodes","type":"address[]","indexed":false,"internalType":"address[]"},{"name":"genesisMiniblockHash","type":"bytes32","indexed":false,"internalType":"bytes32"},{"name":"genesisMiniblock","type":"bytes","indexed":false,"internalType":"bytes"}],"anonymous":false},{"type":"event","name":"StreamLastMiniblockUpdated","inputs":[{"name":"streamId","type":"bytes32","indexed":false,"internalType":"bytes32"},{"name":"lastMiniblockHash","type":"bytes32","indexed":false,"internalType":"bytes32"},{"name":"lastMiniblockNum","type":"uint64","indexed":false,"internalType":"uint64"},{"name":"isSealed","type":"bool","indexed":false,"internalType":"bool"}],"anonymous":false},{"type":"event","name":"StreamPlacementUpdated","inputs":[{"name":"streamId","type":"bytes32","indexed":false,"internalType":"bytes32"},{"name":"nodeAddress","type":"address","indexed":false,"internalType":"address"},{"name":"isAdded","type":"bool","indexed":false,"internalType":"bool"}],"anonymous":false}],"bytecode":{"object":"0x608060405234801561001057600080fd5b50611942806100206000396000f3fe608060405234801561001057600080fd5b506004361061009e5760003560e01c806386789fc61161006657806386789fc61461012b5780639ee86d3814610140578063c0f2208414610153578063d7a3158a14610169578063ee885b121461017c57600080fd5b80631290abe8146100a357806332705ac4146100cc5780633bd84c0c146100ec5780633c2544d1146100f45780636b883c3914610116575b600080fd5b6100b66100b13660046112ac565b61018f565b6040516100c39190611356565b60405180910390f35b6100df6100da366004611385565b6102ba565b6040516100c391906113a0565b6100df61056a565b6101076101023660046112ac565b6106db565b6040516100c39392919061145c565b610129610124366004611546565b6108ac565b005b610133610afb565b6040516100c39190611629565b61012961014e36600461166d565b610b0c565b61015b610caf565b6040519081526020016100c3565b610129610177366004611699565b610cba565b61012961018a36600461166d565b610e2f565b6040805160a08101825260008082526020820181905291810182905260608082018390526080820152906101c39083611061565b6102075760408051808201825260098152681393d517d193d5539160ba1b6020820152905162461bcd60e51b81526101fe9190600401611700565b60405180910390fd5b600082815260026020818152604092839020835160a0810185528154815260018201546001600160401b0380821683860152600160401b8204811683880152600160801b90910416606082015292810180548551818502810185019096528086529394919360808601938301828280156102aa57602002820191906000526020600020905b81546001600160a01b0316815260019091019060200180831161028c575b5050505050815250509050919050565b606060006102c78161107e565b6001600160401b038111156102de576102de611491565b604051908082528060200260200182016040528015610307578160200160208202803683370190505b5090506000805b610318600061107e565b8110156103cd57600061032b8183611088565b60008181526002602052604081209192505b60028201548110156103bf57876001600160a01b031682600201828154811061036857610368611713565b6000918252602090912001546001600160a01b0316036103b75782868661038e8161173f565b975063ffffffff16815181106103a6576103a6611713565b6020026020010181815250506103bf565b60010161033d565b50505080600101905061030e565b5060008163ffffffff166001600160401b038111156103ee576103ee611491565b60405190808252806020026020018201604052801561042757816020015b6104146111ab565b81526020019060019003908161040c5790505b50905060005b8263ffffffff1681101561056157604051806040016040528085838151811061045857610458611713565b602002602001015181526020016000600201600087858151811061047e5761047e611713565b6020908102919091018101518252818101929092526040908101600020815160a0810183528154815260018201546001600160401b0380821683870152600160401b8204811683860152600160801b90910416606082015260028201805484518187028101870190955280855291949293608086019390929083018282801561053057602002820191906000526020600020905b81546001600160a01b03168152600190910190602001808311610512575b50505050508152505081525082828151811061054e5761054e611713565b602090810291909101015260010161042d565b50949350505050565b606060006105778161107e565b6001600160401b0381111561058e5761058e611491565b6040519080825280602002602001820160405280156105c757816020015b6105b46111ab565b8152602001906001900390816105ac5790505b50905060005b6105d7600061107e565b8110156106d55760006105ea8183611088565b60408051808201825282815260008381526002602081815291849020845160a0810186528154815260018201546001600160401b0380821683870152600160401b8204811683890152600160801b90910416606082015291810180548651818602810186019097528087529697509395838701959294919360808601939291908301828280156106a357602002820191906000526020600020905b81546001600160a01b03168152600190910190602001808311610685575b5050505050815250508152508383815181106106c1576106c1611713565b6020908102919091010152506001016105cd565b50919050565b6040805160a0810182526000808252602082018190529181018290526060808201839052608082018190529091906107138285611061565b61074e5760408051808201825260098152681393d517d193d5539160ba1b6020820152905162461bcd60e51b81526101fe9190600401611700565b600084815260026020818152604080842060048352818520546003845294829020825160a0810184528254815260018301546001600160401b0380821683880152600160401b8204811683870152600160801b9091041660608201529482018054845181870281018701909552808552929695919491938793608086019391929183018282801561080857602002820191906000526020600020905b81546001600160a01b031681526001909101906020018083116107ea575b505050505081525050925080805461081f90611762565b80601f016020809104026020016040519081016040528092919081815260200182805461084b90611762565b80156108985780601f1061086d57610100808354040283529160200191610898565b820191906000526020600020905b81548152906001019060200180831161087b57829003601f168201915b505050505090509250925092509193909250565b336108b8600582611094565b6108f25760408051808201825260088152670848288be82aaa8960c31b6020820152905162461bcd60e51b81526101fe9190600401611700565b6108fd600086611061565b1561093e57604080518082018252600e81526d414c52454144595f45584953545360901b6020820152905162461bcd60e51b81526101fe9190600401611700565b60005b84518110156109c25761097a85828151811061095f5761095f611713565b6020026020010151600060050161109490919063ffffffff16565b6109ba57604080518082018252600e81526d1393d11157d393d517d193d5539160921b6020820152905162461bcd60e51b81526101fe9190600401611700565b600101610941565b506040805160a0810182528481526000602082018190529181018290526060810182905260808101869052906109f890876110b6565b5060008681526002602081815260409283902084518155818501516001820180549587015160608801516001600160401b03908116600160801b0267ffffffffffffffff60801b19928216600160401b026fffffffffffffffffffffffffffffffff19909916919094161796909617959095161790935560808401518051859493610a88939085019201906111f5565b5050506000868152600360205260409020610aa384826117e7565b5060008681526004602052604090819020859055517f55ef7efc60ef99743e54209752c9a8e047e013917ec91572db75875069dd65bb90610aeb9088908890889088906118a6565b60405180910390a1505050505050565b6060610b0760006110c2565b905090565b81610b18600082611061565b610b535760408051808201825260098152681393d517d193d5539160ba1b6020820152905162461bcd60e51b81526101fe9190600401611700565b81610b5f600582611094565b610b995760408051808201825260088152670848288be82aaa8960c31b6020820152905162461bcd60e51b81526101fe9190600401611700565b6000848152600260205260408120905b6002820154811015610c3257846001600160a01b0316826002018281548110610bd457610bd4611713565b6000918252602090912001546001600160a01b031603610c2a57604080518082018252600e81526d414c52454144595f45584953545360901b6020820152905162461bcd60e51b81526101fe9190600401611700565b600101610ba9565b5060028101805460018082018355600092835260209283902090910180546001600160a01b0319166001600160a01b03881690811790915560408051898152938401919091528201527faaa473c28a5fe04b6a7ecd795826e462f9d0c23f00ef9f51ec02fa6ea418806f9060600160405180910390a15050505050565b6000610b078161107e565b33610cc6600582611094565b610d005760408051808201825260088152670848288be82aaa8960c31b6020820152905162461bcd60e51b81526101fe9190600401611700565b610d0b600087611061565b610d465760408051808201825260098152681393d517d193d5539160ba1b6020820152905162461bcd60e51b81526101fe9190600401611700565b600086815260026020526040902084815560018101805467ffffffffffffffff19166001600160401b0386161790558215610dae576001818101805467ffffffffffffffff60801b198116600160801b918290046001600160401b0316909317029190911790555b836001600160401b0316600103610dd6576000878152600360205260408120610dd69161125a565b60408051888152602081018790526001600160401b03861681830152841515606082015290517fccc26bbb6dd655ea0bb8a40a3c30e35c6bdf42f8faf0d71bbea897af768cda8b9181900360800190a150505050505050565b81610e3b600082611061565b610e765760408051808201825260098152681393d517d193d5539160ba1b6020820152905162461bcd60e51b81526101fe9190600401611700565b81610e82600582611094565b610ebc5760408051808201825260088152670848288be82aaa8960c31b6020820152905162461bcd60e51b81526101fe9190600401611700565b600084815260026020526040812090805b6002830154811015610fd657856001600160a01b0316836002018281548110610ef857610ef8611713565b6000918252602090912001546001600160a01b031603610fce57600283018054610f2490600190611919565b81548110610f3457610f34611713565b6000918252602090912001546002840180546001600160a01b039092169183908110610f6257610f62611713565b9060005260206000200160006101000a8154816001600160a01b0302191690836001600160a01b0316021790555082600201805480610fa357610fa361192c565b600082815260209020810160001990810180546001600160a01b031916905501905560019150610fd6565b600101610ecd565b508061101857604080518082018252600e81526d1393d11157d393d517d193d5539160921b6020820152905162461bcd60e51b81526101fe9190600401611700565b604080518781526001600160a01b03871660208201526000918101919091527faaa473c28a5fe04b6a7ecd795826e462f9d0c23f00ef9f51ec02fa6ea418806f90606001610aeb565b600081815260018301602052604081205415155b90505b92915050565b6000611078825490565b600061107583836110d6565b6001600160a01b03811660009081526001830160205260408120541515611075565b60006110758383611100565b606060006110cf8361114f565b9392505050565b60008260000182815481106110ed576110ed611713565b9060005260206000200154905092915050565b600081815260018301602052604081205461114757508154600181810184556000848152602080822090930184905584548482528286019093526040902091909155611078565b506000611078565b60608160000180548060200260200160405190810160405280929190818152602001828054801561119f57602002820191906000526020600020905b81548152602001906001019080831161118b575b50505050509050919050565b6040805180820190915260008152602081016111f06040805160a081018252600080825260208201819052918101829052606080820192909252608081019190915290565b905290565b82805482825590600052602060002090810192821561124a579160200282015b8281111561124a57825182546001600160a01b0319166001600160a01b03909116178255602090920191600190910190611215565b50611256929150611297565b5090565b50805461126690611762565b6000825580601f10611276575050565b601f0160209004906000526020600020908101906112949190611297565b50565b5b808211156112565760008155600101611298565b6000602082840312156112be57600080fd5b5035919050565b600060a08301825184526020808401516001600160401b0380821660208801528060408701511660408801528060608701511660608801525050608084015160a0608087015282815180855260c088019150602083019450600092505b8083101561134b5784516001600160a01b03168252938301936001929092019190830190611322565b509695505050505050565b60208152600061107560208301846112c5565b80356001600160a01b038116811461138057600080fd5b919050565b60006020828403121561139757600080fd5b61107582611369565b600060208083018184528085518083526040925060408601915060408160051b87010184880160005b8381101561140857888303603f190185528151805184528701518784018790526113f5878501826112c5565b95880195935050908601906001016113c9565b509098975050505050505050565b6000815180845260005b8181101561143c57602081850181015186830182015201611420565b506000602082860101526020601f19601f83011685010191505092915050565b60608152600061146f60608301866112c5565b84602084015282810360408401526114878185611416565b9695505050505050565b634e487b7160e01b600052604160045260246000fd5b604051601f8201601f191681016001600160401b03811182821017156114cf576114cf611491565b604052919050565b600082601f8301126114e857600080fd5b81356001600160401b0381111561150157611501611491565b611514601f8201601f19166020016114a7565b81815284602083860101111561152957600080fd5b816020850160208301376000918101602001919091529392505050565b6000806000806080858703121561155c57600080fd5b843593506020808601356001600160401b038082111561157b57600080fd5b818801915088601f83011261158f57600080fd5b8135818111156115a1576115a1611491565b8060051b6115b08582016114a7565b918252838101850191858101908c8411156115ca57600080fd5b948601945b838610156115ef576115e086611369565b825294860194908601906115cf565b985050505060408801359450606088013592508083111561160f57600080fd5b505061161d878288016114d7565b91505092959194509250565b6020808252825182820181905260009190848201906040850190845b8181101561166157835183529284019291840191600101611645565b50909695505050505050565b6000806040838503121561168057600080fd5b8235915061169060208401611369565b90509250929050565b600080600080600060a086880312156116b157600080fd5b85359450602086013593506040860135925060608601356001600160401b03811681146116dd57600080fd5b9150608086013580151581146116f257600080fd5b809150509295509295909350565b6020815260006110756020830184611416565b634e487b7160e01b600052603260045260246000fd5b634e487b7160e01b600052601160045260246000fd5b600063ffffffff80831681810361175857611758611729565b6001019392505050565b600181811c9082168061177657607f821691505b6020821081036106d557634e487b7160e01b600052602260045260246000fd5b601f8211156117e2576000816000526020600020601f850160051c810160208610156117bf5750805b601f850160051c820191505b818110156117de578281556001016117cb565b5050505b505050565b81516001600160401b0381111561180057611800611491565b6118148161180e8454611762565b84611796565b602080601f83116001811461184957600084156118315750858301515b600019600386901b1c1916600185901b1785556117de565b600085815260208120601f198616915b8281101561187857888601518255948401946001909101908401611859565b50858210156118965787850151600019600388901b60f8161c191681555b5050505050600190811b01905550565b60006080820186835260206080602085015281875180845260a08601915060208901935060005b818110156118f25784516001600160a01b0316835293830193918301916001016118cd565b5050866040860152848103606086015261190c8187611416565b9998505050505050505050565b8181038181111561107857611078611729565b634e487b7160e01b600052603160045260246000fd","linkReferences":{}},"methodIdentifiers":{"allocateStream(bytes32,address[],bytes32,bytes)":"6b883c39","getAllStreamIds()":"86789fc6","getAllStreams()":"3bd84c0c","getStream(bytes32)":"1290abe8","getStreamCount()":"c0f22084","getStreamWithGenesis(bytes32)":"3c2544d1","getStreamsOnNode(address)":"32705ac4","placeStreamOnNode(bytes32,address)":"9ee86d38","removeStreamFromNode(bytes32,address)":"ee885b12","setStreamLastMiniblock(bytes32,bytes32,bytes32,uint64,bool)":"d7a3158a"},"id":37}