{"abi":[{"type":"function","name":"allocateStream","inputs":[{"name":"streamId","type":"bytes32","internalType":"bytes32"},{"name":"nodes","type":"address[]","internalType":"address[]"},{"name":"genesisMiniblockHash","type":"bytes32","internalType":"bytes32"},{"name":"genesisMiniblock","type":"bytes","internalType":"bytes"}],"outputs":[],"stateMutability":"nonpayable"},{"type":"function","name":"getAllStreamIds","inputs":[],"outputs":[{"name":"","type":"bytes32[]","internalType":"bytes32[]"}],"stateMutability":"view"},{"type":"function","name":"getAllStreams","inputs":[],"outputs":[{"name":"","type":"tuple[]","internalType":"struct StreamWithId[]","components":[{"name":"id","type":"bytes32","internalType":"bytes32"},{"name":"stream","type":"tuple","internalType":"struct Stream","components":[{"name":"lastMiniblockHash","type":"bytes32","internalType":"bytes32"},{"name":"lastMiniblockNum","type":"uint64","internalType":"uint64"},{"name":"reserved0","type":"uint64","internalType":"uint64"},{"name":"flags","type":"uint64","internalType":"uint64"},{"name":"nodes","type":"address[]","internalType":"address[]"}]}]}],"stateMutability":"view"},{"type":"function","name":"getStream","inputs":[{"name":"streamId","type":"bytes32","internalType":"bytes32"}],"outputs":[{"name":"","type":"tuple","internalType":"struct Stream","components":[{"name":"lastMiniblockHash","type":"bytes32","internalType":"bytes32"},{"name":"lastMiniblockNum","type":"uint64","internalType":"uint64"},{"name":"reserved0","type":"uint64","internalType":"uint64"},{"name":"flags","type":"uint64","internalType":"uint64"},{"name":"nodes","type":"address[]","internalType":"address[]"}]}],"stateMutability":"view"},{"type":"function","name":"getStreamCount","inputs":[],"outputs":[{"name":"","type":"uint256","internalType":"uint256"}],"stateMutability":"view"},{"type":"function","name":"getStreamWithGenesis","inputs":[{"name":"streamId","type":"bytes32","internalType":"bytes32"}],"outputs":[{"name":"","type":"tuple","internalType":"struct Stream","components":[{"name":"lastMiniblockHash","type":"bytes32","internalType":"bytes32"},{"name":"lastMiniblockNum","type":"uint64","internalType":"uint64"},{"name":"reserved0","type":"uint64","internalType":"uint64"},{"name":"flags","type":"uint64","internalType":"uint64"},{"name":"nodes","type":"address[]","internalType":"address[]"}]},{"name":"","type":"bytes32","internalType":"bytes32"},{"name":"","type":"bytes","internalType":"bytes"}],"stateMutability":"view"},{"type":"function","name":"getStreamsOnNode","inputs":[{"name":"nodeAddress","type":"address","internalType":"address"}],"outputs":[{"name":"","type":"tuple[]","internalType":"struct StreamWithId[]","components":[{"name":"id","type":"bytes32","internalType":"bytes32"},{"name":"stream","type":"tuple","internalType":"struct Stream","components":[{"name":"lastMiniblockHash","type":"bytes32","internalType":"bytes32"},{"name":"lastMiniblockNum","type":"uint64","internalType":"uint64"},{"name":"reserved0","type":"uint64","internalType":"uint64"},{"name":"flags","type":"uint64","internalType":"uint64"},{"name":"nodes","type":"address[]","internalType":"address[]"}]}]}],"stateMutability":"view"},{"type":"function","name":"placeStreamOnNode","inputs":[{"name":"streamId","type":"bytes32","internalType":"bytes32"},{"name":"nodeAddress","type":"address","internalType":"address"}],"outputs":[],"stateMutability":"nonpayable"},{"type":"function","name":"removeStreamFromNode","inputs":[{"name":"streamId","type":"bytes32","internalType":"bytes32"},{"name":"nodeAddress","type":"address","internalType":"address"}],"outputs":[],"stateMutability":"nonpayable"},{"type":"function","name":"setStreamLastMiniblock","inputs":[{"name":"streamId","type":"bytes32","internalType":"bytes32"},{"name":"lastMiniblockHash","type":"bytes32","internalType":"bytes32"},{"name":"lastMiniblockNum","type":"uint64","internalType":"uint64"},{"name":"isSealed","type":"bool","internalType":"bool"}],"outputs":[],"stateMutability":"nonpayable"},{"type":"event","name":"StreamAllocated","inputs":[{"name":"streamId","type":"bytes32","indexed":false,"internalType":"bytes32"},{"name":"nodes","type":"address[]","indexed":false,"internalType":"address[]"},{"name":"genesisMiniblockHash","type":"bytes32","indexed":false,"internalType":"bytes32"},{"name":"genesisMiniblock","type":"bytes","indexed":false,"internalType":"bytes"}],"anonymous":false},{"type":"event","name":"StreamLastMiniblockUpdated","inputs":[{"name":"streamId","type":"bytes32","indexed":false,"internalType":"bytes32"},{"name":"lastMiniblockHash","type":"bytes32","indexed":false,"internalType":"bytes32"},{"name":"lastMiniblockNum","type":"uint64","indexed":false,"internalType":"uint64"},{"name":"isSealed","type":"bool","indexed":false,"internalType":"bool"}],"anonymous":false},{"type":"event","name":"StreamPlacementUpdated","inputs":[{"name":"streamId","type":"bytes32","indexed":false,"internalType":"bytes32"},{"name":"nodeAddress","type":"address","indexed":false,"internalType":"address"},{"name":"isAdded","type":"bool","indexed":false,"internalType":"bool"}],"anonymous":false}],"bytecode":{"object":"0x608060405234801561001057600080fd5b50611a01806100206000396000f3fe608060405234801561001057600080fd5b506004361061009e5760003560e01c80636b883c39116100665780636b883c391461012b57806386789fc61461013e5780639ee86d3814610153578063c0f2208414610166578063ee885b121461017c57600080fd5b80631290abe8146100a357806332705ac4146100cc5780633bd84c0c146100ec5780633c2544d1146100f4578063681a8d6714610116575b600080fd5b6100b66100b1366004611350565b61018f565b6040516100c391906113fa565b60405180910390f35b6100df6100da366004611429565b6102ba565b6040516100c39190611444565b6100df61056a565b610107610102366004611350565b6106db565b6040516100c393929190611500565b610129610124366004611535565b6108ac565b005b610129610139366004611645565b610ad5565b610146610d14565b6040516100c39190611728565b61012961016136600461176c565b610d25565b61016e610ec8565b6040519081526020016100c3565b61012961018a36600461176c565b610ed3565b6040805160a08101825260008082526020820181905291810182905260608082018390526080820152906101c39083611105565b6102075760408051808201825260098152681393d517d193d5539160ba1b6020820152905162461bcd60e51b81526101fe9190600401611798565b60405180910390fd5b600082815260026020818152604092839020835160a0810185528154815260018201546001600160401b0380821683860152600160401b8204811683880152600160801b90910416606082015292810180548551818502810185019096528086529394919360808601938301828280156102aa57602002820191906000526020600020905b81546001600160a01b0316815260019091019060200180831161028c575b5050505050815250509050919050565b606060006102c781611122565b6001600160401b038111156102de576102de611590565b604051908082528060200260200182016040528015610307578160200160208202803683370190505b5090506000805b6103186000611122565b8110156103cd57600061032b818361112c565b60008181526002602052604081209192505b60028201548110156103bf57876001600160a01b0316826002018281548110610368576103686117ab565b6000918252602090912001546001600160a01b0316036103b75782868661038e816117d7565b975063ffffffff16815181106103a6576103a66117ab565b6020026020010181815250506103bf565b60010161033d565b50505080600101905061030e565b5060008163ffffffff166001600160401b038111156103ee576103ee611590565b60405190808252806020026020018201604052801561042757816020015b61041461124f565b81526020019060019003908161040c5790505b50905060005b8263ffffffff16811015610561576040518060400160405280858381518110610458576104586117ab565b602002602001015181526020016000600201600087858151811061047e5761047e6117ab565b6020908102919091018101518252818101929092526040908101600020815160a0810183528154815260018201546001600160401b0380821683870152600160401b8204811683860152600160801b90910416606082015260028201805484518187028101870190955280855291949293608086019390929083018282801561053057602002820191906000526020600020905b81546001600160a01b03168152600190910190602001808311610512575b50505050508152505081525082828151811061054e5761054e6117ab565b602090810291909101015260010161042d565b50949350505050565b6060600061057781611122565b6001600160401b0381111561058e5761058e611590565b6040519080825280602002602001820160405280156105c757816020015b6105b461124f565b8152602001906001900390816105ac5790505b50905060005b6105d76000611122565b8110156106d55760006105ea818361112c565b60408051808201825282815260008381526002602081815291849020845160a0810186528154815260018201546001600160401b0380821683870152600160401b8204811683890152600160801b90910416606082015291810180548651818602810186019097528087529697509395838701959294919360808601939291908301828280156106a357602002820191906000526020600020905b81546001600160a01b03168152600190910190602001808311610685575b5050505050815250508152508383815181106106c1576106c16117ab565b6020908102919091010152506001016105cd565b50919050565b6040805160a0810182526000808252602082018190529181018290526060808201839052608082018190529091906107138285611105565b61074e5760408051808201825260098152681393d517d193d5539160ba1b6020820152905162461bcd60e51b81526101fe9190600401611798565b600084815260026020818152604080842060048352818520546003845294829020825160a0810184528254815260018301546001600160401b0380821683880152600160401b8204811683870152600160801b9091041660608201529482018054845181870281018701909552808552929695919491938793608086019391929183018282801561080857602002820191906000526020600020905b81546001600160a01b031681526001909101906020018083116107ea575b505050505081525050925080805461081f906117fa565b80601f016020809104026020016040519081016040528092919081815260200182805461084b906117fa565b80156108985780601f1061086d57610100808354040283529160200191610898565b820191906000526020600020905b81548152906001019060200180831161087b57829003601f168201915b505050505090509250925092509193909250565b336108b8600582611138565b6108f25760408051808201825260088152670848288be82aaa8960c31b6020820152905162461bcd60e51b81526101fe9190600401611798565b6108fd600086611105565b6109385760408051808201825260098152681393d517d193d5539160ba1b6020820152905162461bcd60e51b81526101fe9190600401611798565b6000858152600260205260409020600180820154600160801b9004161561099457604080518082018252600d81526c14d51491505357d4d150531151609a1b6020820152905162461bcd60e51b81526101fe9190600401611798565b6001808201546001600160401b03808716926109b3929091169061182e565b6001600160401b0316146109f65760408051808201825260078152664241445f41524760c81b6020820152905162461bcd60e51b81526101fe9190600401611798565b84815560018101805467ffffffffffffffff19166001600160401b0386161790558215610a50576001818101805467ffffffffffffffff60801b198116600160801b918290046001600160401b0316909317029190911790555b836001600160401b0316600103610a78576000868152600360205260408120610a7891611299565b60408051878152602081018790526001600160401b0386169181019190915283151560608201527fccc26bbb6dd655ea0bb8a40a3c30e35c6bdf42f8faf0d71bbea897af768cda8b906080015b60405180910390a1505050505050565b33610ae1600582611138565b610b1b5760408051808201825260088152670848288be82aaa8960c31b6020820152905162461bcd60e51b81526101fe9190600401611798565b610b26600086611105565b15610b6757604080518082018252600e81526d414c52454144595f45584953545360901b6020820152905162461bcd60e51b81526101fe9190600401611798565b60005b8451811015610beb57610ba3858281518110610b8857610b886117ab565b6020026020010151600060050161113890919063ffffffff16565b610be357604080518082018252600e81526d1393d11157d393d517d193d5539160921b6020820152905162461bcd60e51b81526101fe9190600401611798565b600101610b6a565b506040805160a081018252848152600060208201819052918101829052606081018290526080810186905290610c21908761115a565b5060008681526002602081815260409283902084518155818501516001820180549587015160608801516001600160401b03908116600160801b0267ffffffffffffffff60801b19928216600160401b026fffffffffffffffffffffffffffffffff19909916919094161796909617959095161790935560808401518051859493610cb1939085019201906112d6565b5050506000868152600360205260409020610ccc84826118a6565b5060008681526004602052604090819020859055517f55ef7efc60ef99743e54209752c9a8e047e013917ec91572db75875069dd65bb90610ac5908890889088908890611965565b6060610d206000611166565b905090565b81610d31600082611105565b610d6c5760408051808201825260098152681393d517d193d5539160ba1b6020820152905162461bcd60e51b81526101fe9190600401611798565b81610d78600582611138565b610db25760408051808201825260088152670848288be82aaa8960c31b6020820152905162461bcd60e51b81526101fe9190600401611798565b6000848152600260205260408120905b6002820154811015610e4b57846001600160a01b0316826002018281548110610ded57610ded6117ab565b6000918252602090912001546001600160a01b031603610e4357604080518082018252600e81526d414c52454144595f45584953545360901b6020820152905162461bcd60e51b81526101fe9190600401611798565b600101610dc2565b5060028101805460018082018355600092835260209283902090910180546001600160a01b0319166001600160a01b03881690811790915560408051898152938401919091528201527faaa473c28a5fe04b6a7ecd795826e462f9d0c23f00ef9f51ec02fa6ea418806f9060600160405180910390a15050505050565b6000610d2081611122565b81610edf600082611105565b610f1a5760408051808201825260098152681393d517d193d5539160ba1b6020820152905162461bcd60e51b81526101fe9190600401611798565b81610f26600582611138565b610f605760408051808201825260088152670848288be82aaa8960c31b6020820152905162461bcd60e51b81526101fe9190600401611798565b600084815260026020526040812090805b600283015481101561107a57856001600160a01b0316836002018281548110610f9c57610f9c6117ab565b6000918252602090912001546001600160a01b03160361107257600283018054610fc8906001906119d8565b81548110610fd857610fd86117ab565b6000918252602090912001546002840180546001600160a01b039092169183908110611006576110066117ab565b9060005260206000200160006101000a8154816001600160a01b0302191690836001600160a01b0316021790555082600201805480611047576110476119eb565b600082815260209020810160001990810180546001600160a01b03191690550190556001915061107a565b600101610f71565b50806110bc57604080518082018252600e81526d1393d11157d393d517d193d5539160921b6020820152905162461bcd60e51b81526101fe9190600401611798565b604080518781526001600160a01b03871660208201526000918101919091527faaa473c28a5fe04b6a7ecd795826e462f9d0c23f00ef9f51ec02fa6ea418806f90606001610ac5565b600081815260018301602052604081205415155b90505b92915050565b600061111c825490565b6000611119838361117a565b6001600160a01b03811660009081526001830160205260408120541515611119565b600061111983836111a4565b60606000611173836111f3565b9392505050565b6000826000018281548110611191576111916117ab565b9060005260206000200154905092915050565b60008181526001830160205260408120546111eb5750815460018181018455600084815260208082209093018490558454848252828601909352604090209190915561111c565b50600061111c565b60608160000180548060200260200160405190810160405280929190818152602001828054801561124357602002820191906000526020600020905b81548152602001906001019080831161122f575b50505050509050919050565b6040805180820190915260008152602081016112946040805160a081018252600080825260208201819052918101829052606080820192909252608081019190915290565b905290565b5080546112a5906117fa565b6000825580601f106112b5575050565b601f0160209004906000526020600020908101906112d3919061133b565b50565b82805482825590600052602060002090810192821561132b579160200282015b8281111561132b57825182546001600160a01b0319166001600160a01b039091161782556020909201916001909101906112f6565b5061133792915061133b565b5090565b5b80821115611337576000815560010161133c565b60006020828403121561136257600080fd5b5035919050565b600060a08301825184526020808401516001600160401b0380821660208801528060408701511660408801528060608701511660608801525050608084015160a0608087015282815180855260c088019150602083019450600092505b808310156113ef5784516001600160a01b031682529383019360019290920191908301906113c6565b509695505050505050565b6020815260006111196020830184611369565b80356001600160a01b038116811461142457600080fd5b919050565b60006020828403121561143b57600080fd5b6111198261140d565b600060208083018184528085518083526040925060408601915060408160051b87010184880160005b838110156114ac57888303603f1901855281518051845287015187840187905261149987850182611369565b958801959350509086019060010161146d565b509098975050505050505050565b6000815180845260005b818110156114e0576020818501810151868301820152016114c4565b506000602082860101526020601f19601f83011685010191505092915050565b6060815260006115136060830186611369565b846020840152828103604084015261152b81856114ba565b9695505050505050565b6000806000806080858703121561154b57600080fd5b843593506020850135925060408501356001600160401b038116811461157057600080fd5b91506060850135801515811461158557600080fd5b939692955090935050565b634e487b7160e01b600052604160045260246000fd5b604051601f8201601f191681016001600160401b03811182821017156115ce576115ce611590565b604052919050565b600082601f8301126115e757600080fd5b81356001600160401b0381111561160057611600611590565b611613601f8201601f19166020016115a6565b81815284602083860101111561162857600080fd5b816020850160208301376000918101602001919091529392505050565b6000806000806080858703121561165b57600080fd5b843593506020808601356001600160401b038082111561167a57600080fd5b818801915088601f83011261168e57600080fd5b8135818111156116a0576116a0611590565b8060051b6116af8582016115a6565b918252838101850191858101908c8411156116c957600080fd5b948601945b838610156116ee576116df8661140d565b825294860194908601906116ce565b985050505060408801359450606088013592508083111561170e57600080fd5b505061171c878288016115d6565b91505092959194509250565b6020808252825182820181905260009190848201906040850190845b8181101561176057835183529284019291840191600101611744565b50909695505050505050565b6000806040838503121561177f57600080fd5b8235915061178f6020840161140d565b90509250929050565b60208152600061111960208301846114ba565b634e487b7160e01b600052603260045260246000fd5b634e487b7160e01b600052601160045260246000fd5b600063ffffffff8083168181036117f0576117f06117c1565b6001019392505050565b600181811c9082168061180e57607f821691505b6020821081036106d557634e487b7160e01b600052602260045260246000fd5b6001600160401b0381811683821601908082111561184e5761184e6117c1565b5092915050565b601f8211156118a1576000816000526020600020601f850160051c8101602086101561187e5750805b601f850160051c820191505b8181101561189d5782815560010161188a565b5050505b505050565b81516001600160401b038111156118bf576118bf611590565b6118d3816118cd84546117fa565b84611855565b602080601f83116001811461190857600084156118f05750858301515b600019600386901b1c1916600185901b17855561189d565b600085815260208120601f198616915b8281101561193757888601518255948401946001909101908401611918565b50858210156119555787850151600019600388901b60f8161c191681555b5050505050600190811b01905550565b60006080820186835260206080602085015281875180845260a08601915060208901935060005b818110156119b15784516001600160a01b03168352938301939183019160010161198c565b505086604086015284810360608601526119cb81876114ba565b9998505050505050505050565b8181038181111561111c5761111c6117c1565b634e487b7160e01b600052603160045260246000fd","linkReferences":{}},"methodIdentifiers":{"allocateStream(bytes32,address[],bytes32,bytes)":"6b883c39","getAllStreamIds()":"86789fc6","getAllStreams()":"3bd84c0c","getStream(bytes32)":"1290abe8","getStreamCount()":"c0f22084","getStreamWithGenesis(bytes32)":"3c2544d1","getStreamsOnNode(address)":"32705ac4","placeStreamOnNode(bytes32,address)":"9ee86d38","removeStreamFromNode(bytes32,address)":"ee885b12","setStreamLastMiniblock(bytes32,bytes32,uint64,bool)":"681a8d67"},"id":39}