{"abi":[{"type":"function","name":"allocateStream","inputs":[{"name":"streamId","type":"bytes32","internalType":"bytes32"},{"name":"nodes","type":"address[]","internalType":"address[]"},{"name":"genesisMiniblockHash","type":"bytes32","internalType":"bytes32"},{"name":"genesisMiniblock","type":"bytes","internalType":"bytes"}],"outputs":[],"stateMutability":"nonpayable"},{"type":"function","name":"getAllStreamIds","inputs":[],"outputs":[{"name":"","type":"bytes32[]","internalType":"bytes32[]"}],"stateMutability":"view"},{"type":"function","name":"getAllStreams","inputs":[],"outputs":[{"name":"","type":"tuple[]","internalType":"struct StreamWithId[]","components":[{"name":"id","type":"bytes32","internalType":"bytes32"},{"name":"stream","type":"tuple","internalType":"struct Stream","components":[{"name":"lastMiniblockHash","type":"bytes32","internalType":"bytes32"},{"name":"lastMiniblockNum","type":"uint64","internalType":"uint64"},{"name":"reserved0","type":"uint64","internalType":"uint64"},{"name":"flags","type":"uint64","internalType":"uint64"},{"name":"nodes","type":"address[]","internalType":"address[]"}]}]}],"stateMutability":"view"},{"type":"function","name":"getPaginatedStreams","inputs":[{"name":"start","type":"uint256","internalType":"uint256"},{"name":"stop","type":"uint256","internalType":"uint256"}],"outputs":[{"name":"","type":"tuple[]","internalType":"struct StreamWithId[]","components":[{"name":"id","type":"bytes32","internalType":"bytes32"},{"name":"stream","type":"tuple","internalType":"struct Stream","components":[{"name":"lastMiniblockHash","type":"bytes32","internalType":"bytes32"},{"name":"lastMiniblockNum","type":"uint64","internalType":"uint64"},{"name":"reserved0","type":"uint64","internalType":"uint64"},{"name":"flags","type":"uint64","internalType":"uint64"},{"name":"nodes","type":"address[]","internalType":"address[]"}]}]},{"name":"","type":"bool","internalType":"bool"}],"stateMutability":"view"},{"type":"function","name":"getStream","inputs":[{"name":"streamId","type":"bytes32","internalType":"bytes32"}],"outputs":[{"name":"","type":"tuple","internalType":"struct Stream","components":[{"name":"lastMiniblockHash","type":"bytes32","internalType":"bytes32"},{"name":"lastMiniblockNum","type":"uint64","internalType":"uint64"},{"name":"reserved0","type":"uint64","internalType":"uint64"},{"name":"flags","type":"uint64","internalType":"uint64"},{"name":"nodes","type":"address[]","internalType":"address[]"}]}],"stateMutability":"view"},{"type":"function","name":"getStreamByIndex","inputs":[{"name":"i","type":"uint256","internalType":"uint256"}],"outputs":[{"name":"","type":"tuple","internalType":"struct StreamWithId","components":[{"name":"id","type":"bytes32","internalType":"bytes32"},{"name":"stream","type":"tuple","internalType":"struct Stream","components":[{"name":"lastMiniblockHash","type":"bytes32","internalType":"bytes32"},{"name":"lastMiniblockNum","type":"uint64","internalType":"uint64"},{"name":"reserved0","type":"uint64","internalType":"uint64"},{"name":"flags","type":"uint64","internalType":"uint64"},{"name":"nodes","type":"address[]","internalType":"address[]"}]}]}],"stateMutability":"view"},{"type":"function","name":"getStreamCount","inputs":[],"outputs":[{"name":"","type":"uint256","internalType":"uint256"}],"stateMutability":"view"},{"type":"function","name":"getStreamWithGenesis","inputs":[{"name":"streamId","type":"bytes32","internalType":"bytes32"}],"outputs":[{"name":"","type":"tuple","internalType":"struct Stream","components":[{"name":"lastMiniblockHash","type":"bytes32","internalType":"bytes32"},{"name":"lastMiniblockNum","type":"uint64","internalType":"uint64"},{"name":"reserved0","type":"uint64","internalType":"uint64"},{"name":"flags","type":"uint64","internalType":"uint64"},{"name":"nodes","type":"address[]","internalType":"address[]"}]},{"name":"","type":"bytes32","internalType":"bytes32"},{"name":"","type":"bytes","internalType":"bytes"}],"stateMutability":"view"},{"type":"function","name":"getStreamsOnNode","inputs":[{"name":"nodeAddress","type":"address","internalType":"address"}],"outputs":[{"name":"","type":"tuple[]","internalType":"struct StreamWithId[]","components":[{"name":"id","type":"bytes32","internalType":"bytes32"},{"name":"stream","type":"tuple","internalType":"struct Stream","components":[{"name":"lastMiniblockHash","type":"bytes32","internalType":"bytes32"},{"name":"lastMiniblockNum","type":"uint64","internalType":"uint64"},{"name":"reserved0","type":"uint64","internalType":"uint64"},{"name":"flags","type":"uint64","internalType":"uint64"},{"name":"nodes","type":"address[]","internalType":"address[]"}]}]}],"stateMutability":"view"},{"type":"function","name":"placeStreamOnNode","inputs":[{"name":"streamId","type":"bytes32","internalType":"bytes32"},{"name":"nodeAddress","type":"address","internalType":"address"}],"outputs":[],"stateMutability":"nonpayable"},{"type":"function","name":"removeStreamFromNode","inputs":[{"name":"streamId","type":"bytes32","internalType":"bytes32"},{"name":"nodeAddress","type":"address","internalType":"address"}],"outputs":[],"stateMutability":"nonpayable"},{"type":"function","name":"setStreamLastMiniblock","inputs":[{"name":"streamId","type":"bytes32","internalType":"bytes32"},{"name":"","type":"bytes32","internalType":"bytes32"},{"name":"lastMiniblockHash","type":"bytes32","internalType":"bytes32"},{"name":"lastMiniblockNum","type":"uint64","internalType":"uint64"},{"name":"isSealed","type":"bool","internalType":"bool"}],"outputs":[],"stateMutability":"nonpayable"},{"type":"event","name":"StreamAllocated","inputs":[{"name":"streamId","type":"bytes32","indexed":false,"internalType":"bytes32"},{"name":"nodes","type":"address[]","indexed":false,"internalType":"address[]"},{"name":"genesisMiniblockHash","type":"bytes32","indexed":false,"internalType":"bytes32"},{"name":"genesisMiniblock","type":"bytes","indexed":false,"internalType":"bytes"}],"anonymous":false},{"type":"event","name":"StreamLastMiniblockUpdated","inputs":[{"name":"streamId","type":"bytes32","indexed":false,"internalType":"bytes32"},{"name":"lastMiniblockHash","type":"bytes32","indexed":false,"internalType":"bytes32"},{"name":"lastMiniblockNum","type":"uint64","indexed":false,"internalType":"uint64"},{"name":"isSealed","type":"bool","indexed":false,"internalType":"bool"}],"anonymous":false},{"type":"event","name":"StreamPlacementUpdated","inputs":[{"name":"streamId","type":"bytes32","indexed":false,"internalType":"bytes32"},{"name":"nodeAddress","type":"address","indexed":false,"internalType":"address"},{"name":"isAdded","type":"bool","indexed":false,"internalType":"bool"}],"anonymous":false}],"bytecode":{"object":"0x608060405234801561001057600080fd5b50611dbc806100206000396000f3fe608060405234801561001057600080fd5b50600436106100b45760003560e01c806386789fc61161007157806386789fc6146101615780639ee86d3814610176578063c0f2208414610189578063ca78c41a1461019f578063d7a3158a146101c0578063ee885b12146101d357600080fd5b80631290abe8146100b957806332705ac4146100e25780633bd84c0c146101025780633c2544d11461010a57806368b454df1461012c5780636b883c391461014c575b600080fd5b6100cc6100c7366004611683565b6101e6565b6040516100d9919061172d565b60405180910390f35b6100f56100f036600461175c565b610311565b6040516100d991906117f8565b6100f56105c1565b61011d610118366004611683565b610732565b6040516100d993929190611851565b61013f61013a366004611683565b610903565b6040516100d99190611886565b61015f61015a36600461194e565b610a2a565b005b610169610c8f565b6040516100d99190611a31565b61015f610184366004611a75565b610ca0565b610191610e5d565b6040519081526020016100d9565b6101b26101ad366004611aa1565b610e68565b6040516100d9929190611ac3565b61015f6101ce366004611ae7565b611061565b61015f6101e1366004611a75565b6111ec565b6040805160a081018252600080825260208201819052918101829052606080820183905260808201529061021a9083611438565b61025e5760408051808201825260098152681393d517d193d5539160ba1b6020820152905162461bcd60e51b81526102559190600401611b4e565b60405180910390fd5b600082815260026020818152604092839020835160a0810185528154815260018201546001600160401b0380821683860152600160401b8204811683880152600160801b909104166060820152928101805485518185028101850190965280865293949193608086019383018282801561030157602002820191906000526020600020905b81546001600160a01b031681526001909101906020018083116102e3575b5050505050815250509050919050565b6060600061031e81611455565b6001600160401b0381111561033557610335611899565b60405190808252806020026020018201604052801561035e578160200160208202803683370190505b5090506000805b61036f6000611455565b811015610424576000610382818361145f565b60008181526002602052604081209192505b600282015481101561041657876001600160a01b03168260020182815481106103bf576103bf611b61565b6000918252602090912001546001600160a01b03160361040e578286866103e581611b8d565b975063ffffffff16815181106103fd576103fd611b61565b602002602001018181525050610416565b600101610394565b505050806001019050610365565b5060008163ffffffff166001600160401b0381111561044557610445611899565b60405190808252806020026020018201604052801561047e57816020015b61046b611582565b8152602001906001900390816104635790505b50905060005b8263ffffffff168110156105b85760405180604001604052808583815181106104af576104af611b61565b60200260200101518152602001600060020160008785815181106104d5576104d5611b61565b6020908102919091018101518252818101929092526040908101600020815160a0810183528154815260018201546001600160401b0380821683870152600160401b8204811683860152600160801b90910416606082015260028201805484518187028101870190955280855291949293608086019390929083018282801561058757602002820191906000526020600020905b81546001600160a01b03168152600190910190602001808311610569575b5050505050815250508152508282815181106105a5576105a5611b61565b6020908102919091010152600101610484565b50949350505050565b606060006105ce81611455565b6001600160401b038111156105e5576105e5611899565b60405190808252806020026020018201604052801561061e57816020015b61060b611582565b8152602001906001900390816106035790505b50905060005b61062e6000611455565b81101561072c576000610641818361145f565b60408051808201825282815260008381526002602081815291849020845160a0810186528154815260018201546001600160401b0380821683870152600160401b8204811683890152600160801b90910416606082015291810180548651818602810186019097528087529697509395838701959294919360808601939291908301828280156106fa57602002820191906000526020600020905b81546001600160a01b031681526001909101906020018083116106dc575b50505050508152505081525083838151811061071857610718611b61565b602090810291909101015250600101610624565b50919050565b6040805160a08101825260008082526020820181905291810182905260608082018390526080820181905290919061076a8285611438565b6107a55760408051808201825260098152681393d517d193d5539160ba1b6020820152905162461bcd60e51b81526102559190600401611b4e565b600084815260026020818152604080842060048352818520546003845294829020825160a0810184528254815260018301546001600160401b0380821683880152600160401b8204811683870152600160801b9091041660608201529482018054845181870281018701909552808552929695919491938793608086019391929183018282801561085f57602002820191906000526020600020905b81546001600160a01b03168152600190910190602001808311610841575b505050505081525050925080805461087690611bb0565b80601f01602080910402602001604051908101604052809291908181526020018280546108a290611bb0565b80156108ef5780601f106108c4576101008083540402835291602001916108ef565b820191906000526020600020905b8154815290600101906020018083116108d257829003601f168201915b505050505090509250925092509193909250565b61090b611582565b6109156000611455565b82106109525760408051808201825260098152681393d517d193d5539160ba1b6020820152905162461bcd60e51b81526102559190600401611b4e565b600061095e818461145f565b60408051808201825282815260008381526002602081815291849020845160a0810186528154815260018201546001600160401b0380821683870152600160401b8204811683890152600160801b9091041660608201529181018054865181860281018601909752808752969750939583870195929491936080860193929190830182828015610a1757602002820191906000526020600020905b81546001600160a01b031681526001909101906020018083116109f9575b5050509190925250505090529392505050565b336000818152600760205260409020600201546001600160a01b0316610a8657604080518082018252600e81526d1393d11157d393d517d193d5539160921b6020820152905162461bcd60e51b81526102559190600401611b4e565b610a91600086611438565b15610ad257604080518082018252600e81526d414c52454144595f45584953545360901b6020820152905162461bcd60e51b81526102559190600401611b4e565b60005b8451811015610b5657610b0e858281518110610af357610af3611b61565b6020026020010151600060050161146b90919063ffffffff16565b610b4e57604080518082018252600e81526d1393d11157d393d517d193d5539160921b6020820152905162461bcd60e51b81526102559190600401611b4e565b600101610ad5565b506040805160a081018252848152600060208201819052918101829052606081018290526080810186905290610b8c908761148d565b5060008681526002602081815260409283902084518155818501516001820180549587015160608801516001600160401b03908116600160801b0267ffffffffffffffff60801b19928216600160401b026fffffffffffffffffffffffffffffffff19909916919094161796909617959095161790935560808401518051859493610c1c939085019201906115cc565b5050506000868152600360205260409020610c378482611c35565b5060008681526004602052604090819020859055517f55ef7efc60ef99743e54209752c9a8e047e013917ec91572db75875069dd65bb90610c7f908890889088908890611cf4565b60405180910390a1505050505050565b6060610c9b6000611499565b905090565b81610cac600082611438565b610ce75760408051808201825260098152681393d517d193d5539160ba1b6020820152905162461bcd60e51b81526102559190600401611b4e565b6001600160a01b03808316600090815260076020526040902060020154839116610d4757604080518082018252600e81526d1393d11157d393d517d193d5539160921b6020820152905162461bcd60e51b81526102559190600401611b4e565b6000848152600260205260408120905b6002820154811015610de057846001600160a01b0316826002018281548110610d8257610d82611b61565b6000918252602090912001546001600160a01b031603610dd857604080518082018252600e81526d414c52454144595f45584953545360901b6020820152905162461bcd60e51b81526102559190600401611b4e565b600101610d57565b5060028101805460018082018355600092835260209283902090910180546001600160a01b0319166001600160a01b03881690811790915560408051898152938401919091528201527faaa473c28a5fe04b6a7ecd795826e462f9d0c23f00ef9f51ec02fa6ea418806f9060600160405180910390a15050505050565b6000610c9b81611455565b60606000828410604051806040016040528060078152602001664241445f41524760c81b81525090610ead5760405162461bcd60e51b81526004016102559190611b4e565b506000610eba8585611d67565b6001600160401b03811115610ed157610ed1611899565b604051908082528060200260200182016040528015610f0a57816020015b610ef7611582565b815260200190600190039081610eef5790505b50905060005b610f1a6000611455565b610f248288611d7a565b108015610f39575084610f378288611d7a565b105b15611049576000610f55610f4d8389611d7a565b60009061145f565b60408051808201825282815260008381526002602081815291849020845160a0810186528154815260018201546001600160401b0380821683870152600160401b8204811683890152600160801b909104166060820152918101805486518186028101860190975280875296975093958387019592949193608086019392919083018282801561100e57602002820191906000526020600020905b81546001600160a01b03168152600190910190602001808311610ff0575b50505050508152505081525083838151811061102c5761102c611b61565b6020026020010181905250508061104290611d8d565b9050610f10565b50806110556000611455565b90969410159450505050565b336000818152600760205260409020600201546001600160a01b03166110bd57604080518082018252600e81526d1393d11157d393d517d193d5539160921b6020820152905162461bcd60e51b81526102559190600401611b4e565b6110c8600087611438565b6111035760408051808201825260098152681393d517d193d5539160ba1b6020820152905162461bcd60e51b81526102559190600401611b4e565b600086815260026020526040902084815560018101805467ffffffffffffffff19166001600160401b038616179055821561116b576001818101805467ffffffffffffffff60801b198116600160801b918290046001600160401b0316909317029190911790555b836001600160401b031660010361119357600087815260036020526040812061119391611631565b60408051888152602081018790526001600160401b03861681830152841515606082015290517fccc26bbb6dd655ea0bb8a40a3c30e35c6bdf42f8faf0d71bbea897af768cda8b9181900360800190a150505050505050565b816111f8600082611438565b6112335760408051808201825260098152681393d517d193d5539160ba1b6020820152905162461bcd60e51b81526102559190600401611b4e565b6001600160a01b0380831660009081526007602052604090206002015483911661129357604080518082018252600e81526d1393d11157d393d517d193d5539160921b6020820152905162461bcd60e51b81526102559190600401611b4e565b600084815260026020526040812090805b60028301548110156113ad57856001600160a01b03168360020182815481106112cf576112cf611b61565b6000918252602090912001546001600160a01b0316036113a5576002830180546112fb90600190611d67565b8154811061130b5761130b611b61565b6000918252602090912001546002840180546001600160a01b03909216918390811061133957611339611b61565b9060005260206000200160006101000a8154816001600160a01b0302191690836001600160a01b031602179055508260020180548061137a5761137a611da6565b600082815260209020810160001990810180546001600160a01b0319169055019055600191506113ad565b6001016112a4565b50806113ef57604080518082018252600e81526d1393d11157d393d517d193d5539160921b6020820152905162461bcd60e51b81526102559190600401611b4e565b604080518781526001600160a01b03871660208201526000918101919091527faaa473c28a5fe04b6a7ecd795826e462f9d0c23f00ef9f51ec02fa6ea418806f90606001610c7f565b600081815260018301602052604081205415155b90505b92915050565b600061144f825490565b600061144c83836114ad565b6001600160a01b0381166000908152600183016020526040812054151561144c565b600061144c83836114d7565b606060006114a683611526565b9392505050565b60008260000182815481106114c4576114c4611b61565b9060005260206000200154905092915050565b600081815260018301602052604081205461151e5750815460018181018455600084815260208082209093018490558454848252828601909352604090209190915561144f565b50600061144f565b60608160000180548060200260200160405190810160405280929190818152602001828054801561157657602002820191906000526020600020905b815481526020019060010190808311611562575b50505050509050919050565b6040805180820190915260008152602081016115c76040805160a081018252600080825260208201819052918101829052606080820192909252608081019190915290565b905290565b828054828255906000526020600020908101928215611621579160200282015b8281111561162157825182546001600160a01b0319166001600160a01b039091161782556020909201916001909101906115ec565b5061162d92915061166e565b5090565b50805461163d90611bb0565b6000825580601f1061164d575050565b601f01602090049060005260206000209081019061166b919061166e565b50565b5b8082111561162d576000815560010161166f565b60006020828403121561169557600080fd5b5035919050565b600060a08301825184526020808401516001600160401b0380821660208801528060408701511660408801528060608701511660608801525050608084015160a0608087015282815180855260c088019150602083019450600092505b808310156117225784516001600160a01b031682529383019360019290920191908301906116f9565b509695505050505050565b60208152600061144c602083018461169c565b80356001600160a01b038116811461175757600080fd5b919050565b60006020828403121561176e57600080fd5b61144c82611740565b805182526000602082015160406020850152611796604085018261169c565b949350505050565b60008282518085526020808601955060208260051b8401016020860160005b848110156117eb57601f198684030189526117d9838351611777565b988401989250908301906001016117bd565b5090979650505050505050565b60208152600061144c602083018461179e565b6000815180845260005b8181101561183157602081850181015186830182015201611815565b506000602082860101526020601f19601f83011685010191505092915050565b606081526000611864606083018661169c565b846020840152828103604084015261187c818561180b565b9695505050505050565b60208152600061144c6020830184611777565b634e487b7160e01b600052604160045260246000fd5b604051601f8201601f191681016001600160401b03811182821017156118d7576118d7611899565b604052919050565b600082601f8301126118f057600080fd5b81356001600160401b0381111561190957611909611899565b61191c601f8201601f19166020016118af565b81815284602083860101111561193157600080fd5b816020850160208301376000918101602001919091529392505050565b6000806000806080858703121561196457600080fd5b843593506020808601356001600160401b038082111561198357600080fd5b818801915088601f83011261199757600080fd5b8135818111156119a9576119a9611899565b8060051b6119b88582016118af565b918252838101850191858101908c8411156119d257600080fd5b948601945b838610156119f7576119e886611740565b825294860194908601906119d7565b9850505050604088013594506060880135925080831115611a1757600080fd5b5050611a25878288016118df565b91505092959194509250565b6020808252825182820181905260009190848201906040850190845b81811015611a6957835183529284019291840191600101611a4d565b50909695505050505050565b60008060408385031215611a8857600080fd5b82359150611a9860208401611740565b90509250929050565b60008060408385031215611ab457600080fd5b50508035926020909101359150565b604081526000611ad6604083018561179e565b905082151560208301529392505050565b600080600080600060a08688031215611aff57600080fd5b85359450602086013593506040860135925060608601356001600160401b0381168114611b2b57600080fd5b915060808601358015158114611b4057600080fd5b809150509295509295909350565b60208152600061144c602083018461180b565b634e487b7160e01b600052603260045260246000fd5b634e487b7160e01b600052601160045260246000fd5b600063ffffffff808316818103611ba657611ba6611b77565b6001019392505050565b600181811c90821680611bc457607f821691505b60208210810361072c57634e487b7160e01b600052602260045260246000fd5b601f821115611c30576000816000526020600020601f850160051c81016020861015611c0d5750805b601f850160051c820191505b81811015611c2c57828155600101611c19565b5050505b505050565b81516001600160401b03811115611c4e57611c4e611899565b611c6281611c5c8454611bb0565b84611be4565b602080601f831160018114611c975760008415611c7f5750858301515b600019600386901b1c1916600185901b178555611c2c565b600085815260208120601f198616915b82811015611cc657888601518255948401946001909101908401611ca7565b5085821015611ce45787850151600019600388901b60f8161c191681555b5050505050600190811b01905550565b60006080820186835260206080602085015281875180845260a08601915060208901935060005b81811015611d405784516001600160a01b031683529383019391830191600101611d1b565b50508660408601528481036060860152611d5a818761180b565b9998505050505050505050565b8181038181111561144f5761144f611b77565b8082018082111561144f5761144f611b77565b600060018201611d9f57611d9f611b77565b5060010190565b634e487b7160e01b600052603160045260246000fd","linkReferences":{}},"methodIdentifiers":{"allocateStream(bytes32,address[],bytes32,bytes)":"6b883c39","getAllStreamIds()":"86789fc6","getAllStreams()":"3bd84c0c","getPaginatedStreams(uint256,uint256)":"ca78c41a","getStream(bytes32)":"1290abe8","getStreamByIndex(uint256)":"68b454df","getStreamCount()":"c0f22084","getStreamWithGenesis(bytes32)":"3c2544d1","getStreamsOnNode(address)":"32705ac4","placeStreamOnNode(bytes32,address)":"9ee86d38","removeStreamFromNode(bytes32,address)":"ee885b12","setStreamLastMiniblock(bytes32,bytes32,bytes32,uint64,bool)":"d7a3158a"},"id":148}