{
  "abi": [
    {
      "inputs": [
        {
          "internalType": "contract IERC721",
          "name": "_councilNFT",
          "type": "address"
        }
      ],
      "stateMutability": "nonpayable",
      "type": "constructor"
    },
    {
      "inputs": [],
      "name": "NoPointsToClaim",
      "type": "error"
    },
    {
      "inputs": [],
      "name": "NoStakedTokens",
      "type": "error"
    },
    {
      "inputs": [],
      "name": "NotTokenOwner",
      "type": "error"
    },
    {
      "anonymous": false,
      "inputs": [
        {
          "indexed": true,
          "internalType": "address",
          "name": "previousOwner",
          "type": "address"
        },
        {
          "indexed": true,
          "internalType": "address",
          "name": "newOwner",
          "type": "address"
        }
      ],
      "name": "OwnershipTransferred",
      "type": "event"
    },
    {
      "anonymous": false,
      "inputs": [
        {
          "indexed": true,
          "internalType": "address",
          "name": "user",
          "type": "address"
        },
        {
          "indexed": false,
          "internalType": "uint256",
          "name": "points",
          "type": "uint256"
        }
      ],
      "name": "PointsClaimed",
      "type": "event"
    },
    {
      "anonymous": false,
      "inputs": [
        {
          "indexed": true,
          "internalType": "address",
          "name": "user",
          "type": "address"
        },
        {
          "indexed": false,
          "internalType": "uint256",
          "name": "tokenId",
          "type": "uint256"
        }
      ],
      "name": "Staked",
      "type": "event"
    },
    {
      "anonymous": false,
      "inputs": [
        {
          "indexed": true,
          "internalType": "address",
          "name": "user",
          "type": "address"
        },
        {
          "indexed": false,
          "internalType": "uint256",
          "name": "tokenId",
          "type": "uint256"
        }
      ],
      "name": "Withdraw",
      "type": "event"
    },
    {
      "inputs": [],
      "name": "claimPoints",
      "outputs": [],
      "stateMutability": "nonpayable",
      "type": "function"
    },
    {
      "inputs": [],
      "name": "councilNFT",
      "outputs": [
        {
          "internalType": "contract IERC721",
          "name": "",
          "type": "address"
        }
      ],
      "stateMutability": "view",
      "type": "function"
    },
    {
      "inputs": [
        {
          "internalType": "address",
          "name": "_staker",
          "type": "address"
        }
      ],
      "name": "getAvailablePoints",
      "outputs": [
        {
          "internalType": "uint256",
          "name": "",
          "type": "uint256"
        }
      ],
      "stateMutability": "view",
      "type": "function"
    },
    {
      "inputs": [
        {
          "internalType": "address",
          "name": "_user",
          "type": "address"
        }
      ],
      "name": "getStakedTokensByAddress",
      "outputs": [
        {
          "components": [
            {
              "internalType": "address",
              "name": "staker",
              "type": "address"
            },
            {
              "internalType": "uint256",
              "name": "tokenId",
              "type": "uint256"
            }
          ],
          "internalType": "struct CouncilStaking.StakedToken[]",
          "name": "",
          "type": "tuple[]"
        }
      ],
      "stateMutability": "view",
      "type": "function"
    },
    {
      "inputs": [
        {
          "internalType": "uint256",
          "name": "_tokenId",
          "type": "uint256"
        }
      ],
      "name": "getStakerAddressByTokenId",
      "outputs": [
        {
          "internalType": "address",
          "name": "",
          "type": "address"
        }
      ],
      "stateMutability": "view",
      "type": "function"
    },
    {
      "inputs": [
        {
          "internalType": "address",
          "name": "_staker",
          "type": "address"
        }
      ],
      "name": "getStakerByAddress",
      "outputs": [
        {
          "components": [
            {
              "internalType": "uint256",
              "name": "amountStaked",
              "type": "uint256"
            },
            {
              "components": [
                {
                  "internalType": "address",
                  "name": "staker",
                  "type": "address"
                },
                {
                  "internalType": "uint256",
                  "name": "tokenId",
                  "type": "uint256"
                }
              ],
              "internalType": "struct CouncilStaking.StakedToken[]",
              "name": "stakedTokens",
              "type": "tuple[]"
            },
            {
              "internalType": "uint256",
              "name": "timeOfLastUpdate",
              "type": "uint256"
            },
            {
              "internalType": "uint256",
              "name": "unclaimedPoints",
              "type": "uint256"
            }
          ],
          "internalType": "struct CouncilStaking.Staker",
          "name": "",
          "type": "tuple"
        }
      ],
      "stateMutability": "view",
      "type": "function"
    },
    {
      "inputs": [],
      "name": "owner",
      "outputs": [
        {
          "internalType": "address",
          "name": "",
          "type": "address"
        }
      ],
      "stateMutability": "view",
      "type": "function"
    },
    {
      "inputs": [],
      "name": "renounceOwnership",
      "outputs": [],
      "stateMutability": "nonpayable",
      "type": "function"
    },
    {
      "inputs": [
        {
          "internalType": "uint256",
          "name": "_tokenId",
          "type": "uint256"
        }
      ],
      "name": "stakeToken",
      "outputs": [],
      "stateMutability": "nonpayable",
      "type": "function"
    },
    {
      "inputs": [],
      "name": "totalSupply",
      "outputs": [
        {
          "internalType": "uint256",
          "name": "",
          "type": "uint256"
        }
      ],
      "stateMutability": "view",
      "type": "function"
    },
    {
      "inputs": [
        {
          "internalType": "address",
          "name": "newOwner",
          "type": "address"
        }
      ],
      "name": "transferOwnership",
      "outputs": [],
      "stateMutability": "nonpayable",
      "type": "function"
    },
    {
      "inputs": [
        {
          "internalType": "uint256",
          "name": "_tokenId",
          "type": "uint256"
        }
      ],
      "name": "withdrawToken",
      "outputs": [],
      "stateMutability": "nonpayable",
      "type": "function"
    }
  ],
  "bytecode": {
    "object": "0x60a0604052620186a060035534801561001757600080fd5b506040516110ca3803806110ca833981016040819052610036916100a4565b61003f33610054565b600180556001600160a01b03166080526100d4565b600080546001600160a01b038381166001600160a01b0319831681178455604051919092169283917f8be0079c531659141344cd1fd0a4f28419497f9722a3daafe3b4186f6b6457e09190a35050565b6000602082840312156100b657600080fd5b81516001600160a01b03811681146100cd57600080fd5b9392505050565b608051610fc6610104600039600081816101bb01528181610744015281816109a70152610a5b0152610fc66000f3fe608060405234801561001057600080fd5b50600436106100b45760003560e01c80638da5cb5b116100715780638da5cb5b1461015f578063b503bbdb14610170578063ca1fb21b14610190578063cda6b847146101a3578063f1650069146101b6578063f2fde38b146101dd57600080fd5b806302dc0524146100b957806304d092c7146100e25780630f59165a146100ec57806318160ddd1461012d57806350baa62214610144578063715018a614610157575b600080fd5b6100cc6100c7366004610daa565b6101f0565b6040516100d99190610dc7565b60405180910390f35b6100ea6103e1565b005b6101156100fa366004610e22565b6000908152600560205260409020546001600160a01b031690565b6040516001600160a01b0390911681526020016100d9565b61013660025481565b6040519081526020016100d9565b6100ea610152366004610e22565b610483565b6100ea61080c565b6000546001600160a01b0316610115565b61018361017e366004610daa565b610820565b6040516100d99190610e3b565b61013661019e366004610daa565b610902565b6100ea6101b1366004610e22565b610931565b6101157f000000000000000000000000000000000000000000000000000000000000000081565b6100ea6101eb366004610daa565b610bbd565b336000908152600460205260409020546060901561039d576001600160a01b03821660009081526004602052604081205467ffffffffffffffff81111561023957610239610ec2565b60405190808252806020026020018201604052801561027e57816020015b60408051808201909152600080825260208201528152602001906001900390816102575790505b5090506000805b6001600160a01b038516600090815260046020526040902060010154811015610394576001600160a01b03851660009081526004602052604081206001018054839081106102d5576102d5610ed8565b60009182526020909120600290910201546001600160a01b031614610382576001600160a01b038516600090815260046020526040902060010180548290811061032157610321610ed8565b60009182526020918290206040805180820190915260029092020180546001600160a01b031682526001015491810191909152835184908490811061036857610368610ed8565b6020026020010181905250818061037e90610f04565b9250505b8061038c81610f04565b915050610285565b50909392505050565b60408051600080825260208201909252906103da565b60408051808201909152600080825260208201528152602001906001900390816103b35790505b5092915050565b3360008181526004602052604081206003015490916103ff90610c38565b6104099190610f1d565b90508060000361042b5760405162a445ad60e21b815260040160405180910390fd5b3360008181526004602052604080822042600282015560030191909155517fba953728785de35be3827ee7a7a7867a8472947562602939440e6c0bdbf4725e906104789084815260200190565b60405180910390a250565b61048b610c92565b3360009081526004602052604081205490036104ba57604051637ed4d00960e01b815260040160405180910390fd5b6000818152600560205260409020546001600160a01b031633146104f1576040516359dc379f60e01b815260040160405180910390fd5b60006104fc33610c38565b33600090815260046020526040812060030180549293508392909190610523908490610f1d565b909155505033600090815260046020526040812060010154815b818110156105e65733600090815260046020526040902060010180548691908390811061056c5761056c610ed8565b9060005260206000209060020201600101541480156105c757503360009081526004602052604081206001018054839081106105aa576105aa610ed8565b60009182526020909120600290910201546001600160a01b031614155b156105d4578092506105e6565b806105de81610f04565b91505061053d565b503360009081526004602052604090206001908101906106069083610f30565b8154811061061657610616610ed8565b906000526020600020906002020160046000336001600160a01b03166001600160a01b03168152602001908152602001600020600101838154811061065d5761065d610ed8565b60009182526020808320845460029093020180546001600160a01b0319166001600160a01b03909316929092178255600193840154918401919091553382526004905260409020018054806106b4576106b4610f43565b6000828152602080822060026000199094019384020180546001600160a01b03191681556001018290559190925533825260049052604081208054916106f983610f59565b90915550506000848152600560205260409081902080546001600160a01b0319169055516323b872dd60e01b8152306004820152336024820152604481018590526001600160a01b037f000000000000000000000000000000000000000000000000000000000000000016906323b872dd90606401600060405180830381600087803b15801561078857600080fd5b505af115801561079c573d6000803e3d6000fd5b5050336000908152600460205260408120426002918201558054935091506107c383610f59565b909155505060405184815233907f884edad9ce6fa2440d8a54cc123490eb96d2768479d49ff9c7366125a94243649060200160405180910390a250505061080960018055565b50565b610814610ceb565b61081e6000610d45565b565b61084b6040518060800160405280600081526020016060815260200160008152602001600081525090565b6001600160a01b03821660009081526004602090815260408083208151608081018352815481526001820180548451818702810187019095528085529195929486810194939192919084015b828210156108df576000848152602090819020604080518082019091526002850290910180546001600160a01b03168252600190810154828401529083529092019101610897565b505050508152602001600282015481526020016003820154815250509050919050565b33600090815260046020526040812060030154819061092084610c38565b61092a9190610f1d565b9392505050565b610939610c92565b336000908152600460205260409020541561098757600061095933610c38565b33600090815260046020526040812060030180549293508392909190610980908490610f1d565b9091555050505b6040516331a9108f60e11b81526004810182905233906001600160a01b037f00000000000000000000000000000000000000000000000000000000000000001690636352211e90602401602060405180830381865afa1580156109ee573d6000803e3d6000fd5b505050506040513d601f19601f82011682018060405250810190610a129190610f70565b6001600160a01b031614610a39576040516359dc379f60e01b815260040160405180910390fd5b6040516323b872dd60e01b8152336004820152306024820152604481018290527f00000000000000000000000000000000000000000000000000000000000000006001600160a01b0316906323b872dd90606401600060405180830381600087803b158015610aa757600080fd5b505af1158015610abb573d6000803e3d6000fd5b5050604080518082018252338082526020808301878152600083815260048352948520600180820180548083018255908852938720865160029095020180546001600160a01b0319166001600160a01b0390951694909417845591519290910191909155908352805491945090925090610b3483610f04565b9091555050600082815260056020908152604080832080546001600160a01b0319163390811790915583526004909152812042600291820155805491610b7983610f04565b909155505060405182815233907f9e71bc8eea02a63969f509818f2dafb9254532904319f9dbda79b67bd34a5f3d9060200160405180910390a25061080960018055565b610bc5610ceb565b6001600160a01b038116610c2f5760405162461bcd60e51b815260206004820152602660248201527f4f776e61626c653a206e6577206f776e657220697320746865207a65726f206160448201526564647265737360d01b60648201526084015b60405180910390fd5b61080981610d45565b6003546001600160a01b038216600090815260046020526040812080546002909101549192610e1092909190610c6e9042610f30565b610c789190610f8d565b610c829190610f8d565b610c8c9190610fa4565b92915050565b600260015403610ce45760405162461bcd60e51b815260206004820152601f60248201527f5265656e7472616e637947756172643a207265656e7472616e742063616c6c006044820152606401610c26565b6002600155565b6000546001600160a01b0316331461081e5760405162461bcd60e51b815260206004820181905260248201527f4f776e61626c653a2063616c6c6572206973206e6f7420746865206f776e65726044820152606401610c26565b600080546001600160a01b038381166001600160a01b0319831681178455604051919092169283917f8be0079c531659141344cd1fd0a4f28419497f9722a3daafe3b4186f6b6457e09190a35050565b6001600160a01b038116811461080957600080fd5b600060208284031215610dbc57600080fd5b813561092a81610d95565b6020808252825182820181905260009190848201906040850190845b81811015610e1657835180516001600160a01b031684526020908101519084015260408301938501939250600101610de3565b50909695505050505050565b600060208284031215610e3457600080fd5b5035919050565b60208082528251828201528281015160806040840152805160a0840181905260009291820190839060c08601905b80831015610ea057835180516001600160a01b03168352602090810151908301526040820191508484019350600183019250610e69565b5060408701516060870152606087015160808701528094505050505092915050565b634e487b7160e01b600052604160045260246000fd5b634e487b7160e01b600052603260045260246000fd5b634e487b7160e01b600052601160045260246000fd5b600060018201610f1657610f16610eee565b5060010190565b80820180821115610c8c57610c8c610eee565b81810381811115610c8c57610c8c610eee565b634e487b7160e01b600052603160045260246000fd5b600081610f6857610f68610eee565b506000190190565b600060208284031215610f8257600080fd5b815161092a81610d95565b8082028115828204841417610c8c57610c8c610eee565b600082610fc157634e487b7160e01b600052601260045260246000fd5b50049056",
    "linkReferences": {}
  },
  "methodIdentifiers": {
    "claimPoints()": "04d092c7",
    "councilNFT()": "f1650069",
    "getAvailablePoints(address)": "ca1fb21b",
    "getStakedTokensByAddress(address)": "02dc0524",
    "getStakerAddressByTokenId(uint256)": "0f59165a",
    "getStakerByAddress(address)": "b503bbdb",
    "owner()": "8da5cb5b",
    "renounceOwnership()": "715018a6",
    "stakeToken(uint256)": "cda6b847",
    "totalSupply()": "18160ddd",
    "transferOwnership(address)": "f2fde38b",
    "withdrawToken(uint256)": "50baa622"
  },
  "id": 165
}