{
  "abi": [
    {
      "inputs": [
        {
          "internalType": "contract IEntitlementChecker",
          "name": "assignedEntitlementChecker",
          "type": "address"
        }
      ],
      "stateMutability": "nonpayable",
      "type": "constructor"
    },
    {
      "anonymous": false,
      "inputs": [
        {
          "indexed": true,
          "internalType": "address",
          "name": "callerAddress",
          "type": "address"
        },
        {
          "indexed": false,
          "internalType": "bytes32",
          "name": "transactionId",
          "type": "bytes32"
        },
        {
          "indexed": false,
          "internalType": "address[]",
          "name": "selectedNodes",
          "type": "address[]"
        },
        {
          "indexed": false,
          "internalType": "address",
          "name": "contractAddress",
          "type": "address"
        }
      ],
      "name": "EntitlementCheckRequested",
      "type": "event"
    },
    {
      "anonymous": false,
      "inputs": [
        {
          "indexed": true,
          "internalType": "bytes32",
          "name": "transactionId",
          "type": "bytes32"
        },
        {
          "indexed": false,
          "internalType": "enum IEntitlementCheckerEvents.NodeVoteStatus",
          "name": "result",
          "type": "uint8"
        }
      ],
      "name": "EntitlementCheckResultPosted",
      "type": "event"
    },
    {
      "inputs": [
        {
          "internalType": "bytes32",
          "name": "transactionId",
          "type": "bytes32"
        }
      ],
      "name": "deleteTransaction",
      "outputs": [
        {
          "internalType": "bool",
          "name": "",
          "type": "bool"
        }
      ],
      "stateMutability": "nonpayable",
      "type": "function"
    },
    {
      "inputs": [],
      "name": "getEntitlementOperations",
      "outputs": [
        {
          "internalType": "bytes",
          "name": "",
          "type": "bytes"
        }
      ],
      "stateMutability": "view",
      "type": "function"
    },
    {
      "inputs": [
        {
          "internalType": "bytes32",
          "name": "transactionId",
          "type": "bytes32"
        },
        {
          "internalType": "enum IEntitlementCheckerEvents.NodeVoteStatus",
          "name": "result",
          "type": "uint8"
        }
      ],
      "name": "postEntitlementCheckResult",
      "outputs": [
        {
          "internalType": "bool",
          "name": "",
          "type": "bool"
        }
      ],
      "stateMutability": "nonpayable",
      "type": "function"
    },
    {
      "inputs": [],
      "name": "requestEntitlementCheck",
      "outputs": [
        {
          "internalType": "bool",
          "name": "",
          "type": "bool"
        }
      ],
      "stateMutability": "nonpayable",
      "type": "function"
    },
    {
      "inputs": [],
      "name": "test",
      "outputs": [
        {
          "internalType": "bytes",
          "name": "",
          "type": "bytes"
        }
      ],
      "stateMutability": "view",
      "type": "function"
    },
    {
      "inputs": [
        {
          "internalType": "bytes32",
          "name": "",
          "type": "bytes32"
        }
      ],
      "name": "transactions",
      "outputs": [
        {
          "internalType": "bool",
          "name": "hasBenSet",
          "type": "bool"
        },
        {
          "internalType": "address",
          "name": "clientAddress",
          "type": "address"
        },
        {
          "internalType": "enum IEntitlementCheckerEvents.NodeVoteStatus",
          "name": "checkResult",
          "type": "uint8"
        },
        {
          "internalType": "bool",
          "name": "isCompleted",
          "type": "bool"
        }
      ],
      "stateMutability": "view",
      "type": "function"
    }
  ],
  "bytecode": {
    "object": "0x608060405234801561001057600080fd5b5060405161109738038061109783398101604081905261002f916100bf565b806001600160a01b0381166100995760405162461bcd60e51b815260206004820152602660248201527f456e7469746c656d656e74436865636b657220616464726573732063616e6e6f60448201526507420626520360d41b606482015260840160405180910390fd5b600080546001600160a01b0319166001600160a01b0392909216919091179055506100ef565b6000602082840312156100d157600080fd5b81516001600160a01b03811681146100e857600080fd5b9392505050565b610f99806100fe6000396000f3fe608060405234801561001057600080fd5b50600436106100625760003560e01c80634b5e97fe146100675780634cdf3ab81461008f578063642f2eaf146100c0578063d7eca30a14610117578063f4efb0bb1461011f578063f8a8fd6d14610132575b600080fd5b61007a610075366004610b1d565b61015a565b60405190151581526020015b60405180910390f35b60408051631d195cdd60e21b60208201528151808203600401815260249091019091525b6040516100869190610b86565b6101076100ce366004610b1d565b60016020526000908152604090205460ff808216916001600160a01b0361010082041691600160a81b8204811691600160b01b90041684565b6040516100869493929190610bd8565b61007a6101fe565b61007a61012d366004610c0e565b610533565b6100b3604051631d195cdd60e21b602082015260240160405160208183030381529060405281565b60008181526001602052604081205461010090046001600160a01b03166101c85760405162461bcd60e51b815260206004820152601a60248201527f5472616e73616374696f6e20646f6573206e6f7420657869737400000000000060448201526064015b60405180910390fd5b6000828152600160208190526040822080546001600160b81b031916815591906101f490830182610ad9565b5060019392505050565b6040516bffffffffffffffffffffffff193260601b166020820152436034820152600090819060540160408051601f19818403018152918152815160209283012060008181526001909352912080549192509060ff16156102a15760405162461bcd60e51b815260206004820152601e60248201527f5472616e73616374696f6e20616c72656164792072656769737465726564000060448201526064016101bf565b60008054604051631079b6d760e11b8152600560048201523060248201526001600160a01b03909116906320f36dae90604401600060405180830381865afa1580156102f1573d6000803e3d6000fd5b505050506040513d6000823e601f3d908101601f191682016040526103199190810190610c89565b825433610100026001600160a81b03199091161760011761ffff60a81b19168355905060005b815181101561040f5782600101604051806040016040528084848151811061036957610369610d48565b60200260200101516001600160a01b031681526020016000600281111561039257610392610ba0565b9052815460018101835560009283526020928390208251910180546001600160a01b031981166001600160a01b03909316928317825593830151929390929183916001600160a81b03191617600160a01b8360028111156103f5576103f5610ba0565b02179055505050808061040790610d5e565b91505061033f565b50600054604051637917c69760e11b81526001600160a01b039091169063f22f8d2e906104429086908590600401610d85565b600060405180830381600087803b15801561045c57600080fd5b505af1158015610470573d6000803e3d6000fd5b5050604080518082018252601f81527f72657175657374456e7469746c656d656e74436865636b2063726561746564006020820152905163c68b378760e01b815260048101879052610529935090915073__$3a0ba01a0709b49916a6decf609cce6249$__9063c68b378790602401600060405180830381865af41580156104fc573d6000803e3d6000fd5b505050506040513d6000823e601f3d908101601f191682016040526105249190810190610ddc565b610a23565b6001935050505090565b600082815260016020819052604082208054909160ff90911615151461059b5760405162461bcd60e51b815260206004820152601a60248201527f5472616e73616374696f6e206e6f74207265676973746572656400000000000060448201526064016101bf565b60008360028111156105af576105af610ba0565b036105eb5760405162461bcd60e51b815260206004820152600c60248201526b496e76616c696420766f746560a01b60448201526064016101bf565b60001960005b60018301548110156106dd57600083600101828154811061061457610614610d48565b60009182526020909120018054909150336001600160a01b03909116036106ca5760008154600160a01b900460ff16600281111561065457610654610ba0565b146106965760405162461bcd60e51b8152602060048201526012602482015271139bd91948185b1c9958591e481d9bdd195960721b60448201526064016101bf565b805491925082918690829060ff60a01b1916600160a01b8360028111156106bf576106bf610ba0565b0217905550506106dd565b50806106d581610d5e565b9150506105f1565b5060001981136107415760405162461bcd60e51b815260206004820152602960248201527f706f7374456e7469746c656d656e74436865636b526573756c74204e6f6465206044820152681b9bdd08199bdd5b9960ba1b60648201526084016101bf565b60008060005b600185015481101561083157600085600101828154811061076a5761076a610d48565b600091825260209182902060408051808201909152910180546001600160a01b03811683529192909190830190600160a01b900460ff1660028111156107b2576107b2610ba0565b60028111156107c3576107c3610ba0565b90525090506001816020015160028111156107e0576107e0610ba0565b036107f5576107ee84610d5e565b935061081e565b60028160200151600281111561080d5761080d610ba0565b0361081e5761081b83610d5e565b92505b508061082981610d5e565b915050610747565b508354600160b01b900460ff16610a1457600184015461085390600290610e70565b82111561094f57835461ffff60a81b191661010160a81b1784556040805160808101909152604a8082526109099190610f05602083013960405163c68b378760e01b8152600481018a905273__$3a0ba01a0709b49916a6decf609cce6249$__9063c68b3787906024015b600060405180830381865af41580156108db573d6000803e3d6000fd5b505050506040513d6000823e601f3d908101601f191682016040526109039190810190610ddc565b43610a6c565b835460405188917fb9d6ce397e562841871d119aaf77469c60a3b5bf8b99a5d9851656015015c6339161094691600160a81b900460ff1690610e92565b60405180910390a25b600184015461096090600290610e70565b811115610a1457835461ffff60a81b1916608160a91b1784556040805160808101909152604a8082526109ce9190610f4f602083013960405163c68b378760e01b8152600481018a905273__$3a0ba01a0709b49916a6decf609cce6249$__9063c68b3787906024016108be565b835460405188917fb9d6ce397e562841871d119aaf77469c60a3b5bf8b99a5d9851656015015c63391610a0b91600160a81b900460ff1690610e92565b60405180910390a25b60019450505050505b92915050565b610a688282604051602401610a39929190610ea0565b60408051601f198184030181529190526020810180516001600160e01b0316634b5c427760e01b179052610ab8565b5050565b610ab3838383604051602401610a8493929190610ece565b60408051601f198184030181529190526020810180516001600160e01b0316635821efa160e01b179052610ab8565b505050565b80516a636f6e736f6c652e6c6f67602083016000808483855afa5050505050565b5080546000825590600052602060002090810190610af79190610afa565b50565b5b80821115610b195780546001600160a81b0319168155600101610afb565b5090565b600060208284031215610b2f57600080fd5b5035919050565b60005b83811015610b51578181015183820152602001610b39565b50506000910152565b60008151808452610b72816020860160208601610b36565b601f01601f19169290920160200192915050565b602081526000610b996020830184610b5a565b9392505050565b634e487b7160e01b600052602160045260246000fd5b60038110610bd457634e487b7160e01b600052602160045260246000fd5b9052565b84151581526001600160a01b038416602082015260808101610bfd6040830185610bb6565b821515606083015295945050505050565b60008060408385031215610c2157600080fd5b82359150602083013560038110610c3757600080fd5b809150509250929050565b634e487b7160e01b600052604160045260246000fd5b604051601f8201601f1916810167ffffffffffffffff81118282101715610c8157610c81610c42565b604052919050565b60006020808385031215610c9c57600080fd5b825167ffffffffffffffff80821115610cb457600080fd5b818501915085601f830112610cc857600080fd5b815181811115610cda57610cda610c42565b8060051b9150610ceb848301610c58565b8181529183018401918481019088841115610d0557600080fd5b938501935b83851015610d3c57845192506001600160a01b0383168314610d2c5760008081fd5b8282529385019390850190610d0a565b98975050505050505050565b634e487b7160e01b600052603260045260246000fd5b600060018201610d7e57634e487b7160e01b600052601160045260246000fd5b5060010190565b6000604082018483526020604081850152818551808452606086019150828701935060005b81811015610dcf5784516001600160a01b031683529383019391830191600101610daa565b5090979650505050505050565b600060208284031215610dee57600080fd5b815167ffffffffffffffff80821115610e0657600080fd5b818401915084601f830112610e1a57600080fd5b815181811115610e2c57610e2c610c42565b610e3f601f8201601f1916602001610c58565b9150808252856020828501011115610e5657600080fd5b610e67816020840160208601610b36565b50949350505050565b600082610e8d57634e487b7160e01b600052601260045260246000fd5b500490565b60208101610a1d8284610bb6565b604081526000610eb36040830185610b5a565b8281036020840152610ec58185610b5a565b95945050505050565b606081526000610ee16060830186610b5a565b8281036020840152610ef38186610b5a565b91505082604083015294935050505056fe706f7374456e7469746c656d656e74436865636b526573756c7420726573756c7420656d697420456e7469746c656d656e74436865636b526573756c74506f7374656420504153534544706f7374456e7469746c656d656e74436865636b526573756c7420726573756c7420656d697420456e7469746c656d656e74436865636b526573756c74506f73746564204641494c4544",
    "linkReferences": {
      "contracts/src/utils/Bytes32ToHexString.sol": {
        "Bytes32ToHexString": [
          {
            "start": 1472,
            "length": 20
          },
          {
            "start": 2462,
            "length": 20
          },
          {
            "start": 2730,
            "length": 20
          }
        ]
      }
    }
  },
  "methodIdentifiers": {
    "deleteTransaction(bytes32)": "4b5e97fe",
    "getEntitlementOperations()": "4cdf3ab8",
    "postEntitlementCheckResult(bytes32,uint8)": "f4efb0bb",
    "requestEntitlementCheck()": "d7eca30a",
    "test()": "f8a8fd6d",
    "transactions(bytes32)": "642f2eaf"
  },
  "id": 28
}