{
  "abi": [
    {
      "inputs": [],
      "stateMutability": "nonpayable",
      "type": "constructor"
    },
    {
      "inputs": [],
      "name": "Diamond_UnsupportedFunction",
      "type": "error"
    },
    {
      "inputs": [],
      "name": "deploy",
      "outputs": [
        {
          "internalType": "address",
          "name": "",
          "type": "address"
        }
      ],
      "stateMutability": "nonpayable",
      "type": "function"
    },
    {
      "inputs": [],
      "name": "facet",
      "outputs": [
        {
          "internalType": "address",
          "name": "",
          "type": "address"
        }
      ],
      "stateMutability": "view",
      "type": "function"
    },
    {
      "inputs": [],
      "name": "initializer",
      "outputs": [
        {
          "internalType": "bytes4",
          "name": "",
          "type": "bytes4"
        }
      ],
      "stateMutability": "pure",
      "type": "function"
    },
    {
      "inputs": [
        {
          "internalType": "enum IDiamond.FacetCutAction",
          "name": "action",
          "type": "uint8"
        }
      ],
      "name": "makeCut",
      "outputs": [
        {
          "components": [
            {
              "internalType": "address",
              "name": "facetAddress",
              "type": "address"
            },
            {
              "internalType": "enum IDiamond.FacetCutAction",
              "name": "action",
              "type": "uint8"
            },
            {
              "internalType": "bytes4[]",
              "name": "functionSelectors",
              "type": "bytes4[]"
            }
          ],
          "internalType": "struct IDiamond.FacetCut",
          "name": "",
          "type": "tuple"
        }
      ],
      "stateMutability": "nonpayable",
      "type": "function"
    },
    {
      "inputs": [
        {
          "internalType": "address",
          "name": "facetAddress",
          "type": "address"
        },
        {
          "internalType": "enum IDiamond.FacetCutAction",
          "name": "action",
          "type": "uint8"
        }
      ],
      "name": "makeCut",
      "outputs": [
        {
          "components": [
            {
              "internalType": "address",
              "name": "facetAddress",
              "type": "address"
            },
            {
              "internalType": "enum IDiamond.FacetCutAction",
              "name": "action",
              "type": "uint8"
            },
            {
              "internalType": "bytes4[]",
              "name": "functionSelectors",
              "type": "bytes4[]"
            }
          ],
          "internalType": "struct IDiamond.FacetCut",
          "name": "",
          "type": "tuple"
        }
      ],
      "stateMutability": "nonpayable",
      "type": "function"
    },
    {
      "inputs": [
        {
          "internalType": "bytes",
          "name": "",
          "type": "bytes"
        }
      ],
      "name": "makeInitData",
      "outputs": [
        {
          "internalType": "bytes",
          "name": "data",
          "type": "bytes"
        }
      ],
      "stateMutability": "view",
      "type": "function"
    },
    {
      "inputs": [],
      "name": "selectors",
      "outputs": [
        {
          "internalType": "bytes4[]",
          "name": "",
          "type": "bytes4[]"
        }
      ],
      "stateMutability": "pure",
      "type": "function"
    }
  ],
  "bytecode": {
    "object": "0x608060405234801561001057600080fd5b5060405161001d9061005f565b604051809103906000f080158015610039573d6000803e3d6000fd5b50600080546001600160a01b0319166001600160a01b039290921691909117905561006c565b6112288061196783390190565b6118ec8061007b6000396000f3fe608060405234801561001057600080fd5b506004361061007d5760003560e01c8063775c300c1161005b578063775c300c146100d35780639ce110d7146100f3578063ac99462614610102578063b6010cab1461014157600080fd5b8063019ea76a14610082578063346450a1146100ab5780636e25b978146100be575b600080fd5b610095610090366004610439565b610152565b6040516100a29190610471565b60405180910390f35b6100956100b9366004610509565b6101c0565b6100c661021e565b6040516100a2919061054a565b6100db6103c9565b6040516001600160a01b0390911681526020016100a2565b604051600081526020016100a2565b6101346101103660046105ae565b506040805160048152602481019091526020810180516001600160e01b0316905290565b6040516100a2919061065f565b6000546001600160a01b03166100db565b60408051606080820183526000808352602083015291810191909152604051806060016040528061018b6000546001600160a01b031690565b6001600160a01b031681526020018360028111156101ab576101ab61045b565b81526020016101b861021e565b905292915050565b604080516060808201835260008083526020830152918101919091526040518060600160405280846001600160a01b031681526020018360028111156102085761020861045b565b815260200161021561021e565b90529392505050565b6040805160078082526101008201909252606091600091906020820160e080368337019050509050638bfc820f60e01b81600081518110610261576102616106ad565b6001600160e01b0319909216602092830291909101909101528051634ff8eb7160e01b9082906001908110610298576102986106ad565b6001600160e01b03199092166020928302919091019091015280516333a98caf60e21b90829060029081106102cf576102cf6106ad565b6001600160e01b031990921660209283029190910190910152805163070b9c3f60e01b9082906003908110610306576103066106ad565b6001600160e01b031990921660209283029190910190910152805163be24138d60e01b908290600490811061033d5761033d6106ad565b6001600160e01b031990921660209283029190910190910152805163fba4ff9d60e01b9082906005908110610374576103746106ad565b6001600160e01b031990921660209283029190910190910152805163121f70e360e21b90829060069081106103ab576103ab6106ad565b6001600160e01b031990921660209283029190910190910152919050565b60006040516103d790610418565b604051809103906000f0801580156103f3573d6000803e3d6000fd5b50600080546001600160a01b0319166001600160a01b03929092169182179055919050565b611228806106c483390190565b80356003811061043457600080fd5b919050565b60006020828403121561044b57600080fd5b61045482610425565b9392505050565b634e487b7160e01b600052602160045260246000fd5b602080825282516001600160a01b03168282015282810151600091906080840190600381106104b057634e487b7160e01b600052602160045260246000fd5b60408581019190915285015160608086015280519182905282019060009060a08601905b808310156104fe5783516001600160e01b03191682529284019260019290920191908401906104d4565b509695505050505050565b6000806040838503121561051c57600080fd5b82356001600160a01b038116811461053357600080fd5b915061054160208401610425565b90509250929050565b6020808252825182820181905260009190848201906040850190845b8181101561058c5783516001600160e01b03191683529284019291840191600101610566565b50909695505050505050565b634e487b7160e01b600052604160045260246000fd5b6000602082840312156105c057600080fd5b813567ffffffffffffffff808211156105d857600080fd5b818401915084601f8301126105ec57600080fd5b8135818111156105fe576105fe610598565b604051601f8201601f19908116603f0116810190838211818310171561062657610626610598565b8160405282815287602084870101111561063f57600080fd5b826020860160208301376000928101602001929092525095945050505050565b600060208083528351808285015260005b8181101561068c57858101830151858201604001528201610670565b506000604082860101526040601f19601f8301168501019250505092915050565b634e487b7160e01b600052603260045260246000fdfe608060405234801561001057600080fd5b50611208806100206000396000f3fe608060405234801561001057600080fd5b506004361061007d5760003560e01c80638bfc820f1161005b5780638bfc820f146100d8578063be24138d146100eb578063cea632bc146100fe578063fba4ff9d1461011157600080fd5b8063070b9c3f14610082578063487dc38c146100975780634ff8eb71146100b5575b600080fd5b610095610090366004610cea565b610131565b005b61009f61017d565b6040516100ac9190610db0565b60405180910390f35b6100c86100c3366004610e5b565b61018c565b60405190151581526020016100ac565b6100956100e6366004610ef7565b6101a3565b6100956100f9366004610cea565b6101e7565b6100c861010c366004610fa9565b61022b565b61012461011f366004610cea565b61027b565b6040516100ac919061102e565b610139610292565b6001600160a01b0316336001600160a01b031614610171576040516365f4906560e01b81523360048201526024015b60405180910390fd5b61017a8161035c565b50565b6060610187610370565b905090565b6000610199848484610475565b90505b9392505050565b6101ab610292565b6001600160a01b0316336001600160a01b0316146101de576040516365f4906560e01b8152336004820152602401610168565b61017a816104bb565b6101ef610292565b6001600160a01b0316336001600160a01b031614610222576040516365f4906560e01b8152336004820152602401610168565b61017a81610523565b600061027186868080601f016020809104026020016040519081016040528093929190818152602001838380828437600092019190915250889250879150869050610535565b9695505050505050565b610283610ca2565b61028c82610558565b92915050565b6040805180820182527f9bd0e1a7aef81c47cff971a2fee48406b20f55522326b2e2616c49c24aa506d0546001600160a01b03168082527f9bd0e1a7aef81c47cff971a2fee48406b20f55522326b2e2616c49c24aa506d154602080840182905284516331a9108f60e11b815260048101929092529351600094636352211e92602480820193918290030181865afa158015610332573d6000803e3d6000fd5b505050506040513d601f19601f820116820180604052508101906103569190611041565b91505090565b610365816105aa565b61017a816000610673565b6060600061037c610721565b9050805167ffffffffffffffff81111561039857610398610eb0565b6040519080825280602002602001820160405280156103d157816020015b6103be610ca2565b8152602001906001900390816103b65790505b50915060005b8151811015610470576000806000806104088686815181106103fb576103fb61105e565b602002602001015161074c565b93509350935093506040518060800160405280858152602001846001600160a01b0316815260200183815260200182151581525087868151811061044e5761044e61105e565b60200260200101819052505050505080806104689061108a565b9150506103d7565b505090565b60006101996040518060200160405280600081525085858560405160200161049e9291906110a3565b6040516020818303038152906040526104b6906110b3565b6108b3565b60005b815181101561051f576104e98282815181106104dc576104dc61105e565b60200260200101516105aa565b61050d8282815181106104fe576104fe61105e565b60200260200101516001610673565b806105178161108a565b9150506104be565b5050565b61052c816105aa565b61017a816109ca565b600061054f8585858560405160200161049e9291906110a3565b95945050505050565b610560610ca2565b610569826105aa565b6000806000806105788661074c565b604080516080810182529485526001600160a01b03909316602085015291830152151560608201529695505050505050565b6001600160a01b0381166105d157604051630706e15760e51b815260040160405180910390fd5b6040516301ffc9a760e01b815263df76a3d360e01b60048201526001600160a01b038216906301ffc9a790602401602060405180830381865afa925050508015610638575060408051601f3d908101601f19168201909252610635918101906110da565b60015b6106555760405163f58a5f2760e01b815260040160405180910390fd5b8061051f5760405163f58a5f2760e01b815260040160405180910390fd5b6001600160a01b0382811660009081526000805160206111e88339815191526020819052604090912054909116156106be57604051632406020960e01b815260040160405180910390fd5b6106cb6001820184610a8d565b506040805180820182526001600160a01b03948516808252931515602080830191825260009586529390935292209151825491511515600160a01b026001600160a81b0319909216931692909217919091179055565b60606101877f2df4f8e2489b335ef09ede56990b0838afbcdea6c639a41af44b533474fb8559610aa2565b606060008181806000805160206111e88339815191526001600160a01b038781166000908152602083905260409020549192501661079d5760405163017ab33760e71b815260040160405180910390fd5b856001600160a01b03166306fdde036040518163ffffffff1660e01b8152600401600060405180830381865afa1580156107db573d6000803e3d6000fd5b505050506040513d6000823e601f3d908101601f1916820160405261080391908101906110fc565b6001600160a01b03808816600081815260208590526040808220548151636465e69f60e01b81529151941693636465e69f926004808401939192918290030181865afa158015610857573d6000803e3d6000fd5b505050506040513d6000823e601f3d908101601f1916820160405261087f91908101906110fc565b6001600160a01b03989098166000908152602093909352604090922054909791969550600160a01b900460ff169350915050565b60006108bd610292565b6001600160a01b0316836001600160a01b0316036108dd5750600161019c565b6000805160206111e883398151915260006109177f2df4f8e2489b335ef09ede56990b0838afbcdea6c639a41af44b533474fb8559610aaf565b905060005b818110156109c0576109316001840182610ab9565b6001600160a01b031662b4eaa88888886040518463ffffffff1660e01b815260040161095f93929190611190565b602060405180830381865afa15801561097c573d6000803e3d6000fd5b505050506040513d601f19601f820116820180604052508101906109a091906110da565b156109ae57600193506109c0565b806109b88161108a565b91505061091c565b5050509392505050565b6001600160a01b0381811660009081526000805160206111e88339815191526020819052604090912054909116610a145760405163017ab33760e71b815260040160405180910390fd5b6001600160a01b038216600090815260208290526040902054600160a01b900460ff1615610a5557604051636045809760e11b815260040160405180910390fd5b610a626001820183610ac5565b506001600160a01b0390911660009081526020919091526040902080546001600160a81b0319169055565b600061019c836001600160a01b038416610ada565b6060600061019c83610b29565b600061028c825490565b600061019c8383610b85565b600061019c836001600160a01b038416610baf565b6000818152600183016020526040812054610b215750815460018181018455600084815260208082209093018490558454848252828601909352604090209190915561028c565b50600061028c565b606081600001805480602002602001604051908101604052809291908181526020018280548015610b7957602002820191906000526020600020905b815481526020019060010190808311610b65575b50505050509050919050565b6000826000018281548110610b9c57610b9c61105e565b9060005260206000200154905092915050565b60008181526001830160205260408120548015610c98576000610bd36001836111be565b8554909150600090610be7906001906111be565b9050818114610c4c576000866000018281548110610c0757610c0761105e565b9060005260206000200154905080876000018481548110610c2a57610c2a61105e565b6000918252602080832090910192909255918252600188019052604090208390555b8554869080610c5d57610c5d6111d1565b60019003818190600052602060002001600090559055856001016000868152602001908152602001600020600090556001935050505061028c565b600091505061028c565b60405180608001604052806060815260200160006001600160a01b03168152602001606081526020016000151581525090565b6001600160a01b038116811461017a57600080fd5b600060208284031215610cfc57600080fd5b813561019c81610cd5565b60005b83811015610d22578181015183820152602001610d0a565b50506000910152565b60008151808452610d43816020860160208601610d07565b601f01601f19169290920160200192915050565b6000815160808452610d6c6080850182610d2b565b905060018060a01b03602084015116602085015260408301518482036040860152610d978282610d2b565b9150506060830151151560608501528091505092915050565b6000602080830181845280855180835260408601915060408160051b870101925083870160005b82811015610e0557603f19888603018452610df3858351610d57565b94509285019290850190600101610dd7565b5092979650505050505050565b60008083601f840112610e2457600080fd5b50813567ffffffffffffffff811115610e3c57600080fd5b602083019150836020828501011115610e5457600080fd5b9250929050565b600080600060408486031215610e7057600080fd5b8335610e7b81610cd5565b9250602084013567ffffffffffffffff811115610e9757600080fd5b610ea386828701610e12565b9497909650939450505050565b634e487b7160e01b600052604160045260246000fd5b604051601f8201601f1916810167ffffffffffffffff81118282101715610eef57610eef610eb0565b604052919050565b60006020808385031215610f0a57600080fd5b823567ffffffffffffffff80821115610f2257600080fd5b818501915085601f830112610f3657600080fd5b813581811115610f4857610f48610eb0565b8060051b9150610f59848301610ec6565b8181529183018401918481019088841115610f7357600080fd5b938501935b83851015610f9d5784359250610f8d83610cd5565b8282529385019390850190610f78565b98975050505050505050565b600080600080600060608688031215610fc157600080fd5b853567ffffffffffffffff80821115610fd957600080fd5b610fe589838a01610e12565b909750955060208801359150610ffa82610cd5565b9093506040870135908082111561101057600080fd5b5061101d88828901610e12565b969995985093965092949392505050565b60208152600061019c6020830184610d57565b60006020828403121561105357600080fd5b815161019c81610cd5565b634e487b7160e01b600052603260045260246000fd5b634e487b7160e01b600052601160045260246000fd5b60006001820161109c5761109c611074565b5060010190565b8183823760009101908152919050565b805160208083015191908110156110d4576000198160200360031b1b821691505b50919050565b6000602082840312156110ec57600080fd5b8151801515811461019c57600080fd5b60006020828403121561110e57600080fd5b815167ffffffffffffffff8082111561112657600080fd5b818401915084601f83011261113a57600080fd5b81518181111561114c5761114c610eb0565b61115f601f8201601f1916602001610ec6565b915080825285602082850101111561117657600080fd5b611187816020840160208601610d07565b50949350505050565b6060815260006111a36060830186610d2b565b6001600160a01b039490941660208301525060400152919050565b8181038181111561028c5761028c611074565b634e487b7160e01b600052603160045260246000fdfe2df4f8e2489b335ef09ede56990b0838afbcdea6c639a41af44b533474fb8558608060405234801561001057600080fd5b50611208806100206000396000f3fe608060405234801561001057600080fd5b506004361061007d5760003560e01c80638bfc820f1161005b5780638bfc820f146100d8578063be24138d146100eb578063cea632bc146100fe578063fba4ff9d1461011157600080fd5b8063070b9c3f14610082578063487dc38c146100975780634ff8eb71146100b5575b600080fd5b610095610090366004610cea565b610131565b005b61009f61017d565b6040516100ac9190610db0565b60405180910390f35b6100c86100c3366004610e5b565b61018c565b60405190151581526020016100ac565b6100956100e6366004610ef7565b6101a3565b6100956100f9366004610cea565b6101e7565b6100c861010c366004610fa9565b61022b565b61012461011f366004610cea565b61027b565b6040516100ac919061102e565b610139610292565b6001600160a01b0316336001600160a01b031614610171576040516365f4906560e01b81523360048201526024015b60405180910390fd5b61017a8161035c565b50565b6060610187610370565b905090565b6000610199848484610475565b90505b9392505050565b6101ab610292565b6001600160a01b0316336001600160a01b0316146101de576040516365f4906560e01b8152336004820152602401610168565b61017a816104bb565b6101ef610292565b6001600160a01b0316336001600160a01b031614610222576040516365f4906560e01b8152336004820152602401610168565b61017a81610523565b600061027186868080601f016020809104026020016040519081016040528093929190818152602001838380828437600092019190915250889250879150869050610535565b9695505050505050565b610283610ca2565b61028c82610558565b92915050565b6040805180820182527f9bd0e1a7aef81c47cff971a2fee48406b20f55522326b2e2616c49c24aa506d0546001600160a01b03168082527f9bd0e1a7aef81c47cff971a2fee48406b20f55522326b2e2616c49c24aa506d154602080840182905284516331a9108f60e11b815260048101929092529351600094636352211e92602480820193918290030181865afa158015610332573d6000803e3d6000fd5b505050506040513d601f19601f820116820180604052508101906103569190611041565b91505090565b610365816105aa565b61017a816000610673565b6060600061037c610721565b9050805167ffffffffffffffff81111561039857610398610eb0565b6040519080825280602002602001820160405280156103d157816020015b6103be610ca2565b8152602001906001900390816103b65790505b50915060005b8151811015610470576000806000806104088686815181106103fb576103fb61105e565b602002602001015161074c565b93509350935093506040518060800160405280858152602001846001600160a01b0316815260200183815260200182151581525087868151811061044e5761044e61105e565b60200260200101819052505050505080806104689061108a565b9150506103d7565b505090565b60006101996040518060200160405280600081525085858560405160200161049e9291906110a3565b6040516020818303038152906040526104b6906110b3565b6108b3565b60005b815181101561051f576104e98282815181106104dc576104dc61105e565b60200260200101516105aa565b61050d8282815181106104fe576104fe61105e565b60200260200101516001610673565b806105178161108a565b9150506104be565b5050565b61052c816105aa565b61017a816109ca565b600061054f8585858560405160200161049e9291906110a3565b95945050505050565b610560610ca2565b610569826105aa565b6000806000806105788661074c565b604080516080810182529485526001600160a01b03909316602085015291830152151560608201529695505050505050565b6001600160a01b0381166105d157604051630706e15760e51b815260040160405180910390fd5b6040516301ffc9a760e01b815263df76a3d360e01b60048201526001600160a01b038216906301ffc9a790602401602060405180830381865afa925050508015610638575060408051601f3d908101601f19168201909252610635918101906110da565b60015b6106555760405163f58a5f2760e01b815260040160405180910390fd5b8061051f5760405163f58a5f2760e01b815260040160405180910390fd5b6001600160a01b0382811660009081526000805160206111e88339815191526020819052604090912054909116156106be57604051632406020960e01b815260040160405180910390fd5b6106cb6001820184610a8d565b506040805180820182526001600160a01b03948516808252931515602080830191825260009586529390935292209151825491511515600160a01b026001600160a81b0319909216931692909217919091179055565b60606101877f2df4f8e2489b335ef09ede56990b0838afbcdea6c639a41af44b533474fb8559610aa2565b606060008181806000805160206111e88339815191526001600160a01b038781166000908152602083905260409020549192501661079d5760405163017ab33760e71b815260040160405180910390fd5b856001600160a01b03166306fdde036040518163ffffffff1660e01b8152600401600060405180830381865afa1580156107db573d6000803e3d6000fd5b505050506040513d6000823e601f3d908101601f1916820160405261080391908101906110fc565b6001600160a01b03808816600081815260208590526040808220548151636465e69f60e01b81529151941693636465e69f926004808401939192918290030181865afa158015610857573d6000803e3d6000fd5b505050506040513d6000823e601f3d908101601f1916820160405261087f91908101906110fc565b6001600160a01b03989098166000908152602093909352604090922054909791969550600160a01b900460ff169350915050565b60006108bd610292565b6001600160a01b0316836001600160a01b0316036108dd5750600161019c565b6000805160206111e883398151915260006109177f2df4f8e2489b335ef09ede56990b0838afbcdea6c639a41af44b533474fb8559610aaf565b905060005b818110156109c0576109316001840182610ab9565b6001600160a01b031662b4eaa88888886040518463ffffffff1660e01b815260040161095f93929190611190565b602060405180830381865afa15801561097c573d6000803e3d6000fd5b505050506040513d601f19601f820116820180604052508101906109a091906110da565b156109ae57600193506109c0565b806109b88161108a565b91505061091c565b5050509392505050565b6001600160a01b0381811660009081526000805160206111e88339815191526020819052604090912054909116610a145760405163017ab33760e71b815260040160405180910390fd5b6001600160a01b038216600090815260208290526040902054600160a01b900460ff1615610a5557604051636045809760e11b815260040160405180910390fd5b610a626001820183610ac5565b506001600160a01b0390911660009081526020919091526040902080546001600160a81b0319169055565b600061019c836001600160a01b038416610ada565b6060600061019c83610b29565b600061028c825490565b600061019c8383610b85565b600061019c836001600160a01b038416610baf565b6000818152600183016020526040812054610b215750815460018181018455600084815260208082209093018490558454848252828601909352604090209190915561028c565b50600061028c565b606081600001805480602002602001604051908101604052809291908181526020018280548015610b7957602002820191906000526020600020905b815481526020019060010190808311610b65575b50505050509050919050565b6000826000018281548110610b9c57610b9c61105e565b9060005260206000200154905092915050565b60008181526001830160205260408120548015610c98576000610bd36001836111be565b8554909150600090610be7906001906111be565b9050818114610c4c576000866000018281548110610c0757610c0761105e565b9060005260206000200154905080876000018481548110610c2a57610c2a61105e565b6000918252602080832090910192909255918252600188019052604090208390555b8554869080610c5d57610c5d6111d1565b60019003818190600052602060002001600090559055856001016000868152602001908152602001600020600090556001935050505061028c565b600091505061028c565b60405180608001604052806060815260200160006001600160a01b03168152602001606081526020016000151581525090565b6001600160a01b038116811461017a57600080fd5b600060208284031215610cfc57600080fd5b813561019c81610cd5565b60005b83811015610d22578181015183820152602001610d0a565b50506000910152565b60008151808452610d43816020860160208601610d07565b601f01601f19169290920160200192915050565b6000815160808452610d6c6080850182610d2b565b905060018060a01b03602084015116602085015260408301518482036040860152610d978282610d2b565b9150506060830151151560608501528091505092915050565b6000602080830181845280855180835260408601915060408160051b870101925083870160005b82811015610e0557603f19888603018452610df3858351610d57565b94509285019290850190600101610dd7565b5092979650505050505050565b60008083601f840112610e2457600080fd5b50813567ffffffffffffffff811115610e3c57600080fd5b602083019150836020828501011115610e5457600080fd5b9250929050565b600080600060408486031215610e7057600080fd5b8335610e7b81610cd5565b9250602084013567ffffffffffffffff811115610e9757600080fd5b610ea386828701610e12565b9497909650939450505050565b634e487b7160e01b600052604160045260246000fd5b604051601f8201601f1916810167ffffffffffffffff81118282101715610eef57610eef610eb0565b604052919050565b60006020808385031215610f0a57600080fd5b823567ffffffffffffffff80821115610f2257600080fd5b818501915085601f830112610f3657600080fd5b813581811115610f4857610f48610eb0565b8060051b9150610f59848301610ec6565b8181529183018401918481019088841115610f7357600080fd5b938501935b83851015610f9d5784359250610f8d83610cd5565b8282529385019390850190610f78565b98975050505050505050565b600080600080600060608688031215610fc157600080fd5b853567ffffffffffffffff80821115610fd957600080fd5b610fe589838a01610e12565b909750955060208801359150610ffa82610cd5565b9093506040870135908082111561101057600080fd5b5061101d88828901610e12565b969995985093965092949392505050565b60208152600061019c6020830184610d57565b60006020828403121561105357600080fd5b815161019c81610cd5565b634e487b7160e01b600052603260045260246000fd5b634e487b7160e01b600052601160045260246000fd5b60006001820161109c5761109c611074565b5060010190565b8183823760009101908152919050565b805160208083015191908110156110d4576000198160200360031b1b821691505b50919050565b6000602082840312156110ec57600080fd5b8151801515811461019c57600080fd5b60006020828403121561110e57600080fd5b815167ffffffffffffffff8082111561112657600080fd5b818401915084601f83011261113a57600080fd5b81518181111561114c5761114c610eb0565b61115f601f8201601f1916602001610ec6565b915080825285602082850101111561117657600080fd5b611187816020840160208601610d07565b50949350505050565b6060815260006111a36060830186610d2b565b6001600160a01b039490941660208301525060400152919050565b8181038181111561028c5761028c611074565b634e487b7160e01b600052603160045260246000fdfe2df4f8e2489b335ef09ede56990b0838afbcdea6c639a41af44b533474fb8558",
    "linkReferences": {}
  },
  "methodIdentifiers": {
    "deploy()": "775c300c",
    "facet()": "b6010cab",
    "initializer()": "9ce110d7",
    "makeCut(address,uint8)": "346450a1",
    "makeCut(uint8)": "019ea76a",
    "makeInitData(bytes)": "ac994626",
    "selectors()": "6e25b978"
  },
  "id": 326
}