{
  "abi": [
    {
      "inputs": [
        {
          "internalType": "string",
          "name": "name_",
          "type": "string"
        },
        {
          "internalType": "string",
          "name": "symbol_",
          "type": "string"
        },
        {
          "internalType": "string",
          "name": "baseURI_",
          "type": "string"
        }
      ],
      "stateMutability": "nonpayable",
      "type": "constructor"
    },
    {
      "inputs": [],
      "name": "AlreadyAllowed",
      "type": "error"
    },
    {
      "inputs": [],
      "name": "AlreadyMinted",
      "type": "error"
    },
    {
      "inputs": [],
      "name": "InsufficientBalance",
      "type": "error"
    },
    {
      "inputs": [],
      "name": "MaxSupplyReached",
      "type": "error"
    },
    {
      "inputs": [],
      "name": "NonExistentTokenURI",
      "type": "error"
    },
    {
      "inputs": [],
      "name": "NotAllowed",
      "type": "error"
    },
    {
      "anonymous": false,
      "inputs": [
        {
          "indexed": true,
          "internalType": "address",
          "name": "owner",
          "type": "address"
        },
        {
          "indexed": true,
          "internalType": "address",
          "name": "approved",
          "type": "address"
        },
        {
          "indexed": true,
          "internalType": "uint256",
          "name": "tokenId",
          "type": "uint256"
        }
      ],
      "name": "Approval",
      "type": "event"
    },
    {
      "anonymous": false,
      "inputs": [
        {
          "indexed": true,
          "internalType": "address",
          "name": "owner",
          "type": "address"
        },
        {
          "indexed": true,
          "internalType": "address",
          "name": "operator",
          "type": "address"
        },
        {
          "indexed": false,
          "internalType": "bool",
          "name": "approved",
          "type": "bool"
        }
      ],
      "name": "ApprovalForAll",
      "type": "event"
    },
    {
      "anonymous": false,
      "inputs": [
        {
          "indexed": true,
          "internalType": "address",
          "name": "previousOwner",
          "type": "address"
        },
        {
          "indexed": true,
          "internalType": "address",
          "name": "newOwner",
          "type": "address"
        }
      ],
      "name": "OwnershipTransferred",
      "type": "event"
    },
    {
      "anonymous": false,
      "inputs": [
        {
          "indexed": true,
          "internalType": "address",
          "name": "user",
          "type": "address"
        },
        {
          "indexed": false,
          "internalType": "bool",
          "name": "allow",
          "type": "bool"
        }
      ],
      "name": "SetAllowed",
      "type": "event"
    },
    {
      "anonymous": false,
      "inputs": [
        {
          "indexed": true,
          "internalType": "address",
          "name": "from",
          "type": "address"
        },
        {
          "indexed": true,
          "internalType": "address",
          "name": "to",
          "type": "address"
        },
        {
          "indexed": true,
          "internalType": "uint256",
          "name": "tokenId",
          "type": "uint256"
        }
      ],
      "name": "Transfer",
      "type": "event"
    },
    {
      "stateMutability": "payable",
      "type": "fallback"
    },
    {
      "inputs": [],
      "name": "TOTAL_SUPPLY",
      "outputs": [
        {
          "internalType": "uint256",
          "name": "",
          "type": "uint256"
        }
      ],
      "stateMutability": "view",
      "type": "function"
    },
    {
      "inputs": [
        {
          "internalType": "address",
          "name": "",
          "type": "address"
        }
      ],
      "name": "allowed",
      "outputs": [
        {
          "internalType": "bool",
          "name": "",
          "type": "bool"
        }
      ],
      "stateMutability": "view",
      "type": "function"
    },
    {
      "inputs": [
        {
          "internalType": "address",
          "name": "to",
          "type": "address"
        },
        {
          "internalType": "uint256",
          "name": "tokenId",
          "type": "uint256"
        }
      ],
      "name": "approve",
      "outputs": [],
      "stateMutability": "nonpayable",
      "type": "function"
    },
    {
      "inputs": [
        {
          "internalType": "address",
          "name": "owner",
          "type": "address"
        }
      ],
      "name": "balanceOf",
      "outputs": [
        {
          "internalType": "uint256",
          "name": "",
          "type": "uint256"
        }
      ],
      "stateMutability": "view",
      "type": "function"
    },
    {
      "inputs": [],
      "name": "baseURI",
      "outputs": [
        {
          "internalType": "string",
          "name": "",
          "type": "string"
        }
      ],
      "stateMutability": "view",
      "type": "function"
    },
    {
      "inputs": [],
      "name": "currentTokenId",
      "outputs": [
        {
          "internalType": "uint256",
          "name": "",
          "type": "uint256"
        }
      ],
      "stateMutability": "view",
      "type": "function"
    },
    {
      "inputs": [
        {
          "internalType": "uint256",
          "name": "tokenId",
          "type": "uint256"
        }
      ],
      "name": "getApproved",
      "outputs": [
        {
          "internalType": "address",
          "name": "",
          "type": "address"
        }
      ],
      "stateMutability": "view",
      "type": "function"
    },
    {
      "inputs": [
        {
          "internalType": "address",
          "name": "owner",
          "type": "address"
        },
        {
          "internalType": "address",
          "name": "operator",
          "type": "address"
        }
      ],
      "name": "isApprovedForAll",
      "outputs": [
        {
          "internalType": "bool",
          "name": "",
          "type": "bool"
        }
      ],
      "stateMutability": "view",
      "type": "function"
    },
    {
      "inputs": [],
      "name": "mintReward",
      "outputs": [
        {
          "internalType": "uint256",
          "name": "",
          "type": "uint256"
        }
      ],
      "stateMutability": "view",
      "type": "function"
    },
    {
      "inputs": [
        {
          "internalType": "address",
          "name": "to",
          "type": "address"
        }
      ],
      "name": "mintTo",
      "outputs": [
        {
          "internalType": "uint256",
          "name": "",
          "type": "uint256"
        }
      ],
      "stateMutability": "nonpayable",
      "type": "function"
    },
    {
      "inputs": [],
      "name": "name",
      "outputs": [
        {
          "internalType": "string",
          "name": "",
          "type": "string"
        }
      ],
      "stateMutability": "view",
      "type": "function"
    },
    {
      "inputs": [],
      "name": "owner",
      "outputs": [
        {
          "internalType": "address",
          "name": "",
          "type": "address"
        }
      ],
      "stateMutability": "view",
      "type": "function"
    },
    {
      "inputs": [
        {
          "internalType": "uint256",
          "name": "tokenId",
          "type": "uint256"
        }
      ],
      "name": "ownerOf",
      "outputs": [
        {
          "internalType": "address",
          "name": "",
          "type": "address"
        }
      ],
      "stateMutability": "view",
      "type": "function"
    },
    {
      "inputs": [],
      "name": "renounceOwnership",
      "outputs": [],
      "stateMutability": "nonpayable",
      "type": "function"
    },
    {
      "inputs": [
        {
          "internalType": "address",
          "name": "from",
          "type": "address"
        },
        {
          "internalType": "address",
          "name": "to",
          "type": "address"
        },
        {
          "internalType": "uint256",
          "name": "tokenId",
          "type": "uint256"
        }
      ],
      "name": "safeTransferFrom",
      "outputs": [],
      "stateMutability": "nonpayable",
      "type": "function"
    },
    {
      "inputs": [
        {
          "internalType": "address",
          "name": "from",
          "type": "address"
        },
        {
          "internalType": "address",
          "name": "to",
          "type": "address"
        },
        {
          "internalType": "uint256",
          "name": "tokenId",
          "type": "uint256"
        },
        {
          "internalType": "bytes",
          "name": "data",
          "type": "bytes"
        }
      ],
      "name": "safeTransferFrom",
      "outputs": [],
      "stateMutability": "nonpayable",
      "type": "function"
    },
    {
      "inputs": [
        {
          "internalType": "address",
          "name": "user",
          "type": "address"
        },
        {
          "internalType": "bool",
          "name": "allow",
          "type": "bool"
        }
      ],
      "name": "setAllowed",
      "outputs": [],
      "stateMutability": "nonpayable",
      "type": "function"
    },
    {
      "inputs": [
        {
          "internalType": "address",
          "name": "operator",
          "type": "address"
        },
        {
          "internalType": "bool",
          "name": "approved",
          "type": "bool"
        }
      ],
      "name": "setApprovalForAll",
      "outputs": [],
      "stateMutability": "nonpayable",
      "type": "function"
    },
    {
      "inputs": [
        {
          "internalType": "string",
          "name": "_baseURI",
          "type": "string"
        }
      ],
      "name": "setBaseURI",
      "outputs": [],
      "stateMutability": "nonpayable",
      "type": "function"
    },
    {
      "inputs": [
        {
          "internalType": "uint256",
          "name": "_mintReward",
          "type": "uint256"
        }
      ],
      "name": "setMintReward",
      "outputs": [],
      "stateMutability": "nonpayable",
      "type": "function"
    },
    {
      "inputs": [
        {
          "internalType": "bytes4",
          "name": "interfaceId",
          "type": "bytes4"
        }
      ],
      "name": "supportsInterface",
      "outputs": [
        {
          "internalType": "bool",
          "name": "",
          "type": "bool"
        }
      ],
      "stateMutability": "view",
      "type": "function"
    },
    {
      "inputs": [],
      "name": "symbol",
      "outputs": [
        {
          "internalType": "string",
          "name": "",
          "type": "string"
        }
      ],
      "stateMutability": "view",
      "type": "function"
    },
    {
      "inputs": [
        {
          "internalType": "uint256",
          "name": "tokenId",
          "type": "uint256"
        }
      ],
      "name": "tokenURI",
      "outputs": [
        {
          "internalType": "string",
          "name": "",
          "type": "string"
        }
      ],
      "stateMutability": "view",
      "type": "function"
    },
    {
      "inputs": [
        {
          "internalType": "address",
          "name": "from",
          "type": "address"
        },
        {
          "internalType": "address",
          "name": "to",
          "type": "address"
        },
        {
          "internalType": "uint256",
          "name": "tokenId",
          "type": "uint256"
        }
      ],
      "name": "transferFrom",
      "outputs": [],
      "stateMutability": "nonpayable",
      "type": "function"
    },
    {
      "inputs": [
        {
          "internalType": "address",
          "name": "newOwner",
          "type": "address"
        }
      ],
      "name": "transferOwnership",
      "outputs": [],
      "stateMutability": "nonpayable",
      "type": "function"
    },
    {
      "inputs": [
        {
          "internalType": "address",
          "name": "to",
          "type": "address"
        }
      ],
      "name": "withdraw",
      "outputs": [],
      "stateMutability": "nonpayable",
      "type": "function"
    },
    {
      "stateMutability": "payable",
      "type": "receive"
    }
  ],
  "bytecode": {
    "object": "0x608060405267016345785d8a0000600a553480156200001d57600080fd5b5060405162001fae38038062001fae8339810160408190526200004091620001cf565b82826000620000508382620002ef565b5060016200005f8282620002ef565b5050506200007c62000076620000b460201b60201c565b620000b8565b600160075560086200008f8282620002ef565b5050336000908152600b60205260409020805460ff1916600117905550620003bb9050565b3390565b600680546001600160a01b038381166001600160a01b0319831681179093556040519116919082907f8be0079c531659141344cd1fd0a4f28419497f9722a3daafe3b4186f6b6457e090600090a35050565b634e487b7160e01b600052604160045260246000fd5b600082601f8301126200013257600080fd5b81516001600160401b03808211156200014f576200014f6200010a565b604051601f8301601f19908116603f011681019082821181831017156200017a576200017a6200010a565b816040528381526020925086838588010111156200019757600080fd5b600091505b83821015620001bb57858201830151818301840152908201906200019c565b600093810190920192909252949350505050565b600080600060608486031215620001e557600080fd5b83516001600160401b0380821115620001fd57600080fd5b6200020b8783880162000120565b945060208601519150808211156200022257600080fd5b620002308783880162000120565b935060408601519150808211156200024757600080fd5b50620002568682870162000120565b9150509250925092565b600181811c908216806200027557607f821691505b6020821081036200029657634e487b7160e01b600052602260045260246000fd5b50919050565b601f821115620002ea57600081815260208120601f850160051c81016020861015620002c55750805b601f850160051c820191505b81811015620002e657828155600101620002d1565b5050505b505050565b81516001600160401b038111156200030b576200030b6200010a565b62000323816200031c845462000260565b846200029c565b602080601f8311600181146200035b5760008415620003425750858301515b600019600386901b1c1916600185901b178555620002e6565b600085815260208120601f198616915b828110156200038c578886015182559484019460019091019084016200036b565b5085821015620003ab5787850151600019600388901b60f8161c191681555b5050505050600190811b01905550565b611be380620003cb6000396000f3fe6080604052600436106101725760003560e01c806370a08231116100c857806395d89b4111610084578063c87b56dd11610061578063c87b56dd14610437578063d63a8e1114610457578063e985e9c514610487578063f2fde38b146104d057005b806395d89b41146103e2578063a22cb465146103f7578063b88d4fde1461041757005b806370a0823114610339578063715018a614610359578063755edd171461036e57806380e801ba1461038e5780638da5cb5b146103ae578063902d55a5146103cc57005b806323b872dd1161012f57806351cff8d91161010c57806351cff8d9146102c457806355f804b3146102e45780636352211e146103045780636c0360eb1461032457005b806323b872dd1461026457806342842e0e146102845780634697f05d146102a457005b80629a9b7b1461017b57806301ffc9a7146101a457806306fdde03146101d4578063081812fc146101f6578063095ea7b31461022e578063174f57af1461024e57005b3661017957005b005b34801561018757600080fd5b5061019160095481565b6040519081526020015b60405180910390f35b3480156101b057600080fd5b506101c46101bf3660046115b7565b6104f0565b604051901515815260200161019b565b3480156101e057600080fd5b506101e9610542565b60405161019b919061162b565b34801561020257600080fd5b5061021661021136600461163e565b6105d4565b6040516001600160a01b03909116815260200161019b565b34801561023a57600080fd5b5061017961024936600461166e565b6105fb565b34801561025a57600080fd5b50610191600a5481565b34801561027057600080fd5b5061017961027f366004611698565b610715565b34801561029057600080fd5b5061017961029f366004611698565b610746565b3480156102b057600080fd5b506101796102bf3660046116d4565b610761565b3480156102d057600080fd5b506101796102df366004611710565b610830565b3480156102f057600080fd5b506101796102ff3660046117b7565b610845565b34801561031057600080fd5b5061021661031f36600461163e565b61085d565b34801561033057600080fd5b506101e96108bd565b34801561034557600080fd5b50610191610354366004611710565b61094b565b34801561036557600080fd5b506101796109d1565b34801561037a57600080fd5b50610191610389366004611710565b6109e5565b34801561039a57600080fd5b506101796103a936600461163e565b610ad8565b3480156103ba57600080fd5b506006546001600160a01b0316610216565b3480156103d857600080fd5b5061019161271081565b3480156103ee57600080fd5b506101e9610ae5565b34801561040357600080fd5b506101796104123660046116d4565b610af4565b34801561042357600080fd5b50610179610432366004611800565b610aff565b34801561044357600080fd5b506101e961045236600461163e565b610b37565b34801561046357600080fd5b506101c4610472366004611710565b600b6020526000908152604090205460ff1681565b34801561049357600080fd5b506101c46104a236600461187c565b6001600160a01b03918216600090815260056020908152604080832093909416825291909152205460ff1690565b3480156104dc57600080fd5b506101796104eb366004611710565b610bc7565b60006001600160e01b031982166380ac58cd60e01b148061052157506001600160e01b03198216635b5e139f60e01b145b8061053c57506301ffc9a760e01b6001600160e01b03198316145b92915050565b606060008054610551906118af565b80601f016020809104026020016040519081016040528092919081815260200182805461057d906118af565b80156105ca5780601f1061059f576101008083540402835291602001916105ca565b820191906000526020600020905b8154815290600101906020018083116105ad57829003601f168201915b5050505050905090565b60006105df82610c3d565b506000908152600460205260409020546001600160a01b031690565b60006106068261085d565b9050806001600160a01b0316836001600160a01b0316036106785760405162461bcd60e51b815260206004820152602160248201527f4552433732313a20617070726f76616c20746f2063757272656e74206f776e656044820152603960f91b60648201526084015b60405180910390fd5b336001600160a01b0382161480610694575061069481336104a2565b6107065760405162461bcd60e51b815260206004820152603d60248201527f4552433732313a20617070726f76652063616c6c6572206973206e6f7420746f60448201527f6b656e206f776e6572206f7220617070726f76656420666f7220616c6c000000606482015260840161066f565b6107108383610c9c565b505050565b61071f3382610d0a565b61073b5760405162461bcd60e51b815260040161066f906118e9565b610710838383610d89565b61071083838360405180602001604052806000815250610aff565b610769610eed565b6001600160a01b03821661079057604051631eb49d6d60e11b815260040160405180910390fd5b6001600160a01b0382166000908152600b602052604090205481151560ff9091161515036107d157604051636a4648d760e01b815260040160405180910390fd5b6001600160a01b0382166000818152600b6020908152604091829020805460ff191685151590811790915591519182527f91d426a6b868d3a9f12f044bfd4dfb1df6e3e050a71a34b090d8ce43a5023c29910160405180910390a25050565b610838610eed565b6108428147610f47565b50565b61084d610eed565b60086108598282611984565b5050565b6000818152600260205260408120546001600160a01b03168061053c5760405162461bcd60e51b8152602060048201526018602482015277115490cdcc8c4e881a5b9d985b1a59081d1bdad95b88125160421b604482015260640161066f565b600880546108ca906118af565b80601f01602080910402602001604051908101604052809291908181526020018280546108f6906118af565b80156109435780601f1061091857610100808354040283529160200191610943565b820191906000526020600020905b81548152906001019060200180831161092657829003601f168201915b505050505081565b60006001600160a01b0382166109b55760405162461bcd60e51b815260206004820152602960248201527f4552433732313a2061646472657373207a65726f206973206e6f7420612076616044820152683634b21037bbb732b960b91b606482015260840161066f565b506001600160a01b031660009081526003602052604090205490565b6109d9610eed565b6109e36000610ffe565b565b336000908152600b602052604081205460ff16610a1557604051631eb49d6d60e11b815260040160405180910390fd5b610a1d611050565b6001600160a01b038216610a4457604051631eb49d6d60e11b815260040160405180910390fd5b6000610a4f8361094b565b1115610a6e57604051631bbdf5c560e31b815260040160405180910390fd5b6000600960008154610a7f90611a44565b91829055509050612710811115610aa95760405163d05cb60960e01b815260040160405180910390fd5b610ab383826110a9565b600a5415610ac757610ac783600a54610f47565b9050610ad36001600755565b919050565b610ae0610eed565b600a55565b606060018054610551906118af565b610859338383611234565b610b093383610d0a565b610b255760405162461bcd60e51b815260040161066f906118e9565b610b3184848484611302565b50505050565b60606000610b448361085d565b6001600160a01b031603610b6b5760405163d872946b60e01b815260040160405180910390fd5b600060088054610b7a906118af565b905011610b96576040518060200160405280600081525061053c565b6008610ba183611335565b604051602001610bb2929190611a6b565b60405160208183030381529060405292915050565b610bcf610eed565b6001600160a01b038116610c345760405162461bcd60e51b815260206004820152602660248201527f4f776e61626c653a206e6577206f776e657220697320746865207a65726f206160448201526564647265737360d01b606482015260840161066f565b61084281610ffe565b6000818152600260205260409020546001600160a01b03166108425760405162461bcd60e51b8152602060048201526018602482015277115490cdcc8c4e881a5b9d985b1a59081d1bdad95b88125160421b604482015260640161066f565b600081815260046020526040902080546001600160a01b0319166001600160a01b0384169081179091558190610cd18261085d565b6001600160a01b03167f8c5be1e5ebec7d5bd14f71427d1e84f3dd0314c0f7b2291e5b200ac8c7c3b92560405160405180910390a45050565b600080610d168361085d565b9050806001600160a01b0316846001600160a01b03161480610d5d57506001600160a01b0380821660009081526005602090815260408083209388168352929052205460ff165b80610d815750836001600160a01b0316610d76846105d4565b6001600160a01b0316145b949350505050565b826001600160a01b0316610d9c8261085d565b6001600160a01b031614610dc25760405162461bcd60e51b815260040161066f90611af2565b6001600160a01b038216610e245760405162461bcd60e51b8152602060048201526024808201527f4552433732313a207472616e7366657220746f20746865207a65726f206164646044820152637265737360e01b606482015260840161066f565b826001600160a01b0316610e378261085d565b6001600160a01b031614610e5d5760405162461bcd60e51b815260040161066f90611af2565b600081815260046020908152604080832080546001600160a01b03199081169091556001600160a01b0387811680865260038552838620805460001901905590871680865283862080546001019055868652600290945282852080549092168417909155905184937fddf252ad1be2c89b69c2b068fc378daa952ba7f163c4a11628f55a4df523b3ef91a4505050565b6006546001600160a01b031633146109e35760405162461bcd60e51b815260206004820181905260248201527f4f776e61626c653a2063616c6c6572206973206e6f7420746865206f776e6572604482015260640161066f565b47811115610f6857604051631e9acf1760e31b815260040160405180910390fd5b6000826001600160a01b03168260405160006040518083038185875af1925050503d8060008114610fb5576040519150601f19603f3d011682016040523d82523d6000602084013e610fba565b606091505b50509050806107105760405162461bcd60e51b815260206004820152601060248201526f2a3930b739b332b9103330b4b632b21760811b604482015260640161066f565b600680546001600160a01b038381166001600160a01b0319831681179093556040519116919082907f8be0079c531659141344cd1fd0a4f28419497f9722a3daafe3b4186f6b6457e090600090a35050565b6002600754036110a25760405162461bcd60e51b815260206004820152601f60248201527f5265656e7472616e637947756172643a207265656e7472616e742063616c6c00604482015260640161066f565b6002600755565b6001600160a01b0382166110ff5760405162461bcd60e51b815260206004820181905260248201527f4552433732313a206d696e7420746f20746865207a65726f2061646472657373604482015260640161066f565b6000818152600260205260409020546001600160a01b0316156111645760405162461bcd60e51b815260206004820152601c60248201527f4552433732313a20746f6b656e20616c7265616479206d696e74656400000000604482015260640161066f565b6000818152600260205260409020546001600160a01b0316156111c95760405162461bcd60e51b815260206004820152601c60248201527f4552433732313a20746f6b656e20616c7265616479206d696e74656400000000604482015260640161066f565b6001600160a01b038216600081815260036020908152604080832080546001019055848352600290915280822080546001600160a01b0319168417905551839291907fddf252ad1be2c89b69c2b068fc378daa952ba7f163c4a11628f55a4df523b3ef908290a45050565b816001600160a01b0316836001600160a01b0316036112955760405162461bcd60e51b815260206004820152601960248201527f4552433732313a20617070726f766520746f2063616c6c657200000000000000604482015260640161066f565b6001600160a01b03838116600081815260056020908152604080832094871680845294825291829020805460ff191686151590811790915591519182527f17307eab39ab6107e8899845ad3d59bd9653f200f220920489ca2b5937696c31910160405180910390a3505050565b61130d848484610d89565b611319848484846113c8565b610b315760405162461bcd60e51b815260040161066f90611b37565b60606000611342836114c9565b600101905060008167ffffffffffffffff8111156113625761136261172b565b6040519080825280601f01601f19166020018201604052801561138c576020820181803683370190505b5090508181016020015b600019016f181899199a1a9b1b9c1cb0b131b232b360811b600a86061a8153600a850494508461139657509392505050565b60006001600160a01b0384163b156114be57604051630a85bd0160e11b81526001600160a01b0385169063150b7a029061140c903390899088908890600401611b89565b6020604051808303816000875af1925050508015611447575060408051601f3d908101601f1916820190925261144491810190611bc6565b60015b6114a4573d808015611475576040519150601f19603f3d011682016040523d82523d6000602084013e61147a565b606091505b50805160000361149c5760405162461bcd60e51b815260040161066f90611b37565b805181602001fd5b6001600160e01b031916630a85bd0160e11b149050610d81565b506001949350505050565b60008072184f03e93ff9f4daa797ed6e38ed64bf6a1f0160401b83106115085772184f03e93ff9f4daa797ed6e38ed64bf6a1f0160401b830492506040015b6d04ee2d6d415b85acef81000000008310611534576d04ee2d6d415b85acef8100000000830492506020015b662386f26fc10000831061155257662386f26fc10000830492506010015b6305f5e100831061156a576305f5e100830492506008015b612710831061157e57612710830492506004015b60648310611590576064830492506002015b600a831061053c5760010192915050565b6001600160e01b03198116811461084257600080fd5b6000602082840312156115c957600080fd5b81356115d4816115a1565b9392505050565b60005b838110156115f65781810151838201526020016115de565b50506000910152565b600081518084526116178160208601602086016115db565b601f01601f19169290920160200192915050565b6020815260006115d460208301846115ff565b60006020828403121561165057600080fd5b5035919050565b80356001600160a01b0381168114610ad357600080fd5b6000806040838503121561168157600080fd5b61168a83611657565b946020939093013593505050565b6000806000606084860312156116ad57600080fd5b6116b684611657565b92506116c460208501611657565b9150604084013590509250925092565b600080604083850312156116e757600080fd5b6116f083611657565b91506020830135801515811461170557600080fd5b809150509250929050565b60006020828403121561172257600080fd5b6115d482611657565b634e487b7160e01b600052604160045260246000fd5b600067ffffffffffffffff8084111561175c5761175c61172b565b604051601f8501601f19908116603f011681019082821181831017156117845761178461172b565b8160405280935085815286868601111561179d57600080fd5b858560208301376000602087830101525050509392505050565b6000602082840312156117c957600080fd5b813567ffffffffffffffff8111156117e057600080fd5b8201601f810184136117f157600080fd5b610d8184823560208401611741565b6000806000806080858703121561181657600080fd5b61181f85611657565b935061182d60208601611657565b925060408501359150606085013567ffffffffffffffff81111561185057600080fd5b8501601f8101871361186157600080fd5b61187087823560208401611741565b91505092959194509250565b6000806040838503121561188f57600080fd5b61189883611657565b91506118a660208401611657565b90509250929050565b600181811c908216806118c357607f821691505b6020821081036118e357634e487b7160e01b600052602260045260246000fd5b50919050565b6020808252602d908201527f4552433732313a2063616c6c6572206973206e6f7420746f6b656e206f776e6560408201526c1c881bdc88185c1c1c9bdd9959609a1b606082015260800190565b601f82111561071057600081815260208120601f850160051c8101602086101561195d5750805b601f850160051c820191505b8181101561197c57828155600101611969565b505050505050565b815167ffffffffffffffff81111561199e5761199e61172b565b6119b2816119ac84546118af565b84611936565b602080601f8311600181146119e757600084156119cf5750858301515b600019600386901b1c1916600185901b17855561197c565b600085815260208120601f198616915b82811015611a16578886015182559484019460019091019084016119f7565b5085821015611a345787850151600019600388901b60f8161c191681555b5050505050600190811b01905550565b600060018201611a6457634e487b7160e01b600052601160045260246000fd5b5060010190565b6000808454611a79816118af565b60018281168015611a915760018114611aa657611ad5565b60ff1984168752821515830287019450611ad5565b8860005260208060002060005b85811015611acc5781548a820152908401908201611ab3565b50505082870194505b505050508351611ae98183602088016115db565b01949350505050565b60208082526025908201527f4552433732313a207472616e736665722066726f6d20696e636f72726563742060408201526437bbb732b960d91b606082015260800190565b60208082526032908201527f4552433732313a207472616e7366657220746f206e6f6e20455243373231526560408201527131b2b4bb32b91034b6b83632b6b2b73a32b960711b606082015260800190565b6001600160a01b0385811682528416602082015260408101839052608060608201819052600090611bbc908301846115ff565b9695505050505050565b600060208284031215611bd857600080fd5b81516115d4816115a156",
    "linkReferences": {}
  },
  "methodIdentifiers": {
    "TOTAL_SUPPLY()": "902d55a5",
    "allowed(address)": "d63a8e11",
    "approve(address,uint256)": "095ea7b3",
    "balanceOf(address)": "70a08231",
    "baseURI()": "6c0360eb",
    "currentTokenId()": "009a9b7b",
    "getApproved(uint256)": "081812fc",
    "isApprovedForAll(address,address)": "e985e9c5",
    "mintReward()": "174f57af",
    "mintTo(address)": "755edd17",
    "name()": "06fdde03",
    "owner()": "8da5cb5b",
    "ownerOf(uint256)": "6352211e",
    "renounceOwnership()": "715018a6",
    "safeTransferFrom(address,address,uint256)": "42842e0e",
    "safeTransferFrom(address,address,uint256,bytes)": "b88d4fde",
    "setAllowed(address,bool)": "4697f05d",
    "setApprovalForAll(address,bool)": "a22cb465",
    "setBaseURI(string)": "55f804b3",
    "setMintReward(uint256)": "80e801ba",
    "supportsInterface(bytes4)": "01ffc9a7",
    "symbol()": "95d89b41",
    "tokenURI(uint256)": "c87b56dd",
    "transferFrom(address,address,uint256)": "23b872dd",
    "transferOwnership(address)": "f2fde38b",
    "withdraw(address)": "51cff8d9"
  },
  "id": 109
}