{
  "abi": [
    {
      "inputs": [],
      "stateMutability": "nonpayable",
      "type": "constructor"
    },
    {
      "inputs": [],
      "name": "AddRoleFailed",
      "type": "error"
    },
    {
      "inputs": [],
      "name": "ChannelAlreadyRegistered",
      "type": "error"
    },
    {
      "inputs": [],
      "name": "ChannelDoesNotExist",
      "type": "error"
    },
    {
      "inputs": [],
      "name": "EntitlementAlreadyExists",
      "type": "error"
    },
    {
      "inputs": [],
      "name": "EntitlementAlreadyWhitelisted",
      "type": "error"
    },
    {
      "inputs": [],
      "name": "EntitlementModuleNotSupported",
      "type": "error"
    },
    {
      "inputs": [],
      "name": "EntitlementNotWhitelisted",
      "type": "error"
    },
    {
      "inputs": [],
      "name": "InvalidParameters",
      "type": "error"
    },
    {
      "inputs": [],
      "name": "MissingOwnerPermission",
      "type": "error"
    },
    {
      "inputs": [],
      "name": "NameLengthInvalid",
      "type": "error"
    },
    {
      "inputs": [],
      "name": "NotAllowed",
      "type": "error"
    },
    {
      "inputs": [],
      "name": "PermissionAlreadyExists",
      "type": "error"
    },
    {
      "inputs": [],
      "name": "RoleDoesNotExist",
      "type": "error"
    },
    {
      "inputs": [],
      "name": "RoleIsAssignedToEntitlement",
      "type": "error"
    },
    {
      "anonymous": false,
      "inputs": [
        {
          "indexed": false,
          "internalType": "address",
          "name": "previousAdmin",
          "type": "address"
        },
        {
          "indexed": false,
          "internalType": "address",
          "name": "newAdmin",
          "type": "address"
        }
      ],
      "name": "AdminChanged",
      "type": "event"
    },
    {
      "anonymous": false,
      "inputs": [
        {
          "indexed": true,
          "internalType": "address",
          "name": "beacon",
          "type": "address"
        }
      ],
      "name": "BeaconUpgraded",
      "type": "event"
    },
    {
      "anonymous": false,
      "inputs": [
        {
          "indexed": false,
          "internalType": "string",
          "name": "prevURI",
          "type": "string"
        },
        {
          "indexed": false,
          "internalType": "string",
          "name": "newURI",
          "type": "string"
        }
      ],
      "name": "ContractURIUpdated",
      "type": "event"
    },
    {
      "anonymous": false,
      "inputs": [
        {
          "indexed": false,
          "internalType": "uint8",
          "name": "version",
          "type": "uint8"
        }
      ],
      "name": "Initialized",
      "type": "event"
    },
    {
      "anonymous": false,
      "inputs": [
        {
          "indexed": true,
          "internalType": "address",
          "name": "implementation",
          "type": "address"
        }
      ],
      "name": "Upgraded",
      "type": "event"
    },
    {
      "inputs": [],
      "name": "MODULE_TYPE",
      "outputs": [
        {
          "internalType": "string",
          "name": "",
          "type": "string"
        }
      ],
      "stateMutability": "view",
      "type": "function"
    },
    {
      "inputs": [],
      "name": "MODULE_VERSION",
      "outputs": [
        {
          "internalType": "uint48",
          "name": "",
          "type": "uint48"
        }
      ],
      "stateMutability": "view",
      "type": "function"
    },
    {
      "inputs": [
        {
          "internalType": "uint256",
          "name": "_roleId",
          "type": "uint256"
        },
        {
          "internalType": "string[]",
          "name": "_permissions",
          "type": "string[]"
        }
      ],
      "name": "addPermissionsToRole",
      "outputs": [],
      "stateMutability": "nonpayable",
      "type": "function"
    },
    {
      "inputs": [
        {
          "internalType": "string",
          "name": "_channelId",
          "type": "string"
        },
        {
          "internalType": "address",
          "name": "_entitlement",
          "type": "address"
        },
        {
          "internalType": "uint256",
          "name": "_roleId",
          "type": "uint256"
        }
      ],
      "name": "addRoleToChannel",
      "outputs": [],
      "stateMutability": "nonpayable",
      "type": "function"
    },
    {
      "inputs": [
        {
          "internalType": "uint256",
          "name": "_roleId",
          "type": "uint256"
        },
        {
          "components": [
            {
              "internalType": "address",
              "name": "module",
              "type": "address"
            },
            {
              "internalType": "bytes",
              "name": "data",
              "type": "bytes"
            }
          ],
          "internalType": "struct DataTypes.Entitlement",
          "name": "_entitlement",
          "type": "tuple"
        }
      ],
      "name": "addRoleToEntitlement",
      "outputs": [],
      "stateMutability": "nonpayable",
      "type": "function"
    },
    {
      "inputs": [
        {
          "internalType": "uint256",
          "name": "",
          "type": "uint256"
        }
      ],
      "name": "channels",
      "outputs": [
        {
          "internalType": "bytes32",
          "name": "",
          "type": "bytes32"
        }
      ],
      "stateMutability": "view",
      "type": "function"
    },
    {
      "inputs": [
        {
          "internalType": "bytes32",
          "name": "",
          "type": "bytes32"
        }
      ],
      "name": "channelsByHash",
      "outputs": [
        {
          "internalType": "string",
          "name": "name",
          "type": "string"
        },
        {
          "internalType": "string",
          "name": "channelId",
          "type": "string"
        },
        {
          "internalType": "bytes32",
          "name": "channelHash",
          "type": "bytes32"
        },
        {
          "internalType": "uint256",
          "name": "createdAt",
          "type": "uint256"
        },
        {
          "internalType": "bool",
          "name": "disabled",
          "type": "bool"
        }
      ],
      "stateMutability": "view",
      "type": "function"
    },
    {
      "inputs": [],
      "name": "contractURI",
      "outputs": [
        {
          "internalType": "string",
          "name": "",
          "type": "string"
        }
      ],
      "stateMutability": "view",
      "type": "function"
    },
    {
      "inputs": [
        {
          "internalType": "string",
          "name": "channelName",
          "type": "string"
        },
        {
          "internalType": "string",
          "name": "channelId",
          "type": "string"
        },
        {
          "internalType": "uint256[]",
          "name": "roleIds",
          "type": "uint256[]"
        }
      ],
      "name": "createChannel",
      "outputs": [
        {
          "internalType": "bytes32",
          "name": "",
          "type": "bytes32"
        }
      ],
      "stateMutability": "nonpayable",
      "type": "function"
    },
    {
      "inputs": [
        {
          "internalType": "string",
          "name": "_roleName",
          "type": "string"
        },
        {
          "internalType": "string[]",
          "name": "_permissions",
          "type": "string[]"
        },
        {
          "components": [
            {
              "internalType": "address",
              "name": "module",
              "type": "address"
            },
            {
              "internalType": "bytes",
              "name": "data",
              "type": "bytes"
            }
          ],
          "internalType": "struct DataTypes.Entitlement[]",
          "name": "_entitlements",
          "type": "tuple[]"
        }
      ],
      "name": "createRole",
      "outputs": [
        {
          "internalType": "uint256",
          "name": "",
          "type": "uint256"
        }
      ],
      "stateMutability": "nonpayable",
      "type": "function"
    },
    {
      "inputs": [
        {
          "internalType": "address",
          "name": "",
          "type": "address"
        }
      ],
      "name": "defaultEntitlements",
      "outputs": [
        {
          "internalType": "bool",
          "name": "",
          "type": "bool"
        }
      ],
      "stateMutability": "view",
      "type": "function"
    },
    {
      "inputs": [],
      "name": "disabled",
      "outputs": [
        {
          "internalType": "bool",
          "name": "",
          "type": "bool"
        }
      ],
      "stateMutability": "view",
      "type": "function"
    },
    {
      "inputs": [
        {
          "internalType": "uint256",
          "name": "",
          "type": "uint256"
        }
      ],
      "name": "entitlements",
      "outputs": [
        {
          "internalType": "address",
          "name": "",
          "type": "address"
        }
      ],
      "stateMutability": "view",
      "type": "function"
    },
    {
      "inputs": [
        {
          "internalType": "bytes32",
          "name": "_channelHash",
          "type": "bytes32"
        }
      ],
      "name": "getChannelByHash",
      "outputs": [
        {
          "components": [
            {
              "internalType": "string",
              "name": "name",
              "type": "string"
            },
            {
              "internalType": "string",
              "name": "channelId",
              "type": "string"
            },
            {
              "internalType": "bytes32",
              "name": "channelHash",
              "type": "bytes32"
            },
            {
              "internalType": "uint256",
              "name": "createdAt",
              "type": "uint256"
            },
            {
              "internalType": "bool",
              "name": "disabled",
              "type": "bool"
            }
          ],
          "internalType": "struct DataTypes.Channel",
          "name": "",
          "type": "tuple"
        }
      ],
      "stateMutability": "view",
      "type": "function"
    },
    {
      "inputs": [],
      "name": "getChannels",
      "outputs": [
        {
          "internalType": "bytes32[]",
          "name": "",
          "type": "bytes32[]"
        }
      ],
      "stateMutability": "view",
      "type": "function"
    },
    {
      "inputs": [
        {
          "internalType": "string",
          "name": "_moduleType",
          "type": "string"
        }
      ],
      "name": "getEntitlementByModuleType",
      "outputs": [
        {
          "internalType": "address",
          "name": "",
          "type": "address"
        }
      ],
      "stateMutability": "view",
      "type": "function"
    },
    {
      "inputs": [
        {
          "internalType": "uint256",
          "name": "_roleId",
          "type": "uint256"
        }
      ],
      "name": "getEntitlementIdsByRoleId",
      "outputs": [
        {
          "internalType": "bytes32[]",
          "name": "",
          "type": "bytes32[]"
        }
      ],
      "stateMutability": "view",
      "type": "function"
    },
    {
      "inputs": [],
      "name": "getEntitlementModules",
      "outputs": [
        {
          "components": [
            {
              "internalType": "string",
              "name": "name",
              "type": "string"
            },
            {
              "internalType": "address",
              "name": "moduleAddress",
              "type": "address"
            },
            {
              "internalType": "string",
              "name": "moduleType",
              "type": "string"
            },
            {
              "internalType": "bool",
              "name": "enabled",
              "type": "bool"
            }
          ],
          "internalType": "struct DataTypes.EntitlementModule[]",
          "name": "_entitlementModules",
          "type": "tuple[]"
        }
      ],
      "stateMutability": "view",
      "type": "function"
    },
    {
      "inputs": [
        {
          "internalType": "uint256",
          "name": "_roleId",
          "type": "uint256"
        }
      ],
      "name": "getPermissionsByRoleId",
      "outputs": [
        {
          "internalType": "string[]",
          "name": "",
          "type": "string[]"
        }
      ],
      "stateMutability": "view",
      "type": "function"
    },
    {
      "inputs": [
        {
          "internalType": "uint256",
          "name": "_roleId",
          "type": "uint256"
        }
      ],
      "name": "getRoleById",
      "outputs": [
        {
          "components": [
            {
              "internalType": "uint256",
              "name": "roleId",
              "type": "uint256"
            },
            {
              "internalType": "string",
              "name": "name",
              "type": "string"
            }
          ],
          "internalType": "struct DataTypes.Role",
          "name": "",
          "type": "tuple"
        }
      ],
      "stateMutability": "view",
      "type": "function"
    },
    {
      "inputs": [],
      "name": "getRoles",
      "outputs": [
        {
          "components": [
            {
              "internalType": "uint256",
              "name": "roleId",
              "type": "uint256"
            },
            {
              "internalType": "string",
              "name": "name",
              "type": "string"
            }
          ],
          "internalType": "struct DataTypes.Role[]",
          "name": "",
          "type": "tuple[]"
        }
      ],
      "stateMutability": "view",
      "type": "function"
    },
    {
      "inputs": [],
      "name": "getSpaceInfo",
      "outputs": [
        {
          "components": [
            {
              "internalType": "address",
              "name": "spaceAddress",
              "type": "address"
            },
            {
              "internalType": "address",
              "name": "owner",
              "type": "address"
            },
            {
              "internalType": "string",
              "name": "spaceId",
              "type": "string"
            },
            {
              "internalType": "bool",
              "name": "disabled",
              "type": "bool"
            }
          ],
          "internalType": "struct ISpace.SpaceInfo",
          "name": "spaceInfo",
          "type": "tuple"
        }
      ],
      "stateMutability": "view",
      "type": "function"
    },
    {
      "inputs": [
        {
          "internalType": "address",
          "name": "",
          "type": "address"
        }
      ],
      "name": "hasEntitlement",
      "outputs": [
        {
          "internalType": "bool",
          "name": "",
          "type": "bool"
        }
      ],
      "stateMutability": "view",
      "type": "function"
    },
    {
      "inputs": [
        {
          "internalType": "string",
          "name": "_name",
          "type": "string"
        },
        {
          "internalType": "string",
          "name": "_networkId",
          "type": "string"
        },
        {
          "internalType": "address",
          "name": "_token",
          "type": "address"
        },
        {
          "internalType": "uint256",
          "name": "_tokenId",
          "type": "uint256"
        },
        {
          "internalType": "address[]",
          "name": "_entitlements",
          "type": "address[]"
        }
      ],
      "name": "initialize",
      "outputs": [],
      "stateMutability": "nonpayable",
      "type": "function"
    },
    {
      "inputs": [
        {
          "internalType": "string",
          "name": "_channelId",
          "type": "string"
        },
        {
          "internalType": "address",
          "name": "_user",
          "type": "address"
        },
        {
          "internalType": "string",
          "name": "_permission",
          "type": "string"
        }
      ],
      "name": "isEntitledToChannel",
      "outputs": [
        {
          "internalType": "bool",
          "name": "_entitled",
          "type": "bool"
        }
      ],
      "stateMutability": "view",
      "type": "function"
    },
    {
      "inputs": [
        {
          "internalType": "address",
          "name": "_user",
          "type": "address"
        },
        {
          "internalType": "string",
          "name": "_permission",
          "type": "string"
        }
      ],
      "name": "isEntitledToSpace",
      "outputs": [
        {
          "internalType": "bool",
          "name": "_entitled",
          "type": "bool"
        }
      ],
      "stateMutability": "view",
      "type": "function"
    },
    {
      "inputs": [
        {
          "internalType": "bytes[]",
          "name": "data",
          "type": "bytes[]"
        }
      ],
      "name": "multicall",
      "outputs": [
        {
          "internalType": "bytes[]",
          "name": "results",
          "type": "bytes[]"
        }
      ],
      "stateMutability": "nonpayable",
      "type": "function"
    },
    {
      "inputs": [],
      "name": "name",
      "outputs": [
        {
          "internalType": "string",
          "name": "",
          "type": "string"
        }
      ],
      "stateMutability": "view",
      "type": "function"
    },
    {
      "inputs": [],
      "name": "networkId",
      "outputs": [
        {
          "internalType": "string",
          "name": "",
          "type": "string"
        }
      ],
      "stateMutability": "view",
      "type": "function"
    },
    {
      "inputs": [],
      "name": "owner",
      "outputs": [
        {
          "internalType": "address",
          "name": "",
          "type": "address"
        }
      ],
      "stateMutability": "view",
      "type": "function"
    },
    {
      "inputs": [],
      "name": "ownerRoleId",
      "outputs": [
        {
          "internalType": "uint256",
          "name": "",
          "type": "uint256"
        }
      ],
      "stateMutability": "view",
      "type": "function"
    },
    {
      "inputs": [],
      "name": "proxiableUUID",
      "outputs": [
        {
          "internalType": "bytes32",
          "name": "",
          "type": "bytes32"
        }
      ],
      "stateMutability": "view",
      "type": "function"
    },
    {
      "inputs": [
        {
          "internalType": "uint256",
          "name": "_roleId",
          "type": "uint256"
        },
        {
          "internalType": "string[]",
          "name": "_permissions",
          "type": "string[]"
        }
      ],
      "name": "removePermissionsFromRole",
      "outputs": [],
      "stateMutability": "nonpayable",
      "type": "function"
    },
    {
      "inputs": [
        {
          "internalType": "uint256",
          "name": "_roleId",
          "type": "uint256"
        }
      ],
      "name": "removeRole",
      "outputs": [],
      "stateMutability": "nonpayable",
      "type": "function"
    },
    {
      "inputs": [
        {
          "internalType": "string",
          "name": "_channelId",
          "type": "string"
        },
        {
          "internalType": "address",
          "name": "_entitlement",
          "type": "address"
        },
        {
          "internalType": "uint256",
          "name": "_roleId",
          "type": "uint256"
        }
      ],
      "name": "removeRoleFromChannel",
      "outputs": [],
      "stateMutability": "nonpayable",
      "type": "function"
    },
    {
      "inputs": [
        {
          "internalType": "uint256",
          "name": "_roleId",
          "type": "uint256"
        },
        {
          "components": [
            {
              "internalType": "address",
              "name": "module",
              "type": "address"
            },
            {
              "internalType": "bytes",
              "name": "data",
              "type": "bytes"
            }
          ],
          "internalType": "struct DataTypes.Entitlement",
          "name": "_entitlement",
          "type": "tuple"
        }
      ],
      "name": "removeRoleFromEntitlement",
      "outputs": [],
      "stateMutability": "nonpayable",
      "type": "function"
    },
    {
      "inputs": [],
      "name": "roleCount",
      "outputs": [
        {
          "internalType": "uint256",
          "name": "",
          "type": "uint256"
        }
      ],
      "stateMutability": "view",
      "type": "function"
    },
    {
      "inputs": [
        {
          "internalType": "uint256",
          "name": "",
          "type": "uint256"
        }
      ],
      "name": "rolesById",
      "outputs": [
        {
          "internalType": "uint256",
          "name": "roleId",
          "type": "uint256"
        },
        {
          "internalType": "string",
          "name": "name",
          "type": "string"
        }
      ],
      "stateMutability": "view",
      "type": "function"
    },
    {
      "inputs": [
        {
          "internalType": "string",
          "name": "channelId",
          "type": "string"
        },
        {
          "internalType": "bool",
          "name": "disableChannel",
          "type": "bool"
        }
      ],
      "name": "setChannelAccess",
      "outputs": [],
      "stateMutability": "nonpayable",
      "type": "function"
    },
    {
      "inputs": [
        {
          "internalType": "string",
          "name": "_uri",
          "type": "string"
        }
      ],
      "name": "setContractURI",
      "outputs": [],
      "stateMutability": "nonpayable",
      "type": "function"
    },
    {
      "inputs": [
        {
          "internalType": "address",
          "name": "_entitlementModule",
          "type": "address"
        },
        {
          "internalType": "bool",
          "name": "_whitelist",
          "type": "bool"
        }
      ],
      "name": "setEntitlementModule",
      "outputs": [],
      "stateMutability": "nonpayable",
      "type": "function"
    },
    {
      "inputs": [
        {
          "internalType": "uint256",
          "name": "_roleId",
          "type": "uint256"
        }
      ],
      "name": "setOwnerRoleId",
      "outputs": [],
      "stateMutability": "nonpayable",
      "type": "function"
    },
    {
      "inputs": [
        {
          "internalType": "bool",
          "name": "_disabled",
          "type": "bool"
        }
      ],
      "name": "setSpaceAccess",
      "outputs": [],
      "stateMutability": "nonpayable",
      "type": "function"
    },
    {
      "inputs": [
        {
          "internalType": "bytes4",
          "name": "interfaceId",
          "type": "bytes4"
        }
      ],
      "name": "supportsInterface",
      "outputs": [
        {
          "internalType": "bool",
          "name": "",
          "type": "bool"
        }
      ],
      "stateMutability": "view",
      "type": "function"
    },
    {
      "inputs": [],
      "name": "token",
      "outputs": [
        {
          "internalType": "address",
          "name": "",
          "type": "address"
        }
      ],
      "stateMutability": "view",
      "type": "function"
    },
    {
      "inputs": [],
      "name": "tokenId",
      "outputs": [
        {
          "internalType": "uint256",
          "name": "",
          "type": "uint256"
        }
      ],
      "stateMutability": "view",
      "type": "function"
    },
    {
      "inputs": [
        {
          "internalType": "string",
          "name": "channelId",
          "type": "string"
        },
        {
          "internalType": "string",
          "name": "channelName",
          "type": "string"
        }
      ],
      "name": "updateChannel",
      "outputs": [],
      "stateMutability": "nonpayable",
      "type": "function"
    },
    {
      "inputs": [
        {
          "internalType": "uint256",
          "name": "_roleId",
          "type": "uint256"
        },
        {
          "internalType": "string",
          "name": "_roleName",
          "type": "string"
        }
      ],
      "name": "updateRole",
      "outputs": [],
      "stateMutability": "nonpayable",
      "type": "function"
    },
    {
      "inputs": [
        {
          "internalType": "address",
          "name": "_entitlement",
          "type": "address"
        },
        {
          "internalType": "address",
          "name": "_newEntitlement",
          "type": "address"
        }
      ],
      "name": "upgradeEntitlement",
      "outputs": [],
      "stateMutability": "nonpayable",
      "type": "function"
    },
    {
      "inputs": [
        {
          "internalType": "address",
          "name": "newImplementation",
          "type": "address"
        }
      ],
      "name": "upgradeTo",
      "outputs": [],
      "stateMutability": "nonpayable",
      "type": "function"
    },
    {
      "inputs": [
        {
          "internalType": "address",
          "name": "newImplementation",
          "type": "address"
        },
        {
          "internalType": "bytes",
          "name": "data",
          "type": "bytes"
        }
      ],
      "name": "upgradeToAndCall",
      "outputs": [],
      "stateMutability": "payable",
      "type": "function"
    }
  ],
  "bytecode": {
    "object": "0x60a0604052306080523480156200001557600080fd5b506200002062000026565b620000e8565b600054610100900460ff1615620000935760405162461bcd60e51b815260206004820152602760248201527f496e697469616c697a61626c653a20636f6e747261637420697320696e697469604482015266616c697a696e6760c81b606482015260840160405180910390fd5b60005460ff9081161015620000e6576000805460ff191660ff9081179091556040519081527f7f26b83ff96e1f2b6a682f133852f6798a09c465da95921460cefb38474024989060200160405180910390a15b565b60805161576162000120600039600081816114df0152818161151f01528181611870015281816118b00152611df901526157616000f3fe6080604052600436106102e45760003560e01c80637f8d06d011610190578063ba201ba8116100dc578063e5894ef411610095578063ee0708051161006f578063ee07080514610939578063f28f9b5614610953578063fa6433c514610973578063fc0c546a146109a357600080fd5b8063e5894ef4146108d6578063e5949b5d14610904578063e8a3d4851461092457600080fd5b8063ba201ba81461082a578063baaf3d571461084a578063cea632bc1461086a578063d1a6a9611461088a578063dba81864146108a0578063ddf96358146108c057600080fd5b806392691821116101495780639a8e4c3e116101235780639a8e4c3e14610790578063ac9650d8146107b0578063b4264233146107dd578063b75157611461080a57600080fd5b8063926918211461073b578063938e3d7b1461075b5780639575f6ac1461077b57600080fd5b80637f8d06d01461065d57806381ed98081461068d578063870b9464146106b95780638da5cb5b146106f15780638fcd793d146107065780639025e64c1461072657600080fd5b806342486e491161024f57806351f83cea116102085780635de151b8116101e25780635de151b8146105c1578063703511f8146105e1578063710613981461060e578063784c872b1461063057600080fd5b806351f83cea1461055b57806352d1902d1461057b5780635775029f1461059057600080fd5b806342486e491461049b578063441555e5146104c8578063446dc22e146104e85780634999ab16146105085780634f1ef28614610528578063519607f21461053b57600080fd5b80631dea616a116102a15780631dea616a146103d957806320759f9e146103fb57806322bcd7641461041b57806332e704cc1461043b57806334a1dd261461045b5780633659cfe61461047b57600080fd5b806301ffc9a7146102e957806306fdde031461031e5780630d029f7514610340578063129ab3c81461036257806316a78b041461039357806317d70f7c146103b5575b600080fd5b3480156102f557600080fd5b506103096103043660046142d5565b6109c3565b60405190151581526020015b60405180910390f35b34801561032a57600080fd5b506103336109fa565b604051610315919061434f565b34801561034c57600080fd5b50610355610a88565b6040516103159190614362565b34801561036e57600080fd5b5061038261037d36600461440b565b610cc9565b604051610315959493929190614424565b34801561039f57600080fd5b506103a8610e0c565b6040516103159190614469565b3480156103c157600080fd5b506103cb609d5481565b604051908152602001610315565b3480156103e557600080fd5b506103f96103f436600461451a565b610f62565b005b34801561040757600080fd5b50610309610416366004614576565b611099565b34801561042757600080fd5b506103f96104363660046146b0565b6110ef565b34801561044757600080fd5b506103f96104563660046147b3565b6112d9565b34801561046757600080fd5b506103f96104763660046147f9565b6113db565b34801561048757600080fd5b506103f9610496366004614864565b6114d5565b3480156104a757600080fd5b506104bb6104b636600461440b565b6115b4565b6040516103159190614881565b3480156104d457600080fd5b506103f96104e33660046148d3565b611616565b3480156104f457600080fd5b506103f961050336600461490c565b6116ea565b34801561051457600080fd5b506103f961052336600461440b565b611722565b6103f9610536366004614929565b611866565b34801561054757600080fd5b506103f9610556366004614962565b611932565b34801561056757600080fd5b506103cb610576366004614990565b611a4d565b34801561058757600080fd5b506103cb611dec565b34801561059c57600080fd5b5061033360405180604001604052806005815260200164537061636560d81b81525081565b3480156105cd57600080fd5b506103f96105dc366004614a71565b611e9f565b3480156105ed57600080fd5b506106016105fc36600461440b565b611f65565b6040516103159190614ac7565b34801561061a57600080fd5b506106236120f6565b6040516103159190614b54565b34801561063c57600080fd5b5061065061064b36600461440b565b612264565b6040516103159190614bb6565b34801561066957600080fd5b50610309610678366004614864565b609e6020526000908152604090205460ff1681565b34801561069957600080fd5b506106a2600181565b60405165ffffffffffff9091168152602001610315565b3480156106c557600080fd5b506106d96106d4366004614bc9565b61233a565b6040516001600160a01b039091168152602001610315565b3480156106fd57600080fd5b506106d9612423565b34801561071257600080fd5b506103cb610721366004614d00565b61249a565b34801561073257600080fd5b506103336127cd565b34801561074757600080fd5b506103f961075636600461440b565b6127da565b34801561076757600080fd5b506103f9610776366004614dfb565b612919565b34801561078757600080fd5b506104bb6129ac565b34801561079c57600080fd5b506103f96107ab366004614e3c565b612a04565b3480156107bc57600080fd5b506107d06107cb366004614e78565b612c19565b6040516103159190614eec565b3480156107e957600080fd5b506107fd6107f836600461440b565b612d30565b6040516103159190614f41565b34801561081657600080fd5b506103f9610825366004614e3c565b612e7d565b34801561083657600080fd5b506103f9610845366004614f96565b61301d565b34801561085657600080fd5b506103f961086536600461451a565b6130fe565b34801561087657600080fd5b50610309610885366004614fd2565b6131fd565b34801561089657600080fd5b506103cb609b5481565b3480156108ac57600080fd5b506103f96108bb366004615056565b61332d565b3480156108cc57600080fd5b506103cb60a25481565b3480156108e257600080fd5b506108f66108f136600461440b565b61359e565b604051610315929190615098565b34801561091057600080fd5b506103cb61091f36600461440b565b613643565b34801561093057600080fd5b50610333613664565b34801561094557600080fd5b50609a546103099060ff1681565b34801561095f57600080fd5b506106d961096e36600461440b565b613671565b34801561097f57600080fd5b5061030961098e366004614864565b609f6020526000908152604090205460ff1681565b3480156109af57600080fd5b50609c546106d9906001600160a01b031681565b60006001600160e01b03198216630d4e53ed60e21b14806109f457506001600160e01b031982166301ffc9a760e01b145b92915050565b60988054610a07906150b1565b80601f0160208091040260200160405190810160405280929190818152602001828054610a33906150b1565b8015610a805780601f10610a5557610100808354040283529160200191610a80565b820191906000526020600020905b815481529060010190602001808311610a6357829003601f168201915b505050505081565b60a1546060906001600160401b03811115610aa557610aa56145ca565b604051908082528060200260200182016040528015610af857816020015b60408051608081018252606080825260006020808401829052938301829052908201528252600019909201910181610ac35790505b50905060005b60a154811015610cc557600060a18281548110610b1d57610b1d6150e5565b600091825260208220015460408051608081018083526306fdde0360e01b905290516001600160a01b03909216935091829184916306fdde039160848086019291908187030181865afa158015610b78573d6000803e3d6000fd5b505050506040513d6000823e601f3d908101601f19168201604052610ba091908101906150fb565b815260200160a18481548110610bb857610bb86150e5565b9060005260206000200160009054906101000a90046001600160a01b03166001600160a01b03168152602001826001600160a01b0316636465e69f6040518163ffffffff1660e01b8152600401600060405180830381865afa158015610c22573d6000803e3d6000fd5b505050506040513d6000823e601f3d908101601f19168201604052610c4a91908101906150fb565b8152602001609e600060a18681548110610c6657610c666150e5565b60009182526020808320909101546001600160a01b0316835282019290925260400190205460ff16151590528351849084908110610ca657610ca66150e5565b6020026020010181905250508080610cbd9061517e565b915050610afe565b5090565b60a560205260009081526040902080548190610ce4906150b1565b80601f0160208091040260200160405190810160405280929190818152602001828054610d10906150b1565b8015610d5d5780601f10610d3257610100808354040283529160200191610d5d565b820191906000526020600020905b815481529060010190602001808311610d4057829003601f168201915b505050505090806001018054610d72906150b1565b80601f0160208091040260200160405190810160405280929190818152602001828054610d9e906150b1565b8015610deb5780601f10610dc057610100808354040283529160200191610deb565b820191906000526020600020905b815481529060010190602001808311610dce57829003601f168201915b50505050600283015460038401546004909401549293909290915060ff1685565b6040805160808101825260008082526020820181905260609282018390529181019190915260408051608081018252308152609c54609d5492516331a9108f60e11b81526004810193909352909160208301916001600160a01b031690636352211e90602401602060405180830381865afa158015610e8f573d6000803e3d6000fd5b505050506040513d601f19601f82011682018060405250810190610eb39190615197565b6001600160a01b0316815260200160998054610ece906150b1565b80601f0160208091040260200160405190810160405280929190818152602001828054610efa906150b1565b8015610f475780601f10610f1c57610100808354040283529160200191610f47565b820191906000526020600020905b815481529060010190602001808311610f2a57829003601f168201915b5050509183525050609a5460ff161515602090910152919050565b610fca84848080601f0160208091040260200160405190810160405280939291908181526020018383808284376000920191909152505060408051808201909152601181527041646452656d6f76654368616e6e656c7360781b6020820152915061369b9050565b6001600160a01b0382166000908152609e602052604090205460ff166110035760405163c1ef36f360e01b815260040160405180910390fd5b600081815260a3602052604081205490036110315760405163b810dc5d60e01b815260040160405180910390fd5b60405163c513be7760e01b81526001600160a01b0383169063c513be7790611061908790879086906004016151dd565b600060405180830381600087803b15801561107b57600080fd5b505af115801561108f573d6000803e3d6000fd5b5050505050505050565b60006110df604051806020016040528060008152508585856040516020016110c2929190615201565b6040516020818303038152906040526110da90615211565b6136c7565b156110e8575060015b9392505050565b600054610100900460ff161580801561110f5750600054600160ff909116105b806111295750303b158015611129575060005460ff166001145b6111915760405162461bcd60e51b815260206004820152602e60248201527f496e697469616c697a61626c653a20636f6e747261637420697320616c72656160448201526d191e481a5b9a5d1a585b1a5e995960921b60648201526084015b60405180910390fd5b6000805460ff1916600117905580156111b4576000805461ff0019166101001790555b6111bc613780565b6111c4613780565b60986111d0878261527b565b5060996111dd868261527b565b50609c80546001600160a01b0319166001600160a01b038616179055609d83905560005b825181101561128a5761122e83828151811061121f5761121f6150e5565b602002602001015160016137ed565b6001609f6000858481518110611246576112466150e5565b6020908102919091018101516001600160a01b03168252810191909152604001600020805460ff1916911515919091179055806112828161517e565b915050611201565b5080156112d1576000805461ff0019169055604051600181527f7f26b83ff96e1f2b6a682f133852f6798a09c465da95921460cefb38474024989060200160405180910390a15b505050505050565b61131d60405180602001604052806000815250604051806040016040528060138152602001724d6f64696679537061636553657474696e677360681b81525061369b565b6113268161396e565b609b54820361134857604051631eb49d6d60e11b815260040160405180910390fd5b600082815260a3602052604081205490036113765760405163b810dc5d60e01b815260040160405180910390fd5b600082815260a360205260409020600101611391828261527b565b5081336001600160a01b03167ff3c55faf0b13ffa681c984baddbb8ef7638e514188ea19bd6461d7f87b9c79538360996040516113cf9291906153b7565b60405180910390a35050565b61141d604051806020016040528060008152506040518060400160405280601181526020017041646452656d6f76654368616e6e656c7360781b81525061369b565b61145c82828080601f01602080910402602001604051908101604052809392919081815260200183838082843760009201919091525061396e92505050565b60008484604051602001611471929190615201565b60408051601f198184030181529181528151602092830120600081815260a59093529082206002015490925090036114bc57604051636ddd9da960e01b815260040160405180910390fd5b600081815260a5602052604090206112d18385836153dc565b6001600160a01b037f000000000000000000000000000000000000000000000000000000000000000016300361151d5760405162461bcd60e51b81526004016111889061549b565b7f00000000000000000000000000000000000000000000000000000000000000006001600160a01b031661156660008051602061571a833981519152546001600160a01b031690565b6001600160a01b03161461158c5760405162461bcd60e51b8152600401611188906154e7565b6115958161399f565b604080516000808252602082019092526115b1918391906139f4565b50565b600081815260a0602090815260409182902080548351818402810184019094528084526060939283018282801561160a57602002820191906000526020600020905b8154815260200190600101908083116115f6575b50505050509050919050565b61164c604051806020016040528060008152506040518060400160405280600581526020016427bbb732b960d91b81525061369b565b61165582613b5f565b80801561167a57506001600160a01b0382166000908152609e602052604090205460ff165b156116985760405163186abc9b60e01b815260040160405180910390fd5b801580156116be57506001600160a01b0382166000908152609f602052604090205460ff165b156116dc57604051631eb49d6d60e11b815260040160405180910390fd5b6116e682826137ed565b5050565b6116f2613bf0565b61170f57604051631eb49d6d60e11b815260040160405180910390fd5b609a805460ff1916911515919091179055565b61172a613bf0565b61174757604051631eb49d6d60e11b815260040160405180910390fd5b609b541561176857604051631eb49d6d60e11b815260040160405180910390fd5b600081815260a3602052604081205490036117965760405163b810dc5d60e01b815260040160405180910390fd5b6000805b600083815260a46020526040902054811015611841576040518060400160405280600581526020016427bbb732b960d91b8152506040516020016117de9190615533565b6040516020818303038152906040526117f690615211565b600084815260a460205260409020805483908110611816576118166150e5565b90600052602060002001540361182f5760019150611841565b806118398161517e565b91505061179a565b508061186057604051633e74bd6360e21b815260040160405180910390fd5b50609b55565b6001600160a01b037f00000000000000000000000000000000000000000000000000000000000000001630036118ae5760405162461bcd60e51b81526004016111889061549b565b7f00000000000000000000000000000000000000000000000000000000000000006001600160a01b03166118f760008051602061571a833981519152546001600160a01b031690565b6001600160a01b03161461191d5760405162461bcd60e51b8152600401611188906154e7565b6119268261399f565b6116e6828260016139f4565b611968604051806020016040528060008152506040518060400160405280600581526020016427bbb732b960d91b81525061369b565b6001600160a01b038216158061198557506001600160a01b038116155b156119a357604051630e52390960e41b815260040160405180910390fd5b6001600160a01b0382166000908152609e602052604090205460ff166119dc5760405163c1ef36f360e01b815260040160405180910390fd5b604051631b2ce7f360e11b81526001600160a01b038281166004830152831690633659cfe690602401600060405180830381600087803b158015611a1f57600080fd5b505af1925050508015611a30575060015b6116e657604051630e52390960e41b815260040160405180910390fd5b6000611a91604051806020016040528060008152506040518060400160405280601181526020017041646452656d6f76654368616e6e656c7360781b81525061369b565b611ad085858080601f01602080910402602001604051908101604052809392919081815260200183838082843760009201919091525061396e92505050565b600083604051602001611ae39190615533565b60408051601f198184030181529181528151602092830120600081815260a590935291206002015490915015611b2c57604051630139324b60e41b815260040160405180910390fd5b6040518060a0016040528087878080601f016020809104026020016040519081016040528093929190818152602001838380828437600092018290525093855250505060208083018890526040808401869052426060850152608090930182905284825260a590522081518190611ba3908261527b565b5060208201516001820190611bb8908261527b565b5060408201516002820155606082015160038201556080909101516004909101805460ff191691151591909117905560a6805460018101825560009182527f2da56674729343acc9933752c8c469a244252915242eb6d4c02d11ddd69164a1018290555b60a154811015611de257600060a18281548110611c3b57611c3b6150e5565b600091825260209091200154609b5460405163c513be7760e01b81526001600160a01b039092169250829163c513be7791611c7b918a919060040161554f565b600060405180830381600087803b158015611c9557600080fd5b505af1158015611ca9573d6000803e3d6000fd5b5050505060005b8551811015611dcd57609b54868281518110611cce57611cce6150e5565b60200260200101510315611dbb5760a36000878381518110611cf257611cf26150e5565b6020026020010151815260200190815260200160002060000154600003611d2c5760405163b810dc5d60e01b815260040160405180910390fd5b816001600160a01b031663c513be7788888481518110611d4e57611d4e6150e5565b60200260200101516040518363ffffffff1660e01b8152600401611d7392919061554f565b600060405180830381600087803b158015611d8d57600080fd5b505af1925050508015611d9e575060015b611dbb5760405163d9afe50760e01b815260040160405180910390fd5b80611dc58161517e565b915050611cb0565b50508080611dda9061517e565b915050611c1c565b5095945050505050565b6000306001600160a01b037f00000000000000000000000000000000000000000000000000000000000000001614611e8c5760405162461bcd60e51b815260206004820152603860248201527f555550535570677261646561626c653a206d757374206e6f742062652063616c60448201527f6c6564207468726f7567682064656c656761746563616c6c00000000000000006064820152608401611188565b5060008051602061571a83398151915290565b611ee1604051806020016040528060008152506040518060400160405280601181526020017041646452656d6f76654368616e6e656c7360781b81525061369b565b60008383604051602001611ef6929190615201565b60408051601f198184030181529181528151602092830120600081815260a5909352908220600201549092509003611f4157604051636ddd9da960e01b815260040160405180910390fd5b600090815260a560205260409020600401805460ff19169115159190911790555050565b6040805160a081018252606080825260208201819052600092820183905281018290526080810191909152600082815260a5602052604090819020815160a08101909252805482908290611fb8906150b1565b80601f0160208091040260200160405190810160405280929190818152602001828054611fe4906150b1565b80156120315780601f1061200657610100808354040283529160200191612031565b820191906000526020600020905b81548152906001019060200180831161201457829003601f168201915b5050505050815260200160018201805461204a906150b1565b80601f0160208091040260200160405190810160405280929190818152602001828054612076906150b1565b80156120c35780601f10612098576101008083540402835291602001916120c3565b820191906000526020600020905b8154815290600101906020018083116120a657829003601f168201915b5050509183525050600282015460208201526003820154604082015260049091015460ff16151560609091015292915050565b6060600060a2546001600160401b03811115612114576121146145ca565b60405190808252806020026020018201604052801561215a57816020015b6040805180820190915260008152606060208201528152602001906001900390816121325790505b50905060005b60a25481101561225e5760a36000612179836001615571565b8152602001908152602001600020604051806040016040529081600082015481526020016001820180546121ac906150b1565b80601f01602080910402602001604051908101604052809291908181526020018280546121d8906150b1565b80156122255780601f106121fa57610100808354040283529160200191612225565b820191906000526020600020905b81548152906001019060200180831161220857829003601f168201915b505050505081525050828281518110612240576122406150e5565b602002602001018190525080806122569061517e565b915050612160565b50919050565b60408051808201909152600081526060602082015260a36000838152602001908152602001600020604051806040016040529081600082015481526020016001820180546122b1906150b1565b80601f01602080910402602001604051908101604052809291908181526020018280546122dd906150b1565b801561232a5780601f106122ff5761010080835404028352916020019161232a565b820191906000526020600020905b81548152906001019060200180831161230d57829003601f168201915b5050505050815250509050919050565b60008060005b60a15481101561241c576123da60a18281548110612360576123606150e5565b600091825260208220015460408051636465e69f60e01b815290516001600160a01b0390921692636465e69f926004808401938290030181865afa1580156123ac573d6000803e3d6000fd5b505050506040513d6000823e601f3d908101601f191682016040526123d491908101906150fb565b85613c77565b1561240a5760a181815481106123f2576123f26150e5565b6000918252602090912001546001600160a01b031691505b806124148161517e565b915050612340565b5092915050565b609c54609d546040516331a9108f60e11b815260048101919091526000916001600160a01b031690636352211e90602401602060405180830381865afa158015612471573d6000803e3d6000fd5b505050506040513d601f19601f820116820180604052508101906124959190615197565b905090565b60006124e060405180602001604052806000815250604051806040016040528060138152602001724d6f64696679537061636553657474696e677360681b81525061369b565b61251f85858080601f01602080910402602001604051908101604052809392919081815260200183838082843760009201919091525061396e92505050565b600060a2600081546125309061517e565b91905081905590506000604051806040016040528083815260200188888080601f016020809104026020016040519081016040528093929190818152602001838380828437600092018290525093909452505084815260a3602090815260409091208351815590830151929350839290915060018201906125b1908261527b565b5090505060005b85518110156126a157609b541515801561260d575061260d8682815181106125e2576125e26150e5565b60200260200101516040518060400160405280600581526020016427bbb732b960d91b815250613c77565b1561262b57604051631eb49d6d60e11b815260040160405180910390fd5b600086828151811061263f5761263f6150e5565b60200260200101516040516020016126579190615533565b60405160208183030381529060405261266f90615211565b600085815260a460209081526040822080546001810182559083529120015550806126998161517e565b9150506125b8565b5060005b845181101561277b5760008582815181106126c2576126c26150e5565b602002602001015160000151905060008683815181106126e4576126e46150e5565b602002602001015160200151905060006001600160a01b0316826001600160a01b0316148061271257508051155b1561271e575050612769565b6001600160a01b0382166000908152609e602052604081205460ff161515900361275b5760405163c1ef36f360e01b815260040160405180910390fd5b612766858383613cd0565b50505b806127738161517e565b9150506126a5565b5081336001600160a01b03167f39772407c6dd2e83adbd292cdfa17a6817c9a7500e56cfe57b7a82d797f8d39b898960996040516127bb93929190615584565b60405180910390a35095945050505050565b60998054610a07906150b1565b61281e60405180602001604052806000815250604051806040016040528060138152602001724d6f64696679537061636553657474696e677360681b81525061369b565b609b54810361284057604051631eb49d6d60e11b815260040160405180910390fd5b600081815260a36020526040812054900361286e5760405163b810dc5d60e01b815260040160405180910390fd5b600081815260a060205260409020541561289b57604051633764405360e11b815260040160405180910390fd5b600081815260a360205260408120818155906128ba600183018261426c565b5050600081815260a4602052604081206128d3916142a6565b80336001600160a01b03167f1d5667a301e36f2d5b1ee32b7f187b0adb46c706297242fa945d3fed1e7f8a19609960405161290e91906155b4565b60405180910390a350565b612921613e4c565b61296d5760405162461bcd60e51b815260206004820152601860248201527f4d657461646174613a206e6f7420617574686f72697a656400000000000000006044820152606401611188565b6116e682828080601f016020809104026020016040519081016040528093929190818152602001838380828437600092019190915250613e5692505050565b606060a68054806020026020016040519081016040528092919081815260200182805480156129fa57602002820191906000526020600020905b8154815260200190600101908083116129e6575b5050505050905090565b612a4860405180602001604052806000815250604051806040016040528060138152602001724d6f64696679537061636553657474696e677360681b81525061369b565b600082815260a360205260408120549003612a765760405163b810dc5d60e01b815260040160405180910390fd5b60005b8151811015612c1457612a978282815181106125e2576125e26150e5565b15612ab557604051631eb49d6d60e11b815260040160405180910390fd5b6000828281518110612ac957612ac96150e5565b6020026020010151604051602001612ae19190615533565b604051602081830303815290604052612af990615211565b905060005b600085815260a46020526040902054811015612bff57600085815260a460205260409020805483919083908110612b3757612b376150e5565b906000526020600020015403612bed57600085815260a4602052604090208054612b63906001906155c7565b81548110612b7357612b736150e5565b906000526020600020015460a460008781526020019081526020016000208281548110612ba257612ba26150e5565b906000526020600020018190555060a46000868152602001908152602001600020805480612bd257612bd26155da565b60019003818190600052602060002001600090559055612bff565b80612bf78161517e565b915050612afe565b50508080612c0c9061517e565b915050612a79565b505050565b6060816001600160401b03811115612c3357612c336145ca565b604051908082528060200260200182016040528015612c6657816020015b6060815260200190600190039081612c515790505b50905060005b8281101561241c5760008030868685818110612c8a57612c8a6150e5565b9050602002810190612c9c91906155f0565b604051612caa929190615201565b600060405180830381855af49150503d8060008114612ce5576040519150601f19603f3d011682016040523d82523d6000602084013e612cea565b606091505b509150915081612cfd57612cfd81613f32565b80848481518110612d1057612d106150e5565b602002602001018190525050508080612d289061517e565b915050612c6c565b600081815260a46020526040812054606091816001600160401b03811115612d5a57612d5a6145ca565b604051908082528060200260200182016040528015612d8d57816020015b6060815260200190600190039081612d785790505b50905060005b82811015612e7557600085815260a460205260409020805473__$c1a75f255b63819dc61dbe1dc70b55a79b$__91639201de559184908110612dd757612dd76150e5565b90600052602060002001546040518263ffffffff1660e01b8152600401612e0091815260200190565b600060405180830381865af4158015612e1d573d6000803e3d6000fd5b505050506040513d6000823e601f3d908101601f19168201604052612e4591908101906150fb565b828281518110612e5757612e576150e5565b60200260200101819052508080612e6d9061517e565b915050612d93565b509392505050565b612ec160405180602001604052806000815250604051806040016040528060138152602001724d6f64696679537061636553657474696e677360681b81525061369b565b600082815260a360205260408120549003612eef5760405163b810dc5d60e01b815260040160405180910390fd5b60005b8151811015612c1457612f108282815181106125e2576125e26150e5565b15612f2e57604051631eb49d6d60e11b815260040160405180910390fd5b6000828281518110612f4257612f426150e5565b6020026020010151604051602001612f5a9190615533565b604051602081830303815290604052612f7290615211565b905060005b600085815260a46020526040902054811015612feb57600085815260a460205260409020805483919083908110612fb057612fb06150e5565b906000526020600020015403612fd957604051636571d65f60e01b815260040160405180910390fd5b80612fe38161517e565b915050612f77565b50600084815260a4602090815260408220805460018101825590835291200155806130158161517e565b915050612ef2565b61306160405180602001604052806000815250604051806040016040528060138152602001724d6f64696679537061636553657474696e677360681b81525061369b565b80516001600160a01b03166000908152609e602052604090205460ff1661309b5760405163c1ef36f360e01b815260040160405180910390fd5b600082815260a3602052604081205490036130c95760405163b810dc5d60e01b815260040160405180910390fd5b609b5482036130eb57604051631eb49d6d60e11b815260040160405180910390fd5b6116e68282600001518360200151613cd0565b61316684848080601f0160208091040260200160405190810160405280939291908181526020018383808284376000920191909152505060408051808201909152601181527041646452656d6f76654368616e6e656c7360781b6020820152915061369b9050565b6001600160a01b0382166000908152609e602052604090205460ff1661319f5760405163c1ef36f360e01b815260040160405180910390fd5b600081815260a3602052604081205490036131cd5760405163b810dc5d60e01b815260040160405180910390fd5b604051637997c1e760e11b81526001600160a01b0383169063f32f83ce90611061908790879086906004016151dd565b600084158061320a575081155b8061321c57506001600160a01b038416155b1561323a57604051630e52390960e41b815260040160405180910390fd5b6000868660405160200161324f929190615201565b60408051601f198184030181529181528151602092830120600081815260a590935290822060020154909250900361329a57604051636ddd9da960e01b815260040160405180910390fd5b600081815260a5602052604090206004015460ff16156132cd57604051631eb49d6d60e11b815260040160405180910390fd5b61331b87878080601f016020809104026020016040519081016040528093929190818152602001838380828437600092019190915250506040518992506110c2915088908890602001615201565b15611de2575060019695505050505050565b61337160405180602001604052806000815250604051806040016040528060138152602001724d6f64696679537061636553657474696e677360681b81525061369b565b609b54820361339357604051631eb49d6d60e11b815260040160405180910390fd5b609e60006133a46020840184614864565b6001600160a01b0316815260208101919091526040016000205460ff166133de5760405163c1ef36f360e01b815260040160405180910390fd5b600082815260a36020526040812054900361340c5760405163b810dc5d60e01b815260040160405180910390fd5b60008261341c60208401846155f0565b60405160200161342e93929190615636565b60408051601f198184030181529181528151602092830120600086815260a0909352908220909250905b815481101561350c57818181548110613473576134736150e5565b906000526020600020015483036134fa5781548290613494906001906155c7565b815481106134a4576134a46150e5565b90600052602060002001548282815481106134c1576134c16150e5565b9060005260206000200181905550818054806134df576134df6155da565b6001900381819060005260206000200160009055905561350c565b806135048161517e565b915050613458565b5061351a6020840184614864565b6001600160a01b031663fa6d1adf8561353660208701876155f0565b6040518463ffffffff1660e01b815260040161355493929190615650565b6020604051808303816000875af1158015613573573d6000803e3d6000fd5b505050506040513d601f19601f82011682018060405250810190613597919061566a565b5050505050565b60a360205260009081526040902080546001820180549192916135c0906150b1565b80601f01602080910402602001604051908101604052809291908181526020018280546135ec906150b1565b80156136395780601f1061360e57610100808354040283529160200191613639565b820191906000526020600020905b81548152906001019060200180831161361c57829003601f168201915b5050505050905082565b60a6818154811061365357600080fd5b600091825260209091200154905081565b60978054610a07906150b1565b60a1818154811061368157600080fd5b6000918252602090912001546001600160a01b0316905081565b6136a58282613fff565b156136ae575050565b604051631eb49d6d60e11b815260040160405180910390fd5b6000805b60a154811015612e755760a181815481106136e8576136e86150e5565b60009182526020909120015460405162169d5560e31b81526001600160a01b039091169062b4eaa89061372390889088908890600401615683565b602060405180830381865afa158015613740573d6000803e3d6000fd5b505050506040513d601f19601f8201168201806040525081019061376491906156b1565b1561376e57600191505b806137788161517e565b9150506136cb565b600054610100900460ff166137eb5760405162461bcd60e51b815260206004820152602b60248201527f496e697469616c697a61626c653a20636f6e7472616374206973206e6f74206960448201526a6e697469616c697a696e6760a81b6064820152608401611188565b565b6001600160a01b0382166000908152609e60205260409020805460ff1916821580159190911790915561386b5760a180546001810182556000919091527faadc37b8ba5645e62f4546802db221593a94729ccbfc5a97d01365a88f6498780180546001600160a01b0384166001600160a01b03199091161790555050565b60005b60a154811015612c145760a1818154811061388b5761388b6150e5565b6000918252602090912001546001600160a01b039081169084160361395c5760a180546138ba906001906155c7565b815481106138ca576138ca6150e5565b60009182526020909120015460a180546001600160a01b0390921691839081106138f6576138f66150e5565b9060005260206000200160006101000a8154816001600160a01b0302191690836001600160a01b0316021790555060a1805480613935576139356155da565b600082815260209020810160001990810180546001600160a01b0319169055019055505050565b806139668161517e565b91505061386e565b8051819060021180613981575080516020105b156116e65760405163354b556f60e11b815260040160405180910390fd5b6139d760405180602001604052806000815250604051806040016040528060078152602001665570677261646560c81b815250613fff565b6115b157604051631eb49d6d60e11b815260040160405180910390fd5b7f4910fdfa16fed3260ed0e7147f7cc6da11a60208b5b9406d12a635614ffd91435460ff1615613a2757612c1483614033565b826001600160a01b03166352d1902d6040518163ffffffff1660e01b8152600401602060405180830381865afa925050508015613a81575060408051601f3d908101601f19168201909252613a7e9181019061566a565b60015b613ae45760405162461bcd60e51b815260206004820152602e60248201527f45524331393637557067726164653a206e657720696d706c656d656e7461746960448201526d6f6e206973206e6f74205555505360901b6064820152608401611188565b60008051602061571a8339815191528114613b535760405162461bcd60e51b815260206004820152602960248201527f45524331393637557067726164653a20756e737570706f727465642070726f786044820152681a58589b195555525160ba1b6064820152608401611188565b50612c148383836140cf565b6040516301ffc9a760e01b815263a485103160e01b60048201526001600160a01b038216906301ffc9a790602401602060405180830381865afa158015613baa573d6000803e3d6000fd5b505050506040513d601f19601f82011682018060405250810190613bce91906156b1565b15156000036115b157604051636d9250f160e11b815260040160405180910390fd5b600033609c54609d546040516331a9108f60e11b815260048101919091526001600160a01b039283169290911690636352211e90602401602060405180830381865afa158015613c44573d6000803e3d6000fd5b505050506040513d601f19601f82011682018060405250810190613c689190615197565b6001600160a01b031614905090565b600081604051602001613c8a919061434f565b6040516020818303038152906040528051906020012083604051602001613cb1919061434f565b6040516020818303038152906040528051906020012014905092915050565b60008382604051602001613ce59291906156ce565b60408051601f198184030181528282528051602091820120600088815260a0835283812080548085028701850190955284865291955093929091830182828015613d4e57602002820191906000526020600020905b815481526020019060010190808311613d3a575b505083519394506000925050505b81811015613daf5783838281518110613d7757613d776150e5565b602002602001015103613d9d5760405163c5c9ad6760e01b815260040160405180910390fd5b80613da78161517e565b915050613d5c565b50600086815260a0602090815260408083208054600181018255908452919092200184905551633be2f95d60e21b81526001600160a01b0386169063ef8be57490613e009089908890600401615098565b6020604051808303816000875af1158015613e1f573d6000803e3d6000fd5b505050506040513d601f19601f82011682018060405250810190613e43919061566a565b50505050505050565b6000612495613bf0565b600060978054613e65906150b1565b80601f0160208091040260200160405190810160405280929190818152602001828054613e91906150b1565b8015613ede5780601f10613eb357610100808354040283529160200191613ede565b820191906000526020600020905b815481529060010190602001808311613ec157829003601f168201915b505050505090508160979081613ef4919061527b565b507fc9c7c3fe08b88b4df9d4d47ef47d2c43d55c025a0ba88ca442580ed9e7348a168183604051613f269291906156f4565b60405180910390a15050565b600481511015613f775760405162461bcd60e51b815260206004820152601060248201526f1d5b9a185b991b1959081c995d995c9d60821b6044820152606401611188565b602081015163b1b7848f60e01b6001600160e01b0319821601613ff657604080518082018252600e81526d70616e69636b65643a2030785f5f60901b602082018181526024860151600481811c600f908116603090810160081b9184160117909317909152925162461bcd60e51b81529192916111889184910161434f565b81518060208401fd5b6000614009613bf0565b806110e85750609a5460ff161580156110e857506110e88333846040516020016110c29190615533565b6001600160a01b0381163b6140a05760405162461bcd60e51b815260206004820152602d60248201527f455243313936373a206e657720696d706c656d656e746174696f6e206973206e60448201526c1bdd08184818dbdb9d1c9858dd609a1b6064820152608401611188565b60008051602061571a83398151915280546001600160a01b0319166001600160a01b0392909216919091179055565b6140d8836140fa565b6000825111806140e55750805b15612c14576140f4838361413a565b50505050565b61410381614033565b6040516001600160a01b038216907fbc7cd75a20ee27fd9adebab32041f755214dbc6bffa90cc0225b39da2e5c2d3b90600090a250565b60606001600160a01b0383163b6141a25760405162461bcd60e51b815260206004820152602660248201527f416464726573733a2064656c65676174652063616c6c20746f206e6f6e2d636f6044820152651b9d1c9858dd60d21b6064820152608401611188565b600080846001600160a01b0316846040516141bd9190615533565b600060405180830381855af49150503d80600081146141f8576040519150601f19603f3d011682016040523d82523d6000602084013e6141fd565b606091505b5091509150614225828260405180606001604052806027815260200161573a6027913961422e565b95945050505050565b6060831561423d5750816110e8565b6110e883838151156142525781518083602001fd5b8060405162461bcd60e51b8152600401611188919061434f565b508054614278906150b1565b6000825580601f10614288575050565b601f0160209004906000526020600020908101906115b191906142c0565b50805460008255906000526020600020908101906115b191905b5b80821115610cc557600081556001016142c1565b6000602082840312156142e757600080fd5b81356001600160e01b0319811681146110e857600080fd5b60005b8381101561431a578181015183820152602001614302565b50506000910152565b6000815180845261433b8160208601602086016142ff565b601f01601f19169290920160200192915050565b6020815260006110e86020830184614323565b60006020808301818452808551808352604092508286019150828160051b87010184880160005b838110156143fd57603f198984030185528151608081518186526143af82870182614323565b838b01516001600160a01b0316878c0152898401518782038b89015290925090506143da8282614323565b606093840151151596909301959095525094870194925090860190600101614389565b509098975050505050505050565b60006020828403121561441d57600080fd5b5035919050565b60a08152600061443760a0830188614323565b82810360208401526144498188614323565b604084019690965250506060810192909252151560809091015292915050565b60208152600060018060a01b03808451166020840152806020850151166040840152506040830151608060608401526144a560a0840182614323565b90506060840151151560808401528091505092915050565b60008083601f8401126144cf57600080fd5b5081356001600160401b038111156144e657600080fd5b6020830191508360208285010111156144fe57600080fd5b9250929050565b6001600160a01b03811681146115b157600080fd5b6000806000806060858703121561453057600080fd5b84356001600160401b0381111561454657600080fd5b614552878288016144bd565b909550935050602085013561456681614505565b9396929550929360400135925050565b60008060006040848603121561458b57600080fd5b833561459681614505565b925060208401356001600160401b038111156145b157600080fd5b6145bd868287016144bd565b9497909650939450505050565b634e487b7160e01b600052604160045260246000fd5b604051601f8201601f191681016001600160401b0381118282101715614608576146086145ca565b604052919050565b60006001600160401b03821115614629576146296145ca565b50601f01601f191660200190565b600082601f83011261464857600080fd5b813561465b61465682614610565b6145e0565b81815284602083860101111561467057600080fd5b816020850160208301376000918101602001919091529392505050565b60006001600160401b038211156146a6576146a66145ca565b5060051b60200190565b600080600080600060a086880312156146c857600080fd5b85356001600160401b03808211156146df57600080fd5b6146eb89838a01614637565b965060209150818801358181111561470257600080fd5b61470e8a828b01614637565b965050604088013561471f81614505565b94506060880135935060808801358181111561473a57600080fd5b88019050601f8101891361474d57600080fd5b803561475b6146568261468d565b81815260059190911b8201830190838101908b83111561477a57600080fd5b928401925b828410156147a157833561479281614505565b8252928401929084019061477f565b80955050505050509295509295909350565b600080604083850312156147c657600080fd5b8235915060208301356001600160401b038111156147e357600080fd5b6147ef85828601614637565b9150509250929050565b6000806000806040858703121561480f57600080fd5b84356001600160401b038082111561482657600080fd5b614832888389016144bd565b9096509450602087013591508082111561484b57600080fd5b50614858878288016144bd565b95989497509550505050565b60006020828403121561487657600080fd5b81356110e881614505565b6020808252825182820181905260009190848201906040850190845b818110156148b95783518352928401929184019160010161489d565b50909695505050505050565b80151581146115b157600080fd5b600080604083850312156148e657600080fd5b82356148f181614505565b91506020830135614901816148c5565b809150509250929050565b60006020828403121561491e57600080fd5b81356110e8816148c5565b6000806040838503121561493c57600080fd5b823561494781614505565b915060208301356001600160401b038111156147e357600080fd5b6000806040838503121561497557600080fd5b823561498081614505565b9150602083013561490181614505565b600080600080606085870312156149a657600080fd5b84356001600160401b03808211156149bd57600080fd5b6149c9888389016144bd565b90965094506020915086820135818111156149e357600080fd5b6149ef89828a01614637565b945050604087013581811115614a0457600080fd5b87019050601f81018813614a1757600080fd5b8035614a256146568261468d565b81815260059190911b8201830190838101908a831115614a4457600080fd5b928401925b82841015614a6257833582529284019290840190614a49565b979a9699509497505050505050565b600080600060408486031215614a8657600080fd5b83356001600160401b03811115614a9c57600080fd5b614aa8868287016144bd565b9094509250506020840135614abc816148c5565b809150509250925092565b602081526000825160a06020840152614ae360c0840182614323565b90506020840151601f19848303016040850152614b008282614323565b91505060408401516060840152606084015160808401526080840151151560a08401528091505092915050565b805182526000602082015160406020850152614b4c6040850182614323565b949350505050565b6000602080830181845280855180835260408601915060408160051b870101925083870160005b82811015614ba957603f19888603018452614b97858351614b2d565b94509285019290850190600101614b7b565b5092979650505050505050565b6020815260006110e86020830184614b2d565b600060208284031215614bdb57600080fd5b81356001600160401b03811115614bf157600080fd5b614b4c84828501614637565b600082601f830112614c0e57600080fd5b81356020614c1e6146568361468d565b82815260059290921b84018101918181019086841115614c3d57600080fd5b8286015b84811015614c7c5780356001600160401b03811115614c605760008081fd5b614c6e8986838b0101614637565b845250918301918301614c41565b509695505050505050565b600060408284031215614c9957600080fd5b604051604081016001600160401b038282108183111715614cbc57614cbc6145ca565b8160405282935084359150614cd082614505565b90825260208401359080821115614ce657600080fd5b50614cf385828601614637565b6020830152505092915050565b60008060008060608587031215614d1657600080fd5b84356001600160401b0380821115614d2d57600080fd5b614d39888389016144bd565b9096509450602091508682013581811115614d5357600080fd5b614d5f89828a01614bfd565b945050604087013581811115614d7457600080fd5b8701601f81018913614d8557600080fd5b8035614d936146568261468d565b81815260059190911b8201840190848101908b831115614db257600080fd5b8584015b83811015614dea57803586811115614dce5760008081fd5b614ddc8e8983890101614c87565b845250918601918601614db6565b50989b979a50959850505050505050565b60008060208385031215614e0e57600080fd5b82356001600160401b03811115614e2457600080fd5b614e30858286016144bd565b90969095509350505050565b60008060408385031215614e4f57600080fd5b8235915060208301356001600160401b03811115614e6c57600080fd5b6147ef85828601614bfd565b60008060208385031215614e8b57600080fd5b82356001600160401b0380821115614ea257600080fd5b818501915085601f830112614eb657600080fd5b813581811115614ec557600080fd5b8660208260051b8501011115614eda57600080fd5b60209290920196919550909350505050565b6000602080830181845280855180835260408601915060408160051b870101925083870160005b82811015614ba957603f19888603018452614f2f858351614323565b94509285019290850190600101614f13565b6000602080830181845280855180835260408601915060408160051b870101925083870160005b82811015614ba957603f19888603018452614f84858351614323565b94509285019290850190600101614f68565b60008060408385031215614fa957600080fd5b8235915060208301356001600160401b03811115614fc657600080fd5b6147ef85828601614c87565b600080600080600060608688031215614fea57600080fd5b85356001600160401b038082111561500157600080fd5b61500d89838a016144bd565b90975095506020880135915061502282614505565b9093506040870135908082111561503857600080fd5b50615045888289016144bd565b969995985093965092949392505050565b6000806040838503121561506957600080fd5b8235915060208301356001600160401b0381111561508657600080fd5b83016040818603121561490157600080fd5b828152604060208201526000614b4c6040830184614323565b600181811c908216806150c557607f821691505b60208210810361225e57634e487b7160e01b600052602260045260246000fd5b634e487b7160e01b600052603260045260246000fd5b60006020828403121561510d57600080fd5b81516001600160401b0381111561512357600080fd5b8201601f8101841361513457600080fd5b805161514261465682614610565b81815285602083850101111561515757600080fd5b6142258260208301602086016142ff565b634e487b7160e01b600052601160045260246000fd5b60006001820161519057615190615168565b5060010190565b6000602082840312156151a957600080fd5b81516110e881614505565b81835281816020850137506000828201602090810191909152601f909101601f19169091010190565b6040815260006151f16040830185876151b4565b9050826020830152949350505050565b8183823760009101908152919050565b8051602080830151919081101561225e5760001960209190910360031b1b16919050565b601f821115612c1457600081815260208120601f850160051c8101602086101561525c5750805b601f850160051c820191505b818110156112d157828155600101615268565b81516001600160401b03811115615294576152946145ca565b6152a8816152a284546150b1565b84615235565b602080601f8311600181146152dd57600084156152c55750858301515b600019600386901b1c1916600185901b1785556112d1565b600085815260208120601f198616915b8281101561530c578886015182559484019460019091019084016152ed565b508582101561532a5787850151600019600388901b60f8161c191681555b5050505050600190811b01905550565b60008154615347816150b1565b808552602060018381168015615364576001811461537e576153ac565b60ff1985168884015283151560051b8801830195506153ac565b866000528260002060005b858110156153a45781548a8201860152908301908401615389565b890184019650505b505050505092915050565b6040815260006153ca6040830185614323565b8281036020840152614225818561533a565b6001600160401b038311156153f3576153f36145ca565b6154078361540183546150b1565b83615235565b6000601f84116001811461543b57600085156154235750838201355b600019600387901b1c1916600186901b178355613597565b600083815260209020601f19861690835b8281101561546c578685013582556020948501946001909201910161544c565b50868210156154895760001960f88860031b161c19848701351681555b505060018560011b0183555050505050565b6020808252602c908201527f46756e6374696f6e206d7573742062652063616c6c6564207468726f7567682060408201526b19195b1959d85d1958d85b1b60a21b606082015260800190565b6020808252602c908201527f46756e6374696f6e206d7573742062652063616c6c6564207468726f7567682060408201526b6163746976652070726f787960a01b606082015260800190565b600082516155458184602087016142ff565b9190910192915050565b6040815260006155626040830185614323565b90508260208301529392505050565b808201808211156109f4576109f4615168565b6040815260006155986040830185876151b4565b82810360208401526155aa818561533a565b9695505050505050565b6020815260006110e8602083018461533a565b818103818111156109f4576109f4615168565b634e487b7160e01b600052603160045260246000fd5b6000808335601e1984360301811261560757600080fd5b8301803591506001600160401b0382111561562157600080fd5b6020019150368190038213156144fe57600080fd5b838152818360208301376000910160200190815292915050565b8381526040602082015260006142256040830184866151b4565b60006020828403121561567c57600080fd5b5051919050565b6060815260006156966060830186614323565b6001600160a01b039490941660208301525060400152919050565b6000602082840312156156c357600080fd5b81516110e8816148c5565b828152600082516156e68160208501602087016142ff565b919091016020019392505050565b6040815260006157076040830185614323565b8281036020840152614225818561432356fe360894a13ba1a3210667c828492db98dca3e2076cc3735a920a3ca505d382bbc416464726573733a206c6f772d6c6576656c2064656c65676174652063616c6c206661696c6564",
    "linkReferences": {
      "packages/contracts/src/spaces/libraries/Utils.sol": {
        "Utils": [
          {
            "start": 11981,
            "length": 20
          }
        ]
      }
    }
  },
  "methodIdentifiers": {
    "MODULE_TYPE()": "5775029f",
    "MODULE_VERSION()": "81ed9808",
    "addPermissionsToRole(uint256,string[])": "b7515761",
    "addRoleToChannel(string,address,uint256)": "1dea616a",
    "addRoleToEntitlement(uint256,(address,bytes))": "ba201ba8",
    "channels(uint256)": "e5949b5d",
    "channelsByHash(bytes32)": "129ab3c8",
    "contractURI()": "e8a3d485",
    "createChannel(string,string,uint256[])": "51f83cea",
    "createRole(string,string[],(address,bytes)[])": "8fcd793d",
    "defaultEntitlements(address)": "fa6433c5",
    "disabled()": "ee070805",
    "entitlements(uint256)": "f28f9b56",
    "getChannelByHash(bytes32)": "703511f8",
    "getChannels()": "9575f6ac",
    "getEntitlementByModuleType(string)": "870b9464",
    "getEntitlementIdsByRoleId(uint256)": "42486e49",
    "getEntitlementModules()": "0d029f75",
    "getPermissionsByRoleId(uint256)": "b4264233",
    "getRoleById(uint256)": "784c872b",
    "getRoles()": "71061398",
    "getSpaceInfo()": "16a78b04",
    "hasEntitlement(address)": "7f8d06d0",
    "initialize(string,string,address,uint256,address[])": "22bcd764",
    "isEntitledToChannel(string,address,string)": "cea632bc",
    "isEntitledToSpace(address,string)": "20759f9e",
    "multicall(bytes[])": "ac9650d8",
    "name()": "06fdde03",
    "networkId()": "9025e64c",
    "owner()": "8da5cb5b",
    "ownerRoleId()": "d1a6a961",
    "proxiableUUID()": "52d1902d",
    "removePermissionsFromRole(uint256,string[])": "9a8e4c3e",
    "removeRole(uint256)": "92691821",
    "removeRoleFromChannel(string,address,uint256)": "baaf3d57",
    "removeRoleFromEntitlement(uint256,(address,bytes))": "dba81864",
    "roleCount()": "ddf96358",
    "rolesById(uint256)": "e5894ef4",
    "setChannelAccess(string,bool)": "5de151b8",
    "setContractURI(string)": "938e3d7b",
    "setEntitlementModule(address,bool)": "441555e5",
    "setOwnerRoleId(uint256)": "4999ab16",
    "setSpaceAccess(bool)": "446dc22e",
    "supportsInterface(bytes4)": "01ffc9a7",
    "token()": "fc0c546a",
    "tokenId()": "17d70f7c",
    "updateChannel(string,string)": "34a1dd26",
    "updateRole(uint256,string)": "32e704cc",
    "upgradeEntitlement(address,address)": "519607f2",
    "upgradeTo(address)": "3659cfe6",
    "upgradeToAndCall(address,bytes)": "4f1ef286"
  },
  "id": 122
}