{
  "abi": [
    {
      "inputs": [],
      "stateMutability": "nonpayable",
      "type": "constructor"
    },
    {
      "inputs": [],
      "name": "InvalidParameters",
      "type": "error"
    },
    {
      "inputs": [],
      "name": "NameLengthInvalid",
      "type": "error"
    },
    {
      "inputs": [],
      "name": "NotAllowed",
      "type": "error"
    },
    {
      "inputs": [],
      "name": "PermissionAlreadyExists",
      "type": "error"
    },
    {
      "inputs": [],
      "name": "SpaceAlreadyRegistered",
      "type": "error"
    },
    {
      "anonymous": false,
      "inputs": [
        {
          "indexed": false,
          "internalType": "address",
          "name": "previousAdmin",
          "type": "address"
        },
        {
          "indexed": false,
          "internalType": "address",
          "name": "newAdmin",
          "type": "address"
        }
      ],
      "name": "AdminChanged",
      "type": "event"
    },
    {
      "anonymous": false,
      "inputs": [
        {
          "indexed": true,
          "internalType": "address",
          "name": "beacon",
          "type": "address"
        }
      ],
      "name": "BeaconUpgraded",
      "type": "event"
    },
    {
      "anonymous": false,
      "inputs": [
        {
          "indexed": false,
          "internalType": "uint8",
          "name": "version",
          "type": "uint8"
        }
      ],
      "name": "Initialized",
      "type": "event"
    },
    {
      "anonymous": false,
      "inputs": [
        {
          "indexed": true,
          "internalType": "address",
          "name": "previousOwner",
          "type": "address"
        },
        {
          "indexed": true,
          "internalType": "address",
          "name": "newOwner",
          "type": "address"
        }
      ],
      "name": "OwnershipTransferred",
      "type": "event"
    },
    {
      "anonymous": false,
      "inputs": [
        {
          "indexed": false,
          "internalType": "address",
          "name": "account",
          "type": "address"
        }
      ],
      "name": "Paused",
      "type": "event"
    },
    {
      "anonymous": false,
      "inputs": [
        {
          "indexed": false,
          "internalType": "address",
          "name": "account",
          "type": "address"
        }
      ],
      "name": "Unpaused",
      "type": "event"
    },
    {
      "anonymous": false,
      "inputs": [
        {
          "indexed": true,
          "internalType": "address",
          "name": "implementation",
          "type": "address"
        }
      ],
      "name": "Upgraded",
      "type": "event"
    },
    {
      "inputs": [],
      "name": "GATE_TOKEN_ADDRESS",
      "outputs": [
        {
          "internalType": "address",
          "name": "",
          "type": "address"
        }
      ],
      "stateMutability": "view",
      "type": "function"
    },
    {
      "inputs": [],
      "name": "SPACE_IMPLEMENTATION_ADDRESS",
      "outputs": [
        {
          "internalType": "address",
          "name": "",
          "type": "address"
        }
      ],
      "stateMutability": "view",
      "type": "function"
    },
    {
      "inputs": [],
      "name": "SPACE_TOKEN_ADDRESS",
      "outputs": [
        {
          "internalType": "address",
          "name": "",
          "type": "address"
        }
      ],
      "stateMutability": "view",
      "type": "function"
    },
    {
      "inputs": [],
      "name": "TOKEN_IMPLEMENTATION_ADDRESS",
      "outputs": [
        {
          "internalType": "address",
          "name": "",
          "type": "address"
        }
      ],
      "stateMutability": "view",
      "type": "function"
    },
    {
      "inputs": [],
      "name": "USER_IMPLEMENTATION_ADDRESS",
      "outputs": [
        {
          "internalType": "address",
          "name": "",
          "type": "address"
        }
      ],
      "stateMutability": "view",
      "type": "function"
    },
    {
      "inputs": [
        {
          "internalType": "string[]",
          "name": "_permissions",
          "type": "string[]"
        }
      ],
      "name": "addOwnerPermissions",
      "outputs": [],
      "stateMutability": "nonpayable",
      "type": "function"
    },
    {
      "inputs": [
        {
          "components": [
            {
              "internalType": "string",
              "name": "spaceName",
              "type": "string"
            },
            {
              "internalType": "string",
              "name": "spaceId",
              "type": "string"
            },
            {
              "internalType": "string",
              "name": "spaceMetadata",
              "type": "string"
            },
            {
              "internalType": "string",
              "name": "channelName",
              "type": "string"
            },
            {
              "internalType": "string",
              "name": "channelId",
              "type": "string"
            }
          ],
          "internalType": "struct DataTypes.CreateSpaceData",
          "name": "_spaceData",
          "type": "tuple"
        },
        {
          "internalType": "string[]",
          "name": "_everyonePermissions",
          "type": "string[]"
        },
        {
          "components": [
            {
              "internalType": "string",
              "name": "roleName",
              "type": "string"
            },
            {
              "internalType": "string[]",
              "name": "permissions",
              "type": "string[]"
            },
            {
              "components": [
                {
                  "internalType": "address",
                  "name": "contractAddress",
                  "type": "address"
                },
                {
                  "internalType": "uint256",
                  "name": "quantity",
                  "type": "uint256"
                },
                {
                  "internalType": "bool",
                  "name": "isSingleToken",
                  "type": "bool"
                },
                {
                  "internalType": "uint256[]",
                  "name": "tokenIds",
                  "type": "uint256[]"
                }
              ],
              "internalType": "struct DataTypes.ExternalToken[]",
              "name": "tokens",
              "type": "tuple[]"
            },
            {
              "internalType": "address[]",
              "name": "users",
              "type": "address[]"
            }
          ],
          "internalType": "struct DataTypes.CreateSpaceExtraEntitlements",
          "name": "_extraEntitlements",
          "type": "tuple"
        }
      ],
      "name": "createSpace",
      "outputs": [
        {
          "internalType": "address",
          "name": "_spaceAddress",
          "type": "address"
        }
      ],
      "stateMutability": "nonpayable",
      "type": "function"
    },
    {
      "inputs": [],
      "name": "gatingEnabled",
      "outputs": [
        {
          "internalType": "bool",
          "name": "",
          "type": "bool"
        }
      ],
      "stateMutability": "view",
      "type": "function"
    },
    {
      "inputs": [],
      "name": "getOwnerPermissions",
      "outputs": [
        {
          "internalType": "string[]",
          "name": "",
          "type": "string[]"
        }
      ],
      "stateMutability": "view",
      "type": "function"
    },
    {
      "inputs": [
        {
          "internalType": "string",
          "name": "spaceId",
          "type": "string"
        }
      ],
      "name": "getSpaceAddressByNetworkId",
      "outputs": [
        {
          "internalType": "address",
          "name": "",
          "type": "address"
        }
      ],
      "stateMutability": "view",
      "type": "function"
    },
    {
      "inputs": [
        {
          "internalType": "string",
          "name": "spaceId",
          "type": "string"
        }
      ],
      "name": "getTokenIdByNetworkId",
      "outputs": [
        {
          "internalType": "uint256",
          "name": "",
          "type": "uint256"
        }
      ],
      "stateMutability": "view",
      "type": "function"
    },
    {
      "inputs": [
        {
          "internalType": "address",
          "name": "_space",
          "type": "address"
        },
        {
          "internalType": "address",
          "name": "_tokenEntitlement",
          "type": "address"
        },
        {
          "internalType": "address",
          "name": "_userEntitlement",
          "type": "address"
        },
        {
          "internalType": "address",
          "name": "_spaceToken",
          "type": "address"
        },
        {
          "internalType": "address",
          "name": "_gateToken",
          "type": "address"
        },
        {
          "internalType": "string[]",
          "name": "_permissions",
          "type": "string[]"
        }
      ],
      "name": "initialize",
      "outputs": [],
      "stateMutability": "nonpayable",
      "type": "function"
    },
    {
      "inputs": [
        {
          "internalType": "address",
          "name": "",
          "type": "address"
        },
        {
          "internalType": "address",
          "name": "",
          "type": "address"
        },
        {
          "internalType": "uint256",
          "name": "",
          "type": "uint256"
        },
        {
          "internalType": "bytes",
          "name": "",
          "type": "bytes"
        }
      ],
      "name": "onERC721Received",
      "outputs": [
        {
          "internalType": "bytes4",
          "name": "",
          "type": "bytes4"
        }
      ],
      "stateMutability": "nonpayable",
      "type": "function"
    },
    {
      "inputs": [],
      "name": "owner",
      "outputs": [
        {
          "internalType": "address",
          "name": "",
          "type": "address"
        }
      ],
      "stateMutability": "view",
      "type": "function"
    },
    {
      "inputs": [
        {
          "internalType": "uint256",
          "name": "",
          "type": "uint256"
        }
      ],
      "name": "ownerPermissions",
      "outputs": [
        {
          "internalType": "string",
          "name": "",
          "type": "string"
        }
      ],
      "stateMutability": "view",
      "type": "function"
    },
    {
      "inputs": [],
      "name": "paused",
      "outputs": [
        {
          "internalType": "bool",
          "name": "",
          "type": "bool"
        }
      ],
      "stateMutability": "view",
      "type": "function"
    },
    {
      "inputs": [],
      "name": "proxiableUUID",
      "outputs": [
        {
          "internalType": "bytes32",
          "name": "",
          "type": "bytes32"
        }
      ],
      "stateMutability": "view",
      "type": "function"
    },
    {
      "inputs": [],
      "name": "renounceOwnership",
      "outputs": [],
      "stateMutability": "nonpayable",
      "type": "function"
    },
    {
      "inputs": [
        {
          "internalType": "bool",
          "name": "_gatingEnabled",
          "type": "bool"
        }
      ],
      "name": "setGatingEnabled",
      "outputs": [],
      "stateMutability": "nonpayable",
      "type": "function"
    },
    {
      "inputs": [
        {
          "internalType": "bool",
          "name": "_paused",
          "type": "bool"
        }
      ],
      "name": "setPaused",
      "outputs": [],
      "stateMutability": "nonpayable",
      "type": "function"
    },
    {
      "inputs": [
        {
          "internalType": "address",
          "name": "_spaceToken",
          "type": "address"
        }
      ],
      "name": "setSpaceToken",
      "outputs": [],
      "stateMutability": "nonpayable",
      "type": "function"
    },
    {
      "inputs": [
        {
          "internalType": "bytes32",
          "name": "",
          "type": "bytes32"
        }
      ],
      "name": "spaceByHash",
      "outputs": [
        {
          "internalType": "address",
          "name": "",
          "type": "address"
        }
      ],
      "stateMutability": "view",
      "type": "function"
    },
    {
      "inputs": [
        {
          "internalType": "bytes32",
          "name": "",
          "type": "bytes32"
        }
      ],
      "name": "tokenByHash",
      "outputs": [
        {
          "internalType": "uint256",
          "name": "",
          "type": "uint256"
        }
      ],
      "stateMutability": "view",
      "type": "function"
    },
    {
      "inputs": [
        {
          "internalType": "address",
          "name": "newOwner",
          "type": "address"
        }
      ],
      "name": "transferOwnership",
      "outputs": [],
      "stateMutability": "nonpayable",
      "type": "function"
    },
    {
      "inputs": [
        {
          "internalType": "address",
          "name": "_space",
          "type": "address"
        },
        {
          "internalType": "address",
          "name": "_tokenEntitlement",
          "type": "address"
        },
        {
          "internalType": "address",
          "name": "_userEntitlement",
          "type": "address"
        },
        {
          "internalType": "address",
          "name": "_gateToken",
          "type": "address"
        }
      ],
      "name": "updateImplementations",
      "outputs": [],
      "stateMutability": "nonpayable",
      "type": "function"
    },
    {
      "inputs": [
        {
          "internalType": "address",
          "name": "newImplementation",
          "type": "address"
        }
      ],
      "name": "upgradeTo",
      "outputs": [],
      "stateMutability": "nonpayable",
      "type": "function"
    },
    {
      "inputs": [
        {
          "internalType": "address",
          "name": "newImplementation",
          "type": "address"
        },
        {
          "internalType": "bytes",
          "name": "data",
          "type": "bytes"
        }
      ],
      "name": "upgradeToAndCall",
      "outputs": [],
      "stateMutability": "payable",
      "type": "function"
    }
  ],
  "bytecode": {
    "object": "0x60a0604052306080523480156200001557600080fd5b506200002062000026565b620000e8565b600054610100900460ff1615620000935760405162461bcd60e51b815260206004820152602760248201527f496e697469616c697a61626c653a20636f6e747261637420697320696e697469604482015266616c697a696e6760c81b606482015260840160405180910390fd5b60005460ff9081161015620000e6576000805460ff191660ff9081179091556040519081527f7f26b83ff96e1f2b6a682f133852f6798a09c465da95921460cefb38474024989060200160405180910390a15b565b608051613e976200012060003960008181610d1901528181610d6501528181610e3d01528181610e800152610f1c0152613e976000f3fe608060405260043610620001be5760003560e01c80638a9ef42611620000ff578063cfc270371162000095578063f21cd401116200006c578063f21cd4011462000550578063f2fde38b1462000573578063f3aba3051462000598578063f6ac70b714620005ca57600080fd5b8063cfc2703714620004e3578063df2cd9fe1462000506578063ed267116146200052d57600080fd5b80639ad622b711620000d65780639ad622b71462000441578063b28032f91462000466578063be8b5967146200049a578063c45f396b14620004bf57600080fd5b80638a9ef42614620003d75780638da5cb5b14620003fc57806396dc21e4146200041c57600080fd5b80634689cd0411620001755780635c975abb116200014c5780635c975abb1462000351578063683c72b614620003775780636e9ea7ca146200039a578063715018a614620003bf57600080fd5b80634689cd0414620002ee5780634f1ef286146200031357806352d1902d146200032a57600080fd5b806308bc0b4b14620001c3578063150b7a02146200020357806316c38b3c1462000242578063224868ad14620002695780633312540a146200028e5780633659cfe614620002c9575b600080fd5b348015620001d057600080fd5b5061016154620001e6906001600160a01b031681565b6040516001600160a01b0390911681526020015b60405180910390f35b3480156200021057600080fd5b5062000228620002223660046200291c565b620005ef565b6040516001600160e01b03199091168152602001620001fa565b3480156200024f57600080fd5b5062000267620002613660046200299c565b62000600565b005b3480156200027657600080fd5b50620001e66200028836600462002a08565b62000628565b3480156200029b57600080fd5b50620001e6620002ad36600462002aaa565b610165602052600090815260409020546001600160a01b031681565b348015620002d657600080fd5b5062000267620002e836600462002ac4565b62000d0f565b348015620002fb57600080fd5b50620002676200030d3660046200299c565b62000e00565b620002676200032436600462002ae2565b62000e33565b3480156200033757600080fd5b506200034262000f0f565b604051908152602001620001fa565b3480156200035e57600080fd5b5060655460ff165b6040519015158152602001620001fa565b3480156200038457600080fd5b5061016254620001e6906001600160a01b031681565b348015620003a757600080fd5b5062000267620003b936600462002c00565b62000fc5565b348015620003cc57600080fd5b5062000267620011d8565b348015620003e457600080fd5b5062000342620003f636600462002c9c565b620011f0565b3480156200040957600080fd5b506033546001600160a01b0316620001e6565b3480156200042957600080fd5b50620001e66200043b36600462002c9c565b62001225565b3480156200044e57600080fd5b50620002676200046036600462002d12565b62001263565b3480156200047357600080fd5b506200048b6200048536600462002aaa565b62001331565b604051620001fa919062002dc3565b348015620004a757600080fd5b5062000267620004b936600462002dd8565b620013e7565b348015620004cc57600080fd5b50610163546200036690600160a01b900460ff1681565b348015620004f057600080fd5b5061016054620001e6906001600160a01b031681565b3480156200051357600080fd5b506200051e620015d0565b604051620001fa919062002e79565b3480156200053a57600080fd5b5061016354620001e6906001600160a01b031681565b3480156200055d57600080fd5b5061015f54620001e6906001600160a01b031681565b3480156200058057600080fd5b50620002676200059236600462002ac4565b620016b4565b348015620005a557600080fd5b5062000342620005b736600462002aaa565b6101666020526000908152604090205481565b348015620005d757600080fd5b5062000267620005e936600462002ac4565b62001730565b630a85bd0160e11b5b949350505050565b6200060a62001767565b80156200061e576200061b620017c3565b50565b6200061b62001820565b6000620006346200185c565b6200063e620018b7565b62000648620018ff565b6200069362000658868062002e8e565b8080601f016020809104026020016040519081016040528093929190818152602001838380828437600092019190915250620019b492505050565b620006a2602086018662002e8e565b9050600003620006c557604051630e52390960e41b815260040160405180910390fd5b6000620006d6602087018762002e8e565b604051620006e692919062002ed7565b6040805191829003909120600081815261016560205291909120549091506001600160a01b0316156200072c57604051633881599b60e11b815260040160405180910390fd5b6101625460408051631d5e528f60e21b815290516000926001600160a01b0316916375794a3c9160048083019260209291908290030181865afa15801562000778573d6000803e3d6000fd5b505050506040513d601f19601f820116820180604052508101906200079e919062002ee7565b610162549091506001600160a01b03166275a31730620007c260408b018b62002e8e565b6040518463ffffffff1660e01b8152600401620007e29392919062002f2a565b600060405180830381600087803b158015620007fd57600080fd5b505af115801562000812573d6000803e3d6000fd5b50505060008381526101666020526040808220849055610160546101625491516001600160a01b03928316602482015260448101869052929350169060640160408051601f198184030181529181526020820180516001600160e01b031663cd6dc68760e01b17905251620008879062002807565b6200089492919062002f51565b604051809103906000f080158015620008b1573d6000803e3d6000fd5b5061016154610162546040516001600160a01b0391821660248201526044810186905292935060009291169060640160408051601f198184030181529181526020820180516001600160e01b031663cd6dc68760e01b17905251620009169062002807565b6200092392919062002f51565b604051809103906000f08015801562000940573d6000803e3d6000fd5b50604080516002808252606082018352929350600092909160208301908036833701905050905082816000815181106200097e576200097e62002f77565b60200260200101906001600160a01b031690816001600160a01b0316815250508181600181518110620009b557620009b562002f77565b6001600160a01b03928316602091820292909201015261015f5416620009dc8b8062002e8e565b620009eb60208e018e62002e8e565b6101625460405162000a1295949392916001600160a01b0316908b90899060240162002fd3565b60408051601f198184030181529181526020820180516001600160e01b03166308af35d960e21b1790525162000a489062002807565b62000a5592919062002f51565b604051809103906000f08015801562000a72573d6000803e3d6000fd5b5060008681526101656020526040812080546001600160a01b0319166001600160a01b0384161790559096505b815181101562000b3c5781818151811062000abe5762000abe62002f77565b602090810291909101015160405162ed014d60e21b81526001600160a01b038981166004830152909116906303b4053490602401600060405180830381600087803b15801562000b0d57600080fd5b505af115801562000b22573d6000803e3d6000fd5b50505050808062000b339062003038565b91505062000a9f565b5062000c248662000b4f888688620019e7565b62000b6a89868e8e9062000b64919062003060565b62001c72565b62000b828a888862000b7c8f62003237565b62001e14565b8e806060019062000b94919062002e8e565b8080601f016020809104026020016040519081016040528093929190818152602001838380828437600081840152601f19601f820116905080830192505050505050508f806080019062000be9919062002e8e565b8080601f016020809104026020016040519081016040528093929190818152602001838380828437600092019190915250620020b692505050565b610162546001600160a01b03166342842e0e30336040516001600160e01b031960e085901b1681526001600160a01b0392831660048201529116602482015260448101879052606401600060405180830381600087803b15801562000c8857600080fd5b505af115801562000c9d573d6000803e3d6000fd5b5050505062000ca93390565b6001600160a01b039081169087167f78d7e431fd0a46d11f5c8889cf2db64699be1f95ccb8b1419211c83bcdbce58062000ce760208e018e62002e8e565b60405162000cf7929190620032fc565b60405180910390a35050505050620005f86001609755565b6001600160a01b037f000000000000000000000000000000000000000000000000000000000000000016300362000d635760405162461bcd60e51b815260040162000d5a9062003312565b60405180910390fd5b7f00000000000000000000000000000000000000000000000000000000000000006001600160a01b031662000dae60008051602062003e1b833981519152546001600160a01b031690565b6001600160a01b03161462000dd75760405162461bcd60e51b815260040162000d5a906200335e565b62000de281620021d6565b604080516000808252602082019092526200061b91839190620021e0565b62000e0a62001767565b62000e1462002358565b6101638054911515600160a01b0260ff60a01b19909216919091179055565b6001600160a01b037f000000000000000000000000000000000000000000000000000000000000000016300362000e7e5760405162461bcd60e51b815260040162000d5a9062003312565b7f00000000000000000000000000000000000000000000000000000000000000006001600160a01b031662000ec960008051602062003e1b833981519152546001600160a01b031690565b6001600160a01b03161462000ef25760405162461bcd60e51b815260040162000d5a906200335e565b62000efd82620021d6565b62000f0b82826001620021e0565b5050565b6000306001600160a01b037f0000000000000000000000000000000000000000000000000000000000000000161462000fb15760405162461bcd60e51b815260206004820152603860248201527f555550535570677261646561626c653a206d757374206e6f742062652063616c60448201527f6c6564207468726f7567682064656c656761746563616c6c0000000000000000606482015260840162000d5a565b5060008051602062003e1b83398151915290565b600054610100900460ff161580801562000fe65750600054600160ff909116105b80620010025750303b15801562001002575060005460ff166001145b620010675760405162461bcd60e51b815260206004820152602e60248201527f496e697469616c697a61626c653a20636f6e747261637420697320616c72656160448201526d191e481a5b9a5d1a585b1a5e995960921b606482015260840162000d5a565b6000805460ff1916600117905580156200108b576000805461ff0019166101001790555b62001095620023a3565b6200109f620023cd565b620010a962002401565b620010b362002435565b620010bd620023a3565b61015f80546001600160a01b03808a166001600160a01b031992831617909255610160805489841690831617905561016180548884169083161790556101628054878416921691909117905561016380546001600160a81b03191691851691909117905560005b8251811015620011875761016483828151811062001146576200114662002f77565b6020908102919091018101518254600181018455600093845291909220019062001171908262003438565b50806200117e8162003038565b91505062001124565b508015620011cf576000805461ff0019169055604051600181527f7f26b83ff96e1f2b6a682f133852f6798a09c465da95921460cefb38474024989060200160405180910390a15b50505050505050565b620011e262001767565b620011ee600062002469565b565b60008083836040516200120592919062002ed7565b604080519182900390912060009081526101666020522054949350505050565b60008083836040516200123a92919062002ed7565b6040805191829003909120600090815261016560205220546001600160a01b0316949350505050565b6200126d62001767565b6200127762002358565b6001600160a01b03841615620012a45761015f80546001600160a01b0319166001600160a01b0386161790555b6001600160a01b03831615620012d15761016080546001600160a01b0319166001600160a01b0385161790555b6001600160a01b03821615620012fe5761016180546001600160a01b0319166001600160a01b0384161790555b6001600160a01b038116156200132b5761016380546001600160a01b0319166001600160a01b0383161790555b50505050565b61016481815481106200134357600080fd5b9060005260206000200160009150905080546200136090620033aa565b80601f01602080910402602001604051908101604052809291908181526020018280546200138e90620033aa565b8015620013df5780601f10620013b357610100808354040283529160200191620013df565b820191906000526020600020905b815481529060010190602001808311620013c157829003601f168201915b505050505081565b620013f162001767565b620013fb62002358565b60005b81811015620015cb5760005b610164548110156200156657620015328484848181106200142f576200142f62002f77565b905060200281019062001443919062002e8e565b8080601f016020809104026020016040519081016040528093929190818152602001838380828437600092019190915250506101648054909250859150811062001491576200149162002f77565b906000526020600020018054620014a890620033aa565b80601f0160208091040260200160405190810160405280929190818152602001828054620014d690620033aa565b8015620015275780601f10620014fb5761010080835404028352916020019162001527565b820191906000526020600020905b8154815290600101906020018083116200150957829003601f168201915b5050505050620024bb565b156200155157604051636571d65f60e01b815260040160405180910390fd5b806200155d8162003038565b9150506200140a565b506101648383838181106200157f576200157f62002f77565b905060200281019062001593919062002e8e565b82546001810184556000938452602090932090920191620015b5918362003504565b5080620015c28162003038565b915050620013fe565b505050565b6060610164805480602002602001604051908101604052809291908181526020016000905b82821015620016ab5783829060005260206000200180546200161790620033aa565b80601f01602080910402602001604051908101604052809291908181526020018280546200164590620033aa565b8015620016965780601f106200166a5761010080835404028352916020019162001696565b820191906000526020600020905b8154815290600101906020018083116200167857829003601f168201915b505050505081526020019060010190620015f5565b50505050905090565b620016be62001767565b6001600160a01b038116620017255760405162461bcd60e51b815260206004820152602660248201527f4f776e61626c653a206e6577206f776e657220697320746865207a65726f206160448201526564647265737360d01b606482015260840162000d5a565b6200061b8162002469565b6200173a62001767565b6200174462002358565b61016280546001600160a01b0319166001600160a01b0392909216919091179055565b6033546001600160a01b03163314620011ee5760405162461bcd60e51b815260206004820181905260248201527f4f776e61626c653a2063616c6c6572206973206e6f7420746865206f776e6572604482015260640162000d5a565b620017cd620018b7565b6065805460ff191660011790557f62e78cea01bee320cd4e420270b5ea74000d11b0c9f74754ebdbfc544b05a258620018033390565b6040516001600160a01b03909116815260200160405180910390a1565b6200182a62002358565b6065805460ff191690557f5db9ee0a495bf2e6ff9c91a7834c1ba4fdd244a5e8aa4e537bd38aeae4b073aa3362001803565b600260975403620018b05760405162461bcd60e51b815260206004820152601f60248201527f5265656e7472616e637947756172643a207265656e7472616e742063616c6c00604482015260640162000d5a565b6002609755565b60655460ff1615620011ee5760405162461bcd60e51b815260206004820152601060248201526f14185d5cd8589b194e881c185d5cd95960821b604482015260640162000d5a565b61016354600160a01b900460ff168015620019955750610163546001600160a01b03166370a08231336040516001600160e01b031960e084901b1681526001600160a01b039091166004820152602401602060405180830381865afa1580156200196d573d6000803e3d6000fd5b505050506040513d601f19601f8201168201806040525081019062001993919062002ee7565b155b15620011ee57604051631eb49d6d60e11b815260040160405180910390fd5b8051819060021180620019c8575080516020105b1562000f0b5760405163354b556f60e11b815260040160405180910390fd5b604080516001808252818301909252600091829190816020015b604080516080810182526000808252602080830182905292820152606080820152825260001990920191018162001a015750506040805160018082528183019092529192506000919060208083019080368337019050509050838160008151811062001a715762001a7162002f77565b60209081029190910181019190915260408051608081018252610162546001600160a01b03168152600192810183905290810191909152606081018290528251839060009062001ac55762001ac562002f77565b6020908102919091010152604080516001808252818301909252600091816020015b60408051808201909152600081526060602082015281526020019060019003908162001ae75790505090506040518060400160405280876001600160a01b031681526020018460405160200162001b3f919062003603565b6040516020818303038152906040528152508160008151811062001b675762001b6762002f77565b6020026020010181905250866001600160a01b0316638fcd793d6040518060400160405280600581526020016427bbb732b960d91b815250610164846040518463ffffffff1660e01b815260040162001bc3939291906200371f565b6020604051808303816000875af115801562001be3573d6000803e3d6000fd5b505050506040513d601f19601f8201168201806040525081019062001c09919062002ee7565b6040516324ccd58b60e11b8152600481018290529094506001600160a01b03881690634999ab1690602401600060405180830381600087803b15801562001c4f57600080fd5b505af115801562001c64573d6000803e3d6000fd5b505050505050509392505050565b604080516001808252818301909252600091829190816020015b60408051808201909152600081526060602082015281526020019060019003908162001c8c575050604080516001808252818301909252919250600091906020808301908036833701905050905060018160008151811062001cf25762001cf262002f77565b60200260200101906001600160a01b031690816001600160a01b0316815250506040518060400160405280866001600160a01b031681526020018260405160200162001d3f919062003822565b6040516020818303038152906040528152508260008151811062001d675762001d6762002f77565b6020026020010181905250856001600160a01b0316638fcd793d6040518060400160405280600881526020016745766572796f6e6560c01b81525086856040518463ffffffff1660e01b815260040162001dc49392919062003837565b6020604051808303816000875af115801562001de4573d6000803e3d6000fd5b505050506040513d601f19601f8201168201806040525081019062001e0a919062002ee7565b9695505050505050565b600081602001515160000362001e2d57506000620005f8565b604080516001808252818301909252600091816020015b60408051808201909152600081526060602082015281526020019060019003908162001e44579050509050604051806040016040528060006001600160a01b03168152602001604051806020016040528060008152508152508160008151811062001eb35762001eb362002f77565b602090810291909101810191909152835190840151604051638fcd793d60e01b81526001600160a01b03891692638fcd793d9262001ef692869060040162003837565b6020604051808303816000875af115801562001f16573d6000803e3d6000fd5b505050506040513d601f19601f8201168201806040525081019062001f3c919062002ee7565b6060840151519092501562001ff257856001600160a01b031663ba201ba8836040518060400160405280886001600160a01b03168152602001876060015160405160200162001f8c919062003822565b6040516020818303038152906040528152506040518363ffffffff1660e01b815260040162001fbd92919062003876565b600060405180830381600087803b15801562001fd857600080fd5b505af115801562001fed573d6000803e3d6000fd5b505050505b826040015151600003620020075750620005f8565b856001600160a01b031663ba201ba8836040518060400160405280896001600160a01b03168152602001876040015160405160200162002048919062003603565b6040516020818303038152906040528152506040518363ffffffff1660e01b81526004016200207992919062003876565b600060405180830381600087803b1580156200209457600080fd5b505af1158015620020a9573d6000803e3d6000fd5b5050505050949350505050565b6040805160028082526060820183526000926020830190803683370190505090508581600081518110620020ee57620020ee62002f77565b602090810291909101015283156200212957838160018151811062002117576200211762002f77565b6020026020010181815250506200214d565b848160018151811062002140576200214062002f77565b6020026020010181815250505b6040516328fc1e7560e11b81526001600160a01b038816906351f83cea906200217f9086908690869060040162003891565b6020604051808303816000875af11580156200219f573d6000803e3d6000fd5b505050506040513d601f19601f82011682018060405250810190620021c5919062002ee7565b5050505050505050565b6001609755565b6200061b62001767565b7f4910fdfa16fed3260ed0e7147f7cc6da11a60208b5b9406d12a635614ffd91435460ff16156200221657620015cb8362002518565b826001600160a01b03166352d1902d6040518163ffffffff1660e01b8152600401602060405180830381865afa92505050801562002273575060408051601f3d908101601f19168201909252620022709181019062002ee7565b60015b620022d85760405162461bcd60e51b815260206004820152602e60248201527f45524331393637557067726164653a206e657720696d706c656d656e7461746960448201526d6f6e206973206e6f74205555505360901b606482015260840162000d5a565b60008051602062003e1b83398151915281146200234a5760405162461bcd60e51b815260206004820152602960248201527f45524331393637557067726164653a20756e737570706f727465642070726f786044820152681a58589b195555525160ba1b606482015260840162000d5a565b50620015cb838383620025b7565b60655460ff16620011ee5760405162461bcd60e51b815260206004820152601460248201527314185d5cd8589b194e881b9bdd081c185d5cd95960621b604482015260640162000d5a565b600054610100900460ff16620011ee5760405162461bcd60e51b815260040162000d5a90620038d0565b600054610100900460ff16620023f75760405162461bcd60e51b815260040162000d5a90620038d0565b620011ee620025e2565b600054610100900460ff166200242b5760405162461bcd60e51b815260040162000d5a90620038d0565b620011ee62002617565b600054610100900460ff166200245f5760405162461bcd60e51b815260040162000d5a90620038d0565b620011ee6200264d565b603380546001600160a01b038381166001600160a01b0319831681179093556040519116919082907f8be0079c531659141344cd1fd0a4f28419497f9722a3daafe3b4186f6b6457e090600090a35050565b600081604051602001620024d0919062002dc3565b6040516020818303038152906040528051906020012083604051602001620024f9919062002dc3565b6040516020818303038152906040528051906020012014905092915050565b6001600160a01b0381163b620025875760405162461bcd60e51b815260206004820152602d60248201527f455243313936373a206e657720696d706c656d656e746174696f6e206973206e60448201526c1bdd08184818dbdb9d1c9858dd609a1b606482015260840162000d5a565b60008051602062003e1b83398151915280546001600160a01b0319166001600160a01b0392909216919091179055565b620025c28362002677565b600082511180620025d05750805b15620015cb576200132b8383620026b9565b600054610100900460ff166200260c5760405162461bcd60e51b815260040162000d5a90620038d0565b620011ee3362002469565b600054610100900460ff16620026415760405162461bcd60e51b815260040162000d5a90620038d0565b6065805460ff19169055565b600054610100900460ff16620021cf5760405162461bcd60e51b815260040162000d5a90620038d0565b620026828162002518565b6040516001600160a01b038216907fbc7cd75a20ee27fd9adebab32041f755214dbc6bffa90cc0225b39da2e5c2d3b90600090a250565b60606001600160a01b0383163b620027235760405162461bcd60e51b815260206004820152602660248201527f416464726573733a2064656c65676174652063616c6c20746f206e6f6e2d636f6044820152651b9d1c9858dd60d21b606482015260840162000d5a565b600080846001600160a01b0316846040516200274091906200391b565b600060405180830381855af49150503d80600081146200277d576040519150601f19603f3d011682016040523d82523d6000602084013e62002782565b606091505b5091509150620027ad828260405180606001604052806027815260200162003e3b60279139620027b6565b95945050505050565b60608315620027c7575081620027d3565b620027d38383620027da565b9392505050565b815115620027eb5781518083602001fd5b8060405162461bcd60e51b815260040162000d5a919062002dc3565b6104e1806200393a83390190565b80356001600160a01b03811681146200282d57600080fd5b919050565b634e487b7160e01b600052604160045260246000fd5b604051608081016001600160401b03811182821017156200286d576200286d62002832565b60405290565b604051601f8201601f191681016001600160401b03811182821017156200289e576200289e62002832565b604052919050565b600082601f830112620028b857600080fd5b81356001600160401b03811115620028d457620028d462002832565b620028e9601f8201601f191660200162002873565b818152846020838601011115620028ff57600080fd5b816020850160208301376000918101602001919091529392505050565b600080600080608085870312156200293357600080fd5b6200293e8562002815565b93506200294e6020860162002815565b92506040850135915060608501356001600160401b038111156200297157600080fd5b6200297f87828801620028a6565b91505092959194509250565b803580151581146200282d57600080fd5b600060208284031215620029af57600080fd5b620027d3826200298b565b60008083601f840112620029cd57600080fd5b5081356001600160401b03811115620029e557600080fd5b6020830191508360208260051b850101111562002a0157600080fd5b9250929050565b6000806000806060858703121562002a1f57600080fd5b84356001600160401b038082111562002a3757600080fd5b9086019060a0828903121562002a4c57600080fd5b9094506020860135908082111562002a6357600080fd5b62002a7188838901620029ba565b9095509350604087013591508082111562002a8b57600080fd5b5085016080818803121562002a9f57600080fd5b939692955090935050565b60006020828403121562002abd57600080fd5b5035919050565b60006020828403121562002ad757600080fd5b620027d38262002815565b6000806040838503121562002af657600080fd5b62002b018362002815565b915060208301356001600160401b0381111562002b1d57600080fd5b62002b2b85828601620028a6565b9150509250929050565b60006001600160401b0382111562002b515762002b5162002832565b5060051b60200190565b600062002b7262002b6c8462002b35565b62002873565b8381529050602080820190600585901b84018681111562002b9257600080fd5b845b8181101562002bd25780356001600160401b0381111562002bb55760008081fd5b62002bc389828901620028a6565b85525092820192820162002b94565b505050509392505050565b600082601f83011262002bef57600080fd5b620027d38383356020850162002b5b565b60008060008060008060c0878903121562002c1a57600080fd5b62002c258762002815565b955062002c356020880162002815565b945062002c456040880162002815565b935062002c556060880162002815565b925062002c656080880162002815565b915060a08701356001600160401b0381111562002c8157600080fd5b62002c8f89828a0162002bdd565b9150509295509295509295565b6000806020838503121562002cb057600080fd5b82356001600160401b038082111562002cc857600080fd5b818501915085601f83011262002cdd57600080fd5b81358181111562002ced57600080fd5b86602082850101111562002d0057600080fd5b60209290920196919550909350505050565b6000806000806080858703121562002d2957600080fd5b62002d348562002815565b935062002d446020860162002815565b925062002d546040860162002815565b915062002d646060860162002815565b905092959194509250565b60005b8381101562002d8c57818101518382015260200162002d72565b50506000910152565b6000815180845262002daf81602086016020860162002d6f565b601f01601f19169290920160200192915050565b602081526000620027d3602083018462002d95565b6000806020838503121562002dec57600080fd5b82356001600160401b0381111562002e0357600080fd5b62002e1185828601620029ba565b90969095509350505050565b600082825180855260208086019550808260051b84010181860160005b8481101562002e6c57601f1986840301895262002e5983835162002d95565b9884019892509083019060010162002e3a565b5090979650505050505050565b602081526000620027d3602083018462002e1d565b6000808335601e1984360301811262002ea657600080fd5b8301803591506001600160401b0382111562002ec157600080fd5b60200191503681900382131562002a0157600080fd5b8183823760009101908152919050565b60006020828403121562002efa57600080fd5b5051919050565b81835281816020850137506000828201602090810191909152601f909101601f19169091010190565b6001600160a01b0384168152604060208201819052600090620027ad908301848662002f01565b6001600160a01b0383168152604060208201819052600090620005f89083018462002d95565b634e487b7160e01b600052603260045260246000fd5b600081518084526020808501945080840160005b8381101562002fc85781516001600160a01b03168752958201959082019060010162002fa1565b509495945050505050565b60a08152600062002fe960a08301898b62002f01565b828103602084015262002ffe81888a62002f01565b6001600160a01b038716604085015260608401869052838103608085015290506200302a818562002f8d565b9a9950505050505050505050565b6000600182016200305957634e487b7160e01b600052601160045260246000fd5b5060010190565b6000620027d336848462002b5b565b600082601f8301126200308157600080fd5b813560206200309462002b6c8362002b35565b828152600592831b8501820192828201919087851115620030b457600080fd5b8387015b8581101562002e6c5780356001600160401b0380821115620030da5760008081fd5b908901906080828c03601f1901811315620030f55760008081fd5b620030ff62002848565b6200310c89850162002815565b81526040808501358a8301526060620031278187016200298b565b838301529285013592848411156200313f5760008081fd5b83860195508e603f8701126200315757600094508485fd5b8a86013594506200316c62002b6c8662002b35565b85815294881b86018201948b810194508f8611156200318b5760008081fd5b958201955b85871015620031ab5786358552958b0195938b019362003190565b90830152508752505050928401928401620030b8565b600082601f830112620031d357600080fd5b81356020620031e662002b6c8362002b35565b82815260059290921b840181019181810190868411156200320657600080fd5b8286015b848110156200322c576200321e8162002815565b83529183019183016200320a565b509695505050505050565b6000608082360312156200324a57600080fd5b6200325462002848565b82356001600160401b03808211156200326c57600080fd5b6200327a36838701620028a6565b835260208501359150808211156200329157600080fd5b6200329f3683870162002bdd565b60208401526040850135915080821115620032b957600080fd5b620032c7368387016200306f565b60408401526060850135915080821115620032e157600080fd5b50620032f036828601620031c1565b60608301525092915050565b602081526000620005f860208301848662002f01565b6020808252602c908201527f46756e6374696f6e206d7573742062652063616c6c6564207468726f7567682060408201526b19195b1959d85d1958d85b1b60a21b606082015260800190565b6020808252602c908201527f46756e6374696f6e206d7573742062652063616c6c6564207468726f7567682060408201526b6163746976652070726f787960a01b606082015260800190565b600181811c90821680620033bf57607f821691505b602082108103620033e057634e487b7160e01b600052602260045260246000fd5b50919050565b601f821115620015cb57600081815260208120601f850160051c810160208610156200340f5750805b601f850160051c820191505b8181101562003430578281556001016200341b565b505050505050565b81516001600160401b0381111562003454576200345462002832565b6200346c81620034658454620033aa565b84620033e6565b602080601f831160018114620034a457600084156200348b5750858301515b600019600386901b1c1916600185901b17855562003430565b600085815260208120601f198616915b82811015620034d557888601518255948401946001909101908401620034b4565b5085821015620034f45787850151600019600388901b60f8161c191681555b5050505050600190811b01905550565b6001600160401b038311156200351e576200351e62002832565b62003536836200352f8354620033aa565b83620033e6565b6000601f8411600181146200356d5760008515620035545750838201355b600019600387901b1c1916600186901b178355620035ca565b600083815260209020601f19861690835b82811015620035a057868501358255602094850194600190920191016200357e565b5086821015620035be5760001960f88860031b161c19848701351681555b505060018560011b0183555b5050505050565b600081518084526020808501945080840160005b8381101562002fc857815187529582019590820190600101620035e5565b60006020808301818452808551808352604092508286019150828160051b87010184880160005b838110156200368f57888303603f19018552815180516001600160a01b031684528781015188850152868101511515878501526060908101516080918501829052906200367a81860183620035d1565b9689019694505050908601906001016200362a565b509098975050505050505050565b60018060a01b0381511682526000602082015160406020850152620005f8604085018262002d95565b600081518084526020808501808196508360051b8101915082860160005b8581101562003712578284038952620036ff8483516200369d565b98850198935090840190600101620036e4565b5091979650505050505050565b60608152600062003734606083018662002d95565b602083820381850152818654808452828401915060058382821b86010160008a8152858120815b85811015620037fc57601f198985030187528282546200377b81620033aa565b80875260018281168015620037995760018114620037b357620037e4565b60ff198416898e01528215158a1b89018d019450620037e4565b8688528c8820885b84811015620037dc5781548f828d01015283820191508e81019050620037bb565b8a018e019550505b50998b0199929650505091909101906001016200375b565b505050878103604089015262003813818a620036c6565b9b9a5050505050505050505050565b602081526000620027d3602083018462002f8d565b6060815260006200384c606083018662002d95565b828103602084015262003860818662002e1d565b9050828103604084015262001e0a8185620036c6565b828152604060208201526000620005f860408301846200369d565b606081526000620038a6606083018662002d95565b8281036020840152620038ba818662002d95565b9050828103604084015262001e0a8185620035d1565b6020808252602b908201527f496e697469616c697a61626c653a20636f6e7472616374206973206e6f74206960408201526a6e697469616c697a696e6760a81b606082015260800190565b600082516200392f81846020870162002d6f565b919091019291505056fe60806040526040516104e13803806104e1833981016040819052610022916102de565b61002e82826000610035565b50506103fb565b61003e83610061565b60008251118061004b5750805b1561005c5761005a83836100a1565b505b505050565b61006a816100cd565b6040516001600160a01b038216907fbc7cd75a20ee27fd9adebab32041f755214dbc6bffa90cc0225b39da2e5c2d3b90600090a250565b60606100c683836040518060600160405280602781526020016104ba60279139610180565b9392505050565b6001600160a01b0381163b61013f5760405162461bcd60e51b815260206004820152602d60248201527f455243313936373a206e657720696d706c656d656e746174696f6e206973206e60448201526c1bdd08184818dbdb9d1c9858dd609a1b60648201526084015b60405180910390fd5b7f360894a13ba1a3210667c828492db98dca3e2076cc3735a920a3ca505d382bbc80546001600160a01b0319166001600160a01b0392909216919091179055565b6060600080856001600160a01b03168560405161019d91906103ac565b600060405180830381855af49150503d80600081146101d8576040519150601f19603f3d011682016040523d82523d6000602084013e6101dd565b606091505b5090925090506101ef868383876101f9565b9695505050505050565b60608315610268578251600003610261576001600160a01b0385163b6102615760405162461bcd60e51b815260206004820152601d60248201527f416464726573733a2063616c6c20746f206e6f6e2d636f6e74726163740000006044820152606401610136565b5081610272565b610272838361027a565b949350505050565b81511561028a5781518083602001fd5b8060405162461bcd60e51b815260040161013691906103c8565b634e487b7160e01b600052604160045260246000fd5b60005b838110156102d55781810151838201526020016102bd565b50506000910152565b600080604083850312156102f157600080fd5b82516001600160a01b038116811461030857600080fd5b60208401519092506001600160401b038082111561032557600080fd5b818501915085601f83011261033957600080fd5b81518181111561034b5761034b6102a4565b604051601f8201601f19908116603f01168101908382118183101715610373576103736102a4565b8160405282815288602084870101111561038c57600080fd5b61039d8360208301602088016102ba565b80955050505050509250929050565b600082516103be8184602087016102ba565b9190910192915050565b60208152600082518060208401526103e78160408501602087016102ba565b601f01601f19169190910160400192915050565b60b1806104096000396000f3fe608060405236601057600e6013565b005b600e5b601f601b6021565b6058565b565b600060537f360894a13ba1a3210667c828492db98dca3e2076cc3735a920a3ca505d382bbc546001600160a01b031690565b905090565b3660008037600080366000845af43d6000803e8080156076573d6000f35b3d6000fdfea2646970667358221220ab8fab8ea94f9fbd07384639645e2da30570c5aee1b60be5c6a1e50d406611e064736f6c63430008130033416464726573733a206c6f772d6c6576656c2064656c65676174652063616c6c206661696c6564360894a13ba1a3210667c828492db98dca3e2076cc3735a920a3ca505d382bbc416464726573733a206c6f772d6c6576656c2064656c65676174652063616c6c206661696c6564a264697066735822122096242b51218ebb7a933bd3bb30be23305cb628fdabab1f109bb3efbcdcafde8564736f6c63430008130033",
    "linkReferences": {}
  },
  "methodIdentifiers": {
    "GATE_TOKEN_ADDRESS()": "ed267116",
    "SPACE_IMPLEMENTATION_ADDRESS()": "f21cd401",
    "SPACE_TOKEN_ADDRESS()": "683c72b6",
    "TOKEN_IMPLEMENTATION_ADDRESS()": "cfc27037",
    "USER_IMPLEMENTATION_ADDRESS()": "08bc0b4b",
    "addOwnerPermissions(string[])": "be8b5967",
    "createSpace((string,string,string,string,string),string[],(string,string[],(address,uint256,bool,uint256[])[],address[]))": "224868ad",
    "gatingEnabled()": "c45f396b",
    "getOwnerPermissions()": "df2cd9fe",
    "getSpaceAddressByNetworkId(string)": "96dc21e4",
    "getTokenIdByNetworkId(string)": "8a9ef426",
    "initialize(address,address,address,address,address,string[])": "6e9ea7ca",
    "onERC721Received(address,address,uint256,bytes)": "150b7a02",
    "owner()": "8da5cb5b",
    "ownerPermissions(uint256)": "b28032f9",
    "paused()": "5c975abb",
    "proxiableUUID()": "52d1902d",
    "renounceOwnership()": "715018a6",
    "setGatingEnabled(bool)": "4689cd04",
    "setPaused(bool)": "16c38b3c",
    "setSpaceToken(address)": "f6ac70b7",
    "spaceByHash(bytes32)": "3312540a",
    "tokenByHash(bytes32)": "f3aba305",
    "transferOwnership(address)": "f2fde38b",
    "updateImplementations(address,address,address,address)": "9ad622b7",
    "upgradeTo(address)": "3659cfe6",
    "upgradeToAndCall(address,bytes)": "4f1ef286"
  },
  "id": 123
}