{
  "abi": [
    {
      "inputs": [],
      "stateMutability": "nonpayable",
      "type": "constructor"
    },
    {
      "inputs": [],
      "name": "AddRoleFailed",
      "type": "error"
    },
    {
      "inputs": [],
      "name": "ChannelAlreadyRegistered",
      "type": "error"
    },
    {
      "inputs": [],
      "name": "ChannelDoesNotExist",
      "type": "error"
    },
    {
      "inputs": [],
      "name": "EntitlementAlreadyExists",
      "type": "error"
    },
    {
      "inputs": [],
      "name": "EntitlementAlreadyWhitelisted",
      "type": "error"
    },
    {
      "inputs": [],
      "name": "EntitlementModuleNotSupported",
      "type": "error"
    },
    {
      "inputs": [],
      "name": "EntitlementNotWhitelisted",
      "type": "error"
    },
    {
      "inputs": [],
      "name": "InvalidParameters",
      "type": "error"
    },
    {
      "inputs": [],
      "name": "MissingOwnerPermission",
      "type": "error"
    },
    {
      "inputs": [],
      "name": "NameContainsInvalidCharacters",
      "type": "error"
    },
    {
      "inputs": [],
      "name": "NameLengthInvalid",
      "type": "error"
    },
    {
      "inputs": [],
      "name": "NotAllowed",
      "type": "error"
    },
    {
      "inputs": [],
      "name": "PermissionAlreadyExists",
      "type": "error"
    },
    {
      "inputs": [],
      "name": "RoleDoesNotExist",
      "type": "error"
    },
    {
      "inputs": [],
      "name": "RoleIsAssignedToEntitlement",
      "type": "error"
    },
    {
      "anonymous": false,
      "inputs": [
        {
          "indexed": false,
          "internalType": "address",
          "name": "previousAdmin",
          "type": "address"
        },
        {
          "indexed": false,
          "internalType": "address",
          "name": "newAdmin",
          "type": "address"
        }
      ],
      "name": "AdminChanged",
      "type": "event"
    },
    {
      "anonymous": false,
      "inputs": [
        {
          "indexed": true,
          "internalType": "address",
          "name": "beacon",
          "type": "address"
        }
      ],
      "name": "BeaconUpgraded",
      "type": "event"
    },
    {
      "anonymous": false,
      "inputs": [
        {
          "indexed": false,
          "internalType": "uint8",
          "name": "version",
          "type": "uint8"
        }
      ],
      "name": "Initialized",
      "type": "event"
    },
    {
      "anonymous": false,
      "inputs": [
        {
          "indexed": true,
          "internalType": "address",
          "name": "implementation",
          "type": "address"
        }
      ],
      "name": "Upgraded",
      "type": "event"
    },
    {
      "inputs": [
        {
          "internalType": "uint256",
          "name": "_roleId",
          "type": "uint256"
        },
        {
          "internalType": "string[]",
          "name": "_permissions",
          "type": "string[]"
        }
      ],
      "name": "addPermissionsToRole",
      "outputs": [],
      "stateMutability": "nonpayable",
      "type": "function"
    },
    {
      "inputs": [
        {
          "internalType": "string",
          "name": "_channelNetworkId",
          "type": "string"
        },
        {
          "internalType": "address",
          "name": "_entitlement",
          "type": "address"
        },
        {
          "internalType": "uint256",
          "name": "_roleId",
          "type": "uint256"
        }
      ],
      "name": "addRoleToChannel",
      "outputs": [],
      "stateMutability": "nonpayable",
      "type": "function"
    },
    {
      "inputs": [
        {
          "internalType": "uint256",
          "name": "_roleId",
          "type": "uint256"
        },
        {
          "components": [
            {
              "internalType": "address",
              "name": "module",
              "type": "address"
            },
            {
              "internalType": "bytes",
              "name": "data",
              "type": "bytes"
            }
          ],
          "internalType": "struct DataTypes.Entitlement",
          "name": "_entitlement",
          "type": "tuple"
        }
      ],
      "name": "addRoleToEntitlement",
      "outputs": [],
      "stateMutability": "nonpayable",
      "type": "function"
    },
    {
      "inputs": [
        {
          "internalType": "uint256",
          "name": "",
          "type": "uint256"
        }
      ],
      "name": "channels",
      "outputs": [
        {
          "internalType": "bytes32",
          "name": "",
          "type": "bytes32"
        }
      ],
      "stateMutability": "view",
      "type": "function"
    },
    {
      "inputs": [
        {
          "internalType": "bytes32",
          "name": "",
          "type": "bytes32"
        }
      ],
      "name": "channelsByHash",
      "outputs": [
        {
          "internalType": "string",
          "name": "name",
          "type": "string"
        },
        {
          "internalType": "string",
          "name": "channelNetworkId",
          "type": "string"
        },
        {
          "internalType": "bytes32",
          "name": "channelHash",
          "type": "bytes32"
        },
        {
          "internalType": "uint256",
          "name": "createdAt",
          "type": "uint256"
        },
        {
          "internalType": "bool",
          "name": "disabled",
          "type": "bool"
        }
      ],
      "stateMutability": "view",
      "type": "function"
    },
    {
      "inputs": [
        {
          "internalType": "string",
          "name": "channelName",
          "type": "string"
        },
        {
          "internalType": "string",
          "name": "channelNetworkId",
          "type": "string"
        },
        {
          "internalType": "uint256[]",
          "name": "roleIds",
          "type": "uint256[]"
        }
      ],
      "name": "createChannel",
      "outputs": [
        {
          "internalType": "bytes32",
          "name": "",
          "type": "bytes32"
        }
      ],
      "stateMutability": "nonpayable",
      "type": "function"
    },
    {
      "inputs": [
        {
          "internalType": "string",
          "name": "_roleName",
          "type": "string"
        },
        {
          "internalType": "string[]",
          "name": "_permissions",
          "type": "string[]"
        },
        {
          "components": [
            {
              "internalType": "address",
              "name": "module",
              "type": "address"
            },
            {
              "internalType": "bytes",
              "name": "data",
              "type": "bytes"
            }
          ],
          "internalType": "struct DataTypes.Entitlement[]",
          "name": "_entitlements",
          "type": "tuple[]"
        }
      ],
      "name": "createRole",
      "outputs": [
        {
          "internalType": "uint256",
          "name": "",
          "type": "uint256"
        }
      ],
      "stateMutability": "nonpayable",
      "type": "function"
    },
    {
      "inputs": [
        {
          "internalType": "address",
          "name": "",
          "type": "address"
        }
      ],
      "name": "defaultEntitlements",
      "outputs": [
        {
          "internalType": "bool",
          "name": "",
          "type": "bool"
        }
      ],
      "stateMutability": "view",
      "type": "function"
    },
    {
      "inputs": [],
      "name": "disabled",
      "outputs": [
        {
          "internalType": "bool",
          "name": "",
          "type": "bool"
        }
      ],
      "stateMutability": "view",
      "type": "function"
    },
    {
      "inputs": [
        {
          "internalType": "uint256",
          "name": "",
          "type": "uint256"
        }
      ],
      "name": "entitlements",
      "outputs": [
        {
          "internalType": "address",
          "name": "",
          "type": "address"
        }
      ],
      "stateMutability": "view",
      "type": "function"
    },
    {
      "inputs": [
        {
          "internalType": "bytes32",
          "name": "_channelHash",
          "type": "bytes32"
        }
      ],
      "name": "getChannelByHash",
      "outputs": [
        {
          "components": [
            {
              "internalType": "string",
              "name": "name",
              "type": "string"
            },
            {
              "internalType": "string",
              "name": "channelNetworkId",
              "type": "string"
            },
            {
              "internalType": "bytes32",
              "name": "channelHash",
              "type": "bytes32"
            },
            {
              "internalType": "uint256",
              "name": "createdAt",
              "type": "uint256"
            },
            {
              "internalType": "bool",
              "name": "disabled",
              "type": "bool"
            }
          ],
          "internalType": "struct DataTypes.Channel",
          "name": "",
          "type": "tuple"
        }
      ],
      "stateMutability": "view",
      "type": "function"
    },
    {
      "inputs": [],
      "name": "getChannels",
      "outputs": [
        {
          "internalType": "bytes32[]",
          "name": "",
          "type": "bytes32[]"
        }
      ],
      "stateMutability": "view",
      "type": "function"
    },
    {
      "inputs": [
        {
          "internalType": "string",
          "name": "_moduleType",
          "type": "string"
        }
      ],
      "name": "getEntitlementByModuleType",
      "outputs": [
        {
          "internalType": "address",
          "name": "",
          "type": "address"
        }
      ],
      "stateMutability": "view",
      "type": "function"
    },
    {
      "inputs": [
        {
          "internalType": "uint256",
          "name": "_roleId",
          "type": "uint256"
        }
      ],
      "name": "getEntitlementIdsByRoleId",
      "outputs": [
        {
          "internalType": "bytes32[]",
          "name": "",
          "type": "bytes32[]"
        }
      ],
      "stateMutability": "view",
      "type": "function"
    },
    {
      "inputs": [],
      "name": "getEntitlementModules",
      "outputs": [
        {
          "components": [
            {
              "internalType": "string",
              "name": "name",
              "type": "string"
            },
            {
              "internalType": "address",
              "name": "moduleAddress",
              "type": "address"
            },
            {
              "internalType": "string",
              "name": "moduleType",
              "type": "string"
            },
            {
              "internalType": "bool",
              "name": "enabled",
              "type": "bool"
            }
          ],
          "internalType": "struct DataTypes.EntitlementModule[]",
          "name": "_entitlementModules",
          "type": "tuple[]"
        }
      ],
      "stateMutability": "view",
      "type": "function"
    },
    {
      "inputs": [
        {
          "internalType": "uint256",
          "name": "_roleId",
          "type": "uint256"
        }
      ],
      "name": "getPermissionsByRoleId",
      "outputs": [
        {
          "internalType": "string[]",
          "name": "",
          "type": "string[]"
        }
      ],
      "stateMutability": "view",
      "type": "function"
    },
    {
      "inputs": [
        {
          "internalType": "uint256",
          "name": "_roleId",
          "type": "uint256"
        }
      ],
      "name": "getRoleById",
      "outputs": [
        {
          "components": [
            {
              "internalType": "uint256",
              "name": "roleId",
              "type": "uint256"
            },
            {
              "internalType": "string",
              "name": "name",
              "type": "string"
            }
          ],
          "internalType": "struct DataTypes.Role",
          "name": "",
          "type": "tuple"
        }
      ],
      "stateMutability": "view",
      "type": "function"
    },
    {
      "inputs": [],
      "name": "getRoles",
      "outputs": [
        {
          "components": [
            {
              "internalType": "uint256",
              "name": "roleId",
              "type": "uint256"
            },
            {
              "internalType": "string",
              "name": "name",
              "type": "string"
            }
          ],
          "internalType": "struct DataTypes.Role[]",
          "name": "",
          "type": "tuple[]"
        }
      ],
      "stateMutability": "view",
      "type": "function"
    },
    {
      "inputs": [
        {
          "internalType": "address",
          "name": "",
          "type": "address"
        }
      ],
      "name": "hasEntitlement",
      "outputs": [
        {
          "internalType": "bool",
          "name": "",
          "type": "bool"
        }
      ],
      "stateMutability": "view",
      "type": "function"
    },
    {
      "inputs": [
        {
          "internalType": "string",
          "name": "_name",
          "type": "string"
        },
        {
          "internalType": "string",
          "name": "_networkId",
          "type": "string"
        },
        {
          "internalType": "address[]",
          "name": "_entitlements",
          "type": "address[]"
        },
        {
          "internalType": "address",
          "name": "_token",
          "type": "address"
        },
        {
          "internalType": "uint256",
          "name": "_tokenId",
          "type": "uint256"
        }
      ],
      "name": "initialize",
      "outputs": [],
      "stateMutability": "nonpayable",
      "type": "function"
    },
    {
      "inputs": [
        {
          "internalType": "string",
          "name": "_channelNetworkId",
          "type": "string"
        },
        {
          "internalType": "address",
          "name": "_user",
          "type": "address"
        },
        {
          "internalType": "string",
          "name": "_permission",
          "type": "string"
        }
      ],
      "name": "isEntitledToChannel",
      "outputs": [
        {
          "internalType": "bool",
          "name": "_entitled",
          "type": "bool"
        }
      ],
      "stateMutability": "view",
      "type": "function"
    },
    {
      "inputs": [
        {
          "internalType": "address",
          "name": "_user",
          "type": "address"
        },
        {
          "internalType": "string",
          "name": "_permission",
          "type": "string"
        }
      ],
      "name": "isEntitledToSpace",
      "outputs": [
        {
          "internalType": "bool",
          "name": "_entitled",
          "type": "bool"
        }
      ],
      "stateMutability": "view",
      "type": "function"
    },
    {
      "inputs": [
        {
          "internalType": "bytes[]",
          "name": "data",
          "type": "bytes[]"
        }
      ],
      "name": "multicall",
      "outputs": [
        {
          "internalType": "bytes[]",
          "name": "results",
          "type": "bytes[]"
        }
      ],
      "stateMutability": "nonpayable",
      "type": "function"
    },
    {
      "inputs": [],
      "name": "name",
      "outputs": [
        {
          "internalType": "string",
          "name": "",
          "type": "string"
        }
      ],
      "stateMutability": "view",
      "type": "function"
    },
    {
      "inputs": [],
      "name": "networkId",
      "outputs": [
        {
          "internalType": "string",
          "name": "",
          "type": "string"
        }
      ],
      "stateMutability": "view",
      "type": "function"
    },
    {
      "inputs": [],
      "name": "owner",
      "outputs": [
        {
          "internalType": "address",
          "name": "",
          "type": "address"
        }
      ],
      "stateMutability": "view",
      "type": "function"
    },
    {
      "inputs": [],
      "name": "ownerRoleId",
      "outputs": [
        {
          "internalType": "uint256",
          "name": "",
          "type": "uint256"
        }
      ],
      "stateMutability": "view",
      "type": "function"
    },
    {
      "inputs": [],
      "name": "proxiableUUID",
      "outputs": [
        {
          "internalType": "bytes32",
          "name": "",
          "type": "bytes32"
        }
      ],
      "stateMutability": "view",
      "type": "function"
    },
    {
      "inputs": [
        {
          "internalType": "uint256",
          "name": "_roleId",
          "type": "uint256"
        },
        {
          "internalType": "string[]",
          "name": "_permissions",
          "type": "string[]"
        }
      ],
      "name": "removePermissionsFromRole",
      "outputs": [],
      "stateMutability": "nonpayable",
      "type": "function"
    },
    {
      "inputs": [
        {
          "internalType": "uint256",
          "name": "_roleId",
          "type": "uint256"
        }
      ],
      "name": "removeRole",
      "outputs": [],
      "stateMutability": "nonpayable",
      "type": "function"
    },
    {
      "inputs": [
        {
          "internalType": "string",
          "name": "_channelNetworkId",
          "type": "string"
        },
        {
          "internalType": "address",
          "name": "_entitlement",
          "type": "address"
        },
        {
          "internalType": "uint256",
          "name": "_roleId",
          "type": "uint256"
        }
      ],
      "name": "removeRoleFromChannel",
      "outputs": [],
      "stateMutability": "nonpayable",
      "type": "function"
    },
    {
      "inputs": [
        {
          "internalType": "uint256",
          "name": "_roleId",
          "type": "uint256"
        },
        {
          "components": [
            {
              "internalType": "address",
              "name": "module",
              "type": "address"
            },
            {
              "internalType": "bytes",
              "name": "data",
              "type": "bytes"
            }
          ],
          "internalType": "struct DataTypes.Entitlement",
          "name": "_entitlement",
          "type": "tuple"
        }
      ],
      "name": "removeRoleFromEntitlement",
      "outputs": [],
      "stateMutability": "nonpayable",
      "type": "function"
    },
    {
      "inputs": [],
      "name": "roleCount",
      "outputs": [
        {
          "internalType": "uint256",
          "name": "",
          "type": "uint256"
        }
      ],
      "stateMutability": "view",
      "type": "function"
    },
    {
      "inputs": [
        {
          "internalType": "uint256",
          "name": "",
          "type": "uint256"
        }
      ],
      "name": "rolesById",
      "outputs": [
        {
          "internalType": "uint256",
          "name": "roleId",
          "type": "uint256"
        },
        {
          "internalType": "string",
          "name": "name",
          "type": "string"
        }
      ],
      "stateMutability": "view",
      "type": "function"
    },
    {
      "inputs": [
        {
          "internalType": "string",
          "name": "channelNetworkId",
          "type": "string"
        },
        {
          "internalType": "bool",
          "name": "disableChannel",
          "type": "bool"
        }
      ],
      "name": "setChannelAccess",
      "outputs": [],
      "stateMutability": "nonpayable",
      "type": "function"
    },
    {
      "inputs": [
        {
          "internalType": "address",
          "name": "_entitlementModule",
          "type": "address"
        },
        {
          "internalType": "bool",
          "name": "_whitelist",
          "type": "bool"
        }
      ],
      "name": "setEntitlementModule",
      "outputs": [],
      "stateMutability": "nonpayable",
      "type": "function"
    },
    {
      "inputs": [
        {
          "internalType": "uint256",
          "name": "_roleId",
          "type": "uint256"
        }
      ],
      "name": "setOwnerRoleId",
      "outputs": [],
      "stateMutability": "nonpayable",
      "type": "function"
    },
    {
      "inputs": [
        {
          "internalType": "bool",
          "name": "_disabled",
          "type": "bool"
        }
      ],
      "name": "setSpaceAccess",
      "outputs": [],
      "stateMutability": "nonpayable",
      "type": "function"
    },
    {
      "inputs": [],
      "name": "token",
      "outputs": [
        {
          "internalType": "address",
          "name": "",
          "type": "address"
        }
      ],
      "stateMutability": "view",
      "type": "function"
    },
    {
      "inputs": [],
      "name": "tokenId",
      "outputs": [
        {
          "internalType": "uint256",
          "name": "",
          "type": "uint256"
        }
      ],
      "stateMutability": "view",
      "type": "function"
    },
    {
      "inputs": [
        {
          "internalType": "string",
          "name": "channelNetworkId",
          "type": "string"
        },
        {
          "internalType": "string",
          "name": "channelName",
          "type": "string"
        }
      ],
      "name": "updateChannel",
      "outputs": [],
      "stateMutability": "nonpayable",
      "type": "function"
    },
    {
      "inputs": [
        {
          "internalType": "uint256",
          "name": "_roleId",
          "type": "uint256"
        },
        {
          "internalType": "string",
          "name": "_roleName",
          "type": "string"
        }
      ],
      "name": "updateRole",
      "outputs": [],
      "stateMutability": "nonpayable",
      "type": "function"
    },
    {
      "inputs": [
        {
          "internalType": "address",
          "name": "_entitlement",
          "type": "address"
        },
        {
          "internalType": "address",
          "name": "_newEntitlement",
          "type": "address"
        }
      ],
      "name": "upgradeEntitlement",
      "outputs": [],
      "stateMutability": "nonpayable",
      "type": "function"
    },
    {
      "inputs": [
        {
          "internalType": "address",
          "name": "newImplementation",
          "type": "address"
        }
      ],
      "name": "upgradeTo",
      "outputs": [],
      "stateMutability": "nonpayable",
      "type": "function"
    },
    {
      "inputs": [
        {
          "internalType": "address",
          "name": "newImplementation",
          "type": "address"
        },
        {
          "internalType": "bytes",
          "name": "data",
          "type": "bytes"
        }
      ],
      "name": "upgradeToAndCall",
      "outputs": [],
      "stateMutability": "payable",
      "type": "function"
    }
  ],
  "bytecode": {
    "object": "0x60a0604052306080523480156200001557600080fd5b506200002062000026565b620000e8565b600054610100900460ff1615620000935760405162461bcd60e51b815260206004820152602760248201527f496e697469616c697a61626c653a20636f6e747261637420697320696e697469604482015266616c697a696e6760c81b606482015260840160405180910390fd5b60005460ff9081161015620000e6576000805460ff191660ff9081179091556040519081527f7f26b83ff96e1f2b6a682f133852f6798a09c465da95921460cefb38474024989060200160405180910390a15b565b60805161542f620001206000396000818161101901528181611062015281816113b3015281816113f30152611907015261542f6000f3fe6080604052600436106102725760003560e01c8063870b94641161014f578063baaf3d57116100c1578063e5949b5d1161007a578063e5949b5d146107b7578063ee070805146107d7578063f28f9b56146107f1578063f3ce6a5b14610811578063fa6433c514610831578063fc0c546a1461086157600080fd5b8063baaf3d57146106fd578063cea632bc1461071d578063d1a6a9611461073d578063dba8186414610753578063ddf9635814610773578063e5894ef41461078957600080fd5b80639575f6ac116101135780639575f6ac1461062e5780639a8e4c3e14610643578063ac9650d814610663578063b426423314610690578063b7515761146106bd578063ba201ba8146106dd57600080fd5b8063870b94641461058c5780638da5cb5b146105c45780638fcd793d146105d95780639025e64c146105f9578063926918211461060e57600080fd5b8063446dc22e116101e857806352d1902d116101ac57806352d1902d146104ab5780635de151b8146104c0578063703511f8146104e0578063710613981461050d578063784c872b1461052f5780637f8d06d01461055c57600080fd5b8063446dc22e146104185780634999ab16146104385780634f1ef28614610458578063519607f21461046b57806351f83cea1461048b57600080fd5b806320759f9e1161023a57806320759f9e1461033b57806332e704cc1461036b57806334a1dd261461038b5780633659cfe6146103ab57806342486e49146103cb578063441555e5146103f857600080fd5b806306fdde03146102775780630d029f75146102a2578063129ab3c8146102c457806317d70f7c146102f55780631dea616a14610319575b600080fd5b34801561028357600080fd5b5061028c610881565b6040516102999190614096565b60405180910390f35b3480156102ae57600080fd5b506102b761090f565b60405161029991906140a9565b3480156102d057600080fd5b506102e46102df366004614152565b610b50565b60405161029995949392919061416b565b34801561030157600080fd5b5061030b609c5481565b604051908152602001610299565b34801561032557600080fd5b5061033961033436600461421d565b610c93565b005b34801561034757600080fd5b5061035b610356366004614279565b610dca565b6040519015158152602001610299565b34801561037757600080fd5b50610339610386366004614390565b610e40565b34801561039757600080fd5b506103396103a63660046143d6565b610f42565b3480156103b757600080fd5b506103396103c6366004614441565b61100f565b3480156103d757600080fd5b506103eb6103e6366004614152565b6110f7565b604051610299919061445e565b34801561040457600080fd5b506103396104133660046144b0565b611159565b34801561042457600080fd5b506103396104333660046144e9565b61122d565b34801561044457600080fd5b50610339610453366004614152565b611265565b610339610466366004614506565b6113a9565b34801561047757600080fd5b5061033961048636600461453f565b611475565b34801561049757600080fd5b5061030b6104a6366004614590565b611590565b3480156104b757600080fd5b5061030b6118fa565b3480156104cc57600080fd5b506103396104db366004614671565b6119ad565b3480156104ec57600080fd5b506105006104fb366004614152565b611a73565b60405161029991906146c7565b34801561051957600080fd5b50610522611c04565b6040516102999190614754565b34801561053b57600080fd5b5061054f61054a366004614152565b611d72565b60405161029991906147b6565b34801561056857600080fd5b5061035b610577366004614441565b609d6020526000908152604090205460ff1681565b34801561059857600080fd5b506105ac6105a73660046147c9565b611e48565b6040516001600160a01b039091168152602001610299565b3480156105d057600080fd5b506105ac611f31565b3480156105e557600080fd5b5061030b6105f4366004614900565b611fa8565b34801561060557600080fd5b5061028c6122db565b34801561061a57600080fd5b50610339610629366004614152565b6122e8565b34801561063a57600080fd5b506103eb612427565b34801561064f57600080fd5b5061033961065e3660046149fb565b61247f565b34801561066f57600080fd5b5061068361067e366004614a37565b612694565b6040516102999190614aab565b34801561069c57600080fd5b506106b06106ab366004614152565b6127ab565b6040516102999190614b00565b3480156106c957600080fd5b506103396106d83660046149fb565b6128f0565b3480156106e957600080fd5b506103396106f8366004614b55565b612a90565b34801561070957600080fd5b5061033961071836600461421d565b612b71565b34801561072957600080fd5b5061035b610738366004614b91565b612c70565b34801561074957600080fd5b5061030b609a5481565b34801561075f57600080fd5b5061033961076e366004614c15565b612dc2565b34801561077f57600080fd5b5061030b60a15481565b34801561079557600080fd5b506107a96107a4366004614152565b613033565b604051610299929190614c57565b3480156107c357600080fd5b5061030b6107d2366004614152565b6130d8565b3480156107e357600080fd5b5060995461035b9060ff1681565b3480156107fd57600080fd5b506105ac61080c366004614152565b6130f9565b34801561081d57600080fd5b5061033961082c366004614c70565b613123565b34801561083d57600080fd5b5061035b61084c366004614441565b609e6020526000908152604090205460ff1681565b34801561086d57600080fd5b50609b546105ac906001600160a01b031681565b6097805461088e90614d6f565b80601f01602080910402602001604051908101604052809291908181526020018280546108ba90614d6f565b80156109075780601f106108dc57610100808354040283529160200191610907565b820191906000526020600020905b8154815290600101906020018083116108ea57829003601f168201915b505050505081565b60a0546060906001600160401b0381111561092c5761092c6142cd565b60405190808252806020026020018201604052801561097f57816020015b6040805160808101825260608082526000602080840182905293830182905290820152825260001990920191018161094a5790505b50905060005b60a054811015610b4c57600060a082815481106109a4576109a4614da3565b600091825260208220015460408051608081018083526306fdde0360e01b905290516001600160a01b03909216935091829184916306fdde039160848086019291908187030181865afa1580156109ff573d6000803e3d6000fd5b505050506040513d6000823e601f3d908101601f19168201604052610a279190810190614db9565b815260200160a08481548110610a3f57610a3f614da3565b9060005260206000200160009054906101000a90046001600160a01b03166001600160a01b03168152602001826001600160a01b0316636465e69f6040518163ffffffff1660e01b8152600401600060405180830381865afa158015610aa9573d6000803e3d6000fd5b505050506040513d6000823e601f3d908101601f19168201604052610ad19190810190614db9565b8152602001609d600060a08681548110610aed57610aed614da3565b60009182526020808320909101546001600160a01b0316835282019290925260400190205460ff16151590528351849084908110610b2d57610b2d614da3565b6020026020010181905250508080610b4490614e3c565b915050610985565b5090565b60a460205260009081526040902080548190610b6b90614d6f565b80601f0160208091040260200160405190810160405280929190818152602001828054610b9790614d6f565b8015610be45780601f10610bb957610100808354040283529160200191610be4565b820191906000526020600020905b815481529060010190602001808311610bc757829003601f168201915b505050505090806001018054610bf990614d6f565b80601f0160208091040260200160405190810160405280929190818152602001828054610c2590614d6f565b8015610c725780601f10610c4757610100808354040283529160200191610c72565b820191906000526020600020905b815481529060010190602001808311610c5557829003601f168201915b50505050600283015460038401546004909401549293909290915060ff1685565b610cfb84848080601f0160208091040260200160405190810160405280939291908181526020018383808284376000920191909152505060408051808201909152601181527041646452656d6f76654368616e6e656c7360781b602082015291506133079050565b6001600160a01b0382166000908152609d602052604090205460ff16610d345760405163c1ef36f360e01b815260040160405180910390fd5b600081815260a260205260408120549003610d625760405163b810dc5d60e01b815260040160405180910390fd5b60405163c513be7760e01b81526001600160a01b0383169063c513be7790610d9290879087908690600401614e7e565b600060405180830381600087803b158015610dac57600080fd5b505af1158015610dc0573d6000803e3d6000fd5b5050505050505050565b6000805b60a054811015610e3857610e1c60405180602001604052806000815250868686604051602001610dff929190614ea2565b604051602081830303815290604052610e1790614eb2565b61335b565b15610e2657600191505b80610e3081614e3c565b915050610dce565b509392505050565b610e8460405180602001604052806000815250604051806040016040528060138152602001724d6f64696679537061636553657474696e677360681b815250613307565b610e8d81613414565b609a548203610eaf57604051631eb49d6d60e11b815260040160405180910390fd5b600082815260a260205260408120549003610edd5760405163b810dc5d60e01b815260040160405180910390fd5b600082815260a260205260409020600101610ef88282614f1c565b5081336001600160a01b03167ff3c55faf0b13ffa681c984baddbb8ef7638e514188ea19bd6461d7f87b9c7953836098604051610f36929190615058565b60405180910390a35050565b610f84604051806020016040528060008152506040518060400160405280601181526020017041646452656d6f76654368616e6e656c7360781b815250613307565b610f8e8282613445565b60008484604051602001610fa3929190614ea2565b60408051601f198184030181529181528151602092830120600081815260a4909352908220600201549092509003610fee57604051636ddd9da960e01b815260040160405180910390fd5b600081815260a46020526040902061100783858361507d565b505050505050565b6001600160a01b037f00000000000000000000000000000000000000000000000000000000000000001630036110605760405162461bcd60e51b81526004016110579061513c565b60405180910390fd5b7f00000000000000000000000000000000000000000000000000000000000000006001600160a01b03166110a96000805160206153b3833981519152546001600160a01b031690565b6001600160a01b0316146110cf5760405162461bcd60e51b815260040161105790615188565b6110d88161365a565b604080516000808252602082019092526110f491839190613690565b50565b6000818152609f602090815260409182902080548351818402810184019094528084526060939283018282801561114d57602002820191906000526020600020905b815481526020019060010190808311611139575b50505050509050919050565b61118f604051806020016040528060008152506040518060400160405280600581526020016427bbb732b960d91b815250613307565b611198826137fb565b8080156111bd57506001600160a01b0382166000908152609d602052604090205460ff165b156111db5760405163186abc9b60e01b815260040160405180910390fd5b8015801561120157506001600160a01b0382166000908152609e602052604090205460ff165b1561121f57604051631eb49d6d60e11b815260040160405180910390fd5b611229828261388c565b5050565b611235613a0d565b61125257604051631eb49d6d60e11b815260040160405180910390fd5b6099805460ff1916911515919091179055565b61126d613a0d565b61128a57604051631eb49d6d60e11b815260040160405180910390fd5b609a54156112ab57604051631eb49d6d60e11b815260040160405180910390fd5b600081815260a2602052604081205490036112d95760405163b810dc5d60e01b815260040160405180910390fd5b6000805b600083815260a36020526040902054811015611384576040518060400160405280600581526020016427bbb732b960d91b81525060405160200161132191906151d4565b60405160208183030381529060405261133990614eb2565b600084815260a36020526040902080548390811061135957611359614da3565b9060005260206000200154036113725760019150611384565b8061137c81614e3c565b9150506112dd565b50806113a357604051633e74bd6360e21b815260040160405180910390fd5b50609a55565b6001600160a01b037f00000000000000000000000000000000000000000000000000000000000000001630036113f15760405162461bcd60e51b81526004016110579061513c565b7f00000000000000000000000000000000000000000000000000000000000000006001600160a01b031661143a6000805160206153b3833981519152546001600160a01b031690565b6001600160a01b0316146114605760405162461bcd60e51b815260040161105790615188565b6114698261365a565b61122982826001613690565b6114ab604051806020016040528060008152506040518060400160405280600581526020016427bbb732b960d91b815250613307565b6001600160a01b03821615806114c857506001600160a01b038116155b156114e657604051630e52390960e41b815260040160405180910390fd5b6001600160a01b0382166000908152609d602052604090205460ff1661151f5760405163c1ef36f360e01b815260040160405180910390fd5b604051631b2ce7f360e11b81526001600160a01b038281166004830152831690633659cfe690602401600060405180830381600087803b15801561156257600080fd5b505af1925050508015611573575060015b61122957604051630e52390960e41b815260040160405180910390fd5b60006115d4604051806020016040528060008152506040518060400160405280601181526020017041646452656d6f76654368616e6e656c7360781b815250613307565b6115de8585613445565b6000836040516020016115f191906151d4565b60408051601f198184030181529181528151602092830120600081815260a49093529120600201549091501561163a57604051630139324b60e41b815260040160405180910390fd5b6040518060a0016040528087878080601f016020809104026020016040519081016040528093929190818152602001838380828437600092018290525093855250505060208083018890526040808401869052426060850152608090930182905284825260a4905220815181906116b19082614f1c565b50602082015160018201906116c69082614f1c565b5060408201516002820155606082015160038201556080909101516004909101805460ff191691151591909117905560a5805460018101825560009182527fb29a2b3b6f2ff1b765777a231725941da5072cc4fcc30ac4a2ce09706e8ddeff018290555b60a0548110156118f057600060a0828154811061174957611749614da3565b600091825260209091200154609a5460405163c513be7760e01b81526001600160a01b039092169250829163c513be7791611789918a91906004016151f0565b600060405180830381600087803b1580156117a357600080fd5b505af11580156117b7573d6000803e3d6000fd5b5050505060005b85518110156118db57609a548682815181106117dc576117dc614da3565b602002602001015103156118c95760a2600087838151811061180057611800614da3565b602002602001015181526020019081526020016000206000015460000361183a5760405163b810dc5d60e01b815260040160405180910390fd5b816001600160a01b031663c513be778888848151811061185c5761185c614da3565b60200260200101516040518363ffffffff1660e01b81526004016118819291906151f0565b600060405180830381600087803b15801561189b57600080fd5b505af19250505080156118ac575060015b6118c95760405163d9afe50760e01b815260040160405180910390fd5b806118d381614e3c565b9150506117be565b505080806118e890614e3c565b91505061172a565b5095945050505050565b6000306001600160a01b037f0000000000000000000000000000000000000000000000000000000000000000161461199a5760405162461bcd60e51b815260206004820152603860248201527f555550535570677261646561626c653a206d757374206e6f742062652063616c60448201527f6c6564207468726f7567682064656c656761746563616c6c00000000000000006064820152608401611057565b506000805160206153b383398151915290565b6119ef604051806020016040528060008152506040518060400160405280601181526020017041646452656d6f76654368616e6e656c7360781b815250613307565b60008383604051602001611a04929190614ea2565b60408051601f198184030181529181528151602092830120600081815260a4909352908220600201549092509003611a4f57604051636ddd9da960e01b815260040160405180910390fd5b600090815260a460205260409020600401805460ff19169115159190911790555050565b6040805160a081018252606080825260208201819052600092820183905281018290526080810191909152600082815260a4602052604090819020815160a08101909252805482908290611ac690614d6f565b80601f0160208091040260200160405190810160405280929190818152602001828054611af290614d6f565b8015611b3f5780601f10611b1457610100808354040283529160200191611b3f565b820191906000526020600020905b815481529060010190602001808311611b2257829003601f168201915b50505050508152602001600182018054611b5890614d6f565b80601f0160208091040260200160405190810160405280929190818152602001828054611b8490614d6f565b8015611bd15780601f10611ba657610100808354040283529160200191611bd1565b820191906000526020600020905b815481529060010190602001808311611bb457829003601f168201915b5050509183525050600282015460208201526003820154604082015260049091015460ff16151560609091015292915050565b6060600060a1546001600160401b03811115611c2257611c226142cd565b604051908082528060200260200182016040528015611c6857816020015b604080518082019091526000815260606020820152815260200190600190039081611c405790505b50905060005b60a154811015611d6c5760a26000611c87836001615212565b815260200190815260200160002060405180604001604052908160008201548152602001600182018054611cba90614d6f565b80601f0160208091040260200160405190810160405280929190818152602001828054611ce690614d6f565b8015611d335780601f10611d0857610100808354040283529160200191611d33565b820191906000526020600020905b815481529060010190602001808311611d1657829003601f168201915b505050505081525050828281518110611d4e57611d4e614da3565b60200260200101819052508080611d6490614e3c565b915050611c6e565b50919050565b60408051808201909152600081526060602082015260a2600083815260200190815260200160002060405180604001604052908160008201548152602001600182018054611dbf90614d6f565b80601f0160208091040260200160405190810160405280929190818152602001828054611deb90614d6f565b8015611e385780601f10611e0d57610100808354040283529160200191611e38565b820191906000526020600020905b815481529060010190602001808311611e1b57829003601f168201915b5050505050815250509050919050565b60008060005b60a054811015611f2a57611ee860a08281548110611e6e57611e6e614da3565b600091825260208220015460408051636465e69f60e01b815290516001600160a01b0390921692636465e69f926004808401938290030181865afa158015611eba573d6000803e3d6000fd5b505050506040513d6000823e601f3d908101601f19168201604052611ee29190810190614db9565b85613a94565b15611f185760a08181548110611f0057611f00614da3565b6000918252602090912001546001600160a01b031691505b80611f2281614e3c565b915050611e4e565b5092915050565b609b54609c546040516331a9108f60e11b815260048101919091526000916001600160a01b031690636352211e90602401602060405180830381865afa158015611f7f573d6000803e3d6000fd5b505050506040513d601f19601f82011682018060405250810190611fa39190615225565b905090565b6000611fee60405180602001604052806000815250604051806040016040528060138152602001724d6f64696679537061636553657474696e677360681b815250613307565b61202d85858080601f01602080910402602001604051908101604052809392919081815260200183838082843760009201919091525061341492505050565b600060a16000815461203e90614e3c565b91905081905590506000604051806040016040528083815260200188888080601f016020809104026020016040519081016040528093929190818152602001838380828437600092018290525093909452505084815260a2602090815260409091208351815590830151929350839290915060018201906120bf9082614f1c565b5090505060005b85518110156121af57609a541515801561211b575061211b8682815181106120f0576120f0614da3565b60200260200101516040518060400160405280600581526020016427bbb732b960d91b815250613a94565b1561213957604051631eb49d6d60e11b815260040160405180910390fd5b600086828151811061214d5761214d614da3565b602002602001015160405160200161216591906151d4565b60405160208183030381529060405261217d90614eb2565b600085815260a360209081526040822080546001810182559083529120015550806121a781614e3c565b9150506120c6565b5060005b84518110156122895760008582815181106121d0576121d0614da3565b602002602001015160000151905060008683815181106121f2576121f2614da3565b602002602001015160200151905060006001600160a01b0316826001600160a01b0316148061222057508051155b1561222c575050612277565b6001600160a01b0382166000908152609d602052604081205460ff16151590036122695760405163c1ef36f360e01b815260040160405180910390fd5b612274858383613aee565b50505b8061228181614e3c565b9150506121b3565b5081336001600160a01b03167f39772407c6dd2e83adbd292cdfa17a6817c9a7500e56cfe57b7a82d797f8d39b898960986040516122c993929190615242565b60405180910390a35095945050505050565b6098805461088e90614d6f565b61232c60405180602001604052806000815250604051806040016040528060138152602001724d6f64696679537061636553657474696e677360681b815250613307565b609a54810361234e57604051631eb49d6d60e11b815260040160405180910390fd5b600081815260a26020526040812054900361237c5760405163b810dc5d60e01b815260040160405180910390fd5b6000818152609f6020526040902054156123a957604051633764405360e11b815260040160405180910390fd5b600081815260a260205260408120818155906123c86001830182613fdd565b5050600081815260a3602052604081206123e191614017565b80336001600160a01b03167f1d5667a301e36f2d5b1ee32b7f187b0adb46c706297242fa945d3fed1e7f8a19609860405161241c9190615272565b60405180910390a350565b606060a580548060200260200160405190810160405280929190818152602001828054801561247557602002820191906000526020600020905b815481526020019060010190808311612461575b5050505050905090565b6124c360405180602001604052806000815250604051806040016040528060138152602001724d6f64696679537061636553657474696e677360681b815250613307565b600082815260a2602052604081205490036124f15760405163b810dc5d60e01b815260040160405180910390fd5b60005b815181101561268f576125128282815181106120f0576120f0614da3565b1561253057604051631eb49d6d60e11b815260040160405180910390fd5b600082828151811061254457612544614da3565b602002602001015160405160200161255c91906151d4565b60405160208183030381529060405261257490614eb2565b905060005b600085815260a3602052604090205481101561267a57600085815260a3602052604090208054839190839081106125b2576125b2614da3565b90600052602060002001540361266857600085815260a36020526040902080546125de90600190615285565b815481106125ee576125ee614da3565b906000526020600020015460a36000878152602001908152602001600020828154811061261d5761261d614da3565b906000526020600020018190555060a3600086815260200190815260200160002080548061264d5761264d615298565b6001900381819060005260206000200160009055905561267a565b8061267281614e3c565b915050612579565b5050808061268790614e3c565b9150506124f4565b505050565b6060816001600160401b038111156126ae576126ae6142cd565b6040519080825280602002602001820160405280156126e157816020015b60608152602001906001900390816126cc5790505b50905060005b82811015611f2a576000803086868581811061270557612705614da3565b905060200281019061271791906152ae565b604051612725929190614ea2565b600060405180830381855af49150503d8060008114612760576040519150601f19603f3d011682016040523d82523d6000602084013e612765565b606091505b5091509150816127785761277881613c5e565b8084848151811061278b5761278b614da3565b6020026020010181905250505080806127a390614e3c565b9150506126e7565b600081815260a36020526040812054606091816001600160401b038111156127d5576127d56142cd565b60405190808252806020026020018201604052801561280857816020015b60608152602001906001900390816127f35790505b50905060005b82811015610e3857600085815260a360205260409020805473__$f1e35cfc222e0f213e29c506cab45be2ef$__91639201de55918490811061285257612852614da3565b90600052602060002001546040518263ffffffff1660e01b815260040161287b91815260200190565b600060405180830381865af4158015612898573d6000803e3d6000fd5b505050506040513d6000823e601f3d908101601f191682016040526128c09190810190614db9565b8282815181106128d2576128d2614da3565b602002602001018190525080806128e890614e3c565b91505061280e565b61293460405180602001604052806000815250604051806040016040528060138152602001724d6f64696679537061636553657474696e677360681b815250613307565b600082815260a2602052604081205490036129625760405163b810dc5d60e01b815260040160405180910390fd5b60005b815181101561268f576129838282815181106120f0576120f0614da3565b156129a157604051631eb49d6d60e11b815260040160405180910390fd5b60008282815181106129b5576129b5614da3565b60200260200101516040516020016129cd91906151d4565b6040516020818303038152906040526129e590614eb2565b905060005b600085815260a36020526040902054811015612a5e57600085815260a360205260409020805483919083908110612a2357612a23614da3565b906000526020600020015403612a4c57604051636571d65f60e01b815260040160405180910390fd5b80612a5681614e3c565b9150506129ea565b50600084815260a360209081526040822080546001810182559083529120015580612a8881614e3c565b915050612965565b612ad460405180602001604052806000815250604051806040016040528060138152602001724d6f64696679537061636553657474696e677360681b815250613307565b80516001600160a01b03166000908152609d602052604090205460ff16612b0e5760405163c1ef36f360e01b815260040160405180910390fd5b600082815260a260205260408120549003612b3c5760405163b810dc5d60e01b815260040160405180910390fd5b609a548203612b5e57604051631eb49d6d60e11b815260040160405180910390fd5b6112298282600001518360200151613aee565b612bd984848080601f0160208091040260200160405190810160405280939291908181526020018383808284376000920191909152505060408051808201909152601181527041646452656d6f76654368616e6e656c7360781b602082015291506133079050565b6001600160a01b0382166000908152609d602052604090205460ff16612c125760405163c1ef36f360e01b815260040160405180910390fd5b600081815260a260205260408120549003612c405760405163b810dc5d60e01b815260040160405180910390fd5b604051637997c1e760e11b81526001600160a01b0383169063f32f83ce90610d9290879087908690600401614e7e565b6000841580612c7d575081155b80612c8f57506001600160a01b038416155b15612cad57604051630e52390960e41b815260040160405180910390fd5b60008686604051602001612cc2929190614ea2565b60408051601f198184030181529181528151602092830120600081815260a4909352908220600201549092509003612d0d57604051636ddd9da960e01b815260040160405180910390fd5b600081815260a4602052604090206004015460ff1615612d4057604051631eb49d6d60e11b815260040160405180910390fd5b60005b60a054811015612db757612d9b88888080601f016020809104026020016040519081016040528093929190818152602001838380828437600092019190915250506040518a9250610dff915089908990602001614ea2565b15612da557600192505b80612daf81614e3c565b915050612d43565b505095945050505050565b612e0660405180602001604052806000815250604051806040016040528060138152602001724d6f64696679537061636553657474696e677360681b815250613307565b609a548203612e2857604051631eb49d6d60e11b815260040160405180910390fd5b609d6000612e396020840184614441565b6001600160a01b0316815260208101919091526040016000205460ff16612e735760405163c1ef36f360e01b815260040160405180910390fd5b600082815260a260205260408120549003612ea15760405163b810dc5d60e01b815260040160405180910390fd5b600082612eb160208401846152ae565b604051602001612ec3939291906152f4565b60408051601f1981840301815291815281516020928301206000868152609f909352908220909250905b8154811015612fa157818181548110612f0857612f08614da3565b90600052602060002001548303612f8f5781548290612f2990600190615285565b81548110612f3957612f39614da3565b9060005260206000200154828281548110612f5657612f56614da3565b906000526020600020018190555081805480612f7457612f74615298565b60019003818190600052602060002001600090559055612fa1565b80612f9981614e3c565b915050612eed565b50612faf6020840184614441565b6001600160a01b031663fa6d1adf85612fcb60208701876152ae565b6040518463ffffffff1660e01b8152600401612fe99392919061530e565b6020604051808303816000875af1158015613008573d6000803e3d6000fd5b505050506040513d601f19601f8201168201806040525081019061302c9190615328565b5050505050565b60a2602052600090815260409020805460018201805491929161305590614d6f565b80601f016020809104026020016040519081016040528092919081815260200182805461308190614d6f565b80156130ce5780601f106130a3576101008083540402835291602001916130ce565b820191906000526020600020905b8154815290600101906020018083116130b157829003601f168201915b5050505050905082565b60a581815481106130e857600080fd5b600091825260209091200154905081565b60a0818154811061310957600080fd5b6000918252602090912001546001600160a01b0316905081565b600054610100900460ff16158080156131435750600054600160ff909116105b8061315d5750303b15801561315d575060005460ff166001145b6131c05760405162461bcd60e51b815260206004820152602e60248201527f496e697469616c697a61626c653a20636f6e747261637420697320616c72656160448201526d191e481a5b9a5d1a585b1a5e995960921b6064820152608401611057565b6000805460ff1916600117905580156131e3576000805461ff0019166101001790555b6131eb613d2b565b6131f3613d2b565b60976131ff8782614f1c565b50609861320c8682614f1c565b50609b80546001600160a01b0319166001600160a01b038516179055609c82905560005b84518110156132b95761325d85828151811061324e5761324e614da3565b6020026020010151600161388c565b6001609e600087848151811061327557613275614da3565b6020908102919091018101516001600160a01b03168252810191909152604001600020805460ff1916911515919091179055806132b181614e3c565b915050613230565b508015611007576000805461ff0019169055604051600181527f7f26b83ff96e1f2b6a682f133852f6798a09c465da95921460cefb38474024989060200160405180910390a1505050505050565b61330f613a0d565b80613339575060995460ff161580156133395750613339823383604051602001610dff91906151d4565b15613342575050565b604051631eb49d6d60e11b815260040160405180910390fd5b6000805b60a054811015610e385760a0818154811061337c5761337c614da3565b60009182526020909120015460405162169d5560e31b81526001600160a01b039091169062b4eaa8906133b790889088908890600401615341565b602060405180830381865afa1580156133d4573d6000803e3d6000fd5b505050506040513d601f19601f820116820180604052508101906133f8919061536f565b1561340257600191505b8061340c81614e3c565b91505061335f565b8051819060021180613427575080516020105b156112295760405163354b556f60e11b815260040160405180910390fd5b600082828080601f016020809104026020016040519081016040528093929190818152602001838380828437600092019190915250508251929350506002909110905080613494575080516020105b156134b25760405163354b556f60e11b815260040160405180910390fd5b805160005b8181101561302c57600360fc1b8382815181106134d6576134d6614da3565b01602001516001600160f81b03191610806135145750603d60f91b83828151811061350357613503614da3565b01602001516001600160f81b031916115b806135705750603960f81b83828151811061353157613531614da3565b01602001516001600160f81b0319161180156135705750606160f81b83828151811061355f5761355f614da3565b01602001516001600160f81b031916105b80156135a1575082818151811061358957613589614da3565b6020910101516001600160f81b031916601760f91b14155b80156135d257508281815181106135ba576135ba614da3565b6020910101516001600160f81b031916602d60f81b14155b801561360357508281815181106135eb576135eb614da3565b6020910101516001600160f81b031916605f60f81b14155b8015613634575082818151811061361c5761361c614da3565b6020910101516001600160f81b031916600160fd1b14155b156136525760405163f8fa659760e01b815260040160405180910390fd5b6001016134b7565b6110f4604051806020016040528060008152506040518060400160405280600581526020016427bbb732b960d91b815250613307565b7f4910fdfa16fed3260ed0e7147f7cc6da11a60208b5b9406d12a635614ffd91435460ff16156136c35761268f83613d98565b826001600160a01b03166352d1902d6040518163ffffffff1660e01b8152600401602060405180830381865afa92505050801561371d575060408051601f3d908101601f1916820190925261371a91810190615328565b60015b6137805760405162461bcd60e51b815260206004820152602e60248201527f45524331393637557067726164653a206e657720696d706c656d656e7461746960448201526d6f6e206973206e6f74205555505360901b6064820152608401611057565b6000805160206153b383398151915281146137ef5760405162461bcd60e51b815260206004820152602960248201527f45524331393637557067726164653a20756e737570706f727465642070726f786044820152681a58589b195555525160ba1b6064820152608401611057565b5061268f838383613e34565b6040516301ffc9a760e01b815263a485103160e01b60048201526001600160a01b038216906301ffc9a790602401602060405180830381865afa158015613846573d6000803e3d6000fd5b505050506040513d601f19601f8201168201806040525081019061386a919061536f565b15156000036110f457604051636d9250f160e11b815260040160405180910390fd5b6001600160a01b0382166000908152609d60205260409020805460ff1916821580159190911790915561390a5760a080546001810182556000919091527f78fdc8d422c49ced035a9edf18d00d3c6a8d81df210f3e5e448e045e77b41e880180546001600160a01b0384166001600160a01b03199091161790555050565b60005b60a05481101561268f5760a0818154811061392a5761392a614da3565b6000918252602090912001546001600160a01b03908116908416036139fb5760a0805461395990600190615285565b8154811061396957613969614da3565b60009182526020909120015460a080546001600160a01b03909216918390811061399557613995614da3565b9060005260206000200160006101000a8154816001600160a01b0302191690836001600160a01b0316021790555060a08054806139d4576139d4615298565b600082815260209020810160001990810180546001600160a01b0319169055019055505050565b80613a0581614e3c565b91505061390d565b600033609b54609c546040516331a9108f60e11b815260048101919091526001600160a01b039283169290911690636352211e90602401602060405180830381865afa158015613a61573d6000803e3d6000fd5b505050506040513d601f19601f82011682018060405250810190613a859190615225565b6001600160a01b031614905090565b600081604051602001613aa79190614096565b6040516020818303038152906040528051906020012083604051602001613ace9190614096565b604051602081830303815290604052805190602001201490505b92915050565b60008382604051602001613b0392919061538c565b60408051601f1981840301815282825280516020918201206000888152609f835283812080548085028701850190955284865291955093929091830182828015613b6c57602002820191906000526020600020905b815481526020019060010190808311613b58575b5050505050905060005b8151811015613bca5782828281518110613b9257613b92614da3565b602002602001015103613bb85760405163c5c9ad6760e01b815260040160405180910390fd5b80613bc281614e3c565b915050613b76565b506000858152609f602090815260408083208054600181018255908452919092200183905551633be2f95d60e21b81526001600160a01b0385169063ef8be57490613c1b9088908790600401614c57565b6020604051808303816000875af1158015613c3a573d6000803e3d6000fd5b505050506040513d601f19601f820116820180604052508101906110079190615328565b600481511015613ca35760405162461bcd60e51b815260206004820152601060248201526f1d5b9a185b991b1959081c995d995c9d60821b6044820152606401611057565b602081015163b1b7848f60e01b6001600160e01b0319821601613d2257604080518082018252600e81526d70616e69636b65643a2030785f5f60901b602082018181526024860151600481811c600f908116603090810160081b9184160117909317909152925162461bcd60e51b815291929161105791849101614096565b81518060208401fd5b600054610100900460ff16613d965760405162461bcd60e51b815260206004820152602b60248201527f496e697469616c697a61626c653a20636f6e7472616374206973206e6f74206960448201526a6e697469616c697a696e6760a81b6064820152608401611057565b565b6001600160a01b0381163b613e055760405162461bcd60e51b815260206004820152602d60248201527f455243313936373a206e657720696d706c656d656e746174696f6e206973206e60448201526c1bdd08184818dbdb9d1c9858dd609a1b6064820152608401611057565b6000805160206153b383398151915280546001600160a01b0319166001600160a01b0392909216919091179055565b613e3d83613e5f565b600082511180613e4a5750805b1561268f57613e598383613e9f565b50505050565b613e6881613d98565b6040516001600160a01b038216907fbc7cd75a20ee27fd9adebab32041f755214dbc6bffa90cc0225b39da2e5c2d3b90600090a250565b60606001600160a01b0383163b613f075760405162461bcd60e51b815260206004820152602660248201527f416464726573733a2064656c65676174652063616c6c20746f206e6f6e2d636f6044820152651b9d1c9858dd60d21b6064820152608401611057565b600080846001600160a01b031684604051613f2291906151d4565b600060405180830381855af49150503d8060008114613f5d576040519150601f19603f3d011682016040523d82523d6000602084013e613f62565b606091505b5091509150613f8a82826040518060600160405280602781526020016153d360279139613f93565b95945050505050565b60608315613fa2575081613fac565b613fac8383613fb3565b9392505050565b815115613fc35781518083602001fd5b8060405162461bcd60e51b81526004016110579190614096565b508054613fe990614d6f565b6000825580601f10613ff9575050565b601f0160209004906000526020600020908101906110f49190614031565b50805460008255906000526020600020908101906110f491905b5b80821115610b4c5760008155600101614032565b60005b83811015614061578181015183820152602001614049565b50506000910152565b60008151808452614082816020860160208601614046565b601f01601f19169290920160200192915050565b602081526000613fac602083018461406a565b60006020808301818452808551808352604092508286019150828160051b87010184880160005b8381101561414457603f198984030185528151608081518186526140f68287018261406a565b838b01516001600160a01b0316878c0152898401518782038b8901529092509050614121828261406a565b6060938401511515969093019590955250948701949250908601906001016140d0565b509098975050505050505050565b60006020828403121561416457600080fd5b5035919050565b60a08152600061417e60a083018861406a565b8281036020840152614190818861406a565b604084019690965250506060810192909252151560809091015292915050565b60008083601f8401126141c257600080fd5b5081356001600160401b038111156141d957600080fd5b6020830191508360208285010111156141f157600080fd5b9250929050565b6001600160a01b03811681146110f457600080fd5b8035614218816141f8565b919050565b6000806000806060858703121561423357600080fd5b84356001600160401b0381111561424957600080fd5b614255878288016141b0565b9095509350506020850135614269816141f8565b9396929550929360400135925050565b60008060006040848603121561428e57600080fd5b8335614299816141f8565b925060208401356001600160401b038111156142b457600080fd5b6142c0868287016141b0565b9497909650939450505050565b634e487b7160e01b600052604160045260246000fd5b604051601f8201601f191681016001600160401b038111828210171561430b5761430b6142cd565b604052919050565b60006001600160401b0382111561432c5761432c6142cd565b50601f01601f191660200190565b600082601f83011261434b57600080fd5b813561435e61435982614313565b6142e3565b81815284602083860101111561437357600080fd5b816020850160208301376000918101602001919091529392505050565b600080604083850312156143a357600080fd5b8235915060208301356001600160401b038111156143c057600080fd5b6143cc8582860161433a565b9150509250929050565b600080600080604085870312156143ec57600080fd5b84356001600160401b038082111561440357600080fd5b61440f888389016141b0565b9096509450602087013591508082111561442857600080fd5b50614435878288016141b0565b95989497509550505050565b60006020828403121561445357600080fd5b8135613fac816141f8565b6020808252825182820181905260009190848201906040850190845b818110156144965783518352928401929184019160010161447a565b50909695505050505050565b80151581146110f457600080fd5b600080604083850312156144c357600080fd5b82356144ce816141f8565b915060208301356144de816144a2565b809150509250929050565b6000602082840312156144fb57600080fd5b8135613fac816144a2565b6000806040838503121561451957600080fd5b8235614524816141f8565b915060208301356001600160401b038111156143c057600080fd5b6000806040838503121561455257600080fd5b823561455d816141f8565b915060208301356144de816141f8565b60006001600160401b03821115614586576145866142cd565b5060051b60200190565b600080600080606085870312156145a657600080fd5b84356001600160401b03808211156145bd57600080fd5b6145c9888389016141b0565b90965094506020915086820135818111156145e357600080fd5b6145ef89828a0161433a565b94505060408701358181111561460457600080fd5b87019050601f8101881361461757600080fd5b80356146256143598261456d565b81815260059190911b8201830190838101908a83111561464457600080fd5b928401925b8284101561466257833582529284019290840190614649565b979a9699509497505050505050565b60008060006040848603121561468657600080fd5b83356001600160401b0381111561469c57600080fd5b6146a8868287016141b0565b90945092505060208401356146bc816144a2565b809150509250925092565b602081526000825160a060208401526146e360c084018261406a565b90506020840151601f19848303016040850152614700828261406a565b91505060408401516060840152606084015160808401526080840151151560a08401528091505092915050565b80518252600060208201516040602085015261474c604085018261406a565b949350505050565b6000602080830181845280855180835260408601915060408160051b870101925083870160005b828110156147a957603f1988860301845261479785835161472d565b9450928501929085019060010161477b565b5092979650505050505050565b602081526000613fac602083018461472d565b6000602082840312156147db57600080fd5b81356001600160401b038111156147f157600080fd5b61474c8482850161433a565b600082601f83011261480e57600080fd5b8135602061481e6143598361456d565b82815260059290921b8401810191818101908684111561483d57600080fd5b8286015b8481101561487c5780356001600160401b038111156148605760008081fd5b61486e8986838b010161433a565b845250918301918301614841565b509695505050505050565b60006040828403121561489957600080fd5b604051604081016001600160401b0382821081831117156148bc576148bc6142cd565b81604052829350843591506148d0826141f8565b908252602084013590808211156148e657600080fd5b506148f38582860161433a565b6020830152505092915050565b6000806000806060858703121561491657600080fd5b84356001600160401b038082111561492d57600080fd5b614939888389016141b0565b909650945060209150868201358181111561495357600080fd5b61495f89828a016147fd565b94505060408701358181111561497457600080fd5b8701601f8101891361498557600080fd5b80356149936143598261456d565b81815260059190911b8201840190848101908b8311156149b257600080fd5b8584015b838110156149ea578035868111156149ce5760008081fd5b6149dc8e8983890101614887565b8452509186019186016149b6565b50989b979a50959850505050505050565b60008060408385031215614a0e57600080fd5b8235915060208301356001600160401b03811115614a2b57600080fd5b6143cc858286016147fd565b60008060208385031215614a4a57600080fd5b82356001600160401b0380821115614a6157600080fd5b818501915085601f830112614a7557600080fd5b813581811115614a8457600080fd5b8660208260051b8501011115614a9957600080fd5b60209290920196919550909350505050565b6000602080830181845280855180835260408601915060408160051b870101925083870160005b828110156147a957603f19888603018452614aee85835161406a565b94509285019290850190600101614ad2565b6000602080830181845280855180835260408601915060408160051b870101925083870160005b828110156147a957603f19888603018452614b4385835161406a565b94509285019290850190600101614b27565b60008060408385031215614b6857600080fd5b8235915060208301356001600160401b03811115614b8557600080fd5b6143cc85828601614887565b600080600080600060608688031215614ba957600080fd5b85356001600160401b0380821115614bc057600080fd5b614bcc89838a016141b0565b909750955060208801359150614be1826141f8565b90935060408701359080821115614bf757600080fd5b50614c04888289016141b0565b969995985093965092949392505050565b60008060408385031215614c2857600080fd5b8235915060208301356001600160401b03811115614c4557600080fd5b8301604081860312156144de57600080fd5b82815260406020820152600061474c604083018461406a565b600080600080600060a08688031215614c8857600080fd5b85356001600160401b0380821115614c9f57600080fd5b614cab89838a0161433a565b9650602091508188013581811115614cc257600080fd5b614cce8a828b0161433a565b965050604088013581811115614ce357600080fd5b88019050601f81018913614cf657600080fd5b8035614d046143598261456d565b81815260059190911b8201830190838101908b831115614d2357600080fd5b928401925b82841015614d4a578335614d3b816141f8565b82529284019290840190614d28565b8097505050505050614d5e6060870161420d565b949793965091946080013592915050565b600181811c90821680614d8357607f821691505b602082108103611d6c57634e487b7160e01b600052602260045260246000fd5b634e487b7160e01b600052603260045260246000fd5b600060208284031215614dcb57600080fd5b81516001600160401b03811115614de157600080fd5b8201601f81018413614df257600080fd5b8051614e0061435982614313565b818152856020838501011115614e1557600080fd5b613f8a826020830160208601614046565b634e487b7160e01b600052601160045260246000fd5b600060018201614e4e57614e4e614e26565b5060010190565b81835281816020850137506000828201602090810191909152601f909101601f19169091010190565b604081526000614e92604083018587614e55565b9050826020830152949350505050565b8183823760009101908152919050565b80516020808301519190811015611d6c5760001960209190910360031b1b16919050565b601f82111561268f57600081815260208120601f850160051c81016020861015614efd5750805b601f850160051c820191505b8181101561100757828155600101614f09565b81516001600160401b03811115614f3557614f356142cd565b614f4981614f438454614d6f565b84614ed6565b602080601f831160018114614f7e5760008415614f665750858301515b600019600386901b1c1916600185901b178555611007565b600085815260208120601f198616915b82811015614fad57888601518255948401946001909101908401614f8e565b5085821015614fcb5787850151600019600388901b60f8161c191681555b5050505050600190811b01905550565b60008154614fe881614d6f565b808552602060018381168015615005576001811461501f5761504d565b60ff1985168884015283151560051b88018301955061504d565b866000528260002060005b858110156150455781548a820186015290830190840161502a565b890184019650505b505050505092915050565b60408152600061506b604083018561406a565b8281036020840152613f8a8185614fdb565b6001600160401b03831115615094576150946142cd565b6150a8836150a28354614d6f565b83614ed6565b6000601f8411600181146150dc57600085156150c45750838201355b600019600387901b1c1916600186901b17835561302c565b600083815260209020601f19861690835b8281101561510d57868501358255602094850194600190920191016150ed565b508682101561512a5760001960f88860031b161c19848701351681555b505060018560011b0183555050505050565b6020808252602c908201527f46756e6374696f6e206d7573742062652063616c6c6564207468726f7567682060408201526b19195b1959d85d1958d85b1b60a21b606082015260800190565b6020808252602c908201527f46756e6374696f6e206d7573742062652063616c6c6564207468726f7567682060408201526b6163746976652070726f787960a01b606082015260800190565b600082516151e6818460208701614046565b9190910192915050565b604081526000615203604083018561406a565b90508260208301529392505050565b80820180821115613ae857613ae8614e26565b60006020828403121561523757600080fd5b8151613fac816141f8565b604081526000615256604083018587614e55565b82810360208401526152688185614fdb565b9695505050505050565b602081526000613fac6020830184614fdb565b81810381811115613ae857613ae8614e26565b634e487b7160e01b600052603160045260246000fd5b6000808335601e198436030181126152c557600080fd5b8301803591506001600160401b038211156152df57600080fd5b6020019150368190038213156141f157600080fd5b838152818360208301376000910160200190815292915050565b838152604060208201526000613f8a604083018486614e55565b60006020828403121561533a57600080fd5b5051919050565b606081526000615354606083018661406a565b6001600160a01b039490941660208301525060400152919050565b60006020828403121561538157600080fd5b8151613fac816144a2565b828152600082516153a4816020850160208701614046565b91909101602001939250505056fe360894a13ba1a3210667c828492db98dca3e2076cc3735a920a3ca505d382bbc416464726573733a206c6f772d6c6576656c2064656c65676174652063616c6c206661696c6564a2646970667358221220b6177f9d8f5daa75ac9b570d317559bfa3f4c56c7df1af385bc90b2d3e88c68a64736f6c63430008130033",
    "linkReferences": {
      "packages/contracts/src/libraries/Utils.sol": {
        "Utils": [
          {
            "start": 10568,
            "length": 20
          }
        ]
      }
    }
  },
  "methodIdentifiers": {
    "addPermissionsToRole(uint256,string[])": "b7515761",
    "addRoleToChannel(string,address,uint256)": "1dea616a",
    "addRoleToEntitlement(uint256,(address,bytes))": "ba201ba8",
    "channels(uint256)": "e5949b5d",
    "channelsByHash(bytes32)": "129ab3c8",
    "createChannel(string,string,uint256[])": "51f83cea",
    "createRole(string,string[],(address,bytes)[])": "8fcd793d",
    "defaultEntitlements(address)": "fa6433c5",
    "disabled()": "ee070805",
    "entitlements(uint256)": "f28f9b56",
    "getChannelByHash(bytes32)": "703511f8",
    "getChannels()": "9575f6ac",
    "getEntitlementByModuleType(string)": "870b9464",
    "getEntitlementIdsByRoleId(uint256)": "42486e49",
    "getEntitlementModules()": "0d029f75",
    "getPermissionsByRoleId(uint256)": "b4264233",
    "getRoleById(uint256)": "784c872b",
    "getRoles()": "71061398",
    "hasEntitlement(address)": "7f8d06d0",
    "initialize(string,string,address[],address,uint256)": "f3ce6a5b",
    "isEntitledToChannel(string,address,string)": "cea632bc",
    "isEntitledToSpace(address,string)": "20759f9e",
    "multicall(bytes[])": "ac9650d8",
    "name()": "06fdde03",
    "networkId()": "9025e64c",
    "owner()": "8da5cb5b",
    "ownerRoleId()": "d1a6a961",
    "proxiableUUID()": "52d1902d",
    "removePermissionsFromRole(uint256,string[])": "9a8e4c3e",
    "removeRole(uint256)": "92691821",
    "removeRoleFromChannel(string,address,uint256)": "baaf3d57",
    "removeRoleFromEntitlement(uint256,(address,bytes))": "dba81864",
    "roleCount()": "ddf96358",
    "rolesById(uint256)": "e5894ef4",
    "setChannelAccess(string,bool)": "5de151b8",
    "setEntitlementModule(address,bool)": "441555e5",
    "setOwnerRoleId(uint256)": "4999ab16",
    "setSpaceAccess(bool)": "446dc22e",
    "token()": "fc0c546a",
    "tokenId()": "17d70f7c",
    "updateChannel(string,string)": "34a1dd26",
    "updateRole(uint256,string)": "32e704cc",
    "upgradeEntitlement(address,address)": "519607f2",
    "upgradeTo(address)": "3659cfe6",
    "upgradeToAndCall(address,bytes)": "4f1ef286"
  },
  "id": 121
}