{
  "abi": [
    {
      "inputs": [],
      "stateMutability": "nonpayable",
      "type": "constructor"
    },
    {
      "inputs": [],
      "name": "AddRoleFailed",
      "type": "error"
    },
    {
      "inputs": [],
      "name": "ChannelAlreadyRegistered",
      "type": "error"
    },
    {
      "inputs": [],
      "name": "ChannelDoesNotExist",
      "type": "error"
    },
    {
      "inputs": [],
      "name": "EntitlementAlreadyExists",
      "type": "error"
    },
    {
      "inputs": [],
      "name": "EntitlementAlreadyWhitelisted",
      "type": "error"
    },
    {
      "inputs": [],
      "name": "EntitlementModuleNotSupported",
      "type": "error"
    },
    {
      "inputs": [],
      "name": "EntitlementNotWhitelisted",
      "type": "error"
    },
    {
      "inputs": [],
      "name": "InvalidParameters",
      "type": "error"
    },
    {
      "inputs": [],
      "name": "MissingOwnerPermission",
      "type": "error"
    },
    {
      "inputs": [],
      "name": "NameLengthInvalid",
      "type": "error"
    },
    {
      "inputs": [],
      "name": "NotAllowed",
      "type": "error"
    },
    {
      "inputs": [],
      "name": "PermissionAlreadyExists",
      "type": "error"
    },
    {
      "inputs": [],
      "name": "RoleDoesNotExist",
      "type": "error"
    },
    {
      "inputs": [],
      "name": "RoleIsAssignedToEntitlement",
      "type": "error"
    },
    {
      "anonymous": false,
      "inputs": [
        {
          "indexed": false,
          "internalType": "address",
          "name": "previousAdmin",
          "type": "address"
        },
        {
          "indexed": false,
          "internalType": "address",
          "name": "newAdmin",
          "type": "address"
        }
      ],
      "name": "AdminChanged",
      "type": "event"
    },
    {
      "anonymous": false,
      "inputs": [
        {
          "indexed": true,
          "internalType": "address",
          "name": "beacon",
          "type": "address"
        }
      ],
      "name": "BeaconUpgraded",
      "type": "event"
    },
    {
      "anonymous": false,
      "inputs": [
        {
          "indexed": false,
          "internalType": "string",
          "name": "prevURI",
          "type": "string"
        },
        {
          "indexed": false,
          "internalType": "string",
          "name": "newURI",
          "type": "string"
        }
      ],
      "name": "ContractURIUpdated",
      "type": "event"
    },
    {
      "anonymous": false,
      "inputs": [
        {
          "indexed": false,
          "internalType": "uint8",
          "name": "version",
          "type": "uint8"
        }
      ],
      "name": "Initialized",
      "type": "event"
    },
    {
      "anonymous": false,
      "inputs": [
        {
          "indexed": true,
          "internalType": "address",
          "name": "caller",
          "type": "address"
        },
        {
          "indexed": true,
          "internalType": "uint256",
          "name": "roleId",
          "type": "uint256"
        },
        {
          "indexed": false,
          "internalType": "string",
          "name": "roleName",
          "type": "string"
        },
        {
          "indexed": false,
          "internalType": "string",
          "name": "networkId",
          "type": "string"
        }
      ],
      "name": "RoleCreated",
      "type": "event"
    },
    {
      "anonymous": false,
      "inputs": [
        {
          "indexed": true,
          "internalType": "address",
          "name": "caller",
          "type": "address"
        },
        {
          "indexed": true,
          "internalType": "uint256",
          "name": "roleId",
          "type": "uint256"
        },
        {
          "indexed": false,
          "internalType": "string",
          "name": "networkId",
          "type": "string"
        }
      ],
      "name": "RoleRemoved",
      "type": "event"
    },
    {
      "anonymous": false,
      "inputs": [
        {
          "indexed": true,
          "internalType": "address",
          "name": "caller",
          "type": "address"
        },
        {
          "indexed": true,
          "internalType": "uint256",
          "name": "roleId",
          "type": "uint256"
        },
        {
          "indexed": false,
          "internalType": "string",
          "name": "roleName",
          "type": "string"
        },
        {
          "indexed": false,
          "internalType": "string",
          "name": "networkId",
          "type": "string"
        }
      ],
      "name": "RoleUpdated",
      "type": "event"
    },
    {
      "anonymous": false,
      "inputs": [
        {
          "indexed": true,
          "internalType": "address",
          "name": "implementation",
          "type": "address"
        }
      ],
      "name": "Upgraded",
      "type": "event"
    },
    {
      "inputs": [],
      "name": "MODULE_TYPE",
      "outputs": [
        {
          "internalType": "string",
          "name": "",
          "type": "string"
        }
      ],
      "stateMutability": "view",
      "type": "function"
    },
    {
      "inputs": [],
      "name": "MODULE_VERSION",
      "outputs": [
        {
          "internalType": "uint48",
          "name": "",
          "type": "uint48"
        }
      ],
      "stateMutability": "view",
      "type": "function"
    },
    {
      "inputs": [
        {
          "internalType": "uint256",
          "name": "_roleId",
          "type": "uint256"
        },
        {
          "internalType": "string[]",
          "name": "_permissions",
          "type": "string[]"
        }
      ],
      "name": "addPermissionsToRole",
      "outputs": [],
      "stateMutability": "nonpayable",
      "type": "function"
    },
    {
      "inputs": [
        {
          "internalType": "string",
          "name": "_channelId",
          "type": "string"
        },
        {
          "internalType": "address",
          "name": "_entitlement",
          "type": "address"
        },
        {
          "internalType": "uint256",
          "name": "_roleId",
          "type": "uint256"
        }
      ],
      "name": "addRoleToChannel",
      "outputs": [],
      "stateMutability": "nonpayable",
      "type": "function"
    },
    {
      "inputs": [
        {
          "internalType": "uint256",
          "name": "_roleId",
          "type": "uint256"
        },
        {
          "components": [
            {
              "internalType": "address",
              "name": "module",
              "type": "address"
            },
            {
              "internalType": "bytes",
              "name": "data",
              "type": "bytes"
            }
          ],
          "internalType": "struct DataTypes.Entitlement",
          "name": "_entitlement",
          "type": "tuple"
        }
      ],
      "name": "addRoleToEntitlement",
      "outputs": [],
      "stateMutability": "nonpayable",
      "type": "function"
    },
    {
      "inputs": [
        {
          "internalType": "uint256",
          "name": "",
          "type": "uint256"
        }
      ],
      "name": "channels",
      "outputs": [
        {
          "internalType": "bytes32",
          "name": "",
          "type": "bytes32"
        }
      ],
      "stateMutability": "view",
      "type": "function"
    },
    {
      "inputs": [
        {
          "internalType": "bytes32",
          "name": "",
          "type": "bytes32"
        }
      ],
      "name": "channelsByHash",
      "outputs": [
        {
          "internalType": "string",
          "name": "name",
          "type": "string"
        },
        {
          "internalType": "string",
          "name": "channelId",
          "type": "string"
        },
        {
          "internalType": "bytes32",
          "name": "channelHash",
          "type": "bytes32"
        },
        {
          "internalType": "uint256",
          "name": "createdAt",
          "type": "uint256"
        },
        {
          "internalType": "bool",
          "name": "disabled",
          "type": "bool"
        }
      ],
      "stateMutability": "view",
      "type": "function"
    },
    {
      "inputs": [],
      "name": "contractType",
      "outputs": [
        {
          "internalType": "bytes32",
          "name": "",
          "type": "bytes32"
        }
      ],
      "stateMutability": "pure",
      "type": "function"
    },
    {
      "inputs": [],
      "name": "contractURI",
      "outputs": [
        {
          "internalType": "string",
          "name": "",
          "type": "string"
        }
      ],
      "stateMutability": "view",
      "type": "function"
    },
    {
      "inputs": [],
      "name": "contractVersion",
      "outputs": [
        {
          "internalType": "uint8",
          "name": "",
          "type": "uint8"
        }
      ],
      "stateMutability": "pure",
      "type": "function"
    },
    {
      "inputs": [
        {
          "internalType": "string",
          "name": "channelName",
          "type": "string"
        },
        {
          "internalType": "string",
          "name": "channelId",
          "type": "string"
        },
        {
          "internalType": "uint256[]",
          "name": "roleIds",
          "type": "uint256[]"
        }
      ],
      "name": "createChannel",
      "outputs": [
        {
          "internalType": "bytes32",
          "name": "",
          "type": "bytes32"
        }
      ],
      "stateMutability": "nonpayable",
      "type": "function"
    },
    {
      "inputs": [
        {
          "internalType": "string",
          "name": "_roleName",
          "type": "string"
        },
        {
          "internalType": "string[]",
          "name": "_permissions",
          "type": "string[]"
        },
        {
          "components": [
            {
              "internalType": "address",
              "name": "module",
              "type": "address"
            },
            {
              "internalType": "bytes",
              "name": "data",
              "type": "bytes"
            }
          ],
          "internalType": "struct DataTypes.Entitlement[]",
          "name": "_entitlements",
          "type": "tuple[]"
        }
      ],
      "name": "createRole",
      "outputs": [
        {
          "internalType": "uint256",
          "name": "",
          "type": "uint256"
        }
      ],
      "stateMutability": "nonpayable",
      "type": "function"
    },
    {
      "inputs": [
        {
          "internalType": "address",
          "name": "",
          "type": "address"
        }
      ],
      "name": "defaultEntitlements",
      "outputs": [
        {
          "internalType": "bool",
          "name": "",
          "type": "bool"
        }
      ],
      "stateMutability": "view",
      "type": "function"
    },
    {
      "inputs": [],
      "name": "disabled",
      "outputs": [
        {
          "internalType": "bool",
          "name": "",
          "type": "bool"
        }
      ],
      "stateMutability": "view",
      "type": "function"
    },
    {
      "inputs": [
        {
          "internalType": "uint256",
          "name": "",
          "type": "uint256"
        }
      ],
      "name": "entitlements",
      "outputs": [
        {
          "internalType": "address",
          "name": "",
          "type": "address"
        }
      ],
      "stateMutability": "view",
      "type": "function"
    },
    {
      "inputs": [
        {
          "internalType": "bytes32",
          "name": "_channelHash",
          "type": "bytes32"
        }
      ],
      "name": "getChannelByHash",
      "outputs": [
        {
          "components": [
            {
              "internalType": "string",
              "name": "name",
              "type": "string"
            },
            {
              "internalType": "string",
              "name": "channelId",
              "type": "string"
            },
            {
              "internalType": "bytes32",
              "name": "channelHash",
              "type": "bytes32"
            },
            {
              "internalType": "uint256",
              "name": "createdAt",
              "type": "uint256"
            },
            {
              "internalType": "bool",
              "name": "disabled",
              "type": "bool"
            }
          ],
          "internalType": "struct DataTypes.Channel",
          "name": "",
          "type": "tuple"
        }
      ],
      "stateMutability": "view",
      "type": "function"
    },
    {
      "inputs": [
        {
          "internalType": "string",
          "name": "channelId",
          "type": "string"
        }
      ],
      "name": "getChannelInfo",
      "outputs": [
        {
          "components": [
            {
              "internalType": "bytes32",
              "name": "channelHash",
              "type": "bytes32"
            },
            {
              "internalType": "string",
              "name": "channelId",
              "type": "string"
            },
            {
              "internalType": "string",
              "name": "name",
              "type": "string"
            },
            {
              "internalType": "bool",
              "name": "disabled",
              "type": "bool"
            }
          ],
          "internalType": "struct ISpace.ChannelInfo",
          "name": "channelInfo",
          "type": "tuple"
        }
      ],
      "stateMutability": "view",
      "type": "function"
    },
    {
      "inputs": [],
      "name": "getChannels",
      "outputs": [
        {
          "internalType": "bytes32[]",
          "name": "",
          "type": "bytes32[]"
        }
      ],
      "stateMutability": "view",
      "type": "function"
    },
    {
      "inputs": [
        {
          "internalType": "string",
          "name": "_moduleType",
          "type": "string"
        }
      ],
      "name": "getEntitlementByModuleType",
      "outputs": [
        {
          "internalType": "address",
          "name": "",
          "type": "address"
        }
      ],
      "stateMutability": "view",
      "type": "function"
    },
    {
      "inputs": [
        {
          "internalType": "uint256",
          "name": "_roleId",
          "type": "uint256"
        }
      ],
      "name": "getEntitlementIdsByRoleId",
      "outputs": [
        {
          "internalType": "bytes32[]",
          "name": "",
          "type": "bytes32[]"
        }
      ],
      "stateMutability": "view",
      "type": "function"
    },
    {
      "inputs": [],
      "name": "getEntitlementModules",
      "outputs": [
        {
          "components": [
            {
              "internalType": "string",
              "name": "name",
              "type": "string"
            },
            {
              "internalType": "address",
              "name": "moduleAddress",
              "type": "address"
            },
            {
              "internalType": "string",
              "name": "moduleType",
              "type": "string"
            },
            {
              "internalType": "bool",
              "name": "enabled",
              "type": "bool"
            }
          ],
          "internalType": "struct DataTypes.EntitlementModule[]",
          "name": "_entitlementModules",
          "type": "tuple[]"
        }
      ],
      "stateMutability": "view",
      "type": "function"
    },
    {
      "inputs": [
        {
          "internalType": "uint256",
          "name": "_roleId",
          "type": "uint256"
        }
      ],
      "name": "getPermissionsByRoleId",
      "outputs": [
        {
          "internalType": "string[]",
          "name": "",
          "type": "string[]"
        }
      ],
      "stateMutability": "view",
      "type": "function"
    },
    {
      "inputs": [
        {
          "internalType": "uint256",
          "name": "_roleId",
          "type": "uint256"
        }
      ],
      "name": "getRoleById",
      "outputs": [
        {
          "components": [
            {
              "internalType": "uint256",
              "name": "roleId",
              "type": "uint256"
            },
            {
              "internalType": "string",
              "name": "name",
              "type": "string"
            }
          ],
          "internalType": "struct DataTypes.Role",
          "name": "",
          "type": "tuple"
        }
      ],
      "stateMutability": "view",
      "type": "function"
    },
    {
      "inputs": [],
      "name": "getRoles",
      "outputs": [
        {
          "components": [
            {
              "internalType": "uint256",
              "name": "roleId",
              "type": "uint256"
            },
            {
              "internalType": "string",
              "name": "name",
              "type": "string"
            }
          ],
          "internalType": "struct DataTypes.Role[]",
          "name": "",
          "type": "tuple[]"
        }
      ],
      "stateMutability": "view",
      "type": "function"
    },
    {
      "inputs": [],
      "name": "getSpaceInfo",
      "outputs": [
        {
          "components": [
            {
              "internalType": "address",
              "name": "spaceAddress",
              "type": "address"
            },
            {
              "internalType": "address",
              "name": "owner",
              "type": "address"
            },
            {
              "internalType": "string",
              "name": "spaceId",
              "type": "string"
            },
            {
              "internalType": "bool",
              "name": "disabled",
              "type": "bool"
            }
          ],
          "internalType": "struct ISpace.SpaceInfo",
          "name": "spaceInfo",
          "type": "tuple"
        }
      ],
      "stateMutability": "view",
      "type": "function"
    },
    {
      "inputs": [
        {
          "internalType": "address",
          "name": "",
          "type": "address"
        }
      ],
      "name": "hasEntitlement",
      "outputs": [
        {
          "internalType": "bool",
          "name": "",
          "type": "bool"
        }
      ],
      "stateMutability": "view",
      "type": "function"
    },
    {
      "inputs": [
        {
          "internalType": "string",
          "name": "_name",
          "type": "string"
        },
        {
          "internalType": "string",
          "name": "_networkId",
          "type": "string"
        },
        {
          "internalType": "address",
          "name": "_token",
          "type": "address"
        },
        {
          "internalType": "uint256",
          "name": "_tokenId",
          "type": "uint256"
        },
        {
          "internalType": "address[]",
          "name": "_entitlements",
          "type": "address[]"
        }
      ],
      "name": "initialize",
      "outputs": [],
      "stateMutability": "nonpayable",
      "type": "function"
    },
    {
      "inputs": [
        {
          "internalType": "string",
          "name": "_channelId",
          "type": "string"
        },
        {
          "internalType": "address",
          "name": "_user",
          "type": "address"
        },
        {
          "internalType": "string",
          "name": "_permission",
          "type": "string"
        }
      ],
      "name": "isEntitledToChannel",
      "outputs": [
        {
          "internalType": "bool",
          "name": "_entitled",
          "type": "bool"
        }
      ],
      "stateMutability": "view",
      "type": "function"
    },
    {
      "inputs": [
        {
          "internalType": "address",
          "name": "_user",
          "type": "address"
        },
        {
          "internalType": "string",
          "name": "_permission",
          "type": "string"
        }
      ],
      "name": "isEntitledToSpace",
      "outputs": [
        {
          "internalType": "bool",
          "name": "_entitled",
          "type": "bool"
        }
      ],
      "stateMutability": "view",
      "type": "function"
    },
    {
      "inputs": [
        {
          "internalType": "bytes[]",
          "name": "data",
          "type": "bytes[]"
        }
      ],
      "name": "multicall",
      "outputs": [
        {
          "internalType": "bytes[]",
          "name": "results",
          "type": "bytes[]"
        }
      ],
      "stateMutability": "nonpayable",
      "type": "function"
    },
    {
      "inputs": [],
      "name": "name",
      "outputs": [
        {
          "internalType": "string",
          "name": "",
          "type": "string"
        }
      ],
      "stateMutability": "view",
      "type": "function"
    },
    {
      "inputs": [],
      "name": "networkId",
      "outputs": [
        {
          "internalType": "string",
          "name": "",
          "type": "string"
        }
      ],
      "stateMutability": "view",
      "type": "function"
    },
    {
      "inputs": [],
      "name": "owner",
      "outputs": [
        {
          "internalType": "address",
          "name": "",
          "type": "address"
        }
      ],
      "stateMutability": "view",
      "type": "function"
    },
    {
      "inputs": [],
      "name": "ownerRoleId",
      "outputs": [
        {
          "internalType": "uint256",
          "name": "",
          "type": "uint256"
        }
      ],
      "stateMutability": "view",
      "type": "function"
    },
    {
      "inputs": [],
      "name": "proxiableUUID",
      "outputs": [
        {
          "internalType": "bytes32",
          "name": "",
          "type": "bytes32"
        }
      ],
      "stateMutability": "view",
      "type": "function"
    },
    {
      "inputs": [
        {
          "internalType": "uint256",
          "name": "_roleId",
          "type": "uint256"
        },
        {
          "internalType": "string[]",
          "name": "_permissions",
          "type": "string[]"
        }
      ],
      "name": "removePermissionsFromRole",
      "outputs": [],
      "stateMutability": "nonpayable",
      "type": "function"
    },
    {
      "inputs": [
        {
          "internalType": "uint256",
          "name": "_roleId",
          "type": "uint256"
        }
      ],
      "name": "removeRole",
      "outputs": [],
      "stateMutability": "nonpayable",
      "type": "function"
    },
    {
      "inputs": [
        {
          "internalType": "string",
          "name": "_channelId",
          "type": "string"
        },
        {
          "internalType": "address",
          "name": "_entitlement",
          "type": "address"
        },
        {
          "internalType": "uint256",
          "name": "_roleId",
          "type": "uint256"
        }
      ],
      "name": "removeRoleFromChannel",
      "outputs": [],
      "stateMutability": "nonpayable",
      "type": "function"
    },
    {
      "inputs": [
        {
          "internalType": "uint256",
          "name": "_roleId",
          "type": "uint256"
        },
        {
          "components": [
            {
              "internalType": "address",
              "name": "module",
              "type": "address"
            },
            {
              "internalType": "bytes",
              "name": "data",
              "type": "bytes"
            }
          ],
          "internalType": "struct DataTypes.Entitlement",
          "name": "_entitlement",
          "type": "tuple"
        }
      ],
      "name": "removeRoleFromEntitlement",
      "outputs": [],
      "stateMutability": "nonpayable",
      "type": "function"
    },
    {
      "inputs": [],
      "name": "roleCount",
      "outputs": [
        {
          "internalType": "uint256",
          "name": "",
          "type": "uint256"
        }
      ],
      "stateMutability": "view",
      "type": "function"
    },
    {
      "inputs": [
        {
          "internalType": "uint256",
          "name": "",
          "type": "uint256"
        }
      ],
      "name": "rolesById",
      "outputs": [
        {
          "internalType": "uint256",
          "name": "roleId",
          "type": "uint256"
        },
        {
          "internalType": "string",
          "name": "name",
          "type": "string"
        }
      ],
      "stateMutability": "view",
      "type": "function"
    },
    {
      "inputs": [
        {
          "internalType": "string",
          "name": "channelId",
          "type": "string"
        },
        {
          "internalType": "bool",
          "name": "disableChannel",
          "type": "bool"
        }
      ],
      "name": "setChannelAccess",
      "outputs": [],
      "stateMutability": "nonpayable",
      "type": "function"
    },
    {
      "inputs": [
        {
          "internalType": "string",
          "name": "_uri",
          "type": "string"
        }
      ],
      "name": "setContractURI",
      "outputs": [],
      "stateMutability": "nonpayable",
      "type": "function"
    },
    {
      "inputs": [
        {
          "internalType": "address",
          "name": "_entitlementModule",
          "type": "address"
        },
        {
          "internalType": "bool",
          "name": "_whitelist",
          "type": "bool"
        }
      ],
      "name": "setEntitlementModule",
      "outputs": [],
      "stateMutability": "nonpayable",
      "type": "function"
    },
    {
      "inputs": [
        {
          "internalType": "uint256",
          "name": "_roleId",
          "type": "uint256"
        }
      ],
      "name": "setOwnerRoleId",
      "outputs": [],
      "stateMutability": "nonpayable",
      "type": "function"
    },
    {
      "inputs": [
        {
          "internalType": "bool",
          "name": "_disabled",
          "type": "bool"
        }
      ],
      "name": "setSpaceAccess",
      "outputs": [],
      "stateMutability": "nonpayable",
      "type": "function"
    },
    {
      "inputs": [
        {
          "internalType": "bytes4",
          "name": "interfaceId",
          "type": "bytes4"
        }
      ],
      "name": "supportsInterface",
      "outputs": [
        {
          "internalType": "bool",
          "name": "",
          "type": "bool"
        }
      ],
      "stateMutability": "view",
      "type": "function"
    },
    {
      "inputs": [],
      "name": "token",
      "outputs": [
        {
          "internalType": "address",
          "name": "",
          "type": "address"
        }
      ],
      "stateMutability": "view",
      "type": "function"
    },
    {
      "inputs": [],
      "name": "tokenId",
      "outputs": [
        {
          "internalType": "uint256",
          "name": "",
          "type": "uint256"
        }
      ],
      "stateMutability": "view",
      "type": "function"
    },
    {
      "inputs": [
        {
          "internalType": "string",
          "name": "channelId",
          "type": "string"
        },
        {
          "internalType": "string",
          "name": "channelName",
          "type": "string"
        }
      ],
      "name": "updateChannel",
      "outputs": [],
      "stateMutability": "nonpayable",
      "type": "function"
    },
    {
      "inputs": [
        {
          "internalType": "uint256",
          "name": "_roleId",
          "type": "uint256"
        },
        {
          "internalType": "string",
          "name": "_roleName",
          "type": "string"
        }
      ],
      "name": "updateRole",
      "outputs": [],
      "stateMutability": "nonpayable",
      "type": "function"
    },
    {
      "inputs": [
        {
          "internalType": "address",
          "name": "_entitlement",
          "type": "address"
        },
        {
          "internalType": "address",
          "name": "_newEntitlement",
          "type": "address"
        }
      ],
      "name": "upgradeEntitlement",
      "outputs": [],
      "stateMutability": "nonpayable",
      "type": "function"
    },
    {
      "inputs": [
        {
          "internalType": "address",
          "name": "newImplementation",
          "type": "address"
        }
      ],
      "name": "upgradeTo",
      "outputs": [],
      "stateMutability": "nonpayable",
      "type": "function"
    },
    {
      "inputs": [
        {
          "internalType": "address",
          "name": "newImplementation",
          "type": "address"
        },
        {
          "internalType": "bytes",
          "name": "data",
          "type": "bytes"
        }
      ],
      "name": "upgradeToAndCall",
      "outputs": [],
      "stateMutability": "payable",
      "type": "function"
    }
  ],
  "bytecode": {
    "object": "0x60a0604052306080523480156200001557600080fd5b506200002062000026565b620000e8565b600054610100900460ff1615620000935760405162461bcd60e51b815260206004820152602760248201527f496e697469616c697a61626c653a20636f6e747261637420697320696e697469604482015266616c697a696e6760c81b606482015260840160405180910390fd5b60005460ff9081161015620000e6576000805460ff191660ff9081179091556040519081527f7f26b83ff96e1f2b6a682f133852f6798a09c465da95921460cefb38474024989060200160405180910390a15b565b6080516159d56200012060003960008181611594015281816115d401528181611925015281816119650152611eae01526159d56000f3fe6080604052600436106103355760003560e01c8063870b9464116101ab578063ba201ba8116100f7578063e5894ef411610095578063ee0708051161006f578063ee070805146109ee578063f28f9b5614610a08578063fa6433c514610a28578063fc0c546a14610a5857600080fd5b8063e5894ef41461098b578063e5949b5d146109b9578063e8a3d485146109d957600080fd5b8063cea632bc116100d1578063cea632bc1461091f578063d1a6a9611461093f578063dba8186414610955578063ddf963581461097557600080fd5b8063ba201ba8146108c4578063baaf3d57146108e4578063cb2ef6f71461090457600080fd5b80639575f6ac11610164578063a0a8e4601161013e578063a0a8e4601461082e578063ac9650d81461084a578063b426423314610877578063b7515761146108a457600080fd5b80639575f6ac146107cc5780639a8e4c3e146107e1578063a0724b691461080157600080fd5b8063870b94641461070a5780638da5cb5b146107425780638fcd793d146107575780639025e64c14610777578063926918211461078c578063938e3d7b146107ac57600080fd5b8063441555e5116102855780635775029f1161022357806371061398116101fd578063710613981461065f578063784c872b146106815780637f8d06d0146106ae57806381ed9808146106de57600080fd5b80635775029f146105e15780635de151b814610612578063703511f81461063257600080fd5b80634f1ef2861161025f5780634f1ef28614610579578063519607f21461058c57806351f83cea146105ac57806352d1902d146105cc57600080fd5b8063441555e514610519578063446dc22e146105395780634999ab161461055957600080fd5b80631dea616a116102f257806332e704cc116102cc57806332e704cc1461048c57806334a1dd26146104ac5780633659cfe6146104cc57806342486e49146104ec57600080fd5b80631dea616a1461042a57806320759f9e1461044c57806322bcd7641461046c57600080fd5b806301ffc9a71461033a57806306fdde031461036f5780630d029f7514610391578063129ab3c8146103b357806316a78b04146103e457806317d70f7c14610406575b600080fd5b34801561034657600080fd5b5061035a6103553660046144ed565b610a78565b60405190151581526020015b60405180910390f35b34801561037b57600080fd5b50610384610aaf565b6040516103669190614567565b34801561039d57600080fd5b506103a6610b3d565b604051610366919061457a565b3480156103bf57600080fd5b506103d36103ce366004614623565b610d7e565b60405161036695949392919061463c565b3480156103f057600080fd5b506103f9610ec1565b6040516103669190614681565b34801561041257600080fd5b5061041c609d5481565b604051908152602001610366565b34801561043657600080fd5b5061044a610445366004614732565b611017565b005b34801561045857600080fd5b5061035a61046736600461478e565b61114e565b34801561047857600080fd5b5061044a6104873660046148c8565b6111a4565b34801561049857600080fd5b5061044a6104a73660046149cb565b61138e565b3480156104b857600080fd5b5061044a6104c7366004614a11565b611490565b3480156104d857600080fd5b5061044a6104e7366004614a7c565b61158a565b3480156104f857600080fd5b5061050c610507366004614623565b611669565b6040516103669190614a99565b34801561052557600080fd5b5061044a610534366004614aeb565b6116cb565b34801561054557600080fd5b5061044a610554366004614b24565b61179f565b34801561056557600080fd5b5061044a610574366004614623565b6117d7565b61044a610587366004614b41565b61191b565b34801561059857600080fd5b5061044a6105a7366004614b7a565b6119e7565b3480156105b857600080fd5b5061041c6105c7366004614ba8565b611b02565b3480156105d857600080fd5b5061041c611ea1565b3480156105ed57600080fd5b5061038460405180604001604052806005815260200164537061636560d81b81525081565b34801561061e57600080fd5b5061044a61062d366004614c89565b611f54565b34801561063e57600080fd5b5061065261064d366004614623565b61201a565b6040516103669190614cdf565b34801561066b57600080fd5b506106746121ab565b6040516103669190614d6c565b34801561068d57600080fd5b506106a161069c366004614623565b612319565b6040516103669190614dce565b3480156106ba57600080fd5b5061035a6106c9366004614a7c565b609e6020526000908152604090205460ff1681565b3480156106ea57600080fd5b506106f3600181565b60405165ffffffffffff9091168152602001610366565b34801561071657600080fd5b5061072a610725366004614de1565b6123ef565b6040516001600160a01b039091168152602001610366565b34801561074e57600080fd5b5061072a6124d8565b34801561076357600080fd5b5061041c610772366004614f18565b61254f565b34801561078357600080fd5b50610384612882565b34801561079857600080fd5b5061044a6107a7366004614623565b61288f565b3480156107b857600080fd5b5061044a6107c7366004615013565b6129ce565b3480156107d857600080fd5b5061050c612a61565b3480156107ed57600080fd5b5061044a6107fc366004615054565b612ab9565b34801561080d57600080fd5b5061082161081c366004615013565b612cce565b6040516103669190615090565b34801561083a57600080fd5b5060405160018152602001610366565b34801561085657600080fd5b5061086a6108653660046150ec565b612e31565b6040516103669190615160565b34801561088357600080fd5b50610897610892366004614623565b612f48565b60405161036691906151b5565b3480156108b057600080fd5b5061044a6108bf366004615054565b613095565b3480156108d057600080fd5b5061044a6108df36600461520a565b613235565b3480156108f057600080fd5b5061044a6108ff366004614732565b613316565b34801561091057600080fd5b5064537061636560d81b61041c565b34801561092b57600080fd5b5061035a61093a366004615246565b613415565b34801561094b57600080fd5b5061041c609b5481565b34801561096157600080fd5b5061044a6109703660046152ca565b613545565b34801561098157600080fd5b5061041c60a25481565b34801561099757600080fd5b506109ab6109a6366004614623565b6137b6565b60405161036692919061530c565b3480156109c557600080fd5b5061041c6109d4366004614623565b61385b565b3480156109e557600080fd5b5061038461387c565b3480156109fa57600080fd5b50609a5461035a9060ff1681565b348015610a1457600080fd5b5061072a610a23366004614623565b613889565b348015610a3457600080fd5b5061035a610a43366004614a7c565b609f6020526000908152604090205460ff1681565b348015610a6457600080fd5b50609c5461072a906001600160a01b031681565b60006001600160e01b031982166374354ea760e11b1480610aa957506001600160e01b031982166301ffc9a760e01b145b92915050565b60988054610abc90615325565b80601f0160208091040260200160405190810160405280929190818152602001828054610ae890615325565b8015610b355780601f10610b0a57610100808354040283529160200191610b35565b820191906000526020600020905b815481529060010190602001808311610b1857829003601f168201915b505050505081565b60a1546060906001600160401b03811115610b5a57610b5a6147e2565b604051908082528060200260200182016040528015610bad57816020015b60408051608081018252606080825260006020808401829052938301829052908201528252600019909201910181610b785790505b50905060005b60a154811015610d7a57600060a18281548110610bd257610bd2615359565b600091825260208220015460408051608081018083526306fdde0360e01b905290516001600160a01b03909216935091829184916306fdde039160848086019291908187030181865afa158015610c2d573d6000803e3d6000fd5b505050506040513d6000823e601f3d908101601f19168201604052610c55919081019061536f565b815260200160a18481548110610c6d57610c6d615359565b9060005260206000200160009054906101000a90046001600160a01b03166001600160a01b03168152602001826001600160a01b0316636465e69f6040518163ffffffff1660e01b8152600401600060405180830381865afa158015610cd7573d6000803e3d6000fd5b505050506040513d6000823e601f3d908101601f19168201604052610cff919081019061536f565b8152602001609e600060a18681548110610d1b57610d1b615359565b60009182526020808320909101546001600160a01b0316835282019290925260400190205460ff16151590528351849084908110610d5b57610d5b615359565b6020026020010181905250508080610d72906153f2565b915050610bb3565b5090565b60a560205260009081526040902080548190610d9990615325565b80601f0160208091040260200160405190810160405280929190818152602001828054610dc590615325565b8015610e125780601f10610de757610100808354040283529160200191610e12565b820191906000526020600020905b815481529060010190602001808311610df557829003601f168201915b505050505090806001018054610e2790615325565b80601f0160208091040260200160405190810160405280929190818152602001828054610e5390615325565b8015610ea05780601f10610e7557610100808354040283529160200191610ea0565b820191906000526020600020905b815481529060010190602001808311610e8357829003601f168201915b50505050600283015460038401546004909401549293909290915060ff1685565b6040805160808101825260008082526020820181905260609282018390529181019190915260408051608081018252308152609c54609d5492516331a9108f60e11b81526004810193909352909160208301916001600160a01b031690636352211e90602401602060405180830381865afa158015610f44573d6000803e3d6000fd5b505050506040513d601f19601f82011682018060405250810190610f68919061540b565b6001600160a01b0316815260200160998054610f8390615325565b80601f0160208091040260200160405190810160405280929190818152602001828054610faf90615325565b8015610ffc5780601f10610fd157610100808354040283529160200191610ffc565b820191906000526020600020905b815481529060010190602001808311610fdf57829003601f168201915b5050509183525050609a5460ff161515602090910152919050565b61107f84848080601f0160208091040260200160405190810160405280939291908181526020018383808284376000920191909152505060408051808201909152601181527041646452656d6f76654368616e6e656c7360781b602082015291506138b39050565b6001600160a01b0382166000908152609e602052604090205460ff166110b85760405163c1ef36f360e01b815260040160405180910390fd5b600081815260a3602052604081205490036110e65760405163b810dc5d60e01b815260040160405180910390fd5b60405163c513be7760e01b81526001600160a01b0383169063c513be779061111690879087908690600401615451565b600060405180830381600087803b15801561113057600080fd5b505af1158015611144573d6000803e3d6000fd5b5050505050505050565b600061119460405180602001604052806000815250858585604051602001611177929190615475565b60405160208183030381529060405261118f90615485565b6138df565b1561119d575060015b9392505050565b600054610100900460ff16158080156111c45750600054600160ff909116105b806111de5750303b1580156111de575060005460ff166001145b6112465760405162461bcd60e51b815260206004820152602e60248201527f496e697469616c697a61626c653a20636f6e747261637420697320616c72656160448201526d191e481a5b9a5d1a585b1a5e995960921b60648201526084015b60405180910390fd5b6000805460ff191660011790558015611269576000805461ff0019166101001790555b611271613998565b611279613998565b609861128587826154ef565b50609961129286826154ef565b50609c80546001600160a01b0319166001600160a01b038616179055609d83905560005b825181101561133f576112e38382815181106112d4576112d4615359565b60200260200101516001613a05565b6001609f60008584815181106112fb576112fb615359565b6020908102919091018101516001600160a01b03168252810191909152604001600020805460ff191691151591909117905580611337816153f2565b9150506112b6565b508015611386576000805461ff0019169055604051600181527f7f26b83ff96e1f2b6a682f133852f6798a09c465da95921460cefb38474024989060200160405180910390a15b505050505050565b6113d260405180602001604052806000815250604051806040016040528060138152602001724d6f64696679537061636553657474696e677360681b8152506138b3565b6113db81613b86565b609b5482036113fd57604051631eb49d6d60e11b815260040160405180910390fd5b600082815260a36020526040812054900361142b5760405163b810dc5d60e01b815260040160405180910390fd5b600082815260a36020526040902060010161144682826154ef565b5081336001600160a01b03167ff3c55faf0b13ffa681c984baddbb8ef7638e514188ea19bd6461d7f87b9c795383609960405161148492919061562b565b60405180910390a35050565b6114d2604051806020016040528060008152506040518060400160405280601181526020017041646452656d6f76654368616e6e656c7360781b8152506138b3565b61151182828080601f016020809104026020016040519081016040528093929190818152602001838380828437600092019190915250613b8692505050565b60008484604051602001611526929190615475565b60408051601f198184030181529181528151602092830120600081815260a590935290822060020154909250900361157157604051636ddd9da960e01b815260040160405180910390fd5b600081815260a560205260409020611386838583615650565b6001600160a01b037f00000000000000000000000000000000000000000000000000000000000000001630036115d25760405162461bcd60e51b815260040161123d9061570f565b7f00000000000000000000000000000000000000000000000000000000000000006001600160a01b031661161b60008051602061598e833981519152546001600160a01b031690565b6001600160a01b0316146116415760405162461bcd60e51b815260040161123d9061575b565b61164a81613bb7565b6040805160008082526020820190925261166691839190613c0c565b50565b600081815260a060209081526040918290208054835181840281018401909452808452606093928301828280156116bf57602002820191906000526020600020905b8154815260200190600101908083116116ab575b50505050509050919050565b611701604051806020016040528060008152506040518060400160405280600581526020016427bbb732b960d91b8152506138b3565b61170a82613d77565b80801561172f57506001600160a01b0382166000908152609e602052604090205460ff165b1561174d5760405163186abc9b60e01b815260040160405180910390fd5b8015801561177357506001600160a01b0382166000908152609f602052604090205460ff165b1561179157604051631eb49d6d60e11b815260040160405180910390fd5b61179b8282613a05565b5050565b6117a7613e08565b6117c457604051631eb49d6d60e11b815260040160405180910390fd5b609a805460ff1916911515919091179055565b6117df613e08565b6117fc57604051631eb49d6d60e11b815260040160405180910390fd5b609b541561181d57604051631eb49d6d60e11b815260040160405180910390fd5b600081815260a36020526040812054900361184b5760405163b810dc5d60e01b815260040160405180910390fd5b6000805b600083815260a460205260409020548110156118f6576040518060400160405280600581526020016427bbb732b960d91b81525060405160200161189391906157a7565b6040516020818303038152906040526118ab90615485565b600084815260a4602052604090208054839081106118cb576118cb615359565b9060005260206000200154036118e457600191506118f6565b806118ee816153f2565b91505061184f565b508061191557604051633e74bd6360e21b815260040160405180910390fd5b50609b55565b6001600160a01b037f00000000000000000000000000000000000000000000000000000000000000001630036119635760405162461bcd60e51b815260040161123d9061570f565b7f00000000000000000000000000000000000000000000000000000000000000006001600160a01b03166119ac60008051602061598e833981519152546001600160a01b031690565b6001600160a01b0316146119d25760405162461bcd60e51b815260040161123d9061575b565b6119db82613bb7565b61179b82826001613c0c565b611a1d604051806020016040528060008152506040518060400160405280600581526020016427bbb732b960d91b8152506138b3565b6001600160a01b0382161580611a3a57506001600160a01b038116155b15611a5857604051630e52390960e41b815260040160405180910390fd5b6001600160a01b0382166000908152609e602052604090205460ff16611a915760405163c1ef36f360e01b815260040160405180910390fd5b604051631b2ce7f360e11b81526001600160a01b038281166004830152831690633659cfe690602401600060405180830381600087803b158015611ad457600080fd5b505af1925050508015611ae5575060015b61179b57604051630e52390960e41b815260040160405180910390fd5b6000611b46604051806020016040528060008152506040518060400160405280601181526020017041646452656d6f76654368616e6e656c7360781b8152506138b3565b611b8585858080601f016020809104026020016040519081016040528093929190818152602001838380828437600092019190915250613b8692505050565b600083604051602001611b9891906157a7565b60408051601f198184030181529181528151602092830120600081815260a590935291206002015490915015611be157604051630139324b60e41b815260040160405180910390fd5b6040518060a0016040528087878080601f016020809104026020016040519081016040528093929190818152602001838380828437600092018290525093855250505060208083018890526040808401869052426060850152608090930182905284825260a590522081518190611c5890826154ef565b5060208201516001820190611c6d90826154ef565b5060408201516002820155606082015160038201556080909101516004909101805460ff191691151591909117905560a6805460018101825560009182527f2da56674729343acc9933752c8c469a244252915242eb6d4c02d11ddd69164a1018290555b60a154811015611e9757600060a18281548110611cf057611cf0615359565b600091825260209091200154609b5460405163c513be7760e01b81526001600160a01b039092169250829163c513be7791611d30918a91906004016157c3565b600060405180830381600087803b158015611d4a57600080fd5b505af1158015611d5e573d6000803e3d6000fd5b5050505060005b8551811015611e8257609b54868281518110611d8357611d83615359565b60200260200101510315611e705760a36000878381518110611da757611da7615359565b6020026020010151815260200190815260200160002060000154600003611de15760405163b810dc5d60e01b815260040160405180910390fd5b816001600160a01b031663c513be7788888481518110611e0357611e03615359565b60200260200101516040518363ffffffff1660e01b8152600401611e289291906157c3565b600060405180830381600087803b158015611e4257600080fd5b505af1925050508015611e53575060015b611e705760405163d9afe50760e01b815260040160405180910390fd5b80611e7a816153f2565b915050611d65565b50508080611e8f906153f2565b915050611cd1565b5095945050505050565b6000306001600160a01b037f00000000000000000000000000000000000000000000000000000000000000001614611f415760405162461bcd60e51b815260206004820152603860248201527f555550535570677261646561626c653a206d757374206e6f742062652063616c60448201527f6c6564207468726f7567682064656c656761746563616c6c0000000000000000606482015260840161123d565b5060008051602061598e83398151915290565b611f96604051806020016040528060008152506040518060400160405280601181526020017041646452656d6f76654368616e6e656c7360781b8152506138b3565b60008383604051602001611fab929190615475565b60408051601f198184030181529181528151602092830120600081815260a5909352908220600201549092509003611ff657604051636ddd9da960e01b815260040160405180910390fd5b600090815260a560205260409020600401805460ff19169115159190911790555050565b6040805160a081018252606080825260208201819052600092820183905281018290526080810191909152600082815260a5602052604090819020815160a0810190925280548290829061206d90615325565b80601f016020809104026020016040519081016040528092919081815260200182805461209990615325565b80156120e65780601f106120bb576101008083540402835291602001916120e6565b820191906000526020600020905b8154815290600101906020018083116120c957829003601f168201915b505050505081526020016001820180546120ff90615325565b80601f016020809104026020016040519081016040528092919081815260200182805461212b90615325565b80156121785780601f1061214d57610100808354040283529160200191612178565b820191906000526020600020905b81548152906001019060200180831161215b57829003601f168201915b5050509183525050600282015460208201526003820154604082015260049091015460ff16151560609091015292915050565b6060600060a2546001600160401b038111156121c9576121c96147e2565b60405190808252806020026020018201604052801561220f57816020015b6040805180820190915260008152606060208201528152602001906001900390816121e75790505b50905060005b60a2548110156123135760a3600061222e8360016157e5565b81526020019081526020016000206040518060400160405290816000820154815260200160018201805461226190615325565b80601f016020809104026020016040519081016040528092919081815260200182805461228d90615325565b80156122da5780601f106122af576101008083540402835291602001916122da565b820191906000526020600020905b8154815290600101906020018083116122bd57829003601f168201915b5050505050815250508282815181106122f5576122f5615359565b6020026020010181905250808061230b906153f2565b915050612215565b50919050565b60408051808201909152600081526060602082015260a360008381526020019081526020016000206040518060400160405290816000820154815260200160018201805461236690615325565b80601f016020809104026020016040519081016040528092919081815260200182805461239290615325565b80156123df5780601f106123b4576101008083540402835291602001916123df565b820191906000526020600020905b8154815290600101906020018083116123c257829003601f168201915b5050505050815250509050919050565b60008060005b60a1548110156124d15761248f60a1828154811061241557612415615359565b600091825260208220015460408051636465e69f60e01b815290516001600160a01b0390921692636465e69f926004808401938290030181865afa158015612461573d6000803e3d6000fd5b505050506040513d6000823e601f3d908101601f19168201604052612489919081019061536f565b85613e8f565b156124bf5760a181815481106124a7576124a7615359565b6000918252602090912001546001600160a01b031691505b806124c9816153f2565b9150506123f5565b5092915050565b609c54609d546040516331a9108f60e11b815260048101919091526000916001600160a01b031690636352211e90602401602060405180830381865afa158015612526573d6000803e3d6000fd5b505050506040513d601f19601f8201168201806040525081019061254a919061540b565b905090565b600061259560405180602001604052806000815250604051806040016040528060138152602001724d6f64696679537061636553657474696e677360681b8152506138b3565b6125d485858080601f016020809104026020016040519081016040528093929190818152602001838380828437600092019190915250613b8692505050565b600060a2600081546125e5906153f2565b91905081905590506000604051806040016040528083815260200188888080601f016020809104026020016040519081016040528093929190818152602001838380828437600092018290525093909452505084815260a36020908152604090912083518155908301519293508392909150600182019061266690826154ef565b5090505060005b855181101561275657609b54151580156126c257506126c286828151811061269757612697615359565b60200260200101516040518060400160405280600581526020016427bbb732b960d91b815250613e8f565b156126e057604051631eb49d6d60e11b815260040160405180910390fd5b60008682815181106126f4576126f4615359565b602002602001015160405160200161270c91906157a7565b60405160208183030381529060405261272490615485565b600085815260a4602090815260408220805460018101825590835291200155508061274e816153f2565b91505061266d565b5060005b845181101561283057600085828151811061277757612777615359565b6020026020010151600001519050600086838151811061279957612799615359565b602002602001015160200151905060006001600160a01b0316826001600160a01b031614806127c757508051155b156127d357505061281e565b6001600160a01b0382166000908152609e602052604081205460ff16151590036128105760405163c1ef36f360e01b815260040160405180910390fd5b61281b858383613ee8565b50505b80612828816153f2565b91505061275a565b5081336001600160a01b03167f39772407c6dd2e83adbd292cdfa17a6817c9a7500e56cfe57b7a82d797f8d39b89896099604051612870939291906157f8565b60405180910390a35095945050505050565b60998054610abc90615325565b6128d360405180602001604052806000815250604051806040016040528060138152602001724d6f64696679537061636553657474696e677360681b8152506138b3565b609b5481036128f557604051631eb49d6d60e11b815260040160405180910390fd5b600081815260a3602052604081205490036129235760405163b810dc5d60e01b815260040160405180910390fd5b600081815260a060205260409020541561295057604051633764405360e11b815260040160405180910390fd5b600081815260a3602052604081208181559061296f6001830182614484565b5050600081815260a460205260408120612988916144be565b80336001600160a01b03167f1d5667a301e36f2d5b1ee32b7f187b0adb46c706297242fa945d3fed1e7f8a1960996040516129c39190615828565b60405180910390a350565b6129d6614064565b612a225760405162461bcd60e51b815260206004820152601860248201527f4d657461646174613a206e6f7420617574686f72697a65640000000000000000604482015260640161123d565b61179b82828080601f01602080910402602001604051908101604052809392919081815260200183838082843760009201919091525061406e92505050565b606060a6805480602002602001604051908101604052809291908181526020018280548015612aaf57602002820191906000526020600020905b815481526020019060010190808311612a9b575b5050505050905090565b612afd60405180602001604052806000815250604051806040016040528060138152602001724d6f64696679537061636553657474696e677360681b8152506138b3565b600082815260a360205260408120549003612b2b5760405163b810dc5d60e01b815260040160405180910390fd5b60005b8151811015612cc957612b4c82828151811061269757612697615359565b15612b6a57604051631eb49d6d60e11b815260040160405180910390fd5b6000828281518110612b7e57612b7e615359565b6020026020010151604051602001612b9691906157a7565b604051602081830303815290604052612bae90615485565b905060005b600085815260a46020526040902054811015612cb457600085815260a460205260409020805483919083908110612bec57612bec615359565b906000526020600020015403612ca257600085815260a4602052604090208054612c189060019061583b565b81548110612c2857612c28615359565b906000526020600020015460a460008781526020019081526020016000208281548110612c5757612c57615359565b906000526020600020018190555060a46000868152602001908152602001600020805480612c8757612c8761584e565b60019003818190600052602060002001600090559055612cb4565b80612cac816153f2565b915050612bb3565b50508080612cc1906153f2565b915050612b2e565b505050565b6040805160808101825260008082526060602083018190529282018390529181019190915260008383604051602001612d08929190615475565b604051602081830303815290604052805190602001209050604051806080016040528082815260200185858080601f016020809104026020016040519081016040528093929190818152602001838380828437600092018290525093855250505083815260a5602090815260409091208054919092019190612d8990615325565b80601f0160208091040260200160405190810160405280929190818152602001828054612db590615325565b8015612e025780601f10612dd757610100808354040283529160200191612e02565b820191906000526020600020905b815481529060010190602001808311612de557829003601f168201915b5050509183525050600092835260a5602090815260409093206004015460ff1615159201919091529392505050565b6060816001600160401b03811115612e4b57612e4b6147e2565b604051908082528060200260200182016040528015612e7e57816020015b6060815260200190600190039081612e695790505b50905060005b828110156124d15760008030868685818110612ea257612ea2615359565b9050602002810190612eb49190615864565b604051612ec2929190615475565b600060405180830381855af49150503d8060008114612efd576040519150601f19603f3d011682016040523d82523d6000602084013e612f02565b606091505b509150915081612f1557612f158161414a565b80848481518110612f2857612f28615359565b602002602001018190525050508080612f40906153f2565b915050612e84565b600081815260a46020526040812054606091816001600160401b03811115612f7257612f726147e2565b604051908082528060200260200182016040528015612fa557816020015b6060815260200190600190039081612f905790505b50905060005b8281101561308d57600085815260a460205260409020805473__$e32e39e2879160f0671841d627aab659f1$__91639201de559184908110612fef57612fef615359565b90600052602060002001546040518263ffffffff1660e01b815260040161301891815260200190565b600060405180830381865af4158015613035573d6000803e3d6000fd5b505050506040513d6000823e601f3d908101601f1916820160405261305d919081019061536f565b82828151811061306f5761306f615359565b60200260200101819052508080613085906153f2565b915050612fab565b509392505050565b6130d960405180602001604052806000815250604051806040016040528060138152602001724d6f64696679537061636553657474696e677360681b8152506138b3565b600082815260a3602052604081205490036131075760405163b810dc5d60e01b815260040160405180910390fd5b60005b8151811015612cc95761312882828151811061269757612697615359565b1561314657604051631eb49d6d60e11b815260040160405180910390fd5b600082828151811061315a5761315a615359565b602002602001015160405160200161317291906157a7565b60405160208183030381529060405261318a90615485565b905060005b600085815260a4602052604090205481101561320357600085815260a4602052604090208054839190839081106131c8576131c8615359565b9060005260206000200154036131f157604051636571d65f60e01b815260040160405180910390fd5b806131fb816153f2565b91505061318f565b50600084815260a46020908152604082208054600181018255908352912001558061322d816153f2565b91505061310a565b61327960405180602001604052806000815250604051806040016040528060138152602001724d6f64696679537061636553657474696e677360681b8152506138b3565b80516001600160a01b03166000908152609e602052604090205460ff166132b35760405163c1ef36f360e01b815260040160405180910390fd5b600082815260a3602052604081205490036132e15760405163b810dc5d60e01b815260040160405180910390fd5b609b54820361330357604051631eb49d6d60e11b815260040160405180910390fd5b61179b8282600001518360200151613ee8565b61337e84848080601f0160208091040260200160405190810160405280939291908181526020018383808284376000920191909152505060408051808201909152601181527041646452656d6f76654368616e6e656c7360781b602082015291506138b39050565b6001600160a01b0382166000908152609e602052604090205460ff166133b75760405163c1ef36f360e01b815260040160405180910390fd5b600081815260a3602052604081205490036133e55760405163b810dc5d60e01b815260040160405180910390fd5b604051637997c1e760e11b81526001600160a01b0383169063f32f83ce9061111690879087908690600401615451565b6000841580613422575081155b8061343457506001600160a01b038416155b1561345257604051630e52390960e41b815260040160405180910390fd5b60008686604051602001613467929190615475565b60408051601f198184030181529181528151602092830120600081815260a59093529082206002015490925090036134b257604051636ddd9da960e01b815260040160405180910390fd5b600081815260a5602052604090206004015460ff16156134e557604051631eb49d6d60e11b815260040160405180910390fd5b61353387878080601f01602080910402602001604051908101604052809392919081815260200183838082843760009201919091525050604051899250611177915088908890602001615475565b15611e97575060019695505050505050565b61358960405180602001604052806000815250604051806040016040528060138152602001724d6f64696679537061636553657474696e677360681b8152506138b3565b609b5482036135ab57604051631eb49d6d60e11b815260040160405180910390fd5b609e60006135bc6020840184614a7c565b6001600160a01b0316815260208101919091526040016000205460ff166135f65760405163c1ef36f360e01b815260040160405180910390fd5b600082815260a3602052604081205490036136245760405163b810dc5d60e01b815260040160405180910390fd5b6000826136346020840184615864565b604051602001613646939291906158aa565b60408051601f198184030181529181528151602092830120600086815260a0909352908220909250905b81548110156137245781818154811061368b5761368b615359565b9060005260206000200154830361371257815482906136ac9060019061583b565b815481106136bc576136bc615359565b90600052602060002001548282815481106136d9576136d9615359565b9060005260206000200181905550818054806136f7576136f761584e565b60019003818190600052602060002001600090559055613724565b8061371c816153f2565b915050613670565b506137326020840184614a7c565b6001600160a01b031663fa6d1adf8561374e6020870187615864565b6040518463ffffffff1660e01b815260040161376c939291906158c4565b6020604051808303816000875af115801561378b573d6000803e3d6000fd5b505050506040513d601f19601f820116820180604052508101906137af91906158de565b5050505050565b60a360205260009081526040902080546001820180549192916137d890615325565b80601f016020809104026020016040519081016040528092919081815260200182805461380490615325565b80156138515780601f1061382657610100808354040283529160200191613851565b820191906000526020600020905b81548152906001019060200180831161383457829003601f168201915b5050505050905082565b60a6818154811061386b57600080fd5b600091825260209091200154905081565b60978054610abc90615325565b60a1818154811061389957600080fd5b6000918252602090912001546001600160a01b0316905081565b6138bd8282614217565b156138c6575050565b604051631eb49d6d60e11b815260040160405180910390fd5b6000805b60a15481101561308d5760a1818154811061390057613900615359565b60009182526020909120015460405162169d5560e31b81526001600160a01b039091169062b4eaa89061393b908890889088906004016158f7565b602060405180830381865afa158015613958573d6000803e3d6000fd5b505050506040513d601f19601f8201168201806040525081019061397c9190615925565b1561398657600191505b80613990816153f2565b9150506138e3565b600054610100900460ff16613a035760405162461bcd60e51b815260206004820152602b60248201527f496e697469616c697a61626c653a20636f6e7472616374206973206e6f74206960448201526a6e697469616c697a696e6760a81b606482015260840161123d565b565b6001600160a01b0382166000908152609e60205260409020805460ff19168215801591909117909155613a835760a180546001810182556000919091527faadc37b8ba5645e62f4546802db221593a94729ccbfc5a97d01365a88f6498780180546001600160a01b0384166001600160a01b03199091161790555050565b60005b60a154811015612cc95760a18181548110613aa357613aa3615359565b6000918252602090912001546001600160a01b0390811690841603613b745760a18054613ad29060019061583b565b81548110613ae257613ae2615359565b60009182526020909120015460a180546001600160a01b039092169183908110613b0e57613b0e615359565b9060005260206000200160006101000a8154816001600160a01b0302191690836001600160a01b0316021790555060a1805480613b4d57613b4d61584e565b600082815260209020810160001990810180546001600160a01b0319169055019055505050565b80613b7e816153f2565b915050613a86565b8051819060021180613b99575080516020105b1561179b5760405163354b556f60e11b815260040160405180910390fd5b613bef60405180602001604052806000815250604051806040016040528060078152602001665570677261646560c81b815250614217565b61166657604051631eb49d6d60e11b815260040160405180910390fd5b7f4910fdfa16fed3260ed0e7147f7cc6da11a60208b5b9406d12a635614ffd91435460ff1615613c3f57612cc98361424b565b826001600160a01b03166352d1902d6040518163ffffffff1660e01b8152600401602060405180830381865afa925050508015613c99575060408051601f3d908101601f19168201909252613c96918101906158de565b60015b613cfc5760405162461bcd60e51b815260206004820152602e60248201527f45524331393637557067726164653a206e657720696d706c656d656e7461746960448201526d6f6e206973206e6f74205555505360901b606482015260840161123d565b60008051602061598e8339815191528114613d6b5760405162461bcd60e51b815260206004820152602960248201527f45524331393637557067726164653a20756e737570706f727465642070726f786044820152681a58589b195555525160ba1b606482015260840161123d565b50612cc98383836142e7565b6040516301ffc9a760e01b815263a485103160e01b60048201526001600160a01b038216906301ffc9a790602401602060405180830381865afa158015613dc2573d6000803e3d6000fd5b505050506040513d601f19601f82011682018060405250810190613de69190615925565b151560000361166657604051636d9250f160e11b815260040160405180910390fd5b600033609c54609d546040516331a9108f60e11b815260048101919091526001600160a01b039283169290911690636352211e90602401602060405180830381865afa158015613e5c573d6000803e3d6000fd5b505050506040513d601f19601f82011682018060405250810190613e80919061540b565b6001600160a01b031614905090565b600081604051602001613ea29190614567565b6040516020818303038152906040528051906020012083604051602001613ec99190614567565b6040516020818303038152906040528051906020012014905092915050565b60008382604051602001613efd929190615942565b60408051601f198184030181528282528051602091820120600088815260a0835283812080548085028701850190955284865291955093929091830182828015613f6657602002820191906000526020600020905b815481526020019060010190808311613f52575b505083519394506000925050505b81811015613fc75783838281518110613f8f57613f8f615359565b602002602001015103613fb55760405163c5c9ad6760e01b815260040160405180910390fd5b80613fbf816153f2565b915050613f74565b50600086815260a0602090815260408083208054600181018255908452919092200184905551633be2f95d60e21b81526001600160a01b0386169063ef8be57490614018908990889060040161530c565b6020604051808303816000875af1158015614037573d6000803e3d6000fd5b505050506040513d601f19601f8201168201806040525081019061405b91906158de565b50505050505050565b600061254a613e08565b60006097805461407d90615325565b80601f01602080910402602001604051908101604052809291908181526020018280546140a990615325565b80156140f65780601f106140cb576101008083540402835291602001916140f6565b820191906000526020600020905b8154815290600101906020018083116140d957829003601f168201915b50505050509050816097908161410c91906154ef565b507fc9c7c3fe08b88b4df9d4d47ef47d2c43d55c025a0ba88ca442580ed9e7348a16818360405161413e929190615968565b60405180910390a15050565b60048151101561418f5760405162461bcd60e51b815260206004820152601060248201526f1d5b9a185b991b1959081c995d995c9d60821b604482015260640161123d565b602081015163b1b7848f60e01b6001600160e01b031982160161420e57604080518082018252600e81526d70616e69636b65643a2030785f5f60901b602082018181526024860151600481811c600f908116603090810160081b9184160117909317909152925162461bcd60e51b815291929161123d91849101614567565b81518060208401fd5b6000614221613e08565b8061119d5750609a5460ff1615801561119d575061119d83338460405160200161117791906157a7565b6001600160a01b0381163b6142b85760405162461bcd60e51b815260206004820152602d60248201527f455243313936373a206e657720696d706c656d656e746174696f6e206973206e60448201526c1bdd08184818dbdb9d1c9858dd609a1b606482015260840161123d565b60008051602061598e83398151915280546001600160a01b0319166001600160a01b0392909216919091179055565b6142f083614312565b6000825111806142fd5750805b15612cc95761430c8383614352565b50505050565b61431b8161424b565b6040516001600160a01b038216907fbc7cd75a20ee27fd9adebab32041f755214dbc6bffa90cc0225b39da2e5c2d3b90600090a250565b60606001600160a01b0383163b6143ba5760405162461bcd60e51b815260206004820152602660248201527f416464726573733a2064656c65676174652063616c6c20746f206e6f6e2d636f6044820152651b9d1c9858dd60d21b606482015260840161123d565b600080846001600160a01b0316846040516143d591906157a7565b600060405180830381855af49150503d8060008114614410576040519150601f19603f3d011682016040523d82523d6000602084013e614415565b606091505b509150915061443d82826040518060600160405280602781526020016159ae60279139614446565b95945050505050565b6060831561445557508161119d565b61119d838381511561446a5781518083602001fd5b8060405162461bcd60e51b815260040161123d9190614567565b50805461449090615325565b6000825580601f106144a0575050565b601f01602090049060005260206000209081019061166691906144d8565b508054600082559060005260206000209081019061166691905b5b80821115610d7a57600081556001016144d9565b6000602082840312156144ff57600080fd5b81356001600160e01b03198116811461119d57600080fd5b60005b8381101561453257818101518382015260200161451a565b50506000910152565b60008151808452614553816020860160208601614517565b601f01601f19169290920160200192915050565b60208152600061119d602083018461453b565b60006020808301818452808551808352604092508286019150828160051b87010184880160005b8381101561461557603f198984030185528151608081518186526145c78287018261453b565b838b01516001600160a01b0316878c0152898401518782038b89015290925090506145f2828261453b565b6060938401511515969093019590955250948701949250908601906001016145a1565b509098975050505050505050565b60006020828403121561463557600080fd5b5035919050565b60a08152600061464f60a083018861453b565b8281036020840152614661818861453b565b604084019690965250506060810192909252151560809091015292915050565b60208152600060018060a01b03808451166020840152806020850151166040840152506040830151608060608401526146bd60a084018261453b565b90506060840151151560808401528091505092915050565b60008083601f8401126146e757600080fd5b5081356001600160401b038111156146fe57600080fd5b60208301915083602082850101111561471657600080fd5b9250929050565b6001600160a01b038116811461166657600080fd5b6000806000806060858703121561474857600080fd5b84356001600160401b0381111561475e57600080fd5b61476a878288016146d5565b909550935050602085013561477e8161471d565b9396929550929360400135925050565b6000806000604084860312156147a357600080fd5b83356147ae8161471d565b925060208401356001600160401b038111156147c957600080fd5b6147d5868287016146d5565b9497909650939450505050565b634e487b7160e01b600052604160045260246000fd5b604051601f8201601f191681016001600160401b0381118282101715614820576148206147e2565b604052919050565b60006001600160401b03821115614841576148416147e2565b50601f01601f191660200190565b600082601f83011261486057600080fd5b813561487361486e82614828565b6147f8565b81815284602083860101111561488857600080fd5b816020850160208301376000918101602001919091529392505050565b60006001600160401b038211156148be576148be6147e2565b5060051b60200190565b600080600080600060a086880312156148e057600080fd5b85356001600160401b03808211156148f757600080fd5b61490389838a0161484f565b965060209150818801358181111561491a57600080fd5b6149268a828b0161484f565b96505060408801356149378161471d565b94506060880135935060808801358181111561495257600080fd5b88019050601f8101891361496557600080fd5b803561497361486e826148a5565b81815260059190911b8201830190838101908b83111561499257600080fd5b928401925b828410156149b95783356149aa8161471d565b82529284019290840190614997565b80955050505050509295509295909350565b600080604083850312156149de57600080fd5b8235915060208301356001600160401b038111156149fb57600080fd5b614a078582860161484f565b9150509250929050565b60008060008060408587031215614a2757600080fd5b84356001600160401b0380821115614a3e57600080fd5b614a4a888389016146d5565b90965094506020870135915080821115614a6357600080fd5b50614a70878288016146d5565b95989497509550505050565b600060208284031215614a8e57600080fd5b813561119d8161471d565b6020808252825182820181905260009190848201906040850190845b81811015614ad157835183529284019291840191600101614ab5565b50909695505050505050565b801515811461166657600080fd5b60008060408385031215614afe57600080fd5b8235614b098161471d565b91506020830135614b1981614add565b809150509250929050565b600060208284031215614b3657600080fd5b813561119d81614add565b60008060408385031215614b5457600080fd5b8235614b5f8161471d565b915060208301356001600160401b038111156149fb57600080fd5b60008060408385031215614b8d57600080fd5b8235614b988161471d565b91506020830135614b198161471d565b60008060008060608587031215614bbe57600080fd5b84356001600160401b0380821115614bd557600080fd5b614be1888389016146d5565b9096509450602091508682013581811115614bfb57600080fd5b614c0789828a0161484f565b945050604087013581811115614c1c57600080fd5b87019050601f81018813614c2f57600080fd5b8035614c3d61486e826148a5565b81815260059190911b8201830190838101908a831115614c5c57600080fd5b928401925b82841015614c7a57833582529284019290840190614c61565b979a9699509497505050505050565b600080600060408486031215614c9e57600080fd5b83356001600160401b03811115614cb457600080fd5b614cc0868287016146d5565b9094509250506020840135614cd481614add565b809150509250925092565b602081526000825160a06020840152614cfb60c084018261453b565b90506020840151601f19848303016040850152614d18828261453b565b91505060408401516060840152606084015160808401526080840151151560a08401528091505092915050565b805182526000602082015160406020850152614d64604085018261453b565b949350505050565b6000602080830181845280855180835260408601915060408160051b870101925083870160005b82811015614dc157603f19888603018452614daf858351614d45565b94509285019290850190600101614d93565b5092979650505050505050565b60208152600061119d6020830184614d45565b600060208284031215614df357600080fd5b81356001600160401b03811115614e0957600080fd5b614d648482850161484f565b600082601f830112614e2657600080fd5b81356020614e3661486e836148a5565b82815260059290921b84018101918181019086841115614e5557600080fd5b8286015b84811015614e945780356001600160401b03811115614e785760008081fd5b614e868986838b010161484f565b845250918301918301614e59565b509695505050505050565b600060408284031215614eb157600080fd5b604051604081016001600160401b038282108183111715614ed457614ed46147e2565b8160405282935084359150614ee88261471d565b90825260208401359080821115614efe57600080fd5b50614f0b8582860161484f565b6020830152505092915050565b60008060008060608587031215614f2e57600080fd5b84356001600160401b0380821115614f4557600080fd5b614f51888389016146d5565b9096509450602091508682013581811115614f6b57600080fd5b614f7789828a01614e15565b945050604087013581811115614f8c57600080fd5b8701601f81018913614f9d57600080fd5b8035614fab61486e826148a5565b81815260059190911b8201840190848101908b831115614fca57600080fd5b8584015b8381101561500257803586811115614fe65760008081fd5b614ff48e8983890101614e9f565b845250918601918601614fce565b50989b979a50959850505050505050565b6000806020838503121561502657600080fd5b82356001600160401b0381111561503c57600080fd5b615048858286016146d5565b90969095509350505050565b6000806040838503121561506757600080fd5b8235915060208301356001600160401b0381111561508457600080fd5b614a0785828601614e15565b602081528151602082015260006020830151608060408401526150b660a084018261453b565b90506040840151601f198483030160608501526150d3828261453b565b9150506060840151151560808401528091505092915050565b600080602083850312156150ff57600080fd5b82356001600160401b038082111561511657600080fd5b818501915085601f83011261512a57600080fd5b81358181111561513957600080fd5b8660208260051b850101111561514e57600080fd5b60209290920196919550909350505050565b6000602080830181845280855180835260408601915060408160051b870101925083870160005b82811015614dc157603f198886030184526151a385835161453b565b94509285019290850190600101615187565b6000602080830181845280855180835260408601915060408160051b870101925083870160005b82811015614dc157603f198886030184526151f885835161453b565b945092850192908501906001016151dc565b6000806040838503121561521d57600080fd5b8235915060208301356001600160401b0381111561523a57600080fd5b614a0785828601614e9f565b60008060008060006060868803121561525e57600080fd5b85356001600160401b038082111561527557600080fd5b61528189838a016146d5565b9097509550602088013591506152968261471d565b909350604087013590808211156152ac57600080fd5b506152b9888289016146d5565b969995985093965092949392505050565b600080604083850312156152dd57600080fd5b8235915060208301356001600160401b038111156152fa57600080fd5b830160408186031215614b1957600080fd5b828152604060208201526000614d64604083018461453b565b600181811c9082168061533957607f821691505b60208210810361231357634e487b7160e01b600052602260045260246000fd5b634e487b7160e01b600052603260045260246000fd5b60006020828403121561538157600080fd5b81516001600160401b0381111561539757600080fd5b8201601f810184136153a857600080fd5b80516153b661486e82614828565b8181528560208385010111156153cb57600080fd5b61443d826020830160208601614517565b634e487b7160e01b600052601160045260246000fd5b600060018201615404576154046153dc565b5060010190565b60006020828403121561541d57600080fd5b815161119d8161471d565b81835281816020850137506000828201602090810191909152601f909101601f19169091010190565b604081526000615465604083018587615428565b9050826020830152949350505050565b8183823760009101908152919050565b805160208083015191908110156123135760001960209190910360031b1b16919050565b601f821115612cc957600081815260208120601f850160051c810160208610156154d05750805b601f850160051c820191505b81811015611386578281556001016154dc565b81516001600160401b03811115615508576155086147e2565b61551c816155168454615325565b846154a9565b602080601f83116001811461555157600084156155395750858301515b600019600386901b1c1916600185901b178555611386565b600085815260208120601f198616915b8281101561558057888601518255948401946001909101908401615561565b508582101561559e5787850151600019600388901b60f8161c191681555b5050505050600190811b01905550565b600081546155bb81615325565b8085526020600183811680156155d857600181146155f257615620565b60ff1985168884015283151560051b880183019550615620565b866000528260002060005b858110156156185781548a82018601529083019084016155fd565b890184019650505b505050505092915050565b60408152600061563e604083018561453b565b828103602084015261443d81856155ae565b6001600160401b03831115615667576156676147e2565b61567b836156758354615325565b836154a9565b6000601f8411600181146156af57600085156156975750838201355b600019600387901b1c1916600186901b1783556137af565b600083815260209020601f19861690835b828110156156e057868501358255602094850194600190920191016156c0565b50868210156156fd5760001960f88860031b161c19848701351681555b505060018560011b0183555050505050565b6020808252602c908201527f46756e6374696f6e206d7573742062652063616c6c6564207468726f7567682060408201526b19195b1959d85d1958d85b1b60a21b606082015260800190565b6020808252602c908201527f46756e6374696f6e206d7573742062652063616c6c6564207468726f7567682060408201526b6163746976652070726f787960a01b606082015260800190565b600082516157b9818460208701614517565b9190910192915050565b6040815260006157d6604083018561453b565b90508260208301529392505050565b80820180821115610aa957610aa96153dc565b60408152600061580c604083018587615428565b828103602084015261581e81856155ae565b9695505050505050565b60208152600061119d60208301846155ae565b81810381811115610aa957610aa96153dc565b634e487b7160e01b600052603160045260246000fd5b6000808335601e1984360301811261587b57600080fd5b8301803591506001600160401b0382111561589557600080fd5b60200191503681900382131561471657600080fd5b838152818360208301376000910160200190815292915050565b83815260406020820152600061443d604083018486615428565b6000602082840312156158f057600080fd5b5051919050565b60608152600061590a606083018661453b565b6001600160a01b039490941660208301525060400152919050565b60006020828403121561593757600080fd5b815161119d81614add565b8281526000825161595a816020850160208701614517565b919091016020019392505050565b60408152600061597b604083018561453b565b828103602084015261443d818561453b56fe360894a13ba1a3210667c828492db98dca3e2076cc3735a920a3ca505d382bbc416464726573733a206c6f772d6c6576656c2064656c65676174652063616c6c206661696c6564",
    "linkReferences": {
      "contracts/src/spaces/libraries/Utils.sol": {
        "Utils": [
          {
            "start": 12517,
            "length": 20
          }
        ]
      }
    }
  },
  "methodIdentifiers": {
    "MODULE_TYPE()": "5775029f",
    "MODULE_VERSION()": "81ed9808",
    "addPermissionsToRole(uint256,string[])": "b7515761",
    "addRoleToChannel(string,address,uint256)": "1dea616a",
    "addRoleToEntitlement(uint256,(address,bytes))": "ba201ba8",
    "channels(uint256)": "e5949b5d",
    "channelsByHash(bytes32)": "129ab3c8",
    "contractType()": "cb2ef6f7",
    "contractURI()": "e8a3d485",
    "contractVersion()": "a0a8e460",
    "createChannel(string,string,uint256[])": "51f83cea",
    "createRole(string,string[],(address,bytes)[])": "8fcd793d",
    "defaultEntitlements(address)": "fa6433c5",
    "disabled()": "ee070805",
    "entitlements(uint256)": "f28f9b56",
    "getChannelByHash(bytes32)": "703511f8",
    "getChannelInfo(string)": "a0724b69",
    "getChannels()": "9575f6ac",
    "getEntitlementByModuleType(string)": "870b9464",
    "getEntitlementIdsByRoleId(uint256)": "42486e49",
    "getEntitlementModules()": "0d029f75",
    "getPermissionsByRoleId(uint256)": "b4264233",
    "getRoleById(uint256)": "784c872b",
    "getRoles()": "71061398",
    "getSpaceInfo()": "16a78b04",
    "hasEntitlement(address)": "7f8d06d0",
    "initialize(string,string,address,uint256,address[])": "22bcd764",
    "isEntitledToChannel(string,address,string)": "cea632bc",
    "isEntitledToSpace(address,string)": "20759f9e",
    "multicall(bytes[])": "ac9650d8",
    "name()": "06fdde03",
    "networkId()": "9025e64c",
    "owner()": "8da5cb5b",
    "ownerRoleId()": "d1a6a961",
    "proxiableUUID()": "52d1902d",
    "removePermissionsFromRole(uint256,string[])": "9a8e4c3e",
    "removeRole(uint256)": "92691821",
    "removeRoleFromChannel(string,address,uint256)": "baaf3d57",
    "removeRoleFromEntitlement(uint256,(address,bytes))": "dba81864",
    "roleCount()": "ddf96358",
    "rolesById(uint256)": "e5894ef4",
    "setChannelAccess(string,bool)": "5de151b8",
    "setContractURI(string)": "938e3d7b",
    "setEntitlementModule(address,bool)": "441555e5",
    "setOwnerRoleId(uint256)": "4999ab16",
    "setSpaceAccess(bool)": "446dc22e",
    "supportsInterface(bytes4)": "01ffc9a7",
    "token()": "fc0c546a",
    "tokenId()": "17d70f7c",
    "updateChannel(string,string)": "34a1dd26",
    "updateRole(uint256,string)": "32e704cc",
    "upgradeEntitlement(address,address)": "519607f2",
    "upgradeTo(address)": "3659cfe6",
    "upgradeToAndCall(address,bytes)": "4f1ef286"
  },
  "id": 82
}