{
  "abi": [
    {
      "inputs": [],
      "stateMutability": "nonpayable",
      "type": "constructor"
    },
    {
      "inputs": [],
      "name": "AddRoleFailed",
      "type": "error"
    },
    {
      "inputs": [],
      "name": "ChannelAlreadyRegistered",
      "type": "error"
    },
    {
      "inputs": [],
      "name": "ChannelDoesNotExist",
      "type": "error"
    },
    {
      "inputs": [],
      "name": "EntitlementAlreadyExists",
      "type": "error"
    },
    {
      "inputs": [],
      "name": "EntitlementAlreadyWhitelisted",
      "type": "error"
    },
    {
      "inputs": [],
      "name": "EntitlementModuleNotSupported",
      "type": "error"
    },
    {
      "inputs": [],
      "name": "EntitlementNotWhitelisted",
      "type": "error"
    },
    {
      "inputs": [],
      "name": "InvalidParameters",
      "type": "error"
    },
    {
      "inputs": [],
      "name": "MissingOwnerPermission",
      "type": "error"
    },
    {
      "inputs": [],
      "name": "NameLengthInvalid",
      "type": "error"
    },
    {
      "inputs": [],
      "name": "NotAllowed",
      "type": "error"
    },
    {
      "inputs": [],
      "name": "PermissionAlreadyExists",
      "type": "error"
    },
    {
      "inputs": [],
      "name": "RoleDoesNotExist",
      "type": "error"
    },
    {
      "inputs": [],
      "name": "RoleIsAssignedToEntitlement",
      "type": "error"
    },
    {
      "anonymous": false,
      "inputs": [
        {
          "indexed": false,
          "internalType": "address",
          "name": "previousAdmin",
          "type": "address"
        },
        {
          "indexed": false,
          "internalType": "address",
          "name": "newAdmin",
          "type": "address"
        }
      ],
      "name": "AdminChanged",
      "type": "event"
    },
    {
      "anonymous": false,
      "inputs": [
        {
          "indexed": true,
          "internalType": "address",
          "name": "beacon",
          "type": "address"
        }
      ],
      "name": "BeaconUpgraded",
      "type": "event"
    },
    {
      "anonymous": false,
      "inputs": [
        {
          "indexed": false,
          "internalType": "string",
          "name": "prevURI",
          "type": "string"
        },
        {
          "indexed": false,
          "internalType": "string",
          "name": "newURI",
          "type": "string"
        }
      ],
      "name": "ContractURIUpdated",
      "type": "event"
    },
    {
      "anonymous": false,
      "inputs": [
        {
          "indexed": false,
          "internalType": "uint8",
          "name": "version",
          "type": "uint8"
        }
      ],
      "name": "Initialized",
      "type": "event"
    },
    {
      "anonymous": false,
      "inputs": [
        {
          "indexed": true,
          "internalType": "address",
          "name": "implementation",
          "type": "address"
        }
      ],
      "name": "Upgraded",
      "type": "event"
    },
    {
      "inputs": [],
      "name": "MODULE_TYPE",
      "outputs": [
        {
          "internalType": "string",
          "name": "",
          "type": "string"
        }
      ],
      "stateMutability": "view",
      "type": "function"
    },
    {
      "inputs": [],
      "name": "MODULE_VERSION",
      "outputs": [
        {
          "internalType": "uint48",
          "name": "",
          "type": "uint48"
        }
      ],
      "stateMutability": "view",
      "type": "function"
    },
    {
      "inputs": [
        {
          "internalType": "uint256",
          "name": "_roleId",
          "type": "uint256"
        },
        {
          "internalType": "string[]",
          "name": "_permissions",
          "type": "string[]"
        }
      ],
      "name": "addPermissionsToRole",
      "outputs": [],
      "stateMutability": "nonpayable",
      "type": "function"
    },
    {
      "inputs": [
        {
          "internalType": "string",
          "name": "_channelId",
          "type": "string"
        },
        {
          "internalType": "address",
          "name": "_entitlement",
          "type": "address"
        },
        {
          "internalType": "uint256",
          "name": "_roleId",
          "type": "uint256"
        }
      ],
      "name": "addRoleToChannel",
      "outputs": [],
      "stateMutability": "nonpayable",
      "type": "function"
    },
    {
      "inputs": [
        {
          "internalType": "uint256",
          "name": "_roleId",
          "type": "uint256"
        },
        {
          "components": [
            {
              "internalType": "address",
              "name": "module",
              "type": "address"
            },
            {
              "internalType": "bytes",
              "name": "data",
              "type": "bytes"
            }
          ],
          "internalType": "struct DataTypes.Entitlement",
          "name": "_entitlement",
          "type": "tuple"
        }
      ],
      "name": "addRoleToEntitlement",
      "outputs": [],
      "stateMutability": "nonpayable",
      "type": "function"
    },
    {
      "inputs": [
        {
          "internalType": "uint256",
          "name": "",
          "type": "uint256"
        }
      ],
      "name": "channels",
      "outputs": [
        {
          "internalType": "bytes32",
          "name": "",
          "type": "bytes32"
        }
      ],
      "stateMutability": "view",
      "type": "function"
    },
    {
      "inputs": [
        {
          "internalType": "bytes32",
          "name": "",
          "type": "bytes32"
        }
      ],
      "name": "channelsByHash",
      "outputs": [
        {
          "internalType": "string",
          "name": "name",
          "type": "string"
        },
        {
          "internalType": "string",
          "name": "channelId",
          "type": "string"
        },
        {
          "internalType": "bytes32",
          "name": "channelHash",
          "type": "bytes32"
        },
        {
          "internalType": "uint256",
          "name": "createdAt",
          "type": "uint256"
        },
        {
          "internalType": "bool",
          "name": "disabled",
          "type": "bool"
        }
      ],
      "stateMutability": "view",
      "type": "function"
    },
    {
      "inputs": [],
      "name": "contractURI",
      "outputs": [
        {
          "internalType": "string",
          "name": "",
          "type": "string"
        }
      ],
      "stateMutability": "view",
      "type": "function"
    },
    {
      "inputs": [
        {
          "internalType": "string",
          "name": "channelName",
          "type": "string"
        },
        {
          "internalType": "string",
          "name": "channelId",
          "type": "string"
        },
        {
          "internalType": "uint256[]",
          "name": "roleIds",
          "type": "uint256[]"
        }
      ],
      "name": "createChannel",
      "outputs": [
        {
          "internalType": "bytes32",
          "name": "",
          "type": "bytes32"
        }
      ],
      "stateMutability": "nonpayable",
      "type": "function"
    },
    {
      "inputs": [
        {
          "internalType": "string",
          "name": "_roleName",
          "type": "string"
        },
        {
          "internalType": "string[]",
          "name": "_permissions",
          "type": "string[]"
        },
        {
          "components": [
            {
              "internalType": "address",
              "name": "module",
              "type": "address"
            },
            {
              "internalType": "bytes",
              "name": "data",
              "type": "bytes"
            }
          ],
          "internalType": "struct DataTypes.Entitlement[]",
          "name": "_entitlements",
          "type": "tuple[]"
        }
      ],
      "name": "createRole",
      "outputs": [
        {
          "internalType": "uint256",
          "name": "",
          "type": "uint256"
        }
      ],
      "stateMutability": "nonpayable",
      "type": "function"
    },
    {
      "inputs": [
        {
          "internalType": "address",
          "name": "",
          "type": "address"
        }
      ],
      "name": "defaultEntitlements",
      "outputs": [
        {
          "internalType": "bool",
          "name": "",
          "type": "bool"
        }
      ],
      "stateMutability": "view",
      "type": "function"
    },
    {
      "inputs": [],
      "name": "disabled",
      "outputs": [
        {
          "internalType": "bool",
          "name": "",
          "type": "bool"
        }
      ],
      "stateMutability": "view",
      "type": "function"
    },
    {
      "inputs": [
        {
          "internalType": "uint256",
          "name": "",
          "type": "uint256"
        }
      ],
      "name": "entitlements",
      "outputs": [
        {
          "internalType": "address",
          "name": "",
          "type": "address"
        }
      ],
      "stateMutability": "view",
      "type": "function"
    },
    {
      "inputs": [
        {
          "internalType": "bytes32",
          "name": "_channelHash",
          "type": "bytes32"
        }
      ],
      "name": "getChannelByHash",
      "outputs": [
        {
          "components": [
            {
              "internalType": "string",
              "name": "name",
              "type": "string"
            },
            {
              "internalType": "string",
              "name": "channelId",
              "type": "string"
            },
            {
              "internalType": "bytes32",
              "name": "channelHash",
              "type": "bytes32"
            },
            {
              "internalType": "uint256",
              "name": "createdAt",
              "type": "uint256"
            },
            {
              "internalType": "bool",
              "name": "disabled",
              "type": "bool"
            }
          ],
          "internalType": "struct DataTypes.Channel",
          "name": "",
          "type": "tuple"
        }
      ],
      "stateMutability": "view",
      "type": "function"
    },
    {
      "inputs": [
        {
          "internalType": "string",
          "name": "channelId",
          "type": "string"
        }
      ],
      "name": "getChannelInfo",
      "outputs": [
        {
          "components": [
            {
              "internalType": "bytes32",
              "name": "channelHash",
              "type": "bytes32"
            },
            {
              "internalType": "string",
              "name": "channelId",
              "type": "string"
            },
            {
              "internalType": "string",
              "name": "name",
              "type": "string"
            },
            {
              "internalType": "bool",
              "name": "disabled",
              "type": "bool"
            }
          ],
          "internalType": "struct ISpace.ChannelInfo",
          "name": "channelInfo",
          "type": "tuple"
        }
      ],
      "stateMutability": "view",
      "type": "function"
    },
    {
      "inputs": [],
      "name": "getChannels",
      "outputs": [
        {
          "internalType": "bytes32[]",
          "name": "",
          "type": "bytes32[]"
        }
      ],
      "stateMutability": "view",
      "type": "function"
    },
    {
      "inputs": [
        {
          "internalType": "string",
          "name": "_moduleType",
          "type": "string"
        }
      ],
      "name": "getEntitlementByModuleType",
      "outputs": [
        {
          "internalType": "address",
          "name": "",
          "type": "address"
        }
      ],
      "stateMutability": "view",
      "type": "function"
    },
    {
      "inputs": [
        {
          "internalType": "uint256",
          "name": "_roleId",
          "type": "uint256"
        }
      ],
      "name": "getEntitlementIdsByRoleId",
      "outputs": [
        {
          "internalType": "bytes32[]",
          "name": "",
          "type": "bytes32[]"
        }
      ],
      "stateMutability": "view",
      "type": "function"
    },
    {
      "inputs": [],
      "name": "getEntitlementModules",
      "outputs": [
        {
          "components": [
            {
              "internalType": "string",
              "name": "name",
              "type": "string"
            },
            {
              "internalType": "address",
              "name": "moduleAddress",
              "type": "address"
            },
            {
              "internalType": "string",
              "name": "moduleType",
              "type": "string"
            },
            {
              "internalType": "bool",
              "name": "enabled",
              "type": "bool"
            }
          ],
          "internalType": "struct DataTypes.EntitlementModule[]",
          "name": "_entitlementModules",
          "type": "tuple[]"
        }
      ],
      "stateMutability": "view",
      "type": "function"
    },
    {
      "inputs": [
        {
          "internalType": "uint256",
          "name": "_roleId",
          "type": "uint256"
        }
      ],
      "name": "getPermissionsByRoleId",
      "outputs": [
        {
          "internalType": "string[]",
          "name": "",
          "type": "string[]"
        }
      ],
      "stateMutability": "view",
      "type": "function"
    },
    {
      "inputs": [
        {
          "internalType": "uint256",
          "name": "_roleId",
          "type": "uint256"
        }
      ],
      "name": "getRoleById",
      "outputs": [
        {
          "components": [
            {
              "internalType": "uint256",
              "name": "roleId",
              "type": "uint256"
            },
            {
              "internalType": "string",
              "name": "name",
              "type": "string"
            }
          ],
          "internalType": "struct DataTypes.Role",
          "name": "",
          "type": "tuple"
        }
      ],
      "stateMutability": "view",
      "type": "function"
    },
    {
      "inputs": [],
      "name": "getRoles",
      "outputs": [
        {
          "components": [
            {
              "internalType": "uint256",
              "name": "roleId",
              "type": "uint256"
            },
            {
              "internalType": "string",
              "name": "name",
              "type": "string"
            }
          ],
          "internalType": "struct DataTypes.Role[]",
          "name": "",
          "type": "tuple[]"
        }
      ],
      "stateMutability": "view",
      "type": "function"
    },
    {
      "inputs": [],
      "name": "getSpaceInfo",
      "outputs": [
        {
          "components": [
            {
              "internalType": "address",
              "name": "spaceAddress",
              "type": "address"
            },
            {
              "internalType": "address",
              "name": "owner",
              "type": "address"
            },
            {
              "internalType": "string",
              "name": "spaceId",
              "type": "string"
            },
            {
              "internalType": "bool",
              "name": "disabled",
              "type": "bool"
            }
          ],
          "internalType": "struct ISpace.SpaceInfo",
          "name": "spaceInfo",
          "type": "tuple"
        }
      ],
      "stateMutability": "view",
      "type": "function"
    },
    {
      "inputs": [
        {
          "internalType": "address",
          "name": "",
          "type": "address"
        }
      ],
      "name": "hasEntitlement",
      "outputs": [
        {
          "internalType": "bool",
          "name": "",
          "type": "bool"
        }
      ],
      "stateMutability": "view",
      "type": "function"
    },
    {
      "inputs": [
        {
          "internalType": "string",
          "name": "_name",
          "type": "string"
        },
        {
          "internalType": "string",
          "name": "_networkId",
          "type": "string"
        },
        {
          "internalType": "address",
          "name": "_token",
          "type": "address"
        },
        {
          "internalType": "uint256",
          "name": "_tokenId",
          "type": "uint256"
        },
        {
          "internalType": "address[]",
          "name": "_entitlements",
          "type": "address[]"
        }
      ],
      "name": "initialize",
      "outputs": [],
      "stateMutability": "nonpayable",
      "type": "function"
    },
    {
      "inputs": [
        {
          "internalType": "string",
          "name": "_channelId",
          "type": "string"
        },
        {
          "internalType": "address",
          "name": "_user",
          "type": "address"
        },
        {
          "internalType": "string",
          "name": "_permission",
          "type": "string"
        }
      ],
      "name": "isEntitledToChannel",
      "outputs": [
        {
          "internalType": "bool",
          "name": "_entitled",
          "type": "bool"
        }
      ],
      "stateMutability": "view",
      "type": "function"
    },
    {
      "inputs": [
        {
          "internalType": "address",
          "name": "_user",
          "type": "address"
        },
        {
          "internalType": "string",
          "name": "_permission",
          "type": "string"
        }
      ],
      "name": "isEntitledToSpace",
      "outputs": [
        {
          "internalType": "bool",
          "name": "_entitled",
          "type": "bool"
        }
      ],
      "stateMutability": "view",
      "type": "function"
    },
    {
      "inputs": [
        {
          "internalType": "bytes[]",
          "name": "data",
          "type": "bytes[]"
        }
      ],
      "name": "multicall",
      "outputs": [
        {
          "internalType": "bytes[]",
          "name": "results",
          "type": "bytes[]"
        }
      ],
      "stateMutability": "nonpayable",
      "type": "function"
    },
    {
      "inputs": [],
      "name": "name",
      "outputs": [
        {
          "internalType": "string",
          "name": "",
          "type": "string"
        }
      ],
      "stateMutability": "view",
      "type": "function"
    },
    {
      "inputs": [],
      "name": "networkId",
      "outputs": [
        {
          "internalType": "string",
          "name": "",
          "type": "string"
        }
      ],
      "stateMutability": "view",
      "type": "function"
    },
    {
      "inputs": [],
      "name": "owner",
      "outputs": [
        {
          "internalType": "address",
          "name": "",
          "type": "address"
        }
      ],
      "stateMutability": "view",
      "type": "function"
    },
    {
      "inputs": [],
      "name": "ownerRoleId",
      "outputs": [
        {
          "internalType": "uint256",
          "name": "",
          "type": "uint256"
        }
      ],
      "stateMutability": "view",
      "type": "function"
    },
    {
      "inputs": [],
      "name": "proxiableUUID",
      "outputs": [
        {
          "internalType": "bytes32",
          "name": "",
          "type": "bytes32"
        }
      ],
      "stateMutability": "view",
      "type": "function"
    },
    {
      "inputs": [
        {
          "internalType": "uint256",
          "name": "_roleId",
          "type": "uint256"
        },
        {
          "internalType": "string[]",
          "name": "_permissions",
          "type": "string[]"
        }
      ],
      "name": "removePermissionsFromRole",
      "outputs": [],
      "stateMutability": "nonpayable",
      "type": "function"
    },
    {
      "inputs": [
        {
          "internalType": "uint256",
          "name": "_roleId",
          "type": "uint256"
        }
      ],
      "name": "removeRole",
      "outputs": [],
      "stateMutability": "nonpayable",
      "type": "function"
    },
    {
      "inputs": [
        {
          "internalType": "string",
          "name": "_channelId",
          "type": "string"
        },
        {
          "internalType": "address",
          "name": "_entitlement",
          "type": "address"
        },
        {
          "internalType": "uint256",
          "name": "_roleId",
          "type": "uint256"
        }
      ],
      "name": "removeRoleFromChannel",
      "outputs": [],
      "stateMutability": "nonpayable",
      "type": "function"
    },
    {
      "inputs": [
        {
          "internalType": "uint256",
          "name": "_roleId",
          "type": "uint256"
        },
        {
          "components": [
            {
              "internalType": "address",
              "name": "module",
              "type": "address"
            },
            {
              "internalType": "bytes",
              "name": "data",
              "type": "bytes"
            }
          ],
          "internalType": "struct DataTypes.Entitlement",
          "name": "_entitlement",
          "type": "tuple"
        }
      ],
      "name": "removeRoleFromEntitlement",
      "outputs": [],
      "stateMutability": "nonpayable",
      "type": "function"
    },
    {
      "inputs": [],
      "name": "roleCount",
      "outputs": [
        {
          "internalType": "uint256",
          "name": "",
          "type": "uint256"
        }
      ],
      "stateMutability": "view",
      "type": "function"
    },
    {
      "inputs": [
        {
          "internalType": "uint256",
          "name": "",
          "type": "uint256"
        }
      ],
      "name": "rolesById",
      "outputs": [
        {
          "internalType": "uint256",
          "name": "roleId",
          "type": "uint256"
        },
        {
          "internalType": "string",
          "name": "name",
          "type": "string"
        }
      ],
      "stateMutability": "view",
      "type": "function"
    },
    {
      "inputs": [
        {
          "internalType": "string",
          "name": "channelId",
          "type": "string"
        },
        {
          "internalType": "bool",
          "name": "disableChannel",
          "type": "bool"
        }
      ],
      "name": "setChannelAccess",
      "outputs": [],
      "stateMutability": "nonpayable",
      "type": "function"
    },
    {
      "inputs": [
        {
          "internalType": "string",
          "name": "_uri",
          "type": "string"
        }
      ],
      "name": "setContractURI",
      "outputs": [],
      "stateMutability": "nonpayable",
      "type": "function"
    },
    {
      "inputs": [
        {
          "internalType": "address",
          "name": "_entitlementModule",
          "type": "address"
        },
        {
          "internalType": "bool",
          "name": "_whitelist",
          "type": "bool"
        }
      ],
      "name": "setEntitlementModule",
      "outputs": [],
      "stateMutability": "nonpayable",
      "type": "function"
    },
    {
      "inputs": [
        {
          "internalType": "uint256",
          "name": "_roleId",
          "type": "uint256"
        }
      ],
      "name": "setOwnerRoleId",
      "outputs": [],
      "stateMutability": "nonpayable",
      "type": "function"
    },
    {
      "inputs": [
        {
          "internalType": "bool",
          "name": "_disabled",
          "type": "bool"
        }
      ],
      "name": "setSpaceAccess",
      "outputs": [],
      "stateMutability": "nonpayable",
      "type": "function"
    },
    {
      "inputs": [
        {
          "internalType": "bytes4",
          "name": "interfaceId",
          "type": "bytes4"
        }
      ],
      "name": "supportsInterface",
      "outputs": [
        {
          "internalType": "bool",
          "name": "",
          "type": "bool"
        }
      ],
      "stateMutability": "view",
      "type": "function"
    },
    {
      "inputs": [],
      "name": "token",
      "outputs": [
        {
          "internalType": "address",
          "name": "",
          "type": "address"
        }
      ],
      "stateMutability": "view",
      "type": "function"
    },
    {
      "inputs": [],
      "name": "tokenId",
      "outputs": [
        {
          "internalType": "uint256",
          "name": "",
          "type": "uint256"
        }
      ],
      "stateMutability": "view",
      "type": "function"
    },
    {
      "inputs": [
        {
          "internalType": "string",
          "name": "channelId",
          "type": "string"
        },
        {
          "internalType": "string",
          "name": "channelName",
          "type": "string"
        }
      ],
      "name": "updateChannel",
      "outputs": [],
      "stateMutability": "nonpayable",
      "type": "function"
    },
    {
      "inputs": [
        {
          "internalType": "uint256",
          "name": "_roleId",
          "type": "uint256"
        },
        {
          "internalType": "string",
          "name": "_roleName",
          "type": "string"
        }
      ],
      "name": "updateRole",
      "outputs": [],
      "stateMutability": "nonpayable",
      "type": "function"
    },
    {
      "inputs": [
        {
          "internalType": "address",
          "name": "_entitlement",
          "type": "address"
        },
        {
          "internalType": "address",
          "name": "_newEntitlement",
          "type": "address"
        }
      ],
      "name": "upgradeEntitlement",
      "outputs": [],
      "stateMutability": "nonpayable",
      "type": "function"
    },
    {
      "inputs": [
        {
          "internalType": "address",
          "name": "newImplementation",
          "type": "address"
        }
      ],
      "name": "upgradeTo",
      "outputs": [],
      "stateMutability": "nonpayable",
      "type": "function"
    },
    {
      "inputs": [
        {
          "internalType": "address",
          "name": "newImplementation",
          "type": "address"
        },
        {
          "internalType": "bytes",
          "name": "data",
          "type": "bytes"
        }
      ],
      "name": "upgradeToAndCall",
      "outputs": [],
      "stateMutability": "payable",
      "type": "function"
    }
  ],
  "bytecode": {
    "object": "0x60a0604052306080523480156200001557600080fd5b506200002062000026565b620000e8565b600054610100900460ff1615620000935760405162461bcd60e51b815260206004820152602760248201527f496e697469616c697a61626c653a20636f6e747261637420697320696e697469604482015266616c697a696e6760c81b606482015260840160405180910390fd5b60005460ff9081161015620000e6576000805460ff191660ff9081179091556040519081527f7f26b83ff96e1f2b6a682f133852f6798a09c465da95921460cefb38474024989060200160405180910390a15b565b608051615968620001206000396000818161152701528181611567015281816118b8015281816118f80152611e4101526159686000f3fe6080604052600436106102ff5760003560e01c806381ed980811610190578063ba201ba8116100dc578063e5894ef411610095578063ee0708051161006f578063ee07080514610981578063f28f9b561461099b578063fa6433c5146109bb578063fc0c546a146109eb57600080fd5b8063e5894ef41461091e578063e5949b5d1461094c578063e8a3d4851461096c57600080fd5b8063ba201ba814610872578063baaf3d5714610892578063cea632bc146108b2578063d1a6a961146108d2578063dba81864146108e8578063ddf963581461090857600080fd5b8063938e3d7b11610149578063a0724b6911610123578063a0724b69146107cb578063ac9650d8146107f8578063b426423314610825578063b75157611461085257600080fd5b8063938e3d7b146107765780639575f6ac146107965780639a8e4c3e146107ab57600080fd5b806381ed9808146106a8578063870b9464146106d45780638da5cb5b1461070c5780638fcd793d146107215780639025e64c14610741578063926918211461075657600080fd5b8063441555e51161024f57806352d1902d11610208578063703511f8116101e2578063703511f8146105fc5780637106139814610629578063784c872b1461064b5780637f8d06d01461067857600080fd5b806352d1902d146105965780635775029f146105ab5780635de151b8146105dc57600080fd5b8063441555e5146104e3578063446dc22e146105035780634999ab16146105235780634f1ef28614610543578063519607f21461055657806351f83cea1461057657600080fd5b80631dea616a116102bc57806332e704cc1161029657806332e704cc1461045657806334a1dd26146104765780633659cfe61461049657806342486e49146104b657600080fd5b80631dea616a146103f457806320759f9e1461041657806322bcd7641461043657600080fd5b806301ffc9a71461030457806306fdde03146103395780630d029f751461035b578063129ab3c81461037d57806316a78b04146103ae57806317d70f7c146103d0575b600080fd5b34801561031057600080fd5b5061032461031f366004614480565b610a0b565b60405190151581526020015b60405180910390f35b34801561034557600080fd5b5061034e610a42565b60405161033091906144fa565b34801561036757600080fd5b50610370610ad0565b604051610330919061450d565b34801561038957600080fd5b5061039d6103983660046145b6565b610d11565b6040516103309594939291906145cf565b3480156103ba57600080fd5b506103c3610e54565b6040516103309190614614565b3480156103dc57600080fd5b506103e6609d5481565b604051908152602001610330565b34801561040057600080fd5b5061041461040f3660046146c5565b610faa565b005b34801561042257600080fd5b50610324610431366004614721565b6110e1565b34801561044257600080fd5b5061041461045136600461485b565b611137565b34801561046257600080fd5b5061041461047136600461495e565b611321565b34801561048257600080fd5b506104146104913660046149a4565b611423565b3480156104a257600080fd5b506104146104b1366004614a0f565b61151d565b3480156104c257600080fd5b506104d66104d13660046145b6565b6115fc565b6040516103309190614a2c565b3480156104ef57600080fd5b506104146104fe366004614a7e565b61165e565b34801561050f57600080fd5b5061041461051e366004614ab7565b611732565b34801561052f57600080fd5b5061041461053e3660046145b6565b61176a565b610414610551366004614ad4565b6118ae565b34801561056257600080fd5b50610414610571366004614b0d565b61197a565b34801561058257600080fd5b506103e6610591366004614b3b565b611a95565b3480156105a257600080fd5b506103e6611e34565b3480156105b757600080fd5b5061034e60405180604001604052806005815260200164537061636560d81b81525081565b3480156105e857600080fd5b506104146105f7366004614c1c565b611ee7565b34801561060857600080fd5b5061061c6106173660046145b6565b611fad565b6040516103309190614c72565b34801561063557600080fd5b5061063e61213e565b6040516103309190614cff565b34801561065757600080fd5b5061066b6106663660046145b6565b6122ac565b6040516103309190614d61565b34801561068457600080fd5b50610324610693366004614a0f565b609e6020526000908152604090205460ff1681565b3480156106b457600080fd5b506106bd600181565b60405165ffffffffffff9091168152602001610330565b3480156106e057600080fd5b506106f46106ef366004614d74565b612382565b6040516001600160a01b039091168152602001610330565b34801561071857600080fd5b506106f461246b565b34801561072d57600080fd5b506103e661073c366004614eab565b6124e2565b34801561074d57600080fd5b5061034e612815565b34801561076257600080fd5b506104146107713660046145b6565b612822565b34801561078257600080fd5b50610414610791366004614fa6565b612961565b3480156107a257600080fd5b506104d66129f4565b3480156107b757600080fd5b506104146107c6366004614fe7565b612a4c565b3480156107d757600080fd5b506107eb6107e6366004614fa6565b612c61565b6040516103309190615023565b34801561080457600080fd5b5061081861081336600461507f565b612dc4565b60405161033091906150f3565b34801561083157600080fd5b506108456108403660046145b6565b612edb565b6040516103309190615148565b34801561085e57600080fd5b5061041461086d366004614fe7565b613028565b34801561087e57600080fd5b5061041461088d36600461519d565b6131c8565b34801561089e57600080fd5b506104146108ad3660046146c5565b6132a9565b3480156108be57600080fd5b506103246108cd3660046151d9565b6133a8565b3480156108de57600080fd5b506103e6609b5481565b3480156108f457600080fd5b5061041461090336600461525d565b6134d8565b34801561091457600080fd5b506103e660a25481565b34801561092a57600080fd5b5061093e6109393660046145b6565b613749565b60405161033092919061529f565b34801561095857600080fd5b506103e66109673660046145b6565b6137ee565b34801561097857600080fd5b5061034e61380f565b34801561098d57600080fd5b50609a546103249060ff1681565b3480156109a757600080fd5b506106f46109b63660046145b6565b61381c565b3480156109c757600080fd5b506103246109d6366004614a0f565b609f6020526000908152604090205460ff1681565b3480156109f757600080fd5b50609c546106f4906001600160a01b031681565b60006001600160e01b031982166383ec8fd960e01b1480610a3c57506001600160e01b031982166301ffc9a760e01b145b92915050565b60988054610a4f906152b8565b80601f0160208091040260200160405190810160405280929190818152602001828054610a7b906152b8565b8015610ac85780601f10610a9d57610100808354040283529160200191610ac8565b820191906000526020600020905b815481529060010190602001808311610aab57829003601f168201915b505050505081565b60a1546060906001600160401b03811115610aed57610aed614775565b604051908082528060200260200182016040528015610b4057816020015b60408051608081018252606080825260006020808401829052938301829052908201528252600019909201910181610b0b5790505b50905060005b60a154811015610d0d57600060a18281548110610b6557610b656152ec565b600091825260208220015460408051608081018083526306fdde0360e01b905290516001600160a01b03909216935091829184916306fdde039160848086019291908187030181865afa158015610bc0573d6000803e3d6000fd5b505050506040513d6000823e601f3d908101601f19168201604052610be89190810190615302565b815260200160a18481548110610c0057610c006152ec565b9060005260206000200160009054906101000a90046001600160a01b03166001600160a01b03168152602001826001600160a01b0316636465e69f6040518163ffffffff1660e01b8152600401600060405180830381865afa158015610c6a573d6000803e3d6000fd5b505050506040513d6000823e601f3d908101601f19168201604052610c929190810190615302565b8152602001609e600060a18681548110610cae57610cae6152ec565b60009182526020808320909101546001600160a01b0316835282019290925260400190205460ff16151590528351849084908110610cee57610cee6152ec565b6020026020010181905250508080610d0590615385565b915050610b46565b5090565b60a560205260009081526040902080548190610d2c906152b8565b80601f0160208091040260200160405190810160405280929190818152602001828054610d58906152b8565b8015610da55780601f10610d7a57610100808354040283529160200191610da5565b820191906000526020600020905b815481529060010190602001808311610d8857829003601f168201915b505050505090806001018054610dba906152b8565b80601f0160208091040260200160405190810160405280929190818152602001828054610de6906152b8565b8015610e335780601f10610e0857610100808354040283529160200191610e33565b820191906000526020600020905b815481529060010190602001808311610e1657829003601f168201915b50505050600283015460038401546004909401549293909290915060ff1685565b6040805160808101825260008082526020820181905260609282018390529181019190915260408051608081018252308152609c54609d5492516331a9108f60e11b81526004810193909352909160208301916001600160a01b031690636352211e90602401602060405180830381865afa158015610ed7573d6000803e3d6000fd5b505050506040513d601f19601f82011682018060405250810190610efb919061539e565b6001600160a01b0316815260200160998054610f16906152b8565b80601f0160208091040260200160405190810160405280929190818152602001828054610f42906152b8565b8015610f8f5780601f10610f6457610100808354040283529160200191610f8f565b820191906000526020600020905b815481529060010190602001808311610f7257829003601f168201915b5050509183525050609a5460ff161515602090910152919050565b61101284848080601f0160208091040260200160405190810160405280939291908181526020018383808284376000920191909152505060408051808201909152601181527041646452656d6f76654368616e6e656c7360781b602082015291506138469050565b6001600160a01b0382166000908152609e602052604090205460ff1661104b5760405163c1ef36f360e01b815260040160405180910390fd5b600081815260a3602052604081205490036110795760405163b810dc5d60e01b815260040160405180910390fd5b60405163c513be7760e01b81526001600160a01b0383169063c513be77906110a9908790879086906004016153e4565b600060405180830381600087803b1580156110c357600080fd5b505af11580156110d7573d6000803e3d6000fd5b5050505050505050565b60006111276040518060200160405280600081525085858560405160200161110a929190615408565b60405160208183030381529060405261112290615418565b613872565b15611130575060015b9392505050565b600054610100900460ff16158080156111575750600054600160ff909116105b806111715750303b158015611171575060005460ff166001145b6111d95760405162461bcd60e51b815260206004820152602e60248201527f496e697469616c697a61626c653a20636f6e747261637420697320616c72656160448201526d191e481a5b9a5d1a585b1a5e995960921b60648201526084015b60405180910390fd5b6000805460ff1916600117905580156111fc576000805461ff0019166101001790555b61120461392b565b61120c61392b565b60986112188782615482565b5060996112258682615482565b50609c80546001600160a01b0319166001600160a01b038616179055609d83905560005b82518110156112d257611276838281518110611267576112676152ec565b60200260200101516001613998565b6001609f600085848151811061128e5761128e6152ec565b6020908102919091018101516001600160a01b03168252810191909152604001600020805460ff1916911515919091179055806112ca81615385565b915050611249565b508015611319576000805461ff0019169055604051600181527f7f26b83ff96e1f2b6a682f133852f6798a09c465da95921460cefb38474024989060200160405180910390a15b505050505050565b61136560405180602001604052806000815250604051806040016040528060138152602001724d6f64696679537061636553657474696e677360681b815250613846565b61136e81613b19565b609b54820361139057604051631eb49d6d60e11b815260040160405180910390fd5b600082815260a3602052604081205490036113be5760405163b810dc5d60e01b815260040160405180910390fd5b600082815260a3602052604090206001016113d98282615482565b5081336001600160a01b03167ff3c55faf0b13ffa681c984baddbb8ef7638e514188ea19bd6461d7f87b9c79538360996040516114179291906155be565b60405180910390a35050565b611465604051806020016040528060008152506040518060400160405280601181526020017041646452656d6f76654368616e6e656c7360781b815250613846565b6114a482828080601f016020809104026020016040519081016040528093929190818152602001838380828437600092019190915250613b1992505050565b600084846040516020016114b9929190615408565b60408051601f198184030181529181528151602092830120600081815260a590935290822060020154909250900361150457604051636ddd9da960e01b815260040160405180910390fd5b600081815260a5602052604090206113198385836155e3565b6001600160a01b037f00000000000000000000000000000000000000000000000000000000000000001630036115655760405162461bcd60e51b81526004016111d0906156a2565b7f00000000000000000000000000000000000000000000000000000000000000006001600160a01b03166115ae600080516020615921833981519152546001600160a01b031690565b6001600160a01b0316146115d45760405162461bcd60e51b81526004016111d0906156ee565b6115dd81613b4a565b604080516000808252602082019092526115f991839190613b9f565b50565b600081815260a0602090815260409182902080548351818402810184019094528084526060939283018282801561165257602002820191906000526020600020905b81548152602001906001019080831161163e575b50505050509050919050565b611694604051806020016040528060008152506040518060400160405280600581526020016427bbb732b960d91b815250613846565b61169d82613d0a565b8080156116c257506001600160a01b0382166000908152609e602052604090205460ff165b156116e05760405163186abc9b60e01b815260040160405180910390fd5b8015801561170657506001600160a01b0382166000908152609f602052604090205460ff165b1561172457604051631eb49d6d60e11b815260040160405180910390fd5b61172e8282613998565b5050565b61173a613d9b565b61175757604051631eb49d6d60e11b815260040160405180910390fd5b609a805460ff1916911515919091179055565b611772613d9b565b61178f57604051631eb49d6d60e11b815260040160405180910390fd5b609b54156117b057604051631eb49d6d60e11b815260040160405180910390fd5b600081815260a3602052604081205490036117de5760405163b810dc5d60e01b815260040160405180910390fd5b6000805b600083815260a46020526040902054811015611889576040518060400160405280600581526020016427bbb732b960d91b815250604051602001611826919061573a565b60405160208183030381529060405261183e90615418565b600084815260a46020526040902080548390811061185e5761185e6152ec565b9060005260206000200154036118775760019150611889565b8061188181615385565b9150506117e2565b50806118a857604051633e74bd6360e21b815260040160405180910390fd5b50609b55565b6001600160a01b037f00000000000000000000000000000000000000000000000000000000000000001630036118f65760405162461bcd60e51b81526004016111d0906156a2565b7f00000000000000000000000000000000000000000000000000000000000000006001600160a01b031661193f600080516020615921833981519152546001600160a01b031690565b6001600160a01b0316146119655760405162461bcd60e51b81526004016111d0906156ee565b61196e82613b4a565b61172e82826001613b9f565b6119b0604051806020016040528060008152506040518060400160405280600581526020016427bbb732b960d91b815250613846565b6001600160a01b03821615806119cd57506001600160a01b038116155b156119eb57604051630e52390960e41b815260040160405180910390fd5b6001600160a01b0382166000908152609e602052604090205460ff16611a245760405163c1ef36f360e01b815260040160405180910390fd5b604051631b2ce7f360e11b81526001600160a01b038281166004830152831690633659cfe690602401600060405180830381600087803b158015611a6757600080fd5b505af1925050508015611a78575060015b61172e57604051630e52390960e41b815260040160405180910390fd5b6000611ad9604051806020016040528060008152506040518060400160405280601181526020017041646452656d6f76654368616e6e656c7360781b815250613846565b611b1885858080601f016020809104026020016040519081016040528093929190818152602001838380828437600092019190915250613b1992505050565b600083604051602001611b2b919061573a565b60408051601f198184030181529181528151602092830120600081815260a590935291206002015490915015611b7457604051630139324b60e41b815260040160405180910390fd5b6040518060a0016040528087878080601f016020809104026020016040519081016040528093929190818152602001838380828437600092018290525093855250505060208083018890526040808401869052426060850152608090930182905284825260a590522081518190611beb9082615482565b5060208201516001820190611c009082615482565b5060408201516002820155606082015160038201556080909101516004909101805460ff191691151591909117905560a6805460018101825560009182527f2da56674729343acc9933752c8c469a244252915242eb6d4c02d11ddd69164a1018290555b60a154811015611e2a57600060a18281548110611c8357611c836152ec565b600091825260209091200154609b5460405163c513be7760e01b81526001600160a01b039092169250829163c513be7791611cc3918a9190600401615756565b600060405180830381600087803b158015611cdd57600080fd5b505af1158015611cf1573d6000803e3d6000fd5b5050505060005b8551811015611e1557609b54868281518110611d1657611d166152ec565b60200260200101510315611e035760a36000878381518110611d3a57611d3a6152ec565b6020026020010151815260200190815260200160002060000154600003611d745760405163b810dc5d60e01b815260040160405180910390fd5b816001600160a01b031663c513be7788888481518110611d9657611d966152ec565b60200260200101516040518363ffffffff1660e01b8152600401611dbb929190615756565b600060405180830381600087803b158015611dd557600080fd5b505af1925050508015611de6575060015b611e035760405163d9afe50760e01b815260040160405180910390fd5b80611e0d81615385565b915050611cf8565b50508080611e2290615385565b915050611c64565b5095945050505050565b6000306001600160a01b037f00000000000000000000000000000000000000000000000000000000000000001614611ed45760405162461bcd60e51b815260206004820152603860248201527f555550535570677261646561626c653a206d757374206e6f742062652063616c60448201527f6c6564207468726f7567682064656c656761746563616c6c000000000000000060648201526084016111d0565b5060008051602061592183398151915290565b611f29604051806020016040528060008152506040518060400160405280601181526020017041646452656d6f76654368616e6e656c7360781b815250613846565b60008383604051602001611f3e929190615408565b60408051601f198184030181529181528151602092830120600081815260a5909352908220600201549092509003611f8957604051636ddd9da960e01b815260040160405180910390fd5b600090815260a560205260409020600401805460ff19169115159190911790555050565b6040805160a081018252606080825260208201819052600092820183905281018290526080810191909152600082815260a5602052604090819020815160a08101909252805482908290612000906152b8565b80601f016020809104026020016040519081016040528092919081815260200182805461202c906152b8565b80156120795780601f1061204e57610100808354040283529160200191612079565b820191906000526020600020905b81548152906001019060200180831161205c57829003601f168201915b50505050508152602001600182018054612092906152b8565b80601f01602080910402602001604051908101604052809291908181526020018280546120be906152b8565b801561210b5780601f106120e05761010080835404028352916020019161210b565b820191906000526020600020905b8154815290600101906020018083116120ee57829003601f168201915b5050509183525050600282015460208201526003820154604082015260049091015460ff16151560609091015292915050565b6060600060a2546001600160401b0381111561215c5761215c614775565b6040519080825280602002602001820160405280156121a257816020015b60408051808201909152600081526060602082015281526020019060019003908161217a5790505b50905060005b60a2548110156122a65760a360006121c1836001615778565b8152602001908152602001600020604051806040016040529081600082015481526020016001820180546121f4906152b8565b80601f0160208091040260200160405190810160405280929190818152602001828054612220906152b8565b801561226d5780601f106122425761010080835404028352916020019161226d565b820191906000526020600020905b81548152906001019060200180831161225057829003601f168201915b505050505081525050828281518110612288576122886152ec565b6020026020010181905250808061229e90615385565b9150506121a8565b50919050565b60408051808201909152600081526060602082015260a36000838152602001908152602001600020604051806040016040529081600082015481526020016001820180546122f9906152b8565b80601f0160208091040260200160405190810160405280929190818152602001828054612325906152b8565b80156123725780601f1061234757610100808354040283529160200191612372565b820191906000526020600020905b81548152906001019060200180831161235557829003601f168201915b5050505050815250509050919050565b60008060005b60a1548110156124645761242260a182815481106123a8576123a86152ec565b600091825260208220015460408051636465e69f60e01b815290516001600160a01b0390921692636465e69f926004808401938290030181865afa1580156123f4573d6000803e3d6000fd5b505050506040513d6000823e601f3d908101601f1916820160405261241c9190810190615302565b85613e22565b156124525760a1818154811061243a5761243a6152ec565b6000918252602090912001546001600160a01b031691505b8061245c81615385565b915050612388565b5092915050565b609c54609d546040516331a9108f60e11b815260048101919091526000916001600160a01b031690636352211e90602401602060405180830381865afa1580156124b9573d6000803e3d6000fd5b505050506040513d601f19601f820116820180604052508101906124dd919061539e565b905090565b600061252860405180602001604052806000815250604051806040016040528060138152602001724d6f64696679537061636553657474696e677360681b815250613846565b61256785858080601f016020809104026020016040519081016040528093929190818152602001838380828437600092019190915250613b1992505050565b600060a26000815461257890615385565b91905081905590506000604051806040016040528083815260200188888080601f016020809104026020016040519081016040528093929190818152602001838380828437600092018290525093909452505084815260a3602090815260409091208351815590830151929350839290915060018201906125f99082615482565b5090505060005b85518110156126e957609b5415158015612655575061265586828151811061262a5761262a6152ec565b60200260200101516040518060400160405280600581526020016427bbb732b960d91b815250613e22565b1561267357604051631eb49d6d60e11b815260040160405180910390fd5b6000868281518110612687576126876152ec565b602002602001015160405160200161269f919061573a565b6040516020818303038152906040526126b790615418565b600085815260a460209081526040822080546001810182559083529120015550806126e181615385565b915050612600565b5060005b84518110156127c357600085828151811061270a5761270a6152ec565b6020026020010151600001519050600086838151811061272c5761272c6152ec565b602002602001015160200151905060006001600160a01b0316826001600160a01b0316148061275a57508051155b156127665750506127b1565b6001600160a01b0382166000908152609e602052604081205460ff16151590036127a35760405163c1ef36f360e01b815260040160405180910390fd5b6127ae858383613e7b565b50505b806127bb81615385565b9150506126ed565b5081336001600160a01b03167f39772407c6dd2e83adbd292cdfa17a6817c9a7500e56cfe57b7a82d797f8d39b898960996040516128039392919061578b565b60405180910390a35095945050505050565b60998054610a4f906152b8565b61286660405180602001604052806000815250604051806040016040528060138152602001724d6f64696679537061636553657474696e677360681b815250613846565b609b54810361288857604051631eb49d6d60e11b815260040160405180910390fd5b600081815260a3602052604081205490036128b65760405163b810dc5d60e01b815260040160405180910390fd5b600081815260a06020526040902054156128e357604051633764405360e11b815260040160405180910390fd5b600081815260a360205260408120818155906129026001830182614417565b5050600081815260a46020526040812061291b91614451565b80336001600160a01b03167f1d5667a301e36f2d5b1ee32b7f187b0adb46c706297242fa945d3fed1e7f8a19609960405161295691906157bb565b60405180910390a350565b612969613ff7565b6129b55760405162461bcd60e51b815260206004820152601860248201527f4d657461646174613a206e6f7420617574686f72697a6564000000000000000060448201526064016111d0565b61172e82828080601f01602080910402602001604051908101604052809392919081815260200183838082843760009201919091525061400192505050565b606060a6805480602002602001604051908101604052809291908181526020018280548015612a4257602002820191906000526020600020905b815481526020019060010190808311612a2e575b5050505050905090565b612a9060405180602001604052806000815250604051806040016040528060138152602001724d6f64696679537061636553657474696e677360681b815250613846565b600082815260a360205260408120549003612abe5760405163b810dc5d60e01b815260040160405180910390fd5b60005b8151811015612c5c57612adf82828151811061262a5761262a6152ec565b15612afd57604051631eb49d6d60e11b815260040160405180910390fd5b6000828281518110612b1157612b116152ec565b6020026020010151604051602001612b29919061573a565b604051602081830303815290604052612b4190615418565b905060005b600085815260a46020526040902054811015612c4757600085815260a460205260409020805483919083908110612b7f57612b7f6152ec565b906000526020600020015403612c3557600085815260a4602052604090208054612bab906001906157ce565b81548110612bbb57612bbb6152ec565b906000526020600020015460a460008781526020019081526020016000208281548110612bea57612bea6152ec565b906000526020600020018190555060a46000868152602001908152602001600020805480612c1a57612c1a6157e1565b60019003818190600052602060002001600090559055612c47565b80612c3f81615385565b915050612b46565b50508080612c5490615385565b915050612ac1565b505050565b6040805160808101825260008082526060602083018190529282018390529181019190915260008383604051602001612c9b929190615408565b604051602081830303815290604052805190602001209050604051806080016040528082815260200185858080601f016020809104026020016040519081016040528093929190818152602001838380828437600092018290525093855250505083815260a5602090815260409091208054919092019190612d1c906152b8565b80601f0160208091040260200160405190810160405280929190818152602001828054612d48906152b8565b8015612d955780601f10612d6a57610100808354040283529160200191612d95565b820191906000526020600020905b815481529060010190602001808311612d7857829003601f168201915b5050509183525050600092835260a5602090815260409093206004015460ff1615159201919091529392505050565b6060816001600160401b03811115612dde57612dde614775565b604051908082528060200260200182016040528015612e1157816020015b6060815260200190600190039081612dfc5790505b50905060005b828110156124645760008030868685818110612e3557612e356152ec565b9050602002810190612e4791906157f7565b604051612e55929190615408565b600060405180830381855af49150503d8060008114612e90576040519150601f19603f3d011682016040523d82523d6000602084013e612e95565b606091505b509150915081612ea857612ea8816140dd565b80848481518110612ebb57612ebb6152ec565b602002602001018190525050508080612ed390615385565b915050612e17565b600081815260a46020526040812054606091816001600160401b03811115612f0557612f05614775565b604051908082528060200260200182016040528015612f3857816020015b6060815260200190600190039081612f235790505b50905060005b8281101561302057600085815260a460205260409020805473__$c1a75f255b63819dc61dbe1dc70b55a79b$__91639201de559184908110612f8257612f826152ec565b90600052602060002001546040518263ffffffff1660e01b8152600401612fab91815260200190565b600060405180830381865af4158015612fc8573d6000803e3d6000fd5b505050506040513d6000823e601f3d908101601f19168201604052612ff09190810190615302565b828281518110613002576130026152ec565b6020026020010181905250808061301890615385565b915050612f3e565b509392505050565b61306c60405180602001604052806000815250604051806040016040528060138152602001724d6f64696679537061636553657474696e677360681b815250613846565b600082815260a36020526040812054900361309a5760405163b810dc5d60e01b815260040160405180910390fd5b60005b8151811015612c5c576130bb82828151811061262a5761262a6152ec565b156130d957604051631eb49d6d60e11b815260040160405180910390fd5b60008282815181106130ed576130ed6152ec565b6020026020010151604051602001613105919061573a565b60405160208183030381529060405261311d90615418565b905060005b600085815260a4602052604090205481101561319657600085815260a46020526040902080548391908390811061315b5761315b6152ec565b90600052602060002001540361318457604051636571d65f60e01b815260040160405180910390fd5b8061318e81615385565b915050613122565b50600084815260a4602090815260408220805460018101825590835291200155806131c081615385565b91505061309d565b61320c60405180602001604052806000815250604051806040016040528060138152602001724d6f64696679537061636553657474696e677360681b815250613846565b80516001600160a01b03166000908152609e602052604090205460ff166132465760405163c1ef36f360e01b815260040160405180910390fd5b600082815260a3602052604081205490036132745760405163b810dc5d60e01b815260040160405180910390fd5b609b54820361329657604051631eb49d6d60e11b815260040160405180910390fd5b61172e8282600001518360200151613e7b565b61331184848080601f0160208091040260200160405190810160405280939291908181526020018383808284376000920191909152505060408051808201909152601181527041646452656d6f76654368616e6e656c7360781b602082015291506138469050565b6001600160a01b0382166000908152609e602052604090205460ff1661334a5760405163c1ef36f360e01b815260040160405180910390fd5b600081815260a3602052604081205490036133785760405163b810dc5d60e01b815260040160405180910390fd5b604051637997c1e760e11b81526001600160a01b0383169063f32f83ce906110a9908790879086906004016153e4565b60008415806133b5575081155b806133c757506001600160a01b038416155b156133e557604051630e52390960e41b815260040160405180910390fd5b600086866040516020016133fa929190615408565b60408051601f198184030181529181528151602092830120600081815260a590935290822060020154909250900361344557604051636ddd9da960e01b815260040160405180910390fd5b600081815260a5602052604090206004015460ff161561347857604051631eb49d6d60e11b815260040160405180910390fd5b6134c687878080601f0160208091040260200160405190810160405280939291908181526020018383808284376000920191909152505060405189925061110a915088908890602001615408565b15611e2a575060019695505050505050565b61351c60405180602001604052806000815250604051806040016040528060138152602001724d6f64696679537061636553657474696e677360681b815250613846565b609b54820361353e57604051631eb49d6d60e11b815260040160405180910390fd5b609e600061354f6020840184614a0f565b6001600160a01b0316815260208101919091526040016000205460ff166135895760405163c1ef36f360e01b815260040160405180910390fd5b600082815260a3602052604081205490036135b75760405163b810dc5d60e01b815260040160405180910390fd5b6000826135c760208401846157f7565b6040516020016135d99392919061583d565b60408051601f198184030181529181528151602092830120600086815260a0909352908220909250905b81548110156136b75781818154811061361e5761361e6152ec565b906000526020600020015483036136a5578154829061363f906001906157ce565b8154811061364f5761364f6152ec565b906000526020600020015482828154811061366c5761366c6152ec565b90600052602060002001819055508180548061368a5761368a6157e1565b600190038181906000526020600020016000905590556136b7565b806136af81615385565b915050613603565b506136c56020840184614a0f565b6001600160a01b031663fa6d1adf856136e160208701876157f7565b6040518463ffffffff1660e01b81526004016136ff93929190615857565b6020604051808303816000875af115801561371e573d6000803e3d6000fd5b505050506040513d601f19601f820116820180604052508101906137429190615871565b5050505050565b60a3602052600090815260409020805460018201805491929161376b906152b8565b80601f0160208091040260200160405190810160405280929190818152602001828054613797906152b8565b80156137e45780601f106137b9576101008083540402835291602001916137e4565b820191906000526020600020905b8154815290600101906020018083116137c757829003601f168201915b5050505050905082565b60a681815481106137fe57600080fd5b600091825260209091200154905081565b60978054610a4f906152b8565b60a1818154811061382c57600080fd5b6000918252602090912001546001600160a01b0316905081565b61385082826141aa565b15613859575050565b604051631eb49d6d60e11b815260040160405180910390fd5b6000805b60a1548110156130205760a18181548110613893576138936152ec565b60009182526020909120015460405162169d5560e31b81526001600160a01b039091169062b4eaa8906138ce9088908890889060040161588a565b602060405180830381865afa1580156138eb573d6000803e3d6000fd5b505050506040513d601f19601f8201168201806040525081019061390f91906158b8565b1561391957600191505b8061392381615385565b915050613876565b600054610100900460ff166139965760405162461bcd60e51b815260206004820152602b60248201527f496e697469616c697a61626c653a20636f6e7472616374206973206e6f74206960448201526a6e697469616c697a696e6760a81b60648201526084016111d0565b565b6001600160a01b0382166000908152609e60205260409020805460ff19168215801591909117909155613a165760a180546001810182556000919091527faadc37b8ba5645e62f4546802db221593a94729ccbfc5a97d01365a88f6498780180546001600160a01b0384166001600160a01b03199091161790555050565b60005b60a154811015612c5c5760a18181548110613a3657613a366152ec565b6000918252602090912001546001600160a01b0390811690841603613b075760a18054613a65906001906157ce565b81548110613a7557613a756152ec565b60009182526020909120015460a180546001600160a01b039092169183908110613aa157613aa16152ec565b9060005260206000200160006101000a8154816001600160a01b0302191690836001600160a01b0316021790555060a1805480613ae057613ae06157e1565b600082815260209020810160001990810180546001600160a01b0319169055019055505050565b80613b1181615385565b915050613a19565b8051819060021180613b2c575080516020105b1561172e5760405163354b556f60e11b815260040160405180910390fd5b613b8260405180602001604052806000815250604051806040016040528060078152602001665570677261646560c81b8152506141aa565b6115f957604051631eb49d6d60e11b815260040160405180910390fd5b7f4910fdfa16fed3260ed0e7147f7cc6da11a60208b5b9406d12a635614ffd91435460ff1615613bd257612c5c836141de565b826001600160a01b03166352d1902d6040518163ffffffff1660e01b8152600401602060405180830381865afa925050508015613c2c575060408051601f3d908101601f19168201909252613c2991810190615871565b60015b613c8f5760405162461bcd60e51b815260206004820152602e60248201527f45524331393637557067726164653a206e657720696d706c656d656e7461746960448201526d6f6e206973206e6f74205555505360901b60648201526084016111d0565b6000805160206159218339815191528114613cfe5760405162461bcd60e51b815260206004820152602960248201527f45524331393637557067726164653a20756e737570706f727465642070726f786044820152681a58589b195555525160ba1b60648201526084016111d0565b50612c5c83838361427a565b6040516301ffc9a760e01b815263a485103160e01b60048201526001600160a01b038216906301ffc9a790602401602060405180830381865afa158015613d55573d6000803e3d6000fd5b505050506040513d601f19601f82011682018060405250810190613d7991906158b8565b15156000036115f957604051636d9250f160e11b815260040160405180910390fd5b600033609c54609d546040516331a9108f60e11b815260048101919091526001600160a01b039283169290911690636352211e90602401602060405180830381865afa158015613def573d6000803e3d6000fd5b505050506040513d601f19601f82011682018060405250810190613e13919061539e565b6001600160a01b031614905090565b600081604051602001613e3591906144fa565b6040516020818303038152906040528051906020012083604051602001613e5c91906144fa565b6040516020818303038152906040528051906020012014905092915050565b60008382604051602001613e909291906158d5565b60408051601f198184030181528282528051602091820120600088815260a0835283812080548085028701850190955284865291955093929091830182828015613ef957602002820191906000526020600020905b815481526020019060010190808311613ee5575b505083519394506000925050505b81811015613f5a5783838281518110613f2257613f226152ec565b602002602001015103613f485760405163c5c9ad6760e01b815260040160405180910390fd5b80613f5281615385565b915050613f07565b50600086815260a0602090815260408083208054600181018255908452919092200184905551633be2f95d60e21b81526001600160a01b0386169063ef8be57490613fab908990889060040161529f565b6020604051808303816000875af1158015613fca573d6000803e3d6000fd5b505050506040513d601f19601f82011682018060405250810190613fee9190615871565b50505050505050565b60006124dd613d9b565b600060978054614010906152b8565b80601f016020809104026020016040519081016040528092919081815260200182805461403c906152b8565b80156140895780601f1061405e57610100808354040283529160200191614089565b820191906000526020600020905b81548152906001019060200180831161406c57829003601f168201915b50505050509050816097908161409f9190615482565b507fc9c7c3fe08b88b4df9d4d47ef47d2c43d55c025a0ba88ca442580ed9e7348a1681836040516140d19291906158fb565b60405180910390a15050565b6004815110156141225760405162461bcd60e51b815260206004820152601060248201526f1d5b9a185b991b1959081c995d995c9d60821b60448201526064016111d0565b602081015163b1b7848f60e01b6001600160e01b03198216016141a157604080518082018252600e81526d70616e69636b65643a2030785f5f60901b602082018181526024860151600481811c600f908116603090810160081b9184160117909317909152925162461bcd60e51b81529192916111d0918491016144fa565b81518060208401fd5b60006141b4613d9b565b806111305750609a5460ff16158015611130575061113083338460405160200161110a919061573a565b6001600160a01b0381163b61424b5760405162461bcd60e51b815260206004820152602d60248201527f455243313936373a206e657720696d706c656d656e746174696f6e206973206e60448201526c1bdd08184818dbdb9d1c9858dd609a1b60648201526084016111d0565b60008051602061592183398151915280546001600160a01b0319166001600160a01b0392909216919091179055565b614283836142a5565b6000825111806142905750805b15612c5c5761429f83836142e5565b50505050565b6142ae816141de565b6040516001600160a01b038216907fbc7cd75a20ee27fd9adebab32041f755214dbc6bffa90cc0225b39da2e5c2d3b90600090a250565b60606001600160a01b0383163b61434d5760405162461bcd60e51b815260206004820152602660248201527f416464726573733a2064656c65676174652063616c6c20746f206e6f6e2d636f6044820152651b9d1c9858dd60d21b60648201526084016111d0565b600080846001600160a01b031684604051614368919061573a565b600060405180830381855af49150503d80600081146143a3576040519150601f19603f3d011682016040523d82523d6000602084013e6143a8565b606091505b50915091506143d08282604051806060016040528060278152602001615941602791396143d9565b95945050505050565b606083156143e8575081611130565b61113083838151156143fd5781518083602001fd5b8060405162461bcd60e51b81526004016111d091906144fa565b508054614423906152b8565b6000825580601f10614433575050565b601f0160209004906000526020600020908101906115f9919061446b565b50805460008255906000526020600020908101906115f991905b5b80821115610d0d576000815560010161446c565b60006020828403121561449257600080fd5b81356001600160e01b03198116811461113057600080fd5b60005b838110156144c55781810151838201526020016144ad565b50506000910152565b600081518084526144e68160208601602086016144aa565b601f01601f19169290920160200192915050565b60208152600061113060208301846144ce565b60006020808301818452808551808352604092508286019150828160051b87010184880160005b838110156145a857603f1989840301855281516080815181865261455a828701826144ce565b838b01516001600160a01b0316878c0152898401518782038b890152909250905061458582826144ce565b606093840151151596909301959095525094870194925090860190600101614534565b509098975050505050505050565b6000602082840312156145c857600080fd5b5035919050565b60a0815260006145e260a08301886144ce565b82810360208401526145f481886144ce565b604084019690965250506060810192909252151560809091015292915050565b60208152600060018060a01b038084511660208401528060208501511660408401525060408301516080606084015261465060a08401826144ce565b90506060840151151560808401528091505092915050565b60008083601f84011261467a57600080fd5b5081356001600160401b0381111561469157600080fd5b6020830191508360208285010111156146a957600080fd5b9250929050565b6001600160a01b03811681146115f957600080fd5b600080600080606085870312156146db57600080fd5b84356001600160401b038111156146f157600080fd5b6146fd87828801614668565b9095509350506020850135614711816146b0565b9396929550929360400135925050565b60008060006040848603121561473657600080fd5b8335614741816146b0565b925060208401356001600160401b0381111561475c57600080fd5b61476886828701614668565b9497909650939450505050565b634e487b7160e01b600052604160045260246000fd5b604051601f8201601f191681016001600160401b03811182821017156147b3576147b3614775565b604052919050565b60006001600160401b038211156147d4576147d4614775565b50601f01601f191660200190565b600082601f8301126147f357600080fd5b8135614806614801826147bb565b61478b565b81815284602083860101111561481b57600080fd5b816020850160208301376000918101602001919091529392505050565b60006001600160401b0382111561485157614851614775565b5060051b60200190565b600080600080600060a0868803121561487357600080fd5b85356001600160401b038082111561488a57600080fd5b61489689838a016147e2565b96506020915081880135818111156148ad57600080fd5b6148b98a828b016147e2565b96505060408801356148ca816146b0565b9450606088013593506080880135818111156148e557600080fd5b88019050601f810189136148f857600080fd5b803561490661480182614838565b81815260059190911b8201830190838101908b83111561492557600080fd5b928401925b8284101561494c57833561493d816146b0565b8252928401929084019061492a565b80955050505050509295509295909350565b6000806040838503121561497157600080fd5b8235915060208301356001600160401b0381111561498e57600080fd5b61499a858286016147e2565b9150509250929050565b600080600080604085870312156149ba57600080fd5b84356001600160401b03808211156149d157600080fd5b6149dd88838901614668565b909650945060208701359150808211156149f657600080fd5b50614a0387828801614668565b95989497509550505050565b600060208284031215614a2157600080fd5b8135611130816146b0565b6020808252825182820181905260009190848201906040850190845b81811015614a6457835183529284019291840191600101614a48565b50909695505050505050565b80151581146115f957600080fd5b60008060408385031215614a9157600080fd5b8235614a9c816146b0565b91506020830135614aac81614a70565b809150509250929050565b600060208284031215614ac957600080fd5b813561113081614a70565b60008060408385031215614ae757600080fd5b8235614af2816146b0565b915060208301356001600160401b0381111561498e57600080fd5b60008060408385031215614b2057600080fd5b8235614b2b816146b0565b91506020830135614aac816146b0565b60008060008060608587031215614b5157600080fd5b84356001600160401b0380821115614b6857600080fd5b614b7488838901614668565b9096509450602091508682013581811115614b8e57600080fd5b614b9a89828a016147e2565b945050604087013581811115614baf57600080fd5b87019050601f81018813614bc257600080fd5b8035614bd061480182614838565b81815260059190911b8201830190838101908a831115614bef57600080fd5b928401925b82841015614c0d57833582529284019290840190614bf4565b979a9699509497505050505050565b600080600060408486031215614c3157600080fd5b83356001600160401b03811115614c4757600080fd5b614c5386828701614668565b9094509250506020840135614c6781614a70565b809150509250925092565b602081526000825160a06020840152614c8e60c08401826144ce565b90506020840151601f19848303016040850152614cab82826144ce565b91505060408401516060840152606084015160808401526080840151151560a08401528091505092915050565b805182526000602082015160406020850152614cf760408501826144ce565b949350505050565b6000602080830181845280855180835260408601915060408160051b870101925083870160005b82811015614d5457603f19888603018452614d42858351614cd8565b94509285019290850190600101614d26565b5092979650505050505050565b6020815260006111306020830184614cd8565b600060208284031215614d8657600080fd5b81356001600160401b03811115614d9c57600080fd5b614cf7848285016147e2565b600082601f830112614db957600080fd5b81356020614dc961480183614838565b82815260059290921b84018101918181019086841115614de857600080fd5b8286015b84811015614e275780356001600160401b03811115614e0b5760008081fd5b614e198986838b01016147e2565b845250918301918301614dec565b509695505050505050565b600060408284031215614e4457600080fd5b604051604081016001600160401b038282108183111715614e6757614e67614775565b8160405282935084359150614e7b826146b0565b90825260208401359080821115614e9157600080fd5b50614e9e858286016147e2565b6020830152505092915050565b60008060008060608587031215614ec157600080fd5b84356001600160401b0380821115614ed857600080fd5b614ee488838901614668565b9096509450602091508682013581811115614efe57600080fd5b614f0a89828a01614da8565b945050604087013581811115614f1f57600080fd5b8701601f81018913614f3057600080fd5b8035614f3e61480182614838565b81815260059190911b8201840190848101908b831115614f5d57600080fd5b8584015b83811015614f9557803586811115614f795760008081fd5b614f878e8983890101614e32565b845250918601918601614f61565b50989b979a50959850505050505050565b60008060208385031215614fb957600080fd5b82356001600160401b03811115614fcf57600080fd5b614fdb85828601614668565b90969095509350505050565b60008060408385031215614ffa57600080fd5b8235915060208301356001600160401b0381111561501757600080fd5b61499a85828601614da8565b6020815281516020820152600060208301516080604084015261504960a08401826144ce565b90506040840151601f1984830301606085015261506682826144ce565b9150506060840151151560808401528091505092915050565b6000806020838503121561509257600080fd5b82356001600160401b03808211156150a957600080fd5b818501915085601f8301126150bd57600080fd5b8135818111156150cc57600080fd5b8660208260051b85010111156150e157600080fd5b60209290920196919550909350505050565b6000602080830181845280855180835260408601915060408160051b870101925083870160005b82811015614d5457603f198886030184526151368583516144ce565b9450928501929085019060010161511a565b6000602080830181845280855180835260408601915060408160051b870101925083870160005b82811015614d5457603f1988860301845261518b8583516144ce565b9450928501929085019060010161516f565b600080604083850312156151b057600080fd5b8235915060208301356001600160401b038111156151cd57600080fd5b61499a85828601614e32565b6000806000806000606086880312156151f157600080fd5b85356001600160401b038082111561520857600080fd5b61521489838a01614668565b909750955060208801359150615229826146b0565b9093506040870135908082111561523f57600080fd5b5061524c88828901614668565b969995985093965092949392505050565b6000806040838503121561527057600080fd5b8235915060208301356001600160401b0381111561528d57600080fd5b830160408186031215614aac57600080fd5b828152604060208201526000614cf760408301846144ce565b600181811c908216806152cc57607f821691505b6020821081036122a657634e487b7160e01b600052602260045260246000fd5b634e487b7160e01b600052603260045260246000fd5b60006020828403121561531457600080fd5b81516001600160401b0381111561532a57600080fd5b8201601f8101841361533b57600080fd5b8051615349614801826147bb565b81815285602083850101111561535e57600080fd5b6143d08260208301602086016144aa565b634e487b7160e01b600052601160045260246000fd5b6000600182016153975761539761536f565b5060010190565b6000602082840312156153b057600080fd5b8151611130816146b0565b81835281816020850137506000828201602090810191909152601f909101601f19169091010190565b6040815260006153f86040830185876153bb565b9050826020830152949350505050565b8183823760009101908152919050565b805160208083015191908110156122a65760001960209190910360031b1b16919050565b601f821115612c5c57600081815260208120601f850160051c810160208610156154635750805b601f850160051c820191505b818110156113195782815560010161546f565b81516001600160401b0381111561549b5761549b614775565b6154af816154a984546152b8565b8461543c565b602080601f8311600181146154e457600084156154cc5750858301515b600019600386901b1c1916600185901b178555611319565b600085815260208120601f198616915b82811015615513578886015182559484019460019091019084016154f4565b50858210156155315787850151600019600388901b60f8161c191681555b5050505050600190811b01905550565b6000815461554e816152b8565b80855260206001838116801561556b5760018114615585576155b3565b60ff1985168884015283151560051b8801830195506155b3565b866000528260002060005b858110156155ab5781548a8201860152908301908401615590565b890184019650505b505050505092915050565b6040815260006155d160408301856144ce565b82810360208401526143d08185615541565b6001600160401b038311156155fa576155fa614775565b61560e8361560883546152b8565b8361543c565b6000601f841160018114615642576000851561562a5750838201355b600019600387901b1c1916600186901b178355613742565b600083815260209020601f19861690835b828110156156735786850135825560209485019460019092019101615653565b50868210156156905760001960f88860031b161c19848701351681555b505060018560011b0183555050505050565b6020808252602c908201527f46756e6374696f6e206d7573742062652063616c6c6564207468726f7567682060408201526b19195b1959d85d1958d85b1b60a21b606082015260800190565b6020808252602c908201527f46756e6374696f6e206d7573742062652063616c6c6564207468726f7567682060408201526b6163746976652070726f787960a01b606082015260800190565b6000825161574c8184602087016144aa565b9190910192915050565b60408152600061576960408301856144ce565b90508260208301529392505050565b80820180821115610a3c57610a3c61536f565b60408152600061579f6040830185876153bb565b82810360208401526157b18185615541565b9695505050505050565b6020815260006111306020830184615541565b81810381811115610a3c57610a3c61536f565b634e487b7160e01b600052603160045260246000fd5b6000808335601e1984360301811261580e57600080fd5b8301803591506001600160401b0382111561582857600080fd5b6020019150368190038213156146a957600080fd5b838152818360208301376000910160200190815292915050565b8381526040602082015260006143d06040830184866153bb565b60006020828403121561588357600080fd5b5051919050565b60608152600061589d60608301866144ce565b6001600160a01b039490941660208301525060400152919050565b6000602082840312156158ca57600080fd5b815161113081614a70565b828152600082516158ed8160208501602087016144aa565b919091016020019392505050565b60408152600061590e60408301856144ce565b82810360208401526143d081856144ce56fe360894a13ba1a3210667c828492db98dca3e2076cc3735a920a3ca505d382bbc416464726573733a206c6f772d6c6576656c2064656c65676174652063616c6c206661696c6564",
    "linkReferences": {
      "packages/contracts/src/spaces/libraries/Utils.sol": {
        "Utils": [
          {
            "start": 12408,
            "length": 20
          }
        ]
      }
    }
  },
  "methodIdentifiers": {
    "MODULE_TYPE()": "5775029f",
    "MODULE_VERSION()": "81ed9808",
    "addPermissionsToRole(uint256,string[])": "b7515761",
    "addRoleToChannel(string,address,uint256)": "1dea616a",
    "addRoleToEntitlement(uint256,(address,bytes))": "ba201ba8",
    "channels(uint256)": "e5949b5d",
    "channelsByHash(bytes32)": "129ab3c8",
    "contractURI()": "e8a3d485",
    "createChannel(string,string,uint256[])": "51f83cea",
    "createRole(string,string[],(address,bytes)[])": "8fcd793d",
    "defaultEntitlements(address)": "fa6433c5",
    "disabled()": "ee070805",
    "entitlements(uint256)": "f28f9b56",
    "getChannelByHash(bytes32)": "703511f8",
    "getChannelInfo(string)": "a0724b69",
    "getChannels()": "9575f6ac",
    "getEntitlementByModuleType(string)": "870b9464",
    "getEntitlementIdsByRoleId(uint256)": "42486e49",
    "getEntitlementModules()": "0d029f75",
    "getPermissionsByRoleId(uint256)": "b4264233",
    "getRoleById(uint256)": "784c872b",
    "getRoles()": "71061398",
    "getSpaceInfo()": "16a78b04",
    "hasEntitlement(address)": "7f8d06d0",
    "initialize(string,string,address,uint256,address[])": "22bcd764",
    "isEntitledToChannel(string,address,string)": "cea632bc",
    "isEntitledToSpace(address,string)": "20759f9e",
    "multicall(bytes[])": "ac9650d8",
    "name()": "06fdde03",
    "networkId()": "9025e64c",
    "owner()": "8da5cb5b",
    "ownerRoleId()": "d1a6a961",
    "proxiableUUID()": "52d1902d",
    "removePermissionsFromRole(uint256,string[])": "9a8e4c3e",
    "removeRole(uint256)": "92691821",
    "removeRoleFromChannel(string,address,uint256)": "baaf3d57",
    "removeRoleFromEntitlement(uint256,(address,bytes))": "dba81864",
    "roleCount()": "ddf96358",
    "rolesById(uint256)": "e5894ef4",
    "setChannelAccess(string,bool)": "5de151b8",
    "setContractURI(string)": "938e3d7b",
    "setEntitlementModule(address,bool)": "441555e5",
    "setOwnerRoleId(uint256)": "4999ab16",
    "setSpaceAccess(bool)": "446dc22e",
    "supportsInterface(bytes4)": "01ffc9a7",
    "token()": "fc0c546a",
    "tokenId()": "17d70f7c",
    "updateChannel(string,string)": "34a1dd26",
    "updateRole(uint256,string)": "32e704cc",
    "upgradeEntitlement(address,address)": "519607f2",
    "upgradeTo(address)": "3659cfe6",
    "upgradeToAndCall(address,bytes)": "4f1ef286"
  },
  "id": 122
}