{
  "abi": [
    {
      "inputs": [],
      "stateMutability": "nonpayable",
      "type": "constructor"
    },
    {
      "inputs": [],
      "name": "AddRoleFailed",
      "type": "error"
    },
    {
      "inputs": [],
      "name": "ChannelAlreadyRegistered",
      "type": "error"
    },
    {
      "inputs": [],
      "name": "ChannelDoesNotExist",
      "type": "error"
    },
    {
      "inputs": [],
      "name": "EntitlementAlreadyExists",
      "type": "error"
    },
    {
      "inputs": [],
      "name": "EntitlementAlreadyWhitelisted",
      "type": "error"
    },
    {
      "inputs": [],
      "name": "EntitlementModuleNotSupported",
      "type": "error"
    },
    {
      "inputs": [],
      "name": "EntitlementNotWhitelisted",
      "type": "error"
    },
    {
      "inputs": [],
      "name": "InvalidParameters",
      "type": "error"
    },
    {
      "inputs": [],
      "name": "MissingOwnerPermission",
      "type": "error"
    },
    {
      "inputs": [],
      "name": "NameLengthInvalid",
      "type": "error"
    },
    {
      "inputs": [],
      "name": "NotAllowed",
      "type": "error"
    },
    {
      "inputs": [],
      "name": "PermissionAlreadyExists",
      "type": "error"
    },
    {
      "inputs": [],
      "name": "RoleDoesNotExist",
      "type": "error"
    },
    {
      "inputs": [],
      "name": "RoleIsAssignedToEntitlement",
      "type": "error"
    },
    {
      "anonymous": false,
      "inputs": [
        {
          "indexed": false,
          "internalType": "address",
          "name": "previousAdmin",
          "type": "address"
        },
        {
          "indexed": false,
          "internalType": "address",
          "name": "newAdmin",
          "type": "address"
        }
      ],
      "name": "AdminChanged",
      "type": "event"
    },
    {
      "anonymous": false,
      "inputs": [
        {
          "indexed": true,
          "internalType": "address",
          "name": "beacon",
          "type": "address"
        }
      ],
      "name": "BeaconUpgraded",
      "type": "event"
    },
    {
      "anonymous": false,
      "inputs": [
        {
          "indexed": false,
          "internalType": "string",
          "name": "prevURI",
          "type": "string"
        },
        {
          "indexed": false,
          "internalType": "string",
          "name": "newURI",
          "type": "string"
        }
      ],
      "name": "ContractURIUpdated",
      "type": "event"
    },
    {
      "anonymous": false,
      "inputs": [
        {
          "indexed": false,
          "internalType": "uint8",
          "name": "version",
          "type": "uint8"
        }
      ],
      "name": "Initialized",
      "type": "event"
    },
    {
      "anonymous": false,
      "inputs": [
        {
          "indexed": true,
          "internalType": "address",
          "name": "implementation",
          "type": "address"
        }
      ],
      "name": "Upgraded",
      "type": "event"
    },
    {
      "inputs": [],
      "name": "MODULE_TYPE",
      "outputs": [
        {
          "internalType": "string",
          "name": "",
          "type": "string"
        }
      ],
      "stateMutability": "view",
      "type": "function"
    },
    {
      "inputs": [],
      "name": "MODULE_VERSION",
      "outputs": [
        {
          "internalType": "uint48",
          "name": "",
          "type": "uint48"
        }
      ],
      "stateMutability": "view",
      "type": "function"
    },
    {
      "inputs": [
        {
          "internalType": "uint256",
          "name": "_roleId",
          "type": "uint256"
        },
        {
          "internalType": "string[]",
          "name": "_permissions",
          "type": "string[]"
        }
      ],
      "name": "addPermissionsToRole",
      "outputs": [],
      "stateMutability": "nonpayable",
      "type": "function"
    },
    {
      "inputs": [
        {
          "internalType": "string",
          "name": "_channelId",
          "type": "string"
        },
        {
          "internalType": "address",
          "name": "_entitlement",
          "type": "address"
        },
        {
          "internalType": "uint256",
          "name": "_roleId",
          "type": "uint256"
        }
      ],
      "name": "addRoleToChannel",
      "outputs": [],
      "stateMutability": "nonpayable",
      "type": "function"
    },
    {
      "inputs": [
        {
          "internalType": "uint256",
          "name": "_roleId",
          "type": "uint256"
        },
        {
          "components": [
            {
              "internalType": "address",
              "name": "module",
              "type": "address"
            },
            {
              "internalType": "bytes",
              "name": "data",
              "type": "bytes"
            }
          ],
          "internalType": "struct DataTypes.Entitlement",
          "name": "_entitlement",
          "type": "tuple"
        }
      ],
      "name": "addRoleToEntitlement",
      "outputs": [],
      "stateMutability": "nonpayable",
      "type": "function"
    },
    {
      "inputs": [
        {
          "internalType": "uint256",
          "name": "",
          "type": "uint256"
        }
      ],
      "name": "channels",
      "outputs": [
        {
          "internalType": "bytes32",
          "name": "",
          "type": "bytes32"
        }
      ],
      "stateMutability": "view",
      "type": "function"
    },
    {
      "inputs": [
        {
          "internalType": "bytes32",
          "name": "",
          "type": "bytes32"
        }
      ],
      "name": "channelsByHash",
      "outputs": [
        {
          "internalType": "string",
          "name": "name",
          "type": "string"
        },
        {
          "internalType": "string",
          "name": "channelId",
          "type": "string"
        },
        {
          "internalType": "bytes32",
          "name": "channelHash",
          "type": "bytes32"
        },
        {
          "internalType": "uint256",
          "name": "createdAt",
          "type": "uint256"
        },
        {
          "internalType": "bool",
          "name": "disabled",
          "type": "bool"
        }
      ],
      "stateMutability": "view",
      "type": "function"
    },
    {
      "inputs": [],
      "name": "contractURI",
      "outputs": [
        {
          "internalType": "string",
          "name": "",
          "type": "string"
        }
      ],
      "stateMutability": "view",
      "type": "function"
    },
    {
      "inputs": [
        {
          "internalType": "string",
          "name": "channelName",
          "type": "string"
        },
        {
          "internalType": "string",
          "name": "channelId",
          "type": "string"
        },
        {
          "internalType": "uint256[]",
          "name": "roleIds",
          "type": "uint256[]"
        }
      ],
      "name": "createChannel",
      "outputs": [
        {
          "internalType": "bytes32",
          "name": "",
          "type": "bytes32"
        }
      ],
      "stateMutability": "nonpayable",
      "type": "function"
    },
    {
      "inputs": [
        {
          "internalType": "string",
          "name": "_roleName",
          "type": "string"
        },
        {
          "internalType": "string[]",
          "name": "_permissions",
          "type": "string[]"
        },
        {
          "components": [
            {
              "internalType": "address",
              "name": "module",
              "type": "address"
            },
            {
              "internalType": "bytes",
              "name": "data",
              "type": "bytes"
            }
          ],
          "internalType": "struct DataTypes.Entitlement[]",
          "name": "_entitlements",
          "type": "tuple[]"
        }
      ],
      "name": "createRole",
      "outputs": [
        {
          "internalType": "uint256",
          "name": "",
          "type": "uint256"
        }
      ],
      "stateMutability": "nonpayable",
      "type": "function"
    },
    {
      "inputs": [
        {
          "internalType": "address",
          "name": "",
          "type": "address"
        }
      ],
      "name": "defaultEntitlements",
      "outputs": [
        {
          "internalType": "bool",
          "name": "",
          "type": "bool"
        }
      ],
      "stateMutability": "view",
      "type": "function"
    },
    {
      "inputs": [],
      "name": "disabled",
      "outputs": [
        {
          "internalType": "bool",
          "name": "",
          "type": "bool"
        }
      ],
      "stateMutability": "view",
      "type": "function"
    },
    {
      "inputs": [
        {
          "internalType": "uint256",
          "name": "",
          "type": "uint256"
        }
      ],
      "name": "entitlements",
      "outputs": [
        {
          "internalType": "address",
          "name": "",
          "type": "address"
        }
      ],
      "stateMutability": "view",
      "type": "function"
    },
    {
      "inputs": [
        {
          "internalType": "bytes32",
          "name": "_channelHash",
          "type": "bytes32"
        }
      ],
      "name": "getChannelByHash",
      "outputs": [
        {
          "components": [
            {
              "internalType": "string",
              "name": "name",
              "type": "string"
            },
            {
              "internalType": "string",
              "name": "channelId",
              "type": "string"
            },
            {
              "internalType": "bytes32",
              "name": "channelHash",
              "type": "bytes32"
            },
            {
              "internalType": "uint256",
              "name": "createdAt",
              "type": "uint256"
            },
            {
              "internalType": "bool",
              "name": "disabled",
              "type": "bool"
            }
          ],
          "internalType": "struct DataTypes.Channel",
          "name": "",
          "type": "tuple"
        }
      ],
      "stateMutability": "view",
      "type": "function"
    },
    {
      "inputs": [],
      "name": "getChannels",
      "outputs": [
        {
          "internalType": "bytes32[]",
          "name": "",
          "type": "bytes32[]"
        }
      ],
      "stateMutability": "view",
      "type": "function"
    },
    {
      "inputs": [
        {
          "internalType": "string",
          "name": "_moduleType",
          "type": "string"
        }
      ],
      "name": "getEntitlementByModuleType",
      "outputs": [
        {
          "internalType": "address",
          "name": "",
          "type": "address"
        }
      ],
      "stateMutability": "view",
      "type": "function"
    },
    {
      "inputs": [
        {
          "internalType": "uint256",
          "name": "_roleId",
          "type": "uint256"
        }
      ],
      "name": "getEntitlementIdsByRoleId",
      "outputs": [
        {
          "internalType": "bytes32[]",
          "name": "",
          "type": "bytes32[]"
        }
      ],
      "stateMutability": "view",
      "type": "function"
    },
    {
      "inputs": [],
      "name": "getEntitlementModules",
      "outputs": [
        {
          "components": [
            {
              "internalType": "string",
              "name": "name",
              "type": "string"
            },
            {
              "internalType": "address",
              "name": "moduleAddress",
              "type": "address"
            },
            {
              "internalType": "string",
              "name": "moduleType",
              "type": "string"
            },
            {
              "internalType": "bool",
              "name": "enabled",
              "type": "bool"
            }
          ],
          "internalType": "struct DataTypes.EntitlementModule[]",
          "name": "_entitlementModules",
          "type": "tuple[]"
        }
      ],
      "stateMutability": "view",
      "type": "function"
    },
    {
      "inputs": [
        {
          "internalType": "uint256",
          "name": "_roleId",
          "type": "uint256"
        }
      ],
      "name": "getPermissionsByRoleId",
      "outputs": [
        {
          "internalType": "string[]",
          "name": "",
          "type": "string[]"
        }
      ],
      "stateMutability": "view",
      "type": "function"
    },
    {
      "inputs": [
        {
          "internalType": "uint256",
          "name": "_roleId",
          "type": "uint256"
        }
      ],
      "name": "getRoleById",
      "outputs": [
        {
          "components": [
            {
              "internalType": "uint256",
              "name": "roleId",
              "type": "uint256"
            },
            {
              "internalType": "string",
              "name": "name",
              "type": "string"
            }
          ],
          "internalType": "struct DataTypes.Role",
          "name": "",
          "type": "tuple"
        }
      ],
      "stateMutability": "view",
      "type": "function"
    },
    {
      "inputs": [],
      "name": "getRoles",
      "outputs": [
        {
          "components": [
            {
              "internalType": "uint256",
              "name": "roleId",
              "type": "uint256"
            },
            {
              "internalType": "string",
              "name": "name",
              "type": "string"
            }
          ],
          "internalType": "struct DataTypes.Role[]",
          "name": "",
          "type": "tuple[]"
        }
      ],
      "stateMutability": "view",
      "type": "function"
    },
    {
      "inputs": [
        {
          "internalType": "address",
          "name": "",
          "type": "address"
        }
      ],
      "name": "hasEntitlement",
      "outputs": [
        {
          "internalType": "bool",
          "name": "",
          "type": "bool"
        }
      ],
      "stateMutability": "view",
      "type": "function"
    },
    {
      "inputs": [
        {
          "internalType": "string",
          "name": "_name",
          "type": "string"
        },
        {
          "internalType": "string",
          "name": "_networkId",
          "type": "string"
        },
        {
          "internalType": "address",
          "name": "_token",
          "type": "address"
        },
        {
          "internalType": "uint256",
          "name": "_tokenId",
          "type": "uint256"
        },
        {
          "internalType": "address[]",
          "name": "_entitlements",
          "type": "address[]"
        }
      ],
      "name": "initialize",
      "outputs": [],
      "stateMutability": "nonpayable",
      "type": "function"
    },
    {
      "inputs": [
        {
          "internalType": "string",
          "name": "_channelId",
          "type": "string"
        },
        {
          "internalType": "address",
          "name": "_user",
          "type": "address"
        },
        {
          "internalType": "string",
          "name": "_permission",
          "type": "string"
        }
      ],
      "name": "isEntitledToChannel",
      "outputs": [
        {
          "internalType": "bool",
          "name": "_entitled",
          "type": "bool"
        }
      ],
      "stateMutability": "view",
      "type": "function"
    },
    {
      "inputs": [
        {
          "internalType": "address",
          "name": "_user",
          "type": "address"
        },
        {
          "internalType": "string",
          "name": "_permission",
          "type": "string"
        }
      ],
      "name": "isEntitledToSpace",
      "outputs": [
        {
          "internalType": "bool",
          "name": "_entitled",
          "type": "bool"
        }
      ],
      "stateMutability": "view",
      "type": "function"
    },
    {
      "inputs": [
        {
          "internalType": "bytes[]",
          "name": "data",
          "type": "bytes[]"
        }
      ],
      "name": "multicall",
      "outputs": [
        {
          "internalType": "bytes[]",
          "name": "results",
          "type": "bytes[]"
        }
      ],
      "stateMutability": "nonpayable",
      "type": "function"
    },
    {
      "inputs": [],
      "name": "name",
      "outputs": [
        {
          "internalType": "string",
          "name": "",
          "type": "string"
        }
      ],
      "stateMutability": "view",
      "type": "function"
    },
    {
      "inputs": [],
      "name": "networkId",
      "outputs": [
        {
          "internalType": "string",
          "name": "",
          "type": "string"
        }
      ],
      "stateMutability": "view",
      "type": "function"
    },
    {
      "inputs": [],
      "name": "owner",
      "outputs": [
        {
          "internalType": "address",
          "name": "",
          "type": "address"
        }
      ],
      "stateMutability": "view",
      "type": "function"
    },
    {
      "inputs": [],
      "name": "ownerRoleId",
      "outputs": [
        {
          "internalType": "uint256",
          "name": "",
          "type": "uint256"
        }
      ],
      "stateMutability": "view",
      "type": "function"
    },
    {
      "inputs": [],
      "name": "proxiableUUID",
      "outputs": [
        {
          "internalType": "bytes32",
          "name": "",
          "type": "bytes32"
        }
      ],
      "stateMutability": "view",
      "type": "function"
    },
    {
      "inputs": [
        {
          "internalType": "uint256",
          "name": "_roleId",
          "type": "uint256"
        },
        {
          "internalType": "string[]",
          "name": "_permissions",
          "type": "string[]"
        }
      ],
      "name": "removePermissionsFromRole",
      "outputs": [],
      "stateMutability": "nonpayable",
      "type": "function"
    },
    {
      "inputs": [
        {
          "internalType": "uint256",
          "name": "_roleId",
          "type": "uint256"
        }
      ],
      "name": "removeRole",
      "outputs": [],
      "stateMutability": "nonpayable",
      "type": "function"
    },
    {
      "inputs": [
        {
          "internalType": "string",
          "name": "_channelId",
          "type": "string"
        },
        {
          "internalType": "address",
          "name": "_entitlement",
          "type": "address"
        },
        {
          "internalType": "uint256",
          "name": "_roleId",
          "type": "uint256"
        }
      ],
      "name": "removeRoleFromChannel",
      "outputs": [],
      "stateMutability": "nonpayable",
      "type": "function"
    },
    {
      "inputs": [
        {
          "internalType": "uint256",
          "name": "_roleId",
          "type": "uint256"
        },
        {
          "components": [
            {
              "internalType": "address",
              "name": "module",
              "type": "address"
            },
            {
              "internalType": "bytes",
              "name": "data",
              "type": "bytes"
            }
          ],
          "internalType": "struct DataTypes.Entitlement",
          "name": "_entitlement",
          "type": "tuple"
        }
      ],
      "name": "removeRoleFromEntitlement",
      "outputs": [],
      "stateMutability": "nonpayable",
      "type": "function"
    },
    {
      "inputs": [],
      "name": "roleCount",
      "outputs": [
        {
          "internalType": "uint256",
          "name": "",
          "type": "uint256"
        }
      ],
      "stateMutability": "view",
      "type": "function"
    },
    {
      "inputs": [
        {
          "internalType": "uint256",
          "name": "",
          "type": "uint256"
        }
      ],
      "name": "rolesById",
      "outputs": [
        {
          "internalType": "uint256",
          "name": "roleId",
          "type": "uint256"
        },
        {
          "internalType": "string",
          "name": "name",
          "type": "string"
        }
      ],
      "stateMutability": "view",
      "type": "function"
    },
    {
      "inputs": [
        {
          "internalType": "string",
          "name": "channelId",
          "type": "string"
        },
        {
          "internalType": "bool",
          "name": "disableChannel",
          "type": "bool"
        }
      ],
      "name": "setChannelAccess",
      "outputs": [],
      "stateMutability": "nonpayable",
      "type": "function"
    },
    {
      "inputs": [
        {
          "internalType": "string",
          "name": "_uri",
          "type": "string"
        }
      ],
      "name": "setContractURI",
      "outputs": [],
      "stateMutability": "nonpayable",
      "type": "function"
    },
    {
      "inputs": [
        {
          "internalType": "address",
          "name": "_entitlementModule",
          "type": "address"
        },
        {
          "internalType": "bool",
          "name": "_whitelist",
          "type": "bool"
        }
      ],
      "name": "setEntitlementModule",
      "outputs": [],
      "stateMutability": "nonpayable",
      "type": "function"
    },
    {
      "inputs": [
        {
          "internalType": "uint256",
          "name": "_roleId",
          "type": "uint256"
        }
      ],
      "name": "setOwnerRoleId",
      "outputs": [],
      "stateMutability": "nonpayable",
      "type": "function"
    },
    {
      "inputs": [
        {
          "internalType": "bool",
          "name": "_disabled",
          "type": "bool"
        }
      ],
      "name": "setSpaceAccess",
      "outputs": [],
      "stateMutability": "nonpayable",
      "type": "function"
    },
    {
      "inputs": [
        {
          "internalType": "bytes4",
          "name": "interfaceId",
          "type": "bytes4"
        }
      ],
      "name": "supportsInterface",
      "outputs": [
        {
          "internalType": "bool",
          "name": "",
          "type": "bool"
        }
      ],
      "stateMutability": "view",
      "type": "function"
    },
    {
      "inputs": [],
      "name": "token",
      "outputs": [
        {
          "internalType": "address",
          "name": "",
          "type": "address"
        }
      ],
      "stateMutability": "view",
      "type": "function"
    },
    {
      "inputs": [],
      "name": "tokenId",
      "outputs": [
        {
          "internalType": "uint256",
          "name": "",
          "type": "uint256"
        }
      ],
      "stateMutability": "view",
      "type": "function"
    },
    {
      "inputs": [
        {
          "internalType": "string",
          "name": "channelId",
          "type": "string"
        },
        {
          "internalType": "string",
          "name": "channelName",
          "type": "string"
        }
      ],
      "name": "updateChannel",
      "outputs": [],
      "stateMutability": "nonpayable",
      "type": "function"
    },
    {
      "inputs": [
        {
          "internalType": "uint256",
          "name": "_roleId",
          "type": "uint256"
        },
        {
          "internalType": "string",
          "name": "_roleName",
          "type": "string"
        }
      ],
      "name": "updateRole",
      "outputs": [],
      "stateMutability": "nonpayable",
      "type": "function"
    },
    {
      "inputs": [
        {
          "internalType": "address",
          "name": "_entitlement",
          "type": "address"
        },
        {
          "internalType": "address",
          "name": "_newEntitlement",
          "type": "address"
        }
      ],
      "name": "upgradeEntitlement",
      "outputs": [],
      "stateMutability": "nonpayable",
      "type": "function"
    },
    {
      "inputs": [
        {
          "internalType": "address",
          "name": "newImplementation",
          "type": "address"
        }
      ],
      "name": "upgradeTo",
      "outputs": [],
      "stateMutability": "nonpayable",
      "type": "function"
    },
    {
      "inputs": [
        {
          "internalType": "address",
          "name": "newImplementation",
          "type": "address"
        },
        {
          "internalType": "bytes",
          "name": "data",
          "type": "bytes"
        }
      ],
      "name": "upgradeToAndCall",
      "outputs": [],
      "stateMutability": "payable",
      "type": "function"
    }
  ],
  "bytecode": {
    "object": "0x60a0604052306080523480156200001557600080fd5b506200002062000026565b620000e8565b600054610100900460ff1615620000935760405162461bcd60e51b815260206004820152602760248201527f496e697469616c697a61626c653a20636f6e747261637420697320696e697469604482015266616c697a696e6760c81b606482015260840160405180910390fd5b60005460ff9081161015620000e6576000805460ff191660ff9081179091556040519081527f7f26b83ff96e1f2b6a682f133852f6798a09c465da95921460cefb38474024989060200160405180910390a15b565b6080516155af620001206000396000818161134c0152818161138c015281816116dd0152818161171d0152611c6601526155af6000f3fe6080604052600436106102c95760003560e01c806381ed980811610175578063ba201ba8116100dc578063e5894ef411610095578063ee0708051161006f578063ee070805146108fc578063f28f9b5614610916578063fa6433c514610936578063fc0c546a1461096657600080fd5b8063e5894ef414610899578063e5949b5d146108c7578063e8a3d485146108e757600080fd5b8063ba201ba8146107ed578063baaf3d571461080d578063cea632bc1461082d578063d1a6a9611461084d578063dba8186414610863578063ddf963581461088357600080fd5b8063938e3d7b1161012e578063938e3d7b1461071e5780639575f6ac1461073e5780639a8e4c3e14610753578063ac9650d814610773578063b4264233146107a0578063b7515761146107cd57600080fd5b806381ed980814610650578063870b94641461067c5780638da5cb5b146106b45780638fcd793d146106c95780639025e64c146106e957806392691821146106fe57600080fd5b8063441555e51161023457806352d1902d116101ed578063703511f8116101c7578063703511f8146105a457806371061398146105d1578063784c872b146105f35780637f8d06d01461062057600080fd5b806352d1902d1461053e5780635775029f146105535780635de151b81461058457600080fd5b8063441555e51461048b578063446dc22e146104ab5780634999ab16146104cb5780634f1ef286146104eb578063519607f2146104fe57806351f83cea1461051e57600080fd5b806320759f9e1161028657806320759f9e146103be57806322bcd764146103de57806332e704cc146103fe57806334a1dd261461041e5780633659cfe61461043e57806342486e491461045e57600080fd5b806301ffc9a7146102ce57806306fdde03146103035780630d029f7514610325578063129ab3c81461034757806317d70f7c146103785780631dea616a1461039c575b600080fd5b3480156102da57600080fd5b506102ee6102e9366004614142565b610986565b60405190151581526020015b60405180910390f35b34801561030f57600080fd5b506103186109bd565b6040516102fa91906141bc565b34801561033157600080fd5b5061033a610a4b565b6040516102fa91906141cf565b34801561035357600080fd5b50610367610362366004614278565b610c8c565b6040516102fa959493929190614291565b34801561038457600080fd5b5061038e609d5481565b6040519081526020016102fa565b3480156103a857600080fd5b506103bc6103b7366004614333565b610dcf565b005b3480156103ca57600080fd5b506102ee6103d936600461438f565b610f06565b3480156103ea57600080fd5b506103bc6103f93660046144c9565b610f5c565b34801561040a57600080fd5b506103bc6104193660046145cc565b611146565b34801561042a57600080fd5b506103bc610439366004614612565b611248565b34801561044a57600080fd5b506103bc61045936600461467d565b611342565b34801561046a57600080fd5b5061047e610479366004614278565b611421565b6040516102fa919061469a565b34801561049757600080fd5b506103bc6104a63660046146ec565b611483565b3480156104b757600080fd5b506103bc6104c6366004614725565b611557565b3480156104d757600080fd5b506103bc6104e6366004614278565b61158f565b6103bc6104f9366004614742565b6116d3565b34801561050a57600080fd5b506103bc61051936600461477b565b61179f565b34801561052a57600080fd5b5061038e6105393660046147a9565b6118ba565b34801561054a57600080fd5b5061038e611c59565b34801561055f57600080fd5b5061031860405180604001604052806005815260200164537061636560d81b81525081565b34801561059057600080fd5b506103bc61059f36600461488a565b611d0c565b3480156105b057600080fd5b506105c46105bf366004614278565b611dd2565b6040516102fa91906148e0565b3480156105dd57600080fd5b506105e6611f63565b6040516102fa919061496d565b3480156105ff57600080fd5b5061061361060e366004614278565b6120d1565b6040516102fa91906149cf565b34801561062c57600080fd5b506102ee61063b36600461467d565b609e6020526000908152604090205460ff1681565b34801561065c57600080fd5b50610665600181565b60405165ffffffffffff90911681526020016102fa565b34801561068857600080fd5b5061069c6106973660046149e2565b6121a7565b6040516001600160a01b0390911681526020016102fa565b3480156106c057600080fd5b5061069c612290565b3480156106d557600080fd5b5061038e6106e4366004614b19565b612307565b3480156106f557600080fd5b5061031861263a565b34801561070a57600080fd5b506103bc610719366004614278565b612647565b34801561072a57600080fd5b506103bc610739366004614c14565b612786565b34801561074a57600080fd5b5061047e612819565b34801561075f57600080fd5b506103bc61076e366004614c55565b612871565b34801561077f57600080fd5b5061079361078e366004614c91565b612a86565b6040516102fa9190614d05565b3480156107ac57600080fd5b506107c06107bb366004614278565b612b9d565b6040516102fa9190614d5a565b3480156107d957600080fd5b506103bc6107e8366004614c55565b612cea565b3480156107f957600080fd5b506103bc610808366004614daf565b612e8a565b34801561081957600080fd5b506103bc610828366004614333565b612f6b565b34801561083957600080fd5b506102ee610848366004614deb565b61306a565b34801561085957600080fd5b5061038e609b5481565b34801561086f57600080fd5b506103bc61087e366004614e6f565b61319a565b34801561088f57600080fd5b5061038e60a25481565b3480156108a557600080fd5b506108b96108b4366004614278565b61340b565b6040516102fa929190614eb1565b3480156108d357600080fd5b5061038e6108e2366004614278565b6134b0565b3480156108f357600080fd5b506103186134d1565b34801561090857600080fd5b50609a546102ee9060ff1681565b34801561092257600080fd5b5061069c610931366004614278565b6134de565b34801561094257600080fd5b506102ee61095136600461467d565b609f6020526000908152604090205460ff1681565b34801561097257600080fd5b50609c5461069c906001600160a01b031681565b60006001600160e01b03198216630d4e53ed60e21b14806109b757506001600160e01b031982166301ffc9a760e01b145b92915050565b609880546109ca90614eca565b80601f01602080910402602001604051908101604052809291908181526020018280546109f690614eca565b8015610a435780601f10610a1857610100808354040283529160200191610a43565b820191906000526020600020905b815481529060010190602001808311610a2657829003601f168201915b505050505081565b60a1546060906001600160401b03811115610a6857610a686143e3565b604051908082528060200260200182016040528015610abb57816020015b60408051608081018252606080825260006020808401829052938301829052908201528252600019909201910181610a865790505b50905060005b60a154811015610c8857600060a18281548110610ae057610ae0614efe565b600091825260208220015460408051608081018083526306fdde0360e01b905290516001600160a01b03909216935091829184916306fdde039160848086019291908187030181865afa158015610b3b573d6000803e3d6000fd5b505050506040513d6000823e601f3d908101601f19168201604052610b639190810190614f14565b815260200160a18481548110610b7b57610b7b614efe565b9060005260206000200160009054906101000a90046001600160a01b03166001600160a01b03168152602001826001600160a01b0316636465e69f6040518163ffffffff1660e01b8152600401600060405180830381865afa158015610be5573d6000803e3d6000fd5b505050506040513d6000823e601f3d908101601f19168201604052610c0d9190810190614f14565b8152602001609e600060a18681548110610c2957610c29614efe565b60009182526020808320909101546001600160a01b0316835282019290925260400190205460ff16151590528351849084908110610c6957610c69614efe565b6020026020010181905250508080610c8090614f97565b915050610ac1565b5090565b60a560205260009081526040902080548190610ca790614eca565b80601f0160208091040260200160405190810160405280929190818152602001828054610cd390614eca565b8015610d205780601f10610cf557610100808354040283529160200191610d20565b820191906000526020600020905b815481529060010190602001808311610d0357829003601f168201915b505050505090806001018054610d3590614eca565b80601f0160208091040260200160405190810160405280929190818152602001828054610d6190614eca565b8015610dae5780601f10610d8357610100808354040283529160200191610dae565b820191906000526020600020905b815481529060010190602001808311610d9157829003601f168201915b50505050600283015460038401546004909401549293909290915060ff1685565b610e3784848080601f0160208091040260200160405190810160405280939291908181526020018383808284376000920191909152505060408051808201909152601181527041646452656d6f76654368616e6e656c7360781b602082015291506135089050565b6001600160a01b0382166000908152609e602052604090205460ff16610e705760405163c1ef36f360e01b815260040160405180910390fd5b600081815260a360205260408120549003610e9e5760405163b810dc5d60e01b815260040160405180910390fd5b60405163c513be7760e01b81526001600160a01b0383169063c513be7790610ece90879087908690600401614fd9565b600060405180830381600087803b158015610ee857600080fd5b505af1158015610efc573d6000803e3d6000fd5b5050505050505050565b6000610f4c60405180602001604052806000815250858585604051602001610f2f929190614ffd565b604051602081830303815290604052610f479061500d565b613534565b15610f55575060015b9392505050565b600054610100900460ff1615808015610f7c5750600054600160ff909116105b80610f965750303b158015610f96575060005460ff166001145b610ffe5760405162461bcd60e51b815260206004820152602e60248201527f496e697469616c697a61626c653a20636f6e747261637420697320616c72656160448201526d191e481a5b9a5d1a585b1a5e995960921b60648201526084015b60405180910390fd5b6000805460ff191660011790558015611021576000805461ff0019166101001790555b6110296135ed565b6110316135ed565b609861103d8782615077565b50609961104a8682615077565b50609c80546001600160a01b0319166001600160a01b038616179055609d83905560005b82518110156110f75761109b83828151811061108c5761108c614efe565b6020026020010151600161365a565b6001609f60008584815181106110b3576110b3614efe565b6020908102919091018101516001600160a01b03168252810191909152604001600020805460ff1916911515919091179055806110ef81614f97565b91505061106e565b50801561113e576000805461ff0019169055604051600181527f7f26b83ff96e1f2b6a682f133852f6798a09c465da95921460cefb38474024989060200160405180910390a15b505050505050565b61118a60405180602001604052806000815250604051806040016040528060138152602001724d6f64696679537061636553657474696e677360681b815250613508565b611193816137db565b609b5482036111b557604051631eb49d6d60e11b815260040160405180910390fd5b600082815260a3602052604081205490036111e35760405163b810dc5d60e01b815260040160405180910390fd5b600082815260a3602052604090206001016111fe8282615077565b5081336001600160a01b03167ff3c55faf0b13ffa681c984baddbb8ef7638e514188ea19bd6461d7f87b9c795383609960405161123c9291906151b3565b60405180910390a35050565b61128a604051806020016040528060008152506040518060400160405280601181526020017041646452656d6f76654368616e6e656c7360781b815250613508565b6112c982828080601f0160208091040260200160405190810160405280939291908181526020018383808284376000920191909152506137db92505050565b600084846040516020016112de929190614ffd565b60408051601f198184030181529181528151602092830120600081815260a590935290822060020154909250900361132957604051636ddd9da960e01b815260040160405180910390fd5b600081815260a56020526040902061113e8385836151d8565b6001600160a01b037f000000000000000000000000000000000000000000000000000000000000000016300361138a5760405162461bcd60e51b8152600401610ff590615297565b7f00000000000000000000000000000000000000000000000000000000000000006001600160a01b03166113d3600080516020615533833981519152546001600160a01b031690565b6001600160a01b0316146113f95760405162461bcd60e51b8152600401610ff5906152e3565b6114028161380c565b6040805160008082526020820190925261141e91839190613861565b50565b600081815260a0602090815260409182902080548351818402810184019094528084526060939283018282801561147757602002820191906000526020600020905b815481526020019060010190808311611463575b50505050509050919050565b6114b9604051806020016040528060008152506040518060400160405280600581526020016427bbb732b960d91b815250613508565b6114c2826139cc565b8080156114e757506001600160a01b0382166000908152609e602052604090205460ff165b156115055760405163186abc9b60e01b815260040160405180910390fd5b8015801561152b57506001600160a01b0382166000908152609f602052604090205460ff165b1561154957604051631eb49d6d60e11b815260040160405180910390fd5b611553828261365a565b5050565b61155f613a5d565b61157c57604051631eb49d6d60e11b815260040160405180910390fd5b609a805460ff1916911515919091179055565b611597613a5d565b6115b457604051631eb49d6d60e11b815260040160405180910390fd5b609b54156115d557604051631eb49d6d60e11b815260040160405180910390fd5b600081815260a3602052604081205490036116035760405163b810dc5d60e01b815260040160405180910390fd5b6000805b600083815260a460205260409020548110156116ae576040518060400160405280600581526020016427bbb732b960d91b81525060405160200161164b919061532f565b6040516020818303038152906040526116639061500d565b600084815260a46020526040902080548390811061168357611683614efe565b90600052602060002001540361169c57600191506116ae565b806116a681614f97565b915050611607565b50806116cd57604051633e74bd6360e21b815260040160405180910390fd5b50609b55565b6001600160a01b037f000000000000000000000000000000000000000000000000000000000000000016300361171b5760405162461bcd60e51b8152600401610ff590615297565b7f00000000000000000000000000000000000000000000000000000000000000006001600160a01b0316611764600080516020615533833981519152546001600160a01b031690565b6001600160a01b03161461178a5760405162461bcd60e51b8152600401610ff5906152e3565b6117938261380c565b61155382826001613861565b6117d5604051806020016040528060008152506040518060400160405280600581526020016427bbb732b960d91b815250613508565b6001600160a01b03821615806117f257506001600160a01b038116155b1561181057604051630e52390960e41b815260040160405180910390fd5b6001600160a01b0382166000908152609e602052604090205460ff166118495760405163c1ef36f360e01b815260040160405180910390fd5b604051631b2ce7f360e11b81526001600160a01b038281166004830152831690633659cfe690602401600060405180830381600087803b15801561188c57600080fd5b505af192505050801561189d575060015b61155357604051630e52390960e41b815260040160405180910390fd5b60006118fe604051806020016040528060008152506040518060400160405280601181526020017041646452656d6f76654368616e6e656c7360781b815250613508565b61193d85858080601f0160208091040260200160405190810160405280939291908181526020018383808284376000920191909152506137db92505050565b600083604051602001611950919061532f565b60408051601f198184030181529181528151602092830120600081815260a59093529120600201549091501561199957604051630139324b60e41b815260040160405180910390fd5b6040518060a0016040528087878080601f016020809104026020016040519081016040528093929190818152602001838380828437600092018290525093855250505060208083018890526040808401869052426060850152608090930182905284825260a590522081518190611a109082615077565b5060208201516001820190611a259082615077565b5060408201516002820155606082015160038201556080909101516004909101805460ff191691151591909117905560a6805460018101825560009182527f2da56674729343acc9933752c8c469a244252915242eb6d4c02d11ddd69164a1018290555b60a154811015611c4f57600060a18281548110611aa857611aa8614efe565b600091825260209091200154609b5460405163c513be7760e01b81526001600160a01b039092169250829163c513be7791611ae8918a919060040161534b565b600060405180830381600087803b158015611b0257600080fd5b505af1158015611b16573d6000803e3d6000fd5b5050505060005b8551811015611c3a57609b54868281518110611b3b57611b3b614efe565b60200260200101510315611c285760a36000878381518110611b5f57611b5f614efe565b6020026020010151815260200190815260200160002060000154600003611b995760405163b810dc5d60e01b815260040160405180910390fd5b816001600160a01b031663c513be7788888481518110611bbb57611bbb614efe565b60200260200101516040518363ffffffff1660e01b8152600401611be092919061534b565b600060405180830381600087803b158015611bfa57600080fd5b505af1925050508015611c0b575060015b611c285760405163d9afe50760e01b815260040160405180910390fd5b80611c3281614f97565b915050611b1d565b50508080611c4790614f97565b915050611a89565b5095945050505050565b6000306001600160a01b037f00000000000000000000000000000000000000000000000000000000000000001614611cf95760405162461bcd60e51b815260206004820152603860248201527f555550535570677261646561626c653a206d757374206e6f742062652063616c60448201527f6c6564207468726f7567682064656c656761746563616c6c00000000000000006064820152608401610ff5565b5060008051602061553383398151915290565b611d4e604051806020016040528060008152506040518060400160405280601181526020017041646452656d6f76654368616e6e656c7360781b815250613508565b60008383604051602001611d63929190614ffd565b60408051601f198184030181529181528151602092830120600081815260a5909352908220600201549092509003611dae57604051636ddd9da960e01b815260040160405180910390fd5b600090815260a560205260409020600401805460ff19169115159190911790555050565b6040805160a081018252606080825260208201819052600092820183905281018290526080810191909152600082815260a5602052604090819020815160a08101909252805482908290611e2590614eca565b80601f0160208091040260200160405190810160405280929190818152602001828054611e5190614eca565b8015611e9e5780601f10611e7357610100808354040283529160200191611e9e565b820191906000526020600020905b815481529060010190602001808311611e8157829003601f168201915b50505050508152602001600182018054611eb790614eca565b80601f0160208091040260200160405190810160405280929190818152602001828054611ee390614eca565b8015611f305780601f10611f0557610100808354040283529160200191611f30565b820191906000526020600020905b815481529060010190602001808311611f1357829003601f168201915b5050509183525050600282015460208201526003820154604082015260049091015460ff16151560609091015292915050565b6060600060a2546001600160401b03811115611f8157611f816143e3565b604051908082528060200260200182016040528015611fc757816020015b604080518082019091526000815260606020820152815260200190600190039081611f9f5790505b50905060005b60a2548110156120cb5760a36000611fe683600161536d565b81526020019081526020016000206040518060400160405290816000820154815260200160018201805461201990614eca565b80601f016020809104026020016040519081016040528092919081815260200182805461204590614eca565b80156120925780601f1061206757610100808354040283529160200191612092565b820191906000526020600020905b81548152906001019060200180831161207557829003601f168201915b5050505050815250508282815181106120ad576120ad614efe565b602002602001018190525080806120c390614f97565b915050611fcd565b50919050565b60408051808201909152600081526060602082015260a360008381526020019081526020016000206040518060400160405290816000820154815260200160018201805461211e90614eca565b80601f016020809104026020016040519081016040528092919081815260200182805461214a90614eca565b80156121975780601f1061216c57610100808354040283529160200191612197565b820191906000526020600020905b81548152906001019060200180831161217a57829003601f168201915b5050505050815250509050919050565b60008060005b60a1548110156122895761224760a182815481106121cd576121cd614efe565b600091825260208220015460408051636465e69f60e01b815290516001600160a01b0390921692636465e69f926004808401938290030181865afa158015612219573d6000803e3d6000fd5b505050506040513d6000823e601f3d908101601f191682016040526122419190810190614f14565b85613ae4565b156122775760a1818154811061225f5761225f614efe565b6000918252602090912001546001600160a01b031691505b8061228181614f97565b9150506121ad565b5092915050565b609c54609d546040516331a9108f60e11b815260048101919091526000916001600160a01b031690636352211e90602401602060405180830381865afa1580156122de573d6000803e3d6000fd5b505050506040513d601f19601f820116820180604052508101906123029190615380565b905090565b600061234d60405180602001604052806000815250604051806040016040528060138152602001724d6f64696679537061636553657474696e677360681b815250613508565b61238c85858080601f0160208091040260200160405190810160405280939291908181526020018383808284376000920191909152506137db92505050565b600060a26000815461239d90614f97565b91905081905590506000604051806040016040528083815260200188888080601f016020809104026020016040519081016040528093929190818152602001838380828437600092018290525093909452505084815260a36020908152604090912083518155908301519293508392909150600182019061241e9082615077565b5090505060005b855181101561250e57609b541515801561247a575061247a86828151811061244f5761244f614efe565b60200260200101516040518060400160405280600581526020016427bbb732b960d91b815250613ae4565b1561249857604051631eb49d6d60e11b815260040160405180910390fd5b60008682815181106124ac576124ac614efe565b60200260200101516040516020016124c4919061532f565b6040516020818303038152906040526124dc9061500d565b600085815260a4602090815260408220805460018101825590835291200155508061250681614f97565b915050612425565b5060005b84518110156125e857600085828151811061252f5761252f614efe565b6020026020010151600001519050600086838151811061255157612551614efe565b602002602001015160200151905060006001600160a01b0316826001600160a01b0316148061257f57508051155b1561258b5750506125d6565b6001600160a01b0382166000908152609e602052604081205460ff16151590036125c85760405163c1ef36f360e01b815260040160405180910390fd5b6125d3858383613b3d565b50505b806125e081614f97565b915050612512565b5081336001600160a01b03167f39772407c6dd2e83adbd292cdfa17a6817c9a7500e56cfe57b7a82d797f8d39b898960996040516126289392919061539d565b60405180910390a35095945050505050565b609980546109ca90614eca565b61268b60405180602001604052806000815250604051806040016040528060138152602001724d6f64696679537061636553657474696e677360681b815250613508565b609b5481036126ad57604051631eb49d6d60e11b815260040160405180910390fd5b600081815260a3602052604081205490036126db5760405163b810dc5d60e01b815260040160405180910390fd5b600081815260a060205260409020541561270857604051633764405360e11b815260040160405180910390fd5b600081815260a3602052604081208181559061272760018301826140d9565b5050600081815260a46020526040812061274091614113565b80336001600160a01b03167f1d5667a301e36f2d5b1ee32b7f187b0adb46c706297242fa945d3fed1e7f8a19609960405161277b91906153cd565b60405180910390a350565b61278e613cb9565b6127da5760405162461bcd60e51b815260206004820152601860248201527f4d657461646174613a206e6f7420617574686f72697a656400000000000000006044820152606401610ff5565b61155382828080601f016020809104026020016040519081016040528093929190818152602001838380828437600092019190915250613cc392505050565b606060a680548060200260200160405190810160405280929190818152602001828054801561286757602002820191906000526020600020905b815481526020019060010190808311612853575b5050505050905090565b6128b560405180602001604052806000815250604051806040016040528060138152602001724d6f64696679537061636553657474696e677360681b815250613508565b600082815260a3602052604081205490036128e35760405163b810dc5d60e01b815260040160405180910390fd5b60005b8151811015612a815761290482828151811061244f5761244f614efe565b1561292257604051631eb49d6d60e11b815260040160405180910390fd5b600082828151811061293657612936614efe565b602002602001015160405160200161294e919061532f565b6040516020818303038152906040526129669061500d565b905060005b600085815260a46020526040902054811015612a6c57600085815260a4602052604090208054839190839081106129a4576129a4614efe565b906000526020600020015403612a5a57600085815260a46020526040902080546129d0906001906153e0565b815481106129e0576129e0614efe565b906000526020600020015460a460008781526020019081526020016000208281548110612a0f57612a0f614efe565b906000526020600020018190555060a46000868152602001908152602001600020805480612a3f57612a3f6153f3565b60019003818190600052602060002001600090559055612a6c565b80612a6481614f97565b91505061296b565b50508080612a7990614f97565b9150506128e6565b505050565b6060816001600160401b03811115612aa057612aa06143e3565b604051908082528060200260200182016040528015612ad357816020015b6060815260200190600190039081612abe5790505b50905060005b828110156122895760008030868685818110612af757612af7614efe565b9050602002810190612b099190615409565b604051612b17929190614ffd565b600060405180830381855af49150503d8060008114612b52576040519150601f19603f3d011682016040523d82523d6000602084013e612b57565b606091505b509150915081612b6a57612b6a81613d9f565b80848481518110612b7d57612b7d614efe565b602002602001018190525050508080612b9590614f97565b915050612ad9565b600081815260a46020526040812054606091816001600160401b03811115612bc757612bc76143e3565b604051908082528060200260200182016040528015612bfa57816020015b6060815260200190600190039081612be55790505b50905060005b82811015612ce257600085815260a460205260409020805473__$c1a75f255b63819dc61dbe1dc70b55a79b$__91639201de559184908110612c4457612c44614efe565b90600052602060002001546040518263ffffffff1660e01b8152600401612c6d91815260200190565b600060405180830381865af4158015612c8a573d6000803e3d6000fd5b505050506040513d6000823e601f3d908101601f19168201604052612cb29190810190614f14565b828281518110612cc457612cc4614efe565b60200260200101819052508080612cda90614f97565b915050612c00565b509392505050565b612d2e60405180602001604052806000815250604051806040016040528060138152602001724d6f64696679537061636553657474696e677360681b815250613508565b600082815260a360205260408120549003612d5c5760405163b810dc5d60e01b815260040160405180910390fd5b60005b8151811015612a8157612d7d82828151811061244f5761244f614efe565b15612d9b57604051631eb49d6d60e11b815260040160405180910390fd5b6000828281518110612daf57612daf614efe565b6020026020010151604051602001612dc7919061532f565b604051602081830303815290604052612ddf9061500d565b905060005b600085815260a46020526040902054811015612e5857600085815260a460205260409020805483919083908110612e1d57612e1d614efe565b906000526020600020015403612e4657604051636571d65f60e01b815260040160405180910390fd5b80612e5081614f97565b915050612de4565b50600084815260a460209081526040822080546001810182559083529120015580612e8281614f97565b915050612d5f565b612ece60405180602001604052806000815250604051806040016040528060138152602001724d6f64696679537061636553657474696e677360681b815250613508565b80516001600160a01b03166000908152609e602052604090205460ff16612f085760405163c1ef36f360e01b815260040160405180910390fd5b600082815260a360205260408120549003612f365760405163b810dc5d60e01b815260040160405180910390fd5b609b548203612f5857604051631eb49d6d60e11b815260040160405180910390fd5b6115538282600001518360200151613b3d565b612fd384848080601f0160208091040260200160405190810160405280939291908181526020018383808284376000920191909152505060408051808201909152601181527041646452656d6f76654368616e6e656c7360781b602082015291506135089050565b6001600160a01b0382166000908152609e602052604090205460ff1661300c5760405163c1ef36f360e01b815260040160405180910390fd5b600081815260a36020526040812054900361303a5760405163b810dc5d60e01b815260040160405180910390fd5b604051637997c1e760e11b81526001600160a01b0383169063f32f83ce90610ece90879087908690600401614fd9565b6000841580613077575081155b8061308957506001600160a01b038416155b156130a757604051630e52390960e41b815260040160405180910390fd5b600086866040516020016130bc929190614ffd565b60408051601f198184030181529181528151602092830120600081815260a590935290822060020154909250900361310757604051636ddd9da960e01b815260040160405180910390fd5b600081815260a5602052604090206004015460ff161561313a57604051631eb49d6d60e11b815260040160405180910390fd5b61318887878080601f01602080910402602001604051908101604052809392919081815260200183838082843760009201919091525050604051899250610f2f915088908890602001614ffd565b15611c4f575060019695505050505050565b6131de60405180602001604052806000815250604051806040016040528060138152602001724d6f64696679537061636553657474696e677360681b815250613508565b609b54820361320057604051631eb49d6d60e11b815260040160405180910390fd5b609e6000613211602084018461467d565b6001600160a01b0316815260208101919091526040016000205460ff1661324b5760405163c1ef36f360e01b815260040160405180910390fd5b600082815260a3602052604081205490036132795760405163b810dc5d60e01b815260040160405180910390fd5b6000826132896020840184615409565b60405160200161329b9392919061544f565b60408051601f198184030181529181528151602092830120600086815260a0909352908220909250905b8154811015613379578181815481106132e0576132e0614efe565b906000526020600020015483036133675781548290613301906001906153e0565b8154811061331157613311614efe565b906000526020600020015482828154811061332e5761332e614efe565b90600052602060002001819055508180548061334c5761334c6153f3565b60019003818190600052602060002001600090559055613379565b8061337181614f97565b9150506132c5565b50613387602084018461467d565b6001600160a01b031663fa6d1adf856133a36020870187615409565b6040518463ffffffff1660e01b81526004016133c193929190615469565b6020604051808303816000875af11580156133e0573d6000803e3d6000fd5b505050506040513d601f19601f820116820180604052508101906134049190615483565b5050505050565b60a3602052600090815260409020805460018201805491929161342d90614eca565b80601f016020809104026020016040519081016040528092919081815260200182805461345990614eca565b80156134a65780601f1061347b576101008083540402835291602001916134a6565b820191906000526020600020905b81548152906001019060200180831161348957829003601f168201915b5050505050905082565b60a681815481106134c057600080fd5b600091825260209091200154905081565b609780546109ca90614eca565b60a181815481106134ee57600080fd5b6000918252602090912001546001600160a01b0316905081565b6135128282613e6c565b1561351b575050565b604051631eb49d6d60e11b815260040160405180910390fd5b6000805b60a154811015612ce25760a1818154811061355557613555614efe565b60009182526020909120015460405162169d5560e31b81526001600160a01b039091169062b4eaa8906135909088908890889060040161549c565b602060405180830381865afa1580156135ad573d6000803e3d6000fd5b505050506040513d601f19601f820116820180604052508101906135d191906154ca565b156135db57600191505b806135e581614f97565b915050613538565b600054610100900460ff166136585760405162461bcd60e51b815260206004820152602b60248201527f496e697469616c697a61626c653a20636f6e7472616374206973206e6f74206960448201526a6e697469616c697a696e6760a81b6064820152608401610ff5565b565b6001600160a01b0382166000908152609e60205260409020805460ff191682158015919091179091556136d85760a180546001810182556000919091527faadc37b8ba5645e62f4546802db221593a94729ccbfc5a97d01365a88f6498780180546001600160a01b0384166001600160a01b03199091161790555050565b60005b60a154811015612a815760a181815481106136f8576136f8614efe565b6000918252602090912001546001600160a01b03908116908416036137c95760a18054613727906001906153e0565b8154811061373757613737614efe565b60009182526020909120015460a180546001600160a01b03909216918390811061376357613763614efe565b9060005260206000200160006101000a8154816001600160a01b0302191690836001600160a01b0316021790555060a18054806137a2576137a26153f3565b600082815260209020810160001990810180546001600160a01b0319169055019055505050565b806137d381614f97565b9150506136db565b80518190600211806137ee575080516020105b156115535760405163354b556f60e11b815260040160405180910390fd5b61384460405180602001604052806000815250604051806040016040528060078152602001665570677261646560c81b815250613e6c565b61141e57604051631eb49d6d60e11b815260040160405180910390fd5b7f4910fdfa16fed3260ed0e7147f7cc6da11a60208b5b9406d12a635614ffd91435460ff161561389457612a8183613ea0565b826001600160a01b03166352d1902d6040518163ffffffff1660e01b8152600401602060405180830381865afa9250505080156138ee575060408051601f3d908101601f191682019092526138eb91810190615483565b60015b6139515760405162461bcd60e51b815260206004820152602e60248201527f45524331393637557067726164653a206e657720696d706c656d656e7461746960448201526d6f6e206973206e6f74205555505360901b6064820152608401610ff5565b60008051602061553383398151915281146139c05760405162461bcd60e51b815260206004820152602960248201527f45524331393637557067726164653a20756e737570706f727465642070726f786044820152681a58589b195555525160ba1b6064820152608401610ff5565b50612a81838383613f3c565b6040516301ffc9a760e01b815263a485103160e01b60048201526001600160a01b038216906301ffc9a790602401602060405180830381865afa158015613a17573d6000803e3d6000fd5b505050506040513d601f19601f82011682018060405250810190613a3b91906154ca565b151560000361141e57604051636d9250f160e11b815260040160405180910390fd5b600033609c54609d546040516331a9108f60e11b815260048101919091526001600160a01b039283169290911690636352211e90602401602060405180830381865afa158015613ab1573d6000803e3d6000fd5b505050506040513d601f19601f82011682018060405250810190613ad59190615380565b6001600160a01b031614905090565b600081604051602001613af791906141bc565b6040516020818303038152906040528051906020012083604051602001613b1e91906141bc565b6040516020818303038152906040528051906020012014905092915050565b60008382604051602001613b529291906154e7565b60408051601f198184030181528282528051602091820120600088815260a0835283812080548085028701850190955284865291955093929091830182828015613bbb57602002820191906000526020600020905b815481526020019060010190808311613ba7575b505083519394506000925050505b81811015613c1c5783838281518110613be457613be4614efe565b602002602001015103613c0a5760405163c5c9ad6760e01b815260040160405180910390fd5b80613c1481614f97565b915050613bc9565b50600086815260a0602090815260408083208054600181018255908452919092200184905551633be2f95d60e21b81526001600160a01b0386169063ef8be57490613c6d9089908890600401614eb1565b6020604051808303816000875af1158015613c8c573d6000803e3d6000fd5b505050506040513d601f19601f82011682018060405250810190613cb09190615483565b50505050505050565b6000612302613a5d565b600060978054613cd290614eca565b80601f0160208091040260200160405190810160405280929190818152602001828054613cfe90614eca565b8015613d4b5780601f10613d2057610100808354040283529160200191613d4b565b820191906000526020600020905b815481529060010190602001808311613d2e57829003601f168201915b505050505090508160979081613d619190615077565b507fc9c7c3fe08b88b4df9d4d47ef47d2c43d55c025a0ba88ca442580ed9e7348a168183604051613d9392919061550d565b60405180910390a15050565b600481511015613de45760405162461bcd60e51b815260206004820152601060248201526f1d5b9a185b991b1959081c995d995c9d60821b6044820152606401610ff5565b602081015163b1b7848f60e01b6001600160e01b0319821601613e6357604080518082018252600e81526d70616e69636b65643a2030785f5f60901b602082018181526024860151600481811c600f908116603090810160081b9184160117909317909152925162461bcd60e51b8152919291610ff5918491016141bc565b81518060208401fd5b6000613e76613a5d565b80610f555750609a5460ff16158015610f555750610f55833384604051602001610f2f919061532f565b6001600160a01b0381163b613f0d5760405162461bcd60e51b815260206004820152602d60248201527f455243313936373a206e657720696d706c656d656e746174696f6e206973206e60448201526c1bdd08184818dbdb9d1c9858dd609a1b6064820152608401610ff5565b60008051602061553383398151915280546001600160a01b0319166001600160a01b0392909216919091179055565b613f4583613f67565b600082511180613f525750805b15612a8157613f618383613fa7565b50505050565b613f7081613ea0565b6040516001600160a01b038216907fbc7cd75a20ee27fd9adebab32041f755214dbc6bffa90cc0225b39da2e5c2d3b90600090a250565b60606001600160a01b0383163b61400f5760405162461bcd60e51b815260206004820152602660248201527f416464726573733a2064656c65676174652063616c6c20746f206e6f6e2d636f6044820152651b9d1c9858dd60d21b6064820152608401610ff5565b600080846001600160a01b03168460405161402a919061532f565b600060405180830381855af49150503d8060008114614065576040519150601f19603f3d011682016040523d82523d6000602084013e61406a565b606091505b509150915061409282826040518060600160405280602781526020016155536027913961409b565b95945050505050565b606083156140aa575081610f55565b610f5583838151156140bf5781518083602001fd5b8060405162461bcd60e51b8152600401610ff591906141bc565b5080546140e590614eca565b6000825580601f106140f5575050565b601f01602090049060005260206000209081019061141e919061412d565b508054600082559060005260206000209081019061141e91905b5b80821115610c88576000815560010161412e565b60006020828403121561415457600080fd5b81356001600160e01b031981168114610f5557600080fd5b60005b8381101561418757818101518382015260200161416f565b50506000910152565b600081518084526141a881602086016020860161416c565b601f01601f19169290920160200192915050565b602081526000610f556020830184614190565b60006020808301818452808551808352604092508286019150828160051b87010184880160005b8381101561426a57603f1989840301855281516080815181865261421c82870182614190565b838b01516001600160a01b0316878c0152898401518782038b89015290925090506142478282614190565b6060938401511515969093019590955250948701949250908601906001016141f6565b509098975050505050505050565b60006020828403121561428a57600080fd5b5035919050565b60a0815260006142a460a0830188614190565b82810360208401526142b68188614190565b604084019690965250506060810192909252151560809091015292915050565b60008083601f8401126142e857600080fd5b5081356001600160401b038111156142ff57600080fd5b60208301915083602082850101111561431757600080fd5b9250929050565b6001600160a01b038116811461141e57600080fd5b6000806000806060858703121561434957600080fd5b84356001600160401b0381111561435f57600080fd5b61436b878288016142d6565b909550935050602085013561437f8161431e565b9396929550929360400135925050565b6000806000604084860312156143a457600080fd5b83356143af8161431e565b925060208401356001600160401b038111156143ca57600080fd5b6143d6868287016142d6565b9497909650939450505050565b634e487b7160e01b600052604160045260246000fd5b604051601f8201601f191681016001600160401b0381118282101715614421576144216143e3565b604052919050565b60006001600160401b03821115614442576144426143e3565b50601f01601f191660200190565b600082601f83011261446157600080fd5b813561447461446f82614429565b6143f9565b81815284602083860101111561448957600080fd5b816020850160208301376000918101602001919091529392505050565b60006001600160401b038211156144bf576144bf6143e3565b5060051b60200190565b600080600080600060a086880312156144e157600080fd5b85356001600160401b03808211156144f857600080fd5b61450489838a01614450565b965060209150818801358181111561451b57600080fd5b6145278a828b01614450565b96505060408801356145388161431e565b94506060880135935060808801358181111561455357600080fd5b88019050601f8101891361456657600080fd5b803561457461446f826144a6565b81815260059190911b8201830190838101908b83111561459357600080fd5b928401925b828410156145ba5783356145ab8161431e565b82529284019290840190614598565b80955050505050509295509295909350565b600080604083850312156145df57600080fd5b8235915060208301356001600160401b038111156145fc57600080fd5b61460885828601614450565b9150509250929050565b6000806000806040858703121561462857600080fd5b84356001600160401b038082111561463f57600080fd5b61464b888389016142d6565b9096509450602087013591508082111561466457600080fd5b50614671878288016142d6565b95989497509550505050565b60006020828403121561468f57600080fd5b8135610f558161431e565b6020808252825182820181905260009190848201906040850190845b818110156146d2578351835292840192918401916001016146b6565b50909695505050505050565b801515811461141e57600080fd5b600080604083850312156146ff57600080fd5b823561470a8161431e565b9150602083013561471a816146de565b809150509250929050565b60006020828403121561473757600080fd5b8135610f55816146de565b6000806040838503121561475557600080fd5b82356147608161431e565b915060208301356001600160401b038111156145fc57600080fd5b6000806040838503121561478e57600080fd5b82356147998161431e565b9150602083013561471a8161431e565b600080600080606085870312156147bf57600080fd5b84356001600160401b03808211156147d657600080fd5b6147e2888389016142d6565b90965094506020915086820135818111156147fc57600080fd5b61480889828a01614450565b94505060408701358181111561481d57600080fd5b87019050601f8101881361483057600080fd5b803561483e61446f826144a6565b81815260059190911b8201830190838101908a83111561485d57600080fd5b928401925b8284101561487b57833582529284019290840190614862565b979a9699509497505050505050565b60008060006040848603121561489f57600080fd5b83356001600160401b038111156148b557600080fd5b6148c1868287016142d6565b90945092505060208401356148d5816146de565b809150509250925092565b602081526000825160a060208401526148fc60c0840182614190565b90506020840151601f198483030160408501526149198282614190565b91505060408401516060840152606084015160808401526080840151151560a08401528091505092915050565b8051825260006020820151604060208501526149656040850182614190565b949350505050565b6000602080830181845280855180835260408601915060408160051b870101925083870160005b828110156149c257603f198886030184526149b0858351614946565b94509285019290850190600101614994565b5092979650505050505050565b602081526000610f556020830184614946565b6000602082840312156149f457600080fd5b81356001600160401b03811115614a0a57600080fd5b61496584828501614450565b600082601f830112614a2757600080fd5b81356020614a3761446f836144a6565b82815260059290921b84018101918181019086841115614a5657600080fd5b8286015b84811015614a955780356001600160401b03811115614a795760008081fd5b614a878986838b0101614450565b845250918301918301614a5a565b509695505050505050565b600060408284031215614ab257600080fd5b604051604081016001600160401b038282108183111715614ad557614ad56143e3565b8160405282935084359150614ae98261431e565b90825260208401359080821115614aff57600080fd5b50614b0c85828601614450565b6020830152505092915050565b60008060008060608587031215614b2f57600080fd5b84356001600160401b0380821115614b4657600080fd5b614b52888389016142d6565b9096509450602091508682013581811115614b6c57600080fd5b614b7889828a01614a16565b945050604087013581811115614b8d57600080fd5b8701601f81018913614b9e57600080fd5b8035614bac61446f826144a6565b81815260059190911b8201840190848101908b831115614bcb57600080fd5b8584015b83811015614c0357803586811115614be75760008081fd5b614bf58e8983890101614aa0565b845250918601918601614bcf565b50989b979a50959850505050505050565b60008060208385031215614c2757600080fd5b82356001600160401b03811115614c3d57600080fd5b614c49858286016142d6565b90969095509350505050565b60008060408385031215614c6857600080fd5b8235915060208301356001600160401b03811115614c8557600080fd5b61460885828601614a16565b60008060208385031215614ca457600080fd5b82356001600160401b0380821115614cbb57600080fd5b818501915085601f830112614ccf57600080fd5b813581811115614cde57600080fd5b8660208260051b8501011115614cf357600080fd5b60209290920196919550909350505050565b6000602080830181845280855180835260408601915060408160051b870101925083870160005b828110156149c257603f19888603018452614d48858351614190565b94509285019290850190600101614d2c565b6000602080830181845280855180835260408601915060408160051b870101925083870160005b828110156149c257603f19888603018452614d9d858351614190565b94509285019290850190600101614d81565b60008060408385031215614dc257600080fd5b8235915060208301356001600160401b03811115614ddf57600080fd5b61460885828601614aa0565b600080600080600060608688031215614e0357600080fd5b85356001600160401b0380821115614e1a57600080fd5b614e2689838a016142d6565b909750955060208801359150614e3b8261431e565b90935060408701359080821115614e5157600080fd5b50614e5e888289016142d6565b969995985093965092949392505050565b60008060408385031215614e8257600080fd5b8235915060208301356001600160401b03811115614e9f57600080fd5b83016040818603121561471a57600080fd5b8281526040602082015260006149656040830184614190565b600181811c90821680614ede57607f821691505b6020821081036120cb57634e487b7160e01b600052602260045260246000fd5b634e487b7160e01b600052603260045260246000fd5b600060208284031215614f2657600080fd5b81516001600160401b03811115614f3c57600080fd5b8201601f81018413614f4d57600080fd5b8051614f5b61446f82614429565b818152856020838501011115614f7057600080fd5b61409282602083016020860161416c565b634e487b7160e01b600052601160045260246000fd5b600060018201614fa957614fa9614f81565b5060010190565b81835281816020850137506000828201602090810191909152601f909101601f19169091010190565b604081526000614fed604083018587614fb0565b9050826020830152949350505050565b8183823760009101908152919050565b805160208083015191908110156120cb5760001960209190910360031b1b16919050565b601f821115612a8157600081815260208120601f850160051c810160208610156150585750805b601f850160051c820191505b8181101561113e57828155600101615064565b81516001600160401b03811115615090576150906143e3565b6150a48161509e8454614eca565b84615031565b602080601f8311600181146150d957600084156150c15750858301515b600019600386901b1c1916600185901b17855561113e565b600085815260208120601f198616915b82811015615108578886015182559484019460019091019084016150e9565b50858210156151265787850151600019600388901b60f8161c191681555b5050505050600190811b01905550565b6000815461514381614eca565b808552602060018381168015615160576001811461517a576151a8565b60ff1985168884015283151560051b8801830195506151a8565b866000528260002060005b858110156151a05781548a8201860152908301908401615185565b890184019650505b505050505092915050565b6040815260006151c66040830185614190565b82810360208401526140928185615136565b6001600160401b038311156151ef576151ef6143e3565b615203836151fd8354614eca565b83615031565b6000601f841160018114615237576000851561521f5750838201355b600019600387901b1c1916600186901b178355613404565b600083815260209020601f19861690835b828110156152685786850135825560209485019460019092019101615248565b50868210156152855760001960f88860031b161c19848701351681555b505060018560011b0183555050505050565b6020808252602c908201527f46756e6374696f6e206d7573742062652063616c6c6564207468726f7567682060408201526b19195b1959d85d1958d85b1b60a21b606082015260800190565b6020808252602c908201527f46756e6374696f6e206d7573742062652063616c6c6564207468726f7567682060408201526b6163746976652070726f787960a01b606082015260800190565b6000825161534181846020870161416c565b9190910192915050565b60408152600061535e6040830185614190565b90508260208301529392505050565b808201808211156109b7576109b7614f81565b60006020828403121561539257600080fd5b8151610f558161431e565b6040815260006153b1604083018587614fb0565b82810360208401526153c38185615136565b9695505050505050565b602081526000610f556020830184615136565b818103818111156109b7576109b7614f81565b634e487b7160e01b600052603160045260246000fd5b6000808335601e1984360301811261542057600080fd5b8301803591506001600160401b0382111561543a57600080fd5b60200191503681900382131561431757600080fd5b838152818360208301376000910160200190815292915050565b838152604060208201526000614092604083018486614fb0565b60006020828403121561549557600080fd5b5051919050565b6060815260006154af6060830186614190565b6001600160a01b039490941660208301525060400152919050565b6000602082840312156154dc57600080fd5b8151610f55816146de565b828152600082516154ff81602085016020870161416c565b919091016020019392505050565b6040815260006155206040830185614190565b8281036020840152614092818561419056fe360894a13ba1a3210667c828492db98dca3e2076cc3735a920a3ca505d382bbc416464726573733a206c6f772d6c6576656c2064656c65676174652063616c6c206661696c6564a26469706673582212204255dff846cf48da895e5f46810e2f921e4bb90e9a664d5790c7e59f9c99e86264736f6c63430008130033",
    "linkReferences": {
      "packages/contracts/src/spaces/libraries/Utils.sol": {
        "Utils": [
          {
            "start": 11578,
            "length": 20
          }
        ]
      }
    }
  },
  "methodIdentifiers": {
    "MODULE_TYPE()": "5775029f",
    "MODULE_VERSION()": "81ed9808",
    "addPermissionsToRole(uint256,string[])": "b7515761",
    "addRoleToChannel(string,address,uint256)": "1dea616a",
    "addRoleToEntitlement(uint256,(address,bytes))": "ba201ba8",
    "channels(uint256)": "e5949b5d",
    "channelsByHash(bytes32)": "129ab3c8",
    "contractURI()": "e8a3d485",
    "createChannel(string,string,uint256[])": "51f83cea",
    "createRole(string,string[],(address,bytes)[])": "8fcd793d",
    "defaultEntitlements(address)": "fa6433c5",
    "disabled()": "ee070805",
    "entitlements(uint256)": "f28f9b56",
    "getChannelByHash(bytes32)": "703511f8",
    "getChannels()": "9575f6ac",
    "getEntitlementByModuleType(string)": "870b9464",
    "getEntitlementIdsByRoleId(uint256)": "42486e49",
    "getEntitlementModules()": "0d029f75",
    "getPermissionsByRoleId(uint256)": "b4264233",
    "getRoleById(uint256)": "784c872b",
    "getRoles()": "71061398",
    "hasEntitlement(address)": "7f8d06d0",
    "initialize(string,string,address,uint256,address[])": "22bcd764",
    "isEntitledToChannel(string,address,string)": "cea632bc",
    "isEntitledToSpace(address,string)": "20759f9e",
    "multicall(bytes[])": "ac9650d8",
    "name()": "06fdde03",
    "networkId()": "9025e64c",
    "owner()": "8da5cb5b",
    "ownerRoleId()": "d1a6a961",
    "proxiableUUID()": "52d1902d",
    "removePermissionsFromRole(uint256,string[])": "9a8e4c3e",
    "removeRole(uint256)": "92691821",
    "removeRoleFromChannel(string,address,uint256)": "baaf3d57",
    "removeRoleFromEntitlement(uint256,(address,bytes))": "dba81864",
    "roleCount()": "ddf96358",
    "rolesById(uint256)": "e5894ef4",
    "setChannelAccess(string,bool)": "5de151b8",
    "setContractURI(string)": "938e3d7b",
    "setEntitlementModule(address,bool)": "441555e5",
    "setOwnerRoleId(uint256)": "4999ab16",
    "setSpaceAccess(bool)": "446dc22e",
    "supportsInterface(bytes4)": "01ffc9a7",
    "token()": "fc0c546a",
    "tokenId()": "17d70f7c",
    "updateChannel(string,string)": "34a1dd26",
    "updateRole(uint256,string)": "32e704cc",
    "upgradeEntitlement(address,address)": "519607f2",
    "upgradeTo(address)": "3659cfe6",
    "upgradeToAndCall(address,bytes)": "4f1ef286"
  },
  "id": 122
}