{
  "abi": [
    {
      "inputs": [],
      "stateMutability": "nonpayable",
      "type": "constructor"
    },
    {
      "inputs": [],
      "name": "InvalidParameters",
      "type": "error"
    },
    {
      "inputs": [],
      "name": "NameContainsInvalidCharacters",
      "type": "error"
    },
    {
      "inputs": [],
      "name": "NameLengthInvalid",
      "type": "error"
    },
    {
      "inputs": [],
      "name": "NotAllowed",
      "type": "error"
    },
    {
      "inputs": [],
      "name": "PermissionAlreadyExists",
      "type": "error"
    },
    {
      "inputs": [],
      "name": "SpaceAlreadyRegistered",
      "type": "error"
    },
    {
      "anonymous": false,
      "inputs": [
        {
          "indexed": false,
          "internalType": "address",
          "name": "previousAdmin",
          "type": "address"
        },
        {
          "indexed": false,
          "internalType": "address",
          "name": "newAdmin",
          "type": "address"
        }
      ],
      "name": "AdminChanged",
      "type": "event"
    },
    {
      "anonymous": false,
      "inputs": [
        {
          "indexed": true,
          "internalType": "address",
          "name": "beacon",
          "type": "address"
        }
      ],
      "name": "BeaconUpgraded",
      "type": "event"
    },
    {
      "anonymous": false,
      "inputs": [
        {
          "indexed": false,
          "internalType": "uint8",
          "name": "version",
          "type": "uint8"
        }
      ],
      "name": "Initialized",
      "type": "event"
    },
    {
      "anonymous": false,
      "inputs": [
        {
          "indexed": true,
          "internalType": "address",
          "name": "previousOwner",
          "type": "address"
        },
        {
          "indexed": true,
          "internalType": "address",
          "name": "newOwner",
          "type": "address"
        }
      ],
      "name": "OwnershipTransferred",
      "type": "event"
    },
    {
      "anonymous": false,
      "inputs": [
        {
          "indexed": false,
          "internalType": "address",
          "name": "account",
          "type": "address"
        }
      ],
      "name": "Paused",
      "type": "event"
    },
    {
      "anonymous": false,
      "inputs": [
        {
          "indexed": false,
          "internalType": "address",
          "name": "account",
          "type": "address"
        }
      ],
      "name": "Unpaused",
      "type": "event"
    },
    {
      "anonymous": false,
      "inputs": [
        {
          "indexed": true,
          "internalType": "address",
          "name": "implementation",
          "type": "address"
        }
      ],
      "name": "Upgraded",
      "type": "event"
    },
    {
      "inputs": [],
      "name": "GATE_TOKEN_ADDRESS",
      "outputs": [
        {
          "internalType": "address",
          "name": "",
          "type": "address"
        }
      ],
      "stateMutability": "view",
      "type": "function"
    },
    {
      "inputs": [],
      "name": "SPACE_IMPLEMENTATION_ADDRESS",
      "outputs": [
        {
          "internalType": "address",
          "name": "",
          "type": "address"
        }
      ],
      "stateMutability": "view",
      "type": "function"
    },
    {
      "inputs": [],
      "name": "SPACE_TOKEN_ADDRESS",
      "outputs": [
        {
          "internalType": "address",
          "name": "",
          "type": "address"
        }
      ],
      "stateMutability": "view",
      "type": "function"
    },
    {
      "inputs": [],
      "name": "TOKEN_IMPLEMENTATION_ADDRESS",
      "outputs": [
        {
          "internalType": "address",
          "name": "",
          "type": "address"
        }
      ],
      "stateMutability": "view",
      "type": "function"
    },
    {
      "inputs": [],
      "name": "USER_IMPLEMENTATION_ADDRESS",
      "outputs": [
        {
          "internalType": "address",
          "name": "",
          "type": "address"
        }
      ],
      "stateMutability": "view",
      "type": "function"
    },
    {
      "inputs": [
        {
          "internalType": "string[]",
          "name": "_permissions",
          "type": "string[]"
        }
      ],
      "name": "addOwnerPermissions",
      "outputs": [],
      "stateMutability": "nonpayable",
      "type": "function"
    },
    {
      "inputs": [
        {
          "internalType": "string",
          "name": "spaceName",
          "type": "string"
        },
        {
          "internalType": "string",
          "name": "spaceNetworkId",
          "type": "string"
        },
        {
          "internalType": "string",
          "name": "spaceMetadata",
          "type": "string"
        },
        {
          "internalType": "string[]",
          "name": "_everyonePermissions",
          "type": "string[]"
        },
        {
          "components": [
            {
              "internalType": "string",
              "name": "roleName",
              "type": "string"
            },
            {
              "internalType": "string[]",
              "name": "permissions",
              "type": "string[]"
            },
            {
              "components": [
                {
                  "internalType": "address",
                  "name": "contractAddress",
                  "type": "address"
                },
                {
                  "internalType": "uint256",
                  "name": "quantity",
                  "type": "uint256"
                },
                {
                  "internalType": "bool",
                  "name": "isSingleToken",
                  "type": "bool"
                },
                {
                  "internalType": "uint256[]",
                  "name": "tokenIds",
                  "type": "uint256[]"
                }
              ],
              "internalType": "struct DataTypes.ExternalToken[]",
              "name": "tokens",
              "type": "tuple[]"
            },
            {
              "internalType": "address[]",
              "name": "users",
              "type": "address[]"
            }
          ],
          "internalType": "struct DataTypes.CreateSpaceExtraEntitlements",
          "name": "_extraEntitlements",
          "type": "tuple"
        }
      ],
      "name": "createSpace",
      "outputs": [
        {
          "internalType": "address",
          "name": "_spaceAddress",
          "type": "address"
        }
      ],
      "stateMutability": "nonpayable",
      "type": "function"
    },
    {
      "inputs": [],
      "name": "gatingEnabled",
      "outputs": [
        {
          "internalType": "bool",
          "name": "",
          "type": "bool"
        }
      ],
      "stateMutability": "view",
      "type": "function"
    },
    {
      "inputs": [],
      "name": "getOwnerPermissions",
      "outputs": [
        {
          "internalType": "string[]",
          "name": "",
          "type": "string[]"
        }
      ],
      "stateMutability": "view",
      "type": "function"
    },
    {
      "inputs": [
        {
          "internalType": "string",
          "name": "spaceNetworkId",
          "type": "string"
        }
      ],
      "name": "getSpaceAddressByNetworkId",
      "outputs": [
        {
          "internalType": "address",
          "name": "",
          "type": "address"
        }
      ],
      "stateMutability": "view",
      "type": "function"
    },
    {
      "inputs": [
        {
          "internalType": "string",
          "name": "spaceNetworkId",
          "type": "string"
        }
      ],
      "name": "getTokenIdByNetworkId",
      "outputs": [
        {
          "internalType": "uint256",
          "name": "",
          "type": "uint256"
        }
      ],
      "stateMutability": "view",
      "type": "function"
    },
    {
      "inputs": [
        {
          "internalType": "address",
          "name": "_space",
          "type": "address"
        },
        {
          "internalType": "address",
          "name": "_tokenEntitlement",
          "type": "address"
        },
        {
          "internalType": "address",
          "name": "_userEntitlement",
          "type": "address"
        },
        {
          "internalType": "address",
          "name": "_spaceToken",
          "type": "address"
        },
        {
          "internalType": "address",
          "name": "_gateToken",
          "type": "address"
        },
        {
          "internalType": "string[]",
          "name": "_permissions",
          "type": "string[]"
        }
      ],
      "name": "initialize",
      "outputs": [],
      "stateMutability": "nonpayable",
      "type": "function"
    },
    {
      "inputs": [
        {
          "internalType": "address",
          "name": "",
          "type": "address"
        },
        {
          "internalType": "address",
          "name": "",
          "type": "address"
        },
        {
          "internalType": "uint256",
          "name": "",
          "type": "uint256"
        },
        {
          "internalType": "bytes",
          "name": "",
          "type": "bytes"
        }
      ],
      "name": "onERC721Received",
      "outputs": [
        {
          "internalType": "bytes4",
          "name": "",
          "type": "bytes4"
        }
      ],
      "stateMutability": "nonpayable",
      "type": "function"
    },
    {
      "inputs": [],
      "name": "owner",
      "outputs": [
        {
          "internalType": "address",
          "name": "",
          "type": "address"
        }
      ],
      "stateMutability": "view",
      "type": "function"
    },
    {
      "inputs": [
        {
          "internalType": "uint256",
          "name": "",
          "type": "uint256"
        }
      ],
      "name": "ownerPermissions",
      "outputs": [
        {
          "internalType": "string",
          "name": "",
          "type": "string"
        }
      ],
      "stateMutability": "view",
      "type": "function"
    },
    {
      "inputs": [],
      "name": "paused",
      "outputs": [
        {
          "internalType": "bool",
          "name": "",
          "type": "bool"
        }
      ],
      "stateMutability": "view",
      "type": "function"
    },
    {
      "inputs": [],
      "name": "proxiableUUID",
      "outputs": [
        {
          "internalType": "bytes32",
          "name": "",
          "type": "bytes32"
        }
      ],
      "stateMutability": "view",
      "type": "function"
    },
    {
      "inputs": [],
      "name": "renounceOwnership",
      "outputs": [],
      "stateMutability": "nonpayable",
      "type": "function"
    },
    {
      "inputs": [
        {
          "internalType": "bool",
          "name": "_gatingEnabled",
          "type": "bool"
        }
      ],
      "name": "setGatingEnabled",
      "outputs": [],
      "stateMutability": "nonpayable",
      "type": "function"
    },
    {
      "inputs": [
        {
          "internalType": "bool",
          "name": "_paused",
          "type": "bool"
        }
      ],
      "name": "setPaused",
      "outputs": [],
      "stateMutability": "nonpayable",
      "type": "function"
    },
    {
      "inputs": [
        {
          "internalType": "address",
          "name": "_spaceToken",
          "type": "address"
        }
      ],
      "name": "setSpaceToken",
      "outputs": [],
      "stateMutability": "nonpayable",
      "type": "function"
    },
    {
      "inputs": [
        {
          "internalType": "bytes32",
          "name": "",
          "type": "bytes32"
        }
      ],
      "name": "spaceByHash",
      "outputs": [
        {
          "internalType": "address",
          "name": "",
          "type": "address"
        }
      ],
      "stateMutability": "view",
      "type": "function"
    },
    {
      "inputs": [
        {
          "internalType": "bytes32",
          "name": "",
          "type": "bytes32"
        }
      ],
      "name": "tokenByHash",
      "outputs": [
        {
          "internalType": "uint256",
          "name": "",
          "type": "uint256"
        }
      ],
      "stateMutability": "view",
      "type": "function"
    },
    {
      "inputs": [
        {
          "internalType": "address",
          "name": "newOwner",
          "type": "address"
        }
      ],
      "name": "transferOwnership",
      "outputs": [],
      "stateMutability": "nonpayable",
      "type": "function"
    },
    {
      "inputs": [
        {
          "internalType": "address",
          "name": "_space",
          "type": "address"
        },
        {
          "internalType": "address",
          "name": "_tokenEntitlement",
          "type": "address"
        },
        {
          "internalType": "address",
          "name": "_userEntitlement",
          "type": "address"
        },
        {
          "internalType": "address",
          "name": "_gateToken",
          "type": "address"
        }
      ],
      "name": "updateImplementations",
      "outputs": [],
      "stateMutability": "nonpayable",
      "type": "function"
    },
    {
      "inputs": [
        {
          "internalType": "address",
          "name": "newImplementation",
          "type": "address"
        }
      ],
      "name": "upgradeTo",
      "outputs": [],
      "stateMutability": "nonpayable",
      "type": "function"
    },
    {
      "inputs": [
        {
          "internalType": "address",
          "name": "newImplementation",
          "type": "address"
        },
        {
          "internalType": "bytes",
          "name": "data",
          "type": "bytes"
        }
      ],
      "name": "upgradeToAndCall",
      "outputs": [],
      "stateMutability": "payable",
      "type": "function"
    }
  ],
  "bytecode": {
    "object": "0x60a0604052306080523480156200001557600080fd5b506200002062000026565b620000e7565b600054610100900460ff1615620000935760405162461bcd60e51b815260206004820152602760248201527f496e697469616c697a61626c653a20636f6e747261637420697320696e697469604482015266616c697a696e6760c81b606482015260840160405180910390fd5b60005460ff90811614620000e5576000805460ff191660ff9081179091556040519081527f7f26b83ff96e1f2b6a682f133852f6798a09c465da95921460cefb38474024989060200160405180910390a15b565b608051613e906200011f6000396000818161062b015281816106770152818161074f01528181610792015261082e0152613e906000f3fe608060405260043610620001be5760003560e01c80638da5cb5b11620000ff578063cfc270371162000095578063f21cd401116200006c578063f21cd401146200055a578063f2fde38b146200057d578063f3aba30514620005a2578063f6ac70b714620005d457600080fd5b8063cfc2703714620004ed578063df2cd9fe1462000510578063ed267116146200053757600080fd5b8063ad78faf311620000d6578063ad78faf3146200044b578063b28032f91462000470578063be8b596714620004a4578063c45f396b14620004c957600080fd5b80638da5cb5b14620003e157806396dc21e414620004015780639ad622b7146200042657600080fd5b80634f1ef2861162000175578063683c72b6116200014c578063683c72b6146200035c5780636e9ea7ca146200037f578063715018a614620003a45780638a9ef42614620003bc57600080fd5b80634f1ef28614620002f857806352d1902d146200030f5780635c975abb146200033657600080fd5b806308bc0b4b14620001c3578063150b7a02146200020357806316c38b3c146200024c5780633312540a14620002735780633659cfe614620002ae5780634689cd0414620002d3575b600080fd5b348015620001d057600080fd5b5061016154620001e6906001600160a01b031681565b6040516001600160a01b0390911681526020015b60405180910390f35b3480156200021057600080fd5b506200023262000222366004620028fa565b630a85bd0160e11b949350505050565b6040516001600160e01b03199091168152602001620001fa565b3480156200025957600080fd5b50620002716200026b3660046200297a565b620005f9565b005b3480156200028057600080fd5b50620001e66200029236600462002998565b610165602052600090815260409020546001600160a01b031681565b348015620002bb57600080fd5b5062000271620002cd366004620029b2565b62000621565b348015620002e057600080fd5b5062000271620002f23660046200297a565b62000712565b6200027162000309366004620029d0565b62000745565b3480156200031c57600080fd5b506200032762000821565b604051908152602001620001fa565b3480156200034357600080fd5b5060655460ff165b6040519015158152602001620001fa565b3480156200036957600080fd5b5061016254620001e6906001600160a01b031681565b3480156200038c57600080fd5b50620002716200039e36600462002aee565b620008d7565b348015620003b157600080fd5b506200027162000aea565b348015620003c957600080fd5b5062000327620003db36600462002bd5565b62000b02565b348015620003ee57600080fd5b506033546001600160a01b0316620001e6565b3480156200040e57600080fd5b50620001e66200042036600462002bd5565b62000b37565b3480156200043357600080fd5b50620002716200044536600462002c1a565b62000b75565b3480156200045857600080fd5b50620001e66200046a36600462002cd7565b62000c43565b3480156200047d57600080fd5b50620004956200048f36600462002998565b6200122b565b604051620001fa919062002e21565b348015620004b157600080fd5b5062000271620004c336600462002e36565b620012e1565b348015620004d657600080fd5b50610163546200034b90600160a01b900460ff1681565b348015620004fa57600080fd5b5061016054620001e6906001600160a01b031681565b3480156200051d57600080fd5b5062000528620014ca565b604051620001fa919062002ec5565b3480156200054457600080fd5b5061016354620001e6906001600160a01b031681565b3480156200056757600080fd5b5061015f54620001e6906001600160a01b031681565b3480156200058a57600080fd5b50620002716200059c366004620029b2565b620015ae565b348015620005af57600080fd5b5062000327620005c136600462002998565b6101666020526000908152604090205481565b348015620005e157600080fd5b5062000271620005f3366004620029b2565b6200162a565b6200060362001661565b8015620006175762000614620016bd565b50565b620006146200171a565b6001600160a01b037f0000000000000000000000000000000000000000000000000000000000000000163003620006755760405162461bcd60e51b81526004016200066c9062002eda565b60405180910390fd5b7f00000000000000000000000000000000000000000000000000000000000000006001600160a01b0316620006c060008051602062003e14833981519152546001600160a01b031690565b6001600160a01b031614620006e95760405162461bcd60e51b81526004016200066c9062002f26565b620006f48162001756565b60408051600080825260208201909252620006149183919062001760565b6200071c62001661565b62000726620018d8565b6101638054911515600160a01b0260ff60a01b19909216919091179055565b6001600160a01b037f0000000000000000000000000000000000000000000000000000000000000000163003620007905760405162461bcd60e51b81526004016200066c9062002eda565b7f00000000000000000000000000000000000000000000000000000000000000006001600160a01b0316620007db60008051602062003e14833981519152546001600160a01b031690565b6001600160a01b031614620008045760405162461bcd60e51b81526004016200066c9062002f26565b6200080f8262001756565b6200081d8282600162001760565b5050565b6000306001600160a01b037f00000000000000000000000000000000000000000000000000000000000000001614620008c35760405162461bcd60e51b815260206004820152603860248201527f555550535570677261646561626c653a206d757374206e6f742062652063616c60448201527f6c6564207468726f7567682064656c656761746563616c6c000000000000000060648201526084016200066c565b5060008051602062003e1483398151915290565b600054610100900460ff1615808015620008f85750600054600160ff909116105b80620009145750303b15801562000914575060005460ff166001145b620009795760405162461bcd60e51b815260206004820152602e60248201527f496e697469616c697a61626c653a20636f6e747261637420697320616c72656160448201526d191e481a5b9a5d1a585b1a5e995960921b60648201526084016200066c565b6000805460ff1916600117905580156200099d576000805461ff0019166101001790555b620009a762001923565b620009b16200194d565b620009bb62001981565b620009c5620019b5565b620009cf62001923565b61015f80546001600160a01b03808a166001600160a01b031992831617909255610160805489841690831617905561016180548884169083161790556101628054878416921691909117905561016380546001600160a81b03191691851691909117905560005b825181101562000a995761016483828151811062000a585762000a5862002f72565b6020908102919091018101518254600181018455600093845291909220019062000a83908262003008565b508062000a9081620030d4565b91505062000a36565b50801562000ae1576000805461ff0019169055604051600181527f7f26b83ff96e1f2b6a682f133852f6798a09c465da95921460cefb38474024989060200160405180910390a15b50505050505050565b62000af462001661565b62000b006000620019e9565b565b600080838360405162000b17929190620030fc565b604080519182900390912060009081526101666020522054949350505050565b600080838360405162000b4c929190620030fc565b6040805191829003909120600090815261016560205220546001600160a01b0316949350505050565b62000b7f62001661565b62000b89620018d8565b6001600160a01b0384161562000bb65761015f80546001600160a01b0319166001600160a01b0386161790555b6001600160a01b0383161562000be35761016080546001600160a01b0319166001600160a01b0385161790555b6001600160a01b0382161562000c105761016180546001600160a01b0319166001600160a01b0384161790555b6001600160a01b0381161562000c3d5761016380546001600160a01b0319166001600160a01b0383161790555b50505050565b600062000c4f62001a3b565b62000c5962001a96565b62000c6362001ade565b62000c6f8a8a62001b93565b600087900362000c9257604051630e52390960e41b815260040160405180910390fd5b6000888860405162000ca6929190620030fc565b6040805191829003909120600081815261016560205291909120549091506001600160a01b03161562000cec57604051633881599b60e11b815260040160405180910390fd5b6101625460408051631d5e528f60e21b815290516000926001600160a01b0316916375794a3c9160048083019260209291908290030181865afa15801562000d38573d6000803e3d6000fd5b505050506040513d601f19601f8201168201806040525081019062000d5e91906200310c565b610162546040516275a31760e01b81529192506001600160a01b0316906275a3179062000d949030908c908c906004016200314f565b600060405180830381600087803b15801562000daf57600080fd5b505af115801562000dc4573d6000803e3d6000fd5b50505060008381526101666020526040808220849055610160546101625491516001600160a01b03928316602482015260448101869052929350169060640160408051601f198184030181529181526020820180516001600160e01b031663cd6dc68760e01b1790525162000e3990620027e5565b62000e4692919062003176565b604051809103906000f08015801562000e63573d6000803e3d6000fd5b5061016154610162546040516001600160a01b0391821660248201526044810186905292935060009291169060640160408051601f198184030181529181526020820180516001600160e01b031663cd6dc68760e01b1790525162000ec890620027e5565b62000ed592919062003176565b604051809103906000f08015801562000ef2573d6000803e3d6000fd5b506040805160028082526060820183529293506000929091602083019080368337019050509050828160008151811062000f305762000f3062002f72565b60200260200101906001600160a01b031690816001600160a01b031681525050818160018151811062000f675762000f6762002f72565b60200260200101906001600160a01b031690816001600160a01b03168152505061015f60009054906101000a90046001600160a01b03168f8f8f8f8561016260009054906101000a90046001600160a01b03168a60405160240162000fd39796959493929190620031ea565b60408051601f198184030181529181526020820180516001600160e01b031663f3ce6a5b60e01b179052516200100990620027e5565b6200101692919062003176565b604051809103906000f08015801562001033573d6000803e3d6000fd5b5060008681526101656020526040812080546001600160a01b0319166001600160a01b0384161790559096505b8151811015620010fd578181815181106200107f576200107f62002f72565b602090810291909101015160405162ed014d60e21b81526001600160a01b038981166004830152909116906303b4053490602401600060405180830381600087803b158015620010ce57600080fd5b505af1158015620010e3573d6000803e3d6000fd5b505050508080620010f490620030d4565b91505062001060565b506200110b86848662001dd3565b6200112386836200111d8b8d6200324b565b6200205c565b6200113b868484620011358b62003422565b620021f9565b610162546001600160a01b03166342842e0e30336040516001600160e01b031960e085901b1681526001600160a01b0392831660048201529116602482015260448101879052606401600060405180830381600087803b1580156200119f57600080fd5b505af1158015620011b4573d6000803e3d6000fd5b50505050620011c03390565b6001600160a01b0316866001600160a01b03167f78d7e431fd0a46d11f5c8889cf2db64699be1f95ccb8b1419211c83bcdbce5808f8f60405162001206929190620034e7565b60405180910390a350505050506200121e6001609755565b9998505050505050505050565b61016481815481106200123d57600080fd5b9060005260206000200160009150905080546200125a9062002f88565b80601f0160208091040260200160405190810160405280929190818152602001828054620012889062002f88565b8015620012d95780601f10620012ad57610100808354040283529160200191620012d9565b820191906000526020600020905b815481529060010190602001808311620012bb57829003601f168201915b505050505081565b620012eb62001661565b620012f5620018d8565b60005b81811015620014c55760005b6101645481101562001460576200142c84848481811062001329576200132962002f72565b90506020028101906200133d9190620034fd565b8080601f01602080910402602001604051908101604052809392919081815260200183838082843760009201919091525050610164805490925085915081106200138b576200138b62002f72565b906000526020600020018054620013a29062002f88565b80601f0160208091040260200160405190810160405280929190818152602001828054620013d09062002f88565b8015620014215780601f10620013f55761010080835404028352916020019162001421565b820191906000526020600020905b8154815290600101906020018083116200140357829003601f168201915b505050505062002499565b156200144b57604051636571d65f60e01b815260040160405180910390fd5b806200145781620030d4565b91505062001304565b5061016483838381811062001479576200147962002f72565b90506020028101906200148d9190620034fd565b82546001810184556000938452602090932090920191620014af918362003546565b5080620014bc81620030d4565b915050620012f8565b505050565b6060610164805480602002602001604051908101604052809291908181526020016000905b82821015620015a5578382906000526020600020018054620015119062002f88565b80601f01602080910402602001604051908101604052809291908181526020018280546200153f9062002f88565b8015620015905780601f10620015645761010080835404028352916020019162001590565b820191906000526020600020905b8154815290600101906020018083116200157257829003601f168201915b505050505081526020019060010190620014ef565b50505050905090565b620015b862001661565b6001600160a01b0381166200161f5760405162461bcd60e51b815260206004820152602660248201527f4f776e61626c653a206e6577206f776e657220697320746865207a65726f206160448201526564647265737360d01b60648201526084016200066c565b6200061481620019e9565b6200163462001661565b6200163e620018d8565b61016280546001600160a01b0319166001600160a01b0392909216919091179055565b6033546001600160a01b0316331462000b005760405162461bcd60e51b815260206004820181905260248201527f4f776e61626c653a2063616c6c6572206973206e6f7420746865206f776e657260448201526064016200066c565b620016c762001a96565b6065805460ff191660011790557f62e78cea01bee320cd4e420270b5ea74000d11b0c9f74754ebdbfc544b05a258620016fd3390565b6040516001600160a01b03909116815260200160405180910390a1565b62001724620018d8565b6065805460ff191690557f5db9ee0a495bf2e6ff9c91a7834c1ba4fdd244a5e8aa4e537bd38aeae4b073aa33620016fd565b6200061462001661565b7f4910fdfa16fed3260ed0e7147f7cc6da11a60208b5b9406d12a635614ffd91435460ff16156200179657620014c583620024f6565b826001600160a01b03166352d1902d6040518163ffffffff1660e01b8152600401602060405180830381865afa925050508015620017f3575060408051601f3d908101601f19168201909252620017f0918101906200310c565b60015b620018585760405162461bcd60e51b815260206004820152602e60248201527f45524331393637557067726164653a206e657720696d706c656d656e7461746960448201526d6f6e206973206e6f74205555505360901b60648201526084016200066c565b60008051602062003e148339815191528114620018ca5760405162461bcd60e51b815260206004820152602960248201527f45524331393637557067726164653a20756e737570706f727465642070726f786044820152681a58589b195555525160ba1b60648201526084016200066c565b50620014c583838362002595565b60655460ff1662000b005760405162461bcd60e51b815260206004820152601460248201527314185d5cd8589b194e881b9bdd081c185d5cd95960621b60448201526064016200066c565b600054610100900460ff1662000b005760405162461bcd60e51b81526004016200066c9062003612565b600054610100900460ff16620019775760405162461bcd60e51b81526004016200066c9062003612565b62000b00620025c0565b600054610100900460ff16620019ab5760405162461bcd60e51b81526004016200066c9062003612565b62000b00620025f5565b600054610100900460ff16620019df5760405162461bcd60e51b81526004016200066c9062003612565b62000b006200262b565b603380546001600160a01b038381166001600160a01b0319831681179093556040519116919082907f8be0079c531659141344cd1fd0a4f28419497f9722a3daafe3b4186f6b6457e090600090a35050565b60026097540362001a8f5760405162461bcd60e51b815260206004820152601f60248201527f5265656e7472616e637947756172643a207265656e7472616e742063616c6c0060448201526064016200066c565b6002609755565b60655460ff161562000b005760405162461bcd60e51b815260206004820152601060248201526f14185d5cd8589b194e881c185d5cd95960821b60448201526064016200066c565b61016354600160a01b900460ff16801562001b745750610163546001600160a01b03166370a08231336040516001600160e01b031960e084901b1681526001600160a01b039091166004820152602401602060405180830381865afa15801562001b4c573d6000803e3d6000fd5b505050506040513d601f19601f8201168201806040525081019062001b7291906200310c565b155b1562000b0057604051631eb49d6d60e11b815260040160405180910390fd5b600082828080601f01602080910402602001604051908101604052809392919081815260200183838082843760009201919091525050825192935050600290911090508062001be3575080516020105b1562001c025760405163354b556f60e11b815260040160405180910390fd5b805160005b8181101562001dcc57600360fc1b83828151811062001c2a5762001c2a62002f72565b01602001516001600160f81b031916108062001c6c5750603d60f91b83828151811062001c5b5762001c5b62002f72565b01602001516001600160f81b031916115b8062001cd05750603960f81b83828151811062001c8d5762001c8d62002f72565b01602001516001600160f81b03191611801562001cd05750606160f81b83828151811062001cbf5762001cbf62002f72565b01602001516001600160f81b031916105b801562001d05575082818151811062001ced5762001ced62002f72565b6020910101516001600160f81b031916601760f91b14155b801562001d3a575082818151811062001d225762001d2262002f72565b6020910101516001600160f81b031916602d60f81b14155b801562001d6f575082818151811062001d575762001d5762002f72565b6020910101516001600160f81b031916605f60f81b14155b801562001da4575082818151811062001d8c5762001d8c62002f72565b6020910101516001600160f81b031916600160fd1b14155b1562001dc35760405163f8fa659760e01b815260040160405180910390fd5b60010162001c07565b5050505050565b604080516001808252818301909252600091816020015b604080516080810182526000808252602080830182905292820152606080820152825260001990920191018162001dea5750506040805160018082528183019092529192506000919060208083019080368337019050509050828160008151811062001e5a5762001e5a62002f72565b60209081029190910181019190915260408051608081018252610162546001600160a01b03168152600192810183905290810191909152606081018290528251839060009062001eae5762001eae62002f72565b6020908102919091010152604080516001808252818301909252600091816020015b60408051808201909152600081526060602082015281526020019060019003908162001ed05790505090506040518060400160405280866001600160a01b031681526020018460405160200162001f2891906200365d565b6040516020818303038152906040528152508160008151811062001f505762001f5062002f72565b60200260200101819052506000866001600160a01b0316638fcd793d6040518060400160405280600581526020016427bbb732b960d91b815250610164856040518463ffffffff1660e01b815260040162001fae9392919062003798565b6020604051808303816000875af115801562001fce573d6000803e3d6000fd5b505050506040513d601f19601f8201168201806040525081019062001ff491906200310c565b6040516324ccd58b60e11b8152600481018290529091506001600160a01b03881690634999ab1690602401600060405180830381600087803b1580156200203a57600080fd5b505af11580156200204f573d6000803e3d6000fd5b5050505050505050505050565b604080516001808252818301909252600091816020015b604080518082019091526000815260606020820152815260200190600190039081620020735750506040805160018082528183019092529192506000919060208083019080368337019050509050600181600081518110620020d957620020d962002f72565b60200260200101906001600160a01b031690816001600160a01b0316815250506040518060400160405280856001600160a01b03168152602001826040516020016200212691906200389b565b604051602081830303815290604052815250826000815181106200214e576200214e62002f72565b6020026020010181905250846001600160a01b0316638fcd793d6040518060400160405280600881526020016745766572796f6e6560c01b81525085856040518463ffffffff1660e01b8152600401620021ab93929190620038b0565b6020604051808303816000875af1158015620021cb573d6000803e3d6000fd5b505050506040513d601f19601f82011682018060405250810190620021f191906200310c565b505050505050565b6020810151511562000c3d57604080516001808252818301909252600091816020015b6040805180820190915260008152606060208201528152602001906001900390816200221c579050509050604051806040016040528060006001600160a01b0316815260200160405180602001604052806000815250815250816000815181106200228b576200228b62002f72565b60200260200101819052506000856001600160a01b0316638fcd793d84600001518560200151856040518463ffffffff1660e01b8152600401620022d293929190620038b0565b6020604051808303816000875af1158015620022f2573d6000803e3d6000fd5b505050506040513d601f19601f820116820180604052508101906200231891906200310c565b60608401515190915015620023ce57856001600160a01b031663ba201ba8826040518060400160405280886001600160a01b0316815260200187606001516040516020016200236891906200389b565b6040516020818303038152906040528152506040518363ffffffff1660e01b815260040162002399929190620038f9565b600060405180830381600087803b158015620023b457600080fd5b505af1158015620023c9573d6000803e3d6000fd5b505050505b826040015151600003620023e457505062000c3d565b856001600160a01b031663ba201ba8826040518060400160405280896001600160a01b0316815260200187604001516040516020016200242591906200365d565b6040516020818303038152906040528152506040518363ffffffff1660e01b815260040162002456929190620038f9565b600060405180830381600087803b1580156200247157600080fd5b505af115801562002486573d6000803e3d6000fd5b50505050505050505050565b6001609755565b600081604051602001620024ae919062002e21565b6040516020818303038152906040528051906020012083604051602001620024d7919062002e21565b6040516020818303038152906040528051906020012014905092915050565b6001600160a01b0381163b620025655760405162461bcd60e51b815260206004820152602d60248201527f455243313936373a206e657720696d706c656d656e746174696f6e206973206e60448201526c1bdd08184818dbdb9d1c9858dd609a1b60648201526084016200066c565b60008051602062003e1483398151915280546001600160a01b0319166001600160a01b0392909216919091179055565b620025a08362002655565b600082511180620025ae5750805b15620014c55762000c3d838362002697565b600054610100900460ff16620025ea5760405162461bcd60e51b81526004016200066c9062003612565b62000b0033620019e9565b600054610100900460ff166200261f5760405162461bcd60e51b81526004016200066c9062003612565b6065805460ff19169055565b600054610100900460ff16620024925760405162461bcd60e51b81526004016200066c9062003612565b6200266081620024f6565b6040516001600160a01b038216907fbc7cd75a20ee27fd9adebab32041f755214dbc6bffa90cc0225b39da2e5c2d3b90600090a250565b60606001600160a01b0383163b620027015760405162461bcd60e51b815260206004820152602660248201527f416464726573733a2064656c65676174652063616c6c20746f206e6f6e2d636f6044820152651b9d1c9858dd60d21b60648201526084016200066c565b600080846001600160a01b0316846040516200271e919062003914565b600060405180830381855af49150503d80600081146200275b576040519150601f19603f3d011682016040523d82523d6000602084013e62002760565b606091505b50915091506200278b828260405180606001604052806027815260200162003e346027913962002794565b95945050505050565b60608315620027a5575081620027b1565b620027b18383620027b8565b9392505050565b815115620027c95781518083602001fd5b8060405162461bcd60e51b81526004016200066c919062002e21565b6104e1806200393383390190565b80356001600160a01b03811681146200280b57600080fd5b919050565b634e487b7160e01b600052604160045260246000fd5b604051608081016001600160401b03811182821017156200284b576200284b62002810565b60405290565b604051601f8201601f191681016001600160401b03811182821017156200287c576200287c62002810565b604052919050565b600082601f8301126200289657600080fd5b81356001600160401b03811115620028b257620028b262002810565b620028c7601f8201601f191660200162002851565b818152846020838601011115620028dd57600080fd5b816020850160208301376000918101602001919091529392505050565b600080600080608085870312156200291157600080fd5b6200291c85620027f3565b93506200292c60208601620027f3565b92506040850135915060608501356001600160401b038111156200294f57600080fd5b6200295d8782880162002884565b91505092959194509250565b803580151581146200280b57600080fd5b6000602082840312156200298d57600080fd5b620027b18262002969565b600060208284031215620029ab57600080fd5b5035919050565b600060208284031215620029c557600080fd5b620027b182620027f3565b60008060408385031215620029e457600080fd5b620029ef83620027f3565b915060208301356001600160401b0381111562002a0b57600080fd5b62002a198582860162002884565b9150509250929050565b60006001600160401b0382111562002a3f5762002a3f62002810565b5060051b60200190565b600062002a6062002a5a8462002a23565b62002851565b8381529050602080820190600585901b84018681111562002a8057600080fd5b845b8181101562002ac05780356001600160401b0381111562002aa35760008081fd5b62002ab18982890162002884565b85525092820192820162002a82565b505050509392505050565b600082601f83011262002add57600080fd5b620027b18383356020850162002a49565b60008060008060008060c0878903121562002b0857600080fd5b62002b1387620027f3565b955062002b2360208801620027f3565b945062002b3360408801620027f3565b935062002b4360608801620027f3565b925062002b5360808801620027f3565b915060a08701356001600160401b0381111562002b6f57600080fd5b62002b7d89828a0162002acb565b9150509295509295509295565b60008083601f84011262002b9d57600080fd5b5081356001600160401b0381111562002bb557600080fd5b60208301915083602082850101111562002bce57600080fd5b9250929050565b6000806020838503121562002be957600080fd5b82356001600160401b0381111562002c0057600080fd5b62002c0e8582860162002b8a565b90969095509350505050565b6000806000806080858703121562002c3157600080fd5b62002c3c85620027f3565b935062002c4c60208601620027f3565b925062002c5c60408601620027f3565b915062002c6c60608601620027f3565b905092959194509250565b60008083601f84011262002c8a57600080fd5b5081356001600160401b0381111562002ca257600080fd5b6020830191508360208260051b850101111562002bce57600080fd5b60006080828403121562002cd157600080fd5b50919050565b600080600080600080600080600060a08a8c03121562002cf657600080fd5b89356001600160401b038082111562002d0e57600080fd5b62002d1c8d838e0162002b8a565b909b50995060208c013591508082111562002d3657600080fd5b62002d448d838e0162002b8a565b909950975060408c013591508082111562002d5e57600080fd5b62002d6c8d838e0162002b8a565b909750955060608c013591508082111562002d8657600080fd5b62002d948d838e0162002c77565b909550935060808c013591508082111562002dae57600080fd5b5062002dbd8c828d0162002cbe565b9150509295985092959850929598565b60005b8381101562002dea57818101518382015260200162002dd0565b50506000910152565b6000815180845262002e0d81602086016020860162002dcd565b601f01601f19169290920160200192915050565b602081526000620027b1602083018462002df3565b6000806020838503121562002e4a57600080fd5b82356001600160401b0381111562002e6157600080fd5b62002c0e8582860162002c77565b6000815180845260208085019450848260051b860182860160005b8581101562002eb857838303895262002ea583835162002df3565b9885019892509084019060010162002e8a565b5090979650505050505050565b602081526000620027b1602083018462002e6f565b6020808252602c908201527f46756e6374696f6e206d7573742062652063616c6c6564207468726f7567682060408201526b19195b1959d85d1958d85b1b60a21b606082015260800190565b6020808252602c908201527f46756e6374696f6e206d7573742062652063616c6c6564207468726f7567682060408201526b6163746976652070726f787960a01b606082015260800190565b634e487b7160e01b600052603260045260246000fd5b600181811c9082168062002f9d57607f821691505b60208210810362002cd157634e487b7160e01b600052602260045260246000fd5b601f821115620014c557600081815260208120601f850160051c8101602086101562002fe75750805b601f850160051c820191505b81811015620021f15782815560010162002ff3565b81516001600160401b0381111562003024576200302462002810565b6200303c8162003035845462002f88565b8462002fbe565b602080601f8311600181146200307457600084156200305b5750858301515b600019600386901b1c1916600185901b178555620021f1565b600085815260208120601f198616915b82811015620030a55788860151825594840194600190910190840162003084565b5085821015620030c45787850151600019600388901b60f8161c191681555b5050505050600190811b01905550565b600060018201620030f557634e487b7160e01b600052601160045260246000fd5b5060010190565b8183823760009101908152919050565b6000602082840312156200311f57600080fd5b5051919050565b81835281816020850137506000828201602090810191909152601f909101601f19169091010190565b6001600160a01b03841681526040602082018190526000906200278b908301848662003126565b6001600160a01b03831681526040602082018190526000906200319c9083018462002df3565b949350505050565b600081518084526020808501945080840160005b83811015620031df5781516001600160a01b031687529582019590820190600101620031b8565b509495945050505050565b60a0815260006200320060a08301898b62003126565b82810360208401526200321581888a62003126565b905082810360408401526200322b8187620031a4565b6001600160a01b0395909516606084015250506080015295945050505050565b6000620027b136848462002a49565b600082601f8301126200326c57600080fd5b813560206200327f62002a5a8362002a23565b828152600592831b85018201928282019190878511156200329f57600080fd5b8387015b8581101562002eb85780356001600160401b0380821115620032c55760008081fd5b908901906080828c03601f1901811315620032e05760008081fd5b620032ea62002826565b620032f7898501620027f3565b81526040808501358a83015260606200331281870162002969565b838301529285013592848411156200332a5760008081fd5b83860195508e603f8701126200334257600094508485fd5b8a86013594506200335762002a5a8662002a23565b85815294881b86018201948b810194508f861115620033765760008081fd5b958201955b85871015620033965786358552958b0195938b01936200337b565b90830152508752505050928401928401620032a3565b600082601f830112620033be57600080fd5b81356020620033d162002a5a8362002a23565b82815260059290921b84018101918181019086841115620033f157600080fd5b8286015b8481101562003417576200340981620027f3565b8352918301918301620033f5565b509695505050505050565b6000608082360312156200343557600080fd5b6200343f62002826565b82356001600160401b03808211156200345757600080fd5b620034653683870162002884565b835260208501359150808211156200347c57600080fd5b6200348a3683870162002acb565b60208401526040850135915080821115620034a457600080fd5b620034b2368387016200325a565b60408401526060850135915080821115620034cc57600080fd5b50620034db36828601620033ac565b60608301525092915050565b6020815260006200319c60208301848662003126565b6000808335601e198436030181126200351557600080fd5b8301803591506001600160401b038211156200353057600080fd5b60200191503681900382131562002bce57600080fd5b6001600160401b0383111562003560576200356062002810565b620035788362003571835462002f88565b8362002fbe565b6000601f841160018114620035af5760008515620035965750838201355b600019600387901b1c1916600186901b17835562001dcc565b600083815260209020601f19861690835b82811015620035e25786850135825560209485019460019092019101620035c0565b5086821015620036005760001960f88860031b161c19848701351681555b505060018560011b0183555050505050565b6020808252602b908201527f496e697469616c697a61626c653a20636f6e7472616374206973206e6f74206960408201526a6e697469616c697a696e6760a81b606082015260800190565b60006020808301818452808551808352604092508286019150828160051b8701018488016000805b848110156200371157898403603f19018652825180516001600160a01b031685528881015189860152878101511515888601526060908101516080918601829052805191860182905289019060a086019084905b80821015620036fb5783518352928b0192918b019160019190910190620036d9565b5050968901969450509187019160010162003685565b50919998505050505050505050565b60018060a01b03815116825260006020820151604060208501526200319c604085018262002df3565b600082825180855260208086019550808260051b84010181860160005b8481101562002eb857601f198684030189526200378583835162003720565b9884019892509083019060010162003766565b606081526000620037ad606083018662002df3565b602083820381850152818654808452828401915060058382821b86010160008a8152858120815b858110156200387557601f19898503018752828254620037f48162002f88565b808752600182811680156200381257600181146200382c576200385d565b60ff198416898e01528215158a1b89018d0194506200385d565b8688528c8820885b84811015620038555781548f828d01015283820191508e8101905062003834565b8a018e019550505b50998b019992965050509190910190600101620037d4565b50505087810360408901526200388c818a62003749565b9b9a5050505050505050505050565b602081526000620027b16020830184620031a4565b606081526000620038c5606083018662002df3565b8281036020840152620038d9818662002e6f565b90508281036040840152620038ef818562003749565b9695505050505050565b8281526040602082015260006200319c604083018462003720565b600082516200392881846020870162002dcd565b919091019291505056fe60806040526040516104e13803806104e1833981016040819052610022916102de565b61002e82826000610035565b50506103fb565b61003e83610061565b60008251118061004b5750805b1561005c5761005a83836100a1565b505b505050565b61006a816100cd565b6040516001600160a01b038216907fbc7cd75a20ee27fd9adebab32041f755214dbc6bffa90cc0225b39da2e5c2d3b90600090a250565b60606100c683836040518060600160405280602781526020016104ba60279139610180565b9392505050565b6001600160a01b0381163b61013f5760405162461bcd60e51b815260206004820152602d60248201527f455243313936373a206e657720696d706c656d656e746174696f6e206973206e60448201526c1bdd08184818dbdb9d1c9858dd609a1b60648201526084015b60405180910390fd5b7f360894a13ba1a3210667c828492db98dca3e2076cc3735a920a3ca505d382bbc80546001600160a01b0319166001600160a01b0392909216919091179055565b6060600080856001600160a01b03168560405161019d91906103ac565b600060405180830381855af49150503d80600081146101d8576040519150601f19603f3d011682016040523d82523d6000602084013e6101dd565b606091505b5090925090506101ef868383876101f9565b9695505050505050565b60608315610268578251600003610261576001600160a01b0385163b6102615760405162461bcd60e51b815260206004820152601d60248201527f416464726573733a2063616c6c20746f206e6f6e2d636f6e74726163740000006044820152606401610136565b5081610272565b610272838361027a565b949350505050565b81511561028a5781518083602001fd5b8060405162461bcd60e51b815260040161013691906103c8565b634e487b7160e01b600052604160045260246000fd5b60005b838110156102d55781810151838201526020016102bd565b50506000910152565b600080604083850312156102f157600080fd5b82516001600160a01b038116811461030857600080fd5b60208401519092506001600160401b038082111561032557600080fd5b818501915085601f83011261033957600080fd5b81518181111561034b5761034b6102a4565b604051601f8201601f19908116603f01168101908382118183101715610373576103736102a4565b8160405282815288602084870101111561038c57600080fd5b61039d8360208301602088016102ba565b80955050505050509250929050565b600082516103be8184602087016102ba565b9190910192915050565b60208152600082518060208401526103e78160408501602087016102ba565b601f01601f19169190910160400192915050565b60b1806104096000396000f3fe608060405236601057600e6013565b005b600e5b601f601b6021565b6058565b565b600060537f360894a13ba1a3210667c828492db98dca3e2076cc3735a920a3ca505d382bbc546001600160a01b031690565b905090565b3660008037600080366000845af43d6000803e8080156076573d6000f35b3d6000fdfea2646970667358221220be2f31fd313a107762044db8c9254a731d5750e877a7c3949866f6f8bacaec6464736f6c63430008130033416464726573733a206c6f772d6c6576656c2064656c65676174652063616c6c206661696c6564360894a13ba1a3210667c828492db98dca3e2076cc3735a920a3ca505d382bbc416464726573733a206c6f772d6c6576656c2064656c65676174652063616c6c206661696c6564a2646970667358221220c8fdec2e95c3a47e6a13d6a31813fd21d8e071ef9b8add47632741d874076b3464736f6c63430008130033",
    "linkReferences": {}
  },
  "methodIdentifiers": {
    "GATE_TOKEN_ADDRESS()": "ed267116",
    "SPACE_IMPLEMENTATION_ADDRESS()": "f21cd401",
    "SPACE_TOKEN_ADDRESS()": "683c72b6",
    "TOKEN_IMPLEMENTATION_ADDRESS()": "cfc27037",
    "USER_IMPLEMENTATION_ADDRESS()": "08bc0b4b",
    "addOwnerPermissions(string[])": "be8b5967",
    "createSpace(string,string,string,string[],(string,string[],(address,uint256,bool,uint256[])[],address[]))": "ad78faf3",
    "gatingEnabled()": "c45f396b",
    "getOwnerPermissions()": "df2cd9fe",
    "getSpaceAddressByNetworkId(string)": "96dc21e4",
    "getTokenIdByNetworkId(string)": "8a9ef426",
    "initialize(address,address,address,address,address,string[])": "6e9ea7ca",
    "onERC721Received(address,address,uint256,bytes)": "150b7a02",
    "owner()": "8da5cb5b",
    "ownerPermissions(uint256)": "b28032f9",
    "paused()": "5c975abb",
    "proxiableUUID()": "52d1902d",
    "renounceOwnership()": "715018a6",
    "setGatingEnabled(bool)": "4689cd04",
    "setPaused(bool)": "16c38b3c",
    "setSpaceToken(address)": "f6ac70b7",
    "spaceByHash(bytes32)": "3312540a",
    "tokenByHash(bytes32)": "f3aba305",
    "transferOwnership(address)": "f2fde38b",
    "updateImplementations(address,address,address,address)": "9ad622b7",
    "upgradeTo(address)": "3659cfe6",
    "upgradeToAndCall(address,bytes)": "4f1ef286"
  },
  "id": 114
}