{
  "abi": [
    {
      "inputs": [],
      "stateMutability": "nonpayable",
      "type": "constructor"
    },
    {
      "inputs": [],
      "name": "AddRoleFailed",
      "type": "error"
    },
    {
      "inputs": [],
      "name": "ChannelAlreadyRegistered",
      "type": "error"
    },
    {
      "inputs": [],
      "name": "ChannelDoesNotExist",
      "type": "error"
    },
    {
      "inputs": [],
      "name": "EntitlementAlreadyExists",
      "type": "error"
    },
    {
      "inputs": [],
      "name": "EntitlementAlreadyWhitelisted",
      "type": "error"
    },
    {
      "inputs": [],
      "name": "EntitlementModuleNotSupported",
      "type": "error"
    },
    {
      "inputs": [],
      "name": "EntitlementNotWhitelisted",
      "type": "error"
    },
    {
      "inputs": [],
      "name": "InvalidParameters",
      "type": "error"
    },
    {
      "inputs": [],
      "name": "MissingOwnerPermission",
      "type": "error"
    },
    {
      "inputs": [],
      "name": "NameLengthInvalid",
      "type": "error"
    },
    {
      "inputs": [],
      "name": "NotAllowed",
      "type": "error"
    },
    {
      "inputs": [],
      "name": "PermissionAlreadyExists",
      "type": "error"
    },
    {
      "inputs": [],
      "name": "RoleDoesNotExist",
      "type": "error"
    },
    {
      "inputs": [],
      "name": "RoleIsAssignedToEntitlement",
      "type": "error"
    },
    {
      "anonymous": false,
      "inputs": [
        {
          "indexed": false,
          "internalType": "address",
          "name": "previousAdmin",
          "type": "address"
        },
        {
          "indexed": false,
          "internalType": "address",
          "name": "newAdmin",
          "type": "address"
        }
      ],
      "name": "AdminChanged",
      "type": "event"
    },
    {
      "anonymous": false,
      "inputs": [
        {
          "indexed": true,
          "internalType": "address",
          "name": "beacon",
          "type": "address"
        }
      ],
      "name": "BeaconUpgraded",
      "type": "event"
    },
    {
      "anonymous": false,
      "inputs": [
        {
          "indexed": false,
          "internalType": "string",
          "name": "prevURI",
          "type": "string"
        },
        {
          "indexed": false,
          "internalType": "string",
          "name": "newURI",
          "type": "string"
        }
      ],
      "name": "ContractURIUpdated",
      "type": "event"
    },
    {
      "anonymous": false,
      "inputs": [
        {
          "indexed": false,
          "internalType": "uint8",
          "name": "version",
          "type": "uint8"
        }
      ],
      "name": "Initialized",
      "type": "event"
    },
    {
      "anonymous": false,
      "inputs": [
        {
          "indexed": true,
          "internalType": "address",
          "name": "implementation",
          "type": "address"
        }
      ],
      "name": "Upgraded",
      "type": "event"
    },
    {
      "inputs": [],
      "name": "MODULE_TYPE",
      "outputs": [
        {
          "internalType": "string",
          "name": "",
          "type": "string"
        }
      ],
      "stateMutability": "view",
      "type": "function"
    },
    {
      "inputs": [],
      "name": "MODULE_VERSION",
      "outputs": [
        {
          "internalType": "uint48",
          "name": "",
          "type": "uint48"
        }
      ],
      "stateMutability": "view",
      "type": "function"
    },
    {
      "inputs": [
        {
          "internalType": "uint256",
          "name": "_roleId",
          "type": "uint256"
        },
        {
          "internalType": "string[]",
          "name": "_permissions",
          "type": "string[]"
        }
      ],
      "name": "addPermissionsToRole",
      "outputs": [],
      "stateMutability": "nonpayable",
      "type": "function"
    },
    {
      "inputs": [
        {
          "internalType": "string",
          "name": "_channelNetworkId",
          "type": "string"
        },
        {
          "internalType": "address",
          "name": "_entitlement",
          "type": "address"
        },
        {
          "internalType": "uint256",
          "name": "_roleId",
          "type": "uint256"
        }
      ],
      "name": "addRoleToChannel",
      "outputs": [],
      "stateMutability": "nonpayable",
      "type": "function"
    },
    {
      "inputs": [
        {
          "internalType": "uint256",
          "name": "_roleId",
          "type": "uint256"
        },
        {
          "components": [
            {
              "internalType": "address",
              "name": "module",
              "type": "address"
            },
            {
              "internalType": "bytes",
              "name": "data",
              "type": "bytes"
            }
          ],
          "internalType": "struct DataTypes.Entitlement",
          "name": "_entitlement",
          "type": "tuple"
        }
      ],
      "name": "addRoleToEntitlement",
      "outputs": [],
      "stateMutability": "nonpayable",
      "type": "function"
    },
    {
      "inputs": [
        {
          "internalType": "uint256",
          "name": "",
          "type": "uint256"
        }
      ],
      "name": "channels",
      "outputs": [
        {
          "internalType": "bytes32",
          "name": "",
          "type": "bytes32"
        }
      ],
      "stateMutability": "view",
      "type": "function"
    },
    {
      "inputs": [
        {
          "internalType": "bytes32",
          "name": "",
          "type": "bytes32"
        }
      ],
      "name": "channelsByHash",
      "outputs": [
        {
          "internalType": "string",
          "name": "name",
          "type": "string"
        },
        {
          "internalType": "string",
          "name": "channelNetworkId",
          "type": "string"
        },
        {
          "internalType": "bytes32",
          "name": "channelHash",
          "type": "bytes32"
        },
        {
          "internalType": "uint256",
          "name": "createdAt",
          "type": "uint256"
        },
        {
          "internalType": "bool",
          "name": "disabled",
          "type": "bool"
        }
      ],
      "stateMutability": "view",
      "type": "function"
    },
    {
      "inputs": [],
      "name": "contractURI",
      "outputs": [
        {
          "internalType": "string",
          "name": "",
          "type": "string"
        }
      ],
      "stateMutability": "view",
      "type": "function"
    },
    {
      "inputs": [
        {
          "internalType": "string",
          "name": "channelName",
          "type": "string"
        },
        {
          "internalType": "string",
          "name": "channelNetworkId",
          "type": "string"
        },
        {
          "internalType": "uint256[]",
          "name": "roleIds",
          "type": "uint256[]"
        }
      ],
      "name": "createChannel",
      "outputs": [
        {
          "internalType": "bytes32",
          "name": "",
          "type": "bytes32"
        }
      ],
      "stateMutability": "nonpayable",
      "type": "function"
    },
    {
      "inputs": [
        {
          "internalType": "string",
          "name": "_roleName",
          "type": "string"
        },
        {
          "internalType": "string[]",
          "name": "_permissions",
          "type": "string[]"
        },
        {
          "components": [
            {
              "internalType": "address",
              "name": "module",
              "type": "address"
            },
            {
              "internalType": "bytes",
              "name": "data",
              "type": "bytes"
            }
          ],
          "internalType": "struct DataTypes.Entitlement[]",
          "name": "_entitlements",
          "type": "tuple[]"
        }
      ],
      "name": "createRole",
      "outputs": [
        {
          "internalType": "uint256",
          "name": "",
          "type": "uint256"
        }
      ],
      "stateMutability": "nonpayable",
      "type": "function"
    },
    {
      "inputs": [
        {
          "internalType": "address",
          "name": "",
          "type": "address"
        }
      ],
      "name": "defaultEntitlements",
      "outputs": [
        {
          "internalType": "bool",
          "name": "",
          "type": "bool"
        }
      ],
      "stateMutability": "view",
      "type": "function"
    },
    {
      "inputs": [],
      "name": "disabled",
      "outputs": [
        {
          "internalType": "bool",
          "name": "",
          "type": "bool"
        }
      ],
      "stateMutability": "view",
      "type": "function"
    },
    {
      "inputs": [
        {
          "internalType": "uint256",
          "name": "",
          "type": "uint256"
        }
      ],
      "name": "entitlements",
      "outputs": [
        {
          "internalType": "address",
          "name": "",
          "type": "address"
        }
      ],
      "stateMutability": "view",
      "type": "function"
    },
    {
      "inputs": [
        {
          "internalType": "bytes32",
          "name": "_channelHash",
          "type": "bytes32"
        }
      ],
      "name": "getChannelByHash",
      "outputs": [
        {
          "components": [
            {
              "internalType": "string",
              "name": "name",
              "type": "string"
            },
            {
              "internalType": "string",
              "name": "channelNetworkId",
              "type": "string"
            },
            {
              "internalType": "bytes32",
              "name": "channelHash",
              "type": "bytes32"
            },
            {
              "internalType": "uint256",
              "name": "createdAt",
              "type": "uint256"
            },
            {
              "internalType": "bool",
              "name": "disabled",
              "type": "bool"
            }
          ],
          "internalType": "struct DataTypes.Channel",
          "name": "",
          "type": "tuple"
        }
      ],
      "stateMutability": "view",
      "type": "function"
    },
    {
      "inputs": [],
      "name": "getChannels",
      "outputs": [
        {
          "internalType": "bytes32[]",
          "name": "",
          "type": "bytes32[]"
        }
      ],
      "stateMutability": "view",
      "type": "function"
    },
    {
      "inputs": [
        {
          "internalType": "string",
          "name": "_moduleType",
          "type": "string"
        }
      ],
      "name": "getEntitlementByModuleType",
      "outputs": [
        {
          "internalType": "address",
          "name": "",
          "type": "address"
        }
      ],
      "stateMutability": "view",
      "type": "function"
    },
    {
      "inputs": [
        {
          "internalType": "uint256",
          "name": "_roleId",
          "type": "uint256"
        }
      ],
      "name": "getEntitlementIdsByRoleId",
      "outputs": [
        {
          "internalType": "bytes32[]",
          "name": "",
          "type": "bytes32[]"
        }
      ],
      "stateMutability": "view",
      "type": "function"
    },
    {
      "inputs": [],
      "name": "getEntitlementModules",
      "outputs": [
        {
          "components": [
            {
              "internalType": "string",
              "name": "name",
              "type": "string"
            },
            {
              "internalType": "address",
              "name": "moduleAddress",
              "type": "address"
            },
            {
              "internalType": "string",
              "name": "moduleType",
              "type": "string"
            },
            {
              "internalType": "bool",
              "name": "enabled",
              "type": "bool"
            }
          ],
          "internalType": "struct DataTypes.EntitlementModule[]",
          "name": "_entitlementModules",
          "type": "tuple[]"
        }
      ],
      "stateMutability": "view",
      "type": "function"
    },
    {
      "inputs": [
        {
          "internalType": "uint256",
          "name": "_roleId",
          "type": "uint256"
        }
      ],
      "name": "getPermissionsByRoleId",
      "outputs": [
        {
          "internalType": "string[]",
          "name": "",
          "type": "string[]"
        }
      ],
      "stateMutability": "view",
      "type": "function"
    },
    {
      "inputs": [
        {
          "internalType": "uint256",
          "name": "_roleId",
          "type": "uint256"
        }
      ],
      "name": "getRoleById",
      "outputs": [
        {
          "components": [
            {
              "internalType": "uint256",
              "name": "roleId",
              "type": "uint256"
            },
            {
              "internalType": "string",
              "name": "name",
              "type": "string"
            }
          ],
          "internalType": "struct DataTypes.Role",
          "name": "",
          "type": "tuple"
        }
      ],
      "stateMutability": "view",
      "type": "function"
    },
    {
      "inputs": [],
      "name": "getRoles",
      "outputs": [
        {
          "components": [
            {
              "internalType": "uint256",
              "name": "roleId",
              "type": "uint256"
            },
            {
              "internalType": "string",
              "name": "name",
              "type": "string"
            }
          ],
          "internalType": "struct DataTypes.Role[]",
          "name": "",
          "type": "tuple[]"
        }
      ],
      "stateMutability": "view",
      "type": "function"
    },
    {
      "inputs": [
        {
          "internalType": "address",
          "name": "",
          "type": "address"
        }
      ],
      "name": "hasEntitlement",
      "outputs": [
        {
          "internalType": "bool",
          "name": "",
          "type": "bool"
        }
      ],
      "stateMutability": "view",
      "type": "function"
    },
    {
      "inputs": [
        {
          "internalType": "string",
          "name": "_name",
          "type": "string"
        },
        {
          "internalType": "string",
          "name": "_networkId",
          "type": "string"
        },
        {
          "internalType": "address[]",
          "name": "_entitlements",
          "type": "address[]"
        },
        {
          "internalType": "address",
          "name": "_token",
          "type": "address"
        },
        {
          "internalType": "uint256",
          "name": "_tokenId",
          "type": "uint256"
        }
      ],
      "name": "initialize",
      "outputs": [],
      "stateMutability": "nonpayable",
      "type": "function"
    },
    {
      "inputs": [
        {
          "internalType": "string",
          "name": "_channelNetworkId",
          "type": "string"
        },
        {
          "internalType": "address",
          "name": "_user",
          "type": "address"
        },
        {
          "internalType": "string",
          "name": "_permission",
          "type": "string"
        }
      ],
      "name": "isEntitledToChannel",
      "outputs": [
        {
          "internalType": "bool",
          "name": "_entitled",
          "type": "bool"
        }
      ],
      "stateMutability": "view",
      "type": "function"
    },
    {
      "inputs": [
        {
          "internalType": "address",
          "name": "_user",
          "type": "address"
        },
        {
          "internalType": "string",
          "name": "_permission",
          "type": "string"
        }
      ],
      "name": "isEntitledToSpace",
      "outputs": [
        {
          "internalType": "bool",
          "name": "_entitled",
          "type": "bool"
        }
      ],
      "stateMutability": "view",
      "type": "function"
    },
    {
      "inputs": [
        {
          "internalType": "bytes[]",
          "name": "data",
          "type": "bytes[]"
        }
      ],
      "name": "multicall",
      "outputs": [
        {
          "internalType": "bytes[]",
          "name": "results",
          "type": "bytes[]"
        }
      ],
      "stateMutability": "nonpayable",
      "type": "function"
    },
    {
      "inputs": [],
      "name": "name",
      "outputs": [
        {
          "internalType": "string",
          "name": "",
          "type": "string"
        }
      ],
      "stateMutability": "view",
      "type": "function"
    },
    {
      "inputs": [],
      "name": "networkId",
      "outputs": [
        {
          "internalType": "string",
          "name": "",
          "type": "string"
        }
      ],
      "stateMutability": "view",
      "type": "function"
    },
    {
      "inputs": [],
      "name": "owner",
      "outputs": [
        {
          "internalType": "address",
          "name": "",
          "type": "address"
        }
      ],
      "stateMutability": "view",
      "type": "function"
    },
    {
      "inputs": [],
      "name": "ownerRoleId",
      "outputs": [
        {
          "internalType": "uint256",
          "name": "",
          "type": "uint256"
        }
      ],
      "stateMutability": "view",
      "type": "function"
    },
    {
      "inputs": [],
      "name": "proxiableUUID",
      "outputs": [
        {
          "internalType": "bytes32",
          "name": "",
          "type": "bytes32"
        }
      ],
      "stateMutability": "view",
      "type": "function"
    },
    {
      "inputs": [
        {
          "internalType": "uint256",
          "name": "_roleId",
          "type": "uint256"
        },
        {
          "internalType": "string[]",
          "name": "_permissions",
          "type": "string[]"
        }
      ],
      "name": "removePermissionsFromRole",
      "outputs": [],
      "stateMutability": "nonpayable",
      "type": "function"
    },
    {
      "inputs": [
        {
          "internalType": "uint256",
          "name": "_roleId",
          "type": "uint256"
        }
      ],
      "name": "removeRole",
      "outputs": [],
      "stateMutability": "nonpayable",
      "type": "function"
    },
    {
      "inputs": [
        {
          "internalType": "string",
          "name": "_channelNetworkId",
          "type": "string"
        },
        {
          "internalType": "address",
          "name": "_entitlement",
          "type": "address"
        },
        {
          "internalType": "uint256",
          "name": "_roleId",
          "type": "uint256"
        }
      ],
      "name": "removeRoleFromChannel",
      "outputs": [],
      "stateMutability": "nonpayable",
      "type": "function"
    },
    {
      "inputs": [
        {
          "internalType": "uint256",
          "name": "_roleId",
          "type": "uint256"
        },
        {
          "components": [
            {
              "internalType": "address",
              "name": "module",
              "type": "address"
            },
            {
              "internalType": "bytes",
              "name": "data",
              "type": "bytes"
            }
          ],
          "internalType": "struct DataTypes.Entitlement",
          "name": "_entitlement",
          "type": "tuple"
        }
      ],
      "name": "removeRoleFromEntitlement",
      "outputs": [],
      "stateMutability": "nonpayable",
      "type": "function"
    },
    {
      "inputs": [],
      "name": "roleCount",
      "outputs": [
        {
          "internalType": "uint256",
          "name": "",
          "type": "uint256"
        }
      ],
      "stateMutability": "view",
      "type": "function"
    },
    {
      "inputs": [
        {
          "internalType": "uint256",
          "name": "",
          "type": "uint256"
        }
      ],
      "name": "rolesById",
      "outputs": [
        {
          "internalType": "uint256",
          "name": "roleId",
          "type": "uint256"
        },
        {
          "internalType": "string",
          "name": "name",
          "type": "string"
        }
      ],
      "stateMutability": "view",
      "type": "function"
    },
    {
      "inputs": [
        {
          "internalType": "string",
          "name": "channelNetworkId",
          "type": "string"
        },
        {
          "internalType": "bool",
          "name": "disableChannel",
          "type": "bool"
        }
      ],
      "name": "setChannelAccess",
      "outputs": [],
      "stateMutability": "nonpayable",
      "type": "function"
    },
    {
      "inputs": [
        {
          "internalType": "string",
          "name": "_uri",
          "type": "string"
        }
      ],
      "name": "setContractURI",
      "outputs": [],
      "stateMutability": "nonpayable",
      "type": "function"
    },
    {
      "inputs": [
        {
          "internalType": "address",
          "name": "_entitlementModule",
          "type": "address"
        },
        {
          "internalType": "bool",
          "name": "_whitelist",
          "type": "bool"
        }
      ],
      "name": "setEntitlementModule",
      "outputs": [],
      "stateMutability": "nonpayable",
      "type": "function"
    },
    {
      "inputs": [
        {
          "internalType": "uint256",
          "name": "_roleId",
          "type": "uint256"
        }
      ],
      "name": "setOwnerRoleId",
      "outputs": [],
      "stateMutability": "nonpayable",
      "type": "function"
    },
    {
      "inputs": [
        {
          "internalType": "bool",
          "name": "_disabled",
          "type": "bool"
        }
      ],
      "name": "setSpaceAccess",
      "outputs": [],
      "stateMutability": "nonpayable",
      "type": "function"
    },
    {
      "inputs": [],
      "name": "token",
      "outputs": [
        {
          "internalType": "address",
          "name": "",
          "type": "address"
        }
      ],
      "stateMutability": "view",
      "type": "function"
    },
    {
      "inputs": [],
      "name": "tokenId",
      "outputs": [
        {
          "internalType": "uint256",
          "name": "",
          "type": "uint256"
        }
      ],
      "stateMutability": "view",
      "type": "function"
    },
    {
      "inputs": [
        {
          "internalType": "string",
          "name": "channelNetworkId",
          "type": "string"
        },
        {
          "internalType": "string",
          "name": "channelName",
          "type": "string"
        }
      ],
      "name": "updateChannel",
      "outputs": [],
      "stateMutability": "nonpayable",
      "type": "function"
    },
    {
      "inputs": [
        {
          "internalType": "uint256",
          "name": "_roleId",
          "type": "uint256"
        },
        {
          "internalType": "string",
          "name": "_roleName",
          "type": "string"
        }
      ],
      "name": "updateRole",
      "outputs": [],
      "stateMutability": "nonpayable",
      "type": "function"
    },
    {
      "inputs": [
        {
          "internalType": "address",
          "name": "_entitlement",
          "type": "address"
        },
        {
          "internalType": "address",
          "name": "_newEntitlement",
          "type": "address"
        }
      ],
      "name": "upgradeEntitlement",
      "outputs": [],
      "stateMutability": "nonpayable",
      "type": "function"
    },
    {
      "inputs": [
        {
          "internalType": "address",
          "name": "newImplementation",
          "type": "address"
        }
      ],
      "name": "upgradeTo",
      "outputs": [],
      "stateMutability": "nonpayable",
      "type": "function"
    },
    {
      "inputs": [
        {
          "internalType": "address",
          "name": "newImplementation",
          "type": "address"
        },
        {
          "internalType": "bytes",
          "name": "data",
          "type": "bytes"
        }
      ],
      "name": "upgradeToAndCall",
      "outputs": [],
      "stateMutability": "payable",
      "type": "function"
    }
  ],
  "bytecode": {
    "object": "0x60a0604052306080523480156200001557600080fd5b506200002062000026565b620000e8565b600054610100900460ff1615620000935760405162461bcd60e51b815260206004820152602760248201527f496e697469616c697a61626c653a20636f6e747261637420697320696e697469604482015266616c697a696e6760c81b606482015260840160405180910390fd5b60005460ff9081161015620000e6576000805460ff191660ff9081179091556040519081527f7f26b83ff96e1f2b6a682f133852f6798a09c465da95921460cefb38474024989060200160405180910390a15b565b6080516154f862000120600039600081816110fc0152818161114501528181611496015281816114d60152611a1f01526154f86000f3fe6080604052600436106102ae5760003560e01c8063870b946411610175578063baaf3d57116100dc578063e5949b5d11610095578063f28f9b561161006f578063f28f9b56146108bf578063f3ce6a5b146108df578063fa6433c5146108ff578063fc0c546a1461092f57600080fd5b8063e5949b5d14610870578063e8a3d48514610890578063ee070805146108a557600080fd5b8063baaf3d57146107b6578063cea632bc146107d6578063d1a6a961146107f6578063dba818641461080c578063ddf963581461082c578063e5894ef41461084257600080fd5b80639575f6ac1161012e5780639575f6ac146106e75780639a8e4c3e146106fc578063ac9650d81461071c578063b426423314610749578063b751576114610776578063ba201ba81461079657600080fd5b8063870b9464146106255780638da5cb5b1461065d5780638fcd793d146106725780639025e64c1461069257806392691821146106a7578063938e3d7b146106c757600080fd5b80634999ab16116102195780635de151b8116101d25780635de151b81461052d578063703511f81461054d578063710613981461057a578063784c872b1461059c5780637f8d06d0146105c957806381ed9808146105f957600080fd5b80634999ab16146104745780634f1ef28614610494578063519607f2146104a757806351f83cea146104c757806352d1902d146104e75780635775029f146104fc57600080fd5b806332e704cc1161026b57806332e704cc146103a757806334a1dd26146103c75780633659cfe6146103e757806342486e4914610407578063441555e514610434578063446dc22e1461045457600080fd5b806306fdde03146102b35780630d029f75146102de578063129ab3c81461030057806317d70f7c146103315780631dea616a1461035557806320759f9e14610377575b600080fd5b3480156102bf57600080fd5b506102c861094f565b6040516102d591906140f9565b60405180910390f35b3480156102ea57600080fd5b506102f36109dd565b6040516102d5919061410c565b34801561030c57600080fd5b5061032061031b3660046141b5565b610c1e565b6040516102d59594939291906141ce565b34801561033d57600080fd5b50610347609d5481565b6040519081526020016102d5565b34801561036157600080fd5b50610375610370366004614280565b610d61565b005b34801561038357600080fd5b506103976103923660046142dc565b610e98565b60405190151581526020016102d5565b3480156103b357600080fd5b506103756103c23660046143f3565b610eee565b3480156103d357600080fd5b506103756103e2366004614439565b610ff0565b3480156103f357600080fd5b506103756104023660046144a4565b6110f2565b34801561041357600080fd5b506104276104223660046141b5565b6111da565b6040516102d591906144c1565b34801561044057600080fd5b5061037561044f366004614513565b61123c565b34801561046057600080fd5b5061037561046f36600461454c565b611310565b34801561048057600080fd5b5061037561048f3660046141b5565b611348565b6103756104a2366004614569565b61148c565b3480156104b357600080fd5b506103756104c23660046145a2565b611558565b3480156104d357600080fd5b506103476104e23660046145f3565b611673565b3480156104f357600080fd5b50610347611a12565b34801561050857600080fd5b506102c860405180604001604052806005815260200164537061636560d81b81525081565b34801561053957600080fd5b506103756105483660046146d4565b611ac5565b34801561055957600080fd5b5061056d6105683660046141b5565b611b8b565b6040516102d5919061472a565b34801561058657600080fd5b5061058f611d1c565b6040516102d591906147b7565b3480156105a857600080fd5b506105bc6105b73660046141b5565b611e8a565b6040516102d59190614819565b3480156105d557600080fd5b506103976105e43660046144a4565b609e6020526000908152604090205460ff1681565b34801561060557600080fd5b5061060e600181565b60405165ffffffffffff90911681526020016102d5565b34801561063157600080fd5b5061064561064036600461482c565b611f60565b6040516001600160a01b0390911681526020016102d5565b34801561066957600080fd5b50610645612049565b34801561067e57600080fd5b5061034761068d366004614963565b6120c0565b34801561069e57600080fd5b506102c86123f3565b3480156106b357600080fd5b506103756106c23660046141b5565b612400565b3480156106d357600080fd5b506103756106e2366004614a5e565b61253f565b3480156106f357600080fd5b506104276125d2565b34801561070857600080fd5b50610375610717366004614a9f565b61262a565b34801561072857600080fd5b5061073c610737366004614adb565b61283f565b6040516102d59190614b4f565b34801561075557600080fd5b506107696107643660046141b5565b612956565b6040516102d59190614ba4565b34801561078257600080fd5b50610375610791366004614a9f565b612aa3565b3480156107a257600080fd5b506103756107b1366004614bf9565b612c43565b3480156107c257600080fd5b506103756107d1366004614280565b612d24565b3480156107e257600080fd5b506103976107f1366004614c35565b612e23565b34801561080257600080fd5b50610347609b5481565b34801561081857600080fd5b50610375610827366004614cb9565b612f53565b34801561083857600080fd5b5061034760a25481565b34801561084e57600080fd5b5061086261085d3660046141b5565b6131c4565b6040516102d5929190614cfb565b34801561087c57600080fd5b5061034761088b3660046141b5565b613269565b34801561089c57600080fd5b506102c861328a565b3480156108b157600080fd5b50609a546103979060ff1681565b3480156108cb57600080fd5b506106456108da3660046141b5565b613297565b3480156108eb57600080fd5b506103756108fa366004614d14565b6132c1565b34801561090b57600080fd5b5061039761091a3660046144a4565b609f6020526000908152604090205460ff1681565b34801561093b57600080fd5b50609c54610645906001600160a01b031681565b6098805461095c90614e13565b80601f016020809104026020016040519081016040528092919081815260200182805461098890614e13565b80156109d55780601f106109aa576101008083540402835291602001916109d5565b820191906000526020600020905b8154815290600101906020018083116109b857829003601f168201915b505050505081565b60a1546060906001600160401b038111156109fa576109fa614330565b604051908082528060200260200182016040528015610a4d57816020015b60408051608081018252606080825260006020808401829052938301829052908201528252600019909201910181610a185790505b50905060005b60a154811015610c1a57600060a18281548110610a7257610a72614e47565b600091825260208220015460408051608081018083526306fdde0360e01b905290516001600160a01b03909216935091829184916306fdde039160848086019291908187030181865afa158015610acd573d6000803e3d6000fd5b505050506040513d6000823e601f3d908101601f19168201604052610af59190810190614e5d565b815260200160a18481548110610b0d57610b0d614e47565b9060005260206000200160009054906101000a90046001600160a01b03166001600160a01b03168152602001826001600160a01b0316636465e69f6040518163ffffffff1660e01b8152600401600060405180830381865afa158015610b77573d6000803e3d6000fd5b505050506040513d6000823e601f3d908101601f19168201604052610b9f9190810190614e5d565b8152602001609e600060a18681548110610bbb57610bbb614e47565b60009182526020808320909101546001600160a01b0316835282019290925260400190205460ff16151590528351849084908110610bfb57610bfb614e47565b6020026020010181905250508080610c1290614ee0565b915050610a53565b5090565b60a560205260009081526040902080548190610c3990614e13565b80601f0160208091040260200160405190810160405280929190818152602001828054610c6590614e13565b8015610cb25780601f10610c8757610100808354040283529160200191610cb2565b820191906000526020600020905b815481529060010190602001808311610c9557829003601f168201915b505050505090806001018054610cc790614e13565b80601f0160208091040260200160405190810160405280929190818152602001828054610cf390614e13565b8015610d405780601f10610d1557610100808354040283529160200191610d40565b820191906000526020600020905b815481529060010190602001808311610d2357829003601f168201915b50505050600283015460038401546004909401549293909290915060ff1685565b610dc984848080601f0160208091040260200160405190810160405280939291908181526020018383808284376000920191909152505060408051808201909152601181527041646452656d6f76654368616e6e656c7360781b602082015291506134a59050565b6001600160a01b0382166000908152609e602052604090205460ff16610e025760405163c1ef36f360e01b815260040160405180910390fd5b600081815260a360205260408120549003610e305760405163b810dc5d60e01b815260040160405180910390fd5b60405163c513be7760e01b81526001600160a01b0383169063c513be7790610e6090879087908690600401614f22565b600060405180830381600087803b158015610e7a57600080fd5b505af1158015610e8e573d6000803e3d6000fd5b5050505050505050565b6000610ede60405180602001604052806000815250858585604051602001610ec1929190614f46565b604051602081830303815290604052610ed990614f56565b6134f9565b15610ee7575060015b9392505050565b610f3260405180602001604052806000815250604051806040016040528060138152602001724d6f64696679537061636553657474696e677360681b8152506134a5565b610f3b816135b2565b609b548203610f5d57604051631eb49d6d60e11b815260040160405180910390fd5b600082815260a360205260408120549003610f8b5760405163b810dc5d60e01b815260040160405180910390fd5b600082815260a360205260409020600101610fa68282614fc0565b5081336001600160a01b03167ff3c55faf0b13ffa681c984baddbb8ef7638e514188ea19bd6461d7f87b9c7953836099604051610fe49291906150fc565b60405180910390a35050565b611032604051806020016040528060008152506040518060400160405280601181526020017041646452656d6f76654368616e6e656c7360781b8152506134a5565b61107182828080601f0160208091040260200160405190810160405280939291908181526020018383808284376000920191909152506135b292505050565b60008484604051602001611086929190614f46565b60408051601f198184030181529181528151602092830120600081815260a59093529082206002015490925090036110d157604051636ddd9da960e01b815260040160405180910390fd5b600081815260a5602052604090206110ea838583615121565b505050505050565b6001600160a01b037f00000000000000000000000000000000000000000000000000000000000000001630036111435760405162461bcd60e51b815260040161113a906151e0565b60405180910390fd5b7f00000000000000000000000000000000000000000000000000000000000000006001600160a01b031661118c60008051602061547c833981519152546001600160a01b031690565b6001600160a01b0316146111b25760405162461bcd60e51b815260040161113a9061522c565b6111bb816135e3565b604080516000808252602082019092526111d791839190613619565b50565b600081815260a0602090815260409182902080548351818402810184019094528084526060939283018282801561123057602002820191906000526020600020905b81548152602001906001019080831161121c575b50505050509050919050565b611272604051806020016040528060008152506040518060400160405280600581526020016427bbb732b960d91b8152506134a5565b61127b82613784565b8080156112a057506001600160a01b0382166000908152609e602052604090205460ff165b156112be5760405163186abc9b60e01b815260040160405180910390fd5b801580156112e457506001600160a01b0382166000908152609f602052604090205460ff165b1561130257604051631eb49d6d60e11b815260040160405180910390fd5b61130c8282613815565b5050565b611318613996565b61133557604051631eb49d6d60e11b815260040160405180910390fd5b609a805460ff1916911515919091179055565b611350613996565b61136d57604051631eb49d6d60e11b815260040160405180910390fd5b609b541561138e57604051631eb49d6d60e11b815260040160405180910390fd5b600081815260a3602052604081205490036113bc5760405163b810dc5d60e01b815260040160405180910390fd5b6000805b600083815260a46020526040902054811015611467576040518060400160405280600581526020016427bbb732b960d91b8152506040516020016114049190615278565b60405160208183030381529060405261141c90614f56565b600084815260a46020526040902080548390811061143c5761143c614e47565b9060005260206000200154036114555760019150611467565b8061145f81614ee0565b9150506113c0565b508061148657604051633e74bd6360e21b815260040160405180910390fd5b50609b55565b6001600160a01b037f00000000000000000000000000000000000000000000000000000000000000001630036114d45760405162461bcd60e51b815260040161113a906151e0565b7f00000000000000000000000000000000000000000000000000000000000000006001600160a01b031661151d60008051602061547c833981519152546001600160a01b031690565b6001600160a01b0316146115435760405162461bcd60e51b815260040161113a9061522c565b61154c826135e3565b61130c82826001613619565b61158e604051806020016040528060008152506040518060400160405280600581526020016427bbb732b960d91b8152506134a5565b6001600160a01b03821615806115ab57506001600160a01b038116155b156115c957604051630e52390960e41b815260040160405180910390fd5b6001600160a01b0382166000908152609e602052604090205460ff166116025760405163c1ef36f360e01b815260040160405180910390fd5b604051631b2ce7f360e11b81526001600160a01b038281166004830152831690633659cfe690602401600060405180830381600087803b15801561164557600080fd5b505af1925050508015611656575060015b61130c57604051630e52390960e41b815260040160405180910390fd5b60006116b7604051806020016040528060008152506040518060400160405280601181526020017041646452656d6f76654368616e6e656c7360781b8152506134a5565b6116f685858080601f0160208091040260200160405190810160405280939291908181526020018383808284376000920191909152506135b292505050565b6000836040516020016117099190615278565b60408051601f198184030181529181528151602092830120600081815260a59093529120600201549091501561175257604051630139324b60e41b815260040160405180910390fd5b6040518060a0016040528087878080601f016020809104026020016040519081016040528093929190818152602001838380828437600092018290525093855250505060208083018890526040808401869052426060850152608090930182905284825260a5905220815181906117c99082614fc0565b50602082015160018201906117de9082614fc0565b5060408201516002820155606082015160038201556080909101516004909101805460ff191691151591909117905560a6805460018101825560009182527f2da56674729343acc9933752c8c469a244252915242eb6d4c02d11ddd69164a1018290555b60a154811015611a0857600060a1828154811061186157611861614e47565b600091825260209091200154609b5460405163c513be7760e01b81526001600160a01b039092169250829163c513be77916118a1918a9190600401615294565b600060405180830381600087803b1580156118bb57600080fd5b505af11580156118cf573d6000803e3d6000fd5b5050505060005b85518110156119f357609b548682815181106118f4576118f4614e47565b602002602001015103156119e15760a3600087838151811061191857611918614e47565b60200260200101518152602001908152602001600020600001546000036119525760405163b810dc5d60e01b815260040160405180910390fd5b816001600160a01b031663c513be778888848151811061197457611974614e47565b60200260200101516040518363ffffffff1660e01b8152600401611999929190615294565b600060405180830381600087803b1580156119b357600080fd5b505af19250505080156119c4575060015b6119e15760405163d9afe50760e01b815260040160405180910390fd5b806119eb81614ee0565b9150506118d6565b50508080611a0090614ee0565b915050611842565b5095945050505050565b6000306001600160a01b037f00000000000000000000000000000000000000000000000000000000000000001614611ab25760405162461bcd60e51b815260206004820152603860248201527f555550535570677261646561626c653a206d757374206e6f742062652063616c60448201527f6c6564207468726f7567682064656c656761746563616c6c0000000000000000606482015260840161113a565b5060008051602061547c83398151915290565b611b07604051806020016040528060008152506040518060400160405280601181526020017041646452656d6f76654368616e6e656c7360781b8152506134a5565b60008383604051602001611b1c929190614f46565b60408051601f198184030181529181528151602092830120600081815260a5909352908220600201549092509003611b6757604051636ddd9da960e01b815260040160405180910390fd5b600090815260a560205260409020600401805460ff19169115159190911790555050565b6040805160a081018252606080825260208201819052600092820183905281018290526080810191909152600082815260a5602052604090819020815160a08101909252805482908290611bde90614e13565b80601f0160208091040260200160405190810160405280929190818152602001828054611c0a90614e13565b8015611c575780601f10611c2c57610100808354040283529160200191611c57565b820191906000526020600020905b815481529060010190602001808311611c3a57829003601f168201915b50505050508152602001600182018054611c7090614e13565b80601f0160208091040260200160405190810160405280929190818152602001828054611c9c90614e13565b8015611ce95780601f10611cbe57610100808354040283529160200191611ce9565b820191906000526020600020905b815481529060010190602001808311611ccc57829003601f168201915b5050509183525050600282015460208201526003820154604082015260049091015460ff16151560609091015292915050565b6060600060a2546001600160401b03811115611d3a57611d3a614330565b604051908082528060200260200182016040528015611d8057816020015b604080518082019091526000815260606020820152815260200190600190039081611d585790505b50905060005b60a254811015611e845760a36000611d9f8360016152b6565b815260200190815260200160002060405180604001604052908160008201548152602001600182018054611dd290614e13565b80601f0160208091040260200160405190810160405280929190818152602001828054611dfe90614e13565b8015611e4b5780601f10611e2057610100808354040283529160200191611e4b565b820191906000526020600020905b815481529060010190602001808311611e2e57829003601f168201915b505050505081525050828281518110611e6657611e66614e47565b60200260200101819052508080611e7c90614ee0565b915050611d86565b50919050565b60408051808201909152600081526060602082015260a3600083815260200190815260200160002060405180604001604052908160008201548152602001600182018054611ed790614e13565b80601f0160208091040260200160405190810160405280929190818152602001828054611f0390614e13565b8015611f505780601f10611f2557610100808354040283529160200191611f50565b820191906000526020600020905b815481529060010190602001808311611f3357829003601f168201915b5050505050815250509050919050565b60008060005b60a1548110156120425761200060a18281548110611f8657611f86614e47565b600091825260208220015460408051636465e69f60e01b815290516001600160a01b0390921692636465e69f926004808401938290030181865afa158015611fd2573d6000803e3d6000fd5b505050506040513d6000823e601f3d908101601f19168201604052611ffa9190810190614e5d565b85613a1d565b156120305760a1818154811061201857612018614e47565b6000918252602090912001546001600160a01b031691505b8061203a81614ee0565b915050611f66565b5092915050565b609c54609d546040516331a9108f60e11b815260048101919091526000916001600160a01b031690636352211e90602401602060405180830381865afa158015612097573d6000803e3d6000fd5b505050506040513d601f19601f820116820180604052508101906120bb91906152c9565b905090565b600061210660405180602001604052806000815250604051806040016040528060138152602001724d6f64696679537061636553657474696e677360681b8152506134a5565b61214585858080601f0160208091040260200160405190810160405280939291908181526020018383808284376000920191909152506135b292505050565b600060a26000815461215690614ee0565b91905081905590506000604051806040016040528083815260200188888080601f016020809104026020016040519081016040528093929190818152602001838380828437600092018290525093909452505084815260a3602090815260409091208351815590830151929350839290915060018201906121d79082614fc0565b5090505060005b85518110156122c757609b5415158015612233575061223386828151811061220857612208614e47565b60200260200101516040518060400160405280600581526020016427bbb732b960d91b815250613a1d565b1561225157604051631eb49d6d60e11b815260040160405180910390fd5b600086828151811061226557612265614e47565b602002602001015160405160200161227d9190615278565b60405160208183030381529060405261229590614f56565b600085815260a460209081526040822080546001810182559083529120015550806122bf81614ee0565b9150506121de565b5060005b84518110156123a15760008582815181106122e8576122e8614e47565b6020026020010151600001519050600086838151811061230a5761230a614e47565b602002602001015160200151905060006001600160a01b0316826001600160a01b0316148061233857508051155b1561234457505061238f565b6001600160a01b0382166000908152609e602052604081205460ff16151590036123815760405163c1ef36f360e01b815260040160405180910390fd5b61238c858383613a77565b50505b8061239981614ee0565b9150506122cb565b5081336001600160a01b03167f39772407c6dd2e83adbd292cdfa17a6817c9a7500e56cfe57b7a82d797f8d39b898960996040516123e1939291906152e6565b60405180910390a35095945050505050565b6099805461095c90614e13565b61244460405180602001604052806000815250604051806040016040528060138152602001724d6f64696679537061636553657474696e677360681b8152506134a5565b609b54810361246657604051631eb49d6d60e11b815260040160405180910390fd5b600081815260a3602052604081205490036124945760405163b810dc5d60e01b815260040160405180910390fd5b600081815260a06020526040902054156124c157604051633764405360e11b815260040160405180910390fd5b600081815260a360205260408120818155906124e06001830182614040565b5050600081815260a4602052604081206124f99161407a565b80336001600160a01b03167f1d5667a301e36f2d5b1ee32b7f187b0adb46c706297242fa945d3fed1e7f8a1960996040516125349190615316565b60405180910390a350565b612547613be7565b6125935760405162461bcd60e51b815260206004820152601860248201527f4d657461646174613a206e6f7420617574686f72697a65640000000000000000604482015260640161113a565b61130c82828080601f016020809104026020016040519081016040528093929190818152602001838380828437600092019190915250613bf192505050565b606060a680548060200260200160405190810160405280929190818152602001828054801561262057602002820191906000526020600020905b81548152602001906001019080831161260c575b5050505050905090565b61266e60405180602001604052806000815250604051806040016040528060138152602001724d6f64696679537061636553657474696e677360681b8152506134a5565b600082815260a36020526040812054900361269c5760405163b810dc5d60e01b815260040160405180910390fd5b60005b815181101561283a576126bd82828151811061220857612208614e47565b156126db57604051631eb49d6d60e11b815260040160405180910390fd5b60008282815181106126ef576126ef614e47565b60200260200101516040516020016127079190615278565b60405160208183030381529060405261271f90614f56565b905060005b600085815260a4602052604090205481101561282557600085815260a46020526040902080548391908390811061275d5761275d614e47565b90600052602060002001540361281357600085815260a460205260409020805461278990600190615329565b8154811061279957612799614e47565b906000526020600020015460a4600087815260200190815260200160002082815481106127c8576127c8614e47565b906000526020600020018190555060a460008681526020019081526020016000208054806127f8576127f861533c565b60019003818190600052602060002001600090559055612825565b8061281d81614ee0565b915050612724565b5050808061283290614ee0565b91505061269f565b505050565b6060816001600160401b0381111561285957612859614330565b60405190808252806020026020018201604052801561288c57816020015b60608152602001906001900390816128775790505b50905060005b8281101561204257600080308686858181106128b0576128b0614e47565b90506020028101906128c29190615352565b6040516128d0929190614f46565b600060405180830381855af49150503d806000811461290b576040519150601f19603f3d011682016040523d82523d6000602084013e612910565b606091505b5091509150816129235761292381613ccd565b8084848151811061293657612936614e47565b60200260200101819052505050808061294e90614ee0565b915050612892565b600081815260a46020526040812054606091816001600160401b0381111561298057612980614330565b6040519080825280602002602001820160405280156129b357816020015b606081526020019060019003908161299e5790505b50905060005b82811015612a9b57600085815260a460205260409020805473__$f1e35cfc222e0f213e29c506cab45be2ef$__91639201de5591849081106129fd576129fd614e47565b90600052602060002001546040518263ffffffff1660e01b8152600401612a2691815260200190565b600060405180830381865af4158015612a43573d6000803e3d6000fd5b505050506040513d6000823e601f3d908101601f19168201604052612a6b9190810190614e5d565b828281518110612a7d57612a7d614e47565b60200260200101819052508080612a9390614ee0565b9150506129b9565b509392505050565b612ae760405180602001604052806000815250604051806040016040528060138152602001724d6f64696679537061636553657474696e677360681b8152506134a5565b600082815260a360205260408120549003612b155760405163b810dc5d60e01b815260040160405180910390fd5b60005b815181101561283a57612b3682828151811061220857612208614e47565b15612b5457604051631eb49d6d60e11b815260040160405180910390fd5b6000828281518110612b6857612b68614e47565b6020026020010151604051602001612b809190615278565b604051602081830303815290604052612b9890614f56565b905060005b600085815260a46020526040902054811015612c1157600085815260a460205260409020805483919083908110612bd657612bd6614e47565b906000526020600020015403612bff57604051636571d65f60e01b815260040160405180910390fd5b80612c0981614ee0565b915050612b9d565b50600084815260a460209081526040822080546001810182559083529120015580612c3b81614ee0565b915050612b18565b612c8760405180602001604052806000815250604051806040016040528060138152602001724d6f64696679537061636553657474696e677360681b8152506134a5565b80516001600160a01b03166000908152609e602052604090205460ff16612cc15760405163c1ef36f360e01b815260040160405180910390fd5b600082815260a360205260408120549003612cef5760405163b810dc5d60e01b815260040160405180910390fd5b609b548203612d1157604051631eb49d6d60e11b815260040160405180910390fd5b61130c8282600001518360200151613a77565b612d8c84848080601f0160208091040260200160405190810160405280939291908181526020018383808284376000920191909152505060408051808201909152601181527041646452656d6f76654368616e6e656c7360781b602082015291506134a59050565b6001600160a01b0382166000908152609e602052604090205460ff16612dc55760405163c1ef36f360e01b815260040160405180910390fd5b600081815260a360205260408120549003612df35760405163b810dc5d60e01b815260040160405180910390fd5b604051637997c1e760e11b81526001600160a01b0383169063f32f83ce90610e6090879087908690600401614f22565b6000841580612e30575081155b80612e4257506001600160a01b038416155b15612e6057604051630e52390960e41b815260040160405180910390fd5b60008686604051602001612e75929190614f46565b60408051601f198184030181529181528151602092830120600081815260a5909352908220600201549092509003612ec057604051636ddd9da960e01b815260040160405180910390fd5b600081815260a5602052604090206004015460ff1615612ef357604051631eb49d6d60e11b815260040160405180910390fd5b612f4187878080601f01602080910402602001604051908101604052809392919081815260200183838082843760009201919091525050604051899250610ec1915088908890602001614f46565b15611a08575060019695505050505050565b612f9760405180602001604052806000815250604051806040016040528060138152602001724d6f64696679537061636553657474696e677360681b8152506134a5565b609b548203612fb957604051631eb49d6d60e11b815260040160405180910390fd5b609e6000612fca60208401846144a4565b6001600160a01b0316815260208101919091526040016000205460ff166130045760405163c1ef36f360e01b815260040160405180910390fd5b600082815260a3602052604081205490036130325760405163b810dc5d60e01b815260040160405180910390fd5b6000826130426020840184615352565b60405160200161305493929190615398565b60408051601f198184030181529181528151602092830120600086815260a0909352908220909250905b81548110156131325781818154811061309957613099614e47565b9060005260206000200154830361312057815482906130ba90600190615329565b815481106130ca576130ca614e47565b90600052602060002001548282815481106130e7576130e7614e47565b9060005260206000200181905550818054806131055761310561533c565b60019003818190600052602060002001600090559055613132565b8061312a81614ee0565b91505061307e565b5061314060208401846144a4565b6001600160a01b031663fa6d1adf8561315c6020870187615352565b6040518463ffffffff1660e01b815260040161317a939291906153b2565b6020604051808303816000875af1158015613199573d6000803e3d6000fd5b505050506040513d601f19601f820116820180604052508101906131bd91906153cc565b5050505050565b60a360205260009081526040902080546001820180549192916131e690614e13565b80601f016020809104026020016040519081016040528092919081815260200182805461321290614e13565b801561325f5780601f106132345761010080835404028352916020019161325f565b820191906000526020600020905b81548152906001019060200180831161324257829003601f168201915b5050505050905082565b60a6818154811061327957600080fd5b600091825260209091200154905081565b6097805461095c90614e13565b60a181815481106132a757600080fd5b6000918252602090912001546001600160a01b0316905081565b600054610100900460ff16158080156132e15750600054600160ff909116105b806132fb5750303b1580156132fb575060005460ff166001145b61335e5760405162461bcd60e51b815260206004820152602e60248201527f496e697469616c697a61626c653a20636f6e747261637420697320616c72656160448201526d191e481a5b9a5d1a585b1a5e995960921b606482015260840161113a565b6000805460ff191660011790558015613381576000805461ff0019166101001790555b613389613d9a565b613391613d9a565b609861339d8782614fc0565b5060996133aa8682614fc0565b50609c80546001600160a01b0319166001600160a01b038516179055609d82905560005b8451811015613457576133fb8582815181106133ec576133ec614e47565b60200260200101516001613815565b6001609f600087848151811061341357613413614e47565b6020908102919091018101516001600160a01b03168252810191909152604001600020805460ff19169115159190911790558061344f81614ee0565b9150506133ce565b5080156110ea576000805461ff0019169055604051600181527f7f26b83ff96e1f2b6a682f133852f6798a09c465da95921460cefb38474024989060200160405180910390a1505050505050565b6134ad613996565b806134d75750609a5460ff161580156134d757506134d7823383604051602001610ec19190615278565b156134e0575050565b604051631eb49d6d60e11b815260040160405180910390fd5b6000805b60a154811015612a9b5760a1818154811061351a5761351a614e47565b60009182526020909120015460405162169d5560e31b81526001600160a01b039091169062b4eaa890613555908890889088906004016153e5565b602060405180830381865afa158015613572573d6000803e3d6000fd5b505050506040513d601f19601f820116820180604052508101906135969190615413565b156135a057600191505b806135aa81614ee0565b9150506134fd565b80518190600211806135c5575080516020105b1561130c5760405163354b556f60e11b815260040160405180910390fd5b6111d7604051806020016040528060008152506040518060400160405280600581526020016427bbb732b960d91b8152506134a5565b7f4910fdfa16fed3260ed0e7147f7cc6da11a60208b5b9406d12a635614ffd91435460ff161561364c5761283a83613e07565b826001600160a01b03166352d1902d6040518163ffffffff1660e01b8152600401602060405180830381865afa9250505080156136a6575060408051601f3d908101601f191682019092526136a3918101906153cc565b60015b6137095760405162461bcd60e51b815260206004820152602e60248201527f45524331393637557067726164653a206e657720696d706c656d656e7461746960448201526d6f6e206973206e6f74205555505360901b606482015260840161113a565b60008051602061547c83398151915281146137785760405162461bcd60e51b815260206004820152602960248201527f45524331393637557067726164653a20756e737570706f727465642070726f786044820152681a58589b195555525160ba1b606482015260840161113a565b5061283a838383613ea3565b6040516301ffc9a760e01b815263a485103160e01b60048201526001600160a01b038216906301ffc9a790602401602060405180830381865afa1580156137cf573d6000803e3d6000fd5b505050506040513d601f19601f820116820180604052508101906137f39190615413565b15156000036111d757604051636d9250f160e11b815260040160405180910390fd5b6001600160a01b0382166000908152609e60205260409020805460ff191682158015919091179091556138935760a180546001810182556000919091527faadc37b8ba5645e62f4546802db221593a94729ccbfc5a97d01365a88f6498780180546001600160a01b0384166001600160a01b03199091161790555050565b60005b60a15481101561283a5760a181815481106138b3576138b3614e47565b6000918252602090912001546001600160a01b03908116908416036139845760a180546138e290600190615329565b815481106138f2576138f2614e47565b60009182526020909120015460a180546001600160a01b03909216918390811061391e5761391e614e47565b9060005260206000200160006101000a8154816001600160a01b0302191690836001600160a01b0316021790555060a180548061395d5761395d61533c565b600082815260209020810160001990810180546001600160a01b0319169055019055505050565b8061398e81614ee0565b915050613896565b600033609c54609d546040516331a9108f60e11b815260048101919091526001600160a01b039283169290911690636352211e90602401602060405180830381865afa1580156139ea573d6000803e3d6000fd5b505050506040513d601f19601f82011682018060405250810190613a0e91906152c9565b6001600160a01b031614905090565b600081604051602001613a3091906140f9565b6040516020818303038152906040528051906020012083604051602001613a5791906140f9565b604051602081830303815290604052805190602001201490505b92915050565b60008382604051602001613a8c929190615430565b60408051601f198184030181528282528051602091820120600088815260a0835283812080548085028701850190955284865291955093929091830182828015613af557602002820191906000526020600020905b815481526020019060010190808311613ae1575b5050505050905060005b8151811015613b535782828281518110613b1b57613b1b614e47565b602002602001015103613b415760405163c5c9ad6760e01b815260040160405180910390fd5b80613b4b81614ee0565b915050613aff565b50600085815260a0602090815260408083208054600181018255908452919092200183905551633be2f95d60e21b81526001600160a01b0385169063ef8be57490613ba49088908790600401614cfb565b6020604051808303816000875af1158015613bc3573d6000803e3d6000fd5b505050506040513d601f19601f820116820180604052508101906110ea91906153cc565b60006120bb613996565b600060978054613c0090614e13565b80601f0160208091040260200160405190810160405280929190818152602001828054613c2c90614e13565b8015613c795780601f10613c4e57610100808354040283529160200191613c79565b820191906000526020600020905b815481529060010190602001808311613c5c57829003601f168201915b505050505090508160979081613c8f9190614fc0565b507fc9c7c3fe08b88b4df9d4d47ef47d2c43d55c025a0ba88ca442580ed9e7348a168183604051613cc1929190615456565b60405180910390a15050565b600481511015613d125760405162461bcd60e51b815260206004820152601060248201526f1d5b9a185b991b1959081c995d995c9d60821b604482015260640161113a565b602081015163b1b7848f60e01b6001600160e01b0319821601613d9157604080518082018252600e81526d70616e69636b65643a2030785f5f60901b602082018181526024860151600481811c600f908116603090810160081b9184160117909317909152925162461bcd60e51b815291929161113a918491016140f9565b81518060208401fd5b600054610100900460ff16613e055760405162461bcd60e51b815260206004820152602b60248201527f496e697469616c697a61626c653a20636f6e7472616374206973206e6f74206960448201526a6e697469616c697a696e6760a81b606482015260840161113a565b565b6001600160a01b0381163b613e745760405162461bcd60e51b815260206004820152602d60248201527f455243313936373a206e657720696d706c656d656e746174696f6e206973206e60448201526c1bdd08184818dbdb9d1c9858dd609a1b606482015260840161113a565b60008051602061547c83398151915280546001600160a01b0319166001600160a01b0392909216919091179055565b613eac83613ece565b600082511180613eb95750805b1561283a57613ec88383613f0e565b50505050565b613ed781613e07565b6040516001600160a01b038216907fbc7cd75a20ee27fd9adebab32041f755214dbc6bffa90cc0225b39da2e5c2d3b90600090a250565b60606001600160a01b0383163b613f765760405162461bcd60e51b815260206004820152602660248201527f416464726573733a2064656c65676174652063616c6c20746f206e6f6e2d636f6044820152651b9d1c9858dd60d21b606482015260840161113a565b600080846001600160a01b031684604051613f919190615278565b600060405180830381855af49150503d8060008114613fcc576040519150601f19603f3d011682016040523d82523d6000602084013e613fd1565b606091505b5091509150613ff9828260405180606001604052806027815260200161549c60279139614002565b95945050505050565b60608315614011575081610ee7565b610ee783838151156140265781518083602001fd5b8060405162461bcd60e51b815260040161113a91906140f9565b50805461404c90614e13565b6000825580601f1061405c575050565b601f0160209004906000526020600020908101906111d79190614094565b50805460008255906000526020600020908101906111d791905b5b80821115610c1a5760008155600101614095565b60005b838110156140c45781810151838201526020016140ac565b50506000910152565b600081518084526140e58160208601602086016140a9565b601f01601f19169290920160200192915050565b602081526000610ee760208301846140cd565b60006020808301818452808551808352604092508286019150828160051b87010184880160005b838110156141a757603f19898403018552815160808151818652614159828701826140cd565b838b01516001600160a01b0316878c0152898401518782038b890152909250905061418482826140cd565b606093840151151596909301959095525094870194925090860190600101614133565b509098975050505050505050565b6000602082840312156141c757600080fd5b5035919050565b60a0815260006141e160a08301886140cd565b82810360208401526141f381886140cd565b604084019690965250506060810192909252151560809091015292915050565b60008083601f84011261422557600080fd5b5081356001600160401b0381111561423c57600080fd5b60208301915083602082850101111561425457600080fd5b9250929050565b6001600160a01b03811681146111d757600080fd5b803561427b8161425b565b919050565b6000806000806060858703121561429657600080fd5b84356001600160401b038111156142ac57600080fd5b6142b887828801614213565b90955093505060208501356142cc8161425b565b9396929550929360400135925050565b6000806000604084860312156142f157600080fd5b83356142fc8161425b565b925060208401356001600160401b0381111561431757600080fd5b61432386828701614213565b9497909650939450505050565b634e487b7160e01b600052604160045260246000fd5b604051601f8201601f191681016001600160401b038111828210171561436e5761436e614330565b604052919050565b60006001600160401b0382111561438f5761438f614330565b50601f01601f191660200190565b600082601f8301126143ae57600080fd5b81356143c16143bc82614376565b614346565b8181528460208386010111156143d657600080fd5b816020850160208301376000918101602001919091529392505050565b6000806040838503121561440657600080fd5b8235915060208301356001600160401b0381111561442357600080fd5b61442f8582860161439d565b9150509250929050565b6000806000806040858703121561444f57600080fd5b84356001600160401b038082111561446657600080fd5b61447288838901614213565b9096509450602087013591508082111561448b57600080fd5b5061449887828801614213565b95989497509550505050565b6000602082840312156144b657600080fd5b8135610ee78161425b565b6020808252825182820181905260009190848201906040850190845b818110156144f9578351835292840192918401916001016144dd565b50909695505050505050565b80151581146111d757600080fd5b6000806040838503121561452657600080fd5b82356145318161425b565b9150602083013561454181614505565b809150509250929050565b60006020828403121561455e57600080fd5b8135610ee781614505565b6000806040838503121561457c57600080fd5b82356145878161425b565b915060208301356001600160401b0381111561442357600080fd5b600080604083850312156145b557600080fd5b82356145c08161425b565b915060208301356145418161425b565b60006001600160401b038211156145e9576145e9614330565b5060051b60200190565b6000806000806060858703121561460957600080fd5b84356001600160401b038082111561462057600080fd5b61462c88838901614213565b909650945060209150868201358181111561464657600080fd5b61465289828a0161439d565b94505060408701358181111561466757600080fd5b87019050601f8101881361467a57600080fd5b80356146886143bc826145d0565b81815260059190911b8201830190838101908a8311156146a757600080fd5b928401925b828410156146c5578335825292840192908401906146ac565b979a9699509497505050505050565b6000806000604084860312156146e957600080fd5b83356001600160401b038111156146ff57600080fd5b61470b86828701614213565b909450925050602084013561471f81614505565b809150509250925092565b602081526000825160a0602084015261474660c08401826140cd565b90506020840151601f1984830301604085015261476382826140cd565b91505060408401516060840152606084015160808401526080840151151560a08401528091505092915050565b8051825260006020820151604060208501526147af60408501826140cd565b949350505050565b6000602080830181845280855180835260408601915060408160051b870101925083870160005b8281101561480c57603f198886030184526147fa858351614790565b945092850192908501906001016147de565b5092979650505050505050565b602081526000610ee76020830184614790565b60006020828403121561483e57600080fd5b81356001600160401b0381111561485457600080fd5b6147af8482850161439d565b600082601f83011261487157600080fd5b813560206148816143bc836145d0565b82815260059290921b840181019181810190868411156148a057600080fd5b8286015b848110156148df5780356001600160401b038111156148c35760008081fd5b6148d18986838b010161439d565b8452509183019183016148a4565b509695505050505050565b6000604082840312156148fc57600080fd5b604051604081016001600160401b03828210818311171561491f5761491f614330565b81604052829350843591506149338261425b565b9082526020840135908082111561494957600080fd5b506149568582860161439d565b6020830152505092915050565b6000806000806060858703121561497957600080fd5b84356001600160401b038082111561499057600080fd5b61499c88838901614213565b90965094506020915086820135818111156149b657600080fd5b6149c289828a01614860565b9450506040870135818111156149d757600080fd5b8701601f810189136149e857600080fd5b80356149f66143bc826145d0565b81815260059190911b8201840190848101908b831115614a1557600080fd5b8584015b83811015614a4d57803586811115614a315760008081fd5b614a3f8e89838901016148ea565b845250918601918601614a19565b50989b979a50959850505050505050565b60008060208385031215614a7157600080fd5b82356001600160401b03811115614a8757600080fd5b614a9385828601614213565b90969095509350505050565b60008060408385031215614ab257600080fd5b8235915060208301356001600160401b03811115614acf57600080fd5b61442f85828601614860565b60008060208385031215614aee57600080fd5b82356001600160401b0380821115614b0557600080fd5b818501915085601f830112614b1957600080fd5b813581811115614b2857600080fd5b8660208260051b8501011115614b3d57600080fd5b60209290920196919550909350505050565b6000602080830181845280855180835260408601915060408160051b870101925083870160005b8281101561480c57603f19888603018452614b928583516140cd565b94509285019290850190600101614b76565b6000602080830181845280855180835260408601915060408160051b870101925083870160005b8281101561480c57603f19888603018452614be78583516140cd565b94509285019290850190600101614bcb565b60008060408385031215614c0c57600080fd5b8235915060208301356001600160401b03811115614c2957600080fd5b61442f858286016148ea565b600080600080600060608688031215614c4d57600080fd5b85356001600160401b0380821115614c6457600080fd5b614c7089838a01614213565b909750955060208801359150614c858261425b565b90935060408701359080821115614c9b57600080fd5b50614ca888828901614213565b969995985093965092949392505050565b60008060408385031215614ccc57600080fd5b8235915060208301356001600160401b03811115614ce957600080fd5b83016040818603121561454157600080fd5b8281526040602082015260006147af60408301846140cd565b600080600080600060a08688031215614d2c57600080fd5b85356001600160401b0380821115614d4357600080fd5b614d4f89838a0161439d565b9650602091508188013581811115614d6657600080fd5b614d728a828b0161439d565b965050604088013581811115614d8757600080fd5b88019050601f81018913614d9a57600080fd5b8035614da86143bc826145d0565b81815260059190911b8201830190838101908b831115614dc757600080fd5b928401925b82841015614dee578335614ddf8161425b565b82529284019290840190614dcc565b8097505050505050614e0260608701614270565b949793965091946080013592915050565b600181811c90821680614e2757607f821691505b602082108103611e8457634e487b7160e01b600052602260045260246000fd5b634e487b7160e01b600052603260045260246000fd5b600060208284031215614e6f57600080fd5b81516001600160401b03811115614e8557600080fd5b8201601f81018413614e9657600080fd5b8051614ea46143bc82614376565b818152856020838501011115614eb957600080fd5b613ff98260208301602086016140a9565b634e487b7160e01b600052601160045260246000fd5b600060018201614ef257614ef2614eca565b5060010190565b81835281816020850137506000828201602090810191909152601f909101601f19169091010190565b604081526000614f36604083018587614ef9565b9050826020830152949350505050565b8183823760009101908152919050565b80516020808301519190811015611e845760001960209190910360031b1b16919050565b601f82111561283a57600081815260208120601f850160051c81016020861015614fa15750805b601f850160051c820191505b818110156110ea57828155600101614fad565b81516001600160401b03811115614fd957614fd9614330565b614fed81614fe78454614e13565b84614f7a565b602080601f831160018114615022576000841561500a5750858301515b600019600386901b1c1916600185901b1785556110ea565b600085815260208120601f198616915b8281101561505157888601518255948401946001909101908401615032565b508582101561506f5787850151600019600388901b60f8161c191681555b5050505050600190811b01905550565b6000815461508c81614e13565b8085526020600183811680156150a957600181146150c3576150f1565b60ff1985168884015283151560051b8801830195506150f1565b866000528260002060005b858110156150e95781548a82018601529083019084016150ce565b890184019650505b505050505092915050565b60408152600061510f60408301856140cd565b8281036020840152613ff9818561507f565b6001600160401b0383111561513857615138614330565b61514c836151468354614e13565b83614f7a565b6000601f84116001811461518057600085156151685750838201355b600019600387901b1c1916600186901b1783556131bd565b600083815260209020601f19861690835b828110156151b15786850135825560209485019460019092019101615191565b50868210156151ce5760001960f88860031b161c19848701351681555b505060018560011b0183555050505050565b6020808252602c908201527f46756e6374696f6e206d7573742062652063616c6c6564207468726f7567682060408201526b19195b1959d85d1958d85b1b60a21b606082015260800190565b6020808252602c908201527f46756e6374696f6e206d7573742062652063616c6c6564207468726f7567682060408201526b6163746976652070726f787960a01b606082015260800190565b6000825161528a8184602087016140a9565b9190910192915050565b6040815260006152a760408301856140cd565b90508260208301529392505050565b80820180821115613a7157613a71614eca565b6000602082840312156152db57600080fd5b8151610ee78161425b565b6040815260006152fa604083018587614ef9565b828103602084015261530c818561507f565b9695505050505050565b602081526000610ee7602083018461507f565b81810381811115613a7157613a71614eca565b634e487b7160e01b600052603160045260246000fd5b6000808335601e1984360301811261536957600080fd5b8301803591506001600160401b0382111561538357600080fd5b60200191503681900382131561425457600080fd5b838152818360208301376000910160200190815292915050565b838152604060208201526000613ff9604083018486614ef9565b6000602082840312156153de57600080fd5b5051919050565b6060815260006153f860608301866140cd565b6001600160a01b039490941660208301525060400152919050565b60006020828403121561542557600080fd5b8151610ee781614505565b828152600082516154488160208501602087016140a9565b919091016020019392505050565b60408152600061546960408301856140cd565b8281036020840152613ff981856140cd56fe360894a13ba1a3210667c828492db98dca3e2076cc3735a920a3ca505d382bbc416464726573733a206c6f772d6c6576656c2064656c65676174652063616c6c206661696c6564a26469706673582212200e3b02bb0e2af22dbf66946992c2dabdeba003800d0ab50014641e3ad5ce68ee64736f6c63430008130033",
    "linkReferences": {
      "packages/contracts/src/libraries/Utils.sol": {
        "Utils": [
          {
            "start": 10995,
            "length": 20
          }
        ]
      }
    }
  },
  "methodIdentifiers": {
    "MODULE_TYPE()": "5775029f",
    "MODULE_VERSION()": "81ed9808",
    "addPermissionsToRole(uint256,string[])": "b7515761",
    "addRoleToChannel(string,address,uint256)": "1dea616a",
    "addRoleToEntitlement(uint256,(address,bytes))": "ba201ba8",
    "channels(uint256)": "e5949b5d",
    "channelsByHash(bytes32)": "129ab3c8",
    "contractURI()": "e8a3d485",
    "createChannel(string,string,uint256[])": "51f83cea",
    "createRole(string,string[],(address,bytes)[])": "8fcd793d",
    "defaultEntitlements(address)": "fa6433c5",
    "disabled()": "ee070805",
    "entitlements(uint256)": "f28f9b56",
    "getChannelByHash(bytes32)": "703511f8",
    "getChannels()": "9575f6ac",
    "getEntitlementByModuleType(string)": "870b9464",
    "getEntitlementIdsByRoleId(uint256)": "42486e49",
    "getEntitlementModules()": "0d029f75",
    "getPermissionsByRoleId(uint256)": "b4264233",
    "getRoleById(uint256)": "784c872b",
    "getRoles()": "71061398",
    "hasEntitlement(address)": "7f8d06d0",
    "initialize(string,string,address[],address,uint256)": "f3ce6a5b",
    "isEntitledToChannel(string,address,string)": "cea632bc",
    "isEntitledToSpace(address,string)": "20759f9e",
    "multicall(bytes[])": "ac9650d8",
    "name()": "06fdde03",
    "networkId()": "9025e64c",
    "owner()": "8da5cb5b",
    "ownerRoleId()": "d1a6a961",
    "proxiableUUID()": "52d1902d",
    "removePermissionsFromRole(uint256,string[])": "9a8e4c3e",
    "removeRole(uint256)": "92691821",
    "removeRoleFromChannel(string,address,uint256)": "baaf3d57",
    "removeRoleFromEntitlement(uint256,(address,bytes))": "dba81864",
    "roleCount()": "ddf96358",
    "rolesById(uint256)": "e5894ef4",
    "setChannelAccess(string,bool)": "5de151b8",
    "setContractURI(string)": "938e3d7b",
    "setEntitlementModule(address,bool)": "441555e5",
    "setOwnerRoleId(uint256)": "4999ab16",
    "setSpaceAccess(bool)": "446dc22e",
    "token()": "fc0c546a",
    "tokenId()": "17d70f7c",
    "updateChannel(string,string)": "34a1dd26",
    "updateRole(uint256,string)": "32e704cc",
    "upgradeEntitlement(address,address)": "519607f2",
    "upgradeTo(address)": "3659cfe6",
    "upgradeToAndCall(address,bytes)": "4f1ef286"
  },
  "id": 124
}