{
  "abi": [
    {
      "inputs": [],
      "stateMutability": "nonpayable",
      "type": "constructor"
    },
    {
      "inputs": [],
      "name": "InvalidParameters",
      "type": "error"
    },
    {
      "inputs": [],
      "name": "NameLengthInvalid",
      "type": "error"
    },
    {
      "inputs": [],
      "name": "NotAllowed",
      "type": "error"
    },
    {
      "inputs": [],
      "name": "PermissionAlreadyExists",
      "type": "error"
    },
    {
      "inputs": [],
      "name": "SpaceAlreadyRegistered",
      "type": "error"
    },
    {
      "anonymous": false,
      "inputs": [
        {
          "indexed": false,
          "internalType": "address",
          "name": "previousAdmin",
          "type": "address"
        },
        {
          "indexed": false,
          "internalType": "address",
          "name": "newAdmin",
          "type": "address"
        }
      ],
      "name": "AdminChanged",
      "type": "event"
    },
    {
      "anonymous": false,
      "inputs": [
        {
          "indexed": true,
          "internalType": "address",
          "name": "beacon",
          "type": "address"
        }
      ],
      "name": "BeaconUpgraded",
      "type": "event"
    },
    {
      "anonymous": false,
      "inputs": [
        {
          "indexed": false,
          "internalType": "uint8",
          "name": "version",
          "type": "uint8"
        }
      ],
      "name": "Initialized",
      "type": "event"
    },
    {
      "anonymous": false,
      "inputs": [
        {
          "indexed": true,
          "internalType": "address",
          "name": "previousOwner",
          "type": "address"
        },
        {
          "indexed": true,
          "internalType": "address",
          "name": "newOwner",
          "type": "address"
        }
      ],
      "name": "OwnershipTransferred",
      "type": "event"
    },
    {
      "anonymous": false,
      "inputs": [
        {
          "indexed": false,
          "internalType": "address",
          "name": "account",
          "type": "address"
        }
      ],
      "name": "Paused",
      "type": "event"
    },
    {
      "anonymous": false,
      "inputs": [
        {
          "indexed": false,
          "internalType": "address",
          "name": "account",
          "type": "address"
        }
      ],
      "name": "Unpaused",
      "type": "event"
    },
    {
      "anonymous": false,
      "inputs": [
        {
          "indexed": true,
          "internalType": "address",
          "name": "implementation",
          "type": "address"
        }
      ],
      "name": "Upgraded",
      "type": "event"
    },
    {
      "inputs": [],
      "name": "GATE_TOKEN_ADDRESS",
      "outputs": [
        {
          "internalType": "address",
          "name": "",
          "type": "address"
        }
      ],
      "stateMutability": "view",
      "type": "function"
    },
    {
      "inputs": [],
      "name": "SPACE_IMPLEMENTATION_ADDRESS",
      "outputs": [
        {
          "internalType": "address",
          "name": "",
          "type": "address"
        }
      ],
      "stateMutability": "view",
      "type": "function"
    },
    {
      "inputs": [],
      "name": "SPACE_TOKEN_ADDRESS",
      "outputs": [
        {
          "internalType": "address",
          "name": "",
          "type": "address"
        }
      ],
      "stateMutability": "view",
      "type": "function"
    },
    {
      "inputs": [],
      "name": "TOKEN_IMPLEMENTATION_ADDRESS",
      "outputs": [
        {
          "internalType": "address",
          "name": "",
          "type": "address"
        }
      ],
      "stateMutability": "view",
      "type": "function"
    },
    {
      "inputs": [],
      "name": "USER_IMPLEMENTATION_ADDRESS",
      "outputs": [
        {
          "internalType": "address",
          "name": "",
          "type": "address"
        }
      ],
      "stateMutability": "view",
      "type": "function"
    },
    {
      "inputs": [
        {
          "internalType": "string[]",
          "name": "_permissions",
          "type": "string[]"
        }
      ],
      "name": "addOwnerPermissions",
      "outputs": [],
      "stateMutability": "nonpayable",
      "type": "function"
    },
    {
      "inputs": [
        {
          "internalType": "string",
          "name": "spaceName",
          "type": "string"
        },
        {
          "internalType": "string",
          "name": "spaceNetworkId",
          "type": "string"
        },
        {
          "internalType": "string",
          "name": "spaceMetadata",
          "type": "string"
        },
        {
          "internalType": "string[]",
          "name": "_everyonePermissions",
          "type": "string[]"
        },
        {
          "components": [
            {
              "internalType": "string",
              "name": "roleName",
              "type": "string"
            },
            {
              "internalType": "string[]",
              "name": "permissions",
              "type": "string[]"
            },
            {
              "components": [
                {
                  "internalType": "address",
                  "name": "contractAddress",
                  "type": "address"
                },
                {
                  "internalType": "uint256",
                  "name": "quantity",
                  "type": "uint256"
                },
                {
                  "internalType": "bool",
                  "name": "isSingleToken",
                  "type": "bool"
                },
                {
                  "internalType": "uint256[]",
                  "name": "tokenIds",
                  "type": "uint256[]"
                }
              ],
              "internalType": "struct DataTypes.ExternalToken[]",
              "name": "tokens",
              "type": "tuple[]"
            },
            {
              "internalType": "address[]",
              "name": "users",
              "type": "address[]"
            }
          ],
          "internalType": "struct DataTypes.CreateSpaceExtraEntitlements",
          "name": "_extraEntitlements",
          "type": "tuple"
        }
      ],
      "name": "createSpace",
      "outputs": [
        {
          "internalType": "address",
          "name": "_spaceAddress",
          "type": "address"
        }
      ],
      "stateMutability": "nonpayable",
      "type": "function"
    },
    {
      "inputs": [],
      "name": "gatingEnabled",
      "outputs": [
        {
          "internalType": "bool",
          "name": "",
          "type": "bool"
        }
      ],
      "stateMutability": "view",
      "type": "function"
    },
    {
      "inputs": [],
      "name": "getOwnerPermissions",
      "outputs": [
        {
          "internalType": "string[]",
          "name": "",
          "type": "string[]"
        }
      ],
      "stateMutability": "view",
      "type": "function"
    },
    {
      "inputs": [
        {
          "internalType": "string",
          "name": "spaceNetworkId",
          "type": "string"
        }
      ],
      "name": "getSpaceAddressByNetworkId",
      "outputs": [
        {
          "internalType": "address",
          "name": "",
          "type": "address"
        }
      ],
      "stateMutability": "view",
      "type": "function"
    },
    {
      "inputs": [
        {
          "internalType": "string",
          "name": "spaceNetworkId",
          "type": "string"
        }
      ],
      "name": "getTokenIdByNetworkId",
      "outputs": [
        {
          "internalType": "uint256",
          "name": "",
          "type": "uint256"
        }
      ],
      "stateMutability": "view",
      "type": "function"
    },
    {
      "inputs": [
        {
          "internalType": "address",
          "name": "_space",
          "type": "address"
        },
        {
          "internalType": "address",
          "name": "_tokenEntitlement",
          "type": "address"
        },
        {
          "internalType": "address",
          "name": "_userEntitlement",
          "type": "address"
        },
        {
          "internalType": "address",
          "name": "_spaceToken",
          "type": "address"
        },
        {
          "internalType": "address",
          "name": "_gateToken",
          "type": "address"
        },
        {
          "internalType": "string[]",
          "name": "_permissions",
          "type": "string[]"
        }
      ],
      "name": "initialize",
      "outputs": [],
      "stateMutability": "nonpayable",
      "type": "function"
    },
    {
      "inputs": [
        {
          "internalType": "address",
          "name": "",
          "type": "address"
        },
        {
          "internalType": "address",
          "name": "",
          "type": "address"
        },
        {
          "internalType": "uint256",
          "name": "",
          "type": "uint256"
        },
        {
          "internalType": "bytes",
          "name": "",
          "type": "bytes"
        }
      ],
      "name": "onERC721Received",
      "outputs": [
        {
          "internalType": "bytes4",
          "name": "",
          "type": "bytes4"
        }
      ],
      "stateMutability": "nonpayable",
      "type": "function"
    },
    {
      "inputs": [],
      "name": "owner",
      "outputs": [
        {
          "internalType": "address",
          "name": "",
          "type": "address"
        }
      ],
      "stateMutability": "view",
      "type": "function"
    },
    {
      "inputs": [
        {
          "internalType": "uint256",
          "name": "",
          "type": "uint256"
        }
      ],
      "name": "ownerPermissions",
      "outputs": [
        {
          "internalType": "string",
          "name": "",
          "type": "string"
        }
      ],
      "stateMutability": "view",
      "type": "function"
    },
    {
      "inputs": [],
      "name": "paused",
      "outputs": [
        {
          "internalType": "bool",
          "name": "",
          "type": "bool"
        }
      ],
      "stateMutability": "view",
      "type": "function"
    },
    {
      "inputs": [],
      "name": "proxiableUUID",
      "outputs": [
        {
          "internalType": "bytes32",
          "name": "",
          "type": "bytes32"
        }
      ],
      "stateMutability": "view",
      "type": "function"
    },
    {
      "inputs": [],
      "name": "renounceOwnership",
      "outputs": [],
      "stateMutability": "nonpayable",
      "type": "function"
    },
    {
      "inputs": [
        {
          "internalType": "bool",
          "name": "_gatingEnabled",
          "type": "bool"
        }
      ],
      "name": "setGatingEnabled",
      "outputs": [],
      "stateMutability": "nonpayable",
      "type": "function"
    },
    {
      "inputs": [
        {
          "internalType": "bool",
          "name": "_paused",
          "type": "bool"
        }
      ],
      "name": "setPaused",
      "outputs": [],
      "stateMutability": "nonpayable",
      "type": "function"
    },
    {
      "inputs": [
        {
          "internalType": "address",
          "name": "_spaceToken",
          "type": "address"
        }
      ],
      "name": "setSpaceToken",
      "outputs": [],
      "stateMutability": "nonpayable",
      "type": "function"
    },
    {
      "inputs": [
        {
          "internalType": "bytes32",
          "name": "",
          "type": "bytes32"
        }
      ],
      "name": "spaceByHash",
      "outputs": [
        {
          "internalType": "address",
          "name": "",
          "type": "address"
        }
      ],
      "stateMutability": "view",
      "type": "function"
    },
    {
      "inputs": [
        {
          "internalType": "bytes32",
          "name": "",
          "type": "bytes32"
        }
      ],
      "name": "tokenByHash",
      "outputs": [
        {
          "internalType": "uint256",
          "name": "",
          "type": "uint256"
        }
      ],
      "stateMutability": "view",
      "type": "function"
    },
    {
      "inputs": [
        {
          "internalType": "address",
          "name": "newOwner",
          "type": "address"
        }
      ],
      "name": "transferOwnership",
      "outputs": [],
      "stateMutability": "nonpayable",
      "type": "function"
    },
    {
      "inputs": [
        {
          "internalType": "address",
          "name": "_space",
          "type": "address"
        },
        {
          "internalType": "address",
          "name": "_tokenEntitlement",
          "type": "address"
        },
        {
          "internalType": "address",
          "name": "_userEntitlement",
          "type": "address"
        },
        {
          "internalType": "address",
          "name": "_gateToken",
          "type": "address"
        }
      ],
      "name": "updateImplementations",
      "outputs": [],
      "stateMutability": "nonpayable",
      "type": "function"
    },
    {
      "inputs": [
        {
          "internalType": "address",
          "name": "newImplementation",
          "type": "address"
        }
      ],
      "name": "upgradeTo",
      "outputs": [],
      "stateMutability": "nonpayable",
      "type": "function"
    },
    {
      "inputs": [
        {
          "internalType": "address",
          "name": "newImplementation",
          "type": "address"
        },
        {
          "internalType": "bytes",
          "name": "data",
          "type": "bytes"
        }
      ],
      "name": "upgradeToAndCall",
      "outputs": [],
      "stateMutability": "payable",
      "type": "function"
    }
  ],
  "bytecode": {
    "object": "0x60a0604052306080523480156200001557600080fd5b506200002062000026565b620000e8565b600054610100900460ff1615620000935760405162461bcd60e51b815260206004820152602760248201527f496e697469616c697a61626c653a20636f6e747261637420697320696e697469604482015266616c697a696e6760c81b606482015260840160405180910390fd5b60005460ff9081161015620000e6576000805460ff191660ff9081179091556040519081527f7f26b83ff96e1f2b6a682f133852f6798a09c465da95921460cefb38474024989060200160405180910390a15b565b608051613cb9620001206000396000818161062b015281816106770152818161074f01528181610792015261082e0152613cb96000f3fe608060405260043610620001be5760003560e01c80638da5cb5b11620000ff578063cfc270371162000095578063f21cd401116200006c578063f21cd401146200055a578063f2fde38b146200057d578063f3aba30514620005a2578063f6ac70b714620005d457600080fd5b8063cfc2703714620004ed578063df2cd9fe1462000510578063ed267116146200053757600080fd5b8063ad78faf311620000d6578063ad78faf3146200044b578063b28032f91462000470578063be8b596714620004a4578063c45f396b14620004c957600080fd5b80638da5cb5b14620003e157806396dc21e414620004015780639ad622b7146200042657600080fd5b80634f1ef2861162000175578063683c72b6116200014c578063683c72b6146200035c5780636e9ea7ca146200037f578063715018a614620003a45780638a9ef42614620003bc57600080fd5b80634f1ef28614620002f857806352d1902d146200030f5780635c975abb146200033657600080fd5b806308bc0b4b14620001c3578063150b7a02146200020357806316c38b3c146200024c5780633312540a14620002735780633659cfe614620002ae5780634689cd0414620002d3575b600080fd5b348015620001d057600080fd5b5061016154620001e6906001600160a01b031681565b6040516001600160a01b0390911681526020015b60405180910390f35b3480156200021057600080fd5b50620002326200022236600462002722565b630a85bd0160e11b949350505050565b6040516001600160e01b03199091168152602001620001fa565b3480156200025957600080fd5b50620002716200026b366004620027a2565b620005f9565b005b3480156200028057600080fd5b50620001e662000292366004620027c0565b610165602052600090815260409020546001600160a01b031681565b348015620002bb57600080fd5b5062000271620002cd366004620027da565b62000621565b348015620002e057600080fd5b5062000271620002f2366004620027a2565b62000712565b6200027162000309366004620027f8565b62000745565b3480156200031c57600080fd5b506200032762000821565b604051908152602001620001fa565b3480156200034357600080fd5b5060655460ff165b6040519015158152602001620001fa565b3480156200036957600080fd5b5061016254620001e6906001600160a01b031681565b3480156200038c57600080fd5b50620002716200039e36600462002916565b620008d7565b348015620003b157600080fd5b506200027162000aea565b348015620003c957600080fd5b5062000327620003db366004620029fd565b62000b02565b348015620003ee57600080fd5b506033546001600160a01b0316620001e6565b3480156200040e57600080fd5b50620001e662000420366004620029fd565b62000b37565b3480156200043357600080fd5b50620002716200044536600462002a42565b62000b75565b3480156200045857600080fd5b50620001e66200046a36600462002aff565b62000c43565b3480156200047d57600080fd5b50620004956200048f366004620027c0565b62001260565b604051620001fa919062002c49565b348015620004b157600080fd5b5062000271620004c336600462002c5e565b62001316565b348015620004d657600080fd5b50610163546200034b90600160a01b900460ff1681565b348015620004fa57600080fd5b5061016054620001e6906001600160a01b031681565b3480156200051d57600080fd5b5062000528620014ff565b604051620001fa919062002ced565b3480156200054457600080fd5b5061016354620001e6906001600160a01b031681565b3480156200056757600080fd5b5061015f54620001e6906001600160a01b031681565b3480156200058a57600080fd5b50620002716200059c366004620027da565b620015e3565b348015620005af57600080fd5b5062000327620005c1366004620027c0565b6101666020526000908152604090205481565b348015620005e157600080fd5b5062000271620005f3366004620027da565b6200165f565b6200060362001696565b8015620006175762000614620016f2565b50565b620006146200174f565b6001600160a01b037f0000000000000000000000000000000000000000000000000000000000000000163003620006755760405162461bcd60e51b81526004016200066c9062002d02565b60405180910390fd5b7f00000000000000000000000000000000000000000000000000000000000000006001600160a01b0316620006c060008051602062003c3d833981519152546001600160a01b031690565b6001600160a01b031614620006e95760405162461bcd60e51b81526004016200066c9062002d4e565b620006f4816200178b565b60408051600080825260208201909252620006149183919062001795565b6200071c62001696565b620007266200190d565b6101638054911515600160a01b0260ff60a01b19909216919091179055565b6001600160a01b037f0000000000000000000000000000000000000000000000000000000000000000163003620007905760405162461bcd60e51b81526004016200066c9062002d02565b7f00000000000000000000000000000000000000000000000000000000000000006001600160a01b0316620007db60008051602062003c3d833981519152546001600160a01b031690565b6001600160a01b031614620008045760405162461bcd60e51b81526004016200066c9062002d4e565b6200080f826200178b565b6200081d8282600162001795565b5050565b6000306001600160a01b037f00000000000000000000000000000000000000000000000000000000000000001614620008c35760405162461bcd60e51b815260206004820152603860248201527f555550535570677261646561626c653a206d757374206e6f742062652063616c60448201527f6c6564207468726f7567682064656c656761746563616c6c000000000000000060648201526084016200066c565b5060008051602062003c3d83398151915290565b600054610100900460ff1615808015620008f85750600054600160ff909116105b80620009145750303b15801562000914575060005460ff166001145b620009795760405162461bcd60e51b815260206004820152602e60248201527f496e697469616c697a61626c653a20636f6e747261637420697320616c72656160448201526d191e481a5b9a5d1a585b1a5e995960921b60648201526084016200066c565b6000805460ff1916600117905580156200099d576000805461ff0019166101001790555b620009a762001958565b620009b162001982565b620009bb620019b6565b620009c5620019ea565b620009cf62001958565b61015f80546001600160a01b03808a166001600160a01b031992831617909255610160805489841690831617905561016180548884169083161790556101628054878416921691909117905561016380546001600160a81b03191691851691909117905560005b825181101562000a995761016483828151811062000a585762000a5862002d9a565b6020908102919091018101518254600181018455600093845291909220019062000a83908262002e30565b508062000a908162002efc565b91505062000a36565b50801562000ae1576000805461ff0019169055604051600181527f7f26b83ff96e1f2b6a682f133852f6798a09c465da95921460cefb38474024989060200160405180910390a15b50505050505050565b62000af462001696565b62000b00600062001a1e565b565b600080838360405162000b1792919062002f24565b604080519182900390912060009081526101666020522054949350505050565b600080838360405162000b4c92919062002f24565b6040805191829003909120600090815261016560205220546001600160a01b0316949350505050565b62000b7f62001696565b62000b896200190d565b6001600160a01b0384161562000bb65761015f80546001600160a01b0319166001600160a01b0386161790555b6001600160a01b0383161562000be35761016080546001600160a01b0319166001600160a01b0385161790555b6001600160a01b0382161562000c105761016180546001600160a01b0319166001600160a01b0384161790555b6001600160a01b0381161562000c3d5761016380546001600160a01b0319166001600160a01b0383161790555b50505050565b600062000c4f62001a70565b62000c5962001acb565b62000c6362001b13565b62000ca48a8a8080601f01602080910402602001604051908101604052809392919081815260200183838082843760009201919091525062001bc892505050565b600087900362000cc757604051630e52390960e41b815260040160405180910390fd5b6000888860405162000cdb92919062002f24565b6040805191829003909120600081815261016560205291909120549091506001600160a01b03161562000d2157604051633881599b60e11b815260040160405180910390fd5b6101625460408051631d5e528f60e21b815290516000926001600160a01b0316916375794a3c9160048083019260209291908290030181865afa15801562000d6d573d6000803e3d6000fd5b505050506040513d601f19601f8201168201806040525081019062000d93919062002f34565b610162546040516275a31760e01b81529192506001600160a01b0316906275a3179062000dc99030908c908c9060040162002f77565b600060405180830381600087803b15801562000de457600080fd5b505af115801562000df9573d6000803e3d6000fd5b50505060008381526101666020526040808220849055610160546101625491516001600160a01b03928316602482015260448101869052929350169060640160408051601f198184030181529181526020820180516001600160e01b031663cd6dc68760e01b1790525162000e6e906200260d565b62000e7b92919062002f9e565b604051809103906000f08015801562000e98573d6000803e3d6000fd5b5061016154610162546040516001600160a01b0391821660248201526044810186905292935060009291169060640160408051601f198184030181529181526020820180516001600160e01b031663cd6dc68760e01b1790525162000efd906200260d565b62000f0a92919062002f9e565b604051809103906000f08015801562000f27573d6000803e3d6000fd5b506040805160028082526060820183529293506000929091602083019080368337019050509050828160008151811062000f655762000f6562002d9a565b60200260200101906001600160a01b031690816001600160a01b031681525050818160018151811062000f9c5762000f9c62002d9a565b60200260200101906001600160a01b031690816001600160a01b03168152505061015f60009054906101000a90046001600160a01b03168f8f8f8f8561016260009054906101000a90046001600160a01b03168a60405160240162001008979695949392919062003012565b60408051601f198184030181529181526020820180516001600160e01b031663f3ce6a5b60e01b179052516200103e906200260d565b6200104b92919062002f9e565b604051809103906000f08015801562001068573d6000803e3d6000fd5b5060008681526101656020526040812080546001600160a01b0319166001600160a01b0384161790559096505b81518110156200113257818181518110620010b457620010b462002d9a565b602090810291909101015160405162ed014d60e21b81526001600160a01b038981166004830152909116906303b4053490602401600060405180830381600087803b1580156200110357600080fd5b505af115801562001118573d6000803e3d6000fd5b505050508080620011299062002efc565b91505062001095565b506200114086848662001bfb565b620011588683620011528b8d62003073565b62001e84565b620011708684846200116a8b6200324a565b62002021565b610162546001600160a01b03166342842e0e30336040516001600160e01b031960e085901b1681526001600160a01b0392831660048201529116602482015260448101879052606401600060405180830381600087803b158015620011d457600080fd5b505af1158015620011e9573d6000803e3d6000fd5b50505050620011f53390565b6001600160a01b0316866001600160a01b03167f78d7e431fd0a46d11f5c8889cf2db64699be1f95ccb8b1419211c83bcdbce5808f8f6040516200123b9291906200330f565b60405180910390a35050505050620012536001609755565b9998505050505050505050565b61016481815481106200127257600080fd5b9060005260206000200160009150905080546200128f9062002db0565b80601f0160208091040260200160405190810160405280929190818152602001828054620012bd9062002db0565b80156200130e5780601f10620012e2576101008083540402835291602001916200130e565b820191906000526020600020905b815481529060010190602001808311620012f057829003601f168201915b505050505081565b6200132062001696565b6200132a6200190d565b60005b81811015620014fa5760005b610164548110156200149557620014618484848181106200135e576200135e62002d9a565b905060200281019062001372919062003325565b8080601f0160208091040260200160405190810160405280939291908181526020018383808284376000920191909152505061016480549092508591508110620013c057620013c062002d9a565b906000526020600020018054620013d79062002db0565b80601f0160208091040260200160405190810160405280929190818152602001828054620014059062002db0565b8015620014565780601f106200142a5761010080835404028352916020019162001456565b820191906000526020600020905b8154815290600101906020018083116200143857829003601f168201915b5050505050620022c1565b156200148057604051636571d65f60e01b815260040160405180910390fd5b806200148c8162002efc565b91505062001339565b50610164838383818110620014ae57620014ae62002d9a565b9050602002810190620014c2919062003325565b82546001810184556000938452602090932090920191620014e491836200336e565b5080620014f18162002efc565b9150506200132d565b505050565b6060610164805480602002602001604051908101604052809291908181526020016000905b82821015620015da578382906000526020600020018054620015469062002db0565b80601f0160208091040260200160405190810160405280929190818152602001828054620015749062002db0565b8015620015c55780601f106200159957610100808354040283529160200191620015c5565b820191906000526020600020905b815481529060010190602001808311620015a757829003601f168201915b50505050508152602001906001019062001524565b50505050905090565b620015ed62001696565b6001600160a01b038116620016545760405162461bcd60e51b815260206004820152602660248201527f4f776e61626c653a206e6577206f776e657220697320746865207a65726f206160448201526564647265737360d01b60648201526084016200066c565b620006148162001a1e565b6200166962001696565b620016736200190d565b61016280546001600160a01b0319166001600160a01b0392909216919091179055565b6033546001600160a01b0316331462000b005760405162461bcd60e51b815260206004820181905260248201527f4f776e61626c653a2063616c6c6572206973206e6f7420746865206f776e657260448201526064016200066c565b620016fc62001acb565b6065805460ff191660011790557f62e78cea01bee320cd4e420270b5ea74000d11b0c9f74754ebdbfc544b05a258620017323390565b6040516001600160a01b03909116815260200160405180910390a1565b620017596200190d565b6065805460ff191690557f5db9ee0a495bf2e6ff9c91a7834c1ba4fdd244a5e8aa4e537bd38aeae4b073aa3362001732565b6200061462001696565b7f4910fdfa16fed3260ed0e7147f7cc6da11a60208b5b9406d12a635614ffd91435460ff1615620017cb57620014fa836200231e565b826001600160a01b03166352d1902d6040518163ffffffff1660e01b8152600401602060405180830381865afa92505050801562001828575060408051601f3d908101601f19168201909252620018259181019062002f34565b60015b6200188d5760405162461bcd60e51b815260206004820152602e60248201527f45524331393637557067726164653a206e657720696d706c656d656e7461746960448201526d6f6e206973206e6f74205555505360901b60648201526084016200066c565b60008051602062003c3d8339815191528114620018ff5760405162461bcd60e51b815260206004820152602960248201527f45524331393637557067726164653a20756e737570706f727465642070726f786044820152681a58589b195555525160ba1b60648201526084016200066c565b50620014fa838383620023bd565b60655460ff1662000b005760405162461bcd60e51b815260206004820152601460248201527314185d5cd8589b194e881b9bdd081c185d5cd95960621b60448201526064016200066c565b600054610100900460ff1662000b005760405162461bcd60e51b81526004016200066c906200343b565b600054610100900460ff16620019ac5760405162461bcd60e51b81526004016200066c906200343b565b62000b00620023e8565b600054610100900460ff16620019e05760405162461bcd60e51b81526004016200066c906200343b565b62000b006200241d565b600054610100900460ff1662001a145760405162461bcd60e51b81526004016200066c906200343b565b62000b0062002453565b603380546001600160a01b038381166001600160a01b0319831681179093556040519116919082907f8be0079c531659141344cd1fd0a4f28419497f9722a3daafe3b4186f6b6457e090600090a35050565b60026097540362001ac45760405162461bcd60e51b815260206004820152601f60248201527f5265656e7472616e637947756172643a207265656e7472616e742063616c6c0060448201526064016200066c565b6002609755565b60655460ff161562000b005760405162461bcd60e51b815260206004820152601060248201526f14185d5cd8589b194e881c185d5cd95960821b60448201526064016200066c565b61016354600160a01b900460ff16801562001ba95750610163546001600160a01b03166370a08231336040516001600160e01b031960e084901b1681526001600160a01b039091166004820152602401602060405180830381865afa15801562001b81573d6000803e3d6000fd5b505050506040513d601f19601f8201168201806040525081019062001ba7919062002f34565b155b1562000b0057604051631eb49d6d60e11b815260040160405180910390fd5b805181906002118062001bdc575080516020105b156200081d5760405163354b556f60e11b815260040160405180910390fd5b604080516001808252818301909252600091816020015b604080516080810182526000808252602080830182905292820152606080820152825260001990920191018162001c125750506040805160018082528183019092529192506000919060208083019080368337019050509050828160008151811062001c825762001c8262002d9a565b60209081029190910181019190915260408051608081018252610162546001600160a01b03168152600192810183905290810191909152606081018290528251839060009062001cd65762001cd662002d9a565b6020908102919091010152604080516001808252818301909252600091816020015b60408051808201909152600081526060602082015281526020019060019003908162001cf85790505090506040518060400160405280866001600160a01b031681526020018460405160200162001d50919062003486565b6040516020818303038152906040528152508160008151811062001d785762001d7862002d9a565b60200260200101819052506000866001600160a01b0316638fcd793d6040518060400160405280600581526020016427bbb732b960d91b815250610164856040518463ffffffff1660e01b815260040162001dd693929190620035c1565b6020604051808303816000875af115801562001df6573d6000803e3d6000fd5b505050506040513d601f19601f8201168201806040525081019062001e1c919062002f34565b6040516324ccd58b60e11b8152600481018290529091506001600160a01b03881690634999ab1690602401600060405180830381600087803b15801562001e6257600080fd5b505af115801562001e77573d6000803e3d6000fd5b5050505050505050505050565b604080516001808252818301909252600091816020015b60408051808201909152600081526060602082015281526020019060019003908162001e9b575050604080516001808252818301909252919250600091906020808301908036833701905050905060018160008151811062001f015762001f0162002d9a565b60200260200101906001600160a01b031690816001600160a01b0316815250506040518060400160405280856001600160a01b031681526020018260405160200162001f4e9190620036c4565b6040516020818303038152906040528152508260008151811062001f765762001f7662002d9a565b6020026020010181905250846001600160a01b0316638fcd793d6040518060400160405280600881526020016745766572796f6e6560c01b81525085856040518463ffffffff1660e01b815260040162001fd393929190620036d9565b6020604051808303816000875af115801562001ff3573d6000803e3d6000fd5b505050506040513d601f19601f8201168201806040525081019062002019919062002f34565b505050505050565b6020810151511562000c3d57604080516001808252818301909252600091816020015b60408051808201909152600081526060602082015281526020019060019003908162002044579050509050604051806040016040528060006001600160a01b031681526020016040518060200160405280600081525081525081600081518110620020b357620020b362002d9a565b60200260200101819052506000856001600160a01b0316638fcd793d84600001518560200151856040518463ffffffff1660e01b8152600401620020fa93929190620036d9565b6020604051808303816000875af11580156200211a573d6000803e3d6000fd5b505050506040513d601f19601f8201168201806040525081019062002140919062002f34565b60608401515190915015620021f657856001600160a01b031663ba201ba8826040518060400160405280886001600160a01b031681526020018760600151604051602001620021909190620036c4565b6040516020818303038152906040528152506040518363ffffffff1660e01b8152600401620021c192919062003722565b600060405180830381600087803b158015620021dc57600080fd5b505af1158015620021f1573d6000803e3d6000fd5b505050505b8260400151516000036200220c57505062000c3d565b856001600160a01b031663ba201ba8826040518060400160405280896001600160a01b0316815260200187604001516040516020016200224d919062003486565b6040516020818303038152906040528152506040518363ffffffff1660e01b81526004016200227e92919062003722565b600060405180830381600087803b1580156200229957600080fd5b505af1158015620022ae573d6000803e3d6000fd5b50505050505050505050565b6001609755565b600081604051602001620022d6919062002c49565b6040516020818303038152906040528051906020012083604051602001620022ff919062002c49565b6040516020818303038152906040528051906020012014905092915050565b6001600160a01b0381163b6200238d5760405162461bcd60e51b815260206004820152602d60248201527f455243313936373a206e657720696d706c656d656e746174696f6e206973206e60448201526c1bdd08184818dbdb9d1c9858dd609a1b60648201526084016200066c565b60008051602062003c3d83398151915280546001600160a01b0319166001600160a01b0392909216919091179055565b620023c8836200247d565b600082511180620023d65750805b15620014fa5762000c3d8383620024bf565b600054610100900460ff16620024125760405162461bcd60e51b81526004016200066c906200343b565b62000b003362001a1e565b600054610100900460ff16620024475760405162461bcd60e51b81526004016200066c906200343b565b6065805460ff19169055565b600054610100900460ff16620022ba5760405162461bcd60e51b81526004016200066c906200343b565b62002488816200231e565b6040516001600160a01b038216907fbc7cd75a20ee27fd9adebab32041f755214dbc6bffa90cc0225b39da2e5c2d3b90600090a250565b60606001600160a01b0383163b620025295760405162461bcd60e51b815260206004820152602660248201527f416464726573733a2064656c65676174652063616c6c20746f206e6f6e2d636f6044820152651b9d1c9858dd60d21b60648201526084016200066c565b600080846001600160a01b0316846040516200254691906200373d565b600060405180830381855af49150503d806000811462002583576040519150601f19603f3d011682016040523d82523d6000602084013e62002588565b606091505b5091509150620025b3828260405180606001604052806027815260200162003c5d60279139620025bc565b95945050505050565b60608315620025cd575081620025d9565b620025d98383620025e0565b9392505050565b815115620025f15781518083602001fd5b8060405162461bcd60e51b81526004016200066c919062002c49565b6104e1806200375c83390190565b80356001600160a01b03811681146200263357600080fd5b919050565b634e487b7160e01b600052604160045260246000fd5b604051608081016001600160401b038111828210171562002673576200267362002638565b60405290565b604051601f8201601f191681016001600160401b0381118282101715620026a457620026a462002638565b604052919050565b600082601f830112620026be57600080fd5b81356001600160401b03811115620026da57620026da62002638565b620026ef601f8201601f191660200162002679565b8181528460208386010111156200270557600080fd5b816020850160208301376000918101602001919091529392505050565b600080600080608085870312156200273957600080fd5b62002744856200261b565b935062002754602086016200261b565b92506040850135915060608501356001600160401b038111156200277757600080fd5b6200278587828801620026ac565b91505092959194509250565b803580151581146200263357600080fd5b600060208284031215620027b557600080fd5b620025d98262002791565b600060208284031215620027d357600080fd5b5035919050565b600060208284031215620027ed57600080fd5b620025d9826200261b565b600080604083850312156200280c57600080fd5b62002817836200261b565b915060208301356001600160401b038111156200283357600080fd5b6200284185828601620026ac565b9150509250929050565b60006001600160401b0382111562002867576200286762002638565b5060051b60200190565b60006200288862002882846200284b565b62002679565b8381529050602080820190600585901b840186811115620028a857600080fd5b845b81811015620028e85780356001600160401b03811115620028cb5760008081fd5b620028d989828901620026ac565b855250928201928201620028aa565b505050509392505050565b600082601f8301126200290557600080fd5b620025d98383356020850162002871565b60008060008060008060c087890312156200293057600080fd5b6200293b876200261b565b95506200294b602088016200261b565b94506200295b604088016200261b565b93506200296b606088016200261b565b92506200297b608088016200261b565b915060a08701356001600160401b038111156200299757600080fd5b620029a589828a01620028f3565b9150509295509295509295565b60008083601f840112620029c557600080fd5b5081356001600160401b03811115620029dd57600080fd5b602083019150836020828501011115620029f657600080fd5b9250929050565b6000806020838503121562002a1157600080fd5b82356001600160401b0381111562002a2857600080fd5b62002a3685828601620029b2565b90969095509350505050565b6000806000806080858703121562002a5957600080fd5b62002a64856200261b565b935062002a74602086016200261b565b925062002a84604086016200261b565b915062002a94606086016200261b565b905092959194509250565b60008083601f84011262002ab257600080fd5b5081356001600160401b0381111562002aca57600080fd5b6020830191508360208260051b8501011115620029f657600080fd5b60006080828403121562002af957600080fd5b50919050565b600080600080600080600080600060a08a8c03121562002b1e57600080fd5b89356001600160401b038082111562002b3657600080fd5b62002b448d838e01620029b2565b909b50995060208c013591508082111562002b5e57600080fd5b62002b6c8d838e01620029b2565b909950975060408c013591508082111562002b8657600080fd5b62002b948d838e01620029b2565b909750955060608c013591508082111562002bae57600080fd5b62002bbc8d838e0162002a9f565b909550935060808c013591508082111562002bd657600080fd5b5062002be58c828d0162002ae6565b9150509295985092959850929598565b60005b8381101562002c1257818101518382015260200162002bf8565b50506000910152565b6000815180845262002c3581602086016020860162002bf5565b601f01601f19169290920160200192915050565b602081526000620025d9602083018462002c1b565b6000806020838503121562002c7257600080fd5b82356001600160401b0381111562002c8957600080fd5b62002a368582860162002a9f565b6000815180845260208085019450848260051b860182860160005b8581101562002ce057838303895262002ccd83835162002c1b565b9885019892509084019060010162002cb2565b5090979650505050505050565b602081526000620025d9602083018462002c97565b6020808252602c908201527f46756e6374696f6e206d7573742062652063616c6c6564207468726f7567682060408201526b19195b1959d85d1958d85b1b60a21b606082015260800190565b6020808252602c908201527f46756e6374696f6e206d7573742062652063616c6c6564207468726f7567682060408201526b6163746976652070726f787960a01b606082015260800190565b634e487b7160e01b600052603260045260246000fd5b600181811c9082168062002dc557607f821691505b60208210810362002af957634e487b7160e01b600052602260045260246000fd5b601f821115620014fa57600081815260208120601f850160051c8101602086101562002e0f5750805b601f850160051c820191505b81811015620020195782815560010162002e1b565b81516001600160401b0381111562002e4c5762002e4c62002638565b62002e648162002e5d845462002db0565b8462002de6565b602080601f83116001811462002e9c576000841562002e835750858301515b600019600386901b1c1916600185901b17855562002019565b600085815260208120601f198616915b8281101562002ecd5788860151825594840194600190910190840162002eac565b508582101562002eec5787850151600019600388901b60f8161c191681555b5050505050600190811b01905550565b60006001820162002f1d57634e487b7160e01b600052601160045260246000fd5b5060010190565b8183823760009101908152919050565b60006020828403121562002f4757600080fd5b5051919050565b81835281816020850137506000828201602090810191909152601f909101601f19169091010190565b6001600160a01b0384168152604060208201819052600090620025b3908301848662002f4e565b6001600160a01b038316815260406020820181905260009062002fc49083018462002c1b565b949350505050565b600081518084526020808501945080840160005b83811015620030075781516001600160a01b03168752958201959082019060010162002fe0565b509495945050505050565b60a0815260006200302860a08301898b62002f4e565b82810360208401526200303d81888a62002f4e565b9050828103604084015262003053818762002fcc565b6001600160a01b0395909516606084015250506080015295945050505050565b6000620025d936848462002871565b600082601f8301126200309457600080fd5b81356020620030a762002882836200284b565b828152600592831b8501820192828201919087851115620030c757600080fd5b8387015b8581101562002ce05780356001600160401b0380821115620030ed5760008081fd5b908901906080828c03601f1901811315620031085760008081fd5b620031126200264e565b6200311f8985016200261b565b81526040808501358a83015260606200313a81870162002791565b83830152928501359284841115620031525760008081fd5b83860195508e603f8701126200316a57600094508485fd5b8a86013594506200317f62002882866200284b565b85815294881b86018201948b810194508f8611156200319e5760008081fd5b958201955b85871015620031be5786358552958b0195938b0193620031a3565b90830152508752505050928401928401620030cb565b600082601f830112620031e657600080fd5b81356020620031f962002882836200284b565b82815260059290921b840181019181810190868411156200321957600080fd5b8286015b848110156200323f5762003231816200261b565b83529183019183016200321d565b509695505050505050565b6000608082360312156200325d57600080fd5b620032676200264e565b82356001600160401b03808211156200327f57600080fd5b6200328d36838701620026ac565b83526020850135915080821115620032a457600080fd5b620032b236838701620028f3565b60208401526040850135915080821115620032cc57600080fd5b620032da3683870162003082565b60408401526060850135915080821115620032f457600080fd5b506200330336828601620031d4565b60608301525092915050565b60208152600062002fc460208301848662002f4e565b6000808335601e198436030181126200333d57600080fd5b8301803591506001600160401b038211156200335857600080fd5b602001915036819003821315620029f657600080fd5b6001600160401b0383111562003388576200338862002638565b620033a08362003399835462002db0565b8362002de6565b6000601f841160018114620033d75760008515620033be5750838201355b600019600387901b1c1916600186901b17835562003434565b600083815260209020601f19861690835b828110156200340a5786850135825560209485019460019092019101620033e8565b5086821015620034285760001960f88860031b161c19848701351681555b505060018560011b0183555b5050505050565b6020808252602b908201527f496e697469616c697a61626c653a20636f6e7472616374206973206e6f74206960408201526a6e697469616c697a696e6760a81b606082015260800190565b60006020808301818452808551808352604092508286019150828160051b8701018488016000805b848110156200353a57898403603f19018652825180516001600160a01b031685528881015189860152878101511515888601526060908101516080918601829052805191860182905289019060a086019084905b80821015620035245783518352928b0192918b01916001919091019062003502565b50509689019694505091870191600101620034ae565b50919998505050505050505050565b60018060a01b038151168252600060208201516040602085015262002fc4604085018262002c1b565b600082825180855260208086019550808260051b84010181860160005b8481101562002ce057601f19868403018952620035ae83835162003549565b988401989250908301906001016200358f565b606081526000620035d6606083018662002c1b565b602083820381850152818654808452828401915060058382821b86010160008a8152858120815b858110156200369e57601f198985030187528282546200361d8162002db0565b808752600182811680156200363b5760018114620036555762003686565b60ff198416898e01528215158a1b89018d01945062003686565b8688528c8820885b848110156200367e5781548f828d01015283820191508e810190506200365d565b8a018e019550505b50998b019992965050509190910190600101620035fd565b5050508781036040890152620036b5818a62003572565b9b9a5050505050505050505050565b602081526000620025d9602083018462002fcc565b606081526000620036ee606083018662002c1b565b828103602084015262003702818662002c97565b9050828103604084015262003718818562003572565b9695505050505050565b82815260406020820152600062002fc4604083018462003549565b600082516200375181846020870162002bf5565b919091019291505056fe60806040526040516104e13803806104e1833981016040819052610022916102de565b61002e82826000610035565b50506103fb565b61003e83610061565b60008251118061004b5750805b1561005c5761005a83836100a1565b505b505050565b61006a816100cd565b6040516001600160a01b038216907fbc7cd75a20ee27fd9adebab32041f755214dbc6bffa90cc0225b39da2e5c2d3b90600090a250565b60606100c683836040518060600160405280602781526020016104ba60279139610180565b9392505050565b6001600160a01b0381163b61013f5760405162461bcd60e51b815260206004820152602d60248201527f455243313936373a206e657720696d706c656d656e746174696f6e206973206e60448201526c1bdd08184818dbdb9d1c9858dd609a1b60648201526084015b60405180910390fd5b7f360894a13ba1a3210667c828492db98dca3e2076cc3735a920a3ca505d382bbc80546001600160a01b0319166001600160a01b0392909216919091179055565b6060600080856001600160a01b03168560405161019d91906103ac565b600060405180830381855af49150503d80600081146101d8576040519150601f19603f3d011682016040523d82523d6000602084013e6101dd565b606091505b5090925090506101ef868383876101f9565b9695505050505050565b60608315610268578251600003610261576001600160a01b0385163b6102615760405162461bcd60e51b815260206004820152601d60248201527f416464726573733a2063616c6c20746f206e6f6e2d636f6e74726163740000006044820152606401610136565b5081610272565b610272838361027a565b949350505050565b81511561028a5781518083602001fd5b8060405162461bcd60e51b815260040161013691906103c8565b634e487b7160e01b600052604160045260246000fd5b60005b838110156102d55781810151838201526020016102bd565b50506000910152565b600080604083850312156102f157600080fd5b82516001600160a01b038116811461030857600080fd5b60208401519092506001600160401b038082111561032557600080fd5b818501915085601f83011261033957600080fd5b81518181111561034b5761034b6102a4565b604051601f8201601f19908116603f01168101908382118183101715610373576103736102a4565b8160405282815288602084870101111561038c57600080fd5b61039d8360208301602088016102ba565b80955050505050509250929050565b600082516103be8184602087016102ba565b9190910192915050565b60208152600082518060208401526103e78160408501602087016102ba565b601f01601f19169190910160400192915050565b60b1806104096000396000f3fe608060405236601057600e6013565b005b600e5b601f601b6021565b6058565b565b600060537f360894a13ba1a3210667c828492db98dca3e2076cc3735a920a3ca505d382bbc546001600160a01b031690565b905090565b3660008037600080366000845af43d6000803e8080156076573d6000f35b3d6000fdfea26469706673582212203269f6cd19395e6b587d43c82f2f67c69e7e9787192987882f616e2cf3b3d05f64736f6c63430008130033416464726573733a206c6f772d6c6576656c2064656c65676174652063616c6c206661696c6564360894a13ba1a3210667c828492db98dca3e2076cc3735a920a3ca505d382bbc416464726573733a206c6f772d6c6576656c2064656c65676174652063616c6c206661696c6564a2646970667358221220135ff16e01688a588352f3b39b30023226cbf844fe46fab072eae8449923225f64736f6c63430008130033",
    "linkReferences": {}
  },
  "methodIdentifiers": {
    "GATE_TOKEN_ADDRESS()": "ed267116",
    "SPACE_IMPLEMENTATION_ADDRESS()": "f21cd401",
    "SPACE_TOKEN_ADDRESS()": "683c72b6",
    "TOKEN_IMPLEMENTATION_ADDRESS()": "cfc27037",
    "USER_IMPLEMENTATION_ADDRESS()": "08bc0b4b",
    "addOwnerPermissions(string[])": "be8b5967",
    "createSpace(string,string,string,string[],(string,string[],(address,uint256,bool,uint256[])[],address[]))": "ad78faf3",
    "gatingEnabled()": "c45f396b",
    "getOwnerPermissions()": "df2cd9fe",
    "getSpaceAddressByNetworkId(string)": "96dc21e4",
    "getTokenIdByNetworkId(string)": "8a9ef426",
    "initialize(address,address,address,address,address,string[])": "6e9ea7ca",
    "onERC721Received(address,address,uint256,bytes)": "150b7a02",
    "owner()": "8da5cb5b",
    "ownerPermissions(uint256)": "b28032f9",
    "paused()": "5c975abb",
    "proxiableUUID()": "52d1902d",
    "renounceOwnership()": "715018a6",
    "setGatingEnabled(bool)": "4689cd04",
    "setPaused(bool)": "16c38b3c",
    "setSpaceToken(address)": "f6ac70b7",
    "spaceByHash(bytes32)": "3312540a",
    "tokenByHash(bytes32)": "f3aba305",
    "transferOwnership(address)": "f2fde38b",
    "updateImplementations(address,address,address,address)": "9ad622b7",
    "upgradeTo(address)": "3659cfe6",
    "upgradeToAndCall(address,bytes)": "4f1ef286"
  },
  "id": 122
}