{
  "abi": [
    {
      "inputs": [],
      "stateMutability": "nonpayable",
      "type": "constructor"
    },
    {
      "inputs": [],
      "name": "AddRoleFailed",
      "type": "error"
    },
    {
      "inputs": [],
      "name": "ChannelAlreadyRegistered",
      "type": "error"
    },
    {
      "inputs": [],
      "name": "ChannelDoesNotExist",
      "type": "error"
    },
    {
      "inputs": [],
      "name": "EntitlementAlreadyExists",
      "type": "error"
    },
    {
      "inputs": [],
      "name": "EntitlementAlreadyWhitelisted",
      "type": "error"
    },
    {
      "inputs": [],
      "name": "EntitlementModuleNotSupported",
      "type": "error"
    },
    {
      "inputs": [],
      "name": "EntitlementNotWhitelisted",
      "type": "error"
    },
    {
      "inputs": [],
      "name": "InvalidParameters",
      "type": "error"
    },
    {
      "inputs": [],
      "name": "MissingOwnerPermission",
      "type": "error"
    },
    {
      "inputs": [],
      "name": "NameLengthInvalid",
      "type": "error"
    },
    {
      "inputs": [],
      "name": "NotAllowed",
      "type": "error"
    },
    {
      "inputs": [],
      "name": "PermissionAlreadyExists",
      "type": "error"
    },
    {
      "inputs": [],
      "name": "RoleDoesNotExist",
      "type": "error"
    },
    {
      "inputs": [],
      "name": "RoleIsAssignedToEntitlement",
      "type": "error"
    },
    {
      "anonymous": false,
      "inputs": [
        {
          "indexed": false,
          "internalType": "address",
          "name": "previousAdmin",
          "type": "address"
        },
        {
          "indexed": false,
          "internalType": "address",
          "name": "newAdmin",
          "type": "address"
        }
      ],
      "name": "AdminChanged",
      "type": "event"
    },
    {
      "anonymous": false,
      "inputs": [
        {
          "indexed": true,
          "internalType": "address",
          "name": "beacon",
          "type": "address"
        }
      ],
      "name": "BeaconUpgraded",
      "type": "event"
    },
    {
      "anonymous": false,
      "inputs": [
        {
          "indexed": false,
          "internalType": "string",
          "name": "prevURI",
          "type": "string"
        },
        {
          "indexed": false,
          "internalType": "string",
          "name": "newURI",
          "type": "string"
        }
      ],
      "name": "ContractURIUpdated",
      "type": "event"
    },
    {
      "anonymous": false,
      "inputs": [
        {
          "indexed": false,
          "internalType": "uint8",
          "name": "version",
          "type": "uint8"
        }
      ],
      "name": "Initialized",
      "type": "event"
    },
    {
      "anonymous": false,
      "inputs": [
        {
          "indexed": true,
          "internalType": "address",
          "name": "implementation",
          "type": "address"
        }
      ],
      "name": "Upgraded",
      "type": "event"
    },
    {
      "inputs": [],
      "name": "MODULE_TYPE",
      "outputs": [
        {
          "internalType": "string",
          "name": "",
          "type": "string"
        }
      ],
      "stateMutability": "view",
      "type": "function"
    },
    {
      "inputs": [],
      "name": "MODULE_VERSION",
      "outputs": [
        {
          "internalType": "uint48",
          "name": "",
          "type": "uint48"
        }
      ],
      "stateMutability": "view",
      "type": "function"
    },
    {
      "inputs": [
        {
          "internalType": "uint256",
          "name": "_roleId",
          "type": "uint256"
        },
        {
          "internalType": "string[]",
          "name": "_permissions",
          "type": "string[]"
        }
      ],
      "name": "addPermissionsToRole",
      "outputs": [],
      "stateMutability": "nonpayable",
      "type": "function"
    },
    {
      "inputs": [
        {
          "internalType": "string",
          "name": "_channelNetworkId",
          "type": "string"
        },
        {
          "internalType": "address",
          "name": "_entitlement",
          "type": "address"
        },
        {
          "internalType": "uint256",
          "name": "_roleId",
          "type": "uint256"
        }
      ],
      "name": "addRoleToChannel",
      "outputs": [],
      "stateMutability": "nonpayable",
      "type": "function"
    },
    {
      "inputs": [
        {
          "internalType": "uint256",
          "name": "_roleId",
          "type": "uint256"
        },
        {
          "components": [
            {
              "internalType": "address",
              "name": "module",
              "type": "address"
            },
            {
              "internalType": "bytes",
              "name": "data",
              "type": "bytes"
            }
          ],
          "internalType": "struct DataTypes.Entitlement",
          "name": "_entitlement",
          "type": "tuple"
        }
      ],
      "name": "addRoleToEntitlement",
      "outputs": [],
      "stateMutability": "nonpayable",
      "type": "function"
    },
    {
      "inputs": [
        {
          "internalType": "uint256",
          "name": "",
          "type": "uint256"
        }
      ],
      "name": "channels",
      "outputs": [
        {
          "internalType": "bytes32",
          "name": "",
          "type": "bytes32"
        }
      ],
      "stateMutability": "view",
      "type": "function"
    },
    {
      "inputs": [
        {
          "internalType": "bytes32",
          "name": "",
          "type": "bytes32"
        }
      ],
      "name": "channelsByHash",
      "outputs": [
        {
          "internalType": "string",
          "name": "name",
          "type": "string"
        },
        {
          "internalType": "string",
          "name": "channelNetworkId",
          "type": "string"
        },
        {
          "internalType": "bytes32",
          "name": "channelHash",
          "type": "bytes32"
        },
        {
          "internalType": "uint256",
          "name": "createdAt",
          "type": "uint256"
        },
        {
          "internalType": "bool",
          "name": "disabled",
          "type": "bool"
        }
      ],
      "stateMutability": "view",
      "type": "function"
    },
    {
      "inputs": [],
      "name": "contractURI",
      "outputs": [
        {
          "internalType": "string",
          "name": "",
          "type": "string"
        }
      ],
      "stateMutability": "view",
      "type": "function"
    },
    {
      "inputs": [
        {
          "internalType": "string",
          "name": "channelName",
          "type": "string"
        },
        {
          "internalType": "string",
          "name": "channelNetworkId",
          "type": "string"
        },
        {
          "internalType": "uint256[]",
          "name": "roleIds",
          "type": "uint256[]"
        }
      ],
      "name": "createChannel",
      "outputs": [
        {
          "internalType": "bytes32",
          "name": "",
          "type": "bytes32"
        }
      ],
      "stateMutability": "nonpayable",
      "type": "function"
    },
    {
      "inputs": [
        {
          "internalType": "string",
          "name": "_roleName",
          "type": "string"
        },
        {
          "internalType": "string[]",
          "name": "_permissions",
          "type": "string[]"
        },
        {
          "components": [
            {
              "internalType": "address",
              "name": "module",
              "type": "address"
            },
            {
              "internalType": "bytes",
              "name": "data",
              "type": "bytes"
            }
          ],
          "internalType": "struct DataTypes.Entitlement[]",
          "name": "_entitlements",
          "type": "tuple[]"
        }
      ],
      "name": "createRole",
      "outputs": [
        {
          "internalType": "uint256",
          "name": "",
          "type": "uint256"
        }
      ],
      "stateMutability": "nonpayable",
      "type": "function"
    },
    {
      "inputs": [
        {
          "internalType": "address",
          "name": "",
          "type": "address"
        }
      ],
      "name": "defaultEntitlements",
      "outputs": [
        {
          "internalType": "bool",
          "name": "",
          "type": "bool"
        }
      ],
      "stateMutability": "view",
      "type": "function"
    },
    {
      "inputs": [],
      "name": "disabled",
      "outputs": [
        {
          "internalType": "bool",
          "name": "",
          "type": "bool"
        }
      ],
      "stateMutability": "view",
      "type": "function"
    },
    {
      "inputs": [
        {
          "internalType": "uint256",
          "name": "",
          "type": "uint256"
        }
      ],
      "name": "entitlements",
      "outputs": [
        {
          "internalType": "address",
          "name": "",
          "type": "address"
        }
      ],
      "stateMutability": "view",
      "type": "function"
    },
    {
      "inputs": [
        {
          "internalType": "bytes32",
          "name": "_channelHash",
          "type": "bytes32"
        }
      ],
      "name": "getChannelByHash",
      "outputs": [
        {
          "components": [
            {
              "internalType": "string",
              "name": "name",
              "type": "string"
            },
            {
              "internalType": "string",
              "name": "channelNetworkId",
              "type": "string"
            },
            {
              "internalType": "bytes32",
              "name": "channelHash",
              "type": "bytes32"
            },
            {
              "internalType": "uint256",
              "name": "createdAt",
              "type": "uint256"
            },
            {
              "internalType": "bool",
              "name": "disabled",
              "type": "bool"
            }
          ],
          "internalType": "struct DataTypes.Channel",
          "name": "",
          "type": "tuple"
        }
      ],
      "stateMutability": "view",
      "type": "function"
    },
    {
      "inputs": [],
      "name": "getChannels",
      "outputs": [
        {
          "internalType": "bytes32[]",
          "name": "",
          "type": "bytes32[]"
        }
      ],
      "stateMutability": "view",
      "type": "function"
    },
    {
      "inputs": [
        {
          "internalType": "string",
          "name": "_moduleType",
          "type": "string"
        }
      ],
      "name": "getEntitlementByModuleType",
      "outputs": [
        {
          "internalType": "address",
          "name": "",
          "type": "address"
        }
      ],
      "stateMutability": "view",
      "type": "function"
    },
    {
      "inputs": [
        {
          "internalType": "uint256",
          "name": "_roleId",
          "type": "uint256"
        }
      ],
      "name": "getEntitlementIdsByRoleId",
      "outputs": [
        {
          "internalType": "bytes32[]",
          "name": "",
          "type": "bytes32[]"
        }
      ],
      "stateMutability": "view",
      "type": "function"
    },
    {
      "inputs": [],
      "name": "getEntitlementModules",
      "outputs": [
        {
          "components": [
            {
              "internalType": "string",
              "name": "name",
              "type": "string"
            },
            {
              "internalType": "address",
              "name": "moduleAddress",
              "type": "address"
            },
            {
              "internalType": "string",
              "name": "moduleType",
              "type": "string"
            },
            {
              "internalType": "bool",
              "name": "enabled",
              "type": "bool"
            }
          ],
          "internalType": "struct DataTypes.EntitlementModule[]",
          "name": "_entitlementModules",
          "type": "tuple[]"
        }
      ],
      "stateMutability": "view",
      "type": "function"
    },
    {
      "inputs": [
        {
          "internalType": "uint256",
          "name": "_roleId",
          "type": "uint256"
        }
      ],
      "name": "getPermissionsByRoleId",
      "outputs": [
        {
          "internalType": "string[]",
          "name": "",
          "type": "string[]"
        }
      ],
      "stateMutability": "view",
      "type": "function"
    },
    {
      "inputs": [
        {
          "internalType": "uint256",
          "name": "_roleId",
          "type": "uint256"
        }
      ],
      "name": "getRoleById",
      "outputs": [
        {
          "components": [
            {
              "internalType": "uint256",
              "name": "roleId",
              "type": "uint256"
            },
            {
              "internalType": "string",
              "name": "name",
              "type": "string"
            }
          ],
          "internalType": "struct DataTypes.Role",
          "name": "",
          "type": "tuple"
        }
      ],
      "stateMutability": "view",
      "type": "function"
    },
    {
      "inputs": [],
      "name": "getRoles",
      "outputs": [
        {
          "components": [
            {
              "internalType": "uint256",
              "name": "roleId",
              "type": "uint256"
            },
            {
              "internalType": "string",
              "name": "name",
              "type": "string"
            }
          ],
          "internalType": "struct DataTypes.Role[]",
          "name": "",
          "type": "tuple[]"
        }
      ],
      "stateMutability": "view",
      "type": "function"
    },
    {
      "inputs": [
        {
          "internalType": "address",
          "name": "",
          "type": "address"
        }
      ],
      "name": "hasEntitlement",
      "outputs": [
        {
          "internalType": "bool",
          "name": "",
          "type": "bool"
        }
      ],
      "stateMutability": "view",
      "type": "function"
    },
    {
      "inputs": [
        {
          "internalType": "string",
          "name": "_name",
          "type": "string"
        },
        {
          "internalType": "string",
          "name": "_networkId",
          "type": "string"
        },
        {
          "internalType": "address[]",
          "name": "_entitlements",
          "type": "address[]"
        },
        {
          "internalType": "address",
          "name": "_token",
          "type": "address"
        },
        {
          "internalType": "uint256",
          "name": "_tokenId",
          "type": "uint256"
        }
      ],
      "name": "initialize",
      "outputs": [],
      "stateMutability": "nonpayable",
      "type": "function"
    },
    {
      "inputs": [
        {
          "internalType": "string",
          "name": "_channelNetworkId",
          "type": "string"
        },
        {
          "internalType": "address",
          "name": "_user",
          "type": "address"
        },
        {
          "internalType": "string",
          "name": "_permission",
          "type": "string"
        }
      ],
      "name": "isEntitledToChannel",
      "outputs": [
        {
          "internalType": "bool",
          "name": "_entitled",
          "type": "bool"
        }
      ],
      "stateMutability": "view",
      "type": "function"
    },
    {
      "inputs": [
        {
          "internalType": "address",
          "name": "_user",
          "type": "address"
        },
        {
          "internalType": "string",
          "name": "_permission",
          "type": "string"
        }
      ],
      "name": "isEntitledToSpace",
      "outputs": [
        {
          "internalType": "bool",
          "name": "_entitled",
          "type": "bool"
        }
      ],
      "stateMutability": "view",
      "type": "function"
    },
    {
      "inputs": [
        {
          "internalType": "bytes[]",
          "name": "data",
          "type": "bytes[]"
        }
      ],
      "name": "multicall",
      "outputs": [
        {
          "internalType": "bytes[]",
          "name": "results",
          "type": "bytes[]"
        }
      ],
      "stateMutability": "nonpayable",
      "type": "function"
    },
    {
      "inputs": [],
      "name": "name",
      "outputs": [
        {
          "internalType": "string",
          "name": "",
          "type": "string"
        }
      ],
      "stateMutability": "view",
      "type": "function"
    },
    {
      "inputs": [],
      "name": "networkId",
      "outputs": [
        {
          "internalType": "string",
          "name": "",
          "type": "string"
        }
      ],
      "stateMutability": "view",
      "type": "function"
    },
    {
      "inputs": [],
      "name": "owner",
      "outputs": [
        {
          "internalType": "address",
          "name": "",
          "type": "address"
        }
      ],
      "stateMutability": "view",
      "type": "function"
    },
    {
      "inputs": [],
      "name": "ownerRoleId",
      "outputs": [
        {
          "internalType": "uint256",
          "name": "",
          "type": "uint256"
        }
      ],
      "stateMutability": "view",
      "type": "function"
    },
    {
      "inputs": [],
      "name": "proxiableUUID",
      "outputs": [
        {
          "internalType": "bytes32",
          "name": "",
          "type": "bytes32"
        }
      ],
      "stateMutability": "view",
      "type": "function"
    },
    {
      "inputs": [
        {
          "internalType": "uint256",
          "name": "_roleId",
          "type": "uint256"
        },
        {
          "internalType": "string[]",
          "name": "_permissions",
          "type": "string[]"
        }
      ],
      "name": "removePermissionsFromRole",
      "outputs": [],
      "stateMutability": "nonpayable",
      "type": "function"
    },
    {
      "inputs": [
        {
          "internalType": "uint256",
          "name": "_roleId",
          "type": "uint256"
        }
      ],
      "name": "removeRole",
      "outputs": [],
      "stateMutability": "nonpayable",
      "type": "function"
    },
    {
      "inputs": [
        {
          "internalType": "string",
          "name": "_channelNetworkId",
          "type": "string"
        },
        {
          "internalType": "address",
          "name": "_entitlement",
          "type": "address"
        },
        {
          "internalType": "uint256",
          "name": "_roleId",
          "type": "uint256"
        }
      ],
      "name": "removeRoleFromChannel",
      "outputs": [],
      "stateMutability": "nonpayable",
      "type": "function"
    },
    {
      "inputs": [
        {
          "internalType": "uint256",
          "name": "_roleId",
          "type": "uint256"
        },
        {
          "components": [
            {
              "internalType": "address",
              "name": "module",
              "type": "address"
            },
            {
              "internalType": "bytes",
              "name": "data",
              "type": "bytes"
            }
          ],
          "internalType": "struct DataTypes.Entitlement",
          "name": "_entitlement",
          "type": "tuple"
        }
      ],
      "name": "removeRoleFromEntitlement",
      "outputs": [],
      "stateMutability": "nonpayable",
      "type": "function"
    },
    {
      "inputs": [],
      "name": "roleCount",
      "outputs": [
        {
          "internalType": "uint256",
          "name": "",
          "type": "uint256"
        }
      ],
      "stateMutability": "view",
      "type": "function"
    },
    {
      "inputs": [
        {
          "internalType": "uint256",
          "name": "",
          "type": "uint256"
        }
      ],
      "name": "rolesById",
      "outputs": [
        {
          "internalType": "uint256",
          "name": "roleId",
          "type": "uint256"
        },
        {
          "internalType": "string",
          "name": "name",
          "type": "string"
        }
      ],
      "stateMutability": "view",
      "type": "function"
    },
    {
      "inputs": [
        {
          "internalType": "string",
          "name": "channelNetworkId",
          "type": "string"
        },
        {
          "internalType": "bool",
          "name": "disableChannel",
          "type": "bool"
        }
      ],
      "name": "setChannelAccess",
      "outputs": [],
      "stateMutability": "nonpayable",
      "type": "function"
    },
    {
      "inputs": [
        {
          "internalType": "string",
          "name": "_uri",
          "type": "string"
        }
      ],
      "name": "setContractURI",
      "outputs": [],
      "stateMutability": "nonpayable",
      "type": "function"
    },
    {
      "inputs": [
        {
          "internalType": "address",
          "name": "_entitlementModule",
          "type": "address"
        },
        {
          "internalType": "bool",
          "name": "_whitelist",
          "type": "bool"
        }
      ],
      "name": "setEntitlementModule",
      "outputs": [],
      "stateMutability": "nonpayable",
      "type": "function"
    },
    {
      "inputs": [
        {
          "internalType": "uint256",
          "name": "_roleId",
          "type": "uint256"
        }
      ],
      "name": "setOwnerRoleId",
      "outputs": [],
      "stateMutability": "nonpayable",
      "type": "function"
    },
    {
      "inputs": [
        {
          "internalType": "bool",
          "name": "_disabled",
          "type": "bool"
        }
      ],
      "name": "setSpaceAccess",
      "outputs": [],
      "stateMutability": "nonpayable",
      "type": "function"
    },
    {
      "inputs": [],
      "name": "token",
      "outputs": [
        {
          "internalType": "address",
          "name": "",
          "type": "address"
        }
      ],
      "stateMutability": "view",
      "type": "function"
    },
    {
      "inputs": [],
      "name": "tokenId",
      "outputs": [
        {
          "internalType": "uint256",
          "name": "",
          "type": "uint256"
        }
      ],
      "stateMutability": "view",
      "type": "function"
    },
    {
      "inputs": [
        {
          "internalType": "string",
          "name": "channelNetworkId",
          "type": "string"
        },
        {
          "internalType": "string",
          "name": "channelName",
          "type": "string"
        }
      ],
      "name": "updateChannel",
      "outputs": [],
      "stateMutability": "nonpayable",
      "type": "function"
    },
    {
      "inputs": [
        {
          "internalType": "uint256",
          "name": "_roleId",
          "type": "uint256"
        },
        {
          "internalType": "string",
          "name": "_roleName",
          "type": "string"
        }
      ],
      "name": "updateRole",
      "outputs": [],
      "stateMutability": "nonpayable",
      "type": "function"
    },
    {
      "inputs": [
        {
          "internalType": "address",
          "name": "_entitlement",
          "type": "address"
        },
        {
          "internalType": "address",
          "name": "_newEntitlement",
          "type": "address"
        }
      ],
      "name": "upgradeEntitlement",
      "outputs": [],
      "stateMutability": "nonpayable",
      "type": "function"
    },
    {
      "inputs": [
        {
          "internalType": "address",
          "name": "newImplementation",
          "type": "address"
        }
      ],
      "name": "upgradeTo",
      "outputs": [],
      "stateMutability": "nonpayable",
      "type": "function"
    },
    {
      "inputs": [
        {
          "internalType": "address",
          "name": "newImplementation",
          "type": "address"
        },
        {
          "internalType": "bytes",
          "name": "data",
          "type": "bytes"
        }
      ],
      "name": "upgradeToAndCall",
      "outputs": [],
      "stateMutability": "payable",
      "type": "function"
    }
  ],
  "bytecode": {
    "object": "0x60a0604052306080523480156200001557600080fd5b506200002062000026565b620000e8565b600054610100900460ff1615620000935760405162461bcd60e51b815260206004820152602760248201527f496e697469616c697a61626c653a20636f6e747261637420697320696e697469604482015266616c697a696e6760c81b606482015260840160405180910390fd5b60005460ff9081161015620000e6576000805460ff191660ff9081179091556040519081527f7f26b83ff96e1f2b6a682f133852f6798a09c465da95921460cefb38474024989060200160405180910390a15b565b60805161553e620001206000396000818161111c01528181611165015281816114b6015281816114f60152611a3f015261553e6000f3fe6080604052600436106102ae5760003560e01c8063870b946411610175578063baaf3d57116100dc578063e5949b5d11610095578063f28f9b561161006f578063f28f9b56146108bf578063f3ce6a5b146108df578063fa6433c5146108ff578063fc0c546a1461092f57600080fd5b8063e5949b5d14610870578063e8a3d48514610890578063ee070805146108a557600080fd5b8063baaf3d57146107b6578063cea632bc146107d6578063d1a6a961146107f6578063dba818641461080c578063ddf963581461082c578063e5894ef41461084257600080fd5b80639575f6ac1161012e5780639575f6ac146106e75780639a8e4c3e146106fc578063ac9650d81461071c578063b426423314610749578063b751576114610776578063ba201ba81461079657600080fd5b8063870b9464146106255780638da5cb5b1461065d5780638fcd793d146106725780639025e64c1461069257806392691821146106a7578063938e3d7b146106c757600080fd5b80634999ab16116102195780635de151b8116101d25780635de151b81461052d578063703511f81461054d578063710613981461057a578063784c872b1461059c5780637f8d06d0146105c957806381ed9808146105f957600080fd5b80634999ab16146104745780634f1ef28614610494578063519607f2146104a757806351f83cea146104c757806352d1902d146104e75780635775029f146104fc57600080fd5b806332e704cc1161026b57806332e704cc146103a757806334a1dd26146103c75780633659cfe6146103e757806342486e4914610407578063441555e514610434578063446dc22e1461045457600080fd5b806306fdde03146102b35780630d029f75146102de578063129ab3c81461030057806317d70f7c146103315780631dea616a1461035557806320759f9e14610377575b600080fd5b3480156102bf57600080fd5b506102c861094f565b6040516102d5919061413f565b60405180910390f35b3480156102ea57600080fd5b506102f36109dd565b6040516102d59190614152565b34801561030c57600080fd5b5061032061031b3660046141fb565b610c1e565b6040516102d5959493929190614214565b34801561033d57600080fd5b50610347609d5481565b6040519081526020016102d5565b34801561036157600080fd5b506103756103703660046142c6565b610d61565b005b34801561038357600080fd5b50610397610392366004614322565b610e98565b60405190151581526020016102d5565b3480156103b357600080fd5b506103756103c2366004614439565b610f0e565b3480156103d357600080fd5b506103756103e236600461447f565b611010565b3480156103f357600080fd5b506103756104023660046144ea565b611112565b34801561041357600080fd5b506104276104223660046141fb565b6111fa565b6040516102d59190614507565b34801561044057600080fd5b5061037561044f366004614559565b61125c565b34801561046057600080fd5b5061037561046f366004614592565b611330565b34801561048057600080fd5b5061037561048f3660046141fb565b611368565b6103756104a23660046145af565b6114ac565b3480156104b357600080fd5b506103756104c23660046145e8565b611578565b3480156104d357600080fd5b506103476104e2366004614639565b611693565b3480156104f357600080fd5b50610347611a32565b34801561050857600080fd5b506102c860405180604001604052806005815260200164537061636560d81b81525081565b34801561053957600080fd5b5061037561054836600461471a565b611ae5565b34801561055957600080fd5b5061056d6105683660046141fb565b611bab565b6040516102d59190614770565b34801561058657600080fd5b5061058f611d3c565b6040516102d591906147fd565b3480156105a857600080fd5b506105bc6105b73660046141fb565b611eaa565b6040516102d5919061485f565b3480156105d557600080fd5b506103976105e43660046144ea565b609e6020526000908152604090205460ff1681565b34801561060557600080fd5b5061060e600181565b60405165ffffffffffff90911681526020016102d5565b34801561063157600080fd5b50610645610640366004614872565b611f80565b6040516001600160a01b0390911681526020016102d5565b34801561066957600080fd5b50610645612069565b34801561067e57600080fd5b5061034761068d3660046149a9565b6120e0565b34801561069e57600080fd5b506102c8612413565b3480156106b357600080fd5b506103756106c23660046141fb565b612420565b3480156106d357600080fd5b506103756106e2366004614aa4565b61255f565b3480156106f357600080fd5b506104276125f2565b34801561070857600080fd5b50610375610717366004614ae5565b61264a565b34801561072857600080fd5b5061073c610737366004614b21565b61285f565b6040516102d59190614b95565b34801561075557600080fd5b506107696107643660046141fb565b612976565b6040516102d59190614bea565b34801561078257600080fd5b50610375610791366004614ae5565b612abb565b3480156107a257600080fd5b506103756107b1366004614c3f565b612c5b565b3480156107c257600080fd5b506103756107d13660046142c6565b612d3c565b3480156107e257600080fd5b506103976107f1366004614c7b565b612e3b565b34801561080257600080fd5b50610347609b5481565b34801561081857600080fd5b50610375610827366004614cff565b612f8d565b34801561083857600080fd5b5061034760a25481565b34801561084e57600080fd5b5061086261085d3660046141fb565b6131fe565b6040516102d5929190614d41565b34801561087c57600080fd5b5061034761088b3660046141fb565b6132a3565b34801561089c57600080fd5b506102c86132c4565b3480156108b157600080fd5b50609a546103979060ff1681565b3480156108cb57600080fd5b506106456108da3660046141fb565b6132d1565b3480156108eb57600080fd5b506103756108fa366004614d5a565b6132fb565b34801561090b57600080fd5b5061039761091a3660046144ea565b609f6020526000908152604090205460ff1681565b34801561093b57600080fd5b50609c54610645906001600160a01b031681565b6098805461095c90614e59565b80601f016020809104026020016040519081016040528092919081815260200182805461098890614e59565b80156109d55780601f106109aa576101008083540402835291602001916109d5565b820191906000526020600020905b8154815290600101906020018083116109b857829003601f168201915b505050505081565b60a1546060906001600160401b038111156109fa576109fa614376565b604051908082528060200260200182016040528015610a4d57816020015b60408051608081018252606080825260006020808401829052938301829052908201528252600019909201910181610a185790505b50905060005b60a154811015610c1a57600060a18281548110610a7257610a72614e8d565b600091825260208220015460408051608081018083526306fdde0360e01b905290516001600160a01b03909216935091829184916306fdde039160848086019291908187030181865afa158015610acd573d6000803e3d6000fd5b505050506040513d6000823e601f3d908101601f19168201604052610af59190810190614ea3565b815260200160a18481548110610b0d57610b0d614e8d565b9060005260206000200160009054906101000a90046001600160a01b03166001600160a01b03168152602001826001600160a01b0316636465e69f6040518163ffffffff1660e01b8152600401600060405180830381865afa158015610b77573d6000803e3d6000fd5b505050506040513d6000823e601f3d908101601f19168201604052610b9f9190810190614ea3565b8152602001609e600060a18681548110610bbb57610bbb614e8d565b60009182526020808320909101546001600160a01b0316835282019290925260400190205460ff16151590528351849084908110610bfb57610bfb614e8d565b6020026020010181905250508080610c1290614f26565b915050610a53565b5090565b60a560205260009081526040902080548190610c3990614e59565b80601f0160208091040260200160405190810160405280929190818152602001828054610c6590614e59565b8015610cb25780601f10610c8757610100808354040283529160200191610cb2565b820191906000526020600020905b815481529060010190602001808311610c9557829003601f168201915b505050505090806001018054610cc790614e59565b80601f0160208091040260200160405190810160405280929190818152602001828054610cf390614e59565b8015610d405780601f10610d1557610100808354040283529160200191610d40565b820191906000526020600020905b815481529060010190602001808311610d2357829003601f168201915b50505050600283015460038401546004909401549293909290915060ff1685565b610dc984848080601f0160208091040260200160405190810160405280939291908181526020018383808284376000920191909152505060408051808201909152601181527041646452656d6f76654368616e6e656c7360781b602082015291506134df9050565b6001600160a01b0382166000908152609e602052604090205460ff16610e025760405163c1ef36f360e01b815260040160405180910390fd5b600081815260a360205260408120549003610e305760405163b810dc5d60e01b815260040160405180910390fd5b60405163c513be7760e01b81526001600160a01b0383169063c513be7790610e6090879087908690600401614f68565b600060405180830381600087803b158015610e7a57600080fd5b505af1158015610e8e573d6000803e3d6000fd5b5050505050505050565b6000805b60a154811015610f0657610eea60405180602001604052806000815250868686604051602001610ecd929190614f8c565b604051602081830303815290604052610ee590614f9c565b613533565b15610ef457600191505b80610efe81614f26565b915050610e9c565b509392505050565b610f5260405180602001604052806000815250604051806040016040528060138152602001724d6f64696679537061636553657474696e677360681b8152506134df565b610f5b816135ec565b609b548203610f7d57604051631eb49d6d60e11b815260040160405180910390fd5b600082815260a360205260408120549003610fab5760405163b810dc5d60e01b815260040160405180910390fd5b600082815260a360205260409020600101610fc68282615006565b5081336001600160a01b03167ff3c55faf0b13ffa681c984baddbb8ef7638e514188ea19bd6461d7f87b9c7953836099604051611004929190615142565b60405180910390a35050565b611052604051806020016040528060008152506040518060400160405280601181526020017041646452656d6f76654368616e6e656c7360781b8152506134df565b61109182828080601f0160208091040260200160405190810160405280939291908181526020018383808284376000920191909152506135ec92505050565b600084846040516020016110a6929190614f8c565b60408051601f198184030181529181528151602092830120600081815260a59093529082206002015490925090036110f157604051636ddd9da960e01b815260040160405180910390fd5b600081815260a56020526040902061110a838583615167565b505050505050565b6001600160a01b037f00000000000000000000000000000000000000000000000000000000000000001630036111635760405162461bcd60e51b815260040161115a90615226565b60405180910390fd5b7f00000000000000000000000000000000000000000000000000000000000000006001600160a01b03166111ac6000805160206154c2833981519152546001600160a01b031690565b6001600160a01b0316146111d25760405162461bcd60e51b815260040161115a90615272565b6111db8161361d565b604080516000808252602082019092526111f791839190613653565b50565b600081815260a0602090815260409182902080548351818402810184019094528084526060939283018282801561125057602002820191906000526020600020905b81548152602001906001019080831161123c575b50505050509050919050565b611292604051806020016040528060008152506040518060400160405280600581526020016427bbb732b960d91b8152506134df565b61129b826137be565b8080156112c057506001600160a01b0382166000908152609e602052604090205460ff165b156112de5760405163186abc9b60e01b815260040160405180910390fd5b8015801561130457506001600160a01b0382166000908152609f602052604090205460ff165b1561132257604051631eb49d6d60e11b815260040160405180910390fd5b61132c828261384f565b5050565b6113386139d0565b61135557604051631eb49d6d60e11b815260040160405180910390fd5b609a805460ff1916911515919091179055565b6113706139d0565b61138d57604051631eb49d6d60e11b815260040160405180910390fd5b609b54156113ae57604051631eb49d6d60e11b815260040160405180910390fd5b600081815260a3602052604081205490036113dc5760405163b810dc5d60e01b815260040160405180910390fd5b6000805b600083815260a46020526040902054811015611487576040518060400160405280600581526020016427bbb732b960d91b81525060405160200161142491906152be565b60405160208183030381529060405261143c90614f9c565b600084815260a46020526040902080548390811061145c5761145c614e8d565b9060005260206000200154036114755760019150611487565b8061147f81614f26565b9150506113e0565b50806114a657604051633e74bd6360e21b815260040160405180910390fd5b50609b55565b6001600160a01b037f00000000000000000000000000000000000000000000000000000000000000001630036114f45760405162461bcd60e51b815260040161115a90615226565b7f00000000000000000000000000000000000000000000000000000000000000006001600160a01b031661153d6000805160206154c2833981519152546001600160a01b031690565b6001600160a01b0316146115635760405162461bcd60e51b815260040161115a90615272565b61156c8261361d565b61132c82826001613653565b6115ae604051806020016040528060008152506040518060400160405280600581526020016427bbb732b960d91b8152506134df565b6001600160a01b03821615806115cb57506001600160a01b038116155b156115e957604051630e52390960e41b815260040160405180910390fd5b6001600160a01b0382166000908152609e602052604090205460ff166116225760405163c1ef36f360e01b815260040160405180910390fd5b604051631b2ce7f360e11b81526001600160a01b038281166004830152831690633659cfe690602401600060405180830381600087803b15801561166557600080fd5b505af1925050508015611676575060015b61132c57604051630e52390960e41b815260040160405180910390fd5b60006116d7604051806020016040528060008152506040518060400160405280601181526020017041646452656d6f76654368616e6e656c7360781b8152506134df565b61171685858080601f0160208091040260200160405190810160405280939291908181526020018383808284376000920191909152506135ec92505050565b60008360405160200161172991906152be565b60408051601f198184030181529181528151602092830120600081815260a59093529120600201549091501561177257604051630139324b60e41b815260040160405180910390fd5b6040518060a0016040528087878080601f016020809104026020016040519081016040528093929190818152602001838380828437600092018290525093855250505060208083018890526040808401869052426060850152608090930182905284825260a5905220815181906117e99082615006565b50602082015160018201906117fe9082615006565b5060408201516002820155606082015160038201556080909101516004909101805460ff191691151591909117905560a6805460018101825560009182527f2da56674729343acc9933752c8c469a244252915242eb6d4c02d11ddd69164a1018290555b60a154811015611a2857600060a1828154811061188157611881614e8d565b600091825260209091200154609b5460405163c513be7760e01b81526001600160a01b039092169250829163c513be77916118c1918a91906004016152da565b600060405180830381600087803b1580156118db57600080fd5b505af11580156118ef573d6000803e3d6000fd5b5050505060005b8551811015611a1357609b5486828151811061191457611914614e8d565b60200260200101510315611a015760a3600087838151811061193857611938614e8d565b60200260200101518152602001908152602001600020600001546000036119725760405163b810dc5d60e01b815260040160405180910390fd5b816001600160a01b031663c513be778888848151811061199457611994614e8d565b60200260200101516040518363ffffffff1660e01b81526004016119b99291906152da565b600060405180830381600087803b1580156119d357600080fd5b505af19250505080156119e4575060015b611a015760405163d9afe50760e01b815260040160405180910390fd5b80611a0b81614f26565b9150506118f6565b50508080611a2090614f26565b915050611862565b5095945050505050565b6000306001600160a01b037f00000000000000000000000000000000000000000000000000000000000000001614611ad25760405162461bcd60e51b815260206004820152603860248201527f555550535570677261646561626c653a206d757374206e6f742062652063616c60448201527f6c6564207468726f7567682064656c656761746563616c6c0000000000000000606482015260840161115a565b506000805160206154c283398151915290565b611b27604051806020016040528060008152506040518060400160405280601181526020017041646452656d6f76654368616e6e656c7360781b8152506134df565b60008383604051602001611b3c929190614f8c565b60408051601f198184030181529181528151602092830120600081815260a5909352908220600201549092509003611b8757604051636ddd9da960e01b815260040160405180910390fd5b600090815260a560205260409020600401805460ff19169115159190911790555050565b6040805160a081018252606080825260208201819052600092820183905281018290526080810191909152600082815260a5602052604090819020815160a08101909252805482908290611bfe90614e59565b80601f0160208091040260200160405190810160405280929190818152602001828054611c2a90614e59565b8015611c775780601f10611c4c57610100808354040283529160200191611c77565b820191906000526020600020905b815481529060010190602001808311611c5a57829003601f168201915b50505050508152602001600182018054611c9090614e59565b80601f0160208091040260200160405190810160405280929190818152602001828054611cbc90614e59565b8015611d095780601f10611cde57610100808354040283529160200191611d09565b820191906000526020600020905b815481529060010190602001808311611cec57829003601f168201915b5050509183525050600282015460208201526003820154604082015260049091015460ff16151560609091015292915050565b6060600060a2546001600160401b03811115611d5a57611d5a614376565b604051908082528060200260200182016040528015611da057816020015b604080518082019091526000815260606020820152815260200190600190039081611d785790505b50905060005b60a254811015611ea45760a36000611dbf8360016152fc565b815260200190815260200160002060405180604001604052908160008201548152602001600182018054611df290614e59565b80601f0160208091040260200160405190810160405280929190818152602001828054611e1e90614e59565b8015611e6b5780601f10611e4057610100808354040283529160200191611e6b565b820191906000526020600020905b815481529060010190602001808311611e4e57829003601f168201915b505050505081525050828281518110611e8657611e86614e8d565b60200260200101819052508080611e9c90614f26565b915050611da6565b50919050565b60408051808201909152600081526060602082015260a3600083815260200190815260200160002060405180604001604052908160008201548152602001600182018054611ef790614e59565b80601f0160208091040260200160405190810160405280929190818152602001828054611f2390614e59565b8015611f705780601f10611f4557610100808354040283529160200191611f70565b820191906000526020600020905b815481529060010190602001808311611f5357829003601f168201915b5050505050815250509050919050565b60008060005b60a1548110156120625761202060a18281548110611fa657611fa6614e8d565b600091825260208220015460408051636465e69f60e01b815290516001600160a01b0390921692636465e69f926004808401938290030181865afa158015611ff2573d6000803e3d6000fd5b505050506040513d6000823e601f3d908101601f1916820160405261201a9190810190614ea3565b85613a57565b156120505760a1818154811061203857612038614e8d565b6000918252602090912001546001600160a01b031691505b8061205a81614f26565b915050611f86565b5092915050565b609c54609d546040516331a9108f60e11b815260048101919091526000916001600160a01b031690636352211e90602401602060405180830381865afa1580156120b7573d6000803e3d6000fd5b505050506040513d601f19601f820116820180604052508101906120db919061530f565b905090565b600061212660405180602001604052806000815250604051806040016040528060138152602001724d6f64696679537061636553657474696e677360681b8152506134df565b61216585858080601f0160208091040260200160405190810160405280939291908181526020018383808284376000920191909152506135ec92505050565b600060a26000815461217690614f26565b91905081905590506000604051806040016040528083815260200188888080601f016020809104026020016040519081016040528093929190818152602001838380828437600092018290525093909452505084815260a3602090815260409091208351815590830151929350839290915060018201906121f79082615006565b5090505060005b85518110156122e757609b5415158015612253575061225386828151811061222857612228614e8d565b60200260200101516040518060400160405280600581526020016427bbb732b960d91b815250613a57565b1561227157604051631eb49d6d60e11b815260040160405180910390fd5b600086828151811061228557612285614e8d565b602002602001015160405160200161229d91906152be565b6040516020818303038152906040526122b590614f9c565b600085815260a460209081526040822080546001810182559083529120015550806122df81614f26565b9150506121fe565b5060005b84518110156123c157600085828151811061230857612308614e8d565b6020026020010151600001519050600086838151811061232a5761232a614e8d565b602002602001015160200151905060006001600160a01b0316826001600160a01b0316148061235857508051155b156123645750506123af565b6001600160a01b0382166000908152609e602052604081205460ff16151590036123a15760405163c1ef36f360e01b815260040160405180910390fd5b6123ac858383613ab1565b50505b806123b981614f26565b9150506122eb565b5081336001600160a01b03167f39772407c6dd2e83adbd292cdfa17a6817c9a7500e56cfe57b7a82d797f8d39b898960996040516124019392919061532c565b60405180910390a35095945050505050565b6099805461095c90614e59565b61246460405180602001604052806000815250604051806040016040528060138152602001724d6f64696679537061636553657474696e677360681b8152506134df565b609b54810361248657604051631eb49d6d60e11b815260040160405180910390fd5b600081815260a3602052604081205490036124b45760405163b810dc5d60e01b815260040160405180910390fd5b600081815260a06020526040902054156124e157604051633764405360e11b815260040160405180910390fd5b600081815260a360205260408120818155906125006001830182614086565b5050600081815260a460205260408120612519916140c0565b80336001600160a01b03167f1d5667a301e36f2d5b1ee32b7f187b0adb46c706297242fa945d3fed1e7f8a196099604051612554919061535c565b60405180910390a350565b612567613c21565b6125b35760405162461bcd60e51b815260206004820152601860248201527f4d657461646174613a206e6f7420617574686f72697a65640000000000000000604482015260640161115a565b61132c82828080601f016020809104026020016040519081016040528093929190818152602001838380828437600092019190915250613c2b92505050565b606060a680548060200260200160405190810160405280929190818152602001828054801561264057602002820191906000526020600020905b81548152602001906001019080831161262c575b5050505050905090565b61268e60405180602001604052806000815250604051806040016040528060138152602001724d6f64696679537061636553657474696e677360681b8152506134df565b600082815260a3602052604081205490036126bc5760405163b810dc5d60e01b815260040160405180910390fd5b60005b815181101561285a576126dd82828151811061222857612228614e8d565b156126fb57604051631eb49d6d60e11b815260040160405180910390fd5b600082828151811061270f5761270f614e8d565b602002602001015160405160200161272791906152be565b60405160208183030381529060405261273f90614f9c565b905060005b600085815260a4602052604090205481101561284557600085815260a46020526040902080548391908390811061277d5761277d614e8d565b90600052602060002001540361283357600085815260a46020526040902080546127a99060019061536f565b815481106127b9576127b9614e8d565b906000526020600020015460a4600087815260200190815260200160002082815481106127e8576127e8614e8d565b906000526020600020018190555060a4600086815260200190815260200160002080548061281857612818615382565b60019003818190600052602060002001600090559055612845565b8061283d81614f26565b915050612744565b5050808061285290614f26565b9150506126bf565b505050565b6060816001600160401b0381111561287957612879614376565b6040519080825280602002602001820160405280156128ac57816020015b60608152602001906001900390816128975790505b50905060005b8281101561206257600080308686858181106128d0576128d0614e8d565b90506020028101906128e29190615398565b6040516128f0929190614f8c565b600060405180830381855af49150503d806000811461292b576040519150601f19603f3d011682016040523d82523d6000602084013e612930565b606091505b5091509150816129435761294381613d07565b8084848151811061295657612956614e8d565b60200260200101819052505050808061296e90614f26565b9150506128b2565b600081815260a46020526040812054606091816001600160401b038111156129a0576129a0614376565b6040519080825280602002602001820160405280156129d357816020015b60608152602001906001900390816129be5790505b50905060005b82811015610f0657600085815260a460205260409020805473__$f1e35cfc222e0f213e29c506cab45be2ef$__91639201de559184908110612a1d57612a1d614e8d565b90600052602060002001546040518263ffffffff1660e01b8152600401612a4691815260200190565b600060405180830381865af4158015612a63573d6000803e3d6000fd5b505050506040513d6000823e601f3d908101601f19168201604052612a8b9190810190614ea3565b828281518110612a9d57612a9d614e8d565b60200260200101819052508080612ab390614f26565b9150506129d9565b612aff60405180602001604052806000815250604051806040016040528060138152602001724d6f64696679537061636553657474696e677360681b8152506134df565b600082815260a360205260408120549003612b2d5760405163b810dc5d60e01b815260040160405180910390fd5b60005b815181101561285a57612b4e82828151811061222857612228614e8d565b15612b6c57604051631eb49d6d60e11b815260040160405180910390fd5b6000828281518110612b8057612b80614e8d565b6020026020010151604051602001612b9891906152be565b604051602081830303815290604052612bb090614f9c565b905060005b600085815260a46020526040902054811015612c2957600085815260a460205260409020805483919083908110612bee57612bee614e8d565b906000526020600020015403612c1757604051636571d65f60e01b815260040160405180910390fd5b80612c2181614f26565b915050612bb5565b50600084815260a460209081526040822080546001810182559083529120015580612c5381614f26565b915050612b30565b612c9f60405180602001604052806000815250604051806040016040528060138152602001724d6f64696679537061636553657474696e677360681b8152506134df565b80516001600160a01b03166000908152609e602052604090205460ff16612cd95760405163c1ef36f360e01b815260040160405180910390fd5b600082815260a360205260408120549003612d075760405163b810dc5d60e01b815260040160405180910390fd5b609b548203612d2957604051631eb49d6d60e11b815260040160405180910390fd5b61132c8282600001518360200151613ab1565b612da484848080601f0160208091040260200160405190810160405280939291908181526020018383808284376000920191909152505060408051808201909152601181527041646452656d6f76654368616e6e656c7360781b602082015291506134df9050565b6001600160a01b0382166000908152609e602052604090205460ff16612ddd5760405163c1ef36f360e01b815260040160405180910390fd5b600081815260a360205260408120549003612e0b5760405163b810dc5d60e01b815260040160405180910390fd5b604051637997c1e760e11b81526001600160a01b0383169063f32f83ce90610e6090879087908690600401614f68565b6000841580612e48575081155b80612e5a57506001600160a01b038416155b15612e7857604051630e52390960e41b815260040160405180910390fd5b60008686604051602001612e8d929190614f8c565b60408051601f198184030181529181528151602092830120600081815260a5909352908220600201549092509003612ed857604051636ddd9da960e01b815260040160405180910390fd5b600081815260a5602052604090206004015460ff1615612f0b57604051631eb49d6d60e11b815260040160405180910390fd5b60005b60a154811015612f8257612f6688888080601f016020809104026020016040519081016040528093929190818152602001838380828437600092019190915250506040518a9250610ecd915089908990602001614f8c565b15612f7057600192505b80612f7a81614f26565b915050612f0e565b505095945050505050565b612fd160405180602001604052806000815250604051806040016040528060138152602001724d6f64696679537061636553657474696e677360681b8152506134df565b609b548203612ff357604051631eb49d6d60e11b815260040160405180910390fd5b609e600061300460208401846144ea565b6001600160a01b0316815260208101919091526040016000205460ff1661303e5760405163c1ef36f360e01b815260040160405180910390fd5b600082815260a36020526040812054900361306c5760405163b810dc5d60e01b815260040160405180910390fd5b60008261307c6020840184615398565b60405160200161308e939291906153de565b60408051601f198184030181529181528151602092830120600086815260a0909352908220909250905b815481101561316c578181815481106130d3576130d3614e8d565b9060005260206000200154830361315a57815482906130f49060019061536f565b8154811061310457613104614e8d565b906000526020600020015482828154811061312157613121614e8d565b90600052602060002001819055508180548061313f5761313f615382565b6001900381819060005260206000200160009055905561316c565b8061316481614f26565b9150506130b8565b5061317a60208401846144ea565b6001600160a01b031663fa6d1adf856131966020870187615398565b6040518463ffffffff1660e01b81526004016131b4939291906153f8565b6020604051808303816000875af11580156131d3573d6000803e3d6000fd5b505050506040513d601f19601f820116820180604052508101906131f79190615412565b5050505050565b60a3602052600090815260409020805460018201805491929161322090614e59565b80601f016020809104026020016040519081016040528092919081815260200182805461324c90614e59565b80156132995780601f1061326e57610100808354040283529160200191613299565b820191906000526020600020905b81548152906001019060200180831161327c57829003601f168201915b5050505050905082565b60a681815481106132b357600080fd5b600091825260209091200154905081565b6097805461095c90614e59565b60a181815481106132e157600080fd5b6000918252602090912001546001600160a01b0316905081565b600054610100900460ff161580801561331b5750600054600160ff909116105b806133355750303b158015613335575060005460ff166001145b6133985760405162461bcd60e51b815260206004820152602e60248201527f496e697469616c697a61626c653a20636f6e747261637420697320616c72656160448201526d191e481a5b9a5d1a585b1a5e995960921b606482015260840161115a565b6000805460ff1916600117905580156133bb576000805461ff0019166101001790555b6133c3613dd4565b6133cb613dd4565b60986133d78782615006565b5060996133e48682615006565b50609c80546001600160a01b0319166001600160a01b038516179055609d82905560005b84518110156134915761343585828151811061342657613426614e8d565b6020026020010151600161384f565b6001609f600087848151811061344d5761344d614e8d565b6020908102919091018101516001600160a01b03168252810191909152604001600020805460ff19169115159190911790558061348981614f26565b915050613408565b50801561110a576000805461ff0019169055604051600181527f7f26b83ff96e1f2b6a682f133852f6798a09c465da95921460cefb38474024989060200160405180910390a1505050505050565b6134e76139d0565b806135115750609a5460ff161580156135115750613511823383604051602001610ecd91906152be565b1561351a575050565b604051631eb49d6d60e11b815260040160405180910390fd5b6000805b60a154811015610f065760a1818154811061355457613554614e8d565b60009182526020909120015460405162169d5560e31b81526001600160a01b039091169062b4eaa89061358f9088908890889060040161542b565b602060405180830381865afa1580156135ac573d6000803e3d6000fd5b505050506040513d601f19601f820116820180604052508101906135d09190615459565b156135da57600191505b806135e481614f26565b915050613537565b80518190600211806135ff575080516020105b1561132c5760405163354b556f60e11b815260040160405180910390fd5b6111f7604051806020016040528060008152506040518060400160405280600581526020016427bbb732b960d91b8152506134df565b7f4910fdfa16fed3260ed0e7147f7cc6da11a60208b5b9406d12a635614ffd91435460ff16156136865761285a83613e41565b826001600160a01b03166352d1902d6040518163ffffffff1660e01b8152600401602060405180830381865afa9250505080156136e0575060408051601f3d908101601f191682019092526136dd91810190615412565b60015b6137435760405162461bcd60e51b815260206004820152602e60248201527f45524331393637557067726164653a206e657720696d706c656d656e7461746960448201526d6f6e206973206e6f74205555505360901b606482015260840161115a565b6000805160206154c283398151915281146137b25760405162461bcd60e51b815260206004820152602960248201527f45524331393637557067726164653a20756e737570706f727465642070726f786044820152681a58589b195555525160ba1b606482015260840161115a565b5061285a838383613edd565b6040516301ffc9a760e01b815263a485103160e01b60048201526001600160a01b038216906301ffc9a790602401602060405180830381865afa158015613809573d6000803e3d6000fd5b505050506040513d601f19601f8201168201806040525081019061382d9190615459565b15156000036111f757604051636d9250f160e11b815260040160405180910390fd5b6001600160a01b0382166000908152609e60205260409020805460ff191682158015919091179091556138cd5760a180546001810182556000919091527faadc37b8ba5645e62f4546802db221593a94729ccbfc5a97d01365a88f6498780180546001600160a01b0384166001600160a01b03199091161790555050565b60005b60a15481101561285a5760a181815481106138ed576138ed614e8d565b6000918252602090912001546001600160a01b03908116908416036139be5760a1805461391c9060019061536f565b8154811061392c5761392c614e8d565b60009182526020909120015460a180546001600160a01b03909216918390811061395857613958614e8d565b9060005260206000200160006101000a8154816001600160a01b0302191690836001600160a01b0316021790555060a180548061399757613997615382565b600082815260209020810160001990810180546001600160a01b0319169055019055505050565b806139c881614f26565b9150506138d0565b600033609c54609d546040516331a9108f60e11b815260048101919091526001600160a01b039283169290911690636352211e90602401602060405180830381865afa158015613a24573d6000803e3d6000fd5b505050506040513d601f19601f82011682018060405250810190613a48919061530f565b6001600160a01b031614905090565b600081604051602001613a6a919061413f565b6040516020818303038152906040528051906020012083604051602001613a91919061413f565b604051602081830303815290604052805190602001201490505b92915050565b60008382604051602001613ac6929190615476565b60408051601f198184030181528282528051602091820120600088815260a0835283812080548085028701850190955284865291955093929091830182828015613b2f57602002820191906000526020600020905b815481526020019060010190808311613b1b575b5050505050905060005b8151811015613b8d5782828281518110613b5557613b55614e8d565b602002602001015103613b7b5760405163c5c9ad6760e01b815260040160405180910390fd5b80613b8581614f26565b915050613b39565b50600085815260a0602090815260408083208054600181018255908452919092200183905551633be2f95d60e21b81526001600160a01b0385169063ef8be57490613bde9088908790600401614d41565b6020604051808303816000875af1158015613bfd573d6000803e3d6000fd5b505050506040513d601f19601f8201168201806040525081019061110a9190615412565b60006120db6139d0565b600060978054613c3a90614e59565b80601f0160208091040260200160405190810160405280929190818152602001828054613c6690614e59565b8015613cb35780601f10613c8857610100808354040283529160200191613cb3565b820191906000526020600020905b815481529060010190602001808311613c9657829003601f168201915b505050505090508160979081613cc99190615006565b507fc9c7c3fe08b88b4df9d4d47ef47d2c43d55c025a0ba88ca442580ed9e7348a168183604051613cfb92919061549c565b60405180910390a15050565b600481511015613d4c5760405162461bcd60e51b815260206004820152601060248201526f1d5b9a185b991b1959081c995d995c9d60821b604482015260640161115a565b602081015163b1b7848f60e01b6001600160e01b0319821601613dcb57604080518082018252600e81526d70616e69636b65643a2030785f5f60901b602082018181526024860151600481811c600f908116603090810160081b9184160117909317909152925162461bcd60e51b815291929161115a9184910161413f565b81518060208401fd5b600054610100900460ff16613e3f5760405162461bcd60e51b815260206004820152602b60248201527f496e697469616c697a61626c653a20636f6e7472616374206973206e6f74206960448201526a6e697469616c697a696e6760a81b606482015260840161115a565b565b6001600160a01b0381163b613eae5760405162461bcd60e51b815260206004820152602d60248201527f455243313936373a206e657720696d706c656d656e746174696f6e206973206e60448201526c1bdd08184818dbdb9d1c9858dd609a1b606482015260840161115a565b6000805160206154c283398151915280546001600160a01b0319166001600160a01b0392909216919091179055565b613ee683613f08565b600082511180613ef35750805b1561285a57613f028383613f48565b50505050565b613f1181613e41565b6040516001600160a01b038216907fbc7cd75a20ee27fd9adebab32041f755214dbc6bffa90cc0225b39da2e5c2d3b90600090a250565b60606001600160a01b0383163b613fb05760405162461bcd60e51b815260206004820152602660248201527f416464726573733a2064656c65676174652063616c6c20746f206e6f6e2d636f6044820152651b9d1c9858dd60d21b606482015260840161115a565b600080846001600160a01b031684604051613fcb91906152be565b600060405180830381855af49150503d8060008114614006576040519150601f19603f3d011682016040523d82523d6000602084013e61400b565b606091505b509150915061403382826040518060600160405280602781526020016154e26027913961403c565b95945050505050565b6060831561404b575081614055565b614055838361405c565b9392505050565b81511561406c5781518083602001fd5b8060405162461bcd60e51b815260040161115a919061413f565b50805461409290614e59565b6000825580601f106140a2575050565b601f0160209004906000526020600020908101906111f791906140da565b50805460008255906000526020600020908101906111f791905b5b80821115610c1a57600081556001016140db565b60005b8381101561410a5781810151838201526020016140f2565b50506000910152565b6000815180845261412b8160208601602086016140ef565b601f01601f19169290920160200192915050565b6020815260006140556020830184614113565b60006020808301818452808551808352604092508286019150828160051b87010184880160005b838110156141ed57603f1989840301855281516080815181865261419f82870182614113565b838b01516001600160a01b0316878c0152898401518782038b89015290925090506141ca8282614113565b606093840151151596909301959095525094870194925090860190600101614179565b509098975050505050505050565b60006020828403121561420d57600080fd5b5035919050565b60a08152600061422760a0830188614113565b82810360208401526142398188614113565b604084019690965250506060810192909252151560809091015292915050565b60008083601f84011261426b57600080fd5b5081356001600160401b0381111561428257600080fd5b60208301915083602082850101111561429a57600080fd5b9250929050565b6001600160a01b03811681146111f757600080fd5b80356142c1816142a1565b919050565b600080600080606085870312156142dc57600080fd5b84356001600160401b038111156142f257600080fd5b6142fe87828801614259565b9095509350506020850135614312816142a1565b9396929550929360400135925050565b60008060006040848603121561433757600080fd5b8335614342816142a1565b925060208401356001600160401b0381111561435d57600080fd5b61436986828701614259565b9497909650939450505050565b634e487b7160e01b600052604160045260246000fd5b604051601f8201601f191681016001600160401b03811182821017156143b4576143b4614376565b604052919050565b60006001600160401b038211156143d5576143d5614376565b50601f01601f191660200190565b600082601f8301126143f457600080fd5b8135614407614402826143bc565b61438c565b81815284602083860101111561441c57600080fd5b816020850160208301376000918101602001919091529392505050565b6000806040838503121561444c57600080fd5b8235915060208301356001600160401b0381111561446957600080fd5b614475858286016143e3565b9150509250929050565b6000806000806040858703121561449557600080fd5b84356001600160401b03808211156144ac57600080fd5b6144b888838901614259565b909650945060208701359150808211156144d157600080fd5b506144de87828801614259565b95989497509550505050565b6000602082840312156144fc57600080fd5b8135614055816142a1565b6020808252825182820181905260009190848201906040850190845b8181101561453f57835183529284019291840191600101614523565b50909695505050505050565b80151581146111f757600080fd5b6000806040838503121561456c57600080fd5b8235614577816142a1565b915060208301356145878161454b565b809150509250929050565b6000602082840312156145a457600080fd5b81356140558161454b565b600080604083850312156145c257600080fd5b82356145cd816142a1565b915060208301356001600160401b0381111561446957600080fd5b600080604083850312156145fb57600080fd5b8235614606816142a1565b91506020830135614587816142a1565b60006001600160401b0382111561462f5761462f614376565b5060051b60200190565b6000806000806060858703121561464f57600080fd5b84356001600160401b038082111561466657600080fd5b61467288838901614259565b909650945060209150868201358181111561468c57600080fd5b61469889828a016143e3565b9450506040870135818111156146ad57600080fd5b87019050601f810188136146c057600080fd5b80356146ce61440282614616565b81815260059190911b8201830190838101908a8311156146ed57600080fd5b928401925b8284101561470b578335825292840192908401906146f2565b979a9699509497505050505050565b60008060006040848603121561472f57600080fd5b83356001600160401b0381111561474557600080fd5b61475186828701614259565b90945092505060208401356147658161454b565b809150509250925092565b602081526000825160a0602084015261478c60c0840182614113565b90506020840151601f198483030160408501526147a98282614113565b91505060408401516060840152606084015160808401526080840151151560a08401528091505092915050565b8051825260006020820151604060208501526147f56040850182614113565b949350505050565b6000602080830181845280855180835260408601915060408160051b870101925083870160005b8281101561485257603f198886030184526148408583516147d6565b94509285019290850190600101614824565b5092979650505050505050565b60208152600061405560208301846147d6565b60006020828403121561488457600080fd5b81356001600160401b0381111561489a57600080fd5b6147f5848285016143e3565b600082601f8301126148b757600080fd5b813560206148c761440283614616565b82815260059290921b840181019181810190868411156148e657600080fd5b8286015b848110156149255780356001600160401b038111156149095760008081fd5b6149178986838b01016143e3565b8452509183019183016148ea565b509695505050505050565b60006040828403121561494257600080fd5b604051604081016001600160401b03828210818311171561496557614965614376565b8160405282935084359150614979826142a1565b9082526020840135908082111561498f57600080fd5b5061499c858286016143e3565b6020830152505092915050565b600080600080606085870312156149bf57600080fd5b84356001600160401b03808211156149d657600080fd5b6149e288838901614259565b90965094506020915086820135818111156149fc57600080fd5b614a0889828a016148a6565b945050604087013581811115614a1d57600080fd5b8701601f81018913614a2e57600080fd5b8035614a3c61440282614616565b81815260059190911b8201840190848101908b831115614a5b57600080fd5b8584015b83811015614a9357803586811115614a775760008081fd5b614a858e8983890101614930565b845250918601918601614a5f565b50989b979a50959850505050505050565b60008060208385031215614ab757600080fd5b82356001600160401b03811115614acd57600080fd5b614ad985828601614259565b90969095509350505050565b60008060408385031215614af857600080fd5b8235915060208301356001600160401b03811115614b1557600080fd5b614475858286016148a6565b60008060208385031215614b3457600080fd5b82356001600160401b0380821115614b4b57600080fd5b818501915085601f830112614b5f57600080fd5b813581811115614b6e57600080fd5b8660208260051b8501011115614b8357600080fd5b60209290920196919550909350505050565b6000602080830181845280855180835260408601915060408160051b870101925083870160005b8281101561485257603f19888603018452614bd8858351614113565b94509285019290850190600101614bbc565b6000602080830181845280855180835260408601915060408160051b870101925083870160005b8281101561485257603f19888603018452614c2d858351614113565b94509285019290850190600101614c11565b60008060408385031215614c5257600080fd5b8235915060208301356001600160401b03811115614c6f57600080fd5b61447585828601614930565b600080600080600060608688031215614c9357600080fd5b85356001600160401b0380821115614caa57600080fd5b614cb689838a01614259565b909750955060208801359150614ccb826142a1565b90935060408701359080821115614ce157600080fd5b50614cee88828901614259565b969995985093965092949392505050565b60008060408385031215614d1257600080fd5b8235915060208301356001600160401b03811115614d2f57600080fd5b83016040818603121561458757600080fd5b8281526040602082015260006147f56040830184614113565b600080600080600060a08688031215614d7257600080fd5b85356001600160401b0380821115614d8957600080fd5b614d9589838a016143e3565b9650602091508188013581811115614dac57600080fd5b614db88a828b016143e3565b965050604088013581811115614dcd57600080fd5b88019050601f81018913614de057600080fd5b8035614dee61440282614616565b81815260059190911b8201830190838101908b831115614e0d57600080fd5b928401925b82841015614e34578335614e25816142a1565b82529284019290840190614e12565b8097505050505050614e48606087016142b6565b949793965091946080013592915050565b600181811c90821680614e6d57607f821691505b602082108103611ea457634e487b7160e01b600052602260045260246000fd5b634e487b7160e01b600052603260045260246000fd5b600060208284031215614eb557600080fd5b81516001600160401b03811115614ecb57600080fd5b8201601f81018413614edc57600080fd5b8051614eea614402826143bc565b818152856020838501011115614eff57600080fd5b6140338260208301602086016140ef565b634e487b7160e01b600052601160045260246000fd5b600060018201614f3857614f38614f10565b5060010190565b81835281816020850137506000828201602090810191909152601f909101601f19169091010190565b604081526000614f7c604083018587614f3f565b9050826020830152949350505050565b8183823760009101908152919050565b80516020808301519190811015611ea45760001960209190910360031b1b16919050565b601f82111561285a57600081815260208120601f850160051c81016020861015614fe75750805b601f850160051c820191505b8181101561110a57828155600101614ff3565b81516001600160401b0381111561501f5761501f614376565b6150338161502d8454614e59565b84614fc0565b602080601f83116001811461506857600084156150505750858301515b600019600386901b1c1916600185901b17855561110a565b600085815260208120601f198616915b8281101561509757888601518255948401946001909101908401615078565b50858210156150b55787850151600019600388901b60f8161c191681555b5050505050600190811b01905550565b600081546150d281614e59565b8085526020600183811680156150ef576001811461510957615137565b60ff1985168884015283151560051b880183019550615137565b866000528260002060005b8581101561512f5781548a8201860152908301908401615114565b890184019650505b505050505092915050565b6040815260006151556040830185614113565b828103602084015261403381856150c5565b6001600160401b0383111561517e5761517e614376565b6151928361518c8354614e59565b83614fc0565b6000601f8411600181146151c657600085156151ae5750838201355b600019600387901b1c1916600186901b1783556131f7565b600083815260209020601f19861690835b828110156151f757868501358255602094850194600190920191016151d7565b50868210156152145760001960f88860031b161c19848701351681555b505060018560011b0183555050505050565b6020808252602c908201527f46756e6374696f6e206d7573742062652063616c6c6564207468726f7567682060408201526b19195b1959d85d1958d85b1b60a21b606082015260800190565b6020808252602c908201527f46756e6374696f6e206d7573742062652063616c6c6564207468726f7567682060408201526b6163746976652070726f787960a01b606082015260800190565b600082516152d08184602087016140ef565b9190910192915050565b6040815260006152ed6040830185614113565b90508260208301529392505050565b80820180821115613aab57613aab614f10565b60006020828403121561532157600080fd5b8151614055816142a1565b604081526000615340604083018587614f3f565b828103602084015261535281856150c5565b9695505050505050565b60208152600061405560208301846150c5565b81810381811115613aab57613aab614f10565b634e487b7160e01b600052603160045260246000fd5b6000808335601e198436030181126153af57600080fd5b8301803591506001600160401b038211156153c957600080fd5b60200191503681900382131561429a57600080fd5b838152818360208301376000910160200190815292915050565b838152604060208201526000614033604083018486614f3f565b60006020828403121561542457600080fd5b5051919050565b60608152600061543e6060830186614113565b6001600160a01b039490941660208301525060400152919050565b60006020828403121561546b57600080fd5b81516140558161454b565b8281526000825161548e8160208501602087016140ef565b919091016020019392505050565b6040815260006154af6040830185614113565b8281036020840152614033818561411356fe360894a13ba1a3210667c828492db98dca3e2076cc3735a920a3ca505d382bbc416464726573733a206c6f772d6c6576656c2064656c65676174652063616c6c206661696c6564a2646970667358221220e66db5aa891d96b58e63b99a7f01baf0bf407356305b1f49a61f4e19569a997c64736f6c63430008130033",
    "linkReferences": {
      "packages/contracts/src/libraries/Utils.sol": {
        "Utils": [
          {
            "start": 11027,
            "length": 20
          }
        ]
      }
    }
  },
  "methodIdentifiers": {
    "MODULE_TYPE()": "5775029f",
    "MODULE_VERSION()": "81ed9808",
    "addPermissionsToRole(uint256,string[])": "b7515761",
    "addRoleToChannel(string,address,uint256)": "1dea616a",
    "addRoleToEntitlement(uint256,(address,bytes))": "ba201ba8",
    "channels(uint256)": "e5949b5d",
    "channelsByHash(bytes32)": "129ab3c8",
    "contractURI()": "e8a3d485",
    "createChannel(string,string,uint256[])": "51f83cea",
    "createRole(string,string[],(address,bytes)[])": "8fcd793d",
    "defaultEntitlements(address)": "fa6433c5",
    "disabled()": "ee070805",
    "entitlements(uint256)": "f28f9b56",
    "getChannelByHash(bytes32)": "703511f8",
    "getChannels()": "9575f6ac",
    "getEntitlementByModuleType(string)": "870b9464",
    "getEntitlementIdsByRoleId(uint256)": "42486e49",
    "getEntitlementModules()": "0d029f75",
    "getPermissionsByRoleId(uint256)": "b4264233",
    "getRoleById(uint256)": "784c872b",
    "getRoles()": "71061398",
    "hasEntitlement(address)": "7f8d06d0",
    "initialize(string,string,address[],address,uint256)": "f3ce6a5b",
    "isEntitledToChannel(string,address,string)": "cea632bc",
    "isEntitledToSpace(address,string)": "20759f9e",
    "multicall(bytes[])": "ac9650d8",
    "name()": "06fdde03",
    "networkId()": "9025e64c",
    "owner()": "8da5cb5b",
    "ownerRoleId()": "d1a6a961",
    "proxiableUUID()": "52d1902d",
    "removePermissionsFromRole(uint256,string[])": "9a8e4c3e",
    "removeRole(uint256)": "92691821",
    "removeRoleFromChannel(string,address,uint256)": "baaf3d57",
    "removeRoleFromEntitlement(uint256,(address,bytes))": "dba81864",
    "roleCount()": "ddf96358",
    "rolesById(uint256)": "e5894ef4",
    "setChannelAccess(string,bool)": "5de151b8",
    "setContractURI(string)": "938e3d7b",
    "setEntitlementModule(address,bool)": "441555e5",
    "setOwnerRoleId(uint256)": "4999ab16",
    "setSpaceAccess(bool)": "446dc22e",
    "token()": "fc0c546a",
    "tokenId()": "17d70f7c",
    "updateChannel(string,string)": "34a1dd26",
    "updateRole(uint256,string)": "32e704cc",
    "upgradeEntitlement(address,address)": "519607f2",
    "upgradeTo(address)": "3659cfe6",
    "upgradeToAndCall(address,bytes)": "4f1ef286"
  },
  "id": 123
}