{
  "abi": [
    {
      "inputs": [],
      "stateMutability": "nonpayable",
      "type": "constructor"
    },
    {
      "inputs": [],
      "name": "InvalidParameters",
      "type": "error"
    },
    {
      "inputs": [],
      "name": "NameLengthInvalid",
      "type": "error"
    },
    {
      "inputs": [],
      "name": "NotAllowed",
      "type": "error"
    },
    {
      "inputs": [],
      "name": "PermissionAlreadyExists",
      "type": "error"
    },
    {
      "inputs": [],
      "name": "SpaceAlreadyRegistered",
      "type": "error"
    },
    {
      "anonymous": false,
      "inputs": [
        {
          "indexed": false,
          "internalType": "address",
          "name": "previousAdmin",
          "type": "address"
        },
        {
          "indexed": false,
          "internalType": "address",
          "name": "newAdmin",
          "type": "address"
        }
      ],
      "name": "AdminChanged",
      "type": "event"
    },
    {
      "anonymous": false,
      "inputs": [
        {
          "indexed": true,
          "internalType": "address",
          "name": "beacon",
          "type": "address"
        }
      ],
      "name": "BeaconUpgraded",
      "type": "event"
    },
    {
      "anonymous": false,
      "inputs": [
        {
          "indexed": false,
          "internalType": "uint8",
          "name": "version",
          "type": "uint8"
        }
      ],
      "name": "Initialized",
      "type": "event"
    },
    {
      "anonymous": false,
      "inputs": [
        {
          "indexed": true,
          "internalType": "address",
          "name": "previousOwner",
          "type": "address"
        },
        {
          "indexed": true,
          "internalType": "address",
          "name": "newOwner",
          "type": "address"
        }
      ],
      "name": "OwnershipTransferred",
      "type": "event"
    },
    {
      "anonymous": false,
      "inputs": [
        {
          "indexed": false,
          "internalType": "address",
          "name": "account",
          "type": "address"
        }
      ],
      "name": "Paused",
      "type": "event"
    },
    {
      "anonymous": false,
      "inputs": [
        {
          "indexed": true,
          "internalType": "address",
          "name": "spaceAddress",
          "type": "address"
        },
        {
          "indexed": true,
          "internalType": "address",
          "name": "ownerAddress",
          "type": "address"
        },
        {
          "indexed": false,
          "internalType": "string",
          "name": "networkId",
          "type": "string"
        }
      ],
      "name": "SpaceCreated",
      "type": "event"
    },
    {
      "anonymous": false,
      "inputs": [
        {
          "indexed": false,
          "internalType": "address",
          "name": "account",
          "type": "address"
        }
      ],
      "name": "Unpaused",
      "type": "event"
    },
    {
      "anonymous": false,
      "inputs": [
        {
          "indexed": true,
          "internalType": "address",
          "name": "implementation",
          "type": "address"
        }
      ],
      "name": "Upgraded",
      "type": "event"
    },
    {
      "inputs": [],
      "name": "GATE_TOKEN_ADDRESS",
      "outputs": [
        {
          "internalType": "address",
          "name": "",
          "type": "address"
        }
      ],
      "stateMutability": "view",
      "type": "function"
    },
    {
      "inputs": [],
      "name": "SPACE_IMPLEMENTATION_ADDRESS",
      "outputs": [
        {
          "internalType": "address",
          "name": "",
          "type": "address"
        }
      ],
      "stateMutability": "view",
      "type": "function"
    },
    {
      "inputs": [],
      "name": "SPACE_TOKEN_ADDRESS",
      "outputs": [
        {
          "internalType": "address",
          "name": "",
          "type": "address"
        }
      ],
      "stateMutability": "view",
      "type": "function"
    },
    {
      "inputs": [],
      "name": "SPACE_UPGRADES_ADDRESS",
      "outputs": [
        {
          "internalType": "address",
          "name": "",
          "type": "address"
        }
      ],
      "stateMutability": "view",
      "type": "function"
    },
    {
      "inputs": [],
      "name": "TOKEN_IMPLEMENTATION_ADDRESS",
      "outputs": [
        {
          "internalType": "address",
          "name": "",
          "type": "address"
        }
      ],
      "stateMutability": "view",
      "type": "function"
    },
    {
      "inputs": [],
      "name": "USER_IMPLEMENTATION_ADDRESS",
      "outputs": [
        {
          "internalType": "address",
          "name": "",
          "type": "address"
        }
      ],
      "stateMutability": "view",
      "type": "function"
    },
    {
      "inputs": [
        {
          "internalType": "string[]",
          "name": "_permissions",
          "type": "string[]"
        }
      ],
      "name": "addOwnerPermissions",
      "outputs": [],
      "stateMutability": "nonpayable",
      "type": "function"
    },
    {
      "inputs": [
        {
          "components": [
            {
              "internalType": "string",
              "name": "spaceName",
              "type": "string"
            },
            {
              "internalType": "string",
              "name": "spaceId",
              "type": "string"
            },
            {
              "internalType": "string",
              "name": "spaceMetadata",
              "type": "string"
            },
            {
              "internalType": "string",
              "name": "channelName",
              "type": "string"
            },
            {
              "internalType": "string",
              "name": "channelId",
              "type": "string"
            }
          ],
          "internalType": "struct DataTypes.CreateSpaceData",
          "name": "_spaceData",
          "type": "tuple"
        },
        {
          "internalType": "string[]",
          "name": "_everyonePermissions",
          "type": "string[]"
        },
        {
          "components": [
            {
              "internalType": "string",
              "name": "roleName",
              "type": "string"
            },
            {
              "internalType": "string[]",
              "name": "permissions",
              "type": "string[]"
            },
            {
              "components": [
                {
                  "internalType": "address",
                  "name": "contractAddress",
                  "type": "address"
                },
                {
                  "internalType": "uint256",
                  "name": "quantity",
                  "type": "uint256"
                },
                {
                  "internalType": "bool",
                  "name": "isSingleToken",
                  "type": "bool"
                },
                {
                  "internalType": "uint256[]",
                  "name": "tokenIds",
                  "type": "uint256[]"
                }
              ],
              "internalType": "struct DataTypes.ExternalToken[]",
              "name": "tokens",
              "type": "tuple[]"
            },
            {
              "internalType": "address[]",
              "name": "users",
              "type": "address[]"
            }
          ],
          "internalType": "struct DataTypes.CreateSpaceExtraEntitlements",
          "name": "_extraEntitlements",
          "type": "tuple"
        }
      ],
      "name": "createSpace",
      "outputs": [
        {
          "internalType": "address",
          "name": "_spaceAddress",
          "type": "address"
        }
      ],
      "stateMutability": "nonpayable",
      "type": "function"
    },
    {
      "inputs": [],
      "name": "gatingEnabled",
      "outputs": [
        {
          "internalType": "bool",
          "name": "",
          "type": "bool"
        }
      ],
      "stateMutability": "view",
      "type": "function"
    },
    {
      "inputs": [],
      "name": "getOwnerPermissions",
      "outputs": [
        {
          "internalType": "string[]",
          "name": "",
          "type": "string[]"
        }
      ],
      "stateMutability": "view",
      "type": "function"
    },
    {
      "inputs": [
        {
          "internalType": "string",
          "name": "spaceId",
          "type": "string"
        }
      ],
      "name": "getSpaceAddressByNetworkId",
      "outputs": [
        {
          "internalType": "address",
          "name": "",
          "type": "address"
        }
      ],
      "stateMutability": "view",
      "type": "function"
    },
    {
      "inputs": [
        {
          "internalType": "string",
          "name": "spaceId",
          "type": "string"
        }
      ],
      "name": "getTokenIdByNetworkId",
      "outputs": [
        {
          "internalType": "uint256",
          "name": "",
          "type": "uint256"
        }
      ],
      "stateMutability": "view",
      "type": "function"
    },
    {
      "inputs": [
        {
          "internalType": "address",
          "name": "_space",
          "type": "address"
        },
        {
          "internalType": "address",
          "name": "_tokenEntitlement",
          "type": "address"
        },
        {
          "internalType": "address",
          "name": "_userEntitlement",
          "type": "address"
        },
        {
          "internalType": "address",
          "name": "_spaceToken",
          "type": "address"
        },
        {
          "internalType": "address",
          "name": "_gateToken",
          "type": "address"
        },
        {
          "internalType": "string[]",
          "name": "_permissions",
          "type": "string[]"
        }
      ],
      "name": "initialize",
      "outputs": [],
      "stateMutability": "nonpayable",
      "type": "function"
    },
    {
      "inputs": [
        {
          "internalType": "address",
          "name": "",
          "type": "address"
        },
        {
          "internalType": "address",
          "name": "",
          "type": "address"
        },
        {
          "internalType": "uint256",
          "name": "",
          "type": "uint256"
        },
        {
          "internalType": "bytes",
          "name": "",
          "type": "bytes"
        }
      ],
      "name": "onERC721Received",
      "outputs": [
        {
          "internalType": "bytes4",
          "name": "",
          "type": "bytes4"
        }
      ],
      "stateMutability": "nonpayable",
      "type": "function"
    },
    {
      "inputs": [],
      "name": "owner",
      "outputs": [
        {
          "internalType": "address",
          "name": "",
          "type": "address"
        }
      ],
      "stateMutability": "view",
      "type": "function"
    },
    {
      "inputs": [
        {
          "internalType": "uint256",
          "name": "",
          "type": "uint256"
        }
      ],
      "name": "ownerPermissions",
      "outputs": [
        {
          "internalType": "string",
          "name": "",
          "type": "string"
        }
      ],
      "stateMutability": "view",
      "type": "function"
    },
    {
      "inputs": [],
      "name": "paused",
      "outputs": [
        {
          "internalType": "bool",
          "name": "",
          "type": "bool"
        }
      ],
      "stateMutability": "view",
      "type": "function"
    },
    {
      "inputs": [],
      "name": "proxiableUUID",
      "outputs": [
        {
          "internalType": "bytes32",
          "name": "",
          "type": "bytes32"
        }
      ],
      "stateMutability": "view",
      "type": "function"
    },
    {
      "inputs": [],
      "name": "renounceOwnership",
      "outputs": [],
      "stateMutability": "nonpayable",
      "type": "function"
    },
    {
      "inputs": [
        {
          "internalType": "bool",
          "name": "_gatingEnabled",
          "type": "bool"
        }
      ],
      "name": "setGatingEnabled",
      "outputs": [],
      "stateMutability": "nonpayable",
      "type": "function"
    },
    {
      "inputs": [
        {
          "internalType": "bool",
          "name": "_paused",
          "type": "bool"
        }
      ],
      "name": "setPaused",
      "outputs": [],
      "stateMutability": "nonpayable",
      "type": "function"
    },
    {
      "inputs": [
        {
          "internalType": "address",
          "name": "_spaceToken",
          "type": "address"
        }
      ],
      "name": "setSpaceToken",
      "outputs": [],
      "stateMutability": "nonpayable",
      "type": "function"
    },
    {
      "inputs": [
        {
          "internalType": "bytes32",
          "name": "",
          "type": "bytes32"
        }
      ],
      "name": "spaceByHash",
      "outputs": [
        {
          "internalType": "address",
          "name": "",
          "type": "address"
        }
      ],
      "stateMutability": "view",
      "type": "function"
    },
    {
      "inputs": [
        {
          "internalType": "bytes32",
          "name": "",
          "type": "bytes32"
        }
      ],
      "name": "tokenByHash",
      "outputs": [
        {
          "internalType": "uint256",
          "name": "",
          "type": "uint256"
        }
      ],
      "stateMutability": "view",
      "type": "function"
    },
    {
      "inputs": [
        {
          "internalType": "address",
          "name": "newOwner",
          "type": "address"
        }
      ],
      "name": "transferOwnership",
      "outputs": [],
      "stateMutability": "nonpayable",
      "type": "function"
    },
    {
      "inputs": [
        {
          "internalType": "address",
          "name": "_space",
          "type": "address"
        },
        {
          "internalType": "address",
          "name": "_tokenEntitlement",
          "type": "address"
        },
        {
          "internalType": "address",
          "name": "_userEntitlement",
          "type": "address"
        },
        {
          "internalType": "address",
          "name": "_gateToken",
          "type": "address"
        },
        {
          "internalType": "address",
          "name": "_spaceUpgrades",
          "type": "address"
        }
      ],
      "name": "updateImplementations",
      "outputs": [],
      "stateMutability": "nonpayable",
      "type": "function"
    },
    {
      "inputs": [
        {
          "internalType": "address",
          "name": "newImplementation",
          "type": "address"
        }
      ],
      "name": "upgradeTo",
      "outputs": [],
      "stateMutability": "nonpayable",
      "type": "function"
    },
    {
      "inputs": [
        {
          "internalType": "address",
          "name": "newImplementation",
          "type": "address"
        },
        {
          "internalType": "bytes",
          "name": "data",
          "type": "bytes"
        }
      ],
      "name": "upgradeToAndCall",
      "outputs": [],
      "stateMutability": "payable",
      "type": "function"
    }
  ],
  "bytecode": {
    "object": "0x60a0604052306080523480156200001557600080fd5b506200002062000026565b620000e8565b600054610100900460ff1615620000935760405162461bcd60e51b815260206004820152602760248201527f496e697469616c697a61626c653a20636f6e747261637420697320696e697469604482015266616c697a696e6760c81b606482015260840160405180910390fd5b60005460ff9081161015620000e6576000805460ff191660ff9081179091556040519081527f7f26b83ff96e1f2b6a682f133852f6798a09c465da95921460cefb38474024989060200160405180910390a15b565b6080516141766200012060003960008181610dd401528181610e2001528181610ef801528181610f3b0152610fd701526141766000f3fe608060405260043610620001db5760003560e01c8063715018a611620000ff578063cfc270371162000095578063f21cd401116200006c578063f21cd4011462000590578063f2fde38b14620005b3578063f3aba30514620005d8578063f6ac70b7146200060a57600080fd5b8063cfc270371462000523578063df2cd9fe1462000546578063ed267116146200056d57600080fd5b806396dc21e411620000d657806396dc21e41462000481578063b28032f914620004a6578063be8b596714620004da578063c45f396b14620004ff57600080fd5b8063715018a614620004245780638a9ef426146200043c5780638da5cb5b146200046157600080fd5b80634689cd0411620001755780635c975abb116200014c5780635c975abb1462000391578063683c72b614620003b75780636c54acaf14620003da5780636e9ea7ca14620003ff57600080fd5b80634689cd04146200032e5780634f1ef286146200035357806352d1902d146200036a57600080fd5b8063224868ad11620001b6578063224868ad14620002865780633312540a14620002ab5780633659cfe614620002e65780633a70f983146200030b57600080fd5b806308bc0b4b14620001e0578063150b7a02146200022057806316c38b3c146200025f575b600080fd5b348015620001ed57600080fd5b506101615462000203906001600160a01b031681565b6040516001600160a01b0390911681526020015b60405180910390f35b3480156200022d57600080fd5b50620002456200023f36600462002c18565b6200062f565b6040516001600160e01b0319909116815260200162000217565b3480156200026c57600080fd5b50620002846200027e36600462002c98565b62000640565b005b3480156200029357600080fd5b5062000203620002a536600462002d04565b62000668565b348015620002b857600080fd5b5062000203620002ca36600462002da6565b610165602052600090815260409020546001600160a01b031681565b348015620002f357600080fd5b50620002846200030536600462002dc0565b62000dca565b3480156200031857600080fd5b506101675462000203906001600160a01b031681565b3480156200033b57600080fd5b50620002846200034d36600462002c98565b62000ebb565b620002846200036436600462002dde565b62000eee565b3480156200037757600080fd5b506200038262000fca565b60405190815260200162000217565b3480156200039e57600080fd5b5060655460ff165b604051901515815260200162000217565b348015620003c457600080fd5b506101625462000203906001600160a01b031681565b348015620003e757600080fd5b5062000284620003f936600462002e31565b62001080565b3480156200040c57600080fd5b50620002846200041e36600462002f6c565b6200117c565b3480156200043157600080fd5b50620002846200138f565b3480156200044957600080fd5b50620003826200045b36600462003008565b620013a7565b3480156200046e57600080fd5b506033546001600160a01b031662000203565b3480156200048e57600080fd5b5062000203620004a036600462003008565b620013dc565b348015620004b357600080fd5b50620004cb620004c536600462002da6565b6200141a565b604051620002179190620030d2565b348015620004e757600080fd5b5062000284620004f9366004620030e7565b620014d0565b3480156200050c57600080fd5b5061016354620003a690600160a01b900460ff1681565b3480156200053057600080fd5b506101605462000203906001600160a01b031681565b3480156200055357600080fd5b506200055e620016b9565b60405162000217919062003185565b3480156200057a57600080fd5b506101635462000203906001600160a01b031681565b3480156200059d57600080fd5b5061015f5462000203906001600160a01b031681565b348015620005c057600080fd5b5062000284620005d236600462002dc0565b6200179d565b348015620005e557600080fd5b5062000382620005f736600462002da6565b6101666020526000908152604090205481565b3480156200061757600080fd5b50620002846200062936600462002dc0565b62001819565b630a85bd0160e11b5b949350505050565b6200064a62001850565b80156200065e576200065b620018ac565b50565b6200065b62001909565b60006200067462001945565b6200067e620019a0565b62000688620019e8565b620006d36200069886806200319a565b8080601f01602080910402602001604051908101604052809392919081815260200183838082843760009201919091525062001a9d92505050565b620006e260208601866200319a565b90506000036200070557604051630e52390960e41b815260040160405180910390fd5b60006200071660208701876200319a565b60405162000726929190620031e3565b6040805191829003909120600081815261016560205291909120549091506001600160a01b0316156200076c57604051633881599b60e11b815260040160405180910390fd5b6101625460408051631d5e528f60e21b815290516000926001600160a01b0316916375794a3c9160048083019260209291908290030181865afa158015620007b8573d6000803e3d6000fd5b505050506040513d601f19601f82011682018060405250810190620007de9190620031f3565b610162549091506001600160a01b03166275a317306200080260408b018b6200319a565b6040518463ffffffff1660e01b8152600401620008229392919062003236565b600060405180830381600087803b1580156200083d57600080fd5b505af115801562000852573d6000803e3d6000fd5b50505060008381526101666020526040808220849055610160546101625491516001600160a01b03928316602482015260448101869052929350169060640160408051601f198184030181529181526020820180516001600160e01b031663cd6dc68760e01b17905251620008c79062002b03565b620008d49291906200325d565b604051809103906000f080158015620008f1573d6000803e3d6000fd5b5061016154610162546040516001600160a01b0391821660248201526044810186905292935060009291169060640160408051601f198184030181529181526020820180516001600160e01b031663cd6dc68760e01b17905251620009569062002b03565b620009639291906200325d565b604051809103906000f08015801562000980573d6000803e3d6000fd5b5060408051600280825260608201835292935060009290916020830190803683370190505090508281600081518110620009be57620009be62003283565b60200260200101906001600160a01b031690816001600160a01b0316815250508181600181518110620009f557620009f562003283565b6001600160a01b03928316602091820292909201015261015f541662000a1c8b806200319a565b62000a2b60208e018e6200319a565b6101625460405162000a5295949392916001600160a01b0316908b908990602401620032df565b60408051601f198184030181529181526020820180516001600160e01b03166308af35d960e21b1790525162000a889062002b03565b62000a959291906200325d565b604051809103906000f08015801562000ab2573d6000803e3d6000fd5b5060008681526101656020526040812080546001600160a01b0319166001600160a01b0384161790559096505b815181101562000b7c5781818151811062000afe5762000afe62003283565b602090810291909101015160405162ed014d60e21b81526001600160a01b038981166004830152909116906303b4053490602401600060405180830381600087803b15801562000b4d57600080fd5b505af115801562000b62573d6000803e3d6000fd5b50505050808062000b739062003344565b91505062000adf565b5062000c648662000b8f88868862001ad0565b62000baa89868e8e9062000ba491906200336c565b62001d5b565b62000bc28a888862000bbc8f62003550565b62001efd565b8e806060019062000bd491906200319a565b8080601f016020809104026020016040519081016040528093929190818152602001838380828437600081840152601f19601f820116905080830192505050505050508f806080019062000c2991906200319a565b8080601f0160208091040260200160405190810160405280939291908181526020018383808284376000920191909152506200219f92505050565b62000c708683620022b8565b6101675461015f54604051632a99dcd560e21b81526001600160a01b038981166004830152918216602482015291169063aa67735490604401600060405180830381600087803b15801562000cc457600080fd5b505af115801562000cd9573d6000803e3d6000fd5b5050610162546001600160a01b031691506342842e0e905030336040516001600160e01b031960e085901b1681526001600160a01b0392831660048201529116602482015260448101879052606401600060405180830381600087803b15801562000d4357600080fd5b505af115801562000d58573d6000803e3d6000fd5b5050505062000d643390565b6001600160a01b039081169087167f78d7e431fd0a46d11f5c8889cf2db64699be1f95ccb8b1419211c83bcdbce58062000da260208e018e6200319a565b60405162000db292919062003615565b60405180910390a35050505050620006386001609755565b6001600160a01b037f000000000000000000000000000000000000000000000000000000000000000016300362000e1e5760405162461bcd60e51b815260040162000e15906200362b565b60405180910390fd5b7f00000000000000000000000000000000000000000000000000000000000000006001600160a01b031662000e696000805160206200412f833981519152546001600160a01b031690565b6001600160a01b03161462000e925760405162461bcd60e51b815260040162000e159062003677565b62000e9d81620024cc565b604080516000808252602082019092526200065b91839190620024d6565b62000ec562001850565b62000ecf6200264e565b6101638054911515600160a01b0260ff60a01b19909216919091179055565b6001600160a01b037f000000000000000000000000000000000000000000000000000000000000000016300362000f395760405162461bcd60e51b815260040162000e15906200362b565b7f00000000000000000000000000000000000000000000000000000000000000006001600160a01b031662000f846000805160206200412f833981519152546001600160a01b031690565b6001600160a01b03161462000fad5760405162461bcd60e51b815260040162000e159062003677565b62000fb882620024cc565b62000fc682826001620024d6565b5050565b6000306001600160a01b037f000000000000000000000000000000000000000000000000000000000000000016146200106c5760405162461bcd60e51b815260206004820152603860248201527f555550535570677261646561626c653a206d757374206e6f742062652063616c60448201527f6c6564207468726f7567682064656c656761746563616c6c0000000000000000606482015260840162000e15565b506000805160206200412f83398151915290565b6200108a62001850565b620010946200264e565b6001600160a01b03851615620010c15761015f80546001600160a01b0319166001600160a01b0387161790555b6001600160a01b03841615620010ee5761016080546001600160a01b0319166001600160a01b0386161790555b6001600160a01b038316156200111b5761016180546001600160a01b0319166001600160a01b0385161790555b6001600160a01b03821615620011485761016380546001600160a01b0319166001600160a01b0384161790555b6001600160a01b03811615620011755761016780546001600160a01b0319166001600160a01b0383161790555b5050505050565b600054610100900460ff16158080156200119d5750600054600160ff909116105b80620011b95750303b158015620011b9575060005460ff166001145b6200121e5760405162461bcd60e51b815260206004820152602e60248201527f496e697469616c697a61626c653a20636f6e747261637420697320616c72656160448201526d191e481a5b9a5d1a585b1a5e995960921b606482015260840162000e15565b6000805460ff19166001179055801562001242576000805461ff0019166101001790555b6200124c62002699565b62001256620026c3565b62001260620026f7565b6200126a6200272b565b6200127462002699565b61015f80546001600160a01b03808a166001600160a01b031992831617909255610160805489841690831617905561016180548884169083161790556101628054878416921691909117905561016380546001600160a81b03191691851691909117905560005b82518110156200133e57610164838281518110620012fd57620012fd62003283565b6020908102919091018101518254600181018455600093845291909220019062001328908262003749565b5080620013358162003344565b915050620012db565b50801562001386576000805461ff0019169055604051600181527f7f26b83ff96e1f2b6a682f133852f6798a09c465da95921460cefb38474024989060200160405180910390a15b50505050505050565b6200139962001850565b620013a560006200275f565b565b6000808383604051620013bc929190620031e3565b604080519182900390912060009081526101666020522054949350505050565b6000808383604051620013f1929190620031e3565b6040805191829003909120600090815261016560205220546001600160a01b0316949350505050565b61016481815481106200142c57600080fd5b9060005260206000200160009150905080546200144990620036c3565b80601f01602080910402602001604051908101604052809291908181526020018280546200147790620036c3565b8015620014c85780601f106200149c57610100808354040283529160200191620014c8565b820191906000526020600020905b815481529060010190602001808311620014aa57829003601f168201915b505050505081565b620014da62001850565b620014e46200264e565b60005b81811015620016b45760005b610164548110156200164f576200161b84848481811062001518576200151862003283565b90506020028101906200152c91906200319a565b8080601f01602080910402602001604051908101604052809392919081815260200183838082843760009201919091525050610164805490925085915081106200157a576200157a62003283565b9060005260206000200180546200159190620036c3565b80601f0160208091040260200160405190810160405280929190818152602001828054620015bf90620036c3565b8015620016105780601f10620015e45761010080835404028352916020019162001610565b820191906000526020600020905b815481529060010190602001808311620015f257829003601f168201915b5050505050620027b1565b156200163a57604051636571d65f60e01b815260040160405180910390fd5b80620016468162003344565b915050620014f3565b5061016483838381811062001668576200166862003283565b90506020028101906200167c91906200319a565b825460018101845560009384526020909320909201916200169e918362003815565b5080620016ab8162003344565b915050620014e7565b505050565b6060610164805480602002602001604051908101604052809291908181526020016000905b82821015620017945783829060005260206000200180546200170090620036c3565b80601f01602080910402602001604051908101604052809291908181526020018280546200172e90620036c3565b80156200177f5780601f1062001753576101008083540402835291602001916200177f565b820191906000526020600020905b8154815290600101906020018083116200176157829003601f168201915b505050505081526020019060010190620016de565b50505050905090565b620017a762001850565b6001600160a01b0381166200180e5760405162461bcd60e51b815260206004820152602660248201527f4f776e61626c653a206e6577206f776e657220697320746865207a65726f206160448201526564647265737360d01b606482015260840162000e15565b6200065b816200275f565b6200182362001850565b6200182d6200264e565b61016280546001600160a01b0319166001600160a01b0392909216919091179055565b6033546001600160a01b03163314620013a55760405162461bcd60e51b815260206004820181905260248201527f4f776e61626c653a2063616c6c6572206973206e6f7420746865206f776e6572604482015260640162000e15565b620018b6620019a0565b6065805460ff191660011790557f62e78cea01bee320cd4e420270b5ea74000d11b0c9f74754ebdbfc544b05a258620018ec3390565b6040516001600160a01b03909116815260200160405180910390a1565b620019136200264e565b6065805460ff191690557f5db9ee0a495bf2e6ff9c91a7834c1ba4fdd244a5e8aa4e537bd38aeae4b073aa33620018ec565b600260975403620019995760405162461bcd60e51b815260206004820152601f60248201527f5265656e7472616e637947756172643a207265656e7472616e742063616c6c00604482015260640162000e15565b6002609755565b60655460ff1615620013a55760405162461bcd60e51b815260206004820152601060248201526f14185d5cd8589b194e881c185d5cd95960821b604482015260640162000e15565b61016354600160a01b900460ff16801562001a7e5750610163546001600160a01b03166370a08231336040516001600160e01b031960e084901b1681526001600160a01b039091166004820152602401602060405180830381865afa15801562001a56573d6000803e3d6000fd5b505050506040513d601f19601f8201168201806040525081019062001a7c9190620031f3565b155b15620013a557604051631eb49d6d60e11b815260040160405180910390fd5b805181906002118062001ab1575080516020105b1562000fc65760405163354b556f60e11b815260040160405180910390fd5b604080516001808252818301909252600091829190816020015b604080516080810182526000808252602080830182905292820152606080820152825260001990920191018162001aea5750506040805160018082528183019092529192506000919060208083019080368337019050509050838160008151811062001b5a5762001b5a62003283565b60209081029190910181019190915260408051608081018252610162546001600160a01b03168152600192810183905290810191909152606081018290528251839060009062001bae5762001bae62003283565b6020908102919091010152604080516001808252818301909252600091816020015b60408051808201909152600081526060602082015281526020019060019003908162001bd05790505090506040518060400160405280876001600160a01b031681526020018460405160200162001c28919062003913565b6040516020818303038152906040528152508160008151811062001c505762001c5062003283565b6020026020010181905250866001600160a01b0316638fcd793d6040518060400160405280600581526020016427bbb732b960d91b815250610164846040518463ffffffff1660e01b815260040162001cac9392919062003a22565b6020604051808303816000875af115801562001ccc573d6000803e3d6000fd5b505050506040513d601f19601f8201168201806040525081019062001cf29190620031f3565b6040516324ccd58b60e11b8152600481018290529094506001600160a01b03881690634999ab1690602401600060405180830381600087803b15801562001d3857600080fd5b505af115801562001d4d573d6000803e3d6000fd5b505050505050509392505050565b604080516001808252818301909252600091829190816020015b60408051808201909152600081526060602082015281526020019060019003908162001d75575050604080516001808252818301909252919250600091906020808301908036833701905050905060018160008151811062001ddb5762001ddb62003283565b60200260200101906001600160a01b031690816001600160a01b0316815250506040518060400160405280866001600160a01b031681526020018260405160200162001e28919062003b25565b6040516020818303038152906040528152508260008151811062001e505762001e5062003283565b6020026020010181905250856001600160a01b0316638fcd793d6040518060400160405280600881526020016745766572796f6e6560c01b81525086856040518463ffffffff1660e01b815260040162001ead9392919062003b3a565b6020604051808303816000875af115801562001ecd573d6000803e3d6000fd5b505050506040513d601f19601f8201168201806040525081019062001ef39190620031f3565b9695505050505050565b600081602001515160000362001f165750600062000638565b604080516001808252818301909252600091816020015b60408051808201909152600081526060602082015281526020019060019003908162001f2d579050509050604051806040016040528060006001600160a01b03168152602001604051806020016040528060008152508152508160008151811062001f9c5762001f9c62003283565b602090810291909101810191909152835190840151604051638fcd793d60e01b81526001600160a01b03891692638fcd793d9262001fdf92869060040162003b3a565b6020604051808303816000875af115801562001fff573d6000803e3d6000fd5b505050506040513d601f19601f82011682018060405250810190620020259190620031f3565b60608401515190925015620020db57856001600160a01b031663ba201ba8836040518060400160405280886001600160a01b03168152602001876060015160405160200162002075919062003b25565b6040516020818303038152906040528152506040518363ffffffff1660e01b8152600401620020a692919062003b79565b600060405180830381600087803b158015620020c157600080fd5b505af1158015620020d6573d6000803e3d6000fd5b505050505b826040015151600003620020f0575062000638565b856001600160a01b031663ba201ba8836040518060400160405280896001600160a01b03168152602001876040015160405160200162002131919062003913565b6040516020818303038152906040528152506040518363ffffffff1660e01b81526004016200216292919062003b79565b600060405180830381600087803b1580156200217d57600080fd5b505af115801562002192573d6000803e3d6000fd5b5050505050949350505050565b6040805160028082526060820183526000926020830190803683370190505090508581600081518110620021d757620021d762003283565b602090810291909101015283156200221257838160018151811062002200576200220062003283565b60200260200101818152505062002236565b848160018151811062002229576200222962003283565b6020026020010181815250505b6040516328fc1e7560e11b81526001600160a01b038816906351f83cea90620022689086908690869060040162003b94565b6020604051808303816000875af115801562002288573d6000803e3d6000fd5b505050506040513d601f19601f82011682018060405250810190620022ae9190620031f3565b5050505050505050565b610167546001600160a01b0316620022ce575050565b604080516001808252818301909252600091816020015b604080518082019091526000815260606020820152815260200190600190039081620022e5575050604080516001808252818301909252919250600091906020808301908036833750506101675482519293506001600160a01b03169183915060009062002357576200235762003283565b60200260200101906001600160a01b031690816001600160a01b0316815250506040518060400160405280846001600160a01b0316815260200182604051602001620023a4919062003b25565b60405160208183030381529060405281525082600081518110620023cc57620023cc62003283565b6020908102919091010152604080516001808252818301909252600091816020015b6060815260200190600190039081620023ee579050509050604051806040016040528060078152602001665570677261646560c81b815250816000815181106200243c576200243c62003283565b6020908102919091010152604051638fcd793d60e01b81526001600160a01b03861690638fcd793d9062002477908490879060040162003bd3565b6020604051808303816000875af115801562002497573d6000803e3d6000fd5b505050506040513d601f19601f82011682018060405250810190620024bd9190620031f3565b505050505050565b6001609755565b6200065b62001850565b7f4910fdfa16fed3260ed0e7147f7cc6da11a60208b5b9406d12a635614ffd91435460ff16156200250c57620016b4836200280e565b826001600160a01b03166352d1902d6040518163ffffffff1660e01b8152600401602060405180830381865afa92505050801562002569575060408051601f3d908101601f191682019092526200256691810190620031f3565b60015b620025ce5760405162461bcd60e51b815260206004820152602e60248201527f45524331393637557067726164653a206e657720696d706c656d656e7461746960448201526d6f6e206973206e6f74205555505360901b606482015260840162000e15565b6000805160206200412f8339815191528114620026405760405162461bcd60e51b815260206004820152602960248201527f45524331393637557067726164653a20756e737570706f727465642070726f786044820152681a58589b195555525160ba1b606482015260840162000e15565b50620016b4838383620028ad565b60655460ff16620013a55760405162461bcd60e51b815260206004820152601460248201527314185d5cd8589b194e881b9bdd081c185d5cd95960621b604482015260640162000e15565b600054610100900460ff16620013a55760405162461bcd60e51b815260040162000e159062003c1a565b600054610100900460ff16620026ed5760405162461bcd60e51b815260040162000e159062003c1a565b620013a5620028de565b600054610100900460ff16620027215760405162461bcd60e51b815260040162000e159062003c1a565b620013a562002913565b600054610100900460ff16620027555760405162461bcd60e51b815260040162000e159062003c1a565b620013a562002949565b603380546001600160a01b038381166001600160a01b0319831681179093556040519116919082907f8be0079c531659141344cd1fd0a4f28419497f9722a3daafe3b4186f6b6457e090600090a35050565b600081604051602001620027c69190620030d2565b6040516020818303038152906040528051906020012083604051602001620027ef9190620030d2565b6040516020818303038152906040528051906020012014905092915050565b6001600160a01b0381163b6200287d5760405162461bcd60e51b815260206004820152602d60248201527f455243313936373a206e657720696d706c656d656e746174696f6e206973206e60448201526c1bdd08184818dbdb9d1c9858dd609a1b606482015260840162000e15565b6000805160206200412f83398151915280546001600160a01b0319166001600160a01b0392909216919091179055565b620028b88362002973565b600082511180620028c65750805b15620016b457620028d88383620029b5565b50505050565b600054610100900460ff16620029085760405162461bcd60e51b815260040162000e159062003c1a565b620013a5336200275f565b600054610100900460ff166200293d5760405162461bcd60e51b815260040162000e159062003c1a565b6065805460ff19169055565b600054610100900460ff16620024c55760405162461bcd60e51b815260040162000e159062003c1a565b6200297e816200280e565b6040516001600160a01b038216907fbc7cd75a20ee27fd9adebab32041f755214dbc6bffa90cc0225b39da2e5c2d3b90600090a250565b60606001600160a01b0383163b62002a1f5760405162461bcd60e51b815260206004820152602660248201527f416464726573733a2064656c65676174652063616c6c20746f206e6f6e2d636f6044820152651b9d1c9858dd60d21b606482015260840162000e15565b600080846001600160a01b03168460405162002a3c919062003c65565b600060405180830381855af49150503d806000811462002a79576040519150601f19603f3d011682016040523d82523d6000602084013e62002a7e565b606091505b509150915062002aa982826040518060600160405280602781526020016200414f6027913962002ab2565b95945050505050565b6060831562002ac357508162002acf565b62002acf838362002ad6565b9392505050565b81511562002ae75781518083602001fd5b8060405162461bcd60e51b815260040162000e159190620030d2565b6104ab8062003c8483390190565b80356001600160a01b038116811462002b2957600080fd5b919050565b634e487b7160e01b600052604160045260246000fd5b604051608081016001600160401b038111828210171562002b695762002b6962002b2e565b60405290565b604051601f8201601f191681016001600160401b038111828210171562002b9a5762002b9a62002b2e565b604052919050565b600082601f83011262002bb457600080fd5b81356001600160401b0381111562002bd05762002bd062002b2e565b62002be5601f8201601f191660200162002b6f565b81815284602083860101111562002bfb57600080fd5b816020850160208301376000918101602001919091529392505050565b6000806000806080858703121562002c2f57600080fd5b62002c3a8562002b11565b935062002c4a6020860162002b11565b92506040850135915060608501356001600160401b0381111562002c6d57600080fd5b62002c7b8782880162002ba2565b91505092959194509250565b8035801515811462002b2957600080fd5b60006020828403121562002cab57600080fd5b62002acf8262002c87565b60008083601f84011262002cc957600080fd5b5081356001600160401b0381111562002ce157600080fd5b6020830191508360208260051b850101111562002cfd57600080fd5b9250929050565b6000806000806060858703121562002d1b57600080fd5b84356001600160401b038082111562002d3357600080fd5b9086019060a0828903121562002d4857600080fd5b9094506020860135908082111562002d5f57600080fd5b62002d6d8883890162002cb6565b9095509350604087013591508082111562002d8757600080fd5b5085016080818803121562002d9b57600080fd5b939692955090935050565b60006020828403121562002db957600080fd5b5035919050565b60006020828403121562002dd357600080fd5b62002acf8262002b11565b6000806040838503121562002df257600080fd5b62002dfd8362002b11565b915060208301356001600160401b0381111562002e1957600080fd5b62002e278582860162002ba2565b9150509250929050565b600080600080600060a0868803121562002e4a57600080fd5b62002e558662002b11565b945062002e656020870162002b11565b935062002e756040870162002b11565b925062002e856060870162002b11565b915062002e956080870162002b11565b90509295509295909350565b60006001600160401b0382111562002ebd5762002ebd62002b2e565b5060051b60200190565b600062002ede62002ed88462002ea1565b62002b6f565b8381529050602080820190600585901b84018681111562002efe57600080fd5b845b8181101562002f3e5780356001600160401b0381111562002f215760008081fd5b62002f2f8982890162002ba2565b85525092820192820162002f00565b505050509392505050565b600082601f83011262002f5b57600080fd5b62002acf8383356020850162002ec7565b60008060008060008060c0878903121562002f8657600080fd5b62002f918762002b11565b955062002fa16020880162002b11565b945062002fb16040880162002b11565b935062002fc16060880162002b11565b925062002fd16080880162002b11565b915060a08701356001600160401b0381111562002fed57600080fd5b62002ffb89828a0162002f49565b9150509295509295509295565b600080602083850312156200301c57600080fd5b82356001600160401b03808211156200303457600080fd5b818501915085601f8301126200304957600080fd5b8135818111156200305957600080fd5b8660208285010111156200306c57600080fd5b60209290920196919550909350505050565b60005b838110156200309b57818101518382015260200162003081565b50506000910152565b60008151808452620030be8160208601602086016200307e565b601f01601f19169290920160200192915050565b60208152600062002acf6020830184620030a4565b60008060208385031215620030fb57600080fd5b82356001600160401b038111156200311257600080fd5b620031208582860162002cb6565b90969095509350505050565b600081518084526020808501808196508360051b8101915082860160005b858110156200317857828403895262003165848351620030a4565b988501989350908401906001016200314a565b5091979650505050505050565b60208152600062002acf60208301846200312c565b6000808335601e19843603018112620031b257600080fd5b8301803591506001600160401b03821115620031cd57600080fd5b60200191503681900382131562002cfd57600080fd5b8183823760009101908152919050565b6000602082840312156200320657600080fd5b5051919050565b81835281816020850137506000828201602090810191909152601f909101601f19169091010190565b6001600160a01b038416815260406020820181905260009062002aa990830184866200320d565b6001600160a01b03831681526040602082018190526000906200063890830184620030a4565b634e487b7160e01b600052603260045260246000fd5b600081518084526020808501945080840160005b83811015620032d45781516001600160a01b031687529582019590820190600101620032ad565b509495945050505050565b60a081526000620032f560a08301898b6200320d565b82810360208401526200330a81888a6200320d565b6001600160a01b0387166040850152606084018690528381036080850152905062003336818562003299565b9a9950505050505050505050565b6000600182016200336557634e487b7160e01b600052601160045260246000fd5b5060010190565b600062002acf36848462002ec7565b600082601f8301126200338d57600080fd5b81356020620033a062002ed88362002ea1565b828152600592831b8501820192828201919087851115620033c057600080fd5b8387015b85811015620034cd5780356001600160401b0380821115620033e65760008081fd5b908901906080828c03601f1901811315620034015760008081fd5b6200340b62002b44565b6200341889850162002b11565b81526040808501358a83015260606200343381870162002c87565b838301529285013592848411156200344b5760008081fd5b83860195508e603f8701126200346357600094508485fd5b8a86013594506200347862002ed88662002ea1565b85815294881b86018201948b810194508f861115620034975760008081fd5b958201955b85871015620034b75786358552958b0195938b01936200349c565b90830152508752505050928401928401620033c4565b5090979650505050505050565b600082601f830112620034ec57600080fd5b81356020620034ff62002ed88362002ea1565b82815260059290921b840181019181810190868411156200351f57600080fd5b8286015b848110156200354557620035378162002b11565b835291830191830162003523565b509695505050505050565b6000608082360312156200356357600080fd5b6200356d62002b44565b82356001600160401b03808211156200358557600080fd5b620035933683870162002ba2565b83526020850135915080821115620035aa57600080fd5b620035b83683870162002f49565b60208401526040850135915080821115620035d257600080fd5b620035e0368387016200337b565b60408401526060850135915080821115620035fa57600080fd5b506200360936828601620034da565b60608301525092915050565b602081526000620006386020830184866200320d565b6020808252602c908201527f46756e6374696f6e206d7573742062652063616c6c6564207468726f7567682060408201526b19195b1959d85d1958d85b1b60a21b606082015260800190565b6020808252602c908201527f46756e6374696f6e206d7573742062652063616c6c6564207468726f7567682060408201526b6163746976652070726f787960a01b606082015260800190565b600181811c90821680620036d857607f821691505b602082108103620036f957634e487b7160e01b600052602260045260246000fd5b50919050565b601f821115620016b457600081815260208120601f850160051c81016020861015620037285750805b601f850160051c820191505b81811015620024bd5782815560010162003734565b81516001600160401b0381111562003765576200376562002b2e565b6200377d81620037768454620036c3565b84620036ff565b602080601f831160018114620037b557600084156200379c5750858301515b600019600386901b1c1916600185901b178555620024bd565b600085815260208120601f198616915b82811015620037e657888601518255948401946001909101908401620037c5565b5085821015620038055787850151600019600388901b60f8161c191681555b5050505050600190811b01905550565b6001600160401b038311156200382f576200382f62002b2e565b6200384783620038408354620036c3565b83620036ff565b6000601f8411600181146200387e5760008515620038655750838201355b600019600387901b1c1916600186901b17835562001175565b600083815260209020601f19861690835b82811015620038b157868501358255602094850194600190920191016200388f565b5086821015620038cf5760001960f88860031b161c19848701351681555b505060018560011b0183555050505050565b600081518084526020808501945080840160005b83811015620032d457815187529582019590820190600101620038f5565b60006020808301818452808551808352604092508286019150828160051b87010184880160005b838110156200399f57888303603f19018552815180516001600160a01b031684528781015188850152868101511515878501526060908101516080918501829052906200398a81860183620038e1565b9689019694505050908601906001016200393a565b509098975050505050505050565b60018060a01b0381511682526000602082015160406020850152620006386040850182620030a4565b600081518084526020808501808196508360051b8101915082860160005b858110156200317857828403895262003a0f848351620039ad565b98850198935090840190600101620039f4565b60608152600062003a376060830186620030a4565b602083820381850152818654808452828401915060058382821b86010160008a8152858120815b8581101562003aff57601f1989850301875282825462003a7e81620036c3565b8087526001828116801562003a9c576001811462003ab65762003ae7565b60ff198416898e01528215158a1b89018d01945062003ae7565b8688528c8820885b8481101562003adf5781548f828d01015283820191508e8101905062003abe565b8a018e019550505b50998b01999296505050919091019060010162003a5e565b505050878103604089015262003b16818a620039d6565b9b9a5050505050505050505050565b60208152600062002acf602083018462003299565b60608152600062003b4f6060830186620030a4565b828103602084015262003b6381866200312c565b9050828103604084015262001ef38185620039d6565b828152604060208201526000620006386040830184620039ad565b60608152600062003ba96060830186620030a4565b828103602084015262003bbd8186620030a4565b9050828103604084015262001ef38185620038e1565b6060815260076060820152665570677261646560c81b608082015260a06020820152600062003c0660a08301856200312c565b828103604084015262002aa98185620039d6565b6020808252602b908201527f496e697469616c697a61626c653a20636f6e7472616374206973206e6f74206960408201526a6e697469616c697a696e6760a81b606082015260800190565b6000825162003c798184602087016200307e565b919091019291505056fe60806040526040516104ab3803806104ab833981016040819052610022916102de565b61002e82826000610035565b50506103fb565b61003e83610061565b60008251118061004b5750805b1561005c5761005a83836100a1565b505b505050565b61006a816100cd565b6040516001600160a01b038216907fbc7cd75a20ee27fd9adebab32041f755214dbc6bffa90cc0225b39da2e5c2d3b90600090a250565b60606100c6838360405180606001604052806027815260200161048460279139610180565b9392505050565b6001600160a01b0381163b61013f5760405162461bcd60e51b815260206004820152602d60248201527f455243313936373a206e657720696d706c656d656e746174696f6e206973206e60448201526c1bdd08184818dbdb9d1c9858dd609a1b60648201526084015b60405180910390fd5b7f360894a13ba1a3210667c828492db98dca3e2076cc3735a920a3ca505d382bbc80546001600160a01b0319166001600160a01b0392909216919091179055565b6060600080856001600160a01b03168560405161019d91906103ac565b600060405180830381855af49150503d80600081146101d8576040519150601f19603f3d011682016040523d82523d6000602084013e6101dd565b606091505b5090925090506101ef868383876101f9565b9695505050505050565b60608315610268578251600003610261576001600160a01b0385163b6102615760405162461bcd60e51b815260206004820152601d60248201527f416464726573733a2063616c6c20746f206e6f6e2d636f6e74726163740000006044820152606401610136565b5081610272565b610272838361027a565b949350505050565b81511561028a5781518083602001fd5b8060405162461bcd60e51b815260040161013691906103c8565b634e487b7160e01b600052604160045260246000fd5b60005b838110156102d55781810151838201526020016102bd565b50506000910152565b600080604083850312156102f157600080fd5b82516001600160a01b038116811461030857600080fd5b60208401519092506001600160401b038082111561032557600080fd5b818501915085601f83011261033957600080fd5b81518181111561034b5761034b6102a4565b604051601f8201601f19908116603f01168101908382118183101715610373576103736102a4565b8160405282815288602084870101111561038c57600080fd5b61039d8360208301602088016102ba565b80955050505050509250929050565b600082516103be8184602087016102ba565b9190910192915050565b60208152600082518060208401526103e78160408501602087016102ba565b601f01601f19169190910160400192915050565b607b806104096000396000f3fe608060405236601057600e6013565b005b600e5b601f601b6021565b6058565b565b600060537f360894a13ba1a3210667c828492db98dca3e2076cc3735a920a3ca505d382bbc546001600160a01b031690565b905090565b3660008037600080366000845af43d6000803e8080156076573d6000f35b3d6000fd416464726573733a206c6f772d6c6576656c2064656c65676174652063616c6c206661696c6564360894a13ba1a3210667c828492db98dca3e2076cc3735a920a3ca505d382bbc416464726573733a206c6f772d6c6576656c2064656c65676174652063616c6c206661696c6564",
    "linkReferences": {}
  },
  "methodIdentifiers": {
    "GATE_TOKEN_ADDRESS()": "ed267116",
    "SPACE_IMPLEMENTATION_ADDRESS()": "f21cd401",
    "SPACE_TOKEN_ADDRESS()": "683c72b6",
    "SPACE_UPGRADES_ADDRESS()": "3a70f983",
    "TOKEN_IMPLEMENTATION_ADDRESS()": "cfc27037",
    "USER_IMPLEMENTATION_ADDRESS()": "08bc0b4b",
    "addOwnerPermissions(string[])": "be8b5967",
    "createSpace((string,string,string,string,string),string[],(string,string[],(address,uint256,bool,uint256[])[],address[]))": "224868ad",
    "gatingEnabled()": "c45f396b",
    "getOwnerPermissions()": "df2cd9fe",
    "getSpaceAddressByNetworkId(string)": "96dc21e4",
    "getTokenIdByNetworkId(string)": "8a9ef426",
    "initialize(address,address,address,address,address,string[])": "6e9ea7ca",
    "onERC721Received(address,address,uint256,bytes)": "150b7a02",
    "owner()": "8da5cb5b",
    "ownerPermissions(uint256)": "b28032f9",
    "paused()": "5c975abb",
    "proxiableUUID()": "52d1902d",
    "renounceOwnership()": "715018a6",
    "setGatingEnabled(bool)": "4689cd04",
    "setPaused(bool)": "16c38b3c",
    "setSpaceToken(address)": "f6ac70b7",
    "spaceByHash(bytes32)": "3312540a",
    "tokenByHash(bytes32)": "f3aba305",
    "transferOwnership(address)": "f2fde38b",
    "updateImplementations(address,address,address,address,address)": "6c54acaf",
    "upgradeTo(address)": "3659cfe6",
    "upgradeToAndCall(address,bytes)": "4f1ef286"
  },
  "id": 83
}