{
  "abi": [
    {
      "inputs": [],
      "stateMutability": "nonpayable",
      "type": "constructor"
    },
    {
      "inputs": [],
      "name": "AddressNotFound",
      "type": "error"
    },
    {
      "inputs": [],
      "name": "EntitlementNotFound",
      "type": "error"
    },
    {
      "inputs": [],
      "name": "NotAllowed",
      "type": "error"
    },
    {
      "inputs": [],
      "name": "QuantityNotFound",
      "type": "error"
    },
    {
      "inputs": [],
      "name": "RoleAlreadyExists",
      "type": "error"
    },
    {
      "anonymous": false,
      "inputs": [
        {
          "indexed": false,
          "internalType": "address",
          "name": "previousAdmin",
          "type": "address"
        },
        {
          "indexed": false,
          "internalType": "address",
          "name": "newAdmin",
          "type": "address"
        }
      ],
      "name": "AdminChanged",
      "type": "event"
    },
    {
      "anonymous": false,
      "inputs": [
        {
          "indexed": true,
          "internalType": "address",
          "name": "beacon",
          "type": "address"
        }
      ],
      "name": "BeaconUpgraded",
      "type": "event"
    },
    {
      "anonymous": false,
      "inputs": [
        {
          "indexed": false,
          "internalType": "uint8",
          "name": "version",
          "type": "uint8"
        }
      ],
      "name": "Initialized",
      "type": "event"
    },
    {
      "anonymous": false,
      "inputs": [
        {
          "indexed": true,
          "internalType": "address",
          "name": "implementation",
          "type": "address"
        }
      ],
      "name": "Upgraded",
      "type": "event"
    },
    {
      "inputs": [],
      "name": "SPACE_ADDRESS",
      "outputs": [
        {
          "internalType": "address",
          "name": "",
          "type": "address"
        }
      ],
      "stateMutability": "view",
      "type": "function"
    },
    {
      "inputs": [],
      "name": "TOKEN_ADDRESS",
      "outputs": [
        {
          "internalType": "address",
          "name": "",
          "type": "address"
        }
      ],
      "stateMutability": "view",
      "type": "function"
    },
    {
      "inputs": [],
      "name": "TOKEN_ID",
      "outputs": [
        {
          "internalType": "uint256",
          "name": "",
          "type": "uint256"
        }
      ],
      "stateMutability": "view",
      "type": "function"
    },
    {
      "inputs": [
        {
          "internalType": "string",
          "name": "channelId",
          "type": "string"
        },
        {
          "internalType": "uint256",
          "name": "roleId",
          "type": "uint256"
        }
      ],
      "name": "addRoleIdToChannel",
      "outputs": [],
      "stateMutability": "nonpayable",
      "type": "function"
    },
    {
      "inputs": [
        {
          "internalType": "uint256",
          "name": "",
          "type": "uint256"
        }
      ],
      "name": "allEntitlementIds",
      "outputs": [
        {
          "internalType": "bytes32",
          "name": "",
          "type": "bytes32"
        }
      ],
      "stateMutability": "view",
      "type": "function"
    },
    {
      "inputs": [],
      "name": "description",
      "outputs": [
        {
          "internalType": "string",
          "name": "",
          "type": "string"
        }
      ],
      "stateMutability": "view",
      "type": "function"
    },
    {
      "inputs": [
        {
          "components": [
            {
              "internalType": "address",
              "name": "contractAddress",
              "type": "address"
            },
            {
              "internalType": "uint256",
              "name": "quantity",
              "type": "uint256"
            },
            {
              "internalType": "bool",
              "name": "isSingleToken",
              "type": "bool"
            },
            {
              "internalType": "uint256[]",
              "name": "tokenIds",
              "type": "uint256[]"
            }
          ],
          "internalType": "struct DataTypes.ExternalToken[]",
          "name": "tokens",
          "type": "tuple[]"
        }
      ],
      "name": "encodeExternalTokens",
      "outputs": [],
      "stateMutability": "pure",
      "type": "function"
    },
    {
      "inputs": [
        {
          "internalType": "uint256",
          "name": "",
          "type": "uint256"
        },
        {
          "internalType": "uint256",
          "name": "",
          "type": "uint256"
        }
      ],
      "name": "entitlementIdsByRoleId",
      "outputs": [
        {
          "internalType": "bytes32",
          "name": "",
          "type": "bytes32"
        }
      ],
      "stateMutability": "view",
      "type": "function"
    },
    {
      "inputs": [
        {
          "internalType": "bytes32",
          "name": "",
          "type": "bytes32"
        }
      ],
      "name": "entitlementsById",
      "outputs": [
        {
          "internalType": "uint256",
          "name": "roleId",
          "type": "uint256"
        },
        {
          "internalType": "address",
          "name": "grantedBy",
          "type": "address"
        },
        {
          "internalType": "uint256",
          "name": "grantedTime",
          "type": "uint256"
        }
      ],
      "stateMutability": "view",
      "type": "function"
    },
    {
      "inputs": [
        {
          "internalType": "uint256",
          "name": "roleId",
          "type": "uint256"
        }
      ],
      "name": "getEntitlementDataByRoleId",
      "outputs": [
        {
          "internalType": "bytes[]",
          "name": "",
          "type": "bytes[]"
        }
      ],
      "stateMutability": "view",
      "type": "function"
    },
    {
      "inputs": [
        {
          "internalType": "string",
          "name": "channelId",
          "type": "string"
        }
      ],
      "name": "getRoleIdsByChannelId",
      "outputs": [
        {
          "internalType": "uint256[]",
          "name": "",
          "type": "uint256[]"
        }
      ],
      "stateMutability": "view",
      "type": "function"
    },
    {
      "inputs": [
        {
          "internalType": "address",
          "name": "user",
          "type": "address"
        }
      ],
      "name": "getUserRoles",
      "outputs": [
        {
          "components": [
            {
              "internalType": "uint256",
              "name": "roleId",
              "type": "uint256"
            },
            {
              "internalType": "string",
              "name": "name",
              "type": "string"
            }
          ],
          "internalType": "struct DataTypes.Role[]",
          "name": "",
          "type": "tuple[]"
        }
      ],
      "stateMutability": "view",
      "type": "function"
    },
    {
      "inputs": [
        {
          "internalType": "address",
          "name": "_tokenAddress",
          "type": "address"
        },
        {
          "internalType": "uint256",
          "name": "_tokenId",
          "type": "uint256"
        }
      ],
      "name": "initialize",
      "outputs": [],
      "stateMutability": "nonpayable",
      "type": "function"
    },
    {
      "inputs": [
        {
          "internalType": "string",
          "name": "channelId",
          "type": "string"
        },
        {
          "internalType": "address",
          "name": "user",
          "type": "address"
        },
        {
          "internalType": "bytes32",
          "name": "permission",
          "type": "bytes32"
        }
      ],
      "name": "isEntitled",
      "outputs": [
        {
          "internalType": "bool",
          "name": "",
          "type": "bool"
        }
      ],
      "stateMutability": "view",
      "type": "function"
    },
    {
      "inputs": [],
      "name": "moduleType",
      "outputs": [
        {
          "internalType": "string",
          "name": "",
          "type": "string"
        }
      ],
      "stateMutability": "view",
      "type": "function"
    },
    {
      "inputs": [],
      "name": "name",
      "outputs": [
        {
          "internalType": "string",
          "name": "",
          "type": "string"
        }
      ],
      "stateMutability": "view",
      "type": "function"
    },
    {
      "inputs": [],
      "name": "proxiableUUID",
      "outputs": [
        {
          "internalType": "bytes32",
          "name": "",
          "type": "bytes32"
        }
      ],
      "stateMutability": "view",
      "type": "function"
    },
    {
      "inputs": [
        {
          "internalType": "uint256",
          "name": "roleId",
          "type": "uint256"
        },
        {
          "internalType": "bytes",
          "name": "entitlementData",
          "type": "bytes"
        }
      ],
      "name": "removeEntitlement",
      "outputs": [
        {
          "internalType": "bytes32",
          "name": "entitlementId",
          "type": "bytes32"
        }
      ],
      "stateMutability": "nonpayable",
      "type": "function"
    },
    {
      "inputs": [
        {
          "internalType": "string",
          "name": "channelId",
          "type": "string"
        },
        {
          "internalType": "uint256",
          "name": "roleId",
          "type": "uint256"
        }
      ],
      "name": "removeRoleIdFromChannel",
      "outputs": [],
      "stateMutability": "nonpayable",
      "type": "function"
    },
    {
      "inputs": [
        {
          "internalType": "bytes32",
          "name": "",
          "type": "bytes32"
        },
        {
          "internalType": "uint256",
          "name": "",
          "type": "uint256"
        }
      ],
      "name": "roleIdsByChannelId",
      "outputs": [
        {
          "internalType": "uint256",
          "name": "",
          "type": "uint256"
        }
      ],
      "stateMutability": "view",
      "type": "function"
    },
    {
      "inputs": [
        {
          "internalType": "uint256",
          "name": "roleId",
          "type": "uint256"
        },
        {
          "internalType": "bytes",
          "name": "entitlementData",
          "type": "bytes"
        }
      ],
      "name": "setEntitlement",
      "outputs": [
        {
          "internalType": "bytes32",
          "name": "entitlementId",
          "type": "bytes32"
        }
      ],
      "stateMutability": "nonpayable",
      "type": "function"
    },
    {
      "inputs": [
        {
          "internalType": "address",
          "name": "_space",
          "type": "address"
        }
      ],
      "name": "setSpace",
      "outputs": [],
      "stateMutability": "nonpayable",
      "type": "function"
    },
    {
      "inputs": [
        {
          "internalType": "bytes4",
          "name": "interfaceId",
          "type": "bytes4"
        }
      ],
      "name": "supportsInterface",
      "outputs": [
        {
          "internalType": "bool",
          "name": "",
          "type": "bool"
        }
      ],
      "stateMutability": "view",
      "type": "function"
    },
    {
      "inputs": [
        {
          "internalType": "address",
          "name": "newImplementation",
          "type": "address"
        }
      ],
      "name": "upgradeTo",
      "outputs": [],
      "stateMutability": "nonpayable",
      "type": "function"
    },
    {
      "inputs": [
        {
          "internalType": "address",
          "name": "newImplementation",
          "type": "address"
        },
        {
          "internalType": "bytes",
          "name": "data",
          "type": "bytes"
        }
      ],
      "name": "upgradeToAndCall",
      "outputs": [],
      "stateMutability": "payable",
      "type": "function"
    }
  ],
  "bytecode": {
    "object": "0x60a0604052306080523480156200001557600080fd5b506200002062000026565b620000e8565b600054610100900460ff1615620000935760405162461bcd60e51b815260206004820152602760248201527f496e697469616c697a61626c653a20636f6e747261637420697320696e697469604482015266616c697a696e6760c81b606482015260840160405180910390fd5b60005460ff9081161015620000e6576000805460ff191660ff9081179091556040519081527f7f26b83ff96e1f2b6a682f133852f6798a09c465da95921460cefb38474024989060200160405180910390a15b565b608051612e5362000120600039600081816109c501528181610a0e01528181610b3901528181610b790152610c080152612e536000f3fe6080604052600436106101655760003560e01c806352d1902d116100d1578063b76761701161008a578063d3b2cfbf11610064578063d3b2cfbf146104b3578063ef8be5741461051b578063f32f83ce1461053b578063fa6d1adf1461055b57600080fd5b8063b767617014610453578063c513be7714610473578063cd6dc6871461049357600080fd5b806352d1902d1461036b5780635427e86a146103805780636465e69f1461039f5780637284e416146103db57806389a890021461041d57806397d038d11461043357600080fd5b80630bdf5300116101235780630bdf5300146102865780631eee07b2146102be57806334322eff146102eb5780633659cfe61461030b57806341634aee1461032b5780634f1ef2861461035857600080fd5b8062b4eaa81461016a57806301ffc9a71461019f57806303b40534146101bf578063053acb40146101e157806306a36aee1461020f57806306fdde031461023c575b600080fd5b34801561017657600080fd5b5061018a610185366004612374565b61057b565b60405190151581526020015b60405180910390f35b3480156101ab57600080fd5b5061018a6101ba3660046123d0565b6105cf565b3480156101cb57600080fd5b506101df6101da3660046123fa565b610606565b005b3480156101ed57600080fd5b506102016101fc366004612417565b6106c5565b604051908152602001610196565b34801561021b57600080fd5b5061022f61022a3660046123fa565b6106f6565b6040516101969190612489565b34801561024857600080fd5b5061027960405180604001604052806011815260200170151bdad95b88115b9d1a5d1b195b595b9d607a1b81525081565b60405161019691906124fd565b34801561029257600080fd5b5060ca546102a6906001600160a01b031681565b6040516001600160a01b039091168152602001610196565b3480156102ca57600080fd5b506102de6102d9366004612510565b61087c565b6040516101969190612529565b3480156102f757600080fd5b5060c9546102a6906001600160a01b031681565b34801561031757600080fd5b506101df6103263660046123fa565b6109bb565b34801561033757600080fd5b5061034b61034636600461258b565b610aa3565b60405161019691906125cc565b6101df6103663660046126a5565b610b2f565b34801561037757600080fd5b50610201610bfb565b34801561038c57600080fd5b506101df61039b366004612737565b5050565b3480156103ab57600080fd5b506102796040518060400160405280601081526020016f151bdad95b915b9d1a5d1b195b595b9d60821b81525081565b3480156103e757600080fd5b5061027960405180604001604052806016815260200175456e7469746c656d656e7420666f7220746f6b656e7360501b81525081565b34801561042957600080fd5b5061020160cb5481565b34801561043f57600080fd5b5061020161044e366004612417565b610cae565b34801561045f57600080fd5b5061020161046e366004612510565b610cca565b34801561047f57600080fd5b506101df61048e3660046127ab565b610ceb565b34801561049f57600080fd5b506101df6104ae3660046127f6565b610e20565b3480156104bf57600080fd5b506104f86104ce366004612510565b60cc6020526000908152604090208054600182015460029092015490916001600160a01b03169083565b604080519384526001600160a01b03909216602084015290820152606001610196565b34801561052757600080fd5b50610201610536366004612822565b610f63565b34801561054757600080fd5b506101df6105563660046127ab565b6111dd565b34801561056757600080fd5b50610201610576366004612822565b61130c565b600083156105bd576105b6858560405160200161059992919061286d565b6040516020818303038152906040528051906020012084846113d6565b90506105c7565b6105b68383611530565b949350505050565b60006001600160e01b0319821663a485103160e01b148061060057506301ffc9a760e01b6001600160e01b03198316145b92915050565b3360ca5460cb546040516331a9108f60e11b815260048101919091526001600160a01b039283169290911690636352211e90602401602060405180830381865afa158015610658573d6000803e3d6000fd5b505050506040513d601f19601f8201168201806040525081019061067c919061287d565b6001600160a01b0316146106a357604051631eb49d6d60e11b815260040160405180910390fd5b60c980546001600160a01b0319166001600160a01b0392909216919091179055565b60cd60205281600052604060002081815481106106e157600080fd5b90600052602060002001600091509150505481565b60cf546060906000906001600160401b0381111561071657610716612610565b60405190808252806020026020018201604052801561075c57816020015b6040805180820190915260008152606060208201528152602001906001900390816107345790505b50905060005b60cf54811015610875576107938460cf83815481106107835761078361289a565b9060005260206000200154611738565b1561086357600060cc600060cf84815481106107b1576107b161289a565b600091825260208083209190910154835282019290925260409081019091205460c954915163784c872b60e01b8152600481018290529092506001600160a01b039091169063784c872b90602401600060405180830381865afa15801561081c573d6000803e3d6000fd5b505050506040513d6000823e601f3d908101601f1916820160405261084491908101906128f5565b8383815181106108565761085661289a565b6020026020010181905250505b8061086d81612997565b915050610762565b5092915050565b600081815260ce602090815260408083208054825181850281018501909352808352606094938301828280156108d157602002820191906000526020600020905b8154815260200190600101908083116108bd575b50505050509050600081516001600160401b038111156108f3576108f3612610565b60405190808252806020026020018201604052801561092657816020015b60608152602001906001900390816109115790505b50905060005b82518110156109b35760cc600084838151811061094b5761094b61289a565b6020026020010151815260200190815260200160002060030160405160200161097491906129b0565b6040516020818303038152906040528282815181106109955761099561289a565b602002602001018190525080806109ab90612997565b91505061092c565b509392505050565b6001600160a01b037f0000000000000000000000000000000000000000000000000000000000000000163003610a0c5760405162461bcd60e51b8152600401610a0390612a7a565b60405180910390fd5b7f00000000000000000000000000000000000000000000000000000000000000006001600160a01b0316610a55600080516020612e0c833981519152546001600160a01b031690565b6001600160a01b031614610a7b5760405162461bcd60e51b8152600401610a0390612ac6565b610a8481611952565b60408051600080825260208201909252610aa091839190611986565b50565b606060008383604051602001610aba92919061286d565b60408051601f198184030181528282528051602091820120600081815260cd83528390208054808402860184019094528385529094509190830182828015610b2157602002820191906000526020600020905b815481526020019060010190808311610b0d575b505050505091505092915050565b6001600160a01b037f0000000000000000000000000000000000000000000000000000000000000000163003610b775760405162461bcd60e51b8152600401610a0390612a7a565b7f00000000000000000000000000000000000000000000000000000000000000006001600160a01b0316610bc0600080516020612e0c833981519152546001600160a01b031690565b6001600160a01b031614610be65760405162461bcd60e51b8152600401610a0390612ac6565b610bef82611952565b61039b82826001611986565b6000306001600160a01b037f00000000000000000000000000000000000000000000000000000000000000001614610c9b5760405162461bcd60e51b815260206004820152603860248201527f555550535570677261646561626c653a206d757374206e6f742062652063616c60448201527f6c6564207468726f7567682064656c656761746563616c6c00000000000000006064820152608401610a03565b50600080516020612e0c83398151915290565b60ce60205281600052604060002081815481106106e157600080fd5b60cf8181548110610cda57600080fd5b600091825260209091200154905081565b60c9546001600160a01b0316336001600160a01b031614610d1f57604051631eb49d6d60e11b815260040160405180910390fd5b60008383604051602001610d3492919061286d565b60408051601f198184030181528282528051602091820120600081815260cd835283812080548085028701850190955284865291955093929091830182828015610d9d57602002820191906000526020600020905b815481526020019060010190808311610d89575b5050505050905060005b8151811015610dfb5783828281518110610dc357610dc361289a565b602002602001015103610de957604051636014eda760e11b815260040160405180910390fd5b80610df381612997565b915050610da7565b5050600090815260cd6020908152604082208054600181018255908352912001555050565b600054610100900460ff1615808015610e405750600054600160ff909116105b80610e5a5750303b158015610e5a575060005460ff166001145b610ebd5760405162461bcd60e51b815260206004820152602e60248201527f496e697469616c697a61626c653a20636f6e747261637420697320616c72656160448201526d191e481a5b9a5d1a585b1a5e995960921b6064820152608401610a03565b6000805460ff191660011790558015610ee0576000805461ff0019166101001790555b610ee8611af1565b610ef0611af1565b610ef8611af1565b60ca80546001600160a01b0319166001600160a01b03851617905560cb8290558015610f5e576000805461ff0019169055604051600181527f7f26b83ff96e1f2b6a682f133852f6798a09c465da95921460cefb38474024989060200160405180910390a15b505050565b60c9546000906001600160a01b0316336001600160a01b031614610f9a57604051631eb49d6d60e11b815260040160405180910390fd5b838383604051602001610faf93929190612b12565b60408051601f19818403018152919052805160209091012090506000610fd783850185612b5d565b90508051600003610ffb57604051633d9e48f360e21b815260040160405180910390fd5b60005b81518110156111555760006001600160a01b03168282815181106110245761102461289a565b6020026020010151600001516001600160a01b03160361105757604051636054b46960e01b815260040160405180910390fd5b8181815181106110695761106961289a565b6020026020010151602001516000036110955760405163f2d34be760e01b815260040160405180910390fd5b60cc60008481526020019081526020016000206003018282815181106110bd576110bd61289a565b602090810291909101810151825460018082018555600094855293839020825160049092020180546001600160a01b0319166001600160a01b039092169190911781558183015193810193909355604081015160028401805460ff19169115159190911790556060810151805191939261113f92600385019290910190612237565b505050808061114d90612997565b915050610ffe565b5050600081815260cc60209081526040808320878155600180820180546001600160a01b031916331790554260029092019190915596835260ce82528220805480880182559083529082200182905560cf8054958601815590527facb8d954e2cfef495862221e91bd7523613cf8808827cb33edfe4904cc51bf299093018390555090919050565b60c9546001600160a01b0316336001600160a01b03161461121157604051631eb49d6d60e11b815260040160405180910390fd5b6000838360405160200161122692919061286d565b60408051601f198184030181529181528151602092830120600081815260cd909352908220909250905b8154811015611304578382828154811061126c5761126c61289a565b9060005260206000200154036112f2578154829061128c90600190612cc6565b8154811061129c5761129c61289a565b90600052602060002001548282815481106112b9576112b961289a565b9060005260206000200181905550818054806112d7576112d7612cd9565b60019003818190600052602060002001600090559055611304565b806112fc81612997565b915050611250565b505050505050565b60c9546000906001600160a01b0316336001600160a01b03161461134357604051631eb49d6d60e11b815260040160405180910390fd5b83838360405160200161135893929190612b12565b60408051601f198184030181529181528151602092830120600087815260ce90935291209091506113898183611b5e565b61139460cf83611b5e565b600082815260cc602052604081208181556001810180546001600160a01b031916905560028101829055906113cc6003830182612282565b5050509392505050565b600083815260cd602090815260408083208054825181850281018501909352808352849383018282801561142957602002820191906000526020600020905b815481526020019060010190808311611415575b5050505050905060005b81518110156115275760008282815181106114505761145061289a565b602002602001015190506114648186611c15565b1561151457600081815260ce60209081526040808320805482518185028101850190935280835291929091908301828280156114bf57602002820191906000526020600020905b8154815260200190600101908083116114ab575b5050505050905060005b8151811015611511576114f5888383815181106114e8576114e861289a565b6020026020010151611738565b156114ff57600195505b8061150981612997565b9150506114c9565b50505b508061151f81612997565b915050611433565b50509392505050565b6000805b60cf5481101561087557600060cf82815481106115535761155361289a565b600091825260208083209091015480835260cc8252604080842081516080810183528154815260018201546001600160a01b03168186015260028201548184015260038201805484518188028101880190955280855294975090949193606086019392879084015b82821015611669576000848152602090819020604080516080810182526004860290920180546001600160a01b03168352600181015483850152600281015460ff161515838301526003810180548351818702810187019094528084529394919360608601939283018282801561165157602002820191906000526020600020905b81548152602001906001019080831161163d575b505050505081525050815260200190600101906115bb565b50505091525050805190915061167f8187611c15565b1561172257600081815260ce60209081526040808320805482518185028101850190935280835291929091908301828280156116da57602002820191906000526020600020905b8154815260200190600101908083116116c6575b5050505050905060005b815181101561171f57611703898383815181106114e8576114e861289a565b1561170d57600196505b8061171781612997565b9150506116e4565b50505b505050808061173090612997565b915050611534565b600081815260cc6020908152604080832060030180548251818502810185019093528083528493849084015b82821015611812576000848152602090819020604080516080810182526004860290920180546001600160a01b03168352600181015483850152600281015460ff16151583830152600381018054835181870281018701909452808452939491936060860193928301828280156117fa57602002820191906000526020600020905b8154815260200190600101908083116117e6575b50505050508152505081526020019060010190611764565b5050505090506000805b82518110156119495760008382815181106118395761183961289a565b6020026020010151602001519050600084838151811061185b5761185b61289a565b6020026020010151600001519050600085848151811061187d5761187d61289a565b6020026020010151606001519050600086858151811061189f5761189f61289a565b60200260200101516040015190506118be836380ac58cd60e01b611d0f565b156118e1576118d0838b868486611d8f565b955085156118e15750505050611937565b6118f283636cdb3d1360e11b611d0f565b1561191557611904838b868486611eed565b955085156119155750505050611937565b611922838b868486611fe1565b9550856119325750505050611949565b505050505b8061194181612997565b91505061181c565b50949350505050565b60c9546001600160a01b0316336001600160a01b031614610aa057604051631eb49d6d60e11b815260040160405180910390fd5b7f4910fdfa16fed3260ed0e7147f7cc6da11a60208b5b9406d12a635614ffd91435460ff16156119b957610f5e83612000565b826001600160a01b03166352d1902d6040518163ffffffff1660e01b8152600401602060405180830381865afa925050508015611a13575060408051601f3d908101601f19168201909252611a1091810190612cef565b60015b611a765760405162461bcd60e51b815260206004820152602e60248201527f45524331393637557067726164653a206e657720696d706c656d656e7461746960448201526d6f6e206973206e6f74205555505360901b6064820152608401610a03565b600080516020612e0c8339815191528114611ae55760405162461bcd60e51b815260206004820152602960248201527f45524331393637557067726164653a20756e737570706f727465642070726f786044820152681a58589b195555525160ba1b6064820152608401610a03565b50610f5e83838361209c565b600054610100900460ff16611b5c5760405162461bcd60e51b815260206004820152602b60248201527f496e697469616c697a61626c653a20636f6e7472616374206973206e6f74206960448201526a6e697469616c697a696e6760a81b6064820152608401610a03565b565b60005b8254811015610f5e5781838281548110611b7d57611b7d61289a565b906000526020600020015403611c035782548390611b9d90600190612cc6565b81548110611bad57611bad61289a565b9060005260206000200154838281548110611bca57611bca61289a565b906000526020600020018190555082805480611be857611be8612cd9565b60019003818190600052602060002001600090559055505050565b80611c0d81612997565b915050611b61565b60c95460405163b426423360e01b8152600481018490526000916001600160a01b0316908290829063b426423390602401600060405180830381865afa158015611c63573d6000803e3d6000fd5b505050506040513d6000823e601f3d908101601f19168201604052611c8b9190810190612d08565b805190915060005b81811015611d025785838281518110611cae57611cae61289a565b6020026020010151604051602001611cc69190612dab565b604051602081830303815290604052611cde90612dc7565b03611cf0576001945050505050610600565b80611cfa81612997565b915050611c93565b5060009695505050505050565b6040516301ffc9a760e01b81526001600160e01b0319821660048201526000906001600160a01b038416906301ffc9a790602401602060405180830381865afa925050508015611d7c575060408051601f3d908101601f19168201909252611d7991810190612dee565b60015b611d8857506000610600565b9050610600565b60008215611e665760005b8251811015611e6057866001600160a01b0316636352211e848381518110611dc457611dc461289a565b60200260200101516040518263ffffffff1660e01b8152600401611dea91815260200190565b602060405180830381865afa925050508015611e23575060408051601f3d908101601f19168201909252611e209181019061287d565b60015b15611e4e57866001600160a01b0316816001600160a01b031603611e4c57600192505050611ee4565b505b80611e5881612997565b915050611d9a565b50611ee0565b6040516370a0823160e01b81526001600160a01b0386811660048301528716906370a0823190602401602060405180830381865afa925050508015611ec8575060408051601f3d908101601f19168201909252611ec591810190612cef565b60015b15611ee057848110611ede576001915050611ee4565b505b5060005b95945050505050565b6000805b8251811015611ede57866001600160a01b031662fdd58e87858481518110611f1b57611f1b61289a565b60200260200101516040518363ffffffff1660e01b8152600401611f549291906001600160a01b03929092168252602082015260400190565b602060405180830381865afa925050508015611f8d575060408051601f3d908101601f19168201909252611f8a91810190612cef565b60015b15611fcf57848015611f9f5750600081115b15611faf57600192505050611ee4565b84158015611fbd5750858110155b15611fcd57600192505050611ee4565b505b80611fd981612997565b915050611ef1565b60008215611ff157506000611ee4565b815115611e6657506000611ee4565b6001600160a01b0381163b61206d5760405162461bcd60e51b815260206004820152602d60248201527f455243313936373a206e657720696d706c656d656e746174696f6e206973206e60448201526c1bdd08184818dbdb9d1c9858dd609a1b6064820152608401610a03565b600080516020612e0c83398151915280546001600160a01b0319166001600160a01b0392909216919091179055565b6120a5836120c7565b6000825111806120b25750805b15610f5e576120c18383612107565b50505050565b6120d081612000565b6040516001600160a01b038216907fbc7cd75a20ee27fd9adebab32041f755214dbc6bffa90cc0225b39da2e5c2d3b90600090a250565b60606001600160a01b0383163b61216f5760405162461bcd60e51b815260206004820152602660248201527f416464726573733a2064656c65676174652063616c6c20746f206e6f6e2d636f6044820152651b9d1c9858dd60d21b6064820152608401610a03565b600080846001600160a01b03168460405161218a9190612dab565b600060405180830381855af49150503d80600081146121c5576040519150601f19603f3d011682016040523d82523d6000602084013e6121ca565b606091505b5091509150611ee48282604051806060016040528060278152602001612e2c60279139606083156121fc575081612206565b612206838361220d565b9392505050565b81511561221d5781518083602001fd5b8060405162461bcd60e51b8152600401610a0391906124fd565b828054828255906000526020600020908101928215612272579160200282015b82811115612272578251825591602001919060010190612257565b5061227e9291506122a3565b5090565b5080546000825560040290600052602060002090810190610aa091906122b8565b5b8082111561227e57600081556001016122a4565b8082111561227e5780546001600160a01b031916815560006001820181905560028201805460ff191690556122f060038301826122f9565b506004016122b8565b5080546000825590600052602060002090810190610aa091906122a3565b60008083601f84011261232957600080fd5b5081356001600160401b0381111561234057600080fd5b60208301915083602082850101111561235857600080fd5b9250929050565b6001600160a01b0381168114610aa057600080fd5b6000806000806060858703121561238a57600080fd5b84356001600160401b038111156123a057600080fd5b6123ac87828801612317565b90955093505060208501356123c08161235f565b9396929550929360400135925050565b6000602082840312156123e257600080fd5b81356001600160e01b03198116811461220657600080fd5b60006020828403121561240c57600080fd5b81356122068161235f565b6000806040838503121561242a57600080fd5b50508035926020909101359150565b60005b8381101561245457818101518382015260200161243c565b50506000910152565b60008151808452612475816020860160208601612439565b601f01601f19169290920160200192915050565b60006020808301818452808551808352604092508286019150828160051b87010184880160005b838110156124ef57888303603f190185528151805184528701518784018790526124dc8785018261245d565b95880195935050908601906001016124b0565b509098975050505050505050565b602081526000612206602083018461245d565b60006020828403121561252257600080fd5b5035919050565b6000602080830181845280855180835260408601915060408160051b870101925083870160005b8281101561257e57603f1988860301845261256c85835161245d565b94509285019290850190600101612550565b5092979650505050505050565b6000806020838503121561259e57600080fd5b82356001600160401b038111156125b457600080fd5b6125c085828601612317565b90969095509350505050565b6020808252825182820181905260009190848201906040850190845b81811015612604578351835292840192918401916001016125e8565b50909695505050505050565b634e487b7160e01b600052604160045260246000fd5b604051608081016001600160401b038111828210171561264857612648612610565b60405290565b604051601f8201601f191681016001600160401b038111828210171561267657612676612610565b604052919050565b60006001600160401b0382111561269757612697612610565b50601f01601f191660200190565b600080604083850312156126b857600080fd5b82356126c38161235f565b915060208301356001600160401b038111156126de57600080fd5b8301601f810185136126ef57600080fd5b80356127026126fd8261267e565b61264e565b81815286602083850101111561271757600080fd5b816020840160208301376000602083830101528093505050509250929050565b6000806020838503121561274a57600080fd5b82356001600160401b038082111561276157600080fd5b818501915085601f83011261277557600080fd5b81358181111561278457600080fd5b8660208260051b850101111561279957600080fd5b60209290920196919550909350505050565b6000806000604084860312156127c057600080fd5b83356001600160401b038111156127d657600080fd5b6127e286828701612317565b909790965060209590950135949350505050565b6000806040838503121561280957600080fd5b82356128148161235f565b946020939093013593505050565b60008060006040848603121561283757600080fd5b8335925060208401356001600160401b0381111561285457600080fd5b61286086828701612317565b9497909650939450505050565b8183823760009101908152919050565b60006020828403121561288f57600080fd5b81516122068161235f565b634e487b7160e01b600052603260045260246000fd5b600082601f8301126128c157600080fd5b81516128cf6126fd8261267e565b8181528460208386010111156128e457600080fd5b6105c7826020830160208701612439565b60006020828403121561290757600080fd5b81516001600160401b038082111561291e57600080fd5b908301906040828603121561293257600080fd5b60405160408101818110838211171561294d5761294d612610565b6040528251815260208301518281111561296657600080fd5b612972878286016128b0565b60208301525095945050505050565b634e487b7160e01b600052601160045260246000fd5b6000600182016129a9576129a9612981565b5060010190565b60006020808301818452808554808352604092508286019150828160051b8701016000888152858120815b84811015612a6b57898403603f1901865281546001600160a01b0316845260018281015489860152600283015460ff16151588860152608060608601819052600384018054918701829052855289852060a0870192909186905b80821015612a525783548552938c01939282019290820190612a35565b50505096890196509350600491909101906001016129db565b50919998505050505050505050565b6020808252602c908201527f46756e6374696f6e206d7573742062652063616c6c6564207468726f7567682060408201526b19195b1959d85d1958d85b1b60a21b606082015260800190565b6020808252602c908201527f46756e6374696f6e206d7573742062652063616c6c6564207468726f7567682060408201526b6163746976652070726f787960a01b606082015260800190565b838152818360208301376000910160200190815292915050565b60006001600160401b03821115612b4557612b45612610565b5060051b60200190565b8015158114610aa057600080fd5b60006020808385031215612b7057600080fd5b82356001600160401b0380821115612b8757600080fd5b818501915085601f830112612b9b57600080fd5b8135612ba96126fd82612b2c565b81815260059190911b83018401908481019088831115612bc857600080fd5b8585015b83811015612cb957803585811115612be357600080fd5b86016080818c03601f19011215612bf957600080fd5b612c01612626565b88820135612c0e8161235f565b81526040828101358a8301526060830135612c2881612b4f565b82820152608083013588811115612c3f5760008081fd5b8084019350508c603f840112612c555760008081fd5b89830135612c656126fd82612b2c565b81815260059190911b84018201908b8101908f831115612c855760008081fd5b948301945b82861015612ca35785358252948c0194908c0190612c8a565b6060850152505050845250918601918601612bcc565b5098975050505050505050565b8181038181111561060057610600612981565b634e487b7160e01b600052603160045260246000fd5b600060208284031215612d0157600080fd5b5051919050565b60006020808385031215612d1b57600080fd5b82516001600160401b0380821115612d3257600080fd5b818501915085601f830112612d4657600080fd5b8151612d546126fd82612b2c565b81815260059190911b83018401908481019088831115612d7357600080fd5b8585015b83811015612cb957805185811115612d8f5760008081fd5b612d9d8b89838a01016128b0565b845250918601918601612d77565b60008251612dbd818460208701612439565b9190910192915050565b80516020808301519190811015612de8576000198160200360031b1b821691505b50919050565b600060208284031215612e0057600080fd5b815161220681612b4f56fe360894a13ba1a3210667c828492db98dca3e2076cc3735a920a3ca505d382bbc416464726573733a206c6f772d6c6576656c2064656c65676174652063616c6c206661696c6564",
    "linkReferences": {}
  },
  "methodIdentifiers": {
    "SPACE_ADDRESS()": "34322eff",
    "TOKEN_ADDRESS()": "0bdf5300",
    "TOKEN_ID()": "89a89002",
    "addRoleIdToChannel(string,uint256)": "c513be77",
    "allEntitlementIds(uint256)": "b7676170",
    "description()": "7284e416",
    "encodeExternalTokens((address,uint256,bool,uint256[])[])": "5427e86a",
    "entitlementIdsByRoleId(uint256,uint256)": "97d038d1",
    "entitlementsById(bytes32)": "d3b2cfbf",
    "getEntitlementDataByRoleId(uint256)": "1eee07b2",
    "getRoleIdsByChannelId(string)": "41634aee",
    "getUserRoles(address)": "06a36aee",
    "initialize(address,uint256)": "cd6dc687",
    "isEntitled(string,address,bytes32)": "00b4eaa8",
    "moduleType()": "6465e69f",
    "name()": "06fdde03",
    "proxiableUUID()": "52d1902d",
    "removeEntitlement(uint256,bytes)": "fa6d1adf",
    "removeRoleIdFromChannel(string,uint256)": "f32f83ce",
    "roleIdsByChannelId(bytes32,uint256)": "053acb40",
    "setEntitlement(uint256,bytes)": "ef8be574",
    "setSpace(address)": "03b40534",
    "supportsInterface(bytes4)": "01ffc9a7",
    "upgradeTo(address)": "3659cfe6",
    "upgradeToAndCall(address,bytes)": "4f1ef286"
  },
  "id": 160
}