{
  "abi": [
    {
      "inputs": [],
      "stateMutability": "nonpayable",
      "type": "constructor"
    },
    {
      "inputs": [],
      "name": "AddressNotFound",
      "type": "error"
    },
    {
      "inputs": [],
      "name": "EntitlementNotFound",
      "type": "error"
    },
    {
      "inputs": [],
      "name": "NotAllowed",
      "type": "error"
    },
    {
      "inputs": [],
      "name": "RoleAlreadyExists",
      "type": "error"
    },
    {
      "anonymous": false,
      "inputs": [
        {
          "indexed": false,
          "internalType": "address",
          "name": "previousAdmin",
          "type": "address"
        },
        {
          "indexed": false,
          "internalType": "address",
          "name": "newAdmin",
          "type": "address"
        }
      ],
      "name": "AdminChanged",
      "type": "event"
    },
    {
      "anonymous": false,
      "inputs": [
        {
          "indexed": true,
          "internalType": "address",
          "name": "beacon",
          "type": "address"
        }
      ],
      "name": "BeaconUpgraded",
      "type": "event"
    },
    {
      "anonymous": false,
      "inputs": [
        {
          "indexed": false,
          "internalType": "uint8",
          "name": "version",
          "type": "uint8"
        }
      ],
      "name": "Initialized",
      "type": "event"
    },
    {
      "anonymous": false,
      "inputs": [
        {
          "indexed": true,
          "internalType": "address",
          "name": "implementation",
          "type": "address"
        }
      ],
      "name": "Upgraded",
      "type": "event"
    },
    {
      "inputs": [],
      "name": "SPACE_ADDRESS",
      "outputs": [
        {
          "internalType": "address",
          "name": "",
          "type": "address"
        }
      ],
      "stateMutability": "view",
      "type": "function"
    },
    {
      "inputs": [],
      "name": "TOKEN_ADDRESS",
      "outputs": [
        {
          "internalType": "address",
          "name": "",
          "type": "address"
        }
      ],
      "stateMutability": "view",
      "type": "function"
    },
    {
      "inputs": [],
      "name": "TOKEN_ID",
      "outputs": [
        {
          "internalType": "uint256",
          "name": "",
          "type": "uint256"
        }
      ],
      "stateMutability": "view",
      "type": "function"
    },
    {
      "inputs": [
        {
          "internalType": "string",
          "name": "channelId",
          "type": "string"
        },
        {
          "internalType": "uint256",
          "name": "roleId",
          "type": "uint256"
        }
      ],
      "name": "addRoleIdToChannel",
      "outputs": [],
      "stateMutability": "nonpayable",
      "type": "function"
    },
    {
      "inputs": [],
      "name": "description",
      "outputs": [
        {
          "internalType": "string",
          "name": "",
          "type": "string"
        }
      ],
      "stateMutability": "view",
      "type": "function"
    },
    {
      "inputs": [
        {
          "internalType": "uint256",
          "name": "",
          "type": "uint256"
        },
        {
          "internalType": "uint256",
          "name": "",
          "type": "uint256"
        }
      ],
      "name": "entitlementIdsByRoleId",
      "outputs": [
        {
          "internalType": "bytes32",
          "name": "",
          "type": "bytes32"
        }
      ],
      "stateMutability": "view",
      "type": "function"
    },
    {
      "inputs": [
        {
          "internalType": "bytes32",
          "name": "",
          "type": "bytes32"
        }
      ],
      "name": "entitlementsById",
      "outputs": [
        {
          "internalType": "uint256",
          "name": "roleId",
          "type": "uint256"
        },
        {
          "internalType": "address",
          "name": "grantedBy",
          "type": "address"
        },
        {
          "internalType": "uint256",
          "name": "grantedTime",
          "type": "uint256"
        }
      ],
      "stateMutability": "view",
      "type": "function"
    },
    {
      "inputs": [
        {
          "internalType": "uint256",
          "name": "roleId",
          "type": "uint256"
        }
      ],
      "name": "getEntitlementDataByRoleId",
      "outputs": [
        {
          "internalType": "bytes[]",
          "name": "",
          "type": "bytes[]"
        }
      ],
      "stateMutability": "view",
      "type": "function"
    },
    {
      "inputs": [
        {
          "internalType": "string",
          "name": "channelId",
          "type": "string"
        }
      ],
      "name": "getRoleIdsByChannelId",
      "outputs": [
        {
          "internalType": "uint256[]",
          "name": "",
          "type": "uint256[]"
        }
      ],
      "stateMutability": "view",
      "type": "function"
    },
    {
      "inputs": [
        {
          "internalType": "address",
          "name": "user",
          "type": "address"
        }
      ],
      "name": "getUserRoles",
      "outputs": [
        {
          "components": [
            {
              "internalType": "uint256",
              "name": "roleId",
              "type": "uint256"
            },
            {
              "internalType": "string",
              "name": "name",
              "type": "string"
            }
          ],
          "internalType": "struct DataTypes.Role[]",
          "name": "",
          "type": "tuple[]"
        }
      ],
      "stateMutability": "view",
      "type": "function"
    },
    {
      "inputs": [
        {
          "internalType": "address",
          "name": "_tokenAddress",
          "type": "address"
        },
        {
          "internalType": "uint256",
          "name": "_tokenId",
          "type": "uint256"
        }
      ],
      "name": "initialize",
      "outputs": [],
      "stateMutability": "nonpayable",
      "type": "function"
    },
    {
      "inputs": [
        {
          "internalType": "string",
          "name": "channelId",
          "type": "string"
        },
        {
          "internalType": "address",
          "name": "user",
          "type": "address"
        },
        {
          "internalType": "bytes32",
          "name": "permission",
          "type": "bytes32"
        }
      ],
      "name": "isEntitled",
      "outputs": [
        {
          "internalType": "bool",
          "name": "",
          "type": "bool"
        }
      ],
      "stateMutability": "view",
      "type": "function"
    },
    {
      "inputs": [],
      "name": "moduleType",
      "outputs": [
        {
          "internalType": "string",
          "name": "",
          "type": "string"
        }
      ],
      "stateMutability": "view",
      "type": "function"
    },
    {
      "inputs": [],
      "name": "name",
      "outputs": [
        {
          "internalType": "string",
          "name": "",
          "type": "string"
        }
      ],
      "stateMutability": "view",
      "type": "function"
    },
    {
      "inputs": [],
      "name": "proxiableUUID",
      "outputs": [
        {
          "internalType": "bytes32",
          "name": "",
          "type": "bytes32"
        }
      ],
      "stateMutability": "view",
      "type": "function"
    },
    {
      "inputs": [
        {
          "internalType": "uint256",
          "name": "roleId",
          "type": "uint256"
        },
        {
          "internalType": "bytes",
          "name": "entitlementData",
          "type": "bytes"
        }
      ],
      "name": "removeEntitlement",
      "outputs": [
        {
          "internalType": "bytes32",
          "name": "entitlementId",
          "type": "bytes32"
        }
      ],
      "stateMutability": "nonpayable",
      "type": "function"
    },
    {
      "inputs": [
        {
          "internalType": "string",
          "name": "channelId",
          "type": "string"
        },
        {
          "internalType": "uint256",
          "name": "roleId",
          "type": "uint256"
        }
      ],
      "name": "removeRoleIdFromChannel",
      "outputs": [],
      "stateMutability": "nonpayable",
      "type": "function"
    },
    {
      "inputs": [
        {
          "internalType": "bytes32",
          "name": "",
          "type": "bytes32"
        },
        {
          "internalType": "uint256",
          "name": "",
          "type": "uint256"
        }
      ],
      "name": "roleIdsByChannelId",
      "outputs": [
        {
          "internalType": "uint256",
          "name": "",
          "type": "uint256"
        }
      ],
      "stateMutability": "view",
      "type": "function"
    },
    {
      "inputs": [
        {
          "internalType": "uint256",
          "name": "roleId",
          "type": "uint256"
        },
        {
          "internalType": "bytes",
          "name": "entitlementData",
          "type": "bytes"
        }
      ],
      "name": "setEntitlement",
      "outputs": [
        {
          "internalType": "bytes32",
          "name": "entitlementId",
          "type": "bytes32"
        }
      ],
      "stateMutability": "nonpayable",
      "type": "function"
    },
    {
      "inputs": [
        {
          "internalType": "address",
          "name": "_space",
          "type": "address"
        }
      ],
      "name": "setSpace",
      "outputs": [],
      "stateMutability": "nonpayable",
      "type": "function"
    },
    {
      "inputs": [
        {
          "internalType": "bytes4",
          "name": "interfaceId",
          "type": "bytes4"
        }
      ],
      "name": "supportsInterface",
      "outputs": [
        {
          "internalType": "bool",
          "name": "",
          "type": "bool"
        }
      ],
      "stateMutability": "view",
      "type": "function"
    },
    {
      "inputs": [
        {
          "internalType": "address",
          "name": "newImplementation",
          "type": "address"
        }
      ],
      "name": "upgradeTo",
      "outputs": [],
      "stateMutability": "nonpayable",
      "type": "function"
    },
    {
      "inputs": [
        {
          "internalType": "address",
          "name": "newImplementation",
          "type": "address"
        },
        {
          "internalType": "bytes",
          "name": "data",
          "type": "bytes"
        }
      ],
      "name": "upgradeToAndCall",
      "outputs": [],
      "stateMutability": "payable",
      "type": "function"
    }
  ],
  "bytecode": {
    "object": "0x60a0604052306080523480156200001557600080fd5b506200002062000026565b620000e8565b600054610100900460ff1615620000935760405162461bcd60e51b815260206004820152602760248201527f496e697469616c697a61626c653a20636f6e747261637420697320696e697469604482015266616c697a696e6760c81b606482015260840160405180910390fd5b60005460ff9081161015620000e6576000805460ff191660ff9081179091556040519081527f7f26b83ff96e1f2b6a682f133852f6798a09c465da95921460cefb38474024989060200160405180910390a15b565b60805161297e6200012060003960008181610a1301528181610a5c01528181610b8701528181610bc70152610c5a015261297e6000f3fe60806040526004361061013f5760003560e01c80634f1ef286116100b6578063c513be771161006f578063c513be771461040b578063cd6dc6871461042b578063d3b2cfbf1461044b578063ef8be574146104b3578063f32f83ce146104d3578063fa6d1adf146104f357600080fd5b80634f1ef2861461033157806352d1902d146103445780636465e69f146103595780637284e4161461039457806389a89002146103d557806397d038d1146103eb57600080fd5b806306fdde031161010857806306fdde03146102165780630bdf53001461025f5780631eee07b21461029757806334322eff146102c45780633659cfe6146102e457806341634aee1461030457600080fd5b8062b4eaa81461014457806301ffc9a71461017957806303b4053414610199578063053acb40146101bb57806306a36aee146101e9575b600080fd5b34801561015057600080fd5b5061016461015f36600461209c565b610513565b60405190151581526020015b60405180910390f35b34801561018557600080fd5b506101646101943660046120f8565b610567565b3480156101a557600080fd5b506101b96101b4366004612122565b61059e565b005b3480156101c757600080fd5b506101db6101d636600461213f565b61065d565b604051908152602001610170565b3480156101f557600080fd5b50610209610204366004612122565b61068e565b60405161017091906121b1565b34801561022257600080fd5b506102526040518060400160405280601081526020016f155cd95c88115b9d1a5d1b195b595b9d60821b81525081565b6040516101709190612225565b34801561026b57600080fd5b5060ca5461027f906001600160a01b031681565b6040516001600160a01b039091168152602001610170565b3480156102a357600080fd5b506102b76102b2366004612238565b6108d2565b6040516101709190612251565b3480156102d057600080fd5b5060c95461027f906001600160a01b031681565b3480156102f057600080fd5b506101b96102ff366004612122565b610a09565b34801561031057600080fd5b5061032461031f3660046122b3565b610af1565b60405161017091906122f4565b6101b961033f3660046123a5565b610b7d565b34801561035057600080fd5b506101db610c4d565b34801561036557600080fd5b506102526040518060400160405280600f81526020016e155cd95c915b9d1a5d1b195b595b9d608a1b81525081565b3480156103a057600080fd5b5061025260405180604001604052806015815260200174456e7469746c656d656e7420666f7220757365727360581b81525081565b3480156103e157600080fd5b506101db60cb5481565b3480156103f757600080fd5b506101db61040636600461213f565b610d00565b34801561041757600080fd5b506101b9610426366004612437565b610d1c565b34801561043757600080fd5b506101b9610446366004612482565b610e51565b34801561045757600080fd5b50610490610466366004612238565b60cc6020526000908152604090208054600182015460029092015490916001600160a01b03169083565b604080519384526001600160a01b03909216602084015290820152606001610170565b3480156104bf57600080fd5b506101db6104ce3660046124ae565b610f94565b3480156104df57600080fd5b506101b96104ee366004612437565b61117b565b3480156104ff57600080fd5b506101db61050e3660046124ae565b6112aa565b600083156105555761054e85856040516020016105319291906124f9565b6040516020818303038152906040528051906020012084846114b2565b905061055f565b61054e83836115f6565b949350505050565b60006001600160e01b0319821663a485103160e01b148061059857506301ffc9a760e01b6001600160e01b03198316145b92915050565b3360ca5460cb546040516331a9108f60e11b815260048101919091526001600160a01b039283169290911690636352211e90602401602060405180830381865afa1580156105f0573d6000803e3d6000fd5b505050506040513d601f19601f820116820180604052508101906106149190612509565b6001600160a01b03161461063b57604051631eb49d6d60e11b815260040160405180910390fd5b60c980546001600160a01b0319166001600160a01b0392909216919091179055565b60cd602052816000526040600020818154811061067957600080fd5b90600052602060002001600091509150505481565b6001600160a01b038116600090815260cf602090815260408083208054825181850281018501909352808352606094938301828280156106ed57602002820191906000526020600020905b8154815260200190600101908083116106d9575b50505050509050600081516001600160401b0381111561070f5761070f612338565b60405190808252806020026020018201604052801561075557816020015b60408051808201909152600081526060602082015281526020019060019003908161072d5790505b50905060005b82518110156108ca57600060cc600085848151811061077c5761077c612526565b602090810291909101810151825281810192909252604090810160002081516080810183528154815260018201546001600160a01b03168185015260028201548184015260038201805484518187028101870190955280855291949293606086019390929083018282801561081a57602002820191906000526020600020905b81546001600160a01b031681526001909101906020018083116107fc575b50505091909252505060c954825160405163784c872b60e01b815260048101919091529293506001600160a01b03169163784c872b9150602401600060405180830381865afa158015610871573d6000803e3d6000fd5b505050506040513d6000823e601f3d908101601f191682016040526108999190810190612581565b8383815181106108ab576108ab612526565b60200260200101819052505080806108c290612623565b91505061075b565b509392505050565b600081815260ce6020908152604080832080548251818502810185019093528083526060949383018282801561092757602002820191906000526020600020905b815481526020019060010190808311610913575b50505050509050600081516001600160401b0381111561094957610949612338565b60405190808252806020026020018201604052801561097c57816020015b60608152602001906001900390816109675790505b50905060005b82518110156108ca5760cc60008483815181106109a1576109a1612526565b602002602001015181526020019081526020016000206003016040516020016109ca919061263c565b6040516020818303038152906040528282815181106109eb576109eb612526565b60200260200101819052508080610a0190612623565b915050610982565b6001600160a01b037f0000000000000000000000000000000000000000000000000000000000000000163003610a5a5760405162461bcd60e51b8152600401610a5190612680565b60405180910390fd5b7f00000000000000000000000000000000000000000000000000000000000000006001600160a01b0316610aa3600080516020612937833981519152546001600160a01b031690565b6001600160a01b031614610ac95760405162461bcd60e51b8152600401610a51906126cc565b610ad281611684565b60408051600080825260208201909252610aee918391906116b8565b50565b606060008383604051602001610b089291906124f9565b60408051601f198184030181528282528051602091820120600081815260cd83528390208054808402860184019094528385529094509190830182828015610b6f57602002820191906000526020600020905b815481526020019060010190808311610b5b575b505050505091505092915050565b6001600160a01b037f0000000000000000000000000000000000000000000000000000000000000000163003610bc55760405162461bcd60e51b8152600401610a5190612680565b7f00000000000000000000000000000000000000000000000000000000000000006001600160a01b0316610c0e600080516020612937833981519152546001600160a01b031690565b6001600160a01b031614610c345760405162461bcd60e51b8152600401610a51906126cc565b610c3d82611684565b610c49828260016116b8565b5050565b6000306001600160a01b037f00000000000000000000000000000000000000000000000000000000000000001614610ced5760405162461bcd60e51b815260206004820152603860248201527f555550535570677261646561626c653a206d757374206e6f742062652063616c60448201527f6c6564207468726f7567682064656c656761746563616c6c00000000000000006064820152608401610a51565b5060008051602061293783398151915290565b60ce602052816000526040600020818154811061067957600080fd5b60c9546001600160a01b0316336001600160a01b031614610d5057604051631eb49d6d60e11b815260040160405180910390fd5b60008383604051602001610d659291906124f9565b60408051601f198184030181528282528051602091820120600081815260cd835283812080548085028701850190955284865291955093929091830182828015610dce57602002820191906000526020600020905b815481526020019060010190808311610dba575b5050505050905060005b8151811015610e2c5783828281518110610df457610df4612526565b602002602001015103610e1a57604051636014eda760e11b815260040160405180910390fd5b80610e2481612623565b915050610dd8565b5050600090815260cd6020908152604082208054600181018255908352912001555050565b600054610100900460ff1615808015610e715750600054600160ff909116105b80610e8b5750303b158015610e8b575060005460ff166001145b610eee5760405162461bcd60e51b815260206004820152602e60248201527f496e697469616c697a61626c653a20636f6e747261637420697320616c72656160448201526d191e481a5b9a5d1a585b1a5e995960921b6064820152608401610a51565b6000805460ff191660011790558015610f11576000805461ff0019166101001790555b610f19611823565b610f21611823565b610f29611823565b60ca80546001600160a01b0319166001600160a01b03851617905560cb8290558015610f8f576000805461ff0019169055604051600181527f7f26b83ff96e1f2b6a682f133852f6798a09c465da95921460cefb38474024989060200160405180910390a15b505050565b60c9546000906001600160a01b0316336001600160a01b031614610fcb57604051631eb49d6d60e11b815260040160405180910390fd5b838383604051602001610fe093929190612718565b60408051601f1981840301815291905280516020909101209050600061100883850185612755565b9050805160000361102c57604051633d9e48f360e21b815260040160405180910390fd5b60005b81518110156110c557600082828151811061104c5761104c612526565b6020026020010151905060006001600160a01b0316816001600160a01b03160361108957604051636054b46960e01b815260040160405180910390fd5b6001600160a01b0316600090815260cf6020908152604082208054600181018255908352912001839055806110bd81612623565b91505061102f565b5060405180608001604052808681526020016110de3390565b6001600160a01b039081168252426020808401919091526040928301859052600086815260cc825283902084518155848201516001820180546001600160a01b031916919094161790925591830151600282015560608301518051919261114d92600385019290910190611fab565b50505060009485525060ce602090815260408520805460018101825590865294209093018390555090919050565b60c9546001600160a01b0316336001600160a01b0316146111af57604051631eb49d6d60e11b815260040160405180910390fd5b600083836040516020016111c49291906124f9565b60408051601f198184030181529181528151602092830120600081815260cd909352908220909250905b81548110156112a2578382828154811061120a5761120a612526565b906000526020600020015403611290578154829061122a906001906127ee565b8154811061123a5761123a612526565b906000526020600020015482828154811061125757611257612526565b90600052602060002001819055508180548061127557611275612801565b600190038181906000526020600020016000905590556112a2565b8061129a81612623565b9150506111ee565b505050505050565b60c9546000906001600160a01b0316336001600160a01b0316146112e157604051631eb49d6d60e11b815260040160405180910390fd5b8383836040516020016112f693929190612718565b60408051601f198184030181528282528051602091820120600081815260cc83528381206080860185528054865260018101546001600160a01b031686850152600281015486860152600381018054865181870281018701909752808752939750919594909360608601939192919083018282801561139e57602002820191906000526020600020905b81546001600160a01b03168152600190910190602001808311611380575b5050505050815250509050806060015151600014806113bc57508051155b156113da57604051633d9e48f360e21b815260040160405180910390fd5b8051600090815260ce602052604090206113f48184611890565b60005b82606001515181101561146e5760008360600151828151811061141c5761141c612526565b60200260200101519050600060cf6000836001600160a01b03166001600160a01b0316815260200190815260200160002090506114598187611890565b5050808061146690612623565b9150506113f7565b50600083815260cc602052604081208181556001810180546001600160a01b031916905560028101829055906114a76003830182612010565b505050509392505050565b600083815260cd602090815260408083208054825181850281018501909352808352849383018282801561150557602002820191906000526020600020905b8154815260200190600101908083116114f1575b5050505050905060006115186001611947565b9050600061152586611947565b905060006115338383611b29565b905060005b84518110156115ea57600085828151811061155557611555612526565b6020026020010151905060005b83518110156115d5578184828151811061157e5761157e612526565b6020026020010151600001511480156115b957506115b98482815181106115a7576115a7612526565b6020026020010151600001518a611c79565b156115c357600197505b806115cd81612623565b915050611562565b505080806115e290612623565b915050611538565b50505050509392505050565b6000806116036001611947565b9050600061161085611947565b9050600061161e8383611b29565b905060005b81518110156116775761165382828151811061164157611641612526565b60200260200101516000015187611c79565b15611665576001945050505050610598565b8061166f81612623565b915050611623565b5060009695505050505050565b60c9546001600160a01b0316336001600160a01b031614610aee57604051631eb49d6d60e11b815260040160405180910390fd5b7f4910fdfa16fed3260ed0e7147f7cc6da11a60208b5b9406d12a635614ffd91435460ff16156116eb57610f8f83611d66565b826001600160a01b03166352d1902d6040518163ffffffff1660e01b8152600401602060405180830381865afa925050508015611745575060408051601f3d908101601f1916820190925261174291810190612817565b60015b6117a85760405162461bcd60e51b815260206004820152602e60248201527f45524331393637557067726164653a206e657720696d706c656d656e7461746960448201526d6f6e206973206e6f74205555505360901b6064820152608401610a51565b60008051602061293783398151915281146118175760405162461bcd60e51b815260206004820152602960248201527f45524331393637557067726164653a20756e737570706f727465642070726f786044820152681a58589b195555525160ba1b6064820152608401610a51565b50610f8f838383611e02565b600054610100900460ff1661188e5760405162461bcd60e51b815260206004820152602b60248201527f496e697469616c697a61626c653a20636f6e7472616374206973206e6f74206960448201526a6e697469616c697a696e6760a81b6064820152608401610a51565b565b60005b8254811015610f8f57818382815481106118af576118af612526565b90600052602060002001540361193557825483906118cf906001906127ee565b815481106118df576118df612526565b90600052602060002001548382815481106118fc576118fc612526565b90600052602060002001819055508280548061191a5761191a612801565b60019003818190600052602060002001600090559055505050565b8061193f81612623565b915050611893565b6001600160a01b038116600090815260cf602090815260408083208054825181850281018501909352808352606094938301828280156119a657602002820191906000526020600020905b815481526020019060010190808311611992575b50505050509050600081516001600160401b038111156119c8576119c8612338565b604051908082528060200260200182016040528015611a2d57816020015b611a1a60405180608001604052806000815260200160006001600160a01b0316815260200160008152602001606081525090565b8152602001906001900390816119e65790505b50905060005b82518110156108ca5760cc6000848381518110611a5257611a52612526565b602090810291909101810151825281810192909252604090810160002081516080810183528154815260018201546001600160a01b031681850152600282015481840152600382018054845181870281018701909552808552919492936060860193909290830182828015611af057602002820191906000526020600020905b81546001600160a01b03168152600190910190602001808311611ad2575b505050505081525050828281518110611b0b57611b0b612526565b60200260200101819052508080611b2190612623565b915050611a33565b6060600082518451611b3b9190612830565b6001600160401b03811115611b5257611b52612338565b604051908082528060200260200182016040528015611bb757816020015b611ba460405180608001604052806000815260200160006001600160a01b0316815260200160008152602001606081525090565b815260200190600190039081611b705790505b50905060005b8451811015611c1057848181518110611bd857611bd8612526565b6020026020010151828281518110611bf257611bf2612526565b60200260200101819052508080611c0890612623565b915050611bbd565b60005b8451811015611c6f578481611c2781612623565b925081518110611c3957611c39612526565b6020026020010151838380611c4d90612623565b945081518110611c5f57611c5f612526565b6020026020010181905250611c13565b5090949350505050565b60c95460405163b426423360e01b8152600481018490526000916001600160a01b0316908290829063b426423390602401600060405180830381865afa158015611cc7573d6000803e3d6000fd5b505050506040513d6000823e601f3d908101601f19168201604052611cef9190810190612843565b805190915060005b818110156116775785838281518110611d1257611d12612526565b6020026020010151604051602001611d2a91906128f3565b604051602081830303815290604052611d429061290f565b03611d54576001945050505050610598565b80611d5e81612623565b915050611cf7565b6001600160a01b0381163b611dd35760405162461bcd60e51b815260206004820152602d60248201527f455243313936373a206e657720696d706c656d656e746174696f6e206973206e60448201526c1bdd08184818dbdb9d1c9858dd609a1b6064820152608401610a51565b60008051602061293783398151915280546001600160a01b0319166001600160a01b0392909216919091179055565b611e0b83611e2d565b600082511180611e185750805b15610f8f57611e278383611e6d565b50505050565b611e3681611d66565b6040516001600160a01b038216907fbc7cd75a20ee27fd9adebab32041f755214dbc6bffa90cc0225b39da2e5c2d3b90600090a250565b60606001600160a01b0383163b611ed55760405162461bcd60e51b815260206004820152602660248201527f416464726573733a2064656c65676174652063616c6c20746f206e6f6e2d636f6044820152651b9d1c9858dd60d21b6064820152608401610a51565b600080846001600160a01b031684604051611ef091906128f3565b600060405180830381855af49150503d8060008114611f2b576040519150601f19603f3d011682016040523d82523d6000602084013e611f30565b606091505b5091509150611f58828260405180606001604052806027815260200161295760279139611f61565b95945050505050565b60608315611f70575081611f7a565b611f7a8383611f81565b9392505050565b815115611f915781518083602001fd5b8060405162461bcd60e51b8152600401610a519190612225565b828054828255906000526020600020908101928215612000579160200282015b8281111561200057825182546001600160a01b0319166001600160a01b03909116178255602090920191600190910190611fcb565b5061200c92915061202a565b5090565b5080546000825590600052602060002090810190610aee91905b5b8082111561200c576000815560010161202b565b60008083601f84011261205157600080fd5b5081356001600160401b0381111561206857600080fd5b60208301915083602082850101111561208057600080fd5b9250929050565b6001600160a01b0381168114610aee57600080fd5b600080600080606085870312156120b257600080fd5b84356001600160401b038111156120c857600080fd5b6120d48782880161203f565b90955093505060208501356120e881612087565b9396929550929360400135925050565b60006020828403121561210a57600080fd5b81356001600160e01b031981168114611f7a57600080fd5b60006020828403121561213457600080fd5b8135611f7a81612087565b6000806040838503121561215257600080fd5b50508035926020909101359150565b60005b8381101561217c578181015183820152602001612164565b50506000910152565b6000815180845261219d816020860160208601612161565b601f01601f19169290920160200192915050565b60006020808301818452808551808352604092508286019150828160051b87010184880160005b8381101561221757888303603f1901855281518051845287015187840187905261220487850182612185565b95880195935050908601906001016121d8565b509098975050505050505050565b602081526000611f7a6020830184612185565b60006020828403121561224a57600080fd5b5035919050565b6000602080830181845280855180835260408601915060408160051b870101925083870160005b828110156122a657603f19888603018452612294858351612185565b94509285019290850190600101612278565b5092979650505050505050565b600080602083850312156122c657600080fd5b82356001600160401b038111156122dc57600080fd5b6122e88582860161203f565b90969095509350505050565b6020808252825182820181905260009190848201906040850190845b8181101561232c57835183529284019291840191600101612310565b50909695505050505050565b634e487b7160e01b600052604160045260246000fd5b604051601f8201601f191681016001600160401b038111828210171561237657612376612338565b604052919050565b60006001600160401b0382111561239757612397612338565b50601f01601f191660200190565b600080604083850312156123b857600080fd5b82356123c381612087565b915060208301356001600160401b038111156123de57600080fd5b8301601f810185136123ef57600080fd5b80356124026123fd8261237e565b61234e565b81815286602083850101111561241757600080fd5b816020840160208301376000602083830101528093505050509250929050565b60008060006040848603121561244c57600080fd5b83356001600160401b0381111561246257600080fd5b61246e8682870161203f565b909790965060209590950135949350505050565b6000806040838503121561249557600080fd5b82356124a081612087565b946020939093013593505050565b6000806000604084860312156124c357600080fd5b8335925060208401356001600160401b038111156124e057600080fd5b6124ec8682870161203f565b9497909650939450505050565b8183823760009101908152919050565b60006020828403121561251b57600080fd5b8151611f7a81612087565b634e487b7160e01b600052603260045260246000fd5b600082601f83011261254d57600080fd5b815161255b6123fd8261237e565b81815284602083860101111561257057600080fd5b61055f826020830160208701612161565b60006020828403121561259357600080fd5b81516001600160401b03808211156125aa57600080fd5b90830190604082860312156125be57600080fd5b6040516040810181811083821117156125d9576125d9612338565b604052825181526020830151828111156125f257600080fd5b6125fe8782860161253c565b60208301525095945050505050565b634e487b7160e01b600052601160045260246000fd5b6000600182016126355761263561260d565b5060010190565b6020808252825482820181905260008481528281209092916040850190845b8181101561232c5783546001600160a01b03168352600193840193928501920161265b565b6020808252602c908201527f46756e6374696f6e206d7573742062652063616c6c6564207468726f7567682060408201526b19195b1959d85d1958d85b1b60a21b606082015260800190565b6020808252602c908201527f46756e6374696f6e206d7573742062652063616c6c6564207468726f7567682060408201526b6163746976652070726f787960a01b606082015260800190565b838152818360208301376000910160200190815292915050565b60006001600160401b0382111561274b5761274b612338565b5060051b60200190565b6000602080838503121561276857600080fd5b82356001600160401b0381111561277e57600080fd5b8301601f8101851361278f57600080fd5b803561279d6123fd82612732565b81815260059190911b820183019083810190878311156127bc57600080fd5b928401925b828410156127e35783356127d481612087565b825292840192908401906127c1565b979650505050505050565b818103818111156105985761059861260d565b634e487b7160e01b600052603160045260246000fd5b60006020828403121561282957600080fd5b5051919050565b808201808211156105985761059861260d565b6000602080838503121561285657600080fd5b82516001600160401b038082111561286d57600080fd5b818501915085601f83011261288157600080fd5b815161288f6123fd82612732565b81815260059190911b830184019084810190888311156128ae57600080fd5b8585015b838110156128e6578051858111156128ca5760008081fd5b6128d88b89838a010161253c565b8452509186019186016128b2565b5098975050505050505050565b60008251612905818460208701612161565b9190910192915050565b80516020808301519190811015612930576000198160200360031b1b821691505b5091905056fe360894a13ba1a3210667c828492db98dca3e2076cc3735a920a3ca505d382bbc416464726573733a206c6f772d6c6576656c2064656c65676174652063616c6c206661696c6564",
    "linkReferences": {}
  },
  "methodIdentifiers": {
    "SPACE_ADDRESS()": "34322eff",
    "TOKEN_ADDRESS()": "0bdf5300",
    "TOKEN_ID()": "89a89002",
    "addRoleIdToChannel(string,uint256)": "c513be77",
    "description()": "7284e416",
    "entitlementIdsByRoleId(uint256,uint256)": "97d038d1",
    "entitlementsById(bytes32)": "d3b2cfbf",
    "getEntitlementDataByRoleId(uint256)": "1eee07b2",
    "getRoleIdsByChannelId(string)": "41634aee",
    "getUserRoles(address)": "06a36aee",
    "initialize(address,uint256)": "cd6dc687",
    "isEntitled(string,address,bytes32)": "00b4eaa8",
    "moduleType()": "6465e69f",
    "name()": "06fdde03",
    "proxiableUUID()": "52d1902d",
    "removeEntitlement(uint256,bytes)": "fa6d1adf",
    "removeRoleIdFromChannel(string,uint256)": "f32f83ce",
    "roleIdsByChannelId(bytes32,uint256)": "053acb40",
    "setEntitlement(uint256,bytes)": "ef8be574",
    "setSpace(address)": "03b40534",
    "supportsInterface(bytes4)": "01ffc9a7",
    "upgradeTo(address)": "3659cfe6",
    "upgradeToAndCall(address,bytes)": "4f1ef286"
  },
  "id": 86
}