{
  "_format": "hh-sol-artifact-1",
  "contractName": "ZionSpaceManager",
  "sourceName": "contracts/zion-governance/contracts/spaces/ZionSpaceManager.sol",
  "abi": [
    {
      "inputs": [],
      "name": "DefaultEntitlementModuleNotSet",
      "type": "error"
    },
    {
      "inputs": [],
      "name": "EntitlementAlreadyRegistered",
      "type": "error"
    },
    {
      "inputs": [],
      "name": "EntitlementModuleNotSupported",
      "type": "error"
    },
    {
      "inputs": [],
      "name": "EntitlementNotWhitelisted",
      "type": "error"
    },
    {
      "inputs": [],
      "name": "NotSpaceOwner",
      "type": "error"
    },
    {
      "anonymous": false,
      "inputs": [
        {
          "indexed": true,
          "internalType": "address",
          "name": "previousOwner",
          "type": "address"
        },
        {
          "indexed": true,
          "internalType": "address",
          "name": "newOwner",
          "type": "address"
        }
      ],
      "name": "OwnershipTransferred",
      "type": "event"
    },
    {
      "inputs": [
        {
          "internalType": "uint256",
          "name": "spaceId",
          "type": "uint256"
        },
        {
          "internalType": "address",
          "name": "entitlementAddress",
          "type": "address"
        },
        {
          "internalType": "string",
          "name": "entitlementTag",
          "type": "string"
        },
        {
          "internalType": "enum DataTypes.EntitlementType[]",
          "name": "entitlementTypes",
          "type": "uint8[]"
        },
        {
          "internalType": "bytes",
          "name": "data",
          "type": "bytes"
        }
      ],
      "name": "addEntitlement",
      "outputs": [],
      "stateMutability": "nonpayable",
      "type": "function"
    },
    {
      "inputs": [
        {
          "internalType": "uint256",
          "name": "spaceId",
          "type": "uint256"
        },
        {
          "internalType": "address",
          "name": "entitlementModuleAddress",
          "type": "address"
        },
        {
          "internalType": "address",
          "name": "tokenAddress",
          "type": "address"
        },
        {
          "internalType": "uint256",
          "name": "amount",
          "type": "uint256"
        },
        {
          "internalType": "string",
          "name": "description",
          "type": "string"
        },
        {
          "internalType": "enum DataTypes.EntitlementType[]",
          "name": "entitlementTypes",
          "type": "uint8[]"
        }
      ],
      "name": "addTokenEntitlement",
      "outputs": [],
      "stateMutability": "nonpayable",
      "type": "function"
    },
    {
      "inputs": [
        {
          "components": [
            {
              "internalType": "string",
              "name": "spaceName",
              "type": "string"
            },
            {
              "internalType": "string",
              "name": "networkId",
              "type": "string"
            }
          ],
          "internalType": "struct DataTypes.CreateSpaceData",
          "name": "info",
          "type": "tuple"
        }
      ],
      "name": "createSpace",
      "outputs": [
        {
          "internalType": "uint256",
          "name": "",
          "type": "uint256"
        }
      ],
      "stateMutability": "nonpayable",
      "type": "function"
    },
    {
      "inputs": [
        {
          "components": [
            {
              "internalType": "string",
              "name": "spaceName",
              "type": "string"
            },
            {
              "internalType": "string",
              "name": "networkId",
              "type": "string"
            }
          ],
          "internalType": "struct DataTypes.CreateSpaceData",
          "name": "info",
          "type": "tuple"
        },
        {
          "components": [
            {
              "internalType": "address",
              "name": "entitlementModuleAddress",
              "type": "address"
            },
            {
              "internalType": "address",
              "name": "tokenAddress",
              "type": "address"
            },
            {
              "internalType": "uint256",
              "name": "quantity",
              "type": "uint256"
            },
            {
              "internalType": "string",
              "name": "description",
              "type": "string"
            },
            {
              "internalType": "enum DataTypes.EntitlementType[]",
              "name": "entitlementTypes",
              "type": "uint8[]"
            }
          ],
          "internalType": "struct DataTypes.CreateSpaceTokenEntitlementData",
          "name": "entitlement",
          "type": "tuple"
        }
      ],
      "name": "createSpaceWithTokenEntitlement",
      "outputs": [
        {
          "internalType": "uint256",
          "name": "",
          "type": "uint256"
        }
      ],
      "stateMutability": "nonpayable",
      "type": "function"
    },
    {
      "inputs": [
        {
          "internalType": "uint256",
          "name": "spaceId",
          "type": "uint256"
        }
      ],
      "name": "getEntitlementsBySpaceId",
      "outputs": [
        {
          "internalType": "address[]",
          "name": "entitlements",
          "type": "address[]"
        }
      ],
      "stateMutability": "view",
      "type": "function"
    },
    {
      "inputs": [
        {
          "internalType": "string",
          "name": "networkSpaceId",
          "type": "string"
        }
      ],
      "name": "getSpaceIdByNetworkId",
      "outputs": [
        {
          "internalType": "uint256",
          "name": "",
          "type": "uint256"
        }
      ],
      "stateMutability": "view",
      "type": "function"
    },
    {
      "inputs": [
        {
          "internalType": "uint256",
          "name": "_spaceId",
          "type": "uint256"
        }
      ],
      "name": "getSpaceInfoBySpaceId",
      "outputs": [
        {
          "components": [
            {
              "internalType": "uint256",
              "name": "spaceId",
              "type": "uint256"
            },
            {
              "internalType": "uint256",
              "name": "createdAt",
              "type": "uint256"
            },
            {
              "internalType": "string",
              "name": "name",
              "type": "string"
            },
            {
              "internalType": "address",
              "name": "creator",
              "type": "address"
            },
            {
              "internalType": "address",
              "name": "owner",
              "type": "address"
            }
          ],
          "internalType": "struct DataTypes.SpaceInfo",
          "name": "",
          "type": "tuple"
        }
      ],
      "stateMutability": "view",
      "type": "function"
    },
    {
      "inputs": [
        {
          "internalType": "uint256",
          "name": "_spaceId",
          "type": "uint256"
        }
      ],
      "name": "getSpaceOwnerBySpaceId",
      "outputs": [
        {
          "internalType": "address",
          "name": "ownerAddress",
          "type": "address"
        }
      ],
      "stateMutability": "view",
      "type": "function"
    },
    {
      "inputs": [],
      "name": "getSpaces",
      "outputs": [
        {
          "components": [
            {
              "internalType": "uint256",
              "name": "spaceId",
              "type": "uint256"
            },
            {
              "internalType": "uint256",
              "name": "createdAt",
              "type": "uint256"
            },
            {
              "internalType": "string",
              "name": "name",
              "type": "string"
            },
            {
              "internalType": "address",
              "name": "creator",
              "type": "address"
            },
            {
              "internalType": "address",
              "name": "owner",
              "type": "address"
            }
          ],
          "internalType": "struct DataTypes.SpaceInfo[]",
          "name": "",
          "type": "tuple[]"
        }
      ],
      "stateMutability": "view",
      "type": "function"
    },
    {
      "inputs": [
        {
          "internalType": "uint256",
          "name": "spaceId",
          "type": "uint256"
        },
        {
          "internalType": "uint256",
          "name": "roomId",
          "type": "uint256"
        },
        {
          "internalType": "address",
          "name": "user",
          "type": "address"
        },
        {
          "internalType": "enum DataTypes.EntitlementType",
          "name": "entitlementType",
          "type": "uint8"
        }
      ],
      "name": "isEntitled",
      "outputs": [
        {
          "internalType": "bool",
          "name": "",
          "type": "bool"
        }
      ],
      "stateMutability": "view",
      "type": "function"
    },
    {
      "inputs": [],
      "name": "owner",
      "outputs": [
        {
          "internalType": "address",
          "name": "",
          "type": "address"
        }
      ],
      "stateMutability": "view",
      "type": "function"
    },
    {
      "inputs": [
        {
          "internalType": "address",
          "name": "entitlementModule",
          "type": "address"
        },
        {
          "internalType": "string",
          "name": "entitlementModuleTag",
          "type": "string"
        }
      ],
      "name": "registerDefaultEntitlementModule",
      "outputs": [],
      "stateMutability": "nonpayable",
      "type": "function"
    },
    {
      "inputs": [
        {
          "internalType": "uint256",
          "name": "spaceId",
          "type": "uint256"
        },
        {
          "internalType": "address",
          "name": "entitlementAddress",
          "type": "address"
        },
        {
          "internalType": "string",
          "name": "entitlementTag",
          "type": "string"
        },
        {
          "internalType": "enum DataTypes.EntitlementType[]",
          "name": "entitlementTypes",
          "type": "uint8[]"
        },
        {
          "internalType": "bytes",
          "name": "entitlementData",
          "type": "bytes"
        }
      ],
      "name": "registerEntitlementWithEntitlementModule",
      "outputs": [],
      "stateMutability": "nonpayable",
      "type": "function"
    },
    {
      "inputs": [],
      "name": "renounceOwnership",
      "outputs": [],
      "stateMutability": "nonpayable",
      "type": "function"
    },
    {
      "inputs": [
        {
          "internalType": "uint256",
          "name": "spaceId",
          "type": "uint256"
        },
        {
          "internalType": "string",
          "name": "networkId",
          "type": "string"
        }
      ],
      "name": "setNetworkIdToSpaceId",
      "outputs": [],
      "stateMutability": "nonpayable",
      "type": "function"
    },
    {
      "inputs": [
        {
          "internalType": "address",
          "name": "newOwner",
          "type": "address"
        }
      ],
      "name": "transferOwnership",
      "outputs": [],
      "stateMutability": "nonpayable",
      "type": "function"
    },
    {
      "inputs": [
        {
          "internalType": "uint256",
          "name": "spaceId",
          "type": "uint256"
        },
        {
          "internalType": "address",
          "name": "entitlementAddress",
          "type": "address"
        },
        {
          "internalType": "string",
          "name": "entitlementTag",
          "type": "string"
        }
      ],
      "name": "whitelistEntitlementModule",
      "outputs": [],
      "stateMutability": "nonpayable",
      "type": "function"
    }
  ],
  "bytecode": "0x608060405234801561001057600080fd5b5061001a3361001f565b61006f565b600080546001600160a01b038381166001600160a01b0319831681178455604051919092169283917f8be0079c531659141344cd1fd0a4f28419497f9722a3daafe3b4186f6b6457e09190a35050565b611fea8061007e6000396000f3fe608060405234801561001057600080fd5b506004361061010b5760003560e01c80636f09c765116100a25780639ddd0d6b116100715780639ddd0d6b1461025a578063aeae4c9b1461026d578063b01dcb5f14610280578063eecbc19814610293578063f2fde38b146102a657600080fd5b80636f09c765146101d9578063715018a6146101fc5780637dde72d8146102045780638da5cb5b1461024957600080fd5b806333249bfd116100de57806333249bfd146101735780633439f03b1461018657806335205b43146101a657806350b88cf7146101c657600080fd5b806311c20f791461011057806315478ca91461013657806327324a2d1461014b57806330406f7b14610160575b600080fd5b61012361011e3660046113b9565b6102b9565b6040519081526020015b60405180910390f35b61013e61037a565b60405161012d91906114d2565b61015e61015936600461157c565b61050a565b005b61015e61016e3660046116a0565b61059a565b61015e6101813660046116ed565b61061e565b610199610194366004611746565b61066e565b60405161012d919061175f565b6101b96101b4366004611746565b610772565b60405161012d91906117b6565b6101236101d43660046117c9565b610881565b6101ec6101e7366004611814565b610ae8565b604051901515815260200161012d565b61015e610c0c565b610231610212366004611746565b600090815260056020819052604090912001546001600160a01b031690565b6040516001600160a01b03909116815260200161012d565b6000546001600160a01b0316610231565b61012361026836600461185a565b610c20565b61015e61027b366004611921565b610c4b565b61015e61028e3660046119b7565b610d51565b61015e6102a1366004611a6d565b610e1d565b61015e6102b4366004611b51565b610ecc565b6000806102c584610881565b9050610373816102d86020860186611b51565b6102e86040870160208801611b51565b60408701356102fa6060890189611b6c565b8080601f01602080910402602001604051908101604052809392919081815260200183838082843760009201919091525061033c9250505060808a018a611bb2565b80806020026020016040519081016040528093929190818152602001838360200280828437600092019190915250610c4b92505050565b9392505050565b606060006001546001600160401b03811115610398576103986115e3565b6040519080825280602002602001820160405280156103d157816020015b6103be611259565b8152602001906001900390816103b65790505b50905060005b6001548110156105045760006005816103f1846001611c11565b815260200190815260200160002090506040518060a00160405280826000015481526020018260010154815260200182600301805461042f90611c29565b80601f016020809104026020016040519081016040528092919081815260200182805461045b90611c29565b80156104a85780601f1061047d576101008083540402835291602001916104a8565b820191906000526020600020905b81548152906001019060200180831161048b57829003601f168201915b505050918352505060048301546001600160a01b03908116602083015260058401541660409091015283518490849081106104e5576104e5611c5d565b60200260200101819052505080806104fc90611c73565b9150506103d7565b50919050565b61051383610f4a565b600083815260056020526040902061052f90600201838361129a565b508260068383604051610543929190611c8c565b908152604051908190036020018120919091556105639083908390611c8c565b6040519081900381209084907f5650bbf78dc8f980db6f291fbdceaaa4f6ebdb6bbb197601616815ab430ff66390600090a3505050565b6105a2610f8a565b600280546001600160a01b0319166001600160a01b03841617905580516105d090600390602084019061131e565b50806040516105df9190611c9c565b604051908190038120906001600160a01b038416907f879c319e36b0f607bfed2caa2b15a8c601f36c393b67b13d9cc99f948ab0ed3590600090a35050565b61062784610f4a565b610668848484848080601f016020809104026020016040519081016040528093929190818152602001838380828437600092019190915250610fe492505050565b50505050565b610676611259565b6040805160a081018252600084815260056020818152848320805485526001810154828601529287905252600301805491928301916106b490611c29565b80601f01602080910402602001604051908101604052809291908181526020018280546106e090611c29565b801561072d5780601f106107025761010080835404028352916020019161072d565b820191906000526020600020905b81548152906001019060200180831161071057829003601f168201915b5050509183525050600084815260056020818152604080842060048101546001600160a01b039081168488015298909452908290529101549094169301929092525090565b6000818152600560205260409020600801546060906001600160401b0381111561079e5761079e6115e3565b6040519080825280602002602001820160405280156107c7578160200160208202803683370190505b50905060005b6000838152600560205260409020600801548110156105045760008381526005602052604090206008810180546007909201918390811061081057610810611c5d565b906000526020600020016040516108279190611cb8565b9081526040519081900360200190205482516001600160a01b039091169083908390811061085757610857611c5d565b6001600160a01b03909216602092830291909101909101528061087981611c73565b9150506107cd565b6002546000906001600160a01b03166108ad57604051632ab51add60e01b815260040160405180910390fd5b60006001600081546108be90611c73565b918290555060405163aa424abb60e01b815290915073__$0167f7afdf7c7be35671eabe0842b16bab$__9063aa424abb90610906908690859033906004906005908201611dc1565b60006040518083038186803b15801561091e57600080fd5b505af4158015610932573d6000803e3d6000fd5b5060009250600191506109429050565b60405190808252806020026020018201604052801561096b578160200160208202803683370190505b50905060008160008151811061098357610983611c5d565b6020026020010190600981111561099c5761099c611e3d565b908160098111156109af576109af611e3d565b90525060025460038054610a849285926001600160a01b03909116916109d490611c29565b80601f0160208091040260200160405190810160405280929190818152602001828054610a0090611c29565b8015610a4d5780601f10610a2257610100808354040283529160200191610a4d565b820191906000526020600020905b815481529060010190602001808311610a3057829003601f168201915b505050505084610a5a3390565b604080516001600160a01b039092166020830152015b604051602081830303815290604052610d51565b81610a8f8580611b6c565b604051610a9d929190611c8c565b6040518091039020610aac3390565b6001600160a01b03167fe810ac52999ebbac6d16870d4513abc7a36c0d6150963f25c940330923df477360405160405180910390a45092915050565b60008481526005602052604081206008015481805b82811015610c0157600088815260056020526040812060088101805460079092019184908110610b2f57610b2f611c5d565b90600052602060002001604051610b469190611cb8565b908152604051908190036020019020546001600160a01b031690508015610bee57604051636f09c76560e01b815281906001600160a01b03821690636f09c76590610b9b908d908d908d908d90600401611e75565b602060405180830381865afa158015610bb8573d6000803e3d6000fd5b505050506040513d601f19601f82011682018060405250810190610bdc9190611ea8565b15610bec57600193505050610c01565b505b5080610bf981611c73565b915050610afd565b509695505050505050565b610c14610f8a565b610c1e600061107c565b565b600060068383604051610c34929190611c8c565b908152602001604051809103902054905092915050565b610c5486610f4a565b610c5d856110cc565b6040805160018082528183019092526000916020808301908036833750506040805160018082528183019092529293506000929150602080830190803683370190505090508582600081518110610cb657610cb6611c5d565b60200260200101906001600160a01b031690816001600160a01b0316815250508481600081518110610cea57610cea611c5d565b602002602001018181525050610d4788886040518060400160405280601e81526020017f7a696f6e2d64656661756c742d746f6b656e2d656e7469746c656d656e74000081525086888787604051602001610a7093929190611eca565b5050505050505050565b610d5a85610f4a565b6000858152600560205260408082209051600790910190610d7c908690611c9c565b908152604051908190036020019020546001600160a01b031614610db3576040516303b224b160e11b815260040160405180910390fd5b610dbe858585610fe4565b610dcb858585858561115d565b82604051610dd99190611c9c565b604051908190038120906001600160a01b0386169087907f75232bef086cc6df38eae1a66d88c70e4f31b8daa6232de2e6f13967f64ce88290600090a45050505050565b610e2688610f4a565b610d47888888888080601f01602080910402602001604051908101604052809392919081815260200183838082843760009201919091525050604080516020808c0282810182019093528b82529093508b92508a91829185019084908082843760009201919091525050604080516020601f8b01819004810282018101909252898152925089915088908190840183828082843760009201919091525061115d92505050565b610ed4610f8a565b6001600160a01b038116610f3e5760405162461bcd60e51b815260206004820152602660248201527f4f776e61626c653a206e6577206f776e657220697320746865207a65726f206160448201526564647265737360d01b60648201526084015b60405180910390fd5b610f478161107c565b50565b60008181526005602081905260409091200154336001600160a01b0390911603610f715750565b604051638c09e73f60e01b815260040160405180910390fd5b6000546001600160a01b03163314610c1e5760405162461bcd60e51b815260206004820181905260248201527f4f776e61626c653a2063616c6c6572206973206e6f7420746865206f776e65726044820152606401610f35565b610fed826110cc565b60008381526005602090815260408220600801805460018101825590835291819020835161102293919091019184019061131e565b508160056000858152602001908152602001600020600701826040516110489190611c9c565b90815260405190819003602001902080546001600160a01b03929092166001600160a01b0319909216919091179055505050565b600080546001600160a01b038381166001600160a01b0319831681178455604051919092169283917f8be0079c531659141344cd1fd0a4f28419497f9722a3daafe3b4186f6b6457e09190a35050565b6040516301ffc9a760e01b8152630790ffbd60e51b60048201526001600160a01b038216906301ffc9a790602401602060405180830381865afa158015611117573d6000803e3d6000fd5b505050506040513d601f19601f8201168201806040525081019061113b9190611ea8565b1515600003610f4757604051636d9250f160e11b815260040160405180910390fd5b836001600160a01b0316600560008781526020019081526020016000206007018460405161118b9190611c9c565b908152604051908190036020019020546001600160a01b0316146111c25760405163c1ef36f360e01b815260040160405180910390fd5b60408051608081018252868152600087815260056020908152908390206006015490820152808201849052606081018390529051639d1630c560e01b815285916001600160a01b03831691639d1630c59161121f91600401611f33565b600060405180830381600087803b15801561123957600080fd5b505af115801561124d573d6000803e3d6000fd5b50505050505050505050565b6040518060a0016040528060008152602001600081526020016060815260200160006001600160a01b0316815260200160006001600160a01b031681525090565b8280546112a690611c29565b90600052602060002090601f0160209004810192826112c8576000855561130e565b82601f106112e15782800160ff1982351617855561130e565b8280016001018555821561130e579182015b8281111561130e5782358255916020019190600101906112f3565b5061131a929150611392565b5090565b82805461132a90611c29565b90600052602060002090601f01602090048101928261134c576000855561130e565b82601f1061136557805160ff191683800117855561130e565b8280016001018555821561130e579182015b8281111561130e578251825591602001919060010190611377565b5b8082111561131a5760008155600101611393565b60006040828403121561050457600080fd5b600080604083850312156113cc57600080fd5b82356001600160401b03808211156113e357600080fd5b6113ef868387016113a7565b9350602085013591508082111561140557600080fd5b50830160a0818603121561141857600080fd5b809150509250929050565b60005b8381101561143e578181015183820152602001611426565b838111156106685750506000910152565b60008151808452611467816020860160208601611423565b601f01601f19169290920160200192915050565b80518252602081015160208301526000604082015160a060408501526114a460a085018261144f565b6060848101516001600160a01b03908116918701919091526080948501511693909401929092525090919050565b6000602080830181845280855180835260408601915060408160051b870101925083870160005b8281101561152757603f1988860301845261151585835161147b565b945092850192908501906001016114f9565b5092979650505050505050565b60008083601f84011261154657600080fd5b5081356001600160401b0381111561155d57600080fd5b60208301915083602082850101111561157557600080fd5b9250929050565b60008060006040848603121561159157600080fd5b8335925060208401356001600160401b038111156115ae57600080fd5b6115ba86828701611534565b9497909650939450505050565b80356001600160a01b03811681146115de57600080fd5b919050565b634e487b7160e01b600052604160045260246000fd5b604051601f8201601f191681016001600160401b0381118282101715611621576116216115e3565b604052919050565b60006001600160401b03831115611642576116426115e3565b611655601f8401601f19166020016115f9565b905082815283838301111561166957600080fd5b828260208301376000602084830101529392505050565b600082601f83011261169157600080fd5b61037383833560208501611629565b600080604083850312156116b357600080fd5b6116bc836115c7565b915060208301356001600160401b038111156116d757600080fd5b6116e385828601611680565b9150509250929050565b6000806000806060858703121561170357600080fd5b84359350611713602086016115c7565b925060408501356001600160401b0381111561172e57600080fd5b61173a87828801611534565b95989497509550505050565b60006020828403121561175857600080fd5b5035919050565b602081526000610373602083018461147b565b600081518084526020808501945080840160005b838110156117ab5781516001600160a01b031687529582019590820190600101611786565b509495945050505050565b6020815260006103736020830184611772565b6000602082840312156117db57600080fd5b81356001600160401b038111156117f157600080fd5b6117fd848285016113a7565b949350505050565b8035600a81106115de57600080fd5b6000806000806080858703121561182a57600080fd5b8435935060208501359250611841604086016115c7565b915061184f60608601611805565b905092959194509250565b6000806020838503121561186d57600080fd5b82356001600160401b0381111561188357600080fd5b61188f85828601611534565b90969095509350505050565b600082601f8301126118ac57600080fd5b813560206001600160401b038211156118c7576118c76115e3565b8160051b6118d68282016115f9565b92835284810182019282810190878511156118f057600080fd5b83870192505b848310156119165761190783611805565b825291830191908301906118f6565b979650505050505050565b60008060008060008060c0878903121561193a57600080fd5b8635955061194a602088016115c7565b9450611958604088016115c7565b93506060870135925060808701356001600160401b038082111561197b57600080fd5b6119878a838b01611680565b935060a089013591508082111561199d57600080fd5b506119aa89828a0161189b565b9150509295509295509295565b600080600080600060a086880312156119cf57600080fd5b853594506119df602087016115c7565b935060408601356001600160401b03808211156119fb57600080fd5b611a0789838a01611680565b94506060880135915080821115611a1d57600080fd5b611a2989838a0161189b565b93506080880135915080821115611a3f57600080fd5b508601601f81018813611a5157600080fd5b611a6088823560208401611629565b9150509295509295909350565b60008060008060008060008060a0898b031215611a8957600080fd5b88359750611a9960208a016115c7565b965060408901356001600160401b0380821115611ab557600080fd5b611ac18c838d01611534565b909850965060608b0135915080821115611ada57600080fd5b818b0191508b601f830112611aee57600080fd5b813581811115611afd57600080fd5b8c60208260051b8501011115611b1257600080fd5b6020830196508095505060808b0135915080821115611b3057600080fd5b50611b3d8b828c01611534565b999c989b5096995094979396929594505050565b600060208284031215611b6357600080fd5b610373826115c7565b6000808335601e19843603018112611b8357600080fd5b8301803591506001600160401b03821115611b9d57600080fd5b60200191503681900382131561157557600080fd5b6000808335601e19843603018112611bc957600080fd5b8301803591506001600160401b03821115611be357600080fd5b6020019150600581901b360382131561157557600080fd5b634e487b7160e01b600052601160045260246000fd5b60008219821115611c2457611c24611bfb565b500190565b600181811c90821680611c3d57607f821691505b60208210810361050457634e487b7160e01b600052602260045260246000fd5b634e487b7160e01b600052603260045260246000fd5b600060018201611c8557611c85611bfb565b5060010190565b8183823760009101908152919050565b60008251611cae818460208701611423565b9190910192915050565b600080835481600182811c915080831680611cd457607f831692505b60208084108203611cf357634e487b7160e01b86526022600452602486fd5b818015611d075760018114611d1857611d45565b60ff19861689528489019650611d45565b60008a81526020902060005b86811015611d3d5781548b820152908501908301611d24565b505084890196505b509498975050505050505050565b6000808335601e19843603018112611d6a57600080fd5b83016020810192503590506001600160401b03811115611d8957600080fd5b80360383131561157557600080fd5b81835281816020850137506000828201602090810191909152601f909101601f19169091010190565b60a081526000611dd18788611d53565b604060a0850152611de660e085018284611d98565b915050611df66020890189611d53565b848303609f190160c0860152611e0d838284611d98565b6020860199909952505050506001600160a01b039390931660408401526060830191909152608090910152919050565b634e487b7160e01b600052602160045260246000fd5b600a8110611e7157634e487b7160e01b600052602160045260246000fd5b9052565b848152602081018490526001600160a01b038316604082015260808101611e9f6060830184611e53565b95945050505050565b600060208284031215611eba57600080fd5b8151801515811461037357600080fd5b606081526000611edd606083018661144f565b602083820381850152611ef08287611772565b8481036040860152855180825282870193509082019060005b81811015611f2557845183529383019391830191600101611f09565b509098975050505050505050565b6000602080835260a0830184518285015281850151604085015260408501516080606086015281815180845260c0870191508483019350600092505b80831015611f9657611f82828551611e53565b928401926001929092019190840190611f6f565b506060870151868203601f190160808801529350611916818561144f56fea2646970667358221220398c41437aabf889468e2a91ae6f5b0340688f1f471d84bf8f63e675c2693cb264736f6c634300080d0033",
  "linkReferences": {
    "contracts/zion-governance/contracts/spaces/libraries/ZionSpaceController.sol": {
      "ZionSpaceController": [
        {
          "length": 20,
          "start": 2387
        }
      ]
    }
  },
  "deployedLinkReferences": {
    "contracts/zion-governance/contracts/spaces/libraries/ZionSpaceController.sol": {
      "ZionSpaceController": [
        {
          "length": 20,
          "start": 2261
        }
      ]
    }
  }
}