{
  "address": "0xa513E6E4b8f2a923D98304ec87F64353C4D5C853",
  "abi": [
    {
      "anonymous": false,
      "inputs": [
        {
          "indexed": true,
          "internalType": "address",
          "name": "previousOwner",
          "type": "address"
        },
        {
          "indexed": true,
          "internalType": "address",
          "name": "newOwner",
          "type": "address"
        }
      ],
      "name": "OwnershipTransferred",
      "type": "event"
    },
    {
      "anonymous": false,
      "inputs": [
        {
          "indexed": false,
          "internalType": "uint256",
          "name": "newVal",
          "type": "uint256"
        }
      ],
      "name": "ValChanged",
      "type": "event"
    },
    {
      "inputs": [],
      "name": "getVal",
      "outputs": [
        {
          "internalType": "uint256",
          "name": "",
          "type": "uint256"
        }
      ],
      "stateMutability": "view",
      "type": "function"
    },
    {
      "inputs": [],
      "name": "owner",
      "outputs": [
        {
          "internalType": "address",
          "name": "",
          "type": "address"
        }
      ],
      "stateMutability": "view",
      "type": "function"
    },
    {
      "inputs": [],
      "name": "renounceOwnership",
      "outputs": [],
      "stateMutability": "nonpayable",
      "type": "function"
    },
    {
      "inputs": [
        {
          "internalType": "uint256",
          "name": "newVal",
          "type": "uint256"
        }
      ],
      "name": "store",
      "outputs": [],
      "stateMutability": "nonpayable",
      "type": "function"
    },
    {
      "inputs": [
        {
          "internalType": "address",
          "name": "newOwner",
          "type": "address"
        }
      ],
      "name": "transferOwnership",
      "outputs": [],
      "stateMutability": "nonpayable",
      "type": "function"
    }
  ],
  "transactionHash": "0xb4b259c4215cb5c1cd04703414ddf0141dec31a95e8ac6b48d0d7dc36b1647c2",
  "args": [],
  "numDeployments": 1,
  "solcInputHash": "f85082cc27ee6009c209d2677dce82cf",
  "bytecode": "0x608060405234801561001057600080fd5b5061002d61002261003260201b60201c565b61003a60201b60201c565b6100fe565b600033905090565b60008060009054906101000a900473ffffffffffffffffffffffffffffffffffffffff169050816000806101000a81548173ffffffffffffffffffffffffffffffffffffffff021916908373ffffffffffffffffffffffffffffffffffffffff1602179055508173ffffffffffffffffffffffffffffffffffffffff168173ffffffffffffffffffffffffffffffffffffffff167f8be0079c531659141344cd1fd0a4f28419497f9722a3daafe3b4186f6b6457e060405160405180910390a35050565b6106a38061010d6000396000f3fe608060405234801561001057600080fd5b50600436106100575760003560e01c80636057361d1461005c578063715018a6146100785780638da5cb5b14610082578063e1cb0e52146100a0578063f2fde38b146100be575b600080fd5b61007660048036038101906100719190610452565b6100da565b005b610080610199565b005b61008a610221565b60405161009791906104c0565b60405180910390f35b6100a861024a565b6040516100b591906104ea565b60405180910390f35b6100d860048036038101906100d39190610531565b610254565b005b6100e261034b565b73ffffffffffffffffffffffffffffffffffffffff16610100610221565b73ffffffffffffffffffffffffffffffffffffffff1614610156576040517f08c379a000000000000000000000000000000000000000000000000000000000815260040161014d906105bb565b60405180910390fd5b806001819055507f13c25206875eecf3a7bdc4735ecc06687ab7ec4b5c2055f01539742556abd52a60015460405161018e91906104ea565b60405180910390a150565b6101a161034b565b73ffffffffffffffffffffffffffffffffffffffff166101bf610221565b73ffffffffffffffffffffffffffffffffffffffff1614610215576040517f08c379a000000000000000000000000000000000000000000000000000000000815260040161020c906105bb565b60405180910390fd5b61021f6000610353565b565b60008060009054906101000a900473ffffffffffffffffffffffffffffffffffffffff16905090565b6000600154905090565b61025c61034b565b73ffffffffffffffffffffffffffffffffffffffff1661027a610221565b73ffffffffffffffffffffffffffffffffffffffff16146102d0576040517f08c379a00000000000000000000000000000000000000000000000000000000081526004016102c7906105bb565b60405180910390fd5b600073ffffffffffffffffffffffffffffffffffffffff168173ffffffffffffffffffffffffffffffffffffffff160361033f576040517f08c379a00000000000000000000000000000000000000000000000000000000081526004016103369061064d565b60405180910390fd5b61034881610353565b50565b600033905090565b60008060009054906101000a900473ffffffffffffffffffffffffffffffffffffffff169050816000806101000a81548173ffffffffffffffffffffffffffffffffffffffff021916908373ffffffffffffffffffffffffffffffffffffffff1602179055508173ffffffffffffffffffffffffffffffffffffffff168173ffffffffffffffffffffffffffffffffffffffff167f8be0079c531659141344cd1fd0a4f28419497f9722a3daafe3b4186f6b6457e060405160405180910390a35050565b600080fd5b6000819050919050565b61042f8161041c565b811461043a57600080fd5b50565b60008135905061044c81610426565b92915050565b60006020828403121561046857610467610417565b5b60006104768482850161043d565b91505092915050565b600073ffffffffffffffffffffffffffffffffffffffff82169050919050565b60006104aa8261047f565b9050919050565b6104ba8161049f565b82525050565b60006020820190506104d560008301846104b1565b92915050565b6104e48161041c565b82525050565b60006020820190506104ff60008301846104db565b92915050565b61050e8161049f565b811461051957600080fd5b50565b60008135905061052b81610505565b92915050565b60006020828403121561054757610546610417565b5b60006105558482850161051c565b91505092915050565b600082825260208201905092915050565b7f4f776e61626c653a2063616c6c6572206973206e6f7420746865206f776e6572600082015250565b60006105a560208361055e565b91506105b08261056f565b602082019050919050565b600060208201905081810360008301526105d481610598565b9050919050565b7f4f776e61626c653a206e6577206f776e657220697320746865207a65726f206160008201527f6464726573730000000000000000000000000000000000000000000000000000602082015250565b600061063760268361055e565b9150610642826105db565b604082019050919050565b600060208201905081810360008301526106668161062a565b905091905056fea26469706673582212207609fe05993159ab0df3f2588fbdee1a555622ba64fdec5fa4063d80950c1f0164736f6c634300080d0033",
  "devdoc": {
    "kind": "dev",
    "methods": {
      "owner()": {
        "details": "Returns the address of the current owner."
      },
      "renounceOwnership()": {
        "details": "Leaves the contract without owner. It will not be possible to call `onlyOwner` functions anymore. Can only be called by the current owner. NOTE: Renouncing ownership will leave the contract without an owner, thereby removing any functionality that is only available to the owner."
      },
      "transferOwnership(address)": {
        "details": "Transfers ownership of the contract to a new account (`newOwner`). Can only be called by the current owner."
      }
    },
    "version": 1
  },
  "userdoc": {
    "kind": "user",
    "methods": {},
    "version": 1
  },
  "storageLayout": {
    "storage": [
      {
        "astId": 2177,
        "contract": "src/governance/BackgroundPicker.sol:BackgroundPicker",
        "label": "_owner",
        "offset": 0,
        "slot": "0",
        "type": "t_address"
      },
      {
        "astId": 10285,
        "contract": "src/governance/BackgroundPicker.sol:BackgroundPicker",
        "label": "currentVal",
        "offset": 0,
        "slot": "1",
        "type": "t_uint256"
      }
    ],
    "types": {
      "t_address": {
        "encoding": "inplace",
        "label": "address",
        "numberOfBytes": "20"
      },
      "t_uint256": {
        "encoding": "inplace",
        "label": "uint256",
        "numberOfBytes": "32"
      }
    }
  }
}