{
  "address": "0xCf7Ed3AccA5a467e9e704C703E8D87F634fB0Fc9",
  "abi": [
    {
      "inputs": [
        {
          "internalType": "contract IVotes",
          "name": "_token",
          "type": "address"
        },
        {
          "internalType": "contract TimelockController",
          "name": "_timelock",
          "type": "address"
        },
        {
          "internalType": "uint256",
          "name": "_votingDelay",
          "type": "uint256"
        },
        {
          "internalType": "uint256",
          "name": "_votingPeriod",
          "type": "uint256"
        },
        {
          "internalType": "uint256",
          "name": "_quorumPercentage",
          "type": "uint256"
        }
      ],
      "stateMutability": "nonpayable",
      "type": "constructor"
    },
    {
      "anonymous": false,
      "inputs": [
        {
          "indexed": false,
          "internalType": "uint256",
          "name": "proposalId",
          "type": "uint256"
        }
      ],
      "name": "ProposalCanceled",
      "type": "event"
    },
    {
      "anonymous": false,
      "inputs": [
        {
          "indexed": false,
          "internalType": "uint256",
          "name": "proposalId",
          "type": "uint256"
        },
        {
          "indexed": false,
          "internalType": "address",
          "name": "proposer",
          "type": "address"
        },
        {
          "indexed": false,
          "internalType": "address[]",
          "name": "targets",
          "type": "address[]"
        },
        {
          "indexed": false,
          "internalType": "uint256[]",
          "name": "values",
          "type": "uint256[]"
        },
        {
          "indexed": false,
          "internalType": "string[]",
          "name": "signatures",
          "type": "string[]"
        },
        {
          "indexed": false,
          "internalType": "bytes[]",
          "name": "calldatas",
          "type": "bytes[]"
        },
        {
          "indexed": false,
          "internalType": "uint256",
          "name": "startBlock",
          "type": "uint256"
        },
        {
          "indexed": false,
          "internalType": "uint256",
          "name": "endBlock",
          "type": "uint256"
        },
        {
          "indexed": false,
          "internalType": "string",
          "name": "description",
          "type": "string"
        }
      ],
      "name": "ProposalCreated",
      "type": "event"
    },
    {
      "anonymous": false,
      "inputs": [
        {
          "indexed": false,
          "internalType": "uint256",
          "name": "proposalId",
          "type": "uint256"
        }
      ],
      "name": "ProposalExecuted",
      "type": "event"
    },
    {
      "anonymous": false,
      "inputs": [
        {
          "indexed": false,
          "internalType": "uint256",
          "name": "proposalId",
          "type": "uint256"
        },
        {
          "indexed": false,
          "internalType": "uint256",
          "name": "eta",
          "type": "uint256"
        }
      ],
      "name": "ProposalQueued",
      "type": "event"
    },
    {
      "anonymous": false,
      "inputs": [
        {
          "indexed": false,
          "internalType": "uint256",
          "name": "oldProposalThreshold",
          "type": "uint256"
        },
        {
          "indexed": false,
          "internalType": "uint256",
          "name": "newProposalThreshold",
          "type": "uint256"
        }
      ],
      "name": "ProposalThresholdSet",
      "type": "event"
    },
    {
      "anonymous": false,
      "inputs": [
        {
          "indexed": false,
          "internalType": "uint256",
          "name": "oldQuorumNumerator",
          "type": "uint256"
        },
        {
          "indexed": false,
          "internalType": "uint256",
          "name": "newQuorumNumerator",
          "type": "uint256"
        }
      ],
      "name": "QuorumNumeratorUpdated",
      "type": "event"
    },
    {
      "anonymous": false,
      "inputs": [
        {
          "indexed": false,
          "internalType": "address",
          "name": "oldTimelock",
          "type": "address"
        },
        {
          "indexed": false,
          "internalType": "address",
          "name": "newTimelock",
          "type": "address"
        }
      ],
      "name": "TimelockChange",
      "type": "event"
    },
    {
      "anonymous": false,
      "inputs": [
        {
          "indexed": true,
          "internalType": "address",
          "name": "voter",
          "type": "address"
        },
        {
          "indexed": false,
          "internalType": "uint256",
          "name": "proposalId",
          "type": "uint256"
        },
        {
          "indexed": false,
          "internalType": "uint8",
          "name": "support",
          "type": "uint8"
        },
        {
          "indexed": false,
          "internalType": "uint256",
          "name": "weight",
          "type": "uint256"
        },
        {
          "indexed": false,
          "internalType": "string",
          "name": "reason",
          "type": "string"
        }
      ],
      "name": "VoteCast",
      "type": "event"
    },
    {
      "anonymous": false,
      "inputs": [
        {
          "indexed": false,
          "internalType": "uint256",
          "name": "oldVotingDelay",
          "type": "uint256"
        },
        {
          "indexed": false,
          "internalType": "uint256",
          "name": "newVotingDelay",
          "type": "uint256"
        }
      ],
      "name": "VotingDelaySet",
      "type": "event"
    },
    {
      "anonymous": false,
      "inputs": [
        {
          "indexed": false,
          "internalType": "uint256",
          "name": "oldVotingPeriod",
          "type": "uint256"
        },
        {
          "indexed": false,
          "internalType": "uint256",
          "name": "newVotingPeriod",
          "type": "uint256"
        }
      ],
      "name": "VotingPeriodSet",
      "type": "event"
    },
    {
      "inputs": [],
      "name": "BALLOT_TYPEHASH",
      "outputs": [
        {
          "internalType": "bytes32",
          "name": "",
          "type": "bytes32"
        }
      ],
      "stateMutability": "view",
      "type": "function"
    },
    {
      "inputs": [],
      "name": "COUNTING_MODE",
      "outputs": [
        {
          "internalType": "string",
          "name": "",
          "type": "string"
        }
      ],
      "stateMutability": "pure",
      "type": "function"
    },
    {
      "inputs": [],
      "name": "blockNumber",
      "outputs": [
        {
          "internalType": "uint256",
          "name": "",
          "type": "uint256"
        }
      ],
      "stateMutability": "view",
      "type": "function"
    },
    {
      "inputs": [
        {
          "internalType": "uint256",
          "name": "proposalId",
          "type": "uint256"
        },
        {
          "internalType": "uint8",
          "name": "support",
          "type": "uint8"
        }
      ],
      "name": "castVote",
      "outputs": [
        {
          "internalType": "uint256",
          "name": "",
          "type": "uint256"
        }
      ],
      "stateMutability": "nonpayable",
      "type": "function"
    },
    {
      "inputs": [
        {
          "internalType": "uint256",
          "name": "proposalId",
          "type": "uint256"
        },
        {
          "internalType": "uint8",
          "name": "support",
          "type": "uint8"
        },
        {
          "internalType": "uint8",
          "name": "v",
          "type": "uint8"
        },
        {
          "internalType": "bytes32",
          "name": "r",
          "type": "bytes32"
        },
        {
          "internalType": "bytes32",
          "name": "s",
          "type": "bytes32"
        }
      ],
      "name": "castVoteBySig",
      "outputs": [
        {
          "internalType": "uint256",
          "name": "",
          "type": "uint256"
        }
      ],
      "stateMutability": "nonpayable",
      "type": "function"
    },
    {
      "inputs": [
        {
          "internalType": "uint256",
          "name": "proposalId",
          "type": "uint256"
        },
        {
          "internalType": "uint8",
          "name": "support",
          "type": "uint8"
        },
        {
          "internalType": "string",
          "name": "reason",
          "type": "string"
        }
      ],
      "name": "castVoteWithReason",
      "outputs": [
        {
          "internalType": "uint256",
          "name": "",
          "type": "uint256"
        }
      ],
      "stateMutability": "nonpayable",
      "type": "function"
    },
    {
      "inputs": [
        {
          "internalType": "address[]",
          "name": "targets",
          "type": "address[]"
        },
        {
          "internalType": "uint256[]",
          "name": "values",
          "type": "uint256[]"
        },
        {
          "internalType": "bytes[]",
          "name": "calldatas",
          "type": "bytes[]"
        },
        {
          "internalType": "bytes32",
          "name": "descriptionHash",
          "type": "bytes32"
        }
      ],
      "name": "execute",
      "outputs": [
        {
          "internalType": "uint256",
          "name": "",
          "type": "uint256"
        }
      ],
      "stateMutability": "payable",
      "type": "function"
    },
    {
      "inputs": [
        {
          "internalType": "address",
          "name": "account",
          "type": "address"
        },
        {
          "internalType": "uint256",
          "name": "blockNumber",
          "type": "uint256"
        }
      ],
      "name": "getVotes",
      "outputs": [
        {
          "internalType": "uint256",
          "name": "",
          "type": "uint256"
        }
      ],
      "stateMutability": "view",
      "type": "function"
    },
    {
      "inputs": [
        {
          "internalType": "uint256",
          "name": "proposalId",
          "type": "uint256"
        },
        {
          "internalType": "address",
          "name": "account",
          "type": "address"
        }
      ],
      "name": "hasVoted",
      "outputs": [
        {
          "internalType": "bool",
          "name": "",
          "type": "bool"
        }
      ],
      "stateMutability": "view",
      "type": "function"
    },
    {
      "inputs": [
        {
          "internalType": "address[]",
          "name": "targets",
          "type": "address[]"
        },
        {
          "internalType": "uint256[]",
          "name": "values",
          "type": "uint256[]"
        },
        {
          "internalType": "bytes[]",
          "name": "calldatas",
          "type": "bytes[]"
        },
        {
          "internalType": "bytes32",
          "name": "descriptionHash",
          "type": "bytes32"
        }
      ],
      "name": "hashProposal",
      "outputs": [
        {
          "internalType": "uint256",
          "name": "",
          "type": "uint256"
        }
      ],
      "stateMutability": "pure",
      "type": "function"
    },
    {
      "inputs": [],
      "name": "name",
      "outputs": [
        {
          "internalType": "string",
          "name": "",
          "type": "string"
        }
      ],
      "stateMutability": "view",
      "type": "function"
    },
    {
      "inputs": [
        {
          "internalType": "uint256",
          "name": "proposalId",
          "type": "uint256"
        }
      ],
      "name": "proposalDeadline",
      "outputs": [
        {
          "internalType": "uint256",
          "name": "",
          "type": "uint256"
        }
      ],
      "stateMutability": "view",
      "type": "function"
    },
    {
      "inputs": [
        {
          "internalType": "uint256",
          "name": "proposalId",
          "type": "uint256"
        }
      ],
      "name": "proposalEta",
      "outputs": [
        {
          "internalType": "uint256",
          "name": "",
          "type": "uint256"
        }
      ],
      "stateMutability": "view",
      "type": "function"
    },
    {
      "inputs": [
        {
          "internalType": "uint256",
          "name": "proposalId",
          "type": "uint256"
        }
      ],
      "name": "proposalSnapshot",
      "outputs": [
        {
          "internalType": "uint256",
          "name": "",
          "type": "uint256"
        }
      ],
      "stateMutability": "view",
      "type": "function"
    },
    {
      "inputs": [],
      "name": "proposalThreshold",
      "outputs": [
        {
          "internalType": "uint256",
          "name": "",
          "type": "uint256"
        }
      ],
      "stateMutability": "view",
      "type": "function"
    },
    {
      "inputs": [
        {
          "internalType": "uint256",
          "name": "proposalId",
          "type": "uint256"
        }
      ],
      "name": "proposalVotes",
      "outputs": [
        {
          "internalType": "uint256",
          "name": "againstVotes",
          "type": "uint256"
        },
        {
          "internalType": "uint256",
          "name": "forVotes",
          "type": "uint256"
        },
        {
          "internalType": "uint256",
          "name": "abstainVotes",
          "type": "uint256"
        }
      ],
      "stateMutability": "view",
      "type": "function"
    },
    {
      "inputs": [
        {
          "internalType": "address[]",
          "name": "targets",
          "type": "address[]"
        },
        {
          "internalType": "uint256[]",
          "name": "values",
          "type": "uint256[]"
        },
        {
          "internalType": "bytes[]",
          "name": "calldatas",
          "type": "bytes[]"
        },
        {
          "internalType": "string",
          "name": "description",
          "type": "string"
        }
      ],
      "name": "propose",
      "outputs": [
        {
          "internalType": "uint256",
          "name": "",
          "type": "uint256"
        }
      ],
      "stateMutability": "nonpayable",
      "type": "function"
    },
    {
      "inputs": [
        {
          "internalType": "address[]",
          "name": "targets",
          "type": "address[]"
        },
        {
          "internalType": "uint256[]",
          "name": "values",
          "type": "uint256[]"
        },
        {
          "internalType": "bytes[]",
          "name": "calldatas",
          "type": "bytes[]"
        },
        {
          "internalType": "bytes32",
          "name": "descriptionHash",
          "type": "bytes32"
        }
      ],
      "name": "queue",
      "outputs": [
        {
          "internalType": "uint256",
          "name": "",
          "type": "uint256"
        }
      ],
      "stateMutability": "nonpayable",
      "type": "function"
    },
    {
      "inputs": [
        {
          "internalType": "uint256",
          "name": "blockNumber",
          "type": "uint256"
        }
      ],
      "name": "quorum",
      "outputs": [
        {
          "internalType": "uint256",
          "name": "",
          "type": "uint256"
        }
      ],
      "stateMutability": "view",
      "type": "function"
    },
    {
      "inputs": [],
      "name": "quorumDenominator",
      "outputs": [
        {
          "internalType": "uint256",
          "name": "",
          "type": "uint256"
        }
      ],
      "stateMutability": "view",
      "type": "function"
    },
    {
      "inputs": [],
      "name": "quorumNumerator",
      "outputs": [
        {
          "internalType": "uint256",
          "name": "",
          "type": "uint256"
        }
      ],
      "stateMutability": "view",
      "type": "function"
    },
    {
      "inputs": [
        {
          "internalType": "address",
          "name": "target",
          "type": "address"
        },
        {
          "internalType": "uint256",
          "name": "value",
          "type": "uint256"
        },
        {
          "internalType": "bytes",
          "name": "data",
          "type": "bytes"
        }
      ],
      "name": "relay",
      "outputs": [],
      "stateMutability": "nonpayable",
      "type": "function"
    },
    {
      "inputs": [
        {
          "internalType": "uint256",
          "name": "newProposalThreshold",
          "type": "uint256"
        }
      ],
      "name": "setProposalThreshold",
      "outputs": [],
      "stateMutability": "nonpayable",
      "type": "function"
    },
    {
      "inputs": [
        {
          "internalType": "uint256",
          "name": "newVotingDelay",
          "type": "uint256"
        }
      ],
      "name": "setVotingDelay",
      "outputs": [],
      "stateMutability": "nonpayable",
      "type": "function"
    },
    {
      "inputs": [
        {
          "internalType": "uint256",
          "name": "newVotingPeriod",
          "type": "uint256"
        }
      ],
      "name": "setVotingPeriod",
      "outputs": [],
      "stateMutability": "nonpayable",
      "type": "function"
    },
    {
      "inputs": [
        {
          "internalType": "uint256",
          "name": "proposalId",
          "type": "uint256"
        }
      ],
      "name": "state",
      "outputs": [
        {
          "internalType": "enum IGovernor.ProposalState",
          "name": "",
          "type": "uint8"
        }
      ],
      "stateMutability": "view",
      "type": "function"
    },
    {
      "inputs": [
        {
          "internalType": "bytes4",
          "name": "interfaceId",
          "type": "bytes4"
        }
      ],
      "name": "supportsInterface",
      "outputs": [
        {
          "internalType": "bool",
          "name": "",
          "type": "bool"
        }
      ],
      "stateMutability": "view",
      "type": "function"
    },
    {
      "inputs": [],
      "name": "timelock",
      "outputs": [
        {
          "internalType": "address",
          "name": "",
          "type": "address"
        }
      ],
      "stateMutability": "view",
      "type": "function"
    },
    {
      "inputs": [],
      "name": "token",
      "outputs": [
        {
          "internalType": "contract IVotes",
          "name": "",
          "type": "address"
        }
      ],
      "stateMutability": "view",
      "type": "function"
    },
    {
      "inputs": [
        {
          "internalType": "uint256",
          "name": "newQuorumNumerator",
          "type": "uint256"
        }
      ],
      "name": "updateQuorumNumerator",
      "outputs": [],
      "stateMutability": "nonpayable",
      "type": "function"
    },
    {
      "inputs": [
        {
          "internalType": "contract TimelockController",
          "name": "newTimelock",
          "type": "address"
        }
      ],
      "name": "updateTimelock",
      "outputs": [],
      "stateMutability": "nonpayable",
      "type": "function"
    },
    {
      "inputs": [],
      "name": "version",
      "outputs": [
        {
          "internalType": "string",
          "name": "",
          "type": "string"
        }
      ],
      "stateMutability": "view",
      "type": "function"
    },
    {
      "inputs": [],
      "name": "votingDelay",
      "outputs": [
        {
          "internalType": "uint256",
          "name": "",
          "type": "uint256"
        }
      ],
      "stateMutability": "view",
      "type": "function"
    },
    {
      "inputs": [],
      "name": "votingPeriod",
      "outputs": [
        {
          "internalType": "uint256",
          "name": "",
          "type": "uint256"
        }
      ],
      "stateMutability": "view",
      "type": "function"
    },
    {
      "stateMutability": "payable",
      "type": "receive"
    }
  ],
  "transactionHash": "0xf71a4fe06cc85bc65c72b087802cb5b9215296c5faa31405fcbdae14d6cec8cb",
  "args": [
    "0x5FbDB2315678afecb367f032d93F642f64180aa3",
    "0x9fE46736679d2D9a65F0992F2272dE9f3c7fa6e0",
    1,
    50,
    4
  ],
  "numDeployments": 1,
  "solcInputHash": "9dea8faa60426b4cd01f4aea2fb2c04f",
  "bytecode": "0x6101606040523480156200001257600080fd5b5060405162005b5738038062005b5783398181016040528101906200003891906200068f565b838186858560006040518060400160405280601081526020017f476f7665726e6f72436f6e7472616374000000000000000000000000000000008152508062000086620001ed60201b60201c565b60008280519060200120905060008280519060200120905060007f8b73c3c69bb8fe3d512ecc4cf759cc79239f7b179b0ffacaa9a75d522b39400f90508260e081815250508161010081815250504660a08181525050620000ef8184846200022a60201b60201c565b608081815250503073ffffffffffffffffffffffffffffffffffffffff1660c08173ffffffffffffffffffffffffffffffffffffffff16815250508061012081815250505050505050806000908051906020019062000150929190620004cd565b505062000163836200026660201b60201c565b6200017482620002ad60201b60201c565b62000185816200033a60201b60201c565b5050508073ffffffffffffffffffffffffffffffffffffffff166101408173ffffffffffffffffffffffffffffffffffffffff168152505050620001cf816200038160201b60201c565b50620001e1816200042360201b60201c565b505050505050620009d6565b60606040518060400160405280600181526020017f3100000000000000000000000000000000000000000000000000000000000000815250905090565b600083838346306040516020016200024795949392919062000754565b6040516020818303038152906040528051906020012090509392505050565b7fc565b045403dc03c2eea82b81a0465edad9e2e7fc4d97e11421c209da93d7a93600254826040516200029b929190620007b1565b60405180910390a18060028190555050565b60008111620002f3576040517f08c379a0000000000000000000000000000000000000000000000000000000008152600401620002ea9062000865565b60405180910390fd5b7f7e3f7f0708a84de9203036abaa450dccc85ad5ff52f78c170f3edb55cf5e88286003548260405162000328929190620007b1565b60405180910390a18060038190555050565b7fccb45da8d5717e6c4544694297c4ba5cf151d455c9bb0ed4fc7a38411bc05461600454826040516200036f929190620007b1565b60405180910390a18060048190555050565b62000391620004c460201b60201c565b811115620003d6576040517f08c379a0000000000000000000000000000000000000000000000000000000008152600401620003cd9062000923565b60405180910390fd5b60006006549050816006819055507f0553476bf02ef2726e8ce5ced78d63e26e602e4a2257b1f559418e24b4633997818360405162000417929190620007b1565b60405180910390a15050565b7f08f74ea46ef7894f65eabfb5e6e695de773a000b47c529ab559178069b226401600760009054906101000a900473ffffffffffffffffffffffffffffffffffffffff16826040516200047892919062000945565b60405180910390a180600760006101000a81548173ffffffffffffffffffffffffffffffffffffffff021916908373ffffffffffffffffffffffffffffffffffffffff16021790555050565b60006064905090565b828054620004db90620009a1565b90600052602060002090601f016020900481019282620004ff57600085556200054b565b82601f106200051a57805160ff19168380011785556200054b565b828001600101855582156200054b579182015b828111156200054a5782518255916020019190600101906200052d565b5b5090506200055a91906200055e565b5090565b5b80821115620005795760008160009055506001016200055f565b5090565b600080fd5b600073ffffffffffffffffffffffffffffffffffffffff82169050919050565b6000620005af8262000582565b9050919050565b6000620005c382620005a2565b9050919050565b620005d581620005b6565b8114620005e157600080fd5b50565b600081519050620005f581620005ca565b92915050565b6000620006088262000582565b9050919050565b60006200061c82620005fb565b9050919050565b6200062e816200060f565b81146200063a57600080fd5b50565b6000815190506200064e8162000623565b92915050565b6000819050919050565b620006698162000654565b81146200067557600080fd5b50565b60008151905062000689816200065e565b92915050565b600080600080600060a08688031215620006ae57620006ad6200057d565b5b6000620006be88828901620005e4565b9550506020620006d1888289016200063d565b9450506040620006e48882890162000678565b9350506060620006f78882890162000678565b92505060806200070a8882890162000678565b9150509295509295909350565b6000819050919050565b6200072c8162000717565b82525050565b6200073d8162000654565b82525050565b6200074e81620005a2565b82525050565b600060a0820190506200076b600083018862000721565b6200077a602083018762000721565b62000789604083018662000721565b62000798606083018562000732565b620007a7608083018462000743565b9695505050505050565b6000604082019050620007c8600083018562000732565b620007d7602083018462000732565b9392505050565b600082825260208201905092915050565b7f476f7665726e6f7253657474696e67733a20766f74696e6720706572696f642060008201527f746f6f206c6f7700000000000000000000000000000000000000000000000000602082015250565b60006200084d602783620007de565b91506200085a82620007ef565b604082019050919050565b6000602082019050818103600083015262000880816200083e565b9050919050565b7f476f7665726e6f72566f74657351756f72756d4672616374696f6e3a2071756f60008201527f72756d4e756d657261746f72206f7665722071756f72756d44656e6f6d696e6160208201527f746f720000000000000000000000000000000000000000000000000000000000604082015250565b60006200090b604383620007de565b9150620009188262000887565b606082019050919050565b600060208201905081810360008301526200093e81620008fc565b9050919050565b60006040820190506200095c600083018562000743565b6200096b602083018462000743565b9392505050565b7f4e487b7100000000000000000000000000000000000000000000000000000000600052602260045260246000fd5b60006002820490506001821680620009ba57607f821691505b602082108103620009d057620009cf62000972565b5b50919050565b60805160a05160c05160e05161010051610120516101405161511862000a3f6000396000818161162e01528181611fdc01526120d7015260006123500152600061239201526000612371015260006122a6015260006122fc0152600061232501526151186000f3fe6080604052600436106101fd5760003560e01c80637d5e81e21161010d578063c59057e4116100a0578063ea0217cf1161006f578063ea0217cf14610810578063eb9019d414610839578063ece40cc114610876578063f8ce560a1461089f578063fc0c546a146108dc57610243565b8063c59057e414610752578063d33219b41461078f578063dd4e2ba5146107ba578063deaaa7cc146107e557610243565b8063ab58fb8e116100dc578063ab58fb8e14610684578063b58131b0146106c1578063c01f9e37146106ec578063c28bc2fa1461072957610243565b80637d5e81e2146105c857806397c3d33414610605578063a7713a7014610630578063a890c9101461065b57610243565b80633bccf4fd1161019057806354fd4d501161015f57806354fd4d50146104cf57806356781388146104fa57806357e871e71461053757806370b0f660146105625780637b3c71d31461058b57610243565b80633bccf4fd146103d95780633e4f49e6146104165780634385963214610453578063544ffc9c1461049057610243565b8063160cbed7116101cc578063160cbed7146103045780632656227d146103415780632d63f693146103715780633932abb1146103ae57610243565b806301ffc9a71461024857806302a251a31461028557806306f3f9e6146102b057806306fdde03146102d957610243565b36610243573073ffffffffffffffffffffffffffffffffffffffff16610221610907565b73ffffffffffffffffffffffffffffffffffffffff161461024157600080fd5b005b600080fd5b34801561025457600080fd5b5061026f600480360381019061026a9190612d9e565b610916565b60405161027c9190612de6565b60405180910390f35b34801561029157600080fd5b5061029a610928565b6040516102a79190612e1a565b60405180910390f35b3480156102bc57600080fd5b506102d760048036038101906102d29190612e61565b610937565b005b3480156102e557600080fd5b506102ee6109bf565b6040516102fb9190612f27565b60405180910390f35b34801561031057600080fd5b5061032b6004803603810190610326919061337e565b610a51565b6040516103389190612e1a565b60405180910390f35b61035b6004803603810190610356919061337e565b610d0b565b6040516103689190612e1a565b60405180910390f35b34801561037d57600080fd5b5061039860048036038101906103939190612e61565b610e3e565b6040516103a59190612e1a565b60405180910390f35b3480156103ba57600080fd5b506103c3610eac565b6040516103d09190612e1a565b60405180910390f35b3480156103e557600080fd5b5061040060048036038101906103fb9190613472565b610ebb565b60405161040d9190612e1a565b60405180910390f35b34801561042257600080fd5b5061043d60048036038101906104389190612e61565b610f45565b60405161044a9190613564565b60405180910390f35b34801561045f57600080fd5b5061047a6004803603810190610475919061357f565b610f57565b6040516104879190612de6565b60405180910390f35b34801561049c57600080fd5b506104b760048036038101906104b29190612e61565b610fc2565b6040516104c6939291906135bf565b60405180910390f35b3480156104db57600080fd5b506104e4610ffa565b6040516104f19190612f27565b60405180910390f35b34801561050657600080fd5b50610521600480360381019061051c91906135f6565b611037565b60405161052e9190612e1a565b60405180910390f35b34801561054357600080fd5b5061054c611068565b6040516105599190612e1a565b60405180910390f35b34801561056e57600080fd5b5061058960048036038101906105849190612e61565b611070565b005b34801561059757600080fd5b506105b260048036038101906105ad9190613691565b6110f8565b6040516105bf9190612e1a565b60405180910390f35b3480156105d457600080fd5b506105ef60048036038101906105ea91906137a6565b611160565b6040516105fc9190612e1a565b60405180910390f35b34801561061157600080fd5b5061061a611178565b6040516106279190612e1a565b60405180910390f35b34801561063c57600080fd5b50610645611181565b6040516106529190612e1a565b60405180910390f35b34801561066757600080fd5b50610682600480360381019061067d91906138cd565b61118b565b005b34801561069057600080fd5b506106ab60048036038101906106a69190612e61565b611213565b6040516106b89190612e1a565b60405180910390f35b3480156106cd57600080fd5b506106d66112e0565b6040516106e39190612e1a565b60405180910390f35b3480156106f857600080fd5b50610713600480360381019061070e9190612e61565b6112ef565b6040516107209190612e1a565b60405180910390f35b34801561073557600080fd5b50610750600480360381019061074b9190613950565b61135d565b005b34801561075e57600080fd5b506107796004803603810190610774919061337e565b61142f565b6040516107869190612e1a565b60405180910390f35b34801561079b57600080fd5b506107a461146b565b6040516107b191906139d3565b60405180910390f35b3480156107c657600080fd5b506107cf611495565b6040516107dc9190612f27565b60405180910390f35b3480156107f157600080fd5b506107fa6114d2565b60405161080791906139fd565b60405180910390f35b34801561081c57600080fd5b5061083760048036038101906108329190612e61565b6114f6565b005b34801561084557600080fd5b50610860600480360381019061085b9190613a18565b61157e565b60405161086d9190612e1a565b60405180910390f35b34801561088257600080fd5b5061089d60048036038101906108989190612e61565b611592565b005b3480156108ab57600080fd5b506108c660048036038101906108c19190612e61565b61161a565b6040516108d39190612e1a565b60405180910390f35b3480156108e857600080fd5b506108f161162c565b6040516108fe9190613ab7565b60405180910390f35b6000610911611650565b905090565b60006109218261167a565b9050919050565b60006109326116f4565b905090565b61093f610907565b73ffffffffffffffffffffffffffffffffffffffff1661095d6116fe565b73ffffffffffffffffffffffffffffffffffffffff16146109b3576040517f08c379a00000000000000000000000000000000000000000000000000000000081526004016109aa90613b1e565b60405180910390fd5b6109bc81611706565b50565b6060600080546109ce90613b6d565b80601f01602080910402602001604051908101604052809291908181526020018280546109fa90613b6d565b8015610a475780601f10610a1c57610100808354040283529160200191610a47565b820191906000526020600020905b815481529060010190602001808311610a2a57829003601f168201915b5050505050905090565b600080610a608686868661142f565b905060046007811115610a7657610a756134ed565b5b610a7f82610f45565b6007811115610a9157610a906134ed565b5b14610ad1576040517f08c379a0000000000000000000000000000000000000000000000000000000008152600401610ac890613c10565b60405180910390fd5b6000600760009054906101000a900473ffffffffffffffffffffffffffffffffffffffff1673ffffffffffffffffffffffffffffffffffffffff1663f27a0c926040518163ffffffff1660e01b8152600401602060405180830381865afa158015610b40573d6000803e3d6000fd5b505050506040513d601f19601f82011682018060405250810190610b649190613c45565b9050600760009054906101000a900473ffffffffffffffffffffffffffffffffffffffff1673ffffffffffffffffffffffffffffffffffffffff1663b1c5f4278888886000896040518663ffffffff1660e01b8152600401610bca959493929190613f4d565b602060405180830381865afa158015610be7573d6000803e3d6000fd5b505050506040513d601f19601f82011682018060405250810190610c0b9190613fca565b6008600084815260200190815260200160002081905550600760009054906101000a900473ffffffffffffffffffffffffffffffffffffffff1673ffffffffffffffffffffffffffffffffffffffff16638f2a0bb0888888600089876040518763ffffffff1660e01b8152600401610c8896959493929190613ff7565b600060405180830381600087803b158015610ca257600080fd5b505af1158015610cb6573d6000803e3d6000fd5b505050507f9a2e42fd6722813d69113e7d0079d3d940171428df7373df9c7f7617cfda2892828242610ce8919061409c565b604051610cf69291906140f2565b60405180910390a18192505050949350505050565b600080610d1a8686868661142f565b90506000610d2782610f45565b905060046007811115610d3d57610d3c6134ed565b5b816007811115610d5057610d4f6134ed565b5b1480610d80575060056007811115610d6b57610d6a6134ed565b5b816007811115610d7e57610d7d6134ed565b5b145b610dbf576040517f08c379a0000000000000000000000000000000000000000000000000000000008152600401610db690613c10565b60405180910390fd5b600180600084815260200190815260200160002060020160006101000a81548160ff0219169083151502179055507f712ae1383f79ac853f8d882153778e0260ef8f03b504e2866e0593e04d2b291f82604051610e1c9190612e1a565b60405180910390a1610e31828888888861179b565b8192505050949350505050565b6000610e9b600160008481526020019081526020016000206000016040518060200160405290816000820160009054906101000a900467ffffffffffffffff1667ffffffffffffffff1667ffffffffffffffff16815250506117af565b67ffffffffffffffff169050919050565b6000610eb66117bd565b905090565b600080610f1c610f147f150214d74d59b7d1e90c73fc22ef3d991dd0a76b046543d4d80ab92d2a50328f8989604051602001610ef99392919061412a565b604051602081830303815290604052805190602001206117c7565b8686866117e1565b9050610f398782886040518060200160405280600081525061180c565b91505095945050505050565b6000610f5082611960565b9050919050565b60006005600084815260200190815260200160002060030160008373ffffffffffffffffffffffffffffffffffffffff1673ffffffffffffffffffffffffffffffffffffffff16815260200190815260200160002060009054906101000a900460ff16905092915050565b600080600080600560008681526020019081526020016000209050806000015481600101548260020154935093509350509193909250565b60606040518060400160405280600181526020017f3100000000000000000000000000000000000000000000000000000000000000815250905090565b6000806110426116fe565b905061105f8482856040518060200160405280600081525061180c565b91505092915050565b600043905090565b611078610907565b73ffffffffffffffffffffffffffffffffffffffff166110966116fe565b73ffffffffffffffffffffffffffffffffffffffff16146110ec576040517f08c379a00000000000000000000000000000000000000000000000000000000081526004016110e390613b1e565b60405180910390fd5b6110f581611b33565b50565b6000806111036116fe565b905061115586828787878080601f016020809104026020016040519081016040528093929190818152602001838380828437600081840152601f19601f8201169050808301925050505050505061180c565b915050949350505050565b600061116e85858585611b78565b9050949350505050565b60006064905090565b6000600654905090565b611193610907565b73ffffffffffffffffffffffffffffffffffffffff166111b16116fe565b73ffffffffffffffffffffffffffffffffffffffff1614611207576040517f08c379a00000000000000000000000000000000000000000000000000000000081526004016111fe90613b1e565b60405180910390fd5b61121081611e78565b50565b600080600760009054906101000a900473ffffffffffffffffffffffffffffffffffffffff1673ffffffffffffffffffffffffffffffffffffffff1663d45c443560086000868152602001908152602001600020546040518263ffffffff1660e01b815260040161128491906139fd565b602060405180830381865afa1580156112a1573d6000803e3d6000fd5b505050506040513d601f19601f820116820180604052508101906112c59190613c45565b9050600181146112d557806112d8565b60005b915050919050565b60006112ea611f17565b905090565b600061134c600160008481526020019081526020016000206001016040518060200160405290816000820160009054906101000a900467ffffffffffffffff1667ffffffffffffffff1667ffffffffffffffff16815250506117af565b67ffffffffffffffff169050919050565b611365610907565b73ffffffffffffffffffffffffffffffffffffffff166113836116fe565b73ffffffffffffffffffffffffffffffffffffffff16146113d9576040517f08c379a00000000000000000000000000000000000000000000000000000000081526004016113d090613b1e565b60405180910390fd5b6114288483838080601f016020809104026020016040519081016040528093929190818152602001838380828437600081840152601f19601f8201169050808301925050505050505085611f21565b5050505050565b6000848484846040516020016114489493929190614161565b6040516020818303038152906040528051906020012060001c9050949350505050565b6000600760009054906101000a900473ffffffffffffffffffffffffffffffffffffffff16905090565b60606040518060400160405280602081526020017f737570706f72743d627261766f2671756f72756d3d666f722c6162737461696e815250905090565b7f150214d74d59b7d1e90c73fc22ef3d991dd0a76b046543d4d80ab92d2a50328f81565b6114fe610907565b73ffffffffffffffffffffffffffffffffffffffff1661151c6116fe565b73ffffffffffffffffffffffffffffffffffffffff1614611572576040517f08c379a000000000000000000000000000000000000000000000000000000000815260040161156990613b1e565b60405180910390fd5b61157b81611f50565b50565b600061158a8383611fd8565b905092915050565b61159a610907565b73ffffffffffffffffffffffffffffffffffffffff166115b86116fe565b73ffffffffffffffffffffffffffffffffffffffff161461160e576040517f08c379a000000000000000000000000000000000000000000000000000000000815260040161160590613b1e565b60405180910390fd5b6116178161207e565b50565b6000611625826120c3565b9050919050565b7f000000000000000000000000000000000000000000000000000000000000000081565b6000600760009054906101000a900473ffffffffffffffffffffffffffffffffffffffff16905090565b60007f6e665ced000000000000000000000000000000000000000000000000000000007bffffffffffffffffffffffffffffffffffffffffffffffffffffffff1916827bffffffffffffffffffffffffffffffffffffffffffffffffffffffff191614806116ed57506116ec8261218a565b5b9050919050565b6000600354905090565b600033905090565b61170e611178565b811115611750576040517f08c379a000000000000000000000000000000000000000000000000000000000815260040161174790614253565b60405180910390fd5b60006006549050816006819055507f0553476bf02ef2726e8ce5ced78d63e26e602e4a2257b1f559418e24b4633997818360405161178f9291906140f2565b60405180910390a15050565b6117a88585858585612204565b5050505050565b600081600001519050919050565b6000600254905090565b60006117da6117d46122a2565b836123bc565b9050919050565b60008060006117f2878787876123ef565b915091506117ff816124fb565b8192505050949350505050565b60008060016000878152602001908152602001600020905060016007811115611838576118376134ed565b5b61184187610f45565b6007811115611853576118526134ed565b5b14611893576040517f08c379a000000000000000000000000000000000000000000000000000000000815260040161188a906142e5565b60405180910390fd5b60006118f1866118e2846000016040518060200160405290816000820160009054906101000a900467ffffffffffffffff1667ffffffffffffffff1667ffffffffffffffff16815250506117af565b67ffffffffffffffff1661157e565b90506118ff878787846126c7565b8573ffffffffffffffffffffffffffffffffffffffff167fb8e138887d0aa13bab447e82de9d5c1777041ecd21ca36ba824ff1e6c07ddda48887848860405161194b9493929190614305565b60405180910390a28092505050949350505050565b60008061196c836128ca565b905060046007811115611982576119816134ed565b5b816007811115611995576119946134ed565b5b146119a35780915050611b2e565b6000600860008581526020019081526020016000205490506000801b81036119cf578192505050611b2e565b600760009054906101000a900473ffffffffffffffffffffffffffffffffffffffff1673ffffffffffffffffffffffffffffffffffffffff16632ab0f529826040518263ffffffff1660e01b8152600401611a2a91906139fd565b602060405180830381865afa158015611a47573d6000803e3d6000fd5b505050506040513d601f19601f82011682018060405250810190611a6b919061437d565b15611a7b57600792505050611b2e565b600760009054906101000a900473ffffffffffffffffffffffffffffffffffffffff1673ffffffffffffffffffffffffffffffffffffffff1663584b153e826040518263ffffffff1660e01b8152600401611ad691906139fd565b602060405180830381865afa158015611af3573d6000803e3d6000fd5b505050506040513d601f19601f82011682018060405250810190611b17919061437d565b15611b2757600592505050611b2e565b6002925050505b919050565b7fc565b045403dc03c2eea82b81a0465edad9e2e7fc4d97e11421c209da93d7a9360025482604051611b669291906140f2565b60405180910390a18060028190555050565b6000611b826112e0565b611b9833600143611b9391906143aa565b61157e565b1015611bd9576040517f08c379a0000000000000000000000000000000000000000000000000000000008152600401611bd090614476565b60405180910390fd5b6000611bee868686868051906020012061142f565b90508451865114611c34576040517f08c379a0000000000000000000000000000000000000000000000000000000008152600401611c2b90614508565b60405180910390fd5b8351865114611c78576040517f08c379a0000000000000000000000000000000000000000000000000000000008152600401611c6f90614508565b60405180910390fd5b6000865111611cbc576040517f08c379a0000000000000000000000000000000000000000000000000000000008152600401611cb390614574565b60405180910390fd5b6000600160008381526020019081526020016000209050611d1c816000016040518060200160405290816000820160009054906101000a900467ffffffffffffffff1667ffffffffffffffff1667ffffffffffffffff16815250506129de565b611d5b576040517f08c379a0000000000000000000000000000000000000000000000000000000008152600401611d5290614606565b60405180910390fd5b6000611d6d611d68610eac565b6129f8565b611d76436129f8565b611d80919061463a565b90506000611d94611d8f610928565b6129f8565b82611d9f919061463a565b9050611db78284600001612a4f90919063ffffffff16565b611dcd8184600101612a4f90919063ffffffff16565b7f7d84a6263ae0d98d3329bd7b46bb4e8d6f98cd35a7adb45c274c8b7fd5ebd5e084611df76116fe565b8b8b8d5167ffffffffffffffff811115611e1457611e13612f4e565b5b604051908082528060200260200182016040528015611e4757816020015b6060815260200190600190039081611e325790505b508c88888e604051611e61999897969594939291906147b5565b60405180910390a183945050505050949350505050565b7f08f74ea46ef7894f65eabfb5e6e695de773a000b47c529ab559178069b226401600760009054906101000a900473ffffffffffffffffffffffffffffffffffffffff1682604051611ecb929190614865565b60405180910390a180600760006101000a81548173ffffffffffffffffffffffffffffffffffffffff021916908373ffffffffffffffffffffffffffffffffffffffff16021790555050565b6000600454905090565b6060611f478484846040518060600160405280602981526020016150ba60299139612a7e565b90509392505050565b60008111611f93576040517f08c379a0000000000000000000000000000000000000000000000000000000008152600401611f8a90614900565b60405180910390fd5b7f7e3f7f0708a84de9203036abaa450dccc85ad5ff52f78c170f3edb55cf5e882860035482604051611fc69291906140f2565b60405180910390a18060038190555050565b60007f000000000000000000000000000000000000000000000000000000000000000073ffffffffffffffffffffffffffffffffffffffff16633a46b1a884846040518363ffffffff1660e01b8152600401612035929190614920565b602060405180830381865afa158015612052573d6000803e3d6000fd5b505050506040513d601f19601f820116820180604052508101906120769190613c45565b905092915050565b7fccb45da8d5717e6c4544694297c4ba5cf151d455c9bb0ed4fc7a38411bc05461600454826040516120b19291906140f2565b60405180910390a18060048190555050565b60006120cd611178565b6120d5611181565b7f000000000000000000000000000000000000000000000000000000000000000073ffffffffffffffffffffffffffffffffffffffff16638e539e8c856040518263ffffffff1660e01b815260040161212e9190612e1a565b602060405180830381865afa15801561214b573d6000803e3d6000fd5b505050506040513d601f19601f8201168201806040525081019061216f9190613c45565b6121799190614949565b61218391906149d2565b9050919050565b60007fbf26d897000000000000000000000000000000000000000000000000000000007bffffffffffffffffffffffffffffffffffffffffffffffffffffffff1916827bffffffffffffffffffffffffffffffffffffffffffffffffffffffff191614806121fd57506121fc82612b92565b5b9050919050565b600760009054906101000a900473ffffffffffffffffffffffffffffffffffffffff1673ffffffffffffffffffffffffffffffffffffffff1663e38335e5348686866000876040518763ffffffff1660e01b8152600401612269959493929190613f4d565b6000604051808303818588803b15801561228257600080fd5b505af1158015612296573d6000803e3d6000fd5b50505050505050505050565b60007f000000000000000000000000000000000000000000000000000000000000000073ffffffffffffffffffffffffffffffffffffffff163073ffffffffffffffffffffffffffffffffffffffff1614801561231e57507f000000000000000000000000000000000000000000000000000000000000000046145b1561234b577f000000000000000000000000000000000000000000000000000000000000000090506123b9565b6123b67f00000000000000000000000000000000000000000000000000000000000000007f00000000000000000000000000000000000000000000000000000000000000007f0000000000000000000000000000000000000000000000000000000000000000612bfc565b90505b90565b600082826040516020016123d1929190614a7b565b60405160208183030381529060405280519060200120905092915050565b6000807f7fffffffffffffffffffffffffffffff5d576e7357a4501ddfe92f46681b20a08360001c111561242a5760006003915091506124f2565b601b8560ff16141580156124425750601c8560ff1614155b156124545760006004915091506124f2565b6000600187878787604051600081526020016040526040516124799493929190614ab2565b6020604051602081039080840390855afa15801561249b573d6000803e3d6000fd5b505050602060405103519050600073ffffffffffffffffffffffffffffffffffffffff168173ffffffffffffffffffffffffffffffffffffffff16036124e9576000600192509250506124f2565b80600092509250505b94509492505050565b6000600481111561250f5761250e6134ed565b5b816004811115612522576125216134ed565b5b03156126c4576001600481111561253c5761253b6134ed565b5b81600481111561254f5761254e6134ed565b5b0361258f576040517f08c379a000000000000000000000000000000000000000000000000000000000815260040161258690614b43565b60405180910390fd5b600260048111156125a3576125a26134ed565b5b8160048111156125b6576125b56134ed565b5b036125f6576040517f08c379a00000000000000000000000000000000000000000000000000000000081526004016125ed90614baf565b60405180910390fd5b6003600481111561260a576126096134ed565b5b81600481111561261d5761261c6134ed565b5b0361265d576040517f08c379a000000000000000000000000000000000000000000000000000000000815260040161265490614c41565b60405180910390fd5b6004808111156126705761266f6134ed565b5b816004811115612683576126826134ed565b5b036126c3576040517f08c379a00000000000000000000000000000000000000000000000000000000081526004016126ba90614cd3565b60405180910390fd5b5b50565b60006005600086815260200190815260200160002090508060030160008573ffffffffffffffffffffffffffffffffffffffff1673ffffffffffffffffffffffffffffffffffffffff16815260200190815260200160002060009054906101000a900460ff161561276d576040517f08c379a000000000000000000000000000000000000000000000000000000000815260040161276490614d65565b60405180910390fd5b60018160030160008673ffffffffffffffffffffffffffffffffffffffff1673ffffffffffffffffffffffffffffffffffffffff16815260200190815260200160002060006101000a81548160ff021916908315150217905550600060028111156127db576127da6134ed565b5b60ff168360ff160361280757818160000160008282546127fb919061409c565b925050819055506128c3565b6001600281111561281b5761281a6134ed565b5b60ff168360ff1603612847578181600101600082825461283b919061409c565b925050819055506128c2565b60028081111561285a576128596134ed565b5b60ff168360ff1603612886578181600201600082825461287a919061409c565b925050819055506128c1565b6040517f08c379a00000000000000000000000000000000000000000000000000000000081526004016128b890614df7565b60405180910390fd5b5b5b5050505050565b6000806001600084815260200190815260200160002090508060020160009054906101000a900460ff16156129035760079150506129d9565b8060020160019054906101000a900460ff16156129245760029150506129d9565b600061292f84610e3e565b905060008103612974576040517f08c379a000000000000000000000000000000000000000000000000000000000815260040161296b90614e63565b60405180910390fd5b438110612986576000925050506129d9565b6000612991856112ef565b90504381106129a657600193505050506129d9565b6129af85612c36565b80156129c057506129bf85612c7d565b5b156129d157600493505050506129d9565b600393505050505b919050565b600080826000015167ffffffffffffffff16149050919050565b600067ffffffffffffffff8016821115612a47576040517f08c379a0000000000000000000000000000000000000000000000000000000008152600401612a3e90614ef5565b60405180910390fd5b819050919050565b808260000160006101000a81548167ffffffffffffffff021916908367ffffffffffffffff1602179055505050565b606082471015612ac3576040517f08c379a0000000000000000000000000000000000000000000000000000000008152600401612aba90614f87565b60405180910390fd5b612acc85612ca8565b612b0b576040517f08c379a0000000000000000000000000000000000000000000000000000000008152600401612b0290614ff3565b60405180910390fd5b6000808673ffffffffffffffffffffffffffffffffffffffff168587604051612b34919061504f565b60006040518083038185875af1925050503d8060008114612b71576040519150601f19603f3d011682016040523d82523d6000602084013e612b76565b606091505b5091509150612b86828286612ccb565b92505050949350505050565b60007f01ffc9a7000000000000000000000000000000000000000000000000000000007bffffffffffffffffffffffffffffffffffffffffffffffffffffffff1916827bffffffffffffffffffffffffffffffffffffffffffffffffffffffff1916149050919050565b60008383834630604051602001612c17959493929190615066565b6040516020818303038152906040528051906020012090509392505050565b60008060056000848152602001908152602001600020905080600201548160010154612c62919061409c565b612c73612c6e85610e3e565b61161a565b1115915050919050565b6000806005600084815260200190815260200160002090508060000154816001015411915050919050565b6000808273ffffffffffffffffffffffffffffffffffffffff163b119050919050565b60608315612cdb57829050612d2b565b600083511115612cee5782518084602001fd5b816040517f08c379a0000000000000000000000000000000000000000000000000000000008152600401612d229190612f27565b60405180910390fd5b9392505050565b6000604051905090565b600080fd5b600080fd5b60007fffffffff0000000000000000000000000000000000000000000000000000000082169050919050565b612d7b81612d46565b8114612d8657600080fd5b50565b600081359050612d9881612d72565b92915050565b600060208284031215612db457612db3612d3c565b5b6000612dc284828501612d89565b91505092915050565b60008115159050919050565b612de081612dcb565b82525050565b6000602082019050612dfb6000830184612dd7565b92915050565b6000819050919050565b612e1481612e01565b82525050565b6000602082019050612e2f6000830184612e0b565b92915050565b612e3e81612e01565b8114612e4957600080fd5b50565b600081359050612e5b81612e35565b92915050565b600060208284031215612e7757612e76612d3c565b5b6000612e8584828501612e4c565b91505092915050565b600081519050919050565b600082825260208201905092915050565b60005b83811015612ec8578082015181840152602081019050612ead565b83811115612ed7576000848401525b50505050565b6000601f19601f8301169050919050565b6000612ef982612e8e565b612f038185612e99565b9350612f13818560208601612eaa565b612f1c81612edd565b840191505092915050565b60006020820190508181036000830152612f418184612eee565b905092915050565b600080fd5b7f4e487b7100000000000000000000000000000000000000000000000000000000600052604160045260246000fd5b612f8682612edd565b810181811067ffffffffffffffff82111715612fa557612fa4612f4e565b5b80604052505050565b6000612fb8612d32565b9050612fc48282612f7d565b919050565b600067ffffffffffffffff821115612fe457612fe3612f4e565b5b602082029050602081019050919050565b600080fd5b600073ffffffffffffffffffffffffffffffffffffffff82169050919050565b600061302582612ffa565b9050919050565b6130358161301a565b811461304057600080fd5b50565b6000813590506130528161302c565b92915050565b600061306b61306684612fc9565b612fae565b9050808382526020820190506020840283018581111561308e5761308d612ff5565b5b835b818110156130b757806130a38882613043565b845260208401935050602081019050613090565b5050509392505050565b600082601f8301126130d6576130d5612f49565b5b81356130e6848260208601613058565b91505092915050565b600067ffffffffffffffff82111561310a57613109612f4e565b5b602082029050602081019050919050565b600061312e613129846130ef565b612fae565b9050808382526020820190506020840283018581111561315157613150612ff5565b5b835b8181101561317a57806131668882612e4c565b845260208401935050602081019050613153565b5050509392505050565b600082601f83011261319957613198612f49565b5b81356131a984826020860161311b565b91505092915050565b600067ffffffffffffffff8211156131cd576131cc612f4e565b5b602082029050602081019050919050565b600080fd5b600067ffffffffffffffff8211156131fe576131fd612f4e565b5b61320782612edd565b9050602081019050919050565b82818337600083830152505050565b6000613236613231846131e3565b612fae565b905082815260208101848484011115613252576132516131de565b5b61325d848285613214565b509392505050565b600082601f83011261327a57613279612f49565b5b813561328a848260208601613223565b91505092915050565b60006132a66132a1846131b2565b612fae565b905080838252602082019050602084028301858111156132c9576132c8612ff5565b5b835b8181101561331057803567ffffffffffffffff8111156132ee576132ed612f49565b5b8086016132fb8982613265565b855260208501945050506020810190506132cb565b5050509392505050565b600082601f83011261332f5761332e612f49565b5b813561333f848260208601613293565b91505092915050565b6000819050919050565b61335b81613348565b811461336657600080fd5b50565b60008135905061337881613352565b92915050565b6000806000806080858703121561339857613397612d3c565b5b600085013567ffffffffffffffff8111156133b6576133b5612d41565b5b6133c2878288016130c1565b945050602085013567ffffffffffffffff8111156133e3576133e2612d41565b5b6133ef87828801613184565b935050604085013567ffffffffffffffff8111156134105761340f612d41565b5b61341c8782880161331a565b925050606061342d87828801613369565b91505092959194509250565b600060ff82169050919050565b61344f81613439565b811461345a57600080fd5b50565b60008135905061346c81613446565b92915050565b600080600080600060a0868803121561348e5761348d612d3c565b5b600061349c88828901612e4c565b95505060206134ad8882890161345d565b94505060406134be8882890161345d565b93505060606134cf88828901613369565b92505060806134e088828901613369565b9150509295509295909350565b7f4e487b7100000000000000000000000000000000000000000000000000000000600052602160045260246000fd5b6008811061352d5761352c6134ed565b5b50565b600081905061353e8261351c565b919050565b600061354e82613530565b9050919050565b61355e81613543565b82525050565b60006020820190506135796000830184613555565b92915050565b6000806040838503121561359657613595612d3c565b5b60006135a485828601612e4c565b92505060206135b585828601613043565b9150509250929050565b60006060820190506135d46000830186612e0b565b6135e16020830185612e0b565b6135ee6040830184612e0b565b949350505050565b6000806040838503121561360d5761360c612d3c565b5b600061361b85828601612e4c565b925050602061362c8582860161345d565b9150509250929050565b600080fd5b60008083601f84011261365157613650612f49565b5b8235905067ffffffffffffffff81111561366e5761366d613636565b5b60208301915083600182028301111561368a57613689612ff5565b5b9250929050565b600080600080606085870312156136ab576136aa612d3c565b5b60006136b987828801612e4c565b94505060206136ca8782880161345d565b935050604085013567ffffffffffffffff8111156136eb576136ea612d41565b5b6136f78782880161363b565b925092505092959194509250565b600067ffffffffffffffff8211156137205761371f612f4e565b5b61372982612edd565b9050602081019050919050565b600061374961374484613705565b612fae565b905082815260208101848484011115613765576137646131de565b5b613770848285613214565b509392505050565b600082601f83011261378d5761378c612f49565b5b813561379d848260208601613736565b91505092915050565b600080600080608085870312156137c0576137bf612d3c565b5b600085013567ffffffffffffffff8111156137de576137dd612d41565b5b6137ea878288016130c1565b945050602085013567ffffffffffffffff81111561380b5761380a612d41565b5b61381787828801613184565b935050604085013567ffffffffffffffff81111561383857613837612d41565b5b6138448782880161331a565b925050606085013567ffffffffffffffff81111561386557613864612d41565b5b61387187828801613778565b91505092959194509250565b600061388882612ffa565b9050919050565b600061389a8261387d565b9050919050565b6138aa8161388f565b81146138b557600080fd5b50565b6000813590506138c7816138a1565b92915050565b6000602082840312156138e3576138e2612d3c565b5b60006138f1848285016138b8565b91505092915050565b60008083601f8401126139105761390f612f49565b5b8235905067ffffffffffffffff81111561392d5761392c613636565b5b60208301915083600182028301111561394957613948612ff5565b5b9250929050565b6000806000806060858703121561396a57613969612d3c565b5b600061397887828801613043565b945050602061398987828801612e4c565b935050604085013567ffffffffffffffff8111156139aa576139a9612d41565b5b6139b6878288016138fa565b925092505092959194509250565b6139cd8161301a565b82525050565b60006020820190506139e860008301846139c4565b92915050565b6139f781613348565b82525050565b6000602082019050613a1260008301846139ee565b92915050565b60008060408385031215613a2f57613a2e612d3c565b5b6000613a3d85828601613043565b9250506020613a4e85828601612e4c565b9150509250929050565b6000819050919050565b6000613a7d613a78613a7384612ffa565b613a58565b612ffa565b9050919050565b6000613a8f82613a62565b9050919050565b6000613aa182613a84565b9050919050565b613ab181613a96565b82525050565b6000602082019050613acc6000830184613aa8565b92915050565b7f476f7665726e6f723a206f6e6c79476f7665726e616e63650000000000000000600082015250565b6000613b08601883612e99565b9150613b1382613ad2565b602082019050919050565b60006020820190508181036000830152613b3781613afb565b9050919050565b7f4e487b7100000000000000000000000000000000000000000000000000000000600052602260045260246000fd5b60006002820490506001821680613b8557607f821691505b602082108103613b9857613b97613b3e565b5b50919050565b7f476f7665726e6f723a2070726f706f73616c206e6f742073756363657373667560008201527f6c00000000000000000000000000000000000000000000000000000000000000602082015250565b6000613bfa602183612e99565b9150613c0582613b9e565b604082019050919050565b60006020820190508181036000830152613c2981613bed565b9050919050565b600081519050613c3f81612e35565b92915050565b600060208284031215613c5b57613c5a612d3c565b5b6000613c6984828501613c30565b91505092915050565b600081519050919050565b600082825260208201905092915050565b6000819050602082019050919050565b613ca78161301a565b82525050565b6000613cb98383613c9e565b60208301905092915050565b6000602082019050919050565b6000613cdd82613c72565b613ce78185613c7d565b9350613cf283613c8e565b8060005b83811015613d23578151613d0a8882613cad565b9750613d1583613cc5565b925050600181019050613cf6565b5085935050505092915050565b600081519050919050565b600082825260208201905092915050565b6000819050602082019050919050565b613d6581612e01565b82525050565b6000613d778383613d5c565b60208301905092915050565b6000602082019050919050565b6000613d9b82613d30565b613da58185613d3b565b9350613db083613d4c565b8060005b83811015613de1578151613dc88882613d6b565b9750613dd383613d83565b925050600181019050613db4565b5085935050505092915050565b600081519050919050565b600082825260208201905092915050565b6000819050602082019050919050565b600081519050919050565b600082825260208201905092915050565b6000613e4182613e1a565b613e4b8185613e25565b9350613e5b818560208601612eaa565b613e6481612edd565b840191505092915050565b6000613e7b8383613e36565b905092915050565b6000602082019050919050565b6000613e9b82613dee565b613ea58185613df9565b935083602082028501613eb785613e0a565b8060005b85811015613ef35784840389528151613ed48582613e6f565b9450613edf83613e83565b925060208a01995050600181019050613ebb565b50829750879550505050505092915050565b6000819050919050565b60008160001b9050919050565b6000613f37613f32613f2d84613f05565b613f0f565b613348565b9050919050565b613f4781613f1c565b82525050565b600060a0820190508181036000830152613f678188613cd2565b90508181036020830152613f7b8187613d90565b90508181036040830152613f8f8186613e90565b9050613f9e6060830185613f3e565b613fab60808301846139ee565b9695505050505050565b600081519050613fc481613352565b92915050565b600060208284031215613fe057613fdf612d3c565b5b6000613fee84828501613fb5565b91505092915050565b600060c08201905081810360008301526140118189613cd2565b905081810360208301526140258188613d90565b905081810360408301526140398187613e90565b90506140486060830186613f3e565b61405560808301856139ee565b61406260a0830184612e0b565b979650505050505050565b7f4e487b7100000000000000000000000000000000000000000000000000000000600052601160045260246000fd5b60006140a782612e01565b91506140b283612e01565b9250827fffffffffffffffffffffffffffffffffffffffffffffffffffffffffffffffff038211156140e7576140e661406d565b5b828201905092915050565b60006040820190506141076000830185612e0b565b6141146020830184612e0b565b9392505050565b61412481613439565b82525050565b600060608201905061413f60008301866139ee565b61414c6020830185612e0b565b614159604083018461411b565b949350505050565b6000608082019050818103600083015261417b8187613cd2565b9050818103602083015261418f8186613d90565b905081810360408301526141a38185613e90565b90506141b260608301846139ee565b95945050505050565b7f476f7665726e6f72566f74657351756f72756d4672616374696f6e3a2071756f60008201527f72756d4e756d657261746f72206f7665722071756f72756d44656e6f6d696e6160208201527f746f720000000000000000000000000000000000000000000000000000000000604082015250565b600061423d604383612e99565b9150614248826141bb565b606082019050919050565b6000602082019050818103600083015261426c81614230565b9050919050565b7f476f7665726e6f723a20766f7465206e6f742063757272656e746c792061637460008201527f6976650000000000000000000000000000000000000000000000000000000000602082015250565b60006142cf602383612e99565b91506142da82614273565b604082019050919050565b600060208201905081810360008301526142fe816142c2565b9050919050565b600060808201905061431a6000830187612e0b565b614327602083018661411b565b6143346040830185612e0b565b81810360608301526143468184612eee565b905095945050505050565b61435a81612dcb565b811461436557600080fd5b50565b60008151905061437781614351565b92915050565b60006020828403121561439357614392612d3c565b5b60006143a184828501614368565b91505092915050565b60006143b582612e01565b91506143c083612e01565b9250828210156143d3576143d261406d565b5b828203905092915050565b7f476f7665726e6f72436f6d7061746962696c697479427261766f3a2070726f7060008201527f6f73657220766f7465732062656c6f772070726f706f73616c2074687265736860208201527f6f6c640000000000000000000000000000000000000000000000000000000000604082015250565b6000614460604383612e99565b915061446b826143de565b606082019050919050565b6000602082019050818103600083015261448f81614453565b9050919050565b7f476f7665726e6f723a20696e76616c69642070726f706f73616c206c656e677460008201527f6800000000000000000000000000000000000000000000000000000000000000602082015250565b60006144f2602183612e99565b91506144fd82614496565b604082019050919050565b60006020820190508181036000830152614521816144e5565b9050919050565b7f476f7665726e6f723a20656d7074792070726f706f73616c0000000000000000600082015250565b600061455e601883612e99565b915061456982614528565b602082019050919050565b6000602082019050818103600083015261458d81614551565b9050919050565b7f476f7665726e6f723a2070726f706f73616c20616c726561647920657869737460008201527f7300000000000000000000000000000000000000000000000000000000000000602082015250565b60006145f0602183612e99565b91506145fb82614594565b604082019050919050565b6000602082019050818103600083015261461f816145e3565b9050919050565b600067ffffffffffffffff82169050919050565b600061464582614626565b915061465083614626565b92508267ffffffffffffffff0382111561466d5761466c61406d565b5b828201905092915050565b600081519050919050565b600082825260208201905092915050565b6000819050602082019050919050565b600082825260208201905092915050565b60006146c082612e8e565b6146ca81856146a4565b93506146da818560208601612eaa565b6146e381612edd565b840191505092915050565b60006146fa83836146b5565b905092915050565b6000602082019050919050565b600061471a82614678565b6147248185614683565b93508360208202850161473685614694565b8060005b85811015614772578484038952815161475385826146ee565b945061475e83614702565b925060208a0199505060018101905061473a565b50829750879550505050505092915050565b600061479f61479a61479584614626565b613a58565b612e01565b9050919050565b6147af81614784565b82525050565b6000610120820190506147cb600083018c612e0b565b6147d8602083018b6139c4565b81810360408301526147ea818a613cd2565b905081810360608301526147fe8189613d90565b90508181036080830152614812818861470f565b905081810360a08301526148268187613e90565b905061483560c08301866147a6565b61484260e08301856147a6565b8181036101008301526148558184612eee565b90509a9950505050505050505050565b600060408201905061487a60008301856139c4565b61488760208301846139c4565b9392505050565b7f476f7665726e6f7253657474696e67733a20766f74696e6720706572696f642060008201527f746f6f206c6f7700000000000000000000000000000000000000000000000000602082015250565b60006148ea602783612e99565b91506148f58261488e565b604082019050919050565b60006020820190508181036000830152614919816148dd565b9050919050565b600060408201905061493560008301856139c4565b6149426020830184612e0b565b9392505050565b600061495482612e01565b915061495f83612e01565b9250817fffffffffffffffffffffffffffffffffffffffffffffffffffffffffffffffff04831182151516156149985761499761406d565b5b828202905092915050565b7f4e487b7100000000000000000000000000000000000000000000000000000000600052601260045260246000fd5b60006149dd82612e01565b91506149e883612e01565b9250826149f8576149f76149a3565b5b828204905092915050565b600081905092915050565b7f1901000000000000000000000000000000000000000000000000000000000000600082015250565b6000614a44600283614a03565b9150614a4f82614a0e565b600282019050919050565b6000819050919050565b614a75614a7082613348565b614a5a565b82525050565b6000614a8682614a37565b9150614a928285614a64565b602082019150614aa28284614a64565b6020820191508190509392505050565b6000608082019050614ac760008301876139ee565b614ad4602083018661411b565b614ae160408301856139ee565b614aee60608301846139ee565b95945050505050565b7f45434453413a20696e76616c6964207369676e61747572650000000000000000600082015250565b6000614b2d601883612e99565b9150614b3882614af7565b602082019050919050565b60006020820190508181036000830152614b5c81614b20565b9050919050565b7f45434453413a20696e76616c6964207369676e6174757265206c656e67746800600082015250565b6000614b99601f83612e99565b9150614ba482614b63565b602082019050919050565b60006020820190508181036000830152614bc881614b8c565b9050919050565b7f45434453413a20696e76616c6964207369676e6174757265202773272076616c60008201527f7565000000000000000000000000000000000000000000000000000000000000602082015250565b6000614c2b602283612e99565b9150614c3682614bcf565b604082019050919050565b60006020820190508181036000830152614c5a81614c1e565b9050919050565b7f45434453413a20696e76616c6964207369676e6174757265202776272076616c60008201527f7565000000000000000000000000000000000000000000000000000000000000602082015250565b6000614cbd602283612e99565b9150614cc882614c61565b604082019050919050565b60006020820190508181036000830152614cec81614cb0565b9050919050565b7f476f7665726e6f72566f74696e6753696d706c653a20766f746520616c72656160008201527f6479206361737400000000000000000000000000000000000000000000000000602082015250565b6000614d4f602783612e99565b9150614d5a82614cf3565b604082019050919050565b60006020820190508181036000830152614d7e81614d42565b9050919050565b7f476f7665726e6f72566f74696e6753696d706c653a20696e76616c696420766160008201527f6c756520666f7220656e756d20566f7465547970650000000000000000000000602082015250565b6000614de1603583612e99565b9150614dec82614d85565b604082019050919050565b60006020820190508181036000830152614e1081614dd4565b9050919050565b7f476f7665726e6f723a20756e6b6e6f776e2070726f706f73616c206964000000600082015250565b6000614e4d601d83612e99565b9150614e5882614e17565b602082019050919050565b60006020820190508181036000830152614e7c81614e40565b9050919050565b7f53616665436173743a2076616c756520646f65736e27742066697420696e203660008201527f3420626974730000000000000000000000000000000000000000000000000000602082015250565b6000614edf602683612e99565b9150614eea82614e83565b604082019050919050565b60006020820190508181036000830152614f0e81614ed2565b9050919050565b7f416464726573733a20696e73756666696369656e742062616c616e636520666f60008201527f722063616c6c0000000000000000000000000000000000000000000000000000602082015250565b6000614f71602683612e99565b9150614f7c82614f15565b604082019050919050565b60006020820190508181036000830152614fa081614f64565b9050919050565b7f416464726573733a2063616c6c20746f206e6f6e2d636f6e7472616374000000600082015250565b6000614fdd601d83612e99565b9150614fe882614fa7565b602082019050919050565b6000602082019050818103600083015261500c81614fd0565b9050919050565b600081905092915050565b600061502982613e1a565b6150338185615013565b9350615043818560208601612eaa565b80840191505092915050565b600061505b828461501e565b915081905092915050565b600060a08201905061507b60008301886139ee565b61508860208301876139ee565b61509560408301866139ee565b6150a26060830185612e0b565b6150af60808301846139c4565b969550505050505056fe416464726573733a206c6f772d6c6576656c2063616c6c20776974682076616c7565206661696c6564a2646970667358221220d910c51738332083e4023d31aefba2349c7ffa186894e2514a3aad9de7ca2c9164736f6c634300080d0033",
  "devdoc": {
    "kind": "dev",
    "methods": {
      "COUNTING_MODE()": {
        "details": "See {IGovernor-COUNTING_MODE}."
      },
      "castVote(uint256,uint8)": {
        "details": "See {IGovernor-castVote}."
      },
      "castVoteBySig(uint256,uint8,uint8,bytes32,bytes32)": {
        "details": "See {IGovernor-castVoteBySig}."
      },
      "castVoteWithReason(uint256,uint8,string)": {
        "details": "See {IGovernor-castVoteWithReason}."
      },
      "execute(address[],uint256[],bytes[],bytes32)": {
        "details": "See {IGovernor-execute}."
      },
      "hasVoted(uint256,address)": {
        "details": "See {IGovernor-hasVoted}."
      },
      "hashProposal(address[],uint256[],bytes[],bytes32)": {
        "details": "See {IGovernor-hashProposal}. The proposal id is produced by hashing the RLC encoded `targets` array, the `values` array, the `calldatas` array and the descriptionHash (bytes32 which itself is the keccak256 hash of the description string). This proposal id can be produced from the proposal data which is part of the {ProposalCreated} event. It can even be computed in advance, before the proposal is submitted. Note that the chainId and the governor address are not part of the proposal id computation. Consequently, the same proposal (with same operation and same description) will have the same id if submitted on multiple governors accross multiple networks. This also means that in order to execute the same operation twice (on the same governor) the proposer will have to change the description in order to avoid proposal id conflicts."
      },
      "name()": {
        "details": "See {IGovernor-name}."
      },
      "proposalDeadline(uint256)": {
        "details": "See {IGovernor-proposalDeadline}."
      },
      "proposalEta(uint256)": {
        "details": "Public accessor to check the eta of a queued proposal"
      },
      "proposalSnapshot(uint256)": {
        "details": "See {IGovernor-proposalSnapshot}."
      },
      "proposalVotes(uint256)": {
        "details": "Accessor to the internal vote counts."
      },
      "queue(address[],uint256[],bytes[],bytes32)": {
        "details": "Function to queue a proposal to the timelock."
      },
      "quorumDenominator()": {
        "details": "Returns the quorum denominator. Defaults to 100, but may be overridden."
      },
      "quorumNumerator()": {
        "details": "Returns the current quorum numerator. See {quorumDenominator}."
      },
      "relay(address,uint256,bytes)": {
        "details": "Relays a transaction or function call to an arbitrary target. In cases where the governance executor is some contract other than the governor itself, like when using a timelock, this function can be invoked in a governance proposal to recover tokens or Ether that was sent to the governor contract by mistake. Note that if the executor is simply the governor itself, use of `relay` is redundant."
      },
      "setProposalThreshold(uint256)": {
        "details": "Update the proposal threshold. This operation can only be performed through a governance proposal. Emits a {ProposalThresholdSet} event."
      },
      "setVotingDelay(uint256)": {
        "details": "Update the voting delay. This operation can only be performed through a governance proposal. Emits a {VotingDelaySet} event."
      },
      "setVotingPeriod(uint256)": {
        "details": "Update the voting period. This operation can only be performed through a governance proposal. Emits a {VotingPeriodSet} event."
      },
      "timelock()": {
        "details": "Public accessor to check the address of the timelock"
      },
      "updateQuorumNumerator(uint256)": {
        "details": "Changes the quorum numerator. Emits a {QuorumNumeratorUpdated} event. Requirements: - Must be called through a governance proposal. - New numerator must be smaller or equal to the denominator."
      },
      "updateTimelock(address)": {
        "details": "Public endpoint to update the underlying timelock instance. Restricted to the timelock itself, so updates must be proposed, scheduled, and executed through governance proposals. CAUTION: It is not recommended to change the timelock while there are other queued governance proposals."
      },
      "version()": {
        "details": "See {IGovernor-version}."
      }
    },
    "version": 1
  },
  "userdoc": {
    "kind": "user",
    "methods": {},
    "version": 1
  },
  "storageLayout": {
    "storage": [
      {
        "astId": 425,
        "contract": "src/governance/governance_basic/GovernorContract.sol:GovernorContract",
        "label": "_name",
        "offset": 0,
        "slot": "0",
        "type": "t_string_storage"
      },
      {
        "astId": 430,
        "contract": "src/governance/governance_basic/GovernorContract.sol:GovernorContract",
        "label": "_proposals",
        "offset": 0,
        "slot": "1",
        "type": "t_mapping(t_uint256,t_struct(ProposalCore)423_storage)"
      },
      {
        "astId": 2483,
        "contract": "src/governance/governance_basic/GovernorContract.sol:GovernorContract",
        "label": "_votingDelay",
        "offset": 0,
        "slot": "2",
        "type": "t_uint256"
      },
      {
        "astId": 2485,
        "contract": "src/governance/governance_basic/GovernorContract.sol:GovernorContract",
        "label": "_votingPeriod",
        "offset": 0,
        "slot": "3",
        "type": "t_uint256"
      },
      {
        "astId": 2487,
        "contract": "src/governance/governance_basic/GovernorContract.sol:GovernorContract",
        "label": "_proposalThreshold",
        "offset": 0,
        "slot": "4",
        "type": "t_uint256"
      },
      {
        "astId": 2277,
        "contract": "src/governance/governance_basic/GovernorContract.sol:GovernorContract",
        "label": "_proposalVotes",
        "offset": 0,
        "slot": "5",
        "type": "t_mapping(t_uint256,t_struct(ProposalVote)2272_storage)"
      },
      {
        "astId": 3078,
        "contract": "src/governance/governance_basic/GovernorContract.sol:GovernorContract",
        "label": "_quorumNumerator",
        "offset": 0,
        "slot": "6",
        "type": "t_uint256"
      },
      {
        "astId": 2666,
        "contract": "src/governance/governance_basic/GovernorContract.sol:GovernorContract",
        "label": "_timelock",
        "offset": 0,
        "slot": "7",
        "type": "t_contract(TimelockController)2251"
      },
      {
        "astId": 2670,
        "contract": "src/governance/governance_basic/GovernorContract.sol:GovernorContract",
        "label": "_timelockIds",
        "offset": 0,
        "slot": "8",
        "type": "t_mapping(t_uint256,t_bytes32)"
      }
    ],
    "types": {
      "t_address": {
        "encoding": "inplace",
        "label": "address",
        "numberOfBytes": "20"
      },
      "t_bool": {
        "encoding": "inplace",
        "label": "bool",
        "numberOfBytes": "1"
      },
      "t_bytes32": {
        "encoding": "inplace",
        "label": "bytes32",
        "numberOfBytes": "32"
      },
      "t_contract(TimelockController)2251": {
        "encoding": "inplace",
        "label": "contract TimelockController",
        "numberOfBytes": "20"
      },
      "t_mapping(t_address,t_bool)": {
        "encoding": "mapping",
        "key": "t_address",
        "label": "mapping(address => bool)",
        "numberOfBytes": "32",
        "value": "t_bool"
      },
      "t_mapping(t_uint256,t_bytes32)": {
        "encoding": "mapping",
        "key": "t_uint256",
        "label": "mapping(uint256 => bytes32)",
        "numberOfBytes": "32",
        "value": "t_bytes32"
      },
      "t_mapping(t_uint256,t_struct(ProposalCore)423_storage)": {
        "encoding": "mapping",
        "key": "t_uint256",
        "label": "mapping(uint256 => struct Governor.ProposalCore)",
        "numberOfBytes": "32",
        "value": "t_struct(ProposalCore)423_storage"
      },
      "t_mapping(t_uint256,t_struct(ProposalVote)2272_storage)": {
        "encoding": "mapping",
        "key": "t_uint256",
        "label": "mapping(uint256 => struct GovernorCountingSimple.ProposalVote)",
        "numberOfBytes": "32",
        "value": "t_struct(ProposalVote)2272_storage"
      },
      "t_string_storage": {
        "encoding": "bytes",
        "label": "string",
        "numberOfBytes": "32"
      },
      "t_struct(BlockNumber)3927_storage": {
        "encoding": "inplace",
        "label": "struct Timers.BlockNumber",
        "members": [
          {
            "astId": 3926,
            "contract": "src/governance/governance_basic/GovernorContract.sol:GovernorContract",
            "label": "_deadline",
            "offset": 0,
            "slot": "0",
            "type": "t_uint64"
          }
        ],
        "numberOfBytes": "32"
      },
      "t_struct(ProposalCore)423_storage": {
        "encoding": "inplace",
        "label": "struct Governor.ProposalCore",
        "members": [
          {
            "astId": 415,
            "contract": "src/governance/governance_basic/GovernorContract.sol:GovernorContract",
            "label": "voteStart",
            "offset": 0,
            "slot": "0",
            "type": "t_struct(BlockNumber)3927_storage"
          },
          {
            "astId": 418,
            "contract": "src/governance/governance_basic/GovernorContract.sol:GovernorContract",
            "label": "voteEnd",
            "offset": 0,
            "slot": "1",
            "type": "t_struct(BlockNumber)3927_storage"
          },
          {
            "astId": 420,
            "contract": "src/governance/governance_basic/GovernorContract.sol:GovernorContract",
            "label": "executed",
            "offset": 0,
            "slot": "2",
            "type": "t_bool"
          },
          {
            "astId": 422,
            "contract": "src/governance/governance_basic/GovernorContract.sol:GovernorContract",
            "label": "canceled",
            "offset": 1,
            "slot": "2",
            "type": "t_bool"
          }
        ],
        "numberOfBytes": "96"
      },
      "t_struct(ProposalVote)2272_storage": {
        "encoding": "inplace",
        "label": "struct GovernorCountingSimple.ProposalVote",
        "members": [
          {
            "astId": 2263,
            "contract": "src/governance/governance_basic/GovernorContract.sol:GovernorContract",
            "label": "againstVotes",
            "offset": 0,
            "slot": "0",
            "type": "t_uint256"
          },
          {
            "astId": 2265,
            "contract": "src/governance/governance_basic/GovernorContract.sol:GovernorContract",
            "label": "forVotes",
            "offset": 0,
            "slot": "1",
            "type": "t_uint256"
          },
          {
            "astId": 2267,
            "contract": "src/governance/governance_basic/GovernorContract.sol:GovernorContract",
            "label": "abstainVotes",
            "offset": 0,
            "slot": "2",
            "type": "t_uint256"
          },
          {
            "astId": 2271,
            "contract": "src/governance/governance_basic/GovernorContract.sol:GovernorContract",
            "label": "hasVoted",
            "offset": 0,
            "slot": "3",
            "type": "t_mapping(t_address,t_bool)"
          }
        ],
        "numberOfBytes": "128"
      },
      "t_uint256": {
        "encoding": "inplace",
        "label": "uint256",
        "numberOfBytes": "32"
      },
      "t_uint64": {
        "encoding": "inplace",
        "label": "uint64",
        "numberOfBytes": "8"
      }
    }
  }
}