{
  "address": "0x5FbDB2315678afecb367f032d93F642f64180aa3",
  "abi": [
    {
      "inputs": [],
      "stateMutability": "nonpayable",
      "type": "constructor"
    },
    {
      "anonymous": false,
      "inputs": [
        {
          "indexed": true,
          "internalType": "address",
          "name": "owner",
          "type": "address"
        },
        {
          "indexed": true,
          "internalType": "address",
          "name": "spender",
          "type": "address"
        },
        {
          "indexed": false,
          "internalType": "uint256",
          "name": "value",
          "type": "uint256"
        }
      ],
      "name": "Approval",
      "type": "event"
    },
    {
      "anonymous": false,
      "inputs": [
        {
          "indexed": true,
          "internalType": "address",
          "name": "delegator",
          "type": "address"
        },
        {
          "indexed": true,
          "internalType": "address",
          "name": "fromDelegate",
          "type": "address"
        },
        {
          "indexed": true,
          "internalType": "address",
          "name": "toDelegate",
          "type": "address"
        }
      ],
      "name": "DelegateChanged",
      "type": "event"
    },
    {
      "anonymous": false,
      "inputs": [
        {
          "indexed": true,
          "internalType": "address",
          "name": "delegate",
          "type": "address"
        },
        {
          "indexed": false,
          "internalType": "uint256",
          "name": "previousBalance",
          "type": "uint256"
        },
        {
          "indexed": false,
          "internalType": "uint256",
          "name": "newBalance",
          "type": "uint256"
        }
      ],
      "name": "DelegateVotesChanged",
      "type": "event"
    },
    {
      "anonymous": false,
      "inputs": [
        {
          "indexed": true,
          "internalType": "address",
          "name": "from",
          "type": "address"
        },
        {
          "indexed": true,
          "internalType": "address",
          "name": "to",
          "type": "address"
        },
        {
          "indexed": false,
          "internalType": "uint256",
          "name": "value",
          "type": "uint256"
        }
      ],
      "name": "Transfer",
      "type": "event"
    },
    {
      "inputs": [],
      "name": "DOMAIN_SEPARATOR",
      "outputs": [
        {
          "internalType": "bytes32",
          "name": "",
          "type": "bytes32"
        }
      ],
      "stateMutability": "view",
      "type": "function"
    },
    {
      "inputs": [
        {
          "internalType": "address",
          "name": "owner",
          "type": "address"
        },
        {
          "internalType": "address",
          "name": "spender",
          "type": "address"
        }
      ],
      "name": "allowance",
      "outputs": [
        {
          "internalType": "uint256",
          "name": "",
          "type": "uint256"
        }
      ],
      "stateMutability": "view",
      "type": "function"
    },
    {
      "inputs": [
        {
          "internalType": "address",
          "name": "spender",
          "type": "address"
        },
        {
          "internalType": "uint256",
          "name": "amount",
          "type": "uint256"
        }
      ],
      "name": "approve",
      "outputs": [
        {
          "internalType": "bool",
          "name": "",
          "type": "bool"
        }
      ],
      "stateMutability": "nonpayable",
      "type": "function"
    },
    {
      "inputs": [
        {
          "internalType": "address",
          "name": "account",
          "type": "address"
        }
      ],
      "name": "balanceOf",
      "outputs": [
        {
          "internalType": "uint256",
          "name": "",
          "type": "uint256"
        }
      ],
      "stateMutability": "view",
      "type": "function"
    },
    {
      "inputs": [
        {
          "internalType": "address",
          "name": "account",
          "type": "address"
        },
        {
          "internalType": "uint32",
          "name": "pos",
          "type": "uint32"
        }
      ],
      "name": "checkpoints",
      "outputs": [
        {
          "components": [
            {
              "internalType": "uint32",
              "name": "fromBlock",
              "type": "uint32"
            },
            {
              "internalType": "uint224",
              "name": "votes",
              "type": "uint224"
            }
          ],
          "internalType": "struct ERC20Votes.Checkpoint",
          "name": "",
          "type": "tuple"
        }
      ],
      "stateMutability": "view",
      "type": "function"
    },
    {
      "inputs": [],
      "name": "decimals",
      "outputs": [
        {
          "internalType": "uint8",
          "name": "",
          "type": "uint8"
        }
      ],
      "stateMutability": "view",
      "type": "function"
    },
    {
      "inputs": [
        {
          "internalType": "address",
          "name": "spender",
          "type": "address"
        },
        {
          "internalType": "uint256",
          "name": "subtractedValue",
          "type": "uint256"
        }
      ],
      "name": "decreaseAllowance",
      "outputs": [
        {
          "internalType": "bool",
          "name": "",
          "type": "bool"
        }
      ],
      "stateMutability": "nonpayable",
      "type": "function"
    },
    {
      "inputs": [
        {
          "internalType": "address",
          "name": "delegatee",
          "type": "address"
        }
      ],
      "name": "delegate",
      "outputs": [],
      "stateMutability": "nonpayable",
      "type": "function"
    },
    {
      "inputs": [
        {
          "internalType": "address",
          "name": "delegatee",
          "type": "address"
        },
        {
          "internalType": "uint256",
          "name": "nonce",
          "type": "uint256"
        },
        {
          "internalType": "uint256",
          "name": "expiry",
          "type": "uint256"
        },
        {
          "internalType": "uint8",
          "name": "v",
          "type": "uint8"
        },
        {
          "internalType": "bytes32",
          "name": "r",
          "type": "bytes32"
        },
        {
          "internalType": "bytes32",
          "name": "s",
          "type": "bytes32"
        }
      ],
      "name": "delegateBySig",
      "outputs": [],
      "stateMutability": "nonpayable",
      "type": "function"
    },
    {
      "inputs": [
        {
          "internalType": "address",
          "name": "account",
          "type": "address"
        }
      ],
      "name": "delegates",
      "outputs": [
        {
          "internalType": "address",
          "name": "",
          "type": "address"
        }
      ],
      "stateMutability": "view",
      "type": "function"
    },
    {
      "inputs": [
        {
          "internalType": "uint256",
          "name": "blockNumber",
          "type": "uint256"
        }
      ],
      "name": "getPastTotalSupply",
      "outputs": [
        {
          "internalType": "uint256",
          "name": "",
          "type": "uint256"
        }
      ],
      "stateMutability": "view",
      "type": "function"
    },
    {
      "inputs": [
        {
          "internalType": "address",
          "name": "account",
          "type": "address"
        },
        {
          "internalType": "uint256",
          "name": "blockNumber",
          "type": "uint256"
        }
      ],
      "name": "getPastVotes",
      "outputs": [
        {
          "internalType": "uint256",
          "name": "",
          "type": "uint256"
        }
      ],
      "stateMutability": "view",
      "type": "function"
    },
    {
      "inputs": [
        {
          "internalType": "address",
          "name": "account",
          "type": "address"
        }
      ],
      "name": "getVotes",
      "outputs": [
        {
          "internalType": "uint256",
          "name": "",
          "type": "uint256"
        }
      ],
      "stateMutability": "view",
      "type": "function"
    },
    {
      "inputs": [
        {
          "internalType": "address",
          "name": "spender",
          "type": "address"
        },
        {
          "internalType": "uint256",
          "name": "addedValue",
          "type": "uint256"
        }
      ],
      "name": "increaseAllowance",
      "outputs": [
        {
          "internalType": "bool",
          "name": "",
          "type": "bool"
        }
      ],
      "stateMutability": "nonpayable",
      "type": "function"
    },
    {
      "inputs": [],
      "name": "name",
      "outputs": [
        {
          "internalType": "string",
          "name": "",
          "type": "string"
        }
      ],
      "stateMutability": "view",
      "type": "function"
    },
    {
      "inputs": [
        {
          "internalType": "address",
          "name": "owner",
          "type": "address"
        }
      ],
      "name": "nonces",
      "outputs": [
        {
          "internalType": "uint256",
          "name": "",
          "type": "uint256"
        }
      ],
      "stateMutability": "view",
      "type": "function"
    },
    {
      "inputs": [
        {
          "internalType": "address",
          "name": "account",
          "type": "address"
        }
      ],
      "name": "numCheckpoints",
      "outputs": [
        {
          "internalType": "uint32",
          "name": "",
          "type": "uint32"
        }
      ],
      "stateMutability": "view",
      "type": "function"
    },
    {
      "inputs": [
        {
          "internalType": "address",
          "name": "owner",
          "type": "address"
        },
        {
          "internalType": "address",
          "name": "spender",
          "type": "address"
        },
        {
          "internalType": "uint256",
          "name": "value",
          "type": "uint256"
        },
        {
          "internalType": "uint256",
          "name": "deadline",
          "type": "uint256"
        },
        {
          "internalType": "uint8",
          "name": "v",
          "type": "uint8"
        },
        {
          "internalType": "bytes32",
          "name": "r",
          "type": "bytes32"
        },
        {
          "internalType": "bytes32",
          "name": "s",
          "type": "bytes32"
        }
      ],
      "name": "permit",
      "outputs": [],
      "stateMutability": "nonpayable",
      "type": "function"
    },
    {
      "inputs": [],
      "name": "symbol",
      "outputs": [
        {
          "internalType": "string",
          "name": "",
          "type": "string"
        }
      ],
      "stateMutability": "view",
      "type": "function"
    },
    {
      "inputs": [],
      "name": "totalSupply",
      "outputs": [
        {
          "internalType": "uint256",
          "name": "",
          "type": "uint256"
        }
      ],
      "stateMutability": "view",
      "type": "function"
    },
    {
      "inputs": [
        {
          "internalType": "address",
          "name": "to",
          "type": "address"
        },
        {
          "internalType": "uint256",
          "name": "amount",
          "type": "uint256"
        }
      ],
      "name": "transfer",
      "outputs": [
        {
          "internalType": "bool",
          "name": "",
          "type": "bool"
        }
      ],
      "stateMutability": "nonpayable",
      "type": "function"
    },
    {
      "inputs": [
        {
          "internalType": "address",
          "name": "from",
          "type": "address"
        },
        {
          "internalType": "address",
          "name": "to",
          "type": "address"
        },
        {
          "internalType": "uint256",
          "name": "amount",
          "type": "uint256"
        }
      ],
      "name": "transferFrom",
      "outputs": [
        {
          "internalType": "bool",
          "name": "",
          "type": "bool"
        }
      ],
      "stateMutability": "nonpayable",
      "type": "function"
    },
    {
      "inputs": [],
      "name": "vTotalSupply",
      "outputs": [
        {
          "internalType": "uint256",
          "name": "",
          "type": "uint256"
        }
      ],
      "stateMutability": "view",
      "type": "function"
    }
  ],
  "transactionHash": "0x4cfd0ba0a9fc1329c1ccf4494d6032f2a6e277fc641a9c0ce38bf134ab56dc22",
  "args": [],
  "numDeployments": 1,
  "solcInputHash": "4341f7e3afeaeab6f996fd6d4cafd8b3",
  "bytecode": "0x6101606040527f6e71edae12b1b97f4d1f60370fef10105fa2faae0126114a169c64845d6126c9610140908152506b033b2e3c9fd0803ce80000006009553480156200004a57600080fd5b506040518060400160405280600481526020017f5a696f6e00000000000000000000000000000000000000000000000000000000815250806040518060400160405280600181526020017f31000000000000000000000000000000000000000000000000000000000000008152506040518060400160405280600481526020017f5a696f6e000000000000000000000000000000000000000000000000000000008152506040518060400160405280600481526020017f5a494f4e0000000000000000000000000000000000000000000000000000000081525081600390805190602001906200013c92919062000b88565b5080600490805190602001906200015592919062000b88565b50505060008280519060200120905060008280519060200120905060007f8b73c3c69bb8fe3d512ecc4cf759cc79239f7b179b0ffacaa9a75d522b39400f90508260e081815250508161010081815250504660a08181525050620001c18184846200022560201b60201c565b608081815250503073ffffffffffffffffffffffffffffffffffffffff1660c08173ffffffffffffffffffffffffffffffffffffffff16815250508061012081815250505050505050506200021f336009546200026160201b60201c565b620010ff565b600083838346306040516020016200024295949392919062000cb3565b6040516020818303038152906040528051906020012090509392505050565b6200027882826200027c60201b62000f901760201c565b5050565b6200029382826200033a60201b6200101d1760201c565b620002a3620004b260201b60201c565b7bffffffffffffffffffffffffffffffffffffffffffffffffffffffff16620002d1620004d660201b60201c565b111562000315576040517f08c379a00000000000000000000000000000000000000000000000000000000081526004016200030c9062000d97565b60405180910390fd5b620003346008620004e060201b6200117c1783620004f860201b60201c565b50505050565b600073ffffffffffffffffffffffffffffffffffffffff168273ffffffffffffffffffffffffffffffffffffffff1603620003ac576040517f08c379a0000000000000000000000000000000000000000000000000000000008152600401620003a39062000e09565b60405180910390fd5b620003c060008383620007a960201b60201c565b8060026000828254620003d4919062000e5a565b92505081905550806000808473ffffffffffffffffffffffffffffffffffffffff1673ffffffffffffffffffffffffffffffffffffffff16815260200190815260200160002060008282546200042b919062000e5a565b925050819055508173ffffffffffffffffffffffffffffffffffffffff16600073ffffffffffffffffffffffffffffffffffffffff167fddf252ad1be2c89b69c2b068fc378daa952ba7f163c4a11628f55a4df523b3ef8360405162000492919062000eb7565b60405180910390a3620004ae60008383620007ae60201b60201c565b5050565b60007bffffffffffffffffffffffffffffffffffffffffffffffffffffffff905090565b6000600254905090565b60008183620004f0919062000e5a565b905092915050565b600080600085805490509050600081146200056d57856001826200051d919062000ed4565b8154811062000531576200053062000f0f565b5b9060005260206000200160000160049054906101000a90047bffffffffffffffffffffffffffffffffffffffffffffffffffffffff1662000570565b60005b7bffffffffffffffffffffffffffffffffffffffffffffffffffffffff1692506200059c83858760201c565b9150600081118015620005f557504386600183620005bb919062000ed4565b81548110620005cf57620005ce62000f0f565b5b9060005260206000200160000160009054906101000a900463ffffffff1663ffffffff16145b1562000696576200061182620007cb60201b620011921760201c565b8660018362000621919062000ed4565b8154811062000635576200063462000f0f565b5b9060005260206000200160000160046101000a8154817bffffffffffffffffffffffffffffffffffffffffffffffffffffffff02191690837bffffffffffffffffffffffffffffffffffffffffffffffffffffffff160217905550620007a0565b856040518060400160405280620006b8436200083960201b620011fd1760201c565b63ffffffff168152602001620006d985620007cb60201b620011921760201c565b7bffffffffffffffffffffffffffffffffffffffffffffffffffffffff168152509080600181540180825580915050600190039060005260206000200160009091909190915060008201518160000160006101000a81548163ffffffff021916908363ffffffff16021790555060208201518160000160046101000a8154817bffffffffffffffffffffffffffffffffffffffffffffffffffffffff02191690837bffffffffffffffffffffffffffffffffffffffffffffffffffffffff16021790555050505b50935093915050565b505050565b620007c68383836200088f60201b620012501760201c565b505050565b60007bffffffffffffffffffffffffffffffffffffffffffffffffffffffff801682111562000831576040517f08c379a0000000000000000000000000000000000000000000000000000000008152600401620008289062000fb4565b60405180910390fd5b819050919050565b600063ffffffff801682111562000887576040517f08c379a00000000000000000000000000000000000000000000000000000000081526004016200087e906200104c565b60405180910390fd5b819050919050565b620008a7838383620008df60201b6200127b1760201c565b620008da620008bc84620008e460201b60201c565b620008cd84620008e460201b60201c565b836200094d60201b60201c565b505050565b505050565b6000600660008373ffffffffffffffffffffffffffffffffffffffff1673ffffffffffffffffffffffffffffffffffffffff16815260200190815260200160002060009054906101000a900473ffffffffffffffffffffffffffffffffffffffff169050919050565b8173ffffffffffffffffffffffffffffffffffffffff168373ffffffffffffffffffffffffffffffffffffffff16141580156200098a5750600081115b1562000b6b57600073ffffffffffffffffffffffffffffffffffffffff168373ffffffffffffffffffffffffffffffffffffffff161462000a7d5760008062000a24600760008773ffffffffffffffffffffffffffffffffffffffff1673ffffffffffffffffffffffffffffffffffffffff16815260200190815260200160002062000b7060201b620012801785620004f860201b60201c565b915091508473ffffffffffffffffffffffffffffffffffffffff167fdec2bacdd2f05b59de34da9b523dff8be42e5e38e818c82fdb0bae774387a724838360405162000a729291906200106e565b60405180910390a250505b600073ffffffffffffffffffffffffffffffffffffffff168273ffffffffffffffffffffffffffffffffffffffff161462000b6a5760008062000b11600760008673ffffffffffffffffffffffffffffffffffffffff1673ffffffffffffffffffffffffffffffffffffffff168152602001908152602001600020620004e060201b6200117c1785620004f860201b60201c565b915091508373ffffffffffffffffffffffffffffffffffffffff167fdec2bacdd2f05b59de34da9b523dff8be42e5e38e818c82fdb0bae774387a724838360405162000b5f9291906200106e565b60405180910390a250505b5b505050565b6000818362000b80919062000ed4565b905092915050565b82805462000b9690620010ca565b90600052602060002090601f01602090048101928262000bba576000855562000c06565b82601f1062000bd557805160ff191683800117855562000c06565b8280016001018555821562000c06579182015b8281111562000c0557825182559160200191906001019062000be8565b5b50905062000c15919062000c19565b5090565b5b8082111562000c3457600081600090555060010162000c1a565b5090565b6000819050919050565b62000c4d8162000c38565b82525050565b6000819050919050565b62000c688162000c53565b82525050565b600073ffffffffffffffffffffffffffffffffffffffff82169050919050565b600062000c9b8262000c6e565b9050919050565b62000cad8162000c8e565b82525050565b600060a08201905062000cca600083018862000c42565b62000cd9602083018762000c42565b62000ce8604083018662000c42565b62000cf7606083018562000c5d565b62000d06608083018462000ca2565b9695505050505050565b600082825260208201905092915050565b7f4552433230566f7465733a20746f74616c20737570706c79207269736b73206f60008201527f766572666c6f77696e6720766f74657300000000000000000000000000000000602082015250565b600062000d7f60308362000d10565b915062000d8c8262000d21565b604082019050919050565b6000602082019050818103600083015262000db28162000d70565b9050919050565b7f45524332303a206d696e7420746f20746865207a65726f206164647265737300600082015250565b600062000df1601f8362000d10565b915062000dfe8262000db9565b602082019050919050565b6000602082019050818103600083015262000e248162000de2565b9050919050565b7f4e487b7100000000000000000000000000000000000000000000000000000000600052601160045260246000fd5b600062000e678262000c53565b915062000e748362000c53565b9250827fffffffffffffffffffffffffffffffffffffffffffffffffffffffffffffffff0382111562000eac5762000eab62000e2b565b5b828201905092915050565b600060208201905062000ece600083018462000c5d565b92915050565b600062000ee18262000c53565b915062000eee8362000c53565b92508282101562000f045762000f0362000e2b565b5b828203905092915050565b7f4e487b7100000000000000000000000000000000000000000000000000000000600052603260045260246000fd5b7f53616665436173743a2076616c756520646f65736e27742066697420696e203260008201527f3234206269747300000000000000000000000000000000000000000000000000602082015250565b600062000f9c60278362000d10565b915062000fa98262000f3e565b604082019050919050565b6000602082019050818103600083015262000fcf8162000f8d565b9050919050565b7f53616665436173743a2076616c756520646f65736e27742066697420696e203360008201527f3220626974730000000000000000000000000000000000000000000000000000602082015250565b60006200103460268362000d10565b9150620010418262000fd6565b604082019050919050565b60006020820190508181036000830152620010678162001025565b9050919050565b600060408201905062001085600083018562000c5d565b62001094602083018462000c5d565b9392505050565b7f4e487b7100000000000000000000000000000000000000000000000000000000600052602260045260246000fd5b60006002820490506001821680620010e357607f821691505b602082108103620010f957620010f86200109b565b5b50919050565b60805160a05160c05160e0516101005161012051610140516138346200115a6000396000610cfe01526000611820015260006118620152600061184101526000611776015260006117cc015260006117f501526138346000f3fe608060405234801561001057600080fd5b506004361061014d5760003560e01c80636fcfff45116100c3578063a457c2d71161007c578063a457c2d714610402578063a9059cbb14610432578063c3cda52014610462578063d505accf1461047e578063dd62ed3e1461049a578063f1127ed8146104ca5761014d565b80636fcfff45146102f457806370a08231146103245780637ecebe00146103545780638e539e8c1461038457806395d89b41146103b45780639ab24eb0146103d25761014d565b80633644e515116101155780633644e5151461020c578063395093511461022a5780633a1932721461025a5780633a46b1a814610278578063587cde1e146102a85780635c19a95c146102d85761014d565b806306fdde0314610152578063095ea7b31461017057806318160ddd146101a057806323b872dd146101be578063313ce567146101ee575b600080fd5b61015a6104fa565b6040516101679190612465565b60405180910390f35b61018a60048036038101906101859190612520565b61058c565b604051610197919061257b565b60405180910390f35b6101a86105af565b6040516101b591906125a5565b60405180910390f35b6101d860048036038101906101d391906125c0565b6105b9565b6040516101e5919061257b565b60405180910390f35b6101f66105e8565b604051610203919061262f565b60405180910390f35b6102146105f1565b6040516102219190612663565b60405180910390f35b610244600480360381019061023f9190612520565b610600565b604051610251919061257b565b60405180910390f35b6102626106aa565b60405161026f91906125a5565b60405180910390f35b610292600480360381019061028d9190612520565b6106b0565b60405161029f91906125a5565b60405180910390f35b6102c260048036038101906102bd919061267e565b610744565b6040516102cf91906126ba565b60405180910390f35b6102f260048036038101906102ed919061267e565b6107ad565b005b61030e6004803603810190610309919061267e565b6107c1565b60405161031b91906126f4565b60405180910390f35b61033e6004803603810190610339919061267e565b610815565b60405161034b91906125a5565b60405180910390f35b61036e6004803603810190610369919061267e565b61085d565b60405161037b91906125a5565b60405180910390f35b61039e6004803603810190610399919061270f565b6108ad565b6040516103ab91906125a5565b60405180910390f35b6103bc610903565b6040516103c99190612465565b60405180910390f35b6103ec60048036038101906103e7919061267e565b610995565b6040516103f991906125a5565b60405180910390f35b61041c60048036038101906104179190612520565b610aa6565b604051610429919061257b565b60405180910390f35b61044c60048036038101906104479190612520565b610b90565b604051610459919061257b565b60405180910390f35b61047c60048036038101906104779190612794565b610bb3565b005b61049860048036038101906104939190612821565b610cb7565b005b6104b460048036038101906104af91906128c3565b610df9565b6040516104c191906125a5565b60405180910390f35b6104e460048036038101906104df919061292f565b610e80565b6040516104f191906129e4565b60405180910390f35b60606003805461050990612a2e565b80601f016020809104026020016040519081016040528092919081815260200182805461053590612a2e565b80156105825780601f1061055757610100808354040283529160200191610582565b820191906000526020600020905b81548152906001019060200180831161056557829003601f168201915b5050505050905090565b600080610597611296565b90506105a481858561129e565b600191505092915050565b6000600254905090565b6000806105c4611296565b90506105d1858285611467565b6105dc8585856114f3565b60019150509392505050565b60006012905090565b60006105fb611772565b905090565b60008061060b611296565b905061069f818585600160008673ffffffffffffffffffffffffffffffffffffffff1673ffffffffffffffffffffffffffffffffffffffff16815260200190815260200160002060008973ffffffffffffffffffffffffffffffffffffffff1673ffffffffffffffffffffffffffffffffffffffff1681526020019081526020016000205461069a9190612a8e565b61129e565b600191505092915050565b60095481565b60004382106106f4576040517f08c379a00000000000000000000000000000000000000000000000000000000081526004016106eb90612b30565b60405180910390fd5b61073c600760008573ffffffffffffffffffffffffffffffffffffffff1673ffffffffffffffffffffffffffffffffffffffff1681526020019081526020016000208361188c565b905092915050565b6000600660008373ffffffffffffffffffffffffffffffffffffffff1673ffffffffffffffffffffffffffffffffffffffff16815260200190815260200160002060009054906101000a900473ffffffffffffffffffffffffffffffffffffffff169050919050565b6107be6107b8611296565b82611998565b50565b600061080e600760008473ffffffffffffffffffffffffffffffffffffffff1673ffffffffffffffffffffffffffffffffffffffff168152602001908152602001600020805490506111fd565b9050919050565b60008060008373ffffffffffffffffffffffffffffffffffffffff1673ffffffffffffffffffffffffffffffffffffffff168152602001908152602001600020549050919050565b60006108a6600560008473ffffffffffffffffffffffffffffffffffffffff1673ffffffffffffffffffffffffffffffffffffffff168152602001908152602001600020611ab2565b9050919050565b60004382106108f1576040517f08c379a00000000000000000000000000000000000000000000000000000000081526004016108e890612b30565b60405180910390fd5b6108fc60088361188c565b9050919050565b60606004805461091290612a2e565b80601f016020809104026020016040519081016040528092919081815260200182805461093e90612a2e565b801561098b5780601f106109605761010080835404028352916020019161098b565b820191906000526020600020905b81548152906001019060200180831161096e57829003601f168201915b5050505050905090565b600080600760008473ffffffffffffffffffffffffffffffffffffffff1673ffffffffffffffffffffffffffffffffffffffff16815260200190815260200160002080549050905060008114610a7d57600760008473ffffffffffffffffffffffffffffffffffffffff1673ffffffffffffffffffffffffffffffffffffffff168152602001908152602001600020600182610a319190612b50565b81548110610a4257610a41612b84565b5b9060005260206000200160000160049054906101000a90047bffffffffffffffffffffffffffffffffffffffffffffffffffffffff16610a80565b60005b7bffffffffffffffffffffffffffffffffffffffffffffffffffffffff16915050919050565b600080610ab1611296565b90506000600160008373ffffffffffffffffffffffffffffffffffffffff1673ffffffffffffffffffffffffffffffffffffffff16815260200190815260200160002060008673ffffffffffffffffffffffffffffffffffffffff1673ffffffffffffffffffffffffffffffffffffffff16815260200190815260200160002054905083811015610b77576040517f08c379a0000000000000000000000000000000000000000000000000000000008152600401610b6e90612c25565b60405180910390fd5b610b84828686840361129e565b60019250505092915050565b600080610b9b611296565b9050610ba88185856114f3565b600191505092915050565b83421115610bf6576040517f08c379a0000000000000000000000000000000000000000000000000000000008152600401610bed90612c91565b60405180910390fd5b6000610c58610c507fe48329057bfd03d55e49b547132e39cffd9c1820ad7b9d4c5307691425d15adf898989604051602001610c359493929190612cb1565b60405160208183030381529060405280519060200120611ac0565b858585611ada565b9050610c6381611b05565b8614610ca4576040517f08c379a0000000000000000000000000000000000000000000000000000000008152600401610c9b90612d42565b60405180910390fd5b610cae8188611998565b50505050505050565b83421115610cfa576040517f08c379a0000000000000000000000000000000000000000000000000000000008152600401610cf190612dae565b60405180910390fd5b60007f0000000000000000000000000000000000000000000000000000000000000000888888610d298c611b05565b89604051602001610d3f96959493929190612dce565b6040516020818303038152906040528051906020012090506000610d6282611ac0565b90506000610d7282878787611ada565b90508973ffffffffffffffffffffffffffffffffffffffff168173ffffffffffffffffffffffffffffffffffffffff1614610de2576040517f08c379a0000000000000000000000000000000000000000000000000000000008152600401610dd990612e7b565b60405180910390fd5b610ded8a8a8a61129e565b50505050505050505050565b6000600160008473ffffffffffffffffffffffffffffffffffffffff1673ffffffffffffffffffffffffffffffffffffffff16815260200190815260200160002060008373ffffffffffffffffffffffffffffffffffffffff1673ffffffffffffffffffffffffffffffffffffffff16815260200190815260200160002054905092915050565b610e8861238e565b600760008473ffffffffffffffffffffffffffffffffffffffff1673ffffffffffffffffffffffffffffffffffffffff1681526020019081526020016000208263ffffffff1681548110610edf57610ede612b84565b5b906000526020600020016040518060400160405290816000820160009054906101000a900463ffffffff1663ffffffff1663ffffffff1681526020016000820160049054906101000a90047bffffffffffffffffffffffffffffffffffffffffffffffffffffffff167bffffffffffffffffffffffffffffffffffffffffffffffffffffffff167bffffffffffffffffffffffffffffffffffffffffffffffffffffffff1681525050905092915050565b610f9a828261101d565b610fa2611b63565b7bffffffffffffffffffffffffffffffffffffffffffffffffffffffff16610fc86105af565b1115611009576040517f08c379a000000000000000000000000000000000000000000000000000000000815260040161100090612f0d565b60405180910390fd5b611017600861117c83611b87565b50505050565b600073ffffffffffffffffffffffffffffffffffffffff168273ffffffffffffffffffffffffffffffffffffffff160361108c576040517f08c379a000000000000000000000000000000000000000000000000000000000815260040161108390612f79565b60405180910390fd5b61109860008383611dff565b80600260008282546110aa9190612a8e565b92505081905550806000808473ffffffffffffffffffffffffffffffffffffffff1673ffffffffffffffffffffffffffffffffffffffff16815260200190815260200160002060008282546110ff9190612a8e565b925050819055508173ffffffffffffffffffffffffffffffffffffffff16600073ffffffffffffffffffffffffffffffffffffffff167fddf252ad1be2c89b69c2b068fc378daa952ba7f163c4a11628f55a4df523b3ef8360405161116491906125a5565b60405180910390a361117860008383611e04565b5050565b6000818361118a9190612a8e565b905092915050565b60007bffffffffffffffffffffffffffffffffffffffffffffffffffffffff80168211156111f5576040517f08c379a00000000000000000000000000000000000000000000000000000000081526004016111ec9061300b565b60405180910390fd5b819050919050565b600063ffffffff8016821115611248576040517f08c379a000000000000000000000000000000000000000000000000000000000815260040161123f9061309d565b60405180910390fd5b819050919050565b61125b83838361127b565b61127661126784610744565b61127084610744565b83611e14565b505050565b505050565b6000818361128e9190612b50565b905092915050565b600033905090565b600073ffffffffffffffffffffffffffffffffffffffff168373ffffffffffffffffffffffffffffffffffffffff160361130d576040517f08c379a00000000000000000000000000000000000000000000000000000000081526004016113049061312f565b60405180910390fd5b600073ffffffffffffffffffffffffffffffffffffffff168273ffffffffffffffffffffffffffffffffffffffff160361137c576040517f08c379a0000000000000000000000000000000000000000000000000000000008152600401611373906131c1565b60405180910390fd5b80600160008573ffffffffffffffffffffffffffffffffffffffff1673ffffffffffffffffffffffffffffffffffffffff16815260200190815260200160002060008473ffffffffffffffffffffffffffffffffffffffff1673ffffffffffffffffffffffffffffffffffffffff168152602001908152602001600020819055508173ffffffffffffffffffffffffffffffffffffffff168373ffffffffffffffffffffffffffffffffffffffff167f8c5be1e5ebec7d5bd14f71427d1e84f3dd0314c0f7b2291e5b200ac8c7c3b9258360405161145a91906125a5565b60405180910390a3505050565b60006114738484610df9565b90507fffffffffffffffffffffffffffffffffffffffffffffffffffffffffffffffff81146114ed57818110156114df576040517f08c379a00000000000000000000000000000000000000000000000000000000081526004016114d69061322d565b60405180910390fd5b6114ec848484840361129e565b5b50505050565b600073ffffffffffffffffffffffffffffffffffffffff168373ffffffffffffffffffffffffffffffffffffffff1603611562576040517f08c379a0000000000000000000000000000000000000000000000000000000008152600401611559906132bf565b60405180910390fd5b600073ffffffffffffffffffffffffffffffffffffffff168273ffffffffffffffffffffffffffffffffffffffff16036115d1576040517f08c379a00000000000000000000000000000000000000000000000000000000081526004016115c890613351565b60405180910390fd5b6115dc838383611dff565b60008060008573ffffffffffffffffffffffffffffffffffffffff1673ffffffffffffffffffffffffffffffffffffffff16815260200190815260200160002054905081811015611662576040517f08c379a0000000000000000000000000000000000000000000000000000000008152600401611659906133e3565b60405180910390fd5b8181036000808673ffffffffffffffffffffffffffffffffffffffff1673ffffffffffffffffffffffffffffffffffffffff16815260200190815260200160002081905550816000808573ffffffffffffffffffffffffffffffffffffffff1673ffffffffffffffffffffffffffffffffffffffff16815260200190815260200160002060008282546116f59190612a8e565b925050819055508273ffffffffffffffffffffffffffffffffffffffff168473ffffffffffffffffffffffffffffffffffffffff167fddf252ad1be2c89b69c2b068fc378daa952ba7f163c4a11628f55a4df523b3ef8460405161175991906125a5565b60405180910390a361176c848484611e04565b50505050565b60007f000000000000000000000000000000000000000000000000000000000000000073ffffffffffffffffffffffffffffffffffffffff163073ffffffffffffffffffffffffffffffffffffffff161480156117ee57507f000000000000000000000000000000000000000000000000000000000000000046145b1561181b577f00000000000000000000000000000000000000000000000000000000000000009050611889565b6118867f00000000000000000000000000000000000000000000000000000000000000007f00000000000000000000000000000000000000000000000000000000000000007f000000000000000000000000000000000000000000000000000000000000000061200d565b90505b90565b6000808380549050905060005b8181101561190b5760006118ad8284612047565b9050848682815481106118c3576118c2612b84565b5b9060005260206000200160000160009054906101000a900463ffffffff1663ffffffff1611156118f557809250611905565b6001816119029190612a8e565b91505b50611899565b6000821461196d57846001836119219190612b50565b8154811061193257611931612b84565b5b9060005260206000200160000160049054906101000a90047bffffffffffffffffffffffffffffffffffffffffffffffffffffffff16611970565b60005b7bffffffffffffffffffffffffffffffffffffffffffffffffffffffff169250505092915050565b60006119a383610744565b905060006119b084610815565b905082600660008673ffffffffffffffffffffffffffffffffffffffff1673ffffffffffffffffffffffffffffffffffffffff16815260200190815260200160002060006101000a81548173ffffffffffffffffffffffffffffffffffffffff021916908373ffffffffffffffffffffffffffffffffffffffff1602179055508273ffffffffffffffffffffffffffffffffffffffff168273ffffffffffffffffffffffffffffffffffffffff168573ffffffffffffffffffffffffffffffffffffffff167f3134e8a2e6d97e929a7e54011ea5485d7d196dd5f0ba4d4ef95803e8e3fc257f60405160405180910390a4611aac828483611e14565b50505050565b600081600001549050919050565b6000611ad3611acd611772565b8361206d565b9050919050565b6000806000611aeb878787876120a0565b91509150611af8816121ac565b8192505050949350505050565b600080600560008473ffffffffffffffffffffffffffffffffffffffff1673ffffffffffffffffffffffffffffffffffffffff1681526020019081526020016000209050611b5281611ab2565b9150611b5d81612378565b50919050565b60007bffffffffffffffffffffffffffffffffffffffffffffffffffffffff905090565b60008060008580549050905060008114611bf55785600182611ba99190612b50565b81548110611bba57611bb9612b84565b5b9060005260206000200160000160049054906101000a90047bffffffffffffffffffffffffffffffffffffffffffffffffffffffff16611bf8565b60005b7bffffffffffffffffffffffffffffffffffffffffffffffffffffffff169250611c2683858763ffffffff16565b9150600081118015611c7957504386600183611c429190612b50565b81548110611c5357611c52612b84565b5b9060005260206000200160000160009054906101000a900463ffffffff1663ffffffff16145b15611d0657611c8782611192565b86600183611c959190612b50565b81548110611ca657611ca5612b84565b5b9060005260206000200160000160046101000a8154817bffffffffffffffffffffffffffffffffffffffffffffffffffffffff02191690837bffffffffffffffffffffffffffffffffffffffffffffffffffffffff160217905550611df6565b856040518060400160405280611d1b436111fd565b63ffffffff168152602001611d2f85611192565b7bffffffffffffffffffffffffffffffffffffffffffffffffffffffff168152509080600181540180825580915050600190039060005260206000200160009091909190915060008201518160000160006101000a81548163ffffffff021916908363ffffffff16021790555060208201518160000160046101000a8154817bffffffffffffffffffffffffffffffffffffffffffffffffffffffff02191690837bffffffffffffffffffffffffffffffffffffffffffffffffffffffff16021790555050505b50935093915050565b505050565b611e0f838383611250565b505050565b8173ffffffffffffffffffffffffffffffffffffffff168373ffffffffffffffffffffffffffffffffffffffff1614158015611e505750600081115b1561200857600073ffffffffffffffffffffffffffffffffffffffff168373ffffffffffffffffffffffffffffffffffffffff1614611f2e57600080611ed7600760008773ffffffffffffffffffffffffffffffffffffffff1673ffffffffffffffffffffffffffffffffffffffff16815260200190815260200160002061128085611b87565b915091508473ffffffffffffffffffffffffffffffffffffffff167fdec2bacdd2f05b59de34da9b523dff8be42e5e38e818c82fdb0bae774387a7248383604051611f23929190613403565b60405180910390a250505b600073ffffffffffffffffffffffffffffffffffffffff168273ffffffffffffffffffffffffffffffffffffffff161461200757600080611fb0600760008673ffffffffffffffffffffffffffffffffffffffff1673ffffffffffffffffffffffffffffffffffffffff16815260200190815260200160002061117c85611b87565b915091508373ffffffffffffffffffffffffffffffffffffffff167fdec2bacdd2f05b59de34da9b523dff8be42e5e38e818c82fdb0bae774387a7248383604051611ffc929190613403565b60405180910390a250505b5b505050565b6000838383463060405160200161202895949392919061342c565b6040516020818303038152906040528051906020012090509392505050565b6000600282841861205891906134ae565b8284166120659190612a8e565b905092915050565b60008282604051602001612082929190613557565b60405160208183030381529060405280519060200120905092915050565b6000807f7fffffffffffffffffffffffffffffff5d576e7357a4501ddfe92f46681b20a08360001c11156120db5760006003915091506121a3565b601b8560ff16141580156120f35750601c8560ff1614155b156121055760006004915091506121a3565b60006001878787876040516000815260200160405260405161212a949392919061358e565b6020604051602081039080840390855afa15801561214c573d6000803e3d6000fd5b505050602060405103519050600073ffffffffffffffffffffffffffffffffffffffff168173ffffffffffffffffffffffffffffffffffffffff160361219a576000600192509250506121a3565b80600092509250505b94509492505050565b600060048111156121c0576121bf6135d3565b5b8160048111156121d3576121d26135d3565b5b031561237557600160048111156121ed576121ec6135d3565b5b816004811115612200576121ff6135d3565b5b03612240576040517f08c379a00000000000000000000000000000000000000000000000000000000081526004016122379061364e565b60405180910390fd5b60026004811115612254576122536135d3565b5b816004811115612267576122666135d3565b5b036122a7576040517f08c379a000000000000000000000000000000000000000000000000000000000815260040161229e906136ba565b60405180910390fd5b600360048111156122bb576122ba6135d3565b5b8160048111156122ce576122cd6135d3565b5b0361230e576040517f08c379a00000000000000000000000000000000000000000000000000000000081526004016123059061374c565b60405180910390fd5b600480811115612321576123206135d3565b5b816004811115612334576123336135d3565b5b03612374576040517f08c379a000000000000000000000000000000000000000000000000000000000815260040161236b906137de565b60405180910390fd5b5b50565b6001816000016000828254019250508190555050565b6040518060400160405280600063ffffffff16815260200160007bffffffffffffffffffffffffffffffffffffffffffffffffffffffff1681525090565b600081519050919050565b600082825260208201905092915050565b60005b838110156124065780820151818401526020810190506123eb565b83811115612415576000848401525b50505050565b6000601f19601f8301169050919050565b6000612437826123cc565b61244181856123d7565b93506124518185602086016123e8565b61245a8161241b565b840191505092915050565b6000602082019050818103600083015261247f818461242c565b905092915050565b600080fd5b600073ffffffffffffffffffffffffffffffffffffffff82169050919050565b60006124b78261248c565b9050919050565b6124c7816124ac565b81146124d257600080fd5b50565b6000813590506124e4816124be565b92915050565b6000819050919050565b6124fd816124ea565b811461250857600080fd5b50565b60008135905061251a816124f4565b92915050565b6000806040838503121561253757612536612487565b5b6000612545858286016124d5565b92505060206125568582860161250b565b9150509250929050565b60008115159050919050565b61257581612560565b82525050565b6000602082019050612590600083018461256c565b92915050565b61259f816124ea565b82525050565b60006020820190506125ba6000830184612596565b92915050565b6000806000606084860312156125d9576125d8612487565b5b60006125e7868287016124d5565b93505060206125f8868287016124d5565b92505060406126098682870161250b565b9150509250925092565b600060ff82169050919050565b61262981612613565b82525050565b60006020820190506126446000830184612620565b92915050565b6000819050919050565b61265d8161264a565b82525050565b60006020820190506126786000830184612654565b92915050565b60006020828403121561269457612693612487565b5b60006126a2848285016124d5565b91505092915050565b6126b4816124ac565b82525050565b60006020820190506126cf60008301846126ab565b92915050565b600063ffffffff82169050919050565b6126ee816126d5565b82525050565b600060208201905061270960008301846126e5565b92915050565b60006020828403121561272557612724612487565b5b60006127338482850161250b565b91505092915050565b61274581612613565b811461275057600080fd5b50565b6000813590506127628161273c565b92915050565b6127718161264a565b811461277c57600080fd5b50565b60008135905061278e81612768565b92915050565b60008060008060008060c087890312156127b1576127b0612487565b5b60006127bf89828a016124d5565b96505060206127d089828a0161250b565b95505060406127e189828a0161250b565b94505060606127f289828a01612753565b935050608061280389828a0161277f565b92505060a061281489828a0161277f565b9150509295509295509295565b600080600080600080600060e0888a0312156128405761283f612487565b5b600061284e8a828b016124d5565b975050602061285f8a828b016124d5565b96505060406128708a828b0161250b565b95505060606128818a828b0161250b565b94505060806128928a828b01612753565b93505060a06128a38a828b0161277f565b92505060c06128b48a828b0161277f565b91505092959891949750929550565b600080604083850312156128da576128d9612487565b5b60006128e8858286016124d5565b92505060206128f9858286016124d5565b9150509250929050565b61290c816126d5565b811461291757600080fd5b50565b60008135905061292981612903565b92915050565b6000806040838503121561294657612945612487565b5b6000612954858286016124d5565b92505060206129658582860161291a565b9150509250929050565b612978816126d5565b82525050565b60007bffffffffffffffffffffffffffffffffffffffffffffffffffffffff82169050919050565b6129af8161297e565b82525050565b6040820160008201516129cb600085018261296f565b5060208201516129de60208501826129a6565b50505050565b60006040820190506129f960008301846129b5565b92915050565b7f4e487b7100000000000000000000000000000000000000000000000000000000600052602260045260246000fd5b60006002820490506001821680612a4657607f821691505b602082108103612a5957612a586129ff565b5b50919050565b7f4e487b7100000000000000000000000000000000000000000000000000000000600052601160045260246000fd5b6000612a99826124ea565b9150612aa4836124ea565b9250827fffffffffffffffffffffffffffffffffffffffffffffffffffffffffffffffff03821115612ad957612ad8612a5f565b5b828201905092915050565b7f4552433230566f7465733a20626c6f636b206e6f7420796574206d696e656400600082015250565b6000612b1a601f836123d7565b9150612b2582612ae4565b602082019050919050565b60006020820190508181036000830152612b4981612b0d565b9050919050565b6000612b5b826124ea565b9150612b66836124ea565b925082821015612b7957612b78612a5f565b5b828203905092915050565b7f4e487b7100000000000000000000000000000000000000000000000000000000600052603260045260246000fd5b7f45524332303a2064656372656173656420616c6c6f77616e63652062656c6f7760008201527f207a65726f000000000000000000000000000000000000000000000000000000602082015250565b6000612c0f6025836123d7565b9150612c1a82612bb3565b604082019050919050565b60006020820190508181036000830152612c3e81612c02565b9050919050565b7f4552433230566f7465733a207369676e61747572652065787069726564000000600082015250565b6000612c7b601d836123d7565b9150612c8682612c45565b602082019050919050565b60006020820190508181036000830152612caa81612c6e565b9050919050565b6000608082019050612cc66000830187612654565b612cd360208301866126ab565b612ce06040830185612596565b612ced6060830184612596565b95945050505050565b7f4552433230566f7465733a20696e76616c6964206e6f6e636500000000000000600082015250565b6000612d2c6019836123d7565b9150612d3782612cf6565b602082019050919050565b60006020820190508181036000830152612d5b81612d1f565b9050919050565b7f45524332305065726d69743a206578706972656420646561646c696e65000000600082015250565b6000612d98601d836123d7565b9150612da382612d62565b602082019050919050565b60006020820190508181036000830152612dc781612d8b565b9050919050565b600060c082019050612de36000830189612654565b612df060208301886126ab565b612dfd60408301876126ab565b612e0a6060830186612596565b612e176080830185612596565b612e2460a0830184612596565b979650505050505050565b7f45524332305065726d69743a20696e76616c6964207369676e61747572650000600082015250565b6000612e65601e836123d7565b9150612e7082612e2f565b602082019050919050565b60006020820190508181036000830152612e9481612e58565b9050919050565b7f4552433230566f7465733a20746f74616c20737570706c79207269736b73206f60008201527f766572666c6f77696e6720766f74657300000000000000000000000000000000602082015250565b6000612ef76030836123d7565b9150612f0282612e9b565b604082019050919050565b60006020820190508181036000830152612f2681612eea565b9050919050565b7f45524332303a206d696e7420746f20746865207a65726f206164647265737300600082015250565b6000612f63601f836123d7565b9150612f6e82612f2d565b602082019050919050565b60006020820190508181036000830152612f9281612f56565b9050919050565b7f53616665436173743a2076616c756520646f65736e27742066697420696e203260008201527f3234206269747300000000000000000000000000000000000000000000000000602082015250565b6000612ff56027836123d7565b915061300082612f99565b604082019050919050565b6000602082019050818103600083015261302481612fe8565b9050919050565b7f53616665436173743a2076616c756520646f65736e27742066697420696e203360008201527f3220626974730000000000000000000000000000000000000000000000000000602082015250565b60006130876026836123d7565b91506130928261302b565b604082019050919050565b600060208201905081810360008301526130b68161307a565b9050919050565b7f45524332303a20617070726f76652066726f6d20746865207a65726f2061646460008201527f7265737300000000000000000000000000000000000000000000000000000000602082015250565b60006131196024836123d7565b9150613124826130bd565b604082019050919050565b600060208201905081810360008301526131488161310c565b9050919050565b7f45524332303a20617070726f766520746f20746865207a65726f20616464726560008201527f7373000000000000000000000000000000000000000000000000000000000000602082015250565b60006131ab6022836123d7565b91506131b68261314f565b604082019050919050565b600060208201905081810360008301526131da8161319e565b9050919050565b7f45524332303a20696e73756666696369656e7420616c6c6f77616e6365000000600082015250565b6000613217601d836123d7565b9150613222826131e1565b602082019050919050565b600060208201905081810360008301526132468161320a565b9050919050565b7f45524332303a207472616e736665722066726f6d20746865207a65726f20616460008201527f6472657373000000000000000000000000000000000000000000000000000000602082015250565b60006132a96025836123d7565b91506132b48261324d565b604082019050919050565b600060208201905081810360008301526132d88161329c565b9050919050565b7f45524332303a207472616e7366657220746f20746865207a65726f206164647260008201527f6573730000000000000000000000000000000000000000000000000000000000602082015250565b600061333b6023836123d7565b9150613346826132df565b604082019050919050565b6000602082019050818103600083015261336a8161332e565b9050919050565b7f45524332303a207472616e7366657220616d6f756e742065786365656473206260008201527f616c616e63650000000000000000000000000000000000000000000000000000602082015250565b60006133cd6026836123d7565b91506133d882613371565b604082019050919050565b600060208201905081810360008301526133fc816133c0565b9050919050565b60006040820190506134186000830185612596565b6134256020830184612596565b9392505050565b600060a0820190506134416000830188612654565b61344e6020830187612654565b61345b6040830186612654565b6134686060830185612596565b61347560808301846126ab565b9695505050505050565b7f4e487b7100000000000000000000000000000000000000000000000000000000600052601260045260246000fd5b60006134b9826124ea565b91506134c4836124ea565b9250826134d4576134d361347f565b5b828204905092915050565b600081905092915050565b7f1901000000000000000000000000000000000000000000000000000000000000600082015250565b60006135206002836134df565b915061352b826134ea565b600282019050919050565b6000819050919050565b61355161354c8261264a565b613536565b82525050565b600061356282613513565b915061356e8285613540565b60208201915061357e8284613540565b6020820191508190509392505050565b60006080820190506135a36000830187612654565b6135b06020830186612620565b6135bd6040830185612654565b6135ca6060830184612654565b95945050505050565b7f4e487b7100000000000000000000000000000000000000000000000000000000600052602160045260246000fd5b7f45434453413a20696e76616c6964207369676e61747572650000000000000000600082015250565b60006136386018836123d7565b915061364382613602565b602082019050919050565b600060208201905081810360008301526136678161362b565b9050919050565b7f45434453413a20696e76616c6964207369676e6174757265206c656e67746800600082015250565b60006136a4601f836123d7565b91506136af8261366e565b602082019050919050565b600060208201905081810360008301526136d381613697565b9050919050565b7f45434453413a20696e76616c6964207369676e6174757265202773272076616c60008201527f7565000000000000000000000000000000000000000000000000000000000000602082015250565b60006137366022836123d7565b9150613741826136da565b604082019050919050565b6000602082019050818103600083015261376581613729565b9050919050565b7f45434453413a20696e76616c6964207369676e6174757265202776272076616c60008201527f7565000000000000000000000000000000000000000000000000000000000000602082015250565b60006137c86022836123d7565b91506137d38261376c565b604082019050919050565b600060208201905081810360008301526137f7816137bb565b905091905056fea2646970667358221220de36f2a5ebd3a7b07aaa6d97285dac8be6e7a0e29279ac9b057b5f2f5a137ac764736f6c634300080d0033",
  "devdoc": {
    "kind": "dev",
    "methods": {
      "DOMAIN_SEPARATOR()": {
        "details": "See {IERC20Permit-DOMAIN_SEPARATOR}."
      },
      "allowance(address,address)": {
        "details": "See {IERC20-allowance}."
      },
      "approve(address,uint256)": {
        "details": "See {IERC20-approve}. NOTE: If `amount` is the maximum `uint256`, the allowance is not updated on `transferFrom`. This is semantically equivalent to an infinite approval. Requirements: - `spender` cannot be the zero address."
      },
      "balanceOf(address)": {
        "details": "See {IERC20-balanceOf}."
      },
      "checkpoints(address,uint32)": {
        "details": "Get the `pos`-th checkpoint for `account`."
      },
      "decimals()": {
        "details": "Returns the number of decimals used to get its user representation. For example, if `decimals` equals `2`, a balance of `505` tokens should be displayed to a user as `5.05` (`505 / 10 ** 2`). Tokens usually opt for a value of 18, imitating the relationship between Ether and Wei. This is the value {ERC20} uses, unless this function is overridden; NOTE: This information is only used for _display_ purposes: it in no way affects any of the arithmetic of the contract, including {IERC20-balanceOf} and {IERC20-transfer}."
      },
      "decreaseAllowance(address,uint256)": {
        "details": "Atomically decreases the allowance granted to `spender` by the caller. This is an alternative to {approve} that can be used as a mitigation for problems described in {IERC20-approve}. Emits an {Approval} event indicating the updated allowance. Requirements: - `spender` cannot be the zero address. - `spender` must have allowance for the caller of at least `subtractedValue`."
      },
      "delegate(address)": {
        "details": "Delegate votes from the sender to `delegatee`."
      },
      "delegateBySig(address,uint256,uint256,uint8,bytes32,bytes32)": {
        "details": "Delegates votes from signer to `delegatee`"
      },
      "delegates(address)": {
        "details": "Get the address `account` is currently delegating to."
      },
      "getPastTotalSupply(uint256)": {
        "details": "Retrieve the `totalSupply` at the end of `blockNumber`. Note, this value is the sum of all balances. It is but NOT the sum of all the delegated votes! Requirements: - `blockNumber` must have been already mined"
      },
      "getPastVotes(address,uint256)": {
        "details": "Retrieve the number of votes for `account` at the end of `blockNumber`. Requirements: - `blockNumber` must have been already mined"
      },
      "getVotes(address)": {
        "details": "Gets the current votes balance for `account`"
      },
      "increaseAllowance(address,uint256)": {
        "details": "Atomically increases the allowance granted to `spender` by the caller. This is an alternative to {approve} that can be used as a mitigation for problems described in {IERC20-approve}. Emits an {Approval} event indicating the updated allowance. Requirements: - `spender` cannot be the zero address."
      },
      "name()": {
        "details": "Returns the name of the token."
      },
      "nonces(address)": {
        "details": "See {IERC20Permit-nonces}."
      },
      "numCheckpoints(address)": {
        "details": "Get number of checkpoints for `account`."
      },
      "permit(address,address,uint256,uint256,uint8,bytes32,bytes32)": {
        "details": "See {IERC20Permit-permit}."
      },
      "symbol()": {
        "details": "Returns the symbol of the token, usually a shorter version of the name."
      },
      "totalSupply()": {
        "details": "See {IERC20-totalSupply}."
      },
      "transfer(address,uint256)": {
        "details": "See {IERC20-transfer}. Requirements: - `to` cannot be the zero address. - the caller must have a balance of at least `amount`."
      },
      "transferFrom(address,address,uint256)": {
        "details": "See {IERC20-transferFrom}. Emits an {Approval} event indicating the updated allowance. This is not required by the EIP. See the note at the beginning of {ERC20}. NOTE: Does not update the allowance if the current allowance is the maximum `uint256`. Requirements: - `from` and `to` cannot be the zero address. - `from` must have a balance of at least `amount`. - the caller must have allowance for ``from``'s tokens of at least `amount`."
      }
    },
    "version": 1
  },
  "userdoc": {
    "kind": "user",
    "methods": {},
    "version": 1
  },
  "storageLayout": {
    "storage": [
      {
        "astId": 93,
        "contract": "src/governance/Zion.sol:Zion",
        "label": "_balances",
        "offset": 0,
        "slot": "0",
        "type": "t_mapping(t_address,t_uint256)"
      },
      {
        "astId": 99,
        "contract": "src/governance/Zion.sol:Zion",
        "label": "_allowances",
        "offset": 0,
        "slot": "1",
        "type": "t_mapping(t_address,t_mapping(t_address,t_uint256))"
      },
      {
        "astId": 101,
        "contract": "src/governance/Zion.sol:Zion",
        "label": "_totalSupply",
        "offset": 0,
        "slot": "2",
        "type": "t_uint256"
      },
      {
        "astId": 103,
        "contract": "src/governance/Zion.sol:Zion",
        "label": "_name",
        "offset": 0,
        "slot": "3",
        "type": "t_string_storage"
      },
      {
        "astId": 105,
        "contract": "src/governance/Zion.sol:Zion",
        "label": "_symbol",
        "offset": 0,
        "slot": "4",
        "type": "t_string_storage"
      },
      {
        "astId": 1428,
        "contract": "src/governance/Zion.sol:Zion",
        "label": "_nonces",
        "offset": 0,
        "slot": "5",
        "type": "t_mapping(t_address,t_struct(Counter)1638_storage)"
      },
      {
        "astId": 769,
        "contract": "src/governance/Zion.sol:Zion",
        "label": "_delegates",
        "offset": 0,
        "slot": "6",
        "type": "t_mapping(t_address,t_address)"
      },
      {
        "astId": 775,
        "contract": "src/governance/Zion.sol:Zion",
        "label": "_checkpoints",
        "offset": 0,
        "slot": "7",
        "type": "t_mapping(t_address,t_array(t_struct(Checkpoint)760_storage)dyn_storage)"
      },
      {
        "astId": 779,
        "contract": "src/governance/Zion.sol:Zion",
        "label": "_totalSupplyCheckpoints",
        "offset": 0,
        "slot": "8",
        "type": "t_array(t_struct(Checkpoint)760_storage)dyn_storage"
      },
      {
        "astId": 2959,
        "contract": "src/governance/Zion.sol:Zion",
        "label": "vTotalSupply",
        "offset": 0,
        "slot": "9",
        "type": "t_uint256"
      }
    ],
    "types": {
      "t_address": {
        "encoding": "inplace",
        "label": "address",
        "numberOfBytes": "20"
      },
      "t_array(t_struct(Checkpoint)760_storage)dyn_storage": {
        "base": "t_struct(Checkpoint)760_storage",
        "encoding": "dynamic_array",
        "label": "struct ERC20Votes.Checkpoint[]",
        "numberOfBytes": "32"
      },
      "t_mapping(t_address,t_address)": {
        "encoding": "mapping",
        "key": "t_address",
        "label": "mapping(address => address)",
        "numberOfBytes": "32",
        "value": "t_address"
      },
      "t_mapping(t_address,t_array(t_struct(Checkpoint)760_storage)dyn_storage)": {
        "encoding": "mapping",
        "key": "t_address",
        "label": "mapping(address => struct ERC20Votes.Checkpoint[])",
        "numberOfBytes": "32",
        "value": "t_array(t_struct(Checkpoint)760_storage)dyn_storage"
      },
      "t_mapping(t_address,t_mapping(t_address,t_uint256))": {
        "encoding": "mapping",
        "key": "t_address",
        "label": "mapping(address => mapping(address => uint256))",
        "numberOfBytes": "32",
        "value": "t_mapping(t_address,t_uint256)"
      },
      "t_mapping(t_address,t_struct(Counter)1638_storage)": {
        "encoding": "mapping",
        "key": "t_address",
        "label": "mapping(address => struct Counters.Counter)",
        "numberOfBytes": "32",
        "value": "t_struct(Counter)1638_storage"
      },
      "t_mapping(t_address,t_uint256)": {
        "encoding": "mapping",
        "key": "t_address",
        "label": "mapping(address => uint256)",
        "numberOfBytes": "32",
        "value": "t_uint256"
      },
      "t_string_storage": {
        "encoding": "bytes",
        "label": "string",
        "numberOfBytes": "32"
      },
      "t_struct(Checkpoint)760_storage": {
        "encoding": "inplace",
        "label": "struct ERC20Votes.Checkpoint",
        "members": [
          {
            "astId": 757,
            "contract": "src/governance/Zion.sol:Zion",
            "label": "fromBlock",
            "offset": 0,
            "slot": "0",
            "type": "t_uint32"
          },
          {
            "astId": 759,
            "contract": "src/governance/Zion.sol:Zion",
            "label": "votes",
            "offset": 4,
            "slot": "0",
            "type": "t_uint224"
          }
        ],
        "numberOfBytes": "32"
      },
      "t_struct(Counter)1638_storage": {
        "encoding": "inplace",
        "label": "struct Counters.Counter",
        "members": [
          {
            "astId": 1637,
            "contract": "src/governance/Zion.sol:Zion",
            "label": "_value",
            "offset": 0,
            "slot": "0",
            "type": "t_uint256"
          }
        ],
        "numberOfBytes": "32"
      },
      "t_uint224": {
        "encoding": "inplace",
        "label": "uint224",
        "numberOfBytes": "28"
      },
      "t_uint256": {
        "encoding": "inplace",
        "label": "uint256",
        "numberOfBytes": "32"
      },
      "t_uint32": {
        "encoding": "inplace",
        "label": "uint32",
        "numberOfBytes": "4"
      }
    }
  }
}