{
  "abi": [
    {
      "inputs": [
        {
          "internalType": "address",
          "name": "_zionTokenAddress",
          "type": "address"
        }
      ],
      "stateMutability": "nonpayable",
      "type": "constructor"
    },
    {
      "inputs": [],
      "name": "claimTokens",
      "outputs": [],
      "stateMutability": "nonpayable",
      "type": "function"
    },
    {
      "inputs": [],
      "name": "claimUnrestrictedTokens",
      "outputs": [],
      "stateMutability": "nonpayable",
      "type": "function"
    },
    {
      "inputs": [],
      "name": "getZionTokenBalance",
      "outputs": [
        {
          "internalType": "uint256",
          "name": "",
          "type": "uint256"
        }
      ],
      "stateMutability": "view",
      "type": "function"
    },
    {
      "inputs": [
        {
          "internalType": "address",
          "name": "_address",
          "type": "address"
        }
      ],
      "name": "hasClaimed",
      "outputs": [
        {
          "internalType": "bool",
          "name": "",
          "type": "bool"
        }
      ],
      "stateMutability": "view",
      "type": "function"
    },
    {
      "inputs": [
        {
          "internalType": "address",
          "name": "_address",
          "type": "address"
        }
      ],
      "name": "isEligible",
      "outputs": [
        {
          "internalType": "bool",
          "name": "",
          "type": "bool"
        }
      ],
      "stateMutability": "view",
      "type": "function"
    }
  ],
  "bytecode": {
    "object": "0x608060405234801561001057600080fd5b5060405161070a38038061070a83398101604081905261002f91610115565b6100786040518060400160405280601881526020017f4465706c6f79696e672074686520636c61696d20706f6f6c0000000000000000815250826100a760201b61033f1760201c565b600180546001600160a01b039092166001600160a01b03199283168117909155600280549092161790556101ab565b6100f082826040516024016100bd929190610145565b60408051601f198184030181529190526020810180516001600160e01b0390811663319af33360e01b179091526100f416565b5050565b80516a636f6e736f6c652e6c6f67602083016000808483855afa5050505050565b60006020828403121561012757600080fd5b81516001600160a01b038116811461013e57600080fd5b9392505050565b604081526000835180604084015260005b818110156101735760208187018101516060868401015201610156565b81811115610185576000606083860101525b506001600160a01b0393909316602083015250601f91909101601f191601606001919050565b610550806101ba6000396000f3fe608060405234801561001057600080fd5b50600436106100575760003560e01c80633007d01c1461005c57806348c54b9d1461006657806366e305fd1461006e57806373b2e80e14610096578063d66ef8ab146100a9575b600080fd5b6100646100b8565b005b6100646101e2565b61008161007c3660046103f1565b610275565b60405190151581526020015b60405180910390f35b6100816100a43660046103f1565b6102d5565b6040516011815260200161008d565b6100f76040518060400160405280601c81526020017f436c61696d696e67205a494f4e20746f6b656e732066726f6d202573000000008152503361033f565b336000818152600360205260408120805460ff191660011790556101246005670de0b6b3a7640000610421565b60025460405163a9059cbb60e01b81526001600160a01b0385811660048301526024820184905292935091169063a9059cbb906044016020604051808303816000875af1158015610179573d6000803e3d6000fd5b505050506040513d601f19601f8201168201806040525081019061019d919061044e565b506101de6040518060400160405280601e81526020017f436c61696d6564202573205a494f4e20746f6b656e732066726f6d20257300008152508233610384565b5050565b6102216040518060400160405280601c81526020017f436c61696d696e67205a494f4e20746f6b656e732066726f6d202573000000008152503361033f565b331580159061024057503360009081526003602052604090205460ff16155b1561027357336000818152600360205260408120805460ff191660011790556101246101f4670de0b6b3a7640000610421565b565b60006102b66040518060400160405280601781526020017f436865636b696e6720656c69676962696c697479206f660000000000000000008152508361033f565b6001600160a01b038216156102cd57506001919050565b506000919050565b60006103166040518060400160405280601f81526020017f436865636b696e6720696620616464726573732068617320636c61696d6564008152508361033f565b6001600160a01b03821660009081526003602052604090205460ff16156102cd57506001919050565b6101de82826040516024016103559291906104bd565b60408051601f198184030181529190526020810180516001600160e01b031663319af33360e01b1790526103d0565b6103cb83838360405160240161039c939291906104e7565b60408051601f198184030181529190526020810180516001600160e01b031663e3849f7960e01b1790526103d0565b505050565b80516a636f6e736f6c652e6c6f67602083016000808483855afa5050505050565b60006020828403121561040357600080fd5b81356001600160a01b038116811461041a57600080fd5b9392505050565b600081600019048311821515161561044957634e487b7160e01b600052601160045260246000fd5b500290565b60006020828403121561046057600080fd5b8151801515811461041a57600080fd5b6000815180845260005b818110156104965760208185018101518683018201520161047a565b818111156104a8576000602083870101525b50601f01601f19169290920160200192915050565b6040815260006104d06040830185610470565b905060018060a01b03831660208301529392505050565b6060815260006104fa6060830186610470565b6020830194909452506001600160a01b039190911660409091015291905056fea2646970667358221220d3bd454f147111ca535736faeee53c9453800e7405f447a85569c4c9ea85951664736f6c634300080f0033",
    "linkReferences": {}
  },
  "methodIdentifiers": {
    "claimTokens()": "48c54b9d",
    "claimUnrestrictedTokens()": "3007d01c",
    "getZionTokenBalance()": "d66ef8ab",
    "hasClaimed(address)": "73b2e80e",
    "isEligible(address)": "66e305fd"
  },
  "id": 2
}