{"abi":[{"type":"function","name":"__ERC721A_init","inputs":[{"name":"name_","type":"string","internalType":"string"},{"name":"symbol_","type":"string","internalType":"string"}],"outputs":[],"stateMutability":"nonpayable"},{"type":"function","name":"__EntitlementGated_init","inputs":[{"name":"entitlementChecker","type":"address","internalType":"contract IEntitlementChecker"}],"outputs":[],"stateMutability":"nonpayable"},{"type":"function","name":"__Membership_init","inputs":[{"name":"info","type":"tuple","internalType":"struct IMembershipBase.Membership","components":[{"name":"name","type":"string","internalType":"string"},{"name":"symbol","type":"string","internalType":"string"},{"name":"price","type":"uint256","internalType":"uint256"},{"name":"maxSupply","type":"uint256","internalType":"uint256"},{"name":"duration","type":"uint64","internalType":"uint64"},{"name":"currency","type":"address","internalType":"address"},{"name":"feeRecipient","type":"address","internalType":"address"},{"name":"freeAllocation","type":"uint256","internalType":"uint256"},{"name":"pricingModule","type":"address","internalType":"address"}]},{"name":"spaceFactory","type":"address","internalType":"address"}],"outputs":[],"stateMutability":"nonpayable"},{"type":"function","name":"_getMembershipCurrency","inputs":[],"outputs":[{"name":"","type":"address","internalType":"address"}],"stateMutability":"view"},{"type":"function","name":"_getMembershipFreeAllocation","inputs":[],"outputs":[{"name":"","type":"uint256","internalType":"uint256"}],"stateMutability":"view"},{"type":"function","name":"_getMembershipImage","inputs":[],"outputs":[{"name":"","type":"string","internalType":"string"}],"stateMutability":"view"},{"type":"function","name":"_getMembershipPrice","inputs":[{"name":"totalSupply","type":"uint256","internalType":"uint256"}],"outputs":[{"name":"","type":"uint256","internalType":"uint256"}],"stateMutability":"view"},{"type":"function","name":"_getMembershipSupplyLimit","inputs":[],"outputs":[{"name":"","type":"uint256","internalType":"uint256"}],"stateMutability":"view"},{"type":"function","name":"_getPricingModule","inputs":[],"outputs":[{"name":"","type":"address","internalType":"address"}],"stateMutability":"view"},{"type":"function","name":"_getSpaceFactory","inputs":[],"outputs":[{"name":"","type":"address","internalType":"address"}],"stateMutability":"view"},{"type":"function","name":"_setMembershipFreeAllocation","inputs":[{"name":"newAllocation","type":"uint256","internalType":"uint256"}],"outputs":[],"stateMutability":"nonpayable"},{"type":"function","name":"_setMembershipSupplyLimit","inputs":[{"name":"newLimit","type":"uint256","internalType":"uint256"}],"outputs":[],"stateMutability":"nonpayable"},{"type":"function","name":"_setPricingModule","inputs":[{"name":"newPricingModule","type":"address","internalType":"address"}],"outputs":[],"stateMutability":"nonpayable"},{"type":"function","name":"approve","inputs":[{"name":"to","type":"address","internalType":"address"},{"name":"tokenId","type":"uint256","internalType":"uint256"}],"outputs":[],"stateMutability":"payable"},{"type":"function","name":"balanceOf","inputs":[{"name":"owner","type":"address","internalType":"address"}],"outputs":[{"name":"","type":"uint256","internalType":"uint256"}],"stateMutability":"view"},{"type":"function","name":"expiresAt","inputs":[{"name":"tokenId","type":"uint256","internalType":"uint256"}],"outputs":[{"name":"","type":"uint256","internalType":"uint256"}],"stateMutability":"view"},{"type":"function","name":"getApproved","inputs":[{"name":"tokenId","type":"uint256","internalType":"uint256"}],"outputs":[{"name":"","type":"address","internalType":"address"}],"stateMutability":"view"},{"type":"function","name":"getMembershipCurrency","inputs":[],"outputs":[{"name":"","type":"address","internalType":"address"}],"stateMutability":"view"},{"type":"function","name":"getMembershipDuration","inputs":[],"outputs":[{"name":"","type":"uint64","internalType":"uint64"}],"stateMutability":"view"},{"type":"function","name":"getMembershipFreeAllocation","inputs":[],"outputs":[{"name":"","type":"uint256","internalType":"uint256"}],"stateMutability":"view"},{"type":"function","name":"getMembershipImage","inputs":[],"outputs":[{"name":"","type":"string","internalType":"string"}],"stateMutability":"view"},{"type":"function","name":"getMembershipLimit","inputs":[],"outputs":[{"name":"","type":"uint256","internalType":"uint256"}],"stateMutability":"view"},{"type":"function","name":"getMembershipPrice","inputs":[],"outputs":[{"name":"","type":"uint256","internalType":"uint256"}],"stateMutability":"view"},{"type":"function","name":"getMembershipPricingModule","inputs":[],"outputs":[{"name":"","type":"address","internalType":"address"}],"stateMutability":"view"},{"type":"function","name":"getMembershipRenewalPrice","inputs":[{"name":"tokenId","type":"uint256","internalType":"uint256"}],"outputs":[{"name":"","type":"uint256","internalType":"uint256"}],"stateMutability":"view"},{"type":"function","name":"getRuleData","inputs":[{"name":"transactionId","type":"bytes32","internalType":"bytes32"}],"outputs":[{"name":"","type":"tuple","internalType":"struct IRuleEntitlement.RuleData","components":[{"name":"operations","type":"tuple[]","internalType":"struct IRuleEntitlement.Operation[]","components":[{"name":"opType","type":"uint8","internalType":"enum IRuleEntitlement.CombinedOperationType"},{"name":"index","type":"uint8","internalType":"uint8"}]},{"name":"checkOperations","type":"tuple[]","internalType":"struct IRuleEntitlement.CheckOperation[]","components":[{"name":"opType","type":"uint8","internalType":"enum IRuleEntitlement.CheckOperationType"},{"name":"chainId","type":"uint256","internalType":"uint256"},{"name":"contractAddress","type":"address","internalType":"address"},{"name":"threshold","type":"uint256","internalType":"uint256"}]},{"name":"logicalOperations","type":"tuple[]","internalType":"struct IRuleEntitlement.LogicalOperation[]","components":[{"name":"logOpType","type":"uint8","internalType":"enum IRuleEntitlement.LogicalOperationType"},{"name":"leftOperationIndex","type":"uint8","internalType":"uint8"},{"name":"rightOperationIndex","type":"uint8","internalType":"uint8"}]}]}],"stateMutability":"view"},{"type":"function","name":"getSpaceFactory","inputs":[],"outputs":[{"name":"","type":"address","internalType":"address"}],"stateMutability":"view"},{"type":"function","name":"isApprovedForAll","inputs":[{"name":"owner","type":"address","internalType":"address"},{"name":"operator","type":"address","internalType":"address"}],"outputs":[{"name":"","type":"bool","internalType":"bool"}],"stateMutability":"view"},{"type":"function","name":"joinSpace","inputs":[{"name":"receiver","type":"address","internalType":"address"}],"outputs":[],"stateMutability":"payable"},{"type":"function","name":"joinSpaceWithReferral","inputs":[{"name":"receiver","type":"address","internalType":"address"},{"name":"referrer","type":"address","internalType":"address"},{"name":"referralCode","type":"uint256","internalType":"uint256"}],"outputs":[],"stateMutability":"payable"},{"type":"function","name":"name","inputs":[],"outputs":[{"name":"","type":"string","internalType":"string"}],"stateMutability":"view"},{"type":"function","name":"ownerOf","inputs":[{"name":"tokenId","type":"uint256","internalType":"uint256"}],"outputs":[{"name":"","type":"address","internalType":"address"}],"stateMutability":"view"},{"type":"function","name":"postEntitlementCheckResult","inputs":[{"name":"transactionId","type":"bytes32","internalType":"bytes32"},{"name":"result","type":"uint8","internalType":"enum IEntitlementGatedBase.NodeVoteStatus"}],"outputs":[],"stateMutability":"nonpayable"},{"type":"function","name":"renewMembership","inputs":[{"name":"tokenId","type":"uint256","internalType":"uint256"}],"outputs":[],"stateMutability":"payable"},{"type":"function","name":"safeTransferFrom","inputs":[{"name":"from","type":"address","internalType":"address"},{"name":"to","type":"address","internalType":"address"},{"name":"tokenId","type":"uint256","internalType":"uint256"}],"outputs":[],"stateMutability":"payable"},{"type":"function","name":"safeTransferFrom","inputs":[{"name":"from","type":"address","internalType":"address"},{"name":"to","type":"address","internalType":"address"},{"name":"tokenId","type":"uint256","internalType":"uint256"},{"name":"_data","type":"bytes","internalType":"bytes"}],"outputs":[],"stateMutability":"payable"},{"type":"function","name":"setApprovalForAll","inputs":[{"name":"operator","type":"address","internalType":"address"},{"name":"approved","type":"bool","internalType":"bool"}],"outputs":[],"stateMutability":"nonpayable"},{"type":"function","name":"setMembershipFreeAllocation","inputs":[{"name":"newAllocation","type":"uint256","internalType":"uint256"}],"outputs":[],"stateMutability":"nonpayable"},{"type":"function","name":"setMembershipImage","inputs":[{"name":"newImage","type":"string","internalType":"string"}],"outputs":[],"stateMutability":"nonpayable"},{"type":"function","name":"setMembershipLimit","inputs":[{"name":"newLimit","type":"uint256","internalType":"uint256"}],"outputs":[],"stateMutability":"nonpayable"},{"type":"function","name":"setMembershipPrice","inputs":[{"name":"newPrice","type":"uint256","internalType":"uint256"}],"outputs":[],"stateMutability":"nonpayable"},{"type":"function","name":"setMembershipPricingModule","inputs":[{"name":"pricingModule","type":"address","internalType":"address"}],"outputs":[],"stateMutability":"nonpayable"},{"type":"function","name":"symbol","inputs":[],"outputs":[{"name":"","type":"string","internalType":"string"}],"stateMutability":"view"},{"type":"function","name":"tokenURI","inputs":[{"name":"tokenId","type":"uint256","internalType":"uint256"}],"outputs":[{"name":"","type":"string","internalType":"string"}],"stateMutability":"view"},{"type":"function","name":"totalSupply","inputs":[],"outputs":[{"name":"","type":"uint256","internalType":"uint256"}],"stateMutability":"view"},{"type":"function","name":"transferFrom","inputs":[{"name":"from","type":"address","internalType":"address"},{"name":"to","type":"address","internalType":"address"},{"name":"tokenId","type":"uint256","internalType":"uint256"}],"outputs":[],"stateMutability":"payable"},{"type":"function","name":"withdraw","inputs":[{"name":"account","type":"address","internalType":"address"}],"outputs":[],"stateMutability":"nonpayable"},{"type":"event","name":"Approval","inputs":[{"name":"owner","type":"address","indexed":true,"internalType":"address"},{"name":"approved","type":"address","indexed":true,"internalType":"address"},{"name":"tokenId","type":"uint256","indexed":true,"internalType":"uint256"}],"anonymous":false},{"type":"event","name":"ApprovalForAll","inputs":[{"name":"owner","type":"address","indexed":true,"internalType":"address"},{"name":"operator","type":"address","indexed":true,"internalType":"address"},{"name":"approved","type":"bool","indexed":false,"internalType":"bool"}],"anonymous":false},{"type":"event","name":"Banned","inputs":[{"name":"moderator","type":"address","indexed":true,"internalType":"address"},{"name":"tokenId","type":"uint256","indexed":true,"internalType":"uint256"}],"anonymous":false},{"type":"event","name":"ConsecutiveTransfer","inputs":[{"name":"fromTokenId","type":"uint256","indexed":true,"internalType":"uint256"},{"name":"toTokenId","type":"uint256","indexed":false,"internalType":"uint256"},{"name":"from","type":"address","indexed":true,"internalType":"address"},{"name":"to","type":"address","indexed":true,"internalType":"address"}],"anonymous":false},{"type":"event","name":"EntitlementCheckResultPosted","inputs":[{"name":"transactionId","type":"bytes32","indexed":true,"internalType":"bytes32"},{"name":"result","type":"uint8","indexed":false,"internalType":"enum IEntitlementGatedBase.NodeVoteStatus"}],"anonymous":false},{"type":"event","name":"Initialized","inputs":[{"name":"version","type":"uint32","indexed":false,"internalType":"uint32"}],"anonymous":false},{"type":"event","name":"InterfaceAdded","inputs":[{"name":"interfaceId","type":"bytes4","indexed":true,"internalType":"bytes4"}],"anonymous":false},{"type":"event","name":"InterfaceRemoved","inputs":[{"name":"interfaceId","type":"bytes4","indexed":true,"internalType":"bytes4"}],"anonymous":false},{"type":"event","name":"MembershipCurrencyUpdated","inputs":[{"name":"currency","type":"address","indexed":true,"internalType":"address"}],"anonymous":false},{"type":"event","name":"MembershipFeeRecipientUpdated","inputs":[{"name":"recipient","type":"address","indexed":true,"internalType":"address"}],"anonymous":false},{"type":"event","name":"MembershipFreeAllocationUpdated","inputs":[{"name":"allocation","type":"uint256","indexed":true,"internalType":"uint256"}],"anonymous":false},{"type":"event","name":"MembershipLimitUpdated","inputs":[{"name":"limit","type":"uint256","indexed":true,"internalType":"uint256"}],"anonymous":false},{"type":"event","name":"MembershipPriceUpdated","inputs":[{"name":"price","type":"uint256","indexed":true,"internalType":"uint256"}],"anonymous":false},{"type":"event","name":"MembershipTokenIssued","inputs":[{"name":"recipient","type":"address","indexed":true,"internalType":"address"},{"name":"tokenId","type":"uint256","indexed":true,"internalType":"uint256"}],"anonymous":false},{"type":"event","name":"MembershipTokenRejected","inputs":[{"name":"recipient","type":"address","indexed":true,"internalType":"address"}],"anonymous":false},{"type":"event","name":"MembershipWithdrawal","inputs":[{"name":"recipient","type":"address","indexed":true,"internalType":"address"},{"name":"amount","type":"uint256","indexed":false,"internalType":"uint256"}],"anonymous":false},{"type":"event","name":"Membership__ReferralCreated","inputs":[{"name":"code","type":"uint256","indexed":true,"internalType":"uint256"},{"name":"bps","type":"uint16","indexed":false,"internalType":"uint16"}],"anonymous":false},{"type":"event","name":"Membership__ReferralRemoved","inputs":[{"name":"code","type":"uint256","indexed":true,"internalType":"uint256"}],"anonymous":false},{"type":"event","name":"Membership__ReferralTimeCreated","inputs":[{"name":"code","type":"uint256","indexed":true,"internalType":"uint256"},{"name":"bps","type":"uint16","indexed":false,"internalType":"uint16"},{"name":"startTime","type":"uint256","indexed":false,"internalType":"uint256"},{"name":"endTime","type":"uint256","indexed":false,"internalType":"uint256"}],"anonymous":false},{"type":"event","name":"OwnershipTransferred","inputs":[{"name":"previousOwner","type":"address","indexed":true,"internalType":"address"},{"name":"newOwner","type":"address","indexed":true,"internalType":"address"}],"anonymous":false},{"type":"event","name":"Paused","inputs":[{"name":"account","type":"address","indexed":false,"internalType":"address"}],"anonymous":false},{"type":"event","name":"RoleCreated","inputs":[{"name":"creator","type":"address","indexed":true,"internalType":"address"},{"name":"roleId","type":"uint256","indexed":true,"internalType":"uint256"}],"anonymous":false},{"type":"event","name":"RoleRemoved","inputs":[{"name":"remover","type":"address","indexed":true,"internalType":"address"},{"name":"roleId","type":"uint256","indexed":true,"internalType":"uint256"}],"anonymous":false},{"type":"event","name":"RoleUpdated","inputs":[{"name":"updater","type":"address","indexed":true,"internalType":"address"},{"name":"roleId","type":"uint256","indexed":true,"internalType":"uint256"}],"anonymous":false},{"type":"event","name":"SubscriptionUpdate","inputs":[{"name":"tokenId","type":"uint256","indexed":true,"internalType":"uint256"},{"name":"expiration","type":"uint64","indexed":false,"internalType":"uint64"}],"anonymous":false},{"type":"event","name":"Transfer","inputs":[{"name":"from","type":"address","indexed":true,"internalType":"address"},{"name":"to","type":"address","indexed":true,"internalType":"address"},{"name":"tokenId","type":"uint256","indexed":true,"internalType":"uint256"}],"anonymous":false},{"type":"event","name":"Unbanned","inputs":[{"name":"moderator","type":"address","indexed":true,"internalType":"address"},{"name":"tokenId","type":"uint256","indexed":true,"internalType":"uint256"}],"anonymous":false},{"type":"event","name":"Unpaused","inputs":[{"name":"account","type":"address","indexed":false,"internalType":"address"}],"anonymous":false},{"type":"error","name":"AddressEmptyCode","inputs":[{"name":"target","type":"address","internalType":"address"}]},{"type":"error","name":"AddressInsufficientBalance","inputs":[{"name":"account","type":"address","internalType":"address"}]},{"type":"error","name":"ApprovalCallerNotOwnerNorApproved","inputs":[]},{"type":"error","name":"ApprovalQueryForNonexistentToken","inputs":[]},{"type":"error","name":"BalanceQueryForZeroAddress","inputs":[]},{"type":"error","name":"Banning__AlreadyBanned","inputs":[{"name":"tokenId","type":"uint256","internalType":"uint256"}]},{"type":"error","name":"Banning__CannotBanSelf","inputs":[]},{"type":"error","name":"Banning__InvalidTokenId","inputs":[{"name":"tokenId","type":"uint256","internalType":"uint256"}]},{"type":"error","name":"Banning__NotBanned","inputs":[{"name":"tokenId","type":"uint256","internalType":"uint256"}]},{"type":"error","name":"Dispatcher__InvalidCaller","inputs":[]},{"type":"error","name":"Dispatcher__InvalidValue","inputs":[]},{"type":"error","name":"ERC5643__DurationZero","inputs":[]},{"type":"error","name":"ERC5643__InvalidTokenId","inputs":[{"name":"tokenId","type":"uint256","internalType":"uint256"}]},{"type":"error","name":"ERC5643__NotApprovedOrOwner","inputs":[]},{"type":"error","name":"ERC5643__SubscriptionNotRenewable","inputs":[{"name":"tokenId","type":"uint256","internalType":"uint256"}]},{"type":"error","name":"EntitlementGated_InvalidAddress","inputs":[]},{"type":"error","name":"EntitlementGated_NodeAlreadyVoted","inputs":[]},{"type":"error","name":"EntitlementGated_NodeNotFound","inputs":[]},{"type":"error","name":"EntitlementGated_TransactionAlreadyCompleted","inputs":[]},{"type":"error","name":"EntitlementGated_TransactionAlreadyRegistered","inputs":[]},{"type":"error","name":"EntitlementGated_TransactionNotRegistered","inputs":[]},{"type":"error","name":"Entitlement__InvalidValue","inputs":[]},{"type":"error","name":"Entitlement__NotAllowed","inputs":[]},{"type":"error","name":"Entitlement__NotMember","inputs":[]},{"type":"error","name":"Entitlement__ValueAlreadyExists","inputs":[]},{"type":"error","name":"FailedInnerCall","inputs":[]},{"type":"error","name":"Initializable_InInitializingState","inputs":[]},{"type":"error","name":"Initializable_NotInInitializingState","inputs":[]},{"type":"error","name":"Introspection_AlreadySupported","inputs":[]},{"type":"error","name":"Introspection_NotSupported","inputs":[]},{"type":"error","name":"Membership__AlreadyMember","inputs":[]},{"type":"error","name":"Membership__InsufficientAllowance","inputs":[]},{"type":"error","name":"Membership__InsufficientPayment","inputs":[]},{"type":"error","name":"Membership__InvalidAddress","inputs":[]},{"type":"error","name":"Membership__InvalidCurrency","inputs":[]},{"type":"error","name":"Membership__InvalidDuration","inputs":[]},{"type":"error","name":"Membership__InvalidFeeRecipient","inputs":[]},{"type":"error","name":"Membership__InvalidFreeAllocation","inputs":[]},{"type":"error","name":"Membership__InvalidLimit","inputs":[]},{"type":"error","name":"Membership__InvalidMaxSupply","inputs":[]},{"type":"error","name":"Membership__InvalidPrice","inputs":[]},{"type":"error","name":"Membership__InvalidPricingModule","inputs":[]},{"type":"error","name":"Membership__InvalidReferralBps","inputs":[]},{"type":"error","name":"Membership__InvalidReferralCode","inputs":[]},{"type":"error","name":"Membership__InvalidReferralTime","inputs":[]},{"type":"error","name":"Membership__InvalidTokenId","inputs":[]},{"type":"error","name":"Membership__MaxSupplyReached","inputs":[]},{"type":"error","name":"Membership__NotExpired","inputs":[]},{"type":"error","name":"Membership__PriceTooLow","inputs":[]},{"type":"error","name":"MintERC2309QuantityExceedsLimit","inputs":[]},{"type":"error","name":"MintToZeroAddress","inputs":[]},{"type":"error","name":"MintZeroQuantity","inputs":[]},{"type":"error","name":"Ownable__NotOwner","inputs":[{"name":"account","type":"address","internalType":"address"}]},{"type":"error","name":"Ownable__ZeroAddress","inputs":[]},{"type":"error","name":"OwnerQueryForNonexistentToken","inputs":[]},{"type":"error","name":"OwnershipNotInitializedForExtraData","inputs":[]},{"type":"error","name":"Pausable__NotPaused","inputs":[]},{"type":"error","name":"Pausable__Paused","inputs":[]},{"type":"error","name":"ReentrancyGuard__ReentrantCall","inputs":[]},{"type":"error","name":"Roles__EntitlementAlreadyExists","inputs":[]},{"type":"error","name":"Roles__EntitlementDoesNotExist","inputs":[]},{"type":"error","name":"Roles__InvalidEntitlementAddress","inputs":[]},{"type":"error","name":"Roles__InvalidPermission","inputs":[]},{"type":"error","name":"Roles__PermissionAlreadyExists","inputs":[]},{"type":"error","name":"Roles__PermissionDoesNotExist","inputs":[]},{"type":"error","name":"Roles__RoleDoesNotExist","inputs":[]},{"type":"error","name":"SafeERC20FailedOperation","inputs":[{"name":"token","type":"address","internalType":"address"}]},{"type":"error","name":"TransferCallerNotOwnerNorApproved","inputs":[]},{"type":"error","name":"TransferFromIncorrectOwner","inputs":[]},{"type":"error","name":"TransferToNonERC721ReceiverImplementer","inputs":[]},{"type":"error","name":"TransferToZeroAddress","inputs":[]},{"type":"error","name":"URIQueryForNonexistentToken","inputs":[]}],"bytecode":{"object":"0x60806040523480156200001157600080fd5b506200001c62000022565b620000ca565b7f59b501c3653afc186af7d48dda36cf6732bd21629a6295693664240a6ef520008054640100000000900460ff16156200006f576040516366008a2d60e01b815260040160405180910390fd5b805463ffffffff9081161015620000c757805463ffffffff191663ffffffff90811782556040519081527fe9c9b456cb2994b80aeef036cf59d26e9617df80f816a6ee5a5b4166e07e2f5c9060200160405180910390a15b50565b61524680620000da6000396000f3fe6080604052600436106102885760003560e01c806379dda5851161015a578063ac7ee626116100c1578063d33d93451161007a578063d33d934514610745578063df9a9fe61461075a578063e847abdd1461077a578063e985e9c51461078f578063f4efb0bb146107bf578063f9d5d22c146107df57600080fd5b8063ac7ee626146106b5578063b3a5be6d146106ca578063b88d4fde146106df578063c87b56dd146106f2578063c9f7c83314610712578063d2f01f191461072557600080fd5b80638c625b06116101135780638c625b061461062357806393b13cb71461063657806395d600c81461064b57806395d89b411461066057806397fb7c1e14610675578063a22cb4651461069557600080fd5b806379dda5851461056c5780637adc9cbe146105815780637c9669ac146105a15780638120f0ba146105b45780638934207f146105e15780638a59b1b4146105f657600080fd5b806351cff8d9116101fe57806369d9346b116101b757806369d9346b146104cd57806370251563146104ed578063706b8e091461050257806370a082311461051757806373fc5a051461053757806377460cd31461055757600080fd5b806351cff8d9146104185780635803909f146104385780635becd24a146104585780636352211e14610478578063657e45e81461049857806369d5f38a146104ad57600080fd5b806317c957091161025057806317c957091461034857806318160ddd1461039d57806323b872dd146103b25780633ded10de146103c557806342842e0e146103e55780634c2abfbe146103f857600080fd5b806306fdde031461028d578063081812fc146102b8578063095ea7b3146102f05780630ef1be5f146103055780631278076a14610325575b600080fd5b34801561029957600080fd5b506102a26107ff565b6040516102af91906142ee565b60405180910390f35b3480156102c457600080fd5b506102d86102d3366004614301565b61089a565b6040516001600160a01b0390911681526020016102af565b6103036102fe36600461433f565b6108ab565b005b34801561031157600080fd5b5061030361032036600461436b565b6108bb565b34801561033157600080fd5b5061033a61093a565b6040519081526020016102af565b34801561035457600080fd5b5061033a610363366004614301565b60009081527f4775a23600034fdd9f073b224f794d51a58b35ba663a9602623ba7a5c09cce0060205260409020546001600160401b031690565b3480156103a957600080fd5b5061033a61094c565b6103036103c03660046143dc565b610956565b3480156103d157600080fd5b5061033a6103e0366004614301565b610b4d565b6103036103f33660046143dc565b610cdc565b34801561040457600080fd5b50610303610413366004614589565b610cfc565b34801561042457600080fd5b50610303610433366004614692565b610d60565b34801561044457600080fd5b5061033a610453366004614301565b610e02565b34801561046457600080fd5b50610303610473366004614301565b610e15565b34801561048457600080fd5b506102d8610493366004614301565b610e9a565b3480156104a457600080fd5b506102d8610ea5565b3480156104b957600080fd5b506103036104c8366004614301565b610eaf565b3480156104d957600080fd5b506103036104e8366004614692565b610f5d565b3480156104f957600080fd5b506102d8610f8a565b34801561050e57600080fd5b5061033a610fa6565b34801561052357600080fd5b5061033a610532366004614692565b610fb0565b34801561054357600080fd5b50610303610552366004614301565b610fbb565b34801561056357600080fd5b506102d8610fcb565b34801561057857600080fd5b506102d8610fe7565b34801561058d57600080fd5b5061030361059c366004614692565b610ff1565b6103036105af366004614301565b611035565b3480156105c057600080fd5b506105c9611192565b6040516001600160401b0390911681526020016102af565b3480156105ed57600080fd5b5061033a61119c565b34801561060257600080fd5b50610616610611366004614301565b6111af565b6040516102af91906147a0565b610303610631366004614692565b6111dc565b34801561064257600080fd5b506102a26115ee565b34801561065757600080fd5b5061033a6115f8565b34801561066c57600080fd5b506102a2611602565b34801561068157600080fd5b50610303610690366004614301565b61161a565b3480156106a157600080fd5b506103036106b0366004614847565b61166f565b3480156106c157600080fd5b506102d86116ec565b3480156106d657600080fd5b5061033a611708565b6103036106ed366004614880565b6117a7565b3480156106fe57600080fd5b506102a261070d366004614301565b6117f1565b6103036107203660046143dc565b611882565b34801561073157600080fd5b506103036107403660046148ff565b61199c565b34801561075157600080fd5b506102a26119de565b34801561076657600080fd5b50610303610775366004614692565b6119f6565b34801561078657600080fd5b506102d8611a43565b34801561079b57600080fd5b506107af6107aa366004614962565b611a4d565b60405190151581526020016102af565b3480156107cb57600080fd5b506103036107da36600461499d565b611a59565b3480156107eb57600080fd5b506103036107fa366004614301565b611ac1565b6060610809611b04565b6002018054610817906149c2565b80601f0160208091040260200160405190810160405280929190818152602001828054610843906149c2565b80156108905780601f1061086557610100808354040283529160200191610890565b820191906000526020600020905b81548152906001019060200180831161087357829003601f168201915b5050505050905090565b60006108a582611b28565b92915050565b6108b782826001611b75565b5050565b6108c3611c2a565b6001600160a01b0316336001600160a01b0316146108fb576040516365f4906560e01b81523360048201526024015b60405180910390fd5b6108b782828080601f016020809104026020016040519081016040528093929190818152602001838380828437600092019190915250611cf492505050565b60006109476103e0611d0b565b905090565b6000610947611d0b565b600061096182611d2a565b9050836001600160a01b0316816001600160a01b0316146109945760405162a1148160e81b815260040160405180910390fd5b6000806109a084611dc5565b915091506109c581876109b03390565b6001600160a01b039081169116811491141790565b6109f0576109d38633611a4d565b6109f057604051632ce44b5f60e11b815260040160405180910390fd5b6001600160a01b038516610a1757604051633a954ecd60e21b815260040160405180910390fd5b8015610a2257600082555b610a2a611b04565b6001600160a01b0387166000908152600591909101602052604090208054600019019055610a56611b04565b6001600160a01b03861660008181526005929092016020526040909120805460010190554260a01b17600160e11b17610a8d611b04565b60008681526004919091016020526040812091909155600160e11b84169003610b035760018401610abc611b04565b600082815260049190910160205260408120549003610b0157610add611b04565b548114610b015783610aed611b04565b600083815260049190910160205260409020555b505b83856001600160a01b0316876001600160a01b03167fddf252ad1be2c89b69c2b068fc378daa952ba7f163c4a11628f55a4df523b3ef60405160405180910390a45b505050505050565b600080610b58611ded565b90506000610b64611708565b905083811115610b78575060009392505050565b6006820154604051639262b1b360e01b815230600482015285916001600160a01b031690639262b1b390602401602060405180830381865afa158015610bc2573d6000803e3d6000fd5b505050506040513d601f19601f82011682018060405250810190610be691906149f6565b1115610bf6575060009392505050565b60088201546001600160a01b031615610c87576008820154604051635cf4ee9160e01b815260048101839052602481018690526001600160a01b0390911690635cf4ee9190604401602060405180830381865afa158015610c5b573d6000803e3d6000fd5b505050506040513d601f19601f82011682018060405250810190610c7f91906149f6565b949350505050565b8160060160009054906101000a90046001600160a01b03166001600160a01b0316630eac306d6040518163ffffffff1660e01b8152600401602060405180830381865afa158015610c5b573d6000803e3d6000fd5b610cf7838383604051806020016040528060008152506117a7565b505050565b60008051602061520683398151915254640100000000900460ff16610d3457604051630ef4733760e31b815260040160405180910390fd5b610d4463421fb7a760e01b611e11565b610d4e8282611eef565b6108b782600001518360200151612012565b610d68611c2a565b6001600160a01b0316336001600160a01b031614610d9b576040516365f4906560e01b81523360048201526024016108f2565b6001600160a01b038116610dc257604051635fbd571760e01b815260040160405180910390fd5b6000610dcc612074565b905080600003610def57604051635894b54560e11b815260040160405180910390fd5b6108b7610dfa610f8a565b308484612087565b60006108a582610e10611d0b565b6120cd565b610e1d611c2a565b6001600160a01b0316336001600160a01b031614610e50576040516365f4906560e01b81523360048201526024016108f2565b6000610e5a61119c565b90508015801590610e6a57508082115b15610e885760405163c3983b9160e01b815260040160405180910390fd5b610e9182612113565b6108b782611ac1565b60006108a582611d2a565b6000610947610f8a565b610eb7611c2a565b6001600160a01b0316336001600160a01b031614610eea576040516365f4906560e01b81523360048201526024016108f2565b610ef3816121b8565b610efb6116ec565b6001600160a01b03166391b7f5ed826040518263ffffffff1660e01b8152600401610f2891815260200190565b600060405180830381600087803b158015610f4257600080fd5b505af1158015610f56573d6000803e3d6000fd5b5050505050565b80610f66611ded565b60080180546001600160a01b0319166001600160a01b039290921691909117905550565b6000610f94611ded565b600401546001600160a01b0316919050565b6000610947611708565b60006108a582612246565b80610fc4611ded565b6003015550565b6000610fd5611ded565b600601546001600160a01b0316919050565b6000610947610fcb565b60008051602061520683398151915254640100000000900460ff1661102957604051630ef4733760e31b815260040160405180910390fd5b611032816122ae565b50565b60026000805160206151a6833981519152540361106557604051635db5c7cd60e11b815260040160405180910390fd5b61107c60026000805160206151a683398151915255565b600061108782610e9a565b90506001600160a01b0381166110b057604051635fbd571760e01b815260040160405180910390fd5b60008281527f4775a23600034fdd9f073b224f794d51a58b35ba663a9602623ba7a5c09cce0060205260409020546001600160401b03166110ef6122e9565b6001600160401b03166111024283614a25565b106111205760405163dce9a1d360e01b815260040160405180910390fd5b600061112e84610e10611d0b565b90508015611167576000611142848361236f565b905060006111508284614a25565b90508015611164576111628582612487565b505b50505b611178846111736122e9565b612625565b50505061103260016000805160206151a683398151915255565b60006109476122e9565b60006111a6611ded565b60030154905090565b6111d360405180606001604052806060815260200160608152602001606081525090565b6108a5826126ee565b60026000805160206151a6833981519152540361120c57604051635db5c7cd60e11b815260040160405180910390fd5b61122360026000805160206151a683398151915255565b61122c816127f2565b60405133606081901b6bffffffffffffffffffffffff19166020830152436034830152600091829060540160405160208183030381529060405280519060200120905060006112ef826112c384866112838761285b565b604080516020808201959095526001600160a01b039390931683820152606080840192909252805180840390920182526080909201909152805191012090565b604080516020808201949094528082019290925280518083038201815260609092019052805191012090565b905061133181848760405160200161131d9291906001600160a01b0392831681529116602082015260400190565b604051602081830303815290604052612890565b34156113415761134181346128d7565b600061136d604051806040016040528060098152602001684a6f696e537061636560b81b81525061295d565b905060005b815181101561159657600082828151811061138f5761138f614a38565b60200260200101519050806040015161158d5760005b81608001515181101561158b576000826080015182815181106113ca576113ca614a38565b60200260200101519050806001600160a01b0316632e1b61e46040518163ffffffff1660e01b8152600401602060405180830381865afa158015611412573d6000803e3d6000fd5b505050506040513d601f19601f820116820180604052508101906114369190614a4e565b61156e5760408051600180825281830190925260009160208083019080368337019050509050888160008151811061147057611470614a38565b60200260200101906001600160a01b031690816001600160a01b031681525050816001600160a01b0316630cf0b533600083604051806040016040528060098152602001684a6f696e537061636560b81b8152506040516020016114d49190614a6b565b6040516020818303038152906040526114ec90614a87565b6040518463ffffffff1660e01b815260040161150a93929190614ae5565b602060405180830381865afa158015611527573d6000803e3d6000fd5b505050506040513d601f19601f8201168201806040525081019061154b9190614a4e565b156115685761155987612ba7565b505050505050505050506115d7565b50611582565b61157d86828560000151612cfc565b600198505b506001016113a5565b505b50600101611372565b50846115d1576040516001600160a01b038716907f86fd446d5c04e892d58b448a924dcd9c3ece3a5e0d2960b8c35cd475a5595a1f90600090a25b50505050505b61103260016000805160206151a683398151915255565b60606109476119de565b600061094761119c565b606061160c611b04565b6003018054610817906149c2565b611622611c2a565b6001600160a01b0316336001600160a01b031614611655576040516365f4906560e01b81523360048201526024016108f2565b61166681611661611d0b565b612f53565b61103281610fbb565b80611678611b04565b336000818152600792909201602090815260408084206001600160a01b03881680865290835293819020805460ff19169515159590951790945592518415158152919290917f17307eab39ab6107e8899845ad3d59bd9653f200f220920489ca2b5937696c31910160405180910390a35050565b60006116f6611ded565b600801546001600160a01b0316919050565b600080611713611ded565b600781015490915080156117275792915050565b8160060160009054906101000a90046001600160a01b03166001600160a01b0316632cbb9d136040518163ffffffff1660e01b8152600401602060405180830381865afa15801561177c573d6000803e3d6000fd5b505050506040513d601f19601f820116820180604052508101906117a091906149f6565b9250505090565b6117b2848484610956565b6001600160a01b0383163b156117eb576117ce84848484612f74565b6117eb576040516368d2bf6b60e11b815260040160405180910390fd5b50505050565b60606117fc8261305f565b61181957604051630a14c4b560e41b815260040160405180910390fd5b600061183060408051602081019091526000815290565b90508051600003611850576040518060200160405280600081525061187b565b8061185a8461309b565b60405160200161186b929190614b0e565b6040516020818303038152906040525b9392505050565b60026000805160206151a683398151915254036118b257604051635db5c7cd60e11b815260040160405180910390fd5b6118c960026000805160206151a683398151915255565b6118d2836127f2565b60006118dc6130df565b905060006118eb6103e0611d0b565b9050801561196c576118fd82826130ef565b6000611909868361236f565b905060006119178284614a25565b90506000611923610f8a565b90508115611968576000611937838861310f565b9050611945828a8a84612087565b60006119518285614a25565b90508015611965576119638a82612487565b505b50505b5050505b6119778560016131b8565b611983826111736122e9565b5050610cf760016000805160206151a683398151915255565b60008051602061520683398151915254640100000000900460ff166119d457604051630ef4733760e31b815260040160405180910390fd5b6108b78282612012565b60606119e8611ded565b600c018054610817906149c2565b6119fe611c2a565b6001600160a01b0316336001600160a01b031614611a31576040516365f4906560e01b81523360048201526024016108f2565b611a3a816131d2565b61103281610f5d565b60006109476116ec565b600061187b838361328a565b60026000805160206151a68339815191525403611a8957604051635db5c7cd60e11b815260040160405180910390fd5b611aa060026000805160206151a683398151915255565b611aaa82826132c7565b6108b760016000805160206151a683398151915255565b6000611acb611ded565b6007810183905560405190915082907fab14a23e88fb272313490d4f20d63098e64fd38304c0e07a377db98c2b39b92f90600090a25050565b7f6569bde4a160c636ea8b8d11acb83a60d7fec0b8f2e09389306cba0e1340df0090565b6000611b338261305f565b611b50576040516333d1c03960e21b815260040160405180910390fd5b611b58611b04565b60009283526006016020525060409020546001600160a01b031690565b6000611b8083610e9a565b90508115611bbf57336001600160a01b03821614611bbf57611ba2813361328a565b611bbf576040516367d9dca160e11b815260040160405180910390fd5b83611bc8611b04565b6000858152600691909101602052604080822080546001600160a01b0319166001600160a01b0394851617905551859287811692908516917f8c5be1e5ebec7d5bd14f71427d1e84f3dd0314c0f7b2291e5b200ac8c7c3b9259190a450505050565b6040805180820182527fd2f24d4f172e4e84e48e7c4125b6e904c29e5eba33ad4938fee51dd5dbd4b600546001600160a01b03168082527fd2f24d4f172e4e84e48e7c4125b6e904c29e5eba33ad4938fee51dd5dbd4b60154602080840182905284516331a9108f60e11b815260048101929092529351600094636352211e92602480820193918290030181865afa158015611cca573d6000803e3d6000fd5b505050506040513d601f19601f82011682018060405250810190611cee9190614b3d565b91505090565b80611cfd611ded565b600c01906108b79082614ba2565b600080611d16611b04565b60010154611d22611b04565b540303919050565b600080611d35611b04565b60008481526004820160205260408120549350909150600160e01b83169003611dab5781600003611da55780548310611d8157604051636f96cda160e11b815260040160405180910390fd5b5b600019909201600081815260048401602052604090205490929091508115611d82575b50919050565b50604051636f96cda160e11b815260040160405180910390fd5b6000806000611dd2611b04565b60009485526006016020525050604090912080549092909150565b7fc21004fcc619240a31f006438274d15cd813308303284436eef6055f0fdcb60090565b6001600160e01b0319811660009081527f81088bbc801e045ea3e7620779ab349988f58afbdfba10dff983df3f33522b00602052604090205460ff161515600114611e9e576001600160e01b0319811660009081527f81088bbc801e045ea3e7620779ab349988f58afbdfba10dff983df3f33522b0060205260409020805460ff19166001179055611eb7565b604051637967f77d60e11b815260040160405180910390fd5b6040516001600160e01b03198216907f78f84e5b1c5c05be2b5ad3800781dd404d6d6c6302bc755c0fe20f58a33a7f2290600090a250565b6000611ef9611ded565b6006810180546001600160a01b038086166001600160a01b031992831617909255610100860151600884018054919093169082161790915560048201805490911673eeeeeeeeeeeeeeeeeeeeeeeeeeeeeeeeeeeeeeee1790556060840151600382015560e08401516007820181905590915015611f7d57611f7d8360e00151612113565b611f8b8361010001516131d2565b604083015115610cf757611fa283604001516121b8565b600881015460408085015190516391b7f5ed60e01b81526001600160a01b03909216916391b7f5ed91611fdb9160040190815260200190565b600060405180830381600087803b158015611ff557600080fd5b505af1158015612009573d6000803e3d6000fd5b50505050505050565b60008051602061520683398151915254640100000000900460ff1661204a57604051630ef4733760e31b815260040160405180910390fd5b61205a6380ac58cd60e01b611e11565b61206a635b5e139f60e01b611e11565b6108b782826135ef565b600061207e611ded565b600a0154905090565b80156117eb5773eeeeeeeeeeeeeeeeeeeeeeeeeeeeeeeeeeeeeeed196001600160a01b038516016120c1576120bc8282613621565b6117eb565b6117eb848484846136c4565b6000806120d8611ded565b60008581526009820160205260409020549091501561210a5760008481526009909101602052604090205490506108a5565b610c7f83610b4d565b600061211d611ded565b90508060060160009054906101000a90046001600160a01b03166001600160a01b0316632cbb9d136040518163ffffffff1660e01b8152600401602060405180830381865afa158015612174573d6000803e3d6000fd5b505050506040513d601f19601f8201168201806040525081019061219891906149f6565b8211156108b75760405163c3983b9160e01b815260040160405180910390fd5b60006121c2610fcb565b6001600160a01b0316630eac306d6040518163ffffffff1660e01b8152600401602060405180830381865afa1580156121ff573d6000803e3d6000fd5b505050506040513d601f19601f8201168201806040525081019061222391906149f6565b9050808210156108b757604051631a23d64760e11b815260040160405180910390fd5b60006001600160a01b03821661226f576040516323d3ad8160e21b815260040160405180910390fd5b6001600160401b0361227f611b04565b6005016000846001600160a01b03166001600160a01b0316815260200190815260200160002054169050919050565b6122be637eb6010f60e01b611e11565b60008051602061516683398151915280546001600160a01b0319166001600160a01b03831617905550565b6000806122f4611ded565b90508060060160009054906101000a90046001600160a01b03166001600160a01b0316638120f0ba6040518163ffffffff1660e01b8152600401602060405180830381865afa15801561234b573d6000803e3d6000fd5b505050506040513d601f19601f82011682018060405250810190611cee9190614c61565b60008061237a611ded565b6006810154600480830154604080516301332c8360e61b815290519495506001600160a01b039384169493909116926000928592634ccb20c092818301926020928290030181865afa1580156123d4573d6000803e3d6000fd5b505050506040513d601f19601f820116820180604052508101906123f89190614b3d565b90506000836001600160a01b0316639f6542aa6040518163ffffffff1660e01b8152600401602060405180830381865afa15801561243a573d6000803e3d6000fd5b505050506040513d601f19601f8201168201806040525081019061245e9190614c7e565b905061246e878261ffff16613717565b955061247c83898489612087565b505050505092915050565b600080612492611ded565b9050600061249e610f8a565b905073eeeeeeeeeeeeeeeeeeeeeeeeeeeeeeeeeeeeeeed196001600160a01b038216016124e9578382600a0160008282546124d99190614ca2565b909155508493506108a592505050565b6040516370a0823160e01b815230600482015281906000906001600160a01b038316906370a0823190602401602060405180830381865afa158015612532573d6000803e3d6000fd5b505050506040513d601f19601f8201168201806040525081019061255691906149f6565b905061256483883089612087565b6040516370a0823160e01b81523060048201526000906001600160a01b038416906370a0823190602401602060405180830381865afa1580156125ab573d6000803e3d6000fd5b505050506040513d601f19601f820116820180604052508101906125cf91906149f6565b905060006125dd8383614a25565b90508781146125ff57604051635894b54560e11b815260040160405180910390fd5b8086600a0160008282546126139190614ca2565b90915550909998505050505050505050565b60008281527f4775a23600034fdd9f073b224f794d51a58b35ba663a9602623ba7a5c09cce006020819052604082205490916001600160401b039091169081810361267b576126748442614cb5565b9050612688565b6126858483614cb5565b90505b60008581526020848152604091829020805467ffffffffffffffff19166001600160401b038516908117909155915191825286917f2ec2be2c4b90c2cf13ecb6751a24daed6bb741ae5ed3f7371aabf9402f6d62e8910160405180910390a25050505050565b61271260405180606001604052806060815260200160608152602001606081525090565b60008281526000805160206151868339815191526020526040812080546000805160206151668339815191529260ff9091161515900361276557604051637ad5a43960e11b815260040160405180910390fd5b6002810154600382015460405163069a3ee960e01b81526001600160a01b0390921691600091839163069a3ee9916127a39160040190815260200190565b600060405180830381865afa1580156127c0573d6000803e3d6000fd5b505050506040513d6000823e601f3d908101601f191682016040526127e89190810190614e6e565b9695505050505050565b6001600160a01b03811661281957604051635fbd571760e01b815260040160405180910390fd5b61282161119c565b1580159061283d575061283261119c565b61283a611d0b565b10155b1561103257604051637efcdb4960e01b815260040160405180910390fd5b60008181526000805160206151c68339815191526020819052604082208054908361288583614fab565b909155509392505050565b60008281527f34516f6fe09a043d57f1ff579a303a7ae85314751c77b4eb1a55837604a86e02602052604090206000805160206151c6833981519152906117eb8382614ba2565b806000036128f85760405163acdc0d4960e01b815260040160405180910390fd5b8034146129185760405163acdc0d4960e01b815260040160405180910390fd5b60008281526000805160206152268339815191526020526040812080546000805160206151c683398151915292849291612953908490614ca2565b9091555050505050565b6060600061296961378c565b80519091506000816001600160401b038111156129885761298861441d565b6040519080825280602002602001820160405280156129b1578160200160208202803683370190505b5085516020870120909150600090815b84811015612a805760006129ed8783815181106129e0576129e0614a38565b60200260200101516137b7565b509250505060005b8151811015612a765783828281518110612a1157612a11614a38565b60200260200101518051906020012003612a6e57878381518110612a3757612a37614a38565b6020026020010151868681518110612a5157612a51614a38565b602090810291909101015284612a6681614fab565b955050612a76565b6001016129f5565b50506001016129c1565b506000826001600160401b03811115612a9b57612a9b61441d565b604051908082528060200260200182016040528015612b0057816020015b612aed6040518060a00160405280600081526020016060815260200160001515815260200160608152602001606081525090565b815260200190600190039081612ab95790505b50905060005b83811015612b9b576000858281518110612b2257612b22614a38565b60200260200101519050600080600080612b3b856137b7565b93509350935093506040518060a00160405280868152602001858152602001841515815260200183815260200182815250878781518110612b7e57612b7e614a38565b602002602001018190525050505050508080600101915050612b06565b50979650505050505050565b600080612bb3836138e2565b806020019051810190612bc69190614fc4565b915091506000612bd76103e0611d0b565b90506000612be36130df565b90508115612ca8576000858152600080516020615226833981519152602052604081205490819003612c2857604051635894b54560e11b815260040160405180910390fd5b80831115612c4957604051635894b54560e11b815260040160405180910390fd5b612c5382846130ef565b6000612c5f868561236f565b90506000612c6d8286614a25565b90508015612c8157612c7f8782612487565b505b612c8b88866139b3565b612ca48860405180602001604052806000815250612890565b5050505b612cb38360016131b8565b612cbf816111736122e9565b60405181906001600160a01b038516907f2f40b0474996b72a4251e00fb9170cdd960deea1dc749772cbbab61395b9b57690600090a35050505050565b6000838152600080516020615186833981519152602052604090208054600080516020615166833981519152919060ff161515600103612d4f5760405163bf2a062560e01b815260040160405180910390fd5b81546001600160a01b0316612d6657612d666139ee565b8154604051634f84544560e01b8152600560048201526000916001600160a01b031690634f84544590602401600060405180830381865afa158015612daf573d6000803e3d6000fd5b505050506040513d6000823e601f3d908101601f19168201604052612dd79190810190614ff3565b825460016001600160a81b03199091166101003302171760ff60a81b191683556002830180546001600160a01b0319166001600160a01b03881617905560038301859055905060005b8151811015612ee557826001016040518060400160405280848481518110612e4a57612e4a614a38565b60200260200101516001600160a01b0316815260200160006002811115612e7357612e736146af565b9052815460018101835560009283526020928390208251910180546001600160a01b031981166001600160a01b03909316928317825593830151929390929183916001600160a81b03191617600160a01b836002811115612ed657612ed66146af565b02179055505050600101612e20565b508254604051636ef10e6960e11b81526001600160a01b039091169063dde21cd290612f199033908a90869060040161508c565b600060405180830381600087803b158015612f3357600080fd5b505af1158015612f47573d6000803e3d6000fd5b50505050505050505050565b808210156108b757604051636664d51760e11b815260040160405180910390fd5b604051630a85bd0160e11b81526000906001600160a01b0385169063150b7a0290612fa99033908990889088906004016150bc565b6020604051808303816000875af1925050508015612fe4575060408051601f3d908101601f19168201909252612fe1918101906150ef565b60015b613042573d808015613012576040519150601f19603f3d011682016040523d82523d6000602084013e613017565b606091505b50805160000361303a576040516368d2bf6b60e11b815260040160405180910390fd5b805181602001fd5b6001600160e01b031916630a85bd0160e11b149050949350505050565b6000613069611b04565b54821080156108a55750600160e01b613080611b04565b60008481526004919091016020526040902054161592915050565b606060a06040510180604052602081039150506000815280825b600183039250600a81066030018353600a9004806130b55750819003601f19909101908152919050565b60006130e9611b04565b54919050565b806130f8611ded565b600093845260090160205260409092209190915550565b60008181527f3c2290b88407133303e904ceb4ee7d0d14164eda8a629372d8406216ceb57e006020819052604082205461ffff16808303613155576000925050506108a5565b600084815260018084016020908152604092839020835180850190945280548085529201549083015215801590613199575080514210806131995750806020015142115b156131aa57600093505050506108a5565b6127e8868361ffff16613717565b6108b7828260405180602001604052806000815250613aa2565b6001600160a01b0381166131f957604051630e88bf4b60e01b815260040160405180910390fd5b613201610fcb565b6040516346fc05eb60e11b81526001600160a01b0383811660048301529190911690638df80bd690602401602060405180830381865afa158015613249573d6000803e3d6000fd5b505050506040513d601f19601f8201168201806040525081019061326d9190614a4e565b61103257604051630e88bf4b60e01b815260040160405180910390fd5b6000613294611b04565b6001600160a01b039384166000908152600791909101602090815260408083209490951682529290925250205460ff1690565b6000828152600080516020615186833981519152602052604090208054600080516020615166833981519152919061010090046001600160a01b031661332057604051637ad5a43960e11b815260040160405180910390fd5b8054600160a81b900460ff161561334a57604051635d802b6760e11b815260040160405180910390fd5b805460ff16151560000361337157604051637ad5a43960e11b815260040160405180910390fd5b6000805b600183015481101561343257600083600101828154811061339857613398614a38565b60009182526020909120018054909150336001600160a01b03909116036134295760008154600160a01b900460ff1660028111156133d8576133d86146af565b146133f6576040516347592a4d60e01b815260040160405180910390fd5b8054600193508690829060ff60a01b1916600160a01b83600281111561341e5761341e6146af565b021790555050613432565b50600101613375565b5080151560000361345657604051638223a7e960e01b815260040160405180910390fd5b60008060005b60018501548110156134fd57600085600101828154811061347f5761347f614a38565b6000918252602090912001905060018154600160a01b900460ff1660028111156134ab576134ab6146af565b036134c257836134ba81614fab565b9450506134f4565b60028154600160a01b900460ff1660028111156134e1576134e16146af565b036134f457826134f081614fab565b9350505b5060010161345c565b50600184015461350f90600290615119565b82111561357957835460ff60a81b1916600160a81b178455613532876001613b18565b867fb9d6ce397e562841871d119aaf77469c60a3b5bf8b99a5d9851656015015c6336001604051613563919061513b565b60405180910390a261357487613bf0565b612009565b600184015461358a90600290615119565b81111561200957835460ff60a81b1916600160a81b1784556135ad876002613b18565b867fb9d6ce397e562841871d119aaf77469c60a3b5bf8b99a5d9851656015015c63360026040516135de919061513b565b60405180910390a261200987613bf0565b60006135f9611b04565b9050600281016136098482614ba2565b50600381016136188382614ba2565b50600090555050565b6000826001600160a01b03168260405160006040518083038185875af1925050503d806000811461366e576040519150601f19603f3d011682016040523d82523d6000602084013e613673565b606091505b5050905080610cf75760405162461bcd60e51b815260206004820152601c60248201527f6e617469766520746f6b656e207472616e73666572206661696c65640000000060448201526064016108f2565b816001600160a01b0316836001600160a01b031603156117eb57306001600160a01b03841603613702576120bc6001600160a01b0385168383613c76565b6117eb6001600160a01b038516848484613cd5565b60006127108211156137755760405162461bcd60e51b815260206004820152602160248201527f426173697320706f696e74732063616e6e6f74206578636565642031305f30306044820152600360fc1b60648201526084016108f2565b612710613782838561514e565b61187b9190615119565b60606109477f672ef851d5f92307da037116e23aa9e31af7e1f7e3ca62c4e6d540631df3fd01613d0e565b60008181526000805160206151e68339815191526020526040812080546060929183918291906137e6906149c2565b80601f0160208091040260200160405190810160405280929190818152602001828054613812906149c2565b801561385f5780601f106138345761010080835404028352916020019161385f565b820191906000526020600020905b81548152906001019060200180831161384257829003601f168201915b5050505050935061388d7f672ef851d5f92307da037116e23aa9e31af7e1f7e3ca62c4e6d540631df3fd0090565b600086815260039190910160209081526040808320600101546000805160206151e683398151915290925290912060ff90911693506138ce90600201613d1b565b91506138d985613d26565b90509193509193565b60008181527f34516f6fe09a043d57f1ff579a303a7ae85314751c77b4eb1a55837604a86e026020526040902080546060916000805160206151c68339815191529161392d906149c2565b80601f0160208091040260200160405190810160405280929190818152602001828054613959906149c2565b80156139a65780601f1061397b576101008083540402835291602001916139a6565b820191906000526020600020905b81548152906001019060200180831161398957829003601f168201915b5050505050915050919050565b60008281526000805160206152268339815191526020526040812080546000805160206151c683398151915292849291612953908490614a25565b6000805160206151668339815191526000613a07611ded565b60060154604051628956cd60e71b81526c29b830b1b2a7b832b930ba37b960991b60048201526001600160a01b03909116906344ab668090602401602060405180830381865afa158015613a5f573d6000803e3d6000fd5b505050506040513d601f19601f82011682018060405250810190613a839190614b3d565b82546001600160a01b0319166001600160a01b03919091161790915550565b613aac8383613e2a565b6001600160a01b0383163b15610cf7576000613ac6611b04565b5490508281035b613ae06000868380600101945086612f74565b613afd576040516368d2bf6b60e11b815260040160405180910390fd5b818110613acd5781613b0d611b04565b5414610f5657600080fd5b6001816002811115613b2c57613b2c6146af565b03613b3a576108b782612ba7565b600080613b46846138e2565b806020019051810190613b599190614fc4565b91509150613b768460405180602001604052806000815250612890565b600084815260008051602061522683398151915260205260409020548015613bb557613ba285826139b3565b613bb5613bad610f8a565b308584612087565b6040516001600160a01b038316907f86fd446d5c04e892d58b448a924dcd9c3ece3a5e0d2960b8c35cd475a5595a1f90600090a25050505050565b60008181526000805160206151868339815191526020526040812060008051602061516683398151915291613c29906001830190614262565b600083815260018084016020526040822080546001600160b01b03191681559190613c5690830182614262565b506002810180546001600160a01b03191690556000600390910155505050565b6040516001600160a01b03838116602483015260448201839052610cf791859182169063a9059cbb906064015b604051602081830303815290604052915060e01b6020820180516001600160e01b038381831617835250505050613f65565b6040516001600160a01b0384811660248301528381166044830152606482018390526117eb9186918216906323b872dd90608401613ca3565b6060600061187b83613fc8565b60606108a582614024565b60008181526000805160206151e68339815191526020526040812060609190613d5190600401614101565b6001600160401b03811115613d6857613d6861441d565b604051908082528060200260200182016040528015613d91578160200160208202803683370190505b50905060005b60008481526000805160206151e683398151915260205260409020613dbe90600401614101565b811015613e235760008481526000805160206151e683398151915260205260408120613ded906004018361410b565b905080838381518110613e0257613e02614a38565b6001600160a01b039092166020928302919091019091015250600101613d97565b5092915050565b6000613e34611b04565b5490506000829003613e595760405163b562e8dd60e01b815260040160405180910390fd5b680100000000000000018202613e6d611b04565b6001600160a01b038516600081815260059290920160205260409091208054929092019091554260a01b6001841460e11b1717613ea8611b04565b600083815260049190910160205260408120919091556001600160a01b0384169083830190839083907fddf252ad1be2c89b69c2b068fc378daa952ba7f163c4a11628f55a4df523b3ef8180a4600183015b818114613f3257808360007fddf252ad1be2c89b69c2b068fc378daa952ba7f163c4a11628f55a4df523b3ef600080a4600101613efa565b5081600003613f5357604051622e076360e81b815260040160405180910390fd5b80613f5c611b04565b5550610cf79050565b6000613f7a6001600160a01b03841683614117565b90508051600014158015613f9f575080806020019051810190613f9d9190614a4e565b155b15610cf757604051635274afe760e01b81526001600160a01b03841660048201526024016108f2565b60608160000180548060200260200160405190810160405280929190818152602001828054801561401857602002820191906000526020600020905b815481526020019060010190808311614004575b50505050509050919050565b606081600001805480602002602001604051908101604052809291908181526020016000905b828210156140f6578382906000526020600020018054614069906149c2565b80601f0160208091040260200160405190810160405280929190818152602001828054614095906149c2565b80156140e25780601f106140b7576101008083540402835291602001916140e2565b820191906000526020600020905b8154815290600101906020018083116140c557829003601f168201915b50505050508152602001906001019061404a565b505050509050919050565b60006108a5825490565b600061187b8383614125565b606061187b8383600061414f565b600082600001828154811061413c5761413c614a38565b9060005260206000200154905092915050565b6060814710156141745760405163cd78605960e01b81523060048201526024016108f2565b600080856001600160a01b031684866040516141909190614a6b565b60006040518083038185875af1925050503d80600081146141cd576040519150601f19603f3d011682016040523d82523d6000602084013e6141d2565b606091505b50915091506127e88683836060826141f2576141ed82614239565b61187b565b815115801561420957506001600160a01b0384163b155b1561423257604051639996b31560e01b81526001600160a01b03851660048201526024016108f2565b508061187b565b8051156142495780518082602001fd5b604051630a12f52160e11b815260040160405180910390fd5b508054600082559060005260206000209081019061103291905b8082111561429a5780546001600160a81b031916815560010161427c565b5090565b60005b838110156142b95781810151838201526020016142a1565b50506000910152565b600081518084526142da81602086016020860161429e565b601f01601f19169290920160200192915050565b60208152600061187b60208301846142c2565b60006020828403121561431357600080fd5b5035919050565b6001600160a01b038116811461103257600080fd5b803561433a8161431a565b919050565b6000806040838503121561435257600080fd5b823561435d8161431a565b946020939093013593505050565b6000806020838503121561437e57600080fd5b82356001600160401b038082111561439557600080fd5b818501915085601f8301126143a957600080fd5b8135818111156143b857600080fd5b8660208285010111156143ca57600080fd5b60209290920196919550909350505050565b6000806000606084860312156143f157600080fd5b83356143fc8161431a565b9250602084013561440c8161431a565b929592945050506040919091013590565b634e487b7160e01b600052604160045260246000fd5b60405161012081016001600160401b03811182821017156144565761445661441d565b60405290565b604051608081016001600160401b03811182821017156144565761445661441d565b604051606081016001600160401b03811182821017156144565761445661441d565b604080519081016001600160401b03811182821017156144565761445661441d565b604051601f8201601f191681016001600160401b03811182821017156144ea576144ea61441d565b604052919050565b60006001600160401b0383111561450b5761450b61441d565b61451e601f8401601f19166020016144c2565b905082815283838301111561453257600080fd5b828260208301376000602084830101529392505050565b600082601f83011261455a57600080fd5b61187b838335602085016144f2565b6001600160401b038116811461103257600080fd5b803561433a81614569565b6000806040838503121561459c57600080fd5b82356001600160401b03808211156145b357600080fd5b9084019061012082870312156145c857600080fd5b6145d0614433565b8235828111156145df57600080fd5b6145eb88828601614549565b82525060208301358281111561460057600080fd5b61460c88828601614549565b60208301525060408301356040820152606083013560608201526146326080840161457e565b608082015261464360a0840161432f565b60a082015261465460c0840161432f565b60c082015260e083013560e0820152610100915061467382840161432f565b828201528094505050506146896020840161432f565b90509250929050565b6000602082840312156146a457600080fd5b813561187b8161431a565b634e487b7160e01b600052602160045260246000fd5b60038110611032576110326146af565b60008151808452602080850194506020840160005b8381101561473f578151805160068110614706576147066146af565b885280840151848901526040808201516001600160a01b03169089015260609081015190880152608090960195908201906001016146ea565b509495945050505050565b60008151808452602080850194506020840160005b8381101561473f5781518051614774816146c5565b88528084015160ff908116858a015260409182015116908801526060909601959082019060010161475f565b6020808252825160608383015280516080840181905260009291820190839060a08601905b808310156147fc57835180516147da816146c5565b835285015160ff168583015292840192600192909201916040909101906147c5565b50838701519350601f1992508286820301604087015261481c81856146d5565b935050506040850151818584030160608601526127e8838261474a565b801515811461103257600080fd5b6000806040838503121561485a57600080fd5b82356148658161431a565b9150602083013561487581614839565b809150509250929050565b6000806000806080858703121561489657600080fd5b84356148a18161431a565b935060208501356148b18161431a565b92506040850135915060608501356001600160401b038111156148d357600080fd5b8501601f810187136148e457600080fd5b6148f3878235602084016144f2565b91505092959194509250565b6000806040838503121561491257600080fd5b82356001600160401b038082111561492957600080fd5b61493586838701614549565b9350602085013591508082111561494b57600080fd5b5061495885828601614549565b9150509250929050565b6000806040838503121561497557600080fd5b82356149808161431a565b915060208301356148758161431a565b6003811061103257600080fd5b600080604083850312156149b057600080fd5b82359150602083013561487581614990565b600181811c908216806149d657607f821691505b602082108103611da557634e487b7160e01b600052602260045260246000fd5b600060208284031215614a0857600080fd5b5051919050565b634e487b7160e01b600052601160045260246000fd5b818103818111156108a5576108a5614a0f565b634e487b7160e01b600052603260045260246000fd5b600060208284031215614a6057600080fd5b815161187b81614839565b60008251614a7d81846020870161429e565b9190910192915050565b80516020808301519190811015611da55760001960209190910360031b1b16919050565b60008151808452602080850194506020840160005b8381101561473f5781516001600160a01b031687529582019590820190600101614ac0565b838152606060208201526000614afe6060830185614aab565b9050826040830152949350505050565b60008351614b2081846020880161429e565b835190830190614b3481836020880161429e565b01949350505050565b600060208284031215614b4f57600080fd5b815161187b8161431a565b601f821115610cf7576000816000526020600020601f850160051c81016020861015614b835750805b601f850160051c820191505b81811015610b4557828155600101614b8f565b81516001600160401b03811115614bbb57614bbb61441d565b614bcf81614bc984546149c2565b84614b5a565b602080601f831160018114614c045760008415614bec5750858301515b600019600386901b1c1916600185901b178555610b45565b600085815260208120601f198616915b82811015614c3357888601518255948401946001909101908401614c14565b5085821015614c515787850151600019600388901b60f8161c191681555b5050505050600190811b01905550565b600060208284031215614c7357600080fd5b815161187b81614569565b600060208284031215614c9057600080fd5b815161ffff8116811461187b57600080fd5b808201808211156108a5576108a5614a0f565b6001600160401b03818116838216019080821115613e2357613e23614a0f565b60006001600160401b03821115614cee57614cee61441d565b5060051b60200190565b805160ff8116811461433a57600080fd5b600082601f830112614d1a57600080fd5b81516020614d2f614d2a83614cd5565b6144c2565b82815260079290921b84018101918181019086841115614d4e57600080fd5b8286015b84811015614db85760808189031215614d6b5760008081fd5b614d7361445c565b815160068110614d835760008081fd5b81528185015185820152604080830151614d9c8161431a565b9082015260608281015190820152835291830191608001614d52565b509695505050505050565b600082601f830112614dd457600080fd5b81516020614de4614d2a83614cd5565b82815260609283028501820192828201919087851115614e0357600080fd5b8387015b85811015614e615781818a031215614e1f5760008081fd5b614e2761447e565b8151614e3281614990565b8152614e3f828701614cf8565b868201526040614e50818401614cf8565b908201528452928401928101614e07565b5090979650505050505050565b60006020808385031215614e8157600080fd5b82516001600160401b0380821115614e9857600080fd5b9084019060608287031215614eac57600080fd5b614eb461447e565b825182811115614ec357600080fd5b8301601f81018813614ed457600080fd5b8051614ee2614d2a82614cd5565b81815260069190911b8201860190868101908a831115614f0157600080fd5b928701925b82841015614f55576040848c031215614f1f5760008081fd5b614f276144a0565b8451614f3281614990565b8152614f3f858a01614cf8565b818a015282526040939093019290870190614f06565b84525050508284015182811115614f6b57600080fd5b614f7788828601614d09565b85830152506040830151935081841115614f9057600080fd5b614f9c87858501614dc3565b60408201529695505050505050565b600060018201614fbd57614fbd614a0f565b5060010190565b60008060408385031215614fd757600080fd5b8251614fe28161431a565b60208401519092506148758161431a565b6000602080838503121561500657600080fd5b82516001600160401b0381111561501c57600080fd5b8301601f8101851361502d57600080fd5b805161503b614d2a82614cd5565b81815260059190911b8201830190838101908783111561505a57600080fd5b928401925b828410156150815783516150728161431a565b8252928401929084019061505f565b979650505050505050565b60018060a01b03841681528260208201526060604082015260006150b36060830184614aab565b95945050505050565b6001600160a01b03858116825284166020820152604081018390526080606082018190526000906127e8908301846142c2565b60006020828403121561510157600080fd5b81516001600160e01b03198116811461187b57600080fd5b60008261513657634e487b7160e01b600052601260045260246000fd5b500490565b60208101615148836146c5565b91905290565b80820281158282048414176108a5576108a5614a0f56fe9075c515a635ba70c9696f31149324218d75cf00afe836c482e6473f38b19e009075c515a635ba70c9696f31149324218d75cf00afe836c482e6473f38b19e0154f22f54f370bd020e00ee80e1a5099a71652e2ccbcf6a75281e4c70a3e11a0034516f6fe09a043d57f1ff579a303a7ae85314751c77b4eb1a55837604a86e00672ef851d5f92307da037116e23aa9e31af7e1f7e3ca62c4e6d540631df3fd0359b501c3653afc186af7d48dda36cf6732bd21629a6295693664240a6ef5200034516f6fe09a043d57f1ff579a303a7ae85314751c77b4eb1a55837604a86e01","linkReferences":{}},"methodIdentifiers":{"__ERC721A_init(string,string)":"d2f01f19","__EntitlementGated_init(address)":"7adc9cbe","__Membership_init((string,string,uint256,uint256,uint64,address,address,uint256,address),address)":"4c2abfbe","_getMembershipCurrency()":"70251563","_getMembershipFreeAllocation()":"b3a5be6d","_getMembershipImage()":"d33d9345","_getMembershipPrice(uint256)":"3ded10de","_getMembershipSupplyLimit()":"8934207f","_getPricingModule()":"ac7ee626","_getSpaceFactory()":"77460cd3","_setMembershipFreeAllocation(uint256)":"f9d5d22c","_setMembershipSupplyLimit(uint256)":"73fc5a05","_setPricingModule(address)":"69d9346b","approve(address,uint256)":"095ea7b3","balanceOf(address)":"70a08231","expiresAt(uint256)":"17c95709","getApproved(uint256)":"081812fc","getMembershipCurrency()":"657e45e8","getMembershipDuration()":"8120f0ba","getMembershipFreeAllocation()":"706b8e09","getMembershipImage()":"93b13cb7","getMembershipLimit()":"95d600c8","getMembershipPrice()":"1278076a","getMembershipPricingModule()":"e847abdd","getMembershipRenewalPrice(uint256)":"5803909f","getRuleData(bytes32)":"8a59b1b4","getSpaceFactory()":"79dda585","isApprovedForAll(address,address)":"e985e9c5","joinSpace(address)":"8c625b06","joinSpaceWithReferral(address,address,uint256)":"c9f7c833","name()":"06fdde03","ownerOf(uint256)":"6352211e","postEntitlementCheckResult(bytes32,uint8)":"f4efb0bb","renewMembership(uint256)":"7c9669ac","safeTransferFrom(address,address,uint256)":"42842e0e","safeTransferFrom(address,address,uint256,bytes)":"b88d4fde","setApprovalForAll(address,bool)":"a22cb465","setMembershipFreeAllocation(uint256)":"5becd24a","setMembershipImage(string)":"0ef1be5f","setMembershipLimit(uint256)":"97fb7c1e","setMembershipPrice(uint256)":"69d5f38a","setMembershipPricingModule(address)":"df9a9fe6","symbol()":"95d89b41","tokenURI(uint256)":"c87b56dd","totalSupply()":"18160ddd","transferFrom(address,address,uint256)":"23b872dd","withdraw(address)":"51cff8d9"},"id":185}