{"abi":[{"type":"function","name":"__ERC721A_init","inputs":[{"name":"name_","type":"string","internalType":"string"},{"name":"symbol_","type":"string","internalType":"string"}],"outputs":[],"stateMutability":"nonpayable"},{"type":"function","name":"__Membership_init","inputs":[{"name":"info","type":"tuple","internalType":"struct IMembershipBase.Membership","components":[{"name":"name","type":"string","internalType":"string"},{"name":"symbol","type":"string","internalType":"string"},{"name":"price","type":"uint256","internalType":"uint256"},{"name":"maxSupply","type":"uint256","internalType":"uint256"},{"name":"duration","type":"uint64","internalType":"uint64"},{"name":"currency","type":"address","internalType":"address"},{"name":"feeRecipient","type":"address","internalType":"address"},{"name":"freeAllocation","type":"uint256","internalType":"uint256"},{"name":"pricingModule","type":"address","internalType":"address"}]},{"name":"spaceFactory","type":"address","internalType":"address"}],"outputs":[],"stateMutability":"nonpayable"},{"type":"function","name":"_getMembershipCurrency","inputs":[],"outputs":[{"name":"","type":"address","internalType":"address"}],"stateMutability":"view"},{"type":"function","name":"_getMembershipFeeRecipient","inputs":[],"outputs":[{"name":"","type":"address","internalType":"address"}],"stateMutability":"view"},{"type":"function","name":"_getMembershipFreeAllocation","inputs":[],"outputs":[{"name":"","type":"uint256","internalType":"uint256"}],"stateMutability":"view"},{"type":"function","name":"_getMembershipPrice","inputs":[{"name":"totalSupply","type":"uint256","internalType":"uint256"}],"outputs":[{"name":"","type":"uint256","internalType":"uint256"}],"stateMutability":"view"},{"type":"function","name":"_getMembershipSupplyLimit","inputs":[],"outputs":[{"name":"","type":"uint256","internalType":"uint256"}],"stateMutability":"view"},{"type":"function","name":"_getPricingModule","inputs":[],"outputs":[{"name":"","type":"address","internalType":"address"}],"stateMutability":"view"},{"type":"function","name":"_getTownFactory","inputs":[],"outputs":[{"name":"","type":"address","internalType":"address"}],"stateMutability":"view"},{"type":"function","name":"_setMembershipCurrency","inputs":[{"name":"newCurrency","type":"address","internalType":"address"}],"outputs":[],"stateMutability":"nonpayable"},{"type":"function","name":"_setMembershipFeeRecipient","inputs":[{"name":"newRecipient","type":"address","internalType":"address"}],"outputs":[],"stateMutability":"nonpayable"},{"type":"function","name":"_setMembershipFreeAllocation","inputs":[{"name":"newAllocation","type":"uint256","internalType":"uint256"}],"outputs":[],"stateMutability":"nonpayable"},{"type":"function","name":"_setMembershipPrice","inputs":[{"name":"newPrice","type":"uint256","internalType":"uint256"}],"outputs":[],"stateMutability":"nonpayable"},{"type":"function","name":"_setMembershipSupplyLimit","inputs":[{"name":"newLimit","type":"uint256","internalType":"uint256"}],"outputs":[],"stateMutability":"nonpayable"},{"type":"function","name":"_setPricingModule","inputs":[{"name":"newPricingModule","type":"address","internalType":"address"}],"outputs":[],"stateMutability":"nonpayable"},{"type":"function","name":"approve","inputs":[{"name":"to","type":"address","internalType":"address"},{"name":"tokenId","type":"uint256","internalType":"uint256"}],"outputs":[],"stateMutability":"payable"},{"type":"function","name":"balanceOf","inputs":[{"name":"account","type":"address","internalType":"address"}],"outputs":[{"name":"","type":"uint256","internalType":"uint256"}],"stateMutability":"view"},{"type":"function","name":"cancelMembership","inputs":[{"name":"tokenId","type":"uint256","internalType":"uint256"}],"outputs":[],"stateMutability":"nonpayable"},{"type":"function","name":"expiresAt","inputs":[{"name":"tokenId","type":"uint256","internalType":"uint256"}],"outputs":[{"name":"","type":"uint256","internalType":"uint256"}],"stateMutability":"view"},{"type":"function","name":"getApproved","inputs":[{"name":"tokenId","type":"uint256","internalType":"uint256"}],"outputs":[{"name":"","type":"address","internalType":"address"}],"stateMutability":"view"},{"type":"function","name":"getMembershipCurrency","inputs":[],"outputs":[{"name":"","type":"address","internalType":"address"}],"stateMutability":"view"},{"type":"function","name":"getMembershipDuration","inputs":[],"outputs":[{"name":"","type":"uint64","internalType":"uint64"}],"stateMutability":"view"},{"type":"function","name":"getMembershipFeeRecipient","inputs":[],"outputs":[{"name":"","type":"address","internalType":"address"}],"stateMutability":"view"},{"type":"function","name":"getMembershipFreeAllocation","inputs":[],"outputs":[{"name":"","type":"uint256","internalType":"uint256"}],"stateMutability":"view"},{"type":"function","name":"getMembershipLimit","inputs":[],"outputs":[{"name":"","type":"uint256","internalType":"uint256"}],"stateMutability":"view"},{"type":"function","name":"getMembershipPrice","inputs":[],"outputs":[{"name":"","type":"uint256","internalType":"uint256"}],"stateMutability":"view"},{"type":"function","name":"getMembershipPricingModule","inputs":[],"outputs":[{"name":"","type":"address","internalType":"address"}],"stateMutability":"view"},{"type":"function","name":"getMembershipRenewalPrice","inputs":[{"name":"tokenId","type":"uint256","internalType":"uint256"}],"outputs":[{"name":"","type":"uint256","internalType":"uint256"}],"stateMutability":"view"},{"type":"function","name":"getTokenIdByMembership","inputs":[{"name":"member","type":"address","internalType":"address"}],"outputs":[{"name":"","type":"uint256","internalType":"uint256"}],"stateMutability":"view"},{"type":"function","name":"getTownFactory","inputs":[],"outputs":[{"name":"","type":"address","internalType":"address"}],"stateMutability":"view"},{"type":"function","name":"isApprovedForAll","inputs":[{"name":"owner","type":"address","internalType":"address"},{"name":"operator","type":"address","internalType":"address"}],"outputs":[{"name":"","type":"bool","internalType":"bool"}],"stateMutability":"view"},{"type":"function","name":"joinTown","inputs":[{"name":"receiver","type":"address","internalType":"address"}],"outputs":[{"name":"tokenId","type":"uint256","internalType":"uint256"}],"stateMutability":"payable"},{"type":"function","name":"joinTownWithReferral","inputs":[{"name":"receiver","type":"address","internalType":"address"},{"name":"referrer","type":"address","internalType":"address"},{"name":"referralCode","type":"uint256","internalType":"uint256"}],"outputs":[{"name":"tokenId","type":"uint256","internalType":"uint256"}],"stateMutability":"payable"},{"type":"function","name":"name","inputs":[],"outputs":[{"name":"","type":"string","internalType":"string"}],"stateMutability":"view"},{"type":"function","name":"ownerOf","inputs":[{"name":"tokenId","type":"uint256","internalType":"uint256"}],"outputs":[{"name":"","type":"address","internalType":"address"}],"stateMutability":"view"},{"type":"function","name":"renewMembership","inputs":[{"name":"receiver","type":"address","internalType":"address"}],"outputs":[],"stateMutability":"payable"},{"type":"function","name":"safeTransferFrom","inputs":[{"name":"from","type":"address","internalType":"address"},{"name":"to","type":"address","internalType":"address"},{"name":"tokenId","type":"uint256","internalType":"uint256"}],"outputs":[],"stateMutability":"payable"},{"type":"function","name":"safeTransferFrom","inputs":[{"name":"from","type":"address","internalType":"address"},{"name":"to","type":"address","internalType":"address"},{"name":"tokenId","type":"uint256","internalType":"uint256"},{"name":"_data","type":"bytes","internalType":"bytes"}],"outputs":[],"stateMutability":"payable"},{"type":"function","name":"setApprovalForAll","inputs":[{"name":"operator","type":"address","internalType":"address"},{"name":"approved","type":"bool","internalType":"bool"}],"outputs":[],"stateMutability":"nonpayable"},{"type":"function","name":"setMembershipCurrency","inputs":[{"name":"newCurrency","type":"address","internalType":"address"}],"outputs":[],"stateMutability":"nonpayable"},{"type":"function","name":"setMembershipDuration","inputs":[{"name":"newDuration","type":"uint64","internalType":"uint64"}],"outputs":[],"stateMutability":"nonpayable"},{"type":"function","name":"setMembershipFeeRecipient","inputs":[{"name":"newRecipient","type":"address","internalType":"address"}],"outputs":[],"stateMutability":"nonpayable"},{"type":"function","name":"setMembershipFreeAllocation","inputs":[{"name":"newAllocation","type":"uint256","internalType":"uint256"}],"outputs":[],"stateMutability":"nonpayable"},{"type":"function","name":"setMembershipLimit","inputs":[{"name":"newLimit","type":"uint256","internalType":"uint256"}],"outputs":[],"stateMutability":"nonpayable"},{"type":"function","name":"setMembershipPrice","inputs":[{"name":"newPrice","type":"uint256","internalType":"uint256"}],"outputs":[],"stateMutability":"nonpayable"},{"type":"function","name":"setMembershipPricingModule","inputs":[{"name":"pricingModule","type":"address","internalType":"address"}],"outputs":[],"stateMutability":"nonpayable"},{"type":"function","name":"symbol","inputs":[],"outputs":[{"name":"","type":"string","internalType":"string"}],"stateMutability":"view"},{"type":"function","name":"tokenURI","inputs":[{"name":"tokenId","type":"uint256","internalType":"uint256"}],"outputs":[{"name":"","type":"string","internalType":"string"}],"stateMutability":"view"},{"type":"function","name":"totalSupply","inputs":[],"outputs":[{"name":"","type":"uint256","internalType":"uint256"}],"stateMutability":"view"},{"type":"function","name":"transferFrom","inputs":[{"name":"from","type":"address","internalType":"address"},{"name":"to","type":"address","internalType":"address"},{"name":"tokenId","type":"uint256","internalType":"uint256"}],"outputs":[],"stateMutability":"payable"},{"type":"event","name":"Approval","inputs":[{"name":"owner","type":"address","indexed":true,"internalType":"address"},{"name":"approved","type":"address","indexed":true,"internalType":"address"},{"name":"tokenId","type":"uint256","indexed":true,"internalType":"uint256"}],"anonymous":false},{"type":"event","name":"ApprovalForAll","inputs":[{"name":"owner","type":"address","indexed":true,"internalType":"address"},{"name":"operator","type":"address","indexed":true,"internalType":"address"},{"name":"approved","type":"bool","indexed":false,"internalType":"bool"}],"anonymous":false},{"type":"event","name":"Banned","inputs":[{"name":"tokenId","type":"uint256","indexed":true,"internalType":"uint256"}],"anonymous":false},{"type":"event","name":"ConsecutiveTransfer","inputs":[{"name":"fromTokenId","type":"uint256","indexed":true,"internalType":"uint256"},{"name":"toTokenId","type":"uint256","indexed":false,"internalType":"uint256"},{"name":"from","type":"address","indexed":true,"internalType":"address"},{"name":"to","type":"address","indexed":true,"internalType":"address"}],"anonymous":false},{"type":"event","name":"Initialized","inputs":[{"name":"version","type":"uint32","indexed":false,"internalType":"uint32"}],"anonymous":false},{"type":"event","name":"InterfaceAdded","inputs":[{"name":"interfaceId","type":"bytes4","indexed":true,"internalType":"bytes4"}],"anonymous":false},{"type":"event","name":"InterfaceRemoved","inputs":[{"name":"interfaceId","type":"bytes4","indexed":true,"internalType":"bytes4"}],"anonymous":false},{"type":"event","name":"MembershipCurrencyUpdated","inputs":[{"name":"currency","type":"address","indexed":true,"internalType":"address"}],"anonymous":false},{"type":"event","name":"MembershipFeeRecipientUpdated","inputs":[{"name":"recipient","type":"address","indexed":true,"internalType":"address"}],"anonymous":false},{"type":"event","name":"MembershipFreeAllocationUpdated","inputs":[{"name":"allocation","type":"uint256","indexed":true,"internalType":"uint256"}],"anonymous":false},{"type":"event","name":"MembershipLimitUpdated","inputs":[{"name":"limit","type":"uint256","indexed":true,"internalType":"uint256"}],"anonymous":false},{"type":"event","name":"MembershipPriceUpdated","inputs":[{"name":"price","type":"uint256","indexed":true,"internalType":"uint256"}],"anonymous":false},{"type":"event","name":"Membership__ReferralCreated","inputs":[{"name":"code","type":"uint256","indexed":true,"internalType":"uint256"},{"name":"bps","type":"uint16","indexed":false,"internalType":"uint16"}],"anonymous":false},{"type":"event","name":"Membership__ReferralRemoved","inputs":[{"name":"code","type":"uint256","indexed":true,"internalType":"uint256"}],"anonymous":false},{"type":"event","name":"Membership__ReferralTimeCreated","inputs":[{"name":"code","type":"uint256","indexed":true,"internalType":"uint256"},{"name":"bps","type":"uint16","indexed":false,"internalType":"uint16"},{"name":"startTime","type":"uint256","indexed":false,"internalType":"uint256"},{"name":"endTime","type":"uint256","indexed":false,"internalType":"uint256"}],"anonymous":false},{"type":"event","name":"OwnershipTransferred","inputs":[{"name":"previousOwner","type":"address","indexed":true,"internalType":"address"},{"name":"newOwner","type":"address","indexed":true,"internalType":"address"}],"anonymous":false},{"type":"event","name":"Paused","inputs":[{"name":"account","type":"address","indexed":false,"internalType":"address"}],"anonymous":false},{"type":"event","name":"SubscriptionUpdate","inputs":[{"name":"tokenId","type":"uint256","indexed":true,"internalType":"uint256"},{"name":"expiration","type":"uint64","indexed":false,"internalType":"uint64"}],"anonymous":false},{"type":"event","name":"Transfer","inputs":[{"name":"from","type":"address","indexed":true,"internalType":"address"},{"name":"to","type":"address","indexed":true,"internalType":"address"},{"name":"tokenId","type":"uint256","indexed":true,"internalType":"uint256"}],"anonymous":false},{"type":"event","name":"Unbanned","inputs":[{"name":"tokenId","type":"uint256","indexed":true,"internalType":"uint256"}],"anonymous":false},{"type":"event","name":"Unpaused","inputs":[{"name":"account","type":"address","indexed":false,"internalType":"address"}],"anonymous":false},{"type":"error","name":"AddressEmptyCode","inputs":[{"name":"target","type":"address","internalType":"address"}]},{"type":"error","name":"AddressInsufficientBalance","inputs":[{"name":"account","type":"address","internalType":"address"}]},{"type":"error","name":"ApprovalCallerNotOwnerNorApproved","inputs":[]},{"type":"error","name":"ApprovalQueryForNonexistentToken","inputs":[]},{"type":"error","name":"BalanceQueryForZeroAddress","inputs":[]},{"type":"error","name":"Banning__AlreadyBanned","inputs":[{"name":"tokenId","type":"uint256","internalType":"uint256"}]},{"type":"error","name":"Banning__CannotBanSelf","inputs":[]},{"type":"error","name":"Banning__InvalidTokenId","inputs":[{"name":"tokenId","type":"uint256","internalType":"uint256"}]},{"type":"error","name":"Banning__NotBanned","inputs":[{"name":"tokenId","type":"uint256","internalType":"uint256"}]},{"type":"error","name":"ERC5643__DurationZero","inputs":[]},{"type":"error","name":"ERC5643__InvalidTokenId","inputs":[{"name":"tokenId","type":"uint256","internalType":"uint256"}]},{"type":"error","name":"ERC5643__NotApprovedOrOwner","inputs":[]},{"type":"error","name":"ERC5643__SubscriptionNotRenewable","inputs":[{"name":"tokenId","type":"uint256","internalType":"uint256"}]},{"type":"error","name":"Entitlement__InvalidValue","inputs":[]},{"type":"error","name":"Entitlement__NotAllowed","inputs":[]},{"type":"error","name":"Entitlement__NotMember","inputs":[]},{"type":"error","name":"Entitlement__ValueAlreadyExists","inputs":[]},{"type":"error","name":"FailedInnerCall","inputs":[]},{"type":"error","name":"Initializable_InInitializingState","inputs":[]},{"type":"error","name":"Initializable_NotInInitializingState","inputs":[]},{"type":"error","name":"Introspection_AlreadySupported","inputs":[]},{"type":"error","name":"Introspection_NotSupported","inputs":[]},{"type":"error","name":"Membership__AlreadyMember","inputs":[]},{"type":"error","name":"Membership__InsufficientPayment","inputs":[]},{"type":"error","name":"Membership__InvalidAddress","inputs":[]},{"type":"error","name":"Membership__InvalidCurrency","inputs":[]},{"type":"error","name":"Membership__InvalidDuration","inputs":[]},{"type":"error","name":"Membership__InvalidFeeRecipient","inputs":[]},{"type":"error","name":"Membership__InvalidFreeAllocation","inputs":[]},{"type":"error","name":"Membership__InvalidLimit","inputs":[]},{"type":"error","name":"Membership__InvalidMaxSupply","inputs":[]},{"type":"error","name":"Membership__InvalidPrice","inputs":[]},{"type":"error","name":"Membership__InvalidPricingModule","inputs":[]},{"type":"error","name":"Membership__InvalidReferralBps","inputs":[]},{"type":"error","name":"Membership__InvalidReferralCode","inputs":[]},{"type":"error","name":"Membership__InvalidReferralTime","inputs":[]},{"type":"error","name":"Membership__InvalidTokenId","inputs":[]},{"type":"error","name":"Membership__MaxSupplyReached","inputs":[]},{"type":"error","name":"Membership__NotExpired","inputs":[]},{"type":"error","name":"Membership__NotRenewable","inputs":[]},{"type":"error","name":"Membership__PriceTooLow","inputs":[]},{"type":"error","name":"MintERC2309QuantityExceedsLimit","inputs":[]},{"type":"error","name":"MintToZeroAddress","inputs":[]},{"type":"error","name":"MintZeroQuantity","inputs":[]},{"type":"error","name":"Ownable__NotOwner","inputs":[{"name":"account","type":"address","internalType":"address"}]},{"type":"error","name":"Ownable__ZeroAddress","inputs":[]},{"type":"error","name":"OwnerQueryForNonexistentToken","inputs":[]},{"type":"error","name":"OwnershipNotInitializedForExtraData","inputs":[]},{"type":"error","name":"Pausable__NotPaused","inputs":[]},{"type":"error","name":"Pausable__Paused","inputs":[]},{"type":"error","name":"ReentrancyGuard__ReentrantCall","inputs":[]},{"type":"error","name":"SafeERC20FailedOperation","inputs":[{"name":"token","type":"address","internalType":"address"}]},{"type":"error","name":"TransferCallerNotOwnerNorApproved","inputs":[]},{"type":"error","name":"TransferFromIncorrectOwner","inputs":[]},{"type":"error","name":"TransferToNonERC721ReceiverImplementer","inputs":[]},{"type":"error","name":"TransferToZeroAddress","inputs":[]},{"type":"error","name":"URIQueryForNonexistentToken","inputs":[]}],"bytecode":{"object":"0x60806040523480156200001157600080fd5b506200001c62000022565b620000ca565b7f2d0d21306acfe8e9bb163a4573e95aff6cef95dc1102c6a16d5f19eac08cc4de8054640100000000900460ff16156200006f576040516366008a2d60e01b815260040160405180910390fd5b805463ffffffff9081161015620000c757805463ffffffff191663ffffffff90811782556040519081527fe9c9b456cb2994b80aeef036cf59d26e9617df80f816a6ee5a5b4166e07e2f5c9060200160405180910390a15b50565b61401780620000da6000396000f3fe6080604052600436106102c95760003560e01c8063706b8e0911610175578063ac7ee626116100dc578063c87b56dd11610095578063df9a9fe61161006f578063df9a9fe6146107d9578063e847abdd146107f9578063e985e9c51461080e578063f9d5d22c1461083e57600080fd5b8063c87b56dd14610786578063d2f01f19146107a6578063d8480c38146107c657600080fd5b8063ac7ee626146106f4578063b3a5be6d14610709578063b6697f931461071e578063b83073761461073e578063b88d4fde1461075e578063bf3bc8781461077157600080fd5b80638934207f1161012e5780638934207f1461065557806389def3201461066a57806395d600c81461068a57806395d89b411461069f57806397fb7c1e146106b4578063a22cb465146106d457600080fd5b8063706b8e091461059357806370a08231146105a857806373fc5a05146105c85780637d0567c4146105e85780638120f0ba1461060857806383f3f0dc1461063557600080fd5b806342842e0e1161023457806362452006116101ed578063657e45e8116101c7578063657e45e81461052957806369d5f38a1461053e57806369d9346b1461055e578063702515631461057e57600080fd5b806362452006146104d45780636340d096146104f45780636352211e1461050957600080fd5b806342842e0e146104395780634c2abfbe1461044c5780635803909f1461046c5780635b312fce1461048c5780635becd24a146104a157806361a9c7df146104c157600080fd5b806317c957091161028657806317c957091461039c57806318160ddd146103bc57806318e5da65146103d15780631d214b4d146103f157806323b872dd146104065780633ded10de1461041957600080fd5b806306fdde03146102ce578063081812fc146102f9578063095ea7b3146103315780630c3a01b1146103465780631278076a1461036657806316a344b414610389575b600080fd5b3480156102da57600080fd5b506102e361085e565b6040516102f091906136f7565b60405180910390f35b34801561030557600080fd5b5061031961031436600461370a565b6108f9565b6040516001600160a01b0390911681526020016102f0565b61034461033f366004613743565b61090a565b005b34801561035257600080fd5b5061034461036136600461370a565b61091a565b34801561037257600080fd5b5061037b6109bf565b6040519081526020016102f0565b61037b61039736600461376f565b6109d1565b3480156103a857600080fd5b5061037b6103b736600461370a565b610abc565b3480156103c857600080fd5b5061037b610ad6565b3480156103dd57600080fd5b506103446103ec36600461376f565b610ae0565b3480156103fd57600080fd5b50610319610b35565b61034461041436600461378c565b610b51565b34801561042557600080fd5b5061037b61043436600461370a565b610d43565b61034461044736600461378c565b610e88565b34801561045857600080fd5b506103446104673660046138d3565b610ea8565b34801561047857600080fd5b5061037b61048736600461370a565b610f1e565b34801561049857600080fd5b50610319610f31565b3480156104ad57600080fd5b506103446104bc36600461370a565b610f4d565b6103446104cf36600461376f565b610fd2565b3480156104e057600080fd5b506103446104ef36600461376f565b611108565b34801561050057600080fd5b50610319611135565b34801561051557600080fd5b5061031961052436600461370a565b61113f565b34801561053557600080fd5b5061031961114a565b34801561054a57600080fd5b5061034461055936600461370a565b611154565b34801561056a57600080fd5b5061034461057936600461376f565b6111b1565b34801561058a57600080fd5b506103196111de565b34801561059f57600080fd5b5061037b6111fa565b3480156105b457600080fd5b5061037b6105c336600461376f565b611204565b3480156105d457600080fd5b506103446105e336600461370a565b611237565b3480156105f457600080fd5b5061034461060336600461376f565b611247565b34801561061457600080fd5b5061061d611294565b6040516001600160401b0390911681526020016102f0565b34801561064157600080fd5b506103446106503660046139dc565b61129e565b34801561066157600080fd5b5061037b6112eb565b34801561067657600080fd5b5061034461068536600461370a565b6112fe565b34801561069657600080fd5b5061037b611394565b3480156106ab57600080fd5b506102e361139e565b3480156106c057600080fd5b506103446106cf36600461370a565b6113b6565b3480156106e057600080fd5b506103446106ef366004613a07565b61140b565b34801561070057600080fd5b50610319611488565b34801561071557600080fd5b5061037b6114a4565b34801561072a57600080fd5b5061037b61073936600461376f565b611546565b34801561074a57600080fd5b5061034461075936600461376f565b611551565b61034461076c366004613a40565b61157e565b34801561077d57600080fd5b506103196115c8565b34801561079257600080fd5b506102e36107a136600461370a565b6115d2565b3480156107b257600080fd5b506103446107c1366004613abf565b611663565b61037b6107d436600461378c565b6116b7565b3480156107e557600080fd5b506103446107f436600461376f565b6117c2565b34801561080557600080fd5b50610319611836565b34801561081a57600080fd5b5061082e610829366004613b22565b611840565b60405190151581526020016102f0565b34801561084a57600080fd5b5061034461085936600461370a565b61184c565b606061086861188f565b600201805461087690613b50565b80601f01602080910402602001604051908101604052809291908181526020018280546108a290613b50565b80156108ef5780601f106108c4576101008083540402835291602001916108ef565b820191906000526020600020905b8154815290600101906020018083116108d257829003601f168201915b5050505050905090565b6000610904826118b3565b92915050565b61091682826001611900565b5050565b6000610924610f31565b90506000816001600160a01b0316630eac306d6040518163ffffffff1660e01b8152600401602060405180830381865afa158015610966573d6000803e3d6000fd5b505050506040513d601f19601f8201168201806040525081019061098a9190613b8a565b9050808310156109ad57604051631a23d64760e11b815260040160405180910390fd5b826109b66119b5565b60020155505050565b60006109cc6104346119d9565b905090565b60006002600080516020613fd78339815191525403610a0357604051635db5c7cd60e11b815260040160405180910390fd5b610a1a6002600080516020613fd783398151915255565b610a23826119f8565b610a2b611ae0565b90506000610a3a6104346119d9565b90508015610a8357610a4c8282611af0565b6000610a588483611b10565b90506000610a668284613bb9565b90508015610a8057610a8085610a7a610b35565b83611c2a565b50505b610a8e836001611c51565b610a9f82610a9a611c6b565b611d25565b50610ab76001600080516020613fd783398151915255565b919050565b6000610ac782611e17565b6001600160401b031692915050565b60006109cc6119d9565b610ae8611e51565b6001600160a01b0316336001600160a01b031614610b20576040516365f4906560e01b81523360048201526024015b60405180910390fd5b610b2981611f15565b610b3281611108565b50565b6000610b3f6119b5565b600501546001600160a01b0316919050565b6000610b5c82611f3c565b9050836001600160a01b0316816001600160a01b031614610b8f5760405162a1148160e81b815260040160405180910390fd5b600080610b9b84611fe0565b91509150610bc08187610bab3390565b6001600160a01b039081169116811491141790565b610beb57610bce8633611840565b610beb57604051632ce44b5f60e11b815260040160405180910390fd5b6001600160a01b038516610c1257604051633a954ecd60e21b815260040160405180910390fd5b610c1f8686866001612008565b8015610c2a57600082555b610c3261188f565b6001600160a01b0387166000908152600591909101602052604090208054600019019055610c5e61188f565b6001600160a01b03861660008181526005929092016020526040909120805460010190554260a01b17600160e11b17610c9561188f565b60008681526004919091016020526040812091909155600160e11b84169003610d0b5760018401610cc461188f565b600082815260049190910160205260408120549003610d0957610ce561188f565b548114610d095783610cf561188f565b600083815260049190910160205260409020555b505b83856001600160a01b0316876001600160a01b0316600080516020613ff783398151915260405160405180910390a45b505050505050565b600080610d4e6119b5565b90506000610d5a6114a4565b905083811115610d6e575060009392505050565b6006820154604051639262b1b360e01b815230600482015285916001600160a01b031690639262b1b390602401602060405180830381865afa158015610db8573d6000803e3d6000fd5b505050506040513d601f19601f82011682018060405250810190610ddc9190613b8a565b1115610dec575060009392505050565b60088201546001600160a01b031615610e7d576008820154604051635cf4ee9160e01b815260048101839052602481018690526001600160a01b0390911690635cf4ee9190604401602060405180830381865afa158015610e51573d6000803e3d6000fd5b505050506040513d601f19601f82011682018060405250810190610e759190613b8a565b949350505050565b506002015492915050565b610ea38383836040518060200160405280600081525061157e565b505050565b7f2d0d21306acfe8e9bb163a4573e95aff6cef95dc1102c6a16d5f19eac08cc4de54640100000000900460ff16610ef257604051630ef4733760e31b815260040160405180910390fd5b610f026364d3c4f960e01b612012565b610f0c82826120f0565b61091682600001518360200151612225565b600061090482610f2c6119d9565b612299565b6000610f3b6119b5565b600601546001600160a01b0316919050565b610f55611e51565b6001600160a01b0316336001600160a01b031614610f88576040516365f4906560e01b8152336004820152602401610b17565b6000610f926112eb565b90508015801590610fa257508082115b15610fc05760405163c3983b9160e01b815260040160405180910390fd5b610fc9826122df565b6109168261184c565b6002600080516020613fd7833981519152540361100257604051635db5c7cd60e11b815260040160405180910390fd5b6110196002600080516020613fd783398151915255565b6001600160a01b03811661104057604051635fbd571760e01b815260040160405180910390fd5b61104981612384565b600003611069576040516331d6fa3360e11b815260040160405180910390fd5b6000611074826123ec565b905061107f81612418565b61109c5760405163dce9a1d360e01b815260040160405180910390fd5b60006110aa82610f2c6119d9565b905080156110e35760006110be8483611b10565b905060006110cc8284613bb9565b905080156110e0576110e085610a7a610b35565b50505b6110ef82610a9a611c6b565b5050610b326001600080516020613fd783398151915255565b806111116119b5565b60050180546001600160a01b0319166001600160a01b039290921691909117905550565b60006109cc610f31565b600061090482611f3c565b60006109cc6111de565b61115c611e51565b6001600160a01b0316336001600160a01b03161461118f576040516365f4906560e01b8152336004820152602401610b17565b61119f61119a6111de565b61244f565b6111a881612476565b610b328161091a565b806111ba6119b5565b60080180546001600160a01b0319166001600160a01b039290921691909117905550565b60006111e86119b5565b600401546001600160a01b0316919050565b60006109cc6114a4565b600042611218611213846123ec565b611e17565b6001600160401b03161161122e57506000919050565b61090482612384565b806112406119b5565b6003015550565b61124f611e51565b6001600160a01b0316336001600160a01b031614611282576040516365f4906560e01b8152336004820152602401610b17565b61128b8161244f565b610b3281611551565b60006109cc611c6b565b6112a6611e51565b6001600160a01b0316336001600160a01b0316146112d9576040516365f4906560e01b8152336004820152602401610b17565b6112e281612504565b610b328161259f565b60006112f56119b5565b60030154905090565b6002600080516020613fd7833981519152540361132e57604051635db5c7cd60e11b815260040160405180910390fd5b6113456002600080516020613fd783398151915255565b61134e816125d2565b61136b576040516367d9dca160e11b815260040160405180910390fd5b61137481612628565b61137d81612633565b610b326001600080516020613fd783398151915255565b60006109cc6112eb565b60606113a861188f565b600301805461087690613b50565b6113be611e51565b6001600160a01b0316336001600160a01b0316146113f1576040516365f4906560e01b8152336004820152602401610b17565b611402816113fd6119d9565b6126a6565b610b3281611237565b8061141461188f565b336000818152600792909201602090815260408084206001600160a01b03881680865290835293819020805460ff19169515159590951790945592518415158152919290917f17307eab39ab6107e8899845ad3d59bd9653f200f220920489ca2b5937696c31910160405180910390a35050565b60006114926119b5565b600801546001600160a01b0316919050565b6000806114af6119b5565b60070154905080156114c057919050565b6114c86119b5565b60060160009054906101000a90046001600160a01b03166001600160a01b0316632cbb9d136040518163ffffffff1660e01b8152600401602060405180830381865afa15801561151c573d6000803e3d6000fd5b505050506040513d601f19601f820116820180604052508101906115409190613b8a565b91505090565b6000610904826123ec565b8061155a6119b5565b60040180546001600160a01b0319166001600160a01b039290921691909117905550565b611589848484610b51565b6001600160a01b0383163b156115c2576115a5848484846126ee565b6115c2576040516368d2bf6b60e11b815260040160405180910390fd5b50505050565b60006109cc610b35565b60606115dd826127d9565b6115fa57604051630a14c4b560e41b815260040160405180910390fd5b600061161160408051602081019091526000815290565b90508051600003611631576040518060200160405280600081525061165c565b8061163b84612815565b60405160200161164c929190613bcc565b6040516020818303038152906040525b9392505050565b7f2d0d21306acfe8e9bb163a4573e95aff6cef95dc1102c6a16d5f19eac08cc4de54640100000000900460ff166116ad57604051630ef4733760e31b815260040160405180910390fd5b6109168282612225565b60006002600080516020613fd783398151915254036116e957604051635db5c7cd60e11b815260040160405180910390fd5b6117006002600080516020613fd783398151915255565b611709846119f8565b611711611ae0565b905060006117206104346119d9565b90508015611793576117328282611af0565b600061173e8683611b10565b9050600061174c8284613bb9565b905080156117905760006117608287612859565b905061176d888883611c2a565b60006117798284613bb9565b9050801561178d5761178d89610a7a610b35565b50505b50505b61179e856001611c51565b6117aa82610a9a611c6b565b5061165c6001600080516020613fd783398151915255565b6117ca611e51565b6001600160a01b0316336001600160a01b0316146117fd576040516365f4906560e01b8152336004820152602401610b17565b6001600160a01b03811661182457604051630e88bf4b60e01b815260040160405180910390fd5b61182d8161290c565b610b32816111b1565b60006109cc611488565b600061165c83836129a9565b60006118566119b5565b6007810183905560405190915082907fab14a23e88fb272313490d4f20d63098e64fd38304c0e07a377db98c2b39b92f90600090a25050565b7f234d8962d7c9a6a6604d7f98797e6ad6d7a886804f7409feb26422e27bf8125490565b60006118be826127d9565b6118db576040516333d1c03960e21b815260040160405180910390fd5b6118e361188f565b60009283526006016020525060409020546001600160a01b031690565b600061190b8361113f565b9050811561194a57336001600160a01b0382161461194a5761192d81336129a9565b61194a576040516367d9dca160e11b815260040160405180910390fd5b8361195361188f565b6000858152600691909101602052604080822080546001600160a01b0319166001600160a01b0394851617905551859287811692908516917f8c5be1e5ebec7d5bd14f71427d1e84f3dd0314c0f7b2291e5b200ac8c7c3b9259190a450505050565b7f9b35df16c33a6c0e085c9ebd55fb367f81c58c2ed7e9bed98cc622f3308a600d90565b6000806119e461188f565b600101546119f061188f565b540303919050565b6001600160a01b038116611a1f57604051635fbd571760e01b815260040160405180910390fd5b6000611a2a33612384565b1115611a49576040516316d9a23f60e31b815260040160405180910390fd5b6000611a5482612384565b1115611a73576040516316d9a23f60e31b815260040160405180910390fd5b611a7b6112eb565b15801590611a975750611a8c6112eb565b611a946119d9565b10155b15611ab557604051637efcdb4960e01b815260040160405180910390fd5b610b32604051806040016040528060098152602001684a6f696e537061636560b81b815250826129e6565b6000611aea61188f565b54919050565b80611af96119b5565b600093845260090160205260409092209190915550565b600080611b1b6119b5565b905060008160060160009054906101000a90046001600160a01b031690506000816001600160a01b0316634ccb20c06040518163ffffffff1660e01b8152600401602060405180830381865afa158015611b79573d6000803e3d6000fd5b505050506040513d601f19601f82011682018060405250810190611b9d9190613bfb565b90506000826001600160a01b0316639f6542aa6040518163ffffffff1660e01b8152600401602060405180830381865afa158015611bdf573d6000803e3d6000fd5b505050506040513d601f19601f82011682018060405250810190611c039190613c18565b9050611c13868261ffff16612a1d565b9450611c20878387611c2a565b5050505092915050565b6000611c346119b5565b60048101549091506115c2906001600160a01b0316858585612a92565b610916828260405180602001604052806000815250612ad8565b600080611c766119b5565b6006810154909150600160a01b90046001600160401b031615611cac5760060154600160a01b90046001600160401b0316919050565b8060060160009054906101000a90046001600160a01b03166001600160a01b0316638120f0ba6040518163ffffffff1660e01b8152600401602060405180830381865afa158015611d01573d6000803e3d6000fd5b505050506040513d601f19601f820116820180604052508101906115409190613c3c565b60008281527f62df4f6c50e7f750c679c064ab345c286dd49de6e39940ae1538c75b44a0e3616020819052604082205490916001600160401b0390911690818103611d7b57611d748442613c59565b9050611db1565b611d8485612418565b611da457604051637be9098d60e11b815260048101869052602401610b17565b611dae8483613c59565b90505b60008581526020848152604091829020805467ffffffffffffffff19166001600160401b038516908117909155915191825286917f2ec2be2c4b90c2cf13ecb6751a24daed6bb741ae5ed3f7371aabf9402f6d62e8910160405180910390a25050505050565b60009081527f62df4f6c50e7f750c679c064ab345c286dd49de6e39940ae1538c75b44a0e36160205260409020546001600160401b031690565b6040805180820182527f9bd0e1a7aef81c47cff971a2fee48406b20f55522326b2e2616c49c24aa506d0546001600160a01b03168082527f9bd0e1a7aef81c47cff971a2fee48406b20f55522326b2e2616c49c24aa506d154602080840182905284516331a9108f60e11b815260048101929092529351600094636352211e92602480820193918290030181865afa158015611ef1573d6000803e3d6000fd5b505050506040513d601f19601f820116820180604052508101906115409190613bfb565b6001600160a01b038116610b3257604051631492df6160e21b815260040160405180910390fd5b6000611f4661188f565b600083815260049190910160205260408120549150600160e01b82169003611fc75780600003610ab757611f7861188f565b548210611f9857604051636f96cda160e11b815260040160405180910390fd5b611fa061188f565b600019909201600081815260049390930160205260409092205490508015611f9857919050565b604051636f96cda160e11b815260040160405180910390fd5b6000806000611fed61188f565b60009485526006016020525050604090912080549092909150565b6115c28284612b55565b6001600160e01b0319811660009081527fbc7de460bcfb6afd0c415c8c610d408bd914b18d7d0feec0da9e25348087a5c4602052604090205460ff16151560011461209f576001600160e01b0319811660009081527fbc7de460bcfb6afd0c415c8c610d408bd914b18d7d0feec0da9e25348087a5c460205260409020805460ff191660011790556120b8565b604051637967f77d60e11b815260040160405180910390fd5b6040516001600160e01b03198216907f78f84e5b1c5c05be2b5ad3800781dd404d6d6c6302bc755c0fe20f58a33a7f2290600090a250565b60006120fa6119b5565b6006810180546001600160a01b0319166001600160a01b038516179055608084015190915061212890612504565b6121358360c00151611f15565b6121428360e001516122df565b61215083610100015161290c565b6060830151600382015560a08301516001600160a01b031615612177578260a0015161218d565b73eeeeeeeeeeeeeeeeeeeeeeeeeeeeeeeeeeeeeeee5b6004820180546001600160a01b03199081166001600160a01b039384161790915560408501516002840155608085015160068401805467ffffffffffffffff60a01b1916600160a01b6001600160401b039093169290920291909117905560c0850151600584018054831691841691909117905560e08501516007840155610100909401516008909201805490941691161790915550565b7f2d0d21306acfe8e9bb163a4573e95aff6cef95dc1102c6a16d5f19eac08cc4de54640100000000900460ff1661226f57604051630ef4733760e31b815260040160405180910390fd5b61227f6380ac58cd60e01b612012565b61228f635b5e139f60e01b612012565b6109168282612ba1565b6000806122a46119b5565b6000858152600982016020526040902054909150156122d6576000848152600990910160205260409020549050610904565b610e7583610d43565b60006122e96119b5565b90508060060160009054906101000a90046001600160a01b03166001600160a01b0316632cbb9d136040518163ffffffff1660e01b8152600401602060405180830381865afa158015612340573d6000803e3d6000fd5b505050506040513d601f19601f820116820180604052508101906123649190613b8a565b8211156109165760405163c3983b9160e01b815260040160405180910390fd5b60006001600160a01b0382166123ad576040516323d3ad8160e21b815260040160405180910390fd5b6001600160401b036123bd61188f565b6005016000846001600160a01b03166001600160a01b0316815260200190815260200160002054169050919050565b60006123f66119b5565b6001600160a01b03909216600090815260019290920160205250604090205490565b600042612423611c6b565b6001600160401b03166124369190613c80565b61243f83611e17565b6001600160401b03161092915050565b6001600160a01b038116610b3257604051636da3122b60e01b815260040160405180910390fd5b6000612480610f31565b6001600160a01b0316630eac306d6040518163ffffffff1660e01b8152600401602060405180830381865afa1580156124bd573d6000803e3d6000fd5b505050506040513d601f19601f820116820180604052508101906124e19190613b8a565b90508082101561091657604051631a23d64760e11b815260040160405180910390fd5b61250c610f31565b6001600160a01b0316638120f0ba6040518163ffffffff1660e01b8152600401602060405180830381865afa158015612549573d6000803e3d6000fd5b505050506040513d601f19601f8201168201806040525081019061256d9190613c3c565b6001600160401b0316816001600160401b03161115610b32576040516341191e9760e11b815260040160405180910390fd5b806125a86119b5565b60060160146101000a8154816001600160401b0302191690836001600160401b0316021790555050565b6000806125de8361113f565b9050336001600160a01b0382168114806125fd57506125fd82826129a9565b80610e755750806001600160a01b0316612616856118b3565b6001600160a01b031614949350505050565b610b32816000612bd3565b7f62df4f6c50e7f750c679c064ab345c286dd49de6e39940ae1538c75b44a0e361600082815260209182526040808220805467ffffffffffffffff191690555190815282917f2ec2be2c4b90c2cf13ecb6751a24daed6bb741ae5ed3f7371aabf9402f6d62e8910160405180910390a250565b808210156126c757604051636664d51760e11b815260040160405180910390fd5b6126cf6112eb565b821161091657604051636664d51760e11b815260040160405180910390fd5b604051630a85bd0160e11b81526000906001600160a01b0385169063150b7a0290612723903390899088908890600401613c93565b6020604051808303816000875af192505050801561275e575060408051601f3d908101601f1916820190925261275b91810190613cc6565b60015b6127bc573d80801561278c576040519150601f19603f3d011682016040523d82523d6000602084013e612791565b606091505b5080516000036127b4576040516368d2bf6b60e11b815260040160405180910390fd5b805181602001fd5b6001600160e01b031916630a85bd0160e11b149050949350505050565b60006127e361188f565b54821080156109045750600160e01b6127fa61188f565b60008481526004919091016020526040902054161592915050565b606060a06040510180604052602081039150506000815280825b600183039250600a81066030018353600a90048061282f5750819003601f19909101908152919050565b60008181527fe51b25fea73f50a2b3aac2a4ae8549fcc692472b6c9df7ca78c0d969dad9e8416020819052604082205461ffff1680830361289f57600092505050610904565b6000848152600180840160209081526040928390208351808501909452805480855292015490830152158015906128e3575080514210806128e35750806020015142115b156128f45760009350505050610904565b612902868361ffff16612a1d565b9695505050505050565b6001600160a01b03811661291d5750565b6040516301ffc9a760e01b8152635cf4ee9160e01b60048201526001600160a01b038216906301ffc9a790602401602060405180830381865afa158015612968573d6000803e3d6000fd5b505050506040513d601f19601f8201168201806040525081019061298c9190613cf0565b610b3257604051630e88bf4b60e01b815260040160405180910390fd5b60006129b361188f565b6001600160a01b039384166000908152600791909101602090815260408083209490951682529290925250205460ff1690565b612a00604051806020016040528060008152508383612d50565b61091657604051630ce39a4b60e21b815260040160405180910390fd5b6000612710821115612a7b5760405162461bcd60e51b815260206004820152602160248201527f426173697320706f696e74732063616e6e6f74206578636565642031305f30306044820152600360fc1b6064820152608401610b17565b612710612a888385613d0d565b61165c9190613d24565b80156115c25773eeeeeeeeeeeeeeeeeeeeeeeeeeeeeeeeeeeeeeed196001600160a01b03851601612acc57612ac78282612dd4565b6115c2565b6115c284848484612e77565b612ae28383612eca565b6001600160a01b0383163b15610ea3576000612afc61188f565b5490508281035b612b1660008683806001019450866126ee565b612b33576040516368d2bf6b60e11b815260040160405180910390fd5b818110612b035781612b4361188f565b5414612b4e57600080fd5b5050505050565b6000612b5f6119b5565b60008481526020828152604080832080546001600160a01b039097166001600160a01b0319909716871790559482526001909201909152919091209190915550565b6000612bab61188f565b905060028101612bbb8482613d8e565b5060038101612bca8382613d8e565b50600090555050565b6000612bde83611f3c565b905080600080612bed86611fe0565b915091508415612c2d57612c02818433610bab565b612c2d57612c1083336129a9565b612c2d57604051632ce44b5f60e11b815260040160405180910390fd5b612c3b836000886001612008565b8015612c4657600082555b6fffffffffffffffffffffffffffffffff612c5f61188f565b6001600160a01b038516600081815260059290920160205260409091208054929092019091554260a01b17600360e01b17612c9861188f565b60008881526004919091016020526040812091909155600160e11b85169003612d0e5760018601612cc761188f565b600082815260049190910160205260408120549003612d0c57612ce861188f565b548114612d0c5784612cf861188f565b600083815260049190910160205260409020555b505b60405186906000906001600160a01b03861690600080516020613ff7833981519152908390a4612d3c61188f565b600190810180549091019055505050505050565b6000816001600160a01b0316612d64611e51565b6001600160a01b03161480610e7557507ff421ea548af7158b1d71ba0aeccf57104c067038bd8fd214edd05c09eb4f735b5460ff16158015610e755750610e75848385604051602001612db79190613e4d565b604051602081830303815290604052612dcf90613e69565b612fee565b6000826001600160a01b03168260405160006040518083038185875af1925050503d8060008114612e21576040519150601f19603f3d011682016040523d82523d6000602084013e612e26565b606091505b5050905080610ea35760405162461bcd60e51b815260206004820152601c60248201527f6e617469766520746f6b656e207472616e73666572206661696c6564000000006044820152606401610b17565b816001600160a01b0316836001600160a01b031603156115c257306001600160a01b03841603612eb557612ac76001600160a01b03851683836132d8565b6115c26001600160a01b038516848484613337565b6000612ed461188f565b5490506000829003612ef95760405163b562e8dd60e01b815260040160405180910390fd5b612f066000848385612008565b680100000000000000018202612f1a61188f565b6001600160a01b038516600081815260059290920160205260409091208054929092019091554260a01b6001841460e11b1717612f5561188f565b600083815260049190910160205260408120919091556001600160a01b038416908383019083908390600080516020613ff78339815191528180a4600183015b818114612fbb5780836000600080516020613ff7833981519152600080a4600101612f95565b5081600003612fdc57604051622e076360e81b815260040160405180910390fd5b80612fe561188f565b5550610ea39050565b600080612ffa84613370565b8051909150600080805b8381108015613011575082155b1561308157600085828151811061302a5761302a613e8d565b6020026020010151905061303d816134f9565b1561306e576001935061304e6119b5565b6001600160a01b0382166000908152600191909101602052604090205492505b508061307981613ea3565b915050613004565b508180156130d75750604051806040016040528060098152602001684a6f696e537061636560b81b8152506040516020016130bc9190613e4d565b6040516020818303038152906040526130d490613e69565b86145b156130e957600094505050505061165c565b60006130f3611e51565b905060005b855181101561314a57816001600160a01b031686828151811061311d5761311d613e8d565b60200260200101516001600160a01b031603613142576001965050505050505061165c565b6001016130f8565b5060008281527fc1018daddaf9f72ecd65a20aead115c1ff0284c02c63c382b67da9d3bd884c2c602052604090205460ff161561318f5760009550505050505061165c565b7f2df4f8e2489b335ef09ede56990b0838afbcdea6c639a41af44b533474fb855860005b6131bf8260010161350c565b8110156132c757600082816131d76001830185613516565b6001600160a01b039081168252602080830193909352604091820160002082516060810184529054918216815260ff600160a01b83048116151594820194909452600160a81b9091049092161580159183018290529192506132a85750805160405163a7b7287160e01b81526001600160a01b039091169063a7b7287190613267908f908c908f90600401613ebc565b602060405180830381865afa158015613284573d6000803e3d6000fd5b505050506040513d601f19601f820116820180604052508101906132a89190613cf0565b156132be5760019850505050505050505061165c565b506001016131b3565b5060009a9950505050505050505050565b6040516001600160a01b03838116602483015260448201839052610ea391859182169063a9059cbb906064015b604051602081830303815290604052915060e01b6020820180516001600160e01b038381831617835250505050613522565b6040516001600160a01b0384811660248301528381166044830152606482018390526115c29186918216906323b872dd90608401613305565b606060006133a57f438e2013c1d3a5bb9642eb30342f1d83ec0d3add620b71cdaf5043d9570b0a95546001600160a01b031690565b60405162468b7360e31b81526001600160a01b0385811660048301529192506000918316906302345b9890602401600060405180830381865afa1580156133f0573d6000803e3d6000fd5b505050506040513d6000823e601f3d908101601f191682016040526134189190810190613f25565b8051909150600061342a826001613c80565b6001600160401b03811115613441576134416137cd565b60405190808252806020026020018201604052801561346a578160200160208202803683370190505b50905060005b828110156134c45783818151811061348a5761348a613e8d565b60200260200101518282815181106134a4576134a4613e8d565b6001600160a01b0390921660209283029190910190910152600101613470565b50858183815181106134d8576134d8613e8d565b6001600160a01b039092166020928302919091019091015295945050505050565b60008061350583612384565b1192915050565b6000610904825490565b600061165c8383613585565b60006135376001600160a01b038416836135af565b9050805160001415801561355c57508080602001905181019061355a9190613cf0565b155b15610ea357604051635274afe760e01b81526001600160a01b0384166004820152602401610b17565b600082600001828154811061359c5761359c613e8d565b9060005260206000200154905092915050565b606061165c8383600084600080856001600160a01b031684866040516135d59190613e4d565b60006040518083038185875af1925050503d8060008114613612576040519150601f19603f3d011682016040523d82523d6000602084013e613617565b606091505b5091509150612902868383606082613637576136328261367e565b61165c565b815115801561364e57506001600160a01b0384163b155b1561367757604051639996b31560e01b81526001600160a01b0385166004820152602401610b17565b508061165c565b80511561368e5780518082602001fd5b604051630a12f52160e11b815260040160405180910390fd5b60005b838110156136c25781810151838201526020016136aa565b50506000910152565b600081518084526136e38160208601602086016136a7565b601f01601f19169290920160200192915050565b60208152600061165c60208301846136cb565b60006020828403121561371c57600080fd5b5035919050565b6001600160a01b0381168114610b3257600080fd5b8035610ab781613723565b6000806040838503121561375657600080fd5b823561376181613723565b946020939093013593505050565b60006020828403121561378157600080fd5b813561165c81613723565b6000806000606084860312156137a157600080fd5b83356137ac81613723565b925060208401356137bc81613723565b929592945050506040919091013590565b634e487b7160e01b600052604160045260246000fd5b60405161012081016001600160401b0381118282101715613806576138066137cd565b60405290565b604051601f8201601f191681016001600160401b0381118282101715613834576138346137cd565b604052919050565b60006001600160401b03831115613855576138556137cd565b613868601f8401601f191660200161380c565b905082815283838301111561387c57600080fd5b828260208301376000602084830101529392505050565b600082601f8301126138a457600080fd5b61165c8383356020850161383c565b6001600160401b0381168114610b3257600080fd5b8035610ab7816138b3565b600080604083850312156138e657600080fd5b82356001600160401b03808211156138fd57600080fd5b90840190610120828703121561391257600080fd5b61391a6137e3565b82358281111561392957600080fd5b61393588828601613893565b82525060208301358281111561394a57600080fd5b61395688828601613893565b602083015250604083013560408201526060830135606082015261397c608084016138c8565b608082015261398d60a08401613738565b60a082015261399e60c08401613738565b60c082015260e083013560e082015261010091506139bd828401613738565b828201528094505050506139d360208401613738565b90509250929050565b6000602082840312156139ee57600080fd5b813561165c816138b3565b8015158114610b3257600080fd5b60008060408385031215613a1a57600080fd5b8235613a2581613723565b91506020830135613a35816139f9565b809150509250929050565b60008060008060808587031215613a5657600080fd5b8435613a6181613723565b93506020850135613a7181613723565b92506040850135915060608501356001600160401b03811115613a9357600080fd5b8501601f81018713613aa457600080fd5b613ab38782356020840161383c565b91505092959194509250565b60008060408385031215613ad257600080fd5b82356001600160401b0380821115613ae957600080fd5b613af586838701613893565b93506020850135915080821115613b0b57600080fd5b50613b1885828601613893565b9150509250929050565b60008060408385031215613b3557600080fd5b8235613b4081613723565b91506020830135613a3581613723565b600181811c90821680613b6457607f821691505b602082108103613b8457634e487b7160e01b600052602260045260246000fd5b50919050565b600060208284031215613b9c57600080fd5b5051919050565b634e487b7160e01b600052601160045260246000fd5b8181038181111561090457610904613ba3565b60008351613bde8184602088016136a7565b835190830190613bf28183602088016136a7565b01949350505050565b600060208284031215613c0d57600080fd5b815161165c81613723565b600060208284031215613c2a57600080fd5b815161ffff8116811461165c57600080fd5b600060208284031215613c4e57600080fd5b815161165c816138b3565b6001600160401b03818116838216019080821115613c7957613c79613ba3565b5092915050565b8082018082111561090457610904613ba3565b6001600160a01b0385811682528416602082015260408101839052608060608201819052600090612902908301846136cb565b600060208284031215613cd857600080fd5b81516001600160e01b03198116811461165c57600080fd5b600060208284031215613d0257600080fd5b815161165c816139f9565b808202811582820484141761090457610904613ba3565b600082613d4157634e487b7160e01b600052601260045260246000fd5b500490565b601f821115610ea3576000816000526020600020601f850160051c81016020861015613d6f5750805b601f850160051c820191505b81811015610d3b57828155600101613d7b565b81516001600160401b03811115613da757613da76137cd565b613dbb81613db58454613b50565b84613d46565b602080601f831160018114613df05760008415613dd85750858301515b600019600386901b1c1916600185901b178555610d3b565b600085815260208120601f198616915b82811015613e1f57888601518255948401946001909101908401613e00565b5085821015613e3d5787850151600019600388901b60f8161c191681555b5050505050600190811b01905550565b60008251613e5f8184602087016136a7565b9190910192915050565b80516020808301519190811015613b845760001960209190910360031b1b16919050565b634e487b7160e01b600052603260045260246000fd5b600060018201613eb557613eb5613ba3565b5060010190565b606081526000613ecf60608301866136cb565b82810360208481019190915285518083528682019282019060005b81811015613f0f5784516001600160a01b031683529383019391830191600101613eea565b5050809350505050826040830152949350505050565b60006020808385031215613f3857600080fd5b82516001600160401b0380821115613f4f57600080fd5b818501915085601f830112613f6357600080fd5b815181811115613f7557613f756137cd565b8060051b9150613f8684830161380c565b8181529183018401918481019088841115613fa057600080fd5b938501935b83851015613fca5784519250613fba83613723565b8282529385019390850190613fa5565b9897505050505050505056fe50b052c8fb38984269a818b2b593d0584a81b1b99245abc0fab04abc7afb010fddf252ad1be2c89b69c2b068fc378daa952ba7f163c4a11628f55a4df523b3ef","linkReferences":{}},"methodIdentifiers":{"__ERC721A_init(string,string)":"d2f01f19","__Membership_init((string,string,uint256,uint256,uint64,address,address,uint256,address),address)":"4c2abfbe","_getMembershipCurrency()":"70251563","_getMembershipFeeRecipient()":"1d214b4d","_getMembershipFreeAllocation()":"b3a5be6d","_getMembershipPrice(uint256)":"3ded10de","_getMembershipSupplyLimit()":"8934207f","_getPricingModule()":"ac7ee626","_getTownFactory()":"5b312fce","_setMembershipCurrency(address)":"b8307376","_setMembershipFeeRecipient(address)":"62452006","_setMembershipFreeAllocation(uint256)":"f9d5d22c","_setMembershipPrice(uint256)":"0c3a01b1","_setMembershipSupplyLimit(uint256)":"73fc5a05","_setPricingModule(address)":"69d9346b","approve(address,uint256)":"095ea7b3","balanceOf(address)":"70a08231","cancelMembership(uint256)":"89def320","expiresAt(uint256)":"17c95709","getApproved(uint256)":"081812fc","getMembershipCurrency()":"657e45e8","getMembershipDuration()":"8120f0ba","getMembershipFeeRecipient()":"bf3bc878","getMembershipFreeAllocation()":"706b8e09","getMembershipLimit()":"95d600c8","getMembershipPrice()":"1278076a","getMembershipPricingModule()":"e847abdd","getMembershipRenewalPrice(uint256)":"5803909f","getTokenIdByMembership(address)":"b6697f93","getTownFactory()":"6340d096","isApprovedForAll(address,address)":"e985e9c5","joinTown(address)":"16a344b4","joinTownWithReferral(address,address,uint256)":"d8480c38","name()":"06fdde03","ownerOf(uint256)":"6352211e","renewMembership(address)":"61a9c7df","safeTransferFrom(address,address,uint256)":"42842e0e","safeTransferFrom(address,address,uint256,bytes)":"b88d4fde","setApprovalForAll(address,bool)":"a22cb465","setMembershipCurrency(address)":"7d0567c4","setMembershipDuration(uint64)":"83f3f0dc","setMembershipFeeRecipient(address)":"18e5da65","setMembershipFreeAllocation(uint256)":"5becd24a","setMembershipLimit(uint256)":"97fb7c1e","setMembershipPrice(uint256)":"69d5f38a","setMembershipPricingModule(address)":"df9a9fe6","symbol()":"95d89b41","tokenURI(uint256)":"c87b56dd","totalSupply()":"18160ddd","transferFrom(address,address,uint256)":"23b872dd"},"id":126}