{"abi":[{"type":"function","name":"__ERC721A_init","inputs":[{"name":"name_","type":"string","internalType":"string"},{"name":"symbol_","type":"string","internalType":"string"}],"outputs":[],"stateMutability":"nonpayable"},{"type":"function","name":"__Membership_init","inputs":[{"name":"info","type":"tuple","internalType":"struct IMembershipBase.Membership","components":[{"name":"name","type":"string","internalType":"string"},{"name":"symbol","type":"string","internalType":"string"},{"name":"price","type":"uint256","internalType":"uint256"},{"name":"maxSupply","type":"uint256","internalType":"uint256"},{"name":"duration","type":"uint64","internalType":"uint64"},{"name":"currency","type":"address","internalType":"address"},{"name":"feeRecipient","type":"address","internalType":"address"},{"name":"freeAllocation","type":"uint256","internalType":"uint256"},{"name":"pricingModule","type":"address","internalType":"address"}]},{"name":"spaceFactory","type":"address","internalType":"address"}],"outputs":[],"stateMutability":"nonpayable"},{"type":"function","name":"_getMembershipCurrency","inputs":[],"outputs":[{"name":"","type":"address","internalType":"address"}],"stateMutability":"view"},{"type":"function","name":"_getMembershipFeeRecipient","inputs":[],"outputs":[{"name":"","type":"address","internalType":"address"}],"stateMutability":"view"},{"type":"function","name":"_getMembershipFreeAllocation","inputs":[],"outputs":[{"name":"","type":"uint256","internalType":"uint256"}],"stateMutability":"view"},{"type":"function","name":"_getMembershipPrice","inputs":[{"name":"totalSupply","type":"uint256","internalType":"uint256"}],"outputs":[{"name":"","type":"uint256","internalType":"uint256"}],"stateMutability":"view"},{"type":"function","name":"_getMembershipSupplyLimit","inputs":[],"outputs":[{"name":"","type":"uint256","internalType":"uint256"}],"stateMutability":"view"},{"type":"function","name":"_getPricingModule","inputs":[],"outputs":[{"name":"","type":"address","internalType":"address"}],"stateMutability":"view"},{"type":"function","name":"_getSpaceFactory","inputs":[],"outputs":[{"name":"","type":"address","internalType":"address"}],"stateMutability":"view"},{"type":"function","name":"_setMembershipFeeRecipient","inputs":[{"name":"newRecipient","type":"address","internalType":"address"}],"outputs":[],"stateMutability":"nonpayable"},{"type":"function","name":"_setMembershipFreeAllocation","inputs":[{"name":"newAllocation","type":"uint256","internalType":"uint256"}],"outputs":[],"stateMutability":"nonpayable"},{"type":"function","name":"_setMembershipSupplyLimit","inputs":[{"name":"newLimit","type":"uint256","internalType":"uint256"}],"outputs":[],"stateMutability":"nonpayable"},{"type":"function","name":"_setPricingModule","inputs":[{"name":"newPricingModule","type":"address","internalType":"address"}],"outputs":[],"stateMutability":"nonpayable"},{"type":"function","name":"approve","inputs":[{"name":"to","type":"address","internalType":"address"},{"name":"tokenId","type":"uint256","internalType":"uint256"}],"outputs":[],"stateMutability":"payable"},{"type":"function","name":"balanceOf","inputs":[{"name":"account","type":"address","internalType":"address"}],"outputs":[{"name":"","type":"uint256","internalType":"uint256"}],"stateMutability":"view"},{"type":"function","name":"cancelMembership","inputs":[{"name":"tokenId","type":"uint256","internalType":"uint256"}],"outputs":[],"stateMutability":"nonpayable"},{"type":"function","name":"expiresAt","inputs":[{"name":"tokenId","type":"uint256","internalType":"uint256"}],"outputs":[{"name":"","type":"uint256","internalType":"uint256"}],"stateMutability":"view"},{"type":"function","name":"getApproved","inputs":[{"name":"tokenId","type":"uint256","internalType":"uint256"}],"outputs":[{"name":"","type":"address","internalType":"address"}],"stateMutability":"view"},{"type":"function","name":"getMembershipCurrency","inputs":[],"outputs":[{"name":"","type":"address","internalType":"address"}],"stateMutability":"view"},{"type":"function","name":"getMembershipDuration","inputs":[],"outputs":[{"name":"","type":"uint64","internalType":"uint64"}],"stateMutability":"view"},{"type":"function","name":"getMembershipFeeRecipient","inputs":[],"outputs":[{"name":"","type":"address","internalType":"address"}],"stateMutability":"view"},{"type":"function","name":"getMembershipFreeAllocation","inputs":[],"outputs":[{"name":"","type":"uint256","internalType":"uint256"}],"stateMutability":"view"},{"type":"function","name":"getMembershipLimit","inputs":[],"outputs":[{"name":"","type":"uint256","internalType":"uint256"}],"stateMutability":"view"},{"type":"function","name":"getMembershipPrice","inputs":[],"outputs":[{"name":"","type":"uint256","internalType":"uint256"}],"stateMutability":"view"},{"type":"function","name":"getMembershipPricingModule","inputs":[],"outputs":[{"name":"","type":"address","internalType":"address"}],"stateMutability":"view"},{"type":"function","name":"getMembershipRenewalPrice","inputs":[{"name":"tokenId","type":"uint256","internalType":"uint256"}],"outputs":[{"name":"","type":"uint256","internalType":"uint256"}],"stateMutability":"view"},{"type":"function","name":"getSpaceFactory","inputs":[],"outputs":[{"name":"","type":"address","internalType":"address"}],"stateMutability":"view"},{"type":"function","name":"getTokenIdByMembership","inputs":[{"name":"member","type":"address","internalType":"address"}],"outputs":[{"name":"","type":"uint256","internalType":"uint256"}],"stateMutability":"view"},{"type":"function","name":"isApprovedForAll","inputs":[{"name":"owner","type":"address","internalType":"address"},{"name":"operator","type":"address","internalType":"address"}],"outputs":[{"name":"","type":"bool","internalType":"bool"}],"stateMutability":"view"},{"type":"function","name":"joinSpace","inputs":[{"name":"receiver","type":"address","internalType":"address"}],"outputs":[{"name":"tokenId","type":"uint256","internalType":"uint256"}],"stateMutability":"payable"},{"type":"function","name":"joinSpaceWithReferral","inputs":[{"name":"receiver","type":"address","internalType":"address"},{"name":"referrer","type":"address","internalType":"address"},{"name":"referralCode","type":"uint256","internalType":"uint256"}],"outputs":[{"name":"tokenId","type":"uint256","internalType":"uint256"}],"stateMutability":"payable"},{"type":"function","name":"name","inputs":[],"outputs":[{"name":"","type":"string","internalType":"string"}],"stateMutability":"view"},{"type":"function","name":"ownerOf","inputs":[{"name":"tokenId","type":"uint256","internalType":"uint256"}],"outputs":[{"name":"","type":"address","internalType":"address"}],"stateMutability":"view"},{"type":"function","name":"renewMembership","inputs":[{"name":"receiver","type":"address","internalType":"address"}],"outputs":[],"stateMutability":"payable"},{"type":"function","name":"safeTransferFrom","inputs":[{"name":"from","type":"address","internalType":"address"},{"name":"to","type":"address","internalType":"address"},{"name":"tokenId","type":"uint256","internalType":"uint256"}],"outputs":[],"stateMutability":"payable"},{"type":"function","name":"safeTransferFrom","inputs":[{"name":"from","type":"address","internalType":"address"},{"name":"to","type":"address","internalType":"address"},{"name":"tokenId","type":"uint256","internalType":"uint256"},{"name":"_data","type":"bytes","internalType":"bytes"}],"outputs":[],"stateMutability":"payable"},{"type":"function","name":"setApprovalForAll","inputs":[{"name":"operator","type":"address","internalType":"address"},{"name":"approved","type":"bool","internalType":"bool"}],"outputs":[],"stateMutability":"nonpayable"},{"type":"function","name":"setMembershipCurrency","inputs":[{"name":"newCurrency","type":"address","internalType":"address"}],"outputs":[],"stateMutability":"nonpayable"},{"type":"function","name":"setMembershipDuration","inputs":[{"name":"newDuration","type":"uint64","internalType":"uint64"}],"outputs":[],"stateMutability":"nonpayable"},{"type":"function","name":"setMembershipFeeRecipient","inputs":[{"name":"newRecipient","type":"address","internalType":"address"}],"outputs":[],"stateMutability":"nonpayable"},{"type":"function","name":"setMembershipFreeAllocation","inputs":[{"name":"newAllocation","type":"uint256","internalType":"uint256"}],"outputs":[],"stateMutability":"nonpayable"},{"type":"function","name":"setMembershipLimit","inputs":[{"name":"newLimit","type":"uint256","internalType":"uint256"}],"outputs":[],"stateMutability":"nonpayable"},{"type":"function","name":"setMembershipPrice","inputs":[{"name":"newPrice","type":"uint256","internalType":"uint256"}],"outputs":[],"stateMutability":"nonpayable"},{"type":"function","name":"setMembershipPricingModule","inputs":[{"name":"pricingModule","type":"address","internalType":"address"}],"outputs":[],"stateMutability":"nonpayable"},{"type":"function","name":"symbol","inputs":[],"outputs":[{"name":"","type":"string","internalType":"string"}],"stateMutability":"view"},{"type":"function","name":"tokenURI","inputs":[{"name":"tokenId","type":"uint256","internalType":"uint256"}],"outputs":[{"name":"","type":"string","internalType":"string"}],"stateMutability":"view"},{"type":"function","name":"totalSupply","inputs":[],"outputs":[{"name":"","type":"uint256","internalType":"uint256"}],"stateMutability":"view"},{"type":"function","name":"transferFrom","inputs":[{"name":"from","type":"address","internalType":"address"},{"name":"to","type":"address","internalType":"address"},{"name":"tokenId","type":"uint256","internalType":"uint256"}],"outputs":[],"stateMutability":"payable"},{"type":"event","name":"Approval","inputs":[{"name":"owner","type":"address","indexed":true,"internalType":"address"},{"name":"approved","type":"address","indexed":true,"internalType":"address"},{"name":"tokenId","type":"uint256","indexed":true,"internalType":"uint256"}],"anonymous":false},{"type":"event","name":"ApprovalForAll","inputs":[{"name":"owner","type":"address","indexed":true,"internalType":"address"},{"name":"operator","type":"address","indexed":true,"internalType":"address"},{"name":"approved","type":"bool","indexed":false,"internalType":"bool"}],"anonymous":false},{"type":"event","name":"Banned","inputs":[{"name":"moderator","type":"address","indexed":true,"internalType":"address"},{"name":"tokenId","type":"uint256","indexed":true,"internalType":"uint256"}],"anonymous":false},{"type":"event","name":"ConsecutiveTransfer","inputs":[{"name":"fromTokenId","type":"uint256","indexed":true,"internalType":"uint256"},{"name":"toTokenId","type":"uint256","indexed":false,"internalType":"uint256"},{"name":"from","type":"address","indexed":true,"internalType":"address"},{"name":"to","type":"address","indexed":true,"internalType":"address"}],"anonymous":false},{"type":"event","name":"Initialized","inputs":[{"name":"version","type":"uint32","indexed":false,"internalType":"uint32"}],"anonymous":false},{"type":"event","name":"InterfaceAdded","inputs":[{"name":"interfaceId","type":"bytes4","indexed":true,"internalType":"bytes4"}],"anonymous":false},{"type":"event","name":"InterfaceRemoved","inputs":[{"name":"interfaceId","type":"bytes4","indexed":true,"internalType":"bytes4"}],"anonymous":false},{"type":"event","name":"MembershipCurrencyUpdated","inputs":[{"name":"currency","type":"address","indexed":true,"internalType":"address"}],"anonymous":false},{"type":"event","name":"MembershipFeeRecipientUpdated","inputs":[{"name":"recipient","type":"address","indexed":true,"internalType":"address"}],"anonymous":false},{"type":"event","name":"MembershipFreeAllocationUpdated","inputs":[{"name":"allocation","type":"uint256","indexed":true,"internalType":"uint256"}],"anonymous":false},{"type":"event","name":"MembershipLimitUpdated","inputs":[{"name":"limit","type":"uint256","indexed":true,"internalType":"uint256"}],"anonymous":false},{"type":"event","name":"MembershipPriceUpdated","inputs":[{"name":"price","type":"uint256","indexed":true,"internalType":"uint256"}],"anonymous":false},{"type":"event","name":"Membership__ReferralCreated","inputs":[{"name":"code","type":"uint256","indexed":true,"internalType":"uint256"},{"name":"bps","type":"uint16","indexed":false,"internalType":"uint16"}],"anonymous":false},{"type":"event","name":"Membership__ReferralRemoved","inputs":[{"name":"code","type":"uint256","indexed":true,"internalType":"uint256"}],"anonymous":false},{"type":"event","name":"Membership__ReferralTimeCreated","inputs":[{"name":"code","type":"uint256","indexed":true,"internalType":"uint256"},{"name":"bps","type":"uint16","indexed":false,"internalType":"uint16"},{"name":"startTime","type":"uint256","indexed":false,"internalType":"uint256"},{"name":"endTime","type":"uint256","indexed":false,"internalType":"uint256"}],"anonymous":false},{"type":"event","name":"OwnershipTransferred","inputs":[{"name":"previousOwner","type":"address","indexed":true,"internalType":"address"},{"name":"newOwner","type":"address","indexed":true,"internalType":"address"}],"anonymous":false},{"type":"event","name":"Paused","inputs":[{"name":"account","type":"address","indexed":false,"internalType":"address"}],"anonymous":false},{"type":"event","name":"SubscriptionUpdate","inputs":[{"name":"tokenId","type":"uint256","indexed":true,"internalType":"uint256"},{"name":"expiration","type":"uint64","indexed":false,"internalType":"uint64"}],"anonymous":false},{"type":"event","name":"Transfer","inputs":[{"name":"from","type":"address","indexed":true,"internalType":"address"},{"name":"to","type":"address","indexed":true,"internalType":"address"},{"name":"tokenId","type":"uint256","indexed":true,"internalType":"uint256"}],"anonymous":false},{"type":"event","name":"Unbanned","inputs":[{"name":"moderator","type":"address","indexed":true,"internalType":"address"},{"name":"tokenId","type":"uint256","indexed":true,"internalType":"uint256"}],"anonymous":false},{"type":"event","name":"Unpaused","inputs":[{"name":"account","type":"address","indexed":false,"internalType":"address"}],"anonymous":false},{"type":"error","name":"AddressEmptyCode","inputs":[{"name":"target","type":"address","internalType":"address"}]},{"type":"error","name":"AddressInsufficientBalance","inputs":[{"name":"account","type":"address","internalType":"address"}]},{"type":"error","name":"ApprovalCallerNotOwnerNorApproved","inputs":[]},{"type":"error","name":"ApprovalQueryForNonexistentToken","inputs":[]},{"type":"error","name":"BalanceQueryForZeroAddress","inputs":[]},{"type":"error","name":"Banning__AlreadyBanned","inputs":[{"name":"tokenId","type":"uint256","internalType":"uint256"}]},{"type":"error","name":"Banning__CannotBanSelf","inputs":[]},{"type":"error","name":"Banning__InvalidTokenId","inputs":[{"name":"tokenId","type":"uint256","internalType":"uint256"}]},{"type":"error","name":"Banning__NotBanned","inputs":[{"name":"tokenId","type":"uint256","internalType":"uint256"}]},{"type":"error","name":"ERC5643__DurationZero","inputs":[]},{"type":"error","name":"ERC5643__InvalidTokenId","inputs":[{"name":"tokenId","type":"uint256","internalType":"uint256"}]},{"type":"error","name":"ERC5643__NotApprovedOrOwner","inputs":[]},{"type":"error","name":"ERC5643__SubscriptionNotRenewable","inputs":[{"name":"tokenId","type":"uint256","internalType":"uint256"}]},{"type":"error","name":"Entitlement__InvalidValue","inputs":[]},{"type":"error","name":"Entitlement__NotAllowed","inputs":[]},{"type":"error","name":"Entitlement__NotMember","inputs":[]},{"type":"error","name":"Entitlement__ValueAlreadyExists","inputs":[]},{"type":"error","name":"FailedInnerCall","inputs":[]},{"type":"error","name":"Initializable_InInitializingState","inputs":[]},{"type":"error","name":"Initializable_NotInInitializingState","inputs":[]},{"type":"error","name":"Introspection_AlreadySupported","inputs":[]},{"type":"error","name":"Introspection_NotSupported","inputs":[]},{"type":"error","name":"Membership__AlreadyMember","inputs":[]},{"type":"error","name":"Membership__InsufficientPayment","inputs":[]},{"type":"error","name":"Membership__InvalidAddress","inputs":[]},{"type":"error","name":"Membership__InvalidCurrency","inputs":[]},{"type":"error","name":"Membership__InvalidDuration","inputs":[]},{"type":"error","name":"Membership__InvalidFeeRecipient","inputs":[]},{"type":"error","name":"Membership__InvalidFreeAllocation","inputs":[]},{"type":"error","name":"Membership__InvalidLimit","inputs":[]},{"type":"error","name":"Membership__InvalidMaxSupply","inputs":[]},{"type":"error","name":"Membership__InvalidPrice","inputs":[]},{"type":"error","name":"Membership__InvalidPricingModule","inputs":[]},{"type":"error","name":"Membership__InvalidReferralBps","inputs":[]},{"type":"error","name":"Membership__InvalidReferralCode","inputs":[]},{"type":"error","name":"Membership__InvalidReferralTime","inputs":[]},{"type":"error","name":"Membership__InvalidTokenId","inputs":[]},{"type":"error","name":"Membership__MaxSupplyReached","inputs":[]},{"type":"error","name":"Membership__NotExpired","inputs":[]},{"type":"error","name":"Membership__NotRenewable","inputs":[]},{"type":"error","name":"Membership__PriceTooLow","inputs":[]},{"type":"error","name":"MintERC2309QuantityExceedsLimit","inputs":[]},{"type":"error","name":"MintToZeroAddress","inputs":[]},{"type":"error","name":"MintZeroQuantity","inputs":[]},{"type":"error","name":"Ownable__NotOwner","inputs":[{"name":"account","type":"address","internalType":"address"}]},{"type":"error","name":"Ownable__ZeroAddress","inputs":[]},{"type":"error","name":"OwnerQueryForNonexistentToken","inputs":[]},{"type":"error","name":"OwnershipNotInitializedForExtraData","inputs":[]},{"type":"error","name":"Pausable__NotPaused","inputs":[]},{"type":"error","name":"Pausable__Paused","inputs":[]},{"type":"error","name":"ReentrancyGuard__ReentrantCall","inputs":[]},{"type":"error","name":"SafeERC20FailedOperation","inputs":[{"name":"token","type":"address","internalType":"address"}]},{"type":"error","name":"TransferCallerNotOwnerNorApproved","inputs":[]},{"type":"error","name":"TransferFromIncorrectOwner","inputs":[]},{"type":"error","name":"TransferToNonERC721ReceiverImplementer","inputs":[]},{"type":"error","name":"TransferToZeroAddress","inputs":[]},{"type":"error","name":"URIQueryForNonexistentToken","inputs":[]}],"bytecode":{"object":"0x60806040523480156200001157600080fd5b506200001c62000022565b620000ca565b7f59b501c3653afc186af7d48dda36cf6732bd21629a6295693664240a6ef520008054640100000000900460ff16156200006f576040516366008a2d60e01b815260040160405180910390fd5b805463ffffffff9081161015620000c757805463ffffffff191663ffffffff90811782556040519081527fe9c9b456cb2994b80aeef036cf59d26e9617df80f816a6ee5a5b4166e07e2f5c9060200160405180910390a15b50565b613d8080620000da6000396000f3fe6080604052600436106102935760003560e01c806377460cd31161015a578063ac7ee626116100c1578063c9f7c8331161007a578063c9f7c8331461072b578063d2f01f191461073e578063df9a9fe61461075e578063e847abdd1461077e578063e985e9c514610793578063f9d5d22c146107c357600080fd5b8063ac7ee62614610699578063b3a5be6d146106ae578063b6697f93146106c3578063b88d4fde146106e3578063bf3bc878146106f6578063c87b56dd1461070b57600080fd5b806389def3201161011357806389def320146105fc5780638c625b061461061c57806395d600c81461062f57806395d89b411461064457806397fb7c1e14610659578063a22cb4651461067957600080fd5b806377460cd31461055557806379dda5851461056a5780637d0567c41461057f5780638120f0ba1461059f57806383f3f0dc146105cc5780638934207f146105e757600080fd5b80635803909f116101fe57806369d5f38a116101b757806369d5f38a146104ab57806369d9346b146104cb57806370251563146104eb578063706b8e091461050057806370a082311461051557806373fc5a051461053557600080fd5b80635803909f146104035780635becd24a1461042357806361a9c7df1461044357806362452006146104565780636352211e14610476578063657e45e81461049657600080fd5b806318e5da651161025057806318e5da65146103685780631d214b4d1461038857806323b872dd1461039d5780633ded10de146103b057806342842e0e146103d05780634c2abfbe146103e357600080fd5b806306fdde0314610298578063081812fc146102c3578063095ea7b3146102fb5780631278076a1461031057806317c957091461033357806318160ddd14610353575b600080fd5b3480156102a457600080fd5b506102ad6107e3565b6040516102ba9190613480565b60405180910390f35b3480156102cf57600080fd5b506102e36102de366004613493565b61087e565b6040516001600160a01b0390911681526020016102ba565b61030e6103093660046134cc565b61088f565b005b34801561031c57600080fd5b5061032561089f565b6040519081526020016102ba565b34801561033f57600080fd5b5061032561034e366004613493565b6108b1565b34801561035f57600080fd5b506103256108cb565b34801561037457600080fd5b5061030e6103833660046134f8565b6108d5565b34801561039457600080fd5b506102e361092a565b61030e6103ab366004613515565b610946565b3480156103bc57600080fd5b506103256103cb366004613493565b610b38565b61030e6103de366004613515565b610cc7565b3480156103ef57600080fd5b5061030e6103fe36600461365c565b610ce7565b34801561040f57600080fd5b5061032561041e366004613493565b610d5d565b34801561042f57600080fd5b5061030e61043e366004613493565b610d70565b61030e6104513660046134f8565b610df5565b34801561046257600080fd5b5061030e6104713660046134f8565b610f36565b34801561048257600080fd5b506102e3610491366004613493565b610f63565b3480156104a257600080fd5b506102e3610f6e565b3480156104b757600080fd5b5061030e6104c6366004613493565b610f78565b3480156104d757600080fd5b5061030e6104e63660046134f8565b611026565b3480156104f757600080fd5b506102e3611053565b34801561050c57600080fd5b5061032561106f565b34801561052157600080fd5b506103256105303660046134f8565b611079565b34801561054157600080fd5b5061030e610550366004613493565b6110ac565b34801561056157600080fd5b506102e36110bc565b34801561057657600080fd5b506102e36110d8565b34801561058b57600080fd5b5061030e61059a3660046134f8565b6110e2565b3480156105ab57600080fd5b506105b461111d565b6040516001600160401b0390911681526020016102ba565b3480156105d857600080fd5b5061030e61059a366004613765565b3480156105f357600080fd5b50610325611127565b34801561060857600080fd5b5061030e610617366004613493565b61113a565b61032561062a3660046134f8565b6111d0565b34801561063b57600080fd5b506103256112b0565b34801561065057600080fd5b506102ad6112ba565b34801561066557600080fd5b5061030e610674366004613493565b6112d2565b34801561068557600080fd5b5061030e610694366004613790565b611327565b3480156106a557600080fd5b506102e36113a4565b3480156106ba57600080fd5b506103256113c0565b3480156106cf57600080fd5b506103256106de3660046134f8565b611462565b61030e6106f13660046137c9565b61146d565b34801561070257600080fd5b506102e36114b7565b34801561071757600080fd5b506102ad610726366004613493565b6114c1565b610325610739366004613515565b611552565b34801561074a57600080fd5b5061030e610759366004613848565b61165d565b34801561076a57600080fd5b5061030e6107793660046134f8565b6116b1565b34801561078a57600080fd5b506102e36116fe565b34801561079f57600080fd5b506107b36107ae3660046138ab565b611708565b60405190151581526020016102ba565b3480156107cf57600080fd5b5061030e6107de366004613493565b611714565b60606107ed611757565b60020180546107fb906138d9565b80601f0160208091040260200160405190810160405280929190818152602001828054610827906138d9565b80156108745780601f1061084957610100808354040283529160200191610874565b820191906000526020600020905b81548152906001019060200180831161085757829003601f168201915b5050505050905090565b60006108898261177b565b92915050565b61089b828260016117c8565b5050565b60006108ac6103cb61187d565b905090565b60006108bc8261189c565b6001600160401b031692915050565b60006108ac61187d565b6108dd6118d6565b6001600160a01b0316336001600160a01b031614610915576040516365f4906560e01b81523360048201526024015b60405180910390fd5b61091e8161199a565b61092781610f36565b50565b60006109346119c1565b600501546001600160a01b0316919050565b6000610951826119e5565b9050836001600160a01b0316816001600160a01b0316146109845760405162a1148160e81b815260040160405180910390fd5b60008061099084611a89565b915091506109b581876109a03390565b6001600160a01b039081169116811491141790565b6109e0576109c38633611708565b6109e057604051632ce44b5f60e11b815260040160405180910390fd5b6001600160a01b038516610a0757604051633a954ecd60e21b815260040160405180910390fd5b610a148686866001611ab1565b8015610a1f57600082555b610a27611757565b6001600160a01b0387166000908152600591909101602052604090208054600019019055610a53611757565b6001600160a01b03861660008181526005929092016020526040909120805460010190554260a01b17600160e11b17610a8a611757565b60008681526004919091016020526040812091909155600160e11b84169003610b005760018401610ab9611757565b600082815260049190910160205260408120549003610afe57610ada611757565b548114610afe5783610aea611757565b600083815260049190910160205260409020555b505b83856001600160a01b0316876001600160a01b0316600080516020613d6083398151915260405160405180910390a45b505050505050565b600080610b436119c1565b90506000610b4f6113c0565b905083811115610b63575060009392505050565b6006820154604051639262b1b360e01b815230600482015285916001600160a01b031690639262b1b390602401602060405180830381865afa158015610bad573d6000803e3d6000fd5b505050506040513d601f19601f82011682018060405250810190610bd19190613913565b1115610be1575060009392505050565b60088201546001600160a01b031615610c72576008820154604051635cf4ee9160e01b815260048101839052602481018690526001600160a01b0390911690635cf4ee9190604401602060405180830381865afa158015610c46573d6000803e3d6000fd5b505050506040513d601f19601f82011682018060405250810190610c6a9190613913565b949350505050565b8160060160009054906101000a90046001600160a01b03166001600160a01b0316630eac306d6040518163ffffffff1660e01b8152600401602060405180830381865afa158015610c46573d6000803e3d6000fd5b610ce28383836040518060200160405280600081525061146d565b505050565b7f59b501c3653afc186af7d48dda36cf6732bd21629a6295693664240a6ef5200054640100000000900460ff16610d3157604051630ef4733760e31b815260040160405180910390fd5b610d4163f5306a5360e01b611abb565b610d4b8282611b99565b61089b82600001518360200151611cf3565b600061088982610d6b61187d565b611d67565b610d786118d6565b6001600160a01b0316336001600160a01b031614610dab576040516365f4906560e01b815233600482015260240161090c565b6000610db5611127565b90508015801590610dc557508082115b15610de35760405163c3983b9160e01b815260040160405180910390fd5b610dec82611dad565b61089b82611714565b6002600080516020613d408339815191525403610e2557604051635db5c7cd60e11b815260040160405180910390fd5b610e3c6002600080516020613d4083398151915255565b6001600160a01b038116610e6357604051635fbd571760e01b815260040160405180910390fd5b610e6c81611e52565b600003610e8c576040516331d6fa3360e11b815260040160405180910390fd5b6000610e9782611eba565b9050610ea281611ee6565b610ebf5760405163dce9a1d360e01b815260040160405180910390fd5b6000610ecd82610d6b61187d565b90508015610f0c576000610ee18483611f1d565b90506000610eef8284613942565b90508015610f0957610f0985610f0361092a565b83612037565b50505b610f1d82610f1861205e565b6120e4565b50506109276001600080516020613d4083398151915255565b80610f3f6119c1565b60050180546001600160a01b0319166001600160a01b039290921691909117905550565b6000610889826119e5565b60006108ac611053565b610f806118d6565b6001600160a01b0316336001600160a01b031614610fb3576040516365f4906560e01b815233600482015260240161090c565b610fbc816121d6565b610fc46113a4565b6001600160a01b03166391b7f5ed826040518263ffffffff1660e01b8152600401610ff191815260200190565b600060405180830381600087803b15801561100b57600080fd5b505af115801561101f573d6000803e3d6000fd5b5050505050565b8061102f6119c1565b60080180546001600160a01b0319166001600160a01b039290921691909117905550565b600061105d6119c1565b600401546001600160a01b0316919050565b60006108ac6113c0565b60004261108d61108884611eba565b61189c565b6001600160401b0316116110a357506000919050565b61088982611e52565b806110b56119c1565b6003015550565b60006110c66119c1565b600601546001600160a01b0316919050565b60006108ac6110bc565b6110ea6118d6565b6001600160a01b0316336001600160a01b031614610927576040516365f4906560e01b815233600482015260240161090c565b60006108ac61205e565b60006111316119c1565b60030154905090565b6002600080516020613d40833981519152540361116a57604051635db5c7cd60e11b815260040160405180910390fd5b6111816002600080516020613d4083398151915255565b61118a81612264565b6111a7576040516367d9dca160e11b815260040160405180910390fd5b6111b0816122ba565b6111b9816122c5565b6109276001600080516020613d4083398151915255565b60006002600080516020613d40833981519152540361120257604051635db5c7cd60e11b815260040160405180910390fd5b6112196002600080516020613d4083398151915255565b61122282612338565b61122a612420565b905060006112396103cb61187d565b9050801561127c5761124b8282612430565b60006112578483611f1d565b905060006112658284613942565b905080156112795761127985610f0361092a565b50505b611287836001612450565b61129382610f1861205e565b506112ab6001600080516020613d4083398151915255565b919050565b60006108ac611127565b60606112c4611757565b60030180546107fb906138d9565b6112da6118d6565b6001600160a01b0316336001600160a01b03161461130d576040516365f4906560e01b815233600482015260240161090c565b61131e8161131961187d565b61246a565b610927816110ac565b80611330611757565b336000818152600792909201602090815260408084206001600160a01b03881680865290835293819020805460ff19169515159590951790945592518415158152919290917f17307eab39ab6107e8899845ad3d59bd9653f200f220920489ca2b5937696c31910160405180910390a35050565b60006113ae6119c1565b600801546001600160a01b0316919050565b6000806113cb6119c1565b60070154905080156113dc57919050565b6113e46119c1565b60060160009054906101000a90046001600160a01b03166001600160a01b0316632cbb9d136040518163ffffffff1660e01b8152600401602060405180830381865afa158015611438573d6000803e3d6000fd5b505050506040513d601f19601f8201168201806040525081019061145c9190613913565b91505090565b600061088982611eba565b611478848484610946565b6001600160a01b0383163b156114b157611494848484846124b2565b6114b1576040516368d2bf6b60e11b815260040160405180910390fd5b50505050565b60006108ac61092a565b60606114cc8261259d565b6114e957604051630a14c4b560e41b815260040160405180910390fd5b600061150060408051602081019091526000815290565b90508051600003611520576040518060200160405280600081525061154b565b8061152a846125d9565b60405160200161153b929190613955565b6040516020818303038152906040525b9392505050565b60006002600080516020613d40833981519152540361158457604051635db5c7cd60e11b815260040160405180910390fd5b61159b6002600080516020613d4083398151915255565b6115a484612338565b6115ac612420565b905060006115bb6103cb61187d565b9050801561162e576115cd8282612430565b60006115d98683611f1d565b905060006115e78284613942565b9050801561162b5760006115fb828761261d565b9050611608888883612037565b60006116148284613942565b905080156116285761162889610f0361092a565b50505b50505b611639856001612450565b61164582610f1861205e565b5061154b6001600080516020613d4083398151915255565b7f59b501c3653afc186af7d48dda36cf6732bd21629a6295693664240a6ef5200054640100000000900460ff166116a757604051630ef4733760e31b815260040160405180910390fd5b61089b8282611cf3565b6116b96118d6565b6001600160a01b0316336001600160a01b0316146116ec576040516365f4906560e01b815233600482015260240161090c565b6116f5816126d0565b61092781611026565b60006108ac6113a4565b600061154b8383612788565b600061171e6119c1565b6007810183905560405190915082907fab14a23e88fb272313490d4f20d63098e64fd38304c0e07a377db98c2b39b92f90600090a25050565b7f6569bde4a160c636ea8b8d11acb83a60d7fec0b8f2e09389306cba0e1340df0090565b60006117868261259d565b6117a3576040516333d1c03960e21b815260040160405180910390fd5b6117ab611757565b60009283526006016020525060409020546001600160a01b031690565b60006117d383610f63565b9050811561181257336001600160a01b03821614611812576117f58133612788565b611812576040516367d9dca160e11b815260040160405180910390fd5b8361181b611757565b6000858152600691909101602052604080822080546001600160a01b0319166001600160a01b0394851617905551859287811692908516917f8c5be1e5ebec7d5bd14f71427d1e84f3dd0314c0f7b2291e5b200ac8c7c3b9259190a450505050565b600080611888611757565b60010154611894611757565b540303919050565b60009081527f4775a23600034fdd9f073b224f794d51a58b35ba663a9602623ba7a5c09cce0060205260409020546001600160401b031690565b6040805180820182527fd2f24d4f172e4e84e48e7c4125b6e904c29e5eba33ad4938fee51dd5dbd4b600546001600160a01b03168082527fd2f24d4f172e4e84e48e7c4125b6e904c29e5eba33ad4938fee51dd5dbd4b60154602080840182905284516331a9108f60e11b815260048101929092529351600094636352211e92602480820193918290030181865afa158015611976573d6000803e3d6000fd5b505050506040513d601f19601f8201168201806040525081019061145c9190613984565b6001600160a01b03811661092757604051631492df6160e21b815260040160405180910390fd5b7fc21004fcc619240a31f006438274d15cd813308303284436eef6055f0fdcb60090565b60006119ef611757565b600083815260049190910160205260408120549150600160e01b82169003611a7057806000036112ab57611a21611757565b548210611a4157604051636f96cda160e11b815260040160405180910390fd5b611a49611757565b600019909201600081815260049390930160205260409092205490508015611a4157919050565b604051636f96cda160e11b815260040160405180910390fd5b6000806000611a96611757565b60009485526006016020525050604090912080549092909150565b6114b182846127c5565b6001600160e01b0319811660009081527f81088bbc801e045ea3e7620779ab349988f58afbdfba10dff983df3f33522b00602052604090205460ff161515600114611b48576001600160e01b0319811660009081527f81088bbc801e045ea3e7620779ab349988f58afbdfba10dff983df3f33522b0060205260409020805460ff19166001179055611b61565b604051637967f77d60e11b815260040160405180910390fd5b6040516001600160e01b03198216907f78f84e5b1c5c05be2b5ad3800781dd404d6d6c6302bc755c0fe20f58a33a7f2290600090a250565b6000611ba36119c1565b6006810180546001600160a01b038086166001600160a01b031992831617909255610100860151600884018054919093169082161790915560048201805490911673eeeeeeeeeeeeeeeeeeeeeeeeeeeeeeeeeeeeeeee1790556060840151600382015560e0840151600782015560c0840151909150611c219061199a565b60c08301516005820180546001600160a01b0319166001600160a01b0390921691909117905560e083015115611c5e57611c5e8360e00151611dad565b611c6c8361010001516126d0565b604083015115610ce257611c8383604001516121d6565b600881015460408085015190516391b7f5ed60e01b81526001600160a01b03909216916391b7f5ed91611cbc9160040190815260200190565b600060405180830381600087803b158015611cd657600080fd5b505af1158015611cea573d6000803e3d6000fd5b50505050505050565b7f59b501c3653afc186af7d48dda36cf6732bd21629a6295693664240a6ef5200054640100000000900460ff16611d3d57604051630ef4733760e31b815260040160405180910390fd5b611d4d6380ac58cd60e01b611abb565b611d5d635b5e139f60e01b611abb565b61089b8282612811565b600080611d726119c1565b600085815260098201602052604090205490915015611da4576000848152600990910160205260409020549050610889565b610c6a83610b38565b6000611db76119c1565b90508060060160009054906101000a90046001600160a01b03166001600160a01b0316632cbb9d136040518163ffffffff1660e01b8152600401602060405180830381865afa158015611e0e573d6000803e3d6000fd5b505050506040513d601f19601f82011682018060405250810190611e329190613913565b82111561089b5760405163c3983b9160e01b815260040160405180910390fd5b60006001600160a01b038216611e7b576040516323d3ad8160e21b815260040160405180910390fd5b6001600160401b03611e8b611757565b6005016000846001600160a01b03166001600160a01b0316815260200190815260200160002054169050919050565b6000611ec46119c1565b6001600160a01b03909216600090815260019290920160205250604090205490565b600042611ef161205e565b6001600160401b0316611f0491906139a1565b611f0d8361189c565b6001600160401b03161092915050565b600080611f286119c1565b905060008160060160009054906101000a90046001600160a01b031690506000816001600160a01b0316634ccb20c06040518163ffffffff1660e01b8152600401602060405180830381865afa158015611f86573d6000803e3d6000fd5b505050506040513d601f19601f82011682018060405250810190611faa9190613984565b90506000826001600160a01b0316639f6542aa6040518163ffffffff1660e01b8152600401602060405180830381865afa158015611fec573d6000803e3d6000fd5b505050506040513d601f19601f8201168201806040525081019061201091906139b4565b9050612020868261ffff16612843565b945061202d878387612037565b5050505092915050565b60006120416119c1565b60048101549091506114b1906001600160a01b03168585856128b8565b6000806120696119c1565b90508060060160009054906101000a90046001600160a01b03166001600160a01b0316638120f0ba6040518163ffffffff1660e01b8152600401602060405180830381865afa1580156120c0573d6000803e3d6000fd5b505050506040513d601f19601f8201168201806040525081019061145c91906139d8565b60008281527f4775a23600034fdd9f073b224f794d51a58b35ba663a9602623ba7a5c09cce006020819052604082205490916001600160401b039091169081810361213a5761213384426139f5565b9050612170565b61214385611ee6565b61216357604051637be9098d60e11b81526004810186905260240161090c565b61216d84836139f5565b90505b60008581526020848152604091829020805467ffffffffffffffff19166001600160401b038516908117909155915191825286917f2ec2be2c4b90c2cf13ecb6751a24daed6bb741ae5ed3f7371aabf9402f6d62e8910160405180910390a25050505050565b60006121e06110bc565b6001600160a01b0316630eac306d6040518163ffffffff1660e01b8152600401602060405180830381865afa15801561221d573d6000803e3d6000fd5b505050506040513d601f19601f820116820180604052508101906122419190613913565b90508082101561089b57604051631a23d64760e11b815260040160405180910390fd5b60008061227083610f63565b9050336001600160a01b03821681148061228f575061228f8282612788565b80610c6a5750806001600160a01b03166122a88561177b565b6001600160a01b031614949350505050565b6109278160006128fe565b7f4775a23600034fdd9f073b224f794d51a58b35ba663a9602623ba7a5c09cce00600082815260209182526040808220805467ffffffffffffffff191690555190815282917f2ec2be2c4b90c2cf13ecb6751a24daed6bb741ae5ed3f7371aabf9402f6d62e8910160405180910390a250565b6001600160a01b03811661235f57604051635fbd571760e01b815260040160405180910390fd5b600061236a33611e52565b1115612389576040516316d9a23f60e31b815260040160405180910390fd5b600061239482611e52565b11156123b3576040516316d9a23f60e31b815260040160405180910390fd5b6123bb611127565b158015906123d757506123cc611127565b6123d461187d565b10155b156123f557604051637efcdb4960e01b815260040160405180910390fd5b610927604051806040016040528060098152602001684a6f696e537061636560b81b81525082612a7b565b600061242a611757565b54919050565b806124396119c1565b600093845260090160205260409092209190915550565b61089b828260405180602001604052806000815250612aa4565b8082101561248b57604051636664d51760e11b815260040160405180910390fd5b612493611127565b821161089b57604051636664d51760e11b815260040160405180910390fd5b604051630a85bd0160e11b81526000906001600160a01b0385169063150b7a02906124e7903390899088908890600401613a1c565b6020604051808303816000875af1925050508015612522575060408051601f3d908101601f1916820190925261251f91810190613a4f565b60015b612580573d808015612550576040519150601f19603f3d011682016040523d82523d6000602084013e612555565b606091505b508051600003612578576040516368d2bf6b60e11b815260040160405180910390fd5b805181602001fd5b6001600160e01b031916630a85bd0160e11b149050949350505050565b60006125a7611757565b54821080156108895750600160e01b6125be611757565b60008481526004919091016020526040902054161592915050565b606060a06040510180604052602081039150506000815280825b600183039250600a81066030018353600a9004806125f35750819003601f19909101908152919050565b60008181527f3c2290b88407133303e904ceb4ee7d0d14164eda8a629372d8406216ceb57e006020819052604082205461ffff1680830361266357600092505050610889565b6000848152600180840160209081526040928390208351808501909452805480855292015490830152158015906126a7575080514210806126a75750806020015142115b156126b85760009350505050610889565b6126c6868361ffff16612843565b9695505050505050565b6001600160a01b0381166126f757604051630e88bf4b60e01b815260040160405180910390fd5b6126ff6110bc565b6040516346fc05eb60e11b81526001600160a01b0383811660048301529190911690638df80bd690602401602060405180830381865afa158015612747573d6000803e3d6000fd5b505050506040513d601f19601f8201168201806040525081019061276b9190613a79565b61092757604051630e88bf4b60e01b815260040160405180910390fd5b6000612792611757565b6001600160a01b039384166000908152600791909101602090815260408083209490951682529290925250205460ff1690565b60006127cf6119c1565b60008481526020828152604080832080546001600160a01b039097166001600160a01b0319909716871790559482526001909201909152919091209190915550565b600061281b611757565b90506002810161282b8482613ade565b506003810161283a8382613ade565b50600090555050565b60006127108211156128a15760405162461bcd60e51b815260206004820152602160248201527f426173697320706f696e74732063616e6e6f74206578636565642031305f30306044820152600360fc1b606482015260840161090c565b6127106128ae8385613b9d565b61154b9190613bb4565b80156114b15773eeeeeeeeeeeeeeeeeeeeeeeeeeeeeeeeeeeeeeed196001600160a01b038516016128f2576128ed8282612b1a565b6114b1565b6114b184848484612bbd565b6000612909836119e5565b90508060008061291886611a89565b9150915084156129585761292d8184336109a0565b6129585761293b8333612788565b61295857604051632ce44b5f60e11b815260040160405180910390fd5b612966836000886001611ab1565b801561297157600082555b6fffffffffffffffffffffffffffffffff61298a611757565b6001600160a01b038516600081815260059290920160205260409091208054929092019091554260a01b17600360e01b176129c3611757565b60008881526004919091016020526040812091909155600160e11b85169003612a3957600186016129f2611757565b600082815260049190910160205260408120549003612a3757612a13611757565b548114612a375784612a23611757565b600083815260049190910160205260409020555b505b60405186906000906001600160a01b03861690600080516020613d60833981519152908390a4612a67611757565b600190810180549091019055505050505050565b612a8760008383612c10565b61089b57604051630ce39a4b60e21b815260040160405180910390fd5b612aae8383612c94565b6001600160a01b0383163b15610ce2576000612ac8611757565b5490508281035b612ae260008683806001019450866124b2565b612aff576040516368d2bf6b60e11b815260040160405180910390fd5b818110612acf5781612b0f611757565b541461101f57600080fd5b6000826001600160a01b03168260405160006040518083038185875af1925050503d8060008114612b67576040519150601f19603f3d011682016040523d82523d6000602084013e612b6c565b606091505b5050905080610ce25760405162461bcd60e51b815260206004820152601c60248201527f6e617469766520746f6b656e207472616e73666572206661696c656400000000604482015260640161090c565b816001600160a01b0316836001600160a01b031603156114b157306001600160a01b03841603612bfb576128ed6001600160a01b0385168383612db8565b6114b16001600160a01b038516848484612e17565b6000816001600160a01b0316612c246118d6565b6001600160a01b03161480610c6a57507fe17a067c7963a59b6dfd65d33b053fdbea1c56500e2aae4f976d9eda4da9eb005460ff16158015610c6a5750610c6a848385604051602001612c779190613bd6565b604051602081830303815290604052612c8f90613bf2565b612e50565b6000612c9e611757565b5490506000829003612cc35760405163b562e8dd60e01b815260040160405180910390fd5b612cd06000848385611ab1565b680100000000000000018202612ce4611757565b6001600160a01b038516600081815260059290920160205260409091208054929092019091554260a01b6001841460e11b1717612d1f611757565b600083815260049190910160205260408120919091556001600160a01b038416908383019083908390600080516020613d608339815191528180a4600183015b818114612d855780836000600080516020613d60833981519152600080a4600101612d5f565b5081600003612da657604051622e076360e81b815260040160405180910390fd5b80612daf611757565b5550610ce29050565b6040516001600160a01b03838116602483015260448201839052610ce291859182169063a9059cbb906064015b604051602081830303815290604052915060e01b6020820180516001600160e01b0383818316178352505050506130d0565b6040516001600160a01b0384811660248301528381166044830152606482018390526114b19186918216906323b872dd90608401612de5565b600080612e5c84613133565b8051909150600080612e6c6118d6565b90506000805b84811015612f1d576000868281518110612e8e57612e8e613c16565b60200260200101519050836001600160a01b0316878381518110612eb457612eb4613c16565b60200260200101516001600160a01b031603612eda57600197505050505050505061154b565b612ee3816132bc565b15612f145760019450612ef46119c1565b6001600160a01b0382166000908152600191909101602052604090205492505b50600101612e72565b5060008181527f49daf035076c43671ca9f9fb568d931e51ab7f9098a5a694781b45341112cf02602052604090205460ff1615612f625760009550505050505061154b565b7fa558e822bd359dacbe30f0da89cbfde5f95895b441e13a4864caec1423c931006000612fae7fa558e822bd359dacbe30f0da89cbfde5f95895b441e13a4864caec1423c931016132cf565b905060005b818110156130be5760008381612fcc60018301856132d9565b6001600160a01b039081168252602080830193909352604091820160002082516060810184529054918216815260ff600160a01b83048116151594820194909452600160a81b90910490921615801591830182905291925061309e575080600001516001600160a01b0316630cf0b5338e8b8e6040518463ffffffff1660e01b815260040161305d93929190613c2c565b602060405180830381865afa15801561307a573d6000803e3d6000fd5b505050506040513d601f19601f8201168201806040525081019061309e9190613a79565b156130b5576001995050505050505050505061154b565b50600101612fb3565b5060009b9a5050505050505050505050565b60006130e56001600160a01b038416836132e5565b9050805160001415801561310a5750808060200190518101906131089190613a79565b155b15610ce257604051635274afe760e01b81526001600160a01b038416600482015260240161090c565b606060006131687f438e2013c1d3a5bb9642eb30342f1d83ec0d3add620b71cdaf5043d9570b0a95546001600160a01b031690565b60405162468b7360e31b81526001600160a01b0385811660048301529192506000918316906302345b9890602401600060405180830381865afa1580156131b3573d6000803e3d6000fd5b505050506040513d6000823e601f3d908101601f191682016040526131db9190810190613c8e565b805190915060006131ed8260016139a1565b6001600160401b0381111561320457613204613556565b60405190808252806020026020018201604052801561322d578160200160208202803683370190505b50905060005b828110156132875783818151811061324d5761324d613c16565b602002602001015182828151811061326757613267613c16565b6001600160a01b0390921660209283029190910190910152600101613233565b508581838151811061329b5761329b613c16565b6001600160a01b039092166020928302919091019091015295945050505050565b6000806132c883611e52565b1192915050565b6000610889825490565b600061154b83836132f3565b606061154b8383600061331d565b600082600001828154811061330a5761330a613c16565b9060005260206000200154905092915050565b6060814710156133425760405163cd78605960e01b815230600482015260240161090c565b600080856001600160a01b0316848660405161335e9190613bd6565b60006040518083038185875af1925050503d806000811461339b576040519150601f19603f3d011682016040523d82523d6000602084013e6133a0565b606091505b50915091506126c68683836060826133c0576133bb82613407565b61154b565b81511580156133d757506001600160a01b0384163b155b1561340057604051639996b31560e01b81526001600160a01b038516600482015260240161090c565b508061154b565b8051156134175780518082602001fd5b604051630a12f52160e11b815260040160405180910390fd5b60005b8381101561344b578181015183820152602001613433565b50506000910152565b6000815180845261346c816020860160208601613430565b601f01601f19169290920160200192915050565b60208152600061154b6020830184613454565b6000602082840312156134a557600080fd5b5035919050565b6001600160a01b038116811461092757600080fd5b80356112ab816134ac565b600080604083850312156134df57600080fd5b82356134ea816134ac565b946020939093013593505050565b60006020828403121561350a57600080fd5b813561154b816134ac565b60008060006060848603121561352a57600080fd5b8335613535816134ac565b92506020840135613545816134ac565b929592945050506040919091013590565b634e487b7160e01b600052604160045260246000fd5b60405161012081016001600160401b038111828210171561358f5761358f613556565b60405290565b604051601f8201601f191681016001600160401b03811182821017156135bd576135bd613556565b604052919050565b60006001600160401b038311156135de576135de613556565b6135f1601f8401601f1916602001613595565b905082815283838301111561360557600080fd5b828260208301376000602084830101529392505050565b600082601f83011261362d57600080fd5b61154b838335602085016135c5565b6001600160401b038116811461092757600080fd5b80356112ab8161363c565b6000806040838503121561366f57600080fd5b82356001600160401b038082111561368657600080fd5b90840190610120828703121561369b57600080fd5b6136a361356c565b8235828111156136b257600080fd5b6136be8882860161361c565b8252506020830135828111156136d357600080fd5b6136df8882860161361c565b602083015250604083013560408201526060830135606082015261370560808401613651565b608082015261371660a084016134c1565b60a082015261372760c084016134c1565b60c082015260e083013560e082015261010091506137468284016134c1565b8282015280945050505061375c602084016134c1565b90509250929050565b60006020828403121561377757600080fd5b813561154b8161363c565b801515811461092757600080fd5b600080604083850312156137a357600080fd5b82356137ae816134ac565b915060208301356137be81613782565b809150509250929050565b600080600080608085870312156137df57600080fd5b84356137ea816134ac565b935060208501356137fa816134ac565b92506040850135915060608501356001600160401b0381111561381c57600080fd5b8501601f8101871361382d57600080fd5b61383c878235602084016135c5565b91505092959194509250565b6000806040838503121561385b57600080fd5b82356001600160401b038082111561387257600080fd5b61387e8683870161361c565b9350602085013591508082111561389457600080fd5b506138a18582860161361c565b9150509250929050565b600080604083850312156138be57600080fd5b82356138c9816134ac565b915060208301356137be816134ac565b600181811c908216806138ed57607f821691505b60208210810361390d57634e487b7160e01b600052602260045260246000fd5b50919050565b60006020828403121561392557600080fd5b5051919050565b634e487b7160e01b600052601160045260246000fd5b818103818111156108895761088961392c565b60008351613967818460208801613430565b83519083019061397b818360208801613430565b01949350505050565b60006020828403121561399657600080fd5b815161154b816134ac565b808201808211156108895761088961392c565b6000602082840312156139c657600080fd5b815161ffff8116811461154b57600080fd5b6000602082840312156139ea57600080fd5b815161154b8161363c565b6001600160401b03818116838216019080821115613a1557613a1561392c565b5092915050565b6001600160a01b03858116825284166020820152604081018390526080606082018190526000906126c690830184613454565b600060208284031215613a6157600080fd5b81516001600160e01b03198116811461154b57600080fd5b600060208284031215613a8b57600080fd5b815161154b81613782565b601f821115610ce2576000816000526020600020601f850160051c81016020861015613abf5750805b601f850160051c820191505b81811015610b3057828155600101613acb565b81516001600160401b03811115613af757613af7613556565b613b0b81613b0584546138d9565b84613a96565b602080601f831160018114613b405760008415613b285750858301515b600019600386901b1c1916600185901b178555610b30565b600085815260208120601f198616915b82811015613b6f57888601518255948401946001909101908401613b50565b5085821015613b8d5787850151600019600388901b60f8161c191681555b5050505050600190811b01905550565b80820281158282048414176108895761088961392c565b600082613bd157634e487b7160e01b600052601260045260246000fd5b500490565b60008251613be8818460208701613430565b9190910192915050565b8051602080830151919081101561390d5760001960209190910360031b1b16919050565b634e487b7160e01b600052603260045260246000fd5b60006060820185835260206060602085015281865180845260808601915060208801935060005b81811015613c785784516001600160a01b031683529383019391830191600101613c53565b5050809350505050826040830152949350505050565b60006020808385031215613ca157600080fd5b82516001600160401b0380821115613cb857600080fd5b818501915085601f830112613ccc57600080fd5b815181811115613cde57613cde613556565b8060051b9150613cef848301613595565b8181529183018401918481019088841115613d0957600080fd5b938501935b83851015613d335784519250613d23836134ac565b8282529385019390850190613d0e565b9897505050505050505056fe54f22f54f370bd020e00ee80e1a5099a71652e2ccbcf6a75281e4c70a3e11a00ddf252ad1be2c89b69c2b068fc378daa952ba7f163c4a11628f55a4df523b3ef","linkReferences":{}},"methodIdentifiers":{"__ERC721A_init(string,string)":"d2f01f19","__Membership_init((string,string,uint256,uint256,uint64,address,address,uint256,address),address)":"4c2abfbe","_getMembershipCurrency()":"70251563","_getMembershipFeeRecipient()":"1d214b4d","_getMembershipFreeAllocation()":"b3a5be6d","_getMembershipPrice(uint256)":"3ded10de","_getMembershipSupplyLimit()":"8934207f","_getPricingModule()":"ac7ee626","_getSpaceFactory()":"77460cd3","_setMembershipFeeRecipient(address)":"62452006","_setMembershipFreeAllocation(uint256)":"f9d5d22c","_setMembershipSupplyLimit(uint256)":"73fc5a05","_setPricingModule(address)":"69d9346b","approve(address,uint256)":"095ea7b3","balanceOf(address)":"70a08231","cancelMembership(uint256)":"89def320","expiresAt(uint256)":"17c95709","getApproved(uint256)":"081812fc","getMembershipCurrency()":"657e45e8","getMembershipDuration()":"8120f0ba","getMembershipFeeRecipient()":"bf3bc878","getMembershipFreeAllocation()":"706b8e09","getMembershipLimit()":"95d600c8","getMembershipPrice()":"1278076a","getMembershipPricingModule()":"e847abdd","getMembershipRenewalPrice(uint256)":"5803909f","getSpaceFactory()":"79dda585","getTokenIdByMembership(address)":"b6697f93","isApprovedForAll(address,address)":"e985e9c5","joinSpace(address)":"8c625b06","joinSpaceWithReferral(address,address,uint256)":"c9f7c833","name()":"06fdde03","ownerOf(uint256)":"6352211e","renewMembership(address)":"61a9c7df","safeTransferFrom(address,address,uint256)":"42842e0e","safeTransferFrom(address,address,uint256,bytes)":"b88d4fde","setApprovalForAll(address,bool)":"a22cb465","setMembershipCurrency(address)":"7d0567c4","setMembershipDuration(uint64)":"83f3f0dc","setMembershipFeeRecipient(address)":"18e5da65","setMembershipFreeAllocation(uint256)":"5becd24a","setMembershipLimit(uint256)":"97fb7c1e","setMembershipPrice(uint256)":"69d5f38a","setMembershipPricingModule(address)":"df9a9fe6","symbol()":"95d89b41","tokenURI(uint256)":"c87b56dd","totalSupply()":"18160ddd","transferFrom(address,address,uint256)":"23b872dd"},"id":150}