{"abi":[{"type":"function","name":"__ERC721A_init","inputs":[{"name":"name_","type":"string","internalType":"string"},{"name":"symbol_","type":"string","internalType":"string"}],"outputs":[],"stateMutability":"nonpayable"},{"type":"function","name":"__Membership_init","inputs":[{"name":"info","type":"tuple","internalType":"struct IMembershipBase.Membership","components":[{"name":"name","type":"string","internalType":"string"},{"name":"symbol","type":"string","internalType":"string"},{"name":"price","type":"uint256","internalType":"uint256"},{"name":"maxSupply","type":"uint256","internalType":"uint256"},{"name":"duration","type":"uint64","internalType":"uint64"},{"name":"currency","type":"address","internalType":"address"},{"name":"feeRecipient","type":"address","internalType":"address"},{"name":"freeAllocation","type":"uint256","internalType":"uint256"},{"name":"pricingModule","type":"address","internalType":"address"}]},{"name":"spaceFactory","type":"address","internalType":"address"}],"outputs":[],"stateMutability":"nonpayable"},{"type":"function","name":"_getMembershipCurrency","inputs":[],"outputs":[{"name":"","type":"address","internalType":"address"}],"stateMutability":"view"},{"type":"function","name":"_getMembershipFeeRecipient","inputs":[],"outputs":[{"name":"","type":"address","internalType":"address"}],"stateMutability":"view"},{"type":"function","name":"_getMembershipFreeAllocation","inputs":[],"outputs":[{"name":"","type":"uint256","internalType":"uint256"}],"stateMutability":"view"},{"type":"function","name":"_getMembershipPrice","inputs":[{"name":"totalSupply","type":"uint256","internalType":"uint256"}],"outputs":[{"name":"","type":"uint256","internalType":"uint256"}],"stateMutability":"view"},{"type":"function","name":"_getMembershipSupplyLimit","inputs":[],"outputs":[{"name":"","type":"uint256","internalType":"uint256"}],"stateMutability":"view"},{"type":"function","name":"_getPricingModule","inputs":[],"outputs":[{"name":"","type":"address","internalType":"address"}],"stateMutability":"view"},{"type":"function","name":"_getSpaceFactory","inputs":[],"outputs":[{"name":"","type":"address","internalType":"address"}],"stateMutability":"view"},{"type":"function","name":"_setMembershipCurrency","inputs":[{"name":"newCurrency","type":"address","internalType":"address"}],"outputs":[],"stateMutability":"nonpayable"},{"type":"function","name":"_setMembershipFeeRecipient","inputs":[{"name":"newRecipient","type":"address","internalType":"address"}],"outputs":[],"stateMutability":"nonpayable"},{"type":"function","name":"_setMembershipFreeAllocation","inputs":[{"name":"newAllocation","type":"uint256","internalType":"uint256"}],"outputs":[],"stateMutability":"nonpayable"},{"type":"function","name":"_setMembershipPrice","inputs":[{"name":"newPrice","type":"uint256","internalType":"uint256"}],"outputs":[],"stateMutability":"nonpayable"},{"type":"function","name":"_setMembershipSupplyLimit","inputs":[{"name":"newLimit","type":"uint256","internalType":"uint256"}],"outputs":[],"stateMutability":"nonpayable"},{"type":"function","name":"_setPricingModule","inputs":[{"name":"newPricingModule","type":"address","internalType":"address"}],"outputs":[],"stateMutability":"nonpayable"},{"type":"function","name":"approve","inputs":[{"name":"to","type":"address","internalType":"address"},{"name":"tokenId","type":"uint256","internalType":"uint256"}],"outputs":[],"stateMutability":"payable"},{"type":"function","name":"balanceOf","inputs":[{"name":"account","type":"address","internalType":"address"}],"outputs":[{"name":"","type":"uint256","internalType":"uint256"}],"stateMutability":"view"},{"type":"function","name":"cancelMembership","inputs":[{"name":"tokenId","type":"uint256","internalType":"uint256"}],"outputs":[],"stateMutability":"nonpayable"},{"type":"function","name":"expiresAt","inputs":[{"name":"tokenId","type":"uint256","internalType":"uint256"}],"outputs":[{"name":"","type":"uint256","internalType":"uint256"}],"stateMutability":"view"},{"type":"function","name":"getApproved","inputs":[{"name":"tokenId","type":"uint256","internalType":"uint256"}],"outputs":[{"name":"","type":"address","internalType":"address"}],"stateMutability":"view"},{"type":"function","name":"getMembershipCurrency","inputs":[],"outputs":[{"name":"","type":"address","internalType":"address"}],"stateMutability":"view"},{"type":"function","name":"getMembershipDuration","inputs":[],"outputs":[{"name":"","type":"uint64","internalType":"uint64"}],"stateMutability":"view"},{"type":"function","name":"getMembershipFeeRecipient","inputs":[],"outputs":[{"name":"","type":"address","internalType":"address"}],"stateMutability":"view"},{"type":"function","name":"getMembershipFreeAllocation","inputs":[],"outputs":[{"name":"","type":"uint256","internalType":"uint256"}],"stateMutability":"view"},{"type":"function","name":"getMembershipLimit","inputs":[],"outputs":[{"name":"","type":"uint256","internalType":"uint256"}],"stateMutability":"view"},{"type":"function","name":"getMembershipPrice","inputs":[],"outputs":[{"name":"","type":"uint256","internalType":"uint256"}],"stateMutability":"view"},{"type":"function","name":"getMembershipPricingModule","inputs":[],"outputs":[{"name":"","type":"address","internalType":"address"}],"stateMutability":"view"},{"type":"function","name":"getMembershipRenewalPrice","inputs":[{"name":"tokenId","type":"uint256","internalType":"uint256"}],"outputs":[{"name":"","type":"uint256","internalType":"uint256"}],"stateMutability":"view"},{"type":"function","name":"getSpaceFactory","inputs":[],"outputs":[{"name":"","type":"address","internalType":"address"}],"stateMutability":"view"},{"type":"function","name":"getTokenIdByMembership","inputs":[{"name":"member","type":"address","internalType":"address"}],"outputs":[{"name":"","type":"uint256","internalType":"uint256"}],"stateMutability":"view"},{"type":"function","name":"isApprovedForAll","inputs":[{"name":"owner","type":"address","internalType":"address"},{"name":"operator","type":"address","internalType":"address"}],"outputs":[{"name":"","type":"bool","internalType":"bool"}],"stateMutability":"view"},{"type":"function","name":"joinSpace","inputs":[{"name":"receiver","type":"address","internalType":"address"}],"outputs":[{"name":"tokenId","type":"uint256","internalType":"uint256"}],"stateMutability":"payable"},{"type":"function","name":"joinSpaceWithReferral","inputs":[{"name":"receiver","type":"address","internalType":"address"},{"name":"referrer","type":"address","internalType":"address"},{"name":"referralCode","type":"uint256","internalType":"uint256"}],"outputs":[{"name":"tokenId","type":"uint256","internalType":"uint256"}],"stateMutability":"payable"},{"type":"function","name":"name","inputs":[],"outputs":[{"name":"","type":"string","internalType":"string"}],"stateMutability":"view"},{"type":"function","name":"ownerOf","inputs":[{"name":"tokenId","type":"uint256","internalType":"uint256"}],"outputs":[{"name":"","type":"address","internalType":"address"}],"stateMutability":"view"},{"type":"function","name":"renewMembership","inputs":[{"name":"receiver","type":"address","internalType":"address"}],"outputs":[],"stateMutability":"payable"},{"type":"function","name":"safeTransferFrom","inputs":[{"name":"from","type":"address","internalType":"address"},{"name":"to","type":"address","internalType":"address"},{"name":"tokenId","type":"uint256","internalType":"uint256"}],"outputs":[],"stateMutability":"payable"},{"type":"function","name":"safeTransferFrom","inputs":[{"name":"from","type":"address","internalType":"address"},{"name":"to","type":"address","internalType":"address"},{"name":"tokenId","type":"uint256","internalType":"uint256"},{"name":"_data","type":"bytes","internalType":"bytes"}],"outputs":[],"stateMutability":"payable"},{"type":"function","name":"setApprovalForAll","inputs":[{"name":"operator","type":"address","internalType":"address"},{"name":"approved","type":"bool","internalType":"bool"}],"outputs":[],"stateMutability":"nonpayable"},{"type":"function","name":"setMembershipCurrency","inputs":[{"name":"newCurrency","type":"address","internalType":"address"}],"outputs":[],"stateMutability":"nonpayable"},{"type":"function","name":"setMembershipDuration","inputs":[{"name":"newDuration","type":"uint64","internalType":"uint64"}],"outputs":[],"stateMutability":"nonpayable"},{"type":"function","name":"setMembershipFeeRecipient","inputs":[{"name":"newRecipient","type":"address","internalType":"address"}],"outputs":[],"stateMutability":"nonpayable"},{"type":"function","name":"setMembershipFreeAllocation","inputs":[{"name":"newAllocation","type":"uint256","internalType":"uint256"}],"outputs":[],"stateMutability":"nonpayable"},{"type":"function","name":"setMembershipLimit","inputs":[{"name":"newLimit","type":"uint256","internalType":"uint256"}],"outputs":[],"stateMutability":"nonpayable"},{"type":"function","name":"setMembershipPrice","inputs":[{"name":"newPrice","type":"uint256","internalType":"uint256"}],"outputs":[],"stateMutability":"nonpayable"},{"type":"function","name":"setMembershipPricingModule","inputs":[{"name":"pricingModule","type":"address","internalType":"address"}],"outputs":[],"stateMutability":"nonpayable"},{"type":"function","name":"symbol","inputs":[],"outputs":[{"name":"","type":"string","internalType":"string"}],"stateMutability":"view"},{"type":"function","name":"tokenURI","inputs":[{"name":"tokenId","type":"uint256","internalType":"uint256"}],"outputs":[{"name":"","type":"string","internalType":"string"}],"stateMutability":"view"},{"type":"function","name":"totalSupply","inputs":[],"outputs":[{"name":"","type":"uint256","internalType":"uint256"}],"stateMutability":"view"},{"type":"function","name":"transferFrom","inputs":[{"name":"from","type":"address","internalType":"address"},{"name":"to","type":"address","internalType":"address"},{"name":"tokenId","type":"uint256","internalType":"uint256"}],"outputs":[],"stateMutability":"payable"},{"type":"event","name":"Approval","inputs":[{"name":"owner","type":"address","indexed":true,"internalType":"address"},{"name":"approved","type":"address","indexed":true,"internalType":"address"},{"name":"tokenId","type":"uint256","indexed":true,"internalType":"uint256"}],"anonymous":false},{"type":"event","name":"ApprovalForAll","inputs":[{"name":"owner","type":"address","indexed":true,"internalType":"address"},{"name":"operator","type":"address","indexed":true,"internalType":"address"},{"name":"approved","type":"bool","indexed":false,"internalType":"bool"}],"anonymous":false},{"type":"event","name":"Banned","inputs":[{"name":"tokenId","type":"uint256","indexed":true,"internalType":"uint256"}],"anonymous":false},{"type":"event","name":"ConsecutiveTransfer","inputs":[{"name":"fromTokenId","type":"uint256","indexed":true,"internalType":"uint256"},{"name":"toTokenId","type":"uint256","indexed":false,"internalType":"uint256"},{"name":"from","type":"address","indexed":true,"internalType":"address"},{"name":"to","type":"address","indexed":true,"internalType":"address"}],"anonymous":false},{"type":"event","name":"Initialized","inputs":[{"name":"version","type":"uint32","indexed":false,"internalType":"uint32"}],"anonymous":false},{"type":"event","name":"InterfaceAdded","inputs":[{"name":"interfaceId","type":"bytes4","indexed":true,"internalType":"bytes4"}],"anonymous":false},{"type":"event","name":"InterfaceRemoved","inputs":[{"name":"interfaceId","type":"bytes4","indexed":true,"internalType":"bytes4"}],"anonymous":false},{"type":"event","name":"MembershipCurrencyUpdated","inputs":[{"name":"currency","type":"address","indexed":true,"internalType":"address"}],"anonymous":false},{"type":"event","name":"MembershipFeeRecipientUpdated","inputs":[{"name":"recipient","type":"address","indexed":true,"internalType":"address"}],"anonymous":false},{"type":"event","name":"MembershipFreeAllocationUpdated","inputs":[{"name":"allocation","type":"uint256","indexed":true,"internalType":"uint256"}],"anonymous":false},{"type":"event","name":"MembershipLimitUpdated","inputs":[{"name":"limit","type":"uint256","indexed":true,"internalType":"uint256"}],"anonymous":false},{"type":"event","name":"MembershipPriceUpdated","inputs":[{"name":"price","type":"uint256","indexed":true,"internalType":"uint256"}],"anonymous":false},{"type":"event","name":"Membership__ReferralCreated","inputs":[{"name":"code","type":"uint256","indexed":true,"internalType":"uint256"},{"name":"bps","type":"uint16","indexed":false,"internalType":"uint16"}],"anonymous":false},{"type":"event","name":"Membership__ReferralRemoved","inputs":[{"name":"code","type":"uint256","indexed":true,"internalType":"uint256"}],"anonymous":false},{"type":"event","name":"Membership__ReferralTimeCreated","inputs":[{"name":"code","type":"uint256","indexed":true,"internalType":"uint256"},{"name":"bps","type":"uint16","indexed":false,"internalType":"uint16"},{"name":"startTime","type":"uint256","indexed":false,"internalType":"uint256"},{"name":"endTime","type":"uint256","indexed":false,"internalType":"uint256"}],"anonymous":false},{"type":"event","name":"OwnershipTransferred","inputs":[{"name":"previousOwner","type":"address","indexed":true,"internalType":"address"},{"name":"newOwner","type":"address","indexed":true,"internalType":"address"}],"anonymous":false},{"type":"event","name":"Paused","inputs":[{"name":"account","type":"address","indexed":false,"internalType":"address"}],"anonymous":false},{"type":"event","name":"SubscriptionUpdate","inputs":[{"name":"tokenId","type":"uint256","indexed":true,"internalType":"uint256"},{"name":"expiration","type":"uint64","indexed":false,"internalType":"uint64"}],"anonymous":false},{"type":"event","name":"Transfer","inputs":[{"name":"from","type":"address","indexed":true,"internalType":"address"},{"name":"to","type":"address","indexed":true,"internalType":"address"},{"name":"tokenId","type":"uint256","indexed":true,"internalType":"uint256"}],"anonymous":false},{"type":"event","name":"Unbanned","inputs":[{"name":"tokenId","type":"uint256","indexed":true,"internalType":"uint256"}],"anonymous":false},{"type":"event","name":"Unpaused","inputs":[{"name":"account","type":"address","indexed":false,"internalType":"address"}],"anonymous":false},{"type":"error","name":"AddressEmptyCode","inputs":[{"name":"target","type":"address","internalType":"address"}]},{"type":"error","name":"AddressInsufficientBalance","inputs":[{"name":"account","type":"address","internalType":"address"}]},{"type":"error","name":"ApprovalCallerNotOwnerNorApproved","inputs":[]},{"type":"error","name":"ApprovalQueryForNonexistentToken","inputs":[]},{"type":"error","name":"BalanceQueryForZeroAddress","inputs":[]},{"type":"error","name":"Banning__AlreadyBanned","inputs":[{"name":"tokenId","type":"uint256","internalType":"uint256"}]},{"type":"error","name":"Banning__CannotBanSelf","inputs":[]},{"type":"error","name":"Banning__InvalidTokenId","inputs":[{"name":"tokenId","type":"uint256","internalType":"uint256"}]},{"type":"error","name":"Banning__NotBanned","inputs":[{"name":"tokenId","type":"uint256","internalType":"uint256"}]},{"type":"error","name":"ERC5643__DurationZero","inputs":[]},{"type":"error","name":"ERC5643__InvalidTokenId","inputs":[{"name":"tokenId","type":"uint256","internalType":"uint256"}]},{"type":"error","name":"ERC5643__NotApprovedOrOwner","inputs":[]},{"type":"error","name":"ERC5643__SubscriptionNotRenewable","inputs":[{"name":"tokenId","type":"uint256","internalType":"uint256"}]},{"type":"error","name":"Entitlement__InvalidValue","inputs":[]},{"type":"error","name":"Entitlement__NotAllowed","inputs":[]},{"type":"error","name":"Entitlement__NotMember","inputs":[]},{"type":"error","name":"Entitlement__ValueAlreadyExists","inputs":[]},{"type":"error","name":"FailedInnerCall","inputs":[]},{"type":"error","name":"Initializable_InInitializingState","inputs":[]},{"type":"error","name":"Initializable_NotInInitializingState","inputs":[]},{"type":"error","name":"Introspection_AlreadySupported","inputs":[]},{"type":"error","name":"Introspection_NotSupported","inputs":[]},{"type":"error","name":"Membership__AlreadyMember","inputs":[]},{"type":"error","name":"Membership__InsufficientPayment","inputs":[]},{"type":"error","name":"Membership__InvalidAddress","inputs":[]},{"type":"error","name":"Membership__InvalidCurrency","inputs":[]},{"type":"error","name":"Membership__InvalidDuration","inputs":[]},{"type":"error","name":"Membership__InvalidFeeRecipient","inputs":[]},{"type":"error","name":"Membership__InvalidFreeAllocation","inputs":[]},{"type":"error","name":"Membership__InvalidLimit","inputs":[]},{"type":"error","name":"Membership__InvalidMaxSupply","inputs":[]},{"type":"error","name":"Membership__InvalidPrice","inputs":[]},{"type":"error","name":"Membership__InvalidPricingModule","inputs":[]},{"type":"error","name":"Membership__InvalidReferralBps","inputs":[]},{"type":"error","name":"Membership__InvalidReferralCode","inputs":[]},{"type":"error","name":"Membership__InvalidReferralTime","inputs":[]},{"type":"error","name":"Membership__InvalidTokenId","inputs":[]},{"type":"error","name":"Membership__MaxSupplyReached","inputs":[]},{"type":"error","name":"Membership__NotExpired","inputs":[]},{"type":"error","name":"Membership__NotRenewable","inputs":[]},{"type":"error","name":"Membership__PriceTooLow","inputs":[]},{"type":"error","name":"MintERC2309QuantityExceedsLimit","inputs":[]},{"type":"error","name":"MintToZeroAddress","inputs":[]},{"type":"error","name":"MintZeroQuantity","inputs":[]},{"type":"error","name":"Ownable__NotOwner","inputs":[{"name":"account","type":"address","internalType":"address"}]},{"type":"error","name":"Ownable__ZeroAddress","inputs":[]},{"type":"error","name":"OwnerQueryForNonexistentToken","inputs":[]},{"type":"error","name":"OwnershipNotInitializedForExtraData","inputs":[]},{"type":"error","name":"Pausable__NotPaused","inputs":[]},{"type":"error","name":"Pausable__Paused","inputs":[]},{"type":"error","name":"ReentrancyGuard__ReentrantCall","inputs":[]},{"type":"error","name":"SafeERC20FailedOperation","inputs":[{"name":"token","type":"address","internalType":"address"}]},{"type":"error","name":"TransferCallerNotOwnerNorApproved","inputs":[]},{"type":"error","name":"TransferFromIncorrectOwner","inputs":[]},{"type":"error","name":"TransferToNonERC721ReceiverImplementer","inputs":[]},{"type":"error","name":"TransferToZeroAddress","inputs":[]},{"type":"error","name":"URIQueryForNonexistentToken","inputs":[]}],"bytecode":{"object":"0x60806040523480156200001157600080fd5b506200001c62000022565b620000ca565b7f59b501c3653afc186af7d48dda36cf6732bd21629a6295693664240a6ef520008054640100000000900460ff16156200006f576040516366008a2d60e01b815260040160405180910390fd5b805463ffffffff9081161015620000c757805463ffffffff191663ffffffff90811782556040519081527fe9c9b456cb2994b80aeef036cf59d26e9617df80f816a6ee5a5b4166e07e2f5c9060200160405180910390a15b50565b613fa880620000da6000396000f3fe6080604052600436106102c95760003560e01c806377460cd311610175578063ac7ee626116100dc578063c87b56dd11610095578063df9a9fe61161006f578063df9a9fe6146107d9578063e847abdd146107f9578063e985e9c51461080e578063f9d5d22c1461083e57600080fd5b8063c87b56dd14610786578063c9f7c833146107a6578063d2f01f19146107b957600080fd5b8063ac7ee626146106f4578063b3a5be6d14610709578063b6697f931461071e578063b83073761461073e578063b88d4fde1461075e578063bf3bc8781461077157600080fd5b806389def3201161012e57806389def320146106575780638c625b061461067757806395d600c81461068a57806395d89b411461069f57806397fb7c1e146106b4578063a22cb465146106d457600080fd5b806377460cd3146105ab57806379dda585146105c05780637d0567c4146105d55780638120f0ba146105f557806383f3f0dc146106225780638934207f1461064257600080fd5b80634c2abfbe11610234578063657e45e8116101ed57806370251563116101c75780637025156314610541578063706b8e091461055657806370a082311461056b57806373fc5a051461058b57600080fd5b8063657e45e8146104ec57806369d5f38a1461050157806369d9346b1461052157600080fd5b80634c2abfbe146104395780635803909f146104595780635becd24a1461047957806361a9c7df1461049957806362452006146104ac5780636352211e146104cc57600080fd5b806318160ddd1161028657806318160ddd146103a957806318e5da65146103be5780631d214b4d146103de57806323b872dd146103f35780633ded10de1461040657806342842e0e1461042657600080fd5b806306fdde03146102ce578063081812fc146102f9578063095ea7b3146103315780630c3a01b1146103465780631278076a1461036657806317c9570914610389575b600080fd5b3480156102da57600080fd5b506102e361085e565b6040516102f091906136a8565b60405180910390f35b34801561030557600080fd5b506103196103143660046136bb565b6108f9565b6040516001600160a01b0390911681526020016102f0565b61034461033f3660046136f4565b61090a565b005b34801561035257600080fd5b506103446103613660046136bb565b61091a565b34801561037257600080fd5b5061037b6109bf565b6040519081526020016102f0565b34801561039557600080fd5b5061037b6103a43660046136bb565b6109d1565b3480156103b557600080fd5b5061037b6109eb565b3480156103ca57600080fd5b506103446103d9366004613720565b6109f5565b3480156103ea57600080fd5b50610319610a4a565b61034461040136600461373d565b610a66565b34801561041257600080fd5b5061037b6104213660046136bb565b610c58565b61034461043436600461373d565b610d9d565b34801561044557600080fd5b50610344610454366004613884565b610dbd565b34801561046557600080fd5b5061037b6104743660046136bb565b610e33565b34801561048557600080fd5b506103446104943660046136bb565b610e46565b6103446104a7366004613720565b610ecb565b3480156104b857600080fd5b506103446104c7366004613720565b61100c565b3480156104d857600080fd5b506103196104e73660046136bb565b611039565b3480156104f857600080fd5b50610319611044565b34801561050d57600080fd5b5061034461051c3660046136bb565b61104e565b34801561052d57600080fd5b5061034461053c366004613720565b6110ab565b34801561054d57600080fd5b506103196110d8565b34801561056257600080fd5b5061037b6110f4565b34801561057757600080fd5b5061037b610586366004613720565b6110fe565b34801561059757600080fd5b506103446105a63660046136bb565b611131565b3480156105b757600080fd5b50610319611141565b3480156105cc57600080fd5b5061031961115d565b3480156105e157600080fd5b506103446105f0366004613720565b611167565b34801561060157600080fd5b5061060a6111b4565b6040516001600160401b0390911681526020016102f0565b34801561062e57600080fd5b5061034461063d36600461398d565b6111be565b34801561064e57600080fd5b5061037b61120b565b34801561066357600080fd5b506103446106723660046136bb565b61121e565b61037b610685366004613720565b6112b4565b34801561069657600080fd5b5061037b611394565b3480156106ab57600080fd5b506102e361139e565b3480156106c057600080fd5b506103446106cf3660046136bb565b6113b6565b3480156106e057600080fd5b506103446106ef3660046139b8565b61140b565b34801561070057600080fd5b50610319611488565b34801561071557600080fd5b5061037b6114a4565b34801561072a57600080fd5b5061037b610739366004613720565b611546565b34801561074a57600080fd5b50610344610759366004613720565b611551565b61034461076c3660046139f1565b61157e565b34801561077d57600080fd5b506103196115c8565b34801561079257600080fd5b506102e36107a13660046136bb565b6115d2565b61037b6107b436600461373d565b611663565b3480156107c557600080fd5b506103446107d4366004613a70565b61176e565b3480156107e557600080fd5b506103446107f4366004613720565b6117c2565b34801561080557600080fd5b50610319611836565b34801561081a57600080fd5b5061082e610829366004613ad3565b611840565b60405190151581526020016102f0565b34801561084a57600080fd5b506103446108593660046136bb565b61184c565b606061086861188f565b600201805461087690613b01565b80601f01602080910402602001604051908101604052809291908181526020018280546108a290613b01565b80156108ef5780601f106108c4576101008083540402835291602001916108ef565b820191906000526020600020905b8154815290600101906020018083116108d257829003601f168201915b5050505050905090565b6000610904826118b3565b92915050565b61091682826001611900565b5050565b6000610924611141565b90506000816001600160a01b0316630eac306d6040518163ffffffff1660e01b8152600401602060405180830381865afa158015610966573d6000803e3d6000fd5b505050506040513d601f19601f8201168201806040525081019061098a9190613b3b565b9050808310156109ad57604051631a23d64760e11b815260040160405180910390fd5b826109b66119b5565b60020155505050565b60006109cc6104216119d9565b905090565b60006109dc826119f8565b6001600160401b031692915050565b60006109cc6119d9565b6109fd611a32565b6001600160a01b0316336001600160a01b031614610a35576040516365f4906560e01b81523360048201526024015b60405180910390fd5b610a3e81611af6565b610a478161100c565b50565b6000610a546119b5565b600501546001600160a01b0316919050565b6000610a7182611b1d565b9050836001600160a01b0316816001600160a01b031614610aa45760405162a1148160e81b815260040160405180910390fd5b600080610ab084611bc1565b91509150610ad58187610ac03390565b6001600160a01b039081169116811491141790565b610b0057610ae38633611840565b610b0057604051632ce44b5f60e11b815260040160405180910390fd5b6001600160a01b038516610b2757604051633a954ecd60e21b815260040160405180910390fd5b610b348686866001611be9565b8015610b3f57600082555b610b4761188f565b6001600160a01b0387166000908152600591909101602052604090208054600019019055610b7361188f565b6001600160a01b03861660008181526005929092016020526040909120805460010190554260a01b17600160e11b17610baa61188f565b60008681526004919091016020526040812091909155600160e11b84169003610c205760018401610bd961188f565b600082815260049190910160205260408120549003610c1e57610bfa61188f565b548114610c1e5783610c0a61188f565b600083815260049190910160205260409020555b505b83856001600160a01b0316876001600160a01b0316600080516020613f8883398151915260405160405180910390a45b505050505050565b600080610c636119b5565b90506000610c6f6114a4565b905083811115610c83575060009392505050565b6006820154604051639262b1b360e01b815230600482015285916001600160a01b031690639262b1b390602401602060405180830381865afa158015610ccd573d6000803e3d6000fd5b505050506040513d601f19601f82011682018060405250810190610cf19190613b3b565b1115610d01575060009392505050565b60088201546001600160a01b031615610d92576008820154604051635cf4ee9160e01b815260048101839052602481018690526001600160a01b0390911690635cf4ee9190604401602060405180830381865afa158015610d66573d6000803e3d6000fd5b505050506040513d601f19601f82011682018060405250810190610d8a9190613b3b565b949350505050565b506002015492915050565b610db88383836040518060200160405280600081525061157e565b505050565b7f59b501c3653afc186af7d48dda36cf6732bd21629a6295693664240a6ef5200054640100000000900460ff16610e0757604051630ef4733760e31b815260040160405180910390fd5b610e1763f5306a5360e01b611bf3565b610e218282611cd1565b61091682600001518360200151611e06565b600061090482610e416119d9565b611e7a565b610e4e611a32565b6001600160a01b0316336001600160a01b031614610e81576040516365f4906560e01b8152336004820152602401610a2c565b6000610e8b61120b565b90508015801590610e9b57508082115b15610eb95760405163c3983b9160e01b815260040160405180910390fd5b610ec282611ec0565b6109168261184c565b6002600080516020613f688339815191525403610efb57604051635db5c7cd60e11b815260040160405180910390fd5b610f126002600080516020613f6883398151915255565b6001600160a01b038116610f3957604051635fbd571760e01b815260040160405180910390fd5b610f4281611f65565b600003610f62576040516331d6fa3360e11b815260040160405180910390fd5b6000610f6d82611fcd565b9050610f7881611ff9565b610f955760405163dce9a1d360e01b815260040160405180910390fd5b6000610fa382610e416119d9565b90508015610fe2576000610fb78483612030565b90506000610fc58284613b6a565b90508015610fdf57610fdf85610fd9610a4a565b8361214a565b50505b610ff382610fee612171565b61222b565b5050610a476001600080516020613f6883398151915255565b806110156119b5565b60050180546001600160a01b0319166001600160a01b039290921691909117905550565b600061090482611b1d565b60006109cc6110d8565b611056611a32565b6001600160a01b0316336001600160a01b031614611089576040516365f4906560e01b8152336004820152602401610a2c565b6110996110946110d8565b61231d565b6110a281612344565b610a478161091a565b806110b46119b5565b60080180546001600160a01b0319166001600160a01b039290921691909117905550565b60006110e26119b5565b600401546001600160a01b0316919050565b60006109cc6114a4565b60004261111261110d84611fcd565b6119f8565b6001600160401b03161161112857506000919050565b61090482611f65565b8061113a6119b5565b6003015550565b600061114b6119b5565b600601546001600160a01b0316919050565b60006109cc611141565b61116f611a32565b6001600160a01b0316336001600160a01b0316146111a2576040516365f4906560e01b8152336004820152602401610a2c565b6111ab8161231d565b610a4781611551565b60006109cc612171565b6111c6611a32565b6001600160a01b0316336001600160a01b0316146111f9576040516365f4906560e01b8152336004820152602401610a2c565b611202816123d2565b610a478161246d565b60006112156119b5565b60030154905090565b6002600080516020613f68833981519152540361124e57604051635db5c7cd60e11b815260040160405180910390fd5b6112656002600080516020613f6883398151915255565b61126e816124a0565b61128b576040516367d9dca160e11b815260040160405180910390fd5b611294816124f6565b61129d81612501565b610a476001600080516020613f6883398151915255565b60006002600080516020613f6883398151915254036112e657604051635db5c7cd60e11b815260040160405180910390fd5b6112fd6002600080516020613f6883398151915255565b61130682612574565b61130e61265c565b9050600061131d6104216119d9565b905080156113605761132f828261266c565b600061133b8483612030565b905060006113498284613b6a565b9050801561135d5761135d85610fd9610a4a565b50505b61136b83600161268c565b61137782610fee612171565b5061138f6001600080516020613f6883398151915255565b919050565b60006109cc61120b565b60606113a861188f565b600301805461087690613b01565b6113be611a32565b6001600160a01b0316336001600160a01b0316146113f1576040516365f4906560e01b8152336004820152602401610a2c565b611402816113fd6119d9565b6126a6565b610a4781611131565b8061141461188f565b336000818152600792909201602090815260408084206001600160a01b03881680865290835293819020805460ff19169515159590951790945592518415158152919290917f17307eab39ab6107e8899845ad3d59bd9653f200f220920489ca2b5937696c31910160405180910390a35050565b60006114926119b5565b600801546001600160a01b0316919050565b6000806114af6119b5565b60070154905080156114c057919050565b6114c86119b5565b60060160009054906101000a90046001600160a01b03166001600160a01b0316632cbb9d136040518163ffffffff1660e01b8152600401602060405180830381865afa15801561151c573d6000803e3d6000fd5b505050506040513d601f19601f820116820180604052508101906115409190613b3b565b91505090565b600061090482611fcd565b8061155a6119b5565b60040180546001600160a01b0319166001600160a01b039290921691909117905550565b611589848484610a66565b6001600160a01b0383163b156115c2576115a5848484846126ee565b6115c2576040516368d2bf6b60e11b815260040160405180910390fd5b50505050565b60006109cc610a4a565b60606115dd826127d9565b6115fa57604051630a14c4b560e41b815260040160405180910390fd5b600061161160408051602081019091526000815290565b90508051600003611631576040518060200160405280600081525061165c565b8061163b84612815565b60405160200161164c929190613b7d565b6040516020818303038152906040525b9392505050565b60006002600080516020613f68833981519152540361169557604051635db5c7cd60e11b815260040160405180910390fd5b6116ac6002600080516020613f6883398151915255565b6116b584612574565b6116bd61265c565b905060006116cc6104216119d9565b9050801561173f576116de828261266c565b60006116ea8683612030565b905060006116f88284613b6a565b9050801561173c57600061170c8287612859565b905061171988888361214a565b60006117258284613b6a565b905080156117395761173989610fd9610a4a565b50505b50505b61174a85600161268c565b61175682610fee612171565b5061165c6001600080516020613f6883398151915255565b7f59b501c3653afc186af7d48dda36cf6732bd21629a6295693664240a6ef5200054640100000000900460ff166117b857604051630ef4733760e31b815260040160405180910390fd5b6109168282611e06565b6117ca611a32565b6001600160a01b0316336001600160a01b0316146117fd576040516365f4906560e01b8152336004820152602401610a2c565b6001600160a01b03811661182457604051630e88bf4b60e01b815260040160405180910390fd5b61182d8161290c565b610a47816110ab565b60006109cc611488565b600061165c83836129a9565b60006118566119b5565b6007810183905560405190915082907fab14a23e88fb272313490d4f20d63098e64fd38304c0e07a377db98c2b39b92f90600090a25050565b7f6569bde4a160c636ea8b8d11acb83a60d7fec0b8f2e09389306cba0e1340df0090565b60006118be826127d9565b6118db576040516333d1c03960e21b815260040160405180910390fd5b6118e361188f565b60009283526006016020525060409020546001600160a01b031690565b600061190b83611039565b9050811561194a57336001600160a01b0382161461194a5761192d81336129a9565b61194a576040516367d9dca160e11b815260040160405180910390fd5b8361195361188f565b6000858152600691909101602052604080822080546001600160a01b0319166001600160a01b0394851617905551859287811692908516917f8c5be1e5ebec7d5bd14f71427d1e84f3dd0314c0f7b2291e5b200ac8c7c3b9259190a450505050565b7fc21004fcc619240a31f006438274d15cd813308303284436eef6055f0fdcb60090565b6000806119e461188f565b600101546119f061188f565b540303919050565b60009081527f4775a23600034fdd9f073b224f794d51a58b35ba663a9602623ba7a5c09cce0060205260409020546001600160401b031690565b6040805180820182527fd2f24d4f172e4e84e48e7c4125b6e904c29e5eba33ad4938fee51dd5dbd4b600546001600160a01b03168082527fd2f24d4f172e4e84e48e7c4125b6e904c29e5eba33ad4938fee51dd5dbd4b60154602080840182905284516331a9108f60e11b815260048101929092529351600094636352211e92602480820193918290030181865afa158015611ad2573d6000803e3d6000fd5b505050506040513d601f19601f820116820180604052508101906115409190613bac565b6001600160a01b038116610a4757604051631492df6160e21b815260040160405180910390fd5b6000611b2761188f565b600083815260049190910160205260408120549150600160e01b82169003611ba8578060000361138f57611b5961188f565b548210611b7957604051636f96cda160e11b815260040160405180910390fd5b611b8161188f565b600019909201600081815260049390930160205260409092205490508015611b7957919050565b604051636f96cda160e11b815260040160405180910390fd5b6000806000611bce61188f565b60009485526006016020525050604090912080549092909150565b6115c282846129e6565b6001600160e01b0319811660009081527f81088bbc801e045ea3e7620779ab349988f58afbdfba10dff983df3f33522b00602052604090205460ff161515600114611c80576001600160e01b0319811660009081527f81088bbc801e045ea3e7620779ab349988f58afbdfba10dff983df3f33522b0060205260409020805460ff19166001179055611c99565b604051637967f77d60e11b815260040160405180910390fd5b6040516001600160e01b03198216907f78f84e5b1c5c05be2b5ad3800781dd404d6d6c6302bc755c0fe20f58a33a7f2290600090a250565b6000611cdb6119b5565b6006810180546001600160a01b0319166001600160a01b0385161790556080840151909150611d09906123d2565b611d168360c00151611af6565b611d238360e00151611ec0565b611d3183610100015161290c565b6060830151600382015560a08301516001600160a01b031615611d58578260a00151611d6e565b73eeeeeeeeeeeeeeeeeeeeeeeeeeeeeeeeeeeeeeee5b6004820180546001600160a01b03199081166001600160a01b039384161790915560408501516002840155608085015160068401805467ffffffffffffffff60a01b1916600160a01b6001600160401b039093169290920291909117905560c0850151600584018054831691841691909117905560e08501516007840155610100909401516008909201805490941691161790915550565b7f59b501c3653afc186af7d48dda36cf6732bd21629a6295693664240a6ef5200054640100000000900460ff16611e5057604051630ef4733760e31b815260040160405180910390fd5b611e606380ac58cd60e01b611bf3565b611e70635b5e139f60e01b611bf3565b6109168282612a32565b600080611e856119b5565b600085815260098201602052604090205490915015611eb7576000848152600990910160205260409020549050610904565b610d8a83610c58565b6000611eca6119b5565b90508060060160009054906101000a90046001600160a01b03166001600160a01b0316632cbb9d136040518163ffffffff1660e01b8152600401602060405180830381865afa158015611f21573d6000803e3d6000fd5b505050506040513d601f19601f82011682018060405250810190611f459190613b3b565b8211156109165760405163c3983b9160e01b815260040160405180910390fd5b60006001600160a01b038216611f8e576040516323d3ad8160e21b815260040160405180910390fd5b6001600160401b03611f9e61188f565b6005016000846001600160a01b03166001600160a01b0316815260200190815260200160002054169050919050565b6000611fd76119b5565b6001600160a01b03909216600090815260019290920160205250604090205490565b600042612004612171565b6001600160401b03166120179190613bc9565b612020836119f8565b6001600160401b03161092915050565b60008061203b6119b5565b905060008160060160009054906101000a90046001600160a01b031690506000816001600160a01b0316634ccb20c06040518163ffffffff1660e01b8152600401602060405180830381865afa158015612099573d6000803e3d6000fd5b505050506040513d601f19601f820116820180604052508101906120bd9190613bac565b90506000826001600160a01b0316639f6542aa6040518163ffffffff1660e01b8152600401602060405180830381865afa1580156120ff573d6000803e3d6000fd5b505050506040513d601f19601f820116820180604052508101906121239190613bdc565b9050612133868261ffff16612a64565b945061214087838761214a565b5050505092915050565b60006121546119b5565b60048101549091506115c2906001600160a01b0316858585612ad9565b60008061217c6119b5565b6006810154909150600160a01b90046001600160401b0316156121b25760060154600160a01b90046001600160401b0316919050565b8060060160009054906101000a90046001600160a01b03166001600160a01b0316638120f0ba6040518163ffffffff1660e01b8152600401602060405180830381865afa158015612207573d6000803e3d6000fd5b505050506040513d601f19601f820116820180604052508101906115409190613c00565b60008281527f4775a23600034fdd9f073b224f794d51a58b35ba663a9602623ba7a5c09cce006020819052604082205490916001600160401b03909116908181036122815761227a8442613c1d565b90506122b7565b61228a85611ff9565b6122aa57604051637be9098d60e11b815260048101869052602401610a2c565b6122b48483613c1d565b90505b60008581526020848152604091829020805467ffffffffffffffff19166001600160401b038516908117909155915191825286917f2ec2be2c4b90c2cf13ecb6751a24daed6bb741ae5ed3f7371aabf9402f6d62e8910160405180910390a25050505050565b6001600160a01b038116610a4757604051636da3122b60e01b815260040160405180910390fd5b600061234e611141565b6001600160a01b0316630eac306d6040518163ffffffff1660e01b8152600401602060405180830381865afa15801561238b573d6000803e3d6000fd5b505050506040513d601f19601f820116820180604052508101906123af9190613b3b565b90508082101561091657604051631a23d64760e11b815260040160405180910390fd5b6123da611141565b6001600160a01b0316638120f0ba6040518163ffffffff1660e01b8152600401602060405180830381865afa158015612417573d6000803e3d6000fd5b505050506040513d601f19601f8201168201806040525081019061243b9190613c00565b6001600160401b0316816001600160401b03161115610a47576040516341191e9760e11b815260040160405180910390fd5b806124766119b5565b60060160146101000a8154816001600160401b0302191690836001600160401b0316021790555050565b6000806124ac83611039565b9050336001600160a01b0382168114806124cb57506124cb82826129a9565b80610d8a5750806001600160a01b03166124e4856118b3565b6001600160a01b031614949350505050565b610a47816000612b1f565b7f4775a23600034fdd9f073b224f794d51a58b35ba663a9602623ba7a5c09cce00600082815260209182526040808220805467ffffffffffffffff191690555190815282917f2ec2be2c4b90c2cf13ecb6751a24daed6bb741ae5ed3f7371aabf9402f6d62e8910160405180910390a250565b6001600160a01b03811661259b57604051635fbd571760e01b815260040160405180910390fd5b60006125a633611f65565b11156125c5576040516316d9a23f60e31b815260040160405180910390fd5b60006125d082611f65565b11156125ef576040516316d9a23f60e31b815260040160405180910390fd5b6125f761120b565b15801590612613575061260861120b565b6126106119d9565b10155b1561263157604051637efcdb4960e01b815260040160405180910390fd5b610a47604051806040016040528060098152602001684a6f696e537061636560b81b81525082612c9c565b600061266661188f565b54919050565b806126756119b5565b600093845260090160205260409092209190915550565b610916828260405180602001604052806000815250612cc5565b808210156126c757604051636664d51760e11b815260040160405180910390fd5b6126cf61120b565b821161091657604051636664d51760e11b815260040160405180910390fd5b604051630a85bd0160e11b81526000906001600160a01b0385169063150b7a0290612723903390899088908890600401613c44565b6020604051808303816000875af192505050801561275e575060408051601f3d908101601f1916820190925261275b91810190613c77565b60015b6127bc573d80801561278c576040519150601f19603f3d011682016040523d82523d6000602084013e612791565b606091505b5080516000036127b4576040516368d2bf6b60e11b815260040160405180910390fd5b805181602001fd5b6001600160e01b031916630a85bd0160e11b149050949350505050565b60006127e361188f565b54821080156109045750600160e01b6127fa61188f565b60008481526004919091016020526040902054161592915050565b606060a06040510180604052602081039150506000815280825b600183039250600a81066030018353600a90048061282f5750819003601f19909101908152919050565b60008181527f3c2290b88407133303e904ceb4ee7d0d14164eda8a629372d8406216ceb57e006020819052604082205461ffff1680830361289f57600092505050610904565b6000848152600180840160209081526040928390208351808501909452805480855292015490830152158015906128e3575080514210806128e35750806020015142115b156128f45760009350505050610904565b612902868361ffff16612a64565b9695505050505050565b6001600160a01b03811661291d5750565b6040516301ffc9a760e01b8152635cf4ee9160e01b60048201526001600160a01b038216906301ffc9a790602401602060405180830381865afa158015612968573d6000803e3d6000fd5b505050506040513d601f19601f8201168201806040525081019061298c9190613ca1565b610a4757604051630e88bf4b60e01b815260040160405180910390fd5b60006129b361188f565b6001600160a01b039384166000908152600791909101602090815260408083209490951682529290925250205460ff1690565b60006129f06119b5565b60008481526020828152604080832080546001600160a01b039097166001600160a01b0319909716871790559482526001909201909152919091209190915550565b6000612a3c61188f565b905060028101612a4c8482613d06565b5060038101612a5b8382613d06565b50600090555050565b6000612710821115612ac25760405162461bcd60e51b815260206004820152602160248201527f426173697320706f696e74732063616e6e6f74206578636565642031305f30306044820152600360fc1b6064820152608401610a2c565b612710612acf8385613dc5565b61165c9190613ddc565b80156115c25773eeeeeeeeeeeeeeeeeeeeeeeeeeeeeeeeeeeeeeed196001600160a01b03851601612b1357612b0e8282612d42565b6115c2565b6115c284848484612de5565b6000612b2a83611b1d565b905080600080612b3986611bc1565b915091508415612b7957612b4e818433610ac0565b612b7957612b5c83336129a9565b612b7957604051632ce44b5f60e11b815260040160405180910390fd5b612b87836000886001611be9565b8015612b9257600082555b6fffffffffffffffffffffffffffffffff612bab61188f565b6001600160a01b038516600081815260059290920160205260409091208054929092019091554260a01b17600360e01b17612be461188f565b60008881526004919091016020526040812091909155600160e11b85169003612c5a5760018601612c1361188f565b600082815260049190910160205260408120549003612c5857612c3461188f565b548114612c585784612c4461188f565b600083815260049190910160205260409020555b505b60405186906000906001600160a01b03861690600080516020613f88833981519152908390a4612c8861188f565b600190810180549091019055505050505050565b612ca860008383612e38565b61091657604051630ce39a4b60e21b815260040160405180910390fd5b612ccf8383612ebc565b6001600160a01b0383163b15610db8576000612ce961188f565b5490508281035b612d0360008683806001019450866126ee565b612d20576040516368d2bf6b60e11b815260040160405180910390fd5b818110612cf05781612d3061188f565b5414612d3b57600080fd5b5050505050565b6000826001600160a01b03168260405160006040518083038185875af1925050503d8060008114612d8f576040519150601f19603f3d011682016040523d82523d6000602084013e612d94565b606091505b5050905080610db85760405162461bcd60e51b815260206004820152601c60248201527f6e617469766520746f6b656e207472616e73666572206661696c6564000000006044820152606401610a2c565b816001600160a01b0316836001600160a01b031603156115c257306001600160a01b03841603612e2357612b0e6001600160a01b0385168383612fe0565b6115c26001600160a01b03851684848461303f565b6000816001600160a01b0316612e4c611a32565b6001600160a01b03161480610d8a57507fe17a067c7963a59b6dfd65d33b053fdbea1c56500e2aae4f976d9eda4da9eb005460ff16158015610d8a5750610d8a848385604051602001612e9f9190613dfe565b604051602081830303815290604052612eb790613e1a565b613078565b6000612ec661188f565b5490506000829003612eeb5760405163b562e8dd60e01b815260040160405180910390fd5b612ef86000848385611be9565b680100000000000000018202612f0c61188f565b6001600160a01b038516600081815260059290920160205260409091208054929092019091554260a01b6001841460e11b1717612f4761188f565b600083815260049190910160205260408120919091556001600160a01b038416908383019083908390600080516020613f888339815191528180a4600183015b818114612fad5780836000600080516020613f88833981519152600080a4600101612f87565b5081600003612fce57604051622e076360e81b815260040160405180910390fd5b80612fd761188f565b5550610db89050565b6040516001600160a01b03838116602483015260448201839052610db891859182169063a9059cbb906064015b604051602081830303815290604052915060e01b6020820180516001600160e01b0383818316178352505050506132f8565b6040516001600160a01b0384811660248301528381166044830152606482018390526115c29186918216906323b872dd9060840161300d565b6000806130848461335b565b8051909150600080613094611a32565b90506000805b848110156131455760008682815181106130b6576130b6613e3e565b60200260200101519050836001600160a01b03168783815181106130dc576130dc613e3e565b60200260200101516001600160a01b03160361310257600197505050505050505061165c565b61310b816134e4565b1561313c576001945061311c6119b5565b6001600160a01b0382166000908152600191909101602052604090205492505b5060010161309a565b5060008181527f49daf035076c43671ca9f9fb568d931e51ab7f9098a5a694781b45341112cf02602052604090205460ff161561318a5760009550505050505061165c565b7fa558e822bd359dacbe30f0da89cbfde5f95895b441e13a4864caec1423c9310060006131d67fa558e822bd359dacbe30f0da89cbfde5f95895b441e13a4864caec1423c931016134f7565b905060005b818110156132e657600083816131f46001830185613501565b6001600160a01b039081168252602080830193909352604091820160002082516060810184529054918216815260ff600160a01b83048116151594820194909452600160a81b9091049092161580159183018290529192506132c6575080600001516001600160a01b0316630cf0b5338e8b8e6040518463ffffffff1660e01b815260040161328593929190613e54565b602060405180830381865afa1580156132a2573d6000803e3d6000fd5b505050506040513d601f19601f820116820180604052508101906132c69190613ca1565b156132dd576001995050505050505050505061165c565b506001016131db565b5060009b9a5050505050505050505050565b600061330d6001600160a01b0384168361350d565b905080516000141580156133325750808060200190518101906133309190613ca1565b155b15610db857604051635274afe760e01b81526001600160a01b0384166004820152602401610a2c565b606060006133907f438e2013c1d3a5bb9642eb30342f1d83ec0d3add620b71cdaf5043d9570b0a95546001600160a01b031690565b60405162468b7360e31b81526001600160a01b0385811660048301529192506000918316906302345b9890602401600060405180830381865afa1580156133db573d6000803e3d6000fd5b505050506040513d6000823e601f3d908101601f191682016040526134039190810190613eb6565b80519091506000613415826001613bc9565b6001600160401b0381111561342c5761342c61377e565b604051908082528060200260200182016040528015613455578160200160208202803683370190505b50905060005b828110156134af5783818151811061347557613475613e3e565b602002602001015182828151811061348f5761348f613e3e565b6001600160a01b039092166020928302919091019091015260010161345b565b50858183815181106134c3576134c3613e3e565b6001600160a01b039092166020928302919091019091015295945050505050565b6000806134f083611f65565b1192915050565b6000610904825490565b600061165c838361351b565b606061165c83836000613545565b600082600001828154811061353257613532613e3e565b9060005260206000200154905092915050565b60608147101561356a5760405163cd78605960e01b8152306004820152602401610a2c565b600080856001600160a01b031684866040516135869190613dfe565b60006040518083038185875af1925050503d80600081146135c3576040519150601f19603f3d011682016040523d82523d6000602084013e6135c8565b606091505b50915091506129028683836060826135e8576135e38261362f565b61165c565b81511580156135ff57506001600160a01b0384163b155b1561362857604051639996b31560e01b81526001600160a01b0385166004820152602401610a2c565b508061165c565b80511561363f5780518082602001fd5b604051630a12f52160e11b815260040160405180910390fd5b60005b8381101561367357818101518382015260200161365b565b50506000910152565b60008151808452613694816020860160208601613658565b601f01601f19169290920160200192915050565b60208152600061165c602083018461367c565b6000602082840312156136cd57600080fd5b5035919050565b6001600160a01b0381168114610a4757600080fd5b803561138f816136d4565b6000806040838503121561370757600080fd5b8235613712816136d4565b946020939093013593505050565b60006020828403121561373257600080fd5b813561165c816136d4565b60008060006060848603121561375257600080fd5b833561375d816136d4565b9250602084013561376d816136d4565b929592945050506040919091013590565b634e487b7160e01b600052604160045260246000fd5b60405161012081016001600160401b03811182821017156137b7576137b761377e565b60405290565b604051601f8201601f191681016001600160401b03811182821017156137e5576137e561377e565b604052919050565b60006001600160401b038311156138065761380661377e565b613819601f8401601f19166020016137bd565b905082815283838301111561382d57600080fd5b828260208301376000602084830101529392505050565b600082601f83011261385557600080fd5b61165c838335602085016137ed565b6001600160401b0381168114610a4757600080fd5b803561138f81613864565b6000806040838503121561389757600080fd5b82356001600160401b03808211156138ae57600080fd5b9084019061012082870312156138c357600080fd5b6138cb613794565b8235828111156138da57600080fd5b6138e688828601613844565b8252506020830135828111156138fb57600080fd5b61390788828601613844565b602083015250604083013560408201526060830135606082015261392d60808401613879565b608082015261393e60a084016136e9565b60a082015261394f60c084016136e9565b60c082015260e083013560e0820152610100915061396e8284016136e9565b82820152809450505050613984602084016136e9565b90509250929050565b60006020828403121561399f57600080fd5b813561165c81613864565b8015158114610a4757600080fd5b600080604083850312156139cb57600080fd5b82356139d6816136d4565b915060208301356139e6816139aa565b809150509250929050565b60008060008060808587031215613a0757600080fd5b8435613a12816136d4565b93506020850135613a22816136d4565b92506040850135915060608501356001600160401b03811115613a4457600080fd5b8501601f81018713613a5557600080fd5b613a64878235602084016137ed565b91505092959194509250565b60008060408385031215613a8357600080fd5b82356001600160401b0380821115613a9a57600080fd5b613aa686838701613844565b93506020850135915080821115613abc57600080fd5b50613ac985828601613844565b9150509250929050565b60008060408385031215613ae657600080fd5b8235613af1816136d4565b915060208301356139e6816136d4565b600181811c90821680613b1557607f821691505b602082108103613b3557634e487b7160e01b600052602260045260246000fd5b50919050565b600060208284031215613b4d57600080fd5b5051919050565b634e487b7160e01b600052601160045260246000fd5b8181038181111561090457610904613b54565b60008351613b8f818460208801613658565b835190830190613ba3818360208801613658565b01949350505050565b600060208284031215613bbe57600080fd5b815161165c816136d4565b8082018082111561090457610904613b54565b600060208284031215613bee57600080fd5b815161ffff8116811461165c57600080fd5b600060208284031215613c1257600080fd5b815161165c81613864565b6001600160401b03818116838216019080821115613c3d57613c3d613b54565b5092915050565b6001600160a01b03858116825284166020820152604081018390526080606082018190526000906129029083018461367c565b600060208284031215613c8957600080fd5b81516001600160e01b03198116811461165c57600080fd5b600060208284031215613cb357600080fd5b815161165c816139aa565b601f821115610db8576000816000526020600020601f850160051c81016020861015613ce75750805b601f850160051c820191505b81811015610c5057828155600101613cf3565b81516001600160401b03811115613d1f57613d1f61377e565b613d3381613d2d8454613b01565b84613cbe565b602080601f831160018114613d685760008415613d505750858301515b600019600386901b1c1916600185901b178555610c50565b600085815260208120601f198616915b82811015613d9757888601518255948401946001909101908401613d78565b5085821015613db55787850151600019600388901b60f8161c191681555b5050505050600190811b01905550565b808202811582820484141761090457610904613b54565b600082613df957634e487b7160e01b600052601260045260246000fd5b500490565b60008251613e10818460208701613658565b9190910192915050565b80516020808301519190811015613b355760001960209190910360031b1b16919050565b634e487b7160e01b600052603260045260246000fd5b60006060820185835260206060602085015281865180845260808601915060208801935060005b81811015613ea05784516001600160a01b031683529383019391830191600101613e7b565b5050809350505050826040830152949350505050565b60006020808385031215613ec957600080fd5b82516001600160401b0380821115613ee057600080fd5b818501915085601f830112613ef457600080fd5b815181811115613f0657613f0661377e565b8060051b9150613f178483016137bd565b8181529183018401918481019088841115613f3157600080fd5b938501935b83851015613f5b5784519250613f4b836136d4565b8282529385019390850190613f36565b9897505050505050505056fe54f22f54f370bd020e00ee80e1a5099a71652e2ccbcf6a75281e4c70a3e11a00ddf252ad1be2c89b69c2b068fc378daa952ba7f163c4a11628f55a4df523b3ef","linkReferences":{}},"methodIdentifiers":{"__ERC721A_init(string,string)":"d2f01f19","__Membership_init((string,string,uint256,uint256,uint64,address,address,uint256,address),address)":"4c2abfbe","_getMembershipCurrency()":"70251563","_getMembershipFeeRecipient()":"1d214b4d","_getMembershipFreeAllocation()":"b3a5be6d","_getMembershipPrice(uint256)":"3ded10de","_getMembershipSupplyLimit()":"8934207f","_getPricingModule()":"ac7ee626","_getSpaceFactory()":"77460cd3","_setMembershipCurrency(address)":"b8307376","_setMembershipFeeRecipient(address)":"62452006","_setMembershipFreeAllocation(uint256)":"f9d5d22c","_setMembershipPrice(uint256)":"0c3a01b1","_setMembershipSupplyLimit(uint256)":"73fc5a05","_setPricingModule(address)":"69d9346b","approve(address,uint256)":"095ea7b3","balanceOf(address)":"70a08231","cancelMembership(uint256)":"89def320","expiresAt(uint256)":"17c95709","getApproved(uint256)":"081812fc","getMembershipCurrency()":"657e45e8","getMembershipDuration()":"8120f0ba","getMembershipFeeRecipient()":"bf3bc878","getMembershipFreeAllocation()":"706b8e09","getMembershipLimit()":"95d600c8","getMembershipPrice()":"1278076a","getMembershipPricingModule()":"e847abdd","getMembershipRenewalPrice(uint256)":"5803909f","getSpaceFactory()":"79dda585","getTokenIdByMembership(address)":"b6697f93","isApprovedForAll(address,address)":"e985e9c5","joinSpace(address)":"8c625b06","joinSpaceWithReferral(address,address,uint256)":"c9f7c833","name()":"06fdde03","ownerOf(uint256)":"6352211e","renewMembership(address)":"61a9c7df","safeTransferFrom(address,address,uint256)":"42842e0e","safeTransferFrom(address,address,uint256,bytes)":"b88d4fde","setApprovalForAll(address,bool)":"a22cb465","setMembershipCurrency(address)":"7d0567c4","setMembershipDuration(uint64)":"83f3f0dc","setMembershipFeeRecipient(address)":"18e5da65","setMembershipFreeAllocation(uint256)":"5becd24a","setMembershipLimit(uint256)":"97fb7c1e","setMembershipPrice(uint256)":"69d5f38a","setMembershipPricingModule(address)":"df9a9fe6","symbol()":"95d89b41","tokenURI(uint256)":"c87b56dd","totalSupply()":"18160ddd","transferFrom(address,address,uint256)":"23b872dd"},"id":130}