{"abi":[{"type":"function","name":"getAllNodeAddresses","inputs":[],"outputs":[{"name":"","type":"address[]","internalType":"address[]"}],"stateMutability":"view"},{"type":"function","name":"getAllNodes","inputs":[],"outputs":[{"name":"","type":"tuple[]","internalType":"struct Node[]","components":[{"name":"status","type":"uint8","internalType":"enum NodeStatus"},{"name":"url","type":"string","internalType":"string"},{"name":"nodeAddress","type":"address","internalType":"address"},{"name":"operator","type":"address","internalType":"address"}]}],"stateMutability":"view"},{"type":"function","name":"getNode","inputs":[{"name":"nodeAddress","type":"address","internalType":"address"}],"outputs":[{"name":"","type":"tuple","internalType":"struct Node","components":[{"name":"status","type":"uint8","internalType":"enum NodeStatus"},{"name":"url","type":"string","internalType":"string"},{"name":"nodeAddress","type":"address","internalType":"address"},{"name":"operator","type":"address","internalType":"address"}]}],"stateMutability":"view"},{"type":"function","name":"getNodeCount","inputs":[],"outputs":[{"name":"","type":"uint256","internalType":"uint256"}],"stateMutability":"view"},{"type":"function","name":"registerNode","inputs":[{"name":"nodeAddress","type":"address","internalType":"address"},{"name":"url","type":"string","internalType":"string"},{"name":"status","type":"uint8","internalType":"enum NodeStatus"}],"outputs":[],"stateMutability":"nonpayable"},{"type":"function","name":"removeNode","inputs":[{"name":"nodeAddress","type":"address","internalType":"address"}],"outputs":[],"stateMutability":"nonpayable"},{"type":"function","name":"updateNodeStatus","inputs":[{"name":"nodeAddress","type":"address","internalType":"address"},{"name":"status","type":"uint8","internalType":"enum NodeStatus"}],"outputs":[],"stateMutability":"nonpayable"},{"type":"function","name":"updateNodeUrl","inputs":[{"name":"nodeAddress","type":"address","internalType":"address"},{"name":"url","type":"string","internalType":"string"}],"outputs":[],"stateMutability":"nonpayable"},{"type":"event","name":"NodeAdded","inputs":[{"name":"nodeAddress","type":"address","indexed":true,"internalType":"address"},{"name":"url","type":"string","indexed":false,"internalType":"string"},{"name":"status","type":"uint8","indexed":false,"internalType":"enum NodeStatus"}],"anonymous":false},{"type":"event","name":"NodeRemoved","inputs":[{"name":"nodeAddress","type":"address","indexed":true,"internalType":"address"}],"anonymous":false},{"type":"event","name":"NodeStatusUpdated","inputs":[{"name":"nodeAddress","type":"address","indexed":true,"internalType":"address"},{"name":"status","type":"uint8","indexed":false,"internalType":"enum NodeStatus"}],"anonymous":false},{"type":"event","name":"NodeUrlUpdated","inputs":[{"name":"nodeAddress","type":"address","indexed":true,"internalType":"address"},{"name":"url","type":"string","indexed":false,"internalType":"string"}],"anonymous":false}],"bytecode":{"object":"0x608060405234801561001057600080fd5b5061126d806100206000396000f3fe608060405234801561001057600080fd5b50600436106100885760003560e01c8063a1174e7d1161005b578063a1174e7d146100f0578063b2b99ec914610105578063c8fe3a0114610118578063eecc66f41461012d57600080fd5b806339bf397e1461008d578063581f8b9b146100a85780637e4465e7146100bd5780639d209048146100d0575b600080fd5b610095610140565b6040519081526020015b60405180910390f35b6100bb6100b6366004610d01565b610151565b005b6100bb6100cb366004610dd7565b6102ed565b6100e36100de366004610e25565b6104dc565b60405161009f9190610f1c565b6100f861065d565b60405161009f9190610f2f565b6100bb610113366004610e25565b610838565b61012061089b565b60405161009f9190610f93565b6100bb61013b366004610fe0565b6108a7565b600061014c6005610a5e565b905090565b8161015d600582610a6e565b6101a05760408051808201825260088152670848288be82aaa8960c31b6020820152905162461bcd60e51b8152610197919060040161103e565b60405180910390fd5b336101ac600882610a6e565b6101e65760408051808201825260088152670848288be82aaa8960c31b6020820152905162461bcd60e51b8152610197919060040161103e565b6001600160a01b03808516600090815260076020526040902060030154859133911681146102445760408051808201825260088152670848288be82aaa8960c31b6020820152905162461bcd60e51b8152610197919060040161103e565b6001600160a01b03861660009081526007602052604090205461026a9060ff1686610a93565b6001600160a01b0386166000908152600760205260409020805486919060ff1916600183600481111561029f5761029f610e40565b0217905550336001600160a01b03167f20891cc7622c7951cbd8c70c61a5201eb45625b8c00e8f6c986cfca78f3dbfa0866040516102dd9190611051565b60405180910390a2505050505050565b336102f9600882610a6e565b6103335760408051808201825260088152670848288be82aaa8960c31b6020820152905162461bcd60e51b8152610197919060040161103e565b8261033f600582610a6e565b6103795760408051808201825260088152670848288be82aaa8960c31b6020820152905162461bcd60e51b8152610197919060040161103e565b6001600160a01b03808516600090815260076020526040902060030154859133911681146103d75760408051808201825260088152670848288be82aaa8960c31b6020820152905162461bcd60e51b8152610197919060040161103e565b6001600160a01b03861660009081526007602090815260409182902091516104019188910161105f565b604051602081830303815290604052805190602001208160010160405160200161042b91906110af565b604051602081830303815290604052805190602001200361047b5760408051808201825260078152664241445f41524760c81b6020820152905162461bcd60e51b8152610197919060040161103e565b600181016104898782611175565b5060028101546040516001600160a01b03909116907f4505168a8705a16fd4d0575197fd0f510db69df93a065e158ad2c0957ba12bac906104cb90899061103e565b60405180910390a250505050505050565b6105076040805160808101909152806000815260606020820181905260006040830181905291015290565b610512600583610a6e565b61055257604080518082018252600e81526d1393d11157d393d517d193d5539160921b6020820152905162461bcd60e51b8152610197919060040161103e565b6001600160a01b038216600090815260076020526040908190208151608081019092528054829060ff16600481111561058d5761058d610e40565b600481111561059e5761059e610e40565b81526020016001820180546105b29061107b565b80601f01602080910402602001604051908101604052809291908181526020018280546105de9061107b565b801561062b5780601f106106005761010080835404028352916020019161062b565b820191906000526020600020905b81548152906001019060200180831161060e57829003601f168201915b505050918352505060028201546001600160a01b03908116602083015260039092015490911660409091015292915050565b6060600061066b6005610a5e565b67ffffffffffffffff81111561068357610683610d34565b6040519080825280602002602001820160405280156106df57816020015b6106cc6040805160808101909152806000815260606020820181905260006040830181905291015290565b8152602001906001900390816106a15790505b50905060005b6106ef6005610a5e565b8110156108325760076000610705600584610bd3565b6001600160a01b03168152602081019190915260409081016000208151608081019092528054829060ff16600481111561074157610741610e40565b600481111561075257610752610e40565b81526020016001820180546107669061107b565b80601f01602080910402602001604051908101604052809291908181526020018280546107929061107b565b80156107df5780601f106107b4576101008083540402835291602001916107df565b820191906000526020600020905b8154815290600101906020018083116107c257829003601f168201915b505050918352505060028201546001600160a01b039081166020830152600390920154909116604090910152825183908390811061081f5761081f611235565b60209081029190910101526001016106e5565b50919050565b6001600160a01b03808216600090815260076020526040902060030154829133911681146108965760408051808201825260088152670848288be82aaa8960c31b6020820152905162461bcd60e51b8152610197919060040161103e565b505050565b606061014c6005610bdf565b336108b3600882610a6e565b6108ed5760408051808201825260088152670848288be82aaa8960c31b6020820152905162461bcd60e51b8152610197919060040161103e565b6108f8600585610a6e565b1561093957604080518082018252600e81526d414c52454144595f45584953545360901b6020820152905162461bcd60e51b8152610197919060040161103e565b6000604051806080016040528084600481111561095857610958610e40565b8152602081018690526001600160a01b0387166040820152336060909101529050610984600586610bec565b506001600160a01b03851660009081526007602052604090208151815483929190829060ff191660018360048111156109bf576109bf610e40565b0217905550602082015160018201906109d89082611175565b506040828101516002830180546001600160a01b03199081166001600160a01b039384161790915560609094015160039093018054909416928116929092179092559051908616907fd6f3629b08191adb8308c3a65d5f8803b7f8f3e359c433fa7ae623276635e56190610a4f908790879061124b565b60405180910390a25050505050565b6000610a68825490565b92915050565b6001600160a01b038116600090815260018301602052604081205415155b9392505050565b6000826004811115610aa757610aa7610e40565b1480610afb57506001826004811115610ac257610ac2610e40565b148015610afb57506003816004811115610ade57610ade610e40565b1480610afb57506004816004811115610af957610af9610e40565b145b80610b4e57506002826004811115610b1557610b15610e40565b148015610b4e57506003816004811115610b3157610b31610e40565b1480610b4e57506004816004811115610b4c57610b4c610e40565b145b80610b8657506004826004811115610b6857610b68610e40565b148015610b8657506003816004811115610b8457610b84610e40565b145b15610b8f575050565b60408051808201825260168152751393d11157d4d510551157d393d517d0531313d5d15160521b6020820152905162461bcd60e51b8152610197919060040161103e565b6000610a8c8383610c01565b60606000610a8c83610c2b565b6000610a8c836001600160a01b038416610c87565b6000826000018281548110610c1857610c18611235565b9060005260206000200154905092915050565b606081600001805480602002602001604051908101604052809291908181526020018280548015610c7b57602002820191906000526020600020905b815481526020019060010190808311610c67575b50505050509050919050565b6000818152600183016020526040812054610cce57508154600181810184556000848152602080822090930184905584548482528286019093526040902091909155610a68565b506000610a68565b80356001600160a01b0381168114610ced57600080fd5b919050565b803560058110610ced57600080fd5b60008060408385031215610d1457600080fd5b610d1d83610cd6565b9150610d2b60208401610cf2565b90509250929050565b634e487b7160e01b600052604160045260246000fd5b600082601f830112610d5b57600080fd5b813567ffffffffffffffff80821115610d7657610d76610d34565b604051601f8301601f19908116603f01168101908282118183101715610d9e57610d9e610d34565b81604052838152866020858801011115610db757600080fd5b836020870160208301376000602085830101528094505050505092915050565b60008060408385031215610dea57600080fd5b610df383610cd6565b9150602083013567ffffffffffffffff811115610e0f57600080fd5b610e1b85828601610d4a565b9150509250929050565b600060208284031215610e3757600080fd5b610a8c82610cd6565b634e487b7160e01b600052602160045260246000fd5b60058110610e7457634e487b7160e01b600052602160045260246000fd5b9052565b60005b83811015610e93578181015183820152602001610e7b565b50506000910152565b60008151808452610eb4816020860160208601610e78565b601f01601f19169290920160200192915050565b610ed3828251610e56565b6000602082015160806020850152610eee6080850182610e9c565b6040848101516001600160a01b03908116918701919091526060948501511693909401929092525090919050565b602081526000610a8c6020830184610ec8565b600060208083016020845280855180835260408601915060408160051b87010192506020870160005b82811015610f8657603f19888603018452610f74858351610ec8565b94509285019290850190600101610f58565b5092979650505050505050565b6020808252825182820181905260009190848201906040850190845b81811015610fd45783516001600160a01b031683529284019291840191600101610faf565b50909695505050505050565b600080600060608486031215610ff557600080fd5b610ffe84610cd6565b9250602084013567ffffffffffffffff81111561101a57600080fd5b61102686828701610d4a565b92505061103560408501610cf2565b90509250925092565b602081526000610a8c6020830184610e9c565b60208101610a688284610e56565b60008251611071818460208701610e78565b9190910192915050565b600181811c9082168061108f57607f821691505b60208210810361083257634e487b7160e01b600052602260045260246000fd5b60008083546110bd8161107b565b600182811680156110d557600181146110ea57611119565b60ff1984168752821515830287019450611119565b8760005260208060002060005b858110156111105781548a8201529084019082016110f7565b50505082870194505b50929695505050505050565b601f821115610896576000816000526020600020601f850160051c8101602086101561114e5750805b601f850160051c820191505b8181101561116d5782815560010161115a565b505050505050565b815167ffffffffffffffff81111561118f5761118f610d34565b6111a38161119d845461107b565b84611125565b602080601f8311600181146111d857600084156111c05750858301515b600019600386901b1c1916600185901b17855561116d565b600085815260208120601f198616915b82811015611207578886015182559484019460019091019084016111e8565b50858210156112255787850151600019600388901b60f8161c191681555b5050505050600190811b01905550565b634e487b7160e01b600052603260045260246000fd5b60408152600061125e6040830185610e9c565b9050610a8c6020830184610e5656","linkReferences":{}},"methodIdentifiers":{"getAllNodeAddresses()":"c8fe3a01","getAllNodes()":"a1174e7d","getNode(address)":"9d209048","getNodeCount()":"39bf397e","registerNode(address,string,uint8)":"eecc66f4","removeNode(address)":"b2b99ec9","updateNodeStatus(address,uint8)":"581f8b9b","updateNodeUrl(address,string)":"7e4465e7"},"id":124}