{"abi":[{"type":"function","name":"CLOCK_MODE","inputs":[],"outputs":[{"name":"","type":"string","internalType":"string"}],"stateMutability":"view"},{"type":"function","name":"DOMAIN_SEPARATOR","inputs":[],"outputs":[{"name":"result","type":"bytes32","internalType":"bytes32"}],"stateMutability":"view"},{"type":"function","name":"__ERC721A_init","inputs":[{"name":"name_","type":"string","internalType":"string"},{"name":"symbol_","type":"string","internalType":"string"}],"outputs":[],"stateMutability":"nonpayable"},{"type":"function","name":"__SpaceOwner_init","inputs":[{"name":"name","type":"string","internalType":"string"},{"name":"symbol","type":"string","internalType":"string"},{"name":"version","type":"string","internalType":"string"}],"outputs":[],"stateMutability":"nonpayable"},{"type":"function","name":"approve","inputs":[{"name":"to","type":"address","internalType":"address"},{"name":"tokenId","type":"uint256","internalType":"uint256"}],"outputs":[],"stateMutability":"payable"},{"type":"function","name":"balanceOf","inputs":[{"name":"owner","type":"address","internalType":"address"}],"outputs":[{"name":"","type":"uint256","internalType":"uint256"}],"stateMutability":"view"},{"type":"function","name":"clock","inputs":[],"outputs":[{"name":"","type":"uint48","internalType":"uint48"}],"stateMutability":"view"},{"type":"function","name":"delegate","inputs":[{"name":"delegatee","type":"address","internalType":"address"}],"outputs":[],"stateMutability":"nonpayable"},{"type":"function","name":"delegateBySig","inputs":[{"name":"delegatee","type":"address","internalType":"address"},{"name":"nonce","type":"uint256","internalType":"uint256"},{"name":"expiry","type":"uint256","internalType":"uint256"},{"name":"v","type":"uint8","internalType":"uint8"},{"name":"r","type":"bytes32","internalType":"bytes32"},{"name":"s","type":"bytes32","internalType":"bytes32"}],"outputs":[],"stateMutability":"nonpayable"},{"type":"function","name":"delegates","inputs":[{"name":"account","type":"address","internalType":"address"}],"outputs":[{"name":"","type":"address","internalType":"address"}],"stateMutability":"view"},{"type":"function","name":"eip712Domain","inputs":[],"outputs":[{"name":"fields","type":"bytes1","internalType":"bytes1"},{"name":"name","type":"string","internalType":"string"},{"name":"version","type":"string","internalType":"string"},{"name":"chainId","type":"uint256","internalType":"uint256"},{"name":"verifyingContract","type":"address","internalType":"address"},{"name":"salt","type":"bytes32","internalType":"bytes32"},{"name":"extensions","type":"uint256[]","internalType":"uint256[]"}],"stateMutability":"view"},{"type":"function","name":"getApproved","inputs":[{"name":"tokenId","type":"uint256","internalType":"uint256"}],"outputs":[{"name":"","type":"address","internalType":"address"}],"stateMutability":"view"},{"type":"function","name":"getFactory","inputs":[],"outputs":[{"name":"","type":"address","internalType":"address"}],"stateMutability":"view"},{"type":"function","name":"getPastTotalSupply","inputs":[{"name":"timepoint","type":"uint256","internalType":"uint256"}],"outputs":[{"name":"","type":"uint256","internalType":"uint256"}],"stateMutability":"view"},{"type":"function","name":"getPastVotes","inputs":[{"name":"account","type":"address","internalType":"address"},{"name":"timepoint","type":"uint256","internalType":"uint256"}],"outputs":[{"name":"","type":"uint256","internalType":"uint256"}],"stateMutability":"view"},{"type":"function","name":"getSpaceInfo","inputs":[{"name":"space","type":"address","internalType":"address"}],"outputs":[{"name":"","type":"tuple","internalType":"struct ISpaceOwnerBase.Space","components":[{"name":"name","type":"string","internalType":"string"},{"name":"uri","type":"string","internalType":"string"},{"name":"tokenId","type":"uint256","internalType":"uint256"},{"name":"createdAt","type":"uint256","internalType":"uint256"}]}],"stateMutability":"view"},{"type":"function","name":"getVotes","inputs":[{"name":"account","type":"address","internalType":"address"}],"outputs":[{"name":"","type":"uint256","internalType":"uint256"}],"stateMutability":"view"},{"type":"function","name":"isApprovedForAll","inputs":[{"name":"owner","type":"address","internalType":"address"},{"name":"operator","type":"address","internalType":"address"}],"outputs":[{"name":"","type":"bool","internalType":"bool"}],"stateMutability":"view"},{"type":"function","name":"mintSpace","inputs":[{"name":"name","type":"string","internalType":"string"},{"name":"uri","type":"string","internalType":"string"},{"name":"space","type":"address","internalType":"address"}],"outputs":[{"name":"tokenId","type":"uint256","internalType":"uint256"}],"stateMutability":"nonpayable"},{"type":"function","name":"name","inputs":[],"outputs":[{"name":"","type":"string","internalType":"string"}],"stateMutability":"view"},{"type":"function","name":"nextTokenId","inputs":[],"outputs":[{"name":"","type":"uint256","internalType":"uint256"}],"stateMutability":"view"},{"type":"function","name":"nonces","inputs":[{"name":"owner","type":"address","internalType":"address"}],"outputs":[{"name":"result","type":"uint256","internalType":"uint256"}],"stateMutability":"view"},{"type":"function","name":"ownerOf","inputs":[{"name":"tokenId","type":"uint256","internalType":"uint256"}],"outputs":[{"name":"","type":"address","internalType":"address"}],"stateMutability":"view"},{"type":"function","name":"safeTransferFrom","inputs":[{"name":"from","type":"address","internalType":"address"},{"name":"to","type":"address","internalType":"address"},{"name":"tokenId","type":"uint256","internalType":"uint256"}],"outputs":[],"stateMutability":"payable"},{"type":"function","name":"safeTransferFrom","inputs":[{"name":"from","type":"address","internalType":"address"},{"name":"to","type":"address","internalType":"address"},{"name":"tokenId","type":"uint256","internalType":"uint256"},{"name":"_data","type":"bytes","internalType":"bytes"}],"outputs":[],"stateMutability":"payable"},{"type":"function","name":"setApprovalForAll","inputs":[{"name":"operator","type":"address","internalType":"address"},{"name":"approved","type":"bool","internalType":"bool"}],"outputs":[],"stateMutability":"nonpayable"},{"type":"function","name":"setFactory","inputs":[{"name":"factory","type":"address","internalType":"address"}],"outputs":[],"stateMutability":"nonpayable"},{"type":"function","name":"symbol","inputs":[],"outputs":[{"name":"","type":"string","internalType":"string"}],"stateMutability":"view"},{"type":"function","name":"tokenURI","inputs":[{"name":"tokenId","type":"uint256","internalType":"uint256"}],"outputs":[{"name":"","type":"string","internalType":"string"}],"stateMutability":"view"},{"type":"function","name":"totalSupply","inputs":[],"outputs":[{"name":"","type":"uint256","internalType":"uint256"}],"stateMutability":"view"},{"type":"function","name":"transferFrom","inputs":[{"name":"from","type":"address","internalType":"address"},{"name":"to","type":"address","internalType":"address"},{"name":"tokenId","type":"uint256","internalType":"uint256"}],"outputs":[],"stateMutability":"payable"},{"type":"function","name":"updateSpaceInfo","inputs":[{"name":"space","type":"address","internalType":"address"},{"name":"name","type":"string","internalType":"string"},{"name":"uri","type":"string","internalType":"string"}],"outputs":[],"stateMutability":"nonpayable"},{"type":"event","name":"Approval","inputs":[{"name":"owner","type":"address","indexed":true,"internalType":"address"},{"name":"approved","type":"address","indexed":true,"internalType":"address"},{"name":"tokenId","type":"uint256","indexed":true,"internalType":"uint256"}],"anonymous":false},{"type":"event","name":"ApprovalForAll","inputs":[{"name":"owner","type":"address","indexed":true,"internalType":"address"},{"name":"operator","type":"address","indexed":true,"internalType":"address"},{"name":"approved","type":"bool","indexed":false,"internalType":"bool"}],"anonymous":false},{"type":"event","name":"ConsecutiveTransfer","inputs":[{"name":"fromTokenId","type":"uint256","indexed":true,"internalType":"uint256"},{"name":"toTokenId","type":"uint256","indexed":false,"internalType":"uint256"},{"name":"from","type":"address","indexed":true,"internalType":"address"},{"name":"to","type":"address","indexed":true,"internalType":"address"}],"anonymous":false},{"type":"event","name":"DelegateChanged","inputs":[{"name":"delegator","type":"address","indexed":true,"internalType":"address"},{"name":"fromDelegate","type":"address","indexed":true,"internalType":"address"},{"name":"toDelegate","type":"address","indexed":true,"internalType":"address"}],"anonymous":false},{"type":"event","name":"DelegateVotesChanged","inputs":[{"name":"delegate","type":"address","indexed":true,"internalType":"address"},{"name":"previousBalance","type":"uint256","indexed":false,"internalType":"uint256"},{"name":"newBalance","type":"uint256","indexed":false,"internalType":"uint256"}],"anonymous":false},{"type":"event","name":"EIP712DomainChanged","inputs":[],"anonymous":false},{"type":"event","name":"GuardianUpdated","inputs":[{"name":"caller","type":"address","indexed":true,"internalType":"address"},{"name":"enabled","type":"bool","indexed":true,"internalType":"bool"},{"name":"cooldown","type":"uint256","indexed":false,"internalType":"uint256"},{"name":"timestamp","type":"uint256","indexed":false,"internalType":"uint256"}],"anonymous":false},{"type":"event","name":"Initialized","inputs":[{"name":"version","type":"uint32","indexed":false,"internalType":"uint32"}],"anonymous":false},{"type":"event","name":"InterfaceAdded","inputs":[{"name":"interfaceId","type":"bytes4","indexed":true,"internalType":"bytes4"}],"anonymous":false},{"type":"event","name":"InterfaceRemoved","inputs":[{"name":"interfaceId","type":"bytes4","indexed":true,"internalType":"bytes4"}],"anonymous":false},{"type":"event","name":"OwnershipTransferred","inputs":[{"name":"previousOwner","type":"address","indexed":true,"internalType":"address"},{"name":"newOwner","type":"address","indexed":true,"internalType":"address"}],"anonymous":false},{"type":"event","name":"SpaceOwner__SetFactory","inputs":[{"name":"factory","type":"address","indexed":false,"internalType":"address"}],"anonymous":false},{"type":"event","name":"SpaceOwner__UpdateSpace","inputs":[{"name":"space","type":"address","indexed":true,"internalType":"address"}],"anonymous":false},{"type":"event","name":"Transfer","inputs":[{"name":"from","type":"address","indexed":true,"internalType":"address"},{"name":"to","type":"address","indexed":true,"internalType":"address"},{"name":"tokenId","type":"uint256","indexed":true,"internalType":"uint256"}],"anonymous":false},{"type":"error","name":"AlreadyDisabled","inputs":[]},{"type":"error","name":"AlreadyEnabled","inputs":[]},{"type":"error","name":"ApprovalCallerNotOwnerNorApproved","inputs":[]},{"type":"error","name":"ApprovalQueryForNonexistentToken","inputs":[]},{"type":"error","name":"BalanceQueryForZeroAddress","inputs":[]},{"type":"error","name":"ECDSAInvalidSignature","inputs":[]},{"type":"error","name":"ECDSAInvalidSignatureLength","inputs":[{"name":"length","type":"uint256","internalType":"uint256"}]},{"type":"error","name":"ECDSAInvalidSignatureS","inputs":[{"name":"s","type":"bytes32","internalType":"bytes32"}]},{"type":"error","name":"GuardianEnabled","inputs":[]},{"type":"error","name":"Initializable_AlreadyInitialized","inputs":[{"name":"version","type":"uint32","internalType":"uint32"}]},{"type":"error","name":"Initializable_InInitializingState","inputs":[]},{"type":"error","name":"Initializable_NotInInitializingState","inputs":[]},{"type":"error","name":"Introspection_AlreadySupported","inputs":[]},{"type":"error","name":"Introspection_NotSupported","inputs":[]},{"type":"error","name":"InvalidAccountNonce","inputs":[{"name":"account","type":"address","internalType":"address"},{"name":"currentNonce","type":"uint256","internalType":"uint256"}]},{"type":"error","name":"MintERC2309QuantityExceedsLimit","inputs":[]},{"type":"error","name":"MintToZeroAddress","inputs":[]},{"type":"error","name":"MintZeroQuantity","inputs":[]},{"type":"error","name":"NotExternalAccount","inputs":[]},{"type":"error","name":"Ownable__NotOwner","inputs":[{"name":"account","type":"address","internalType":"address"}]},{"type":"error","name":"Ownable__ZeroAddress","inputs":[]},{"type":"error","name":"OwnerQueryForNonexistentToken","inputs":[]},{"type":"error","name":"OwnershipNotInitializedForExtraData","inputs":[]},{"type":"error","name":"SafeCastOverflowedUintDowncast","inputs":[{"name":"bits","type":"uint8","internalType":"uint8"},{"name":"value","type":"uint256","internalType":"uint256"}]},{"type":"error","name":"SpaceOwner__OnlyFactoryAllowed","inputs":[]},{"type":"error","name":"SpaceOwner__OnlySpaceOwnerAllowed","inputs":[]},{"type":"error","name":"TransferCallerNotOwnerNorApproved","inputs":[]},{"type":"error","name":"TransferFromIncorrectOwner","inputs":[]},{"type":"error","name":"TransferToNonERC721ReceiverImplementer","inputs":[]},{"type":"error","name":"TransferToZeroAddress","inputs":[]},{"type":"error","name":"URIQueryForNonexistentToken","inputs":[]},{"type":"error","name":"Validator__InvalidAddress","inputs":[]},{"type":"error","name":"Validator__InvalidStringLength","inputs":[]}],"bytecode":{"object":"0x60806040523480156200001157600080fd5b506200001c62000022565b620000ca565b7f59b501c3653afc186af7d48dda36cf6732bd21629a6295693664240a6ef520008054640100000000900460ff16156200006f576040516366008a2d60e01b815260040160405180910390fd5b805463ffffffff9081161015620000c757805463ffffffff191663ffffffff90811782556040519081527fe9c9b456cb2994b80aeef036cf59d26e9617df80f816a6ee5a5b4166e07e2f5c9060200160405180910390a15b50565b61394780620000da6000396000f3fe6080604052600436106101e35760003560e01c806375794a3c116101025780639ab24eb011610095578063c87b56dd11610064578063c87b56dd14610546578063d2f01f1914610566578063d7a901d314610586578063e985e9c5146105a657600080fd5b80639ab24eb0146104d3578063a22cb465146104f3578063b88d4fde14610513578063c3cda5201461052657600080fd5b80638e539e8c116100d15780638e539e8c1461045257806391ddadf41461047257806391de4a831461049e57806395d89b41146104be57600080fd5b806375794a3c146103e05780637ecebe00146103f557806384b0196e1461041557806388cc58e41461043d57600080fd5b806342842e0e1161017a5780635c19a95c116101495780635c19a95c146103535780636352211e146103735780636a9a38e61461039357806370a08231146103c057600080fd5b806342842e0e146102eb5780634bf5d7e9146102fe578063587cde1e146103135780635bb478081461033357600080fd5b806323b872dd116101b657806323b872dd146102835780633644e515146102965780633953801b146102ab5780633a46b1a8146102cb57600080fd5b806306fdde03146101e8578063081812fc14610213578063095ea7b31461024b57806318160ddd14610260575b600080fd5b3480156101f457600080fd5b506101fd6105d6565b60405161020a9190612f86565b60405180910390f35b34801561021f57600080fd5b5061023361022e366004612f99565b610671565b6040516001600160a01b03909116815260200161020a565b61025e610259366004612fce565b610682565b005b34801561026c57600080fd5b506102756106ca565b60405190815260200161020a565b61025e610291366004612ff8565b6106d9565b3480156102a257600080fd5b506102756108e9565b3480156102b757600080fd5b5061025e6102c63660046130e0565b6108f3565b3480156102d757600080fd5b506102756102e6366004612fce565b61090c565b61025e6102f9366004612ff8565b61091f565b34801561030a57600080fd5b506101fd61093a565b34801561031f57600080fd5b5061023361032e366004613154565b610944565b34801561033f57600080fd5b5061025e61034e366004613154565b61094f565b34801561035f57600080fd5b5061025e61036e366004613154565b6109ac565b34801561037f57600080fd5b5061023361038e366004612f99565b6109b6565b34801561039f57600080fd5b506103b36103ae366004613154565b6109c1565b60405161020a919061316f565b3480156103cc57600080fd5b506102756103db366004613154565b6109f5565b3480156103ec57600080fd5b50610275610a00565b34801561040157600080fd5b50610275610410366004613154565b610a0a565b34801561042157600080fd5b5061042a610a47565b60405161020a97969594939291906131c9565b34801561044957600080fd5b50610233610b0a565b34801561045e57600080fd5b5061027561046d366004612f99565b610b2b565b34801561047e57600080fd5b50610487610b36565b60405165ffffffffffff909116815260200161020a565b3480156104aa57600080fd5b506102756104b9366004613262565b610b40565b3480156104ca57600080fd5b506101fd610ba8565b3480156104df57600080fd5b506102756104ee366004613154565b610bc0565b3480156104ff57600080fd5b5061025e61050e3660046132d6565b610bcb565b61025e610521366004613312565b610c04565b34801561053257600080fd5b5061025e61054136600461338e565b610c4e565b34801561055257600080fd5b506101fd610561366004612f99565b610c5c565b34801561057257600080fd5b5061025e6105813660046133ee565b610c8d565b34801561059257600080fd5b5061025e6105a1366004613452565b610cce565b3480156105b257600080fd5b506105c66105c13660046134a1565b610db9565b604051901515815260200161020a565b60606105e0610dc5565b60020180546105ee906134d4565b80601f016020809104026020016040519081016040528092919081815260200182805461061a906134d4565b80156106675780601f1061063c57610100808354040283529160200191610667565b820191906000526020600020905b81548152906001019060200180831161064a57829003601f168201915b5050505050905090565b600061067c82610de9565b92915050565b6001600160a01b0382161580159061069e575061069e33610e36565b156106bc57604051638043dfaf60e01b815260040160405180910390fd5b6106c68282610eb2565b5050565b60006106d4610ebe565b905090565b60006106e482610edd565b9050836001600160a01b0316816001600160a01b0316146107175760405162a1148160e81b815260040160405180910390fd5b60008061072384610f78565b9150915061074881876107333390565b6001600160a01b039081169116811491141790565b610773576107568633610db9565b61077357604051632ce44b5f60e11b815260040160405180910390fd5b6001600160a01b03851661079a57604051633a954ecd60e21b815260040160405180910390fd5b6107a78686866001610fa0565b80156107b257600082555b6107ba610dc5565b6001600160a01b03871660009081526005919091016020526040902080546000190190556107e6610dc5565b6001600160a01b03861660008181526005929092016020526040909120805460010190554260a01b17600160e11b1761081d610dc5565b60008681526004919091016020526040812091909155600160e11b84169003610893576001840161084c610dc5565b6000828152600491909101602052604081205490036108915761086d610dc5565b548114610891578361087d610dc5565b600083815260049190910160205260409020555b505b83856001600160a01b0316876001600160a01b03167fddf252ad1be2c89b69c2b068fc378daa952ba7f163c4a11628f55a4df523b3ef60405160405180910390a46108e18686866001610fdf565b505050505050565b60006106d4610fea565b6108fc83610ff4565b610907838383611031565b505050565b600061091883836110e4565b9392505050565b61090783838360405180602001604052806000815250610c04565b60606106d4611182565b600061067c8261121a565b7f4675fa8241f86f37157864d3d49b85ad4b164352c516da28e1678a90470ae300546001600160a01b031633146109a0576040516365f4906560e01b81523360048201526024015b60405180910390fd5b6109a981611257565b50565b6109a933826112c1565b600061067c82610edd565b6109ec6040518060800160405280606081526020016060815260200160008152602001600081525090565b61067c8261135b565b600061067c82611519565b60006106d4611582565b6001600160a01b03811660009081527fda5d6d87446d81938877f0ee239dac391146dd7466ea30567f72becf06773c00602052604081205461067c565b6000606080828080836000805160206138a783398151915254158015610a8c57507f3a497e775dc7c283402f0d3c39c5f0ea53870eb15ab2dddfde5a1162a84c336d54155b610ad05760405162461bcd60e51b81526020600482015260156024820152741152540dcc4c8e88155b9a5b9a5d1a585b1a5e9959605a1b6044820152606401610997565b610ad8611592565b610ae06115a8565b60408051600080825260208201909252600f60f81b9b939a50919850469750309650945092509050565b60006106d4600080516020613887833981519152546001600160a01b031690565b600061067c826115be565b60006106d4611657565b60008060008051602061388783398151915280549091506001600160a01b03163314610b7f5760405163443e750b60e11b815260040160405180910390fd5b610b87611582565b9150610b9585858486611662565b610ba0336001611767565b509392505050565b6060610bb2610dc5565b60030180546105ee906134d4565b600061067c826118b7565b808015610bdc5750610bdc33610e36565b15610bfa57604051638043dfaf60e01b815260040160405180910390fd5b6106c682826118e5565b610c0f8484846106d9565b6001600160a01b0383163b15610c4857610c2b84848484611962565b610c48576040516368d2bf6b60e11b815260040160405180910390fd5b50505050565b6108e1868686868686611a4d565b6060610c6782611b36565b610c8457604051630a14c4b560e41b815260040160405180910390fd5b61067c82611b72565b60008051602061390783398151915254600160201b900460ff16610cc457604051630ef4733760e31b815260040160405180910390fd5b6106c68282611d9e565b6000805160206139078339815191528054600160201b900460ff161580610cf857303b1515610d07565b8154600163ffffffff90911610155b15610d30578154604051630a8ef77f60e31b815263ffffffff9091166004820152602401610997565b815463ffffffff191660011782558015610d5757815464ff000000001916600160201b1782555b610d618585611d9e565b610d6b8584611dff565b8015610db257815464ff0000000019168255604051600181527fe9c9b456cb2994b80aeef036cf59d26e9617df80f816a6ee5a5b4166e07e2f5c9060200160405180910390a15b5050505050565b60006109188383611e40565b7f6569bde4a160c636ea8b8d11acb83a60d7fec0b8f2e09389306cba0e1340df0090565b6000610df482611b36565b610e11576040516333d1c03960e21b815260040160405180910390fd5b610e19610dc5565b60009283526006016020525060409020546001600160a01b031690565b60007f0c89d3aad1b583c77a2e9f9fffa651b386c9c29e300bf2a8e2f3de1bb0100a006001600160a01b0383163b15801561091857506001600160a01b0383166000908152600182016020526040902054158061091857506001600160a01b038316600090815260018201602052604090205442109392505050565b6106c682826001611e7d565b600080610ec9610dc5565b60010154610ed5610dc5565b540303919050565b600080610ee8610dc5565b60008481526004820160205260408120549350909150600160e01b83169003610f5e5781600003610f585780548310610f3457604051636f96cda160e11b815260040160405180910390fd5b5b600019909201600081815260048401602052604090205490929091508115610f35575b50919050565b50604051636f96cda160e11b815260040160405180910390fd5b6000806000610f85610dc5565b60009485526006016020525050604090912080549092909150565b6001600160a01b03841615801590610fbc5750610fbc84610e36565b15610fda57604051638043dfaf60e01b815260040160405180910390fd5b610c48565b610fda848483611f32565b60006106d4611fd4565b3361100a6110018361135b565b604001516109b6565b6001600160a01b0316146109a95760405163dbfcf17d60e01b815260040160405180910390fd5b61103c826002612048565b611047816001612048565b6001600160a01b03831660009081527f7fc24c9500f4388b797f8975c0991ad4ffd0338c2cbf5335b2bf5b7fe57477026020526040902060008051602061388783398151915290806110998582613550565b50600181016110a88482613550565b506040516001600160a01b038616907f66da702131703ee5e745ecf2f5b98311caa00729edd55541baad49289fc42ed890600090a25050505050565b60006110ee611657565b65ffffffffffff16821061113b5760405162461bcd60e51b81526020600482015260146024820152730566f7465733a20667574757265206c6f6f6b75760641b6044820152606401610997565b6111726111478361206c565b6001600160a01b038516600090815260008051602061392783398151915260205260409020906120a1565b6001600160e01b03169392505050565b60604361118d611657565b65ffffffffffff16146111e25760405162461bcd60e51b815260206004820152601860248201527f566f7465733a2062726f6b656e20636c6f636b206d6f646500000000000000006044820152606401610997565b5060408051808201909152601d81527f6d6f64653d626c6f636b6e756d6265722666726f6d3d64656661756c74000000602082015290565b6001600160a01b0390811660009081527f423fcc3514229d79a30fb79b40a232f70b3fabdf664a75db0859c67848497f6560205260409020541690565b61126081612155565b60008051602061388783398151915280546001600160a01b0383166001600160a01b03199091168117825560408051918252517f64c14256e532eac2ec90ddc4973ed2d3f5623faf7951d90eec38f9b7812f99a79181900360200190a15050565b60006112cc8361121a565b6001600160a01b0384811660008181527f423fcc3514229d79a30fb79b40a232f70b3fabdf664a75db0859c67848497f65602052604080822080546001600160a01b031916888616908117909155905194955093928516927f3134e8a2e6d97e929a7e54011ea5485d7d196dd5f0ba4d4ef95803e8e3fc257f9190a461090781836113568661217c565b612187565b6113866040518060800160405280606081526020016060815260200160008152602001600081525090565b6001600160a01b03821660009081527f7fc24c9500f4388b797f8975c0991ad4ffd0338c2cbf5335b2bf5b7fe57477026020526040908190208151608081019092528054600080516020613887833981519152929190829082906113e9906134d4565b80601f0160208091040260200160405190810160405280929190818152602001828054611415906134d4565b80156114625780601f1061143757610100808354040283529160200191611462565b820191906000526020600020905b81548152906001019060200180831161144557829003601f168201915b5050505050815260200160018201805461147b906134d4565b80601f01602080910402602001604051908101604052809291908181526020018280546114a7906134d4565b80156114f45780601f106114c9576101008083540402835291602001916114f4565b820191906000526020600020905b8154815290600101906020018083116114d757829003601f168201915b5050505050815260200160028201548152602001600382015481525050915050919050565b60006001600160a01b038216611542576040516323d3ad8160e21b815260040160405180910390fd5b67ffffffffffffffff611553610dc5565b6005016000846001600160a01b03166001600160a01b0316815260200190815260200160002054169050919050565b600061158c610dc5565b54919050565b60606000805160206138a78339815191526105e0565b60606000805160206138a7833981519152610bb2565b60006115c8611657565b65ffffffffffff1682106116155760405162461bcd60e51b81526020600482015260146024820152730566f7465733a20667574757265206c6f6f6b75760641b6044820152606401610997565b6116486116218361206c565b7f423fcc3514229d79a30fb79b40a232f70b3fabdf664a75db0859c67848497f67906120a1565b6001600160e01b031692915050565b60006106d443612308565b61166d846002612048565b611678836000612048565b61168181612155565b60008281527f7fc24c9500f4388b797f8975c0991ad4ffd0338c2cbf5335b2bf5b7fe57477016020908152604080832080546001600160a01b0319166001600160a01b03861690811790915581516080810183528881528084018890528083018790524260608201529084527f7fc24c9500f4388b797f8975c0991ad4ffd0338c2cbf5335b2bf5b7fe5747702909252909120815160008051602061388783398151915292919081906117349082613550565b50602082015160018201906117499082613550565b50604082015160028201556060909101516003909101555050505050565b6000611771610dc5565b54905060008290036117965760405163b562e8dd60e01b815260040160405180910390fd5b6117a36000848385610fa0565b6801000000000000000182026117b7610dc5565b6001600160a01b038516600081815260059290920160205260409091208054929092019091554260a01b6001841460e11b17176117f2610dc5565b600083815260049190910160205260408120919091556001600160a01b0384169083830190839083907fddf252ad1be2c89b69c2b068fc378daa952ba7f163c4a11628f55a4df523b3ef8180a4600183015b81811461187c57808360007fddf252ad1be2c89b69c2b068fc378daa952ba7f163c4a11628f55a4df523b3ef600080a4600101611844565b508160000361189d57604051622e076360e81b815260040160405180910390fd5b806118a6610dc5565b555061090790506000848385610fdf565b6001600160a01b0381166000908152600080516020613927833981519152602052604081206116489061233b565b806118ee610dc5565b336000818152600792909201602090815260408084206001600160a01b03881680865290835293819020805460ff19169515159590951790945592518415158152919290917f17307eab39ab6107e8899845ad3d59bd9653f200f220920489ca2b5937696c31910160405180910390a35050565b604051630a85bd0160e11b81526000906001600160a01b0385169063150b7a0290611997903390899088908890600401613610565b6020604051808303816000875af19250505080156119d2575060408051601f3d908101601f191682019092526119cf9181019061364d565b60015b611a30573d808015611a00576040519150601f19603f3d011682016040523d82523d6000602084013e611a05565b606091505b508051600003611a28576040516368d2bf6b60e11b815260040160405180910390fd5b805181602001fd5b6001600160e01b031916630a85bd0160e11b149050949350505050565b83421115611a9d5760405162461bcd60e51b815260206004820152601860248201527f566f7465733a207369676e6174757265206578706972656400000000000000006044820152606401610997565b604080517fe48329057bfd03d55e49b547132e39cffd9c1820ad7b9d4c5307691425d15adf60208201526001600160a01b038816918101919091526060810186905260808101859052600090611b1790611b0f9060a00160405160208183030381529060405280519060200120612374565b8585856123a1565b9050611b2381876123cf565b611b2d81886112c1565b50505050505050565b6000611b40610dc5565b548210801561067c5750600160e01b611b57610dc5565b60008481526004919091016020526040902054161592915050565b60008181527f7fc24c9500f4388b797f8975c0991ad4ffd0338c2cbf5335b2bf5b7fe57477016020526040902054606090600080516020613887833981519152906001600160a01b031680611bd857505060408051602081019091526000815292915050565b6001600160a01b0381166000908152600283016020526040808220815160808101909252805482908290611c0b906134d4565b80601f0160208091040260200160405190810160405280929190818152602001828054611c37906134d4565b8015611c845780601f10611c5957610100808354040283529160200191611c84565b820191906000526020600020905b815481529060010190602001808311611c6757829003601f168201915b50505050508152602001600182018054611c9d906134d4565b80601f0160208091040260200160405190810160405280929190818152602001828054611cc9906134d4565b8015611d165780601f10611ceb57610100808354040283529160200191611d16565b820191906000526020600020905b815481529060010190602001808311611cf957829003601f168201915b50505050508152602001600282015481526020016003820154815250509050611d7581600001518260200151611d4f8460600151612441565b604051602001611d6193929190613677565b6040516020818303038152906040526124d4565b604051602001611d859190613759565b6040516020818303038152906040529350505050919050565b60008051602061390783398151915254600160201b900460ff16611dd557604051630ef4733760e31b815260040160405180910390fd5b611de56380ac58cd60e01b612639565b611df5635b5e139f60e01b612639565b6106c68282612717565b60008051602061390783398151915254600160201b900460ff16611e3657604051630ef4733760e31b815260040160405180910390fd5b6106c68282612749565b6000611e4a610dc5565b6001600160a01b039384166000908152600791909101602090815260408083209490951682529290925250205460ff1690565b6000611e88836109b6565b90508115611ec757336001600160a01b03821614611ec757611eaa8133611e40565b611ec7576040516367d9dca160e11b815260040160405180910390fd5b83611ed0610dc5565b6000858152600691909101602052604080822080546001600160a01b0319166001600160a01b0394851617905551859287811692908516917f8c5be1e5ebec7d5bd14f71427d1e84f3dd0314c0f7b2291e5b200ac8c7c3b9259190a450505050565b6001600160a01b038316611f7857611f757f423fcc3514229d79a30fb79b40a232f70b3fabdf664a75db0859c67848497f676127db611f70846127e7565b61281b565b50505b6001600160a01b038216611fb957611fb67f423fcc3514229d79a30fb79b40a232f70b3fabdf664a75db0859c67848497f67612864611f70846127e7565b50505b610907611fc58461121a565b611fce8461121a565b83612187565b60007f8b73c3c69bb8fe3d512ecc4cf759cc79239f7b179b0ffacaa9a75d522b39400f611fff612870565b6120076128d6565b60408051602081019490945283019190915260608201524660808201523060a082015260c00160405160208183030381529060405280519060200120905090565b81518290821115610907576040516374eb20a760e01b815260040160405180910390fd5b600063ffffffff82111561209d576040516306dfcc6560e41b81526020600482015260248101839052604401610997565b5090565b8154600090818160058111156120fe5760006120bc84612926565b6120c690856137b4565b60008881526020902090915081015463ffffffff90811690871610156120ee578091506120fc565b6120f98160016137c7565b92505b505b600061210c87878585612a0e565b9050801561214757612131876121236001846137b4565b600091825260209091200190565b54600160201b90046001600160e01b031661214a565b60005b979650505050505050565b6001600160a01b0381166109a9576040516302e47d1560e41b815260040160405180910390fd5b600061067c826109f5565b816001600160a01b0316836001600160a01b0316141580156121a95750600081115b15610907576001600160a01b03831615612259576001600160a01b03831660009081526000805160206139278339815191526020526040812081906121f490612864611f70866127e7565b6001600160e01b031691506001600160e01b03169150846001600160a01b03167fdec2bacdd2f05b59de34da9b523dff8be42e5e38e818c82fdb0bae774387a724838360405161224e929190918252602082015260400190565b60405180910390a250505b6001600160a01b03821615610907576001600160a01b038216600090815260008051602061392783398151915260205260408120819061229f906127db611f70866127e7565b6001600160e01b031691506001600160e01b03169150836001600160a01b03167fdec2bacdd2f05b59de34da9b523dff8be42e5e38e818c82fdb0bae774387a72483836040516122f9929190918252602082015260400190565b60405180910390a25050505050565b600065ffffffffffff82111561209d576040516306dfcc6560e41b81526030600482015260248101839052604401610997565b8054600090801561236b57612355836121236001846137b4565b54600160201b90046001600160e01b0316610918565b60009392505050565b600061067c612381610fea565b8360405161190160f01b8152600281019290925260228201526042902090565b6000806000806123b388888888612a64565b9250925092506123c38282612b33565b50909695505050505050565b6001600160a01b03821660009081527fda5d6d87446d81938877f0ee239dac391146dd7466ea30567f72becf06773c0060205260409020805460018101909155818114610907576040516301d4b62360e61b81526001600160a01b038416600482015260248101829052604401610997565b6060600061244e83612bec565b600101905060008167ffffffffffffffff81111561246e5761246e613034565b6040519080825280601f01601f191660200182016040528015612498576020820181803683370190505b5090508181016020015b600019016f181899199a1a9b1b9c1cb0b131b232b360811b600a86061a8153600a85049450846124a257509392505050565b606081516000036124f357505060408051602081019091526000815290565b60006040518060600160405280604081526020016138c7604091399050600060038451600261252291906137c7565b61252c91906137f0565b612537906004613812565b905060006125468260206137c7565b67ffffffffffffffff81111561255e5761255e613034565b6040519080825280601f01601f191660200182016040528015612588576020820181803683370190505b509050818152600183018586518101602084015b818310156125f4576003830192508251603f8160121c168501518253600182019150603f81600c1c168501518253600182019150603f8160061c168501518253600182019150603f811685015182535060010161259c565b60038951066001811461260e576002811461261f5761262b565b613d3d60f01b60011983015261262b565b603d60f81b6000198301525b509398975050505050505050565b6001600160e01b0319811660009081527f81088bbc801e045ea3e7620779ab349988f58afbdfba10dff983df3f33522b00602052604090205460ff1615156001146126c6576001600160e01b0319811660009081527f81088bbc801e045ea3e7620779ab349988f58afbdfba10dff983df3f33522b0060205260409020805460ff191660011790556126df565b604051637967f77d60e11b815260040160405180910390fd5b6040516001600160e01b03198216907f78f84e5b1c5c05be2b5ad3800781dd404d6d6c6302bc755c0fe20f58a33a7f2290600090a250565b6000612721610dc5565b9050600281016127318482613550565b50600381016127408382613550565b50600090555050565b7f3a497e775dc7c283402f0d3c39c5f0ea53870eb15ab2dddfde5a1162a84c336e6127748382613550565b507f3a497e775dc7c283402f0d3c39c5f0ea53870eb15ab2dddfde5a1162a84c336f6127a08282613550565b505060006000805160206138a78339815191528190557f3a497e775dc7c283402f0d3c39c5f0ea53870eb15ab2dddfde5a1162a84c336d5550565b60006109188284613829565b60006001600160e01b0382111561209d576040516306dfcc6560e41b815260e0600482015260248101839052604401610997565b60008061285761283961282c611657565b65ffffffffffff1661206c565b61284f6128458861233b565b868863ffffffff16565b879190612cc4565b915091505b935093915050565b60006109188284613850565b60008061287b611592565b805190915015612892578051602090910120919050565b6000805160206138a78339815191525480156128ae5792915050565b7fc5d2460186f7233c927e7db2dcc703c0e500b653ca82273b7bfad8045d85a4709250505090565b6000806128e16115a8565b8051909150156128f8578051602090910120919050565b7f3a497e775dc7c283402f0d3c39c5f0ea53870eb15ab2dddfde5a1162a84c336d5480156128ae5792915050565b60008160000361293857506000919050565b6000600161294584612cd2565b901c6001901b9050600181848161295e5761295e6137da565b048201901c90506001818481612976576129766137da565b048201901c9050600181848161298e5761298e6137da565b048201901c905060018184816129a6576129a66137da565b048201901c905060018184816129be576129be6137da565b048201901c905060018184816129d6576129d66137da565b048201901c905060018184816129ee576129ee6137da565b048201901c905061091881828581612a0857612a086137da565b04612d66565b60005b81831015610ba0576000612a258484612d7c565b60008781526020902090915063ffffffff86169082015463ffffffff161115612a5057809250612a5e565b612a5b8160016137c7565b93505b50612a11565b600080807f7fffffffffffffffffffffffffffffff5d576e7357a4501ddfe92f46681b20a0841115612a9f5750600091506003905082612b29565b604080516000808252602082018084528a905260ff891692820192909252606081018790526080810186905260019060a0016020604051602081039080840390855afa158015612af3573d6000803e3d6000fd5b5050604051601f1901519150506001600160a01b038116612b1f57506000925060019150829050612b29565b9250600091508190505b9450945094915050565b6000826003811115612b4757612b47613870565b03612b50575050565b6001826003811115612b6457612b64613870565b03612b825760405163f645eedf60e01b815260040160405180910390fd5b6002826003811115612b9657612b96613870565b03612bb75760405163fce698f760e01b815260048101829052602401610997565b6003826003811115612bcb57612bcb613870565b036106c6576040516335e2f38360e21b815260048101829052602401610997565b60008072184f03e93ff9f4daa797ed6e38ed64bf6a1f0160401b8310612c2b5772184f03e93ff9f4daa797ed6e38ed64bf6a1f0160401b830492506040015b6d04ee2d6d415b85acef81000000008310612c57576d04ee2d6d415b85acef8100000000830492506020015b662386f26fc100008310612c7557662386f26fc10000830492506010015b6305f5e1008310612c8d576305f5e100830492506008015b6127108310612ca157612710830492506004015b60648310612cb3576064830492506002015b600a831061067c5760010192915050565b600080612857858585612d97565b600080608083901c15612ce757608092831c92015b604083901c15612cf957604092831c92015b602083901c15612d0b57602092831c92015b601083901c15612d1d57601092831c92015b600883901c15612d2f57600892831c92015b600483901c15612d4157600492831c92015b600283901c15612d5357600292831c92015b600183901c1561067c5760010192915050565b6000818310612d755781610918565b5090919050565b6000612d8b60028484186137f0565b610918908484166137c7565b825460009081908015612edd576000612db5876121236001856137b4565b60408051808201909152905463ffffffff808216808452600160201b9092046001600160e01b031660208401529192509087161015612e365760405162461bcd60e51b815260206004820152601b60248201527f436865636b706f696e743a2064656372656173696e67206b65797300000000006044820152606401610997565b805163ffffffff808816911603612e7e5784612e57886121236001866137b4565b80546001600160e01b0392909216600160201b0263ffffffff909216919091179055612ecd565b6040805180820190915263ffffffff80881682526001600160e01b0380881660208085019182528b54600181018d5560008d81529190912094519151909216600160201b029216919091179101555b60200151925083915061285c9050565b50506040805180820190915263ffffffff80851682526001600160e01b0380851660208085019182528854600181018a5560008a815291822095519251909316600160201b02919093161792019190915590508161285c565b60005b83811015612f51578181015183820152602001612f39565b50506000910152565b60008151808452612f72816020860160208601612f36565b601f01601f19169290920160200192915050565b6020815260006109186020830184612f5a565b600060208284031215612fab57600080fd5b5035919050565b80356001600160a01b0381168114612fc957600080fd5b919050565b60008060408385031215612fe157600080fd5b612fea83612fb2565b946020939093013593505050565b60008060006060848603121561300d57600080fd5b61301684612fb2565b925061302460208501612fb2565b9150604084013590509250925092565b634e487b7160e01b600052604160045260246000fd5b600067ffffffffffffffff8084111561306557613065613034565b604051601f8501601f19908116603f0116810190828211818310171561308d5761308d613034565b816040528093508581528686860111156130a657600080fd5b858560208301376000602087830101525050509392505050565b600082601f8301126130d157600080fd5b6109188383356020850161304a565b6000806000606084860312156130f557600080fd5b6130fe84612fb2565b9250602084013567ffffffffffffffff8082111561311b57600080fd5b613127878388016130c0565b9350604086013591508082111561313d57600080fd5b5061314a868287016130c0565b9150509250925092565b60006020828403121561316657600080fd5b61091882612fb2565b60208152600082516080602084015261318b60a0840182612f5a565b90506020840151601f198483030160408501526131a88282612f5a565b91505060408401516060840152606084015160808401528091505092915050565b60ff60f81b881681526000602060e060208401526131ea60e084018a612f5a565b83810360408501526131fc818a612f5a565b606085018990526001600160a01b038816608086015260a0850187905284810360c08601528551808252602080880193509091019060005b8181101561325057835183529284019291840191600101613234565b50909c9b505050505050505050505050565b60008060006060848603121561327757600080fd5b833567ffffffffffffffff8082111561328f57600080fd5b61329b878388016130c0565b945060208601359150808211156132b157600080fd5b506132be868287016130c0565b9250506132cd60408501612fb2565b90509250925092565b600080604083850312156132e957600080fd5b6132f283612fb2565b91506020830135801515811461330757600080fd5b809150509250929050565b6000806000806080858703121561332857600080fd5b61333185612fb2565b935061333f60208601612fb2565b925060408501359150606085013567ffffffffffffffff81111561336257600080fd5b8501601f8101871361337357600080fd5b6133828782356020840161304a565b91505092959194509250565b60008060008060008060c087890312156133a757600080fd5b6133b087612fb2565b95506020870135945060408701359350606087013560ff811681146133d457600080fd5b9598949750929560808101359460a0909101359350915050565b6000806040838503121561340157600080fd5b823567ffffffffffffffff8082111561341957600080fd5b613425868387016130c0565b9350602085013591508082111561343b57600080fd5b50613448858286016130c0565b9150509250929050565b60008060006060848603121561346757600080fd5b833567ffffffffffffffff8082111561347f57600080fd5b61348b878388016130c0565b9450602086013591508082111561311b57600080fd5b600080604083850312156134b457600080fd5b6134bd83612fb2565b91506134cb60208401612fb2565b90509250929050565b600181811c908216806134e857607f821691505b602082108103610f5857634e487b7160e01b600052602260045260246000fd5b601f821115610907576000816000526020600020601f850160051c810160208610156135315750805b601f850160051c820191505b818110156108e15782815560010161353d565b815167ffffffffffffffff81111561356a5761356a613034565b61357e8161357884546134d4565b84613508565b602080601f8311600181146135b3576000841561359b5750858301515b600019600386901b1c1916600185901b1785556108e1565b600085815260208120601f198616915b828110156135e2578886015182559484019460019091019084016135c3565b50858210156136005787850151600019600388901b60f8161c191681555b5050505050600190811b01905550565b6001600160a01b038581168252841660208201526040810183905260806060820181905260009061364390830184612f5a565b9695505050505050565b60006020828403121561365f57600080fd5b81516001600160e01b03198116811461091857600080fd5b683d913730b6b2911d1160b91b8152835160009061369c816009850160208901612f36565b6a11161134b6b0b3b2911d1160a91b60099184019182015284516136c7816014840160208901612f36565b7f222c2261747472696275746573223a5b7b2274726169745f74797065223a2243601492909101918201527f726561746564222c22646973706c61795f74797065223a202264617465222c20603482015267113b30b63ab2911d60c11b6054820152835161373c81605c840160208801612f36565b627d5d7d60e81b605c9290910191820152605f0195945050505050565b7f646174613a6170706c69636174696f6e2f6a736f6e3b6261736536342c00000081526000825161379181601d850160208701612f36565b91909101601d0192915050565b634e487b7160e01b600052601160045260246000fd5b8181038181111561067c5761067c61379e565b8082018082111561067c5761067c61379e565b634e487b7160e01b600052601260045260246000fd5b60008261380d57634e487b7160e01b600052601260045260246000fd5b500490565b808202811582820484141761067c5761067c61379e565b6001600160e01b038181168382160190808211156138495761384961379e565b5092915050565b6001600160e01b038281168282160390808211156138495761384961379e565b634e487b7160e01b600052602160045260246000fdfe7fc24c9500f4388b797f8975c0991ad4ffd0338c2cbf5335b2bf5b7fe57477003a497e775dc7c283402f0d3c39c5f0ea53870eb15ab2dddfde5a1162a84c336c4142434445464748494a4b4c4d4e4f505152535455565758595a6162636465666768696a6b6c6d6e6f707172737475767778797a303132333435363738392b2f59b501c3653afc186af7d48dda36cf6732bd21629a6295693664240a6ef52000423fcc3514229d79a30fb79b40a232f70b3fabdf664a75db0859c67848497f66","linkReferences":{}},"methodIdentifiers":{"CLOCK_MODE()":"4bf5d7e9","DOMAIN_SEPARATOR()":"3644e515","__ERC721A_init(string,string)":"d2f01f19","__SpaceOwner_init(string,string,string)":"d7a901d3","approve(address,uint256)":"095ea7b3","balanceOf(address)":"70a08231","clock()":"91ddadf4","delegate(address)":"5c19a95c","delegateBySig(address,uint256,uint256,uint8,bytes32,bytes32)":"c3cda520","delegates(address)":"587cde1e","eip712Domain()":"84b0196e","getApproved(uint256)":"081812fc","getFactory()":"88cc58e4","getPastTotalSupply(uint256)":"8e539e8c","getPastVotes(address,uint256)":"3a46b1a8","getSpaceInfo(address)":"6a9a38e6","getVotes(address)":"9ab24eb0","isApprovedForAll(address,address)":"e985e9c5","mintSpace(string,string,address)":"91de4a83","name()":"06fdde03","nextTokenId()":"75794a3c","nonces(address)":"7ecebe00","ownerOf(uint256)":"6352211e","safeTransferFrom(address,address,uint256)":"42842e0e","safeTransferFrom(address,address,uint256,bytes)":"b88d4fde","setApprovalForAll(address,bool)":"a22cb465","setFactory(address)":"5bb47808","symbol()":"95d89b41","tokenURI(uint256)":"c87b56dd","totalSupply()":"18160ddd","transferFrom(address,address,uint256)":"23b872dd","updateSpaceInfo(address,string,string)":"3953801b"},"id":229}