{"abi":[{"type":"function","name":"__Architect_init","inputs":[{"name":"ownerImplementation","type":"address","internalType":"address"},{"name":"userEntitlementImplementation","type":"address","internalType":"contract IUserEntitlement"},{"name":"ruleEntitlementImplementation","type":"address","internalType":"contract IRuleEntitlement"}],"outputs":[],"stateMutability":"nonpayable"},{"type":"function","name":"createSpace","inputs":[{"name":"spaceInfo","type":"tuple","internalType":"struct IArchitectBase.SpaceInfo","components":[{"name":"id","type":"string","internalType":"string"},{"name":"name","type":"string","internalType":"string"},{"name":"uri","type":"string","internalType":"string"},{"name":"membership","type":"tuple","internalType":"struct IArchitectBase.Membership","components":[{"name":"settings","type":"tuple","internalType":"struct IMembershipBase.Membership","components":[{"name":"name","type":"string","internalType":"string"},{"name":"symbol","type":"string","internalType":"string"},{"name":"price","type":"uint256","internalType":"uint256"},{"name":"maxSupply","type":"uint256","internalType":"uint256"},{"name":"duration","type":"uint64","internalType":"uint64"},{"name":"currency","type":"address","internalType":"address"},{"name":"feeRecipient","type":"address","internalType":"address"},{"name":"freeAllocation","type":"uint256","internalType":"uint256"},{"name":"pricingModule","type":"address","internalType":"address"}]},{"name":"requirements","type":"tuple","internalType":"struct IArchitectBase.MembershipRequirements","components":[{"name":"everyone","type":"bool","internalType":"bool"},{"name":"users","type":"address[]","internalType":"address[]"},{"name":"ruleData","type":"tuple","internalType":"struct IRuleEntitlement.RuleData","components":[{"name":"operations","type":"tuple[]","internalType":"struct IRuleEntitlement.Operation[]","components":[{"name":"opType","type":"uint8","internalType":"enum IRuleEntitlement.CombinedOperationType"},{"name":"index","type":"uint8","internalType":"uint8"}]},{"name":"checkOperations","type":"tuple[]","internalType":"struct IRuleEntitlement.CheckOperation[]","components":[{"name":"opType","type":"uint8","internalType":"enum IRuleEntitlement.CheckOperationType"},{"name":"chainId","type":"uint256","internalType":"uint256"},{"name":"contractAddress","type":"address","internalType":"address"},{"name":"threshold","type":"uint256","internalType":"uint256"}]},{"name":"logicalOperations","type":"tuple[]","internalType":"struct IRuleEntitlement.LogicalOperation[]","components":[{"name":"logOpType","type":"uint8","internalType":"enum IRuleEntitlement.LogicalOperationType"},{"name":"leftOperationIndex","type":"uint8","internalType":"uint8"},{"name":"rightOperationIndex","type":"uint8","internalType":"uint8"}]}]}]},{"name":"permissions","type":"string[]","internalType":"string[]"}]},{"name":"channel","type":"tuple","internalType":"struct IArchitectBase.ChannelInfo","components":[{"name":"id","type":"string","internalType":"string"},{"name":"metadata","type":"string","internalType":"string"}]}]}],"outputs":[{"name":"","type":"address","internalType":"address"}],"stateMutability":"nonpayable"},{"type":"function","name":"getSpaceArchitectImplementations","inputs":[],"outputs":[{"name":"spaceToken","type":"address","internalType":"address"},{"name":"userEntitlementImplementation","type":"address","internalType":"contract IUserEntitlement"},{"name":"ruleEntitlementImplementation","type":"address","internalType":"contract IRuleEntitlement"}],"stateMutability":"view"},{"type":"function","name":"getSpaceById","inputs":[{"name":"spaceId","type":"string","internalType":"string"}],"outputs":[{"name":"","type":"address","internalType":"address"}],"stateMutability":"view"},{"type":"function","name":"getTokenIdBySpace","inputs":[{"name":"space","type":"address","internalType":"address"}],"outputs":[{"name":"","type":"uint256","internalType":"uint256"}],"stateMutability":"view"},{"type":"function","name":"getTokenIdBySpaceId","inputs":[{"name":"spaceId","type":"string","internalType":"string"}],"outputs":[{"name":"","type":"uint256","internalType":"uint256"}],"stateMutability":"view"},{"type":"function","name":"isSpace","inputs":[{"name":"space","type":"address","internalType":"address"}],"outputs":[{"name":"","type":"bool","internalType":"bool"}],"stateMutability":"view"},{"type":"function","name":"setSpaceArchitectImplementations","inputs":[{"name":"spaceToken","type":"address","internalType":"address"},{"name":"userEntitlementImplementation","type":"address","internalType":"contract IUserEntitlement"},{"name":"ruleEntitlementImplementation","type":"address","internalType":"contract IRuleEntitlement"}],"outputs":[],"stateMutability":"nonpayable"},{"type":"event","name":"Initialized","inputs":[{"name":"version","type":"uint32","indexed":false,"internalType":"uint32"}],"anonymous":false},{"type":"event","name":"InterfaceAdded","inputs":[{"name":"interfaceId","type":"bytes4","indexed":true,"internalType":"bytes4"}],"anonymous":false},{"type":"event","name":"InterfaceRemoved","inputs":[{"name":"interfaceId","type":"bytes4","indexed":true,"internalType":"bytes4"}],"anonymous":false},{"type":"event","name":"OwnershipTransferred","inputs":[{"name":"previousOwner","type":"address","indexed":true,"internalType":"address"},{"name":"newOwner","type":"address","indexed":true,"internalType":"address"}],"anonymous":false},{"type":"event","name":"Paused","inputs":[{"name":"account","type":"address","indexed":false,"internalType":"address"}],"anonymous":false},{"type":"event","name":"SpaceCreated","inputs":[{"name":"owner","type":"address","indexed":true,"internalType":"address"},{"name":"spaceId","type":"uint256","indexed":true,"internalType":"uint256"},{"name":"space","type":"address","indexed":false,"internalType":"address"}],"anonymous":false},{"type":"event","name":"Unpaused","inputs":[{"name":"account","type":"address","indexed":false,"internalType":"address"}],"anonymous":false},{"type":"error","name":"Architect__InvalidAddress","inputs":[]},{"type":"error","name":"Architect__InvalidNetworkId","inputs":[]},{"type":"error","name":"Architect__InvalidStringLength","inputs":[]},{"type":"error","name":"Architect__NotContract","inputs":[]},{"type":"error","name":"Factory__FailedDeployment","inputs":[]},{"type":"error","name":"Initializable_InInitializingState","inputs":[]},{"type":"error","name":"Initializable_NotInInitializingState","inputs":[]},{"type":"error","name":"Introspection_AlreadySupported","inputs":[]},{"type":"error","name":"Introspection_NotSupported","inputs":[]},{"type":"error","name":"Ownable__NotOwner","inputs":[{"name":"account","type":"address","internalType":"address"}]},{"type":"error","name":"Ownable__ZeroAddress","inputs":[]},{"type":"error","name":"Pausable__NotPaused","inputs":[]},{"type":"error","name":"Pausable__Paused","inputs":[]},{"type":"error","name":"ReentrancyGuard__ReentrantCall","inputs":[]},{"type":"error","name":"Validator__InvalidAddress","inputs":[]},{"type":"error","name":"Validator__InvalidStringLength","inputs":[]}],"bytecode":{"object":"0x60806040523480156200001157600080fd5b506200001c62000022565b620000ca565b7f2d0d21306acfe8e9bb163a4573e95aff6cef95dc1102c6a16d5f19eac08cc4de8054640100000000900460ff16156200006f576040516366008a2d60e01b815260040160405180910390fd5b805463ffffffff9081161015620000c757805463ffffffff191663ffffffff90811782556040519081527fe9c9b456cb2994b80aeef036cf59d26e9617df80f816a6ee5a5b4166e07e2f5c9060200160405180910390a15b50565b6143ef80620000da6000396000f3fe60806040523480156200001157600080fd5b5060043610620000935760003560e01c8063c0bc67961162000062578063c0bc67961462000138578063dc1b9f23146200014f578063e530ee5c1462000166578063f181942a146200019657600080fd5b806333518c801462000098578063545efb2d14620000c45780638bfc94b914620000f9578063bed8f27c1462000112575b600080fd5b620000af620000a9366004620015b6565b620001ad565b60405190151581526020015b60405180910390f35b620000ce620001c0565b604080516001600160a01b0394851681529284166020840152921691810191909152606001620000bb565b620001106200010a366004620015d6565b6200024e565b005b6200012962000123366004620017a7565b620002b1565b604051908152602001620000bb565b6200012962000149366004620015b6565b620002be565b6200011062000160366004620015d6565b620002fc565b6200017d6200017736600462001e3a565b62000347565b6040516001600160a01b039091168152602001620000bb565b6200017d620001a7366004620017a7565b62000436565b6000620001ba8262000443565b92915050565b6000806000620002437ff5c6524ca7717dce3260f151d3a5f456914eb85fe781aba307beba9708cc8ccb547ff5c6524ca7717dce3260f151d3a5f456914eb85fe781aba307beba9708cc8ccc547ff5c6524ca7717dce3260f151d3a5f456914eb85fe781aba307beba9708cc8ccd546001600160a01b0392831693918316921690565b925092509250909192565b7fa7c3be20e3a76821507555109752fad8a6630ef0362a34dcfcdfef83c99a2537546001600160a01b031633146200029f576040516365f4906560e01b815233600482015260240160405180910390fd5b620002ac83838362000496565b505050565b6000620001ba82620005b6565b6001600160a01b03811660009081527ff5c6524ca7717dce3260f151d3a5f456914eb85fe781aba307beba9708cc8cca6020526040812054620001ba565b7f2d0d21306acfe8e9bb163a4573e95aff6cef95dc1102c6a16d5f19eac08cc4de54640100000000900460ff166200029f57604051630ef4733760e31b815260040160405180910390fd5b600060027f50b052c8fb38984269a818b2b593d0584a81b1b99245abc0fab04abc7afb010f54036200038c57604051635db5c7cd60e11b815260040160405180910390fd5b620003b660027f50b052c8fb38984269a818b2b593d0584a81b1b99245abc0fab04abc7afb010f55565b7ff421ea548af7158b1d71ba0aeccf57104c067038bd8fd214edd05c09eb4f735b5460ff1615620003fa576040516302ca8ced60e11b815260040160405180910390fd5b6200040582620005f4565b90506200043160017f50b052c8fb38984269a818b2b593d0584a81b1b99245abc0fab04abc7afb010f55565b919050565b6000620001ba8262000a47565b6001600160a01b03811660009081527ff5c6524ca7717dce3260f151d3a5f456914eb85fe781aba307beba9708cc8cc86020526040812054600080516020620043cf8339815191529015155b9392505050565b826001600160a01b03163b600003620004c2576040516302f3d00b60e01b815260040160405180910390fd5b816001600160a01b03163b600003620004ee576040516302f3d00b60e01b815260040160405180910390fd5b806001600160a01b03163b6000036200051a576040516302f3d00b60e01b815260040160405180910390fd5b7ff5c6524ca7717dce3260f151d3a5f456914eb85fe781aba307beba9708cc8ccb80546001600160a01b039485166001600160a01b0319918216179091557ff5c6524ca7717dce3260f151d3a5f456914eb85fe781aba307beba9708cc8ccc8054938516938216939093179092557ff5c6524ca7717dce3260f151d3a5f456914eb85fe781aba307beba9708cc8ccd8054919093169116179055565b6000600080516020620043cf83398151915260040182604051620005db919062001f70565b9081526020016040518091039020600101549050919050565b600062000605826000015162000a8b565b8151600080516020620043cf833981519152906200062590829062000ab4565b156200064457604051636deb108f60e01b815260040160405180910390fd5b600681015460408051631d5e528f60e21b815290516000926001600160a01b0316916375794a3c9160048083019260209291908290030181865afa15801562000691573d6000803e3d6000fd5b505050506040513d601f19601f82011682018060405250810190620006b7919062001f8e565b9050620006ce846000015182866060015162000ac2565b8451909350620006e090839062000b2f565b50620006f0600283018462000b3d565b506040518060400160405280846001600160a01b031681526020018281525082600401856000015160405162000727919062001f70565b9081526040805160209281900383018120845181546001600160a01b0319166001600160a01b039182161782559484015160019091015586841660009081526005870184528290208590556006860154928801519188015188516333bcc11760e21b8352939094169363cef3045c93620007a79392899060040162001fd6565b6020604051808303816000875af1158015620007c7573d6000803e3d6000fd5b505050506040513d601f19601f82011682018060405250810190620007ed919062001f8e565b50600062000818600080516020620043cf833981519152600701546001600160a01b03168562000b54565b9050600062000844600080516020620043cf833981519152600801546001600160a01b03168662000b54565b604080516002808252606082018352929350600092909160208301908036833701905050905082816000815181106200088157620008816200202f565b60200260200101906001600160a01b031690816001600160a01b0316815250508181600181518110620008b857620008b86200202f565b6001600160a01b039283166020918202929092010152604051638bfc820f60e01b815290871690638bfc820f90620008f590849060040162002045565b600060405180830381600087803b1580156200091057600080fd5b505af115801562000925573d6000803e3d6000fd5b505050506200093f8684848a606001516020015162000c11565b50606087015180515160409091015160009162000960918991908762001036565b90506200097387828a60800151620011bb565b60068601546001600160a01b03166342842e0e30336040516001600160e01b031960e085901b1681526001600160a01b0392831660048201529116602482015260448101889052606401600060405180830381600087803b158015620009d857600080fd5b505af1158015620009ed573d6000803e3d6000fd5b5050505084620009fa3390565b6040516001600160a01b038a8116825291909116907fe50fc3942f8a2d7e5a7c8fb9488499eba5255b41e18bc3f1b4791402976d1d0b9060200160405180910390a3505050505050919050565b6000600080516020620043cf8339815191526004018260405162000a6c919062001f70565b908152604051908190036020019020546001600160a01b031692915050565b8051819060000362000ab0576040516374eb20a760e01b815260040160405180910390fd5b5050565b60006200048f838362001271565b7ff5c6524ca7717dce3260f151d3a5f456914eb85fe781aba307beba9708cc8ccb54600090600080516020620043cf833981519152908290819062000b149088906001600160a01b03168888620012a0565b9150915062000b24828262001423565b979650505050505050565b60006200048f83836200145e565b60006200048f836001600160a01b038416620014c9565b6000806040518060200162000b699062001577565b601f1982820381018352601f9091011660408190526001600160a01b0385166024820152859060440160408051601f19818403018152918152602080830180516001600160e01b031663189acdbd60e31b179052905162000bcd9392910162002094565b60408051601f198184030181529082905262000bed9291602001620020ba565b604051602081830303815290604052905062000c098162001512565b949350505050565b604080516001808252818301909252600091829190816020015b606081526020019060019003908162000c2b579050509050604051806040016040528060098152602001684a6f696e537061636560b81b8152508160008151811062000c7b5762000c7b6200202f565b6020026020010181905250856001600160a01b0316638fcd793d6040518060400160405280600681526020016526b4b73a32b960d11b8152508360006001600160401b0381111562000cd15762000cd162001628565b60405190808252806020026020018201604052801562000d1957816020015b60408051808201909152600081526060602082015281526020019060019003908162000cf05790505b506040518463ffffffff1660e01b815260040162000d3a9392919062002116565b6020604051808303816000875af115801562000d5a573d6000803e3d6000fd5b505050506040513d601f19601f8201168201806040525081019062000d80919062001f8e565b83519092501562000e8e576040805160018082528183019092526000916020808301908036833701905050905060018160008151811062000dc55762000dc56200202f565b60200260200101906001600160a01b031690816001600160a01b031681525050866001600160a01b031663ba201ba88460405180604001604052808a6001600160a01b031681526020018560405160200162000e22919062002045565b6040516020818303038152906040528152506040518363ffffffff1660e01b815260040162000e53929190620021e8565b600060405180830381600087803b15801562000e6e57600080fd5b505af115801562000e83573d6000803e3d6000fd5b50505050506200102d565b602083015151156200102d5760005b83602001515181101562000edf5762000ed68460200151828151811062000ec85762000ec86200202f565b60200260200101516200154c565b60010162000e9d565b50856001600160a01b031663ba201ba8836040518060400160405280896001600160a01b03168152602001876020015160405160200162000f21919062002045565b6040516020818303038152906040528152506040518363ffffffff1660e01b815260040162000f52929190620021e8565b600060405180830381600087803b15801562000f6d57600080fd5b505af115801562000f82573d6000803e3d6000fd5b50505050856001600160a01b031663ba201ba8836040518060400160405280886001600160a01b03168152602001876040015160405160200162000fc7919062002300565b6040516020818303038152906040528152506040518363ffffffff1660e01b815260040162000ff8929190620021e8565b600060405180830381600087803b1580156200101357600080fd5b505af115801562001028573d6000803e3d6000fd5b505050505b50949350505050565b604080516001808252818301909252600091829190602080830190803683370190505090506001816000815181106200107357620010736200202f565b6001600160a01b039290921660209283029190910190910152604080516001808252818301909252600091816020015b604080518082019091526000815260606020820152815260200190600190039081620010a35790505090508381600081518110620010e557620010e56200202f565b6020908102919091018101516001600160a01b03909216909152604051620011109184910162002045565b604051602081830303815290604052816000815181106200113557620011356200202f565b6020908102919091018101510152604051638fcd793d60e01b81526001600160a01b03881690638fcd793d90620011759089908990869060040162002116565b6020604051808303816000875af115801562001195573d6000803e3d6000fd5b505050506040513d601f19601f8201168201806040525081019062000b24919062001f8e565b604080516001808252818301909252600091602080830190803683370190505090508281600081518110620011f457620011f46200202f565b6020908102919091018101919091528251908301516040516328fc1e7560e11b81526001600160a01b038716926351f83cea9262001237928690600401620023ab565b600060405180830381600087803b1580156200125257600080fd5b505af115801562001267573d6000803e3d6000fd5b5050505050505050565b6000826001018260405162001287919062001f70565b9081526040519081900360200190205415159392505050565b60606000858585604051602001620012bb939291906200241d565b60405160208183030381529060405280519060200120905060405180602001620012e59062001585565b818103601f199081018352601f909101166040818101815263dc9cc64560e01b825230602080840191909152815180830183526001600160a01b038a811682528183018a9052835161012081018552895151815289518401519381019390935288518401519383019390935287516060908101519083015287516080908101516001600160401b031690830152875160a090810151841690830152875160c0908101519193908301911615620013a157875160c00151620013a3565b335b6001600160a01b03168152602001876000015160e001518152602001876000015161010001516001600160a01b0316815250604051602001620013e9939291906200244d565b60408051601f1981840301815290829052620014099291602001620020ba565b604051602081830303815290604052915094509492505050565b60008260200183518381836000f59250506001600160a01b0382169050620001ba5760405163ef35ca1960e01b815260040160405180910390fd5b60006200146c838362001271565b620014c0578254600181018455600084815260209020016200148f8382620025db565b5082546040516001850190620014a790859062001f70565b90815260405190819003602001902055506001620001ba565b506000620001ba565b6000818152600183016020526040812054620014c057508154600181810184556000848152602080822090930184905584548482528286019093526040902091909155620001ba565b600081602001825180826000f09250506001600160a01b0382169050620004315760405163ef35ca1960e01b815260040160405180910390fd5b6001600160a01b03811662001574576040516302e47d1560e41b815260040160405180910390fd5b50565b6103d480620026a883390190565b6119538062002a7c83390190565b6001600160a01b03811681146200157457600080fd5b8035620004318162001593565b600060208284031215620015c957600080fd5b81356200048f8162001593565b600080600060608486031215620015ec57600080fd5b8335620015f98162001593565b925060208401356200160b8162001593565b915060408401356200161d8162001593565b809150509250925092565b634e487b7160e01b600052604160045260246000fd5b604051608081016001600160401b038111828210171562001663576200166362001628565b60405290565b604051606081016001600160401b038111828210171562001663576200166362001628565b604080519081016001600160401b038111828210171562001663576200166362001628565b60405161012081016001600160401b038111828210171562001663576200166362001628565b60405160a081016001600160401b038111828210171562001663576200166362001628565b604051601f8201601f191681016001600160401b038111828210171562001729576200172962001628565b604052919050565b600082601f8301126200174357600080fd5b81356001600160401b038111156200175f576200175f62001628565b62001774601f8201601f1916602001620016fe565b8181528460208386010111156200178a57600080fd5b816020850160208301376000918101602001919091529392505050565b600060208284031215620017ba57600080fd5b81356001600160401b03811115620017d157600080fd5b62000c098482850162001731565b80356001600160401b03811681146200043157600080fd5b60006001600160401b0382111562001813576200181362001628565b5060051b60200190565b600381106200157457600080fd5b803560ff811681146200043157600080fd5b600082601f8301126200184f57600080fd5b81356020620018686200186283620017f7565b620016fe565b82815260079290921b840181019181810190868411156200188857600080fd5b8286015b84811015620018fa5760808189031215620018a75760008081fd5b620018b16200163e565b813560068110620018c25760008081fd5b81528185013585820152604080830135620018dd8162001593565b90820152606082810135908201528352918301916080016200188c565b509695505050505050565b600082601f8301126200191757600080fd5b813560206200192a6200186283620017f7565b828152606092830285018201928282019190878511156200194a57600080fd5b8387015b85811015620019b35781818a031215620019685760008081fd5b6200197262001669565b81356200197f816200181d565b81526200198e8287016200182b565b868201526040620019a18184016200182b565b9082015284529284019281016200194e565b5090979650505050505050565b600060608284031215620019d357600080fd5b620019dd62001669565b905081356001600160401b0380821115620019f757600080fd5b818401915084601f83011262001a0c57600080fd5b8135602062001a1f6200186283620017f7565b82815260069290921b8401810191818101908884111562001a3f57600080fd5b948201945b8386101562001a9c576040868a03121562001a5f5760008081fd5b62001a696200168e565b863562001a76816200181d565b815262001a858785016200182b565b818501528252604095909501949082019062001a44565b8652508581013593508284111562001ab357600080fd5b62001ac1878588016200183d565b9085015250604084013591508082111562001adb57600080fd5b5062001aea8482850162001905565b60408301525092915050565b60006060828403121562001b0957600080fd5b62001b1362001669565b90508135801515811462001b2657600080fd5b81526020828101356001600160401b038082111562001b4457600080fd5b818501915085601f83011262001b5957600080fd5b813562001b6a6200186282620017f7565b81815260059190911b8301840190848101908883111562001b8a57600080fd5b938501935b8285101562001bb557843562001ba58162001593565b8252938501939085019062001b8f565b8086880152505050604085013592508083111562001bd257600080fd5b505062001aea84828501620019c0565b600082601f83011262001bf457600080fd5b8135602062001c076200186283620017f7565b82815260059290921b8401810191818101908684111562001c2757600080fd5b8286015b84811015620018fa5780356001600160401b0381111562001c4c5760008081fd5b62001c5c8986838b010162001731565b84525091830191830162001c2b565b60006060828403121562001c7e57600080fd5b62001c8862001669565b905081356001600160401b038082111562001ca257600080fd5b90830190610120828603121562001cb857600080fd5b62001cc2620016b3565b82358281111562001cd257600080fd5b62001ce08782860162001731565b82525060208301358281111562001cf657600080fd5b62001d048782860162001731565b602083015250604083013560408201526060830135606082015262001d2c60808401620017df565b608082015262001d3f60a08401620015a9565b60a082015262001d5260c08401620015a9565b60c082015260e083013560e082015261010062001d71818501620015a9565b908201528352602084013591508082111562001d8c57600080fd5b62001d9a8583860162001af6565b6020840152604084013591508082111562001db457600080fd5b5062001aea8482850162001be2565b60006040828403121562001dd657600080fd5b62001de06200168e565b905081356001600160401b038082111562001dfa57600080fd5b62001e088583860162001731565b8352602084013591508082111562001e1f57600080fd5b5062001e2e8482850162001731565b60208301525092915050565b60006020828403121562001e4d57600080fd5b81356001600160401b038082111562001e6557600080fd5b9083019060a0828603121562001e7a57600080fd5b62001e84620016d9565b82358281111562001e9457600080fd5b62001ea28782860162001731565b82525060208301358281111562001eb857600080fd5b62001ec68782860162001731565b60208301525060408301358281111562001edf57600080fd5b62001eed8782860162001731565b60408301525060608301358281111562001f0657600080fd5b62001f148782860162001c6b565b60608301525060808301358281111562001f2d57600080fd5b62001f3b8782860162001dc3565b60808301525095945050505050565b60005b8381101562001f6757818101518382015260200162001f4d565b50506000910152565b6000825162001f8481846020870162001f4a565b9190910192915050565b60006020828403121562001fa157600080fd5b5051919050565b6000815180845262001fc281602086016020860162001f4a565b601f01601f19169290920160200192915050565b60808152600062001feb608083018762001fa8565b828103602084015262001fff818762001fa8565b9050828103604084015262002015818662001fa8565b91505060018060a01b038316606083015295945050505050565b634e487b7160e01b600052603260045260246000fd5b6020808252825182820181905260009190848201906040850190845b81811015620020885783516001600160a01b03168352928401929184019160010162002061565b50909695505050505050565b6001600160a01b038316815260406020820181905260009062000c099083018462001fa8565b60008351620020ce81846020880162001f4a565b835190830190620020e481836020880162001f4a565b01949350505050565b60018060a01b038151168252600060208201516040602085015262000c09604085018262001fa8565b6060815260006200212b606083018662001fa8565b6020838203818501528186518084528284019150828160051b85010183890160005b838110156200217f57601f198784030185526200216c83835162001fa8565b948601949250908501906001016200214d565b50508681036040880152875180825284820195509250600583901b81018401915083880160005b84811015620021d857601f19838503018752620021c5848351620020ed565b96860196935090850190600101620021a6565b50919a9950505050505050505050565b82815260406020820152600062000c096040830184620020ed565b634e487b7160e01b600052602160045260246000fd5b6003811062001574576200157462002203565b60008151808452602080850194506020840160005b838110156200229b57815180516006811062002261576200226162002203565b885280840151848901526040808201516001600160a01b031690890152606090810151908801526080909601959082019060010162002241565b509495945050505050565b60008151808452602080850194506020840160005b838110156200229b5781518051620022d38162002219565b88528084015160ff908116858a0152604091820151169088015260609096019590820190600101620022bb565b6020808252825160608383015280516080840181905260009291820190839060a08601905b808310156200236057835180516200233d8162002219565b835285015160ff1685830152928401926001929092019160409091019062002325565b50838701519350601f199250828682030160408701526200238281856200222c565b93505050604085015181858403016060860152620023a18382620022a6565b9695505050505050565b606081526000620023c0606083018662001fa8565b60208382036020850152620023d6828762001fa8565b84810360408601528551808252602080880194509091019060005b818110156200240f57845183529383019391830191600101620023f1565b509098975050505050505050565b60608152600062002432606083018662001fa8565b6001600160a01b039490941660208301525060400152919050565b83516001600160e01b03191681526020808501516001600160a01b03908116828401528451166040830152830151606082015260a0608082018190528251610120918301829052600091620024a76101c085018362001fa8565b91506020850151609f198584030160c0860152620024c6838262001fa8565b925050604085015160e08501526060850151610100818187015260808701519150620024fc838701836001600160401b03169052565b60a08701516001600160a01b0390811661014088015260c0880151811661016088015260e0880151610180880152908701519081166101a08701529150620025419050565b5095945050505050565b600181811c908216806200256057607f821691505b6020821081036200258157634e487b7160e01b600052602260045260246000fd5b50919050565b601f821115620002ac576000816000526020600020601f850160051c81016020861015620025b25750805b601f850160051c820191505b81811015620025d357828155600101620025be565b505050505050565b81516001600160401b03811115620025f757620025f762001628565b6200260f816200260884546200254b565b8462002587565b602080601f8311600181146200264757600084156200262e5750858301515b600019600386901b1c1916600185901b178555620025d3565b600085815260208120601f198616915b82811015620026785788860151825594840194600190910190840162002657565b5085821015620026975787850151600019600388901b60f8161c191681555b5050505050600190811b0190555056fe60806040526040516103d43803806103d483398101604081905261002291610268565b61002c8282610033565b5050610352565b61003c82610092565b6040516001600160a01b038316907fbc7cd75a20ee27fd9adebab32041f755214dbc6bffa90cc0225b39da2e5c2d3b90600090a280511561008657610081828261010e565b505050565b61008e610185565b5050565b806001600160a01b03163b6000036100cd57604051634c9c8ce360e01b81526001600160a01b03821660048201526024015b60405180910390fd5b7f360894a13ba1a3210667c828492db98dca3e2076cc3735a920a3ca505d382bbc80546001600160a01b0319166001600160a01b0392909216919091179055565b6060600080846001600160a01b03168460405161012b9190610336565b600060405180830381855af49150503d8060008114610166576040519150601f19603f3d011682016040523d82523d6000602084013e61016b565b606091505b50909250905061017c8583836101a6565b95945050505050565b34156101a45760405163b398979f60e01b815260040160405180910390fd5b565b6060826101bb576101b682610205565b6101fe565b81511580156101d257506001600160a01b0384163b155b156101fb57604051639996b31560e01b81526001600160a01b03851660048201526024016100c4565b50805b9392505050565b8051156102155780518082602001fd5b604051630a12f52160e11b815260040160405180910390fd5b634e487b7160e01b600052604160045260246000fd5b60005b8381101561025f578181015183820152602001610247565b50506000910152565b6000806040838503121561027b57600080fd5b82516001600160a01b038116811461029257600080fd5b60208401519092506001600160401b03808211156102af57600080fd5b818501915085601f8301126102c357600080fd5b8151818111156102d5576102d561022e565b604051601f8201601f19908116603f011681019083821181831017156102fd576102fd61022e565b8160405282815288602084870101111561031657600080fd5b610327836020830160208801610244565b80955050505050509250929050565b60008251610348818460208701610244565b9190910192915050565b6074806103606000396000f3fe6080604052600a600c565b005b60186014601a565b6051565b565b6000604c7f360894a13ba1a3210667c828492db98dca3e2076cc3735a920a3ca505d382bbc546001600160a01b031690565b905090565b3660008037600080366000845af43d6000803e808015606f573d6000f35b3d6000fd60806040523480156200001157600080fd5b5060405162001953380380620019538339810160408190526200003491620009aa565b6200003e62000152565b620000a58380517f8554b9df6321355bca4334cacaab69e5fcc1f4562dedc2e1f459ba5fa38bf21c80546020909301516001600160a01b03166001600160a01b031960e09390931c600160a01b02929092166001600160c01b031990931692909217179055565b81517f9bd0e1a7aef81c47cff971a2fee48406b20f55522326b2e2616c49c24aa506d080546001600160a01b0319166001600160a01b0390921691909117905560208201517f9bd0e1a7aef81c47cff971a2fee48406b20f55522326b2e2616c49c24aa506d155805160208201516200011f919062000166565b62000135818460200151620001ce60201b60201c565b6200013f6200031f565b620001496200032e565b50505062000c37565b620001646301ffc9a760e01b62000383565b565b7f234d8962d7c9a6a6604d7f98797e6ad6d7a886804f7409feb26422e27bf812547f234d8962d7c9a6a6604d7f98797e6ad6d7a886804f7409feb26422e27bf81256620001b4848262000b08565b5060038101620001c5838262000b08565b50600190555050565b6000805160206200193383398151915280546001600160a01b0319166001600160a01b03831617905560808201516000805160206200191383398151915290620002189062000441565b60c08301516200022890620004f5565b60e083015162000238906200051d565b6101008301516200024990620005cf565b6060830151600382015560a08301516001600160a01b03161562000272578260a0015162000288565b73eeeeeeeeeeeeeeeeeeeeeeeeeeeeeeeeeeeeeeee5b6004820180546001600160a01b03199081166001600160a01b0393841617909155604085015160028401556080850151600684018054600160a01b600160e01b031916600160a01b6001600160401b039093169290920291909117905560c0850151600584018054831691841691909117905560e08501516007840155610100909401516008909201805490941691161790915550565b62000164607b6103e862000671565b620003406380ac58cd60e01b62000383565b62000352635b5e139f60e01b62000383565b62000364638c65f84d60e01b62000383565b620003766307f5828d60e41b62000383565b6200016463695d5db560e11b5b6001600160e01b031981166000908152600080516020620018f3833981519152602052604090205460ff161515600114620003f0576001600160e01b031981166000908152600080516020620018f383398151915260205260409020805460ff1916600117905562000409565b604051637967f77d60e11b815260040160405180910390fd5b6040516001600160e01b03198216907f78f84e5b1c5c05be2b5ad3800781dd404d6d6c6302bc755c0fe20f58a33a7f2290600090a250565b60008051602062001933833981519152546001600160a01b03166001600160a01b0316638120f0ba6040518163ffffffff1660e01b8152600401602060405180830381865afa15801562000499573d6000803e3d6000fd5b505050506040513d601f19601f82011682018060405250810190620004bf919062000bd4565b6001600160401b0316816001600160401b03161115620004f2576040516341191e9760e11b815260040160405180910390fd5b50565b6001600160a01b038116620004f257604051631492df6160e21b815260040160405180910390fd5b600080516020620019338339815191525460408051632cbb9d1360e01b8152905160008051602062001913833981519152926001600160a01b031691632cbb9d139160048083019260209291908290030181865afa15801562000584573d6000803e3d6000fd5b505050506040513d601f19601f82011682018060405250810190620005aa919062000bf9565b821115620005cb5760405163c3983b9160e01b815260040160405180910390fd5b5050565b6001600160a01b038116620005e15750565b6040516301ffc9a760e01b8152635cf4ee9160e01b60048201526001600160a01b038216906301ffc9a790602401602060405180830381865afa1580156200062d573d6000803e3d6000fd5b505050506040513d601f19601f8201168201806040525081019062000653919062000c13565b620004f257604051630e88bf4b60e01b815260040160405180910390fd5b8160000362000693576040516306c1cb6d60e51b815260040160405180910390fd5b6127108161ffff161115620006bb57604051634e7ee09d60e11b815260040160405180910390fd5b60008281527fe51b25fea73f50a2b3aac2a4ae8549fcc692472b6c9df7ca78c0d969dad9e841602081905260409091205461ffff16801562000710576040516306c1cb6d60e51b815260040160405180910390fd5b60008481526020838152604091829020805461ffff191661ffff8716908117909155915191825285917f674ed3e313f9254fbafb8a51fa62be8b5f0a767d64c64cfe6f099c80c779a528910160405180910390a250505050565b634e487b7160e01b600052604160045260246000fd5b60405161012081016001600160401b0381118282101715620007a657620007a66200076a565b60405290565b604080519081016001600160401b0381118282101715620007a657620007a66200076a565b604051601f8201601f191681016001600160401b0381118282101715620007fc57620007fc6200076a565b604052919050565b80516001600160a01b03811681146200081c57600080fd5b919050565b600082601f8301126200083357600080fd5b81516001600160401b038111156200084f576200084f6200076a565b602062000865601f8301601f19168201620007d1565b82815285828487010111156200087a57600080fd5b60005b838110156200089a5785810183015182820184015282016200087d565b506000928101909101919091529392505050565b80516001600160401b03811681146200081c57600080fd5b60006101208284031215620008da57600080fd5b620008e462000780565b82519091506001600160401b0380821115620008ff57600080fd5b6200090d8583860162000821565b835260208401519150808211156200092457600080fd5b50620009338482850162000821565b60208301525060408201516040820152606082015160608201526200095b60808301620008ae565b60808201526200096e60a0830162000804565b60a08201526200098160c0830162000804565b60c082015260e082015160e0820152610100620009a081840162000804565b9082015292915050565b600080600083850360a0811215620009c157600080fd5b6040811215620009d057600080fd5b620009da620007ac565b85516001600160e01b031981168114620009f357600080fd5b815262000a036020870162000804565b602082015293506040603f198201121562000a1d57600080fd5b5062000a28620007ac565b62000a366040860162000804565b81526060850151602082015260808501519092506001600160401b0381111562000a5f57600080fd5b62000a6d86828701620008c6565b9150509250925092565b600181811c9082168062000a8c57607f821691505b60208210810362000aad57634e487b7160e01b600052602260045260246000fd5b50919050565b601f82111562000b03576000816000526020600020601f850160051c8101602086101562000ade5750805b601f850160051c820191505b8181101562000aff5782815560010162000aea565b5050505b505050565b81516001600160401b0381111562000b245762000b246200076a565b62000b3c8162000b35845462000a77565b8462000ab3565b602080601f83116001811462000b74576000841562000b5b5750858301515b600019600386901b1c1916600185901b17855562000aff565b600085815260208120601f198616915b8281101562000ba55788860151825594840194600190910190840162000b84565b508582101562000bc45787850151600019600388901b60f8161c191681555b5050505050600190811b01905550565b60006020828403121562000be757600080fd5b62000bf282620008ae565b9392505050565b60006020828403121562000c0c57600080fd5b5051919050565b60006020828403121562000c2657600080fd5b8151801515811462000bf257600080fd5b610cac8062000c476000396000f3fe6080604052600436106100e15760003560e01c806373fc5a051161007f578063ac9650d811610059578063ac9650d814610378578063b3a5be6d146103a5578063b8307376146103ba578063f9d5d22c14610416576100e8565b806373fc5a05146102c85780638934207f14610307578063ac7ee6261461033b576100e8565b80635b312fce116100bb5780635b312fce1461019657806362452006146101d357806369d9346b1461022f578063702515631461028b576100e8565b80630c3a01b1146100f25780631d214b4d146101125780633ded10de14610168576100e8565b366100e857005b6100f0610436565b005b3480156100fe57600080fd5b506100f061010d366004610a68565b610491565b34801561011e57600080fd5b507f9b35df16c33a6c0e085c9ebd55fb367f81c58c2ed7e9bed98cc622f3308a6012546001600160a01b03165b6040516001600160a01b0390911681526020015b60405180910390f35b34801561017457600080fd5b50610188610183366004610a68565b610573565b60405190815260200161015f565b3480156101a257600080fd5b507f9b35df16c33a6c0e085c9ebd55fb367f81c58c2ed7e9bed98cc622f3308a6013546001600160a01b031661014b565b3480156101df57600080fd5b506100f06101ee366004610a99565b7f9b35df16c33a6c0e085c9ebd55fb367f81c58c2ed7e9bed98cc622f3308a601280546001600160a01b0319166001600160a01b0392909216919091179055565b34801561023b57600080fd5b506100f061024a366004610a99565b7f9b35df16c33a6c0e085c9ebd55fb367f81c58c2ed7e9bed98cc622f3308a601580546001600160a01b0319166001600160a01b0392909216919091179055565b34801561029757600080fd5b507f9b35df16c33a6c0e085c9ebd55fb367f81c58c2ed7e9bed98cc622f3308a6011546001600160a01b031661014b565b3480156102d457600080fd5b506100f06102e3366004610a68565b7f9b35df16c33a6c0e085c9ebd55fb367f81c58c2ed7e9bed98cc622f3308a601055565b34801561031357600080fd5b507f9b35df16c33a6c0e085c9ebd55fb367f81c58c2ed7e9bed98cc622f3308a601054610188565b34801561034757600080fd5b507f9b35df16c33a6c0e085c9ebd55fb367f81c58c2ed7e9bed98cc622f3308a6015546001600160a01b031661014b565b34801561038457600080fd5b50610398610393366004610abd565b6106cd565b60405161015f9190610b56565b3480156103b157600080fd5b506101886107ea565b3480156103c657600080fd5b506100f06103d5366004610a99565b7f9b35df16c33a6c0e085c9ebd55fb367f81c58c2ed7e9bed98cc622f3308a601180546001600160a01b0319166001600160a01b0392909216919091179055565b34801561042257600080fd5b506100f0610431366004610a68565b6108ad565b6000610440610922565b9050806001600160a01b03163b60000361046d576040516321f27f0d60e21b815260040160405180910390fd5b3660008037600080366000845af43d6000803e80801561048c573d6000f35b3d6000fd5b60006104c47f9b35df16c33a6c0e085c9ebd55fb367f81c58c2ed7e9bed98cc622f3308a6013546001600160a01b031690565b90506000816001600160a01b0316630eac306d6040518163ffffffff1660e01b8152600401602060405180830381865afa158015610506573d6000803e3d6000fd5b505050506040513d601f19601f8201168201806040525081019061052a9190610bd0565b90508083101561054d57604051631a23d64760e11b815260040160405180910390fd5b50507f9b35df16c33a6c0e085c9ebd55fb367f81c58c2ed7e9bed98cc622f3308a600f55565b60007f9b35df16c33a6c0e085c9ebd55fb367f81c58c2ed7e9bed98cc622f3308a600d8161059f6107ea565b9050838111156105b3575060009392505050565b6006820154604051639262b1b360e01b815230600482015285916001600160a01b031690639262b1b390602401602060405180830381865afa1580156105fd573d6000803e3d6000fd5b505050506040513d601f19601f820116820180604052508101906106219190610bd0565b1115610631575060009392505050565b60088201546001600160a01b0316156106c2576008820154604051635cf4ee9160e01b815260048101839052602481018690526001600160a01b0390911690635cf4ee9190604401602060405180830381865afa158015610696573d6000803e3d6000fd5b505050506040513d601f19601f820116820180604052508101906106ba9190610bd0565b949350505050565b506002015492915050565b6060818067ffffffffffffffff8111156106e9576106e9610be9565b60405190808252806020026020018201604052801561071c57816020015b60608152602001906001900390816107075790505b50915060005b818110156107e2576000803087878581811061074057610740610bff565b90506020028101906107529190610c15565b604051610760929190610c63565b600060405180830381855af49150503d806000811461079b576040519150601f19603f3d011682016040523d82523d6000602084013e6107a0565b606091505b509150915081156107ce57808584815181106107be576107be610bff565b60200260200101819052506107d8565b3d6000803e3d6000fd5b5050600101610722565b505092915050565b7f9b35df16c33a6c0e085c9ebd55fb367f81c58c2ed7e9bed98cc622f3308a601454600090801561081a57919050565b7f9b35df16c33a6c0e085c9ebd55fb367f81c58c2ed7e9bed98cc622f3308a60135460408051632cbb9d1360e01b815290516001600160a01b0390921691632cbb9d13916004808201926020929091908290030181865afa158015610883573d6000803e3d6000fd5b505050506040513d601f19601f820116820180604052508101906108a79190610bd0565b91505090565b7f9b35df16c33a6c0e085c9ebd55fb367f81c58c2ed7e9bed98cc622f3308a60148190556040517f9b35df16c33a6c0e085c9ebd55fb367f81c58c2ed7e9bed98cc622f3308a600d9082907fab14a23e88fb272313490d4f20d63098e64fd38304c0e07a377db98c2b39b92f90600090a25050565b7f8554b9df6321355bca4334cacaab69e5fcc1f4562dedc2e1f459ba5fa38bf21c54600090600160a01b900460e01b81806109847f8554b9df6321355bca4334cacaab69e5fcc1f4562dedc2e1f459ba5fa38bf21c546001600160a01b031690565b6040516001600160e01b03196000351660248201526001600160a01b039190911690849060440160408051601f198184030181529181526020820180516001600160e01b03166001600160e01b03199094169390931790925290516109e99190610c73565b600060405180830381855afa9150503d8060008114610a24576040519150601f19603f3d011682016040523d82523d6000602084013e610a29565b606091505b509150915081610a4c5760405163391aa44560e01b815260040160405180910390fd5b80806020019051810190610a609190610c8f565b935050505090565b600060208284031215610a7a57600080fd5b5035919050565b6001600160a01b0381168114610a9657600080fd5b50565b600060208284031215610aab57600080fd5b8135610ab681610a81565b9392505050565b60008060208385031215610ad057600080fd5b823567ffffffffffffffff80821115610ae857600080fd5b818501915085601f830112610afc57600080fd5b813581811115610b0b57600080fd5b8660208260051b8501011115610b2057600080fd5b60209290920196919550909350505050565b60005b83811015610b4d578181015183820152602001610b35565b50506000910152565b6000602080830181845280855180835260408601915060408160051b870101925083870160005b82811015610bc357878503603f1901845281518051808752610ba4818989018a8501610b32565b601f01601f191695909501860194509285019290850190600101610b7d565b5092979650505050505050565b600060208284031215610be257600080fd5b5051919050565b634e487b7160e01b600052604160045260246000fd5b634e487b7160e01b600052603260045260246000fd5b6000808335601e19843603018112610c2c57600080fd5b83018035915067ffffffffffffffff821115610c4757600080fd5b602001915036819003821315610c5c57600080fd5b9250929050565b8183823760009101908152919050565b60008251610c85818460208701610b32565b9190910192915050565b600060208284031215610ca157600080fd5b8151610ab681610a8156bc7de460bcfb6afd0c415c8c610d408bd914b18d7d0feec0da9e25348087a5c49b35df16c33a6c0e085c9ebd55fb367f81c58c2ed7e9bed98cc622f3308a600d9b35df16c33a6c0e085c9ebd55fb367f81c58c2ed7e9bed98cc622f3308a6013f5c6524ca7717dce3260f151d3a5f456914eb85fe781aba307beba9708cc8cc5","linkReferences":{}},"methodIdentifiers":{"__Architect_init(address,address,address)":"dc1b9f23","createSpace((string,string,string,((string,string,uint256,uint256,uint64,address,address,uint256,address),(bool,address[],((uint8,uint8)[],(uint8,uint256,address,uint256)[],(uint8,uint8,uint8)[])),string[]),(string,string)))":"e530ee5c","getSpaceArchitectImplementations()":"545efb2d","getSpaceById(string)":"f181942a","getTokenIdBySpace(address)":"c0bc6796","getTokenIdBySpaceId(string)":"bed8f27c","isSpace(address)":"33518c80","setSpaceArchitectImplementations(address,address,address)":"8bfc94b9"},"id":133}