{"abi":[{"type":"function","name":"addRoleToChannel","inputs":[{"name":"channelId","type":"string","internalType":"string"},{"name":"roleId","type":"uint256","internalType":"uint256"}],"outputs":[],"stateMutability":"nonpayable"},{"type":"function","name":"createChannel","inputs":[{"name":"channelId","type":"string","internalType":"string"},{"name":"metadata","type":"string","internalType":"string"},{"name":"roleIds","type":"uint256[]","internalType":"uint256[]"}],"outputs":[],"stateMutability":"nonpayable"},{"type":"function","name":"getChannel","inputs":[{"name":"channelId","type":"string","internalType":"string"}],"outputs":[{"name":"channel","type":"tuple","internalType":"struct IChannelBase.Channel","components":[{"name":"id","type":"string","internalType":"string"},{"name":"disabled","type":"bool","internalType":"bool"},{"name":"metadata","type":"string","internalType":"string"},{"name":"roleIds","type":"uint256[]","internalType":"uint256[]"}]}],"stateMutability":"view"},{"type":"function","name":"getChannels","inputs":[],"outputs":[{"name":"channels","type":"tuple[]","internalType":"struct IChannelBase.Channel[]","components":[{"name":"id","type":"string","internalType":"string"},{"name":"disabled","type":"bool","internalType":"bool"},{"name":"metadata","type":"string","internalType":"string"},{"name":"roleIds","type":"uint256[]","internalType":"uint256[]"}]}],"stateMutability":"view"},{"type":"function","name":"getRolesByChannel","inputs":[{"name":"channelId","type":"string","internalType":"string"}],"outputs":[{"name":"roleIds","type":"uint256[]","internalType":"uint256[]"}],"stateMutability":"view"},{"type":"function","name":"removeChannel","inputs":[{"name":"channelId","type":"string","internalType":"string"}],"outputs":[],"stateMutability":"nonpayable"},{"type":"function","name":"removeRoleFromChannel","inputs":[{"name":"channelId","type":"string","internalType":"string"},{"name":"roleId","type":"uint256","internalType":"uint256"}],"outputs":[],"stateMutability":"nonpayable"},{"type":"function","name":"updateChannel","inputs":[{"name":"channelId","type":"string","internalType":"string"},{"name":"metadata","type":"string","internalType":"string"},{"name":"disabled","type":"bool","internalType":"bool"}],"outputs":[],"stateMutability":"nonpayable"},{"type":"event","name":"Approval","inputs":[{"name":"owner","type":"address","indexed":true,"internalType":"address"},{"name":"approved","type":"address","indexed":true,"internalType":"address"},{"name":"tokenId","type":"uint256","indexed":true,"internalType":"uint256"}],"anonymous":false},{"type":"event","name":"ApprovalForAll","inputs":[{"name":"owner","type":"address","indexed":true,"internalType":"address"},{"name":"operator","type":"address","indexed":true,"internalType":"address"},{"name":"approved","type":"bool","indexed":false,"internalType":"bool"}],"anonymous":false},{"type":"event","name":"ChannelCreated","inputs":[{"name":"caller","type":"address","indexed":true,"internalType":"address"},{"name":"channelId","type":"string","indexed":false,"internalType":"string"}],"anonymous":false},{"type":"event","name":"ChannelRemoved","inputs":[{"name":"caller","type":"address","indexed":true,"internalType":"address"},{"name":"channelId","type":"string","indexed":false,"internalType":"string"}],"anonymous":false},{"type":"event","name":"ChannelRoleAdded","inputs":[{"name":"caller","type":"address","indexed":true,"internalType":"address"},{"name":"channelId","type":"string","indexed":false,"internalType":"string"},{"name":"roleId","type":"uint256","indexed":false,"internalType":"uint256"}],"anonymous":false},{"type":"event","name":"ChannelRoleRemoved","inputs":[{"name":"caller","type":"address","indexed":true,"internalType":"address"},{"name":"channelId","type":"string","indexed":false,"internalType":"string"},{"name":"roleId","type":"uint256","indexed":false,"internalType":"uint256"}],"anonymous":false},{"type":"event","name":"ChannelUpdated","inputs":[{"name":"caller","type":"address","indexed":true,"internalType":"address"},{"name":"channelId","type":"string","indexed":false,"internalType":"string"}],"anonymous":false},{"type":"event","name":"ConsecutiveTransfer","inputs":[{"name":"fromTokenId","type":"uint256","indexed":true,"internalType":"uint256"},{"name":"toTokenId","type":"uint256","indexed":false,"internalType":"uint256"},{"name":"from","type":"address","indexed":true,"internalType":"address"},{"name":"to","type":"address","indexed":true,"internalType":"address"}],"anonymous":false},{"type":"event","name":"Initialized","inputs":[{"name":"version","type":"uint32","indexed":false,"internalType":"uint32"}],"anonymous":false},{"type":"event","name":"InterfaceAdded","inputs":[{"name":"interfaceId","type":"bytes4","indexed":true,"internalType":"bytes4"}],"anonymous":false},{"type":"event","name":"InterfaceRemoved","inputs":[{"name":"interfaceId","type":"bytes4","indexed":true,"internalType":"bytes4"}],"anonymous":false},{"type":"event","name":"OwnershipTransferred","inputs":[{"name":"previousOwner","type":"address","indexed":true,"internalType":"address"},{"name":"newOwner","type":"address","indexed":true,"internalType":"address"}],"anonymous":false},{"type":"event","name":"Paused","inputs":[{"name":"account","type":"address","indexed":false,"internalType":"address"}],"anonymous":false},{"type":"event","name":"Transfer","inputs":[{"name":"from","type":"address","indexed":true,"internalType":"address"},{"name":"to","type":"address","indexed":true,"internalType":"address"},{"name":"tokenId","type":"uint256","indexed":true,"internalType":"uint256"}],"anonymous":false},{"type":"event","name":"Unpaused","inputs":[{"name":"account","type":"address","indexed":false,"internalType":"address"}],"anonymous":false},{"type":"error","name":"ApprovalCallerNotOwnerNorApproved","inputs":[]},{"type":"error","name":"ApprovalQueryForNonexistentToken","inputs":[]},{"type":"error","name":"BalanceQueryForZeroAddress","inputs":[]},{"type":"error","name":"Banning__InvalidTokenId","inputs":[{"name":"tokenId","type":"uint256","internalType":"uint256"}]},{"type":"error","name":"ChannelService__ChannelAlreadyExists","inputs":[]},{"type":"error","name":"ChannelService__ChannelDisabled","inputs":[]},{"type":"error","name":"ChannelService__ChannelDoesNotExist","inputs":[]},{"type":"error","name":"ChannelService__RoleAlreadyExists","inputs":[]},{"type":"error","name":"ChannelService__RoleDoesNotExist","inputs":[]},{"type":"error","name":"Entitlement__InvalidValue","inputs":[]},{"type":"error","name":"Entitlement__NotAllowed","inputs":[]},{"type":"error","name":"Entitlement__NotMember","inputs":[]},{"type":"error","name":"Entitlement__ValueAlreadyExists","inputs":[]},{"type":"error","name":"Initializable_InInitializingState","inputs":[]},{"type":"error","name":"Introspection_AlreadySupported","inputs":[]},{"type":"error","name":"Introspection_NotSupported","inputs":[]},{"type":"error","name":"MintERC2309QuantityExceedsLimit","inputs":[]},{"type":"error","name":"MintToZeroAddress","inputs":[]},{"type":"error","name":"MintZeroQuantity","inputs":[]},{"type":"error","name":"Ownable__NotOwner","inputs":[{"name":"account","type":"address","internalType":"address"}]},{"type":"error","name":"Ownable__ZeroAddress","inputs":[]},{"type":"error","name":"OwnerQueryForNonexistentToken","inputs":[]},{"type":"error","name":"OwnershipNotInitializedForExtraData","inputs":[]},{"type":"error","name":"Pausable__NotPaused","inputs":[]},{"type":"error","name":"Pausable__Paused","inputs":[]},{"type":"error","name":"TransferCallerNotOwnerNorApproved","inputs":[]},{"type":"error","name":"TransferFromIncorrectOwner","inputs":[]},{"type":"error","name":"TransferToNonERC721ReceiverImplementer","inputs":[]},{"type":"error","name":"TransferToZeroAddress","inputs":[]},{"type":"error","name":"URIQueryForNonexistentToken","inputs":[]},{"type":"error","name":"Validator__InvalidStringLength","inputs":[]}],"bytecode":{"object":"0x60806040523480156200001157600080fd5b506200001c62000022565b620000ca565b7f2d0d21306acfe8e9bb163a4573e95aff6cef95dc1102c6a16d5f19eac08cc4de8054640100000000900460ff16156200006f576040516366008a2d60e01b815260040160405180910390fd5b805463ffffffff9081161015620000c757805463ffffffff191663ffffffff90811782556040519081527fe9c9b456cb2994b80aeef036cf59d26e9617df80f816a6ee5a5b4166e07e2f5c9060200160405180910390a15b50565b61250380620000da6000396000f3fe608060405234801561001057600080fd5b50600436106100885760003560e01c806351f83cea1161005b57806351f83cea146100f15780637cd7ee3d146101045780639575f6ac146101245780639c02812e1461013957600080fd5b806305b2cfbc1461008d57806316b38751146100a257806342bb09b2146100cb578063499061b5146100de575b600080fd5b6100a061009b366004611ca0565b61014c565b005b6100b56100b0366004611d1c565b61018a565b6040516100c29190611d5d565b60405180910390f35b6100a06100d9366004611da1565b6101d4565b6100a06100ec366004611da1565b61024c565b6100a06100ff366004611e0f565b6102bf565b610117610112366004611ca0565b6102fc565b6040516100c29190611fc9565b61012c610332565b6040516100c29190611fdc565b6100a061014736600461204e565b610341565b61017e6040518060400160405280601181526020017041646452656d6f76654368616e6e656c7360781b81525061037e565b610187816103b4565b50565b60606101cb83838080601f01602080910402602001604051908101604052809392919081815260200183838082843760009201919091525061040192505050565b90505b92915050565b61023c83838080601f0160208091040260200160405190810160405280939291908181526020018383808284376000920191909152505060408051808201909152601181527041646452656d6f76654368616e6e656c7360781b6020820152915061040c9050565b610247838383610437565b505050565b6102b483838080601f0160208091040260200160405190810160405280939291908181526020018383808284376000920191909152505060408051808201909152601181527041646452656d6f76654368616e6e656c7360781b6020820152915061040c9050565b6102478383836104c2565b6102f16040518060400160405280601181526020017041646452656d6f76654368616e6e656c7360781b81525061037e565b610247838383610540565b61032960405180608001604052806060815260200160001515815260200160608152602001606081525090565b6101ce8261059a565b606061033c61060b565b905090565b6103736040518060400160405280601181526020017041646452656d6f76654368616e6e656c7360781b81525061037e565b61024783838361074c565b610397604051806020016040528060008152508261079b565b61018757604051630ce39a4b60e21b815260040160405180910390fd5b6103bd8161081f565b336001600160a01b03167ffa523db6e0f9e715af524617025380ecb07a5bdc7266e951baa64c82096b42bf826040516103f691906120c5565b60405180910390a250565b60606101ce8261098c565b610416828261079b565b61043357604051630ce39a4b60e21b815260040160405180910390fd5b5050565b61047883838080601f0160208091040260200160405190810160405280939291908181526020018383808284376000920191909152508592506109e2915050565b336001600160a01b03167fca076ccbc3aeaf982d7e8bda25501bca43f3ff1910a31364669925306e9a6e148484846040516104b5939291906120d8565b60405180910390a2505050565b61050383838080601f016020809104026020016040519081016040528093929190818152602001838380828437600092019190915250859250610a98915050565b336001600160a01b03167f83a637a8897e018bd05113befc092187d3c58ae68539c6eb183e2a479dcca40d8484846040516104b5939291906120d8565b61054b826000610b23565b610556836002610b23565b610561838383610b47565b336001600160a01b03167ff3a24943f70b2569320a93558b58442d48b340ed5cebe07ca9f94507fb78ce41846040516104b591906120c5565b6105c760405180608001604052806060815260200160001515815260200160608152602001606081525090565b6000806105d384610c7c565b925092505060006105e38561098c565b6040805160808101825296875292151560208701529185019290925260608401525090919050565b60606000610617610e3a565b9050600081516001600160401b0381111561063457610634611beb565b60405190808252806020026020018201604052801561069257816020015b61067f60405180608001604052806060815260200160001515815260200160608152602001606081525090565b8152602001906001900390816106525790505b50905060005b82518110156107455760008060006106c88685815181106106bb576106bb612111565b6020026020010151610c7c565b92509250925060006106f28786815181106106e5576106e5612111565b602002602001015161098c565b9050604051806080016040528085815260200183151581526020018481526020018281525086868151811061072957610729612111565b6020026020010181905250505050508080600101915050610698565b5092915050565b610757836002610b23565b610762838383610e5a565b336001600160a01b03167fceff7b159f9dbcf9e7e9d20f79690303c0fc5495a2e3c2525aa7e23c6742449c846040516104b591906120c5565b600033806107a7610f25565b6001600160a01b0316148061081757507ff421ea548af7158b1d71ba0aeccf57104c067038bd8fd214edd05c09eb4f735b5460ff1615801561081757506108178482856040516020016107fa9190612127565b60405160208183030381529060405261081290612143565b610fe9565b949350505050565b610828816112f6565b6000805160206124e3833981519152610841818361132d565b506040518060200160405280600081525081600201836040516108649190612127565b9081526020016040518091039020600201908161088191906121ee565b50600081600201836040516108969190612127565b908152604051908190036020018120600101805492151560ff199093169290921790915560028201906108ca908490612127565b90815260405190819003602001902060006108e58282611b9d565b60018201805460ff191690556108ff600283016000611b9d565b5050600061092b82600301846040516109189190612127565b9081526020016040518091039020611339565b905060005b81518110156109865761097d82828151811061094e5761094e612111565b602002602001015184600301866040516109689190612127565b90815260405190819003602001902090611346565b50600101610930565b50505050565b6060610997826112f6565b6040516000805160206124e3833981519152906109db907fb688ec8e4241d4a907fd7254e1a20e7a6d28a9043ed3eac37de6f05135b33b3d90610918908690612127565b9392505050565b6109eb826112f6565b6109f482611352565b6040516000805160206124e383398151915290610a4f9083907fb688ec8e4241d4a907fd7254e1a20e7a6d28a9043ed3eac37de6f05135b33b3d90610a3a908790612127565b908152604051908190036020019020906113c6565b15610a6d576040516302369ff360e41b815260040160405180910390fd5b610986828260030185604051610a839190612127565b908152604051908190036020019020906113de565b610aa1826112f6565b610aaa82611352565b6040516000805160206124e383398151915290610af09083907fb688ec8e4241d4a907fd7254e1a20e7a6d28a9043ed3eac37de6f05135b33b3d90610a3a908790612127565b610b0d576040516333cb039f60e11b815260040160405180910390fd5b6109868282600301856040516109689190612127565b81518290821115610247576040516374eb20a760e01b815260040160405180910390fd5b610b50836113ea565b6000805160206124e3833981519152610b698185611420565b50604080516060810182528581526000602082015280820185905290516002830190610b96908790612127565b90815260405190819003602001902081518190610bb390826121ee565b50602082015160018201805460ff191691151591909117905560408201516002820190610be090826121ee565b5090505060005b8251811015610c7557610c1f838281518110610c0557610c05612111565b60200260200101518360030187604051610a3a9190612127565b15610c3d576040516302369ff360e41b815260040160405180910390fd5b610c6c838281518110610c5257610c52612111565b60200260200101518360030187604051610a839190612127565b50600101610be7565b5050505050565b6060806000610c8a846112f6565b6040516000805160206124e3833981519152906000907fb688ec8e4241d4a907fd7254e1a20e7a6d28a9043ed3eac37de6f05135b33b3c90610ccd908890612127565b9081526020016040518091039020604051806060016040529081600082018054610cf69061216a565b80601f0160208091040260200160405190810160405280929190818152602001828054610d229061216a565b8015610d6f5780601f10610d4457610100808354040283529160200191610d6f565b820191906000526020600020905b815481529060010190602001808311610d5257829003601f168201915b5050509183525050600182015460ff1615156020820152600282018054604090920191610d9b9061216a565b80601f0160208091040260200160405190810160405280929190818152602001828054610dc79061216a565b8015610e145780601f10610de957610100808354040283529160200191610e14565b820191906000526020600020905b815481529060010190602001808311610df757829003601f168201915b505050919092525050815160408301516020909301519099929850965090945050505050565b60606000805160206124e3833981519152610e548161142c565b91505090565b610e63836112f6565b6040516000805160206124e3833981519152906000907fb688ec8e4241d4a907fd7254e1a20e7a6d28a9043ed3eac37de6f05135b33b3c90610ea6908790612127565b9081526020016040518091039020905060008451118015610ee6575080600201604051610ed391906122ad565b6040518091039020848051906020012014155b15610efb5760028101610ef985826121ee565b505b600181015460ff16151583151514610c7557600101805460ff191692151592909217909155505050565b6040805180820182527f9bd0e1a7aef81c47cff971a2fee48406b20f55522326b2e2616c49c24aa506d0546001600160a01b03168082527f9bd0e1a7aef81c47cff971a2fee48406b20f55522326b2e2616c49c24aa506d154602080840182905284516331a9108f60e11b815260048101929092529351600094636352211e92602480820193918290030181865afa158015610fc5573d6000803e3d6000fd5b505050506040513d601f19601f82011682018060405250810190610e54919061233f565b600080610ff584611437565b8051909150600080805b838110801561100c575082155b1561108f57600085828151811061102557611025612111565b60200260200101519050611038816115c0565b1561107c576001600160a01b03811660009081527f9b35df16c33a6c0e085c9ebd55fb367f81c58c2ed7e9bed98cc622f3308a600e60205260409020546001945092505b508061108781612370565b915050610fff565b508180156110e55750604051806040016040528060098152602001684a6f696e537061636560b81b8152506040516020016110ca9190612127565b6040516020818303038152906040526110e290612143565b86145b156110f75760009450505050506109db565b6000611101610f25565b905060005b855181101561115857816001600160a01b031686828151811061112b5761112b612111565b60200260200101516001600160a01b03160361115057600196505050505050506109db565b600101611106565b5060008281527fa58ec377a0bfb65fc456fb479d6eb2f9e176963c85db6b84841175b4a0b637e9602052604090205460ff168061119a575061119a89836115d3565b156111ad576000955050505050506109db565b7f2df4f8e2489b335ef09ede56990b0838afbcdea6c639a41af44b533474fb855860005b6111dd8260010161162d565b8110156112e557600082816111f56001830185611637565b6001600160a01b039081168252602080830193909352604091820160002082516060810184529054918216815260ff600160a01b83048116151594820194909452600160a81b9091049092161580159183018290529192506112c65750805160405163a7b7287160e01b81526001600160a01b039091169063a7b7287190611285908f908c908f90600401612389565b602060405180830381865afa1580156112a2573d6000803e3d6000fd5b505050506040513d601f19601f820116820180604052508101906112c691906123f2565b156112dc576001985050505050505050506109db565b506001016111d1565b5060009a9950505050505050505050565b611310816000805160206124e38339815191525b90611643565b6101875760405163560b4b4160e11b815260040160405180910390fd5b60006101cb838361164f565b606060006109db8361180e565b60006101cb838361186a565b6040516000805160206124e3833981519152907fb688ec8e4241d4a907fd7254e1a20e7a6d28a9043ed3eac37de6f05135b33b3c90611392908490612127565b9081526040519081900360200190206001015460ff161561043357604051636ce0028960e11b815260040160405180910390fd5b600081815260018301602052604081205415156101cb565b60006101cb8383611953565b611402816000805160206124e383398151915261130a565b1561018757604051632324f7d960e21b815260040160405180910390fd5b60006101cb83836119a2565b60606101ce826119fc565b6060600061146c7f438e2013c1d3a5bb9642eb30342f1d83ec0d3add620b71cdaf5043d9570b0a95546001600160a01b031690565b60405162468b7360e31b81526001600160a01b0385811660048301529192506000918316906302345b9890602401600060405180830381865afa1580156114b7573d6000803e3d6000fd5b505050506040513d6000823e601f3d908101601f191682016040526114df919081019061240f565b805190915060006114f18260016124a6565b6001600160401b0381111561150857611508611beb565b604051908082528060200260200182016040528015611531578160200160208202803683370190505b50905060005b8281101561158b5783818151811061155157611551612111565b602002602001015182828151811061156b5761156b612111565b6001600160a01b0390921660209283029190910190910152600101611537565b508581838151811061159f5761159f612111565b6001600160a01b039092166020928302919091019091015295945050505050565b6000806115cc83611ad9565b1192915050565b60007fa58ec377a0bfb65fc456fb479d6eb2f9e176963c85db6b84841175b4a0b637e9600101836040516116079190612127565b908152604080516020928190038301902060009485529091529091205460ff1692915050565b60006101ce825490565b60006101cb8383611b46565b60006101cb8383611b70565b60008083600101836040516116649190612127565b90815260200160405180910390205490508060001461180457600061168a6001836124b9565b855490915060009061169e906001906124b9565b90508181146117a55760008660000182815481106116be576116be612111565b9060005260206000200180546116d39061216a565b80601f01602080910402602001604051908101604052809291908181526020018280546116ff9061216a565b801561174c5780601f106117215761010080835404028352916020019161174c565b820191906000526020600020905b81548152906001019060200180831161172f57829003601f168201915b505050505090508087600001848154811061176957611769612111565b90600052602060002001908161177f91906121ee565b508387600101826040516117939190612127565b90815260405190819003602001902055505b85548690806117b6576117b66124cc565b6001900381819060005260206000200160006117d29190611b9d565b905585600101856040516117e69190612127565b908152602001604051809103902060009055600193505050506101ce565b60009150506101ce565b60608160000180548060200260200160405190810160405280929190818152602001828054801561185e57602002820191906000526020600020905b81548152602001906001019080831161184a575b50505050509050919050565b6000818152600183016020526040812054801561180457600061188e6001836124b9565b85549091506000906118a2906001906124b9565b90508082146119075760008660000182815481106118c2576118c2612111565b90600052602060002001549050808760000184815481106118e5576118e5612111565b6000918252602080832090910192909255918252600188019052604090208390555b8554869080611918576119186124cc565b6001900381819060005260206000200160009055905585600101600086815260200190815260200160002060009055600193505050506101ce565b600081815260018301602052604081205461199a575081546001818101845560008481526020808220909301849055845484825282860190935260409020919091556101ce565b5060006101ce565b60006119ae8383611b70565b61199a578254600181018455600084815260209020016119ce83826121ee565b50825460405160018501906119e4908590612127565b908152604051908190036020019020555060016101ce565b606081600001805480602002602001604051908101604052809291908181526020016000905b82821015611ace578382906000526020600020018054611a419061216a565b80601f0160208091040260200160405190810160405280929190818152602001828054611a6d9061216a565b8015611aba5780601f10611a8f57610100808354040283529160200191611aba565b820191906000526020600020905b815481529060010190602001808311611a9d57829003601f168201915b505050505081526020019060010190611a22565b505050509050919050565b60006001600160a01b038216611b02576040516323d3ad8160e21b815260040160405180910390fd5b506001600160a01b031660009081527f234d8962d7c9a6a6604d7f98797e6ad6d7a886804f7409feb26422e27bf8125960205260409020546001600160401b031690565b6000826000018281548110611b5d57611b5d612111565b9060005260206000200154905092915050565b60008260010182604051611b849190612127565b9081526040519081900360200190205415159392505050565b508054611ba99061216a565b6000825580601f10611bb9575050565b601f01602090049060005260206000209081019061018791905b80821115611be75760008155600101611bd3565b5090565b634e487b7160e01b600052604160045260246000fd5b604051601f8201601f191681016001600160401b0381118282101715611c2957611c29611beb565b604052919050565b600082601f830112611c4257600080fd5b81356001600160401b03811115611c5b57611c5b611beb565b611c6e601f8201601f1916602001611c01565b818152846020838601011115611c8357600080fd5b816020850160208301376000918101602001919091529392505050565b600060208284031215611cb257600080fd5b81356001600160401b03811115611cc857600080fd5b61081784828501611c31565b60008083601f840112611ce657600080fd5b5081356001600160401b03811115611cfd57600080fd5b602083019150836020828501011115611d1557600080fd5b9250929050565b60008060208385031215611d2f57600080fd5b82356001600160401b03811115611d4557600080fd5b611d5185828601611cd4565b90969095509350505050565b6020808252825182820181905260009190848201906040850190845b81811015611d9557835183529284019291840191600101611d79565b50909695505050505050565b600080600060408486031215611db657600080fd5b83356001600160401b03811115611dcc57600080fd5b611dd886828701611cd4565b909790965060209590950135949350505050565b60006001600160401b03821115611e0557611e05611beb565b5060051b60200190565b600080600060608486031215611e2457600080fd5b83356001600160401b0380821115611e3b57600080fd5b611e4787838801611c31565b9450602091508186013581811115611e5e57600080fd5b611e6a88828901611c31565b945050604086013581811115611e7f57600080fd5b86019050601f81018713611e9257600080fd5b8035611ea5611ea082611dec565b611c01565b81815260059190911b82018301908381019089831115611ec457600080fd5b928401925b82841015611ee257833582529284019290840190611ec9565b80955050505050509250925092565b60005b83811015611f0c578181015183820152602001611ef4565b50506000910152565b60008151808452611f2d816020860160208601611ef1565b601f01601f19169290920160200192915050565b6000815160808452611f566080850182611f15565b905060208084015115158186015260408401518583036040870152611f7b8382611f15565b606086810151888303918901919091528051808352908401945060009250908301905b80831015611fbe5784518252938301936001929092019190830190611f9e565b509695505050505050565b6020815260006101cb6020830184611f41565b600060208083016020845280855180835260408601915060408160051b87010192506020870160005b8281101561203357603f19888603018452612021858351611f41565b94509285019290850190600101612005565b5092979650505050505050565b801515811461018757600080fd5b60008060006060848603121561206357600080fd5b83356001600160401b038082111561207a57600080fd5b61208687838801611c31565b9450602086013591508082111561209c57600080fd5b506120a986828701611c31565b92505060408401356120ba81612040565b809150509250925092565b6020815260006101cb6020830184611f15565b604081528260408201528284606083013760006060848301015260006060601f19601f8601168301019050826020830152949350505050565b634e487b7160e01b600052603260045260246000fd5b60008251612139818460208701611ef1565b9190910192915050565b80516020808301519190811015612164576000198160200360031b1b821691505b50919050565b600181811c9082168061217e57607f821691505b60208210810361216457634e487b7160e01b600052602260045260246000fd5b601f821115610247576000816000526020600020601f850160051c810160208610156121c75750805b601f850160051c820191505b818110156121e6578281556001016121d3565b505050505050565b81516001600160401b0381111561220757612207611beb565b61221b81612215845461216a565b8461219e565b602080601f83116001811461225057600084156122385750858301515b600019600386901b1c1916600185901b1785556121e6565b600085815260208120601f198616915b8281101561227f57888601518255948401946001909101908401612260565b508582101561229d5787850151600019600388901b60f8161c191681555b5050505050600190811b01905550565b60008083546122bb8161216a565b600182811680156122d357600181146122e857612317565b60ff1984168752821515830287019450612317565b8760005260208060002060005b8581101561230e5781548a8201529084019082016122f5565b50505082870194505b50929695505050505050565b80516001600160a01b038116811461233a57600080fd5b919050565b60006020828403121561235157600080fd5b6101cb82612323565b634e487b7160e01b600052601160045260246000fd5b6000600182016123825761238261235a565b5060010190565b60608152600061239c6060830186611f15565b82810360208481019190915285518083528682019282019060005b818110156123dc5784516001600160a01b0316835293830193918301916001016123b7565b5050809350505050826040830152949350505050565b60006020828403121561240457600080fd5b81516109db81612040565b6000602080838503121561242257600080fd5b82516001600160401b0381111561243857600080fd5b8301601f8101851361244957600080fd5b8051612457611ea082611dec565b81815260059190911b8201830190838101908783111561247657600080fd5b928401925b8284101561249b5761248c84612323565b8252928401929084019061247b565b979650505050505050565b808201808211156101ce576101ce61235a565b818103818111156101ce576101ce61235a565b634e487b7160e01b600052603160045260246000fdfeb688ec8e4241d4a907fd7254e1a20e7a6d28a9043ed3eac37de6f05135b33b3a","linkReferences":{}},"methodIdentifiers":{"addRoleToChannel(string,uint256)":"42bb09b2","createChannel(string,string,uint256[])":"51f83cea","getChannel(string)":"7cd7ee3d","getChannels()":"9575f6ac","getRolesByChannel(string)":"16b38751","removeChannel(string)":"05b2cfbc","removeRoleFromChannel(string,uint256)":"499061b5","updateChannel(string,string,bool)":"9c02812e"},"id":151}