{"abi":[{"type":"function","name":"addEntitlementModule","inputs":[{"name":"entitlement","type":"address","internalType":"address"}],"outputs":[],"stateMutability":"nonpayable"},{"type":"function","name":"addImmutableEntitlements","inputs":[{"name":"entitlements","type":"address[]","internalType":"address[]"}],"outputs":[],"stateMutability":"nonpayable"},{"type":"function","name":"getEntitlement","inputs":[{"name":"entitlement","type":"address","internalType":"address"}],"outputs":[{"name":"","type":"tuple","internalType":"struct IEntitlementsManagerBase.Entitlement","components":[{"name":"name","type":"string","internalType":"string"},{"name":"moduleAddress","type":"address","internalType":"address"},{"name":"moduleType","type":"string","internalType":"string"},{"name":"isImmutable","type":"bool","internalType":"bool"}]}],"stateMutability":"view"},{"type":"function","name":"getEntitlements","inputs":[],"outputs":[{"name":"","type":"tuple[]","internalType":"struct IEntitlementsManagerBase.Entitlement[]","components":[{"name":"name","type":"string","internalType":"string"},{"name":"moduleAddress","type":"address","internalType":"address"},{"name":"moduleType","type":"string","internalType":"string"},{"name":"isImmutable","type":"bool","internalType":"bool"}]}],"stateMutability":"view"},{"type":"function","name":"isEntitledToChannel","inputs":[{"name":"channelId","type":"string","internalType":"string"},{"name":"user","type":"address","internalType":"address"},{"name":"permission","type":"string","internalType":"string"}],"outputs":[{"name":"","type":"bool","internalType":"bool"}],"stateMutability":"view"},{"type":"function","name":"isEntitledToTown","inputs":[{"name":"user","type":"address","internalType":"address"},{"name":"permission","type":"string","internalType":"string"}],"outputs":[{"name":"","type":"bool","internalType":"bool"}],"stateMutability":"view"},{"type":"function","name":"removeEntitlementModule","inputs":[{"name":"entitlement","type":"address","internalType":"address"}],"outputs":[],"stateMutability":"nonpayable"},{"type":"event","name":"Approval","inputs":[{"name":"owner","type":"address","indexed":true,"internalType":"address"},{"name":"approved","type":"address","indexed":true,"internalType":"address"},{"name":"tokenId","type":"uint256","indexed":true,"internalType":"uint256"}],"anonymous":false},{"type":"event","name":"ApprovalForAll","inputs":[{"name":"owner","type":"address","indexed":true,"internalType":"address"},{"name":"operator","type":"address","indexed":true,"internalType":"address"},{"name":"approved","type":"bool","indexed":false,"internalType":"bool"}],"anonymous":false},{"type":"event","name":"ConsecutiveTransfer","inputs":[{"name":"fromTokenId","type":"uint256","indexed":true,"internalType":"uint256"},{"name":"toTokenId","type":"uint256","indexed":false,"internalType":"uint256"},{"name":"from","type":"address","indexed":true,"internalType":"address"},{"name":"to","type":"address","indexed":true,"internalType":"address"}],"anonymous":false},{"type":"event","name":"EntitlementModuleAdded","inputs":[{"name":"caller","type":"address","indexed":true,"internalType":"address"},{"name":"entitlement","type":"address","indexed":false,"internalType":"address"}],"anonymous":false},{"type":"event","name":"EntitlementModuleRemoved","inputs":[{"name":"caller","type":"address","indexed":true,"internalType":"address"},{"name":"entitlement","type":"address","indexed":false,"internalType":"address"}],"anonymous":false},{"type":"event","name":"OwnershipTransferred","inputs":[{"name":"previousOwner","type":"address","indexed":true,"internalType":"address"},{"name":"newOwner","type":"address","indexed":true,"internalType":"address"}],"anonymous":false},{"type":"event","name":"Paused","inputs":[{"name":"account","type":"address","indexed":false,"internalType":"address"}],"anonymous":false},{"type":"event","name":"Transfer","inputs":[{"name":"from","type":"address","indexed":true,"internalType":"address"},{"name":"to","type":"address","indexed":true,"internalType":"address"},{"name":"tokenId","type":"uint256","indexed":true,"internalType":"uint256"}],"anonymous":false},{"type":"event","name":"Unpaused","inputs":[{"name":"account","type":"address","indexed":false,"internalType":"address"}],"anonymous":false},{"type":"error","name":"ApprovalCallerNotOwnerNorApproved","inputs":[]},{"type":"error","name":"ApprovalQueryForNonexistentToken","inputs":[]},{"type":"error","name":"BalanceQueryForZeroAddress","inputs":[]},{"type":"error","name":"Banning__InvalidTokenId","inputs":[{"name":"tokenId","type":"uint256","internalType":"uint256"}]},{"type":"error","name":"Entitlement__InvalidValue","inputs":[]},{"type":"error","name":"Entitlement__NotAllowed","inputs":[]},{"type":"error","name":"Entitlement__NotMember","inputs":[]},{"type":"error","name":"Entitlement__ValueAlreadyExists","inputs":[]},{"type":"error","name":"EntitlementsService__EntitlementAlreadyExists","inputs":[]},{"type":"error","name":"EntitlementsService__EntitlementDoesNotExist","inputs":[]},{"type":"error","name":"EntitlementsService__ImmutableEntitlement","inputs":[]},{"type":"error","name":"EntitlementsService__InvalidEntitlementAddress","inputs":[]},{"type":"error","name":"EntitlementsService__InvalidEntitlementInterface","inputs":[]},{"type":"error","name":"MintERC2309QuantityExceedsLimit","inputs":[]},{"type":"error","name":"MintToZeroAddress","inputs":[]},{"type":"error","name":"MintZeroQuantity","inputs":[]},{"type":"error","name":"Ownable__NotOwner","inputs":[{"name":"account","type":"address","internalType":"address"}]},{"type":"error","name":"Ownable__ZeroAddress","inputs":[]},{"type":"error","name":"OwnerQueryForNonexistentToken","inputs":[]},{"type":"error","name":"OwnershipNotInitializedForExtraData","inputs":[]},{"type":"error","name":"Pausable__NotPaused","inputs":[]},{"type":"error","name":"Pausable__Paused","inputs":[]},{"type":"error","name":"TransferCallerNotOwnerNorApproved","inputs":[]},{"type":"error","name":"TransferFromIncorrectOwner","inputs":[]},{"type":"error","name":"TransferToNonERC721ReceiverImplementer","inputs":[]},{"type":"error","name":"TransferToZeroAddress","inputs":[]},{"type":"error","name":"URIQueryForNonexistentToken","inputs":[]}],"bytecode":{"object":"0x608060405234801561001057600080fd5b50611352806100206000396000f3fe608060405234801561001057600080fd5b506004361061007d5760003560e01c80638bfc820f1161005b5780638bfc820f146100d8578063be24138d146100eb578063cea632bc146100fe578063fba4ff9d1461011157600080fd5b8063070b9c3f14610082578063487dc38c146100975780634ff8eb71146100b5575b600080fd5b610095610090366004610e37565b610131565b005b61009f61017d565b6040516100ac9190610efd565b60405180910390f35b6100c86100c3366004610faa565b61018c565b60405190151581526020016100ac565b6100956100e6366004611046565b6101a3565b6100956100f9366004610e37565b6101e7565b6100c861010c3660046110f8565b61022b565b61012461011f366004610e37565b61027b565b6040516100ac919061117d565b610139610292565b6001600160a01b0316336001600160a01b031614610171576040516365f4906560e01b81523360048201526024015b60405180910390fd5b61017a8161035c565b50565b60606101876103b2565b905090565b60006101998484846104b1565b90505b9392505050565b6101ab610292565b6001600160a01b0316336001600160a01b0316146101de576040516365f4906560e01b8152336004820152602401610168565b61017a816104f7565b6101ef610292565b6001600160a01b0316336001600160a01b031614610222576040516365f4906560e01b8152336004820152602401610168565b61017a81610555565b600061027186868080601f0160208091040260200160405190810160405280939291908181526020018383808284376000920191909152508892508791508690506105a2565b9695505050505050565b610283610def565b61028c826105c5565b92915050565b6040805180820182527f9bd0e1a7aef81c47cff971a2fee48406b20f55522326b2e2616c49c24aa506d0546001600160a01b03168082527f9bd0e1a7aef81c47cff971a2fee48406b20f55522326b2e2616c49c24aa506d154602080840182905284516331a9108f60e11b815260048101929092529351600094636352211e92602480820193918290030181865afa158015610332573d6000803e3d6000fd5b505050506040513d601f19601f820116820180604052508101906103569190611190565b91505090565b61036581610617565b6103708160006106e0565b6040516001600160a01b038216815233907f055c4c0e6f85afe96beaac6c9d650859c001e6ef93103856624cce6ceba811b4906020015b60405180910390a250565b606060006103be61078e565b9050805167ffffffffffffffff8111156103da576103da610fff565b60405190808252806020026020018201604052801561041357816020015b610400610def565b8152602001906001900390816103f85790505b50915060005b81518110156104ac5760008060008061044a86868151811061043d5761043d6111ad565b60200260200101516107b9565b93509350935093506040518060800160405280858152602001846001600160a01b03168152602001838152602001821515815250878681518110610490576104906111ad565b6020026020010181905250505050508080600101915050610419565b505090565b6000610199604051806020016040528060008152508585856040516020016104da9291906111c3565b6040516020818303038152906040526104f2906111d3565b610920565b60005b815181101561055157610525828281518110610518576105186111ad565b6020026020010151610617565b61054982828151811061053a5761053a6111ad565b602002602001015160016106e0565b6001016104fa565b5050565b61055e81610617565b61056781610abd565b6040516001600160a01b038216815233907fa8e3e13a35b592afaa9d213d12c7ea06384518ada9733585d20883cfafcf249b906020016103a7565b60006105bc858585856040516020016104da9291906111c3565b95945050505050565b6105cd610def565b6105d682610617565b6000806000806105e5866107b9565b604080516080810182529485526001600160a01b03909316602085015291830152151560608201529695505050505050565b6001600160a01b03811661063e57604051630706e15760e51b815260040160405180910390fd5b6040516301ffc9a760e01b815263df76a3d360e01b60048201526001600160a01b038216906301ffc9a790602401602060405180830381865afa9250505080156106a5575060408051601f3d908101601f191682019092526106a2918101906111fa565b60015b6106c25760405163f58a5f2760e01b815260040160405180910390fd5b806105515760405163f58a5f2760e01b815260040160405180910390fd5b6001600160a01b03828116600090815260008051602061133283398151915260208190526040909120549091161561072b57604051632406020960e01b815260040160405180910390fd5b6107386001820184610b80565b506040805180820182526001600160a01b03948516808252931515602080830191825260009586529390935292209151825491511515600160a01b026001600160a81b0319909216931692909217919091179055565b60606101877f2df4f8e2489b335ef09ede56990b0838afbcdea6c639a41af44b533474fb8559610b95565b606060008181806000805160206113328339815191526001600160a01b038781166000908152602083905260409020549192501661080a5760405163017ab33760e71b815260040160405180910390fd5b856001600160a01b03166306fdde036040518163ffffffff1660e01b8152600401600060405180830381865afa158015610848573d6000803e3d6000fd5b505050506040513d6000823e601f3d908101601f19168201604052610870919081019061121c565b6001600160a01b03808816600081815260208590526040808220548151636465e69f60e01b81529151941693636465e69f926004808401939192918290030181865afa1580156108c4573d6000803e3d6000fd5b505050506040513d6000823e601f3d908101601f191682016040526108ec919081019061121c565b6001600160a01b03989098166000908152602093909352604090922054909791969550600160a01b900460ff169350915050565b600061092a610292565b6001600160a01b0316836001600160a01b03160361094a5750600161019c565b6001600160a01b03831660009081527f9b35df16c33a6c0e085c9ebd55fb367f81c58c2ed7e9bed98cc622f3308a600e60205260409020546109ba8160009081527fa58ec377a0bfb65fc456fb479d6eb2f9e176963c85db6b84841175b4a0b637e9602052604090205460ff1690565b806109ca57506109ca8582610ba2565b156109d957600091505061019c565b6000805160206113328339815191526000610a137f2df4f8e2489b335ef09ede56990b0838afbcdea6c639a41af44b533474fb8559610bfc565b905060005b81811015610ab257610a2d6001840182610c06565b6001600160a01b031662b4eaa88989896040518463ffffffff1660e01b8152600401610a5b939291906112b0565b602060405180830381865afa158015610a78573d6000803e3d6000fd5b505050506040513d601f19601f82011682018060405250810190610a9c91906111fa565b15610aaa5760019450610ab2565b600101610a18565b505050509392505050565b6001600160a01b0381811660009081526000805160206113328339815191526020819052604090912054909116610b075760405163017ab33760e71b815260040160405180910390fd5b6001600160a01b038216600090815260208290526040902054600160a01b900460ff1615610b4857604051636045809760e11b815260040160405180910390fd5b610b556001820183610c12565b506001600160a01b0390911660009081526020919091526040902080546001600160a81b0319169055565b600061019c836001600160a01b038416610c27565b6060600061019c83610c76565b60007fa58ec377a0bfb65fc456fb479d6eb2f9e176963c85db6b84841175b4a0b637e960010183604051610bd691906112de565b908152604080516020928190038301902060009485529091529091205460ff1692915050565b600061028c825490565b600061019c8383610cd2565b600061019c836001600160a01b038416610cfc565b6000818152600183016020526040812054610c6e5750815460018181018455600084815260208082209093018490558454848252828601909352604090209190915561028c565b50600061028c565b606081600001805480602002602001604051908101604052809291908181526020018280548015610cc657602002820191906000526020600020905b815481526020019060010190808311610cb2575b50505050509050919050565b6000826000018281548110610ce957610ce96111ad565b9060005260206000200154905092915050565b60008181526001830160205260408120548015610de5576000610d206001836112fa565b8554909150600090610d34906001906112fa565b9050818114610d99576000866000018281548110610d5457610d546111ad565b9060005260206000200154905080876000018481548110610d7757610d776111ad565b6000918252602080832090910192909255918252600188019052604090208390555b8554869080610daa57610daa61131b565b60019003818190600052602060002001600090559055856001016000868152602001908152602001600020600090556001935050505061028c565b600091505061028c565b60405180608001604052806060815260200160006001600160a01b03168152602001606081526020016000151581525090565b6001600160a01b038116811461017a57600080fd5b600060208284031215610e4957600080fd5b813561019c81610e22565b60005b83811015610e6f578181015183820152602001610e57565b50506000910152565b60008151808452610e90816020860160208601610e54565b601f01601f19169290920160200192915050565b6000815160808452610eb96080850182610e78565b905060018060a01b03602084015116602085015260408301518482036040860152610ee48282610e78565b9150506060830151151560608501528091505092915050565b600060208083016020845280855180835260408601915060408160051b87010192506020870160005b82811015610f5457603f19888603018452610f42858351610ea4565b94509285019290850190600101610f26565b5092979650505050505050565b60008083601f840112610f7357600080fd5b50813567ffffffffffffffff811115610f8b57600080fd5b602083019150836020828501011115610fa357600080fd5b9250929050565b600080600060408486031215610fbf57600080fd5b8335610fca81610e22565b9250602084013567ffffffffffffffff811115610fe657600080fd5b610ff286828701610f61565b9497909650939450505050565b634e487b7160e01b600052604160045260246000fd5b604051601f8201601f1916810167ffffffffffffffff8111828210171561103e5761103e610fff565b604052919050565b6000602080838503121561105957600080fd5b823567ffffffffffffffff8082111561107157600080fd5b818501915085601f83011261108557600080fd5b81358181111561109757611097610fff565b8060051b91506110a8848301611015565b81815291830184019184810190888411156110c257600080fd5b938501935b838510156110ec57843592506110dc83610e22565b82825293850193908501906110c7565b98975050505050505050565b60008060008060006060868803121561111057600080fd5b853567ffffffffffffffff8082111561112857600080fd5b61113489838a01610f61565b90975095506020880135915061114982610e22565b9093506040870135908082111561115f57600080fd5b5061116c88828901610f61565b969995985093965092949392505050565b60208152600061019c6020830184610ea4565b6000602082840312156111a257600080fd5b815161019c81610e22565b634e487b7160e01b600052603260045260246000fd5b8183823760009101908152919050565b805160208083015191908110156111f4576000198160200360031b1b821691505b50919050565b60006020828403121561120c57600080fd5b8151801515811461019c57600080fd5b60006020828403121561122e57600080fd5b815167ffffffffffffffff8082111561124657600080fd5b818401915084601f83011261125a57600080fd5b81518181111561126c5761126c610fff565b61127f601f8201601f1916602001611015565b915080825285602082850101111561129657600080fd5b6112a7816020840160208601610e54565b50949350505050565b6060815260006112c36060830186610e78565b6001600160a01b039490941660208301525060400152919050565b600082516112f0818460208701610e54565b9190910192915050565b8181038181111561028c57634e487b7160e01b600052601160045260246000fd5b634e487b7160e01b600052603160045260246000fdfe2df4f8e2489b335ef09ede56990b0838afbcdea6c639a41af44b533474fb8558","linkReferences":{}},"methodIdentifiers":{"addEntitlementModule(address)":"070b9c3f","addImmutableEntitlements(address[])":"8bfc820f","getEntitlement(address)":"fba4ff9d","getEntitlements()":"487dc38c","isEntitledToChannel(string,address,string)":"cea632bc","isEntitledToTown(address,string)":"4ff8eb71","removeEntitlementModule(address)":"be24138d"},"id":167}