{
  "abi": [
    {
      "inputs": [
        {
          "internalType": "string",
          "name": "_name",
          "type": "string"
        },
        {
          "internalType": "string",
          "name": "_symbol",
          "type": "string"
        },
        {
          "internalType": "string",
          "name": "_baseURI",
          "type": "string"
        },
        {
          "internalType": "bytes32",
          "name": "_root",
          "type": "bytes32"
        }
      ],
      "stateMutability": "nonpayable",
      "type": "constructor"
    },
    {
      "inputs": [],
      "name": "MaxSupply",
      "type": "error"
    },
    {
      "inputs": [],
      "name": "MintPriceNotPaid",
      "type": "error"
    },
    {
      "inputs": [],
      "name": "NonExistentTokenURI",
      "type": "error"
    },
    {
      "inputs": [],
      "name": "WithdrawTransfer",
      "type": "error"
    },
    {
      "anonymous": false,
      "inputs": [
        {
          "indexed": true,
          "internalType": "address",
          "name": "owner",
          "type": "address"
        },
        {
          "indexed": true,
          "internalType": "address",
          "name": "spender",
          "type": "address"
        },
        {
          "indexed": true,
          "internalType": "uint256",
          "name": "id",
          "type": "uint256"
        }
      ],
      "name": "Approval",
      "type": "event"
    },
    {
      "anonymous": false,
      "inputs": [
        {
          "indexed": true,
          "internalType": "address",
          "name": "owner",
          "type": "address"
        },
        {
          "indexed": true,
          "internalType": "address",
          "name": "operator",
          "type": "address"
        },
        {
          "indexed": false,
          "internalType": "bool",
          "name": "approved",
          "type": "bool"
        }
      ],
      "name": "ApprovalForAll",
      "type": "event"
    },
    {
      "anonymous": false,
      "inputs": [
        {
          "indexed": true,
          "internalType": "address",
          "name": "previousOwner",
          "type": "address"
        },
        {
          "indexed": true,
          "internalType": "address",
          "name": "newOwner",
          "type": "address"
        }
      ],
      "name": "OwnershipTransferred",
      "type": "event"
    },
    {
      "anonymous": false,
      "inputs": [
        {
          "indexed": true,
          "internalType": "address",
          "name": "from",
          "type": "address"
        },
        {
          "indexed": true,
          "internalType": "address",
          "name": "to",
          "type": "address"
        },
        {
          "indexed": true,
          "internalType": "uint256",
          "name": "id",
          "type": "uint256"
        }
      ],
      "name": "Transfer",
      "type": "event"
    },
    {
      "inputs": [],
      "name": "MINT_PRICE",
      "outputs": [
        {
          "internalType": "uint256",
          "name": "",
          "type": "uint256"
        }
      ],
      "stateMutability": "view",
      "type": "function"
    },
    {
      "inputs": [],
      "name": "TOTAL_SUPPLY",
      "outputs": [
        {
          "internalType": "uint256",
          "name": "",
          "type": "uint256"
        }
      ],
      "stateMutability": "view",
      "type": "function"
    },
    {
      "inputs": [
        {
          "internalType": "address",
          "name": "recipient",
          "type": "address"
        },
        {
          "internalType": "uint256",
          "name": "allowance",
          "type": "uint256"
        },
        {
          "internalType": "bytes32[]",
          "name": "proof",
          "type": "bytes32[]"
        }
      ],
      "name": "allowlistMint",
      "outputs": [
        {
          "internalType": "uint256",
          "name": "",
          "type": "uint256"
        }
      ],
      "stateMutability": "payable",
      "type": "function"
    },
    {
      "inputs": [
        {
          "internalType": "address",
          "name": "",
          "type": "address"
        }
      ],
      "name": "alreadyMinted",
      "outputs": [
        {
          "internalType": "bool",
          "name": "",
          "type": "bool"
        }
      ],
      "stateMutability": "view",
      "type": "function"
    },
    {
      "inputs": [
        {
          "internalType": "address",
          "name": "spender",
          "type": "address"
        },
        {
          "internalType": "uint256",
          "name": "id",
          "type": "uint256"
        }
      ],
      "name": "approve",
      "outputs": [],
      "stateMutability": "nonpayable",
      "type": "function"
    },
    {
      "inputs": [
        {
          "internalType": "address",
          "name": "owner",
          "type": "address"
        }
      ],
      "name": "balanceOf",
      "outputs": [
        {
          "internalType": "uint256",
          "name": "",
          "type": "uint256"
        }
      ],
      "stateMutability": "view",
      "type": "function"
    },
    {
      "inputs": [],
      "name": "baseURI",
      "outputs": [
        {
          "internalType": "string",
          "name": "",
          "type": "string"
        }
      ],
      "stateMutability": "view",
      "type": "function"
    },
    {
      "inputs": [],
      "name": "currentTokenId",
      "outputs": [
        {
          "internalType": "uint256",
          "name": "",
          "type": "uint256"
        }
      ],
      "stateMutability": "view",
      "type": "function"
    },
    {
      "inputs": [
        {
          "internalType": "uint256",
          "name": "",
          "type": "uint256"
        }
      ],
      "name": "getApproved",
      "outputs": [
        {
          "internalType": "address",
          "name": "",
          "type": "address"
        }
      ],
      "stateMutability": "view",
      "type": "function"
    },
    {
      "inputs": [
        {
          "internalType": "address",
          "name": "",
          "type": "address"
        },
        {
          "internalType": "address",
          "name": "",
          "type": "address"
        }
      ],
      "name": "isApprovedForAll",
      "outputs": [
        {
          "internalType": "bool",
          "name": "",
          "type": "bool"
        }
      ],
      "stateMutability": "view",
      "type": "function"
    },
    {
      "inputs": [],
      "name": "mint",
      "outputs": [
        {
          "internalType": "uint256",
          "name": "",
          "type": "uint256"
        }
      ],
      "stateMutability": "payable",
      "type": "function"
    },
    {
      "inputs": [
        {
          "internalType": "address",
          "name": "recipient",
          "type": "address"
        }
      ],
      "name": "mintTo",
      "outputs": [
        {
          "internalType": "uint256",
          "name": "",
          "type": "uint256"
        }
      ],
      "stateMutability": "payable",
      "type": "function"
    },
    {
      "inputs": [],
      "name": "name",
      "outputs": [
        {
          "internalType": "string",
          "name": "",
          "type": "string"
        }
      ],
      "stateMutability": "view",
      "type": "function"
    },
    {
      "inputs": [],
      "name": "owner",
      "outputs": [
        {
          "internalType": "address",
          "name": "",
          "type": "address"
        }
      ],
      "stateMutability": "view",
      "type": "function"
    },
    {
      "inputs": [
        {
          "internalType": "uint256",
          "name": "id",
          "type": "uint256"
        }
      ],
      "name": "ownerOf",
      "outputs": [
        {
          "internalType": "address",
          "name": "owner",
          "type": "address"
        }
      ],
      "stateMutability": "view",
      "type": "function"
    },
    {
      "inputs": [],
      "name": "renounceOwnership",
      "outputs": [],
      "stateMutability": "nonpayable",
      "type": "function"
    },
    {
      "inputs": [],
      "name": "root",
      "outputs": [
        {
          "internalType": "bytes32",
          "name": "",
          "type": "bytes32"
        }
      ],
      "stateMutability": "view",
      "type": "function"
    },
    {
      "inputs": [
        {
          "internalType": "address",
          "name": "from",
          "type": "address"
        },
        {
          "internalType": "address",
          "name": "to",
          "type": "address"
        },
        {
          "internalType": "uint256",
          "name": "id",
          "type": "uint256"
        }
      ],
      "name": "safeTransferFrom",
      "outputs": [],
      "stateMutability": "nonpayable",
      "type": "function"
    },
    {
      "inputs": [
        {
          "internalType": "address",
          "name": "from",
          "type": "address"
        },
        {
          "internalType": "address",
          "name": "to",
          "type": "address"
        },
        {
          "internalType": "uint256",
          "name": "id",
          "type": "uint256"
        },
        {
          "internalType": "bytes",
          "name": "data",
          "type": "bytes"
        }
      ],
      "name": "safeTransferFrom",
      "outputs": [],
      "stateMutability": "nonpayable",
      "type": "function"
    },
    {
      "inputs": [
        {
          "internalType": "address",
          "name": "operator",
          "type": "address"
        },
        {
          "internalType": "bool",
          "name": "approved",
          "type": "bool"
        }
      ],
      "name": "setApprovalForAll",
      "outputs": [],
      "stateMutability": "nonpayable",
      "type": "function"
    },
    {
      "inputs": [
        {
          "internalType": "bytes4",
          "name": "interfaceId",
          "type": "bytes4"
        }
      ],
      "name": "supportsInterface",
      "outputs": [
        {
          "internalType": "bool",
          "name": "",
          "type": "bool"
        }
      ],
      "stateMutability": "view",
      "type": "function"
    },
    {
      "inputs": [],
      "name": "symbol",
      "outputs": [
        {
          "internalType": "string",
          "name": "",
          "type": "string"
        }
      ],
      "stateMutability": "view",
      "type": "function"
    },
    {
      "inputs": [
        {
          "internalType": "uint256",
          "name": "tokenId",
          "type": "uint256"
        }
      ],
      "name": "tokenURI",
      "outputs": [
        {
          "internalType": "string",
          "name": "",
          "type": "string"
        }
      ],
      "stateMutability": "view",
      "type": "function"
    },
    {
      "inputs": [
        {
          "internalType": "address",
          "name": "from",
          "type": "address"
        },
        {
          "internalType": "address",
          "name": "to",
          "type": "address"
        },
        {
          "internalType": "uint256",
          "name": "id",
          "type": "uint256"
        }
      ],
      "name": "transferFrom",
      "outputs": [],
      "stateMutability": "nonpayable",
      "type": "function"
    },
    {
      "inputs": [
        {
          "internalType": "address",
          "name": "newOwner",
          "type": "address"
        }
      ],
      "name": "transferOwnership",
      "outputs": [],
      "stateMutability": "nonpayable",
      "type": "function"
    },
    {
      "inputs": [
        {
          "internalType": "address payable",
          "name": "payee",
          "type": "address"
        }
      ],
      "name": "withdrawPayments",
      "outputs": [],
      "stateMutability": "nonpayable",
      "type": "function"
    }
  ],
  "bytecode": {
    "object": "0x60a06040523480156200001157600080fd5b50604051620027f6380380620027f683398101604081905262000034916200020c565b8383600062000044838262000334565b50600162000053828262000334565b505050620000706200006a620000db60201b60201c565b620000df565b60076200007e838262000334565b506080819052604051620000929062000131565b604051809103906000f080158015620000af573d6000803e3d6000fd5b50600a80546001600160a01b0319166001600160a01b0392909216919091179055506200040092505050565b3390565b600680546001600160a01b038381166001600160a01b0319831681179093556040519116919082907f8be0079c531659141344cd1fd0a4f28419497f9722a3daafe3b4186f6b6457e090600090a35050565b6109108062001ee683390190565b634e487b7160e01b600052604160045260246000fd5b600082601f8301126200016757600080fd5b81516001600160401b03808211156200018457620001846200013f565b604051601f8301601f19908116603f01168101908282118183101715620001af57620001af6200013f565b81604052838152602092508683858801011115620001cc57600080fd5b600091505b83821015620001f05785820183015181830184015290820190620001d1565b83821115620002025760008385830101525b9695505050505050565b600080600080608085870312156200022357600080fd5b84516001600160401b03808211156200023b57600080fd5b620002498883890162000155565b955060208701519150808211156200026057600080fd5b6200026e8883890162000155565b945060408701519150808211156200028557600080fd5b50620002948782880162000155565b606096909601519497939650505050565b600181811c90821680620002ba57607f821691505b602082108103620002db57634e487b7160e01b600052602260045260246000fd5b50919050565b601f8211156200032f57600081815260208120601f850160051c810160208610156200030a5750805b601f850160051c820191505b818110156200032b5782815560010162000316565b5050505b505050565b81516001600160401b038111156200035057620003506200013f565b6200036881620003618454620002a5565b84620002e1565b602080601f831160018114620003a05760008415620003875750858301515b600019600386901b1c1916600185901b1785556200032b565b600085815260208120601f198616915b82811015620003d157888601518255948401946001909101908401620003b0565b5085821015620003f05787850151600019600388901b60f8161c191681555b5050505050600190811b01905550565b608051611ac362000423600039600081816104aa01526105790152611ac36000f3fe6080604052600436106101805760003560e01c806370a08231116100d1578063a22cb4651161008a578063c87b56dd11610064578063c87b56dd1461043d578063e985e9c51461045d578063ebf0c71714610498578063f2fde38b146104cc57600080fd5b8063a22cb465146103e1578063b88d4fde14610401578063c002d23d1461042157600080fd5b806370a0823114610350578063715018a614610370578063755edd17146103855780638da5cb5b14610398578063902d55a5146103b657806395d89b41146103cc57600080fd5b80630a398b881161013e57806331b3eb941161011857806331b3eb94146102db57806342842e0e146102fb5780636352211e1461031b5780636c0360eb1461033b57600080fd5b80630a398b88146102835780631249c58b146102b357806323b872dd146102bb57600080fd5b80629a9b7b14610185578063017c966a146101ae57806301ffc9a7146101c157806306fdde03146101f1578063081812fc14610213578063095ea7b314610261575b600080fd5b34801561019157600080fd5b5061019b60085481565b6040519081526020015b60405180910390f35b61019b6101bc366004611468565b6104ec565b3480156101cd57600080fd5b506101e16101dc36600461150a565b6106be565b60405190151581526020016101a5565b3480156101fd57600080fd5b50610206610710565b6040516101a5919061158a565b34801561021f57600080fd5b5061024961022e36600461159d565b6004602052600090815260409020546001600160a01b031681565b6040516001600160a01b0390911681526020016101a5565b34801561026d57600080fd5b5061028161027c3660046115b6565b61079e565b005b34801561028f57600080fd5b506101e161029e3660046115e2565b60096020526000908152604090205460ff1681565b61019b610880565b3480156102c757600080fd5b506102816102d63660046115ff565b6108e6565b3480156102e757600080fd5b506102816102f63660046115e2565b610aad565b34801561030757600080fd5b506102816103163660046115ff565b610b2e565b34801561032757600080fd5b5061024961033636600461159d565b610bfe565b34801561034757600080fd5b50610206610c55565b34801561035c57600080fd5b5061019b61036b3660046115e2565b610c62565b34801561037c57600080fd5b50610281610cc5565b61019b6103933660046115e2565b610cd9565b3480156103a457600080fd5b506006546001600160a01b0316610249565b3480156103c257600080fd5b5061019b6109c481565b3480156103d857600080fd5b50610206610ddb565b3480156103ed57600080fd5b506102816103fc36600461164e565b610de8565b34801561040d57600080fd5b5061028161041c366004611687565b610e54565b34801561042d57600080fd5b5061019b67011c37937e08000081565b34801561044957600080fd5b5061020661045836600461159d565b610f19565b34801561046957600080fd5b506101e1610478366004611726565b600560209081526000928352604080842090915290825290205460ff1681565b3480156104a457600080fd5b5061019b7f000000000000000000000000000000000000000000000000000000000000000081565b3480156104d857600080fd5b506102816104e73660046115e2565b610f9f565b60408051606086901b6bffffffffffffffffffffffff19166020820152815160148183030181526034909101909152600090818161052987611018565b60405160200161053a929190611754565b60408051601f19818403018152908290528051602090910120600a54632c0b0d2160e11b83529092506001600160a01b0316906358161a42906105a7907f000000000000000000000000000000000000000000000000000000000000000090899089908790600401611783565b602060405180830381865afa1580156105c4573d6000803e3d6000fd5b505050506040513d601f19601f820116820180604052508101906105e891906117d1565b15156001146106495760405162461bcd60e51b815260206004820152602260248201527f496e76616c6964206d65726b6c6520747265652070726f6f6620737570706c69604482015261195960f21b60648201526084015b60405180910390fd5b6001600160a01b03871660009081526009602052604090205460ff16156106aa5760405162461bcd60e51b8152602060048201526015602482015274105b1c9958591e481b5a5b9d195908185b88139195605a1b6044820152606401610640565b6106b387610cd9565b979650505050505050565b60006301ffc9a760e01b6001600160e01b0319831614806106ef57506380ac58cd60e01b6001600160e01b03198316145b8061070a5750635b5e139f60e01b6001600160e01b03198316145b92915050565b6000805461071d906117ee565b80601f0160208091040260200160405190810160405280929190818152602001828054610749906117ee565b80156107965780601f1061076b57610100808354040283529160200191610796565b820191906000526020600020905b81548152906001019060200180831161077957829003601f168201915b505050505081565b6000818152600260205260409020546001600160a01b0316338114806107e757506001600160a01b038116600090815260056020908152604080832033845290915290205460ff165b6108245760405162461bcd60e51b815260206004820152600e60248201526d1393d517d055551213d49256915160921b6044820152606401610640565b60008281526004602052604080822080546001600160a01b0319166001600160a01b0387811691821790925591518593918516917f8c5be1e5ebec7d5bd14f71427d1e84f3dd0314c0f7b2291e5b200ac8c7c3b92591a4505050565b3360009081526009602052604081205460ff16156108d85760405162461bcd60e51b8152602060048201526015602482015274105b1c9958591e481b5a5b9d195908185b88139195605a1b6044820152606401610640565b6108e133610cd9565b905090565b6000818152600260205260409020546001600160a01b0384811691161461093c5760405162461bcd60e51b815260206004820152600a60248201526957524f4e475f46524f4d60b01b6044820152606401610640565b6001600160a01b0382166109865760405162461bcd60e51b81526020600482015260116024820152701253959053125117d49150d25412515395607a1b6044820152606401610640565b336001600160a01b03841614806109c057506001600160a01b038316600090815260056020908152604080832033845290915290205460ff165b806109e157506000818152600460205260409020546001600160a01b031633145b610a1e5760405162461bcd60e51b815260206004820152600e60248201526d1393d517d055551213d49256915160921b6044820152606401610640565b6001600160a01b0380841660008181526003602090815260408083208054600019019055938616808352848320805460010190558583526002825284832080546001600160a01b03199081168317909155600490925284832080549092169091559251849392917fddf252ad1be2c89b69c2b068fc378daa952ba7f163c4a11628f55a4df523b3ef91a4505050565b610ab5611121565b60405147906000906001600160a01b0384169083908381818185875af1925050503d8060008114610b02576040519150601f19603f3d011682016040523d82523d6000602084013e610b07565b606091505b5050905080610b295760405163d23a9e8960e01b815260040160405180910390fd5b505050565b610b398383836108e6565b6001600160a01b0382163b1580610be25750604051630a85bd0160e11b8082523360048301526001600160a01b03858116602484015260448301849052608060648401526000608484015290919084169063150b7a029060a4016020604051808303816000875af1158015610bb2573d6000803e3d6000fd5b505050506040513d601f19601f82011682018060405250810190610bd69190611828565b6001600160e01b031916145b610b295760405162461bcd60e51b815260040161064090611845565b6000818152600260205260409020546001600160a01b031680610c505760405162461bcd60e51b815260206004820152600a6024820152691393d517d3525395115160b21b6044820152606401610640565b919050565b6007805461071d906117ee565b60006001600160a01b038216610ca95760405162461bcd60e51b815260206004820152600c60248201526b5a45524f5f4144445245535360a01b6044820152606401610640565b506001600160a01b031660009081526003602052604090205490565b610ccd611121565b610cd7600061117b565b565b6000610d10604051806040016040528060138152602001726d696e74696e6720746f6b656e2076616c756560681b815250346111cd565b610d466040518060400160405280601481526020017336b4b73a34b733903a37b5b2b71039b2b73232b960611b81525033611216565b67011c37937e0800003414610d6e576040516310f0c8f160e11b815260040160405180910390fd5b6000600860008154610d7f90611885565b918290555090506109c4811115610da957604051632cdb04a160e21b815260040160405180910390fd5b610db3838261125b565b6001600160a01b039092166000908152600960205260409020805460ff191660011790555090565b6001805461071d906117ee565b3360008181526005602090815260408083206001600160a01b03871680855290835292819020805460ff191686151590811790915590519081529192917f17307eab39ab6107e8899845ad3d59bd9653f200f220920489ca2b5937696c31910160405180910390a35050565b610e5f8585856108e6565b6001600160a01b0384163b1580610ef65750604051630a85bd0160e11b808252906001600160a01b0386169063150b7a0290610ea79033908a9089908990899060040161189e565b6020604051808303816000875af1158015610ec6573d6000803e3d6000fd5b505050506040513d601f19601f82011682018060405250810190610eea9190611828565b6001600160e01b031916145b610f125760405162461bcd60e51b815260040161064090611845565b5050505050565b60606000610f2683610bfe565b6001600160a01b031603610f4d5760405163d872946b60e01b815260040160405180910390fd5b600060078054610f5c906117ee565b905011610f78576040518060200160405280600081525061070a565b6007604051602001610f8a91906118f2565b60405160208183030381529060405292915050565b610fa7611121565b6001600160a01b03811661100c5760405162461bcd60e51b815260206004820152602660248201527f4f776e61626c653a206e6577206f776e657220697320746865207a65726f206160448201526564647265737360d01b6064820152608401610640565b6110158161117b565b50565b60608160000361103f5750506040805180820190915260018152600360fc1b602082015290565b8160005b8115611069578061105381611885565b91506110629050600a836119be565b9150611043565b60008167ffffffffffffffff811115611084576110846119d2565b6040519080825280601f01601f1916602001820160405280156110ae576020820181803683370190505b5090505b8415611119576110c36001836119e8565b91506110d0600a866119ff565b6110db906030611a13565b60f81b8183815181106110f0576110f0611a2b565b60200101906001600160f81b031916908160001a905350611112600a866119be565b94506110b2565b949350505050565b6006546001600160a01b03163314610cd75760405162461bcd60e51b815260206004820181905260248201527f4f776e61626c653a2063616c6c6572206973206e6f7420746865206f776e65726044820152606401610640565b600680546001600160a01b038381166001600160a01b0319831681179093556040519116919082907f8be0079c531659141344cd1fd0a4f28419497f9722a3daafe3b4186f6b6457e090600090a35050565b61121282826040516024016111e3929190611a41565b60408051601f198184030181529190526020810180516001600160e01b03166309710a9d60e41b179052611327565b5050565b611212828260405160240161122c929190611a63565b60408051601f198184030181529190526020810180516001600160e01b031663319af33360e01b179052611327565b6112658282611348565b6001600160a01b0382163b158061130b5750604051630a85bd0160e11b80825233600483015260006024830181905260448301849052608060648401526084830152906001600160a01b0384169063150b7a029060a4016020604051808303816000875af11580156112db573d6000803e3d6000fd5b505050506040513d601f19601f820116820180604052508101906112ff9190611828565b6001600160e01b031916145b6112125760405162461bcd60e51b815260040161064090611845565b80516a636f6e736f6c652e6c6f67602083016000808483855afa5050505050565b6001600160a01b0382166113925760405162461bcd60e51b81526020600482015260116024820152701253959053125117d49150d25412515395607a1b6044820152606401610640565b6000818152600260205260409020546001600160a01b0316156113e85760405162461bcd60e51b815260206004820152600e60248201526d1053149150511657d3525395115160921b6044820152606401610640565b6001600160a01b038216600081815260036020908152604080832080546001019055848352600290915280822080546001600160a01b0319168417905551839291907fddf252ad1be2c89b69c2b068fc378daa952ba7f163c4a11628f55a4df523b3ef908290a45050565b6001600160a01b038116811461101557600080fd5b6000806000806060858703121561147e57600080fd5b843561148981611453565b935060208501359250604085013567ffffffffffffffff808211156114ad57600080fd5b818701915087601f8301126114c157600080fd5b8135818111156114d057600080fd5b8860208260051b85010111156114e557600080fd5b95989497505060200194505050565b6001600160e01b03198116811461101557600080fd5b60006020828403121561151c57600080fd5b8135611527816114f4565b9392505050565b60005b83811015611549578181015183820152602001611531565b83811115611558576000848401525b50505050565b6000815180845261157681602086016020860161152e565b601f01601f19169290920160200192915050565b602081526000611527602083018461155e565b6000602082840312156115af57600080fd5b5035919050565b600080604083850312156115c957600080fd5b82356115d481611453565b946020939093013593505050565b6000602082840312156115f457600080fd5b813561152781611453565b60008060006060848603121561161457600080fd5b833561161f81611453565b9250602084013561162f81611453565b929592945050506040919091013590565b801515811461101557600080fd5b6000806040838503121561166157600080fd5b823561166c81611453565b9150602083013561167c81611640565b809150509250929050565b60008060008060006080868803121561169f57600080fd5b85356116aa81611453565b945060208601356116ba81611453565b935060408601359250606086013567ffffffffffffffff808211156116de57600080fd5b818801915088601f8301126116f257600080fd5b81358181111561170157600080fd5b89602082850101111561171357600080fd5b9699959850939650602001949392505050565b6000806040838503121561173957600080fd5b823561174481611453565b9150602083013561167c81611453565b6000835161176681846020880161152e565b83519083019061177a81836020880161152e565b01949350505050565b848152606060208201819052810183905260006001600160fb1b038411156117aa57600080fd5b8360051b808660808501376000908301608001908152604090920192909252949350505050565b6000602082840312156117e357600080fd5b815161152781611640565b600181811c9082168061180257607f821691505b60208210810361182257634e487b7160e01b600052602260045260246000fd5b50919050565b60006020828403121561183a57600080fd5b8151611527816114f4565b60208082526010908201526f155394d0519157d49150d2541251539560821b604082015260600190565b634e487b7160e01b600052601160045260246000fd5b6000600182016118975761189761186f565b5060010190565b6001600160a01b038681168252851660208201526040810184905260806060820181905281018290526000828460a0840137600060a0848401015260a0601f19601f85011683010190509695505050505050565b600080835481600182811c91508083168061190e57607f831692505b6020808410820361192d57634e487b7160e01b86526022600452602486fd5b818015611941576001811461195657611983565b60ff1986168952841515850289019650611983565b60008a81526020902060005b8681101561197b5781548b820152908501908301611962565b505084890196505b505050505050611119816e636f756e63696c6d6574616461746160881b8152600f0190565b634e487b7160e01b600052601260045260246000fd5b6000826119cd576119cd6119a8565b500490565b634e487b7160e01b600052604160045260246000fd5b6000828210156119fa576119fa61186f565b500390565b600082611a0e57611a0e6119a8565b500690565b60008219821115611a2657611a2661186f565b500190565b634e487b7160e01b600052603260045260246000fd5b604081526000611a54604083018561155e565b90508260208301529392505050565b604081526000611a76604083018561155e565b905060018060a01b0383166020830152939250505056fea2646970667358221220d912b07b84f891977d354a14e4f616fe85ea99b354b340bf9ae57053ad2b2f4a64736f6c634300080f0033608060405234801561001057600080fd5b506108f0806100206000396000f3fe608060405234801561001057600080fd5b50600436106100625760003560e01c80632e08d6021461006757806358161a421461008d578063b8616195146100b0578063cf06c7b7146100d0578063dd1d2599146100e3578063e27d5153146100f6575b600080fd5b61007a61007536600461072d565b610109565b6040519081526020015b60405180910390f35b6100a061009b36600461076a565b6101a9565b6040519015158152602001610084565b6100c36100be3660046107ba565b6101f3565b60405161008491906107ff565b61007a6100de366004610843565b610378565b61007a6100f136600461085c565b6104b5565b61007a610104366004610843565b6104e3565b6000600182511161016d5760405162461bcd60e51b815260206004820152602360248201527f776f6e27742067656e657261746520726f6f7420666f722073696e676c65206c60448201526232b0b360e91b60648201526084015b60405180910390fd5b600182511115610187576101808261050e565b915061016d565b8160008151811061019a5761019a61087e565b60200260200101519050919050565b81516000908290825b818110156101e7576101dd838783815181106101d0576101d061087e565b60200260200101516104b5565b92506001016101b2565b50509093149392505050565b606060018351116102525760405162461bcd60e51b8152602060048201526024808201527f776f6e27742067656e65726174652070726f6f6620666f722073696e676c65206044820152633632b0b360e11b6064820152608401610164565b600061025e8451610378565b67ffffffffffffffff8111156102765761027661067c565b60405190808252806020026020018201604052801561029f578160200160208202803683370190505b50905060005b60018551111561037057836001166001036102fa578460018503815181106102cf576102cf61087e565b60200260200101518282815181106102e9576102e961087e565b602002602001018181525050610357565b8451846001010361031b576000801b8282815181106102e9576102e961087e565b8484600101815181106103305761033061087e565b602002602001015182828151811061034a5761034a61087e565b6020026020010181815250505b6001016002840493506103698561050e565b94506102a5565b509392505050565b60006001821161038a57506000919050565b600082600160801b81106103ab57608093841c936103a89083610894565b91505b6801000000000000000084106103ce57604093841c936103cb9083610894565b91505b64010000000084106103ed57602093841c936103ea9083610894565b91505b62010000841061040a57601093841c936104079083610894565b91505b610100841061042657600893841c936104239083610894565b91505b6010841061044157600493841c9361043e9083610894565b91505b6004841061045c57600293841c936104599083610894565b91505b600284106104725761046f600183610894565b91505b60008161048181196001610894565b16905081811480156104935750600083115b156104a15750909392505050565b6104ac836001610894565b95945050505050565b600081831080156104cd5783600052826020526104d6565b82600052836020525b5050604060002092915050565b6000808219600101831683145b831561050657600193841c9391909101906104f0565b900392915050565b606080600083519050806001166001036105bd576002810460010167ffffffffffffffff8111156105415761054161067c565b60405190808252806020026020018201604052801561056a578160200160208202803683370190505b5091506105968460018303815181106105855761058561087e565b60200260200101516000801b6104b5565b826001845103815181106105ac576105ac61087e565b602002602001018181525050610606565b6002810467ffffffffffffffff8111156105d9576105d961067c565b604051908082528060200260200182016040528015610602578160200160208202803683370190505b5091505b6000805b600183038110156106725761064786828151811061062a5761062a61087e565b60200260200101518783600101815181106101d0576101d061087e565b8483815181106106595761065961087e565b602090810291909101015260019091019060020161060a565b5091949350505050565b634e487b7160e01b600052604160045260246000fd5b600082601f8301126106a357600080fd5b8135602067ffffffffffffffff808311156106c0576106c061067c565b8260051b604051601f19603f830116810181811084821117156106e5576106e561067c565b60405293845285810183019383810192508785111561070357600080fd5b83870191505b8482101561072257813583529183019190830190610709565b979650505050505050565b60006020828403121561073f57600080fd5b813567ffffffffffffffff81111561075657600080fd5b61076284828501610692565b949350505050565b60008060006060848603121561077f57600080fd5b83359250602084013567ffffffffffffffff81111561079d57600080fd5b6107a986828701610692565b925050604084013590509250925092565b600080604083850312156107cd57600080fd5b823567ffffffffffffffff8111156107e457600080fd5b6107f085828601610692565b95602094909401359450505050565b6020808252825182820181905260009190848201906040850190845b818110156108375783518352928401929184019160010161081b565b50909695505050505050565b60006020828403121561085557600080fd5b5035919050565b6000806040838503121561086f57600080fd5b50508035926020909101359150565b634e487b7160e01b600052603260045260246000fd5b600082198211156108b557634e487b7160e01b600052601160045260246000fd5b50019056fea264697066735822122068b474ede8b9e9d5080e311d56ec4aafb9f157dfc59699b4ca09accaa24c853664736f6c634300080f0033",
    "linkReferences": {}
  },
  "methodIdentifiers": {
    "MINT_PRICE()": "c002d23d",
    "TOTAL_SUPPLY()": "902d55a5",
    "allowlistMint(address,uint256,bytes32[])": "017c966a",
    "alreadyMinted(address)": "0a398b88",
    "approve(address,uint256)": "095ea7b3",
    "balanceOf(address)": "70a08231",
    "baseURI()": "6c0360eb",
    "currentTokenId()": "009a9b7b",
    "getApproved(uint256)": "081812fc",
    "isApprovedForAll(address,address)": "e985e9c5",
    "mint()": "1249c58b",
    "mintTo(address)": "755edd17",
    "name()": "06fdde03",
    "owner()": "8da5cb5b",
    "ownerOf(uint256)": "6352211e",
    "renounceOwnership()": "715018a6",
    "root()": "ebf0c717",
    "safeTransferFrom(address,address,uint256)": "42842e0e",
    "safeTransferFrom(address,address,uint256,bytes)": "b88d4fde",
    "setApprovalForAll(address,bool)": "a22cb465",
    "supportsInterface(bytes4)": "01ffc9a7",
    "symbol()": "95d89b41",
    "tokenURI(uint256)": "c87b56dd",
    "transferFrom(address,address,uint256)": "23b872dd",
    "transferOwnership(address)": "f2fde38b",
    "withdrawPayments(address)": "31b3eb94"
  },
  "id": 0
}