{
  "abi": [
    {
      "inputs": [
        {
          "internalType": "address",
          "name": "_zionTokenAddress",
          "type": "address"
        },
        {
          "internalType": "address",
          "name": "forwarder",
          "type": "address"
        }
      ],
      "stateMutability": "nonpayable",
      "type": "constructor"
    },
    {
      "inputs": [],
      "name": "claimTokens",
      "outputs": [],
      "stateMutability": "nonpayable",
      "type": "function"
    },
    {
      "inputs": [],
      "name": "claimUnrestrictedTokens",
      "outputs": [],
      "stateMutability": "nonpayable",
      "type": "function"
    },
    {
      "inputs": [],
      "name": "getZionTokenBalance",
      "outputs": [
        {
          "internalType": "uint256",
          "name": "",
          "type": "uint256"
        }
      ],
      "stateMutability": "view",
      "type": "function"
    },
    {
      "inputs": [
        {
          "internalType": "address",
          "name": "_address",
          "type": "address"
        }
      ],
      "name": "hasClaimed",
      "outputs": [
        {
          "internalType": "bool",
          "name": "",
          "type": "bool"
        }
      ],
      "stateMutability": "view",
      "type": "function"
    },
    {
      "inputs": [
        {
          "internalType": "address",
          "name": "_address",
          "type": "address"
        }
      ],
      "name": "isEligible",
      "outputs": [
        {
          "internalType": "bool",
          "name": "",
          "type": "bool"
        }
      ],
      "stateMutability": "view",
      "type": "function"
    },
    {
      "inputs": [
        {
          "internalType": "address",
          "name": "forwarder",
          "type": "address"
        }
      ],
      "name": "isTrustedForwarder",
      "outputs": [
        {
          "internalType": "bool",
          "name": "",
          "type": "bool"
        }
      ],
      "stateMutability": "view",
      "type": "function"
    },
    {
      "inputs": [],
      "name": "trustedForwarder",
      "outputs": [
        {
          "internalType": "address",
          "name": "",
          "type": "address"
        }
      ],
      "stateMutability": "view",
      "type": "function"
    },
    {
      "inputs": [],
      "name": "versionRecipient",
      "outputs": [
        {
          "internalType": "string",
          "name": "",
          "type": "string"
        }
      ],
      "stateMutability": "view",
      "type": "function"
    }
  ],
  "bytecode": {
    "object": "0x60c060405260056080818152640322e322e360dc1b60a05262000023908262000203565b503480156200003157600080fd5b5060405162000aff38038062000aff8339810160408190526200005491620002ec565b620000a06040518060400160405280601881526020017f4465706c6f79696e672074686520636c61696d20706f6f6c000000000000000081525083620000ec60201b620004d01760201c565b600080546001600160a01b0319166001600160a01b03831617905550600280546001600160a01b039092166001600160a01b03199283168117909155600380549092161790556200038d565b6200013982826040516024016200010592919062000324565b60408051601f198184030181529190526020810180516001600160e01b0390811663319af33360e01b179091526200013d16565b5050565b80516a636f6e736f6c652e6c6f67602083016000808483855afa5050505050565b634e487b7160e01b600052604160045260246000fd5b600181811c908216806200018957607f821691505b602082108103620001aa57634e487b7160e01b600052602260045260246000fd5b50919050565b601f821115620001fe57600081815260208120601f850160051c81016020861015620001d95750805b601f850160051c820191505b81811015620001fa57828155600101620001e5565b5050505b505050565b81516001600160401b038111156200021f576200021f6200015e565b620002378162000230845462000174565b84620001b0565b602080601f8311600181146200026f5760008415620002565750858301515b600019600386901b1c1916600185901b178555620001fa565b600085815260208120601f198616915b82811015620002a0578886015182559484019460019091019084016200027f565b5085821015620002bf5787850151600019600388901b60f8161c191681555b5050505050600190811b01905550565b80516001600160a01b0381168114620002e757600080fd5b919050565b600080604083850312156200030057600080fd5b6200030b83620002cf565b91506200031b60208401620002cf565b90509250929050565b604081526000835180604084015260005b8181101562000354576020818701810151606086840101520162000335565b8181111562000367576000606083860101525b506001600160a01b0393909316602083015250601f91909101601f191601606001919050565b610762806200039d6000396000f3fe608060405234801561001057600080fd5b50600436106100885760003560e01c806366e305fd1161005b57806366e305fd146100ef57806373b2e80e146101025780637da0a87714610115578063d66ef8ab1461013057600080fd5b80633007d01c1461008d578063486ff0cd1461009757806348c54b9d146100b5578063572b6c05146100bd575b600080fd5b61009561013f565b005b61009f6102a2565b6040516100ac9190610603565b60405180910390f35b610095610330565b6100df6100cb36600461061d565b6000546001600160a01b0391821691161490565b60405190151581526020016100ac565b6100df6100fd36600461061d565b610406565b6100df61011036600461061d565b610466565b6000546040516001600160a01b0390911681526020016100ac565b604051601181526020016100ac565b6101856040518060400160405280601c81526020017f436c61696d696e67205a494f4e20746f6b656e732066726f6d20257300000000815250610180610515565b6104d0565b600160046000610193610515565b6001600160a01b0316815260208101919091526040016000908120805460ff1916921515929092179091556101c6610515565b905060006101dd6005670de0b6b3a7640000610646565b60035460405163a9059cbb60e01b81526001600160a01b0385811660048301526024820184905292935091169063a9059cbb906044016020604051808303816000875af1158015610232573d6000803e3d6000fd5b505050506040513d601f19601f820116820180604052508101906102569190610673565b5061029e6040518060400160405280601e81526020017f436c61696d6564202573205a494f4e20746f6b656e732066726f6d202573000081525082610299610515565b610549565b5050565b600580546102af90610695565b80601f01602080910402602001604051908101604052809291908181526020018280546102db90610695565b80156103285780601f106102fd57610100808354040283529160200191610328565b820191906000526020600020905b81548152906001019060200180831161030b57829003601f168201915b505050505081565b6103716040518060400160405280601c81526020017f436c61696d696e67205a494f4e20746f6b656e732066726f6d20257300000000815250610180610515565b33158015906103a6575060046000610387610515565b6001600160a01b0316815260208101919091526040016000205460ff16155b15610404576001600460006103b9610515565b6001600160a01b0316815260208101919091526040016000908120805460ff1916921515929092179091556103ec610515565b905060006101dd6101f4670de0b6b3a7640000610646565b565b60006104476040518060400160405280601781526020017f436865636b696e6720656c69676962696c697479206f66000000000000000000815250836104d0565b6001600160a01b0382161561045e57506001919050565b506000919050565b60006104a76040518060400160405280601f81526020017f436865636b696e6720696620616464726573732068617320636c61696d656400815250836104d0565b6001600160a01b03821660009081526004602052604090205460ff161561045e57506001919050565b61029e82826040516024016104e69291906106cf565b60408051601f198184030181529190526020810180516001600160e01b031663319af33360e01b179052610595565b60006014361080159061053257506000546001600160a01b031633145b15610544575060131936013560601c90565b503390565b610590838383604051602401610561939291906106f9565b60408051601f198184030181529190526020810180516001600160e01b031663e3849f7960e01b179052610595565b505050565b80516a636f6e736f6c652e6c6f67602083016000808483855afa5050505050565b6000815180845260005b818110156105dc576020818501810151868301820152016105c0565b818111156105ee576000602083870101525b50601f01601f19169290920160200192915050565b60208152600061061660208301846105b6565b9392505050565b60006020828403121561062f57600080fd5b81356001600160a01b038116811461061657600080fd5b600081600019048311821515161561066e57634e487b7160e01b600052601160045260246000fd5b500290565b60006020828403121561068557600080fd5b8151801515811461061657600080fd5b600181811c908216806106a957607f821691505b6020821081036106c957634e487b7160e01b600052602260045260246000fd5b50919050565b6040815260006106e260408301856105b6565b905060018060a01b03831660208301529392505050565b60608152600061070c60608301866105b6565b6020830194909452506001600160a01b039190911660409091015291905056fea264697066735822122013b9ac97e994887202454f9e367d981adea79612e68ccc601d8126854bffb5ec64736f6c634300080f0033",
    "linkReferences": {}
  },
  "methodIdentifiers": {
    "claimTokens()": "48c54b9d",
    "claimUnrestrictedTokens()": "3007d01c",
    "getZionTokenBalance()": "d66ef8ab",
    "hasClaimed(address)": "73b2e80e",
    "isEligible(address)": "66e305fd",
    "isTrustedForwarder(address)": "572b6c05",
    "trustedForwarder()": "7da0a877",
    "versionRecipient()": "486ff0cd"
  },
  "id": 3
}