{"abi":[{"type":"function","name":"addRoleToChannel","inputs":[{"name":"channelId","type":"string","internalType":"string"},{"name":"roleId","type":"uint256","internalType":"uint256"}],"outputs":[],"stateMutability":"nonpayable"},{"type":"function","name":"createChannel","inputs":[{"name":"channelId","type":"string","internalType":"string"},{"name":"metadata","type":"string","internalType":"string"},{"name":"roleIds","type":"uint256[]","internalType":"uint256[]"}],"outputs":[],"stateMutability":"nonpayable"},{"type":"function","name":"getChannel","inputs":[{"name":"channelId","type":"string","internalType":"string"}],"outputs":[{"name":"channel","type":"tuple","internalType":"struct IChannelBase.Channel","components":[{"name":"id","type":"string","internalType":"string"},{"name":"disabled","type":"bool","internalType":"bool"},{"name":"metadata","type":"string","internalType":"string"},{"name":"roleIds","type":"uint256[]","internalType":"uint256[]"}]}],"stateMutability":"view"},{"type":"function","name":"getChannels","inputs":[],"outputs":[{"name":"channels","type":"tuple[]","internalType":"struct IChannelBase.Channel[]","components":[{"name":"id","type":"string","internalType":"string"},{"name":"disabled","type":"bool","internalType":"bool"},{"name":"metadata","type":"string","internalType":"string"},{"name":"roleIds","type":"uint256[]","internalType":"uint256[]"}]}],"stateMutability":"view"},{"type":"function","name":"removeChannel","inputs":[{"name":"channelId","type":"string","internalType":"string"}],"outputs":[],"stateMutability":"nonpayable"},{"type":"function","name":"removeRoleFromChannel","inputs":[{"name":"channelId","type":"string","internalType":"string"},{"name":"roleId","type":"uint256","internalType":"uint256"}],"outputs":[],"stateMutability":"nonpayable"},{"type":"function","name":"updateChannel","inputs":[{"name":"channelId","type":"string","internalType":"string"},{"name":"metadata","type":"string","internalType":"string"},{"name":"disabled","type":"bool","internalType":"bool"}],"outputs":[],"stateMutability":"nonpayable"},{"type":"event","name":"Initialized","inputs":[{"name":"version","type":"uint32","indexed":false,"internalType":"uint32"}],"anonymous":false},{"type":"event","name":"InterfaceAdded","inputs":[{"name":"interfaceId","type":"bytes4","indexed":true,"internalType":"bytes4"}],"anonymous":false},{"type":"event","name":"InterfaceRemoved","inputs":[{"name":"interfaceId","type":"bytes4","indexed":true,"internalType":"bytes4"}],"anonymous":false},{"type":"event","name":"OwnershipTransferred","inputs":[{"name":"previousOwner","type":"address","indexed":true,"internalType":"address"},{"name":"newOwner","type":"address","indexed":true,"internalType":"address"}],"anonymous":false},{"type":"event","name":"Paused","inputs":[{"name":"account","type":"address","indexed":false,"internalType":"address"}],"anonymous":false},{"type":"event","name":"Unpaused","inputs":[{"name":"account","type":"address","indexed":false,"internalType":"address"}],"anonymous":false},{"type":"error","name":"ChannelService__ChannelAlreadyExists","inputs":[]},{"type":"error","name":"ChannelService__ChannelDisabled","inputs":[]},{"type":"error","name":"ChannelService__ChannelDoesNotExist","inputs":[]},{"type":"error","name":"ChannelService__RoleAlreadyExists","inputs":[]},{"type":"error","name":"ChannelService__RoleDoesNotExist","inputs":[]},{"type":"error","name":"Entitlement__InvalidValue","inputs":[]},{"type":"error","name":"Entitlement__NotAllowed","inputs":[]},{"type":"error","name":"Entitlement__ValueAlreadyExists","inputs":[]},{"type":"error","name":"Initializable_InInitializingState","inputs":[]},{"type":"error","name":"Introspection_AlreadySupported","inputs":[]},{"type":"error","name":"Introspection_NotSupported","inputs":[]},{"type":"error","name":"Ownable__NotOwner","inputs":[{"name":"account","type":"address","internalType":"address"}]},{"type":"error","name":"Ownable__ZeroAddress","inputs":[]},{"type":"error","name":"Pausable__NotPaused","inputs":[]},{"type":"error","name":"Pausable__Paused","inputs":[]},{"type":"error","name":"Validator__InvalidStringLength","inputs":[]}],"bytecode":{"object":"0x608060405234801561001057600080fd5b5061001961001e565b6100c4565b7f2d0d21306acfe8e9bb163a4573e95aff6cef95dc1102c6a16d5f19eac08cc4de8054640100000000900460ff161561006a576040516366008a2d60e01b815260040160405180910390fd5b805463ffffffff90811610156100c157805463ffffffff191663ffffffff90811782556040519081527fe9c9b456cb2994b80aeef036cf59d26e9617df80f816a6ee5a5b4166e07e2f5c9060200160405180910390a15b50565b611d2a806100d36000396000f3fe608060405234801561001057600080fd5b506004361061007d5760003560e01c806351f83cea1161005b57806351f83cea146100bd5780637cd7ee3d146100d05780639575f6ac146100f95780639c02812e1461010e57600080fd5b806305b2cfbc1461008257806342bb09b214610097578063499061b5146100aa575b600080fd5b6100956100903660046116bf565b610121565b005b6100956100a53660046116f4565b61015f565b6100956100b83660046116f4565b6101d7565b6100956100cb36600461176c565b61024a565b6100e36100de3660046116bf565b610287565b6040516100f09190611931565b60405180910390f35b6101016102c3565b6040516100f09190611944565b61009561011c3660046119b4565b6102d2565b6101536040518060400160405280601181526020017041646452656d6f76654368616e6e656c7360781b81525061030f565b61015c81610345565b50565b6101c783838080601f0160208091040260200160405190810160405280939291908181526020018383808284376000920191909152505060408051808201909152601181527041646452656d6f76654368616e6e656c7360781b6020820152915061034e9050565b6101d2838383610379565b505050565b61023f83838080601f0160208091040260200160405190810160405280939291908181526020018383808284376000920191909152505060408051808201909152601181527041646452656d6f76654368616e6e656c7360781b6020820152915061034e9050565b6101d28383836103ba565b61027c6040518060400160405280601181526020017041646452656d6f76654368616e6e656c7360781b81525061030f565b6101d28383836103fb565b6102b460405180608001604052806060815260200160001515815260200160608152602001606081525090565b6102bd8261041c565b92915050565b60606102cd61048d565b905090565b6103046040518060400160405280601181526020017041646452656d6f76654368616e6e656c7360781b81525061030f565b6101d28383836105d5565b61032860405180602001604052806000815250826105eb565b61015c57604051630ce39a4b60e21b815260040160405180910390fd5b61015c8161066f565b61035882826105eb565b61037557604051630ce39a4b60e21b815260040160405180910390fd5b5050565b6101d283838080601f0160208091040260200160405190810160405280939291908181526020018383808284376000920191909152508592506107e6915050565b6101d283838080601f01602080910402602001604051908101604052809392919081815260200183838082843760009201919091525085925061089c915050565b610406826000610927565b610411836002610927565b6101d283838361094b565b61044960405180608001604052806060815260200160001515815260200160608152602001606081525090565b60008061045584610a8a565b9250925050600061046585610c48565b6040805160808101825296875292151560208701529185019290925260608401525090919050565b60606000610499610c9e565b90506000815167ffffffffffffffff8111156104b7576104b7611608565b60405190808252806020026020018201604052801561051557816020015b61050260405180608001604052806060815260200160001515815260200160608152602001606081525090565b8152602001906001900390816104d55790505b50905060005b82518110156105ce57600080600061054b86858151811061053e5761053e611a2c565b6020026020010151610a8a565b925092509250600061057587868151811061056857610568611a2c565b6020026020010151610c48565b905060405180608001604052808581526020018315158152602001848152602001828152508686815181106105ac576105ac611a2c565b60200260200101819052505050505080806105c690611a58565b91505061051b565b5092915050565b6105e0836002610927565b6101d2838383610cbe565b600033806105f7610d89565b6001600160a01b0316148061066757507ff421ea548af7158b1d71ba0aeccf57104c067038bd8fd214edd05c09eb4f735b5460ff16158015610667575061066784828560405160200161064a9190611a71565b60405160208183030381529060405261066290611a8d565b610e4d565b949350505050565b61067881610f76565b600080516020611d0a8339815191526106918183610fad565b506040518060200160405280600081525081600201836040516106b49190611a71565b908152602001604051809103902060020190816106d19190611b36565b50600081600201836040516106e69190611a71565b908152604051908190036020018120600101805492151560ff1990931692909217909155600282019061071a908490611a71565b908152604051908190036020019020600061073582826115ba565b60018201805460ff1916905561074f6002830160006115ba565b5050600061077b82600301846040516107689190611a71565b9081526020016040518091039020610fb9565b905060005b81518110156107e0576107cd82828151811061079e5761079e611a2c565b602002602001015184600301866040516107b89190611a71565b90815260405190819003602001902090610fc6565b50806107d881611a58565b915050610780565b50505050565b6107ef82610f76565b6107f882610fd2565b604051600080516020611d0a833981519152906108539083907fb688ec8e4241d4a907fd7254e1a20e7a6d28a9043ed3eac37de6f05135b33b3d9061083e908790611a71565b90815260405190819003602001902090611046565b15610871576040516302369ff360e41b815260040160405180910390fd5b6107e08282600301856040516108879190611a71565b9081526040519081900360200190209061105e565b6108a582610f76565b6108ae82610fd2565b604051600080516020611d0a833981519152906108f49083907fb688ec8e4241d4a907fd7254e1a20e7a6d28a9043ed3eac37de6f05135b33b3d9061083e908790611a71565b610911576040516333cb039f60e11b815260040160405180910390fd5b6107e08282600301856040516107b89190611a71565b815182908211156101d2576040516374eb20a760e01b815260040160405180910390fd5b6109548361106a565b600080516020611d0a83398151915261096d81856110a0565b5060408051606081018252858152600060208201528082018590529051600283019061099a908790611a71565b908152604051908190036020019020815181906109b79082611b36565b50602082015160018201805460ff1916911515919091179055604082015160028201906109e49082611b36565b5090505060005b8251811015610a8357610a23838281518110610a0957610a09611a2c565b6020026020010151836003018760405161083e9190611a71565b15610a41576040516302369ff360e41b815260040160405180910390fd5b610a70838281518110610a5657610a56611a2c565b602002602001015183600301876040516108879190611a71565b5080610a7b81611a58565b9150506109eb565b5050505050565b6060806000610a9884610f76565b604051600080516020611d0a833981519152906000907fb688ec8e4241d4a907fd7254e1a20e7a6d28a9043ed3eac37de6f05135b33b3c90610adb908890611a71565b9081526020016040518091039020604051806060016040529081600082018054610b0490611ab4565b80601f0160208091040260200160405190810160405280929190818152602001828054610b3090611ab4565b8015610b7d5780601f10610b5257610100808354040283529160200191610b7d565b820191906000526020600020905b815481529060010190602001808311610b6057829003601f168201915b5050509183525050600182015460ff1615156020820152600282018054604090920191610ba990611ab4565b80601f0160208091040260200160405190810160405280929190818152602001828054610bd590611ab4565b8015610c225780601f10610bf757610100808354040283529160200191610c22565b820191906000526020600020905b815481529060010190602001808311610c0557829003601f168201915b505050919092525050815160408301516020909301519099929850965090945050505050565b6060610c5382610f76565b604051600080516020611d0a83398151915290610c97907fb688ec8e4241d4a907fd7254e1a20e7a6d28a9043ed3eac37de6f05135b33b3d90610768908690611a71565b9392505050565b6060600080516020611d0a833981519152610cb8816110ac565b91505090565b610cc783610f76565b604051600080516020611d0a833981519152906000907fb688ec8e4241d4a907fd7254e1a20e7a6d28a9043ed3eac37de6f05135b33b3c90610d0a908790611a71565b9081526020016040518091039020905060008451118015610d4a575080600201604051610d379190611bf6565b6040518091039020848051906020012014155b15610d5f5760028101610d5d8582611b36565b505b600181015460ff16151583151514610a8357600101805460ff191692151592909217909155505050565b6040805180820182527f9bd0e1a7aef81c47cff971a2fee48406b20f55522326b2e2616c49c24aa506d0546001600160a01b03168082527f9bd0e1a7aef81c47cff971a2fee48406b20f55522326b2e2616c49c24aa506d154602080840182905284516331a9108f60e11b815260048101929092529351600094636352211e92602480820193918290030181865afa158015610e29573d6000803e3d6000fd5b505050506040513d601f19601f82011682018060405250810190610cb89190611c6c565b6000610e57610d89565b6001600160a01b0316836001600160a01b031603610e7757506001610c97565b7f2df4f8e2489b335ef09ede56990b0838afbcdea6c639a41af44b533474fb85586000610ec37f2df4f8e2489b335ef09ede56990b0838afbcdea6c639a41af44b533474fb85596110b7565b905060005b81811015610f6c57610edd60018401826110c1565b6001600160a01b031662b4eaa88888886040518463ffffffff1660e01b8152600401610f0b93929190611c95565b602060405180830381865afa158015610f28573d6000803e3d6000fd5b505050506040513d601f19601f82011682018060405250810190610f4c9190611cc3565b15610f5a5760019350610f6c565b80610f6481611a58565b915050610ec8565b5050509392505050565b610f9081600080516020611d0a8339815191525b906110cd565b61015c5760405163560b4b4160e11b815260040160405180910390fd5b6000610c9783836110d9565b60606000610c9783611298565b6000610c9783836112f4565b604051600080516020611d0a833981519152907fb688ec8e4241d4a907fd7254e1a20e7a6d28a9043ed3eac37de6f05135b33b3c90611012908490611a71565b9081526040519081900360200190206001015460ff161561037557604051636ce0028960e11b815260040160405180910390fd5b60008181526001830160205260408120541515610c97565b6000610c9783836113dd565b61108281600080516020611d0a833981519152610f8a565b1561015c57604051632324f7d960e21b815260040160405180910390fd5b6000610c97838361142c565b60606102bd82611486565b60006102bd825490565b6000610c978383611563565b6000610c97838361158d565b60008083600101836040516110ee9190611a71565b90815260200160405180910390205490508060001461128e576000611114600183611ce0565b855490915060009061112890600190611ce0565b905081811461122f57600086600001828154811061114857611148611a2c565b90600052602060002001805461115d90611ab4565b80601f016020809104026020016040519081016040528092919081815260200182805461118990611ab4565b80156111d65780601f106111ab576101008083540402835291602001916111d6565b820191906000526020600020905b8154815290600101906020018083116111b957829003601f168201915b50505050509050808760000184815481106111f3576111f3611a2c565b9060005260206000200190816112099190611b36565b5083876001018260405161121d9190611a71565b90815260405190819003602001902055505b855486908061124057611240611cf3565b60019003818190600052602060002001600061125c91906115ba565b905585600101856040516112709190611a71565b908152602001604051809103902060009055600193505050506102bd565b60009150506102bd565b6060816000018054806020026020016040519081016040528092919081815260200182805480156112e857602002820191906000526020600020905b8154815260200190600101908083116112d4575b50505050509050919050565b6000818152600183016020526040812054801561128e576000611318600183611ce0565b855490915060009061132c90600190611ce0565b905081811461139157600086600001828154811061134c5761134c611a2c565b906000526020600020015490508087600001848154811061136f5761136f611a2c565b6000918252602080832090910192909255918252600188019052604090208390555b85548690806113a2576113a2611cf3565b6001900381819060005260206000200160009055905585600101600086815260200190815260200160002060009055600193505050506102bd565b6000818152600183016020526040812054611424575081546001818101845560008481526020808220909301849055845484825282860190935260409020919091556102bd565b5060006102bd565b6000611438838361158d565b611424578254600181018455600084815260209020016114588382611b36565b508254604051600185019061146e908590611a71565b908152604051908190036020019020555060016102bd565b606081600001805480602002602001604051908101604052809291908181526020016000905b828210156115585783829060005260206000200180546114cb90611ab4565b80601f01602080910402602001604051908101604052809291908181526020018280546114f790611ab4565b80156115445780601f1061151957610100808354040283529160200191611544565b820191906000526020600020905b81548152906001019060200180831161152757829003601f168201915b5050505050815260200190600101906114ac565b505050509050919050565b600082600001828154811061157a5761157a611a2c565b9060005260206000200154905092915050565b600082600101826040516115a19190611a71565b9081526040519081900360200190205415159392505050565b5080546115c690611ab4565b6000825580601f106115d6575050565b601f01602090049060005260206000209081019061015c91905b8082111561160457600081556001016115f0565b5090565b634e487b7160e01b600052604160045260246000fd5b604051601f8201601f1916810167ffffffffffffffff8111828210171561164757611647611608565b604052919050565b600082601f83011261166057600080fd5b813567ffffffffffffffff81111561167a5761167a611608565b61168d601f8201601f191660200161161e565b8181528460208386010111156116a257600080fd5b816020850160208301376000918101602001919091529392505050565b6000602082840312156116d157600080fd5b813567ffffffffffffffff8111156116e857600080fd5b6106678482850161164f565b60008060006040848603121561170957600080fd5b833567ffffffffffffffff8082111561172157600080fd5b818601915086601f83011261173557600080fd5b81358181111561174457600080fd5b87602082850101111561175657600080fd5b6020928301989097509590910135949350505050565b60008060006060848603121561178157600080fd5b833567ffffffffffffffff8082111561179957600080fd5b6117a58783880161164f565b94506020915081860135818111156117bc57600080fd5b6117c88882890161164f565b9450506040860135818111156117dd57600080fd5b8601601f810188136117ee57600080fd5b80358281111561180057611800611608565b8060051b925061181184840161161e565b818152928201840192848101908a85111561182b57600080fd5b928501925b8484101561184957833582529285019290850190611830565b8096505050505050509250925092565b60005b8381101561187457818101518382015260200161185c565b50506000910152565b60008151808452611895816020860160208601611859565b601f01601f19169290920160200192915050565b60008151608084526118be608085018261187d565b9050602080840151151581860152604084015185830360408701526118e3838261187d565b606086810151888303918901919091528051808352908401945060009250908301905b808310156119265784518252938301936001929092019190830190611906565b509695505050505050565b602081526000610c9760208301846118a9565b6000602080830181845280855180835260408601915060408160051b870101925083870160005b8281101561199957603f198886030184526119878583516118a9565b9450928501929085019060010161196b565b5092979650505050505050565b801515811461015c57600080fd5b6000806000606084860312156119c957600080fd5b833567ffffffffffffffff808211156119e157600080fd5b6119ed8783880161164f565b94506020860135915080821115611a0357600080fd5b50611a108682870161164f565b9250506040840135611a21816119a6565b809150509250925092565b634e487b7160e01b600052603260045260246000fd5b634e487b7160e01b600052601160045260246000fd5b600060018201611a6a57611a6a611a42565b5060010190565b60008251611a83818460208701611859565b9190910192915050565b80516020808301519190811015611aae576000198160200360031b1b821691505b50919050565b600181811c90821680611ac857607f821691505b602082108103611aae57634e487b7160e01b600052602260045260246000fd5b601f8211156101d257600081815260208120601f850160051c81016020861015611b0f5750805b601f850160051c820191505b81811015611b2e57828155600101611b1b565b505050505050565b815167ffffffffffffffff811115611b5057611b50611608565b611b6481611b5e8454611ab4565b84611ae8565b602080601f831160018114611b995760008415611b815750858301515b600019600386901b1c1916600185901b178555611b2e565b600085815260208120601f198616915b82811015611bc857888601518255948401946001909101908401611ba9565b5085821015611be65787850151600019600388901b60f8161c191681555b5050505050600190811b01905550565b6000808354611c0481611ab4565b60018281168015611c1c5760018114611c3157611c60565b60ff1984168752821515830287019450611c60565b8760005260208060002060005b85811015611c575781548a820152908401908201611c3e565b50505082870194505b50929695505050505050565b600060208284031215611c7e57600080fd5b81516001600160a01b0381168114610c9757600080fd5b606081526000611ca8606083018661187d565b6001600160a01b039490941660208301525060400152919050565b600060208284031215611cd557600080fd5b8151610c97816119a6565b818103818111156102bd576102bd611a42565b634e487b7160e01b600052603160045260246000fdfeb688ec8e4241d4a907fd7254e1a20e7a6d28a9043ed3eac37de6f05135b33b3a","linkReferences":{}},"methodIdentifiers":{"addRoleToChannel(string,uint256)":"42bb09b2","createChannel(string,string,uint256[])":"51f83cea","getChannel(string)":"7cd7ee3d","getChannels()":"9575f6ac","removeChannel(string)":"05b2cfbc","removeRoleFromChannel(string,uint256)":"499061b5","updateChannel(string,string,bool)":"9c02812e"},"id":156}