{
  "abi": [
    {
      "inputs": [],
      "name": "ChannelService__ChannelAlreadyExists",
      "type": "error"
    },
    {
      "inputs": [],
      "name": "ChannelService__ChannelDisabled",
      "type": "error"
    },
    {
      "inputs": [],
      "name": "ChannelService__ChannelDoesNotExist",
      "type": "error"
    },
    {
      "inputs": [],
      "name": "ChannelService__RoleAlreadyExists",
      "type": "error"
    },
    {
      "inputs": [],
      "name": "ChannelService__RoleDoesNotExist",
      "type": "error"
    },
    {
      "inputs": [],
      "name": "Entitlement__InvalidValue",
      "type": "error"
    },
    {
      "inputs": [],
      "name": "Entitlement__NotAllowed",
      "type": "error"
    },
    {
      "inputs": [],
      "name": "Entitlement__ValueAlreadyExists",
      "type": "error"
    },
    {
      "inputs": [],
      "name": "Initializable_InInitializingState",
      "type": "error"
    },
    {
      "inputs": [],
      "name": "Introspection_AlreadySupported",
      "type": "error"
    },
    {
      "inputs": [],
      "name": "Introspection_NotSupported",
      "type": "error"
    },
    {
      "inputs": [
        {
          "internalType": "address",
          "name": "account",
          "type": "address"
        }
      ],
      "name": "Ownable__NotOwner",
      "type": "error"
    },
    {
      "inputs": [],
      "name": "Ownable__ZeroAddress",
      "type": "error"
    },
    {
      "inputs": [],
      "name": "Pausable__NotPaused",
      "type": "error"
    },
    {
      "inputs": [],
      "name": "Pausable__Paused",
      "type": "error"
    },
    {
      "inputs": [],
      "name": "Validator__InvalidStringLength",
      "type": "error"
    },
    {
      "anonymous": false,
      "inputs": [
        {
          "indexed": false,
          "internalType": "uint32",
          "name": "version",
          "type": "uint32"
        }
      ],
      "name": "Initialized",
      "type": "event"
    },
    {
      "anonymous": false,
      "inputs": [
        {
          "indexed": true,
          "internalType": "bytes4",
          "name": "interfaceId",
          "type": "bytes4"
        }
      ],
      "name": "InterfaceAdded",
      "type": "event"
    },
    {
      "anonymous": false,
      "inputs": [
        {
          "indexed": true,
          "internalType": "bytes4",
          "name": "interfaceId",
          "type": "bytes4"
        }
      ],
      "name": "InterfaceRemoved",
      "type": "event"
    },
    {
      "anonymous": false,
      "inputs": [
        {
          "indexed": true,
          "internalType": "address",
          "name": "previousOwner",
          "type": "address"
        },
        {
          "indexed": true,
          "internalType": "address",
          "name": "newOwner",
          "type": "address"
        }
      ],
      "name": "OwnershipTransferred",
      "type": "event"
    },
    {
      "anonymous": false,
      "inputs": [
        {
          "indexed": false,
          "internalType": "address",
          "name": "account",
          "type": "address"
        }
      ],
      "name": "Paused",
      "type": "event"
    },
    {
      "anonymous": false,
      "inputs": [
        {
          "indexed": false,
          "internalType": "address",
          "name": "account",
          "type": "address"
        }
      ],
      "name": "Unpaused",
      "type": "event"
    },
    {
      "inputs": [
        {
          "internalType": "string",
          "name": "channelId",
          "type": "string"
        },
        {
          "internalType": "uint256",
          "name": "roleId",
          "type": "uint256"
        }
      ],
      "name": "addRoleToChannel",
      "outputs": [],
      "stateMutability": "nonpayable",
      "type": "function"
    },
    {
      "inputs": [
        {
          "internalType": "string",
          "name": "channelId",
          "type": "string"
        },
        {
          "internalType": "string",
          "name": "metadata",
          "type": "string"
        },
        {
          "internalType": "uint256[]",
          "name": "roleIds",
          "type": "uint256[]"
        }
      ],
      "name": "createChannel",
      "outputs": [],
      "stateMutability": "nonpayable",
      "type": "function"
    },
    {
      "inputs": [
        {
          "internalType": "string",
          "name": "channelId",
          "type": "string"
        }
      ],
      "name": "getChannel",
      "outputs": [
        {
          "components": [
            {
              "internalType": "string",
              "name": "id",
              "type": "string"
            },
            {
              "internalType": "bool",
              "name": "disabled",
              "type": "bool"
            },
            {
              "internalType": "string",
              "name": "metadata",
              "type": "string"
            },
            {
              "internalType": "uint256[]",
              "name": "roleIds",
              "type": "uint256[]"
            }
          ],
          "internalType": "struct IChannelBase.Channel",
          "name": "channel",
          "type": "tuple"
        }
      ],
      "stateMutability": "view",
      "type": "function"
    },
    {
      "inputs": [],
      "name": "getChannels",
      "outputs": [
        {
          "components": [
            {
              "internalType": "string",
              "name": "id",
              "type": "string"
            },
            {
              "internalType": "bool",
              "name": "disabled",
              "type": "bool"
            },
            {
              "internalType": "string",
              "name": "metadata",
              "type": "string"
            },
            {
              "internalType": "uint256[]",
              "name": "roleIds",
              "type": "uint256[]"
            }
          ],
          "internalType": "struct IChannelBase.Channel[]",
          "name": "channels",
          "type": "tuple[]"
        }
      ],
      "stateMutability": "view",
      "type": "function"
    },
    {
      "inputs": [
        {
          "internalType": "string",
          "name": "channelId",
          "type": "string"
        }
      ],
      "name": "removeChannel",
      "outputs": [],
      "stateMutability": "nonpayable",
      "type": "function"
    },
    {
      "inputs": [
        {
          "internalType": "string",
          "name": "channelId",
          "type": "string"
        },
        {
          "internalType": "uint256",
          "name": "roleId",
          "type": "uint256"
        }
      ],
      "name": "removeRoleFromChannel",
      "outputs": [],
      "stateMutability": "nonpayable",
      "type": "function"
    },
    {
      "inputs": [
        {
          "internalType": "string",
          "name": "channelId",
          "type": "string"
        },
        {
          "internalType": "string",
          "name": "metadata",
          "type": "string"
        },
        {
          "internalType": "bool",
          "name": "disabled",
          "type": "bool"
        }
      ],
      "name": "updateChannel",
      "outputs": [],
      "stateMutability": "nonpayable",
      "type": "function"
    }
  ],
  "bytecode": {
    "object": "0x608060405234801561001057600080fd5b5061001961001e565b6100c4565b7feed92ff1d97f833a6121465a3ac08360f4c7c88d55a5e6a9b0e08466a018167d8054640100000000900460ff161561006a576040516366008a2d60e01b815260040160405180910390fd5b805463ffffffff90811610156100c157805463ffffffff191663ffffffff90811782556040519081527fe9c9b456cb2994b80aeef036cf59d26e9617df80f816a6ee5a5b4166e07e2f5c9060200160405180910390a15b50565b611d29806100d36000396000f3fe608060405234801561001057600080fd5b506004361061007d5760003560e01c806351f83cea1161005b57806351f83cea146100bd5780637cd7ee3d146100d05780639575f6ac146100f95780639c02812e1461010e57600080fd5b806305b2cfbc1461008257806342bb09b214610097578063499061b5146100aa575b600080fd5b6100956100903660046116b6565b610121565b005b6100956100a53660046116f3565b61015f565b6100956100b83660046116f3565b6101d7565b6100956100cb36600461176b565b61024a565b6100e36100de3660046116b6565b610287565b6040516100f09190611930565b60405180910390f35b6101016102c3565b6040516100f09190611943565b61009561011c3660046119b3565b6102d2565b6101536040518060400160405280601181526020017041646452656d6f76654368616e6e656c7360781b81525061030f565b61015c81610345565b50565b6101c783838080601f0160208091040260200160405190810160405280939291908181526020018383808284376000920191909152505060408051808201909152601181527041646452656d6f76654368616e6e656c7360781b6020820152915061034e9050565b6101d2838383610379565b505050565b61023f83838080601f0160208091040260200160405190810160405280939291908181526020018383808284376000920191909152505060408051808201909152601181527041646452656d6f76654368616e6e656c7360781b6020820152915061034e9050565b6101d28383836103ba565b61027c6040518060400160405280601181526020017041646452656d6f76654368616e6e656c7360781b81525061030f565b6101d28383836103fb565b6102b460405180608001604052806060815260200160001515815260200160608152602001606081525090565b6102bd8261041c565b92915050565b60606102cd61048d565b905090565b6103046040518060400160405280601181526020017041646452656d6f76654368616e6e656c7360781b81525061030f565b6101d28383836105d5565b61032860405180602001604052806000815250826105eb565b61015c57604051630ce39a4b60e21b815260040160405180910390fd5b61015c8161066d565b61035882826105eb565b61037557604051630ce39a4b60e21b815260040160405180910390fd5b5050565b6101d283838080601f0160208091040260200160405190810160405280939291908181526020018383808284376000920191909152508592506107e4915050565b6101d283838080601f01602080910402602001604051908101604052809392919081815260200183838082843760009201919091525085925061089a915050565b610406826000610925565b610411836002610925565b6101d2838383610949565b61044960405180608001604052806060815260200160001515815260200160608152602001606081525090565b60008061045584610a88565b9250925050600061046585610c46565b6040805160808101825296875292151560208701529185019290925260608401525090919050565b60606000610499610c95565b90506000815167ffffffffffffffff8111156104b7576104b76115ff565b60405190808252806020026020018201604052801561051557816020015b61050260405180608001604052806060815260200160001515815260200160608152602001606081525090565b8152602001906001900390816104d55790505b50905060005b82518110156105ce57600080600061054b86858151811061053e5761053e611a2b565b6020026020010151610a88565b925092509250600061057587868151811061056857610568611a2b565b6020026020010151610c46565b905060405180608001604052808581526020018315158152602001848152602001828152508686815181106105ac576105ac611a2b565b60200260200101819052505050505080806105c690611a57565b91505061051b565b5092915050565b6105e0836002610925565b6101d2838383610cb5565b6000336105f6610d80565b6001600160a01b0316148061066657507f2a273e5ed51fc6d1f408fd9427b72fcf1a8cb7ffc748ab4d54f3b8247736a2015460ff1615801561066657506106668333846040516020016106499190611a70565b60405160208183030381529060405261066190611a8c565b610e44565b9392505050565b61067681610f6d565b600080516020611d0983398151915261068f8183610fa4565b506040518060200160405280600081525081600201836040516106b29190611a70565b908152602001604051809103902060020190816106cf9190611b35565b50600081600201836040516106e49190611a70565b908152604051908190036020018120600101805492151560ff19909316929092179091556002820190610718908490611a70565b908152604051908190036020019020600061073382826115b1565b60018201805460ff1916905561074d6002830160006115b1565b5050600061077982600301846040516107669190611a70565b9081526020016040518091039020610fb0565b905060005b81518110156107de576107cb82828151811061079c5761079c611a2b565b602002602001015184600301866040516107b69190611a70565b90815260405190819003602001902090610fbd565b50806107d681611a57565b91505061077e565b50505050565b6107ed82610f6d565b6107f682610fc9565b604051600080516020611d09833981519152906108519083907fb688ec8e4241d4a907fd7254e1a20e7a6d28a9043ed3eac37de6f05135b33b3d9061083c908790611a70565b9081526040519081900360200190209061103d565b1561086f576040516302369ff360e41b815260040160405180910390fd5b6107de8282600301856040516108859190611a70565b90815260405190819003602001902090611055565b6108a382610f6d565b6108ac82610fc9565b604051600080516020611d09833981519152906108f29083907fb688ec8e4241d4a907fd7254e1a20e7a6d28a9043ed3eac37de6f05135b33b3d9061083c908790611a70565b61090f576040516333cb039f60e11b815260040160405180910390fd5b6107de8282600301856040516107b69190611a70565b815182908211156101d2576040516374eb20a760e01b815260040160405180910390fd5b61095283611061565b600080516020611d0983398151915261096b8185611097565b50604080516060810182528581526000602082015280820185905290516002830190610998908790611a70565b908152604051908190036020019020815181906109b59082611b35565b50602082015160018201805460ff1916911515919091179055604082015160028201906109e29082611b35565b5090505060005b8251811015610a8157610a21838281518110610a0757610a07611a2b565b6020026020010151836003018760405161083c9190611a70565b15610a3f576040516302369ff360e41b815260040160405180910390fd5b610a6e838281518110610a5457610a54611a2b565b602002602001015183600301876040516108859190611a70565b5080610a7981611a57565b9150506109e9565b5050505050565b6060806000610a9684610f6d565b604051600080516020611d09833981519152906000907fb688ec8e4241d4a907fd7254e1a20e7a6d28a9043ed3eac37de6f05135b33b3c90610ad9908890611a70565b9081526020016040518091039020604051806060016040529081600082018054610b0290611ab3565b80601f0160208091040260200160405190810160405280929190818152602001828054610b2e90611ab3565b8015610b7b5780601f10610b5057610100808354040283529160200191610b7b565b820191906000526020600020905b815481529060010190602001808311610b5e57829003601f168201915b5050509183525050600182015460ff1615156020820152600282018054604090920191610ba790611ab3565b80601f0160208091040260200160405190810160405280929190818152602001828054610bd390611ab3565b8015610c205780601f10610bf557610100808354040283529160200191610c20565b820191906000526020600020905b815481529060010190602001808311610c0357829003601f168201915b505050919092525050815160408301516020909301519099929850965090945050505050565b6060610c5182610f6d565b604051600080516020611d0983398151915290610666907fb688ec8e4241d4a907fd7254e1a20e7a6d28a9043ed3eac37de6f05135b33b3d90610766908690611a70565b6060600080516020611d09833981519152610caf816110a3565b91505090565b610cbe83610f6d565b604051600080516020611d09833981519152906000907fb688ec8e4241d4a907fd7254e1a20e7a6d28a9043ed3eac37de6f05135b33b3c90610d01908790611a70565b9081526020016040518091039020905060008451118015610d41575080600201604051610d2e9190611bf5565b6040518091039020848051906020012014155b15610d565760028101610d548582611b35565b505b600181015460ff16151583151514610a8157600101805460ff191692151592909217909155505050565b6040805180820182527fdbd5af3db28136204db6a4cff1462f270d2d08a00327c8f96c7d68d8c530903f546001600160a01b03168082527fdbd5af3db28136204db6a4cff1462f270d2d08a00327c8f96c7d68d8c530904054602080840182905284516331a9108f60e11b815260048101929092529351600094636352211e92602480820193918290030181865afa158015610e20573d6000803e3d6000fd5b505050506040513d601f19601f82011682018060405250810190610caf9190611c6b565b6000610e4e610d80565b6001600160a01b0316836001600160a01b031603610e6e57506001610666565b7f2df4f8e2489b335ef09ede56990b0838afbcdea6c639a41af44b533474fb85586000610eba7f2df4f8e2489b335ef09ede56990b0838afbcdea6c639a41af44b533474fb85596110ae565b905060005b81811015610f6357610ed460018401826110b8565b6001600160a01b031662b4eaa88888886040518463ffffffff1660e01b8152600401610f0293929190611c94565b602060405180830381865afa158015610f1f573d6000803e3d6000fd5b505050506040513d601f19601f82011682018060405250810190610f439190611cc2565b15610f515760019350610f63565b80610f5b81611a57565b915050610ebf565b5050509392505050565b610f8781600080516020611d098339815191525b906110c4565b61015c5760405163560b4b4160e11b815260040160405180910390fd5b600061066683836110d0565b606060006106668361128f565b600061066683836112eb565b604051600080516020611d09833981519152907fb688ec8e4241d4a907fd7254e1a20e7a6d28a9043ed3eac37de6f05135b33b3c90611009908490611a70565b9081526040519081900360200190206001015460ff161561037557604051636ce0028960e11b815260040160405180910390fd5b60008181526001830160205260408120541515610666565b600061066683836113d4565b61107981600080516020611d09833981519152610f81565b1561015c57604051632324f7d960e21b815260040160405180910390fd5b60006106668383611423565b60606102bd8261147d565b60006102bd825490565b6000610666838361155a565b60006106668383611584565b60008083600101836040516110e59190611a70565b90815260200160405180910390205490508060001461128557600061110b600183611cdf565b855490915060009061111f90600190611cdf565b905081811461122657600086600001828154811061113f5761113f611a2b565b90600052602060002001805461115490611ab3565b80601f016020809104026020016040519081016040528092919081815260200182805461118090611ab3565b80156111cd5780601f106111a2576101008083540402835291602001916111cd565b820191906000526020600020905b8154815290600101906020018083116111b057829003601f168201915b50505050509050808760000184815481106111ea576111ea611a2b565b9060005260206000200190816112009190611b35565b508387600101826040516112149190611a70565b90815260405190819003602001902055505b855486908061123757611237611cf2565b60019003818190600052602060002001600061125391906115b1565b905585600101856040516112679190611a70565b908152602001604051809103902060009055600193505050506102bd565b60009150506102bd565b6060816000018054806020026020016040519081016040528092919081815260200182805480156112df57602002820191906000526020600020905b8154815260200190600101908083116112cb575b50505050509050919050565b6000818152600183016020526040812054801561128557600061130f600183611cdf565b855490915060009061132390600190611cdf565b905081811461138857600086600001828154811061134357611343611a2b565b906000526020600020015490508087600001848154811061136657611366611a2b565b6000918252602080832090910192909255918252600188019052604090208390555b855486908061139957611399611cf2565b6001900381819060005260206000200160009055905585600101600086815260200190815260200160002060009055600193505050506102bd565b600081815260018301602052604081205461141b575081546001818101845560008481526020808220909301849055845484825282860190935260409020919091556102bd565b5060006102bd565b600061142f8383611584565b61141b5782546001810184556000848152602090200161144f8382611b35565b5082546040516001850190611465908590611a70565b908152604051908190036020019020555060016102bd565b606081600001805480602002602001604051908101604052809291908181526020016000905b8282101561154f5783829060005260206000200180546114c290611ab3565b80601f01602080910402602001604051908101604052809291908181526020018280546114ee90611ab3565b801561153b5780601f106115105761010080835404028352916020019161153b565b820191906000526020600020905b81548152906001019060200180831161151e57829003601f168201915b5050505050815260200190600101906114a3565b505050509050919050565b600082600001828154811061157157611571611a2b565b9060005260206000200154905092915050565b600082600101826040516115989190611a70565b9081526040519081900360200190205415159392505050565b5080546115bd90611ab3565b6000825580601f106115cd575050565b601f01602090049060005260206000209081019061015c91905b808211156115fb57600081556001016115e7565b5090565b634e487b7160e01b600052604160045260246000fd5b604051601f8201601f1916810167ffffffffffffffff8111828210171561163e5761163e6115ff565b604052919050565b600082601f83011261165757600080fd5b813567ffffffffffffffff811115611671576116716115ff565b611684601f8201601f1916602001611615565b81815284602083860101111561169957600080fd5b816020850160208301376000918101602001919091529392505050565b6000602082840312156116c857600080fd5b813567ffffffffffffffff8111156116df57600080fd5b6116eb84828501611646565b949350505050565b60008060006040848603121561170857600080fd5b833567ffffffffffffffff8082111561172057600080fd5b818601915086601f83011261173457600080fd5b81358181111561174357600080fd5b87602082850101111561175557600080fd5b6020928301989097509590910135949350505050565b60008060006060848603121561178057600080fd5b833567ffffffffffffffff8082111561179857600080fd5b6117a487838801611646565b94506020915081860135818111156117bb57600080fd5b6117c788828901611646565b9450506040860135818111156117dc57600080fd5b8601601f810188136117ed57600080fd5b8035828111156117ff576117ff6115ff565b8060051b9250611810848401611615565b818152928201840192848101908a85111561182a57600080fd5b928501925b848410156118485783358252928501929085019061182f565b8096505050505050509250925092565b60005b8381101561187357818101518382015260200161185b565b50506000910152565b60008151808452611894816020860160208601611858565b601f01601f19169290920160200192915050565b60008151608084526118bd608085018261187c565b9050602080840151151581860152604084015185830360408701526118e2838261187c565b606086810151888303918901919091528051808352908401945060009250908301905b808310156119255784518252938301936001929092019190830190611905565b509695505050505050565b60208152600061066660208301846118a8565b6000602080830181845280855180835260408601915060408160051b870101925083870160005b8281101561199857603f198886030184526119868583516118a8565b9450928501929085019060010161196a565b5092979650505050505050565b801515811461015c57600080fd5b6000806000606084860312156119c857600080fd5b833567ffffffffffffffff808211156119e057600080fd5b6119ec87838801611646565b94506020860135915080821115611a0257600080fd5b50611a0f86828701611646565b9250506040840135611a20816119a5565b809150509250925092565b634e487b7160e01b600052603260045260246000fd5b634e487b7160e01b600052601160045260246000fd5b600060018201611a6957611a69611a41565b5060010190565b60008251611a82818460208701611858565b9190910192915050565b80516020808301519190811015611aad576000198160200360031b1b821691505b50919050565b600181811c90821680611ac757607f821691505b602082108103611aad57634e487b7160e01b600052602260045260246000fd5b601f8211156101d257600081815260208120601f850160051c81016020861015611b0e5750805b601f850160051c820191505b81811015611b2d57828155600101611b1a565b505050505050565b815167ffffffffffffffff811115611b4f57611b4f6115ff565b611b6381611b5d8454611ab3565b84611ae7565b602080601f831160018114611b985760008415611b805750858301515b600019600386901b1c1916600185901b178555611b2d565b600085815260208120601f198616915b82811015611bc757888601518255948401946001909101908401611ba8565b5085821015611be55787850151600019600388901b60f8161c191681555b5050505050600190811b01905550565b6000808354611c0381611ab3565b60018281168015611c1b5760018114611c3057611c5f565b60ff1984168752821515830287019450611c5f565b8760005260208060002060005b85811015611c565781548a820152908401908201611c3d565b50505082870194505b50929695505050505050565b600060208284031215611c7d57600080fd5b81516001600160a01b038116811461066657600080fd5b606081526000611ca7606083018661187c565b6001600160a01b039490941660208301525060400152919050565b600060208284031215611cd457600080fd5b8151610666816119a5565b818103818111156102bd576102bd611a41565b634e487b7160e01b600052603160045260246000fdfeb688ec8e4241d4a907fd7254e1a20e7a6d28a9043ed3eac37de6f05135b33b3a",
    "linkReferences": {}
  },
  "methodIdentifiers": {
    "addRoleToChannel(string,uint256)": "42bb09b2",
    "createChannel(string,string,uint256[])": "51f83cea",
    "getChannel(string)": "7cd7ee3d",
    "getChannels()": "9575f6ac",
    "removeChannel(string)": "05b2cfbc",
    "removeRoleFromChannel(string,uint256)": "499061b5",
    "updateChannel(string,string,bool)": "9c02812e"
  },
  "id": 131
}