{
  "abi": [
    {
      "inputs": [
        {
          "internalType": "bytes4",
          "name": "selector",
          "type": "bytes4"
        }
      ],
      "name": "DiamondCut_FunctionAlreadyExists",
      "type": "error"
    },
    {
      "inputs": [
        {
          "internalType": "address",
          "name": "facet",
          "type": "address"
        }
      ],
      "name": "DiamondCut_FunctionDoesNotExist",
      "type": "error"
    },
    {
      "inputs": [
        {
          "internalType": "bytes4",
          "name": "selector",
          "type": "bytes4"
        }
      ],
      "name": "DiamondCut_FunctionFromSameFacetAlreadyExists",
      "type": "error"
    },
    {
      "inputs": [],
      "name": "DiamondCut_ImmutableFacet",
      "type": "error"
    },
    {
      "inputs": [
        {
          "internalType": "address",
          "name": "init",
          "type": "address"
        }
      ],
      "name": "DiamondCut_InvalidContract",
      "type": "error"
    },
    {
      "inputs": [
        {
          "internalType": "address",
          "name": "facet",
          "type": "address"
        }
      ],
      "name": "DiamondCut_InvalidFacet",
      "type": "error"
    },
    {
      "inputs": [],
      "name": "DiamondCut_InvalidFacetCutAction",
      "type": "error"
    },
    {
      "inputs": [],
      "name": "DiamondCut_InvalidFacetCutLength",
      "type": "error"
    },
    {
      "inputs": [
        {
          "internalType": "address",
          "name": "facet",
          "type": "address"
        },
        {
          "internalType": "bytes4",
          "name": "selector",
          "type": "bytes4"
        }
      ],
      "name": "DiamondCut_InvalidFacetRemoval",
      "type": "error"
    },
    {
      "inputs": [
        {
          "internalType": "address",
          "name": "facet",
          "type": "address"
        }
      ],
      "name": "DiamondCut_InvalidFacetSelectors",
      "type": "error"
    },
    {
      "inputs": [],
      "name": "DiamondCut_InvalidSelector",
      "type": "error"
    },
    {
      "inputs": [],
      "name": "Initializable_InInitializingState",
      "type": "error"
    },
    {
      "inputs": [],
      "name": "Initializable_NotInInitializingState",
      "type": "error"
    },
    {
      "inputs": [],
      "name": "Introspection_AlreadySupported",
      "type": "error"
    },
    {
      "inputs": [],
      "name": "Introspection_NotSupported",
      "type": "error"
    },
    {
      "inputs": [
        {
          "internalType": "address",
          "name": "account",
          "type": "address"
        }
      ],
      "name": "Ownable__NotOwner",
      "type": "error"
    },
    {
      "inputs": [],
      "name": "Ownable__ZeroAddress",
      "type": "error"
    },
    {
      "anonymous": false,
      "inputs": [
        {
          "components": [
            {
              "internalType": "address",
              "name": "facetAddress",
              "type": "address"
            },
            {
              "internalType": "enum IDiamond.FacetCutAction",
              "name": "action",
              "type": "uint8"
            },
            {
              "internalType": "bytes4[]",
              "name": "functionSelectors",
              "type": "bytes4[]"
            }
          ],
          "indexed": false,
          "internalType": "struct IDiamond.FacetCut[]",
          "name": "facetCuts",
          "type": "tuple[]"
        },
        {
          "indexed": false,
          "internalType": "address",
          "name": "init",
          "type": "address"
        },
        {
          "indexed": false,
          "internalType": "bytes",
          "name": "initPayload",
          "type": "bytes"
        }
      ],
      "name": "DiamondCut",
      "type": "event"
    },
    {
      "anonymous": false,
      "inputs": [
        {
          "indexed": false,
          "internalType": "uint32",
          "name": "version",
          "type": "uint32"
        }
      ],
      "name": "Initialized",
      "type": "event"
    },
    {
      "anonymous": false,
      "inputs": [
        {
          "indexed": true,
          "internalType": "bytes4",
          "name": "interfaceId",
          "type": "bytes4"
        }
      ],
      "name": "InterfaceAdded",
      "type": "event"
    },
    {
      "anonymous": false,
      "inputs": [
        {
          "indexed": true,
          "internalType": "bytes4",
          "name": "interfaceId",
          "type": "bytes4"
        }
      ],
      "name": "InterfaceRemoved",
      "type": "event"
    },
    {
      "anonymous": false,
      "inputs": [
        {
          "indexed": true,
          "internalType": "address",
          "name": "previousOwner",
          "type": "address"
        },
        {
          "indexed": true,
          "internalType": "address",
          "name": "newOwner",
          "type": "address"
        }
      ],
      "name": "OwnershipTransferred",
      "type": "event"
    },
    {
      "inputs": [],
      "name": "__DiamondCut_init",
      "outputs": [],
      "stateMutability": "nonpayable",
      "type": "function"
    },
    {
      "inputs": [
        {
          "components": [
            {
              "internalType": "address",
              "name": "facetAddress",
              "type": "address"
            },
            {
              "internalType": "enum IDiamond.FacetCutAction",
              "name": "action",
              "type": "uint8"
            },
            {
              "internalType": "bytes4[]",
              "name": "functionSelectors",
              "type": "bytes4[]"
            }
          ],
          "internalType": "struct IDiamond.FacetCut[]",
          "name": "facetCuts",
          "type": "tuple[]"
        },
        {
          "internalType": "address",
          "name": "init",
          "type": "address"
        },
        {
          "internalType": "bytes",
          "name": "initPayload",
          "type": "bytes"
        }
      ],
      "name": "diamondCut",
      "outputs": [],
      "stateMutability": "nonpayable",
      "type": "function"
    }
  ],
  "bytecode": {
    "object": "0x608060405234801561001057600080fd5b5061001961001e565b6100c4565b7f2d0d21306acfe8e9bb163a4573e95aff6cef95dc1102c6a16d5f19eac08cc4de8054640100000000900460ff161561006a576040516366008a2d60e01b815260040160405180910390fd5b805463ffffffff90811610156100c157805463ffffffff191663ffffffff90811782556040519081527fe9c9b456cb2994b80aeef036cf59d26e9617df80f816a6ee5a5b4166e07e2f5c9060200160405180910390a15b50565b611197806100d36000396000f3fe608060405234801561001057600080fd5b50600436106100365760003560e01c80631f931c1c1461003b5780634f4bb5d614610050575b600080fd5b61004e610049366004610db5565b610058565b005b61004e6100b9565b7fa7c3be20e3a76821507555109752fad8a6630ef0362a34dcfcdfef83c99a2537546001600160a01b031633146100a9576040516365f4906560e01b81523360048201526024015b60405180910390fd5b6100b4838383610115565b505050565b7f2d0d21306acfe8e9bb163a4573e95aff6cef95dc1102c6a16d5f19eac08cc4de54640100000000900460ff1661010357604051630ef4733760e31b815260040160405180910390fd5b6101136307e4c70760e21b61025c565b565b825160000361013757604051632795bfe160e11b815260040160405180910390fd5b60005b835181101561020f57600084828151811061015757610157610f6c565b6020026020010151905061016a8161033a565b60008160200151600281111561018257610182610f82565b0361019e57610199816000015182604001516103f6565b6101fc565b6001816020015160028111156101b6576101b6610f82565b036101cd5761019981600001518260400151610535565b6002816020015160028111156101e5576101e5610f82565b036101fc576101fc81600001518260400151610766565b508061020781610fae565b91505061013a565b507f8faa70878671ccd212d20771b795c50af8fd3ff6cf27f4bde57e5d4de0aeb67383838360405161024393929190611017565b60405180910390a161025683838361092c565b50505050565b6001600160e01b0319811660009081527fbc7de460bcfb6afd0c415c8c610d408bd914b18d7d0feec0da9e25348087a5c4602052604090205460ff1615156001146102e9576001600160e01b0319811660009081527fbc7de460bcfb6afd0c415c8c610d408bd914b18d7d0feec0da9e25348087a5c460205260409020805460ff19166001179055610302565b604051637967f77d60e11b815260040160405180910390fd5b6040516001600160e01b03198216907f78f84e5b1c5c05be2b5ad3800781dd404d6d6c6302bc755c0fe20f58a33a7f2290600090a250565b80516001600160a01b03166103705780516040516344ae58e160e01b81526001600160a01b0390911660048201526024016100a0565b80516001600160a01b03163014801590610393575080516001600160a01b03163b155b156103bf5780516040516344ae58e160e01b81526001600160a01b0390911660048201526024016100a0565b8060400151516000036103f35780516040516305fb96cb60e41b81526001600160a01b0390911660048201526024016100a0565b50565b7fd0665831a781f6cd8bf13b5112e74f78ba7f7fbcf55d04909c9c292517575d086104218184610998565b6104315761042f81846109bf565b505b815160005b8181101561052e57600084828151811061045257610452610f6c565b602090810291909101015190506001600160e01b03198116610487576040516347518c8160e01b815260040160405180910390fd5b6001600160e01b0319811660009081526002850160205260409020546001600160a01b0316156104d657604051630e6c4db160e41b81526001600160e01b0319821660048201526024016100a0565b6001600160e01b031981166000818152600286016020908152604080832080546001600160a01b0319166001600160a01b038c169081179091558352600388019091529020610524916109d4565b5050600101610436565b5050505050565b7fd0665831a781f6cd8bf13b5112e74f78ba7f7fbcf55d04909c9c292517575d08306001600160a01b0384160361057f57604051630e7ce30960e11b815260040160405180910390fd5b6105898184610998565b6105995761059781846109bf565b505b815160005b8181101561052e5760008482815181106105ba576105ba610f6c565b602090810291909101015190506001600160e01b031981166105ef576040516347518c8160e01b815260040160405180910390fd5b6001600160e01b0319811660009081526002850160205260409020546001600160a01b031630810361063457604051630e7ce30960e11b815260040160405180910390fd5b6001600160a01b0381166106665760405163126f174360e11b81526001600160a01b03881660048201526024016100a0565b866001600160a01b0316816001600160a01b0316036106a457604051631403eec360e21b81526001600160e01b0319831660048201526024016100a0565b6001600160e01b031982166000818152600287016020908152604080832080546001600160a01b0319166001600160a01b038d811691909117909155851683526003890190915290206106f6916109e0565b506001600160a01b03871660009081526003860160205260409020610725906001600160e01b031984166109d4565b506001600160a01b03811660009081526003860160205260409020610749906109ec565b60000361075c5761075a85826109f6565b505b505060010161059e565b7fd0665831a781f6cd8bf13b5112e74f78ba7f7fbcf55d04909c9c292517575d08306001600160a01b038416036107b057604051630e7ce30960e11b815260040160405180910390fd5b6107ba8184610998565b6107e2576040516344ae58e160e01b81526001600160a01b03841660048201526024016100a0565b60005b82518110156108f757600083828151811061080257610802610f6c565b602090810291909101015190506001600160e01b03198116610837576040516347518c8160e01b815260040160405180910390fd5b6001600160e01b0319811660009081526002840160205260409020546001600160a01b038681169116146108985760405162062efb60e51b81526001600160a01b03861660048201526001600160e01b0319821660248201526044016100a0565b6001600160e01b031981166000818152600285016020908152604080832080546001600160a01b03191690556001600160a01b03891683526003870190915290206108e2916109e0565b505080806108ef90610fae565b9150506107e5565b506001600160a01b0383166000908152600382016020526040902061091b906109ec565b6000036100b45761025681846109f6565b60606001600160a01b0383166109515750604080516020810190915260008152610991565b6001600160a01b0383163b61098457604051633b367e1560e21b81526001600160a01b03841660048201526024016100a0565b61098e8383610a0b565b90505b9392505050565b6001600160a01b038116600090815260018301602052604081205415155b90505b92915050565b60006109b6836001600160a01b038416610a30565b60006109b68383610a30565b60006109b68383610a7f565b60006109b9825490565b60006109b6836001600160a01b038416610a7f565b60606109b6838360405180606001604052806027815260200161117060279139610b72565b6000818152600183016020526040812054610a77575081546001818101845560008481526020808220909301849055845484825282860190935260409020919091556109b9565b5060006109b9565b60008181526001830160205260408120548015610b68576000610aa3600183611117565b8554909150600090610ab790600190611117565b9050818114610b1c576000866000018281548110610ad757610ad7610f6c565b9060005260206000200154905080876000018481548110610afa57610afa610f6c565b6000918252602080832090910192909255918252600188019052604090208390555b8554869080610b2d57610b2d61112a565b6001900381819060005260206000200160009055905585600101600086815260200190815260200160002060009055600193505050506109b9565b60009150506109b9565b6060600080856001600160a01b031685604051610b8f9190611140565b600060405180830381855af49150503d8060008114610bca576040519150601f19603f3d011682016040523d82523d6000602084013e610bcf565b606091505b5091509150610be086838387610bea565b9695505050505050565b60608315610c59578251600003610c52576001600160a01b0385163b610c525760405162461bcd60e51b815260206004820152601d60248201527f416464726573733a2063616c6c20746f206e6f6e2d636f6e747261637400000060448201526064016100a0565b5081610c63565b610c638383610c6b565b949350505050565b815115610c7b5781518083602001fd5b8060405162461bcd60e51b81526004016100a0919061115c565b634e487b7160e01b600052604160045260246000fd5b6040516060810167ffffffffffffffff81118282101715610cce57610cce610c95565b60405290565b604051601f8201601f1916810167ffffffffffffffff81118282101715610cfd57610cfd610c95565b604052919050565b600067ffffffffffffffff821115610d1f57610d1f610c95565b5060051b60200190565b80356001600160a01b0381168114610d4057600080fd5b919050565b600082601f830112610d5657600080fd5b813567ffffffffffffffff811115610d7057610d70610c95565b610d83601f8201601f1916602001610cd4565b818152846020838601011115610d9857600080fd5b816020850160208301376000918101602001919091529392505050565b600080600060608486031215610dca57600080fd5b67ffffffffffffffff8085351115610de157600080fd5b8435850186601f820112610df457600080fd5b610e06610e018235610d05565b610cd4565b81358082526020808301929160051b84010189811115610e2557600080fd5b602084015b81811015610f2d578581351115610e4057600080fd5b803585016060818d03601f19011215610e5857600080fd5b610e60610cab565b610e6c60208301610d29565b8152604082013560038110610e8057600080fd5b6020820152606082013588811115610e9757600080fd5b8083019250508c603f830112610eac57600080fd5b6020820135610ebd610e0182610d05565b81815260059190911b83016040019060208101908f831115610ede57600080fd5b6040850194505b82851015610f175784356001600160e01b0319811614610f0457600080fd5b8435825260209485019490910190610ee5565b6040840152505085525060209384019301610e2a565b5050809650505050610f4160208601610d29565b9250604085013581811115610f5557600080fd5b610f6187828801610d45565b925050509250925092565b634e487b7160e01b600052603260045260246000fd5b634e487b7160e01b600052602160045260246000fd5b634e487b7160e01b600052601160045260246000fd5b600060018201610fc057610fc0610f98565b5060010190565b60005b83811015610fe2578181015183820152602001610fca565b50506000910152565b60008151808452611003816020860160208601610fc7565b601f01601f19169290920160200192915050565b60006060808301818452808751808352608092508286019150828160051b8701016020808b0160005b848110156110e757898403607f19018652815180516001600160a01b0316855283810151898601906003811061108657634e487b7160e01b600052602160045260246000fd5b868601526040918201519186018a905281519081905290840190600090898701905b808310156110d25783516001600160e01b03191682529286019260019290920191908601906110a8565b50978501979550505090820190600101611040565b50506001600160a01b038a169088015286810360408801526111098189610feb565b9a9950505050505050505050565b818103818111156109b9576109b9610f98565b634e487b7160e01b600052603160045260246000fd5b60008251611152818460208701610fc7565b9190910192915050565b6020815260006109b66020830184610feb56fe416464726573733a206c6f772d6c6576656c2064656c65676174652063616c6c206661696c6564",
    "linkReferences": {}
  },
  "methodIdentifiers": {
    "__DiamondCut_init()": "4f4bb5d6",
    "diamondCut((address,uint8,bytes4[])[],address,bytes)": "1f931c1c"
  },
  "id": 28
}