{
  "abi": [
    {
      "inputs": [],
      "name": "EntitlementsService__EntitlementAlreadyExists",
      "type": "error"
    },
    {
      "inputs": [],
      "name": "EntitlementsService__EntitlementDoesNotExist",
      "type": "error"
    },
    {
      "inputs": [],
      "name": "EntitlementsService__ImmutableEntitlement",
      "type": "error"
    },
    {
      "inputs": [],
      "name": "EntitlementsService__InvalidEntitlementAddress",
      "type": "error"
    },
    {
      "inputs": [],
      "name": "EntitlementsService__InvalidEntitlementInterface",
      "type": "error"
    },
    {
      "inputs": [
        {
          "internalType": "address",
          "name": "account",
          "type": "address"
        }
      ],
      "name": "TokenOwnable__NotOwner",
      "type": "error"
    },
    {
      "inputs": [
        {
          "internalType": "address",
          "name": "entitlement",
          "type": "address"
        }
      ],
      "name": "addEntitlement",
      "outputs": [],
      "stateMutability": "nonpayable",
      "type": "function"
    },
    {
      "inputs": [
        {
          "internalType": "address[]",
          "name": "entitlements",
          "type": "address[]"
        }
      ],
      "name": "addImmutableEntitlements",
      "outputs": [],
      "stateMutability": "nonpayable",
      "type": "function"
    },
    {
      "inputs": [
        {
          "internalType": "address",
          "name": "entitlement",
          "type": "address"
        }
      ],
      "name": "getEntitlement",
      "outputs": [
        {
          "components": [
            {
              "internalType": "string",
              "name": "name",
              "type": "string"
            },
            {
              "internalType": "address",
              "name": "moduleAddress",
              "type": "address"
            },
            {
              "internalType": "string",
              "name": "moduleType",
              "type": "string"
            },
            {
              "internalType": "bool",
              "name": "isImmutable",
              "type": "bool"
            }
          ],
          "internalType": "struct IEntitlementsStructs.Entitlement",
          "name": "",
          "type": "tuple"
        }
      ],
      "stateMutability": "view",
      "type": "function"
    },
    {
      "inputs": [],
      "name": "getEntitlements",
      "outputs": [
        {
          "components": [
            {
              "internalType": "string",
              "name": "name",
              "type": "string"
            },
            {
              "internalType": "address",
              "name": "moduleAddress",
              "type": "address"
            },
            {
              "internalType": "string",
              "name": "moduleType",
              "type": "string"
            },
            {
              "internalType": "bool",
              "name": "isImmutable",
              "type": "bool"
            }
          ],
          "internalType": "struct IEntitlementsStructs.Entitlement[]",
          "name": "",
          "type": "tuple[]"
        }
      ],
      "stateMutability": "view",
      "type": "function"
    },
    {
      "inputs": [
        {
          "internalType": "string",
          "name": "channelId",
          "type": "string"
        },
        {
          "internalType": "address",
          "name": "user",
          "type": "address"
        },
        {
          "internalType": "string",
          "name": "permission",
          "type": "string"
        }
      ],
      "name": "isEntitledToChannel",
      "outputs": [
        {
          "internalType": "bool",
          "name": "",
          "type": "bool"
        }
      ],
      "stateMutability": "view",
      "type": "function"
    },
    {
      "inputs": [
        {
          "internalType": "address",
          "name": "user",
          "type": "address"
        },
        {
          "internalType": "string",
          "name": "permission",
          "type": "string"
        }
      ],
      "name": "isEntitledToTown",
      "outputs": [
        {
          "internalType": "bool",
          "name": "",
          "type": "bool"
        }
      ],
      "stateMutability": "view",
      "type": "function"
    },
    {
      "inputs": [
        {
          "internalType": "address",
          "name": "entitlement",
          "type": "address"
        }
      ],
      "name": "removeEntitlement",
      "outputs": [],
      "stateMutability": "nonpayable",
      "type": "function"
    }
  ],
  "bytecode": {
    "object": "0x608060405234801561001057600080fd5b506111c7806100206000396000f3fe608060405234801561001057600080fd5b506004361061007d5760003560e01c80638bfc820f1161005b5780638bfc820f146100d8578063c9b968cd146100eb578063cea632bc146100fe578063fba4ff9d1461011157600080fd5b80632c90a84014610082578063487dc38c146100975780634ff8eb71146100b5575b600080fd5b610095610090366004610ca9565b610131565b005b61009f61013d565b6040516100ac9190610d6f565b60405180910390f35b6100c86100c3366004610e1a565b61014c565b60405190151581526020016100ac565b6100956100e6366004610eb6565b610163565b6100956100f9366004610ca9565b61016c565b6100c861010c366004610f68565b610175565b61012461011f366004610ca9565b61018e565b6040516100ac9190610fed565b61013a816101a5565b50565b60606101476101c1565b905090565b60006101598484846102c6565b90505b9392505050565b61013a816102d3565b61013a81610343565b6000610184868686868661035d565b9695505050505050565b610196610c61565b61019f826103a3565b92915050565b6101ad6103f5565b6101b681610436565b61013a8160006104ff565b606060006101cd6105ad565b9050805167ffffffffffffffff8111156101e9576101e9610e6f565b60405190808252806020026020018201604052801561022257816020015b61020f610c61565b8152602001906001900390816102075790505b50915060005b81518110156102c15760008060008061025986868151811061024c5761024c611000565b60200260200101516105d8565b93509350935093506040518060800160405280858152602001846001600160a01b0316815260200183815260200182151581525087868151811061029f5761029f611000565b60200260200101819052505050505080806102b99061102c565b915050610228565b505090565b600061015984848461073f565b6102db6103f5565b60005b815181101561033f576103098282815181106102fc576102fc611000565b6020026020010151610436565b61032d82828151811061031e5761031e611000565b602002602001015160016104ff565b806103378161102c565b9150506102de565b5050565b61034b6103f5565b61035481610436565b61013a81610785565b600061018486868080601f016020809104026020016040519081016040528093929190818152602001838380828437600092019190915250889250879150869050610848565b6103ab610c61565b6103b482610436565b6000806000806103c3866105d8565b604080516080810182529485526001600160a01b03909316602085015291830152151560608201529695505050505050565b6103fd61086b565b6001600160a01b0316336001600160a01b0316146104345760405163851d062360e01b815233600482015260240160405180910390fd5b565b6001600160a01b03811661045d57604051630706e15760e51b815260040160405180910390fd5b6040516301ffc9a760e01b815263df76a3d360e01b60048201526001600160a01b038216906301ffc9a790602401602060405180830381865afa9250505080156104c4575060408051601f3d908101601f191682019092526104c191810190611045565b60015b6104e15760405163f58a5f2760e01b815260040160405180910390fd5b8061033f5760405163f58a5f2760e01b815260040160405180910390fd5b6001600160a01b0382811660009081526000805160206111a783398151915260208190526040909120549091161561054a57604051632406020960e01b815260040160405180910390fd5b6105576001820184610935565b506040805180820182526001600160a01b03948516808252931515602080830191825260009586529390935292209151825491511515600160a01b026001600160a81b0319909216931692909217919091179055565b60606101477f2df4f8e2489b335ef09ede56990b0838afbcdea6c639a41af44b533474fb855961094a565b606060008181806000805160206111a78339815191526001600160a01b03878116600090815260208390526040902054919250166106295760405163017ab33760e71b815260040160405180910390fd5b856001600160a01b03166306fdde036040518163ffffffff1660e01b8152600401600060405180830381865afa158015610667573d6000803e3d6000fd5b505050506040513d6000823e601f3d908101601f1916820160405261068f9190810190611067565b6001600160a01b03808816600081815260208590526040808220548151636465e69f60e01b81529151941693636465e69f926004808401939192918290030181865afa1580156106e3573d6000803e3d6000fd5b505050506040513d6000823e601f3d908101601f1916820160405261070b9190810190611067565b6001600160a01b03989098166000908152602093909352604090922054909791969550600160a01b900460ff169350915050565b6000610159604051806020016040528060008152508585856040516020016107689291906110fb565b6040516020818303038152906040526107809061110b565b610957565b6001600160a01b0381811660009081526000805160206111a783398151915260208190526040909120549091166107cf5760405163017ab33760e71b815260040160405180910390fd5b6001600160a01b038216600090815260208290526040902054600160a01b900460ff161561081057604051636045809760e11b815260040160405180910390fd5b61081d6001820183610a6e565b506001600160a01b0390911660009081526020919091526040902080546001600160a81b0319169055565b6000610862858585856040516020016107689291906110fb565b95945050505050565b6040805180820182527fdbd5af3db28136204db6a4cff1462f270d2d08a00327c8f96c7d68d8c530903f546001600160a01b03168082527fdbd5af3db28136204db6a4cff1462f270d2d08a00327c8f96c7d68d8c530904054602080840182905284516331a9108f60e11b815260048101929092529351600094636352211e92602480820193918290030181865afa15801561090b573d6000803e3d6000fd5b505050506040513d601f19601f8201168201806040525081019061092f9190611132565b91505090565b600061015c836001600160a01b038416610a83565b6060600061015c83610ad2565b600061096161086b565b6001600160a01b0316836001600160a01b0316036109815750600161015c565b6000805160206111a783398151915260006109bb7f2df4f8e2489b335ef09ede56990b0838afbcdea6c639a41af44b533474fb8559610b2e565b905060005b81811015610a64576109d56001840182610b38565b6001600160a01b031662b4eaa88888886040518463ffffffff1660e01b8152600401610a039392919061114f565b602060405180830381865afa158015610a20573d6000803e3d6000fd5b505050506040513d601f19601f82011682018060405250810190610a449190611045565b15610a525760019350610a64565b80610a5c8161102c565b9150506109c0565b5050509392505050565b600061015c836001600160a01b038416610b44565b6000818152600183016020526040812054610aca5750815460018181018455600084815260208082209093018490558454848252828601909352604090209190915561019f565b50600061019f565b606081600001805480602002602001604051908101604052809291908181526020018280548015610b2257602002820191906000526020600020905b815481526020019060010190808311610b0e575b50505050509050919050565b600061019f825490565b600061015c8383610c37565b60008181526001830160205260408120548015610c2d576000610b6860018361117d565b8554909150600090610b7c9060019061117d565b9050818114610be1576000866000018281548110610b9c57610b9c611000565b9060005260206000200154905080876000018481548110610bbf57610bbf611000565b6000918252602080832090910192909255918252600188019052604090208390555b8554869080610bf257610bf2611190565b60019003818190600052602060002001600090559055856001016000868152602001908152602001600020600090556001935050505061019f565b600091505061019f565b6000826000018281548110610c4e57610c4e611000565b9060005260206000200154905092915050565b60405180608001604052806060815260200160006001600160a01b03168152602001606081526020016000151581525090565b6001600160a01b038116811461013a57600080fd5b600060208284031215610cbb57600080fd5b813561015c81610c94565b60005b83811015610ce1578181015183820152602001610cc9565b50506000910152565b60008151808452610d02816020860160208601610cc6565b601f01601f19169290920160200192915050565b6000815160808452610d2b6080850182610cea565b905060018060a01b03602084015116602085015260408301518482036040860152610d568282610cea565b9150506060830151151560608501528091505092915050565b6000602080830181845280855180835260408601915060408160051b870101925083870160005b82811015610dc457603f19888603018452610db2858351610d16565b94509285019290850190600101610d96565b5092979650505050505050565b60008083601f840112610de357600080fd5b50813567ffffffffffffffff811115610dfb57600080fd5b602083019150836020828501011115610e1357600080fd5b9250929050565b600080600060408486031215610e2f57600080fd5b8335610e3a81610c94565b9250602084013567ffffffffffffffff811115610e5657600080fd5b610e6286828701610dd1565b9497909650939450505050565b634e487b7160e01b600052604160045260246000fd5b604051601f8201601f1916810167ffffffffffffffff81118282101715610eae57610eae610e6f565b604052919050565b60006020808385031215610ec957600080fd5b823567ffffffffffffffff80821115610ee157600080fd5b818501915085601f830112610ef557600080fd5b813581811115610f0757610f07610e6f565b8060051b9150610f18848301610e85565b8181529183018401918481019088841115610f3257600080fd5b938501935b83851015610f5c5784359250610f4c83610c94565b8282529385019390850190610f37565b98975050505050505050565b600080600080600060608688031215610f8057600080fd5b853567ffffffffffffffff80821115610f9857600080fd5b610fa489838a01610dd1565b909750955060208801359150610fb982610c94565b90935060408701359080821115610fcf57600080fd5b50610fdc88828901610dd1565b969995985093965092949392505050565b60208152600061015c6020830184610d16565b634e487b7160e01b600052603260045260246000fd5b634e487b7160e01b600052601160045260246000fd5b60006001820161103e5761103e611016565b5060010190565b60006020828403121561105757600080fd5b8151801515811461015c57600080fd5b60006020828403121561107957600080fd5b815167ffffffffffffffff8082111561109157600080fd5b818401915084601f8301126110a557600080fd5b8151818111156110b7576110b7610e6f565b6110ca601f8201601f1916602001610e85565b91508082528560208285010111156110e157600080fd5b6110f2816020840160208601610cc6565b50949350505050565b8183823760009101908152919050565b8051602080830151919081101561112c576000198160200360031b1b821691505b50919050565b60006020828403121561114457600080fd5b815161015c81610c94565b6060815260006111626060830186610cea565b6001600160a01b039490941660208301525060400152919050565b8181038181111561019f5761019f611016565b634e487b7160e01b600052603160045260246000fdfe2df4f8e2489b335ef09ede56990b0838afbcdea6c639a41af44b533474fb8558",
    "linkReferences": {}
  },
  "methodIdentifiers": {
    "addEntitlement(address)": "2c90a840",
    "addImmutableEntitlements(address[])": "8bfc820f",
    "getEntitlement(address)": "fba4ff9d",
    "getEntitlements()": "487dc38c",
    "isEntitledToChannel(string,address,string)": "cea632bc",
    "isEntitledToTown(address,string)": "4ff8eb71",
    "removeEntitlement(address)": "c9b968cd"
  },
  "id": 220
}