{
  "abi": [
    {
      "inputs": [],
      "name": "ApprovalCallerNotOwnerNorApproved",
      "type": "error"
    },
    {
      "inputs": [],
      "name": "ApprovalQueryForNonexistentToken",
      "type": "error"
    },
    {
      "inputs": [],
      "name": "BalanceQueryForZeroAddress",
      "type": "error"
    },
    {
      "inputs": [],
      "name": "ERC5643__DurationZero",
      "type": "error"
    },
    {
      "inputs": [
        {
          "internalType": "uint256",
          "name": "tokenId",
          "type": "uint256"
        }
      ],
      "name": "ERC5643__InvalidTokenId",
      "type": "error"
    },
    {
      "inputs": [],
      "name": "ERC5643__NotApprovedOrOwner",
      "type": "error"
    },
    {
      "inputs": [
        {
          "internalType": "uint256",
          "name": "tokenId",
          "type": "uint256"
        }
      ],
      "name": "ERC5643__SubscriptionNotRenewable",
      "type": "error"
    },
    {
      "inputs": [],
      "name": "Entitlement__InvalidValue",
      "type": "error"
    },
    {
      "inputs": [],
      "name": "Entitlement__NotAllowed",
      "type": "error"
    },
    {
      "inputs": [],
      "name": "Entitlement__ValueAlreadyExists",
      "type": "error"
    },
    {
      "inputs": [],
      "name": "Initializable_InInitializingState",
      "type": "error"
    },
    {
      "inputs": [],
      "name": "Initializable_NotInInitializingState",
      "type": "error"
    },
    {
      "inputs": [],
      "name": "Introspection_AlreadySupported",
      "type": "error"
    },
    {
      "inputs": [],
      "name": "Introspection_NotSupported",
      "type": "error"
    },
    {
      "inputs": [],
      "name": "Membership__AlreadyMember",
      "type": "error"
    },
    {
      "inputs": [],
      "name": "Membership__InsufficientPayment",
      "type": "error"
    },
    {
      "inputs": [],
      "name": "Membership__InvalidAddress",
      "type": "error"
    },
    {
      "inputs": [],
      "name": "Membership__InvalidCurrency",
      "type": "error"
    },
    {
      "inputs": [],
      "name": "Membership__InvalidFeeRecipient",
      "type": "error"
    },
    {
      "inputs": [],
      "name": "Membership__InvalidLimit",
      "type": "error"
    },
    {
      "inputs": [],
      "name": "Membership__InvalidPrice",
      "type": "error"
    },
    {
      "inputs": [],
      "name": "Membership__LimitReached",
      "type": "error"
    },
    {
      "inputs": [],
      "name": "Membership__PriceTooLow",
      "type": "error"
    },
    {
      "inputs": [],
      "name": "MintERC2309QuantityExceedsLimit",
      "type": "error"
    },
    {
      "inputs": [],
      "name": "MintToZeroAddress",
      "type": "error"
    },
    {
      "inputs": [],
      "name": "MintZeroQuantity",
      "type": "error"
    },
    {
      "inputs": [
        {
          "internalType": "address",
          "name": "account",
          "type": "address"
        }
      ],
      "name": "Ownable__NotOwner",
      "type": "error"
    },
    {
      "inputs": [],
      "name": "Ownable__ZeroAddress",
      "type": "error"
    },
    {
      "inputs": [],
      "name": "OwnerQueryForNonexistentToken",
      "type": "error"
    },
    {
      "inputs": [],
      "name": "OwnershipNotInitializedForExtraData",
      "type": "error"
    },
    {
      "inputs": [],
      "name": "Pausable__NotPaused",
      "type": "error"
    },
    {
      "inputs": [],
      "name": "Pausable__Paused",
      "type": "error"
    },
    {
      "inputs": [],
      "name": "ReentrancyGuard__ReentrantCall",
      "type": "error"
    },
    {
      "inputs": [],
      "name": "TransferCallerNotOwnerNorApproved",
      "type": "error"
    },
    {
      "inputs": [],
      "name": "TransferFromIncorrectOwner",
      "type": "error"
    },
    {
      "inputs": [],
      "name": "TransferToNonERC721ReceiverImplementer",
      "type": "error"
    },
    {
      "inputs": [],
      "name": "TransferToZeroAddress",
      "type": "error"
    },
    {
      "inputs": [],
      "name": "URIQueryForNonexistentToken",
      "type": "error"
    },
    {
      "anonymous": false,
      "inputs": [
        {
          "indexed": true,
          "internalType": "address",
          "name": "owner",
          "type": "address"
        },
        {
          "indexed": true,
          "internalType": "address",
          "name": "approved",
          "type": "address"
        },
        {
          "indexed": true,
          "internalType": "uint256",
          "name": "tokenId",
          "type": "uint256"
        }
      ],
      "name": "Approval",
      "type": "event"
    },
    {
      "anonymous": false,
      "inputs": [
        {
          "indexed": true,
          "internalType": "address",
          "name": "owner",
          "type": "address"
        },
        {
          "indexed": true,
          "internalType": "address",
          "name": "operator",
          "type": "address"
        },
        {
          "indexed": false,
          "internalType": "bool",
          "name": "approved",
          "type": "bool"
        }
      ],
      "name": "ApprovalForAll",
      "type": "event"
    },
    {
      "anonymous": false,
      "inputs": [
        {
          "indexed": true,
          "internalType": "uint256",
          "name": "fromTokenId",
          "type": "uint256"
        },
        {
          "indexed": false,
          "internalType": "uint256",
          "name": "toTokenId",
          "type": "uint256"
        },
        {
          "indexed": true,
          "internalType": "address",
          "name": "from",
          "type": "address"
        },
        {
          "indexed": true,
          "internalType": "address",
          "name": "to",
          "type": "address"
        }
      ],
      "name": "ConsecutiveTransfer",
      "type": "event"
    },
    {
      "anonymous": false,
      "inputs": [
        {
          "indexed": false,
          "internalType": "uint32",
          "name": "version",
          "type": "uint32"
        }
      ],
      "name": "Initialized",
      "type": "event"
    },
    {
      "anonymous": false,
      "inputs": [
        {
          "indexed": true,
          "internalType": "bytes4",
          "name": "interfaceId",
          "type": "bytes4"
        }
      ],
      "name": "InterfaceAdded",
      "type": "event"
    },
    {
      "anonymous": false,
      "inputs": [
        {
          "indexed": true,
          "internalType": "bytes4",
          "name": "interfaceId",
          "type": "bytes4"
        }
      ],
      "name": "InterfaceRemoved",
      "type": "event"
    },
    {
      "anonymous": false,
      "inputs": [
        {
          "indexed": true,
          "internalType": "address",
          "name": "currency",
          "type": "address"
        }
      ],
      "name": "MembershipCurrencyUpdated",
      "type": "event"
    },
    {
      "anonymous": false,
      "inputs": [
        {
          "indexed": true,
          "internalType": "address",
          "name": "recipient",
          "type": "address"
        }
      ],
      "name": "MembershipFeeRecipientUpdated",
      "type": "event"
    },
    {
      "anonymous": false,
      "inputs": [
        {
          "indexed": true,
          "internalType": "uint256",
          "name": "limit",
          "type": "uint256"
        }
      ],
      "name": "MembershipLimitUpdated",
      "type": "event"
    },
    {
      "anonymous": false,
      "inputs": [
        {
          "indexed": true,
          "internalType": "uint256",
          "name": "price",
          "type": "uint256"
        }
      ],
      "name": "MembershipPriceUpdated",
      "type": "event"
    },
    {
      "anonymous": false,
      "inputs": [
        {
          "indexed": true,
          "internalType": "address",
          "name": "previousOwner",
          "type": "address"
        },
        {
          "indexed": true,
          "internalType": "address",
          "name": "newOwner",
          "type": "address"
        }
      ],
      "name": "OwnershipTransferred",
      "type": "event"
    },
    {
      "anonymous": false,
      "inputs": [
        {
          "indexed": false,
          "internalType": "address",
          "name": "account",
          "type": "address"
        }
      ],
      "name": "Paused",
      "type": "event"
    },
    {
      "anonymous": false,
      "inputs": [
        {
          "indexed": true,
          "internalType": "uint256",
          "name": "tokenId",
          "type": "uint256"
        },
        {
          "indexed": false,
          "internalType": "uint64",
          "name": "expiration",
          "type": "uint64"
        }
      ],
      "name": "SubscriptionUpdate",
      "type": "event"
    },
    {
      "anonymous": false,
      "inputs": [
        {
          "indexed": true,
          "internalType": "address",
          "name": "from",
          "type": "address"
        },
        {
          "indexed": true,
          "internalType": "address",
          "name": "to",
          "type": "address"
        },
        {
          "indexed": true,
          "internalType": "uint256",
          "name": "tokenId",
          "type": "uint256"
        }
      ],
      "name": "Transfer",
      "type": "event"
    },
    {
      "anonymous": false,
      "inputs": [
        {
          "indexed": false,
          "internalType": "address",
          "name": "account",
          "type": "address"
        }
      ],
      "name": "Unpaused",
      "type": "event"
    },
    {
      "inputs": [
        {
          "internalType": "string",
          "name": "name_",
          "type": "string"
        },
        {
          "internalType": "string",
          "name": "symbol_",
          "type": "string"
        }
      ],
      "name": "__ERC721A_init",
      "outputs": [],
      "stateMutability": "nonpayable",
      "type": "function"
    },
    {
      "inputs": [
        {
          "components": [
            {
              "internalType": "uint256",
              "name": "membershipPrice",
              "type": "uint256"
            },
            {
              "internalType": "uint256",
              "name": "membershipLimit",
              "type": "uint256"
            },
            {
              "internalType": "address",
              "name": "membershipCurrency",
              "type": "address"
            },
            {
              "internalType": "address",
              "name": "membershipFeeRecipient",
              "type": "address"
            },
            {
              "internalType": "address",
              "name": "townFactory",
              "type": "address"
            },
            {
              "internalType": "address",
              "name": "forwarder",
              "type": "address"
            },
            {
              "internalType": "string",
              "name": "name",
              "type": "string"
            },
            {
              "internalType": "string",
              "name": "symbol",
              "type": "string"
            }
          ],
          "internalType": "struct IMembershipBase.MembershipInfo",
          "name": "info",
          "type": "tuple"
        }
      ],
      "name": "__Membership_init",
      "outputs": [],
      "stateMutability": "nonpayable",
      "type": "function"
    },
    {
      "inputs": [],
      "name": "_getMembershipCurrency",
      "outputs": [
        {
          "internalType": "address",
          "name": "",
          "type": "address"
        }
      ],
      "stateMutability": "view",
      "type": "function"
    },
    {
      "inputs": [],
      "name": "_getMembershipFeeRecipient",
      "outputs": [
        {
          "internalType": "address",
          "name": "",
          "type": "address"
        }
      ],
      "stateMutability": "view",
      "type": "function"
    },
    {
      "inputs": [],
      "name": "_getMembershipLimit",
      "outputs": [
        {
          "internalType": "uint256",
          "name": "",
          "type": "uint256"
        }
      ],
      "stateMutability": "view",
      "type": "function"
    },
    {
      "inputs": [],
      "name": "_getMembershipPrice",
      "outputs": [
        {
          "internalType": "uint256",
          "name": "",
          "type": "uint256"
        }
      ],
      "stateMutability": "view",
      "type": "function"
    },
    {
      "inputs": [],
      "name": "_getTownFactory",
      "outputs": [
        {
          "internalType": "address",
          "name": "",
          "type": "address"
        }
      ],
      "stateMutability": "view",
      "type": "function"
    },
    {
      "inputs": [
        {
          "internalType": "address",
          "name": "newCurrency",
          "type": "address"
        }
      ],
      "name": "_setMembershipCurrency",
      "outputs": [],
      "stateMutability": "nonpayable",
      "type": "function"
    },
    {
      "inputs": [
        {
          "internalType": "address",
          "name": "newRecipient",
          "type": "address"
        }
      ],
      "name": "_setMembershipFeeRecipient",
      "outputs": [],
      "stateMutability": "nonpayable",
      "type": "function"
    },
    {
      "inputs": [
        {
          "internalType": "uint256",
          "name": "newLimit",
          "type": "uint256"
        }
      ],
      "name": "_setMembershipLimit",
      "outputs": [],
      "stateMutability": "nonpayable",
      "type": "function"
    },
    {
      "inputs": [
        {
          "internalType": "uint256",
          "name": "newPrice",
          "type": "uint256"
        }
      ],
      "name": "_setMembershipPrice",
      "outputs": [],
      "stateMutability": "nonpayable",
      "type": "function"
    },
    {
      "inputs": [
        {
          "internalType": "address",
          "name": "to",
          "type": "address"
        },
        {
          "internalType": "uint256",
          "name": "tokenId",
          "type": "uint256"
        }
      ],
      "name": "approve",
      "outputs": [],
      "stateMutability": "payable",
      "type": "function"
    },
    {
      "inputs": [
        {
          "internalType": "address",
          "name": "account",
          "type": "address"
        }
      ],
      "name": "balanceOf",
      "outputs": [
        {
          "internalType": "uint256",
          "name": "",
          "type": "uint256"
        }
      ],
      "stateMutability": "view",
      "type": "function"
    },
    {
      "inputs": [
        {
          "internalType": "uint256",
          "name": "tokenId",
          "type": "uint256"
        }
      ],
      "name": "cancelMembership",
      "outputs": [],
      "stateMutability": "nonpayable",
      "type": "function"
    },
    {
      "inputs": [
        {
          "internalType": "uint256",
          "name": "tokenId",
          "type": "uint256"
        }
      ],
      "name": "expiresAt",
      "outputs": [
        {
          "internalType": "uint256",
          "name": "",
          "type": "uint256"
        }
      ],
      "stateMutability": "view",
      "type": "function"
    },
    {
      "inputs": [
        {
          "internalType": "uint256",
          "name": "tokenId",
          "type": "uint256"
        }
      ],
      "name": "getApproved",
      "outputs": [
        {
          "internalType": "address",
          "name": "",
          "type": "address"
        }
      ],
      "stateMutability": "view",
      "type": "function"
    },
    {
      "inputs": [],
      "name": "getMembershipCurrency",
      "outputs": [
        {
          "internalType": "address",
          "name": "",
          "type": "address"
        }
      ],
      "stateMutability": "view",
      "type": "function"
    },
    {
      "inputs": [],
      "name": "getMembershipFeeRecipient",
      "outputs": [
        {
          "internalType": "address",
          "name": "",
          "type": "address"
        }
      ],
      "stateMutability": "view",
      "type": "function"
    },
    {
      "inputs": [],
      "name": "getMembershipLimit",
      "outputs": [
        {
          "internalType": "uint256",
          "name": "",
          "type": "uint256"
        }
      ],
      "stateMutability": "view",
      "type": "function"
    },
    {
      "inputs": [],
      "name": "getMembershipPrice",
      "outputs": [
        {
          "internalType": "uint256",
          "name": "",
          "type": "uint256"
        }
      ],
      "stateMutability": "view",
      "type": "function"
    },
    {
      "inputs": [],
      "name": "getTownFactory",
      "outputs": [
        {
          "internalType": "address",
          "name": "",
          "type": "address"
        }
      ],
      "stateMutability": "view",
      "type": "function"
    },
    {
      "inputs": [
        {
          "internalType": "address",
          "name": "owner",
          "type": "address"
        },
        {
          "internalType": "address",
          "name": "operator",
          "type": "address"
        }
      ],
      "name": "isApprovedForAll",
      "outputs": [
        {
          "internalType": "bool",
          "name": "",
          "type": "bool"
        }
      ],
      "stateMutability": "view",
      "type": "function"
    },
    {
      "inputs": [
        {
          "internalType": "address",
          "name": "forwarder",
          "type": "address"
        }
      ],
      "name": "isTrustedForwarder",
      "outputs": [
        {
          "internalType": "bool",
          "name": "",
          "type": "bool"
        }
      ],
      "stateMutability": "view",
      "type": "function"
    },
    {
      "inputs": [
        {
          "internalType": "address",
          "name": "receiver",
          "type": "address"
        }
      ],
      "name": "joinTown",
      "outputs": [
        {
          "internalType": "uint256",
          "name": "tokenId",
          "type": "uint256"
        }
      ],
      "stateMutability": "payable",
      "type": "function"
    },
    {
      "inputs": [],
      "name": "name",
      "outputs": [
        {
          "internalType": "string",
          "name": "",
          "type": "string"
        }
      ],
      "stateMutability": "view",
      "type": "function"
    },
    {
      "inputs": [
        {
          "internalType": "uint256",
          "name": "tokenId",
          "type": "uint256"
        }
      ],
      "name": "ownerOf",
      "outputs": [
        {
          "internalType": "address",
          "name": "",
          "type": "address"
        }
      ],
      "stateMutability": "view",
      "type": "function"
    },
    {
      "inputs": [
        {
          "internalType": "address",
          "name": "receiver",
          "type": "address"
        }
      ],
      "name": "renewMembership",
      "outputs": [],
      "stateMutability": "payable",
      "type": "function"
    },
    {
      "inputs": [
        {
          "internalType": "address",
          "name": "from",
          "type": "address"
        },
        {
          "internalType": "address",
          "name": "to",
          "type": "address"
        },
        {
          "internalType": "uint256",
          "name": "tokenId",
          "type": "uint256"
        }
      ],
      "name": "safeTransferFrom",
      "outputs": [],
      "stateMutability": "payable",
      "type": "function"
    },
    {
      "inputs": [
        {
          "internalType": "address",
          "name": "from",
          "type": "address"
        },
        {
          "internalType": "address",
          "name": "to",
          "type": "address"
        },
        {
          "internalType": "uint256",
          "name": "tokenId",
          "type": "uint256"
        },
        {
          "internalType": "bytes",
          "name": "_data",
          "type": "bytes"
        }
      ],
      "name": "safeTransferFrom",
      "outputs": [],
      "stateMutability": "payable",
      "type": "function"
    },
    {
      "inputs": [
        {
          "internalType": "address",
          "name": "operator",
          "type": "address"
        },
        {
          "internalType": "bool",
          "name": "approved",
          "type": "bool"
        }
      ],
      "name": "setApprovalForAll",
      "outputs": [],
      "stateMutability": "nonpayable",
      "type": "function"
    },
    {
      "inputs": [
        {
          "internalType": "address",
          "name": "newCurrency",
          "type": "address"
        }
      ],
      "name": "setMembershipCurrency",
      "outputs": [],
      "stateMutability": "nonpayable",
      "type": "function"
    },
    {
      "inputs": [
        {
          "internalType": "address",
          "name": "newRecipient",
          "type": "address"
        }
      ],
      "name": "setMembershipFeeRecipient",
      "outputs": [],
      "stateMutability": "nonpayable",
      "type": "function"
    },
    {
      "inputs": [
        {
          "internalType": "uint256",
          "name": "newLimit",
          "type": "uint256"
        }
      ],
      "name": "setMembershipLimit",
      "outputs": [],
      "stateMutability": "nonpayable",
      "type": "function"
    },
    {
      "inputs": [
        {
          "internalType": "uint256",
          "name": "newPrice",
          "type": "uint256"
        }
      ],
      "name": "setMembershipPrice",
      "outputs": [],
      "stateMutability": "nonpayable",
      "type": "function"
    },
    {
      "inputs": [],
      "name": "symbol",
      "outputs": [
        {
          "internalType": "string",
          "name": "",
          "type": "string"
        }
      ],
      "stateMutability": "view",
      "type": "function"
    },
    {
      "inputs": [
        {
          "internalType": "uint256",
          "name": "tokenId",
          "type": "uint256"
        }
      ],
      "name": "tokenURI",
      "outputs": [
        {
          "internalType": "string",
          "name": "",
          "type": "string"
        }
      ],
      "stateMutability": "view",
      "type": "function"
    },
    {
      "inputs": [],
      "name": "totalSupply",
      "outputs": [
        {
          "internalType": "uint256",
          "name": "",
          "type": "uint256"
        }
      ],
      "stateMutability": "view",
      "type": "function"
    },
    {
      "inputs": [
        {
          "internalType": "address",
          "name": "from",
          "type": "address"
        },
        {
          "internalType": "address",
          "name": "to",
          "type": "address"
        },
        {
          "internalType": "uint256",
          "name": "tokenId",
          "type": "uint256"
        }
      ],
      "name": "transferFrom",
      "outputs": [],
      "stateMutability": "payable",
      "type": "function"
    }
  ],
  "bytecode": {
    "object": "0x60806040523480156200001157600080fd5b506200001c62000022565b620000ca565b7f2d0d21306acfe8e9bb163a4573e95aff6cef95dc1102c6a16d5f19eac08cc4de8054640100000000900460ff16156200006f576040516366008a2d60e01b815260040160405180910390fd5b805463ffffffff9081161015620000c757805463ffffffff191663ffffffff90811782556040519081527fe9c9b456cb2994b80aeef036cf59d26e9617df80f816a6ee5a5b4166e07e2f5c9060200160405180910390a15b50565b6133e280620000da6000396000f3fe6080604052600436106102255760003560e01c80636340d0961161012357806395d600c8116100ab578063b88d4fde1161006f578063b88d4fde14610622578063bf3bc87814610635578063c87b56dd1461064a578063d2f01f191461066a578063e985e9c51461068a57600080fd5b806395d600c81461059857806395d89b41146105ad57806397fb7c1e146105c2578063a22cb465146105e2578063b83073761461060257600080fd5b80636e43d05d116100f25780636e43d05d146104ed578063702515631461050d57806370a08231146105385780637d0567c41461055857806389def3201461057857600080fd5b80636340d096146104835780636352211e14610498578063657e45e8146104b857806369d5f38a146104cd57600080fd5b806318160ddd116101b157806342842e0e1161017557806342842e0e146103e2578063572b6c05146103f55780635b312fce1461042557806361a9c7df14610450578063624520061461046357600080fd5b806318160ddd1461034d57806318e5da65146103625780631b3972f0146103825780631d214b4d146103a457806323b872dd146103cf57600080fd5b80630c3a01b1116101f85780630c3a01b1146102c25780631278076a146102e257806316a344b4146103055780631766bb7b1461031857806317c957091461032d57600080fd5b806302b24da51461022a57806306fdde031461024c578063081812fc14610277578063095ea7b3146102af575b600080fd5b34801561023657600080fd5b5061024a610245366004612b19565b6106aa565b005b34801561025857600080fd5b50610261610781565b60405161026e9190612b82565b60405180910390f35b34801561028357600080fd5b50610297610292366004612b19565b61081c565b6040516001600160a01b03909116815260200161026e565b61024a6102bd366004612bb5565b61082d565b3480156102ce57600080fd5b5061024a6102dd366004612b19565b61083d565b3480156102ee57600080fd5b506102f761091d565b60405190815260200161026e565b6102f7610313366004612be1565b61093a565b34801561032457600080fd5b506102f7610a6a565b34801561033957600080fd5b506102f7610348366004612b19565b610b2d565b34801561035957600080fd5b506102f7610b47565b34801561036e57600080fd5b5061024a61037d366004612be1565b610b51565b34801561038e57600080fd5b506000805160206133c2833981519152546102f7565b3480156103b057600080fd5b506000805160206133a2833981519152546001600160a01b0316610297565b61024a6103dd366004612bfe565b610b9d565b61024a6103f0366004612bfe565b610d92565b34801561040157600080fd5b50610415610410366004612be1565b610db2565b604051901515815260200161026e565b34801561043157600080fd5b50600080516020613382833981519152546001600160a01b0316610297565b61024a61045e366004612be1565b610def565b34801561046f57600080fd5b5061024a61047e366004612be1565b610ebd565b34801561048f57600080fd5b50610297610f13565b3480156104a457600080fd5b506102976104b3366004612b19565b610f34565b3480156104c457600080fd5b50610297610f3f565b3480156104d957600080fd5b5061024a6104e8366004612b19565b610f60565b3480156104f957600080fd5b5061024a610508366004612d13565b610fa4565b34801561051957600080fd5b50600080516020613302833981519152546001600160a01b0316610297565b34801561054457600080fd5b506102f7610553366004612be1565b6110fd565b34801561056457600080fd5b5061024a610573366004612be1565b611130565b34801561058457600080fd5b5061024a610593366004612b19565b611174565b3480156105a457600080fd5b506102f761120a565b3480156105b957600080fd5b50610261611214565b3480156105ce57600080fd5b5061024a6105dd366004612b19565b61122c565b3480156105ee57600080fd5b5061024a6105fd366004612e0a565b611270565b34801561060e57600080fd5b5061024a61061d366004612be1565b611312565b61024a610630366004612e43565b611368565b34801561064157600080fd5b506102976113b2565b34801561065657600080fd5b50610261610665366004612b19565b6113d3565b34801561067657600080fd5b5061024a610685366004612ec2565b611464565b34801561069657600080fd5b506104156106a5366004612f25565b6114b8565b6000805160206133828339815191525460408051632cbb9d1360e01b81529051600080516020613322833981519152926000926001600160a01b0390911691632cbb9d13916004808201926020929091908290030181865afa158015610714573d6000803e3d6000fd5b505050506040513d601f19601f820116820180604052508101906107389190612f53565b90508083111561075b57604051632b6e8cbb60e11b815260040160405180910390fd5b50507f9b35df16c33a6c0e085c9ebd55fb367f81c58c2ed7e9bed98cc622f3308a601055565b606061078b6114c4565b600201805461079990612f6c565b80601f01602080910402602001604051908101604052809291908181526020018280546107c590612f6c565b80156108125780601f106107e757610100808354040283529160200191610812565b820191906000526020600020905b8154815290600101906020018083116107f557829003601f168201915b5050505050905090565b6000610827826114e8565b92915050565b61083982826001611535565b5050565b60008051602061330283398151915254600080516020613322833981519152906001600160a01b031661088357604051636da3122b60e01b815260040160405180910390fd5b600681015460408051630eac306d60e01b815290516000926001600160a01b031691630eac306d9160048083019260209291908290030181865afa1580156108cf573d6000803e3d6000fd5b505050506040513d601f19601f820116820180604052508101906108f39190612f53565b90508083101561091657604051631a23d64760e11b815260040160405180910390fd5b5060020155565b60006109356000805160206133c28339815191525490565b905090565b60006002600080516020613342833981519152540361096c57604051635db5c7cd60e11b815260040160405180910390fd5b610983600260008051602061334283398151915255565b6109ac604051806040016040528060088152602001672537b4b72a37bbb760c11b815250611601565b60006109b783611637565b11156109d6576040516316d9a23f60e31b815260040160405180910390fd5b6000805160206133c283398151915254158015610a0157506109f6610a6a565b6109fe61169f565b10155b15610a1f57604051635e9cd6f760e01b815260040160405180910390fd5b610a276116be565b9050610a32826116ce565b610a3d8260016119ae565b610a4e81610a496119c8565b611a43565b610a65600160008051602061334283398151915255565b919050565b7f9b35df16c33a6c0e085c9ebd55fb367f81c58c2ed7e9bed98cc622f3308a601054600090600080516020613322833981519152908203610b24578060060160009054906101000a90046001600160a01b03166001600160a01b0316632cbb9d136040518163ffffffff1660e01b8152600401602060405180830381865afa158015610afa573d6000803e3d6000fd5b505050506040513d601f19601f82011682018060405250810190610b1e9190612f53565b91505090565b60030154919050565b6000610b3882611b35565b6001600160401b031692915050565b600061093561169f565b610b59611b6f565b6001600160a01b0316336001600160a01b031614610b91576040516365f4906560e01b81523360048201526024015b60405180910390fd5b610b9a81610ebd565b50565b6000610ba882611c33565b9050836001600160a01b0316816001600160a01b031614610bdb5760405162a1148160e81b815260040160405180910390fd5b600080610be784611cd7565b91509150610c0d8187610bf8611cff565b6001600160a01b039081169116811491141790565b610c3a57610c1d866106a5611cff565b610c3a57604051632ce44b5f60e11b815260040160405180910390fd5b6001600160a01b038516610c6157604051633a954ecd60e21b815260040160405180910390fd5b610c6e8686866001611d09565b8015610c7957600082555b610c816114c4565b6001600160a01b0387166000908152600591909101602052604090208054600019019055610cad6114c4565b6001600160a01b03861660008181526005929092016020526040909120805460010190554260a01b17600160e11b17610ce46114c4565b60008681526004919091016020526040812091909155600160e11b84169003610d5a5760018401610d136114c4565b600082815260049190910160205260408120549003610d5857610d346114c4565b548114610d585783610d446114c4565b600083815260049190910160205260409020555b505b83856001600160a01b0316876001600160a01b031660008051602061336283398151915260405160405180910390a45b505050505050565b610dad83838360405180602001604052806000815250611368565b505050565b6001600160a01b031660009081527f9be1203d7c008407e47cf520c8f15f54b074f0a2af3750145c254290338afc3f602052604090205460ff1690565b60026000805160206133428339815191525403610e1f57604051635db5c7cd60e11b815260040160405180910390fd5b610e36600260008051602061334283398151915255565b6001600160a01b038116610e5d57604051635fbd571760e01b815260040160405180910390fd5b6000610e6882611d73565b9050610e7381611dad565b610e90576040516367d9dca160e11b815260040160405180910390fd5b610e99826116ce565b610ea581610a496119c8565b50610b9a600160008051602061334283398151915255565b6001600160a01b038116610ee457604051631492df6160e21b815260040160405180910390fd5b6000805160206133a283398151915280546001600160a01b0319166001600160a01b0392909216919091179055565b6000610935600080516020613382833981519152546001600160a01b031690565b600061082782611c33565b6000610935600080516020613302833981519152546001600160a01b031690565b610f68611b6f565b6001600160a01b0316336001600160a01b031614610f9b576040516365f4906560e01b8152336004820152602401610b88565b610b9a8161083d565b7f2d0d21306acfe8e9bb163a4573e95aff6cef95dc1102c6a16d5f19eac08cc4de54640100000000900460ff16610fee57604051630ef4733760e31b815260040160405180910390fd5b805160208201516040830151606084015160808501516000805160206133c2833981519152949094557f9b35df16c33a6c0e085c9ebd55fb367f81c58c2ed7e9bed98cc622f3308a60109290925560008051602061330283398151915280546001600160a01b039283166001600160a01b0319918216179091556000805160206133a283398151915280549383169382169390931790925560008051602061338283398151915280549190931691161790556110eb8160a001516001600160a01b031660009081527f9be1203d7c008407e47cf520c8f15f54b074f0a2af3750145c254290338afc3f60205260409020805460ff19166001179055565b610b9a8160c001518260e00151611e1a565b60004261111161110c84611d73565b611b35565b6001600160401b03161161112757506000919050565b61082782611637565b611138611b6f565b6001600160a01b0316336001600160a01b03161461116b576040516365f4906560e01b8152336004820152602401610b88565b610b9a81611312565b600260008051602061334283398151915254036111a457604051635db5c7cd60e11b815260040160405180910390fd5b6111bb600260008051602061334283398151915255565b6111c481611dad565b6111e1576040516367d9dca160e11b815260040160405180910390fd5b6111ea81611e8e565b6111f381611e99565b610b9a600160008051602061334283398151915255565b6000610935610a6a565b606061121e6114c4565b600301805461079990612f6c565b611234611b6f565b6001600160a01b0316336001600160a01b031614611267576040516365f4906560e01b8152336004820152602401610b88565b610b9a816106aa565b806112796114c4565b6007016000611286611cff565b6001600160a01b03908116825260208083019390935260409182016000908120918716808252919093529120805460ff1916921515929092179091556112ca611cff565b6001600160a01b03167f17307eab39ab6107e8899845ad3d59bd9653f200f220920489ca2b5937696c3183604051611306911515815260200190565b60405180910390a35050565b6001600160a01b03811661133957604051636da3122b60e01b815260040160405180910390fd5b60008051602061330283398151915280546001600160a01b0319166001600160a01b0392909216919091179055565b611373848484610b9d565b6001600160a01b0383163b156113ac5761138f84848484611f0c565b6113ac576040516368d2bf6b60e11b815260040160405180910390fd5b50505050565b60006109356000805160206133a2833981519152546001600160a01b031690565b60606113de82611ffe565b6113fb57604051630a14c4b560e41b815260040160405180910390fd5b600061141260408051602081019091526000815290565b90508051600003611432576040518060200160405280600081525061145d565b8061143c8461203a565b60405160200161144d929190612fa6565b6040516020818303038152906040525b9392505050565b7f2d0d21306acfe8e9bb163a4573e95aff6cef95dc1102c6a16d5f19eac08cc4de54640100000000900460ff166114ae57604051630ef4733760e31b815260040160405180910390fd5b6108398282611e1a565b600061145d838361207e565b7f234d8962d7c9a6a6604d7f98797e6ad6d7a886804f7409feb26422e27bf8125490565b60006114f382611ffe565b611510576040516333d1c03960e21b815260040160405180910390fd5b6115186114c4565b60009283526006016020525060409020546001600160a01b031690565b600061154083610f34565b9050811561159657806001600160a01b031661155a611cff565b6001600160a01b0316146115965761157981611574611cff565b61207e565b611596576040516367d9dca160e11b815260040160405180910390fd5b8361159f6114c4565b6000858152600691909101602052604080822080546001600160a01b0319166001600160a01b0394851617905551859287811692908516917f8c5be1e5ebec7d5bd14f71427d1e84f3dd0314c0f7b2291e5b200ac8c7c3b9259190a450505050565b61161a60405180602001604052806000815250826120bb565b610b9a57604051630ce39a4b60e21b815260040160405180910390fd5b60006001600160a01b038216611660576040516323d3ad8160e21b815260040160405180910390fd5b6001600160401b036116706114c4565b6005016000846001600160a01b03166001600160a01b0316815260200190815260200160002054169050919050565b6000806116aa6114c4565b600101546116b66114c4565b540303919050565b60006116c86114c4565b54919050565b60006116e66000805160206133c28339815191525490565b9050806000036116f4575050565b6000805160206133828339815191525460408051630eac306d60e01b81529051600080516020613322833981519152926000926001600160a01b0390911691630eac306d916004808201926020929091908290030181865afa15801561175e573d6000803e3d6000fd5b505050506040513d601f19601f820116820180604052508101906117829190612f53565b9050808310156117a557604051635894b54560e11b815260040160405180910390fd5b6006820154604080516301332c8360e61b815290516000926001600160a01b031691634ccb20c09160048083019260209291908290030181865afa1580156117f1573d6000803e3d6000fd5b505050506040513d601f19601f820116820180604052508101906118159190612fd5565b905060008360060160009054906101000a90046001600160a01b03166001600160a01b0316639f6542aa6040518163ffffffff1660e01b8152600401602060405180830381865afa15801561186e573d6000803e3d6000fd5b505050506040513d601f19601f820116820180604052508101906118929190612ff2565b905060008460060160009054906101000a90046001600160a01b03166001600160a01b031663190eaaba6040518163ffffffff1660e01b8152600401602060405180830381865afa1580156118eb573d6000803e3d6000fd5b505050506040513d601f19601f8201168201806040525081019061190f9190612f53565b9050600061191d858861302c565b9050801561194c57848261193561ffff86168461303f565b61193f9190613056565b6119499190613078565b94505b6004860154611966906001600160a01b031689868861214d565b80600003611978575050505050505050565b600486015460058701546119a4916001600160a01b03908116918b911661199f898c61302c565b61214d565b5050505050505050565b610839828260405180602001604052806000815250612193565b6000805160206133828339815191525460408051634090785d60e11b815290516000926001600160a01b031691638120f0ba9160048083019260209291908290030181865afa158015611a1f573d6000803e3d6000fd5b505050506040513d601f19601f82011682018060405250810190610935919061308b565b60008281527f62df4f6c50e7f750c679c064ab345c286dd49de6e39940ae1538c75b44a0e3616020819052604082205490916001600160401b0390911690818103611a9957611a9284426130b4565b9050611acf565b611aa285612210565b611ac257604051637be9098d60e11b815260048101869052602401610b88565b611acc84836130b4565b90505b60008581526020848152604091829020805467ffffffffffffffff19166001600160401b038516908117909155915191825286917f2ec2be2c4b90c2cf13ecb6751a24daed6bb741ae5ed3f7371aabf9402f6d62e8910160405180910390a25050505050565b60009081527f62df4f6c50e7f750c679c064ab345c286dd49de6e39940ae1538c75b44a0e36160205260409020546001600160401b031690565b6040805180820182527f9bd0e1a7aef81c47cff971a2fee48406b20f55522326b2e2616c49c24aa506d0546001600160a01b03168082527f9bd0e1a7aef81c47cff971a2fee48406b20f55522326b2e2616c49c24aa506d154602080840182905284516331a9108f60e11b815260048101929092529351600094636352211e92602480820193918290030181865afa158015611c0f573d6000803e3d6000fd5b505050506040513d601f19601f82011682018060405250810190610b1e9190612fd5565b6000611c3d6114c4565b600083815260049190910160205260408120549150600160e01b82169003611cbe5780600003610a6557611c6f6114c4565b548210611c8f57604051636f96cda160e11b815260040160405180910390fd5b611c976114c4565b600019909201600081815260049390930160205260409092205490508015611c8f57919050565b604051636f96cda160e11b815260040160405180910390fd5b6000806000611ce46114c4565b60009485526006016020525050604090912080549092909150565b6000610935612247565b6113ac828460008281526000805160206133228339815191526020908152604080832080546001600160a01b0319166001600160a01b039590951694851790559282527f9b35df16c33a6c0e085c9ebd55fb367f81c58c2ed7e9bed98cc622f3308a600e90522055565b6001600160a01b031660009081527f9b35df16c33a6c0e085c9ebd55fb367f81c58c2ed7e9bed98cc622f3308a600e602052604090205490565b600080611db983610f34565b9050806001600160a01b0316611dcd612247565b6001600160a01b03161480611de95750611de981611574612247565b8061145d5750611df7612247565b6001600160a01b0316611e09846114e8565b6001600160a01b0316149392505050565b7f2d0d21306acfe8e9bb163a4573e95aff6cef95dc1102c6a16d5f19eac08cc4de54640100000000900460ff16611e6457604051630ef4733760e31b815260040160405180910390fd5b611e746380ac58cd60e01b612275565b611e84635b5e139f60e01b612275565b6108398282612353565b610b9a816000612385565b7f62df4f6c50e7f750c679c064ab345c286dd49de6e39940ae1538c75b44a0e361600082815260209182526040808220805467ffffffffffffffff191690555190815282917f2ec2be2c4b90c2cf13ecb6751a24daed6bb741ae5ed3f7371aabf9402f6d62e8910160405180910390a250565b6000836001600160a01b031663150b7a02611f25611cff565b8786866040518563ffffffff1660e01b8152600401611f4794939291906130db565b6020604051808303816000875af1925050508015611f82575060408051601f3d908101601f19168201909252611f7f91810190613118565b60015b611fe0573d808015611fb0576040519150601f19603f3d011682016040523d82523d6000602084013e611fb5565b606091505b508051600003611fd8576040516368d2bf6b60e11b815260040160405180910390fd5b805181602001fd5b6001600160e01b031916630a85bd0160e11b1490505b949350505050565b60006120086114c4565b54821080156108275750600160e01b61201f6114c4565b60008481526004919091016020526040902054161592915050565b606060a06040510180604052602081039150506000815280825b600183039250600a81066030018353600a9004806120545750819003601f19909101908152919050565b60006120886114c4565b6001600160a01b039384166000908152600791909101602090815260408083209490951682529290925250205460ff1690565b60006120c5611cff565b6001600160a01b03166120d6611b6f565b6001600160a01b0316148061145d57507ff421ea548af7158b1d71ba0aeccf57104c067038bd8fd214edd05c09eb4f735b5460ff1615801561145d575061145d8361211f611cff565b846040516020016121309190613142565b6040516020818303038152906040526121489061315e565b612506565b80156113ac5773eeeeeeeeeeeeeeeeeeeeeeeeeeeeeeeeeeeeeeed196001600160a01b0385160161218757612182828261262f565b6113ac565b6113ac848484846126d2565b61219d8383612725565b6001600160a01b0383163b15610dad5760006121b76114c4565b5490508281035b6121d16000868380600101945086611f0c565b6121ee576040516368d2bf6b60e11b815260040160405180910390fd5b8181106121be57816121fe6114c4565b541461220957600080fd5b5050505050565b60004261221b6119c8565b6001600160401b031661222e9190613078565b61223783611b35565b6001600160401b03161092915050565b60006014361080159061225e575061225e33610db2565b15612270575060131936013560601c90565b503390565b6001600160e01b0319811660009081527fbc7de460bcfb6afd0c415c8c610d408bd914b18d7d0feec0da9e25348087a5c4602052604090205460ff161515600114612302576001600160e01b0319811660009081527fbc7de460bcfb6afd0c415c8c610d408bd914b18d7d0feec0da9e25348087a5c460205260409020805460ff1916600117905561231b565b604051637967f77d60e11b815260040160405180910390fd5b6040516001600160e01b03198216907f78f84e5b1c5c05be2b5ad3800781dd404d6d6c6302bc755c0fe20f58a33a7f2290600090a250565b600061235d6114c4565b90506002810161236d84826131c8565b506003810161237c83826131c8565b50600090555050565b600061239083611c33565b90508060008061239f86611cd7565b9150915084156123e3576123b68184610bf8611cff565b6123e3576123c683611574611cff565b6123e357604051632ce44b5f60e11b815260040160405180910390fd5b6123f1836000886001611d09565b80156123fc57600082555b6fffffffffffffffffffffffffffffffff6124156114c4565b6001600160a01b038516600081815260059290920160205260409091208054929092019091554260a01b17600360e01b1761244e6114c4565b60008881526004919091016020526040812091909155600160e11b851690036124c4576001860161247d6114c4565b6000828152600491909101602052604081205490036124c25761249e6114c4565b5481146124c257846124ae6114c4565b600083815260049190910160205260409020555b505b60405186906000906001600160a01b03861690600080516020613362833981519152908390a46124f26114c4565b600190810180549091019055505050505050565b6000612510611b6f565b6001600160a01b0316836001600160a01b0316036125305750600161145d565b7f2df4f8e2489b335ef09ede56990b0838afbcdea6c639a41af44b533474fb8558600061257c7f2df4f8e2489b335ef09ede56990b0838afbcdea6c639a41af44b533474fb8559612849565b905060005b81811015612625576125966001840182612853565b6001600160a01b031662b4eaa88888886040518463ffffffff1660e01b81526004016125c493929190613287565b602060405180830381865afa1580156125e1573d6000803e3d6000fd5b505050506040513d601f19601f8201168201806040525081019061260591906132b5565b156126135760019350612625565b8061261d816132d2565b915050612581565b5050509392505050565b6000826001600160a01b03168260405160006040518083038185875af1925050503d806000811461267c576040519150601f19603f3d011682016040523d82523d6000602084013e612681565b606091505b5050905080610dad5760405162461bcd60e51b815260206004820152601c60248201527f6e617469766520746f6b656e207472616e73666572206661696c6564000000006044820152606401610b88565b816001600160a01b0316836001600160a01b031603156113ac57306001600160a01b03841603612710576121826001600160a01b038516838361285f565b6113ac6001600160a01b0385168484846128c2565b600061272f6114c4565b54905060008290036127545760405163b562e8dd60e01b815260040160405180910390fd5b6127616000848385611d09565b6801000000000000000182026127756114c4565b6001600160a01b038516600081815260059290920160205260409091208054929092019091554260a01b6001841460e11b17176127b06114c4565b600083815260049190910160205260408120919091556001600160a01b0384169083830190839083906000805160206133628339815191528180a4600183015b8181146128165780836000600080516020613362833981519152600080a46001016127f0565b508160000361283757604051622e076360e81b815260040160405180910390fd5b806128406114c4565b5550610dad9050565b6000610827825490565b600061145d83836128fa565b6040516001600160a01b038316602482015260448101829052610dad90849063a9059cbb60e01b906064015b60408051601f198184030181529190526020810180516001600160e01b03166001600160e01b031990931692909217909152612924565b6040516001600160a01b03808516602483015283166044820152606481018290526113ac9085906323b872dd60e01b9060840161288b565b6000826000018281548110612911576129116132eb565b9060005260206000200154905092915050565b6000612979826040518060400160405280602081526020017f5361666545524332303a206c6f772d6c6576656c2063616c6c206661696c6564815250856001600160a01b03166129f69092919063ffffffff16565b805190915015610dad578080602001905181019061299791906132b5565b610dad5760405162461bcd60e51b815260206004820152602a60248201527f5361666545524332303a204552433230206f7065726174696f6e20646964206e6044820152691bdd081cdd58d8d9595960b21b6064820152608401610b88565b6060611ff6848460008585600080866001600160a01b03168587604051612a1d9190613142565b60006040518083038185875af1925050503d8060008114612a5a576040519150601f19603f3d011682016040523d82523d6000602084013e612a5f565b606091505b5091509150612a7087838387612a7b565b979650505050505050565b60608315612aea578251600003612ae3576001600160a01b0385163b612ae35760405162461bcd60e51b815260206004820152601d60248201527f416464726573733a2063616c6c20746f206e6f6e2d636f6e74726163740000006044820152606401610b88565b5081611ff6565b611ff68383815115612aff5781518083602001fd5b8060405162461bcd60e51b8152600401610b889190612b82565b600060208284031215612b2b57600080fd5b5035919050565b60005b83811015612b4d578181015183820152602001612b35565b50506000910152565b60008151808452612b6e816020860160208601612b32565b601f01601f19169290920160200192915050565b60208152600061145d6020830184612b56565b6001600160a01b0381168114610b9a57600080fd5b8035610a6581612b95565b60008060408385031215612bc857600080fd5b8235612bd381612b95565b946020939093013593505050565b600060208284031215612bf357600080fd5b813561145d81612b95565b600080600060608486031215612c1357600080fd5b8335612c1e81612b95565b92506020840135612c2e81612b95565b929592945050506040919091013590565b634e487b7160e01b600052604160045260246000fd5b60405161010081016001600160401b0381118282101715612c7857612c78612c3f565b60405290565b60006001600160401b0380841115612c9857612c98612c3f565b604051601f8501601f19908116603f01168101908282118183101715612cc057612cc0612c3f565b81604052809350858152868686011115612cd957600080fd5b858560208301376000602087830101525050509392505050565b600082601f830112612d0457600080fd5b61145d83833560208501612c7e565b600060208284031215612d2557600080fd5b81356001600160401b0380821115612d3c57600080fd5b908301906101008286031215612d5157600080fd5b612d59612c55565b8235815260208301356020820152612d7360408401612baa565b6040820152612d8460608401612baa565b6060820152612d9560808401612baa565b6080820152612da660a08401612baa565b60a082015260c083013582811115612dbd57600080fd5b612dc987828601612cf3565b60c08301525060e083013582811115612de157600080fd5b612ded87828601612cf3565b60e08301525095945050505050565b8015158114610b9a57600080fd5b60008060408385031215612e1d57600080fd5b8235612e2881612b95565b91506020830135612e3881612dfc565b809150509250929050565b60008060008060808587031215612e5957600080fd5b8435612e6481612b95565b93506020850135612e7481612b95565b92506040850135915060608501356001600160401b03811115612e9657600080fd5b8501601f81018713612ea757600080fd5b612eb687823560208401612c7e565b91505092959194509250565b60008060408385031215612ed557600080fd5b82356001600160401b0380821115612eec57600080fd5b612ef886838701612cf3565b93506020850135915080821115612f0e57600080fd5b50612f1b85828601612cf3565b9150509250929050565b60008060408385031215612f3857600080fd5b8235612f4381612b95565b91506020830135612e3881612b95565b600060208284031215612f6557600080fd5b5051919050565b600181811c90821680612f8057607f821691505b602082108103612fa057634e487b7160e01b600052602260045260246000fd5b50919050565b60008351612fb8818460208801612b32565b835190830190612fcc818360208801612b32565b01949350505050565b600060208284031215612fe757600080fd5b815161145d81612b95565b60006020828403121561300457600080fd5b815161ffff8116811461145d57600080fd5b634e487b7160e01b600052601160045260246000fd5b8181038181111561082757610827613016565b808202811582820484141761082757610827613016565b60008261307357634e487b7160e01b600052601260045260246000fd5b500490565b8082018082111561082757610827613016565b60006020828403121561309d57600080fd5b81516001600160401b038116811461145d57600080fd5b6001600160401b038181168382160190808211156130d4576130d4613016565b5092915050565b6001600160a01b038581168252841660208201526040810183905260806060820181905260009061310e90830184612b56565b9695505050505050565b60006020828403121561312a57600080fd5b81516001600160e01b03198116811461145d57600080fd5b60008251613154818460208701612b32565b9190910192915050565b80516020808301519190811015612fa05760001960209190910360031b1b16919050565b601f821115610dad57600081815260208120601f850160051c810160208610156131a95750805b601f850160051c820191505b81811015610d8a578281556001016131b5565b81516001600160401b038111156131e1576131e1612c3f565b6131f5816131ef8454612f6c565b84613182565b602080601f83116001811461322a57600084156132125750858301515b600019600386901b1c1916600185901b178555610d8a565b600085815260208120601f198616915b828110156132595788860151825594840194600190910190840161323a565b50858210156132775787850151600019600388901b60f8161c191681555b5050505050600190811b01905550565b60608152600061329a6060830186612b56565b6001600160a01b039490941660208301525060400152919050565b6000602082840312156132c757600080fd5b815161145d81612dfc565b6000600182016132e4576132e4613016565b5060010190565b634e487b7160e01b600052603260045260246000fdfe9b35df16c33a6c0e085c9ebd55fb367f81c58c2ed7e9bed98cc622f3308a60119b35df16c33a6c0e085c9ebd55fb367f81c58c2ed7e9bed98cc622f3308a600d50b052c8fb38984269a818b2b593d0584a81b1b99245abc0fab04abc7afb010fddf252ad1be2c89b69c2b068fc378daa952ba7f163c4a11628f55a4df523b3ef9b35df16c33a6c0e085c9ebd55fb367f81c58c2ed7e9bed98cc622f3308a60139b35df16c33a6c0e085c9ebd55fb367f81c58c2ed7e9bed98cc622f3308a60129b35df16c33a6c0e085c9ebd55fb367f81c58c2ed7e9bed98cc622f3308a600f",
    "linkReferences": {}
  },
  "methodIdentifiers": {
    "__ERC721A_init(string,string)": "d2f01f19",
    "__Membership_init((uint256,uint256,address,address,address,address,string,string))": "6e43d05d",
    "_getMembershipCurrency()": "70251563",
    "_getMembershipFeeRecipient()": "1d214b4d",
    "_getMembershipLimit()": "1766bb7b",
    "_getMembershipPrice()": "1b3972f0",
    "_getTownFactory()": "5b312fce",
    "_setMembershipCurrency(address)": "b8307376",
    "_setMembershipFeeRecipient(address)": "62452006",
    "_setMembershipLimit(uint256)": "02b24da5",
    "_setMembershipPrice(uint256)": "0c3a01b1",
    "approve(address,uint256)": "095ea7b3",
    "balanceOf(address)": "70a08231",
    "cancelMembership(uint256)": "89def320",
    "expiresAt(uint256)": "17c95709",
    "getApproved(uint256)": "081812fc",
    "getMembershipCurrency()": "657e45e8",
    "getMembershipFeeRecipient()": "bf3bc878",
    "getMembershipLimit()": "95d600c8",
    "getMembershipPrice()": "1278076a",
    "getTownFactory()": "6340d096",
    "isApprovedForAll(address,address)": "e985e9c5",
    "isTrustedForwarder(address)": "572b6c05",
    "joinTown(address)": "16a344b4",
    "name()": "06fdde03",
    "ownerOf(uint256)": "6352211e",
    "renewMembership(address)": "61a9c7df",
    "safeTransferFrom(address,address,uint256)": "42842e0e",
    "safeTransferFrom(address,address,uint256,bytes)": "b88d4fde",
    "setApprovalForAll(address,bool)": "a22cb465",
    "setMembershipCurrency(address)": "7d0567c4",
    "setMembershipFeeRecipient(address)": "18e5da65",
    "setMembershipLimit(uint256)": "97fb7c1e",
    "setMembershipPrice(uint256)": "69d5f38a",
    "symbol()": "95d89b41",
    "tokenURI(uint256)": "c87b56dd",
    "totalSupply()": "18160ddd",
    "transferFrom(address,address,uint256)": "23b872dd"
  },
  "id": 177
}