{
  "abi": [
    {
      "inputs": [],
      "name": "ApprovalCallerNotOwnerNorApproved",
      "type": "error"
    },
    {
      "inputs": [],
      "name": "ApprovalQueryForNonexistentToken",
      "type": "error"
    },
    {
      "inputs": [],
      "name": "BalanceQueryForZeroAddress",
      "type": "error"
    },
    {
      "inputs": [],
      "name": "ERC5643__DurationZero",
      "type": "error"
    },
    {
      "inputs": [
        {
          "internalType": "uint256",
          "name": "tokenId",
          "type": "uint256"
        }
      ],
      "name": "ERC5643__InvalidTokenId",
      "type": "error"
    },
    {
      "inputs": [],
      "name": "ERC5643__NotApprovedOrOwner",
      "type": "error"
    },
    {
      "inputs": [
        {
          "internalType": "uint256",
          "name": "tokenId",
          "type": "uint256"
        }
      ],
      "name": "ERC5643__SubscriptionNotRenewable",
      "type": "error"
    },
    {
      "inputs": [],
      "name": "Entitlement__InvalidValue",
      "type": "error"
    },
    {
      "inputs": [],
      "name": "Entitlement__NotAllowed",
      "type": "error"
    },
    {
      "inputs": [],
      "name": "Entitlement__ValueAlreadyExists",
      "type": "error"
    },
    {
      "inputs": [],
      "name": "Initializable_InInitializingState",
      "type": "error"
    },
    {
      "inputs": [],
      "name": "Initializable_NotInInitializingState",
      "type": "error"
    },
    {
      "inputs": [],
      "name": "Introspection_AlreadySupported",
      "type": "error"
    },
    {
      "inputs": [],
      "name": "Introspection_NotSupported",
      "type": "error"
    },
    {
      "inputs": [],
      "name": "Membership__AlreadyMember",
      "type": "error"
    },
    {
      "inputs": [],
      "name": "Membership__InsufficientPayment",
      "type": "error"
    },
    {
      "inputs": [],
      "name": "Membership__InvalidAddress",
      "type": "error"
    },
    {
      "inputs": [],
      "name": "Membership__InvalidCurrency",
      "type": "error"
    },
    {
      "inputs": [],
      "name": "Membership__InvalidDuration",
      "type": "error"
    },
    {
      "inputs": [],
      "name": "Membership__InvalidFeeRecipient",
      "type": "error"
    },
    {
      "inputs": [],
      "name": "Membership__InvalidFreeAllocation",
      "type": "error"
    },
    {
      "inputs": [],
      "name": "Membership__InvalidLimit",
      "type": "error"
    },
    {
      "inputs": [],
      "name": "Membership__InvalidMaxSupply",
      "type": "error"
    },
    {
      "inputs": [],
      "name": "Membership__InvalidPrice",
      "type": "error"
    },
    {
      "inputs": [],
      "name": "Membership__InvalidPricingModule",
      "type": "error"
    },
    {
      "inputs": [],
      "name": "Membership__MaxSupplyReached",
      "type": "error"
    },
    {
      "inputs": [],
      "name": "Membership__PriceTooLow",
      "type": "error"
    },
    {
      "inputs": [],
      "name": "MintERC2309QuantityExceedsLimit",
      "type": "error"
    },
    {
      "inputs": [],
      "name": "MintToZeroAddress",
      "type": "error"
    },
    {
      "inputs": [],
      "name": "MintZeroQuantity",
      "type": "error"
    },
    {
      "inputs": [
        {
          "internalType": "address",
          "name": "account",
          "type": "address"
        }
      ],
      "name": "Ownable__NotOwner",
      "type": "error"
    },
    {
      "inputs": [],
      "name": "Ownable__ZeroAddress",
      "type": "error"
    },
    {
      "inputs": [],
      "name": "OwnerQueryForNonexistentToken",
      "type": "error"
    },
    {
      "inputs": [],
      "name": "OwnershipNotInitializedForExtraData",
      "type": "error"
    },
    {
      "inputs": [],
      "name": "Pausable__NotPaused",
      "type": "error"
    },
    {
      "inputs": [],
      "name": "Pausable__Paused",
      "type": "error"
    },
    {
      "inputs": [],
      "name": "ReentrancyGuard__ReentrantCall",
      "type": "error"
    },
    {
      "inputs": [],
      "name": "TransferCallerNotOwnerNorApproved",
      "type": "error"
    },
    {
      "inputs": [],
      "name": "TransferFromIncorrectOwner",
      "type": "error"
    },
    {
      "inputs": [],
      "name": "TransferToNonERC721ReceiverImplementer",
      "type": "error"
    },
    {
      "inputs": [],
      "name": "TransferToZeroAddress",
      "type": "error"
    },
    {
      "inputs": [],
      "name": "URIQueryForNonexistentToken",
      "type": "error"
    },
    {
      "anonymous": false,
      "inputs": [
        {
          "indexed": true,
          "internalType": "address",
          "name": "owner",
          "type": "address"
        },
        {
          "indexed": true,
          "internalType": "address",
          "name": "approved",
          "type": "address"
        },
        {
          "indexed": true,
          "internalType": "uint256",
          "name": "tokenId",
          "type": "uint256"
        }
      ],
      "name": "Approval",
      "type": "event"
    },
    {
      "anonymous": false,
      "inputs": [
        {
          "indexed": true,
          "internalType": "address",
          "name": "owner",
          "type": "address"
        },
        {
          "indexed": true,
          "internalType": "address",
          "name": "operator",
          "type": "address"
        },
        {
          "indexed": false,
          "internalType": "bool",
          "name": "approved",
          "type": "bool"
        }
      ],
      "name": "ApprovalForAll",
      "type": "event"
    },
    {
      "anonymous": false,
      "inputs": [
        {
          "indexed": true,
          "internalType": "uint256",
          "name": "fromTokenId",
          "type": "uint256"
        },
        {
          "indexed": false,
          "internalType": "uint256",
          "name": "toTokenId",
          "type": "uint256"
        },
        {
          "indexed": true,
          "internalType": "address",
          "name": "from",
          "type": "address"
        },
        {
          "indexed": true,
          "internalType": "address",
          "name": "to",
          "type": "address"
        }
      ],
      "name": "ConsecutiveTransfer",
      "type": "event"
    },
    {
      "anonymous": false,
      "inputs": [
        {
          "indexed": false,
          "internalType": "uint32",
          "name": "version",
          "type": "uint32"
        }
      ],
      "name": "Initialized",
      "type": "event"
    },
    {
      "anonymous": false,
      "inputs": [
        {
          "indexed": true,
          "internalType": "bytes4",
          "name": "interfaceId",
          "type": "bytes4"
        }
      ],
      "name": "InterfaceAdded",
      "type": "event"
    },
    {
      "anonymous": false,
      "inputs": [
        {
          "indexed": true,
          "internalType": "bytes4",
          "name": "interfaceId",
          "type": "bytes4"
        }
      ],
      "name": "InterfaceRemoved",
      "type": "event"
    },
    {
      "anonymous": false,
      "inputs": [
        {
          "indexed": true,
          "internalType": "address",
          "name": "currency",
          "type": "address"
        }
      ],
      "name": "MembershipCurrencyUpdated",
      "type": "event"
    },
    {
      "anonymous": false,
      "inputs": [
        {
          "indexed": true,
          "internalType": "address",
          "name": "recipient",
          "type": "address"
        }
      ],
      "name": "MembershipFeeRecipientUpdated",
      "type": "event"
    },
    {
      "anonymous": false,
      "inputs": [
        {
          "indexed": true,
          "internalType": "uint256",
          "name": "allocation",
          "type": "uint256"
        }
      ],
      "name": "MembershipFreeAllocationUpdated",
      "type": "event"
    },
    {
      "anonymous": false,
      "inputs": [
        {
          "indexed": true,
          "internalType": "uint256",
          "name": "limit",
          "type": "uint256"
        }
      ],
      "name": "MembershipLimitUpdated",
      "type": "event"
    },
    {
      "anonymous": false,
      "inputs": [
        {
          "indexed": true,
          "internalType": "uint256",
          "name": "price",
          "type": "uint256"
        }
      ],
      "name": "MembershipPriceUpdated",
      "type": "event"
    },
    {
      "anonymous": false,
      "inputs": [
        {
          "indexed": true,
          "internalType": "address",
          "name": "previousOwner",
          "type": "address"
        },
        {
          "indexed": true,
          "internalType": "address",
          "name": "newOwner",
          "type": "address"
        }
      ],
      "name": "OwnershipTransferred",
      "type": "event"
    },
    {
      "anonymous": false,
      "inputs": [
        {
          "indexed": false,
          "internalType": "address",
          "name": "account",
          "type": "address"
        }
      ],
      "name": "Paused",
      "type": "event"
    },
    {
      "anonymous": false,
      "inputs": [
        {
          "indexed": true,
          "internalType": "uint256",
          "name": "tokenId",
          "type": "uint256"
        },
        {
          "indexed": false,
          "internalType": "uint64",
          "name": "expiration",
          "type": "uint64"
        }
      ],
      "name": "SubscriptionUpdate",
      "type": "event"
    },
    {
      "anonymous": false,
      "inputs": [
        {
          "indexed": true,
          "internalType": "address",
          "name": "from",
          "type": "address"
        },
        {
          "indexed": true,
          "internalType": "address",
          "name": "to",
          "type": "address"
        },
        {
          "indexed": true,
          "internalType": "uint256",
          "name": "tokenId",
          "type": "uint256"
        }
      ],
      "name": "Transfer",
      "type": "event"
    },
    {
      "anonymous": false,
      "inputs": [
        {
          "indexed": false,
          "internalType": "address",
          "name": "account",
          "type": "address"
        }
      ],
      "name": "Unpaused",
      "type": "event"
    },
    {
      "inputs": [
        {
          "internalType": "string",
          "name": "name_",
          "type": "string"
        },
        {
          "internalType": "string",
          "name": "symbol_",
          "type": "string"
        }
      ],
      "name": "__ERC721A_init",
      "outputs": [],
      "stateMutability": "nonpayable",
      "type": "function"
    },
    {
      "inputs": [
        {
          "components": [
            {
              "internalType": "string",
              "name": "name",
              "type": "string"
            },
            {
              "internalType": "string",
              "name": "symbol",
              "type": "string"
            },
            {
              "internalType": "uint256",
              "name": "price",
              "type": "uint256"
            },
            {
              "internalType": "uint256",
              "name": "maxSupply",
              "type": "uint256"
            },
            {
              "internalType": "uint64",
              "name": "duration",
              "type": "uint64"
            },
            {
              "internalType": "address",
              "name": "currency",
              "type": "address"
            },
            {
              "internalType": "address",
              "name": "feeRecipient",
              "type": "address"
            },
            {
              "internalType": "uint256",
              "name": "freeAllocation",
              "type": "uint256"
            },
            {
              "internalType": "address",
              "name": "pricingModule",
              "type": "address"
            }
          ],
          "internalType": "struct IMembershipBase.MembershipInfo",
          "name": "info",
          "type": "tuple"
        },
        {
          "internalType": "address",
          "name": "townFactory",
          "type": "address"
        }
      ],
      "name": "__Membership_init",
      "outputs": [],
      "stateMutability": "nonpayable",
      "type": "function"
    },
    {
      "inputs": [],
      "name": "_getMembershipCurrency",
      "outputs": [
        {
          "internalType": "address",
          "name": "",
          "type": "address"
        }
      ],
      "stateMutability": "view",
      "type": "function"
    },
    {
      "inputs": [],
      "name": "_getMembershipFeeRecipient",
      "outputs": [
        {
          "internalType": "address",
          "name": "",
          "type": "address"
        }
      ],
      "stateMutability": "view",
      "type": "function"
    },
    {
      "inputs": [],
      "name": "_getMembershipFreeAllocation",
      "outputs": [
        {
          "internalType": "uint256",
          "name": "",
          "type": "uint256"
        }
      ],
      "stateMutability": "view",
      "type": "function"
    },
    {
      "inputs": [
        {
          "internalType": "uint256",
          "name": "totalMinted",
          "type": "uint256"
        }
      ],
      "name": "_getMembershipPrice",
      "outputs": [
        {
          "internalType": "uint256",
          "name": "",
          "type": "uint256"
        }
      ],
      "stateMutability": "view",
      "type": "function"
    },
    {
      "inputs": [],
      "name": "_getMembershipSupplyLimit",
      "outputs": [
        {
          "internalType": "uint256",
          "name": "",
          "type": "uint256"
        }
      ],
      "stateMutability": "view",
      "type": "function"
    },
    {
      "inputs": [],
      "name": "_getPricingModule",
      "outputs": [
        {
          "internalType": "address",
          "name": "",
          "type": "address"
        }
      ],
      "stateMutability": "view",
      "type": "function"
    },
    {
      "inputs": [],
      "name": "_getTownFactory",
      "outputs": [
        {
          "internalType": "address",
          "name": "",
          "type": "address"
        }
      ],
      "stateMutability": "view",
      "type": "function"
    },
    {
      "inputs": [
        {
          "internalType": "address",
          "name": "newCurrency",
          "type": "address"
        }
      ],
      "name": "_setMembershipCurrency",
      "outputs": [],
      "stateMutability": "nonpayable",
      "type": "function"
    },
    {
      "inputs": [
        {
          "internalType": "address",
          "name": "newRecipient",
          "type": "address"
        }
      ],
      "name": "_setMembershipFeeRecipient",
      "outputs": [],
      "stateMutability": "nonpayable",
      "type": "function"
    },
    {
      "inputs": [
        {
          "internalType": "uint256",
          "name": "newAllocation",
          "type": "uint256"
        }
      ],
      "name": "_setMembershipFreeAllocation",
      "outputs": [],
      "stateMutability": "nonpayable",
      "type": "function"
    },
    {
      "inputs": [
        {
          "internalType": "uint256",
          "name": "newPrice",
          "type": "uint256"
        }
      ],
      "name": "_setMembershipPrice",
      "outputs": [],
      "stateMutability": "nonpayable",
      "type": "function"
    },
    {
      "inputs": [
        {
          "internalType": "uint256",
          "name": "newLimit",
          "type": "uint256"
        }
      ],
      "name": "_setMembershipSupplyLimit",
      "outputs": [],
      "stateMutability": "nonpayable",
      "type": "function"
    },
    {
      "inputs": [
        {
          "internalType": "address",
          "name": "newPricingModule",
          "type": "address"
        }
      ],
      "name": "_setPricingModule",
      "outputs": [],
      "stateMutability": "nonpayable",
      "type": "function"
    },
    {
      "inputs": [
        {
          "internalType": "address",
          "name": "to",
          "type": "address"
        },
        {
          "internalType": "uint256",
          "name": "tokenId",
          "type": "uint256"
        }
      ],
      "name": "approve",
      "outputs": [],
      "stateMutability": "payable",
      "type": "function"
    },
    {
      "inputs": [
        {
          "internalType": "address",
          "name": "account",
          "type": "address"
        }
      ],
      "name": "balanceOf",
      "outputs": [
        {
          "internalType": "uint256",
          "name": "",
          "type": "uint256"
        }
      ],
      "stateMutability": "view",
      "type": "function"
    },
    {
      "inputs": [
        {
          "internalType": "uint256",
          "name": "tokenId",
          "type": "uint256"
        }
      ],
      "name": "cancelMembership",
      "outputs": [],
      "stateMutability": "nonpayable",
      "type": "function"
    },
    {
      "inputs": [
        {
          "internalType": "uint256",
          "name": "tokenId",
          "type": "uint256"
        }
      ],
      "name": "expiresAt",
      "outputs": [
        {
          "internalType": "uint256",
          "name": "",
          "type": "uint256"
        }
      ],
      "stateMutability": "view",
      "type": "function"
    },
    {
      "inputs": [
        {
          "internalType": "uint256",
          "name": "tokenId",
          "type": "uint256"
        }
      ],
      "name": "getApproved",
      "outputs": [
        {
          "internalType": "address",
          "name": "",
          "type": "address"
        }
      ],
      "stateMutability": "view",
      "type": "function"
    },
    {
      "inputs": [],
      "name": "getMembershipCurrency",
      "outputs": [
        {
          "internalType": "address",
          "name": "",
          "type": "address"
        }
      ],
      "stateMutability": "view",
      "type": "function"
    },
    {
      "inputs": [],
      "name": "getMembershipDuration",
      "outputs": [
        {
          "internalType": "uint64",
          "name": "",
          "type": "uint64"
        }
      ],
      "stateMutability": "view",
      "type": "function"
    },
    {
      "inputs": [],
      "name": "getMembershipFeeRecipient",
      "outputs": [
        {
          "internalType": "address",
          "name": "",
          "type": "address"
        }
      ],
      "stateMutability": "view",
      "type": "function"
    },
    {
      "inputs": [],
      "name": "getMembershipFreeAllocation",
      "outputs": [
        {
          "internalType": "uint256",
          "name": "",
          "type": "uint256"
        }
      ],
      "stateMutability": "view",
      "type": "function"
    },
    {
      "inputs": [],
      "name": "getMembershipLimit",
      "outputs": [
        {
          "internalType": "uint256",
          "name": "",
          "type": "uint256"
        }
      ],
      "stateMutability": "view",
      "type": "function"
    },
    {
      "inputs": [],
      "name": "getMembershipPrice",
      "outputs": [
        {
          "internalType": "uint256",
          "name": "",
          "type": "uint256"
        }
      ],
      "stateMutability": "view",
      "type": "function"
    },
    {
      "inputs": [],
      "name": "getMembershipPricingModule",
      "outputs": [
        {
          "internalType": "address",
          "name": "",
          "type": "address"
        }
      ],
      "stateMutability": "view",
      "type": "function"
    },
    {
      "inputs": [],
      "name": "getTownFactory",
      "outputs": [
        {
          "internalType": "address",
          "name": "",
          "type": "address"
        }
      ],
      "stateMutability": "view",
      "type": "function"
    },
    {
      "inputs": [
        {
          "internalType": "address",
          "name": "owner",
          "type": "address"
        },
        {
          "internalType": "address",
          "name": "operator",
          "type": "address"
        }
      ],
      "name": "isApprovedForAll",
      "outputs": [
        {
          "internalType": "bool",
          "name": "",
          "type": "bool"
        }
      ],
      "stateMutability": "view",
      "type": "function"
    },
    {
      "inputs": [
        {
          "internalType": "address",
          "name": "receiver",
          "type": "address"
        }
      ],
      "name": "joinTown",
      "outputs": [
        {
          "internalType": "uint256",
          "name": "tokenId",
          "type": "uint256"
        }
      ],
      "stateMutability": "payable",
      "type": "function"
    },
    {
      "inputs": [],
      "name": "name",
      "outputs": [
        {
          "internalType": "string",
          "name": "",
          "type": "string"
        }
      ],
      "stateMutability": "view",
      "type": "function"
    },
    {
      "inputs": [
        {
          "internalType": "uint256",
          "name": "tokenId",
          "type": "uint256"
        }
      ],
      "name": "ownerOf",
      "outputs": [
        {
          "internalType": "address",
          "name": "",
          "type": "address"
        }
      ],
      "stateMutability": "view",
      "type": "function"
    },
    {
      "inputs": [
        {
          "internalType": "address",
          "name": "receiver",
          "type": "address"
        }
      ],
      "name": "renewMembership",
      "outputs": [],
      "stateMutability": "payable",
      "type": "function"
    },
    {
      "inputs": [
        {
          "internalType": "address",
          "name": "from",
          "type": "address"
        },
        {
          "internalType": "address",
          "name": "to",
          "type": "address"
        },
        {
          "internalType": "uint256",
          "name": "tokenId",
          "type": "uint256"
        }
      ],
      "name": "safeTransferFrom",
      "outputs": [],
      "stateMutability": "payable",
      "type": "function"
    },
    {
      "inputs": [
        {
          "internalType": "address",
          "name": "from",
          "type": "address"
        },
        {
          "internalType": "address",
          "name": "to",
          "type": "address"
        },
        {
          "internalType": "uint256",
          "name": "tokenId",
          "type": "uint256"
        },
        {
          "internalType": "bytes",
          "name": "_data",
          "type": "bytes"
        }
      ],
      "name": "safeTransferFrom",
      "outputs": [],
      "stateMutability": "payable",
      "type": "function"
    },
    {
      "inputs": [
        {
          "internalType": "address",
          "name": "operator",
          "type": "address"
        },
        {
          "internalType": "bool",
          "name": "approved",
          "type": "bool"
        }
      ],
      "name": "setApprovalForAll",
      "outputs": [],
      "stateMutability": "nonpayable",
      "type": "function"
    },
    {
      "inputs": [
        {
          "internalType": "address",
          "name": "newCurrency",
          "type": "address"
        }
      ],
      "name": "setMembershipCurrency",
      "outputs": [],
      "stateMutability": "nonpayable",
      "type": "function"
    },
    {
      "inputs": [
        {
          "internalType": "uint64",
          "name": "newDuration",
          "type": "uint64"
        }
      ],
      "name": "setMembershipDuration",
      "outputs": [],
      "stateMutability": "nonpayable",
      "type": "function"
    },
    {
      "inputs": [
        {
          "internalType": "address",
          "name": "newRecipient",
          "type": "address"
        }
      ],
      "name": "setMembershipFeeRecipient",
      "outputs": [],
      "stateMutability": "nonpayable",
      "type": "function"
    },
    {
      "inputs": [
        {
          "internalType": "uint256",
          "name": "newAllocation",
          "type": "uint256"
        }
      ],
      "name": "setMembershipFreeAllocation",
      "outputs": [],
      "stateMutability": "nonpayable",
      "type": "function"
    },
    {
      "inputs": [
        {
          "internalType": "uint256",
          "name": "newLimit",
          "type": "uint256"
        }
      ],
      "name": "setMembershipLimit",
      "outputs": [],
      "stateMutability": "nonpayable",
      "type": "function"
    },
    {
      "inputs": [
        {
          "internalType": "uint256",
          "name": "newPrice",
          "type": "uint256"
        }
      ],
      "name": "setMembershipPrice",
      "outputs": [],
      "stateMutability": "nonpayable",
      "type": "function"
    },
    {
      "inputs": [
        {
          "internalType": "address",
          "name": "pricingModule",
          "type": "address"
        }
      ],
      "name": "setMembershipPricingModule",
      "outputs": [],
      "stateMutability": "nonpayable",
      "type": "function"
    },
    {
      "inputs": [],
      "name": "symbol",
      "outputs": [
        {
          "internalType": "string",
          "name": "",
          "type": "string"
        }
      ],
      "stateMutability": "view",
      "type": "function"
    },
    {
      "inputs": [
        {
          "internalType": "uint256",
          "name": "tokenId",
          "type": "uint256"
        }
      ],
      "name": "tokenURI",
      "outputs": [
        {
          "internalType": "string",
          "name": "",
          "type": "string"
        }
      ],
      "stateMutability": "view",
      "type": "function"
    },
    {
      "inputs": [],
      "name": "totalSupply",
      "outputs": [
        {
          "internalType": "uint256",
          "name": "",
          "type": "uint256"
        }
      ],
      "stateMutability": "view",
      "type": "function"
    },
    {
      "inputs": [
        {
          "internalType": "address",
          "name": "from",
          "type": "address"
        },
        {
          "internalType": "address",
          "name": "to",
          "type": "address"
        },
        {
          "internalType": "uint256",
          "name": "tokenId",
          "type": "uint256"
        }
      ],
      "name": "transferFrom",
      "outputs": [],
      "stateMutability": "payable",
      "type": "function"
    }
  ],
  "bytecode": {
    "object": "0x60806040523480156200001157600080fd5b506200001c62000022565b620000ca565b7f2d0d21306acfe8e9bb163a4573e95aff6cef95dc1102c6a16d5f19eac08cc4de8054640100000000900460ff16156200006f576040516366008a2d60e01b815260040160405180910390fd5b805463ffffffff9081161015620000c757805463ffffffff191663ffffffff90811782556040519081527fe9c9b456cb2994b80aeef036cf59d26e9617df80f816a6ee5a5b4166e07e2f5c9060200160405180910390a15b50565b61383d80620000da6000396000f3fe6080604052600436106102885760003560e01c8063702515631161015a578063a22cb465116100c1578063c87b56dd1161007a578063c87b56dd14610705578063d2f01f1914610725578063df9a9fe614610745578063e847abdd14610765578063e985e9c51461077a578063f9d5d22c146107aa57600080fd5b8063a22cb46514610673578063ac7ee62614610693578063b3a5be6d146106a8578063b8307376146106bd578063b88d4fde146106dd578063bf3bc878146106f057600080fd5b806383f3f0dc1161011357806383f3f0dc146105d45780638934207f146105f457806389def3201461060957806395d600c81461062957806395d89b411461063e57806397fb7c1e1461065357600080fd5b8063702515631461051d578063706b8e091461053257806370a082311461054757806373fc5a05146105675780637d0567c4146105875780638120f0ba146105a757600080fd5b80633ded10de116101fe57806362452006116101b757806362452006146104735780636340d096146104935780636352211e146104a8578063657e45e8146104c857806369d5f38a146104dd57806369d9346b146104fd57600080fd5b80633ded10de146103d857806342842e0e146103f85780634c2abfbe1461040b5780635b312fce1461042b5780635becd24a1461044057806361a9c7df1461046057600080fd5b806316a344b41161025057806316a344b41461034857806317c957091461035b57806318160ddd1461037b57806318e5da65146103905780631d214b4d146103b057806323b872dd146103c557600080fd5b806306fdde031461028d578063081812fc146102b8578063095ea7b3146102f05780630c3a01b1146103055780631278076a14610325575b600080fd5b34801561029957600080fd5b506102a26107ca565b6040516102af9190613013565b60405180910390f35b3480156102c457600080fd5b506102d86102d3366004613026565b610865565b6040516001600160a01b0390911681526020016102af565b6103036102fe36600461305f565b610876565b005b34801561031157600080fd5b50610303610320366004613026565b610886565b34801561033157600080fd5b5061033a61092b565b6040519081526020016102af565b61033a61035636600461308b565b61093d565b34801561036757600080fd5b5061033a610376366004613026565b610a6e565b34801561038757600080fd5b5061033a610a88565b34801561039c57600080fd5b506103036103ab36600461308b565b610a92565b3480156103bc57600080fd5b506102d8610ae7565b6103036103d33660046130a8565b610b03565b3480156103e457600080fd5b5061033a6103f3366004613026565b610cf5565b6103036104063660046130a8565b610daa565b34801561041757600080fd5b506103036104263660046131dd565b610dca565b34801561043757600080fd5b506102d8610e30565b34801561044c57600080fd5b5061030361045b366004613026565b610e4c565b61030361046e36600461308b565b610ed1565b34801561047f57600080fd5b5061030361048e36600461308b565b610fa2565b34801561049f57600080fd5b506102d8610fcf565b3480156104b457600080fd5b506102d86104c3366004613026565b610fd9565b3480156104d457600080fd5b506102d8610fe4565b3480156104e957600080fd5b506103036104f8366004613026565b610fee565b34801561050957600080fd5b5061030361051836600461308b565b61104b565b34801561052957600080fd5b506102d8611078565b34801561053e57600080fd5b5061033a611094565b34801561055357600080fd5b5061033a61056236600461308b565b61109e565b34801561057357600080fd5b50610303610582366004613026565b6110d1565b34801561059357600080fd5b506103036105a236600461308b565b6110e1565b3480156105b357600080fd5b506105bc61112e565b6040516001600160401b0390911681526020016102af565b3480156105e057600080fd5b506103036105ef3660046132e6565b611138565b34801561060057600080fd5b5061033a611185565b34801561061557600080fd5b50610303610624366004613026565b611198565b34801561063557600080fd5b5061033a61122e565b34801561064a57600080fd5b506102a2611238565b34801561065f57600080fd5b5061030361066e366004613026565b611250565b34801561067f57600080fd5b5061030361068e366004613311565b6112a5565b34801561069f57600080fd5b506102d8611322565b3480156106b457600080fd5b5061033a61133e565b3480156106c957600080fd5b506103036106d836600461308b565b6113e0565b6103036106eb36600461334a565b61140d565b3480156106fc57600080fd5b506102d8611457565b34801561071157600080fd5b506102a2610720366004613026565b611461565b34801561073157600080fd5b506103036107403660046133c9565b6114f1565b34801561075157600080fd5b5061030361076036600461308b565b611545565b34801561077157600080fd5b506102d86115b9565b34801561078657600080fd5b5061079a61079536600461342c565b6115c3565b60405190151581526020016102af565b3480156107b657600080fd5b506103036107c5366004613026565b6115cf565b60606107d4611612565b60020180546107e29061345a565b80601f016020809104026020016040519081016040528092919081815260200182805461080e9061345a565b801561085b5780601f106108305761010080835404028352916020019161085b565b820191906000526020600020905b81548152906001019060200180831161083e57829003601f168201915b5050505050905090565b600061087082611636565b92915050565b61088282826001611683565b5050565b6000610890610e30565b90506000816001600160a01b0316630eac306d6040518163ffffffff1660e01b8152600401602060405180830381865afa1580156108d2573d6000803e3d6000fd5b505050506040513d601f19601f820116820180604052508101906108f69190613494565b90508083101561091957604051631a23d64760e11b815260040160405180910390fd5b82610922611738565b60020155505050565b60006109386103f361175c565b905090565b600060026000805160206137fd833981519152540361096f57604051635db5c7cd60e11b815260040160405180910390fd5b61098660026000805160206137fd83398151915255565b6109af604051806040016040528060088152602001672537b4b72a37bbb760c11b81525061176e565b60006109ba836117a4565b11156109d9576040516316d9a23f60e31b815260040160405180910390fd5b6109e1611185565b158015906109fd57506109f2611185565b6109fa61180c565b10155b15610a1b57604051637efcdb4960e01b815260040160405180910390fd5b610a2361182b565b9050610a3682610a3161175c565b61183b565b610a41826001611a41565b610a5281610a4d611a5b565b611b15565b610a6960016000805160206137fd83398151915255565b919050565b6000610a7982611c07565b6001600160401b031692915050565b600061093861180c565b610a9a611c41565b6001600160a01b0316336001600160a01b031614610ad2576040516365f4906560e01b81523360048201526024015b60405180910390fd5b610adb81611d05565b610ae481610fa2565b50565b6000610af1611738565b600501546001600160a01b0316919050565b6000610b0e82611d2c565b9050836001600160a01b0316816001600160a01b031614610b415760405162a1148160e81b815260040160405180910390fd5b600080610b4d84611dd0565b91509150610b728187610b5d3390565b6001600160a01b039081169116811491141790565b610b9d57610b8086336115c3565b610b9d57604051632ce44b5f60e11b815260040160405180910390fd5b6001600160a01b038516610bc457604051633a954ecd60e21b815260040160405180910390fd5b610bd18686866001611df8565b8015610bdc57600082555b610be4611612565b6001600160a01b0387166000908152600591909101602052604090208054600019019055610c10611612565b6001600160a01b03861660008181526005929092016020526040909120805460010190554260a01b17600160e11b17610c47611612565b60008681526004919091016020526040812091909155600160e11b84169003610cbd5760018401610c76611612565b600082815260049190910160205260408120549003610cbb57610c97611612565b548114610cbb5783610ca7611612565b600083815260049190910160205260409020555b505b83856001600160a01b0316876001600160a01b031660008051602061381d83398151915260405160405180910390a45b505050505050565b600080610d00611738565b60088101549091506001600160a01b031615610da05760088101546001600160a01b0316635cf4ee91610d3161133e565b856040518363ffffffff1660e01b8152600401610d58929190918252602082015260400190565b602060405180830381865afa158015610d75573d6000803e3d6000fd5b505050506040513d601f19601f82011682018060405250810190610d999190613494565b9392505050565b6002015492915050565b610dc58383836040518060200160405280600081525061140d565b505050565b7f2d0d21306acfe8e9bb163a4573e95aff6cef95dc1102c6a16d5f19eac08cc4de54640100000000900460ff16610e1457604051630ef4733760e31b815260040160405180910390fd5b610e1e8282611e02565b61088282600001518360200151611f37565b6000610e3a611738565b600601546001600160a01b0316919050565b610e54611c41565b6001600160a01b0316336001600160a01b031614610e87576040516365f4906560e01b8152336004820152602401610ac9565b6000610e91611185565b90508015801590610ea157508082115b15610ebf5760405163c3983b9160e01b815260040160405180910390fd5b610ec882611fab565b610882826115cf565b60026000805160206137fd8339815191525403610f0157604051635db5c7cd60e11b815260040160405180910390fd5b610f1860026000805160206137fd83398151915255565b6001600160a01b038116610f3f57604051635fbd571760e01b815260040160405180910390fd5b6000610f4a82612050565b9050610f558161207c565b610f72576040516367d9dca160e11b815260040160405180910390fd5b610f7e82610a3161175c565b610f8a81610a4d611a5b565b50610ae460016000805160206137fd83398151915255565b80610fab611738565b60050180546001600160a01b0319166001600160a01b039290921691909117905550565b6000610938610e30565b600061087082611d2c565b6000610938611078565b610ff6611c41565b6001600160a01b0316336001600160a01b031614611029576040516365f4906560e01b8152336004820152602401610ac9565b611039611034611078565b6120d3565b611042816120fa565b610ae481610886565b80611054611738565b60080180546001600160a01b0319166001600160a01b039290921691909117905550565b6000611082611738565b600401546001600160a01b0316919050565b600061093861133e565b6000426110b26110ad84612050565b611c07565b6001600160401b0316116110c857506000919050565b610870826117a4565b806110da611738565b6003015550565b6110e9611c41565b6001600160a01b0316336001600160a01b03161461111c576040516365f4906560e01b8152336004820152602401610ac9565b611125816120d3565b610ae4816113e0565b6000610938611a5b565b611140611c41565b6001600160a01b0316336001600160a01b031614611173576040516365f4906560e01b8152336004820152602401610ac9565b61117c81612188565b610ae481612223565b600061118f611738565b60030154905090565b60026000805160206137fd83398151915254036111c857604051635db5c7cd60e11b815260040160405180910390fd5b6111df60026000805160206137fd83398151915255565b6111e88161207c565b611205576040516367d9dca160e11b815260040160405180910390fd5b61120e81612256565b61121781612261565b610ae460016000805160206137fd83398151915255565b6000610938611185565b6060611242611612565b60030180546107e29061345a565b611258611c41565b6001600160a01b0316336001600160a01b03161461128b576040516365f4906560e01b8152336004820152602401610ac9565b61129c8161129761180c565b6122d4565b610ae4816110d1565b806112ae611612565b336000818152600792909201602090815260408084206001600160a01b03881680865290835293819020805460ff19169515159590951790945592518415158152919290917f17307eab39ab6107e8899845ad3d59bd9653f200f220920489ca2b5937696c31910160405180910390a35050565b600061132c611738565b600801546001600160a01b0316919050565b600080611349611738565b600701549050801561135a57919050565b611362611738565b60060160009054906101000a90046001600160a01b03166001600160a01b0316632cbb9d136040518163ffffffff1660e01b8152600401602060405180830381865afa1580156113b6573d6000803e3d6000fd5b505050506040513d601f19601f820116820180604052508101906113da9190613494565b91505090565b806113e9611738565b60040180546001600160a01b0319166001600160a01b039290921691909117905550565b611418848484610b03565b6001600160a01b0383163b15611451576114348484848461231c565b611451576040516368d2bf6b60e11b815260040160405180910390fd5b50505050565b6000610938610ae7565b606061146c82612407565b61148957604051630a14c4b560e41b815260040160405180910390fd5b60006114a060408051602081019091526000815290565b905080516000036114c05760405180602001604052806000815250610d99565b806114ca84612443565b6040516020016114db9291906134ad565b6040516020818303038152906040529392505050565b7f2d0d21306acfe8e9bb163a4573e95aff6cef95dc1102c6a16d5f19eac08cc4de54640100000000900460ff1661153b57604051630ef4733760e31b815260040160405180910390fd5b6108828282611f37565b61154d611c41565b6001600160a01b0316336001600160a01b031614611580576040516365f4906560e01b8152336004820152602401610ac9565b6001600160a01b0381166115a757604051630e88bf4b60e01b815260040160405180910390fd5b6115b081612487565b610ae48161104b565b6000610938611322565b6000610d998383612524565b60006115d9611738565b6007810183905560405190915082907fab14a23e88fb272313490d4f20d63098e64fd38304c0e07a377db98c2b39b92f90600090a25050565b7f234d8962d7c9a6a6604d7f98797e6ad6d7a886804f7409feb26422e27bf8125490565b600061164182612407565b61165e576040516333d1c03960e21b815260040160405180910390fd5b611666611612565b60009283526006016020525060409020546001600160a01b031690565b600061168e83610fd9565b905081156116cd57336001600160a01b038216146116cd576116b08133612524565b6116cd576040516367d9dca160e11b815260040160405180910390fd5b836116d6611612565b6000858152600691909101602052604080822080546001600160a01b0319166001600160a01b0394851617905551859287811692908516917f8c5be1e5ebec7d5bd14f71427d1e84f3dd0314c0f7b2291e5b200ac8c7c3b9259190a450505050565b7f9b35df16c33a6c0e085c9ebd55fb367f81c58c2ed7e9bed98cc622f3308a600d90565b600080611767611612565b5403919050565b6117876040518060200160405280600081525082612561565b610ae457604051630ce39a4b60e21b815260040160405180910390fd5b60006001600160a01b0382166117cd576040516323d3ad8160e21b815260040160405180910390fd5b6001600160401b036117dd611612565b6005016000846001600160a01b03166001600160a01b0316815260200190815260200160002054169050919050565b600080611817611612565b60010154611823611612565b540303919050565b6000611835611612565b54919050565b600061184682610cf5565b90508060000361185557505050565b600061185f611738565b905060008160060160009054906101000a90046001600160a01b031690506000816001600160a01b0316634ccb20c06040518163ffffffff1660e01b8152600401602060405180830381865afa1580156118bd573d6000803e3d6000fd5b505050506040513d601f19601f820116820180604052508101906118e191906134dc565b90506000826001600160a01b0316639f6542aa6040518163ffffffff1660e01b8152600401602060405180830381865afa158015611923573d6000803e3d6000fd5b505050506040513d601f19601f8201168201806040525081019061194791906134f9565b90506000836001600160a01b031663190eaaba6040518163ffffffff1660e01b8152600401602060405180830381865afa158015611989573d6000803e3d6000fd5b505050506040513d601f19601f820116820180604052508101906119ad9190613494565b90506000816119c061ffff851689613533565b6119ca919061354a565b905060006119d8828961356c565b60048801549091506119f5906001600160a01b03168b87856125dd565b80600003611a095750505050505050505050565b60048701546005880154611a35916001600160a01b03908116918d9116611a30868d61356c565b6125dd565b50505050505050505050565b610882828260405180602001604052806000815250612623565b600080611a66611738565b6006810154909150600160a01b90046001600160401b031615611a9c5760060154600160a01b90046001600160401b0316919050565b8060060160009054906101000a90046001600160a01b03166001600160a01b0316638120f0ba6040518163ffffffff1660e01b8152600401602060405180830381865afa158015611af1573d6000803e3d6000fd5b505050506040513d601f19601f820116820180604052508101906113da919061357f565b60008281527f62df4f6c50e7f750c679c064ab345c286dd49de6e39940ae1538c75b44a0e3616020819052604082205490916001600160401b0390911690818103611b6b57611b64844261359c565b9050611ba1565b611b74856126a0565b611b9457604051637be9098d60e11b815260048101869052602401610ac9565b611b9e848361359c565b90505b60008581526020848152604091829020805467ffffffffffffffff19166001600160401b038516908117909155915191825286917f2ec2be2c4b90c2cf13ecb6751a24daed6bb741ae5ed3f7371aabf9402f6d62e8910160405180910390a25050505050565b60009081527f62df4f6c50e7f750c679c064ab345c286dd49de6e39940ae1538c75b44a0e36160205260409020546001600160401b031690565b6040805180820182527f9bd0e1a7aef81c47cff971a2fee48406b20f55522326b2e2616c49c24aa506d0546001600160a01b03168082527f9bd0e1a7aef81c47cff971a2fee48406b20f55522326b2e2616c49c24aa506d154602080840182905284516331a9108f60e11b815260048101929092529351600094636352211e92602480820193918290030181865afa158015611ce1573d6000803e3d6000fd5b505050506040513d601f19601f820116820180604052508101906113da91906134dc565b6001600160a01b038116610ae457604051631492df6160e21b815260040160405180910390fd5b6000611d36611612565b600083815260049190910160205260408120549150600160e01b82169003611db75780600003610a6957611d68611612565b548210611d8857604051636f96cda160e11b815260040160405180910390fd5b611d90611612565b600019909201600081815260049390930160205260409092205490508015611d8857919050565b604051636f96cda160e11b815260040160405180910390fd5b6000806000611ddd611612565b60009485526006016020525050604090912080549092909150565b61145182846126d7565b6000611e0c611738565b6006810180546001600160a01b0319166001600160a01b0385161790556080840151909150611e3a90612188565b611e478360c00151611d05565b611e548360e00151611fab565b611e62836101000151612487565b6060830151600382015560a08301516001600160a01b031615611e89578260a00151611e9f565b73eeeeeeeeeeeeeeeeeeeeeeeeeeeeeeeeeeeeeeee5b6004820180546001600160a01b03199081166001600160a01b039384161790915560408501516002840155608085015160068401805467ffffffffffffffff60a01b1916600160a01b6001600160401b039093169290920291909117905560c0850151600584018054831691841691909117905560e08501516007840155610100909401516008909201805490941691161790915550565b7f2d0d21306acfe8e9bb163a4573e95aff6cef95dc1102c6a16d5f19eac08cc4de54640100000000900460ff16611f8157604051630ef4733760e31b815260040160405180910390fd5b611f916380ac58cd60e01b612723565b611fa1635b5e139f60e01b612723565b6108828282612801565b6000611fb5611738565b90508060060160009054906101000a90046001600160a01b03166001600160a01b0316632cbb9d136040518163ffffffff1660e01b8152600401602060405180830381865afa15801561200c573d6000803e3d6000fd5b505050506040513d601f19601f820116820180604052508101906120309190613494565b8211156108825760405163c3983b9160e01b815260040160405180910390fd5b600061205a611738565b6001600160a01b03909216600090815260019290920160205250604090205490565b60008061208883610fd9565b9050336001600160a01b0382168114806120a757506120a78282612524565b806120cb5750806001600160a01b03166120c085611636565b6001600160a01b0316145b949350505050565b6001600160a01b038116610ae457604051636da3122b60e01b815260040160405180910390fd5b6000612104610e30565b6001600160a01b0316630eac306d6040518163ffffffff1660e01b8152600401602060405180830381865afa158015612141573d6000803e3d6000fd5b505050506040513d601f19601f820116820180604052508101906121659190613494565b90508082101561088257604051631a23d64760e11b815260040160405180910390fd5b612190610e30565b6001600160a01b0316638120f0ba6040518163ffffffff1660e01b8152600401602060405180830381865afa1580156121cd573d6000803e3d6000fd5b505050506040513d601f19601f820116820180604052508101906121f1919061357f565b6001600160401b0316816001600160401b03161115610ae4576040516341191e9760e11b815260040160405180910390fd5b8061222c611738565b60060160146101000a8154816001600160401b0302191690836001600160401b0316021790555050565b610ae4816000612833565b7f62df4f6c50e7f750c679c064ab345c286dd49de6e39940ae1538c75b44a0e361600082815260209182526040808220805467ffffffffffffffff191690555190815282917f2ec2be2c4b90c2cf13ecb6751a24daed6bb741ae5ed3f7371aabf9402f6d62e8910160405180910390a250565b808210156122f557604051636664d51760e11b815260040160405180910390fd5b6122fd611185565b821161088257604051636664d51760e11b815260040160405180910390fd5b604051630a85bd0160e11b81526000906001600160a01b0385169063150b7a02906123519033908990889088906004016135c3565b6020604051808303816000875af192505050801561238c575060408051601f3d908101601f1916820190925261238991810190613600565b60015b6123ea573d8080156123ba576040519150601f19603f3d011682016040523d82523d6000602084013e6123bf565b606091505b5080516000036123e2576040516368d2bf6b60e11b815260040160405180910390fd5b805181602001fd5b6001600160e01b031916630a85bd0160e11b149050949350505050565b6000612411611612565b54821080156108705750600160e01b612428611612565b60008481526004919091016020526040902054161592915050565b606060a06040510180604052602081039150506000815280825b600183039250600a81066030018353600a90048061245d5750819003601f19909101908152919050565b6001600160a01b0381166124985750565b6040516301ffc9a760e01b8152635cf4ee9160e01b60048201526001600160a01b038216906301ffc9a790602401602060405180830381865afa1580156124e3573d6000803e3d6000fd5b505050506040513d601f19601f82011682018060405250810190612507919061362a565b610ae457604051630e88bf4b60e01b815260040160405180910390fd5b600061252e611612565b6001600160a01b039384166000908152600791909101602090815260408083209490951682529290925250205460ff1690565b6000338061256d611c41565b6001600160a01b031614806120cb57507ff421ea548af7158b1d71ba0aeccf57104c067038bd8fd214edd05c09eb4f735b5460ff161580156120cb57506120cb8482856040516020016125c09190613647565b6040516020818303038152906040526125d890613663565b6129b0565b80156114515773eeeeeeeeeeeeeeeeeeeeeeeeeeeeeeeeeeeeeeed196001600160a01b03851601612617576126128282612ad9565b611451565b61145184848484612b7c565b61262d8383612bcf565b6001600160a01b0383163b15610dc5576000612647611612565b5490508281035b612661600086838060010194508661231c565b61267e576040516368d2bf6b60e11b815260040160405180910390fd5b81811061264e578161268e611612565b541461269957600080fd5b5050505050565b6000426126ab611a5b565b6001600160401b03166126be9190613687565b6126c783611c07565b6001600160401b03161092915050565b60006126e1611738565b60008481526020828152604080832080546001600160a01b039097166001600160a01b0319909716871790559482526001909201909152919091209190915550565b6001600160e01b0319811660009081527fbc7de460bcfb6afd0c415c8c610d408bd914b18d7d0feec0da9e25348087a5c4602052604090205460ff1615156001146127b0576001600160e01b0319811660009081527fbc7de460bcfb6afd0c415c8c610d408bd914b18d7d0feec0da9e25348087a5c460205260409020805460ff191660011790556127c9565b604051637967f77d60e11b815260040160405180910390fd5b6040516001600160e01b03198216907f78f84e5b1c5c05be2b5ad3800781dd404d6d6c6302bc755c0fe20f58a33a7f2290600090a250565b600061280b611612565b90506002810161281b84826136e0565b506003810161282a83826136e0565b50600090555050565b600061283e83611d2c565b90508060008061284d86611dd0565b91509150841561288d57612862818433610b5d565b61288d576128708333612524565b61288d57604051632ce44b5f60e11b815260040160405180910390fd5b61289b836000886001611df8565b80156128a657600082555b6fffffffffffffffffffffffffffffffff6128bf611612565b6001600160a01b038516600081815260059290920160205260409091208054929092019091554260a01b17600360e01b176128f8611612565b60008881526004919091016020526040812091909155600160e11b8516900361296e5760018601612927611612565b60008281526004919091016020526040812054900361296c57612948611612565b54811461296c5784612958611612565b600083815260049190910160205260409020555b505b60405186906000906001600160a01b0386169060008051602061381d833981519152908390a461299c611612565b600190810180549091019055505050505050565b60006129ba611c41565b6001600160a01b0316836001600160a01b0316036129da57506001610d99565b7f2df4f8e2489b335ef09ede56990b0838afbcdea6c639a41af44b533474fb85586000612a267f2df4f8e2489b335ef09ede56990b0838afbcdea6c639a41af44b533474fb8559612cf3565b905060005b81811015612acf57612a406001840182612cfd565b6001600160a01b031662b4eaa88888886040518463ffffffff1660e01b8152600401612a6e9392919061379f565b602060405180830381865afa158015612a8b573d6000803e3d6000fd5b505050506040513d601f19601f82011682018060405250810190612aaf919061362a565b15612abd5760019350612acf565b80612ac7816137cd565b915050612a2b565b5050509392505050565b6000826001600160a01b03168260405160006040518083038185875af1925050503d8060008114612b26576040519150601f19603f3d011682016040523d82523d6000602084013e612b2b565b606091505b5050905080610dc55760405162461bcd60e51b815260206004820152601c60248201527f6e617469766520746f6b656e207472616e73666572206661696c6564000000006044820152606401610ac9565b816001600160a01b0316836001600160a01b0316031561145157306001600160a01b03841603612bba576126126001600160a01b0385168383612d09565b6114516001600160a01b038516848484612d6c565b6000612bd9611612565b5490506000829003612bfe5760405163b562e8dd60e01b815260040160405180910390fd5b612c0b6000848385611df8565b680100000000000000018202612c1f611612565b6001600160a01b038516600081815260059290920160205260409091208054929092019091554260a01b6001841460e11b1717612c5a611612565b600083815260049190910160205260408120919091556001600160a01b03841690838301908390839060008051602061381d8339815191528180a4600183015b818114612cc0578083600060008051602061381d833981519152600080a4600101612c9a565b5081600003612ce157604051622e076360e81b815260040160405180910390fd5b80612cea611612565b5550610dc59050565b6000610870825490565b6000610d998383612da4565b6040516001600160a01b038316602482015260448101829052610dc590849063a9059cbb60e01b906064015b60408051601f198184030181529190526020810180516001600160e01b03166001600160e01b031990931692909217909152612dce565b6040516001600160a01b03808516602483015283166044820152606481018290526114519085906323b872dd60e01b90608401612d35565b6000826000018281548110612dbb57612dbb6137e6565b9060005260206000200154905092915050565b6000612e23826040518060400160405280602081526020017f5361666545524332303a206c6f772d6c6576656c2063616c6c206661696c6564815250856001600160a01b0316612ea09092919063ffffffff16565b805190915015610dc55780806020019051810190612e41919061362a565b610dc55760405162461bcd60e51b815260206004820152602a60248201527f5361666545524332303a204552433230206f7065726174696f6e20646964206e6044820152691bdd081cdd58d8d9595960b21b6064820152608401610ac9565b60606120cb848460008585600080866001600160a01b03168587604051612ec79190613647565b60006040518083038185875af1925050503d8060008114612f04576040519150601f19603f3d011682016040523d82523d6000602084013e612f09565b606091505b5091509150612f1a87838387612f25565b979650505050505050565b60608315612f94578251600003612f8d576001600160a01b0385163b612f8d5760405162461bcd60e51b815260206004820152601d60248201527f416464726573733a2063616c6c20746f206e6f6e2d636f6e74726163740000006044820152606401610ac9565b50816120cb565b6120cb8383815115612fa95781518083602001fd5b8060405162461bcd60e51b8152600401610ac99190613013565b60005b83811015612fde578181015183820152602001612fc6565b50506000910152565b60008151808452612fff816020860160208601612fc3565b601f01601f19169290920160200192915050565b602081526000610d996020830184612fe7565b60006020828403121561303857600080fd5b5035919050565b6001600160a01b0381168114610ae457600080fd5b8035610a698161303f565b6000806040838503121561307257600080fd5b823561307d8161303f565b946020939093013593505050565b60006020828403121561309d57600080fd5b8135610d998161303f565b6000806000606084860312156130bd57600080fd5b83356130c88161303f565b925060208401356130d88161303f565b929592945050506040919091013590565b634e487b7160e01b600052604160045260246000fd5b60405161012081016001600160401b0381118282101715613122576131226130e9565b60405290565b60006001600160401b0380841115613142576131426130e9565b604051601f8501601f19908116603f0116810190828211818310171561316a5761316a6130e9565b8160405280935085815286868601111561318357600080fd5b858560208301376000602087830101525050509392505050565b600082601f8301126131ae57600080fd5b610d9983833560208501613128565b6001600160401b0381168114610ae457600080fd5b8035610a69816131bd565b600080604083850312156131f057600080fd5b82356001600160401b038082111561320757600080fd5b90840190610120828703121561321c57600080fd5b6132246130ff565b82358281111561323357600080fd5b61323f8882860161319d565b82525060208301358281111561325457600080fd5b6132608882860161319d565b6020830152506040830135604082015260608301356060820152613286608084016131d2565b608082015261329760a08401613054565b60a08201526132a860c08401613054565b60c082015260e083013560e082015261010091506132c7828401613054565b828201528094505050506132dd60208401613054565b90509250929050565b6000602082840312156132f857600080fd5b8135610d99816131bd565b8015158114610ae457600080fd5b6000806040838503121561332457600080fd5b823561332f8161303f565b9150602083013561333f81613303565b809150509250929050565b6000806000806080858703121561336057600080fd5b843561336b8161303f565b9350602085013561337b8161303f565b92506040850135915060608501356001600160401b0381111561339d57600080fd5b8501601f810187136133ae57600080fd5b6133bd87823560208401613128565b91505092959194509250565b600080604083850312156133dc57600080fd5b82356001600160401b03808211156133f357600080fd5b6133ff8683870161319d565b9350602085013591508082111561341557600080fd5b506134228582860161319d565b9150509250929050565b6000806040838503121561343f57600080fd5b823561344a8161303f565b9150602083013561333f8161303f565b600181811c9082168061346e57607f821691505b60208210810361348e57634e487b7160e01b600052602260045260246000fd5b50919050565b6000602082840312156134a657600080fd5b5051919050565b600083516134bf818460208801612fc3565b8351908301906134d3818360208801612fc3565b01949350505050565b6000602082840312156134ee57600080fd5b8151610d998161303f565b60006020828403121561350b57600080fd5b815161ffff81168114610d9957600080fd5b634e487b7160e01b600052601160045260246000fd5b80820281158282048414176108705761087061351d565b60008261356757634e487b7160e01b600052601260045260246000fd5b500490565b818103818111156108705761087061351d565b60006020828403121561359157600080fd5b8151610d99816131bd565b6001600160401b038181168382160190808211156135bc576135bc61351d565b5092915050565b6001600160a01b03858116825284166020820152604081018390526080606082018190526000906135f690830184612fe7565b9695505050505050565b60006020828403121561361257600080fd5b81516001600160e01b031981168114610d9957600080fd5b60006020828403121561363c57600080fd5b8151610d9981613303565b60008251613659818460208701612fc3565b9190910192915050565b8051602080830151919081101561348e5760001960209190910360031b1b16919050565b808201808211156108705761087061351d565b601f821115610dc557600081815260208120601f850160051c810160208610156136c15750805b601f850160051c820191505b81811015610ced578281556001016136cd565b81516001600160401b038111156136f9576136f96130e9565b61370d81613707845461345a565b8461369a565b602080601f831160018114613742576000841561372a5750858301515b600019600386901b1c1916600185901b178555610ced565b600085815260208120601f198616915b8281101561377157888601518255948401946001909101908401613752565b508582101561378f5787850151600019600388901b60f8161c191681555b5050505050600190811b01905550565b6060815260006137b26060830186612fe7565b6001600160a01b039490941660208301525060400152919050565b6000600182016137df576137df61351d565b5060010190565b634e487b7160e01b600052603260045260246000fdfe50b052c8fb38984269a818b2b593d0584a81b1b99245abc0fab04abc7afb010fddf252ad1be2c89b69c2b068fc378daa952ba7f163c4a11628f55a4df523b3ef",
    "linkReferences": {}
  },
  "methodIdentifiers": {
    "__ERC721A_init(string,string)": "d2f01f19",
    "__Membership_init((string,string,uint256,uint256,uint64,address,address,uint256,address),address)": "4c2abfbe",
    "_getMembershipCurrency()": "70251563",
    "_getMembershipFeeRecipient()": "1d214b4d",
    "_getMembershipFreeAllocation()": "b3a5be6d",
    "_getMembershipPrice(uint256)": "3ded10de",
    "_getMembershipSupplyLimit()": "8934207f",
    "_getPricingModule()": "ac7ee626",
    "_getTownFactory()": "5b312fce",
    "_setMembershipCurrency(address)": "b8307376",
    "_setMembershipFeeRecipient(address)": "62452006",
    "_setMembershipFreeAllocation(uint256)": "f9d5d22c",
    "_setMembershipPrice(uint256)": "0c3a01b1",
    "_setMembershipSupplyLimit(uint256)": "73fc5a05",
    "_setPricingModule(address)": "69d9346b",
    "approve(address,uint256)": "095ea7b3",
    "balanceOf(address)": "70a08231",
    "cancelMembership(uint256)": "89def320",
    "expiresAt(uint256)": "17c95709",
    "getApproved(uint256)": "081812fc",
    "getMembershipCurrency()": "657e45e8",
    "getMembershipDuration()": "8120f0ba",
    "getMembershipFeeRecipient()": "bf3bc878",
    "getMembershipFreeAllocation()": "706b8e09",
    "getMembershipLimit()": "95d600c8",
    "getMembershipPrice()": "1278076a",
    "getMembershipPricingModule()": "e847abdd",
    "getTownFactory()": "6340d096",
    "isApprovedForAll(address,address)": "e985e9c5",
    "joinTown(address)": "16a344b4",
    "name()": "06fdde03",
    "ownerOf(uint256)": "6352211e",
    "renewMembership(address)": "61a9c7df",
    "safeTransferFrom(address,address,uint256)": "42842e0e",
    "safeTransferFrom(address,address,uint256,bytes)": "b88d4fde",
    "setApprovalForAll(address,bool)": "a22cb465",
    "setMembershipCurrency(address)": "7d0567c4",
    "setMembershipDuration(uint64)": "83f3f0dc",
    "setMembershipFeeRecipient(address)": "18e5da65",
    "setMembershipFreeAllocation(uint256)": "5becd24a",
    "setMembershipLimit(uint256)": "97fb7c1e",
    "setMembershipPrice(uint256)": "69d5f38a",
    "setMembershipPricingModule(address)": "df9a9fe6",
    "symbol()": "95d89b41",
    "tokenURI(uint256)": "c87b56dd",
    "totalSupply()": "18160ddd",
    "transferFrom(address,address,uint256)": "23b872dd"
  },
  "id": 172
}