{"abi":[{"type":"function","name":"__ERC721A_init","inputs":[{"name":"name_","type":"string","internalType":"string"},{"name":"symbol_","type":"string","internalType":"string"}],"outputs":[],"stateMutability":"nonpayable"},{"type":"function","name":"__Membership_init","inputs":[{"name":"info","type":"tuple","internalType":"struct IMembershipBase.MembershipInfo","components":[{"name":"name","type":"string","internalType":"string"},{"name":"symbol","type":"string","internalType":"string"},{"name":"price","type":"uint256","internalType":"uint256"},{"name":"maxSupply","type":"uint256","internalType":"uint256"},{"name":"duration","type":"uint64","internalType":"uint64"},{"name":"currency","type":"address","internalType":"address"},{"name":"feeRecipient","type":"address","internalType":"address"},{"name":"freeAllocation","type":"uint256","internalType":"uint256"},{"name":"pricingModule","type":"address","internalType":"address"}]},{"name":"townFactory","type":"address","internalType":"address"}],"outputs":[],"stateMutability":"nonpayable"},{"type":"function","name":"_getMembershipCurrency","inputs":[],"outputs":[{"name":"","type":"address","internalType":"address"}],"stateMutability":"view"},{"type":"function","name":"_getMembershipFeeRecipient","inputs":[],"outputs":[{"name":"","type":"address","internalType":"address"}],"stateMutability":"view"},{"type":"function","name":"_getMembershipFreeAllocation","inputs":[],"outputs":[{"name":"","type":"uint256","internalType":"uint256"}],"stateMutability":"view"},{"type":"function","name":"_getMembershipPrice","inputs":[{"name":"totalMinted","type":"uint256","internalType":"uint256"}],"outputs":[{"name":"","type":"uint256","internalType":"uint256"}],"stateMutability":"view"},{"type":"function","name":"_getMembershipSupplyLimit","inputs":[],"outputs":[{"name":"","type":"uint256","internalType":"uint256"}],"stateMutability":"view"},{"type":"function","name":"_getPricingModule","inputs":[],"outputs":[{"name":"","type":"address","internalType":"address"}],"stateMutability":"view"},{"type":"function","name":"_getTownFactory","inputs":[],"outputs":[{"name":"","type":"address","internalType":"address"}],"stateMutability":"view"},{"type":"function","name":"_setMembershipCurrency","inputs":[{"name":"newCurrency","type":"address","internalType":"address"}],"outputs":[],"stateMutability":"nonpayable"},{"type":"function","name":"_setMembershipFeeRecipient","inputs":[{"name":"newRecipient","type":"address","internalType":"address"}],"outputs":[],"stateMutability":"nonpayable"},{"type":"function","name":"_setMembershipFreeAllocation","inputs":[{"name":"newAllocation","type":"uint256","internalType":"uint256"}],"outputs":[],"stateMutability":"nonpayable"},{"type":"function","name":"_setMembershipPrice","inputs":[{"name":"newPrice","type":"uint256","internalType":"uint256"}],"outputs":[],"stateMutability":"nonpayable"},{"type":"function","name":"_setMembershipSupplyLimit","inputs":[{"name":"newLimit","type":"uint256","internalType":"uint256"}],"outputs":[],"stateMutability":"nonpayable"},{"type":"function","name":"_setPricingModule","inputs":[{"name":"newPricingModule","type":"address","internalType":"address"}],"outputs":[],"stateMutability":"nonpayable"},{"type":"function","name":"approve","inputs":[{"name":"to","type":"address","internalType":"address"},{"name":"tokenId","type":"uint256","internalType":"uint256"}],"outputs":[],"stateMutability":"payable"},{"type":"function","name":"balanceOf","inputs":[{"name":"account","type":"address","internalType":"address"}],"outputs":[{"name":"","type":"uint256","internalType":"uint256"}],"stateMutability":"view"},{"type":"function","name":"cancelMembership","inputs":[{"name":"tokenId","type":"uint256","internalType":"uint256"}],"outputs":[],"stateMutability":"nonpayable"},{"type":"function","name":"expiresAt","inputs":[{"name":"tokenId","type":"uint256","internalType":"uint256"}],"outputs":[{"name":"","type":"uint256","internalType":"uint256"}],"stateMutability":"view"},{"type":"function","name":"getApproved","inputs":[{"name":"tokenId","type":"uint256","internalType":"uint256"}],"outputs":[{"name":"","type":"address","internalType":"address"}],"stateMutability":"view"},{"type":"function","name":"getMembershipCurrency","inputs":[],"outputs":[{"name":"","type":"address","internalType":"address"}],"stateMutability":"view"},{"type":"function","name":"getMembershipDuration","inputs":[],"outputs":[{"name":"","type":"uint64","internalType":"uint64"}],"stateMutability":"view"},{"type":"function","name":"getMembershipFeeRecipient","inputs":[],"outputs":[{"name":"","type":"address","internalType":"address"}],"stateMutability":"view"},{"type":"function","name":"getMembershipFreeAllocation","inputs":[],"outputs":[{"name":"","type":"uint256","internalType":"uint256"}],"stateMutability":"view"},{"type":"function","name":"getMembershipLimit","inputs":[],"outputs":[{"name":"","type":"uint256","internalType":"uint256"}],"stateMutability":"view"},{"type":"function","name":"getMembershipPrice","inputs":[],"outputs":[{"name":"","type":"uint256","internalType":"uint256"}],"stateMutability":"view"},{"type":"function","name":"getMembershipPricingModule","inputs":[],"outputs":[{"name":"","type":"address","internalType":"address"}],"stateMutability":"view"},{"type":"function","name":"getMembershipRenewalPrice","inputs":[{"name":"tokenId","type":"uint256","internalType":"uint256"}],"outputs":[{"name":"","type":"uint256","internalType":"uint256"}],"stateMutability":"view"},{"type":"function","name":"getTownFactory","inputs":[],"outputs":[{"name":"","type":"address","internalType":"address"}],"stateMutability":"view"},{"type":"function","name":"isApprovedForAll","inputs":[{"name":"owner","type":"address","internalType":"address"},{"name":"operator","type":"address","internalType":"address"}],"outputs":[{"name":"","type":"bool","internalType":"bool"}],"stateMutability":"view"},{"type":"function","name":"joinTown","inputs":[{"name":"receiver","type":"address","internalType":"address"}],"outputs":[{"name":"tokenId","type":"uint256","internalType":"uint256"}],"stateMutability":"payable"},{"type":"function","name":"joinTownWithReferral","inputs":[{"name":"receiver","type":"address","internalType":"address"},{"name":"referrer","type":"address","internalType":"address"},{"name":"referralCode","type":"uint256","internalType":"uint256"}],"outputs":[{"name":"tokenId","type":"uint256","internalType":"uint256"}],"stateMutability":"payable"},{"type":"function","name":"name","inputs":[],"outputs":[{"name":"","type":"string","internalType":"string"}],"stateMutability":"view"},{"type":"function","name":"ownerOf","inputs":[{"name":"tokenId","type":"uint256","internalType":"uint256"}],"outputs":[{"name":"","type":"address","internalType":"address"}],"stateMutability":"view"},{"type":"function","name":"renewMembership","inputs":[{"name":"receiver","type":"address","internalType":"address"}],"outputs":[],"stateMutability":"payable"},{"type":"function","name":"safeTransferFrom","inputs":[{"name":"from","type":"address","internalType":"address"},{"name":"to","type":"address","internalType":"address"},{"name":"tokenId","type":"uint256","internalType":"uint256"}],"outputs":[],"stateMutability":"payable"},{"type":"function","name":"safeTransferFrom","inputs":[{"name":"from","type":"address","internalType":"address"},{"name":"to","type":"address","internalType":"address"},{"name":"tokenId","type":"uint256","internalType":"uint256"},{"name":"_data","type":"bytes","internalType":"bytes"}],"outputs":[],"stateMutability":"payable"},{"type":"function","name":"setApprovalForAll","inputs":[{"name":"operator","type":"address","internalType":"address"},{"name":"approved","type":"bool","internalType":"bool"}],"outputs":[],"stateMutability":"nonpayable"},{"type":"function","name":"setMembershipCurrency","inputs":[{"name":"newCurrency","type":"address","internalType":"address"}],"outputs":[],"stateMutability":"nonpayable"},{"type":"function","name":"setMembershipDuration","inputs":[{"name":"newDuration","type":"uint64","internalType":"uint64"}],"outputs":[],"stateMutability":"nonpayable"},{"type":"function","name":"setMembershipFeeRecipient","inputs":[{"name":"newRecipient","type":"address","internalType":"address"}],"outputs":[],"stateMutability":"nonpayable"},{"type":"function","name":"setMembershipFreeAllocation","inputs":[{"name":"newAllocation","type":"uint256","internalType":"uint256"}],"outputs":[],"stateMutability":"nonpayable"},{"type":"function","name":"setMembershipLimit","inputs":[{"name":"newLimit","type":"uint256","internalType":"uint256"}],"outputs":[],"stateMutability":"nonpayable"},{"type":"function","name":"setMembershipPrice","inputs":[{"name":"newPrice","type":"uint256","internalType":"uint256"}],"outputs":[],"stateMutability":"nonpayable"},{"type":"function","name":"setMembershipPricingModule","inputs":[{"name":"pricingModule","type":"address","internalType":"address"}],"outputs":[],"stateMutability":"nonpayable"},{"type":"function","name":"symbol","inputs":[],"outputs":[{"name":"","type":"string","internalType":"string"}],"stateMutability":"view"},{"type":"function","name":"tokenURI","inputs":[{"name":"tokenId","type":"uint256","internalType":"uint256"}],"outputs":[{"name":"","type":"string","internalType":"string"}],"stateMutability":"view"},{"type":"function","name":"totalSupply","inputs":[],"outputs":[{"name":"","type":"uint256","internalType":"uint256"}],"stateMutability":"view"},{"type":"function","name":"transferFrom","inputs":[{"name":"from","type":"address","internalType":"address"},{"name":"to","type":"address","internalType":"address"},{"name":"tokenId","type":"uint256","internalType":"uint256"}],"outputs":[],"stateMutability":"payable"},{"type":"event","name":"Approval","inputs":[{"name":"owner","type":"address","indexed":true,"internalType":"address"},{"name":"approved","type":"address","indexed":true,"internalType":"address"},{"name":"tokenId","type":"uint256","indexed":true,"internalType":"uint256"}],"anonymous":false},{"type":"event","name":"ApprovalForAll","inputs":[{"name":"owner","type":"address","indexed":true,"internalType":"address"},{"name":"operator","type":"address","indexed":true,"internalType":"address"},{"name":"approved","type":"bool","indexed":false,"internalType":"bool"}],"anonymous":false},{"type":"event","name":"ConsecutiveTransfer","inputs":[{"name":"fromTokenId","type":"uint256","indexed":true,"internalType":"uint256"},{"name":"toTokenId","type":"uint256","indexed":false,"internalType":"uint256"},{"name":"from","type":"address","indexed":true,"internalType":"address"},{"name":"to","type":"address","indexed":true,"internalType":"address"}],"anonymous":false},{"type":"event","name":"Initialized","inputs":[{"name":"version","type":"uint32","indexed":false,"internalType":"uint32"}],"anonymous":false},{"type":"event","name":"InterfaceAdded","inputs":[{"name":"interfaceId","type":"bytes4","indexed":true,"internalType":"bytes4"}],"anonymous":false},{"type":"event","name":"InterfaceRemoved","inputs":[{"name":"interfaceId","type":"bytes4","indexed":true,"internalType":"bytes4"}],"anonymous":false},{"type":"event","name":"MembershipCurrencyUpdated","inputs":[{"name":"currency","type":"address","indexed":true,"internalType":"address"}],"anonymous":false},{"type":"event","name":"MembershipFeeRecipientUpdated","inputs":[{"name":"recipient","type":"address","indexed":true,"internalType":"address"}],"anonymous":false},{"type":"event","name":"MembershipFreeAllocationUpdated","inputs":[{"name":"allocation","type":"uint256","indexed":true,"internalType":"uint256"}],"anonymous":false},{"type":"event","name":"MembershipLimitUpdated","inputs":[{"name":"limit","type":"uint256","indexed":true,"internalType":"uint256"}],"anonymous":false},{"type":"event","name":"MembershipPriceUpdated","inputs":[{"name":"price","type":"uint256","indexed":true,"internalType":"uint256"}],"anonymous":false},{"type":"event","name":"Membership__ReferralCreated","inputs":[{"name":"code","type":"uint256","indexed":true,"internalType":"uint256"},{"name":"bps","type":"uint16","indexed":false,"internalType":"uint16"}],"anonymous":false},{"type":"event","name":"Membership__ReferralRemoved","inputs":[{"name":"code","type":"uint256","indexed":true,"internalType":"uint256"}],"anonymous":false},{"type":"event","name":"Membership__ReferralTimeCreated","inputs":[{"name":"code","type":"uint256","indexed":true,"internalType":"uint256"},{"name":"bps","type":"uint16","indexed":false,"internalType":"uint16"},{"name":"startTime","type":"uint256","indexed":false,"internalType":"uint256"},{"name":"endTime","type":"uint256","indexed":false,"internalType":"uint256"}],"anonymous":false},{"type":"event","name":"OwnershipTransferred","inputs":[{"name":"previousOwner","type":"address","indexed":true,"internalType":"address"},{"name":"newOwner","type":"address","indexed":true,"internalType":"address"}],"anonymous":false},{"type":"event","name":"Paused","inputs":[{"name":"account","type":"address","indexed":false,"internalType":"address"}],"anonymous":false},{"type":"event","name":"SubscriptionUpdate","inputs":[{"name":"tokenId","type":"uint256","indexed":true,"internalType":"uint256"},{"name":"expiration","type":"uint64","indexed":false,"internalType":"uint64"}],"anonymous":false},{"type":"event","name":"Transfer","inputs":[{"name":"from","type":"address","indexed":true,"internalType":"address"},{"name":"to","type":"address","indexed":true,"internalType":"address"},{"name":"tokenId","type":"uint256","indexed":true,"internalType":"uint256"}],"anonymous":false},{"type":"event","name":"Unpaused","inputs":[{"name":"account","type":"address","indexed":false,"internalType":"address"}],"anonymous":false},{"type":"error","name":"ApprovalCallerNotOwnerNorApproved","inputs":[]},{"type":"error","name":"ApprovalQueryForNonexistentToken","inputs":[]},{"type":"error","name":"BalanceQueryForZeroAddress","inputs":[]},{"type":"error","name":"ERC5643__DurationZero","inputs":[]},{"type":"error","name":"ERC5643__InvalidTokenId","inputs":[{"name":"tokenId","type":"uint256","internalType":"uint256"}]},{"type":"error","name":"ERC5643__NotApprovedOrOwner","inputs":[]},{"type":"error","name":"ERC5643__SubscriptionNotRenewable","inputs":[{"name":"tokenId","type":"uint256","internalType":"uint256"}]},{"type":"error","name":"Entitlement__InvalidValue","inputs":[]},{"type":"error","name":"Entitlement__NotAllowed","inputs":[]},{"type":"error","name":"Entitlement__ValueAlreadyExists","inputs":[]},{"type":"error","name":"Initializable_InInitializingState","inputs":[]},{"type":"error","name":"Initializable_NotInInitializingState","inputs":[]},{"type":"error","name":"Introspection_AlreadySupported","inputs":[]},{"type":"error","name":"Introspection_NotSupported","inputs":[]},{"type":"error","name":"Membership__AlreadyMember","inputs":[]},{"type":"error","name":"Membership__InsufficientPayment","inputs":[]},{"type":"error","name":"Membership__InvalidAddress","inputs":[]},{"type":"error","name":"Membership__InvalidCurrency","inputs":[]},{"type":"error","name":"Membership__InvalidDuration","inputs":[]},{"type":"error","name":"Membership__InvalidFeeRecipient","inputs":[]},{"type":"error","name":"Membership__InvalidFreeAllocation","inputs":[]},{"type":"error","name":"Membership__InvalidLimit","inputs":[]},{"type":"error","name":"Membership__InvalidMaxSupply","inputs":[]},{"type":"error","name":"Membership__InvalidPrice","inputs":[]},{"type":"error","name":"Membership__InvalidPricingModule","inputs":[]},{"type":"error","name":"Membership__InvalidReferralBps","inputs":[]},{"type":"error","name":"Membership__InvalidReferralCode","inputs":[]},{"type":"error","name":"Membership__InvalidReferralTime","inputs":[]},{"type":"error","name":"Membership__InvalidTokenId","inputs":[]},{"type":"error","name":"Membership__MaxSupplyReached","inputs":[]},{"type":"error","name":"Membership__NotExpired","inputs":[]},{"type":"error","name":"Membership__NotRenewable","inputs":[]},{"type":"error","name":"Membership__PriceTooLow","inputs":[]},{"type":"error","name":"MintERC2309QuantityExceedsLimit","inputs":[]},{"type":"error","name":"MintToZeroAddress","inputs":[]},{"type":"error","name":"MintZeroQuantity","inputs":[]},{"type":"error","name":"Ownable__NotOwner","inputs":[{"name":"account","type":"address","internalType":"address"}]},{"type":"error","name":"Ownable__ZeroAddress","inputs":[]},{"type":"error","name":"OwnerQueryForNonexistentToken","inputs":[]},{"type":"error","name":"OwnershipNotInitializedForExtraData","inputs":[]},{"type":"error","name":"Pausable__NotPaused","inputs":[]},{"type":"error","name":"Pausable__Paused","inputs":[]},{"type":"error","name":"ReentrancyGuard__ReentrantCall","inputs":[]},{"type":"error","name":"TransferCallerNotOwnerNorApproved","inputs":[]},{"type":"error","name":"TransferFromIncorrectOwner","inputs":[]},{"type":"error","name":"TransferToNonERC721ReceiverImplementer","inputs":[]},{"type":"error","name":"TransferToZeroAddress","inputs":[]},{"type":"error","name":"URIQueryForNonexistentToken","inputs":[]}],"bytecode":{"object":"0x60806040523480156200001157600080fd5b506200001c62000022565b620000ca565b7f2d0d21306acfe8e9bb163a4573e95aff6cef95dc1102c6a16d5f19eac08cc4de8054640100000000900460ff16156200006f576040516366008a2d60e01b815260040160405180910390fd5b805463ffffffff9081161015620000c757805463ffffffff191663ffffffff90811782556040519081527fe9c9b456cb2994b80aeef036cf59d26e9617df80f816a6ee5a5b4166e07e2f5c9060200160405180910390a15b50565b613b6880620000da6000396000f3fe6080604052600436106102ae5760003560e01c80637025156311610175578063a22cb465116100dc578063c87b56dd11610095578063df9a9fe61161006f578063df9a9fe61461079e578063e847abdd146107be578063e985e9c5146107d3578063f9d5d22c1461080357600080fd5b8063c87b56dd1461074b578063d2f01f191461076b578063d8480c381461078b57600080fd5b8063a22cb465146106b9578063ac7ee626146106d9578063b3a5be6d146106ee578063b830737614610703578063b88d4fde14610723578063bf3bc8781461073657600080fd5b806383f3f0dc1161012e57806383f3f0dc1461061a5780638934207f1461063a57806389def3201461064f57806395d600c81461066f57806395d89b411461068457806397fb7c1e1461069957600080fd5b80637025156314610563578063706b8e091461057857806370a082311461058d57806373fc5a05146105ad5780637d0567c4146105cd5780638120f0ba146105ed57600080fd5b806342842e0e1161021957806362452006116101d257806362452006146104b95780636340d096146104d95780636352211e146104ee578063657e45e81461050e57806369d5f38a1461052357806369d9346b1461054357600080fd5b806342842e0e1461041e5780634c2abfbe146104315780635803909f146104515780635b312fce146104715780635becd24a1461048657806361a9c7df146104a657600080fd5b806317c957091161026b57806317c957091461038157806318160ddd146103a157806318e5da65146103b65780631d214b4d146103d657806323b872dd146103eb5780633ded10de146103fe57600080fd5b806306fdde03146102b3578063081812fc146102de578063095ea7b3146103165780630c3a01b11461032b5780631278076a1461034b57806316a344b41461036e575b600080fd5b3480156102bf57600080fd5b506102c8610823565b6040516102d5919061335f565b60405180910390f35b3480156102ea57600080fd5b506102fe6102f9366004613372565b6108be565b6040516001600160a01b0390911681526020016102d5565b6103296103243660046133ab565b6108cf565b005b34801561033757600080fd5b50610329610346366004613372565b6108df565b34801561035757600080fd5b50610360610984565b6040519081526020016102d5565b61036061037c3660046133d7565b610996565b34801561038d57600080fd5b5061036061039c366004613372565b610a81565b3480156103ad57600080fd5b50610360610a9b565b3480156103c257600080fd5b506103296103d13660046133d7565b610aa5565b3480156103e257600080fd5b506102fe610afa565b6103296103f93660046133f4565b610b16565b34801561040a57600080fd5b50610360610419366004613372565b610d08565b61032961042c3660046133f4565b610dbd565b34801561043d57600080fd5b5061032961044c366004613529565b610ddd565b34801561045d57600080fd5b5061036061046c366004613372565b610e43565b34801561047d57600080fd5b506102fe610e56565b34801561049257600080fd5b506103296104a1366004613372565b610e72565b6103296104b43660046133d7565b610ef7565b3480156104c557600080fd5b506103296104d43660046133d7565b61102d565b3480156104e557600080fd5b506102fe61105a565b3480156104fa57600080fd5b506102fe610509366004613372565b611064565b34801561051a57600080fd5b506102fe61106f565b34801561052f57600080fd5b5061032961053e366004613372565b611079565b34801561054f57600080fd5b5061032961055e3660046133d7565b6110d6565b34801561056f57600080fd5b506102fe611103565b34801561058457600080fd5b5061036061111f565b34801561059957600080fd5b506103606105a83660046133d7565b611129565b3480156105b957600080fd5b506103296105c8366004613372565b61115c565b3480156105d957600080fd5b506103296105e83660046133d7565b61116c565b3480156105f957600080fd5b506106026111b9565b6040516001600160401b0390911681526020016102d5565b34801561062657600080fd5b50610329610635366004613632565b6111c3565b34801561064657600080fd5b50610360611210565b34801561065b57600080fd5b5061032961066a366004613372565b611223565b34801561067b57600080fd5b506103606112b9565b34801561069057600080fd5b506102c86112c3565b3480156106a557600080fd5b506103296106b4366004613372565b6112db565b3480156106c557600080fd5b506103296106d436600461365d565b611330565b3480156106e557600080fd5b506102fe6113ad565b3480156106fa57600080fd5b506103606113c9565b34801561070f57600080fd5b5061032961071e3660046133d7565b61146b565b610329610731366004613696565b611498565b34801561074257600080fd5b506102fe6114e2565b34801561075757600080fd5b506102c8610766366004613372565b6114ec565b34801561077757600080fd5b50610329610786366004613715565b61157c565b6103606107993660046133f4565b6115d0565b3480156107aa57600080fd5b506103296107b93660046133d7565b6116db565b3480156107ca57600080fd5b506102fe61174f565b3480156107df57600080fd5b506107f36107ee366004613778565b611759565b60405190151581526020016102d5565b34801561080f57600080fd5b5061032961081e366004613372565b611765565b606061082d6117a8565b600201805461083b906137a6565b80601f0160208091040260200160405190810160405280929190818152602001828054610867906137a6565b80156108b45780601f10610889576101008083540402835291602001916108b4565b820191906000526020600020905b81548152906001019060200180831161089757829003601f168201915b5050505050905090565b60006108c9826117cc565b92915050565b6108db82826001611819565b5050565b60006108e9610e56565b90506000816001600160a01b0316630eac306d6040518163ffffffff1660e01b8152600401602060405180830381865afa15801561092b573d6000803e3d6000fd5b505050506040513d601f19601f8201168201806040525081019061094f91906137e0565b90508083101561097257604051631a23d64760e11b815260040160405180910390fd5b8261097b6118ce565b60020155505050565b60006109916104196118f2565b905090565b60006002600080516020613b2883398151915254036109c857604051635db5c7cd60e11b815260040160405180910390fd5b6109df6002600080516020613b2883398151915255565b6109e882611904565b6109f06119eb565b905060006109ff6104196118f2565b90508015610a4857610a1182826119fb565b6000610a1d8483611a1b565b90506000610a2b828461380f565b90508015610a4557610a4585610a3f610afa565b83611b35565b50505b610a53836001611b5c565b610a6482610a5f611b76565b611c30565b50610a7c6001600080516020613b2883398151915255565b919050565b6000610a8c82611d22565b6001600160401b031692915050565b6000610991611d5c565b610aad611d7b565b6001600160a01b0316336001600160a01b031614610ae5576040516365f4906560e01b81523360048201526024015b60405180910390fd5b610aee81611e3f565b610af78161102d565b50565b6000610b046118ce565b600501546001600160a01b0316919050565b6000610b2182611e66565b9050836001600160a01b0316816001600160a01b031614610b545760405162a1148160e81b815260040160405180910390fd5b600080610b6084611f0a565b91509150610b858187610b703390565b6001600160a01b039081169116811491141790565b610bb057610b938633611759565b610bb057604051632ce44b5f60e11b815260040160405180910390fd5b6001600160a01b038516610bd757604051633a954ecd60e21b815260040160405180910390fd5b610be48686866001611f32565b8015610bef57600082555b610bf76117a8565b6001600160a01b0387166000908152600591909101602052604090208054600019019055610c236117a8565b6001600160a01b03861660008181526005929092016020526040909120805460010190554260a01b17600160e11b17610c5a6117a8565b60008681526004919091016020526040812091909155600160e11b84169003610cd05760018401610c896117a8565b600082815260049190910160205260408120549003610cce57610caa6117a8565b548114610cce5783610cba6117a8565b600083815260049190910160205260409020555b505b83856001600160a01b0316876001600160a01b0316600080516020613b4883398151915260405160405180910390a45b505050505050565b600080610d136118ce565b60088101549091506001600160a01b031615610db35760088101546001600160a01b0316635cf4ee91610d446113c9565b856040518363ffffffff1660e01b8152600401610d6b929190918252602082015260400190565b602060405180830381865afa158015610d88573d6000803e3d6000fd5b505050506040513d601f19601f82011682018060405250810190610dac91906137e0565b9392505050565b6002015492915050565b610dd883838360405180602001604052806000815250611498565b505050565b7f2d0d21306acfe8e9bb163a4573e95aff6cef95dc1102c6a16d5f19eac08cc4de54640100000000900460ff16610e2757604051630ef4733760e31b815260040160405180910390fd5b610e318282611f3c565b6108db82600001518360200151612071565b60006108c982610e516118f2565b6120e5565b6000610e606118ce565b600601546001600160a01b0316919050565b610e7a611d7b565b6001600160a01b0316336001600160a01b031614610ead576040516365f4906560e01b8152336004820152602401610adc565b6000610eb7611210565b90508015801590610ec757508082115b15610ee55760405163c3983b9160e01b815260040160405180910390fd5b610eee82612133565b6108db82611765565b6002600080516020613b288339815191525403610f2757604051635db5c7cd60e11b815260040160405180910390fd5b610f3e6002600080516020613b2883398151915255565b6001600160a01b038116610f6557604051635fbd571760e01b815260040160405180910390fd5b610f6e816121d8565b600003610f8e576040516331d6fa3360e11b815260040160405180910390fd5b6000610f9982612240565b9050610fa48161226c565b610fc15760405163dce9a1d360e01b815260040160405180910390fd5b6000610fcf82610e516118f2565b90508015611008576000610fe38483611a1b565b90506000610ff1828461380f565b905080156110055761100585610a3f610afa565b50505b61101482610a5f611b76565b5050610af76001600080516020613b2883398151915255565b806110366118ce565b60050180546001600160a01b0319166001600160a01b039290921691909117905550565b6000610991610e56565b60006108c982611e66565b6000610991611103565b611081611d7b565b6001600160a01b0316336001600160a01b0316146110b4576040516365f4906560e01b8152336004820152602401610adc565b6110c46110bf611103565b6122a3565b6110cd816122ca565b610af7816108df565b806110df6118ce565b60080180546001600160a01b0319166001600160a01b039290921691909117905550565b600061110d6118ce565b600401546001600160a01b0316919050565b60006109916113c9565b60004261113d61113884612240565b611d22565b6001600160401b03161161115357506000919050565b6108c9826121d8565b806111656118ce565b6003015550565b611174611d7b565b6001600160a01b0316336001600160a01b0316146111a7576040516365f4906560e01b8152336004820152602401610adc565b6111b0816122a3565b610af78161146b565b6000610991611b76565b6111cb611d7b565b6001600160a01b0316336001600160a01b0316146111fe576040516365f4906560e01b8152336004820152602401610adc565b61120781612358565b610af7816123f3565b600061121a6118ce565b60030154905090565b6002600080516020613b28833981519152540361125357604051635db5c7cd60e11b815260040160405180910390fd5b61126a6002600080516020613b2883398151915255565b61127381612426565b611290576040516367d9dca160e11b815260040160405180910390fd5b6112998161247c565b6112a281612487565b610af76001600080516020613b2883398151915255565b6000610991611210565b60606112cd6117a8565b600301805461083b906137a6565b6112e3611d7b565b6001600160a01b0316336001600160a01b031614611316576040516365f4906560e01b8152336004820152602401610adc565b61132781611322611d5c565b6124fa565b610af78161115c565b806113396117a8565b336000818152600792909201602090815260408084206001600160a01b03881680865290835293819020805460ff19169515159590951790945592518415158152919290917f17307eab39ab6107e8899845ad3d59bd9653f200f220920489ca2b5937696c31910160405180910390a35050565b60006113b76118ce565b600801546001600160a01b0316919050565b6000806113d46118ce565b60070154905080156113e557919050565b6113ed6118ce565b60060160009054906101000a90046001600160a01b03166001600160a01b0316632cbb9d136040518163ffffffff1660e01b8152600401602060405180830381865afa158015611441573d6000803e3d6000fd5b505050506040513d601f19601f8201168201806040525081019061146591906137e0565b91505090565b806114746118ce565b60040180546001600160a01b0319166001600160a01b039290921691909117905550565b6114a3848484610b16565b6001600160a01b0383163b156114dc576114bf84848484612542565b6114dc576040516368d2bf6b60e11b815260040160405180910390fd5b50505050565b6000610991610afa565b60606114f78261262d565b61151457604051630a14c4b560e41b815260040160405180910390fd5b600061152b60408051602081019091526000815290565b9050805160000361154b5760405180602001604052806000815250610dac565b8061155584612669565b604051602001611566929190613822565b6040516020818303038152906040529392505050565b7f2d0d21306acfe8e9bb163a4573e95aff6cef95dc1102c6a16d5f19eac08cc4de54640100000000900460ff166115c657604051630ef4733760e31b815260040160405180910390fd5b6108db8282612071565b60006002600080516020613b28833981519152540361160257604051635db5c7cd60e11b815260040160405180910390fd5b6116196002600080516020613b2883398151915255565b61162284611904565b61162a6119eb565b905060006116396104196118f2565b905080156116ac5761164b82826119fb565b60006116578683611a1b565b90506000611665828461380f565b905080156116a957600061167982876126ad565b9050611686888883611b35565b6000611692828461380f565b905080156116a6576116a689610a3f610afa565b50505b50505b6116b7856001611b5c565b6116c382610a5f611b76565b50610dac6001600080516020613b2883398151915255565b6116e3611d7b565b6001600160a01b0316336001600160a01b031614611716576040516365f4906560e01b8152336004820152602401610adc565b6001600160a01b03811661173d57604051630e88bf4b60e01b815260040160405180910390fd5b61174681612760565b610af7816110d6565b60006109916113ad565b6000610dac83836127fd565b600061176f6118ce565b6007810183905560405190915082907fab14a23e88fb272313490d4f20d63098e64fd38304c0e07a377db98c2b39b92f90600090a25050565b7f234d8962d7c9a6a6604d7f98797e6ad6d7a886804f7409feb26422e27bf8125490565b60006117d78261262d565b6117f4576040516333d1c03960e21b815260040160405180910390fd5b6117fc6117a8565b60009283526006016020525060409020546001600160a01b031690565b600061182483611064565b9050811561186357336001600160a01b038216146118635761184681336127fd565b611863576040516367d9dca160e11b815260040160405180910390fd5b8361186c6117a8565b6000858152600691909101602052604080822080546001600160a01b0319166001600160a01b0394851617905551859287811692908516917f8c5be1e5ebec7d5bd14f71427d1e84f3dd0314c0f7b2291e5b200ac8c7c3b9259190a450505050565b7f9b35df16c33a6c0e085c9ebd55fb367f81c58c2ed7e9bed98cc622f3308a600d90565b6000806118fd6117a8565b5403919050565b6001600160a01b03811661192b57604051635fbd571760e01b815260040160405180910390fd5b6000611936336121d8565b1115611955576040516316d9a23f60e31b815260040160405180910390fd5b6000611960826121d8565b111561197f576040516316d9a23f60e31b815260040160405180910390fd5b611987611210565b158015906119a35750611998611210565b6119a0611d5c565b10155b156119c157604051637efcdb4960e01b815260040160405180910390fd5b610af7604051806040016040528060088152602001672537b4b72a37bbb760c11b8152508261283a565b60006119f56117a8565b54919050565b80611a046118ce565b600093845260090160205260409092209190915550565b600080611a266118ce565b905060008160060160009054906101000a90046001600160a01b031690506000816001600160a01b0316634ccb20c06040518163ffffffff1660e01b8152600401602060405180830381865afa158015611a84573d6000803e3d6000fd5b505050506040513d601f19601f82011682018060405250810190611aa89190613851565b90506000826001600160a01b0316639f6542aa6040518163ffffffff1660e01b8152600401602060405180830381865afa158015611aea573d6000803e3d6000fd5b505050506040513d601f19601f82011682018060405250810190611b0e919061386e565b9050611b1e868261ffff16612871565b9450611b2b878387611b35565b5050505092915050565b6000611b3f6118ce565b60048101549091506114dc906001600160a01b03168585856128e6565b6108db82826040518060200160405280600081525061292c565b600080611b816118ce565b6006810154909150600160a01b90046001600160401b031615611bb75760060154600160a01b90046001600160401b0316919050565b8060060160009054906101000a90046001600160a01b03166001600160a01b0316638120f0ba6040518163ffffffff1660e01b8152600401602060405180830381865afa158015611c0c573d6000803e3d6000fd5b505050506040513d601f19601f820116820180604052508101906114659190613892565b60008281527f62df4f6c50e7f750c679c064ab345c286dd49de6e39940ae1538c75b44a0e3616020819052604082205490916001600160401b0390911690818103611c8657611c7f84426138af565b9050611cbc565b611c8f8561226c565b611caf57604051637be9098d60e11b815260048101869052602401610adc565b611cb984836138af565b90505b60008581526020848152604091829020805467ffffffffffffffff19166001600160401b038516908117909155915191825286917f2ec2be2c4b90c2cf13ecb6751a24daed6bb741ae5ed3f7371aabf9402f6d62e8910160405180910390a25050505050565b60009081527f62df4f6c50e7f750c679c064ab345c286dd49de6e39940ae1538c75b44a0e36160205260409020546001600160401b031690565b600080611d676117a8565b60010154611d736117a8565b540303919050565b6040805180820182527f9bd0e1a7aef81c47cff971a2fee48406b20f55522326b2e2616c49c24aa506d0546001600160a01b03168082527f9bd0e1a7aef81c47cff971a2fee48406b20f55522326b2e2616c49c24aa506d154602080840182905284516331a9108f60e11b815260048101929092529351600094636352211e92602480820193918290030181865afa158015611e1b573d6000803e3d6000fd5b505050506040513d601f19601f820116820180604052508101906114659190613851565b6001600160a01b038116610af757604051631492df6160e21b815260040160405180910390fd5b6000611e706117a8565b600083815260049190910160205260408120549150600160e01b82169003611ef15780600003610a7c57611ea26117a8565b548210611ec257604051636f96cda160e11b815260040160405180910390fd5b611eca6117a8565b600019909201600081815260049390930160205260409092205490508015611ec257919050565b604051636f96cda160e11b815260040160405180910390fd5b6000806000611f176117a8565b60009485526006016020525050604090912080549092909150565b6114dc82846129a9565b6000611f466118ce565b6006810180546001600160a01b0319166001600160a01b0385161790556080840151909150611f7490612358565b611f818360c00151611e3f565b611f8e8360e00151612133565b611f9c836101000151612760565b6060830151600382015560a08301516001600160a01b031615611fc3578260a00151611fd9565b73eeeeeeeeeeeeeeeeeeeeeeeeeeeeeeeeeeeeeeee5b6004820180546001600160a01b03199081166001600160a01b039384161790915560408501516002840155608085015160068401805467ffffffffffffffff60a01b1916600160a01b6001600160401b039093169290920291909117905560c0850151600584018054831691841691909117905560e08501516007840155610100909401516008909201805490941691161790915550565b7f2d0d21306acfe8e9bb163a4573e95aff6cef95dc1102c6a16d5f19eac08cc4de54640100000000900460ff166120bb57604051630ef4733760e31b815260040160405180910390fd5b6120cb6380ac58cd60e01b6129f5565b6120db635b5e139f60e01b6129f5565b6108db8282612ad3565b6000806120f06118ce565b6000858152600982016020526040902054909150156121225760008481526009909101602052604090205490506108c9565b61212b83610d08565b949350505050565b600061213d6118ce565b90508060060160009054906101000a90046001600160a01b03166001600160a01b0316632cbb9d136040518163ffffffff1660e01b8152600401602060405180830381865afa158015612194573d6000803e3d6000fd5b505050506040513d601f19601f820116820180604052508101906121b891906137e0565b8211156108db5760405163c3983b9160e01b815260040160405180910390fd5b60006001600160a01b038216612201576040516323d3ad8160e21b815260040160405180910390fd5b6001600160401b036122116117a8565b6005016000846001600160a01b03166001600160a01b0316815260200190815260200160002054169050919050565b600061224a6118ce565b6001600160a01b03909216600090815260019290920160205250604090205490565b600042612277611b76565b6001600160401b031661228a91906138d6565b61229383611d22565b6001600160401b03161092915050565b6001600160a01b038116610af757604051636da3122b60e01b815260040160405180910390fd5b60006122d4610e56565b6001600160a01b0316630eac306d6040518163ffffffff1660e01b8152600401602060405180830381865afa158015612311573d6000803e3d6000fd5b505050506040513d601f19601f8201168201806040525081019061233591906137e0565b9050808210156108db57604051631a23d64760e11b815260040160405180910390fd5b612360610e56565b6001600160a01b0316638120f0ba6040518163ffffffff1660e01b8152600401602060405180830381865afa15801561239d573d6000803e3d6000fd5b505050506040513d601f19601f820116820180604052508101906123c19190613892565b6001600160401b0316816001600160401b03161115610af7576040516341191e9760e11b815260040160405180910390fd5b806123fc6118ce565b60060160146101000a8154816001600160401b0302191690836001600160401b0316021790555050565b60008061243283611064565b9050336001600160a01b038216811480612451575061245182826127fd565b8061212b5750806001600160a01b031661246a856117cc565b6001600160a01b031614949350505050565b610af7816000612b05565b7f62df4f6c50e7f750c679c064ab345c286dd49de6e39940ae1538c75b44a0e361600082815260209182526040808220805467ffffffffffffffff191690555190815282917f2ec2be2c4b90c2cf13ecb6751a24daed6bb741ae5ed3f7371aabf9402f6d62e8910160405180910390a250565b8082101561251b57604051636664d51760e11b815260040160405180910390fd5b612523611210565b82116108db57604051636664d51760e11b815260040160405180910390fd5b604051630a85bd0160e11b81526000906001600160a01b0385169063150b7a02906125779033908990889088906004016138e9565b6020604051808303816000875af19250505080156125b2575060408051601f3d908101601f191682019092526125af9181019061391c565b60015b612610573d8080156125e0576040519150601f19603f3d011682016040523d82523d6000602084013e6125e5565b606091505b508051600003612608576040516368d2bf6b60e11b815260040160405180910390fd5b805181602001fd5b6001600160e01b031916630a85bd0160e11b149050949350505050565b60006126376117a8565b54821080156108c95750600160e01b61264e6117a8565b60008481526004919091016020526040902054161592915050565b606060a06040510180604052602081039150506000815280825b600183039250600a81066030018353600a9004806126835750819003601f19909101908152919050565b60008181527fe51b25fea73f50a2b3aac2a4ae8549fcc692472b6c9df7ca78c0d969dad9e8416020819052604082205461ffff168083036126f3576000925050506108c9565b600084815260018084016020908152604092839020835180850190945280548085529201549083015215801590612737575080514210806127375750806020015142115b1561274857600093505050506108c9565b612756868361ffff16612871565b9695505050505050565b6001600160a01b0381166127715750565b6040516301ffc9a760e01b8152635cf4ee9160e01b60048201526001600160a01b038216906301ffc9a790602401602060405180830381865afa1580156127bc573d6000803e3d6000fd5b505050506040513d601f19601f820116820180604052508101906127e09190613946565b610af757604051630e88bf4b60e01b815260040160405180910390fd5b60006128076117a8565b6001600160a01b039384166000908152600791909101602090815260408083209490951682529290925250205460ff1690565b612854604051806020016040528060008152508383612c82565b6108db57604051630ce39a4b60e21b815260040160405180910390fd5b60006127108211156128cf5760405162461bcd60e51b815260206004820152602160248201527f426173697320706f696e74732063616e6e6f74206578636565642031305f30306044820152600360fc1b6064820152608401610adc565b6127106128dc8385613963565b610dac919061397a565b80156114dc5773eeeeeeeeeeeeeeeeeeeeeeeeeeeeeeeeeeeeeeed196001600160a01b038516016129205761291b8282612d06565b6114dc565b6114dc84848484612da9565b6129368383612dfc565b6001600160a01b0383163b15610dd85760006129506117a8565b5490508281035b61296a6000868380600101945086612542565b612987576040516368d2bf6b60e11b815260040160405180910390fd5b81811061295757816129976117a8565b54146129a257600080fd5b5050505050565b60006129b36118ce565b60008481526020828152604080832080546001600160a01b039097166001600160a01b0319909716871790559482526001909201909152919091209190915550565b6001600160e01b0319811660009081527fbc7de460bcfb6afd0c415c8c610d408bd914b18d7d0feec0da9e25348087a5c4602052604090205460ff161515600114612a82576001600160e01b0319811660009081527fbc7de460bcfb6afd0c415c8c610d408bd914b18d7d0feec0da9e25348087a5c460205260409020805460ff19166001179055612a9b565b604051637967f77d60e11b815260040160405180910390fd5b6040516001600160e01b03198216907f78f84e5b1c5c05be2b5ad3800781dd404d6d6c6302bc755c0fe20f58a33a7f2290600090a250565b6000612add6117a8565b905060028101612aed84826139e4565b5060038101612afc83826139e4565b50600090555050565b6000612b1083611e66565b905080600080612b1f86611f0a565b915091508415612b5f57612b34818433610b70565b612b5f57612b4283336127fd565b612b5f57604051632ce44b5f60e11b815260040160405180910390fd5b612b6d836000886001611f32565b8015612b7857600082555b6fffffffffffffffffffffffffffffffff612b916117a8565b6001600160a01b038516600081815260059290920160205260409091208054929092019091554260a01b17600360e01b17612bca6117a8565b60008881526004919091016020526040812091909155600160e11b85169003612c405760018601612bf96117a8565b600082815260049190910160205260408120549003612c3e57612c1a6117a8565b548114612c3e5784612c2a6117a8565b600083815260049190910160205260409020555b505b60405186906000906001600160a01b03861690600080516020613b48833981519152908390a4612c6e6117a8565b600190810180549091019055505050505050565b6000816001600160a01b0316612c96611d7b565b6001600160a01b0316148061212b57507ff421ea548af7158b1d71ba0aeccf57104c067038bd8fd214edd05c09eb4f735b5460ff1615801561212b575061212b848385604051602001612ce99190613aa3565b604051602081830303815290604052612d0190613abf565b612f20565b6000826001600160a01b03168260405160006040518083038185875af1925050503d8060008114612d53576040519150601f19603f3d011682016040523d82523d6000602084013e612d58565b606091505b5050905080610dd85760405162461bcd60e51b815260206004820152601c60248201527f6e617469766520746f6b656e207472616e73666572206661696c6564000000006044820152606401610adc565b816001600160a01b0316836001600160a01b031603156114dc57306001600160a01b03841603612de75761291b6001600160a01b038516838361303f565b6114dc6001600160a01b0385168484846130a2565b6000612e066117a8565b5490506000829003612e2b5760405163b562e8dd60e01b815260040160405180910390fd5b612e386000848385611f32565b680100000000000000018202612e4c6117a8565b6001600160a01b038516600081815260059290920160205260409091208054929092019091554260a01b6001841460e11b1717612e876117a8565b600083815260049190910160205260408120919091556001600160a01b038416908383019083908390600080516020613b488339815191528180a4600183015b818114612eed5780836000600080516020613b48833981519152600080a4600101612ec7565b5081600003612f0e57604051622e076360e81b815260040160405180910390fd5b80612f176117a8565b5550610dd89050565b6000612f2a611d7b565b6001600160a01b0316836001600160a01b031603612f4a57506001610dac565b7f2df4f8e2489b335ef09ede56990b0838afbcdea6c639a41af44b533474fb85586000612f967f2df4f8e2489b335ef09ede56990b0838afbcdea6c639a41af44b533474fb85596130da565b905060005b8181101561303557612fb060018401826130e4565b6001600160a01b031662b4eaa88888886040518463ffffffff1660e01b8152600401612fde93929190613ae3565b602060405180830381865afa158015612ffb573d6000803e3d6000fd5b505050506040513d601f19601f8201168201806040525081019061301f9190613946565b1561302d5760019350613035565b600101612f9b565b5050509392505050565b6040516001600160a01b038316602482015260448101829052610dd890849063a9059cbb60e01b906064015b60408051601f198184030181529190526020810180516001600160e01b03166001600160e01b0319909316929092179091526130f0565b6040516001600160a01b03808516602483015283166044820152606481018290526114dc9085906323b872dd60e01b9060840161306b565b60006108c9825490565b6000610dac83836131c2565b6000613145826040518060400160405280602081526020017f5361666545524332303a206c6f772d6c6576656c2063616c6c206661696c6564815250856001600160a01b03166131ec9092919063ffffffff16565b805190915015610dd857808060200190518101906131639190613946565b610dd85760405162461bcd60e51b815260206004820152602a60248201527f5361666545524332303a204552433230206f7065726174696f6e20646964206e6044820152691bdd081cdd58d8d9595960b21b6064820152608401610adc565b60008260000182815481106131d9576131d9613b11565b9060005260206000200154905092915050565b606061212b848460008585600080866001600160a01b031685876040516132139190613aa3565b60006040518083038185875af1925050503d8060008114613250576040519150601f19603f3d011682016040523d82523d6000602084013e613255565b606091505b509150915061326687838387613271565b979650505050505050565b606083156132e05782516000036132d9576001600160a01b0385163b6132d95760405162461bcd60e51b815260206004820152601d60248201527f416464726573733a2063616c6c20746f206e6f6e2d636f6e74726163740000006044820152606401610adc565b508161212b565b61212b83838151156132f55781518083602001fd5b8060405162461bcd60e51b8152600401610adc919061335f565b60005b8381101561332a578181015183820152602001613312565b50506000910152565b6000815180845261334b81602086016020860161330f565b601f01601f19169290920160200192915050565b602081526000610dac6020830184613333565b60006020828403121561338457600080fd5b5035919050565b6001600160a01b0381168114610af757600080fd5b8035610a7c8161338b565b600080604083850312156133be57600080fd5b82356133c98161338b565b946020939093013593505050565b6000602082840312156133e957600080fd5b8135610dac8161338b565b60008060006060848603121561340957600080fd5b83356134148161338b565b925060208401356134248161338b565b929592945050506040919091013590565b634e487b7160e01b600052604160045260246000fd5b60405161012081016001600160401b038111828210171561346e5761346e613435565b60405290565b60006001600160401b038084111561348e5761348e613435565b604051601f8501601f19908116603f011681019082821181831017156134b6576134b6613435565b816040528093508581528686860111156134cf57600080fd5b858560208301376000602087830101525050509392505050565b600082601f8301126134fa57600080fd5b610dac83833560208501613474565b6001600160401b0381168114610af757600080fd5b8035610a7c81613509565b6000806040838503121561353c57600080fd5b82356001600160401b038082111561355357600080fd5b90840190610120828703121561356857600080fd5b61357061344b565b82358281111561357f57600080fd5b61358b888286016134e9565b8252506020830135828111156135a057600080fd5b6135ac888286016134e9565b60208301525060408301356040820152606083013560608201526135d26080840161351e565b60808201526135e360a084016133a0565b60a08201526135f460c084016133a0565b60c082015260e083013560e082015261010091506136138284016133a0565b82820152809450505050613629602084016133a0565b90509250929050565b60006020828403121561364457600080fd5b8135610dac81613509565b8015158114610af757600080fd5b6000806040838503121561367057600080fd5b823561367b8161338b565b9150602083013561368b8161364f565b809150509250929050565b600080600080608085870312156136ac57600080fd5b84356136b78161338b565b935060208501356136c78161338b565b92506040850135915060608501356001600160401b038111156136e957600080fd5b8501601f810187136136fa57600080fd5b61370987823560208401613474565b91505092959194509250565b6000806040838503121561372857600080fd5b82356001600160401b038082111561373f57600080fd5b61374b868387016134e9565b9350602085013591508082111561376157600080fd5b5061376e858286016134e9565b9150509250929050565b6000806040838503121561378b57600080fd5b82356137968161338b565b9150602083013561368b8161338b565b600181811c908216806137ba57607f821691505b6020821081036137da57634e487b7160e01b600052602260045260246000fd5b50919050565b6000602082840312156137f257600080fd5b5051919050565b634e487b7160e01b600052601160045260246000fd5b818103818111156108c9576108c96137f9565b6000835161383481846020880161330f565b83519083019061384881836020880161330f565b01949350505050565b60006020828403121561386357600080fd5b8151610dac8161338b565b60006020828403121561388057600080fd5b815161ffff81168114610dac57600080fd5b6000602082840312156138a457600080fd5b8151610dac81613509565b6001600160401b038181168382160190808211156138cf576138cf6137f9565b5092915050565b808201808211156108c9576108c96137f9565b6001600160a01b038581168252841660208201526040810183905260806060820181905260009061275690830184613333565b60006020828403121561392e57600080fd5b81516001600160e01b031981168114610dac57600080fd5b60006020828403121561395857600080fd5b8151610dac8161364f565b80820281158282048414176108c9576108c96137f9565b60008261399757634e487b7160e01b600052601260045260246000fd5b500490565b601f821115610dd8576000816000526020600020601f850160051c810160208610156139c55750805b601f850160051c820191505b81811015610d00578281556001016139d1565b81516001600160401b038111156139fd576139fd613435565b613a1181613a0b84546137a6565b8461399c565b602080601f831160018114613a465760008415613a2e5750858301515b600019600386901b1c1916600185901b178555610d00565b600085815260208120601f198616915b82811015613a7557888601518255948401946001909101908401613a56565b5085821015613a935787850151600019600388901b60f8161c191681555b5050505050600190811b01905550565b60008251613ab581846020870161330f565b9190910192915050565b805160208083015191908110156137da5760001960209190910360031b1b16919050565b606081526000613af66060830186613333565b6001600160a01b039490941660208301525060400152919050565b634e487b7160e01b600052603260045260246000fdfe50b052c8fb38984269a818b2b593d0584a81b1b99245abc0fab04abc7afb010fddf252ad1be2c89b69c2b068fc378daa952ba7f163c4a11628f55a4df523b3ef","linkReferences":{}},"methodIdentifiers":{"__ERC721A_init(string,string)":"d2f01f19","__Membership_init((string,string,uint256,uint256,uint64,address,address,uint256,address),address)":"4c2abfbe","_getMembershipCurrency()":"70251563","_getMembershipFeeRecipient()":"1d214b4d","_getMembershipFreeAllocation()":"b3a5be6d","_getMembershipPrice(uint256)":"3ded10de","_getMembershipSupplyLimit()":"8934207f","_getPricingModule()":"ac7ee626","_getTownFactory()":"5b312fce","_setMembershipCurrency(address)":"b8307376","_setMembershipFeeRecipient(address)":"62452006","_setMembershipFreeAllocation(uint256)":"f9d5d22c","_setMembershipPrice(uint256)":"0c3a01b1","_setMembershipSupplyLimit(uint256)":"73fc5a05","_setPricingModule(address)":"69d9346b","approve(address,uint256)":"095ea7b3","balanceOf(address)":"70a08231","cancelMembership(uint256)":"89def320","expiresAt(uint256)":"17c95709","getApproved(uint256)":"081812fc","getMembershipCurrency()":"657e45e8","getMembershipDuration()":"8120f0ba","getMembershipFeeRecipient()":"bf3bc878","getMembershipFreeAllocation()":"706b8e09","getMembershipLimit()":"95d600c8","getMembershipPrice()":"1278076a","getMembershipPricingModule()":"e847abdd","getMembershipRenewalPrice(uint256)":"5803909f","getTownFactory()":"6340d096","isApprovedForAll(address,address)":"e985e9c5","joinTown(address)":"16a344b4","joinTownWithReferral(address,address,uint256)":"d8480c38","name()":"06fdde03","ownerOf(uint256)":"6352211e","renewMembership(address)":"61a9c7df","safeTransferFrom(address,address,uint256)":"42842e0e","safeTransferFrom(address,address,uint256,bytes)":"b88d4fde","setApprovalForAll(address,bool)":"a22cb465","setMembershipCurrency(address)":"7d0567c4","setMembershipDuration(uint64)":"83f3f0dc","setMembershipFeeRecipient(address)":"18e5da65","setMembershipFreeAllocation(uint256)":"5becd24a","setMembershipLimit(uint256)":"97fb7c1e","setMembershipPrice(uint256)":"69d5f38a","setMembershipPricingModule(address)":"df9a9fe6","symbol()":"95d89b41","tokenURI(uint256)":"c87b56dd","totalSupply()":"18160ddd","transferFrom(address,address,uint256)":"23b872dd"},"id":168}