{"abi":[{"type":"function","name":"__ERC721A_init","inputs":[{"name":"name_","type":"string","internalType":"string"},{"name":"symbol_","type":"string","internalType":"string"}],"outputs":[],"stateMutability":"nonpayable"},{"type":"function","name":"__Membership_init","inputs":[{"name":"info","type":"tuple","internalType":"struct IMembershipBase.MembershipInfo","components":[{"name":"name","type":"string","internalType":"string"},{"name":"symbol","type":"string","internalType":"string"},{"name":"price","type":"uint256","internalType":"uint256"},{"name":"maxSupply","type":"uint256","internalType":"uint256"},{"name":"duration","type":"uint64","internalType":"uint64"},{"name":"currency","type":"address","internalType":"address"},{"name":"feeRecipient","type":"address","internalType":"address"},{"name":"freeAllocation","type":"uint256","internalType":"uint256"},{"name":"pricingModule","type":"address","internalType":"address"}]},{"name":"townFactory","type":"address","internalType":"address"}],"outputs":[],"stateMutability":"nonpayable"},{"type":"function","name":"_getMembershipCurrency","inputs":[],"outputs":[{"name":"","type":"address","internalType":"address"}],"stateMutability":"view"},{"type":"function","name":"_getMembershipFeeRecipient","inputs":[],"outputs":[{"name":"","type":"address","internalType":"address"}],"stateMutability":"view"},{"type":"function","name":"_getMembershipFreeAllocation","inputs":[],"outputs":[{"name":"","type":"uint256","internalType":"uint256"}],"stateMutability":"view"},{"type":"function","name":"_getMembershipPrice","inputs":[{"name":"totalMinted","type":"uint256","internalType":"uint256"}],"outputs":[{"name":"","type":"uint256","internalType":"uint256"}],"stateMutability":"view"},{"type":"function","name":"_getMembershipSupplyLimit","inputs":[],"outputs":[{"name":"","type":"uint256","internalType":"uint256"}],"stateMutability":"view"},{"type":"function","name":"_getPricingModule","inputs":[],"outputs":[{"name":"","type":"address","internalType":"address"}],"stateMutability":"view"},{"type":"function","name":"_getTownFactory","inputs":[],"outputs":[{"name":"","type":"address","internalType":"address"}],"stateMutability":"view"},{"type":"function","name":"_setMembershipCurrency","inputs":[{"name":"newCurrency","type":"address","internalType":"address"}],"outputs":[],"stateMutability":"nonpayable"},{"type":"function","name":"_setMembershipFeeRecipient","inputs":[{"name":"newRecipient","type":"address","internalType":"address"}],"outputs":[],"stateMutability":"nonpayable"},{"type":"function","name":"_setMembershipFreeAllocation","inputs":[{"name":"newAllocation","type":"uint256","internalType":"uint256"}],"outputs":[],"stateMutability":"nonpayable"},{"type":"function","name":"_setMembershipPrice","inputs":[{"name":"newPrice","type":"uint256","internalType":"uint256"}],"outputs":[],"stateMutability":"nonpayable"},{"type":"function","name":"_setMembershipSupplyLimit","inputs":[{"name":"newLimit","type":"uint256","internalType":"uint256"}],"outputs":[],"stateMutability":"nonpayable"},{"type":"function","name":"_setPricingModule","inputs":[{"name":"newPricingModule","type":"address","internalType":"address"}],"outputs":[],"stateMutability":"nonpayable"},{"type":"function","name":"approve","inputs":[{"name":"to","type":"address","internalType":"address"},{"name":"tokenId","type":"uint256","internalType":"uint256"}],"outputs":[],"stateMutability":"payable"},{"type":"function","name":"balanceOf","inputs":[{"name":"account","type":"address","internalType":"address"}],"outputs":[{"name":"","type":"uint256","internalType":"uint256"}],"stateMutability":"view"},{"type":"function","name":"cancelMembership","inputs":[{"name":"tokenId","type":"uint256","internalType":"uint256"}],"outputs":[],"stateMutability":"nonpayable"},{"type":"function","name":"expiresAt","inputs":[{"name":"tokenId","type":"uint256","internalType":"uint256"}],"outputs":[{"name":"","type":"uint256","internalType":"uint256"}],"stateMutability":"view"},{"type":"function","name":"getApproved","inputs":[{"name":"tokenId","type":"uint256","internalType":"uint256"}],"outputs":[{"name":"","type":"address","internalType":"address"}],"stateMutability":"view"},{"type":"function","name":"getMembershipCurrency","inputs":[],"outputs":[{"name":"","type":"address","internalType":"address"}],"stateMutability":"view"},{"type":"function","name":"getMembershipDuration","inputs":[],"outputs":[{"name":"","type":"uint64","internalType":"uint64"}],"stateMutability":"view"},{"type":"function","name":"getMembershipFeeRecipient","inputs":[],"outputs":[{"name":"","type":"address","internalType":"address"}],"stateMutability":"view"},{"type":"function","name":"getMembershipFreeAllocation","inputs":[],"outputs":[{"name":"","type":"uint256","internalType":"uint256"}],"stateMutability":"view"},{"type":"function","name":"getMembershipLimit","inputs":[],"outputs":[{"name":"","type":"uint256","internalType":"uint256"}],"stateMutability":"view"},{"type":"function","name":"getMembershipPrice","inputs":[],"outputs":[{"name":"","type":"uint256","internalType":"uint256"}],"stateMutability":"view"},{"type":"function","name":"getMembershipPricingModule","inputs":[],"outputs":[{"name":"","type":"address","internalType":"address"}],"stateMutability":"view"},{"type":"function","name":"getTownFactory","inputs":[],"outputs":[{"name":"","type":"address","internalType":"address"}],"stateMutability":"view"},{"type":"function","name":"isApprovedForAll","inputs":[{"name":"owner","type":"address","internalType":"address"},{"name":"operator","type":"address","internalType":"address"}],"outputs":[{"name":"","type":"bool","internalType":"bool"}],"stateMutability":"view"},{"type":"function","name":"joinTown","inputs":[{"name":"receiver","type":"address","internalType":"address"}],"outputs":[{"name":"tokenId","type":"uint256","internalType":"uint256"}],"stateMutability":"payable"},{"type":"function","name":"joinTownWithReferral","inputs":[{"name":"receiver","type":"address","internalType":"address"},{"name":"referrer","type":"address","internalType":"address"},{"name":"referralCode","type":"uint256","internalType":"uint256"}],"outputs":[{"name":"tokenId","type":"uint256","internalType":"uint256"}],"stateMutability":"payable"},{"type":"function","name":"name","inputs":[],"outputs":[{"name":"","type":"string","internalType":"string"}],"stateMutability":"view"},{"type":"function","name":"ownerOf","inputs":[{"name":"tokenId","type":"uint256","internalType":"uint256"}],"outputs":[{"name":"","type":"address","internalType":"address"}],"stateMutability":"view"},{"type":"function","name":"renewMembership","inputs":[{"name":"receiver","type":"address","internalType":"address"}],"outputs":[],"stateMutability":"payable"},{"type":"function","name":"safeTransferFrom","inputs":[{"name":"from","type":"address","internalType":"address"},{"name":"to","type":"address","internalType":"address"},{"name":"tokenId","type":"uint256","internalType":"uint256"}],"outputs":[],"stateMutability":"payable"},{"type":"function","name":"safeTransferFrom","inputs":[{"name":"from","type":"address","internalType":"address"},{"name":"to","type":"address","internalType":"address"},{"name":"tokenId","type":"uint256","internalType":"uint256"},{"name":"_data","type":"bytes","internalType":"bytes"}],"outputs":[],"stateMutability":"payable"},{"type":"function","name":"setApprovalForAll","inputs":[{"name":"operator","type":"address","internalType":"address"},{"name":"approved","type":"bool","internalType":"bool"}],"outputs":[],"stateMutability":"nonpayable"},{"type":"function","name":"setMembershipCurrency","inputs":[{"name":"newCurrency","type":"address","internalType":"address"}],"outputs":[],"stateMutability":"nonpayable"},{"type":"function","name":"setMembershipDuration","inputs":[{"name":"newDuration","type":"uint64","internalType":"uint64"}],"outputs":[],"stateMutability":"nonpayable"},{"type":"function","name":"setMembershipFeeRecipient","inputs":[{"name":"newRecipient","type":"address","internalType":"address"}],"outputs":[],"stateMutability":"nonpayable"},{"type":"function","name":"setMembershipFreeAllocation","inputs":[{"name":"newAllocation","type":"uint256","internalType":"uint256"}],"outputs":[],"stateMutability":"nonpayable"},{"type":"function","name":"setMembershipLimit","inputs":[{"name":"newLimit","type":"uint256","internalType":"uint256"}],"outputs":[],"stateMutability":"nonpayable"},{"type":"function","name":"setMembershipPrice","inputs":[{"name":"newPrice","type":"uint256","internalType":"uint256"}],"outputs":[],"stateMutability":"nonpayable"},{"type":"function","name":"setMembershipPricingModule","inputs":[{"name":"pricingModule","type":"address","internalType":"address"}],"outputs":[],"stateMutability":"nonpayable"},{"type":"function","name":"symbol","inputs":[],"outputs":[{"name":"","type":"string","internalType":"string"}],"stateMutability":"view"},{"type":"function","name":"tokenURI","inputs":[{"name":"tokenId","type":"uint256","internalType":"uint256"}],"outputs":[{"name":"","type":"string","internalType":"string"}],"stateMutability":"view"},{"type":"function","name":"totalSupply","inputs":[],"outputs":[{"name":"","type":"uint256","internalType":"uint256"}],"stateMutability":"view"},{"type":"function","name":"transferFrom","inputs":[{"name":"from","type":"address","internalType":"address"},{"name":"to","type":"address","internalType":"address"},{"name":"tokenId","type":"uint256","internalType":"uint256"}],"outputs":[],"stateMutability":"payable"},{"type":"event","name":"Approval","inputs":[{"name":"owner","type":"address","indexed":true,"internalType":"address"},{"name":"approved","type":"address","indexed":true,"internalType":"address"},{"name":"tokenId","type":"uint256","indexed":true,"internalType":"uint256"}],"anonymous":false},{"type":"event","name":"ApprovalForAll","inputs":[{"name":"owner","type":"address","indexed":true,"internalType":"address"},{"name":"operator","type":"address","indexed":true,"internalType":"address"},{"name":"approved","type":"bool","indexed":false,"internalType":"bool"}],"anonymous":false},{"type":"event","name":"ConsecutiveTransfer","inputs":[{"name":"fromTokenId","type":"uint256","indexed":true,"internalType":"uint256"},{"name":"toTokenId","type":"uint256","indexed":false,"internalType":"uint256"},{"name":"from","type":"address","indexed":true,"internalType":"address"},{"name":"to","type":"address","indexed":true,"internalType":"address"}],"anonymous":false},{"type":"event","name":"Initialized","inputs":[{"name":"version","type":"uint32","indexed":false,"internalType":"uint32"}],"anonymous":false},{"type":"event","name":"InterfaceAdded","inputs":[{"name":"interfaceId","type":"bytes4","indexed":true,"internalType":"bytes4"}],"anonymous":false},{"type":"event","name":"InterfaceRemoved","inputs":[{"name":"interfaceId","type":"bytes4","indexed":true,"internalType":"bytes4"}],"anonymous":false},{"type":"event","name":"MembershipCurrencyUpdated","inputs":[{"name":"currency","type":"address","indexed":true,"internalType":"address"}],"anonymous":false},{"type":"event","name":"MembershipFeeRecipientUpdated","inputs":[{"name":"recipient","type":"address","indexed":true,"internalType":"address"}],"anonymous":false},{"type":"event","name":"MembershipFreeAllocationUpdated","inputs":[{"name":"allocation","type":"uint256","indexed":true,"internalType":"uint256"}],"anonymous":false},{"type":"event","name":"MembershipLimitUpdated","inputs":[{"name":"limit","type":"uint256","indexed":true,"internalType":"uint256"}],"anonymous":false},{"type":"event","name":"MembershipPriceUpdated","inputs":[{"name":"price","type":"uint256","indexed":true,"internalType":"uint256"}],"anonymous":false},{"type":"event","name":"Membership__ReferralCreated","inputs":[{"name":"code","type":"uint256","indexed":true,"internalType":"uint256"},{"name":"bps","type":"uint16","indexed":false,"internalType":"uint16"}],"anonymous":false},{"type":"event","name":"Membership__ReferralRemoved","inputs":[{"name":"code","type":"uint256","indexed":true,"internalType":"uint256"}],"anonymous":false},{"type":"event","name":"Membership__ReferralTimeCreated","inputs":[{"name":"code","type":"uint256","indexed":true,"internalType":"uint256"},{"name":"bps","type":"uint16","indexed":false,"internalType":"uint16"},{"name":"startTime","type":"uint256","indexed":false,"internalType":"uint256"},{"name":"endTime","type":"uint256","indexed":false,"internalType":"uint256"}],"anonymous":false},{"type":"event","name":"OwnershipTransferred","inputs":[{"name":"previousOwner","type":"address","indexed":true,"internalType":"address"},{"name":"newOwner","type":"address","indexed":true,"internalType":"address"}],"anonymous":false},{"type":"event","name":"Paused","inputs":[{"name":"account","type":"address","indexed":false,"internalType":"address"}],"anonymous":false},{"type":"event","name":"SubscriptionUpdate","inputs":[{"name":"tokenId","type":"uint256","indexed":true,"internalType":"uint256"},{"name":"expiration","type":"uint64","indexed":false,"internalType":"uint64"}],"anonymous":false},{"type":"event","name":"Transfer","inputs":[{"name":"from","type":"address","indexed":true,"internalType":"address"},{"name":"to","type":"address","indexed":true,"internalType":"address"},{"name":"tokenId","type":"uint256","indexed":true,"internalType":"uint256"}],"anonymous":false},{"type":"event","name":"Unpaused","inputs":[{"name":"account","type":"address","indexed":false,"internalType":"address"}],"anonymous":false},{"type":"error","name":"ApprovalCallerNotOwnerNorApproved","inputs":[]},{"type":"error","name":"ApprovalQueryForNonexistentToken","inputs":[]},{"type":"error","name":"BalanceQueryForZeroAddress","inputs":[]},{"type":"error","name":"ERC5643__DurationZero","inputs":[]},{"type":"error","name":"ERC5643__InvalidTokenId","inputs":[{"name":"tokenId","type":"uint256","internalType":"uint256"}]},{"type":"error","name":"ERC5643__NotApprovedOrOwner","inputs":[]},{"type":"error","name":"ERC5643__SubscriptionNotRenewable","inputs":[{"name":"tokenId","type":"uint256","internalType":"uint256"}]},{"type":"error","name":"Entitlement__InvalidValue","inputs":[]},{"type":"error","name":"Entitlement__NotAllowed","inputs":[]},{"type":"error","name":"Entitlement__ValueAlreadyExists","inputs":[]},{"type":"error","name":"Initializable_InInitializingState","inputs":[]},{"type":"error","name":"Initializable_NotInInitializingState","inputs":[]},{"type":"error","name":"Introspection_AlreadySupported","inputs":[]},{"type":"error","name":"Introspection_NotSupported","inputs":[]},{"type":"error","name":"Membership__AlreadyMember","inputs":[]},{"type":"error","name":"Membership__InsufficientPayment","inputs":[]},{"type":"error","name":"Membership__InvalidAddress","inputs":[]},{"type":"error","name":"Membership__InvalidCurrency","inputs":[]},{"type":"error","name":"Membership__InvalidDuration","inputs":[]},{"type":"error","name":"Membership__InvalidFeeRecipient","inputs":[]},{"type":"error","name":"Membership__InvalidFreeAllocation","inputs":[]},{"type":"error","name":"Membership__InvalidLimit","inputs":[]},{"type":"error","name":"Membership__InvalidMaxSupply","inputs":[]},{"type":"error","name":"Membership__InvalidPrice","inputs":[]},{"type":"error","name":"Membership__InvalidPricingModule","inputs":[]},{"type":"error","name":"Membership__InvalidReferralBps","inputs":[]},{"type":"error","name":"Membership__InvalidReferralCode","inputs":[]},{"type":"error","name":"Membership__InvalidReferralTime","inputs":[]},{"type":"error","name":"Membership__InvalidTokenId","inputs":[]},{"type":"error","name":"Membership__MaxSupplyReached","inputs":[]},{"type":"error","name":"Membership__PriceTooLow","inputs":[]},{"type":"error","name":"MintERC2309QuantityExceedsLimit","inputs":[]},{"type":"error","name":"MintToZeroAddress","inputs":[]},{"type":"error","name":"MintZeroQuantity","inputs":[]},{"type":"error","name":"Ownable__NotOwner","inputs":[{"name":"account","type":"address","internalType":"address"}]},{"type":"error","name":"Ownable__ZeroAddress","inputs":[]},{"type":"error","name":"OwnerQueryForNonexistentToken","inputs":[]},{"type":"error","name":"OwnershipNotInitializedForExtraData","inputs":[]},{"type":"error","name":"Pausable__NotPaused","inputs":[]},{"type":"error","name":"Pausable__Paused","inputs":[]},{"type":"error","name":"ReentrancyGuard__ReentrantCall","inputs":[]},{"type":"error","name":"TransferCallerNotOwnerNorApproved","inputs":[]},{"type":"error","name":"TransferFromIncorrectOwner","inputs":[]},{"type":"error","name":"TransferToNonERC721ReceiverImplementer","inputs":[]},{"type":"error","name":"TransferToZeroAddress","inputs":[]},{"type":"error","name":"URIQueryForNonexistentToken","inputs":[]}],"bytecode":{"object":"0x60806040523480156200001157600080fd5b506200001c62000022565b620000ca565b7f2d0d21306acfe8e9bb163a4573e95aff6cef95dc1102c6a16d5f19eac08cc4de8054640100000000900460ff16156200006f576040516366008a2d60e01b815260040160405180910390fd5b805463ffffffff9081161015620000c757805463ffffffff191663ffffffff90811782556040519081527fe9c9b456cb2994b80aeef036cf59d26e9617df80f816a6ee5a5b4166e07e2f5c9060200160405180910390a15b50565b613a9380620000da6000396000f3fe6080604052600436106102935760003560e01c8063706b8e091161015a578063ac7ee626116100c1578063d2f01f191161007a578063d2f01f1914610730578063d8480c3814610750578063df9a9fe614610763578063e847abdd14610783578063e985e9c514610798578063f9d5d22c146107c857600080fd5b8063ac7ee6261461069e578063b3a5be6d146106b3578063b8307376146106c8578063b88d4fde146106e8578063bf3bc878146106fb578063c87b56dd1461071057600080fd5b80638934207f116101135780638934207f146105ff57806389def3201461061457806395d600c81461063457806395d89b411461064957806397fb7c1e1461065e578063a22cb4651461067e57600080fd5b8063706b8e091461053d57806370a082311461055257806373fc5a05146105725780637d0567c4146105925780638120f0ba146105b257806383f3f0dc146105df57600080fd5b806342842e0e116101fe5780636340d096116101b75780636340d0961461049e5780636352211e146104b3578063657e45e8146104d357806369d5f38a146104e857806369d9346b14610508578063702515631461052857600080fd5b806342842e0e146104035780634c2abfbe146104165780635b312fce146104365780635becd24a1461044b57806361a9c7df1461046b578063624520061461047e57600080fd5b806317c957091161025057806317c957091461036657806318160ddd1461038657806318e5da651461039b5780631d214b4d146103bb57806323b872dd146103d05780633ded10de146103e357600080fd5b806306fdde0314610298578063081812fc146102c3578063095ea7b3146102fb5780630c3a01b1146103105780631278076a1461033057806316a344b414610353575b600080fd5b3480156102a457600080fd5b506102ad6107e8565b6040516102ba9190613273565b60405180910390f35b3480156102cf57600080fd5b506102e36102de366004613286565b610883565b6040516001600160a01b0390911681526020016102ba565b61030e6103093660046132bf565b610894565b005b34801561031c57600080fd5b5061030e61032b366004613286565b6108a4565b34801561033c57600080fd5b50610345610949565b6040519081526020016102ba565b6103456103613660046132eb565b61095b565b34801561037257600080fd5b50610345610381366004613286565b610a3c565b34801561039257600080fd5b50610345610a56565b3480156103a757600080fd5b5061030e6103b63660046132eb565b610a60565b3480156103c757600080fd5b506102e3610ab5565b61030e6103de366004613308565b610ad1565b3480156103ef57600080fd5b506103456103fe366004613286565b610cc3565b61030e610411366004613308565b610d78565b34801561042257600080fd5b5061030e61043136600461343d565b610d98565b34801561044257600080fd5b506102e3610dfe565b34801561045757600080fd5b5061030e610466366004613286565b610e1a565b61030e6104793660046132eb565b610e9f565b34801561048a57600080fd5b5061030e6104993660046132eb565b610fae565b3480156104aa57600080fd5b506102e3610fdb565b3480156104bf57600080fd5b506102e36104ce366004613286565b610fe5565b3480156104df57600080fd5b506102e3610ff0565b3480156104f457600080fd5b5061030e610503366004613286565b610ffa565b34801561051457600080fd5b5061030e6105233660046132eb565b611057565b34801561053457600080fd5b506102e3611084565b34801561054957600080fd5b506103456110a0565b34801561055e57600080fd5b5061034561056d3660046132eb565b6110aa565b34801561057e57600080fd5b5061030e61058d366004613286565b6110dd565b34801561059e57600080fd5b5061030e6105ad3660046132eb565b6110ed565b3480156105be57600080fd5b506105c761113a565b6040516001600160401b0390911681526020016102ba565b3480156105eb57600080fd5b5061030e6105fa366004613546565b611144565b34801561060b57600080fd5b50610345611191565b34801561062057600080fd5b5061030e61062f366004613286565b6111a4565b34801561064057600080fd5b5061034561123a565b34801561065557600080fd5b506102ad611244565b34801561066a57600080fd5b5061030e610679366004613286565b61125c565b34801561068a57600080fd5b5061030e610699366004613571565b6112b1565b3480156106aa57600080fd5b506102e361132e565b3480156106bf57600080fd5b5061034561134a565b3480156106d457600080fd5b5061030e6106e33660046132eb565b6113ec565b61030e6106f63660046135aa565b611419565b34801561070757600080fd5b506102e3611463565b34801561071c57600080fd5b506102ad61072b366004613286565b61146d565b34801561073c57600080fd5b5061030e61074b366004613629565b6114fd565b61034561075e366004613308565b611551565b34801561076f57600080fd5b5061030e61077e3660046132eb565b611652565b34801561078f57600080fd5b506102e36116c6565b3480156107a457600080fd5b506107b86107b336600461368c565b6116d0565b60405190151581526020016102ba565b3480156107d457600080fd5b5061030e6107e3366004613286565b6116dc565b60606107f261171f565b6002018054610800906136ba565b80601f016020809104026020016040519081016040528092919081815260200182805461082c906136ba565b80156108795780601f1061084e57610100808354040283529160200191610879565b820191906000526020600020905b81548152906001019060200180831161085c57829003601f168201915b5050505050905090565b600061088e82611743565b92915050565b6108a082826001611790565b5050565b60006108ae610dfe565b90506000816001600160a01b0316630eac306d6040518163ffffffff1660e01b8152600401602060405180830381865afa1580156108f0573d6000803e3d6000fd5b505050506040513d601f19601f8201168201806040525081019061091491906136f4565b90508083101561093757604051631a23d64760e11b815260040160405180910390fd5b82610940611845565b60020155505050565b60006109566103fe611869565b905090565b60006002600080516020613a53833981519152540361098d57604051635db5c7cd60e11b815260040160405180910390fd5b6109a46002600080516020613a5383398151915255565b6109ad8261187b565b60006109ba6103fe611869565b905080156109f95760006109ce8483611962565b905060006109dc8284613723565b905080156109f6576109f6856109f0610ab5565b83611a7c565b50505b610a01611aa3565b9150610a0e836001611ab3565b610a1f82610a1a611acd565b611b87565b50610a376001600080516020613a5383398151915255565b919050565b6000610a4782611c79565b6001600160401b031692915050565b6000610956611cb3565b610a68611cd2565b6001600160a01b0316336001600160a01b031614610aa0576040516365f4906560e01b81523360048201526024015b60405180910390fd5b610aa981611d96565b610ab281610fae565b50565b6000610abf611845565b600501546001600160a01b0316919050565b6000610adc82611dbd565b9050836001600160a01b0316816001600160a01b031614610b0f5760405162a1148160e81b815260040160405180910390fd5b600080610b1b84611e61565b91509150610b408187610b2b3390565b6001600160a01b039081169116811491141790565b610b6b57610b4e86336116d0565b610b6b57604051632ce44b5f60e11b815260040160405180910390fd5b6001600160a01b038516610b9257604051633a954ecd60e21b815260040160405180910390fd5b610b9f8686866001611e89565b8015610baa57600082555b610bb261171f565b6001600160a01b0387166000908152600591909101602052604090208054600019019055610bde61171f565b6001600160a01b03861660008181526005929092016020526040909120805460010190554260a01b17600160e11b17610c1561171f565b60008681526004919091016020526040812091909155600160e11b84169003610c8b5760018401610c4461171f565b600082815260049190910160205260408120549003610c8957610c6561171f565b548114610c895783610c7561171f565b600083815260049190910160205260409020555b505b83856001600160a01b0316876001600160a01b0316600080516020613a7383398151915260405160405180910390a45b505050505050565b600080610cce611845565b60088101549091506001600160a01b031615610d6e5760088101546001600160a01b0316635cf4ee91610cff61134a565b856040518363ffffffff1660e01b8152600401610d26929190918252602082015260400190565b602060405180830381865afa158015610d43573d6000803e3d6000fd5b505050506040513d601f19601f82011682018060405250810190610d6791906136f4565b9392505050565b6002015492915050565b610d9383838360405180602001604052806000815250611419565b505050565b7f2d0d21306acfe8e9bb163a4573e95aff6cef95dc1102c6a16d5f19eac08cc4de54640100000000900460ff16610de257604051630ef4733760e31b815260040160405180910390fd5b610dec8282611e93565b6108a082600001518360200151611fc8565b6000610e08611845565b600601546001600160a01b0316919050565b610e22611cd2565b6001600160a01b0316336001600160a01b031614610e55576040516365f4906560e01b8152336004820152602401610a97565b6000610e5f611191565b90508015801590610e6f57508082115b15610e8d5760405163c3983b9160e01b815260040160405180910390fd5b610e968261203c565b6108a0826116dc565b6002600080516020613a538339815191525403610ecf57604051635db5c7cd60e11b815260040160405180910390fd5b610ee66002600080516020613a5383398151915255565b6001600160a01b038116610f0d57604051635fbd571760e01b815260040160405180910390fd5b610f16816120e1565b600003610f3657604051635fbd571760e01b815260040160405180910390fd5b6000610f4182612149565b90506000610f506103fe611869565b90508015610f89576000610f648483611962565b90506000610f728284613723565b90508015610f8657610f86856109f0610ab5565b50505b610f9582610a1a611acd565b5050610ab26001600080516020613a5383398151915255565b80610fb7611845565b60050180546001600160a01b0319166001600160a01b039290921691909117905550565b6000610956610dfe565b600061088e82611dbd565b6000610956611084565b611002611cd2565b6001600160a01b0316336001600160a01b031614611035576040516365f4906560e01b8152336004820152602401610a97565b611045611040611084565b612175565b61104e8161219c565b610ab2816108a4565b80611060611845565b60080180546001600160a01b0319166001600160a01b039290921691909117905550565b600061108e611845565b600401546001600160a01b0316919050565b600061095661134a565b6000426110be6110b984612149565b611c79565b6001600160401b0316116110d457506000919050565b61088e826120e1565b806110e6611845565b6003015550565b6110f5611cd2565b6001600160a01b0316336001600160a01b031614611128576040516365f4906560e01b8152336004820152602401610a97565b61113181612175565b610ab2816113ec565b6000610956611acd565b61114c611cd2565b6001600160a01b0316336001600160a01b03161461117f576040516365f4906560e01b8152336004820152602401610a97565b6111888161222a565b610ab2816122c5565b600061119b611845565b60030154905090565b6002600080516020613a5383398151915254036111d457604051635db5c7cd60e11b815260040160405180910390fd5b6111eb6002600080516020613a5383398151915255565b6111f4816122f8565b611211576040516367d9dca160e11b815260040160405180910390fd5b61121a8161234f565b6112238161235a565b610ab26001600080516020613a5383398151915255565b6000610956611191565b606061124e61171f565b6003018054610800906136ba565b611264611cd2565b6001600160a01b0316336001600160a01b031614611297576040516365f4906560e01b8152336004820152602401610a97565b6112a8816112a3611cb3565b6123cd565b610ab2816110dd565b806112ba61171f565b336000818152600792909201602090815260408084206001600160a01b03881680865290835293819020805460ff19169515159590951790945592518415158152919290917f17307eab39ab6107e8899845ad3d59bd9653f200f220920489ca2b5937696c31910160405180910390a35050565b6000611338611845565b600801546001600160a01b0316919050565b600080611355611845565b600701549050801561136657919050565b61136e611845565b60060160009054906101000a90046001600160a01b03166001600160a01b0316632cbb9d136040518163ffffffff1660e01b8152600401602060405180830381865afa1580156113c2573d6000803e3d6000fd5b505050506040513d601f19601f820116820180604052508101906113e691906136f4565b91505090565b806113f5611845565b60040180546001600160a01b0319166001600160a01b039290921691909117905550565b611424848484610ad1565b6001600160a01b0383163b1561145d5761144084848484612415565b61145d576040516368d2bf6b60e11b815260040160405180910390fd5b50505050565b6000610956610ab5565b606061147882612500565b61149557604051630a14c4b560e41b815260040160405180910390fd5b60006114ac60408051602081019091526000815290565b905080516000036114cc5760405180602001604052806000815250610d67565b806114d68461253c565b6040516020016114e7929190613736565b6040516020818303038152906040529392505050565b7f2d0d21306acfe8e9bb163a4573e95aff6cef95dc1102c6a16d5f19eac08cc4de54640100000000900460ff1661154757604051630ef4733760e31b815260040160405180910390fd5b6108a08282611fc8565b60006002600080516020613a53833981519152540361158357604051635db5c7cd60e11b815260040160405180910390fd5b61159a6002600080516020613a5383398151915255565b6115a38461187b565b60006115b06103fe611869565b905080156116195760006115c48683611962565b905060006115d28284613723565b905080156116165760006115e68287612580565b90506115f3888883611a7c565b60006115ff8284613723565b9050801561161357611613896109f0610ab5565b50505b50505b611621611aa3565b915061162e856001611ab3565b61163a82610a1a611acd565b50610d676001600080516020613a5383398151915255565b61165a611cd2565b6001600160a01b0316336001600160a01b03161461168d576040516365f4906560e01b8152336004820152602401610a97565b6001600160a01b0381166116b457604051630e88bf4b60e01b815260040160405180910390fd5b6116bd81612633565b610ab281611057565b600061095661132e565b6000610d6783836126d0565b60006116e6611845565b6007810183905560405190915082907fab14a23e88fb272313490d4f20d63098e64fd38304c0e07a377db98c2b39b92f90600090a25050565b7f234d8962d7c9a6a6604d7f98797e6ad6d7a886804f7409feb26422e27bf8125490565b600061174e82612500565b61176b576040516333d1c03960e21b815260040160405180910390fd5b61177361171f565b60009283526006016020525060409020546001600160a01b031690565b600061179b83610fe5565b905081156117da57336001600160a01b038216146117da576117bd81336126d0565b6117da576040516367d9dca160e11b815260040160405180910390fd5b836117e361171f565b6000858152600691909101602052604080822080546001600160a01b0319166001600160a01b0394851617905551859287811692908516917f8c5be1e5ebec7d5bd14f71427d1e84f3dd0314c0f7b2291e5b200ac8c7c3b9259190a450505050565b7f9b35df16c33a6c0e085c9ebd55fb367f81c58c2ed7e9bed98cc622f3308a600d90565b60008061187461171f565b5403919050565b6001600160a01b0381166118a257604051635fbd571760e01b815260040160405180910390fd5b60006118ad336120e1565b11156118cc576040516316d9a23f60e31b815260040160405180910390fd5b60006118d7826120e1565b11156118f6576040516316d9a23f60e31b815260040160405180910390fd5b6118fe611191565b1580159061191a575061190f611191565b611917611cb3565b10155b1561193857604051637efcdb4960e01b815260040160405180910390fd5b610ab2604051806040016040528060088152602001672537b4b72a37bbb760c11b8152508261270d565b60008061196d611845565b905060008160060160009054906101000a90046001600160a01b031690506000816001600160a01b0316634ccb20c06040518163ffffffff1660e01b8152600401602060405180830381865afa1580156119cb573d6000803e3d6000fd5b505050506040513d601f19601f820116820180604052508101906119ef9190613765565b90506000826001600160a01b0316639f6542aa6040518163ffffffff1660e01b8152600401602060405180830381865afa158015611a31573d6000803e3d6000fd5b505050506040513d601f19601f82011682018060405250810190611a559190613782565b9050611a65868261ffff16612744565b9450611a72878387611a7c565b5050505092915050565b6000611a86611845565b600481015490915061145d906001600160a01b03168585856127b9565b6000611aad61171f565b54919050565b6108a08282604051806020016040528060008152506127ff565b600080611ad8611845565b6006810154909150600160a01b90046001600160401b031615611b0e5760060154600160a01b90046001600160401b0316919050565b8060060160009054906101000a90046001600160a01b03166001600160a01b0316638120f0ba6040518163ffffffff1660e01b8152600401602060405180830381865afa158015611b63573d6000803e3d6000fd5b505050506040513d601f19601f820116820180604052508101906113e691906137a6565b60008281527f62df4f6c50e7f750c679c064ab345c286dd49de6e39940ae1538c75b44a0e3616020819052604082205490916001600160401b0390911690818103611bdd57611bd684426137c3565b9050611c13565b611be68561287c565b611c0657604051637be9098d60e11b815260048101869052602401610a97565b611c1084836137c3565b90505b60008581526020848152604091829020805467ffffffffffffffff19166001600160401b038516908117909155915191825286917f2ec2be2c4b90c2cf13ecb6751a24daed6bb741ae5ed3f7371aabf9402f6d62e8910160405180910390a25050505050565b60009081527f62df4f6c50e7f750c679c064ab345c286dd49de6e39940ae1538c75b44a0e36160205260409020546001600160401b031690565b600080611cbe61171f565b60010154611cca61171f565b540303919050565b6040805180820182527f9bd0e1a7aef81c47cff971a2fee48406b20f55522326b2e2616c49c24aa506d0546001600160a01b03168082527f9bd0e1a7aef81c47cff971a2fee48406b20f55522326b2e2616c49c24aa506d154602080840182905284516331a9108f60e11b815260048101929092529351600094636352211e92602480820193918290030181865afa158015611d72573d6000803e3d6000fd5b505050506040513d601f19601f820116820180604052508101906113e69190613765565b6001600160a01b038116610ab257604051631492df6160e21b815260040160405180910390fd5b6000611dc761171f565b600083815260049190910160205260408120549150600160e01b82169003611e485780600003610a3757611df961171f565b548210611e1957604051636f96cda160e11b815260040160405180910390fd5b611e2161171f565b600019909201600081815260049390930160205260409092205490508015611e1957919050565b604051636f96cda160e11b815260040160405180910390fd5b6000806000611e6e61171f565b60009485526006016020525050604090912080549092909150565b61145d82846128b3565b6000611e9d611845565b6006810180546001600160a01b0319166001600160a01b0385161790556080840151909150611ecb9061222a565b611ed88360c00151611d96565b611ee58360e0015161203c565b611ef3836101000151612633565b6060830151600382015560a08301516001600160a01b031615611f1a578260a00151611f30565b73eeeeeeeeeeeeeeeeeeeeeeeeeeeeeeeeeeeeeeee5b6004820180546001600160a01b03199081166001600160a01b039384161790915560408501516002840155608085015160068401805467ffffffffffffffff60a01b1916600160a01b6001600160401b039093169290920291909117905560c0850151600584018054831691841691909117905560e08501516007840155610100909401516008909201805490941691161790915550565b7f2d0d21306acfe8e9bb163a4573e95aff6cef95dc1102c6a16d5f19eac08cc4de54640100000000900460ff1661201257604051630ef4733760e31b815260040160405180910390fd5b6120226380ac58cd60e01b6128ff565b612032635b5e139f60e01b6128ff565b6108a082826129dd565b6000612046611845565b90508060060160009054906101000a90046001600160a01b03166001600160a01b0316632cbb9d136040518163ffffffff1660e01b8152600401602060405180830381865afa15801561209d573d6000803e3d6000fd5b505050506040513d601f19601f820116820180604052508101906120c191906136f4565b8211156108a05760405163c3983b9160e01b815260040160405180910390fd5b60006001600160a01b03821661210a576040516323d3ad8160e21b815260040160405180910390fd5b6001600160401b0361211a61171f565b6005016000846001600160a01b03166001600160a01b0316815260200190815260200160002054169050919050565b6000612153611845565b6001600160a01b03909216600090815260019290920160205250604090205490565b6001600160a01b038116610ab257604051636da3122b60e01b815260040160405180910390fd5b60006121a6610dfe565b6001600160a01b0316630eac306d6040518163ffffffff1660e01b8152600401602060405180830381865afa1580156121e3573d6000803e3d6000fd5b505050506040513d601f19601f8201168201806040525081019061220791906136f4565b9050808210156108a057604051631a23d64760e11b815260040160405180910390fd5b612232610dfe565b6001600160a01b0316638120f0ba6040518163ffffffff1660e01b8152600401602060405180830381865afa15801561226f573d6000803e3d6000fd5b505050506040513d601f19601f8201168201806040525081019061229391906137a6565b6001600160401b0316816001600160401b03161115610ab2576040516341191e9760e11b815260040160405180910390fd5b806122ce611845565b60060160146101000a8154816001600160401b0302191690836001600160401b0316021790555050565b60008061230483610fe5565b9050336001600160a01b038216811480612323575061232382826126d0565b806123475750806001600160a01b031661233c85611743565b6001600160a01b0316145b949350505050565b610ab2816000612a0f565b7f62df4f6c50e7f750c679c064ab345c286dd49de6e39940ae1538c75b44a0e361600082815260209182526040808220805467ffffffffffffffff191690555190815282917f2ec2be2c4b90c2cf13ecb6751a24daed6bb741ae5ed3f7371aabf9402f6d62e8910160405180910390a250565b808210156123ee57604051636664d51760e11b815260040160405180910390fd5b6123f6611191565b82116108a057604051636664d51760e11b815260040160405180910390fd5b604051630a85bd0160e11b81526000906001600160a01b0385169063150b7a029061244a9033908990889088906004016137ea565b6020604051808303816000875af1925050508015612485575060408051601f3d908101601f191682019092526124829181019061381d565b60015b6124e3573d8080156124b3576040519150601f19603f3d011682016040523d82523d6000602084013e6124b8565b606091505b5080516000036124db576040516368d2bf6b60e11b815260040160405180910390fd5b805181602001fd5b6001600160e01b031916630a85bd0160e11b149050949350505050565b600061250a61171f565b548210801561088e5750600160e01b61252161171f565b60008481526004919091016020526040902054161592915050565b606060a06040510180604052602081039150506000815280825b600183039250600a81066030018353600a9004806125565750819003601f19909101908152919050565b60008181527fe51b25fea73f50a2b3aac2a4ae8549fcc692472b6c9df7ca78c0d969dad9e8416020819052604082205461ffff168083036125c65760009250505061088e565b60008481526001808401602090815260409283902083518085019094528054808552920154908301521580159061260a5750805142108061260a5750806020015142115b1561261b576000935050505061088e565b612629868361ffff16612744565b9695505050505050565b6001600160a01b0381166126445750565b6040516301ffc9a760e01b8152635cf4ee9160e01b60048201526001600160a01b038216906301ffc9a790602401602060405180830381865afa15801561268f573d6000803e3d6000fd5b505050506040513d601f19601f820116820180604052508101906126b39190613847565b610ab257604051630e88bf4b60e01b815260040160405180910390fd5b60006126da61171f565b6001600160a01b039384166000908152600791909101602090815260408083209490951682529290925250205460ff1690565b612727604051806020016040528060008152508383612b8c565b6108a057604051630ce39a4b60e21b815260040160405180910390fd5b60006127108211156127a25760405162461bcd60e51b815260206004820152602160248201527f426173697320706f696e74732063616e6e6f74206578636565642031305f30306044820152600360fc1b6064820152608401610a97565b6127106127af8385613864565b610d67919061387b565b801561145d5773eeeeeeeeeeeeeeeeeeeeeeeeeeeeeeeeeeeeeeed196001600160a01b038516016127f3576127ee8282612c10565b61145d565b61145d84848484612cb3565b6128098383612d06565b6001600160a01b0383163b15610d9357600061282361171f565b5490508281035b61283d6000868380600101945086612415565b61285a576040516368d2bf6b60e11b815260040160405180910390fd5b81811061282a578161286a61171f565b541461287557600080fd5b5050505050565b600042612887611acd565b6001600160401b031661289a919061389d565b6128a383611c79565b6001600160401b03161092915050565b60006128bd611845565b60008481526020828152604080832080546001600160a01b039097166001600160a01b0319909716871790559482526001909201909152919091209190915550565b6001600160e01b0319811660009081527fbc7de460bcfb6afd0c415c8c610d408bd914b18d7d0feec0da9e25348087a5c4602052604090205460ff16151560011461298c576001600160e01b0319811660009081527fbc7de460bcfb6afd0c415c8c610d408bd914b18d7d0feec0da9e25348087a5c460205260409020805460ff191660011790556129a5565b604051637967f77d60e11b815260040160405180910390fd5b6040516001600160e01b03198216907f78f84e5b1c5c05be2b5ad3800781dd404d6d6c6302bc755c0fe20f58a33a7f2290600090a250565b60006129e761171f565b9050600281016129f784826138f6565b5060038101612a0683826138f6565b50600090555050565b6000612a1a83611dbd565b905080600080612a2986611e61565b915091508415612a6957612a3e818433610b2b565b612a6957612a4c83336126d0565b612a6957604051632ce44b5f60e11b815260040160405180910390fd5b612a77836000886001611e89565b8015612a8257600082555b6fffffffffffffffffffffffffffffffff612a9b61171f565b6001600160a01b038516600081815260059290920160205260409091208054929092019091554260a01b17600360e01b17612ad461171f565b60008881526004919091016020526040812091909155600160e11b85169003612b4a5760018601612b0361171f565b600082815260049190910160205260408120549003612b4857612b2461171f565b548114612b485784612b3461171f565b600083815260049190910160205260409020555b505b60405186906000906001600160a01b03861690600080516020613a73833981519152908390a4612b7861171f565b600190810180549091019055505050505050565b6000816001600160a01b0316612ba0611cd2565b6001600160a01b0316148061234757507ff421ea548af7158b1d71ba0aeccf57104c067038bd8fd214edd05c09eb4f735b5460ff161580156123475750612347848385604051602001612bf391906139b5565b604051602081830303815290604052612c0b906139d1565b612e2a565b6000826001600160a01b03168260405160006040518083038185875af1925050503d8060008114612c5d576040519150601f19603f3d011682016040523d82523d6000602084013e612c62565b606091505b5050905080610d935760405162461bcd60e51b815260206004820152601c60248201527f6e617469766520746f6b656e207472616e73666572206661696c6564000000006044820152606401610a97565b816001600160a01b0316836001600160a01b0316031561145d57306001600160a01b03841603612cf1576127ee6001600160a01b0385168383612f53565b61145d6001600160a01b038516848484612fb6565b6000612d1061171f565b5490506000829003612d355760405163b562e8dd60e01b815260040160405180910390fd5b612d426000848385611e89565b680100000000000000018202612d5661171f565b6001600160a01b038516600081815260059290920160205260409091208054929092019091554260a01b6001841460e11b1717612d9161171f565b600083815260049190910160205260408120919091556001600160a01b038416908383019083908390600080516020613a738339815191528180a4600183015b818114612df75780836000600080516020613a73833981519152600080a4600101612dd1565b5081600003612e1857604051622e076360e81b815260040160405180910390fd5b80612e2161171f565b5550610d939050565b6000612e34611cd2565b6001600160a01b0316836001600160a01b031603612e5457506001610d67565b7f2df4f8e2489b335ef09ede56990b0838afbcdea6c639a41af44b533474fb85586000612ea07f2df4f8e2489b335ef09ede56990b0838afbcdea6c639a41af44b533474fb8559612fee565b905060005b81811015612f4957612eba6001840182612ff8565b6001600160a01b031662b4eaa88888886040518463ffffffff1660e01b8152600401612ee8939291906139f5565b602060405180830381865afa158015612f05573d6000803e3d6000fd5b505050506040513d601f19601f82011682018060405250810190612f299190613847565b15612f375760019350612f49565b80612f4181613a23565b915050612ea5565b5050509392505050565b6040516001600160a01b038316602482015260448101829052610d9390849063a9059cbb60e01b906064015b60408051601f198184030181529190526020810180516001600160e01b03166001600160e01b031990931692909217909152613004565b6040516001600160a01b038085166024830152831660448201526064810182905261145d9085906323b872dd60e01b90608401612f7f565b600061088e825490565b6000610d6783836130d6565b6000613059826040518060400160405280602081526020017f5361666545524332303a206c6f772d6c6576656c2063616c6c206661696c6564815250856001600160a01b03166131009092919063ffffffff16565b805190915015610d9357808060200190518101906130779190613847565b610d935760405162461bcd60e51b815260206004820152602a60248201527f5361666545524332303a204552433230206f7065726174696f6e20646964206e6044820152691bdd081cdd58d8d9595960b21b6064820152608401610a97565b60008260000182815481106130ed576130ed613a3c565b9060005260206000200154905092915050565b6060612347848460008585600080866001600160a01b0316858760405161312791906139b5565b60006040518083038185875af1925050503d8060008114613164576040519150601f19603f3d011682016040523d82523d6000602084013e613169565b606091505b509150915061317a87838387613185565b979650505050505050565b606083156131f45782516000036131ed576001600160a01b0385163b6131ed5760405162461bcd60e51b815260206004820152601d60248201527f416464726573733a2063616c6c20746f206e6f6e2d636f6e74726163740000006044820152606401610a97565b5081612347565b61234783838151156132095781518083602001fd5b8060405162461bcd60e51b8152600401610a979190613273565b60005b8381101561323e578181015183820152602001613226565b50506000910152565b6000815180845261325f816020860160208601613223565b601f01601f19169290920160200192915050565b602081526000610d676020830184613247565b60006020828403121561329857600080fd5b5035919050565b6001600160a01b0381168114610ab257600080fd5b8035610a378161329f565b600080604083850312156132d257600080fd5b82356132dd8161329f565b946020939093013593505050565b6000602082840312156132fd57600080fd5b8135610d678161329f565b60008060006060848603121561331d57600080fd5b83356133288161329f565b925060208401356133388161329f565b929592945050506040919091013590565b634e487b7160e01b600052604160045260246000fd5b60405161012081016001600160401b038111828210171561338257613382613349565b60405290565b60006001600160401b03808411156133a2576133a2613349565b604051601f8501601f19908116603f011681019082821181831017156133ca576133ca613349565b816040528093508581528686860111156133e357600080fd5b858560208301376000602087830101525050509392505050565b600082601f83011261340e57600080fd5b610d6783833560208501613388565b6001600160401b0381168114610ab257600080fd5b8035610a378161341d565b6000806040838503121561345057600080fd5b82356001600160401b038082111561346757600080fd5b90840190610120828703121561347c57600080fd5b61348461335f565b82358281111561349357600080fd5b61349f888286016133fd565b8252506020830135828111156134b457600080fd5b6134c0888286016133fd565b60208301525060408301356040820152606083013560608201526134e660808401613432565b60808201526134f760a084016132b4565b60a082015261350860c084016132b4565b60c082015260e083013560e082015261010091506135278284016132b4565b8282015280945050505061353d602084016132b4565b90509250929050565b60006020828403121561355857600080fd5b8135610d678161341d565b8015158114610ab257600080fd5b6000806040838503121561358457600080fd5b823561358f8161329f565b9150602083013561359f81613563565b809150509250929050565b600080600080608085870312156135c057600080fd5b84356135cb8161329f565b935060208501356135db8161329f565b92506040850135915060608501356001600160401b038111156135fd57600080fd5b8501601f8101871361360e57600080fd5b61361d87823560208401613388565b91505092959194509250565b6000806040838503121561363c57600080fd5b82356001600160401b038082111561365357600080fd5b61365f868387016133fd565b9350602085013591508082111561367557600080fd5b50613682858286016133fd565b9150509250929050565b6000806040838503121561369f57600080fd5b82356136aa8161329f565b9150602083013561359f8161329f565b600181811c908216806136ce57607f821691505b6020821081036136ee57634e487b7160e01b600052602260045260246000fd5b50919050565b60006020828403121561370657600080fd5b5051919050565b634e487b7160e01b600052601160045260246000fd5b8181038181111561088e5761088e61370d565b60008351613748818460208801613223565b83519083019061375c818360208801613223565b01949350505050565b60006020828403121561377757600080fd5b8151610d678161329f565b60006020828403121561379457600080fd5b815161ffff81168114610d6757600080fd5b6000602082840312156137b857600080fd5b8151610d678161341d565b6001600160401b038181168382160190808211156137e3576137e361370d565b5092915050565b6001600160a01b038581168252841660208201526040810183905260806060820181905260009061262990830184613247565b60006020828403121561382f57600080fd5b81516001600160e01b031981168114610d6757600080fd5b60006020828403121561385957600080fd5b8151610d6781613563565b808202811582820484141761088e5761088e61370d565b60008261389857634e487b7160e01b600052601260045260246000fd5b500490565b8082018082111561088e5761088e61370d565b601f821115610d9357600081815260208120601f850160051c810160208610156138d75750805b601f850160051c820191505b81811015610cbb578281556001016138e3565b81516001600160401b0381111561390f5761390f613349565b6139238161391d84546136ba565b846138b0565b602080601f83116001811461395857600084156139405750858301515b600019600386901b1c1916600185901b178555610cbb565b600085815260208120601f198616915b8281101561398757888601518255948401946001909101908401613968565b50858210156139a55787850151600019600388901b60f8161c191681555b5050505050600190811b01905550565b600082516139c7818460208701613223565b9190910192915050565b805160208083015191908110156136ee5760001960209190910360031b1b16919050565b606081526000613a086060830186613247565b6001600160a01b039490941660208301525060400152919050565b600060018201613a3557613a3561370d565b5060010190565b634e487b7160e01b600052603260045260246000fdfe50b052c8fb38984269a818b2b593d0584a81b1b99245abc0fab04abc7afb010fddf252ad1be2c89b69c2b068fc378daa952ba7f163c4a11628f55a4df523b3ef","linkReferences":{}},"methodIdentifiers":{"__ERC721A_init(string,string)":"d2f01f19","__Membership_init((string,string,uint256,uint256,uint64,address,address,uint256,address),address)":"4c2abfbe","_getMembershipCurrency()":"70251563","_getMembershipFeeRecipient()":"1d214b4d","_getMembershipFreeAllocation()":"b3a5be6d","_getMembershipPrice(uint256)":"3ded10de","_getMembershipSupplyLimit()":"8934207f","_getPricingModule()":"ac7ee626","_getTownFactory()":"5b312fce","_setMembershipCurrency(address)":"b8307376","_setMembershipFeeRecipient(address)":"62452006","_setMembershipFreeAllocation(uint256)":"f9d5d22c","_setMembershipPrice(uint256)":"0c3a01b1","_setMembershipSupplyLimit(uint256)":"73fc5a05","_setPricingModule(address)":"69d9346b","approve(address,uint256)":"095ea7b3","balanceOf(address)":"70a08231","cancelMembership(uint256)":"89def320","expiresAt(uint256)":"17c95709","getApproved(uint256)":"081812fc","getMembershipCurrency()":"657e45e8","getMembershipDuration()":"8120f0ba","getMembershipFeeRecipient()":"bf3bc878","getMembershipFreeAllocation()":"706b8e09","getMembershipLimit()":"95d600c8","getMembershipPrice()":"1278076a","getMembershipPricingModule()":"e847abdd","getTownFactory()":"6340d096","isApprovedForAll(address,address)":"e985e9c5","joinTown(address)":"16a344b4","joinTownWithReferral(address,address,uint256)":"d8480c38","name()":"06fdde03","ownerOf(uint256)":"6352211e","renewMembership(address)":"61a9c7df","safeTransferFrom(address,address,uint256)":"42842e0e","safeTransferFrom(address,address,uint256,bytes)":"b88d4fde","setApprovalForAll(address,bool)":"a22cb465","setMembershipCurrency(address)":"7d0567c4","setMembershipDuration(uint64)":"83f3f0dc","setMembershipFeeRecipient(address)":"18e5da65","setMembershipFreeAllocation(uint256)":"5becd24a","setMembershipLimit(uint256)":"97fb7c1e","setMembershipPrice(uint256)":"69d5f38a","setMembershipPricingModule(address)":"df9a9fe6","symbol()":"95d89b41","tokenURI(uint256)":"c87b56dd","totalSupply()":"18160ddd","transferFrom(address,address,uint256)":"23b872dd"},"id":172}