{
  "abi": [
    {
      "inputs": [],
      "name": "ApprovalCallerNotOwnerNorApproved",
      "type": "error"
    },
    {
      "inputs": [],
      "name": "ApprovalQueryForNonexistentToken",
      "type": "error"
    },
    {
      "inputs": [],
      "name": "BalanceQueryForZeroAddress",
      "type": "error"
    },
    {
      "inputs": [],
      "name": "ERC5643__DurationZero",
      "type": "error"
    },
    {
      "inputs": [
        {
          "internalType": "uint256",
          "name": "tokenId",
          "type": "uint256"
        }
      ],
      "name": "ERC5643__InvalidTokenId",
      "type": "error"
    },
    {
      "inputs": [],
      "name": "ERC5643__NotApprovedOrOwner",
      "type": "error"
    },
    {
      "inputs": [
        {
          "internalType": "uint256",
          "name": "tokenId",
          "type": "uint256"
        }
      ],
      "name": "ERC5643__SubscriptionNotRenewable",
      "type": "error"
    },
    {
      "inputs": [],
      "name": "Entitlement__InvalidValue",
      "type": "error"
    },
    {
      "inputs": [],
      "name": "Entitlement__NotAllowed",
      "type": "error"
    },
    {
      "inputs": [],
      "name": "Entitlement__ValueAlreadyExists",
      "type": "error"
    },
    {
      "inputs": [],
      "name": "Initializable_InInitializingState",
      "type": "error"
    },
    {
      "inputs": [],
      "name": "Initializable_NotInInitializingState",
      "type": "error"
    },
    {
      "inputs": [],
      "name": "Introspection_AlreadySupported",
      "type": "error"
    },
    {
      "inputs": [],
      "name": "Introspection_NotSupported",
      "type": "error"
    },
    {
      "inputs": [],
      "name": "Membership__AlreadyMember",
      "type": "error"
    },
    {
      "inputs": [],
      "name": "Membership__InsufficientPayment",
      "type": "error"
    },
    {
      "inputs": [],
      "name": "Membership__InvalidAddress",
      "type": "error"
    },
    {
      "inputs": [],
      "name": "Membership__InvalidCurrency",
      "type": "error"
    },
    {
      "inputs": [],
      "name": "Membership__InvalidDuration",
      "type": "error"
    },
    {
      "inputs": [],
      "name": "Membership__InvalidFeeRecipient",
      "type": "error"
    },
    {
      "inputs": [],
      "name": "Membership__InvalidLimit",
      "type": "error"
    },
    {
      "inputs": [],
      "name": "Membership__InvalidPrice",
      "type": "error"
    },
    {
      "inputs": [],
      "name": "Membership__LimitReached",
      "type": "error"
    },
    {
      "inputs": [],
      "name": "Membership__PriceTooLow",
      "type": "error"
    },
    {
      "inputs": [],
      "name": "MintERC2309QuantityExceedsLimit",
      "type": "error"
    },
    {
      "inputs": [],
      "name": "MintToZeroAddress",
      "type": "error"
    },
    {
      "inputs": [],
      "name": "MintZeroQuantity",
      "type": "error"
    },
    {
      "inputs": [
        {
          "internalType": "address",
          "name": "account",
          "type": "address"
        }
      ],
      "name": "Ownable__NotOwner",
      "type": "error"
    },
    {
      "inputs": [],
      "name": "Ownable__ZeroAddress",
      "type": "error"
    },
    {
      "inputs": [],
      "name": "OwnerQueryForNonexistentToken",
      "type": "error"
    },
    {
      "inputs": [],
      "name": "OwnershipNotInitializedForExtraData",
      "type": "error"
    },
    {
      "inputs": [],
      "name": "Pausable__NotPaused",
      "type": "error"
    },
    {
      "inputs": [],
      "name": "Pausable__Paused",
      "type": "error"
    },
    {
      "inputs": [],
      "name": "ReentrancyGuard__ReentrantCall",
      "type": "error"
    },
    {
      "inputs": [],
      "name": "TransferCallerNotOwnerNorApproved",
      "type": "error"
    },
    {
      "inputs": [],
      "name": "TransferFromIncorrectOwner",
      "type": "error"
    },
    {
      "inputs": [],
      "name": "TransferToNonERC721ReceiverImplementer",
      "type": "error"
    },
    {
      "inputs": [],
      "name": "TransferToZeroAddress",
      "type": "error"
    },
    {
      "inputs": [],
      "name": "URIQueryForNonexistentToken",
      "type": "error"
    },
    {
      "anonymous": false,
      "inputs": [
        {
          "indexed": true,
          "internalType": "address",
          "name": "owner",
          "type": "address"
        },
        {
          "indexed": true,
          "internalType": "address",
          "name": "approved",
          "type": "address"
        },
        {
          "indexed": true,
          "internalType": "uint256",
          "name": "tokenId",
          "type": "uint256"
        }
      ],
      "name": "Approval",
      "type": "event"
    },
    {
      "anonymous": false,
      "inputs": [
        {
          "indexed": true,
          "internalType": "address",
          "name": "owner",
          "type": "address"
        },
        {
          "indexed": true,
          "internalType": "address",
          "name": "operator",
          "type": "address"
        },
        {
          "indexed": false,
          "internalType": "bool",
          "name": "approved",
          "type": "bool"
        }
      ],
      "name": "ApprovalForAll",
      "type": "event"
    },
    {
      "anonymous": false,
      "inputs": [
        {
          "indexed": true,
          "internalType": "uint256",
          "name": "fromTokenId",
          "type": "uint256"
        },
        {
          "indexed": false,
          "internalType": "uint256",
          "name": "toTokenId",
          "type": "uint256"
        },
        {
          "indexed": true,
          "internalType": "address",
          "name": "from",
          "type": "address"
        },
        {
          "indexed": true,
          "internalType": "address",
          "name": "to",
          "type": "address"
        }
      ],
      "name": "ConsecutiveTransfer",
      "type": "event"
    },
    {
      "anonymous": false,
      "inputs": [
        {
          "indexed": false,
          "internalType": "uint32",
          "name": "version",
          "type": "uint32"
        }
      ],
      "name": "Initialized",
      "type": "event"
    },
    {
      "anonymous": false,
      "inputs": [
        {
          "indexed": true,
          "internalType": "bytes4",
          "name": "interfaceId",
          "type": "bytes4"
        }
      ],
      "name": "InterfaceAdded",
      "type": "event"
    },
    {
      "anonymous": false,
      "inputs": [
        {
          "indexed": true,
          "internalType": "bytes4",
          "name": "interfaceId",
          "type": "bytes4"
        }
      ],
      "name": "InterfaceRemoved",
      "type": "event"
    },
    {
      "anonymous": false,
      "inputs": [
        {
          "indexed": true,
          "internalType": "address",
          "name": "currency",
          "type": "address"
        }
      ],
      "name": "MembershipCurrencyUpdated",
      "type": "event"
    },
    {
      "anonymous": false,
      "inputs": [
        {
          "indexed": true,
          "internalType": "address",
          "name": "recipient",
          "type": "address"
        }
      ],
      "name": "MembershipFeeRecipientUpdated",
      "type": "event"
    },
    {
      "anonymous": false,
      "inputs": [
        {
          "indexed": true,
          "internalType": "uint256",
          "name": "limit",
          "type": "uint256"
        }
      ],
      "name": "MembershipLimitUpdated",
      "type": "event"
    },
    {
      "anonymous": false,
      "inputs": [
        {
          "indexed": true,
          "internalType": "uint256",
          "name": "price",
          "type": "uint256"
        }
      ],
      "name": "MembershipPriceUpdated",
      "type": "event"
    },
    {
      "anonymous": false,
      "inputs": [
        {
          "indexed": true,
          "internalType": "address",
          "name": "previousOwner",
          "type": "address"
        },
        {
          "indexed": true,
          "internalType": "address",
          "name": "newOwner",
          "type": "address"
        }
      ],
      "name": "OwnershipTransferred",
      "type": "event"
    },
    {
      "anonymous": false,
      "inputs": [
        {
          "indexed": false,
          "internalType": "address",
          "name": "account",
          "type": "address"
        }
      ],
      "name": "Paused",
      "type": "event"
    },
    {
      "anonymous": false,
      "inputs": [
        {
          "indexed": true,
          "internalType": "uint256",
          "name": "tokenId",
          "type": "uint256"
        },
        {
          "indexed": false,
          "internalType": "uint64",
          "name": "expiration",
          "type": "uint64"
        }
      ],
      "name": "SubscriptionUpdate",
      "type": "event"
    },
    {
      "anonymous": false,
      "inputs": [
        {
          "indexed": true,
          "internalType": "address",
          "name": "from",
          "type": "address"
        },
        {
          "indexed": true,
          "internalType": "address",
          "name": "to",
          "type": "address"
        },
        {
          "indexed": true,
          "internalType": "uint256",
          "name": "tokenId",
          "type": "uint256"
        }
      ],
      "name": "Transfer",
      "type": "event"
    },
    {
      "anonymous": false,
      "inputs": [
        {
          "indexed": false,
          "internalType": "address",
          "name": "account",
          "type": "address"
        }
      ],
      "name": "Unpaused",
      "type": "event"
    },
    {
      "inputs": [
        {
          "internalType": "string",
          "name": "name_",
          "type": "string"
        },
        {
          "internalType": "string",
          "name": "symbol_",
          "type": "string"
        }
      ],
      "name": "__ERC721A_init",
      "outputs": [],
      "stateMutability": "nonpayable",
      "type": "function"
    },
    {
      "inputs": [
        {
          "components": [
            {
              "internalType": "string",
              "name": "name",
              "type": "string"
            },
            {
              "internalType": "string",
              "name": "symbol",
              "type": "string"
            },
            {
              "internalType": "uint256",
              "name": "price",
              "type": "uint256"
            },
            {
              "internalType": "uint256",
              "name": "limit",
              "type": "uint256"
            },
            {
              "internalType": "uint64",
              "name": "duration",
              "type": "uint64"
            },
            {
              "internalType": "address",
              "name": "currency",
              "type": "address"
            },
            {
              "internalType": "address",
              "name": "feeRecipient",
              "type": "address"
            }
          ],
          "internalType": "struct IMembershipBase.MembershipInfo",
          "name": "info",
          "type": "tuple"
        },
        {
          "internalType": "address",
          "name": "townFactory",
          "type": "address"
        },
        {
          "internalType": "address",
          "name": "forwarder",
          "type": "address"
        }
      ],
      "name": "__Membership_init",
      "outputs": [],
      "stateMutability": "nonpayable",
      "type": "function"
    },
    {
      "inputs": [],
      "name": "_getMembershipCurrency",
      "outputs": [
        {
          "internalType": "address",
          "name": "",
          "type": "address"
        }
      ],
      "stateMutability": "view",
      "type": "function"
    },
    {
      "inputs": [],
      "name": "_getMembershipFeeRecipient",
      "outputs": [
        {
          "internalType": "address",
          "name": "",
          "type": "address"
        }
      ],
      "stateMutability": "view",
      "type": "function"
    },
    {
      "inputs": [],
      "name": "_getMembershipLimit",
      "outputs": [
        {
          "internalType": "uint256",
          "name": "",
          "type": "uint256"
        }
      ],
      "stateMutability": "view",
      "type": "function"
    },
    {
      "inputs": [],
      "name": "_getMembershipPrice",
      "outputs": [
        {
          "internalType": "uint256",
          "name": "",
          "type": "uint256"
        }
      ],
      "stateMutability": "view",
      "type": "function"
    },
    {
      "inputs": [],
      "name": "_getTownFactory",
      "outputs": [
        {
          "internalType": "address",
          "name": "",
          "type": "address"
        }
      ],
      "stateMutability": "view",
      "type": "function"
    },
    {
      "inputs": [
        {
          "internalType": "address",
          "name": "newCurrency",
          "type": "address"
        }
      ],
      "name": "_setMembershipCurrency",
      "outputs": [],
      "stateMutability": "nonpayable",
      "type": "function"
    },
    {
      "inputs": [
        {
          "internalType": "address",
          "name": "newRecipient",
          "type": "address"
        }
      ],
      "name": "_setMembershipFeeRecipient",
      "outputs": [],
      "stateMutability": "nonpayable",
      "type": "function"
    },
    {
      "inputs": [
        {
          "internalType": "uint256",
          "name": "newLimit",
          "type": "uint256"
        }
      ],
      "name": "_setMembershipLimit",
      "outputs": [],
      "stateMutability": "nonpayable",
      "type": "function"
    },
    {
      "inputs": [
        {
          "internalType": "uint256",
          "name": "newPrice",
          "type": "uint256"
        }
      ],
      "name": "_setMembershipPrice",
      "outputs": [],
      "stateMutability": "nonpayable",
      "type": "function"
    },
    {
      "inputs": [
        {
          "internalType": "address",
          "name": "to",
          "type": "address"
        },
        {
          "internalType": "uint256",
          "name": "tokenId",
          "type": "uint256"
        }
      ],
      "name": "approve",
      "outputs": [],
      "stateMutability": "payable",
      "type": "function"
    },
    {
      "inputs": [
        {
          "internalType": "address",
          "name": "account",
          "type": "address"
        }
      ],
      "name": "balanceOf",
      "outputs": [
        {
          "internalType": "uint256",
          "name": "",
          "type": "uint256"
        }
      ],
      "stateMutability": "view",
      "type": "function"
    },
    {
      "inputs": [
        {
          "internalType": "uint256",
          "name": "tokenId",
          "type": "uint256"
        }
      ],
      "name": "cancelMembership",
      "outputs": [],
      "stateMutability": "nonpayable",
      "type": "function"
    },
    {
      "inputs": [
        {
          "internalType": "uint256",
          "name": "tokenId",
          "type": "uint256"
        }
      ],
      "name": "expiresAt",
      "outputs": [
        {
          "internalType": "uint256",
          "name": "",
          "type": "uint256"
        }
      ],
      "stateMutability": "view",
      "type": "function"
    },
    {
      "inputs": [
        {
          "internalType": "uint256",
          "name": "tokenId",
          "type": "uint256"
        }
      ],
      "name": "getApproved",
      "outputs": [
        {
          "internalType": "address",
          "name": "",
          "type": "address"
        }
      ],
      "stateMutability": "view",
      "type": "function"
    },
    {
      "inputs": [],
      "name": "getMembershipCurrency",
      "outputs": [
        {
          "internalType": "address",
          "name": "",
          "type": "address"
        }
      ],
      "stateMutability": "view",
      "type": "function"
    },
    {
      "inputs": [],
      "name": "getMembershipDuration",
      "outputs": [
        {
          "internalType": "uint64",
          "name": "",
          "type": "uint64"
        }
      ],
      "stateMutability": "view",
      "type": "function"
    },
    {
      "inputs": [],
      "name": "getMembershipFeeRecipient",
      "outputs": [
        {
          "internalType": "address",
          "name": "",
          "type": "address"
        }
      ],
      "stateMutability": "view",
      "type": "function"
    },
    {
      "inputs": [],
      "name": "getMembershipLimit",
      "outputs": [
        {
          "internalType": "uint256",
          "name": "",
          "type": "uint256"
        }
      ],
      "stateMutability": "view",
      "type": "function"
    },
    {
      "inputs": [],
      "name": "getMembershipPrice",
      "outputs": [
        {
          "internalType": "uint256",
          "name": "",
          "type": "uint256"
        }
      ],
      "stateMutability": "view",
      "type": "function"
    },
    {
      "inputs": [],
      "name": "getTownFactory",
      "outputs": [
        {
          "internalType": "address",
          "name": "",
          "type": "address"
        }
      ],
      "stateMutability": "view",
      "type": "function"
    },
    {
      "inputs": [
        {
          "internalType": "address",
          "name": "owner",
          "type": "address"
        },
        {
          "internalType": "address",
          "name": "operator",
          "type": "address"
        }
      ],
      "name": "isApprovedForAll",
      "outputs": [
        {
          "internalType": "bool",
          "name": "",
          "type": "bool"
        }
      ],
      "stateMutability": "view",
      "type": "function"
    },
    {
      "inputs": [
        {
          "internalType": "address",
          "name": "forwarder",
          "type": "address"
        }
      ],
      "name": "isTrustedForwarder",
      "outputs": [
        {
          "internalType": "bool",
          "name": "",
          "type": "bool"
        }
      ],
      "stateMutability": "view",
      "type": "function"
    },
    {
      "inputs": [
        {
          "internalType": "address",
          "name": "receiver",
          "type": "address"
        }
      ],
      "name": "joinTown",
      "outputs": [
        {
          "internalType": "uint256",
          "name": "tokenId",
          "type": "uint256"
        }
      ],
      "stateMutability": "payable",
      "type": "function"
    },
    {
      "inputs": [],
      "name": "name",
      "outputs": [
        {
          "internalType": "string",
          "name": "",
          "type": "string"
        }
      ],
      "stateMutability": "view",
      "type": "function"
    },
    {
      "inputs": [
        {
          "internalType": "uint256",
          "name": "tokenId",
          "type": "uint256"
        }
      ],
      "name": "ownerOf",
      "outputs": [
        {
          "internalType": "address",
          "name": "",
          "type": "address"
        }
      ],
      "stateMutability": "view",
      "type": "function"
    },
    {
      "inputs": [
        {
          "internalType": "address",
          "name": "receiver",
          "type": "address"
        }
      ],
      "name": "renewMembership",
      "outputs": [],
      "stateMutability": "payable",
      "type": "function"
    },
    {
      "inputs": [
        {
          "internalType": "address",
          "name": "from",
          "type": "address"
        },
        {
          "internalType": "address",
          "name": "to",
          "type": "address"
        },
        {
          "internalType": "uint256",
          "name": "tokenId",
          "type": "uint256"
        }
      ],
      "name": "safeTransferFrom",
      "outputs": [],
      "stateMutability": "payable",
      "type": "function"
    },
    {
      "inputs": [
        {
          "internalType": "address",
          "name": "from",
          "type": "address"
        },
        {
          "internalType": "address",
          "name": "to",
          "type": "address"
        },
        {
          "internalType": "uint256",
          "name": "tokenId",
          "type": "uint256"
        },
        {
          "internalType": "bytes",
          "name": "_data",
          "type": "bytes"
        }
      ],
      "name": "safeTransferFrom",
      "outputs": [],
      "stateMutability": "payable",
      "type": "function"
    },
    {
      "inputs": [
        {
          "internalType": "address",
          "name": "operator",
          "type": "address"
        },
        {
          "internalType": "bool",
          "name": "approved",
          "type": "bool"
        }
      ],
      "name": "setApprovalForAll",
      "outputs": [],
      "stateMutability": "nonpayable",
      "type": "function"
    },
    {
      "inputs": [
        {
          "internalType": "address",
          "name": "newCurrency",
          "type": "address"
        }
      ],
      "name": "setMembershipCurrency",
      "outputs": [],
      "stateMutability": "nonpayable",
      "type": "function"
    },
    {
      "inputs": [
        {
          "internalType": "uint64",
          "name": "newDuration",
          "type": "uint64"
        }
      ],
      "name": "setMembershipDuration",
      "outputs": [],
      "stateMutability": "nonpayable",
      "type": "function"
    },
    {
      "inputs": [
        {
          "internalType": "address",
          "name": "newRecipient",
          "type": "address"
        }
      ],
      "name": "setMembershipFeeRecipient",
      "outputs": [],
      "stateMutability": "nonpayable",
      "type": "function"
    },
    {
      "inputs": [
        {
          "internalType": "uint256",
          "name": "newLimit",
          "type": "uint256"
        }
      ],
      "name": "setMembershipLimit",
      "outputs": [],
      "stateMutability": "nonpayable",
      "type": "function"
    },
    {
      "inputs": [
        {
          "internalType": "uint256",
          "name": "newPrice",
          "type": "uint256"
        }
      ],
      "name": "setMembershipPrice",
      "outputs": [],
      "stateMutability": "nonpayable",
      "type": "function"
    },
    {
      "inputs": [],
      "name": "symbol",
      "outputs": [
        {
          "internalType": "string",
          "name": "",
          "type": "string"
        }
      ],
      "stateMutability": "view",
      "type": "function"
    },
    {
      "inputs": [
        {
          "internalType": "uint256",
          "name": "tokenId",
          "type": "uint256"
        }
      ],
      "name": "tokenURI",
      "outputs": [
        {
          "internalType": "string",
          "name": "",
          "type": "string"
        }
      ],
      "stateMutability": "view",
      "type": "function"
    },
    {
      "inputs": [],
      "name": "totalSupply",
      "outputs": [
        {
          "internalType": "uint256",
          "name": "",
          "type": "uint256"
        }
      ],
      "stateMutability": "view",
      "type": "function"
    },
    {
      "inputs": [
        {
          "internalType": "address",
          "name": "from",
          "type": "address"
        },
        {
          "internalType": "address",
          "name": "to",
          "type": "address"
        },
        {
          "internalType": "uint256",
          "name": "tokenId",
          "type": "uint256"
        }
      ],
      "name": "transferFrom",
      "outputs": [],
      "stateMutability": "payable",
      "type": "function"
    }
  ],
  "bytecode": {
    "object": "0x60806040523480156200001157600080fd5b506200001c62000022565b620000ca565b7f2d0d21306acfe8e9bb163a4573e95aff6cef95dc1102c6a16d5f19eac08cc4de8054640100000000900460ff16156200006f576040516366008a2d60e01b815260040160405180910390fd5b805463ffffffff9081161015620000c757805463ffffffff191663ffffffff90811782556040519081527fe9c9b456cb2994b80aeef036cf59d26e9617df80f816a6ee5a5b4166e07e2f5c9060200160405180910390a15b50565b6134dd80620000da6000396000f3fe60806040526004361061023b5760003560e01c80636340d0961161012e57806395d600c8116100ab578063b88d4fde1161006f578063b88d4fde14610636578063bf3bc87814610649578063c87b56dd1461065e578063d2f01f191461067e578063e985e9c51461069e57600080fd5b806395d600c8146105ac57806395d89b41146105c157806397fb7c1e146105d6578063a22cb465146105f6578063b83073761461061657600080fd5b806370a08231116100f257806370a08231146104ff5780637d0567c41461051f5780638120f0ba1461053f57806383f3f0dc1461056c57806389def3201461058c57600080fd5b80636340d096146104805780636352211e14610495578063657e45e8146104b557806369d5f38a146104ca57806370251563146104ea57600080fd5b806318160ddd116101bc57806342842e0e1161018057806342842e0e146103f5578063572b6c05146104085780635b312fce1461043857806361a9c7df1461044d578063624520061461046057600080fd5b806318160ddd1461038357806318e5da65146103985780631b3972f0146103b85780631d214b4d146103cd57806323b872dd146103e257600080fd5b806310c57b461161020357806310c57b46146102f85780631278076a1461031857806316a344b41461033b5780631766bb7b1461034e57806317c957091461036357600080fd5b806302b24da51461024057806306fdde0314610262578063081812fc1461028d578063095ea7b3146102c55780630c3a01b1146102d8575b600080fd5b34801561024c57600080fd5b5061026061025b366004612c74565b6106be565b005b34801561026e57600080fd5b5061027761077a565b6040516102849190612cdd565b60405180910390f35b34801561029957600080fd5b506102ad6102a8366004612c74565b610815565b6040516001600160a01b039091168152602001610284565b6102606102d3366004612d10565b610826565b3480156102e457600080fd5b506102606102f3366004612c74565b610836565b34801561030457600080fd5b50610260610313366004612e2f565b610908565b34801561032457600080fd5b5061032d6109ba565b604051908152602001610284565b61032d610349366004612f28565b6109c9565b34801561035a57600080fd5b5061032d610af1565b34801561036f57600080fd5b5061032d61037e366004612c74565b610b92565b34801561038f57600080fd5b5061032d610bac565b3480156103a457600080fd5b506102606103b3366004612f28565b610bb6565b3480156103c457600080fd5b5061032d610c02565b3480156103d957600080fd5b506102ad610c15565b6102606103f0366004612f45565b610c31565b610260610403366004612f45565b610e26565b34801561041457600080fd5b50610428610423366004612f28565b610e41565b6040519015158152602001610284565b34801561044457600080fd5b506102ad610e7e565b61026061045b366004612f28565b610e9a565b34801561046c57600080fd5b5061026061047b366004612f28565b610f68565b34801561048c57600080fd5b506102ad610fbc565b3480156104a157600080fd5b506102ad6104b0366004612c74565b610fc6565b3480156104c157600080fd5b506102ad610fd1565b3480156104d657600080fd5b506102606104e5366004612c74565b610fdb565b3480156104f657600080fd5b506102ad61101f565b34801561050b57600080fd5b5061032d61051a366004612f28565b61103b565b34801561052b57600080fd5b5061026061053a366004612f28565b61106e565b34801561054b57600080fd5b506105546110b2565b6040516001600160401b039091168152602001610284565b34801561057857600080fd5b50610260610587366004612f86565b6110bc565b34801561059857600080fd5b506102606105a7366004612c74565b611100565b3480156105b857600080fd5b5061032d611196565b3480156105cd57600080fd5b506102776111a0565b3480156105e257600080fd5b506102606105f1366004612c74565b6111b8565b34801561060257600080fd5b50610260610611366004612fb1565b6111fc565b34801561062257600080fd5b50610260610631366004612f28565b61129e565b610260610644366004612fea565b6112f2565b34801561065557600080fd5b506102ad61133c565b34801561066a57600080fd5b50610277610679366004612c74565b611346565b34801561068a57600080fd5b50610260610699366004613069565b6113d7565b3480156106aa57600080fd5b506104286106b93660046130cc565b61142b565b60006106c8611437565b905060008160060160009054906101000a90046001600160a01b03166001600160a01b0316632cbb9d136040518163ffffffff1660e01b8152600401602060405180830381865afa158015610721573d6000803e3d6000fd5b505050506040513d601f19601f8201168201806040525081019061074591906130fa565b90508083111561076857604051632b6e8cbb60e11b815260040160405180910390fd5b82610771611437565b60030155505050565b606061078461145b565b600201805461079290613113565b80601f01602080910402602001604051908101604052809291908181526020018280546107be90613113565b801561080b5780601f106107e05761010080835404028352916020019161080b565b820191906000526020600020905b8154815290600101906020018083116107ee57829003601f168201915b5050505050905090565b60006108208261147f565b92915050565b610832828260016114cc565b5050565b6000610840611437565b60048101549091506001600160a01b031661086e57604051636da3122b60e01b815260040160405180910390fd5b600681015460408051630eac306d60e01b815290516000926001600160a01b031691630eac306d9160048083019260209291908290030181865afa1580156108ba573d6000803e3d6000fd5b505050506040513d601f19601f820116820180604052508101906108de91906130fa565b90508083101561090157604051631a23d64760e11b815260040160405180910390fd5b5060020155565b7f2d0d21306acfe8e9bb163a4573e95aff6cef95dc1102c6a16d5f19eac08cc4de54640100000000900460ff1661095257604051630ef4733760e31b815260040160405180910390fd5b61095c8383611598565b61096e83600001518460200151611668565b6109b5816001600160a01b031660009081527f9be1203d7c008407e47cf520c8f15f54b074f0a2af3750145c254290338afc3f60205260409020805460ff19166001179055565b505050565b60006109c4610c02565b905090565b6000600260008051602061349d83398151915254036109fb57604051635db5c7cd60e11b815260040160405180910390fd5b610a12600260008051602061349d83398151915255565b610a3b604051806040016040528060088152602001672537b4b72a37bbb760c11b8152506116dc565b6000610a4683611712565b1115610a65576040516316d9a23f60e31b815260040160405180910390fd5b610a6d610c02565b158015610a885750610a7d610af1565b610a8561177a565b10155b15610aa657604051635e9cd6f760e01b815260040160405180910390fd5b610aae611799565b9050610ab9826117a9565b610ac4826001611a74565b610ad581610ad0611a8e565b611b4f565b610aec600160008051602061349d83398151915255565b919050565b600080610afc611437565b90508060030154600003610b89578060060160009054906101000a90046001600160a01b03166001600160a01b0316632cbb9d136040518163ffffffff1660e01b8152600401602060405180830381865afa158015610b5f573d6000803e3d6000fd5b505050506040513d601f19601f82011682018060405250810190610b8391906130fa565b91505090565b60030154919050565b6000610b9d82611c41565b6001600160401b031692915050565b60006109c461177a565b610bbe611c7b565b6001600160a01b0316336001600160a01b031614610bf6576040516365f4906560e01b81523360048201526024015b60405180910390fd5b610bff81610f68565b50565b6000610c0c611437565b60020154905090565b6000610c1f611437565b600501546001600160a01b0316919050565b6000610c3c82611d3f565b9050836001600160a01b0316816001600160a01b031614610c6f5760405162a1148160e81b815260040160405180910390fd5b600080610c7b84611de3565b91509150610ca18187610c8c611e0b565b6001600160a01b039081169116811491141790565b610cce57610cb1866106b9611e0b565b610cce57604051632ce44b5f60e11b815260040160405180910390fd5b6001600160a01b038516610cf557604051633a954ecd60e21b815260040160405180910390fd5b610d028686866001611e15565b8015610d0d57600082555b610d1561145b565b6001600160a01b0387166000908152600591909101602052604090208054600019019055610d4161145b565b6001600160a01b03861660008181526005929092016020526040909120805460010190554260a01b17600160e11b17610d7861145b565b60008681526004919091016020526040812091909155600160e11b84169003610dee5760018401610da761145b565b600082815260049190910160205260408120549003610dec57610dc861145b565b548114610dec5783610dd861145b565b600083815260049190910160205260409020555b505b83856001600160a01b0316876001600160a01b03166000805160206134bd83398151915260405160405180910390a45b505050505050565b6109b5838383604051806020016040528060008152506112f2565b6001600160a01b031660009081527f9be1203d7c008407e47cf520c8f15f54b074f0a2af3750145c254290338afc3f602052604090205460ff1690565b6000610e88611437565b600601546001600160a01b0316919050565b600260008051602061349d8339815191525403610eca57604051635db5c7cd60e11b815260040160405180910390fd5b610ee1600260008051602061349d83398151915255565b6001600160a01b038116610f0857604051635fbd571760e01b815260040160405180910390fd5b6000610f1382611e1f565b9050610f1e81611e4b565b610f3b576040516367d9dca160e11b815260040160405180910390fd5b610f44826117a9565b610f5081610ad0611a8e565b50610bff600160008051602061349d83398151915255565b6001600160a01b038116610f8f57604051631492df6160e21b815260040160405180910390fd5b80610f98611437565b60050180546001600160a01b0319166001600160a01b039290921691909117905550565b60006109c4610e7e565b600061082082611d3f565b60006109c461101f565b610fe3611c7b565b6001600160a01b0316336001600160a01b031614611016576040516365f4906560e01b8152336004820152602401610bed565b610bff81610836565b6000611029611437565b600401546001600160a01b0316919050565b60004261104f61104a84611e1f565b611c41565b6001600160401b03161161106557506000919050565b61082082611712565b611076611c7b565b6001600160a01b0316336001600160a01b0316146110a9576040516365f4906560e01b8152336004820152602401610bed565b610bff8161129e565b60006109c4611a8e565b6110c4611c7b565b6001600160a01b0316336001600160a01b0316146110f7576040516365f4906560e01b8152336004820152602401610bed565b610bff81611eb8565b600260008051602061349d833981519152540361113057604051635db5c7cd60e11b815260040160405180910390fd5b611147600260008051602061349d83398151915255565b61115081611e4b565b61116d576040516367d9dca160e11b815260040160405180910390fd5b61117681611f9d565b61117f81611fa8565b610bff600160008051602061349d83398151915255565b60006109c4610af1565b60606111aa61145b565b600301805461079290613113565b6111c0611c7b565b6001600160a01b0316336001600160a01b0316146111f3576040516365f4906560e01b8152336004820152602401610bed565b610bff816106be565b8061120561145b565b6007016000611212611e0b565b6001600160a01b03908116825260208083019390935260409182016000908120918716808252919093529120805460ff191692151592909217909155611256611e0b565b6001600160a01b03167f17307eab39ab6107e8899845ad3d59bd9653f200f220920489ca2b5937696c3183604051611292911515815260200190565b60405180910390a35050565b6001600160a01b0381166112c557604051636da3122b60e01b815260040160405180910390fd5b806112ce611437565b60040180546001600160a01b0319166001600160a01b039290921691909117905550565b6112fd848484610c31565b6001600160a01b0383163b15611336576113198484848461201b565b611336576040516368d2bf6b60e11b815260040160405180910390fd5b50505050565b60006109c4610c15565b60606113518261210d565b61136e57604051630a14c4b560e41b815260040160405180910390fd5b600061138560408051602081019091526000815290565b905080516000036113a557604051806020016040528060008152506113d0565b806113af84612149565b6040516020016113c092919061314d565b6040516020818303038152906040525b9392505050565b7f2d0d21306acfe8e9bb163a4573e95aff6cef95dc1102c6a16d5f19eac08cc4de54640100000000900460ff1661142157604051630ef4733760e31b815260040160405180910390fd5b6108328282611668565b60006113d0838361218d565b7f9b35df16c33a6c0e085c9ebd55fb367f81c58c2ed7e9bed98cc622f3308a600d90565b7f234d8962d7c9a6a6604d7f98797e6ad6d7a886804f7409feb26422e27bf8125490565b600061148a8261210d565b6114a7576040516333d1c03960e21b815260040160405180910390fd5b6114af61145b565b60009283526006016020525060409020546001600160a01b031690565b60006114d783610fc6565b9050811561152d57806001600160a01b03166114f1611e0b565b6001600160a01b03161461152d576115108161150b611e0b565b61218d565b61152d576040516367d9dca160e11b815260040160405180910390fd5b8361153661145b565b6000858152600691909101602052604080822080546001600160a01b0319166001600160a01b0394851617905551859287811692908516917f8c5be1e5ebec7d5bd14f71427d1e84f3dd0314c0f7b2291e5b200ac8c7c3b9259190a450505050565b60006115a2611437565b604084015160028201556060840151600382015560808401516006820180546001600160401b03909216600160a01b0267ffffffffffffffff60a01b1990921691909117905560a08401519091506001600160a01b031615611608578260a0015161161e565b73eeeeeeeeeeeeeeeeeeeeeeeeeeeeeeeeeeeeeeee5b6004820180546001600160a01b03199081166001600160a01b039384161790915560c094909401516005830180548616918316919091179055600690910180549093169116179055565b7f2d0d21306acfe8e9bb163a4573e95aff6cef95dc1102c6a16d5f19eac08cc4de54640100000000900460ff166116b257604051630ef4733760e31b815260040160405180910390fd5b6116c26380ac58cd60e01b6121ca565b6116d2635b5e139f60e01b6121ca565b61083282826122a8565b6116f560405180602001604052806000815250826122da565b610bff57604051630ce39a4b60e21b815260040160405180910390fd5b60006001600160a01b03821661173b576040516323d3ad8160e21b815260040160405180910390fd5b6001600160401b0361174b61145b565b6005016000846001600160a01b03166001600160a01b0316815260200190815260200160002054169050919050565b60008061178561145b565b6001015461179161145b565b540303919050565b60006117a361145b565b54919050565b60006117b3610c02565b9050806000036117c1575050565b60006117cb611437565b905060008160060160009054906101000a90046001600160a01b03166001600160a01b0316630eac306d6040518163ffffffff1660e01b8152600401602060405180830381865afa158015611824573d6000803e3d6000fd5b505050506040513d601f19601f8201168201806040525081019061184891906130fa565b90508083101561186b57604051635894b54560e11b815260040160405180910390fd5b6006820154604080516301332c8360e61b815290516000926001600160a01b031691634ccb20c09160048083019260209291908290030181865afa1580156118b7573d6000803e3d6000fd5b505050506040513d601f19601f820116820180604052508101906118db919061317c565b905060008360060160009054906101000a90046001600160a01b03166001600160a01b0316639f6542aa6040518163ffffffff1660e01b8152600401602060405180830381865afa158015611934573d6000803e3d6000fd5b505050506040513d601f19601f820116820180604052508101906119589190613199565b905060008460060160009054906101000a90046001600160a01b03166001600160a01b031663190eaaba6040518163ffffffff1660e01b8152600401602060405180830381865afa1580156119b1573d6000803e3d6000fd5b505050506040513d601f19601f820116820180604052508101906119d591906130fa565b905060006119e385886131d3565b90508015611a125784826119fb61ffff8616846131e6565b611a0591906131fd565b611a0f919061321f565b94505b6004860154611a2c906001600160a01b031689868861236c565b80600003611a3e575050505050505050565b60048601546005870154611a6a916001600160a01b03908116918b9116611a65898c6131d3565b61236c565b5050505050505050565b6108328282604051806020016040528060008152506123b2565b600080611a99611437565b6006810154909150600160a01b90046001600160401b031615611acf5760060154600160a01b90046001600160401b0316919050565b611ad7611437565b60060160009054906101000a90046001600160a01b03166001600160a01b0316638120f0ba6040518163ffffffff1660e01b8152600401602060405180830381865afa158015611b2b573d6000803e3d6000fd5b505050506040513d601f19601f82011682018060405250810190610b839190613232565b60008281527f62df4f6c50e7f750c679c064ab345c286dd49de6e39940ae1538c75b44a0e3616020819052604082205490916001600160401b0390911690818103611ba557611b9e844261324f565b9050611bdb565b611bae8561242f565b611bce57604051637be9098d60e11b815260048101869052602401610bed565b611bd8848361324f565b90505b60008581526020848152604091829020805467ffffffffffffffff19166001600160401b038516908117909155915191825286917f2ec2be2c4b90c2cf13ecb6751a24daed6bb741ae5ed3f7371aabf9402f6d62e8910160405180910390a25050505050565b60009081527f62df4f6c50e7f750c679c064ab345c286dd49de6e39940ae1538c75b44a0e36160205260409020546001600160401b031690565b6040805180820182527f9bd0e1a7aef81c47cff971a2fee48406b20f55522326b2e2616c49c24aa506d0546001600160a01b03168082527f9bd0e1a7aef81c47cff971a2fee48406b20f55522326b2e2616c49c24aa506d154602080840182905284516331a9108f60e11b815260048101929092529351600094636352211e92602480820193918290030181865afa158015611d1b573d6000803e3d6000fd5b505050506040513d601f19601f82011682018060405250810190610b83919061317c565b6000611d4961145b565b600083815260049190910160205260408120549150600160e01b82169003611dca5780600003610aec57611d7b61145b565b548210611d9b57604051636f96cda160e11b815260040160405180910390fd5b611da361145b565b600019909201600081815260049390930160205260409092205490508015611d9b57919050565b604051636f96cda160e11b815260040160405180910390fd5b6000806000611df061145b565b60009485526006016020525050604090912080549092909150565b60006109c4612466565b6113368284612494565b6000611e29611437565b6001600160a01b03909216600090815260019290920160205250604090205490565b600080611e5783610fc6565b9050806001600160a01b0316611e6b612466565b6001600160a01b03161480611e875750611e878161150b612466565b806113d05750611e95612466565b6001600160a01b0316611ea78461147f565b6001600160a01b0316149392505050565b611ec0611437565b60060160009054906101000a90046001600160a01b03166001600160a01b0316638120f0ba6040518163ffffffff1660e01b8152600401602060405180830381865afa158015611f14573d6000803e3d6000fd5b505050506040513d601f19601f82011682018060405250810190611f389190613232565b6001600160401b0316816001600160401b03161115611f6a576040516341191e9760e11b815260040160405180910390fd5b80611f73611437565b60060160146101000a8154816001600160401b0302191690836001600160401b0316021790555050565b610bff8160006124e0565b7f62df4f6c50e7f750c679c064ab345c286dd49de6e39940ae1538c75b44a0e361600082815260209182526040808220805467ffffffffffffffff191690555190815282917f2ec2be2c4b90c2cf13ecb6751a24daed6bb741ae5ed3f7371aabf9402f6d62e8910160405180910390a250565b6000836001600160a01b031663150b7a02612034611e0b565b8786866040518563ffffffff1660e01b81526004016120569493929190613276565b6020604051808303816000875af1925050508015612091575060408051601f3d908101601f1916820190925261208e918101906132b3565b60015b6120ef573d8080156120bf576040519150601f19603f3d011682016040523d82523d6000602084013e6120c4565b606091505b5080516000036120e7576040516368d2bf6b60e11b815260040160405180910390fd5b805181602001fd5b6001600160e01b031916630a85bd0160e11b1490505b949350505050565b600061211761145b565b54821080156108205750600160e01b61212e61145b565b60008481526004919091016020526040902054161592915050565b606060a06040510180604052602081039150506000815280825b600183039250600a81066030018353600a9004806121635750819003601f19909101908152919050565b600061219761145b565b6001600160a01b039384166000908152600791909101602090815260408083209490951682529290925250205460ff1690565b6001600160e01b0319811660009081527fbc7de460bcfb6afd0c415c8c610d408bd914b18d7d0feec0da9e25348087a5c4602052604090205460ff161515600114612257576001600160e01b0319811660009081527fbc7de460bcfb6afd0c415c8c610d408bd914b18d7d0feec0da9e25348087a5c460205260409020805460ff19166001179055612270565b604051637967f77d60e11b815260040160405180910390fd5b6040516001600160e01b03198216907f78f84e5b1c5c05be2b5ad3800781dd404d6d6c6302bc755c0fe20f58a33a7f2290600090a250565b60006122b261145b565b9050600281016122c28482613323565b50600381016122d18382613323565b50600090555050565b60006122e4611e0b565b6001600160a01b03166122f5611c7b565b6001600160a01b031614806113d057507ff421ea548af7158b1d71ba0aeccf57104c067038bd8fd214edd05c09eb4f735b5460ff161580156113d057506113d08361233e611e0b565b8460405160200161234f91906133e2565b604051602081830303815290604052612367906133fe565b612661565b80156113365773eeeeeeeeeeeeeeeeeeeeeeeeeeeeeeeeeeeeeeed196001600160a01b038516016123a6576123a1828261278a565b611336565b6113368484848461282d565b6123bc8383612880565b6001600160a01b0383163b156109b55760006123d661145b565b5490508281035b6123f0600086838060010194508661201b565b61240d576040516368d2bf6b60e11b815260040160405180910390fd5b8181106123dd578161241d61145b565b541461242857600080fd5b5050505050565b60004261243a611a8e565b6001600160401b031661244d919061321f565b61245683611c41565b6001600160401b03161092915050565b60006014361080159061247d575061247d33610e41565b1561248f575060131936013560601c90565b503390565b600061249e611437565b60008481526020828152604080832080546001600160a01b039097166001600160a01b0319909716871790559482526001909201909152919091209190915550565b60006124eb83611d3f565b9050806000806124fa86611de3565b91509150841561253e576125118184610c8c611e0b565b61253e576125218361150b611e0b565b61253e57604051632ce44b5f60e11b815260040160405180910390fd5b61254c836000886001611e15565b801561255757600082555b6fffffffffffffffffffffffffffffffff61257061145b565b6001600160a01b038516600081815260059290920160205260409091208054929092019091554260a01b17600360e01b176125a961145b565b60008881526004919091016020526040812091909155600160e11b8516900361261f57600186016125d861145b565b60008281526004919091016020526040812054900361261d576125f961145b565b54811461261d578461260961145b565b600083815260049190910160205260409020555b505b60405186906000906001600160a01b038616906000805160206134bd833981519152908390a461264d61145b565b600190810180549091019055505050505050565b600061266b611c7b565b6001600160a01b0316836001600160a01b03160361268b575060016113d0565b7f2df4f8e2489b335ef09ede56990b0838afbcdea6c639a41af44b533474fb855860006126d77f2df4f8e2489b335ef09ede56990b0838afbcdea6c639a41af44b533474fb85596129a4565b905060005b81811015612780576126f160018401826129ae565b6001600160a01b031662b4eaa88888886040518463ffffffff1660e01b815260040161271f93929190613422565b602060405180830381865afa15801561273c573d6000803e3d6000fd5b505050506040513d601f19601f820116820180604052508101906127609190613450565b1561276e5760019350612780565b806127788161346d565b9150506126dc565b5050509392505050565b6000826001600160a01b03168260405160006040518083038185875af1925050503d80600081146127d7576040519150601f19603f3d011682016040523d82523d6000602084013e6127dc565b606091505b50509050806109b55760405162461bcd60e51b815260206004820152601c60248201527f6e617469766520746f6b656e207472616e73666572206661696c6564000000006044820152606401610bed565b816001600160a01b0316836001600160a01b0316031561133657306001600160a01b0384160361286b576123a16001600160a01b03851683836129ba565b6113366001600160a01b038516848484612a1d565b600061288a61145b565b54905060008290036128af5760405163b562e8dd60e01b815260040160405180910390fd5b6128bc6000848385611e15565b6801000000000000000182026128d061145b565b6001600160a01b038516600081815260059290920160205260409091208054929092019091554260a01b6001841460e11b171761290b61145b565b600083815260049190910160205260408120919091556001600160a01b0384169083830190839083906000805160206134bd8339815191528180a4600183015b81811461297157808360006000805160206134bd833981519152600080a460010161294b565b508160000361299257604051622e076360e81b815260040160405180910390fd5b8061299b61145b565b55506109b59050565b6000610820825490565b60006113d08383612a55565b6040516001600160a01b0383166024820152604481018290526109b590849063a9059cbb60e01b906064015b60408051601f198184030181529190526020810180516001600160e01b03166001600160e01b031990931692909217909152612a7f565b6040516001600160a01b03808516602483015283166044820152606481018290526113369085906323b872dd60e01b906084016129e6565b6000826000018281548110612a6c57612a6c613486565b9060005260206000200154905092915050565b6000612ad4826040518060400160405280602081526020017f5361666545524332303a206c6f772d6c6576656c2063616c6c206661696c6564815250856001600160a01b0316612b519092919063ffffffff16565b8051909150156109b55780806020019051810190612af29190613450565b6109b55760405162461bcd60e51b815260206004820152602a60248201527f5361666545524332303a204552433230206f7065726174696f6e20646964206e6044820152691bdd081cdd58d8d9595960b21b6064820152608401610bed565b6060612105848460008585600080866001600160a01b03168587604051612b7891906133e2565b60006040518083038185875af1925050503d8060008114612bb5576040519150601f19603f3d011682016040523d82523d6000602084013e612bba565b606091505b5091509150612bcb87838387612bd6565b979650505050505050565b60608315612c45578251600003612c3e576001600160a01b0385163b612c3e5760405162461bcd60e51b815260206004820152601d60248201527f416464726573733a2063616c6c20746f206e6f6e2d636f6e74726163740000006044820152606401610bed565b5081612105565b6121058383815115612c5a5781518083602001fd5b8060405162461bcd60e51b8152600401610bed9190612cdd565b600060208284031215612c8657600080fd5b5035919050565b60005b83811015612ca8578181015183820152602001612c90565b50506000910152565b60008151808452612cc9816020860160208601612c8d565b601f01601f19169290920160200192915050565b6020815260006113d06020830184612cb1565b6001600160a01b0381168114610bff57600080fd5b8035610aec81612cf0565b60008060408385031215612d2357600080fd5b8235612d2e81612cf0565b946020939093013593505050565b634e487b7160e01b600052604160045260246000fd5b60405160e081016001600160401b0381118282101715612d7457612d74612d3c565b60405290565b60006001600160401b0380841115612d9457612d94612d3c565b604051601f8501601f19908116603f01168101908282118183101715612dbc57612dbc612d3c565b81604052809350858152868686011115612dd557600080fd5b858560208301376000602087830101525050509392505050565b600082601f830112612e0057600080fd5b6113d083833560208501612d7a565b6001600160401b0381168114610bff57600080fd5b8035610aec81612e0f565b600080600060608486031215612e4457600080fd5b83356001600160401b0380821115612e5b57600080fd5b9085019060e08288031215612e6f57600080fd5b612e77612d52565b823582811115612e8657600080fd5b612e9289828601612def565b825250602083013582811115612ea757600080fd5b612eb389828601612def565b6020830152506040830135604082015260608301356060820152612ed960808401612e24565b6080820152612eea60a08401612d05565b60a0820152612efb60c08401612d05565b60c08201529450612f1191505060208501612d05565b9150612f1f60408501612d05565b90509250925092565b600060208284031215612f3a57600080fd5b81356113d081612cf0565b600080600060608486031215612f5a57600080fd5b8335612f6581612cf0565b92506020840135612f7581612cf0565b929592945050506040919091013590565b600060208284031215612f9857600080fd5b81356113d081612e0f565b8015158114610bff57600080fd5b60008060408385031215612fc457600080fd5b8235612fcf81612cf0565b91506020830135612fdf81612fa3565b809150509250929050565b6000806000806080858703121561300057600080fd5b843561300b81612cf0565b9350602085013561301b81612cf0565b92506040850135915060608501356001600160401b0381111561303d57600080fd5b8501601f8101871361304e57600080fd5b61305d87823560208401612d7a565b91505092959194509250565b6000806040838503121561307c57600080fd5b82356001600160401b038082111561309357600080fd5b61309f86838701612def565b935060208501359150808211156130b557600080fd5b506130c285828601612def565b9150509250929050565b600080604083850312156130df57600080fd5b82356130ea81612cf0565b91506020830135612fdf81612cf0565b60006020828403121561310c57600080fd5b5051919050565b600181811c9082168061312757607f821691505b60208210810361314757634e487b7160e01b600052602260045260246000fd5b50919050565b6000835161315f818460208801612c8d565b835190830190613173818360208801612c8d565b01949350505050565b60006020828403121561318e57600080fd5b81516113d081612cf0565b6000602082840312156131ab57600080fd5b815161ffff811681146113d057600080fd5b634e487b7160e01b600052601160045260246000fd5b81810381811115610820576108206131bd565b8082028115828204841417610820576108206131bd565b60008261321a57634e487b7160e01b600052601260045260246000fd5b500490565b80820180821115610820576108206131bd565b60006020828403121561324457600080fd5b81516113d081612e0f565b6001600160401b0381811683821601908082111561326f5761326f6131bd565b5092915050565b6001600160a01b03858116825284166020820152604081018390526080606082018190526000906132a990830184612cb1565b9695505050505050565b6000602082840312156132c557600080fd5b81516001600160e01b0319811681146113d057600080fd5b601f8211156109b557600081815260208120601f850160051c810160208610156133045750805b601f850160051c820191505b81811015610e1e57828155600101613310565b81516001600160401b0381111561333c5761333c612d3c565b6133508161334a8454613113565b846132dd565b602080601f831160018114613385576000841561336d5750858301515b600019600386901b1c1916600185901b178555610e1e565b600085815260208120601f198616915b828110156133b457888601518255948401946001909101908401613395565b50858210156133d25787850151600019600388901b60f8161c191681555b5050505050600190811b01905550565b600082516133f4818460208701612c8d565b9190910192915050565b805160208083015191908110156131475760001960209190910360031b1b16919050565b6060815260006134356060830186612cb1565b6001600160a01b039490941660208301525060400152919050565b60006020828403121561346257600080fd5b81516113d081612fa3565b60006001820161347f5761347f6131bd565b5060010190565b634e487b7160e01b600052603260045260246000fdfe50b052c8fb38984269a818b2b593d0584a81b1b99245abc0fab04abc7afb010fddf252ad1be2c89b69c2b068fc378daa952ba7f163c4a11628f55a4df523b3ef",
    "linkReferences": {}
  },
  "methodIdentifiers": {
    "__ERC721A_init(string,string)": "d2f01f19",
    "__Membership_init((string,string,uint256,uint256,uint64,address,address),address,address)": "10c57b46",
    "_getMembershipCurrency()": "70251563",
    "_getMembershipFeeRecipient()": "1d214b4d",
    "_getMembershipLimit()": "1766bb7b",
    "_getMembershipPrice()": "1b3972f0",
    "_getTownFactory()": "5b312fce",
    "_setMembershipCurrency(address)": "b8307376",
    "_setMembershipFeeRecipient(address)": "62452006",
    "_setMembershipLimit(uint256)": "02b24da5",
    "_setMembershipPrice(uint256)": "0c3a01b1",
    "approve(address,uint256)": "095ea7b3",
    "balanceOf(address)": "70a08231",
    "cancelMembership(uint256)": "89def320",
    "expiresAt(uint256)": "17c95709",
    "getApproved(uint256)": "081812fc",
    "getMembershipCurrency()": "657e45e8",
    "getMembershipDuration()": "8120f0ba",
    "getMembershipFeeRecipient()": "bf3bc878",
    "getMembershipLimit()": "95d600c8",
    "getMembershipPrice()": "1278076a",
    "getTownFactory()": "6340d096",
    "isApprovedForAll(address,address)": "e985e9c5",
    "isTrustedForwarder(address)": "572b6c05",
    "joinTown(address)": "16a344b4",
    "name()": "06fdde03",
    "ownerOf(uint256)": "6352211e",
    "renewMembership(address)": "61a9c7df",
    "safeTransferFrom(address,address,uint256)": "42842e0e",
    "safeTransferFrom(address,address,uint256,bytes)": "b88d4fde",
    "setApprovalForAll(address,bool)": "a22cb465",
    "setMembershipCurrency(address)": "7d0567c4",
    "setMembershipDuration(uint64)": "83f3f0dc",
    "setMembershipFeeRecipient(address)": "18e5da65",
    "setMembershipLimit(uint256)": "97fb7c1e",
    "setMembershipPrice(uint256)": "69d5f38a",
    "symbol()": "95d89b41",
    "tokenURI(uint256)": "c87b56dd",
    "totalSupply()": "18160ddd",
    "transferFrom(address,address,uint256)": "23b872dd"
  },
  "id": 165
}