{"abi":[{"type":"function","name":"__ERC721A_init","inputs":[{"name":"name_","type":"string","internalType":"string"},{"name":"symbol_","type":"string","internalType":"string"}],"outputs":[],"stateMutability":"nonpayable"},{"type":"function","name":"approve","inputs":[{"name":"to","type":"address","internalType":"address"},{"name":"tokenId","type":"uint256","internalType":"uint256"}],"outputs":[],"stateMutability":"payable"},{"type":"function","name":"balanceOf","inputs":[{"name":"owner","type":"address","internalType":"address"}],"outputs":[{"name":"","type":"uint256","internalType":"uint256"}],"stateMutability":"view"},{"type":"function","name":"burn","inputs":[{"name":"token","type":"uint256","internalType":"uint256"}],"outputs":[],"stateMutability":"nonpayable"},{"type":"function","name":"getApproved","inputs":[{"name":"tokenId","type":"uint256","internalType":"uint256"}],"outputs":[{"name":"","type":"address","internalType":"address"}],"stateMutability":"view"},{"type":"function","name":"isApprovedForAll","inputs":[{"name":"owner","type":"address","internalType":"address"},{"name":"operator","type":"address","internalType":"address"}],"outputs":[{"name":"","type":"bool","internalType":"bool"}],"stateMutability":"view"},{"type":"function","name":"mint","inputs":[{"name":"to","type":"address","internalType":"address"},{"name":"amount","type":"uint256","internalType":"uint256"}],"outputs":[],"stateMutability":"nonpayable"},{"type":"function","name":"mintTo","inputs":[{"name":"to","type":"address","internalType":"address"}],"outputs":[{"name":"tokenId","type":"uint256","internalType":"uint256"}],"stateMutability":"nonpayable"},{"type":"function","name":"name","inputs":[],"outputs":[{"name":"","type":"string","internalType":"string"}],"stateMutability":"view"},{"type":"function","name":"ownerOf","inputs":[{"name":"tokenId","type":"uint256","internalType":"uint256"}],"outputs":[{"name":"","type":"address","internalType":"address"}],"stateMutability":"view"},{"type":"function","name":"safeTransferFrom","inputs":[{"name":"from","type":"address","internalType":"address"},{"name":"to","type":"address","internalType":"address"},{"name":"tokenId","type":"uint256","internalType":"uint256"}],"outputs":[],"stateMutability":"payable"},{"type":"function","name":"safeTransferFrom","inputs":[{"name":"from","type":"address","internalType":"address"},{"name":"to","type":"address","internalType":"address"},{"name":"tokenId","type":"uint256","internalType":"uint256"},{"name":"_data","type":"bytes","internalType":"bytes"}],"outputs":[],"stateMutability":"payable"},{"type":"function","name":"setApprovalForAll","inputs":[{"name":"operator","type":"address","internalType":"address"},{"name":"approved","type":"bool","internalType":"bool"}],"outputs":[],"stateMutability":"nonpayable"},{"type":"function","name":"symbol","inputs":[],"outputs":[{"name":"","type":"string","internalType":"string"}],"stateMutability":"view"},{"type":"function","name":"tokenURI","inputs":[{"name":"tokenId","type":"uint256","internalType":"uint256"}],"outputs":[{"name":"","type":"string","internalType":"string"}],"stateMutability":"view"},{"type":"function","name":"totalSupply","inputs":[],"outputs":[{"name":"","type":"uint256","internalType":"uint256"}],"stateMutability":"view"},{"type":"function","name":"transferFrom","inputs":[{"name":"from","type":"address","internalType":"address"},{"name":"to","type":"address","internalType":"address"},{"name":"tokenId","type":"uint256","internalType":"uint256"}],"outputs":[],"stateMutability":"payable"},{"type":"event","name":"Approval","inputs":[{"name":"owner","type":"address","indexed":true,"internalType":"address"},{"name":"approved","type":"address","indexed":true,"internalType":"address"},{"name":"tokenId","type":"uint256","indexed":true,"internalType":"uint256"}],"anonymous":false},{"type":"event","name":"ApprovalForAll","inputs":[{"name":"owner","type":"address","indexed":true,"internalType":"address"},{"name":"operator","type":"address","indexed":true,"internalType":"address"},{"name":"approved","type":"bool","indexed":false,"internalType":"bool"}],"anonymous":false},{"type":"event","name":"ConsecutiveTransfer","inputs":[{"name":"fromTokenId","type":"uint256","indexed":true,"internalType":"uint256"},{"name":"toTokenId","type":"uint256","indexed":false,"internalType":"uint256"},{"name":"from","type":"address","indexed":true,"internalType":"address"},{"name":"to","type":"address","indexed":true,"internalType":"address"}],"anonymous":false},{"type":"event","name":"Initialized","inputs":[{"name":"version","type":"uint32","indexed":false,"internalType":"uint32"}],"anonymous":false},{"type":"event","name":"InterfaceAdded","inputs":[{"name":"interfaceId","type":"bytes4","indexed":true,"internalType":"bytes4"}],"anonymous":false},{"type":"event","name":"InterfaceRemoved","inputs":[{"name":"interfaceId","type":"bytes4","indexed":true,"internalType":"bytes4"}],"anonymous":false},{"type":"event","name":"Transfer","inputs":[{"name":"from","type":"address","indexed":true,"internalType":"address"},{"name":"to","type":"address","indexed":true,"internalType":"address"},{"name":"tokenId","type":"uint256","indexed":true,"internalType":"uint256"}],"anonymous":false},{"type":"error","name":"ApprovalCallerNotOwnerNorApproved","inputs":[]},{"type":"error","name":"ApprovalQueryForNonexistentToken","inputs":[]},{"type":"error","name":"BalanceQueryForZeroAddress","inputs":[]},{"type":"error","name":"Initializable_InInitializingState","inputs":[]},{"type":"error","name":"Initializable_NotInInitializingState","inputs":[]},{"type":"error","name":"Introspection_AlreadySupported","inputs":[]},{"type":"error","name":"Introspection_NotSupported","inputs":[]},{"type":"error","name":"MintERC2309QuantityExceedsLimit","inputs":[]},{"type":"error","name":"MintToZeroAddress","inputs":[]},{"type":"error","name":"MintZeroQuantity","inputs":[]},{"type":"error","name":"OwnerQueryForNonexistentToken","inputs":[]},{"type":"error","name":"OwnershipNotInitializedForExtraData","inputs":[]},{"type":"error","name":"TransferCallerNotOwnerNorApproved","inputs":[]},{"type":"error","name":"TransferFromIncorrectOwner","inputs":[]},{"type":"error","name":"TransferToNonERC721ReceiverImplementer","inputs":[]},{"type":"error","name":"TransferToZeroAddress","inputs":[]},{"type":"error","name":"URIQueryForNonexistentToken","inputs":[]}],"bytecode":{"object":"0x608060405234801561001057600080fd5b5061001961001e565b6100c4565b7f2d0d21306acfe8e9bb163a4573e95aff6cef95dc1102c6a16d5f19eac08cc4de8054640100000000900460ff161561006a576040516366008a2d60e01b815260040160405180910390fd5b805463ffffffff90811610156100c157805463ffffffff191663ffffffff90811782556040519081527fe9c9b456cb2994b80aeef036cf59d26e9617df80f816a6ee5a5b4166e07e2f5c9060200160405180910390a15b50565b611553806100d36000396000f3fe6080604052600436106100fe5760003560e01c80636352211e11610095578063a22cb46511610064578063a22cb46514610279578063b88d4fde14610299578063c87b56dd146102ac578063d2f01f19146102cc578063e985e9c5146102ec57600080fd5b80636352211e1461020457806370a0823114610224578063755edd171461024457806395d89b411461026457600080fd5b806323b872dd116100d157806323b872dd1461019e57806340c10f19146101b157806342842e0e146101d157806342966c68146101e457600080fd5b806306fdde0314610103578063081812fc1461012e578063095ea7b31461016657806318160ddd1461017b575b600080fd5b34801561010f57600080fd5b5061011861031c565b604051610125919061109b565b60405180910390f35b34801561013a57600080fd5b5061014e6101493660046110ae565b6103b7565b6040516001600160a01b039091168152602001610125565b6101796101743660046110de565b6103c8565b005b34801561018757600080fd5b506101906103d8565b604051908152602001610125565b6101796101ac366004611108565b6103e7565b3480156101bd57600080fd5b506101796101cc3660046110de565b6105cc565b6101796101df366004611108565b6105d6565b3480156101f057600080fd5b506101796101ff3660046110ae565b6105f6565b34801561021057600080fd5b5061014e61021f3660046110ae565b610602565b34801561023057600080fd5b5061019061023f366004611144565b61060d565b34801561025057600080fd5b5061019061025f366004611144565b610618565b34801561027057600080fd5b50610118610634565b34801561028557600080fd5b5061017961029436600461115f565b61064c565b6101796102a7366004611227565b6106c9565b3480156102b857600080fd5b506101186102c73660046110ae565b610713565b3480156102d857600080fd5b506101796102e73660046112c3565b6107a4565b3480156102f857600080fd5b5061030c610307366004611327565b6107f8565b6040519015158152602001610125565b6060610326610804565b60020180546103349061135a565b80601f01602080910402602001604051908101604052809291908181526020018280546103609061135a565b80156103ad5780601f10610382576101008083540402835291602001916103ad565b820191906000526020600020905b81548152906001019060200180831161039057829003601f168201915b5050505050905090565b60006103c282610828565b92915050565b6103d482826001610875565b5050565b60006103e261092a565b905090565b60006103f282610949565b9050836001600160a01b0316816001600160a01b0316146104255760405162a1148160e81b815260040160405180910390fd5b600080610431846109ed565b9150915061045681876104413390565b6001600160a01b039081169116811491141790565b6104815761046486336107f8565b61048157604051632ce44b5f60e11b815260040160405180910390fd5b6001600160a01b0385166104a857604051633a954ecd60e21b815260040160405180910390fd5b80156104b357600082555b6104bb610804565b6001600160a01b03871660009081526005919091016020526040902080546000190190556104e7610804565b6001600160a01b03861660008181526005929092016020526040909120805460010190554260a01b17600160e11b1761051e610804565b60008681526004919091016020526040812091909155600160e11b84169003610594576001840161054d610804565b6000828152600491909101602052604081205490036105925761056e610804565b548114610592578361057e610804565b600083815260049190910160205260409020555b505b83856001600160a01b0316876001600160a01b031660008051602061153383398151915260405160405180910390a45b505050505050565b6103d48282610a15565b6105f1838383604051806020016040528060008152506106c9565b505050565b6105ff81610b2c565b50565b60006103c282610949565b60006103c282610b37565b6000610622610ba0565b905061062f826001610a15565b919050565b606061063e610804565b60030180546103349061135a565b80610655610804565b336000818152600792909201602090815260408084206001600160a01b03881680865290835293819020805460ff19169515159590951790945592518415158152919290917f17307eab39ab6107e8899845ad3d59bd9653f200f220920489ca2b5937696c31910160405180910390a35050565b6106d48484846103e7565b6001600160a01b0383163b1561070d576106f084848484610bb0565b61070d576040516368d2bf6b60e11b815260040160405180910390fd5b50505050565b606061071e82610c9b565b61073b57604051630a14c4b560e41b815260040160405180910390fd5b600061075260408051602081019091526000815290565b90508051600003610772576040518060200160405280600081525061079d565b8061077c84610cd7565b60405160200161078d929190611394565b6040516020818303038152906040525b9392505050565b7f2d0d21306acfe8e9bb163a4573e95aff6cef95dc1102c6a16d5f19eac08cc4de54640100000000900460ff166107ee57604051630ef4733760e31b815260040160405180910390fd5b6103d48282610d1b565b600061079d8383610d8f565b7f234d8962d7c9a6a6604d7f98797e6ad6d7a886804f7409feb26422e27bf8125490565b600061083382610c9b565b610850576040516333d1c03960e21b815260040160405180910390fd5b610858610804565b60009283526006016020525060409020546001600160a01b031690565b600061088083610602565b905081156108bf57336001600160a01b038216146108bf576108a28133610d8f565b6108bf576040516367d9dca160e11b815260040160405180910390fd5b836108c8610804565b6000858152600691909101602052604080822080546001600160a01b0319166001600160a01b0394851617905551859287811692908516917f8c5be1e5ebec7d5bd14f71427d1e84f3dd0314c0f7b2291e5b200ac8c7c3b9259190a450505050565b600080610935610804565b60010154610941610804565b540303919050565b6000610953610804565b600083815260049190910160205260408120549150600160e01b821690036109d4578060000361062f57610985610804565b5482106109a557604051636f96cda160e11b815260040160405180910390fd5b6109ad610804565b6000199092016000818152600493909301602052604090922054905080156109a557919050565b604051636f96cda160e11b815260040160405180910390fd5b60008060006109fa610804565b60009485526006016020525050604090912080549092909150565b6000610a1f610804565b5490506000829003610a445760405163b562e8dd60e01b815260040160405180910390fd5b680100000000000000018202610a58610804565b6001600160a01b038516600081815260059290920160205260409091208054929092019091554260a01b6001841460e11b1717610a93610804565b600083815260049190910160205260408120919091556001600160a01b0384169083830190839083906000805160206115338339815191528180a4600183015b818114610af95780836000600080516020611533833981519152600080a4600101610ad3565b5081600003610b1a57604051622e076360e81b815260040160405180910390fd5b80610b23610804565b55506105f19050565b6105ff816000610dcc565b60006001600160a01b038216610b60576040516323d3ad8160e21b815260040160405180910390fd5b67ffffffffffffffff610b71610804565b6005016000846001600160a01b03166001600160a01b0316815260200190815260200160002054169050919050565b6000610baa610804565b54919050565b604051630a85bd0160e11b81526000906001600160a01b0385169063150b7a0290610be59033908990889088906004016113c3565b6020604051808303816000875af1925050508015610c20575060408051601f3d908101601f19168201909252610c1d91810190611400565b60015b610c7e573d808015610c4e576040519150601f19603f3d011682016040523d82523d6000602084013e610c53565b606091505b508051600003610c76576040516368d2bf6b60e11b815260040160405180910390fd5b805181602001fd5b6001600160e01b031916630a85bd0160e11b149050949350505050565b6000610ca5610804565b54821080156103c25750600160e01b610cbc610804565b60008481526004919091016020526040902054161592915050565b606060a06040510180604052602081039150506000815280825b600183039250600a81066030018353600a900480610cf15750819003601f19909101908152919050565b7f2d0d21306acfe8e9bb163a4573e95aff6cef95dc1102c6a16d5f19eac08cc4de54640100000000900460ff16610d6557604051630ef4733760e31b815260040160405180910390fd5b610d756380ac58cd60e01b610f3b565b610d85635b5e139f60e01b610f3b565b6103d48282611019565b6000610d99610804565b6001600160a01b039384166000908152600791909101602090815260408083209490951682529290925250205460ff1690565b6000610dd783610949565b905080600080610de6866109ed565b915091508415610e2657610dfb818433610441565b610e2657610e098333610d8f565b610e2657604051632ce44b5f60e11b815260040160405180910390fd5b8015610e3157600082555b6fffffffffffffffffffffffffffffffff610e4a610804565b6001600160a01b038516600081815260059290920160205260409091208054929092019091554260a01b17600360e01b17610e83610804565b60008881526004919091016020526040812091909155600160e11b85169003610ef95760018601610eb2610804565b600082815260049190910160205260408120549003610ef757610ed3610804565b548114610ef75784610ee3610804565b600083815260049190910160205260409020555b505b60405186906000906001600160a01b03861690600080516020611533833981519152908390a4610f27610804565b600190810180549091019055505050505050565b6001600160e01b0319811660009081527fbc7de460bcfb6afd0c415c8c610d408bd914b18d7d0feec0da9e25348087a5c4602052604090205460ff161515600114610fc8576001600160e01b0319811660009081527fbc7de460bcfb6afd0c415c8c610d408bd914b18d7d0feec0da9e25348087a5c460205260409020805460ff19166001179055610fe1565b604051637967f77d60e11b815260040160405180910390fd5b6040516001600160e01b03198216907f78f84e5b1c5c05be2b5ad3800781dd404d6d6c6302bc755c0fe20f58a33a7f2290600090a250565b6000611023610804565b9050600281016110338482611472565b50600381016110428382611472565b50600090555050565b60005b8381101561106657818101518382015260200161104e565b50506000910152565b6000815180845261108781602086016020860161104b565b601f01601f19169290920160200192915050565b60208152600061079d602083018461106f565b6000602082840312156110c057600080fd5b5035919050565b80356001600160a01b038116811461062f57600080fd5b600080604083850312156110f157600080fd5b6110fa836110c7565b946020939093013593505050565b60008060006060848603121561111d57600080fd5b611126846110c7565b9250611134602085016110c7565b9150604084013590509250925092565b60006020828403121561115657600080fd5b61079d826110c7565b6000806040838503121561117257600080fd5b61117b836110c7565b91506020830135801515811461119057600080fd5b809150509250929050565b634e487b7160e01b600052604160045260246000fd5b600067ffffffffffffffff808411156111cc576111cc61119b565b604051601f8501601f19908116603f011681019082821181831017156111f4576111f461119b565b8160405280935085815286868601111561120d57600080fd5b858560208301376000602087830101525050509392505050565b6000806000806080858703121561123d57600080fd5b611246856110c7565b9350611254602086016110c7565b925060408501359150606085013567ffffffffffffffff81111561127757600080fd5b8501601f8101871361128857600080fd5b611297878235602084016111b1565b91505092959194509250565b600082601f8301126112b457600080fd5b61079d838335602085016111b1565b600080604083850312156112d657600080fd5b823567ffffffffffffffff808211156112ee57600080fd5b6112fa868387016112a3565b9350602085013591508082111561131057600080fd5b5061131d858286016112a3565b9150509250929050565b6000806040838503121561133a57600080fd5b611343836110c7565b9150611351602084016110c7565b90509250929050565b600181811c9082168061136e57607f821691505b60208210810361138e57634e487b7160e01b600052602260045260246000fd5b50919050565b600083516113a681846020880161104b565b8351908301906113ba81836020880161104b565b01949350505050565b6001600160a01b03858116825284166020820152604081018390526080606082018190526000906113f69083018461106f565b9695505050505050565b60006020828403121561141257600080fd5b81516001600160e01b03198116811461079d57600080fd5b601f8211156105f1576000816000526020600020601f850160051c810160208610156114535750805b601f850160051c820191505b818110156105c45782815560010161145f565b815167ffffffffffffffff81111561148c5761148c61119b565b6114a08161149a845461135a565b8461142a565b602080601f8311600181146114d557600084156114bd5750858301515b600019600386901b1c1916600185901b1785556105c4565b600085815260208120601f198616915b82811015611504578886015182559484019460019091019084016114e5565b50858210156115225787850151600019600388901b60f8161c191681555b5050505050600190811b0190555056feddf252ad1be2c89b69c2b068fc378daa952ba7f163c4a11628f55a4df523b3ef","linkReferences":{}},"methodIdentifiers":{"__ERC721A_init(string,string)":"d2f01f19","approve(address,uint256)":"095ea7b3","balanceOf(address)":"70a08231","burn(uint256)":"42966c68","getApproved(uint256)":"081812fc","isApprovedForAll(address,address)":"e985e9c5","mint(address,uint256)":"40c10f19","mintTo(address)":"755edd17","name()":"06fdde03","ownerOf(uint256)":"6352211e","safeTransferFrom(address,address,uint256)":"42842e0e","safeTransferFrom(address,address,uint256,bytes)":"b88d4fde","setApprovalForAll(address,bool)":"a22cb465","symbol()":"95d89b41","tokenURI(uint256)":"c87b56dd","totalSupply()":"18160ddd","transferFrom(address,address,uint256)":"23b872dd"},"id":269}