{
  "abi": [
    {
      "inputs": [],
      "name": "AlreadyAllowed",
      "type": "error"
    },
    {
      "inputs": [],
      "name": "AlreadyMinted",
      "type": "error"
    },
    {
      "inputs": [],
      "name": "ApprovalCallerNotOwnerNorApproved",
      "type": "error"
    },
    {
      "inputs": [],
      "name": "ApprovalQueryForNonexistentToken",
      "type": "error"
    },
    {
      "inputs": [],
      "name": "BalanceQueryForZeroAddress",
      "type": "error"
    },
    {
      "inputs": [],
      "name": "Initializable_InInitializingState",
      "type": "error"
    },
    {
      "inputs": [],
      "name": "Initializable_NotInInitializingState",
      "type": "error"
    },
    {
      "inputs": [],
      "name": "InsufficientBalance",
      "type": "error"
    },
    {
      "inputs": [],
      "name": "Introspection_AlreadySupported",
      "type": "error"
    },
    {
      "inputs": [],
      "name": "Introspection_NotSupported",
      "type": "error"
    },
    {
      "inputs": [],
      "name": "InvalidRewardValue",
      "type": "error"
    },
    {
      "inputs": [],
      "name": "MaxSupplyReached",
      "type": "error"
    },
    {
      "inputs": [],
      "name": "MintERC2309QuantityExceedsLimit",
      "type": "error"
    },
    {
      "inputs": [],
      "name": "MintToZeroAddress",
      "type": "error"
    },
    {
      "inputs": [],
      "name": "MintZeroQuantity",
      "type": "error"
    },
    {
      "inputs": [],
      "name": "NonExistentTokenURI",
      "type": "error"
    },
    {
      "inputs": [],
      "name": "NotAllowed",
      "type": "error"
    },
    {
      "inputs": [
        {
          "internalType": "address",
          "name": "account",
          "type": "address"
        }
      ],
      "name": "Ownable__NotOwner",
      "type": "error"
    },
    {
      "inputs": [],
      "name": "Ownable__ZeroAddress",
      "type": "error"
    },
    {
      "inputs": [],
      "name": "OwnerQueryForNonexistentToken",
      "type": "error"
    },
    {
      "inputs": [],
      "name": "OwnershipNotInitializedForExtraData",
      "type": "error"
    },
    {
      "inputs": [],
      "name": "TransferCallerNotOwnerNorApproved",
      "type": "error"
    },
    {
      "inputs": [],
      "name": "TransferFromIncorrectOwner",
      "type": "error"
    },
    {
      "inputs": [],
      "name": "TransferToNonERC721ReceiverImplementer",
      "type": "error"
    },
    {
      "inputs": [],
      "name": "TransferToZeroAddress",
      "type": "error"
    },
    {
      "inputs": [],
      "name": "URIQueryForNonexistentToken",
      "type": "error"
    },
    {
      "anonymous": false,
      "inputs": [
        {
          "indexed": true,
          "internalType": "address",
          "name": "owner",
          "type": "address"
        },
        {
          "indexed": true,
          "internalType": "address",
          "name": "approved",
          "type": "address"
        },
        {
          "indexed": true,
          "internalType": "uint256",
          "name": "tokenId",
          "type": "uint256"
        }
      ],
      "name": "Approval",
      "type": "event"
    },
    {
      "anonymous": false,
      "inputs": [
        {
          "indexed": true,
          "internalType": "address",
          "name": "owner",
          "type": "address"
        },
        {
          "indexed": true,
          "internalType": "address",
          "name": "operator",
          "type": "address"
        },
        {
          "indexed": false,
          "internalType": "bool",
          "name": "approved",
          "type": "bool"
        }
      ],
      "name": "ApprovalForAll",
      "type": "event"
    },
    {
      "anonymous": false,
      "inputs": [
        {
          "indexed": true,
          "internalType": "uint256",
          "name": "fromTokenId",
          "type": "uint256"
        },
        {
          "indexed": false,
          "internalType": "uint256",
          "name": "toTokenId",
          "type": "uint256"
        },
        {
          "indexed": true,
          "internalType": "address",
          "name": "from",
          "type": "address"
        },
        {
          "indexed": true,
          "internalType": "address",
          "name": "to",
          "type": "address"
        }
      ],
      "name": "ConsecutiveTransfer",
      "type": "event"
    },
    {
      "anonymous": false,
      "inputs": [
        {
          "indexed": false,
          "internalType": "uint32",
          "name": "version",
          "type": "uint32"
        }
      ],
      "name": "Initialized",
      "type": "event"
    },
    {
      "anonymous": false,
      "inputs": [
        {
          "indexed": true,
          "internalType": "bytes4",
          "name": "interfaceId",
          "type": "bytes4"
        }
      ],
      "name": "InterfaceAdded",
      "type": "event"
    },
    {
      "anonymous": false,
      "inputs": [
        {
          "indexed": true,
          "internalType": "bytes4",
          "name": "interfaceId",
          "type": "bytes4"
        }
      ],
      "name": "InterfaceRemoved",
      "type": "event"
    },
    {
      "anonymous": false,
      "inputs": [
        {
          "indexed": true,
          "internalType": "address",
          "name": "previousOwner",
          "type": "address"
        },
        {
          "indexed": true,
          "internalType": "address",
          "name": "newOwner",
          "type": "address"
        }
      ],
      "name": "OwnershipTransferred",
      "type": "event"
    },
    {
      "anonymous": false,
      "inputs": [
        {
          "indexed": true,
          "internalType": "address",
          "name": "user",
          "type": "address"
        },
        {
          "indexed": false,
          "internalType": "bool",
          "name": "allow",
          "type": "bool"
        }
      ],
      "name": "SetAllowed",
      "type": "event"
    },
    {
      "anonymous": false,
      "inputs": [
        {
          "indexed": true,
          "internalType": "address",
          "name": "from",
          "type": "address"
        },
        {
          "indexed": true,
          "internalType": "address",
          "name": "to",
          "type": "address"
        },
        {
          "indexed": true,
          "internalType": "uint256",
          "name": "tokenId",
          "type": "uint256"
        }
      ],
      "name": "Transfer",
      "type": "event"
    },
    {
      "inputs": [
        {
          "internalType": "string",
          "name": "name_",
          "type": "string"
        },
        {
          "internalType": "string",
          "name": "symbol_",
          "type": "string"
        }
      ],
      "name": "__ERC721A_init",
      "outputs": [],
      "stateMutability": "nonpayable",
      "type": "function"
    },
    {
      "inputs": [
        {
          "internalType": "string",
          "name": "name",
          "type": "string"
        },
        {
          "internalType": "string",
          "name": "symbol",
          "type": "string"
        },
        {
          "internalType": "string",
          "name": "baseURI",
          "type": "string"
        },
        {
          "internalType": "uint256",
          "name": "reward",
          "type": "uint256"
        },
        {
          "internalType": "address",
          "name": "owner",
          "type": "address"
        }
      ],
      "name": "__Pioneer_init",
      "outputs": [],
      "stateMutability": "nonpayable",
      "type": "function"
    },
    {
      "inputs": [
        {
          "internalType": "address",
          "name": "to",
          "type": "address"
        },
        {
          "internalType": "uint256",
          "name": "tokenId",
          "type": "uint256"
        }
      ],
      "name": "approve",
      "outputs": [],
      "stateMutability": "payable",
      "type": "function"
    },
    {
      "inputs": [
        {
          "internalType": "address",
          "name": "owner",
          "type": "address"
        }
      ],
      "name": "balanceOf",
      "outputs": [
        {
          "internalType": "uint256",
          "name": "",
          "type": "uint256"
        }
      ],
      "stateMutability": "view",
      "type": "function"
    },
    {
      "inputs": [
        {
          "internalType": "uint256",
          "name": "tokenId",
          "type": "uint256"
        }
      ],
      "name": "getApproved",
      "outputs": [
        {
          "internalType": "address",
          "name": "",
          "type": "address"
        }
      ],
      "stateMutability": "view",
      "type": "function"
    },
    {
      "inputs": [],
      "name": "getMintReward",
      "outputs": [
        {
          "internalType": "uint256",
          "name": "",
          "type": "uint256"
        }
      ],
      "stateMutability": "view",
      "type": "function"
    },
    {
      "inputs": [
        {
          "internalType": "address",
          "name": "owner",
          "type": "address"
        },
        {
          "internalType": "address",
          "name": "operator",
          "type": "address"
        }
      ],
      "name": "isApprovedForAll",
      "outputs": [
        {
          "internalType": "bool",
          "name": "",
          "type": "bool"
        }
      ],
      "stateMutability": "view",
      "type": "function"
    },
    {
      "inputs": [
        {
          "internalType": "address",
          "name": "to",
          "type": "address"
        }
      ],
      "name": "mintTo",
      "outputs": [
        {
          "internalType": "uint256",
          "name": "tokenId",
          "type": "uint256"
        }
      ],
      "stateMutability": "nonpayable",
      "type": "function"
    },
    {
      "inputs": [],
      "name": "name",
      "outputs": [
        {
          "internalType": "string",
          "name": "",
          "type": "string"
        }
      ],
      "stateMutability": "view",
      "type": "function"
    },
    {
      "inputs": [
        {
          "internalType": "uint256",
          "name": "tokenId",
          "type": "uint256"
        }
      ],
      "name": "ownerOf",
      "outputs": [
        {
          "internalType": "address",
          "name": "",
          "type": "address"
        }
      ],
      "stateMutability": "view",
      "type": "function"
    },
    {
      "inputs": [
        {
          "internalType": "address",
          "name": "from",
          "type": "address"
        },
        {
          "internalType": "address",
          "name": "to",
          "type": "address"
        },
        {
          "internalType": "uint256",
          "name": "tokenId",
          "type": "uint256"
        }
      ],
      "name": "safeTransferFrom",
      "outputs": [],
      "stateMutability": "payable",
      "type": "function"
    },
    {
      "inputs": [
        {
          "internalType": "address",
          "name": "from",
          "type": "address"
        },
        {
          "internalType": "address",
          "name": "to",
          "type": "address"
        },
        {
          "internalType": "uint256",
          "name": "tokenId",
          "type": "uint256"
        },
        {
          "internalType": "bytes",
          "name": "_data",
          "type": "bytes"
        }
      ],
      "name": "safeTransferFrom",
      "outputs": [],
      "stateMutability": "payable",
      "type": "function"
    },
    {
      "inputs": [
        {
          "internalType": "address",
          "name": "user",
          "type": "address"
        },
        {
          "internalType": "bool",
          "name": "allow",
          "type": "bool"
        }
      ],
      "name": "setAllowed",
      "outputs": [],
      "stateMutability": "nonpayable",
      "type": "function"
    },
    {
      "inputs": [
        {
          "internalType": "address",
          "name": "operator",
          "type": "address"
        },
        {
          "internalType": "bool",
          "name": "approved",
          "type": "bool"
        }
      ],
      "name": "setApprovalForAll",
      "outputs": [],
      "stateMutability": "nonpayable",
      "type": "function"
    },
    {
      "inputs": [
        {
          "internalType": "string",
          "name": "baseURI",
          "type": "string"
        }
      ],
      "name": "setBaseURI",
      "outputs": [],
      "stateMutability": "nonpayable",
      "type": "function"
    },
    {
      "inputs": [
        {
          "internalType": "uint256",
          "name": "newMintReward",
          "type": "uint256"
        }
      ],
      "name": "setMintReward",
      "outputs": [],
      "stateMutability": "nonpayable",
      "type": "function"
    },
    {
      "inputs": [],
      "name": "symbol",
      "outputs": [
        {
          "internalType": "string",
          "name": "",
          "type": "string"
        }
      ],
      "stateMutability": "view",
      "type": "function"
    },
    {
      "inputs": [
        {
          "internalType": "uint256",
          "name": "tokenId",
          "type": "uint256"
        }
      ],
      "name": "tokenURI",
      "outputs": [
        {
          "internalType": "string",
          "name": "",
          "type": "string"
        }
      ],
      "stateMutability": "view",
      "type": "function"
    },
    {
      "inputs": [],
      "name": "totalSupply",
      "outputs": [
        {
          "internalType": "uint256",
          "name": "",
          "type": "uint256"
        }
      ],
      "stateMutability": "view",
      "type": "function"
    },
    {
      "inputs": [
        {
          "internalType": "address",
          "name": "from",
          "type": "address"
        },
        {
          "internalType": "address",
          "name": "to",
          "type": "address"
        },
        {
          "internalType": "uint256",
          "name": "tokenId",
          "type": "uint256"
        }
      ],
      "name": "transferFrom",
      "outputs": [],
      "stateMutability": "payable",
      "type": "function"
    },
    {
      "inputs": [
        {
          "internalType": "address",
          "name": "to",
          "type": "address"
        }
      ],
      "name": "withdraw",
      "outputs": [],
      "stateMutability": "nonpayable",
      "type": "function"
    }
  ],
  "bytecode": {
    "object": "0x608060405234801561001057600080fd5b5061001961001e565b6100c4565b7f2d0d21306acfe8e9bb163a4573e95aff6cef95dc1102c6a16d5f19eac08cc4de8054640100000000900460ff161561006a576040516366008a2d60e01b815260040160405180910390fd5b805463ffffffff90811610156100c157805463ffffffff191663ffffffff90811782556040519081527fe9c9b456cb2994b80aeef036cf59d26e9617df80f816a6ee5a5b4166e07e2f5c9060200160405180910390a15b50565b611ae1806100d36000396000f3fe60806040526004361061012a5760003560e01c80636352211e116100ab578063a22cb4651161006f578063a22cb46514610305578063b88d4fde14610325578063c833245114610338578063c87b56dd1461034d578063d2f01f191461036d578063e985e9c51461038d57600080fd5b80636352211e1461027057806370a0823114610290578063755edd17146102b057806380e801ba146102d057806395d89b41146102f057600080fd5b806323b872dd116100f257806323b872dd146101ea57806342842e0e146101fd5780634697f05d1461021057806351cff8d91461023057806355f804b31461025057600080fd5b806306fdde031461012f578063081812fc1461015a578063095ea7b31461019257806318160ddd146101a75780631aa23ef5146101ca575b600080fd5b34801561013b57600080fd5b506101446103bd565b604051610151919061157a565b60405180910390f35b34801561016657600080fd5b5061017a61017536600461158d565b610458565b6040516001600160a01b039091168152602001610151565b6101a56101a03660046115bd565b610469565b005b3480156101b357600080fd5b506101bc610479565b604051908152602001610151565b3480156101d657600080fd5b506101a56101e5366004611693565b610488565b6101a56101f8366004611736565b610500565b6101a561020b366004611736565b6106f7565b34801561021c57600080fd5b506101a561022b366004611772565b610717565b34801561023c57600080fd5b506101a561024b3660046117ae565b6107aa565b34801561025c57600080fd5b506101a561026b3660046117c9565b6107f2565b34801561027c57600080fd5b5061017a61028b36600461158d565b610836565b34801561029c57600080fd5b506101bc6102ab3660046117ae565b610841565b3480156102bc57600080fd5b506101bc6102cb3660046117ae565b61084c565b3480156102dc57600080fd5b506101a56102eb36600461158d565b61091d565b3480156102fc57600080fd5b50610144610961565b34801561031157600080fd5b506101a5610320366004611772565b610979565b6101a56103333660046117fe565b6109f6565b34801561034457600080fd5b506101bc610a40565b34801561035957600080fd5b5061014461036836600461158d565b610a4a565b34801561037957600080fd5b506101a561038836600461187a565b610adb565b34801561039957600080fd5b506103ad6103a83660046118de565b610b2f565b6040519015158152602001610151565b60606103c7610b3b565b60020180546103d590611911565b80601f016020809104026020016040519081016040528092919081815260200182805461040190611911565b801561044e5780601f106104235761010080835404028352916020019161044e565b820191906000526020600020905b81548152906001019060200180831161043157829003601f168201915b5050505050905090565b600061046382610b5f565b92915050565b61047582826001610bac565b5050565b6000610483610c61565b905090565b7f2d0d21306acfe8e9bb163a4573e95aff6cef95dc1102c6a16d5f19eac08cc4de54640100000000900460ff166104d257604051630ef4733760e31b815260040160405180910390fd5b6104db83610c80565b6104e6816001610ccd565b6104ef82610d6a565b6104f98585610daf565b5050505050565b600061050b82610e23565b9050836001600160a01b0316816001600160a01b03161461053e5760405162a1148160e81b815260040160405180910390fd5b60008061054a84610ec8565b9150915061056f818761055a3390565b6001600160a01b039081169116811491141790565b61059a5761057d8633610b2f565b61059a57604051632ce44b5f60e11b815260040160405180910390fd5b6001600160a01b0385166105c157604051633a954ecd60e21b815260040160405180910390fd5b80156105cc57600082555b6105d4610b3b565b6001600160a01b0387166000908152600591909101602052604090208054600019019055610600610b3b565b6001600160a01b03861660008181526005929092016020526040909120805460010190554260a01b17600160e11b17610637610b3b565b60008681526004919091016020526040812091909155600160e11b841690036106ad5760018401610666610b3b565b6000828152600491909101602052604081205490036106ab57610687610b3b565b5481146106ab5783610697610b3b565b600083815260049190910160205260409020555b505b83856001600160a01b0316876001600160a01b03167fddf252ad1be2c89b69c2b068fc378daa952ba7f163c4a11628f55a4df523b3ef60405160405180910390a45b505050505050565b610712838383604051806020016040528060008152506109f6565b505050565b61071f610ef0565b6001600160a01b0316336001600160a01b031614610757576040516365f4906560e01b81523360048201526024015b60405180910390fd5b6107618282610ccd565b816001600160a01b03167f91d426a6b868d3a9f12f044bfd4dfb1df6e3e050a71a34b090d8ce43a5023c298260405161079e911515815260200190565b60405180910390a25050565b6107b2610ef0565b6001600160a01b0316336001600160a01b0316146107e5576040516365f4906560e01b815233600482015260240161074e565b6107ef8147610f1e565b50565b6107fa610ef0565b6001600160a01b0316336001600160a01b03161461082d576040516365f4906560e01b815233600482015260240161074e565b6107ef81610c80565b600061046382610e23565b600061046382610fcc565b600061085733611035565b61087457604051631eb49d6d60e11b815260040160405180910390fd5b6001600160a01b03821661089b57604051631eb49d6d60e11b815260040160405180910390fd5b60006108a683610fcc565b11156108c557604051631bbdf5c560e31b815260040160405180910390fd5b60006108cf611072565b9050478111156108f257604051631e9acf1760e31b815260040160405180910390fd5b6108fa61109c565b91506109078360016110a6565b8015610917576109178382610f1e565b50919050565b610925610ef0565b6001600160a01b0316336001600160a01b031614610958576040516365f4906560e01b815233600482015260240161074e565b6107ef81610d6a565b606061096b610b3b565b60030180546103d590611911565b80610982610b3b565b336000818152600792909201602090815260408084206001600160a01b03881680865290835293819020805460ff19169515159590951790945592518415158152919290917f17307eab39ab6107e8899845ad3d59bd9653f200f220920489ca2b5937696c31910160405180910390a35050565b610a01848484610500565b6001600160a01b0383163b15610a3a57610a1d848484846110c0565b610a3a576040516368d2bf6b60e11b815260040160405180910390fd5b50505050565b6000610483611072565b6060610a55826111ac565b610a7257604051630a14c4b560e41b815260040160405180910390fd5b6000610a8960408051602081019091526000815290565b90508051600003610aa95760405180602001604052806000815250610ad4565b80610ab3846111e8565b604051602001610ac4929190611945565b6040516020818303038152906040525b9392505050565b7f2d0d21306acfe8e9bb163a4573e95aff6cef95dc1102c6a16d5f19eac08cc4de54640100000000900460ff16610b2557604051630ef4733760e31b815260040160405180910390fd5b6104758282610daf565b6000610ad4838361122c565b7f234d8962d7c9a6a6604d7f98797e6ad6d7a886804f7409feb26422e27bf8125490565b6000610b6a826111ac565b610b87576040516333d1c03960e21b815260040160405180910390fd5b610b8f610b3b565b60009283526006016020525060409020546001600160a01b031690565b6000610bb783610836565b90508115610bf657336001600160a01b03821614610bf657610bd9813361122c565b610bf6576040516367d9dca160e11b815260040160405180910390fd5b83610bff610b3b565b6000858152600691909101602052604080822080546001600160a01b0319166001600160a01b0394851617905551859287811692908516917f8c5be1e5ebec7d5bd14f71427d1e84f3dd0314c0f7b2291e5b200ac8c7c3b9259190a450505050565b600080610c6c610b3b565b60010154610c78610b3b565b540303919050565b8051600003610ca25760405163d872946b60e01b815260040160405180910390fd5b7fa716e9aec1664bc61cb89bba9cb9d1cbd868c2c653ad90d895ac0bacf743cdbc61047582826119ba565b6001600160a01b038216610cf457604051631eb49d6d60e11b815260040160405180910390fd5b801515610d0083611035565b151503610d2057604051636a4648d760e01b815260040160405180910390fd5b6001600160a01b039190911660009081527fa716e9aec1664bc61cb89bba9cb9d1cbd868c2c653ad90d895ac0bacf743cdbd60205260409020805460ff1916911515919091179055565b80600003610d8b5760405163861ef1e360e01b815260040160405180910390fd5b7fa716e9aec1664bc61cb89bba9cb9d1cbd868c2c653ad90d895ac0bacf743cdbb55565b7f2d0d21306acfe8e9bb163a4573e95aff6cef95dc1102c6a16d5f19eac08cc4de54640100000000900460ff16610df957604051630ef4733760e31b815260040160405180910390fd5b610e096380ac58cd60e01b611269565b610e19635b5e139f60e01b611269565b6104758282611347565b6000610e2d610b3b565b600083815260049190910160205260408120549150600160e01b82169003610eaf5780600003610eaa57610e5f610b3b565b548210610e7f57604051636f96cda160e11b815260040160405180910390fd5b610e87610b3b565b600019909201600081815260049390930160205260409092205490508015610e7f575b919050565b604051636f96cda160e11b815260040160405180910390fd5b6000806000610ed5610b3b565b60009485526006016020525050604090912080549092909150565b7fa7c3be20e3a76821507555109752fad8a6630ef0362a34dcfcdfef83c99a2537546001600160a01b031690565b6000826001600160a01b03168260405160006040518083038185875af1925050503d8060008114610f6b576040519150601f19603f3d011682016040523d82523d6000602084013e610f70565b606091505b50509050806107125760405162461bcd60e51b815260206004820152602260248201527f50696f6e656572426173653a206661696c656420746f2073656e6420726577616044820152611c9960f21b606482015260840161074e565b60006001600160a01b038216610ff5576040516323d3ad8160e21b815260040160405180910390fd5b67ffffffffffffffff611006610b3b565b6005016000846001600160a01b03166001600160a01b0316815260200190815260200160002054169050919050565b6001600160a01b031660009081527fa716e9aec1664bc61cb89bba9cb9d1cbd868c2c653ad90d895ac0bacf743cdbd602052604090205460ff1690565b60007fa716e9aec1664bc61cb89bba9cb9d1cbd868c2c653ad90d895ac0bacf743cdbb5b54919050565b6000611096610b3b565b610475828260405180602001604052806000815250611379565b604051630a85bd0160e11b81526000906001600160a01b0385169063150b7a02906110f5903390899088908890600401611a7a565b6020604051808303816000875af1925050508015611130575060408051601f3d908101601f1916820190925261112d91810190611ab7565b60015b61118e573d80801561115e576040519150601f19603f3d011682016040523d82523d6000602084013e611163565b606091505b508051600003611186576040516368d2bf6b60e11b815260040160405180910390fd5b805181602001fd5b6001600160e01b031916630a85bd0160e11b1490505b949350505050565b60006111b6610b3b565b54821080156104635750600160e01b6111cd610b3b565b60008481526004919091016020526040902054161592915050565b606060a06040510180604052602081039150506000815280825b600183039250600a81066030018353600a9004806112025750819003601f19909101908152919050565b6000611236610b3b565b6001600160a01b039384166000908152600791909101602090815260408083209490951682529290925250205460ff1690565b6001600160e01b0319811660009081527fbc7de460bcfb6afd0c415c8c610d408bd914b18d7d0feec0da9e25348087a5c4602052604090205460ff1615156001146112f6576001600160e01b0319811660009081527fbc7de460bcfb6afd0c415c8c610d408bd914b18d7d0feec0da9e25348087a5c460205260409020805460ff1916600117905561130f565b604051637967f77d60e11b815260040160405180910390fd5b6040516001600160e01b03198216907f78f84e5b1c5c05be2b5ad3800781dd404d6d6c6302bc755c0fe20f58a33a7f2290600090a250565b6000611351610b3b565b90506002810161136184826119ba565b506003810161137083826119ba565b50600090555050565b61138383836113ef565b6001600160a01b0383163b1561071257600061139d610b3b565b5490508281035b6113b760008683806001019450866110c0565b6113d4576040516368d2bf6b60e11b815260040160405180910390fd5b8181106113a457816113e4610b3b565b54146104f957600080fd5b60006113f9610b3b565b549050600082900361141e5760405163b562e8dd60e01b815260040160405180910390fd5b680100000000000000018202611432610b3b565b6001600160a01b038516600081815260059290920160205260409091208054929092019091554260a01b6001841460e11b171761146d610b3b565b600083815260049190910160205260408120919091556001600160a01b0384169083830190839083907fddf252ad1be2c89b69c2b068fc378daa952ba7f163c4a11628f55a4df523b3ef8180a4600183015b8181146114f757808360007fddf252ad1be2c89b69c2b068fc378daa952ba7f163c4a11628f55a4df523b3ef600080a46001016114bf565b508160000361151857604051622e076360e81b815260040160405180910390fd5b80611521610b3b565b55506107129050565b60005b8381101561154557818101518382015260200161152d565b50506000910152565b6000815180845261156681602086016020860161152a565b601f01601f19169290920160200192915050565b602081526000610ad4602083018461154e565b60006020828403121561159f57600080fd5b5035919050565b80356001600160a01b0381168114610eaa57600080fd5b600080604083850312156115d057600080fd5b6115d9836115a6565b946020939093013593505050565b634e487b7160e01b600052604160045260246000fd5b600067ffffffffffffffff80841115611618576116186115e7565b604051601f8501601f19908116603f01168101908282118183101715611640576116406115e7565b8160405280935085815286868601111561165957600080fd5b858560208301376000602087830101525050509392505050565b600082601f83011261168457600080fd5b610ad4838335602085016115fd565b600080600080600060a086880312156116ab57600080fd5b853567ffffffffffffffff808211156116c357600080fd5b6116cf89838a01611673565b965060208801359150808211156116e557600080fd5b6116f189838a01611673565b9550604088013591508082111561170757600080fd5b5061171488828901611673565b9350506060860135915061172a608087016115a6565b90509295509295909350565b60008060006060848603121561174b57600080fd5b611754846115a6565b9250611762602085016115a6565b9150604084013590509250925092565b6000806040838503121561178557600080fd5b61178e836115a6565b9150602083013580151581146117a357600080fd5b809150509250929050565b6000602082840312156117c057600080fd5b610ad4826115a6565b6000602082840312156117db57600080fd5b813567ffffffffffffffff8111156117f257600080fd5b6111a484828501611673565b6000806000806080858703121561181457600080fd5b61181d856115a6565b935061182b602086016115a6565b925060408501359150606085013567ffffffffffffffff81111561184e57600080fd5b8501601f8101871361185f57600080fd5b61186e878235602084016115fd565b91505092959194509250565b6000806040838503121561188d57600080fd5b823567ffffffffffffffff808211156118a557600080fd5b6118b186838701611673565b935060208501359150808211156118c757600080fd5b506118d485828601611673565b9150509250929050565b600080604083850312156118f157600080fd5b6118fa836115a6565b9150611908602084016115a6565b90509250929050565b600181811c9082168061192557607f821691505b60208210810361091757634e487b7160e01b600052602260045260246000fd5b6000835161195781846020880161152a565b83519083019061196b81836020880161152a565b01949350505050565b601f82111561071257600081815260208120601f850160051c8101602086101561199b5750805b601f850160051c820191505b818110156106ef578281556001016119a7565b815167ffffffffffffffff8111156119d4576119d46115e7565b6119e8816119e28454611911565b84611974565b602080601f831160018114611a1d5760008415611a055750858301515b600019600386901b1c1916600185901b1785556106ef565b600085815260208120601f198616915b82811015611a4c57888601518255948401946001909101908401611a2d565b5085821015611a6a5787850151600019600388901b60f8161c191681555b5050505050600190811b01905550565b6001600160a01b0385811682528416602082015260408101839052608060608201819052600090611aad9083018461154e565b9695505050505050565b600060208284031215611ac957600080fd5b81516001600160e01b031981168114610ad457600080fd",
    "linkReferences": {}
  },
  "methodIdentifiers": {
    "__ERC721A_init(string,string)": "d2f01f19",
    "__Pioneer_init(string,string,string,uint256,address)": "1aa23ef5",
    "approve(address,uint256)": "095ea7b3",
    "balanceOf(address)": "70a08231",
    "getApproved(uint256)": "081812fc",
    "getMintReward()": "c8332451",
    "isApprovedForAll(address,address)": "e985e9c5",
    "mintTo(address)": "755edd17",
    "name()": "06fdde03",
    "ownerOf(uint256)": "6352211e",
    "safeTransferFrom(address,address,uint256)": "42842e0e",
    "safeTransferFrom(address,address,uint256,bytes)": "b88d4fde",
    "setAllowed(address,bool)": "4697f05d",
    "setApprovalForAll(address,bool)": "a22cb465",
    "setBaseURI(string)": "55f804b3",
    "setMintReward(uint256)": "80e801ba",
    "symbol()": "95d89b41",
    "tokenURI(uint256)": "c87b56dd",
    "totalSupply()": "18160ddd",
    "transferFrom(address,address,uint256)": "23b872dd",
    "withdraw(address)": "51cff8d9"
  },
  "id": 136
}