{
  "abi": [
    {
      "inputs": [
        {
          "internalType": "address",
          "name": "account",
          "type": "address"
        }
      ],
      "name": "Ownable__NotOwner",
      "type": "error"
    },
    {
      "inputs": [
        {
          "internalType": "address",
          "name": "implementation",
          "type": "address"
        }
      ],
      "name": "ProxyManagerService__NotContract",
      "type": "error"
    },
    {
      "anonymous": false,
      "inputs": [
        {
          "indexed": false,
          "internalType": "uint8",
          "name": "version",
          "type": "uint8"
        }
      ],
      "name": "Initialized",
      "type": "event"
    },
    {
      "anonymous": false,
      "inputs": [
        {
          "indexed": true,
          "internalType": "address",
          "name": "previousOwner",
          "type": "address"
        },
        {
          "indexed": true,
          "internalType": "address",
          "name": "newOwner",
          "type": "address"
        }
      ],
      "name": "OwnershipTransferred",
      "type": "event"
    },
    {
      "inputs": [
        {
          "internalType": "bytes4",
          "name": "selector",
          "type": "bytes4"
        }
      ],
      "name": "getImplementation",
      "outputs": [
        {
          "internalType": "address",
          "name": "",
          "type": "address"
        }
      ],
      "stateMutability": "view",
      "type": "function"
    },
    {
      "inputs": [
        {
          "internalType": "address",
          "name": "implementation",
          "type": "address"
        }
      ],
      "name": "setImplementation",
      "outputs": [],
      "stateMutability": "nonpayable",
      "type": "function"
    }
  ],
  "bytecode": {
    "object": "0x608060405234801561001057600080fd5b506102d8806100206000396000f3fe608060405234801561001057600080fd5b50600436106100365760003560e01c8063d784d4261461003b578063dc9cc64514610050575b600080fd5b61004e610049366004610274565b61007f565b005b61006361005e366004610291565b610093565b6040516001600160a01b03909116815260200160405180910390f35b6100876100a4565b610090816100e6565b50565b600061009e826100ef565b92915050565b6100ac610190565b6001600160a01b0316336001600160a01b0316146100e4576040516365f4906560e01b81523360048201526024015b60405180910390fd5b565b610090816101c3565b6000806100fa610237565b6040516366ffd66360e11b81526001600160e01b0319851660048201529091506000906001600160a01b0383169063cdffacc690602401602060405180830381865afa15801561014e573d6000803e3d6000fd5b505050506040513d601f19601f8201168201806040525081019061017291906102bb565b90506001600160a01b038116610189575092915050565b9392505050565b60007f79ae75762492beaf6e592c7e395674410f8f73b3120cc73dfae9d6c73528681c5b546001600160a01b0316919050565b6001600160a01b0381163b6101f6576040516365e5ee1b60e11b81526001600160a01b03821660048201526024016100db565b7fb5cfc71e257e66870725f41e5c800b664b7ac2b0668dfc9c36c56832cea760ad80546001600160a01b0319166001600160a01b0392909216919091179055565b60007fb5cfc71e257e66870725f41e5c800b664b7ac2b0668dfc9c36c56832cea760ad6101b4565b6001600160a01b038116811461009057600080fd5b60006020828403121561028657600080fd5b81356101898161025f565b6000602082840312156102a357600080fd5b81356001600160e01b03198116811461018957600080fd5b6000602082840312156102cd57600080fd5b81516101898161025f56",
    "linkReferences": {}
  },
  "methodIdentifiers": {
    "getImplementation(bytes4)": "dc9cc645",
    "setImplementation(address)": "d784d426"
  },
  "id": 162
}