{"abi":[{"type":"function","name":"__ProxyManager_init","inputs":[{"name":"implementation","type":"address","internalType":"address"}],"outputs":[],"stateMutability":"nonpayable"},{"type":"function","name":"getImplementation","inputs":[{"name":"selector","type":"bytes4","internalType":"bytes4"}],"outputs":[{"name":"","type":"address","internalType":"address"}],"stateMutability":"view"},{"type":"function","name":"setImplementation","inputs":[{"name":"implementation","type":"address","internalType":"address"}],"outputs":[],"stateMutability":"nonpayable"},{"type":"event","name":"Initialized","inputs":[{"name":"version","type":"uint32","indexed":false,"internalType":"uint32"}],"anonymous":false},{"type":"event","name":"InterfaceAdded","inputs":[{"name":"interfaceId","type":"bytes4","indexed":true,"internalType":"bytes4"}],"anonymous":false},{"type":"event","name":"InterfaceRemoved","inputs":[{"name":"interfaceId","type":"bytes4","indexed":true,"internalType":"bytes4"}],"anonymous":false},{"type":"event","name":"OwnershipTransferred","inputs":[{"name":"previousOwner","type":"address","indexed":true,"internalType":"address"},{"name":"newOwner","type":"address","indexed":true,"internalType":"address"}],"anonymous":false},{"type":"event","name":"ProxyManager__ImplementationSet","inputs":[{"name":"implementation","type":"address","indexed":false,"internalType":"address"}],"anonymous":false},{"type":"error","name":"Initializable_InInitializingState","inputs":[]},{"type":"error","name":"Initializable_NotInInitializingState","inputs":[]},{"type":"error","name":"Introspection_AlreadySupported","inputs":[]},{"type":"error","name":"Introspection_NotSupported","inputs":[]},{"type":"error","name":"Ownable__NotOwner","inputs":[{"name":"account","type":"address","internalType":"address"}]},{"type":"error","name":"Ownable__ZeroAddress","inputs":[]},{"type":"error","name":"ProxyManager__NotContract","inputs":[{"name":"implementation","type":"address","internalType":"address"}]}],"bytecode":{"object":"0x608060405234801561001057600080fd5b5061001961001e565b6100c4565b7f2d0d21306acfe8e9bb163a4573e95aff6cef95dc1102c6a16d5f19eac08cc4de8054640100000000900460ff161561006a576040516366008a2d60e01b815260040160405180910390fd5b805463ffffffff90811610156100c157805463ffffffff191663ffffffff90811782556040519081527fe9c9b456cb2994b80aeef036cf59d26e9617df80f816a6ee5a5b4166e07e2f5c9060200160405180910390a15b50565b610428806100d36000396000f3fe608060405234801561001057600080fd5b50600436106100415760003560e01c8063d784d42614610046578063dc9cc6451461005b578063eb4ab8081461008a575b600080fd5b6100596100543660046103c4565b61009d565b005b61006e6100693660046103e1565b6100fa565b6040516001600160a01b03909116815260200160405180910390f35b6100596100983660046103c4565b61010b565b7fa7c3be20e3a76821507555109752fad8a6630ef0362a34dcfcdfef83c99a2537546001600160a01b031633146100ee576040516365f4906560e01b81523360048201526024015b60405180910390fd5b6100f78161016e565b50565b600061010582610215565b92915050565b7f2d0d21306acfe8e9bb163a4573e95aff6cef95dc1102c6a16d5f19eac08cc4de54640100000000900460ff1661015557604051630ef4733760e31b815260040160405180910390fd5b61015e8161016e565b6100f7630b18126360e01b6102d1565b6001600160a01b0381163b6101a1576040516301804d6f60e31b81526001600160a01b03821660048201526024016100e5565b807f8639d8c60a301f932290a6f38489f92dc40260c8a392b825dafd2c3362ff99dd80546001600160a01b0319166001600160a01b0392831617905560405190821681527f8295fd24d168fe40d442afbd8648e2883f184648dd815a08f516f38fab1ed3489060200160405180910390a150565b6000807f8639d8c60a301f932290a6f38489f92dc40260c8a392b825dafd2c3362ff99dd546040516366ffd66360e11b81526001600160e01b0319851660048201526001600160a01b039091169150600090829063cdffacc690602401602060405180830381865afa15801561028f573d6000803e3d6000fd5b505050506040513d601f19601f820116820180604052508101906102b3919061040b565b90506001600160a01b0381166102ca575092915050565b9392505050565b6001600160e01b0319811660009081527fbc7de460bcfb6afd0c415c8c610d408bd914b18d7d0feec0da9e25348087a5c4602052604090205460ff16151560011461035e576001600160e01b0319811660009081527fbc7de460bcfb6afd0c415c8c610d408bd914b18d7d0feec0da9e25348087a5c460205260409020805460ff19166001179055610377565b604051637967f77d60e11b815260040160405180910390fd5b6040516001600160e01b03198216907f78f84e5b1c5c05be2b5ad3800781dd404d6d6c6302bc755c0fe20f58a33a7f2290600090a250565b6001600160a01b03811681146100f757600080fd5b6000602082840312156103d657600080fd5b81356102ca816103af565b6000602082840312156103f357600080fd5b81356001600160e01b0319811681146102ca57600080fd5b60006020828403121561041d57600080fd5b81516102ca816103af56","linkReferences":{}},"methodIdentifiers":{"__ProxyManager_init(address)":"eb4ab808","getImplementation(bytes4)":"dc9cc645","setImplementation(address)":"d784d426"},"id":113}