{"abi":[{"type":"constructor","inputs":[],"stateMutability":"nonpayable"},{"type":"function","name":"SPACE_ADDRESS","inputs":[],"outputs":[{"name":"","type":"address","internalType":"address"}],"stateMutability":"view"},{"type":"function","name":"description","inputs":[],"outputs":[{"name":"","type":"string","internalType":"string"}],"stateMutability":"view"},{"type":"function","name":"encodeExternalTokens","inputs":[{"name":"tokens","type":"tuple[]","internalType":"struct ITokenEntitlement.ExternalToken[]","components":[{"name":"contractAddress","type":"address","internalType":"address"},{"name":"quantity","type":"uint256","internalType":"uint256"},{"name":"isSingleToken","type":"bool","internalType":"bool"},{"name":"tokenIds","type":"uint256[]","internalType":"uint256[]"}]}],"outputs":[],"stateMutability":"pure"},{"type":"function","name":"getEntitlementDataByRoleId","inputs":[{"name":"roleId","type":"uint256","internalType":"uint256"}],"outputs":[{"name":"","type":"bytes[]","internalType":"bytes[]"}],"stateMutability":"view"},{"type":"function","name":"initialize","inputs":[{"name":"space","type":"address","internalType":"address"}],"outputs":[],"stateMutability":"nonpayable"},{"type":"function","name":"isEntitled","inputs":[{"name":"channelId","type":"string","internalType":"string"},{"name":"user","type":"address","internalType":"address"},{"name":"permission","type":"bytes32","internalType":"bytes32"}],"outputs":[{"name":"","type":"bool","internalType":"bool"}],"stateMutability":"view"},{"type":"function","name":"moduleType","inputs":[],"outputs":[{"name":"","type":"string","internalType":"string"}],"stateMutability":"view"},{"type":"function","name":"name","inputs":[],"outputs":[{"name":"","type":"string","internalType":"string"}],"stateMutability":"view"},{"type":"function","name":"proxiableUUID","inputs":[],"outputs":[{"name":"","type":"bytes32","internalType":"bytes32"}],"stateMutability":"view"},{"type":"function","name":"removeEntitlement","inputs":[{"name":"roleId","type":"uint256","internalType":"uint256"},{"name":"entitlementData","type":"bytes","internalType":"bytes"}],"outputs":[{"name":"entitlementId","type":"bytes32","internalType":"bytes32"}],"stateMutability":"nonpayable"},{"type":"function","name":"setEntitlement","inputs":[{"name":"roleId","type":"uint256","internalType":"uint256"},{"name":"entitlementData","type":"bytes","internalType":"bytes"}],"outputs":[{"name":"entitlementId","type":"bytes32","internalType":"bytes32"}],"stateMutability":"nonpayable"},{"type":"function","name":"supportsInterface","inputs":[{"name":"interfaceId","type":"bytes4","internalType":"bytes4"}],"outputs":[{"name":"","type":"bool","internalType":"bool"}],"stateMutability":"view"},{"type":"function","name":"upgradeTo","inputs":[{"name":"newImplementation","type":"address","internalType":"address"}],"outputs":[],"stateMutability":"nonpayable"},{"type":"function","name":"upgradeToAndCall","inputs":[{"name":"newImplementation","type":"address","internalType":"address"},{"name":"data","type":"bytes","internalType":"bytes"}],"outputs":[],"stateMutability":"payable"},{"type":"event","name":"AdminChanged","inputs":[{"name":"previousAdmin","type":"address","indexed":false,"internalType":"address"},{"name":"newAdmin","type":"address","indexed":false,"internalType":"address"}],"anonymous":false},{"type":"event","name":"BeaconUpgraded","inputs":[{"name":"beacon","type":"address","indexed":true,"internalType":"address"}],"anonymous":false},{"type":"event","name":"Initialized","inputs":[{"name":"version","type":"uint8","indexed":false,"internalType":"uint8"}],"anonymous":false},{"type":"event","name":"Upgraded","inputs":[{"name":"implementation","type":"address","indexed":true,"internalType":"address"}],"anonymous":false},{"type":"error","name":"Entitlement__InvalidValue","inputs":[]},{"type":"error","name":"Entitlement__NotAllowed","inputs":[]},{"type":"error","name":"Entitlement__NotMember","inputs":[]},{"type":"error","name":"Entitlement__ValueAlreadyExists","inputs":[]}],"bytecode":{"object":"0x60a0604052306080523480156200001557600080fd5b506200002062000026565b620000e8565b600054610100900460ff1615620000935760405162461bcd60e51b815260206004820152602760248201527f496e697469616c697a61626c653a20636f6e747261637420697320696e697469604482015266616c697a696e6760c81b606482015260840160405180910390fd5b60005460ff9081161015620000e6576000805460ff191660ff9081179091556040519081527f7f26b83ff96e1f2b6a682f133852f6798a09c465da95921460cefb38474024989060200160405180910390a15b565b608051612557620001206000396000818161049d015281816104e601528181610585015281816105c5015261065401526125576000f3fe6080604052600436106100dc5760003560e01c806352d1902d1161007f5780637284e416116100595780637284e41614610298578063c4d66de8146102da578063ef8be574146102fa578063fa6d1adf1461031a57600080fd5b806352d1902d1461021a5780635427e86a1461023d5780636465e69f1461025c57600080fd5b80631eee07b2116100bb5780631eee07b21461018057806334322eff146101ad5780633659cfe6146101e55780634f1ef2861461020757600080fd5b8062b4eaa8146100e157806301ffc9a71461011657806306fdde0314610136575b600080fd5b3480156100ed57600080fd5b506101016100fc366004611b77565b61033a565b60405190151581526020015b60405180910390f35b34801561012257600080fd5b50610101610131366004611bd3565b610367565b34801561014257600080fd5b5061017360405180604001604052806011815260200170151bdad95b88115b9d1a5d1b195b595b9d607a1b81525081565b60405161010d9190611c4d565b34801561018c57600080fd5b506101a061019b366004611c60565b61039e565b60405161010d9190611c79565b3480156101b957600080fd5b5060c9546101cd906001600160a01b031681565b6040516001600160a01b03909116815260200161010d565b3480156101f157600080fd5b50610205610200366004611cdd565b610493565b005b610205610215366004611d8f565b61057b565b34801561022657600080fd5b5061022f610647565b60405190815260200161010d565b34801561024957600080fd5b50610205610258366004611e21565b5050565b34801561026857600080fd5b506101736040518060400160405280601081526020016f151bdad95b915b9d1a5d1b195b595b9d60821b81525081565b3480156102a457600080fd5b5061017360405180604001604052806016815260200175456e7469746c656d656e7420666f7220746f6b656e7360501b81525081565b3480156102e657600080fd5b506102056102f5366004611cdd565b6106fa565b34801561030657600080fd5b5061022f610315366004611e95565b610836565b34801561032657600080fd5b5061022f610335366004611e95565b610a76565b600083156103555761034e85858585610b38565b905061035f565b61034e8383610c67565b949350505050565b60006001600160e01b0319821663df76a3d360e01b148061039857506301ffc9a760e01b6001600160e01b03198316145b92915050565b600081815260cb60205260408120606091906103b990610e17565b9050600081516001600160401b038111156103d6576103d6611cfa565b60405190808252806020026020018201604052801561040957816020015b60608152602001906001900390816103f45790505b50905060005b825181101561048b5760ca600084838151811061042e5761042e611ee0565b602002602001015181526020019081526020016000206003016040516020016104579190611ef6565b60405160208183030381529060405282828151811061047857610478611ee0565b602090810291909101015260010161040f565b509392505050565b6001600160a01b037f00000000000000000000000000000000000000000000000000000000000000001630036104e45760405162461bcd60e51b81526004016104db90611fc2565b60405180910390fd5b7f00000000000000000000000000000000000000000000000000000000000000006001600160a01b031661052d600080516020612510833981519152546001600160a01b031690565b6001600160a01b0316146105535760405162461bcd60e51b81526004016104db9061200e565b61055c81610e2b565b6040805160008082526020820190925261057891839190610e5f565b50565b6001600160a01b037f00000000000000000000000000000000000000000000000000000000000000001630036105c35760405162461bcd60e51b81526004016104db90611fc2565b7f00000000000000000000000000000000000000000000000000000000000000006001600160a01b031661060c600080516020612510833981519152546001600160a01b031690565b6001600160a01b0316146106325760405162461bcd60e51b81526004016104db9061200e565b61063b82610e2b565b61025882826001610e5f565b6000306001600160a01b037f000000000000000000000000000000000000000000000000000000000000000016146106e75760405162461bcd60e51b815260206004820152603860248201527f555550535570677261646561626c653a206d757374206e6f742062652063616c60448201527f6c6564207468726f7567682064656c656761746563616c6c000000000000000060648201526084016104db565b5060008051602061251083398151915290565b600054610100900460ff161580801561071a5750600054600160ff909116105b806107345750303b158015610734575060005460ff166001145b6107975760405162461bcd60e51b815260206004820152602e60248201527f496e697469616c697a61626c653a20636f6e747261637420697320616c72656160448201526d191e481a5b9a5d1a585b1a5e995960921b60648201526084016104db565b6000805460ff1916600117905580156107ba576000805461ff0019166101001790555b6107c2610fcf565b6107ca610fcf565b6107d2610fcf565b60c980546001600160a01b0319166001600160a01b0384161790558015610258576000805461ff0019169055604051600181527f7f26b83ff96e1f2b6a682f133852f6798a09c465da95921460cefb38474024989060200160405180910390a15050565b60c9546000906001600160a01b0316336001600160a01b03161461086d57604051630ce39a4b60e21b815260040160405180910390fd5b8383836040516020016108829392919061205a565b60408051601f198184030181529190528051602090910120905060006108aa838501856120a5565b905080516000036108ce576040516372bbc80f60e11b815260040160405180910390fd5b60005b8151811015610a1d5760006001600160a01b03168282815181106108f7576108f7611ee0565b6020026020010151600001516001600160a01b03160361092a576040516372bbc80f60e11b815260040160405180910390fd5b81818151811061093c5761093c611ee0565b602002602001015160200151600003610968576040516372bbc80f60e11b815260040160405180910390fd5b60ca600084815260200190815260200160002060030182828151811061099057610990611ee0565b602090810291909101810151825460018082018555600094855293839020825160049092020180546001600160a01b0319166001600160a01b039092169190911781558183015193810193909355604081015160028401805460ff191691151591909117905560608101518051919392610a1292600385019290910190611a3a565b5050506001016108d1565b50600082815260ca602090815260408083208881556001810180546001600160a01b031916331790554260029091015587835260cb9091529020610a61908361103c565b50610a6d60cc8361103c565b50509392505050565b60c9546000906001600160a01b0316336001600160a01b031614610aad57604051630ce39a4b60e21b815260040160405180910390fd5b838383604051602001610ac29392919061205a565b60408051601f198184030181529181528151602092830120600087815260cb9093529120909150610af39082611048565b50610aff60cc82611048565b50600081815260ca602052604081208181556001810180546001600160a01b03191690556002810182905590610a6d6003830182611a85565b60c954604051637cd7ee3d60e01b815260009182916001600160a01b0390911690637cd7ee3d90610b6f908990899060040161220e565b600060405180830381865afa158015610b8c573d6000803e3d6000fd5b505050506040513d6000823e601f3d908101601f19168201604052610bb49190810190612282565b905060005b816060015151811015610c5d57600082606001518281518110610bde57610bde611ee0565b60200260200101519050610bf28186611054565b15610c5457600081815260cb60205260408120610c0e90610e17565b905060005b8151811015610c5157610c3f88838381518110610c3257610c32611ee0565b6020026020010151611144565b15610c4957600195505b600101610c13565b50505b50600101610bb9565b5050949350505050565b6000805b610c7560cc611354565b811015610e10576000610c8960cc8361135e565b600081815260ca6020908152604080832081516080810183528154815260018201546001600160a01b0316818501526002820154818401526003820180548451818702810187019095528085529697509495909491936060860193929190879084015b82821015610d9a576000848152602090819020604080516080810182526004860290920180546001600160a01b03168352600181015483850152600281015460ff1615158383015260038101805483518187028101870190945280845293949193606086019392830182828015610d8257602002820191906000526020600020905b815481526020019060010190808311610d6e575b50505050508152505081526020019060010190610cec565b505050915250508051909150610db08187611054565b15610e0557600081815260cb60205260408120610dcc90610e17565b905060005b8151811015610e0257610df089838381518110610c3257610c32611ee0565b15610dfa57600196505b600101610dd1565b50505b505050600101610c6b565b5092915050565b60606000610e248361136a565b9392505050565b60c9546001600160a01b0316336001600160a01b03161461057857604051630ce39a4b60e21b815260040160405180910390fd5b7f4910fdfa16fed3260ed0e7147f7cc6da11a60208b5b9406d12a635614ffd91435460ff1615610e9757610e92836113c6565b505050565b826001600160a01b03166352d1902d6040518163ffffffff1660e01b8152600401602060405180830381865afa925050508015610ef1575060408051601f3d908101601f19168201909252610eee9181019061239f565b60015b610f545760405162461bcd60e51b815260206004820152602e60248201527f45524331393637557067726164653a206e657720696d706c656d656e7461746960448201526d6f6e206973206e6f74205555505360901b60648201526084016104db565b6000805160206125108339815191528114610fc35760405162461bcd60e51b815260206004820152602960248201527f45524331393637557067726164653a20756e737570706f727465642070726f786044820152681a58589b195555525160ba1b60648201526084016104db565b50610e92838383611462565b600054610100900460ff1661103a5760405162461bcd60e51b815260206004820152602b60248201527f496e697469616c697a61626c653a20636f6e7472616374206973206e6f74206960448201526a6e697469616c697a696e6760a81b60648201526084016104db565b565b6000610e24838361148d565b6000610e2483836114dc565b60c95460405163b426423360e01b8152600481018490526000916001600160a01b0316908290829063b426423390602401600060405180830381865afa1580156110a2573d6000803e3d6000fd5b505050506040513d6000823e601f3d908101601f191682016040526110ca91908101906123b8565b805190915060005b8181101561113757858382815181106110ed576110ed611ee0565b6020026020010151604051602001611105919061245b565b60405160208183030381529060405261111d90612477565b0361112f576001945050505050610398565b6001016110d2565b5060009695505050505050565b600081815260ca6020908152604080832060030180548251818502810185019093528083528493849084015b8282101561121e576000848152602090819020604080516080810182526004860290920180546001600160a01b03168352600181015483850152600281015460ff161515838301526003810180548351818702810187019094528084529394919360608601939283018282801561120657602002820191906000526020600020905b8154815260200190600101908083116111f2575b50505050508152505081526020019060010190611170565b5050505090506000805b825181101561134b57600083828151811061124557611245611ee0565b6020026020010151602001519050600084838151811061126757611267611ee0565b6020026020010151600001519050600085848151811061128957611289611ee0565b602002602001015160600151905060008685815181106112ab576112ab611ee0565b60200260200101516040015190506112ca836380ac58cd60e01b6115cf565b156112ed576112dc838b86848661164f565b955085156112ed5750505050611343565b6112fe83636cdb3d1360e11b6115cf565b1561132157611310838b8684866117a3565b955085156113215750505050611343565b61132e838b86848661188d565b95508561133e575050505061134b565b505050505b600101611228565b50949350505050565b6000610398825490565b6000610e2483836118ac565b6060816000018054806020026020016040519081016040528092919081815260200182805480156113ba57602002820191906000526020600020905b8154815260200190600101908083116113a6575b50505050509050919050565b6001600160a01b0381163b6114335760405162461bcd60e51b815260206004820152602d60248201527f455243313936373a206e657720696d706c656d656e746174696f6e206973206e60448201526c1bdd08184818dbdb9d1c9858dd609a1b60648201526084016104db565b60008051602061251083398151915280546001600160a01b0319166001600160a01b0392909216919091179055565b61146b836118d6565b6000825111806114785750805b15610e92576114878383611916565b50505050565b60008181526001830160205260408120546114d457508154600181810184556000848152602080822090930184905584548482528286019093526040902091909155610398565b506000610398565b600081815260018301602052604081205480156115c557600061150060018361249e565b85549091506000906115149060019061249e565b905081811461157957600086600001828154811061153457611534611ee0565b906000526020600020015490508087600001848154811061155757611557611ee0565b6000918252602080832090910192909255918252600188019052604090208390555b855486908061158a5761158a6124bf565b600190038181906000526020600020016000905590558560010160008681526020019081526020016000206000905560019350505050610398565b6000915050610398565b6040516301ffc9a760e01b81526001600160e01b0319821660048201526000906001600160a01b038416906301ffc9a790602401602060405180830381865afa92505050801561163c575060408051601f3d908101601f19168201909252611639918101906124d5565b60015b61164857506000610398565b9050610398565b6000821561171c5760005b825181101561171657866001600160a01b0316636352211e84838151811061168457611684611ee0565b60200260200101516040518263ffffffff1660e01b81526004016116aa91815260200190565b602060405180830381865afa9250505080156116e3575060408051601f3d908101601f191682019092526116e0918101906124f2565b60015b1561170e57866001600160a01b0316816001600160a01b03160361170c5760019250505061179a565b505b60010161165a565b50611796565b6040516370a0823160e01b81526001600160a01b0386811660048301528716906370a0823190602401602060405180830381865afa92505050801561177e575060408051601f3d908101601f1916820190925261177b9181019061239f565b60015b156117965784811061179457600191505061179a565b505b5060005b95945050505050565b6000805b825181101561179457866001600160a01b031662fdd58e878584815181106117d1576117d1611ee0565b60200260200101516040518363ffffffff1660e01b815260040161180a9291906001600160a01b03929092168252602082015260400190565b602060405180830381865afa925050508015611843575060408051601f3d908101601f191682019092526118409181019061239f565b60015b15611885578480156118555750600081115b156118655760019250505061179a565b841580156118735750858110155b156118835760019250505061179a565b505b6001016117a7565b6000821561189d5750600061179a565b81511561171c5750600061179a565b60008260000182815481106118c3576118c3611ee0565b9060005260206000200154905092915050565b6118df816113c6565b6040516001600160a01b038216907fbc7cd75a20ee27fd9adebab32041f755214dbc6bffa90cc0225b39da2e5c2d3b90600090a250565b60606001600160a01b0383163b61197e5760405162461bcd60e51b815260206004820152602660248201527f416464726573733a2064656c65676174652063616c6c20746f206e6f6e2d636f6044820152651b9d1c9858dd60d21b60648201526084016104db565b600080846001600160a01b031684604051611999919061245b565b600060405180830381855af49150503d80600081146119d4576040519150601f19603f3d011682016040523d82523d6000602084013e6119d9565b606091505b509150915061179a82826040518060600160405280602781526020016125306027913960608315611a0b575081610e24565b610e248383815115611a205781518083602001fd5b8060405162461bcd60e51b81526004016104db9190611c4d565b828054828255906000526020600020908101928215611a75579160200282015b82811115611a75578251825591602001919060010190611a5a565b50611a81929150611aa6565b5090565b50805460008255600402906000526020600020908101906105789190611abb565b5b80821115611a815760008155600101611aa7565b80821115611a815780546001600160a01b031916815560006001820181905560028201805460ff19169055611af36003830182611afc565b50600401611abb565b50805460008255906000526020600020908101906105789190611aa6565b60008083601f840112611b2c57600080fd5b5081356001600160401b03811115611b4357600080fd5b602083019150836020828501011115611b5b57600080fd5b9250929050565b6001600160a01b038116811461057857600080fd5b60008060008060608587031215611b8d57600080fd5b84356001600160401b03811115611ba357600080fd5b611baf87828801611b1a565b9095509350506020850135611bc381611b62565b9396929550929360400135925050565b600060208284031215611be557600080fd5b81356001600160e01b031981168114610e2457600080fd5b60005b83811015611c18578181015183820152602001611c00565b50506000910152565b60008151808452611c39816020860160208601611bfd565b601f01601f19169290920160200192915050565b602081526000610e246020830184611c21565b600060208284031215611c7257600080fd5b5035919050565b600060208083016020845280855180835260408601915060408160051b87010192506020870160005b82811015611cd057603f19888603018452611cbe858351611c21565b94509285019290850190600101611ca2565b5092979650505050505050565b600060208284031215611cef57600080fd5b8135610e2481611b62565b634e487b7160e01b600052604160045260246000fd5b604051608081016001600160401b0381118282101715611d3257611d32611cfa565b60405290565b604051601f8201601f191681016001600160401b0381118282101715611d6057611d60611cfa565b604052919050565b60006001600160401b03821115611d8157611d81611cfa565b50601f01601f191660200190565b60008060408385031215611da257600080fd5b8235611dad81611b62565b915060208301356001600160401b03811115611dc857600080fd5b8301601f81018513611dd957600080fd5b8035611dec611de782611d68565b611d38565b818152866020838501011115611e0157600080fd5b816020840160208301376000602083830101528093505050509250929050565b60008060208385031215611e3457600080fd5b82356001600160401b0380821115611e4b57600080fd5b818501915085601f830112611e5f57600080fd5b813581811115611e6e57600080fd5b8660208260051b8501011115611e8357600080fd5b60209290920196919550909350505050565b600080600060408486031215611eaa57600080fd5b8335925060208401356001600160401b03811115611ec757600080fd5b611ed386828701611b1a565b9497909650939450505050565b634e487b7160e01b600052603260045260246000fd5b600060208083018184528085548083526040925060408601915060408160051b8701016000888152858120815b84811015611fb357898403603f1901865281546001600160a01b0316845260018281015489860152600283015460ff16151588860152608060608601819052600384018054918701829052855289852060a0870192909186905b80821015611f9a5783548552938c01939282019290820190611f7d565b5050509689019650935060049190910190600101611f23565b50919998505050505050505050565b6020808252602c908201527f46756e6374696f6e206d7573742062652063616c6c6564207468726f7567682060408201526b19195b1959d85d1958d85b1b60a21b606082015260800190565b6020808252602c908201527f46756e6374696f6e206d7573742062652063616c6c6564207468726f7567682060408201526b6163746976652070726f787960a01b606082015260800190565b838152818360208301376000910160200190815292915050565b60006001600160401b0382111561208d5761208d611cfa565b5060051b60200190565b801515811461057857600080fd5b600060208083850312156120b857600080fd5b82356001600160401b03808211156120cf57600080fd5b818501915085601f8301126120e357600080fd5b81356120f1611de782612074565b81815260059190911b8301840190848101908883111561211057600080fd5b8585015b838110156122015780358581111561212b57600080fd5b86016080818c03601f1901121561214157600080fd5b612149611d10565b8882013561215681611b62565b81526040828101358a830152606083013561217081612097565b828201526080830135888111156121875760008081fd5b8084019350508c603f84011261219d5760008081fd5b898301356121ad611de782612074565b81815260059190911b84018201908b8101908f8311156121cd5760008081fd5b948301945b828610156121eb5785358252948c0194908c01906121d2565b6060850152505050845250918601918601612114565b5098975050505050505050565b60208152816020820152818360408301376000818301604090810191909152601f909201601f19160101919050565b600082601f83011261224e57600080fd5b815161225c611de782611d68565b81815284602083860101111561227157600080fd5b61035f826020830160208701611bfd565b6000602080838503121561229557600080fd5b82516001600160401b03808211156122ac57600080fd5b90840190608082870312156122c057600080fd5b6122c8611d10565b8251828111156122d757600080fd5b6122e38882860161223d565b825250838301516122f381612097565b8185015260408301518281111561230957600080fd5b6123158882860161223d565b60408301525060608301518281111561232d57600080fd5b80840193505086601f84011261234257600080fd5b82519150612352611de783612074565b82815260059290921b8301840191848101908884111561237157600080fd5b938501935b8385101561238f57845182529385019390850190612376565b6060830152509695505050505050565b6000602082840312156123b157600080fd5b5051919050565b600060208083850312156123cb57600080fd5b82516001600160401b03808211156123e257600080fd5b818501915085601f8301126123f657600080fd5b8151612404611de782612074565b81815260059190911b8301840190848101908883111561242357600080fd5b8585015b838110156122015780518581111561243f5760008081fd5b61244d8b89838a010161223d565b845250918601918601612427565b6000825161246d818460208701611bfd565b9190910192915050565b80516020808301519190811015612498576000198160200360031b1b821691505b50919050565b8181038181111561039857634e487b7160e01b600052601160045260246000fd5b634e487b7160e01b600052603160045260246000fd5b6000602082840312156124e757600080fd5b8151610e2481612097565b60006020828403121561250457600080fd5b8151610e2481611b6256fe360894a13ba1a3210667c828492db98dca3e2076cc3735a920a3ca505d382bbc416464726573733a206c6f772d6c6576656c2064656c65676174652063616c6c206661696c6564","linkReferences":{}},"methodIdentifiers":{"SPACE_ADDRESS()":"34322eff","description()":"7284e416","encodeExternalTokens((address,uint256,bool,uint256[])[])":"5427e86a","getEntitlementDataByRoleId(uint256)":"1eee07b2","initialize(address)":"c4d66de8","isEntitled(string,address,bytes32)":"00b4eaa8","moduleType()":"6465e69f","name()":"06fdde03","proxiableUUID()":"52d1902d","removeEntitlement(uint256,bytes)":"fa6d1adf","setEntitlement(uint256,bytes)":"ef8be574","supportsInterface(bytes4)":"01ffc9a7","upgradeTo(address)":"3659cfe6","upgradeToAndCall(address,bytes)":"4f1ef286"},"id":144}