{
  "abi": [
    {
      "inputs": [],
      "name": "Initializable_InInitializingState",
      "type": "error"
    },
    {
      "inputs": [],
      "name": "Initializable_NotInInitializingState",
      "type": "error"
    },
    {
      "inputs": [],
      "name": "Introspection_AlreadySupported",
      "type": "error"
    },
    {
      "inputs": [],
      "name": "Introspection_NotSupported",
      "type": "error"
    },
    {
      "inputs": [
        {
          "internalType": "address",
          "name": "account",
          "type": "address"
        }
      ],
      "name": "Ownable__NotOwner",
      "type": "error"
    },
    {
      "inputs": [],
      "name": "Ownable__ZeroAddress",
      "type": "error"
    },
    {
      "inputs": [],
      "name": "Pausable__NotPaused",
      "type": "error"
    },
    {
      "inputs": [],
      "name": "Pausable__Paused",
      "type": "error"
    },
    {
      "anonymous": false,
      "inputs": [
        {
          "indexed": false,
          "internalType": "uint32",
          "name": "version",
          "type": "uint32"
        }
      ],
      "name": "Initialized",
      "type": "event"
    },
    {
      "anonymous": false,
      "inputs": [
        {
          "indexed": true,
          "internalType": "bytes4",
          "name": "interfaceId",
          "type": "bytes4"
        }
      ],
      "name": "InterfaceAdded",
      "type": "event"
    },
    {
      "anonymous": false,
      "inputs": [
        {
          "indexed": true,
          "internalType": "bytes4",
          "name": "interfaceId",
          "type": "bytes4"
        }
      ],
      "name": "InterfaceRemoved",
      "type": "event"
    },
    {
      "anonymous": false,
      "inputs": [
        {
          "indexed": true,
          "internalType": "address",
          "name": "previousOwner",
          "type": "address"
        },
        {
          "indexed": true,
          "internalType": "address",
          "name": "newOwner",
          "type": "address"
        }
      ],
      "name": "OwnershipTransferred",
      "type": "event"
    },
    {
      "anonymous": false,
      "inputs": [
        {
          "indexed": false,
          "internalType": "address",
          "name": "account",
          "type": "address"
        }
      ],
      "name": "Paused",
      "type": "event"
    },
    {
      "anonymous": false,
      "inputs": [
        {
          "indexed": false,
          "internalType": "address",
          "name": "account",
          "type": "address"
        }
      ],
      "name": "Unpaused",
      "type": "event"
    },
    {
      "inputs": [],
      "name": "__Pausable_init",
      "outputs": [],
      "stateMutability": "nonpayable",
      "type": "function"
    },
    {
      "inputs": [],
      "name": "pause",
      "outputs": [],
      "stateMutability": "nonpayable",
      "type": "function"
    },
    {
      "inputs": [],
      "name": "paused",
      "outputs": [
        {
          "internalType": "bool",
          "name": "",
          "type": "bool"
        }
      ],
      "stateMutability": "view",
      "type": "function"
    },
    {
      "inputs": [],
      "name": "unpause",
      "outputs": [],
      "stateMutability": "nonpayable",
      "type": "function"
    }
  ],
  "bytecode": {
    "object": "0x608060405234801561001057600080fd5b5061001961001e565b6100c4565b7f2d0d21306acfe8e9bb163a4573e95aff6cef95dc1102c6a16d5f19eac08cc4de8054640100000000900460ff161561006a576040516366008a2d60e01b815260040160405180910390fd5b805463ffffffff90811610156100c157805463ffffffff191663ffffffff90811782556040519081527fe9c9b456cb2994b80aeef036cf59d26e9617df80f816a6ee5a5b4166e07e2f5c9060200160405180910390a15b50565b610391806100d36000396000f3fe608060405234801561001057600080fd5b506004361061004c5760003560e01c80633f4ba83a146100515780635c975abb1461005b5780638456cb591461007757806384d2023a1461007f575b600080fd5b610059610087565b005b610063610101565b604051901515815260200160405180910390f35b610059610121565b610059610195565b61008f6101df565b6001600160a01b0316336001600160a01b0316146100c7576040516365f4906560e01b81523360048201526024015b60405180910390fd5b6000805160206103718339815191525460ff166100f757604051632ca4452d60e11b815260040160405180910390fd5b6100ff6102a9565b565b600061011c6000805160206103718339815191525460ff1690565b905090565b6101296101df565b6001600160a01b0316336001600160a01b03161461015c576040516365f4906560e01b81523360048201526024016100be565b6000805160206103718339815191525460ff161561018d576040516302ca8ced60e11b815260040160405180910390fd5b6100ff6102f6565b7f2d0d21306acfe8e9bb163a4573e95aff6cef95dc1102c6a16d5f19eac08cc4de54640100000000900460ff166100f757604051630ef4733760e31b815260040160405180910390fd5b6040805180820182527f9bd0e1a7aef81c47cff971a2fee48406b20f55522326b2e2616c49c24aa506d0546001600160a01b03168082527f9bd0e1a7aef81c47cff971a2fee48406b20f55522326b2e2616c49c24aa506d154602080840182905284516331a9108f60e11b815260048101929092529351600094636352211e92602480820193918290030181865afa15801561027f573d6000803e3d6000fd5b505050506040513d601f19601f820116820180604052508101906102a39190610340565b91505090565b600080516020610371833981519152805460ff191690556040513381527f5db9ee0a495bf2e6ff9c91a7834c1ba4fdd244a5e8aa4e537bd38aeae4b073aa906020015b60405180910390a1565b600080516020610371833981519152805460ff191660011790556040513381527f62e78cea01bee320cd4e420270b5ea74000d11b0c9f74754ebdbfc544b05a258906020016102ec565b60006020828403121561035257600080fd5b81516001600160a01b038116811461036957600080fd5b939250505056fef421ea548af7158b1d71ba0aeccf57104c067038bd8fd214edd05c09eb4f735b",
    "linkReferences": {}
  },
  "methodIdentifiers": {
    "__Pausable_init()": "84d2023a",
    "pause()": "8456cb59",
    "paused()": "5c975abb",
    "unpause()": "3f4ba83a"
  },
  "id": 77
}