{"abi":[{"type":"function","name":"CLOCK_MODE","inputs":[],"outputs":[{"name":"","type":"string","internalType":"string"}],"stateMutability":"view"},{"type":"function","name":"DOMAIN_SEPARATOR","inputs":[],"outputs":[{"name":"result","type":"bytes32","internalType":"bytes32"}],"stateMutability":"view"},{"type":"function","name":"__ERC721A_init","inputs":[{"name":"name_","type":"string","internalType":"string"},{"name":"symbol_","type":"string","internalType":"string"}],"outputs":[],"stateMutability":"nonpayable"},{"type":"function","name":"__TownOwner_init","inputs":[{"name":"name","type":"string","internalType":"string"},{"name":"symbol","type":"string","internalType":"string"},{"name":"version","type":"string","internalType":"string"}],"outputs":[],"stateMutability":"nonpayable"},{"type":"function","name":"approve","inputs":[{"name":"to","type":"address","internalType":"address"},{"name":"tokenId","type":"uint256","internalType":"uint256"}],"outputs":[],"stateMutability":"payable"},{"type":"function","name":"balanceOf","inputs":[{"name":"owner","type":"address","internalType":"address"}],"outputs":[{"name":"","type":"uint256","internalType":"uint256"}],"stateMutability":"view"},{"type":"function","name":"clock","inputs":[],"outputs":[{"name":"","type":"uint48","internalType":"uint48"}],"stateMutability":"view"},{"type":"function","name":"delegate","inputs":[{"name":"delegatee","type":"address","internalType":"address"}],"outputs":[],"stateMutability":"nonpayable"},{"type":"function","name":"delegateBySig","inputs":[{"name":"delegatee","type":"address","internalType":"address"},{"name":"nonce","type":"uint256","internalType":"uint256"},{"name":"expiry","type":"uint256","internalType":"uint256"},{"name":"v","type":"uint8","internalType":"uint8"},{"name":"r","type":"bytes32","internalType":"bytes32"},{"name":"s","type":"bytes32","internalType":"bytes32"}],"outputs":[],"stateMutability":"nonpayable"},{"type":"function","name":"delegates","inputs":[{"name":"account","type":"address","internalType":"address"}],"outputs":[{"name":"","type":"address","internalType":"address"}],"stateMutability":"view"},{"type":"function","name":"eip712Domain","inputs":[],"outputs":[{"name":"fields","type":"bytes1","internalType":"bytes1"},{"name":"name","type":"string","internalType":"string"},{"name":"version","type":"string","internalType":"string"},{"name":"chainId","type":"uint256","internalType":"uint256"},{"name":"verifyingContract","type":"address","internalType":"address"},{"name":"salt","type":"bytes32","internalType":"bytes32"},{"name":"extensions","type":"uint256[]","internalType":"uint256[]"}],"stateMutability":"view"},{"type":"function","name":"getApproved","inputs":[{"name":"tokenId","type":"uint256","internalType":"uint256"}],"outputs":[{"name":"","type":"address","internalType":"address"}],"stateMutability":"view"},{"type":"function","name":"getFactory","inputs":[],"outputs":[{"name":"","type":"address","internalType":"address"}],"stateMutability":"view"},{"type":"function","name":"getPastTotalSupply","inputs":[{"name":"timepoint","type":"uint256","internalType":"uint256"}],"outputs":[{"name":"","type":"uint256","internalType":"uint256"}],"stateMutability":"view"},{"type":"function","name":"getPastVotes","inputs":[{"name":"account","type":"address","internalType":"address"},{"name":"timepoint","type":"uint256","internalType":"uint256"}],"outputs":[{"name":"","type":"uint256","internalType":"uint256"}],"stateMutability":"view"},{"type":"function","name":"getTownInfo","inputs":[{"name":"town","type":"address","internalType":"address"}],"outputs":[{"name":"","type":"tuple","internalType":"struct ITownOwnerBase.Town","components":[{"name":"name","type":"string","internalType":"string"},{"name":"uri","type":"string","internalType":"string"},{"name":"tokenId","type":"uint256","internalType":"uint256"},{"name":"networkId","type":"string","internalType":"string"},{"name":"createdAt","type":"uint256","internalType":"uint256"}]}],"stateMutability":"view"},{"type":"function","name":"getVotes","inputs":[{"name":"account","type":"address","internalType":"address"}],"outputs":[{"name":"","type":"uint256","internalType":"uint256"}],"stateMutability":"view"},{"type":"function","name":"isApprovedForAll","inputs":[{"name":"owner","type":"address","internalType":"address"},{"name":"operator","type":"address","internalType":"address"}],"outputs":[{"name":"","type":"bool","internalType":"bool"}],"stateMutability":"view"},{"type":"function","name":"mintTown","inputs":[{"name":"name","type":"string","internalType":"string"},{"name":"uri","type":"string","internalType":"string"},{"name":"networkId","type":"string","internalType":"string"},{"name":"town","type":"address","internalType":"address"}],"outputs":[{"name":"tokenId","type":"uint256","internalType":"uint256"}],"stateMutability":"nonpayable"},{"type":"function","name":"name","inputs":[],"outputs":[{"name":"","type":"string","internalType":"string"}],"stateMutability":"view"},{"type":"function","name":"nextTokenId","inputs":[],"outputs":[{"name":"","type":"uint256","internalType":"uint256"}],"stateMutability":"view"},{"type":"function","name":"nonces","inputs":[{"name":"owner","type":"address","internalType":"address"}],"outputs":[{"name":"result","type":"uint256","internalType":"uint256"}],"stateMutability":"view"},{"type":"function","name":"ownerOf","inputs":[{"name":"tokenId","type":"uint256","internalType":"uint256"}],"outputs":[{"name":"","type":"address","internalType":"address"}],"stateMutability":"view"},{"type":"function","name":"safeTransferFrom","inputs":[{"name":"from","type":"address","internalType":"address"},{"name":"to","type":"address","internalType":"address"},{"name":"tokenId","type":"uint256","internalType":"uint256"}],"outputs":[],"stateMutability":"payable"},{"type":"function","name":"safeTransferFrom","inputs":[{"name":"from","type":"address","internalType":"address"},{"name":"to","type":"address","internalType":"address"},{"name":"tokenId","type":"uint256","internalType":"uint256"},{"name":"_data","type":"bytes","internalType":"bytes"}],"outputs":[],"stateMutability":"payable"},{"type":"function","name":"setApprovalForAll","inputs":[{"name":"operator","type":"address","internalType":"address"},{"name":"approved","type":"bool","internalType":"bool"}],"outputs":[],"stateMutability":"nonpayable"},{"type":"function","name":"setFactory","inputs":[{"name":"factory","type":"address","internalType":"address"}],"outputs":[],"stateMutability":"nonpayable"},{"type":"function","name":"symbol","inputs":[],"outputs":[{"name":"","type":"string","internalType":"string"}],"stateMutability":"view"},{"type":"function","name":"tokenURI","inputs":[{"name":"tokenId","type":"uint256","internalType":"uint256"}],"outputs":[{"name":"","type":"string","internalType":"string"}],"stateMutability":"view"},{"type":"function","name":"totalSupply","inputs":[],"outputs":[{"name":"","type":"uint256","internalType":"uint256"}],"stateMutability":"view"},{"type":"function","name":"transferFrom","inputs":[{"name":"from","type":"address","internalType":"address"},{"name":"to","type":"address","internalType":"address"},{"name":"tokenId","type":"uint256","internalType":"uint256"}],"outputs":[],"stateMutability":"payable"},{"type":"function","name":"updateTownInfo","inputs":[{"name":"town","type":"address","internalType":"address"},{"name":"name","type":"string","internalType":"string"},{"name":"uri","type":"string","internalType":"string"}],"outputs":[],"stateMutability":"nonpayable"},{"type":"event","name":"Approval","inputs":[{"name":"owner","type":"address","indexed":true,"internalType":"address"},{"name":"approved","type":"address","indexed":true,"internalType":"address"},{"name":"tokenId","type":"uint256","indexed":true,"internalType":"uint256"}],"anonymous":false},{"type":"event","name":"ApprovalForAll","inputs":[{"name":"owner","type":"address","indexed":true,"internalType":"address"},{"name":"operator","type":"address","indexed":true,"internalType":"address"},{"name":"approved","type":"bool","indexed":false,"internalType":"bool"}],"anonymous":false},{"type":"event","name":"ConsecutiveTransfer","inputs":[{"name":"fromTokenId","type":"uint256","indexed":true,"internalType":"uint256"},{"name":"toTokenId","type":"uint256","indexed":false,"internalType":"uint256"},{"name":"from","type":"address","indexed":true,"internalType":"address"},{"name":"to","type":"address","indexed":true,"internalType":"address"}],"anonymous":false},{"type":"event","name":"DelegateChanged","inputs":[{"name":"delegator","type":"address","indexed":true,"internalType":"address"},{"name":"fromDelegate","type":"address","indexed":true,"internalType":"address"},{"name":"toDelegate","type":"address","indexed":true,"internalType":"address"}],"anonymous":false},{"type":"event","name":"DelegateVotesChanged","inputs":[{"name":"delegate","type":"address","indexed":true,"internalType":"address"},{"name":"previousBalance","type":"uint256","indexed":false,"internalType":"uint256"},{"name":"newBalance","type":"uint256","indexed":false,"internalType":"uint256"}],"anonymous":false},{"type":"event","name":"EIP712DomainChanged","inputs":[],"anonymous":false},{"type":"event","name":"GuardianUpdated","inputs":[{"name":"caller","type":"address","indexed":true,"internalType":"address"},{"name":"enabled","type":"bool","indexed":true,"internalType":"bool"},{"name":"cooldown","type":"uint256","indexed":false,"internalType":"uint256"},{"name":"timestamp","type":"uint256","indexed":false,"internalType":"uint256"}],"anonymous":false},{"type":"event","name":"Initialized","inputs":[{"name":"version","type":"uint32","indexed":false,"internalType":"uint32"}],"anonymous":false},{"type":"event","name":"InterfaceAdded","inputs":[{"name":"interfaceId","type":"bytes4","indexed":true,"internalType":"bytes4"}],"anonymous":false},{"type":"event","name":"InterfaceRemoved","inputs":[{"name":"interfaceId","type":"bytes4","indexed":true,"internalType":"bytes4"}],"anonymous":false},{"type":"event","name":"OwnershipTransferred","inputs":[{"name":"previousOwner","type":"address","indexed":true,"internalType":"address"},{"name":"newOwner","type":"address","indexed":true,"internalType":"address"}],"anonymous":false},{"type":"event","name":"TownOwner__SetFactory","inputs":[{"name":"factory","type":"address","indexed":false,"internalType":"address"}],"anonymous":false},{"type":"event","name":"TownOwner__UpdateTown","inputs":[{"name":"town","type":"address","indexed":true,"internalType":"address"}],"anonymous":false},{"type":"event","name":"Transfer","inputs":[{"name":"from","type":"address","indexed":true,"internalType":"address"},{"name":"to","type":"address","indexed":true,"internalType":"address"},{"name":"tokenId","type":"uint256","indexed":true,"internalType":"uint256"}],"anonymous":false},{"type":"error","name":"AlreadyDisabled","inputs":[]},{"type":"error","name":"AlreadyEnabled","inputs":[]},{"type":"error","name":"ApprovalCallerNotOwnerNorApproved","inputs":[]},{"type":"error","name":"ApprovalQueryForNonexistentToken","inputs":[]},{"type":"error","name":"BalanceQueryForZeroAddress","inputs":[]},{"type":"error","name":"GuardianEnabled","inputs":[]},{"type":"error","name":"Initializable_AlreadyInitialized","inputs":[{"name":"version","type":"uint32","internalType":"uint32"}]},{"type":"error","name":"Initializable_InInitializingState","inputs":[]},{"type":"error","name":"Initializable_NotInInitializingState","inputs":[]},{"type":"error","name":"Introspection_AlreadySupported","inputs":[]},{"type":"error","name":"Introspection_NotSupported","inputs":[]},{"type":"error","name":"InvalidAccountNonce","inputs":[{"name":"account","type":"address","internalType":"address"},{"name":"currentNonce","type":"uint256","internalType":"uint256"}]},{"type":"error","name":"MintERC2309QuantityExceedsLimit","inputs":[]},{"type":"error","name":"MintToZeroAddress","inputs":[]},{"type":"error","name":"MintZeroQuantity","inputs":[]},{"type":"error","name":"NotExternalAccount","inputs":[]},{"type":"error","name":"Ownable__NotOwner","inputs":[{"name":"account","type":"address","internalType":"address"}]},{"type":"error","name":"Ownable__ZeroAddress","inputs":[]},{"type":"error","name":"OwnerQueryForNonexistentToken","inputs":[]},{"type":"error","name":"OwnershipNotInitializedForExtraData","inputs":[]},{"type":"error","name":"TownOwner__OnlyFactoryAllowed","inputs":[]},{"type":"error","name":"TownOwner__OnlyTownOwnerAllowed","inputs":[]},{"type":"error","name":"TransferCallerNotOwnerNorApproved","inputs":[]},{"type":"error","name":"TransferFromIncorrectOwner","inputs":[]},{"type":"error","name":"TransferToNonERC721ReceiverImplementer","inputs":[]},{"type":"error","name":"TransferToZeroAddress","inputs":[]},{"type":"error","name":"URIQueryForNonexistentToken","inputs":[]},{"type":"error","name":"Validator__InvalidAddress","inputs":[]},{"type":"error","name":"Validator__InvalidStringLength","inputs":[]}],"bytecode":{"object":"0x60806040523480156200001157600080fd5b506200001c62000022565b620000ca565b7f2d0d21306acfe8e9bb163a4573e95aff6cef95dc1102c6a16d5f19eac08cc4de8054640100000000900460ff16156200006f576040516366008a2d60e01b815260040160405180910390fd5b805463ffffffff9081161015620000c757805463ffffffff191663ffffffff90811782556040519081527fe9c9b456cb2994b80aeef036cf59d26e9617df80f816a6ee5a5b4166e07e2f5c9060200160405180910390a15b50565b613e7480620000da6000396000f3fe6080604052600436106101e35760003560e01c80637ecebe0011610102578063a71fa9c211610095578063c87b56dd11610064578063c87b56dd14610542578063c9d6a54e14610562578063d2f01f1914610582578063e985e9c5146105a257600080fd5b8063a71fa9c2146104c2578063ac9207f4146104e2578063b88d4fde1461050f578063c3cda5201461052257600080fd5b806391ddadf4116100d157806391ddadf41461044157806395d89b411461046d5780639ab24eb014610482578063a22cb465146104a257600080fd5b80637ecebe00146103c457806384b0196e146103e457806388cc58e41461040c5780638e539e8c1461042157600080fd5b806342842e0e1161017a5780635c19a95c116101495780635c19a95c1461034f5780636352211e1461036f57806370a082311461038f57806375794a3c146103af57600080fd5b806342842e0e146102e75780634bf5d7e9146102fa578063587cde1e1461030f5780635bb478081461032f57600080fd5b806318160ddd116101b657806318160ddd1461028a57806323b872dd1461029f5780633644e515146102b25780633a46b1a8146102c757600080fd5b806306252808146101e857806306fdde031461021b578063081812fc1461023d578063095ea7b314610275575b600080fd5b3480156101f457600080fd5b5061020861020336600461345e565b6105d2565b6040519081526020015b60405180910390f35b34801561022757600080fd5b5061023061063c565b6040516102129190613547565b34801561024957600080fd5b5061025d61025836600461355a565b6106d7565b6040516001600160a01b039091168152602001610212565b610288610283366004613573565b6106e8565b005b34801561029657600080fd5b50610208610730565b6102886102ad36600461359d565b61073f565b3480156102be57600080fd5b5061020861094f565b3480156102d357600080fd5b506102086102e2366004613573565b610959565b6102886102f536600461359d565b61096c565b34801561030657600080fd5b5061023061098c565b34801561031b57600080fd5b5061025d61032a3660046135d9565b610996565b34801561033b57600080fd5b5061028861034a3660046135d9565b6109a1565b34801561035b57600080fd5b5061028861036a3660046135d9565b6109fe565b34801561037b57600080fd5b5061025d61038a36600461355a565b610a08565b34801561039b57600080fd5b506102086103aa3660046135d9565b610a13565b3480156103bb57600080fd5b50610208610a1e565b3480156103d057600080fd5b506102086103df3660046135d9565b610a28565b3480156103f057600080fd5b506103f9610a65565b60405161021297969594939291906135f4565b34801561041857600080fd5b5061025d610b28565b34801561042d57600080fd5b5061020861043c36600461355a565b610b49565b34801561044d57600080fd5b50610456610b54565b60405165ffffffffffff9091168152602001610212565b34801561047957600080fd5b50610230610b5e565b34801561048e57600080fd5b5061020861049d3660046135d9565b610b76565b3480156104ae57600080fd5b506102886104bd36600461368d565b610b81565b3480156104ce57600080fd5b506102886104dd3660046136c9565b610bba565b3480156104ee57600080fd5b506105026104fd3660046135d9565b610ca5565b6040516102129190613751565b61028861051d3660046137ca565b610ce0565b34801561052e57600080fd5b5061028861053d366004613846565b610d2a565b34801561054e57600080fd5b5061023061055d36600461355a565b610d38565b34801561056e57600080fd5b5061028861057d3660046138a6565b610d69565b34801561058e57600080fd5b5061028861059d3660046138e1565b610d7d565b3480156105ae57600080fd5b506105c26105bd366004613945565b610dbe565b6040519015158152602001610212565b600080600080516020613e5483398151915280549091506001600160a01b031633146106115760405163b73edbc160e01b815260040160405180910390fd5b610619610dca565b91506106288686848688610dda565b610633336001610f08565b50949350505050565b6060610646611058565b600201805461065490613978565b80601f016020809104026020016040519081016040528092919081815260200182805461068090613978565b80156106cd5780601f106106a2576101008083540402835291602001916106cd565b820191906000526020600020905b8154815290600101906020018083116106b057829003601f168201915b5050505050905090565b60006106e28261107c565b92915050565b6001600160a01b038216158015906107045750610704336110c9565b1561072257604051638043dfaf60e01b815260040160405180910390fd5b61072c8282611145565b5050565b600061073a611151565b905090565b600061074a82611170565b9050836001600160a01b0316816001600160a01b03161461077d5760405162a1148160e81b815260040160405180910390fd5b60008061078984611215565b915091506107ae81876107993390565b6001600160a01b039081169116811491141790565b6107d9576107bc8633610dbe565b6107d957604051632ce44b5f60e11b815260040160405180910390fd5b6001600160a01b03851661080057604051633a954ecd60e21b815260040160405180910390fd5b61080d868686600161123d565b801561081857600082555b610820611058565b6001600160a01b038716600090815260059190910160205260409020805460001901905561084c611058565b6001600160a01b03861660008181526005929092016020526040909120805460010190554260a01b17600160e11b17610883611058565b60008681526004919091016020526040812091909155600160e11b841690036108f957600184016108b2611058565b6000828152600491909101602052604081205490036108f7576108d3611058565b5481146108f757836108e3611058565b600083815260049190910160205260409020555b505b83856001600160a01b0316876001600160a01b03167fddf252ad1be2c89b69c2b068fc378daa952ba7f163c4a11628f55a4df523b3ef60405160405180910390a4610947868686600161127c565b505050505050565b600061073a611287565b60006109658383611291565b9392505050565b61098783838360405180602001604052806000815250610ce0565b505050565b606061073a61132f565b60006106e2826113c7565b7fa7c3be20e3a76821507555109752fad8a6630ef0362a34dcfcdfef83c99a2537546001600160a01b031633146109f2576040516365f4906560e01b81523360048201526024015b60405180910390fd5b6109fb81611404565b50565b6109fb338261146e565b60006106e282611170565b60006106e282611508565b600061073a610dca565b6001600160a01b03811660009081527f2049909b9faa0ec75b0ddea779633de6857cef26e9bbc36588098c42dd43bf0e60205260408120546106e2565b600060608082808083600080516020613dd483398151915254158015610aaa57507f3a497e775dc7c283402f0d3c39c5f0ea53870eb15ab2dddfde5a1162a84c336d54155b610aee5760405162461bcd60e51b81526020600482015260156024820152741152540dcc4c8e88155b9a5b9a5d1a585b1a5e9959605a1b60448201526064016109e9565b610af6611571565b610afe611587565b60408051600080825260208201909252600f60f81b9b939a50919850469750309650945092509050565b600061073a600080516020613e54833981519152546001600160a01b031690565b60006106e28261159d565b600061073a611636565b6060610b68611058565b600301805461065490613978565b60006106e282611641565b808015610b925750610b92336110c9565b15610bb057604051638043dfaf60e01b815260040160405180910390fd5b61072c828261166f565b600080516020613db48339815191528054600160201b900460ff161580610be457303b1515610bf3565b8154600163ffffffff90911610155b15610c1c578154604051630a8ef77f60e31b815263ffffffff90911660048201526024016109e9565b815463ffffffff191660011782558015610c4357815464ff000000001916600160201b1782555b610c4d85856116ec565b610c57858461174d565b8015610c9e57815464ff0000000019168255604051600181527fe9c9b456cb2994b80aeef036cf59d26e9617df80f816a6ee5a5b4166e07e2f5c9060200160405180910390a15b5050505050565b610cd76040518060a0016040528060608152602001606081526020016000815260200160608152602001600081525090565b6106e28261178e565b610ceb84848461073f565b6001600160a01b0383163b15610d2457610d07848484846119e5565b610d24576040516368d2bf6b60e11b815260040160405180910390fd5b50505050565b610947868686868686611ad0565b6060610d4382611bb9565b610d6057604051630a14c4b560e41b815260040160405180910390fd5b6106e282611bf5565b610d7283611ebd565b610987838383611efa565b600080516020613db483398151915254600160201b900460ff16610db457604051630ef4733760e31b815260040160405180910390fd5b61072c82826116ec565b60006109658383611fad565b6000610dd4611058565b54919050565b610de5856002611fea565b610df0846000611fea565b610dfb816001611fea565b610e048261200e565b60008381527f29fd831c424d24cd5e9cb3bb2c716700fad0c388fe4c8545bfa7e16ccd6601d66020908152604080832080546001600160a01b0319166001600160a01b038716908117909155815160a081018352898152808401899052808301889052606081018690524260808201529084527f29fd831c424d24cd5e9cb3bb2c716700fad0c388fe4c8545bfa7e16ccd6601d79092529091208151600080516020613e548339815191529291908190610ebe90826139fa565b5060208201516001820190610ed390826139fa565b506040820151600282015560608201516003820190610ef290826139fa565b5060808201518160040155905050505050505050565b6000610f12611058565b5490506000829003610f375760405163b562e8dd60e01b815260040160405180910390fd5b610f44600084838561123d565b680100000000000000018202610f58611058565b6001600160a01b038516600081815260059290920160205260409091208054929092019091554260a01b6001841460e11b1717610f93611058565b600083815260049190910160205260408120919091556001600160a01b0384169083830190839083907fddf252ad1be2c89b69c2b068fc378daa952ba7f163c4a11628f55a4df523b3ef8180a4600183015b81811461101d57808360007fddf252ad1be2c89b69c2b068fc378daa952ba7f163c4a11628f55a4df523b3ef600080a4600101610fe5565b508160000361103e57604051622e076360e81b815260040160405180910390fd5b80611047611058565b55506109879050600084838561127c565b7f234d8962d7c9a6a6604d7f98797e6ad6d7a886804f7409feb26422e27bf8125490565b600061108782611bb9565b6110a4576040516333d1c03960e21b815260040160405180910390fd5b6110ac611058565b60009283526006016020525060409020546001600160a01b031690565b60007f1f550ad653d7011dd740783aaa6c0d6cffff72baffc3774a51d0ca24f410f1066001600160a01b0383163b15801561096557506001600160a01b0383166000908152600182016020526040902054158061096557506001600160a01b038316600090815260018201602052604090205442109392505050565b61072c82826001612035565b60008061115c611058565b60010154611168611058565b540303919050565b600061117a611058565b600083815260049190910160205260408120549150600160e01b821690036111fc57806000036111f7576111ac611058565b5482106111cc57604051636f96cda160e11b815260040160405180910390fd5b6111d4611058565b6000199092016000818152600493909301602052604090922054905080156111cc575b919050565b604051636f96cda160e11b815260040160405180910390fd5b6000806000611222611058565b60009485526006016020525050604090912080549092909150565b6001600160a01b038416158015906112595750611259846110c9565b1561127757604051638043dfaf60e01b815260040160405180910390fd5b610d24565b6112778484836120ea565b600061073a61218c565b600061129b611636565b65ffffffffffff1682106112e85760405162461bcd60e51b81526020600482015260146024820152730566f7465733a20667574757265206c6f6f6b75760641b60448201526064016109e9565b61131f6112f483612200565b6001600160a01b0385166000908152600080516020613df48339815191526020526040902090612269565b6001600160e01b03169392505050565b60604361133a611636565b65ffffffffffff161461138f5760405162461bcd60e51b815260206004820152601860248201527f566f7465733a2062726f6b656e20636c6f636b206d6f6465000000000000000060448201526064016109e9565b5060408051808201909152601d81527f6d6f64653d626c6f636b6e756d6265722666726f6d3d64656661756c74000000602082015290565b6001600160a01b0390811660009081527f02aecdf47c0a4be3b198b1dc9e81083bf24a6df891d5a3d9577d604be409225160205260409020541690565b61140d8161200e565b600080516020613e5483398151915280546001600160a01b0383166001600160a01b03199091168117825560408051918252517fe794e2352e062172e145f1a3545fd25eada135200c84ca5ae2565053a1f0c5e89181900360200190a15050565b6000611479836113c7565b6001600160a01b0384811660008181527f02aecdf47c0a4be3b198b1dc9e81083bf24a6df891d5a3d9577d604be4092251602052604080822080546001600160a01b031916888616908117909155905194955093928516927f3134e8a2e6d97e929a7e54011ea5485d7d196dd5f0ba4d4ef95803e8e3fc257f9190a461098781836115038661231d565b612328565b60006001600160a01b038216611531576040516323d3ad8160e21b815260040160405180910390fd5b67ffffffffffffffff611542611058565b6005016000846001600160a01b03166001600160a01b0316815260200190815260200160002054169050919050565b6060600080516020613dd4833981519152610646565b6060600080516020613dd4833981519152610b68565b60006115a7611636565b65ffffffffffff1682106115f45760405162461bcd60e51b81526020600482015260146024820152730566f7465733a20667574757265206c6f6f6b75760641b60448201526064016109e9565b61162761160083612200565b7f02aecdf47c0a4be3b198b1dc9e81083bf24a6df891d5a3d9577d604be409225390612269565b6001600160e01b031692915050565b600061073a436124a9565b6001600160a01b0381166000908152600080516020613df48339815191526020526040812061162790612510565b80611678611058565b336000818152600792909201602090815260408084206001600160a01b03881680865290835293819020805460ff19169515159590951790945592518415158152919290917f17307eab39ab6107e8899845ad3d59bd9653f200f220920489ca2b5937696c31910160405180910390a35050565b600080516020613db483398151915254600160201b900460ff1661172357604051630ef4733760e31b815260040160405180910390fd5b6117336380ac58cd60e01b612549565b611743635b5e139f60e01b612549565b61072c8282612627565b600080516020613db483398151915254600160201b900460ff1661178457604051630ef4733760e31b815260040160405180910390fd5b61072c8282612659565b6117c06040518060a0016040528060608152602001606081526020016000815260200160608152602001600081525090565b6001600160a01b03821660009081527f29fd831c424d24cd5e9cb3bb2c716700fad0c388fe4c8545bfa7e16ccd6601d7602052604090819020815160a081019092528054600080516020613e548339815191529291908290829061182390613978565b80601f016020809104026020016040519081016040528092919081815260200182805461184f90613978565b801561189c5780601f106118715761010080835404028352916020019161189c565b820191906000526020600020905b81548152906001019060200180831161187f57829003601f168201915b505050505081526020016001820180546118b590613978565b80601f01602080910402602001604051908101604052809291908181526020018280546118e190613978565b801561192e5780601f106119035761010080835404028352916020019161192e565b820191906000526020600020905b81548152906001019060200180831161191157829003601f168201915b505050505081526020016002820154815260200160038201805461195190613978565b80601f016020809104026020016040519081016040528092919081815260200182805461197d90613978565b80156119ca5780601f1061199f576101008083540402835291602001916119ca565b820191906000526020600020905b8154815290600101906020018083116119ad57829003601f168201915b50505050508152602001600482015481525050915050919050565b604051630a85bd0160e11b81526000906001600160a01b0385169063150b7a0290611a1a903390899088908890600401613aba565b6020604051808303816000875af1925050508015611a55575060408051601f3d908101601f19168201909252611a5291810190613af7565b60015b611ab3573d808015611a83576040519150601f19603f3d011682016040523d82523d6000602084013e611a88565b606091505b508051600003611aab576040516368d2bf6b60e11b815260040160405180910390fd5b805181602001fd5b6001600160e01b031916630a85bd0160e11b149050949350505050565b83421115611b205760405162461bcd60e51b815260206004820152601860248201527f566f7465733a207369676e61747572652065787069726564000000000000000060448201526064016109e9565b604080517fe48329057bfd03d55e49b547132e39cffd9c1820ad7b9d4c5307691425d15adf60208201526001600160a01b038816918101919091526060810186905260808101859052600090611b9a90611b929060a001604051602081830303815290604052805190602001206126eb565b858585612739565b9050611ba68187612761565b611bb0818861146e565b50505050505050565b6000611bc3611058565b54821080156106e25750600160e01b611bda611058565b60008481526004919091016020526040902054161592915050565b60008181527f29fd831c424d24cd5e9cb3bb2c716700fad0c388fe4c8545bfa7e16ccd6601d66020526040902054606090600080516020613e54833981519152906001600160a01b031680611c5b57505060408051602081019091526000815292915050565b6001600160a01b0381166000908152600283016020526040808220815160a08101909252805482908290611c8e90613978565b80601f0160208091040260200160405190810160405280929190818152602001828054611cba90613978565b8015611d075780601f10611cdc57610100808354040283529160200191611d07565b820191906000526020600020905b815481529060010190602001808311611cea57829003601f168201915b50505050508152602001600182018054611d2090613978565b80601f0160208091040260200160405190810160405280929190818152602001828054611d4c90613978565b8015611d995780601f10611d6e57610100808354040283529160200191611d99565b820191906000526020600020905b815481529060010190602001808311611d7c57829003601f168201915b5050505050815260200160028201548152602001600382018054611dbc90613978565b80601f0160208091040260200160405190810160405280929190818152602001828054611de890613978565b8015611e355780601f10611e0a57610100808354040283529160200191611e35565b820191906000526020600020905b815481529060010190602001808311611e1857829003601f168201915b505050505081526020016004820154815250509050611e9481600001518260200151611e60856127d3565b611e6d85608001516127e9565b604051602001611e809493929190613b3d565b60405160208183030381529060405261287c565b604051602001611ea49190613c59565b6040516020818303038152906040529350505050919050565b33611ed3611eca8361178e565b60400151610a08565b6001600160a01b0316146109fb57604051637a0dae6760e11b815260040160405180910390fd5b611f05826002611fea565b611f10816001611fea565b6001600160a01b03831660009081527f29fd831c424d24cd5e9cb3bb2c716700fad0c388fe4c8545bfa7e16ccd6601d760205260409020600080516020613e548339815191529080611f6285826139fa565b5060018101611f7184826139fa565b506040516001600160a01b038616907f8f0dba163239097b408052045f0cd871880886da9d10d46e55824b4107e24aa590600090a25050505050565b6000611fb7611058565b6001600160a01b039384166000908152600791909101602090815260408083209490951682529290925250205460ff1690565b81518290821115610987576040516374eb20a760e01b815260040160405180910390fd5b6001600160a01b0381166109fb576040516302e47d1560e41b815260040160405180910390fd5b600061204083610a08565b9050811561207f57336001600160a01b0382161461207f576120628133611fad565b61207f576040516367d9dca160e11b815260040160405180910390fd5b83612088611058565b6000858152600691909101602052604080822080546001600160a01b0319166001600160a01b0394851617905551859287811692908516917f8c5be1e5ebec7d5bd14f71427d1e84f3dd0314c0f7b2291e5b200ac8c7c3b9259190a450505050565b6001600160a01b0383166121305761212d7f02aecdf47c0a4be3b198b1dc9e81083bf24a6df891d5a3d9577d604be40922536129e1612128846129ed565b612a56565b50505b6001600160a01b0382166121715761216e7f02aecdf47c0a4be3b198b1dc9e81083bf24a6df891d5a3d9577d604be4092253612a9f612128846129ed565b50505b61098761217d846113c7565b612186846113c7565b83612328565b60007f8b73c3c69bb8fe3d512ecc4cf759cc79239f7b179b0ffacaa9a75d522b39400f6121b7612aab565b6121bf612b11565b60408051602081019490945283019190915260608201524660808201523060a082015260c00160405160208183030381529060405280519060200120905090565b600063ffffffff8211156122655760405162461bcd60e51b815260206004820152602660248201527f53616665436173743a2076616c756520646f65736e27742066697420696e203360448201526532206269747360d01b60648201526084016109e9565b5090565b8154600090818160058111156122c657600061228484612b61565b61228e9085613cb4565b60008881526020902090915081015463ffffffff90811690871610156122b6578091506122c4565b6122c1816001613cc7565b92505b505b60006122d487878585612c49565b9050801561230f576122f9876122eb600184613cb4565b600091825260209091200190565b54600160201b90046001600160e01b0316612312565b60005b979650505050505050565b60006106e282610a13565b816001600160a01b0316836001600160a01b03161415801561234a5750600081115b15610987576001600160a01b038316156123fa576001600160a01b0383166000908152600080516020613df483398151915260205260408120819061239590612a9f612128866129ed565b6001600160e01b031691506001600160e01b03169150846001600160a01b03167fdec2bacdd2f05b59de34da9b523dff8be42e5e38e818c82fdb0bae774387a72483836040516123ef929190918252602082015260400190565b60405180910390a250505b6001600160a01b03821615610987576001600160a01b0382166000908152600080516020613df4833981519152602052604081208190612440906129e1612128866129ed565b6001600160e01b031691506001600160e01b03169150836001600160a01b03167fdec2bacdd2f05b59de34da9b523dff8be42e5e38e818c82fdb0bae774387a724838360405161249a929190918252602082015260400190565b60405180910390a25050505050565b600065ffffffffffff8211156122655760405162461bcd60e51b815260206004820152602660248201527f53616665436173743a2076616c756520646f65736e27742066697420696e203460448201526538206269747360d01b60648201526084016109e9565b805460009080156125405761252a836122eb600184613cb4565b54600160201b90046001600160e01b0316610965565b60009392505050565b6001600160e01b0319811660009081527fbc7de460bcfb6afd0c415c8c610d408bd914b18d7d0feec0da9e25348087a5c4602052604090205460ff1615156001146125d6576001600160e01b0319811660009081527fbc7de460bcfb6afd0c415c8c610d408bd914b18d7d0feec0da9e25348087a5c460205260409020805460ff191660011790556125ef565b604051637967f77d60e11b815260040160405180910390fd5b6040516001600160e01b03198216907f78f84e5b1c5c05be2b5ad3800781dd404d6d6c6302bc755c0fe20f58a33a7f2290600090a250565b6000612631611058565b90506002810161264184826139fa565b506003810161265083826139fa565b50600090555050565b7f3a497e775dc7c283402f0d3c39c5f0ea53870eb15ab2dddfde5a1162a84c336e61268483826139fa565b507f3a497e775dc7c283402f0d3c39c5f0ea53870eb15ab2dddfde5a1162a84c336f6126b082826139fa565b50506000600080516020613dd48339815191528190557f3a497e775dc7c283402f0d3c39c5f0ea53870eb15ab2dddfde5a1162a84c336d5550565b60006106e26126f8611287565b8360405161190160f01b6020820152602281018390526042810182905260009060620160405160208183030381529060405280519060200120905092915050565b600080600061274a87878787612ca7565b9150915061275781612d6b565b5095945050505050565b6001600160a01b03821660009081527f2049909b9faa0ec75b0ddea779633de6857cef26e9bbc36588098c42dd43bf0e60205260409020805460018101909155818114610987576040516301d4b62360e61b81526001600160a01b0384166004820152602481018290526044016109e9565b60606106e26001600160a01b0383166014612eb5565b606060006127f683613051565b600101905060008167ffffffffffffffff8111156128165761281661339b565b6040519080825280601f01601f191660200182016040528015612840576020820181803683370190505b5090508181016020015b600019016f181899199a1a9b1b9c1cb0b131b232b360811b600a86061a8153600a850494508461284a57509392505050565b6060815160000361289b57505060408051602081019091526000815290565b6000604051806060016040528060408152602001613e1460409139905060006003845160026128ca9190613cc7565b6128d49190613cf0565b6128df906004613d12565b905060006128ee826020613cc7565b67ffffffffffffffff8111156129065761290661339b565b6040519080825280601f01601f191660200182016040528015612930576020820181803683370190505b509050818152600183018586518101602084015b8183101561299c576003830192508251603f8160121c168501518253600182019150603f81600c1c168501518253600182019150603f8160061c168501518253600182019150603f8116850151825350600101612944565b6003895106600181146129b657600281146129c7576129d3565b613d3d60f01b6001198301526129d3565b603d60f81b6000198301525b509398975050505050505050565b60006109658284613d29565b60006001600160e01b038211156122655760405162461bcd60e51b815260206004820152602760248201527f53616665436173743a2076616c756520646f65736e27742066697420696e20326044820152663234206269747360c81b60648201526084016109e9565b600080612a92612a74612a67611636565b65ffffffffffff16612200565b612a8a612a8088612510565b868863ffffffff16565b879190613129565b915091505b935093915050565b60006109658284613d50565b600080612ab6611571565b805190915015612acd578051602090910120919050565b600080516020613dd4833981519152548015612ae95792915050565b7fc5d2460186f7233c927e7db2dcc703c0e500b653ca82273b7bfad8045d85a4709250505090565b600080612b1c611587565b805190915015612b33578051602090910120919050565b7f3a497e775dc7c283402f0d3c39c5f0ea53870eb15ab2dddfde5a1162a84c336d548015612ae95792915050565b600081600003612b7357506000919050565b60006001612b8084613137565b901c6001901b90506001818481612b9957612b99613cda565b048201901c90506001818481612bb157612bb1613cda565b048201901c90506001818481612bc957612bc9613cda565b048201901c90506001818481612be157612be1613cda565b048201901c90506001818481612bf957612bf9613cda565b048201901c90506001818481612c1157612c11613cda565b048201901c90506001818481612c2957612c29613cda565b048201901c905061096581828581612c4357612c43613cda565b046131cb565b60005b81831015612c9f576000612c6084846131e1565b60008781526020902090915063ffffffff86169082015463ffffffff161115612c8b57809250612c99565b612c96816001613cc7565b93505b50612c4c565b509392505050565b6000807f7fffffffffffffffffffffffffffffff5d576e7357a4501ddfe92f46681b20a0831115612cde5750600090506003612d62565b6040805160008082526020820180845289905260ff881692820192909252606081018690526080810185905260019060a0016020604051602081039080840390855afa158015612d32573d6000803e3d6000fd5b5050604051601f1901519150506001600160a01b038116612d5b57600060019250925050612d62565b9150600090505b94509492505050565b6000816004811115612d7f57612d7f613d70565b03612d875750565b6001816004811115612d9b57612d9b613d70565b03612de85760405162461bcd60e51b815260206004820152601860248201527f45434453413a20696e76616c6964207369676e6174757265000000000000000060448201526064016109e9565b6002816004811115612dfc57612dfc613d70565b03612e495760405162461bcd60e51b815260206004820152601f60248201527f45434453413a20696e76616c6964207369676e6174757265206c656e6774680060448201526064016109e9565b6003816004811115612e5d57612e5d613d70565b036109fb5760405162461bcd60e51b815260206004820152602260248201527f45434453413a20696e76616c6964207369676e6174757265202773272076616c604482015261756560f01b60648201526084016109e9565b60606000612ec4836002613d12565b612ecf906002613cc7565b67ffffffffffffffff811115612ee757612ee761339b565b6040519080825280601f01601f191660200182016040528015612f11576020820181803683370190505b509050600360fc1b81600081518110612f2c57612f2c613d86565b60200101906001600160f81b031916908160001a905350600f60fb1b81600181518110612f5b57612f5b613d86565b60200101906001600160f81b031916908160001a9053506000612f7f846002613d12565b612f8a906001613cc7565b90505b6001811115613002576f181899199a1a9b1b9c1cb0b131b232b360811b85600f1660108110612fbe57612fbe613d86565b1a60f81b828281518110612fd457612fd4613d86565b60200101906001600160f81b031916908160001a90535060049490941c93612ffb81613d9c565b9050612f8d565b5083156109655760405162461bcd60e51b815260206004820181905260248201527f537472696e67733a20686578206c656e67746820696e73756666696369656e7460448201526064016109e9565b60008072184f03e93ff9f4daa797ed6e38ed64bf6a1f0160401b83106130905772184f03e93ff9f4daa797ed6e38ed64bf6a1f0160401b830492506040015b6d04ee2d6d415b85acef810000000083106130bc576d04ee2d6d415b85acef8100000000830492506020015b662386f26fc1000083106130da57662386f26fc10000830492506010015b6305f5e10083106130f2576305f5e100830492506008015b612710831061310657612710830492506004015b60648310613118576064830492506002015b600a83106106e25760010192915050565b600080612a928585856131fc565b600080608083901c1561314c57608092831c92015b604083901c1561315e57604092831c92015b602083901c1561317057602092831c92015b601083901c1561318257601092831c92015b600883901c1561319457600892831c92015b600483901c156131a657600492831c92015b600283901c156131b857600292831c92015b600183901c156106e25760010192915050565b60008183106131da5781610965565b5090919050565b60006131f06002848418613cf0565b61096590848416613cc7565b82546000908190801561334257600061321a876122eb600185613cb4565b60408051808201909152905463ffffffff808216808452600160201b9092046001600160e01b03166020840152919250908716101561329b5760405162461bcd60e51b815260206004820152601b60248201527f436865636b706f696e743a2064656372656173696e67206b657973000000000060448201526064016109e9565b805163ffffffff8088169116036132e357846132bc886122eb600186613cb4565b80546001600160e01b0392909216600160201b0263ffffffff909216919091179055613332565b6040805180820190915263ffffffff80881682526001600160e01b0380881660208085019182528b54600181018d5560008d81529190912094519151909216600160201b029216919091179101555b602001519250839150612a979050565b50506040805180820190915263ffffffff80851682526001600160e01b0380851660208085019182528854600181018a5560008a815291822095519251909316600160201b029190931617920191909155905081612a97565b634e487b7160e01b600052604160045260246000fd5b600067ffffffffffffffff808411156133cc576133cc61339b565b604051601f8501601f19908116603f011681019082821181831017156133f4576133f461339b565b8160405280935085815286868601111561340d57600080fd5b858560208301376000602087830101525050509392505050565b600082601f83011261343857600080fd5b610965838335602085016133b1565b80356001600160a01b03811681146111f757600080fd5b6000806000806080858703121561347457600080fd5b843567ffffffffffffffff8082111561348c57600080fd5b61349888838901613427565b955060208701359150808211156134ae57600080fd5b6134ba88838901613427565b945060408701359150808211156134d057600080fd5b506134dd87828801613427565b9250506134ec60608601613447565b905092959194509250565b60005b838110156135125781810151838201526020016134fa565b50506000910152565b600081518084526135338160208601602086016134f7565b601f01601f19169290920160200192915050565b602081526000610965602083018461351b565b60006020828403121561356c57600080fd5b5035919050565b6000806040838503121561358657600080fd5b61358f83613447565b946020939093013593505050565b6000806000606084860312156135b257600080fd5b6135bb84613447565b92506135c960208501613447565b9150604084013590509250925092565b6000602082840312156135eb57600080fd5b61096582613447565b60ff60f81b881681526000602060e0602084015261361560e084018a61351b565b8381036040850152613627818a61351b565b606085018990526001600160a01b038816608086015260a0850187905284810360c08601528551808252602080880193509091019060005b8181101561367b5783518352928401929184019160010161365f565b50909c9b505050505050505050505050565b600080604083850312156136a057600080fd5b6136a983613447565b9150602083013580151581146136be57600080fd5b809150509250929050565b6000806000606084860312156136de57600080fd5b833567ffffffffffffffff808211156136f657600080fd5b61370287838801613427565b9450602086013591508082111561371857600080fd5b61372487838801613427565b9350604086013591508082111561373a57600080fd5b5061374786828701613427565b9150509250925092565b602081526000825160a0602084015261376d60c084018261351b565b90506020840151601f198085840301604086015261378b838361351b565b9250604086015160608601526060860151915080858403016080860152506137b3828261351b565b915050608084015160a08401528091505092915050565b600080600080608085870312156137e057600080fd5b6137e985613447565b93506137f760208601613447565b925060408501359150606085013567ffffffffffffffff81111561381a57600080fd5b8501601f8101871361382b57600080fd5b61383a878235602084016133b1565b91505092959194509250565b60008060008060008060c0878903121561385f57600080fd5b61386887613447565b95506020870135945060408701359350606087013560ff8116811461388c57600080fd5b9598949750929560808101359460a0909101359350915050565b6000806000606084860312156138bb57600080fd5b6138c484613447565b9250602084013567ffffffffffffffff8082111561371857600080fd5b600080604083850312156138f457600080fd5b823567ffffffffffffffff8082111561390c57600080fd5b61391886838701613427565b9350602085013591508082111561392e57600080fd5b5061393b85828601613427565b9150509250929050565b6000806040838503121561395857600080fd5b61396183613447565b915061396f60208401613447565b90509250929050565b600181811c9082168061398c57607f821691505b6020821081036139ac57634e487b7160e01b600052602260045260246000fd5b50919050565b601f821115610987576000816000526020600020601f850160051c810160208610156139db5750805b601f850160051c820191505b81811015610947578281556001016139e7565b815167ffffffffffffffff811115613a1457613a1461339b565b613a2881613a228454613978565b846139b2565b602080601f831160018114613a5d5760008415613a455750858301515b600019600386901b1c1916600185901b178555610947565b600085815260208120601f198616915b82811015613a8c57888601518255948401946001909101908401613a6d565b5085821015613aaa5787850151600019600388901b60f8161c191681555b5050505050600190811b01905550565b6001600160a01b0385811682528416602082015260408101839052608060608201819052600090613aed9083018461351b565b9695505050505050565b600060208284031215613b0957600080fd5b81516001600160e01b03198116811461096557600080fd5b60008151613b338185602086016134f7565b9290920192915050565b683d913730b6b2911d1160b91b81528451600090613b62816009850160208a016134f7565b6a11161134b6b0b3b2911d1160a91b6009918401918201528551613b8d816014840160208a016134f7565b7f222c2265787465726e616c5f75726c223a2268747470733a2f2f746f776e732e6014929091019182015263636f6d2f60e01b60348201528451613bd88160388401602089016134f7565b7f222c2261747472696275746573223a5b7b2274726169745f74797065223a2243603892909101918201527f726561746564222c22646973706c61795f74797065223a202264617465222c20605882015267113b30b63ab2911d60c11b6078820152612312613c4a6080830186613b21565b627d5d7d60e81b815260030190565b7f646174613a6170706c69636174696f6e2f6a736f6e3b6261736536342c000000815260008251613c9181601d8501602087016134f7565b91909101601d0192915050565b634e487b7160e01b600052601160045260246000fd5b818103818111156106e2576106e2613c9e565b808201808211156106e2576106e2613c9e565b634e487b7160e01b600052601260045260246000fd5b600082613d0d57634e487b7160e01b600052601260045260246000fd5b500490565b80820281158282048414176106e2576106e2613c9e565b6001600160e01b03818116838216019080821115613d4957613d49613c9e565b5092915050565b6001600160e01b03828116828216039080821115613d4957613d49613c9e565b634e487b7160e01b600052602160045260246000fd5b634e487b7160e01b600052603260045260246000fd5b600081613dab57613dab613c9e565b50600019019056fe2d0d21306acfe8e9bb163a4573e95aff6cef95dc1102c6a16d5f19eac08cc4de3a497e775dc7c283402f0d3c39c5f0ea53870eb15ab2dddfde5a1162a84c336c02aecdf47c0a4be3b198b1dc9e81083bf24a6df891d5a3d9577d604be40922524142434445464748494a4b4c4d4e4f505152535455565758595a6162636465666768696a6b6c6d6e6f707172737475767778797a303132333435363738392b2f29fd831c424d24cd5e9cb3bb2c716700fad0c388fe4c8545bfa7e16ccd6601d5","linkReferences":{}},"methodIdentifiers":{"CLOCK_MODE()":"4bf5d7e9","DOMAIN_SEPARATOR()":"3644e515","__ERC721A_init(string,string)":"d2f01f19","__TownOwner_init(string,string,string)":"a71fa9c2","approve(address,uint256)":"095ea7b3","balanceOf(address)":"70a08231","clock()":"91ddadf4","delegate(address)":"5c19a95c","delegateBySig(address,uint256,uint256,uint8,bytes32,bytes32)":"c3cda520","delegates(address)":"587cde1e","eip712Domain()":"84b0196e","getApproved(uint256)":"081812fc","getFactory()":"88cc58e4","getPastTotalSupply(uint256)":"8e539e8c","getPastVotes(address,uint256)":"3a46b1a8","getTownInfo(address)":"ac9207f4","getVotes(address)":"9ab24eb0","isApprovedForAll(address,address)":"e985e9c5","mintTown(string,string,string,address)":"06252808","name()":"06fdde03","nextTokenId()":"75794a3c","nonces(address)":"7ecebe00","ownerOf(uint256)":"6352211e","safeTransferFrom(address,address,uint256)":"42842e0e","safeTransferFrom(address,address,uint256,bytes)":"b88d4fde","setApprovalForAll(address,bool)":"a22cb465","setFactory(address)":"5bb47808","symbol()":"95d89b41","tokenURI(uint256)":"c87b56dd","totalSupply()":"18160ddd","transferFrom(address,address,uint256)":"23b872dd","updateTownInfo(address,string,string)":"c9d6a54e"},"id":184}