{
  "abi": [
    {
      "inputs": [],
      "name": "AlreadyDisabled",
      "type": "error"
    },
    {
      "inputs": [],
      "name": "AlreadyEnabled",
      "type": "error"
    },
    {
      "inputs": [],
      "name": "ApprovalCallerNotOwnerNorApproved",
      "type": "error"
    },
    {
      "inputs": [],
      "name": "ApprovalQueryForNonexistentToken",
      "type": "error"
    },
    {
      "inputs": [],
      "name": "BalanceQueryForZeroAddress",
      "type": "error"
    },
    {
      "inputs": [],
      "name": "GuardianEnabled",
      "type": "error"
    },
    {
      "inputs": [],
      "name": "Initializable_InInitializingState",
      "type": "error"
    },
    {
      "inputs": [],
      "name": "Initializable_NotInInitializingState",
      "type": "error"
    },
    {
      "inputs": [],
      "name": "Introspection_AlreadySupported",
      "type": "error"
    },
    {
      "inputs": [],
      "name": "Introspection_NotSupported",
      "type": "error"
    },
    {
      "inputs": [],
      "name": "MintERC2309QuantityExceedsLimit",
      "type": "error"
    },
    {
      "inputs": [],
      "name": "MintToZeroAddress",
      "type": "error"
    },
    {
      "inputs": [],
      "name": "MintZeroQuantity",
      "type": "error"
    },
    {
      "inputs": [],
      "name": "NotExternalAccount",
      "type": "error"
    },
    {
      "inputs": [
        {
          "internalType": "address",
          "name": "account",
          "type": "address"
        }
      ],
      "name": "Ownable__NotOwner",
      "type": "error"
    },
    {
      "inputs": [],
      "name": "Ownable__ZeroAddress",
      "type": "error"
    },
    {
      "inputs": [],
      "name": "OwnerQueryForNonexistentToken",
      "type": "error"
    },
    {
      "inputs": [],
      "name": "OwnershipNotInitializedForExtraData",
      "type": "error"
    },
    {
      "inputs": [],
      "name": "TownOwner__OnlyFactoryAllowed",
      "type": "error"
    },
    {
      "inputs": [],
      "name": "TownOwner__OnlyTownOwnerAllowed",
      "type": "error"
    },
    {
      "inputs": [],
      "name": "TransferCallerNotOwnerNorApproved",
      "type": "error"
    },
    {
      "inputs": [],
      "name": "TransferFromIncorrectOwner",
      "type": "error"
    },
    {
      "inputs": [],
      "name": "TransferToNonERC721ReceiverImplementer",
      "type": "error"
    },
    {
      "inputs": [],
      "name": "TransferToZeroAddress",
      "type": "error"
    },
    {
      "inputs": [],
      "name": "URIQueryForNonexistentToken",
      "type": "error"
    },
    {
      "inputs": [],
      "name": "Validator__InvalidAddress",
      "type": "error"
    },
    {
      "inputs": [],
      "name": "Validator__InvalidStringLength",
      "type": "error"
    },
    {
      "anonymous": false,
      "inputs": [
        {
          "indexed": true,
          "internalType": "address",
          "name": "owner",
          "type": "address"
        },
        {
          "indexed": true,
          "internalType": "address",
          "name": "approved",
          "type": "address"
        },
        {
          "indexed": true,
          "internalType": "uint256",
          "name": "tokenId",
          "type": "uint256"
        }
      ],
      "name": "Approval",
      "type": "event"
    },
    {
      "anonymous": false,
      "inputs": [
        {
          "indexed": true,
          "internalType": "address",
          "name": "owner",
          "type": "address"
        },
        {
          "indexed": true,
          "internalType": "address",
          "name": "operator",
          "type": "address"
        },
        {
          "indexed": false,
          "internalType": "bool",
          "name": "approved",
          "type": "bool"
        }
      ],
      "name": "ApprovalForAll",
      "type": "event"
    },
    {
      "anonymous": false,
      "inputs": [
        {
          "indexed": true,
          "internalType": "uint256",
          "name": "fromTokenId",
          "type": "uint256"
        },
        {
          "indexed": false,
          "internalType": "uint256",
          "name": "toTokenId",
          "type": "uint256"
        },
        {
          "indexed": true,
          "internalType": "address",
          "name": "from",
          "type": "address"
        },
        {
          "indexed": true,
          "internalType": "address",
          "name": "to",
          "type": "address"
        }
      ],
      "name": "ConsecutiveTransfer",
      "type": "event"
    },
    {
      "anonymous": false,
      "inputs": [
        {
          "indexed": true,
          "internalType": "address",
          "name": "caller",
          "type": "address"
        },
        {
          "indexed": true,
          "internalType": "bool",
          "name": "enabled",
          "type": "bool"
        },
        {
          "indexed": false,
          "internalType": "uint256",
          "name": "cooldown",
          "type": "uint256"
        },
        {
          "indexed": false,
          "internalType": "uint256",
          "name": "timestamp",
          "type": "uint256"
        }
      ],
      "name": "GuardianUpdated",
      "type": "event"
    },
    {
      "anonymous": false,
      "inputs": [
        {
          "indexed": false,
          "internalType": "uint32",
          "name": "version",
          "type": "uint32"
        }
      ],
      "name": "Initialized",
      "type": "event"
    },
    {
      "anonymous": false,
      "inputs": [
        {
          "indexed": true,
          "internalType": "bytes4",
          "name": "interfaceId",
          "type": "bytes4"
        }
      ],
      "name": "InterfaceAdded",
      "type": "event"
    },
    {
      "anonymous": false,
      "inputs": [
        {
          "indexed": true,
          "internalType": "bytes4",
          "name": "interfaceId",
          "type": "bytes4"
        }
      ],
      "name": "InterfaceRemoved",
      "type": "event"
    },
    {
      "anonymous": false,
      "inputs": [
        {
          "indexed": true,
          "internalType": "address",
          "name": "previousOwner",
          "type": "address"
        },
        {
          "indexed": true,
          "internalType": "address",
          "name": "newOwner",
          "type": "address"
        }
      ],
      "name": "OwnershipTransferred",
      "type": "event"
    },
    {
      "anonymous": false,
      "inputs": [
        {
          "indexed": false,
          "internalType": "address",
          "name": "factory",
          "type": "address"
        }
      ],
      "name": "TownOwner__SetFactory",
      "type": "event"
    },
    {
      "anonymous": false,
      "inputs": [
        {
          "indexed": false,
          "internalType": "address",
          "name": "town",
          "type": "address"
        }
      ],
      "name": "TownOwner__UpdateTown",
      "type": "event"
    },
    {
      "anonymous": false,
      "inputs": [
        {
          "indexed": true,
          "internalType": "address",
          "name": "from",
          "type": "address"
        },
        {
          "indexed": true,
          "internalType": "address",
          "name": "to",
          "type": "address"
        },
        {
          "indexed": true,
          "internalType": "uint256",
          "name": "tokenId",
          "type": "uint256"
        }
      ],
      "name": "Transfer",
      "type": "event"
    },
    {
      "inputs": [
        {
          "internalType": "string",
          "name": "name_",
          "type": "string"
        },
        {
          "internalType": "string",
          "name": "symbol_",
          "type": "string"
        }
      ],
      "name": "__ERC721A_init",
      "outputs": [],
      "stateMutability": "nonpayable",
      "type": "function"
    },
    {
      "inputs": [
        {
          "internalType": "address",
          "name": "to",
          "type": "address"
        },
        {
          "internalType": "uint256",
          "name": "tokenId",
          "type": "uint256"
        }
      ],
      "name": "approve",
      "outputs": [],
      "stateMutability": "payable",
      "type": "function"
    },
    {
      "inputs": [
        {
          "internalType": "address",
          "name": "owner",
          "type": "address"
        }
      ],
      "name": "balanceOf",
      "outputs": [
        {
          "internalType": "uint256",
          "name": "",
          "type": "uint256"
        }
      ],
      "stateMutability": "view",
      "type": "function"
    },
    {
      "inputs": [
        {
          "internalType": "uint256",
          "name": "tokenId",
          "type": "uint256"
        }
      ],
      "name": "getApproved",
      "outputs": [
        {
          "internalType": "address",
          "name": "",
          "type": "address"
        }
      ],
      "stateMutability": "view",
      "type": "function"
    },
    {
      "inputs": [],
      "name": "getFactory",
      "outputs": [
        {
          "internalType": "address",
          "name": "",
          "type": "address"
        }
      ],
      "stateMutability": "view",
      "type": "function"
    },
    {
      "inputs": [
        {
          "internalType": "address",
          "name": "town",
          "type": "address"
        }
      ],
      "name": "getTownInfo",
      "outputs": [
        {
          "components": [
            {
              "internalType": "string",
              "name": "name",
              "type": "string"
            },
            {
              "internalType": "string",
              "name": "uri",
              "type": "string"
            },
            {
              "internalType": "uint256",
              "name": "tokenId",
              "type": "uint256"
            },
            {
              "internalType": "string",
              "name": "networkId",
              "type": "string"
            },
            {
              "internalType": "uint256",
              "name": "createdAt",
              "type": "uint256"
            }
          ],
          "internalType": "struct ITownOwnerBase.Town",
          "name": "",
          "type": "tuple"
        }
      ],
      "stateMutability": "view",
      "type": "function"
    },
    {
      "inputs": [
        {
          "internalType": "address",
          "name": "owner",
          "type": "address"
        },
        {
          "internalType": "address",
          "name": "operator",
          "type": "address"
        }
      ],
      "name": "isApprovedForAll",
      "outputs": [
        {
          "internalType": "bool",
          "name": "",
          "type": "bool"
        }
      ],
      "stateMutability": "view",
      "type": "function"
    },
    {
      "inputs": [
        {
          "internalType": "string",
          "name": "name",
          "type": "string"
        },
        {
          "internalType": "string",
          "name": "uri",
          "type": "string"
        },
        {
          "internalType": "string",
          "name": "networkId",
          "type": "string"
        },
        {
          "internalType": "address",
          "name": "town",
          "type": "address"
        }
      ],
      "name": "mintTown",
      "outputs": [
        {
          "internalType": "uint256",
          "name": "tokenId",
          "type": "uint256"
        }
      ],
      "stateMutability": "nonpayable",
      "type": "function"
    },
    {
      "inputs": [],
      "name": "name",
      "outputs": [
        {
          "internalType": "string",
          "name": "",
          "type": "string"
        }
      ],
      "stateMutability": "view",
      "type": "function"
    },
    {
      "inputs": [],
      "name": "nextTokenId",
      "outputs": [
        {
          "internalType": "uint256",
          "name": "",
          "type": "uint256"
        }
      ],
      "stateMutability": "view",
      "type": "function"
    },
    {
      "inputs": [
        {
          "internalType": "uint256",
          "name": "tokenId",
          "type": "uint256"
        }
      ],
      "name": "ownerOf",
      "outputs": [
        {
          "internalType": "address",
          "name": "",
          "type": "address"
        }
      ],
      "stateMutability": "view",
      "type": "function"
    },
    {
      "inputs": [
        {
          "internalType": "address",
          "name": "from",
          "type": "address"
        },
        {
          "internalType": "address",
          "name": "to",
          "type": "address"
        },
        {
          "internalType": "uint256",
          "name": "tokenId",
          "type": "uint256"
        }
      ],
      "name": "safeTransferFrom",
      "outputs": [],
      "stateMutability": "payable",
      "type": "function"
    },
    {
      "inputs": [
        {
          "internalType": "address",
          "name": "from",
          "type": "address"
        },
        {
          "internalType": "address",
          "name": "to",
          "type": "address"
        },
        {
          "internalType": "uint256",
          "name": "tokenId",
          "type": "uint256"
        },
        {
          "internalType": "bytes",
          "name": "_data",
          "type": "bytes"
        }
      ],
      "name": "safeTransferFrom",
      "outputs": [],
      "stateMutability": "payable",
      "type": "function"
    },
    {
      "inputs": [
        {
          "internalType": "address",
          "name": "operator",
          "type": "address"
        },
        {
          "internalType": "bool",
          "name": "approved",
          "type": "bool"
        }
      ],
      "name": "setApprovalForAll",
      "outputs": [],
      "stateMutability": "nonpayable",
      "type": "function"
    },
    {
      "inputs": [
        {
          "internalType": "address",
          "name": "factory",
          "type": "address"
        }
      ],
      "name": "setFactory",
      "outputs": [],
      "stateMutability": "nonpayable",
      "type": "function"
    },
    {
      "inputs": [],
      "name": "symbol",
      "outputs": [
        {
          "internalType": "string",
          "name": "",
          "type": "string"
        }
      ],
      "stateMutability": "view",
      "type": "function"
    },
    {
      "inputs": [
        {
          "internalType": "uint256",
          "name": "tokenId",
          "type": "uint256"
        }
      ],
      "name": "tokenURI",
      "outputs": [
        {
          "internalType": "string",
          "name": "",
          "type": "string"
        }
      ],
      "stateMutability": "view",
      "type": "function"
    },
    {
      "inputs": [],
      "name": "totalSupply",
      "outputs": [
        {
          "internalType": "uint256",
          "name": "",
          "type": "uint256"
        }
      ],
      "stateMutability": "view",
      "type": "function"
    },
    {
      "inputs": [
        {
          "internalType": "address",
          "name": "from",
          "type": "address"
        },
        {
          "internalType": "address",
          "name": "to",
          "type": "address"
        },
        {
          "internalType": "uint256",
          "name": "tokenId",
          "type": "uint256"
        }
      ],
      "name": "transferFrom",
      "outputs": [],
      "stateMutability": "payable",
      "type": "function"
    },
    {
      "inputs": [
        {
          "internalType": "address",
          "name": "town",
          "type": "address"
        },
        {
          "internalType": "string",
          "name": "name",
          "type": "string"
        },
        {
          "internalType": "string",
          "name": "uri",
          "type": "string"
        }
      ],
      "name": "updateTownInfo",
      "outputs": [],
      "stateMutability": "nonpayable",
      "type": "function"
    }
  ],
  "bytecode": {
    "object": "0x608060405234801561001057600080fd5b5061001961001e565b6100c4565b7f2d0d21306acfe8e9bb163a4573e95aff6cef95dc1102c6a16d5f19eac08cc4de8054640100000000900460ff161561006a576040516366008a2d60e01b815260040160405180910390fd5b805463ffffffff90811610156100c157805463ffffffff191663ffffffff90811782556040519081527fe9c9b456cb2994b80aeef036cf59d26e9617df80f816a6ee5a5b4166e07e2f5c9060200160405180910390a15b50565b611df6806100d36000396000f3fe60806040526004361061011f5760003560e01c806375794a3c116100a0578063b88d4fde11610064578063b88d4fde146102ed578063c87b56dd14610300578063c9d6a54e14610320578063d2f01f1914610340578063e985e9c51461036057600080fd5b806375794a3c1461026157806388cc58e41461027657806395d89b411461028b578063a22cb465146102a0578063ac9207f4146102c057600080fd5b806323b872dd116100e757806323b872dd146101db57806342842e0e146101ee5780635bb47808146102015780636352211e1461022157806370a082311461024157600080fd5b8063062528081461012457806306fdde0314610157578063081812fc14610179578063095ea7b3146101b157806318160ddd146101c6575b600080fd5b34801561013057600080fd5b5061014461013f36600461182d565b610390565b6040519081526020015b60405180910390f35b34801561016357600080fd5b5061016c6103fa565b60405161014e9190611916565b34801561018557600080fd5b50610199610194366004611929565b610495565b6040516001600160a01b03909116815260200161014e565b6101c46101bf366004611942565b6104a6565b005b3480156101d257600080fd5b506101446104ee565b6101c46101e936600461196c565b6104fd565b6101c46101fc36600461196c565b610701565b34801561020d57600080fd5b506101c461021c3660046119a8565b610721565b34801561022d57600080fd5b5061019961023c366004611929565b61077d565b34801561024d57600080fd5b5061014461025c3660046119a8565b610788565b34801561026d57600080fd5b50610144610793565b34801561028257600080fd5b5061019961079d565b34801561029757600080fd5b5061016c6107be565b3480156102ac57600080fd5b506101c46102bb3660046119c3565b6107d6565b3480156102cc57600080fd5b506102e06102db3660046119a8565b61080f565b60405161014e91906119ff565b6101c46102fb366004611a78565b61084a565b34801561030c57600080fd5b5061016c61031b366004611929565b610894565b34801561032c57600080fd5b506101c461033b366004611af4565b610925565b34801561034c57600080fd5b506101c461035b366004611b68565b610939565b34801561036c57600080fd5b5061038061037b366004611bcc565b61098d565b604051901515815260200161014e565b600080600080516020611dd683398151915280549091506001600160a01b031633146103cf5760405163b73edbc160e01b815260040160405180910390fd5b6103d7610999565b91506103e686868486886109a9565b6103f1336001610a9c565b50949350505050565b6060610404610ab6565b600201805461041290611bff565b80601f016020809104026020016040519081016040528092919081815260200182805461043e90611bff565b801561048b5780601f106104605761010080835404028352916020019161048b565b820191906000526020600020905b81548152906001019060200180831161046e57829003601f168201915b5050505050905090565b60006104a082610ada565b92915050565b6001600160a01b038216158015906104c257506104c233610b27565b156104e057604051638043dfaf60e01b815260040160405180910390fd5b6104ea8282610ba3565b5050565b60006104f8610baf565b905090565b600061050882610bce565b9050836001600160a01b0316816001600160a01b03161461053b5760405162a1148160e81b815260040160405180910390fd5b60008061054784610c73565b9150915061056c81876105573390565b6001600160a01b039081169116811491141790565b6105975761057a863361098d565b61059757604051632ce44b5f60e11b815260040160405180910390fd5b6001600160a01b0385166105be57604051633a954ecd60e21b815260040160405180910390fd5b6105cb8686866001610c9b565b80156105d657600082555b6105de610ab6565b6001600160a01b038716600090815260059190910160205260409020805460001901905561060a610ab6565b6001600160a01b03861660008181526005929092016020526040909120805460010190554260a01b17600160e11b17610641610ab6565b60008681526004919091016020526040812091909155600160e11b841690036106b75760018401610670610ab6565b6000828152600491909101602052604081205490036106b557610691610ab6565b5481146106b557836106a1610ab6565b600083815260049190910160205260409020555b505b83856001600160a01b0316876001600160a01b03167fddf252ad1be2c89b69c2b068fc378daa952ba7f163c4a11628f55a4df523b3ef60405160405180910390a45b505050505050565b61071c8383836040518060200160405280600081525061084a565b505050565b7fa7c3be20e3a76821507555109752fad8a6630ef0362a34dcfcdfef83c99a2537546001600160a01b03163314610771576040516365f4906560e01b815233600482015260240160405180910390fd5b61077a81610cda565b50565b60006104a082610bce565b60006104a082610d44565b60006104f8610999565b60006104f8600080516020611dd6833981519152546001600160a01b031690565b60606107c8610ab6565b600301805461041290611bff565b8080156107e757506107e733610b27565b1561080557604051638043dfaf60e01b815260040160405180910390fd5b6104ea8282610dad565b6108416040518060a0016040528060608152602001606081526020016000815260200160608152602001600081525090565b6104a082610e2a565b6108558484846104fd565b6001600160a01b0383163b1561088e5761087184848484611081565b61088e576040516368d2bf6b60e11b815260040160405180910390fd5b50505050565b606061089f8261116c565b6108bc57604051630a14c4b560e41b815260040160405180910390fd5b60006108d360408051602081019091526000815290565b905080516000036108f3576040518060200160405280600081525061091e565b806108fd846111a8565b60405160200161090e929190611c39565b6040516020818303038152906040525b9392505050565b61092e836111ec565b61071c838383611229565b7f2d0d21306acfe8e9bb163a4573e95aff6cef95dc1102c6a16d5f19eac08cc4de54640100000000900460ff1661098357604051630ef4733760e31b815260040160405180910390fd5b6104ea82826112e4565b600061091e8383611358565b60006109a3610ab6565b54919050565b6109b4856002611395565b6109bf846000611395565b6109ca816001611395565b6109d3826113b9565b6040805160a0810182528681526020808201879052818301869052606082018490524260808301526001600160a01b03851660009081527f29fd831c424d24cd5e9cb3bb2c716700fad0c388fe4c8545bfa7e16ccd6601d7909152919091208151600080516020611dd68339815191529291908190610a529082611cae565b5060208201516001820190610a679082611cae565b506040820151600282015560608201516003820190610a869082611cae565b5060808201518160040155905050505050505050565b6104ea8282604051806020016040528060008152506113e0565b7f234d8962d7c9a6a6604d7f98797e6ad6d7a886804f7409feb26422e27bf8125490565b6000610ae58261116c565b610b02576040516333d1c03960e21b815260040160405180910390fd5b610b0a610ab6565b60009283526006016020525060409020546001600160a01b031690565b60007f1f550ad653d7011dd740783aaa6c0d6cffff72baffc3774a51d0ca24f410f1066001600160a01b0383163b15801561091e57506001600160a01b0383166000908152600182016020526040902054158061091e57506001600160a01b038316600090815260018201602052604090205442109392505050565b6104ea8282600161145d565b600080610bba610ab6565b60010154610bc6610ab6565b540303919050565b6000610bd8610ab6565b600083815260049190910160205260408120549150600160e01b82169003610c5a5780600003610c5557610c0a610ab6565b548210610c2a57604051636f96cda160e11b815260040160405180910390fd5b610c32610ab6565b600019909201600081815260049390930160205260409092205490508015610c2a575b919050565b604051636f96cda160e11b815260040160405180910390fd5b6000806000610c80610ab6565b60009485526006016020525050604090912080549092909150565b6001600160a01b03841615801590610cb75750610cb784610b27565b15610cd557604051638043dfaf60e01b815260040160405180910390fd5b61088e565b610ce3816113b9565b600080516020611dd683398151915280546001600160a01b0383166001600160a01b03199091168117825560408051918252517fe794e2352e062172e145f1a3545fd25eada135200c84ca5ae2565053a1f0c5e89181900360200190a15050565b60006001600160a01b038216610d6d576040516323d3ad8160e21b815260040160405180910390fd5b67ffffffffffffffff610d7e610ab6565b6005016000846001600160a01b03166001600160a01b0316815260200190815260200160002054169050919050565b80610db6610ab6565b336000818152600792909201602090815260408084206001600160a01b03881680865290835293819020805460ff19169515159590951790945592518415158152919290917f17307eab39ab6107e8899845ad3d59bd9653f200f220920489ca2b5937696c31910160405180910390a35050565b610e5c6040518060a0016040528060608152602001606081526020016000815260200160608152602001600081525090565b6001600160a01b03821660009081527f29fd831c424d24cd5e9cb3bb2c716700fad0c388fe4c8545bfa7e16ccd6601d7602052604090819020815160a081019092528054600080516020611dd683398151915292919082908290610ebf90611bff565b80601f0160208091040260200160405190810160405280929190818152602001828054610eeb90611bff565b8015610f385780601f10610f0d57610100808354040283529160200191610f38565b820191906000526020600020905b815481529060010190602001808311610f1b57829003601f168201915b50505050508152602001600182018054610f5190611bff565b80601f0160208091040260200160405190810160405280929190818152602001828054610f7d90611bff565b8015610fca5780601f10610f9f57610100808354040283529160200191610fca565b820191906000526020600020905b815481529060010190602001808311610fad57829003601f168201915b5050505050815260200160028201548152602001600382018054610fed90611bff565b80601f016020809104026020016040519081016040528092919081815260200182805461101990611bff565b80156110665780601f1061103b57610100808354040283529160200191611066565b820191906000526020600020905b81548152906001019060200180831161104957829003601f168201915b50505050508152602001600482015481525050915050919050565b604051630a85bd0160e11b81526000906001600160a01b0385169063150b7a02906110b6903390899088908890600401611d6e565b6020604051808303816000875af19250505080156110f1575060408051601f3d908101601f191682019092526110ee91810190611dab565b60015b61114f573d80801561111f576040519150601f19603f3d011682016040523d82523d6000602084013e611124565b606091505b508051600003611147576040516368d2bf6b60e11b815260040160405180910390fd5b805181602001fd5b6001600160e01b031916630a85bd0160e11b149050949350505050565b6000611176610ab6565b54821080156104a05750600160e01b61118d610ab6565b60008481526004919091016020526040902054161592915050565b606060a06040510180604052602081039150506000815280825b600183039250600a81066030018353600a9004806111c25750819003601f19909101908152919050565b336112026111f983610e2a565b6040015161077d565b6001600160a01b03161461077a57604051637a0dae6760e11b815260040160405180910390fd5b611234826002611395565b61123f816001611395565b6001600160a01b03831660009081527f29fd831c424d24cd5e9cb3bb2c716700fad0c388fe4c8545bfa7e16ccd6601d760205260409020600080516020611dd683398151915290806112918582611cae565b50600181016112a08482611cae565b506040516001600160a01b03861681527f8f0dba163239097b408052045f0cd871880886da9d10d46e55824b4107e24aa59060200160405180910390a15050505050565b7f2d0d21306acfe8e9bb163a4573e95aff6cef95dc1102c6a16d5f19eac08cc4de54640100000000900460ff1661132e57604051630ef4733760e31b815260040160405180910390fd5b61133e6380ac58cd60e01b611512565b61134e635b5e139f60e01b611512565b6104ea82826115f0565b6000611362610ab6565b6001600160a01b039384166000908152600791909101602090815260408083209490951682529290925250205460ff1690565b8151829082111561071c576040516374eb20a760e01b815260040160405180910390fd5b6001600160a01b03811661077a576040516302e47d1560e41b815260040160405180910390fd5b6113ea8383611622565b6001600160a01b0383163b1561071c576000611404610ab6565b5490508281035b61141e6000868380600101945086611081565b61143b576040516368d2bf6b60e11b815260040160405180910390fd5b81811061140b578161144b610ab6565b541461145657600080fd5b5050505050565b60006114688361077d565b905081156114a757336001600160a01b038216146114a75761148a8133611358565b6114a7576040516367d9dca160e11b815260040160405180910390fd5b836114b0610ab6565b6000858152600691909101602052604080822080546001600160a01b0319166001600160a01b0394851617905551859287811692908516917f8c5be1e5ebec7d5bd14f71427d1e84f3dd0314c0f7b2291e5b200ac8c7c3b9259190a450505050565b6001600160e01b0319811660009081527fbc7de460bcfb6afd0c415c8c610d408bd914b18d7d0feec0da9e25348087a5c4602052604090205460ff16151560011461159f576001600160e01b0319811660009081527fbc7de460bcfb6afd0c415c8c610d408bd914b18d7d0feec0da9e25348087a5c460205260409020805460ff191660011790556115b8565b604051637967f77d60e11b815260040160405180910390fd5b6040516001600160e01b03198216907f78f84e5b1c5c05be2b5ad3800781dd404d6d6c6302bc755c0fe20f58a33a7f2290600090a250565b60006115fa610ab6565b90506002810161160a8482611cae565b50600381016116198382611cae565b50600090555050565b600061162c610ab6565b54905060008290036116515760405163b562e8dd60e01b815260040160405180910390fd5b61165e6000848385610c9b565b680100000000000000018202611672610ab6565b6001600160a01b038516600081815260059290920160205260409091208054929092019091554260a01b6001841460e11b17176116ad610ab6565b600083815260049190910160205260408120919091556001600160a01b0384169083830190839083907fddf252ad1be2c89b69c2b068fc378daa952ba7f163c4a11628f55a4df523b3ef8180a4600183015b81811461173757808360007fddf252ad1be2c89b69c2b068fc378daa952ba7f163c4a11628f55a4df523b3ef600080a46001016116ff565b508160000361175857604051622e076360e81b815260040160405180910390fd5b80611761610ab6565b555061071c9050565b634e487b7160e01b600052604160045260246000fd5b600067ffffffffffffffff8084111561179b5761179b61176a565b604051601f8501601f19908116603f011681019082821181831017156117c3576117c361176a565b816040528093508581528686860111156117dc57600080fd5b858560208301376000602087830101525050509392505050565b600082601f83011261180757600080fd5b61091e83833560208501611780565b80356001600160a01b0381168114610c5557600080fd5b6000806000806080858703121561184357600080fd5b843567ffffffffffffffff8082111561185b57600080fd5b611867888389016117f6565b9550602087013591508082111561187d57600080fd5b611889888389016117f6565b9450604087013591508082111561189f57600080fd5b506118ac878288016117f6565b9250506118bb60608601611816565b905092959194509250565b60005b838110156118e15781810151838201526020016118c9565b50506000910152565b600081518084526119028160208601602086016118c6565b601f01601f19169290920160200192915050565b60208152600061091e60208301846118ea565b60006020828403121561193b57600080fd5b5035919050565b6000806040838503121561195557600080fd5b61195e83611816565b946020939093013593505050565b60008060006060848603121561198157600080fd5b61198a84611816565b925061199860208501611816565b9150604084013590509250925092565b6000602082840312156119ba57600080fd5b61091e82611816565b600080604083850312156119d657600080fd5b6119df83611816565b9150602083013580151581146119f457600080fd5b809150509250929050565b602081526000825160a06020840152611a1b60c08401826118ea565b90506020840151601f1980858403016040860152611a3983836118ea565b925060408601516060860152606086015191508085840301608086015250611a6182826118ea565b915050608084015160a08401528091505092915050565b60008060008060808587031215611a8e57600080fd5b611a9785611816565b9350611aa560208601611816565b925060408501359150606085013567ffffffffffffffff811115611ac857600080fd5b8501601f81018713611ad957600080fd5b611ae887823560208401611780565b91505092959194509250565b600080600060608486031215611b0957600080fd5b611b1284611816565b9250602084013567ffffffffffffffff80821115611b2f57600080fd5b611b3b878388016117f6565b93506040860135915080821115611b5157600080fd5b50611b5e868287016117f6565b9150509250925092565b60008060408385031215611b7b57600080fd5b823567ffffffffffffffff80821115611b9357600080fd5b611b9f868387016117f6565b93506020850135915080821115611bb557600080fd5b50611bc2858286016117f6565b9150509250929050565b60008060408385031215611bdf57600080fd5b611be883611816565b9150611bf660208401611816565b90509250929050565b600181811c90821680611c1357607f821691505b602082108103611c3357634e487b7160e01b600052602260045260246000fd5b50919050565b60008351611c4b8184602088016118c6565b835190830190611c5f8183602088016118c6565b01949350505050565b601f82111561071c57600081815260208120601f850160051c81016020861015611c8f5750805b601f850160051c820191505b818110156106f957828155600101611c9b565b815167ffffffffffffffff811115611cc857611cc861176a565b611cdc81611cd68454611bff565b84611c68565b602080601f831160018114611d115760008415611cf95750858301515b600019600386901b1c1916600185901b1785556106f9565b600085815260208120601f198616915b82811015611d4057888601518255948401946001909101908401611d21565b5085821015611d5e5787850151600019600388901b60f8161c191681555b5050505050600190811b01905550565b6001600160a01b0385811682528416602082015260408101839052608060608201819052600090611da1908301846118ea565b9695505050505050565b600060208284031215611dbd57600080fd5b81516001600160e01b03198116811461091e57600080fdfe29fd831c424d24cd5e9cb3bb2c716700fad0c388fe4c8545bfa7e16ccd6601d5",
    "linkReferences": {}
  },
  "methodIdentifiers": {
    "__ERC721A_init(string,string)": "d2f01f19",
    "approve(address,uint256)": "095ea7b3",
    "balanceOf(address)": "70a08231",
    "getApproved(uint256)": "081812fc",
    "getFactory()": "88cc58e4",
    "getTownInfo(address)": "ac9207f4",
    "isApprovedForAll(address,address)": "e985e9c5",
    "mintTown(string,string,string,address)": "06252808",
    "name()": "06fdde03",
    "nextTokenId()": "75794a3c",
    "ownerOf(uint256)": "6352211e",
    "safeTransferFrom(address,address,uint256)": "42842e0e",
    "safeTransferFrom(address,address,uint256,bytes)": "b88d4fde",
    "setApprovalForAll(address,bool)": "a22cb465",
    "setFactory(address)": "5bb47808",
    "symbol()": "95d89b41",
    "tokenURI(uint256)": "c87b56dd",
    "totalSupply()": "18160ddd",
    "transferFrom(address,address,uint256)": "23b872dd",
    "updateTownInfo(address,string,string)": "c9d6a54e"
  },
  "id": 179
}