{
  "abi": [
    {
      "inputs": [],
      "name": "AlreadyDisabled",
      "type": "error"
    },
    {
      "inputs": [],
      "name": "AlreadyEnabled",
      "type": "error"
    },
    {
      "inputs": [],
      "name": "ApprovalCallerNotOwnerNorApproved",
      "type": "error"
    },
    {
      "inputs": [],
      "name": "ApprovalQueryForNonexistentToken",
      "type": "error"
    },
    {
      "inputs": [],
      "name": "BalanceQueryForZeroAddress",
      "type": "error"
    },
    {
      "inputs": [],
      "name": "GuardianEnabled",
      "type": "error"
    },
    {
      "inputs": [],
      "name": "Initializable_InInitializingState",
      "type": "error"
    },
    {
      "inputs": [],
      "name": "Initializable_NotInInitializingState",
      "type": "error"
    },
    {
      "inputs": [],
      "name": "Introspection_AlreadySupported",
      "type": "error"
    },
    {
      "inputs": [],
      "name": "Introspection_NotSupported",
      "type": "error"
    },
    {
      "inputs": [],
      "name": "MintERC2309QuantityExceedsLimit",
      "type": "error"
    },
    {
      "inputs": [],
      "name": "MintToZeroAddress",
      "type": "error"
    },
    {
      "inputs": [],
      "name": "MintZeroQuantity",
      "type": "error"
    },
    {
      "inputs": [],
      "name": "NotExternalAccount",
      "type": "error"
    },
    {
      "inputs": [
        {
          "internalType": "address",
          "name": "account",
          "type": "address"
        }
      ],
      "name": "Ownable__NotOwner",
      "type": "error"
    },
    {
      "inputs": [],
      "name": "Ownable__ZeroAddress",
      "type": "error"
    },
    {
      "inputs": [],
      "name": "OwnerQueryForNonexistentToken",
      "type": "error"
    },
    {
      "inputs": [],
      "name": "OwnershipNotInitializedForExtraData",
      "type": "error"
    },
    {
      "inputs": [],
      "name": "TownOwner__OnlyFactoryAllowed",
      "type": "error"
    },
    {
      "inputs": [],
      "name": "TownOwner__OnlyTownOwnerAllowed",
      "type": "error"
    },
    {
      "inputs": [],
      "name": "TransferCallerNotOwnerNorApproved",
      "type": "error"
    },
    {
      "inputs": [],
      "name": "TransferFromIncorrectOwner",
      "type": "error"
    },
    {
      "inputs": [],
      "name": "TransferToNonERC721ReceiverImplementer",
      "type": "error"
    },
    {
      "inputs": [],
      "name": "TransferToZeroAddress",
      "type": "error"
    },
    {
      "inputs": [],
      "name": "URIQueryForNonexistentToken",
      "type": "error"
    },
    {
      "inputs": [],
      "name": "Validator__InvalidAddress",
      "type": "error"
    },
    {
      "inputs": [],
      "name": "Validator__InvalidStringLength",
      "type": "error"
    },
    {
      "anonymous": false,
      "inputs": [
        {
          "indexed": true,
          "internalType": "address",
          "name": "owner",
          "type": "address"
        },
        {
          "indexed": true,
          "internalType": "address",
          "name": "approved",
          "type": "address"
        },
        {
          "indexed": true,
          "internalType": "uint256",
          "name": "tokenId",
          "type": "uint256"
        }
      ],
      "name": "Approval",
      "type": "event"
    },
    {
      "anonymous": false,
      "inputs": [
        {
          "indexed": true,
          "internalType": "address",
          "name": "owner",
          "type": "address"
        },
        {
          "indexed": true,
          "internalType": "address",
          "name": "operator",
          "type": "address"
        },
        {
          "indexed": false,
          "internalType": "bool",
          "name": "approved",
          "type": "bool"
        }
      ],
      "name": "ApprovalForAll",
      "type": "event"
    },
    {
      "anonymous": false,
      "inputs": [
        {
          "indexed": true,
          "internalType": "uint256",
          "name": "fromTokenId",
          "type": "uint256"
        },
        {
          "indexed": false,
          "internalType": "uint256",
          "name": "toTokenId",
          "type": "uint256"
        },
        {
          "indexed": true,
          "internalType": "address",
          "name": "from",
          "type": "address"
        },
        {
          "indexed": true,
          "internalType": "address",
          "name": "to",
          "type": "address"
        }
      ],
      "name": "ConsecutiveTransfer",
      "type": "event"
    },
    {
      "anonymous": false,
      "inputs": [
        {
          "indexed": true,
          "internalType": "address",
          "name": "caller",
          "type": "address"
        },
        {
          "indexed": true,
          "internalType": "bool",
          "name": "enabled",
          "type": "bool"
        },
        {
          "indexed": false,
          "internalType": "uint256",
          "name": "cooldown",
          "type": "uint256"
        },
        {
          "indexed": false,
          "internalType": "uint256",
          "name": "timestamp",
          "type": "uint256"
        }
      ],
      "name": "GuardianUpdated",
      "type": "event"
    },
    {
      "anonymous": false,
      "inputs": [
        {
          "indexed": false,
          "internalType": "uint32",
          "name": "version",
          "type": "uint32"
        }
      ],
      "name": "Initialized",
      "type": "event"
    },
    {
      "anonymous": false,
      "inputs": [
        {
          "indexed": true,
          "internalType": "bytes4",
          "name": "interfaceId",
          "type": "bytes4"
        }
      ],
      "name": "InterfaceAdded",
      "type": "event"
    },
    {
      "anonymous": false,
      "inputs": [
        {
          "indexed": true,
          "internalType": "bytes4",
          "name": "interfaceId",
          "type": "bytes4"
        }
      ],
      "name": "InterfaceRemoved",
      "type": "event"
    },
    {
      "anonymous": false,
      "inputs": [
        {
          "indexed": true,
          "internalType": "address",
          "name": "previousOwner",
          "type": "address"
        },
        {
          "indexed": true,
          "internalType": "address",
          "name": "newOwner",
          "type": "address"
        }
      ],
      "name": "OwnershipTransferred",
      "type": "event"
    },
    {
      "anonymous": false,
      "inputs": [
        {
          "indexed": false,
          "internalType": "address",
          "name": "factory",
          "type": "address"
        }
      ],
      "name": "TownOwner__SetFactory",
      "type": "event"
    },
    {
      "anonymous": false,
      "inputs": [
        {
          "indexed": false,
          "internalType": "address",
          "name": "town",
          "type": "address"
        }
      ],
      "name": "TownOwner__UpdateTown",
      "type": "event"
    },
    {
      "anonymous": false,
      "inputs": [
        {
          "indexed": true,
          "internalType": "address",
          "name": "from",
          "type": "address"
        },
        {
          "indexed": true,
          "internalType": "address",
          "name": "to",
          "type": "address"
        },
        {
          "indexed": true,
          "internalType": "uint256",
          "name": "tokenId",
          "type": "uint256"
        }
      ],
      "name": "Transfer",
      "type": "event"
    },
    {
      "inputs": [
        {
          "internalType": "string",
          "name": "name_",
          "type": "string"
        },
        {
          "internalType": "string",
          "name": "symbol_",
          "type": "string"
        }
      ],
      "name": "__ERC721A_init",
      "outputs": [],
      "stateMutability": "nonpayable",
      "type": "function"
    },
    {
      "inputs": [
        {
          "internalType": "address",
          "name": "to",
          "type": "address"
        },
        {
          "internalType": "uint256",
          "name": "tokenId",
          "type": "uint256"
        }
      ],
      "name": "approve",
      "outputs": [],
      "stateMutability": "payable",
      "type": "function"
    },
    {
      "inputs": [
        {
          "internalType": "address",
          "name": "owner",
          "type": "address"
        }
      ],
      "name": "balanceOf",
      "outputs": [
        {
          "internalType": "uint256",
          "name": "",
          "type": "uint256"
        }
      ],
      "stateMutability": "view",
      "type": "function"
    },
    {
      "inputs": [
        {
          "internalType": "uint256",
          "name": "tokenId",
          "type": "uint256"
        }
      ],
      "name": "getApproved",
      "outputs": [
        {
          "internalType": "address",
          "name": "",
          "type": "address"
        }
      ],
      "stateMutability": "view",
      "type": "function"
    },
    {
      "inputs": [],
      "name": "getFactory",
      "outputs": [
        {
          "internalType": "address",
          "name": "",
          "type": "address"
        }
      ],
      "stateMutability": "view",
      "type": "function"
    },
    {
      "inputs": [
        {
          "internalType": "address",
          "name": "town",
          "type": "address"
        }
      ],
      "name": "getTownInfo",
      "outputs": [
        {
          "components": [
            {
              "internalType": "string",
              "name": "name",
              "type": "string"
            },
            {
              "internalType": "string",
              "name": "uri",
              "type": "string"
            },
            {
              "internalType": "uint256",
              "name": "tokenId",
              "type": "uint256"
            },
            {
              "internalType": "string",
              "name": "networkId",
              "type": "string"
            },
            {
              "internalType": "uint256",
              "name": "createdAt",
              "type": "uint256"
            }
          ],
          "internalType": "struct ITownOwnerBase.Town",
          "name": "",
          "type": "tuple"
        }
      ],
      "stateMutability": "view",
      "type": "function"
    },
    {
      "inputs": [
        {
          "internalType": "address",
          "name": "owner",
          "type": "address"
        },
        {
          "internalType": "address",
          "name": "operator",
          "type": "address"
        }
      ],
      "name": "isApprovedForAll",
      "outputs": [
        {
          "internalType": "bool",
          "name": "",
          "type": "bool"
        }
      ],
      "stateMutability": "view",
      "type": "function"
    },
    {
      "inputs": [
        {
          "internalType": "string",
          "name": "name",
          "type": "string"
        },
        {
          "internalType": "string",
          "name": "uri",
          "type": "string"
        },
        {
          "internalType": "string",
          "name": "networkId",
          "type": "string"
        },
        {
          "internalType": "address",
          "name": "town",
          "type": "address"
        }
      ],
      "name": "mintTown",
      "outputs": [
        {
          "internalType": "uint256",
          "name": "tokenId",
          "type": "uint256"
        }
      ],
      "stateMutability": "nonpayable",
      "type": "function"
    },
    {
      "inputs": [],
      "name": "name",
      "outputs": [
        {
          "internalType": "string",
          "name": "",
          "type": "string"
        }
      ],
      "stateMutability": "view",
      "type": "function"
    },
    {
      "inputs": [],
      "name": "nextTokenId",
      "outputs": [
        {
          "internalType": "uint256",
          "name": "",
          "type": "uint256"
        }
      ],
      "stateMutability": "view",
      "type": "function"
    },
    {
      "inputs": [
        {
          "internalType": "uint256",
          "name": "tokenId",
          "type": "uint256"
        }
      ],
      "name": "ownerOf",
      "outputs": [
        {
          "internalType": "address",
          "name": "",
          "type": "address"
        }
      ],
      "stateMutability": "view",
      "type": "function"
    },
    {
      "inputs": [
        {
          "internalType": "address",
          "name": "from",
          "type": "address"
        },
        {
          "internalType": "address",
          "name": "to",
          "type": "address"
        },
        {
          "internalType": "uint256",
          "name": "tokenId",
          "type": "uint256"
        }
      ],
      "name": "safeTransferFrom",
      "outputs": [],
      "stateMutability": "payable",
      "type": "function"
    },
    {
      "inputs": [
        {
          "internalType": "address",
          "name": "from",
          "type": "address"
        },
        {
          "internalType": "address",
          "name": "to",
          "type": "address"
        },
        {
          "internalType": "uint256",
          "name": "tokenId",
          "type": "uint256"
        },
        {
          "internalType": "bytes",
          "name": "_data",
          "type": "bytes"
        }
      ],
      "name": "safeTransferFrom",
      "outputs": [],
      "stateMutability": "payable",
      "type": "function"
    },
    {
      "inputs": [
        {
          "internalType": "address",
          "name": "operator",
          "type": "address"
        },
        {
          "internalType": "bool",
          "name": "approved",
          "type": "bool"
        }
      ],
      "name": "setApprovalForAll",
      "outputs": [],
      "stateMutability": "nonpayable",
      "type": "function"
    },
    {
      "inputs": [
        {
          "internalType": "address",
          "name": "factory",
          "type": "address"
        }
      ],
      "name": "setFactory",
      "outputs": [],
      "stateMutability": "nonpayable",
      "type": "function"
    },
    {
      "inputs": [],
      "name": "symbol",
      "outputs": [
        {
          "internalType": "string",
          "name": "",
          "type": "string"
        }
      ],
      "stateMutability": "view",
      "type": "function"
    },
    {
      "inputs": [
        {
          "internalType": "uint256",
          "name": "tokenId",
          "type": "uint256"
        }
      ],
      "name": "tokenURI",
      "outputs": [
        {
          "internalType": "string",
          "name": "",
          "type": "string"
        }
      ],
      "stateMutability": "view",
      "type": "function"
    },
    {
      "inputs": [],
      "name": "totalSupply",
      "outputs": [
        {
          "internalType": "uint256",
          "name": "",
          "type": "uint256"
        }
      ],
      "stateMutability": "view",
      "type": "function"
    },
    {
      "inputs": [
        {
          "internalType": "address",
          "name": "from",
          "type": "address"
        },
        {
          "internalType": "address",
          "name": "to",
          "type": "address"
        },
        {
          "internalType": "uint256",
          "name": "tokenId",
          "type": "uint256"
        }
      ],
      "name": "transferFrom",
      "outputs": [],
      "stateMutability": "payable",
      "type": "function"
    },
    {
      "inputs": [
        {
          "internalType": "address",
          "name": "town",
          "type": "address"
        },
        {
          "internalType": "string",
          "name": "name",
          "type": "string"
        },
        {
          "internalType": "string",
          "name": "uri",
          "type": "string"
        }
      ],
      "name": "updateTownInfo",
      "outputs": [],
      "stateMutability": "nonpayable",
      "type": "function"
    }
  ],
  "bytecode": {
    "object": "0x608060405234801561001057600080fd5b5061001961001e565b6100c4565b7f2d0d21306acfe8e9bb163a4573e95aff6cef95dc1102c6a16d5f19eac08cc4de8054640100000000900460ff161561006a576040516366008a2d60e01b815260040160405180910390fd5b805463ffffffff90811610156100c157805463ffffffff191663ffffffff90811782556040519081527fe9c9b456cb2994b80aeef036cf59d26e9617df80f816a6ee5a5b4166e07e2f5c9060200160405180910390a15b50565b611de1806100d36000396000f3fe60806040526004361061011f5760003560e01c806375794a3c116100a0578063b88d4fde11610064578063b88d4fde146102ed578063c87b56dd14610300578063c9d6a54e14610320578063d2f01f1914610340578063e985e9c51461036057600080fd5b806375794a3c1461026157806388cc58e41461027657806395d89b411461028b578063a22cb465146102a0578063ac9207f4146102c057600080fd5b806323b872dd116100e757806323b872dd146101db57806342842e0e146101ee5780635bb47808146102015780636352211e1461022157806370a082311461024157600080fd5b8063062528081461012457806306fdde0314610157578063081812fc14610179578063095ea7b3146101b157806318160ddd146101c6575b600080fd5b34801561013057600080fd5b5061014461013f366004611818565b610390565b6040519081526020015b60405180910390f35b34801561016357600080fd5b5061016c6103fa565b60405161014e9190611901565b34801561018557600080fd5b50610199610194366004611914565b610495565b6040516001600160a01b03909116815260200161014e565b6101c46101bf36600461192d565b6104a6565b005b3480156101d257600080fd5b506101446104ee565b6101c46101e9366004611957565b61050d565b6101c46101fc366004611957565b610711565b34801561020d57600080fd5b506101c461021c366004611993565b610731565b34801561022d57600080fd5b5061019961023c366004611914565b61078d565b34801561024d57600080fd5b5061014461025c366004611993565b610798565b34801561026d57600080fd5b50610144610801565b34801561028257600080fd5b50610199610810565b34801561029757600080fd5b5061016c610831565b3480156102ac57600080fd5b506101c46102bb3660046119ae565b610849565b3480156102cc57600080fd5b506102e06102db366004611993565b610882565b60405161014e91906119ea565b6101c46102fb366004611a63565b6108bd565b34801561030c57600080fd5b5061016c61031b366004611914565b610907565b34801561032c57600080fd5b506101c461033b366004611adf565b610998565b34801561034c57600080fd5b506101c461035b366004611b53565b6109ac565b34801561036c57600080fd5b5061038061037b366004611bb7565b610a00565b604051901515815260200161014e565b600080600080516020611dc183398151915280549091506001600160a01b031633146103cf5760405163b73edbc160e01b815260040160405180910390fd5b6103d7610a0c565b91506103e68686848688610a1c565b6103f1336001610b0f565b50949350505050565b6060610404610b29565b600201805461041290611bea565b80601f016020809104026020016040519081016040528092919081815260200182805461043e90611bea565b801561048b5780601f106104605761010080835404028352916020019161048b565b820191906000526020600020905b81548152906001019060200180831161046e57829003601f168201915b5050505050905090565b60006104a082610b4d565b92915050565b6001600160a01b038216158015906104c257506104c233610b9a565b156104e057604051638043dfaf60e01b815260040160405180910390fd5b6104ea8282610c16565b5050565b6000806104f9610b29565b60010154610505610b29565b540303919050565b600061051882610c22565b9050836001600160a01b0316816001600160a01b03161461054b5760405162a1148160e81b815260040160405180910390fd5b60008061055784610cc7565b9150915061057c81876105673390565b6001600160a01b039081169116811491141790565b6105a75761058a8633610a00565b6105a757604051632ce44b5f60e11b815260040160405180910390fd5b6001600160a01b0385166105ce57604051633a954ecd60e21b815260040160405180910390fd5b6105db8686866001610cef565b80156105e657600082555b6105ee610b29565b6001600160a01b038716600090815260059190910160205260409020805460001901905561061a610b29565b6001600160a01b03861660008181526005929092016020526040909120805460010190554260a01b17600160e11b17610651610b29565b60008681526004919091016020526040812091909155600160e11b841690036106c75760018401610680610b29565b6000828152600491909101602052604081205490036106c5576106a1610b29565b5481146106c557836106b1610b29565b600083815260049190910160205260409020555b505b83856001600160a01b0316876001600160a01b03167fddf252ad1be2c89b69c2b068fc378daa952ba7f163c4a11628f55a4df523b3ef60405160405180910390a45b505050505050565b61072c838383604051806020016040528060008152506108bd565b505050565b7fa7c3be20e3a76821507555109752fad8a6630ef0362a34dcfcdfef83c99a2537546001600160a01b03163314610781576040516365f4906560e01b815233600482015260240160405180910390fd5b61078a81610d2e565b50565b60006104a082610c22565b60006001600160a01b0382166107c1576040516323d3ad8160e21b815260040160405180910390fd5b67ffffffffffffffff6107d2610b29565b6005016000846001600160a01b03166001600160a01b0316815260200190815260200160002054169050919050565b600061080b610a0c565b905090565b600061080b600080516020611dc1833981519152546001600160a01b031690565b606061083b610b29565b600301805461041290611bea565b80801561085a575061085a33610b9a565b1561087857604051638043dfaf60e01b815260040160405180910390fd5b6104ea8282610d98565b6108b46040518060a0016040528060608152602001606081526020016000815260200160608152602001600081525090565b6104a082610e15565b6108c884848461050d565b6001600160a01b0383163b15610901576108e48484848461106c565b610901576040516368d2bf6b60e11b815260040160405180910390fd5b50505050565b606061091282611157565b61092f57604051630a14c4b560e41b815260040160405180910390fd5b600061094660408051602081019091526000815290565b905080516000036109665760405180602001604052806000815250610991565b8061097084611193565b604051602001610981929190611c24565b6040516020818303038152906040525b9392505050565b6109a1836111d7565b61072c838383611214565b7f2d0d21306acfe8e9bb163a4573e95aff6cef95dc1102c6a16d5f19eac08cc4de54640100000000900460ff166109f657604051630ef4733760e31b815260040160405180910390fd5b6104ea82826112cf565b60006109918383611343565b6000610a16610b29565b54919050565b610a27856002611380565b610a32846000611380565b610a3d816001611380565b610a46826113a4565b6040805160a0810182528681526020808201879052818301869052606082018490524260808301526001600160a01b03851660009081527f29fd831c424d24cd5e9cb3bb2c716700fad0c388fe4c8545bfa7e16ccd6601d7909152919091208151600080516020611dc18339815191529291908190610ac59082611c99565b5060208201516001820190610ada9082611c99565b506040820151600282015560608201516003820190610af99082611c99565b5060808201518160040155905050505050505050565b6104ea8282604051806020016040528060008152506113cb565b7f234d8962d7c9a6a6604d7f98797e6ad6d7a886804f7409feb26422e27bf8125490565b6000610b5882611157565b610b75576040516333d1c03960e21b815260040160405180910390fd5b610b7d610b29565b60009283526006016020525060409020546001600160a01b031690565b60007f1f550ad653d7011dd740783aaa6c0d6cffff72baffc3774a51d0ca24f410f1066001600160a01b0383163b15801561099157506001600160a01b0383166000908152600182016020526040902054158061099157506001600160a01b038316600090815260018201602052604090205442109392505050565b6104ea82826001611448565b6000610c2c610b29565b600083815260049190910160205260408120549150600160e01b82169003610cae5780600003610ca957610c5e610b29565b548210610c7e57604051636f96cda160e11b815260040160405180910390fd5b610c86610b29565b600019909201600081815260049390930160205260409092205490508015610c7e575b919050565b604051636f96cda160e11b815260040160405180910390fd5b6000806000610cd4610b29565b60009485526006016020525050604090912080549092909150565b6001600160a01b03841615801590610d0b5750610d0b84610b9a565b15610d2957604051638043dfaf60e01b815260040160405180910390fd5b610901565b610d37816113a4565b600080516020611dc183398151915280546001600160a01b0383166001600160a01b03199091168117825560408051918252517fe794e2352e062172e145f1a3545fd25eada135200c84ca5ae2565053a1f0c5e89181900360200190a15050565b80610da1610b29565b336000818152600792909201602090815260408084206001600160a01b03881680865290835293819020805460ff19169515159590951790945592518415158152919290917f17307eab39ab6107e8899845ad3d59bd9653f200f220920489ca2b5937696c31910160405180910390a35050565b610e476040518060a0016040528060608152602001606081526020016000815260200160608152602001600081525090565b6001600160a01b03821660009081527f29fd831c424d24cd5e9cb3bb2c716700fad0c388fe4c8545bfa7e16ccd6601d7602052604090819020815160a081019092528054600080516020611dc183398151915292919082908290610eaa90611bea565b80601f0160208091040260200160405190810160405280929190818152602001828054610ed690611bea565b8015610f235780601f10610ef857610100808354040283529160200191610f23565b820191906000526020600020905b815481529060010190602001808311610f0657829003601f168201915b50505050508152602001600182018054610f3c90611bea565b80601f0160208091040260200160405190810160405280929190818152602001828054610f6890611bea565b8015610fb55780601f10610f8a57610100808354040283529160200191610fb5565b820191906000526020600020905b815481529060010190602001808311610f9857829003601f168201915b5050505050815260200160028201548152602001600382018054610fd890611bea565b80601f016020809104026020016040519081016040528092919081815260200182805461100490611bea565b80156110515780601f1061102657610100808354040283529160200191611051565b820191906000526020600020905b81548152906001019060200180831161103457829003601f168201915b50505050508152602001600482015481525050915050919050565b604051630a85bd0160e11b81526000906001600160a01b0385169063150b7a02906110a1903390899088908890600401611d59565b6020604051808303816000875af19250505080156110dc575060408051601f3d908101601f191682019092526110d991810190611d96565b60015b61113a573d80801561110a576040519150601f19603f3d011682016040523d82523d6000602084013e61110f565b606091505b508051600003611132576040516368d2bf6b60e11b815260040160405180910390fd5b805181602001fd5b6001600160e01b031916630a85bd0160e11b149050949350505050565b6000611161610b29565b54821080156104a05750600160e01b611178610b29565b60008481526004919091016020526040902054161592915050565b606060a06040510180604052602081039150506000815280825b600183039250600a81066030018353600a9004806111ad5750819003601f19909101908152919050565b336111ed6111e483610e15565b6040015161078d565b6001600160a01b03161461078a57604051637a0dae6760e11b815260040160405180910390fd5b61121f826002611380565b61122a816001611380565b6001600160a01b03831660009081527f29fd831c424d24cd5e9cb3bb2c716700fad0c388fe4c8545bfa7e16ccd6601d760205260409020600080516020611dc1833981519152908061127c8582611c99565b506001810161128b8482611c99565b506040516001600160a01b03861681527f8f0dba163239097b408052045f0cd871880886da9d10d46e55824b4107e24aa59060200160405180910390a15050505050565b7f2d0d21306acfe8e9bb163a4573e95aff6cef95dc1102c6a16d5f19eac08cc4de54640100000000900460ff1661131957604051630ef4733760e31b815260040160405180910390fd5b6113296380ac58cd60e01b6114fd565b611339635b5e139f60e01b6114fd565b6104ea82826115db565b600061134d610b29565b6001600160a01b039384166000908152600791909101602090815260408083209490951682529290925250205460ff1690565b8151829082111561072c576040516374eb20a760e01b815260040160405180910390fd5b6001600160a01b03811661078a576040516302e47d1560e41b815260040160405180910390fd5b6113d5838361160d565b6001600160a01b0383163b1561072c5760006113ef610b29565b5490508281035b611409600086838060010194508661106c565b611426576040516368d2bf6b60e11b815260040160405180910390fd5b8181106113f65781611436610b29565b541461144157600080fd5b5050505050565b60006114538361078d565b9050811561149257336001600160a01b03821614611492576114758133611343565b611492576040516367d9dca160e11b815260040160405180910390fd5b8361149b610b29565b6000858152600691909101602052604080822080546001600160a01b0319166001600160a01b0394851617905551859287811692908516917f8c5be1e5ebec7d5bd14f71427d1e84f3dd0314c0f7b2291e5b200ac8c7c3b9259190a450505050565b6001600160e01b0319811660009081527fbc7de460bcfb6afd0c415c8c610d408bd914b18d7d0feec0da9e25348087a5c4602052604090205460ff16151560011461158a576001600160e01b0319811660009081527fbc7de460bcfb6afd0c415c8c610d408bd914b18d7d0feec0da9e25348087a5c460205260409020805460ff191660011790556115a3565b604051637967f77d60e11b815260040160405180910390fd5b6040516001600160e01b03198216907f78f84e5b1c5c05be2b5ad3800781dd404d6d6c6302bc755c0fe20f58a33a7f2290600090a250565b60006115e5610b29565b9050600281016115f58482611c99565b50600381016116048382611c99565b50600090555050565b6000611617610b29565b549050600082900361163c5760405163b562e8dd60e01b815260040160405180910390fd5b6116496000848385610cef565b68010000000000000001820261165d610b29565b6001600160a01b038516600081815260059290920160205260409091208054929092019091554260a01b6001841460e11b1717611698610b29565b600083815260049190910160205260408120919091556001600160a01b0384169083830190839083907fddf252ad1be2c89b69c2b068fc378daa952ba7f163c4a11628f55a4df523b3ef8180a4600183015b81811461172257808360007fddf252ad1be2c89b69c2b068fc378daa952ba7f163c4a11628f55a4df523b3ef600080a46001016116ea565b508160000361174357604051622e076360e81b815260040160405180910390fd5b8061174c610b29565b555061072c9050565b634e487b7160e01b600052604160045260246000fd5b600067ffffffffffffffff8084111561178657611786611755565b604051601f8501601f19908116603f011681019082821181831017156117ae576117ae611755565b816040528093508581528686860111156117c757600080fd5b858560208301376000602087830101525050509392505050565b600082601f8301126117f257600080fd5b6109918383356020850161176b565b80356001600160a01b0381168114610ca957600080fd5b6000806000806080858703121561182e57600080fd5b843567ffffffffffffffff8082111561184657600080fd5b611852888389016117e1565b9550602087013591508082111561186857600080fd5b611874888389016117e1565b9450604087013591508082111561188a57600080fd5b50611897878288016117e1565b9250506118a660608601611801565b905092959194509250565b60005b838110156118cc5781810151838201526020016118b4565b50506000910152565b600081518084526118ed8160208601602086016118b1565b601f01601f19169290920160200192915050565b60208152600061099160208301846118d5565b60006020828403121561192657600080fd5b5035919050565b6000806040838503121561194057600080fd5b61194983611801565b946020939093013593505050565b60008060006060848603121561196c57600080fd5b61197584611801565b925061198360208501611801565b9150604084013590509250925092565b6000602082840312156119a557600080fd5b61099182611801565b600080604083850312156119c157600080fd5b6119ca83611801565b9150602083013580151581146119df57600080fd5b809150509250929050565b602081526000825160a06020840152611a0660c08401826118d5565b90506020840151601f1980858403016040860152611a2483836118d5565b925060408601516060860152606086015191508085840301608086015250611a4c82826118d5565b915050608084015160a08401528091505092915050565b60008060008060808587031215611a7957600080fd5b611a8285611801565b9350611a9060208601611801565b925060408501359150606085013567ffffffffffffffff811115611ab357600080fd5b8501601f81018713611ac457600080fd5b611ad38782356020840161176b565b91505092959194509250565b600080600060608486031215611af457600080fd5b611afd84611801565b9250602084013567ffffffffffffffff80821115611b1a57600080fd5b611b26878388016117e1565b93506040860135915080821115611b3c57600080fd5b50611b49868287016117e1565b9150509250925092565b60008060408385031215611b6657600080fd5b823567ffffffffffffffff80821115611b7e57600080fd5b611b8a868387016117e1565b93506020850135915080821115611ba057600080fd5b50611bad858286016117e1565b9150509250929050565b60008060408385031215611bca57600080fd5b611bd383611801565b9150611be160208401611801565b90509250929050565b600181811c90821680611bfe57607f821691505b602082108103611c1e57634e487b7160e01b600052602260045260246000fd5b50919050565b60008351611c368184602088016118b1565b835190830190611c4a8183602088016118b1565b01949350505050565b601f82111561072c57600081815260208120601f850160051c81016020861015611c7a5750805b601f850160051c820191505b8181101561070957828155600101611c86565b815167ffffffffffffffff811115611cb357611cb3611755565b611cc781611cc18454611bea565b84611c53565b602080601f831160018114611cfc5760008415611ce45750858301515b600019600386901b1c1916600185901b178555610709565b600085815260208120601f198616915b82811015611d2b57888601518255948401946001909101908401611d0c565b5085821015611d495787850151600019600388901b60f8161c191681555b5050505050600190811b01905550565b6001600160a01b0385811682528416602082015260408101839052608060608201819052600090611d8c908301846118d5565b9695505050505050565b600060208284031215611da857600080fd5b81516001600160e01b03198116811461099157600080fdfe29fd831c424d24cd5e9cb3bb2c716700fad0c388fe4c8545bfa7e16ccd6601d5",
    "linkReferences": {}
  },
  "methodIdentifiers": {
    "__ERC721A_init(string,string)": "d2f01f19",
    "approve(address,uint256)": "095ea7b3",
    "balanceOf(address)": "70a08231",
    "getApproved(uint256)": "081812fc",
    "getFactory()": "88cc58e4",
    "getTownInfo(address)": "ac9207f4",
    "isApprovedForAll(address,address)": "e985e9c5",
    "mintTown(string,string,string,address)": "06252808",
    "name()": "06fdde03",
    "nextTokenId()": "75794a3c",
    "ownerOf(uint256)": "6352211e",
    "safeTransferFrom(address,address,uint256)": "42842e0e",
    "safeTransferFrom(address,address,uint256,bytes)": "b88d4fde",
    "setApprovalForAll(address,bool)": "a22cb465",
    "setFactory(address)": "5bb47808",
    "symbol()": "95d89b41",
    "tokenURI(uint256)": "c87b56dd",
    "totalSupply()": "18160ddd",
    "transferFrom(address,address,uint256)": "23b872dd",
    "updateTownInfo(address,string,string)": "c9d6a54e"
  },
  "id": 166
}