{
  "abi": [
    {
      "inputs": [],
      "name": "Factory__FailedDeployment",
      "type": "error"
    },
    {
      "inputs": [],
      "name": "GateFacetService__NotAllowed",
      "type": "error"
    },
    {
      "inputs": [],
      "name": "Initializable_InInitializingState",
      "type": "error"
    },
    {
      "inputs": [],
      "name": "Initializable_NotInInitializingState",
      "type": "error"
    },
    {
      "inputs": [],
      "name": "Introspection_AlreadySupported",
      "type": "error"
    },
    {
      "inputs": [],
      "name": "Introspection_NotSupported",
      "type": "error"
    },
    {
      "inputs": [
        {
          "internalType": "address",
          "name": "account",
          "type": "address"
        }
      ],
      "name": "Ownable__NotOwner",
      "type": "error"
    },
    {
      "inputs": [],
      "name": "Ownable__ZeroAddress",
      "type": "error"
    },
    {
      "inputs": [],
      "name": "Pausable__NotPaused",
      "type": "error"
    },
    {
      "inputs": [],
      "name": "Pausable__Paused",
      "type": "error"
    },
    {
      "inputs": [],
      "name": "ReentrancyGuard__ReentrantCall",
      "type": "error"
    },
    {
      "inputs": [],
      "name": "TownArchitectService__InvalidAddress",
      "type": "error"
    },
    {
      "inputs": [],
      "name": "TownArchitectService__InvalidNetworkId",
      "type": "error"
    },
    {
      "inputs": [],
      "name": "TownArchitectService__InvalidStringLength",
      "type": "error"
    },
    {
      "inputs": [],
      "name": "TownArchitectService__NotContract",
      "type": "error"
    },
    {
      "anonymous": false,
      "inputs": [
        {
          "indexed": false,
          "internalType": "uint32",
          "name": "version",
          "type": "uint32"
        }
      ],
      "name": "Initialized",
      "type": "event"
    },
    {
      "anonymous": false,
      "inputs": [
        {
          "indexed": true,
          "internalType": "bytes4",
          "name": "interfaceId",
          "type": "bytes4"
        }
      ],
      "name": "InterfaceAdded",
      "type": "event"
    },
    {
      "anonymous": false,
      "inputs": [
        {
          "indexed": true,
          "internalType": "bytes4",
          "name": "interfaceId",
          "type": "bytes4"
        }
      ],
      "name": "InterfaceRemoved",
      "type": "event"
    },
    {
      "anonymous": false,
      "inputs": [
        {
          "indexed": true,
          "internalType": "address",
          "name": "previousOwner",
          "type": "address"
        },
        {
          "indexed": true,
          "internalType": "address",
          "name": "newOwner",
          "type": "address"
        }
      ],
      "name": "OwnershipTransferred",
      "type": "event"
    },
    {
      "anonymous": false,
      "inputs": [
        {
          "indexed": false,
          "internalType": "address",
          "name": "account",
          "type": "address"
        }
      ],
      "name": "Paused",
      "type": "event"
    },
    {
      "anonymous": false,
      "inputs": [
        {
          "indexed": true,
          "internalType": "address",
          "name": "town",
          "type": "address"
        }
      ],
      "name": "TownCreated",
      "type": "event"
    },
    {
      "anonymous": false,
      "inputs": [
        {
          "indexed": false,
          "internalType": "address",
          "name": "account",
          "type": "address"
        }
      ],
      "name": "Unpaused",
      "type": "event"
    },
    {
      "inputs": [
        {
          "internalType": "address",
          "name": "townOwner",
          "type": "address"
        },
        {
          "internalType": "address",
          "name": "userEntitlementImplementation",
          "type": "address"
        },
        {
          "internalType": "address",
          "name": "tokenEntitlementImplementation",
          "type": "address"
        }
      ],
      "name": "__TownArchitect_init",
      "outputs": [],
      "stateMutability": "nonpayable",
      "type": "function"
    },
    {
      "inputs": [
        {
          "internalType": "string",
          "name": "townId",
          "type": "string"
        }
      ],
      "name": "computeTown",
      "outputs": [
        {
          "internalType": "address",
          "name": "",
          "type": "address"
        }
      ],
      "stateMutability": "view",
      "type": "function"
    },
    {
      "inputs": [
        {
          "components": [
            {
              "internalType": "string",
              "name": "id",
              "type": "string"
            },
            {
              "internalType": "string",
              "name": "metadata",
              "type": "string"
            },
            {
              "components": [
                {
                  "internalType": "string",
                  "name": "name",
                  "type": "string"
                },
                {
                  "internalType": "string[]",
                  "name": "permissions",
                  "type": "string[]"
                }
              ],
              "internalType": "struct ITownArchitectBase.RoleInfo",
              "name": "everyoneEntitlement",
              "type": "tuple"
            },
            {
              "components": [
                {
                  "components": [
                    {
                      "internalType": "string",
                      "name": "name",
                      "type": "string"
                    },
                    {
                      "internalType": "string[]",
                      "name": "permissions",
                      "type": "string[]"
                    }
                  ],
                  "internalType": "struct ITownArchitectBase.RoleInfo",
                  "name": "role",
                  "type": "tuple"
                },
                {
                  "components": [
                    {
                      "internalType": "address",
                      "name": "contractAddress",
                      "type": "address"
                    },
                    {
                      "internalType": "uint256",
                      "name": "quantity",
                      "type": "uint256"
                    },
                    {
                      "internalType": "bool",
                      "name": "isSingleToken",
                      "type": "bool"
                    },
                    {
                      "internalType": "uint256[]",
                      "name": "tokenIds",
                      "type": "uint256[]"
                    }
                  ],
                  "internalType": "struct ITokenEntitlement.ExternalToken[]",
                  "name": "tokens",
                  "type": "tuple[]"
                },
                {
                  "internalType": "address[]",
                  "name": "users",
                  "type": "address[]"
                }
              ],
              "internalType": "struct ITownArchitectBase.MemberEntitlement",
              "name": "memberEntitlement",
              "type": "tuple"
            },
            {
              "components": [
                {
                  "internalType": "string",
                  "name": "id",
                  "type": "string"
                },
                {
                  "internalType": "string",
                  "name": "metadata",
                  "type": "string"
                }
              ],
              "internalType": "struct ITownArchitectBase.ChannelInfo",
              "name": "channel",
              "type": "tuple"
            }
          ],
          "internalType": "struct ITownArchitectBase.TownInfo",
          "name": "townInfo",
          "type": "tuple"
        }
      ],
      "name": "createTown",
      "outputs": [
        {
          "internalType": "address",
          "name": "",
          "type": "address"
        }
      ],
      "stateMutability": "nonpayable",
      "type": "function"
    },
    {
      "inputs": [
        {
          "internalType": "address",
          "name": "token",
          "type": "address"
        },
        {
          "internalType": "uint256",
          "name": "quantity",
          "type": "uint256"
        }
      ],
      "name": "gateByToken",
      "outputs": [],
      "stateMutability": "nonpayable",
      "type": "function"
    },
    {
      "inputs": [
        {
          "internalType": "string",
          "name": "townId",
          "type": "string"
        }
      ],
      "name": "getTokenIdByTownId",
      "outputs": [
        {
          "internalType": "uint256",
          "name": "",
          "type": "uint256"
        }
      ],
      "stateMutability": "view",
      "type": "function"
    },
    {
      "inputs": [],
      "name": "getTownArchitectImplementations",
      "outputs": [
        {
          "internalType": "address",
          "name": "townToken",
          "type": "address"
        },
        {
          "internalType": "address",
          "name": "userEntitlementImplementation",
          "type": "address"
        },
        {
          "internalType": "address",
          "name": "tokenEntitlementImplementation",
          "type": "address"
        }
      ],
      "stateMutability": "view",
      "type": "function"
    },
    {
      "inputs": [
        {
          "internalType": "string",
          "name": "townId",
          "type": "string"
        }
      ],
      "name": "getTownById",
      "outputs": [
        {
          "internalType": "address",
          "name": "",
          "type": "address"
        }
      ],
      "stateMutability": "view",
      "type": "function"
    },
    {
      "inputs": [
        {
          "internalType": "address",
          "name": "token",
          "type": "address"
        }
      ],
      "name": "isTokenGated",
      "outputs": [
        {
          "internalType": "bool",
          "name": "",
          "type": "bool"
        }
      ],
      "stateMutability": "view",
      "type": "function"
    },
    {
      "inputs": [
        {
          "internalType": "address",
          "name": "townToken",
          "type": "address"
        },
        {
          "internalType": "address",
          "name": "userEntitlementImplementation",
          "type": "address"
        },
        {
          "internalType": "address",
          "name": "tokenEntitlementImplementation",
          "type": "address"
        }
      ],
      "name": "setTownArchitectImplementations",
      "outputs": [],
      "stateMutability": "nonpayable",
      "type": "function"
    },
    {
      "inputs": [
        {
          "internalType": "address",
          "name": "token",
          "type": "address"
        }
      ],
      "name": "ungateByToken",
      "outputs": [],
      "stateMutability": "nonpayable",
      "type": "function"
    }
  ],
  "bytecode": {
    "object": "0x60806040523480156200001157600080fd5b506200001c62000022565b620000ca565b7feed92ff1d97f833a6121465a3ac08360f4c7c88d55a5e6a9b0e08466a018167d8054640100000000900460ff16156200006f576040516366008a2d60e01b815260040160405180910390fd5b805463ffffffff9081161015620000c757805463ffffffff191663ffffffff90811782556040519081527fe9c9b456cb2994b80aeef036cf59d26e9617df80f816a6ee5a5b4166e07e2f5c9060200160405180910390a15b50565b61333e80620000da6000396000f3fe60806040523480156200001157600080fd5b5060043610620000ab5760003560e01c80635b560b67116200006e5780635b560b6714620001715780639c7843c21462000188578063ac6eec3714620001ae578063edddeb4d14620001c5578063f8c5908d14620001dc57600080fd5b806311a8b38214620000b057806318c7f06614620000e45780631c05bbc71462000119578063344fe721146200014157806351ec4c1d1462000158575b600080fd5b620000c7620000c136600462001a09565b620001f3565b6040516001600160a01b0390911681526020015b60405180910390f35b620000ee62000206565b604080516001600160a01b0394851681529284166020840152921691810191909152606001620000db565b620001306200012a36600462001a59565b62000283565b6040519015158152602001620000db565b620000c76200015236600462001e6f565b62000290565b6200016f6200016936600462001f7f565b6200038a565b005b6200016f6200018236600462001fc9565b620003df565b6200019f6200019936600462001a09565b6200042e565b604051908152602001620000db565b620000c7620001bf36600462001a09565b6200043b565b6200016f620001d636600462001a59565b6200045d565b6200016f620001ed36600462001f7f565b620004aa565b60006200020082620004f5565b92915050565b600080600062000278600080516020620032fe833981519152547fbfc17bfcd641c969809ea46cafa0234f34c2d733b95035a848e816b1fa9cd8ba547fbfc17bfcd641c969809ea46cafa0234f34c2d733b95035a848e816b1fa9cd8bb546001600160a01b0392831693918316921690565b925092509250909192565b6000620002008262000502565b600060027faa46fb59f33bdb27e6b53912a92179c2c7eebd611f623c30d745d755d2c776ec5403620002d557604051635db5c7cd60e11b815260040160405180910390fd5b620002ff60027faa46fb59f33bdb27e6b53912a92179c2c7eebd611f623c30d745d755d2c776ec55565b7f2a273e5ed51fc6d1f408fd9427b72fcf1a8cb7ffc748ab4d54f3b8247736a2015460ff161562000343576040516302ca8ced60e11b815260040160405180910390fd5b6200034e3362000545565b620003598262000550565b90506200038560017faa46fb59f33bdb27e6b53912a92179c2c7eebd611f623c30d745d755d2c776ec55565b919050565b62000394620007b9565b6001600160a01b0316336001600160a01b031614620003cd576040516365f4906560e01b81523360048201526024015b60405180910390fd5b620003da838383620007e7565b505050565b620003e9620007b9565b6001600160a01b0316336001600160a01b0316146200041e576040516365f4906560e01b8152336004820152602401620003c4565b6200042a8282620007f4565b5050565b6000620002008262000800565b600080620004486200080d565b9050620004568382620008a6565b9392505050565b62000467620007b9565b6001600160a01b0316336001600160a01b0316146200049c576040516365f4906560e01b8152336004820152602401620003c4565b620004a7816200094e565b50565b7feed92ff1d97f833a6121465a3ac08360f4c7c88d55a5e6a9b0e08466a018167d54640100000000900460ff16620003cd57604051630ef4733760e31b815260040160405180910390fd5b600062000200826200099c565b6001600160a01b0380821660009081527e21838b43e034e5a0d20f42ce9ca05b74b34cf419ae1034249310df3263674f6020526040812054909116151562000200565b620004a78162000a02565b600062000561826000015162000b10565b81516200056e9062000b35565b60006200057a6200080d565b90506200058c836000015182620008a6565b91506200059f8360000151828462000b70565b620005ae836020015162000bff565b8251620005bc908262000c86565b91506000620005e86000805160206200331e833981519152600501546001600160a01b03168462000cd6565b90506000620006146000805160206200331e833981519152600601546001600160a01b03168562000cd6565b6040805160028082526060820183529293506000929091602083019080368337019050509050828160008151811062000651576200065162001ff6565b60200260200101906001600160a01b031690816001600160a01b031681525050818160018151811062000688576200068862001ff6565b6001600160a01b039283166020918202929092010152604051638bfc820f60e01b815290861690638bfc820f90620006c59084906004016200200c565b600060405180830381600087803b158015620006e057600080fd5b505af1158015620006f5573d6000803e3d6000fd5b5050505060006200070c8685896040015162000d93565b9050600080886060015160400151511180620007315750600088606001516020015151115b156200074c57620007498786868b6060015162000f11565b90505b6200076e878260000362000761578362000763565b825b8a6080015162001197565b6200077a86336200124d565b6040516001600160a01b038816907f71bcf3e2a9d5705886c642b1bab018544ad0b1206a775cd4431edc6a8530049890600090a2505050505050919050565b7f79ae75762492beaf6e592c7e395674410f8f73b3120cc73dfae9d6c73528681c546001600160a01b031690565b620003da838383620012db565b6200042a8282620013e1565b600062000200826200158c565b600080516020620032fe8339815191525460408051631d5e528f60e21b815290516000926000805160206200331e833981519152926001600160a01b03909116916375794a3c916004818101926020929091908290030181865afa1580156200087a573d6000803e3d6000fd5b505050506040513d601f19601f82011682018060405250810190620008a091906200205b565b91505090565b600080516020620032fe833981519152546000906000805160206200331e8339815191529082908190620008e69087906001600160a01b031687620015e9565b8151602080840191909120604080516001600160f81b0319818501526bffffffffffffffffffffffff193060601b16602182015260358101859052605580820193909352815180820390930183526075019052805191012091935091505b9695505050505050565b620004a7816001600160a01b031660009081527e21838b43e034e5a0d20f42ce9ca05b74b34cf419ae1034249310df3263674f6020526040812080546001600160a01b031916815560010155565b6040516000906000805160206200331e833981519152907fbfc17bfcd641c969809ea46cafa0234f34c2d733b95035a848e816b1fa9cd8b790620009e29085906200209b565b908152604051908190036020019020546001600160a01b03169392505050565b7e21838b43e034e5a0d20f42ce9ca05b74b34cf419ae1034249310df3263674d600062000a2f826200169b565b905060005b8181101562000b0a57600062000a4b8483620016a6565b6001600160a01b03818116600081815260028801602052604090819020600181015491516370a0823160e01b8152938a166004850152939450916370a0823190602401602060405180830381865afa15801562000aac573d6000803e3d6000fd5b505050506040513d601f19601f8201168201806040525081019062000ad291906200205b565b101562000af257604051634125cb7960e11b815260040160405180910390fd5b5050808062000b0190620020b9565b91505062000a34565b50505050565b805181906000036200042a576040516353c210a560e01b815260040160405180910390fd5b6000805160206200331e83398151915262000b518183620016b4565b156200042a57604051635afca61f60e11b815260040160405180910390fd5b6000805160206200331e83398151915262000b8c8185620016c2565b5081816002018560405162000ba291906200209b565b908152602001604051809103902060006101000a8154816001600160a01b0302191690836001600160a01b0316021790555082816003018560405162000be991906200209b565b9081526040519081900360200190205550505050565b600080516020620032fe833981519152546040516275a31760e01b81526000805160206200331e833981519152916001600160a01b0316906275a3179062000c4e90309086906004016200210f565b600060405180830381600087803b15801562000c6957600080fd5b505af115801562000c7e573d6000803e3d6000fd5b505050505050565b600080516020620032fe833981519152546000906000805160206200331e833981519152908290819062000cc69087906001600160a01b031687620015e9565b91509150620009448282620016d0565b6000806040518060200162000ceb9062001894565b601f1982820381018352601f9091011660408190526001600160a01b0385166024820152859060440160408051601f19818403018152918152602080830180516001600160e01b031663189acdbd60e31b179052905162000d4f939291016200210f565b60408051601f198184030181529082905262000d6f929160200162002135565b604051602081830303815290604052905062000d8b816200170b565b949350505050565b604080516001808252818301909252600091829190816020015b60408051808201909152600081526060602082015281526020019060019003908162000dad575050604080516001808252818301909252919250600091906020808301908036833701905050905060018160008151811062000e135762000e1362001ff6565b60200260200101906001600160a01b031690816001600160a01b0316815250506040518060400160405280866001600160a01b031681526020018260405160200162000e6091906200200c565b6040516020818303038152906040528152508260008151811062000e885762000e8862001ff6565b602090810291909101810191909152845190850151604051638fcd793d60e01b81526001600160a01b03891692638fcd793d9262000ecb92879060040162002191565b6020604051808303816000875af115801562000eeb573d6000803e3d6000fd5b505050506040513d601f19601f820116820180604052508101906200094491906200205b565b805180516020918201516040805160008082529481019091526001600160a01b03881692638fcd793d9290918562000f6d565b60408051808201909152600081526060602082015281526020019060019003908162000f445790505b506040518463ffffffff1660e01b815260040162000f8e9392919062002191565b6020604051808303816000875af115801562000fae573d6000803e3d6000fd5b505050506040513d601f19601f8201168201806040525081019062000fd491906200205b565b9050816040015151600014620010dd5760005b8260400151518110156200103557620010208360400151828151811062001012576200101262001ff6565b602002602001015162001745565b806200102c81620020b9565b91505062000fe7565b50846001600160a01b031663ba201ba8826040518060400160405280886001600160a01b0316815260200186604001516040516020016200107791906200200c565b6040516020818303038152906040528152506040518363ffffffff1660e01b8152600401620010a892919062002263565b600060405180830381600087803b158015620010c357600080fd5b505af1158015620010d8573d6000803e3d6000fd5b505050505b6020820151511562000d8b57846001600160a01b031663ba201ba8826040518060400160405280876001600160a01b0316815260200186602001516040516020016200112a9190620022bb565b6040516020818303038152906040528152506040518363ffffffff1660e01b81526004016200115b92919062002263565b600060405180830381600087803b1580156200117657600080fd5b505af11580156200118b573d6000803e3d6000fd5b50505050949350505050565b604080516001808252818301909252600091602080830190803683370190505090508281600081518110620011d057620011d062001ff6565b6020908102919091018101919091528251908301516040516328fc1e7560e11b81526001600160a01b038716926351f83cea926200121392869060040162002355565b600060405180830381600087803b1580156200122e57600080fd5b505af115801562001243573d6000803e3d6000fd5b5050505050505050565b60006000805160206200331e8339815191526004818101546040516323b872dd60e01b815230928101929092526001600160a01b0385811660248401526044830187905292935091909116906323b872dd90606401600060405180830381600087803b158015620012bd57600080fd5b505af1158015620012d2573d6000803e3d6000fd5b50505050505050565b6001600160a01b0383163b62001304576040516303ff021160e21b815260040160405180910390fd5b6001600160a01b0382163b6200132d576040516303ff021160e21b815260040160405180910390fd5b6001600160a01b0381163b62001356576040516303ff021160e21b815260040160405180910390fd5b600080516020620032fe83398151915280546001600160a01b039485166001600160a01b0319918216179091557fbfc17bfcd641c969809ea46cafa0234f34c2d733b95035a848e816b1fa9cd8ba8054938516938216939093179092557fbfc17bfcd641c969809ea46cafa0234f34c2d733b95035a848e816b1fa9cd8bb8054919093169116179055565b6040516301ffc9a760e01b81526380ac58cd60e01b60048201526001600160a01b038316906301ffc9a790602401602060405180830381865afa1580156200142d573d6000803e3d6000fd5b505050506040513d601f19601f8201168201806040525081019062001453919062002394565b158015620014d057506040516301ffc9a760e01b81526336372b0760e01b60048201526001600160a01b038316906301ffc9a790602401602060405180830381865afa158015620014a8573d6000803e3d6000fd5b505050506040513d601f19601f82011682018060405250810190620014ce919062002394565b155b15620014ef57604051634125cb7960e11b815260040160405180910390fd5b806000036200151157604051634125cb7960e11b815260040160405180910390fd5b7e21838b43e034e5a0d20f42ce9ca05b74b34cf419ae1034249310df3263674d6200153d81846200176d565b506040805180820182526001600160a01b03948516808252602080830195865260009182526002949094019093529120905181546001600160a01b031916931692909217825551600190910155565b6040516000906000805160206200331e833981519152907fbfc17bfcd641c969809ea46cafa0234f34c2d733b95035a848e816b1fa9cd8b890620015d29085906200209b565b908152602001604051809103902054915050919050565b606060008484846040516020016200160493929190620023b4565b604051602081830303815290604052805190602001209050604051806020016200162e90620018a2565b601f1982820381018352601f909101166040819052620016629063dc9cc64560e01b903090899089908990602001620023e4565b60408051601f198184030181529082905262001682929160200162002135565b6040516020818303038152906040529150935093915050565b600062000200825490565b600062000456838362001784565b6000620004568383620017b1565b6000620004568383620017e0565b60008260200183518381836000f59250506001600160a01b0382169050620002005760405163ef35ca1960e01b815260040160405180910390fd5b600081602001825180826000f09250506001600160a01b0382169050620003855760405163ef35ca1960e01b815260040160405180910390fd5b6001600160a01b038116620004a75760405163173db86d60e21b815260040160405180910390fd5b600062000456836001600160a01b0384166200184b565b60008260000182815481106200179e576200179e62001ff6565b9060005260206000200154905092915050565b60008260010182604051620017c791906200209b565b9081526040519081900360200190205415159392505050565b6000620017ee8383620017b1565b6200184257825460018101845560008481526020902001620018118382620024b5565b5082546040516001850190620018299085906200209b565b9081526040519081900360200190205550600162000200565b50600062000200565b6000818152600183016020526040812054620018425750815460018181018455600084815260208082209093018490558454848252828601909352604090209190915562000200565b6104ab806200258283390190565b6108d18062002a2d83390190565b634e487b7160e01b600052604160045260246000fd5b604080519081016001600160401b0381118282101715620018eb57620018eb620018b0565b60405290565b604051606081016001600160401b0381118282101715620018eb57620018eb620018b0565b604051608081016001600160401b0381118282101715620018eb57620018eb620018b0565b60405160a081016001600160401b0381118282101715620018eb57620018eb620018b0565b604051601f8201601f191681016001600160401b03811182821017156200198b576200198b620018b0565b604052919050565b600082601f830112620019a557600080fd5b81356001600160401b03811115620019c157620019c1620018b0565b620019d6601f8201601f191660200162001960565b818152846020838601011115620019ec57600080fd5b816020850160208301376000918101602001919091529392505050565b60006020828403121562001a1c57600080fd5b81356001600160401b0381111562001a3357600080fd5b62000d8b8482850162001993565b80356001600160a01b03811681146200038557600080fd5b60006020828403121562001a6c57600080fd5b620004568262001a41565b60006001600160401b0382111562001a935762001a93620018b0565b5060051b60200190565b60006040828403121562001ab057600080fd5b62001aba620018c6565b905081356001600160401b038082111562001ad457600080fd5b62001ae28583860162001993565b835260209150818401358181111562001afa57600080fd5b8401601f8101861362001b0c57600080fd5b803562001b2362001b1d8262001a77565b62001960565b81815260059190911b8201840190848101908883111562001b4357600080fd5b8584015b8381101562001b805780358681111562001b615760008081fd5b62001b718b898389010162001993565b84525091860191860162001b47565b50808688015250505050505092915050565b8015158114620004a757600080fd5b600082601f83011262001bb357600080fd5b8135602062001bc662001b1d8362001a77565b82815260059290921b8401810191818101908684111562001be657600080fd5b8286015b8481101562001c0c5762001bfe8162001a41565b835291830191830162001bea565b509695505050505050565b60006060828403121562001c2a57600080fd5b62001c34620018f1565b905081356001600160401b038082111562001c4e57600080fd5b62001c5c8583860162001a9d565b835260209150818401358181111562001c7457600080fd5b8401601f8101861362001c8657600080fd5b803562001c9762001b1d8262001a77565b81815260059190911b8201840190848101908883111562001cb757600080fd5b8584015b8381101562001dbe5780358681111562001cd55760008081fd5b85016080818c03601f190181131562001cee5760008081fd5b62001cf862001916565b62001d058a840162001a41565b81526040808401358b830152606084013562001d218162001b92565b8282015291830135918983111562001d395760008081fd5b82840193508d603f85011262001d5157600092508283fd5b8a840135925062001d6662001b1d8462001a77565b83815260059390931b84018101928b8101908f85111562001d875760008081fd5b948201945b8486101562001da75785358252948c0194908c019062001d8c565b606084015250508552505091860191860162001cbb565b50808688015250505050604084013591508082111562001ddd57600080fd5b5062001dec8482850162001ba1565b60408301525092915050565b60006040828403121562001e0b57600080fd5b62001e15620018c6565b905081356001600160401b038082111562001e2f57600080fd5b62001e3d8583860162001993565b8352602084013591508082111562001e5457600080fd5b5062001e638482850162001993565b60208301525092915050565b60006020828403121562001e8257600080fd5b81356001600160401b038082111562001e9a57600080fd5b9083019060a0828603121562001eaf57600080fd5b62001eb96200193b565b82358281111562001ec957600080fd5b62001ed78782860162001993565b82525060208301358281111562001eed57600080fd5b62001efb8782860162001993565b60208301525060408301358281111562001f1457600080fd5b62001f228782860162001a9d565b60408301525060608301358281111562001f3b57600080fd5b62001f498782860162001c17565b60608301525060808301358281111562001f6257600080fd5b62001f708782860162001df8565b60808301525095945050505050565b60008060006060848603121562001f9557600080fd5b62001fa08462001a41565b925062001fb06020850162001a41565b915062001fc06040850162001a41565b90509250925092565b6000806040838503121562001fdd57600080fd5b62001fe88362001a41565b946020939093013593505050565b634e487b7160e01b600052603260045260246000fd5b6020808252825182820181905260009190848201906040850190845b818110156200204f5783516001600160a01b03168352928401929184019160010162002028565b50909695505050505050565b6000602082840312156200206e57600080fd5b5051919050565b60005b838110156200209257818101518382015260200162002078565b50506000910152565b60008251620020af81846020870162002075565b9190910192915050565b600060018201620020da57634e487b7160e01b600052601160045260246000fd5b5060010190565b60008151808452620020fb81602086016020860162002075565b601f01601f19169290920160200192915050565b6001600160a01b038316815260406020820181905260009062000d8b90830184620020e1565b600083516200214981846020880162002075565b8351908301906200215f81836020880162002075565b01949350505050565b60018060a01b038151168252600060208201516040602085015262000d8b6040850182620020e1565b606081526000620021a66060830186620020e1565b6020838203818501528186518084528284019150828160051b85010183890160005b83811015620021fa57601f19878403018552620021e7838351620020e1565b94860194925090850190600101620021c8565b50508681036040880152875180825284820195509250600583901b81018401915083880160005b848110156200225357601f198385030187526200224084835162002168565b9686019693509085019060010162002221565b50919a9950505050505050505050565b82815260406020820152600062000d8b604083018462002168565b600081518084526020808501945080840160005b83811015620022b05781518752958201959082019060010162002292565b509495945050505050565b60006020808301818452808551808352604092508286019150828160051b87010184880160005b838110156200234757888303603f19018552815180516001600160a01b0316845287810151888501528681015115158785015260609081015160809185018290529062002332818601836200227e565b968901969450505090860190600101620022e2565b509098975050505050505050565b6060815260006200236a6060830186620020e1565b82810360208401526200237e8186620020e1565b905082810360408401526200094481856200227e565b600060208284031215620023a757600080fd5b8151620004568162001b92565b606081526000620023c96060830186620020e1565b6001600160a01b039490941660208301525060400152919050565b6001600160e01b0319861681526001600160a01b03858116602083015260a060408301819052600091906200241c90840187620020e1565b9416606083015250608001529392505050565b600181811c908216806200244457607f821691505b6020821081036200246557634e487b7160e01b600052602260045260246000fd5b50919050565b601f821115620003da57600081815260208120601f850160051c81016020861015620024945750805b601f850160051c820191505b8181101562000c7e57828155600101620024a0565b81516001600160401b03811115620024d157620024d1620018b0565b620024e981620024e284546200242f565b846200246b565b602080601f831160018114620025215760008415620025085750858301515b600019600386901b1c1916600185901b17855562000c7e565b600085815260208120601f198616915b82811015620025525788860151825594840194600190910190840162002531565b5085821015620025715787850151600019600388901b60f8161c191681555b5050505050600190811b0190555056fe60806040526040516104ab3803806104ab833981016040819052610022916102de565b61002e82826000610035565b50506103fb565b61003e83610061565b60008251118061004b5750805b1561005c5761005a83836100a1565b505b505050565b61006a816100cd565b6040516001600160a01b038216907fbc7cd75a20ee27fd9adebab32041f755214dbc6bffa90cc0225b39da2e5c2d3b90600090a250565b60606100c6838360405180606001604052806027815260200161048460279139610180565b9392505050565b6001600160a01b0381163b61013f5760405162461bcd60e51b815260206004820152602d60248201527f455243313936373a206e657720696d706c656d656e746174696f6e206973206e60448201526c1bdd08184818dbdb9d1c9858dd609a1b60648201526084015b60405180910390fd5b7f360894a13ba1a3210667c828492db98dca3e2076cc3735a920a3ca505d382bbc80546001600160a01b0319166001600160a01b0392909216919091179055565b6060600080856001600160a01b03168560405161019d91906103ac565b600060405180830381855af49150503d80600081146101d8576040519150601f19603f3d011682016040523d82523d6000602084013e6101dd565b606091505b5090925090506101ef868383876101f9565b9695505050505050565b60608315610268578251600003610261576001600160a01b0385163b6102615760405162461bcd60e51b815260206004820152601d60248201527f416464726573733a2063616c6c20746f206e6f6e2d636f6e74726163740000006044820152606401610136565b5081610272565b610272838361027a565b949350505050565b81511561028a5781518083602001fd5b8060405162461bcd60e51b815260040161013691906103c8565b634e487b7160e01b600052604160045260246000fd5b60005b838110156102d55781810151838201526020016102bd565b50506000910152565b600080604083850312156102f157600080fd5b82516001600160a01b038116811461030857600080fd5b60208401519092506001600160401b038082111561032557600080fd5b818501915085601f83011261033957600080fd5b81518181111561034b5761034b6102a4565b604051601f8201601f19908116603f01168101908382118183101715610373576103736102a4565b8160405282815288602084870101111561038c57600080fd5b61039d8360208301602088016102ba565b80955050505050509250929050565b600082516103be8184602087016102ba565b9190910192915050565b60208152600082518060208401526103e78160408501602087016102ba565b601f01601f19169190910160400192915050565b607b806104096000396000f3fe608060405236601057600e6013565b005b600e5b601f601b6021565b6058565b565b600060537f360894a13ba1a3210667c828492db98dca3e2076cc3735a920a3ca505d382bbc546001600160a01b031690565b905090565b3660008037600080366000845af43d6000803e8080156076573d6000f35b3d6000fd416464726573733a206c6f772d6c6576656c2064656c65676174652063616c6c206661696c6564608060405234801561001057600080fd5b506040516108d13803806108d183398101604081905261002f91610159565b610038836100f0565b7f9953d61155411d1e93774c9af7fbb3934a6ddecd97959b629253038bebab4a9c80546001600160c01b031916600160a01b60e088901c026001600160a01b031916176001600160a01b0386161790557fdbd5af3db28136204db6a4cff1462f270d2d08a00327c8f96c7d68d8c530903f80546001600160a01b0319166001600160a01b0384161790557fdbd5af3db28136204db6a4cff1462f270d2d08a00327c8f96c7d68d8c530904081905550505050506103b5565b7f37387c92bc1af262a940de25ef2429d783e8c29c13c4034586a4ebfcff884ad18061011c83826102f6565b504260019091015550565b80516001600160a01b038116811461013e57600080fd5b919050565b634e487b7160e01b600052604160045260246000fd5b600080600080600060a0868803121561017157600080fd5b85516001600160e01b03198116811461018957600080fd5b94506020610198878201610127565b60408801519095506001600160401b03808211156101b557600080fd5b818901915089601f8301126101c957600080fd5b8151818111156101db576101db610143565b604051601f8201601f19908116603f0116810190838211818310171561020357610203610143565b816040528281528c8684870101111561021b57600080fd5b600093505b8284101561023d5784840186015181850187015292850192610220565b600086848301015280985050505050505061025a60608701610127565b9150608086015190509295509295909350565b600181811c9082168061028157607f821691505b6020821081036102a157634e487b7160e01b600052602260045260246000fd5b50919050565b601f8211156102f157600081815260208120601f850160051c810160208610156102ce5750805b601f850160051c820191505b818110156102ed578281556001016102da565b5050505b505050565b81516001600160401b0381111561030f5761030f610143565b6103238161031d845461026d565b846102a7565b602080601f83116001811461035857600084156103405750858301515b600019600386901b1c1916600185901b1785556102ed565b600085815260208120601f198616915b8281101561038757888601518255948401946001909101908401610368565b50858210156103a55787850151600019600388901b60f8161c191681555b5050505050600190811b01905550565b61050d806103c46000396000f3fe6080604052600436106100225760003560e01c8063ac9650d81461003357610029565b3661002957005b610031610069565b005b34801561003f57600080fd5b5061005361004e366004610324565b6100c1565b60405161006091906103bd565b60405180910390f35b60006100736101de565b90506001600160a01b0381163b61009d576040516321f27f0d60e21b815260040160405180910390fd5b3660008037600080366000845af43d6000803e8080156100bc573d6000f35b3d6000fd5b6060818067ffffffffffffffff8111156100dd576100dd610437565b60405190808252806020026020018201604052801561011057816020015b60608152602001906001900390816100fb5790505b50915060005b818110156101d657600080308787858181106101345761013461044d565b90506020028101906101469190610463565b6040516101549291906104b1565b600060405180830381855af49150503d806000811461018f576040519150601f19603f3d011682016040523d82523d6000602084013e610194565b606091505b509150915081156101c257808584815181106101b2576101b261044d565b60200260200101819052506101cc565b3d6000803e3d6000fd5b5050600101610116565b505092915050565b7f9953d61155411d1e93774c9af7fbb3934a6ddecd97959b629253038bebab4a9c54600090600160a01b900460e01b81806102407f9953d61155411d1e93774c9af7fbb3934a6ddecd97959b629253038bebab4a9c546001600160a01b031690565b6040516001600160e01b03196000351660248201526001600160a01b039190911690849060440160408051601f198184030181529181526020820180516001600160e01b03166001600160e01b03199094169390931790925290516102a591906104c1565b600060405180830381855afa9150503d80600081146102e0576040519150601f19603f3d011682016040523d82523d6000602084013e6102e5565b606091505b5091509150816103085760405163391aa44560e01b815260040160405180910390fd5b8080602001905181019061031c91906104dd565b935050505090565b6000806020838503121561033757600080fd5b823567ffffffffffffffff8082111561034f57600080fd5b818501915085601f83011261036357600080fd5b81358181111561037257600080fd5b8660208260051b850101111561038757600080fd5b60209290920196919550909350505050565b60005b838110156103b457818101518382015260200161039c565b50506000910152565b6000602080830181845280855180835260408601915060408160051b870101925083870160005b8281101561042a57878503603f190184528151805180875261040b818989018a8501610399565b601f01601f1916959095018601945092850192908501906001016103e4565b5092979650505050505050565b634e487b7160e01b600052604160045260246000fd5b634e487b7160e01b600052603260045260246000fd5b6000808335601e1984360301811261047a57600080fd5b83018035915067ffffffffffffffff82111561049557600080fd5b6020019150368190038213156104aa57600080fd5b9250929050565b8183823760009101908152919050565b600082516104d3818460208701610399565b9190910192915050565b6000602082840312156104ef57600080fd5b81516001600160a01b038116811461050657600080fd5b939250505056bfc17bfcd641c969809ea46cafa0234f34c2d733b95035a848e816b1fa9cd8b9bfc17bfcd641c969809ea46cafa0234f34c2d733b95035a848e816b1fa9cd8b5",
    "linkReferences": {}
  },
  "methodIdentifiers": {
    "__TownArchitect_init(address,address,address)": "f8c5908d",
    "computeTown(string)": "ac6eec37",
    "createTown((string,string,(string,string[]),((string,string[]),(address,uint256,bool,uint256[])[],address[]),(string,string)))": "344fe721",
    "gateByToken(address,uint256)": "5b560b67",
    "getTokenIdByTownId(string)": "9c7843c2",
    "getTownArchitectImplementations()": "18c7f066",
    "getTownById(string)": "11a8b382",
    "isTokenGated(address)": "1c05bbc7",
    "setTownArchitectImplementations(address,address,address)": "51ec4c1d",
    "ungateByToken(address)": "edddeb4d"
  },
  "id": 122
}