{
  "abi": [
    {
      "inputs": [],
      "name": "AlreadyDisabled",
      "type": "error"
    },
    {
      "inputs": [],
      "name": "AlreadyEnabled",
      "type": "error"
    },
    {
      "inputs": [],
      "name": "ApprovalCallerNotOwnerNorApproved",
      "type": "error"
    },
    {
      "inputs": [],
      "name": "ApprovalQueryForNonexistentToken",
      "type": "error"
    },
    {
      "inputs": [],
      "name": "BalanceQueryForZeroAddress",
      "type": "error"
    },
    {
      "inputs": [],
      "name": "GuardianEnabled",
      "type": "error"
    },
    {
      "inputs": [],
      "name": "Initializable_InInitializingState",
      "type": "error"
    },
    {
      "inputs": [],
      "name": "Initializable_NotInInitializingState",
      "type": "error"
    },
    {
      "inputs": [],
      "name": "Introspection_AlreadySupported",
      "type": "error"
    },
    {
      "inputs": [],
      "name": "Introspection_NotSupported",
      "type": "error"
    },
    {
      "inputs": [],
      "name": "MintERC2309QuantityExceedsLimit",
      "type": "error"
    },
    {
      "inputs": [],
      "name": "MintToZeroAddress",
      "type": "error"
    },
    {
      "inputs": [],
      "name": "MintZeroQuantity",
      "type": "error"
    },
    {
      "inputs": [],
      "name": "NotExternalAccount",
      "type": "error"
    },
    {
      "inputs": [
        {
          "internalType": "address",
          "name": "account",
          "type": "address"
        }
      ],
      "name": "Ownable__NotOwner",
      "type": "error"
    },
    {
      "inputs": [],
      "name": "Ownable__ZeroAddress",
      "type": "error"
    },
    {
      "inputs": [],
      "name": "OwnerQueryForNonexistentToken",
      "type": "error"
    },
    {
      "inputs": [],
      "name": "OwnershipNotInitializedForExtraData",
      "type": "error"
    },
    {
      "inputs": [],
      "name": "TownOwner__OnlyFactoryAllowed",
      "type": "error"
    },
    {
      "inputs": [],
      "name": "TransferCallerNotOwnerNorApproved",
      "type": "error"
    },
    {
      "inputs": [],
      "name": "TransferFromIncorrectOwner",
      "type": "error"
    },
    {
      "inputs": [],
      "name": "TransferToNonERC721ReceiverImplementer",
      "type": "error"
    },
    {
      "inputs": [],
      "name": "TransferToZeroAddress",
      "type": "error"
    },
    {
      "inputs": [],
      "name": "URIQueryForNonexistentToken",
      "type": "error"
    },
    {
      "anonymous": false,
      "inputs": [
        {
          "indexed": true,
          "internalType": "address",
          "name": "owner",
          "type": "address"
        },
        {
          "indexed": true,
          "internalType": "address",
          "name": "approved",
          "type": "address"
        },
        {
          "indexed": true,
          "internalType": "uint256",
          "name": "tokenId",
          "type": "uint256"
        }
      ],
      "name": "Approval",
      "type": "event"
    },
    {
      "anonymous": false,
      "inputs": [
        {
          "indexed": true,
          "internalType": "address",
          "name": "owner",
          "type": "address"
        },
        {
          "indexed": true,
          "internalType": "address",
          "name": "operator",
          "type": "address"
        },
        {
          "indexed": false,
          "internalType": "bool",
          "name": "approved",
          "type": "bool"
        }
      ],
      "name": "ApprovalForAll",
      "type": "event"
    },
    {
      "anonymous": false,
      "inputs": [
        {
          "indexed": true,
          "internalType": "uint256",
          "name": "fromTokenId",
          "type": "uint256"
        },
        {
          "indexed": false,
          "internalType": "uint256",
          "name": "toTokenId",
          "type": "uint256"
        },
        {
          "indexed": true,
          "internalType": "address",
          "name": "from",
          "type": "address"
        },
        {
          "indexed": true,
          "internalType": "address",
          "name": "to",
          "type": "address"
        }
      ],
      "name": "ConsecutiveTransfer",
      "type": "event"
    },
    {
      "anonymous": false,
      "inputs": [
        {
          "indexed": true,
          "internalType": "address",
          "name": "caller",
          "type": "address"
        },
        {
          "indexed": true,
          "internalType": "bool",
          "name": "enabled",
          "type": "bool"
        },
        {
          "indexed": false,
          "internalType": "uint256",
          "name": "cooldown",
          "type": "uint256"
        },
        {
          "indexed": false,
          "internalType": "uint256",
          "name": "timestamp",
          "type": "uint256"
        }
      ],
      "name": "GuardianUpdated",
      "type": "event"
    },
    {
      "anonymous": false,
      "inputs": [
        {
          "indexed": false,
          "internalType": "uint32",
          "name": "version",
          "type": "uint32"
        }
      ],
      "name": "Initialized",
      "type": "event"
    },
    {
      "anonymous": false,
      "inputs": [
        {
          "indexed": true,
          "internalType": "bytes4",
          "name": "interfaceId",
          "type": "bytes4"
        }
      ],
      "name": "InterfaceAdded",
      "type": "event"
    },
    {
      "anonymous": false,
      "inputs": [
        {
          "indexed": true,
          "internalType": "bytes4",
          "name": "interfaceId",
          "type": "bytes4"
        }
      ],
      "name": "InterfaceRemoved",
      "type": "event"
    },
    {
      "anonymous": false,
      "inputs": [
        {
          "indexed": true,
          "internalType": "address",
          "name": "previousOwner",
          "type": "address"
        },
        {
          "indexed": true,
          "internalType": "address",
          "name": "newOwner",
          "type": "address"
        }
      ],
      "name": "OwnershipTransferred",
      "type": "event"
    },
    {
      "anonymous": false,
      "inputs": [
        {
          "indexed": true,
          "internalType": "address",
          "name": "from",
          "type": "address"
        },
        {
          "indexed": true,
          "internalType": "address",
          "name": "to",
          "type": "address"
        },
        {
          "indexed": true,
          "internalType": "uint256",
          "name": "tokenId",
          "type": "uint256"
        }
      ],
      "name": "Transfer",
      "type": "event"
    },
    {
      "inputs": [
        {
          "internalType": "string",
          "name": "name_",
          "type": "string"
        },
        {
          "internalType": "string",
          "name": "symbol_",
          "type": "string"
        }
      ],
      "name": "__ERC721A_init",
      "outputs": [],
      "stateMutability": "nonpayable",
      "type": "function"
    },
    {
      "inputs": [
        {
          "internalType": "address",
          "name": "to",
          "type": "address"
        },
        {
          "internalType": "uint256",
          "name": "tokenId",
          "type": "uint256"
        }
      ],
      "name": "approve",
      "outputs": [],
      "stateMutability": "payable",
      "type": "function"
    },
    {
      "inputs": [
        {
          "internalType": "address",
          "name": "owner",
          "type": "address"
        }
      ],
      "name": "balanceOf",
      "outputs": [
        {
          "internalType": "uint256",
          "name": "",
          "type": "uint256"
        }
      ],
      "stateMutability": "view",
      "type": "function"
    },
    {
      "inputs": [
        {
          "internalType": "uint256",
          "name": "tokenId",
          "type": "uint256"
        }
      ],
      "name": "getApproved",
      "outputs": [
        {
          "internalType": "address",
          "name": "",
          "type": "address"
        }
      ],
      "stateMutability": "view",
      "type": "function"
    },
    {
      "inputs": [],
      "name": "getFactory",
      "outputs": [
        {
          "internalType": "address",
          "name": "",
          "type": "address"
        }
      ],
      "stateMutability": "view",
      "type": "function"
    },
    {
      "inputs": [
        {
          "internalType": "address",
          "name": "townAddress",
          "type": "address"
        }
      ],
      "name": "getTownInfo",
      "outputs": [
        {
          "components": [
            {
              "internalType": "string",
              "name": "name",
              "type": "string"
            },
            {
              "internalType": "string",
              "name": "uri",
              "type": "string"
            },
            {
              "internalType": "uint256",
              "name": "tokenId",
              "type": "uint256"
            },
            {
              "internalType": "string",
              "name": "networkId",
              "type": "string"
            },
            {
              "internalType": "uint256",
              "name": "createdAt",
              "type": "uint256"
            }
          ],
          "internalType": "struct ITownOwnerBase.Town",
          "name": "",
          "type": "tuple"
        }
      ],
      "stateMutability": "view",
      "type": "function"
    },
    {
      "inputs": [
        {
          "internalType": "address",
          "name": "owner",
          "type": "address"
        },
        {
          "internalType": "address",
          "name": "operator",
          "type": "address"
        }
      ],
      "name": "isApprovedForAll",
      "outputs": [
        {
          "internalType": "bool",
          "name": "",
          "type": "bool"
        }
      ],
      "stateMutability": "view",
      "type": "function"
    },
    {
      "inputs": [
        {
          "internalType": "string",
          "name": "name",
          "type": "string"
        },
        {
          "internalType": "string",
          "name": "uri",
          "type": "string"
        },
        {
          "internalType": "string",
          "name": "networkId",
          "type": "string"
        },
        {
          "internalType": "address",
          "name": "townAddress",
          "type": "address"
        }
      ],
      "name": "mintTown",
      "outputs": [
        {
          "internalType": "uint256",
          "name": "tokenId",
          "type": "uint256"
        }
      ],
      "stateMutability": "nonpayable",
      "type": "function"
    },
    {
      "inputs": [],
      "name": "name",
      "outputs": [
        {
          "internalType": "string",
          "name": "",
          "type": "string"
        }
      ],
      "stateMutability": "view",
      "type": "function"
    },
    {
      "inputs": [],
      "name": "nextTokenId",
      "outputs": [
        {
          "internalType": "uint256",
          "name": "",
          "type": "uint256"
        }
      ],
      "stateMutability": "view",
      "type": "function"
    },
    {
      "inputs": [
        {
          "internalType": "uint256",
          "name": "tokenId",
          "type": "uint256"
        }
      ],
      "name": "ownerOf",
      "outputs": [
        {
          "internalType": "address",
          "name": "",
          "type": "address"
        }
      ],
      "stateMutability": "view",
      "type": "function"
    },
    {
      "inputs": [
        {
          "internalType": "address",
          "name": "from",
          "type": "address"
        },
        {
          "internalType": "address",
          "name": "to",
          "type": "address"
        },
        {
          "internalType": "uint256",
          "name": "tokenId",
          "type": "uint256"
        }
      ],
      "name": "safeTransferFrom",
      "outputs": [],
      "stateMutability": "payable",
      "type": "function"
    },
    {
      "inputs": [
        {
          "internalType": "address",
          "name": "from",
          "type": "address"
        },
        {
          "internalType": "address",
          "name": "to",
          "type": "address"
        },
        {
          "internalType": "uint256",
          "name": "tokenId",
          "type": "uint256"
        },
        {
          "internalType": "bytes",
          "name": "_data",
          "type": "bytes"
        }
      ],
      "name": "safeTransferFrom",
      "outputs": [],
      "stateMutability": "payable",
      "type": "function"
    },
    {
      "inputs": [
        {
          "internalType": "address",
          "name": "operator",
          "type": "address"
        },
        {
          "internalType": "bool",
          "name": "approved",
          "type": "bool"
        }
      ],
      "name": "setApprovalForAll",
      "outputs": [],
      "stateMutability": "nonpayable",
      "type": "function"
    },
    {
      "inputs": [
        {
          "internalType": "address",
          "name": "factory",
          "type": "address"
        }
      ],
      "name": "setFactory",
      "outputs": [],
      "stateMutability": "nonpayable",
      "type": "function"
    },
    {
      "inputs": [],
      "name": "symbol",
      "outputs": [
        {
          "internalType": "string",
          "name": "",
          "type": "string"
        }
      ],
      "stateMutability": "view",
      "type": "function"
    },
    {
      "inputs": [
        {
          "internalType": "uint256",
          "name": "tokenId",
          "type": "uint256"
        }
      ],
      "name": "tokenURI",
      "outputs": [
        {
          "internalType": "string",
          "name": "",
          "type": "string"
        }
      ],
      "stateMutability": "view",
      "type": "function"
    },
    {
      "inputs": [],
      "name": "totalSupply",
      "outputs": [
        {
          "internalType": "uint256",
          "name": "",
          "type": "uint256"
        }
      ],
      "stateMutability": "view",
      "type": "function"
    },
    {
      "inputs": [
        {
          "internalType": "address",
          "name": "from",
          "type": "address"
        },
        {
          "internalType": "address",
          "name": "to",
          "type": "address"
        },
        {
          "internalType": "uint256",
          "name": "tokenId",
          "type": "uint256"
        }
      ],
      "name": "transferFrom",
      "outputs": [],
      "stateMutability": "payable",
      "type": "function"
    }
  ],
  "bytecode": {
    "object": "0x608060405234801561001057600080fd5b5061001961001e565b6100c4565b7f2d0d21306acfe8e9bb163a4573e95aff6cef95dc1102c6a16d5f19eac08cc4de8054640100000000900460ff161561006a576040516366008a2d60e01b815260040160405180910390fd5b805463ffffffff90811610156100c157805463ffffffff191663ffffffff90811782556040519081527fe9c9b456cb2994b80aeef036cf59d26e9617df80f816a6ee5a5b4166e07e2f5c9060200160405180910390a15b50565b611b76806100d36000396000f3fe6080604052600436106101145760003560e01c806370a08231116100a0578063ac9207f411610064578063ac9207f4146102b5578063b88d4fde146102e2578063c87b56dd146102f5578063d2f01f1914610315578063e985e9c51461033557600080fd5b806370a082311461023657806375794a3c1461025657806388cc58e41461026b57806395d89b4114610280578063a22cb4651461029557600080fd5b806318160ddd116100e757806318160ddd146101bb57806323b872dd146101d057806342842e0e146101e35780635bb47808146101f65780636352211e1461021657600080fd5b8063062528081461011957806306fdde031461014c578063081812fc1461016e578063095ea7b3146101a6575b600080fd5b34801561012557600080fd5b50610139610134366004611621565b610365565b6040519081526020015b60405180910390f35b34801561015857600080fd5b506101616103cf565b604051610143919061170a565b34801561017a57600080fd5b5061018e61018936600461171d565b61046a565b6040516001600160a01b039091168152602001610143565b6101b96101b4366004611736565b61047b565b005b3480156101c757600080fd5b506101396104c3565b6101b96101de366004611760565b6104e2565b6101b96101f1366004611760565b6106e6565b34801561020257600080fd5b506101b961021136600461179c565b610706565b34801561022257600080fd5b5061018e61023136600461171d565b610781565b34801561024257600080fd5b5061013961025136600461179c565b61078c565b34801561026257600080fd5b506101396107f5565b34801561027757600080fd5b5061018e610804565b34801561028c57600080fd5b50610161610825565b3480156102a157600080fd5b506101b96102b03660046117b7565b61083d565b3480156102c157600080fd5b506102d56102d036600461179c565b610876565b60405161014391906117f3565b6101b96102f036600461186c565b6108b1565b34801561030157600080fd5b5061016161031036600461171d565b6108fb565b34801561032157600080fd5b506101b96103303660046118e8565b61098c565b34801561034157600080fd5b5061035561035036600461194c565b6109e0565b6040519015158152602001610143565b600080600080516020611b5683398151915280549091506001600160a01b031633146103a45760405163b73edbc160e01b815260040160405180910390fd5b6103ac6109ec565b91506103bb86868486886109fc565b6103c6336001610ac5565b50949350505050565b60606103d9610adf565b60020180546103e79061197f565b80601f01602080910402602001604051908101604052809291908181526020018280546104139061197f565b80156104605780601f1061043557610100808354040283529160200191610460565b820191906000526020600020905b81548152906001019060200180831161044357829003601f168201915b5050505050905090565b600061047582610b03565b92915050565b6001600160a01b03821615801590610497575061049733610b50565b156104b557604051638043dfaf60e01b815260040160405180910390fd5b6104bf8282610bcc565b5050565b6000806104ce610adf565b600101546104da610adf565b540303919050565b60006104ed82610bd8565b9050836001600160a01b0316816001600160a01b0316146105205760405162a1148160e81b815260040160405180910390fd5b60008061052c84610c7d565b91509150610551818761053c3390565b6001600160a01b039081169116811491141790565b61057c5761055f86336109e0565b61057c57604051632ce44b5f60e11b815260040160405180910390fd5b6001600160a01b0385166105a357604051633a954ecd60e21b815260040160405180910390fd5b6105b08686866001610ca5565b80156105bb57600082555b6105c3610adf565b6001600160a01b03871660009081526005919091016020526040902080546000190190556105ef610adf565b6001600160a01b03861660008181526005929092016020526040909120805460010190554260a01b17600160e11b17610626610adf565b60008681526004919091016020526040812091909155600160e11b8416900361069c5760018401610655610adf565b60008281526004919091016020526040812054900361069a57610676610adf565b54811461069a5783610686610adf565b600083815260049190910160205260409020555b505b83856001600160a01b0316876001600160a01b03167fddf252ad1be2c89b69c2b068fc378daa952ba7f163c4a11628f55a4df523b3ef60405160405180910390a45b505050505050565b610701838383604051806020016040528060008152506108b1565b505050565b7fa7c3be20e3a76821507555109752fad8a6630ef0362a34dcfcdfef83c99a2537546001600160a01b03163314610756576040516365f4906560e01b815233600482015260240160405180910390fd5b600080516020611b5683398151915280546001600160a01b0319166001600160a01b03831617905550565b600061047582610bd8565b60006001600160a01b0382166107b5576040516323d3ad8160e21b815260040160405180910390fd5b67ffffffffffffffff6107c6610adf565b6005016000846001600160a01b03166001600160a01b0316815260200190815260200160002054169050919050565b60006107ff6109ec565b905090565b60006107ff600080516020611b56833981519152546001600160a01b031690565b606061082f610adf565b60030180546103e79061197f565b80801561084e575061084e33610b50565b1561086c57604051638043dfaf60e01b815260040160405180910390fd5b6104bf8282610ce4565b6108a86040518060a0016040528060608152602001606081526020016000815260200160608152602001600081525090565b61047582610d61565b6108bc8484846104e2565b6001600160a01b0383163b156108f5576108d884848484610fb8565b6108f5576040516368d2bf6b60e11b815260040160405180910390fd5b50505050565b6060610906826110a3565b61092357604051630a14c4b560e41b815260040160405180910390fd5b600061093a60408051602081019091526000815290565b9050805160000361095a5760405180602001604052806000815250610985565b80610964846110df565b6040516020016109759291906119b9565b6040516020818303038152906040525b9392505050565b7f2d0d21306acfe8e9bb163a4573e95aff6cef95dc1102c6a16d5f19eac08cc4de54640100000000900460ff166109d657604051630ef4733760e31b815260040160405180910390fd5b6104bf8282611123565b60006109858383611197565b60006109f6610adf565b54919050565b6040805160a0810182528681526020808201879052818301869052606082018490524260808301526001600160a01b03851660009081527f29fd831c424d24cd5e9cb3bb2c716700fad0c388fe4c8545bfa7e16ccd6601d6909152919091208151600080516020611b568339815191529291908190610a7b9082611a2e565b5060208201516001820190610a909082611a2e565b506040820151600282015560608201516003820190610aaf9082611a2e565b5060808201518160040155905050505050505050565b6104bf8282604051806020016040528060008152506111d4565b7f234d8962d7c9a6a6604d7f98797e6ad6d7a886804f7409feb26422e27bf8125490565b6000610b0e826110a3565b610b2b576040516333d1c03960e21b815260040160405180910390fd5b610b33610adf565b60009283526006016020525060409020546001600160a01b031690565b60007f1f550ad653d7011dd740783aaa6c0d6cffff72baffc3774a51d0ca24f410f1066001600160a01b0383163b15801561098557506001600160a01b0383166000908152600182016020526040902054158061098557506001600160a01b038316600090815260018201602052604090205442109392505050565b6104bf82826001611251565b6000610be2610adf565b600083815260049190910160205260408120549150600160e01b82169003610c645780600003610c5f57610c14610adf565b548210610c3457604051636f96cda160e11b815260040160405180910390fd5b610c3c610adf565b600019909201600081815260049390930160205260409092205490508015610c34575b919050565b604051636f96cda160e11b815260040160405180910390fd5b6000806000610c8a610adf565b60009485526006016020525050604090912080549092909150565b6001600160a01b03841615801590610cc15750610cc184610b50565b15610cdf57604051638043dfaf60e01b815260040160405180910390fd5b6108f5565b80610ced610adf565b336000818152600792909201602090815260408084206001600160a01b03881680865290835293819020805460ff19169515159590951790945592518415158152919290917f17307eab39ab6107e8899845ad3d59bd9653f200f220920489ca2b5937696c31910160405180910390a35050565b610d936040518060a0016040528060608152602001606081526020016000815260200160608152602001600081525090565b6001600160a01b03821660009081527f29fd831c424d24cd5e9cb3bb2c716700fad0c388fe4c8545bfa7e16ccd6601d6602052604090819020815160a081019092528054600080516020611b5683398151915292919082908290610df69061197f565b80601f0160208091040260200160405190810160405280929190818152602001828054610e229061197f565b8015610e6f5780601f10610e4457610100808354040283529160200191610e6f565b820191906000526020600020905b815481529060010190602001808311610e5257829003601f168201915b50505050508152602001600182018054610e889061197f565b80601f0160208091040260200160405190810160405280929190818152602001828054610eb49061197f565b8015610f015780601f10610ed657610100808354040283529160200191610f01565b820191906000526020600020905b815481529060010190602001808311610ee457829003601f168201915b5050505050815260200160028201548152602001600382018054610f249061197f565b80601f0160208091040260200160405190810160405280929190818152602001828054610f509061197f565b8015610f9d5780601f10610f7257610100808354040283529160200191610f9d565b820191906000526020600020905b815481529060010190602001808311610f8057829003601f168201915b50505050508152602001600482015481525050915050919050565b604051630a85bd0160e11b81526000906001600160a01b0385169063150b7a0290610fed903390899088908890600401611aee565b6020604051808303816000875af1925050508015611028575060408051601f3d908101601f1916820190925261102591810190611b2b565b60015b611086573d808015611056576040519150601f19603f3d011682016040523d82523d6000602084013e61105b565b606091505b50805160000361107e576040516368d2bf6b60e11b815260040160405180910390fd5b805181602001fd5b6001600160e01b031916630a85bd0160e11b149050949350505050565b60006110ad610adf565b54821080156104755750600160e01b6110c4610adf565b60008481526004919091016020526040902054161592915050565b606060a06040510180604052602081039150506000815280825b600183039250600a81066030018353600a9004806110f95750819003601f19909101908152919050565b7f2d0d21306acfe8e9bb163a4573e95aff6cef95dc1102c6a16d5f19eac08cc4de54640100000000900460ff1661116d57604051630ef4733760e31b815260040160405180910390fd5b61117d6380ac58cd60e01b611306565b61118d635b5e139f60e01b611306565b6104bf82826113e4565b60006111a1610adf565b6001600160a01b039384166000908152600791909101602090815260408083209490951682529290925250205460ff1690565b6111de8383611416565b6001600160a01b0383163b156107015760006111f8610adf565b5490508281035b6112126000868380600101945086610fb8565b61122f576040516368d2bf6b60e11b815260040160405180910390fd5b8181106111ff578161123f610adf565b541461124a57600080fd5b5050505050565b600061125c83610781565b9050811561129b57336001600160a01b0382161461129b5761127e8133611197565b61129b576040516367d9dca160e11b815260040160405180910390fd5b836112a4610adf565b6000858152600691909101602052604080822080546001600160a01b0319166001600160a01b0394851617905551859287811692908516917f8c5be1e5ebec7d5bd14f71427d1e84f3dd0314c0f7b2291e5b200ac8c7c3b9259190a450505050565b6001600160e01b0319811660009081527fbc7de460bcfb6afd0c415c8c610d408bd914b18d7d0feec0da9e25348087a5c4602052604090205460ff161515600114611393576001600160e01b0319811660009081527fbc7de460bcfb6afd0c415c8c610d408bd914b18d7d0feec0da9e25348087a5c460205260409020805460ff191660011790556113ac565b604051637967f77d60e11b815260040160405180910390fd5b6040516001600160e01b03198216907f78f84e5b1c5c05be2b5ad3800781dd404d6d6c6302bc755c0fe20f58a33a7f2290600090a250565b60006113ee610adf565b9050600281016113fe8482611a2e565b506003810161140d8382611a2e565b50600090555050565b6000611420610adf565b54905060008290036114455760405163b562e8dd60e01b815260040160405180910390fd5b6114526000848385610ca5565b680100000000000000018202611466610adf565b6001600160a01b038516600081815260059290920160205260409091208054929092019091554260a01b6001841460e11b17176114a1610adf565b600083815260049190910160205260408120919091556001600160a01b0384169083830190839083907fddf252ad1be2c89b69c2b068fc378daa952ba7f163c4a11628f55a4df523b3ef8180a4600183015b81811461152b57808360007fddf252ad1be2c89b69c2b068fc378daa952ba7f163c4a11628f55a4df523b3ef600080a46001016114f3565b508160000361154c57604051622e076360e81b815260040160405180910390fd5b80611555610adf565b55506107019050565b634e487b7160e01b600052604160045260246000fd5b600067ffffffffffffffff8084111561158f5761158f61155e565b604051601f8501601f19908116603f011681019082821181831017156115b7576115b761155e565b816040528093508581528686860111156115d057600080fd5b858560208301376000602087830101525050509392505050565b600082601f8301126115fb57600080fd5b61098583833560208501611574565b80356001600160a01b0381168114610c5f57600080fd5b6000806000806080858703121561163757600080fd5b843567ffffffffffffffff8082111561164f57600080fd5b61165b888389016115ea565b9550602087013591508082111561167157600080fd5b61167d888389016115ea565b9450604087013591508082111561169357600080fd5b506116a0878288016115ea565b9250506116af6060860161160a565b905092959194509250565b60005b838110156116d55781810151838201526020016116bd565b50506000910152565b600081518084526116f68160208601602086016116ba565b601f01601f19169290920160200192915050565b60208152600061098560208301846116de565b60006020828403121561172f57600080fd5b5035919050565b6000806040838503121561174957600080fd5b6117528361160a565b946020939093013593505050565b60008060006060848603121561177557600080fd5b61177e8461160a565b925061178c6020850161160a565b9150604084013590509250925092565b6000602082840312156117ae57600080fd5b6109858261160a565b600080604083850312156117ca57600080fd5b6117d38361160a565b9150602083013580151581146117e857600080fd5b809150509250929050565b602081526000825160a0602084015261180f60c08401826116de565b90506020840151601f198085840301604086015261182d83836116de565b92506040860151606086015260608601519150808584030160808601525061185582826116de565b915050608084015160a08401528091505092915050565b6000806000806080858703121561188257600080fd5b61188b8561160a565b93506118996020860161160a565b925060408501359150606085013567ffffffffffffffff8111156118bc57600080fd5b8501601f810187136118cd57600080fd5b6118dc87823560208401611574565b91505092959194509250565b600080604083850312156118fb57600080fd5b823567ffffffffffffffff8082111561191357600080fd5b61191f868387016115ea565b9350602085013591508082111561193557600080fd5b50611942858286016115ea565b9150509250929050565b6000806040838503121561195f57600080fd5b6119688361160a565b91506119766020840161160a565b90509250929050565b600181811c9082168061199357607f821691505b6020821081036119b357634e487b7160e01b600052602260045260246000fd5b50919050565b600083516119cb8184602088016116ba565b8351908301906119df8183602088016116ba565b01949350505050565b601f82111561070157600081815260208120601f850160051c81016020861015611a0f5750805b601f850160051c820191505b818110156106de57828155600101611a1b565b815167ffffffffffffffff811115611a4857611a4861155e565b611a5c81611a56845461197f565b846119e8565b602080601f831160018114611a915760008415611a795750858301515b600019600386901b1c1916600185901b1785556106de565b600085815260208120601f198616915b82811015611ac057888601518255948401946001909101908401611aa1565b5085821015611ade5787850151600019600388901b60f8161c191681555b5050505050600190811b01905550565b6001600160a01b0385811682528416602082015260408101839052608060608201819052600090611b21908301846116de565b9695505050505050565b600060208284031215611b3d57600080fd5b81516001600160e01b03198116811461098557600080fdfe29fd831c424d24cd5e9cb3bb2c716700fad0c388fe4c8545bfa7e16ccd6601d5",
    "linkReferences": {}
  },
  "methodIdentifiers": {
    "__ERC721A_init(string,string)": "d2f01f19",
    "approve(address,uint256)": "095ea7b3",
    "balanceOf(address)": "70a08231",
    "getApproved(uint256)": "081812fc",
    "getFactory()": "88cc58e4",
    "getTownInfo(address)": "ac9207f4",
    "isApprovedForAll(address,address)": "e985e9c5",
    "mintTown(string,string,string,address)": "06252808",
    "name()": "06fdde03",
    "nextTokenId()": "75794a3c",
    "ownerOf(uint256)": "6352211e",
    "safeTransferFrom(address,address,uint256)": "42842e0e",
    "safeTransferFrom(address,address,uint256,bytes)": "b88d4fde",
    "setApprovalForAll(address,bool)": "a22cb465",
    "setFactory(address)": "5bb47808",
    "symbol()": "95d89b41",
    "tokenURI(uint256)": "c87b56dd",
    "totalSupply()": "18160ddd",
    "transferFrom(address,address,uint256)": "23b872dd"
  },
  "id": 155
}