{
  "abi": [
    {
      "inputs": [],
      "name": "Factory__FailedDeployment",
      "type": "error"
    },
    {
      "inputs": [],
      "name": "GateFacetService__NotAllowed",
      "type": "error"
    },
    {
      "inputs": [],
      "name": "Initializable_InInitializingState",
      "type": "error"
    },
    {
      "inputs": [],
      "name": "Initializable_NotInInitializingState",
      "type": "error"
    },
    {
      "inputs": [],
      "name": "Introspection_AlreadySupported",
      "type": "error"
    },
    {
      "inputs": [],
      "name": "Introspection_NotSupported",
      "type": "error"
    },
    {
      "inputs": [
        {
          "internalType": "address",
          "name": "account",
          "type": "address"
        }
      ],
      "name": "Ownable__NotOwner",
      "type": "error"
    },
    {
      "inputs": [],
      "name": "Ownable__ZeroAddress",
      "type": "error"
    },
    {
      "inputs": [],
      "name": "Pausable__NotPaused",
      "type": "error"
    },
    {
      "inputs": [],
      "name": "Pausable__Paused",
      "type": "error"
    },
    {
      "inputs": [],
      "name": "ReentrancyGuard__ReentrantCall",
      "type": "error"
    },
    {
      "inputs": [],
      "name": "TownArchitect__InvalidAddress",
      "type": "error"
    },
    {
      "inputs": [],
      "name": "TownArchitect__InvalidNetworkId",
      "type": "error"
    },
    {
      "inputs": [],
      "name": "TownArchitect__InvalidStringLength",
      "type": "error"
    },
    {
      "inputs": [],
      "name": "TownArchitect__NotContract",
      "type": "error"
    },
    {
      "inputs": [],
      "name": "Validator__InvalidAddress",
      "type": "error"
    },
    {
      "inputs": [],
      "name": "Validator__InvalidStringLength",
      "type": "error"
    },
    {
      "anonymous": false,
      "inputs": [
        {
          "indexed": false,
          "internalType": "uint32",
          "name": "version",
          "type": "uint32"
        }
      ],
      "name": "Initialized",
      "type": "event"
    },
    {
      "anonymous": false,
      "inputs": [
        {
          "indexed": true,
          "internalType": "bytes4",
          "name": "interfaceId",
          "type": "bytes4"
        }
      ],
      "name": "InterfaceAdded",
      "type": "event"
    },
    {
      "anonymous": false,
      "inputs": [
        {
          "indexed": true,
          "internalType": "bytes4",
          "name": "interfaceId",
          "type": "bytes4"
        }
      ],
      "name": "InterfaceRemoved",
      "type": "event"
    },
    {
      "anonymous": false,
      "inputs": [
        {
          "indexed": true,
          "internalType": "address",
          "name": "previousOwner",
          "type": "address"
        },
        {
          "indexed": true,
          "internalType": "address",
          "name": "newOwner",
          "type": "address"
        }
      ],
      "name": "OwnershipTransferred",
      "type": "event"
    },
    {
      "anonymous": false,
      "inputs": [
        {
          "indexed": false,
          "internalType": "address",
          "name": "account",
          "type": "address"
        }
      ],
      "name": "Paused",
      "type": "event"
    },
    {
      "anonymous": false,
      "inputs": [
        {
          "indexed": true,
          "internalType": "address",
          "name": "townCreator",
          "type": "address"
        },
        {
          "indexed": true,
          "internalType": "uint256",
          "name": "townId",
          "type": "uint256"
        },
        {
          "indexed": false,
          "internalType": "address",
          "name": "town",
          "type": "address"
        }
      ],
      "name": "TownCreated",
      "type": "event"
    },
    {
      "anonymous": false,
      "inputs": [
        {
          "indexed": false,
          "internalType": "address",
          "name": "account",
          "type": "address"
        }
      ],
      "name": "Unpaused",
      "type": "event"
    },
    {
      "inputs": [
        {
          "internalType": "address",
          "name": "townOwner",
          "type": "address"
        },
        {
          "internalType": "address",
          "name": "userEntitlementImplementation",
          "type": "address"
        },
        {
          "internalType": "address",
          "name": "tokenEntitlementImplementation",
          "type": "address"
        },
        {
          "internalType": "address",
          "name": "trustedForwarder",
          "type": "address"
        }
      ],
      "name": "__TownArchitect_init",
      "outputs": [],
      "stateMutability": "nonpayable",
      "type": "function"
    },
    {
      "inputs": [
        {
          "internalType": "string",
          "name": "townId",
          "type": "string"
        },
        {
          "components": [
            {
              "components": [
                {
                  "internalType": "string",
                  "name": "name",
                  "type": "string"
                },
                {
                  "internalType": "string",
                  "name": "symbol",
                  "type": "string"
                },
                {
                  "internalType": "uint256",
                  "name": "price",
                  "type": "uint256"
                },
                {
                  "internalType": "uint256",
                  "name": "maxSupply",
                  "type": "uint256"
                },
                {
                  "internalType": "uint64",
                  "name": "duration",
                  "type": "uint64"
                },
                {
                  "internalType": "address",
                  "name": "currency",
                  "type": "address"
                },
                {
                  "internalType": "address",
                  "name": "feeRecipient",
                  "type": "address"
                },
                {
                  "internalType": "uint256",
                  "name": "freeAllocation",
                  "type": "uint256"
                }
              ],
              "internalType": "struct IMembershipBase.MembershipInfo",
              "name": "settings",
              "type": "tuple"
            },
            {
              "components": [
                {
                  "internalType": "bool",
                  "name": "everyone",
                  "type": "bool"
                },
                {
                  "components": [
                    {
                      "internalType": "address",
                      "name": "contractAddress",
                      "type": "address"
                    },
                    {
                      "internalType": "uint256",
                      "name": "quantity",
                      "type": "uint256"
                    },
                    {
                      "internalType": "bool",
                      "name": "isSingleToken",
                      "type": "bool"
                    },
                    {
                      "internalType": "uint256[]",
                      "name": "tokenIds",
                      "type": "uint256[]"
                    }
                  ],
                  "internalType": "struct ITokenEntitlement.ExternalToken[]",
                  "name": "tokens",
                  "type": "tuple[]"
                },
                {
                  "internalType": "address[]",
                  "name": "users",
                  "type": "address[]"
                }
              ],
              "internalType": "struct ITownArchitectBase.MembershipRequirements",
              "name": "requirements",
              "type": "tuple"
            },
            {
              "internalType": "string[]",
              "name": "permissions",
              "type": "string[]"
            }
          ],
          "internalType": "struct ITownArchitectBase.Membership",
          "name": "membership",
          "type": "tuple"
        }
      ],
      "name": "computeTown",
      "outputs": [
        {
          "internalType": "address",
          "name": "",
          "type": "address"
        }
      ],
      "stateMutability": "view",
      "type": "function"
    },
    {
      "inputs": [
        {
          "components": [
            {
              "internalType": "string",
              "name": "id",
              "type": "string"
            },
            {
              "internalType": "string",
              "name": "name",
              "type": "string"
            },
            {
              "internalType": "string",
              "name": "uri",
              "type": "string"
            },
            {
              "components": [
                {
                  "components": [
                    {
                      "internalType": "string",
                      "name": "name",
                      "type": "string"
                    },
                    {
                      "internalType": "string",
                      "name": "symbol",
                      "type": "string"
                    },
                    {
                      "internalType": "uint256",
                      "name": "price",
                      "type": "uint256"
                    },
                    {
                      "internalType": "uint256",
                      "name": "maxSupply",
                      "type": "uint256"
                    },
                    {
                      "internalType": "uint64",
                      "name": "duration",
                      "type": "uint64"
                    },
                    {
                      "internalType": "address",
                      "name": "currency",
                      "type": "address"
                    },
                    {
                      "internalType": "address",
                      "name": "feeRecipient",
                      "type": "address"
                    },
                    {
                      "internalType": "uint256",
                      "name": "freeAllocation",
                      "type": "uint256"
                    }
                  ],
                  "internalType": "struct IMembershipBase.MembershipInfo",
                  "name": "settings",
                  "type": "tuple"
                },
                {
                  "components": [
                    {
                      "internalType": "bool",
                      "name": "everyone",
                      "type": "bool"
                    },
                    {
                      "components": [
                        {
                          "internalType": "address",
                          "name": "contractAddress",
                          "type": "address"
                        },
                        {
                          "internalType": "uint256",
                          "name": "quantity",
                          "type": "uint256"
                        },
                        {
                          "internalType": "bool",
                          "name": "isSingleToken",
                          "type": "bool"
                        },
                        {
                          "internalType": "uint256[]",
                          "name": "tokenIds",
                          "type": "uint256[]"
                        }
                      ],
                      "internalType": "struct ITokenEntitlement.ExternalToken[]",
                      "name": "tokens",
                      "type": "tuple[]"
                    },
                    {
                      "internalType": "address[]",
                      "name": "users",
                      "type": "address[]"
                    }
                  ],
                  "internalType": "struct ITownArchitectBase.MembershipRequirements",
                  "name": "requirements",
                  "type": "tuple"
                },
                {
                  "internalType": "string[]",
                  "name": "permissions",
                  "type": "string[]"
                }
              ],
              "internalType": "struct ITownArchitectBase.Membership",
              "name": "membership",
              "type": "tuple"
            },
            {
              "components": [
                {
                  "internalType": "string",
                  "name": "id",
                  "type": "string"
                },
                {
                  "internalType": "string",
                  "name": "metadata",
                  "type": "string"
                }
              ],
              "internalType": "struct ITownArchitectBase.ChannelInfo",
              "name": "channel",
              "type": "tuple"
            }
          ],
          "internalType": "struct ITownArchitectBase.TownInfo",
          "name": "townInfo",
          "type": "tuple"
        }
      ],
      "name": "createTown",
      "outputs": [
        {
          "internalType": "address",
          "name": "",
          "type": "address"
        }
      ],
      "stateMutability": "nonpayable",
      "type": "function"
    },
    {
      "inputs": [
        {
          "internalType": "address",
          "name": "token",
          "type": "address"
        },
        {
          "internalType": "uint256",
          "name": "quantity",
          "type": "uint256"
        }
      ],
      "name": "gateByToken",
      "outputs": [],
      "stateMutability": "nonpayable",
      "type": "function"
    },
    {
      "inputs": [
        {
          "internalType": "address",
          "name": "town",
          "type": "address"
        }
      ],
      "name": "getTokenIdByTown",
      "outputs": [
        {
          "internalType": "uint256",
          "name": "",
          "type": "uint256"
        }
      ],
      "stateMutability": "view",
      "type": "function"
    },
    {
      "inputs": [
        {
          "internalType": "string",
          "name": "townId",
          "type": "string"
        }
      ],
      "name": "getTokenIdByTownId",
      "outputs": [
        {
          "internalType": "uint256",
          "name": "",
          "type": "uint256"
        }
      ],
      "stateMutability": "view",
      "type": "function"
    },
    {
      "inputs": [],
      "name": "getTownArchitectImplementations",
      "outputs": [
        {
          "internalType": "address",
          "name": "townToken",
          "type": "address"
        },
        {
          "internalType": "address",
          "name": "userEntitlementImplementation",
          "type": "address"
        },
        {
          "internalType": "address",
          "name": "tokenEntitlementImplementation",
          "type": "address"
        }
      ],
      "stateMutability": "view",
      "type": "function"
    },
    {
      "inputs": [
        {
          "internalType": "string",
          "name": "townId",
          "type": "string"
        }
      ],
      "name": "getTownById",
      "outputs": [
        {
          "internalType": "address",
          "name": "",
          "type": "address"
        }
      ],
      "stateMutability": "view",
      "type": "function"
    },
    {
      "inputs": [
        {
          "internalType": "address",
          "name": "token",
          "type": "address"
        }
      ],
      "name": "isTokenGated",
      "outputs": [
        {
          "internalType": "bool",
          "name": "",
          "type": "bool"
        }
      ],
      "stateMutability": "view",
      "type": "function"
    },
    {
      "inputs": [
        {
          "internalType": "address",
          "name": "town",
          "type": "address"
        }
      ],
      "name": "isTown",
      "outputs": [
        {
          "internalType": "bool",
          "name": "",
          "type": "bool"
        }
      ],
      "stateMutability": "view",
      "type": "function"
    },
    {
      "inputs": [
        {
          "internalType": "address",
          "name": "townToken",
          "type": "address"
        },
        {
          "internalType": "address",
          "name": "userEntitlementImplementation",
          "type": "address"
        },
        {
          "internalType": "address",
          "name": "tokenEntitlementImplementation",
          "type": "address"
        }
      ],
      "name": "setTownArchitectImplementations",
      "outputs": [],
      "stateMutability": "nonpayable",
      "type": "function"
    },
    {
      "inputs": [
        {
          "internalType": "address",
          "name": "token",
          "type": "address"
        }
      ],
      "name": "ungateByToken",
      "outputs": [],
      "stateMutability": "nonpayable",
      "type": "function"
    }
  ],
  "bytecode": {
    "object": "0x60806040523480156200001157600080fd5b506200001c62000022565b620000ca565b7f2d0d21306acfe8e9bb163a4573e95aff6cef95dc1102c6a16d5f19eac08cc4de8054640100000000900460ff16156200006f576040516366008a2d60e01b815260040160405180910390fd5b805463ffffffff9081161015620000c757805463ffffffff191663ffffffff90811782556040519081527fe9c9b456cb2994b80aeef036cf59d26e9617df80f816a6ee5a5b4166e07e2f5c9060200160405180910390a15b50565b6148d380620000da6000396000f3fe60806040523480156200001157600080fd5b5060043610620000c35760003560e01c8063820f4a71116200007a578063820f4a7114620001af5780639c7843c214620001c6578063c301fbf314620001dd578063c62ff81314620001f4578063edddeb4d146200020b578063fc833cd2146200022257600080fd5b806311a8b38214620000c857806318c7f06614620000fc5780631c05bbc7146200013157806340fb2169146200015957806351ec4c1d146200017f5780635b560b671462000198575b600080fd5b620000df620000d936600462001f61565b62000239565b6040516001600160a01b0390911681526020015b60405180910390f35b620001066200024c565b604080516001600160a01b0394851681529284166020840152921691810191909152606001620000f3565b620001486200014236600462001fb1565b620002c9565b6040519015158152602001620000f3565b620001706200016a36600462001fb1565b620002d6565b604051908152602001620000f3565b620001966200019036600462001fcf565b62000314565b005b62000196620001a936600462002019565b62000369565b62000148620001c036600462001fb1565b620003b8565b62000170620001d736600462001f61565b620003c5565b620000df620001ee36600462002542565b620003d2565b620000df6200020536600462002652565b620004cc565b620001966200021c36600462001fb1565b620004f0565b6200019662000233366004620026bc565b6200053d565b60006200024682620005d6565b92915050565b6000806000620002be60008051602062004893833981519152547fbfc17bfcd641c969809ea46cafa0234f34c2d733b95035a848e816b1fa9cd8ba547fbfc17bfcd641c969809ea46cafa0234f34c2d733b95035a848e816b1fa9cd8bb546001600160a01b0392831693918316921690565b925092509250909192565b600062000246826200063c565b6001600160a01b03811660009081527fbfc17bfcd641c969809ea46cafa0234f34c2d733b95035a848e816b1fa9cd8bf602052604081205462000246565b6200031e62000649565b6001600160a01b0316336001600160a01b03161462000357576040516365f4906560e01b81523360048201526024015b60405180910390fd5b6200036483838362000677565b505050565b6200037362000649565b6001600160a01b0316336001600160a01b031614620003a8576040516365f4906560e01b81523360048201526024016200034e565b620003b482826200077d565b5050565b6000620002468262000789565b60006200024682620007ce565b600060027f50b052c8fb38984269a818b2b593d0584a81b1b99245abc0fab04abc7afb010f54036200041757604051635db5c7cd60e11b815260040160405180910390fd5b6200044160027f50b052c8fb38984269a818b2b593d0584a81b1b99245abc0fab04abc7afb010f55565b7ff421ea548af7158b1d71ba0aeccf57104c067038bd8fd214edd05c09eb4f735b5460ff161562000485576040516302ca8ced60e11b815260040160405180910390fd5b62000490336200082b565b6200049b8262000836565b9050620004c760017f50b052c8fb38984269a818b2b593d0584a81b1b99245abc0fab04abc7afb010f55565b919050565b600080620004d962000c94565b9050620004e884828562000d2d565b949350505050565b620004fa62000649565b6001600160a01b0316336001600160a01b0316146200052f576040516365f4906560e01b81523360048201526024016200034e565b6200053a8162000dd7565b50565b7f2d0d21306acfe8e9bb163a4573e95aff6cef95dc1102c6a16d5f19eac08cc4de54640100000000900460ff166200058857604051630ef4733760e31b815260040160405180910390fd5b6200059584848462000677565b7fbfc17bfcd641c969809ea46cafa0234f34c2d733b95035a848e816b1fa9cd8bc80546001600160a01b0319166001600160a01b0383161790555b50505050565b604051600090600080516020620048b3833981519152907fbfc17bfcd641c969809ea46cafa0234f34c2d733b95035a848e816b1fa9cd8b7906200061c9085906200273f565b908152604051908190036020019020546001600160a01b03169392505050565b6000620002468262000de2565b7fa7c3be20e3a76821507555109752fad8a6630ef0362a34dcfcdfef83c99a2537546001600160a01b031690565b6001600160a01b0383163b620006a057604051638a83510f60e01b815260040160405180910390fd5b6001600160a01b0382163b620006c957604051638a83510f60e01b815260040160405180910390fd5b6001600160a01b0381163b620006f257604051638a83510f60e01b815260040160405180910390fd5b6000805160206200489383398151915280546001600160a01b039485166001600160a01b0319918216179091557fbfc17bfcd641c969809ea46cafa0234f34c2d733b95035a848e816b1fa9cd8ba8054938516938216939093179092557fbfc17bfcd641c969809ea46cafa0234f34c2d733b95035a848e816b1fa9cd8bb8054919093169116179055565b620003b4828262000e2c565b6000600080516020620048b3833981519152620007c77fbfc17bfcd641c969809ea46cafa0234f34c2d733b95035a848e816b1fa9cd8bd8462000f99565b9392505050565b604051600090600080516020620048b3833981519152907fbfc17bfcd641c969809ea46cafa0234f34c2d733b95035a848e816b1fa9cd8b890620008149085906200273f565b908152602001604051809103902054915050919050565b6200053a8162000fbc565b6000620008478260000151620010dd565b8151600080516020620048b3833981519152906200086790829062001102565b1562000886576040516339c4486560e01b815260040160405180910390fd5b60008160040160009054906101000a90046001600160a01b03166001600160a01b03166375794a3c6040518163ffffffff1660e01b8152600401602060405180830381865afa158015620008de573d6000803e3d6000fd5b505050506040513d601f19601f820116820180604052508101906200090491906200275d565b90506200091b846000015182866060015162001110565b84519093506200092d90839062001161565b506200093d60088301846200116f565b50808260030185600001516040516200095791906200273f565b908152604051908190036020018120919091558451849160028501916200097e916200273f565b908152604080516020928190038301812080546001600160a01b0319166001600160a01b039586161790558684166000908152600a870184528290208590556004808701549389015192890151895162c4a50160e31b84529490951694630625280894620009f49493919290918a9101620027a5565b6020604051808303816000875af115801562000a14573d6000803e3d6000fd5b505050506040513d601f19601f8201168201806040525081019062000a3a91906200275d565b50600062000a65600080516020620048b3833981519152600501546001600160a01b03168562001186565b9050600062000a91600080516020620048b3833981519152600601546001600160a01b03168662001186565b6040805160028082526060820183529293506000929091602083019080368337019050509050828160008151811062000ace5762000ace620027fe565b60200260200101906001600160a01b031690816001600160a01b031681525050818160018151811062000b055762000b05620027fe565b6001600160a01b039283166020918202929092010152604051638bfc820f60e01b815290871690638bfc820f9062000b4290849060040162002814565b600060405180830381600087803b15801562000b5d57600080fd5b505af115801562000b72573d6000803e3d6000fd5b5050505062000b8c8684848a60600151602001516200123b565b50606087015180515160409091015160009162000bad918991869162001675565b905062000bc087828a608001516200184d565b60048601546001600160a01b03166342842e0e30336040516001600160e01b031960e085901b1681526001600160a01b0392831660048201529116602482015260448101889052606401600060405180830381600087803b15801562000c2557600080fd5b505af115801562000c3a573d6000803e3d6000fd5b505050508462000c473390565b6040516001600160a01b038a8116825291909116907f3a9b63f709203f3b6dabc8d90e98bff22696c86fc5608f54453424cabab529859060200160405180910390a3505050505050919050565b600080516020620048938339815191525460408051631d5e528f60e21b81529051600092600080516020620048b3833981519152926001600160a01b03909116916375794a3c916004818101926020929091908290030181865afa15801562000d01573d6000803e3d6000fd5b505050506040513d601f19601f8201168201806040525081019062000d2791906200275d565b91505090565b6000805160206200489383398151915254600090600080516020620048b3833981519152908290819062000d6e9088906001600160a01b0316888862001903565b8151602080840191909120604080516001600160f81b0319818501526bffffffffffffffffffffffff193060601b16602182015260358101859052605580820193909352815180820390930183526075019052805191012091935091505b979650505050505050565b6200053a8162001ace565b60006000805160206200487383398151915262000e00818462000f99565b8015620007c757506001600160a01b038316600090815260028201602052604090205415159392505050565b6040516301ffc9a760e01b81526380ac58cd60e01b60048201526001600160a01b038316906301ffc9a790602401602060405180830381865afa15801562000e78573d6000803e3d6000fd5b505050506040513d601f19601f8201168201806040525081019062000e9e919062002863565b15801562000f1b57506040516301ffc9a760e01b81526336372b0760e01b60048201526001600160a01b038316906301ffc9a790602401602060405180830381865afa15801562000ef3573d6000803e3d6000fd5b505050506040513d601f19601f8201168201806040525081019062000f19919062002863565b155b1562000f3a57604051634125cb7960e11b815260040160405180910390fd5b8060000362000f5c57604051634125cb7960e11b815260040160405180910390fd5b6000805160206200487383398151915262000f7881846200116f565b506001600160a01b0390921660009081526002909201602052604090912055565b6001600160a01b03811660009081526001830160205260408120541515620007c7565b60008051602062004873833981519152600062000fd98262001b0a565b9050801560005b82811015620010bd57600062000ff7858362001b15565b6001600160a01b038116600090815260028701602052604090205490915080158015906200109357506040516370a0823160e01b81526001600160a01b0388811660048301528291908416906370a0823190602401602060405180830381865afa1580156200106a573d6000803e3d6000fd5b505050506040513d601f19601f820116820180604052508101906200109091906200275d565b10155b15620010a557600193505050620010bd565b50508080620010b49062002899565b91505062000fe0565b5080620005d057604051634125cb7960e11b815260040160405180910390fd5b80518190600003620003b4576040516374eb20a760e01b815260040160405180910390fd5b6000620007c7838362001b23565b6000805160206200489383398151915254600090600080516020620048b38339815191529082908190620011519088906001600160a01b0316888862001903565b9150915062000dcc828262001b52565b6000620007c7838362001b8d565b6000620007c7836001600160a01b03841662001bf8565b600080604051806020016200119b9062001deb565b601f1982820381018352601f9091011660408190526001600160a01b0385166024820152859060440160408051601f19818403018152918152602080830180516001600160e01b031663189acdbd60e31b1790529051620011ff93929101620028b5565b60408051601f19818403018152908290526200121f9291602001620028db565b6040516020818303038152906040529050620004e88162001c41565b604080516001808252818301909252600091829190816020015b606081526020019060019003908162001255579050509050604051806040016040528060088152602001672537b4b72a37bbb760c11b81525081600081518110620012a457620012a4620027fe565b6020026020010181905250856001600160a01b0316638fcd793d6040518060400160405280600681526020016526b4b73a32b960d11b8152508360006001600160401b03811115620012fa57620012fa62001e07565b6040519080825280602002602001820160405280156200134257816020015b604080518082019091526000815260606020820152815260200190600190039081620013195790505b506040518463ffffffff1660e01b8152600401620013639392919062002937565b6020604051808303816000875af115801562001383573d6000803e3d6000fd5b505050506040513d601f19601f82011682018060405250810190620013a991906200275d565b835190925015620014b85760408051600180825281830190925260009160208083019080368337019050509050600181600081518110620013ee57620013ee620027fe565b60200260200101906001600160a01b031690816001600160a01b031681525050866001600160a01b031663ba201ba88460405180604001604052808a6001600160a01b03168152602001856040516020016200144b919062002814565b6040516020818303038152906040528152506040518363ffffffff1660e01b81526004016200147c92919062002a09565b600060405180830381600087803b1580156200149757600080fd5b505af1158015620014ac573d6000803e3d6000fd5b505050505050620004e8565b60408301515115620015b15760005b83604001515181101562001509576200150084604001518281518110620014f257620014f2620027fe565b602002602001015162001c7b565b600101620014c7565b50856001600160a01b031663ba201ba8836040518060400160405280896001600160a01b0316815260200187604001516040516020016200154b919062002814565b6040516020818303038152906040528152506040518363ffffffff1660e01b81526004016200157c92919062002a09565b600060405180830381600087803b1580156200159757600080fd5b505af1158015620015ac573d6000803e3d6000fd5b505050505b826020015151600003620015c65750620004e8565b856001600160a01b031663ba201ba8836040518060400160405280886001600160a01b03168152602001876020015160405160200162001607919062002a61565b6040516020818303038152906040528152506040518363ffffffff1660e01b81526004016200163892919062002a09565b600060405180830381600087803b1580156200165357600080fd5b505af115801562001668573d6000803e3d6000fd5b5050505050949350505050565b604080516001808252818301909252600091829190816020015b60408051608081018252600080825260208083018290529282015260608082015282526000199092019101816200168f575050604080516080810182526001600160a01b03891681526001602080830191909152600082840181905283518181529182019093526060820152825192935091839190620017135762001713620027fe565b6020908102919091010152604080516001808252818301909252600091816020015b604080518082019091526000815260606020820152815260200190600190039081620017355790505090508581600081518110620017775762001777620027fe565b6020908102919091018101516001600160a01b03909216909152604051620017a29184910162002a61565b60405160208183030381529060405281600081518110620017c757620017c7620027fe565b6020908102919091018101510152604051638fcd793d60e01b81526001600160a01b03881690638fcd793d90620018079088908890869060040162002937565b6020604051808303816000875af115801562001827573d6000803e3d6000fd5b505050506040513d601f19601f8201168201806040525081019062000dcc91906200275d565b604080516001808252818301909252600091602080830190803683370190505090508281600081518110620018865762001886620027fe565b6020908102919091018101919091528251908301516040516328fc1e7560e11b81526001600160a01b038716926351f83cea92620018c992869060040162002afb565b600060405180830381600087803b158015620018e457600080fd5b505af1158015620018f9573d6000803e3d6000fd5b5050505050505050565b606060008585856040516020016200191e9392919062002b44565b60405160208183030381529060405280519060200120905060405180602001620019489062001df9565b601f198282038101835260c0601f90920116818101604090815263dc9cc64560e01b60808084019182523060a080860191909152918452825180840184526001600160a01b038c8116825260208281018d9052868101929092528451610100810186528b515181528b51830151928101929092528a51850151828601528a51606090810151908301528a518301516001600160401b031692820192909252895183015182169281019290925288518501519394928501939192830191161562001a1757875160c0015162001a19565b335b6001600160a01b03168152602001876000015160e001518152508152602001604051806020016040528062001a757fbfc17bfcd641c969809ea46cafa0234f34c2d733b95035a848e816b1fa9cd8bc546001600160a01b031690565b6001600160a01b03169052905260405162001a94919060200162002b74565b60408051601f198184030181529082905262001ab49291602001620028db565b604051602081830303815290604052915094509492505050565b6000805160206200487383398151915262001aea818362001ca3565b506001600160a01b03909116600090815260029091016020526040812055565b600062000246825490565b6000620007c7838362001cba565b6000826001018260405162001b3991906200273f565b9081526040519081900360200190205415159392505050565b60008260200183518381836000f59250506001600160a01b0382169050620002465760405163ef35ca1960e01b815260040160405180910390fd5b600062001b9b838362001b23565b62001bef5782546001810184556000848152602090200162001bbe838262002d1a565b508254604051600185019062001bd69085906200273f565b9081526040519081900360200190205550600162000246565b50600062000246565b600081815260018301602052604081205462001bef5750815460018181018455600084815260208082209093018490558454848252828601909352604090209190915562000246565b600081602001825180826000f09250506001600160a01b0382169050620004c75760405163ef35ca1960e01b815260040160405180910390fd5b6001600160a01b0381166200053a576040516302e47d1560e41b815260040160405180910390fd5b6000620007c7836001600160a01b03841662001ce7565b600082600001828154811062001cd45762001cd4620027fe565b9060005260206000200154905092915050565b6000818152600183016020526040812054801562001de057600062001d0e60018362002de6565b855490915060009062001d249060019062002de6565b905081811462001d9057600086600001828154811062001d485762001d48620027fe565b906000526020600020015490508087600001848154811062001d6e5762001d6e620027fe565b6000918252602080832090910192909255918252600188019052604090208390555b855486908062001da45762001da462002dfc565b60019003818190600052602060002001600090559055856001016000868152602001908152602001600020600090556001935050505062000246565b600091505062000246565b6104ab8062002e1383390190565b6115b580620032be83390190565b634e487b7160e01b600052604160045260246000fd5b604051606081016001600160401b038111828210171562001e425762001e4262001e07565b60405290565b604051608081016001600160401b038111828210171562001e425762001e4262001e07565b60405161010081016001600160401b038111828210171562001e425762001e4262001e07565b60405160a081016001600160401b038111828210171562001e425762001e4262001e07565b604051601f8201601f191681016001600160401b038111828210171562001ee35762001ee362001e07565b604052919050565b600082601f83011262001efd57600080fd5b81356001600160401b0381111562001f195762001f1962001e07565b62001f2e601f8201601f191660200162001eb8565b81815284602083860101111562001f4457600080fd5b816020850160208301376000918101602001919091529392505050565b60006020828403121562001f7457600080fd5b81356001600160401b0381111562001f8b57600080fd5b620004e88482850162001eeb565b80356001600160a01b0381168114620004c757600080fd5b60006020828403121562001fc457600080fd5b620007c78262001f99565b60008060006060848603121562001fe557600080fd5b62001ff08462001f99565b9250620020006020850162001f99565b9150620020106040850162001f99565b90509250925092565b600080604083850312156200202d57600080fd5b620020388362001f99565b946020939093013593505050565b80356001600160401b0381168114620004c757600080fd5b80151581146200053a57600080fd5b60006001600160401b0382111562002089576200208962001e07565b5060051b60200190565b600082601f830112620020a557600080fd5b81356020620020be620020b8836200206d565b62001eb8565b82815260059290921b84018101918181019086841115620020de57600080fd5b8286015b848110156200210457620020f68162001f99565b8352918301918301620020e2565b509695505050505050565b6000606082840312156200212257600080fd5b6200212c62001e1d565b905081356200213b816200205e565b81526020828101356001600160401b03808211156200215957600080fd5b818501915085601f8301126200216e57600080fd5b81356200217f620020b8826200206d565b81815260059190911b830184019084810190888311156200219f57600080fd5b8585015b83811015620022a657803585811115620021bd5760008081fd5b86016080818c03601f1901811315620021d65760008081fd5b620021e062001e48565b620021ed8a840162001f99565b81526040808401358b830152606084013562002209816200205e565b82820152918301359188831115620022215760008081fd5b82840193508d603f8501126200223957600092508283fd5b8a84013592506200224e620020b8846200206d565b83815260059390931b84018101928b8101908f8511156200226f5760008081fd5b948201945b848610156200228f5785358252948c0194908c019062002274565b6060840152505085525050918601918601620021a3565b5080868801525050506040850135925080831115620022c457600080fd5b5050620022d48482850162002093565b60408301525092915050565b600082601f830112620022f257600080fd5b8135602062002305620020b8836200206d565b82815260059290921b840181019181810190868411156200232557600080fd5b8286015b84811015620021045780356001600160401b038111156200234a5760008081fd5b6200235a8986838b010162001eeb565b84525091830191830162002329565b6000606082840312156200237c57600080fd5b6200238662001e1d565b905081356001600160401b0380821115620023a057600080fd5b908301906101008286031215620023b657600080fd5b620023c062001e6d565b823582811115620023d057600080fd5b620023de8782860162001eeb565b825250602083013582811115620023f457600080fd5b620024028782860162001eeb565b60208301525060408301356040820152606083013560608201526200242a6080840162002046565b60808201526200243d60a0840162001f99565b60a08201526200245060c0840162001f99565b60c082015260e083013560e08201528084525060208401359150808211156200247857600080fd5b62002486858386016200210f565b60208401526040840135915080821115620024a057600080fd5b50620022d484828501620022e0565b600060408284031215620024c257600080fd5b604051604081016001600160401b038282108183111715620024e857620024e862001e07565b8160405282935084359150808211156200250157600080fd5b6200250f8683870162001eeb565b835260208501359150808211156200252657600080fd5b50620025358582860162001eeb565b6020830152505092915050565b6000602082840312156200255557600080fd5b81356001600160401b03808211156200256d57600080fd5b9083019060a082860312156200258257600080fd5b6200258c62001e93565b8235828111156200259c57600080fd5b620025aa8782860162001eeb565b825250602083013582811115620025c057600080fd5b620025ce8782860162001eeb565b602083015250604083013582811115620025e757600080fd5b620025f58782860162001eeb565b6040830152506060830135828111156200260e57600080fd5b6200261c8782860162002369565b6060830152506080830135828111156200263557600080fd5b6200264387828601620024af565b60808301525095945050505050565b600080604083850312156200266657600080fd5b82356001600160401b03808211156200267e57600080fd5b6200268c8683870162001eeb565b93506020850135915080821115620026a357600080fd5b50620026b28582860162002369565b9150509250929050565b60008060008060808587031215620026d357600080fd5b620026de8562001f99565b9350620026ee6020860162001f99565b9250620026fe6040860162001f99565b91506200270e6060860162001f99565b905092959194509250565b60005b83811015620027365781810151838201526020016200271c565b50506000910152565b600082516200275381846020870162002719565b9190910192915050565b6000602082840312156200277057600080fd5b5051919050565b600081518084526200279181602086016020860162002719565b601f01601f19169290920160200192915050565b608081526000620027ba608083018762002777565b8281036020840152620027ce818762002777565b90508281036040840152620027e4818662002777565b91505060018060a01b038316606083015295945050505050565b634e487b7160e01b600052603260045260246000fd5b6020808252825182820181905260009190848201906040850190845b81811015620028575783516001600160a01b03168352928401929184019160010162002830565b50909695505050505050565b6000602082840312156200287657600080fd5b8151620007c7816200205e565b634e487b7160e01b600052601160045260246000fd5b600060018201620028ae57620028ae62002883565b5060010190565b6001600160a01b0383168152604060208201819052600090620004e89083018462002777565b60008351620028ef81846020880162002719565b8351908301906200290581836020880162002719565b01949350505050565b60018060a01b0381511682526000602082015160406020850152620004e8604085018262002777565b6060815260006200294c606083018662002777565b6020838203818501528186518084528284019150828160051b85010183890160005b83811015620029a057601f198784030185526200298d83835162002777565b948601949250908501906001016200296e565b50508681036040880152875180825284820195509250600583901b81018401915083880160005b84811015620029f957601f19838503018752620029e68483516200290e565b96860196935090850190600101620029c7565b50919a9950505050505050505050565b828152604060208201526000620004e860408301846200290e565b600081518084526020808501945080840160005b8381101562002a565781518752958201959082019060010162002a38565b509495945050505050565b60006020808301818452808551808352604092508286019150828160051b87010184880160005b8381101562002aed57888303603f19018552815180516001600160a01b0316845287810151888501528681015115158785015260609081015160809185018290529062002ad88186018362002a24565b96890196945050509086019060010162002a88565b509098975050505050505050565b60608152600062002b10606083018662002777565b828103602084015262002b24818662002777565b9050828103604084015262002b3a818562002a24565b9695505050505050565b60608152600062002b59606083018662002777565b6001600160a01b039490941660208301525060400152919050565b6020808252825180516001600160e01b031916838301528101516001600160a01b03908116604080850191909152848301518051909216606085015290820151608084015283015160c060a0840152805161010060e0850181905260009392919062002be56101e087018362002777565b915083830151935060df1986830301818701525062002c05818462002777565b925050604081015161012085015260608101516101408501526001600160401b0360808201511661016085015260a081015162002c4e6101808601826001600160a01b03169052565b5060c08101516001600160a01b0381166101a08601525060e001516101c0840152606084015180516001600160a01b031660c0850152509392505050565b600181811c9082168062002ca157607f821691505b60208210810362002cc257634e487b7160e01b600052602260045260246000fd5b50919050565b601f8211156200036457600081815260208120601f850160051c8101602086101562002cf15750805b601f850160051c820191505b8181101562002d125782815560010162002cfd565b505050505050565b81516001600160401b0381111562002d365762002d3662001e07565b62002d4e8162002d47845462002c8c565b8462002cc8565b602080601f83116001811462002d86576000841562002d6d5750858301515b600019600386901b1c1916600185901b17855562002d12565b600085815260208120601f198616915b8281101562002db75788860151825594840194600190910190840162002d96565b508582101562002dd65787850151600019600388901b60f8161c191681555b5050505050600190811b01905550565b8181038181111562000246576200024662002883565b634e487b7160e01b600052603160045260246000fdfe60806040526040516104ab3803806104ab833981016040819052610022916102de565b61002e82826000610035565b50506103fb565b61003e83610061565b60008251118061004b5750805b1561005c5761005a83836100a1565b505b505050565b61006a816100cd565b6040516001600160a01b038216907fbc7cd75a20ee27fd9adebab32041f755214dbc6bffa90cc0225b39da2e5c2d3b90600090a250565b60606100c6838360405180606001604052806027815260200161048460279139610180565b9392505050565b6001600160a01b0381163b61013f5760405162461bcd60e51b815260206004820152602d60248201527f455243313936373a206e657720696d706c656d656e746174696f6e206973206e60448201526c1bdd08184818dbdb9d1c9858dd609a1b60648201526084015b60405180910390fd5b7f360894a13ba1a3210667c828492db98dca3e2076cc3735a920a3ca505d382bbc80546001600160a01b0319166001600160a01b0392909216919091179055565b6060600080856001600160a01b03168560405161019d91906103ac565b600060405180830381855af49150503d80600081146101d8576040519150601f19603f3d011682016040523d82523d6000602084013e6101dd565b606091505b5090925090506101ef868383876101f9565b9695505050505050565b60608315610268578251600003610261576001600160a01b0385163b6102615760405162461bcd60e51b815260206004820152601d60248201527f416464726573733a2063616c6c20746f206e6f6e2d636f6e74726163740000006044820152606401610136565b5081610272565b610272838361027a565b949350505050565b81511561028a5781518083602001fd5b8060405162461bcd60e51b815260040161013691906103c8565b634e487b7160e01b600052604160045260246000fd5b60005b838110156102d55781810151838201526020016102bd565b50506000910152565b600080604083850312156102f157600080fd5b82516001600160a01b038116811461030857600080fd5b60208401519092506001600160401b038082111561032557600080fd5b818501915085601f83011261033957600080fd5b81518181111561034b5761034b6102a4565b604051601f8201601f19908116603f01168101908382118183101715610373576103736102a4565b8160405282815288602084870101111561038c57600080fd5b61039d8360208301602088016102ba565b80955050505050509250929050565b600082516103be8184602087016102ba565b9190910192915050565b60208152600082518060208401526103e78160408501602087016102ba565b601f01601f19169190910160400192915050565b607b806104096000396000f3fe608060405236601057600e6013565b005b600e5b601f601b6021565b6058565b565b600060537f360894a13ba1a3210667c828492db98dca3e2076cc3735a920a3ca505d382bbc546001600160a01b031690565b905090565b3660008037600080366000845af43d6000803e8080156076573d6000f35b3d6000fd416464726573733a206c6f772d6c6576656c2064656c65676174652063616c6c206661696c656460806040523480156200001157600080fd5b50604051620015b5380380620015b5833981016040819052620000349162000869565b6200003e62000198565b8051620000a79080517f8554b9df6321355bca4334cacaab69e5fcc1f4562dedc2e1f459ba5fa38bf21c80546020909301516001600160a01b03166001600160a01b031960e09390931c600160a01b02929092166001600160c01b031990931692909217179055565b60208181015180519101517f9bd0e1a7aef81c47cff971a2fee48406b20f55522326b2e2616c49c24aa506d080546001600160a01b0319166001600160a01b03909316929092179091557f9bd0e1a7aef81c47cff971a2fee48406b20f55522326b2e2616c49c24aa506d155604081015180516020909101516200012c9190620001ac565b604081015181516020015162000143919062000214565b60608101515162000191906001600160a01b031660009081527f9be1203d7c008407e47cf520c8f15f54b074f0a2af3750145c254290338afc3f60205260409020805460ff19166001179055565b5062000af5565b620001aa6301ffc9a760e01b6200033f565b565b7f234d8962d7c9a6a6604d7f98797e6ad6d7a886804f7409feb26422e27bf812547f234d8962d7c9a6a6604d7f98797e6ad6d7a886804f7409feb26422e27bf81256620001fa8482620009ea565b50600381016200020b8382620009ea565b50600190555050565b6000805160206200159583398151915280546001600160a01b0319166001600160a01b038316179055608082015160008051602062001575833981519152906200025e90620003fd565b60c08301516200026e90620004b1565b60e08301516200027e90620004d9565b6060830151600382015560a08301516001600160a01b031615620002a7578260a00151620002bd565b73eeeeeeeeeeeeeeeeeeeeeeeeeeeeeeeeeeeeeeee5b6004820180546001600160a01b039283166001600160a01b0319918216179091556040850151600284015560808501516006840180546001600160401b03909216600160a01b02600160a01b600160e01b031990921691909117905560c085015160058401805491909316911617905560e09092015160079092019190915550565b6001600160e01b03198116600090815260008051602062001555833981519152602052604090205460ff161515600114620003ac576001600160e01b0319811660009081526000805160206200155583398151915260205260409020805460ff19166001179055620003c5565b604051637967f77d60e11b815260040160405180910390fd5b6040516001600160e01b03198216907f78f84e5b1c5c05be2b5ad3800781dd404d6d6c6302bc755c0fe20f58a33a7f2290600090a250565b60008051602062001595833981519152546001600160a01b03166001600160a01b0316638120f0ba6040518163ffffffff1660e01b8152600401602060405180830381865afa15801562000455573d6000803e3d6000fd5b505050506040513d601f19601f820116820180604052508101906200047b919062000ab6565b6001600160401b0316816001600160401b03161115620004ae576040516341191e9760e11b815260040160405180910390fd5b50565b6001600160a01b038116620004ae57604051631492df6160e21b815260040160405180910390fd5b600080516020620015958339815191525460408051632cbb9d1360e01b8152905160008051602062001575833981519152926001600160a01b031691632cbb9d139160048083019260209291908290030181865afa15801562000540573d6000803e3d6000fd5b505050506040513d601f19601f8201168201806040525081019062000566919062000adb565b821115620005875760405163c3983b9160e01b815260040160405180910390fd5b5050565b634e487b7160e01b600052604160045260246000fd5b604080519081016001600160401b0381118282101715620005c657620005c66200058b565b60405290565b60405161010081016001600160401b0381118282101715620005c657620005c66200058b565b604051608081016001600160401b0381118282101715620005c657620005c66200058b565b604051601f8201601f191681016001600160401b03811182821017156200064257620006426200058b565b604052919050565b80516001600160a01b03811681146200066257600080fd5b919050565b6000604082840312156200067a57600080fd5b62000684620005a1565b905062000691826200064a565b81526020820151602082015292915050565b600082601f830112620006b557600080fd5b81516001600160401b03811115620006d157620006d16200058b565b6020620006e7601f8301601f1916820162000617565b8281528582848701011115620006fc57600080fd5b60005b838110156200071c578581018301518282018401528201620006ff565b506000928101909101919091529392505050565b80516001600160401b03811681146200066257600080fd5b600061010082840312156200075c57600080fd5b62000766620005cc565b82519091506001600160401b03808211156200078157600080fd5b6200078f85838601620006a3565b83526020840151915080821115620007a657600080fd5b50620007b584828501620006a3565b6020830152506040820151604082015260608201516060820152620007dd6080830162000730565b6080820152620007f060a083016200064a565b60a08201526200080360c083016200064a565b60c082015260e082015160e082015292915050565b6000602082840312156200082b57600080fd5b604051602081016001600160401b03811182821017156200085057620008506200058b565b60405290508062000861836200064a565b905292915050565b6000602082840312156200087c57600080fd5b81516001600160401b03808211156200089457600080fd5b9083019081850360c0811215620008aa57600080fd5b620008b4620005f2565b6040821215620008c357600080fd5b620008cd620005a1565b84519092506001600160e01b031981168114620008e957600080fd5b8252620008f9602085016200064a565b602083015281815262000910876040860162000667565b602082015260808401519150828211156200092a57600080fd5b620009388783860162000748565b60408201526200094c8760a0860162000818565b60608201529695505050505050565b600181811c908216806200097057607f821691505b6020821081036200099157634e487b7160e01b600052602260045260246000fd5b50919050565b601f821115620009e557600081815260208120601f850160051c81016020861015620009c05750805b601f850160051c820191505b81811015620009e157828155600101620009cc565b5050505b505050565b81516001600160401b0381111562000a065762000a066200058b565b62000a1e8162000a1784546200095b565b8462000997565b602080601f83116001811462000a56576000841562000a3d5750858301515b600019600386901b1c1916600185901b178555620009e1565b600085815260208120601f198616915b8281101562000a875788860151825594840194600190910190840162000a66565b508582101562000aa65787850151600019600388901b60f8161c191681555b5050505050600190811b01905550565b60006020828403121562000ac957600080fd5b62000ad48262000730565b9392505050565b60006020828403121562000aee57600080fd5b5051919050565b610a508062000b056000396000f3fe6080604052600436106100c65760003560e01c8063702515631161007f578063ac9650d811610059578063ac9650d81461035b578063b3a5be6d14610388578063b83073761461039d578063f9d5d22c146103f9576100cd565b806370251563146102ab57806373fc5a05146102e85780638934207f14610327576100cd565b80630c3a01b1146100d75780631b3972f0146101165780631d214b4d14610159578063572b6c05146101aa5780635b312fce14610212578063624520061461024f576100cd565b366100cd57005b6100d5610419565b005b3480156100e357600080fd5b506100d56100f236600461080c565b7f9b35df16c33a6c0e085c9ebd55fb367f81c58c2ed7e9bed98cc622f3308a600f55565b34801561012257600080fd5b507f9b35df16c33a6c0e085c9ebd55fb367f81c58c2ed7e9bed98cc622f3308a600f545b6040519081526020015b60405180910390f35b34801561016557600080fd5b507f9b35df16c33a6c0e085c9ebd55fb367f81c58c2ed7e9bed98cc622f3308a6012546001600160a01b03165b6040516001600160a01b039091168152602001610150565b3480156101b657600080fd5b506102026101c536600461083d565b6001600160a01b031660009081527f9be1203d7c008407e47cf520c8f15f54b074f0a2af3750145c254290338afc3f602052604090205460ff1690565b6040519015158152602001610150565b34801561021e57600080fd5b507f9b35df16c33a6c0e085c9ebd55fb367f81c58c2ed7e9bed98cc622f3308a6013546001600160a01b0316610192565b34801561025b57600080fd5b506100d561026a36600461083d565b7f9b35df16c33a6c0e085c9ebd55fb367f81c58c2ed7e9bed98cc622f3308a601280546001600160a01b0319166001600160a01b0392909216919091179055565b3480156102b757600080fd5b507f9b35df16c33a6c0e085c9ebd55fb367f81c58c2ed7e9bed98cc622f3308a6011546001600160a01b0316610192565b3480156102f457600080fd5b506100d561030336600461080c565b7f9b35df16c33a6c0e085c9ebd55fb367f81c58c2ed7e9bed98cc622f3308a601055565b34801561033357600080fd5b507f9b35df16c33a6c0e085c9ebd55fb367f81c58c2ed7e9bed98cc622f3308a601054610146565b34801561036757600080fd5b5061037b610376366004610861565b610471565b60405161015091906108fa565b34801561039457600080fd5b5061014661058e565b3480156103a957600080fd5b506100d56103b836600461083d565b7f9b35df16c33a6c0e085c9ebd55fb367f81c58c2ed7e9bed98cc622f3308a601180546001600160a01b0319166001600160a01b0392909216919091179055565b34801561040557600080fd5b506100d561041436600461080c565b610651565b60006104236106c6565b90506001600160a01b0381163b61044d576040516321f27f0d60e21b815260040160405180910390fd5b3660008037600080366000845af43d6000803e80801561046c573d6000f35b3d6000fd5b6060818067ffffffffffffffff81111561048d5761048d610974565b6040519080825280602002602001820160405280156104c057816020015b60608152602001906001900390816104ab5790505b50915060005b8181101561058657600080308787858181106104e4576104e461098a565b90506020028101906104f691906109a0565b6040516105049291906109ee565b600060405180830381855af49150503d806000811461053f576040519150601f19603f3d011682016040523d82523d6000602084013e610544565b606091505b5091509150811561057257808584815181106105625761056261098a565b602002602001018190525061057c565b3d6000803e3d6000fd5b50506001016104c6565b505092915050565b7f9b35df16c33a6c0e085c9ebd55fb367f81c58c2ed7e9bed98cc622f3308a60145460009080156105be57919050565b7f9b35df16c33a6c0e085c9ebd55fb367f81c58c2ed7e9bed98cc622f3308a60135460408051632cbb9d1360e01b815290516001600160a01b0390921691632cbb9d13916004808201926020929091908290030181865afa158015610627573d6000803e3d6000fd5b505050506040513d601f19601f8201168201806040525081019061064b91906109fe565b91505090565b7f9b35df16c33a6c0e085c9ebd55fb367f81c58c2ed7e9bed98cc622f3308a60148190556040517f9b35df16c33a6c0e085c9ebd55fb367f81c58c2ed7e9bed98cc622f3308a600d9082907fab14a23e88fb272313490d4f20d63098e64fd38304c0e07a377db98c2b39b92f90600090a25050565b7f8554b9df6321355bca4334cacaab69e5fcc1f4562dedc2e1f459ba5fa38bf21c54600090600160a01b900460e01b81806107287f8554b9df6321355bca4334cacaab69e5fcc1f4562dedc2e1f459ba5fa38bf21c546001600160a01b031690565b6040516001600160e01b03196000351660248201526001600160a01b039190911690849060440160408051601f198184030181529181526020820180516001600160e01b03166001600160e01b031990941693909317909252905161078d9190610a17565b600060405180830381855afa9150503d80600081146107c8576040519150601f19603f3d011682016040523d82523d6000602084013e6107cd565b606091505b5091509150816107f05760405163391aa44560e01b815260040160405180910390fd5b808060200190518101906108049190610a33565b935050505090565b60006020828403121561081e57600080fd5b5035919050565b6001600160a01b038116811461083a57600080fd5b50565b60006020828403121561084f57600080fd5b813561085a81610825565b9392505050565b6000806020838503121561087457600080fd5b823567ffffffffffffffff8082111561088c57600080fd5b818501915085601f8301126108a057600080fd5b8135818111156108af57600080fd5b8660208260051b85010111156108c457600080fd5b60209290920196919550909350505050565b60005b838110156108f15781810151838201526020016108d9565b50506000910152565b6000602080830181845280855180835260408601915060408160051b870101925083870160005b8281101561096757878503603f1901845281518051808752610948818989018a85016108d6565b601f01601f191695909501860194509285019290850190600101610921565b5092979650505050505050565b634e487b7160e01b600052604160045260246000fd5b634e487b7160e01b600052603260045260246000fd5b6000808335601e198436030181126109b757600080fd5b83018035915067ffffffffffffffff8211156109d257600080fd5b6020019150368190038213156109e757600080fd5b9250929050565b8183823760009101908152919050565b600060208284031215610a1057600080fd5b5051919050565b60008251610a298184602087016108d6565b9190910192915050565b600060208284031215610a4557600080fd5b815161085a8161082556bc7de460bcfb6afd0c415c8c610d408bd914b18d7d0feec0da9e25348087a5c49b35df16c33a6c0e085c9ebd55fb367f81c58c2ed7e9bed98cc622f3308a600d9b35df16c33a6c0e085c9ebd55fb367f81c58c2ed7e9bed98cc622f3308a60130021838b43e034e5a0d20f42ce9ca05b74b34cf419ae1034249310df3263674dbfc17bfcd641c969809ea46cafa0234f34c2d733b95035a848e816b1fa9cd8b9bfc17bfcd641c969809ea46cafa0234f34c2d733b95035a848e816b1fa9cd8b5",
    "linkReferences": {}
  },
  "methodIdentifiers": {
    "__TownArchitect_init(address,address,address,address)": "fc833cd2",
    "computeTown(string,((string,string,uint256,uint256,uint64,address,address,uint256),(bool,(address,uint256,bool,uint256[])[],address[]),string[]))": "c62ff813",
    "createTown((string,string,string,((string,string,uint256,uint256,uint64,address,address,uint256),(bool,(address,uint256,bool,uint256[])[],address[]),string[]),(string,string)))": "c301fbf3",
    "gateByToken(address,uint256)": "5b560b67",
    "getTokenIdByTown(address)": "40fb2169",
    "getTokenIdByTownId(string)": "9c7843c2",
    "getTownArchitectImplementations()": "18c7f066",
    "getTownById(string)": "11a8b382",
    "isTokenGated(address)": "1c05bbc7",
    "isTown(address)": "820f4a71",
    "setTownArchitectImplementations(address,address,address)": "51ec4c1d",
    "ungateByToken(address)": "edddeb4d"
  },
  "id": 149
}