{
  "abi": [
    {
      "inputs": [],
      "name": "Factory__FailedDeployment",
      "type": "error"
    },
    {
      "inputs": [],
      "name": "GateFacetService__NotAllowed",
      "type": "error"
    },
    {
      "inputs": [],
      "name": "Initializable_InInitializingState",
      "type": "error"
    },
    {
      "inputs": [],
      "name": "Initializable_NotInInitializingState",
      "type": "error"
    },
    {
      "inputs": [],
      "name": "Introspection_AlreadySupported",
      "type": "error"
    },
    {
      "inputs": [],
      "name": "Introspection_NotSupported",
      "type": "error"
    },
    {
      "inputs": [
        {
          "internalType": "address",
          "name": "account",
          "type": "address"
        }
      ],
      "name": "Ownable__NotOwner",
      "type": "error"
    },
    {
      "inputs": [],
      "name": "Ownable__ZeroAddress",
      "type": "error"
    },
    {
      "inputs": [],
      "name": "Pausable__NotPaused",
      "type": "error"
    },
    {
      "inputs": [],
      "name": "Pausable__Paused",
      "type": "error"
    },
    {
      "inputs": [],
      "name": "ReentrancyGuard__ReentrantCall",
      "type": "error"
    },
    {
      "inputs": [],
      "name": "TownArchitect__InvalidAddress",
      "type": "error"
    },
    {
      "inputs": [],
      "name": "TownArchitect__InvalidNetworkId",
      "type": "error"
    },
    {
      "inputs": [],
      "name": "TownArchitect__InvalidStringLength",
      "type": "error"
    },
    {
      "inputs": [],
      "name": "TownArchitect__NotContract",
      "type": "error"
    },
    {
      "inputs": [],
      "name": "Validator__InvalidAddress",
      "type": "error"
    },
    {
      "inputs": [],
      "name": "Validator__InvalidStringLength",
      "type": "error"
    },
    {
      "anonymous": false,
      "inputs": [
        {
          "indexed": false,
          "internalType": "uint32",
          "name": "version",
          "type": "uint32"
        }
      ],
      "name": "Initialized",
      "type": "event"
    },
    {
      "anonymous": false,
      "inputs": [
        {
          "indexed": true,
          "internalType": "bytes4",
          "name": "interfaceId",
          "type": "bytes4"
        }
      ],
      "name": "InterfaceAdded",
      "type": "event"
    },
    {
      "anonymous": false,
      "inputs": [
        {
          "indexed": true,
          "internalType": "bytes4",
          "name": "interfaceId",
          "type": "bytes4"
        }
      ],
      "name": "InterfaceRemoved",
      "type": "event"
    },
    {
      "anonymous": false,
      "inputs": [
        {
          "indexed": true,
          "internalType": "address",
          "name": "previousOwner",
          "type": "address"
        },
        {
          "indexed": true,
          "internalType": "address",
          "name": "newOwner",
          "type": "address"
        }
      ],
      "name": "OwnershipTransferred",
      "type": "event"
    },
    {
      "anonymous": false,
      "inputs": [
        {
          "indexed": false,
          "internalType": "address",
          "name": "account",
          "type": "address"
        }
      ],
      "name": "Paused",
      "type": "event"
    },
    {
      "anonymous": false,
      "inputs": [
        {
          "indexed": true,
          "internalType": "address",
          "name": "townCreator",
          "type": "address"
        },
        {
          "indexed": true,
          "internalType": "uint256",
          "name": "townId",
          "type": "uint256"
        },
        {
          "indexed": false,
          "internalType": "address",
          "name": "town",
          "type": "address"
        }
      ],
      "name": "TownCreated",
      "type": "event"
    },
    {
      "anonymous": false,
      "inputs": [
        {
          "indexed": false,
          "internalType": "address",
          "name": "account",
          "type": "address"
        }
      ],
      "name": "Unpaused",
      "type": "event"
    },
    {
      "inputs": [
        {
          "internalType": "address",
          "name": "townOwner",
          "type": "address"
        },
        {
          "internalType": "address",
          "name": "userEntitlementImplementation",
          "type": "address"
        },
        {
          "internalType": "address",
          "name": "tokenEntitlementImplementation",
          "type": "address"
        },
        {
          "internalType": "address",
          "name": "trustedForwarder",
          "type": "address"
        }
      ],
      "name": "__TownArchitect_init",
      "outputs": [],
      "stateMutability": "nonpayable",
      "type": "function"
    },
    {
      "inputs": [
        {
          "internalType": "string",
          "name": "townId",
          "type": "string"
        },
        {
          "components": [
            {
              "internalType": "string",
              "name": "name",
              "type": "string"
            },
            {
              "internalType": "uint256",
              "name": "price",
              "type": "uint256"
            },
            {
              "internalType": "uint256",
              "name": "limit",
              "type": "uint256"
            },
            {
              "internalType": "address",
              "name": "currency",
              "type": "address"
            },
            {
              "internalType": "address",
              "name": "feeRecipient",
              "type": "address"
            },
            {
              "internalType": "string[]",
              "name": "permissions",
              "type": "string[]"
            },
            {
              "components": [
                {
                  "internalType": "bool",
                  "name": "everyone",
                  "type": "bool"
                },
                {
                  "components": [
                    {
                      "internalType": "address",
                      "name": "contractAddress",
                      "type": "address"
                    },
                    {
                      "internalType": "uint256",
                      "name": "quantity",
                      "type": "uint256"
                    },
                    {
                      "internalType": "bool",
                      "name": "isSingleToken",
                      "type": "bool"
                    },
                    {
                      "internalType": "uint256[]",
                      "name": "tokenIds",
                      "type": "uint256[]"
                    }
                  ],
                  "internalType": "struct ITokenEntitlement.ExternalToken[]",
                  "name": "tokens",
                  "type": "tuple[]"
                },
                {
                  "internalType": "address[]",
                  "name": "users",
                  "type": "address[]"
                }
              ],
              "internalType": "struct ITownArchitectBase.MembershipRequirements",
              "name": "requirements",
              "type": "tuple"
            }
          ],
          "internalType": "struct ITownArchitectBase.Membership",
          "name": "membership",
          "type": "tuple"
        }
      ],
      "name": "computeTown",
      "outputs": [
        {
          "internalType": "address",
          "name": "",
          "type": "address"
        }
      ],
      "stateMutability": "view",
      "type": "function"
    },
    {
      "inputs": [
        {
          "components": [
            {
              "internalType": "string",
              "name": "id",
              "type": "string"
            },
            {
              "internalType": "string",
              "name": "name",
              "type": "string"
            },
            {
              "internalType": "string",
              "name": "uri",
              "type": "string"
            },
            {
              "components": [
                {
                  "internalType": "string",
                  "name": "name",
                  "type": "string"
                },
                {
                  "internalType": "uint256",
                  "name": "price",
                  "type": "uint256"
                },
                {
                  "internalType": "uint256",
                  "name": "limit",
                  "type": "uint256"
                },
                {
                  "internalType": "address",
                  "name": "currency",
                  "type": "address"
                },
                {
                  "internalType": "address",
                  "name": "feeRecipient",
                  "type": "address"
                },
                {
                  "internalType": "string[]",
                  "name": "permissions",
                  "type": "string[]"
                },
                {
                  "components": [
                    {
                      "internalType": "bool",
                      "name": "everyone",
                      "type": "bool"
                    },
                    {
                      "components": [
                        {
                          "internalType": "address",
                          "name": "contractAddress",
                          "type": "address"
                        },
                        {
                          "internalType": "uint256",
                          "name": "quantity",
                          "type": "uint256"
                        },
                        {
                          "internalType": "bool",
                          "name": "isSingleToken",
                          "type": "bool"
                        },
                        {
                          "internalType": "uint256[]",
                          "name": "tokenIds",
                          "type": "uint256[]"
                        }
                      ],
                      "internalType": "struct ITokenEntitlement.ExternalToken[]",
                      "name": "tokens",
                      "type": "tuple[]"
                    },
                    {
                      "internalType": "address[]",
                      "name": "users",
                      "type": "address[]"
                    }
                  ],
                  "internalType": "struct ITownArchitectBase.MembershipRequirements",
                  "name": "requirements",
                  "type": "tuple"
                }
              ],
              "internalType": "struct ITownArchitectBase.Membership",
              "name": "membership",
              "type": "tuple"
            },
            {
              "components": [
                {
                  "internalType": "string",
                  "name": "id",
                  "type": "string"
                },
                {
                  "internalType": "string",
                  "name": "metadata",
                  "type": "string"
                }
              ],
              "internalType": "struct ITownArchitectBase.ChannelInfo",
              "name": "channel",
              "type": "tuple"
            }
          ],
          "internalType": "struct ITownArchitectBase.TownInfo",
          "name": "townInfo",
          "type": "tuple"
        }
      ],
      "name": "createTown",
      "outputs": [
        {
          "internalType": "address",
          "name": "",
          "type": "address"
        }
      ],
      "stateMutability": "nonpayable",
      "type": "function"
    },
    {
      "inputs": [
        {
          "internalType": "address",
          "name": "token",
          "type": "address"
        },
        {
          "internalType": "uint256",
          "name": "quantity",
          "type": "uint256"
        }
      ],
      "name": "gateByToken",
      "outputs": [],
      "stateMutability": "nonpayable",
      "type": "function"
    },
    {
      "inputs": [
        {
          "internalType": "string",
          "name": "townId",
          "type": "string"
        }
      ],
      "name": "getTokenIdByTownId",
      "outputs": [
        {
          "internalType": "uint256",
          "name": "",
          "type": "uint256"
        }
      ],
      "stateMutability": "view",
      "type": "function"
    },
    {
      "inputs": [],
      "name": "getTownArchitectImplementations",
      "outputs": [
        {
          "internalType": "address",
          "name": "townToken",
          "type": "address"
        },
        {
          "internalType": "address",
          "name": "userEntitlementImplementation",
          "type": "address"
        },
        {
          "internalType": "address",
          "name": "tokenEntitlementImplementation",
          "type": "address"
        }
      ],
      "stateMutability": "view",
      "type": "function"
    },
    {
      "inputs": [
        {
          "internalType": "string",
          "name": "townId",
          "type": "string"
        }
      ],
      "name": "getTownById",
      "outputs": [
        {
          "internalType": "address",
          "name": "",
          "type": "address"
        }
      ],
      "stateMutability": "view",
      "type": "function"
    },
    {
      "inputs": [
        {
          "internalType": "address",
          "name": "token",
          "type": "address"
        }
      ],
      "name": "isTokenGated",
      "outputs": [
        {
          "internalType": "bool",
          "name": "",
          "type": "bool"
        }
      ],
      "stateMutability": "view",
      "type": "function"
    },
    {
      "inputs": [
        {
          "internalType": "address",
          "name": "townToken",
          "type": "address"
        },
        {
          "internalType": "address",
          "name": "userEntitlementImplementation",
          "type": "address"
        },
        {
          "internalType": "address",
          "name": "tokenEntitlementImplementation",
          "type": "address"
        }
      ],
      "name": "setTownArchitectImplementations",
      "outputs": [],
      "stateMutability": "nonpayable",
      "type": "function"
    },
    {
      "inputs": [
        {
          "internalType": "address",
          "name": "token",
          "type": "address"
        }
      ],
      "name": "ungateByToken",
      "outputs": [],
      "stateMutability": "nonpayable",
      "type": "function"
    }
  ],
  "bytecode": {
    "object": "0x60806040523480156200001157600080fd5b506200001c62000022565b620000ca565b7f2d0d21306acfe8e9bb163a4573e95aff6cef95dc1102c6a16d5f19eac08cc4de8054640100000000900460ff16156200006f576040516366008a2d60e01b815260040160405180910390fd5b805463ffffffff9081161015620000c757805463ffffffff191663ffffffff90811782556040519081527fe9c9b456cb2994b80aeef036cf59d26e9617df80f816a6ee5a5b4166e07e2f5c9060200160405180910390a15b50565b61455580620000da6000396000f3fe60806040523480156200001157600080fd5b5060043610620000ab5760003560e01c80639c7843c2116200006e5780639c7843c214620001715780639fbd83bc1462000197578063ab8e6a7614620001ae578063edddeb4d14620001c5578063fc833cd214620001dc57600080fd5b806311a8b38214620000b057806318c7f06614620000e45780631c05bbc7146200011957806351ec4c1d14620001415780635b560b67146200015a575b600080fd5b620000c7620000c136600462001e2c565b620001f3565b6040516001600160a01b0390911681526020015b60405180910390f35b620000ee62000206565b604080516001600160a01b0394851681529284166020840152921691810191909152606001620000db565b620001306200012a36600462001e7c565b62000283565b6040519015158152602001620000db565b620001586200015236600462001e9a565b62000290565b005b620001586200016b36600462001ee4565b620002e5565b620001886200018236600462001e2c565b62000334565b604051908152602001620000db565b620000c7620001a836600462002388565b62000341565b620000c7620001bf36600462002498565b6200043b565b62000158620001d636600462001e7c565b6200045f565b62000158620001ed36600462002502565b620004ac565b6000620002008262000545565b92915050565b60008060006200027860008051602062004515833981519152547fbfc17bfcd641c969809ea46cafa0234f34c2d733b95035a848e816b1fa9cd8ba547fbfc17bfcd641c969809ea46cafa0234f34c2d733b95035a848e816b1fa9cd8bb546001600160a01b0392831693918316921690565b925092509250909192565b60006200020082620005ab565b6200029a620005b8565b6001600160a01b0316336001600160a01b031614620002d3576040516365f4906560e01b81523360048201526024015b60405180910390fd5b620002e0838383620005e6565b505050565b620002ef620005b8565b6001600160a01b0316336001600160a01b03161462000324576040516365f4906560e01b8152336004820152602401620002ca565b620003308282620006ec565b5050565b60006200020082620006f8565b600060027f50b052c8fb38984269a818b2b593d0584a81b1b99245abc0fab04abc7afb010f54036200038657604051635db5c7cd60e11b815260040160405180910390fd5b620003b060027f50b052c8fb38984269a818b2b593d0584a81b1b99245abc0fab04abc7afb010f55565b7ff421ea548af7158b1d71ba0aeccf57104c067038bd8fd214edd05c09eb4f735b5460ff1615620003f4576040516302ca8ced60e11b815260040160405180910390fd5b620003ff3362000755565b6200040a8262000760565b90506200043660017f50b052c8fb38984269a818b2b593d0584a81b1b99245abc0fab04abc7afb010f55565b919050565b6000806200044862000b9a565b90506200045784828562000c33565b949350505050565b62000469620005b8565b6001600160a01b0316336001600160a01b0316146200049e576040516365f4906560e01b8152336004820152602401620002ca565b620004a98162000cdd565b50565b7f2d0d21306acfe8e9bb163a4573e95aff6cef95dc1102c6a16d5f19eac08cc4de54640100000000900460ff16620004f757604051630ef4733760e31b815260040160405180910390fd5b62000504848484620005e6565b7fbfc17bfcd641c969809ea46cafa0234f34c2d733b95035a848e816b1fa9cd8bc80546001600160a01b0319166001600160a01b0383161790555b50505050565b60405160009060008051602062004535833981519152907fbfc17bfcd641c969809ea46cafa0234f34c2d733b95035a848e816b1fa9cd8b7906200058b90859062002585565b908152604051908190036020019020546001600160a01b03169392505050565b6000620002008262000ce8565b7fa7c3be20e3a76821507555109752fad8a6630ef0362a34dcfcdfef83c99a2537546001600160a01b031690565b6001600160a01b0383163b6200060f57604051638a83510f60e01b815260040160405180910390fd5b6001600160a01b0382163b6200063857604051638a83510f60e01b815260040160405180910390fd5b6001600160a01b0381163b6200066157604051638a83510f60e01b815260040160405180910390fd5b6000805160206200451583398151915280546001600160a01b039485166001600160a01b0319918216179091557fbfc17bfcd641c969809ea46cafa0234f34c2d733b95035a848e816b1fa9cd8ba8054938516938216939093179092557fbfc17bfcd641c969809ea46cafa0234f34c2d733b95035a848e816b1fa9cd8bb8054919093169116179055565b62000330828262000d33565b60405160009060008051602062004535833981519152907fbfc17bfcd641c969809ea46cafa0234f34c2d733b95035a848e816b1fa9cd8b8906200073e90859062002585565b908152602001604051809103902054915050919050565b620004a98162000ea0565b600062000771826000015162000fc1565b815160008051602062004535833981519152906200079190829062000fe6565b15620007b0576040516339c4486560e01b815260040160405180910390fd5b60008160040160009054906101000a90046001600160a01b03166001600160a01b03166375794a3c6040518163ffffffff1660e01b8152600401602060405180830381865afa15801562000808573d6000803e3d6000fd5b505050506040513d601f19601f820116820180604052508101906200082e9190620025a3565b905062000845846000015182866060015162000ff4565b84519093506200085790839062001045565b508082600301856000015160405162000871919062002585565b90815260405190819003602001812091909155845184916002850191620008989162002585565b908152604080516020928190038301812080546001600160a01b0319166001600160a01b039586161790556004868101549389015192890151895162c4a50160e31b84529490951694630625280894620008fa9493919290918a9101620025eb565b6020604051808303816000875af11580156200091a573d6000803e3d6000fd5b505050506040513d601f19601f82011682018060405250810190620009409190620025a3565b5060006200096b60008051602062004535833981519152600501546001600160a01b03168562001053565b905060006200099760008051602062004535833981519152600601546001600160a01b03168662001053565b60408051600280825260608201835292935060009290916020830190803683370190505090508281600081518110620009d457620009d462002644565b60200260200101906001600160a01b031690816001600160a01b031681525050818160018151811062000a0b5762000a0b62002644565b6001600160a01b039283166020918202929092010152604051638bfc820f60e01b815290871690638bfc820f9062000a489084906004016200265a565b600060405180830381600087803b15801562000a6357600080fd5b505af115801562000a78573d6000803e3d6000fd5b5050505062000a928684848a6060015160c0015162001108565b50600062000ab387848a60600151600001518b6060015160a0015162001542565b905062000ac687828a608001516200171a565b60048601546001600160a01b03166342842e0e30336040516001600160e01b031960e085901b1681526001600160a01b0392831660048201529116602482015260448101889052606401600060405180830381600087803b15801562000b2b57600080fd5b505af115801562000b40573d6000803e3d6000fd5b505050508462000b4d3390565b6040516001600160a01b038a8116825291909116907f3a9b63f709203f3b6dabc8d90e98bff22696c86fc5608f54453424cabab529859060200160405180910390a3505050505050919050565b600080516020620045158339815191525460408051631d5e528f60e21b8152905160009260008051602062004535833981519152926001600160a01b03909116916375794a3c916004818101926020929091908290030181865afa15801562000c07573d6000803e3d6000fd5b505050506040513d601f19601f8201168201806040525081019062000c2d9190620025a3565b91505090565b600080516020620045158339815191525460009060008051602062004535833981519152908290819062000c749088906001600160a01b03168888620017d0565b8151602080840191909120604080516001600160f81b0319818501526bffffffffffffffffffffffff193060601b16602182015260358101859052605580820193909352815180820390930183526075019052805191012091935091505b979650505050505050565b620004a98162001960565b6000600080516020620044f583398151915262000d0681846200199c565b801562000d2c57506001600160a01b038316600090815260028201602052604090205415155b9392505050565b6040516301ffc9a760e01b81526380ac58cd60e01b60048201526001600160a01b038316906301ffc9a790602401602060405180830381865afa15801562000d7f573d6000803e3d6000fd5b505050506040513d601f19601f8201168201806040525081019062000da59190620026a9565b15801562000e2257506040516301ffc9a760e01b81526336372b0760e01b60048201526001600160a01b038316906301ffc9a790602401602060405180830381865afa15801562000dfa573d6000803e3d6000fd5b505050506040513d601f19601f8201168201806040525081019062000e209190620026a9565b155b1562000e4157604051634125cb7960e11b815260040160405180910390fd5b8060000362000e6357604051634125cb7960e11b815260040160405180910390fd5b600080516020620044f583398151915262000e7f8184620019bf565b506001600160a01b0390921660009081526002909201602052604090912055565b600080516020620044f5833981519152600062000ebd82620019d6565b9050801560005b8281101562000fa157600062000edb8583620019e1565b6001600160a01b0381166000908152600287016020526040902054909150801580159062000f7757506040516370a0823160e01b81526001600160a01b0388811660048301528291908416906370a0823190602401602060405180830381865afa15801562000f4e573d6000803e3d6000fd5b505050506040513d601f19601f8201168201806040525081019062000f749190620025a3565b10155b1562000f895760019350505062000fa1565b5050808062000f9890620026df565b91505062000ec4565b50806200053f57604051634125cb7960e11b815260040160405180910390fd5b8051819060000362000330576040516374eb20a760e01b815260040160405180910390fd5b600062000d2c8383620019ef565b6000805160206200451583398151915254600090600080516020620045358339815191529082908190620010359088906001600160a01b03168888620017d0565b9150915062000cd2828262001a1e565b600062000d2c838362001a59565b60008060405180602001620010689062001cb7565b601f1982820381018352601f9091011660408190526001600160a01b0385166024820152859060440160408051601f19818403018152918152602080830180516001600160e01b031663189acdbd60e31b1790529051620010cc93929101620026fb565b60408051601f1981840301815290829052620010ec929160200162002721565b6040516020818303038152906040529050620004578162001ac4565b604080516001808252818301909252600091829190816020015b606081526020019060019003908162001122579050509050604051806040016040528060088152602001672537b4b72a37bbb760c11b8152508160008151811062001171576200117162002644565b6020026020010181905250856001600160a01b0316638fcd793d6040518060400160405280600681526020016526b4b73a32b960d11b8152508360006001600160401b03811115620011c757620011c762001cd3565b6040519080825280602002602001820160405280156200120f57816020015b604080518082019091526000815260606020820152815260200190600190039081620011e65790505b506040518463ffffffff1660e01b815260040162001230939291906200277d565b6020604051808303816000875af115801562001250573d6000803e3d6000fd5b505050506040513d601f19601f82011682018060405250810190620012769190620025a3565b835190925015620013855760408051600180825281830190925260009160208083019080368337019050509050600181600081518110620012bb57620012bb62002644565b60200260200101906001600160a01b031690816001600160a01b031681525050866001600160a01b031663ba201ba88460405180604001604052808a6001600160a01b03168152602001856040516020016200131891906200265a565b6040516020818303038152906040528152506040518363ffffffff1660e01b8152600401620013499291906200284f565b600060405180830381600087803b1580156200136457600080fd5b505af115801562001379573d6000803e3d6000fd5b50505050505062000457565b604083015151156200147e5760005b836040015151811015620013d657620013cd84604001518281518110620013bf57620013bf62002644565b602002602001015162001afe565b60010162001394565b50856001600160a01b031663ba201ba8836040518060400160405280896001600160a01b0316815260200187604001516040516020016200141891906200265a565b6040516020818303038152906040528152506040518363ffffffff1660e01b8152600401620014499291906200284f565b600060405180830381600087803b1580156200146457600080fd5b505af115801562001479573d6000803e3d6000fd5b505050505b82602001515160000362001493575062000457565b856001600160a01b031663ba201ba8836040518060400160405280886001600160a01b031681526020018760200151604051602001620014d49190620028a7565b6040516020818303038152906040528152506040518363ffffffff1660e01b8152600401620015059291906200284f565b600060405180830381600087803b1580156200152057600080fd5b505af115801562001535573d6000803e3d6000fd5b5050505050949350505050565b604080516001808252818301909252600091829190816020015b60408051608081018252600080825260208083018290529282015260608082015282526000199092019101816200155c575050604080516080810182526001600160a01b03891681526001602080830191909152600082840181905283518181529182019093526060820152825192935091839190620015e057620015e062002644565b6020908102919091010152604080516001808252818301909252600091816020015b60408051808201909152600081526060602082015281526020019060019003908162001602579050509050858160008151811062001644576200164462002644565b6020908102919091018101516001600160a01b039092169091526040516200166f91849101620028a7565b6040516020818303038152906040528160008151811062001694576200169462002644565b6020908102919091018101510152604051638fcd793d60e01b81526001600160a01b03881690638fcd793d90620016d4908890889086906004016200277d565b6020604051808303816000875af1158015620016f4573d6000803e3d6000fd5b505050506040513d601f19601f8201168201806040525081019062000cd29190620025a3565b60408051600180825281830190925260009160208083019080368337019050509050828160008151811062001753576200175362002644565b6020908102919091018101919091528251908301516040516328fc1e7560e11b81526001600160a01b038716926351f83cea926200179692869060040162002941565b600060405180830381600087803b158015620017b157600080fd5b505af1158015620017c6573d6000803e3d6000fd5b5050505050505050565b60606000858585604051602001620017eb939291906200298a565b60405160208183030381529060405280519060200120905060405180602001620018159062001cc5565b601f198282038101835260c0601f90920116908101604090815263dc9cc64560e01b60808084019182523060a080860191909152918452825180840184526001600160a01b038b8116825260208281018c9052868101929092528451938401855289518452898201519184019190915288840151838501526060898101518216908401528882015193850193918301911615620018b7578760800151620018b9565b335b6001600160a01b031681525081526020016040518060200160405280620019077fbfc17bfcd641c969809ea46cafa0234f34c2d733b95035a848e816b1fa9cd8bc546001600160a01b031690565b6001600160a01b031690529052604051620019269190602001620029ba565b60408051601f198184030181529082905262001946929160200162002721565b604051602081830303815290604052915094509492505050565b600080516020620044f58339815191526200197c818362001b26565b506001600160a01b03909116600090815260029091016020526040812055565b6001600160a01b0381166000908152600183016020526040812054151562000d2c565b600062000d2c836001600160a01b03841662001b3d565b600062000200825490565b600062000d2c838362001b86565b6000826001018260405162001a05919062002585565b9081526040519081900360200190205415159392505050565b60008260200183518381836000f59250506001600160a01b0382169050620002005760405163ef35ca1960e01b815260040160405180910390fd5b600062001a678383620019ef565b62001abb5782546001810184556000848152602090200162001a8a838262002b03565b508254604051600185019062001aa290859062002585565b9081526040519081900360200190205550600162000200565b50600062000200565b600081602001825180826000f09250506001600160a01b0382169050620004365760405163ef35ca1960e01b815260040160405180910390fd5b6001600160a01b038116620004a9576040516302e47d1560e41b815260040160405180910390fd5b600062000d2c836001600160a01b03841662001bb3565b600081815260018301602052604081205462001abb5750815460018181018455600084815260208082209093018490558454848252828601909352604090209190915562000200565b600082600001828154811062001ba05762001ba062002644565b9060005260206000200154905092915050565b6000818152600183016020526040812054801562001cac57600062001bda60018362002bcf565b855490915060009062001bf09060019062002bcf565b905081811462001c5c57600086600001828154811062001c145762001c1462002644565b906000526020600020015490508087600001848154811062001c3a5762001c3a62002644565b6000918252602080832090910192909255918252600188019052604090208390555b855486908062001c705762001c7062002be5565b60019003818190600052602060002001600090559055856001016000868152602001908152602001600020600090556001935050505062000200565b600091505062000200565b6104ab8062002bfc83390190565b61144e80620030a783390190565b634e487b7160e01b600052604160045260246000fd5b604051606081016001600160401b038111828210171562001d0e5762001d0e62001cd3565b60405290565b604051608081016001600160401b038111828210171562001d0e5762001d0e62001cd3565b60405160e081016001600160401b038111828210171562001d0e5762001d0e62001cd3565b60405160a081016001600160401b038111828210171562001d0e5762001d0e62001cd3565b604051601f8201601f191681016001600160401b038111828210171562001dae5762001dae62001cd3565b604052919050565b600082601f83011262001dc857600080fd5b81356001600160401b0381111562001de45762001de462001cd3565b62001df9601f8201601f191660200162001d83565b81815284602083860101111562001e0f57600080fd5b816020850160208301376000918101602001919091529392505050565b60006020828403121562001e3f57600080fd5b81356001600160401b0381111562001e5657600080fd5b620004578482850162001db6565b80356001600160a01b03811681146200043657600080fd5b60006020828403121562001e8f57600080fd5b62000d2c8262001e64565b60008060006060848603121562001eb057600080fd5b62001ebb8462001e64565b925062001ecb6020850162001e64565b915062001edb6040850162001e64565b90509250925092565b6000806040838503121562001ef857600080fd5b62001f038362001e64565b946020939093013593505050565b60006001600160401b0382111562001f2d5762001f2d62001cd3565b5060051b60200190565b600082601f83011262001f4957600080fd5b8135602062001f6262001f5c8362001f11565b62001d83565b82815260059290921b8401810191818101908684111562001f8257600080fd5b8286015b8481101562001fc65780356001600160401b0381111562001fa75760008081fd5b62001fb78986838b010162001db6565b84525091830191830162001f86565b509695505050505050565b8015158114620004a957600080fd5b600082601f83011262001ff257600080fd5b813560206200200562001f5c8362001f11565b82815260059290921b840181019181810190868411156200202557600080fd5b8286015b8481101562001fc6576200203d8162001e64565b835291830191830162002029565b6000606082840312156200205e57600080fd5b6200206862001ce9565b90508135620020778162001fd1565b81526020828101356001600160401b03808211156200209557600080fd5b818501915085601f830112620020aa57600080fd5b8135620020bb62001f5c8262001f11565b81815260059190911b83018401908481019088831115620020db57600080fd5b8585015b83811015620021e257803585811115620020f95760008081fd5b86016080818c03601f1901811315620021125760008081fd5b6200211c62001d14565b620021298a840162001e64565b81526040808401358b8301526060840135620021458162001fd1565b828201529183013591888311156200215d5760008081fd5b82840193508d603f8501126200217557600092508283fd5b8a84013592506200218a62001f5c8462001f11565b83815260059390931b84018101928b8101908f851115620021ab5760008081fd5b948201945b84861015620021cb5785358252948c0194908c0190620021b0565b6060840152505085525050918601918601620020df565b50808688015250505060408501359250808311156200220057600080fd5b5050620022108482850162001fe0565b60408301525092915050565b600060e082840312156200222f57600080fd5b6200223962001d39565b905081356001600160401b03808211156200225357600080fd5b620022618583860162001db6565b83526020840135602084015260408401356040840152620022856060850162001e64565b6060840152620022986080850162001e64565b608084015260a0840135915080821115620022b257600080fd5b620022c08583860162001f37565b60a084015260c0840135915080821115620022da57600080fd5b50620022e9848285016200204b565b60c08301525092915050565b6000604082840312156200230857600080fd5b604051604081016001600160401b0382821081831117156200232e576200232e62001cd3565b8160405282935084359150808211156200234757600080fd5b620023558683870162001db6565b835260208501359150808211156200236c57600080fd5b506200237b8582860162001db6565b6020830152505092915050565b6000602082840312156200239b57600080fd5b81356001600160401b0380821115620023b357600080fd5b9083019060a08286031215620023c857600080fd5b620023d262001d5e565b823582811115620023e257600080fd5b620023f08782860162001db6565b8252506020830135828111156200240657600080fd5b620024148782860162001db6565b6020830152506040830135828111156200242d57600080fd5b6200243b8782860162001db6565b6040830152506060830135828111156200245457600080fd5b62002462878286016200221c565b6060830152506080830135828111156200247b57600080fd5b6200248987828601620022f5565b60808301525095945050505050565b60008060408385031215620024ac57600080fd5b82356001600160401b0380821115620024c457600080fd5b620024d28683870162001db6565b93506020850135915080821115620024e957600080fd5b50620024f8858286016200221c565b9150509250929050565b600080600080608085870312156200251957600080fd5b620025248562001e64565b9350620025346020860162001e64565b9250620025446040860162001e64565b9150620025546060860162001e64565b905092959194509250565b60005b838110156200257c57818101518382015260200162002562565b50506000910152565b60008251620025998184602087016200255f565b9190910192915050565b600060208284031215620025b657600080fd5b5051919050565b60008151808452620025d78160208601602086016200255f565b601f01601f19169290920160200192915050565b608081526000620026006080830187620025bd565b8281036020840152620026148187620025bd565b905082810360408401526200262a8186620025bd565b91505060018060a01b038316606083015295945050505050565b634e487b7160e01b600052603260045260246000fd5b6020808252825182820181905260009190848201906040850190845b818110156200269d5783516001600160a01b03168352928401929184019160010162002676565b50909695505050505050565b600060208284031215620026bc57600080fd5b815162000d2c8162001fd1565b634e487b7160e01b600052601160045260246000fd5b600060018201620026f457620026f4620026c9565b5060010190565b6001600160a01b03831681526040602082018190526000906200045790830184620025bd565b60008351620027358184602088016200255f565b8351908301906200274b8183602088016200255f565b01949350505050565b60018060a01b0381511682526000602082015160406020850152620004576040850182620025bd565b606081526000620027926060830186620025bd565b6020838203818501528186518084528284019150828160051b85010183890160005b83811015620027e657601f19878403018552620027d3838351620025bd565b94860194925090850190600101620027b4565b50508681036040880152875180825284820195509250600583901b81018401915083880160005b848110156200283f57601f198385030187526200282c84835162002754565b968601969350908501906001016200280d565b50919a9950505050505050505050565b82815260406020820152600062000457604083018462002754565b600081518084526020808501945080840160005b838110156200289c578151875295820195908201906001016200287e565b509495945050505050565b60006020808301818452808551808352604092508286019150828160051b87010184880160005b838110156200293357888303603f19018552815180516001600160a01b031684528781015188850152868101511515878501526060908101516080918501829052906200291e818601836200286a565b968901969450505090860190600101620028ce565b509098975050505050505050565b606081526000620029566060830186620025bd565b82810360208401526200296a8186620025bd565b905082810360408401526200298081856200286a565b9695505050505050565b6060815260006200299f6060830186620025bd565b6001600160a01b039490941660208301525060400152919050565b6020808252825180516001600160e01b031916838301528101516001600160a01b0390811660408085019190915284830151805183166060860152830151608085015284015160c060a080860191909152815160e0860191909152600093929062002a2a610180870182620025bd565b9383015161010087015250604082015161012086015260608083015182166101408701526080830151821661016087015286015180516001600160a01b031660c08701529262002980565b600181811c9082168062002a8a57607f821691505b60208210810362002aab57634e487b7160e01b600052602260045260246000fd5b50919050565b601f821115620002e057600081815260208120601f850160051c8101602086101562002ada5750805b601f850160051c820191505b8181101562002afb5782815560010162002ae6565b505050505050565b81516001600160401b0381111562002b1f5762002b1f62001cd3565b62002b378162002b30845462002a75565b8462002ab1565b602080601f83116001811462002b6f576000841562002b565750858301515b600019600386901b1c1916600185901b17855562002afb565b600085815260208120601f198616915b8281101562002ba05788860151825594840194600190910190840162002b7f565b508582101562002bbf5787850151600019600388901b60f8161c191681555b5050505050600190811b01905550565b81810381811115620002005762000200620026c9565b634e487b7160e01b600052603160045260246000fdfe60806040526040516104ab3803806104ab833981016040819052610022916102de565b61002e82826000610035565b50506103fb565b61003e83610061565b60008251118061004b5750805b1561005c5761005a83836100a1565b505b505050565b61006a816100cd565b6040516001600160a01b038216907fbc7cd75a20ee27fd9adebab32041f755214dbc6bffa90cc0225b39da2e5c2d3b90600090a250565b60606100c6838360405180606001604052806027815260200161048460279139610180565b9392505050565b6001600160a01b0381163b61013f5760405162461bcd60e51b815260206004820152602d60248201527f455243313936373a206e657720696d706c656d656e746174696f6e206973206e60448201526c1bdd08184818dbdb9d1c9858dd609a1b60648201526084015b60405180910390fd5b7f360894a13ba1a3210667c828492db98dca3e2076cc3735a920a3ca505d382bbc80546001600160a01b0319166001600160a01b0392909216919091179055565b6060600080856001600160a01b03168560405161019d91906103ac565b600060405180830381855af49150503d80600081146101d8576040519150601f19603f3d011682016040523d82523d6000602084013e6101dd565b606091505b5090925090506101ef868383876101f9565b9695505050505050565b60608315610268578251600003610261576001600160a01b0385163b6102615760405162461bcd60e51b815260206004820152601d60248201527f416464726573733a2063616c6c20746f206e6f6e2d636f6e74726163740000006044820152606401610136565b5081610272565b610272838361027a565b949350505050565b81511561028a5781518083602001fd5b8060405162461bcd60e51b815260040161013691906103c8565b634e487b7160e01b600052604160045260246000fd5b60005b838110156102d55781810151838201526020016102bd565b50506000910152565b600080604083850312156102f157600080fd5b82516001600160a01b038116811461030857600080fd5b60208401519092506001600160401b038082111561032557600080fd5b818501915085601f83011261033957600080fd5b81518181111561034b5761034b6102a4565b604051601f8201601f19908116603f01168101908382118183101715610373576103736102a4565b8160405282815288602084870101111561038c57600080fd5b61039d8360208301602088016102ba565b80955050505050509250929050565b600082516103be8184602087016102ba565b9190910192915050565b60208152600082518060208401526103e78160408501602087016102ba565b601f01601f19169190910160400192915050565b607b806104096000396000f3fe608060405236601057600e6013565b005b600e5b601f601b6021565b6058565b565b600060537f360894a13ba1a3210667c828492db98dca3e2076cc3735a920a3ca505d382bbc546001600160a01b031690565b905090565b3660008037600080366000845af43d6000803e8080156076573d6000f35b3d6000fd416464726573733a206c6f772d6c6576656c2064656c65676174652063616c6c206661696c656460806040523480156200001157600080fd5b506040516200144e3803806200144e833981016040819052620000349162000641565b6200003e620001c5565b80518051602090910151620000a991907f8554b9df6321355bca4334cacaab69e5fcc1f4562dedc2e1f459ba5fa38bf21c80546001600160c01b031916600160a01b60e09490941c939093026001600160a01b031916929092176001600160a01b0391909116179055565b60208181015180519101517f9bd0e1a7aef81c47cff971a2fee48406b20f55522326b2e2616c49c24aa506d080546001600160a01b0319166001600160a01b03909316929092179091557f9bd0e1a7aef81c47cff971a2fee48406b20f55522326b2e2616c49c24aa506d15560408082015151815180830190925260048252632a27aba760e11b60208301526200014091620001d9565b60408082015160208082015192820151606083015160809093015185519092015162000170949391929062000241565b606081015151620001be906001600160a01b031660009081527f9be1203d7c008407e47cf520c8f15f54b074f0a2af3750145c254290338afc3f60205260409020805460ff19166001179055565b506200088e565b620001d76301ffc9a760e01b6200031e565b565b7f234d8962d7c9a6a6604d7f98797e6ad6d7a886804f7409feb26422e27bf812547f234d8962d7c9a6a6604d7f98797e6ad6d7a886804f7409feb26422e27bf81256620002278482620007c2565b5060038101620002388382620007c2565b50600190555050565b7f9b35df16c33a6c0e085c9ebd55fb367f81c58c2ed7e9bed98cc622f3308a600f8590557f9b35df16c33a6c0e085c9ebd55fb367f81c58c2ed7e9bed98cc622f3308a60108490557f9b35df16c33a6c0e085c9ebd55fb367f81c58c2ed7e9bed98cc622f3308a600d6001600160a01b03841615620002c15783620002d7565b73eeeeeeeeeeeeeeeeeeeeeeeeeeeeeeeeeeeeeeee5b6004820180546001600160a01b03199081166001600160a01b0393841617909155600583018054821695831695909517909455600690910180549093169116179055505050565b6001600160e01b0319811660009081526000805160206200142e833981519152602052604090205460ff1615156001146200038b576001600160e01b0319811660009081526000805160206200142e83398151915260205260409020805460ff19166001179055620003a4565b604051637967f77d60e11b815260040160405180910390fd5b6040516001600160e01b03198216907f78f84e5b1c5c05be2b5ad3800781dd404d6d6c6302bc755c0fe20f58a33a7f2290600090a250565b634e487b7160e01b600052604160045260246000fd5b604080519081016001600160401b0381118282101715620004175762000417620003dc565b60405290565b60405160a081016001600160401b0381118282101715620004175762000417620003dc565b604051608081016001600160401b0381118282101715620004175762000417620003dc565b604051601f8201601f191681016001600160401b0381118282101715620004925762000492620003dc565b604052919050565b80516001600160a01b0381168114620004b257600080fd5b919050565b600060408284031215620004ca57600080fd5b620004d4620003f2565b9050620004e1826200049a565b81526020820151602082015292915050565b600060a082840312156200050657600080fd5b620005106200041d565b82519091506001600160401b03808211156200052b57600080fd5b818401915084601f8301126200054057600080fd5b815181811115620005555762000555620003dc565b602091506200056d601f8201601f1916830162000467565b81815286838386010111156200058257600080fd5b60005b82811015620005a257848101840151828201850152830162000585565b50600083838301015280855250508084015181840152505060408201516040820152620005d2606083016200049a565b6060820152620005e5608083016200049a565b608082015292915050565b6000602082840312156200060357600080fd5b604051602081016001600160401b0381118282101715620006285762000628620003dc565b60405290508062000639836200049a565b905292915050565b6000602082840312156200065457600080fd5b81516001600160401b03808211156200066c57600080fd5b9083019081850360c08112156200068257600080fd5b6200068c62000442565b60408212156200069b57600080fd5b620006a5620003f2565b84519092506001600160e01b031981168114620006c157600080fd5b8252620006d1602085016200049a565b6020830152818152620006e88760408601620004b7565b602082015260808401519150828211156200070257600080fd5b6200071087838601620004f3565b6040820152620007248760a08601620005f0565b60608201529695505050505050565b600181811c908216806200074857607f821691505b6020821081036200076957634e487b7160e01b600052602260045260246000fd5b50919050565b601f821115620007bd57600081815260208120601f850160051c81016020861015620007985750805b601f850160051c820191505b81811015620007b957828155600101620007a4565b5050505b505050565b81516001600160401b03811115620007de57620007de620003dc565b620007f681620007ef845462000733565b846200076f565b602080601f8311600181146200082e5760008415620008155750858301515b600019600386901b1c1916600185901b178555620007b9565b600085815260208120601f198616915b828110156200085f578886015182559484019460019091019084016200083e565b50858210156200087e5787850151600019600388901b60f8161c191681555b5050505050600190811b01905550565b610b90806200089e6000396000f3fe6080604052600436106100a05760003560e01c8063572b6c0511610064578063572b6c051461019e5780635b312fce1461020657806362452006146102435780637025156314610263578063ac9650d8146102a0578063b8307376146102cd576100a7565b806302b24da5146100b15780630c3a01b1146100d15780631766bb7b146100f15780631b3972f0146101195780631d214b4d1461014d576100a7565b366100a757005b6100af6102ed565b005b3480156100bd57600080fd5b506100af6100cc36600461094c565b610345565b3480156100dd57600080fd5b506100af6100ec36600461094c565b610440565b3480156100fd57600080fd5b50610106610544565b6040519081526020015b60405180910390f35b34801561012557600080fd5b507f9b35df16c33a6c0e085c9ebd55fb367f81c58c2ed7e9bed98cc622f3308a600f54610106565b34801561015957600080fd5b507f9b35df16c33a6c0e085c9ebd55fb367f81c58c2ed7e9bed98cc622f3308a6012546001600160a01b03165b6040516001600160a01b039091168152602001610110565b3480156101aa57600080fd5b506101f66101b936600461097d565b6001600160a01b031660009081527f9be1203d7c008407e47cf520c8f15f54b074f0a2af3750145c254290338afc3f602052604090205460ff1690565b6040519015158152602001610110565b34801561021257600080fd5b507f9b35df16c33a6c0e085c9ebd55fb367f81c58c2ed7e9bed98cc622f3308a6013546001600160a01b0316610186565b34801561024f57600080fd5b506100af61025e36600461097d565b610619565b34801561026f57600080fd5b507f9b35df16c33a6c0e085c9ebd55fb367f81c58c2ed7e9bed98cc622f3308a6011546001600160a01b0316610186565b3480156102ac57600080fd5b506102c06102bb3660046109a1565b610681565b6040516101109190610a3a565b3480156102d957600080fd5b506100af6102e836600461097d565b61079e565b60006102f7610806565b90506001600160a01b0381163b610321576040516321f27f0d60e21b815260040160405180910390fd5b3660008037600080366000845af43d6000803e808015610340573d6000f35b3d6000fd5b7f9b35df16c33a6c0e085c9ebd55fb367f81c58c2ed7e9bed98cc622f3308a60135460408051632cbb9d1360e01b815290517f9b35df16c33a6c0e085c9ebd55fb367f81c58c2ed7e9bed98cc622f3308a600d926000926001600160a01b0390911691632cbb9d13916004808201926020929091908290030181865afa1580156103d3573d6000803e3d6000fd5b505050506040513d601f19601f820116820180604052508101906103f79190610ab4565b90508083111561041a57604051632b6e8cbb60e11b815260040160405180910390fd5b50507f9b35df16c33a6c0e085c9ebd55fb367f81c58c2ed7e9bed98cc622f3308a601055565b7f9b35df16c33a6c0e085c9ebd55fb367f81c58c2ed7e9bed98cc622f3308a6011547f9b35df16c33a6c0e085c9ebd55fb367f81c58c2ed7e9bed98cc622f3308a600d906001600160a01b03166104aa57604051636da3122b60e01b815260040160405180910390fd5b600681015460408051630eac306d60e01b815290516000926001600160a01b031691630eac306d9160048083019260209291908290030181865afa1580156104f6573d6000803e3d6000fd5b505050506040513d601f19601f8201168201806040525081019061051a9190610ab4565b90508083101561053d57604051631a23d64760e11b815260040160405180910390fd5b5060020155565b7f9b35df16c33a6c0e085c9ebd55fb367f81c58c2ed7e9bed98cc622f3308a6010546000907f9b35df16c33a6c0e085c9ebd55fb367f81c58c2ed7e9bed98cc622f3308a600d908203610610578060060160009054906101000a90046001600160a01b03166001600160a01b0316632cbb9d136040518163ffffffff1660e01b8152600401602060405180830381865afa1580156105e6573d6000803e3d6000fd5b505050506040513d601f19601f8201168201806040525081019061060a9190610ab4565b91505090565b60030154919050565b6001600160a01b03811661064057604051631492df6160e21b815260040160405180910390fd5b7f9b35df16c33a6c0e085c9ebd55fb367f81c58c2ed7e9bed98cc622f3308a601280546001600160a01b0319166001600160a01b0392909216919091179055565b6060818067ffffffffffffffff81111561069d5761069d610acd565b6040519080825280602002602001820160405280156106d057816020015b60608152602001906001900390816106bb5790505b50915060005b8181101561079657600080308787858181106106f4576106f4610ae3565b90506020028101906107069190610af9565b604051610714929190610b47565b600060405180830381855af49150503d806000811461074f576040519150601f19603f3d011682016040523d82523d6000602084013e610754565b606091505b50915091508115610782578085848151811061077257610772610ae3565b602002602001018190525061078c565b3d6000803e3d6000fd5b50506001016106d6565b505092915050565b6001600160a01b0381166107c557604051636da3122b60e01b815260040160405180910390fd5b7f9b35df16c33a6c0e085c9ebd55fb367f81c58c2ed7e9bed98cc622f3308a601180546001600160a01b0319166001600160a01b0392909216919091179055565b7f8554b9df6321355bca4334cacaab69e5fcc1f4562dedc2e1f459ba5fa38bf21c54600090600160a01b900460e01b81806108687f8554b9df6321355bca4334cacaab69e5fcc1f4562dedc2e1f459ba5fa38bf21c546001600160a01b031690565b6040516001600160e01b03196000351660248201526001600160a01b039190911690849060440160408051601f198184030181529181526020820180516001600160e01b03166001600160e01b03199094169390931790925290516108cd9190610b57565b600060405180830381855afa9150503d8060008114610908576040519150601f19603f3d011682016040523d82523d6000602084013e61090d565b606091505b5091509150816109305760405163391aa44560e01b815260040160405180910390fd5b808060200190518101906109449190610b73565b935050505090565b60006020828403121561095e57600080fd5b5035919050565b6001600160a01b038116811461097a57600080fd5b50565b60006020828403121561098f57600080fd5b813561099a81610965565b9392505050565b600080602083850312156109b457600080fd5b823567ffffffffffffffff808211156109cc57600080fd5b818501915085601f8301126109e057600080fd5b8135818111156109ef57600080fd5b8660208260051b8501011115610a0457600080fd5b60209290920196919550909350505050565b60005b83811015610a31578181015183820152602001610a19565b50506000910152565b6000602080830181845280855180835260408601915060408160051b870101925083870160005b82811015610aa757878503603f1901845281518051808752610a88818989018a8501610a16565b601f01601f191695909501860194509285019290850190600101610a61565b5092979650505050505050565b600060208284031215610ac657600080fd5b5051919050565b634e487b7160e01b600052604160045260246000fd5b634e487b7160e01b600052603260045260246000fd5b6000808335601e19843603018112610b1057600080fd5b83018035915067ffffffffffffffff821115610b2b57600080fd5b602001915036819003821315610b4057600080fd5b9250929050565b8183823760009101908152919050565b60008251610b69818460208701610a16565b9190910192915050565b600060208284031215610b8557600080fd5b815161099a8161096556bc7de460bcfb6afd0c415c8c610d408bd914b18d7d0feec0da9e25348087a5c40021838b43e034e5a0d20f42ce9ca05b74b34cf419ae1034249310df3263674dbfc17bfcd641c969809ea46cafa0234f34c2d733b95035a848e816b1fa9cd8b9bfc17bfcd641c969809ea46cafa0234f34c2d733b95035a848e816b1fa9cd8b5",
    "linkReferences": {}
  },
  "methodIdentifiers": {
    "__TownArchitect_init(address,address,address,address)": "fc833cd2",
    "computeTown(string,(string,uint256,uint256,address,address,string[],(bool,(address,uint256,bool,uint256[])[],address[])))": "ab8e6a76",
    "createTown((string,string,string,(string,uint256,uint256,address,address,string[],(bool,(address,uint256,bool,uint256[])[],address[])),(string,string)))": "9fbd83bc",
    "gateByToken(address,uint256)": "5b560b67",
    "getTokenIdByTownId(string)": "9c7843c2",
    "getTownArchitectImplementations()": "18c7f066",
    "getTownById(string)": "11a8b382",
    "isTokenGated(address)": "1c05bbc7",
    "setTownArchitectImplementations(address,address,address)": "51ec4c1d",
    "ungateByToken(address)": "edddeb4d"
  },
  "id": 174
}