{
  "abi": [
    {
      "inputs": [],
      "name": "Factory__FailedDeployment",
      "type": "error"
    },
    {
      "inputs": [],
      "name": "GateFacetService__NotAllowed",
      "type": "error"
    },
    {
      "inputs": [],
      "name": "Initializable_InInitializingState",
      "type": "error"
    },
    {
      "inputs": [],
      "name": "Initializable_NotInInitializingState",
      "type": "error"
    },
    {
      "inputs": [],
      "name": "Introspection_AlreadySupported",
      "type": "error"
    },
    {
      "inputs": [],
      "name": "Introspection_NotSupported",
      "type": "error"
    },
    {
      "inputs": [
        {
          "internalType": "address",
          "name": "account",
          "type": "address"
        }
      ],
      "name": "Ownable__NotOwner",
      "type": "error"
    },
    {
      "inputs": [],
      "name": "Ownable__ZeroAddress",
      "type": "error"
    },
    {
      "inputs": [],
      "name": "Pausable__NotPaused",
      "type": "error"
    },
    {
      "inputs": [],
      "name": "Pausable__Paused",
      "type": "error"
    },
    {
      "inputs": [],
      "name": "ReentrancyGuard__ReentrantCall",
      "type": "error"
    },
    {
      "inputs": [],
      "name": "TownArchitect__InvalidAddress",
      "type": "error"
    },
    {
      "inputs": [],
      "name": "TownArchitect__InvalidNetworkId",
      "type": "error"
    },
    {
      "inputs": [],
      "name": "TownArchitect__InvalidStringLength",
      "type": "error"
    },
    {
      "inputs": [],
      "name": "TownArchitect__NotContract",
      "type": "error"
    },
    {
      "inputs": [],
      "name": "Validator__InvalidAddress",
      "type": "error"
    },
    {
      "inputs": [],
      "name": "Validator__InvalidStringLength",
      "type": "error"
    },
    {
      "anonymous": false,
      "inputs": [
        {
          "indexed": false,
          "internalType": "uint32",
          "name": "version",
          "type": "uint32"
        }
      ],
      "name": "Initialized",
      "type": "event"
    },
    {
      "anonymous": false,
      "inputs": [
        {
          "indexed": true,
          "internalType": "bytes4",
          "name": "interfaceId",
          "type": "bytes4"
        }
      ],
      "name": "InterfaceAdded",
      "type": "event"
    },
    {
      "anonymous": false,
      "inputs": [
        {
          "indexed": true,
          "internalType": "bytes4",
          "name": "interfaceId",
          "type": "bytes4"
        }
      ],
      "name": "InterfaceRemoved",
      "type": "event"
    },
    {
      "anonymous": false,
      "inputs": [
        {
          "indexed": true,
          "internalType": "address",
          "name": "previousOwner",
          "type": "address"
        },
        {
          "indexed": true,
          "internalType": "address",
          "name": "newOwner",
          "type": "address"
        }
      ],
      "name": "OwnershipTransferred",
      "type": "event"
    },
    {
      "anonymous": false,
      "inputs": [
        {
          "indexed": false,
          "internalType": "address",
          "name": "account",
          "type": "address"
        }
      ],
      "name": "Paused",
      "type": "event"
    },
    {
      "anonymous": false,
      "inputs": [
        {
          "indexed": true,
          "internalType": "address",
          "name": "townCreator",
          "type": "address"
        },
        {
          "indexed": true,
          "internalType": "uint256",
          "name": "townId",
          "type": "uint256"
        },
        {
          "indexed": false,
          "internalType": "address",
          "name": "town",
          "type": "address"
        }
      ],
      "name": "TownCreated",
      "type": "event"
    },
    {
      "anonymous": false,
      "inputs": [
        {
          "indexed": false,
          "internalType": "address",
          "name": "account",
          "type": "address"
        }
      ],
      "name": "Unpaused",
      "type": "event"
    },
    {
      "inputs": [
        {
          "internalType": "address",
          "name": "townOwner",
          "type": "address"
        },
        {
          "internalType": "address",
          "name": "userEntitlementImplementation",
          "type": "address"
        },
        {
          "internalType": "address",
          "name": "tokenEntitlementImplementation",
          "type": "address"
        }
      ],
      "name": "__TownArchitect_init",
      "outputs": [],
      "stateMutability": "nonpayable",
      "type": "function"
    },
    {
      "inputs": [
        {
          "internalType": "string",
          "name": "townId",
          "type": "string"
        }
      ],
      "name": "computeTown",
      "outputs": [
        {
          "internalType": "address",
          "name": "",
          "type": "address"
        }
      ],
      "stateMutability": "view",
      "type": "function"
    },
    {
      "inputs": [
        {
          "components": [
            {
              "internalType": "string",
              "name": "id",
              "type": "string"
            },
            {
              "internalType": "string",
              "name": "name",
              "type": "string"
            },
            {
              "internalType": "string",
              "name": "uri",
              "type": "string"
            },
            {
              "components": [
                {
                  "internalType": "string",
                  "name": "name",
                  "type": "string"
                },
                {
                  "internalType": "string[]",
                  "name": "permissions",
                  "type": "string[]"
                }
              ],
              "internalType": "struct ITownArchitectBase.RoleInfo",
              "name": "everyoneEntitlement",
              "type": "tuple"
            },
            {
              "components": [
                {
                  "components": [
                    {
                      "internalType": "string",
                      "name": "name",
                      "type": "string"
                    },
                    {
                      "internalType": "string[]",
                      "name": "permissions",
                      "type": "string[]"
                    }
                  ],
                  "internalType": "struct ITownArchitectBase.RoleInfo",
                  "name": "role",
                  "type": "tuple"
                },
                {
                  "components": [
                    {
                      "internalType": "address",
                      "name": "contractAddress",
                      "type": "address"
                    },
                    {
                      "internalType": "uint256",
                      "name": "quantity",
                      "type": "uint256"
                    },
                    {
                      "internalType": "bool",
                      "name": "isSingleToken",
                      "type": "bool"
                    },
                    {
                      "internalType": "uint256[]",
                      "name": "tokenIds",
                      "type": "uint256[]"
                    }
                  ],
                  "internalType": "struct ITokenEntitlement.ExternalToken[]",
                  "name": "tokens",
                  "type": "tuple[]"
                },
                {
                  "internalType": "address[]",
                  "name": "users",
                  "type": "address[]"
                }
              ],
              "internalType": "struct ITownArchitectBase.MemberEntitlement",
              "name": "memberEntitlement",
              "type": "tuple"
            },
            {
              "components": [
                {
                  "internalType": "string",
                  "name": "id",
                  "type": "string"
                },
                {
                  "internalType": "string",
                  "name": "metadata",
                  "type": "string"
                }
              ],
              "internalType": "struct ITownArchitectBase.ChannelInfo",
              "name": "channel",
              "type": "tuple"
            }
          ],
          "internalType": "struct ITownArchitectBase.TownInfo",
          "name": "townInfo",
          "type": "tuple"
        }
      ],
      "name": "createTown",
      "outputs": [
        {
          "internalType": "address",
          "name": "",
          "type": "address"
        }
      ],
      "stateMutability": "nonpayable",
      "type": "function"
    },
    {
      "inputs": [
        {
          "internalType": "address",
          "name": "token",
          "type": "address"
        },
        {
          "internalType": "uint256",
          "name": "quantity",
          "type": "uint256"
        }
      ],
      "name": "gateByToken",
      "outputs": [],
      "stateMutability": "nonpayable",
      "type": "function"
    },
    {
      "inputs": [
        {
          "internalType": "string",
          "name": "townId",
          "type": "string"
        }
      ],
      "name": "getTokenIdByTownId",
      "outputs": [
        {
          "internalType": "uint256",
          "name": "",
          "type": "uint256"
        }
      ],
      "stateMutability": "view",
      "type": "function"
    },
    {
      "inputs": [],
      "name": "getTownArchitectImplementations",
      "outputs": [
        {
          "internalType": "address",
          "name": "townToken",
          "type": "address"
        },
        {
          "internalType": "address",
          "name": "userEntitlementImplementation",
          "type": "address"
        },
        {
          "internalType": "address",
          "name": "tokenEntitlementImplementation",
          "type": "address"
        }
      ],
      "stateMutability": "view",
      "type": "function"
    },
    {
      "inputs": [
        {
          "internalType": "string",
          "name": "townId",
          "type": "string"
        }
      ],
      "name": "getTownById",
      "outputs": [
        {
          "internalType": "address",
          "name": "",
          "type": "address"
        }
      ],
      "stateMutability": "view",
      "type": "function"
    },
    {
      "inputs": [
        {
          "internalType": "address",
          "name": "token",
          "type": "address"
        }
      ],
      "name": "isTokenGated",
      "outputs": [
        {
          "internalType": "bool",
          "name": "",
          "type": "bool"
        }
      ],
      "stateMutability": "view",
      "type": "function"
    },
    {
      "inputs": [
        {
          "internalType": "address",
          "name": "townToken",
          "type": "address"
        },
        {
          "internalType": "address",
          "name": "userEntitlementImplementation",
          "type": "address"
        },
        {
          "internalType": "address",
          "name": "tokenEntitlementImplementation",
          "type": "address"
        }
      ],
      "name": "setTownArchitectImplementations",
      "outputs": [],
      "stateMutability": "nonpayable",
      "type": "function"
    },
    {
      "inputs": [
        {
          "internalType": "address",
          "name": "token",
          "type": "address"
        }
      ],
      "name": "ungateByToken",
      "outputs": [],
      "stateMutability": "nonpayable",
      "type": "function"
    }
  ],
  "bytecode": {
    "object": "0x60806040523480156200001157600080fd5b506200001c62000022565b620000ca565b7f2d0d21306acfe8e9bb163a4573e95aff6cef95dc1102c6a16d5f19eac08cc4de8054640100000000900460ff16156200006f576040516366008a2d60e01b815260040160405180910390fd5b805463ffffffff9081161015620000c757805463ffffffff191663ffffffff90811782556040519081527fe9c9b456cb2994b80aeef036cf59d26e9617df80f816a6ee5a5b4166e07e2f5c9060200160405180910390a15b50565b61328280620000da6000396000f3fe60806040523480156200001157600080fd5b5060043610620000ab5760003560e01c80639c7843c2116200006e5780639c7843c21462000171578063ac6eec371462000197578063ba656dbd14620001ae578063edddeb4d14620001c5578063f8c5908d14620001dc57600080fd5b806311a8b38214620000b057806318c7f06614620000e45780631c05bbc7146200011957806351ec4c1d14620001415780635b560b67146200015a575b600080fd5b620000c7620000c136600462001b13565b620001f3565b6040516001600160a01b0390911681526020015b60405180910390f35b620000ee62000206565b604080516001600160a01b0394851681529284166020840152921691810191909152606001620000db565b620001306200012a36600462001b63565b62000283565b6040519015158152602001620000db565b620001586200015236600462001b81565b62000290565b005b620001586200016b36600462001bcb565b620002e5565b620001886200018236600462001b13565b62000334565b604051908152602001620000db565b620000c7620001a836600462001b13565b62000341565b620000c7620001bf36600462001ff0565b62000363565b62000158620001d636600462001b63565b6200045d565b62000158620001ed36600462001b81565b620004aa565b60006200020082620004f5565b92915050565b60008060006200027860008051602062003242833981519152547fbfc17bfcd641c969809ea46cafa0234f34c2d733b95035a848e816b1fa9cd8ba547fbfc17bfcd641c969809ea46cafa0234f34c2d733b95035a848e816b1fa9cd8bb546001600160a01b0392831693918316921690565b925092509250909192565b600062000200826200055b565b6200029a62000568565b6001600160a01b0316336001600160a01b031614620002d3576040516365f4906560e01b81523360048201526024015b60405180910390fd5b620002e083838362000596565b505050565b620002ef62000568565b6001600160a01b0316336001600160a01b03161462000324576040516365f4906560e01b8152336004820152602401620002ca565b6200033082826200069c565b5050565b60006200020082620006a8565b6000806200034e62000705565b90506200035c83826200079e565b9392505050565b600060027f50b052c8fb38984269a818b2b593d0584a81b1b99245abc0fab04abc7afb010f5403620003a857604051635db5c7cd60e11b815260040160405180910390fd5b620003d260027f50b052c8fb38984269a818b2b593d0584a81b1b99245abc0fab04abc7afb010f55565b7ff421ea548af7158b1d71ba0aeccf57104c067038bd8fd214edd05c09eb4f735b5460ff161562000416576040516302ca8ced60e11b815260040160405180910390fd5b620004213362000846565b6200042c8262000851565b90506200045860017f50b052c8fb38984269a818b2b593d0584a81b1b99245abc0fab04abc7afb010f55565b919050565b6200046762000568565b6001600160a01b0316336001600160a01b0316146200049c576040516365f4906560e01b8152336004820152602401620002ca565b620004a78162000c98565b50565b7f2d0d21306acfe8e9bb163a4573e95aff6cef95dc1102c6a16d5f19eac08cc4de54640100000000900460ff16620002d357604051630ef4733760e31b815260040160405180910390fd5b60405160009060008051602062003262833981519152907fbfc17bfcd641c969809ea46cafa0234f34c2d733b95035a848e816b1fa9cd8b7906200053b9085906200214d565b908152604051908190036020019020546001600160a01b03169392505050565b6000620002008262000ca3565b7fa7c3be20e3a76821507555109752fad8a6630ef0362a34dcfcdfef83c99a2537546001600160a01b031690565b6001600160a01b0383163b620005bf57604051638a83510f60e01b815260040160405180910390fd5b6001600160a01b0382163b620005e857604051638a83510f60e01b815260040160405180910390fd5b6001600160a01b0381163b6200061157604051638a83510f60e01b815260040160405180910390fd5b6000805160206200324283398151915280546001600160a01b039485166001600160a01b0319918216179091557fbfc17bfcd641c969809ea46cafa0234f34c2d733b95035a848e816b1fa9cd8ba8054938516938216939093179092557fbfc17bfcd641c969809ea46cafa0234f34c2d733b95035a848e816b1fa9cd8bb8054919093169116179055565b62000330828262000ced565b60405160009060008051602062003262833981519152907fbfc17bfcd641c969809ea46cafa0234f34c2d733b95035a848e816b1fa9cd8b890620006ee9085906200214d565b908152602001604051809103902054915050919050565b600080516020620032428339815191525460408051631d5e528f60e21b8152905160009260008051602062003262833981519152926001600160a01b03909116916375794a3c916004818101926020929091908290030181865afa15801562000772573d6000803e3d6000fd5b505050506040513d601f19601f820116820180604052508101906200079891906200216b565b91505090565b6000805160206200324283398151915254600090600080516020620032628339815191529082908190620007de9087906001600160a01b03168762000e5a565b8151602080840191909120604080516001600160f81b0319818501526bffffffffffffffffffffffff193060601b16602182015260358101859052605580820193909352815180820390930183526075019052805191012091935091505b9695505050505050565b620004a78162000f18565b60006200086282600001516200103f565b815160008051602062003262833981519152906200088290829062001064565b15620008a1576040516339c4486560e01b815260040160405180910390fd5b60008160040160009054906101000a90046001600160a01b03166001600160a01b03166375794a3c6040518163ffffffff1660e01b8152600401602060405180830381865afa158015620008f9573d6000803e3d6000fd5b505050506040513d601f19601f820116820180604052508101906200091f91906200216b565b90506200093184600001518262001072565b845190935062000943908390620010c2565b50808260030185600001516040516200095d91906200214d565b9081526040519081900360200181209190915584518491600285019162000984916200214d565b908152604080516020928190038301812080546001600160a01b0319166001600160a01b039586161790556004868101549389015192890151895162c4a50160e31b84529490951694630625280894620009e69493919290918a9101620021b3565b6020604051808303816000875af115801562000a06573d6000803e3d6000fd5b505050506040513d601f19601f8201168201806040525081019062000a2c91906200216b565b50600062000a5760008051602062003262833981519152600501546001600160a01b031685620010d0565b9050600062000a8360008051602062003262833981519152600601546001600160a01b031686620010d0565b6040805160028082526060820183529293506000929091602083019080368337019050509050828160008151811062000ac05762000ac06200220c565b60200260200101906001600160a01b031690816001600160a01b031681525050818160018151811062000af75762000af76200220c565b6001600160a01b039283166020918202929092010152604051638bfc820f60e01b815290871690638bfc820f9062000b3490849060040162002222565b600060405180830381600087803b15801562000b4f57600080fd5b505af115801562000b64573d6000803e3d6000fd5b50505050600062000b7b87858a606001516200118d565b905060008089608001516040015151118062000ba05750600089608001516020015151115b1562000bbb5762000bb88886868c608001516200130b565b90505b62000bdd888260000362000bd0578362000bd2565b825b8b60a0015162001591565b600487810154604051632142170760e11b81523092810192909252336024830152604482018890526001600160a01b0316906342842e0e90606401600060405180830381600087803b15801562000c3357600080fd5b505af115801562000c48573d6000803e3d6000fd5b50506040516001600160a01b038b1681528892503391507f3a9b63f709203f3b6dabc8d90e98bff22696c86fc5608f54453424cabab529859060200160405180910390a350505050505050919050565b620004a78162001647565b60006000805160206200322283398151915262000cc1818462001683565b80156200035c57506001600160a01b038316600090815260028201602052604090205415159392505050565b6040516301ffc9a760e01b81526380ac58cd60e01b60048201526001600160a01b038316906301ffc9a790602401602060405180830381865afa15801562000d39573d6000803e3d6000fd5b505050506040513d601f19601f8201168201806040525081019062000d5f919062002271565b15801562000ddc57506040516301ffc9a760e01b81526336372b0760e01b60048201526001600160a01b038316906301ffc9a790602401602060405180830381865afa15801562000db4573d6000803e3d6000fd5b505050506040513d601f19601f8201168201806040525081019062000dda919062002271565b155b1562000dfb57604051634125cb7960e11b815260040160405180910390fd5b8060000362000e1d57604051634125cb7960e11b815260040160405180910390fd5b6000805160206200322283398151915262000e398184620016a6565b506001600160a01b0390921660009081526002909201602052604090912055565b6060600084848460405160200162000e759392919062002291565b6040516020818303038152906040528051906020012090506040518060200162000e9f906200199e565b601f1982820381018352601f90910116604081815263dc9cc64560e01b602083015230908201526001600160a01b03861660608201526080810185905260a00160408051601f198184030181529082905262000eff9291602001620022c1565b6040516020818303038152906040529150935093915050565b60008051602062003222833981519152600062000f3582620016bd565b9050801560005b828110156200101957600062000f538583620016c8565b6001600160a01b0381166000908152600287016020526040902054909150801580159062000fef57506040516370a0823160e01b81526001600160a01b0388811660048301528291908416906370a0823190602401602060405180830381865afa15801562000fc6573d6000803e3d6000fd5b505050506040513d601f19601f8201168201806040525081019062000fec91906200216b565b10155b15620010015760019350505062001019565b5050808062001010906200230a565b91505062000f3c565b50806200103957604051634125cb7960e11b815260040160405180910390fd5b50505050565b8051819060000362000330576040516374eb20a760e01b815260040160405180910390fd5b60006200035c8383620016d6565b6000805160206200324283398151915254600090600080516020620032628339815191529082908190620010b29087906001600160a01b03168762000e5a565b915091506200083c828262001705565b60006200035c838362001740565b60008060405180602001620010e590620019ac565b601f1982820381018352601f9091011660408190526001600160a01b0385166024820152859060440160408051601f19818403018152918152602080830180516001600160e01b031663189acdbd60e31b1790529051620011499392910162002326565b60408051601f1981840301815290829052620011699291602001620022c1565b60405160208183030381529060405290506200118581620017ab565b949350505050565b604080516001808252818301909252600091829190816020015b604080518082019091526000815260606020820152815260200190600190039081620011a757505060408051600180825281830190925291925060009190602080830190803683370190505090506001816000815181106200120d576200120d6200220c565b60200260200101906001600160a01b031690816001600160a01b0316815250506040518060400160405280866001600160a01b03168152602001826040516020016200125a919062002222565b604051602081830303815290604052815250826000815181106200128257620012826200220c565b602090810291909101810191909152845190850151604051638fcd793d60e01b81526001600160a01b03891692638fcd793d92620012c592879060040162002375565b6020604051808303816000875af1158015620012e5573d6000803e3d6000fd5b505050506040513d601f19601f820116820180604052508101906200083c91906200216b565b805180516020918201516040805160008082529481019091526001600160a01b03881692638fcd793d9290918562001367565b6040805180820190915260008152606060208201528152602001906001900390816200133e5790505b506040518463ffffffff1660e01b8152600401620013889392919062002375565b6020604051808303816000875af1158015620013a8573d6000803e3d6000fd5b505050506040513d601f19601f82011682018060405250810190620013ce91906200216b565b9050816040015151600014620014d75760005b8260400151518110156200142f576200141a836040015182815181106200140c576200140c6200220c565b6020026020010151620017e5565b8062001426816200230a565b915050620013e1565b50846001600160a01b031663ba201ba8826040518060400160405280886001600160a01b03168152602001866040015160405160200162001471919062002222565b6040516020818303038152906040528152506040518363ffffffff1660e01b8152600401620014a292919062002447565b600060405180830381600087803b158015620014bd57600080fd5b505af1158015620014d2573d6000803e3d6000fd5b505050505b602082015151156200118557846001600160a01b031663ba201ba8826040518060400160405280876001600160a01b0316815260200186602001516040516020016200152491906200249f565b6040516020818303038152906040528152506040518363ffffffff1660e01b81526004016200155592919062002447565b600060405180830381600087803b1580156200157057600080fd5b505af115801562001585573d6000803e3d6000fd5b50505050949350505050565b604080516001808252818301909252600091602080830190803683370190505090508281600081518110620015ca57620015ca6200220c565b6020908102919091018101919091528251908301516040516328fc1e7560e11b81526001600160a01b038716926351f83cea926200160d92869060040162002539565b600060405180830381600087803b1580156200162857600080fd5b505af11580156200163d573d6000803e3d6000fd5b5050505050505050565b600080516020620032228339815191526200166381836200180d565b506001600160a01b03909116600090815260029091016020526040812055565b6001600160a01b038116600090815260018301602052604081205415156200035c565b60006200035c836001600160a01b03841662001824565b600062000200825490565b60006200035c83836200186d565b60008260010182604051620016ec91906200214d565b9081526040519081900360200190205415159392505050565b60008260200183518381836000f59250506001600160a01b0382169050620002005760405163ef35ca1960e01b815260040160405180910390fd5b60006200174e8383620016d6565b620017a25782546001810184556000848152602090200162001771838262002606565b5082546040516001850190620017899085906200214d565b9081526040519081900360200190205550600162000200565b50600062000200565b600081602001825180826000f09250506001600160a01b0382169050620004585760405163ef35ca1960e01b815260040160405180910390fd5b6001600160a01b038116620004a7576040516302e47d1560e41b815260040160405180910390fd5b60006200035c836001600160a01b0384166200189a565b6000818152600183016020526040812054620017a25750815460018181018455600084815260208082209093018490558454848252828601909352604090209190915562000200565b60008260000182815481106200188757620018876200220c565b9060005260206000200154905092915050565b6000818152600183016020526040812054801562001993576000620018c1600183620026d2565b8554909150600090620018d790600190620026d2565b905081811462001943576000866000018281548110620018fb57620018fb6200220c565b90600052602060002001549050808760000184815481106200192157620019216200220c565b6000918252602080832090910192909255918252600188019052604090208390555b8554869080620019575762001957620026e8565b60019003818190600052602060002001600090559055856001016000868152602001908152602001600020600090556001935050505062000200565b600091505062000200565b61067880620026ff83390190565b6104ab8062002d7783390190565b634e487b7160e01b600052604160045260246000fd5b604080519081016001600160401b0381118282101715620019f557620019f5620019ba565b60405290565b604051606081016001600160401b0381118282101715620019f557620019f5620019ba565b604051608081016001600160401b0381118282101715620019f557620019f5620019ba565b60405160c081016001600160401b0381118282101715620019f557620019f5620019ba565b604051601f8201601f191681016001600160401b038111828210171562001a955762001a95620019ba565b604052919050565b600082601f83011262001aaf57600080fd5b81356001600160401b0381111562001acb5762001acb620019ba565b62001ae0601f8201601f191660200162001a6a565b81815284602083860101111562001af657600080fd5b816020850160208301376000918101602001919091529392505050565b60006020828403121562001b2657600080fd5b81356001600160401b0381111562001b3d57600080fd5b620011858482850162001a9d565b80356001600160a01b03811681146200045857600080fd5b60006020828403121562001b7657600080fd5b6200035c8262001b4b565b60008060006060848603121562001b9757600080fd5b62001ba28462001b4b565b925062001bb26020850162001b4b565b915062001bc26040850162001b4b565b90509250925092565b6000806040838503121562001bdf57600080fd5b62001bea8362001b4b565b946020939093013593505050565b60006001600160401b0382111562001c145762001c14620019ba565b5060051b60200190565b60006040828403121562001c3157600080fd5b62001c3b620019d0565b905081356001600160401b038082111562001c5557600080fd5b62001c638583860162001a9d565b835260209150818401358181111562001c7b57600080fd5b8401601f8101861362001c8d57600080fd5b803562001ca462001c9e8262001bf8565b62001a6a565b81815260059190911b8201840190848101908883111562001cc457600080fd5b8584015b8381101562001d015780358681111562001ce25760008081fd5b62001cf28b898389010162001a9d565b84525091860191860162001cc8565b50808688015250505050505092915050565b8015158114620004a757600080fd5b600082601f83011262001d3457600080fd5b8135602062001d4762001c9e8362001bf8565b82815260059290921b8401810191818101908684111562001d6757600080fd5b8286015b8481101562001d8d5762001d7f8162001b4b565b835291830191830162001d6b565b509695505050505050565b60006060828403121562001dab57600080fd5b62001db5620019fb565b905081356001600160401b038082111562001dcf57600080fd5b62001ddd8583860162001c1e565b835260209150818401358181111562001df557600080fd5b8401601f8101861362001e0757600080fd5b803562001e1862001c9e8262001bf8565b81815260059190911b8201840190848101908883111562001e3857600080fd5b8584015b8381101562001f3f5780358681111562001e565760008081fd5b85016080818c03601f190181131562001e6f5760008081fd5b62001e7962001a20565b62001e868a840162001b4b565b81526040808401358b830152606084013562001ea28162001d13565b8282015291830135918983111562001eba5760008081fd5b82840193508d603f85011262001ed257600092508283fd5b8a840135925062001ee762001c9e8462001bf8565b83815260059390931b84018101928b8101908f85111562001f085760008081fd5b948201945b8486101562001f285785358252948c0194908c019062001f0d565b606084015250508552505091860191860162001e3c565b50808688015250505050604084013591508082111562001f5e57600080fd5b5062001f6d8482850162001d22565b60408301525092915050565b60006040828403121562001f8c57600080fd5b62001f96620019d0565b905081356001600160401b038082111562001fb057600080fd5b62001fbe8583860162001a9d565b8352602084013591508082111562001fd557600080fd5b5062001fe48482850162001a9d565b60208301525092915050565b6000602082840312156200200357600080fd5b81356001600160401b03808211156200201b57600080fd5b9083019060c082860312156200203057600080fd5b6200203a62001a45565b8235828111156200204a57600080fd5b620020588782860162001a9d565b8252506020830135828111156200206e57600080fd5b6200207c8782860162001a9d565b6020830152506040830135828111156200209557600080fd5b620020a38782860162001a9d565b604083015250606083013582811115620020bc57600080fd5b620020ca8782860162001c1e565b606083015250608083013582811115620020e357600080fd5b620020f18782860162001d98565b60808301525060a0830135828111156200210a57600080fd5b620021188782860162001f79565b60a08301525095945050505050565b60005b83811015620021445781810151838201526020016200212a565b50506000910152565b600082516200216181846020870162002127565b9190910192915050565b6000602082840312156200217e57600080fd5b5051919050565b600081518084526200219f81602086016020860162002127565b601f01601f19169290920160200192915050565b608081526000620021c8608083018762002185565b8281036020840152620021dc818762002185565b90508281036040840152620021f2818662002185565b91505060018060a01b038316606083015295945050505050565b634e487b7160e01b600052603260045260246000fd5b6020808252825182820181905260009190848201906040850190845b81811015620022655783516001600160a01b0316835292840192918401916001016200223e565b50909695505050505050565b6000602082840312156200228457600080fd5b81516200035c8162001d13565b606081526000620022a6606083018662002185565b6001600160a01b039490941660208301525060400152919050565b60008351620022d581846020880162002127565b835190830190620022eb81836020880162002127565b01949350505050565b634e487b7160e01b600052601160045260246000fd5b6000600182016200231f576200231f620022f4565b5060010190565b6001600160a01b0383168152604060208201819052600090620011859083018462002185565b60018060a01b038151168252600060208201516040602085015262001185604085018262002185565b6060815260006200238a606083018662002185565b6020838203818501528186518084528284019150828160051b85010183890160005b83811015620023de57601f19878403018552620023cb83835162002185565b94860194925090850190600101620023ac565b50508681036040880152875180825284820195509250600583901b81018401915083880160005b848110156200243757601f19838503018752620024248483516200234c565b9686019693509085019060010162002405565b50919a9950505050505050505050565b8281526040602082015260006200118560408301846200234c565b600081518084526020808501945080840160005b83811015620024945781518752958201959082019060010162002476565b509495945050505050565b60006020808301818452808551808352604092508286019150828160051b87010184880160005b838110156200252b57888303603f19018552815180516001600160a01b03168452878101518885015286810151151587850152606090810151608091850182905290620025168186018362002462565b968901969450505090860190600101620024c6565b509098975050505050505050565b6060815260006200254e606083018662002185565b828103602084015262002562818662002185565b905082810360408401526200083c818562002462565b600181811c908216806200258d57607f821691505b602082108103620025ae57634e487b7160e01b600052602260045260246000fd5b50919050565b601f821115620002e057600081815260208120601f850160051c81016020861015620025dd5750805b601f850160051c820191505b81811015620025fe57828155600101620025e9565b505050505050565b81516001600160401b03811115620026225762002622620019ba565b6200263a8162002633845462002578565b84620025b4565b602080601f831160018114620026725760008415620026595750858301515b600019600386901b1c1916600185901b178555620025fe565b600085815260208120601f198616915b82811015620026a35788860151825594840194600190910190840162002682565b5085821015620026c25787850151600019600388901b60f8161c191681555b5050505050600190811b01905550565b81810381811115620002005762000200620022f4565b634e487b7160e01b600052603160045260246000fdfe608060405234801561001057600080fd5b5060405161067838038061067883398101604081905261002f91610102565b7f8554b9df6321355bca4334cacaab69e5fcc1f4562dedc2e1f459ba5fa38bf21c80546001600160c01b031916600160a01b60e087901c026001600160a01b031916176001600160a01b0385161790557f9bd0e1a7aef81c47cff971a2fee48406b20f55522326b2e2616c49c24aa506d080546001600160a01b0319166001600160a01b0384161790557f9bd0e1a7aef81c47cff971a2fee48406b20f55522326b2e2616c49c24aa506d18190555050505061015c565b80516001600160a01b03811681146100fd57600080fd5b919050565b6000806000806080858703121561011857600080fd5b84516001600160e01b03198116811461013057600080fd5b935061013e602086016100e6565b925061014c604086016100e6565b6060959095015193969295505050565b61050d8061016b6000396000f3fe6080604052600436106100225760003560e01c8063ac9650d81461003357610029565b3661002957005b610031610069565b005b34801561003f57600080fd5b5061005361004e366004610324565b6100c1565b60405161006091906103bd565b60405180910390f35b60006100736101de565b90506001600160a01b0381163b61009d576040516321f27f0d60e21b815260040160405180910390fd5b3660008037600080366000845af43d6000803e8080156100bc573d6000f35b3d6000fd5b6060818067ffffffffffffffff8111156100dd576100dd610437565b60405190808252806020026020018201604052801561011057816020015b60608152602001906001900390816100fb5790505b50915060005b818110156101d657600080308787858181106101345761013461044d565b90506020028101906101469190610463565b6040516101549291906104b1565b600060405180830381855af49150503d806000811461018f576040519150601f19603f3d011682016040523d82523d6000602084013e610194565b606091505b509150915081156101c257808584815181106101b2576101b261044d565b60200260200101819052506101cc565b3d6000803e3d6000fd5b5050600101610116565b505092915050565b7f8554b9df6321355bca4334cacaab69e5fcc1f4562dedc2e1f459ba5fa38bf21c54600090600160a01b900460e01b81806102407f8554b9df6321355bca4334cacaab69e5fcc1f4562dedc2e1f459ba5fa38bf21c546001600160a01b031690565b6040516001600160e01b03196000351660248201526001600160a01b039190911690849060440160408051601f198184030181529181526020820180516001600160e01b03166001600160e01b03199094169390931790925290516102a591906104c1565b600060405180830381855afa9150503d80600081146102e0576040519150601f19603f3d011682016040523d82523d6000602084013e6102e5565b606091505b5091509150816103085760405163391aa44560e01b815260040160405180910390fd5b8080602001905181019061031c91906104dd565b935050505090565b6000806020838503121561033757600080fd5b823567ffffffffffffffff8082111561034f57600080fd5b818501915085601f83011261036357600080fd5b81358181111561037257600080fd5b8660208260051b850101111561038757600080fd5b60209290920196919550909350505050565b60005b838110156103b457818101518382015260200161039c565b50506000910152565b6000602080830181845280855180835260408601915060408160051b870101925083870160005b8281101561042a57878503603f190184528151805180875261040b818989018a8501610399565b601f01601f1916959095018601945092850192908501906001016103e4565b5092979650505050505050565b634e487b7160e01b600052604160045260246000fd5b634e487b7160e01b600052603260045260246000fd5b6000808335601e1984360301811261047a57600080fd5b83018035915067ffffffffffffffff82111561049557600080fd5b6020019150368190038213156104aa57600080fd5b9250929050565b8183823760009101908152919050565b600082516104d3818460208701610399565b9190910192915050565b6000602082840312156104ef57600080fd5b81516001600160a01b038116811461050657600080fd5b93925050505660806040526040516104ab3803806104ab833981016040819052610022916102de565b61002e82826000610035565b50506103fb565b61003e83610061565b60008251118061004b5750805b1561005c5761005a83836100a1565b505b505050565b61006a816100cd565b6040516001600160a01b038216907fbc7cd75a20ee27fd9adebab32041f755214dbc6bffa90cc0225b39da2e5c2d3b90600090a250565b60606100c6838360405180606001604052806027815260200161048460279139610180565b9392505050565b6001600160a01b0381163b61013f5760405162461bcd60e51b815260206004820152602d60248201527f455243313936373a206e657720696d706c656d656e746174696f6e206973206e60448201526c1bdd08184818dbdb9d1c9858dd609a1b60648201526084015b60405180910390fd5b7f360894a13ba1a3210667c828492db98dca3e2076cc3735a920a3ca505d382bbc80546001600160a01b0319166001600160a01b0392909216919091179055565b6060600080856001600160a01b03168560405161019d91906103ac565b600060405180830381855af49150503d80600081146101d8576040519150601f19603f3d011682016040523d82523d6000602084013e6101dd565b606091505b5090925090506101ef868383876101f9565b9695505050505050565b60608315610268578251600003610261576001600160a01b0385163b6102615760405162461bcd60e51b815260206004820152601d60248201527f416464726573733a2063616c6c20746f206e6f6e2d636f6e74726163740000006044820152606401610136565b5081610272565b610272838361027a565b949350505050565b81511561028a5781518083602001fd5b8060405162461bcd60e51b815260040161013691906103c8565b634e487b7160e01b600052604160045260246000fd5b60005b838110156102d55781810151838201526020016102bd565b50506000910152565b600080604083850312156102f157600080fd5b82516001600160a01b038116811461030857600080fd5b60208401519092506001600160401b038082111561032557600080fd5b818501915085601f83011261033957600080fd5b81518181111561034b5761034b6102a4565b604051601f8201601f19908116603f01168101908382118183101715610373576103736102a4565b8160405282815288602084870101111561038c57600080fd5b61039d8360208301602088016102ba565b80955050505050509250929050565b600082516103be8184602087016102ba565b9190910192915050565b60208152600082518060208401526103e78160408501602087016102ba565b601f01601f19169190910160400192915050565b607b806104096000396000f3fe608060405236601057600e6013565b005b600e5b601f601b6021565b6058565b565b600060537f360894a13ba1a3210667c828492db98dca3e2076cc3735a920a3ca505d382bbc546001600160a01b031690565b905090565b3660008037600080366000845af43d6000803e8080156076573d6000f35b3d6000fd416464726573733a206c6f772d6c6576656c2064656c65676174652063616c6c206661696c65640021838b43e034e5a0d20f42ce9ca05b74b34cf419ae1034249310df3263674dbfc17bfcd641c969809ea46cafa0234f34c2d733b95035a848e816b1fa9cd8b9bfc17bfcd641c969809ea46cafa0234f34c2d733b95035a848e816b1fa9cd8b5",
    "linkReferences": {}
  },
  "methodIdentifiers": {
    "__TownArchitect_init(address,address,address)": "f8c5908d",
    "computeTown(string)": "ac6eec37",
    "createTown((string,string,string,(string,string[]),((string,string[]),(address,uint256,bool,uint256[])[],address[]),(string,string)))": "ba656dbd",
    "gateByToken(address,uint256)": "5b560b67",
    "getTokenIdByTownId(string)": "9c7843c2",
    "getTownArchitectImplementations()": "18c7f066",
    "getTownById(string)": "11a8b382",
    "isTokenGated(address)": "1c05bbc7",
    "setTownArchitectImplementations(address,address,address)": "51ec4c1d",
    "ungateByToken(address)": "edddeb4d"
  },
  "id": 141
}