{
  "abi": [
    {
      "inputs": [],
      "name": "Factory__FailedDeployment",
      "type": "error"
    },
    {
      "inputs": [],
      "name": "GateFacetService__NotAllowed",
      "type": "error"
    },
    {
      "inputs": [],
      "name": "Initializable_InInitializingState",
      "type": "error"
    },
    {
      "inputs": [],
      "name": "Initializable_NotInInitializingState",
      "type": "error"
    },
    {
      "inputs": [],
      "name": "Introspection_AlreadySupported",
      "type": "error"
    },
    {
      "inputs": [],
      "name": "Introspection_NotSupported",
      "type": "error"
    },
    {
      "inputs": [
        {
          "internalType": "address",
          "name": "account",
          "type": "address"
        }
      ],
      "name": "Ownable__NotOwner",
      "type": "error"
    },
    {
      "inputs": [],
      "name": "Ownable__ZeroAddress",
      "type": "error"
    },
    {
      "inputs": [],
      "name": "Pausable__NotPaused",
      "type": "error"
    },
    {
      "inputs": [],
      "name": "Pausable__Paused",
      "type": "error"
    },
    {
      "inputs": [],
      "name": "ReentrancyGuard__ReentrantCall",
      "type": "error"
    },
    {
      "inputs": [],
      "name": "TownArchitect__InvalidAddress",
      "type": "error"
    },
    {
      "inputs": [],
      "name": "TownArchitect__InvalidNetworkId",
      "type": "error"
    },
    {
      "inputs": [],
      "name": "TownArchitect__InvalidStringLength",
      "type": "error"
    },
    {
      "inputs": [],
      "name": "TownArchitect__NotContract",
      "type": "error"
    },
    {
      "inputs": [],
      "name": "Validator__InvalidAddress",
      "type": "error"
    },
    {
      "inputs": [],
      "name": "Validator__InvalidStringLength",
      "type": "error"
    },
    {
      "anonymous": false,
      "inputs": [
        {
          "indexed": false,
          "internalType": "uint32",
          "name": "version",
          "type": "uint32"
        }
      ],
      "name": "Initialized",
      "type": "event"
    },
    {
      "anonymous": false,
      "inputs": [
        {
          "indexed": true,
          "internalType": "bytes4",
          "name": "interfaceId",
          "type": "bytes4"
        }
      ],
      "name": "InterfaceAdded",
      "type": "event"
    },
    {
      "anonymous": false,
      "inputs": [
        {
          "indexed": true,
          "internalType": "bytes4",
          "name": "interfaceId",
          "type": "bytes4"
        }
      ],
      "name": "InterfaceRemoved",
      "type": "event"
    },
    {
      "anonymous": false,
      "inputs": [
        {
          "indexed": true,
          "internalType": "address",
          "name": "previousOwner",
          "type": "address"
        },
        {
          "indexed": true,
          "internalType": "address",
          "name": "newOwner",
          "type": "address"
        }
      ],
      "name": "OwnershipTransferred",
      "type": "event"
    },
    {
      "anonymous": false,
      "inputs": [
        {
          "indexed": false,
          "internalType": "address",
          "name": "account",
          "type": "address"
        }
      ],
      "name": "Paused",
      "type": "event"
    },
    {
      "anonymous": false,
      "inputs": [
        {
          "indexed": true,
          "internalType": "address",
          "name": "townCreator",
          "type": "address"
        },
        {
          "indexed": true,
          "internalType": "uint256",
          "name": "townId",
          "type": "uint256"
        },
        {
          "indexed": false,
          "internalType": "address",
          "name": "town",
          "type": "address"
        }
      ],
      "name": "TownCreated",
      "type": "event"
    },
    {
      "anonymous": false,
      "inputs": [
        {
          "indexed": false,
          "internalType": "address",
          "name": "account",
          "type": "address"
        }
      ],
      "name": "Unpaused",
      "type": "event"
    },
    {
      "inputs": [
        {
          "internalType": "address",
          "name": "townOwner",
          "type": "address"
        },
        {
          "internalType": "address",
          "name": "userEntitlementImplementation",
          "type": "address"
        },
        {
          "internalType": "address",
          "name": "tokenEntitlementImplementation",
          "type": "address"
        },
        {
          "internalType": "address",
          "name": "trustedForwarder",
          "type": "address"
        }
      ],
      "name": "__TownArchitect_init",
      "outputs": [],
      "stateMutability": "nonpayable",
      "type": "function"
    },
    {
      "inputs": [
        {
          "internalType": "string",
          "name": "townId",
          "type": "string"
        },
        {
          "components": [
            {
              "components": [
                {
                  "internalType": "string",
                  "name": "name",
                  "type": "string"
                },
                {
                  "internalType": "string",
                  "name": "symbol",
                  "type": "string"
                },
                {
                  "internalType": "uint256",
                  "name": "price",
                  "type": "uint256"
                },
                {
                  "internalType": "uint256",
                  "name": "limit",
                  "type": "uint256"
                },
                {
                  "internalType": "uint64",
                  "name": "duration",
                  "type": "uint64"
                },
                {
                  "internalType": "address",
                  "name": "currency",
                  "type": "address"
                },
                {
                  "internalType": "address",
                  "name": "feeRecipient",
                  "type": "address"
                }
              ],
              "internalType": "struct IMembershipBase.MembershipInfo",
              "name": "settings",
              "type": "tuple"
            },
            {
              "components": [
                {
                  "internalType": "bool",
                  "name": "everyone",
                  "type": "bool"
                },
                {
                  "components": [
                    {
                      "internalType": "address",
                      "name": "contractAddress",
                      "type": "address"
                    },
                    {
                      "internalType": "uint256",
                      "name": "quantity",
                      "type": "uint256"
                    },
                    {
                      "internalType": "bool",
                      "name": "isSingleToken",
                      "type": "bool"
                    },
                    {
                      "internalType": "uint256[]",
                      "name": "tokenIds",
                      "type": "uint256[]"
                    }
                  ],
                  "internalType": "struct ITokenEntitlement.ExternalToken[]",
                  "name": "tokens",
                  "type": "tuple[]"
                },
                {
                  "internalType": "address[]",
                  "name": "users",
                  "type": "address[]"
                }
              ],
              "internalType": "struct ITownArchitectBase.MembershipRequirements",
              "name": "requirements",
              "type": "tuple"
            },
            {
              "internalType": "string[]",
              "name": "permissions",
              "type": "string[]"
            }
          ],
          "internalType": "struct ITownArchitectBase.Membership",
          "name": "membership",
          "type": "tuple"
        }
      ],
      "name": "computeTown",
      "outputs": [
        {
          "internalType": "address",
          "name": "",
          "type": "address"
        }
      ],
      "stateMutability": "view",
      "type": "function"
    },
    {
      "inputs": [
        {
          "components": [
            {
              "internalType": "string",
              "name": "id",
              "type": "string"
            },
            {
              "internalType": "string",
              "name": "name",
              "type": "string"
            },
            {
              "internalType": "string",
              "name": "uri",
              "type": "string"
            },
            {
              "components": [
                {
                  "components": [
                    {
                      "internalType": "string",
                      "name": "name",
                      "type": "string"
                    },
                    {
                      "internalType": "string",
                      "name": "symbol",
                      "type": "string"
                    },
                    {
                      "internalType": "uint256",
                      "name": "price",
                      "type": "uint256"
                    },
                    {
                      "internalType": "uint256",
                      "name": "limit",
                      "type": "uint256"
                    },
                    {
                      "internalType": "uint64",
                      "name": "duration",
                      "type": "uint64"
                    },
                    {
                      "internalType": "address",
                      "name": "currency",
                      "type": "address"
                    },
                    {
                      "internalType": "address",
                      "name": "feeRecipient",
                      "type": "address"
                    }
                  ],
                  "internalType": "struct IMembershipBase.MembershipInfo",
                  "name": "settings",
                  "type": "tuple"
                },
                {
                  "components": [
                    {
                      "internalType": "bool",
                      "name": "everyone",
                      "type": "bool"
                    },
                    {
                      "components": [
                        {
                          "internalType": "address",
                          "name": "contractAddress",
                          "type": "address"
                        },
                        {
                          "internalType": "uint256",
                          "name": "quantity",
                          "type": "uint256"
                        },
                        {
                          "internalType": "bool",
                          "name": "isSingleToken",
                          "type": "bool"
                        },
                        {
                          "internalType": "uint256[]",
                          "name": "tokenIds",
                          "type": "uint256[]"
                        }
                      ],
                      "internalType": "struct ITokenEntitlement.ExternalToken[]",
                      "name": "tokens",
                      "type": "tuple[]"
                    },
                    {
                      "internalType": "address[]",
                      "name": "users",
                      "type": "address[]"
                    }
                  ],
                  "internalType": "struct ITownArchitectBase.MembershipRequirements",
                  "name": "requirements",
                  "type": "tuple"
                },
                {
                  "internalType": "string[]",
                  "name": "permissions",
                  "type": "string[]"
                }
              ],
              "internalType": "struct ITownArchitectBase.Membership",
              "name": "membership",
              "type": "tuple"
            },
            {
              "components": [
                {
                  "internalType": "string",
                  "name": "id",
                  "type": "string"
                },
                {
                  "internalType": "string",
                  "name": "metadata",
                  "type": "string"
                }
              ],
              "internalType": "struct ITownArchitectBase.ChannelInfo",
              "name": "channel",
              "type": "tuple"
            }
          ],
          "internalType": "struct ITownArchitectBase.TownInfo",
          "name": "townInfo",
          "type": "tuple"
        }
      ],
      "name": "createTown",
      "outputs": [
        {
          "internalType": "address",
          "name": "",
          "type": "address"
        }
      ],
      "stateMutability": "nonpayable",
      "type": "function"
    },
    {
      "inputs": [
        {
          "internalType": "address",
          "name": "token",
          "type": "address"
        },
        {
          "internalType": "uint256",
          "name": "quantity",
          "type": "uint256"
        }
      ],
      "name": "gateByToken",
      "outputs": [],
      "stateMutability": "nonpayable",
      "type": "function"
    },
    {
      "inputs": [
        {
          "internalType": "address",
          "name": "town",
          "type": "address"
        }
      ],
      "name": "getTokenIdByTown",
      "outputs": [
        {
          "internalType": "uint256",
          "name": "",
          "type": "uint256"
        }
      ],
      "stateMutability": "view",
      "type": "function"
    },
    {
      "inputs": [
        {
          "internalType": "string",
          "name": "townId",
          "type": "string"
        }
      ],
      "name": "getTokenIdByTownId",
      "outputs": [
        {
          "internalType": "uint256",
          "name": "",
          "type": "uint256"
        }
      ],
      "stateMutability": "view",
      "type": "function"
    },
    {
      "inputs": [],
      "name": "getTownArchitectImplementations",
      "outputs": [
        {
          "internalType": "address",
          "name": "townToken",
          "type": "address"
        },
        {
          "internalType": "address",
          "name": "userEntitlementImplementation",
          "type": "address"
        },
        {
          "internalType": "address",
          "name": "tokenEntitlementImplementation",
          "type": "address"
        }
      ],
      "stateMutability": "view",
      "type": "function"
    },
    {
      "inputs": [
        {
          "internalType": "string",
          "name": "townId",
          "type": "string"
        }
      ],
      "name": "getTownById",
      "outputs": [
        {
          "internalType": "address",
          "name": "",
          "type": "address"
        }
      ],
      "stateMutability": "view",
      "type": "function"
    },
    {
      "inputs": [
        {
          "internalType": "address",
          "name": "token",
          "type": "address"
        }
      ],
      "name": "isTokenGated",
      "outputs": [
        {
          "internalType": "bool",
          "name": "",
          "type": "bool"
        }
      ],
      "stateMutability": "view",
      "type": "function"
    },
    {
      "inputs": [
        {
          "internalType": "address",
          "name": "town",
          "type": "address"
        }
      ],
      "name": "isTown",
      "outputs": [
        {
          "internalType": "bool",
          "name": "",
          "type": "bool"
        }
      ],
      "stateMutability": "view",
      "type": "function"
    },
    {
      "inputs": [
        {
          "internalType": "address",
          "name": "townToken",
          "type": "address"
        },
        {
          "internalType": "address",
          "name": "userEntitlementImplementation",
          "type": "address"
        },
        {
          "internalType": "address",
          "name": "tokenEntitlementImplementation",
          "type": "address"
        }
      ],
      "name": "setTownArchitectImplementations",
      "outputs": [],
      "stateMutability": "nonpayable",
      "type": "function"
    },
    {
      "inputs": [
        {
          "internalType": "address",
          "name": "token",
          "type": "address"
        }
      ],
      "name": "ungateByToken",
      "outputs": [],
      "stateMutability": "nonpayable",
      "type": "function"
    }
  ],
  "bytecode": {
    "object": "0x60806040523480156200001157600080fd5b506200001c62000022565b620000ca565b7f2d0d21306acfe8e9bb163a4573e95aff6cef95dc1102c6a16d5f19eac08cc4de8054640100000000900460ff16156200006f576040516366008a2d60e01b815260040160405180910390fd5b805463ffffffff9081161015620000c757805463ffffffff191663ffffffff90811782556040519081527fe9c9b456cb2994b80aeef036cf59d26e9617df80f816a6ee5a5b4166e07e2f5c9060200160405180910390a15b50565b6147ce80620000da6000396000f3fe60806040523480156200001157600080fd5b5060043610620000c35760003560e01c8063820f4a71116200007a578063820f4a7114620001af5780639c7843c214620001c6578063ad213f9214620001dd578063c9a397c414620001f4578063edddeb4d146200020b578063fc833cd2146200022257600080fd5b806311a8b38214620000c857806318c7f06614620000fc5780631c05bbc7146200013157806340fb2169146200015957806351ec4c1d146200017f5780635b560b671462000198575b600080fd5b620000df620000d936600462001f51565b62000239565b6040516001600160a01b0390911681526020015b60405180910390f35b620001066200024c565b604080516001600160a01b0394851681529284166020840152921691810191909152606001620000f3565b620001486200014236600462001fa1565b620002c9565b6040519015158152602001620000f3565b620001706200016a36600462001fa1565b620002d6565b604051908152602001620000f3565b620001966200019036600462001fbf565b62000314565b005b62000196620001a936600462002009565b62000369565b62000148620001c036600462001fa1565b620003b8565b62000170620001d736600462001f51565b620003c5565b620000df620001ee36600462002492565b620003d2565b620000df620002053660046200258f565b620003f6565b620001966200021c36600462001fa1565b620004f0565b62000196620002333660046200269f565b6200053d565b60006200024682620005d6565b92915050565b6000806000620002be6000805160206200478e833981519152547fbfc17bfcd641c969809ea46cafa0234f34c2d733b95035a848e816b1fa9cd8ba547fbfc17bfcd641c969809ea46cafa0234f34c2d733b95035a848e816b1fa9cd8bb546001600160a01b0392831693918316921690565b925092509250909192565b600062000246826200063c565b6001600160a01b03811660009081527fbfc17bfcd641c969809ea46cafa0234f34c2d733b95035a848e816b1fa9cd8bf602052604081205462000246565b6200031e62000649565b6001600160a01b0316336001600160a01b03161462000357576040516365f4906560e01b81523360048201526024015b60405180910390fd5b6200036483838362000677565b505050565b6200037362000649565b6001600160a01b0316336001600160a01b031614620003a8576040516365f4906560e01b81523360048201526024016200034e565b620003b482826200077d565b5050565b6000620002468262000789565b60006200024682620007ce565b600080620003df6200082b565b9050620003ee848285620008c4565b949350505050565b600060027f50b052c8fb38984269a818b2b593d0584a81b1b99245abc0fab04abc7afb010f54036200043b57604051635db5c7cd60e11b815260040160405180910390fd5b6200046560027f50b052c8fb38984269a818b2b593d0584a81b1b99245abc0fab04abc7afb010f55565b7ff421ea548af7158b1d71ba0aeccf57104c067038bd8fd214edd05c09eb4f735b5460ff1615620004a9576040516302ca8ced60e11b815260040160405180910390fd5b620004b4336200096e565b620004bf8262000979565b9050620004eb60017f50b052c8fb38984269a818b2b593d0584a81b1b99245abc0fab04abc7afb010f55565b919050565b620004fa62000649565b6001600160a01b0316336001600160a01b0316146200052f576040516365f4906560e01b81523360048201526024016200034e565b6200053a8162000dd7565b50565b7f2d0d21306acfe8e9bb163a4573e95aff6cef95dc1102c6a16d5f19eac08cc4de54640100000000900460ff166200058857604051630ef4733760e31b815260040160405180910390fd5b6200059584848462000677565b7fbfc17bfcd641c969809ea46cafa0234f34c2d733b95035a848e816b1fa9cd8bc80546001600160a01b0319166001600160a01b0383161790555b50505050565b604051600090600080516020620047ae833981519152907fbfc17bfcd641c969809ea46cafa0234f34c2d733b95035a848e816b1fa9cd8b7906200061c90859062002722565b908152604051908190036020019020546001600160a01b03169392505050565b6000620002468262000de2565b7fa7c3be20e3a76821507555109752fad8a6630ef0362a34dcfcdfef83c99a2537546001600160a01b031690565b6001600160a01b0383163b620006a057604051638a83510f60e01b815260040160405180910390fd5b6001600160a01b0382163b620006c957604051638a83510f60e01b815260040160405180910390fd5b6001600160a01b0381163b620006f257604051638a83510f60e01b815260040160405180910390fd5b6000805160206200478e83398151915280546001600160a01b039485166001600160a01b0319918216179091557fbfc17bfcd641c969809ea46cafa0234f34c2d733b95035a848e816b1fa9cd8ba8054938516938216939093179092557fbfc17bfcd641c969809ea46cafa0234f34c2d733b95035a848e816b1fa9cd8bb8054919093169116179055565b620003b4828262000e2c565b6000600080516020620047ae833981519152620007c77fbfc17bfcd641c969809ea46cafa0234f34c2d733b95035a848e816b1fa9cd8bd8462000f99565b9392505050565b604051600090600080516020620047ae833981519152907fbfc17bfcd641c969809ea46cafa0234f34c2d733b95035a848e816b1fa9cd8b8906200081490859062002722565b908152602001604051809103902054915050919050565b6000805160206200478e8339815191525460408051631d5e528f60e21b81529051600092600080516020620047ae833981519152926001600160a01b03909116916375794a3c916004818101926020929091908290030181865afa15801562000898573d6000803e3d6000fd5b505050506040513d601f19601f82011682018060405250810190620008be919062002740565b91505090565b6000805160206200478e83398151915254600090600080516020620047ae8339815191529082908190620009059088906001600160a01b0316888862000fbc565b8151602080840191909120604080516001600160f81b0319818501526bffffffffffffffffffffffff193060601b16602182015260358101859052605580820193909352815180820390930183526075019052805191012091935091505b979650505050505050565b6200053a8162001178565b60006200098a826000015162001299565b8151600080516020620047ae83398151915290620009aa908290620012be565b15620009c9576040516339c4486560e01b815260040160405180910390fd5b60008160040160009054906101000a90046001600160a01b03166001600160a01b03166375794a3c6040518163ffffffff1660e01b8152600401602060405180830381865afa15801562000a21573d6000803e3d6000fd5b505050506040513d601f19601f8201168201806040525081019062000a47919062002740565b905062000a5e8460000151828660600151620012cc565b845190935062000a709083906200131d565b5062000a8060088301846200132b565b508082600301856000015160405162000a9a919062002722565b9081526040519081900360200181209190915584518491600285019162000ac19162002722565b908152604080516020928190038301812080546001600160a01b0319166001600160a01b039586161790558684166000908152600a870184528290208590556004808701549389015192890151895162c4a50160e31b8452949095169463062528089462000b379493919290918a910162002788565b6020604051808303816000875af115801562000b57573d6000803e3d6000fd5b505050506040513d601f19601f8201168201806040525081019062000b7d919062002740565b50600062000ba8600080516020620047ae833981519152600501546001600160a01b03168562001342565b9050600062000bd4600080516020620047ae833981519152600601546001600160a01b03168662001342565b6040805160028082526060820183529293506000929091602083019080368337019050509050828160008151811062000c115762000c11620027e1565b60200260200101906001600160a01b031690816001600160a01b031681525050818160018151811062000c485762000c48620027e1565b6001600160a01b039283166020918202929092010152604051638bfc820f60e01b815290871690638bfc820f9062000c85908490600401620027f7565b600060405180830381600087803b15801562000ca057600080fd5b505af115801562000cb5573d6000803e3d6000fd5b5050505062000ccf8684848a6060015160200151620013f7565b50606087015180515160409091015160009162000cf0918991869162001831565b905062000d0387828a6080015162001a09565b60048601546001600160a01b03166342842e0e30336040516001600160e01b031960e085901b1681526001600160a01b0392831660048201529116602482015260448101889052606401600060405180830381600087803b15801562000d6857600080fd5b505af115801562000d7d573d6000803e3d6000fd5b505050508462000d8a3390565b6040516001600160a01b038a8116825291909116907f3a9b63f709203f3b6dabc8d90e98bff22696c86fc5608f54453424cabab529859060200160405180910390a3505050505050919050565b6200053a8162001abf565b60006000805160206200476e83398151915262000e00818462000f99565b8015620007c757506001600160a01b038316600090815260028201602052604090205415159392505050565b6040516301ffc9a760e01b81526380ac58cd60e01b60048201526001600160a01b038316906301ffc9a790602401602060405180830381865afa15801562000e78573d6000803e3d6000fd5b505050506040513d601f19601f8201168201806040525081019062000e9e919062002846565b15801562000f1b57506040516301ffc9a760e01b81526336372b0760e01b60048201526001600160a01b038316906301ffc9a790602401602060405180830381865afa15801562000ef3573d6000803e3d6000fd5b505050506040513d601f19601f8201168201806040525081019062000f19919062002846565b155b1562000f3a57604051634125cb7960e11b815260040160405180910390fd5b8060000362000f5c57604051634125cb7960e11b815260040160405180910390fd5b6000805160206200476e83398151915262000f7881846200132b565b506001600160a01b0390921660009081526002909201602052604090912055565b6001600160a01b03811660009081526001830160205260408120541515620007c7565b6060600085858560405160200162000fd79392919062002866565b60405160208183030381529060405280519060200120905060405180602001620010019062001ddc565b601f198282038101835260c0601f90920116818101604090815263dc9cc64560e01b60808084019182523060a080860191909152918452825180840184526001600160a01b038c8116825260208281018d905286810192909252845160e0810186528b515181528b51830151928101929092528a51850151828601528a51606090810151908301528a518301516001600160401b0316928201929092528951830151821692810192909252885185015193949285019391928301911615620010cf57875160c00151620010d1565b335b6001600160a01b0316815250815260200160405180602001604052806200111f7fbfc17bfcd641c969809ea46cafa0234f34c2d733b95035a848e816b1fa9cd8bc546001600160a01b031690565b6001600160a01b0316905290526040516200113e919060200162002896565b60408051601f19818403018152908290526200115e92916020016200298d565b604051602081830303815290604052915094509492505050565b6000805160206200476e8339815191526000620011958262001afb565b9050801560005b8281101562001279576000620011b3858362001b06565b6001600160a01b038116600090815260028701602052604090205490915080158015906200124f57506040516370a0823160e01b81526001600160a01b0388811660048301528291908416906370a0823190602401602060405180830381865afa15801562001226573d6000803e3d6000fd5b505050506040513d601f19601f820116820180604052508101906200124c919062002740565b10155b15620012615760019350505062001279565b505080806200127090620029d6565b9150506200119c565b5080620005d057604051634125cb7960e11b815260040160405180910390fd5b80518190600003620003b4576040516374eb20a760e01b815260040160405180910390fd5b6000620007c7838362001b14565b6000805160206200478e83398151915254600090600080516020620047ae83398151915290829081906200130d9088906001600160a01b0316888862000fbc565b9150915062000963828262001b43565b6000620007c7838362001b7e565b6000620007c7836001600160a01b03841662001be9565b60008060405180602001620013579062001dea565b601f1982820381018352601f9091011660408190526001600160a01b0385166024820152859060440160408051601f19818403018152918152602080830180516001600160e01b031663189acdbd60e31b1790529051620013bb93929101620029f2565b60408051601f1981840301815290829052620013db92916020016200298d565b6040516020818303038152906040529050620003ee8162001c32565b604080516001808252818301909252600091829190816020015b606081526020019060019003908162001411579050509050604051806040016040528060088152602001672537b4b72a37bbb760c11b81525081600081518110620014605762001460620027e1565b6020026020010181905250856001600160a01b0316638fcd793d6040518060400160405280600681526020016526b4b73a32b960d11b8152508360006001600160401b03811115620014b657620014b662001df8565b604051908082528060200260200182016040528015620014fe57816020015b604080518082019091526000815260606020820152815260200190600190039081620014d55790505b506040518463ffffffff1660e01b81526004016200151f9392919062002a41565b6020604051808303816000875af11580156200153f573d6000803e3d6000fd5b505050506040513d601f19601f8201168201806040525081019062001565919062002740565b835190925015620016745760408051600180825281830190925260009160208083019080368337019050509050600181600081518110620015aa57620015aa620027e1565b60200260200101906001600160a01b031690816001600160a01b031681525050866001600160a01b031663ba201ba88460405180604001604052808a6001600160a01b0316815260200185604051602001620016079190620027f7565b6040516020818303038152906040528152506040518363ffffffff1660e01b81526004016200163892919062002b13565b600060405180830381600087803b1580156200165357600080fd5b505af115801562001668573d6000803e3d6000fd5b505050505050620003ee565b604083015151156200176d5760005b836040015151811015620016c557620016bc84604001518281518110620016ae57620016ae620027e1565b602002602001015162001c6c565b60010162001683565b50856001600160a01b031663ba201ba8836040518060400160405280896001600160a01b031681526020018760400151604051602001620017079190620027f7565b6040516020818303038152906040528152506040518363ffffffff1660e01b81526004016200173892919062002b13565b600060405180830381600087803b1580156200175357600080fd5b505af115801562001768573d6000803e3d6000fd5b505050505b826020015151600003620017825750620003ee565b856001600160a01b031663ba201ba8836040518060400160405280886001600160a01b031681526020018760200151604051602001620017c3919062002b6b565b6040516020818303038152906040528152506040518363ffffffff1660e01b8152600401620017f492919062002b13565b600060405180830381600087803b1580156200180f57600080fd5b505af115801562001824573d6000803e3d6000fd5b5050505050949350505050565b604080516001808252818301909252600091829190816020015b60408051608081018252600080825260208083018290529282015260608082015282526000199092019101816200184b575050604080516080810182526001600160a01b03891681526001602080830191909152600082840181905283518181529182019093526060820152825192935091839190620018cf57620018cf620027e1565b6020908102919091010152604080516001808252818301909252600091816020015b604080518082019091526000815260606020820152815260200190600190039081620018f15790505090508581600081518110620019335762001933620027e1565b6020908102919091018101516001600160a01b039092169091526040516200195e9184910162002b6b565b60405160208183030381529060405281600081518110620019835762001983620027e1565b6020908102919091018101510152604051638fcd793d60e01b81526001600160a01b03881690638fcd793d90620019c39088908890869060040162002a41565b6020604051808303816000875af1158015620019e3573d6000803e3d6000fd5b505050506040513d601f19601f8201168201806040525081019062000963919062002740565b60408051600180825281830190925260009160208083019080368337019050509050828160008151811062001a425762001a42620027e1565b6020908102919091018101919091528251908301516040516328fc1e7560e11b81526001600160a01b038716926351f83cea9262001a8592869060040162002c05565b600060405180830381600087803b15801562001aa057600080fd5b505af115801562001ab5573d6000803e3d6000fd5b5050505050505050565b6000805160206200476e83398151915262001adb818362001c94565b506001600160a01b03909116600090815260029091016020526040812055565b600062000246825490565b6000620007c7838362001cab565b6000826001018260405162001b2a919062002722565b9081526040519081900360200190205415159392505050565b60008260200183518381836000f59250506001600160a01b0382169050620002465760405163ef35ca1960e01b815260040160405180910390fd5b600062001b8c838362001b14565b62001be05782546001810184556000848152602090200162001baf838262002cdc565b508254604051600185019062001bc790859062002722565b9081526040519081900360200190205550600162000246565b50600062000246565b600081815260018301602052604081205462001be05750815460018181018455600084815260208082209093018490558454848252828601909352604090209190915562000246565b600081602001825180826000f09250506001600160a01b0382169050620004eb5760405163ef35ca1960e01b815260040160405180910390fd5b6001600160a01b0381166200053a576040516302e47d1560e41b815260040160405180910390fd5b6000620007c7836001600160a01b03841662001cd8565b600082600001828154811062001cc55762001cc5620027e1565b9060005260206000200154905092915050565b6000818152600183016020526040812054801562001dd157600062001cff60018362002da8565b855490915060009062001d159060019062002da8565b905081811462001d8157600086600001828154811062001d395762001d39620027e1565b906000526020600020015490508087600001848154811062001d5f5762001d5f620027e1565b6000918252602080832090910192909255918252600188019052604090208390555b855486908062001d955762001d9562002dbe565b60019003818190600052602060002001600090559055856001016000868152602001908152602001600020600090556001935050505062000246565b600091505062000246565b6114ee8062002dd583390190565b6104ab80620042c383390190565b634e487b7160e01b600052604160045260246000fd5b604051606081016001600160401b038111828210171562001e335762001e3362001df8565b60405290565b604051608081016001600160401b038111828210171562001e335762001e3362001df8565b60405160e081016001600160401b038111828210171562001e335762001e3362001df8565b60405160a081016001600160401b038111828210171562001e335762001e3362001df8565b604051601f8201601f191681016001600160401b038111828210171562001ed35762001ed362001df8565b604052919050565b600082601f83011262001eed57600080fd5b81356001600160401b0381111562001f095762001f0962001df8565b62001f1e601f8201601f191660200162001ea8565b81815284602083860101111562001f3457600080fd5b816020850160208301376000918101602001919091529392505050565b60006020828403121562001f6457600080fd5b81356001600160401b0381111562001f7b57600080fd5b620003ee8482850162001edb565b80356001600160a01b0381168114620004eb57600080fd5b60006020828403121562001fb457600080fd5b620007c78262001f89565b60008060006060848603121562001fd557600080fd5b62001fe08462001f89565b925062001ff06020850162001f89565b9150620020006040850162001f89565b90509250925092565b600080604083850312156200201d57600080fd5b620020288362001f89565b946020939093013593505050565b80356001600160401b0381168114620004eb57600080fd5b80151581146200053a57600080fd5b60006001600160401b0382111562002079576200207962001df8565b5060051b60200190565b600082601f8301126200209557600080fd5b81356020620020ae620020a8836200205d565b62001ea8565b82815260059290921b84018101918181019086841115620020ce57600080fd5b8286015b84811015620020f457620020e68162001f89565b8352918301918301620020d2565b509695505050505050565b6000606082840312156200211257600080fd5b6200211c62001e0e565b905081356200212b816200204e565b81526020828101356001600160401b03808211156200214957600080fd5b818501915085601f8301126200215e57600080fd5b81356200216f620020a8826200205d565b81815260059190911b830184019084810190888311156200218f57600080fd5b8585015b838110156200229657803585811115620021ad5760008081fd5b86016080818c03601f1901811315620021c65760008081fd5b620021d062001e39565b620021dd8a840162001f89565b81526040808401358b8301526060840135620021f9816200204e565b82820152918301359188831115620022115760008081fd5b82840193508d603f8501126200222957600092508283fd5b8a84013592506200223e620020a8846200205d565b83815260059390931b84018101928b8101908f8511156200225f5760008081fd5b948201945b848610156200227f5785358252948c0194908c019062002264565b606084015250508552505091860191860162002193565b5080868801525050506040850135925080831115620022b457600080fd5b5050620022c48482850162002083565b60408301525092915050565b600082601f830112620022e257600080fd5b81356020620022f5620020a8836200205d565b82815260059290921b840181019181810190868411156200231557600080fd5b8286015b84811015620020f45780356001600160401b038111156200233a5760008081fd5b6200234a8986838b010162001edb565b84525091830191830162002319565b6000606082840312156200236c57600080fd5b6200237662001e0e565b905081356001600160401b03808211156200239057600080fd5b9083019060e08286031215620023a557600080fd5b620023af62001e5e565b823582811115620023bf57600080fd5b620023cd8782860162001edb565b825250602083013582811115620023e357600080fd5b620023f18782860162001edb565b6020830152506040830135604082015260608301356060820152620024196080840162002036565b60808201526200242c60a0840162001f89565b60a08201526200243f60c0840162001f89565b60c0820152835260208401359150808211156200245b57600080fd5b6200246985838601620020ff565b602084015260408401359150808211156200248357600080fd5b50620022c484828501620022d0565b60008060408385031215620024a657600080fd5b82356001600160401b0380821115620024be57600080fd5b620024cc8683870162001edb565b93506020850135915080821115620024e357600080fd5b50620024f28582860162002359565b9150509250929050565b6000604082840312156200250f57600080fd5b604051604081016001600160401b03828210818311171562002535576200253562001df8565b8160405282935084359150808211156200254e57600080fd5b6200255c8683870162001edb565b835260208501359150808211156200257357600080fd5b50620025828582860162001edb565b6020830152505092915050565b600060208284031215620025a257600080fd5b81356001600160401b0380821115620025ba57600080fd5b9083019060a08286031215620025cf57600080fd5b620025d962001e83565b823582811115620025e957600080fd5b620025f78782860162001edb565b8252506020830135828111156200260d57600080fd5b6200261b8782860162001edb565b6020830152506040830135828111156200263457600080fd5b620026428782860162001edb565b6040830152506060830135828111156200265b57600080fd5b620026698782860162002359565b6060830152506080830135828111156200268257600080fd5b6200269087828601620024fc565b60808301525095945050505050565b60008060008060808587031215620026b657600080fd5b620026c18562001f89565b9350620026d16020860162001f89565b9250620026e16040860162001f89565b9150620026f16060860162001f89565b905092959194509250565b60005b8381101562002719578181015183820152602001620026ff565b50506000910152565b6000825162002736818460208701620026fc565b9190910192915050565b6000602082840312156200275357600080fd5b5051919050565b6000815180845262002774816020860160208601620026fc565b601f01601f19169290920160200192915050565b6080815260006200279d60808301876200275a565b8281036020840152620027b181876200275a565b90508281036040840152620027c781866200275a565b91505060018060a01b038316606083015295945050505050565b634e487b7160e01b600052603260045260246000fd5b6020808252825182820181905260009190848201906040850190845b818110156200283a5783516001600160a01b03168352928401929184019160010162002813565b50909695505050505050565b6000602082840312156200285957600080fd5b8151620007c7816200204e565b6060815260006200287b60608301866200275a565b6001600160a01b039490941660208301525060400152919050565b6020808252825180516001600160e01b031916838301528101516001600160a01b0390811660408085019190915284830151805183166060860152830151608085015284015160c060a0850152805160e0808601526000939290620029006101c08701826200275a565b9383015186850360df19016101008801529390506200292081856200275a565b935050604082015161012086015260608201516101408601526001600160401b036080830151166101608601528060a0830151166101808601528060c0830151166101a0860152505060608401516200298560c0850182516001600160a01b03169052565b509392505050565b60008351620029a1818460208801620026fc565b835190830190620029b7818360208801620026fc565b01949350505050565b634e487b7160e01b600052601160045260246000fd5b600060018201620029eb57620029eb620029c0565b5060010190565b6001600160a01b0383168152604060208201819052600090620003ee908301846200275a565b60018060a01b0381511682526000602082015160406020850152620003ee60408501826200275a565b60608152600062002a5660608301866200275a565b6020838203818501528186518084528284019150828160051b85010183890160005b8381101562002aaa57601f1987840301855262002a978383516200275a565b9486019492509085019060010162002a78565b50508681036040880152875180825284820195509250600583901b81018401915083880160005b8481101562002b0357601f1983850301875262002af084835162002a18565b9686019693509085019060010162002ad1565b50919a9950505050505050505050565b828152604060208201526000620003ee604083018462002a18565b600081518084526020808501945080840160005b8381101562002b605781518752958201959082019060010162002b42565b509495945050505050565b60006020808301818452808551808352604092508286019150828160051b87010184880160005b8381101562002bf757888303603f19018552815180516001600160a01b0316845287810151888501528681015115158785015260609081015160809185018290529062002be28186018362002b2e565b96890196945050509086019060010162002b92565b509098975050505050505050565b60608152600062002c1a60608301866200275a565b828103602084015262002c2e81866200275a565b9050828103604084015262002c44818562002b2e565b9695505050505050565b600181811c9082168062002c6357607f821691505b60208210810362002c8457634e487b7160e01b600052602260045260246000fd5b50919050565b601f8211156200036457600081815260208120601f850160051c8101602086101562002cb35750805b601f850160051c820191505b8181101562002cd45782815560010162002cbf565b505050505050565b81516001600160401b0381111562002cf85762002cf862001df8565b62002d108162002d09845462002c4e565b8462002c8a565b602080601f83116001811462002d48576000841562002d2f5750858301515b600019600386901b1c1916600185901b17855562002cd4565b600085815260208120601f198616915b8281101562002d795788860151825594840194600190910190840162002d58565b508582101562002d985787850151600019600388901b60f8161c191681555b5050505050600190811b01905550565b81810381811115620002465762000246620029c0565b634e487b7160e01b600052603160045260246000fdfe60806040523480156200001157600080fd5b50604051620014ee380380620014ee8339810160408190526200003491620006e1565b6200003e62000198565b8051620000a79080517f8554b9df6321355bca4334cacaab69e5fcc1f4562dedc2e1f459ba5fa38bf21c80546020909301516001600160a01b03166001600160a01b031960e09390931c600160a01b02929092166001600160c01b031990931692909217179055565b60208181015180519101517f9bd0e1a7aef81c47cff971a2fee48406b20f55522326b2e2616c49c24aa506d080546001600160a01b0319166001600160a01b03909316929092179091557f9bd0e1a7aef81c47cff971a2fee48406b20f55522326b2e2616c49c24aa506d155604081015180516020909101516200012c9190620001ac565b604081015181516020015162000143919062000214565b60608101515162000191906001600160a01b031660009081527f9be1203d7c008407e47cf520c8f15f54b074f0a2af3750145c254290338afc3f60205260409020805460ff19166001179055565b506200092e565b620001aa6301ffc9a760e01b62000351565b565b7f234d8962d7c9a6a6604d7f98797e6ad6d7a886804f7409feb26422e27bf812547f234d8962d7c9a6a6604d7f98797e6ad6d7a886804f7409feb26422e27bf81256620001fa848262000862565b50600381016200020b838262000862565b50600190555050565b60408201517f9b35df16c33a6c0e085c9ebd55fb367f81c58c2ed7e9bed98cc622f3308a600f5560608201517f9b35df16c33a6c0e085c9ebd55fb367f81c58c2ed7e9bed98cc622f3308a60105560808201517f9b35df16c33a6c0e085c9ebd55fb367f81c58c2ed7e9bed98cc622f3308a601380546001600160401b03909216600160a01b02600160a01b600160e01b031990921691909117905560a08201517f9b35df16c33a6c0e085c9ebd55fb367f81c58c2ed7e9bed98cc622f3308a600d906001600160a01b031615620002f1578260a0015162000307565b73eeeeeeeeeeeeeeeeeeeeeeeeeeeeeeeeeeeeeeee5b6004820180546001600160a01b03199081166001600160a01b039384161790915560c094909401516005830180548616918316919091179055600690910180549093169116179055565b6001600160e01b031981166000908152600080516020620014ce833981519152602052604090205460ff161515600114620003be576001600160e01b031981166000908152600080516020620014ce83398151915260205260409020805460ff19166001179055620003d7565b604051637967f77d60e11b815260040160405180910390fd5b6040516001600160e01b03198216907f78f84e5b1c5c05be2b5ad3800781dd404d6d6c6302bc755c0fe20f58a33a7f2290600090a250565b634e487b7160e01b600052604160045260246000fd5b604080519081016001600160401b03811182821017156200044a576200044a6200040f565b60405290565b60405160e081016001600160401b03811182821017156200044a576200044a6200040f565b604051608081016001600160401b03811182821017156200044a576200044a6200040f565b604051601f8201601f191681016001600160401b0381118282101715620004c557620004c56200040f565b604052919050565b80516001600160a01b0381168114620004e557600080fd5b919050565b600060408284031215620004fd57600080fd5b6200050762000425565b90506200051482620004cd565b81526020820151602082015292915050565b600082601f8301126200053857600080fd5b81516001600160401b038111156200055457620005546200040f565b60206200056a601f8301601f191682016200049a565b82815285828487010111156200057f57600080fd5b60005b838110156200059f57858101830151828201840152820162000582565b506000928101909101919091529392505050565b80516001600160401b0381168114620004e557600080fd5b600060e08284031215620005de57600080fd5b620005e862000450565b82519091506001600160401b03808211156200060357600080fd5b620006118583860162000526565b835260208401519150808211156200062857600080fd5b50620006378482850162000526565b60208301525060408201516040820152606082015160608201526200065f60808301620005b3565b60808201526200067260a08301620004cd565b60a08201526200068560c08301620004cd565b60c082015292915050565b600060208284031215620006a357600080fd5b604051602081016001600160401b0381118282101715620006c857620006c86200040f565b604052905080620006d983620004cd565b905292915050565b600060208284031215620006f457600080fd5b81516001600160401b03808211156200070c57600080fd5b9083019081850360c08112156200072257600080fd5b6200072c62000475565b60408212156200073b57600080fd5b6200074562000425565b84519092506001600160e01b0319811681146200076157600080fd5b82526200077160208501620004cd565b6020830152818152620007888760408601620004ea565b60208201526080840151915082821115620007a257600080fd5b620007b087838601620005cb565b6040820152620007c48760a0860162000690565b60608201529695505050505050565b600181811c90821680620007e857607f821691505b6020821081036200080957634e487b7160e01b600052602260045260246000fd5b50919050565b601f8211156200085d57600081815260208120601f850160051c81016020861015620008385750805b601f850160051c820191505b81811015620008595782815560010162000844565b5050505b505050565b81516001600160401b038111156200087e576200087e6200040f565b62000896816200088f8454620007d3565b846200080f565b602080601f831160018114620008ce5760008415620008b55750858301515b600019600386901b1c1916600185901b17855562000859565b600085815260208120601f198616915b82811015620008ff57888601518255948401946001909101908401620008de565b50858210156200091e5787850151600019600388901b60f8161c191681555b5050505050600190811b01905550565b610b90806200093e6000396000f3fe6080604052600436106100a05760003560e01c8063572b6c0511610064578063572b6c051461019e5780635b312fce1461020657806362452006146102435780637025156314610263578063ac9650d8146102a0578063b8307376146102cd576100a7565b806302b24da5146100b15780630c3a01b1146100d15780631766bb7b146100f15780631b3972f0146101195780631d214b4d1461014d576100a7565b366100a757005b6100af6102ed565b005b3480156100bd57600080fd5b506100af6100cc36600461094c565b610345565b3480156100dd57600080fd5b506100af6100ec36600461094c565b610440565b3480156100fd57600080fd5b50610106610544565b6040519081526020015b60405180910390f35b34801561012557600080fd5b507f9b35df16c33a6c0e085c9ebd55fb367f81c58c2ed7e9bed98cc622f3308a600f54610106565b34801561015957600080fd5b507f9b35df16c33a6c0e085c9ebd55fb367f81c58c2ed7e9bed98cc622f3308a6012546001600160a01b03165b6040516001600160a01b039091168152602001610110565b3480156101aa57600080fd5b506101f66101b936600461097d565b6001600160a01b031660009081527f9be1203d7c008407e47cf520c8f15f54b074f0a2af3750145c254290338afc3f602052604090205460ff1690565b6040519015158152602001610110565b34801561021257600080fd5b507f9b35df16c33a6c0e085c9ebd55fb367f81c58c2ed7e9bed98cc622f3308a6013546001600160a01b0316610186565b34801561024f57600080fd5b506100af61025e36600461097d565b610619565b34801561026f57600080fd5b507f9b35df16c33a6c0e085c9ebd55fb367f81c58c2ed7e9bed98cc622f3308a6011546001600160a01b0316610186565b3480156102ac57600080fd5b506102c06102bb3660046109a1565b610681565b6040516101109190610a3a565b3480156102d957600080fd5b506100af6102e836600461097d565b61079e565b60006102f7610806565b90506001600160a01b0381163b610321576040516321f27f0d60e21b815260040160405180910390fd5b3660008037600080366000845af43d6000803e808015610340573d6000f35b3d6000fd5b7f9b35df16c33a6c0e085c9ebd55fb367f81c58c2ed7e9bed98cc622f3308a60135460408051632cbb9d1360e01b815290517f9b35df16c33a6c0e085c9ebd55fb367f81c58c2ed7e9bed98cc622f3308a600d926000926001600160a01b0390911691632cbb9d13916004808201926020929091908290030181865afa1580156103d3573d6000803e3d6000fd5b505050506040513d601f19601f820116820180604052508101906103f79190610ab4565b90508083111561041a57604051632b6e8cbb60e11b815260040160405180910390fd5b50507f9b35df16c33a6c0e085c9ebd55fb367f81c58c2ed7e9bed98cc622f3308a601055565b7f9b35df16c33a6c0e085c9ebd55fb367f81c58c2ed7e9bed98cc622f3308a6011547f9b35df16c33a6c0e085c9ebd55fb367f81c58c2ed7e9bed98cc622f3308a600d906001600160a01b03166104aa57604051636da3122b60e01b815260040160405180910390fd5b600681015460408051630eac306d60e01b815290516000926001600160a01b031691630eac306d9160048083019260209291908290030181865afa1580156104f6573d6000803e3d6000fd5b505050506040513d601f19601f8201168201806040525081019061051a9190610ab4565b90508083101561053d57604051631a23d64760e11b815260040160405180910390fd5b5060020155565b7f9b35df16c33a6c0e085c9ebd55fb367f81c58c2ed7e9bed98cc622f3308a6010546000907f9b35df16c33a6c0e085c9ebd55fb367f81c58c2ed7e9bed98cc622f3308a600d908203610610578060060160009054906101000a90046001600160a01b03166001600160a01b0316632cbb9d136040518163ffffffff1660e01b8152600401602060405180830381865afa1580156105e6573d6000803e3d6000fd5b505050506040513d601f19601f8201168201806040525081019061060a9190610ab4565b91505090565b60030154919050565b6001600160a01b03811661064057604051631492df6160e21b815260040160405180910390fd5b7f9b35df16c33a6c0e085c9ebd55fb367f81c58c2ed7e9bed98cc622f3308a601280546001600160a01b0319166001600160a01b0392909216919091179055565b6060818067ffffffffffffffff81111561069d5761069d610acd565b6040519080825280602002602001820160405280156106d057816020015b60608152602001906001900390816106bb5790505b50915060005b8181101561079657600080308787858181106106f4576106f4610ae3565b90506020028101906107069190610af9565b604051610714929190610b47565b600060405180830381855af49150503d806000811461074f576040519150601f19603f3d011682016040523d82523d6000602084013e610754565b606091505b50915091508115610782578085848151811061077257610772610ae3565b602002602001018190525061078c565b3d6000803e3d6000fd5b50506001016106d6565b505092915050565b6001600160a01b0381166107c557604051636da3122b60e01b815260040160405180910390fd5b7f9b35df16c33a6c0e085c9ebd55fb367f81c58c2ed7e9bed98cc622f3308a601180546001600160a01b0319166001600160a01b0392909216919091179055565b7f8554b9df6321355bca4334cacaab69e5fcc1f4562dedc2e1f459ba5fa38bf21c54600090600160a01b900460e01b81806108687f8554b9df6321355bca4334cacaab69e5fcc1f4562dedc2e1f459ba5fa38bf21c546001600160a01b031690565b6040516001600160e01b03196000351660248201526001600160a01b039190911690849060440160408051601f198184030181529181526020820180516001600160e01b03166001600160e01b03199094169390931790925290516108cd9190610b57565b600060405180830381855afa9150503d8060008114610908576040519150601f19603f3d011682016040523d82523d6000602084013e61090d565b606091505b5091509150816109305760405163391aa44560e01b815260040160405180910390fd5b808060200190518101906109449190610b73565b935050505090565b60006020828403121561095e57600080fd5b5035919050565b6001600160a01b038116811461097a57600080fd5b50565b60006020828403121561098f57600080fd5b813561099a81610965565b9392505050565b600080602083850312156109b457600080fd5b823567ffffffffffffffff808211156109cc57600080fd5b818501915085601f8301126109e057600080fd5b8135818111156109ef57600080fd5b8660208260051b8501011115610a0457600080fd5b60209290920196919550909350505050565b60005b83811015610a31578181015183820152602001610a19565b50506000910152565b6000602080830181845280855180835260408601915060408160051b870101925083870160005b82811015610aa757878503603f1901845281518051808752610a88818989018a8501610a16565b601f01601f191695909501860194509285019290850190600101610a61565b5092979650505050505050565b600060208284031215610ac657600080fd5b5051919050565b634e487b7160e01b600052604160045260246000fd5b634e487b7160e01b600052603260045260246000fd5b6000808335601e19843603018112610b1057600080fd5b83018035915067ffffffffffffffff821115610b2b57600080fd5b602001915036819003821315610b4057600080fd5b9250929050565b8183823760009101908152919050565b60008251610b69818460208701610a16565b9190910192915050565b600060208284031215610b8557600080fd5b815161099a8161096556bc7de460bcfb6afd0c415c8c610d408bd914b18d7d0feec0da9e25348087a5c460806040526040516104ab3803806104ab833981016040819052610022916102de565b61002e82826000610035565b50506103fb565b61003e83610061565b60008251118061004b5750805b1561005c5761005a83836100a1565b505b505050565b61006a816100cd565b6040516001600160a01b038216907fbc7cd75a20ee27fd9adebab32041f755214dbc6bffa90cc0225b39da2e5c2d3b90600090a250565b60606100c6838360405180606001604052806027815260200161048460279139610180565b9392505050565b6001600160a01b0381163b61013f5760405162461bcd60e51b815260206004820152602d60248201527f455243313936373a206e657720696d706c656d656e746174696f6e206973206e60448201526c1bdd08184818dbdb9d1c9858dd609a1b60648201526084015b60405180910390fd5b7f360894a13ba1a3210667c828492db98dca3e2076cc3735a920a3ca505d382bbc80546001600160a01b0319166001600160a01b0392909216919091179055565b6060600080856001600160a01b03168560405161019d91906103ac565b600060405180830381855af49150503d80600081146101d8576040519150601f19603f3d011682016040523d82523d6000602084013e6101dd565b606091505b5090925090506101ef868383876101f9565b9695505050505050565b60608315610268578251600003610261576001600160a01b0385163b6102615760405162461bcd60e51b815260206004820152601d60248201527f416464726573733a2063616c6c20746f206e6f6e2d636f6e74726163740000006044820152606401610136565b5081610272565b610272838361027a565b949350505050565b81511561028a5781518083602001fd5b8060405162461bcd60e51b815260040161013691906103c8565b634e487b7160e01b600052604160045260246000fd5b60005b838110156102d55781810151838201526020016102bd565b50506000910152565b600080604083850312156102f157600080fd5b82516001600160a01b038116811461030857600080fd5b60208401519092506001600160401b038082111561032557600080fd5b818501915085601f83011261033957600080fd5b81518181111561034b5761034b6102a4565b604051601f8201601f19908116603f01168101908382118183101715610373576103736102a4565b8160405282815288602084870101111561038c57600080fd5b61039d8360208301602088016102ba565b80955050505050509250929050565b600082516103be8184602087016102ba565b9190910192915050565b60208152600082518060208401526103e78160408501602087016102ba565b601f01601f19169190910160400192915050565b607b806104096000396000f3fe608060405236601057600e6013565b005b600e5b601f601b6021565b6058565b565b600060537f360894a13ba1a3210667c828492db98dca3e2076cc3735a920a3ca505d382bbc546001600160a01b031690565b905090565b3660008037600080366000845af43d6000803e8080156076573d6000f35b3d6000fd416464726573733a206c6f772d6c6576656c2064656c65676174652063616c6c206661696c65640021838b43e034e5a0d20f42ce9ca05b74b34cf419ae1034249310df3263674dbfc17bfcd641c969809ea46cafa0234f34c2d733b95035a848e816b1fa9cd8b9bfc17bfcd641c969809ea46cafa0234f34c2d733b95035a848e816b1fa9cd8b5",
    "linkReferences": {}
  },
  "methodIdentifiers": {
    "__TownArchitect_init(address,address,address,address)": "fc833cd2",
    "computeTown(string,((string,string,uint256,uint256,uint64,address,address),(bool,(address,uint256,bool,uint256[])[],address[]),string[]))": "ad213f92",
    "createTown((string,string,string,((string,string,uint256,uint256,uint64,address,address),(bool,(address,uint256,bool,uint256[])[],address[]),string[]),(string,string)))": "c9a397c4",
    "gateByToken(address,uint256)": "5b560b67",
    "getTokenIdByTown(address)": "40fb2169",
    "getTokenIdByTownId(string)": "9c7843c2",
    "getTownArchitectImplementations()": "18c7f066",
    "getTownById(string)": "11a8b382",
    "isTokenGated(address)": "1c05bbc7",
    "isTown(address)": "820f4a71",
    "setTownArchitectImplementations(address,address,address)": "51ec4c1d",
    "ungateByToken(address)": "edddeb4d"
  },
  "id": 145
}