{
  "abi": [
    {
      "inputs": [],
      "name": "ApprovalCallerNotOwnerNorApproved",
      "type": "error"
    },
    {
      "inputs": [],
      "name": "ApprovalQueryForNonexistentToken",
      "type": "error"
    },
    {
      "inputs": [],
      "name": "BalanceQueryForZeroAddress",
      "type": "error"
    },
    {
      "inputs": [],
      "name": "Initializable_InInitializingState",
      "type": "error"
    },
    {
      "inputs": [],
      "name": "Initializable_NotInInitializingState",
      "type": "error"
    },
    {
      "inputs": [],
      "name": "Introspection_AlreadySupported",
      "type": "error"
    },
    {
      "inputs": [],
      "name": "Introspection_NotSupported",
      "type": "error"
    },
    {
      "inputs": [],
      "name": "MintERC2309QuantityExceedsLimit",
      "type": "error"
    },
    {
      "inputs": [],
      "name": "MintToZeroAddress",
      "type": "error"
    },
    {
      "inputs": [],
      "name": "MintZeroQuantity",
      "type": "error"
    },
    {
      "inputs": [
        {
          "internalType": "address",
          "name": "account",
          "type": "address"
        }
      ],
      "name": "Ownable__NotOwner",
      "type": "error"
    },
    {
      "inputs": [],
      "name": "Ownable__ZeroAddress",
      "type": "error"
    },
    {
      "inputs": [],
      "name": "OwnerQueryForNonexistentToken",
      "type": "error"
    },
    {
      "inputs": [],
      "name": "OwnershipNotInitializedForExtraData",
      "type": "error"
    },
    {
      "inputs": [],
      "name": "TownOwner__OnlyFactoryAllowed",
      "type": "error"
    },
    {
      "inputs": [],
      "name": "TransferCallerNotOwnerNorApproved",
      "type": "error"
    },
    {
      "inputs": [],
      "name": "TransferFromIncorrectOwner",
      "type": "error"
    },
    {
      "inputs": [],
      "name": "TransferToNonERC721ReceiverImplementer",
      "type": "error"
    },
    {
      "inputs": [],
      "name": "TransferToZeroAddress",
      "type": "error"
    },
    {
      "inputs": [],
      "name": "URIQueryForNonexistentToken",
      "type": "error"
    },
    {
      "anonymous": false,
      "inputs": [
        {
          "indexed": true,
          "internalType": "address",
          "name": "owner",
          "type": "address"
        },
        {
          "indexed": true,
          "internalType": "address",
          "name": "approved",
          "type": "address"
        },
        {
          "indexed": true,
          "internalType": "uint256",
          "name": "tokenId",
          "type": "uint256"
        }
      ],
      "name": "Approval",
      "type": "event"
    },
    {
      "anonymous": false,
      "inputs": [
        {
          "indexed": true,
          "internalType": "address",
          "name": "owner",
          "type": "address"
        },
        {
          "indexed": true,
          "internalType": "address",
          "name": "operator",
          "type": "address"
        },
        {
          "indexed": false,
          "internalType": "bool",
          "name": "approved",
          "type": "bool"
        }
      ],
      "name": "ApprovalForAll",
      "type": "event"
    },
    {
      "anonymous": false,
      "inputs": [
        {
          "indexed": true,
          "internalType": "uint256",
          "name": "fromTokenId",
          "type": "uint256"
        },
        {
          "indexed": false,
          "internalType": "uint256",
          "name": "toTokenId",
          "type": "uint256"
        },
        {
          "indexed": true,
          "internalType": "address",
          "name": "from",
          "type": "address"
        },
        {
          "indexed": true,
          "internalType": "address",
          "name": "to",
          "type": "address"
        }
      ],
      "name": "ConsecutiveTransfer",
      "type": "event"
    },
    {
      "anonymous": false,
      "inputs": [
        {
          "indexed": false,
          "internalType": "uint32",
          "name": "version",
          "type": "uint32"
        }
      ],
      "name": "Initialized",
      "type": "event"
    },
    {
      "anonymous": false,
      "inputs": [
        {
          "indexed": true,
          "internalType": "bytes4",
          "name": "interfaceId",
          "type": "bytes4"
        }
      ],
      "name": "InterfaceAdded",
      "type": "event"
    },
    {
      "anonymous": false,
      "inputs": [
        {
          "indexed": true,
          "internalType": "bytes4",
          "name": "interfaceId",
          "type": "bytes4"
        }
      ],
      "name": "InterfaceRemoved",
      "type": "event"
    },
    {
      "anonymous": false,
      "inputs": [
        {
          "indexed": true,
          "internalType": "address",
          "name": "previousOwner",
          "type": "address"
        },
        {
          "indexed": true,
          "internalType": "address",
          "name": "newOwner",
          "type": "address"
        }
      ],
      "name": "OwnershipTransferred",
      "type": "event"
    },
    {
      "anonymous": false,
      "inputs": [
        {
          "indexed": true,
          "internalType": "address",
          "name": "from",
          "type": "address"
        },
        {
          "indexed": true,
          "internalType": "address",
          "name": "to",
          "type": "address"
        },
        {
          "indexed": true,
          "internalType": "uint256",
          "name": "tokenId",
          "type": "uint256"
        }
      ],
      "name": "Transfer",
      "type": "event"
    },
    {
      "inputs": [
        {
          "internalType": "string",
          "name": "name_",
          "type": "string"
        },
        {
          "internalType": "string",
          "name": "symbol_",
          "type": "string"
        }
      ],
      "name": "__ERC721A_init",
      "outputs": [],
      "stateMutability": "nonpayable",
      "type": "function"
    },
    {
      "inputs": [
        {
          "internalType": "address",
          "name": "to",
          "type": "address"
        },
        {
          "internalType": "uint256",
          "name": "tokenId",
          "type": "uint256"
        }
      ],
      "name": "approve",
      "outputs": [],
      "stateMutability": "payable",
      "type": "function"
    },
    {
      "inputs": [
        {
          "internalType": "address",
          "name": "owner",
          "type": "address"
        }
      ],
      "name": "balanceOf",
      "outputs": [
        {
          "internalType": "uint256",
          "name": "",
          "type": "uint256"
        }
      ],
      "stateMutability": "view",
      "type": "function"
    },
    {
      "inputs": [
        {
          "internalType": "uint256",
          "name": "tokenId",
          "type": "uint256"
        }
      ],
      "name": "getApproved",
      "outputs": [
        {
          "internalType": "address",
          "name": "",
          "type": "address"
        }
      ],
      "stateMutability": "view",
      "type": "function"
    },
    {
      "inputs": [],
      "name": "getFactory",
      "outputs": [
        {
          "internalType": "address",
          "name": "",
          "type": "address"
        }
      ],
      "stateMutability": "view",
      "type": "function"
    },
    {
      "inputs": [
        {
          "internalType": "address",
          "name": "townAddress",
          "type": "address"
        }
      ],
      "name": "getTownInfo",
      "outputs": [
        {
          "components": [
            {
              "internalType": "string",
              "name": "name",
              "type": "string"
            },
            {
              "internalType": "string",
              "name": "uri",
              "type": "string"
            },
            {
              "internalType": "uint256",
              "name": "tokenId",
              "type": "uint256"
            },
            {
              "internalType": "string",
              "name": "networkId",
              "type": "string"
            },
            {
              "internalType": "uint256",
              "name": "createdAt",
              "type": "uint256"
            }
          ],
          "internalType": "struct ITownOwnerBase.Town",
          "name": "",
          "type": "tuple"
        }
      ],
      "stateMutability": "view",
      "type": "function"
    },
    {
      "inputs": [
        {
          "internalType": "address",
          "name": "owner",
          "type": "address"
        },
        {
          "internalType": "address",
          "name": "operator",
          "type": "address"
        }
      ],
      "name": "isApprovedForAll",
      "outputs": [
        {
          "internalType": "bool",
          "name": "",
          "type": "bool"
        }
      ],
      "stateMutability": "view",
      "type": "function"
    },
    {
      "inputs": [
        {
          "internalType": "string",
          "name": "name",
          "type": "string"
        },
        {
          "internalType": "string",
          "name": "uri",
          "type": "string"
        },
        {
          "internalType": "string",
          "name": "networkId",
          "type": "string"
        },
        {
          "internalType": "address",
          "name": "townAddress",
          "type": "address"
        }
      ],
      "name": "mintTown",
      "outputs": [
        {
          "internalType": "uint256",
          "name": "tokenId",
          "type": "uint256"
        }
      ],
      "stateMutability": "nonpayable",
      "type": "function"
    },
    {
      "inputs": [],
      "name": "name",
      "outputs": [
        {
          "internalType": "string",
          "name": "",
          "type": "string"
        }
      ],
      "stateMutability": "view",
      "type": "function"
    },
    {
      "inputs": [],
      "name": "nextTokenId",
      "outputs": [
        {
          "internalType": "uint256",
          "name": "",
          "type": "uint256"
        }
      ],
      "stateMutability": "view",
      "type": "function"
    },
    {
      "inputs": [
        {
          "internalType": "uint256",
          "name": "tokenId",
          "type": "uint256"
        }
      ],
      "name": "ownerOf",
      "outputs": [
        {
          "internalType": "address",
          "name": "",
          "type": "address"
        }
      ],
      "stateMutability": "view",
      "type": "function"
    },
    {
      "inputs": [
        {
          "internalType": "address",
          "name": "from",
          "type": "address"
        },
        {
          "internalType": "address",
          "name": "to",
          "type": "address"
        },
        {
          "internalType": "uint256",
          "name": "tokenId",
          "type": "uint256"
        }
      ],
      "name": "safeTransferFrom",
      "outputs": [],
      "stateMutability": "payable",
      "type": "function"
    },
    {
      "inputs": [
        {
          "internalType": "address",
          "name": "from",
          "type": "address"
        },
        {
          "internalType": "address",
          "name": "to",
          "type": "address"
        },
        {
          "internalType": "uint256",
          "name": "tokenId",
          "type": "uint256"
        },
        {
          "internalType": "bytes",
          "name": "_data",
          "type": "bytes"
        }
      ],
      "name": "safeTransferFrom",
      "outputs": [],
      "stateMutability": "payable",
      "type": "function"
    },
    {
      "inputs": [
        {
          "internalType": "address",
          "name": "operator",
          "type": "address"
        },
        {
          "internalType": "bool",
          "name": "approved",
          "type": "bool"
        }
      ],
      "name": "setApprovalForAll",
      "outputs": [],
      "stateMutability": "nonpayable",
      "type": "function"
    },
    {
      "inputs": [
        {
          "internalType": "address",
          "name": "factory",
          "type": "address"
        }
      ],
      "name": "setFactory",
      "outputs": [],
      "stateMutability": "nonpayable",
      "type": "function"
    },
    {
      "inputs": [],
      "name": "symbol",
      "outputs": [
        {
          "internalType": "string",
          "name": "",
          "type": "string"
        }
      ],
      "stateMutability": "view",
      "type": "function"
    },
    {
      "inputs": [
        {
          "internalType": "uint256",
          "name": "tokenId",
          "type": "uint256"
        }
      ],
      "name": "tokenURI",
      "outputs": [
        {
          "internalType": "string",
          "name": "",
          "type": "string"
        }
      ],
      "stateMutability": "view",
      "type": "function"
    },
    {
      "inputs": [],
      "name": "totalSupply",
      "outputs": [
        {
          "internalType": "uint256",
          "name": "",
          "type": "uint256"
        }
      ],
      "stateMutability": "view",
      "type": "function"
    },
    {
      "inputs": [
        {
          "internalType": "address",
          "name": "from",
          "type": "address"
        },
        {
          "internalType": "address",
          "name": "to",
          "type": "address"
        },
        {
          "internalType": "uint256",
          "name": "tokenId",
          "type": "uint256"
        }
      ],
      "name": "transferFrom",
      "outputs": [],
      "stateMutability": "payable",
      "type": "function"
    }
  ],
  "bytecode": {
    "object": "0x608060405234801561001057600080fd5b5061001961001e565b6100c4565b7f2d0d21306acfe8e9bb163a4573e95aff6cef95dc1102c6a16d5f19eac08cc4de8054640100000000900460ff161561006a576040516366008a2d60e01b815260040160405180910390fd5b805463ffffffff90811610156100c157805463ffffffff191663ffffffff90811782556040519081527fe9c9b456cb2994b80aeef036cf59d26e9617df80f816a6ee5a5b4166e07e2f5c9060200160405180910390a15b50565b611a24806100d36000396000f3fe6080604052600436106101145760003560e01c806370a08231116100a0578063ac9207f411610064578063ac9207f4146102b5578063b88d4fde146102e2578063c87b56dd146102f5578063d2f01f1914610315578063e985e9c51461033557600080fd5b806370a082311461023657806375794a3c1461025657806388cc58e41461026b57806395d89b4114610280578063a22cb4651461029557600080fd5b806318160ddd116100e757806318160ddd146101bb57806323b872dd146101d057806342842e0e146101e35780635bb47808146101f65780636352211e1461021657600080fd5b8063062528081461011957806306fdde031461014c578063081812fc1461016e578063095ea7b3146101a6575b600080fd5b34801561012557600080fd5b506101396101343660046114cf565b610365565b6040519081526020015b60405180910390f35b34801561015857600080fd5b506101616103cf565b60405161014391906115b8565b34801561017a57600080fd5b5061018e6101893660046115cb565b61046a565b6040516001600160a01b039091168152602001610143565b6101b96101b43660046115e4565b61047b565b005b3480156101c757600080fd5b5061013961048b565b6101b96101de36600461160e565b6104aa565b6101b96101f136600461160e565b6106a1565b34801561020257600080fd5b506101b961021136600461164a565b6106c1565b34801561022257600080fd5b5061018e6102313660046115cb565b61073c565b34801561024257600080fd5b5061013961025136600461164a565b610747565b34801561026257600080fd5b506101396107b0565b34801561027757600080fd5b5061018e6107bf565b34801561028c57600080fd5b506101616107e0565b3480156102a157600080fd5b506101b96102b0366004611665565b6107f8565b3480156102c157600080fd5b506102d56102d036600461164a565b610875565b60405161014391906116a1565b6101b96102f036600461171a565b6108b0565b34801561030157600080fd5b506101616103103660046115cb565b6108fa565b34801561032157600080fd5b506101b9610330366004611796565b61098b565b34801561034157600080fd5b506103556103503660046117fa565b6109df565b6040519015158152602001610143565b600080600080516020611a0483398151915280549091506001600160a01b031633146103a45760405163b73edbc160e01b815260040160405180910390fd5b6103ac6109eb565b91506103bb86868486886109fb565b6103c6336001610ac4565b50949350505050565b60606103d9610ade565b60020180546103e79061182d565b80601f01602080910402602001604051908101604052809291908181526020018280546104139061182d565b80156104605780601f1061043557610100808354040283529160200191610460565b820191906000526020600020905b81548152906001019060200180831161044357829003601f168201915b5050505050905090565b600061047582610b02565b92915050565b61048782826001610b4f565b5050565b600080610496610ade565b600101546104a2610ade565b540303919050565b60006104b582610c04565b9050836001600160a01b0316816001600160a01b0316146104e85760405162a1148160e81b815260040160405180910390fd5b6000806104f484610ca9565b9150915061051981876105043390565b6001600160a01b039081169116811491141790565b6105445761052786336109df565b61054457604051632ce44b5f60e11b815260040160405180910390fd5b6001600160a01b03851661056b57604051633a954ecd60e21b815260040160405180910390fd5b801561057657600082555b61057e610ade565b6001600160a01b03871660009081526005919091016020526040902080546000190190556105aa610ade565b6001600160a01b03861660008181526005929092016020526040909120805460010190554260a01b17600160e11b176105e1610ade565b60008681526004919091016020526040812091909155600160e11b841690036106575760018401610610610ade565b60008281526004919091016020526040812054900361065557610631610ade565b5481146106555783610641610ade565b600083815260049190910160205260409020555b505b83856001600160a01b0316876001600160a01b03167fddf252ad1be2c89b69c2b068fc378daa952ba7f163c4a11628f55a4df523b3ef60405160405180910390a45b505050505050565b6106bc838383604051806020016040528060008152506108b0565b505050565b7fa7c3be20e3a76821507555109752fad8a6630ef0362a34dcfcdfef83c99a2537546001600160a01b03163314610711576040516365f4906560e01b815233600482015260240160405180910390fd5b600080516020611a0483398151915280546001600160a01b0319166001600160a01b03831617905550565b600061047582610c04565b60006001600160a01b038216610770576040516323d3ad8160e21b815260040160405180910390fd5b67ffffffffffffffff610781610ade565b6005016000846001600160a01b03166001600160a01b0316815260200190815260200160002054169050919050565b60006107ba6109eb565b905090565b60006107ba600080516020611a04833981519152546001600160a01b031690565b60606107ea610ade565b60030180546103e79061182d565b80610801610ade565b336000818152600792909201602090815260408084206001600160a01b03881680865290835293819020805460ff19169515159590951790945592518415158152919290917f17307eab39ab6107e8899845ad3d59bd9653f200f220920489ca2b5937696c31910160405180910390a35050565b6108a76040518060a0016040528060608152602001606081526020016000815260200160608152602001600081525090565b61047582610cd1565b6108bb8484846104aa565b6001600160a01b0383163b156108f4576108d784848484610f28565b6108f4576040516368d2bf6b60e11b815260040160405180910390fd5b50505050565b606061090582611013565b61092257604051630a14c4b560e41b815260040160405180910390fd5b600061093960408051602081019091526000815290565b905080516000036109595760405180602001604052806000815250610984565b806109638461104f565b604051602001610974929190611867565b6040516020818303038152906040525b9392505050565b7f2d0d21306acfe8e9bb163a4573e95aff6cef95dc1102c6a16d5f19eac08cc4de54640100000000900460ff166109d557604051630ef4733760e31b815260040160405180910390fd5b6104878282611093565b60006109848383611107565b60006109f5610ade565b54919050565b6040805160a0810182528681526020808201879052818301869052606082018490524260808301526001600160a01b03851660009081527f29fd831c424d24cd5e9cb3bb2c716700fad0c388fe4c8545bfa7e16ccd6601d6909152919091208151600080516020611a048339815191529291908190610a7a90826118dc565b5060208201516001820190610a8f90826118dc565b506040820151600282015560608201516003820190610aae90826118dc565b5060808201518160040155905050505050505050565b610487828260405180602001604052806000815250611144565b7f234d8962d7c9a6a6604d7f98797e6ad6d7a886804f7409feb26422e27bf8125490565b6000610b0d82611013565b610b2a576040516333d1c03960e21b815260040160405180910390fd5b610b32610ade565b60009283526006016020525060409020546001600160a01b031690565b6000610b5a8361073c565b90508115610b9957336001600160a01b03821614610b9957610b7c8133611107565b610b99576040516367d9dca160e11b815260040160405180910390fd5b83610ba2610ade565b6000858152600691909101602052604080822080546001600160a01b0319166001600160a01b0394851617905551859287811692908516917f8c5be1e5ebec7d5bd14f71427d1e84f3dd0314c0f7b2291e5b200ac8c7c3b9259190a450505050565b6000610c0e610ade565b600083815260049190910160205260408120549150600160e01b82169003610c905780600003610c8b57610c40610ade565b548210610c6057604051636f96cda160e11b815260040160405180910390fd5b610c68610ade565b600019909201600081815260049390930160205260409092205490508015610c60575b919050565b604051636f96cda160e11b815260040160405180910390fd5b6000806000610cb6610ade565b60009485526006016020525050604090912080549092909150565b610d036040518060a0016040528060608152602001606081526020016000815260200160608152602001600081525090565b6001600160a01b03821660009081527f29fd831c424d24cd5e9cb3bb2c716700fad0c388fe4c8545bfa7e16ccd6601d6602052604090819020815160a081019092528054600080516020611a0483398151915292919082908290610d669061182d565b80601f0160208091040260200160405190810160405280929190818152602001828054610d929061182d565b8015610ddf5780601f10610db457610100808354040283529160200191610ddf565b820191906000526020600020905b815481529060010190602001808311610dc257829003601f168201915b50505050508152602001600182018054610df89061182d565b80601f0160208091040260200160405190810160405280929190818152602001828054610e249061182d565b8015610e715780601f10610e4657610100808354040283529160200191610e71565b820191906000526020600020905b815481529060010190602001808311610e5457829003601f168201915b5050505050815260200160028201548152602001600382018054610e949061182d565b80601f0160208091040260200160405190810160405280929190818152602001828054610ec09061182d565b8015610f0d5780601f10610ee257610100808354040283529160200191610f0d565b820191906000526020600020905b815481529060010190602001808311610ef057829003601f168201915b50505050508152602001600482015481525050915050919050565b604051630a85bd0160e11b81526000906001600160a01b0385169063150b7a0290610f5d90339089908890889060040161199c565b6020604051808303816000875af1925050508015610f98575060408051601f3d908101601f19168201909252610f95918101906119d9565b60015b610ff6573d808015610fc6576040519150601f19603f3d011682016040523d82523d6000602084013e610fcb565b606091505b508051600003610fee576040516368d2bf6b60e11b815260040160405180910390fd5b805181602001fd5b6001600160e01b031916630a85bd0160e11b149050949350505050565b600061101d610ade565b54821080156104755750600160e01b611034610ade565b60008481526004919091016020526040902054161592915050565b606060a06040510180604052602081039150506000815280825b600183039250600a81066030018353600a9004806110695750819003601f19909101908152919050565b7f2d0d21306acfe8e9bb163a4573e95aff6cef95dc1102c6a16d5f19eac08cc4de54640100000000900460ff166110dd57604051630ef4733760e31b815260040160405180910390fd5b6110ed6380ac58cd60e01b6111c1565b6110fd635b5e139f60e01b6111c1565b610487828261129f565b6000611111610ade565b6001600160a01b039384166000908152600791909101602090815260408083209490951682529290925250205460ff1690565b61114e83836112d1565b6001600160a01b0383163b156106bc576000611168610ade565b5490508281035b6111826000868380600101945086610f28565b61119f576040516368d2bf6b60e11b815260040160405180910390fd5b81811061116f57816111af610ade565b54146111ba57600080fd5b5050505050565b6001600160e01b0319811660009081527fbc7de460bcfb6afd0c415c8c610d408bd914b18d7d0feec0da9e25348087a5c4602052604090205460ff16151560011461124e576001600160e01b0319811660009081527fbc7de460bcfb6afd0c415c8c610d408bd914b18d7d0feec0da9e25348087a5c460205260409020805460ff19166001179055611267565b604051637967f77d60e11b815260040160405180910390fd5b6040516001600160e01b03198216907f78f84e5b1c5c05be2b5ad3800781dd404d6d6c6302bc755c0fe20f58a33a7f2290600090a250565b60006112a9610ade565b9050600281016112b984826118dc565b50600381016112c883826118dc565b50600090555050565b60006112db610ade565b54905060008290036113005760405163b562e8dd60e01b815260040160405180910390fd5b680100000000000000018202611314610ade565b6001600160a01b038516600081815260059290920160205260409091208054929092019091554260a01b6001841460e11b171761134f610ade565b600083815260049190910160205260408120919091556001600160a01b0384169083830190839083907fddf252ad1be2c89b69c2b068fc378daa952ba7f163c4a11628f55a4df523b3ef8180a4600183015b8181146113d957808360007fddf252ad1be2c89b69c2b068fc378daa952ba7f163c4a11628f55a4df523b3ef600080a46001016113a1565b50816000036113fa57604051622e076360e81b815260040160405180910390fd5b80611403610ade565b55506106bc9050565b634e487b7160e01b600052604160045260246000fd5b600067ffffffffffffffff8084111561143d5761143d61140c565b604051601f8501601f19908116603f011681019082821181831017156114655761146561140c565b8160405280935085815286868601111561147e57600080fd5b858560208301376000602087830101525050509392505050565b600082601f8301126114a957600080fd5b61098483833560208501611422565b80356001600160a01b0381168114610c8b57600080fd5b600080600080608085870312156114e557600080fd5b843567ffffffffffffffff808211156114fd57600080fd5b61150988838901611498565b9550602087013591508082111561151f57600080fd5b61152b88838901611498565b9450604087013591508082111561154157600080fd5b5061154e87828801611498565b92505061155d606086016114b8565b905092959194509250565b60005b8381101561158357818101518382015260200161156b565b50506000910152565b600081518084526115a4816020860160208601611568565b601f01601f19169290920160200192915050565b602081526000610984602083018461158c565b6000602082840312156115dd57600080fd5b5035919050565b600080604083850312156115f757600080fd5b611600836114b8565b946020939093013593505050565b60008060006060848603121561162357600080fd5b61162c846114b8565b925061163a602085016114b8565b9150604084013590509250925092565b60006020828403121561165c57600080fd5b610984826114b8565b6000806040838503121561167857600080fd5b611681836114b8565b91506020830135801515811461169657600080fd5b809150509250929050565b602081526000825160a060208401526116bd60c084018261158c565b90506020840151601f19808584030160408601526116db838361158c565b925060408601516060860152606086015191508085840301608086015250611703828261158c565b915050608084015160a08401528091505092915050565b6000806000806080858703121561173057600080fd5b611739856114b8565b9350611747602086016114b8565b925060408501359150606085013567ffffffffffffffff81111561176a57600080fd5b8501601f8101871361177b57600080fd5b61178a87823560208401611422565b91505092959194509250565b600080604083850312156117a957600080fd5b823567ffffffffffffffff808211156117c157600080fd5b6117cd86838701611498565b935060208501359150808211156117e357600080fd5b506117f085828601611498565b9150509250929050565b6000806040838503121561180d57600080fd5b611816836114b8565b9150611824602084016114b8565b90509250929050565b600181811c9082168061184157607f821691505b60208210810361186157634e487b7160e01b600052602260045260246000fd5b50919050565b60008351611879818460208801611568565b83519083019061188d818360208801611568565b01949350505050565b601f8211156106bc57600081815260208120601f850160051c810160208610156118bd5750805b601f850160051c820191505b81811015610699578281556001016118c9565b815167ffffffffffffffff8111156118f6576118f661140c565b61190a81611904845461182d565b84611896565b602080601f83116001811461193f57600084156119275750858301515b600019600386901b1c1916600185901b178555610699565b600085815260208120601f198616915b8281101561196e5788860151825594840194600190910190840161194f565b508582101561198c5787850151600019600388901b60f8161c191681555b5050505050600190811b01905550565b6001600160a01b03858116825284166020820152604081018390526080606082018190526000906119cf9083018461158c565b9695505050505050565b6000602082840312156119eb57600080fd5b81516001600160e01b03198116811461098457600080fdfe29fd831c424d24cd5e9cb3bb2c716700fad0c388fe4c8545bfa7e16ccd6601d5",
    "linkReferences": {}
  },
  "methodIdentifiers": {
    "__ERC721A_init(string,string)": "d2f01f19",
    "approve(address,uint256)": "095ea7b3",
    "balanceOf(address)": "70a08231",
    "getApproved(uint256)": "081812fc",
    "getFactory()": "88cc58e4",
    "getTownInfo(address)": "ac9207f4",
    "isApprovedForAll(address,address)": "e985e9c5",
    "mintTown(string,string,string,address)": "06252808",
    "name()": "06fdde03",
    "nextTokenId()": "75794a3c",
    "ownerOf(uint256)": "6352211e",
    "safeTransferFrom(address,address,uint256)": "42842e0e",
    "safeTransferFrom(address,address,uint256,bytes)": "b88d4fde",
    "setApprovalForAll(address,bool)": "a22cb465",
    "setFactory(address)": "5bb47808",
    "symbol()": "95d89b41",
    "tokenURI(uint256)": "c87b56dd",
    "totalSupply()": "18160ddd",
    "transferFrom(address,address,uint256)": "23b872dd"
  },
  "id": 154
}