{
  "abi": [
    {
      "inputs": [],
      "name": "Factory__FailedDeployment",
      "type": "error"
    },
    {
      "inputs": [],
      "name": "GateFacetService__NotAllowed",
      "type": "error"
    },
    {
      "inputs": [
        {
          "internalType": "address",
          "name": "account",
          "type": "address"
        }
      ],
      "name": "Ownable__NotOwner",
      "type": "error"
    },
    {
      "inputs": [],
      "name": "Pausable__Paused",
      "type": "error"
    },
    {
      "inputs": [],
      "name": "ReentrancyGuard__ReentrantCall",
      "type": "error"
    },
    {
      "inputs": [],
      "name": "TownArchitectService__InvalidAddress",
      "type": "error"
    },
    {
      "inputs": [],
      "name": "TownArchitectService__InvalidNetworkId",
      "type": "error"
    },
    {
      "inputs": [],
      "name": "TownArchitectService__InvalidStringLength",
      "type": "error"
    },
    {
      "inputs": [],
      "name": "TownArchitectService__NotContract",
      "type": "error"
    },
    {
      "anonymous": false,
      "inputs": [
        {
          "indexed": true,
          "internalType": "address",
          "name": "previousOwner",
          "type": "address"
        },
        {
          "indexed": true,
          "internalType": "address",
          "name": "newOwner",
          "type": "address"
        }
      ],
      "name": "OwnershipTransferred",
      "type": "event"
    },
    {
      "anonymous": false,
      "inputs": [
        {
          "indexed": false,
          "internalType": "address",
          "name": "account",
          "type": "address"
        }
      ],
      "name": "Paused",
      "type": "event"
    },
    {
      "anonymous": false,
      "inputs": [
        {
          "indexed": true,
          "internalType": "address",
          "name": "town",
          "type": "address"
        }
      ],
      "name": "TownCreated",
      "type": "event"
    },
    {
      "anonymous": false,
      "inputs": [
        {
          "indexed": false,
          "internalType": "address",
          "name": "account",
          "type": "address"
        }
      ],
      "name": "Unpaused",
      "type": "event"
    },
    {
      "inputs": [
        {
          "internalType": "string",
          "name": "townId",
          "type": "string"
        }
      ],
      "name": "computeTown",
      "outputs": [
        {
          "internalType": "address",
          "name": "",
          "type": "address"
        }
      ],
      "stateMutability": "view",
      "type": "function"
    },
    {
      "inputs": [
        {
          "components": [
            {
              "internalType": "string",
              "name": "id",
              "type": "string"
            },
            {
              "internalType": "string",
              "name": "metadata",
              "type": "string"
            },
            {
              "components": [
                {
                  "internalType": "string",
                  "name": "name",
                  "type": "string"
                },
                {
                  "internalType": "string[]",
                  "name": "permissions",
                  "type": "string[]"
                }
              ],
              "internalType": "struct ITownArchitectStructs.RoleInfo",
              "name": "everyoneEntitlement",
              "type": "tuple"
            },
            {
              "components": [
                {
                  "components": [
                    {
                      "internalType": "string",
                      "name": "name",
                      "type": "string"
                    },
                    {
                      "internalType": "string[]",
                      "name": "permissions",
                      "type": "string[]"
                    }
                  ],
                  "internalType": "struct ITownArchitectStructs.RoleInfo",
                  "name": "role",
                  "type": "tuple"
                },
                {
                  "components": [
                    {
                      "internalType": "address",
                      "name": "contractAddress",
                      "type": "address"
                    },
                    {
                      "internalType": "uint256",
                      "name": "quantity",
                      "type": "uint256"
                    },
                    {
                      "internalType": "bool",
                      "name": "isSingleToken",
                      "type": "bool"
                    },
                    {
                      "internalType": "uint256[]",
                      "name": "tokenIds",
                      "type": "uint256[]"
                    }
                  ],
                  "internalType": "struct ITokenEntitlement.ExternalToken[]",
                  "name": "tokens",
                  "type": "tuple[]"
                },
                {
                  "internalType": "address[]",
                  "name": "users",
                  "type": "address[]"
                }
              ],
              "internalType": "struct ITownArchitectStructs.MemberEntitlement",
              "name": "memberEntitlement",
              "type": "tuple"
            },
            {
              "components": [
                {
                  "internalType": "string",
                  "name": "id",
                  "type": "string"
                },
                {
                  "internalType": "string",
                  "name": "metadata",
                  "type": "string"
                }
              ],
              "internalType": "struct ITownArchitectStructs.ChannelInfo",
              "name": "channel",
              "type": "tuple"
            }
          ],
          "internalType": "struct ITownArchitectStructs.TownInfo",
          "name": "townInfo",
          "type": "tuple"
        }
      ],
      "name": "createTown",
      "outputs": [
        {
          "internalType": "address",
          "name": "",
          "type": "address"
        }
      ],
      "stateMutability": "nonpayable",
      "type": "function"
    },
    {
      "inputs": [
        {
          "internalType": "address",
          "name": "token",
          "type": "address"
        },
        {
          "internalType": "uint256",
          "name": "quantity",
          "type": "uint256"
        }
      ],
      "name": "gateByToken",
      "outputs": [],
      "stateMutability": "nonpayable",
      "type": "function"
    },
    {
      "inputs": [
        {
          "internalType": "string",
          "name": "townId",
          "type": "string"
        }
      ],
      "name": "getTokenIdByTownId",
      "outputs": [
        {
          "internalType": "uint256",
          "name": "",
          "type": "uint256"
        }
      ],
      "stateMutability": "view",
      "type": "function"
    },
    {
      "inputs": [],
      "name": "getTownArchitectImplementations",
      "outputs": [
        {
          "internalType": "address",
          "name": "townToken",
          "type": "address"
        },
        {
          "internalType": "address",
          "name": "userEntitlementImplementation",
          "type": "address"
        },
        {
          "internalType": "address",
          "name": "tokenEntitlementImplementation",
          "type": "address"
        }
      ],
      "stateMutability": "view",
      "type": "function"
    },
    {
      "inputs": [
        {
          "internalType": "string",
          "name": "townId",
          "type": "string"
        }
      ],
      "name": "getTownById",
      "outputs": [
        {
          "internalType": "address",
          "name": "",
          "type": "address"
        }
      ],
      "stateMutability": "view",
      "type": "function"
    },
    {
      "inputs": [
        {
          "internalType": "address",
          "name": "token",
          "type": "address"
        }
      ],
      "name": "isTokenGated",
      "outputs": [
        {
          "internalType": "bool",
          "name": "",
          "type": "bool"
        }
      ],
      "stateMutability": "view",
      "type": "function"
    },
    {
      "inputs": [
        {
          "internalType": "address",
          "name": "townToken",
          "type": "address"
        },
        {
          "internalType": "address",
          "name": "userEntitlementImplementation",
          "type": "address"
        },
        {
          "internalType": "address",
          "name": "tokenEntitlementImplementation",
          "type": "address"
        }
      ],
      "name": "setTownArchitectImplementations",
      "outputs": [],
      "stateMutability": "nonpayable",
      "type": "function"
    },
    {
      "inputs": [
        {
          "internalType": "address",
          "name": "token",
          "type": "address"
        }
      ],
      "name": "ungateByToken",
      "outputs": [],
      "stateMutability": "nonpayable",
      "type": "function"
    }
  ],
  "bytecode": {
    "object": "0x608060405234801561001057600080fd5b5061387c806100206000396000f3fe60806040523480156200001157600080fd5b50600436106200009f5760003560e01c806351ec4c1d116200006e57806351ec4c1d146200014c5780635b560b6714620001655780639c7843c2146200017c578063ac6eec3714620001a2578063edddeb4d14620001b957600080fd5b806311a8b38214620000a457806318c7f06614620000d85780631c05bbc7146200010d578063344fe7211462000135575b600080fd5b620000bb620000b53660046200192f565b620001d0565b6040516001600160a01b0390911681526020015b60405180910390f35b620000e2620001e3565b604080516001600160a01b0394851681529284166020840152921691810191909152606001620000cf565b620001246200011e3660046200197f565b62000260565b6040519015158152602001620000cf565b620000bb6200014636600462001d95565b6200026d565b620001636200015d36600462001ea5565b6200032d565b005b620001636200017636600462001eef565b62000349565b620001936200018d3660046200192f565b62000363565b604051908152602001620000cf565b620000bb620001b33660046200192f565b62000370565b62000163620001ca3660046200197f565b62000392565b6000620001dd82620003aa565b92915050565b6000806000620002556000805160206200383c833981519152547fbfc17bfcd641c969809ea46cafa0234f34c2d733b95035a848e816b1fa9cd8ba547fbfc17bfcd641c969809ea46cafa0234f34c2d733b95035a848e816b1fa9cd8bb546001600160a01b0392831693918316921690565b925092509250909192565b6000620001dd82620003b7565b600060027faa46fb59f33bdb27e6b53912a92179c2c7eebd611f623c30d745d755d2c776ec5403620002b257604051635db5c7cd60e11b815260040160405180910390fd5b620002dc60027faa46fb59f33bdb27e6b53912a92179c2c7eebd611f623c30d745d755d2c776ec55565b620002e6620003fa565b620002f13362000440565b620002fc826200044b565b90506200032860017faa46fb59f33bdb27e6b53912a92179c2c7eebd611f623c30d745d755d2c776ec55565b919050565b62000337620006bc565b620003448383836200070d565b505050565b62000353620006bc565b6200035f82826200071a565b5050565b6000620001dd8262000726565b6000806200037d62000733565b90506200038b8382620007cc565b9392505050565b6200039c620006bc565b620003a78162000874565b50565b6000620001dd82620008c2565b6001600160a01b0380821660009081527e21838b43e034e5a0d20f42ce9ca05b74b34cf419ae1034249310df3263674f60205260408120549091161515620001dd565b7f2a273e5ed51fc6d1f408fd9427b72fcf1a8cb7ffc748ab4d54f3b8247736a2015460ff16156200043e576040516302ca8ced60e11b815260040160405180910390fd5b565b620003a78162000928565b600062000457620003fa565b8151620004649062000a36565b8151620004719062000a5b565b60006200047d62000733565b90506200048f836000015182620007cc565b9150620004a28360000151828462000a96565b620004b1836020015162000b25565b8251620004bf908262000bac565b91506000620004eb6000805160206200385c833981519152600501546001600160a01b03168462000bfc565b90506000620005176000805160206200385c833981519152600601546001600160a01b03168562000bfc565b6040805160028082526060820183529293506000929091602083019080368337019050509050828160008151811062000554576200055462001f1c565b60200260200101906001600160a01b031690816001600160a01b03168152505081816001815181106200058b576200058b62001f1c565b6001600160a01b039283166020918202929092010152604051638bfc820f60e01b815290861690638bfc820f90620005c890849060040162001f32565b600060405180830381600087803b158015620005e357600080fd5b505af1158015620005f8573d6000803e3d6000fd5b5050505060006200060f8685896040015162000cb9565b9050600080886060015160400151511180620006345750600088606001516020015151115b156200064f576200064c8786868b6060015162000e37565b90505b62000671878260000362000664578362000666565b825b8a60800151620010bd565b6200067d863362001173565b6040516001600160a01b038816907f71bcf3e2a9d5705886c642b1bab018544ad0b1206a775cd4431edc6a8530049890600090a2505050505050919050565b7f79ae75762492beaf6e592c7e395674410f8f73b3120cc73dfae9d6c73528681c546001600160a01b031633146200043e576040516365f4906560e01b815233600482015260240160405180910390fd5b6200034483838362001201565b6200035f828262001307565b6000620001dd82620014b2565b6000805160206200383c8339815191525460408051631d5e528f60e21b815290516000926000805160206200385c833981519152926001600160a01b03909116916375794a3c916004818101926020929091908290030181865afa158015620007a0573d6000803e3d6000fd5b505050506040513d601f19601f82011682018060405250810190620007c6919062001f81565b91505090565b6000805160206200383c833981519152546000906000805160206200385c83398151915290829081906200080c9087906001600160a01b0316876200150f565b8151602080840191909120604080516001600160f81b0319818501526bffffffffffffffffffffffff193060601b16602182015260358101859052605580820193909352815180820390930183526075019052805191012091935091505b9695505050505050565b620003a7816001600160a01b031660009081527e21838b43e034e5a0d20f42ce9ca05b74b34cf419ae1034249310df3263674f6020526040812080546001600160a01b031916815560010155565b6040516000906000805160206200385c833981519152907fbfc17bfcd641c969809ea46cafa0234f34c2d733b95035a848e816b1fa9cd8b7906200090890859062001fc1565b908152604051908190036020019020546001600160a01b03169392505050565b7e21838b43e034e5a0d20f42ce9ca05b74b34cf419ae1034249310df3263674d60006200095582620015c1565b905060005b8181101562000a30576000620009718483620015cc565b6001600160a01b03818116600081815260028801602052604090819020600181015491516370a0823160e01b8152938a166004850152939450916370a0823190602401602060405180830381865afa158015620009d2573d6000803e3d6000fd5b505050506040513d601f19601f82011682018060405250810190620009f8919062001f81565b101562000a1857604051634125cb7960e11b815260040160405180910390fd5b5050808062000a279062001fdf565b9150506200095a565b50505050565b805181906000036200035f576040516353c210a560e01b815260040160405180910390fd5b6000805160206200385c83398151915262000a778183620015da565b156200035f57604051635afca61f60e11b815260040160405180910390fd5b6000805160206200385c83398151915262000ab28185620015e8565b5081816002018560405162000ac8919062001fc1565b908152602001604051809103902060006101000a8154816001600160a01b0302191690836001600160a01b0316021790555082816003018560405162000b0f919062001fc1565b9081526040519081900360200190205550505050565b6000805160206200383c833981519152546040516275a31760e01b81526000805160206200385c833981519152916001600160a01b0316906275a3179062000b74903090869060040162002035565b600060405180830381600087803b15801562000b8f57600080fd5b505af115801562000ba4573d6000803e3d6000fd5b505050505050565b6000805160206200383c833981519152546000906000805160206200385c833981519152908290819062000bec9087906001600160a01b0316876200150f565b915091506200086a8282620015f6565b6000806040518060200162000c1190620017ba565b601f1982820381018352601f9091011660408190526001600160a01b0385166024820152859060440160408051601f19818403018152918152602080830180516001600160e01b031663189acdbd60e31b179052905162000c759392910162002035565b60408051601f198184030181529082905262000c9592916020016200205b565b604051602081830303815290604052905062000cb18162001631565b949350505050565b604080516001808252818301909252600091829190816020015b60408051808201909152600081526060602082015281526020019060019003908162000cd3575050604080516001808252818301909252919250600091906020808301908036833701905050905060018160008151811062000d395762000d3962001f1c565b60200260200101906001600160a01b031690816001600160a01b0316815250506040518060400160405280866001600160a01b031681526020018260405160200162000d86919062001f32565b6040516020818303038152906040528152508260008151811062000dae5762000dae62001f1c565b602090810291909101810191909152845190850151604051638fcd793d60e01b81526001600160a01b03891692638fcd793d9262000df1928790600401620020b7565b6020604051808303816000875af115801562000e11573d6000803e3d6000fd5b505050506040513d601f19601f820116820180604052508101906200086a919062001f81565b805180516020918201516040805160008082529481019091526001600160a01b03881692638fcd793d9290918562000e93565b60408051808201909152600081526060602082015281526020019060019003908162000e6a5790505b506040518463ffffffff1660e01b815260040162000eb493929190620020b7565b6020604051808303816000875af115801562000ed4573d6000803e3d6000fd5b505050506040513d601f19601f8201168201806040525081019062000efa919062001f81565b9050816040015151600014620010035760005b82604001515181101562000f5b5762000f468360400151828151811062000f385762000f3862001f1c565b60200260200101516200166b565b8062000f528162001fdf565b91505062000f0d565b50846001600160a01b031663ba201ba8826040518060400160405280886001600160a01b03168152602001866040015160405160200162000f9d919062001f32565b6040516020818303038152906040528152506040518363ffffffff1660e01b815260040162000fce92919062002189565b600060405180830381600087803b15801562000fe957600080fd5b505af115801562000ffe573d6000803e3d6000fd5b505050505b6020820151511562000cb157846001600160a01b031663ba201ba8826040518060400160405280876001600160a01b031681526020018660200151604051602001620010509190620021e1565b6040516020818303038152906040528152506040518363ffffffff1660e01b81526004016200108192919062002189565b600060405180830381600087803b1580156200109c57600080fd5b505af1158015620010b1573d6000803e3d6000fd5b50505050949350505050565b604080516001808252818301909252600091602080830190803683370190505090508281600081518110620010f657620010f662001f1c565b6020908102919091018101919091528251908301516040516328fc1e7560e11b81526001600160a01b038716926351f83cea92620011399286906004016200227b565b600060405180830381600087803b1580156200115457600080fd5b505af115801562001169573d6000803e3d6000fd5b5050505050505050565b60006000805160206200385c8339815191526004818101546040516323b872dd60e01b815230928101929092526001600160a01b0385811660248401526044830187905292935091909116906323b872dd90606401600060405180830381600087803b158015620011e357600080fd5b505af1158015620011f8573d6000803e3d6000fd5b50505050505050565b6001600160a01b0383163b6200122a576040516303ff021160e21b815260040160405180910390fd5b6001600160a01b0382163b62001253576040516303ff021160e21b815260040160405180910390fd5b6001600160a01b0381163b6200127c576040516303ff021160e21b815260040160405180910390fd5b6000805160206200383c83398151915280546001600160a01b039485166001600160a01b0319918216179091557fbfc17bfcd641c969809ea46cafa0234f34c2d733b95035a848e816b1fa9cd8ba8054938516938216939093179092557fbfc17bfcd641c969809ea46cafa0234f34c2d733b95035a848e816b1fa9cd8bb8054919093169116179055565b6040516301ffc9a760e01b81526380ac58cd60e01b60048201526001600160a01b038316906301ffc9a790602401602060405180830381865afa15801562001353573d6000803e3d6000fd5b505050506040513d601f19601f82011682018060405250810190620013799190620022ba565b158015620013f657506040516301ffc9a760e01b81526336372b0760e01b60048201526001600160a01b038316906301ffc9a790602401602060405180830381865afa158015620013ce573d6000803e3d6000fd5b505050506040513d601f19601f82011682018060405250810190620013f49190620022ba565b155b156200141557604051634125cb7960e11b815260040160405180910390fd5b806000036200143757604051634125cb7960e11b815260040160405180910390fd5b7e21838b43e034e5a0d20f42ce9ca05b74b34cf419ae1034249310df3263674d62001463818462001693565b506040805180820182526001600160a01b03948516808252602080830195865260009182526002949094019093529120905181546001600160a01b031916931692909217825551600190910155565b6040516000906000805160206200385c833981519152907fbfc17bfcd641c969809ea46cafa0234f34c2d733b95035a848e816b1fa9cd8b890620014f890859062001fc1565b908152602001604051809103902054915050919050565b606060008484846040516020016200152a93929190620022da565b604051602081830303815290604052805190602001209050604051806020016200155490620017c8565b601f1982820381018352601f909101166040819052620015889063dc9cc64560e01b9030908990899089906020016200230a565b60408051601f1981840301815290829052620015a892916020016200205b565b6040516020818303038152906040529150935093915050565b6000620001dd825490565b60006200038b8383620016aa565b60006200038b8383620016d7565b60006200038b838362001706565b60008260200183518381836000f59250506001600160a01b0382169050620001dd5760405163ef35ca1960e01b815260040160405180910390fd5b600081602001825180826000f09250506001600160a01b0382169050620003285760405163ef35ca1960e01b815260040160405180910390fd5b6001600160a01b038116620003a75760405163173db86d60e21b815260040160405180910390fd5b60006200038b836001600160a01b03841662001771565b6000826000018281548110620016c457620016c462001f1c565b9060005260206000200154905092915050565b60008260010182604051620016ed919062001fc1565b9081526040519081900360200190205415159392505050565b6000620017148383620016d7565b6200176857825460018101845560008481526020902001620017378382620023db565b50825460405160018501906200174f90859062001fc1565b90815260405190819003602001902055506001620001dd565b506000620001dd565b60008181526001830160205260408120546200176857508154600181810184556000848152602080822090930184905584548482528286019093526040902091909155620001dd565b6104ab80620024a883390190565b610ee9806200295383390190565b634e487b7160e01b600052604160045260246000fd5b604080519081016001600160401b0381118282101715620018115762001811620017d6565b60405290565b604051606081016001600160401b0381118282101715620018115762001811620017d6565b604051608081016001600160401b0381118282101715620018115762001811620017d6565b60405160a081016001600160401b0381118282101715620018115762001811620017d6565b604051601f8201601f191681016001600160401b0381118282101715620018b157620018b1620017d6565b604052919050565b600082601f830112620018cb57600080fd5b81356001600160401b03811115620018e757620018e7620017d6565b620018fc601f8201601f191660200162001886565b8181528460208386010111156200191257600080fd5b816020850160208301376000918101602001919091529392505050565b6000602082840312156200194257600080fd5b81356001600160401b038111156200195957600080fd5b62000cb184828501620018b9565b80356001600160a01b03811681146200032857600080fd5b6000602082840312156200199257600080fd5b6200038b8262001967565b60006001600160401b03821115620019b957620019b9620017d6565b5060051b60200190565b600060408284031215620019d657600080fd5b620019e0620017ec565b905081356001600160401b0380821115620019fa57600080fd5b62001a0885838601620018b9565b835260209150818401358181111562001a2057600080fd5b8401601f8101861362001a3257600080fd5b803562001a4962001a43826200199d565b62001886565b81815260059190911b8201840190848101908883111562001a6957600080fd5b8584015b8381101562001aa65780358681111562001a875760008081fd5b62001a978b8983890101620018b9565b84525091860191860162001a6d565b50808688015250505050505092915050565b8015158114620003a757600080fd5b600082601f83011262001ad957600080fd5b8135602062001aec62001a43836200199d565b82815260059290921b8401810191818101908684111562001b0c57600080fd5b8286015b8481101562001b325762001b248162001967565b835291830191830162001b10565b509695505050505050565b60006060828403121562001b5057600080fd5b62001b5a62001817565b905081356001600160401b038082111562001b7457600080fd5b62001b8285838601620019c3565b835260209150818401358181111562001b9a57600080fd5b8401601f8101861362001bac57600080fd5b803562001bbd62001a43826200199d565b81815260059190911b8201840190848101908883111562001bdd57600080fd5b8584015b8381101562001ce45780358681111562001bfb5760008081fd5b85016080818c03601f190181131562001c145760008081fd5b62001c1e6200183c565b62001c2b8a840162001967565b81526040808401358b830152606084013562001c478162001ab8565b8282015291830135918983111562001c5f5760008081fd5b82840193508d603f85011262001c7757600092508283fd5b8a840135925062001c8c62001a43846200199d565b83815260059390931b84018101928b8101908f85111562001cad5760008081fd5b948201945b8486101562001ccd5785358252948c0194908c019062001cb2565b606084015250508552505091860191860162001be1565b50808688015250505050604084013591508082111562001d0357600080fd5b5062001d128482850162001ac7565b60408301525092915050565b60006040828403121562001d3157600080fd5b62001d3b620017ec565b905081356001600160401b038082111562001d5557600080fd5b62001d6385838601620018b9565b8352602084013591508082111562001d7a57600080fd5b5062001d8984828501620018b9565b60208301525092915050565b60006020828403121562001da857600080fd5b81356001600160401b038082111562001dc057600080fd5b9083019060a0828603121562001dd557600080fd5b62001ddf62001861565b82358281111562001def57600080fd5b62001dfd87828601620018b9565b82525060208301358281111562001e1357600080fd5b62001e2187828601620018b9565b60208301525060408301358281111562001e3a57600080fd5b62001e4887828601620019c3565b60408301525060608301358281111562001e6157600080fd5b62001e6f8782860162001b3d565b60608301525060808301358281111562001e8857600080fd5b62001e968782860162001d1e565b60808301525095945050505050565b60008060006060848603121562001ebb57600080fd5b62001ec68462001967565b925062001ed66020850162001967565b915062001ee66040850162001967565b90509250925092565b6000806040838503121562001f0357600080fd5b62001f0e8362001967565b946020939093013593505050565b634e487b7160e01b600052603260045260246000fd5b6020808252825182820181905260009190848201906040850190845b8181101562001f755783516001600160a01b03168352928401929184019160010162001f4e565b50909695505050505050565b60006020828403121562001f9457600080fd5b5051919050565b60005b8381101562001fb857818101518382015260200162001f9e565b50506000910152565b6000825162001fd581846020870162001f9b565b9190910192915050565b6000600182016200200057634e487b7160e01b600052601160045260246000fd5b5060010190565b600081518084526200202181602086016020860162001f9b565b601f01601f19169290920160200192915050565b6001600160a01b038316815260406020820181905260009062000cb19083018462002007565b600083516200206f81846020880162001f9b565b8351908301906200208581836020880162001f9b565b01949350505050565b60018060a01b038151168252600060208201516040602085015262000cb1604085018262002007565b606081526000620020cc606083018662002007565b6020838203818501528186518084528284019150828160051b85010183890160005b838110156200212057601f198784030185526200210d83835162002007565b94860194925090850190600101620020ee565b50508681036040880152875180825284820195509250600583901b81018401915083880160005b848110156200217957601f19838503018752620021668483516200208e565b9686019693509085019060010162002147565b50919a9950505050505050505050565b82815260406020820152600062000cb160408301846200208e565b600081518084526020808501945080840160005b83811015620021d657815187529582019590820190600101620021b8565b509495945050505050565b60006020808301818452808551808352604092508286019150828160051b87010184880160005b838110156200226d57888303603f19018552815180516001600160a01b031684528781015188850152868101511515878501526060908101516080918501829052906200225881860183620021a4565b96890196945050509086019060010162002208565b509098975050505050505050565b60608152600062002290606083018662002007565b8281036020840152620022a4818662002007565b905082810360408401526200086a8185620021a4565b600060208284031215620022cd57600080fd5b81516200038b8162001ab8565b606081526000620022ef606083018662002007565b6001600160a01b039490941660208301525060400152919050565b6001600160e01b0319861681526001600160a01b03858116602083015260a06040830181905260009190620023429084018762002007565b9416606083015250608001529392505050565b600181811c908216806200236a57607f821691505b6020821081036200238b57634e487b7160e01b600052602260045260246000fd5b50919050565b601f8211156200034457600081815260208120601f850160051c81016020861015620023ba5750805b601f850160051c820191505b8181101562000ba457828155600101620023c6565b81516001600160401b03811115620023f757620023f7620017d6565b6200240f8162002408845462002355565b8462002391565b602080601f8311600181146200244757600084156200242e5750858301515b600019600386901b1c1916600185901b17855562000ba4565b600085815260208120601f198616915b82811015620024785788860151825594840194600190910190840162002457565b5085821015620024975787850151600019600388901b60f8161c191681555b5050505050600190811b0190555056fe60806040526040516104ab3803806104ab833981016040819052610022916102de565b61002e82826000610035565b50506103fb565b61003e83610061565b60008251118061004b5750805b1561005c5761005a83836100a1565b505b505050565b61006a816100cd565b6040516001600160a01b038216907fbc7cd75a20ee27fd9adebab32041f755214dbc6bffa90cc0225b39da2e5c2d3b90600090a250565b60606100c6838360405180606001604052806027815260200161048460279139610180565b9392505050565b6001600160a01b0381163b61013f5760405162461bcd60e51b815260206004820152602d60248201527f455243313936373a206e657720696d706c656d656e746174696f6e206973206e60448201526c1bdd08184818dbdb9d1c9858dd609a1b60648201526084015b60405180910390fd5b7f360894a13ba1a3210667c828492db98dca3e2076cc3735a920a3ca505d382bbc80546001600160a01b0319166001600160a01b0392909216919091179055565b6060600080856001600160a01b03168560405161019d91906103ac565b600060405180830381855af49150503d80600081146101d8576040519150601f19603f3d011682016040523d82523d6000602084013e6101dd565b606091505b5090925090506101ef868383876101f9565b9695505050505050565b60608315610268578251600003610261576001600160a01b0385163b6102615760405162461bcd60e51b815260206004820152601d60248201527f416464726573733a2063616c6c20746f206e6f6e2d636f6e74726163740000006044820152606401610136565b5081610272565b610272838361027a565b949350505050565b81511561028a5781518083602001fd5b8060405162461bcd60e51b815260040161013691906103c8565b634e487b7160e01b600052604160045260246000fd5b60005b838110156102d55781810151838201526020016102bd565b50506000910152565b600080604083850312156102f157600080fd5b82516001600160a01b038116811461030857600080fd5b60208401519092506001600160401b038082111561032557600080fd5b818501915085601f83011261033957600080fd5b81518181111561034b5761034b6102a4565b604051601f8201601f19908116603f01168101908382118183101715610373576103736102a4565b8160405282815288602084870101111561038c57600080fd5b61039d8360208301602088016102ba565b80955050505050509250929050565b600082516103be8184602087016102ba565b9190910192915050565b60208152600082518060208401526103e78160408501602087016102ba565b601f01601f19169190910160400192915050565b607b806104096000396000f3fe608060405236601057600e6013565b005b600e5b601f601b6021565b6058565b565b600060537f360894a13ba1a3210667c828492db98dca3e2076cc3735a920a3ca505d382bbc546001600160a01b031690565b905090565b3660008037600080366000845af43d6000803e8080156076573d6000f35b3d6000fd416464726573733a206c6f772d6c6576656c2064656c65676174652063616c6c206661696c656460806040523480156200001157600080fd5b5060405162000ee938038062000ee983398101604081905262000034916200020b565b6200003f836200006c565b6200004b8585620000a3565b620000578282620000bd565b620000616200011f565b50505050506200048b565b620000778162000150565b620000a0427f33dd1f4e18af429fbe92ec80f143b1da7ad17f70cfbebac8f3f83ab5fc50fe5e55565b50565b620000ae826200017d565b620000b981620001ac565b5050565b7fdbd5af3db28136204db6a4cff1462f270d2d08a00327c8f96c7d68d8c530903f80546001600160a01b0319166001600160a01b0384161790557fdbd5af3db28136204db6a4cff1462f270d2d08a00327c8f96c7d68d8c53090408190555050565b6200014e7f2a273e5ed51fc6d1f408fd9427b72fcf1a8cb7ffc748ab4d54f3b8247736a201805460ff19169055565b565b7f33dd1f4e18af429fbe92ec80f143b1da7ad17f70cfbebac8f3f83ab5fc50fe5d620000b98282620003bf565b60008051602062000ec9833981519152805460e083901c600160a01b0263ffffffff60a01b1990911617905550565b60008051602062000ec983398151915280546001600160a01b0319166001600160a01b03831617905550565b80516001600160a01b0381168114620001f057600080fd5b919050565b634e487b7160e01b600052604160045260246000fd5b600080600080600060a086880312156200022457600080fd5b85516001600160e01b0319811681146200023d57600080fd5b945060206200024e878201620001d8565b60408801519095506001600160401b03808211156200026c57600080fd5b818901915089601f8301126200028157600080fd5b815181811115620002965762000296620001f5565b604051601f8201601f19908116603f01168101908382118183101715620002c157620002c1620001f5565b816040528281528c86848701011115620002da57600080fd5b600093505b82841015620002fe5784840186015181850187015292850192620002df565b60008684830101528098505050505050506200031d60608701620001d8565b9150608086015190509295509295909350565b600181811c908216806200034557607f821691505b6020821081036200036657634e487b7160e01b600052602260045260246000fd5b50919050565b601f821115620003ba57600081815260208120601f850160051c81016020861015620003955750805b601f850160051c820191505b81811015620003b657828155600101620003a1565b5050505b505050565b81516001600160401b03811115620003db57620003db620001f5565b620003f381620003ec845462000330565b846200036c565b602080601f8311600181146200042b5760008415620004125750858301515b600019600386901b1c1916600185901b178555620003b6565b600085815260208120601f198616915b828110156200045c578886015182559484019460019091019084016200043b565b50858210156200047b5787850151600019600388901b60f8161c191681555b5050505050600190811b01905550565b610a2e806200049b6000396000f3fe6080604052600436106100595760003560e01c80633f4ba83a1461006a5780635c975abb1461007f5780638456cb59146100a95780638da5cb5b146100be578063ac9650d8146100eb578063f2fde38b1461011857610060565b3661006057005b610068610138565b005b34801561007657600080fd5b50610068610190565b34801561008b57600080fd5b506100946101a2565b60405190151581526020015b60405180910390f35b3480156100b557600080fd5b506100686101b1565b3480156100ca57600080fd5b506100d36101c1565b6040516001600160a01b0390911681526020016100a0565b3480156100f757600080fd5b5061010b6101063660046107fe565b6101cb565b6040516100a09190610897565b34801561012457600080fd5b50610068610133366004610926565b6102e8565b60006101426102fc565b90506001600160a01b0381163b61016c576040516321f27f0d60e21b815260040160405180910390fd5b3660008037600080366000845af43d6000803e80801561018b573d6000f35b3d6000fd5b610198610422565b6101a0610461565b565b60006101ac6104a7565b905090565b6101b9610422565b6101a06104c2565b60006101ac610502565b6060818067ffffffffffffffff8111156101e7576101e761094a565b60405190808252806020026020018201604052801561021a57816020015b60608152602001906001900390816102055790505b50915060005b818110156102e0576000803087878581811061023e5761023e610960565b90506020028101906102509190610976565b60405161025e9291906109c4565b600060405180830381855af49150503d8060008114610299576040519150601f19603f3d011682016040523d82523d6000602084013e61029e565b606091505b509150915081156102cc57808584815181106102bc576102bc610960565b60200260200101819052506102d6565b3d6000803e3d6000fd5b5050600101610220565b505092915050565b6102f0610422565b6102f98161050c565b50565b6000806103317f9953d61155411d1e93774c9af7fbb3934a6ddecd97959b629253038bebab4a9c54600160a01b900460e01b90565b905060008061033e610565565b6040516001600160e01b03196000351660248201526001600160a01b039190911690849060440160408051601f198184030181529181526020820180516001600160e01b03166001600160e01b03199094169390931790925290516103a391906109d4565b600060405180830381855afa9150503d80600081146103de576040519150601f19603f3d011682016040523d82523d6000602084013e6103e3565b606091505b5091509150816104065760405163391aa44560e01b815260040160405180910390fd5b8080602001905181019061041a91906109f0565b935050505090565b61042a610598565b6001600160a01b0316336001600160a01b0316146101a05760405163851d062360e01b815233600482015260240160405180910390fd5b610469610662565b610471610692565b6040513381527f5db9ee0a495bf2e6ff9c91a7834c1ba4fdd244a5e8aa4e537bd38aeae4b073aa906020015b60405180910390a1565b60006101ac600080516020610a0e8339815191525460ff1690565b6104ca6106b5565b6104d26106e6565b6040513381527f62e78cea01bee320cd4e420270b5ea74000d11b0c9f74754ebdbfc544b05a2589060200161049d565b60006101ac610598565b6000610516610502565b9050610521826106fc565b816001600160a01b0316816001600160a01b03167f8be0079c531659141344cd1fd0a4f28419497f9722a3daafe3b4186f6b6457e060405160405180910390a35050565b60006101ac7f9953d61155411d1e93774c9af7fbb3934a6ddecd97959b629253038bebab4a9c546001600160a01b031690565b6040805180820182527fdbd5af3db28136204db6a4cff1462f270d2d08a00327c8f96c7d68d8c530903f546001600160a01b03168082527fdbd5af3db28136204db6a4cff1462f270d2d08a00327c8f96c7d68d8c530904054602080840182905284516331a9108f60e11b815260048101929092529351600094636352211e92602480820193918290030181865afa158015610638573d6000803e3d6000fd5b505050506040513d601f19601f8201168201806040525081019061065c91906109f0565b91505090565b600080516020610a0e8339815191525460ff166101a057604051632ca4452d60e11b815260040160405180910390fd5b6000600080516020610a0e8339815191525b805460ff1916911515919091179055565b600080516020610a0e8339815191525460ff16156101a0576040516302ca8ced60e11b815260040160405180910390fd5b6001600080516020610a0e8339815191526106a4565b6001600160a01b03811661072357604051630243ece960e31b815260040160405180910390fd5b604080518082019091527fdbd5af3db28136204db6a4cff1462f270d2d08a00327c8f96c7d68d8c530903f546001600160a01b03168082527fdbd5af3db28136204db6a4cff1462f270d2d08a00327c8f96c7d68d8c53090405460208301526323b872dd61078f610598565b60208401516040516001600160e01b031960e085901b1681526001600160a01b03928316600482015291861660248301526044820152606401600060405180830381600087803b1580156107e257600080fd5b505af11580156107f6573d6000803e3d6000fd5b505050505050565b6000806020838503121561081157600080fd5b823567ffffffffffffffff8082111561082957600080fd5b818501915085601f83011261083d57600080fd5b81358181111561084c57600080fd5b8660208260051b850101111561086157600080fd5b60209290920196919550909350505050565b60005b8381101561088e578181015183820152602001610876565b50506000910152565b6000602080830181845280855180835260408601915060408160051b870101925083870160005b8281101561090457878503603f19018452815180518087526108e5818989018a8501610873565b601f01601f1916959095018601945092850192908501906001016108be565b5092979650505050505050565b6001600160a01b03811681146102f957600080fd5b60006020828403121561093857600080fd5b813561094381610911565b9392505050565b634e487b7160e01b600052604160045260246000fd5b634e487b7160e01b600052603260045260246000fd5b6000808335601e1984360301811261098d57600080fd5b83018035915067ffffffffffffffff8211156109a857600080fd5b6020019150368190038213156109bd57600080fd5b9250929050565b8183823760009101908152919050565b600082516109e6818460208701610873565b9190910192915050565b600060208284031215610a0257600080fd5b81516109438161091156fe2a273e5ed51fc6d1f408fd9427b72fcf1a8cb7ffc748ab4d54f3b8247736a2019953d61155411d1e93774c9af7fbb3934a6ddecd97959b629253038bebab4a9cbfc17bfcd641c969809ea46cafa0234f34c2d733b95035a848e816b1fa9cd8b9bfc17bfcd641c969809ea46cafa0234f34c2d733b95035a848e816b1fa9cd8b5",
    "linkReferences": {}
  },
  "methodIdentifiers": {
    "computeTown(string)": "ac6eec37",
    "createTown((string,string,(string,string[]),((string,string[]),(address,uint256,bool,uint256[])[],address[]),(string,string)))": "344fe721",
    "gateByToken(address,uint256)": "5b560b67",
    "getTokenIdByTownId(string)": "9c7843c2",
    "getTownArchitectImplementations()": "18c7f066",
    "getTownById(string)": "11a8b382",
    "isTokenGated(address)": "1c05bbc7",
    "setTownArchitectImplementations(address,address,address)": "51ec4c1d",
    "ungateByToken(address)": "edddeb4d"
  },
  "id": 216
}