{"abi":[{"type":"function","name":"__TownArchitect_init","inputs":[{"name":"townOwner","type":"address","internalType":"address"},{"name":"userEntitlementImplementation","type":"address","internalType":"address"},{"name":"tokenEntitlementImplementation","type":"address","internalType":"address"}],"outputs":[],"stateMutability":"nonpayable"},{"type":"function","name":"computeTown","inputs":[{"name":"townId","type":"string","internalType":"string"},{"name":"membership","type":"tuple","internalType":"struct ITownArchitectBase.Membership","components":[{"name":"settings","type":"tuple","internalType":"struct IMembershipBase.MembershipInfo","components":[{"name":"name","type":"string","internalType":"string"},{"name":"symbol","type":"string","internalType":"string"},{"name":"price","type":"uint256","internalType":"uint256"},{"name":"maxSupply","type":"uint256","internalType":"uint256"},{"name":"duration","type":"uint64","internalType":"uint64"},{"name":"currency","type":"address","internalType":"address"},{"name":"feeRecipient","type":"address","internalType":"address"},{"name":"freeAllocation","type":"uint256","internalType":"uint256"},{"name":"pricingModule","type":"address","internalType":"address"}]},{"name":"requirements","type":"tuple","internalType":"struct ITownArchitectBase.MembershipRequirements","components":[{"name":"everyone","type":"bool","internalType":"bool"},{"name":"tokens","type":"tuple[]","internalType":"struct ITokenEntitlement.ExternalToken[]","components":[{"name":"contractAddress","type":"address","internalType":"address"},{"name":"quantity","type":"uint256","internalType":"uint256"},{"name":"isSingleToken","type":"bool","internalType":"bool"},{"name":"tokenIds","type":"uint256[]","internalType":"uint256[]"}]},{"name":"users","type":"address[]","internalType":"address[]"},{"name":"rule","type":"address","internalType":"contract IEntitlementRule"}]},{"name":"permissions","type":"string[]","internalType":"string[]"}]}],"outputs":[{"name":"","type":"address","internalType":"address"}],"stateMutability":"view"},{"type":"function","name":"createTown","inputs":[{"name":"townInfo","type":"tuple","internalType":"struct ITownArchitectBase.TownInfo","components":[{"name":"id","type":"string","internalType":"string"},{"name":"name","type":"string","internalType":"string"},{"name":"uri","type":"string","internalType":"string"},{"name":"membership","type":"tuple","internalType":"struct ITownArchitectBase.Membership","components":[{"name":"settings","type":"tuple","internalType":"struct IMembershipBase.MembershipInfo","components":[{"name":"name","type":"string","internalType":"string"},{"name":"symbol","type":"string","internalType":"string"},{"name":"price","type":"uint256","internalType":"uint256"},{"name":"maxSupply","type":"uint256","internalType":"uint256"},{"name":"duration","type":"uint64","internalType":"uint64"},{"name":"currency","type":"address","internalType":"address"},{"name":"feeRecipient","type":"address","internalType":"address"},{"name":"freeAllocation","type":"uint256","internalType":"uint256"},{"name":"pricingModule","type":"address","internalType":"address"}]},{"name":"requirements","type":"tuple","internalType":"struct ITownArchitectBase.MembershipRequirements","components":[{"name":"everyone","type":"bool","internalType":"bool"},{"name":"tokens","type":"tuple[]","internalType":"struct ITokenEntitlement.ExternalToken[]","components":[{"name":"contractAddress","type":"address","internalType":"address"},{"name":"quantity","type":"uint256","internalType":"uint256"},{"name":"isSingleToken","type":"bool","internalType":"bool"},{"name":"tokenIds","type":"uint256[]","internalType":"uint256[]"}]},{"name":"users","type":"address[]","internalType":"address[]"},{"name":"rule","type":"address","internalType":"contract IEntitlementRule"}]},{"name":"permissions","type":"string[]","internalType":"string[]"}]},{"name":"channel","type":"tuple","internalType":"struct ITownArchitectBase.ChannelInfo","components":[{"name":"id","type":"string","internalType":"string"},{"name":"metadata","type":"string","internalType":"string"}]}]}],"outputs":[{"name":"","type":"address","internalType":"address"}],"stateMutability":"nonpayable"},{"type":"function","name":"gateByToken","inputs":[{"name":"token","type":"address","internalType":"address"},{"name":"quantity","type":"uint256","internalType":"uint256"}],"outputs":[],"stateMutability":"nonpayable"},{"type":"function","name":"getTokenIdByTown","inputs":[{"name":"town","type":"address","internalType":"address"}],"outputs":[{"name":"","type":"uint256","internalType":"uint256"}],"stateMutability":"view"},{"type":"function","name":"getTokenIdByTownId","inputs":[{"name":"townId","type":"string","internalType":"string"}],"outputs":[{"name":"","type":"uint256","internalType":"uint256"}],"stateMutability":"view"},{"type":"function","name":"getTownArchitectImplementations","inputs":[],"outputs":[{"name":"townToken","type":"address","internalType":"address"},{"name":"userEntitlementImplementation","type":"address","internalType":"address"},{"name":"tokenEntitlementImplementation","type":"address","internalType":"address"}],"stateMutability":"view"},{"type":"function","name":"getTownById","inputs":[{"name":"townId","type":"string","internalType":"string"}],"outputs":[{"name":"","type":"address","internalType":"address"}],"stateMutability":"view"},{"type":"function","name":"isTokenGated","inputs":[{"name":"token","type":"address","internalType":"address"}],"outputs":[{"name":"","type":"bool","internalType":"bool"}],"stateMutability":"view"},{"type":"function","name":"isTown","inputs":[{"name":"town","type":"address","internalType":"address"}],"outputs":[{"name":"","type":"bool","internalType":"bool"}],"stateMutability":"view"},{"type":"function","name":"setTownArchitectImplementations","inputs":[{"name":"townToken","type":"address","internalType":"address"},{"name":"userEntitlementImplementation","type":"address","internalType":"address"},{"name":"tokenEntitlementImplementation","type":"address","internalType":"address"}],"outputs":[],"stateMutability":"nonpayable"},{"type":"function","name":"ungateByToken","inputs":[{"name":"token","type":"address","internalType":"address"}],"outputs":[],"stateMutability":"nonpayable"},{"type":"event","name":"Initialized","inputs":[{"name":"version","type":"uint32","indexed":false,"internalType":"uint32"}],"anonymous":false},{"type":"event","name":"InterfaceAdded","inputs":[{"name":"interfaceId","type":"bytes4","indexed":true,"internalType":"bytes4"}],"anonymous":false},{"type":"event","name":"InterfaceRemoved","inputs":[{"name":"interfaceId","type":"bytes4","indexed":true,"internalType":"bytes4"}],"anonymous":false},{"type":"event","name":"OwnershipTransferred","inputs":[{"name":"previousOwner","type":"address","indexed":true,"internalType":"address"},{"name":"newOwner","type":"address","indexed":true,"internalType":"address"}],"anonymous":false},{"type":"event","name":"Paused","inputs":[{"name":"account","type":"address","indexed":false,"internalType":"address"}],"anonymous":false},{"type":"event","name":"TownCreated","inputs":[{"name":"townCreator","type":"address","indexed":true,"internalType":"address"},{"name":"townId","type":"uint256","indexed":true,"internalType":"uint256"},{"name":"town","type":"address","indexed":false,"internalType":"address"}],"anonymous":false},{"type":"event","name":"Unpaused","inputs":[{"name":"account","type":"address","indexed":false,"internalType":"address"}],"anonymous":false},{"type":"error","name":"Factory__FailedDeployment","inputs":[]},{"type":"error","name":"GateFacetService__NotAllowed","inputs":[]},{"type":"error","name":"Initializable_InInitializingState","inputs":[]},{"type":"error","name":"Initializable_NotInInitializingState","inputs":[]},{"type":"error","name":"Introspection_AlreadySupported","inputs":[]},{"type":"error","name":"Introspection_NotSupported","inputs":[]},{"type":"error","name":"Ownable__NotOwner","inputs":[{"name":"account","type":"address","internalType":"address"}]},{"type":"error","name":"Ownable__ZeroAddress","inputs":[]},{"type":"error","name":"Pausable__NotPaused","inputs":[]},{"type":"error","name":"Pausable__Paused","inputs":[]},{"type":"error","name":"ReentrancyGuard__ReentrantCall","inputs":[]},{"type":"error","name":"TownArchitect__InvalidAddress","inputs":[]},{"type":"error","name":"TownArchitect__InvalidNetworkId","inputs":[]},{"type":"error","name":"TownArchitect__InvalidStringLength","inputs":[]},{"type":"error","name":"TownArchitect__NotContract","inputs":[]},{"type":"error","name":"Validator__InvalidAddress","inputs":[]},{"type":"error","name":"Validator__InvalidStringLength","inputs":[]}],"bytecode":{"object":"0x60806040523480156200001157600080fd5b506200001c62000022565b620000ca565b7f2d0d21306acfe8e9bb163a4573e95aff6cef95dc1102c6a16d5f19eac08cc4de8054640100000000900460ff16156200006f576040516366008a2d60e01b815260040160405180910390fd5b805463ffffffff9081161015620000c757805463ffffffff191663ffffffff90811782556040519081527fe9c9b456cb2994b80aeef036cf59d26e9617df80f816a6ee5a5b4166e07e2f5c9060200160405180910390a15b50565b614c1e80620000da6000396000f3fe60806040523480156200001157600080fd5b5060043610620000c35760003560e01c80637e68eed2116200007a5780637e68eed214620001af578063820f4a7114620001c65780639c7843c214620001dd578063ba51b80714620001f4578063edddeb4d146200020b578063f8c5908d146200022257600080fd5b806311a8b38214620000c857806318c7f06614620000fc5780631c05bbc7146200013157806340fb2169146200015957806351ec4c1d146200017f5780635b560b671462000198575b600080fd5b620000df620000d936600462001ecd565b62000239565b6040516001600160a01b0390911681526020015b60405180910390f35b620001066200024c565b604080516001600160a01b0394851681529284166020840152921691810191909152606001620000f3565b620001486200014236600462001f28565b620002c9565b6040519015158152602001620000f3565b620001706200016a36600462001f28565b620002d6565b604051908152602001620000f3565b620001966200019036600462001f48565b62000314565b005b62000196620001a936600462001f9a565b62000369565b620000df620001c036600462002465565b620003b8565b62000148620001d736600462001f28565b620003dc565b62000170620001ee36600462001ecd565b620003e9565b620000df6200020536600462002562565b620003f6565b620001966200021c36600462001f28565b620004f0565b620001966200023336600462001f48565b6200053d565b6000620002468262000588565b92915050565b6000806000620002be60008051602062004bde833981519152547fbfc17bfcd641c969809ea46cafa0234f34c2d733b95035a848e816b1fa9cd8bd547fbfc17bfcd641c969809ea46cafa0234f34c2d733b95035a848e816b1fa9cd8be546001600160a01b0392831693918316921690565b925092509250909192565b60006200024682620005ee565b6001600160a01b03811660009081527fbfc17bfcd641c969809ea46cafa0234f34c2d733b95035a848e816b1fa9cd8bb602052604081205462000246565b6200031e620005fb565b6001600160a01b0316336001600160a01b03161462000357576040516365f4906560e01b81523360048201526024015b60405180910390fd5b6200036483838362000629565b505050565b62000373620005fb565b6001600160a01b0316336001600160a01b031614620003a8576040516365f4906560e01b81523360048201526024016200034e565b620003b482826200072f565b5050565b600080620003c56200073b565b9050620003d4848285620007d4565b949350505050565b600062000246826200087e565b60006200024682620008c3565b600060027f50b052c8fb38984269a818b2b593d0584a81b1b99245abc0fab04abc7afb010f54036200043b57604051635db5c7cd60e11b815260040160405180910390fd5b6200046560027f50b052c8fb38984269a818b2b593d0584a81b1b99245abc0fab04abc7afb010f55565b7ff421ea548af7158b1d71ba0aeccf57104c067038bd8fd214edd05c09eb4f735b5460ff1615620004a9576040516302ca8ced60e11b815260040160405180910390fd5b620004b43362000920565b620004bf826200092b565b9050620004eb60017f50b052c8fb38984269a818b2b593d0584a81b1b99245abc0fab04abc7afb010f55565b919050565b620004fa620005fb565b6001600160a01b0316336001600160a01b0316146200052f576040516365f4906560e01b81523360048201526024016200034e565b6200053a8162000d7b565b50565b7f2d0d21306acfe8e9bb163a4573e95aff6cef95dc1102c6a16d5f19eac08cc4de54640100000000900460ff166200035757604051630ef4733760e31b815260040160405180910390fd5b60405160009060008051602062004bfe833981519152907fbfc17bfcd641c969809ea46cafa0234f34c2d733b95035a848e816b1fa9cd8b990620005ce90859062002698565b908152604051908190036020019020546001600160a01b03169392505050565b6000620002468262000d86565b7fa7c3be20e3a76821507555109752fad8a6630ef0362a34dcfcdfef83c99a2537546001600160a01b031690565b6001600160a01b0383163b6200065257604051638a83510f60e01b815260040160405180910390fd5b6001600160a01b0382163b6200067b57604051638a83510f60e01b815260040160405180910390fd5b6001600160a01b0381163b620006a457604051638a83510f60e01b815260040160405180910390fd5b60008051602062004bde83398151915280546001600160a01b039485166001600160a01b0319918216179091557fbfc17bfcd641c969809ea46cafa0234f34c2d733b95035a848e816b1fa9cd8bd8054938516938216939093179092557fbfc17bfcd641c969809ea46cafa0234f34c2d733b95035a848e816b1fa9cd8be8054919093169116179055565b620003b4828262000dd0565b60008051602062004bde8339815191525460408051631d5e528f60e21b8152905160009260008051602062004bfe833981519152926001600160a01b03909116916375794a3c916004808201926020929091908290030181865afa158015620007a8573d6000803e3d6000fd5b505050506040513d601f19601f82011682018060405250810190620007ce9190620026b6565b91505090565b60008051602062004bde8339815191525460009060008051602062004bfe8339815191529082908190620008159088906001600160a01b0316888862000f3d565b8151602080840191909120604080516001600160f81b0319818501526bffffffffffffffffffffffff193060601b16602182015260358101859052605580820193909352815180820390930183526075019052805191012091935091505b979650505050505050565b600060008051602062004bfe833981519152620008bc7fbfc17bfcd641c969809ea46cafa0234f34c2d733b95035a848e816b1fa9cd8b784620010d7565b9392505050565b60405160009060008051602062004bfe833981519152907fbfc17bfcd641c969809ea46cafa0234f34c2d733b95035a848e816b1fa9cd8ba906200090990859062002698565b908152602001604051809103902054915050919050565b6200053a81620010fa565b60006200093c826000015162001214565b815160008051602062004bfe833981519152906200095c90829062001239565b156200097b576040516339c4486560e01b815260040160405180910390fd5b600781015460408051631d5e528f60e21b815290516000926001600160a01b0316916375794a3c9160048083019260209291908290030181865afa158015620009c8573d6000803e3d6000fd5b505050506040513d601f19601f82011682018060405250810190620009ee9190620026b6565b905062000a05846000015182866060015162001247565b845190935062000a1790839062001298565b5062000a276002830184620012a6565b508082600501856000015160405162000a41919062002698565b9081526040519081900360200181209190915584518491600485019162000a689162002698565b908152604080516020928190038301812080546001600160a01b0319166001600160a01b03958616179055868416600090815260068701845282902085905560078601549288015191880151885162c4a50160e31b8352939094169363062528089362000adb93928990600401620026fe565b6020604051808303816000875af115801562000afb573d6000803e3d6000fd5b505050506040513d601f19601f8201168201806040525081019062000b219190620026b6565b50600062000b4c60008051602062004bfe833981519152600801546001600160a01b031685620012bd565b9050600062000b7860008051602062004bfe833981519152600901546001600160a01b031686620012bd565b6040805160028082526060820183529293506000929091602083019080368337019050509050828160008151811062000bb55762000bb562002757565b60200260200101906001600160a01b031690816001600160a01b031681525050818160018151811062000bec5762000bec62002757565b6001600160a01b039283166020918202929092010152604051638bfc820f60e01b815290871690638bfc820f9062000c299084906004016200276d565b600060405180830381600087803b15801562000c4457600080fd5b505af115801562000c59573d6000803e3d6000fd5b5050505062000c738684848a606001516020015162001372565b50606087015180515160409091015160009162000c949189918691620017ac565b905062000ca787828a6080015162001984565b60078601546001600160a01b03166342842e0e30336040516001600160e01b031960e085901b1681526001600160a01b0392831660048201529116602482015260448101889052606401600060405180830381600087803b15801562000d0c57600080fd5b505af115801562000d21573d6000803e3d6000fd5b505050508462000d2e3390565b6040516001600160a01b038a8116825291909116907f3a9b63f709203f3b6dabc8d90e98bff22696c86fc5608f54453424cabab529859060200160405180910390a3505050505050919050565b6200053a8162001a3a565b600060008051602062004bbe83398151915262000da48184620010d7565b8015620008bc57506001600160a01b038316600090815260028201602052604090205415159392505050565b6040516301ffc9a760e01b81526380ac58cd60e01b60048201526001600160a01b038316906301ffc9a790602401602060405180830381865afa15801562000e1c573d6000803e3d6000fd5b505050506040513d601f19601f8201168201806040525081019062000e429190620027bc565b15801562000ebf57506040516301ffc9a760e01b81526336372b0760e01b60048201526001600160a01b038316906301ffc9a790602401602060405180830381865afa15801562000e97573d6000803e3d6000fd5b505050506040513d601f19601f8201168201806040525081019062000ebd9190620027bc565b155b1562000ede57604051634125cb7960e11b815260040160405180910390fd5b8060000362000f0057604051634125cb7960e11b815260040160405180910390fd5b60008051602062004bbe83398151915262000f1c8184620012a6565b506001600160a01b0390921660009081526002909201602052604090912055565b6060600085858560405160200162000f5893929190620027dc565b6040516020818303038152906040528051906020012090506040518060200162000f829062001d57565b818103601f199081018352601f9091011660a0818101604090815263dc9cc64560e01b606080850191825230608080870191909152918552825180840184526001600160a01b038c8116825260208083018d9052808801929092528451610120810186528b515181528b51830151928101929092528a51850151828601528a518301519282019290925289518301516001600160401b0316928101929092528851840151811693820193909352875160c0908101519285019391929083019116156200105457875160c0015162001056565b335b6001600160a01b03168152602001876000015160e001518152602001876000015161010001516001600160a01b03168152508152506040516020016200109d91906200280c565b60408051601f1981840301815290829052620010bd92916020016200291e565b604051602081830303815290604052915094509492505050565b6001600160a01b03811660009081526001830160205260408120541515620008bc565b60008051602062004bbe8339815191526000620011178262001a76565b9050801560005b82811015620011ee57600062001135858362001a81565b6001600160a01b03811660009081526002870160205260409020549091508015801590620011d157506040516370a0823160e01b81526001600160a01b0388811660048301528291908416906370a0823190602401602060405180830381865afa158015620011a8573d6000803e3d6000fd5b505050506040513d601f19601f82011682018060405250810190620011ce9190620026b6565b10155b15620011e357600193505050620011ee565b50506001016200111e565b50806200120e57604051634125cb7960e11b815260040160405180910390fd5b50505050565b80518190600003620003b4576040516374eb20a760e01b815260040160405180910390fd5b6000620008bc838362001a8f565b60008051602062004bde8339815191525460009060008051602062004bfe8339815191529082908190620012889088906001600160a01b0316888862000f3d565b9150915062000873828262001abe565b6000620008bc838362001af9565b6000620008bc836001600160a01b03841662001b64565b60008060405180602001620012d29062001d65565b601f1982820381018352601f9091011660408190526001600160a01b0385166024820152859060440160408051601f19818403018152918152602080830180516001600160e01b031663189acdbd60e31b1790529051620013369392910162002951565b60408051601f19818403018152908290526200135692916020016200291e565b6040516020818303038152906040529050620003d48162001bad565b604080516001808252818301909252600091829190816020015b60608152602001906001900390816200138c579050509050604051806040016040528060088152602001672537b4b72a37bbb760c11b81525081600081518110620013db57620013db62002757565b6020026020010181905250856001600160a01b0316638fcd793d6040518060400160405280600681526020016526b4b73a32b960d11b8152508360006001600160401b0381111562001431576200143162001d73565b6040519080825280602002602001820160405280156200147957816020015b604080518082019091526000815260606020820152815260200190600190039081620014505790505b506040518463ffffffff1660e01b81526004016200149a93929190620029a0565b6020604051808303816000875af1158015620014ba573d6000803e3d6000fd5b505050506040513d601f19601f82011682018060405250810190620014e09190620026b6565b835190925015620015ef576040805160018082528183019092526000916020808301908036833701905050905060018160008151811062001525576200152562002757565b60200260200101906001600160a01b031690816001600160a01b031681525050866001600160a01b031663ba201ba88460405180604001604052808a6001600160a01b03168152602001856040516020016200158291906200276d565b6040516020818303038152906040528152506040518363ffffffff1660e01b8152600401620015b392919062002a72565b600060405180830381600087803b158015620015ce57600080fd5b505af1158015620015e3573d6000803e3d6000fd5b505050505050620003d4565b60408301515115620016e85760005b8360400151518110156200164057620016378460400151828151811062001629576200162962002757565b602002602001015162001be7565b600101620015fe565b50856001600160a01b031663ba201ba8836040518060400160405280896001600160a01b0316815260200187604001516040516020016200168291906200276d565b6040516020818303038152906040528152506040518363ffffffff1660e01b8152600401620016b392919062002a72565b600060405180830381600087803b158015620016ce57600080fd5b505af1158015620016e3573d6000803e3d6000fd5b505050505b826020015151600003620016fd5750620003d4565b856001600160a01b031663ba201ba8836040518060400160405280886001600160a01b0316815260200187602001516040516020016200173e919062002acb565b6040516020818303038152906040528152506040518363ffffffff1660e01b81526004016200176f92919062002a72565b600060405180830381600087803b1580156200178a57600080fd5b505af11580156200179f573d6000803e3d6000fd5b5050505050949350505050565b604080516001808252818301909252600091829190816020015b6040805160808101825260008082526020808301829052928201526060808201528252600019909201910181620017c6575050604080516080810182526001600160a01b038916815260016020808301919091526000828401819052835181815291820190935260608201528251929350918391906200184a576200184a62002757565b6020908102919091010152604080516001808252818301909252600091816020015b6040805180820190915260008152606060208201528152602001906001900390816200186c5790505090508581600081518110620018ae57620018ae62002757565b6020908102919091018101516001600160a01b03909216909152604051620018d99184910162002acb565b60405160208183030381529060405281600081518110620018fe57620018fe62002757565b6020908102919091018101510152604051638fcd793d60e01b81526001600160a01b03881690638fcd793d906200193e90889088908690600401620029a0565b6020604051808303816000875af11580156200195e573d6000803e3d6000fd5b505050506040513d601f19601f82011682018060405250810190620008739190620026b6565b604080516001808252818301909252600091602080830190803683370190505090508281600081518110620019bd57620019bd62002757565b6020908102919091018101919091528251908301516040516328fc1e7560e11b81526001600160a01b038716926351f83cea9262001a0092869060040162002b67565b600060405180830381600087803b15801562001a1b57600080fd5b505af115801562001a30573d6000803e3d6000fd5b5050505050505050565b60008051602062004bbe83398151915262001a56818362001c0f565b506001600160a01b03909116600090815260029091016020526040812055565b600062000246825490565b6000620008bc838362001c26565b6000826001018260405162001aa5919062002698565b9081526040519081900360200190205415159392505050565b60008260200183518381836000f59250506001600160a01b0382169050620002465760405163ef35ca1960e01b815260040160405180910390fd5b600062001b07838362001a8f565b62001b5b5782546001810184556000848152602090200162001b2a838262002c40565b508254604051600185019062001b4290859062002698565b9081526040519081900360200190205550600162000246565b50600062000246565b600081815260018301602052604081205462001b5b5750815460018181018455600084815260208082209093018490558454848252828601909352604090209190915562000246565b600081602001825180826000f09250506001600160a01b0382169050620004eb5760405163ef35ca1960e01b815260040160405180910390fd5b6001600160a01b0381166200053a576040516302e47d1560e41b815260040160405180910390fd5b6000620008bc836001600160a01b03841662001c53565b600082600001828154811062001c405762001c4062002757565b9060005260206000200154905092915050565b6000818152600183016020526040812054801562001d4c57600062001c7a60018362002d0c565b855490915060009062001c909060019062002d0c565b905081811462001cfc57600086600001828154811062001cb45762001cb462002757565b906000526020600020015490508087600001848154811062001cda5762001cda62002757565b6000918252602080832090910192909255918252600188019052604090208390555b855486908062001d105762001d1062002d2e565b60019003818190600052602060002001600090559055856001016000868152602001908152602001600020600090556001935050505062000246565b600091505062000246565b6119ce8062002d4583390190565b6104ab806200471383390190565b634e487b7160e01b600052604160045260246000fd5b604051608081016001600160401b038111828210171562001dae5762001dae62001d73565b60405290565b604051606081016001600160401b038111828210171562001dae5762001dae62001d73565b60405161012081016001600160401b038111828210171562001dae5762001dae62001d73565b60405160a081016001600160401b038111828210171562001dae5762001dae62001d73565b604051601f8201601f191681016001600160401b038111828210171562001e4f5762001e4f62001d73565b604052919050565b600082601f83011262001e6957600080fd5b81356001600160401b0381111562001e855762001e8562001d73565b62001e9a601f8201601f191660200162001e24565b81815284602083860101111562001eb057600080fd5b816020850160208301376000918101602001919091529392505050565b60006020828403121562001ee057600080fd5b81356001600160401b0381111562001ef757600080fd5b620003d48482850162001e57565b6001600160a01b03811681146200053a57600080fd5b8035620004eb8162001f05565b60006020828403121562001f3b57600080fd5b8135620008bc8162001f05565b60008060006060848603121562001f5e57600080fd5b833562001f6b8162001f05565b9250602084013562001f7d8162001f05565b9150604084013562001f8f8162001f05565b809150509250925092565b6000806040838503121562001fae57600080fd5b823562001fbb8162001f05565b946020939093013593505050565b80356001600160401b0381168114620004eb57600080fd5b80151581146200053a57600080fd5b60006001600160401b038211156200200c576200200c62001d73565b5060051b60200190565b600082601f8301126200202857600080fd5b81356020620020416200203b8362001ff0565b62001e24565b8083825260208201915060208460051b8701019350868411156200206457600080fd5b602086015b848110156200208d5780356200207f8162001f05565b835291830191830162002069565b509695505050505050565b600060808284031215620020ab57600080fd5b620020b562001d89565b90508135620020c48162001fe1565b81526020828101356001600160401b0380821115620020e257600080fd5b818501915085601f830112620020f757600080fd5b8135620021086200203b8262001ff0565b81815260059190911b830184019084810190888311156200212857600080fd5b8585015b838110156200222b578035858111156200214557600080fd5b86016080818c03601f190112156200215c57600080fd5b6200216662001d89565b88820135620021758162001f05565b81526040828101358a8301526060830135620021918162001fe1565b82820152608083013588811115620021a95760008081fd5b8084019350508c603f840112620021c05760008081fd5b89830135620021d36200203b8262001ff0565b81815260059190911b84018201908b8101908f831115620021f45760008081fd5b948301945b82861015620022145785358252948c0194908c0190620021f9565b60608501525050508452509186019186016200212c565b50808688015250505060408501359250808311156200224957600080fd5b5050620022598482850162002016565b6040830152506200226d6060830162001f1b565b606082015292915050565b600082601f8301126200228a57600080fd5b813560206200229d6200203b8362001ff0565b82815260059290921b84018101918181019086841115620022bd57600080fd5b8286015b848110156200208d5780356001600160401b03811115620022e25760008081fd5b620022f28986838b010162001e57565b845250918301918301620022c1565b6000606082840312156200231457600080fd5b6200231e62001db4565b905081356001600160401b03808211156200233857600080fd5b9083019061012082860312156200234e57600080fd5b6200235862001dd9565b8235828111156200236857600080fd5b620023768782860162001e57565b8252506020830135828111156200238c57600080fd5b6200239a8782860162001e57565b6020830152506040830135604082015260608301356060820152620023c26080840162001fc9565b6080820152620023d560a0840162001f1b565b60a0820152620023e860c0840162001f1b565b60c082015260e083013560e08201526101006200240781850162001f1b565b90820152835260208401359150808211156200242257600080fd5b620024308583860162002098565b602084015260408401359150808211156200244a57600080fd5b50620024598482850162002278565b60408301525092915050565b600080604083850312156200247957600080fd5b82356001600160401b03808211156200249157600080fd5b6200249f8683870162001e57565b93506020850135915080821115620024b657600080fd5b50620024c58582860162002301565b9150509250929050565b600060408284031215620024e257600080fd5b604051604081016001600160401b03828210818311171562002508576200250862001d73565b8160405282935084359150808211156200252157600080fd5b6200252f8683870162001e57565b835260208501359150808211156200254657600080fd5b50620025558582860162001e57565b6020830152505092915050565b6000602082840312156200257557600080fd5b81356001600160401b03808211156200258d57600080fd5b9083019060a08286031215620025a257600080fd5b620025ac62001dff565b823582811115620025bc57600080fd5b620025ca8782860162001e57565b825250602083013582811115620025e057600080fd5b620025ee8782860162001e57565b6020830152506040830135828111156200260757600080fd5b620026158782860162001e57565b6040830152506060830135828111156200262e57600080fd5b6200263c8782860162002301565b6060830152506080830135828111156200265557600080fd5b6200266387828601620024cf565b60808301525095945050505050565b60005b838110156200268f57818101518382015260200162002675565b50506000910152565b60008251620026ac81846020870162002672565b9190910192915050565b600060208284031215620026c957600080fd5b5051919050565b60008151808452620026ea81602086016020860162002672565b601f01601f19169290920160200192915050565b608081526000620027136080830187620026d0565b8281036020840152620027278187620026d0565b905082810360408401526200273d8186620026d0565b91505060018060a01b038316606083015295945050505050565b634e487b7160e01b600052603260045260246000fd5b6020808252825182820181905260009190848201906040850190845b81811015620027b05783516001600160a01b03168352928401929184019160010162002789565b50909695505050505050565b600060208284031215620027cf57600080fd5b8151620008bc8162001fe1565b606081526000620027f16060830186620026d0565b6001600160a01b039490941660208301525060400152919050565b6020808252825180516001600160e01b031916838301528101516001600160a01b03908116604080850191909152848301518051909216606085015290820151608084015283015160a080840152805161012060c085018190526000939291906200287c6101e0870183620026d0565b9383015186850360bf190160e08801529391506200289b8285620026d0565b935060408301519150610100828188015260608401518288015260808401519250620028d36101408801846001600160401b03169052565b60a08401516001600160a01b0390811661016089015260c0850151811661018089015260e08501516101a08901529301519283166101c087015250620029169050565b509392505050565b600083516200293281846020880162002672565b8351908301906200294881836020880162002672565b01949350505050565b6001600160a01b0383168152604060208201819052600090620003d490830184620026d0565b60018060a01b0381511682526000602082015160406020850152620003d46040850182620026d0565b606081526000620029b56060830186620026d0565b6020838203818501528186518084528284019150828160051b85010183890160005b8381101562002a0957601f19878403018552620029f6838351620026d0565b94860194925090850190600101620029d7565b50508681036040880152875180825284820195509250600583901b81018401915083880160005b8481101562002a6257601f1983850301875262002a4f84835162002977565b9686019693509085019060010162002a30565b50919a9950505050505050505050565b828152604060208201526000620003d4604083018462002977565b60008151808452602080850194506020840160005b8381101562002ac05781518752958201959082019060010162002aa2565b509495945050505050565b600060208083018184528085518083526040925060408601915060408160051b87010184880160005b8381101562002b5957888303603f19018552815180516001600160a01b0316845287810151888501528681015115158785015260609081015160809185018290529062002b448186018362002a8d565b96890196945050509086019060010162002af4565b509098975050505050505050565b60608152600062002b7c6060830186620026d0565b828103602084015262002b908186620026d0565b9050828103604084015262002ba6818562002a8d565b9695505050505050565b600181811c9082168062002bc557607f821691505b60208210810362002be657634e487b7160e01b600052602260045260246000fd5b50919050565b601f82111562000364576000816000526020600020601f850160051c8101602086101562002c175750805b601f850160051c820191505b8181101562002c385782815560010162002c23565b505050505050565b81516001600160401b0381111562002c5c5762002c5c62001d73565b62002c748162002c6d845462002bb0565b8462002bec565b602080601f83116001811462002cac576000841562002c935750858301515b600019600386901b1c1916600185901b17855562002c38565b600085815260208120601f198616915b8281101562002cdd5788860151825594840194600190910190840162002cbc565b508582101562002cfc5787850151600019600388901b60f8161c191681555b5050505050600190811b01905550565b818103818111156200024657634e487b7160e01b600052601160045260246000fd5b634e487b7160e01b600052603160045260246000fdfe60806040523480156200001157600080fd5b50604051620019ce380380620019ce833981016040819052620000349162000a17565b6200003e6200015e565b8051620000a79080517f8554b9df6321355bca4334cacaab69e5fcc1f4562dedc2e1f459ba5fa38bf21c80546020909301516001600160a01b03166001600160a01b031960e09390931c600160a01b02929092166001600160c01b031990931692909217179055565b60208181015180519101517f9bd0e1a7aef81c47cff971a2fee48406b20f55522326b2e2616c49c24aa506d080546001600160a01b0319166001600160a01b03909316929092179091557f9bd0e1a7aef81c47cff971a2fee48406b20f55522326b2e2616c49c24aa506d155604081015180516020909101516200012c919062000172565b6040810151815160200151620001439190620001da565b6200014d6200032b565b620001576200033a565b5062000cb5565b620001706301ffc9a760e01b6200038f565b565b7f234d8962d7c9a6a6604d7f98797e6ad6d7a886804f7409feb26422e27bf812547f234d8962d7c9a6a6604d7f98797e6ad6d7a886804f7409feb26422e27bf81256620001c0848262000b86565b5060038101620001d1838262000b86565b50600190555050565b600080516020620019ae83398151915280546001600160a01b0319166001600160a01b03831617905560808201516000805160206200198e8339815191529062000224906200044d565b60c0830151620002349062000501565b60e0830151620002449062000529565b6101008301516200025590620005db565b6060830151600382015560a08301516001600160a01b0316156200027e578260a0015162000294565b73eeeeeeeeeeeeeeeeeeeeeeeeeeeeeeeeeeeeeeee5b6004820180546001600160a01b03199081166001600160a01b0393841617909155604085015160028401556080850151600684018054600160a01b600160e01b031916600160a01b6001600160401b039093169290920291909117905560c0850151600584018054831691841691909117905560e08501516007840155610100909401516008909201805490941691161790915550565b62000170607b6103e86200067d565b6200034c6380ac58cd60e01b6200038f565b6200035e635b5e139f60e01b6200038f565b62000370638c65f84d60e01b6200038f565b620003826307f5828d60e41b6200038f565b6200017063695d5db560e11b5b6001600160e01b0319811660009081526000805160206200196e833981519152602052604090205460ff161515600114620003fc576001600160e01b0319811660009081526000805160206200196e83398151915260205260409020805460ff1916600117905562000415565b604051637967f77d60e11b815260040160405180910390fd5b6040516001600160e01b03198216907f78f84e5b1c5c05be2b5ad3800781dd404d6d6c6302bc755c0fe20f58a33a7f2290600090a250565b600080516020620019ae833981519152546001600160a01b03166001600160a01b0316638120f0ba6040518163ffffffff1660e01b8152600401602060405180830381865afa158015620004a5573d6000803e3d6000fd5b505050506040513d601f19601f82011682018060405250810190620004cb919062000c52565b6001600160401b0316816001600160401b03161115620004fe576040516341191e9760e11b815260040160405180910390fd5b50565b6001600160a01b038116620004fe57604051631492df6160e21b815260040160405180910390fd5b600080516020620019ae8339815191525460408051632cbb9d1360e01b815290516000805160206200198e833981519152926001600160a01b031691632cbb9d139160048083019260209291908290030181865afa15801562000590573d6000803e3d6000fd5b505050506040513d601f19601f82011682018060405250810190620005b6919062000c77565b821115620005d75760405163c3983b9160e01b815260040160405180910390fd5b5050565b6001600160a01b038116620005ed5750565b6040516301ffc9a760e01b8152635cf4ee9160e01b60048201526001600160a01b038216906301ffc9a790602401602060405180830381865afa15801562000639573d6000803e3d6000fd5b505050506040513d601f19601f820116820180604052508101906200065f919062000c91565b620004fe57604051630e88bf4b60e01b815260040160405180910390fd5b816000036200069f576040516306c1cb6d60e51b815260040160405180910390fd5b6127108161ffff161115620006c757604051634e7ee09d60e11b815260040160405180910390fd5b60008281527fe51b25fea73f50a2b3aac2a4ae8549fcc692472b6c9df7ca78c0d969dad9e841602081905260409091205461ffff1680156200071c576040516306c1cb6d60e51b815260040160405180910390fd5b60008481526020838152604091829020805461ffff191661ffff8716908117909155915191825285917f674ed3e313f9254fbafb8a51fa62be8b5f0a767d64c64cfe6f099c80c779a528910160405180910390a250505050565b634e487b7160e01b600052604160045260246000fd5b604080519081016001600160401b0381118282101715620007b157620007b162000776565b60405290565b60405161012081016001600160401b0381118282101715620007b157620007b162000776565b604051606081016001600160401b0381118282101715620007b157620007b162000776565b604051601f8201601f191681016001600160401b03811182821017156200082d576200082d62000776565b604052919050565b80516001600160a01b03811681146200084d57600080fd5b919050565b6000604082840312156200086557600080fd5b6200086f6200078c565b90506200087c8262000835565b81526020820151602082015292915050565b600082601f830112620008a057600080fd5b81516001600160401b03811115620008bc57620008bc62000776565b6020620008d2601f8301601f1916820162000802565b8281528582848701011115620008e757600080fd5b60005b8381101562000907578581018301518282018401528201620008ea565b506000928101909101919091529392505050565b80516001600160401b03811681146200084d57600080fd5b600061012082840312156200094757600080fd5b62000951620007b7565b82519091506001600160401b03808211156200096c57600080fd5b6200097a858386016200088e565b835260208401519150808211156200099157600080fd5b50620009a0848285016200088e565b6020830152506040820151604082015260608201516060820152620009c8608083016200091b565b6080820152620009db60a0830162000835565b60a0820152620009ee60c0830162000835565b60c082015260e082015160e082015261010062000a0d81840162000835565b9082015292915050565b60006020828403121562000a2a57600080fd5b81516001600160401b038082111562000a4257600080fd5b9083019081850360a081121562000a5857600080fd5b62000a62620007dd565b604082121562000a7157600080fd5b62000a7b6200078c565b84519092506001600160e01b03198116811462000a9757600080fd5b825262000aa76020850162000835565b602083015281815262000abe876040860162000852565b6020820152608084015191508282111562000ad857600080fd5b62000ae68783860162000933565b60408201529695505050505050565b600181811c9082168062000b0a57607f821691505b60208210810362000b2b57634e487b7160e01b600052602260045260246000fd5b50919050565b601f82111562000b81576000816000526020600020601f850160051c8101602086101562000b5c5750805b601f850160051c820191505b8181101562000b7d5782815560010162000b68565b5050505b505050565b81516001600160401b0381111562000ba25762000ba262000776565b62000bba8162000bb3845462000af5565b8462000b31565b602080601f83116001811462000bf2576000841562000bd95750858301515b600019600386901b1c1916600185901b17855562000b7d565b600085815260208120601f198616915b8281101562000c235788860151825594840194600190910190840162000c02565b508582101562000c425787850151600019600388901b60f8161c191681555b5050505050600190811b01905550565b60006020828403121562000c6557600080fd5b62000c70826200091b565b9392505050565b60006020828403121562000c8a57600080fd5b5051919050565b60006020828403121562000ca457600080fd5b8151801515811462000c7057600080fd5b610ca98062000cc56000396000f3fe6080604052600436106100e15760003560e01c806373fc5a051161007f578063ac9650d811610059578063ac9650d814610378578063b3a5be6d146103a5578063b8307376146103ba578063f9d5d22c14610416576100e8565b806373fc5a05146102c85780638934207f14610307578063ac7ee6261461033b576100e8565b80635b312fce116100bb5780635b312fce1461019657806362452006146101d357806369d9346b1461022f578063702515631461028b576100e8565b80630c3a01b1146100f25780631d214b4d146101125780633ded10de14610168576100e8565b366100e857005b6100f0610436565b005b3480156100fe57600080fd5b506100f061010d366004610a65565b61048e565b34801561011e57600080fd5b507f9b35df16c33a6c0e085c9ebd55fb367f81c58c2ed7e9bed98cc622f3308a6012546001600160a01b03165b6040516001600160a01b0390911681526020015b60405180910390f35b34801561017457600080fd5b50610188610183366004610a65565b610570565b60405190815260200161015f565b3480156101a257600080fd5b507f9b35df16c33a6c0e085c9ebd55fb367f81c58c2ed7e9bed98cc622f3308a6013546001600160a01b031661014b565b3480156101df57600080fd5b506100f06101ee366004610a96565b7f9b35df16c33a6c0e085c9ebd55fb367f81c58c2ed7e9bed98cc622f3308a601280546001600160a01b0319166001600160a01b0392909216919091179055565b34801561023b57600080fd5b506100f061024a366004610a96565b7f9b35df16c33a6c0e085c9ebd55fb367f81c58c2ed7e9bed98cc622f3308a601580546001600160a01b0319166001600160a01b0392909216919091179055565b34801561029757600080fd5b507f9b35df16c33a6c0e085c9ebd55fb367f81c58c2ed7e9bed98cc622f3308a6011546001600160a01b031661014b565b3480156102d457600080fd5b506100f06102e3366004610a65565b7f9b35df16c33a6c0e085c9ebd55fb367f81c58c2ed7e9bed98cc622f3308a601055565b34801561031357600080fd5b507f9b35df16c33a6c0e085c9ebd55fb367f81c58c2ed7e9bed98cc622f3308a601054610188565b34801561034757600080fd5b507f9b35df16c33a6c0e085c9ebd55fb367f81c58c2ed7e9bed98cc622f3308a6015546001600160a01b031661014b565b34801561038457600080fd5b50610398610393366004610aba565b6106ca565b60405161015f9190610b53565b3480156103b157600080fd5b506101886107e7565b3480156103c657600080fd5b506100f06103d5366004610a96565b7f9b35df16c33a6c0e085c9ebd55fb367f81c58c2ed7e9bed98cc622f3308a601180546001600160a01b0319166001600160a01b0392909216919091179055565b34801561042257600080fd5b506100f0610431366004610a65565b6108aa565b600061044061091f565b90506001600160a01b0381163b61046a576040516321f27f0d60e21b815260040160405180910390fd5b3660008037600080366000845af43d6000803e808015610489573d6000f35b3d6000fd5b60006104c17f9b35df16c33a6c0e085c9ebd55fb367f81c58c2ed7e9bed98cc622f3308a6013546001600160a01b031690565b90506000816001600160a01b0316630eac306d6040518163ffffffff1660e01b8152600401602060405180830381865afa158015610503573d6000803e3d6000fd5b505050506040513d601f19601f820116820180604052508101906105279190610bcd565b90508083101561054a57604051631a23d64760e11b815260040160405180910390fd5b50507f9b35df16c33a6c0e085c9ebd55fb367f81c58c2ed7e9bed98cc622f3308a600f55565b60007f9b35df16c33a6c0e085c9ebd55fb367f81c58c2ed7e9bed98cc622f3308a600d8161059c6107e7565b9050838111156105b0575060009392505050565b6006820154604051639262b1b360e01b815230600482015285916001600160a01b031690639262b1b390602401602060405180830381865afa1580156105fa573d6000803e3d6000fd5b505050506040513d601f19601f8201168201806040525081019061061e9190610bcd565b111561062e575060009392505050565b60088201546001600160a01b0316156106bf576008820154604051635cf4ee9160e01b815260048101839052602481018690526001600160a01b0390911690635cf4ee9190604401602060405180830381865afa158015610693573d6000803e3d6000fd5b505050506040513d601f19601f820116820180604052508101906106b79190610bcd565b949350505050565b506002015492915050565b6060818067ffffffffffffffff8111156106e6576106e6610be6565b60405190808252806020026020018201604052801561071957816020015b60608152602001906001900390816107045790505b50915060005b818110156107df576000803087878581811061073d5761073d610bfc565b905060200281019061074f9190610c12565b60405161075d929190610c60565b600060405180830381855af49150503d8060008114610798576040519150601f19603f3d011682016040523d82523d6000602084013e61079d565b606091505b509150915081156107cb57808584815181106107bb576107bb610bfc565b60200260200101819052506107d5565b3d6000803e3d6000fd5b505060010161071f565b505092915050565b7f9b35df16c33a6c0e085c9ebd55fb367f81c58c2ed7e9bed98cc622f3308a601454600090801561081757919050565b7f9b35df16c33a6c0e085c9ebd55fb367f81c58c2ed7e9bed98cc622f3308a60135460408051632cbb9d1360e01b815290516001600160a01b0390921691632cbb9d13916004808201926020929091908290030181865afa158015610880573d6000803e3d6000fd5b505050506040513d601f19601f820116820180604052508101906108a49190610bcd565b91505090565b7f9b35df16c33a6c0e085c9ebd55fb367f81c58c2ed7e9bed98cc622f3308a60148190556040517f9b35df16c33a6c0e085c9ebd55fb367f81c58c2ed7e9bed98cc622f3308a600d9082907fab14a23e88fb272313490d4f20d63098e64fd38304c0e07a377db98c2b39b92f90600090a25050565b7f8554b9df6321355bca4334cacaab69e5fcc1f4562dedc2e1f459ba5fa38bf21c54600090600160a01b900460e01b81806109817f8554b9df6321355bca4334cacaab69e5fcc1f4562dedc2e1f459ba5fa38bf21c546001600160a01b031690565b6040516001600160e01b03196000351660248201526001600160a01b039190911690849060440160408051601f198184030181529181526020820180516001600160e01b03166001600160e01b03199094169390931790925290516109e69190610c70565b600060405180830381855afa9150503d8060008114610a21576040519150601f19603f3d011682016040523d82523d6000602084013e610a26565b606091505b509150915081610a495760405163391aa44560e01b815260040160405180910390fd5b80806020019051810190610a5d9190610c8c565b935050505090565b600060208284031215610a7757600080fd5b5035919050565b6001600160a01b0381168114610a9357600080fd5b50565b600060208284031215610aa857600080fd5b8135610ab381610a7e565b9392505050565b60008060208385031215610acd57600080fd5b823567ffffffffffffffff80821115610ae557600080fd5b818501915085601f830112610af957600080fd5b813581811115610b0857600080fd5b8660208260051b8501011115610b1d57600080fd5b60209290920196919550909350505050565b60005b83811015610b4a578181015183820152602001610b32565b50506000910152565b6000602080830181845280855180835260408601915060408160051b870101925083870160005b82811015610bc057878503603f1901845281518051808752610ba1818989018a8501610b2f565b601f01601f191695909501860194509285019290850190600101610b7a565b5092979650505050505050565b600060208284031215610bdf57600080fd5b5051919050565b634e487b7160e01b600052604160045260246000fd5b634e487b7160e01b600052603260045260246000fd5b6000808335601e19843603018112610c2957600080fd5b83018035915067ffffffffffffffff821115610c4457600080fd5b602001915036819003821315610c5957600080fd5b9250929050565b8183823760009101908152919050565b60008251610c82818460208701610b2f565b9190910192915050565b600060208284031215610c9e57600080fd5b8151610ab381610a7e56bc7de460bcfb6afd0c415c8c610d408bd914b18d7d0feec0da9e25348087a5c49b35df16c33a6c0e085c9ebd55fb367f81c58c2ed7e9bed98cc622f3308a600d9b35df16c33a6c0e085c9ebd55fb367f81c58c2ed7e9bed98cc622f3308a601360806040526040516104ab3803806104ab833981016040819052610022916102de565b61002e82826000610035565b50506103fb565b61003e83610061565b60008251118061004b5750805b1561005c5761005a83836100a1565b505b505050565b61006a816100cd565b6040516001600160a01b038216907fbc7cd75a20ee27fd9adebab32041f755214dbc6bffa90cc0225b39da2e5c2d3b90600090a250565b60606100c6838360405180606001604052806027815260200161048460279139610180565b9392505050565b6001600160a01b0381163b61013f5760405162461bcd60e51b815260206004820152602d60248201527f455243313936373a206e657720696d706c656d656e746174696f6e206973206e60448201526c1bdd08184818dbdb9d1c9858dd609a1b60648201526084015b60405180910390fd5b7f360894a13ba1a3210667c828492db98dca3e2076cc3735a920a3ca505d382bbc80546001600160a01b0319166001600160a01b0392909216919091179055565b6060600080856001600160a01b03168560405161019d91906103ac565b600060405180830381855af49150503d80600081146101d8576040519150601f19603f3d011682016040523d82523d6000602084013e6101dd565b606091505b5090925090506101ef868383876101f9565b9695505050505050565b60608315610268578251600003610261576001600160a01b0385163b6102615760405162461bcd60e51b815260206004820152601d60248201527f416464726573733a2063616c6c20746f206e6f6e2d636f6e74726163740000006044820152606401610136565b5081610272565b610272838361027a565b949350505050565b81511561028a5781518083602001fd5b8060405162461bcd60e51b815260040161013691906103c8565b634e487b7160e01b600052604160045260246000fd5b60005b838110156102d55781810151838201526020016102bd565b50506000910152565b600080604083850312156102f157600080fd5b82516001600160a01b038116811461030857600080fd5b60208401519092506001600160401b038082111561032557600080fd5b818501915085601f83011261033957600080fd5b81518181111561034b5761034b6102a4565b604051601f8201601f19908116603f01168101908382118183101715610373576103736102a4565b8160405282815288602084870101111561038c57600080fd5b61039d8360208301602088016102ba565b80955050505050509250929050565b600082516103be8184602087016102ba565b9190910192915050565b60208152600082518060208401526103e78160408501602087016102ba565b601f01601f19169190910160400192915050565b607b806104096000396000f3fe608060405236601057600e6013565b005b600e5b601f601b6021565b6058565b565b600060537f360894a13ba1a3210667c828492db98dca3e2076cc3735a920a3ca505d382bbc546001600160a01b031690565b905090565b3660008037600080366000845af43d6000803e8080156076573d6000f35b3d6000fd416464726573733a206c6f772d6c6576656c2064656c65676174652063616c6c206661696c65640021838b43e034e5a0d20f42ce9ca05b74b34cf419ae1034249310df3263674dbfc17bfcd641c969809ea46cafa0234f34c2d733b95035a848e816b1fa9cd8bcbfc17bfcd641c969809ea46cafa0234f34c2d733b95035a848e816b1fa9cd8b5","linkReferences":{}},"methodIdentifiers":{"__TownArchitect_init(address,address,address)":"f8c5908d","computeTown(string,((string,string,uint256,uint256,uint64,address,address,uint256,address),(bool,(address,uint256,bool,uint256[])[],address[],address),string[]))":"7e68eed2","createTown((string,string,string,((string,string,uint256,uint256,uint64,address,address,uint256,address),(bool,(address,uint256,bool,uint256[])[],address[],address),string[]),(string,string)))":"ba51b807","gateByToken(address,uint256)":"5b560b67","getTokenIdByTown(address)":"40fb2169","getTokenIdByTownId(string)":"9c7843c2","getTownArchitectImplementations()":"18c7f066","getTownById(string)":"11a8b382","isTokenGated(address)":"1c05bbc7","isTown(address)":"820f4a71","setTownArchitectImplementations(address,address,address)":"51ec4c1d","ungateByToken(address)":"edddeb4d"},"id":149}