{"abi":[{"type":"constructor","inputs":[],"stateMutability":"nonpayable"},{"type":"function","name":"TOWN_ADDRESS","inputs":[],"outputs":[{"name":"","type":"address","internalType":"address"}],"stateMutability":"view"},{"type":"function","name":"description","inputs":[],"outputs":[{"name":"","type":"string","internalType":"string"}],"stateMutability":"view"},{"type":"function","name":"getEntitlementDataByRoleId","inputs":[{"name":"roleId","type":"uint256","internalType":"uint256"}],"outputs":[{"name":"","type":"bytes[]","internalType":"bytes[]"}],"stateMutability":"view"},{"type":"function","name":"initialize","inputs":[{"name":"_space","type":"address","internalType":"address"}],"outputs":[],"stateMutability":"nonpayable"},{"type":"function","name":"isEntitled","inputs":[{"name":"channelId","type":"string","internalType":"string"},{"name":"user","type":"address","internalType":"address"},{"name":"permission","type":"bytes32","internalType":"bytes32"}],"outputs":[{"name":"","type":"bool","internalType":"bool"}],"stateMutability":"view"},{"type":"function","name":"moduleType","inputs":[],"outputs":[{"name":"","type":"string","internalType":"string"}],"stateMutability":"view"},{"type":"function","name":"name","inputs":[],"outputs":[{"name":"","type":"string","internalType":"string"}],"stateMutability":"view"},{"type":"function","name":"proxiableUUID","inputs":[],"outputs":[{"name":"","type":"bytes32","internalType":"bytes32"}],"stateMutability":"view"},{"type":"function","name":"removeEntitlement","inputs":[{"name":"roleId","type":"uint256","internalType":"uint256"},{"name":"entitlementData","type":"bytes","internalType":"bytes"}],"outputs":[{"name":"entitlementId","type":"bytes32","internalType":"bytes32"}],"stateMutability":"nonpayable"},{"type":"function","name":"setEntitlement","inputs":[{"name":"roleId","type":"uint256","internalType":"uint256"},{"name":"entitlementData","type":"bytes","internalType":"bytes"}],"outputs":[{"name":"entitlementId","type":"bytes32","internalType":"bytes32"}],"stateMutability":"nonpayable"},{"type":"function","name":"supportsInterface","inputs":[{"name":"interfaceId","type":"bytes4","internalType":"bytes4"}],"outputs":[{"name":"","type":"bool","internalType":"bool"}],"stateMutability":"view"},{"type":"function","name":"upgradeTo","inputs":[{"name":"newImplementation","type":"address","internalType":"address"}],"outputs":[],"stateMutability":"nonpayable"},{"type":"function","name":"upgradeToAndCall","inputs":[{"name":"newImplementation","type":"address","internalType":"address"},{"name":"data","type":"bytes","internalType":"bytes"}],"outputs":[],"stateMutability":"payable"},{"type":"event","name":"AdminChanged","inputs":[{"name":"previousAdmin","type":"address","indexed":false,"internalType":"address"},{"name":"newAdmin","type":"address","indexed":false,"internalType":"address"}],"anonymous":false},{"type":"event","name":"BeaconUpgraded","inputs":[{"name":"beacon","type":"address","indexed":true,"internalType":"address"}],"anonymous":false},{"type":"event","name":"Initialized","inputs":[{"name":"version","type":"uint8","indexed":false,"internalType":"uint8"}],"anonymous":false},{"type":"event","name":"Upgraded","inputs":[{"name":"implementation","type":"address","indexed":true,"internalType":"address"}],"anonymous":false},{"type":"error","name":"Entitlement__InvalidValue","inputs":[]},{"type":"error","name":"Entitlement__NotAllowed","inputs":[]},{"type":"error","name":"Entitlement__NotMember","inputs":[]},{"type":"error","name":"Entitlement__ValueAlreadyExists","inputs":[]}],"bytecode":{"object":"0x60a06040523060805234801561001457600080fd5b5061001d610022565b6100e2565b600054610100900460ff161561008e5760405162461bcd60e51b815260206004820152602760248201527f496e697469616c697a61626c653a20636f6e747261637420697320696e697469604482015266616c697a696e6760c81b606482015260840160405180910390fd5b60005460ff90811610156100e0576000805460ff191660ff9081179091556040519081527f7f26b83ff96e1f2b6a682f133852f6798a09c465da95921460cefb38474024989060200160405180910390a15b565b6080516120ba6200011a60003960008181610462015281816104ab0152818161054a0152818161058a015261061d01526120ba6000f3fe6080604052600436106100c15760003560e01c806352d1902d1161007f578063c4d66de811610059578063c4d66de814610265578063cc786b3614610285578063ef8be574146102bd578063fa6d1adf146102dd57600080fd5b806352d1902d146101c65780636465e69f146101e95780637284e4161461022457600080fd5b8062b4eaa8146100c657806301ffc9a7146100fb57806306fdde031461011b5780631eee07b2146101645780633659cfe6146101915780634f1ef286146101b3575b600080fd5b3480156100d257600080fd5b506100e66100e136600461188f565b6102fd565b60405190151581526020015b60405180910390f35b34801561010757600080fd5b506100e66101163660046118ea565b61032a565b34801561012757600080fd5b506101576040518060400160405280601081526020016f155cd95c88115b9d1a5d1b195b595b9d60821b81525081565b6040516100f29190611964565b34801561017057600080fd5b5061018461017f366004611977565b610361565b6040516100f29190611990565b34801561019d57600080fd5b506101b16101ac3660046119f4565b610458565b005b6101b16101c1366004611aa4565b610540565b3480156101d257600080fd5b506101db610610565b6040519081526020016100f2565b3480156101f557600080fd5b506101576040518060400160405280600f81526020016e155cd95c915b9d1a5d1b195b595b9d608a1b81525081565b34801561023057600080fd5b5061015760405180604001604052806015815260200174456e7469746c656d656e7420666f7220757365727360581b81525081565b34801561027157600080fd5b506101b16102803660046119f4565b6106c3565b34801561029157600080fd5b5060c9546102a5906001600160a01b031681565b6040516001600160a01b0390911681526020016100f2565b3480156102c957600080fd5b506101db6102d8366004611b34565b6107ff565b3480156102e957600080fd5b506101db6102f8366004611b34565b6109cc565b600083156103185761031185858585610bcd565b9050610322565b6103118383610d29565b949350505050565b60006001600160e01b0319821663df76a3d360e01b148061035b57506301ffc9a760e01b6001600160e01b03198316145b92915050565b600081815260cb602052604081206060919061037c90610db1565b80519091506000816001600160401b0381111561039b5761039b611a0f565b6040519080825280602002602001820160405280156103ce57816020015b60608152602001906001900390816103b95790505b50905060005b8281101561044f5760ca60008583815181106103f2576103f2611b7f565b6020026020010151815260200190815260200160002060030160405160200161041b9190611b95565b60405160208183030381529060405282828151811061043c5761043c611b7f565b60209081029190910101526001016103d4565b50949350505050565b6001600160a01b037f00000000000000000000000000000000000000000000000000000000000000001630036104a95760405162461bcd60e51b81526004016104a090611be5565b60405180910390fd5b7f00000000000000000000000000000000000000000000000000000000000000006001600160a01b03166104f2600080516020612073833981519152546001600160a01b031690565b6001600160a01b0316146105185760405162461bcd60e51b81526004016104a090611c31565b61052181610dc5565b6040805160008082526020820190925261053d91839190610df9565b50565b6001600160a01b037f00000000000000000000000000000000000000000000000000000000000000001630036105885760405162461bcd60e51b81526004016104a090611be5565b7f00000000000000000000000000000000000000000000000000000000000000006001600160a01b03166105d1600080516020612073833981519152546001600160a01b031690565b6001600160a01b0316146105f75760405162461bcd60e51b81526004016104a090611c31565b61060082610dc5565b61060c82826001610df9565b5050565b6000306001600160a01b037f000000000000000000000000000000000000000000000000000000000000000016146106b05760405162461bcd60e51b815260206004820152603860248201527f555550535570677261646561626c653a206d757374206e6f742062652063616c60448201527f6c6564207468726f7567682064656c656761746563616c6c000000000000000060648201526084016104a0565b5060008051602061207383398151915290565b600054610100900460ff16158080156106e35750600054600160ff909116105b806106fd5750303b1580156106fd575060005460ff166001145b6107605760405162461bcd60e51b815260206004820152602e60248201527f496e697469616c697a61626c653a20636f6e747261637420697320616c72656160448201526d191e481a5b9a5d1a585b1a5e995960921b60648201526084016104a0565b6000805460ff191660011790558015610783576000805461ff0019166101001790555b61078b610f69565b610793610f69565b61079b610f69565b60c980546001600160a01b0319166001600160a01b038416179055801561060c576000805461ff0019169055604051600181527f7f26b83ff96e1f2b6a682f133852f6798a09c465da95921460cefb38474024989060200160405180910390a15050565b60c9546000906001600160a01b0316336001600160a01b03161461083657604051630ce39a4b60e21b815260040160405180910390fd5b83838360405160200161084b93929190611c7d565b60408051601f1981840301815291905280516020909101209050600061087383850185611cba565b90508051600003610897576040516372bbc80f60e11b815260040160405180910390fd5b60005b81518110156109205760008282815181106108b7576108b7611b7f565b6020026020010151905060006001600160a01b0316816001600160a01b0316036108f4576040516372bbc80f60e11b815260040160405180910390fd5b6001600160a01b038116600090815260cc602052604090206109169085610fd6565b505060010161089a565b5060405180608001604052808681526020016109393390565b6001600160a01b039081168252426020808401919091526040928301859052600086815260ca825283902084518155848201516001820180546001600160a01b03191691909416179092559183015160028201556060830151805191926109a892600385019290910190611797565b505050600085815260cb602052604090206109c39083610fd6565b50509392505050565b60c9546000906001600160a01b0316336001600160a01b031614610a0357604051630ce39a4b60e21b815260040160405180910390fd5b838383604051602001610a1893929190611c7d565b60408051601f198184030181528282528051602091820120600081815260ca83528381206080860185528054865260018101546001600160a01b0316868501526002810154868601526003810180548651818702810187019097528087529397509195949093606086019391929190830182828015610ac057602002820191906000526020600020905b81546001600160a01b03168152600190910190602001808311610aa2575b505050505081525050905080606001515160001480610ade57508051155b15610afc576040516372bbc80f60e11b815260040160405180910390fd5b8051600090815260cb60205260409020610b169083610fe2565b5060005b816060015151811015610b8a57600082606001518281518110610b3f57610b3f611b7f565b60200260200101519050610b808460cc6000846001600160a01b03166001600160a01b03168152602001908152602001600020610fe290919063ffffffff16565b5050600101610b1a565b50600082815260ca602052604081208181556001810180546001600160a01b03191690556002810182905590610bc360038301826117fc565b5050509392505050565b60c954604051637cd7ee3d60e01b815260009182916001600160a01b0390911690637cd7ee3d90610c049089908990600401611d51565b600060405180830381865afa158015610c21573d6000803e3d6000fd5b505050506040513d6000823e601f3d908101601f19168201604052610c499190810190611e2f565b90506000610c576001610fee565b90506000610c6486610fee565b90506000610c72838361118d565b905060005b846060015151811015610d1c57600085606001518281518110610c9c57610c9c611b7f565b6020026020010151905060005b8351811015610d125781848281518110610cc557610cc5611b7f565b602002602001015160000151148015610d005750610d00848281518110610cee57610cee611b7f565b6020026020010151600001518a6112d2565b15610d0a57600197505b600101610ca9565b5050600101610c77565b5050505050949350505050565b600080610d366001610fee565b90506000610d4385610fee565b90506000610d51838361118d565b805190915060005b81811015610da357610d88838281518110610d7657610d76611b7f565b602002602001015160000151886112d2565b15610d9b5760019550505050505061035b565b600101610d59565b506000979650505050505050565b60606000610dbe836113c0565b9392505050565b60c9546001600160a01b0316336001600160a01b03161461053d57604051630ce39a4b60e21b815260040160405180910390fd5b7f4910fdfa16fed3260ed0e7147f7cc6da11a60208b5b9406d12a635614ffd91435460ff1615610e3157610e2c8361141c565b505050565b826001600160a01b03166352d1902d6040518163ffffffff1660e01b8152600401602060405180830381865afa925050508015610e8b575060408051601f3d908101601f19168201909252610e8891810190611efb565b60015b610eee5760405162461bcd60e51b815260206004820152602e60248201527f45524331393637557067726164653a206e657720696d706c656d656e7461746960448201526d6f6e206973206e6f74205555505360901b60648201526084016104a0565b6000805160206120738339815191528114610f5d5760405162461bcd60e51b815260206004820152602960248201527f45524331393637557067726164653a20756e737570706f727465642070726f786044820152681a58589b195555525160ba1b60648201526084016104a0565b50610e2c8383836114b8565b600054610100900460ff16610fd45760405162461bcd60e51b815260206004820152602b60248201527f496e697469616c697a61626c653a20636f6e7472616374206973206e6f74206960448201526a6e697469616c697a696e6760a81b60648201526084016104a0565b565b6000610dbe83836114e3565b6000610dbe8383611532565b6001600160a01b038116600090815260cc602052604081206060919061101390610db1565b8051909150806001600160401b0381111561103057611030611a0f565b60405190808252806020026020018201604052801561109557816020015b61108260405180608001604052806000815260200160006001600160a01b0316815260200160008152602001606081525090565b81526020019060019003908161104e5790505b50925060005b818110156111855760ca60008483815181106110b9576110b9611b7f565b602090810291909101810151825281810192909252604090810160002081516080810183528154815260018201546001600160a01b03168185015260028201548184015260038201805484518187028101870190955280855291949293606086019390929083018282801561115757602002820191906000526020600020905b81546001600160a01b03168152600190910190602001808311611139575b50505050508152505084828151811061117257611172611b7f565b602090810291909101015260010161109b565b505050919050565b606060008251845161119f9190611f2a565b6001600160401b038111156111b6576111b6611a0f565b60405190808252806020026020018201604052801561121b57816020015b61120860405180608001604052806000815260200160006001600160a01b0316815260200160008152602001606081525090565b8152602001906001900390816111d45790505b50905060005b84518110156112695784818151811061123c5761123c611b7f565b602002602001015182828151811061125657611256611b7f565b6020908102919091010152600101611221565b60005b84518110156112c857848161128081611f3d565b92508151811061129257611292611b7f565b60200260200101518383806112a690611f3d565b9450815181106112b8576112b8611b7f565b602002602001018190525061126c565b5090949350505050565b60c95460405163b426423360e01b81526004810184905260009182916001600160a01b039091169063b426423390602401600060405180830381865afa158015611320573d6000803e3d6000fd5b505050506040513d6000823e601f3d908101601f191682016040526113489190810190611f56565b805190915060005b818110156113b4578483828151811061136b5761136b611b7f565b60200260200101516040516020016113839190612006565b60405160208183030381529060405261139b90612022565b036113ac576001935050505061035b565b600101611350565b50600095945050505050565b60608160000180548060200260200160405190810160405280929190818152602001828054801561141057602002820191906000526020600020905b8154815260200190600101908083116113fc575b50505050509050919050565b6001600160a01b0381163b6114895760405162461bcd60e51b815260206004820152602d60248201527f455243313936373a206e657720696d706c656d656e746174696f6e206973206e60448201526c1bdd08184818dbdb9d1c9858dd609a1b60648201526084016104a0565b60008051602061207383398151915280546001600160a01b0319166001600160a01b0392909216919091179055565b6114c183611625565b6000825111806114ce5750805b15610e2c576114dd8383611665565b50505050565b600081815260018301602052604081205461152a5750815460018181018455600084815260208082209093018490558454848252828601909352604090209190915561035b565b50600061035b565b6000818152600183016020526040812054801561161b576000611556600183612049565b855490915060009061156a90600190612049565b90508181146115cf57600086600001828154811061158a5761158a611b7f565b90600052602060002001549050808760000184815481106115ad576115ad611b7f565b6000918252602080832090910192909255918252600188019052604090208390555b85548690806115e0576115e061205c565b60019003818190600052602060002001600090559055856001016000868152602001908152602001600020600090556001935050505061035b565b600091505061035b565b61162e8161141c565b6040516001600160a01b038216907fbc7cd75a20ee27fd9adebab32041f755214dbc6bffa90cc0225b39da2e5c2d3b90600090a250565b60606001600160a01b0383163b6116cd5760405162461bcd60e51b815260206004820152602660248201527f416464726573733a2064656c65676174652063616c6c20746f206e6f6e2d636f6044820152651b9d1c9858dd60d21b60648201526084016104a0565b600080846001600160a01b0316846040516116e89190612006565b600060405180830381855af49150503d8060008114611723576040519150601f19603f3d011682016040523d82523d6000602084013e611728565b606091505b5091509150611750828260405180606001604052806027815260200161209360279139611759565b95945050505050565b60608315611768575081610dbe565b610dbe838381511561177d5781518083602001fd5b8060405162461bcd60e51b81526004016104a09190611964565b8280548282559060005260206000209081019282156117ec579160200282015b828111156117ec57825182546001600160a01b0319166001600160a01b039091161782556020909201916001909101906117b7565b506117f8929150611816565b5090565b508054600082559060005260206000209081019061053d91905b5b808211156117f85760008155600101611817565b60008083601f84011261183d57600080fd5b5081356001600160401b0381111561185457600080fd5b60208301915083602082850101111561186c57600080fd5b9250929050565b80356001600160a01b038116811461188a57600080fd5b919050565b600080600080606085870312156118a557600080fd5b84356001600160401b038111156118bb57600080fd5b6118c78782880161182b565b90955093506118da905060208601611873565b9396929550929360400135925050565b6000602082840312156118fc57600080fd5b81356001600160e01b031981168114610dbe57600080fd5b60005b8381101561192f578181015183820152602001611917565b50506000910152565b60008151808452611950816020860160208601611914565b601f01601f19169290920160200192915050565b602081526000610dbe6020830184611938565b60006020828403121561198957600080fd5b5035919050565b600060208083016020845280855180835260408601915060408160051b87010192506020870160005b828110156119e757603f198886030184526119d5858351611938565b945092850192908501906001016119b9565b5092979650505050505050565b600060208284031215611a0657600080fd5b610dbe82611873565b634e487b7160e01b600052604160045260246000fd5b604051608081016001600160401b0381118282101715611a4757611a47611a0f565b60405290565b604051601f8201601f191681016001600160401b0381118282101715611a7557611a75611a0f565b604052919050565b60006001600160401b03821115611a9657611a96611a0f565b50601f01601f191660200190565b60008060408385031215611ab757600080fd5b611ac083611873565b915060208301356001600160401b03811115611adb57600080fd5b8301601f81018513611aec57600080fd5b8035611aff611afa82611a7d565b611a4d565b818152866020838501011115611b1457600080fd5b816020840160208301376000602083830101528093505050509250929050565b600080600060408486031215611b4957600080fd5b8335925060208401356001600160401b03811115611b6657600080fd5b611b728682870161182b565b9497909650939450505050565b634e487b7160e01b600052603260045260246000fd5b6020808252825482820181905260008481528281209092916040850190845b81811015611bd95783546001600160a01b031683526001938401939285019201611bb4565b50909695505050505050565b6020808252602c908201527f46756e6374696f6e206d7573742062652063616c6c6564207468726f7567682060408201526b19195b1959d85d1958d85b1b60a21b606082015260800190565b6020808252602c908201527f46756e6374696f6e206d7573742062652063616c6c6564207468726f7567682060408201526b6163746976652070726f787960a01b606082015260800190565b838152818360208301376000910160200190815292915050565b60006001600160401b03821115611cb057611cb0611a0f565b5060051b60200190565b60006020808385031215611ccd57600080fd5b82356001600160401b03811115611ce357600080fd5b8301601f81018513611cf457600080fd5b8035611d02611afa82611c97565b81815260059190911b82018301908381019087831115611d2157600080fd5b928401925b82841015611d4657611d3784611873565b82529284019290840190611d26565b979650505050505050565b60208152816020820152818360408301376000818301604090810191909152601f909201601f19160101919050565b600082601f830112611d9157600080fd5b8151611d9f611afa82611a7d565b818152846020838601011115611db457600080fd5b610322826020830160208701611914565b600082601f830112611dd657600080fd5b81516020611de6611afa83611c97565b8083825260208201915060208460051b870101935086841115611e0857600080fd5b602086015b84811015611e245780518352918301918301611e0d565b509695505050505050565b600060208284031215611e4157600080fd5b81516001600160401b0380821115611e5857600080fd5b9083019060808286031215611e6c57600080fd5b611e74611a25565b825182811115611e8357600080fd5b611e8f87828601611d80565b82525060208301518015158114611ea557600080fd5b6020820152604083015182811115611ebc57600080fd5b611ec887828601611d80565b604083015250606083015182811115611ee057600080fd5b611eec87828601611dc5565b60608301525095945050505050565b600060208284031215611f0d57600080fd5b5051919050565b634e487b7160e01b600052601160045260246000fd5b8082018082111561035b5761035b611f14565b600060018201611f4f57611f4f611f14565b5060010190565b60006020808385031215611f6957600080fd5b82516001600160401b0380821115611f8057600080fd5b818501915085601f830112611f9457600080fd5b8151611fa2611afa82611c97565b81815260059190911b83018401908481019088831115611fc157600080fd5b8585015b83811015611ff957805185811115611fdd5760008081fd5b611feb8b89838a0101611d80565b845250918601918601611fc5565b5098975050505050505050565b60008251612018818460208701611914565b9190910192915050565b80516020808301519190811015612043576000198160200360031b1b821691505b50919050565b8181038181111561035b5761035b611f14565b634e487b7160e01b600052603160045260246000fdfe360894a13ba1a3210667c828492db98dca3e2076cc3735a920a3ca505d382bbc416464726573733a206c6f772d6c6576656c2064656c65676174652063616c6c206661696c6564","linkReferences":{}},"methodIdentifiers":{"TOWN_ADDRESS()":"cc786b36","description()":"7284e416","getEntitlementDataByRoleId(uint256)":"1eee07b2","initialize(address)":"c4d66de8","isEntitled(string,address,bytes32)":"00b4eaa8","moduleType()":"6465e69f","name()":"06fdde03","proxiableUUID()":"52d1902d","removeEntitlement(uint256,bytes)":"fa6d1adf","setEntitlement(uint256,bytes)":"ef8be574","supportsInterface(bytes4)":"01ffc9a7","upgradeTo(address)":"3659cfe6","upgradeToAndCall(address,bytes)":"4f1ef286"},"id":151}