{
  "abi": [
    {
      "inputs": [],
      "name": "Initializable_InInitializingState",
      "type": "error"
    },
    {
      "inputs": [],
      "name": "Initializable_NotInInitializingState",
      "type": "error"
    },
    {
      "inputs": [],
      "name": "Introspection_AlreadySupported",
      "type": "error"
    },
    {
      "inputs": [],
      "name": "Introspection_NotSupported",
      "type": "error"
    },
    {
      "inputs": [
        {
          "internalType": "address",
          "name": "wallet",
          "type": "address"
        },
        {
          "internalType": "address",
          "name": "rootKey",
          "type": "address"
        }
      ],
      "name": "LinkAlreadyExists",
      "type": "error"
    },
    {
      "anonymous": false,
      "inputs": [
        {
          "indexed": false,
          "internalType": "uint32",
          "name": "version",
          "type": "uint32"
        }
      ],
      "name": "Initialized",
      "type": "event"
    },
    {
      "anonymous": false,
      "inputs": [
        {
          "indexed": true,
          "internalType": "bytes4",
          "name": "interfaceId",
          "type": "bytes4"
        }
      ],
      "name": "InterfaceAdded",
      "type": "event"
    },
    {
      "anonymous": false,
      "inputs": [
        {
          "indexed": true,
          "internalType": "bytes4",
          "name": "interfaceId",
          "type": "bytes4"
        }
      ],
      "name": "InterfaceRemoved",
      "type": "event"
    },
    {
      "anonymous": false,
      "inputs": [
        {
          "indexed": false,
          "internalType": "address",
          "name": "wallet",
          "type": "address"
        },
        {
          "indexed": false,
          "internalType": "address",
          "name": "rootKey",
          "type": "address"
        }
      ],
      "name": "LinkWalletToRootKey",
      "type": "event"
    },
    {
      "anonymous": false,
      "inputs": [
        {
          "indexed": false,
          "internalType": "address",
          "name": "wallet",
          "type": "address"
        },
        {
          "indexed": false,
          "internalType": "address",
          "name": "rootKey",
          "type": "address"
        }
      ],
      "name": "RemoveLinkViaRootKey",
      "type": "event"
    },
    {
      "anonymous": false,
      "inputs": [
        {
          "indexed": false,
          "internalType": "address",
          "name": "wallet",
          "type": "address"
        },
        {
          "indexed": false,
          "internalType": "address",
          "name": "rootKey",
          "type": "address"
        }
      ],
      "name": "RemoveLinkViaWallet",
      "type": "event"
    },
    {
      "inputs": [],
      "name": "__WalletLink_init",
      "outputs": [],
      "stateMutability": "nonpayable",
      "type": "function"
    },
    {
      "inputs": [
        {
          "internalType": "address",
          "name": "rootKey",
          "type": "address"
        },
        {
          "internalType": "address",
          "name": "wallet",
          "type": "address"
        }
      ],
      "name": "checkIfLinked",
      "outputs": [
        {
          "internalType": "bool",
          "name": "",
          "type": "bool"
        }
      ],
      "stateMutability": "view",
      "type": "function"
    },
    {
      "inputs": [
        {
          "internalType": "address",
          "name": "rootKey",
          "type": "address"
        }
      ],
      "name": "getLatestNonceForRootKey",
      "outputs": [
        {
          "internalType": "uint256",
          "name": "",
          "type": "uint256"
        }
      ],
      "stateMutability": "view",
      "type": "function"
    },
    {
      "inputs": [
        {
          "internalType": "address",
          "name": "rootKey",
          "type": "address"
        }
      ],
      "name": "getLatestRemoveNonceForRootKey",
      "outputs": [
        {
          "internalType": "uint256",
          "name": "",
          "type": "uint256"
        }
      ],
      "stateMutability": "view",
      "type": "function"
    },
    {
      "inputs": [
        {
          "internalType": "address",
          "name": "wallet",
          "type": "address"
        }
      ],
      "name": "getLatestRemoveNonceForWallet",
      "outputs": [
        {
          "internalType": "uint256",
          "name": "",
          "type": "uint256"
        }
      ],
      "stateMutability": "view",
      "type": "function"
    },
    {
      "inputs": [
        {
          "internalType": "address",
          "name": "wallet",
          "type": "address"
        }
      ],
      "name": "getRootKeyForWallet",
      "outputs": [
        {
          "internalType": "address",
          "name": "rootKey",
          "type": "address"
        }
      ],
      "stateMutability": "view",
      "type": "function"
    },
    {
      "inputs": [
        {
          "internalType": "address",
          "name": "rootKey",
          "type": "address"
        }
      ],
      "name": "getWalletsByRootKey",
      "outputs": [
        {
          "internalType": "address[]",
          "name": "wallets",
          "type": "address[]"
        }
      ],
      "stateMutability": "view",
      "type": "function"
    },
    {
      "inputs": [
        {
          "internalType": "address",
          "name": "wallet",
          "type": "address"
        },
        {
          "internalType": "bytes",
          "name": "walletSignature",
          "type": "bytes"
        },
        {
          "internalType": "address",
          "name": "rootKey",
          "type": "address"
        },
        {
          "internalType": "bytes",
          "name": "rootKeySignature",
          "type": "bytes"
        },
        {
          "internalType": "uint256",
          "name": "nonce",
          "type": "uint256"
        }
      ],
      "name": "linkWalletToRootKey",
      "outputs": [],
      "stateMutability": "nonpayable",
      "type": "function"
    },
    {
      "inputs": [
        {
          "internalType": "bytes32",
          "name": "_ethSignedMessageHash",
          "type": "bytes32"
        },
        {
          "internalType": "bytes",
          "name": "_signature",
          "type": "bytes"
        }
      ],
      "name": "recoverSigner",
      "outputs": [
        {
          "internalType": "address",
          "name": "",
          "type": "address"
        }
      ],
      "stateMutability": "pure",
      "type": "function"
    },
    {
      "inputs": [
        {
          "internalType": "address",
          "name": "rootKey",
          "type": "address"
        },
        {
          "internalType": "bytes",
          "name": "rootKeySignature",
          "type": "bytes"
        },
        {
          "internalType": "address",
          "name": "wallet",
          "type": "address"
        },
        {
          "internalType": "uint256",
          "name": "removeNonce",
          "type": "uint256"
        }
      ],
      "name": "removeLinkViaRootKey",
      "outputs": [],
      "stateMutability": "nonpayable",
      "type": "function"
    },
    {
      "inputs": [
        {
          "internalType": "address",
          "name": "wallet",
          "type": "address"
        },
        {
          "internalType": "bytes",
          "name": "walletSignature",
          "type": "bytes"
        },
        {
          "internalType": "address",
          "name": "rootKey",
          "type": "address"
        },
        {
          "internalType": "uint256",
          "name": "removeNonce",
          "type": "uint256"
        }
      ],
      "name": "removeLinkViaWallet",
      "outputs": [],
      "stateMutability": "nonpayable",
      "type": "function"
    },
    {
      "inputs": [
        {
          "internalType": "bytes",
          "name": "sig",
          "type": "bytes"
        }
      ],
      "name": "splitSignature",
      "outputs": [
        {
          "internalType": "bytes32",
          "name": "r",
          "type": "bytes32"
        },
        {
          "internalType": "bytes32",
          "name": "s",
          "type": "bytes32"
        },
        {
          "internalType": "uint8",
          "name": "v",
          "type": "uint8"
        }
      ],
      "stateMutability": "pure",
      "type": "function"
    }
  ],
  "bytecode": {
    "object": "0x608060405234801561001057600080fd5b5061001961001e565b6100c4565b7f2d0d21306acfe8e9bb163a4573e95aff6cef95dc1102c6a16d5f19eac08cc4de8054640100000000900460ff161561006a576040516366008a2d60e01b815260040160405180910390fd5b805463ffffffff90811610156100c157805463ffffffff191663ffffffff90811782556040519081527fe9c9b456cb2994b80aeef036cf59d26e9617df80f816a6ee5a5b4166e07e2f5c9060200160405180910390a15b50565b611558806100d36000396000f3fe608060405234801561001057600080fd5b50600436106100b45760003560e01c8063912b975811610071578063912b97581461014657806397aba7f914610169578063a7bb580314610194578063d48458f8146101c5578063ee5752bc146101d8578063f8210398146101eb57600080fd5b806302345b98146100b95780630db16c8a146100e257806320a00ac8146100f7578063260a409d1461011857806362f189bd146101205780638bc43a7114610133575b600080fd5b6100cc6100c73660046110e2565b6101fe565b6040516100d991906110fd565b60405180910390f35b6100f56100f0366004611193565b61020f565b005b61010a6101053660046110e2565b610227565b6040519081526020016100d9565b6100f5610264565b6100f561012e366004611230565b6102c0565b6100f5610141366004611230565b6102d4565b61015961015436600461129d565b6102e1565b60405190151581526020016100d9565b61017c610177366004611373565b6102f4565b6040516001600160a01b0390911681526020016100d9565b6101a76101a23660046113ba565b610373565b60408051938452602084019290925260ff16908201526060016100d9565b61010a6101d33660046110e2565b6103ec565b61010a6101e63660046110e2565b610429565b61017c6101f93660046110e2565b610466565b6060610209826104a7565b92915050565b61021e8787878787878761052b565b50505050505050565b6001600160a01b03811660009081527f630d36d827dd2d1cf0d5118b0729bf3ba07959315de50567c8d0b01f7ec88e746020526040812054610209565b7f2d0d21306acfe8e9bb163a4573e95aff6cef95dc1102c6a16d5f19eac08cc4de54640100000000900460ff166102ae57604051630ef4733760e31b815260040160405180910390fd5b6102be634ae4884960e11b610586565b565b6102cd8585858585610664565b5050505050565b6102cd85858585856106bc565b60006102ed8383610709565b9392505050565b60008060008061030385610373565b6040805160008152602081018083528b905260ff8316918101919091526060810184905260808101839052929550909350915060019060a0016020604051602081039080840390855afa15801561035e573d6000803e3d6000fd5b5050604051601f190151979650505050505050565b600080600083516041146103ce5760405162461bcd60e51b815260206004820152601860248201527f696e76616c6964207369676e6174757265206c656e677468000000000000000060448201526064015b60405180910390fd5b50505060208101516040820151606090920151909260009190911a90565b6001600160a01b03811660009081527f630d36d827dd2d1cf0d5118b0729bf3ba07959315de50567c8d0b01f7ec88e766020526040812054610209565b6001600160a01b03811660009081527f630d36d827dd2d1cf0d5118b0729bf3ba07959315de50567c8d0b01f7ec88e756020526040812054610209565b6001600160a01b0380821660009081527f630d36d827dd2d1cf0d5118b0729bf3ba07959315de50567c8d0b01f7ec88e736020526040812054909116610209565b6001600160a01b0381166000908152600080516020611538833981519152602081815260409283902080548451818402810184019095528085526060949283018282801561051e57602002820191906000526020600020905b81546001600160a01b03168152600190910190602001808311610500575b5050505050915050919050565b61053a87878787878787610772565b604080516001600160a01b03808a168252861660208201527f64126824352170c4025060d1f6e215159635e4b08e649830695f26ef6d2b5721910160405180910390a150505050505050565b6001600160e01b0319811660009081527fbc7de460bcfb6afd0c415c8c610d408bd914b18d7d0feec0da9e25348087a5c4602052604090205460ff161515600114610613576001600160e01b0319811660009081527fbc7de460bcfb6afd0c415c8c610d408bd914b18d7d0feec0da9e25348087a5c460205260409020805460ff1916600117905561062c565b604051637967f77d60e11b815260040160405180910390fd5b6040516001600160e01b03198216907f78f84e5b1c5c05be2b5ad3800781dd404d6d6c6302bc755c0fe20f58a33a7f2290600090a250565b6106718585858585610a7b565b604080516001600160a01b038088168252841660208201527f97d1080066ca40b1c31422ce6cc29d77d1b2dba92eee009587fcf351b556ba2591015b60405180910390a15050505050565b6106c98585858585610d7d565b604080516001600160a01b038085168252871660208201527f65050554da593f4acb6a5d325b1eea7a353aaaf294fd92e4c464da529f339d1d91016106ad565b6001600160a01b0381811660009081527f630d36d827dd2d1cf0d5118b0729bf3ba07959315de50567c8d0b01f7ec88e736020526040812054909160008051602061153883398151915291858216911603610768576001915050610209565b5060009392505050565b6001600160a01b03841660009081527f630d36d827dd2d1cf0d5118b0729bf3ba07959315de50567c8d0b01f7ec88e7460205260409020546000805160206115388339815191529082116108085760405162461bcd60e51b815260206004820152601e60248201527f57616c6c65744c696e6b3a206e6f6e636520616c72656164792075736564000060448201526064016103c5565b6001600160a01b03808616600090815260028301602090815260408083208690558b841683526001850190915290205416156108905760405162461bcd60e51b815260206004820152602160248201527f57616c6c65744c696e6b3a2077616c6c657420616c7265616479206c696e6b656044820152601960fa1b60648201526084016103c5565b604080516001600160a01b03871660208201529081018390526000906108cf906060015b60405160208183030381529060405280519060200120611073565b9050886001600160a01b031661091b828a8a8080601f0160208091040260200160405190810160405280939291908181526020018383808284376000920191909152506102f492505050565b6001600160a01b0316146109415760405162461bcd60e51b81526004016103c5906113f7565b604080516001600160a01b038b166020820152908101849052600090610969906060016108b4565b9050866001600160a01b03166109b58288888080601f0160208091040260200160405190810160405280939291908181526020018383808284376000920191909152506102f492505050565b6001600160a01b031614610a195760405162461bcd60e51b815260206004820152602560248201527f57616c6c65744c696e6b3a20696e76616c696420726f6f744b6579207369676e604482015264617475726560d81b60648201526084016103c5565b50506001600160a01b039485166000818152602083815260408083208054600181810183559185528385200180549d909a166001600160a01b03199d8e168117909a559883529790930190925294902080549097169093179095555050505050565b6001600160a01b03851660009081527f630d36d827dd2d1cf0d5118b0729bf3ba07959315de50567c8d0b01f7ec88e756020526040902054600080516020611538833981519152908211610ae15760405162461bcd60e51b81526004016103c59061143b565b6001600160a01b038681166000908152600183016020526040902054811690841614610b1f5760405162461bcd60e51b81526004016103c590611480565b6001600160a01b0386166000908152600382016020908152604080832085905551610b629186918691016001600160a01b03929092168252602082015260400190565b604051602081830303815290604052805190602001209050866001600160a01b0316610bcc610b9083611073565b88888080601f0160208091040260200160405190810160405280939291908181526020018383808284376000920191909152506102f492505050565b6001600160a01b031614610bf25760405162461bcd60e51b81526004016103c5906113f7565b6001600160a01b0387166000908152600183016020526040812080546001600160a01b03191690555b6001600160a01b038516600090815260208490526040902054811015610d73576001600160a01b0385811660009081526020859052604090208054918a169183908110610c6a57610c6a6114c9565b6000918252602090912001546001600160a01b031603610d61576001600160a01b03851660009081526020849052604090208054610caa906001906114f5565b81548110610cba57610cba6114c9565b60009182526020808320909101546001600160a01b038881168452918690526040909220805491909216919083908110610cf657610cf66114c9565b600091825260208083209190910180546001600160a01b0319166001600160a01b0394851617905591871681529084905260409020805480610d3a57610d3a611508565b600082815260209020810160001990810180546001600160a01b0319169055019055610d73565b80610d6b8161151e565b915050610c1b565b5050505050505050565b6001600160a01b03851660009081527f630d36d827dd2d1cf0d5118b0729bf3ba07959315de50567c8d0b01f7ec88e766020526040902054600080516020611538833981519152908211610de35760405162461bcd60e51b81526004016103c59061143b565b6001600160a01b038381166000908152600183016020526040902054811690871614610e215760405162461bcd60e51b81526004016103c590611480565b6001600160a01b0386166000908152600482016020908152604080832085905551610e68916108b49187918791016001600160a01b03929092168252602082015260400190565b9050866001600160a01b0316610eb48288888080601f0160208091040260200160405190810160405280939291908181526020018383808284376000920191909152506102f492505050565b6001600160a01b031614610f195760405162461bcd60e51b815260206004820152602660248201527f57616c6c65744c696e6b3a20696e76616c696420726f6f74206b6579207369676044820152656e617475726560d01b60648201526084016103c5565b6001600160a01b0384166000908152600183016020526040812080546001600160a01b03191690555b6001600160a01b038816600090815260208490526040902054811015610d73576001600160a01b03888116600090815260208590526040902080549187169183908110610f9157610f916114c9565b6000918252602090912001546001600160a01b031603611061576001600160a01b03881660009081526020849052604090208054610fd1906001906114f5565b81548110610fe157610fe16114c9565b60009182526020808320909101546001600160a01b038b8116845291869052604090922080549190921691908390811061101d5761101d6114c9565b600091825260208083209190910180546001600160a01b0319166001600160a01b03948516179055918a1681529084905260409020805480610d3a57610d3a611508565b8061106b8161151e565b915050610f42565b6040517f19457468657265756d205369676e6564204d6573736167653a0a3332000000006020820152603c8101829052600090605c01604051602081830303815290604052805190602001209050919050565b80356001600160a01b03811681146110dd57600080fd5b919050565b6000602082840312156110f457600080fd5b6102ed826110c6565b6020808252825182820181905260009190848201906040850190845b8181101561113e5783516001600160a01b031683529284019291840191600101611119565b50909695505050505050565b60008083601f84011261115c57600080fd5b50813567ffffffffffffffff81111561117457600080fd5b60208301915083602082850101111561118c57600080fd5b9250929050565b600080600080600080600060a0888a0312156111ae57600080fd5b6111b7886110c6565b9650602088013567ffffffffffffffff808211156111d457600080fd5b6111e08b838c0161114a565b90985096508691506111f460408b016110c6565b955060608a013591508082111561120a57600080fd5b506112178a828b0161114a565b989b979a50959894979596608090950135949350505050565b60008060008060006080868803121561124857600080fd5b611251866110c6565b9450602086013567ffffffffffffffff81111561126d57600080fd5b6112798882890161114a565b909550935061128c9050604087016110c6565b949793965091946060013592915050565b600080604083850312156112b057600080fd5b6112b9836110c6565b91506112c7602084016110c6565b90509250929050565b634e487b7160e01b600052604160045260246000fd5b600082601f8301126112f757600080fd5b813567ffffffffffffffff80821115611312576113126112d0565b604051601f8301601f19908116603f0116810190828211818310171561133a5761133a6112d0565b8160405283815286602085880101111561135357600080fd5b836020870160208301376000602085830101528094505050505092915050565b6000806040838503121561138657600080fd5b82359150602083013567ffffffffffffffff8111156113a457600080fd5b6113b0858286016112e6565b9150509250929050565b6000602082840312156113cc57600080fd5b813567ffffffffffffffff8111156113e357600080fd5b6113ef848285016112e6565b949350505050565b60208082526024908201527f57616c6c65744c696e6b3a20696e76616c69642077616c6c6574207369676e616040820152637475726560e01b606082015260800190565b60208082526025908201527f57616c6c65744c696e6b3a2072656d6f7665206e6f6e636520616c7265616479604082015264081d5cd95960da1b606082015260800190565b60208082526029908201527f57616c6c65744c696e6b3a2077616c6c6574206e6f74206c696e6b656420746f60408201526820726f6f74206b657960b81b606082015260800190565b634e487b7160e01b600052603260045260246000fd5b634e487b7160e01b600052601160045260246000fd5b81810381811115610209576102096114df565b634e487b7160e01b600052603160045260246000fd5b600060018201611530576115306114df565b506001019056fe630d36d827dd2d1cf0d5118b0729bf3ba07959315de50567c8d0b01f7ec88e72",
    "linkReferences": {}
  },
  "methodIdentifiers": {
    "__WalletLink_init()": "260a409d",
    "checkIfLinked(address,address)": "912b9758",
    "getLatestNonceForRootKey(address)": "20a00ac8",
    "getLatestRemoveNonceForRootKey(address)": "d48458f8",
    "getLatestRemoveNonceForWallet(address)": "ee5752bc",
    "getRootKeyForWallet(address)": "f8210398",
    "getWalletsByRootKey(address)": "02345b98",
    "linkWalletToRootKey(address,bytes,address,bytes,uint256)": "0db16c8a",
    "recoverSigner(bytes32,bytes)": "97aba7f9",
    "removeLinkViaRootKey(address,bytes,address,uint256)": "8bc43a71",
    "removeLinkViaWallet(address,bytes,address,uint256)": "62f189bd",
    "splitSignature(bytes)": "a7bb5803"
  },
  "id": 106
}