{"abi":[{"type":"function","name":"__WalletLink_init","inputs":[],"outputs":[],"stateMutability":"nonpayable"},{"type":"function","name":"checkIfLinked","inputs":[{"name":"rootKey","type":"address","internalType":"address"},{"name":"wallet","type":"address","internalType":"address"}],"outputs":[{"name":"","type":"bool","internalType":"bool"}],"stateMutability":"view"},{"type":"function","name":"getLatestNonceForRootKey","inputs":[{"name":"rootKey","type":"address","internalType":"address"}],"outputs":[{"name":"","type":"uint256","internalType":"uint256"}],"stateMutability":"view"},{"type":"function","name":"getRootKeyForWallet","inputs":[{"name":"wallet","type":"address","internalType":"address"}],"outputs":[{"name":"rootKey","type":"address","internalType":"address"}],"stateMutability":"view"},{"type":"function","name":"getWalletsByRootKey","inputs":[{"name":"rootKey","type":"address","internalType":"address"}],"outputs":[{"name":"wallets","type":"address[]","internalType":"address[]"}],"stateMutability":"view"},{"type":"function","name":"linkWalletToRootKey","inputs":[{"name":"rootKey","type":"address","internalType":"address"},{"name":"rootKeySignature","type":"bytes","internalType":"bytes"},{"name":"nonce","type":"uint256","internalType":"uint256"}],"outputs":[],"stateMutability":"nonpayable"},{"type":"function","name":"nonces","inputs":[{"name":"owner","type":"address","internalType":"address"}],"outputs":[{"name":"","type":"uint256","internalType":"uint256"}],"stateMutability":"view"},{"type":"function","name":"removeLink","inputs":[{"name":"wallet","type":"address","internalType":"address"}],"outputs":[],"stateMutability":"nonpayable"},{"type":"event","name":"Initialized","inputs":[{"name":"version","type":"uint32","indexed":false,"internalType":"uint32"}],"anonymous":false},{"type":"event","name":"InterfaceAdded","inputs":[{"name":"interfaceId","type":"bytes4","indexed":true,"internalType":"bytes4"}],"anonymous":false},{"type":"event","name":"InterfaceRemoved","inputs":[{"name":"interfaceId","type":"bytes4","indexed":true,"internalType":"bytes4"}],"anonymous":false},{"type":"event","name":"LinkWalletToRootKey","inputs":[{"name":"wallet","type":"address","indexed":false,"internalType":"address"},{"name":"rootKey","type":"address","indexed":false,"internalType":"address"}],"anonymous":false},{"type":"event","name":"RemoveLink","inputs":[{"name":"wallet","type":"address","indexed":false,"internalType":"address"},{"name":"secondWallet","type":"address","indexed":false,"internalType":"address"}],"anonymous":false},{"type":"error","name":"Initializable_InInitializingState","inputs":[]},{"type":"error","name":"Initializable_NotInInitializingState","inputs":[]},{"type":"error","name":"Introspection_AlreadySupported","inputs":[]},{"type":"error","name":"Introspection_NotSupported","inputs":[]},{"type":"error","name":"InvalidAccountNonce","inputs":[{"name":"account","type":"address","internalType":"address"},{"name":"currentNonce","type":"uint256","internalType":"uint256"}]},{"type":"error","name":"WalletLink__InvalidSignature","inputs":[]},{"type":"error","name":"WalletLink__LinkAlreadyExists","inputs":[{"name":"wallet","type":"address","internalType":"address"},{"name":"rootKey","type":"address","internalType":"address"}]},{"type":"error","name":"WalletLink__NotLinked","inputs":[{"name":"wallet","type":"address","internalType":"address"},{"name":"rootKey","type":"address","internalType":"address"}]}],"bytecode":{"object":"0x608060405234801561001057600080fd5b5061001961001e565b6100c4565b7f2d0d21306acfe8e9bb163a4573e95aff6cef95dc1102c6a16d5f19eac08cc4de8054640100000000900460ff161561006a576040516366008a2d60e01b815260040160405180910390fd5b805463ffffffff90811610156100c157805463ffffffff191663ffffffff90811782556040519081527fe9c9b456cb2994b80aeef036cf59d26e9617df80f816a6ee5a5b4166e07e2f5c9060200160405180910390a15b50565b610bad806100d36000396000f3fe608060405234801561001057600080fd5b50600436106100885760003560e01c80633b6a64a41161005b5780633b6a64a4146100f45780637ecebe00146100b6578063912b975814610107578063f82103981461012a57600080fd5b806302345b981461008d57806320a00ac8146100b6578063260a409d146100d757806327a04d85146100e1575b600080fd5b6100a061009b366004610a1b565b610155565b6040516100ad9190610a36565b60405180910390f35b6100c96100c4366004610a1b565b610166565b6040519081526020016100ad565b6100df6101a3565b005b6100df6100ef366004610a1b565b6101ff565b6100df610102366004610a83565b61020b565b61011a610115366004610b0c565b61021d565b60405190151581526020016100ad565b61013d610138366004610a1b565b610254565b6040516001600160a01b0390911681526020016100ad565b606061016082610283565b92915050565b6001600160a01b03811660009081527f2049909b9faa0ec75b0ddea779633de6857cef26e9bbc36588098c42dd43bf0e6020526040812054610160565b7f2d0d21306acfe8e9bb163a4573e95aff6cef95dc1102c6a16d5f19eac08cc4de54640100000000900460ff166101ed57604051630ef4733760e31b815260040160405180910390fd5b6101fd635754ecb160e01b6102c6565b565b610208816103a4565b50565b610217848484846104ae565b50505050565b6001600160a01b038181166000908152600080516020610b8d833981519152602052604081205490918481169116145b9392505050565b6001600160a01b038082166000908152600080516020610b8d8339815191526020526040812054909116610160565b6001600160a01b03811660009081527f630d36d827dd2d1cf0d5118b0729bf3ba07959315de50567c8d0b01f7ec88e7260205260409020606090610160906106b0565b6001600160e01b0319811660009081527fbc7de460bcfb6afd0c415c8c610d408bd914b18d7d0feec0da9e25348087a5c4602052604090205460ff161515600114610353576001600160e01b0319811660009081527fbc7de460bcfb6afd0c415c8c610d408bd914b18d7d0feec0da9e25348087a5c460205260409020805460ff1916600117905561036c565b604051637967f77d60e11b815260040160405180910390fd5b6040516001600160e01b03198216907f78f84e5b1c5c05be2b5ad3800781dd404d6d6c6302bc755c0fe20f58a33a7f2290600090a250565b336000818152600080516020610b8d83398151915260205260409020547f630d36d827dd2d1cf0d5118b0729bf3ba07959315de50567c8d0b01f7ec88e7291906001600160a01b03848116911603610406576104018284836106bd565b610468565b6001600160a01b038381166000908152600184016020526040902054818316911603610437576104018282856106bd565b604051635e300c8360e01b81526001600160a01b038085166004830152821660248201526044015b60405180910390fd5b604080516001600160a01b03851681523360208201527f9a9d98629b39adf596077fc95a0712ba55c38f40a354e99d366a10f9c3e27da2910160405180910390a1505050565b336000818152600080516020610b8d83398151915260205260409020547f630d36d827dd2d1cf0d5118b0729bf3ba07959315de50567c8d0b01f7ec88e7291906001600160a01b031615610528576040516314790b7f60e01b81526001600160a01b0380831660048301528716602482015260440161045f565b604080516001600160a01b0383166020808301919091528183018690528251808303840181526060830184528051908201207f19457468657265756d205369676e6564204d6573736167653a0a3332000000006080840152609c808401919091528351808403909101815260bc9092019092528051910120866001600160a01b03166105ea8288888080601f0160208091040260200160405190810160405280939291908181526020018383808284376000920191909152506106fc92505050565b6001600160a01b03161461061157604051632af0041d60e11b815260040160405180910390fd5b61061b878561077b565b6001600160a01b038716600090815260208490526040902061063d90836107f2565b506001600160a01b03828116600081815260018601602090815260409182902080546001600160a01b031916948c16948517905581519283528201929092527f64126824352170c4025060d1f6e215159635e4b08e649830695f26ef6d2b5721910160405180910390a150505050505050565b6060600061024d83610807565b6001600160a01b038082166000908152600185016020908152604080832080546001600160a01b03191690559285168252859052206102179082610863565b60008060008061070b85610878565b6040805160008152602081018083528b905260ff8316918101919091526060810184905260808101839052929550909350915060019060a0016020604051602081039080840390855afa158015610766573d6000803e3d6000fd5b5050604051601f190151979650505050505050565b6001600160a01b03821660009081527f2049909b9faa0ec75b0ddea779633de6857cef26e9bbc36588098c42dd43bf0e602052604090208054600181019091558181146107ed576040516301d4b62360e61b81526001600160a01b03841660048201526024810182905260440161045f565b505050565b600061024d836001600160a01b0384166108bd565b60608160000180548060200260200160405190810160405280929190818152602001828054801561085757602002820191906000526020600020905b815481526020019060010190808311610843575b50505050509050919050565b600061024d836001600160a01b03841661090c565b6000806000835160411461089f57604051632af0041d60e11b815260040160405180910390fd5b50505060208101516040820151606090920151909260009190911a90565b600081815260018301602052604081205461090457508154600181810184556000848152602080822090930184905584548482528286019093526040902091909155610160565b506000610160565b600081815260018301602052604081205480156109f5576000610930600183610b3f565b855490915060009061094490600190610b3f565b90508181146109a957600086600001828154811061096457610964610b60565b906000526020600020015490508087600001848154811061098757610987610b60565b6000918252602080832090910192909255918252600188019052604090208390555b85548690806109ba576109ba610b76565b600190038181906000526020600020016000905590558560010160008681526020019081526020016000206000905560019350505050610160565b6000915050610160565b80356001600160a01b0381168114610a1657600080fd5b919050565b600060208284031215610a2d57600080fd5b61024d826109ff565b6020808252825182820181905260009190848201906040850190845b81811015610a775783516001600160a01b031683529284019291840191600101610a52565b50909695505050505050565b60008060008060608587031215610a9957600080fd5b610aa2856109ff565b9350602085013567ffffffffffffffff80821115610abf57600080fd5b818701915087601f830112610ad357600080fd5b813581811115610ae257600080fd5b886020828501011115610af457600080fd5b95986020929092019750949560400135945092505050565b60008060408385031215610b1f57600080fd5b610b28836109ff565b9150610b36602084016109ff565b90509250929050565b8181038181111561016057634e487b7160e01b600052601160045260246000fd5b634e487b7160e01b600052603260045260246000fd5b634e487b7160e01b600052603160045260246000fdfe630d36d827dd2d1cf0d5118b0729bf3ba07959315de50567c8d0b01f7ec88e73","linkReferences":{}},"methodIdentifiers":{"__WalletLink_init()":"260a409d","checkIfLinked(address,address)":"912b9758","getLatestNonceForRootKey(address)":"20a00ac8","getRootKeyForWallet(address)":"f8210398","getWalletsByRootKey(address)":"02345b98","linkWalletToRootKey(address,bytes,uint256)":"3b6a64a4","nonces(address)":"7ecebe00","removeLink(address)":"27a04d85"},"id":129}