{
  "abi": [
    {
      "anonymous": false,
      "inputs": [
        {
          "indexed": true,
          "internalType": "address",
          "name": "previousOwner",
          "type": "address"
        },
        {
          "indexed": true,
          "internalType": "address",
          "name": "newOwner",
          "type": "address"
        }
      ],
      "name": "OwnershipTransferred",
      "type": "event"
    },
    {
      "anonymous": false,
      "inputs": [
        {
          "indexed": false,
          "internalType": "uint256",
          "name": "newVal",
          "type": "uint256"
        }
      ],
      "name": "ValChanged",
      "type": "event"
    },
    {
      "inputs": [],
      "name": "getVal",
      "outputs": [
        {
          "internalType": "uint256",
          "name": "",
          "type": "uint256"
        }
      ],
      "stateMutability": "view",
      "type": "function"
    },
    {
      "inputs": [],
      "name": "owner",
      "outputs": [
        {
          "internalType": "address",
          "name": "",
          "type": "address"
        }
      ],
      "stateMutability": "view",
      "type": "function"
    },
    {
      "inputs": [],
      "name": "renounceOwnership",
      "outputs": [],
      "stateMutability": "nonpayable",
      "type": "function"
    },
    {
      "inputs": [
        {
          "internalType": "uint256",
          "name": "newVal",
          "type": "uint256"
        }
      ],
      "name": "store",
      "outputs": [],
      "stateMutability": "nonpayable",
      "type": "function"
    },
    {
      "inputs": [
        {
          "internalType": "address",
          "name": "newOwner",
          "type": "address"
        }
      ],
      "name": "transferOwnership",
      "outputs": [],
      "stateMutability": "nonpayable",
      "type": "function"
    }
  ],
  "bytecode": {
    "object": "0x608060405234801561001057600080fd5b5061001a3361001f565b61006f565b600080546001600160a01b038381166001600160a01b0319831681178455604051919092169283917f8be0079c531659141344cd1fd0a4f28419497f9722a3daafe3b4186f6b6457e09190a35050565b6102bb8061007e6000396000f3fe608060405234801561001057600080fd5b50600436106100575760003560e01c80636057361d1461005c578063715018a6146100715780638da5cb5b14610079578063e1cb0e5214610099578063f2fde38b146100aa575b600080fd5b61006f61006a36600461023c565b6100bd565b005b61006f610100565b6000546040516001600160a01b0390911681526020015b60405180910390f35b600154604051908152602001610090565b61006f6100b8366004610255565b610114565b6100c5610192565b60018190556040518181527f13c25206875eecf3a7bdc4735ecc06687ab7ec4b5c2055f01539742556abd52a9060200160405180910390a150565b610108610192565b61011260006101ec565b565b61011c610192565b6001600160a01b0381166101865760405162461bcd60e51b815260206004820152602660248201527f4f776e61626c653a206e6577206f776e657220697320746865207a65726f206160448201526564647265737360d01b60648201526084015b60405180910390fd5b61018f816101ec565b50565b6000546001600160a01b031633146101125760405162461bcd60e51b815260206004820181905260248201527f4f776e61626c653a2063616c6c6572206973206e6f7420746865206f776e6572604482015260640161017d565b600080546001600160a01b038381166001600160a01b0319831681178455604051919092169283917f8be0079c531659141344cd1fd0a4f28419497f9722a3daafe3b4186f6b6457e09190a35050565b60006020828403121561024e57600080fd5b5035919050565b60006020828403121561026757600080fd5b81356001600160a01b038116811461027e57600080fd5b939250505056fea26469706673582212201087dab3d314f992d3ecfe0fbcde4355c8042a2b11a340aa17f1c780376f2a4e64736f6c634300080f0033",
    "linkReferences": {}
  },
  "methodIdentifiers": {
    "getVal()": "e1cb0e52",
    "owner()": "8da5cb5b",
    "renounceOwnership()": "715018a6",
    "store(uint256)": "6057361d",
    "transferOwnership(address)": "f2fde38b"
  },
  "id": 1
}