{
  "abi": [
    {
      "inputs": [
        {
          "internalType": "string",
          "name": "_name",
          "type": "string"
        },
        {
          "internalType": "string",
          "name": "_symbol",
          "type": "string"
        },
        {
          "internalType": "string",
          "name": "_baseURI",
          "type": "string"
        },
        {
          "internalType": "bytes32",
          "name": "_root",
          "type": "bytes32"
        }
      ],
      "stateMutability": "nonpayable",
      "type": "constructor"
    },
    {
      "inputs": [],
      "name": "AlreadyMinted",
      "type": "error"
    },
    {
      "inputs": [],
      "name": "MaxSupply",
      "type": "error"
    },
    {
      "inputs": [],
      "name": "MintPriceNotPaid",
      "type": "error"
    },
    {
      "inputs": [],
      "name": "NonExistentTokenURI",
      "type": "error"
    },
    {
      "inputs": [],
      "name": "WithdrawTransfer",
      "type": "error"
    },
    {
      "anonymous": false,
      "inputs": [
        {
          "indexed": true,
          "internalType": "address",
          "name": "owner",
          "type": "address"
        },
        {
          "indexed": true,
          "internalType": "address",
          "name": "spender",
          "type": "address"
        },
        {
          "indexed": true,
          "internalType": "uint256",
          "name": "id",
          "type": "uint256"
        }
      ],
      "name": "Approval",
      "type": "event"
    },
    {
      "anonymous": false,
      "inputs": [
        {
          "indexed": true,
          "internalType": "address",
          "name": "owner",
          "type": "address"
        },
        {
          "indexed": true,
          "internalType": "address",
          "name": "operator",
          "type": "address"
        },
        {
          "indexed": false,
          "internalType": "bool",
          "name": "approved",
          "type": "bool"
        }
      ],
      "name": "ApprovalForAll",
      "type": "event"
    },
    {
      "anonymous": false,
      "inputs": [
        {
          "indexed": true,
          "internalType": "address",
          "name": "previousOwner",
          "type": "address"
        },
        {
          "indexed": true,
          "internalType": "address",
          "name": "newOwner",
          "type": "address"
        }
      ],
      "name": "OwnershipTransferred",
      "type": "event"
    },
    {
      "anonymous": false,
      "inputs": [
        {
          "indexed": true,
          "internalType": "address",
          "name": "from",
          "type": "address"
        },
        {
          "indexed": true,
          "internalType": "address",
          "name": "to",
          "type": "address"
        },
        {
          "indexed": true,
          "internalType": "uint256",
          "name": "id",
          "type": "uint256"
        }
      ],
      "name": "Transfer",
      "type": "event"
    },
    {
      "inputs": [],
      "name": "MINT_PRICE",
      "outputs": [
        {
          "internalType": "uint256",
          "name": "",
          "type": "uint256"
        }
      ],
      "stateMutability": "view",
      "type": "function"
    },
    {
      "inputs": [],
      "name": "TOTAL_SUPPLY",
      "outputs": [
        {
          "internalType": "uint256",
          "name": "",
          "type": "uint256"
        }
      ],
      "stateMutability": "view",
      "type": "function"
    },
    {
      "inputs": [],
      "name": "allowlistMint",
      "outputs": [
        {
          "internalType": "bool",
          "name": "",
          "type": "bool"
        }
      ],
      "stateMutability": "view",
      "type": "function"
    },
    {
      "inputs": [
        {
          "internalType": "address",
          "name": "",
          "type": "address"
        }
      ],
      "name": "alreadyMinted",
      "outputs": [
        {
          "internalType": "bool",
          "name": "",
          "type": "bool"
        }
      ],
      "stateMutability": "view",
      "type": "function"
    },
    {
      "inputs": [
        {
          "internalType": "address",
          "name": "spender",
          "type": "address"
        },
        {
          "internalType": "uint256",
          "name": "id",
          "type": "uint256"
        }
      ],
      "name": "approve",
      "outputs": [],
      "stateMutability": "nonpayable",
      "type": "function"
    },
    {
      "inputs": [
        {
          "internalType": "address",
          "name": "owner",
          "type": "address"
        }
      ],
      "name": "balanceOf",
      "outputs": [
        {
          "internalType": "uint256",
          "name": "",
          "type": "uint256"
        }
      ],
      "stateMutability": "view",
      "type": "function"
    },
    {
      "inputs": [],
      "name": "baseURI",
      "outputs": [
        {
          "internalType": "string",
          "name": "",
          "type": "string"
        }
      ],
      "stateMutability": "view",
      "type": "function"
    },
    {
      "inputs": [],
      "name": "currentTokenId",
      "outputs": [
        {
          "internalType": "uint256",
          "name": "",
          "type": "uint256"
        }
      ],
      "stateMutability": "view",
      "type": "function"
    },
    {
      "inputs": [
        {
          "internalType": "uint256",
          "name": "",
          "type": "uint256"
        }
      ],
      "name": "getApproved",
      "outputs": [
        {
          "internalType": "address",
          "name": "",
          "type": "address"
        }
      ],
      "stateMutability": "view",
      "type": "function"
    },
    {
      "inputs": [
        {
          "internalType": "address",
          "name": "",
          "type": "address"
        },
        {
          "internalType": "address",
          "name": "",
          "type": "address"
        }
      ],
      "name": "isApprovedForAll",
      "outputs": [
        {
          "internalType": "bool",
          "name": "",
          "type": "bool"
        }
      ],
      "stateMutability": "view",
      "type": "function"
    },
    {
      "inputs": [
        {
          "internalType": "address",
          "name": "recipient",
          "type": "address"
        }
      ],
      "name": "mint",
      "outputs": [
        {
          "internalType": "uint256",
          "name": "",
          "type": "uint256"
        }
      ],
      "stateMutability": "payable",
      "type": "function"
    },
    {
      "inputs": [],
      "name": "name",
      "outputs": [
        {
          "internalType": "string",
          "name": "",
          "type": "string"
        }
      ],
      "stateMutability": "view",
      "type": "function"
    },
    {
      "inputs": [],
      "name": "owner",
      "outputs": [
        {
          "internalType": "address",
          "name": "",
          "type": "address"
        }
      ],
      "stateMutability": "view",
      "type": "function"
    },
    {
      "inputs": [
        {
          "internalType": "uint256",
          "name": "id",
          "type": "uint256"
        }
      ],
      "name": "ownerOf",
      "outputs": [
        {
          "internalType": "address",
          "name": "owner",
          "type": "address"
        }
      ],
      "stateMutability": "view",
      "type": "function"
    },
    {
      "inputs": [
        {
          "internalType": "address",
          "name": "recipient",
          "type": "address"
        },
        {
          "internalType": "uint256",
          "name": "allowance",
          "type": "uint256"
        },
        {
          "internalType": "bytes32[]",
          "name": "proof",
          "type": "bytes32[]"
        }
      ],
      "name": "privateMint",
      "outputs": [
        {
          "internalType": "uint256",
          "name": "",
          "type": "uint256"
        }
      ],
      "stateMutability": "payable",
      "type": "function"
    },
    {
      "inputs": [],
      "name": "publicMint",
      "outputs": [
        {
          "internalType": "bool",
          "name": "",
          "type": "bool"
        }
      ],
      "stateMutability": "view",
      "type": "function"
    },
    {
      "inputs": [],
      "name": "renounceOwnership",
      "outputs": [],
      "stateMutability": "nonpayable",
      "type": "function"
    },
    {
      "inputs": [
        {
          "internalType": "address",
          "name": "from",
          "type": "address"
        },
        {
          "internalType": "address",
          "name": "to",
          "type": "address"
        },
        {
          "internalType": "uint256",
          "name": "id",
          "type": "uint256"
        }
      ],
      "name": "safeTransferFrom",
      "outputs": [],
      "stateMutability": "nonpayable",
      "type": "function"
    },
    {
      "inputs": [
        {
          "internalType": "address",
          "name": "from",
          "type": "address"
        },
        {
          "internalType": "address",
          "name": "to",
          "type": "address"
        },
        {
          "internalType": "uint256",
          "name": "id",
          "type": "uint256"
        },
        {
          "internalType": "bytes",
          "name": "data",
          "type": "bytes"
        }
      ],
      "name": "safeTransferFrom",
      "outputs": [],
      "stateMutability": "nonpayable",
      "type": "function"
    },
    {
      "inputs": [
        {
          "internalType": "address",
          "name": "operator",
          "type": "address"
        },
        {
          "internalType": "bool",
          "name": "approved",
          "type": "bool"
        }
      ],
      "name": "setApprovalForAll",
      "outputs": [],
      "stateMutability": "nonpayable",
      "type": "function"
    },
    {
      "inputs": [],
      "name": "startPublicMint",
      "outputs": [],
      "stateMutability": "nonpayable",
      "type": "function"
    },
    {
      "inputs": [],
      "name": "startWaitlistMint",
      "outputs": [],
      "stateMutability": "nonpayable",
      "type": "function"
    },
    {
      "inputs": [
        {
          "internalType": "bytes4",
          "name": "interfaceId",
          "type": "bytes4"
        }
      ],
      "name": "supportsInterface",
      "outputs": [
        {
          "internalType": "bool",
          "name": "",
          "type": "bool"
        }
      ],
      "stateMutability": "view",
      "type": "function"
    },
    {
      "inputs": [],
      "name": "symbol",
      "outputs": [
        {
          "internalType": "string",
          "name": "",
          "type": "string"
        }
      ],
      "stateMutability": "view",
      "type": "function"
    },
    {
      "inputs": [
        {
          "internalType": "uint256",
          "name": "tokenId",
          "type": "uint256"
        }
      ],
      "name": "tokenURI",
      "outputs": [
        {
          "internalType": "string",
          "name": "",
          "type": "string"
        }
      ],
      "stateMutability": "view",
      "type": "function"
    },
    {
      "inputs": [
        {
          "internalType": "address",
          "name": "from",
          "type": "address"
        },
        {
          "internalType": "address",
          "name": "to",
          "type": "address"
        },
        {
          "internalType": "uint256",
          "name": "id",
          "type": "uint256"
        }
      ],
      "name": "transferFrom",
      "outputs": [],
      "stateMutability": "nonpayable",
      "type": "function"
    },
    {
      "inputs": [
        {
          "internalType": "address",
          "name": "newOwner",
          "type": "address"
        }
      ],
      "name": "transferOwnership",
      "outputs": [],
      "stateMutability": "nonpayable",
      "type": "function"
    },
    {
      "inputs": [],
      "name": "waitlistMint",
      "outputs": [
        {
          "internalType": "bool",
          "name": "",
          "type": "bool"
        }
      ],
      "stateMutability": "view",
      "type": "function"
    },
    {
      "inputs": [
        {
          "internalType": "address payable",
          "name": "payee",
          "type": "address"
        }
      ],
      "name": "withdrawPayments",
      "outputs": [],
      "stateMutability": "nonpayable",
      "type": "function"
    }
  ],
  "bytecode": {
    "object": "0x60a06040523480156200001157600080fd5b5060405162002507380380620025078339810160408190526200003491620001b3565b83836000620000448382620002db565b506001620000538282620002db565b505050620000706200006a6200009860201b60201c565b6200009c565b60076200007e8382620002db565b506080525050600a805460ff1916600117905550620003a7565b3390565b600680546001600160a01b038381166001600160a01b0319831681179093556040519116919082907f8be0079c531659141344cd1fd0a4f28419497f9722a3daafe3b4186f6b6457e090600090a35050565b634e487b7160e01b600052604160045260246000fd5b600082601f8301126200011657600080fd5b81516001600160401b0380821115620001335762000133620000ee565b604051601f8301601f19908116603f011681019082821181831017156200015e576200015e620000ee565b816040528381526020925086838588010111156200017b57600080fd5b600091505b838210156200019f578582018301518183018401529082019062000180565b600093810190920192909252949350505050565b60008060008060808587031215620001ca57600080fd5b84516001600160401b0380821115620001e257600080fd5b620001f08883890162000104565b955060208701519150808211156200020757600080fd5b620002158883890162000104565b945060408701519150808211156200022c57600080fd5b506200023b8782880162000104565b606096909601519497939650505050565b600181811c908216806200026157607f821691505b6020821081036200028257634e487b7160e01b600052602260045260246000fd5b50919050565b601f821115620002d657600081815260208120601f850160051c81016020861015620002b15750805b601f850160051c820191505b81811015620002d257828155600101620002bd565b5050505b505050565b81516001600160401b03811115620002f757620002f7620000ee565b6200030f816200030884546200024c565b8462000288565b602080601f8311600181146200034757600084156200032e5750858301515b600019600386901b1c1916600185901b178555620002d2565b600085815260208120601f198616915b82811015620003785788860151825594840194600190910190840162000357565b5085821015620003975787850151600019600388901b60f8161c191681555b5050505050600190811b01905550565b608051612144620003c3600039600061116601526121446000f3fe6080604052600436106101c15760003560e01c806370a08231116100f7578063a22cb46511610095578063c002d23d11610064578063c002d23d14610504578063c87b56dd14610520578063e985e9c514610540578063f2fde38b1461057b57600080fd5b8063a22cb46514610490578063a839e501146104b0578063aebb096c146104c5578063b88d4fde146104e457600080fd5b80638da5cb5b116100d15780638da5cb5b14610427578063902d55a51461045257806395d89b41146104685780639886a9021461047d57600080fd5b806370a08231146103dd578063715018a6146103fd57806376c64c621461041257600080fd5b806326092b831161016457806342842e0e1161013e57806342842e0e146103755780636352211e146103955780636a627842146103b55780636c0360eb146103c857600080fd5b806326092b831461031b57806331b3eb941461033b57806341fbddbd1461035b57600080fd5b8063081812fc116101a0578063081812fc14610241578063095ea7b3146102a95780630a398b88146102cb57806323b872dd146102fb57600080fd5b80629a9b7b146101c657806301ffc9a7146101ef57806306fdde031461021f575b600080fd5b3480156101d257600080fd5b506101dc60085481565b6040519081526020015b60405180910390f35b3480156101fb57600080fd5b5061020f61020a366004611ba9565b61059b565b60405190151581526020016101e6565b34801561022b57600080fd5b50610234610680565b6040516101e69190611bc6565b34801561024d57600080fd5b5061028461025c366004611c32565b60046020526000908152604090205473ffffffffffffffffffffffffffffffffffffffff1681565b60405173ffffffffffffffffffffffffffffffffffffffff90911681526020016101e6565b3480156102b557600080fd5b506102c96102c4366004611c6d565b61070e565b005b3480156102d757600080fd5b5061020f6102e6366004611c99565b60096020526000908152604090205460ff1681565b34801561030757600080fd5b506102c9610316366004611cb6565b61085d565b34801561032757600080fd5b50600a5461020f9062010000900460ff1681565b34801561034757600080fd5b506102c9610356366004611c99565b610b24565b34801561036757600080fd5b50600a5461020f9060ff1681565b34801561038157600080fd5b506102c9610390366004611cb6565b610bcb565b3480156103a157600080fd5b506102846103b0366004611c32565b610d30565b6101dc6103c3366004611c99565b610dc1565b3480156103d457600080fd5b50610234610ef7565b3480156103e957600080fd5b506101dc6103f8366004611c99565b610f04565b34801561040957600080fd5b506102c9610fac565b34801561041e57600080fd5b506102c9610fc0565b34801561043357600080fd5b5060065473ffffffffffffffffffffffffffffffffffffffff16610284565b34801561045e57600080fd5b506101dc6109c481565b34801561047457600080fd5b50610234610ff7565b6101dc61048b366004611cf7565b611004565b34801561049c57600080fd5b506102c96104ab366004611d83565b611230565b3480156104bc57600080fd5b506102c96112c7565b3480156104d157600080fd5b50600a5461020f90610100900460ff1681565b3480156104f057600080fd5b506102c96104ff366004611dc1565b6112fd565b34801561051057600080fd5b506101dc67011c37937e08000081565b34801561052c57600080fd5b5061023461053b366004611c32565b611457565b34801561054c57600080fd5b5061020f61055b366004611e60565b600560209081526000928352604080842090915290825290205460ff1681565b34801561058757600080fd5b506102c9610596366004611c99565b611503565b60007f01ffc9a7000000000000000000000000000000000000000000000000000000007fffffffff000000000000000000000000000000000000000000000000000000008316148061062e57507f80ac58cd000000000000000000000000000000000000000000000000000000007fffffffff000000000000000000000000000000000000000000000000000000008316145b8061067a57507f5b5e139f000000000000000000000000000000000000000000000000000000007fffffffff000000000000000000000000000000000000000000000000000000008316145b92915050565b6000805461068d90611e8e565b80601f01602080910402602001604051908101604052809291908181526020018280546106b990611e8e565b80156107065780601f106106db57610100808354040283529160200191610706565b820191906000526020600020905b8154815290600101906020018083116106e957829003601f168201915b505050505081565b60008181526002602052604090205473ffffffffffffffffffffffffffffffffffffffff1633811480610771575073ffffffffffffffffffffffffffffffffffffffff8116600090815260056020908152604080832033845290915290205460ff165b6107dc576040517f08c379a000000000000000000000000000000000000000000000000000000000815260206004820152600e60248201527f4e4f545f415554484f52495a454400000000000000000000000000000000000060448201526064015b60405180910390fd5b60008281526004602052604080822080547fffffffffffffffffffffffff00000000000000000000000000000000000000001673ffffffffffffffffffffffffffffffffffffffff87811691821790925591518593918516917f8c5be1e5ebec7d5bd14f71427d1e84f3dd0314c0f7b2291e5b200ac8c7c3b92591a4505050565b60008181526002602052604090205473ffffffffffffffffffffffffffffffffffffffff8481169116146108ed576040517f08c379a000000000000000000000000000000000000000000000000000000000815260206004820152600a60248201527f57524f4e475f46524f4d0000000000000000000000000000000000000000000060448201526064016107d3565b73ffffffffffffffffffffffffffffffffffffffff821661096a576040517f08c379a000000000000000000000000000000000000000000000000000000000815260206004820152601160248201527f494e56414c49445f524543495049454e5400000000000000000000000000000060448201526064016107d3565b3373ffffffffffffffffffffffffffffffffffffffff841614806109be575073ffffffffffffffffffffffffffffffffffffffff8316600090815260056020908152604080832033845290915290205460ff165b806109ec575060008181526004602052604090205473ffffffffffffffffffffffffffffffffffffffff1633145b610a52576040517f08c379a000000000000000000000000000000000000000000000000000000000815260206004820152600e60248201527f4e4f545f415554484f52495a454400000000000000000000000000000000000060448201526064016107d3565b73ffffffffffffffffffffffffffffffffffffffff808416600081815260036020908152604080832080547fffffffffffffffffffffffffffffffffffffffffffffffffffffffffffffffff019055938616808352848320805460010190558583526002825284832080547fffffffffffffffffffffffff00000000000000000000000000000000000000009081168317909155600490925284832080549092169091559251849392917fddf252ad1be2c89b69c2b068fc378daa952ba7f163c4a11628f55a4df523b3ef91a4505050565b610b2c6115ba565b604051479060009073ffffffffffffffffffffffffffffffffffffffff84169083908381818185875af1925050503d8060008114610b86576040519150601f19603f3d011682016040523d82523d6000602084013e610b8b565b606091505b5050905080610bc6576040517fd23a9e8900000000000000000000000000000000000000000000000000000000815260040160405180910390fd5b505050565b610bd683838361085d565b73ffffffffffffffffffffffffffffffffffffffff82163b1580610cca57506040517f150b7a020000000000000000000000000000000000000000000000000000000080825233600483015273ffffffffffffffffffffffffffffffffffffffff858116602484015260448301849052608060648401526000608484015290919084169063150b7a029060a4016020604051808303816000875af1158015610c82573d6000803e3d6000fd5b505050506040513d601f19601f82011682018060405250810190610ca69190611ee1565b7fffffffff0000000000000000000000000000000000000000000000000000000016145b610bc6576040517f08c379a000000000000000000000000000000000000000000000000000000000815260206004820152601060248201527f554e534146455f524543495049454e540000000000000000000000000000000060448201526064016107d3565b60008181526002602052604090205473ffffffffffffffffffffffffffffffffffffffff1680610dbc576040517f08c379a000000000000000000000000000000000000000000000000000000000815260206004820152600a60248201527f4e4f545f4d494e5445440000000000000000000000000000000000000000000060448201526064016107d3565b919050565b73ffffffffffffffffffffffffffffffffffffffff811660009081526009602052604081205460ff1615610e51576040517f08c379a000000000000000000000000000000000000000000000000000000000815260206004820152601560248201527f416c7265616479206d696e74656420616e204e4654000000000000000000000060448201526064016107d3565b600a5462010000900460ff161515600114610eee576040517f08c379a000000000000000000000000000000000000000000000000000000000815260206004820152602160248201527f5075626c6963206d696e74696e67206973206e6f7420616c6c6f77656420796560448201527f740000000000000000000000000000000000000000000000000000000000000060648201526084016107d3565b61067a8261163b565b6007805461068d90611e8e565b600073ffffffffffffffffffffffffffffffffffffffff8216610f83576040517f08c379a000000000000000000000000000000000000000000000000000000000815260206004820152600c60248201527f5a45524f5f41444452455353000000000000000000000000000000000000000060448201526064016107d3565b5073ffffffffffffffffffffffffffffffffffffffff1660009081526003602052604090205490565b610fb46115ba565b610fbe6000611771565b565b610fc86115ba565b600a80547fffffffffffffffffffffffffffffffffffffffffffffffffffffffffff0000001662010000179055565b6001805461068d90611e8e565b73ffffffffffffffffffffffffffffffffffffffff841660009081526009602052604081205460ff1615611064576040517fddefae2800000000000000000000000000000000000000000000000000000000815260040160405180910390fd5b600a5460ff1615156001036110dd57836001146110dd576040517f08c379a000000000000000000000000000000000000000000000000000000000815260206004820152601760248201527f4e6f7420616c6c6f77656420746f206d696e742079657400000000000000000060448201526064016107d3565b6040517fffffffffffffffffffffffffffffffffffffffff000000000000000000000000606087901b166020820152603481018590526000906054016040516020818303038152906040528051906020012090506111918484808060200260200160405190810160405280939291908181526020018383602002808284376000920191909152507f000000000000000000000000000000000000000000000000000000000000000092508591506117e89050565b61121d576040517f08c379a000000000000000000000000000000000000000000000000000000000815260206004820152602260248201527f496e76616c6964206d65726b6c6520747265652070726f6f6620737570706c6960448201527f656400000000000000000000000000000000000000000000000000000000000060648201526084016107d3565b6112268661163b565b9695505050505050565b33600081815260056020908152604080832073ffffffffffffffffffffffffffffffffffffffff87168085529083529281902080547fffffffffffffffffffffffffffffffffffffffffffffffffffffffffffffff001686151590811790915590519081529192917f17307eab39ab6107e8899845ad3d59bd9653f200f220920489ca2b5937696c31910160405180910390a35050565b6112cf6115ba565b600a80547fffffffffffffffffffffffffffffffffffffffffffffffffffffffffff00000016610100179055565b61130885858561085d565b73ffffffffffffffffffffffffffffffffffffffff84163b15806113ea57506040517f150b7a02000000000000000000000000000000000000000000000000000000008082529073ffffffffffffffffffffffffffffffffffffffff86169063150b7a02906113839033908a90899089908990600401611efe565b6020604051808303816000875af11580156113a2573d6000803e3d6000fd5b505050506040513d601f19601f820116820180604052508101906113c69190611ee1565b7fffffffff0000000000000000000000000000000000000000000000000000000016145b611450576040517f08c379a000000000000000000000000000000000000000000000000000000000815260206004820152601060248201527f554e534146455f524543495049454e540000000000000000000000000000000060448201526064016107d3565b5050505050565b6060600061146483610d30565b73ffffffffffffffffffffffffffffffffffffffff16036114b1576040517fd872946b00000000000000000000000000000000000000000000000000000000815260040160405180910390fd5b6000600780546114c090611e8e565b9050116114dc576040518060200160405280600081525061067a565b60076040516020016114ee9190611f7d565b60405160208183030381529060405292915050565b61150b6115ba565b73ffffffffffffffffffffffffffffffffffffffff81166115ae576040517f08c379a000000000000000000000000000000000000000000000000000000000815260206004820152602660248201527f4f776e61626c653a206e6577206f776e657220697320746865207a65726f206160448201527f646472657373000000000000000000000000000000000000000000000000000060648201526084016107d3565b6115b781611771565b50565b60065473ffffffffffffffffffffffffffffffffffffffff163314610fbe576040517f08c379a000000000000000000000000000000000000000000000000000000000815260206004820181905260248201527f4f776e61626c653a2063616c6c6572206973206e6f7420746865206f776e657260448201526064016107d3565b600067011c37937e080000341461167e576040517f21e191e200000000000000000000000000000000000000000000000000000000815260040160405180910390fd5b600060086000815461168f90612080565b918290555090506109c48111156116d2576040517fb36c128400000000000000000000000000000000000000000000000000000000815260040160405180910390fd5b73ffffffffffffffffffffffffffffffffffffffff8316600090815260096020526040902080547fffffffffffffffffffffffffffffffffffffffffffffffffffffffffffffff0016600117905561172a83826117fe565b60405173ffffffffffffffffffffffffffffffffffffffff8416907f90ddedd5a25821bba11fbb98de02ec1f75c1be90ae147d6450ce873e7b78b5d890600090a292915050565b6006805473ffffffffffffffffffffffffffffffffffffffff8381167fffffffffffffffffffffffff0000000000000000000000000000000000000000831681179093556040519116919082907f8be0079c531659141344cd1fd0a4f28419497f9722a3daafe3b4186f6b6457e090600090a35050565b6000826117f58584611963565b14949350505050565b61180882826119b0565b73ffffffffffffffffffffffffffffffffffffffff82163b15806118f957506040517f150b7a0200000000000000000000000000000000000000000000000000000000808252336004830152600060248301819052604483018490526080606484015260848301529073ffffffffffffffffffffffffffffffffffffffff84169063150b7a029060a4016020604051808303816000875af11580156118b1573d6000803e3d6000fd5b505050506040513d601f19601f820116820180604052508101906118d59190611ee1565b7fffffffff0000000000000000000000000000000000000000000000000000000016145b61195f576040517f08c379a000000000000000000000000000000000000000000000000000000000815260206004820152601060248201527f554e534146455f524543495049454e540000000000000000000000000000000060448201526064016107d3565b5050565b600081815b84518110156119a85761199482868381518110611987576119876120df565b6020026020010151611b49565b9150806119a081612080565b915050611968565b509392505050565b73ffffffffffffffffffffffffffffffffffffffff8216611a2d576040517f08c379a000000000000000000000000000000000000000000000000000000000815260206004820152601160248201527f494e56414c49445f524543495049454e5400000000000000000000000000000060448201526064016107d3565b60008181526002602052604090205473ffffffffffffffffffffffffffffffffffffffff1615611ab9576040517f08c379a000000000000000000000000000000000000000000000000000000000815260206004820152600e60248201527f414c52454144595f4d494e54454400000000000000000000000000000000000060448201526064016107d3565b73ffffffffffffffffffffffffffffffffffffffff8216600081815260036020908152604080832080546001019055848352600290915280822080547fffffffffffffffffffffffff0000000000000000000000000000000000000000168417905551839291907fddf252ad1be2c89b69c2b068fc378daa952ba7f163c4a11628f55a4df523b3ef908290a45050565b6000818310611b65576000828152602084905260409020611b74565b60008381526020839052604090205b9392505050565b7fffffffff00000000000000000000000000000000000000000000000000000000811681146115b757600080fd5b600060208284031215611bbb57600080fd5b8135611b7481611b7b565b600060208083528351808285015260005b81811015611bf357858101830151858201604001528201611bd7565b5060006040828601015260407fffffffffffffffffffffffffffffffffffffffffffffffffffffffffffffffe0601f8301168501019250505092915050565b600060208284031215611c4457600080fd5b5035919050565b73ffffffffffffffffffffffffffffffffffffffff811681146115b757600080fd5b60008060408385031215611c8057600080fd5b8235611c8b81611c4b565b946020939093013593505050565b600060208284031215611cab57600080fd5b8135611b7481611c4b565b600080600060608486031215611ccb57600080fd5b8335611cd681611c4b565b92506020840135611ce681611c4b565b929592945050506040919091013590565b60008060008060608587031215611d0d57600080fd5b8435611d1881611c4b565b935060208501359250604085013567ffffffffffffffff80821115611d3c57600080fd5b818701915087601f830112611d5057600080fd5b813581811115611d5f57600080fd5b8860208260051b8501011115611d7457600080fd5b95989497505060200194505050565b60008060408385031215611d9657600080fd5b8235611da181611c4b565b915060208301358015158114611db657600080fd5b809150509250929050565b600080600080600060808688031215611dd957600080fd5b8535611de481611c4b565b94506020860135611df481611c4b565b935060408601359250606086013567ffffffffffffffff80821115611e1857600080fd5b818801915088601f830112611e2c57600080fd5b813581811115611e3b57600080fd5b896020828501011115611e4d57600080fd5b9699959850939650602001949392505050565b60008060408385031215611e7357600080fd5b8235611e7e81611c4b565b91506020830135611db681611c4b565b600181811c90821680611ea257607f821691505b602082108103611edb577f4e487b7100000000000000000000000000000000000000000000000000000000600052602260045260246000fd5b50919050565b600060208284031215611ef357600080fd5b8151611b7481611b7b565b600073ffffffffffffffffffffffffffffffffffffffff808816835280871660208401525084604083015260806060830152826080830152828460a0840137600060a0848401015260a07fffffffffffffffffffffffffffffffffffffffffffffffffffffffffffffffe0601f85011683010190509695505050505050565b600080835481600182811c915080831680611f9957607f831692505b60208084108203611fd1577f4e487b710000000000000000000000000000000000000000000000000000000086526022600452602486fd5b818015611fe5576001811461201857612045565b7fffffffffffffffffffffffffffffffffffffffffffffffffffffffffffffff0086168952841515850289019650612045565b60008a81526020902060005b8681101561203d5781548b820152908501908301612024565b505084890196505b505050505050612078817f636f756e63696c6d6574616461746100000000000000000000000000000000008152600f0190565b949350505050565b60007fffffffffffffffffffffffffffffffffffffffffffffffffffffffffffffffff82036120d8577f4e487b7100000000000000000000000000000000000000000000000000000000600052601160045260246000fd5b5060010190565b7f4e487b7100000000000000000000000000000000000000000000000000000000600052603260045260246000fdfea26469706673582212207b8e326eb147cd06f804f8178a44c56973b8d341344830f7406adf2108e853cd64736f6c63430008100033",
    "linkReferences": {}
  },
  "methodIdentifiers": {
    "MINT_PRICE()": "c002d23d",
    "TOTAL_SUPPLY()": "902d55a5",
    "allowlistMint()": "41fbddbd",
    "alreadyMinted(address)": "0a398b88",
    "approve(address,uint256)": "095ea7b3",
    "balanceOf(address)": "70a08231",
    "baseURI()": "6c0360eb",
    "currentTokenId()": "009a9b7b",
    "getApproved(uint256)": "081812fc",
    "isApprovedForAll(address,address)": "e985e9c5",
    "mint(address)": "6a627842",
    "name()": "06fdde03",
    "owner()": "8da5cb5b",
    "ownerOf(uint256)": "6352211e",
    "privateMint(address,uint256,bytes32[])": "9886a902",
    "publicMint()": "26092b83",
    "renounceOwnership()": "715018a6",
    "safeTransferFrom(address,address,uint256)": "42842e0e",
    "safeTransferFrom(address,address,uint256,bytes)": "b88d4fde",
    "setApprovalForAll(address,bool)": "a22cb465",
    "startPublicMint()": "76c64c62",
    "startWaitlistMint()": "a839e501",
    "supportsInterface(bytes4)": "01ffc9a7",
    "symbol()": "95d89b41",
    "tokenURI(uint256)": "c87b56dd",
    "transferFrom(address,address,uint256)": "23b872dd",
    "transferOwnership(address)": "f2fde38b",
    "waitlistMint()": "aebb096c",
    "withdrawPayments(address)": "31b3eb94"
  },
  "id": 0
}