{
  "abi": [
    {
      "inputs": [
        {
          "internalType": "string",
          "name": "_name",
          "type": "string"
        },
        {
          "internalType": "string",
          "name": "_symbol",
          "type": "string"
        },
        {
          "internalType": "string",
          "name": "_baseURI",
          "type": "string"
        },
        {
          "internalType": "bytes32",
          "name": "_root",
          "type": "bytes32"
        }
      ],
      "stateMutability": "nonpayable",
      "type": "constructor"
    },
    {
      "inputs": [],
      "name": "AlreadyMinted",
      "type": "error"
    },
    {
      "inputs": [],
      "name": "MaxSupply",
      "type": "error"
    },
    {
      "inputs": [],
      "name": "MintPriceNotPaid",
      "type": "error"
    },
    {
      "inputs": [],
      "name": "NonExistentTokenURI",
      "type": "error"
    },
    {
      "inputs": [],
      "name": "WithdrawTransfer",
      "type": "error"
    },
    {
      "anonymous": false,
      "inputs": [
        {
          "indexed": true,
          "internalType": "address",
          "name": "owner",
          "type": "address"
        },
        {
          "indexed": true,
          "internalType": "address",
          "name": "spender",
          "type": "address"
        },
        {
          "indexed": true,
          "internalType": "uint256",
          "name": "id",
          "type": "uint256"
        }
      ],
      "name": "Approval",
      "type": "event"
    },
    {
      "anonymous": false,
      "inputs": [
        {
          "indexed": true,
          "internalType": "address",
          "name": "owner",
          "type": "address"
        },
        {
          "indexed": true,
          "internalType": "address",
          "name": "operator",
          "type": "address"
        },
        {
          "indexed": false,
          "internalType": "bool",
          "name": "approved",
          "type": "bool"
        }
      ],
      "name": "ApprovalForAll",
      "type": "event"
    },
    {
      "anonymous": false,
      "inputs": [
        {
          "indexed": true,
          "internalType": "address",
          "name": "previousOwner",
          "type": "address"
        },
        {
          "indexed": true,
          "internalType": "address",
          "name": "newOwner",
          "type": "address"
        }
      ],
      "name": "OwnershipTransferred",
      "type": "event"
    },
    {
      "anonymous": false,
      "inputs": [
        {
          "indexed": true,
          "internalType": "address",
          "name": "from",
          "type": "address"
        },
        {
          "indexed": true,
          "internalType": "address",
          "name": "to",
          "type": "address"
        },
        {
          "indexed": true,
          "internalType": "uint256",
          "name": "id",
          "type": "uint256"
        }
      ],
      "name": "Transfer",
      "type": "event"
    },
    {
      "inputs": [],
      "name": "MINT_PRICE",
      "outputs": [
        {
          "internalType": "uint256",
          "name": "",
          "type": "uint256"
        }
      ],
      "stateMutability": "view",
      "type": "function"
    },
    {
      "inputs": [],
      "name": "TOTAL_SUPPLY",
      "outputs": [
        {
          "internalType": "uint256",
          "name": "",
          "type": "uint256"
        }
      ],
      "stateMutability": "view",
      "type": "function"
    },
    {
      "inputs": [],
      "name": "allowlistMint",
      "outputs": [
        {
          "internalType": "bool",
          "name": "",
          "type": "bool"
        }
      ],
      "stateMutability": "view",
      "type": "function"
    },
    {
      "inputs": [
        {
          "internalType": "address",
          "name": "",
          "type": "address"
        }
      ],
      "name": "alreadyMinted",
      "outputs": [
        {
          "internalType": "bool",
          "name": "",
          "type": "bool"
        }
      ],
      "stateMutability": "view",
      "type": "function"
    },
    {
      "inputs": [
        {
          "internalType": "address",
          "name": "spender",
          "type": "address"
        },
        {
          "internalType": "uint256",
          "name": "id",
          "type": "uint256"
        }
      ],
      "name": "approve",
      "outputs": [],
      "stateMutability": "nonpayable",
      "type": "function"
    },
    {
      "inputs": [
        {
          "internalType": "address",
          "name": "owner",
          "type": "address"
        }
      ],
      "name": "balanceOf",
      "outputs": [
        {
          "internalType": "uint256",
          "name": "",
          "type": "uint256"
        }
      ],
      "stateMutability": "view",
      "type": "function"
    },
    {
      "inputs": [],
      "name": "baseURI",
      "outputs": [
        {
          "internalType": "string",
          "name": "",
          "type": "string"
        }
      ],
      "stateMutability": "view",
      "type": "function"
    },
    {
      "inputs": [],
      "name": "currentTokenId",
      "outputs": [
        {
          "internalType": "uint256",
          "name": "",
          "type": "uint256"
        }
      ],
      "stateMutability": "view",
      "type": "function"
    },
    {
      "inputs": [
        {
          "internalType": "uint256",
          "name": "",
          "type": "uint256"
        }
      ],
      "name": "getApproved",
      "outputs": [
        {
          "internalType": "address",
          "name": "",
          "type": "address"
        }
      ],
      "stateMutability": "view",
      "type": "function"
    },
    {
      "inputs": [
        {
          "internalType": "address",
          "name": "",
          "type": "address"
        },
        {
          "internalType": "address",
          "name": "",
          "type": "address"
        }
      ],
      "name": "isApprovedForAll",
      "outputs": [
        {
          "internalType": "bool",
          "name": "",
          "type": "bool"
        }
      ],
      "stateMutability": "view",
      "type": "function"
    },
    {
      "inputs": [
        {
          "internalType": "address",
          "name": "recipient",
          "type": "address"
        }
      ],
      "name": "mint",
      "outputs": [
        {
          "internalType": "uint256",
          "name": "",
          "type": "uint256"
        }
      ],
      "stateMutability": "payable",
      "type": "function"
    },
    {
      "inputs": [],
      "name": "name",
      "outputs": [
        {
          "internalType": "string",
          "name": "",
          "type": "string"
        }
      ],
      "stateMutability": "view",
      "type": "function"
    },
    {
      "inputs": [],
      "name": "owner",
      "outputs": [
        {
          "internalType": "address",
          "name": "",
          "type": "address"
        }
      ],
      "stateMutability": "view",
      "type": "function"
    },
    {
      "inputs": [
        {
          "internalType": "uint256",
          "name": "id",
          "type": "uint256"
        }
      ],
      "name": "ownerOf",
      "outputs": [
        {
          "internalType": "address",
          "name": "owner",
          "type": "address"
        }
      ],
      "stateMutability": "view",
      "type": "function"
    },
    {
      "inputs": [
        {
          "internalType": "address",
          "name": "recipient",
          "type": "address"
        },
        {
          "internalType": "uint256",
          "name": "allowance",
          "type": "uint256"
        },
        {
          "internalType": "bytes32[]",
          "name": "proof",
          "type": "bytes32[]"
        }
      ],
      "name": "privateMint",
      "outputs": [
        {
          "internalType": "uint256",
          "name": "",
          "type": "uint256"
        }
      ],
      "stateMutability": "payable",
      "type": "function"
    },
    {
      "inputs": [],
      "name": "publicMint",
      "outputs": [
        {
          "internalType": "bool",
          "name": "",
          "type": "bool"
        }
      ],
      "stateMutability": "view",
      "type": "function"
    },
    {
      "inputs": [],
      "name": "renounceOwnership",
      "outputs": [],
      "stateMutability": "nonpayable",
      "type": "function"
    },
    {
      "inputs": [
        {
          "internalType": "address",
          "name": "from",
          "type": "address"
        },
        {
          "internalType": "address",
          "name": "to",
          "type": "address"
        },
        {
          "internalType": "uint256",
          "name": "id",
          "type": "uint256"
        }
      ],
      "name": "safeTransferFrom",
      "outputs": [],
      "stateMutability": "nonpayable",
      "type": "function"
    },
    {
      "inputs": [
        {
          "internalType": "address",
          "name": "from",
          "type": "address"
        },
        {
          "internalType": "address",
          "name": "to",
          "type": "address"
        },
        {
          "internalType": "uint256",
          "name": "id",
          "type": "uint256"
        },
        {
          "internalType": "bytes",
          "name": "data",
          "type": "bytes"
        }
      ],
      "name": "safeTransferFrom",
      "outputs": [],
      "stateMutability": "nonpayable",
      "type": "function"
    },
    {
      "inputs": [
        {
          "internalType": "address",
          "name": "operator",
          "type": "address"
        },
        {
          "internalType": "bool",
          "name": "approved",
          "type": "bool"
        }
      ],
      "name": "setApprovalForAll",
      "outputs": [],
      "stateMutability": "nonpayable",
      "type": "function"
    },
    {
      "inputs": [],
      "name": "startPublicMint",
      "outputs": [],
      "stateMutability": "nonpayable",
      "type": "function"
    },
    {
      "inputs": [],
      "name": "startWaitlistMint",
      "outputs": [],
      "stateMutability": "nonpayable",
      "type": "function"
    },
    {
      "inputs": [
        {
          "internalType": "bytes4",
          "name": "interfaceId",
          "type": "bytes4"
        }
      ],
      "name": "supportsInterface",
      "outputs": [
        {
          "internalType": "bool",
          "name": "",
          "type": "bool"
        }
      ],
      "stateMutability": "view",
      "type": "function"
    },
    {
      "inputs": [],
      "name": "symbol",
      "outputs": [
        {
          "internalType": "string",
          "name": "",
          "type": "string"
        }
      ],
      "stateMutability": "view",
      "type": "function"
    },
    {
      "inputs": [
        {
          "internalType": "uint256",
          "name": "tokenId",
          "type": "uint256"
        }
      ],
      "name": "tokenURI",
      "outputs": [
        {
          "internalType": "string",
          "name": "",
          "type": "string"
        }
      ],
      "stateMutability": "view",
      "type": "function"
    },
    {
      "inputs": [
        {
          "internalType": "address",
          "name": "from",
          "type": "address"
        },
        {
          "internalType": "address",
          "name": "to",
          "type": "address"
        },
        {
          "internalType": "uint256",
          "name": "id",
          "type": "uint256"
        }
      ],
      "name": "transferFrom",
      "outputs": [],
      "stateMutability": "nonpayable",
      "type": "function"
    },
    {
      "inputs": [
        {
          "internalType": "address",
          "name": "newOwner",
          "type": "address"
        }
      ],
      "name": "transferOwnership",
      "outputs": [],
      "stateMutability": "nonpayable",
      "type": "function"
    },
    {
      "inputs": [],
      "name": "waitlistMint",
      "outputs": [
        {
          "internalType": "bool",
          "name": "",
          "type": "bool"
        }
      ],
      "stateMutability": "view",
      "type": "function"
    },
    {
      "inputs": [
        {
          "internalType": "address payable",
          "name": "payee",
          "type": "address"
        }
      ],
      "name": "withdrawPayments",
      "outputs": [],
      "stateMutability": "nonpayable",
      "type": "function"
    }
  ],
  "bytecode": {
    "object": "0x60a06040523480156200001157600080fd5b5060405162001c9638038062001c968339810160408190526200003491620001b3565b83836000620000448382620002db565b506001620000538282620002db565b505050620000706200006a6200009860201b60201c565b6200009c565b60076200007e8382620002db565b506080525050600a805460ff1916600117905550620003a7565b3390565b600680546001600160a01b038381166001600160a01b0319831681179093556040519116919082907f8be0079c531659141344cd1fd0a4f28419497f9722a3daafe3b4186f6b6457e090600090a35050565b634e487b7160e01b600052604160045260246000fd5b600082601f8301126200011657600080fd5b81516001600160401b0380821115620001335762000133620000ee565b604051601f8301601f19908116603f011681019082821181831017156200015e576200015e620000ee565b816040528381526020925086838588010111156200017b57600080fd5b600091505b838210156200019f578582018301518183018401529082019062000180565b600093810190920192909252949350505050565b60008060008060808587031215620001ca57600080fd5b84516001600160401b0380821115620001e257600080fd5b620001f08883890162000104565b955060208701519150808211156200020757600080fd5b620002158883890162000104565b945060408701519150808211156200022c57600080fd5b506200023b8782880162000104565b606096909601519497939650505050565b600181811c908216806200026157607f821691505b6020821081036200028257634e487b7160e01b600052602260045260246000fd5b50919050565b601f821115620002d657600081815260208120601f850160051c81016020861015620002b15750805b601f850160051c820191505b81811015620002d257828155600101620002bd565b5050505b505050565b81516001600160401b03811115620002f757620002f7620000ee565b6200030f816200030884546200024c565b8462000288565b602080601f8311600181146200034757600084156200032e5750858301515b600019600386901b1c1916600185901b178555620002d2565b600085815260208120601f198616915b82811015620003785788860151825594840194600190910190840162000357565b5085821015620003975787850151600019600388901b60f8161c191681555b5050505050600190811b01905550565b6080516118d3620003c36000396000610d3601526118d36000f3fe6080604052600436106101c15760003560e01c806370a08231116100f7578063a22cb46511610095578063c002d23d11610064578063c002d23d146104dd578063c87b56dd146104f9578063e985e9c514610519578063f2fde38b1461055457600080fd5b8063a22cb46514610469578063a839e50114610489578063aebb096c1461049e578063b88d4fde146104bd57600080fd5b80638da5cb5b116100d15780638da5cb5b1461040d578063902d55a51461042b57806395d89b41146104415780639886a9021461045657600080fd5b806370a08231146103c3578063715018a6146103e357806376c64c62146103f857600080fd5b806326092b831161016457806342842e0e1161013e57806342842e0e1461035b5780636352211e1461037b5780636a6278421461039b5780636c0360eb146103ae57600080fd5b806326092b831461030157806331b3eb941461032157806341fbddbd1461034157600080fd5b8063081812fc116101a0578063081812fc14610241578063095ea7b31461028f5780630a398b88146102b157806323b872dd146102e157600080fd5b80629a9b7b146101c657806301ffc9a7146101ef57806306fdde031461021f575b600080fd5b3480156101d257600080fd5b506101dc60085481565b6040519081526020015b60405180910390f35b3480156101fb57600080fd5b5061020f61020a366004611413565b610574565b60405190151581526020016101e6565b34801561022b57600080fd5b506102346105c6565b6040516101e69190611430565b34801561024d57600080fd5b5061027761025c36600461147e565b6004602052600090815260409020546001600160a01b031681565b6040516001600160a01b0390911681526020016101e6565b34801561029b57600080fd5b506102af6102aa3660046114ac565b610654565b005b3480156102bd57600080fd5b5061020f6102cc3660046114d8565b60096020526000908152604090205460ff1681565b3480156102ed57600080fd5b506102af6102fc3660046114f5565b61073b565b34801561030d57600080fd5b50600a5461020f9062010000900460ff1681565b34801561032d57600080fd5b506102af61033c3660046114d8565b610902565b34801561034d57600080fd5b50600a5461020f9060ff1681565b34801561036757600080fd5b506102af6103763660046114f5565b610983565b34801561038757600080fd5b5061027761039636600461147e565b610a53565b6101dc6103a93660046114d8565b610aaa565b3480156103ba57600080fd5b50610234610b7b565b3480156103cf57600080fd5b506101dc6103de3660046114d8565b610b88565b3480156103ef57600080fd5b506102af610beb565b34801561040457600080fd5b506102af610bff565b34801561041957600080fd5b506006546001600160a01b0316610277565b34801561043757600080fd5b506101dc6109c481565b34801561044d57600080fd5b50610234610c1a565b6101dc610464366004611536565b610c27565b34801561047557600080fd5b506102af6104843660046115c2565b610dcb565b34801561049557600080fd5b506102af610e37565b3480156104aa57600080fd5b50600a5461020f90610100900460ff1681565b3480156104c957600080fd5b506102af6104d8366004611600565b610e51565b3480156104e957600080fd5b506101dc67011c37937e08000081565b34801561050557600080fd5b5061023461051436600461147e565b610f16565b34801561052557600080fd5b5061020f61053436600461169f565b600560209081526000928352604080842090915290825290205460ff1681565b34801561056057600080fd5b506102af61056f3660046114d8565b610f9c565b60006301ffc9a760e01b6001600160e01b0319831614806105a557506380ac58cd60e01b6001600160e01b03198316145b806105c05750635b5e139f60e01b6001600160e01b03198316145b92915050565b600080546105d3906116cd565b80601f01602080910402602001604051908101604052809291908181526020018280546105ff906116cd565b801561064c5780601f106106215761010080835404028352916020019161064c565b820191906000526020600020905b81548152906001019060200180831161062f57829003601f168201915b505050505081565b6000818152600260205260409020546001600160a01b03163381148061069d57506001600160a01b038116600090815260056020908152604080832033845290915290205460ff165b6106df5760405162461bcd60e51b815260206004820152600e60248201526d1393d517d055551213d49256915160921b60448201526064015b60405180910390fd5b60008281526004602052604080822080546001600160a01b0319166001600160a01b0387811691821790925591518593918516917f8c5be1e5ebec7d5bd14f71427d1e84f3dd0314c0f7b2291e5b200ac8c7c3b92591a4505050565b6000818152600260205260409020546001600160a01b038481169116146107915760405162461bcd60e51b815260206004820152600a60248201526957524f4e475f46524f4d60b01b60448201526064016106d6565b6001600160a01b0382166107db5760405162461bcd60e51b81526020600482015260116024820152701253959053125117d49150d25412515395607a1b60448201526064016106d6565b336001600160a01b038416148061081557506001600160a01b038316600090815260056020908152604080832033845290915290205460ff165b8061083657506000818152600460205260409020546001600160a01b031633145b6108735760405162461bcd60e51b815260206004820152600e60248201526d1393d517d055551213d49256915160921b60448201526064016106d6565b6001600160a01b0380841660008181526003602090815260408083208054600019019055938616808352848320805460010190558583526002825284832080546001600160a01b03199081168317909155600490925284832080549092169091559251849392917fddf252ad1be2c89b69c2b068fc378daa952ba7f163c4a11628f55a4df523b3ef91a4505050565b61090a611015565b60405147906000906001600160a01b0384169083908381818185875af1925050503d8060008114610957576040519150601f19603f3d011682016040523d82523d6000602084013e61095c565b606091505b505090508061097e5760405163d23a9e8960e01b815260040160405180910390fd5b505050565b61098e83838361073b565b6001600160a01b0382163b1580610a375750604051630a85bd0160e11b8082523360048301526001600160a01b03858116602484015260448301849052608060648401526000608484015290919084169063150b7a029060a4016020604051808303816000875af1158015610a07573d6000803e3d6000fd5b505050506040513d601f19601f82011682018060405250810190610a2b9190611707565b6001600160e01b031916145b61097e5760405162461bcd60e51b81526004016106d690611724565b6000818152600260205260409020546001600160a01b031680610aa55760405162461bcd60e51b815260206004820152600a6024820152691393d517d3525395115160b21b60448201526064016106d6565b919050565b6001600160a01b03811660009081526009602052604081205460ff1615610b0b5760405162461bcd60e51b8152602060048201526015602482015274105b1c9958591e481b5a5b9d195908185b88139195605a1b60448201526064016106d6565b600a5462010000900460ff161515600114610b725760405162461bcd60e51b815260206004820152602160248201527f5075626c6963206d696e74696e67206973206e6f7420616c6c6f7765642079656044820152601d60fa1b60648201526084016106d6565b6105c08261106f565b600780546105d3906116cd565b60006001600160a01b038216610bcf5760405162461bcd60e51b815260206004820152600c60248201526b5a45524f5f4144445245535360a01b60448201526064016106d6565b506001600160a01b031660009081526003602052604090205490565b610bf3611015565b610bfd600061113b565b565b610c07611015565b600a805462ffffff191662010000179055565b600180546105d3906116cd565b6001600160a01b03841660009081526009602052604081205460ff1615610c6157604051631bbdf5c560e31b815260040160405180910390fd5b600a5460ff161515600103610cc05783600114610cc05760405162461bcd60e51b815260206004820152601760248201527f4e6f7420616c6c6f77656420746f206d696e742079657400000000000000000060448201526064016106d6565b6040516bffffffffffffffffffffffff19606087901b16602082015260348101859052600090605401604051602081830303815290604052805190602001209050610d618484808060200260200160405190810160405280939291908181526020018383602002808284376000920191909152507f0000000000000000000000000000000000000000000000000000000000000000925085915061118d9050565b610db85760405162461bcd60e51b815260206004820152602260248201527f496e76616c6964206d65726b6c6520747265652070726f6f6620737570706c69604482015261195960f21b60648201526084016106d6565b610dc18661106f565b9695505050505050565b3360008181526005602090815260408083206001600160a01b03871680855290835292819020805460ff191686151590811790915590519081529192917f17307eab39ab6107e8899845ad3d59bd9653f200f220920489ca2b5937696c31910160405180910390a35050565b610e3f611015565b600a805462ffffff1916610100179055565b610e5c85858561073b565b6001600160a01b0384163b1580610ef35750604051630a85bd0160e11b808252906001600160a01b0386169063150b7a0290610ea49033908a9089908990899060040161174e565b6020604051808303816000875af1158015610ec3573d6000803e3d6000fd5b505050506040513d601f19601f82011682018060405250810190610ee79190611707565b6001600160e01b031916145b610f0f5760405162461bcd60e51b81526004016106d690611724565b5050505050565b60606000610f2383610a53565b6001600160a01b031603610f4a5760405163d872946b60e01b815260040160405180910390fd5b600060078054610f59906116cd565b905011610f7557604051806020016040528060008152506105c0565b6007604051602001610f8791906117a2565b60405160208183030381529060405292915050565b610fa4611015565b6001600160a01b0381166110095760405162461bcd60e51b815260206004820152602660248201527f4f776e61626c653a206e6577206f776e657220697320746865207a65726f206160448201526564647265737360d01b60648201526084016106d6565b6110128161113b565b50565b6006546001600160a01b03163314610bfd5760405162461bcd60e51b815260206004820181905260248201527f4f776e61626c653a2063616c6c6572206973206e6f7420746865206f776e657260448201526064016106d6565b600067011c37937e0800003414611099576040516310f0c8f160e11b815260040160405180910390fd5b60006008600081546110aa90611860565b918290555090506109c48111156110d457604051632cdb04a160e21b815260040160405180910390fd5b6001600160a01b0383166000908152600960205260409020805460ff1916600117905561110183826111a3565b6040516001600160a01b038416907f90ddedd5a25821bba11fbb98de02ec1f75c1be90ae147d6450ce873e7b78b5d890600090a292915050565b600680546001600160a01b038381166001600160a01b0319831681179093556040519116919082907f8be0079c531659141344cd1fd0a4f28419497f9722a3daafe3b4186f6b6457e090600090a35050565b60008261119a8584611273565b14949350505050565b6111ad82826112c0565b6001600160a01b0382163b15806112535750604051630a85bd0160e11b80825233600483015260006024830181905260448301849052608060648401526084830152906001600160a01b0384169063150b7a029060a4016020604051808303816000875af1158015611223573d6000803e3d6000fd5b505050506040513d601f19601f820116820180604052508101906112479190611707565b6001600160e01b031916145b61126f5760405162461bcd60e51b81526004016106d690611724565b5050565b600081815b84518110156112b8576112a48286838151811061129757611297611887565b60200260200101516113cb565b9150806112b081611860565b915050611278565b509392505050565b6001600160a01b03821661130a5760405162461bcd60e51b81526020600482015260116024820152701253959053125117d49150d25412515395607a1b60448201526064016106d6565b6000818152600260205260409020546001600160a01b0316156113605760405162461bcd60e51b815260206004820152600e60248201526d1053149150511657d3525395115160921b60448201526064016106d6565b6001600160a01b038216600081815260036020908152604080832080546001019055848352600290915280822080546001600160a01b0319168417905551839291907fddf252ad1be2c89b69c2b068fc378daa952ba7f163c4a11628f55a4df523b3ef908290a45050565b60008183106113e75760008281526020849052604090206113f6565b60008381526020839052604090205b9392505050565b6001600160e01b03198116811461101257600080fd5b60006020828403121561142557600080fd5b81356113f6816113fd565b600060208083528351808285015260005b8181101561145d57858101830151858201604001528201611441565b506000604082860101526040601f19601f8301168501019250505092915050565b60006020828403121561149057600080fd5b5035919050565b6001600160a01b038116811461101257600080fd5b600080604083850312156114bf57600080fd5b82356114ca81611497565b946020939093013593505050565b6000602082840312156114ea57600080fd5b81356113f681611497565b60008060006060848603121561150a57600080fd5b833561151581611497565b9250602084013561152581611497565b929592945050506040919091013590565b6000806000806060858703121561154c57600080fd5b843561155781611497565b935060208501359250604085013567ffffffffffffffff8082111561157b57600080fd5b818701915087601f83011261158f57600080fd5b81358181111561159e57600080fd5b8860208260051b85010111156115b357600080fd5b95989497505060200194505050565b600080604083850312156115d557600080fd5b82356115e081611497565b9150602083013580151581146115f557600080fd5b809150509250929050565b60008060008060006080868803121561161857600080fd5b853561162381611497565b9450602086013561163381611497565b935060408601359250606086013567ffffffffffffffff8082111561165757600080fd5b818801915088601f83011261166b57600080fd5b81358181111561167a57600080fd5b89602082850101111561168c57600080fd5b9699959850939650602001949392505050565b600080604083850312156116b257600080fd5b82356116bd81611497565b915060208301356115f581611497565b600181811c908216806116e157607f821691505b60208210810361170157634e487b7160e01b600052602260045260246000fd5b50919050565b60006020828403121561171957600080fd5b81516113f6816113fd565b60208082526010908201526f155394d0519157d49150d2541251539560821b604082015260600190565b6001600160a01b038681168252851660208201526040810184905260806060820181905281018290526000828460a0840137600060a0848401015260a0601f19601f85011683010190509695505050505050565b600080835481600182811c9150808316806117be57607f831692505b602080841082036117dd57634e487b7160e01b86526022600452602486fd5b8180156117f1576001811461180657611833565b60ff1986168952841515850289019650611833565b60008a81526020902060005b8681101561182b5781548b820152908501908301611812565b505084890196505b505050505050611858816e636f756e63696c6d6574616461746160881b8152600f0190565b949350505050565b60006001820161188057634e487b7160e01b600052601160045260246000fd5b5060010190565b634e487b7160e01b600052603260045260246000fdfea264697066735822122005fb6764abd06fac982c022e8cb44f1fcc2307dcbf14a1ba0d82509cd5207beb64736f6c63430008110033",
    "linkReferences": {}
  },
  "methodIdentifiers": {
    "MINT_PRICE()": "c002d23d",
    "TOTAL_SUPPLY()": "902d55a5",
    "allowlistMint()": "41fbddbd",
    "alreadyMinted(address)": "0a398b88",
    "approve(address,uint256)": "095ea7b3",
    "balanceOf(address)": "70a08231",
    "baseURI()": "6c0360eb",
    "currentTokenId()": "009a9b7b",
    "getApproved(uint256)": "081812fc",
    "isApprovedForAll(address,address)": "e985e9c5",
    "mint(address)": "6a627842",
    "name()": "06fdde03",
    "owner()": "8da5cb5b",
    "ownerOf(uint256)": "6352211e",
    "privateMint(address,uint256,bytes32[])": "9886a902",
    "publicMint()": "26092b83",
    "renounceOwnership()": "715018a6",
    "safeTransferFrom(address,address,uint256)": "42842e0e",
    "safeTransferFrom(address,address,uint256,bytes)": "b88d4fde",
    "setApprovalForAll(address,bool)": "a22cb465",
    "startPublicMint()": "76c64c62",
    "startWaitlistMint()": "a839e501",
    "supportsInterface(bytes4)": "01ffc9a7",
    "symbol()": "95d89b41",
    "tokenURI(uint256)": "c87b56dd",
    "transferFrom(address,address,uint256)": "23b872dd",
    "transferOwnership(address)": "f2fde38b",
    "waitlistMint()": "aebb096c",
    "withdrawPayments(address)": "31b3eb94"
  },
  "id": 6
}