{
  "abi": [
    {
      "inputs": [
        {
          "internalType": "string",
          "name": "name_",
          "type": "string"
        },
        {
          "internalType": "string",
          "name": "description_",
          "type": "string"
        },
        {
          "internalType": "address",
          "name": "spaceManager_",
          "type": "address"
        },
        {
          "internalType": "address",
          "name": "roleManager_",
          "type": "address"
        }
      ],
      "stateMutability": "nonpayable",
      "type": "constructor"
    },
    {
      "inputs": [],
      "name": "InvalidParameters",
      "type": "error"
    },
    {
      "inputs": [],
      "name": "NotSpaceManager",
      "type": "error"
    },
    {
      "inputs": [],
      "name": "_roleManager",
      "outputs": [
        {
          "internalType": "address",
          "name": "",
          "type": "address"
        }
      ],
      "stateMutability": "view",
      "type": "function"
    },
    {
      "inputs": [],
      "name": "_spaceManager",
      "outputs": [
        {
          "internalType": "address",
          "name": "",
          "type": "address"
        }
      ],
      "stateMutability": "view",
      "type": "function"
    },
    {
      "inputs": [],
      "name": "description",
      "outputs": [
        {
          "internalType": "string",
          "name": "",
          "type": "string"
        }
      ],
      "stateMutability": "view",
      "type": "function"
    },
    {
      "inputs": [
        {
          "internalType": "string",
          "name": "spaceId",
          "type": "string"
        },
        {
          "internalType": "string",
          "name": "channelId",
          "type": "string"
        },
        {
          "internalType": "address",
          "name": "user",
          "type": "address"
        }
      ],
      "name": "getUserRoles",
      "outputs": [
        {
          "components": [
            {
              "internalType": "uint256",
              "name": "roleId",
              "type": "uint256"
            },
            {
              "internalType": "string",
              "name": "name",
              "type": "string"
            }
          ],
          "internalType": "struct DataTypes.Role[]",
          "name": "",
          "type": "tuple[]"
        }
      ],
      "stateMutability": "view",
      "type": "function"
    },
    {
      "inputs": [
        {
          "internalType": "string",
          "name": "spaceId",
          "type": "string"
        },
        {
          "internalType": "string",
          "name": "channelId",
          "type": "string"
        },
        {
          "internalType": "address",
          "name": "user",
          "type": "address"
        },
        {
          "components": [
            {
              "internalType": "string",
              "name": "name",
              "type": "string"
            }
          ],
          "internalType": "struct DataTypes.Permission",
          "name": "permission",
          "type": "tuple"
        }
      ],
      "name": "isEntitled",
      "outputs": [
        {
          "internalType": "bool",
          "name": "",
          "type": "bool"
        }
      ],
      "stateMutability": "view",
      "type": "function"
    },
    {
      "inputs": [
        {
          "internalType": "string",
          "name": "spaceId",
          "type": "string"
        },
        {
          "internalType": "string",
          "name": "",
          "type": "string"
        },
        {
          "internalType": "address",
          "name": "user",
          "type": "address"
        },
        {
          "internalType": "string",
          "name": "tag",
          "type": "string"
        }
      ],
      "name": "isTokenEntitled",
      "outputs": [
        {
          "internalType": "bool",
          "name": "",
          "type": "bool"
        }
      ],
      "stateMutability": "view",
      "type": "function"
    },
    {
      "inputs": [],
      "name": "name",
      "outputs": [
        {
          "internalType": "string",
          "name": "",
          "type": "string"
        }
      ],
      "stateMutability": "view",
      "type": "function"
    },
    {
      "inputs": [
        {
          "internalType": "string",
          "name": "spaceId",
          "type": "string"
        },
        {
          "internalType": "string",
          "name": "channelId",
          "type": "string"
        },
        {
          "internalType": "uint256",
          "name": "roleId",
          "type": "uint256"
        },
        {
          "internalType": "bytes",
          "name": "entitlementData",
          "type": "bytes"
        }
      ],
      "name": "removeEntitlement",
      "outputs": [],
      "stateMutability": "nonpayable",
      "type": "function"
    },
    {
      "inputs": [
        {
          "internalType": "string",
          "name": "spaceId",
          "type": "string"
        },
        {
          "internalType": "string",
          "name": "channelId",
          "type": "string"
        },
        {
          "internalType": "uint256",
          "name": "roleId",
          "type": "uint256"
        },
        {
          "internalType": "bytes",
          "name": "entitlementData",
          "type": "bytes"
        }
      ],
      "name": "setEntitlement",
      "outputs": [],
      "stateMutability": "nonpayable",
      "type": "function"
    },
    {
      "inputs": [
        {
          "internalType": "bytes4",
          "name": "interfaceId",
          "type": "bytes4"
        }
      ],
      "name": "supportsInterface",
      "outputs": [
        {
          "internalType": "bool",
          "name": "",
          "type": "bool"
        }
      ],
      "stateMutability": "view",
      "type": "function"
    }
  ],
  "bytecode": {
    "object": "0x60c06040523480156200001157600080fd5b50604051620032243803806200322483398101604081905262000034916200017f565b838383836001600160a01b0382166200006057604051630e52390960e41b815260040160405180910390fd5b60006200006e85826200029d565b5060016200007d84826200029d565b506001600160a01b039182166080521660a0525062000369945050505050565b634e487b7160e01b600052604160045260246000fd5b600082601f830112620000c557600080fd5b81516001600160401b0380821115620000e257620000e26200009d565b604051601f8301601f19908116603f011681019082821181831017156200010d576200010d6200009d565b816040528381526020925086838588010111156200012a57600080fd5b600091505b838210156200014e57858201830151818301840152908201906200012f565b600093810190920192909252949350505050565b80516001600160a01b03811681146200017a57600080fd5b919050565b600080600080608085870312156200019657600080fd5b84516001600160401b0380821115620001ae57600080fd5b620001bc88838901620000b3565b95506020870151915080821115620001d357600080fd5b50620001e287828801620000b3565b935050620001f36040860162000162565b9150620002036060860162000162565b905092959194509250565b600181811c908216806200022357607f821691505b6020821081036200024457634e487b7160e01b600052602260045260246000fd5b50919050565b601f8211156200029857600081815260208120601f850160051c81016020861015620002735750805b601f850160051c820191505b8181101562000294578281556001016200027f565b5050505b505050565b81516001600160401b03811115620002b957620002b96200009d565b620002d181620002ca84546200020e565b846200024a565b602080601f831160018114620003095760008415620002f05750858301515b600019600386901b1c1916600185901b17855562000294565b600085815260208120601f198616915b828110156200033a5788860151825594840194600190910190840162000319565b5085821015620003595787850151600019600388901b60f8161c191681555b5050505050600190811b01905550565b60805160a051612e3a620003ea600039600081816101c7015281816105d9015281816114d40152611c830152600081816101050152818161034e015281816106e90152818161096201528181610b7f01528181610bfe01528181610dc70152818161100b0152818161108a015281816111d80152611bbc0152612e3a6000f3fe608060405234801561001057600080fd5b50600436106100be5760003560e01c8063b6439b7111610076578063c800fec41161005b578063c800fec41461019a578063ec6b643a146101af578063f4339a97146101c257600080fd5b8063b6439b7114610174578063bf77b6631461018757600080fd5b80633820c2ad116100a75780633820c2ad146101005780637284e4161461014c57806382ceca421461015457600080fd5b806301ffc9a7146100c357806306fdde03146100eb575b600080fd5b6100d66100d1366004611f07565b6101e9565b60405190151581526020015b60405180910390f35b6100f3610282565b6040516100e29190611fb7565b6101277f000000000000000000000000000000000000000000000000000000000000000081565b60405173ffffffffffffffffffffffffffffffffffffffff90911681526020016100e2565b6100f3610314565b610167610162366004612035565b610323565b6040516100e291906120b9565b6100d66101823660046122d4565b6106be565b6100d661019536600461237b565b610937565b6101ad6101a8366004612452565b610b67565b005b6101ad6101bd3660046124eb565b610ff3565b6101277f000000000000000000000000000000000000000000000000000000000000000081565b60007fffffffff0000000000000000000000000000000000000000000000000000000082167f6dabdcca00000000000000000000000000000000000000000000000000000000148061027c57507f01ffc9a7000000000000000000000000000000000000000000000000000000007fffffffff000000000000000000000000000000000000000000000000000000008316145b92915050565b6060600080546102919061258f565b80601f01602080910402602001604051908101604052809291908181526020018280546102bd9061258f565b801561030a5780601f106102df5761010080835404028352916020019161030a565b820191906000526020600020905b8154815290600101906020018083116102ed57829003601f168201915b5050505050905090565b6060600180546102919061258f565b6040517f9ddd0d6b0000000000000000000000000000000000000000000000000000000081526060907f00000000000000000000000000000000000000000000000000000000000000009060009073ffffffffffffffffffffffffffffffffffffffff831690639ddd0d6b9061039f908b908b9060040161262b565b602060405180830381865afa1580156103bc573d6000803e3d6000fd5b505050506040513d601f19601f820116820180604052508101906103e09190612647565b9050600060026000838152602001908152602001600020600101805480602002602001604051908101604052809291908181526020016000905b828210156104c65783829060005260206000200180546104399061258f565b80601f01602080910402602001604051908101604052809291908181526020018280546104659061258f565b80156104b25780601f10610487576101008083540402835291602001916104b2565b820191906000526020600020905b81548152906001019060200180831161049557829003601f168201915b50505050508152602001906001019061041a565b5050505090506000815167ffffffffffffffff8111156104e8576104e861214b565b60405190808252806020026020018201604052801561052e57816020015b6040805180820190915260008152606060208201528152602001906001900390816105065790505b50905060005b82518110156106ae57600083828151811061055157610551612660565b602002602001015190506105698c8c8c8c8c866106be565b1561069b57600085815260026020526040808220905161058a90849061268f565b908152604051908190036020018120600101547fd9af4ecf000000000000000000000000000000000000000000000000000000008252915073ffffffffffffffffffffffffffffffffffffffff7f0000000000000000000000000000000000000000000000000000000000000000169063d9af4ecf906106199089908590600401918252602082015260400190565b600060405180830381865afa158015610636573d6000803e3d6000fd5b505050506040513d6000823e601f3d9081017fffffffffffffffffffffffffffffffffffffffffffffffffffffffffffffffe016820160405261067c9190810190612742565b84848151811061068e5761068e612660565b6020026020010181905250505b50806106a681612777565b915050610534565b5093505050505b95945050505050565b6040517f9ddd0d6b0000000000000000000000000000000000000000000000000000000081526000907f000000000000000000000000000000000000000000000000000000000000000090829073ffffffffffffffffffffffffffffffffffffffff831690639ddd0d6b90610739908c908c9060040161262b565b602060405180830381865afa158015610756573d6000803e3d6000fd5b505050506040513d601f19601f8201168201806040525081019061077a9190612647565b6000818152600260205260408082209051929350909161079b90879061268f565b9081526020016040518091039020600401805480602002602001604051908101604052809291908181526020016000905b8282101561083b5760008481526020908190206040805160808101825260048602909201805473ffffffffffffffffffffffffffffffffffffffff16835260018082015484860152600282015460ff1615159284019290925260030154606083015290835290920191016107cc565b5050505090506000805b825181101561092657600083828151811061086257610862612660565b6020026020010151602001519050600084838151811061088457610884612660565b602002602001015160600151905060008584815181106108a6576108a6612660565b602002602001015160400151905060008685815181106108c8576108c8612660565b60200260200101516000015190506108e3818d8685876115f5565b806108f457506108f4818d866117b4565b15610902576001955061090f565b6000955050505050610926565b50505050808061091e90612777565b915050610845565b5093505050505b9695505050505050565b6040517f9ddd0d6b0000000000000000000000000000000000000000000000000000000081526000907f000000000000000000000000000000000000000000000000000000000000000090829073ffffffffffffffffffffffffffffffffffffffff831690639ddd0d6b906109b2908c908c9060040161262b565b602060405180830381865afa1580156109cf573d6000803e3d6000fd5b505050506040513d601f19601f820116820180604052508101906109f39190612647565b90506000600260008381526020019081526020016000206003018560000151604051610a1f919061268f565b9081526020016040518091039020805480602002602001604051908101604052809291908181526020016000905b82821015610af9578382906000526020600020018054610a6c9061258f565b80601f0160208091040260200160405190810160405280929190818152602001828054610a989061258f565b8015610ae55780601f10610aba57610100808354040283529160200191610ae5565b820191906000526020600020905b815481529060010190602001808311610ac857829003601f168201915b505050505081526020019060010190610a4d565b50505050905060005b8151811015610b5657610b328b8b8b8b8b878781518110610b2557610b25612660565b60200260200101516106be565b15610b4457600194505050505061092d565b80610b4e81612777565b915050610b02565b5060009a9950505050505050505050565b3373ffffffffffffffffffffffffffffffffffffffff7f00000000000000000000000000000000000000000000000000000000000000001614610bd6576040517f2596a42e00000000000000000000000000000000000000000000000000000000815260040160405180910390fd5b6040517f9ddd0d6b0000000000000000000000000000000000000000000000000000000081527f00000000000000000000000000000000000000000000000000000000000000009060009073ffffffffffffffffffffffffffffffffffffffff831690639ddd0d6b90610c4d908a90600401611fb7565b602060405180830381865afa158015610c6a573d6000803e3d6000fd5b505050506040513d601f19601f82011682018060405250810190610c8e9190612647565b905060008273ffffffffffffffffffffffffffffffffffffffff16633e66eae389896040518363ffffffff1660e01b8152600401610ccd9291906127d6565b602060405180830381865afa158015610cea573d6000803e3d6000fd5b505050506040513d601f19601f82011682018060405250810190610d0e9190612647565b905060008373ffffffffffffffffffffffffffffffffffffffff16632a4bdf258a6040518263ffffffff1660e01b8152600401610d4b9190611fb7565b6020604051808303816000875af1158015610d6a573d6000803e3d6000fd5b505050506040513d601f19601f82011682018060405250810190610d8e91906127fb565b905073ffffffffffffffffffffffffffffffffffffffff8116331480610de957503373ffffffffffffffffffffffffffffffffffffffff7f000000000000000000000000000000000000000000000000000000000000000016145b610e7a576040517f08c379a000000000000000000000000000000000000000000000000000000000815260206004820152602660248201527f4f6e6c7920746865206f776e65722063616e2075706461746520656e7469746c60448201527f656d656e7473000000000000000000000000000000000000000000000000000060648201526084015b60405180910390fd5b6000610e888688018861283c565b80518a519192509015610f5057600085815260036020908152604080832087845282528083208c84529091529020610ec1888a836129c2565b50600085815260026020818152604080842088855290920190528082209051610eeb90849061268f565b90815260200160405180910390209050610f07818a8a8d611881565b600086815260026020818152604080842089855290920181529082206001908101805491820181558352912001610f3e8382612add565b50610f4a8c8b84611b7c565b50610fe6565b60008581526004602090815260408083208c84529091529020610f74888a836129c2565b506000858152600260205260408082209051610f9190849061268f565b90815260200160405180910390209050610fad818a8a8d611881565b600086815260026020908152604082206001908101805491820181558352912001610fd88382612add565b50610fe48c8b84611b7c565b505b5050505050505050505050565b3373ffffffffffffffffffffffffffffffffffffffff7f00000000000000000000000000000000000000000000000000000000000000001614611062576040517f2596a42e00000000000000000000000000000000000000000000000000000000815260040160405180910390fd5b6040517f9ddd0d6b0000000000000000000000000000000000000000000000000000000081527f00000000000000000000000000000000000000000000000000000000000000009060009073ffffffffffffffffffffffffffffffffffffffff831690639ddd0d6b906110db908c908c9060040161262b565b602060405180830381865afa1580156110f8573d6000803e3d6000fd5b505050506040513d601f19601f8201168201806040525081019061111c9190612647565b905060008273ffffffffffffffffffffffffffffffffffffffff16632a4bdf258b8b6040518363ffffffff1660e01b815260040161115b92919061262b565b6020604051808303816000875af115801561117a573d6000803e3d6000fd5b505050506040513d601f19601f8201168201806040525081019061119e91906127fb565b905073ffffffffffffffffffffffffffffffffffffffff8116331415806111fb57503373ffffffffffffffffffffffffffffffffffffffff7f00000000000000000000000000000000000000000000000000000000000000001614155b15611288576040517f08c379a000000000000000000000000000000000000000000000000000000000815260206004820152602660248201527f4f6e6c7920746865206f776e65722063616e2075706461746520656e7469746c60448201527f656d656e747300000000000000000000000000000000000000000000000000006064820152608401610e71565b600061129685870187612bf7565b905087156113fd576040517f3e66eae300000000000000000000000000000000000000000000000000000000815260009073ffffffffffffffffffffffffffffffffffffffff861690633e66eae3906112f9908f908f908f908f90600401612c2c565b602060405180830381865afa158015611316573d6000803e3d6000fd5b505050506040513d601f19601f8201168201806040525081019061133a9190612647565b600085815260036020908152604080832084845282528083208c845290915281209192506113689190611de6565b6000848152600260208181526040808420858552909201905290819020905161139290849061268f565b90815260405190819003602001902060006113ad8282611de6565b6000600183018190556002830180547fffffffffffffffffffffffff0000000000000000000000000000000000000000169055600383018190556113f5906004840190611e23565b5050506114a2565b60008381526004602090815260408083208a8452909152812061141f91611de6565b60008381526002602052604090819020905161143c90839061268f565b90815260405190819003602001902060006114578282611de6565b6000600183018190556002830180547fffffffffffffffffffffffff00000000000000000000000000000000000000001690556003830181905561149f906004840190611e23565b50505b6040517f52f1bea2000000000000000000000000000000000000000000000000000000008152600481018490526000907f000000000000000000000000000000000000000000000000000000000000000073ffffffffffffffffffffffffffffffffffffffff16906352f1bea290602401600060405180830381865afa158015611530573d6000803e3d6000fd5b505050506040513d6000823e601f3d9081017fffffffffffffffffffffffffffffffffffffffffffffffffffffffffffffffe01682016040526115769190810190612c5e565b905060005b81518110156115e6576002600086815260200190815260200160002060040160008383815181106115ae576115ae612660565b602002602001015160000151815260200190815260200160002060006115d49190611e44565b806115de81612777565b91505061157b565b50505050505050505050505050565b600082156116ea576040517f6352211e0000000000000000000000000000000000000000000000000000000081526004810183905273ffffffffffffffffffffffffffffffffffffffff871690636352211e90602401602060405180830381865afa9250505080156116a2575060408051601f3d9081017fffffffffffffffffffffffffffffffffffffffffffffffffffffffffffffffe016820190925261169f918101906127fb565b60015b156117a8578573ffffffffffffffffffffffffffffffffffffffff168173ffffffffffffffffffffffffffffffffffffffff16036116e45760019150506106b5565b506117a8565b6040517f70a0823100000000000000000000000000000000000000000000000000000000815273ffffffffffffffffffffffffffffffffffffffff86811660048301528716906370a0823190602401602060405180830381865afa925050508015611790575060408051601f3d9081017fffffffffffffffffffffffffffffffffffffffffffffffffffffffffffffffe016820190925261178d91810190612647565b60015b156117a8578481106117a65760019150506106b5565b505b50600095945050505050565b6040517f70a0823100000000000000000000000000000000000000000000000000000000815273ffffffffffffffffffffffffffffffffffffffff8381166004830152600091908516906370a0823190602401602060405180830381865afa92505050801561185e575060408051601f3d9081017fffffffffffffffffffffffffffffffffffffffffffffffffffffffffffffffe016820190925261185b91810190612647565b60015b156118765782811061187457600191505061187a565b505b5060005b9392505050565b600061188f8385018561283c565b9050806020015151600003611900576040517f08c379a000000000000000000000000000000000000000000000000000000000815260206004820152600d60248201527f4e6f20746f6b656e7320736574000000000000000000000000000000000000006044820152606401610e71565b602081015160005b8151811015611b2b57600073ffffffffffffffffffffffffffffffffffffffff1682828151811061193b5761193b612660565b60200260200101516000015173ffffffffffffffffffffffffffffffffffffffff16036119c4576040517f08c379a000000000000000000000000000000000000000000000000000000000815260206004820152601260248201527f4e6f20746f6b656e732070726f766964656400000000000000000000000000006044820152606401610e71565b8181815181106119d6576119d6612660565b602002602001015160200151600003611a4b576040517f08c379a000000000000000000000000000000000000000000000000000000000815260206004820152601660248201527f4e6f207175616e7469746965732070726f7669646564000000000000000000006044820152606401610e71565b6000828281518110611a5f57611a5f612660565b60209081029190910181015160048a810180546001808201835560009283529185902084519190930290920180547fffffffffffffffffffffffff00000000000000000000000000000000000000001673ffffffffffffffffffffffffffffffffffffffff909316929092178255928201519281019290925560408101516002830180547fffffffffffffffffffffffffffffffffffffffffffffffffffffffffffffff0016911515919091179055606001516003909101555080611b2381612777565b915050611908565b506002860180547fffffffffffffffffffffffff000000000000000000000000000000000000000016331790554260038701556001860183905581518690611b739082612add565b50505050505050565b6040517f9ddd0d6b00000000000000000000000000000000000000000000000000000000815260009073ffffffffffffffffffffffffffffffffffffffff7f00000000000000000000000000000000000000000000000000000000000000001690639ddd0d6b90611bf1908790600401611fb7565b602060405180830381865afa158015611c0e573d6000803e3d6000fd5b505050506040513d601f19601f82011682018060405250810190611c329190612647565b6040517fa7d325fc000000000000000000000000000000000000000000000000000000008152600481018290526024810185905290915060009073ffffffffffffffffffffffffffffffffffffffff7f0000000000000000000000000000000000000000000000000000000000000000169063a7d325fc90604401600060405180830381865afa158015611cca573d6000803e3d6000fd5b505050506040513d6000823e601f3d9081017fffffffffffffffffffffffffffffffffffffffffffffffffffffffffffffffe0168201604052611d109190810190612d0f565b905060005b8151811015611dde576000828281518110611d3257611d32612660565b602002602001015190506000816000015190506002600086815260200190815260200160002060030181604051611d69919061268f565b908152604051602091819003820190208054600181018255600091825291902001611d948782612add565b5060008581526002602090815260408083208a8452600401825282208054600181018255908352912001611dc88782612add565b5050508080611dd690612777565b915050611d15565b505050505050565b508054611df29061258f565b6000825580601f10611e02575050565b601f016020900490600052602060002090810190611e209190611e62565b50565b5080546000825560040290600052602060002090810190611e209190611e7b565b5080546000825590600052602060002090810190611e209190611eea565b5b80821115611e775760008155600101611e63565b5090565b5b80821115611e775780547fffffffffffffffffffffffff00000000000000000000000000000000000000001681556000600182018190556002820180547fffffffffffffffffffffffffffffffffffffffffffffffffffffffffffffff001690556003820155600401611e7c565b80821115611e77576000611efe8282611de6565b50600101611eea565b600060208284031215611f1957600080fd5b81357fffffffff000000000000000000000000000000000000000000000000000000008116811461187a57600080fd5b60005b83811015611f64578181015183820152602001611f4c565b50506000910152565b60008151808452611f85816020860160208601611f49565b601f017fffffffffffffffffffffffffffffffffffffffffffffffffffffffffffffffe0169290920160200192915050565b60208152600061187a6020830184611f6d565b60008083601f840112611fdc57600080fd5b50813567ffffffffffffffff811115611ff457600080fd5b60208301915083602082850101111561200c57600080fd5b9250929050565b73ffffffffffffffffffffffffffffffffffffffff81168114611e2057600080fd5b60008060008060006060868803121561204d57600080fd5b853567ffffffffffffffff8082111561206557600080fd5b61207189838a01611fca565b9097509550602088013591508082111561208a57600080fd5b5061209788828901611fca565b90945092505060408601356120ab81612013565b809150509295509295909350565b60006020808301818452808551808352604092508286019150828160051b87010184880160005b8381101561213d578883037fffffffffffffffffffffffffffffffffffffffffffffffffffffffffffffffc001855281518051845287015187840187905261212a87850182611f6d565b95880195935050908601906001016120e0565b509098975050505050505050565b7f4e487b7100000000000000000000000000000000000000000000000000000000600052604160045260246000fd5b6040516020810167ffffffffffffffff8111828210171561219d5761219d61214b565b60405290565b6040805190810167ffffffffffffffff8111828210171561219d5761219d61214b565b6040516080810167ffffffffffffffff8111828210171561219d5761219d61214b565b604051601f82017fffffffffffffffffffffffffffffffffffffffffffffffffffffffffffffffe016810167ffffffffffffffff811182821017156122305761223061214b565b604052919050565b600067ffffffffffffffff8211156122525761225261214b565b50601f017fffffffffffffffffffffffffffffffffffffffffffffffffffffffffffffffe01660200190565b600082601f83011261228f57600080fd5b81356122a261229d82612238565b6121e9565b8181528460208386010111156122b757600080fd5b816020850160208301376000918101602001919091529392505050565b600080600080600080608087890312156122ed57600080fd5b863567ffffffffffffffff8082111561230557600080fd5b6123118a838b01611fca565b9098509650602089013591508082111561232a57600080fd5b6123368a838b01611fca565b90965094506040890135915061234b82612013565b9092506060880135908082111561236157600080fd5b5061236e89828a0161227e565b9150509295509295509295565b6000806000806000806080878903121561239457600080fd5b863567ffffffffffffffff808211156123ac57600080fd5b6123b88a838b01611fca565b909850965060208901359150808211156123d157600080fd5b6123dd8a838b01611fca565b9096509450604089013591506123f282612013565b9092506060880135908082111561240857600080fd5b908801906020828b03121561241c57600080fd5b61242461217a565b82358281111561243357600080fd5b61243f8c82860161227e565b8252508093505050509295509295509295565b60008060008060006080868803121561246a57600080fd5b853567ffffffffffffffff8082111561248257600080fd5b61248e89838a0161227e565b965060208801359150808211156124a457600080fd5b6124b089838a0161227e565b95506040880135945060608801359150808211156124cd57600080fd5b506124da88828901611fca565b969995985093965092949392505050565b60008060008060008060006080888a03121561250657600080fd5b873567ffffffffffffffff8082111561251e57600080fd5b61252a8b838c01611fca565b909950975060208a013591508082111561254357600080fd5b61254f8b838c01611fca565b909750955060408a0135945060608a013591508082111561256f57600080fd5b5061257c8a828b01611fca565b989b979a50959850939692959293505050565b600181811c908216806125a357607f821691505b6020821081036125dc577f4e487b7100000000000000000000000000000000000000000000000000000000600052602260045260246000fd5b50919050565b8183528181602085013750600060208284010152600060207fffffffffffffffffffffffffffffffffffffffffffffffffffffffffffffffe0601f840116840101905092915050565b60208152600061263f6020830184866125e2565b949350505050565b60006020828403121561265957600080fd5b5051919050565b7f4e487b7100000000000000000000000000000000000000000000000000000000600052603260045260246000fd5b600082516126a1818460208701611f49565b9190910192915050565b600082601f8301126126bc57600080fd5b81516126ca61229d82612238565b8181528460208386010111156126df57600080fd5b61263f826020830160208701611f49565b60006040828403121561270257600080fd5b61270a6121a3565b905081518152602082015167ffffffffffffffff81111561272a57600080fd5b612736848285016126ab565b60208301525092915050565b60006020828403121561275457600080fd5b815167ffffffffffffffff81111561276b57600080fd5b61263f848285016126f0565b60007fffffffffffffffffffffffffffffffffffffffffffffffffffffffffffffffff82036127cf577f4e487b7100000000000000000000000000000000000000000000000000000000600052601160045260246000fd5b5060010190565b6040815260006127e96040830185611f6d565b82810360208401526106b58185611f6d565b60006020828403121561280d57600080fd5b815161187a81612013565b600067ffffffffffffffff8211156128325761283261214b565b5060051b60200190565b6000602080838503121561284f57600080fd5b823567ffffffffffffffff8082111561286757600080fd5b8185019150604080838803121561287d57600080fd5b6128856121a3565b83358381111561289457600080fd5b6128a08982870161227e565b82525084840135838111156128b457600080fd5b80850194505087601f8501126128c957600080fd5b833592506128d961229d84612818565b83815260079390931b840185019285810190898511156128f857600080fd5b948601945b84861015612965576080868b0312156129165760008081fd5b61291e6121c6565b863561292981612013565b815286880135888201528487013580151581146129465760008081fd5b81860152606087810135908201528252608090950194908601906128fd565b95820195909552979650505050505050565b601f8211156129bd57600081815260208120601f850160051c8101602086101561299e5750805b601f850160051c820191505b81811015611dde578281556001016129aa565b505050565b67ffffffffffffffff8311156129da576129da61214b565b6129ee836129e8835461258f565b83612977565b6000601f841160018114612a405760008515612a0a5750838201355b7fffffffffffffffffffffffffffffffffffffffffffffffffffffffffffffffff600387901b1c1916600186901b178355612ad6565b6000838152602090207fffffffffffffffffffffffffffffffffffffffffffffffffffffffffffffffe0861690835b82811015612a8f5786850135825560209485019460019092019101612a6f565b5086821015612aca577fffffffffffffffffffffffffffffffffffffffffffffffffffffffffffffffff60f88860031b161c19848701351681555b505060018560011b0183555b5050505050565b815167ffffffffffffffff811115612af757612af761214b565b612b0b81612b05845461258f565b84612977565b602080601f831160018114612b5e5760008415612b285750858301515b7fffffffffffffffffffffffffffffffffffffffffffffffffffffffffffffffff600386901b1c1916600185901b178555611dde565b6000858152602081207fffffffffffffffffffffffffffffffffffffffffffffffffffffffffffffffe08616915b82811015612bab57888601518255948401946001909101908401612b8c565b5085821015612be757878501517fffffffffffffffffffffffffffffffffffffffffffffffffffffffffffffffff600388901b60f8161c191681555b5050505050600190811b01905550565b600060208284031215612c0957600080fd5b813567ffffffffffffffff811115612c2057600080fd5b61263f8482850161227e565b604081526000612c406040830186886125e2565b8281036020840152612c538185876125e2565b979650505050505050565b60006020808385031215612c7157600080fd5b825167ffffffffffffffff80821115612c8957600080fd5b818501915085601f830112612c9d57600080fd5b8151612cab61229d82612818565b81815260059190911b83018401908481019088831115612cca57600080fd5b8585015b83811015612d0257805185811115612ce65760008081fd5b612cf48b89838a01016126f0565b845250918601918601612cce565b5098975050505050505050565b60006020808385031215612d2257600080fd5b825167ffffffffffffffff80821115612d3a57600080fd5b818501915085601f830112612d4e57600080fd5b8151612d5c61229d82612818565b81815260059190911b83018401908481019088831115612d7b57600080fd5b8585015b83811015612d0257805185811115612d975760008081fd5b8601808b037fffffffffffffffffffffffffffffffffffffffffffffffffffffffffffffffe001881315612dcb5760008081fd5b612dd361217a565b8882015187811115612de55760008081fd5b612df38d8b838601016126ab565b825250845250918601918601612d7f56fea2646970667358221220b1073e51878dbce721462b9531897372f4a6c8e9f2e7f2d5afb6f4444609a1f764736f6c63430008110033",
    "linkReferences": {}
  },
  "methodIdentifiers": {
    "_roleManager()": "f4339a97",
    "_spaceManager()": "3820c2ad",
    "description()": "7284e416",
    "getUserRoles(string,string,address)": "82ceca42",
    "isEntitled(string,string,address,(string))": "bf77b663",
    "isTokenEntitled(string,string,address,string)": "b6439b71",
    "name()": "06fdde03",
    "removeEntitlement(string,string,uint256,bytes)": "ec6b643a",
    "setEntitlement(string,string,uint256,bytes)": "c800fec4",
    "supportsInterface(bytes4)": "01ffc9a7"
  },
  "id": 35
}