{
  "abi": [
    {
      "inputs": [
        {
          "internalType": "string",
          "name": "name_",
          "type": "string"
        },
        {
          "internalType": "string",
          "name": "description_",
          "type": "string"
        },
        {
          "internalType": "address",
          "name": "spaceManager_",
          "type": "address"
        },
        {
          "internalType": "address",
          "name": "roleManager_",
          "type": "address"
        }
      ],
      "stateMutability": "nonpayable",
      "type": "constructor"
    },
    {
      "inputs": [],
      "name": "InvalidParameters",
      "type": "error"
    },
    {
      "inputs": [],
      "name": "NotSpaceManager",
      "type": "error"
    },
    {
      "inputs": [],
      "name": "_roleManager",
      "outputs": [
        {
          "internalType": "address",
          "name": "",
          "type": "address"
        }
      ],
      "stateMutability": "view",
      "type": "function"
    },
    {
      "inputs": [],
      "name": "_spaceManager",
      "outputs": [
        {
          "internalType": "address",
          "name": "",
          "type": "address"
        }
      ],
      "stateMutability": "view",
      "type": "function"
    },
    {
      "inputs": [],
      "name": "description",
      "outputs": [
        {
          "internalType": "string",
          "name": "",
          "type": "string"
        }
      ],
      "stateMutability": "view",
      "type": "function"
    },
    {
      "inputs": [
        {
          "internalType": "string",
          "name": "spaceId",
          "type": "string"
        },
        {
          "internalType": "string",
          "name": "channelId",
          "type": "string"
        },
        {
          "internalType": "address",
          "name": "user",
          "type": "address"
        }
      ],
      "name": "getUserRoles",
      "outputs": [
        {
          "components": [
            {
              "internalType": "uint256",
              "name": "roleId",
              "type": "uint256"
            },
            {
              "internalType": "string",
              "name": "name",
              "type": "string"
            }
          ],
          "internalType": "struct DataTypes.Role[]",
          "name": "",
          "type": "tuple[]"
        }
      ],
      "stateMutability": "view",
      "type": "function"
    },
    {
      "inputs": [
        {
          "internalType": "string",
          "name": "spaceId",
          "type": "string"
        },
        {
          "internalType": "string",
          "name": "channelId",
          "type": "string"
        },
        {
          "internalType": "address",
          "name": "user",
          "type": "address"
        },
        {
          "components": [
            {
              "internalType": "string",
              "name": "name",
              "type": "string"
            }
          ],
          "internalType": "struct DataTypes.Permission",
          "name": "permission",
          "type": "tuple"
        }
      ],
      "name": "isEntitled",
      "outputs": [
        {
          "internalType": "bool",
          "name": "",
          "type": "bool"
        }
      ],
      "stateMutability": "view",
      "type": "function"
    },
    {
      "inputs": [
        {
          "internalType": "string",
          "name": "spaceId",
          "type": "string"
        },
        {
          "internalType": "string",
          "name": "",
          "type": "string"
        },
        {
          "internalType": "address",
          "name": "user",
          "type": "address"
        },
        {
          "internalType": "string",
          "name": "tag",
          "type": "string"
        }
      ],
      "name": "isTokenEntitled",
      "outputs": [
        {
          "internalType": "bool",
          "name": "",
          "type": "bool"
        }
      ],
      "stateMutability": "view",
      "type": "function"
    },
    {
      "inputs": [],
      "name": "name",
      "outputs": [
        {
          "internalType": "string",
          "name": "",
          "type": "string"
        }
      ],
      "stateMutability": "view",
      "type": "function"
    },
    {
      "inputs": [
        {
          "internalType": "string",
          "name": "spaceId",
          "type": "string"
        },
        {
          "internalType": "string",
          "name": "channelId",
          "type": "string"
        },
        {
          "internalType": "uint256[]",
          "name": "",
          "type": "uint256[]"
        },
        {
          "internalType": "bytes",
          "name": "entitlementData",
          "type": "bytes"
        }
      ],
      "name": "removeEntitlement",
      "outputs": [],
      "stateMutability": "nonpayable",
      "type": "function"
    },
    {
      "inputs": [
        {
          "internalType": "string",
          "name": "spaceId",
          "type": "string"
        },
        {
          "internalType": "string",
          "name": "channelId",
          "type": "string"
        },
        {
          "internalType": "uint256",
          "name": "roleId",
          "type": "uint256"
        },
        {
          "internalType": "bytes",
          "name": "entitlementData",
          "type": "bytes"
        }
      ],
      "name": "setEntitlement",
      "outputs": [],
      "stateMutability": "nonpayable",
      "type": "function"
    },
    {
      "inputs": [
        {
          "internalType": "bytes4",
          "name": "interfaceId",
          "type": "bytes4"
        }
      ],
      "name": "supportsInterface",
      "outputs": [
        {
          "internalType": "bool",
          "name": "",
          "type": "bool"
        }
      ],
      "stateMutability": "view",
      "type": "function"
    }
  ],
  "bytecode": {
    "object": "0x60c06040523480156200001157600080fd5b50604051620030a1380380620030a183398101604081905262000034916200017f565b838383836001600160a01b0382166200006057604051630e52390960e41b815260040160405180910390fd5b60006200006e85826200029d565b5060016200007d84826200029d565b506001600160a01b039182166080521660a0525062000369945050505050565b634e487b7160e01b600052604160045260246000fd5b600082601f830112620000c557600080fd5b81516001600160401b0380821115620000e257620000e26200009d565b604051601f8301601f19908116603f011681019082821181831017156200010d576200010d6200009d565b816040528381526020925086838588010111156200012a57600080fd5b600091505b838210156200014e57858201830151818301840152908201906200012f565b600093810190920192909252949350505050565b80516001600160a01b03811681146200017a57600080fd5b919050565b600080600080608085870312156200019657600080fd5b84516001600160401b0380821115620001ae57600080fd5b620001bc88838901620000b3565b95506020870151915080821115620001d357600080fd5b50620001e287828801620000b3565b935050620001f36040860162000162565b9150620002036060860162000162565b905092959194509250565b600181811c908216806200022357607f821691505b6020821081036200024457634e487b7160e01b600052602260045260246000fd5b50919050565b601f8211156200029857600081815260208120601f850160051c81016020861015620002735750805b601f850160051c820191505b8181101562000294578281556001016200027f565b5050505b505050565b81516001600160401b03811115620002b957620002b96200009d565b620002d181620002ca84546200020e565b846200024a565b602080601f831160018114620003095760008415620002f05750858301515b600019600386901b1c1916600185901b17855562000294565b600085815260208120601f198616915b828110156200033a5788860151825594840194600190910190840162000319565b5085821015620003595787850151600019600388901b60f8161c191681555b5050505050600190811b01905550565b60805160a051612cb7620003ea600039600081816101c70152818161079101528181610b790152611bca01526000818161011a0152818161032c015281816103ab0152818161057d015281816108ee01528181610c8901528181610f020152818161111f0152818161119e015281816113670152611b030152612cb76000f3fe608060405234801561001057600080fd5b50600436106100be5760003560e01c806382ceca4211610076578063bf77b6631161005b578063bf77b6631461019c578063c800fec4146101af578063f4339a97146101c257600080fd5b806382ceca4214610169578063b6439b711461018957600080fd5b8063257f5ea9116100a7578063257f5ea9146101005780633820c2ad146101155780637284e4161461016157600080fd5b806301ffc9a7146100c357806306fdde03146100eb575b600080fd5b6100d66100d1366004611e4e565b6101e9565b60405190151581526020015b60405180910390f35b6100f3610282565b6040516100e29190611efe565b61011361010e366004611f5a565b610314565b005b61013c7f000000000000000000000000000000000000000000000000000000000000000081565b60405173ffffffffffffffffffffffffffffffffffffffff90911681526020016100e2565b6100f36108b4565b61017c610177366004612071565b6108c3565b6040516100e291906120f5565b6100d6610197366004612310565b610c5e565b6100d66101aa3660046123b7565b610ed7565b6101136101bd36600461248e565b611107565b61013c7f000000000000000000000000000000000000000000000000000000000000000081565b60007fffffffff0000000000000000000000000000000000000000000000000000000082167fa4bfe65900000000000000000000000000000000000000000000000000000000148061027c57507f01ffc9a7000000000000000000000000000000000000000000000000000000007fffffffff000000000000000000000000000000000000000000000000000000008316145b92915050565b60606000805461029190612527565b80601f01602080910402602001604051908101604052809291908181526020018280546102bd90612527565b801561030a5780601f106102df5761010080835404028352916020019161030a565b820191906000526020600020905b8154815290600101906020018083116102ed57829003601f168201915b5050505050905090565b3373ffffffffffffffffffffffffffffffffffffffff7f00000000000000000000000000000000000000000000000000000000000000001614610383576040517f2596a42e00000000000000000000000000000000000000000000000000000000815260040160405180910390fd5b6040517f9ddd0d6b0000000000000000000000000000000000000000000000000000000081527f00000000000000000000000000000000000000000000000000000000000000009060009073ffffffffffffffffffffffffffffffffffffffff831690639ddd0d6b906103fc908d908d906004016125c3565b602060405180830381865afa158015610419573d6000803e3d6000fd5b505050506040513d601f19601f8201168201806040525081019061043d91906125df565b905060008273ffffffffffffffffffffffffffffffffffffffff16633e66eae38c8c8c8c6040518563ffffffff1660e01b815260040161048094939291906125f8565b602060405180830381865afa15801561049d573d6000803e3d6000fd5b505050506040513d601f19601f820116820180604052508101906104c191906125df565b905060008373ffffffffffffffffffffffffffffffffffffffff16632a4bdf258d8d6040518363ffffffff1660e01b81526004016105009291906125c3565b6020604051808303816000875af115801561051f573d6000803e3d6000fd5b505050506040513d601f19601f82011682018060405250810190610543919061262a565b905073ffffffffffffffffffffffffffffffffffffffff8116331415806105a057503373ffffffffffffffffffffffffffffffffffffffff7f00000000000000000000000000000000000000000000000000000000000000001614155b15610632576040517f08c379a000000000000000000000000000000000000000000000000000000000815260206004820152602660248201527f4f6e6c7920746865206f776e65722063616e2075706461746520656e7469746c60448201527f656d656e7473000000000000000000000000000000000000000000000000000060648201526084015b60405180910390fd5b600061064086880188612647565b905089156106dc576000848152600260208181526040808420878552909201905290819020905161067290839061267c565b908152604051908190036020019020600061068d8282611d2d565b6000600183018190556002830180547fffffffffffffffffffffffff0000000000000000000000000000000000000000169055600383018190556106d5906004840190611d6a565b505061075f565b6000848152600260205260409081902090516106f990839061267c565b90815260405190819003602001902060006107148282611d2d565b6000600183018190556002830180547fffffffffffffffffffffffff00000000000000000000000000000000000000001690556003830181905561075c906004840190611d6a565b50505b6040517f52f1bea2000000000000000000000000000000000000000000000000000000008152600481018590526000907f000000000000000000000000000000000000000000000000000000000000000073ffffffffffffffffffffffffffffffffffffffff16906352f1bea290602401600060405180830381865afa1580156107ed573d6000803e3d6000fd5b505050506040513d6000823e601f3d9081017fffffffffffffffffffffffffffffffffffffffffffffffffffffffffffffffe01682016040526108339190810190612753565b905060005b81518110156108a35760026000878152602001908152602001600020600401600083838151811061086b5761086b612804565b602002602001015160000151815260200190815260200160002060006108919190611d8b565b8061089b81612833565b915050610838565b505050505050505050505050505050565b60606001805461029190612527565b6040517f9ddd0d6b0000000000000000000000000000000000000000000000000000000081526060907f00000000000000000000000000000000000000000000000000000000000000009060009073ffffffffffffffffffffffffffffffffffffffff831690639ddd0d6b9061093f908b908b906004016125c3565b602060405180830381865afa15801561095c573d6000803e3d6000fd5b505050506040513d601f19601f8201168201806040525081019061098091906125df565b9050600060026000838152602001908152602001600020600101805480602002602001604051908101604052809291908181526020016000905b82821015610a665783829060005260206000200180546109d990612527565b80601f0160208091040260200160405190810160405280929190818152602001828054610a0590612527565b8015610a525780601f10610a2757610100808354040283529160200191610a52565b820191906000526020600020905b815481529060010190602001808311610a3557829003601f168201915b5050505050815260200190600101906109ba565b5050505090506000815167ffffffffffffffff811115610a8857610a88612187565b604051908082528060200260200182016040528015610ace57816020015b604080518082019091526000815260606020820152815260200190600190039081610aa65790505b50905060005b8251811015610c4e576000838281518110610af157610af1612804565b60200260200101519050610b098c8c8c8c8c86610c5e565b15610c3b576000858152600260205260408082209051610b2a90849061267c565b908152604051908190036020018120600101547fd9af4ecf000000000000000000000000000000000000000000000000000000008252915073ffffffffffffffffffffffffffffffffffffffff7f0000000000000000000000000000000000000000000000000000000000000000169063d9af4ecf90610bb99089908590600401918252602082015260400190565b600060405180830381865afa158015610bd6573d6000803e3d6000fd5b505050506040513d6000823e601f3d9081017fffffffffffffffffffffffffffffffffffffffffffffffffffffffffffffffe0168201604052610c1c9190810190612892565b848481518110610c2e57610c2e612804565b6020026020010181905250505b5080610c4681612833565b915050610ad4565b5093505050505b95945050505050565b6040517f9ddd0d6b0000000000000000000000000000000000000000000000000000000081526000907f000000000000000000000000000000000000000000000000000000000000000090829073ffffffffffffffffffffffffffffffffffffffff831690639ddd0d6b90610cd9908c908c906004016125c3565b602060405180830381865afa158015610cf6573d6000803e3d6000fd5b505050506040513d601f19601f82011682018060405250810190610d1a91906125df565b60008181526002602052604080822090519293509091610d3b90879061267c565b9081526020016040518091039020600401805480602002602001604051908101604052809291908181526020016000905b82821015610ddb5760008481526020908190206040805160808101825260048602909201805473ffffffffffffffffffffffffffffffffffffffff16835260018082015484860152600282015460ff161515928401929092526003015460608301529083529092019101610d6c565b5050505090506000805b8251811015610ec6576000838281518110610e0257610e02612804565b60200260200101516020015190506000848381518110610e2457610e24612804565b60200260200101516060015190506000858481518110610e4657610e46612804565b60200260200101516040015190506000868581518110610e6857610e68612804565b6020026020010151600001519050610e83818d86858761153c565b80610e945750610e94818d866116fb565b15610ea25760019550610eaf565b6000955050505050610ec6565b505050508080610ebe90612833565b915050610de5565b5093505050505b9695505050505050565b6040517f9ddd0d6b0000000000000000000000000000000000000000000000000000000081526000907f000000000000000000000000000000000000000000000000000000000000000090829073ffffffffffffffffffffffffffffffffffffffff831690639ddd0d6b90610f52908c908c906004016125c3565b602060405180830381865afa158015610f6f573d6000803e3d6000fd5b505050506040513d601f19601f82011682018060405250810190610f9391906125df565b90506000600260008381526020019081526020016000206003018560000151604051610fbf919061267c565b9081526020016040518091039020805480602002602001604051908101604052809291908181526020016000905b8282101561109957838290600052602060002001805461100c90612527565b80601f016020809104026020016040519081016040528092919081815260200182805461103890612527565b80156110855780601f1061105a57610100808354040283529160200191611085565b820191906000526020600020905b81548152906001019060200180831161106857829003601f168201915b505050505081526020019060010190610fed565b50505050905060005b81518110156110f6576110d28b8b8b8b8b8787815181106110c5576110c5612804565b6020026020010151610c5e565b156110e4576001945050505050610ecd565b806110ee81612833565b9150506110a2565b5060009a9950505050505050505050565b3373ffffffffffffffffffffffffffffffffffffffff7f00000000000000000000000000000000000000000000000000000000000000001614611176576040517f2596a42e00000000000000000000000000000000000000000000000000000000815260040160405180910390fd5b6040517f9ddd0d6b0000000000000000000000000000000000000000000000000000000081527f00000000000000000000000000000000000000000000000000000000000000009060009073ffffffffffffffffffffffffffffffffffffffff831690639ddd0d6b906111ed908a90600401611efe565b602060405180830381865afa15801561120a573d6000803e3d6000fd5b505050506040513d601f19601f8201168201806040525081019061122e91906125df565b905060008273ffffffffffffffffffffffffffffffffffffffff16633e66eae389896040518363ffffffff1660e01b815260040161126d9291906128c7565b602060405180830381865afa15801561128a573d6000803e3d6000fd5b505050506040513d601f19601f820116820180604052508101906112ae91906125df565b905060008373ffffffffffffffffffffffffffffffffffffffff16632a4bdf258a6040518263ffffffff1660e01b81526004016112eb9190611efe565b6020604051808303816000875af115801561130a573d6000803e3d6000fd5b505050506040513d601f19601f8201168201806040525081019061132e919061262a565b905073ffffffffffffffffffffffffffffffffffffffff811633148061138957503373ffffffffffffffffffffffffffffffffffffffff7f000000000000000000000000000000000000000000000000000000000000000016145b611415576040517f08c379a000000000000000000000000000000000000000000000000000000000815260206004820152602660248201527f4f6e6c7920746865206f776e65722063616e2075706461746520656e7469746c60448201527f656d656e747300000000000000000000000000000000000000000000000000006064820152608401610629565b6000611423868801886128ec565b80518a5191925090156114be5760008581526002602081815260408084208885529092019052808220905161145990849061267c565b90815260200160405180910390209050611475818a8a8d6117c8565b6000868152600260208181526040808420898552909201815290822060019081018054918201815583529120016114ac8382612a72565b506114b88c8b84611ac3565b5061152f565b60008581526002602052604080822090516114da90849061267c565b908152602001604051809103902090506114f6818a8a8d6117c8565b6000868152600260209081526040822060019081018054918201815583529120016115218382612a72565b5061152d8c8b84611ac3565b505b5050505050505050505050565b60008215611631576040517f6352211e0000000000000000000000000000000000000000000000000000000081526004810183905273ffffffffffffffffffffffffffffffffffffffff871690636352211e90602401602060405180830381865afa9250505080156115e9575060408051601f3d9081017fffffffffffffffffffffffffffffffffffffffffffffffffffffffffffffffe01682019092526115e69181019061262a565b60015b156116ef578573ffffffffffffffffffffffffffffffffffffffff168173ffffffffffffffffffffffffffffffffffffffff160361162b576001915050610c55565b506116ef565b6040517f70a0823100000000000000000000000000000000000000000000000000000000815273ffffffffffffffffffffffffffffffffffffffff86811660048301528716906370a0823190602401602060405180830381865afa9250505080156116d7575060408051601f3d9081017fffffffffffffffffffffffffffffffffffffffffffffffffffffffffffffffe01682019092526116d4918101906125df565b60015b156116ef578481106116ed576001915050610c55565b505b50600095945050505050565b6040517f70a0823100000000000000000000000000000000000000000000000000000000815273ffffffffffffffffffffffffffffffffffffffff8381166004830152600091908516906370a0823190602401602060405180830381865afa9250505080156117a5575060408051601f3d9081017fffffffffffffffffffffffffffffffffffffffffffffffffffffffffffffffe01682019092526117a2918101906125df565b60015b156117bd578281106117bb5760019150506117c1565b505b5060005b9392505050565b60006117d6838501856128ec565b9050806020015151600003611847576040517f08c379a000000000000000000000000000000000000000000000000000000000815260206004820152600d60248201527f4e6f20746f6b656e7320736574000000000000000000000000000000000000006044820152606401610629565b602081015160005b8151811015611a7257600073ffffffffffffffffffffffffffffffffffffffff1682828151811061188257611882612804565b60200260200101516000015173ffffffffffffffffffffffffffffffffffffffff160361190b576040517f08c379a000000000000000000000000000000000000000000000000000000000815260206004820152601260248201527f4e6f20746f6b656e732070726f766964656400000000000000000000000000006044820152606401610629565b81818151811061191d5761191d612804565b602002602001015160200151600003611992576040517f08c379a000000000000000000000000000000000000000000000000000000000815260206004820152601660248201527f4e6f207175616e7469746965732070726f7669646564000000000000000000006044820152606401610629565b60008282815181106119a6576119a6612804565b60209081029190910181015160048a810180546001808201835560009283529185902084519190930290920180547fffffffffffffffffffffffff00000000000000000000000000000000000000001673ffffffffffffffffffffffffffffffffffffffff909316929092178255928201519281019290925560408101516002830180547fffffffffffffffffffffffffffffffffffffffffffffffffffffffffffffff0016911515919091179055606001516003909101555080611a6a81612833565b91505061184f565b506002860180547fffffffffffffffffffffffff000000000000000000000000000000000000000016331790554260038701556001860183905581518690611aba9082612a72565b50505050505050565b6040517f9ddd0d6b00000000000000000000000000000000000000000000000000000000815260009073ffffffffffffffffffffffffffffffffffffffff7f00000000000000000000000000000000000000000000000000000000000000001690639ddd0d6b90611b38908790600401611efe565b602060405180830381865afa158015611b55573d6000803e3d6000fd5b505050506040513d601f19601f82011682018060405250810190611b7991906125df565b6040517fa7d325fc000000000000000000000000000000000000000000000000000000008152600481018290526024810185905290915060009073ffffffffffffffffffffffffffffffffffffffff7f0000000000000000000000000000000000000000000000000000000000000000169063a7d325fc90604401600060405180830381865afa158015611c11573d6000803e3d6000fd5b505050506040513d6000823e601f3d9081017fffffffffffffffffffffffffffffffffffffffffffffffffffffffffffffffe0168201604052611c579190810190612b8c565b905060005b8151811015611d25576000828281518110611c7957611c79612804565b602002602001015190506000816000015190506002600086815260200190815260200160002060030181604051611cb0919061267c565b908152604051602091819003820190208054600181018255600091825291902001611cdb8782612a72565b5060008581526002602090815260408083208a8452600401825282208054600181018255908352912001611d0f8782612a72565b5050508080611d1d90612833565b915050611c5c565b505050505050565b508054611d3990612527565b6000825580601f10611d49575050565b601f016020900490600052602060002090810190611d679190611da9565b50565b5080546000825560040290600052602060002090810190611d679190611dc2565b5080546000825590600052602060002090810190611d679190611e31565b5b80821115611dbe5760008155600101611daa565b5090565b5b80821115611dbe5780547fffffffffffffffffffffffff00000000000000000000000000000000000000001681556000600182018190556002820180547fffffffffffffffffffffffffffffffffffffffffffffffffffffffffffffff001690556003820155600401611dc3565b80821115611dbe576000611e458282611d2d565b50600101611e31565b600060208284031215611e6057600080fd5b81357fffffffff00000000000000000000000000000000000000000000000000000000811681146117c157600080fd5b60005b83811015611eab578181015183820152602001611e93565b50506000910152565b60008151808452611ecc816020860160208601611e90565b601f017fffffffffffffffffffffffffffffffffffffffffffffffffffffffffffffffe0169290920160200192915050565b6020815260006117c16020830184611eb4565b60008083601f840112611f2357600080fd5b50813567ffffffffffffffff811115611f3b57600080fd5b602083019150836020828501011115611f5357600080fd5b9250929050565b6000806000806000806000806080898b031215611f7657600080fd5b883567ffffffffffffffff80821115611f8e57600080fd5b611f9a8c838d01611f11565b909a50985060208b0135915080821115611fb357600080fd5b611fbf8c838d01611f11565b909850965060408b0135915080821115611fd857600080fd5b818b0191508b601f830112611fec57600080fd5b813581811115611ffb57600080fd5b8c60208260051b850101111561201057600080fd5b6020830196508095505060608b013591508082111561202e57600080fd5b5061203b8b828c01611f11565b999c989b5096995094979396929594505050565b73ffffffffffffffffffffffffffffffffffffffff81168114611d6757600080fd5b60008060008060006060868803121561208957600080fd5b853567ffffffffffffffff808211156120a157600080fd5b6120ad89838a01611f11565b909750955060208801359150808211156120c657600080fd5b506120d388828901611f11565b90945092505060408601356120e78161204f565b809150509295509295909350565b60006020808301818452808551808352604092508286019150828160051b87010184880160005b83811015612179578883037fffffffffffffffffffffffffffffffffffffffffffffffffffffffffffffffc001855281518051845287015187840187905261216687850182611eb4565b958801959350509086019060010161211c565b509098975050505050505050565b7f4e487b7100000000000000000000000000000000000000000000000000000000600052604160045260246000fd5b6040516020810167ffffffffffffffff811182821017156121d9576121d9612187565b60405290565b6040805190810167ffffffffffffffff811182821017156121d9576121d9612187565b6040516080810167ffffffffffffffff811182821017156121d9576121d9612187565b604051601f82017fffffffffffffffffffffffffffffffffffffffffffffffffffffffffffffffe016810167ffffffffffffffff8111828210171561226c5761226c612187565b604052919050565b600067ffffffffffffffff82111561228e5761228e612187565b50601f017fffffffffffffffffffffffffffffffffffffffffffffffffffffffffffffffe01660200190565b600082601f8301126122cb57600080fd5b81356122de6122d982612274565b612225565b8181528460208386010111156122f357600080fd5b816020850160208301376000918101602001919091529392505050565b6000806000806000806080878903121561232957600080fd5b863567ffffffffffffffff8082111561234157600080fd5b61234d8a838b01611f11565b9098509650602089013591508082111561236657600080fd5b6123728a838b01611f11565b9096509450604089013591506123878261204f565b9092506060880135908082111561239d57600080fd5b506123aa89828a016122ba565b9150509295509295509295565b600080600080600080608087890312156123d057600080fd5b863567ffffffffffffffff808211156123e857600080fd5b6123f48a838b01611f11565b9098509650602089013591508082111561240d57600080fd5b6124198a838b01611f11565b90965094506040890135915061242e8261204f565b9092506060880135908082111561244457600080fd5b908801906020828b03121561245857600080fd5b6124606121b6565b82358281111561246f57600080fd5b61247b8c8286016122ba565b8252508093505050509295509295509295565b6000806000806000608086880312156124a657600080fd5b853567ffffffffffffffff808211156124be57600080fd5b6124ca89838a016122ba565b965060208801359150808211156124e057600080fd5b6124ec89838a016122ba565b955060408801359450606088013591508082111561250957600080fd5b5061251688828901611f11565b969995985093965092949392505050565b600181811c9082168061253b57607f821691505b602082108103612574577f4e487b7100000000000000000000000000000000000000000000000000000000600052602260045260246000fd5b50919050565b8183528181602085013750600060208284010152600060207fffffffffffffffffffffffffffffffffffffffffffffffffffffffffffffffe0601f840116840101905092915050565b6020815260006125d760208301848661257a565b949350505050565b6000602082840312156125f157600080fd5b5051919050565b60408152600061260c60408301868861257a565b828103602084015261261f81858761257a565b979650505050505050565b60006020828403121561263c57600080fd5b81516117c18161204f565b60006020828403121561265957600080fd5b813567ffffffffffffffff81111561267057600080fd5b6125d7848285016122ba565b6000825161268e818460208701611e90565b9190910192915050565b600067ffffffffffffffff8211156126b2576126b2612187565b5060051b60200190565b600082601f8301126126cd57600080fd5b81516126db6122d982612274565b8181528460208386010111156126f057600080fd5b6125d7826020830160208701611e90565b60006040828403121561271357600080fd5b61271b6121df565b905081518152602082015167ffffffffffffffff81111561273b57600080fd5b612747848285016126bc565b60208301525092915050565b6000602080838503121561276657600080fd5b825167ffffffffffffffff8082111561277e57600080fd5b818501915085601f83011261279257600080fd5b81516127a06122d982612698565b81815260059190911b830184019084810190888311156127bf57600080fd5b8585015b838110156127f7578051858111156127db5760008081fd5b6127e98b89838a0101612701565b8452509186019186016127c3565b5098975050505050505050565b7f4e487b7100000000000000000000000000000000000000000000000000000000600052603260045260246000fd5b60007fffffffffffffffffffffffffffffffffffffffffffffffffffffffffffffffff820361288b577f4e487b7100000000000000000000000000000000000000000000000000000000600052601160045260246000fd5b5060010190565b6000602082840312156128a457600080fd5b815167ffffffffffffffff8111156128bb57600080fd5b6125d784828501612701565b6040815260006128da6040830185611eb4565b8281036020840152610c558185611eb4565b600060208083850312156128ff57600080fd5b823567ffffffffffffffff8082111561291757600080fd5b8185019150604080838803121561292d57600080fd5b6129356121df565b83358381111561294457600080fd5b612950898287016122ba565b825250848401358381111561296457600080fd5b80850194505087601f85011261297957600080fd5b833592506129896122d984612698565b83815260079390931b840185019285810190898511156129a857600080fd5b948601945b84861015612a15576080868b0312156129c65760008081fd5b6129ce612202565b86356129d98161204f565b815286880135888201528487013580151581146129f65760008081fd5b81860152606087810135908201528252608090950194908601906129ad565b95820195909552979650505050505050565b601f821115612a6d57600081815260208120601f850160051c81016020861015612a4e5750805b601f850160051c820191505b81811015611d2557828155600101612a5a565b505050565b815167ffffffffffffffff811115612a8c57612a8c612187565b612aa081612a9a8454612527565b84612a27565b602080601f831160018114612af35760008415612abd5750858301515b7fffffffffffffffffffffffffffffffffffffffffffffffffffffffffffffffff600386901b1c1916600185901b178555611d25565b6000858152602081207fffffffffffffffffffffffffffffffffffffffffffffffffffffffffffffffe08616915b82811015612b4057888601518255948401946001909101908401612b21565b5085821015612b7c57878501517fffffffffffffffffffffffffffffffffffffffffffffffffffffffffffffffff600388901b60f8161c191681555b5050505050600190811b01905550565b60006020808385031215612b9f57600080fd5b825167ffffffffffffffff80821115612bb757600080fd5b818501915085601f830112612bcb57600080fd5b8151612bd96122d982612698565b81815260059190911b83018401908481019088831115612bf857600080fd5b8585015b838110156127f757805185811115612c145760008081fd5b8601808b037fffffffffffffffffffffffffffffffffffffffffffffffffffffffffffffffe001881315612c485760008081fd5b612c506121b6565b8882015187811115612c625760008081fd5b612c708d8b838601016126bc565b825250845250918601918601612bfc56fea264697066735822122024cccb033fc4cc827fbcb7459eaf8fe60628d7c25268b8da9addc30770b39f4964736f6c63430008110033",
    "linkReferences": {}
  },
  "methodIdentifiers": {
    "_roleManager()": "f4339a97",
    "_spaceManager()": "3820c2ad",
    "description()": "7284e416",
    "getUserRoles(string,string,address)": "82ceca42",
    "isEntitled(string,string,address,(string))": "bf77b663",
    "isTokenEntitled(string,string,address,string)": "b6439b71",
    "name()": "06fdde03",
    "removeEntitlement(string,string,uint256[],bytes)": "257f5ea9",
    "setEntitlement(string,string,uint256,bytes)": "c800fec4",
    "supportsInterface(bytes4)": "01ffc9a7"
  },
  "id": 35
}