{
  "abi": [
    {
      "inputs": [
        {
          "internalType": "string",
          "name": "name_",
          "type": "string"
        },
        {
          "internalType": "string",
          "name": "description_",
          "type": "string"
        },
        {
          "internalType": "string",
          "name": "moduleType_",
          "type": "string"
        },
        {
          "internalType": "address",
          "name": "spaceManager_",
          "type": "address"
        },
        {
          "internalType": "address",
          "name": "roleManager_",
          "type": "address"
        },
        {
          "internalType": "address",
          "name": "permissionRegistry_",
          "type": "address"
        }
      ],
      "stateMutability": "nonpayable",
      "type": "constructor"
    },
    {
      "inputs": [],
      "name": "InvalidParameters",
      "type": "error"
    },
    {
      "inputs": [],
      "name": "NotSpaceManager",
      "type": "error"
    },
    {
      "inputs": [],
      "name": "_permisionRegistry",
      "outputs": [
        {
          "internalType": "address",
          "name": "",
          "type": "address"
        }
      ],
      "stateMutability": "view",
      "type": "function"
    },
    {
      "inputs": [],
      "name": "_roleManager",
      "outputs": [
        {
          "internalType": "address",
          "name": "",
          "type": "address"
        }
      ],
      "stateMutability": "view",
      "type": "function"
    },
    {
      "inputs": [],
      "name": "_spaceManager",
      "outputs": [
        {
          "internalType": "address",
          "name": "",
          "type": "address"
        }
      ],
      "stateMutability": "view",
      "type": "function"
    },
    {
      "inputs": [],
      "name": "description",
      "outputs": [
        {
          "internalType": "string",
          "name": "",
          "type": "string"
        }
      ],
      "stateMutability": "view",
      "type": "function"
    },
    {
      "inputs": [
        {
          "internalType": "string",
          "name": "spaceId",
          "type": "string"
        },
        {
          "internalType": "string",
          "name": "channelId",
          "type": "string"
        },
        {
          "internalType": "uint256",
          "name": "roleId",
          "type": "uint256"
        }
      ],
      "name": "getEntitlementData",
      "outputs": [
        {
          "internalType": "address[]",
          "name": "",
          "type": "address[]"
        }
      ],
      "stateMutability": "view",
      "type": "function"
    },
    {
      "inputs": [
        {
          "internalType": "string",
          "name": "spaceId",
          "type": "string"
        },
        {
          "internalType": "string",
          "name": "channelId",
          "type": "string"
        },
        {
          "internalType": "address",
          "name": "user",
          "type": "address"
        }
      ],
      "name": "getUserRoles",
      "outputs": [
        {
          "components": [
            {
              "internalType": "uint256",
              "name": "roleId",
              "type": "uint256"
            },
            {
              "internalType": "string",
              "name": "name",
              "type": "string"
            }
          ],
          "internalType": "struct DataTypes.Role[]",
          "name": "",
          "type": "tuple[]"
        }
      ],
      "stateMutability": "view",
      "type": "function"
    },
    {
      "inputs": [
        {
          "internalType": "string",
          "name": "spaceId",
          "type": "string"
        },
        {
          "internalType": "string",
          "name": "channelId",
          "type": "string"
        },
        {
          "internalType": "address",
          "name": "user",
          "type": "address"
        },
        {
          "components": [
            {
              "internalType": "string",
              "name": "name",
              "type": "string"
            }
          ],
          "internalType": "struct DataTypes.Permission",
          "name": "permission",
          "type": "tuple"
        }
      ],
      "name": "isEntitled",
      "outputs": [
        {
          "internalType": "bool",
          "name": "",
          "type": "bool"
        }
      ],
      "stateMutability": "view",
      "type": "function"
    },
    {
      "inputs": [],
      "name": "moduleType",
      "outputs": [
        {
          "internalType": "string",
          "name": "",
          "type": "string"
        }
      ],
      "stateMutability": "view",
      "type": "function"
    },
    {
      "inputs": [],
      "name": "name",
      "outputs": [
        {
          "internalType": "string",
          "name": "",
          "type": "string"
        }
      ],
      "stateMutability": "view",
      "type": "function"
    },
    {
      "inputs": [
        {
          "internalType": "string",
          "name": "spaceId",
          "type": "string"
        },
        {
          "internalType": "string",
          "name": "channelId",
          "type": "string"
        },
        {
          "internalType": "uint256",
          "name": "roleId",
          "type": "uint256"
        },
        {
          "internalType": "bytes",
          "name": "entitlementData",
          "type": "bytes"
        }
      ],
      "name": "removeEntitlement",
      "outputs": [],
      "stateMutability": "nonpayable",
      "type": "function"
    },
    {
      "inputs": [
        {
          "internalType": "string",
          "name": "spaceId",
          "type": "string"
        },
        {
          "internalType": "string",
          "name": "channelId",
          "type": "string"
        },
        {
          "internalType": "uint256",
          "name": "roleId",
          "type": "uint256"
        },
        {
          "internalType": "bytes",
          "name": "entitlementData",
          "type": "bytes"
        }
      ],
      "name": "setEntitlement",
      "outputs": [],
      "stateMutability": "nonpayable",
      "type": "function"
    },
    {
      "inputs": [
        {
          "internalType": "bytes4",
          "name": "interfaceId",
          "type": "bytes4"
        }
      ],
      "name": "supportsInterface",
      "outputs": [
        {
          "internalType": "bool",
          "name": "",
          "type": "bool"
        }
      ],
      "stateMutability": "view",
      "type": "function"
    }
  ],
  "bytecode": {
    "object": "0x60e06040523480156200001157600080fd5b506040516200301a3803806200301a8339810160408190526200003491620001a7565b85858585858562000045836200009a565b6000620000538782620002fe565b506001620000628682620002fe565b506002620000718582620002fe565b506001600160a01b0392831660805290821660a0521660c05250620003ca975050505050505050565b6001600160a01b038116620000c257604051630e52390960e41b815260040160405180910390fd5b50565b634e487b7160e01b600052604160045260246000fd5b600082601f830112620000ed57600080fd5b81516001600160401b03808211156200010a576200010a620000c5565b604051601f8301601f19908116603f01168101908282118183101715620001355762000135620000c5565b816040528381526020925086838588010111156200015257600080fd5b600091505b8382101562000176578582018301518183018401529082019062000157565b600093810190920192909252949350505050565b80516001600160a01b0381168114620001a257600080fd5b919050565b60008060008060008060c08789031215620001c157600080fd5b86516001600160401b0380821115620001d957600080fd5b620001e78a838b01620000db565b97506020890151915080821115620001fe57600080fd5b6200020c8a838b01620000db565b965060408901519150808211156200022357600080fd5b506200023289828a01620000db565b94505062000243606088016200018a565b925062000253608088016200018a565b91506200026360a088016200018a565b90509295509295509295565b600181811c908216806200028457607f821691505b602082108103620002a557634e487b7160e01b600052602260045260246000fd5b50919050565b601f821115620002f957600081815260208120601f850160051c81016020861015620002d45750805b601f850160051c820191505b81811015620002f557828155600101620002e0565b5050505b505050565b81516001600160401b038111156200031a576200031a620000c5565b62000332816200032b84546200026f565b84620002ab565b602080601f8311600181146200036a5760008415620003515750858301515b600019600386901b1c1916600185901b178555620002f5565b600085815260208120601f198616915b828110156200039b578886015182559484019460019091019084016200037a565b5085821015620003ba5787850151600019600388901b60f8161c191681555b5050505050600190811b01905550565b60805160a05160c051612bd36200044760003960006101670152600081816101f9015281816103c90152611f7901526000818161011b015281816103a70152818161095201528181610d5e01528181610df501528181610e71015281816110ed0152818161116c01528181611b810152611ce60152612bd36000f3fe608060405234801561001057600080fd5b50600436106100d45760003560e01c806382ceca4211610081578063ec6b643a1161005b578063ec6b643a146101e1578063f4339a97146101f4578063faecd9e41461021b57600080fd5b806382ceca4214610199578063bf77b663146101b9578063c800fec4146101cc57600080fd5b80635acad43c116100b25780635acad43c146101625780636465e69f146101895780637284e4161461019157600080fd5b806301ffc9a7146100d957806306fdde03146101015780633820c2ad14610116575b600080fd5b6100ec6100e73660046120ff565b61023b565b60405190151581526020015b60405180910390f35b6101096102d4565b6040516100f891906121af565b61013d7f000000000000000000000000000000000000000000000000000000000000000081565b60405173ffffffffffffffffffffffffffffffffffffffff90911681526020016100f8565b61013d7f000000000000000000000000000000000000000000000000000000000000000081565b610109610362565b61010961036f565b6101ac6101a7366004612230565b61037c565b6040516100f891906122b4565b6100ec6101c7366004612489565b610927565b6101df6101da366004612560565b610d46565b005b6101df6101ef3660046125f9565b6110d5565b61013d7f000000000000000000000000000000000000000000000000000000000000000081565b61022e61022936600461269d565b611b7b565b6040516100f89190612711565b60007fffffffff0000000000000000000000000000000000000000000000000000000082167f09ce3a550000000000000000000000000000000000000000000000000000000014806102ce57507f01ffc9a7000000000000000000000000000000000000000000000000000000007fffffffff000000000000000000000000000000000000000000000000000000008316145b92915050565b600080546102e19061276b565b80601f016020809104026020016040519081016040528092919081815260200182805461030d9061276b565b801561035a5780601f1061032f5761010080835404028352916020019161035a565b820191906000526020600020905b81548152906001019060200180831161033d57829003601f168201915b505050505081565b600280546102e19061276b565b600180546102e19061276b565b6040517f9ddd0d6b0000000000000000000000000000000000000000000000000000000081526060907f0000000000000000000000000000000000000000000000000000000000000000907f00000000000000000000000000000000000000000000000000000000000000009060009073ffffffffffffffffffffffffffffffffffffffff841690639ddd0d6b9061041a908c908c90600401612807565b602060405180830381865afa158015610437573d6000803e3d6000fd5b505050506040513d601f19601f8201168201806040525081019061045b9190612823565b905060008373ffffffffffffffffffffffffffffffffffffffff16633e66eae38b8b8b8b6040518563ffffffff1660e01b815260040161049e949392919061283c565b602060405180830381865afa1580156104bb573d6000803e3d6000fd5b505050506040513d601f19601f820116820180604052508101906104df9190612823565b6000838152600460209081526040808320848452825280832073ffffffffffffffffffffffffffffffffffffffff8b1680855290835281842054878552600384528285209185529252822054929350909161053a919061289d565b67ffffffffffffffff81111561055257610552612346565b60405190808252806020026020018201604052801561059857816020015b6040805180820190915260008152606060208201528152602001906001900390816105705790505b5090508715610762576000838152600460209081526040808320858452825280832073ffffffffffffffffffffffffffffffffffffffff8b168452825280832080548251818502810185019093528083529192909190849084015b828210156106555760008481526020908190206040805160608101825260038602909201805473ffffffffffffffffffffffffffffffffffffffff168352600180820154848601526002909101549183019190915290835290920191016105f3565b50505050905060005b815181101561075b578573ffffffffffffffffffffffffffffffffffffffff1663d9af4ecf86848481518110610696576106966128b0565b6020026020010151604001516040518363ffffffff1660e01b81526004016106c8929190918252602082015260400190565b600060405180830381865afa1580156106e5573d6000803e3d6000fd5b505050506040513d6000823e601f3d9081017fffffffffffffffffffffffffffffffffffffffffffffffffffffffffffffffe016820160405261072b9190810190612924565b83828151811061073d5761073d6128b0565b60200260200101819052508080610753906129b1565b91505061065e565b5050610917565b600083815260036020908152604080832073ffffffffffffffffffffffffffffffffffffffff8b168452825280832080548251818502810185019093528083529192909190849084015b8282101561080e5760008481526020908190206040805160608101825260038602909201805473ffffffffffffffffffffffffffffffffffffffff168352600180820154848601526002909101549183019190915290835290920191016107ac565b50505050905060005b8151811015610914578573ffffffffffffffffffffffffffffffffffffffff1663d9af4ecf8684848151811061084f5761084f6128b0565b6020026020010151604001516040518363ffffffff1660e01b8152600401610881929190918252602082015260400190565b600060405180830381865afa15801561089e573d6000803e3d6000fd5b505050506040513d6000823e601f3d9081017fffffffffffffffffffffffffffffffffffffffffffffffffffffffffffffffe01682016040526108e49190810190612924565b8382815181106108f6576108f66128b0565b6020026020010181905250808061090c906129b1565b915050610817565b50505b9450505050505b95945050505050565b6040517f9ddd0d6b0000000000000000000000000000000000000000000000000000000081526000907f000000000000000000000000000000000000000000000000000000000000000090829073ffffffffffffffffffffffffffffffffffffffff831690639ddd0d6b906109a2908c908c90600401612807565b602060405180830381865afa1580156109bf573d6000803e3d6000fd5b505050506040513d601f19601f820116820180604052508101906109e39190612823565b905060008273ffffffffffffffffffffffffffffffffffffffff16633e66eae38b8b8b8b6040518563ffffffff1660e01b8152600401610a26949392919061283c565b602060405180830381865afa158015610a43573d6000803e3d6000fd5b505050506040513d601f19601f82011682018060405250810190610a679190612823565b90508015610bf5576000828152600460209081526040808320848452825280832060018452825280832080548251818502810185019093528083529192909190849084015b82821015610b0e5760008481526020908190206040805160608101825260038602909201805473ffffffffffffffffffffffffffffffffffffffff16835260018082015484860152600290910154918301919091529083529092019101610aac565b5050506000858152600460209081526040808320878452825280832073ffffffffffffffffffffffffffffffffffffffff8d16845282528083208054825181850281018501909352808352959650929490935090849084015b82821015610bc95760008481526020908190206040805160608101825260038602909201805473ffffffffffffffffffffffffffffffffffffffff16835260018082015484860152600290910154918301919091529083529092019101610b67565b5050505090506000610bdb8383611def565b9050610be885828a611f46565b9650505050505050610d3c565b600082815260036020908152604080832060018452825280832080548251818502810185019093528083529192909190849084015b82821015610c8c5760008481526020908190206040805160608101825260038602909201805473ffffffffffffffffffffffffffffffffffffffff16835260018082015484860152600290910154918301919091529083529092019101610c2a565b505050600085815260036020908152604080832073ffffffffffffffffffffffffffffffffffffffff8d16845282528083208054825181850281018501909352808352959650929490935090849084018215610bc95760008481526020908190206040805160608101825260038602909201805473ffffffffffffffffffffffffffffffffffffffff16835260018082015484860152600290910154918301919091529083529092019101610b67565b9695505050505050565b3373ffffffffffffffffffffffffffffffffffffffff7f00000000000000000000000000000000000000000000000000000000000000001614610db5576040517f2596a42e00000000000000000000000000000000000000000000000000000000815260040160405180910390fd5b6040517f9ddd0d6b00000000000000000000000000000000000000000000000000000000815260009073ffffffffffffffffffffffffffffffffffffffff7f00000000000000000000000000000000000000000000000000000000000000001690639ddd0d6b90610e2a9089906004016121af565b602060405180830381865afa158015610e47573d6000803e3d6000fd5b505050506040513d601f19601f82011682018060405250810190610e6b9190612823565b905060007f000000000000000000000000000000000000000000000000000000000000000073ffffffffffffffffffffffffffffffffffffffff16633e66eae388886040518363ffffffff1660e01b8152600401610eca9291906129e9565b602060405180830381865afa158015610ee7573d6000803e3d6000fd5b505050506040513d601f19601f82011682018060405250810190610f0b9190612823565b90506000610f1b84860186612a0e565b8751909150156110035760008381526006602090815260408083208584528252808320898452825280832080546001818101835591855283852001805473ffffffffffffffffffffffffffffffffffffffff8088167fffffffffffffffffffffffff0000000000000000000000000000000000000000928316811790935589875260048652848720898852865284872083885286528487208551606081018752938452428488019081529584018e81528154808701835591895296909720925160039097029092018054969092169516949094178455905190830155516002909101556110cb565b6000838152600560209081526040808320898452825280832080546001818101835591855283852001805473ffffffffffffffffffffffffffffffffffffffff8088167fffffffffffffffffffffffff00000000000000000000000000000000000000009283168117909355898752600380875285882084895287528588208651606081018852948552428589019081529685018f815281548088018355918a5297909820935197029092018054969092169516949094178455905190830155516002909101555b5050505050505050565b3373ffffffffffffffffffffffffffffffffffffffff7f00000000000000000000000000000000000000000000000000000000000000001614611144576040517f2596a42e00000000000000000000000000000000000000000000000000000000815260040160405180910390fd5b6040517f9ddd0d6b0000000000000000000000000000000000000000000000000000000081527f00000000000000000000000000000000000000000000000000000000000000009060009073ffffffffffffffffffffffffffffffffffffffff831690639ddd0d6b906111bd908c908c90600401612807565b602060405180830381865afa1580156111da573d6000803e3d6000fd5b505050506040513d601f19601f820116820180604052508101906111fe9190612823565b905060008273ffffffffffffffffffffffffffffffffffffffff16633e66eae38b8b8b8b6040518563ffffffff1660e01b8152600401611241949392919061283c565b602060405180830381865afa15801561125e573d6000803e3d6000fd5b505050506040513d601f19601f820116820180604052508101906112829190612823565b9050600061129285870187612a0e565b9050811561172e576000838152600460209081526040808320858452825280832073ffffffffffffffffffffffffffffffffffffffff851684528252808320548684526006835281842086855283528184208b855290925282205490915b82811015611483576000868152600460209081526040808320888452825280832073ffffffffffffffffffffffffffffffffffffffff88168452909152902080548b919083908110611344576113446128b0565b90600052602060002090600302016002015403611471576000868152600460209081526040808320888452825280832073ffffffffffffffffffffffffffffffffffffffff88168452909152902061139d600185612a2b565b815481106113ad576113ad6128b0565b600091825260208083208984526004825260408085208a8652835280852073ffffffffffffffffffffffffffffffffffffffff8a168652909252922080546003909202909201919083908110611405576114056128b0565b60009182526020909120825460039092020180547fffffffffffffffffffffffff00000000000000000000000000000000000000001673ffffffffffffffffffffffffffffffffffffffff90921691909117815560018083015490820155600291820154910155611483565b8061147b816129b1565b9150506112f0565b5060005b818110156115f257600086815260066020908152604080832088845282528083208d84529091529020805473ffffffffffffffffffffffffffffffffffffffff86169190839081106114db576114db6128b0565b60009182526020909120015473ffffffffffffffffffffffffffffffffffffffff16036115e057600086815260066020908152604080832088845282528083208d8452909152902061152e600184612a2b565b8154811061153e5761153e6128b0565b600091825260208083209091015488835260068252604080842089855283528084208e85529092529120805473ffffffffffffffffffffffffffffffffffffffff9092169183908110611593576115936128b0565b9060005260206000200160006101000a81548173ffffffffffffffffffffffffffffffffffffffff021916908373ffffffffffffffffffffffffffffffffffffffff1602179055506115f2565b806115ea816129b1565b915050611487565b50600085815260066020908152604080832087845282528083208c8452909152902080548061162357611623612a3e565b6000828152602080822083017fffffffffffffffffffffffffffffffffffffffffffffffffffffffffffffffff90810180547fffffffffffffffffffffffff0000000000000000000000000000000000000000169055909201909255868252600481526040808320878452825280832073ffffffffffffffffffffffffffffffffffffffff8716845290915290208054806116c0576116c0612a3e565b60008281526020812060037fffffffffffffffffffffffffffffffffffffffffffffffffffffffffffffffff9093019283020180547fffffffffffffffffffffffff00000000000000000000000000000000000000001681556001810182905560020155905550611b6e9050565b600083815260036020908152604080832073ffffffffffffffffffffffffffffffffffffffff85168452825280832054868452600583528184208b855290925282205490915b828110156118f057600086815260036020908152604080832073ffffffffffffffffffffffffffffffffffffffff88168452909152902080548b9190839081106117c0576117c06128b0565b906000526020600020906003020160020154036118de57600086815260036020908152604080832073ffffffffffffffffffffffffffffffffffffffff881684529091529020611811600185612a2b565b81548110611821576118216128b0565b600091825260208083208984526003808352604080862073ffffffffffffffffffffffffffffffffffffffff8b168752909352919093208054919092029092019183908110611872576118726128b0565b60009182526020909120825460039092020180547fffffffffffffffffffffffff00000000000000000000000000000000000000001673ffffffffffffffffffffffffffffffffffffffff909216919091178155600180830154908201556002918201549101556118f0565b806118e8816129b1565b915050611774565b5060005b81811015611a475760008681526005602090815260408083208d84529091529020805473ffffffffffffffffffffffffffffffffffffffff8616919083908110611940576119406128b0565b60009182526020909120015473ffffffffffffffffffffffffffffffffffffffff1603611a355760008681526005602090815260408083208d8452909152902061198b600184612a2b565b8154811061199b5761199b6128b0565b60009182526020808320909101548883526005825260408084208e85529092529120805473ffffffffffffffffffffffffffffffffffffffff90921691839081106119e8576119e86128b0565b9060005260206000200160006101000a81548173ffffffffffffffffffffffffffffffffffffffff021916908373ffffffffffffffffffffffffffffffffffffffff160217905550611a47565b80611a3f816129b1565b9150506118f4565b5060008581526005602090815260408083208c84529091529020805480611a7057611a70612a3e565b6000828152602080822083017fffffffffffffffffffffffffffffffffffffffffffffffffffffffffffffffff90810180547fffffffffffffffffffffffff000000000000000000000000000000000000000016905590920190925586825260038152604080832073ffffffffffffffffffffffffffffffffffffffff871684529091529020805480611b0557611b05612a3e565b60008281526020812060037fffffffffffffffffffffffffffffffffffffffffffffffffffffffffffffffff9093019283020180547fffffffffffffffffffffffff00000000000000000000000000000000000000001681556001810182905560020155905550505b5050505050505050505050565b606060007f000000000000000000000000000000000000000000000000000000000000000073ffffffffffffffffffffffffffffffffffffffff16639ddd0d6b88886040518363ffffffff1660e01b8152600401611bda929190612807565b602060405180830381865afa158015611bf7573d6000803e3d6000fd5b505050506040513d601f19601f82011682018060405250810190611c1b9190612823565b90506000849003611ca657600081815260056020908152604080832086845282529182902080548351818402810184019094528084529091830182828015611c9957602002820191906000526020600020905b815473ffffffffffffffffffffffffffffffffffffffff168152600190910190602001808311611c6e575b505050505091505061091e565b6040517f3e66eae300000000000000000000000000000000000000000000000000000000815260009073ffffffffffffffffffffffffffffffffffffffff7f00000000000000000000000000000000000000000000000000000000000000001690633e66eae390611d21908b908b908b908b9060040161283c565b602060405180830381865afa158015611d3e573d6000803e3d6000fd5b505050506040513d601f19601f82011682018060405250810190611d629190612823565b600083815260066020908152604080832084845282528083208884528252918290208054835181840281018401909452808452939450919290830182828015611de157602002820191906000526020600020905b815473ffffffffffffffffffffffffffffffffffffffff168152600190910190602001808311611db6575b50505050509250505061091e565b6060600082518451611e01919061289d565b67ffffffffffffffff811115611e1957611e19612346565b604051908082528060200260200182016040528015611e8457816020015b611e716040518060600160405280600073ffffffffffffffffffffffffffffffffffffffff16815260200160008152602001600081525090565b815260200190600190039081611e375790505b50905060005b8451811015611edd57848181518110611ea557611ea56128b0565b6020026020010151828281518110611ebf57611ebf6128b0565b60200260200101819052508080611ed5906129b1565b915050611e8a565b60005b8451811015611f3c578481611ef4816129b1565b925081518110611f0657611f066128b0565b6020026020010151838380611f1a906129b1565b945081518110611f2c57611f2c6128b0565b6020026020010181905250611ee0565b5090949350505050565b6000805b83518110156120f2576000848281518110611f6757611f676128b0565b602002602001015160400151905060007f000000000000000000000000000000000000000000000000000000000000000073ffffffffffffffffffffffffffffffffffffffff1663a7d325fc88846040518363ffffffff1660e01b8152600401611fdb929190918252602082015260400190565b600060405180830381865afa158015611ff8573d6000803e3d6000fd5b505050506040513d6000823e601f3d9081017fffffffffffffffffffffffffffffffffffffffffffffffffffffffffffffffe016820160405261203e9190810190612a6d565b905060005b81518110156120dc57855160405161205e9190602001612b81565b60405160208183030381529060405280519060200120828281518110612086576120866128b0565b6020026020010151600001516040516020016120a29190612b81565b60405160208183030381529060405280519060200120036120ca5760019450505050506120f8565b806120d4816129b1565b915050612043565b50505080806120ea906129b1565b915050611f4a565b50600090505b9392505050565b60006020828403121561211157600080fd5b81357fffffffff00000000000000000000000000000000000000000000000000000000811681146120f857600080fd5b60005b8381101561215c578181015183820152602001612144565b50506000910152565b6000815180845261217d816020860160208601612141565b601f017fffffffffffffffffffffffffffffffffffffffffffffffffffffffffffffffe0169290920160200192915050565b6020815260006120f86020830184612165565b60008083601f8401126121d457600080fd5b50813567ffffffffffffffff8111156121ec57600080fd5b60208301915083602082850101111561220457600080fd5b9250929050565b73ffffffffffffffffffffffffffffffffffffffff8116811461222d57600080fd5b50565b60008060008060006060868803121561224857600080fd5b853567ffffffffffffffff8082111561226057600080fd5b61226c89838a016121c2565b9097509550602088013591508082111561228557600080fd5b50612292888289016121c2565b90945092505060408601356122a68161220b565b809150509295509295909350565b60006020808301818452808551808352604092508286019150828160051b87010184880160005b83811015612338578883037fffffffffffffffffffffffffffffffffffffffffffffffffffffffffffffffc001855281518051845287015187840187905261232587850182612165565b95880195935050908601906001016122db565b509098975050505050505050565b7f4e487b7100000000000000000000000000000000000000000000000000000000600052604160045260246000fd5b6040516020810167ffffffffffffffff8111828210171561239857612398612346565b60405290565b604051601f82017fffffffffffffffffffffffffffffffffffffffffffffffffffffffffffffffe016810167ffffffffffffffff811182821017156123e5576123e5612346565b604052919050565b600067ffffffffffffffff82111561240757612407612346565b50601f017fffffffffffffffffffffffffffffffffffffffffffffffffffffffffffffffe01660200190565b600082601f83011261244457600080fd5b8135612457612452826123ed565b61239e565b81815284602083860101111561246c57600080fd5b816020850160208301376000918101602001919091529392505050565b600080600080600080608087890312156124a257600080fd5b863567ffffffffffffffff808211156124ba57600080fd5b6124c68a838b016121c2565b909850965060208901359150808211156124df57600080fd5b6124eb8a838b016121c2565b9096509450604089013591506125008261220b565b9092506060880135908082111561251657600080fd5b908801906020828b03121561252a57600080fd5b612532612375565b82358281111561254157600080fd5b61254d8c828601612433565b8252508093505050509295509295509295565b60008060008060006080868803121561257857600080fd5b853567ffffffffffffffff8082111561259057600080fd5b61259c89838a01612433565b965060208801359150808211156125b257600080fd5b6125be89838a01612433565b95506040880135945060608801359150808211156125db57600080fd5b506125e8888289016121c2565b969995985093965092949392505050565b60008060008060008060006080888a03121561261457600080fd5b873567ffffffffffffffff8082111561262c57600080fd5b6126388b838c016121c2565b909950975060208a013591508082111561265157600080fd5b61265d8b838c016121c2565b909750955060408a0135945060608a013591508082111561267d57600080fd5b5061268a8a828b016121c2565b989b979a50959850939692959293505050565b6000806000806000606086880312156126b557600080fd5b853567ffffffffffffffff808211156126cd57600080fd5b6126d989838a016121c2565b909750955060208801359150808211156126f257600080fd5b506126ff888289016121c2565b96999598509660400135949350505050565b6020808252825182820181905260009190848201906040850190845b8181101561275f57835173ffffffffffffffffffffffffffffffffffffffff168352928401929184019160010161272d565b50909695505050505050565b600181811c9082168061277f57607f821691505b6020821081036127b8577f4e487b7100000000000000000000000000000000000000000000000000000000600052602260045260246000fd5b50919050565b8183528181602085013750600060208284010152600060207fffffffffffffffffffffffffffffffffffffffffffffffffffffffffffffffe0601f840116840101905092915050565b60208152600061281b6020830184866127be565b949350505050565b60006020828403121561283557600080fd5b5051919050565b6040815260006128506040830186886127be565b82810360208401526128638185876127be565b979650505050505050565b7f4e487b7100000000000000000000000000000000000000000000000000000000600052601160045260246000fd5b808201808211156102ce576102ce61286e565b7f4e487b7100000000000000000000000000000000000000000000000000000000600052603260045260246000fd5b600082601f8301126128f057600080fd5b81516128fe612452826123ed565b81815284602083860101111561291357600080fd5b61281b826020830160208701612141565b60006020828403121561293657600080fd5b815167ffffffffffffffff8082111561294e57600080fd5b908301906040828603121561296257600080fd5b60405160408101818110838211171561297d5761297d612346565b6040528251815260208301518281111561299657600080fd5b6129a2878286016128df565b60208301525095945050505050565b60007fffffffffffffffffffffffffffffffffffffffffffffffffffffffffffffffff82036129e2576129e261286e565b5060010190565b6040815260006129fc6040830185612165565b828103602084015261091e8185612165565b600060208284031215612a2057600080fd5b81356120f88161220b565b818103818111156102ce576102ce61286e565b7f4e487b7100000000000000000000000000000000000000000000000000000000600052603160045260246000fd5b60006020808385031215612a8057600080fd5b825167ffffffffffffffff80821115612a9857600080fd5b818501915085601f830112612aac57600080fd5b815181811115612abe57612abe612346565b8060051b612acd85820161239e565b9182528381018501918581019089841115612ae757600080fd5b86860192505b83831015612b7457825185811115612b055760008081fd5b8601808b037fffffffffffffffffffffffffffffffffffffffffffffffffffffffffffffffe001881315612b395760008081fd5b612b41612375565b8882015187811115612b535760008081fd5b612b618d8b838601016128df565b8252508352509186019190860190612aed565b9998505050505050505050565b60008251612b93818460208701612141565b919091019291505056fea2646970667358221220f7d1f47376c8f15cedf75b3dbe3b48fb03bbf40fc21569f335714770a711c88464736f6c63430008110033",
    "linkReferences": {}
  },
  "methodIdentifiers": {
    "_permisionRegistry()": "5acad43c",
    "_roleManager()": "f4339a97",
    "_spaceManager()": "3820c2ad",
    "description()": "7284e416",
    "getEntitlementData(string,string,uint256)": "faecd9e4",
    "getUserRoles(string,string,address)": "82ceca42",
    "isEntitled(string,string,address,(string))": "bf77b663",
    "moduleType()": "6465e69f",
    "name()": "06fdde03",
    "removeEntitlement(string,string,uint256,bytes)": "ec6b643a",
    "setEntitlement(string,string,uint256,bytes)": "c800fec4",
    "supportsInterface(bytes4)": "01ffc9a7"
  },
  "id": 36
}