{
  "abi": [
    {
      "inputs": [
        {
          "internalType": "string",
          "name": "name_",
          "type": "string"
        },
        {
          "internalType": "string",
          "name": "description_",
          "type": "string"
        },
        {
          "internalType": "string",
          "name": "moduleType_",
          "type": "string"
        },
        {
          "internalType": "address",
          "name": "spaceManager_",
          "type": "address"
        },
        {
          "internalType": "address",
          "name": "roleManager_",
          "type": "address"
        },
        {
          "internalType": "address",
          "name": "permissionRegistry_",
          "type": "address"
        }
      ],
      "stateMutability": "nonpayable",
      "type": "constructor"
    },
    {
      "inputs": [],
      "name": "InvalidParameters",
      "type": "error"
    },
    {
      "inputs": [],
      "name": "NotAllowed",
      "type": "error"
    },
    {
      "inputs": [],
      "name": "NotSpaceManager",
      "type": "error"
    },
    {
      "inputs": [],
      "name": "_permisionRegistry",
      "outputs": [
        {
          "internalType": "address",
          "name": "",
          "type": "address"
        }
      ],
      "stateMutability": "view",
      "type": "function"
    },
    {
      "inputs": [],
      "name": "_roleManager",
      "outputs": [
        {
          "internalType": "address",
          "name": "",
          "type": "address"
        }
      ],
      "stateMutability": "view",
      "type": "function"
    },
    {
      "inputs": [],
      "name": "_spaceManager",
      "outputs": [
        {
          "internalType": "address",
          "name": "",
          "type": "address"
        }
      ],
      "stateMutability": "view",
      "type": "function"
    },
    {
      "inputs": [],
      "name": "description",
      "outputs": [
        {
          "internalType": "string",
          "name": "",
          "type": "string"
        }
      ],
      "stateMutability": "view",
      "type": "function"
    },
    {
      "inputs": [
        {
          "internalType": "string",
          "name": "spaceId",
          "type": "string"
        },
        {
          "internalType": "string",
          "name": "channelId",
          "type": "string"
        },
        {
          "internalType": "uint256",
          "name": "roleId",
          "type": "uint256"
        }
      ],
      "name": "getEntitlementData",
      "outputs": [
        {
          "internalType": "address[]",
          "name": "",
          "type": "address[]"
        }
      ],
      "stateMutability": "view",
      "type": "function"
    },
    {
      "inputs": [
        {
          "internalType": "string",
          "name": "spaceId",
          "type": "string"
        },
        {
          "internalType": "string",
          "name": "channelId",
          "type": "string"
        },
        {
          "internalType": "address",
          "name": "user",
          "type": "address"
        }
      ],
      "name": "getUserRoles",
      "outputs": [
        {
          "components": [
            {
              "internalType": "uint256",
              "name": "roleId",
              "type": "uint256"
            },
            {
              "internalType": "string",
              "name": "name",
              "type": "string"
            }
          ],
          "internalType": "struct DataTypes.Role[]",
          "name": "",
          "type": "tuple[]"
        }
      ],
      "stateMutability": "view",
      "type": "function"
    },
    {
      "inputs": [
        {
          "internalType": "string",
          "name": "spaceId",
          "type": "string"
        },
        {
          "internalType": "string",
          "name": "channelId",
          "type": "string"
        },
        {
          "internalType": "address",
          "name": "user",
          "type": "address"
        },
        {
          "components": [
            {
              "internalType": "string",
              "name": "name",
              "type": "string"
            }
          ],
          "internalType": "struct DataTypes.Permission",
          "name": "permission",
          "type": "tuple"
        }
      ],
      "name": "isEntitled",
      "outputs": [
        {
          "internalType": "bool",
          "name": "",
          "type": "bool"
        }
      ],
      "stateMutability": "view",
      "type": "function"
    },
    {
      "inputs": [],
      "name": "moduleType",
      "outputs": [
        {
          "internalType": "string",
          "name": "",
          "type": "string"
        }
      ],
      "stateMutability": "view",
      "type": "function"
    },
    {
      "inputs": [],
      "name": "name",
      "outputs": [
        {
          "internalType": "string",
          "name": "",
          "type": "string"
        }
      ],
      "stateMutability": "view",
      "type": "function"
    },
    {
      "inputs": [
        {
          "internalType": "string",
          "name": "spaceId",
          "type": "string"
        },
        {
          "internalType": "string",
          "name": "channelId",
          "type": "string"
        },
        {
          "internalType": "uint256",
          "name": "roleId",
          "type": "uint256"
        },
        {
          "internalType": "bytes",
          "name": "entitlementData",
          "type": "bytes"
        }
      ],
      "name": "removeEntitlement",
      "outputs": [],
      "stateMutability": "nonpayable",
      "type": "function"
    },
    {
      "inputs": [
        {
          "internalType": "string",
          "name": "spaceId",
          "type": "string"
        },
        {
          "internalType": "string",
          "name": "channelId",
          "type": "string"
        },
        {
          "internalType": "uint256",
          "name": "roleId",
          "type": "uint256"
        },
        {
          "internalType": "bytes",
          "name": "entitlementData",
          "type": "bytes"
        }
      ],
      "name": "setEntitlement",
      "outputs": [],
      "stateMutability": "nonpayable",
      "type": "function"
    },
    {
      "inputs": [
        {
          "internalType": "bytes4",
          "name": "interfaceId",
          "type": "bytes4"
        }
      ],
      "name": "supportsInterface",
      "outputs": [
        {
          "internalType": "bool",
          "name": "",
          "type": "bool"
        }
      ],
      "stateMutability": "view",
      "type": "function"
    }
  ],
  "bytecode": {
    "object": "0x60e06040523480156200001157600080fd5b50604051620031a0380380620031a08339810160408190526200003491620001a7565b85858585858562000045836200009a565b6000620000538782620002fe565b506001620000628682620002fe565b506002620000718582620002fe565b506001600160a01b0392831660805290821660a0521660c05250620003ca975050505050505050565b6001600160a01b038116620000c257604051630e52390960e41b815260040160405180910390fd5b50565b634e487b7160e01b600052604160045260246000fd5b600082601f830112620000ed57600080fd5b81516001600160401b03808211156200010a576200010a620000c5565b604051601f8301601f19908116603f01168101908282118183101715620001355762000135620000c5565b816040528381526020925086838588010111156200015257600080fd5b600091505b8382101562000176578582018301518183018401529082019062000157565b600093810190920192909252949350505050565b80516001600160a01b0381168114620001a257600080fd5b919050565b60008060008060008060c08789031215620001c157600080fd5b86516001600160401b0380821115620001d957600080fd5b620001e78a838b01620000db565b97506020890151915080821115620001fe57600080fd5b6200020c8a838b01620000db565b965060408901519150808211156200022357600080fd5b506200023289828a01620000db565b94505062000243606088016200018a565b925062000253608088016200018a565b91506200026360a088016200018a565b90509295509295509295565b600181811c908216806200028457607f821691505b602082108103620002a557634e487b7160e01b600052602260045260246000fd5b50919050565b601f821115620002f957600081815260208120601f850160051c81016020861015620002d45750805b601f850160051c820191505b81811015620002f557828155600101620002e0565b5050505b505050565b81516001600160401b038111156200031a576200031a620000c5565b62000332816200032b84546200026f565b84620002ab565b602080601f8311600181146200036a5760008415620003515750858301515b600019600386901b1c1916600185901b178555620002f5565b600085815260208120601f198616915b828110156200039b578886015182559484019460019091019084016200037a565b5085821015620003ba5787850151600019600388901b60f8161c191681555b5050505050600190811b01905550565b60805160a05160c051612d526200044e600039600081816101670152611b870152600081816101f9015281816103c901526120af01526000818161011b015281816103a70152818161095201528181610d5e01528181610df501528181610e71015281816110ed0152818161116c01528181611cd90152611e1c0152612d526000f3fe608060405234801561001057600080fd5b50600436106100d45760003560e01c806382ceca4211610081578063ec6b643a1161005b578063ec6b643a146101e1578063f4339a97146101f4578063faecd9e41461021b57600080fd5b806382ceca4214610199578063bf77b663146101b9578063c800fec4146101cc57600080fd5b80635acad43c116100b25780635acad43c146101625780636465e69f146101895780637284e4161461019157600080fd5b806301ffc9a7146100d957806306fdde03146101015780633820c2ad14610116575b600080fd5b6100ec6100e7366004612235565b61023b565b60405190151581526020015b60405180910390f35b6101096102d4565b6040516100f891906122e5565b61013d7f000000000000000000000000000000000000000000000000000000000000000081565b60405173ffffffffffffffffffffffffffffffffffffffff90911681526020016100f8565b61013d7f000000000000000000000000000000000000000000000000000000000000000081565b610109610362565b61010961036f565b6101ac6101a7366004612366565b61037c565b6040516100f891906123ea565b6100ec6101c73660046125bf565b610927565b6101df6101da366004612696565b610d46565b005b6101df6101ef36600461272f565b6110d5565b61013d7f000000000000000000000000000000000000000000000000000000000000000081565b61022e6102293660046127d3565b611b7b565b6040516100f89190612847565b60007fffffffff0000000000000000000000000000000000000000000000000000000082167f09ce3a550000000000000000000000000000000000000000000000000000000014806102ce57507f01ffc9a7000000000000000000000000000000000000000000000000000000007fffffffff000000000000000000000000000000000000000000000000000000008316145b92915050565b600080546102e1906128a1565b80601f016020809104026020016040519081016040528092919081815260200182805461030d906128a1565b801561035a5780601f1061032f5761010080835404028352916020019161035a565b820191906000526020600020905b81548152906001019060200180831161033d57829003601f168201915b505050505081565b600280546102e1906128a1565b600180546102e1906128a1565b6040517f9ddd0d6b0000000000000000000000000000000000000000000000000000000081526060907f0000000000000000000000000000000000000000000000000000000000000000907f00000000000000000000000000000000000000000000000000000000000000009060009073ffffffffffffffffffffffffffffffffffffffff841690639ddd0d6b9061041a908c908c9060040161293d565b602060405180830381865afa158015610437573d6000803e3d6000fd5b505050506040513d601f19601f8201168201806040525081019061045b9190612959565b905060008373ffffffffffffffffffffffffffffffffffffffff16633e66eae38b8b8b8b6040518563ffffffff1660e01b815260040161049e9493929190612972565b602060405180830381865afa1580156104bb573d6000803e3d6000fd5b505050506040513d601f19601f820116820180604052508101906104df9190612959565b6000838152600460209081526040808320848452825280832073ffffffffffffffffffffffffffffffffffffffff8b1680855290835281842054878552600384528285209185529252822054929350909161053a91906129d3565b67ffffffffffffffff8111156105525761055261247c565b60405190808252806020026020018201604052801561059857816020015b6040805180820190915260008152606060208201528152602001906001900390816105705790505b5090508715610762576000838152600460209081526040808320858452825280832073ffffffffffffffffffffffffffffffffffffffff8b168452825280832080548251818502810185019093528083529192909190849084015b828210156106555760008481526020908190206040805160608101825260038602909201805473ffffffffffffffffffffffffffffffffffffffff168352600180820154848601526002909101549183019190915290835290920191016105f3565b50505050905060005b815181101561075b578573ffffffffffffffffffffffffffffffffffffffff1663d9af4ecf86848481518110610696576106966129e6565b6020026020010151604001516040518363ffffffff1660e01b81526004016106c8929190918252602082015260400190565b600060405180830381865afa1580156106e5573d6000803e3d6000fd5b505050506040513d6000823e601f3d9081017fffffffffffffffffffffffffffffffffffffffffffffffffffffffffffffffe016820160405261072b9190810190612a5a565b83828151811061073d5761073d6129e6565b6020026020010181905250808061075390612ae7565b91505061065e565b5050610917565b600083815260036020908152604080832073ffffffffffffffffffffffffffffffffffffffff8b168452825280832080548251818502810185019093528083529192909190849084015b8282101561080e5760008481526020908190206040805160608101825260038602909201805473ffffffffffffffffffffffffffffffffffffffff168352600180820154848601526002909101549183019190915290835290920191016107ac565b50505050905060005b8151811015610914578573ffffffffffffffffffffffffffffffffffffffff1663d9af4ecf8684848151811061084f5761084f6129e6565b6020026020010151604001516040518363ffffffff1660e01b8152600401610881929190918252602082015260400190565b600060405180830381865afa15801561089e573d6000803e3d6000fd5b505050506040513d6000823e601f3d9081017fffffffffffffffffffffffffffffffffffffffffffffffffffffffffffffffe01682016040526108e49190810190612a5a565b8382815181106108f6576108f66129e6565b6020026020010181905250808061090c90612ae7565b915050610817565b50505b9450505050505b95945050505050565b6040517f9ddd0d6b0000000000000000000000000000000000000000000000000000000081526000907f000000000000000000000000000000000000000000000000000000000000000090829073ffffffffffffffffffffffffffffffffffffffff831690639ddd0d6b906109a2908c908c9060040161293d565b602060405180830381865afa1580156109bf573d6000803e3d6000fd5b505050506040513d601f19601f820116820180604052508101906109e39190612959565b905060008273ffffffffffffffffffffffffffffffffffffffff16633e66eae38b8b8b8b6040518563ffffffff1660e01b8152600401610a269493929190612972565b602060405180830381865afa158015610a43573d6000803e3d6000fd5b505050506040513d601f19601f82011682018060405250810190610a679190612959565b90508015610bf5576000828152600460209081526040808320848452825280832060018452825280832080548251818502810185019093528083529192909190849084015b82821015610b0e5760008481526020908190206040805160608101825260038602909201805473ffffffffffffffffffffffffffffffffffffffff16835260018082015484860152600290910154918301919091529083529092019101610aac565b5050506000858152600460209081526040808320878452825280832073ffffffffffffffffffffffffffffffffffffffff8d16845282528083208054825181850281018501909352808352959650929490935090849084015b82821015610bc95760008481526020908190206040805160608101825260038602909201805473ffffffffffffffffffffffffffffffffffffffff16835260018082015484860152600290910154918301919091529083529092019101610b67565b5050505090506000610bdb8383611f25565b9050610be885828a61207c565b9650505050505050610d3c565b600082815260036020908152604080832060018452825280832080548251818502810185019093528083529192909190849084015b82821015610c8c5760008481526020908190206040805160608101825260038602909201805473ffffffffffffffffffffffffffffffffffffffff16835260018082015484860152600290910154918301919091529083529092019101610c2a565b505050600085815260036020908152604080832073ffffffffffffffffffffffffffffffffffffffff8d16845282528083208054825181850281018501909352808352959650929490935090849084018215610bc95760008481526020908190206040805160608101825260038602909201805473ffffffffffffffffffffffffffffffffffffffff16835260018082015484860152600290910154918301919091529083529092019101610b67565b9695505050505050565b3373ffffffffffffffffffffffffffffffffffffffff7f00000000000000000000000000000000000000000000000000000000000000001614610db5576040517f2596a42e00000000000000000000000000000000000000000000000000000000815260040160405180910390fd5b6040517f9ddd0d6b00000000000000000000000000000000000000000000000000000000815260009073ffffffffffffffffffffffffffffffffffffffff7f00000000000000000000000000000000000000000000000000000000000000001690639ddd0d6b90610e2a9089906004016122e5565b602060405180830381865afa158015610e47573d6000803e3d6000fd5b505050506040513d601f19601f82011682018060405250810190610e6b9190612959565b905060007f000000000000000000000000000000000000000000000000000000000000000073ffffffffffffffffffffffffffffffffffffffff16633e66eae388886040518363ffffffff1660e01b8152600401610eca929190612b1f565b602060405180830381865afa158015610ee7573d6000803e3d6000fd5b505050506040513d601f19601f82011682018060405250810190610f0b9190612959565b90506000610f1b84860186612b44565b8751909150156110035760008381526006602090815260408083208584528252808320898452825280832080546001818101835591855283852001805473ffffffffffffffffffffffffffffffffffffffff8088167fffffffffffffffffffffffff0000000000000000000000000000000000000000928316811790935589875260048652848720898852865284872083885286528487208551606081018752938452428488019081529584018e81528154808701835591895296909720925160039097029092018054969092169516949094178455905190830155516002909101556110cb565b6000838152600560209081526040808320898452825280832080546001818101835591855283852001805473ffffffffffffffffffffffffffffffffffffffff8088167fffffffffffffffffffffffff00000000000000000000000000000000000000009283168117909355898752600380875285882084895287528588208651606081018852948552428589019081529685018f815281548088018355918a5297909820935197029092018054969092169516949094178455905190830155516002909101555b5050505050505050565b3373ffffffffffffffffffffffffffffffffffffffff7f00000000000000000000000000000000000000000000000000000000000000001614611144576040517f2596a42e00000000000000000000000000000000000000000000000000000000815260040160405180910390fd5b6040517f9ddd0d6b0000000000000000000000000000000000000000000000000000000081527f00000000000000000000000000000000000000000000000000000000000000009060009073ffffffffffffffffffffffffffffffffffffffff831690639ddd0d6b906111bd908c908c9060040161293d565b602060405180830381865afa1580156111da573d6000803e3d6000fd5b505050506040513d601f19601f820116820180604052508101906111fe9190612959565b905060008273ffffffffffffffffffffffffffffffffffffffff16633e66eae38b8b8b8b6040518563ffffffff1660e01b81526004016112419493929190612972565b602060405180830381865afa15801561125e573d6000803e3d6000fd5b505050506040513d601f19601f820116820180604052508101906112829190612959565b9050600061129285870187612b44565b9050811561172e576000838152600460209081526040808320858452825280832073ffffffffffffffffffffffffffffffffffffffff851684528252808320548684526006835281842086855283528184208b855290925282205490915b82811015611483576000868152600460209081526040808320888452825280832073ffffffffffffffffffffffffffffffffffffffff88168452909152902080548b919083908110611344576113446129e6565b90600052602060002090600302016002015403611471576000868152600460209081526040808320888452825280832073ffffffffffffffffffffffffffffffffffffffff88168452909152902061139d600185612b61565b815481106113ad576113ad6129e6565b600091825260208083208984526004825260408085208a8652835280852073ffffffffffffffffffffffffffffffffffffffff8a168652909252922080546003909202909201919083908110611405576114056129e6565b60009182526020909120825460039092020180547fffffffffffffffffffffffff00000000000000000000000000000000000000001673ffffffffffffffffffffffffffffffffffffffff90921691909117815560018083015490820155600291820154910155611483565b8061147b81612ae7565b9150506112f0565b5060005b818110156115f257600086815260066020908152604080832088845282528083208d84529091529020805473ffffffffffffffffffffffffffffffffffffffff86169190839081106114db576114db6129e6565b60009182526020909120015473ffffffffffffffffffffffffffffffffffffffff16036115e057600086815260066020908152604080832088845282528083208d8452909152902061152e600184612b61565b8154811061153e5761153e6129e6565b600091825260208083209091015488835260068252604080842089855283528084208e85529092529120805473ffffffffffffffffffffffffffffffffffffffff9092169183908110611593576115936129e6565b9060005260206000200160006101000a81548173ffffffffffffffffffffffffffffffffffffffff021916908373ffffffffffffffffffffffffffffffffffffffff1602179055506115f2565b806115ea81612ae7565b915050611487565b50600085815260066020908152604080832087845282528083208c8452909152902080548061162357611623612b74565b6000828152602080822083017fffffffffffffffffffffffffffffffffffffffffffffffffffffffffffffffff90810180547fffffffffffffffffffffffff0000000000000000000000000000000000000000169055909201909255868252600481526040808320878452825280832073ffffffffffffffffffffffffffffffffffffffff8716845290915290208054806116c0576116c0612b74565b60008281526020812060037fffffffffffffffffffffffffffffffffffffffffffffffffffffffffffffffff9093019283020180547fffffffffffffffffffffffff00000000000000000000000000000000000000001681556001810182905560020155905550611b6e9050565b600083815260036020908152604080832073ffffffffffffffffffffffffffffffffffffffff85168452825280832054868452600583528184208b855290925282205490915b828110156118f057600086815260036020908152604080832073ffffffffffffffffffffffffffffffffffffffff88168452909152902080548b9190839081106117c0576117c06129e6565b906000526020600020906003020160020154036118de57600086815260036020908152604080832073ffffffffffffffffffffffffffffffffffffffff881684529091529020611811600185612b61565b81548110611821576118216129e6565b600091825260208083208984526003808352604080862073ffffffffffffffffffffffffffffffffffffffff8b168752909352919093208054919092029092019183908110611872576118726129e6565b60009182526020909120825460039092020180547fffffffffffffffffffffffff00000000000000000000000000000000000000001673ffffffffffffffffffffffffffffffffffffffff909216919091178155600180830154908201556002918201549101556118f0565b806118e881612ae7565b915050611774565b5060005b81811015611a475760008681526005602090815260408083208d84529091529020805473ffffffffffffffffffffffffffffffffffffffff8616919083908110611940576119406129e6565b60009182526020909120015473ffffffffffffffffffffffffffffffffffffffff1603611a355760008681526005602090815260408083208d8452909152902061198b600184612b61565b8154811061199b5761199b6129e6565b60009182526020808320909101548883526005825260408084208e85529092529120805473ffffffffffffffffffffffffffffffffffffffff90921691839081106119e8576119e86129e6565b9060005260206000200160006101000a81548173ffffffffffffffffffffffffffffffffffffffff021916908373ffffffffffffffffffffffffffffffffffffffff160217905550611a47565b80611a3f81612ae7565b9150506118f4565b5060008581526005602090815260408083208c84529091529020805480611a7057611a70612b74565b6000828152602080822083017fffffffffffffffffffffffffffffffffffffffffffffffffffffffffffffffff90810180547fffffffffffffffffffffffff000000000000000000000000000000000000000016905590920190925586825260038152604080832073ffffffffffffffffffffffffffffffffffffffff871684529091529020805480611b0557611b05612b74565b60008281526020812060037fffffffffffffffffffffffffffffffffffffffffffffffffffffffffffffffff9093019283020180547fffffffffffffffffffffffff00000000000000000000000000000000000000001681556001810182905560020155905550505b5050505050505050505050565b6060611c6386868686337f000000000000000000000000000000000000000000000000000000000000000073ffffffffffffffffffffffffffffffffffffffff1663173c4a637f2b3d061cc9a05a241dd71f0a41723b519b0e5797b2389fcc6f98c31433922d4d6040518263ffffffff1660e01b8152600401611c0091815260200190565b600060405180830381865afa158015611c1d573d6000803e3d6000fd5b505050506040513d6000823e601f3d9081017fffffffffffffffffffffffffffffffffffffffffffffffffffffffffffffffe01682016040526101c79190810190612c08565b611c99576040517f3d693ada00000000000000000000000000000000000000000000000000000000815260040160405180910390fd5b6040517f9ddd0d6b00000000000000000000000000000000000000000000000000000000815260009073ffffffffffffffffffffffffffffffffffffffff7f00000000000000000000000000000000000000000000000000000000000000001690639ddd0d6b90611d10908a908a9060040161293d565b602060405180830381865afa158015611d2d573d6000803e3d6000fd5b505050506040513d601f19601f82011682018060405250810190611d519190612959565b90506000849003611ddc57600081815260056020908152604080832086845282529182902080548351818402810184019094528084529091830182828015611dcf57602002820191906000526020600020905b815473ffffffffffffffffffffffffffffffffffffffff168152600190910190602001808311611da4575b505050505091505061091e565b6040517f3e66eae300000000000000000000000000000000000000000000000000000000815260009073ffffffffffffffffffffffffffffffffffffffff7f00000000000000000000000000000000000000000000000000000000000000001690633e66eae390611e57908b908b908b908b90600401612972565b602060405180830381865afa158015611e74573d6000803e3d6000fd5b505050506040513d601f19601f82011682018060405250810190611e989190612959565b600083815260066020908152604080832084845282528083208884528252918290208054835181840281018401909452808452939450919290830182828015611f1757602002820191906000526020600020905b815473ffffffffffffffffffffffffffffffffffffffff168152600190910190602001808311611eec575b50505050509250505061091e565b6060600082518451611f3791906129d3565b67ffffffffffffffff811115611f4f57611f4f61247c565b604051908082528060200260200182016040528015611fba57816020015b611fa76040518060600160405280600073ffffffffffffffffffffffffffffffffffffffff16815260200160008152602001600081525090565b815260200190600190039081611f6d5790505b50905060005b845181101561201357848181518110611fdb57611fdb6129e6565b6020026020010151828281518110611ff557611ff56129e6565b6020026020010181905250808061200b90612ae7565b915050611fc0565b60005b845181101561207257848161202a81612ae7565b92508151811061203c5761203c6129e6565b602002602001015183838061205090612ae7565b945081518110612062576120626129e6565b6020026020010181905250612016565b5090949350505050565b6000805b835181101561222857600084828151811061209d5761209d6129e6565b602002602001015160400151905060007f000000000000000000000000000000000000000000000000000000000000000073ffffffffffffffffffffffffffffffffffffffff1663a7d325fc88846040518363ffffffff1660e01b8152600401612111929190918252602082015260400190565b600060405180830381865afa15801561212e573d6000803e3d6000fd5b505050506040513d6000823e601f3d9081017fffffffffffffffffffffffffffffffffffffffffffffffffffffffffffffffe01682016040526121749190810190612c3d565b905060005b81518110156122125785516040516121949190602001612d00565b604051602081830303815290604052805190602001208282815181106121bc576121bc6129e6565b6020026020010151600001516040516020016121d89190612d00565b604051602081830303815290604052805190602001200361220057600194505050505061222e565b8061220a81612ae7565b915050612179565b505050808061222090612ae7565b915050612080565b50600090505b9392505050565b60006020828403121561224757600080fd5b81357fffffffff000000000000000000000000000000000000000000000000000000008116811461222e57600080fd5b60005b8381101561229257818101518382015260200161227a565b50506000910152565b600081518084526122b3816020860160208601612277565b601f017fffffffffffffffffffffffffffffffffffffffffffffffffffffffffffffffe0169290920160200192915050565b60208152600061222e602083018461229b565b60008083601f84011261230a57600080fd5b50813567ffffffffffffffff81111561232257600080fd5b60208301915083602082850101111561233a57600080fd5b9250929050565b73ffffffffffffffffffffffffffffffffffffffff8116811461236357600080fd5b50565b60008060008060006060868803121561237e57600080fd5b853567ffffffffffffffff8082111561239657600080fd5b6123a289838a016122f8565b909750955060208801359150808211156123bb57600080fd5b506123c8888289016122f8565b90945092505060408601356123dc81612341565b809150509295509295909350565b60006020808301818452808551808352604092508286019150828160051b87010184880160005b8381101561246e578883037fffffffffffffffffffffffffffffffffffffffffffffffffffffffffffffffc001855281518051845287015187840187905261245b8785018261229b565b9588019593505090860190600101612411565b509098975050505050505050565b7f4e487b7100000000000000000000000000000000000000000000000000000000600052604160045260246000fd5b6040516020810167ffffffffffffffff811182821017156124ce576124ce61247c565b60405290565b604051601f82017fffffffffffffffffffffffffffffffffffffffffffffffffffffffffffffffe016810167ffffffffffffffff8111828210171561251b5761251b61247c565b604052919050565b600067ffffffffffffffff82111561253d5761253d61247c565b50601f017fffffffffffffffffffffffffffffffffffffffffffffffffffffffffffffffe01660200190565b600082601f83011261257a57600080fd5b813561258d61258882612523565b6124d4565b8181528460208386010111156125a257600080fd5b816020850160208301376000918101602001919091529392505050565b600080600080600080608087890312156125d857600080fd5b863567ffffffffffffffff808211156125f057600080fd5b6125fc8a838b016122f8565b9098509650602089013591508082111561261557600080fd5b6126218a838b016122f8565b90965094506040890135915061263682612341565b9092506060880135908082111561264c57600080fd5b908801906020828b03121561266057600080fd5b6126686124ab565b82358281111561267757600080fd5b6126838c828601612569565b8252508093505050509295509295509295565b6000806000806000608086880312156126ae57600080fd5b853567ffffffffffffffff808211156126c657600080fd5b6126d289838a01612569565b965060208801359150808211156126e857600080fd5b6126f489838a01612569565b955060408801359450606088013591508082111561271157600080fd5b5061271e888289016122f8565b969995985093965092949392505050565b60008060008060008060006080888a03121561274a57600080fd5b873567ffffffffffffffff8082111561276257600080fd5b61276e8b838c016122f8565b909950975060208a013591508082111561278757600080fd5b6127938b838c016122f8565b909750955060408a0135945060608a01359150808211156127b357600080fd5b506127c08a828b016122f8565b989b979a50959850939692959293505050565b6000806000806000606086880312156127eb57600080fd5b853567ffffffffffffffff8082111561280357600080fd5b61280f89838a016122f8565b9097509550602088013591508082111561282857600080fd5b50612835888289016122f8565b96999598509660400135949350505050565b6020808252825182820181905260009190848201906040850190845b8181101561289557835173ffffffffffffffffffffffffffffffffffffffff1683529284019291840191600101612863565b50909695505050505050565b600181811c908216806128b557607f821691505b6020821081036128ee577f4e487b7100000000000000000000000000000000000000000000000000000000600052602260045260246000fd5b50919050565b8183528181602085013750600060208284010152600060207fffffffffffffffffffffffffffffffffffffffffffffffffffffffffffffffe0601f840116840101905092915050565b6020815260006129516020830184866128f4565b949350505050565b60006020828403121561296b57600080fd5b5051919050565b6040815260006129866040830186886128f4565b82810360208401526129998185876128f4565b979650505050505050565b7f4e487b7100000000000000000000000000000000000000000000000000000000600052601160045260246000fd5b808201808211156102ce576102ce6129a4565b7f4e487b7100000000000000000000000000000000000000000000000000000000600052603260045260246000fd5b600082601f830112612a2657600080fd5b8151612a3461258882612523565b818152846020838601011115612a4957600080fd5b612951826020830160208701612277565b600060208284031215612a6c57600080fd5b815167ffffffffffffffff80821115612a8457600080fd5b9083019060408286031215612a9857600080fd5b604051604081018181108382111715612ab357612ab361247c565b60405282518152602083015182811115612acc57600080fd5b612ad887828601612a15565b60208301525095945050505050565b60007fffffffffffffffffffffffffffffffffffffffffffffffffffffffffffffffff8203612b1857612b186129a4565b5060010190565b604081526000612b32604083018561229b565b828103602084015261091e818561229b565b600060208284031215612b5657600080fd5b813561222e81612341565b818103818111156102ce576102ce6129a4565b7f4e487b7100000000000000000000000000000000000000000000000000000000600052603160045260246000fd5b600060208284031215612bb557600080fd5b6040516020810167ffffffffffffffff8282108183111715612bd957612bd961247c565b816040528293508451915080821115612bf157600080fd5b50612bfe85828601612a15565b8252505092915050565b600060208284031215612c1a57600080fd5b815167ffffffffffffffff811115612c3157600080fd5b61295184828501612ba3565b60006020808385031215612c5057600080fd5b825167ffffffffffffffff80821115612c6857600080fd5b818501915085601f830112612c7c57600080fd5b815181811115612c8e57612c8e61247c565b8060051b612c9d8582016124d4565b9182528381018501918581019089841115612cb757600080fd5b86860192505b83831015612cf357825185811115612cd55760008081fd5b612ce38b89838a0101612ba3565b8352509186019190860190612cbd565b9998505050505050505050565b60008251612d12818460208701612277565b919091019291505056fea2646970667358221220fbdd4d5a4bd7570ec5a9bd0b73a6dc03731ef9debfaa001b6a8dc1a0742af1f564736f6c63430008110033",
    "linkReferences": {}
  },
  "methodIdentifiers": {
    "_permisionRegistry()": "5acad43c",
    "_roleManager()": "f4339a97",
    "_spaceManager()": "3820c2ad",
    "description()": "7284e416",
    "getEntitlementData(string,string,uint256)": "faecd9e4",
    "getUserRoles(string,string,address)": "82ceca42",
    "isEntitled(string,string,address,(string))": "bf77b663",
    "moduleType()": "6465e69f",
    "name()": "06fdde03",
    "removeEntitlement(string,string,uint256,bytes)": "ec6b643a",
    "setEntitlement(string,string,uint256,bytes)": "c800fec4",
    "supportsInterface(bytes4)": "01ffc9a7"
  },
  "id": 36
}