{
  "abi": [
    {
      "inputs": [
        {
          "internalType": "string",
          "name": "name_",
          "type": "string"
        },
        {
          "internalType": "string",
          "name": "description_",
          "type": "string"
        },
        {
          "internalType": "address",
          "name": "spaceManager_",
          "type": "address"
        },
        {
          "internalType": "address",
          "name": "roleManager_",
          "type": "address"
        }
      ],
      "stateMutability": "nonpayable",
      "type": "constructor"
    },
    {
      "inputs": [],
      "name": "InvalidParameters",
      "type": "error"
    },
    {
      "inputs": [],
      "name": "NotSpaceManager",
      "type": "error"
    },
    {
      "inputs": [],
      "name": "_roleManager",
      "outputs": [
        {
          "internalType": "address",
          "name": "",
          "type": "address"
        }
      ],
      "stateMutability": "view",
      "type": "function"
    },
    {
      "inputs": [],
      "name": "_spaceManager",
      "outputs": [
        {
          "internalType": "address",
          "name": "",
          "type": "address"
        }
      ],
      "stateMutability": "view",
      "type": "function"
    },
    {
      "inputs": [],
      "name": "description",
      "outputs": [
        {
          "internalType": "string",
          "name": "",
          "type": "string"
        }
      ],
      "stateMutability": "view",
      "type": "function"
    },
    {
      "inputs": [
        {
          "internalType": "string",
          "name": "spaceId",
          "type": "string"
        },
        {
          "internalType": "string",
          "name": "channelId",
          "type": "string"
        },
        {
          "internalType": "address",
          "name": "user",
          "type": "address"
        }
      ],
      "name": "getUserRoles",
      "outputs": [
        {
          "components": [
            {
              "internalType": "uint256",
              "name": "roleId",
              "type": "uint256"
            },
            {
              "internalType": "string",
              "name": "name",
              "type": "string"
            }
          ],
          "internalType": "struct DataTypes.Role[]",
          "name": "",
          "type": "tuple[]"
        }
      ],
      "stateMutability": "view",
      "type": "function"
    },
    {
      "inputs": [
        {
          "internalType": "string",
          "name": "spaceId",
          "type": "string"
        },
        {
          "internalType": "string",
          "name": "channelId",
          "type": "string"
        },
        {
          "internalType": "address",
          "name": "user",
          "type": "address"
        },
        {
          "components": [
            {
              "internalType": "string",
              "name": "name",
              "type": "string"
            }
          ],
          "internalType": "struct DataTypes.Permission",
          "name": "permission",
          "type": "tuple"
        }
      ],
      "name": "isEntitled",
      "outputs": [
        {
          "internalType": "bool",
          "name": "",
          "type": "bool"
        }
      ],
      "stateMutability": "view",
      "type": "function"
    },
    {
      "inputs": [],
      "name": "name",
      "outputs": [
        {
          "internalType": "string",
          "name": "",
          "type": "string"
        }
      ],
      "stateMutability": "view",
      "type": "function"
    },
    {
      "inputs": [
        {
          "internalType": "string",
          "name": "spaceId",
          "type": "string"
        },
        {
          "internalType": "string",
          "name": "channelId",
          "type": "string"
        },
        {
          "internalType": "uint256",
          "name": "roleId",
          "type": "uint256"
        },
        {
          "internalType": "bytes",
          "name": "entitlementData",
          "type": "bytes"
        }
      ],
      "name": "removeEntitlement",
      "outputs": [],
      "stateMutability": "nonpayable",
      "type": "function"
    },
    {
      "inputs": [
        {
          "internalType": "string",
          "name": "spaceId",
          "type": "string"
        },
        {
          "internalType": "string",
          "name": "channelId",
          "type": "string"
        },
        {
          "internalType": "uint256",
          "name": "roleId",
          "type": "uint256"
        },
        {
          "internalType": "bytes",
          "name": "entitlementData",
          "type": "bytes"
        }
      ],
      "name": "setEntitlement",
      "outputs": [],
      "stateMutability": "nonpayable",
      "type": "function"
    },
    {
      "inputs": [
        {
          "internalType": "bytes4",
          "name": "interfaceId",
          "type": "bytes4"
        }
      ],
      "name": "supportsInterface",
      "outputs": [
        {
          "internalType": "bool",
          "name": "",
          "type": "bool"
        }
      ],
      "stateMutability": "view",
      "type": "function"
    }
  ],
  "bytecode": {
    "object": "0x60c06040523480156200001157600080fd5b5060405162002bdf38038062002bdf83398101604081905262000034916200017f565b838383836001600160a01b0382166200006057604051630e52390960e41b815260040160405180910390fd5b60006200006e85826200029d565b5060016200007d84826200029d565b506001600160a01b039182166080521660a0525062000369945050505050565b634e487b7160e01b600052604160045260246000fd5b600082601f830112620000c557600080fd5b81516001600160401b0380821115620000e257620000e26200009d565b604051601f8301601f19908116603f011681019082821181831017156200010d576200010d6200009d565b816040528381526020925086838588010111156200012a57600080fd5b600091505b838210156200014e57858201830151818301840152908201906200012f565b600093810190920192909252949350505050565b80516001600160a01b03811681146200017a57600080fd5b919050565b600080600080608085870312156200019657600080fd5b84516001600160401b0380821115620001ae57600080fd5b620001bc88838901620000b3565b95506020870151915080821115620001d357600080fd5b50620001e287828801620000b3565b935050620001f36040860162000162565b9150620002036060860162000162565b905092959194509250565b600181811c908216806200022357607f821691505b6020821081036200024457634e487b7160e01b600052602260045260246000fd5b50919050565b601f8211156200029857600081815260208120601f850160051c81016020861015620002735750805b601f850160051c820191505b8181101562000294578281556001016200027f565b5050505b505050565b81516001600160401b03811115620002b957620002b96200009d565b620002d181620002ca84546200020e565b846200024a565b602080601f831160018114620003095760008415620002f05750858301515b600019600386901b1c1916600185901b17855562000294565b600085815260208120601f198616915b828110156200033a5788860151825594840194600190910190840162000319565b5085821015620003595787850151600019600388901b60f8161c191681555b5050505050600190811b01905550565b60805160a051612812620003cd60003960008181610199015281816103420152611c7d01526000818160ea01528181610320015281816108c901528181610cd501528181610d6c01528181610de80152818161106501526110e401526128126000f3fe608060405234801561001057600080fd5b50600436106100a35760003560e01c806382ceca4211610076578063c800fec41161005b578063c800fec41461016c578063ec6b643a14610181578063f4339a971461019457600080fd5b806382ceca4214610139578063bf77b6631461015957600080fd5b806301ffc9a7146100a857806306fdde03146100d05780633820c2ad146100e55780637284e41614610131575b600080fd5b6100bb6100b6366004611e03565b6101bb565b60405190151581526020015b60405180910390f35b6100d8610254565b6040516100c79190611eb3565b61010c7f000000000000000000000000000000000000000000000000000000000000000081565b60405173ffffffffffffffffffffffffffffffffffffffff90911681526020016100c7565b6100d86102e6565b61014c610147366004611f34565b6102f5565b6040516100c79190611fb8565b6100bb61016736600461218d565b61089e565b61017f61017a366004612264565b610cbd565b005b61017f61018f3660046122fd565b61104d565b61010c7f000000000000000000000000000000000000000000000000000000000000000081565b60007fffffffff0000000000000000000000000000000000000000000000000000000082167f6dabdcca00000000000000000000000000000000000000000000000000000000148061024e57507f01ffc9a7000000000000000000000000000000000000000000000000000000007fffffffff000000000000000000000000000000000000000000000000000000008316145b92915050565b606060008054610263906123a1565b80601f016020809104026020016040519081016040528092919081815260200182805461028f906123a1565b80156102dc5780601f106102b1576101008083540402835291602001916102dc565b820191906000526020600020905b8154815290600101906020018083116102bf57829003601f168201915b5050505050905090565b606060018054610263906123a1565b6040517f9ddd0d6b0000000000000000000000000000000000000000000000000000000081526060907f0000000000000000000000000000000000000000000000000000000000000000907f00000000000000000000000000000000000000000000000000000000000000009060009073ffffffffffffffffffffffffffffffffffffffff841690639ddd0d6b90610393908c908c9060040161243d565b602060405180830381865afa1580156103b0573d6000803e3d6000fd5b505050506040513d601f19601f820116820180604052508101906103d49190612459565b905060008373ffffffffffffffffffffffffffffffffffffffff16633e66eae38b8b8b8b6040518563ffffffff1660e01b81526004016104179493929190612472565b602060405180830381865afa158015610434573d6000803e3d6000fd5b505050506040513d601f19601f820116820180604052508101906104589190612459565b6000838152600360209081526040808320848452825280832073ffffffffffffffffffffffffffffffffffffffff8b168085529083528184205487855260028452828520918552925282205492935090916104b391906124d3565b67ffffffffffffffff8111156104cb576104cb61204a565b60405190808252806020026020018201604052801561051157816020015b6040805180820190915260008152606060208201528152602001906001900390816104e95790505b50905087156106db576000838152600360209081526040808320858452825280832073ffffffffffffffffffffffffffffffffffffffff8b168452825280832080548251818502810185019093528083529192909190849084015b828210156105ce5760008481526020908190206040805160608101825260038602909201805473ffffffffffffffffffffffffffffffffffffffff1683526001808201548486015260029091015491830191909152908352909201910161056c565b50505050905060005b81518110156106d4578573ffffffffffffffffffffffffffffffffffffffff1663d9af4ecf8684848151811061060f5761060f6124e6565b6020026020010151604001516040518363ffffffff1660e01b8152600401610641929190918252602082015260400190565b600060405180830381865afa15801561065e573d6000803e3d6000fd5b505050506040513d6000823e601f3d9081017fffffffffffffffffffffffffffffffffffffffffffffffffffffffffffffffe01682016040526106a4919081019061255a565b8382815181106106b6576106b66124e6565b602002602001018190525080806106cc906125e7565b9150506105d7565b5050610890565b600083815260026020908152604080832073ffffffffffffffffffffffffffffffffffffffff8b168452825280832080548251818502810185019093528083529192909190849084015b828210156107875760008481526020908190206040805160608101825260038602909201805473ffffffffffffffffffffffffffffffffffffffff16835260018082015484860152600290910154918301919091529083529092019101610725565b50505050905060005b815181101561088d578573ffffffffffffffffffffffffffffffffffffffff1663d9af4ecf868484815181106107c8576107c86124e6565b6020026020010151604001516040518363ffffffff1660e01b81526004016107fa929190918252602082015260400190565b600060405180830381865afa158015610817573d6000803e3d6000fd5b505050506040513d6000823e601f3d9081017fffffffffffffffffffffffffffffffffffffffffffffffffffffffffffffffe016820160405261085d919081019061255a565b83828151811061086f5761086f6124e6565b60200260200101819052508080610885906125e7565b915050610790565b50505b9a9950505050505050505050565b6040517f9ddd0d6b0000000000000000000000000000000000000000000000000000000081526000907f000000000000000000000000000000000000000000000000000000000000000090829073ffffffffffffffffffffffffffffffffffffffff831690639ddd0d6b90610919908c908c9060040161243d565b602060405180830381865afa158015610936573d6000803e3d6000fd5b505050506040513d601f19601f8201168201806040525081019061095a9190612459565b905060008273ffffffffffffffffffffffffffffffffffffffff16633e66eae38b8b8b8b6040518563ffffffff1660e01b815260040161099d9493929190612472565b602060405180830381865afa1580156109ba573d6000803e3d6000fd5b505050506040513d601f19601f820116820180604052508101906109de9190612459565b90508015610b6c576000828152600360209081526040808320848452825280832060018452825280832080548251818502810185019093528083529192909190849084015b82821015610a855760008481526020908190206040805160608101825260038602909201805473ffffffffffffffffffffffffffffffffffffffff16835260018082015484860152600290910154918301919091529083529092019101610a23565b5050506000858152600360209081526040808320878452825280832073ffffffffffffffffffffffffffffffffffffffff8d16845282528083208054825181850281018501909352808352959650929490935090849084015b82821015610b405760008481526020908190206040805160608101825260038602909201805473ffffffffffffffffffffffffffffffffffffffff16835260018082015484860152600290910154918301919091529083529092019101610ade565b5050505090506000610b528383611af3565b9050610b5f85828a611c4a565b9650505050505050610cb3565b600082815260026020908152604080832060018452825280832080548251818502810185019093528083529192909190849084015b82821015610c035760008481526020908190206040805160608101825260038602909201805473ffffffffffffffffffffffffffffffffffffffff16835260018082015484860152600290910154918301919091529083529092019101610ba1565b505050600085815260026020908152604080832073ffffffffffffffffffffffffffffffffffffffff8d16845282528083208054825181850281018501909352808352959650929490935090849084018215610b405760008481526020908190206040805160608101825260038602909201805473ffffffffffffffffffffffffffffffffffffffff16835260018082015484860152600290910154918301919091529083529092019101610ade565b9695505050505050565b3373ffffffffffffffffffffffffffffffffffffffff7f00000000000000000000000000000000000000000000000000000000000000001614610d2c576040517f2596a42e00000000000000000000000000000000000000000000000000000000815260040160405180910390fd5b6040517f9ddd0d6b00000000000000000000000000000000000000000000000000000000815260009073ffffffffffffffffffffffffffffffffffffffff7f00000000000000000000000000000000000000000000000000000000000000001690639ddd0d6b90610da1908990600401611eb3565b602060405180830381865afa158015610dbe573d6000803e3d6000fd5b505050506040513d601f19601f82011682018060405250810190610de29190612459565b905060007f000000000000000000000000000000000000000000000000000000000000000073ffffffffffffffffffffffffffffffffffffffff16633e66eae388886040518363ffffffff1660e01b8152600401610e4192919061261f565b602060405180830381865afa158015610e5e573d6000803e3d6000fd5b505050506040513d601f19601f82011682018060405250810190610e829190612459565b90506000610e928486018661264d565b875190915015610f785760008381526005602090815260408083208584528252808320898452825280832080546001818101835591855283852001805473ffffffffffffffffffffffffffffffffffffffff8088167fffffffffffffffffffffffff0000000000000000000000000000000000000000928316811790935589875260038087528588208a8952875285882084895287528588208651606081018852948552428589019081529685018f815281548088018355918a529790982093519702909201805496909216951694909417845590519083015551600290910155611043565b6000838152600460209081526040808320898452825280832080546001818101835591855283852001805473ffffffffffffffffffffffffffffffffffffffff8088167fffffffffffffffffffffffff00000000000000000000000000000000000000009283168117909355898752600280875285882084895287528588208651606081018852948552428589019081529685018f815281548088018355918a5297909820935160039098029093018054979091169690911695909517855591519084015590519101555b5050505050505050565b3373ffffffffffffffffffffffffffffffffffffffff7f000000000000000000000000000000000000000000000000000000000000000016146110bc576040517f2596a42e00000000000000000000000000000000000000000000000000000000815260040160405180910390fd5b6040517f9ddd0d6b0000000000000000000000000000000000000000000000000000000081527f00000000000000000000000000000000000000000000000000000000000000009060009073ffffffffffffffffffffffffffffffffffffffff831690639ddd0d6b90611135908c908c9060040161243d565b602060405180830381865afa158015611152573d6000803e3d6000fd5b505050506040513d601f19601f820116820180604052508101906111769190612459565b905060008273ffffffffffffffffffffffffffffffffffffffff16633e66eae38b8b8b8b6040518563ffffffff1660e01b81526004016111b99493929190612472565b602060405180830381865afa1580156111d6573d6000803e3d6000fd5b505050506040513d601f19601f820116820180604052508101906111fa9190612459565b9050600061120a8587018761264d565b905081156116a7576000838152600360209081526040808320858452825280832073ffffffffffffffffffffffffffffffffffffffff851684528252808320548684526005835281842086855283528184208b855290925282205490915b828110156113fc576000868152600360209081526040808320888452825280832073ffffffffffffffffffffffffffffffffffffffff88168452909152902080548b9190839081106112bc576112bc6124e6565b906000526020600020906003020160020154036113ea576000868152600360209081526040808320888452825280832073ffffffffffffffffffffffffffffffffffffffff88168452909152902061131560018561266a565b81548110611325576113256124e6565b60009182526020808320898452600380835260408086208b8752845280862073ffffffffffffffffffffffffffffffffffffffff8b16875290935291909320805491909202909201918390811061137e5761137e6124e6565b60009182526020909120825460039092020180547fffffffffffffffffffffffff00000000000000000000000000000000000000001673ffffffffffffffffffffffffffffffffffffffff909216919091178155600180830154908201556002918201549101556113fc565b806113f4816125e7565b915050611268565b5060005b8181101561156b57600086815260056020908152604080832088845282528083208d84529091529020805473ffffffffffffffffffffffffffffffffffffffff8616919083908110611454576114546124e6565b60009182526020909120015473ffffffffffffffffffffffffffffffffffffffff160361155957600086815260056020908152604080832088845282528083208d845290915290206114a760018461266a565b815481106114b7576114b76124e6565b600091825260208083209091015488835260058252604080842089855283528084208e85529092529120805473ffffffffffffffffffffffffffffffffffffffff909216918390811061150c5761150c6124e6565b9060005260206000200160006101000a81548173ffffffffffffffffffffffffffffffffffffffff021916908373ffffffffffffffffffffffffffffffffffffffff16021790555061156b565b80611563816125e7565b915050611400565b50600085815260056020908152604080832087845282528083208c8452909152902080548061159c5761159c61267d565b6000828152602080822083017fffffffffffffffffffffffffffffffffffffffffffffffffffffffffffffffff90810180547fffffffffffffffffffffffff0000000000000000000000000000000000000000169055909201909255868252600381526040808320878452825280832073ffffffffffffffffffffffffffffffffffffffff8716845290915290208054806116395761163961267d565b60008281526020812060037fffffffffffffffffffffffffffffffffffffffffffffffffffffffffffffffff9093019283020180547fffffffffffffffffffffffff00000000000000000000000000000000000000001681556001810182905560020155905550611ae69050565b600083815260026020908152604080832073ffffffffffffffffffffffffffffffffffffffff85168452825280832054868452600483528184208b855290925282205490915b8281101561186857600086815260026020908152604080832073ffffffffffffffffffffffffffffffffffffffff88168452909152902080548b919083908110611739576117396124e6565b9060005260206000209060030201600201540361185657600086815260026020908152604080832073ffffffffffffffffffffffffffffffffffffffff88168452909152902061178a60018561266a565b8154811061179a5761179a6124e6565b6000918252602080832089845260028252604080852073ffffffffffffffffffffffffffffffffffffffff8a1686529092529220805460039092029092019190839081106117ea576117ea6124e6565b60009182526020909120825460039092020180547fffffffffffffffffffffffff00000000000000000000000000000000000000001673ffffffffffffffffffffffffffffffffffffffff90921691909117815560018083015490820155600291820154910155611868565b80611860816125e7565b9150506116ed565b5060005b818110156119bf5760008681526004602090815260408083208d84529091529020805473ffffffffffffffffffffffffffffffffffffffff86169190839081106118b8576118b86124e6565b60009182526020909120015473ffffffffffffffffffffffffffffffffffffffff16036119ad5760008681526004602090815260408083208d8452909152902061190360018461266a565b81548110611913576119136124e6565b60009182526020808320909101548883526004825260408084208e85529092529120805473ffffffffffffffffffffffffffffffffffffffff9092169183908110611960576119606124e6565b9060005260206000200160006101000a81548173ffffffffffffffffffffffffffffffffffffffff021916908373ffffffffffffffffffffffffffffffffffffffff1602179055506119bf565b806119b7816125e7565b91505061186c565b5060008581526004602090815260408083208c845290915290208054806119e8576119e861267d565b6000828152602080822083017fffffffffffffffffffffffffffffffffffffffffffffffffffffffffffffffff90810180547fffffffffffffffffffffffff000000000000000000000000000000000000000016905590920190925586825260028152604080832073ffffffffffffffffffffffffffffffffffffffff871684529091529020805480611a7d57611a7d61267d565b60008281526020812060037fffffffffffffffffffffffffffffffffffffffffffffffffffffffffffffffff9093019283020180547fffffffffffffffffffffffff00000000000000000000000000000000000000001681556001810182905560020155905550505b5050505050505050505050565b6060600082518451611b0591906124d3565b67ffffffffffffffff811115611b1d57611b1d61204a565b604051908082528060200260200182016040528015611b8857816020015b611b756040518060600160405280600073ffffffffffffffffffffffffffffffffffffffff16815260200160008152602001600081525090565b815260200190600190039081611b3b5790505b50905060005b8451811015611be157848181518110611ba957611ba96124e6565b6020026020010151828281518110611bc357611bc36124e6565b60200260200101819052508080611bd9906125e7565b915050611b8e565b60005b8451811015611c40578481611bf8816125e7565b925081518110611c0a57611c0a6124e6565b6020026020010151838380611c1e906125e7565b945081518110611c3057611c306124e6565b6020026020010181905250611be4565b5090949350505050565b6000805b8351811015611df6576000848281518110611c6b57611c6b6124e6565b602002602001015160400151905060007f000000000000000000000000000000000000000000000000000000000000000073ffffffffffffffffffffffffffffffffffffffff1663a7d325fc88846040518363ffffffff1660e01b8152600401611cdf929190918252602082015260400190565b600060405180830381865afa158015611cfc573d6000803e3d6000fd5b505050506040513d6000823e601f3d9081017fffffffffffffffffffffffffffffffffffffffffffffffffffffffffffffffe0168201604052611d4291908101906126ac565b905060005b8151811015611de0578551604051611d6291906020016127c0565b60405160208183030381529060405280519060200120828281518110611d8a57611d8a6124e6565b602002602001015160000151604051602001611da691906127c0565b6040516020818303038152906040528051906020012003611dce576001945050505050611dfc565b80611dd8816125e7565b915050611d47565b5050508080611dee906125e7565b915050611c4e565b50600090505b9392505050565b600060208284031215611e1557600080fd5b81357fffffffff0000000000000000000000000000000000000000000000000000000081168114611dfc57600080fd5b60005b83811015611e60578181015183820152602001611e48565b50506000910152565b60008151808452611e81816020860160208601611e45565b601f017fffffffffffffffffffffffffffffffffffffffffffffffffffffffffffffffe0169290920160200192915050565b602081526000611dfc6020830184611e69565b60008083601f840112611ed857600080fd5b50813567ffffffffffffffff811115611ef057600080fd5b602083019150836020828501011115611f0857600080fd5b9250929050565b73ffffffffffffffffffffffffffffffffffffffff81168114611f3157600080fd5b50565b600080600080600060608688031215611f4c57600080fd5b853567ffffffffffffffff80821115611f6457600080fd5b611f7089838a01611ec6565b90975095506020880135915080821115611f8957600080fd5b50611f9688828901611ec6565b9094509250506040860135611faa81611f0f565b809150509295509295909350565b60006020808301818452808551808352604092508286019150828160051b87010184880160005b8381101561203c578883037fffffffffffffffffffffffffffffffffffffffffffffffffffffffffffffffc001855281518051845287015187840187905261202987850182611e69565b9588019593505090860190600101611fdf565b509098975050505050505050565b7f4e487b7100000000000000000000000000000000000000000000000000000000600052604160045260246000fd5b6040516020810167ffffffffffffffff8111828210171561209c5761209c61204a565b60405290565b604051601f82017fffffffffffffffffffffffffffffffffffffffffffffffffffffffffffffffe016810167ffffffffffffffff811182821017156120e9576120e961204a565b604052919050565b600067ffffffffffffffff82111561210b5761210b61204a565b50601f017fffffffffffffffffffffffffffffffffffffffffffffffffffffffffffffffe01660200190565b600082601f83011261214857600080fd5b813561215b612156826120f1565b6120a2565b81815284602083860101111561217057600080fd5b816020850160208301376000918101602001919091529392505050565b600080600080600080608087890312156121a657600080fd5b863567ffffffffffffffff808211156121be57600080fd5b6121ca8a838b01611ec6565b909850965060208901359150808211156121e357600080fd5b6121ef8a838b01611ec6565b90965094506040890135915061220482611f0f565b9092506060880135908082111561221a57600080fd5b908801906020828b03121561222e57600080fd5b612236612079565b82358281111561224557600080fd5b6122518c828601612137565b8252508093505050509295509295509295565b60008060008060006080868803121561227c57600080fd5b853567ffffffffffffffff8082111561229457600080fd5b6122a089838a01612137565b965060208801359150808211156122b657600080fd5b6122c289838a01612137565b95506040880135945060608801359150808211156122df57600080fd5b506122ec88828901611ec6565b969995985093965092949392505050565b60008060008060008060006080888a03121561231857600080fd5b873567ffffffffffffffff8082111561233057600080fd5b61233c8b838c01611ec6565b909950975060208a013591508082111561235557600080fd5b6123618b838c01611ec6565b909750955060408a0135945060608a013591508082111561238157600080fd5b5061238e8a828b01611ec6565b989b979a50959850939692959293505050565b600181811c908216806123b557607f821691505b6020821081036123ee577f4e487b7100000000000000000000000000000000000000000000000000000000600052602260045260246000fd5b50919050565b8183528181602085013750600060208284010152600060207fffffffffffffffffffffffffffffffffffffffffffffffffffffffffffffffe0601f840116840101905092915050565b6020815260006124516020830184866123f4565b949350505050565b60006020828403121561246b57600080fd5b5051919050565b6040815260006124866040830186886123f4565b82810360208401526124998185876123f4565b979650505050505050565b7f4e487b7100000000000000000000000000000000000000000000000000000000600052601160045260246000fd5b8082018082111561024e5761024e6124a4565b7f4e487b7100000000000000000000000000000000000000000000000000000000600052603260045260246000fd5b600082601f83011261252657600080fd5b8151612534612156826120f1565b81815284602083860101111561254957600080fd5b612451826020830160208701611e45565b60006020828403121561256c57600080fd5b815167ffffffffffffffff8082111561258457600080fd5b908301906040828603121561259857600080fd5b6040516040810181811083821117156125b3576125b361204a565b604052825181526020830151828111156125cc57600080fd5b6125d887828601612515565b60208301525095945050505050565b60007fffffffffffffffffffffffffffffffffffffffffffffffffffffffffffffffff8203612618576126186124a4565b5060010190565b6040815260006126326040830185611e69565b82810360208401526126448185611e69565b95945050505050565b60006020828403121561265f57600080fd5b8135611dfc81611f0f565b8181038181111561024e5761024e6124a4565b7f4e487b7100000000000000000000000000000000000000000000000000000000600052603160045260246000fd5b600060208083850312156126bf57600080fd5b825167ffffffffffffffff808211156126d757600080fd5b818501915085601f8301126126eb57600080fd5b8151818111156126fd576126fd61204a565b8060051b61270c8582016120a2565b918252838101850191858101908984111561272657600080fd5b86860192505b838310156127b3578251858111156127445760008081fd5b8601808b037fffffffffffffffffffffffffffffffffffffffffffffffffffffffffffffffe0018813156127785760008081fd5b612780612079565b88820151878111156127925760008081fd5b6127a08d8b83860101612515565b825250835250918601919086019061272c565b9998505050505050505050565b600082516127d2818460208701611e45565b919091019291505056fea2646970667358221220f297b43104c73b48b692c2072741b03c552ce6cdb6f1b59f76a32fb5460da6f164736f6c63430008110033",
    "linkReferences": {}
  },
  "methodIdentifiers": {
    "_roleManager()": "f4339a97",
    "_spaceManager()": "3820c2ad",
    "description()": "7284e416",
    "getUserRoles(string,string,address)": "82ceca42",
    "isEntitled(string,string,address,(string))": "bf77b663",
    "name()": "06fdde03",
    "removeEntitlement(string,string,uint256,bytes)": "ec6b643a",
    "setEntitlement(string,string,uint256,bytes)": "c800fec4",
    "supportsInterface(bytes4)": "01ffc9a7"
  },
  "id": 36
}