{
  "abi": [
    {
      "inputs": [
        {
          "internalType": "address",
          "name": "permissionRegistry",
          "type": "address"
        }
      ],
      "stateMutability": "nonpayable",
      "type": "constructor"
    },
    {
      "inputs": [],
      "name": "InvalidParameters",
      "type": "error"
    },
    {
      "inputs": [],
      "name": "NotSpaceManager",
      "type": "error"
    },
    {
      "anonymous": false,
      "inputs": [
        {
          "indexed": true,
          "internalType": "address",
          "name": "previousOwner",
          "type": "address"
        },
        {
          "indexed": true,
          "internalType": "address",
          "name": "newOwner",
          "type": "address"
        }
      ],
      "name": "OwnershipTransferred",
      "type": "event"
    },
    {
      "inputs": [
        {
          "internalType": "uint256",
          "name": "spaceId",
          "type": "uint256"
        },
        {
          "internalType": "uint256",
          "name": "roleId",
          "type": "uint256"
        },
        {
          "components": [
            {
              "internalType": "string",
              "name": "name",
              "type": "string"
            }
          ],
          "internalType": "struct DataTypes.Permission",
          "name": "permission",
          "type": "tuple"
        }
      ],
      "name": "addPermissionToRole",
      "outputs": [],
      "stateMutability": "nonpayable",
      "type": "function"
    },
    {
      "inputs": [
        {
          "internalType": "uint256",
          "name": "spaceId",
          "type": "uint256"
        }
      ],
      "name": "createOwnerRole",
      "outputs": [
        {
          "internalType": "uint256",
          "name": "",
          "type": "uint256"
        }
      ],
      "stateMutability": "nonpayable",
      "type": "function"
    },
    {
      "inputs": [
        {
          "internalType": "uint256",
          "name": "spaceId",
          "type": "uint256"
        },
        {
          "internalType": "string",
          "name": "name",
          "type": "string"
        }
      ],
      "name": "createRole",
      "outputs": [
        {
          "internalType": "uint256",
          "name": "",
          "type": "uint256"
        }
      ],
      "stateMutability": "nonpayable",
      "type": "function"
    },
    {
      "inputs": [
        {
          "internalType": "uint256",
          "name": "spaceId",
          "type": "uint256"
        },
        {
          "internalType": "uint256",
          "name": "roleId",
          "type": "uint256"
        }
      ],
      "name": "getPermissionsBySpaceIdByRoleId",
      "outputs": [
        {
          "components": [
            {
              "internalType": "string",
              "name": "name",
              "type": "string"
            }
          ],
          "internalType": "struct DataTypes.Permission[]",
          "name": "",
          "type": "tuple[]"
        }
      ],
      "stateMutability": "view",
      "type": "function"
    },
    {
      "inputs": [
        {
          "internalType": "uint256",
          "name": "spaceId",
          "type": "uint256"
        },
        {
          "internalType": "uint256",
          "name": "roleId",
          "type": "uint256"
        }
      ],
      "name": "getRoleBySpaceIdByRoleId",
      "outputs": [
        {
          "components": [
            {
              "internalType": "uint256",
              "name": "roleId",
              "type": "uint256"
            },
            {
              "internalType": "string",
              "name": "name",
              "type": "string"
            }
          ],
          "internalType": "struct DataTypes.Role",
          "name": "",
          "type": "tuple"
        }
      ],
      "stateMutability": "view",
      "type": "function"
    },
    {
      "inputs": [
        {
          "internalType": "uint256",
          "name": "spaceId",
          "type": "uint256"
        }
      ],
      "name": "getRolesBySpaceId",
      "outputs": [
        {
          "components": [
            {
              "internalType": "uint256",
              "name": "roleId",
              "type": "uint256"
            },
            {
              "internalType": "string",
              "name": "name",
              "type": "string"
            }
          ],
          "internalType": "struct DataTypes.Role[]",
          "name": "",
          "type": "tuple[]"
        }
      ],
      "stateMutability": "view",
      "type": "function"
    },
    {
      "inputs": [],
      "name": "owner",
      "outputs": [
        {
          "internalType": "address",
          "name": "",
          "type": "address"
        }
      ],
      "stateMutability": "view",
      "type": "function"
    },
    {
      "inputs": [
        {
          "internalType": "uint256",
          "name": "spaceId",
          "type": "uint256"
        },
        {
          "internalType": "uint256",
          "name": "roleId",
          "type": "uint256"
        },
        {
          "components": [
            {
              "internalType": "string",
              "name": "name",
              "type": "string"
            }
          ],
          "internalType": "struct DataTypes.Permission",
          "name": "permission",
          "type": "tuple"
        }
      ],
      "name": "removePermissionFromRole",
      "outputs": [],
      "stateMutability": "nonpayable",
      "type": "function"
    },
    {
      "inputs": [
        {
          "internalType": "uint256",
          "name": "spaceId",
          "type": "uint256"
        },
        {
          "internalType": "uint256",
          "name": "roleId",
          "type": "uint256"
        }
      ],
      "name": "removeRole",
      "outputs": [],
      "stateMutability": "nonpayable",
      "type": "function"
    },
    {
      "inputs": [],
      "name": "renounceOwnership",
      "outputs": [],
      "stateMutability": "nonpayable",
      "type": "function"
    },
    {
      "inputs": [
        {
          "internalType": "address",
          "name": "spaceManager",
          "type": "address"
        }
      ],
      "name": "setSpaceManager",
      "outputs": [],
      "stateMutability": "nonpayable",
      "type": "function"
    },
    {
      "inputs": [
        {
          "internalType": "address",
          "name": "newOwner",
          "type": "address"
        }
      ],
      "name": "transferOwnership",
      "outputs": [],
      "stateMutability": "nonpayable",
      "type": "function"
    }
  ],
  "bytecode": {
    "object": "0x60a06040523480156200001157600080fd5b5060405162001bf938038062001bf98339810160408190526200003491620000c9565b6200003f3362000079565b6001600160a01b0381166200006757604051630e52390960e41b815260040160405180910390fd5b6001600160a01b0316608052620000fb565b600080546001600160a01b038381166001600160a01b0319831681178455604051919092169283917f8be0079c531659141344cd1fd0a4f28419497f9722a3daafe3b4186f6b6457e09190a35050565b600060208284031215620000dc57600080fd5b81516001600160a01b0381168114620000f457600080fd5b9392505050565b608051611ae2620001176000396000610c180152611ae26000f3fe608060405234801561001057600080fd5b50600436106100d45760003560e01c8063cdb0ba5011610081578063e88ca8a11161005b578063e88ca8a1146101c0578063f2fde38b146101e1578063f62df4df146101f457600080fd5b8063cdb0ba501461017a578063d9af4ecf1461018d578063db474ecb146101ad57600080fd5b8063715018a6116100b2578063715018a61461012a5780638da5cb5b14610132578063a7d325fc1461015a57600080fd5b80633368c918146100d95780634b30a330146100ee57806352f1bea214610101575b600080fd5b6100ec6100e736600461124c565b610207565b005b6100ec6100fc3660046112e4565b610273565b61011461010f36600461131a565b6102c2565b60405161012191906113c8565b60405180910390f35b6100ec6103d3565b60005460405173ffffffffffffffffffffffffffffffffffffffff9091168152602001610121565b61016d610168366004611448565b6103e7565b604051610121919061146a565b6100ec610188366004611448565b6104ea565b6101a061019b366004611448565b61078e565b60405161012191906114e5565b6100ec6101bb36600461124c565b610884565b6101d36101ce3660046114f8565b610a5a565b604051908152602001610121565b6100ec6101ef3660046112e4565b610ac1565b6101d361020236600461131a565b610b7d565b60045473ffffffffffffffffffffffffffffffffffffffff163314610258576040517f2596a42e00000000000000000000000000000000000000000000000000000000815260040160405180910390fd5b61026181610d0d565b61026e8383836002610e66565b505050565b61027b610ea7565b600480547fffffffffffffffffffffffff00000000000000000000000000000000000000001673ffffffffffffffffffffffffffffffffffffffff92909216919091179055565b606060016000838152602001908152602001600020600101805480602002602001604051908101604052809291908181526020016000905b828210156103c85783829060005260206000209060020201604051806040016040529081600082015481526020016001820180546103379061153f565b80601f01602080910402602001604051908101604052809291908181526020018280546103639061153f565b80156103b05780601f10610385576101008083540402835291602001916103b0565b820191906000526020600020905b81548152906001019060200180831161039357829003601f168201915b505050505081525050815260200190600101906102fa565b505050509050919050565b6103db610ea7565b6103e56000610f28565b565b60008281526002602090815260408083208484528252808320805482518185028101850190935280835260609492939192909184015b828210156104dd5783829060005260206000200160405180602001604052908160008201805461044c9061153f565b80601f01602080910402602001604051908101604052809291908181526020018280546104789061153f565b80156104c55780601f1061049a576101008083540402835291602001916104c5565b820191906000526020600020905b8154815290600101906020018083116104a857829003601f168201915b5050505050815250508152602001906001019061041d565b5050505090505b92915050565b60045473ffffffffffffffffffffffffffffffffffffffff16331461053b576040517f2596a42e00000000000000000000000000000000000000000000000000000000815260040160405180910390fd5b6000828152600160208190526040822001805490915b818110156107875782818154811061056b5761056b611592565b906000526020600020906002020160000154840361077f576000858152600260209081526040808320878452825280832080548251818502810185019093528083529192909190849084015b82821015610677578382906000526020600020016040518060200160405290816000820180546105e69061153f565b80601f01602080910402602001604051908101604052809291908181526020018280546106129061153f565b801561065f5780601f106106345761010080835404028352916020019161065f565b820191906000526020600020905b81548152906001019060200180831161064257829003601f168201915b505050505081525050815260200190600101906105b7565b5050825192935060009150505b818110156106b8576106b088888584815181106106a3576106a3611592565b6020026020010151610884565b600101610684565b50846106c56001866115f0565b815481106106d5576106d5611592565b90600052602060002090600202018584815481106106f5576106f5611592565b60009182526020909120825460029092020190815560018082019061071c90840182611649565b509050508480548061073057610730611780565b60008281526020812060027fffffffffffffffffffffffffffffffffffffffffffffffffffffffffffffffff909301928302018181559061077460018301826110e4565b505090555050610787565b600101610551565b5050505050565b6040805180820190915260008152606060208201526000838152600160208190526040909120018054839081106107c7576107c7611592565b9060005260206000209060020201604051806040016040529081600082015481526020016001820180546107fa9061153f565b80601f01602080910402602001604051908101604052809291908181526020018280546108269061153f565b80156108735780601f1061084857610100808354040283529160200191610873565b820191906000526020600020905b81548152906001019060200180831161085657829003601f168201915b505050505081525050905092915050565b60045473ffffffffffffffffffffffffffffffffffffffff1633146108d5576040517f2596a42e00000000000000000000000000000000000000000000000000000000815260040160405180910390fd5b6108de81610d0d565b60008381526002602090815260408083208584529091528120805490915b81811015610a52576109b9846000015184838154811061091e5761091e611592565b9060005260206000200160000180546109369061153f565b80601f01602080910402602001604051908101604052809291908181526020018280546109629061153f565b80156109af5780601f10610984576101008083540402835291602001916109af565b820191906000526020600020905b81548152906001019060200180831161099257829003601f168201915b5050505050610f9d565b15610a4a57826109ca6001846115f0565b815481106109da576109da611592565b906000526020600020018382815481106109f6576109f6611592565b600091825260209091200180610a0c8382611649565b5090505082805480610a2057610a20611780565b6001900381819060005260206000200160008082016000610a4191906110e4565b50509055610a52565b6001016108fc565b505050505050565b60045460009073ffffffffffffffffffffffffffffffffffffffff163314610aae576040517f2596a42e00000000000000000000000000000000000000000000000000000000815260040160405180910390fd5b610aba83836001611065565b9392505050565b610ac9610ea7565b73ffffffffffffffffffffffffffffffffffffffff8116610b71576040517f08c379a000000000000000000000000000000000000000000000000000000000815260206004820152602660248201527f4f776e61626c653a206e6577206f776e657220697320746865207a65726f206160448201527f646472657373000000000000000000000000000000000000000000000000000060648201526084015b60405180910390fd5b610b7a81610f28565b50565b60045460009073ffffffffffffffffffffffffffffffffffffffff163314610bd1576040517f2596a42e00000000000000000000000000000000000000000000000000000000815260040160405180910390fd5b6000610c12836040518060400160405280600581526020017f4f776e6572000000000000000000000000000000000000000000000000000000815250610a5a565b905060007f000000000000000000000000000000000000000000000000000000000000000073ffffffffffffffffffffffffffffffffffffffff1663b989e2c56040518163ffffffff1660e01b8152600401600060405180830381865afa158015610c81573d6000803e3d6000fd5b505050506040513d6000823e601f3d9081017fffffffffffffffffffffffffffffffffffffffffffffffffffffffffffffffe0168201604052610cc7919081019061184f565b805190915060005b81811015610d0357610cfb8685858481518110610cee57610cee611592565b6020026020010151610207565b600101610ccf565b5091949350505050565b600480546040517f9ea4d5320000000000000000000000000000000000000000000000000000000081527f929f3fd6848015f83b9210c89f7744e3941acae1195c8bf9f5798c090dc8f4979281019290925273ffffffffffffffffffffffffffffffffffffffff1690639ea4d53290602401600060405180830381865afa158015610d9c573d6000803e3d6000fd5b505050506040513d6000823e601f3d9081017fffffffffffffffffffffffffffffffffffffffffffffffffffffffffffffffe0168201604052610de29190810190611912565b604051602001610df29190611947565b6040516020818303038152906040528051906020012081604051602001610e199190611947565b6040516020818303038152906040528051906020012003610b7a576040517fe523909000000000000000000000000000000000000000000000000000000000815260040160405180910390fd5b60008481526020828152604080832086845282528220805460018101825590835291208351849291909101908190610e9e9082611962565b50505050505050565b60005473ffffffffffffffffffffffffffffffffffffffff1633146103e5576040517f08c379a000000000000000000000000000000000000000000000000000000000815260206004820181905260248201527f4f776e61626c653a2063616c6c6572206973206e6f7420746865206f776e65726044820152606401610b68565b6000805473ffffffffffffffffffffffffffffffffffffffff8381167fffffffffffffffffffffffff0000000000000000000000000000000000000000831681178455604051919092169283917f8be0079c531659141344cd1fd0a4f28419497f9722a3daafe3b4186f6b6457e09190a35050565b8151815160009184918491908114610fbb57600093505050506104e4565b60005b8181101561105857828181518110610fd857610fd8611592565b602001015160f81c60f81b7effffffffffffffffffffffffffffffffffffffffffffffffffffffffffffff191684828151811061101757611017611592565b01602001517fff0000000000000000000000000000000000000000000000000000000000000016146110505760009450505050506104e4565b600101610fbe565b5060019695505050505050565b6000838152602082905260408120805482918261108183611a74565b90915550600086815260208581526040808320815180830190925284825281830189815260019182018054808401825590865293909420825160029094020192835592519394509290918201906110d89082611962565b50919695505050505050565b5080546110f09061153f565b6000825580601f10611100575050565b601f016020900490600052602060002090810190610b7a91905b8082111561112e576000815560010161111a565b5090565b7f4e487b7100000000000000000000000000000000000000000000000000000000600052604160045260246000fd5b604051601f82017fffffffffffffffffffffffffffffffffffffffffffffffffffffffffffffffe016810167ffffffffffffffff811182821017156111a8576111a8611132565b604052919050565b600067ffffffffffffffff8211156111ca576111ca611132565b50601f017fffffffffffffffffffffffffffffffffffffffffffffffffffffffffffffffe01660200190565b600082601f83011261120757600080fd5b813561121a611215826111b0565b611161565b81815284602083860101111561122f57600080fd5b816020850160208301376000918101602001919091529392505050565b60008060006060848603121561126157600080fd5b8335925060208401359150604084013567ffffffffffffffff8082111561128757600080fd5b908501906020828803121561129b57600080fd5b6040516020810181811083821117156112b6576112b6611132565b6040528235828111156112c857600080fd5b6112d4898286016111f6565b8252508093505050509250925092565b6000602082840312156112f657600080fd5b813573ffffffffffffffffffffffffffffffffffffffff81168114610aba57600080fd5b60006020828403121561132c57600080fd5b5035919050565b60005b8381101561134e578181015183820152602001611336565b50506000910152565b6000815180845261136f816020860160208601611333565b601f017fffffffffffffffffffffffffffffffffffffffffffffffffffffffffffffffe0169290920160200192915050565b8051825260006020820151604060208501526113c06040850182611357565b949350505050565b6000602080830181845280855180835260408601915060408160051b870101925083870160005b8281101561143b577fffffffffffffffffffffffffffffffffffffffffffffffffffffffffffffffc08886030184526114298583516113a1565b945092850192908501906001016113ef565b5092979650505050505050565b6000806040838503121561145b57600080fd5b50508035926020909101359150565b6000602080830181845280855180835260408601915060408160051b870101925083870160005b8281101561143b577fffffffffffffffffffffffffffffffffffffffffffffffffffffffffffffffc08886030184528151518686526114d287870182611357565b9550509285019290850190600101611491565b602081526000610aba60208301846113a1565b6000806040838503121561150b57600080fd5b82359150602083013567ffffffffffffffff81111561152957600080fd5b611535858286016111f6565b9150509250929050565b600181811c9082168061155357607f821691505b60208210810361158c577f4e487b7100000000000000000000000000000000000000000000000000000000600052602260045260246000fd5b50919050565b7f4e487b7100000000000000000000000000000000000000000000000000000000600052603260045260246000fd5b7f4e487b7100000000000000000000000000000000000000000000000000000000600052601160045260246000fd5b818103818111156104e4576104e46115c1565b601f82111561026e57600081815260208120601f850160051c8101602086101561162a5750805b601f850160051c820191505b81811015610a5257828155600101611636565b818103611654575050565b61165e825461153f565b67ffffffffffffffff81111561167657611676611132565b61168a81611684845461153f565b84611603565b6000601f8211600181146116dc57600083156116a65750848201545b7fffffffffffffffffffffffffffffffffffffffffffffffffffffffffffffffff600385901b1c1916600184901b178455610787565b6000858152602090207fffffffffffffffffffffffffffffffffffffffffffffffffffffffffffffffe0841690600086815260209020845b838110156117345782860154825560019586019590910190602001611714565b508583101561177057818501547fffffffffffffffffffffffffffffffffffffffffffffffffffffffffffffffff600388901b60f8161c191681555b5050505050600190811b01905550565b7f4e487b7100000000000000000000000000000000000000000000000000000000600052603160045260246000fd5b6000602082840312156117c157600080fd5b6040516020810167ffffffffffffffff82821081831117156117e5576117e5611132565b8160405282935084519150808211156117fd57600080fd5b508301601f8101851361180f57600080fd5b805161181d611215826111b0565b81815286602083850101111561183257600080fd5b611843826020830160208601611333565b90925250909392505050565b6000602080838503121561186257600080fd5b825167ffffffffffffffff8082111561187a57600080fd5b818501915085601f83011261188e57600080fd5b8151818111156118a0576118a0611132565b8060051b6118af858201611161565b91825283810185019185810190898411156118c957600080fd5b86860192505b83831015611905578251858111156118e75760008081fd5b6118f58b89838a01016117af565b83525091860191908601906118cf565b9998505050505050505050565b60006020828403121561192457600080fd5b815167ffffffffffffffff81111561193b57600080fd5b6113c0848285016117af565b60208152600082516020808401526113c06040840182611357565b815167ffffffffffffffff81111561197c5761197c611132565b61198a81611684845461153f565b602080601f8311600181146119dd57600084156119a75750858301515b7fffffffffffffffffffffffffffffffffffffffffffffffffffffffffffffffff600386901b1c1916600185901b178555610a52565b6000858152602081207fffffffffffffffffffffffffffffffffffffffffffffffffffffffffffffffe08616915b82811015611a2a57888601518255948401946001909101908401611a0b565b50858210156117705793909601517fffffffffffffffffffffffffffffffffffffffffffffffffffffffffffffffff60f8600387901b161c19169092555050600190811b01905550565b60007fffffffffffffffffffffffffffffffffffffffffffffffffffffffffffffffff8203611aa557611aa56115c1565b506001019056fea2646970667358221220bc753ead8e133fda7280c9518b044ddf2d7f18a2316af41208ae0c8fec36df4364736f6c63430008110033",
    "linkReferences": {}
  },
  "methodIdentifiers": {
    "addPermissionToRole(uint256,uint256,(string))": "3368c918",
    "createOwnerRole(uint256)": "f62df4df",
    "createRole(uint256,string)": "e88ca8a1",
    "getPermissionsBySpaceIdByRoleId(uint256,uint256)": "a7d325fc",
    "getRoleBySpaceIdByRoleId(uint256,uint256)": "d9af4ecf",
    "getRolesBySpaceId(uint256)": "52f1bea2",
    "owner()": "8da5cb5b",
    "removePermissionFromRole(uint256,uint256,(string))": "db474ecb",
    "removeRole(uint256,uint256)": "cdb0ba50",
    "renounceOwnership()": "715018a6",
    "setSpaceManager(address)": "4b30a330",
    "transferOwnership(address)": "f2fde38b"
  },
  "id": 20
}