{
  "abi": [
    {
      "inputs": [
        {
          "internalType": "address",
          "name": "defaultPermissionsManagerAddress_",
          "type": "address"
        }
      ],
      "stateMutability": "nonpayable",
      "type": "constructor"
    },
    {
      "inputs": [],
      "name": "DefaultEntitlementModuleNotSet",
      "type": "error"
    },
    {
      "inputs": [],
      "name": "DefaultPermissionsManagerNotSet",
      "type": "error"
    },
    {
      "inputs": [],
      "name": "EntitlementAlreadyWhitelisted",
      "type": "error"
    },
    {
      "inputs": [],
      "name": "EntitlementModuleNotSupported",
      "type": "error"
    },
    {
      "inputs": [],
      "name": "EntitlementNotWhitelisted",
      "type": "error"
    },
    {
      "inputs": [],
      "name": "NotAllowed",
      "type": "error"
    },
    {
      "inputs": [],
      "name": "NotSpaceOwner",
      "type": "error"
    },
    {
      "inputs": [],
      "name": "SpaceAlreadyRegistered",
      "type": "error"
    },
    {
      "anonymous": false,
      "inputs": [
        {
          "indexed": true,
          "internalType": "address",
          "name": "previousOwner",
          "type": "address"
        },
        {
          "indexed": true,
          "internalType": "address",
          "name": "newOwner",
          "type": "address"
        }
      ],
      "name": "OwnershipTransferred",
      "type": "event"
    },
    {
      "inputs": [
        {
          "internalType": "string",
          "name": "spaceId",
          "type": "string"
        },
        {
          "internalType": "uint256",
          "name": "roleId",
          "type": "uint256"
        },
        {
          "components": [
            {
              "internalType": "string",
              "name": "name",
              "type": "string"
            }
          ],
          "internalType": "struct DataTypes.Permission",
          "name": "permission",
          "type": "tuple"
        }
      ],
      "name": "addPermissionToRole",
      "outputs": [],
      "stateMutability": "nonpayable",
      "type": "function"
    },
    {
      "inputs": [
        {
          "internalType": "string",
          "name": "spaceId",
          "type": "string"
        },
        {
          "internalType": "string",
          "name": "channelId",
          "type": "string"
        },
        {
          "internalType": "address",
          "name": "entitlementModuleAddress",
          "type": "address"
        },
        {
          "internalType": "uint256",
          "name": "roleId",
          "type": "uint256"
        },
        {
          "internalType": "bytes",
          "name": "entitlementData",
          "type": "bytes"
        }
      ],
      "name": "addRoleToEntitlementModule",
      "outputs": [],
      "stateMutability": "nonpayable",
      "type": "function"
    },
    {
      "inputs": [
        {
          "components": [
            {
              "internalType": "string",
              "name": "channelName",
              "type": "string"
            },
            {
              "internalType": "string",
              "name": "networkId",
              "type": "string"
            },
            {
              "internalType": "string",
              "name": "spaceId",
              "type": "string"
            },
            {
              "components": [
                {
                  "internalType": "string",
                  "name": "name",
                  "type": "string"
                },
                {
                  "internalType": "string",
                  "name": "metadata",
                  "type": "string"
                },
                {
                  "components": [
                    {
                      "internalType": "string",
                      "name": "name",
                      "type": "string"
                    }
                  ],
                  "internalType": "struct DataTypes.Permission[]",
                  "name": "permissions",
                  "type": "tuple[]"
                }
              ],
              "internalType": "struct DataTypes.CreateRoleData[]",
              "name": "roles",
              "type": "tuple[]"
            }
          ],
          "internalType": "struct DataTypes.CreateChannelData",
          "name": "data",
          "type": "tuple"
        }
      ],
      "name": "createChannel",
      "outputs": [],
      "stateMutability": "nonpayable",
      "type": "function"
    },
    {
      "inputs": [
        {
          "internalType": "string",
          "name": "spaceId",
          "type": "string"
        },
        {
          "internalType": "string",
          "name": "name",
          "type": "string"
        }
      ],
      "name": "createRole",
      "outputs": [
        {
          "internalType": "uint256",
          "name": "",
          "type": "uint256"
        }
      ],
      "stateMutability": "nonpayable",
      "type": "function"
    },
    {
      "inputs": [
        {
          "components": [
            {
              "internalType": "string",
              "name": "spaceName",
              "type": "string"
            },
            {
              "internalType": "string",
              "name": "networkId",
              "type": "string"
            }
          ],
          "internalType": "struct DataTypes.CreateSpaceData",
          "name": "info",
          "type": "tuple"
        }
      ],
      "name": "createSpace",
      "outputs": [
        {
          "internalType": "uint256",
          "name": "",
          "type": "uint256"
        }
      ],
      "stateMutability": "nonpayable",
      "type": "function"
    },
    {
      "inputs": [
        {
          "components": [
            {
              "internalType": "string",
              "name": "spaceName",
              "type": "string"
            },
            {
              "internalType": "string",
              "name": "networkId",
              "type": "string"
            }
          ],
          "internalType": "struct DataTypes.CreateSpaceData",
          "name": "info",
          "type": "tuple"
        },
        {
          "components": [
            {
              "internalType": "address",
              "name": "entitlementModuleAddress",
              "type": "address"
            },
            {
              "internalType": "address",
              "name": "tokenAddress",
              "type": "address"
            },
            {
              "internalType": "uint256",
              "name": "quantity",
              "type": "uint256"
            },
            {
              "internalType": "string",
              "name": "description",
              "type": "string"
            },
            {
              "internalType": "string[]",
              "name": "permissions",
              "type": "string[]"
            }
          ],
          "internalType": "struct DataTypes.CreateSpaceTokenEntitlementData",
          "name": "entitlement",
          "type": "tuple"
        }
      ],
      "name": "createSpaceWithTokenEntitlement",
      "outputs": [
        {
          "internalType": "uint256",
          "name": "",
          "type": "uint256"
        }
      ],
      "stateMutability": "nonpayable",
      "type": "function"
    },
    {
      "inputs": [
        {
          "internalType": "string",
          "name": "spaceId",
          "type": "string"
        },
        {
          "internalType": "string",
          "name": "channelId",
          "type": "string"
        }
      ],
      "name": "getChannelIdByNetworkId",
      "outputs": [
        {
          "internalType": "uint256",
          "name": "",
          "type": "uint256"
        }
      ],
      "stateMutability": "view",
      "type": "function"
    },
    {
      "inputs": [
        {
          "internalType": "string",
          "name": "spaceId",
          "type": "string"
        }
      ],
      "name": "getEntitlementModulesBySpaceId",
      "outputs": [
        {
          "internalType": "address[]",
          "name": "entitlementModules",
          "type": "address[]"
        }
      ],
      "stateMutability": "view",
      "type": "function"
    },
    {
      "inputs": [
        {
          "internalType": "string",
          "name": "spaceId",
          "type": "string"
        }
      ],
      "name": "getEntitlementsInfoBySpaceId",
      "outputs": [
        {
          "components": [
            {
              "internalType": "address",
              "name": "entitlementAddress",
              "type": "address"
            },
            {
              "internalType": "string",
              "name": "entitlementName",
              "type": "string"
            },
            {
              "internalType": "string",
              "name": "entitlementDescription",
              "type": "string"
            }
          ],
          "internalType": "struct DataTypes.EntitlementModuleInfo[]",
          "name": "",
          "type": "tuple[]"
        }
      ],
      "stateMutability": "view",
      "type": "function"
    },
    {
      "inputs": [
        {
          "internalType": "bytes32",
          "name": "permissionType",
          "type": "bytes32"
        }
      ],
      "name": "getPermissionFromMap",
      "outputs": [
        {
          "components": [
            {
              "internalType": "string",
              "name": "name",
              "type": "string"
            }
          ],
          "internalType": "struct DataTypes.Permission",
          "name": "permission",
          "type": "tuple"
        }
      ],
      "stateMutability": "view",
      "type": "function"
    },
    {
      "inputs": [
        {
          "internalType": "string",
          "name": "spaceId",
          "type": "string"
        },
        {
          "internalType": "uint256",
          "name": "roleId",
          "type": "uint256"
        }
      ],
      "name": "getPermissionsBySpaceIdByRoleId",
      "outputs": [
        {
          "components": [
            {
              "internalType": "string",
              "name": "name",
              "type": "string"
            }
          ],
          "internalType": "struct DataTypes.Permission[]",
          "name": "",
          "type": "tuple[]"
        }
      ],
      "stateMutability": "view",
      "type": "function"
    },
    {
      "inputs": [
        {
          "internalType": "string",
          "name": "spaceId",
          "type": "string"
        },
        {
          "internalType": "uint256",
          "name": "roleId",
          "type": "uint256"
        }
      ],
      "name": "getRoleBySpaceIdByRoleId",
      "outputs": [
        {
          "components": [
            {
              "internalType": "uint256",
              "name": "roleId",
              "type": "uint256"
            },
            {
              "internalType": "string",
              "name": "name",
              "type": "string"
            },
            {
              "internalType": "bool",
              "name": "isTransitive",
              "type": "bool"
            }
          ],
          "internalType": "struct DataTypes.Role",
          "name": "",
          "type": "tuple"
        }
      ],
      "stateMutability": "view",
      "type": "function"
    },
    {
      "inputs": [
        {
          "internalType": "string",
          "name": "spaceId",
          "type": "string"
        }
      ],
      "name": "getRolesBySpaceId",
      "outputs": [
        {
          "components": [
            {
              "internalType": "uint256",
              "name": "roleId",
              "type": "uint256"
            },
            {
              "internalType": "string",
              "name": "name",
              "type": "string"
            },
            {
              "internalType": "bool",
              "name": "isTransitive",
              "type": "bool"
            }
          ],
          "internalType": "struct DataTypes.Role[]",
          "name": "",
          "type": "tuple[]"
        }
      ],
      "stateMutability": "view",
      "type": "function"
    },
    {
      "inputs": [
        {
          "internalType": "string",
          "name": "networkId",
          "type": "string"
        }
      ],
      "name": "getSpaceIdByNetworkId",
      "outputs": [
        {
          "internalType": "uint256",
          "name": "",
          "type": "uint256"
        }
      ],
      "stateMutability": "view",
      "type": "function"
    },
    {
      "inputs": [
        {
          "internalType": "string",
          "name": "spaceId",
          "type": "string"
        }
      ],
      "name": "getSpaceInfoBySpaceId",
      "outputs": [
        {
          "components": [
            {
              "internalType": "uint256",
              "name": "spaceId",
              "type": "uint256"
            },
            {
              "internalType": "uint256",
              "name": "createdAt",
              "type": "uint256"
            },
            {
              "internalType": "string",
              "name": "name",
              "type": "string"
            },
            {
              "internalType": "address",
              "name": "creator",
              "type": "address"
            },
            {
              "internalType": "address",
              "name": "owner",
              "type": "address"
            }
          ],
          "internalType": "struct DataTypes.SpaceInfo",
          "name": "",
          "type": "tuple"
        }
      ],
      "stateMutability": "view",
      "type": "function"
    },
    {
      "inputs": [
        {
          "internalType": "string",
          "name": "spaceId",
          "type": "string"
        }
      ],
      "name": "getSpaceOwnerBySpaceId",
      "outputs": [
        {
          "internalType": "address",
          "name": "ownerAddress",
          "type": "address"
        }
      ],
      "stateMutability": "view",
      "type": "function"
    },
    {
      "inputs": [],
      "name": "getSpaces",
      "outputs": [
        {
          "components": [
            {
              "internalType": "uint256",
              "name": "spaceId",
              "type": "uint256"
            },
            {
              "internalType": "uint256",
              "name": "createdAt",
              "type": "uint256"
            },
            {
              "internalType": "string",
              "name": "name",
              "type": "string"
            },
            {
              "internalType": "address",
              "name": "creator",
              "type": "address"
            },
            {
              "internalType": "address",
              "name": "owner",
              "type": "address"
            }
          ],
          "internalType": "struct DataTypes.SpaceInfo[]",
          "name": "",
          "type": "tuple[]"
        }
      ],
      "stateMutability": "view",
      "type": "function"
    },
    {
      "inputs": [
        {
          "internalType": "string",
          "name": "spaceId",
          "type": "string"
        },
        {
          "internalType": "string",
          "name": "channelId",
          "type": "string"
        },
        {
          "internalType": "address",
          "name": "user",
          "type": "address"
        },
        {
          "components": [
            {
              "internalType": "string",
              "name": "name",
              "type": "string"
            }
          ],
          "internalType": "struct DataTypes.Permission",
          "name": "permission",
          "type": "tuple"
        }
      ],
      "name": "isEntitled",
      "outputs": [
        {
          "internalType": "bool",
          "name": "",
          "type": "bool"
        }
      ],
      "stateMutability": "view",
      "type": "function"
    },
    {
      "inputs": [
        {
          "internalType": "string",
          "name": "spaceId",
          "type": "string"
        },
        {
          "internalType": "address",
          "name": "entitlementModuleAddress",
          "type": "address"
        }
      ],
      "name": "isEntitlementModuleWhitelisted",
      "outputs": [
        {
          "internalType": "bool",
          "name": "",
          "type": "bool"
        }
      ],
      "stateMutability": "view",
      "type": "function"
    },
    {
      "inputs": [],
      "name": "owner",
      "outputs": [
        {
          "internalType": "address",
          "name": "",
          "type": "address"
        }
      ],
      "stateMutability": "view",
      "type": "function"
    },
    {
      "inputs": [
        {
          "internalType": "string",
          "name": "spaceId",
          "type": "string"
        },
        {
          "internalType": "string",
          "name": "channelId",
          "type": "string"
        },
        {
          "internalType": "address",
          "name": "entitlementModuleAddress",
          "type": "address"
        },
        {
          "internalType": "uint256[]",
          "name": "roleIds",
          "type": "uint256[]"
        },
        {
          "internalType": "bytes",
          "name": "data",
          "type": "bytes"
        }
      ],
      "name": "removeEntitlement",
      "outputs": [],
      "stateMutability": "nonpayable",
      "type": "function"
    },
    {
      "inputs": [],
      "name": "renounceOwnership",
      "outputs": [],
      "stateMutability": "nonpayable",
      "type": "function"
    },
    {
      "inputs": [
        {
          "internalType": "address",
          "name": "entitlementModule",
          "type": "address"
        }
      ],
      "name": "setDefaultEntitlementModule",
      "outputs": [],
      "stateMutability": "nonpayable",
      "type": "function"
    },
    {
      "inputs": [
        {
          "internalType": "address",
          "name": "permissionsManager",
          "type": "address"
        }
      ],
      "name": "setDefaultPermissionsManager",
      "outputs": [],
      "stateMutability": "nonpayable",
      "type": "function"
    },
    {
      "inputs": [
        {
          "internalType": "address",
          "name": "newOwner",
          "type": "address"
        }
      ],
      "name": "transferOwnership",
      "outputs": [],
      "stateMutability": "nonpayable",
      "type": "function"
    },
    {
      "inputs": [
        {
          "internalType": "string",
          "name": "spaceId",
          "type": "string"
        },
        {
          "internalType": "address",
          "name": "entitlementAddress",
          "type": "address"
        },
        {
          "internalType": "bool",
          "name": "whitelist",
          "type": "bool"
        }
      ],
      "name": "whitelistEntitlementModule",
      "outputs": [],
      "stateMutability": "nonpayable",
      "type": "function"
    }
  ],
  "bytecode": {
    "object": "0x60806040523480156200001157600080fd5b5060405162003b9938038062003b998339810160408190526200003491620000b5565b6200003f3362000065565b600380546001600160a01b0319166001600160a01b0392909216919091179055620000e7565b600080546001600160a01b038381166001600160a01b0319831681178455604051919092169283917f8be0079c531659141344cd1fd0a4f28419497f9722a3daafe3b4186f6b6457e09190a35050565b600060208284031215620000c857600080fd5b81516001600160a01b0381168114620000e057600080fd5b9392505050565b613aa280620000f76000396000f3fe608060405234801561001057600080fd5b506004361061018e5760003560e01c80637d9a0230116100de578063b3ff31b211610097578063ccaf0a2b11610071578063ccaf0a2b146103c6578063d2192dbf146103d9578063e798ff3f146103ec578063f2fde38b146103ff57600080fd5b8063b3ff31b214610380578063bbd7358a146103a0578063bf77b663146103b357600080fd5b80637d9a0230146103035780637e9ea5c7146103165780638da5cb5b146103295780639ddd0d6b1461033a5780639ea4d5321461034d578063a3a39cb91461036d57600080fd5b80633519167c1161014b5780634bf2abb2116101255780634bf2abb2146102a857806350b88cf7146102c85780637074047c146102db578063715018a6146102fb57600080fd5b80633519167c146102445780633e66eae3146102645780634196d1ff1461028557600080fd5b806306d1ea5d14610193578063141b6498146101a857806315478ca9146101d15780632a4bdf25146101e65780632bb59212146102115780632d478e6b14610231575b600080fd5b6101a66101a136600461297a565b610412565b005b6101bb6101b6366004612a9a565b6107b3565b6040516101c89190612adb565b60405180910390f35b6101d961086b565b6040516101c89190612bcf565b6101f96101f4366004612a9a565b6109fb565b6040516001600160a01b0390911681526020016101c8565b61022461021f366004612a9a565b610a64565b6040516101c89190612c31565b6101a661023f366004612c60565b610bb2565b610257610252366004612a9a565b610c04565b6040516101c89190612c7b565b610277610272366004612d17565b610e64565b6040519081526020016101c8565b610298610293366004612d82565b610e7b565b60405190151581526020016101c8565b6102bb6102b6366004612a9a565b610ef6565b6040516101c89190612e0a565b6102776102d6366004612e71565b611058565b6102ee6102e9366004612ead565b611149565b6040516101c89190612ef8565b6101a661129a565b6101a6610311366004612f55565b6112ae565b610277610324366004612fc7565b611348565b6000546001600160a01b03166101f9565b610277610348366004612a9a565b611552565b61036061035b366004613031565b61159a565b6040516101c8919061304a565b6101a661037b366004613065565b611618565b61039361038e366004612ead565b6116c9565b6040516101c89190613181565b6101a66103ae366004613194565b611822565b6102986103c136600461324a565b611970565b6101a66103d4366004612c60565b611a96565b6102776103e7366004612d17565b611ae8565b6101a66103fa3660046132d7565b611bb7565b6101a661040d366004612c60565b611d0a565b80604001516040518060200160405280600081525061042e3390565b60408051808201909152601181527041646452656d6f76654368616e6e656c7360781b60208201526001600160a01b0382163014806104ad57506007600061048a86805160209182012060009081526004909152604090205490565b81526020810191909152604001600020600501546001600160a01b038381169116145b806104cd57506104cd848484604051806020016040528086815250611970565b156107935760408086015180516020918201206000908152600482528281205480825260099092529182208054919291829061050890613353565b918290555060208089015180519082012060008581526005835260408082208383529093529190912054919250901561055457604051633881599b60e11b815260040160405180910390fd5b600083815260056020908152604080832084845282528083208590558583526006825280832085845282529091208381559089015160019091019061059990826133e6565b50875160008481526006602090815260408083208684529091529020600201906105c390826133e6565b5060008381526006602090815260408083208584528083528184206003810180546001600160a01b0319163317905587855260098452918420908352600190810180548083018255908552929093208154600490930201918255918181019061062e908401826134a5565b50600281810190610641908401826134a5565b50600391820154910180546001600160a01b0319166001600160a01b039283161790556040808a01516020808c01516002546000898152600790935293909120600601546106c3949293919291909116906106993390565b604080516001600160a01b039092166020830152015b604051602081830303815290604052611da6565b60005b88606001515181101561078a576000896060015182815181106106eb576106eb613577565b602002602001015190506000610705868360000151611e7a565b905060005b8260400151518110156107515761073f87838560400151848151811061073257610732613577565b6020026020010151611f19565b8061074981613353565b91505061070a565b5060408b015160208c01516002546107759291906001600160a01b03168433610699565b5050808061078290613353565b9150506106c6565b505050506107ac565b604051631eb49d6d60e11b815260040160405180910390fd5b5050505050565b6060600760006107f885858080601f016020809104026020016040519081016040528093929190818152602001838380828437600092019190915250611d8c92505050565b815260200190815260200160002060080180548060200260200160405190810160405280929190818152602001828054801561085d57602002820191906000526020600020905b81546001600160a01b0316815260019091019060200180831161083f575b505050505090505b92915050565b606060006001546001600160401b0381111561088957610889612672565b6040519080825280602002602001820160405280156108c257816020015b6108af612631565b8152602001906001900390816108a75790505b50905060005b6001548110156109f55760006007816108e284600161358d565b815260200190815260200160002090506040518060a0016040528082600001548152602001826001015481526020018260030180546109209061336c565b80601f016020809104026020016040519081016040528092919081815260200182805461094c9061336c565b80156109995780601f1061096e57610100808354040283529160200191610999565b820191906000526020600020905b81548152906001019060200180831161097c57829003601f168201915b505050918352505060048301546001600160a01b03908116602083015260058401541660409091015283518490849081106109d6576109d6613577565b60200260200101819052505080806109ed90613353565b9150506108c8565b50919050565b600060076000610a4085858080601f016020809104026020016040519081016040528093929190818152602001838380828437600092019190915250611d8c92505050565b81526020810191909152604001600020600501546001600160a01b03169392505050565b610a6c612631565b6000610aad84848080601f016020809104026020016040519081016040528093929190818152602001838380828437600092019190915250611d8c92505050565b6040805160a0810182526000838152600760208181528483208054855260018101548286015292869052526003018054939450909291830191610aef9061336c565b80601f0160208091040260200160405190810160405280929190818152602001828054610b1b9061336c565b8015610b685780601f10610b3d57610100808354040283529160200191610b68565b820191906000526020600020905b815481529060010190602001808311610b4b57829003601f168201915b5050509183525050600083815260076020818152604080842060048101546001600160a01b0390811684880152979094529190526005909101549093169201919091529392505050565b610bba611f53565b600380546001600160a01b0319166001600160a01b0383169081179091556040517f6c518ced2d478b083ac5fe26afc40373bb0e831c95787fe365689b9b6f2954fe90600090a250565b60606000610c4784848080601f016020809104026020016040519081016040528093929190818152602001838380828437600092019190915250611d8c92505050565b600081815260076020526040812060080154919250906001600160401b03811115610c7457610c74612672565b604051908082528060200260200182016040528015610cd257816020015b610cbf604051806060016040528060006001600160a01b0316815260200160608152602001606081525090565b815260200190600190039081610c925790505b50905060005b600083815260076020526040902060080154811015610e5b576000838152600760205260408120600801805483908110610d1457610d14613577565b6000918252602090912001546001600160a01b0316905080610d365750610e49565b60006040518060600160405280836001600160a01b03168152602001836001600160a01b03166306fdde036040518163ffffffff1660e01b8152600401600060405180830381865afa158015610d90573d6000803e3d6000fd5b505050506040513d6000823e601f3d908101601f19168201604052610db891908101906135e5565b8152602001836001600160a01b0316637284e4166040518163ffffffff1660e01b8152600401600060405180830381865afa158015610dfb573d6000803e3d6000fd5b505050506040513d6000823e601f3d908101601f19168201604052610e2391908101906135e5565b815250905080848481518110610e3b57610e3b613577565b602002602001018190525050505b80610e5381613353565b915050610cd8565b50949350505050565b6000610e7285858585611fad565b95945050505050565b600060076000610ec086868080601f016020809104026020016040519081016040528093929190818152602001838380828437600092019190915250611d8c92505050565b8152602080820192909252604090810160009081206001600160a01b038616825260070190925290205460ff1690509392505050565b606060086000610f3b85858080601f016020809104026020016040519081016040528093929190818152602001838380828437600092019190915250611d8c92505050565b8152602001908152602001600020600101805480602002602001604051908101604052809291908181526020016000905b8282101561104c578382906000526020600020906003020160405180606001604052908160008201548152602001600182018054610fa99061336c565b80601f0160208091040260200160405190810160405280929190818152602001828054610fd59061336c565b80156110225780601f10610ff757610100808354040283529160200191611022565b820191906000526020600020905b81548152906001019060200180831161100557829003601f168201915b50505091835250506002919091015460ff1615156020918201529082526001929092019101610f6c565b50505050905092915050565b6000611062612033565b600061106d83612085565b6002549091506110899082906001600160a01b0316600161210a565b600061109482612325565b90506110fe6110a66020860186613619565b8080601f016020809104026020016040519081016040528093929190818152602001838380828437600092018290525060408051602081019091529081526002549093506001600160a01b0316915085905033610699565b3380837f9d575dd5f8c535bc0f29f0993aa2580a10f030e244e416fbfdc70ddb8e9935f161112c8880613619565b60405161113a929190613688565b60405180910390a45092915050565b6060600b600061118e86868080601f016020809104026020016040519081016040528093929190818152602001838380828437600092019190915250611d8c92505050565b81526020019081526020016000206000838152602001908152602001600020805480602002602001604051908101604052809291908181526020016000905b8282101561128d578382906000526020600020016040518060200160405290816000820180546111fc9061336c565b80601f01602080910402602001604051908101604052809291908181526020018280546112289061336c565b80156112755780601f1061124a57610100808354040283529160200191611275565b820191906000526020600020905b81548152906001019060200180831161125857829003601f168201915b505050505081525050815260200190600101906111cd565b5050505090509392505050565b6112a2611f53565b6112ac600061241b565b565b83836112f76112f283838080601f016020809104026020016040519081016040528093929190818152602001838380828437600092019190915250611d8c92505050565b61246b565b61134061133987878080601f016020809104026020016040519081016040528093929190818152602001838380828437600092019190915250611d8c92505050565b8585611f19565b505050505050565b6000611352612033565b600061135d84612085565b6002549091506113799082906001600160a01b0316600161210a565b6113918161138a6020860186612c60565b600161210a565b600061139c82612325565b905060006113ad608086018661369c565b9050111561145f5760005b6113c5608086018661369c565b905081101561145d5761144b838360405180602001604052808980608001906113ee919061369c565b878181106113fe576113fe613577565b90506020028101906114109190613619565b8080601f0160208091040260200160405190810160405280939291908181526020018383808284376000920191909152505050915250611f19565b8061145581613353565b9150506113b8565b505b61146f6110a66020870187613619565b61150661147f6020870187613619565b8080601f01602080910402602001604051908101604052809392919081815260200183838082843760009201829052506040805160208082019092529182529093506114d092508901905088612c60565b846114de60608a018a613619565b6114ee60408c0160208d01612c60565b8b604001356040516020016106af94939291906136e5565b3380837f9d575dd5f8c535bc0f29f0993aa2580a10f030e244e416fbfdc70ddb8e9935f16115348980613619565b604051611542929190613688565b60405180910390a4509392505050565b600061159383838080601f016020809104026020016040519081016040528093929190818152602001838380828437600092019190915250611d8c92505050565b9392505050565b6040805160208101825260608152600354915163173c4a6360e01b81526004810184905290916001600160a01b03169063173c4a6390602401600060405180830381865afa1580156115f0573d6000803e3d6000fd5b505050506040513d6000823e601f3d908101601f191682016040526108659190810190613753565b868661165c6112f283838080601f016020809104026020016040519081016040528093929190818152602001838380828437600092019190915250611d8c92505050565b611665856124a5565b61167489898989898989612536565b846001600160a01b0316898960405161168e929190613787565b604051908190038120907f9b42a541e0a10f6a80059e1448b92d56a4e71354d43a2ca1fd3701878cb50ae290600090a3505050505050505050565b6116ef604051806060016040528060008152602001606081526020016000151581525090565b6008600061173286868080601f016020809104026020016040519081016040528093929190818152602001838380828437600092019190915250611d8c92505050565b8152602001908152602001600020600101828154811061175457611754613577565b9060005260206000209060030201604051806060016040529081600082015481526020016001820180546117879061336c565b80601f01602080910402602001604051908101604052809291908181526020018280546117b39061336c565b80156118005780601f106117d557610100808354040283529160200191611800565b820191906000526020600020905b8154815290600101906020018083116117e357829003601f168201915b50505091835250506002919091015460ff161515602090910152949350505050565b87876118666112f283838080601f016020809104026020016040519081016040528093929190818152602001838380828437600092019190915250611d8c92505050565b61186f866124a5565b61191a8a8a8080601f01602080910402602001604051908101604052809392919081815260200183838082843760009201919091525050604080516020601f8e018190048102820181019092528c815292508c91508b908190840183828082843760009201919091525050604080516020601f8b018190048102820181019092528981528c93508b9250908a908a9081908401838280828437600092019190915250611da692505050565b856001600160a01b03168a8a604051611934929190613787565b604051908190038120907fe78ad18845af93a80fbe8718cacc631fbe1c453b092806818a044440b96ba67790600090a350505050505050505050565b60008061199186805160209182012060009081526004909152604090205490565b90506000805b600083815260076020526040902060080154811015611a8b5760008381526007602052604081206008018054839081106119d3576119d3613577565b6000918252602090912001546001600160a01b03169050806119f55750611a79565b60405163bf77b66360e01b81526001600160a01b0382169063bf77b66390611a27908c908c908c908c90600401613797565b602060405180830381865afa158015611a44573d6000803e3d6000fd5b505050506040513d601f19601f82011682018060405250810190611a6891906137f6565b15611a77576001925050611a8b565b505b80611a8381613353565b915050611997565b509695505050505050565b611a9e611f53565b600280546001600160a01b0319166001600160a01b0383169081179091556040517f07b136952c7460e1fc2d593fad96b5b379f28cc13a49857b6a825c5228c1a8d190600090a250565b60008484611b2e6112f283838080601f016020809104026020016040519081016040528093929190818152602001838380828437600092019190915250611d8c92505050565b611bac611b7088888080601f016020809104026020016040519081016040528093929190818152602001838380828437600092019190915250611d8c92505050565b86868080601f016020809104026020016040519081016040528093929190818152602001838380828437600092019190915250611e7a92505050565b979650505050505050565b83838080601f016020809104026020016040519081016040528093929190818152602001838380828437600092018290525060408051602081019091529081529250611c059150611d889050565b6040805180820190915260168152754d6f6469667953706163655065726d697373696f6e7360501b60208201526001600160a01b038216301480611c89575060076000611c6686805160209182012060009081526004909152604090205490565b81526020810191909152604001600020600501546001600160a01b038381169116145b80611ca95750611ca9848484604051806020016040528086815250611970565b1561079357611cb7866124a5565b611d00611cf989898080601f016020809104026020016040519081016040528093929190818152602001838380828437600092019190915250611d8c92505050565b878761210a565b5050505050505050565b611d12611f53565b6001600160a01b038116611d7c5760405162461bcd60e51b815260206004820152602660248201527f4f776e61626c653a206e6577206f776e657220697320746865207a65726f206160448201526564647265737360d01b60648201526084015b60405180910390fd5b611d858161241b565b50565b3390565b805160209182012060009081526004909152604090205490565b6000611dc686805160209182012060009081526004909152604090205490565b60008181526007602081815260408084206001600160a01b038a168552909201905290205490915060ff16611e0e5760405163c1ef36f360e01b815260040160405180910390fd5b6040516332003fb160e21b81526001600160a01b0385169063c800fec490611e40908990899088908890600401613813565b600060405180830381600087803b158015611e5a57600080fd5b505af1158015611e6e573d6000803e3d6000fd5b50505050505050505050565b60008281526008602052604081208054829182611e9683613353565b9091555060008581526008602090815260408083208151606081018352858152808401898152928101859052600191820180548084018255908652939094208451600390940201928355905193945091929091820190611ef690826133e6565b50604091909101516002909101805460ff19169115159190911790559392505050565b6000838152600b602090815260408083208584528252822080546001810182559083529120825183929190910190819061134090826133e6565b6000546001600160a01b031633146112ac5760405162461bcd60e51b815260206004820181905260248201527f4f776e61626c653a2063616c6c6572206973206e6f7420746865206f776e65726044820152606401611d73565b600060056000611ff287878080601f016020809104026020016040519081016040528093929190818152602001838380828437600092019190915250611d8c92505050565b815260200190815260200160002060008484604051612012929190613787565b60405180910390208152602001908152602001600020549050949350505050565b6003546001600160a01b031661205c5760405163361882e360e01b815260040160405180910390fd5b6002546001600160a01b03166112ac57604051632ab51add60e01b815260040160405180910390fd5b6001805481019081905560405163aa424abb60e01b81526000919073__$0167f7afdf7c7be35671eabe0842b16bab$__9063aa424abb906120d3908690859033906004906007908201613897565b60006040518083038186803b1580156120eb57600080fd5b505af41580156120ff573d6000803e3d6000fd5b509295945050505050565b80801561213b575060008381526007602081815260408084206001600160a01b0387168552909201905290205460ff165b156121595760405163186abc9b60e01b815260040160405180910390fd5b60008381526007602081815260408084206001600160a01b038716855290920190529020805460ff191682158015919091179091556121d35760008381526007602090815260408220600801805460018101825590835291200180546001600160a01b0384166001600160a01b0319909116179055505050565b600083815260076020526040812060080154905b818110156107ac57600085815260076020526040902060080180546001600160a01b03861691908390811061221e5761221e613577565b6000918252602090912001546001600160a01b03160361230e576000858152600760205260409020600801612254600184613913565b8154811061226457612264613577565b60009182526020808320909101548783526007909152604090912060080180546001600160a01b0390921691839081106122a0576122a0613577565b600091825260208083209190910180546001600160a01b0319166001600160a01b0394909416939093179092558681526007909152604090206008018054806122eb576122eb613926565b600082815260209020810160001990810180546001600160a01b03191690550190555b8061231881613353565b9150506121e7565b505050565b60008061234f836040518060400160405280600581526020016427bbb732b960d91b815250611e7a565b600084815260076020526040808220600601839055600354815163b989e2c560e01b8152915193945091926001600160a01b039092169163b989e2c59160048082019286929091908290030181865afa1580156123b0573d6000803e3d6000fd5b505050506040513d6000823e601f3d908101601f191682016040526123d8919081019061393c565b805190915060005b81811015612411576123ff868585848151811061073257610732613577565b8061240981613353565b9150506123e0565b5091949350505050565b600080546001600160a01b038381166001600160a01b0319831681178455604051919092169283917f8be0079c531659141344cd1fd0a4f28419497f9722a3daafe3b4186f6b6457e09190a35050565b6000818152600760205260409020600501546001600160a01b03163314611d8557604051638c09e73f60e01b815260040160405180910390fd5b6040516301ffc9a760e01b815263a4bfe65960e01b60048201526001600160a01b038216906301ffc9a790602401602060405180830381865afa1580156124f0573d6000803e3d6000fd5b505050506040513d601f19601f8201168201806040525081019061251491906137f6565b1515600003611d8557604051636d9250f160e11b815260040160405180910390fd5b600061257788888080601f016020809104026020016040519081016040528093929190818152602001838380828437600092019190915250611d8c92505050565b60008181526007602081815260408084206001600160a01b038a168552909201905290205490915060ff166125bf5760405163c1ef36f360e01b815260040160405180910390fd5b60405163257f5ea960e01b81526001600160a01b0385169063257f5ea9906125f5908b908b908b908b908a908a906004016139ec565b600060405180830381600087803b15801561260f57600080fd5b505af1158015612623573d6000803e3d6000fd5b505050505050505050505050565b6040518060a0016040528060008152602001600081526020016060815260200160006001600160a01b0316815260200160006001600160a01b031681525090565b634e487b7160e01b600052604160045260246000fd5b604051602081016001600160401b03811182821017156126aa576126aa612672565b60405290565b604051606081016001600160401b03811182821017156126aa576126aa612672565b604051608081016001600160401b03811182821017156126aa576126aa612672565b604051601f8201601f191681016001600160401b038111828210171561271c5761271c612672565b604052919050565b60006001600160401b0382111561273d5761273d612672565b50601f01601f191660200190565b600082601f83011261275c57600080fd5b813561276f61276a82612724565b6126f4565b81815284602083860101111561278457600080fd5b816020850160208301376000918101602001919091529392505050565b60006001600160401b038211156127ba576127ba612672565b5060051b60200190565b6000602082840312156127d657600080fd5b6127de612688565b905081356001600160401b038111156127f657600080fd5b6128028482850161274b565b82525092915050565b600082601f83011261281c57600080fd5b8135602061282c61276a836127a1565b82815260059290921b8401810191818101908684111561284b57600080fd5b8286015b84811015611a8b576001600160401b03808235111561286d57600080fd5b813588016060818b03601f1901121561288557600080fd5b61288d6126b0565b868201358381111561289e57600080fd5b6128ac8c898386010161274b565b8252506040820135838111156128c157600080fd5b6128cf8c898386010161274b565b88830152506060820135838111156128e657600080fd5b8083019250508a603f8301126128fb57600080fd5b8682013561290b61276a826127a1565b81815260059190911b830160400190888101908d83111561292b57600080fd5b604085015b8381101561296357868135111561294657600080fd5b6129568f604083358901016127c4565b8352918a01918a01612930565b50604084015250508552505091830191830161284f565b60006020828403121561298c57600080fd5b81356001600160401b03808211156129a357600080fd5b90830190608082860312156129b757600080fd5b6129bf6126d2565b8235828111156129ce57600080fd5b6129da8782860161274b565b8252506020830135828111156129ef57600080fd5b6129fb8782860161274b565b602083015250604083013582811115612a1357600080fd5b612a1f8782860161274b565b604083015250606083013582811115612a3757600080fd5b612a438782860161280b565b60608301525095945050505050565b60008083601f840112612a6457600080fd5b5081356001600160401b03811115612a7b57600080fd5b602083019150836020828501011115612a9357600080fd5b9250929050565b60008060208385031215612aad57600080fd5b82356001600160401b03811115612ac357600080fd5b612acf85828601612a52565b90969095509350505050565b6020808252825182820181905260009190848201906040850190845b81811015612b1c5783516001600160a01b031683529284019291840191600101612af7565b50909695505050505050565b60005b83811015612b43578181015183820152602001612b2b565b50506000910152565b60008151808452612b64816020860160208601612b28565b601f01601f19169290920160200192915050565b80518252602081015160208301526000604082015160a06040850152612ba160a0850182612b4c565b6060848101516001600160a01b03908116918701919091526080948501511693909401929092525090919050565b6000602080830181845280855180835260408601915060408160051b870101925083870160005b82811015612c2457603f19888603018452612c12858351612b78565b94509285019290850190600101612bf6565b5092979650505050505050565b6020815260006115936020830184612b78565b80356001600160a01b0381168114612c5b57600080fd5b919050565b600060208284031215612c7257600080fd5b61159382612c44565b60006020808301818452808551808352604092508286019150828160051b87010184880160005b83811015612d0957888303603f19018552815180516001600160a01b0316845287810151606089860181905290612cdb82870182612b4c565b91505087820151915084810388860152612cf58183612b4c565b968901969450505090860190600101612ca2565b509098975050505050505050565b60008060008060408587031215612d2d57600080fd5b84356001600160401b0380821115612d4457600080fd5b612d5088838901612a52565b90965094506020870135915080821115612d6957600080fd5b50612d7687828801612a52565b95989497509550505050565b600080600060408486031215612d9757600080fd5b83356001600160401b03811115612dad57600080fd5b612db986828701612a52565b9094509250612dcc905060208501612c44565b90509250925092565b805182526000602082015160606020850152612df46060850182612b4c565b6040938401511515949093019390935250919050565b6000602080830181845280855180835260408601915060408160051b870101925083870160005b82811015612c2457603f19888603018452612e4d858351612dd5565b94509285019290850190600101612e31565b6000604082840312156109f557600080fd5b600060208284031215612e8357600080fd5b81356001600160401b03811115612e9957600080fd5b612ea584828501612e5f565b949350505050565b600080600060408486031215612ec257600080fd5b83356001600160401b03811115612ed857600080fd5b612ee486828701612a52565b909790965060209590950135949350505050565b6000602080830181845280855180835260408601915060408160051b870101925083870160005b82811015612c2457878503603f19018452815151868652612f4287870182612b4c565b9550509285019290850190600101612f1f565b60008060008060608587031215612f6b57600080fd5b84356001600160401b0380821115612f8257600080fd5b612f8e88838901612a52565b9096509450602087013593506040870135915080821115612fae57600080fd5b50612fbb878288016127c4565b91505092959194509250565b60008060408385031215612fda57600080fd5b82356001600160401b0380821115612ff157600080fd5b612ffd86838701612e5f565b9350602085013591508082111561301357600080fd5b50830160a0818603121561302657600080fd5b809150509250929050565b60006020828403121561304357600080fd5b5035919050565b6020815260008251602080840152612ea56040840182612b4c565b600080600080600080600060a0888a03121561308057600080fd5b87356001600160401b038082111561309757600080fd5b6130a38b838c01612a52565b90995097506020915089820135818111156130bd57600080fd5b6130c98c828d01612a52565b90985096506130dc905060408b01612c44565b945060608a0135818111156130f057600080fd5b8a01601f81018c1361310157600080fd5b803561310f61276a826127a1565b81815260059190911b8201840190848101908e83111561312e57600080fd5b928501925b8284101561314c57833582529285019290850190613133565b965050505060808a013591508082111561316557600080fd5b506131728a828b0161274b565b91505092959891949750929550565b6020815260006115936020830184612dd5565b60008060008060008060008060a0898b0312156131b057600080fd5b88356001600160401b03808211156131c757600080fd5b6131d38c838d01612a52565b909a50985060208b01359150808211156131ec57600080fd5b6131f88c838d01612a52565b909850965086915061320c60408c01612c44565b955060608b0135945060808b013591508082111561322957600080fd5b506132368b828c01612a52565b999c989b5096995094979396929594505050565b6000806000806080858703121561326057600080fd5b84356001600160401b038082111561327757600080fd5b6132838883890161274b565b9550602087013591508082111561329957600080fd5b6132a58883890161274b565b94506132b360408801612c44565b93506060870135915080821115612fae57600080fd5b8015158114611d8557600080fd5b600080600080606085870312156132ed57600080fd5b84356001600160401b0381111561330357600080fd5b61330f87828801612a52565b9095509350613322905060208601612c44565b91506040850135613332816132c9565b939692955090935050565b634e487b7160e01b600052601160045260246000fd5b6000600182016133655761336561333d565b5060010190565b600181811c9082168061338057607f821691505b6020821081036109f557634e487b7160e01b600052602260045260246000fd5b601f82111561232057600081815260208120601f850160051c810160208610156133c75750805b601f850160051c820191505b81811015611340578281556001016133d3565b81516001600160401b038111156133ff576133ff612672565b6134138161340d845461336c565b846133a0565b602080601f83116001811461344857600084156134305750858301515b600019600386901b1c1916600185901b178555611340565b600085815260208120601f198616915b8281101561347757888601518255948401946001909101908401613458565b50858210156134955787850151600019600388901b60f8161c191681555b5050505050600190811b01905550565b8181036134b0575050565b6134ba825461336c565b6001600160401b038111156134d1576134d1612672565b6134df8161340d845461336c565b6000601f82116001811461351357600083156134fb5750848201545b600019600385901b1c1916600184901b1784556107ac565b600085815260209020601f19841690600086815260209020845b8381101561354d578286015482556001958601959091019060200161352d565b50858310156134955793015460001960f8600387901b161c19169092555050600190811b01905550565b634e487b7160e01b600052603260045260246000fd5b808201808211156108655761086561333d565b600082601f8301126135b157600080fd5b81516135bf61276a82612724565b8181528460208386010111156135d457600080fd5b612ea5826020830160208701612b28565b6000602082840312156135f757600080fd5b81516001600160401b0381111561360d57600080fd5b612ea5848285016135a0565b6000808335601e1984360301811261363057600080fd5b8301803591506001600160401b0382111561364a57600080fd5b602001915036819003821315612a9357600080fd5b81835281816020850137506000828201602090810191909152601f909101601f19169091010190565b602081526000612ea560208301848661365f565b6000808335601e198436030181126136b357600080fd5b8301803591506001600160401b038211156136cd57600080fd5b6020019150600581901b3603821315612a9357600080fd5b6060815260006136f960608301868861365f565b6001600160a01b03949094166020830152506040015292915050565b60006020828403121561372757600080fd5b61372f612688565b905081516001600160401b0381111561374757600080fd5b612802848285016135a0565b60006020828403121561376557600080fd5b81516001600160401b0381111561377b57600080fd5b612ea584828501613715565b8183823760009101908152919050565b6080815260006137aa6080830187612b4c565b82810360208401526137bc8187612b4c565b6001600160a01b0386166040850152838103606085015284516020808352919250906137ea90830182612b4c565b98975050505050505050565b60006020828403121561380857600080fd5b8151611593816132c9565b6080815260006138266080830187612b4c565b82810360208401526138388187612b4c565b90508460408401528281036060840152611bac8185612b4c565b6000808335601e1984360301811261386957600080fd5b83016020810192503590506001600160401b0381111561388857600080fd5b803603821315612a9357600080fd5b60a0815260006138a78788613852565b604060a08501526138bc60e08501828461365f565b9150506138cc6020890189613852565b848303609f190160c08601526138e383828461365f565b6020860199909952505050506001600160a01b039390931660408401526060830191909152608090910152919050565b818103818111156108655761086561333d565b634e487b7160e01b600052603160045260246000fd5b6000602080838503121561394f57600080fd5b82516001600160401b038082111561396657600080fd5b818501915085601f83011261397a57600080fd5b815161398861276a826127a1565b81815260059190911b830184019084810190888311156139a757600080fd5b8585015b838110156139df578051858111156139c35760008081fd5b6139d18b89838a0101613715565b8452509186019186016139ab565b5098975050505050505050565b608081526000613a0060808301888a61365f565b602083820381850152613a1482888a61365f565b8481036040860152865180825282880193509082019060005b81811015613a4957845183529383019391830191600101613a2d565b50508481036060860152613a5d8187612b4c565b9b9a505050505050505050505056fea26469706673582212202b899047c073791e2af0bddbabf373440eb5941c2b93f3847a571361eb70531464736f6c63430008100033",
    "linkReferences": {
      "contracts/zion-governance/contracts/spaces/libraries/ZionSpaceController.sol": {
        "ZionSpaceController": [
          {
            "start": 8601,
            "length": 20
          }
        ]
      }
    }
  },
  "methodIdentifiers": {
    "addPermissionToRole(string,uint256,(string))": "7d9a0230",
    "addRoleToEntitlementModule(string,string,address,uint256,bytes)": "bbd7358a",
    "createChannel((string,string,string,(string,string,(string)[])[]))": "06d1ea5d",
    "createRole(string,string)": "d2192dbf",
    "createSpace((string,string))": "50b88cf7",
    "createSpaceWithTokenEntitlement((string,string),(address,address,uint256,string,string[]))": "7e9ea5c7",
    "getChannelIdByNetworkId(string,string)": "3e66eae3",
    "getEntitlementModulesBySpaceId(string)": "141b6498",
    "getEntitlementsInfoBySpaceId(string)": "3519167c",
    "getPermissionFromMap(bytes32)": "9ea4d532",
    "getPermissionsBySpaceIdByRoleId(string,uint256)": "7074047c",
    "getRoleBySpaceIdByRoleId(string,uint256)": "b3ff31b2",
    "getRolesBySpaceId(string)": "4bf2abb2",
    "getSpaceIdByNetworkId(string)": "9ddd0d6b",
    "getSpaceInfoBySpaceId(string)": "2bb59212",
    "getSpaceOwnerBySpaceId(string)": "2a4bdf25",
    "getSpaces()": "15478ca9",
    "isEntitled(string,string,address,(string))": "bf77b663",
    "isEntitlementModuleWhitelisted(string,address)": "4196d1ff",
    "owner()": "8da5cb5b",
    "removeEntitlement(string,string,address,uint256[],bytes)": "a3a39cb9",
    "renounceOwnership()": "715018a6",
    "setDefaultEntitlementModule(address)": "ccaf0a2b",
    "setDefaultPermissionsManager(address)": "2d478e6b",
    "transferOwnership(address)": "f2fde38b",
    "whitelistEntitlementModule(string,address,bool)": "e798ff3f"
  },
  "id": 14
}