{
  "abi": [
    {
      "inputs": [
        {
          "internalType": "address",
          "name": "_permissionRegistry",
          "type": "address"
        },
        {
          "internalType": "address",
          "name": "_roleManager",
          "type": "address"
        }
      ],
      "stateMutability": "nonpayable",
      "type": "constructor"
    },
    {
      "inputs": [],
      "name": "ChannelDoesNotExist",
      "type": "error"
    },
    {
      "inputs": [],
      "name": "DefaultEntitlementModuleNotSet",
      "type": "error"
    },
    {
      "inputs": [],
      "name": "DefaultPermissionsManagerNotSet",
      "type": "error"
    },
    {
      "inputs": [],
      "name": "EntitlementAlreadyWhitelisted",
      "type": "error"
    },
    {
      "inputs": [],
      "name": "EntitlementModuleNotSupported",
      "type": "error"
    },
    {
      "inputs": [],
      "name": "EntitlementNotWhitelisted",
      "type": "error"
    },
    {
      "inputs": [],
      "name": "InvalidParameters",
      "type": "error"
    },
    {
      "inputs": [],
      "name": "NotAllowed",
      "type": "error"
    },
    {
      "inputs": [],
      "name": "SpaceDoesNotExist",
      "type": "error"
    },
    {
      "inputs": [],
      "name": "SpaceNFTNotSet",
      "type": "error"
    },
    {
      "anonymous": false,
      "inputs": [
        {
          "indexed": true,
          "internalType": "address",
          "name": "previousOwner",
          "type": "address"
        },
        {
          "indexed": true,
          "internalType": "address",
          "name": "newOwner",
          "type": "address"
        }
      ],
      "name": "OwnershipTransferred",
      "type": "event"
    },
    {
      "inputs": [
        {
          "internalType": "string",
          "name": "spaceId",
          "type": "string"
        },
        {
          "internalType": "uint256",
          "name": "roleId",
          "type": "uint256"
        },
        {
          "components": [
            {
              "internalType": "string",
              "name": "name",
              "type": "string"
            }
          ],
          "internalType": "struct DataTypes.Permission",
          "name": "permission",
          "type": "tuple"
        }
      ],
      "name": "addPermissionToRole",
      "outputs": [],
      "stateMutability": "nonpayable",
      "type": "function"
    },
    {
      "inputs": [
        {
          "internalType": "string",
          "name": "spaceNetworkId",
          "type": "string"
        },
        {
          "internalType": "string",
          "name": "channelNetworkId",
          "type": "string"
        },
        {
          "internalType": "address",
          "name": "entitlementModuleAddress",
          "type": "address"
        },
        {
          "internalType": "uint256",
          "name": "roleId",
          "type": "uint256"
        },
        {
          "internalType": "bytes",
          "name": "entitlementData",
          "type": "bytes"
        }
      ],
      "name": "addRoleToEntitlementModule",
      "outputs": [],
      "stateMutability": "nonpayable",
      "type": "function"
    },
    {
      "inputs": [
        {
          "components": [
            {
              "internalType": "string",
              "name": "spaceNetworkId",
              "type": "string"
            },
            {
              "internalType": "string",
              "name": "channelName",
              "type": "string"
            },
            {
              "internalType": "string",
              "name": "channelNetworkId",
              "type": "string"
            }
          ],
          "internalType": "struct DataTypes.CreateChannelData",
          "name": "data",
          "type": "tuple"
        }
      ],
      "name": "createChannel",
      "outputs": [
        {
          "internalType": "uint256",
          "name": "channelId",
          "type": "uint256"
        }
      ],
      "stateMutability": "nonpayable",
      "type": "function"
    },
    {
      "inputs": [
        {
          "internalType": "string",
          "name": "spaceNetworkId",
          "type": "string"
        },
        {
          "internalType": "string",
          "name": "name",
          "type": "string"
        }
      ],
      "name": "createRole",
      "outputs": [
        {
          "internalType": "uint256",
          "name": "roleId",
          "type": "uint256"
        }
      ],
      "stateMutability": "nonpayable",
      "type": "function"
    },
    {
      "inputs": [
        {
          "components": [
            {
              "internalType": "string",
              "name": "spaceName",
              "type": "string"
            },
            {
              "internalType": "string",
              "name": "spaceNetworkId",
              "type": "string"
            }
          ],
          "internalType": "struct DataTypes.CreateSpaceData",
          "name": "info",
          "type": "tuple"
        },
        {
          "components": [
            {
              "internalType": "string",
              "name": "roleName",
              "type": "string"
            },
            {
              "components": [
                {
                  "internalType": "string",
                  "name": "name",
                  "type": "string"
                }
              ],
              "internalType": "struct DataTypes.Permission[]",
              "name": "permissions",
              "type": "tuple[]"
            },
            {
              "components": [
                {
                  "internalType": "string",
                  "name": "tag",
                  "type": "string"
                },
                {
                  "components": [
                    {
                      "internalType": "address",
                      "name": "contractAddress",
                      "type": "address"
                    },
                    {
                      "internalType": "uint256",
                      "name": "quantity",
                      "type": "uint256"
                    },
                    {
                      "internalType": "bool",
                      "name": "isSingleToken",
                      "type": "bool"
                    },
                    {
                      "internalType": "uint256",
                      "name": "tokenId",
                      "type": "uint256"
                    }
                  ],
                  "internalType": "struct DataTypes.ExternalToken[]",
                  "name": "tokens",
                  "type": "tuple[]"
                }
              ],
              "internalType": "struct DataTypes.ExternalTokenEntitlement[]",
              "name": "externalTokenEntitlements",
              "type": "tuple[]"
            },
            {
              "internalType": "address[]",
              "name": "users",
              "type": "address[]"
            }
          ],
          "internalType": "struct DataTypes.CreateSpaceEntitlementData",
          "name": "entitlementData",
          "type": "tuple"
        },
        {
          "components": [
            {
              "internalType": "string",
              "name": "name",
              "type": "string"
            }
          ],
          "internalType": "struct DataTypes.Permission[]",
          "name": "everyonePermissions",
          "type": "tuple[]"
        }
      ],
      "name": "createSpace",
      "outputs": [
        {
          "internalType": "uint256",
          "name": "",
          "type": "uint256"
        }
      ],
      "stateMutability": "nonpayable",
      "type": "function"
    },
    {
      "inputs": [
        {
          "internalType": "string",
          "name": "spaceId",
          "type": "string"
        },
        {
          "internalType": "string",
          "name": "channelId",
          "type": "string"
        }
      ],
      "name": "getChannelIdByNetworkId",
      "outputs": [
        {
          "internalType": "uint256",
          "name": "",
          "type": "uint256"
        }
      ],
      "stateMutability": "view",
      "type": "function"
    },
    {
      "inputs": [
        {
          "internalType": "string",
          "name": "spaceId",
          "type": "string"
        },
        {
          "internalType": "string",
          "name": "channelId",
          "type": "string"
        }
      ],
      "name": "getChannelInfoByChannelId",
      "outputs": [
        {
          "components": [
            {
              "internalType": "uint256",
              "name": "channelId",
              "type": "uint256"
            },
            {
              "internalType": "string",
              "name": "networkId",
              "type": "string"
            },
            {
              "internalType": "uint256",
              "name": "createdAt",
              "type": "uint256"
            },
            {
              "internalType": "string",
              "name": "name",
              "type": "string"
            },
            {
              "internalType": "address",
              "name": "creator",
              "type": "address"
            },
            {
              "internalType": "bool",
              "name": "disabled",
              "type": "bool"
            }
          ],
          "internalType": "struct DataTypes.ChannelInfo",
          "name": "",
          "type": "tuple"
        }
      ],
      "stateMutability": "view",
      "type": "function"
    },
    {
      "inputs": [
        {
          "internalType": "string",
          "name": "spaceId",
          "type": "string"
        }
      ],
      "name": "getChannelsBySpaceId",
      "outputs": [
        {
          "components": [
            {
              "internalType": "uint256",
              "name": "idCounter",
              "type": "uint256"
            },
            {
              "components": [
                {
                  "internalType": "uint256",
                  "name": "channelId",
                  "type": "uint256"
                },
                {
                  "internalType": "uint256",
                  "name": "createdAt",
                  "type": "uint256"
                },
                {
                  "internalType": "string",
                  "name": "networkId",
                  "type": "string"
                },
                {
                  "internalType": "string",
                  "name": "name",
                  "type": "string"
                },
                {
                  "internalType": "address",
                  "name": "creator",
                  "type": "address"
                },
                {
                  "internalType": "bool",
                  "name": "disabled",
                  "type": "bool"
                }
              ],
              "internalType": "struct DataTypes.Channel[]",
              "name": "channels",
              "type": "tuple[]"
            }
          ],
          "internalType": "struct DataTypes.Channels",
          "name": "",
          "type": "tuple"
        }
      ],
      "stateMutability": "view",
      "type": "function"
    },
    {
      "inputs": [
        {
          "internalType": "string",
          "name": "spaceId",
          "type": "string"
        }
      ],
      "name": "getEntitlementModulesBySpaceId",
      "outputs": [
        {
          "internalType": "address[]",
          "name": "",
          "type": "address[]"
        }
      ],
      "stateMutability": "view",
      "type": "function"
    },
    {
      "inputs": [
        {
          "internalType": "string",
          "name": "spaceId",
          "type": "string"
        }
      ],
      "name": "getEntitlementsInfoBySpaceId",
      "outputs": [
        {
          "components": [
            {
              "internalType": "address",
              "name": "addr",
              "type": "address"
            },
            {
              "internalType": "string",
              "name": "name",
              "type": "string"
            },
            {
              "internalType": "string",
              "name": "description",
              "type": "string"
            }
          ],
          "internalType": "struct DataTypes.EntitlementModuleInfo[]",
          "name": "",
          "type": "tuple[]"
        }
      ],
      "stateMutability": "view",
      "type": "function"
    },
    {
      "inputs": [
        {
          "internalType": "bytes32",
          "name": "permissionType",
          "type": "bytes32"
        }
      ],
      "name": "getPermissionFromMap",
      "outputs": [
        {
          "components": [
            {
              "internalType": "string",
              "name": "name",
              "type": "string"
            }
          ],
          "internalType": "struct DataTypes.Permission",
          "name": "",
          "type": "tuple"
        }
      ],
      "stateMutability": "view",
      "type": "function"
    },
    {
      "inputs": [
        {
          "internalType": "string",
          "name": "networkId",
          "type": "string"
        }
      ],
      "name": "getSpaceIdByNetworkId",
      "outputs": [
        {
          "internalType": "uint256",
          "name": "",
          "type": "uint256"
        }
      ],
      "stateMutability": "view",
      "type": "function"
    },
    {
      "inputs": [
        {
          "internalType": "string",
          "name": "spaceId",
          "type": "string"
        }
      ],
      "name": "getSpaceInfoBySpaceId",
      "outputs": [
        {
          "components": [
            {
              "internalType": "uint256",
              "name": "spaceId",
              "type": "uint256"
            },
            {
              "internalType": "string",
              "name": "networkId",
              "type": "string"
            },
            {
              "internalType": "uint256",
              "name": "createdAt",
              "type": "uint256"
            },
            {
              "internalType": "string",
              "name": "name",
              "type": "string"
            },
            {
              "internalType": "address",
              "name": "creator",
              "type": "address"
            },
            {
              "internalType": "address",
              "name": "owner",
              "type": "address"
            },
            {
              "internalType": "bool",
              "name": "disabled",
              "type": "bool"
            }
          ],
          "internalType": "struct DataTypes.SpaceInfo",
          "name": "",
          "type": "tuple"
        }
      ],
      "stateMutability": "view",
      "type": "function"
    },
    {
      "inputs": [
        {
          "internalType": "string",
          "name": "spaceId",
          "type": "string"
        }
      ],
      "name": "getSpaceOwnerBySpaceId",
      "outputs": [
        {
          "internalType": "address",
          "name": "",
          "type": "address"
        }
      ],
      "stateMutability": "view",
      "type": "function"
    },
    {
      "inputs": [],
      "name": "getSpaces",
      "outputs": [
        {
          "components": [
            {
              "internalType": "uint256",
              "name": "spaceId",
              "type": "uint256"
            },
            {
              "internalType": "string",
              "name": "networkId",
              "type": "string"
            },
            {
              "internalType": "uint256",
              "name": "createdAt",
              "type": "uint256"
            },
            {
              "internalType": "string",
              "name": "name",
              "type": "string"
            },
            {
              "internalType": "address",
              "name": "creator",
              "type": "address"
            },
            {
              "internalType": "address",
              "name": "owner",
              "type": "address"
            },
            {
              "internalType": "bool",
              "name": "disabled",
              "type": "bool"
            }
          ],
          "internalType": "struct DataTypes.SpaceInfo[]",
          "name": "",
          "type": "tuple[]"
        }
      ],
      "stateMutability": "view",
      "type": "function"
    },
    {
      "inputs": [
        {
          "internalType": "string",
          "name": "spaceId",
          "type": "string"
        },
        {
          "internalType": "string",
          "name": "channelId",
          "type": "string"
        },
        {
          "internalType": "address",
          "name": "user",
          "type": "address"
        },
        {
          "components": [
            {
              "internalType": "string",
              "name": "name",
              "type": "string"
            }
          ],
          "internalType": "struct DataTypes.Permission",
          "name": "permission",
          "type": "tuple"
        }
      ],
      "name": "isEntitled",
      "outputs": [
        {
          "internalType": "bool",
          "name": "",
          "type": "bool"
        }
      ],
      "stateMutability": "view",
      "type": "function"
    },
    {
      "inputs": [
        {
          "internalType": "string",
          "name": "spaceId",
          "type": "string"
        },
        {
          "internalType": "address",
          "name": "entitlementModuleAddress",
          "type": "address"
        }
      ],
      "name": "isEntitlementModuleWhitelisted",
      "outputs": [
        {
          "internalType": "bool",
          "name": "",
          "type": "bool"
        }
      ],
      "stateMutability": "view",
      "type": "function"
    },
    {
      "inputs": [],
      "name": "owner",
      "outputs": [
        {
          "internalType": "address",
          "name": "",
          "type": "address"
        }
      ],
      "stateMutability": "view",
      "type": "function"
    },
    {
      "inputs": [
        {
          "internalType": "string",
          "name": "spaceNetworkId",
          "type": "string"
        },
        {
          "internalType": "string",
          "name": "channelNetworkId",
          "type": "string"
        },
        {
          "internalType": "address",
          "name": "entitlementModuleAddress",
          "type": "address"
        },
        {
          "internalType": "uint256[]",
          "name": "roleIds",
          "type": "uint256[]"
        },
        {
          "internalType": "bytes",
          "name": "data",
          "type": "bytes"
        }
      ],
      "name": "removeEntitlement",
      "outputs": [],
      "stateMutability": "nonpayable",
      "type": "function"
    },
    {
      "inputs": [
        {
          "internalType": "string",
          "name": "spaceNetworkId",
          "type": "string"
        },
        {
          "internalType": "uint256",
          "name": "roleId",
          "type": "uint256"
        },
        {
          "components": [
            {
              "internalType": "string",
              "name": "name",
              "type": "string"
            }
          ],
          "internalType": "struct DataTypes.Permission",
          "name": "permission",
          "type": "tuple"
        }
      ],
      "name": "removePermissionFromRole",
      "outputs": [],
      "stateMutability": "nonpayable",
      "type": "function"
    },
    {
      "inputs": [
        {
          "internalType": "string",
          "name": "spaceNetworkId",
          "type": "string"
        },
        {
          "internalType": "uint256",
          "name": "roleId",
          "type": "uint256"
        }
      ],
      "name": "removeRole",
      "outputs": [],
      "stateMutability": "nonpayable",
      "type": "function"
    },
    {
      "inputs": [],
      "name": "renounceOwnership",
      "outputs": [],
      "stateMutability": "nonpayable",
      "type": "function"
    },
    {
      "inputs": [
        {
          "internalType": "string",
          "name": "spaceNetworkId",
          "type": "string"
        },
        {
          "internalType": "string",
          "name": "channelNetworkId",
          "type": "string"
        },
        {
          "internalType": "bool",
          "name": "disabled",
          "type": "bool"
        }
      ],
      "name": "setChannelAccess",
      "outputs": [],
      "stateMutability": "nonpayable",
      "type": "function"
    },
    {
      "inputs": [
        {
          "internalType": "address",
          "name": "entitlementModule",
          "type": "address"
        }
      ],
      "name": "setDefaultTokenEntitlementModule",
      "outputs": [],
      "stateMutability": "nonpayable",
      "type": "function"
    },
    {
      "inputs": [
        {
          "internalType": "address",
          "name": "entitlementModule",
          "type": "address"
        }
      ],
      "name": "setDefaultUserEntitlementModule",
      "outputs": [],
      "stateMutability": "nonpayable",
      "type": "function"
    },
    {
      "inputs": [
        {
          "internalType": "string",
          "name": "spaceNetworkId",
          "type": "string"
        },
        {
          "internalType": "bool",
          "name": "disabled",
          "type": "bool"
        }
      ],
      "name": "setSpaceAccess",
      "outputs": [],
      "stateMutability": "nonpayable",
      "type": "function"
    },
    {
      "inputs": [
        {
          "internalType": "address",
          "name": "spaceNFTAddress",
          "type": "address"
        }
      ],
      "name": "setSpaceNFT",
      "outputs": [],
      "stateMutability": "nonpayable",
      "type": "function"
    },
    {
      "inputs": [
        {
          "internalType": "address",
          "name": "newOwner",
          "type": "address"
        }
      ],
      "name": "transferOwnership",
      "outputs": [],
      "stateMutability": "nonpayable",
      "type": "function"
    },
    {
      "inputs": [
        {
          "internalType": "string",
          "name": "spaceNetworkId",
          "type": "string"
        },
        {
          "internalType": "address",
          "name": "entitlementAddress",
          "type": "address"
        },
        {
          "internalType": "bool",
          "name": "whitelist",
          "type": "bool"
        }
      ],
      "name": "whitelistEntitlementModule",
      "outputs": [],
      "stateMutability": "nonpayable",
      "type": "function"
    }
  ],
  "bytecode": {
    "object": "0x60c06040523480156200001157600080fd5b5060405162005a5138038062005a51833981016040819052620000349162000129565b6200003f33620000bc565b6001600160a01b0382166200006757604051630e52390960e41b815260040160405180910390fd5b6001600160a01b0381166200008f57604051630e52390960e41b815260040160405180910390fd5b6001600160a01b0391821660a052166080819052600b80546001600160a01b031916909117905562000161565b600080546001600160a01b038381166001600160a01b0319831681178455604051919092169283917f8be0079c531659141344cd1fd0a4f28419497f9722a3daafe3b4186f6b6457e09190a35050565b80516001600160a01b03811681146200012457600080fd5b919050565b600080604083850312156200013d57600080fd5b62000148836200010c565b915062000158602084016200010c565b90509250929050565b60805160a0516158c66200018b600039600081816120a301526139b10152600050506158c66000f3fe608060405234801561001057600080fd5b50600436106101cf5760003560e01c80637d9a023011610104578063bf77b663116100a2578063e1b7a9e511610071578063e1b7a9e51461044d578063e798ff3f14610460578063f2fde38b14610473578063f86caf831461048657600080fd5b8063bf77b66314610401578063ccde2de314610414578063d2192dbf14610427578063d9d94cb71461043a57600080fd5b80639ddd0d6b116100de5780639ddd0d6b146103a85780639ea4d532146103bb578063a3a39cb9146103db578063bbd7358a146103ee57600080fd5b80637d9a0230146103645780638b0e905a146103775780638da5cb5b1461038a57600080fd5b80633e66eae31161017157806350c24eef1161014b57806350c24eef14610316578063715018a61461033657806372a293211461033e57806379960fe11461035157600080fd5b80633e66eae3146102bf5780634196d1ff146102e05780634832a4ec1461030357600080fd5b80631a039620116101ad5780631a039620146102325780632a4bdf25146102475780632bb592121461027f5780633519167c1461029f57600080fd5b80630db37ba3146101d4578063141b6498146101fd57806315478ca91461021d575b600080fd5b6101e76101e23660046140db565b610499565b6040516101f491906141b5565b60405180910390f35b61021061020b366004614259565b610795565b6040516101f4919061429b565b61022561085a565b6040516101f49190614380565b610245610240366004614422565b610af4565b005b61025a610255366004614259565b610b6b565b60405173ffffffffffffffffffffffffffffffffffffffff90911681526020016101f4565b61029261028d366004614259565b610c31565b6040516101f4919061443f565b6102b26102ad366004614259565b610eba565b6040516101f49190614452565b6102d26102cd3660046140db565b61119a565b6040519081526020016101f4565b6102f36102ee366004614517565b611218565b60405190151581526020016101f4565b610245610311366004614580565b6112a0565b61032961032436600461477c565b6114de565b6040516101f491906147b9565b610245611723565b61024561034c3660046148be565b611737565b6102d261035f366004614942565b611a18565b610245610372366004614580565b611c71565b6102456103853660046149f7565b611ded565b60005473ffffffffffffffffffffffffffffffffffffffff1661025a565b6102d26103b6366004614259565b612011565b6103ce6103c9366004614a43565b612052565b6040516101f49190614a5c565b6102456103e9366004614abc565b612130565b6102456103fc366004614b97565b61235d565b6102f361040f366004614c4f565b6125bf565b610245610422366004614422565b61264b565b6102d26104353660046140db565b6126c2565b6102d2610448366004614cf6565b612881565b61024561045b366004614422565b612e68565b61024561046e366004614d85565b612edf565b610245610481366004614422565b613000565b610245610494366004614ded565b6130bc565b6104ea6040518060c0016040528060008152602001606081526020016000815260200160608152602001600073ffffffffffffffffffffffffffffffffffffffff1681526020016000151581525090565b600061052b86868080601f0160208091040260200160405190810160405280939291908181526020018383808284376000920191909152506131eb92505050565b905060006105a287878080601f01602080910402602001604051908101604052809392919081815260200183838082843760009201919091525050604080516020601f8b01819004810282018101909252898152925089915088908190840183828082843760009201919091525061320592505050565b6040805160c081018252600085815260046020908152838220858352808252938220805484529185905292835260020180549394509092918301916105e690614e3f565b80601f016020809104026020016040519081016040528092919081815260200182805461061290614e3f565b801561065f5780601f106106345761010080835404028352916020019161065f565b820191906000526020600020905b81548152906001019060200180831161064257829003601f168201915b5050509183525050600084815260046020908152604080832086845280835281842060018101548487015293879052909152600390910180549190920191906106a790614e3f565b80601f01602080910402602001604051908101604052809291908181526020018280546106d390614e3f565b80156107205780601f106106f557610100808354040283529160200191610720565b820191906000526020600020905b81548152906001019060200180831161070357829003601f168201915b505050918352505060009384526004602081815260408087208688528083528188209093015473ffffffffffffffffffffffffffffffffffffffff81168386015295909652527401000000000000000000000000000000000000000090920460ff161515929091019190915295945050505050565b6060600560006107da85858080601f0160208091040260200160405190810160405280939291908181526020018383808284376000920191909152506131eb92505050565b815260200190815260200160002060090180548060200260200160405190810160405280929190818152602001828054801561084c57602002820191906000526020600020905b815473ffffffffffffffffffffffffffffffffffffffff168152600190910190602001808311610821575b505050505090505b92915050565b6060600060015467ffffffffffffffff811115610879576108796145f3565b60405190808252806020026020018201604052801561091857816020015b6109056040518060e0016040528060008152602001606081526020016000815260200160608152602001600073ffffffffffffffffffffffffffffffffffffffff168152602001600073ffffffffffffffffffffffffffffffffffffffff1681526020016000151581525090565b8152602001906001900390816108975790505b50905060005b600154811015610aee576000600581610938846001614ebb565b815260200190815260200160002090506040518060e001604052808260000154815260200182600201805461096c90614e3f565b80601f016020809104026020016040519081016040528092919081815260200182805461099890614e3f565b80156109e55780601f106109ba576101008083540402835291602001916109e5565b820191906000526020600020905b8154815290600101906020018083116109c857829003601f168201915b5050505050815260200182600101548152602001826003018054610a0890614e3f565b80601f0160208091040260200160405190810160405280929190818152602001828054610a3490614e3f565b8015610a815780601f10610a5657610100808354040283529160200191610a81565b820191906000526020600020905b815481529060010190602001808311610a6457829003601f168201915b5050509183525050600483015473ffffffffffffffffffffffffffffffffffffffff90811660208301526005840154166040820152600783015460ff1615156060909101528351849084908110610ada57610ada614ece565b60209081029190910101525060010161091e565b50919050565b610afc613258565b600980547fffffffffffffffffffffffff00000000000000000000000000000000000000001673ffffffffffffffffffffffffffffffffffffffff83169081179091556040517f07b136952c7460e1fc2d593fad96b5b379f28cc13a49857b6a825c5228c1a8d190600090a250565b600a54604080516020601f850181900481028201810190925283815260009273ffffffffffffffffffffffffffffffffffffffff169163cc3f8dc891610bcb9187908790819084018382808284376000920191909152506131eb92505050565b6040518263ffffffff1660e01b8152600401610be991815260200190565b602060405180830381865afa158015610c06573d6000803e3d6000fd5b505050506040513d601f19601f82011682018060405250810190610c2a9190614efd565b9392505050565b610c9f6040518060e0016040528060008152602001606081526020016000815260200160608152602001600073ffffffffffffffffffffffffffffffffffffffff168152602001600073ffffffffffffffffffffffffffffffffffffffff1681526020016000151581525090565b6000610ce084848080601f0160208091040260200160405190810160405280939291908181526020018383808284376000920191909152506131eb92505050565b6040805160e081018252600083815260056020818152938220805484529185905283526002018054939450909291830191610d1a90614e3f565b80601f0160208091040260200160405190810160405280929190818152602001828054610d4690614e3f565b8015610d935780601f10610d6857610100808354040283529160200191610d93565b820191906000526020600020905b815481529060010190602001808311610d7657829003601f168201915b5050505050815260200160056000848152602001908152602001600020600101548152602001600560008481526020019081526020016000206003018054610dda90614e3f565b80601f0160208091040260200160405190810160405280929190818152602001828054610e0690614e3f565b8015610e535780601f10610e2857610100808354040283529160200191610e53565b820191906000526020600020905b815481529060010190602001808311610e3657829003601f168201915b50505091835250506000838152600560208181526040808420600481015473ffffffffffffffffffffffffffffffffffffffff9081168488015281850154169186019190915295909252905260079092015460ff1615156060909201919091529392505050565b60606000610efd84848080601f0160208091040260200160405190810160405280939291908181526020018383808284376000920191909152506131eb92505050565b6000818152600560205260408120600901549192509067ffffffffffffffff811115610f2b57610f2b6145f3565b604051908082528060200260200182016040528015610f9657816020015b610f836040518060600160405280600073ffffffffffffffffffffffffffffffffffffffff16815260200160608152602001606081525090565b815260200190600190039081610f495790505b506000838152600560205260408120600901549192505b8181101561118f576000848152600560205260408120600901805483908110610fd857610fd8614ece565b60009182526020909120015473ffffffffffffffffffffffffffffffffffffffff16905080611007575061117d565b600060405180606001604052808373ffffffffffffffffffffffffffffffffffffffff1681526020018373ffffffffffffffffffffffffffffffffffffffff166306fdde036040518163ffffffff1660e01b8152600401600060405180830381865afa15801561107b573d6000803e3d6000fd5b505050506040513d6000823e601f3d9081017fffffffffffffffffffffffffffffffffffffffffffffffffffffffffffffffe01682016040526110c19190810190614f5f565b81526020018373ffffffffffffffffffffffffffffffffffffffff16637284e4166040518163ffffffff1660e01b8152600401600060405180830381865afa158015611111573d6000803e3d6000fd5b505050506040513d6000823e601f3d9081017fffffffffffffffffffffffffffffffffffffffffffffffffffffffffffffffe01682016040526111579190810190614f5f565b81525090508085848151811061116f5761116f614ece565b602002602001018190525050505b8061118781614f94565b915050610fad565b509095945050505050565b600061120f85858080601f01602080910402602001604051908101604052809392919081815260200183838082843760009201919091525050604080516020601f8901819004810282018101909252878152925087915086908190840183828082843760009201919091525061320592505050565b95945050505050565b60006005600061125d86868080601f0160208091040260200160405190810160405280939291908181526020018383808284376000920191909152506131eb92505050565b81526020808201929092526040908101600090812073ffffffffffffffffffffffffffffffffffffffff8616825260080190925290205460ff1690509392505050565b61130f84848080601f0160208091040260200160405190810160405280939291908181526020018383808284376000920182905250604080516020810190915290815292507f75be26f315524d8937b28469fe5b4df7e59aebca1fcbbbe5669005e1491b131b91506132d99050565b6113387f929f3fd6848015f83b9210c89f7744e3941acae1195c8bf9f5798c090dc8f497612052565b6040516020016113489190614a5c565b604051602081830303815290604052805190602001208160405160200161136f9190615079565b60405160208183030381529060405280519060200120036113bc576040517fe523909000000000000000000000000000000000000000000000000000000000815260040160405180910390fd5b600b54604080516020601f870181900481028201810190925285815273ffffffffffffffffffffffffffffffffffffffff9092169163db474ecb9161141c919088908890819084018382808284376000920191909152506131eb92505050565b84846040518463ffffffff1660e01b815260040161143c9392919061509d565b600060405180830381600087803b15801561145657600080fd5b505af115801561146a573d6000803e3d6000fd5b5050505081848460405161147f9291906150ce565b60405180910390207fb72e43fbdf2abeb3bfe59e783bcca829d13e9fcde1eac425751faabea6c134c96114af3390565b60405173ffffffffffffffffffffffffffffffffffffffff90911681526020015b60405180910390a350505050565b6040805180820190915260008152606060208201526006600061151584805160209182012060009081526002909152604090205490565b81526020019081526020016000206040518060400160405290816000820154815260200160018201805480602002602001604051908101604052809291908181526020016000905b8282101561171557838290600052602060002090600502016040518060c001604052908160008201548152602001600182015481526020016002820180546115a490614e3f565b80601f01602080910402602001604051908101604052809291908181526020018280546115d090614e3f565b801561161d5780601f106115f25761010080835404028352916020019161161d565b820191906000526020600020905b81548152906001019060200180831161160057829003601f168201915b5050505050815260200160038201805461163690614e3f565b80601f016020809104026020016040519081016040528092919081815260200182805461166290614e3f565b80156116af5780601f10611684576101008083540402835291602001916116af565b820191906000526020600020905b81548152906001019060200180831161169257829003601f168201915b50505091835250506004919091015473ffffffffffffffffffffffffffffffffffffffff81166020808401919091527401000000000000000000000000000000000000000090910460ff161515604090920191909152908252600192909201910161155d565b505050915250909392505050565b61172b613258565b6117356000613329565b565b6117cc85858080601f01602080910402602001604051908101604052809392919081815260200183838082843760009201919091525050604080516020601f890181900481028201810190925287815292508791508690819084018382808284376000920191909152507f71e770fed024e50450e0cb5318c1a012e92ab6439dfbe6c071800b700ce55c0a92506132d9915050565b61180b85858080601f01602080910402602001604051908101604052809392919081815260200183838082843760009201919091525061339e92505050565b61187e85858080601f01602080910402602001604051908101604052809392919081815260200183838082843760009201919091525050604080516020601f8901819004810282018101909252878152925087915086908190840183828082843760009201919091525061344a92505050565b60006118bf86868080601f0160208091040260200160405190810160405280939291908181526020018383808284376000920191909152506131eb92505050565b9050600061193687878080601f01602080910402602001604051908101604052809392919081815260200183838082843760009201919091525050604080516020601f8b01819004810282018101909252898152925089915088908190840183828082843760009201919091525061320592505050565b60008381526004602081815260408084208585529091529091200180547fffffffffffffffffffffff00ffffffffffffffffffffffffffffffffffffffff16740100000000000000000000000000000000000000008615150217905590503373ffffffffffffffffffffffffffffffffffffffff1685856040516119bb9291906150ce565b604051809103902088886040516119d39291906150ce565b6040519081900381208615158252907fcba51876aa74b247950c251d3459c41aaebd8b10717beadb480ca1a105166ab59060200160405180910390a450505050505050565b6000611a588260000151604051806020016040528060008152507f5ef98f1e5b8bd5ee1978908b3f5b2128d59a65f7702f04e6aca3c95aff590be16132d9565b8151611a639061339e565b81518051602091820120600090815260029091526040902054611a868184613492565b604080516080808201835260008083526020808401829052838501829052606093840182905284519283018552600a5473ffffffffffffffffffffffffffffffffffffffff1683526001838201819052838601819052938301879052845184815280860190955294965090939092919082015b6040805160808101825260008082526020808301829052928201819052606082015282527fffffffffffffffffffffffffffffffffffffffffffffffffffffffffffffffff909201910181611af95790505090508181600081518110611b6157611b61614ece565b6020908102919091018101919091526040805160808101825260148183019081527f5370616365204f776e6572204e46542047617465000000000000000000000000606083015281528083018490528751888301516009546000898152600587528590206006015494519395611c0e959394929373ffffffffffffffffffffffffffffffffffffffff90921692611bfa918891016150de565b604051602081830303815290604052613525565b60408087015190513391611c219161519a565b60405190819003812088519091611c38919061519a565b604051908190038120907ff22ca4e1529bca70f91b82d259651796b8973cec866e55ad258c1f6d56ea71d390600090a450505050919050565b611ce084848080601f0160208091040260200160405190810160405280939291908181526020018383808284376000920182905250604080516020810190915290815292507f75be26f315524d8937b28469fe5b4df7e59aebca1fcbbbe5669005e1491b131b91506132d99050565b611d097f929f3fd6848015f83b9210c89f7744e3941acae1195c8bf9f5798c090dc8f497612052565b604051602001611d199190614a5c565b6040516020818303038152906040528051906020012081604051602001611d409190615079565b6040516020818303038152906040528051906020012003611d8d576040517fe523909000000000000000000000000000000000000000000000000000000000815260040160405180910390fd5b600b54604080516020601f870181900481028201810190925285815273ffffffffffffffffffffffffffffffffffffffff90921691633368c9189161141c919088908890819084018382808284376000920191909152506131eb92505050565b611e5c83838080601f0160208091040260200160405190810160405280939291908181526020018383808284376000920182905250604080516020810190915290815292507f75be26f315524d8937b28469fe5b4df7e59aebca1fcbbbe5669005e1491b131b91506132d99050565b60056000611e9f85858080601f0160208091040260200160405190810160405280939291908181526020018383808284376000920191909152506131eb92505050565b8152602001908152602001600020600601548103611ee9576040517fe523909000000000000000000000000000000000000000000000000000000000815260040160405180910390fd5b600b54604080516020601f860181900481028201810190925284815273ffffffffffffffffffffffffffffffffffffffff9092169163cdb0ba5091611f49919087908790819084018382808284376000920191909152506131eb92505050565b836040518363ffffffff1660e01b8152600401611f70929190918252602082015260400190565b600060405180830381600087803b158015611f8a57600080fd5b505af1158015611f9e573d6000803e3d6000fd5b50505050808383604051611fb39291906150ce565b60405180910390207f7bb07acd566d038f77cba9c39e7536f74ea2c4ee382024d1b428d7f0680dbc02611fe33390565b60405173ffffffffffffffffffffffffffffffffffffffff90911681526020015b60405180910390a3505050565b6000610c2a83838080601f0160208091040260200160405190810160405280939291908181526020018383808284376000920191909152506131eb92505050565b604080516020810182526060815290517f173c4a630000000000000000000000000000000000000000000000000000000081526004810183905273ffffffffffffffffffffffffffffffffffffffff7f0000000000000000000000000000000000000000000000000000000000000000169063173c4a6390602401600060405180830381865afa1580156120ea573d6000803e3d6000fd5b505050506040513d6000823e601f3d9081017fffffffffffffffffffffffffffffffffffffffffffffffffffffffffffffffe016820160405261085491908101906151b6565b61216f89898080601f01602080910402602001604051908101604052809392919081815260200183838082843760009201919091525061339e92505050565b61220489898080601f01602080910402602001604051908101604052809392919081815260200183838082843760009201919091525050604080516020601f8d018190048102820181019092528b815292508b91508a90819084018382808284376000920191909152507f71e770fed024e50450e0cb5318c1a012e92ab6439dfbe6c071800b700ce55c0a92506132d9915050565b851561227d5761227d89898080601f01602080910402602001604051908101604052809392919081815260200183838082843760009201919091525050604080516020601f8d018190048102820181019092528b815292508b91508a908190840183828082843760009201919091525061344a92505050565b61228685613636565b6122fb898989898989898080602002602001604051908101604052809392919081815260200183836020028082843760009201919091525050604080516020601f8d018190048102820181019092528b815292508b91508a908190840183828082843760009201919091525061371f92505050565b8473ffffffffffffffffffffffffffffffffffffffff1689896040516123229291906150ce565b604051908190038120907f9b42a541e0a10f6a80059e1448b92d56a4e71354d43a2ca1fd3701878cb50ae290600090a3505050505050505050565b61239c88888080601f01602080910402602001604051908101604052809392919081815260200183838082843760009201919091525061339e92505050565b61243188888080601f01602080910402602001604051908101604052809392919081815260200183838082843760009201919091525050604080516020601f8c018190048102820181019092528a815292508a91508990819084018382808284376000920191909152507f71e770fed024e50450e0cb5318c1a012e92ab6439dfbe6c071800b700ce55c0a92506132d9915050565b84156124aa576124aa88888080601f01602080910402602001604051908101604052809392919081815260200183838082843760009201919091525050604080516020601f8c018190048102820181019092528a815292508a915089908190840183828082843760009201919091525061344a92505050565b6124b384613636565b61255e88888080601f01602080910402602001604051908101604052809392919081815260200183838082843760009201919091525050604080516020601f8c018190048102820181019092528a815292508a915089908190840183828082843760009201919091525050604080516020601f89018190048102820181019092528781528a935089925090889088908190840183828082843760009201919091525061352592505050565b8373ffffffffffffffffffffffffffffffffffffffff1688886040516125859291906150ce565b604051908190038120907fe78ad18845af93a80fbe8718cacc631fbe1c453b092806818a044440b96ba67790600090a35050505050505050565b600061264087878080601f01602080910402602001604051908101604052809392919081815260200183838082843760009201919091525050604080516020601f8b01819004810282018101909252898152925089915088908190840183828082843760009201919091525088925061263b915087905061529e565b613853565b979650505050505050565b612653613258565b600a80547fffffffffffffffffffffffff00000000000000000000000000000000000000001673ffffffffffffffffffffffffffffffffffffffff83169081179091556040517f68e3ca42e475f54d65227ed8cb60daf9cec4546691052783063876ad972db71190600090a250565b600061273385858080601f0160208091040260200160405190810160405280939291908181526020018383808284376000920182905250604080516020810190915290815292507f75be26f315524d8937b28469fe5b4df7e59aebca1fcbbbe5669005e1491b131b91506132d99050565b600b54604080516020601f880181900481028201810190925286815273ffffffffffffffffffffffffffffffffffffffff9092169163e88ca8a191612793919089908990819084018382808284376000920191909152506131eb92505050565b85856040518463ffffffff1660e01b81526004016127b3939291906152aa565b6020604051808303816000875af11580156127d2573d6000803e3d6000fd5b505050506040513d601f19601f820116820180604052508101906127f691906152c4565b905082826040516128089291906150ce565b60405180910390208186866040516128219291906150ce565b60405180910390207fc06cee439d340740b1e427558729eb0fcc080aa2ab6d0bcfb30b6618234f460a6128513390565b60405173ffffffffffffffffffffffffffffffffffffffff909116815260200160405180910390a4949350505050565b600061288b6139af565b600061289686613b09565b600a5490915073ffffffffffffffffffffffffffffffffffffffff1663b4b715c482336040517fffffffff0000000000000000000000000000000000000000000000000000000060e085901b168152600481019290925273ffffffffffffffffffffffffffffffffffffffff166024820152604401600060405180830381600087803b15801561292557600080fd5b505af1158015612939573d6000803e3d6000fd5b5050600854612963925083915073ffffffffffffffffffffffffffffffffffffffff166001613ba2565b60095461298990829073ffffffffffffffffffffffffffffffffffffffff166001613ba2565b60006129d68261299c60208a018a6152dd565b8080601f016020809104026020016040519081016040528093929190818152602001838380828437600092019190915250613cc492505050565b6000838152600560209081526040909120600601829055909150612a48908390612a02908a018a6152dd565b8080601f016020809104026020016040519081016040528093929190818152602001838380828437600092019190915250612a4392508991508a9050615366565b613ecd565b506000612a5860208801886153da565b9150508015612e1057600b5460009073ffffffffffffffffffffffffffffffffffffffff1663e88ca8a185612a8d8b806152dd565b6040518463ffffffff1660e01b8152600401612aab939291906152aa565b6020604051808303816000875af1158015612aca573d6000803e3d6000fd5b505050506040513d601f19601f82011682018060405250810190612aee91906152c4565b905060005b82811015612ba557600b5473ffffffffffffffffffffffffffffffffffffffff16633368c9188684612b2860208e018e6153da565b86818110612b3857612b38614ece565b9050602002810190612b4a9190615442565b6040518463ffffffff1660e01b8152600401612b689392919061509d565b600060405180830381600087803b158015612b8257600080fd5b505af1158015612b96573d6000803e3d6000fd5b50505050806001019050612af3565b506000612bb560408a018a6153da565b90501115612d0c5760005b612bcd60408a018a6153da565b9050811015612d0a576000612be560408b018b6153da565b83818110612bf557612bf5614ece565b9050602002810190612c079190615476565b612c10906154aa565b9050612c1f60408b018b6153da565b83818110612c2f57612c2f614ece565b9050602002810190612c419190615476565b612c4b90806152dd565b8080601f016020809104026020016040519081016040528093929190818152602001838380828437600092019190915250505090825250612d01612c9260208d018d6152dd565b8080601f01602080910402602001604051908101604052809392919081815260200183838082843760009201829052506040805160208082018352928152600954915190955073ffffffffffffffffffffffffffffffffffffffff9091169350899250611bfa918891016150de565b50600101612bc0565b505b6000612d1b60608a018a6153da565b90501115612e0e5760005b612d3360608a018a6153da565b9050811015612e0c57612e04612d4c60208c018c6152dd565b8080601f0160208091040260200160405190810160405280939291908181526020018383808284376000920182905250604080516020810190915290815260085490935073ffffffffffffffffffffffffffffffffffffffff169150869050612db860608f018f6153da565b87818110612dc857612dc8614ece565b9050602002016020810190612ddd9190614422565b6040805173ffffffffffffffffffffffffffffffffffffffff909216602083015201611bfa565b600101612d26565b505b505b33612e1e60208a018a6152dd565b604051612e2c9291906150ce565b604051908190038120907ff53000b1113bed1ef6bf6b948fa1fe2c66a643b317a45c5d52a1537050b2dad290600090a350909695505050505050565b612e70613258565b600880547fffffffffffffffffffffffff00000000000000000000000000000000000000001673ffffffffffffffffffffffffffffffffffffffff83169081179091556040517f07b136952c7460e1fc2d593fad96b5b379f28cc13a49857b6a825c5228c1a8d190600090a250565b612ee882613636565b612f5784848080601f0160208091040260200160405190810160405280939291908181526020018383808284376000920182905250604080516020810190915290815292507f75be26f315524d8937b28469fe5b4df7e59aebca1fcbbbe5669005e1491b131b91506132d99050565b612fa0612f9985858080601f0160208091040260200160405190810160405280939291908181526020018383808284376000920191909152506131eb92505050565b8383613ba2565b8173ffffffffffffffffffffffffffffffffffffffff168484604051612fc79291906150ce565b6040519081900381208315158252907f558bdc63bfb8cb1188bc6f559a22d16b8e64dccf7af1d84c90bcf2b7feb1e009906020016114d0565b613008613258565b73ffffffffffffffffffffffffffffffffffffffff81166130b0576040517f08c379a000000000000000000000000000000000000000000000000000000000815260206004820152602660248201527f4f776e61626c653a206e6577206f776e657220697320746865207a65726f206160448201527f646472657373000000000000000000000000000000000000000000000000000060648201526084015b60405180910390fd5b6130b981613329565b50565b6130f682604051806020016040528060008152507f75be26f315524d8937b28469fe5b4df7e59aebca1fcbbbe5669005e1491b131b6132d9565b600061311683805160209182012060009081526002909152604090205490565b905080600003613152576040517fbe34080700000000000000000000000000000000000000000000000000000000815260040160405180910390fd5b600081815260056020526040902060070180547fffffffffffffffffffffffffffffffffffffffffffffffffffffffffffffff00168315151790553373ffffffffffffffffffffffffffffffffffffffff16836040516131b2919061519a565b6040519081900381208415158252907fb52a77d1c8e7ecf705bef894088b2c74fb373648434090edc15688f5c80a868790602001612004565b805160209182012060009081526002909152604090205490565b60006003600061322985805160209182012060009081526002909152604090205490565b815260200190815260200160002060008380519060200120815260200190815260200160002054905092915050565b60005473ffffffffffffffffffffffffffffffffffffffff163314611735576040517f08c379a000000000000000000000000000000000000000000000000000000000815260206004820181905260248201527f4f776e61626c653a2063616c6c6572206973206e6f7420746865206f776e657260448201526064016130a7565b6132e883833361263b85612052565b156132f257505050565b6040517f3d693ada00000000000000000000000000000000000000000000000000000000815260040160405180910390fd5b505050565b6000805473ffffffffffffffffffffffffffffffffffffffff8381167fffffffffffffffffffffffff0000000000000000000000000000000000000000831681178455604051919092169283917f8be0079c531659141344cd1fd0a4f28419497f9722a3daafe3b4186f6b6457e09190a35050565b60006133be82805160209182012060009081526002909152604090205490565b9050806000036133fa576040517fbe34080700000000000000000000000000000000000000000000000000000000815260040160405180910390fd5b60008181526005602052604090206007015460ff1615613446576040517fbe34080700000000000000000000000000000000000000000000000000000000815260040160405180910390fd5b5050565b60006134568383613205565b905080600003613324576040517f6ddd9da900000000000000000000000000000000000000000000000000000000815260040160405180910390fd5b600082815260066020526040902080546001019081905573__$a3850c79b56376fa7983472f601544d59e$__631ddb9a8b838584336006600360046040518863ffffffff1660e01b81526004016134ef97969594939291906155b9565b60006040518083038186803b15801561350757600080fd5b505af415801561351b573d6000803e3d6000fd5b5050505092915050565b84516020808701919091206000908152600282526040808220548083526005845281832073ffffffffffffffffffffffffffffffffffffffff8816845260080190935290205460ff166135a4576040517fc1ef36f300000000000000000000000000000000000000000000000000000000815260040160405180910390fd5b6040517fc800fec400000000000000000000000000000000000000000000000000000000815273ffffffffffffffffffffffffffffffffffffffff85169063c800fec4906135fc90899089908890889060040161567b565b600060405180830381600087803b15801561361657600080fd5b505af115801561362a573d6000803e3d6000fd5b50505050505050505050565b6040517f01ffc9a70000000000000000000000000000000000000000000000000000000081527fa4bfe65900000000000000000000000000000000000000000000000000000000600482015273ffffffffffffffffffffffffffffffffffffffff8216906301ffc9a790602401602060405180830381865afa1580156136c0573d6000803e3d6000fd5b505050506040513d601f19601f820116820180604052508101906136e491906156ba565b15156000036130b9576040517fdb24a1e200000000000000000000000000000000000000000000000000000000815260040160405180910390fd5b60006002600089896040516137359291906150ce565b604080519182900390912082526020808301939093529081016000908120548082526005845282822073ffffffffffffffffffffffffffffffffffffffff89168352600801909352205490915060ff166137bb576040517fc1ef36f300000000000000000000000000000000000000000000000000000000815260040160405180910390fd5b6040517f257f5ea900000000000000000000000000000000000000000000000000000000815273ffffffffffffffffffffffffffffffffffffffff85169063257f5ea990613817908b908b908b908b908a908a906004016156d7565b600060405180830381600087803b15801561383157600080fd5b505af1158015613845573d6000803e3d6000fd5b505050505050505050505050565b60008061387486805160209182012060009081526002909152604090205490565b600081815260056020526040812060090154909350909150825b818110156139a45760008381526005602052604081206009018054839081106138b9576138b9614ece565b60009182526020909120015473ffffffffffffffffffffffffffffffffffffffff169050806138e85750613992565b6040517fbf77b66300000000000000000000000000000000000000000000000000000000815273ffffffffffffffffffffffffffffffffffffffff82169063bf77b66390613940908c908c908c908c90600401615757565b602060405180830381865afa15801561395d573d6000803e3d6000fd5b505050506040513d601f19601f8201168201806040525081019061398191906156ba565b156139905760019450506139a4565b505b8061399c81614f94565b91505061388e565b505050949350505050565b7f000000000000000000000000000000000000000000000000000000000000000073ffffffffffffffffffffffffffffffffffffffff16613a1c576040517f361882e300000000000000000000000000000000000000000000000000000000815260040160405180910390fd5b60085473ffffffffffffffffffffffffffffffffffffffff16613a6b576040517f2ab51add00000000000000000000000000000000000000000000000000000000815260040160405180910390fd5b60095473ffffffffffffffffffffffffffffffffffffffff16613aba576040517f2ab51add00000000000000000000000000000000000000000000000000000000815260040160405180910390fd5b600a5473ffffffffffffffffffffffffffffffffffffffff16611735576040517f345d02c000000000000000000000000000000000000000000000000000000000815260040160405180910390fd5b600180548101908190556040517faa424abb00000000000000000000000000000000000000000000000000000000815273__$a3850c79b56376fa7983472f601544d59e$__9063aa424abb90613b6d908590859033906002906005906004016157c1565b60006040518083038186803b158015613b8557600080fd5b505af4158015613b99573d6000803e3d6000fd5b50505050919050565b808015613be15750600083815260056020908152604080832073ffffffffffffffffffffffffffffffffffffffff8616845260080190915290205460ff165b15613c18576040517f186abc9b00000000000000000000000000000000000000000000000000000000815260040160405180910390fd5b6040517ffd81c88f0000000000000000000000000000000000000000000000000000000081526004810184905273ffffffffffffffffffffffffffffffffffffffff8316602482015281151560448201526005606482015273__$a3850c79b56376fa7983472f601544d59e$__9063fd81c88f9060840160006040518083038186803b158015613ca757600080fd5b505af4158015613cbb573d6000803e3d6000fd5b50505050505050565b604080516080808201835260008083526020808401829052838501829052606093840182905284519283018552600a5473ffffffffffffffffffffffffffffffffffffffff168352600183820181905283860181905293830187905284518481528086019095529093919284929182015b6040805160808101825260008082526020808301829052928201819052606082015282527fffffffffffffffffffffffffffffffffffffffffffffffffffffffffffffffff909201910181613d355790505090508181600081518110613d9d57613d9d614ece565b6020908102919091018101919091526040805160808101825260148183019081527f5370616365204f776e6572204e4654204761746500000000000000000000000060608301528152918201839052600b5490517ff62df4df0000000000000000000000000000000000000000000000000000000081526004810188905260009173ffffffffffffffffffffffffffffffffffffffff169063f62df4df906024016020604051808303816000875af1158015613e5d573d6000803e3d6000fd5b505050506040513d601f19601f82011682018060405250810190613e8191906152c4565b6040805160208082018352600082526009549251939450613ec3938a9373ffffffffffffffffffffffffffffffffffffffff16918a91611bfa918991016150de565b9695505050505050565b600b54604080517fe88ca8a1000000000000000000000000000000000000000000000000000000008152600481018690526024810191909152600860448201527f45766572796f6e65000000000000000000000000000000000000000000000000606482015260009173ffffffffffffffffffffffffffffffffffffffff169063e88ca8a1906084016020604051808303816000875af1158015613f75573d6000803e3d6000fd5b505050506040513d601f19601f82011682018060405250810190613f9991906152c4565b905060005b825181101561404c57600b54835173ffffffffffffffffffffffffffffffffffffffff90911690633368c9189087908590879086908110613fe157613fe1614ece565b60200260200101516040518463ffffffff1660e01b815260040161400793929190615868565b600060405180830381600087803b15801561402157600080fd5b505af1158015614035573d6000803e3d6000fd5b50505050808061404490614f94565b915050613f9e565b506040805160208082018352600082526008548351600192810192909252610c2a9387939273ffffffffffffffffffffffffffffffffffffffff90921691869101611bfa565b60008083601f8401126140a457600080fd5b50813567ffffffffffffffff8111156140bc57600080fd5b6020830191508360208285010111156140d457600080fd5b9250929050565b600080600080604085870312156140f157600080fd5b843567ffffffffffffffff8082111561410957600080fd5b61411588838901614092565b9096509450602087013591508082111561412e57600080fd5b5061413b87828801614092565b95989497509550505050565b60005b8381101561416257818101518382015260200161414a565b50506000910152565b60008151808452614183816020860160208601614147565b601f017fffffffffffffffffffffffffffffffffffffffffffffffffffffffffffffffe0169290920160200192915050565b60208152815160208201526000602083015160c060408401526141db60e084018261416b565b90506040840151606084015260608401517fffffffffffffffffffffffffffffffffffffffffffffffffffffffffffffffe0848303016080850152614220828261416b565b91505073ffffffffffffffffffffffffffffffffffffffff60808501511660a084015260a0840151151560c08401528091505092915050565b6000806020838503121561426c57600080fd5b823567ffffffffffffffff81111561428357600080fd5b61428f85828601614092565b90969095509350505050565b6020808252825182820181905260009190848201906040850190845b818110156142e957835173ffffffffffffffffffffffffffffffffffffffff16835292840192918401916001016142b7565b50909695505050505050565b805182526000602082015160e0602085015261431460e085018261416b565b90506040830151604085015260608301518482036060860152614337828261416b565b915050608083015173ffffffffffffffffffffffffffffffffffffffff80821660808701528060a08601511660a0870152505060c0830151151560c08501528091505092915050565b6000602080830181845280855180835260408601915060408160051b870101925083870160005b828110156143f3577fffffffffffffffffffffffffffffffffffffffffffffffffffffffffffffffc08886030184526143e18583516142f5565b945092850192908501906001016143a7565b5092979650505050505050565b73ffffffffffffffffffffffffffffffffffffffff811681146130b957600080fd5b60006020828403121561443457600080fd5b8135610c2a81614400565b602081526000610c2a60208301846142f5565b60006020808301818452808551808352604092508286019150828160051b87010184880160005b83811015614509577fffffffffffffffffffffffffffffffffffffffffffffffffffffffffffffffc08984030185528151606073ffffffffffffffffffffffffffffffffffffffff825116855288820151818a8701526144db8287018261416b565b915050878201519150848103888601526144f5818361416b565b968901969450505090860190600101614479565b509098975050505050505050565b60008060006040848603121561452c57600080fd5b833567ffffffffffffffff81111561454357600080fd5b61454f86828701614092565b909450925050602084013561456381614400565b809150509250925092565b600060208284031215610aee57600080fd5b6000806000806060858703121561459657600080fd5b843567ffffffffffffffff808211156145ae57600080fd5b6145ba88838901614092565b90965094506020870135935060408701359150808211156145da57600080fd5b506145e78782880161456e565b91505092959194509250565b7f4e487b7100000000000000000000000000000000000000000000000000000000600052604160045260246000fd5b6040516060810167ffffffffffffffff81118282101715614645576146456145f3565b60405290565b6040805190810167ffffffffffffffff81118282101715614645576146456145f3565b6040516080810167ffffffffffffffff81118282101715614645576146456145f3565b604051601f82017fffffffffffffffffffffffffffffffffffffffffffffffffffffffffffffffe016810167ffffffffffffffff811182821017156146d8576146d86145f3565b604052919050565b600067ffffffffffffffff8211156146fa576146fa6145f3565b50601f017fffffffffffffffffffffffffffffffffffffffffffffffffffffffffffffffe01660200190565b600082601f83011261473757600080fd5b813561474a614745826146e0565b614691565b81815284602083860101111561475f57600080fd5b816020850160208301376000918101602001919091529392505050565b60006020828403121561478e57600080fd5b813567ffffffffffffffff8111156147a557600080fd5b6147b184828501614726565b949350505050565b6000602080835260608084018551838601528286015160408081880152828251808552608094508489019150848160051b8a0101878501945060005b828110156148a1577fffffffffffffffffffffffffffffffffffffffffffffffffffffffffffffff808b8303018452855160c0815184528a8201518b8501528682015181888601526148498286018261416b565b915050898201518482038b860152614861828261416b565b838b015173ffffffffffffffffffffffffffffffffffffffff16868c015260a09384015115159390950192909252505094880194928801926001016147f5565b509a9950505050505050505050565b80151581146130b957600080fd5b6000806000806000606086880312156148d657600080fd5b853567ffffffffffffffff808211156148ee57600080fd5b6148fa89838a01614092565b9097509550602088013591508082111561491357600080fd5b5061492088828901614092565b9094509250506040860135614934816148b0565b809150509295509295909350565b60006020828403121561495457600080fd5b813567ffffffffffffffff8082111561496c57600080fd5b908301906060828603121561498057600080fd5b614988614622565b82358281111561499757600080fd5b6149a387828601614726565b8252506020830135828111156149b857600080fd5b6149c487828601614726565b6020830152506040830135828111156149dc57600080fd5b6149e887828601614726565b60408301525095945050505050565b600080600060408486031215614a0c57600080fd5b833567ffffffffffffffff811115614a2357600080fd5b614a2f86828701614092565b909790965060209590950135949350505050565b600060208284031215614a5557600080fd5b5035919050565b60208152600082516020808401526147b1604084018261416b565b60008083601f840112614a8957600080fd5b50813567ffffffffffffffff811115614aa157600080fd5b6020830191508360208260051b85010111156140d457600080fd5b600080600080600080600080600060a08a8c031215614ada57600080fd5b893567ffffffffffffffff80821115614af257600080fd5b614afe8d838e01614092565b909b50995060208c0135915080821115614b1757600080fd5b614b238d838e01614092565b909950975060408c01359150614b3882614400565b90955060608b01359080821115614b4e57600080fd5b614b5a8d838e01614a77565b909650945060808c0135915080821115614b7357600080fd5b50614b808c828d01614092565b915080935050809150509295985092959850929598565b60008060008060008060008060a0898b031215614bb357600080fd5b883567ffffffffffffffff80821115614bcb57600080fd5b614bd78c838d01614092565b909a50985060208b0135915080821115614bf057600080fd5b614bfc8c838d01614092565b909850965060408b01359150614c1182614400565b90945060608a0135935060808a01359080821115614c2e57600080fd5b50614c3b8b828c01614092565b999c989b5096995094979396929594505050565b60008060008060008060808789031215614c6857600080fd5b863567ffffffffffffffff80821115614c8057600080fd5b614c8c8a838b01614092565b90985096506020890135915080821115614ca557600080fd5b614cb18a838b01614092565b909650945060408901359150614cc682614400565b90925060608801359080821115614cdc57600080fd5b50614ce989828a0161456e565b9150509295509295509295565b60008060008060608587031215614d0c57600080fd5b843567ffffffffffffffff80821115614d2457600080fd5b9086019060408289031215614d3857600080fd5b90945060208601359080821115614d4e57600080fd5b9086019060808289031215614d6257600080fd5b90935060408601359080821115614d7857600080fd5b5061413b87828801614a77565b60008060008060608587031215614d9b57600080fd5b843567ffffffffffffffff811115614db257600080fd5b614dbe87828801614092565b9095509350506020850135614dd281614400565b91506040850135614de2816148b0565b939692955090935050565b60008060408385031215614e0057600080fd5b823567ffffffffffffffff811115614e1757600080fd5b614e2385828601614726565b9250506020830135614e34816148b0565b809150509250929050565b600181811c90821680614e5357607f821691505b602082108103610aee577f4e487b7100000000000000000000000000000000000000000000000000000000600052602260045260246000fd5b7f4e487b7100000000000000000000000000000000000000000000000000000000600052601160045260246000fd5b8082018082111561085457610854614e8c565b7f4e487b7100000000000000000000000000000000000000000000000000000000600052603260045260246000fd5b600060208284031215614f0f57600080fd5b8151610c2a81614400565b600082601f830112614f2b57600080fd5b8151614f39614745826146e0565b818152846020838601011115614f4e57600080fd5b6147b1826020830160208701614147565b600060208284031215614f7157600080fd5b815167ffffffffffffffff811115614f8857600080fd5b6147b184828501614f1a565b60007fffffffffffffffffffffffffffffffffffffffffffffffffffffffffffffffff8203614fc557614fc5614e8c565b5060010190565b60008083357fffffffffffffffffffffffffffffffffffffffffffffffffffffffffffffffe184360301811261500157600080fd5b830160208101925035905067ffffffffffffffff81111561502157600080fd5b8036038213156140d457600080fd5b8183528181602085013750600060208284010152600060207fffffffffffffffffffffffffffffffffffffffffffffffffffffffffffffffe0601f840116840101905092915050565b6020815260006150898384614fcc565b60208085015261120f604085018284615030565b8381528260208201526060604082015260006150b98384614fcc565b60206060850152612640608085018284615030565b8183823760009101908152919050565b6000602080835260608451604080848701526150fc8387018361416b565b878501518782037fffffffffffffffffffffffffffffffffffffffffffffffffffffffffffffffe00183890152805180835290860193506000918601905b8083101561518d578451805173ffffffffffffffffffffffffffffffffffffffff16835287810151888401528481015115158584015286015186830152938601936001929092019160809091019061513a565b5098975050505050505050565b600082516151ac818460208701614147565b9190910192915050565b6000602082840312156151c857600080fd5b815167ffffffffffffffff808211156151e057600080fd5b90830190602082860312156151f457600080fd5b60405160208101818110838211171561520f5761520f6145f3565b60405282518281111561522157600080fd5b61522d87828601614f1a565b82525095945050505050565b60006020828403121561524b57600080fd5b6040516020810167ffffffffffffffff828210818311171561526f5761526f6145f3565b81604052829350843591508082111561528757600080fd5b5061529485828601614726565b8252505092915050565b60006108543683615239565b83815260406020820152600061120f604083018486615030565b6000602082840312156152d657600080fd5b5051919050565b60008083357fffffffffffffffffffffffffffffffffffffffffffffffffffffffffffffffe184360301811261531257600080fd5b83018035915067ffffffffffffffff82111561532d57600080fd5b6020019150368190038213156140d457600080fd5b600067ffffffffffffffff82111561535c5761535c6145f3565b5060051b60200190565b600061537461474584615342565b80848252602080830192508560051b85013681111561539257600080fd5b855b818110156153ce57803567ffffffffffffffff8111156153b45760008081fd5b6153c036828a01615239565b865250938201938201615394565b50919695505050505050565b60008083357fffffffffffffffffffffffffffffffffffffffffffffffffffffffffffffffe184360301811261540f57600080fd5b83018035915067ffffffffffffffff82111561542a57600080fd5b6020019150600581901b36038213156140d457600080fd5b600082357fffffffffffffffffffffffffffffffffffffffffffffffffffffffffffffffe18336030181126151ac57600080fd5b600082357fffffffffffffffffffffffffffffffffffffffffffffffffffffffffffffffc18336030181126151ac57600080fd5b600060408083360312156154bd57600080fd5b6154c561464b565b833567ffffffffffffffff808211156154dd57600080fd5b6154e936838801614726565b835260209150818601358181111561550057600080fd5b8601905036601f82011261551357600080fd5b803561552161474582615342565b81815260079190911b8201830190838101903683111561554057600080fd5b928401925b828410156155a7576080843603121561555e5760008081fd5b61556661466e565b843561557181614400565b8152848601358682015287850135615588816148b0565b8189015260608581013590820152825260809093019290840190615545565b93850193909352509195945050505050565b60e0815260008851606060e08401526155d661014084018261416b565b905060208a01517fffffffffffffffffffffffffffffffffffffffffffffffffffffffffffffff208085840301610100860152615613838361416b565b925060408c01519150808584030161012086015250615632828261416b565b602085019a909a52505050604081019590955273ffffffffffffffffffffffffffffffffffffffff939093166060850152608084019190915260a083015260c090910152919050565b60808152600061568e608083018761416b565b82810360208401526156a0818761416b565b90508460408401528281036060840152612640818561416b565b6000602082840312156156cc57600080fd5b8151610c2a816148b0565b6080815260006156eb60808301888a615030565b6020838203818501526156ff82888a615030565b8481036040860152865180825282880193509082019060005b8181101561573457845183529383019391830191600101615718565b50508481036060860152615748818761416b565b9b9a5050505050505050505050565b60808152600061576a608083018761416b565b828103602084015261577c818761416b565b905073ffffffffffffffffffffffffffffffffffffffff8516604084015282810360608401528351602082526157b5602083018261416b565b98975050505050505050565b60a0815260006157d18788614fcc565b604060a08501526157e660e085018284615030565b9150506157f66020890189614fcc565b7fffffffffffffffffffffffffffffffffffffffffffffffffffffffffffffff608584030160c086015261582b838284615030565b935050505085602083015273ffffffffffffffffffffffffffffffffffffffff851660408301528360608301528260808301529695505050505050565b838152826020820152606060408201526000825160206060840152613ec3608084018261416b56fea264697066735822122064c458661e7f0bdf3ab74c62221dd38a43ce805b6f4c4b7a3ae74efca23815e764736f6c63430008100033",
    "linkReferences": {
      "contracts/zion-governance/src/spaces/libraries/CreationLogic.sol": {
        "CreationLogic": [
          {
            "start": 13878,
            "length": 20
          },
          {
            "start": 15558,
            "length": 20
          },
          {
            "start": 15869,
            "length": 20
          }
        ]
      }
    }
  },
  "methodIdentifiers": {
    "addPermissionToRole(string,uint256,(string))": "7d9a0230",
    "addRoleToEntitlementModule(string,string,address,uint256,bytes)": "bbd7358a",
    "createChannel((string,string,string))": "79960fe1",
    "createRole(string,string)": "d2192dbf",
    "createSpace((string,string),(string,(string)[],(string,(address,uint256,bool,uint256)[])[],address[]),(string)[])": "d9d94cb7",
    "getChannelIdByNetworkId(string,string)": "3e66eae3",
    "getChannelInfoByChannelId(string,string)": "0db37ba3",
    "getChannelsBySpaceId(string)": "50c24eef",
    "getEntitlementModulesBySpaceId(string)": "141b6498",
    "getEntitlementsInfoBySpaceId(string)": "3519167c",
    "getPermissionFromMap(bytes32)": "9ea4d532",
    "getSpaceIdByNetworkId(string)": "9ddd0d6b",
    "getSpaceInfoBySpaceId(string)": "2bb59212",
    "getSpaceOwnerBySpaceId(string)": "2a4bdf25",
    "getSpaces()": "15478ca9",
    "isEntitled(string,string,address,(string))": "bf77b663",
    "isEntitlementModuleWhitelisted(string,address)": "4196d1ff",
    "owner()": "8da5cb5b",
    "removeEntitlement(string,string,address,uint256[],bytes)": "a3a39cb9",
    "removePermissionFromRole(string,uint256,(string))": "4832a4ec",
    "removeRole(string,uint256)": "8b0e905a",
    "renounceOwnership()": "715018a6",
    "setChannelAccess(string,string,bool)": "72a29321",
    "setDefaultTokenEntitlementModule(address)": "1a039620",
    "setDefaultUserEntitlementModule(address)": "e1b7a9e5",
    "setSpaceAccess(string,bool)": "f86caf83",
    "setSpaceNFT(address)": "ccde2de3",
    "transferOwnership(address)": "f2fde38b",
    "whitelistEntitlementModule(string,address,bool)": "e798ff3f"
  },
  "id": 16
}