{
  "abi": [
    {
      "inputs": [
        {
          "internalType": "address",
          "name": "_permissionRegistry",
          "type": "address"
        },
        {
          "internalType": "address",
          "name": "_roleManager",
          "type": "address"
        }
      ],
      "stateMutability": "nonpayable",
      "type": "constructor"
    },
    {
      "inputs": [],
      "name": "ChannelDoesNotExist",
      "type": "error"
    },
    {
      "inputs": [],
      "name": "DefaultEntitlementModuleNotSet",
      "type": "error"
    },
    {
      "inputs": [],
      "name": "DefaultPermissionsManagerNotSet",
      "type": "error"
    },
    {
      "inputs": [],
      "name": "EntitlementAlreadyWhitelisted",
      "type": "error"
    },
    {
      "inputs": [],
      "name": "EntitlementModuleNotSupported",
      "type": "error"
    },
    {
      "inputs": [],
      "name": "EntitlementNotWhitelisted",
      "type": "error"
    },
    {
      "inputs": [],
      "name": "InvalidParameters",
      "type": "error"
    },
    {
      "inputs": [],
      "name": "NotAllowed",
      "type": "error"
    },
    {
      "inputs": [],
      "name": "RoleDoesNotExist",
      "type": "error"
    },
    {
      "inputs": [],
      "name": "SpaceDoesNotExist",
      "type": "error"
    },
    {
      "inputs": [],
      "name": "SpaceNFTNotSet",
      "type": "error"
    },
    {
      "anonymous": false,
      "inputs": [
        {
          "indexed": true,
          "internalType": "address",
          "name": "previousOwner",
          "type": "address"
        },
        {
          "indexed": true,
          "internalType": "address",
          "name": "newOwner",
          "type": "address"
        }
      ],
      "name": "OwnershipTransferred",
      "type": "event"
    },
    {
      "inputs": [
        {
          "internalType": "string",
          "name": "spaceId",
          "type": "string"
        },
        {
          "internalType": "uint256",
          "name": "roleId",
          "type": "uint256"
        },
        {
          "components": [
            {
              "internalType": "string",
              "name": "name",
              "type": "string"
            }
          ],
          "internalType": "struct DataTypes.Permission",
          "name": "permission",
          "type": "tuple"
        }
      ],
      "name": "addPermissionToRole",
      "outputs": [],
      "stateMutability": "nonpayable",
      "type": "function"
    },
    {
      "inputs": [
        {
          "internalType": "string",
          "name": "spaceNetworkId",
          "type": "string"
        },
        {
          "internalType": "string",
          "name": "channelNetworkId",
          "type": "string"
        },
        {
          "internalType": "address",
          "name": "entitlementModuleAddress",
          "type": "address"
        },
        {
          "internalType": "uint256",
          "name": "roleId",
          "type": "uint256"
        },
        {
          "internalType": "bytes",
          "name": "entitlementData",
          "type": "bytes"
        }
      ],
      "name": "addRoleToEntitlementModule",
      "outputs": [],
      "stateMutability": "nonpayable",
      "type": "function"
    },
    {
      "inputs": [
        {
          "components": [
            {
              "internalType": "string",
              "name": "spaceNetworkId",
              "type": "string"
            },
            {
              "internalType": "string",
              "name": "channelName",
              "type": "string"
            },
            {
              "internalType": "string",
              "name": "channelNetworkId",
              "type": "string"
            }
          ],
          "internalType": "struct DataTypes.CreateChannelData",
          "name": "data",
          "type": "tuple"
        },
        {
          "components": [
            {
              "internalType": "uint256",
              "name": "roleId",
              "type": "uint256"
            },
            {
              "internalType": "address",
              "name": "entitlementModule",
              "type": "address"
            },
            {
              "internalType": "bytes",
              "name": "entitlementData",
              "type": "bytes"
            }
          ],
          "internalType": "struct DataTypes.CreateRoleEntitlementData[]",
          "name": "roles",
          "type": "tuple[]"
        }
      ],
      "name": "createChannel",
      "outputs": [
        {
          "internalType": "uint256",
          "name": "channelId",
          "type": "uint256"
        }
      ],
      "stateMutability": "nonpayable",
      "type": "function"
    },
    {
      "inputs": [
        {
          "internalType": "string",
          "name": "spaceNetworkId",
          "type": "string"
        },
        {
          "internalType": "string",
          "name": "name",
          "type": "string"
        }
      ],
      "name": "createRole",
      "outputs": [
        {
          "internalType": "uint256",
          "name": "roleId",
          "type": "uint256"
        }
      ],
      "stateMutability": "nonpayable",
      "type": "function"
    },
    {
      "inputs": [
        {
          "components": [
            {
              "internalType": "string",
              "name": "spaceName",
              "type": "string"
            },
            {
              "internalType": "string",
              "name": "spaceNetworkId",
              "type": "string"
            }
          ],
          "internalType": "struct DataTypes.CreateSpaceData",
          "name": "info",
          "type": "tuple"
        },
        {
          "components": [
            {
              "internalType": "string",
              "name": "roleName",
              "type": "string"
            },
            {
              "components": [
                {
                  "internalType": "string",
                  "name": "name",
                  "type": "string"
                }
              ],
              "internalType": "struct DataTypes.Permission[]",
              "name": "permissions",
              "type": "tuple[]"
            },
            {
              "components": [
                {
                  "internalType": "string",
                  "name": "tag",
                  "type": "string"
                },
                {
                  "components": [
                    {
                      "internalType": "address",
                      "name": "contractAddress",
                      "type": "address"
                    },
                    {
                      "internalType": "uint256",
                      "name": "quantity",
                      "type": "uint256"
                    },
                    {
                      "internalType": "bool",
                      "name": "isSingleToken",
                      "type": "bool"
                    },
                    {
                      "internalType": "uint256",
                      "name": "tokenId",
                      "type": "uint256"
                    }
                  ],
                  "internalType": "struct DataTypes.ExternalToken[]",
                  "name": "tokens",
                  "type": "tuple[]"
                }
              ],
              "internalType": "struct DataTypes.ExternalTokenEntitlement[]",
              "name": "externalTokenEntitlements",
              "type": "tuple[]"
            },
            {
              "internalType": "address[]",
              "name": "users",
              "type": "address[]"
            }
          ],
          "internalType": "struct DataTypes.CreateSpaceEntitlementData",
          "name": "entitlementData",
          "type": "tuple"
        },
        {
          "components": [
            {
              "internalType": "string",
              "name": "name",
              "type": "string"
            }
          ],
          "internalType": "struct DataTypes.Permission[]",
          "name": "everyonePermissions",
          "type": "tuple[]"
        }
      ],
      "name": "createSpace",
      "outputs": [
        {
          "internalType": "uint256",
          "name": "",
          "type": "uint256"
        }
      ],
      "stateMutability": "nonpayable",
      "type": "function"
    },
    {
      "inputs": [
        {
          "internalType": "string",
          "name": "spaceId",
          "type": "string"
        },
        {
          "internalType": "string",
          "name": "channelId",
          "type": "string"
        }
      ],
      "name": "getChannelIdByNetworkId",
      "outputs": [
        {
          "internalType": "uint256",
          "name": "",
          "type": "uint256"
        }
      ],
      "stateMutability": "view",
      "type": "function"
    },
    {
      "inputs": [
        {
          "internalType": "string",
          "name": "spaceId",
          "type": "string"
        },
        {
          "internalType": "string",
          "name": "channelId",
          "type": "string"
        }
      ],
      "name": "getChannelInfoByChannelId",
      "outputs": [
        {
          "components": [
            {
              "internalType": "uint256",
              "name": "channelId",
              "type": "uint256"
            },
            {
              "internalType": "string",
              "name": "networkId",
              "type": "string"
            },
            {
              "internalType": "uint256",
              "name": "createdAt",
              "type": "uint256"
            },
            {
              "internalType": "string",
              "name": "name",
              "type": "string"
            },
            {
              "internalType": "address",
              "name": "creator",
              "type": "address"
            },
            {
              "internalType": "bool",
              "name": "disabled",
              "type": "bool"
            }
          ],
          "internalType": "struct DataTypes.ChannelInfo",
          "name": "",
          "type": "tuple"
        }
      ],
      "stateMutability": "view",
      "type": "function"
    },
    {
      "inputs": [
        {
          "internalType": "string",
          "name": "spaceId",
          "type": "string"
        }
      ],
      "name": "getChannelsBySpaceId",
      "outputs": [
        {
          "components": [
            {
              "internalType": "uint256",
              "name": "idCounter",
              "type": "uint256"
            },
            {
              "components": [
                {
                  "internalType": "uint256",
                  "name": "channelId",
                  "type": "uint256"
                },
                {
                  "internalType": "uint256",
                  "name": "createdAt",
                  "type": "uint256"
                },
                {
                  "internalType": "string",
                  "name": "networkId",
                  "type": "string"
                },
                {
                  "internalType": "string",
                  "name": "name",
                  "type": "string"
                },
                {
                  "internalType": "address",
                  "name": "creator",
                  "type": "address"
                },
                {
                  "internalType": "bool",
                  "name": "disabled",
                  "type": "bool"
                }
              ],
              "internalType": "struct DataTypes.Channel[]",
              "name": "channels",
              "type": "tuple[]"
            }
          ],
          "internalType": "struct DataTypes.Channels",
          "name": "",
          "type": "tuple"
        }
      ],
      "stateMutability": "view",
      "type": "function"
    },
    {
      "inputs": [
        {
          "internalType": "string",
          "name": "spaceId",
          "type": "string"
        }
      ],
      "name": "getEntitlementModulesBySpaceId",
      "outputs": [
        {
          "internalType": "address[]",
          "name": "",
          "type": "address[]"
        }
      ],
      "stateMutability": "view",
      "type": "function"
    },
    {
      "inputs": [
        {
          "internalType": "string",
          "name": "spaceId",
          "type": "string"
        }
      ],
      "name": "getEntitlementsInfoBySpaceId",
      "outputs": [
        {
          "components": [
            {
              "internalType": "address",
              "name": "addr",
              "type": "address"
            },
            {
              "internalType": "string",
              "name": "name",
              "type": "string"
            },
            {
              "internalType": "string",
              "name": "description",
              "type": "string"
            }
          ],
          "internalType": "struct DataTypes.EntitlementModuleInfo[]",
          "name": "",
          "type": "tuple[]"
        }
      ],
      "stateMutability": "view",
      "type": "function"
    },
    {
      "inputs": [
        {
          "internalType": "bytes32",
          "name": "permissionType",
          "type": "bytes32"
        }
      ],
      "name": "getPermissionFromMap",
      "outputs": [
        {
          "components": [
            {
              "internalType": "string",
              "name": "name",
              "type": "string"
            }
          ],
          "internalType": "struct DataTypes.Permission",
          "name": "",
          "type": "tuple"
        }
      ],
      "stateMutability": "view",
      "type": "function"
    },
    {
      "inputs": [
        {
          "internalType": "string",
          "name": "networkId",
          "type": "string"
        }
      ],
      "name": "getSpaceIdByNetworkId",
      "outputs": [
        {
          "internalType": "uint256",
          "name": "",
          "type": "uint256"
        }
      ],
      "stateMutability": "view",
      "type": "function"
    },
    {
      "inputs": [
        {
          "internalType": "string",
          "name": "spaceId",
          "type": "string"
        }
      ],
      "name": "getSpaceInfoBySpaceId",
      "outputs": [
        {
          "components": [
            {
              "internalType": "uint256",
              "name": "spaceId",
              "type": "uint256"
            },
            {
              "internalType": "string",
              "name": "networkId",
              "type": "string"
            },
            {
              "internalType": "uint256",
              "name": "createdAt",
              "type": "uint256"
            },
            {
              "internalType": "string",
              "name": "name",
              "type": "string"
            },
            {
              "internalType": "address",
              "name": "creator",
              "type": "address"
            },
            {
              "internalType": "address",
              "name": "owner",
              "type": "address"
            },
            {
              "internalType": "bool",
              "name": "disabled",
              "type": "bool"
            }
          ],
          "internalType": "struct DataTypes.SpaceInfo",
          "name": "",
          "type": "tuple"
        }
      ],
      "stateMutability": "view",
      "type": "function"
    },
    {
      "inputs": [
        {
          "internalType": "string",
          "name": "spaceId",
          "type": "string"
        }
      ],
      "name": "getSpaceOwnerBySpaceId",
      "outputs": [
        {
          "internalType": "address",
          "name": "",
          "type": "address"
        }
      ],
      "stateMutability": "view",
      "type": "function"
    },
    {
      "inputs": [],
      "name": "getSpaces",
      "outputs": [
        {
          "components": [
            {
              "internalType": "uint256",
              "name": "spaceId",
              "type": "uint256"
            },
            {
              "internalType": "string",
              "name": "networkId",
              "type": "string"
            },
            {
              "internalType": "uint256",
              "name": "createdAt",
              "type": "uint256"
            },
            {
              "internalType": "string",
              "name": "name",
              "type": "string"
            },
            {
              "internalType": "address",
              "name": "creator",
              "type": "address"
            },
            {
              "internalType": "address",
              "name": "owner",
              "type": "address"
            },
            {
              "internalType": "bool",
              "name": "disabled",
              "type": "bool"
            }
          ],
          "internalType": "struct DataTypes.SpaceInfo[]",
          "name": "",
          "type": "tuple[]"
        }
      ],
      "stateMutability": "view",
      "type": "function"
    },
    {
      "inputs": [
        {
          "internalType": "string",
          "name": "spaceId",
          "type": "string"
        },
        {
          "internalType": "string",
          "name": "channelId",
          "type": "string"
        },
        {
          "internalType": "address",
          "name": "user",
          "type": "address"
        },
        {
          "components": [
            {
              "internalType": "string",
              "name": "name",
              "type": "string"
            }
          ],
          "internalType": "struct DataTypes.Permission",
          "name": "permission",
          "type": "tuple"
        }
      ],
      "name": "isEntitled",
      "outputs": [
        {
          "internalType": "bool",
          "name": "",
          "type": "bool"
        }
      ],
      "stateMutability": "view",
      "type": "function"
    },
    {
      "inputs": [
        {
          "internalType": "string",
          "name": "spaceId",
          "type": "string"
        },
        {
          "internalType": "address",
          "name": "entitlementModuleAddress",
          "type": "address"
        }
      ],
      "name": "isEntitlementModuleWhitelisted",
      "outputs": [
        {
          "internalType": "bool",
          "name": "",
          "type": "bool"
        }
      ],
      "stateMutability": "view",
      "type": "function"
    },
    {
      "inputs": [],
      "name": "owner",
      "outputs": [
        {
          "internalType": "address",
          "name": "",
          "type": "address"
        }
      ],
      "stateMutability": "view",
      "type": "function"
    },
    {
      "inputs": [
        {
          "internalType": "string",
          "name": "spaceNetworkId",
          "type": "string"
        },
        {
          "internalType": "string",
          "name": "channelNetworkId",
          "type": "string"
        },
        {
          "internalType": "address",
          "name": "entitlementModuleAddress",
          "type": "address"
        },
        {
          "internalType": "uint256[]",
          "name": "roleIds",
          "type": "uint256[]"
        },
        {
          "internalType": "bytes",
          "name": "data",
          "type": "bytes"
        }
      ],
      "name": "removeEntitlement",
      "outputs": [],
      "stateMutability": "nonpayable",
      "type": "function"
    },
    {
      "inputs": [
        {
          "internalType": "string",
          "name": "spaceNetworkId",
          "type": "string"
        },
        {
          "internalType": "uint256",
          "name": "roleId",
          "type": "uint256"
        },
        {
          "components": [
            {
              "internalType": "string",
              "name": "name",
              "type": "string"
            }
          ],
          "internalType": "struct DataTypes.Permission",
          "name": "permission",
          "type": "tuple"
        }
      ],
      "name": "removePermissionFromRole",
      "outputs": [],
      "stateMutability": "nonpayable",
      "type": "function"
    },
    {
      "inputs": [
        {
          "internalType": "string",
          "name": "spaceNetworkId",
          "type": "string"
        },
        {
          "internalType": "uint256",
          "name": "roleId",
          "type": "uint256"
        }
      ],
      "name": "removeRole",
      "outputs": [],
      "stateMutability": "nonpayable",
      "type": "function"
    },
    {
      "inputs": [],
      "name": "renounceOwnership",
      "outputs": [],
      "stateMutability": "nonpayable",
      "type": "function"
    },
    {
      "inputs": [
        {
          "internalType": "string",
          "name": "spaceNetworkId",
          "type": "string"
        },
        {
          "internalType": "string",
          "name": "channelNetworkId",
          "type": "string"
        },
        {
          "internalType": "bool",
          "name": "disabled",
          "type": "bool"
        }
      ],
      "name": "setChannelAccess",
      "outputs": [],
      "stateMutability": "nonpayable",
      "type": "function"
    },
    {
      "inputs": [
        {
          "internalType": "address",
          "name": "entitlementModule",
          "type": "address"
        }
      ],
      "name": "setDefaultTokenEntitlementModule",
      "outputs": [],
      "stateMutability": "nonpayable",
      "type": "function"
    },
    {
      "inputs": [
        {
          "internalType": "address",
          "name": "entitlementModule",
          "type": "address"
        }
      ],
      "name": "setDefaultUserEntitlementModule",
      "outputs": [],
      "stateMutability": "nonpayable",
      "type": "function"
    },
    {
      "inputs": [
        {
          "internalType": "string",
          "name": "spaceNetworkId",
          "type": "string"
        },
        {
          "internalType": "bool",
          "name": "disabled",
          "type": "bool"
        }
      ],
      "name": "setSpaceAccess",
      "outputs": [],
      "stateMutability": "nonpayable",
      "type": "function"
    },
    {
      "inputs": [
        {
          "internalType": "address",
          "name": "spaceNFTAddress",
          "type": "address"
        }
      ],
      "name": "setSpaceNFT",
      "outputs": [],
      "stateMutability": "nonpayable",
      "type": "function"
    },
    {
      "inputs": [
        {
          "internalType": "address",
          "name": "newOwner",
          "type": "address"
        }
      ],
      "name": "transferOwnership",
      "outputs": [],
      "stateMutability": "nonpayable",
      "type": "function"
    },
    {
      "inputs": [
        {
          "internalType": "string",
          "name": "spaceNetworkId",
          "type": "string"
        },
        {
          "internalType": "address",
          "name": "entitlementAddress",
          "type": "address"
        },
        {
          "internalType": "bool",
          "name": "whitelist",
          "type": "bool"
        }
      ],
      "name": "whitelistEntitlementModule",
      "outputs": [],
      "stateMutability": "nonpayable",
      "type": "function"
    }
  ],
  "bytecode": {
    "object": "0x60c06040523480156200001157600080fd5b5060405162005c7738038062005c77833981016040819052620000349162000129565b6200003f33620000bc565b6001600160a01b0382166200006757604051630e52390960e41b815260040160405180910390fd5b6001600160a01b0381166200008f57604051630e52390960e41b815260040160405180910390fd5b6001600160a01b0391821660a052166080819052600b80546001600160a01b031916909117905562000161565b600080546001600160a01b038381166001600160a01b0319831681178455604051919092169283917f8be0079c531659141344cd1fd0a4f28419497f9722a3daafe3b4186f6b6457e09190a35050565b80516001600160a01b03811681146200012457600080fd5b919050565b600080604083850312156200013d57600080fd5b62000148836200010c565b915062000158602084016200010c565b90509250929050565b60805160a051615aec6200018b60003960008181611d040152613a17015260005050615aec6000f3fe608060405234801561001057600080fd5b50600436106101cf5760003560e01c80638b0e905a11610104578063ccde2de3116100a2578063e69689af11610071578063e69689af1461044d578063e798ff3f14610460578063f2fde38b14610473578063f86caf831461048657600080fd5b8063ccde2de314610401578063d2192dbf14610414578063d9d94cb714610427578063e1b7a9e51461043a57600080fd5b80639ea4d532116100de5780639ea4d532146103a8578063a3a39cb9146103c8578063bbd7358a146103db578063bf77b663146103ee57600080fd5b80638b0e905a146103645780638da5cb5b146103775780639ddd0d6b1461039557600080fd5b80633e66eae31161017157806350c24eef1161014b57806350c24eef14610316578063715018a61461033657806372a293211461033e5780637d9a02301461035157600080fd5b80633e66eae3146102bf5780634196d1ff146102e05780634832a4ec1461030357600080fd5b80631a039620116101ad5780631a039620146102325780632a4bdf25146102475780632bb592121461027f5780633519167c1461029f57600080fd5b80630db37ba3146101d4578063141b6498146101fd57806315478ca91461021d575b600080fd5b6101e76101e23660046141f9565b610499565b6040516101f491906142d3565b60405180910390f35b61021061020b366004614377565b610797565b6040516101f491906143b9565b61022561085c565b6040516101f4919061449e565b610245610240366004614540565b610af6565b005b61025a610255366004614377565b610b6d565b60405173ffffffffffffffffffffffffffffffffffffffff90911681526020016101f4565b61029261028d366004614377565b610c33565b6040516101f4919061455d565b6102b26102ad366004614377565b610ebc565b6040516101f49190614570565b6102d26102cd3660046141f9565b61119c565b6040519081526020016101f4565b6102f36102ee366004614635565b61121a565b60405190151581526020016101f4565b61024561031136600461469e565b6112a2565b6103296103243660046148a2565b61143c565b6040516101f491906148d7565b610245611681565b61024561034c3660046149dc565b611695565b61024561035f36600461469e565b611976565b610245610372366004614a60565b611a4e565b60005473ffffffffffffffffffffffffffffffffffffffff1661025a565b6102d26103a3366004614377565b611c72565b6103bb6103b6366004614aac565b611cb3565b6040516101f49190614ac5565b6102456103d6366004614b25565b611d91565b6102456103e9366004614c00565b611fbe565b6102f36103fc366004614cb8565b612220565b61024561040f366004614540565b6122ac565b6102d26104223660046141f9565b612323565b6102d2610435366004614d5f565b6124e2565b610245610448366004614540565b612ad5565b6102d261045b366004614f2a565b612b4c565b61024561046e366004615004565b612f2b565b610245610481366004614540565b61304c565b61024561049436600461506c565b613108565b6104ea6040518060c0016040528060008152602001606081526020016000815260200160608152602001600073ffffffffffffffffffffffffffffffffffffffff1681526020016000151581525090565b600061052b86868080601f01602080910402602001604051908101604052809392919081815260200183838082843760009201919091525061323792505050565b905060006105a287878080601f01602080910402602001604051908101604052809392919081815260200183838082843760009201919091525050604080516020601f8b01819004810282018101909252898152925089915088908190840183828082843760009201919091525061325192505050565b6040805160c081018252600085815260046020908152838220858352808252938220805484529185905292835260020180549394509092918301916105e6906150be565b80601f0160208091040260200160405190810160405280929190818152602001828054610612906150be565b801561065f5780601f106106345761010080835404028352916020019161065f565b820191906000526020600020905b81548152906001019060200180831161064257829003601f168201915b5050509183525050600084815260046020908152604080832086845280835281842060018101548487015293879052909152600390910180549190920191906106a7906150be565b80601f01602080910402602001604051908101604052809291908181526020018280546106d3906150be565b80156107205780601f106106f557610100808354040283529160200191610720565b820191906000526020600020905b81548152906001019060200180831161070357829003601f168201915b505050918352505060009384526004602081815260408087208688528083528188209093015473ffffffffffffffffffffffffffffffffffffffff81168386015295909652527401000000000000000000000000000000000000000090920460ff161515929091019190915290505b949350505050565b6060600560006107dc85858080601f01602080910402602001604051908101604052809392919081815260200183838082843760009201919091525061323792505050565b815260200190815260200160002060090180548060200260200160405190810160405280929190818152602001828054801561084e57602002820191906000526020600020905b815473ffffffffffffffffffffffffffffffffffffffff168152600190910190602001808311610823575b505050505090505b92915050565b6060600060015467ffffffffffffffff81111561087b5761087b614711565b60405190808252806020026020018201604052801561091a57816020015b6109076040518060e0016040528060008152602001606081526020016000815260200160608152602001600073ffffffffffffffffffffffffffffffffffffffff168152602001600073ffffffffffffffffffffffffffffffffffffffff1681526020016000151581525090565b8152602001906001900390816108995790505b50905060005b600154811015610af057600060058161093a84600161513a565b815260200190815260200160002090506040518060e001604052808260000154815260200182600201805461096e906150be565b80601f016020809104026020016040519081016040528092919081815260200182805461099a906150be565b80156109e75780601f106109bc576101008083540402835291602001916109e7565b820191906000526020600020905b8154815290600101906020018083116109ca57829003601f168201915b5050505050815260200182600101548152602001826003018054610a0a906150be565b80601f0160208091040260200160405190810160405280929190818152602001828054610a36906150be565b8015610a835780601f10610a5857610100808354040283529160200191610a83565b820191906000526020600020905b815481529060010190602001808311610a6657829003601f168201915b5050509183525050600483015473ffffffffffffffffffffffffffffffffffffffff90811660208301526005840154166040820152600783015460ff1615156060909101528351849084908110610adc57610adc61514d565b602090810291909101015250600101610920565b50919050565b610afe6132a4565b600980547fffffffffffffffffffffffff00000000000000000000000000000000000000001673ffffffffffffffffffffffffffffffffffffffff83169081179091556040517f07b136952c7460e1fc2d593fad96b5b379f28cc13a49857b6a825c5228c1a8d190600090a250565b600a54604080516020601f850181900481028201810190925283815260009273ffffffffffffffffffffffffffffffffffffffff169163cc3f8dc891610bcd91879087908190840183828082843760009201919091525061323792505050565b6040518263ffffffff1660e01b8152600401610beb91815260200190565b602060405180830381865afa158015610c08573d6000803e3d6000fd5b505050506040513d601f19601f82011682018060405250810190610c2c919061517c565b9392505050565b610ca16040518060e0016040528060008152602001606081526020016000815260200160608152602001600073ffffffffffffffffffffffffffffffffffffffff168152602001600073ffffffffffffffffffffffffffffffffffffffff1681526020016000151581525090565b6000610ce284848080601f01602080910402602001604051908101604052809392919081815260200183838082843760009201919091525061323792505050565b6040805160e081018252600083815260056020818152938220805484529185905283526002018054939450909291830191610d1c906150be565b80601f0160208091040260200160405190810160405280929190818152602001828054610d48906150be565b8015610d955780601f10610d6a57610100808354040283529160200191610d95565b820191906000526020600020905b815481529060010190602001808311610d7857829003601f168201915b5050505050815260200160056000848152602001908152602001600020600101548152602001600560008481526020019081526020016000206003018054610ddc906150be565b80601f0160208091040260200160405190810160405280929190818152602001828054610e08906150be565b8015610e555780601f10610e2a57610100808354040283529160200191610e55565b820191906000526020600020905b815481529060010190602001808311610e3857829003601f168201915b50505091835250506000838152600560208181526040808420600481015473ffffffffffffffffffffffffffffffffffffffff9081168488015281850154169186019190915295909252905260079092015460ff1615156060909201919091529392505050565b60606000610eff84848080601f01602080910402602001604051908101604052809392919081815260200183838082843760009201919091525061323792505050565b6000818152600560205260408120600901549192509067ffffffffffffffff811115610f2d57610f2d614711565b604051908082528060200260200182016040528015610f9857816020015b610f856040518060600160405280600073ffffffffffffffffffffffffffffffffffffffff16815260200160608152602001606081525090565b815260200190600190039081610f4b5790505b506000838152600560205260408120600901549192505b81811015611191576000848152600560205260408120600901805483908110610fda57610fda61514d565b60009182526020909120015473ffffffffffffffffffffffffffffffffffffffff16905080611009575061117f565b600060405180606001604052808373ffffffffffffffffffffffffffffffffffffffff1681526020018373ffffffffffffffffffffffffffffffffffffffff166306fdde036040518163ffffffff1660e01b8152600401600060405180830381865afa15801561107d573d6000803e3d6000fd5b505050506040513d6000823e601f3d9081017fffffffffffffffffffffffffffffffffffffffffffffffffffffffffffffffe01682016040526110c391908101906151de565b81526020018373ffffffffffffffffffffffffffffffffffffffff16637284e4166040518163ffffffff1660e01b8152600401600060405180830381865afa158015611113573d6000803e3d6000fd5b505050506040513d6000823e601f3d9081017fffffffffffffffffffffffffffffffffffffffffffffffffffffffffffffffe016820160405261115991908101906151de565b8152509050808584815181106111715761117161514d565b602002602001018190525050505b8061118981615213565b915050610faf565b509095945050505050565b600061121185858080601f01602080910402602001604051908101604052809392919081815260200183838082843760009201919091525050604080516020601f8901819004810282018101909252878152925087915086908190840183828082843760009201919091525061325192505050565b95945050505050565b60006005600061125f86868080601f01602080910402602001604051908101604052809392919081815260200183838082843760009201919091525061323792505050565b81526020808201929092526040908101600090812073ffffffffffffffffffffffffffffffffffffffff8616825260080190925290205460ff1690509392505050565b61131184848080601f0160208091040260200160405190810160405280939291908181526020018383808284376000920182905250604080516020810190915290815292507f75be26f315524d8937b28469fe5b4df7e59aebca1fcbbbe5669005e1491b131b91506133259050565b61131a81613375565b600b54604080516020601f870181900481028201810190925285815273ffffffffffffffffffffffffffffffffffffffff9092169163db474ecb9161137a9190889088908190840183828082843760009201919091525061323792505050565b84846040518463ffffffff1660e01b815260040161139a939291906152f8565b600060405180830381600087803b1580156113b457600080fd5b505af11580156113c8573d6000803e3d6000fd5b505050508184846040516113dd929190615329565b60405180910390207fb72e43fbdf2abeb3bfe59e783bcca829d13e9fcde1eac425751faabea6c134c961140d3390565b60405173ffffffffffffffffffffffffffffffffffffffff90911681526020015b60405180910390a350505050565b6040805180820190915260008152606060208201526006600061147384805160209182012060009081526002909152604090205490565b81526020019081526020016000206040518060400160405290816000820154815260200160018201805480602002602001604051908101604052809291908181526020016000905b8282101561167357838290600052602060002090600502016040518060c00160405290816000820154815260200160018201548152602001600282018054611502906150be565b80601f016020809104026020016040519081016040528092919081815260200182805461152e906150be565b801561157b5780601f106115505761010080835404028352916020019161157b565b820191906000526020600020905b81548152906001019060200180831161155e57829003601f168201915b50505050508152602001600382018054611594906150be565b80601f01602080910402602001604051908101604052809291908181526020018280546115c0906150be565b801561160d5780601f106115e25761010080835404028352916020019161160d565b820191906000526020600020905b8154815290600101906020018083116115f057829003601f168201915b50505091835250506004919091015473ffffffffffffffffffffffffffffffffffffffff81166020808401919091527401000000000000000000000000000000000000000090910460ff16151560409092019190915290825260019290920191016114bb565b505050915250909392505050565b6116896132a4565b6116936000613422565b565b61172a85858080601f01602080910402602001604051908101604052809392919081815260200183838082843760009201919091525050604080516020601f890181900481028201810190925287815292508791508690819084018382808284376000920191909152507f71e770fed024e50450e0cb5318c1a012e92ab6439dfbe6c071800b700ce55c0a9250613325915050565b61176985858080601f01602080910402602001604051908101604052809392919081815260200183838082843760009201919091525061349792505050565b6117dc85858080601f01602080910402602001604051908101604052809392919081815260200183838082843760009201919091525050604080516020601f8901819004810282018101909252878152925087915086908190840183828082843760009201919091525061354392505050565b600061181d86868080601f01602080910402602001604051908101604052809392919081815260200183838082843760009201919091525061323792505050565b9050600061189487878080601f01602080910402602001604051908101604052809392919081815260200183838082843760009201919091525050604080516020601f8b01819004810282018101909252898152925089915088908190840183828082843760009201919091525061325192505050565b60008381526004602081815260408084208585529091529091200180547fffffffffffffffffffffff00ffffffffffffffffffffffffffffffffffffffff16740100000000000000000000000000000000000000008615150217905590503373ffffffffffffffffffffffffffffffffffffffff168585604051611919929190615329565b60405180910390208888604051611931929190615329565b6040519081900381208615158252907fcba51876aa74b247950c251d3459c41aaebd8b10717beadb480ca1a105166ab59060200160405180910390a450505050505050565b6119e584848080601f0160208091040260200160405190810160405280939291908181526020018383808284376000920182905250604080516020810190915290815292507f75be26f315524d8937b28469fe5b4df7e59aebca1fcbbbe5669005e1491b131b91506133259050565b6119ee81613375565b600b54604080516020601f870181900481028201810190925285815273ffffffffffffffffffffffffffffffffffffffff90921691633368c9189161137a9190889088908190840183828082843760009201919091525061323792505050565b611abd83838080601f0160208091040260200160405190810160405280939291908181526020018383808284376000920182905250604080516020810190915290815292507f75be26f315524d8937b28469fe5b4df7e59aebca1fcbbbe5669005e1491b131b91506133259050565b60056000611b0085858080601f01602080910402602001604051908101604052809392919081815260200183838082843760009201919091525061323792505050565b8152602001908152602001600020600601548103611b4a576040517fe523909000000000000000000000000000000000000000000000000000000000815260040160405180910390fd5b600b54604080516020601f860181900481028201810190925284815273ffffffffffffffffffffffffffffffffffffffff9092169163cdb0ba5091611baa9190879087908190840183828082843760009201919091525061323792505050565b836040518363ffffffff1660e01b8152600401611bd1929190918252602082015260400190565b600060405180830381600087803b158015611beb57600080fd5b505af1158015611bff573d6000803e3d6000fd5b50505050808383604051611c14929190615329565b60405180910390207f7bb07acd566d038f77cba9c39e7536f74ea2c4ee382024d1b428d7f0680dbc02611c443390565b60405173ffffffffffffffffffffffffffffffffffffffff90911681526020015b60405180910390a3505050565b6000610c2c83838080601f01602080910402602001604051908101604052809392919081815260200183838082843760009201919091525061323792505050565b604080516020810182526060815290517f173c4a630000000000000000000000000000000000000000000000000000000081526004810183905273ffffffffffffffffffffffffffffffffffffffff7f0000000000000000000000000000000000000000000000000000000000000000169063173c4a6390602401600060405180830381865afa158015611d4b573d6000803e3d6000fd5b505050506040513d6000823e601f3d9081017fffffffffffffffffffffffffffffffffffffffffffffffffffffffffffffffe01682016040526108569190810190615339565b611dd089898080601f01602080910402602001604051908101604052809392919081815260200183838082843760009201919091525061349792505050565b611e6589898080601f01602080910402602001604051908101604052809392919081815260200183838082843760009201919091525050604080516020601f8d018190048102820181019092528b815292508b91508a90819084018382808284376000920191909152507f71e770fed024e50450e0cb5318c1a012e92ab6439dfbe6c071800b700ce55c0a9250613325915050565b8515611ede57611ede89898080601f01602080910402602001604051908101604052809392919081815260200183838082843760009201919091525050604080516020601f8d018190048102820181019092528b815292508b91508a908190840183828082843760009201919091525061354392505050565b611ee78561358b565b611f5c898989898989898080602002602001604051908101604052809392919081815260200183836020028082843760009201919091525050604080516020601f8d018190048102820181019092528b815292508b91508a908190840183828082843760009201919091525061367492505050565b8473ffffffffffffffffffffffffffffffffffffffff168989604051611f83929190615329565b604051908190038120907f9b42a541e0a10f6a80059e1448b92d56a4e71354d43a2ca1fd3701878cb50ae290600090a3505050505050505050565b611ffd88888080601f01602080910402602001604051908101604052809392919081815260200183838082843760009201919091525061349792505050565b61209288888080601f01602080910402602001604051908101604052809392919081815260200183838082843760009201919091525050604080516020601f8c018190048102820181019092528a815292508a91508990819084018382808284376000920191909152507f71e770fed024e50450e0cb5318c1a012e92ab6439dfbe6c071800b700ce55c0a9250613325915050565b841561210b5761210b88888080601f01602080910402602001604051908101604052809392919081815260200183838082843760009201919091525050604080516020601f8c018190048102820181019092528a815292508a915089908190840183828082843760009201919091525061354392505050565b6121148461358b565b6121bf88888080601f01602080910402602001604051908101604052809392919081815260200183838082843760009201919091525050604080516020601f8c018190048102820181019092528a815292508a915089908190840183828082843760009201919091525050604080516020601f89018190048102820181019092528781528a93508992509088908890819084018382808284376000920191909152506137a892505050565b8373ffffffffffffffffffffffffffffffffffffffff1688886040516121e6929190615329565b604051908190038120907fe78ad18845af93a80fbe8718cacc631fbe1c453b092806818a044440b96ba67790600090a35050505050505050565b60006122a187878080601f01602080910402602001604051908101604052809392919081815260200183838082843760009201919091525050604080516020601f8b01819004810282018101909252898152925089915088908190840183828082843760009201919091525088925061229c91508790506153bc565b6138b9565b979650505050505050565b6122b46132a4565b600a80547fffffffffffffffffffffffff00000000000000000000000000000000000000001673ffffffffffffffffffffffffffffffffffffffff83169081179091556040517f68e3ca42e475f54d65227ed8cb60daf9cec4546691052783063876ad972db71190600090a250565b600061239485858080601f0160208091040260200160405190810160405280939291908181526020018383808284376000920182905250604080516020810190915290815292507f75be26f315524d8937b28469fe5b4df7e59aebca1fcbbbe5669005e1491b131b91506133259050565b600b54604080516020601f880181900481028201810190925286815273ffffffffffffffffffffffffffffffffffffffff9092169163e88ca8a1916123f49190899089908190840183828082843760009201919091525061323792505050565b85856040518463ffffffff1660e01b81526004016124149392919061541d565b6020604051808303816000875af1158015612433573d6000803e3d6000fd5b505050506040513d601f19601f820116820180604052508101906124579190615437565b90508282604051612469929190615329565b6040518091039020818686604051612482929190615329565b60405180910390207fc06cee439d340740b1e427558729eb0fcc080aa2ab6d0bcfb30b6618234f460a6124b23390565b60405173ffffffffffffffffffffffffffffffffffffffff909116815260200160405180910390a4949350505050565b60006124ec613a15565b60006124f786613b6f565b600a5490915073ffffffffffffffffffffffffffffffffffffffff1663b4b715c482336040517fffffffff0000000000000000000000000000000000000000000000000000000060e085901b168152600481019290925273ffffffffffffffffffffffffffffffffffffffff166024820152604401600060405180830381600087803b15801561258657600080fd5b505af115801561259a573d6000803e3d6000fd5b50506008546125c4925083915073ffffffffffffffffffffffffffffffffffffffff166001613c08565b6009546125ea90829073ffffffffffffffffffffffffffffffffffffffff166001613c08565b6000612637826125fd60208a018a615450565b8080601f016020809104026020016040519081016040528093929190818152602001838380828437600092019190915250613d2a92505050565b60008381526005602090815260409091206006018290559091506126a1908390612663908a018a615450565b8080601f0160208091040260200160405190810160405280939291908181526020018383808284376000920191909152508a9250899150613f339050565b5060006126b160208801886154b5565b9150508015612a7d57600b5460009073ffffffffffffffffffffffffffffffffffffffff1663e88ca8a1856126e68b80615450565b6040518463ffffffff1660e01b81526004016127049392919061541d565b6020604051808303816000875af1158015612723573d6000803e3d6000fd5b505050506040513d601f19601f820116820180604052508101906127479190615437565b905060005b828110156127fe57600b5473ffffffffffffffffffffffffffffffffffffffff16633368c918868461278160208e018e6154b5565b868181106127915761279161514d565b90506020028101906127a3919061551d565b6040518463ffffffff1660e01b81526004016127c1939291906152f8565b600060405180830381600087803b1580156127db57600080fd5b505af11580156127ef573d6000803e3d6000fd5b5050505080600101905061274c565b50600061280e60408a018a6154b5565b905011156129795760005b61282660408a018a6154b5565b905081101561297757600061283e60408b018b6154b5565b8381811061284e5761284e61514d565b9050602002810190612860919061555b565b6128699061558f565b905061287860408b018b6154b5565b838181106128885761288861514d565b905060200281019061289a919061555b565b6128a49080615450565b8080601f01602080910402602001604051908101604052809392919081815260200183838082843760009201919091525050509082525061296e6128eb60208d018d615450565b8080601f01602080910402602001604051908101604052809392919081815260200183838082843760009201829052506040805160208082018352928152600954915190955073ffffffffffffffffffffffffffffffffffffffff909116935089925061295a9188910161569e565b6040516020818303038152906040526137a8565b50600101612819565b505b600061298860608a018a6154b5565b90501115612a7b5760005b6129a060608a018a6154b5565b9050811015612a7957612a716129b960208c018c615450565b8080601f0160208091040260200160405190810160405280939291908181526020018383808284376000920182905250604080516020810190915290815260085490935073ffffffffffffffffffffffffffffffffffffffff169150869050612a2560608f018f6154b5565b87818110612a3557612a3561514d565b9050602002016020810190612a4a9190614540565b6040805173ffffffffffffffffffffffffffffffffffffffff90921660208301520161295a565b600101612993565b505b505b33612a8b60208a018a615450565b604051612a99929190615329565b604051908190038120907ff53000b1113bed1ef6bf6b948fa1fe2c66a643b317a45c5d52a1537050b2dad290600090a350909695505050505050565b612add6132a4565b600880547fffffffffffffffffffffffff00000000000000000000000000000000000000001673ffffffffffffffffffffffffffffffffffffffff83169081179091556040517f07b136952c7460e1fc2d593fad96b5b379f28cc13a49857b6a825c5228c1a8d190600090a250565b6000612b8c8360000151604051806020016040528060008152507f5ef98f1e5b8bd5ee1978908b3f5b2128d59a65f7702f04e6aca3c95aff590be1613325565b8251612b9790613497565b82518051602091820120600090815260029091526040902054612bba818561411d565b60408051600180825281830190925291935060009190816020015b6040805160808101825260008082526020808301829052928201819052606082015282527fffffffffffffffffffffffffffffffffffffffffffffffffffffffffffffffff909201910181612bd557505060408051608080820183526000808352602080840182905283850182905260609384019190915283519182018452600a5473ffffffffffffffffffffffffffffffffffffffff168252600190820181905292810192909252810184905290915081600081518110612c9957612c9961514d565b6020908102919091018101919091526040805160808101825260148183019081527f5370616365204f776e6572204e46542047617465000000000000000000000000606083015281528083018490528751888301516009546000888152600587528590206006015494519395612d32959394929373ffffffffffffffffffffffffffffffffffffffff9092169261295a9188910161569e565b845115612ec85760005b8551811015612ec657600b54865160009173ffffffffffffffffffffffffffffffffffffffff169063d9af4ecf9087908a9086908110612d7e57612d7e61514d565b6020026020010151600001516040518363ffffffff1660e01b8152600401612db0929190918252602082015260400190565b600060405180830381865afa158015612dcd573d6000803e3d6000fd5b505050506040513d6000823e601f3d9081017fffffffffffffffffffffffffffffffffffffffffffffffffffffffffffffffe0168201604052612e13919081019061575a565b8051909150600003612e51576040517fb810dc5d00000000000000000000000000000000000000000000000000000000815260040160405180910390fd5b612ebd88600001518960400151898581518110612e7057612e7061514d565b6020026020010151602001518a8681518110612e8e57612e8e61514d565b6020026020010151600001518b8781518110612eac57612eac61514d565b6020026020010151604001516137a8565b50600101612d3c565b505b60408087015190513391612edb916157d1565b60405190819003812088519091612ef291906157d1565b604051908190038120907ff22ca4e1529bca70f91b82d259651796b8973cec866e55ad258c1f6d56ea71d390600090a450505092915050565b612f348261358b565b612fa384848080601f0160208091040260200160405190810160405280939291908181526020018383808284376000920182905250604080516020810190915290815292507f75be26f315524d8937b28469fe5b4df7e59aebca1fcbbbe5669005e1491b131b91506133259050565b612fec612fe585858080601f01602080910402602001604051908101604052809392919081815260200183838082843760009201919091525061323792505050565b8383613c08565b8173ffffffffffffffffffffffffffffffffffffffff168484604051613013929190615329565b6040519081900381208315158252907f558bdc63bfb8cb1188bc6f559a22d16b8e64dccf7af1d84c90bcf2b7feb1e0099060200161142e565b6130546132a4565b73ffffffffffffffffffffffffffffffffffffffff81166130fc576040517f08c379a000000000000000000000000000000000000000000000000000000000815260206004820152602660248201527f4f776e61626c653a206e6577206f776e657220697320746865207a65726f206160448201527f646472657373000000000000000000000000000000000000000000000000000060648201526084015b60405180910390fd5b61310581613422565b50565b61314282604051806020016040528060008152507f75be26f315524d8937b28469fe5b4df7e59aebca1fcbbbe5669005e1491b131b613325565b600061316283805160209182012060009081526002909152604090205490565b90508060000361319e576040517fbe34080700000000000000000000000000000000000000000000000000000000815260040160405180910390fd5b600081815260056020526040902060070180547fffffffffffffffffffffffffffffffffffffffffffffffffffffffffffffff00168315151790553373ffffffffffffffffffffffffffffffffffffffff16836040516131fe91906157d1565b6040519081900381208415158252907fb52a77d1c8e7ecf705bef894088b2c74fb373648434090edc15688f5c80a868790602001611c65565b805160209182012060009081526002909152604090205490565b60006003600061327585805160209182012060009081526002909152604090205490565b815260200190815260200160002060008380519060200120815260200190815260200160002054905092915050565b60005473ffffffffffffffffffffffffffffffffffffffff163314611693576040517f08c379a000000000000000000000000000000000000000000000000000000000815260206004820181905260248201527f4f776e61626c653a2063616c6c6572206973206e6f7420746865206f776e657260448201526064016130f3565b61333483833361229c85611cb3565b1561333e57505050565b6040517f3d693ada00000000000000000000000000000000000000000000000000000000815260040160405180910390fd5b505050565b61339e7f929f3fd6848015f83b9210c89f7744e3941acae1195c8bf9f5798c090dc8f497611cb3565b6040516020016133ae9190614ac5565b60405160208183030381529060405280519060200120816040516020016133d591906157e3565b6040516020818303038152906040528051906020012003613105576040517fe523909000000000000000000000000000000000000000000000000000000000815260040160405180910390fd5b6000805473ffffffffffffffffffffffffffffffffffffffff8381167fffffffffffffffffffffffff0000000000000000000000000000000000000000831681178455604051919092169283917f8be0079c531659141344cd1fd0a4f28419497f9722a3daafe3b4186f6b6457e09190a35050565b60006134b782805160209182012060009081526002909152604090205490565b9050806000036134f3576040517fbe34080700000000000000000000000000000000000000000000000000000000815260040160405180910390fd5b60008181526005602052604090206007015460ff161561353f576040517fbe34080700000000000000000000000000000000000000000000000000000000815260040160405180910390fd5b5050565b600061354f8383613251565b905080600003613370576040517f6ddd9da900000000000000000000000000000000000000000000000000000000815260040160405180910390fd5b6040517f01ffc9a70000000000000000000000000000000000000000000000000000000081527fa4bfe65900000000000000000000000000000000000000000000000000000000600482015273ffffffffffffffffffffffffffffffffffffffff8216906301ffc9a790602401602060405180830381865afa158015613615573d6000803e3d6000fd5b505050506040513d601f19601f820116820180604052508101906136399190615807565b1515600003613105576040517fdb24a1e200000000000000000000000000000000000000000000000000000000815260040160405180910390fd5b600060026000898960405161368a929190615329565b604080519182900390912082526020808301939093529081016000908120548082526005845282822073ffffffffffffffffffffffffffffffffffffffff89168352600801909352205490915060ff16613710576040517fc1ef36f300000000000000000000000000000000000000000000000000000000815260040160405180910390fd5b6040517f257f5ea900000000000000000000000000000000000000000000000000000000815273ffffffffffffffffffffffffffffffffffffffff85169063257f5ea99061376c908b908b908b908b908a908a90600401615824565b600060405180830381600087803b15801561378657600080fd5b505af115801561379a573d6000803e3d6000fd5b505050505050505050505050565b84516020808701919091206000908152600282526040808220548083526005845281832073ffffffffffffffffffffffffffffffffffffffff8816845260080190935290205460ff16613827576040517fc1ef36f300000000000000000000000000000000000000000000000000000000815260040160405180910390fd5b6040517fc800fec400000000000000000000000000000000000000000000000000000000815273ffffffffffffffffffffffffffffffffffffffff85169063c800fec49061387f9089908990889088906004016158a4565b600060405180830381600087803b15801561389957600080fd5b505af11580156138ad573d6000803e3d6000fd5b50505050505050505050565b6000806138da86805160209182012060009081526002909152604090205490565b600081815260056020526040812060090154909350909150825b81811015613a0a57600083815260056020526040812060090180548390811061391f5761391f61514d565b60009182526020909120015473ffffffffffffffffffffffffffffffffffffffff1690508061394e57506139f8565b6040517fbf77b66300000000000000000000000000000000000000000000000000000000815273ffffffffffffffffffffffffffffffffffffffff82169063bf77b663906139a6908c908c908c908c906004016158e3565b602060405180830381865afa1580156139c3573d6000803e3d6000fd5b505050506040513d601f19601f820116820180604052508101906139e79190615807565b156139f6576001945050613a0a565b505b80613a0281615213565b9150506138f4565b505050949350505050565b7f000000000000000000000000000000000000000000000000000000000000000073ffffffffffffffffffffffffffffffffffffffff16613a82576040517f361882e300000000000000000000000000000000000000000000000000000000815260040160405180910390fd5b60085473ffffffffffffffffffffffffffffffffffffffff16613ad1576040517f2ab51add00000000000000000000000000000000000000000000000000000000815260040160405180910390fd5b60095473ffffffffffffffffffffffffffffffffffffffff16613b20576040517f2ab51add00000000000000000000000000000000000000000000000000000000815260040160405180910390fd5b600a5473ffffffffffffffffffffffffffffffffffffffff16611693576040517f345d02c000000000000000000000000000000000000000000000000000000000815260040160405180910390fd5b600180548101908190556040517faa424abb00000000000000000000000000000000000000000000000000000000815273__$a3850c79b56376fa7983472f601544d59e$__9063aa424abb90613bd39085908590339060029060059060040161594d565b60006040518083038186803b158015613beb57600080fd5b505af4158015613bff573d6000803e3d6000fd5b50505050919050565b808015613c475750600083815260056020908152604080832073ffffffffffffffffffffffffffffffffffffffff8616845260080190915290205460ff165b15613c7e576040517f186abc9b00000000000000000000000000000000000000000000000000000000815260040160405180910390fd5b6040517ffd81c88f0000000000000000000000000000000000000000000000000000000081526004810184905273ffffffffffffffffffffffffffffffffffffffff8316602482015281151560448201526005606482015273__$a3850c79b56376fa7983472f601544d59e$__9063fd81c88f9060840160006040518083038186803b158015613d0d57600080fd5b505af4158015613d21573d6000803e3d6000fd5b50505050505050565b604080516080808201835260008083526020808401829052838501829052606093840182905284519283018552600a5473ffffffffffffffffffffffffffffffffffffffff168352600183820181905283860181905293830187905284518481528086019095529093919284929182015b6040805160808101825260008082526020808301829052928201819052606082015282527fffffffffffffffffffffffffffffffffffffffffffffffffffffffffffffffff909201910181613d9b5790505090508181600081518110613e0357613e0361514d565b6020908102919091018101919091526040805160808101825260148183019081527f5370616365204f776e6572204e4654204761746500000000000000000000000060608301528152918201839052600b5490517ff62df4df0000000000000000000000000000000000000000000000000000000081526004810188905260009173ffffffffffffffffffffffffffffffffffffffff169063f62df4df906024016020604051808303816000875af1158015613ec3573d6000803e3d6000fd5b505050506040513d601f19601f82011682018060405250810190613ee79190615437565b6040805160208082018352600082526009549251939450613f29938a9373ffffffffffffffffffffffffffffffffffffffff16918a9161295a9189910161569e565b9695505050505050565b600b54604080517fe88ca8a1000000000000000000000000000000000000000000000000000000008152600481018790526024810191909152600860448201527f45766572796f6e65000000000000000000000000000000000000000000000000606482015260009173ffffffffffffffffffffffffffffffffffffffff169063e88ca8a1906084016020604051808303816000875af1158015613fdb573d6000803e3d6000fd5b505050506040513d601f19601f82011682018060405250810190613fff9190615437565b905060005b828110156140d7576140388484838181106140215761402161514d565b9050602002810190614033919061551d565b613375565b600b5473ffffffffffffffffffffffffffffffffffffffff16633368c918878487878681811061406a5761406a61514d565b905060200281019061407c919061551d565b6040518463ffffffff1660e01b815260040161409a939291906152f8565b600060405180830381600087803b1580156140b457600080fd5b505af11580156140c8573d6000803e3d6000fd5b50505050806001019050614004565b50604080516020808201835260008252600854835160019281019290925261078f9388939273ffffffffffffffffffffffffffffffffffffffff9092169186910161295a565b600082815260066020526040902080546001019081905573__$a3850c79b56376fa7983472f601544d59e$__631ddb9a8b838584336006600360046040518863ffffffff1660e01b815260040161417a97969594939291906159f4565b60006040518083038186803b15801561419257600080fd5b505af41580156141a6573d6000803e3d6000fd5b5050505092915050565b60008083601f8401126141c257600080fd5b50813567ffffffffffffffff8111156141da57600080fd5b6020830191508360208285010111156141f257600080fd5b9250929050565b6000806000806040858703121561420f57600080fd5b843567ffffffffffffffff8082111561422757600080fd5b614233888389016141b0565b9096509450602087013591508082111561424c57600080fd5b50614259878288016141b0565b95989497509550505050565b60005b83811015614280578181015183820152602001614268565b50506000910152565b600081518084526142a1816020860160208601614265565b601f017fffffffffffffffffffffffffffffffffffffffffffffffffffffffffffffffe0169290920160200192915050565b60208152815160208201526000602083015160c060408401526142f960e0840182614289565b90506040840151606084015260608401517fffffffffffffffffffffffffffffffffffffffffffffffffffffffffffffffe084830301608085015261433e8282614289565b91505073ffffffffffffffffffffffffffffffffffffffff60808501511660a084015260a0840151151560c08401528091505092915050565b6000806020838503121561438a57600080fd5b823567ffffffffffffffff8111156143a157600080fd5b6143ad858286016141b0565b90969095509350505050565b6020808252825182820181905260009190848201906040850190845b8181101561440757835173ffffffffffffffffffffffffffffffffffffffff16835292840192918401916001016143d5565b50909695505050505050565b805182526000602082015160e0602085015261443260e0850182614289565b905060408301516040850152606083015184820360608601526144558282614289565b915050608083015173ffffffffffffffffffffffffffffffffffffffff80821660808701528060a08601511660a0870152505060c0830151151560c08501528091505092915050565b6000602080830181845280855180835260408601915060408160051b870101925083870160005b82811015614511577fffffffffffffffffffffffffffffffffffffffffffffffffffffffffffffffc08886030184526144ff858351614413565b945092850192908501906001016144c5565b5092979650505050505050565b73ffffffffffffffffffffffffffffffffffffffff8116811461310557600080fd5b60006020828403121561455257600080fd5b8135610c2c8161451e565b602081526000610c2c6020830184614413565b60006020808301818452808551808352604092508286019150828160051b87010184880160005b83811015614627577fffffffffffffffffffffffffffffffffffffffffffffffffffffffffffffffc08984030185528151606073ffffffffffffffffffffffffffffffffffffffff825116855288820151818a8701526145f982870182614289565b915050878201519150848103888601526146138183614289565b968901969450505090860190600101614597565b509098975050505050505050565b60008060006040848603121561464a57600080fd5b833567ffffffffffffffff81111561466157600080fd5b61466d868287016141b0565b90945092505060208401356146818161451e565b809150509250925092565b600060208284031215610af057600080fd5b600080600080606085870312156146b457600080fd5b843567ffffffffffffffff808211156146cc57600080fd5b6146d8888389016141b0565b90965094506020870135935060408701359150808211156146f857600080fd5b506147058782880161468c565b91505092959194509250565b7f4e487b7100000000000000000000000000000000000000000000000000000000600052604160045260246000fd5b6040516060810167ffffffffffffffff8111828210171561476357614763614711565b60405290565b6040805190810167ffffffffffffffff8111828210171561476357614763614711565b6040516080810167ffffffffffffffff8111828210171561476357614763614711565b604051601f82017fffffffffffffffffffffffffffffffffffffffffffffffffffffffffffffffe016810167ffffffffffffffff811182821017156147f6576147f6614711565b604052919050565b600067ffffffffffffffff82111561481857614818614711565b50601f017fffffffffffffffffffffffffffffffffffffffffffffffffffffffffffffffe01660200190565b6000614857614852846147fe565b6147af565b905082815283838301111561486b57600080fd5b828260208301376000602084830101529392505050565b600082601f83011261489357600080fd5b610c2c83833560208501614844565b6000602082840312156148b457600080fd5b813567ffffffffffffffff8111156148cb57600080fd5b61078f84828501614882565b6000602080835260608084018551838601528286015160408081880152828251808552608094508489019150848160051b8a0101878501945060005b828110156149bf577fffffffffffffffffffffffffffffffffffffffffffffffffffffffffffffff808b8303018452855160c0815184528a8201518b85015286820151818886015261496782860182614289565b915050898201518482038b86015261497f8282614289565b838b015173ffffffffffffffffffffffffffffffffffffffff16868c015260a0938401511515939095019290925250509488019492880192600101614913565b509a9950505050505050505050565b801515811461310557600080fd5b6000806000806000606086880312156149f457600080fd5b853567ffffffffffffffff80821115614a0c57600080fd5b614a1889838a016141b0565b90975095506020880135915080821115614a3157600080fd5b50614a3e888289016141b0565b9094509250506040860135614a52816149ce565b809150509295509295909350565b600080600060408486031215614a7557600080fd5b833567ffffffffffffffff811115614a8c57600080fd5b614a98868287016141b0565b909790965060209590950135949350505050565b600060208284031215614abe57600080fd5b5035919050565b602081526000825160208084015261078f6040840182614289565b60008083601f840112614af257600080fd5b50813567ffffffffffffffff811115614b0a57600080fd5b6020830191508360208260051b85010111156141f257600080fd5b600080600080600080600080600060a08a8c031215614b4357600080fd5b893567ffffffffffffffff80821115614b5b57600080fd5b614b678d838e016141b0565b909b50995060208c0135915080821115614b8057600080fd5b614b8c8d838e016141b0565b909950975060408c01359150614ba18261451e565b90955060608b01359080821115614bb757600080fd5b614bc38d838e01614ae0565b909650945060808c0135915080821115614bdc57600080fd5b50614be98c828d016141b0565b915080935050809150509295985092959850929598565b60008060008060008060008060a0898b031215614c1c57600080fd5b883567ffffffffffffffff80821115614c3457600080fd5b614c408c838d016141b0565b909a50985060208b0135915080821115614c5957600080fd5b614c658c838d016141b0565b909850965060408b01359150614c7a8261451e565b90945060608a0135935060808a01359080821115614c9757600080fd5b50614ca48b828c016141b0565b999c989b5096995094979396929594505050565b60008060008060008060808789031215614cd157600080fd5b863567ffffffffffffffff80821115614ce957600080fd5b614cf58a838b016141b0565b90985096506020890135915080821115614d0e57600080fd5b614d1a8a838b016141b0565b909650945060408901359150614d2f8261451e565b90925060608801359080821115614d4557600080fd5b50614d5289828a0161468c565b9150509295509295509295565b60008060008060608587031215614d7557600080fd5b843567ffffffffffffffff80821115614d8d57600080fd5b9086019060408289031215614da157600080fd5b90945060208601359080821115614db757600080fd5b9086019060808289031215614dcb57600080fd5b90935060408601359080821115614de157600080fd5b5061425987828801614ae0565b600067ffffffffffffffff821115614e0857614e08614711565b5060051b60200190565b600082601f830112614e2357600080fd5b81356020614e3361485283614dee565b82815260059290921b84018101918181019086841115614e5257600080fd5b8286015b84811015614f1f57803567ffffffffffffffff80821115614e775760008081fd5b81890191506060807fffffffffffffffffffffffffffffffffffffffffffffffffffffffffffffffe0848d03011215614eb05760008081fd5b614eb8614740565b878401358152604080850135614ecd8161451e565b828a0152918401359183831115614ee45760008081fd5b82850194508c603f860112614efb57600093508384fd5b614f0b8d8a870135838801614844565b908201528652505050918301918301614e56565b509695505050505050565b60008060408385031215614f3d57600080fd5b823567ffffffffffffffff80821115614f5557600080fd5b9084019060608287031215614f6957600080fd5b614f71614740565b823582811115614f8057600080fd5b614f8c88828601614882565b825250602083013582811115614fa157600080fd5b614fad88828601614882565b602083015250604083013582811115614fc557600080fd5b614fd188828601614882565b60408301525093506020850135915080821115614fed57600080fd5b50614ffa85828601614e12565b9150509250929050565b6000806000806060858703121561501a57600080fd5b843567ffffffffffffffff81111561503157600080fd5b61503d878288016141b0565b90955093505060208501356150518161451e565b91506040850135615061816149ce565b939692955090935050565b6000806040838503121561507f57600080fd5b823567ffffffffffffffff81111561509657600080fd5b6150a285828601614882565b92505060208301356150b3816149ce565b809150509250929050565b600181811c908216806150d257607f821691505b602082108103610af0577f4e487b7100000000000000000000000000000000000000000000000000000000600052602260045260246000fd5b7f4e487b7100000000000000000000000000000000000000000000000000000000600052601160045260246000fd5b808201808211156108565761085661510b565b7f4e487b7100000000000000000000000000000000000000000000000000000000600052603260045260246000fd5b60006020828403121561518e57600080fd5b8151610c2c8161451e565b600082601f8301126151aa57600080fd5b81516151b8614852826147fe565b8181528460208386010111156151cd57600080fd5b61078f826020830160208701614265565b6000602082840312156151f057600080fd5b815167ffffffffffffffff81111561520757600080fd5b61078f84828501615199565b60007fffffffffffffffffffffffffffffffffffffffffffffffffffffffffffffffff82036152445761524461510b565b5060010190565b60008083357fffffffffffffffffffffffffffffffffffffffffffffffffffffffffffffffe184360301811261528057600080fd5b830160208101925035905067ffffffffffffffff8111156152a057600080fd5b8036038213156141f257600080fd5b8183528181602085013750600060208284010152600060207fffffffffffffffffffffffffffffffffffffffffffffffffffffffffffffffe0601f840116840101905092915050565b838152826020820152606060408201526000615314838461524b565b602060608501526122a16080850182846152af565b8183823760009101908152919050565b60006020828403121561534b57600080fd5b815167ffffffffffffffff8082111561536357600080fd5b908301906020828603121561537757600080fd5b60405160208101818110838211171561539257615392614711565b6040528251828111156153a457600080fd5b6153b087828601615199565b82525095945050505050565b6000602082360312156153ce57600080fd5b6040516020810167ffffffffffffffff82821081831117156153f2576153f2614711565b81604052843591508082111561540757600080fd5b5061541436828601614882565b82525092915050565b8381526040602082015260006112116040830184866152af565b60006020828403121561544957600080fd5b5051919050565b60008083357fffffffffffffffffffffffffffffffffffffffffffffffffffffffffffffffe184360301811261548557600080fd5b83018035915067ffffffffffffffff8211156154a057600080fd5b6020019150368190038213156141f257600080fd5b60008083357fffffffffffffffffffffffffffffffffffffffffffffffffffffffffffffffe18436030181126154ea57600080fd5b83018035915067ffffffffffffffff82111561550557600080fd5b6020019150600581901b36038213156141f257600080fd5b600082357fffffffffffffffffffffffffffffffffffffffffffffffffffffffffffffffe183360301811261555157600080fd5b9190910192915050565b600082357fffffffffffffffffffffffffffffffffffffffffffffffffffffffffffffffc183360301811261555157600080fd5b600060408083360312156155a257600080fd5b6155aa614769565b833567ffffffffffffffff808211156155c257600080fd5b6155ce36838801614882565b83526020915081860135818111156155e557600080fd5b8601905036601f8201126155f857600080fd5b803561560661485282614dee565b81815260079190911b8201830190838101903683111561562557600080fd5b928401925b8284101561568c57608084360312156156435760008081fd5b61564b61478c565b84356156568161451e565b815284860135868201528785013561566d816149ce565b818901526060858101359082015282526080909301929084019061562a565b93850193909352509195945050505050565b6000602080835260608451604080848701526156bc83870183614289565b878501518782037fffffffffffffffffffffffffffffffffffffffffffffffffffffffffffffffe00183890152805180835290860193506000918601905b8083101561574d578451805173ffffffffffffffffffffffffffffffffffffffff1683528781015188840152848101511515858401528601518683015293860193600192909201916080909101906156fa565b5098975050505050505050565b60006020828403121561576c57600080fd5b815167ffffffffffffffff8082111561578457600080fd5b908301906040828603121561579857600080fd5b6157a0614769565b825181526020830151828111156157b657600080fd5b6157c287828601615199565b60208301525095945050505050565b60008251615551818460208701614265565b6020815260006157f3838461524b565b6020808501526112116040850182846152af565b60006020828403121561581957600080fd5b8151610c2c816149ce565b60808152600061583860808301888a6152af565b60208382038185015261584c82888a6152af565b8481036040860152865180825282880193509082019060005b8181101561588157845183529383019391830191600101615865565b505084810360608601526158958187614289565b9b9a5050505050505050505050565b6080815260006158b76080830187614289565b82810360208401526158c98187614289565b905084604084015282810360608401526122a18185614289565b6080815260006158f66080830187614289565b82810360208401526159088187614289565b905073ffffffffffffffffffffffffffffffffffffffff8516604084015282810360608401528351602082526159416020830182614289565b98975050505050505050565b60a08152600061595d878861524b565b604060a085015261597260e0850182846152af565b915050615982602089018961524b565b7fffffffffffffffffffffffffffffffffffffffffffffffffffffffffffffff608584030160c08601526159b78382846152af565b935050505085602083015273ffffffffffffffffffffffffffffffffffffffff851660408301528360608301528260808301529695505050505050565b60e0815260008851606060e0840152615a11610140840182614289565b905060208a01517fffffffffffffffffffffffffffffffffffffffffffffffffffffffffffffff208085840301610100860152615a4e8383614289565b925060408c01519150808584030161012086015250615a6d8282614289565b602085019a909a52505050604081019590955273ffffffffffffffffffffffffffffffffffffffff939093166060850152608084019190915260a083015260c09091015291905056fea2646970667358221220fa2c9d715f65ab59f1d409aa5c95cfc242bb4c7a756189c025e7ecbf498eb00e64736f6c63430008110033",
    "linkReferences": {
      "contracts/zion-governance/src/spaces/libraries/CreationLogic.sol": {
        "CreationLogic": [
          {
            "start": 15660,
            "length": 20
          },
          {
            "start": 15971,
            "length": 20
          },
          {
            "start": 17089,
            "length": 20
          }
        ]
      }
    }
  },
  "methodIdentifiers": {
    "addPermissionToRole(string,uint256,(string))": "7d9a0230",
    "addRoleToEntitlementModule(string,string,address,uint256,bytes)": "bbd7358a",
    "createChannel((string,string,string),(uint256,address,bytes)[])": "e69689af",
    "createRole(string,string)": "d2192dbf",
    "createSpace((string,string),(string,(string)[],(string,(address,uint256,bool,uint256)[])[],address[]),(string)[])": "d9d94cb7",
    "getChannelIdByNetworkId(string,string)": "3e66eae3",
    "getChannelInfoByChannelId(string,string)": "0db37ba3",
    "getChannelsBySpaceId(string)": "50c24eef",
    "getEntitlementModulesBySpaceId(string)": "141b6498",
    "getEntitlementsInfoBySpaceId(string)": "3519167c",
    "getPermissionFromMap(bytes32)": "9ea4d532",
    "getSpaceIdByNetworkId(string)": "9ddd0d6b",
    "getSpaceInfoBySpaceId(string)": "2bb59212",
    "getSpaceOwnerBySpaceId(string)": "2a4bdf25",
    "getSpaces()": "15478ca9",
    "isEntitled(string,string,address,(string))": "bf77b663",
    "isEntitlementModuleWhitelisted(string,address)": "4196d1ff",
    "owner()": "8da5cb5b",
    "removeEntitlement(string,string,address,uint256[],bytes)": "a3a39cb9",
    "removePermissionFromRole(string,uint256,(string))": "4832a4ec",
    "removeRole(string,uint256)": "8b0e905a",
    "renounceOwnership()": "715018a6",
    "setChannelAccess(string,string,bool)": "72a29321",
    "setDefaultTokenEntitlementModule(address)": "1a039620",
    "setDefaultUserEntitlementModule(address)": "e1b7a9e5",
    "setSpaceAccess(string,bool)": "f86caf83",
    "setSpaceNFT(address)": "ccde2de3",
    "transferOwnership(address)": "f2fde38b",
    "whitelistEntitlementModule(string,address,bool)": "e798ff3f"
  },
  "id": 21
}