{
  "abi": [
    {
      "inputs": [],
      "stateMutability": "nonpayable",
      "type": "constructor"
    },
    {
      "inputs": [],
      "name": "DefaultEntitlementModuleNotSet",
      "type": "error"
    },
    {
      "inputs": [],
      "name": "EntitlementAlreadyWhitelisted",
      "type": "error"
    },
    {
      "inputs": [],
      "name": "EntitlementModuleNotSupported",
      "type": "error"
    },
    {
      "inputs": [],
      "name": "EntitlementNotWhitelisted",
      "type": "error"
    },
    {
      "inputs": [],
      "name": "NotSpaceOwner",
      "type": "error"
    },
    {
      "anonymous": false,
      "inputs": [
        {
          "indexed": true,
          "internalType": "address",
          "name": "previousOwner",
          "type": "address"
        },
        {
          "indexed": true,
          "internalType": "address",
          "name": "newOwner",
          "type": "address"
        }
      ],
      "name": "OwnershipTransferred",
      "type": "event"
    },
    {
      "inputs": [
        {
          "internalType": "uint256",
          "name": "spaceId",
          "type": "uint256"
        },
        {
          "internalType": "uint256",
          "name": "roleId",
          "type": "uint256"
        },
        {
          "components": [
            {
              "internalType": "string",
              "name": "name",
              "type": "string"
            }
          ],
          "internalType": "struct DataTypes.Permission",
          "name": "permission",
          "type": "tuple"
        }
      ],
      "name": "addPermissionToRole",
      "outputs": [],
      "stateMutability": "nonpayable",
      "type": "function"
    },
    {
      "inputs": [
        {
          "internalType": "uint256",
          "name": "spaceId",
          "type": "uint256"
        },
        {
          "internalType": "address",
          "name": "entitlementModuleAddress",
          "type": "address"
        },
        {
          "internalType": "uint256",
          "name": "roleId",
          "type": "uint256"
        },
        {
          "internalType": "bytes",
          "name": "entitlementData",
          "type": "bytes"
        }
      ],
      "name": "addRoleToEntitlementModule",
      "outputs": [],
      "stateMutability": "nonpayable",
      "type": "function"
    },
    {
      "inputs": [
        {
          "internalType": "uint256",
          "name": "spaceId",
          "type": "uint256"
        },
        {
          "internalType": "string",
          "name": "name",
          "type": "string"
        },
        {
          "internalType": "bytes8",
          "name": "color",
          "type": "bytes8"
        }
      ],
      "name": "createRole",
      "outputs": [
        {
          "internalType": "uint256",
          "name": "",
          "type": "uint256"
        }
      ],
      "stateMutability": "nonpayable",
      "type": "function"
    },
    {
      "inputs": [
        {
          "components": [
            {
              "internalType": "string",
              "name": "spaceName",
              "type": "string"
            },
            {
              "internalType": "string",
              "name": "networkId",
              "type": "string"
            }
          ],
          "internalType": "struct DataTypes.CreateSpaceData",
          "name": "info",
          "type": "tuple"
        }
      ],
      "name": "createSpace",
      "outputs": [
        {
          "internalType": "uint256",
          "name": "",
          "type": "uint256"
        }
      ],
      "stateMutability": "nonpayable",
      "type": "function"
    },
    {
      "inputs": [
        {
          "components": [
            {
              "internalType": "string",
              "name": "spaceName",
              "type": "string"
            },
            {
              "internalType": "string",
              "name": "networkId",
              "type": "string"
            }
          ],
          "internalType": "struct DataTypes.CreateSpaceData",
          "name": "info",
          "type": "tuple"
        },
        {
          "components": [
            {
              "internalType": "address",
              "name": "entitlementModuleAddress",
              "type": "address"
            },
            {
              "internalType": "address",
              "name": "tokenAddress",
              "type": "address"
            },
            {
              "internalType": "uint256",
              "name": "quantity",
              "type": "uint256"
            },
            {
              "internalType": "string",
              "name": "description",
              "type": "string"
            },
            {
              "internalType": "string[]",
              "name": "permissions",
              "type": "string[]"
            }
          ],
          "internalType": "struct DataTypes.CreateSpaceTokenEntitlementData",
          "name": "entitlement",
          "type": "tuple"
        }
      ],
      "name": "createSpaceWithTokenEntitlement",
      "outputs": [
        {
          "internalType": "uint256",
          "name": "",
          "type": "uint256"
        }
      ],
      "stateMutability": "nonpayable",
      "type": "function"
    },
    {
      "inputs": [
        {
          "internalType": "uint256",
          "name": "spaceId",
          "type": "uint256"
        }
      ],
      "name": "getEntitlementModulesBySpaceId",
      "outputs": [
        {
          "internalType": "address[]",
          "name": "entitlementModules",
          "type": "address[]"
        }
      ],
      "stateMutability": "view",
      "type": "function"
    },
    {
      "inputs": [
        {
          "internalType": "uint256",
          "name": "spaceId",
          "type": "uint256"
        }
      ],
      "name": "getEntitlementsInfoBySpaceId",
      "outputs": [
        {
          "components": [
            {
              "internalType": "address",
              "name": "entitlementAddress",
              "type": "address"
            },
            {
              "internalType": "string",
              "name": "entitlementName",
              "type": "string"
            },
            {
              "internalType": "string",
              "name": "entitlementDescription",
              "type": "string"
            }
          ],
          "internalType": "struct DataTypes.EntitlementModuleInfo[]",
          "name": "",
          "type": "tuple[]"
        }
      ],
      "stateMutability": "view",
      "type": "function"
    },
    {
      "inputs": [
        {
          "internalType": "enum ISpaceManager.ZionPermission",
          "name": "zionPermission",
          "type": "uint8"
        }
      ],
      "name": "getPermissionFromMap",
      "outputs": [
        {
          "components": [
            {
              "internalType": "string",
              "name": "name",
              "type": "string"
            }
          ],
          "internalType": "struct DataTypes.Permission",
          "name": "permission",
          "type": "tuple"
        }
      ],
      "stateMutability": "view",
      "type": "function"
    },
    {
      "inputs": [
        {
          "internalType": "uint256",
          "name": "spaceId",
          "type": "uint256"
        },
        {
          "internalType": "uint256",
          "name": "roleId",
          "type": "uint256"
        }
      ],
      "name": "getPermissionsBySpaceIdByRoleId",
      "outputs": [
        {
          "components": [
            {
              "internalType": "string",
              "name": "name",
              "type": "string"
            }
          ],
          "internalType": "struct DataTypes.Permission[]",
          "name": "",
          "type": "tuple[]"
        }
      ],
      "stateMutability": "view",
      "type": "function"
    },
    {
      "inputs": [
        {
          "internalType": "uint256",
          "name": "spaceId",
          "type": "uint256"
        },
        {
          "internalType": "uint256",
          "name": "roleId",
          "type": "uint256"
        }
      ],
      "name": "getRoleBySpaceIdByRoleId",
      "outputs": [
        {
          "components": [
            {
              "internalType": "uint256",
              "name": "roleId",
              "type": "uint256"
            },
            {
              "internalType": "string",
              "name": "name",
              "type": "string"
            },
            {
              "internalType": "bytes8",
              "name": "color",
              "type": "bytes8"
            },
            {
              "internalType": "bool",
              "name": "isTransitive",
              "type": "bool"
            }
          ],
          "internalType": "struct DataTypes.Role",
          "name": "",
          "type": "tuple"
        }
      ],
      "stateMutability": "view",
      "type": "function"
    },
    {
      "inputs": [
        {
          "internalType": "uint256",
          "name": "spaceId",
          "type": "uint256"
        }
      ],
      "name": "getRolesBySpaceId",
      "outputs": [
        {
          "components": [
            {
              "internalType": "uint256",
              "name": "roleId",
              "type": "uint256"
            },
            {
              "internalType": "string",
              "name": "name",
              "type": "string"
            },
            {
              "internalType": "bytes8",
              "name": "color",
              "type": "bytes8"
            },
            {
              "internalType": "bool",
              "name": "isTransitive",
              "type": "bool"
            }
          ],
          "internalType": "struct DataTypes.Role[]",
          "name": "",
          "type": "tuple[]"
        }
      ],
      "stateMutability": "view",
      "type": "function"
    },
    {
      "inputs": [
        {
          "internalType": "string",
          "name": "networkId",
          "type": "string"
        }
      ],
      "name": "getSpaceIdByNetworkId",
      "outputs": [
        {
          "internalType": "uint256",
          "name": "",
          "type": "uint256"
        }
      ],
      "stateMutability": "view",
      "type": "function"
    },
    {
      "inputs": [
        {
          "internalType": "uint256",
          "name": "_spaceId",
          "type": "uint256"
        }
      ],
      "name": "getSpaceInfoBySpaceId",
      "outputs": [
        {
          "components": [
            {
              "internalType": "uint256",
              "name": "spaceId",
              "type": "uint256"
            },
            {
              "internalType": "uint256",
              "name": "createdAt",
              "type": "uint256"
            },
            {
              "internalType": "string",
              "name": "name",
              "type": "string"
            },
            {
              "internalType": "address",
              "name": "creator",
              "type": "address"
            },
            {
              "internalType": "address",
              "name": "owner",
              "type": "address"
            }
          ],
          "internalType": "struct DataTypes.SpaceInfo",
          "name": "",
          "type": "tuple"
        }
      ],
      "stateMutability": "view",
      "type": "function"
    },
    {
      "inputs": [
        {
          "internalType": "uint256",
          "name": "_spaceId",
          "type": "uint256"
        }
      ],
      "name": "getSpaceOwnerBySpaceId",
      "outputs": [
        {
          "internalType": "address",
          "name": "ownerAddress",
          "type": "address"
        }
      ],
      "stateMutability": "view",
      "type": "function"
    },
    {
      "inputs": [],
      "name": "getSpaces",
      "outputs": [
        {
          "components": [
            {
              "internalType": "uint256",
              "name": "spaceId",
              "type": "uint256"
            },
            {
              "internalType": "uint256",
              "name": "createdAt",
              "type": "uint256"
            },
            {
              "internalType": "string",
              "name": "name",
              "type": "string"
            },
            {
              "internalType": "address",
              "name": "creator",
              "type": "address"
            },
            {
              "internalType": "address",
              "name": "owner",
              "type": "address"
            }
          ],
          "internalType": "struct DataTypes.SpaceInfo[]",
          "name": "",
          "type": "tuple[]"
        }
      ],
      "stateMutability": "view",
      "type": "function"
    },
    {
      "inputs": [
        {
          "internalType": "uint256",
          "name": "spaceId",
          "type": "uint256"
        },
        {
          "internalType": "uint256",
          "name": "roomId",
          "type": "uint256"
        },
        {
          "internalType": "address",
          "name": "user",
          "type": "address"
        },
        {
          "components": [
            {
              "internalType": "string",
              "name": "name",
              "type": "string"
            }
          ],
          "internalType": "struct DataTypes.Permission",
          "name": "permission",
          "type": "tuple"
        }
      ],
      "name": "isEntitled",
      "outputs": [
        {
          "internalType": "bool",
          "name": "",
          "type": "bool"
        }
      ],
      "stateMutability": "view",
      "type": "function"
    },
    {
      "inputs": [
        {
          "internalType": "uint256",
          "name": "spaceId",
          "type": "uint256"
        },
        {
          "internalType": "address",
          "name": "entitlementModuleAddress",
          "type": "address"
        }
      ],
      "name": "isEntitlementModuleWhitelisted",
      "outputs": [
        {
          "internalType": "bool",
          "name": "",
          "type": "bool"
        }
      ],
      "stateMutability": "view",
      "type": "function"
    },
    {
      "inputs": [],
      "name": "owner",
      "outputs": [
        {
          "internalType": "address",
          "name": "",
          "type": "address"
        }
      ],
      "stateMutability": "view",
      "type": "function"
    },
    {
      "inputs": [
        {
          "internalType": "address",
          "name": "entitlementModule",
          "type": "address"
        }
      ],
      "name": "registerDefaultEntitlementModule",
      "outputs": [],
      "stateMutability": "nonpayable",
      "type": "function"
    },
    {
      "inputs": [
        {
          "internalType": "uint256",
          "name": "spaceId",
          "type": "uint256"
        },
        {
          "internalType": "address",
          "name": "entitlementModuleAddress",
          "type": "address"
        },
        {
          "internalType": "uint256[]",
          "name": "roleIds",
          "type": "uint256[]"
        },
        {
          "internalType": "bytes",
          "name": "data",
          "type": "bytes"
        }
      ],
      "name": "removeEntitlement",
      "outputs": [],
      "stateMutability": "nonpayable",
      "type": "function"
    },
    {
      "inputs": [],
      "name": "renounceOwnership",
      "outputs": [],
      "stateMutability": "nonpayable",
      "type": "function"
    },
    {
      "inputs": [
        {
          "internalType": "address",
          "name": "newOwner",
          "type": "address"
        }
      ],
      "name": "transferOwnership",
      "outputs": [],
      "stateMutability": "nonpayable",
      "type": "function"
    },
    {
      "inputs": [
        {
          "internalType": "uint256",
          "name": "spaceId",
          "type": "uint256"
        },
        {
          "internalType": "address",
          "name": "entitlementAddress",
          "type": "address"
        },
        {
          "internalType": "bool",
          "name": "whitelist",
          "type": "bool"
        }
      ],
      "name": "whitelistEntitlementModule",
      "outputs": [],
      "stateMutability": "nonpayable",
      "type": "function"
    },
    {
      "inputs": [
        {
          "internalType": "enum ISpaceManager.ZionPermission",
          "name": "",
          "type": "uint8"
        }
      ],
      "name": "zionPermissionsMap",
      "outputs": [
        {
          "internalType": "string",
          "name": "name",
          "type": "string"
        }
      ],
      "stateMutability": "view",
      "type": "function"
    }
  ],
  "bytecode": {
    "object": "0x60806040523480156200001157600080fd5b506200001d336200002d565b620000276200007d565b620005f6565b600080546001600160a01b038381166001600160a01b0319831681178455604051919092169283917f8be0079c531659141344cd1fd0a4f28419497f9722a3daafe3b4186f6b6457e09190a35050565b60408051606081018252601460208083019182527f5a696f6e2d416c6c5f5065726d697373696f6e7300000000000000000000000093830193909352815260008052600c90915280517f13649b2456f1b42fef0f0040b3aaeabcd21a76a0f3f5defd4f583839455116e8908190620000f690826200052a565b505060408051606081018252601660208083019182527f5a696f6e2d4772616e745f5065726d697373696f6e73000000000000000000009383019390935281526009600052600c90915280519091507f2fb3c9afecd3f0d43923381d3e9f60168c039b98f0b7120382e81b682b7bc3169081906200017590826200052a565b50506040805160608101825260096020808301918252682d34b7b716a537b4b760b91b9383019390935281526001600052600c90915280519091507fd421a5181c571bba3f01190c922c3b2a896fc1d84e86c9f17ac10e67ebef8b5c908190620001e090826200052a565b5050604080516060810182526009602080830191825268169a5bdb8b5499585960ba1b9383019390935281526003600052600c90915280519091507fc0da782485e77ae272268ae0a3ff44c1552ecb60b3743924de17a815e0a3cfd79081906200024b90826200052a565b505060408051606081018252600a6020808301918252695a696f6e2d577269746560b01b9383019390935281526004600052600c90915280519091507f5b84bb9e0f5aa9cc45a8bb66468db5d4816d1e75ff86b5e1f1dd8d144dab8097908190620002b790826200052a565b505060408051606081018252600a6020808301918252695a696f6e2d426c6f636b60b01b9383019390935281526005600052600c90915280519091507f2cd9ebf6ff19cdd7ffcc447d7c7d47b5991f5c7392a04512134e765802361fa69081906200032390826200052a565b505060408051606081018252600b60208083019182526a169a5bdb8b5499591858dd60aa1b9383019390935281526006600052600c90915280519091507f980f427e00e74f6d338adfccc7468518c8c8ea00836d0dce98c5fe154e17bf2b9081906200039090826200052a565b505060408051606081018252601060208083019182526f169a5bdb8b50591917d0da185b9b995b60821b9383019390935281526007600052600c90915280519091507fdae089abd7155aa13ce498edb0d7a7156b783d015031f10c9a3d4f5fcb5189719081906200040290826200052a565b505060408051606081018252601360208083019182527f5a696f6e2d52656d6f76655f4368616e6e656c000000000000000000000000009383019390935281526008600052600c90915280519091507f5ff1be3842b54290a9d10674244dae5848d2371b5314790c54805c086586e1df9081906200048190826200052a565b505050565b634e487b7160e01b600052604160045260246000fd5b600181811c90821680620004b157607f821691505b602082108103620004d257634e487b7160e01b600052602260045260246000fd5b50919050565b601f8211156200048157600081815260208120601f850160051c81016020861015620005015750805b601f850160051c820191505b8181101562000522578281556001016200050d565b505050505050565b81516001600160401b0381111562000546576200054662000486565b6200055e816200055784546200049c565b84620004d8565b602080601f8311600181146200059657600084156200057d5750858301515b600019600386901b1c1916600185901b17855562000522565b600085815260208120601f198616915b82811015620005c757888601518255948401946001909101908401620005a6565b5085821015620005e65787850151600019600388901b60f8161c191681555b5050505050600190811b01905550565b612a3a80620006066000396000f3fe608060405234801561001057600080fd5b50600436106101285760003560e01c806315478ca91461012d5780631e9840601461014b57806328dcb202146101605780633368c918146101735780633439f03b1461018657806341ab8a9a146101a657806350b88cf7146101c657806352f1bea2146101e75780636621899914610207578063715018a61461022a5780637dde72d8146102325780637e9ea5c71461026c5780638a99bd881461027f5780638da5cb5b1461029f5780639152efda146102a75780639ddd0d6b146102c7578063a3f13435146102da578063a7972473146102ed578063a7d325fc14610300578063b010ac4714610320578063c870e04c1461035d578063d9af4ecf1461037d578063dbe83cbf1461039d578063f2fde38b146103b0575b600080fd5b6101356103c3565b6040516101429190611c6b565b60405180910390f35b61015e610159366004611dac565b610553565b005b61015e61016e366004611e9d565b6105af565b61015e610181366004611f41565b6105d3565b610199610194366004611f90565b6105e8565b6040516101429190611fa9565b6101b96101b4366004611f90565b6106ec565b6040516101429190611fc3565b6101d96101d4366004612022565b61075b565b604051908152602001610142565b6101fa6101f5366004611f90565b610927565b60405161014291906120a8565b61021a6102153660046120fd565b610a6d565b6040519015158152602001610142565b61015e610b70565b61025f610240366004611f90565b600090815260056020819052604090912001546001600160a01b031690565b6040516101429190612151565b6101d961027a366004612165565b610b84565b61029261028d366004611f90565b610d95565b60405161014291906121cf565b61025f610fb0565b6102ba6102b536600461226b565b610fbf565b604051610142919061228c565b6101d96102d53660046122ef565b6110a7565b6101d96102e8366004612330565b6110d2565b61015e6102fb36600461238c565b6110f2565b61031361030e3660046123f3565b611185565b6040516101429190612415565b61021a61032e366004612472565b60008281526005602090815260408083206001600160a01b038516845260060190915290205460ff1692915050565b61037061036b36600461226b565b611287565b604051610142919061249e565b61039061038b3660046123f3565b611325565b60405161014291906124b1565b61015e6103ab3660046124c4565b611455565b61015e6103be3660046124c4565b6114a7565b606060006001546001600160401b038111156103e1576103e1611ce9565b60405190808252806020026020018201604052801561041a57816020015b610407611b83565b8152602001906001900390816103ff5790505b50905060005b60015481101561054d57600060058161043a8460016124f5565b815260200190815260200160002090506040518060a00160405280826000015481526020018260010154815260200182600301805461047890612508565b80601f01602080910402602001604051908101604052809291908181526020018280546104a490612508565b80156104f15780601f106104c6576101008083540402835291602001916104f1565b820191906000526020600020905b8154815290600101906020018083116104d457829003601f168201915b505050918352505060048301546001600160a01b039081166020830152600584015416604090910152835184908490811061052e5761052e61253c565b602002602001018190525050808061054590612552565b915050610420565b50919050565b8361055d81611525565b61056684611560565b610572858585856115f1565b6040516001600160a01b0385169086907ffd3ffe216c7ac278f0f139f54c5bba76eb723dd4c3cec052779af2abca66d99890600090a35050505050565b826105b981611525565b6105c283611560565b6105cd8484846116a2565b50505050565b826105dd81611525565b6105cd8484846118c2565b6105f0611b83565b6040805160a0810182526000848152600560208181528483208054855260018101548286015292879052526003018054919283019161062e90612508565b80601f016020809104026020016040519081016040528092919081815260200182805461065a90612508565b80156106a75780601f1061067c576101008083540402835291602001916106a7565b820191906000526020600020905b81548152906001019060200180831161068a57829003601f168201915b5050509183525050600084815260056020818152604080842060048101546001600160a01b039081168488015298909452908290529101549094169301929092525090565b60008181526005602090815260409182902060070180548351818402810184019094528084526060939283018282801561074f57602002820191906000526020600020905b81546001600160a01b03168152600190910190602001808311610731575b50505050509050919050565b6002546000906001600160a01b031661078757604051632ab51add60e01b815260040160405180910390fd5b600061079283611904565b6002549091506107ae9082906001600160a01b031660016116a2565b60006107e7826040518060400160405280600d81526020016c20b236b4b734b9ba3930ba37b960991b8152506311b3333360e11b61198c565b90506108b58282600c6000805b60098111156108055761080561256b565b815260200190815260200160002060405180602001604052908160008201805461082e90612508565b80601f016020809104026020016040519081016040528092919081815260200182805461085a90612508565b80156108a75780601f1061087c576101008083540402835291602001916108a7565b820191906000526020600020905b81548152906001019060200180831161088a57829003601f168201915b5050505050815250506118c2565b6002546108ee9083906001600160a01b031683335b6040516020016108da9190612151565b604051602081830303815290604052611a5b565b3380836000805160206129e583398151915261090a8880612581565b6040516109189291906125f0565b60405180910390a45092915050565b606060066000838152602001908152602001600020600101805480602002602001604051908101604052809291908181526020016000905b82821015610a6257838290600052602060002090600302016040518060800160405290816000820154815260200160018201805461099c90612508565b80601f01602080910402602001604051908101604052809291908181526020018280546109c890612508565b8015610a155780601f106109ea57610100808354040283529160200191610a15565b820191906000526020600020905b8154815290600101906020018083116109f857829003601f168201915b50505091835250506002919091015460c081901b6001600160c01b031916602080840191909152600160401b90910460ff161515604090920191909152908252600192909201910161095f565b505050509050919050565b600080805b600087815260056020526040902060070154811015610b66576000878152600560205260408120600701805483908110610aae57610aae61253c565b6000918252602090912001546001600160a01b0316905080610ad05750610b54565b604051636621899960e01b81526001600160a01b03821690636621899990610b02908b908b908b908b90600401612604565b602060405180830381865afa158015610b1f573d6000803e3d6000fd5b505050506040513d601f19601f82011682018060405250810190610b439190612645565b15610b52576001925050610b66565b505b80610b5e81612552565b915050610a72565b5095945050505050565b610b78611ad4565b610b826000611b33565b565b600080610b9084611904565b600254909150610bac9082906001600160a01b031660016116a2565b610bc481610bbd60208601866124c4565b60016116a2565b60408051808201909152600d81526c20b236b4b734b9ba3930ba37b960991b60208201526000610bfc83836311b3333360e11b61198c565b9050610c0d8382600c6000806107f4565b600254610c269084906001600160a01b031683336108ca565b60408051808201909152600c81526b2a37b5b2b7102437b63232b960a11b60208201526000610c5d85836311b3333360e11b61198c565b905060005b610c6f6080890189612662565b9050811015610d0d57600060405180602001604052808a8060800190610c959190612662565b85818110610ca557610ca561253c565b9050602002810190610cb79190612581565b8080601f01602080910402602001604051908101604052809392919081815260200183838082843760009201919091525050509152509050610cfa8784836118c2565b5080610d0581612552565b915050610c62565b50610d5585610d1f60208a018a6124c4565b83610d2d60608c018c612581565b610d3d60408e0160208f016124c4565b8d604001356040516020016108da94939291906126ab565b3380866000805160206129e5833981519152610d718c80612581565b604051610d7f9291906125f0565b60405180910390a4509293505050505b92915050565b600081815260056020526040812060070154606091906001600160401b03811115610dc257610dc2611ce9565b604051908082528060200260200182016040528015610e2057816020015b610e0d604051806060016040528060006001600160a01b0316815260200160608152602001606081525090565b815260200190600190039081610de05790505b50905060005b600084815260056020526040902060070154811015610fa9576000848152600560205260408120600701805483908110610e6257610e6261253c565b6000918252602090912001546001600160a01b0316905080610e845750610f97565b60006040518060600160405280836001600160a01b03168152602001836001600160a01b03166306fdde036040518163ffffffff1660e01b8152600401600060405180830381865afa158015610ede573d6000803e3d6000fd5b505050506040513d6000823e601f3d908101601f19168201604052610f0691908101906126db565b8152602001836001600160a01b0316637284e4166040518163ffffffff1660e01b8152600401600060405180830381865afa158015610f49573d6000803e3d6000fd5b505050506040513d6000823e601f3d908101601f19168201604052610f7191908101906126db565b815250905080848481518110610f8957610f8961253c565b602002602001018190525050505b80610fa181612552565b915050610e26565b5092915050565b6000546001600160a01b031690565b604080516020810190915260608152600c6000836009811115610fe457610fe461256b565b6009811115610ff557610ff561256b565b815260200190815260200160002060405180602001604052908160008201805461101e90612508565b80601f016020809104026020016040519081016040528092919081815260200182805461104a90612508565b80156110975780601f1061106c57610100808354040283529160200191611097565b820191906000526020600020905b81548152906001019060200180831161107a57829003601f168201915b5050505050815250509050919050565b6000600b83836040516110bb929190612748565b908152602001604051809103902054905092915050565b6000836110de81611525565b6110e985858561198c565b95945050505050565b846110fc81611525565b61110585611560565b61114786868686868080601f016020809104026020016040519081016040528093929190818152602001838380828437600092019190915250611a5b92505050565b6040516001600160a01b0386169087907f90a1d54980cf315f52b68415e4e4e1b9efbe48a558b57220d770c32ca24901aa90600090a3505050505050565b60008281526009602090815260408083208484528252808320805482518185028101850190935280835260609492939192909184015b8282101561127b578382906000526020600020016040518060200160405290816000820180546111ea90612508565b80601f016020809104026020016040519081016040528092919081815260200182805461121690612508565b80156112635780601f1061123857610100808354040283529160200191611263565b820191906000526020600020905b81548152906001019060200180831161124657829003601f168201915b505050505081525050815260200190600101906111bb565b50505050905092915050565b600c602052600090815260409020805481906112a290612508565b80601f01602080910402602001604051908101604052809291908181526020018280546112ce90612508565b801561131b5780601f106112f05761010080835404028352916020019161131b565b820191906000526020600020905b8154815290600101906020018083116112fe57829003601f168201915b5050505050905081565b60408051608081018252600080825260606020830181905292820181905291810191909152600083815260066020526040902060010180548390811061136d5761136d61253c565b9060005260206000209060030201604051806080016040529081600082015481526020016001820180546113a090612508565b80601f01602080910402602001604051908101604052809291908181526020018280546113cc90612508565b80156114195780601f106113ee57610100808354040283529160200191611419565b820191906000526020600020905b8154815290600101906020018083116113fc57829003601f168201915b50505091835250506002919091015460c081901b6001600160c01b0319166020830152600160401b900460ff1615156040909101529392505050565b61145d611ad4565b600280546001600160a01b0319166001600160a01b0383169081179091556040517f07b136952c7460e1fc2d593fad96b5b379f28cc13a49857b6a825c5228c1a8d190600090a250565b6114af611ad4565b6001600160a01b0381166115195760405162461bcd60e51b815260206004820152602660248201527f4f776e61626c653a206e6577206f776e657220697320746865207a65726f206160448201526564647265737360d01b60648201526084015b60405180910390fd5b61152281611b33565b50565b600081815260056020819052604090912001546001600160a01b0316331461152257604051638c09e73f60e01b815260040160405180910390fd5b6040516301ffc9a760e01b81526306a27c6d60e51b60048201526001600160a01b038216906301ffc9a790602401602060405180830381865afa1580156115ab573d6000803e3d6000fd5b505050506040513d601f19601f820116820180604052508101906115cf9190612645565b151560000361152257604051636d9250f160e11b815260040160405180910390fd5b60008481526005602090815260408083206001600160a01b038716845260060190915290205460ff166116375760405163c1ef36f360e01b815260040160405180910390fd5b60405163171aacf760e01b81526001600160a01b0384169063171aacf79061166a90879060009087908790600401612758565b600060405180830381600087803b15801561168457600080fd5b505af1158015611698573d6000803e3d6000fd5b5050505050505050565b8080156116d4575060008381526005602090815260408083206001600160a01b038616845260060190915290205460ff165b156116f25760405163186abc9b60e01b815260040160405180910390fd5b60008381526005602090815260408083206001600160a01b03861684526006019091529020805460ff1916821580159190911790915561176d5760008381526005602090815260408220600701805460018101825590835291200180546001600160a01b0384166001600160a01b0319909116179055505050565b600083815260056020526040812060070154905b818110156118ba57600085815260056020526040902060070180546001600160a01b0386169190839081106117b8576117b861253c565b6000918252602090912001546001600160a01b0316036118a85760008581526005602052604090206007016117ee6001846127c0565b815481106117fe576117fe61253c565b60009182526020808320909101548783526005909152604090912060070180546001600160a01b03909216918390811061183a5761183a61253c565b600091825260208083209190910180546001600160a01b0319166001600160a01b039490941693909317909255868152600590915260409020600701805480611885576118856127d3565b600082815260209020810160001990810180546001600160a01b03191690550190555b806118b281612552565b915050611781565b50505b505050565b6000838152600960209081526040808320858452825282208054600181018255908352912082518392919091019081906118fc908261282f565b505050505050565b6001805481019081905560405163db8b5aa560e01b81526000919073__$0167f7afdf7c7be35671eabe0842b16bab$__9063db8b5aa59061195590869085903390600490600590600b908301612933565b60006040518083038186803b15801561196d57600080fd5b505af4158015611981573d6000803e3d6000fd5b509295945050505050565b600083815260066020526040812080548291826119a883612552565b90915550600086815260066020908152604080832081516080810183528581528084018a81526001600160c01b03198a169382019390935260608101859052600191820180548084018255908652939094208451600390940201928355905193945091929091820190611a1b908261282f565b506040820151600290910180546060909301511515600160401b026001600160481b031990931660c09290921c9190911791909117905590509392505050565b60008481526005602090815260408083206001600160a01b038716845260060190915290205460ff16611aa15760405163c1ef36f360e01b815260040160405180910390fd5b604051632c4fe41960e21b81526001600160a01b0384169063b13f90649061166a908790600090879087906004016129b5565b33611add610fb0565b6001600160a01b031614610b825760405162461bcd60e51b815260206004820181905260248201527f4f776e61626c653a2063616c6c6572206973206e6f7420746865206f776e65726044820152606401611510565b600080546001600160a01b038381166001600160a01b0319831681178455604051919092169283917f8be0079c531659141344cd1fd0a4f28419497f9722a3daafe3b4186f6b6457e09190a35050565b6040518060a0016040528060008152602001600081526020016060815260200160006001600160a01b0316815260200160006001600160a01b031681525090565b60005b83811015611bdf578181015183820152602001611bc7565b50506000910152565b60008151808452611c00816020860160208601611bc4565b601f01601f19169290920160200192915050565b80518252602081015160208301526000604082015160a06040850152611c3d60a0850182611be8565b6060848101516001600160a01b03908116918701919091526080948501511693909401929092525090919050565b6000602080830181845280855180835260408601915060408160051b870101925083870160005b82811015611cc057603f19888603018452611cae858351611c14565b94509285019290850190600101611c92565b5092979650505050505050565b80356001600160a01b0381168114611ce457600080fd5b919050565b634e487b7160e01b600052604160045260246000fd5b604051601f8201601f191681016001600160401b0381118282101715611d2757611d27611ce9565b604052919050565b60006001600160401b03821115611d4857611d48611ce9565b50601f01601f191660200190565b600082601f830112611d6757600080fd5b8135611d7a611d7582611d2f565b611cff565b818152846020838601011115611d8f57600080fd5b816020850160208301376000918101602001919091529392505050565b60008060008060808587031215611dc257600080fd5b843593506020611dd3818701611ccd565b935060408601356001600160401b0380821115611def57600080fd5b818801915088601f830112611e0357600080fd5b813581811115611e1557611e15611ce9565b8060051b611e24858201611cff565b918252838101850191858101908c841115611e3e57600080fd5b948601945b83861015611e5c57853582529486019490860190611e43565b97505050506060880135925080831115611e7557600080fd5b5050611e8387828801611d56565b91505092959194509250565b801515811461152257600080fd5b600080600060608486031215611eb257600080fd5b83359250611ec260208501611ccd565b91506040840135611ed281611e8f565b809150509250925092565b600060208284031215611eef57600080fd5b604051602081016001600160401b038082118383101715611f1257611f12611ce9565b816040528293508435915080821115611f2a57600080fd5b50611f3785828601611d56565b8252505092915050565b600080600060608486031215611f5657600080fd5b833592506020840135915060408401356001600160401b03811115611f7a57600080fd5b611f8686828701611edd565b9150509250925092565b600060208284031215611fa257600080fd5b5035919050565b602081526000611fbc6020830184611c14565b9392505050565b6020808252825182820181905260009190848201906040850190845b818110156120045783516001600160a01b031683529284019291840191600101611fdf565b50909695505050505050565b60006040828403121561054d57600080fd5b60006020828403121561203457600080fd5b81356001600160401b0381111561204a57600080fd5b61205684828501612010565b949350505050565b80518252600060208201516080602085015261207d6080850182611be8565b6040848101516001600160c01b03191690860152606093840151151593909401929092525090919050565b6000602080830181845280855180835260408601915060408160051b870101925083870160005b82811015611cc057603f198886030184526120eb85835161205e565b945092850192908501906001016120cf565b6000806000806080858703121561211357600080fd5b843593506020850135925061212a60408601611ccd565b915060608501356001600160401b0381111561214557600080fd5b611e8387828801611edd565b6001600160a01b0391909116815260200190565b6000806040838503121561217857600080fd5b82356001600160401b038082111561218f57600080fd5b61219b86838701612010565b935060208501359150808211156121b157600080fd5b50830160a081860312156121c457600080fd5b809150509250929050565b60006020808301818452808551808352604092508286019150828160051b87010184880160005b8381101561225d57888303603f19018552815180516001600160a01b031684528781015160608986018190529061222f82870182611be8565b915050878201519150848103888601526122498183611be8565b9689019694505050908601906001016121f6565b509098975050505050505050565b60006020828403121561227d57600080fd5b8135600a8110611fbc57600080fd5b60208152600082516020808401526120566040840182611be8565b60008083601f8401126122b957600080fd5b5081356001600160401b038111156122d057600080fd5b6020830191508360208285010111156122e857600080fd5b9250929050565b6000806020838503121561230257600080fd5b82356001600160401b0381111561231857600080fd5b612324858286016122a7565b90969095509350505050565b60008060006060848603121561234557600080fd5b8335925060208401356001600160401b0381111561236257600080fd5b61236e86828701611d56565b92505060408401356001600160c01b031981168114611ed257600080fd5b6000806000806000608086880312156123a457600080fd5b853594506123b460208701611ccd565b93506040860135925060608601356001600160401b038111156123d657600080fd5b6123e2888289016122a7565b969995985093965092949392505050565b6000806040838503121561240657600080fd5b50508035926020909101359150565b6000602080830181845280855180835260408601915060408160051b870101925083870160005b82811015611cc057878503603f1901845281515186865261245f87870182611be8565b955050928501929085019060010161243c565b6000806040838503121561248557600080fd5b8235915061249560208401611ccd565b90509250929050565b602081526000611fbc6020830184611be8565b602081526000611fbc602083018461205e565b6000602082840312156124d657600080fd5b611fbc82611ccd565b634e487b7160e01b600052601160045260246000fd5b80820180821115610d8f57610d8f6124df565b600181811c9082168061251c57607f821691505b60208210810361054d57634e487b7160e01b600052602260045260246000fd5b634e487b7160e01b600052603260045260246000fd5b600060018201612564576125646124df565b5060010190565b634e487b7160e01b600052602160045260246000fd5b6000808335601e1984360301811261259857600080fd5b8301803591506001600160401b038211156125b257600080fd5b6020019150368190038213156122e857600080fd5b81835281816020850137506000828201602090810191909152601f909101601f19169091010190565b6020815260006120566020830184866125c7565b84815283602082015260018060a01b038316604082015260806060820152600082516020608084015261263a60a0840182611be8565b979650505050505050565b60006020828403121561265757600080fd5b8151611fbc81611e8f565b6000808335601e1984360301811261267957600080fd5b8301803591506001600160401b0382111561269357600080fd5b6020019150600581901b36038213156122e857600080fd5b6060815260006126bf6060830186886125c7565b6001600160a01b03949094166020830152506040015292915050565b6000602082840312156126ed57600080fd5b81516001600160401b0381111561270357600080fd5b8201601f8101841361271457600080fd5b8051612722611d7582611d2f565b81815285602083850101111561273757600080fd5b6110e9826020830160208601611bc4565b8183823760009101908152919050565b600060808201868352602086818501526080604085015281865180845260a086019150828801935060005b8181101561279f57845183529383019391830191600101612783565b505084810360608601526127b38187611be8565b9998505050505050505050565b81810381811115610d8f57610d8f6124df565b634e487b7160e01b600052603160045260246000fd5b601f8211156118bd57600081815260208120601f850160051c810160208610156128105750805b601f850160051c820191505b818110156118fc5782815560010161281c565b81516001600160401b0381111561284857612848611ce9565b61285c816128568454612508565b846127e9565b602080601f83116001811461289157600084156128795750858301515b600019600386901b1c1916600185901b1785556118fc565b600085815260208120601f198616915b828110156128c0578886015182559484019460019091019084016128a1565b50858210156128de5787850151600019600388901b60f8161c191681555b5050505050600190811b01905550565b6000808335601e1984360301811261290557600080fd5b83016020810192503590506001600160401b0381111561292457600080fd5b8036038213156122e857600080fd5b60c08152600061294388896128ee565b604060c0850152612959610100850182846125c7565b91505061296960208a018a6128ee565b84830360bf190160e08601526129808382846125c7565b602086019a909a52505050506001600160a01b039490941660408501526060840192909252608083015260a090910152919050565b8481528360208201528260408201526080606082015260006129da6080830184611be8565b969550505050505056fe9d575dd5f8c535bc0f29f0993aa2580a10f030e244e416fbfdc70ddb8e9935f1a2646970667358221220c675a7a40638b3cf892043786b0ca516d31cdcc174cc16c4c87d3cb31c9c1a5364736f6c63430008100033",
    "linkReferences": {
      "contracts/zion-governance/contracts/spaces/libraries/ZionSpaceController.sol": {
        "ZionSpaceController": [
          {
            "start": 7975,
            "length": 20
          }
        ]
      }
    }
  },
  "methodIdentifiers": {
    "addPermissionToRole(uint256,uint256,(string))": "3368c918",
    "addRoleToEntitlementModule(uint256,address,uint256,bytes)": "a7972473",
    "createRole(uint256,string,bytes8)": "a3f13435",
    "createSpace((string,string))": "50b88cf7",
    "createSpaceWithTokenEntitlement((string,string),(address,address,uint256,string,string[]))": "7e9ea5c7",
    "getEntitlementModulesBySpaceId(uint256)": "41ab8a9a",
    "getEntitlementsInfoBySpaceId(uint256)": "8a99bd88",
    "getPermissionFromMap(uint8)": "9152efda",
    "getPermissionsBySpaceIdByRoleId(uint256,uint256)": "a7d325fc",
    "getRoleBySpaceIdByRoleId(uint256,uint256)": "d9af4ecf",
    "getRolesBySpaceId(uint256)": "52f1bea2",
    "getSpaceIdByNetworkId(string)": "9ddd0d6b",
    "getSpaceInfoBySpaceId(uint256)": "3439f03b",
    "getSpaceOwnerBySpaceId(uint256)": "7dde72d8",
    "getSpaces()": "15478ca9",
    "isEntitled(uint256,uint256,address,(string))": "66218999",
    "isEntitlementModuleWhitelisted(uint256,address)": "b010ac47",
    "owner()": "8da5cb5b",
    "registerDefaultEntitlementModule(address)": "dbe83cbf",
    "removeEntitlement(uint256,address,uint256[],bytes)": "1e984060",
    "renounceOwnership()": "715018a6",
    "transferOwnership(address)": "f2fde38b",
    "whitelistEntitlementModule(uint256,address,bool)": "28dcb202",
    "zionPermissionsMap(uint8)": "c870e04c"
  },
  "id": 13
}