{
  "abi": [
    {
      "inputs": [],
      "stateMutability": "nonpayable",
      "type": "constructor"
    },
    {
      "inputs": [],
      "name": "AddRoleFailed",
      "type": "error"
    },
    {
      "inputs": [],
      "name": "ChannelAlreadyRegistered",
      "type": "error"
    },
    {
      "inputs": [],
      "name": "ChannelDoesNotExist",
      "type": "error"
    },
    {
      "inputs": [],
      "name": "EntitlementAlreadyExists",
      "type": "error"
    },
    {
      "inputs": [],
      "name": "EntitlementAlreadyWhitelisted",
      "type": "error"
    },
    {
      "inputs": [],
      "name": "EntitlementModuleNotSupported",
      "type": "error"
    },
    {
      "inputs": [],
      "name": "EntitlementNotWhitelisted",
      "type": "error"
    },
    {
      "inputs": [],
      "name": "InvalidParameters",
      "type": "error"
    },
    {
      "inputs": [],
      "name": "MissingOwnerPermission",
      "type": "error"
    },
    {
      "inputs": [],
      "name": "NameLengthInvalid",
      "type": "error"
    },
    {
      "inputs": [],
      "name": "NotAllowed",
      "type": "error"
    },
    {
      "inputs": [],
      "name": "PermissionAlreadyExists",
      "type": "error"
    },
    {
      "inputs": [],
      "name": "RoleDoesNotExist",
      "type": "error"
    },
    {
      "inputs": [],
      "name": "RoleIsAssignedToEntitlement",
      "type": "error"
    },
    {
      "anonymous": false,
      "inputs": [
        {
          "indexed": false,
          "internalType": "address",
          "name": "previousAdmin",
          "type": "address"
        },
        {
          "indexed": false,
          "internalType": "address",
          "name": "newAdmin",
          "type": "address"
        }
      ],
      "name": "AdminChanged",
      "type": "event"
    },
    {
      "anonymous": false,
      "inputs": [
        {
          "indexed": true,
          "internalType": "address",
          "name": "beacon",
          "type": "address"
        }
      ],
      "name": "BeaconUpgraded",
      "type": "event"
    },
    {
      "anonymous": false,
      "inputs": [
        {
          "indexed": false,
          "internalType": "string",
          "name": "prevURI",
          "type": "string"
        },
        {
          "indexed": false,
          "internalType": "string",
          "name": "newURI",
          "type": "string"
        }
      ],
      "name": "ContractURIUpdated",
      "type": "event"
    },
    {
      "anonymous": false,
      "inputs": [
        {
          "indexed": false,
          "internalType": "uint8",
          "name": "version",
          "type": "uint8"
        }
      ],
      "name": "Initialized",
      "type": "event"
    },
    {
      "anonymous": false,
      "inputs": [
        {
          "indexed": true,
          "internalType": "address",
          "name": "implementation",
          "type": "address"
        }
      ],
      "name": "Upgraded",
      "type": "event"
    },
    {
      "inputs": [],
      "name": "MODULE_TYPE",
      "outputs": [
        {
          "internalType": "string",
          "name": "",
          "type": "string"
        }
      ],
      "stateMutability": "view",
      "type": "function"
    },
    {
      "inputs": [],
      "name": "MODULE_VERSION",
      "outputs": [
        {
          "internalType": "uint48",
          "name": "",
          "type": "uint48"
        }
      ],
      "stateMutability": "view",
      "type": "function"
    },
    {
      "inputs": [
        {
          "internalType": "uint256",
          "name": "_roleId",
          "type": "uint256"
        },
        {
          "internalType": "string[]",
          "name": "_permissions",
          "type": "string[]"
        }
      ],
      "name": "addPermissionsToRole",
      "outputs": [],
      "stateMutability": "nonpayable",
      "type": "function"
    },
    {
      "inputs": [
        {
          "internalType": "string",
          "name": "_channelId",
          "type": "string"
        },
        {
          "internalType": "address",
          "name": "_entitlement",
          "type": "address"
        },
        {
          "internalType": "uint256",
          "name": "_roleId",
          "type": "uint256"
        }
      ],
      "name": "addRoleToChannel",
      "outputs": [],
      "stateMutability": "nonpayable",
      "type": "function"
    },
    {
      "inputs": [
        {
          "internalType": "uint256",
          "name": "_roleId",
          "type": "uint256"
        },
        {
          "components": [
            {
              "internalType": "address",
              "name": "module",
              "type": "address"
            },
            {
              "internalType": "bytes",
              "name": "data",
              "type": "bytes"
            }
          ],
          "internalType": "struct DataTypes.Entitlement",
          "name": "_entitlement",
          "type": "tuple"
        }
      ],
      "name": "addRoleToEntitlement",
      "outputs": [],
      "stateMutability": "nonpayable",
      "type": "function"
    },
    {
      "inputs": [
        {
          "internalType": "uint256",
          "name": "",
          "type": "uint256"
        }
      ],
      "name": "channels",
      "outputs": [
        {
          "internalType": "bytes32",
          "name": "",
          "type": "bytes32"
        }
      ],
      "stateMutability": "view",
      "type": "function"
    },
    {
      "inputs": [
        {
          "internalType": "bytes32",
          "name": "",
          "type": "bytes32"
        }
      ],
      "name": "channelsByHash",
      "outputs": [
        {
          "internalType": "string",
          "name": "name",
          "type": "string"
        },
        {
          "internalType": "string",
          "name": "channelId",
          "type": "string"
        },
        {
          "internalType": "bytes32",
          "name": "channelHash",
          "type": "bytes32"
        },
        {
          "internalType": "uint256",
          "name": "createdAt",
          "type": "uint256"
        },
        {
          "internalType": "bool",
          "name": "disabled",
          "type": "bool"
        }
      ],
      "stateMutability": "view",
      "type": "function"
    },
    {
      "inputs": [],
      "name": "contractURI",
      "outputs": [
        {
          "internalType": "string",
          "name": "",
          "type": "string"
        }
      ],
      "stateMutability": "view",
      "type": "function"
    },
    {
      "inputs": [
        {
          "internalType": "string",
          "name": "channelName",
          "type": "string"
        },
        {
          "internalType": "string",
          "name": "channelId",
          "type": "string"
        },
        {
          "internalType": "uint256[]",
          "name": "roleIds",
          "type": "uint256[]"
        }
      ],
      "name": "createChannel",
      "outputs": [
        {
          "internalType": "bytes32",
          "name": "",
          "type": "bytes32"
        }
      ],
      "stateMutability": "nonpayable",
      "type": "function"
    },
    {
      "inputs": [
        {
          "internalType": "string",
          "name": "_roleName",
          "type": "string"
        },
        {
          "internalType": "string[]",
          "name": "_permissions",
          "type": "string[]"
        },
        {
          "components": [
            {
              "internalType": "address",
              "name": "module",
              "type": "address"
            },
            {
              "internalType": "bytes",
              "name": "data",
              "type": "bytes"
            }
          ],
          "internalType": "struct DataTypes.Entitlement[]",
          "name": "_entitlements",
          "type": "tuple[]"
        }
      ],
      "name": "createRole",
      "outputs": [
        {
          "internalType": "uint256",
          "name": "",
          "type": "uint256"
        }
      ],
      "stateMutability": "nonpayable",
      "type": "function"
    },
    {
      "inputs": [
        {
          "internalType": "address",
          "name": "",
          "type": "address"
        }
      ],
      "name": "defaultEntitlements",
      "outputs": [
        {
          "internalType": "bool",
          "name": "",
          "type": "bool"
        }
      ],
      "stateMutability": "view",
      "type": "function"
    },
    {
      "inputs": [],
      "name": "disabled",
      "outputs": [
        {
          "internalType": "bool",
          "name": "",
          "type": "bool"
        }
      ],
      "stateMutability": "view",
      "type": "function"
    },
    {
      "inputs": [
        {
          "internalType": "uint256",
          "name": "",
          "type": "uint256"
        }
      ],
      "name": "entitlements",
      "outputs": [
        {
          "internalType": "address",
          "name": "",
          "type": "address"
        }
      ],
      "stateMutability": "view",
      "type": "function"
    },
    {
      "inputs": [
        {
          "internalType": "bytes32",
          "name": "_channelHash",
          "type": "bytes32"
        }
      ],
      "name": "getChannelByHash",
      "outputs": [
        {
          "components": [
            {
              "internalType": "string",
              "name": "name",
              "type": "string"
            },
            {
              "internalType": "string",
              "name": "channelId",
              "type": "string"
            },
            {
              "internalType": "bytes32",
              "name": "channelHash",
              "type": "bytes32"
            },
            {
              "internalType": "uint256",
              "name": "createdAt",
              "type": "uint256"
            },
            {
              "internalType": "bool",
              "name": "disabled",
              "type": "bool"
            }
          ],
          "internalType": "struct DataTypes.Channel",
          "name": "",
          "type": "tuple"
        }
      ],
      "stateMutability": "view",
      "type": "function"
    },
    {
      "inputs": [],
      "name": "getChannels",
      "outputs": [
        {
          "internalType": "bytes32[]",
          "name": "",
          "type": "bytes32[]"
        }
      ],
      "stateMutability": "view",
      "type": "function"
    },
    {
      "inputs": [
        {
          "internalType": "string",
          "name": "_moduleType",
          "type": "string"
        }
      ],
      "name": "getEntitlementByModuleType",
      "outputs": [
        {
          "internalType": "address",
          "name": "",
          "type": "address"
        }
      ],
      "stateMutability": "view",
      "type": "function"
    },
    {
      "inputs": [
        {
          "internalType": "uint256",
          "name": "_roleId",
          "type": "uint256"
        }
      ],
      "name": "getEntitlementIdsByRoleId",
      "outputs": [
        {
          "internalType": "bytes32[]",
          "name": "",
          "type": "bytes32[]"
        }
      ],
      "stateMutability": "view",
      "type": "function"
    },
    {
      "inputs": [],
      "name": "getEntitlementModules",
      "outputs": [
        {
          "components": [
            {
              "internalType": "string",
              "name": "name",
              "type": "string"
            },
            {
              "internalType": "address",
              "name": "moduleAddress",
              "type": "address"
            },
            {
              "internalType": "string",
              "name": "moduleType",
              "type": "string"
            },
            {
              "internalType": "bool",
              "name": "enabled",
              "type": "bool"
            }
          ],
          "internalType": "struct DataTypes.EntitlementModule[]",
          "name": "_entitlementModules",
          "type": "tuple[]"
        }
      ],
      "stateMutability": "view",
      "type": "function"
    },
    {
      "inputs": [
        {
          "internalType": "uint256",
          "name": "_roleId",
          "type": "uint256"
        }
      ],
      "name": "getPermissionsByRoleId",
      "outputs": [
        {
          "internalType": "string[]",
          "name": "",
          "type": "string[]"
        }
      ],
      "stateMutability": "view",
      "type": "function"
    },
    {
      "inputs": [
        {
          "internalType": "uint256",
          "name": "_roleId",
          "type": "uint256"
        }
      ],
      "name": "getRoleById",
      "outputs": [
        {
          "components": [
            {
              "internalType": "uint256",
              "name": "roleId",
              "type": "uint256"
            },
            {
              "internalType": "string",
              "name": "name",
              "type": "string"
            }
          ],
          "internalType": "struct DataTypes.Role",
          "name": "",
          "type": "tuple"
        }
      ],
      "stateMutability": "view",
      "type": "function"
    },
    {
      "inputs": [],
      "name": "getRoles",
      "outputs": [
        {
          "components": [
            {
              "internalType": "uint256",
              "name": "roleId",
              "type": "uint256"
            },
            {
              "internalType": "string",
              "name": "name",
              "type": "string"
            }
          ],
          "internalType": "struct DataTypes.Role[]",
          "name": "",
          "type": "tuple[]"
        }
      ],
      "stateMutability": "view",
      "type": "function"
    },
    {
      "inputs": [
        {
          "internalType": "address",
          "name": "",
          "type": "address"
        }
      ],
      "name": "hasEntitlement",
      "outputs": [
        {
          "internalType": "bool",
          "name": "",
          "type": "bool"
        }
      ],
      "stateMutability": "view",
      "type": "function"
    },
    {
      "inputs": [
        {
          "internalType": "string",
          "name": "_name",
          "type": "string"
        },
        {
          "internalType": "string",
          "name": "_networkId",
          "type": "string"
        },
        {
          "internalType": "address",
          "name": "_token",
          "type": "address"
        },
        {
          "internalType": "uint256",
          "name": "_tokenId",
          "type": "uint256"
        },
        {
          "internalType": "address[]",
          "name": "_entitlements",
          "type": "address[]"
        }
      ],
      "name": "initialize",
      "outputs": [],
      "stateMutability": "nonpayable",
      "type": "function"
    },
    {
      "inputs": [
        {
          "internalType": "string",
          "name": "_channelId",
          "type": "string"
        },
        {
          "internalType": "address",
          "name": "_user",
          "type": "address"
        },
        {
          "internalType": "string",
          "name": "_permission",
          "type": "string"
        }
      ],
      "name": "isEntitledToChannel",
      "outputs": [
        {
          "internalType": "bool",
          "name": "_entitled",
          "type": "bool"
        }
      ],
      "stateMutability": "view",
      "type": "function"
    },
    {
      "inputs": [
        {
          "internalType": "address",
          "name": "_user",
          "type": "address"
        },
        {
          "internalType": "string",
          "name": "_permission",
          "type": "string"
        }
      ],
      "name": "isEntitledToSpace",
      "outputs": [
        {
          "internalType": "bool",
          "name": "_entitled",
          "type": "bool"
        }
      ],
      "stateMutability": "view",
      "type": "function"
    },
    {
      "inputs": [
        {
          "internalType": "bytes[]",
          "name": "data",
          "type": "bytes[]"
        }
      ],
      "name": "multicall",
      "outputs": [
        {
          "internalType": "bytes[]",
          "name": "results",
          "type": "bytes[]"
        }
      ],
      "stateMutability": "nonpayable",
      "type": "function"
    },
    {
      "inputs": [],
      "name": "name",
      "outputs": [
        {
          "internalType": "string",
          "name": "",
          "type": "string"
        }
      ],
      "stateMutability": "view",
      "type": "function"
    },
    {
      "inputs": [],
      "name": "networkId",
      "outputs": [
        {
          "internalType": "string",
          "name": "",
          "type": "string"
        }
      ],
      "stateMutability": "view",
      "type": "function"
    },
    {
      "inputs": [],
      "name": "owner",
      "outputs": [
        {
          "internalType": "address",
          "name": "",
          "type": "address"
        }
      ],
      "stateMutability": "view",
      "type": "function"
    },
    {
      "inputs": [],
      "name": "ownerRoleId",
      "outputs": [
        {
          "internalType": "uint256",
          "name": "",
          "type": "uint256"
        }
      ],
      "stateMutability": "view",
      "type": "function"
    },
    {
      "inputs": [],
      "name": "proxiableUUID",
      "outputs": [
        {
          "internalType": "bytes32",
          "name": "",
          "type": "bytes32"
        }
      ],
      "stateMutability": "view",
      "type": "function"
    },
    {
      "inputs": [
        {
          "internalType": "uint256",
          "name": "_roleId",
          "type": "uint256"
        },
        {
          "internalType": "string[]",
          "name": "_permissions",
          "type": "string[]"
        }
      ],
      "name": "removePermissionsFromRole",
      "outputs": [],
      "stateMutability": "nonpayable",
      "type": "function"
    },
    {
      "inputs": [
        {
          "internalType": "uint256",
          "name": "_roleId",
          "type": "uint256"
        }
      ],
      "name": "removeRole",
      "outputs": [],
      "stateMutability": "nonpayable",
      "type": "function"
    },
    {
      "inputs": [
        {
          "internalType": "string",
          "name": "_channelId",
          "type": "string"
        },
        {
          "internalType": "address",
          "name": "_entitlement",
          "type": "address"
        },
        {
          "internalType": "uint256",
          "name": "_roleId",
          "type": "uint256"
        }
      ],
      "name": "removeRoleFromChannel",
      "outputs": [],
      "stateMutability": "nonpayable",
      "type": "function"
    },
    {
      "inputs": [
        {
          "internalType": "uint256",
          "name": "_roleId",
          "type": "uint256"
        },
        {
          "components": [
            {
              "internalType": "address",
              "name": "module",
              "type": "address"
            },
            {
              "internalType": "bytes",
              "name": "data",
              "type": "bytes"
            }
          ],
          "internalType": "struct DataTypes.Entitlement",
          "name": "_entitlement",
          "type": "tuple"
        }
      ],
      "name": "removeRoleFromEntitlement",
      "outputs": [],
      "stateMutability": "nonpayable",
      "type": "function"
    },
    {
      "inputs": [],
      "name": "roleCount",
      "outputs": [
        {
          "internalType": "uint256",
          "name": "",
          "type": "uint256"
        }
      ],
      "stateMutability": "view",
      "type": "function"
    },
    {
      "inputs": [
        {
          "internalType": "uint256",
          "name": "",
          "type": "uint256"
        }
      ],
      "name": "rolesById",
      "outputs": [
        {
          "internalType": "uint256",
          "name": "roleId",
          "type": "uint256"
        },
        {
          "internalType": "string",
          "name": "name",
          "type": "string"
        }
      ],
      "stateMutability": "view",
      "type": "function"
    },
    {
      "inputs": [
        {
          "internalType": "string",
          "name": "channelId",
          "type": "string"
        },
        {
          "internalType": "bool",
          "name": "disableChannel",
          "type": "bool"
        }
      ],
      "name": "setChannelAccess",
      "outputs": [],
      "stateMutability": "nonpayable",
      "type": "function"
    },
    {
      "inputs": [
        {
          "internalType": "string",
          "name": "_uri",
          "type": "string"
        }
      ],
      "name": "setContractURI",
      "outputs": [],
      "stateMutability": "nonpayable",
      "type": "function"
    },
    {
      "inputs": [
        {
          "internalType": "address",
          "name": "_entitlementModule",
          "type": "address"
        },
        {
          "internalType": "bool",
          "name": "_whitelist",
          "type": "bool"
        }
      ],
      "name": "setEntitlementModule",
      "outputs": [],
      "stateMutability": "nonpayable",
      "type": "function"
    },
    {
      "inputs": [
        {
          "internalType": "uint256",
          "name": "_roleId",
          "type": "uint256"
        }
      ],
      "name": "setOwnerRoleId",
      "outputs": [],
      "stateMutability": "nonpayable",
      "type": "function"
    },
    {
      "inputs": [
        {
          "internalType": "bool",
          "name": "_disabled",
          "type": "bool"
        }
      ],
      "name": "setSpaceAccess",
      "outputs": [],
      "stateMutability": "nonpayable",
      "type": "function"
    },
    {
      "inputs": [],
      "name": "token",
      "outputs": [
        {
          "internalType": "address",
          "name": "",
          "type": "address"
        }
      ],
      "stateMutability": "view",
      "type": "function"
    },
    {
      "inputs": [],
      "name": "tokenId",
      "outputs": [
        {
          "internalType": "uint256",
          "name": "",
          "type": "uint256"
        }
      ],
      "stateMutability": "view",
      "type": "function"
    },
    {
      "inputs": [
        {
          "internalType": "string",
          "name": "channelId",
          "type": "string"
        },
        {
          "internalType": "string",
          "name": "channelName",
          "type": "string"
        }
      ],
      "name": "updateChannel",
      "outputs": [],
      "stateMutability": "nonpayable",
      "type": "function"
    },
    {
      "inputs": [
        {
          "internalType": "uint256",
          "name": "_roleId",
          "type": "uint256"
        },
        {
          "internalType": "string",
          "name": "_roleName",
          "type": "string"
        }
      ],
      "name": "updateRole",
      "outputs": [],
      "stateMutability": "nonpayable",
      "type": "function"
    },
    {
      "inputs": [
        {
          "internalType": "address",
          "name": "_entitlement",
          "type": "address"
        },
        {
          "internalType": "address",
          "name": "_newEntitlement",
          "type": "address"
        }
      ],
      "name": "upgradeEntitlement",
      "outputs": [],
      "stateMutability": "nonpayable",
      "type": "function"
    },
    {
      "inputs": [
        {
          "internalType": "address",
          "name": "newImplementation",
          "type": "address"
        }
      ],
      "name": "upgradeTo",
      "outputs": [],
      "stateMutability": "nonpayable",
      "type": "function"
    },
    {
      "inputs": [
        {
          "internalType": "address",
          "name": "newImplementation",
          "type": "address"
        },
        {
          "internalType": "bytes",
          "name": "data",
          "type": "bytes"
        }
      ],
      "name": "upgradeToAndCall",
      "outputs": [],
      "stateMutability": "payable",
      "type": "function"
    }
  ],
  "bytecode": {
    "object": "0x60a0604052306080523480156200001557600080fd5b506200002062000026565b620000e8565b600054610100900460ff1615620000935760405162461bcd60e51b815260206004820152602760248201527f496e697469616c697a61626c653a20636f6e747261637420697320696e697469604482015266616c697a696e6760c81b606482015260840160405180910390fd5b60005460ff9081161015620000e6576000805460ff191660ff9081179091556040519081527f7f26b83ff96e1f2b6a682f133852f6798a09c465da95921460cefb38474024989060200160405180910390a15b565b6080516154e162000120600039600081816112de0152818161131e0152818161166f015281816116af0152611bf801526154e16000f3fe6080604052600436106102ae5760003560e01c806381ed980811610175578063ba201ba8116100dc578063e5894ef411610095578063ee0708051161006f578063ee070805146108c5578063f28f9b56146108df578063fa6433c5146108ff578063fc0c546a1461092f57600080fd5b8063e5894ef414610862578063e5949b5d14610890578063e8a3d485146108b057600080fd5b8063ba201ba8146107b6578063baaf3d57146107d6578063cea632bc146107f6578063d1a6a96114610816578063dba818641461082c578063ddf963581461084c57600080fd5b8063938e3d7b1161012e578063938e3d7b146106e75780639575f6ac146107075780639a8e4c3e1461071c578063ac9650d81461073c578063b426423314610769578063b75157611461079657600080fd5b806381ed980814610619578063870b9464146106455780638da5cb5b1461067d5780638fcd793d146106925780639025e64c146106b257806392691821146106c757600080fd5b8063446dc22e116102195780635775029f116101d25780635775029f1461051c5780635de151b81461054d578063703511f81461056d578063710613981461059a578063784c872b146105bc5780637f8d06d0146105e957600080fd5b8063446dc22e146104745780634999ab16146104945780634f1ef286146104b4578063519607f2146104c757806351f83cea146104e757806352d1902d1461050757600080fd5b806322bcd7641161026b57806322bcd764146103a757806332e704cc146103c757806334a1dd26146103e75780633659cfe61461040757806342486e4914610427578063441555e51461045457600080fd5b806306fdde03146102b35780630d029f75146102de578063129ab3c81461030057806317d70f7c146103315780631dea616a1461035557806320759f9e14610377575b600080fd5b3480156102bf57600080fd5b506102c861094f565b6040516102d591906140ee565b60405180910390f35b3480156102ea57600080fd5b506102f36109dd565b6040516102d59190614101565b34801561030c57600080fd5b5061032061031b3660046141aa565b610c1e565b6040516102d59594939291906141c3565b34801561033d57600080fd5b50610347609d5481565b6040519081526020016102d5565b34801561036157600080fd5b50610375610370366004614265565b610d61565b005b34801561038357600080fd5b506103976103923660046142c1565b610e98565b60405190151581526020016102d5565b3480156103b357600080fd5b506103756103c23660046143fb565b610eee565b3480156103d357600080fd5b506103756103e23660046144fe565b6110d8565b3480156103f357600080fd5b50610375610402366004614544565b6111da565b34801561041357600080fd5b506103756104223660046145af565b6112d4565b34801561043357600080fd5b506104476104423660046141aa565b6113b3565b6040516102d591906145cc565b34801561046057600080fd5b5061037561046f36600461461e565b611415565b34801561048057600080fd5b5061037561048f366004614657565b6114e9565b3480156104a057600080fd5b506103756104af3660046141aa565b611521565b6103756104c2366004614674565b611665565b3480156104d357600080fd5b506103756104e23660046146ad565b611731565b3480156104f357600080fd5b506103476105023660046146db565b61184c565b34801561051357600080fd5b50610347611beb565b34801561052857600080fd5b506102c860405180604001604052806005815260200164537061636560d81b81525081565b34801561055957600080fd5b506103756105683660046147bc565b611c9e565b34801561057957600080fd5b5061058d6105883660046141aa565b611d64565b6040516102d59190614812565b3480156105a657600080fd5b506105af611ef5565b6040516102d5919061489f565b3480156105c857600080fd5b506105dc6105d73660046141aa565b612063565b6040516102d59190614901565b3480156105f557600080fd5b506103976106043660046145af565b609e6020526000908152604090205460ff1681565b34801561062557600080fd5b5061062e600181565b60405165ffffffffffff90911681526020016102d5565b34801561065157600080fd5b50610665610660366004614914565b612139565b6040516001600160a01b0390911681526020016102d5565b34801561068957600080fd5b50610665612222565b34801561069e57600080fd5b506103476106ad366004614a4b565b612299565b3480156106be57600080fd5b506102c86125cc565b3480156106d357600080fd5b506103756106e23660046141aa565b6125d9565b3480156106f357600080fd5b50610375610702366004614b46565b612718565b34801561071357600080fd5b506104476127ab565b34801561072857600080fd5b50610375610737366004614b87565b612803565b34801561074857600080fd5b5061075c610757366004614bc3565b612a18565b6040516102d59190614c37565b34801561077557600080fd5b506107896107843660046141aa565b612b2f565b6040516102d59190614c8c565b3480156107a257600080fd5b506103756107b1366004614b87565b612c7c565b3480156107c257600080fd5b506103756107d1366004614ce1565b612e1c565b3480156107e257600080fd5b506103756107f1366004614265565b612efd565b34801561080257600080fd5b50610397610811366004614d1d565b612ffc565b34801561082257600080fd5b50610347609b5481565b34801561083857600080fd5b50610375610847366004614da1565b61312c565b34801561085857600080fd5b5061034760a25481565b34801561086e57600080fd5b5061088261087d3660046141aa565b61339d565b6040516102d5929190614de3565b34801561089c57600080fd5b506103476108ab3660046141aa565b613442565b3480156108bc57600080fd5b506102c8613463565b3480156108d157600080fd5b50609a546103979060ff1681565b3480156108eb57600080fd5b506106656108fa3660046141aa565b613470565b34801561090b57600080fd5b5061039761091a3660046145af565b609f6020526000908152604090205460ff1681565b34801561093b57600080fd5b50609c54610665906001600160a01b031681565b6098805461095c90614dfc565b80601f016020809104026020016040519081016040528092919081815260200182805461098890614dfc565b80156109d55780601f106109aa576101008083540402835291602001916109d5565b820191906000526020600020905b8154815290600101906020018083116109b857829003601f168201915b505050505081565b60a1546060906001600160401b038111156109fa576109fa614315565b604051908082528060200260200182016040528015610a4d57816020015b60408051608081018252606080825260006020808401829052938301829052908201528252600019909201910181610a185790505b50905060005b60a154811015610c1a57600060a18281548110610a7257610a72614e30565b600091825260208220015460408051608081018083526306fdde0360e01b905290516001600160a01b03909216935091829184916306fdde039160848086019291908187030181865afa158015610acd573d6000803e3d6000fd5b505050506040513d6000823e601f3d908101601f19168201604052610af59190810190614e46565b815260200160a18481548110610b0d57610b0d614e30565b9060005260206000200160009054906101000a90046001600160a01b03166001600160a01b03168152602001826001600160a01b0316636465e69f6040518163ffffffff1660e01b8152600401600060405180830381865afa158015610b77573d6000803e3d6000fd5b505050506040513d6000823e601f3d908101601f19168201604052610b9f9190810190614e46565b8152602001609e600060a18681548110610bbb57610bbb614e30565b60009182526020808320909101546001600160a01b0316835282019290925260400190205460ff16151590528351849084908110610bfb57610bfb614e30565b6020026020010181905250508080610c1290614ec9565b915050610a53565b5090565b60a560205260009081526040902080548190610c3990614dfc565b80601f0160208091040260200160405190810160405280929190818152602001828054610c6590614dfc565b8015610cb25780601f10610c8757610100808354040283529160200191610cb2565b820191906000526020600020905b815481529060010190602001808311610c9557829003601f168201915b505050505090806001018054610cc790614dfc565b80601f0160208091040260200160405190810160405280929190818152602001828054610cf390614dfc565b8015610d405780601f10610d1557610100808354040283529160200191610d40565b820191906000526020600020905b815481529060010190602001808311610d2357829003601f168201915b50505050600283015460038401546004909401549293909290915060ff1685565b610dc984848080601f0160208091040260200160405190810160405280939291908181526020018383808284376000920191909152505060408051808201909152601181527041646452656d6f76654368616e6e656c7360781b6020820152915061349a9050565b6001600160a01b0382166000908152609e602052604090205460ff16610e025760405163c1ef36f360e01b815260040160405180910390fd5b600081815260a360205260408120549003610e305760405163b810dc5d60e01b815260040160405180910390fd5b60405163c513be7760e01b81526001600160a01b0383169063c513be7790610e6090879087908690600401614f0b565b600060405180830381600087803b158015610e7a57600080fd5b505af1158015610e8e573d6000803e3d6000fd5b5050505050505050565b6000610ede60405180602001604052806000815250858585604051602001610ec1929190614f2f565b604051602081830303815290604052610ed990614f3f565b6134ee565b15610ee7575060015b9392505050565b600054610100900460ff1615808015610f0e5750600054600160ff909116105b80610f285750303b158015610f28575060005460ff166001145b610f905760405162461bcd60e51b815260206004820152602e60248201527f496e697469616c697a61626c653a20636f6e747261637420697320616c72656160448201526d191e481a5b9a5d1a585b1a5e995960921b60648201526084015b60405180910390fd5b6000805460ff191660011790558015610fb3576000805461ff0019166101001790555b610fbb6135a7565b610fc36135a7565b6098610fcf8782614fa9565b506099610fdc8682614fa9565b50609c80546001600160a01b0319166001600160a01b038616179055609d83905560005b82518110156110895761102d83828151811061101e5761101e614e30565b60200260200101516001613614565b6001609f600085848151811061104557611045614e30565b6020908102919091018101516001600160a01b03168252810191909152604001600020805460ff19169115159190911790558061108181614ec9565b915050611000565b5080156110d0576000805461ff0019169055604051600181527f7f26b83ff96e1f2b6a682f133852f6798a09c465da95921460cefb38474024989060200160405180910390a15b505050505050565b61111c60405180602001604052806000815250604051806040016040528060138152602001724d6f64696679537061636553657474696e677360681b81525061349a565b61112581613795565b609b54820361114757604051631eb49d6d60e11b815260040160405180910390fd5b600082815260a3602052604081205490036111755760405163b810dc5d60e01b815260040160405180910390fd5b600082815260a3602052604090206001016111908282614fa9565b5081336001600160a01b03167ff3c55faf0b13ffa681c984baddbb8ef7638e514188ea19bd6461d7f87b9c79538360996040516111ce9291906150e5565b60405180910390a35050565b61121c604051806020016040528060008152506040518060400160405280601181526020017041646452656d6f76654368616e6e656c7360781b81525061349a565b61125b82828080601f01602080910402602001604051908101604052809392919081815260200183838082843760009201919091525061379592505050565b60008484604051602001611270929190614f2f565b60408051601f198184030181529181528151602092830120600081815260a59093529082206002015490925090036112bb57604051636ddd9da960e01b815260040160405180910390fd5b600081815260a5602052604090206110d083858361510a565b6001600160a01b037f000000000000000000000000000000000000000000000000000000000000000016300361131c5760405162461bcd60e51b8152600401610f87906151c9565b7f00000000000000000000000000000000000000000000000000000000000000006001600160a01b0316611365600080516020615465833981519152546001600160a01b031690565b6001600160a01b03161461138b5760405162461bcd60e51b8152600401610f8790615215565b611394816137c6565b604080516000808252602082019092526113b0918391906137fc565b50565b600081815260a0602090815260409182902080548351818402810184019094528084526060939283018282801561140957602002820191906000526020600020905b8154815260200190600101908083116113f5575b50505050509050919050565b61144b604051806020016040528060008152506040518060400160405280600581526020016427bbb732b960d91b81525061349a565b61145482613967565b80801561147957506001600160a01b0382166000908152609e602052604090205460ff165b156114975760405163186abc9b60e01b815260040160405180910390fd5b801580156114bd57506001600160a01b0382166000908152609f602052604090205460ff165b156114db57604051631eb49d6d60e11b815260040160405180910390fd5b6114e58282613614565b5050565b6114f16139f8565b61150e57604051631eb49d6d60e11b815260040160405180910390fd5b609a805460ff1916911515919091179055565b6115296139f8565b61154657604051631eb49d6d60e11b815260040160405180910390fd5b609b541561156757604051631eb49d6d60e11b815260040160405180910390fd5b600081815260a3602052604081205490036115955760405163b810dc5d60e01b815260040160405180910390fd5b6000805b600083815260a46020526040902054811015611640576040518060400160405280600581526020016427bbb732b960d91b8152506040516020016115dd9190615261565b6040516020818303038152906040526115f590614f3f565b600084815260a46020526040902080548390811061161557611615614e30565b90600052602060002001540361162e5760019150611640565b8061163881614ec9565b915050611599565b508061165f57604051633e74bd6360e21b815260040160405180910390fd5b50609b55565b6001600160a01b037f00000000000000000000000000000000000000000000000000000000000000001630036116ad5760405162461bcd60e51b8152600401610f87906151c9565b7f00000000000000000000000000000000000000000000000000000000000000006001600160a01b03166116f6600080516020615465833981519152546001600160a01b031690565b6001600160a01b03161461171c5760405162461bcd60e51b8152600401610f8790615215565b611725826137c6565b6114e5828260016137fc565b611767604051806020016040528060008152506040518060400160405280600581526020016427bbb732b960d91b81525061349a565b6001600160a01b038216158061178457506001600160a01b038116155b156117a257604051630e52390960e41b815260040160405180910390fd5b6001600160a01b0382166000908152609e602052604090205460ff166117db5760405163c1ef36f360e01b815260040160405180910390fd5b604051631b2ce7f360e11b81526001600160a01b038281166004830152831690633659cfe690602401600060405180830381600087803b15801561181e57600080fd5b505af192505050801561182f575060015b6114e557604051630e52390960e41b815260040160405180910390fd5b6000611890604051806020016040528060008152506040518060400160405280601181526020017041646452656d6f76654368616e6e656c7360781b81525061349a565b6118cf85858080601f01602080910402602001604051908101604052809392919081815260200183838082843760009201919091525061379592505050565b6000836040516020016118e29190615261565b60408051601f198184030181529181528151602092830120600081815260a59093529120600201549091501561192b57604051630139324b60e41b815260040160405180910390fd5b6040518060a0016040528087878080601f016020809104026020016040519081016040528093929190818152602001838380828437600092018290525093855250505060208083018890526040808401869052426060850152608090930182905284825260a5905220815181906119a29082614fa9565b50602082015160018201906119b79082614fa9565b5060408201516002820155606082015160038201556080909101516004909101805460ff191691151591909117905560a6805460018101825560009182527f2da56674729343acc9933752c8c469a244252915242eb6d4c02d11ddd69164a1018290555b60a154811015611be157600060a18281548110611a3a57611a3a614e30565b600091825260209091200154609b5460405163c513be7760e01b81526001600160a01b039092169250829163c513be7791611a7a918a919060040161527d565b600060405180830381600087803b158015611a9457600080fd5b505af1158015611aa8573d6000803e3d6000fd5b5050505060005b8551811015611bcc57609b54868281518110611acd57611acd614e30565b60200260200101510315611bba5760a36000878381518110611af157611af1614e30565b6020026020010151815260200190815260200160002060000154600003611b2b5760405163b810dc5d60e01b815260040160405180910390fd5b816001600160a01b031663c513be7788888481518110611b4d57611b4d614e30565b60200260200101516040518363ffffffff1660e01b8152600401611b7292919061527d565b600060405180830381600087803b158015611b8c57600080fd5b505af1925050508015611b9d575060015b611bba5760405163d9afe50760e01b815260040160405180910390fd5b80611bc481614ec9565b915050611aaf565b50508080611bd990614ec9565b915050611a1b565b5095945050505050565b6000306001600160a01b037f00000000000000000000000000000000000000000000000000000000000000001614611c8b5760405162461bcd60e51b815260206004820152603860248201527f555550535570677261646561626c653a206d757374206e6f742062652063616c60448201527f6c6564207468726f7567682064656c656761746563616c6c00000000000000006064820152608401610f87565b5060008051602061546583398151915290565b611ce0604051806020016040528060008152506040518060400160405280601181526020017041646452656d6f76654368616e6e656c7360781b81525061349a565b60008383604051602001611cf5929190614f2f565b60408051601f198184030181529181528151602092830120600081815260a5909352908220600201549092509003611d4057604051636ddd9da960e01b815260040160405180910390fd5b600090815260a560205260409020600401805460ff19169115159190911790555050565b6040805160a081018252606080825260208201819052600092820183905281018290526080810191909152600082815260a5602052604090819020815160a08101909252805482908290611db790614dfc565b80601f0160208091040260200160405190810160405280929190818152602001828054611de390614dfc565b8015611e305780601f10611e0557610100808354040283529160200191611e30565b820191906000526020600020905b815481529060010190602001808311611e1357829003601f168201915b50505050508152602001600182018054611e4990614dfc565b80601f0160208091040260200160405190810160405280929190818152602001828054611e7590614dfc565b8015611ec25780601f10611e9757610100808354040283529160200191611ec2565b820191906000526020600020905b815481529060010190602001808311611ea557829003601f168201915b5050509183525050600282015460208201526003820154604082015260049091015460ff16151560609091015292915050565b6060600060a2546001600160401b03811115611f1357611f13614315565b604051908082528060200260200182016040528015611f5957816020015b604080518082019091526000815260606020820152815260200190600190039081611f315790505b50905060005b60a25481101561205d5760a36000611f7883600161529f565b815260200190815260200160002060405180604001604052908160008201548152602001600182018054611fab90614dfc565b80601f0160208091040260200160405190810160405280929190818152602001828054611fd790614dfc565b80156120245780601f10611ff957610100808354040283529160200191612024565b820191906000526020600020905b81548152906001019060200180831161200757829003601f168201915b50505050508152505082828151811061203f5761203f614e30565b6020026020010181905250808061205590614ec9565b915050611f5f565b50919050565b60408051808201909152600081526060602082015260a36000838152602001908152602001600020604051806040016040529081600082015481526020016001820180546120b090614dfc565b80601f01602080910402602001604051908101604052809291908181526020018280546120dc90614dfc565b80156121295780601f106120fe57610100808354040283529160200191612129565b820191906000526020600020905b81548152906001019060200180831161210c57829003601f168201915b5050505050815250509050919050565b60008060005b60a15481101561221b576121d960a1828154811061215f5761215f614e30565b600091825260208220015460408051636465e69f60e01b815290516001600160a01b0390921692636465e69f926004808401938290030181865afa1580156121ab573d6000803e3d6000fd5b505050506040513d6000823e601f3d908101601f191682016040526121d39190810190614e46565b85613a7f565b156122095760a181815481106121f1576121f1614e30565b6000918252602090912001546001600160a01b031691505b8061221381614ec9565b91505061213f565b5092915050565b609c54609d546040516331a9108f60e11b815260048101919091526000916001600160a01b031690636352211e90602401602060405180830381865afa158015612270573d6000803e3d6000fd5b505050506040513d601f19601f8201168201806040525081019061229491906152b2565b905090565b60006122df60405180602001604052806000815250604051806040016040528060138152602001724d6f64696679537061636553657474696e677360681b81525061349a565b61231e85858080601f01602080910402602001604051908101604052809392919081815260200183838082843760009201919091525061379592505050565b600060a26000815461232f90614ec9565b91905081905590506000604051806040016040528083815260200188888080601f016020809104026020016040519081016040528093929190818152602001838380828437600092018290525093909452505084815260a3602090815260409091208351815590830151929350839290915060018201906123b09082614fa9565b5090505060005b85518110156124a057609b541515801561240c575061240c8682815181106123e1576123e1614e30565b60200260200101516040518060400160405280600581526020016427bbb732b960d91b815250613a7f565b1561242a57604051631eb49d6d60e11b815260040160405180910390fd5b600086828151811061243e5761243e614e30565b60200260200101516040516020016124569190615261565b60405160208183030381529060405261246e90614f3f565b600085815260a4602090815260408220805460018101825590835291200155508061249881614ec9565b9150506123b7565b5060005b845181101561257a5760008582815181106124c1576124c1614e30565b602002602001015160000151905060008683815181106124e3576124e3614e30565b602002602001015160200151905060006001600160a01b0316826001600160a01b0316148061251157508051155b1561251d575050612568565b6001600160a01b0382166000908152609e602052604081205460ff161515900361255a5760405163c1ef36f360e01b815260040160405180910390fd5b612565858383613ad9565b50505b8061257281614ec9565b9150506124a4565b5081336001600160a01b03167f39772407c6dd2e83adbd292cdfa17a6817c9a7500e56cfe57b7a82d797f8d39b898960996040516125ba939291906152cf565b60405180910390a35095945050505050565b6099805461095c90614dfc565b61261d60405180602001604052806000815250604051806040016040528060138152602001724d6f64696679537061636553657474696e677360681b81525061349a565b609b54810361263f57604051631eb49d6d60e11b815260040160405180910390fd5b600081815260a36020526040812054900361266d5760405163b810dc5d60e01b815260040160405180910390fd5b600081815260a060205260409020541561269a57604051633764405360e11b815260040160405180910390fd5b600081815260a360205260408120818155906126b96001830182614035565b5050600081815260a4602052604081206126d29161406f565b80336001600160a01b03167f1d5667a301e36f2d5b1ee32b7f187b0adb46c706297242fa945d3fed1e7f8a19609960405161270d91906152ff565b60405180910390a350565b612720613c49565b61276c5760405162461bcd60e51b815260206004820152601860248201527f4d657461646174613a206e6f7420617574686f72697a656400000000000000006044820152606401610f87565b6114e582828080601f016020809104026020016040519081016040528093929190818152602001838380828437600092019190915250613c5392505050565b606060a68054806020026020016040519081016040528092919081815260200182805480156127f957602002820191906000526020600020905b8154815260200190600101908083116127e5575b5050505050905090565b61284760405180602001604052806000815250604051806040016040528060138152602001724d6f64696679537061636553657474696e677360681b81525061349a565b600082815260a3602052604081205490036128755760405163b810dc5d60e01b815260040160405180910390fd5b60005b8151811015612a13576128968282815181106123e1576123e1614e30565b156128b457604051631eb49d6d60e11b815260040160405180910390fd5b60008282815181106128c8576128c8614e30565b60200260200101516040516020016128e09190615261565b6040516020818303038152906040526128f890614f3f565b905060005b600085815260a460205260409020548110156129fe57600085815260a46020526040902080548391908390811061293657612936614e30565b9060005260206000200154036129ec57600085815260a460205260409020805461296290600190615312565b8154811061297257612972614e30565b906000526020600020015460a4600087815260200190815260200160002082815481106129a1576129a1614e30565b906000526020600020018190555060a460008681526020019081526020016000208054806129d1576129d1615325565b600190038181906000526020600020016000905590556129fe565b806129f681614ec9565b9150506128fd565b50508080612a0b90614ec9565b915050612878565b505050565b6060816001600160401b03811115612a3257612a32614315565b604051908082528060200260200182016040528015612a6557816020015b6060815260200190600190039081612a505790505b50905060005b8281101561221b5760008030868685818110612a8957612a89614e30565b9050602002810190612a9b919061533b565b604051612aa9929190614f2f565b600060405180830381855af49150503d8060008114612ae4576040519150601f19603f3d011682016040523d82523d6000602084013e612ae9565b606091505b509150915081612afc57612afc81613d2f565b80848481518110612b0f57612b0f614e30565b602002602001018190525050508080612b2790614ec9565b915050612a6b565b600081815260a46020526040812054606091816001600160401b03811115612b5957612b59614315565b604051908082528060200260200182016040528015612b8c57816020015b6060815260200190600190039081612b775790505b50905060005b82811015612c7457600085815260a460205260409020805473__$f1e35cfc222e0f213e29c506cab45be2ef$__91639201de559184908110612bd657612bd6614e30565b90600052602060002001546040518263ffffffff1660e01b8152600401612bff91815260200190565b600060405180830381865af4158015612c1c573d6000803e3d6000fd5b505050506040513d6000823e601f3d908101601f19168201604052612c449190810190614e46565b828281518110612c5657612c56614e30565b60200260200101819052508080612c6c90614ec9565b915050612b92565b509392505050565b612cc060405180602001604052806000815250604051806040016040528060138152602001724d6f64696679537061636553657474696e677360681b81525061349a565b600082815260a360205260408120549003612cee5760405163b810dc5d60e01b815260040160405180910390fd5b60005b8151811015612a1357612d0f8282815181106123e1576123e1614e30565b15612d2d57604051631eb49d6d60e11b815260040160405180910390fd5b6000828281518110612d4157612d41614e30565b6020026020010151604051602001612d599190615261565b604051602081830303815290604052612d7190614f3f565b905060005b600085815260a46020526040902054811015612dea57600085815260a460205260409020805483919083908110612daf57612daf614e30565b906000526020600020015403612dd857604051636571d65f60e01b815260040160405180910390fd5b80612de281614ec9565b915050612d76565b50600084815260a460209081526040822080546001810182559083529120015580612e1481614ec9565b915050612cf1565b612e6060405180602001604052806000815250604051806040016040528060138152602001724d6f64696679537061636553657474696e677360681b81525061349a565b80516001600160a01b03166000908152609e602052604090205460ff16612e9a5760405163c1ef36f360e01b815260040160405180910390fd5b600082815260a360205260408120549003612ec85760405163b810dc5d60e01b815260040160405180910390fd5b609b548203612eea57604051631eb49d6d60e11b815260040160405180910390fd5b6114e58282600001518360200151613ad9565b612f6584848080601f0160208091040260200160405190810160405280939291908181526020018383808284376000920191909152505060408051808201909152601181527041646452656d6f76654368616e6e656c7360781b6020820152915061349a9050565b6001600160a01b0382166000908152609e602052604090205460ff16612f9e5760405163c1ef36f360e01b815260040160405180910390fd5b600081815260a360205260408120549003612fcc5760405163b810dc5d60e01b815260040160405180910390fd5b604051637997c1e760e11b81526001600160a01b0383169063f32f83ce90610e6090879087908690600401614f0b565b6000841580613009575081155b8061301b57506001600160a01b038416155b1561303957604051630e52390960e41b815260040160405180910390fd5b6000868660405160200161304e929190614f2f565b60408051601f198184030181529181528151602092830120600081815260a590935290822060020154909250900361309957604051636ddd9da960e01b815260040160405180910390fd5b600081815260a5602052604090206004015460ff16156130cc57604051631eb49d6d60e11b815260040160405180910390fd5b61311a87878080601f01602080910402602001604051908101604052809392919081815260200183838082843760009201919091525050604051899250610ec1915088908890602001614f2f565b15611be1575060019695505050505050565b61317060405180602001604052806000815250604051806040016040528060138152602001724d6f64696679537061636553657474696e677360681b81525061349a565b609b54820361319257604051631eb49d6d60e11b815260040160405180910390fd5b609e60006131a360208401846145af565b6001600160a01b0316815260208101919091526040016000205460ff166131dd5760405163c1ef36f360e01b815260040160405180910390fd5b600082815260a36020526040812054900361320b5760405163b810dc5d60e01b815260040160405180910390fd5b60008261321b602084018461533b565b60405160200161322d93929190615381565b60408051601f198184030181529181528151602092830120600086815260a0909352908220909250905b815481101561330b5781818154811061327257613272614e30565b906000526020600020015483036132f9578154829061329390600190615312565b815481106132a3576132a3614e30565b90600052602060002001548282815481106132c0576132c0614e30565b9060005260206000200181905550818054806132de576132de615325565b6001900381819060005260206000200160009055905561330b565b8061330381614ec9565b915050613257565b5061331960208401846145af565b6001600160a01b031663fa6d1adf85613335602087018761533b565b6040518463ffffffff1660e01b81526004016133539392919061539b565b6020604051808303816000875af1158015613372573d6000803e3d6000fd5b505050506040513d601f19601f8201168201806040525081019061339691906153b5565b5050505050565b60a360205260009081526040902080546001820180549192916133bf90614dfc565b80601f01602080910402602001604051908101604052809291908181526020018280546133eb90614dfc565b80156134385780601f1061340d57610100808354040283529160200191613438565b820191906000526020600020905b81548152906001019060200180831161341b57829003601f168201915b5050505050905082565b60a6818154811061345257600080fd5b600091825260209091200154905081565b6097805461095c90614dfc565b60a1818154811061348057600080fd5b6000918252602090912001546001600160a01b0316905081565b6134a26139f8565b806134cc5750609a5460ff161580156134cc57506134cc823383604051602001610ec19190615261565b156134d5575050565b604051631eb49d6d60e11b815260040160405180910390fd5b6000805b60a154811015612c745760a1818154811061350f5761350f614e30565b60009182526020909120015460405162169d5560e31b81526001600160a01b039091169062b4eaa89061354a908890889088906004016153ce565b602060405180830381865afa158015613567573d6000803e3d6000fd5b505050506040513d601f19601f8201168201806040525081019061358b91906153fc565b1561359557600191505b8061359f81614ec9565b9150506134f2565b600054610100900460ff166136125760405162461bcd60e51b815260206004820152602b60248201527f496e697469616c697a61626c653a20636f6e7472616374206973206e6f74206960448201526a6e697469616c697a696e6760a81b6064820152608401610f87565b565b6001600160a01b0382166000908152609e60205260409020805460ff191682158015919091179091556136925760a180546001810182556000919091527faadc37b8ba5645e62f4546802db221593a94729ccbfc5a97d01365a88f6498780180546001600160a01b0384166001600160a01b03199091161790555050565b60005b60a154811015612a135760a181815481106136b2576136b2614e30565b6000918252602090912001546001600160a01b03908116908416036137835760a180546136e190600190615312565b815481106136f1576136f1614e30565b60009182526020909120015460a180546001600160a01b03909216918390811061371d5761371d614e30565b9060005260206000200160006101000a8154816001600160a01b0302191690836001600160a01b0316021790555060a180548061375c5761375c615325565b600082815260209020810160001990810180546001600160a01b0319169055019055505050565b8061378d81614ec9565b915050613695565b80518190600211806137a8575080516020105b156114e55760405163354b556f60e11b815260040160405180910390fd5b6113b0604051806020016040528060008152506040518060400160405280600581526020016427bbb732b960d91b81525061349a565b7f4910fdfa16fed3260ed0e7147f7cc6da11a60208b5b9406d12a635614ffd91435460ff161561382f57612a1383613dfc565b826001600160a01b03166352d1902d6040518163ffffffff1660e01b8152600401602060405180830381865afa925050508015613889575060408051601f3d908101601f19168201909252613886918101906153b5565b60015b6138ec5760405162461bcd60e51b815260206004820152602e60248201527f45524331393637557067726164653a206e657720696d706c656d656e7461746960448201526d6f6e206973206e6f74205555505360901b6064820152608401610f87565b600080516020615465833981519152811461395b5760405162461bcd60e51b815260206004820152602960248201527f45524331393637557067726164653a20756e737570706f727465642070726f786044820152681a58589b195555525160ba1b6064820152608401610f87565b50612a13838383613e98565b6040516301ffc9a760e01b815263a485103160e01b60048201526001600160a01b038216906301ffc9a790602401602060405180830381865afa1580156139b2573d6000803e3d6000fd5b505050506040513d601f19601f820116820180604052508101906139d691906153fc565b15156000036113b057604051636d9250f160e11b815260040160405180910390fd5b600033609c54609d546040516331a9108f60e11b815260048101919091526001600160a01b039283169290911690636352211e90602401602060405180830381865afa158015613a4c573d6000803e3d6000fd5b505050506040513d601f19601f82011682018060405250810190613a7091906152b2565b6001600160a01b031614905090565b600081604051602001613a9291906140ee565b6040516020818303038152906040528051906020012083604051602001613ab991906140ee565b604051602081830303815290604052805190602001201490505b92915050565b60008382604051602001613aee929190615419565b60408051601f198184030181528282528051602091820120600088815260a0835283812080548085028701850190955284865291955093929091830182828015613b5757602002820191906000526020600020905b815481526020019060010190808311613b43575b5050505050905060005b8151811015613bb55782828281518110613b7d57613b7d614e30565b602002602001015103613ba35760405163c5c9ad6760e01b815260040160405180910390fd5b80613bad81614ec9565b915050613b61565b50600085815260a0602090815260408083208054600181018255908452919092200183905551633be2f95d60e21b81526001600160a01b0385169063ef8be57490613c069088908790600401614de3565b6020604051808303816000875af1158015613c25573d6000803e3d6000fd5b505050506040513d601f19601f820116820180604052508101906110d091906153b5565b60006122946139f8565b600060978054613c6290614dfc565b80601f0160208091040260200160405190810160405280929190818152602001828054613c8e90614dfc565b8015613cdb5780601f10613cb057610100808354040283529160200191613cdb565b820191906000526020600020905b815481529060010190602001808311613cbe57829003601f168201915b505050505090508160979081613cf19190614fa9565b507fc9c7c3fe08b88b4df9d4d47ef47d2c43d55c025a0ba88ca442580ed9e7348a168183604051613d2392919061543f565b60405180910390a15050565b600481511015613d745760405162461bcd60e51b815260206004820152601060248201526f1d5b9a185b991b1959081c995d995c9d60821b6044820152606401610f87565b602081015163b1b7848f60e01b6001600160e01b0319821601613df357604080518082018252600e81526d70616e69636b65643a2030785f5f60901b602082018181526024860151600481811c600f908116603090810160081b9184160117909317909152925162461bcd60e51b8152919291610f87918491016140ee565b81518060208401fd5b6001600160a01b0381163b613e695760405162461bcd60e51b815260206004820152602d60248201527f455243313936373a206e657720696d706c656d656e746174696f6e206973206e60448201526c1bdd08184818dbdb9d1c9858dd609a1b6064820152608401610f87565b60008051602061546583398151915280546001600160a01b0319166001600160a01b0392909216919091179055565b613ea183613ec3565b600082511180613eae5750805b15612a1357613ebd8383613f03565b50505050565b613ecc81613dfc565b6040516001600160a01b038216907fbc7cd75a20ee27fd9adebab32041f755214dbc6bffa90cc0225b39da2e5c2d3b90600090a250565b60606001600160a01b0383163b613f6b5760405162461bcd60e51b815260206004820152602660248201527f416464726573733a2064656c65676174652063616c6c20746f206e6f6e2d636f6044820152651b9d1c9858dd60d21b6064820152608401610f87565b600080846001600160a01b031684604051613f869190615261565b600060405180830381855af49150503d8060008114613fc1576040519150601f19603f3d011682016040523d82523d6000602084013e613fc6565b606091505b5091509150613fee828260405180606001604052806027815260200161548560279139613ff7565b95945050505050565b60608315614006575081610ee7565b610ee7838381511561401b5781518083602001fd5b8060405162461bcd60e51b8152600401610f8791906140ee565b50805461404190614dfc565b6000825580601f10614051575050565b601f0160209004906000526020600020908101906113b09190614089565b50805460008255906000526020600020908101906113b091905b5b80821115610c1a576000815560010161408a565b60005b838110156140b95781810151838201526020016140a1565b50506000910152565b600081518084526140da81602086016020860161409e565b601f01601f19169290920160200192915050565b602081526000610ee760208301846140c2565b60006020808301818452808551808352604092508286019150828160051b87010184880160005b8381101561419c57603f1989840301855281516080815181865261414e828701826140c2565b838b01516001600160a01b0316878c0152898401518782038b890152909250905061417982826140c2565b606093840151151596909301959095525094870194925090860190600101614128565b509098975050505050505050565b6000602082840312156141bc57600080fd5b5035919050565b60a0815260006141d660a08301886140c2565b82810360208401526141e881886140c2565b604084019690965250506060810192909252151560809091015292915050565b60008083601f84011261421a57600080fd5b5081356001600160401b0381111561423157600080fd5b60208301915083602082850101111561424957600080fd5b9250929050565b6001600160a01b03811681146113b057600080fd5b6000806000806060858703121561427b57600080fd5b84356001600160401b0381111561429157600080fd5b61429d87828801614208565b90955093505060208501356142b181614250565b9396929550929360400135925050565b6000806000604084860312156142d657600080fd5b83356142e181614250565b925060208401356001600160401b038111156142fc57600080fd5b61430886828701614208565b9497909650939450505050565b634e487b7160e01b600052604160045260246000fd5b604051601f8201601f191681016001600160401b038111828210171561435357614353614315565b604052919050565b60006001600160401b0382111561437457614374614315565b50601f01601f191660200190565b600082601f83011261439357600080fd5b81356143a66143a18261435b565b61432b565b8181528460208386010111156143bb57600080fd5b816020850160208301376000918101602001919091529392505050565b60006001600160401b038211156143f1576143f1614315565b5060051b60200190565b600080600080600060a0868803121561441357600080fd5b85356001600160401b038082111561442a57600080fd5b61443689838a01614382565b965060209150818801358181111561444d57600080fd5b6144598a828b01614382565b965050604088013561446a81614250565b94506060880135935060808801358181111561448557600080fd5b88019050601f8101891361449857600080fd5b80356144a66143a1826143d8565b81815260059190911b8201830190838101908b8311156144c557600080fd5b928401925b828410156144ec5783356144dd81614250565b825292840192908401906144ca565b80955050505050509295509295909350565b6000806040838503121561451157600080fd5b8235915060208301356001600160401b0381111561452e57600080fd5b61453a85828601614382565b9150509250929050565b6000806000806040858703121561455a57600080fd5b84356001600160401b038082111561457157600080fd5b61457d88838901614208565b9096509450602087013591508082111561459657600080fd5b506145a387828801614208565b95989497509550505050565b6000602082840312156145c157600080fd5b8135610ee781614250565b6020808252825182820181905260009190848201906040850190845b81811015614604578351835292840192918401916001016145e8565b50909695505050505050565b80151581146113b057600080fd5b6000806040838503121561463157600080fd5b823561463c81614250565b9150602083013561464c81614610565b809150509250929050565b60006020828403121561466957600080fd5b8135610ee781614610565b6000806040838503121561468757600080fd5b823561469281614250565b915060208301356001600160401b0381111561452e57600080fd5b600080604083850312156146c057600080fd5b82356146cb81614250565b9150602083013561464c81614250565b600080600080606085870312156146f157600080fd5b84356001600160401b038082111561470857600080fd5b61471488838901614208565b909650945060209150868201358181111561472e57600080fd5b61473a89828a01614382565b94505060408701358181111561474f57600080fd5b87019050601f8101881361476257600080fd5b80356147706143a1826143d8565b81815260059190911b8201830190838101908a83111561478f57600080fd5b928401925b828410156147ad57833582529284019290840190614794565b979a9699509497505050505050565b6000806000604084860312156147d157600080fd5b83356001600160401b038111156147e757600080fd5b6147f386828701614208565b909450925050602084013561480781614610565b809150509250925092565b602081526000825160a0602084015261482e60c08401826140c2565b90506020840151601f1984830301604085015261484b82826140c2565b91505060408401516060840152606084015160808401526080840151151560a08401528091505092915050565b80518252600060208201516040602085015261489760408501826140c2565b949350505050565b6000602080830181845280855180835260408601915060408160051b870101925083870160005b828110156148f457603f198886030184526148e2858351614878565b945092850192908501906001016148c6565b5092979650505050505050565b602081526000610ee76020830184614878565b60006020828403121561492657600080fd5b81356001600160401b0381111561493c57600080fd5b61489784828501614382565b600082601f83011261495957600080fd5b813560206149696143a1836143d8565b82815260059290921b8401810191818101908684111561498857600080fd5b8286015b848110156149c75780356001600160401b038111156149ab5760008081fd5b6149b98986838b0101614382565b84525091830191830161498c565b509695505050505050565b6000604082840312156149e457600080fd5b604051604081016001600160401b038282108183111715614a0757614a07614315565b8160405282935084359150614a1b82614250565b90825260208401359080821115614a3157600080fd5b50614a3e85828601614382565b6020830152505092915050565b60008060008060608587031215614a6157600080fd5b84356001600160401b0380821115614a7857600080fd5b614a8488838901614208565b9096509450602091508682013581811115614a9e57600080fd5b614aaa89828a01614948565b945050604087013581811115614abf57600080fd5b8701601f81018913614ad057600080fd5b8035614ade6143a1826143d8565b81815260059190911b8201840190848101908b831115614afd57600080fd5b8584015b83811015614b3557803586811115614b195760008081fd5b614b278e89838901016149d2565b845250918601918601614b01565b50989b979a50959850505050505050565b60008060208385031215614b5957600080fd5b82356001600160401b03811115614b6f57600080fd5b614b7b85828601614208565b90969095509350505050565b60008060408385031215614b9a57600080fd5b8235915060208301356001600160401b03811115614bb757600080fd5b61453a85828601614948565b60008060208385031215614bd657600080fd5b82356001600160401b0380821115614bed57600080fd5b818501915085601f830112614c0157600080fd5b813581811115614c1057600080fd5b8660208260051b8501011115614c2557600080fd5b60209290920196919550909350505050565b6000602080830181845280855180835260408601915060408160051b870101925083870160005b828110156148f457603f19888603018452614c7a8583516140c2565b94509285019290850190600101614c5e565b6000602080830181845280855180835260408601915060408160051b870101925083870160005b828110156148f457603f19888603018452614ccf8583516140c2565b94509285019290850190600101614cb3565b60008060408385031215614cf457600080fd5b8235915060208301356001600160401b03811115614d1157600080fd5b61453a858286016149d2565b600080600080600060608688031215614d3557600080fd5b85356001600160401b0380821115614d4c57600080fd5b614d5889838a01614208565b909750955060208801359150614d6d82614250565b90935060408701359080821115614d8357600080fd5b50614d9088828901614208565b969995985093965092949392505050565b60008060408385031215614db457600080fd5b8235915060208301356001600160401b03811115614dd157600080fd5b83016040818603121561464c57600080fd5b82815260406020820152600061489760408301846140c2565b600181811c90821680614e1057607f821691505b60208210810361205d57634e487b7160e01b600052602260045260246000fd5b634e487b7160e01b600052603260045260246000fd5b600060208284031215614e5857600080fd5b81516001600160401b03811115614e6e57600080fd5b8201601f81018413614e7f57600080fd5b8051614e8d6143a18261435b565b818152856020838501011115614ea257600080fd5b613fee82602083016020860161409e565b634e487b7160e01b600052601160045260246000fd5b600060018201614edb57614edb614eb3565b5060010190565b81835281816020850137506000828201602090810191909152601f909101601f19169091010190565b604081526000614f1f604083018587614ee2565b9050826020830152949350505050565b8183823760009101908152919050565b8051602080830151919081101561205d5760001960209190910360031b1b16919050565b601f821115612a1357600081815260208120601f850160051c81016020861015614f8a5750805b601f850160051c820191505b818110156110d057828155600101614f96565b81516001600160401b03811115614fc257614fc2614315565b614fd681614fd08454614dfc565b84614f63565b602080601f83116001811461500b5760008415614ff35750858301515b600019600386901b1c1916600185901b1785556110d0565b600085815260208120601f198616915b8281101561503a5788860151825594840194600190910190840161501b565b50858210156150585787850151600019600388901b60f8161c191681555b5050505050600190811b01905550565b6000815461507581614dfc565b80855260206001838116801561509257600181146150ac576150da565b60ff1985168884015283151560051b8801830195506150da565b866000528260002060005b858110156150d25781548a82018601529083019084016150b7565b890184019650505b505050505092915050565b6040815260006150f860408301856140c2565b8281036020840152613fee8185615068565b6001600160401b0383111561512157615121614315565b6151358361512f8354614dfc565b83614f63565b6000601f84116001811461516957600085156151515750838201355b600019600387901b1c1916600186901b178355613396565b600083815260209020601f19861690835b8281101561519a578685013582556020948501946001909201910161517a565b50868210156151b75760001960f88860031b161c19848701351681555b505060018560011b0183555050505050565b6020808252602c908201527f46756e6374696f6e206d7573742062652063616c6c6564207468726f7567682060408201526b19195b1959d85d1958d85b1b60a21b606082015260800190565b6020808252602c908201527f46756e6374696f6e206d7573742062652063616c6c6564207468726f7567682060408201526b6163746976652070726f787960a01b606082015260800190565b6000825161527381846020870161409e565b9190910192915050565b60408152600061529060408301856140c2565b90508260208301529392505050565b80820180821115613ad357613ad3614eb3565b6000602082840312156152c457600080fd5b8151610ee781614250565b6040815260006152e3604083018587614ee2565b82810360208401526152f58185615068565b9695505050505050565b602081526000610ee76020830184615068565b81810381811115613ad357613ad3614eb3565b634e487b7160e01b600052603160045260246000fd5b6000808335601e1984360301811261535257600080fd5b8301803591506001600160401b0382111561536c57600080fd5b60200191503681900382131561424957600080fd5b838152818360208301376000910160200190815292915050565b838152604060208201526000613fee604083018486614ee2565b6000602082840312156153c757600080fd5b5051919050565b6060815260006153e160608301866140c2565b6001600160a01b039490941660208301525060400152919050565b60006020828403121561540e57600080fd5b8151610ee781614610565b8281526000825161543181602085016020870161409e565b919091016020019392505050565b60408152600061545260408301856140c2565b8281036020840152613fee81856140c256fe360894a13ba1a3210667c828492db98dca3e2076cc3735a920a3ca505d382bbc416464726573733a206c6f772d6c6576656c2064656c65676174652063616c6c206661696c6564a26469706673582212204ae6aca503538a0b894e0597ece06756c2b6f6a0bffe8839e89bc92a292dd1b064736f6c63430008130033",
    "linkReferences": {
      "packages/contracts/src/libraries/Utils.sol": {
        "Utils": [
          {
            "start": 11468,
            "length": 20
          }
        ]
      }
    }
  },
  "methodIdentifiers": {
    "MODULE_TYPE()": "5775029f",
    "MODULE_VERSION()": "81ed9808",
    "addPermissionsToRole(uint256,string[])": "b7515761",
    "addRoleToChannel(string,address,uint256)": "1dea616a",
    "addRoleToEntitlement(uint256,(address,bytes))": "ba201ba8",
    "channels(uint256)": "e5949b5d",
    "channelsByHash(bytes32)": "129ab3c8",
    "contractURI()": "e8a3d485",
    "createChannel(string,string,uint256[])": "51f83cea",
    "createRole(string,string[],(address,bytes)[])": "8fcd793d",
    "defaultEntitlements(address)": "fa6433c5",
    "disabled()": "ee070805",
    "entitlements(uint256)": "f28f9b56",
    "getChannelByHash(bytes32)": "703511f8",
    "getChannels()": "9575f6ac",
    "getEntitlementByModuleType(string)": "870b9464",
    "getEntitlementIdsByRoleId(uint256)": "42486e49",
    "getEntitlementModules()": "0d029f75",
    "getPermissionsByRoleId(uint256)": "b4264233",
    "getRoleById(uint256)": "784c872b",
    "getRoles()": "71061398",
    "hasEntitlement(address)": "7f8d06d0",
    "initialize(string,string,address,uint256,address[])": "22bcd764",
    "isEntitledToChannel(string,address,string)": "cea632bc",
    "isEntitledToSpace(address,string)": "20759f9e",
    "multicall(bytes[])": "ac9650d8",
    "name()": "06fdde03",
    "networkId()": "9025e64c",
    "owner()": "8da5cb5b",
    "ownerRoleId()": "d1a6a961",
    "proxiableUUID()": "52d1902d",
    "removePermissionsFromRole(uint256,string[])": "9a8e4c3e",
    "removeRole(uint256)": "92691821",
    "removeRoleFromChannel(string,address,uint256)": "baaf3d57",
    "removeRoleFromEntitlement(uint256,(address,bytes))": "dba81864",
    "roleCount()": "ddf96358",
    "rolesById(uint256)": "e5894ef4",
    "setChannelAccess(string,bool)": "5de151b8",
    "setContractURI(string)": "938e3d7b",
    "setEntitlementModule(address,bool)": "441555e5",
    "setOwnerRoleId(uint256)": "4999ab16",
    "setSpaceAccess(bool)": "446dc22e",
    "token()": "fc0c546a",
    "tokenId()": "17d70f7c",
    "updateChannel(string,string)": "34a1dd26",
    "updateRole(uint256,string)": "32e704cc",
    "upgradeEntitlement(address,address)": "519607f2",
    "upgradeTo(address)": "3659cfe6",
    "upgradeToAndCall(address,bytes)": "4f1ef286"
  },
  "id": 124
}