{
  "abi": [
    {
      "inputs": [
        {
          "internalType": "address",
          "name": "_zionSpaceManagerAddress",
          "type": "address"
        }
      ],
      "stateMutability": "nonpayable",
      "type": "constructor"
    },
    {
      "inputs": [
        {
          "internalType": "uint256",
          "name": "spaceId",
          "type": "uint256"
        },
        {
          "internalType": "uint256",
          "name": "roomId",
          "type": "uint256"
        },
        {
          "internalType": "string",
          "name": "description",
          "type": "string"
        },
        {
          "internalType": "address[]",
          "name": "tokenAddresses",
          "type": "address[]"
        },
        {
          "internalType": "uint256[]",
          "name": "quantities",
          "type": "uint256[]"
        },
        {
          "internalType": "enum SpaceStructs.EntitlementType[]",
          "name": "entitlementTypes",
          "type": "uint8[]"
        }
      ],
      "name": "addTokenEntitlements",
      "outputs": [],
      "stateMutability": "nonpayable",
      "type": "function"
    },
    {
      "inputs": [
        {
          "internalType": "uint256",
          "name": "spaceId",
          "type": "uint256"
        },
        {
          "internalType": "uint256",
          "name": "roomId",
          "type": "uint256"
        },
        {
          "internalType": "address",
          "name": "userAddress",
          "type": "address"
        },
        {
          "internalType": "enum SpaceStructs.EntitlementType",
          "name": "entitlementType",
          "type": "uint8"
        }
      ],
      "name": "isEntitled",
      "outputs": [
        {
          "internalType": "bool",
          "name": "",
          "type": "bool"
        }
      ],
      "stateMutability": "view",
      "type": "function"
    },
    {
      "inputs": [
        {
          "internalType": "uint256",
          "name": "spaceId",
          "type": "uint256"
        },
        {
          "internalType": "uint256",
          "name": "roomId",
          "type": "uint256"
        },
        {
          "internalType": "address",
          "name": "userAddress",
          "type": "address"
        },
        {
          "internalType": "string",
          "name": "tag",
          "type": "string"
        }
      ],
      "name": "isTokenEntitled",
      "outputs": [
        {
          "internalType": "bool",
          "name": "",
          "type": "bool"
        }
      ],
      "stateMutability": "view",
      "type": "function"
    },
    {
      "inputs": [
        {
          "internalType": "uint256",
          "name": "spaceId",
          "type": "uint256"
        },
        {
          "internalType": "uint256",
          "name": "roomId",
          "type": "uint256"
        },
        {
          "internalType": "string",
          "name": "description",
          "type": "string"
        }
      ],
      "name": "removeTokenEntitlements",
      "outputs": [],
      "stateMutability": "nonpayable",
      "type": "function"
    }
  ],
  "bytecode": {
    "object": "0x608060405234801561001057600080fd5b5060405161168a38038061168a83398101604081905261002f91610054565b600080546001600160a01b0319166001600160a01b0392909216919091179055610084565b60006020828403121561006657600080fd5b81516001600160a01b038116811461007d57600080fd5b9392505050565b6115f7806100936000396000f3fe608060405234801561001057600080fd5b506004361061004c5760003560e01c8063497aebd9146100515780636f09c76514610078578063abad675f1461008b578063ac396fbf146100a0575b600080fd5b61006461005f366004610f51565b6100b3565b604051901515815260200160405180910390f35b61006461008636600461103c565b610428565b61009e6100993660046110cd565b610600565b005b61009e6100ae366004611165565b61075a565b60008481526001602052604080822090518291906100d290859061126f565b908152604080519182900360209081018320805480830285018301909352828452919060009084015b82821015610143576000848152602090819020604080518082019091526002850290910180546001600160a01b031682526001908101548284015290835290920191016100fb565b50505050905060005b81518110156104195760008282815181106101695761016961128b565b60200260200101516020015190506101b66040518060400160405280601881526020017f6973746f6b656e656e7469746c656420636865636b696e67000000000000000081525083610d95565b80156104065760008383815181106101d0576101d061128b565b602002602001015160000151905061021d6040518060400160405280601c81526020017f6973746f6b656e656e7469746c656420746f6b656e416464726573730000000081525082610dde565b61025c6040518060400160405280601881526020017f6973746f6b656e656e7469746c6564207175616e74697479000000000000000081525083610d95565b6040516370a0823160e01b81526001600160a01b038881166004830152600091908316906370a0823190602401602060405180830381865afa1580156102a6573d6000803e3d6000fd5b505050506040513d601f19601f820116820180604052508101906102ca91906112a1565b905061030b6040518060400160405280601981526020017f6973746f6b656e656e7469746c65642062616c616e63654f660000000000000081525082610d95565b6040516370a0823160e01b81526001600160a01b0389811660048301528491908416906370a0823190602401602060405180830381865afa158015610354573d6000803e3d6000fd5b505050506040513d601f19601f8201168201806040525081019061037891906112a1565b1015806103f057506040516370a0823160e01b81526001600160a01b0389811660048301528491908416906370a0823190602401602060405180830381865afa1580156103c9573d6000803e3d6000fd5b505050506040513d601f19601f820116820180604052508101906103ed91906112a1565b10155b1561040357600195505050505050610420565b50505b5080610411816112ba565b91505061014c565b5060009150505b949350505050565b600061044c60405180606001604052806028815260200161159a6028913984610dde565b600085815260016020819052604082200181846009811115610470576104706112e1565b6009811115610481576104816112e1565b8152602001908152602001600020805480602002602001604051908101604052809291908181526020016000905b8282101561055b5783829060005260206000200180546104ce906112f7565b80601f01602080910402602001604051908101604052809291908181526020018280546104fa906112f7565b80156105475780601f1061051c57610100808354040283529160200191610547565b820191906000526020600020905b81548152906001019060200180831161052a57829003601f168201915b5050505050815260200190600101906104af565b50505050905060005b8151811015610419576105b960405180604001604052806011815260200170031b432b1b5b4b733903337b9103a30b39607d1b8152508383815181106105ac576105ac61128b565b6020026020010151610e23565b6105de8787878585815181106105d1576105d161128b565b60200260200101516100b3565b156105ee57600192505050610420565b806105f8816112ba565b915050610564565b600080546040516307be396960e01b8152600481018790526001600160a01b03909116919082906307be396990602401602060405180830381865afa15801561064d573d6000803e3d6000fd5b505050506040513d601f19601f820116820180604052508101906106719190611331565b90506001600160a01b03811633146106a45760405162461bcd60e51b815260040161069b90611355565b60405180910390fd5b84156107075760008681526001602090815260408083208884526002019091529081902090516106d7908690869061139f565b90815260405190819003602001902060006106f28282610e85565b610700600183016000610ea9565b5050610752565b600086815260016020526040908190209051610726908690869061139f565b90815260405190819003602001902060006107418282610e85565b61074f600183016000610ea9565b50505b505050505050565b600080546040516307be396960e01b8152600481018d90526001600160a01b03909116919082906307be396990602401602060405180830381865afa1580156107a7573d6000803e3d6000fd5b505050506040513d601f19601f820116820180604052508101906107cb9190611331565b90506107fb6040518060400160405280600c81526020016b6f776e65724164647265737360a01b81525082610dde565b6108266040518060400160405280600981526020016826b9b3a9a2b73232b960b91b81525033610dde565b866108735760405162461bcd60e51b815260206004820152601b60248201527f4e6f20746f6b656e206164647265737365732070726f76696465640000000000604482015260640161069b565b8685146108d75760405162461bcd60e51b815260206004820152602c60248201527f4d75737420686176652061207175616e7469747920666f72206576657279207460448201526b6f6b656e206164647265737360a01b606482015260840161069b565b6001600160a01b0381163314806108f857506000546001600160a01b031633145b6109145760405162461bcd60e51b815260040161069b90611355565b8a15610b0b5760008c81526001602090815260408083208e84526002019091528082209051610946908d908d9061139f565b9081526020016040518091039020905060005b88811015610a1857600060405180604001604052808c8c858181106109805761098061128b565b905060200201602081019061099591906113af565b6001600160a01b031681526020018a8a858181106109b5576109b561128b565b602090810292909201359092528554600180820188556000888152839020855160029093020180546001600160a01b0319166001600160a01b03909316929092178255939091015192019190915550819050610a10816112ba565b915050610959565b5060005b84811015610b0457604080516060810182523381524260208201526000918101888885818110610a4e57610a4e61128b565b9050602002016020810190610a6391906113cc565b6009811115610a7457610a746112e1565b90526001848101805480830182556000918252602091829020845160039092020180546001600160a01b0319166001600160a01b0390921691909117815590830151818301556040830151600282018054949550859492939192909160ff1990911690836009811115610ae957610ae96112e1565b02179055505050508080610afc906112ba565b915050610a1c565b5050610d87565b60008c8152600160205260408082209051610b29908d908d9061139f565b9081526020016040518091039020905060005b88811015610bf9578160000160405180604001604052808c8c85818110610b6557610b6561128b565b9050602002016020810190610b7a91906113af565b6001600160a01b031681526020018a8a85818110610b9a57610b9a61128b565b60209081029290920135909252835460018082018655600095865294829020845160029092020180546001600160a01b0319166001600160a01b0390921691909117815592015191909201555080610bf1816112ba565b915050610b3c565b5060005b84811015610cdd5760408051606081018252338152426020820152600184019181018888600081610c3057610c3061128b565b9050602002016020810190610c4591906113cc565b6009811115610c5657610c566112e1565b90528154600180820184556000938452602093849020835160039093020180546001600160a01b0319166001600160a01b0390931692909217825592820151818401556040820151600282018054939492939192909160ff191690836009811115610cc357610cc36112e1565b021790555050508080610cd5906112ba565b915050610bfd565b5060005b84811015610d845760008e815260016020819052604082200190878784818110610d0d57610d0d61128b565b9050602002016020810190610d2291906113cc565b6009811115610d3357610d336112e1565b6009811115610d4457610d446112e1565b81526020808201929092526040016000908120805460018101825590825291902001610d718c8e83611432565b5080610d7c816112ba565b915050610ce1565b50505b505050505050505050505050565b610dda8282604051602401610dab92919061151f565b60408051601f198184030181529190526020810180516001600160e01b03166309710a9d60e41b179052610e64565b5050565b610dda8282604051602401610df4929190611541565b60408051601f198184030181529190526020810180516001600160e01b031663319af33360e01b179052610e64565b610dda8282604051602401610e3992919061156b565b60408051601f198184030181529190526020810180516001600160e01b0316634b5c427760e01b1790525b80516a636f6e736f6c652e6c6f67602083016000808483855afa5050505050565b5080546000825560020290600052602060002090810190610ea69190610eca565b50565b5080546000825560030290600052602060002090810190610ea69190610ef4565b5b80821115610ef05780546001600160a01b031916815560006001820155600201610ecb565b5090565b5b80821115610ef05780546001600160a01b03191681556000600182015560028101805460ff19169055600301610ef5565b6001600160a01b0381168114610ea657600080fd5b634e487b7160e01b600052604160045260246000fd5b60008060008060808587031215610f6757600080fd5b84359350602085013592506040850135610f8081610f26565b9150606085013567ffffffffffffffff80821115610f9d57600080fd5b818701915087601f830112610fb157600080fd5b813581811115610fc357610fc3610f3b565b604051601f8201601f19908116603f01168101908382118183101715610feb57610feb610f3b565b816040528281528a602084870101111561100457600080fd5b82602086016020830137600060208483010152809550505050505092959194509250565b8035600a811061103757600080fd5b919050565b6000806000806080858703121561105257600080fd5b8435935060208501359250604085013561106b81610f26565b915061107960608601611028565b905092959194509250565b60008083601f84011261109657600080fd5b50813567ffffffffffffffff8111156110ae57600080fd5b6020830191508360208285010111156110c657600080fd5b9250929050565b600080600080606085870312156110e357600080fd5b8435935060208501359250604085013567ffffffffffffffff81111561110857600080fd5b61111487828801611084565b95989497509550505050565b60008083601f84011261113257600080fd5b50813567ffffffffffffffff81111561114a57600080fd5b6020830191508360208260051b85010111156110c657600080fd5b60008060008060008060008060008060c08b8d03121561118457600080fd5b8a35995060208b0135985060408b013567ffffffffffffffff808211156111aa57600080fd5b6111b68e838f01611084565b909a50985060608d01359150808211156111cf57600080fd5b6111db8e838f01611120565b909850965060808d01359150808211156111f457600080fd5b6112008e838f01611120565b909650945060a08d013591508082111561121957600080fd5b506112268d828e01611120565b915080935050809150509295989b9194979a5092959850565b60005b8381101561125a578181015183820152602001611242565b83811115611269576000848401525b50505050565b6000825161128181846020870161123f565b9190910192915050565b634e487b7160e01b600052603260045260246000fd5b6000602082840312156112b357600080fd5b5051919050565b6000600182016112da57634e487b7160e01b600052601160045260246000fd5b5060010190565b634e487b7160e01b600052602160045260246000fd5b600181811c9082168061130b57607f821691505b60208210810361132b57634e487b7160e01b600052602260045260246000fd5b50919050565b60006020828403121561134357600080fd5b815161134e81610f26565b9392505050565b6020808252602a908201527f4f6e6c7920746865206f776e65722063616e207570646174652074686520656e6040820152697469746c656d656e747360b01b606082015260800190565b8183823760009101908152919050565b6000602082840312156113c157600080fd5b813561134e81610f26565b6000602082840312156113de57600080fd5b61134e82611028565b601f82111561142d57600081815260208120601f850160051c8101602086101561140e5750805b601f850160051c820191505b818110156107525782815560010161141a565b505050565b67ffffffffffffffff83111561144a5761144a610f3b565b61145e8361145883546112f7565b836113e7565b6000601f841160018114611492576000851561147a5750838201355b600019600387901b1c1916600186901b1783556114ec565b600083815260209020601f19861690835b828110156114c357868501358255602094850194600190920191016114a3565b50868210156114e05760001960f88860031b161c19848701351681555b505060018560011b0183555b5050505050565b6000815180845261150b81602086016020860161123f565b601f01601f19169290920160200192915050565b60408152600061153260408301856114f3565b90508260208301529392505050565b60408152600061155460408301856114f3565b905060018060a01b03831660208301529392505050565b60408152600061157e60408301856114f3565b828103602084015261159081856114f3565b9594505050505056fe696e746f20746f6b656e20656e7469746c656d656e74206d6f64756c65206973456e7469746c6564a2646970667358221220f92a5aa3d17d633da798ce5ae8cc4ea2d975f5368829669fedef35cefa041fb764736f6c634300080f0033",
    "linkReferences": {}
  },
  "methodIdentifiers": {
    "addTokenEntitlements(uint256,uint256,string,address[],uint256[],uint8[])": "ac396fbf",
    "isEntitled(uint256,uint256,address,uint8)": "6f09c765",
    "isTokenEntitled(uint256,uint256,address,string)": "497aebd9",
    "removeTokenEntitlements(uint256,uint256,string)": "abad675f"
  },
  "id": 14
}