{
  "abi": [
    {
      "inputs": [],
      "stateMutability": "nonpayable",
      "type": "constructor"
    },
    {
      "anonymous": false,
      "inputs": [
        {
          "indexed": true,
          "internalType": "address",
          "name": "owner",
          "type": "address"
        },
        {
          "indexed": true,
          "internalType": "string",
          "name": "spaceName",
          "type": "string"
        }
      ],
      "name": "CreateSpace",
      "type": "event"
    },
    {
      "inputs": [
        {
          "internalType": "uint256",
          "name": "spaceId",
          "type": "uint256"
        },
        {
          "internalType": "address",
          "name": "_entitlementModuleAddress",
          "type": "address"
        },
        {
          "internalType": "string",
          "name": "tag",
          "type": "string"
        }
      ],
      "name": "addEntitlementModuleAddress",
      "outputs": [],
      "stateMutability": "nonpayable",
      "type": "function"
    },
    {
      "inputs": [
        {
          "internalType": "string",
          "name": "spaceName",
          "type": "string"
        },
        {
          "internalType": "address[]",
          "name": "entitlementModuleAddresses",
          "type": "address[]"
        }
      ],
      "name": "createSpace",
      "outputs": [],
      "stateMutability": "nonpayable",
      "type": "function"
    },
    {
      "inputs": [
        {
          "internalType": "uint256",
          "name": "_spaceId",
          "type": "uint256"
        }
      ],
      "name": "getSpaceEntitlementModuleAddresses",
      "outputs": [
        {
          "internalType": "address[]",
          "name": "entitlementModuleAddresses",
          "type": "address[]"
        }
      ],
      "stateMutability": "view",
      "type": "function"
    },
    {
      "inputs": [],
      "name": "getSpaceNames",
      "outputs": [
        {
          "components": [
            {
              "internalType": "string",
              "name": "name",
              "type": "string"
            },
            {
              "internalType": "uint256",
              "name": "id",
              "type": "uint256"
            }
          ],
          "internalType": "struct ZionSpaceManager.SpaceNameID[]",
          "name": "spaceNames",
          "type": "tuple[]"
        }
      ],
      "stateMutability": "view",
      "type": "function"
    },
    {
      "inputs": [
        {
          "internalType": "uint256",
          "name": "_spaceId",
          "type": "uint256"
        }
      ],
      "name": "getSpaceOwner",
      "outputs": [
        {
          "internalType": "address",
          "name": "ownerAddress",
          "type": "address"
        }
      ],
      "stateMutability": "view",
      "type": "function"
    },
    {
      "inputs": [
        {
          "internalType": "uint256",
          "name": "_spaceId",
          "type": "uint256"
        }
      ],
      "name": "getSpaceValues",
      "outputs": [
        {
          "internalType": "uint256",
          "name": "spaceId",
          "type": "uint256"
        },
        {
          "internalType": "uint256",
          "name": "createdAt",
          "type": "uint256"
        },
        {
          "internalType": "string",
          "name": "name",
          "type": "string"
        },
        {
          "internalType": "address",
          "name": "creatorAddress",
          "type": "address"
        },
        {
          "internalType": "address",
          "name": "ownerAddress",
          "type": "address"
        }
      ],
      "stateMutability": "view",
      "type": "function"
    },
    {
      "inputs": [
        {
          "internalType": "uint256",
          "name": "spaceId",
          "type": "uint256"
        },
        {
          "internalType": "uint256",
          "name": "roomId",
          "type": "uint256"
        },
        {
          "internalType": "enum SpaceStructs.EntitlementType",
          "name": "entitlementType",
          "type": "uint8"
        },
        {
          "internalType": "address",
          "name": "userAddress",
          "type": "address"
        }
      ],
      "name": "isEntitled",
      "outputs": [
        {
          "internalType": "bool",
          "name": "",
          "type": "bool"
        }
      ],
      "stateMutability": "view",
      "type": "function"
    },
    {
      "inputs": [
        {
          "internalType": "string",
          "name": "",
          "type": "string"
        }
      ],
      "name": "registeredSpaceNames",
      "outputs": [
        {
          "internalType": "bool",
          "name": "",
          "type": "bool"
        }
      ],
      "stateMutability": "view",
      "type": "function"
    },
    {
      "inputs": [
        {
          "internalType": "uint256",
          "name": "",
          "type": "uint256"
        }
      ],
      "name": "spaces",
      "outputs": [
        {
          "internalType": "uint256",
          "name": "spaceId",
          "type": "uint256"
        },
        {
          "internalType": "uint256",
          "name": "createdAt",
          "type": "uint256"
        },
        {
          "internalType": "string",
          "name": "name",
          "type": "string"
        },
        {
          "internalType": "address",
          "name": "creatorAddress",
          "type": "address"
        },
        {
          "internalType": "address",
          "name": "ownerAddress",
          "type": "address"
        }
      ],
      "stateMutability": "view",
      "type": "function"
    }
  ],
  "bytecode": {
    "object": "0x6080604052600160005534801561001557600080fd5b5061194a806100256000396000f3fe608060405234801561001057600080fd5b50600436106100935760003560e01c80637586353b116100665780637586353b1461012e57806393b6b8e714610152578063c9b080a214610165578063cfa31ea114610185578063d972c3b01461019857600080fd5b806307be39691461009857806335dab12a146100e15780633acf6d61146100f65780634f1194781461010b575b600080fd5b6100c46100a63660046110c9565b6000908152600260205260409020600401546001600160a01b031690565b6040516001600160a01b0390911681526020015b60405180910390f35b6100e96101c6565b6040516100d8919061113a565b6101096101043660046111b0565b6103c6565b005b61011e610119366004611291565b6108e7565b60405190151581526020016100d8565b61014161013c3660046110c9565b610a10565b6040516100d89594939291906112dd565b6101416101603660046110c9565b610ad6565b6101786101733660046110c9565b610bb8565b6040516100d8919061131e565b61010961019336600461140e565b610d7f565b61011e6101a6366004611465565b805160208183018101805160018252928201919093012091525460ff1681565b60606101fd6040518060400160405280601181526020017002a37ba30b61039b830b1b2b99030b9329607d1b815250600054610eb3565b60008054116102455760405162461bcd60e51b815260206004820152600f60248201526e139bc81cdc1858d95cc8195e1a5cdd608a1b60448201526064015b60405180910390fd5b6000600160005461025691906114b0565b67ffffffffffffffff81111561026e5761026e61136b565b6040519080825280602002602001820160405280156102b457816020015b60408051808201909152606081526000602082015281526020019060019003908161028c5790505b50905060015b6000548110156103c05760405180604001604052806002600084815260200190815260200160002060020180546102f0906114c7565b80601f016020809104026020016040519081016040528092919081815260200182805461031c906114c7565b80156103695780601f1061033e57610100808354040283529160200191610369565b820191906000526020600020905b81548152906001019060200180831161034c57829003601f168201915b5050509183525050600083815260026020908152604090912054910152826103926001846114b0565b815181106103a2576103a26114fb565b602002602001018190525080806103b890611511565b9150506102ba565b50919050565b600283116104275760405162461bcd60e51b815260206004820152602860248201527f5370616365206e616d65206d757374206265206174206c656173742033206368604482015267617261637465727360c01b606482015260840161023c565b61046684848080601f016020809104026020016040519081016040528093929190818152602001838380828437600092019190915250610efc92505050565b15156001146104c95760405162461bcd60e51b815260206004820152602960248201527f5370616365206e616d65206d757374206265206c6f7765726361736520616c7060448201526868616e756d6572696360b81b606482015260840161023c565b600184846040516104db92919061152a565b9081526040519081900360200190205460ff161561053b5760405162461bcd60e51b815260206004820152601960248201527f5370616365206e616d6520616c72656164792065786973747300000000000000604482015260640161023c565b600180858560405161054e92919061152a565b9081526040805160209281900383018120805460ff191694151594909417909355600054838201909152601183527002a37ba30b61039b830b1b2b99030b9329607d1b91830191909152906105a39082610eb3565b60008181526002602081905260409091208281554260018201559081016105cb868883611589565b50600381018054336001600160a01b03199182168117909255600483018054909116909117905560408051606081018252600b602082019081526a1d5cd95c99dc985b9d195960aa1b9282019290925290815261062e9060078301906001611004565b5083836000818110610642576106426114fb565b90506020020160208101906106579190611649565b6040516a1d5cd95c99dc985b9d195960aa1b81526006830190600b0190815260405190819003602001902080546001600160a01b03929092166001600160a01b03199092169190911790556000848482816106b4576106b46114fb565b90506020020160208101906106c99190611649565b6040805160018082528183019092529192506000919060208083019080368337019050509050600081600081518110610704576107046114fb565b6020026020010190600981111561071d5761071d61166b565b908160098111156107305761073061166b565b90525060405163595f84f360e11b81526001600160a01b0383169063b2bf09e690610766908790600090339087906004016116a3565b600060405180830381600087803b15801561078057600080fd5b505af1158015610794573d6000803e3d6000fd5b5050505060016000808282546107aa919061170e565b925050819055506108266040518060400160405280601d81526020017f5370616365206372656174652077697468207370616365206e616d652000000081525089898080601f016020809104026020016040519081016040528093929190818152602001838380828437600092019190915250610fa292505050565b61089b6040518060400160405280601d81526020017f5370616365206372656174652077697468207370616365206e616d652000000081525089898080601f016020809104026020016040519081016040528093929190818152602001838380828437600092019190915250610fa292505050565b87876040516108ab92919061152a565b6040519081900381209033907fd4177bee722b909c1c005be83c0ef0d81d7c36e57e7d7300ca95adf68d0e9e7a90600090a35050505050505050565b6000848152600260205260408120600701815b8154811015610a015760006002600089815260200190815260200160002060060183838154811061092d5761092d6114fb565b906000526020600020016040516109449190611726565b908152604051908190036020019020546001600160a01b0316905080156109ee57604051636f09c76560e01b815281906001600160a01b03821690636f09c76590610999908c908c908b908d9060040161179c565b602060405180830381865afa1580156109b6573d6000803e3d6000fd5b505050506040513d601f19601f820116820180604052508101906109da91906117cf565b156109ec576001945050505050610a08565b505b50806109f981611511565b9150506108fa565b5060009150505b949350505050565b600260208190526000918252604090912080546001820154928201805491939291610a3a906114c7565b80601f0160208091040260200160405190810160405280929190818152602001828054610a66906114c7565b8015610ab35780601f10610a8857610100808354040283529160200191610ab3565b820191906000526020600020905b815481529060010190602001808311610a9657829003601f168201915b50505050600383015460049093015491926001600160a01b039081169216905085565b600080606060008060006002600088815260200190815260200160002090506000816002018054610b06906114c7565b80601f0160208091040260200160405190810160405280929190818152602001828054610b32906114c7565b8015610b7f5780601f10610b5457610100808354040283529160200191610b7f565b820191906000526020600020905b815481529060010190602001808311610b6257829003601f168201915b5050855460018701546003880154600490980154919e909d50949b506001600160a01b039687169a509590951697509195505050505050565b60008181526002602090815260408083206007810180548351818602810186019094528084526060959294929392849084015b82821015610c97578382906000526020600020018054610c0a906114c7565b80601f0160208091040260200160405190810160405280929190818152602001828054610c36906114c7565b8015610c835780601f10610c5857610100808354040283529160200191610c83565b820191906000526020600020905b815481529060010190602001808311610c6657829003601f168201915b505050505081526020019060010190610beb565b5050505090506000815167ffffffffffffffff811115610cb957610cb961136b565b604051908082528060200260200182016040528015610ce2578160200160208202803683370190505b50905060005b8251811015610d765783600601838281518110610d0757610d076114fb565b6020026020010151604051610d1c91906117f1565b9081526040519081900360200190205482516001600160a01b0390911690839083908110610d4c57610d4c6114fb565b6001600160a01b039092166020928302919091019091015280610d6e81611511565b915050610ce8565b50949350505050565b600083815260026020526040902060048101546001600160a01b03163314610e0f5760405162461bcd60e51b815260206004820152603860248201527f4f6e6c7920746865206f776e65722063616e207570646174652074686520656e60448201527f7469746c656d656e74206d6f64756c6520616464726573730000000000000000606482015260840161023c565b60006001600160a01b03168160060183604051610e2c91906117f1565b908152604051908190036020019020546001600160a01b031603610ead57828160060183604051610e5d91906117f1565b9081526040516020918190038201902080546001600160a01b0319166001600160a01b039390931692909217909155600782018054600181018255600091825291902001610eab838261180d565b505b50505050565b610ef88282604051602401610ec99291906118cd565b60408051601f198184030181529190526020810180516001600160e01b03166309710a9d60e41b179052610fe3565b5050565b6000805b8251811015610f99576000838281518110610f1d57610f1d6114fb565b016020015160f81c905060018110801590610f3c5750602f8160ff1611155b80610f5a5750603a8160ff1610158015610f5a5750605e8160ff1611155b80610f6857508060ff166060145b80610f775750607b8160ff1610155b15610f86575060009392505050565b5080610f9181611511565b915050610f00565b50600192915050565b610ef88282604051602401610fb89291906118ef565b60408051601f198184030181529190526020810180516001600160e01b0316634b5c427760e01b1790525b80516a636f6e736f6c652e6c6f67602083016000808483855afa5050505050565b82805482825590600052602060002090810192821561104a579160200282015b8281111561104a578251829061103a908261180d565b5091602001919060010190611024565b5061105692915061105a565b5090565b8082111561105657600061106e8282611077565b5060010161105a565b508054611083906114c7565b6000825580601f10611093575050565b601f0160209004906000526020600020908101906110b191906110b4565b50565b5b8082111561105657600081556001016110b5565b6000602082840312156110db57600080fd5b5035919050565b60005b838110156110fd5781810151838201526020016110e5565b83811115610ead5750506000910152565b600081518084526111268160208601602086016110e2565b601f01601f19169290920160200192915050565b60006020808301818452808551808352604092508286019150828160051b87010184880160005b838110156111a257888303603f19018552815180518785526111858886018261110e565b918901519489019490945294870194925090860190600101611161565b509098975050505050505050565b600080600080604085870312156111c657600080fd5b843567ffffffffffffffff808211156111de57600080fd5b818701915087601f8301126111f257600080fd5b81358181111561120157600080fd5b88602082850101111561121357600080fd5b60209283019650945090860135908082111561122e57600080fd5b818701915087601f83011261124257600080fd5b81358181111561125157600080fd5b8860208260051b850101111561126657600080fd5b95989497505060200194505050565b80356001600160a01b038116811461128c57600080fd5b919050565b600080600080608085870312156112a757600080fd5b84359350602085013592506040850135600a81106112c457600080fd5b91506112d260608601611275565b905092959194509250565b85815284602082015260a0604082015260006112fc60a083018661110e565b6001600160a01b03948516606084015292909316608090910152949350505050565b6020808252825182820181905260009190848201906040850190845b8181101561135f5783516001600160a01b03168352928401929184019160010161133a565b50909695505050505050565b634e487b7160e01b600052604160045260246000fd5b600082601f83011261139257600080fd5b813567ffffffffffffffff808211156113ad576113ad61136b565b604051601f8301601f19908116603f011681019082821181831017156113d5576113d561136b565b816040528381528660208588010111156113ee57600080fd5b836020870160208301376000602085830101528094505050505092915050565b60008060006060848603121561142357600080fd5b8335925061143360208501611275565b9150604084013567ffffffffffffffff81111561144f57600080fd5b61145b86828701611381565b9150509250925092565b60006020828403121561147757600080fd5b813567ffffffffffffffff81111561148e57600080fd5b610a0884828501611381565b634e487b7160e01b600052601160045260246000fd5b6000828210156114c2576114c261149a565b500390565b600181811c908216806114db57607f821691505b6020821081036103c057634e487b7160e01b600052602260045260246000fd5b634e487b7160e01b600052603260045260246000fd5b6000600182016115235761152361149a565b5060010190565b8183823760009101908152919050565b601f82111561158457600081815260208120601f850160051c810160208610156115615750805b601f850160051c820191505b818110156115805782815560010161156d565b5050505b505050565b67ffffffffffffffff8311156115a1576115a161136b565b6115b5836115af83546114c7565b8361153a565b6000601f8411600181146115e957600085156115d15750838201355b600019600387901b1c1916600186901b178355610eab565b600083815260209020601f19861690835b8281101561161a57868501358255602094850194600190920191016115fa565b50868210156116375760001960f88860031b161c19848701351681555b505060018560011b0183555050505050565b60006020828403121561165b57600080fd5b61166482611275565b9392505050565b634e487b7160e01b600052602160045260246000fd5b600a811061169f57634e487b7160e01b600052602160045260246000fd5b9052565b84815260208082018590526001600160a01b038416604083015260806060830181905283519083018190526000918481019160a0850190845b818110156116ff576116ef838651611681565b93830193918301916001016116dc565b50909998505050505050505050565b600082198211156117215761172161149a565b500190565b6000808354611734816114c7565b6001828116801561174c576001811461176157611790565b60ff1984168752821515830287019450611790565b8760005260208060002060005b858110156117875781548a82015290840190820161176e565b50505082870194505b50929695505050505050565b848152602081018490526001600160a01b0383166040820152608081016117c66060830184611681565b95945050505050565b6000602082840312156117e157600080fd5b8151801515811461166457600080fd5b600082516118038184602087016110e2565b9190910192915050565b815167ffffffffffffffff8111156118275761182761136b565b61183b8161183584546114c7565b8461153a565b602080601f83116001811461187057600084156118585750858301515b600019600386901b1c1916600185901b178555611580565b600085815260208120601f198616915b8281101561189f57888601518255948401946001909101908401611880565b50858210156118bd5787850151600019600388901b60f8161c191681555b5050505050600190811b01905550565b6040815260006118e0604083018561110e565b90508260208301529392505050565b604081526000611902604083018561110e565b82810360208401526117c6818561110e56fea26469706673582212205d4e40f13225355e9e455519f5df3848e3215da0068ad9179849d76b2acdddcb64736f6c634300080f0033",
    "linkReferences": {}
  },
  "methodIdentifiers": {
    "addEntitlementModuleAddress(uint256,address,string)": "cfa31ea1",
    "createSpace(string,address[])": "3acf6d61",
    "getSpaceEntitlementModuleAddresses(uint256)": "c9b080a2",
    "getSpaceNames()": "35dab12a",
    "getSpaceOwner(uint256)": "07be3969",
    "getSpaceValues(uint256)": "93b6b8e7",
    "isEntitled(uint256,uint256,uint8,address)": "4f119478",
    "registeredSpaceNames(string)": "d972c3b0",
    "spaces(uint256)": "7586353b"
  },
  "id": 11
}