{
  "abi": [
    {
      "inputs": [],
      "name": "AddRoleFailed",
      "type": "error"
    },
    {
      "inputs": [],
      "name": "ChannelAlreadyRegistered",
      "type": "error"
    },
    {
      "inputs": [],
      "name": "ChannelDoesNotExist",
      "type": "error"
    },
    {
      "inputs": [],
      "name": "EntitlementAlreadyExists",
      "type": "error"
    },
    {
      "inputs": [],
      "name": "EntitlementAlreadyWhitelisted",
      "type": "error"
    },
    {
      "inputs": [],
      "name": "EntitlementModuleNotSupported",
      "type": "error"
    },
    {
      "inputs": [],
      "name": "EntitlementNotWhitelisted",
      "type": "error"
    },
    {
      "inputs": [],
      "name": "MissingOwnerPermission",
      "type": "error"
    },
    {
      "inputs": [],
      "name": "NotAllowed",
      "type": "error"
    },
    {
      "inputs": [],
      "name": "OwnerPermissionNotAllowed",
      "type": "error"
    },
    {
      "inputs": [],
      "name": "PermissionAlreadyExists",
      "type": "error"
    },
    {
      "inputs": [],
      "name": "RoleDoesNotExist",
      "type": "error"
    },
    {
      "inputs": [],
      "name": "RoleIsAssignedToEntitlement",
      "type": "error"
    },
    {
      "anonymous": false,
      "inputs": [
        {
          "indexed": false,
          "internalType": "address",
          "name": "previousAdmin",
          "type": "address"
        },
        {
          "indexed": false,
          "internalType": "address",
          "name": "newAdmin",
          "type": "address"
        }
      ],
      "name": "AdminChanged",
      "type": "event"
    },
    {
      "anonymous": false,
      "inputs": [
        {
          "indexed": true,
          "internalType": "address",
          "name": "beacon",
          "type": "address"
        }
      ],
      "name": "BeaconUpgraded",
      "type": "event"
    },
    {
      "anonymous": false,
      "inputs": [
        {
          "indexed": false,
          "internalType": "uint8",
          "name": "version",
          "type": "uint8"
        }
      ],
      "name": "Initialized",
      "type": "event"
    },
    {
      "anonymous": false,
      "inputs": [
        {
          "indexed": true,
          "internalType": "address",
          "name": "previousOwner",
          "type": "address"
        },
        {
          "indexed": true,
          "internalType": "address",
          "name": "newOwner",
          "type": "address"
        }
      ],
      "name": "OwnershipTransferred",
      "type": "event"
    },
    {
      "anonymous": false,
      "inputs": [
        {
          "indexed": true,
          "internalType": "address",
          "name": "implementation",
          "type": "address"
        }
      ],
      "name": "Upgraded",
      "type": "event"
    },
    {
      "inputs": [
        {
          "internalType": "uint256",
          "name": "_roleId",
          "type": "uint256"
        },
        {
          "internalType": "string",
          "name": "_permission",
          "type": "string"
        }
      ],
      "name": "addPermissionToRole",
      "outputs": [],
      "stateMutability": "nonpayable",
      "type": "function"
    },
    {
      "inputs": [
        {
          "internalType": "string",
          "name": "_channelId",
          "type": "string"
        },
        {
          "internalType": "address",
          "name": "_entitlement",
          "type": "address"
        },
        {
          "internalType": "uint256",
          "name": "_roleId",
          "type": "uint256"
        }
      ],
      "name": "addRoleToChannel",
      "outputs": [],
      "stateMutability": "nonpayable",
      "type": "function"
    },
    {
      "inputs": [
        {
          "internalType": "address",
          "name": "_entitlement",
          "type": "address"
        },
        {
          "internalType": "uint256",
          "name": "_roleId",
          "type": "uint256"
        },
        {
          "internalType": "bytes",
          "name": "_entitlementData",
          "type": "bytes"
        }
      ],
      "name": "addRoleToEntitlement",
      "outputs": [],
      "stateMutability": "nonpayable",
      "type": "function"
    },
    {
      "inputs": [
        {
          "internalType": "uint256",
          "name": "",
          "type": "uint256"
        }
      ],
      "name": "channels",
      "outputs": [
        {
          "internalType": "bytes32",
          "name": "",
          "type": "bytes32"
        }
      ],
      "stateMutability": "view",
      "type": "function"
    },
    {
      "inputs": [
        {
          "internalType": "bytes32",
          "name": "",
          "type": "bytes32"
        }
      ],
      "name": "channelsByHash",
      "outputs": [
        {
          "internalType": "string",
          "name": "name",
          "type": "string"
        },
        {
          "internalType": "bytes32",
          "name": "channelId",
          "type": "bytes32"
        },
        {
          "internalType": "uint256",
          "name": "createdAt",
          "type": "uint256"
        },
        {
          "internalType": "bool",
          "name": "disabled",
          "type": "bool"
        }
      ],
      "stateMutability": "view",
      "type": "function"
    },
    {
      "inputs": [
        {
          "components": [
            {
              "internalType": "string",
              "name": "channelName",
              "type": "string"
            },
            {
              "internalType": "string",
              "name": "channelNetworkId",
              "type": "string"
            },
            {
              "internalType": "uint256[]",
              "name": "roleIds",
              "type": "uint256[]"
            }
          ],
          "internalType": "struct DataTypes.CreateChannelData",
          "name": "_info",
          "type": "tuple"
        }
      ],
      "name": "createChannel",
      "outputs": [
        {
          "internalType": "bytes32",
          "name": "",
          "type": "bytes32"
        }
      ],
      "stateMutability": "nonpayable",
      "type": "function"
    },
    {
      "inputs": [
        {
          "internalType": "string",
          "name": "_roleName",
          "type": "string"
        },
        {
          "internalType": "string[]",
          "name": "_permissions",
          "type": "string[]"
        }
      ],
      "name": "createRole",
      "outputs": [
        {
          "internalType": "uint256",
          "name": "",
          "type": "uint256"
        }
      ],
      "stateMutability": "nonpayable",
      "type": "function"
    },
    {
      "inputs": [
        {
          "internalType": "uint256",
          "name": "",
          "type": "uint256"
        }
      ],
      "name": "entitlements",
      "outputs": [
        {
          "internalType": "address",
          "name": "",
          "type": "address"
        }
      ],
      "stateMutability": "view",
      "type": "function"
    },
    {
      "inputs": [
        {
          "internalType": "bytes32",
          "name": "_channelHash",
          "type": "bytes32"
        }
      ],
      "name": "getChannelByHash",
      "outputs": [
        {
          "components": [
            {
              "internalType": "string",
              "name": "name",
              "type": "string"
            },
            {
              "internalType": "bytes32",
              "name": "channelId",
              "type": "bytes32"
            },
            {
              "internalType": "uint256",
              "name": "createdAt",
              "type": "uint256"
            },
            {
              "internalType": "bool",
              "name": "disabled",
              "type": "bool"
            }
          ],
          "internalType": "struct DataTypes.Channel",
          "name": "",
          "type": "tuple"
        }
      ],
      "stateMutability": "view",
      "type": "function"
    },
    {
      "inputs": [],
      "name": "getEntitlements",
      "outputs": [
        {
          "internalType": "address[]",
          "name": "",
          "type": "address[]"
        }
      ],
      "stateMutability": "view",
      "type": "function"
    },
    {
      "inputs": [
        {
          "internalType": "uint256",
          "name": "_roleId",
          "type": "uint256"
        }
      ],
      "name": "getPermissionsByRoleId",
      "outputs": [
        {
          "internalType": "bytes32[]",
          "name": "",
          "type": "bytes32[]"
        }
      ],
      "stateMutability": "view",
      "type": "function"
    },
    {
      "inputs": [
        {
          "internalType": "uint256",
          "name": "_roleId",
          "type": "uint256"
        }
      ],
      "name": "getRoleById",
      "outputs": [
        {
          "components": [
            {
              "internalType": "uint256",
              "name": "roleId",
              "type": "uint256"
            },
            {
              "internalType": "string",
              "name": "name",
              "type": "string"
            }
          ],
          "internalType": "struct DataTypes.Role",
          "name": "",
          "type": "tuple"
        }
      ],
      "stateMutability": "view",
      "type": "function"
    },
    {
      "inputs": [],
      "name": "getRoles",
      "outputs": [
        {
          "components": [
            {
              "internalType": "uint256",
              "name": "roleId",
              "type": "uint256"
            },
            {
              "internalType": "string",
              "name": "name",
              "type": "string"
            }
          ],
          "internalType": "struct DataTypes.Role[]",
          "name": "",
          "type": "tuple[]"
        }
      ],
      "stateMutability": "view",
      "type": "function"
    },
    {
      "inputs": [
        {
          "internalType": "address",
          "name": "",
          "type": "address"
        }
      ],
      "name": "hasEntitlement",
      "outputs": [
        {
          "internalType": "bool",
          "name": "",
          "type": "bool"
        }
      ],
      "stateMutability": "view",
      "type": "function"
    },
    {
      "inputs": [
        {
          "internalType": "string",
          "name": "_name",
          "type": "string"
        },
        {
          "internalType": "string",
          "name": "_networkId",
          "type": "string"
        },
        {
          "internalType": "address[]",
          "name": "_entitlements",
          "type": "address[]"
        }
      ],
      "name": "initialize",
      "outputs": [],
      "stateMutability": "nonpayable",
      "type": "function"
    },
    {
      "inputs": [
        {
          "internalType": "address",
          "name": "_user",
          "type": "address"
        },
        {
          "internalType": "string",
          "name": "_permission",
          "type": "string"
        }
      ],
      "name": "isEntitled",
      "outputs": [
        {
          "internalType": "bool",
          "name": "_entitled",
          "type": "bool"
        }
      ],
      "stateMutability": "view",
      "type": "function"
    },
    {
      "inputs": [
        {
          "internalType": "string",
          "name": "_channelId",
          "type": "string"
        },
        {
          "internalType": "address",
          "name": "_user",
          "type": "address"
        },
        {
          "internalType": "string",
          "name": "_permission",
          "type": "string"
        }
      ],
      "name": "isEntitled",
      "outputs": [
        {
          "internalType": "bool",
          "name": "_entitled",
          "type": "bool"
        }
      ],
      "stateMutability": "view",
      "type": "function"
    },
    {
      "inputs": [],
      "name": "name",
      "outputs": [
        {
          "internalType": "string",
          "name": "",
          "type": "string"
        }
      ],
      "stateMutability": "view",
      "type": "function"
    },
    {
      "inputs": [],
      "name": "networkId",
      "outputs": [
        {
          "internalType": "string",
          "name": "",
          "type": "string"
        }
      ],
      "stateMutability": "view",
      "type": "function"
    },
    {
      "inputs": [],
      "name": "owner",
      "outputs": [
        {
          "internalType": "address",
          "name": "",
          "type": "address"
        }
      ],
      "stateMutability": "view",
      "type": "function"
    },
    {
      "inputs": [],
      "name": "ownerRoleId",
      "outputs": [
        {
          "internalType": "uint256",
          "name": "",
          "type": "uint256"
        }
      ],
      "stateMutability": "view",
      "type": "function"
    },
    {
      "inputs": [],
      "name": "proxiableUUID",
      "outputs": [
        {
          "internalType": "bytes32",
          "name": "",
          "type": "bytes32"
        }
      ],
      "stateMutability": "view",
      "type": "function"
    },
    {
      "inputs": [
        {
          "internalType": "uint256",
          "name": "_roleId",
          "type": "uint256"
        },
        {
          "internalType": "string",
          "name": "_permission",
          "type": "string"
        }
      ],
      "name": "removePermissionFromRole",
      "outputs": [],
      "stateMutability": "nonpayable",
      "type": "function"
    },
    {
      "inputs": [
        {
          "internalType": "uint256",
          "name": "_roleId",
          "type": "uint256"
        }
      ],
      "name": "removeRole",
      "outputs": [],
      "stateMutability": "nonpayable",
      "type": "function"
    },
    {
      "inputs": [
        {
          "internalType": "string",
          "name": "_channelId",
          "type": "string"
        },
        {
          "internalType": "address",
          "name": "_entitlement",
          "type": "address"
        },
        {
          "internalType": "uint256",
          "name": "_roleId",
          "type": "uint256"
        }
      ],
      "name": "removeRoleFromChannel",
      "outputs": [],
      "stateMutability": "nonpayable",
      "type": "function"
    },
    {
      "inputs": [
        {
          "internalType": "address",
          "name": "_entitlement",
          "type": "address"
        },
        {
          "internalType": "uint256",
          "name": "_roleId",
          "type": "uint256"
        },
        {
          "internalType": "bytes",
          "name": "_entitlementData",
          "type": "bytes"
        }
      ],
      "name": "removeRoleFromEntitlement",
      "outputs": [],
      "stateMutability": "nonpayable",
      "type": "function"
    },
    {
      "inputs": [],
      "name": "renounceOwnership",
      "outputs": [],
      "stateMutability": "nonpayable",
      "type": "function"
    },
    {
      "inputs": [],
      "name": "roleId",
      "outputs": [
        {
          "internalType": "uint256",
          "name": "",
          "type": "uint256"
        }
      ],
      "stateMutability": "view",
      "type": "function"
    },
    {
      "inputs": [
        {
          "internalType": "uint256",
          "name": "",
          "type": "uint256"
        }
      ],
      "name": "rolesById",
      "outputs": [
        {
          "internalType": "uint256",
          "name": "roleId",
          "type": "uint256"
        },
        {
          "internalType": "string",
          "name": "name",
          "type": "string"
        }
      ],
      "stateMutability": "view",
      "type": "function"
    },
    {
      "inputs": [
        {
          "internalType": "string",
          "name": "_channelId",
          "type": "string"
        },
        {
          "internalType": "bool",
          "name": "_disabled",
          "type": "bool"
        }
      ],
      "name": "setChannelAccess",
      "outputs": [],
      "stateMutability": "nonpayable",
      "type": "function"
    },
    {
      "inputs": [
        {
          "internalType": "address",
          "name": "_entitlement",
          "type": "address"
        },
        {
          "internalType": "bool",
          "name": "_whitelist",
          "type": "bool"
        }
      ],
      "name": "setEntitlement",
      "outputs": [],
      "stateMutability": "nonpayable",
      "type": "function"
    },
    {
      "inputs": [
        {
          "internalType": "uint256",
          "name": "_roleId",
          "type": "uint256"
        }
      ],
      "name": "setOwnerRoleId",
      "outputs": [],
      "stateMutability": "nonpayable",
      "type": "function"
    },
    {
      "inputs": [
        {
          "internalType": "address",
          "name": "newOwner",
          "type": "address"
        }
      ],
      "name": "transferOwnership",
      "outputs": [],
      "stateMutability": "nonpayable",
      "type": "function"
    },
    {
      "inputs": [
        {
          "internalType": "address",
          "name": "newImplementation",
          "type": "address"
        }
      ],
      "name": "upgradeTo",
      "outputs": [],
      "stateMutability": "nonpayable",
      "type": "function"
    },
    {
      "inputs": [
        {
          "internalType": "address",
          "name": "newImplementation",
          "type": "address"
        },
        {
          "internalType": "bytes",
          "name": "data",
          "type": "bytes"
        }
      ],
      "name": "upgradeToAndCall",
      "outputs": [],
      "stateMutability": "payable",
      "type": "function"
    }
  ],
  "bytecode": {
    "object": "0x60a06040523060805234801561001457600080fd5b50608051613b1f61004c60003960008181610de701528181610e300152818161127a015281816112ba015261134d0152613b1f6000f3fe6080604052600436106102045760003560e01c8063715018a611610118578063baaf3d57116100a0578063e5949b5d1161006f578063e5949b5d1461061d578063f28f9b561461063d578063f2fde38b1461065d578063f3b96ab41461067d578063f740bb6b1461069d57600080fd5b8063baaf3d5714610599578063ca275931146105b9578063d1a6a961146105d9578063e5894ef4146105ef57600080fd5b8063851c32e1116100e7578063851c32e1146104e55780638da5cb5b146105055780639025e64c14610537578063926918211461054c578063b42642331461056c57600080fd5b8063715018a61461045d57806373368a4814610472578063784c872b146104885780637f8d06d0146104b557600080fd5b80633e2fb8f21161019b57806352d1902d1161016a57806352d1902d146103b95780635de151b8146103ce57806366fb345c146103ee578063703511f81461040e578063710613981461043b57600080fd5b80633e2fb8f214610344578063487dc38c146103645780634999ab16146103865780634f1ef286146103a657600080fd5b806320158494116101d757806320158494146102a65780632f8d1925146102d6578063333f1b11146103045780633659cfe61461032457600080fd5b8063032be70d1461020957806306fdde031461022b578063129ab3c8146102565780631dea616a14610286575b600080fd5b34801561021557600080fd5b50610229610224366004612e98565b6106bd565b005b34801561023757600080fd5b506102406108d8565b60405161024d9190612f3e565b60405180910390f35b34801561026257600080fd5b50610276610271366004612f51565b610966565b60405161024d9493929190612f6a565b34801561029257600080fd5b506102296102a1366004612fe3565b610a1b565b3480156102b257600080fd5b506102c66102c136600461303e565b610b4c565b604051901515815260200161024d565b3480156102e257600080fd5b506102f66102f13660046130b3565b610bc2565b60405190815260200161024d565b34801561031057600080fd5b506102c661031f36600461318c565b610d5b565b34801561033057600080fd5b5061022961033f36600461320f565b610ddd565b34801561035057600080fd5b5061022961035f36600461322a565b610ec5565b34801561037057600080fd5b506103796110da565b60405161024d9190613283565b34801561039257600080fd5b506102296103a1366004612f51565b61113c565b6102296103b43660046132d0565b611270565b3480156103c557600080fd5b506102f6611340565b3480156103da57600080fd5b506102296103e936600461332b565b6113f3565b3480156103fa57600080fd5b50610229610409366004613381565b6114b9565b34801561041a57600080fd5b5061042e610429366004612f51565b611634565b60405161024d91906133b1565b34801561044757600080fd5b5061045061172c565b60405161024d9190613420565b34801561046957600080fd5b5061022961189a565b34801561047e57600080fd5b506102f660cf5481565b34801561049457600080fd5b506104a86104a3366004612f51565b6118ae565b60405161024d9190613482565b3480156104c157600080fd5b506102c66104d036600461320f565b60cc6020526000908152604090205460ff1681565b3480156104f157600080fd5b506102f6610500366004613495565b611984565b34801561051157600080fd5b506033546001600160a01b03165b6040516001600160a01b03909116815260200161024d565b34801561054357600080fd5b50610240611d28565b34801561055857600080fd5b50610229610567366004612f51565b611d35565b34801561057857600080fd5b5061058c610587366004612f51565b611e26565b60405161024d91906134cf565b3480156105a557600080fd5b506102296105b4366004612fe3565b611e88565b3480156105c557600080fd5b506102296105d4366004613507565b611f81565b3480156105e557600080fd5b506102f660cb5481565b3480156105fb57600080fd5b5061060f61060a366004612f51565b6120fa565b60405161024d9291906135eb565b34801561062957600080fd5b506102f6610638366004612f51565b61219f565b34801561064957600080fd5b5061051f610658366004612f51565b6121c0565b34801561066957600080fd5b5061022961067836600461320f565b6121ea565b34801561068957600080fd5b50610229610698366004613604565b612260565b3480156106a957600080fd5b506102296106b8366004613381565b6122f2565b6106f960405180602001604052806000815250604051806040016040528060168152602001600080516020613aa38339815191528152506124d3565b6001600160a01b038316600090815260cc602052604090205460ff166107325760405163c1ef36f360e01b815260040160405180910390fd5b600082815260d0602052604081205490036107605760405163b810dc5d60e01b815260040160405180910390fd5b600082826040516020016107759291906135eb565b60408051601f198184030181528282528051602091820120600087815260cd8352838120805480850287018501909552848652919550939290918301828280156107de57602002820191906000526020600020905b8154815260200190600101908083116107ca575b5050505050905060005b815181101561083c57828282815181106108045761080461363b565b60200260200101510361082a5760405163c5c9ad6760e01b815260040160405180910390fd5b8061083481613667565b9150506107e8565b50600084815260cd602090815260408083208054600181018255908452919092200183905551633be2f95d60e21b81526001600160a01b0386169063ef8be5749061088d90879087906004016135eb565b6020604051808303816000875af11580156108ac573d6000803e3d6000fd5b505050506040513d601f19601f820116820180604052508101906108d09190613680565b505050505050565b60c980546108e590613699565b80601f016020809104026020016040519081016040528092919081815260200182805461091190613699565b801561095e5780601f106109335761010080835404028352916020019161095e565b820191906000526020600020905b81548152906001019060200180831161094157829003601f168201915b505050505081565b60d36020526000908152604090208054819061098190613699565b80601f01602080910402602001604051908101604052809291908181526020018280546109ad90613699565b80156109fa5780601f106109cf576101008083540402835291602001916109fa565b820191906000526020600020905b8154815290600101906020018083116109dd57829003601f168201915b50505050600183015460028401546003909401549293909290915060ff1684565b610a7d84848080601f016020809104026020016040519081016040528093929190818152602001838380828437600092019190915250506040805180820190915260168152600080516020613aa3833981519152602082015291506124d39050565b6001600160a01b038216600090815260cc602052604090205460ff16610ab65760405163c1ef36f360e01b815260040160405180910390fd5b600081815260d060205260408120549003610ae45760405163b810dc5d60e01b815260040160405180910390fd5b60405163c513be7760e01b81526001600160a01b0383169063c513be7790610b14908790879086906004016136f6565b600060405180830381600087803b158015610b2e57600080fd5b505af1158015610b42573d6000803e3d6000fd5b5050505050505050565b6000805b60ce54811015610bba57610b9e60405180602001604052806000815250868686604051602001610b8192919061371a565b604051602081830303815290604052610b999061372a565b61251f565b15610ba857600191505b80610bb281613667565b915050610b50565b509392505050565b6000610c0060405180602001604052806000815250604051806040016040528060168152602001600080516020613aa38339815191528152506124d3565b600060cf60008154610c1190613667565b918290555060408051808201825260cf5481526020808201888152600085815260d0909252929020815181559151929350918291906001820190610c559082613794565b5090505060005b8451811015610d4f576033546001600160a01b03163314801590610cbb5750610cbb858281518110610c9057610c9061363b565b60200260200101516040518060400160405280600581526020016427bbb732b960d91b8152506125d8565b15610cd9576040516341d2e1af60e01b815260040160405180910390fd5b6000858281518110610ced57610ced61363b565b6020026020010151604051602001610d059190613853565b604051602081830303815290604052610d1d9061372a565b600085815260d16020908152604082208054600181018255908352912001555080610d4781613667565b915050610c5c565b50909150505b92915050565b6000805b60ce54811015610dd357610db787878080601f01602080910402602001604051908101604052809392919081815260200183838082843760009201919091525050604051899250610b8191508890889060200161371a565b15610dc157600191505b80610dcb81613667565b915050610d5f565b5095945050505050565b6001600160a01b037f0000000000000000000000000000000000000000000000000000000000000000163003610e2e5760405162461bcd60e51b8152600401610e259061386f565b60405180910390fd5b7f00000000000000000000000000000000000000000000000000000000000000006001600160a01b0316610e77600080516020613a83833981519152546001600160a01b031690565b6001600160a01b031614610e9d5760405162461bcd60e51b8152600401610e25906138bb565b610ea681612631565b60408051600080825260208201909252610ec291839190612667565b50565b610f0160405180602001604052806000815250604051806040016040528060168152602001600080516020613aa38339815191528152506124d3565b6001600160a01b038416600090815260cc602052604090205460ff16610f3a5760405163c1ef36f360e01b815260040160405180910390fd5b600083815260d060205260408120549003610f685760405163b810dc5d60e01b815260040160405180910390fd5b6000838383604051602001610f7f93929190613907565b60408051601f198184030181529181528151602092830120600087815260cd909352908220909250905b815481101561105d57818181548110610fc457610fc461363b565b9060005260206000200154830361104b5781548290610fe590600190613921565b81548110610ff557610ff561363b565b90600052602060002001548282815481106110125761101261363b565b90600052602060002001819055508180548061103057611030613934565b6001900381819060005260206000200160009055905561105d565b8061105581613667565b915050610fa9565b5060405163fa6d1adf60e01b81526001600160a01b0387169063fa6d1adf9061108e90889088908890600401613907565b6020604051808303816000875af11580156110ad573d6000803e3d6000fd5b505050506040513d601f19601f820116820180604052508101906110d19190613680565b50505050505050565b606060ce80548060200260200160405190810160405280929190818152602001828054801561113257602002820191906000526020600020905b81546001600160a01b03168152600190910190602001808311611114575b5050505050905090565b611172604051806020016040528060008152506040518060400160405280600581526020016427bbb732b960d91b8152506124d3565b600081815260d0602052604081205490036111a05760405163b810dc5d60e01b815260040160405180910390fd5b6000805b600083815260d1602052604090205481101561124b576040518060400160405280600581526020016427bbb732b960d91b8152506040516020016111e89190613853565b6040516020818303038152906040526112009061372a565b600084815260d1602052604090208054839081106112205761122061363b565b906000526020600020015403611239576001915061124b565b8061124381613667565b9150506111a4565b508061126a57604051633e74bd6360e21b815260040160405180910390fd5b5060cb55565b6001600160a01b037f00000000000000000000000000000000000000000000000000000000000000001630036112b85760405162461bcd60e51b8152600401610e259061386f565b7f00000000000000000000000000000000000000000000000000000000000000006001600160a01b0316611301600080516020613a83833981519152546001600160a01b031690565b6001600160a01b0316146113275760405162461bcd60e51b8152600401610e25906138bb565b61133082612631565b61133c82826001612667565b5050565b6000306001600160a01b037f000000000000000000000000000000000000000000000000000000000000000016146113e05760405162461bcd60e51b815260206004820152603860248201527f555550535570677261646561626c653a206d757374206e6f742062652063616c60448201527f6c6564207468726f7567682064656c656761746563616c6c00000000000000006064820152608401610e25565b50600080516020613a8383398151915290565b611435604051806020016040528060008152506040518060400160405280601181526020017041646452656d6f76654368616e6e656c7360781b8152506124d3565b6000838360405160200161144a92919061371a565b60408051601f198184030181529181528151602092830120600081815260d390935290822060010154909250900361149557604051636ddd9da960e01b815260040160405180910390fd5b600090815260d360205260409020600301805460ff19169115159190911790555050565b6114f560405180602001604052806000815250604051806040016040528060168152602001600080516020613aa38339815191528152506124d3565b61151c816040518060400160405280600581526020016427bbb732b960d91b8152506125d8565b1561153a57604051631eb49d6d60e11b815260040160405180910390fd5b600082815260d0602052604081205490036115685760405163b810dc5d60e01b815260040160405180910390fd5b60008160405160200161157b9190613853565b6040516020818303038152906040526115939061372a565b905060005b600084815260d1602052604090205481101561160c57600084815260d1602052604090208054839190839081106115d1576115d161363b565b9060005260206000200154036115fa57604051636571d65f60e01b815260040160405180910390fd5b8061160481613667565b915050611598565b50600092835260d1602090815260408420805460018101825590855293209092019190915550565b604080516080810182526060808252600060208301819052928201839052810191909152600082815260d360205260409081902081516080810190925280548290829061168090613699565b80601f01602080910402602001604051908101604052809291908181526020018280546116ac90613699565b80156116f95780601f106116ce576101008083540402835291602001916116f9565b820191906000526020600020905b8154815290600101906020018083116116dc57829003601f168201915b5050509183525050600182015460208201526002820154604082015260039091015460ff16151560609091015292915050565b6060600060cf546001600160401b0381111561174a5761174a612de3565b60405190808252806020026020018201604052801561179057816020015b6040805180820190915260008152606060208201528152602001906001900390816117685790505b50905060005b60cf548110156118945760d060006117af83600161394a565b8152602001908152602001600020604051806040016040529081600082015481526020016001820180546117e290613699565b80601f016020809104026020016040519081016040528092919081815260200182805461180e90613699565b801561185b5780601f106118305761010080835404028352916020019161185b565b820191906000526020600020905b81548152906001019060200180831161183e57829003601f168201915b5050505050815250508282815181106118765761187661363b565b6020026020010181905250808061188c90613667565b915050611796565b50919050565b6118a26127d7565b6118ac6000612831565b565b60408051808201909152600081526060602082015260d06000838152602001908152602001600020604051806040016040529081600082015481526020016001820180546118fb90613699565b80601f016020809104026020016040519081016040528092919081815260200182805461192790613699565b80156119745780601f1061194957610100808354040283529160200191611974565b820191906000526020600020905b81548152906001019060200180831161195757829003601f168201915b5050505050815250509050919050565b60006119c8604051806020016040528060008152506040518060400160405280601181526020017041646452656d6f76654368616e6e656c7360781b8152506124d3565b60006119d7602084018461395d565b6040516020016119e892919061371a565b60408051601f198184030181529181528151602092830120600081815260d390935291206001015490915015611a3157604051630139324b60e41b815260040160405180910390fd5b604080516080810190915280611a47858061395d565b8080601f0160208091040260200160405190810160405280939291908181526020018383808284376000920182905250938552505050602080830185905242604080850191909152606090930182905284825260d390522081518190611aad9082613794565b506020820151600182810191909155604083015160028301556060909201516003909101805460ff191691151591909117905560d48054918201815560009081527f9780e26d96b1f2a9a18ef8fc72d589dbf03ef788137b64f43897e83a91e7feec9091018290555b60ce54811015611d2157600060ce8281548110611b3557611b3561363b565b600091825260209182902001546001600160a01b03169150819063c513be7790611b619088018861395d565b60cb546040518463ffffffff1660e01b8152600401611b82939291906136f6565b600060405180830381600087803b158015611b9c57600080fd5b505af1158015611bb0573d6000803e3d6000fd5b5050505060005b611bc460408701876139a3565b9050811015611d0c5760cb54611bdd60408801886139a3565b83818110611bed57611bed61363b565b905060200201350315611cfa5760d06000611c0b60408901896139a3565b84818110611c1b57611c1b61363b565b90506020020135815260200190815260200160002060000154600003611c545760405163b810dc5d60e01b815260040160405180910390fd5b6001600160a01b03821663c513be77611c70602089018961395d565b611c7d60408b018b6139a3565b86818110611c8d57611c8d61363b565b905060200201356040518463ffffffff1660e01b8152600401611cb2939291906136f6565b600060405180830381600087803b158015611ccc57600080fd5b505af1925050508015611cdd575060015b611cfa5760405163d9afe50760e01b815260040160405180910390fd5b80611d0481613667565b915050611bb7565b50508080611d1990613667565b915050611b16565b5092915050565b60ca80546108e590613699565b611d7160405180602001604052806000815250604051806040016040528060168152602001600080516020613aa38339815191528152506124d3565b60cb548103611d9357604051631eb49d6d60e11b815260040160405180910390fd5b600081815260d060205260408120549003611dc15760405163b810dc5d60e01b815260040160405180910390fd5b600081815260cd602052604090205415611dee57604051633764405360e11b815260040160405180910390fd5b600081815260d06020526040812081815590611e0d6001830182612d5a565b5050600081815260d160205260408120610ec291612d94565b600081815260d16020908152604091829020805483518184028101840190945280845260609392830182828015611e7c57602002820191906000526020600020905b815481526020019060010190808311611e68575b50505050509050919050565b611eea84848080601f016020809104026020016040519081016040528093929190818152602001838380828437600092019190915250506040805180820190915260168152600080516020613aa3833981519152602082015291506124d39050565b6001600160a01b038216600090815260cc602052604090205460ff16611f235760405163c1ef36f360e01b815260040160405180910390fd5b600081815260d060205260408120549003611f515760405163b810dc5d60e01b815260040160405180910390fd5b604051637997c1e760e11b81526001600160a01b0383169063f32f83ce90610b14908790879086906004016136f6565b600054610100900460ff1615808015611fa15750600054600160ff909116105b80611fbb5750303b158015611fbb575060005460ff166001145b61201e5760405162461bcd60e51b815260206004820152602e60248201527f496e697469616c697a61626c653a20636f6e747261637420697320616c72656160448201526d191e481a5b9a5d1a585b1a5e995960921b6064820152608401610e25565b6000805460ff191660011790558015612041576000805461ff0019166101001790555b612049612883565b6120516128aa565b60c961205d8582613794565b5060ca61206a8482613794565b5060005b82518110156120ad5761209b83828151811061208c5761208c61363b565b602002602001015160016128d9565b806120a581613667565b91505061206e565b5080156120f4576000805461ff0019169055604051600181527f7f26b83ff96e1f2b6a682f133852f6798a09c465da95921460cefb38474024989060200160405180910390a15b50505050565b60d0602052600090815260409020805460018201805491929161211c90613699565b80601f016020809104026020016040519081016040528092919081815260200182805461214890613699565b80156121955780601f1061216a57610100808354040283529160200191612195565b820191906000526020600020905b81548152906001019060200180831161217857829003601f168201915b5050505050905082565b60d481815481106121af57600080fd5b600091825260209091200154905081565b60ce81815481106121d057600080fd5b6000918252602090912001546001600160a01b0316905081565b6121f26127d7565b6001600160a01b0381166122575760405162461bcd60e51b815260206004820152602660248201527f4f776e61626c653a206e6577206f776e657220697320746865207a65726f206160448201526564647265737360d01b6064820152608401610e25565b610ec281612831565b61229c60405180602001604052806000815250604051806040016040528060168152602001600080516020613aa38339815191528152506124d3565b6122a582612a5a565b8080156122ca57506001600160a01b038216600090815260cc602052604090205460ff165b156122e85760405163186abc9b60e01b815260040160405180910390fd5b61133c82826128d9565b61232e60405180602001604052806000815250604051806040016040528060168152602001600080516020613aa38339815191528152506124d3565b612355816040518060400160405280600581526020016427bbb732b960d91b8152506125d8565b1561237357604051631eb49d6d60e11b815260040160405180910390fd5b600082815260d0602052604081205490036123a15760405163b810dc5d60e01b815260040160405180910390fd5b6000816040516020016123b49190613853565b6040516020818303038152906040526123cc9061372a565b905060005b600084815260d160205260409020548110156120f457600084815260d16020526040902080548391908390811061240a5761240a61363b565b9060005260206000200154036124c157600084815260d160205260409020805461243690600190613921565b815481106124465761244661363b565b906000526020600020015460d1600086815260200190815260200160002082815481106124755761247561363b565b906000526020600020018190555060d160008581526020019081526020016000208054806124a5576124a5613934565b6001900381819060005260206000200160009055905550505050565b806124cb81613667565b9150506123d1565b6033546001600160a01b03163314806124fd57506124fd823383604051602001610b819190613853565b15612506575050565b604051631eb49d6d60e11b815260040160405180910390fd5b6000805b60ce54811015610bba5760ce81815481106125405761254061363b565b60009182526020909120015460405162169d5560e31b81526001600160a01b039091169062b4eaa89061257b908890889088906004016139ec565b602060405180830381865afa158015612598573d6000803e3d6000fd5b505050506040513d601f19601f820116820180604052508101906125bc9190613a1a565b156125c657600191505b806125d081613667565b915050612523565b6000816040516020016125eb9190613853565b60405160208183030381529060405280519060200120836040516020016126129190613853565b6040516020818303038152906040528051906020012014905092915050565b610ec2604051806020016040528060008152506040518060400160405280600581526020016427bbb732b960d91b8152506124d3565b7f4910fdfa16fed3260ed0e7147f7cc6da11a60208b5b9406d12a635614ffd91435460ff161561269f5761269a83612aeb565b505050565b826001600160a01b03166352d1902d6040518163ffffffff1660e01b8152600401602060405180830381865afa9250505080156126f9575060408051601f3d908101601f191682019092526126f691810190613680565b60015b61275c5760405162461bcd60e51b815260206004820152602e60248201527f45524331393637557067726164653a206e657720696d706c656d656e7461746960448201526d6f6e206973206e6f74205555505360901b6064820152608401610e25565b600080516020613a8383398151915281146127cb5760405162461bcd60e51b815260206004820152602960248201527f45524331393637557067726164653a20756e737570706f727465642070726f786044820152681a58589b195555525160ba1b6064820152608401610e25565b5061269a838383612b87565b6033546001600160a01b031633146118ac5760405162461bcd60e51b815260206004820181905260248201527f4f776e61626c653a2063616c6c6572206973206e6f7420746865206f776e65726044820152606401610e25565b603380546001600160a01b038381166001600160a01b0319831681179093556040519116919082907f8be0079c531659141344cd1fd0a4f28419497f9722a3daafe3b4186f6b6457e090600090a35050565b600054610100900460ff166118ac5760405162461bcd60e51b8152600401610e2590613a37565b600054610100900460ff166128d15760405162461bcd60e51b8152600401610e2590613a37565b6118ac612bac565b6001600160a01b038216600090815260cc60205260409020805460ff191682158015919091179091556129575760ce80546001810182556000919091527fd36cd1c74ef8d7326d8021b776c18fb5a5724b7f7bc93c2f42e43e10ef27d12a0180546001600160a01b0384166001600160a01b03199091161790555050565b60005b60ce5481101561269a5760ce81815481106129775761297761363b565b6000918252602090912001546001600160a01b0390811690841603612a485760ce80546129a690600190613921565b815481106129b6576129b661363b565b60009182526020909120015460ce80546001600160a01b0390921691839081106129e2576129e261363b565b9060005260206000200160006101000a8154816001600160a01b0302191690836001600160a01b0316021790555060ce805480612a2157612a21613934565b600082815260209020810160001990810180546001600160a01b0319169055019055505050565b80612a5281613667565b91505061295a565b6040516301ffc9a760e01b8152630acfe65b60e21b60048201526001600160a01b038216906301ffc9a790602401602060405180830381865afa158015612aa5573d6000803e3d6000fd5b505050506040513d601f19601f82011682018060405250810190612ac99190613a1a565b1515600003610ec257604051636d9250f160e11b815260040160405180910390fd5b6001600160a01b0381163b612b585760405162461bcd60e51b815260206004820152602d60248201527f455243313936373a206e657720696d706c656d656e746174696f6e206973206e60448201526c1bdd08184818dbdb9d1c9858dd609a1b6064820152608401610e25565b600080516020613a8383398151915280546001600160a01b0319166001600160a01b0392909216919091179055565b612b9083612bdc565b600082511180612b9d5750805b1561269a576120f48383612c1c565b600054610100900460ff16612bd35760405162461bcd60e51b8152600401610e2590613a37565b6118ac33612831565b612be581612aeb565b6040516001600160a01b038216907fbc7cd75a20ee27fd9adebab32041f755214dbc6bffa90cc0225b39da2e5c2d3b90600090a250565b60606001600160a01b0383163b612c845760405162461bcd60e51b815260206004820152602660248201527f416464726573733a2064656c65676174652063616c6c20746f206e6f6e2d636f6044820152651b9d1c9858dd60d21b6064820152608401610e25565b600080846001600160a01b031684604051612c9f9190613853565b600060405180830381855af49150503d8060008114612cda576040519150601f19603f3d011682016040523d82523d6000602084013e612cdf565b606091505b5091509150612d078282604051806060016040528060278152602001613ac360279139612d10565b95945050505050565b60608315612d1f575081612d29565b612d298383612d30565b9392505050565b815115612d405781518083602001fd5b8060405162461bcd60e51b8152600401610e259190612f3e565b508054612d6690613699565b6000825580601f10612d76575050565b601f016020900490600052602060002090810190610ec29190612dae565b5080546000825590600052602060002090810190610ec291905b5b80821115612dc35760008155600101612daf565b5090565b80356001600160a01b0381168114612dde57600080fd5b919050565b634e487b7160e01b600052604160045260246000fd5b604051601f8201601f191681016001600160401b0381118282101715612e2157612e21612de3565b604052919050565b600082601f830112612e3a57600080fd5b81356001600160401b03811115612e5357612e53612de3565b612e66601f8201601f1916602001612df9565b818152846020838601011115612e7b57600080fd5b816020850160208301376000918101602001919091529392505050565b600080600060608486031215612ead57600080fd5b612eb684612dc7565b92506020840135915060408401356001600160401b03811115612ed857600080fd5b612ee486828701612e29565b9150509250925092565b60005b83811015612f09578181015183820152602001612ef1565b50506000910152565b60008151808452612f2a816020860160208601612eee565b601f01601f19169290920160200192915050565b602081526000612d296020830184612f12565b600060208284031215612f6357600080fd5b5035919050565b608081526000612f7d6080830187612f12565b60208301959095525060408101929092521515606090910152919050565b60008083601f840112612fad57600080fd5b5081356001600160401b03811115612fc457600080fd5b602083019150836020828501011115612fdc57600080fd5b9250929050565b60008060008060608587031215612ff957600080fd5b84356001600160401b0381111561300f57600080fd5b61301b87828801612f9b565b909550935061302e905060208601612dc7565b9396929550929360400135925050565b60008060006040848603121561305357600080fd5b61305c84612dc7565b925060208401356001600160401b0381111561307757600080fd5b61308386828701612f9b565b9497909650939450505050565b60006001600160401b038211156130a9576130a9612de3565b5060051b60200190565b600080604083850312156130c657600080fd5b82356001600160401b03808211156130dd57600080fd5b6130e986838701612e29565b935060209150818501358181111561310057600080fd5b8501601f8101871361311157600080fd5b803561312461311f82613090565b612df9565b81815260059190911b8201840190848101908983111561314357600080fd5b8584015b8381101561317b5780358681111561315f5760008081fd5b61316d8c8983890101612e29565b845250918601918601613147565b508096505050505050509250929050565b6000806000806000606086880312156131a457600080fd5b85356001600160401b03808211156131bb57600080fd5b6131c789838a01612f9b565b90975095508591506131db60208901612dc7565b945060408801359150808211156131f157600080fd5b506131fe88828901612f9b565b969995985093965092949392505050565b60006020828403121561322157600080fd5b612d2982612dc7565b6000806000806060858703121561324057600080fd5b61324985612dc7565b93506020850135925060408501356001600160401b0381111561326b57600080fd5b61327787828801612f9b565b95989497509550505050565b6020808252825182820181905260009190848201906040850190845b818110156132c45783516001600160a01b03168352928401929184019160010161329f565b50909695505050505050565b600080604083850312156132e357600080fd5b6132ec83612dc7565b915060208301356001600160401b0381111561330757600080fd5b61331385828601612e29565b9150509250929050565b8015158114610ec257600080fd5b60008060006040848603121561334057600080fd5b83356001600160401b0381111561335657600080fd5b61336286828701612f9b565b90945092505060208401356133768161331d565b809150509250925092565b6000806040838503121561339457600080fd5b8235915060208301356001600160401b0381111561330757600080fd5b6020815260008251608060208401526133cd60a0840182612f12565b905060208401516040840152604084015160608401526060840151151560808401528091505092915050565b8051825260006020820151604060208501526134186040850182612f12565b949350505050565b6000602080830181845280855180835260408601915060408160051b870101925083870160005b8281101561347557603f198886030184526134638583516133f9565b94509285019290850190600101613447565b5092979650505050505050565b602081526000612d2960208301846133f9565b6000602082840312156134a757600080fd5b81356001600160401b038111156134bd57600080fd5b820160608185031215612d2957600080fd5b6020808252825182820181905260009190848201906040850190845b818110156132c4578351835292840192918401916001016134eb565b60008060006060848603121561351c57600080fd5b83356001600160401b038082111561353357600080fd5b61353f87838801612e29565b945060209150818601358181111561355657600080fd5b61356288828901612e29565b94505060408601358181111561357757600080fd5b86019050601f8101871361358a57600080fd5b803561359861311f82613090565b81815260059190911b820183019083810190898311156135b757600080fd5b928401925b828410156135dc576135cd84612dc7565b825292840192908401906135bc565b80955050505050509250925092565b8281526040602082015260006134186040830184612f12565b6000806040838503121561361757600080fd5b61362083612dc7565b915060208301356136308161331d565b809150509250929050565b634e487b7160e01b600052603260045260246000fd5b634e487b7160e01b600052601160045260246000fd5b60006001820161367957613679613651565b5060010190565b60006020828403121561369257600080fd5b5051919050565b600181811c908216806136ad57607f821691505b60208210810361189457634e487b7160e01b600052602260045260246000fd5b81835281816020850137506000828201602090810191909152601f909101601f19169091010190565b60408152600061370a6040830185876136cd565b9050826020830152949350505050565b8183823760009101908152919050565b805160208083015191908110156118945760001960209190910360031b1b16919050565b601f82111561269a57600081815260208120601f850160051c810160208610156137755750805b601f850160051c820191505b818110156108d057828155600101613781565b81516001600160401b038111156137ad576137ad612de3565b6137c1816137bb8454613699565b8461374e565b602080601f8311600181146137f657600084156137de5750858301515b600019600386901b1c1916600185901b1785556108d0565b600085815260208120601f198616915b8281101561382557888601518255948401946001909101908401613806565b50858210156138435787850151600019600388901b60f8161c191681555b5050505050600190811b01905550565b60008251613865818460208701612eee565b9190910192915050565b6020808252602c908201527f46756e6374696f6e206d7573742062652063616c6c6564207468726f7567682060408201526b19195b1959d85d1958d85b1b60a21b606082015260800190565b6020808252602c908201527f46756e6374696f6e206d7573742062652063616c6c6564207468726f7567682060408201526b6163746976652070726f787960a01b606082015260800190565b838152604060208201526000612d076040830184866136cd565b81810381811115610d5557610d55613651565b634e487b7160e01b600052603160045260246000fd5b80820180821115610d5557610d55613651565b6000808335601e1984360301811261397457600080fd5b8301803591506001600160401b0382111561398e57600080fd5b602001915036819003821315612fdc57600080fd5b6000808335601e198436030181126139ba57600080fd5b8301803591506001600160401b038211156139d457600080fd5b6020019150600581901b3603821315612fdc57600080fd5b6060815260006139ff6060830186612f12565b6001600160a01b039490941660208301525060400152919050565b600060208284031215613a2c57600080fd5b8151612d298161331d565b6020808252602b908201527f496e697469616c697a61626c653a20636f6e7472616374206973206e6f74206960408201526a6e697469616c697a696e6760a81b60608201526080019056fe360894a13ba1a3210667c828492db98dca3e2076cc3735a920a3ca505d382bbc4d6f6469667953706163655065726d697373696f6e7300000000000000000000416464726573733a206c6f772d6c6576656c2064656c65676174652063616c6c206661696c6564a2646970667358221220a75e585b5d1ed2d4eabe7692bb4041a6278cfe1ff6dd0aff57a66d16f88c9d8364736f6c63430008110033",
    "linkReferences": {}
  },
  "methodIdentifiers": {
    "addPermissionToRole(uint256,string)": "66fb345c",
    "addRoleToChannel(string,address,uint256)": "1dea616a",
    "addRoleToEntitlement(address,uint256,bytes)": "032be70d",
    "channels(uint256)": "e5949b5d",
    "channelsByHash(bytes32)": "129ab3c8",
    "createChannel((string,string,uint256[]))": "851c32e1",
    "createRole(string,string[])": "2f8d1925",
    "entitlements(uint256)": "f28f9b56",
    "getChannelByHash(bytes32)": "703511f8",
    "getEntitlements()": "487dc38c",
    "getPermissionsByRoleId(uint256)": "b4264233",
    "getRoleById(uint256)": "784c872b",
    "getRoles()": "71061398",
    "hasEntitlement(address)": "7f8d06d0",
    "initialize(string,string,address[])": "ca275931",
    "isEntitled(address,string)": "20158494",
    "isEntitled(string,address,string)": "333f1b11",
    "name()": "06fdde03",
    "networkId()": "9025e64c",
    "owner()": "8da5cb5b",
    "ownerRoleId()": "d1a6a961",
    "proxiableUUID()": "52d1902d",
    "removePermissionFromRole(uint256,string)": "f740bb6b",
    "removeRole(uint256)": "92691821",
    "removeRoleFromChannel(string,address,uint256)": "baaf3d57",
    "removeRoleFromEntitlement(address,uint256,bytes)": "3e2fb8f2",
    "renounceOwnership()": "715018a6",
    "roleId()": "73368a48",
    "rolesById(uint256)": "e5894ef4",
    "setChannelAccess(string,bool)": "5de151b8",
    "setEntitlement(address,bool)": "f3b96ab4",
    "setOwnerRoleId(uint256)": "4999ab16",
    "transferOwnership(address)": "f2fde38b",
    "upgradeTo(address)": "3659cfe6",
    "upgradeToAndCall(address,bytes)": "4f1ef286"
  },
  "id": 46
}