{
  "abi": [
    {
      "inputs": [
        {
          "internalType": "string",
          "name": "name_",
          "type": "string"
        },
        {
          "internalType": "string",
          "name": "description_",
          "type": "string"
        },
        {
          "internalType": "string",
          "name": "moduleType_",
          "type": "string"
        },
        {
          "internalType": "address",
          "name": "spaceManager_",
          "type": "address"
        },
        {
          "internalType": "address",
          "name": "roleManager_",
          "type": "address"
        },
        {
          "internalType": "address",
          "name": "permissionRegistry_",
          "type": "address"
        }
      ],
      "stateMutability": "nonpayable",
      "type": "constructor"
    },
    {
      "inputs": [],
      "name": "InvalidParameters",
      "type": "error"
    },
    {
      "inputs": [],
      "name": "NotSpaceManager",
      "type": "error"
    },
    {
      "inputs": [],
      "name": "RoleAlreadyExists",
      "type": "error"
    },
    {
      "inputs": [],
      "name": "_permisionRegistry",
      "outputs": [
        {
          "internalType": "address",
          "name": "",
          "type": "address"
        }
      ],
      "stateMutability": "view",
      "type": "function"
    },
    {
      "inputs": [],
      "name": "_roleManager",
      "outputs": [
        {
          "internalType": "address",
          "name": "",
          "type": "address"
        }
      ],
      "stateMutability": "view",
      "type": "function"
    },
    {
      "inputs": [],
      "name": "_spaceManager",
      "outputs": [
        {
          "internalType": "address",
          "name": "",
          "type": "address"
        }
      ],
      "stateMutability": "view",
      "type": "function"
    },
    {
      "inputs": [
        {
          "internalType": "uint256",
          "name": "spaceId",
          "type": "uint256"
        },
        {
          "internalType": "uint256",
          "name": "channelId",
          "type": "uint256"
        },
        {
          "internalType": "uint256",
          "name": "roleId",
          "type": "uint256"
        }
      ],
      "name": "addRoleIdToChannel",
      "outputs": [],
      "stateMutability": "nonpayable",
      "type": "function"
    },
    {
      "inputs": [],
      "name": "description",
      "outputs": [
        {
          "internalType": "string",
          "name": "",
          "type": "string"
        }
      ],
      "stateMutability": "view",
      "type": "function"
    },
    {
      "inputs": [
        {
          "internalType": "uint256",
          "name": "spaceId",
          "type": "uint256"
        },
        {
          "internalType": "address",
          "name": "user",
          "type": "address"
        }
      ],
      "name": "getUserRoles",
      "outputs": [
        {
          "components": [
            {
              "internalType": "uint256",
              "name": "roleId",
              "type": "uint256"
            },
            {
              "internalType": "string",
              "name": "name",
              "type": "string"
            }
          ],
          "internalType": "struct DataTypes.Role[]",
          "name": "",
          "type": "tuple[]"
        }
      ],
      "stateMutability": "view",
      "type": "function"
    },
    {
      "inputs": [
        {
          "internalType": "uint256",
          "name": "spaceId",
          "type": "uint256"
        },
        {
          "internalType": "uint256",
          "name": "channelId",
          "type": "uint256"
        },
        {
          "internalType": "address",
          "name": "user",
          "type": "address"
        },
        {
          "components": [
            {
              "internalType": "string",
              "name": "name",
              "type": "string"
            }
          ],
          "internalType": "struct DataTypes.Permission",
          "name": "permission",
          "type": "tuple"
        }
      ],
      "name": "isEntitled",
      "outputs": [
        {
          "internalType": "bool",
          "name": "",
          "type": "bool"
        }
      ],
      "stateMutability": "view",
      "type": "function"
    },
    {
      "inputs": [
        {
          "internalType": "uint256",
          "name": "spaceId",
          "type": "uint256"
        },
        {
          "internalType": "address",
          "name": "user",
          "type": "address"
        },
        {
          "internalType": "bytes32",
          "name": "entitlementId",
          "type": "bytes32"
        }
      ],
      "name": "isTokenEntitled",
      "outputs": [
        {
          "internalType": "bool",
          "name": "",
          "type": "bool"
        }
      ],
      "stateMutability": "view",
      "type": "function"
    },
    {
      "inputs": [],
      "name": "moduleType",
      "outputs": [
        {
          "internalType": "string",
          "name": "",
          "type": "string"
        }
      ],
      "stateMutability": "view",
      "type": "function"
    },
    {
      "inputs": [],
      "name": "name",
      "outputs": [
        {
          "internalType": "string",
          "name": "",
          "type": "string"
        }
      ],
      "stateMutability": "view",
      "type": "function"
    },
    {
      "inputs": [
        {
          "internalType": "uint256",
          "name": "spaceId",
          "type": "uint256"
        },
        {
          "internalType": "uint256",
          "name": "channelId",
          "type": "uint256"
        },
        {
          "internalType": "uint256",
          "name": "roleId",
          "type": "uint256"
        }
      ],
      "name": "removeRoleIdFromChannel",
      "outputs": [],
      "stateMutability": "nonpayable",
      "type": "function"
    },
    {
      "inputs": [
        {
          "internalType": "uint256",
          "name": "spaceId",
          "type": "uint256"
        },
        {
          "internalType": "uint256",
          "name": "roleId",
          "type": "uint256"
        },
        {
          "internalType": "bytes",
          "name": "entitlementData",
          "type": "bytes"
        }
      ],
      "name": "removeSpaceEntitlement",
      "outputs": [],
      "stateMutability": "nonpayable",
      "type": "function"
    },
    {
      "inputs": [
        {
          "internalType": "uint256",
          "name": "spaceId",
          "type": "uint256"
        },
        {
          "internalType": "uint256",
          "name": "roleId",
          "type": "uint256"
        },
        {
          "internalType": "bytes",
          "name": "entitlementData",
          "type": "bytes"
        }
      ],
      "name": "setSpaceEntitlement",
      "outputs": [],
      "stateMutability": "nonpayable",
      "type": "function"
    },
    {
      "inputs": [
        {
          "internalType": "bytes4",
          "name": "interfaceId",
          "type": "bytes4"
        }
      ],
      "name": "supportsInterface",
      "outputs": [
        {
          "internalType": "bool",
          "name": "",
          "type": "bool"
        }
      ],
      "stateMutability": "view",
      "type": "function"
    }
  ],
  "bytecode": {
    "object": "0x60e06040523480156200001157600080fd5b5060405162002266380380620022668339810160408190526200003491620001a7565b85858585858562000045836200009a565b6000620000538782620002fe565b506001620000628682620002fe565b506002620000718582620002fe565b506001600160a01b0392831660805290821660a0521660c05250620003ca975050505050505050565b6001600160a01b038116620000c257604051630e52390960e41b815260040160405180910390fd5b50565b634e487b7160e01b600052604160045260246000fd5b600082601f830112620000ed57600080fd5b81516001600160401b03808211156200010a576200010a620000c5565b604051601f8301601f19908116603f01168101908282118183101715620001355762000135620000c5565b816040528381526020925086838588010111156200015257600080fd5b600091505b8382101562000176578582018301518183018401529082019062000157565b600093810190920192909252949350505050565b80516001600160a01b0381168114620001a257600080fd5b919050565b60008060008060008060c08789031215620001c157600080fd5b86516001600160401b0380821115620001d957600080fd5b620001e78a838b01620000db565b97506020890151915080821115620001fe57600080fd5b6200020c8a838b01620000db565b965060408901519150808211156200022357600080fd5b506200023289828a01620000db565b94505062000243606088016200018a565b925062000253608088016200018a565b91506200026360a088016200018a565b90509295509295509295565b600181811c908216806200028457607f821691505b602082108103620002a557634e487b7160e01b600052602260045260246000fd5b50919050565b601f821115620002f957600081815260208120601f850160051c81016020861015620002d45750805b601f850160051c820191505b81811015620002f557828155600101620002e0565b5050505b505050565b81516001600160401b038111156200031a576200031a620000c5565b62000332816200032b84546200026f565b84620002ab565b602080601f8311600181146200036a5760008415620003515750858301515b600019600386901b1c1916600185901b178555620002f5565b600085815260208120601f198616915b828110156200039b578886015182559484019460019091019084016200037a565b5085821015620003ba5787850151600019600388901b60f8161c191681555b5050505050600190811b01905550565b60805160a05160c051611e426200042460003960006101ab01526000818161021b01528181610b1301526114ca0152600081816101310152818161032d015281816104bd015281816105f801526106e10152611e426000f3fe608060405234801561001057600080fd5b50600436106100ea5760003560e01c80635c1b185d1161008c5780637284e416116100665780637284e416146101fb578063e1709f2914610203578063f4339a9714610216578063f725f2f61461023d57600080fd5b80635c1b185d146101cd5780636465e69f146101e057806366218999146101e857600080fd5b80633d1dea8c116100c85780633d1dea8c1461016b57806340a74b43146101805780634b0fd1a2146101935780635acad43c146101a657600080fd5b806301ffc9a7146100ef57806306fdde03146101175780633820c2ad1461012c575b600080fd5b6101026100fd366004611669565b61025d565b60405190151581526020015b60405180910390f35b61011f610294565b60405161010e91906116e3565b6101537f000000000000000000000000000000000000000000000000000000000000000081565b6040516001600160a01b03909116815260200161010e565b61017e6101793660046116f6565b610322565b005b61017e61018e366004611775565b6104b2565b61017e6101a13660046116f6565b6105ed565b6101537f000000000000000000000000000000000000000000000000000000000000000081565b61017e6101db366004611775565b6106d6565b61011f610806565b6101026101f636600461186d565b610813565b61011f610841565b610102610211366004611945565b61084e565b6101537f000000000000000000000000000000000000000000000000000000000000000081565b61025061024b36600461197d565b6109db565b60405161010e91906119ad565b60006001600160e01b0319821663ebb6cfd560e01b148061028e57506301ffc9a760e01b6001600160e01b03198316145b92915050565b600080546102a190611a21565b80601f01602080910402602001604051908101604052809291908181526020018280546102cd90611a21565b801561031a5780601f106102ef5761010080835404028352916020019161031a565b820191906000526020600020905b8154815290600101906020018083116102fd57829003601f168201915b505050505081565b336001600160a01b037f0000000000000000000000000000000000000000000000000000000000000000161461036b576040516312cb521760e11b815260040160405180910390fd5b600083838360405160200161038293929190611a5b565b60408051601f198184030181528282528051602091820120600089815260038084528482208a8352018352838120805480850287018501909552848652919550939290918301828280156103f557602002820191906000526020600020905b8154815260200190600101908083116103e1575b5050505050905060005b815181101561045e578282828151811061041b5761041b611a91565b60200260200101510361044c5760008781526003602081815260408084208585529092019052812061044c916115d5565b8061045681611aa7565b9150506103ff565b5060008681526003602081815260408084208685529091528220828155600181018390556002810180546001600160a01b0319169055908101829055906104a860048301826115f6565b5050505050505050565b336001600160a01b037f000000000000000000000000000000000000000000000000000000000000000016146104fb576040516312cb521760e11b815260040160405180910390fd5b600083815260036020908152604080832085845260020182528083208054825181850281018501909352808352919290919083018282801561055c57602002820191906000526020600020905b815481526020019060010190808311610548575b5050505050905060005b81518110156105ba578282828151811061058257610582611a91565b6020026020010151036105a857604051636014eda760e11b815260040160405180910390fd5b806105b281611aa7565b915050610566565b50506000928352600360209081526040808520938552600290930181529183208054600181018255908452919092200155565b336001600160a01b037f00000000000000000000000000000000000000000000000000000000000000001614610636576040516312cb521760e11b815260040160405180910390fd5b600083838360405160200161064d93929190611a5b565b60408051601f198184030181529181528151602092830120600088815260038452828120600180820180549182018155835285832001839055828252909352912090915061069e8185858886610bc5565b506000948552600360208181526040808820968852959091018152938520805460018101825590865293909420909201929092555050565b336001600160a01b037f0000000000000000000000000000000000000000000000000000000000000000161461071f576040516312cb521760e11b815260040160405180910390fd5b600083815260036020908152604080832085845260020182528083208054825181850281018501909352808352919290919083018282801561078057602002820191906000526020600020905b81548152602001906001019080831161076c575b5050505050905060005b81518110156107ff57828282815181106107a6576107a6611a91565b6020026020010151036107ed57600085815260036020908152604080832087845260020190915290208054829081106107e1576107e1611a91565b60009182526020822001555b806107f781611aa7565b91505061078a565b5050505050565b600280546102a190611a21565b6000831561082e5761082785858585610dce565b9050610839565b610827858484610fff565b949350505050565b600180546102a190611a21565b6000838152600360209081526040808320848452825280832060040180548251818502810185019093528083528493849084015b828210156108e4576000848152602090819020604080516080810182526004860290920180546001600160a01b0316835260018082015484860152600282015460ff161515928401929092526003015460608301529083529092019101610882565b5050505090506000805b82518110156109cf57600083828151811061090b5761090b611a91565b6020026020010151602001519050600084838151811061092d5761092d611a91565b6020026020010151606001519050600085848151811061094f5761094f611a91565b6020026020010151604001519050600086858151811061097157610971611a91565b602002602001015160000151905061098c818b8685876112fa565b8061099d575061099d818b86611418565b156109ab57600195506109b8565b60009550505050506109cf565b5050505080806109c790611aa7565b9150506108ee565b509150505b9392505050565b6000828152600360209081526040808320600101805482518185028101850190935280835260609493830182828015610a3357602002820191906000526020600020905b815481526020019060010190808311610a1f575b50505050509050600081516001600160401b03811115610a5557610a556117b6565b604051908082528060200260200182016040528015610a9b57816020015b604080518082019091526000815260606020820152815260200190600190039081610a735790505b50905060005b8251811015610bbc576000838281518110610abe57610abe611a91565b60200260200101519050610ad387878361084e565b15610ba95760008781526003602090815260408083208484529091529081902060010154905163d9af4ecf60e01b815260048101899052602481018290527f00000000000000000000000000000000000000000000000000000000000000006001600160a01b03169063d9af4ecf90604401600060405180830381865afa158015610b62573d6000803e3d6000fd5b505050506040513d6000823e601f3d908101601f19168201604052610b8a9190810190611b13565b848481518110610b9c57610b9c611a91565b6020026020010181905250505b5080610bb481611aa7565b915050610aa1565b50949350505050565b6000610bd384860186611bc2565b805151909150600003610c1d5760405162461bcd60e51b815260206004820152600d60248201526c139bc81d1bdad95b9cc81cd95d609a1b60448201526064015b60405180910390fd5b805160005b8151811015610da25760006001600160a01b0316828281518110610c4857610c48611a91565b6020026020010151600001516001600160a01b031603610c9f5760405162461bcd60e51b8152602060048201526012602482015271139bc81d1bdad95b9cc81c1c9bdd9a59195960721b6044820152606401610c14565b818181518110610cb157610cb1611a91565b602002602001015160200151600003610d055760405162461bcd60e51b8152602060048201526016602482015275139bc81c5d585b9d1a5d1a595cc81c1c9bdd9a59195960521b6044820152606401610c14565b6000828281518110610d1957610d19611a91565b60209081029190910181015160048b810180546001808201835560009283529185902084519190930290920180546001600160a01b0319166001600160a01b039093169290921782559282015192810192909255604081015160028301805460ff1916911515919091179055606001516003909101555080610d9a81611aa7565b915050610c22565b5050506002850180546001600160a01b0319163317905542600386015560018501919091559092555050565b6000848152600360209081526040808320868452600201825280832080548251818502810185019093528083528493830182828015610e2c57602002820191906000526020600020905b815481526020019060010190808311610e18575b50505050509050600081516001600160401b03811115610e4e57610e4e6117b6565b604051908082528060200260200182016040528015610e77578160200160208202803683370190505b50905060005b8251811015610ee7576000838281518110610e9a57610e9a611a91565b60200260200101519050610eaf8982886114a0565b15610ed45780838381518110610ec757610ec7611a91565b6020026020010181815250505b5080610edf81611aa7565b915050610e7d565b5060005b8151811015610ff1576000600360008a81526020019081526020016000206003016000848481518110610f2057610f20611a91565b60200260200101518152602001908152602001600020805480602002602001604051908101604052809291908181526020018280548015610f8057602002820191906000526020600020905b815481526020019060010190808311610f6c575b5050505050905060005b8151811015610fdc57610fb78a89848481518110610faa57610faa611a91565b602002602001015161084e565b15610fca57600195505050505050610839565b80610fd481611aa7565b915050610f8a565b50508080610fe990611aa7565b915050610eeb565b506000979650505050505050565b60008381526003602090815260408083206001018054825181850281018501909352808352849383018282801561105557602002820191906000526020600020905b815481526020019060010190808311611041575b50505050509050600081516001600160401b03811115611077576110776117b6565b6040519080825280602002602001820160405280156110a0578160200160208202803683370190505b50905060005b82518110156111f85760008382815181106110c3576110c3611a91565b60209081029190910181015160008a8152600380845260408083208484528552808320815160a0810183528154815260018201548188015260028201546001600160a01b0316818401529281015460608401526004810180548351818902810189019094528084529597509395929490936080860193909190879084015b828210156111a3576000848152602090819020604080516080810182526004860290920180546001600160a01b0316835260018082015484860152600282015460ff161515928401929092526003015460608301529083529092019101611141565b5050509152505060208101519091506111bd8a828a6114a0565b156111e257808585815181106111d5576111d5611a91565b6020026020010181815250505b50505080806111f090611aa7565b9150506110a6565b5060005b81518110156112ed57600082828151811061121957611219611a91565b60209081029190910181015160008a81526003808452604080832084845290910184528082208054825181870281018701909352808352939550919390929083018282801561128757602002820191906000526020600020905b815481526020019060010190808311611273575b5050505050905060005b81518110156112d7576112b18a8a848481518110610faa57610faa611a91565b156112c557600196505050505050506109d4565b806112cf81611aa7565b915050611291565b50505080806112e590611aa7565b9150506111fc565b5060009695505050505050565b60008215611391576040516331a9108f60e11b8152600481018390526001600160a01b03871690636352211e90602401602060405180830381865afa925050508015611363575060408051601f3d908101601f1916820190925261136091810190611cd7565b60015b1561140b57856001600160a01b0316816001600160a01b03160361138b57600191505061140f565b5061140b565b6040516370a0823160e01b81526001600160a01b0386811660048301528716906370a0823190602401602060405180830381865afa9250505080156113f3575060408051601f3d908101601f191682019092526113f091810190611cf4565b60015b1561140b5784811061140957600191505061140f565b505b5060005b95945050505050565b6040516370a0823160e01b81526001600160a01b038381166004830152600091908516906370a0823190602401602060405180830381865afa92505050801561147e575060408051601f3d908101601f1916820190925261147b91810190611cf4565b60015b15611496578281106114945760019150506109d4565b505b5060009392505050565b6040516329f4c97f60e21b8152600481018490526024810183905260009081906001600160a01b037f0000000000000000000000000000000000000000000000000000000000000000169063a7d325fc90604401600060405180830381865afa158015611511573d6000803e3d6000fd5b505050506040513d6000823e601f3d908101601f191682016040526115399190810190611d0d565b905060005b815181101561140b5783516040516115599190602001611df0565b6040516020818303038152906040528051906020012082828151811061158157611581611a91565b60200260200101516000015160405160200161159d9190611df0565b60405160208183030381529060405280519060200120036115c3576001925050506109d4565b806115cd81611aa7565b91505061153e565b50805460008255906000526020600020908101906115f39190611617565b50565b50805460008255600402906000526020600020908101906115f39190611630565b5b8082111561162c5760008155600101611618565b5090565b5b8082111561162c5780546001600160a01b031916815560006001820181905560028201805460ff191690556003820155600401611631565b60006020828403121561167b57600080fd5b81356001600160e01b0319811681146109d457600080fd5b60005b838110156116ae578181015183820152602001611696565b50506000910152565b600081518084526116cf816020860160208601611693565b601f01601f19169290920160200192915050565b6020815260006109d460208301846116b7565b6000806000806060858703121561170c57600080fd5b843593506020850135925060408501356001600160401b038082111561173157600080fd5b818701915087601f83011261174557600080fd5b81358181111561175457600080fd5b88602082850101111561176657600080fd5b95989497505060200194505050565b60008060006060848603121561178a57600080fd5b505081359360208301359350604090920135919050565b6001600160a01b03811681146115f357600080fd5b634e487b7160e01b600052604160045260246000fd5b604051602081016001600160401b03811182821017156117ee576117ee6117b6565b60405290565b604051608081016001600160401b03811182821017156117ee576117ee6117b6565b604051601f8201601f191681016001600160401b038111828210171561183e5761183e6117b6565b604052919050565b60006001600160401b0382111561185f5761185f6117b6565b50601f01601f191660200190565b6000806000806080858703121561188357600080fd5b843593506020808601359350604086013561189d816117a1565b925060608601356001600160401b03808211156118b957600080fd5b818801915082828a0312156118cd57600080fd5b6118d56117cc565b8235828111156118e457600080fd5b80840193505089601f8401126118f957600080fd5b8235915061190e61190983611846565b611816565b8281528a8584860101111561192257600080fd5b828585018683013760009281019094019190915291825250939692955090935050565b60008060006060848603121561195a57600080fd5b83359250602084013561196c816117a1565b929592945050506040919091013590565b6000806040838503121561199057600080fd5b8235915060208301356119a2816117a1565b809150509250929050565b60006020808301818452808551808352604092508286019150828160051b87010184880160005b83811015611a1357888303603f19018552815180518452870151878401879052611a00878501826116b7565b95880195935050908601906001016119d4565b509098975050505050505050565b600181811c90821680611a3557607f821691505b602082108103611a5557634e487b7160e01b600052602260045260246000fd5b50919050565b83815260406020820152816040820152818360608301376000818301606090810191909152601f909201601f1916010192915050565b634e487b7160e01b600052603260045260246000fd5b600060018201611ac757634e487b7160e01b600052601160045260246000fd5b5060010190565b600082601f830112611adf57600080fd5b8151611aed61190982611846565b818152846020838601011115611b0257600080fd5b610839826020830160208701611693565b600060208284031215611b2557600080fd5b81516001600160401b0380821115611b3c57600080fd5b9083019060408286031215611b5057600080fd5b604051604081018181108382111715611b6b57611b6b6117b6565b60405282518152602083015182811115611b8457600080fd5b611b9087828601611ace565b60208301525095945050505050565b60006001600160401b03821115611bb857611bb86117b6565b5060051b60200190565b60006020808385031215611bd557600080fd5b82356001600160401b0380821115611bec57600080fd5b8185019150828287031215611c0057600080fd5b611c086117cc565b823582811115611c1757600080fd5b80840193505086601f840112611c2c57600080fd5b82359150611c3c61190983611b9f565b82815260079290921b83018401918481019088841115611c5b57600080fd5b938501935b83851015611cca576080858a031215611c795760008081fd5b611c816117f4565b8535611c8c816117a1565b815285870135878201526040808701358015158114611cab5760008081fd5b9082015260608681013590820152825260809094019390850190611c60565b8252509695505050505050565b600060208284031215611ce957600080fd5b81516109d4816117a1565b600060208284031215611d0657600080fd5b5051919050565b60006020808385031215611d2057600080fd5b82516001600160401b0380821115611d3757600080fd5b818501915085601f830112611d4b57600080fd5b8151611d5961190982611b9f565b81815260059190911b83018401908481019088831115611d7857600080fd5b8585015b83811015611de357805185811115611d945760008081fd5b8601808b03601f1901881315611daa5760008081fd5b611db26117cc565b8882015187811115611dc45760008081fd5b611dd28d8b83860101611ace565b825250845250918601918601611d7c565b5098975050505050505050565b60008251611e02818460208701611693565b919091019291505056fea264697066735822122085b01c57603e8b93b3f7bbc78f62a9e1dcd4f780b5f3ff2e88973a767ab940c764736f6c63430008110033",
    "linkReferences": {}
  },
  "methodIdentifiers": {
    "_permisionRegistry()": "5acad43c",
    "_roleManager()": "f4339a97",
    "_spaceManager()": "3820c2ad",
    "addRoleIdToChannel(uint256,uint256,uint256)": "40a74b43",
    "description()": "7284e416",
    "getUserRoles(uint256,address)": "f725f2f6",
    "isEntitled(uint256,uint256,address,(string))": "66218999",
    "isTokenEntitled(uint256,address,bytes32)": "e1709f29",
    "moduleType()": "6465e69f",
    "name()": "06fdde03",
    "removeRoleIdFromChannel(uint256,uint256,uint256)": "5c1b185d",
    "removeSpaceEntitlement(uint256,uint256,bytes)": "3d1dea8c",
    "setSpaceEntitlement(uint256,uint256,bytes)": "4b0fd1a2",
    "supportsInterface(bytes4)": "01ffc9a7"
  },
  "id": 41
}