{
  "abi": [
    {
      "inputs": [
        {
          "internalType": "address",
          "name": "permissionRegistry",
          "type": "address"
        }
      ],
      "stateMutability": "nonpayable",
      "type": "constructor"
    },
    {
      "inputs": [],
      "name": "InvalidParameters",
      "type": "error"
    },
    {
      "inputs": [],
      "name": "NotSpaceManager",
      "type": "error"
    },
    {
      "anonymous": false,
      "inputs": [
        {
          "indexed": true,
          "internalType": "address",
          "name": "previousOwner",
          "type": "address"
        },
        {
          "indexed": true,
          "internalType": "address",
          "name": "newOwner",
          "type": "address"
        }
      ],
      "name": "OwnershipTransferred",
      "type": "event"
    },
    {
      "inputs": [
        {
          "internalType": "uint256",
          "name": "spaceId",
          "type": "uint256"
        },
        {
          "internalType": "uint256",
          "name": "roleId",
          "type": "uint256"
        },
        {
          "components": [
            {
              "internalType": "string",
              "name": "name",
              "type": "string"
            }
          ],
          "internalType": "struct DataTypes.Permission",
          "name": "permission",
          "type": "tuple"
        }
      ],
      "name": "addPermissionToRole",
      "outputs": [],
      "stateMutability": "nonpayable",
      "type": "function"
    },
    {
      "inputs": [
        {
          "internalType": "uint256",
          "name": "spaceId",
          "type": "uint256"
        }
      ],
      "name": "createOwnerRole",
      "outputs": [
        {
          "internalType": "uint256",
          "name": "",
          "type": "uint256"
        }
      ],
      "stateMutability": "nonpayable",
      "type": "function"
    },
    {
      "inputs": [
        {
          "internalType": "uint256",
          "name": "spaceId",
          "type": "uint256"
        },
        {
          "internalType": "string",
          "name": "name",
          "type": "string"
        },
        {
          "components": [
            {
              "internalType": "string",
              "name": "name",
              "type": "string"
            }
          ],
          "internalType": "struct DataTypes.Permission[]",
          "name": "permissions",
          "type": "tuple[]"
        }
      ],
      "name": "createRole",
      "outputs": [
        {
          "internalType": "uint256",
          "name": "",
          "type": "uint256"
        }
      ],
      "stateMutability": "nonpayable",
      "type": "function"
    },
    {
      "inputs": [
        {
          "internalType": "uint256",
          "name": "spaceId",
          "type": "uint256"
        },
        {
          "internalType": "string",
          "name": "name",
          "type": "string"
        }
      ],
      "name": "createRole",
      "outputs": [
        {
          "internalType": "uint256",
          "name": "",
          "type": "uint256"
        }
      ],
      "stateMutability": "nonpayable",
      "type": "function"
    },
    {
      "inputs": [
        {
          "internalType": "uint256",
          "name": "spaceId",
          "type": "uint256"
        },
        {
          "internalType": "uint256",
          "name": "roleId",
          "type": "uint256"
        }
      ],
      "name": "getPermissionsBySpaceIdByRoleId",
      "outputs": [
        {
          "components": [
            {
              "internalType": "string",
              "name": "name",
              "type": "string"
            }
          ],
          "internalType": "struct DataTypes.Permission[]",
          "name": "",
          "type": "tuple[]"
        }
      ],
      "stateMutability": "view",
      "type": "function"
    },
    {
      "inputs": [
        {
          "internalType": "uint256",
          "name": "spaceId",
          "type": "uint256"
        },
        {
          "internalType": "uint256",
          "name": "roleId",
          "type": "uint256"
        }
      ],
      "name": "getRoleBySpaceIdByRoleId",
      "outputs": [
        {
          "components": [
            {
              "internalType": "uint256",
              "name": "roleId",
              "type": "uint256"
            },
            {
              "internalType": "string",
              "name": "name",
              "type": "string"
            }
          ],
          "internalType": "struct DataTypes.Role",
          "name": "role",
          "type": "tuple"
        }
      ],
      "stateMutability": "view",
      "type": "function"
    },
    {
      "inputs": [
        {
          "internalType": "uint256",
          "name": "spaceId",
          "type": "uint256"
        }
      ],
      "name": "getRolesBySpaceId",
      "outputs": [
        {
          "components": [
            {
              "internalType": "uint256",
              "name": "roleId",
              "type": "uint256"
            },
            {
              "internalType": "string",
              "name": "name",
              "type": "string"
            }
          ],
          "internalType": "struct DataTypes.Role[]",
          "name": "",
          "type": "tuple[]"
        }
      ],
      "stateMutability": "view",
      "type": "function"
    },
    {
      "inputs": [],
      "name": "owner",
      "outputs": [
        {
          "internalType": "address",
          "name": "",
          "type": "address"
        }
      ],
      "stateMutability": "view",
      "type": "function"
    },
    {
      "inputs": [
        {
          "internalType": "uint256",
          "name": "spaceId",
          "type": "uint256"
        },
        {
          "internalType": "uint256",
          "name": "roleId",
          "type": "uint256"
        },
        {
          "components": [
            {
              "internalType": "string",
              "name": "name",
              "type": "string"
            }
          ],
          "internalType": "struct DataTypes.Permission",
          "name": "permission",
          "type": "tuple"
        }
      ],
      "name": "removePermissionFromRole",
      "outputs": [],
      "stateMutability": "nonpayable",
      "type": "function"
    },
    {
      "inputs": [
        {
          "internalType": "uint256",
          "name": "spaceId",
          "type": "uint256"
        },
        {
          "internalType": "uint256",
          "name": "roleId",
          "type": "uint256"
        }
      ],
      "name": "removeRole",
      "outputs": [],
      "stateMutability": "nonpayable",
      "type": "function"
    },
    {
      "inputs": [],
      "name": "renounceOwnership",
      "outputs": [],
      "stateMutability": "nonpayable",
      "type": "function"
    },
    {
      "inputs": [
        {
          "internalType": "address",
          "name": "spaceManager",
          "type": "address"
        }
      ],
      "name": "setSpaceManager",
      "outputs": [],
      "stateMutability": "nonpayable",
      "type": "function"
    },
    {
      "inputs": [
        {
          "internalType": "address",
          "name": "newOwner",
          "type": "address"
        }
      ],
      "name": "transferOwnership",
      "outputs": [],
      "stateMutability": "nonpayable",
      "type": "function"
    }
  ],
  "bytecode": {
    "object": "0x60a060405234801561001057600080fd5b50604051620019d6380380620019d6833981016040819052610031916100c2565b61003a33610072565b6001600160a01b03811661006157604051630e52390960e41b815260040160405180910390fd5b6001600160a01b03166080526100f2565b600080546001600160a01b038381166001600160a01b0319831681178455604051919092169283917f8be0079c531659141344cd1fd0a4f28419497f9722a3daafe3b4186f6b6457e09190a35050565b6000602082840312156100d457600080fd5b81516001600160a01b03811681146100eb57600080fd5b9392505050565b6080516118c16200011560003960008181610a740152610b7301526118c16000f3fe608060405234801561001057600080fd5b50600436106100cf5760003560e01c8063a7d325fc1161008c578063db474ecb11610066578063db474ecb146101bc578063e88ca8a1146101cf578063f2fde38b146101e2578063f62df4df146101f557600080fd5b8063a7d325fc14610169578063cdb0ba5014610189578063d9af4ecf1461019c57600080fd5b80633368c918146100d45780634b30a330146100e957806352f1bea2146100fc5780636404900414610125578063715018a6146101465780638da5cb5b1461014e575b600080fd5b6100e76100e2366004611164565b610208565b005b6100e76100f73660046111b4565b61024c565b61010f61010a3660046111dd565b610276565b60405161011c919061126d565b60405180910390f35b6101386101333660046112cf565b610387565b60405190815260200161011c565b6100e7610423565b6000546040516001600160a01b03909116815260200161011c565b61017c61017736600461136d565b610437565b60405161011c919061138f565b6100e761019736600461136d565b61053a565b6101af6101aa36600461136d565b61079a565b60405161011c91906113ec565b6100e76101ca366004611164565b610917565b6101386101dd3660046113ff565b610956565b6100e76101f03660046111b4565b610997565b6101386102033660046111dd565b610a15565b6003546001600160a01b03163314610233576040516312cb521760e11b815260040160405180910390fd5b61023c81610b3e565b610247838383610c55565b505050565b610254610c62565b600380546001600160a01b0319166001600160a01b0392909216919091179055565b606060016000838152602001908152602001600020600101805480602002602001604051908101604052809291908181526020016000905b8282101561037c5783829060005260206000209060020201604051806040016040529081600082015481526020016001820180546102eb90611446565b80601f016020809104026020016040519081016040528092919081815260200182805461031790611446565b80156103645780601f1061033957610100808354040283529160200191610364565b820191906000526020600020905b81548152906001019060200180831161034757829003601f168201915b505050505081525050815260200190600101906102ae565b505050509050919050565b6003546000906001600160a01b031633146103b5576040516312cb521760e11b815260040160405180910390fd5b60006103c386866001610cbc565b905060005b838110156104195761040787838787858181106103e7576103e7611480565b90506020028101906103f99190611496565b610402906114b6565b610c55565b80610411816114d8565b9150506103c8565b5095945050505050565b61042b610c62565b6104356000610d3b565b565b60008281526002602090815260408083208484528252808320805482518185028101850190935280835260609492939192909184015b8282101561052d5783829060005260206000200160405180602001604052908160008201805461049c90611446565b80601f01602080910402602001604051908101604052809291908181526020018280546104c890611446565b80156105155780601f106104ea57610100808354040283529160200191610515565b820191906000526020600020905b8154815290600101906020018083116104f857829003601f168201915b5050505050815250508152602001906001019061046d565b5050505090505b92915050565b6003546001600160a01b03163314610565576040516312cb521760e11b815260040160405180910390fd5b6000828152600160208190526040822001805490915b818110156107935782818154811061059557610595611480565b906000526020600020906002020160000154840361078b576000858152600260209081526040808320878452825280832080548251818502810185019093528083529192909190849084015b828210156106a15783829060005260206000200160405180602001604052908160008201805461061090611446565b80601f016020809104026020016040519081016040528092919081815260200182805461063c90611446565b80156106895780601f1061065e57610100808354040283529160200191610689565b820191906000526020600020905b81548152906001019060200180831161066c57829003601f168201915b505050505081525050815260200190600101906105e1565b5050825192935060009150505b818110156106e2576106da88888584815181106106cd576106cd611480565b6020026020010151610d8b565b6001016106ae565b50846106ef6001866114f1565b815481106106ff576106ff611480565b906000526020600020906002020185848154811061071f5761071f611480565b6000918252602090912082546002909202019081556001808201906107469084018261154a565b509050508480548061075a5761075a611627565b600082815260208120600260001990930192830201818155906107806001830182610fe0565b505090555050610793565b60010161057b565b5050505050565b604080518082019091526000815260606020820152600083815260016020818152604080842090920180548351818402810184019094528084529091849084015b828210156108a957838290600052602060002090600202016040518060400160405290816000820154815260200160018201805461081890611446565b80601f016020809104026020016040519081016040528092919081815260200182805461084490611446565b80156108915780601f1061086657610100808354040283529160200191610891565b820191906000526020600020905b81548152906001019060200180831161087457829003601f168201915b505050505081525050815260200190600101906107db565b5050825192935060009150505b8181101561090e578281815181106108d0576108d0611480565b6020026020010151600001518503610906578281815181106108f4576108f4611480565b60200260200101519350505050610534565b6001016108b6565b50505092915050565b6003546001600160a01b03163314610942576040516312cb521760e11b815260040160405180910390fd5b61094b81610b3e565b610247838383610d8b565b6003546000906001600160a01b03163314610984576040516312cb521760e11b815260040160405180910390fd5b61099083836001610cbc565b9392505050565b61099f610c62565b6001600160a01b038116610a095760405162461bcd60e51b815260206004820152602660248201527f4f776e61626c653a206e6577206f776e657220697320746865207a65726f206160448201526564647265737360d01b60648201526084015b60405180910390fd5b610a1281610d3b565b50565b6003546000906001600160a01b03163314610a43576040516312cb521760e11b815260040160405180910390fd5b6000610a6e836040518060400160405280600581526020016427bbb732b960d91b8152506001610cbc565b905060007f00000000000000000000000000000000000000000000000000000000000000006001600160a01b031663b989e2c56040518163ffffffff1660e01b8152600401600060405180830381865afa158015610ad0573d6000803e3d6000fd5b505050506040513d6000823e601f3d908101601f19168201604052610af891908101906116c0565b805190915060005b81811015610b3457610b2c8685858481518110610b1f57610b1f611480565b6020026020010151610c55565b600101610b00565b5091949350505050565b60405163173c4a6360e01b81527f929f3fd6848015f83b9210c89f7744e3941acae1195c8bf9f5798c090dc8f49760048201527f00000000000000000000000000000000000000000000000000000000000000006001600160a01b03169063173c4a6390602401600060405180830381865afa158015610bc2573d6000803e3d6000fd5b505050506040513d6000823e601f3d908101601f19168201604052610bea9190810190611783565b604051602001610bfa91906117b8565b6040516020818303038152906040528051906020012081604051602001610c2191906117b8565b6040516020818303038152906040528051906020012003610a1257604051630e52390960e41b815260040160405180910390fd5b6102478383836002610f07565b6000546001600160a01b031633146104355760405162461bcd60e51b815260206004820181905260248201527f4f776e61626c653a2063616c6c6572206973206e6f7420746865206f776e65726044820152606401610a00565b60008381526020829052604081208054829182610cd8836114d8565b9091555060008681526020858152604080832081518083019092528482528183018981526001918201805480840182559086529390942082516002909402019283559251939450929091820190610d2f90826117d3565b50919695505050505050565b600080546001600160a01b038381166001600160a01b0319831681178455604051919092169283917f8be0079c531659141344cd1fd0a4f28419497f9722a3daafe3b4186f6b6457e09190a35050565b60008381526002602090815260408083208584529091528120805490915b81811015610eff57610e668460000151848381548110610dcb57610dcb611480565b906000526020600020016000018054610de390611446565b80601f0160208091040260200160405190810160405280929190818152602001828054610e0f90611446565b8015610e5c5780601f10610e3157610100808354040283529160200191610e5c565b820191906000526020600020905b815481529060010190602001808311610e3f57829003601f168201915b5050505050610f48565b15610ef75782610e776001846114f1565b81548110610e8757610e87611480565b90600052602060002001838281548110610ea357610ea3611480565b600091825260209091200180610eb9838261154a565b5090505082805480610ecd57610ecd611627565b6001900381819060005260206000200160008082016000610eee9190610fe0565b50509055610eff565b600101610da9565b505050505050565b60008481526020828152604080832086845282528220805460018101825590835291208351849291909101908190610f3f90826117d3565b50505050505050565b8151815160009184918491908114610f665760009350505050610534565b60005b81811015610fd357828181518110610f8357610f83611480565b602001015160f81c60f81b6001600160f81b031916848281518110610faa57610faa611480565b01602001516001600160f81b03191614610fcb576000945050505050610534565b600101610f69565b5060019695505050505050565b508054610fec90611446565b6000825580601f10610ffc575050565b601f016020900490600052602060002090810190610a1291905b8082111561102a5760008155600101611016565b5090565b634e487b7160e01b600052604160045260246000fd5b6040516020810167ffffffffffffffff811182821017156110675761106761102e565b60405290565b604051601f8201601f1916810167ffffffffffffffff811182821017156110965761109661102e565b604052919050565b600067ffffffffffffffff8211156110b8576110b861102e565b50601f01601f191660200190565b600082601f8301126110d757600080fd5b81356110ea6110e58261109e565b61106d565b8181528460208386010111156110ff57600080fd5b816020850160208301376000918101602001919091529392505050565b60006020828403121561112e57600080fd5b611136611044565b9050813567ffffffffffffffff81111561114f57600080fd5b61115b848285016110c6565b82525092915050565b60008060006060848603121561117957600080fd5b8335925060208401359150604084013567ffffffffffffffff81111561119e57600080fd5b6111aa8682870161111c565b9150509250925092565b6000602082840312156111c657600080fd5b81356001600160a01b038116811461099057600080fd5b6000602082840312156111ef57600080fd5b5035919050565b60005b838110156112115781810151838201526020016111f9565b50506000910152565b600081518084526112328160208601602086016111f6565b601f01601f19169290920160200192915050565b805182526000602082015160406020850152611265604085018261121a565b949350505050565b6000602080830181845280855180835260408601915060408160051b870101925083870160005b828110156112c257603f198886030184526112b0858351611246565b94509285019290850190600101611294565b5092979650505050505050565b600080600080606085870312156112e557600080fd5b84359350602085013567ffffffffffffffff8082111561130457600080fd5b611310888389016110c6565b9450604087013591508082111561132657600080fd5b818701915087601f83011261133a57600080fd5b81358181111561134957600080fd5b8860208260051b850101111561135e57600080fd5b95989497505060200194505050565b6000806040838503121561138057600080fd5b50508035926020909101359150565b6000602080830181845280855180835260408601915060408160051b870101925083870160005b828110156112c257878503603f190184528151518686526113d98787018261121a565b95505092850192908501906001016113b6565b6020815260006109906020830184611246565b6000806040838503121561141257600080fd5b82359150602083013567ffffffffffffffff81111561143057600080fd5b61143c858286016110c6565b9150509250929050565b600181811c9082168061145a57607f821691505b60208210810361147a57634e487b7160e01b600052602260045260246000fd5b50919050565b634e487b7160e01b600052603260045260246000fd5b60008235601e198336030181126114ac57600080fd5b9190910192915050565b6000610534368361111c565b634e487b7160e01b600052601160045260246000fd5b6000600182016114ea576114ea6114c2565b5060010190565b81810381811115610534576105346114c2565b601f82111561024757600081815260208120601f850160051c8101602086101561152b5750805b601f850160051c820191505b81811015610eff57828155600101611537565b818103611555575050565b61155f8254611446565b67ffffffffffffffff8111156115775761157761102e565b61158b816115858454611446565b84611504565b6000601f8211600181146115bf57600083156115a75750848201545b600019600385901b1c1916600184901b178455610793565b600085815260209020601f19841690600086815260209020845b838110156115f957828601548255600195860195909101906020016115d9565b50858310156116175781850154600019600388901b60f8161c191681555b5050505050600190811b01905550565b634e487b7160e01b600052603160045260246000fd5b60006020828403121561164f57600080fd5b611657611044565b9050815167ffffffffffffffff81111561167057600080fd5b8201601f8101841361168157600080fd5b805161168f6110e58261109e565b8181528560208385010111156116a457600080fd5b6116b58260208301602086016111f6565b835250909392505050565b600060208083850312156116d357600080fd5b825167ffffffffffffffff808211156116eb57600080fd5b818501915085601f8301126116ff57600080fd5b8151818111156117115761171161102e565b8060051b61172085820161106d565b918252838101850191858101908984111561173a57600080fd5b86860192505b83831015611776578251858111156117585760008081fd5b6117668b89838a010161163d565b8352509186019190860190611740565b9998505050505050505050565b60006020828403121561179557600080fd5b815167ffffffffffffffff8111156117ac57600080fd5b6112658482850161163d565b6020815260008251602080840152611265604084018261121a565b815167ffffffffffffffff8111156117ed576117ed61102e565b6117fb816115858454611446565b602080601f83116001811461183057600084156118185750858301515b600019600386901b1c1916600185901b178555610eff565b600085815260208120601f198616915b8281101561185f57888601518255948401946001909101908401611840565b508582101561161757939096015160001960f8600387901b161c19169092555050600190811b0190555056fea2646970667358221220e79eb30fab67546474f9bcfbc81dc3833b3e74d7fe5f5a7efb42ed9d2d41b08264736f6c63430008110033",
    "linkReferences": {}
  },
  "methodIdentifiers": {
    "addPermissionToRole(uint256,uint256,(string))": "3368c918",
    "createOwnerRole(uint256)": "f62df4df",
    "createRole(uint256,string)": "e88ca8a1",
    "createRole(uint256,string,(string)[])": "64049004",
    "getPermissionsBySpaceIdByRoleId(uint256,uint256)": "a7d325fc",
    "getRoleBySpaceIdByRoleId(uint256,uint256)": "d9af4ecf",
    "getRolesBySpaceId(uint256)": "52f1bea2",
    "owner()": "8da5cb5b",
    "removePermissionFromRole(uint256,uint256,(string))": "db474ecb",
    "removeRole(uint256,uint256)": "cdb0ba50",
    "renounceOwnership()": "715018a6",
    "setSpaceManager(address)": "4b30a330",
    "transferOwnership(address)": "f2fde38b"
  },
  "id": 26
}